{
	"ICO/IcoOptimized.sol": {
		"ICO": {
			"abi": [
				{
					"inputs": [
						{
							"internalType": "contract IERC20",
							"name": "_token",
							"type": "address"
						},
						{
							"internalType": "address",
							"name": "_usdt",
							"type": "address"
						},
						{
							"internalType": "address",
							"name": "_usdc",
							"type": "address"
						},
						{
							"internalType": "uint256",
							"name": "_softCapInUSD",
							"type": "uint256"
						},
						{
							"internalType": "uint256",
							"name": "_hardCapInUSD",
							"type": "uint256"
						},
						{
							"internalType": "address",
							"name": "_priceFeedBNB",
							"type": "address"
						},
						{
							"internalType": "address",
							"name": "_priceFeedUSDT",
							"type": "address"
						},
						{
							"internalType": "address",
							"name": "_priceFeedUSDC",
							"type": "address"
						}
					],
					"stateMutability": "nonpayable",
					"type": "constructor"
				},
				{
					"inputs": [
						{
							"internalType": "address",
							"name": "owner",
							"type": "address"
						}
					],
					"name": "OwnableInvalidOwner",
					"type": "error"
				},
				{
					"inputs": [
						{
							"internalType": "address",
							"name": "account",
							"type": "address"
						}
					],
					"name": "OwnableUnauthorizedAccount",
					"type": "error"
				},
				{
					"inputs": [],
					"name": "ReentrancyGuardReentrantCall",
					"type": "error"
				},
				{
					"anonymous": false,
					"inputs": [
						{
							"indexed": true,
							"internalType": "uint256",
							"name": "totalTokensSold",
							"type": "uint256"
						}
					],
					"name": "ICOFinalized",
					"type": "event"
				},
				{
					"anonymous": false,
					"inputs": [
						{
							"indexed": true,
							"internalType": "uint256",
							"name": "saleId",
							"type": "uint256"
						}
					],
					"name": "ImmediateFinalization",
					"type": "event"
				},
				{
					"anonymous": false,
					"inputs": [
						{
							"indexed": true,
							"internalType": "uint256",
							"name": "saleId",
							"type": "uint256"
						},
						{
							"indexed": false,
							"internalType": "uint256",
							"name": "startTime",
							"type": "uint256"
						},
						{
							"indexed": false,
							"internalType": "uint256",
							"name": "endTime",
							"type": "uint256"
						},
						{
							"indexed": false,
							"internalType": "uint256",
							"name": "tokenPriceUSD",
							"type": "uint256"
						}
					],
					"name": "NewSaleCreated",
					"type": "event"
				},
				{
					"anonymous": false,
					"inputs": [
						{
							"indexed": true,
							"internalType": "address",
							"name": "previousOwner",
							"type": "address"
						},
						{
							"indexed": true,
							"internalType": "address",
							"name": "newOwner",
							"type": "address"
						}
					],
					"name": "OwnershipTransferred",
					"type": "event"
				},
				{
					"anonymous": false,
					"inputs": [
						{
							"indexed": true,
							"internalType": "address",
							"name": "investor",
							"type": "address"
						},
						{
							"indexed": false,
							"internalType": "uint256",
							"name": "amount",
							"type": "uint256"
						},
						{
							"indexed": false,
							"internalType": "enum ICO.PaymentMethod",
							"name": "paymentMethod",
							"type": "uint8"
						}
					],
					"name": "RefundInitiated",
					"type": "event"
				},
				{
					"anonymous": false,
					"inputs": [
						{
							"indexed": true,
							"internalType": "address",
							"name": "investor",
							"type": "address"
						},
						{
							"indexed": false,
							"internalType": "uint256",
							"name": "airdroppedAmount",
							"type": "uint256"
						}
					],
					"name": "TokenAirdropped",
					"type": "event"
				},
				{
					"anonymous": false,
					"inputs": [
						{
							"indexed": true,
							"internalType": "address",
							"name": "buyer",
							"type": "address"
						},
						{
							"indexed": true,
							"internalType": "uint256",
							"name": "saleId",
							"type": "uint256"
						},
						{
							"indexed": false,
							"internalType": "uint256",
							"name": "tokenPurchaseAmount",
							"type": "uint256"
						},
						{
							"indexed": false,
							"internalType": "uint256",
							"name": "tokenPriceUSD",
							"type": "uint256"
						},
						{
							"indexed": false,
							"internalType": "uint256",
							"name": "amountPaid",
							"type": "uint256"
						},
						{
							"indexed": false,
							"internalType": "enum ICO.PaymentMethod",
							"name": "paymentMethod",
							"type": "uint8"
						}
					],
					"name": "TokensPurchased",
					"type": "event"
				},
				{
					"inputs": [
						{
							"internalType": "enum ICO.PaymentMethod",
							"name": "paymentMethod",
							"type": "uint8"
						}
					],
					"name": "_getPriceFeed",
					"outputs": [
						{
							"internalType": "int256",
							"name": "",
							"type": "int256"
						}
					],
					"stateMutability": "view",
					"type": "function"
				},
				{
					"inputs": [],
					"name": "airdropTokens",
					"outputs": [],
					"stateMutability": "nonpayable",
					"type": "function"
				},
				{
					"inputs": [
						{
							"internalType": "enum ICO.PaymentMethod",
							"name": "paymentMethod",
							"type": "uint8"
						},
						{
							"internalType": "uint256",
							"name": "paymentAmount",
							"type": "uint256"
						}
					],
					"name": "buyTokens",
					"outputs": [],
					"stateMutability": "payable",
					"type": "function"
				},
				{
					"inputs": [
						{
							"internalType": "enum ICO.PaymentMethod",
							"name": "paymentMethod",
							"type": "uint8"
						},
						{
							"internalType": "uint256",
							"name": "tokenAmount",
							"type": "uint256"
						}
					],
					"name": "calculatePaymentAmount",
					"outputs": [
						{
							"internalType": "uint256",
							"name": "",
							"type": "uint256"
						}
					],
					"stateMutability": "view",
					"type": "function"
				},
				{
					"inputs": [
						{
							"internalType": "enum ICO.PaymentMethod",
							"name": "paymentMethod",
							"type": "uint8"
						},
						{
							"internalType": "uint256",
							"name": "paymentAmount",
							"type": "uint256"
						}
					],
					"name": "calculateTokenAmount",
					"outputs": [
						{
							"internalType": "uint256",
							"name": "",
							"type": "uint256"
						}
					],
					"stateMutability": "view",
					"type": "function"
				},
				{
					"inputs": [
						{
							"internalType": "address",
							"name": "",
							"type": "address"
						}
					],
					"name": "contributionsInUSD",
					"outputs": [
						{
							"internalType": "uint256",
							"name": "",
							"type": "uint256"
						}
					],
					"stateMutability": "view",
					"type": "function"
				},
				{
					"inputs": [
						{
							"internalType": "uint256",
							"name": "_startTime",
							"type": "uint256"
						},
						{
							"internalType": "uint256",
							"name": "_endTime",
							"type": "uint256"
						},
						{
							"internalType": "uint256",
							"name": "_tokenPriceUSD",
							"type": "uint256"
						}
					],
					"name": "createSale",
					"outputs": [],
					"stateMutability": "nonpayable",
					"type": "function"
				},
				{
					"inputs": [],
					"name": "finalizeICO",
					"outputs": [],
					"stateMutability": "nonpayable",
					"type": "function"
				},
				{
					"inputs": [],
					"name": "freeze",
					"outputs": [],
					"stateMutability": "nonpayable",
					"type": "function"
				},
				{
					"inputs": [],
					"name": "getCurrentSaleId",
					"outputs": [
						{
							"internalType": "uint256",
							"name": "",
							"type": "uint256"
						}
					],
					"stateMutability": "view",
					"type": "function"
				},
				{
					"inputs": [],
					"name": "getHardCapReached",
					"outputs": [
						{
							"internalType": "bool",
							"name": "",
							"type": "bool"
						}
					],
					"stateMutability": "view",
					"type": "function"
				},
				{
					"inputs": [],
					"name": "getInvestorCount",
					"outputs": [
						{
							"internalType": "uint256",
							"name": "investorCount",
							"type": "uint256"
						}
					],
					"stateMutability": "view",
					"type": "function"
				},
				{
					"inputs": [
						{
							"internalType": "uint256",
							"name": "",
							"type": "uint256"
						}
					],
					"name": "getSaleStartEndTime",
					"outputs": [
						{
							"internalType": "uint256",
							"name": "_startTime",
							"type": "uint256"
						},
						{
							"internalType": "uint256",
							"name": "_endTime",
							"type": "uint256"
						}
					],
					"stateMutability": "view",
					"type": "function"
				},
				{
					"inputs": [],
					"name": "getSoftCapReached",
					"outputs": [
						{
							"internalType": "bool",
							"name": "",
							"type": "bool"
						}
					],
					"stateMutability": "view",
					"type": "function"
				},
				{
					"inputs": [],
					"name": "hardCapInUSD",
					"outputs": [
						{
							"internalType": "uint256",
							"name": "",
							"type": "uint256"
						}
					],
					"stateMutability": "view",
					"type": "function"
				},
				{
					"inputs": [],
					"name": "initiateRefund",
					"outputs": [],
					"stateMutability": "nonpayable",
					"type": "function"
				},
				{
					"inputs": [
						{
							"internalType": "address",
							"name": "",
							"type": "address"
						},
						{
							"internalType": "enum ICO.PaymentMethod",
							"name": "",
							"type": "uint8"
						}
					],
					"name": "investorPayments",
					"outputs": [
						{
							"internalType": "uint256",
							"name": "",
							"type": "uint256"
						}
					],
					"stateMutability": "view",
					"type": "function"
				},
				{
					"inputs": [
						{
							"internalType": "uint256",
							"name": "",
							"type": "uint256"
						}
					],
					"name": "investors",
					"outputs": [
						{
							"internalType": "address",
							"name": "",
							"type": "address"
						}
					],
					"stateMutability": "view",
					"type": "function"
				},
				{
					"inputs": [],
					"name": "isFreezed",
					"outputs": [
						{
							"internalType": "bool",
							"name": "",
							"type": "bool"
						}
					],
					"stateMutability": "view",
					"type": "function"
				},
				{
					"inputs": [],
					"name": "isICOFinalized",
					"outputs": [
						{
							"internalType": "bool",
							"name": "",
							"type": "bool"
						}
					],
					"stateMutability": "view",
					"type": "function"
				},
				{
					"inputs": [],
					"name": "isTokensAirdropped",
					"outputs": [
						{
							"internalType": "bool",
							"name": "",
							"type": "bool"
						}
					],
					"stateMutability": "view",
					"type": "function"
				},
				{
					"inputs": [],
					"name": "owner",
					"outputs": [
						{
							"internalType": "address",
							"name": "",
							"type": "address"
						}
					],
					"stateMutability": "view",
					"type": "function"
				},
				{
					"inputs": [
						{
							"internalType": "address",
							"name": "",
							"type": "address"
						}
					],
					"name": "paymentMethodForInvestor",
					"outputs": [
						{
							"internalType": "enum ICO.PaymentMethod",
							"name": "",
							"type": "uint8"
						}
					],
					"stateMutability": "view",
					"type": "function"
				},
				{
					"inputs": [],
					"name": "priceFeedBNB",
					"outputs": [
						{
							"internalType": "contract AggregatorV3Interface",
							"name": "",
							"type": "address"
						}
					],
					"stateMutability": "view",
					"type": "function"
				},
				{
					"inputs": [],
					"name": "priceFeedUSDC",
					"outputs": [
						{
							"internalType": "contract AggregatorV3Interface",
							"name": "",
							"type": "address"
						}
					],
					"stateMutability": "view",
					"type": "function"
				},
				{
					"inputs": [],
					"name": "priceFeedUSDT",
					"outputs": [
						{
							"internalType": "contract AggregatorV3Interface",
							"name": "",
							"type": "address"
						}
					],
					"stateMutability": "view",
					"type": "function"
				},
				{
					"inputs": [],
					"name": "renounceOwnership",
					"outputs": [],
					"stateMutability": "nonpayable",
					"type": "function"
				},
				{
					"inputs": [],
					"name": "saleCount",
					"outputs": [
						{
							"internalType": "uint256",
							"name": "",
							"type": "uint256"
						}
					],
					"stateMutability": "view",
					"type": "function"
				},
				{
					"inputs": [
						{
							"internalType": "uint256",
							"name": "",
							"type": "uint256"
						}
					],
					"name": "sales",
					"outputs": [
						{
							"internalType": "uint256",
							"name": "startTime",
							"type": "uint256"
						},
						{
							"internalType": "uint256",
							"name": "endTime",
							"type": "uint256"
						},
						{
							"internalType": "uint256",
							"name": "tokenPriceUSD",
							"type": "uint256"
						},
						{
							"internalType": "uint256",
							"name": "tokensSold",
							"type": "uint256"
						},
						{
							"internalType": "bool",
							"name": "isFinalized",
							"type": "bool"
						}
					],
					"stateMutability": "view",
					"type": "function"
				},
				{
					"inputs": [],
					"name": "softCapInUSD",
					"outputs": [
						{
							"internalType": "uint256",
							"name": "",
							"type": "uint256"
						}
					],
					"stateMutability": "view",
					"type": "function"
				},
				{
					"inputs": [],
					"name": "token",
					"outputs": [
						{
							"internalType": "contract IERC20",
							"name": "",
							"type": "address"
						}
					],
					"stateMutability": "view",
					"type": "function"
				},
				{
					"inputs": [
						{
							"internalType": "address",
							"name": "",
							"type": "address"
						}
					],
					"name": "tokensBoughtByInvestor",
					"outputs": [
						{
							"internalType": "uint256",
							"name": "",
							"type": "uint256"
						}
					],
					"stateMutability": "view",
					"type": "function"
				},
				{
					"inputs": [],
					"name": "totalFundsRaisedUSD",
					"outputs": [
						{
							"internalType": "uint256",
							"name": "",
							"type": "uint256"
						}
					],
					"stateMutability": "view",
					"type": "function"
				},
				{
					"inputs": [],
					"name": "totalTokensSold",
					"outputs": [
						{
							"internalType": "uint256",
							"name": "",
							"type": "uint256"
						}
					],
					"stateMutability": "view",
					"type": "function"
				},
				{
					"inputs": [
						{
							"internalType": "address",
							"name": "newOwner",
							"type": "address"
						}
					],
					"name": "transferOwnership",
					"outputs": [],
					"stateMutability": "nonpayable",
					"type": "function"
				},
				{
					"inputs": [],
					"name": "unFreeze",
					"outputs": [],
					"stateMutability": "nonpayable",
					"type": "function"
				},
				{
					"inputs": [],
					"name": "usdc",
					"outputs": [
						{
							"internalType": "address",
							"name": "",
							"type": "address"
						}
					],
					"stateMutability": "view",
					"type": "function"
				},
				{
					"inputs": [],
					"name": "usdt",
					"outputs": [
						{
							"internalType": "address",
							"name": "",
							"type": "address"
						}
					],
					"stateMutability": "view",
					"type": "function"
				},
				{
					"stateMutability": "payable",
					"type": "receive"
				}
			],
			"devdoc": {
				"errors": {
					"OwnableInvalidOwner(address)": [
						{
							"details": "The owner is not a valid owner account. (eg. `address(0)`)"
						}
					],
					"OwnableUnauthorizedAccount(address)": [
						{
							"details": "The caller account is not authorized to perform an operation."
						}
					],
					"ReentrancyGuardReentrantCall()": [
						{
							"details": "Unauthorized reentrant call."
						}
					]
				},
				"kind": "dev",
				"methods": {
					"owner()": {
						"details": "Returns the address of the current owner."
					},
					"renounceOwnership()": {
						"details": "Leaves the contract without owner. It will not be possible to call `onlyOwner` functions. Can only be called by the current owner. NOTE: Renouncing ownership will leave the contract without an owner, thereby disabling any functionality that is only available to the owner."
					},
					"transferOwnership(address)": {
						"details": "Transfers ownership of the contract to a new account (`newOwner`). Can only be called by the current owner."
					}
				},
				"version": 1
			},
			"evm": {
				"assembly": "    /* \"ICO/IcoOptimized.sol\":305:16474  contract ICO is ReentrancyGuard ,Ownable {... */\n  mstore(0x40, 0x80)\n    /* \"ICO/IcoOptimized.sol\":2291:2893  constructor(... */\n  callvalue\n  dup1\n  iszero\n  tag_1\n  jumpi\n  0x00\n  dup1\n  revert\ntag_1:\n  pop\n  mload(0x40)\n  sub(codesize, bytecodeSize)\n  dup1\n  bytecodeSize\n  dup4\n  codecopy\n  dup2\n  add\n  0x40\n  dup2\n  swap1\n  mstore\n  tag_2\n  swap2\n  tag_3\n  jump\t// in\ntag_2:\n    /* \"@openzeppelin/contracts/utils/ReentrancyGuard.sol\":1857:1858  1 */\n  0x01\n    /* \"@openzeppelin/contracts/utils/ReentrancyGuard.sol\":2061:2068  _status */\n  0x00\n    /* \"@openzeppelin/contracts/utils/ReentrancyGuard.sol\":2061:2082  _status = NOT_ENTERED */\n  sstore\n    /* \"ICO/IcoOptimized.sol\":2543:2553  msg.sender */\n  caller\n  dup1\n    /* \"@openzeppelin/contracts/access/Ownable.sol\":1269:1364  if (initialOwner == address(0)) {... */\n  tag_9\n  jumpi\n    /* \"@openzeppelin/contracts/access/Ownable.sol\":1322:1353  OwnableInvalidOwner(address(0)) */\n  mload(0x40)\n  shl(0xe0, 0x1e4fbdf7)\n  dup2\n  mstore\n    /* \"@openzeppelin/contracts/access/Ownable.sol\":1350:1351  0 */\n  0x00\n    /* \"@openzeppelin/contracts/access/Ownable.sol\":1322:1353  OwnableInvalidOwner(address(0)) */\n  0x04\n  dup3\n  add\n    /* \"#utility.yul\":1523:1574   */\n  mstore\n    /* \"#utility.yul\":1496:1514   */\n  0x24\n  add\n    /* \"@openzeppelin/contracts/access/Ownable.sol\":1322:1353  OwnableInvalidOwner(address(0)) */\n  mload(0x40)\n  dup1\n  swap2\n  sub\n  swap1\n  revert\n    /* \"@openzeppelin/contracts/access/Ownable.sol\":1269:1364  if (initialOwner == address(0)) {... */\ntag_9:\n    /* \"@openzeppelin/contracts/access/Ownable.sol\":1373:1405  _transferOwnership(initialOwner) */\n  tag_12\n    /* \"@openzeppelin/contracts/access/Ownable.sol\":1392:1404  initialOwner */\n  dup2\n    /* \"@openzeppelin/contracts/access/Ownable.sol\":1373:1391  _transferOwnership */\n  tag_13\n    /* \"@openzeppelin/contracts/access/Ownable.sol\":1373:1405  _transferOwnership(initialOwner) */\n  jump\t// in\ntag_12:\n  pop\n    /* \"ICO/IcoOptimized.sol\":2565:2570  token */\n  0x05\n    /* \"ICO/IcoOptimized.sol\":2565:2579  token = _token */\n  dup1\n  sload\n  not(sub(shl(0xa0, 0x01), 0x01))\n  swap1\n  dup2\n  and\n  sub(shl(0xa0, 0x01), 0x01)\n  swap11\n  dup12\n  and\n  or\n  swap1\n  swap2\n  sstore\n    /* \"ICO/IcoOptimized.sol\":2589:2601  softCapInUSD */\n  0x06\n    /* \"ICO/IcoOptimized.sol\":2589:2617  softCapInUSD = _softCapInUSD */\n  swap6\n  swap1\n  swap6\n  sstore\n    /* \"ICO/IcoOptimized.sol\":2627:2639  hardCapInUSD */\n  0x07\n    /* \"ICO/IcoOptimized.sol\":2627:2655  hardCapInUSD = _hardCapInUSD */\n  swap4\n  swap1\n  swap4\n  sstore\n    /* \"ICO/IcoOptimized.sol\":2665:2669  usdt */\n  0x0d\n    /* \"ICO/IcoOptimized.sol\":2665:2677  usdt = _usdt */\n  dup1\n  sload\n  dup6\n  and\n  swap7\n  dup9\n  and\n  swap7\n  swap1\n  swap7\n  or\n  swap1\n  swap6\n  sstore\n    /* \"ICO/IcoOptimized.sol\":2687:2691  usdc */\n  0x0e\n    /* \"ICO/IcoOptimized.sol\":2687:2699  usdc = _usdc */\n  dup1\n  sload\n  dup5\n  and\n  swap5\n  dup8\n  and\n  swap5\n  swap1\n  swap5\n  or\n  swap1\n  swap4\n  sstore\n    /* \"ICO/IcoOptimized.sol\":2709:2721  priceFeedBNB */\n  0x02\n    /* \"ICO/IcoOptimized.sol\":2709:2760  priceFeedBNB = AggregatorV3Interface(_priceFeedBNB) */\n  dup1\n  sload\n  dup4\n  and\n  swap4\n  dup7\n  and\n  swap4\n  swap1\n  swap4\n  or\n  swap1\n  swap3\n  sstore\n  0x03\n    /* \"ICO/IcoOptimized.sol\":2770:2823  priceFeedUSDT = AggregatorV3Interface(_priceFeedUSDT) */\n  dup1\n  sload\n  dup3\n  and\n  swap4\n  dup6\n  and\n  swap4\n  swap1\n  swap4\n  or\n  swap1\n  swap3\n  sstore\n  0x04\n    /* \"ICO/IcoOptimized.sol\":2833:2886  priceFeedUSDC = AggregatorV3Interface(_priceFeedUSDC) */\n  dup1\n  sload\n  swap1\n  swap3\n  and\n  swap3\n  and\n  swap2\n  swap1\n  swap2\n  or\n  swap1\n  sstore\n    /* \"ICO/IcoOptimized.sol\":305:16474  contract ICO is ReentrancyGuard ,Ownable {... */\n  jump(tag_18)\n    /* \"@openzeppelin/contracts/access/Ownable.sol\":2912:3099  function _transferOwnership(address newOwner) internal virtual {... */\ntag_13:\n    /* \"@openzeppelin/contracts/access/Ownable.sol\":3004:3010  _owner */\n  0x01\n  dup1\n  sload\n  sub(shl(0xa0, 0x01), 0x01)\n    /* \"@openzeppelin/contracts/access/Ownable.sol\":3020:3037  _owner = newOwner */\n  dup4\n  dup2\n  and\n  not(sub(shl(0xa0, 0x01), 0x01))\n  dup4\n  and\n  dup2\n  or\n  swap1\n  swap4\n  sstore\n    /* \"@openzeppelin/contracts/access/Ownable.sol\":3052:3092  OwnershipTransferred(oldOwner, newOwner) */\n  mload(0x40)\n    /* \"@openzeppelin/contracts/access/Ownable.sol\":3004:3010  _owner */\n  swap2\n  and\n  swap2\n    /* \"@openzeppelin/contracts/access/Ownable.sol\":3020:3037  _owner = newOwner */\n  swap1\n    /* \"@openzeppelin/contracts/access/Ownable.sol\":3004:3010  _owner */\n  dup3\n  swap1\n    /* \"@openzeppelin/contracts/access/Ownable.sol\":3052:3092  OwnershipTransferred(oldOwner, newOwner) */\n  0x8be0079c531659141344cd1fd0a4f28419497f9722a3daafe3b4186f6b6457e0\n  swap1\n    /* \"@openzeppelin/contracts/access/Ownable.sol\":2985:3001  address oldOwner */\n  0x00\n  swap1\n    /* \"@openzeppelin/contracts/access/Ownable.sol\":3052:3092  OwnershipTransferred(oldOwner, newOwner) */\n  log3\n    /* \"@openzeppelin/contracts/access/Ownable.sol\":2975:3099  {... */\n  pop\n    /* \"@openzeppelin/contracts/access/Ownable.sol\":2912:3099  function _transferOwnership(address newOwner) internal virtual {... */\n  pop\n  jump\t// out\n    /* \"#utility.yul\":14:153   */\ntag_17:\n  sub(shl(0xa0, 0x01), 0x01)\n    /* \"#utility.yul\":97:128   */\n  dup2\n  and\n    /* \"#utility.yul\":87:129   */\n  dup2\n  eq\n    /* \"#utility.yul\":77:147   */\n  tag_20\n  jumpi\n    /* \"#utility.yul\":143:144   */\n  0x00\n    /* \"#utility.yul\":140:141   */\n  dup1\n    /* \"#utility.yul\":133:145   */\n  revert\n    /* \"#utility.yul\":77:147   */\ntag_20:\n    /* \"#utility.yul\":14:153   */\n  pop\n  jump\t// out\n    /* \"#utility.yul\":158:1372   */\ntag_3:\n    /* \"#utility.yul\":305:311   */\n  0x00\n    /* \"#utility.yul\":313:319   */\n  dup1\n    /* \"#utility.yul\":321:327   */\n  0x00\n    /* \"#utility.yul\":329:335   */\n  dup1\n    /* \"#utility.yul\":337:343   */\n  0x00\n    /* \"#utility.yul\":345:351   */\n  dup1\n    /* \"#utility.yul\":353:359   */\n  0x00\n    /* \"#utility.yul\":361:367   */\n  dup1\n    /* \"#utility.yul\":414:417   */\n  0x0100\n    /* \"#utility.yul\":402:411   */\n  dup10\n    /* \"#utility.yul\":393:400   */\n  dup12\n    /* \"#utility.yul\":389:412   */\n  sub\n    /* \"#utility.yul\":385:418   */\n  slt\n    /* \"#utility.yul\":382:435   */\n  iszero\n  tag_22\n  jumpi\n    /* \"#utility.yul\":431:432   */\n  0x00\n    /* \"#utility.yul\":428:429   */\n  dup1\n    /* \"#utility.yul\":421:433   */\n  revert\n    /* \"#utility.yul\":382:435   */\ntag_22:\n    /* \"#utility.yul\":463:472   */\n  dup9\n    /* \"#utility.yul\":457:473   */\n  mload\n    /* \"#utility.yul\":482:521   */\n  tag_23\n    /* \"#utility.yul\":515:520   */\n  dup2\n    /* \"#utility.yul\":482:521   */\n  tag_17\n  jump\t// in\ntag_23:\n    /* \"#utility.yul\":590:592   */\n  0x20\n    /* \"#utility.yul\":575:593   */\n  dup11\n  add\n    /* \"#utility.yul\":569:594   */\n  mload\n    /* \"#utility.yul\":540:545   */\n  swap1\n  swap9\n  pop\n    /* \"#utility.yul\":603:644   */\n  tag_24\n    /* \"#utility.yul\":569:594   */\n  dup2\n    /* \"#utility.yul\":603:644   */\n  tag_17\n  jump\t// in\ntag_24:\n    /* \"#utility.yul\":715:717   */\n  0x40\n    /* \"#utility.yul\":700:718   */\n  dup11\n  add\n    /* \"#utility.yul\":694:719   */\n  mload\n    /* \"#utility.yul\":663:670   */\n  swap1\n  swap8\n  pop\n    /* \"#utility.yul\":728:769   */\n  tag_25\n    /* \"#utility.yul\":694:719   */\n  dup2\n    /* \"#utility.yul\":728:769   */\n  tag_17\n  jump\t// in\ntag_25:\n    /* \"#utility.yul\":861:863   */\n  0x60\n    /* \"#utility.yul\":846:864   */\n  dup11\n  add\n    /* \"#utility.yul\":840:865   */\n  mload\n    /* \"#utility.yul\":957:960   */\n  0x80\n    /* \"#utility.yul\":942:961   */\n  dup12\n  add\n    /* \"#utility.yul\":936:962   */\n  mload\n    /* \"#utility.yul\":1033:1036   */\n  0xa0\n    /* \"#utility.yul\":1018:1037   */\n  dup13\n  add\n    /* \"#utility.yul\":1012:1038   */\n  mload\n    /* \"#utility.yul\":788:795   */\n  swap3\n  swap9\n  pop\n    /* \"#utility.yul\":840:865   */\n  swap1\n  swap7\n  pop\n    /* \"#utility.yul\":936:962   */\n  swap5\n  pop\n    /* \"#utility.yul\":1047:1088   */\n  tag_26\n    /* \"#utility.yul\":1012:1038   */\n  dup2\n    /* \"#utility.yul\":1047:1088   */\n  tag_17\n  jump\t// in\ntag_26:\n    /* \"#utility.yul\":1159:1162   */\n  0xc0\n    /* \"#utility.yul\":1144:1163   */\n  dup11\n  add\n    /* \"#utility.yul\":1138:1164   */\n  mload\n    /* \"#utility.yul\":1107:1114   */\n  swap1\n  swap4\n  pop\n    /* \"#utility.yul\":1173:1214   */\n  tag_27\n    /* \"#utility.yul\":1138:1164   */\n  dup2\n    /* \"#utility.yul\":1173:1214   */\n  tag_17\n  jump\t// in\ntag_27:\n    /* \"#utility.yul\":1285:1288   */\n  0xe0\n    /* \"#utility.yul\":1270:1289   */\n  dup11\n  add\n    /* \"#utility.yul\":1264:1290   */\n  mload\n    /* \"#utility.yul\":1233:1240   */\n  swap1\n  swap3\n  pop\n    /* \"#utility.yul\":1299:1340   */\n  tag_28\n    /* \"#utility.yul\":1264:1290   */\n  dup2\n    /* \"#utility.yul\":1299:1340   */\n  tag_17\n  jump\t// in\ntag_28:\n    /* \"#utility.yul\":1359:1366   */\n  dup1\n    /* \"#utility.yul\":1349:1366   */\n  swap2\n  pop\n  pop\n    /* \"#utility.yul\":158:1372   */\n  swap3\n  swap6\n  swap9\n  pop\n  swap3\n  swap6\n  swap9\n  swap1\n  swap4\n  swap7\n  pop\n  jump\t// out\n    /* \"#utility.yul\":1377:1580   */\ntag_18:\n    /* \"ICO/IcoOptimized.sol\":305:16474  contract ICO is ReentrancyGuard ,Ownable {... */\n  dataSize(sub_0)\n  dup1\n  dataOffset(sub_0)\n  0x00\n  codecopy\n  0x00\n  return\nstop\n\nsub_0: assembly {\n        /* \"ICO/IcoOptimized.sol\":305:16474  contract ICO is ReentrancyGuard ,Ownable {... */\n      mstore(0x40, 0x80)\n      jumpi(tag_1, lt(calldatasize, 0x04))\n      shr(0xe0, calldataload(0x00))\n      dup1\n      0x8da5cb5b\n      gt\n      tag_41\n      jumpi\n      dup1\n      0xc1560a14\n      gt\n      tag_42\n      jumpi\n      dup1\n      0xdf4e0593\n      gt\n      tag_43\n      jumpi\n      dup1\n      0xdf4e0593\n      eq\n      tag_36\n      jumpi\n      dup1\n      0xe8e87389\n      eq\n      tag_37\n      jumpi\n      dup1\n      0xefdcdb45\n      eq\n      tag_38\n      jumpi\n      dup1\n      0xf2fde38b\n      eq\n      tag_39\n      jumpi\n      dup1\n      0xfc0c546a\n      eq\n      tag_40\n      jumpi\n      0x00\n      dup1\n      revert\n    tag_43:\n      dup1\n      0xc1560a14\n      eq\n      tag_31\n      jumpi\n      dup1\n      0xc211e1f9\n      eq\n      tag_32\n      jumpi\n      dup1\n      0xc81ffdea\n      eq\n      tag_33\n      jumpi\n      dup1\n      0xd1f3b23e\n      eq\n      tag_34\n      jumpi\n      dup1\n      0xd3d9d1e4\n      eq\n      tag_35\n      jumpi\n      0x00\n      dup1\n      revert\n    tag_42:\n      dup1\n      0x960524e3\n      gt\n      tag_44\n      jumpi\n      dup1\n      0x960524e3\n      eq\n      tag_26\n      jumpi\n      dup1\n      0x99131e7e\n      eq\n      tag_27\n      jumpi\n      dup1\n      0xa1e89aec\n      eq\n      tag_28\n      jumpi\n      dup1\n      0xb5f522f7\n      eq\n      tag_29\n      jumpi\n      dup1\n      0xb9469e1a\n      eq\n      tag_30\n      jumpi\n      0x00\n      dup1\n      revert\n    tag_44:\n      dup1\n      0x8da5cb5b\n      eq\n      tag_22\n      jumpi\n      dup1\n      0x91152c5c\n      eq\n      tag_23\n      jumpi\n      dup1\n      0x91d8730a\n      eq\n      tag_24\n      jumpi\n      dup1\n      0x940c333e\n      eq\n      tag_25\n      jumpi\n      0x00\n      dup1\n      revert\n    tag_41:\n      dup1\n      0x3feb5f2b\n      gt\n      tag_45\n      jumpi\n      dup1\n      0x6c1909ed\n      gt\n      tag_46\n      jumpi\n      dup1\n      0x6c1909ed\n      eq\n      tag_17\n      jumpi\n      dup1\n      0x715018a6\n      eq\n      tag_18\n      jumpi\n      dup1\n      0x721bc38b\n      eq\n      tag_19\n      jumpi\n      dup1\n      0x7cf12b90\n      eq\n      tag_20\n      jumpi\n      dup1\n      0x7fb12001\n      eq\n      tag_21\n      jumpi\n      0x00\n      dup1\n      revert\n    tag_46:\n      dup1\n      0x3feb5f2b\n      eq\n      tag_12\n      jumpi\n      dup1\n      0x4dee1dc3\n      eq\n      tag_13\n      jumpi\n      dup1\n      0x62a469e9\n      eq\n      tag_14\n      jumpi\n      dup1\n      0x62a5af3b\n      eq\n      tag_15\n      jumpi\n      dup1\n      0x63b20117\n      eq\n      tag_16\n      jumpi\n      0x00\n      dup1\n      revert\n    tag_45:\n      dup1\n      0x212ea247\n      gt\n      tag_47\n      jumpi\n      dup1\n      0x212ea247\n      eq\n      tag_7\n      jumpi\n      dup1\n      0x2151206e\n      eq\n      tag_8\n      jumpi\n      dup1\n      0x23cc75a8\n      eq\n      tag_9\n      jumpi\n      dup1\n      0x2f48ab7d\n      eq\n      tag_10\n      jumpi\n      dup1\n      0x3e413bee\n      eq\n      tag_11\n      jumpi\n      0x00\n      dup1\n      revert\n    tag_47:\n      dup1\n      0x05834e67\n      eq\n      tag_3\n      jumpi\n      dup1\n      0x06e4d36f\n      eq\n      tag_4\n      jumpi\n      dup1\n      0x115afc3a\n      eq\n      tag_5\n      jumpi\n      dup1\n      0x117d260f\n      eq\n      tag_6\n      jumpi\n      0x00\n      dup1\n      revert\n    tag_1:\n      jumpi(tag_2, calldatasize)\n        /* \"ICO/IcoOptimized.sol\":15571:15613  revert(\"Direct BNB transfers not allowed\") */\n      mload(0x40)\n      shl(0xe5, 0x461bcd)\n      dup2\n      mstore\n        /* \"#utility.yul\":216:218   */\n      0x20\n        /* \"ICO/IcoOptimized.sol\":15571:15613  revert(\"Direct BNB transfers not allowed\") */\n      0x04\n      dup3\n      add\n        /* \"#utility.yul\":198:219   */\n      dup2\n      swap1\n      mstore\n        /* \"#utility.yul\":235:253   */\n      0x24\n      dup3\n      add\n        /* \"#utility.yul\":228:258   */\n      mstore\n        /* \"#utility.yul\":294:328   */\n      0x44697265637420424e42207472616e7366657273206e6f7420616c6c6f776564\n        /* \"#utility.yul\":274:292   */\n      0x44\n      dup3\n      add\n        /* \"#utility.yul\":267:329   */\n      mstore\n        /* \"#utility.yul\":346:364   */\n      0x64\n      add\n        /* \"ICO/IcoOptimized.sol\":15571:15613  revert(\"Direct BNB transfers not allowed\") */\n    tag_50:\n      mload(0x40)\n      dup1\n      swap2\n      sub\n      swap1\n      revert\n        /* \"ICO/IcoOptimized.sol\":305:16474  contract ICO is ReentrancyGuard ,Ownable {... */\n    tag_2:\n      0x00\n      dup1\n      revert\n        /* \"ICO/IcoOptimized.sol\":5254:6539  function calculateTokenAmount(... */\n    tag_3:\n      callvalue\n      dup1\n      iszero\n      tag_52\n      jumpi\n      0x00\n      dup1\n      revert\n    tag_52:\n      pop\n      tag_53\n      tag_54\n      calldatasize\n      0x04\n      tag_55\n      jump\t// in\n    tag_54:\n      tag_56\n      jump\t// in\n    tag_53:\n      mload(0x40)\n        /* \"#utility.yul\":1013:1038   */\n      swap1\n      dup2\n      mstore\n        /* \"#utility.yul\":1001:1003   */\n      0x20\n        /* \"#utility.yul\":986:1004   */\n      add\n        /* \"ICO/IcoOptimized.sol\":5254:6539  function calculateTokenAmount(... */\n    tag_57:\n      mload(0x40)\n      dup1\n      swap2\n      sub\n      swap1\n      return\n        /* \"ICO/IcoOptimized.sol\":16071:16188  function getSoftCapReached() public view returns (bool) {... */\n    tag_4:\n      callvalue\n      dup1\n      iszero\n      tag_59\n      jumpi\n      0x00\n      dup1\n      revert\n    tag_59:\n      pop\n        /* \"ICO/IcoOptimized.sol\":16168:16180  softCapInUSD */\n      sload(0x06)\n        /* \"ICO/IcoOptimized.sol\":16145:16164  totalFundsRaisedUSD */\n      sload(0x09)\n        /* \"ICO/IcoOptimized.sol\":16145:16180  totalFundsRaisedUSD >= softCapInUSD */\n      lt\n      iszero\n        /* \"ICO/IcoOptimized.sol\":16071:16188  function getSoftCapReached() public view returns (bool) {... */\n    tag_60:\n      mload(0x40)\n        /* \"#utility.yul\":1214:1228   */\n      swap1\n      iszero\n        /* \"#utility.yul\":1207:1229   */\n      iszero\n        /* \"#utility.yul\":1189:1230   */\n      dup2\n      mstore\n        /* \"#utility.yul\":1177:1179   */\n      0x20\n        /* \"#utility.yul\":1162:1180   */\n      add\n        /* \"ICO/IcoOptimized.sol\":16071:16188  function getSoftCapReached() public view returns (bool) {... */\n      tag_57\n        /* \"#utility.yul\":1049:1236   */\n      jump\n        /* \"ICO/IcoOptimized.sol\":3344:3990  function _getPriceFeed(PaymentMethod paymentMethod)... */\n    tag_5:\n      callvalue\n      dup1\n      iszero\n      tag_64\n      jumpi\n      0x00\n      dup1\n      revert\n    tag_64:\n      pop\n      tag_53\n      tag_66\n      calldatasize\n      0x04\n      tag_67\n      jump\t// in\n    tag_66:\n      tag_68\n      jump\t// in\n        /* \"ICO/IcoOptimized.sol\":6545:7817  function calculatePaymentAmount(... */\n    tag_6:\n      callvalue\n      dup1\n      iszero\n      tag_71\n      jumpi\n      0x00\n      dup1\n      revert\n    tag_71:\n      pop\n      tag_53\n      tag_73\n      calldatasize\n      0x04\n      tag_55\n      jump\t// in\n    tag_73:\n      tag_74\n      jump\t// in\n        /* \"ICO/IcoOptimized.sol\":15626:15717  function getCurrentSaleId() public view returns (uint256) {... */\n    tag_7:\n      callvalue\n      dup1\n      iszero\n      tag_76\n      jumpi\n      0x00\n      dup1\n      revert\n    tag_76:\n      pop\n        /* \"ICO/IcoOptimized.sol\":15701:15710  saleCount */\n      sload(0x08)\n        /* \"ICO/IcoOptimized.sol\":15626:15717  function getCurrentSaleId() public view returns (uint256) {... */\n      jump(tag_53)\n        /* \"ICO/IcoOptimized.sol\":807:834  uint256 public softCapInUSD */\n    tag_8:\n      callvalue\n      dup1\n      iszero\n      tag_80\n      jumpi\n      0x00\n      dup1\n      revert\n    tag_80:\n      pop\n      tag_53\n      sload(0x06)\n      dup2\n      jump\n        /* \"ICO/IcoOptimized.sol\":10406:10853  function finalizeICO()... */\n    tag_9:\n      callvalue\n      dup1\n      iszero\n      tag_84\n      jumpi\n      0x00\n      dup1\n      revert\n    tag_84:\n      pop\n      tag_85\n      tag_86\n      jump\t// in\n    tag_85:\n      stop\n        /* \"ICO/IcoOptimized.sol\":1193:1212  address public usdt */\n    tag_10:\n      callvalue\n      dup1\n      iszero\n      tag_87\n      jumpi\n      0x00\n      dup1\n      revert\n    tag_87:\n      pop\n      sload(0x0d)\n      tag_88\n      swap1\n      sub(shl(0xa0, 0x01), 0x01)\n      and\n      dup2\n      jump\n    tag_88:\n      mload(0x40)\n      sub(shl(0xa0, 0x01), 0x01)\n        /* \"#utility.yul\":1804:1836   */\n      swap1\n      swap2\n      and\n        /* \"#utility.yul\":1786:1837   */\n      dup2\n      mstore\n        /* \"#utility.yul\":1774:1776   */\n      0x20\n        /* \"#utility.yul\":1759:1777   */\n      add\n        /* \"ICO/IcoOptimized.sol\":1193:1212  address public usdt */\n      tag_57\n        /* \"#utility.yul\":1640:1843   */\n      jump\n        /* \"ICO/IcoOptimized.sol\":1218:1237  address public usdc */\n    tag_11:\n      callvalue\n      dup1\n      iszero\n      tag_92\n      jumpi\n      0x00\n      dup1\n      revert\n    tag_92:\n      pop\n      sload(0x0e)\n      tag_88\n      swap1\n      sub(shl(0xa0, 0x01), 0x01)\n      and\n      dup2\n      jump\n        /* \"ICO/IcoOptimized.sol\":1161:1187  address[] public investors */\n    tag_12:\n      callvalue\n      dup1\n      iszero\n      tag_96\n      jumpi\n      0x00\n      dup1\n      revert\n    tag_96:\n      pop\n      tag_88\n      tag_98\n      calldatasize\n      0x04\n      tag_99\n      jump\t// in\n    tag_98:\n      tag_100\n      jump\t// in\n        /* \"ICO/IcoOptimized.sol\":1096:1126  bool public isTokensAirdropped */\n    tag_13:\n      callvalue\n      dup1\n      iszero\n      tag_102\n      jumpi\n      0x00\n      dup1\n      revert\n    tag_102:\n      pop\n      sload(0x0b)\n      tag_60\n      swap1\n      0x0100\n      swap1\n      div\n      0xff\n      and\n      dup2\n      jump\n        /* \"ICO/IcoOptimized.sol\":428:470  AggregatorV3Interface public priceFeedUSDT */\n    tag_14:\n      callvalue\n      dup1\n      iszero\n      tag_106\n      jumpi\n      0x00\n      dup1\n      revert\n    tag_106:\n      pop\n      sload(0x03)\n      tag_88\n      swap1\n      sub(shl(0xa0, 0x01), 0x01)\n      and\n      dup2\n      jump\n        /* \"ICO/IcoOptimized.sol\":3092:3210  function freeze() external onlyOwner {... */\n    tag_15:\n      callvalue\n      dup1\n      iszero\n      tag_111\n      jumpi\n      0x00\n      dup1\n      revert\n    tag_111:\n      pop\n      tag_85\n      tag_113\n      jump\t// in\n        /* \"ICO/IcoOptimized.sol\":943:973  uint256 public totalTokensSold */\n    tag_16:\n      callvalue\n      dup1\n      iszero\n      tag_114\n      jumpi\n      0x00\n      dup1\n      revert\n    tag_114:\n      pop\n      tag_53\n      sload(0x0a)\n      dup2\n      jump\n        /* \"ICO/IcoOptimized.sol\":4385:5248  function createSale(... */\n    tag_17:\n      callvalue\n      dup1\n      iszero\n      tag_118\n      jumpi\n      0x00\n      dup1\n      revert\n    tag_118:\n      pop\n      tag_85\n      tag_120\n      calldatasize\n      0x04\n      tag_121\n      jump\t// in\n    tag_120:\n      tag_122\n      jump\t// in\n        /* \"@openzeppelin/contracts/access/Ownable.sol\":2293:2394  function renounceOwnership() public virtual onlyOwner {... */\n    tag_18:\n      callvalue\n      dup1\n      iszero\n      tag_123\n      jumpi\n      0x00\n      dup1\n      revert\n    tag_123:\n      pop\n      tag_85\n      tag_125\n      jump\t// in\n        /* \"ICO/IcoOptimized.sol\":903:937  uint256 public totalFundsRaisedUSD */\n    tag_19:\n      callvalue\n      dup1\n      iszero\n      tag_126\n      jumpi\n      0x00\n      dup1\n      revert\n    tag_126:\n      pop\n      tag_53\n      sload(0x09)\n      dup2\n      jump\n        /* \"ICO/IcoOptimized.sol\":3216:3338  function unFreeze() external onlyOwner {... */\n    tag_20:\n      callvalue\n      dup1\n      iszero\n      tag_130\n      jumpi\n      0x00\n      dup1\n      revert\n    tag_130:\n      pop\n      tag_85\n      tag_132\n      jump\t// in\n        /* \"ICO/IcoOptimized.sol\":13265:15528  function initiateRefund() external nonReentrant onlyOwner icoNotFinalized {... */\n    tag_21:\n      callvalue\n      dup1\n      iszero\n      tag_133\n      jumpi\n      0x00\n      dup1\n      revert\n    tag_133:\n      pop\n      tag_85\n      tag_135\n      jump\t// in\n        /* \"@openzeppelin/contracts/access/Ownable.sol\":1638:1723  function owner() public view virtual returns (address) {... */\n    tag_22:\n      callvalue\n      dup1\n      iszero\n      tag_136\n      jumpi\n      0x00\n      dup1\n      revert\n    tag_136:\n      pop\n        /* \"@openzeppelin/contracts/access/Ownable.sol\":1710:1716  _owner */\n      and(sub(shl(0xa0, 0x01), 0x01), sload(0x01))\n        /* \"@openzeppelin/contracts/access/Ownable.sol\":1638:1723  function owner() public view virtual returns (address) {... */\n      jump(tag_88)\n        /* \"ICO/IcoOptimized.sol\":11682:13259  function airdropTokens()... */\n    tag_23:\n      callvalue\n      dup1\n      iszero\n      tag_140\n      jumpi\n      0x00\n      dup1\n      revert\n    tag_140:\n      pop\n      tag_85\n      tag_142\n      jump\t// in\n        /* \"ICO/IcoOptimized.sol\":16194:16311  function getHardCapReached() public view returns (bool) {... */\n    tag_24:\n      callvalue\n      dup1\n      iszero\n      tag_143\n      jumpi\n      0x00\n      dup1\n      revert\n    tag_143:\n      pop\n        /* \"ICO/IcoOptimized.sol\":16291:16303  hardCapInUSD */\n      sload(0x07)\n        /* \"ICO/IcoOptimized.sol\":16268:16287  totalFundsRaisedUSD */\n      sload(0x09)\n        /* \"ICO/IcoOptimized.sol\":16268:16303  totalFundsRaisedUSD == hardCapInUSD */\n      eq\n        /* \"ICO/IcoOptimized.sol\":16194:16311  function getHardCapReached() public view returns (bool) {... */\n      jump(tag_60)\n        /* \"ICO/IcoOptimized.sol\":7823:10400  function buyTokens(PaymentMethod paymentMethod, uint256 paymentAmount)... */\n    tag_25:\n      tag_85\n      tag_148\n      calldatasize\n      0x04\n      tag_55\n      jump\t// in\n    tag_148:\n      tag_149\n      jump\t// in\n        /* \"ICO/IcoOptimized.sol\":16317:16468  function getInvestorCount() public view returns (uint256 investorCount) {... */\n    tag_26:\n      callvalue\n      dup1\n      iszero\n      tag_150\n      jumpi\n      0x00\n      dup1\n      revert\n    tag_150:\n      pop\n        /* \"ICO/IcoOptimized.sol\":16415:16424  investors */\n      0x0c\n        /* \"ICO/IcoOptimized.sol\":16415:16431  investors.length */\n      sload\n        /* \"ICO/IcoOptimized.sol\":16317:16468  function getInvestorCount() public view returns (uint256 investorCount) {... */\n      jump(tag_53)\n        /* \"ICO/IcoOptimized.sol\":381:422  AggregatorV3Interface public priceFeedBNB */\n    tag_27:\n      callvalue\n      dup1\n      iszero\n      tag_154\n      jumpi\n      0x00\n      dup1\n      revert\n    tag_154:\n      pop\n      sload(0x02)\n      tag_88\n      swap1\n      sub(shl(0xa0, 0x01), 0x01)\n      and\n      dup2\n      jump\n        /* \"ICO/IcoOptimized.sol\":873:897  uint256 public saleCount */\n    tag_28:\n      callvalue\n      dup1\n      iszero\n      tag_158\n      jumpi\n      0x00\n      dup1\n      revert\n    tag_158:\n      pop\n      tag_53\n      sload(0x08)\n      dup2\n      jump\n        /* \"ICO/IcoOptimized.sol\":1260:1297  mapping(uint256 => Sale) public sales */\n    tag_29:\n      callvalue\n      dup1\n      iszero\n      tag_162\n      jumpi\n      0x00\n      dup1\n      revert\n    tag_162:\n      pop\n      tag_163\n      tag_164\n      calldatasize\n      0x04\n      tag_99\n      jump\t// in\n    tag_164:\n      mstore(0x20, 0x0f)\n      0x00\n      swap1\n      dup2\n      mstore\n      0x40\n      swap1\n      keccak256\n      dup1\n      sload\n      0x01\n      dup3\n      add\n      sload\n      0x02\n      dup4\n      add\n      sload\n      0x03\n      dup5\n      add\n      sload\n      0x04\n      swap1\n      swap5\n      add\n      sload\n      swap3\n      swap4\n      swap2\n      swap3\n      swap1\n      swap2\n      swap1\n      0xff\n      and\n      dup6\n      jump\n    tag_163:\n      0x40\n      dup1\n      mload\n        /* \"#utility.yul\":3039:3064   */\n      swap6\n      dup7\n      mstore\n        /* \"#utility.yul\":3095:3097   */\n      0x20\n        /* \"#utility.yul\":3080:3098   */\n      dup7\n      add\n        /* \"#utility.yul\":3073:3107   */\n      swap5\n      swap1\n      swap5\n      mstore\n        /* \"#utility.yul\":3123:3141   */\n      swap3\n      dup5\n      add\n        /* \"#utility.yul\":3116:3150   */\n      swap2\n      swap1\n      swap2\n      mstore\n        /* \"#utility.yul\":3181:3183   */\n      0x60\n        /* \"#utility.yul\":3166:3184   */\n      dup4\n      add\n        /* \"#utility.yul\":3159:3193   */\n      mstore\n        /* \"#utility.yul\":3237:3251   */\n      iszero\n        /* \"#utility.yul\":3230:3252   */\n      iszero\n        /* \"#utility.yul\":3224:3227   */\n      0x80\n        /* \"#utility.yul\":3209:3228   */\n      dup3\n      add\n        /* \"#utility.yul\":3202:3253   */\n      mstore\n        /* \"#utility.yul\":3026:3029   */\n      0xa0\n        /* \"#utility.yul\":3011:3030   */\n      add\n        /* \"ICO/IcoOptimized.sol\":1260:1297  mapping(uint256 => Sale) public sales */\n      tag_57\n        /* \"#utility.yul\":2786:3259   */\n      jump\n        /* \"ICO/IcoOptimized.sol\":1132:1153  bool public isFreezed */\n    tag_30:\n      callvalue\n      dup1\n      iszero\n      tag_168\n      jumpi\n      0x00\n      dup1\n      revert\n    tag_168:\n      pop\n      sload(0x0b)\n      tag_60\n      swap1\n      0x010000\n      swap1\n      div\n      0xff\n      and\n      dup2\n      jump\n        /* \"ICO/IcoOptimized.sol\":840:867  uint256 public hardCapInUSD */\n    tag_31:\n      callvalue\n      dup1\n      iszero\n      tag_172\n      jumpi\n      0x00\n      dup1\n      revert\n    tag_172:\n      pop\n      tag_53\n      sload(0x07)\n      dup2\n      jump\n        /* \"ICO/IcoOptimized.sol\":15841:16065  function getSaleStartEndTime(uint256)... */\n    tag_32:\n      callvalue\n      dup1\n      iszero\n      tag_176\n      jumpi\n      0x00\n      dup1\n      revert\n    tag_176:\n      pop\n      tag_177\n      tag_178\n      calldatasize\n      0x04\n      tag_99\n      jump\t// in\n    tag_178:\n      pop\n        /* \"ICO/IcoOptimized.sol\":16001:16010  saleCount */\n      sload(0x08)\n        /* \"ICO/IcoOptimized.sol\":15924:15942  uint256 _startTime */\n      0x00\n        /* \"ICO/IcoOptimized.sol\":15995:16011  sales[saleCount] */\n      swap1\n      dup2\n      mstore\n        /* \"ICO/IcoOptimized.sol\":15995:16000  sales */\n      0x0f\n        /* \"ICO/IcoOptimized.sol\":15995:16011  sales[saleCount] */\n      0x20\n      swap1\n      dup2\n      mstore\n      0x40\n      swap2\n      dup3\n      swap1\n      keccak256\n        /* \"ICO/IcoOptimized.sol\":15976:16011  Sale memory sale = sales[saleCount] */\n      dup3\n      mload\n      0xa0\n      dup2\n      add\n      dup5\n      mstore\n      dup2\n      sload\n      dup1\n      dup3\n      mstore\n      0x01\n      dup4\n      add\n      sload\n      swap4\n      dup3\n      add\n      dup5\n      swap1\n      mstore\n      0x02\n      dup4\n      add\n      sload\n      swap5\n      dup3\n      add\n      swap5\n      swap1\n      swap5\n      mstore\n      0x03\n      dup3\n      add\n      sload\n      0x60\n      dup3\n      add\n      mstore\n      0x04\n      swap1\n      swap2\n      add\n      sload\n      0xff\n      and\n      iszero\n      iszero\n      0x80\n      swap1\n      swap2\n      add\n      mstore\n      swap1\n      swap2\n        /* \"ICO/IcoOptimized.sol\":15841:16065  function getSaleStartEndTime(uint256)... */\n      jump\n    tag_177:\n      0x40\n      dup1\n      mload\n        /* \"#utility.yul\":3438:3463   */\n      swap3\n      dup4\n      mstore\n        /* \"#utility.yul\":3494:3496   */\n      0x20\n        /* \"#utility.yul\":3479:3497   */\n      dup4\n      add\n        /* \"#utility.yul\":3472:3506   */\n      swap2\n      swap1\n      swap2\n      mstore\n        /* \"#utility.yul\":3411:3429   */\n      add\n        /* \"ICO/IcoOptimized.sol\":15841:16065  function getSaleStartEndTime(uint256)... */\n      tag_57\n        /* \"#utility.yul\":3264:3512   */\n      jump\n        /* \"ICO/IcoOptimized.sol\":1303:1356  mapping(address => uint256) public contributionsInUSD */\n    tag_33:\n      callvalue\n      dup1\n      iszero\n      tag_182\n      jumpi\n      0x00\n      dup1\n      revert\n    tag_182:\n      pop\n      tag_53\n      tag_184\n      calldatasize\n      0x04\n      tag_185\n      jump\t// in\n    tag_184:\n      mstore(0x20, 0x10)\n      0x00\n      swap1\n      dup2\n      mstore\n      0x40\n      swap1\n      keccak256\n      sload\n      dup2\n      jump\n        /* \"ICO/IcoOptimized.sol\":1063:1089  bool public isICOFinalized */\n    tag_34:\n      callvalue\n      dup1\n      iszero\n      tag_188\n      jumpi\n      0x00\n      dup1\n      revert\n    tag_188:\n      pop\n      sload(0x0b)\n      tag_60\n      swap1\n      0xff\n      and\n      dup2\n      jump\n        /* \"ICO/IcoOptimized.sol\":476:518  AggregatorV3Interface public priceFeedUSDC */\n    tag_35:\n      callvalue\n      dup1\n      iszero\n      tag_192\n      jumpi\n      0x00\n      dup1\n      revert\n    tag_192:\n      pop\n      sload(0x04)\n      tag_88\n      swap1\n      sub(shl(0xa0, 0x01), 0x01)\n      and\n      dup2\n      jump\n        /* \"ICO/IcoOptimized.sol\":1425:1490  mapping(address => PaymentMethod) public paymentMethodForInvestor */\n    tag_36:\n      callvalue\n      dup1\n      iszero\n      tag_196\n      jumpi\n      0x00\n      dup1\n      revert\n    tag_196:\n      pop\n      tag_197\n      tag_198\n      calldatasize\n      0x04\n      tag_185\n      jump\t// in\n    tag_198:\n      mstore(0x20, 0x12)\n      0x00\n      swap1\n      dup2\n      mstore\n      0x40\n      swap1\n      keccak256\n      sload\n      0xff\n      and\n      dup2\n      jump\n    tag_197:\n      mload(0x40)\n      tag_57\n      swap2\n      swap1\n      tag_201\n      jump\t// in\n        /* \"ICO/IcoOptimized.sol\":1362:1419  mapping(address => uint256) public tokensBoughtByInvestor */\n    tag_37:\n      callvalue\n      dup1\n      iszero\n      tag_202\n      jumpi\n      0x00\n      dup1\n      revert\n    tag_202:\n      pop\n      tag_53\n      tag_204\n      calldatasize\n      0x04\n      tag_185\n      jump\t// in\n    tag_204:\n      mstore(0x20, 0x11)\n      0x00\n      swap1\n      dup2\n      mstore\n      0x40\n      swap1\n      keccak256\n      sload\n      dup2\n      jump\n        /* \"ICO/IcoOptimized.sol\":1496:1572  mapping(address => mapping(PaymentMethod => uint256))public investorPayments */\n    tag_38:\n      callvalue\n      dup1\n      iszero\n      tag_207\n      jumpi\n      0x00\n      dup1\n      revert\n    tag_207:\n      pop\n      tag_53\n      tag_209\n      calldatasize\n      0x04\n      tag_210\n      jump\t// in\n    tag_209:\n      0x13\n      0x20\n      swap1\n      dup2\n      mstore\n      0x00\n      swap3\n      dup4\n      mstore\n      0x40\n      dup1\n      dup5\n      keccak256\n      swap1\n      swap2\n      mstore\n      swap1\n      dup3\n      mstore\n      swap1\n      keccak256\n      sload\n      dup2\n      jump\n        /* \"@openzeppelin/contracts/access/Ownable.sol\":2543:2758  function transferOwnership(address newOwner) public virtual onlyOwner {... */\n    tag_39:\n      callvalue\n      dup1\n      iszero\n      tag_213\n      jumpi\n      0x00\n      dup1\n      revert\n    tag_213:\n      pop\n      tag_85\n      tag_215\n      calldatasize\n      0x04\n      tag_185\n      jump\t// in\n    tag_215:\n      tag_216\n      jump\t// in\n        /* \"ICO/IcoOptimized.sol\":782:801  IERC20 public token */\n    tag_40:\n      callvalue\n      dup1\n      iszero\n      tag_217\n      jumpi\n      0x00\n      dup1\n      revert\n    tag_217:\n      pop\n      sload(0x05)\n      tag_88\n      swap1\n      sub(shl(0xa0, 0x01), 0x01)\n      and\n      dup2\n      jump\n        /* \"ICO/IcoOptimized.sol\":5254:6539  function calculateTokenAmount(... */\n    tag_56:\n        /* \"ICO/IcoOptimized.sol\":5379:5386  uint256 */\n      0x00\n        /* \"ICO/IcoOptimized.sol\":5398:5410  int256 price */\n      dup1\n        /* \"ICO/IcoOptimized.sol\":1011:1015  1e10 */\n      0x02540be400\n        /* \"ICO/IcoOptimized.sol\":5413:5441  _getPriceFeed(paymentMethod) */\n      tag_223\n        /* \"ICO/IcoOptimized.sol\":5427:5440  paymentMethod */\n      dup6\n        /* \"ICO/IcoOptimized.sol\":5413:5426  _getPriceFeed */\n      tag_68\n        /* \"ICO/IcoOptimized.sol\":5413:5441  _getPriceFeed(paymentMethod) */\n      jump\t// in\n    tag_223:\n        /* \"ICO/IcoOptimized.sol\":5413:5464  _getPriceFeed(paymentMethod) * int256(PRECISION_10) */\n      tag_224\n      swap2\n      swap1\n      tag_225\n      jump\t// in\n    tag_224:\n        /* \"ICO/IcoOptimized.sol\":5398:5464  int256 price = _getPriceFeed(paymentMethod) * int256(PRECISION_10) */\n      swap1\n      pop\n        /* \"ICO/IcoOptimized.sol\":5490:5491  0 */\n      0x00\n        /* \"ICO/IcoOptimized.sol\":5482:5487  price */\n      dup2\n        /* \"ICO/IcoOptimized.sol\":5482:5491  price > 0 */\n      sgt\n        /* \"ICO/IcoOptimized.sol\":5474:5514  require(price > 0, \"Invalid price feed\") */\n      tag_226\n      jumpi\n      mload(0x40)\n      shl(0xe5, 0x461bcd)\n      dup2\n      mstore\n        /* \"#utility.yul\":5575:5577   */\n      0x20\n        /* \"ICO/IcoOptimized.sol\":5474:5514  require(price > 0, \"Invalid price feed\") */\n      0x04\n      dup3\n      add\n        /* \"#utility.yul\":5557:5578   */\n      mstore\n        /* \"#utility.yul\":5614:5616   */\n      0x12\n        /* \"#utility.yul\":5594:5612   */\n      0x24\n      dup3\n      add\n        /* \"#utility.yul\":5587:5617   */\n      mstore\n      shl(0x72, 0x125b9d985b1a59081c1c9a58d94819995959)\n        /* \"#utility.yul\":5633:5651   */\n      0x44\n      dup3\n      add\n        /* \"#utility.yul\":5626:5674   */\n      mstore\n        /* \"#utility.yul\":5691:5709   */\n      0x64\n      add\n        /* \"ICO/IcoOptimized.sol\":5474:5514  require(price > 0, \"Invalid price feed\") */\n      tag_50\n        /* \"#utility.yul\":5373:5715   */\n      jump\n        /* \"ICO/IcoOptimized.sol\":5474:5514  require(price > 0, \"Invalid price feed\") */\n    tag_226:\n        /* \"ICO/IcoOptimized.sol\":5525:5546  uint256 currentSaleId */\n      0x00\n        /* \"ICO/IcoOptimized.sol\":5549:5567  getCurrentSaleId() */\n      tag_229\n        /* \"ICO/IcoOptimized.sol\":15701:15710  saleCount */\n      sload(0x08)\n      swap1\n        /* \"ICO/IcoOptimized.sol\":15626:15717  function getCurrentSaleId() public view returns (uint256) {... */\n      jump\n        /* \"ICO/IcoOptimized.sol\":5549:5567  getCurrentSaleId() */\n    tag_229:\n        /* \"ICO/IcoOptimized.sol\":5577:5594  Sale storage sale */\n      0x00\n        /* \"ICO/IcoOptimized.sol\":5597:5617  sales[currentSaleId] */\n      dup2\n      dup2\n      mstore\n        /* \"ICO/IcoOptimized.sol\":5597:5602  sales */\n      0x0f\n        /* \"ICO/IcoOptimized.sol\":5597:5617  sales[currentSaleId] */\n      0x20\n      mstore\n      0x40\n      dup2\n      keccak256\n        /* \"ICO/IcoOptimized.sol\":5654:5672  sale.tokenPriceUSD */\n      0x02\n      dup2\n      add\n      sload\n        /* \"ICO/IcoOptimized.sol\":5525:5567  uint256 currentSaleId = getCurrentSaleId() */\n      swap3\n      swap4\n      pop\n        /* \"ICO/IcoOptimized.sol\":5597:5617  sales[currentSaleId] */\n      swap2\n        /* \"ICO/IcoOptimized.sol\":5654:5672  sale.tokenPriceUSD */\n      swap1\n        /* \"ICO/IcoOptimized.sol\":5577:5594  Sale storage sale */\n      dup1\n        /* \"ICO/IcoOptimized.sol\":5756:5769  paymentMethod */\n      dup9\n        /* \"ICO/IcoOptimized.sol\":5756:5790  paymentMethod == PaymentMethod.BNB */\n      0x02\n      dup2\n      gt\n      iszero\n      tag_234\n      jumpi\n      tag_234\n      tag_232\n      jump\t// in\n    tag_234:\n      sub\n        /* \"ICO/IcoOptimized.sol\":5752:6398  if (paymentMethod == PaymentMethod.BNB) {... */\n      tag_235\n      jumpi\n        /* \"ICO/IcoOptimized.sol\":1053:1057  1e18 */\n      0x0de0b6b3a7640000\n        /* \"ICO/IcoOptimized.sol\":5844:5874  uint256(price) * paymentAmount */\n      tag_236\n        /* \"ICO/IcoOptimized.sol\":5861:5874  paymentAmount */\n      dup9\n        /* \"ICO/IcoOptimized.sol\":5852:5857  price */\n      dup8\n        /* \"ICO/IcoOptimized.sol\":5844:5874  uint256(price) * paymentAmount */\n      tag_237\n      jump\t// in\n    tag_236:\n        /* \"ICO/IcoOptimized.sol\":5843:5915  (uint256(price) * paymentAmount) /... */\n      tag_238\n      swap2\n      swap1\n      tag_239\n      jump\t// in\n    tag_238:\n        /* \"ICO/IcoOptimized.sol\":5806:5915  paymentAmountInUSD =... */\n      swap1\n      pop\n        /* \"ICO/IcoOptimized.sol\":5752:6398  if (paymentMethod == PaymentMethod.BNB) {... */\n      jump(tag_258)\n    tag_235:\n        /* \"ICO/IcoOptimized.sol\":5966:5984  PaymentMethod.USDC */\n      0x02\n        /* \"ICO/IcoOptimized.sol\":5949:5962  paymentMethod */\n      dup9\n        /* \"ICO/IcoOptimized.sol\":5949:5984  paymentMethod == PaymentMethod.USDC */\n      0x02\n      dup2\n      gt\n      iszero\n      tag_244\n      jumpi\n      tag_244\n      tag_232\n      jump\t// in\n    tag_244:\n      eq\n        /* \"ICO/IcoOptimized.sol\":5949:6035  paymentMethod == PaymentMethod.USDC ||... */\n      dup1\n      tag_245\n      jumpi\n      pop\n        /* \"ICO/IcoOptimized.sol\":6017:6035  PaymentMethod.USDT */\n      0x01\n        /* \"ICO/IcoOptimized.sol\":6000:6013  paymentMethod */\n      dup9\n        /* \"ICO/IcoOptimized.sol\":6000:6035  paymentMethod == PaymentMethod.USDT */\n      0x02\n      dup2\n      gt\n      iszero\n      tag_249\n      jumpi\n      tag_249\n      tag_232\n      jump\t// in\n    tag_249:\n      eq\n        /* \"ICO/IcoOptimized.sol\":5949:6035  paymentMethod == PaymentMethod.USDC ||... */\n    tag_245:\n        /* \"ICO/IcoOptimized.sol\":5932:6398  if (... */\n      iszero\n      tag_250\n      jumpi\n        /* \"ICO/IcoOptimized.sol\":6089:6090  6 */\n      0x06\n        /* \"ICO/IcoOptimized.sol\":6060:6086  uint256 stablecoinDecimals */\n      0x00\n        /* \"ICO/IcoOptimized.sol\":6169:6192  18 - stablecoinDecimals */\n      tag_251\n        /* \"ICO/IcoOptimized.sol\":6089:6090  6 */\n      dup3\n        /* \"ICO/IcoOptimized.sol\":6169:6171  18 */\n      0x12\n        /* \"ICO/IcoOptimized.sol\":6169:6192  18 - stablecoinDecimals */\n      tag_252\n      jump\t// in\n    tag_251:\n        /* \"ICO/IcoOptimized.sol\":6164:6193  10**(18 - stablecoinDecimals) */\n      tag_253\n      swap1\n        /* \"ICO/IcoOptimized.sol\":6164:6166  10 */\n      0x0a\n        /* \"ICO/IcoOptimized.sol\":6164:6193  10**(18 - stablecoinDecimals) */\n      tag_254\n      jump\t// in\n    tag_253:\n        /* \"ICO/IcoOptimized.sol\":6131:6194  paymentAmount *... */\n      tag_255\n      swap1\n        /* \"ICO/IcoOptimized.sol\":6131:6144  paymentAmount */\n      dup11\n        /* \"ICO/IcoOptimized.sol\":6131:6194  paymentAmount *... */\n      tag_237\n      jump\t// in\n    tag_255:\n        /* \"ICO/IcoOptimized.sol\":6104:6194  uint256 normalizedAmount = paymentAmount *... */\n      swap1\n      pop\n        /* \"ICO/IcoOptimized.sol\":1053:1057  1e18 */\n      0x0de0b6b3a7640000\n        /* \"ICO/IcoOptimized.sol\":6246:6279  uint256(price) * normalizedAmount */\n      tag_256\n        /* \"ICO/IcoOptimized.sol\":6104:6194  uint256 normalizedAmount = paymentAmount *... */\n      dup3\n        /* \"ICO/IcoOptimized.sol\":6254:6259  price */\n      dup10\n        /* \"ICO/IcoOptimized.sol\":6246:6279  uint256(price) * normalizedAmount */\n      tag_237\n      jump\t// in\n    tag_256:\n        /* \"ICO/IcoOptimized.sol\":6245:6320  (uint256(price) * normalizedAmount) /... */\n      tag_257\n      swap2\n      swap1\n      tag_239\n      jump\t// in\n    tag_257:\n        /* \"ICO/IcoOptimized.sol\":6208:6320  paymentAmountInUSD =... */\n      swap3\n      pop\n        /* \"ICO/IcoOptimized.sol\":6046:6331  {... */\n      pop\n      pop\n        /* \"ICO/IcoOptimized.sol\":5932:6398  if (... */\n      jump(tag_258)\n    tag_250:\n        /* \"ICO/IcoOptimized.sol\":6351:6387  revert(\"Unsupported payment method\") */\n      mload(0x40)\n      shl(0xe5, 0x461bcd)\n      dup2\n      mstore\n        /* \"#utility.yul\":7873:7875   */\n      0x20\n        /* \"ICO/IcoOptimized.sol\":6351:6387  revert(\"Unsupported payment method\") */\n      0x04\n      dup3\n      add\n        /* \"#utility.yul\":7855:7876   */\n      mstore\n        /* \"#utility.yul\":7912:7914   */\n      0x1a\n        /* \"#utility.yul\":7892:7910   */\n      0x24\n      dup3\n      add\n        /* \"#utility.yul\":7885:7915   */\n      mstore\n        /* \"#utility.yul\":7951:7979   */\n      0x556e737570706f72746564207061796d656e74206d6574686f64000000000000\n        /* \"#utility.yul\":7931:7949   */\n      0x44\n      dup3\n      add\n        /* \"#utility.yul\":7924:7980   */\n      mstore\n        /* \"#utility.yul\":7997:8015   */\n      0x64\n      add\n        /* \"ICO/IcoOptimized.sol\":6351:6387  revert(\"Unsupported payment method\") */\n      tag_50\n        /* \"#utility.yul\":7671:8021   */\n      jump\n        /* \"ICO/IcoOptimized.sol\":5932:6398  if (... */\n    tag_258:\n        /* \"ICO/IcoOptimized.sol\":6408:6427  uint256 tokenAmount */\n      0x00\n        /* \"ICO/IcoOptimized.sol\":6489:6504  tokenPriceInUSD */\n      dup3\n        /* \"ICO/IcoOptimized.sol\":6431:6473  paymentAmountInUSD * uint256(PRECISION_18) */\n      tag_261\n        /* \"ICO/IcoOptimized.sol\":1053:1057  1e18 */\n      0x0de0b6b3a7640000\n        /* \"ICO/IcoOptimized.sol\":6431:6449  paymentAmountInUSD */\n      dup5\n        /* \"ICO/IcoOptimized.sol\":6431:6473  paymentAmountInUSD * uint256(PRECISION_18) */\n      tag_237\n      jump\t// in\n    tag_261:\n        /* \"ICO/IcoOptimized.sol\":6430:6504  (paymentAmountInUSD * uint256(PRECISION_18)) /... */\n      tag_262\n      swap2\n      swap1\n      tag_239\n      jump\t// in\n    tag_262:\n        /* \"ICO/IcoOptimized.sol\":6408:6504  uint256 tokenAmount = (paymentAmountInUSD * uint256(PRECISION_18)) /... */\n      swap7\n      pop\n      pop\n      pop\n      pop\n      pop\n      pop\n      pop\n        /* \"ICO/IcoOptimized.sol\":5254:6539  function calculateTokenAmount(... */\n    tag_222:\n      swap3\n      swap2\n      pop\n      pop\n      jump\t// out\n        /* \"ICO/IcoOptimized.sol\":3344:3990  function _getPriceFeed(PaymentMethod paymentMethod)... */\n    tag_68:\n        /* \"ICO/IcoOptimized.sol\":3441:3447  int256 */\n      0x00\n      dup1\n        /* \"ICO/IcoOptimized.sol\":3467:3480  paymentMethod */\n      dup3\n        /* \"ICO/IcoOptimized.sol\":3467:3501  paymentMethod == PaymentMethod.BNB */\n      0x02\n      dup2\n      gt\n      iszero\n      tag_268\n      jumpi\n      tag_268\n      tag_232\n      jump\t// in\n    tag_268:\n      sub\n        /* \"ICO/IcoOptimized.sol\":3463:3984  if (paymentMethod == PaymentMethod.BNB) {... */\n      tag_269\n      jumpi\n        /* \"ICO/IcoOptimized.sol\":3542:3554  priceFeedBNB */\n      sload(0x02)\n        /* \"ICO/IcoOptimized.sol\":3542:3572  priceFeedBNB.latestRoundData() */\n      0x40\n      dup1\n      mload\n      shl(0xe2, 0x3fabe5a3)\n      dup2\n      mstore\n      swap1\n      mload\n        /* \"ICO/IcoOptimized.sol\":3520:3532  int256 price */\n      0x00\n      swap3\n      sub(shl(0xa0, 0x01), 0x01)\n        /* \"ICO/IcoOptimized.sol\":3542:3554  priceFeedBNB */\n      and\n      swap2\n        /* \"ICO/IcoOptimized.sol\":3542:3570  priceFeedBNB.latestRoundData */\n      0xfeaf968c\n      swap2\n        /* \"ICO/IcoOptimized.sol\":3542:3572  priceFeedBNB.latestRoundData() */\n      0x04\n      dup1\n      dup4\n      add\n      swap3\n      0xa0\n      swap3\n      swap2\n      swap1\n      dup3\n      swap1\n      sub\n      add\n      dup2\n        /* \"ICO/IcoOptimized.sol\":3542:3554  priceFeedBNB */\n      dup7\n        /* \"ICO/IcoOptimized.sol\":3542:3572  priceFeedBNB.latestRoundData() */\n      gas\n      staticcall\n      iszero\n      dup1\n      iszero\n      tag_271\n      jumpi\n      returndatasize\n      0x00\n      dup1\n      returndatacopy\n      revert(0x00, returndatasize)\n    tag_271:\n      pop\n      pop\n      pop\n      pop\n      mload(0x40)\n      returndatasize\n      not(0x1f)\n      0x1f\n      dup3\n      add\n      and\n      dup3\n      add\n      dup1\n      0x40\n      mstore\n      pop\n      dup2\n      add\n      swap1\n      tag_272\n      swap2\n      swap1\n      tag_273\n      jump\t// in\n    tag_272:\n      pop\n        /* \"ICO/IcoOptimized.sol\":3517:3572  (, int256 price, , , ) = priceFeedBNB.latestRoundData() */\n      swap2\n      swap7\n        /* \"ICO/IcoOptimized.sol\":3344:3990  function _getPriceFeed(PaymentMethod paymentMethod)... */\n      swap6\n      pop\n      pop\n      pop\n      pop\n      pop\n      pop\n      jump\t// out\n        /* \"ICO/IcoOptimized.sol\":3463:3984  if (paymentMethod == PaymentMethod.BNB) {... */\n    tag_269:\n        /* \"ICO/IcoOptimized.sol\":3636:3654  PaymentMethod.USDT */\n      0x01\n        /* \"ICO/IcoOptimized.sol\":3619:3632  paymentMethod */\n      dup3\n        /* \"ICO/IcoOptimized.sol\":3619:3654  paymentMethod == PaymentMethod.USDT */\n      0x02\n      dup2\n      gt\n      iszero\n      tag_278\n      jumpi\n      tag_278\n      tag_232\n      jump\t// in\n    tag_278:\n      sub\n        /* \"ICO/IcoOptimized.sol\":3615:3984  if (paymentMethod == PaymentMethod.USDT) {... */\n      tag_279\n      jumpi\n        /* \"ICO/IcoOptimized.sol\":3695:3708  priceFeedUSDT */\n      sload(0x03)\n        /* \"ICO/IcoOptimized.sol\":3695:3726  priceFeedUSDT.latestRoundData() */\n      0x40\n      dup1\n      mload\n      shl(0xe2, 0x3fabe5a3)\n      dup2\n      mstore\n      swap1\n      mload\n        /* \"ICO/IcoOptimized.sol\":3673:3685  int256 price */\n      0x00\n      swap3\n      sub(shl(0xa0, 0x01), 0x01)\n        /* \"ICO/IcoOptimized.sol\":3695:3708  priceFeedUSDT */\n      and\n      swap2\n        /* \"ICO/IcoOptimized.sol\":3695:3724  priceFeedUSDT.latestRoundData */\n      0xfeaf968c\n      swap2\n        /* \"ICO/IcoOptimized.sol\":3695:3726  priceFeedUSDT.latestRoundData() */\n      0x04\n      dup1\n      dup4\n      add\n      swap3\n      0xa0\n      swap3\n      swap2\n      swap1\n      dup3\n      swap1\n      sub\n      add\n      dup2\n        /* \"ICO/IcoOptimized.sol\":3695:3708  priceFeedUSDT */\n      dup7\n        /* \"ICO/IcoOptimized.sol\":3695:3726  priceFeedUSDT.latestRoundData() */\n      gas\n      staticcall\n      iszero\n      dup1\n      iszero\n      tag_271\n      jumpi\n      returndatasize\n      0x00\n      dup1\n      returndatacopy\n      revert(0x00, returndatasize)\n        /* \"ICO/IcoOptimized.sol\":3615:3984  if (paymentMethod == PaymentMethod.USDT) {... */\n    tag_279:\n        /* \"ICO/IcoOptimized.sol\":3790:3808  PaymentMethod.USDC */\n      0x02\n        /* \"ICO/IcoOptimized.sol\":3773:3786  paymentMethod */\n      dup3\n        /* \"ICO/IcoOptimized.sol\":3773:3808  paymentMethod == PaymentMethod.USDC */\n      0x02\n      dup2\n      gt\n      iszero\n      tag_287\n      jumpi\n      tag_287\n      tag_232\n      jump\t// in\n    tag_287:\n      sub\n        /* \"ICO/IcoOptimized.sol\":3769:3984  if (paymentMethod == PaymentMethod.USDC) {... */\n      tag_250\n      jumpi\n        /* \"ICO/IcoOptimized.sol\":3827:3839  int256 price */\n      0x00\n        /* \"ICO/IcoOptimized.sol\":3849:3862  priceFeedUSDC */\n      0x04\n      0x00\n      swap1\n      sload\n      swap1\n      0x0100\n      exp\n      swap1\n      div\n      sub(shl(0xa0, 0x01), 0x01)\n      and\n      sub(shl(0xa0, 0x01), 0x01)\n        /* \"ICO/IcoOptimized.sol\":3849:3878  priceFeedUSDC.latestRoundData */\n      and\n      0xfeaf968c\n        /* \"ICO/IcoOptimized.sol\":3849:3880  priceFeedUSDC.latestRoundData() */\n      mload(0x40)\n      dup2\n      0xffffffff\n      and\n      0xe0\n      shl\n      dup2\n      mstore\n      0x04\n      add\n      0xa0\n      mload(0x40)\n      dup1\n      dup4\n      sub\n      dup2\n      dup7\n      gas\n      staticcall\n      iszero\n      dup1\n      iszero\n      tag_271\n      jumpi\n      returndatasize\n      0x00\n      dup1\n      returndatacopy\n      revert(0x00, returndatasize)\n        /* \"ICO/IcoOptimized.sol\":3769:3984  if (paymentMethod == PaymentMethod.USDC) {... */\n    tag_292:\n        /* \"ICO/IcoOptimized.sol\":3344:3990  function _getPriceFeed(PaymentMethod paymentMethod)... */\n      swap2\n      swap1\n      pop\n      jump\t// out\n        /* \"ICO/IcoOptimized.sol\":6545:7817  function calculatePaymentAmount(... */\n    tag_74:\n        /* \"ICO/IcoOptimized.sol\":6670:6677  uint256 */\n      0x00\n        /* \"ICO/IcoOptimized.sol\":6711:6712  0 */\n      dup1\n        /* \"ICO/IcoOptimized.sol\":6697:6708  tokenAmount */\n      dup3\n        /* \"ICO/IcoOptimized.sol\":6697:6712  tokenAmount > 0 */\n      gt\n        /* \"ICO/IcoOptimized.sol\":6689:6755  require(tokenAmount > 0, \"Token amount must be greater than zero\") */\n      tag_295\n      jumpi\n      mload(0x40)\n      shl(0xe5, 0x461bcd)\n      dup2\n      mstore\n        /* \"#utility.yul\":8988:8990   */\n      0x20\n        /* \"ICO/IcoOptimized.sol\":6689:6755  require(tokenAmount > 0, \"Token amount must be greater than zero\") */\n      0x04\n      dup3\n      add\n        /* \"#utility.yul\":8970:8991   */\n      mstore\n        /* \"#utility.yul\":9027:9029   */\n      0x26\n        /* \"#utility.yul\":9007:9025   */\n      0x24\n      dup3\n      add\n        /* \"#utility.yul\":9000:9030   */\n      mstore\n        /* \"#utility.yul\":9066:9100   */\n      0x546f6b656e20616d6f756e74206d757374206265206772656174657220746861\n        /* \"#utility.yul\":9046:9064   */\n      0x44\n      dup3\n      add\n        /* \"#utility.yul\":9039:9101   */\n      mstore\n      shl(0xd0, 0x6e207a65726f)\n        /* \"#utility.yul\":9117:9135   */\n      0x64\n      dup3\n      add\n        /* \"#utility.yul\":9110:9146   */\n      mstore\n        /* \"#utility.yul\":9163:9182   */\n      0x84\n      add\n        /* \"ICO/IcoOptimized.sol\":6689:6755  require(tokenAmount > 0, \"Token amount must be greater than zero\") */\n      tag_50\n        /* \"#utility.yul\":8786:9188   */\n      jump\n        /* \"ICO/IcoOptimized.sol\":6689:6755  require(tokenAmount > 0, \"Token amount must be greater than zero\") */\n    tag_295:\n        /* \"ICO/IcoOptimized.sol\":6766:6778  int256 price */\n      0x00\n        /* \"ICO/IcoOptimized.sol\":1011:1015  1e10 */\n      0x02540be400\n        /* \"ICO/IcoOptimized.sol\":6781:6809  _getPriceFeed(paymentMethod) */\n      tag_298\n        /* \"ICO/IcoOptimized.sol\":6795:6808  paymentMethod */\n      dup6\n        /* \"ICO/IcoOptimized.sol\":6781:6794  _getPriceFeed */\n      tag_68\n        /* \"ICO/IcoOptimized.sol\":6781:6809  _getPriceFeed(paymentMethod) */\n      jump\t// in\n    tag_298:\n        /* \"ICO/IcoOptimized.sol\":6781:6832  _getPriceFeed(paymentMethod) * int256(PRECISION_10) */\n      tag_299\n      swap2\n      swap1\n      tag_225\n      jump\t// in\n    tag_299:\n        /* \"ICO/IcoOptimized.sol\":6766:6832  int256 price = _getPriceFeed(paymentMethod) * int256(PRECISION_10) */\n      swap1\n      pop\n        /* \"ICO/IcoOptimized.sol\":6886:6887  0 */\n      0x00\n        /* \"ICO/IcoOptimized.sol\":6878:6883  price */\n      dup2\n        /* \"ICO/IcoOptimized.sol\":6878:6887  price > 0 */\n      sgt\n        /* \"ICO/IcoOptimized.sol\":6870:6910  require(price > 0, \"Invalid price feed\") */\n      tag_300\n      jumpi\n      mload(0x40)\n      shl(0xe5, 0x461bcd)\n      dup2\n      mstore\n        /* \"#utility.yul\":5575:5577   */\n      0x20\n        /* \"ICO/IcoOptimized.sol\":6870:6910  require(price > 0, \"Invalid price feed\") */\n      0x04\n      dup3\n      add\n        /* \"#utility.yul\":5557:5578   */\n      mstore\n        /* \"#utility.yul\":5614:5616   */\n      0x12\n        /* \"#utility.yul\":5594:5612   */\n      0x24\n      dup3\n      add\n        /* \"#utility.yul\":5587:5617   */\n      mstore\n      shl(0x72, 0x125b9d985b1a59081c1c9a58d94819995959)\n        /* \"#utility.yul\":5633:5651   */\n      0x44\n      dup3\n      add\n        /* \"#utility.yul\":5626:5674   */\n      mstore\n        /* \"#utility.yul\":5691:5709   */\n      0x64\n      add\n        /* \"ICO/IcoOptimized.sol\":6870:6910  require(price > 0, \"Invalid price feed\") */\n      tag_50\n        /* \"#utility.yul\":5373:5715   */\n      jump\n        /* \"ICO/IcoOptimized.sol\":6870:6910  require(price > 0, \"Invalid price feed\") */\n    tag_300:\n        /* \"ICO/IcoOptimized.sol\":6921:6942  uint256 currentSaleId */\n      0x00\n        /* \"ICO/IcoOptimized.sol\":6945:6963  getCurrentSaleId() */\n      tag_302\n        /* \"ICO/IcoOptimized.sol\":15701:15710  saleCount */\n      sload(0x08)\n      swap1\n        /* \"ICO/IcoOptimized.sol\":15626:15717  function getCurrentSaleId() public view returns (uint256) {... */\n      jump\n        /* \"ICO/IcoOptimized.sol\":6945:6963  getCurrentSaleId() */\n    tag_302:\n        /* \"ICO/IcoOptimized.sol\":6921:6963  uint256 currentSaleId = getCurrentSaleId() */\n      swap1\n      pop\n        /* \"ICO/IcoOptimized.sol\":6981:6994  currentSaleId */\n      dup1\n        /* \"ICO/IcoOptimized.sol\":6998:6999  0 */\n      0x00\n        /* \"ICO/IcoOptimized.sol\":6981:6999  currentSaleId != 0 */\n      sub\n        /* \"ICO/IcoOptimized.sol\":6973:7018  require(currentSaleId != 0, \"No active sale\") */\n      tag_303\n      jumpi\n      mload(0x40)\n      shl(0xe5, 0x461bcd)\n      dup2\n      mstore\n        /* \"#utility.yul\":9395:9397   */\n      0x20\n        /* \"ICO/IcoOptimized.sol\":6973:7018  require(currentSaleId != 0, \"No active sale\") */\n      0x04\n      dup3\n      add\n        /* \"#utility.yul\":9377:9398   */\n      mstore\n        /* \"#utility.yul\":9434:9436   */\n      0x0e\n        /* \"#utility.yul\":9414:9432   */\n      0x24\n      dup3\n      add\n        /* \"#utility.yul\":9407:9437   */\n      mstore\n      shl(0x90, 0x4e6f206163746976652073616c65)\n        /* \"#utility.yul\":9453:9471   */\n      0x44\n      dup3\n      add\n        /* \"#utility.yul\":9446:9490   */\n      mstore\n        /* \"#utility.yul\":9507:9525   */\n      0x64\n      add\n        /* \"ICO/IcoOptimized.sol\":6973:7018  require(currentSaleId != 0, \"No active sale\") */\n      tag_50\n        /* \"#utility.yul\":9193:9531   */\n      jump\n        /* \"ICO/IcoOptimized.sol\":6973:7018  require(currentSaleId != 0, \"No active sale\") */\n    tag_303:\n        /* \"ICO/IcoOptimized.sol\":7101:7118  Sale storage sale */\n      0x00\n        /* \"ICO/IcoOptimized.sol\":7121:7141  sales[currentSaleId] */\n      dup2\n      dup2\n      mstore\n        /* \"ICO/IcoOptimized.sol\":7121:7126  sales */\n      0x0f\n        /* \"ICO/IcoOptimized.sol\":7121:7141  sales[currentSaleId] */\n      0x20\n      mstore\n      0x40\n      dup2\n      keccak256\n        /* \"ICO/IcoOptimized.sol\":7177:7195  sale.tokenPriceUSD */\n      0x02\n      dup2\n      add\n      sload\n        /* \"ICO/IcoOptimized.sol\":7121:7141  sales[currentSaleId] */\n      swap1\n      swap2\n        /* \"ICO/IcoOptimized.sol\":1053:1057  1e18 */\n      0x0de0b6b3a7640000\n        /* \"ICO/IcoOptimized.sol\":7275:7304  tokenAmount * tokenPriceInUSD */\n      tag_306\n        /* \"ICO/IcoOptimized.sol\":7177:7195  sale.tokenPriceUSD */\n      dup4\n        /* \"ICO/IcoOptimized.sol\":7275:7286  tokenAmount */\n      dup10\n        /* \"ICO/IcoOptimized.sol\":7275:7304  tokenAmount * tokenPriceInUSD */\n      tag_237\n      jump\t// in\n    tag_306:\n        /* \"ICO/IcoOptimized.sol\":7274:7332  (tokenAmount * tokenPriceInUSD) /... */\n      tag_307\n      swap2\n      swap1\n      tag_239\n      jump\t// in\n    tag_307:\n        /* \"ICO/IcoOptimized.sol\":7246:7332  uint256 totalPaymentInUSD = (tokenAmount * tokenPriceInUSD) /... */\n      swap1\n      pop\n        /* \"ICO/IcoOptimized.sol\":7343:7364  uint256 paymentAmount */\n      0x00\n      dup1\n        /* \"ICO/IcoOptimized.sol\":7378:7391  paymentMethod */\n      dup10\n        /* \"ICO/IcoOptimized.sol\":7378:7412  paymentMethod == PaymentMethod.BNB */\n      0x02\n      dup2\n      gt\n      iszero\n      tag_311\n      jumpi\n      tag_311\n      tag_232\n      jump\t// in\n    tag_311:\n      sub\n        /* \"ICO/IcoOptimized.sol\":7374:7780  if (paymentMethod == PaymentMethod.BNB) {... */\n      tag_312\n      jumpi\n        /* \"ICO/IcoOptimized.sol\":7489:7494  price */\n      dup6\n        /* \"ICO/IcoOptimized.sol\":7445:7477  totalPaymentInUSD * PRECISION_18 */\n      tag_313\n        /* \"ICO/IcoOptimized.sol\":1053:1057  1e18 */\n      0x0de0b6b3a7640000\n        /* \"ICO/IcoOptimized.sol\":7445:7462  totalPaymentInUSD */\n      dup5\n        /* \"ICO/IcoOptimized.sol\":7445:7477  totalPaymentInUSD * PRECISION_18 */\n      tag_237\n      jump\t// in\n    tag_313:\n        /* \"ICO/IcoOptimized.sol\":7444:7495  (totalPaymentInUSD * PRECISION_18) / uint256(price) */\n      tag_314\n      swap2\n      swap1\n      tag_239\n      jump\t// in\n    tag_314:\n        /* \"ICO/IcoOptimized.sol\":7428:7495  paymentAmount = (totalPaymentInUSD * PRECISION_18) / uint256(price) */\n      swap1\n      pop\n        /* \"ICO/IcoOptimized.sol\":7374:7780  if (paymentMethod == PaymentMethod.BNB) {... */\n      jump(tag_328)\n    tag_312:\n        /* \"ICO/IcoOptimized.sol\":7546:7564  PaymentMethod.USDT */\n      0x01\n        /* \"ICO/IcoOptimized.sol\":7529:7542  paymentMethod */\n      dup10\n        /* \"ICO/IcoOptimized.sol\":7529:7564  paymentMethod == PaymentMethod.USDT */\n      0x02\n      dup2\n      gt\n      iszero\n      tag_319\n      jumpi\n      tag_319\n      tag_232\n      jump\t// in\n    tag_319:\n      eq\n        /* \"ICO/IcoOptimized.sol\":7529:7615  paymentMethod == PaymentMethod.USDT ||... */\n      dup1\n      tag_320\n      jumpi\n      pop\n        /* \"ICO/IcoOptimized.sol\":7597:7615  PaymentMethod.USDC */\n      0x02\n        /* \"ICO/IcoOptimized.sol\":7580:7593  paymentMethod */\n      dup10\n        /* \"ICO/IcoOptimized.sol\":7580:7615  paymentMethod == PaymentMethod.USDC */\n      0x02\n      dup2\n      gt\n      iszero\n      tag_324\n      jumpi\n      tag_324\n      tag_232\n      jump\t// in\n    tag_324:\n      eq\n        /* \"ICO/IcoOptimized.sol\":7529:7615  paymentMethod == PaymentMethod.USDT ||... */\n    tag_320:\n        /* \"ICO/IcoOptimized.sol\":7512:7780  if (... */\n      iszero\n      tag_250\n      jumpi\n        /* \"ICO/IcoOptimized.sol\":7696:7701  price */\n      dup6\n        /* \"ICO/IcoOptimized.sol\":7657:7684  totalPaymentInUSD * (10**6) */\n      tag_313\n        /* \"ICO/IcoOptimized.sol\":7657:7674  totalPaymentInUSD */\n      dup4\n        /* \"ICO/IcoOptimized.sol\":7678:7683  10**6 */\n      0x0f4240\n        /* \"ICO/IcoOptimized.sol\":7657:7684  totalPaymentInUSD * (10**6) */\n      tag_237\n      jump\t// in\n        /* \"ICO/IcoOptimized.sol\":7512:7780  if (... */\n    tag_328:\n        /* \"ICO/IcoOptimized.sol\":7797:7810  paymentAmount */\n      swap9\n        /* \"ICO/IcoOptimized.sol\":6545:7817  function calculatePaymentAmount(... */\n      swap8\n      pop\n      pop\n      pop\n      pop\n      pop\n      pop\n      pop\n      pop\n      jump\t// out\n        /* \"ICO/IcoOptimized.sol\":10406:10853  function finalizeICO()... */\n    tag_86:\n        /* \"@openzeppelin/contracts/utils/ReentrancyGuard.sol\":2500:2521  _nonReentrantBefore() */\n      tag_332\n        /* \"@openzeppelin/contracts/utils/ReentrancyGuard.sol\":2500:2519  _nonReentrantBefore */\n      tag_333\n        /* \"@openzeppelin/contracts/utils/ReentrancyGuard.sol\":2500:2521  _nonReentrantBefore() */\n      jump\t// in\n    tag_332:\n        /* \"@openzeppelin/contracts/access/Ownable.sol\":1531:1544  _checkOwner() */\n      tag_335\n        /* \"@openzeppelin/contracts/access/Ownable.sol\":1531:1542  _checkOwner */\n      tag_336\n        /* \"@openzeppelin/contracts/access/Ownable.sol\":1531:1544  _checkOwner() */\n      jump\t// in\n    tag_335:\n        /* \"ICO/IcoOptimized.sol\":2945:2959  isICOFinalized */\n      and(0xff, sload(0x0b))\n        /* \"ICO/IcoOptimized.sol\":2944:2959  !isICOFinalized */\n      iszero\n        /* \"ICO/IcoOptimized.sol\":2936:2985  require(!isICOFinalized, \"ICO already finalized\") */\n      tag_338\n      jumpi\n      mload(0x40)\n      shl(0xe5, 0x461bcd)\n      dup2\n      mstore\n      0x04\n      add\n      tag_50\n      swap1\n      tag_340\n      jump\t// in\n    tag_338:\n        /* \"ICO/IcoOptimized.sol\":3047:3056  isFreezed */\n      sload(0x0b)\n      0x010000\n      swap1\n      div\n      0xff\n      and\n        /* \"ICO/IcoOptimized.sol\":3046:3056  !isFreezed */\n      iszero\n        /* \"ICO/IcoOptimized.sol\":3038:3068  require(!isFreezed, \"freezed\") */\n      tag_342\n      jumpi\n      mload(0x40)\n      shl(0xe5, 0x461bcd)\n      dup2\n      mstore\n      0x04\n      add\n      tag_50\n      swap1\n      tag_344\n      jump\t// in\n    tag_342:\n        /* \"ICO/IcoOptimized.sol\":10581:10593  softCapInUSD */\n      sload(0x06)\n        /* \"ICO/IcoOptimized.sol\":10558:10577  totalFundsRaisedUSD */\n      sload(0x09)\n        /* \"ICO/IcoOptimized.sol\":10558:10593  totalFundsRaisedUSD >= softCapInUSD */\n      lt\n      iszero\n        /* \"ICO/IcoOptimized.sol\":10537:10675  require(... */\n      tag_346\n      jumpi\n      mload(0x40)\n      shl(0xe5, 0x461bcd)\n      dup2\n      mstore\n        /* \"#utility.yul\":10423:10425   */\n      0x20\n        /* \"ICO/IcoOptimized.sol\":10537:10675  require(... */\n      0x04\n      dup3\n      add\n        /* \"#utility.yul\":10405:10426   */\n      mstore\n        /* \"#utility.yul\":10462:10464   */\n      0x38\n        /* \"#utility.yul\":10442:10460   */\n      0x24\n      dup3\n      add\n        /* \"#utility.yul\":10435:10465   */\n      mstore\n        /* \"#utility.yul\":10501:10535   */\n      0x43616e6e6f742066696e616c697a653a20536f667420636170206e6f74207265\n        /* \"#utility.yul\":10481:10499   */\n      0x44\n      dup3\n      add\n        /* \"#utility.yul\":10474:10536   */\n      mstore\n        /* \"#utility.yul\":10572:10598   */\n      0x6163686564206f722073616c65206973206f6e676f696e670000000000000000\n        /* \"#utility.yul\":10552:10570   */\n      0x64\n      dup3\n      add\n        /* \"#utility.yul\":10545:10599   */\n      mstore\n        /* \"#utility.yul\":10616:10635   */\n      0x84\n      add\n        /* \"ICO/IcoOptimized.sol\":10537:10675  require(... */\n      tag_50\n        /* \"#utility.yul\":10221:10641   */\n      jump\n        /* \"ICO/IcoOptimized.sol\":10537:10675  require(... */\n    tag_346:\n        /* \"ICO/IcoOptimized.sol\":10693:10711  isTokensAirdropped */\n      sload(0x0b)\n      0x0100\n      swap1\n      div\n      0xff\n      and\n        /* \"ICO/IcoOptimized.sol\":10685:10737  require(isTokensAirdropped, \"Airdrop not completed\") */\n      tag_349\n      jumpi\n      mload(0x40)\n      shl(0xe5, 0x461bcd)\n      dup2\n      mstore\n        /* \"#utility.yul\":10848:10850   */\n      0x20\n        /* \"ICO/IcoOptimized.sol\":10685:10737  require(isTokensAirdropped, \"Airdrop not completed\") */\n      0x04\n      dup3\n      add\n        /* \"#utility.yul\":10830:10851   */\n      mstore\n        /* \"#utility.yul\":10887:10889   */\n      0x15\n        /* \"#utility.yul\":10867:10885   */\n      0x24\n      dup3\n      add\n        /* \"#utility.yul\":10860:10890   */\n      mstore\n      shl(0x5a, 0x105a5c991c9bdc081b9bdd0818dbdb5c1b195d1959)\n        /* \"#utility.yul\":10906:10924   */\n      0x44\n      dup3\n      add\n        /* \"#utility.yul\":10899:10950   */\n      mstore\n        /* \"#utility.yul\":10967:10985   */\n      0x64\n      add\n        /* \"ICO/IcoOptimized.sol\":10685:10737  require(isTokensAirdropped, \"Airdrop not completed\") */\n      tag_50\n        /* \"#utility.yul\":10646:10991   */\n      jump\n        /* \"ICO/IcoOptimized.sol\":10685:10737  require(isTokensAirdropped, \"Airdrop not completed\") */\n    tag_349:\n        /* \"ICO/IcoOptimized.sol\":10748:10762  isICOFinalized */\n      0x0b\n        /* \"ICO/IcoOptimized.sol\":10748:10769  isICOFinalized = true */\n      dup1\n      sload\n      not(0xff)\n      and\n        /* \"ICO/IcoOptimized.sol\":10765:10769  true */\n      0x01\n        /* \"ICO/IcoOptimized.sol\":10748:10769  isICOFinalized = true */\n      or\n      swap1\n      sstore\n        /* \"ICO/IcoOptimized.sol\":10779:10802  _transferFundsToOwner() */\n      tag_352\n        /* \"ICO/IcoOptimized.sol\":10779:10800  _transferFundsToOwner */\n      tag_353\n        /* \"ICO/IcoOptimized.sol\":10779:10802  _transferFundsToOwner() */\n      jump\t// in\n    tag_352:\n        /* \"ICO/IcoOptimized.sol\":10830:10845  totalTokensSold */\n      sload(0x0a)\n        /* \"ICO/IcoOptimized.sol\":10817:10846  ICOFinalized(totalTokensSold) */\n      mload(0x40)\n      0x9c4b134da32aab35252391880a9f2a3c13a760d7817ae8823f2b301d3522045a\n      swap1\n      0x00\n      swap1\n      log2\n        /* \"@openzeppelin/contracts/utils/ReentrancyGuard.sol\":2542:2562  _nonReentrantAfter() */\n      tag_354\n        /* \"@openzeppelin/contracts/utils/ReentrancyGuard.sol\":1857:1858  1 */\n      0x01\n        /* \"@openzeppelin/contracts/utils/ReentrancyGuard.sol\":3068:3075  _status */\n      0x00\n        /* \"@openzeppelin/contracts/utils/ReentrancyGuard.sol\":3068:3089  _status = NOT_ENTERED */\n      sstore\n        /* \"@openzeppelin/contracts/utils/ReentrancyGuard.sol\":2888:3096  function _nonReentrantAfter() private {... */\n      jump\n        /* \"@openzeppelin/contracts/utils/ReentrancyGuard.sol\":2542:2562  _nonReentrantAfter() */\n    tag_354:\n        /* \"ICO/IcoOptimized.sol\":10406:10853  function finalizeICO()... */\n      jump\t// out\n        /* \"ICO/IcoOptimized.sol\":1161:1187  address[] public investors */\n    tag_100:\n      0x0c\n      dup2\n      dup2\n      sload\n      dup2\n      lt\n      tag_356\n      jumpi\n      0x00\n      dup1\n      revert\n    tag_356:\n      0x00\n      swap2\n      dup3\n      mstore\n      0x20\n      swap1\n      swap2\n      keccak256\n      add\n      sload\n      sub(shl(0xa0, 0x01), 0x01)\n      and\n      swap1\n      pop\n      dup2\n      jump\t// out\n        /* \"ICO/IcoOptimized.sol\":3092:3210  function freeze() external onlyOwner {... */\n    tag_113:\n        /* \"@openzeppelin/contracts/access/Ownable.sol\":1531:1544  _checkOwner() */\n      tag_359\n        /* \"@openzeppelin/contracts/access/Ownable.sol\":1531:1542  _checkOwner */\n      tag_336\n        /* \"@openzeppelin/contracts/access/Ownable.sol\":1531:1544  _checkOwner() */\n      jump\t// in\n    tag_359:\n        /* \"ICO/IcoOptimized.sol\":3148:3157  isFreezed */\n      sload(0x0b)\n      0x010000\n      swap1\n      div\n      0xff\n      and\n        /* \"ICO/IcoOptimized.sol\":3147:3157  !isFreezed */\n      iszero\n        /* \"ICO/IcoOptimized.sol\":3139:3177  require(!isFreezed ,\"Already Freezed\") */\n      tag_361\n      jumpi\n      mload(0x40)\n      shl(0xe5, 0x461bcd)\n      dup2\n      mstore\n        /* \"#utility.yul\":11198:11200   */\n      0x20\n        /* \"ICO/IcoOptimized.sol\":3139:3177  require(!isFreezed ,\"Already Freezed\") */\n      0x04\n      dup3\n      add\n        /* \"#utility.yul\":11180:11201   */\n      mstore\n        /* \"#utility.yul\":11237:11239   */\n      0x0f\n        /* \"#utility.yul\":11217:11235   */\n      0x24\n      dup3\n      add\n        /* \"#utility.yul\":11210:11240   */\n      mstore\n      shl(0x8a, 0x105b1c9958591e48119c99595e9959)\n        /* \"#utility.yul\":11256:11274   */\n      0x44\n      dup3\n      add\n        /* \"#utility.yul\":11249:11294   */\n      mstore\n        /* \"#utility.yul\":11311:11329   */\n      0x64\n      add\n        /* \"ICO/IcoOptimized.sol\":3139:3177  require(!isFreezed ,\"Already Freezed\") */\n      tag_50\n        /* \"#utility.yul\":10996:11335   */\n      jump\n        /* \"ICO/IcoOptimized.sol\":3139:3177  require(!isFreezed ,\"Already Freezed\") */\n    tag_361:\n        /* \"ICO/IcoOptimized.sol\":3187:3196  isFreezed */\n      0x0b\n        /* \"ICO/IcoOptimized.sol\":3187:3203  isFreezed = true */\n      dup1\n      sload\n      not(0xff0000)\n      and\n      0x010000\n      or\n      swap1\n      sstore\n        /* \"ICO/IcoOptimized.sol\":3092:3210  function freeze() external onlyOwner {... */\n      jump\t// out\n        /* \"ICO/IcoOptimized.sol\":4385:5248  function createSale(... */\n    tag_122:\n        /* \"@openzeppelin/contracts/access/Ownable.sol\":1531:1544  _checkOwner() */\n      tag_365\n        /* \"@openzeppelin/contracts/access/Ownable.sol\":1531:1542  _checkOwner */\n      tag_336\n        /* \"@openzeppelin/contracts/access/Ownable.sol\":1531:1544  _checkOwner() */\n      jump\t// in\n    tag_365:\n        /* \"ICO/IcoOptimized.sol\":2945:2959  isICOFinalized */\n      and(0xff, sload(0x0b))\n        /* \"ICO/IcoOptimized.sol\":2944:2959  !isICOFinalized */\n      iszero\n        /* \"ICO/IcoOptimized.sol\":2936:2985  require(!isICOFinalized, \"ICO already finalized\") */\n      tag_367\n      jumpi\n      mload(0x40)\n      shl(0xe5, 0x461bcd)\n      dup2\n      mstore\n      0x04\n      add\n      tag_50\n      swap1\n      tag_340\n      jump\t// in\n    tag_367:\n        /* \"ICO/IcoOptimized.sol\":3047:3056  isFreezed */\n      sload(0x0b)\n      0x010000\n      swap1\n      div\n      0xff\n      and\n        /* \"ICO/IcoOptimized.sol\":3046:3056  !isFreezed */\n      iszero\n        /* \"ICO/IcoOptimized.sol\":3038:3068  require(!isFreezed, \"freezed\") */\n      tag_370\n      jumpi\n      mload(0x40)\n      shl(0xe5, 0x461bcd)\n      dup2\n      mstore\n      0x04\n      add\n      tag_50\n      swap1\n      tag_344\n      jump\t// in\n    tag_370:\n        /* \"ICO/IcoOptimized.sol\":4584:4599  block.timestamp */\n      timestamp\n        /* \"ICO/IcoOptimized.sol\":4571:4581  _startTime */\n      dup4\n        /* \"ICO/IcoOptimized.sol\":4571:4599  _startTime > block.timestamp */\n      gt\n        /* \"ICO/IcoOptimized.sol\":4550:4669  require(... */\n      tag_373\n      jumpi\n      mload(0x40)\n      shl(0xe5, 0x461bcd)\n      dup2\n      mstore\n        /* \"#utility.yul\":11542:11544   */\n      0x20\n        /* \"ICO/IcoOptimized.sol\":4550:4669  require(... */\n      0x04\n      dup3\n      add\n        /* \"#utility.yul\":11524:11545   */\n      mstore\n        /* \"#utility.yul\":11581:11583   */\n      0x2c\n        /* \"#utility.yul\":11561:11579   */\n      0x24\n      dup3\n      add\n        /* \"#utility.yul\":11554:11584   */\n      mstore\n        /* \"#utility.yul\":11620:11654   */\n      0x53746172742074696d65206d7573742062652067726561746572207468616e20\n        /* \"#utility.yul\":11600:11618   */\n      0x44\n      dup3\n      add\n        /* \"#utility.yul\":11593:11655   */\n      mstore\n      shl(0xa0, 0x63757272656e742074696d65)\n        /* \"#utility.yul\":11671:11689   */\n      0x64\n      dup3\n      add\n        /* \"#utility.yul\":11664:11706   */\n      mstore\n        /* \"#utility.yul\":11723:11742   */\n      0x84\n      add\n        /* \"ICO/IcoOptimized.sol\":4550:4669  require(... */\n      tag_50\n        /* \"#utility.yul\":11340:11748   */\n      jump\n        /* \"ICO/IcoOptimized.sol\":4550:4669  require(... */\n    tag_373:\n        /* \"ICO/IcoOptimized.sol\":4711:4721  _startTime */\n      dup3\n        /* \"ICO/IcoOptimized.sol\":4700:4708  _endTime */\n      dup3\n        /* \"ICO/IcoOptimized.sol\":4700:4721  _endTime > _startTime */\n      gt\n        /* \"ICO/IcoOptimized.sol\":4679:4787  require(... */\n      tag_376\n      jumpi\n      mload(0x40)\n      shl(0xe5, 0x461bcd)\n      dup2\n      mstore\n        /* \"#utility.yul\":11955:11957   */\n      0x20\n        /* \"ICO/IcoOptimized.sol\":4679:4787  require(... */\n      0x04\n      dup3\n      add\n        /* \"#utility.yul\":11937:11958   */\n      mstore\n        /* \"#utility.yul\":11994:11996   */\n      0x28\n        /* \"#utility.yul\":11974:11992   */\n      0x24\n      dup3\n      add\n        /* \"#utility.yul\":11967:11997   */\n      mstore\n        /* \"#utility.yul\":12033:12067   */\n      0x456e642074696d65206d7573742062652067726561746572207468616e207374\n        /* \"#utility.yul\":12013:12031   */\n      0x44\n      dup3\n      add\n        /* \"#utility.yul\":12006:12068   */\n      mstore\n      shl(0xc0, 0x6172742074696d65)\n        /* \"#utility.yul\":12084:12102   */\n      0x64\n      dup3\n      add\n        /* \"#utility.yul\":12077:12115   */\n      mstore\n        /* \"#utility.yul\":12132:12151   */\n      0x84\n      add\n        /* \"ICO/IcoOptimized.sol\":4679:4787  require(... */\n      tag_50\n        /* \"#utility.yul\":11753:12157   */\n      jump\n        /* \"ICO/IcoOptimized.sol\":4679:4787  require(... */\n    tag_376:\n        /* \"ICO/IcoOptimized.sol\":15810:15819  saleCount */\n      sload(0x08)\n        /* \"ICO/IcoOptimized.sol\":15778:15785  uint256 */\n      0x00\n        /* \"ICO/IcoOptimized.sol\":15804:15820  sales[saleCount] */\n      swap1\n      dup2\n      mstore\n        /* \"ICO/IcoOptimized.sol\":15804:15809  sales */\n      0x0f\n        /* \"ICO/IcoOptimized.sol\":15804:15820  sales[saleCount] */\n      0x20\n      mstore\n      0x40\n      swap1\n      keccak256\n        /* \"ICO/IcoOptimized.sol\":15804:15828  sales[saleCount].endTime */\n      0x01\n      add\n      sload\n        /* \"ICO/IcoOptimized.sol\":4818:4833  block.timestamp */\n      timestamp\n        /* \"ICO/IcoOptimized.sol\":4818:4858  block.timestamp > getLatestSaleEndTime() */\n      gt\n        /* \"ICO/IcoOptimized.sol\":4797:4928  require(... */\n      tag_381\n      jumpi\n      mload(0x40)\n      shl(0xe5, 0x461bcd)\n      dup2\n      mstore\n        /* \"#utility.yul\":12364:12366   */\n      0x20\n        /* \"ICO/IcoOptimized.sol\":4797:4928  require(... */\n      0x04\n      dup3\n      add\n        /* \"#utility.yul\":12346:12367   */\n      mstore\n        /* \"#utility.yul\":12403:12405   */\n      0x2c\n        /* \"#utility.yul\":12383:12401   */\n      0x24\n      dup3\n      add\n        /* \"#utility.yul\":12376:12406   */\n      mstore\n        /* \"#utility.yul\":12442:12476   */\n      0x4e65772073616c65206d75737420737461727420616674657220746865206c61\n        /* \"#utility.yul\":12422:12440   */\n      0x44\n      dup3\n      add\n        /* \"#utility.yul\":12415:12477   */\n      mstore\n      shl(0xa0, 0x73742073616c6520656e6473)\n        /* \"#utility.yul\":12493:12511   */\n      0x64\n      dup3\n      add\n        /* \"#utility.yul\":12486:12528   */\n      mstore\n        /* \"#utility.yul\":12545:12564   */\n      0x84\n      add\n        /* \"ICO/IcoOptimized.sol\":4797:4928  require(... */\n      tag_50\n        /* \"#utility.yul\":12162:12570   */\n      jump\n        /* \"ICO/IcoOptimized.sol\":4797:4928  require(... */\n    tag_381:\n        /* \"ICO/IcoOptimized.sol\":4939:4948  saleCount */\n      0x08\n        /* \"ICO/IcoOptimized.sol\":4939:4950  saleCount++ */\n      dup1\n      sload\n      swap1\n        /* \"ICO/IcoOptimized.sol\":4939:4948  saleCount */\n      0x00\n        /* \"ICO/IcoOptimized.sol\":4939:4950  saleCount++ */\n      tag_384\n      dup4\n      tag_385\n      jump\t// in\n    tag_384:\n      swap1\n      swap2\n      sstore\n      pop\n      pop\n        /* \"ICO/IcoOptimized.sol\":4979:5163  Sale({... */\n      0x40\n      dup1\n      mload\n      0xa0\n      dup2\n      add\n      dup3\n      mstore\n      dup5\n      dup2\n      mstore\n      0x20\n      dup1\n      dup3\n      add\n      dup6\n      dup2\n      mstore\n      dup3\n      dup5\n      add\n      dup6\n      dup2\n      mstore\n      0x00\n      0x60\n      dup1\n      dup7\n      add\n      dup3\n      dup2\n      mstore\n      0x80\n      dup8\n      add\n      dup4\n      dup2\n      mstore\n        /* \"ICO/IcoOptimized.sol\":4966:4975  saleCount */\n      0x08\n      dup1\n      sload\n        /* \"ICO/IcoOptimized.sol\":4960:4976  sales[saleCount] */\n      dup6\n      mstore\n        /* \"ICO/IcoOptimized.sol\":4960:4965  sales */\n      0x0f\n        /* \"ICO/IcoOptimized.sol\":4960:4976  sales[saleCount] */\n      dup9\n      mstore\n      swap4\n      dup10\n      swap1\n      keccak256\n        /* \"ICO/IcoOptimized.sol\":4960:5163  sales[saleCount] = Sale({... */\n      swap8\n      mload\n      dup9\n      sstore\n      swap5\n      mload\n        /* \"ICO/IcoOptimized.sol\":4979:5163  Sale({... */\n      0x01\n        /* \"ICO/IcoOptimized.sol\":4960:5163  sales[saleCount] = Sale({... */\n      dup9\n      add\n      sstore\n      swap3\n      mload\n      0x02\n      dup8\n      add\n      sstore\n      swap2\n      mload\n      0x03\n      dup7\n      add\n      sstore\n      swap2\n      mload\n      0x04\n      swap1\n      swap5\n      add\n      dup1\n      sload\n      not(0xff)\n      and\n      swap5\n      iszero\n      iszero\n      swap5\n      swap1\n      swap5\n      or\n      swap1\n      swap4\n      sstore\n        /* \"ICO/IcoOptimized.sol\":5193:5202  saleCount */\n      sload\n        /* \"ICO/IcoOptimized.sol\":5178:5241  NewSaleCreated(saleCount, _startTime, _endTime, _tokenPriceUSD) */\n      dup4\n      mload\n        /* \"#utility.yul\":12917:12942   */\n      dup8\n      dup2\n      mstore\n        /* \"#utility.yul\":12958:12976   */\n      swap2\n      dup3\n      add\n        /* \"#utility.yul\":12951:12985   */\n      dup7\n      swap1\n      mstore\n        /* \"#utility.yul\":13001:13019   */\n      swap3\n      dup2\n      add\n        /* \"#utility.yul\":12994:13028   */\n      dup5\n      swap1\n      mstore\n        /* \"ICO/IcoOptimized.sol\":5178:5241  NewSaleCreated(saleCount, _startTime, _endTime, _tokenPriceUSD) */\n      0x63b43fa153147ade1de28ed76841cdbc34e510ed94dd1ff5a88e278b0b1ad9ba\n      swap2\n        /* \"#utility.yul\":12890:12908   */\n      add\n        /* \"ICO/IcoOptimized.sol\":5178:5241  NewSaleCreated(saleCount, _startTime, _endTime, _tokenPriceUSD) */\n      mload(0x40)\n      dup1\n      swap2\n      sub\n      swap1\n      log2\n        /* \"ICO/IcoOptimized.sol\":4385:5248  function createSale(... */\n      pop\n      pop\n      pop\n      jump\t// out\n        /* \"@openzeppelin/contracts/access/Ownable.sol\":2293:2394  function renounceOwnership() public virtual onlyOwner {... */\n    tag_125:\n        /* \"@openzeppelin/contracts/access/Ownable.sol\":1531:1544  _checkOwner() */\n      tag_389\n        /* \"@openzeppelin/contracts/access/Ownable.sol\":1531:1542  _checkOwner */\n      tag_336\n        /* \"@openzeppelin/contracts/access/Ownable.sol\":1531:1544  _checkOwner() */\n      jump\t// in\n    tag_389:\n        /* \"@openzeppelin/contracts/access/Ownable.sol\":2357:2387  _transferOwnership(address(0)) */\n      tag_354\n        /* \"@openzeppelin/contracts/access/Ownable.sol\":2384:2385  0 */\n      0x00\n        /* \"@openzeppelin/contracts/access/Ownable.sol\":2357:2375  _transferOwnership */\n      tag_392\n        /* \"@openzeppelin/contracts/access/Ownable.sol\":2357:2387  _transferOwnership(address(0)) */\n      jump\t// in\n        /* \"ICO/IcoOptimized.sol\":3216:3338  function unFreeze() external onlyOwner {... */\n    tag_132:\n        /* \"@openzeppelin/contracts/access/Ownable.sol\":1531:1544  _checkOwner() */\n      tag_394\n        /* \"@openzeppelin/contracts/access/Ownable.sol\":1531:1542  _checkOwner */\n      tag_336\n        /* \"@openzeppelin/contracts/access/Ownable.sol\":1531:1544  _checkOwner() */\n      jump\t// in\n    tag_394:\n        /* \"ICO/IcoOptimized.sol\":3273:3282  isFreezed */\n      sload(0x0b)\n      0x010000\n      swap1\n      div\n      0xff\n      and\n        /* \"ICO/IcoOptimized.sol\":3265:3304  require(isFreezed ,\"Already UnFreezed\") */\n      tag_396\n      jumpi\n      mload(0x40)\n      shl(0xe5, 0x461bcd)\n      dup2\n      mstore\n        /* \"#utility.yul\":13241:13243   */\n      0x20\n        /* \"ICO/IcoOptimized.sol\":3265:3304  require(isFreezed ,\"Already UnFreezed\") */\n      0x04\n      dup3\n      add\n        /* \"#utility.yul\":13223:13244   */\n      mstore\n        /* \"#utility.yul\":13280:13282   */\n      0x11\n        /* \"#utility.yul\":13260:13278   */\n      0x24\n      dup3\n      add\n        /* \"#utility.yul\":13253:13283   */\n      mstore\n      shl(0x7a, 0x105b1c9958591e48155b919c99595e9959)\n        /* \"#utility.yul\":13299:13317   */\n      0x44\n      dup3\n      add\n        /* \"#utility.yul\":13292:13339   */\n      mstore\n        /* \"#utility.yul\":13356:13374   */\n      0x64\n      add\n        /* \"ICO/IcoOptimized.sol\":3265:3304  require(isFreezed ,\"Already UnFreezed\") */\n      tag_50\n        /* \"#utility.yul\":13039:13380   */\n      jump\n        /* \"ICO/IcoOptimized.sol\":3265:3304  require(isFreezed ,\"Already UnFreezed\") */\n    tag_396:\n        /* \"ICO/IcoOptimized.sol\":3314:3323  isFreezed */\n      0x0b\n        /* \"ICO/IcoOptimized.sol\":3314:3331  isFreezed = false */\n      dup1\n      sload\n      not(0xff0000)\n      and\n      swap1\n      sstore\n        /* \"ICO/IcoOptimized.sol\":3216:3338  function unFreeze() external onlyOwner {... */\n      jump\t// out\n        /* \"ICO/IcoOptimized.sol\":13265:15528  function initiateRefund() external nonReentrant onlyOwner icoNotFinalized {... */\n    tag_135:\n        /* \"@openzeppelin/contracts/utils/ReentrancyGuard.sol\":2500:2521  _nonReentrantBefore() */\n      tag_400\n        /* \"@openzeppelin/contracts/utils/ReentrancyGuard.sol\":2500:2519  _nonReentrantBefore */\n      tag_333\n        /* \"@openzeppelin/contracts/utils/ReentrancyGuard.sol\":2500:2521  _nonReentrantBefore() */\n      jump\t// in\n    tag_400:\n        /* \"@openzeppelin/contracts/access/Ownable.sol\":1531:1544  _checkOwner() */\n      tag_402\n        /* \"@openzeppelin/contracts/access/Ownable.sol\":1531:1542  _checkOwner */\n      tag_336\n        /* \"@openzeppelin/contracts/access/Ownable.sol\":1531:1544  _checkOwner() */\n      jump\t// in\n    tag_402:\n        /* \"ICO/IcoOptimized.sol\":2945:2959  isICOFinalized */\n      and(0xff, sload(0x0b))\n        /* \"ICO/IcoOptimized.sol\":2944:2959  !isICOFinalized */\n      iszero\n        /* \"ICO/IcoOptimized.sol\":2936:2985  require(!isICOFinalized, \"ICO already finalized\") */\n      tag_404\n      jumpi\n      mload(0x40)\n      shl(0xe5, 0x461bcd)\n      dup2\n      mstore\n      0x04\n      add\n      tag_50\n      swap1\n      tag_340\n      jump\t// in\n    tag_404:\n        /* \"ICO/IcoOptimized.sol\":15810:15819  saleCount */\n      sload(0x08)\n        /* \"ICO/IcoOptimized.sol\":15778:15785  uint256 */\n      0x00\n        /* \"ICO/IcoOptimized.sol\":15804:15820  sales[saleCount] */\n      swap1\n      dup2\n      mstore\n        /* \"ICO/IcoOptimized.sol\":15804:15809  sales */\n      0x0f\n        /* \"ICO/IcoOptimized.sol\":15804:15820  sales[saleCount] */\n      0x20\n      mstore\n      0x40\n      swap1\n      keccak256\n        /* \"ICO/IcoOptimized.sol\":15804:15828  sales[saleCount].endTime */\n      0x01\n      add\n      sload\n        /* \"ICO/IcoOptimized.sol\":13357:13372  block.timestamp */\n      timestamp\n        /* \"ICO/IcoOptimized.sol\":13357:13397  block.timestamp > getLatestSaleEndTime() */\n      gt\n        /* \"ICO/IcoOptimized.sol\":13349:13414  require(block.timestamp > getLatestSaleEndTime(), \"Sale ongoing\") */\n      tag_408\n      jumpi\n      mload(0x40)\n      shl(0xe5, 0x461bcd)\n      dup2\n      mstore\n        /* \"#utility.yul\":13587:13589   */\n      0x20\n        /* \"ICO/IcoOptimized.sol\":13349:13414  require(block.timestamp > getLatestSaleEndTime(), \"Sale ongoing\") */\n      0x04\n      dup3\n      add\n        /* \"#utility.yul\":13569:13590   */\n      mstore\n        /* \"#utility.yul\":13626:13628   */\n      0x0c\n        /* \"#utility.yul\":13606:13624   */\n      0x24\n      dup3\n      add\n        /* \"#utility.yul\":13599:13629   */\n      mstore\n      shl(0xa0, 0x53616c65206f6e676f696e67)\n        /* \"#utility.yul\":13645:13663   */\n      0x44\n      dup3\n      add\n        /* \"#utility.yul\":13638:13680   */\n      mstore\n        /* \"#utility.yul\":13697:13715   */\n      0x64\n      add\n        /* \"ICO/IcoOptimized.sol\":13349:13414  require(block.timestamp > getLatestSaleEndTime(), \"Sale ongoing\") */\n      tag_50\n        /* \"#utility.yul\":13385:13721   */\n      jump\n        /* \"ICO/IcoOptimized.sol\":13349:13414  require(block.timestamp > getLatestSaleEndTime(), \"Sale ongoing\") */\n    tag_408:\n        /* \"ICO/IcoOptimized.sol\":13454:13466  softCapInUSD */\n      sload(0x06)\n        /* \"ICO/IcoOptimized.sol\":13432:13451  totalFundsRaisedUSD */\n      sload(0x09)\n        /* \"ICO/IcoOptimized.sol\":13432:13466  totalFundsRaisedUSD < softCapInUSD */\n      lt\n        /* \"ICO/IcoOptimized.sol\":13424:13487  require(totalFundsRaisedUSD < softCapInUSD, \"Soft cap reached\") */\n      tag_411\n      jumpi\n      mload(0x40)\n      shl(0xe5, 0x461bcd)\n      dup2\n      mstore\n        /* \"#utility.yul\":13928:13930   */\n      0x20\n        /* \"ICO/IcoOptimized.sol\":13424:13487  require(totalFundsRaisedUSD < softCapInUSD, \"Soft cap reached\") */\n      0x04\n      dup3\n      add\n        /* \"#utility.yul\":13910:13931   */\n      mstore\n        /* \"#utility.yul\":13967:13969   */\n      0x10\n        /* \"#utility.yul\":13947:13965   */\n      0x24\n      dup3\n      add\n        /* \"#utility.yul\":13940:13970   */\n      mstore\n      shl(0x82, 0x14dbd99d0818d85c081c995858da1959)\n        /* \"#utility.yul\":13986:14004   */\n      0x44\n      dup3\n      add\n        /* \"#utility.yul\":13979:14025   */\n      mstore\n        /* \"#utility.yul\":14042:14060   */\n      0x64\n      add\n        /* \"ICO/IcoOptimized.sol\":13424:13487  require(totalFundsRaisedUSD < softCapInUSD, \"Soft cap reached\") */\n      tag_50\n        /* \"#utility.yul\":13726:14066   */\n      jump\n        /* \"ICO/IcoOptimized.sol\":13424:13487  require(totalFundsRaisedUSD < softCapInUSD, \"Soft cap reached\") */\n    tag_411:\n        /* \"ICO/IcoOptimized.sol\":13523:13532  investors */\n      0x0c\n        /* \"ICO/IcoOptimized.sol\":13523:13539  investors.length */\n      sload\n        /* \"ICO/IcoOptimized.sol\":13498:13520  uint256 investorLength */\n      0x00\n        /* \"ICO/IcoOptimized.sol\":13606:13608  10 */\n      0x0a\n        /* \"ICO/IcoOptimized.sol\":13589:13608  investorLength > 10 */\n      dup3\n      gt\n        /* \"ICO/IcoOptimized.sol\":13585:13726  if (investorLength > 10) {... */\n      iszero\n      tag_414\n      jumpi\n        /* \"ICO/IcoOptimized.sol\":13644:13663  investorLength - 11 */\n      tag_415\n        /* \"ICO/IcoOptimized.sol\":13661:13663  11 */\n      0x0b\n        /* \"ICO/IcoOptimized.sol\":13644:13658  investorLength */\n      dup4\n        /* \"ICO/IcoOptimized.sol\":13644:13663  investorLength - 11 */\n      tag_252\n      jump\t// in\n    tag_415:\n        /* \"ICO/IcoOptimized.sol\":13624:13663  investorsIterated = investorLength - 11 */\n      swap1\n      pop\n        /* \"ICO/IcoOptimized.sol\":13585:13726  if (investorLength > 10) {... */\n      jump(tag_416)\n    tag_414:\n      pop\n        /* \"ICO/IcoOptimized.sol\":13714:13715  0 */\n      0x00\n        /* \"ICO/IcoOptimized.sol\":13585:13726  if (investorLength > 10) {... */\n    tag_416:\n        /* \"ICO/IcoOptimized.sol\":13795:13804  uint256 i */\n      0x00\n        /* \"ICO/IcoOptimized.sol\":13807:13825  investorLength - 1 */\n      tag_420\n        /* \"ICO/IcoOptimized.sol\":13824:13825  1 */\n      0x01\n        /* \"ICO/IcoOptimized.sol\":13807:13821  investorLength */\n      dup5\n        /* \"ICO/IcoOptimized.sol\":13807:13825  investorLength - 1 */\n      tag_252\n      jump\t// in\n    tag_420:\n        /* \"ICO/IcoOptimized.sol\":13795:13825  uint256 i = investorLength - 1 */\n      swap1\n      pop\n        /* \"ICO/IcoOptimized.sol\":13790:15440  for (uint256 i = investorLength - 1; i >= investorsIterated; i--) {... */\n    tag_417:\n        /* \"ICO/IcoOptimized.sol\":13832:13849  investorsIterated */\n      dup2\n        /* \"ICO/IcoOptimized.sol\":13827:13828  i */\n      dup2\n        /* \"ICO/IcoOptimized.sol\":13827:13849  i >= investorsIterated */\n      lt\n        /* \"ICO/IcoOptimized.sol\":13790:15440  for (uint256 i = investorLength - 1; i >= investorsIterated; i--) {... */\n      tag_418\n      jumpi\n        /* \"ICO/IcoOptimized.sol\":13870:13886  address investor */\n      0x00\n        /* \"ICO/IcoOptimized.sol\":13889:13898  investors */\n      0x0c\n        /* \"ICO/IcoOptimized.sol\":13899:13900  i */\n      dup3\n        /* \"ICO/IcoOptimized.sol\":13889:13901  investors[i] */\n      dup2\n      sload\n      dup2\n      lt\n      tag_422\n      jumpi\n      tag_422\n      tag_423\n      jump\t// in\n    tag_422:\n      0x00\n      swap2\n      dup3\n      mstore\n      0x20\n      dup3\n      keccak256\n      add\n      sload\n      sub(shl(0xa0, 0x01), 0x01)\n      and\n      swap2\n      pop\n        /* \"ICO/IcoOptimized.sol\":13976:15330  for (uint8 j = 0; j < 3; j++) {... */\n    tag_425:\n        /* \"ICO/IcoOptimized.sol\":13998:13999  3 */\n      0x03\n        /* \"ICO/IcoOptimized.sol\":13994:13995  j */\n      dup2\n        /* \"ICO/IcoOptimized.sol\":13994:13999  j < 3 */\n      0xff\n      and\n      lt\n        /* \"ICO/IcoOptimized.sol\":13976:15330  for (uint8 j = 0; j < 3; j++) {... */\n      iszero\n      tag_426\n      jumpi\n        /* \"ICO/IcoOptimized.sol\":14024:14051  PaymentMethod paymentMethod */\n      0x00\n        /* \"ICO/IcoOptimized.sol\":14068:14069  j */\n      dup2\n        /* \"ICO/IcoOptimized.sol\":14054:14070  PaymentMethod(j) */\n      0xff\n      and\n      0x02\n      dup2\n      gt\n      iszero\n      tag_429\n      jumpi\n      tag_429\n      tag_232\n      jump\t// in\n    tag_429:\n      sub(shl(0xa0, 0x01), 0x01)\n        /* \"ICO/IcoOptimized.sol\":14105:14131  investorPayments[investor] */\n      dup5\n      and\n        /* \"ICO/IcoOptimized.sol\":14088:14102  uint256 amount */\n      0x00\n        /* \"ICO/IcoOptimized.sol\":14105:14131  investorPayments[investor] */\n      swap1\n      dup2\n      mstore\n        /* \"ICO/IcoOptimized.sol\":14105:14121  investorPayments */\n      0x13\n        /* \"ICO/IcoOptimized.sol\":14105:14131  investorPayments[investor] */\n      0x20\n      mstore\n      0x40\n      dup2\n      keccak256\n        /* \"ICO/IcoOptimized.sol\":14024:14070  PaymentMethod paymentMethod = PaymentMethod(j) */\n      swap2\n      swap3\n      pop\n        /* \"ICO/IcoOptimized.sol\":14088:14102  uint256 amount */\n      swap1\n      dup2\n        /* \"ICO/IcoOptimized.sol\":14024:14070  PaymentMethod paymentMethod = PaymentMethod(j) */\n      dup4\n        /* \"ICO/IcoOptimized.sol\":14105:14146  investorPayments[investor][paymentMethod] */\n      0x02\n      dup2\n      gt\n      iszero\n      tag_431\n      jumpi\n      tag_431\n      tag_232\n      jump\t// in\n    tag_431:\n      0x02\n      dup2\n      gt\n      iszero\n      tag_433\n      jumpi\n      tag_433\n      tag_232\n      jump\t// in\n    tag_433:\n      dup2\n      mstore\n      0x20\n      add\n      swap1\n      dup2\n      mstore\n      0x20\n      add\n      0x00\n      keccak256\n      sload\n        /* \"ICO/IcoOptimized.sol\":14088:14146  uint256 amount = investorPayments[investor][paymentMethod] */\n      swap1\n      pop\n        /* \"ICO/IcoOptimized.sol\":14178:14179  0 */\n      0x00\n        /* \"ICO/IcoOptimized.sol\":14169:14175  amount */\n      dup2\n        /* \"ICO/IcoOptimized.sol\":14169:14179  amount > 0 */\n      gt\n        /* \"ICO/IcoOptimized.sol\":14165:15299  if (amount > 0) {... */\n      iszero\n      tag_434\n      jumpi\n      sub(shl(0xa0, 0x01), 0x01)\n        /* \"ICO/IcoOptimized.sol\":14203:14229  investorPayments[investor] */\n      dup5\n      and\n        /* \"ICO/IcoOptimized.sol\":14247:14248  0 */\n      0x00\n        /* \"ICO/IcoOptimized.sol\":14203:14229  investorPayments[investor] */\n      swap1\n      dup2\n      mstore\n        /* \"ICO/IcoOptimized.sol\":14203:14219  investorPayments */\n      0x13\n        /* \"ICO/IcoOptimized.sol\":14203:14229  investorPayments[investor] */\n      0x20\n      mstore\n      0x40\n      dup2\n      keccak256\n        /* \"ICO/IcoOptimized.sol\":14247:14248  0 */\n      dup2\n        /* \"ICO/IcoOptimized.sol\":14230:14243  paymentMethod */\n      dup5\n        /* \"ICO/IcoOptimized.sol\":14203:14244  investorPayments[investor][paymentMethod] */\n      0x02\n      dup2\n      gt\n      iszero\n      tag_436\n      jumpi\n      tag_436\n      tag_232\n      jump\t// in\n    tag_436:\n      0x02\n      dup2\n      gt\n      iszero\n      tag_438\n      jumpi\n      tag_438\n      tag_232\n      jump\t// in\n    tag_438:\n      dup2\n      mstore\n      0x20\n      dup2\n      add\n      swap2\n      swap1\n      swap2\n      mstore\n      0x40\n      add\n      0x00\n      swap1\n      dup2\n      keccak256\n        /* \"ICO/IcoOptimized.sol\":14203:14248  investorPayments[investor][paymentMethod] = 0 */\n      swap2\n      swap1\n      swap2\n      sstore\n        /* \"ICO/IcoOptimized.sol\":14274:14287  paymentMethod */\n      dup3\n        /* \"ICO/IcoOptimized.sol\":14274:14308  paymentMethod == PaymentMethod.BNB */\n      0x02\n      dup2\n      gt\n      iszero\n      tag_442\n      jumpi\n      tag_442\n      tag_232\n      jump\t// in\n    tag_442:\n      sub\n        /* \"ICO/IcoOptimized.sol\":14270:15185  if (paymentMethod == PaymentMethod.BNB) {... */\n      tag_443\n      jumpi\n        /* \"ICO/IcoOptimized.sol\":14337:14346  bool sent */\n      0x00\n        /* \"ICO/IcoOptimized.sol\":14360:14368  investor */\n      dup5\n      sub(shl(0xa0, 0x01), 0x01)\n        /* \"ICO/IcoOptimized.sol\":14352:14374  payable(investor).call */\n      and\n        /* \"ICO/IcoOptimized.sol\":14382:14388  amount */\n      dup3\n        /* \"ICO/IcoOptimized.sol\":14352:14447  payable(investor).call{value: amount}(... */\n      mload(0x40)\n      0x00\n      mload(0x40)\n      dup1\n      dup4\n      sub\n      dup2\n      dup6\n      dup8\n      gas\n      call\n      swap3\n      pop\n      pop\n      pop\n      returndatasize\n      dup1\n      0x00\n      dup2\n      eq\n      tag_448\n      jumpi\n      mload(0x40)\n      swap2\n      pop\n      and(add(returndatasize, 0x3f), not(0x1f))\n      dup3\n      add\n      0x40\n      mstore\n      returndatasize\n      dup3\n      mstore\n      returndatasize\n      0x00\n      0x20\n      dup5\n      add\n      returndatacopy\n      jump(tag_447)\n    tag_448:\n      0x60\n      swap2\n      pop\n    tag_447:\n      pop\n        /* \"ICO/IcoOptimized.sol\":14336:14447  (bool sent, ) = payable(investor).call{value: amount}(... */\n      pop\n      swap1\n      pop\n        /* \"ICO/IcoOptimized.sol\":14481:14485  sent */\n      dup1\n        /* \"ICO/IcoOptimized.sol\":14473:14507  require(sent, \"BNB refund failed\") */\n      tag_449\n      jumpi\n      mload(0x40)\n      shl(0xe5, 0x461bcd)\n      dup2\n      mstore\n        /* \"#utility.yul\":14615:14617   */\n      0x20\n        /* \"ICO/IcoOptimized.sol\":14473:14507  require(sent, \"BNB refund failed\") */\n      0x04\n      dup3\n      add\n        /* \"#utility.yul\":14597:14618   */\n      mstore\n        /* \"#utility.yul\":14654:14656   */\n      0x11\n        /* \"#utility.yul\":14634:14652   */\n      0x24\n      dup3\n      add\n        /* \"#utility.yul\":14627:14657   */\n      mstore\n      shl(0x7a, 0x109390881c99599d5b990819985a5b1959)\n        /* \"#utility.yul\":14673:14691   */\n      0x44\n      dup3\n      add\n        /* \"#utility.yul\":14666:14713   */\n      mstore\n        /* \"#utility.yul\":14730:14748   */\n      0x64\n      add\n        /* \"ICO/IcoOptimized.sol\":14473:14507  require(sent, \"BNB refund failed\") */\n      tag_50\n        /* \"#utility.yul\":14413:14754   */\n      jump\n        /* \"ICO/IcoOptimized.sol\":14473:14507  require(sent, \"BNB refund failed\") */\n    tag_449:\n        /* \"ICO/IcoOptimized.sol\":14310:14530  {... */\n      pop\n        /* \"ICO/IcoOptimized.sol\":14270:15185  if (paymentMethod == PaymentMethod.BNB) {... */\n      jump(tag_478)\n    tag_443:\n        /* \"ICO/IcoOptimized.sol\":14582:14600  PaymentMethod.USDT */\n      0x01\n        /* \"ICO/IcoOptimized.sol\":14565:14578  paymentMethod */\n      dup3\n        /* \"ICO/IcoOptimized.sol\":14565:14600  paymentMethod == PaymentMethod.USDT */\n      0x02\n      dup2\n      gt\n      iszero\n      tag_456\n      jumpi\n      tag_456\n      tag_232\n      jump\t// in\n    tag_456:\n      eq\n        /* \"ICO/IcoOptimized.sol\":14565:14663  paymentMethod == PaymentMethod.USDT ||... */\n      dup1\n      tag_457\n      jumpi\n      pop\n        /* \"ICO/IcoOptimized.sol\":14645:14663  PaymentMethod.USDC */\n      0x02\n        /* \"ICO/IcoOptimized.sol\":14628:14641  paymentMethod */\n      dup3\n        /* \"ICO/IcoOptimized.sol\":14628:14663  paymentMethod == PaymentMethod.USDC */\n      0x02\n      dup2\n      gt\n      iszero\n      tag_461\n      jumpi\n      tag_461\n      tag_232\n      jump\t// in\n    tag_461:\n      eq\n        /* \"ICO/IcoOptimized.sol\":14565:14663  paymentMethod == PaymentMethod.USDT ||... */\n    tag_457:\n        /* \"ICO/IcoOptimized.sol\":14536:15185  if (... */\n      iszero\n      tag_462\n      jumpi\n        /* \"ICO/IcoOptimized.sol\":14712:14729  IERC20 stablecoin */\n      0x00\n        /* \"ICO/IcoOptimized.sol\":14749:14767  PaymentMethod.USDT */\n      0x01\n        /* \"ICO/IcoOptimized.sol\":14732:14745  paymentMethod */\n      dup4\n        /* \"ICO/IcoOptimized.sol\":14732:14767  paymentMethod == PaymentMethod.USDT */\n      0x02\n      dup2\n      gt\n      iszero\n      tag_466\n      jumpi\n      tag_466\n      tag_232\n      jump\t// in\n    tag_466:\n      eq\n        /* \"ICO/IcoOptimized.sol\":14732:14853  paymentMethod == PaymentMethod.USDT... */\n      tag_467\n      jumpi\n        /* \"ICO/IcoOptimized.sol\":14848:14852  usdc */\n      and(sub(shl(0xa0, 0x01), 0x01), sload(0x0e))\n        /* \"ICO/IcoOptimized.sol\":14732:14853  paymentMethod == PaymentMethod.USDT... */\n      jump(tag_468)\n    tag_467:\n        /* \"ICO/IcoOptimized.sol\":14805:14809  usdt */\n      and(sub(shl(0xa0, 0x01), 0x01), sload(0x0d))\n        /* \"ICO/IcoOptimized.sol\":14732:14853  paymentMethod == PaymentMethod.USDT... */\n    tag_468:\n        /* \"ICO/IcoOptimized.sol\":14916:14953  stablecoin.transfer(investor, amount) */\n      mload(0x40)\n      shl(0xe0, 0xa9059cbb)\n      dup2\n      mstore\n      sub(shl(0xa0, 0x01), 0x01)\n        /* \"#utility.yul\":14951:14983   */\n      dup8\n      dup2\n      and\n        /* \"ICO/IcoOptimized.sol\":14916:14953  stablecoin.transfer(investor, amount) */\n      0x04\n      dup4\n      add\n        /* \"#utility.yul\":14933:14984   */\n      mstore\n        /* \"#utility.yul\":15000:15018   */\n      0x24\n      dup3\n      add\n        /* \"#utility.yul\":14993:15027   */\n      dup6\n      swap1\n      mstore\n        /* \"ICO/IcoOptimized.sol\":14712:14853  IERC20 stablecoin = paymentMethod == PaymentMethod.USDT... */\n      swap2\n      swap3\n      pop\n        /* \"ICO/IcoOptimized.sol\":14916:14935  stablecoin.transfer */\n      swap1\n      dup3\n      and\n      swap1\n      0xa9059cbb\n      swap1\n        /* \"#utility.yul\":14906:14924   */\n      0x44\n      add\n        /* \"ICO/IcoOptimized.sol\":14916:14953  stablecoin.transfer(investor, amount) */\n      0x20\n      mload(0x40)\n      dup1\n      dup4\n      sub\n      dup2\n      0x00\n      dup8\n      gas\n      call\n      iszero\n      dup1\n      iszero\n      tag_472\n      jumpi\n      returndatasize\n      0x00\n      dup1\n      returndatacopy\n      revert(0x00, returndatasize)\n    tag_472:\n      pop\n      pop\n      pop\n      pop\n      mload(0x40)\n      returndatasize\n      not(0x1f)\n      0x1f\n      dup3\n      add\n      and\n      dup3\n      add\n      dup1\n      0x40\n      mstore\n      pop\n      dup2\n      add\n      swap1\n      tag_473\n      swap2\n      swap1\n      tag_474\n      jump\t// in\n    tag_473:\n        /* \"ICO/IcoOptimized.sol\":14879:15035  require(... */\n      tag_449\n      jumpi\n      mload(0x40)\n      shl(0xe5, 0x461bcd)\n      dup2\n      mstore\n        /* \"#utility.yul\":15522:15524   */\n      0x20\n        /* \"ICO/IcoOptimized.sol\":14879:15035  require(... */\n      0x04\n      dup3\n      add\n        /* \"#utility.yul\":15504:15525   */\n      mstore\n        /* \"#utility.yul\":15561:15563   */\n      0x18\n        /* \"#utility.yul\":15541:15559   */\n      0x24\n      dup3\n      add\n        /* \"#utility.yul\":15534:15564   */\n      mstore\n        /* \"#utility.yul\":15600:15626   */\n      0x537461626c65636f696e20726566756e64206661696c65640000000000000000\n        /* \"#utility.yul\":15580:15598   */\n      0x44\n      dup3\n      add\n        /* \"#utility.yul\":15573:15627   */\n      mstore\n        /* \"#utility.yul\":15644:15662   */\n      0x64\n      add\n        /* \"ICO/IcoOptimized.sol\":14879:15035  require(... */\n      tag_50\n        /* \"#utility.yul\":15320:15668   */\n      jump\n        /* \"ICO/IcoOptimized.sol\":14536:15185  if (... */\n    tag_462:\n        /* \"ICO/IcoOptimized.sol\":15115:15162  revert(\"Unsupported payment method for refund\") */\n      mload(0x40)\n      shl(0xe5, 0x461bcd)\n      dup2\n      mstore\n        /* \"#utility.yul\":15875:15877   */\n      0x20\n        /* \"ICO/IcoOptimized.sol\":15115:15162  revert(\"Unsupported payment method for refund\") */\n      0x04\n      dup3\n      add\n        /* \"#utility.yul\":15857:15878   */\n      mstore\n        /* \"#utility.yul\":15914:15916   */\n      0x25\n        /* \"#utility.yul\":15894:15912   */\n      0x24\n      dup3\n      add\n        /* \"#utility.yul\":15887:15917   */\n      mstore\n        /* \"#utility.yul\":15953:15987   */\n      0x556e737570706f72746564207061796d656e74206d6574686f6420666f722072\n        /* \"#utility.yul\":15933:15951   */\n      0x44\n      dup3\n      add\n        /* \"#utility.yul\":15926:15988   */\n      mstore\n      shl(0xda, 0x19599d5b99)\n        /* \"#utility.yul\":16004:16022   */\n      0x64\n      dup3\n      add\n        /* \"#utility.yul\":15997:16032   */\n      mstore\n        /* \"#utility.yul\":16049:16068   */\n      0x84\n      add\n        /* \"ICO/IcoOptimized.sol\":15115:15162  revert(\"Unsupported payment method for refund\") */\n      tag_50\n        /* \"#utility.yul\":15673:16074   */\n      jump\n        /* \"ICO/IcoOptimized.sol\":14536:15185  if (... */\n    tag_478:\n        /* \"ICO/IcoOptimized.sol\":15248:15256  investor */\n      dup4\n      sub(shl(0xa0, 0x01), 0x01)\n        /* \"ICO/IcoOptimized.sol\":15232:15280  RefundInitiated(investor, amount, paymentMethod) */\n      and\n      0x03829ab241648d7348f97e4f77d36451330f2276ea8eeb3428e462012f9699e7\n        /* \"ICO/IcoOptimized.sol\":15258:15264  amount */\n      dup3\n        /* \"ICO/IcoOptimized.sol\":15266:15279  paymentMethod */\n      dup5\n        /* \"ICO/IcoOptimized.sol\":15232:15280  RefundInitiated(investor, amount, paymentMethod) */\n      mload(0x40)\n      tag_481\n      swap3\n      swap2\n      swap1\n      tag_482\n      jump\t// in\n    tag_481:\n      mload(0x40)\n      dup1\n      swap2\n      sub\n      swap1\n      log2\n        /* \"ICO/IcoOptimized.sol\":14165:15299  if (amount > 0) {... */\n    tag_434:\n      pop\n      pop\n        /* \"ICO/IcoOptimized.sol\":14001:14004  j++ */\n      0x01\n      add\n        /* \"ICO/IcoOptimized.sol\":13976:15330  for (uint8 j = 0; j < 3; j++) {... */\n      jump(tag_425)\n    tag_426:\n      pop\n        /* \"ICO/IcoOptimized.sol\":15343:15352  investors */\n      0x0c\n        /* \"ICO/IcoOptimized.sol\":15343:15358  investors.pop() */\n      dup1\n      sload\n      dup1\n      tag_484\n      jumpi\n      tag_484\n      tag_485\n      jump\t// in\n    tag_484:\n      0x00\n      dup3\n      dup2\n      mstore\n      0x20\n      dup2\n      keccak256\n      dup3\n      add\n      not(0x00)\n      swap1\n      dup2\n      add\n      dup1\n      sload\n      not(sub(shl(0xa0, 0x01), 0x01))\n      and\n      swap1\n      sstore\n      swap1\n      swap2\n      add\n      swap1\n      swap2\n      sstore\n        /* \"ICO/IcoOptimized.sol\":15376:15382  i == 0 */\n      dup3\n      swap1\n      sub\n        /* \"ICO/IcoOptimized.sol\":15372:15430  if (i == 0) {... */\n      tag_487\n      jumpi\n        /* \"ICO/IcoOptimized.sol\":15406:15411  break */\n      pop\n      jump(tag_418)\n        /* \"ICO/IcoOptimized.sol\":15372:15430  if (i == 0) {... */\n    tag_487:\n      pop\n        /* \"ICO/IcoOptimized.sol\":13851:13854  i-- */\n      dup1\n      tag_488\n      dup2\n      tag_489\n      jump\t// in\n    tag_488:\n      swap2\n      pop\n      pop\n        /* \"ICO/IcoOptimized.sol\":13790:15440  for (uint256 i = investorLength - 1; i >= investorsIterated; i--) {... */\n      jump(tag_417)\n    tag_418:\n      pop\n        /* \"ICO/IcoOptimized.sol\":15453:15462  investors */\n      0x0c\n        /* \"ICO/IcoOptimized.sol\":15453:15469  investors.length */\n      sload\n        /* \"ICO/IcoOptimized.sol\":15473:15474  0 */\n      0x00\n        /* \"ICO/IcoOptimized.sol\":15453:15474  investors.length == 0 */\n      sub\n        /* \"ICO/IcoOptimized.sol\":15449:15522  if (investors.length == 0) {... */\n      tag_490\n      jumpi\n        /* \"ICO/IcoOptimized.sol\":15490:15504  isICOFinalized */\n      0x0b\n        /* \"ICO/IcoOptimized.sol\":15490:15511  isICOFinalized = true */\n      dup1\n      sload\n      not(0xff)\n      and\n        /* \"ICO/IcoOptimized.sol\":15507:15511  true */\n      0x01\n        /* \"ICO/IcoOptimized.sol\":15490:15511  isICOFinalized = true */\n      or\n      swap1\n      sstore\n        /* \"ICO/IcoOptimized.sol\":15449:15522  if (investors.length == 0) {... */\n    tag_490:\n        /* \"ICO/IcoOptimized.sol\":13339:15528  {... */\n      pop\n      pop\n        /* \"@openzeppelin/contracts/utils/ReentrancyGuard.sol\":2542:2562  _nonReentrantAfter() */\n      tag_354\n        /* \"@openzeppelin/contracts/utils/ReentrancyGuard.sol\":1857:1858  1 */\n      0x01\n        /* \"@openzeppelin/contracts/utils/ReentrancyGuard.sol\":3068:3075  _status */\n      0x00\n        /* \"@openzeppelin/contracts/utils/ReentrancyGuard.sol\":3068:3089  _status = NOT_ENTERED */\n      sstore\n        /* \"@openzeppelin/contracts/utils/ReentrancyGuard.sol\":2888:3096  function _nonReentrantAfter() private {... */\n      jump\n        /* \"ICO/IcoOptimized.sol\":11682:13259  function airdropTokens()... */\n    tag_142:\n        /* \"@openzeppelin/contracts/utils/ReentrancyGuard.sol\":2500:2521  _nonReentrantBefore() */\n      tag_494\n        /* \"@openzeppelin/contracts/utils/ReentrancyGuard.sol\":2500:2519  _nonReentrantBefore */\n      tag_333\n        /* \"@openzeppelin/contracts/utils/ReentrancyGuard.sol\":2500:2521  _nonReentrantBefore() */\n      jump\t// in\n    tag_494:\n        /* \"@openzeppelin/contracts/access/Ownable.sol\":1531:1544  _checkOwner() */\n      tag_496\n        /* \"@openzeppelin/contracts/access/Ownable.sol\":1531:1542  _checkOwner */\n      tag_336\n        /* \"@openzeppelin/contracts/access/Ownable.sol\":1531:1544  _checkOwner() */\n      jump\t// in\n    tag_496:\n        /* \"ICO/IcoOptimized.sol\":2945:2959  isICOFinalized */\n      and(0xff, sload(0x0b))\n        /* \"ICO/IcoOptimized.sol\":2944:2959  !isICOFinalized */\n      iszero\n        /* \"ICO/IcoOptimized.sol\":2936:2985  require(!isICOFinalized, \"ICO already finalized\") */\n      tag_498\n      jumpi\n      mload(0x40)\n      shl(0xe5, 0x461bcd)\n      dup2\n      mstore\n      0x04\n      add\n      tag_50\n      swap1\n      tag_340\n      jump\t// in\n    tag_498:\n        /* \"ICO/IcoOptimized.sol\":3047:3056  isFreezed */\n      sload(0x0b)\n      0x010000\n      swap1\n      div\n      0xff\n      and\n        /* \"ICO/IcoOptimized.sol\":3046:3056  !isFreezed */\n      iszero\n        /* \"ICO/IcoOptimized.sol\":3038:3068  require(!isFreezed, \"freezed\") */\n      tag_501\n      jumpi\n      mload(0x40)\n      shl(0xe5, 0x461bcd)\n      dup2\n      mstore\n      0x04\n      add\n      tag_50\n      swap1\n      tag_344\n      jump\t// in\n    tag_501:\n        /* \"ICO/IcoOptimized.sol\":11826:11844  isTokensAirdropped */\n      sload(0x0b)\n      0x0100\n      swap1\n      div\n      0xff\n      and\n        /* \"ICO/IcoOptimized.sol\":11825:11844  !isTokensAirdropped */\n      iszero\n        /* \"ICO/IcoOptimized.sol\":11817:11874  require(!isTokensAirdropped, \"Airdrop already completed\") */\n      tag_504\n      jumpi\n      mload(0x40)\n      shl(0xe5, 0x461bcd)\n      dup2\n      mstore\n        /* \"#utility.yul\":16845:16847   */\n      0x20\n        /* \"ICO/IcoOptimized.sol\":11817:11874  require(!isTokensAirdropped, \"Airdrop already completed\") */\n      0x04\n      dup3\n      add\n        /* \"#utility.yul\":16827:16848   */\n      mstore\n        /* \"#utility.yul\":16884:16886   */\n      0x19\n        /* \"#utility.yul\":16864:16882   */\n      0x24\n      dup3\n      add\n        /* \"#utility.yul\":16857:16887   */\n      mstore\n        /* \"#utility.yul\":16923:16950   */\n      0x41697264726f7020616c726561647920636f6d706c6574656400000000000000\n        /* \"#utility.yul\":16903:16921   */\n      0x44\n      dup3\n      add\n        /* \"#utility.yul\":16896:16951   */\n      mstore\n        /* \"#utility.yul\":16968:16986   */\n      0x64\n      add\n        /* \"ICO/IcoOptimized.sol\":11817:11874  require(!isTokensAirdropped, \"Airdrop already completed\") */\n      tag_50\n        /* \"#utility.yul\":16643:16992   */\n      jump\n        /* \"ICO/IcoOptimized.sol\":11817:11874  require(!isTokensAirdropped, \"Airdrop already completed\") */\n    tag_504:\n        /* \"ICO/IcoOptimized.sol\":11936:11951  totalTokensSold */\n      sload(0x0a)\n        /* \"ICO/IcoOptimized.sol\":11905:11910  token */\n      sload(0x05)\n        /* \"ICO/IcoOptimized.sol\":11905:11932  token.balanceOf(msg.sender) */\n      mload(0x40)\n      shl(0xe0, 0x70a08231)\n      dup2\n      mstore\n        /* \"ICO/IcoOptimized.sol\":11921:11931  msg.sender */\n      caller\n        /* \"ICO/IcoOptimized.sol\":11905:11932  token.balanceOf(msg.sender) */\n      0x04\n      dup3\n      add\n        /* \"#utility.yul\":1786:1837   */\n      mstore\n      sub(shl(0xa0, 0x01), 0x01)\n        /* \"ICO/IcoOptimized.sol\":11905:11910  token */\n      swap1\n      swap2\n      and\n      swap1\n        /* \"ICO/IcoOptimized.sol\":11905:11920  token.balanceOf */\n      0x70a08231\n      swap1\n        /* \"#utility.yul\":1759:1777   */\n      0x24\n      add\n        /* \"ICO/IcoOptimized.sol\":11905:11932  token.balanceOf(msg.sender) */\n      0x20\n      mload(0x40)\n      dup1\n      dup4\n      sub\n      dup2\n      dup7\n      gas\n      staticcall\n      iszero\n      dup1\n      iszero\n      tag_509\n      jumpi\n      returndatasize\n      0x00\n      dup1\n      returndatacopy\n      revert(0x00, returndatasize)\n    tag_509:\n      pop\n      pop\n      pop\n      pop\n      mload(0x40)\n      returndatasize\n      not(0x1f)\n      0x1f\n      dup3\n      add\n      and\n      dup3\n      add\n      dup1\n      0x40\n      mstore\n      pop\n      dup2\n      add\n      swap1\n      tag_510\n      swap2\n      swap1\n      tag_511\n      jump\t// in\n    tag_510:\n        /* \"ICO/IcoOptimized.sol\":11905:11951  token.balanceOf(msg.sender) >= totalTokensSold */\n      lt\n      iszero\n        /* \"ICO/IcoOptimized.sol\":11884:11995  require(... */\n      tag_512\n      jumpi\n      mload(0x40)\n      shl(0xe5, 0x461bcd)\n      dup2\n      mstore\n        /* \"#utility.yul\":17434:17436   */\n      0x20\n        /* \"ICO/IcoOptimized.sol\":11884:11995  require(... */\n      0x04\n      dup3\n      add\n        /* \"#utility.yul\":17416:17437   */\n      mstore\n        /* \"#utility.yul\":17473:17475   */\n      0x12\n        /* \"#utility.yul\":17453:17471   */\n      0x24\n      dup3\n      add\n        /* \"#utility.yul\":17446:17476   */\n      mstore\n      shl(0x70, 0x496e73756666696369656e742046756e6473)\n        /* \"#utility.yul\":17492:17510   */\n      0x44\n      dup3\n      add\n        /* \"#utility.yul\":17485:17533   */\n      mstore\n        /* \"#utility.yul\":17550:17568   */\n      0x64\n      add\n        /* \"ICO/IcoOptimized.sol\":11884:11995  require(... */\n      tag_50\n        /* \"#utility.yul\":17232:17574   */\n      jump\n        /* \"ICO/IcoOptimized.sol\":11884:11995  require(... */\n    tag_512:\n        /* \"ICO/IcoOptimized.sol\":15810:15819  saleCount */\n      sload(0x08)\n        /* \"ICO/IcoOptimized.sol\":15778:15785  uint256 */\n      0x00\n        /* \"ICO/IcoOptimized.sol\":15804:15820  sales[saleCount] */\n      swap1\n      dup2\n      mstore\n        /* \"ICO/IcoOptimized.sol\":15804:15809  sales */\n      0x0f\n        /* \"ICO/IcoOptimized.sol\":15804:15820  sales[saleCount] */\n      0x20\n      mstore\n      0x40\n      swap1\n      keccak256\n        /* \"ICO/IcoOptimized.sol\":15804:15828  sales[saleCount].endTime */\n      0x01\n      add\n      sload\n        /* \"ICO/IcoOptimized.sol\":12013:12028  block.timestamp */\n      timestamp\n        /* \"ICO/IcoOptimized.sol\":12013:12053  block.timestamp > getLatestSaleEndTime() */\n      gt\n        /* \"ICO/IcoOptimized.sol\":12005:12070  require(block.timestamp > getLatestSaleEndTime(), \"Sale ongoing\") */\n      tag_516\n      jumpi\n      mload(0x40)\n      shl(0xe5, 0x461bcd)\n      dup2\n      mstore\n        /* \"#utility.yul\":13587:13589   */\n      0x20\n        /* \"ICO/IcoOptimized.sol\":12005:12070  require(block.timestamp > getLatestSaleEndTime(), \"Sale ongoing\") */\n      0x04\n      dup3\n      add\n        /* \"#utility.yul\":13569:13590   */\n      mstore\n        /* \"#utility.yul\":13626:13628   */\n      0x0c\n        /* \"#utility.yul\":13606:13624   */\n      0x24\n      dup3\n      add\n        /* \"#utility.yul\":13599:13629   */\n      mstore\n      shl(0xa0, 0x53616c65206f6e676f696e67)\n        /* \"#utility.yul\":13645:13663   */\n      0x44\n      dup3\n      add\n        /* \"#utility.yul\":13638:13680   */\n      mstore\n        /* \"#utility.yul\":13697:13715   */\n      0x64\n      add\n        /* \"ICO/IcoOptimized.sol\":12005:12070  require(block.timestamp > getLatestSaleEndTime(), \"Sale ongoing\") */\n      tag_50\n        /* \"#utility.yul\":13385:13721   */\n      jump\n        /* \"ICO/IcoOptimized.sol\":12005:12070  require(block.timestamp > getLatestSaleEndTime(), \"Sale ongoing\") */\n    tag_516:\n        /* \"ICO/IcoOptimized.sol\":12106:12115  investors */\n      0x0c\n        /* \"ICO/IcoOptimized.sol\":12106:12122  investors.length */\n      sload\n        /* \"ICO/IcoOptimized.sol\":12081:12103  uint256 investorLength */\n      0x00\n        /* \"ICO/IcoOptimized.sol\":12189:12191  10 */\n      0x0a\n        /* \"ICO/IcoOptimized.sol\":12172:12191  investorLength > 10 */\n      dup3\n      gt\n        /* \"ICO/IcoOptimized.sol\":12168:12309  if (investorLength > 10) {... */\n      iszero\n      tag_518\n      jumpi\n        /* \"ICO/IcoOptimized.sol\":12227:12246  investorLength - 11 */\n      tag_519\n        /* \"ICO/IcoOptimized.sol\":12244:12246  11 */\n      0x0b\n        /* \"ICO/IcoOptimized.sol\":12227:12241  investorLength */\n      dup4\n        /* \"ICO/IcoOptimized.sol\":12227:12246  investorLength - 11 */\n      tag_252\n      jump\t// in\n    tag_519:\n        /* \"ICO/IcoOptimized.sol\":12207:12246  investorsIterated = investorLength - 11 */\n      swap1\n      pop\n        /* \"ICO/IcoOptimized.sol\":12168:12309  if (investorLength > 10) {... */\n      jump(tag_520)\n    tag_518:\n      pop\n        /* \"ICO/IcoOptimized.sol\":12297:12298  0 */\n      0x00\n        /* \"ICO/IcoOptimized.sol\":12168:12309  if (investorLength > 10) {... */\n    tag_520:\n        /* \"ICO/IcoOptimized.sol\":12323:12332  uint256 i */\n      0x00\n        /* \"ICO/IcoOptimized.sol\":12335:12353  investorLength - 1 */\n      tag_524\n        /* \"ICO/IcoOptimized.sol\":12352:12353  1 */\n      0x01\n        /* \"ICO/IcoOptimized.sol\":12335:12349  investorLength */\n      dup5\n        /* \"ICO/IcoOptimized.sol\":12335:12353  investorLength - 1 */\n      tag_252\n      jump\t// in\n    tag_524:\n        /* \"ICO/IcoOptimized.sol\":12323:12353  uint256 i = investorLength - 1 */\n      swap1\n      pop\n        /* \"ICO/IcoOptimized.sol\":12318:13167  for (uint256 i = investorLength - 1; i >= investorsIterated; i--) {... */\n    tag_521:\n        /* \"ICO/IcoOptimized.sol\":12360:12377  investorsIterated */\n      dup2\n        /* \"ICO/IcoOptimized.sol\":12355:12356  i */\n      dup2\n        /* \"ICO/IcoOptimized.sol\":12355:12377  i >= investorsIterated */\n      lt\n        /* \"ICO/IcoOptimized.sol\":12318:13167  for (uint256 i = investorLength - 1; i >= investorsIterated; i--) {... */\n      tag_522\n      jumpi\n        /* \"ICO/IcoOptimized.sol\":12398:12414  address investor */\n      0x00\n        /* \"ICO/IcoOptimized.sol\":12417:12426  investors */\n      0x0c\n        /* \"ICO/IcoOptimized.sol\":12427:12428  i */\n      dup3\n        /* \"ICO/IcoOptimized.sol\":12417:12429  investors[i] */\n      dup2\n      sload\n      dup2\n      lt\n      tag_526\n      jumpi\n      tag_526\n      tag_423\n      jump\t// in\n    tag_526:\n      0x00\n      swap2\n      dup3\n      mstore\n      0x20\n      dup1\n      dup4\n      keccak256\n      swap1\n      swap2\n      add\n      sload\n      sub(shl(0xa0, 0x01), 0x01)\n      and\n        /* \"ICO/IcoOptimized.sol\":12466:12498  tokensBoughtByInvestor[investor] */\n      dup1\n      dup4\n      mstore\n        /* \"ICO/IcoOptimized.sol\":12466:12488  tokensBoughtByInvestor */\n      0x11\n        /* \"ICO/IcoOptimized.sol\":12466:12498  tokensBoughtByInvestor[investor] */\n      swap1\n      swap2\n      mstore\n      0x40\n      swap1\n      swap2\n      keccak256\n      sload\n        /* \"ICO/IcoOptimized.sol\":12417:12429  investors[i] */\n      swap1\n      swap2\n      pop\n        /* \"ICO/IcoOptimized.sol\":12625:12641  tokensBought > 0 */\n      dup1\n      iszero\n        /* \"ICO/IcoOptimized.sol\":12621:13094  if (tokensBought > 0) {... */\n      tag_528\n      jumpi\n        /* \"ICO/IcoOptimized.sol\":12748:12753  token */\n      sload(0x05)\n        /* \"ICO/IcoOptimized.sol\":12733:12745  bool success */\n      0x00\n      swap1\n      sub(shl(0xa0, 0x01), 0x01)\n        /* \"ICO/IcoOptimized.sol\":12748:12753  token */\n      and\n        /* \"ICO/IcoOptimized.sol\":12748:12766  token.transferFrom */\n      0x23b872dd\n        /* \"ICO/IcoOptimized.sol\":12788:12795  owner() */\n      tag_529\n        /* \"@openzeppelin/contracts/access/Ownable.sol\":1710:1716  _owner */\n      and(sub(shl(0xa0, 0x01), 0x01), sload(0x01))\n      swap1\n        /* \"@openzeppelin/contracts/access/Ownable.sol\":1638:1723  function owner() public view virtual returns (address) {... */\n      jump\n        /* \"ICO/IcoOptimized.sol\":12788:12795  owner() */\n    tag_529:\n        /* \"ICO/IcoOptimized.sol\":12748:12877  token.transferFrom(... */\n      mload(0x40)\n      not(sub(shl(0xe0, 0x01), 0x01))\n      0xe0\n      dup5\n      swap1\n      shl\n      and\n      dup2\n      mstore\n      sub(shl(0xa0, 0x01), 0x01)\n        /* \"#utility.yul\":17799:17831   */\n      swap2\n      dup3\n      and\n        /* \"ICO/IcoOptimized.sol\":12748:12877  token.transferFrom(... */\n      0x04\n      dup3\n      add\n        /* \"#utility.yul\":17781:17832   */\n      mstore\n        /* \"#utility.yul\":17868:17900   */\n      swap1\n      dup7\n      and\n        /* \"#utility.yul\":17848:17866   */\n      0x24\n      dup3\n      add\n        /* \"#utility.yul\":17841:17901   */\n      mstore\n        /* \"#utility.yul\":17917:17935   */\n      0x44\n      dup2\n      add\n        /* \"#utility.yul\":17910:17944   */\n      dup6\n      swap1\n      mstore\n        /* \"#utility.yul\":17754:17772   */\n      0x64\n      add\n        /* \"ICO/IcoOptimized.sol\":12748:12877  token.transferFrom(... */\n      0x20\n      mload(0x40)\n      dup1\n      dup4\n      sub\n      dup2\n      0x00\n      dup8\n      gas\n      call\n      iszero\n      dup1\n      iszero\n      tag_533\n      jumpi\n      returndatasize\n      0x00\n      dup1\n      returndatacopy\n      revert(0x00, returndatasize)\n    tag_533:\n      pop\n      pop\n      pop\n      pop\n      mload(0x40)\n      returndatasize\n      not(0x1f)\n      0x1f\n      dup3\n      add\n      and\n      dup3\n      add\n      dup1\n      0x40\n      mstore\n      pop\n      dup2\n      add\n      swap1\n      tag_534\n      swap2\n      swap1\n      tag_474\n      jump\t// in\n    tag_534:\n        /* \"ICO/IcoOptimized.sol\":12733:12877  bool success = token.transferFrom(... */\n      swap1\n      pop\n        /* \"ICO/IcoOptimized.sol\":12903:12910  success */\n      dup1\n        /* \"ICO/IcoOptimized.sol\":12895:12936  require(success, \"Token transfer failed\") */\n      tag_535\n      jumpi\n      mload(0x40)\n      shl(0xe5, 0x461bcd)\n      dup2\n      mstore\n        /* \"#utility.yul\":18157:18159   */\n      0x20\n        /* \"ICO/IcoOptimized.sol\":12895:12936  require(success, \"Token transfer failed\") */\n      0x04\n      dup3\n      add\n        /* \"#utility.yul\":18139:18160   */\n      mstore\n        /* \"#utility.yul\":18196:18198   */\n      0x15\n        /* \"#utility.yul\":18176:18194   */\n      0x24\n      dup3\n      add\n        /* \"#utility.yul\":18169:18199   */\n      mstore\n      shl(0x5a, 0x151bdad95b881d1c985b9cd9995c8819985a5b1959)\n        /* \"#utility.yul\":18215:18233   */\n      0x44\n      dup3\n      add\n        /* \"#utility.yul\":18208:18259   */\n      mstore\n        /* \"#utility.yul\":18276:18294   */\n      0x64\n      add\n        /* \"ICO/IcoOptimized.sol\":12895:12936  require(success, \"Token transfer failed\") */\n      tag_50\n        /* \"#utility.yul\":17955:18300   */\n      jump\n        /* \"ICO/IcoOptimized.sol\":12895:12936  require(success, \"Token transfer failed\") */\n    tag_535:\n        /* \"ICO/IcoOptimized.sol\":12954:12963  investors */\n      0x0c\n        /* \"ICO/IcoOptimized.sol\":12954:12969  investors.pop() */\n      dup1\n      sload\n      dup1\n      tag_539\n      jumpi\n      tag_539\n      tag_485\n      jump\t// in\n    tag_539:\n      0x00\n      dup3\n      dup2\n      mstore\n      0x20\n      swap1\n      keccak256\n      dup2\n      add\n      not(0x00)\n      swap1\n      dup2\n      add\n      dup1\n      sload\n      not(sub(shl(0xa0, 0x01), 0x01))\n      and\n      swap1\n      sstore\n      add\n      swap1\n      sstore\n        /* \"ICO/IcoOptimized.sol\":13040:13079  TokenAirdropped(investor, tokensBought) */\n      mload(0x40)\n      sub(shl(0xa0, 0x01), 0x01)\n      dup5\n      and\n      swap1\n      0x9bdcd0cc5503fb9a8dd7311d9617e33108c4b7c8948cc544b16c1fd63c6f475b\n      swap1\n      tag_541\n      swap1\n        /* \"ICO/IcoOptimized.sol\":13066:13078  tokensBought */\n      dup6\n        /* \"#utility.yul\":1013:1038   */\n      dup2\n      mstore\n        /* \"#utility.yul\":1001:1003   */\n      0x20\n        /* \"#utility.yul\":986:1004   */\n      add\n      swap1\n        /* \"#utility.yul\":867:1044   */\n      jump\n        /* \"ICO/IcoOptimized.sol\":13040:13079  TokenAirdropped(investor, tokensBought) */\n    tag_541:\n      mload(0x40)\n      dup1\n      swap2\n      sub\n      swap1\n      log2\n        /* \"ICO/IcoOptimized.sol\":12643:13094  {... */\n      pop\n        /* \"ICO/IcoOptimized.sol\":12621:13094  if (tokensBought > 0) {... */\n    tag_528:\n        /* \"ICO/IcoOptimized.sol\":13111:13112  i */\n      dup3\n        /* \"ICO/IcoOptimized.sol\":13116:13117  0 */\n      0x00\n        /* \"ICO/IcoOptimized.sol\":13111:13117  i == 0 */\n      sub\n        /* \"ICO/IcoOptimized.sol\":13107:13157  if (i == 0) {... */\n      tag_542\n      jumpi\n        /* \"ICO/IcoOptimized.sol\":13137:13142  break */\n      pop\n      pop\n      jump(tag_522)\n        /* \"ICO/IcoOptimized.sol\":13107:13157  if (i == 0) {... */\n    tag_542:\n        /* \"ICO/IcoOptimized.sol\":12384:13167  {... */\n      pop\n      pop\n        /* \"ICO/IcoOptimized.sol\":12379:12382  i-- */\n      dup1\n      dup1\n      tag_543\n      swap1\n      tag_489\n      jump\t// in\n    tag_543:\n      swap2\n      pop\n      pop\n        /* \"ICO/IcoOptimized.sol\":12318:13167  for (uint256 i = investorLength - 1; i >= investorsIterated; i--) {... */\n      jump(tag_521)\n    tag_522:\n      pop\n        /* \"ICO/IcoOptimized.sol\":13180:13189  investors */\n      0x0c\n        /* \"ICO/IcoOptimized.sol\":13180:13196  investors.length */\n      sload\n        /* \"ICO/IcoOptimized.sol\":13200:13201  0 */\n      0x00\n        /* \"ICO/IcoOptimized.sol\":13180:13201  investors.length == 0 */\n      sub\n        /* \"ICO/IcoOptimized.sol\":13176:13253  if (investors.length == 0) {... */\n      tag_490\n      jumpi\n        /* \"ICO/IcoOptimized.sol\":13217:13235  isTokensAirdropped */\n      0x0b\n        /* \"ICO/IcoOptimized.sol\":13217:13242  isTokensAirdropped = true */\n      dup1\n      sload\n      not(0xff00)\n      and\n      0x0100\n      or\n      swap1\n      sstore\n        /* \"ICO/IcoOptimized.sol\":11807:13259  {... */\n      pop\n      pop\n        /* \"@openzeppelin/contracts/utils/ReentrancyGuard.sol\":2542:2562  _nonReentrantAfter() */\n      tag_354\n        /* \"@openzeppelin/contracts/utils/ReentrancyGuard.sol\":1857:1858  1 */\n      0x01\n        /* \"@openzeppelin/contracts/utils/ReentrancyGuard.sol\":3068:3075  _status */\n      0x00\n        /* \"@openzeppelin/contracts/utils/ReentrancyGuard.sol\":3068:3089  _status = NOT_ENTERED */\n      sstore\n        /* \"@openzeppelin/contracts/utils/ReentrancyGuard.sol\":2888:3096  function _nonReentrantAfter() private {... */\n      jump\n        /* \"ICO/IcoOptimized.sol\":7823:10400  function buyTokens(PaymentMethod paymentMethod, uint256 paymentAmount)... */\n    tag_149:\n        /* \"ICO/IcoOptimized.sol\":2945:2959  isICOFinalized */\n      and(0xff, sload(0x0b))\n        /* \"ICO/IcoOptimized.sol\":2944:2959  !isICOFinalized */\n      iszero\n        /* \"ICO/IcoOptimized.sol\":2936:2985  require(!isICOFinalized, \"ICO already finalized\") */\n      tag_548\n      jumpi\n      mload(0x40)\n      shl(0xe5, 0x461bcd)\n      dup2\n      mstore\n      0x04\n      add\n      tag_50\n      swap1\n      tag_340\n      jump\t// in\n    tag_548:\n        /* \"ICO/IcoOptimized.sol\":3047:3056  isFreezed */\n      sload(0x0b)\n      0x010000\n      swap1\n      div\n      0xff\n      and\n        /* \"ICO/IcoOptimized.sol\":3046:3056  !isFreezed */\n      iszero\n        /* \"ICO/IcoOptimized.sol\":3038:3068  require(!isFreezed, \"freezed\") */\n      tag_551\n      jumpi\n      mload(0x40)\n      shl(0xe5, 0x461bcd)\n      dup2\n      mstore\n      0x04\n      add\n      tag_50\n      swap1\n      tag_344\n      jump\t// in\n    tag_551:\n        /* \"@openzeppelin/contracts/access/Ownable.sol\":1710:1716  _owner */\n      and(sub(shl(0xa0, 0x01), 0x01), sload(0x01))\n        /* \"ICO/IcoOptimized.sol\":7989:7999  msg.sender */\n      caller\n        /* \"ICO/IcoOptimized.sol\":7989:8010  msg.sender != owner() */\n      sub\n        /* \"ICO/IcoOptimized.sol\":7981:8038  require(msg.sender != owner(), \"Owner cannot buy tokens\") */\n      tag_555\n      jumpi\n      mload(0x40)\n      shl(0xe5, 0x461bcd)\n      dup2\n      mstore\n        /* \"#utility.yul\":18507:18509   */\n      0x20\n        /* \"ICO/IcoOptimized.sol\":7981:8038  require(msg.sender != owner(), \"Owner cannot buy tokens\") */\n      0x04\n      dup3\n      add\n        /* \"#utility.yul\":18489:18510   */\n      mstore\n        /* \"#utility.yul\":18546:18548   */\n      0x17\n        /* \"#utility.yul\":18526:18544   */\n      0x24\n      dup3\n      add\n        /* \"#utility.yul\":18519:18549   */\n      mstore\n        /* \"#utility.yul\":18585:18610   */\n      0x4f776e65722063616e6e6f742062757920746f6b656e73000000000000000000\n        /* \"#utility.yul\":18565:18583   */\n      0x44\n      dup3\n      add\n        /* \"#utility.yul\":18558:18611   */\n      mstore\n        /* \"#utility.yul\":18628:18646   */\n      0x64\n      add\n        /* \"ICO/IcoOptimized.sol\":7981:8038  require(msg.sender != owner(), \"Owner cannot buy tokens\") */\n      tag_50\n        /* \"#utility.yul\":18305:18652   */\n      jump\n        /* \"ICO/IcoOptimized.sol\":7981:8038  require(msg.sender != owner(), \"Owner cannot buy tokens\") */\n    tag_555:\n        /* \"ICO/IcoOptimized.sol\":8056:8065  saleCount */\n      sload(0x08)\n        /* \"ICO/IcoOptimized.sol\":8069:8070  0 */\n      0x00\n        /* \"ICO/IcoOptimized.sol\":8056:8070  saleCount != 0 */\n      sub\n        /* \"ICO/IcoOptimized.sol\":8048:8082  require(saleCount != 0, \"No sale\") */\n      tag_558\n      jumpi\n      mload(0x40)\n      shl(0xe5, 0x461bcd)\n      dup2\n      mstore\n        /* \"#utility.yul\":18859:18861   */\n      0x20\n        /* \"ICO/IcoOptimized.sol\":8048:8082  require(saleCount != 0, \"No sale\") */\n      0x04\n      dup3\n      add\n        /* \"#utility.yul\":18841:18862   */\n      mstore\n        /* \"#utility.yul\":18898:18899   */\n      0x07\n        /* \"#utility.yul\":18878:18896   */\n      0x24\n      dup3\n      add\n        /* \"#utility.yul\":18871:18900   */\n      mstore\n      shl(0xc8, 0x4e6f2073616c65)\n        /* \"#utility.yul\":18916:18934   */\n      0x44\n      dup3\n      add\n        /* \"#utility.yul\":18909:18946   */\n      mstore\n        /* \"#utility.yul\":18963:18981   */\n      0x64\n      add\n        /* \"ICO/IcoOptimized.sol\":8048:8082  require(saleCount != 0, \"No sale\") */\n      tag_50\n        /* \"#utility.yul\":18657:18987   */\n      jump\n        /* \"ICO/IcoOptimized.sol\":8048:8082  require(saleCount != 0, \"No sale\") */\n    tag_558:\n        /* \"ICO/IcoOptimized.sol\":8107:8116  saleCount */\n      sload(0x08)\n        /* \"ICO/IcoOptimized.sol\":8101:8117  sales[saleCount] */\n      0x00\n      swap1\n      dup2\n      mstore\n        /* \"ICO/IcoOptimized.sol\":8101:8106  sales */\n      0x0f\n        /* \"ICO/IcoOptimized.sol\":8101:8117  sales[saleCount] */\n      0x20\n      mstore\n      0x40\n      swap1\n      keccak256\n        /* \"ICO/IcoOptimized.sol\":8101:8129  sales[saleCount].isFinalized */\n      0x04\n      add\n      sload\n      0xff\n      and\n        /* \"ICO/IcoOptimized.sol\":8100:8129  !sales[saleCount].isFinalized */\n      iszero\n        /* \"ICO/IcoOptimized.sol\":8092:8156  require(!sales[saleCount].isFinalized, \"Sale already finalized\") */\n      tag_561\n      jumpi\n      mload(0x40)\n      shl(0xe5, 0x461bcd)\n      dup2\n      mstore\n        /* \"#utility.yul\":19194:19196   */\n      0x20\n        /* \"ICO/IcoOptimized.sol\":8092:8156  require(!sales[saleCount].isFinalized, \"Sale already finalized\") */\n      0x04\n      dup3\n      add\n        /* \"#utility.yul\":19176:19197   */\n      mstore\n        /* \"#utility.yul\":19233:19235   */\n      0x16\n        /* \"#utility.yul\":19213:19231   */\n      0x24\n      dup3\n      add\n        /* \"#utility.yul\":19206:19236   */\n      mstore\n      shl(0x52, 0x14d85b1948185b1c9958591e48199a5b985b1a5e9959)\n        /* \"#utility.yul\":19252:19270   */\n      0x44\n      dup3\n      add\n        /* \"#utility.yul\":19245:19297   */\n      mstore\n        /* \"#utility.yul\":19314:19332   */\n      0x64\n      add\n        /* \"ICO/IcoOptimized.sol\":8092:8156  require(!sales[saleCount].isFinalized, \"Sale already finalized\") */\n      tag_50\n        /* \"#utility.yul\":18992:19338   */\n      jump\n        /* \"ICO/IcoOptimized.sol\":8092:8156  require(!sales[saleCount].isFinalized, \"Sale already finalized\") */\n    tag_561:\n        /* \"ICO/IcoOptimized.sol\":8166:8185  uint256 tokenAmount */\n      0x00\n      dup1\n        /* \"ICO/IcoOptimized.sol\":8199:8212  paymentMethod */\n      dup4\n        /* \"ICO/IcoOptimized.sol\":8199:8233  paymentMethod == PaymentMethod.BNB */\n      0x02\n      dup2\n      gt\n      iszero\n      tag_567\n      jumpi\n      tag_567\n      tag_232\n      jump\t// in\n    tag_567:\n      sub\n        /* \"ICO/IcoOptimized.sol\":8195:9407  if (paymentMethod == PaymentMethod.BNB) {... */\n      tag_568\n      jumpi\n        /* \"ICO/IcoOptimized.sol\":8322:8323  0 */\n      0x00\n        /* \"ICO/IcoOptimized.sol\":8310:8319  msg.value */\n      callvalue\n        /* \"ICO/IcoOptimized.sol\":8310:8323  msg.value > 0 */\n      gt\n        /* \"ICO/IcoOptimized.sol\":8302:8351  require(msg.value > 0, \"Send a valid BNB amount\") */\n      tag_569\n      jumpi\n      mload(0x40)\n      shl(0xe5, 0x461bcd)\n      dup2\n      mstore\n        /* \"#utility.yul\":19545:19547   */\n      0x20\n        /* \"ICO/IcoOptimized.sol\":8302:8351  require(msg.value > 0, \"Send a valid BNB amount\") */\n      0x04\n      dup3\n      add\n        /* \"#utility.yul\":19527:19548   */\n      mstore\n        /* \"#utility.yul\":19584:19586   */\n      0x17\n        /* \"#utility.yul\":19564:19582   */\n      0x24\n      dup3\n      add\n        /* \"#utility.yul\":19557:19587   */\n      mstore\n        /* \"#utility.yul\":19623:19648   */\n      0x53656e6420612076616c696420424e4220616d6f756e74000000000000000000\n        /* \"#utility.yul\":19603:19621   */\n      0x44\n      dup3\n      add\n        /* \"#utility.yul\":19596:19649   */\n      mstore\n        /* \"#utility.yul\":19666:19684   */\n      0x64\n      add\n        /* \"ICO/IcoOptimized.sol\":8302:8351  require(msg.value > 0, \"Send a valid BNB amount\") */\n      tag_50\n        /* \"#utility.yul\":19343:19690   */\n      jump\n        /* \"ICO/IcoOptimized.sol\":8302:8351  require(msg.value > 0, \"Send a valid BNB amount\") */\n    tag_569:\n        /* \"ICO/IcoOptimized.sol\":8379:8425  calculateTokenAmount(paymentMethod, msg.value) */\n      tag_572\n        /* \"ICO/IcoOptimized.sol\":8400:8413  paymentMethod */\n      dup4\n        /* \"ICO/IcoOptimized.sol\":8415:8424  msg.value */\n      callvalue\n        /* \"ICO/IcoOptimized.sol\":8379:8399  calculateTokenAmount */\n      tag_56\n        /* \"ICO/IcoOptimized.sol\":8379:8425  calculateTokenAmount(paymentMethod, msg.value) */\n      jump\t// in\n    tag_572:\n        /* \"ICO/IcoOptimized.sol\":8456:8466  msg.sender */\n      caller\n        /* \"ICO/IcoOptimized.sol\":8439:8467  investorPayments[msg.sender] */\n      0x00\n      swap1\n      dup2\n      mstore\n        /* \"ICO/IcoOptimized.sol\":8439:8455  investorPayments */\n      0x13\n        /* \"ICO/IcoOptimized.sol\":8439:8467  investorPayments[msg.sender] */\n      0x20\n      mstore\n      0x40\n      dup2\n      keccak256\n        /* \"ICO/IcoOptimized.sol\":8365:8425  tokenAmount = calculateTokenAmount(paymentMethod, msg.value) */\n      swap2\n      swap3\n      pop\n        /* \"ICO/IcoOptimized.sol\":8486:8495  msg.value */\n      callvalue\n      swap2\n        /* \"ICO/IcoOptimized.sol\":8439:8467  investorPayments[msg.sender] */\n      swap1\n        /* \"ICO/IcoOptimized.sol\":8468:8481  paymentMethod */\n      dup6\n        /* \"ICO/IcoOptimized.sol\":8439:8482  investorPayments[msg.sender][paymentMethod] */\n      0x02\n      dup2\n      gt\n      iszero\n      tag_574\n      jumpi\n      tag_574\n      tag_232\n      jump\t// in\n    tag_574:\n      0x02\n      dup2\n      gt\n      iszero\n      tag_576\n      jumpi\n      tag_576\n      tag_232\n      jump\t// in\n    tag_576:\n      dup2\n      mstore\n      0x20\n      add\n      swap1\n      dup2\n      mstore\n      0x20\n      add\n      0x00\n      keccak256\n      0x00\n        /* \"ICO/IcoOptimized.sol\":8439:8495  investorPayments[msg.sender][paymentMethod] += msg.value */\n      dup3\n      dup3\n      sload\n      tag_577\n      swap2\n      swap1\n      tag_578\n      jump\t// in\n    tag_577:\n      swap1\n      swap2\n      sstore\n      pop\n        /* \"ICO/IcoOptimized.sol\":8195:9407  if (paymentMethod == PaymentMethod.BNB) {... */\n      tag_612\n      swap1\n      pop\n      jump\n    tag_568:\n        /* \"ICO/IcoOptimized.sol\":8546:8564  PaymentMethod.USDT */\n      0x01\n        /* \"ICO/IcoOptimized.sol\":8529:8542  paymentMethod */\n      dup4\n        /* \"ICO/IcoOptimized.sol\":8529:8564  paymentMethod == PaymentMethod.USDT */\n      0x02\n      dup2\n      gt\n      iszero\n      tag_583\n      jumpi\n      tag_583\n      tag_232\n      jump\t// in\n    tag_583:\n      eq\n        /* \"ICO/IcoOptimized.sol\":8529:8615  paymentMethod == PaymentMethod.USDT ||... */\n      dup1\n      tag_584\n      jumpi\n      pop\n        /* \"ICO/IcoOptimized.sol\":8597:8615  PaymentMethod.USDC */\n      0x02\n        /* \"ICO/IcoOptimized.sol\":8580:8593  paymentMethod */\n      dup4\n        /* \"ICO/IcoOptimized.sol\":8580:8615  paymentMethod == PaymentMethod.USDC */\n      0x02\n      dup2\n      gt\n      iszero\n      tag_588\n      jumpi\n      tag_588\n      tag_232\n      jump\t// in\n    tag_588:\n      eq\n        /* \"ICO/IcoOptimized.sol\":8529:8615  paymentMethod == PaymentMethod.USDT ||... */\n    tag_584:\n        /* \"ICO/IcoOptimized.sol\":8512:9407  if (... */\n      iszero\n      tag_250\n      jumpi\n        /* \"ICO/IcoOptimized.sol\":8706:8707  0 */\n      0x00\n        /* \"ICO/IcoOptimized.sol\":8690:8703  paymentAmount */\n      dup3\n        /* \"ICO/IcoOptimized.sol\":8690:8707  paymentAmount > 0 */\n      gt\n        /* \"ICO/IcoOptimized.sol\":8682:8743  require(paymentAmount > 0, \"Enter a valid stablecoin amount\") */\n      tag_590\n      jumpi\n      mload(0x40)\n      shl(0xe5, 0x461bcd)\n      dup2\n      mstore\n        /* \"#utility.yul\":20027:20029   */\n      0x20\n        /* \"ICO/IcoOptimized.sol\":8682:8743  require(paymentAmount > 0, \"Enter a valid stablecoin amount\") */\n      0x04\n      dup3\n      add\n        /* \"#utility.yul\":20009:20030   */\n      mstore\n        /* \"#utility.yul\":20066:20068   */\n      0x1f\n        /* \"#utility.yul\":20046:20064   */\n      0x24\n      dup3\n      add\n        /* \"#utility.yul\":20039:20069   */\n      mstore\n        /* \"#utility.yul\":20105:20138   */\n      0x456e74657220612076616c696420737461626c65636f696e20616d6f756e7400\n        /* \"#utility.yul\":20085:20103   */\n      0x44\n      dup3\n      add\n        /* \"#utility.yul\":20078:20139   */\n      mstore\n        /* \"#utility.yul\":20156:20174   */\n      0x64\n      add\n        /* \"ICO/IcoOptimized.sol\":8682:8743  require(paymentAmount > 0, \"Enter a valid stablecoin amount\") */\n      tag_50\n        /* \"#utility.yul\":19825:20180   */\n      jump\n        /* \"ICO/IcoOptimized.sol\":8682:8743  require(paymentAmount > 0, \"Enter a valid stablecoin amount\") */\n    tag_590:\n        /* \"ICO/IcoOptimized.sol\":8757:8774  IERC20 stablecoin */\n      0x00\n        /* \"ICO/IcoOptimized.sol\":8794:8812  PaymentMethod.USDT */\n      0x01\n        /* \"ICO/IcoOptimized.sol\":8777:8790  paymentMethod */\n      dup5\n        /* \"ICO/IcoOptimized.sol\":8777:8812  paymentMethod == PaymentMethod.USDT */\n      0x02\n      dup2\n      gt\n      iszero\n      tag_596\n      jumpi\n      tag_596\n      tag_232\n      jump\t// in\n    tag_596:\n      eq\n        /* \"ICO/IcoOptimized.sol\":8777:8874  paymentMethod == PaymentMethod.USDT... */\n      tag_597\n      jumpi\n        /* \"ICO/IcoOptimized.sol\":8869:8873  usdc */\n      and(sub(shl(0xa0, 0x01), 0x01), sload(0x0e))\n        /* \"ICO/IcoOptimized.sol\":8777:8874  paymentMethod == PaymentMethod.USDT... */\n      jump(tag_598)\n    tag_597:\n        /* \"ICO/IcoOptimized.sol\":8838:8842  usdt */\n      and(sub(shl(0xa0, 0x01), 0x01), sload(0x0d))\n        /* \"ICO/IcoOptimized.sol\":8777:8874  paymentMethod == PaymentMethod.USDT... */\n    tag_598:\n        /* \"ICO/IcoOptimized.sol\":8913:9056  stablecoin.transferFrom(... */\n      mload(0x40)\n      shl(0xe0, 0x23b872dd)\n      dup2\n      mstore\n        /* \"ICO/IcoOptimized.sol\":8958:8968  msg.sender */\n      caller\n        /* \"ICO/IcoOptimized.sol\":8913:9056  stablecoin.transferFrom(... */\n      0x04\n      dup3\n      add\n        /* \"#utility.yul\":17781:17832   */\n      mstore\n        /* \"ICO/IcoOptimized.sol\":8998:9002  this */\n      address\n        /* \"#utility.yul\":17848:17866   */\n      0x24\n      dup3\n      add\n        /* \"#utility.yul\":17841:17901   */\n      mstore\n        /* \"#utility.yul\":17917:17935   */\n      0x44\n      dup2\n      add\n        /* \"#utility.yul\":17910:17944   */\n      dup6\n      swap1\n      mstore\n        /* \"ICO/IcoOptimized.sol\":8757:8874  IERC20 stablecoin = paymentMethod == PaymentMethod.USDT... */\n      swap1\n      swap2\n      pop\n      sub(shl(0xa0, 0x01), 0x01)\n        /* \"ICO/IcoOptimized.sol\":8913:8936  stablecoin.transferFrom */\n      dup3\n      and\n      swap1\n      0x23b872dd\n      swap1\n        /* \"#utility.yul\":17754:17772   */\n      0x64\n      add\n        /* \"ICO/IcoOptimized.sol\":8913:9056  stablecoin.transferFrom(... */\n      0x20\n      mload(0x40)\n      dup1\n      dup4\n      sub\n      dup2\n      0x00\n      dup8\n      gas\n      call\n      iszero\n      dup1\n      iszero\n      tag_601\n      jumpi\n      returndatasize\n      0x00\n      dup1\n      returndatacopy\n      revert(0x00, returndatasize)\n    tag_601:\n      pop\n      pop\n      pop\n      pop\n      mload(0x40)\n      returndatasize\n      not(0x1f)\n      0x1f\n      dup3\n      add\n      and\n      dup3\n      add\n      dup1\n      0x40\n      mstore\n      pop\n      dup2\n      add\n      swap1\n      tag_602\n      swap2\n      swap1\n      tag_474\n      jump\t// in\n    tag_602:\n        /* \"ICO/IcoOptimized.sol\":8888:9116  require(... */\n      tag_603\n      jumpi\n      mload(0x40)\n      shl(0xe5, 0x461bcd)\n      dup2\n      mstore\n        /* \"#utility.yul\":20387:20389   */\n      0x20\n        /* \"ICO/IcoOptimized.sol\":8888:9116  require(... */\n      0x04\n      dup3\n      add\n        /* \"#utility.yul\":20369:20390   */\n      mstore\n        /* \"#utility.yul\":20426:20428   */\n      0x1a\n        /* \"#utility.yul\":20406:20424   */\n      0x24\n      dup3\n      add\n        /* \"#utility.yul\":20399:20429   */\n      mstore\n        /* \"#utility.yul\":20465:20493   */\n      0x537461626c65636f696e207472616e73666572206661696c6564000000000000\n        /* \"#utility.yul\":20445:20463   */\n      0x44\n      dup3\n      add\n        /* \"#utility.yul\":20438:20494   */\n      mstore\n        /* \"#utility.yul\":20511:20529   */\n      0x64\n      add\n        /* \"ICO/IcoOptimized.sol\":8888:9116  require(... */\n      tag_50\n        /* \"#utility.yul\":20185:20535   */\n      jump\n        /* \"ICO/IcoOptimized.sol\":8888:9116  require(... */\n    tag_603:\n        /* \"ICO/IcoOptimized.sol\":9205:9255  calculateTokenAmount(paymentMethod, paymentAmount) */\n      tag_606\n        /* \"ICO/IcoOptimized.sol\":9226:9239  paymentMethod */\n      dup5\n        /* \"ICO/IcoOptimized.sol\":9241:9254  paymentAmount */\n      dup5\n        /* \"ICO/IcoOptimized.sol\":9205:9225  calculateTokenAmount */\n      tag_56\n        /* \"ICO/IcoOptimized.sol\":9205:9255  calculateTokenAmount(paymentMethod, paymentAmount) */\n      jump\t// in\n    tag_606:\n        /* \"ICO/IcoOptimized.sol\":9286:9296  msg.sender */\n      caller\n        /* \"ICO/IcoOptimized.sol\":9269:9297  investorPayments[msg.sender] */\n      0x00\n      swap1\n      dup2\n      mstore\n        /* \"ICO/IcoOptimized.sol\":9269:9285  investorPayments */\n      0x13\n        /* \"ICO/IcoOptimized.sol\":9269:9297  investorPayments[msg.sender] */\n      0x20\n      mstore\n      0x40\n      dup2\n      keccak256\n        /* \"ICO/IcoOptimized.sol\":9191:9255  tokenAmount = calculateTokenAmount(paymentMethod, paymentAmount) */\n      swap2\n      swap4\n      pop\n        /* \"ICO/IcoOptimized.sol\":9316:9329  paymentAmount */\n      dup5\n      swap2\n        /* \"ICO/IcoOptimized.sol\":9269:9297  investorPayments[msg.sender] */\n      swap1\n        /* \"ICO/IcoOptimized.sol\":9298:9311  paymentMethod */\n      dup7\n        /* \"ICO/IcoOptimized.sol\":9269:9312  investorPayments[msg.sender][paymentMethod] */\n      0x02\n      dup2\n      gt\n      iszero\n      tag_608\n      jumpi\n      tag_608\n      tag_232\n      jump\t// in\n    tag_608:\n      0x02\n      dup2\n      gt\n      iszero\n      tag_610\n      jumpi\n      tag_610\n      tag_232\n      jump\t// in\n    tag_610:\n      dup2\n      mstore\n      0x20\n      add\n      swap1\n      dup2\n      mstore\n      0x20\n      add\n      0x00\n      keccak256\n      0x00\n        /* \"ICO/IcoOptimized.sol\":9269:9329  investorPayments[msg.sender][paymentMethod] += paymentAmount */\n      dup3\n      dup3\n      sload\n      tag_611\n      swap2\n      swap1\n      tag_578\n      jump\t// in\n    tag_611:\n      swap1\n      swap2\n      sstore\n      pop\n        /* \"ICO/IcoOptimized.sol\":8512:9407  if (... */\n      tag_612\n      swap2\n      pop\n      pop\n      jump\n    tag_612:\n        /* \"ICO/IcoOptimized.sol\":9438:9439  0 */\n      0x00\n        /* \"ICO/IcoOptimized.sol\":9424:9435  tokenAmount */\n      dup2\n        /* \"ICO/IcoOptimized.sol\":9424:9439  tokenAmount > 0 */\n      gt\n        /* \"ICO/IcoOptimized.sol\":9416:9464  require(tokenAmount > 0, \"Invalid token amount\") */\n      tag_614\n      jumpi\n      mload(0x40)\n      shl(0xe5, 0x461bcd)\n      dup2\n      mstore\n        /* \"#utility.yul\":20742:20744   */\n      0x20\n        /* \"ICO/IcoOptimized.sol\":9416:9464  require(tokenAmount > 0, \"Invalid token amount\") */\n      0x04\n      dup3\n      add\n        /* \"#utility.yul\":20724:20745   */\n      mstore\n        /* \"#utility.yul\":20781:20783   */\n      0x14\n        /* \"#utility.yul\":20761:20779   */\n      0x24\n      dup3\n      add\n        /* \"#utility.yul\":20754:20784   */\n      mstore\n      shl(0x62, 0x125b9d985b1a59081d1bdad95b88185b5bdd5b9d)\n        /* \"#utility.yul\":20800:20818   */\n      0x44\n      dup3\n      add\n        /* \"#utility.yul\":20793:20843   */\n      mstore\n        /* \"#utility.yul\":20860:20878   */\n      0x64\n      add\n        /* \"ICO/IcoOptimized.sol\":9416:9464  require(tokenAmount > 0, \"Invalid token amount\") */\n      tag_50\n        /* \"#utility.yul\":20540:20884   */\n      jump\n        /* \"ICO/IcoOptimized.sol\":9416:9464  require(tokenAmount > 0, \"Invalid token amount\") */\n    tag_614:\n        /* \"ICO/IcoOptimized.sol\":9592:9601  saleCount */\n      sload(0x08)\n        /* \"ICO/IcoOptimized.sol\":9534:9556  uint256 totalCostInUSD */\n      0x00\n        /* \"ICO/IcoOptimized.sol\":9586:9602  sales[saleCount] */\n      swap1\n      dup2\n      mstore\n        /* \"ICO/IcoOptimized.sol\":9586:9591  sales */\n      0x0f\n        /* \"ICO/IcoOptimized.sol\":9586:9602  sales[saleCount] */\n      0x20\n      mstore\n      0x40\n      dup2\n      keccak256\n        /* \"ICO/IcoOptimized.sol\":9586:9616  sales[saleCount].tokenPriceUSD */\n      0x02\n      add\n      sload\n        /* \"ICO/IcoOptimized.sol\":1053:1057  1e18 */\n      0x0de0b6b3a7640000\n      swap1\n        /* \"ICO/IcoOptimized.sol\":9560:9616  tokenAmount *... */\n      tag_617\n      swap1\n        /* \"ICO/IcoOptimized.sol\":9560:9571  tokenAmount */\n      dup5\n        /* \"ICO/IcoOptimized.sol\":9560:9616  tokenAmount *... */\n      tag_237\n      jump\t// in\n    tag_617:\n        /* \"ICO/IcoOptimized.sol\":9559:9632  (tokenAmount *... */\n      tag_618\n      swap2\n      swap1\n      tag_239\n      jump\t// in\n    tag_618:\n        /* \"ICO/IcoOptimized.sol\":9534:9632  uint256 totalCostInUSD = (tokenAmount *... */\n      swap1\n      pop\n        /* \"ICO/IcoOptimized.sol\":9703:9715  hardCapInUSD */\n      sload(0x07)\n        /* \"ICO/IcoOptimized.sol\":9685:9699  totalCostInUSD */\n      dup2\n        /* \"ICO/IcoOptimized.sol\":9663:9682  totalFundsRaisedUSD */\n      sload(0x09)\n        /* \"ICO/IcoOptimized.sol\":9663:9699  totalFundsRaisedUSD + totalCostInUSD */\n      tag_619\n      swap2\n      swap1\n      tag_578\n      jump\t// in\n    tag_619:\n        /* \"ICO/IcoOptimized.sol\":9663:9715  totalFundsRaisedUSD + totalCostInUSD <= hardCapInUSD */\n      gt\n      iszero\n        /* \"ICO/IcoOptimized.sol\":9642:9757  require(... */\n      tag_620\n      jumpi\n      mload(0x40)\n      shl(0xe5, 0x461bcd)\n      dup2\n      mstore\n        /* \"#utility.yul\":21091:21093   */\n      0x20\n        /* \"ICO/IcoOptimized.sol\":9642:9757  require(... */\n      0x04\n      dup3\n      add\n        /* \"#utility.yul\":21073:21094   */\n      mstore\n        /* \"#utility.yul\":21130:21132   */\n      0x10\n        /* \"#utility.yul\":21110:21128   */\n      0x24\n      dup3\n      add\n        /* \"#utility.yul\":21103:21133   */\n      mstore\n      shl(0x82, 0x12185c990818d85c081c995858da1959)\n        /* \"#utility.yul\":21149:21167   */\n      0x44\n      dup3\n      add\n        /* \"#utility.yul\":21142:21188   */\n      mstore\n        /* \"#utility.yul\":21205:21223   */\n      0x64\n      add\n        /* \"ICO/IcoOptimized.sol\":9642:9757  require(... */\n      tag_50\n        /* \"#utility.yul\":20889:21229   */\n      jump\n        /* \"ICO/IcoOptimized.sol\":9642:9757  require(... */\n    tag_620:\n        /* \"ICO/IcoOptimized.sol\":9787:9797  msg.sender */\n      caller\n        /* \"ICO/IcoOptimized.sol\":9768:9798  contributionsInUSD[msg.sender] */\n      0x00\n      swap1\n      dup2\n      mstore\n        /* \"ICO/IcoOptimized.sol\":9768:9786  contributionsInUSD */\n      0x10\n        /* \"ICO/IcoOptimized.sol\":9768:9798  contributionsInUSD[msg.sender] */\n      0x20\n      mstore\n      0x40\n      dup2\n      keccak256\n        /* \"ICO/IcoOptimized.sol\":9768:9816  contributionsInUSD[msg.sender] += totalCostInUSD */\n      dup1\n      sload\n        /* \"ICO/IcoOptimized.sol\":9802:9816  totalCostInUSD */\n      dup4\n      swap3\n        /* \"ICO/IcoOptimized.sol\":9768:9798  contributionsInUSD[msg.sender] */\n      swap1\n        /* \"ICO/IcoOptimized.sol\":9768:9816  contributionsInUSD[msg.sender] += totalCostInUSD */\n      tag_623\n      swap1\n        /* \"ICO/IcoOptimized.sol\":9802:9816  totalCostInUSD */\n      dup5\n      swap1\n        /* \"ICO/IcoOptimized.sol\":9768:9816  contributionsInUSD[msg.sender] += totalCostInUSD */\n      tag_578\n      jump\t// in\n    tag_623:\n      swap3\n      pop\n      pop\n      dup2\n      swap1\n      sstore\n      pop\n        /* \"ICO/IcoOptimized.sol\":9849:9863  totalCostInUSD */\n      dup1\n        /* \"ICO/IcoOptimized.sol\":9826:9845  totalFundsRaisedUSD */\n      0x09\n      0x00\n        /* \"ICO/IcoOptimized.sol\":9826:9863  totalFundsRaisedUSD += totalCostInUSD */\n      dup3\n      dup3\n      sload\n      tag_624\n      swap2\n      swap1\n      tag_578\n      jump\t// in\n    tag_624:\n      swap1\n      swap2\n      sstore\n      pop\n      pop\n        /* \"ICO/IcoOptimized.sol\":9879:9888  saleCount */\n      sload(0x08)\n        /* \"ICO/IcoOptimized.sol\":9873:9889  sales[saleCount] */\n      0x00\n      swap1\n      dup2\n      mstore\n        /* \"ICO/IcoOptimized.sol\":9873:9878  sales */\n      0x0f\n        /* \"ICO/IcoOptimized.sol\":9873:9889  sales[saleCount] */\n      0x20\n      mstore\n      0x40\n      dup2\n      keccak256\n        /* \"ICO/IcoOptimized.sol\":9873:9900  sales[saleCount].tokensSold */\n      0x03\n      add\n        /* \"ICO/IcoOptimized.sol\":9873:9915  sales[saleCount].tokensSold += tokenAmount */\n      dup1\n      sload\n        /* \"ICO/IcoOptimized.sol\":9904:9915  tokenAmount */\n      dup5\n      swap3\n        /* \"ICO/IcoOptimized.sol\":9873:9889  sales[saleCount] */\n      swap1\n        /* \"ICO/IcoOptimized.sol\":9873:9915  sales[saleCount].tokensSold += tokenAmount */\n      tag_625\n      swap1\n        /* \"ICO/IcoOptimized.sol\":9904:9915  tokenAmount */\n      dup5\n      swap1\n        /* \"ICO/IcoOptimized.sol\":9873:9915  sales[saleCount].tokensSold += tokenAmount */\n      tag_578\n      jump\t// in\n    tag_625:\n      swap3\n      pop\n      pop\n      dup2\n      swap1\n      sstore\n      pop\n        /* \"ICO/IcoOptimized.sol\":9944:9955  tokenAmount */\n      dup2\n        /* \"ICO/IcoOptimized.sol\":9925:9940  totalTokensSold */\n      0x0a\n      0x00\n        /* \"ICO/IcoOptimized.sol\":9925:9955  totalTokensSold += tokenAmount */\n      dup3\n      dup3\n      sload\n      tag_626\n      swap2\n      swap1\n      tag_578\n      jump\t// in\n    tag_626:\n      swap1\n      swap2\n      sstore\n      pop\n      pop\n        /* \"ICO/IcoOptimized.sol\":9993:10003  msg.sender */\n      caller\n        /* \"ICO/IcoOptimized.sol\":9970:10004  tokensBoughtByInvestor[msg.sender] */\n      0x00\n      swap1\n      dup2\n      mstore\n        /* \"ICO/IcoOptimized.sol\":9970:9992  tokensBoughtByInvestor */\n      0x11\n        /* \"ICO/IcoOptimized.sol\":9970:10004  tokensBoughtByInvestor[msg.sender] */\n      0x20\n      mstore\n      0x40\n      dup2\n      keccak256\n      sload\n        /* \"ICO/IcoOptimized.sol\":9970:10009  tokensBoughtByInvestor[msg.sender] == 0 */\n      swap1\n      sub\n        /* \"ICO/IcoOptimized.sol\":9966:10062  if (tokensBoughtByInvestor[msg.sender] == 0) {... */\n      tag_627\n      jumpi\n        /* \"ICO/IcoOptimized.sol\":10025:10034  investors */\n      0x0c\n        /* \"ICO/IcoOptimized.sol\":10025:10051  investors.push(msg.sender) */\n      dup1\n      sload\n      0x01\n      dup2\n      add\n      dup3\n      sstore\n      0x00\n      swap2\n      swap1\n      swap2\n      mstore\n      0xdf6966c971051c3d54ec59162606531493a51404a002842f56009d7e5cf4a8c7\n      add\n      dup1\n      sload\n      not(sub(shl(0xa0, 0x01), 0x01))\n      and\n        /* \"ICO/IcoOptimized.sol\":10040:10050  msg.sender */\n      caller\n        /* \"ICO/IcoOptimized.sol\":10025:10051  investors.push(msg.sender) */\n      or\n      swap1\n      sstore\n        /* \"ICO/IcoOptimized.sol\":9966:10062  if (tokensBoughtByInvestor[msg.sender] == 0) {... */\n    tag_627:\n        /* \"ICO/IcoOptimized.sol\":10094:10104  msg.sender */\n      caller\n        /* \"ICO/IcoOptimized.sol\":10071:10105  tokensBoughtByInvestor[msg.sender] */\n      0x00\n      swap1\n      dup2\n      mstore\n        /* \"ICO/IcoOptimized.sol\":10071:10093  tokensBoughtByInvestor */\n      0x11\n        /* \"ICO/IcoOptimized.sol\":10071:10105  tokensBoughtByInvestor[msg.sender] */\n      0x20\n      mstore\n      0x40\n      dup2\n      keccak256\n        /* \"ICO/IcoOptimized.sol\":10071:10120  tokensBoughtByInvestor[msg.sender] += tokenAmount */\n      dup1\n      sload\n        /* \"ICO/IcoOptimized.sol\":10109:10120  tokenAmount */\n      dup5\n      swap3\n        /* \"ICO/IcoOptimized.sol\":10071:10105  tokensBoughtByInvestor[msg.sender] */\n      swap1\n        /* \"ICO/IcoOptimized.sol\":10071:10120  tokensBoughtByInvestor[msg.sender] += tokenAmount */\n      tag_629\n      swap1\n        /* \"ICO/IcoOptimized.sol\":10109:10120  tokenAmount */\n      dup5\n      swap1\n        /* \"ICO/IcoOptimized.sol\":10071:10120  tokensBoughtByInvestor[msg.sender] += tokenAmount */\n      tag_578\n      jump\t// in\n    tag_629:\n      swap1\n      swap2\n      sstore\n      pop\n      pop\n        /* \"ICO/IcoOptimized.sol\":10155:10165  msg.sender */\n      caller\n        /* \"ICO/IcoOptimized.sol\":10130:10166  paymentMethodForInvestor[msg.sender] */\n      0x00\n      swap1\n      dup2\n      mstore\n        /* \"ICO/IcoOptimized.sol\":10130:10154  paymentMethodForInvestor */\n      0x12\n        /* \"ICO/IcoOptimized.sol\":10130:10166  paymentMethodForInvestor[msg.sender] */\n      0x20\n      mstore\n      0x40\n      swap1\n      keccak256\n        /* \"ICO/IcoOptimized.sol\":10130:10182  paymentMethodForInvestor[msg.sender] = paymentMethod */\n      dup1\n      sload\n        /* \"ICO/IcoOptimized.sol\":10169:10182  paymentMethod */\n      dup6\n      swap2\n        /* \"ICO/IcoOptimized.sol\":10130:10166  paymentMethodForInvestor[msg.sender] */\n      swap1\n      not(0xff)\n        /* \"ICO/IcoOptimized.sol\":10130:10182  paymentMethodForInvestor[msg.sender] = paymentMethod */\n      and\n      0x01\n        /* \"ICO/IcoOptimized.sol\":10169:10182  paymentMethod */\n      dup4\n        /* \"ICO/IcoOptimized.sol\":10130:10182  paymentMethodForInvestor[msg.sender] = paymentMethod */\n      0x02\n      dup2\n      gt\n      iszero\n      tag_631\n      jumpi\n      tag_631\n      tag_232\n      jump\t// in\n    tag_631:\n      mul\n      or\n      swap1\n      sstore\n      pop\n        /* \"ICO/IcoOptimized.sol\":10251:10260  saleCount */\n      sload(0x08)\n        /* \"ICO/IcoOptimized.sol\":10299:10315  sales[saleCount] */\n      0x00\n      dup2\n      dup2\n      mstore\n        /* \"ICO/IcoOptimized.sol\":10299:10304  sales */\n      0x0f\n        /* \"ICO/IcoOptimized.sol\":10299:10315  sales[saleCount] */\n      0x20\n      mstore\n      0x40\n      swap1\n      dup2\n      swap1\n      keccak256\n        /* \"ICO/IcoOptimized.sol\":10299:10329  sales[saleCount].tokenPriceUSD */\n      0x02\n      add\n      sload\n        /* \"ICO/IcoOptimized.sol\":10198:10393  TokensPurchased(... */\n      swap1\n      mload\n        /* \"ICO/IcoOptimized.sol\":10227:10237  msg.sender */\n      caller\n      swap2\n        /* \"ICO/IcoOptimized.sol\":10198:10393  TokensPurchased(... */\n      0xdbcef474a632721725d49e3f35d9defe0257100b01d1e4b4b135b14d6fe296e8\n      swap2\n      tag_632\n      swap2\n        /* \"ICO/IcoOptimized.sol\":10274:10285  tokenAmount */\n      dup8\n      swap2\n        /* \"ICO/IcoOptimized.sol\":10343:10356  paymentAmount */\n      dup10\n      swap1\n        /* \"ICO/IcoOptimized.sol\":10370:10383  paymentMethod */\n      dup12\n      swap1\n        /* \"ICO/IcoOptimized.sol\":10198:10393  TokensPurchased(... */\n      tag_633\n      jump\t// in\n    tag_632:\n      mload(0x40)\n      dup1\n      swap2\n      sub\n      swap1\n      log3\n        /* \"ICO/IcoOptimized.sol\":7971:10400  {... */\n      pop\n      pop\n        /* \"ICO/IcoOptimized.sol\":7823:10400  function buyTokens(PaymentMethod paymentMethod, uint256 paymentAmount)... */\n      pop\n      pop\n      jump\t// out\n        /* \"@openzeppelin/contracts/access/Ownable.sol\":2543:2758  function transferOwnership(address newOwner) public virtual onlyOwner {... */\n    tag_216:\n        /* \"@openzeppelin/contracts/access/Ownable.sol\":1531:1544  _checkOwner() */\n      tag_637\n        /* \"@openzeppelin/contracts/access/Ownable.sol\":1531:1542  _checkOwner */\n      tag_336\n        /* \"@openzeppelin/contracts/access/Ownable.sol\":1531:1544  _checkOwner() */\n      jump\t// in\n    tag_637:\n      sub(shl(0xa0, 0x01), 0x01)\n        /* \"@openzeppelin/contracts/access/Ownable.sol\":2627:2649  newOwner == address(0) */\n      dup2\n      and\n        /* \"@openzeppelin/contracts/access/Ownable.sol\":2623:2714  if (newOwner == address(0)) {... */\n      tag_639\n      jumpi\n        /* \"@openzeppelin/contracts/access/Ownable.sol\":2672:2703  OwnableInvalidOwner(address(0)) */\n      mload(0x40)\n      shl(0xe0, 0x1e4fbdf7)\n      dup2\n      mstore\n        /* \"@openzeppelin/contracts/access/Ownable.sol\":2700:2701  0 */\n      0x00\n        /* \"@openzeppelin/contracts/access/Ownable.sol\":2672:2703  OwnableInvalidOwner(address(0)) */\n      0x04\n      dup3\n      add\n        /* \"#utility.yul\":1786:1837   */\n      mstore\n        /* \"#utility.yul\":1759:1777   */\n      0x24\n      add\n        /* \"@openzeppelin/contracts/access/Ownable.sol\":2672:2703  OwnableInvalidOwner(address(0)) */\n      tag_50\n        /* \"#utility.yul\":1640:1843   */\n      jump\n        /* \"@openzeppelin/contracts/access/Ownable.sol\":2623:2714  if (newOwner == address(0)) {... */\n    tag_639:\n        /* \"@openzeppelin/contracts/access/Ownable.sol\":2723:2751  _transferOwnership(newOwner) */\n      tag_641\n        /* \"@openzeppelin/contracts/access/Ownable.sol\":2742:2750  newOwner */\n      dup2\n        /* \"@openzeppelin/contracts/access/Ownable.sol\":2723:2741  _transferOwnership */\n      tag_392\n        /* \"@openzeppelin/contracts/access/Ownable.sol\":2723:2751  _transferOwnership(newOwner) */\n      jump\t// in\n    tag_641:\n        /* \"@openzeppelin/contracts/access/Ownable.sol\":2543:2758  function transferOwnership(address newOwner) public virtual onlyOwner {... */\n      pop\n      jump\t// out\n        /* \"@openzeppelin/contracts/utils/ReentrancyGuard.sol\":2575:2882  function _nonReentrantBefore() private {... */\n    tag_333:\n        /* \"@openzeppelin/contracts/utils/ReentrancyGuard.sol\":1899:1900  2 */\n      0x02\n        /* \"@openzeppelin/contracts/utils/ReentrancyGuard.sol\":2702:2709  _status */\n      sload(0x00)\n        /* \"@openzeppelin/contracts/utils/ReentrancyGuard.sol\":2702:2720  _status == ENTERED */\n      sub\n        /* \"@openzeppelin/contracts/utils/ReentrancyGuard.sol\":2698:2784  if (_status == ENTERED) {... */\n      tag_643\n      jumpi\n        /* \"@openzeppelin/contracts/utils/ReentrancyGuard.sol\":2743:2773  ReentrancyGuardReentrantCall() */\n      mload(0x40)\n      shl(0xe0, 0x3ee5aeb5)\n      dup2\n      mstore\n      0x04\n      add\n      mload(0x40)\n      dup1\n      swap2\n      sub\n      swap1\n      revert\n        /* \"@openzeppelin/contracts/utils/ReentrancyGuard.sol\":2698:2784  if (_status == ENTERED) {... */\n    tag_643:\n        /* \"@openzeppelin/contracts/utils/ReentrancyGuard.sol\":1899:1900  2 */\n      0x02\n        /* \"@openzeppelin/contracts/utils/ReentrancyGuard.sol\":2858:2865  _status */\n      0x00\n        /* \"@openzeppelin/contracts/utils/ReentrancyGuard.sol\":2858:2875  _status = ENTERED */\n      sstore\n        /* \"@openzeppelin/contracts/utils/ReentrancyGuard.sol\":2575:2882  function _nonReentrantBefore() private {... */\n      jump\t// out\n        /* \"@openzeppelin/contracts/access/Ownable.sol\":1796:1958  function _checkOwner() internal view virtual {... */\n    tag_336:\n        /* \"@openzeppelin/contracts/access/Ownable.sol\":1710:1716  _owner */\n      and(sub(shl(0xa0, 0x01), 0x01), sload(0x01))\n        /* \"@openzeppelin/contracts/utils/Context.sol\":735:745  msg.sender */\n      caller\n        /* \"@openzeppelin/contracts/access/Ownable.sol\":1855:1878  owner() != _msgSender() */\n      eq\n        /* \"@openzeppelin/contracts/access/Ownable.sol\":1851:1952  if (owner() != _msgSender()) {... */\n      tag_354\n      jumpi\n        /* \"@openzeppelin/contracts/access/Ownable.sol\":1901:1941  OwnableUnauthorizedAccount(_msgSender()) */\n      mload(0x40)\n      shl(0xe0, 0x118cdaa7)\n      dup2\n      mstore\n        /* \"@openzeppelin/contracts/utils/Context.sol\":735:745  msg.sender */\n      caller\n        /* \"@openzeppelin/contracts/access/Ownable.sol\":1901:1941  OwnableUnauthorizedAccount(_msgSender()) */\n      0x04\n      dup3\n      add\n        /* \"#utility.yul\":1786:1837   */\n      mstore\n        /* \"#utility.yul\":1759:1777   */\n      0x24\n      add\n        /* \"@openzeppelin/contracts/access/Ownable.sol\":1901:1941  OwnableUnauthorizedAccount(_msgSender()) */\n      tag_50\n        /* \"#utility.yul\":1640:1843   */\n      jump\n        /* \"ICO/IcoOptimized.sol\":10859:11676  function _transferFundsToOwner() private {... */\n    tag_353:\n        /* \"ICO/IcoOptimized.sol\":10934:10955  address(this).balance */\n      selfbalance\n        /* \"ICO/IcoOptimized.sol\":10969:10986  nativeBalance > 0 */\n      dup1\n      iszero\n        /* \"ICO/IcoOptimized.sol\":10965:11128  if (nativeBalance > 0) {... */\n      tag_652\n      jumpi\n        /* \"ICO/IcoOptimized.sol\":11003:11015  bool success */\n      0x00\n        /* \"ICO/IcoOptimized.sol\":11029:11036  owner() */\n      tag_653\n        /* \"@openzeppelin/contracts/access/Ownable.sol\":1710:1716  _owner */\n      and(sub(shl(0xa0, 0x01), 0x01), sload(0x01))\n      swap1\n        /* \"@openzeppelin/contracts/access/Ownable.sol\":1638:1723  function owner() public view virtual returns (address) {... */\n      jump\n        /* \"ICO/IcoOptimized.sol\":11029:11036  owner() */\n    tag_653:\n      sub(shl(0xa0, 0x01), 0x01)\n        /* \"ICO/IcoOptimized.sol\":11021:11042  payable(owner()).call */\n      and\n        /* \"ICO/IcoOptimized.sol\":11050:11063  nativeBalance */\n      dup3\n        /* \"ICO/IcoOptimized.sol\":11021:11068  payable(owner()).call{value: nativeBalance}(\"\") */\n      mload(0x40)\n      0x00\n      mload(0x40)\n      dup1\n      dup4\n      sub\n      dup2\n      dup6\n      dup8\n      gas\n      call\n      swap3\n      pop\n      pop\n      pop\n      returndatasize\n      dup1\n      0x00\n      dup2\n      eq\n      tag_657\n      jumpi\n      mload(0x40)\n      swap2\n      pop\n      and(add(returndatasize, 0x3f), not(0x1f))\n      dup3\n      add\n      0x40\n      mstore\n      returndatasize\n      dup3\n      mstore\n      returndatasize\n      0x00\n      0x20\n      dup5\n      add\n      returndatacopy\n      jump(tag_656)\n    tag_657:\n      0x60\n      swap2\n      pop\n    tag_656:\n      pop\n        /* \"ICO/IcoOptimized.sol\":11002:11068  (bool success, ) = payable(owner()).call{value: nativeBalance}(\"\") */\n      pop\n      swap1\n      pop\n        /* \"ICO/IcoOptimized.sol\":11090:11097  success */\n      dup1\n        /* \"ICO/IcoOptimized.sol\":11082:11117  require(success, \"Transfer failed\") */\n      tag_658\n      jumpi\n      mload(0x40)\n      shl(0xe5, 0x461bcd)\n      dup2\n      mstore\n        /* \"#utility.yul\":21870:21872   */\n      0x20\n        /* \"ICO/IcoOptimized.sol\":11082:11117  require(success, \"Transfer failed\") */\n      0x04\n      dup3\n      add\n        /* \"#utility.yul\":21852:21873   */\n      mstore\n        /* \"#utility.yul\":21909:21911   */\n      0x0f\n        /* \"#utility.yul\":21889:21907   */\n      0x24\n      dup3\n      add\n        /* \"#utility.yul\":21882:21912   */\n      mstore\n      shl(0x8a, 0x151c985b9cd9995c8819985a5b1959)\n        /* \"#utility.yul\":21928:21946   */\n      0x44\n      dup3\n      add\n        /* \"#utility.yul\":21921:21966   */\n      mstore\n        /* \"#utility.yul\":21983:22001   */\n      0x64\n      add\n        /* \"ICO/IcoOptimized.sol\":11082:11117  require(success, \"Transfer failed\") */\n      tag_50\n        /* \"#utility.yul\":21668:22007   */\n      jump\n        /* \"ICO/IcoOptimized.sol\":11082:11117  require(success, \"Transfer failed\") */\n    tag_658:\n        /* \"ICO/IcoOptimized.sol\":10988:11128  {... */\n      pop\n        /* \"ICO/IcoOptimized.sol\":10965:11128  if (nativeBalance > 0) {... */\n    tag_652:\n        /* \"ICO/IcoOptimized.sol\":11216:11220  usdt */\n      sload(0x0d)\n        /* \"ICO/IcoOptimized.sol\":11209:11246  IERC20(usdt).balanceOf(address(this)) */\n      mload(0x40)\n      shl(0xe0, 0x70a08231)\n      dup2\n      mstore\n        /* \"ICO/IcoOptimized.sol\":11240:11244  this */\n      address\n        /* \"ICO/IcoOptimized.sol\":11209:11246  IERC20(usdt).balanceOf(address(this)) */\n      0x04\n      dup3\n      add\n        /* \"#utility.yul\":1786:1837   */\n      mstore\n        /* \"ICO/IcoOptimized.sol\":11187:11206  uint256 usdtBalance */\n      0x00\n      swap2\n      sub(shl(0xa0, 0x01), 0x01)\n        /* \"ICO/IcoOptimized.sol\":11216:11220  usdt */\n      and\n      swap1\n        /* \"ICO/IcoOptimized.sol\":11209:11231  IERC20(usdt).balanceOf */\n      0x70a08231\n      swap1\n        /* \"#utility.yul\":1759:1777   */\n      0x24\n      add\n        /* \"ICO/IcoOptimized.sol\":11209:11246  IERC20(usdt).balanceOf(address(this)) */\n      0x20\n      mload(0x40)\n      dup1\n      dup4\n      sub\n      dup2\n      dup7\n      gas\n      staticcall\n      iszero\n      dup1\n      iszero\n      tag_663\n      jumpi\n      returndatasize\n      0x00\n      dup1\n      returndatacopy\n      revert(0x00, returndatasize)\n    tag_663:\n      pop\n      pop\n      pop\n      pop\n      mload(0x40)\n      returndatasize\n      not(0x1f)\n      0x1f\n      dup3\n      add\n      and\n      dup3\n      add\n      dup1\n      0x40\n      mstore\n      pop\n      dup2\n      add\n      swap1\n      tag_664\n      swap2\n      swap1\n      tag_511\n      jump\t// in\n    tag_664:\n        /* \"ICO/IcoOptimized.sol\":11187:11246  uint256 usdtBalance = IERC20(usdt).balanceOf(address(this)) */\n      swap1\n      pop\n        /* \"ICO/IcoOptimized.sol\":11260:11275  usdtBalance > 0 */\n      dup1\n      iszero\n        /* \"ICO/IcoOptimized.sol\":11256:11424  if (usdtBalance > 0) {... */\n      tag_671\n      jumpi\n        /* \"ICO/IcoOptimized.sol\":11323:11327  usdt */\n      and(sub(shl(0xa0, 0x01), 0x01), sload(0x0d))\n        /* \"ICO/IcoOptimized.sol\":11316:11337  IERC20(usdt).transfer */\n      0xa9059cbb\n        /* \"ICO/IcoOptimized.sol\":11338:11345  owner() */\n      tag_666\n        /* \"@openzeppelin/contracts/access/Ownable.sol\":1710:1716  _owner */\n      and(sub(shl(0xa0, 0x01), 0x01), sload(0x01))\n      swap1\n        /* \"@openzeppelin/contracts/access/Ownable.sol\":1638:1723  function owner() public view virtual returns (address) {... */\n      jump\n        /* \"ICO/IcoOptimized.sol\":11338:11345  owner() */\n    tag_666:\n        /* \"ICO/IcoOptimized.sol\":11316:11359  IERC20(usdt).transfer(owner(), usdtBalance) */\n      mload(0x40)\n      not(sub(shl(0xe0, 0x01), 0x01))\n      0xe0\n      dup5\n      swap1\n      shl\n      and\n      dup2\n      mstore\n      sub(shl(0xa0, 0x01), 0x01)\n        /* \"#utility.yul\":14951:14983   */\n      swap1\n      swap2\n      and\n        /* \"ICO/IcoOptimized.sol\":11316:11359  IERC20(usdt).transfer(owner(), usdtBalance) */\n      0x04\n      dup3\n      add\n        /* \"#utility.yul\":14933:14984   */\n      mstore\n        /* \"#utility.yul\":15000:15018   */\n      0x24\n      dup2\n      add\n        /* \"#utility.yul\":14993:15027   */\n      dup5\n      swap1\n      mstore\n        /* \"#utility.yul\":14906:14924   */\n      0x44\n      add\n        /* \"ICO/IcoOptimized.sol\":11316:11359  IERC20(usdt).transfer(owner(), usdtBalance) */\n      0x20\n      mload(0x40)\n      dup1\n      dup4\n      sub\n      dup2\n      0x00\n      dup8\n      gas\n      call\n      iszero\n      dup1\n      iszero\n      tag_669\n      jumpi\n      returndatasize\n      0x00\n      dup1\n      returndatacopy\n      revert(0x00, returndatasize)\n    tag_669:\n      pop\n      pop\n      pop\n      pop\n      mload(0x40)\n      returndatasize\n      not(0x1f)\n      0x1f\n      dup3\n      add\n      and\n      dup3\n      add\n      dup1\n      0x40\n      mstore\n      pop\n      dup2\n      add\n      swap1\n      tag_670\n      swap2\n      swap1\n      tag_474\n      jump\t// in\n    tag_670:\n        /* \"ICO/IcoOptimized.sol\":11291:11413  require(... */\n      tag_671\n      jumpi\n      mload(0x40)\n      shl(0xe5, 0x461bcd)\n      dup2\n      mstore\n        /* \"#utility.yul\":22214:22216   */\n      0x20\n        /* \"ICO/IcoOptimized.sol\":11291:11413  require(... */\n      0x04\n      dup3\n      add\n        /* \"#utility.yul\":22196:22217   */\n      mstore\n        /* \"#utility.yul\":22253:22255   */\n      0x14\n        /* \"#utility.yul\":22233:22251   */\n      0x24\n      dup3\n      add\n        /* \"#utility.yul\":22226:22256   */\n      mstore\n      shl(0x62, 0x1554d115081d1c985b9cd9995c8819985a5b1959)\n        /* \"#utility.yul\":22272:22290   */\n      0x44\n      dup3\n      add\n        /* \"#utility.yul\":22265:22315   */\n      mstore\n        /* \"#utility.yul\":22332:22350   */\n      0x64\n      add\n        /* \"ICO/IcoOptimized.sol\":11291:11413  require(... */\n      tag_50\n        /* \"#utility.yul\":22012:22356   */\n      jump\n        /* \"ICO/IcoOptimized.sol\":11291:11413  require(... */\n    tag_671:\n        /* \"ICO/IcoOptimized.sol\":11462:11466  usdc */\n      sload(0x0e)\n        /* \"ICO/IcoOptimized.sol\":11455:11492  IERC20(usdc).balanceOf(address(this)) */\n      mload(0x40)\n      shl(0xe0, 0x70a08231)\n      dup2\n      mstore\n        /* \"ICO/IcoOptimized.sol\":11486:11490  this */\n      address\n        /* \"ICO/IcoOptimized.sol\":11455:11492  IERC20(usdc).balanceOf(address(this)) */\n      0x04\n      dup3\n      add\n        /* \"#utility.yul\":1786:1837   */\n      mstore\n        /* \"ICO/IcoOptimized.sol\":11433:11452  uint256 usdcBalance */\n      0x00\n      swap2\n      sub(shl(0xa0, 0x01), 0x01)\n        /* \"ICO/IcoOptimized.sol\":11462:11466  usdc */\n      and\n      swap1\n        /* \"ICO/IcoOptimized.sol\":11455:11477  IERC20(usdc).balanceOf */\n      0x70a08231\n      swap1\n        /* \"#utility.yul\":1759:1777   */\n      0x24\n      add\n        /* \"ICO/IcoOptimized.sol\":11455:11492  IERC20(usdc).balanceOf(address(this)) */\n      0x20\n      mload(0x40)\n      dup1\n      dup4\n      sub\n      dup2\n      dup7\n      gas\n      staticcall\n      iszero\n      dup1\n      iszero\n      tag_676\n      jumpi\n      returndatasize\n      0x00\n      dup1\n      returndatacopy\n      revert(0x00, returndatasize)\n    tag_676:\n      pop\n      pop\n      pop\n      pop\n      mload(0x40)\n      returndatasize\n      not(0x1f)\n      0x1f\n      dup3\n      add\n      and\n      dup3\n      add\n      dup1\n      0x40\n      mstore\n      pop\n      dup2\n      add\n      swap1\n      tag_677\n      swap2\n      swap1\n      tag_511\n      jump\t// in\n    tag_677:\n        /* \"ICO/IcoOptimized.sol\":11433:11492  uint256 usdcBalance = IERC20(usdc).balanceOf(address(this)) */\n      swap1\n      pop\n        /* \"ICO/IcoOptimized.sol\":11506:11521  usdcBalance > 0 */\n      dup1\n      iszero\n        /* \"ICO/IcoOptimized.sol\":11502:11670  if (usdcBalance > 0) {... */\n      tag_684\n      jumpi\n        /* \"ICO/IcoOptimized.sol\":11569:11573  usdc */\n      and(sub(shl(0xa0, 0x01), 0x01), sload(0x0e))\n        /* \"ICO/IcoOptimized.sol\":11562:11583  IERC20(usdc).transfer */\n      0xa9059cbb\n        /* \"ICO/IcoOptimized.sol\":11584:11591  owner() */\n      tag_679\n        /* \"@openzeppelin/contracts/access/Ownable.sol\":1710:1716  _owner */\n      and(sub(shl(0xa0, 0x01), 0x01), sload(0x01))\n      swap1\n        /* \"@openzeppelin/contracts/access/Ownable.sol\":1638:1723  function owner() public view virtual returns (address) {... */\n      jump\n        /* \"ICO/IcoOptimized.sol\":11584:11591  owner() */\n    tag_679:\n        /* \"ICO/IcoOptimized.sol\":11562:11605  IERC20(usdc).transfer(owner(), usdcBalance) */\n      mload(0x40)\n      not(sub(shl(0xe0, 0x01), 0x01))\n      0xe0\n      dup5\n      swap1\n      shl\n      and\n      dup2\n      mstore\n      sub(shl(0xa0, 0x01), 0x01)\n        /* \"#utility.yul\":14951:14983   */\n      swap1\n      swap2\n      and\n        /* \"ICO/IcoOptimized.sol\":11562:11605  IERC20(usdc).transfer(owner(), usdcBalance) */\n      0x04\n      dup3\n      add\n        /* \"#utility.yul\":14933:14984   */\n      mstore\n        /* \"#utility.yul\":15000:15018   */\n      0x24\n      dup2\n      add\n        /* \"#utility.yul\":14993:15027   */\n      dup5\n      swap1\n      mstore\n        /* \"#utility.yul\":14906:14924   */\n      0x44\n      add\n        /* \"ICO/IcoOptimized.sol\":11562:11605  IERC20(usdc).transfer(owner(), usdcBalance) */\n      0x20\n      mload(0x40)\n      dup1\n      dup4\n      sub\n      dup2\n      0x00\n      dup8\n      gas\n      call\n      iszero\n      dup1\n      iszero\n      tag_682\n      jumpi\n      returndatasize\n      0x00\n      dup1\n      returndatacopy\n      revert(0x00, returndatasize)\n    tag_682:\n      pop\n      pop\n      pop\n      pop\n      mload(0x40)\n      returndatasize\n      not(0x1f)\n      0x1f\n      dup3\n      add\n      and\n      dup3\n      add\n      dup1\n      0x40\n      mstore\n      pop\n      dup2\n      add\n      swap1\n      tag_683\n      swap2\n      swap1\n      tag_474\n      jump\t// in\n    tag_683:\n        /* \"ICO/IcoOptimized.sol\":11537:11659  require(... */\n      tag_684\n      jumpi\n      mload(0x40)\n      shl(0xe5, 0x461bcd)\n      dup2\n      mstore\n        /* \"#utility.yul\":22563:22565   */\n      0x20\n        /* \"ICO/IcoOptimized.sol\":11537:11659  require(... */\n      0x04\n      dup3\n      add\n        /* \"#utility.yul\":22545:22566   */\n      mstore\n        /* \"#utility.yul\":22602:22604   */\n      0x14\n        /* \"#utility.yul\":22582:22600   */\n      0x24\n      dup3\n      add\n        /* \"#utility.yul\":22575:22605   */\n      mstore\n      shl(0x62, 0x1554d110c81d1c985b9cd9995c8819985a5b1959)\n        /* \"#utility.yul\":22621:22639   */\n      0x44\n      dup3\n      add\n        /* \"#utility.yul\":22614:22664   */\n      mstore\n        /* \"#utility.yul\":22681:22699   */\n      0x64\n      add\n        /* \"ICO/IcoOptimized.sol\":11537:11659  require(... */\n      tag_50\n        /* \"#utility.yul\":22361:22705   */\n      jump\n        /* \"ICO/IcoOptimized.sol\":11537:11659  require(... */\n    tag_684:\n        /* \"ICO/IcoOptimized.sol\":10900:11676  {... */\n      pop\n      pop\n      pop\n        /* \"ICO/IcoOptimized.sol\":10859:11676  function _transferFundsToOwner() private {... */\n      jump\t// out\n        /* \"@openzeppelin/contracts/access/Ownable.sol\":2912:3099  function _transferOwnership(address newOwner) internal virtual {... */\n    tag_392:\n        /* \"@openzeppelin/contracts/access/Ownable.sol\":3004:3010  _owner */\n      0x01\n      dup1\n      sload\n      sub(shl(0xa0, 0x01), 0x01)\n        /* \"@openzeppelin/contracts/access/Ownable.sol\":3020:3037  _owner = newOwner */\n      dup4\n      dup2\n      and\n      not(sub(shl(0xa0, 0x01), 0x01))\n      dup4\n      and\n      dup2\n      or\n      swap1\n      swap4\n      sstore\n        /* \"@openzeppelin/contracts/access/Ownable.sol\":3052:3092  OwnershipTransferred(oldOwner, newOwner) */\n      mload(0x40)\n        /* \"@openzeppelin/contracts/access/Ownable.sol\":3004:3010  _owner */\n      swap2\n      and\n      swap2\n        /* \"@openzeppelin/contracts/access/Ownable.sol\":3020:3037  _owner = newOwner */\n      swap1\n        /* \"@openzeppelin/contracts/access/Ownable.sol\":3004:3010  _owner */\n      dup3\n      swap1\n        /* \"@openzeppelin/contracts/access/Ownable.sol\":3052:3092  OwnershipTransferred(oldOwner, newOwner) */\n      0x8be0079c531659141344cd1fd0a4f28419497f9722a3daafe3b4186f6b6457e0\n      swap1\n        /* \"@openzeppelin/contracts/access/Ownable.sol\":2985:3001  address oldOwner */\n      0x00\n      swap1\n        /* \"@openzeppelin/contracts/access/Ownable.sol\":3052:3092  OwnershipTransferred(oldOwner, newOwner) */\n      log3\n        /* \"@openzeppelin/contracts/access/Ownable.sol\":2975:3099  {... */\n      pop\n        /* \"@openzeppelin/contracts/access/Ownable.sol\":2912:3099  function _transferOwnership(address newOwner) internal virtual {... */\n      pop\n      jump\t// out\n        /* \"#utility.yul\":375:529   */\n    tag_691:\n        /* \"#utility.yul\":454:474   */\n      dup1\n      calldataload\n        /* \"#utility.yul\":503:504   */\n      0x03\n        /* \"#utility.yul\":493:505   */\n      dup2\n      lt\n        /* \"#utility.yul\":483:523   */\n      tag_292\n      jumpi\n        /* \"#utility.yul\":519:520   */\n      0x00\n        /* \"#utility.yul\":516:517   */\n      dup1\n        /* \"#utility.yul\":509:521   */\n      revert\n        /* \"#utility.yul\":534:862   */\n    tag_55:\n        /* \"#utility.yul\":619:625   */\n      0x00\n        /* \"#utility.yul\":627:633   */\n      dup1\n        /* \"#utility.yul\":680:682   */\n      0x40\n        /* \"#utility.yul\":668:677   */\n      dup4\n        /* \"#utility.yul\":659:666   */\n      dup6\n        /* \"#utility.yul\":655:678   */\n      sub\n        /* \"#utility.yul\":651:683   */\n      slt\n        /* \"#utility.yul\":648:700   */\n      iszero\n      tag_703\n      jumpi\n        /* \"#utility.yul\":696:697   */\n      0x00\n        /* \"#utility.yul\":693:694   */\n      dup1\n        /* \"#utility.yul\":686:698   */\n      revert\n        /* \"#utility.yul\":648:700   */\n    tag_703:\n        /* \"#utility.yul\":719:759   */\n      tag_704\n        /* \"#utility.yul\":749:758   */\n      dup4\n        /* \"#utility.yul\":719:759   */\n      tag_691\n      jump\t// in\n    tag_704:\n        /* \"#utility.yul\":709:759   */\n      swap5\n        /* \"#utility.yul\":828:830   */\n      0x20\n        /* \"#utility.yul\":813:831   */\n      swap4\n      swap1\n      swap4\n      add\n        /* \"#utility.yul\":800:832   */\n      calldataload\n      swap4\n      pop\n      pop\n      pop\n        /* \"#utility.yul\":534:862   */\n      jump\t// out\n        /* \"#utility.yul\":1241:1455   */\n    tag_67:\n        /* \"#utility.yul\":1317:1323   */\n      0x00\n        /* \"#utility.yul\":1370:1372   */\n      0x20\n        /* \"#utility.yul\":1358:1367   */\n      dup3\n        /* \"#utility.yul\":1349:1356   */\n      dup5\n        /* \"#utility.yul\":1345:1368   */\n      sub\n        /* \"#utility.yul\":1341:1373   */\n      slt\n        /* \"#utility.yul\":1338:1390   */\n      iszero\n      tag_708\n      jumpi\n        /* \"#utility.yul\":1386:1387   */\n      0x00\n        /* \"#utility.yul\":1383:1384   */\n      dup1\n        /* \"#utility.yul\":1376:1388   */\n      revert\n        /* \"#utility.yul\":1338:1390   */\n    tag_708:\n        /* \"#utility.yul\":1409:1449   */\n      tag_709\n        /* \"#utility.yul\":1439:1448   */\n      dup3\n        /* \"#utility.yul\":1409:1449   */\n      tag_691\n      jump\t// in\n    tag_709:\n        /* \"#utility.yul\":1399:1449   */\n      swap4\n        /* \"#utility.yul\":1241:1455   */\n      swap3\n      pop\n      pop\n      pop\n      jump\t// out\n        /* \"#utility.yul\":1848:2074   */\n    tag_99:\n        /* \"#utility.yul\":1907:1913   */\n      0x00\n        /* \"#utility.yul\":1960:1962   */\n      0x20\n        /* \"#utility.yul\":1948:1957   */\n      dup3\n        /* \"#utility.yul\":1939:1946   */\n      dup5\n        /* \"#utility.yul\":1935:1958   */\n      sub\n        /* \"#utility.yul\":1931:1963   */\n      slt\n        /* \"#utility.yul\":1928:1980   */\n      iszero\n      tag_713\n      jumpi\n        /* \"#utility.yul\":1976:1977   */\n      0x00\n        /* \"#utility.yul\":1973:1974   */\n      dup1\n        /* \"#utility.yul\":1966:1978   */\n      revert\n        /* \"#utility.yul\":1928:1980   */\n    tag_713:\n      pop\n        /* \"#utility.yul\":2021:2044   */\n      calldataload\n      swap2\n        /* \"#utility.yul\":1848:2074   */\n      swap1\n      pop\n      jump\t// out\n        /* \"#utility.yul\":2315:2781   */\n    tag_121:\n        /* \"#utility.yul\":2392:2398   */\n      0x00\n        /* \"#utility.yul\":2400:2406   */\n      dup1\n        /* \"#utility.yul\":2408:2414   */\n      0x00\n        /* \"#utility.yul\":2461:2463   */\n      0x60\n        /* \"#utility.yul\":2449:2458   */\n      dup5\n        /* \"#utility.yul\":2440:2447   */\n      dup7\n        /* \"#utility.yul\":2436:2459   */\n      sub\n        /* \"#utility.yul\":2432:2464   */\n      slt\n        /* \"#utility.yul\":2429:2481   */\n      iszero\n      tag_716\n      jumpi\n        /* \"#utility.yul\":2477:2478   */\n      0x00\n        /* \"#utility.yul\":2474:2475   */\n      dup1\n        /* \"#utility.yul\":2467:2479   */\n      revert\n        /* \"#utility.yul\":2429:2481   */\n    tag_716:\n      pop\n      pop\n        /* \"#utility.yul\":2522:2545   */\n      dup2\n      calldataload\n      swap4\n        /* \"#utility.yul\":2642:2644   */\n      0x20\n        /* \"#utility.yul\":2627:2645   */\n      dup4\n      add\n        /* \"#utility.yul\":2614:2646   */\n      calldataload\n      swap4\n      pop\n        /* \"#utility.yul\":2745:2747   */\n      0x40\n        /* \"#utility.yul\":2730:2748   */\n      swap1\n      swap3\n      add\n        /* \"#utility.yul\":2717:2749   */\n      calldataload\n      swap2\n        /* \"#utility.yul\":2315:2781   */\n      swap1\n      pop\n      jump\t// out\n        /* \"#utility.yul\":3517:3690   */\n    tag_692:\n        /* \"#utility.yul\":3585:3605   */\n      dup1\n      calldataload\n      sub(shl(0xa0, 0x01), 0x01)\n        /* \"#utility.yul\":3634:3665   */\n      dup2\n      and\n        /* \"#utility.yul\":3624:3666   */\n      dup2\n      eq\n        /* \"#utility.yul\":3614:3684   */\n      tag_292\n      jumpi\n        /* \"#utility.yul\":3680:3681   */\n      0x00\n        /* \"#utility.yul\":3677:3678   */\n      dup1\n        /* \"#utility.yul\":3670:3682   */\n      revert\n        /* \"#utility.yul\":3695:3881   */\n    tag_185:\n        /* \"#utility.yul\":3754:3760   */\n      0x00\n        /* \"#utility.yul\":3807:3809   */\n      0x20\n        /* \"#utility.yul\":3795:3804   */\n      dup3\n        /* \"#utility.yul\":3786:3793   */\n      dup5\n        /* \"#utility.yul\":3782:3805   */\n      sub\n        /* \"#utility.yul\":3778:3810   */\n      slt\n        /* \"#utility.yul\":3775:3827   */\n      iszero\n      tag_722\n      jumpi\n        /* \"#utility.yul\":3823:3824   */\n      0x00\n        /* \"#utility.yul\":3820:3821   */\n      dup1\n        /* \"#utility.yul\":3813:3825   */\n      revert\n        /* \"#utility.yul\":3775:3827   */\n    tag_722:\n        /* \"#utility.yul\":3846:3875   */\n      tag_709\n        /* \"#utility.yul\":3865:3874   */\n      dup3\n        /* \"#utility.yul\":3846:3875   */\n      tag_692\n      jump\t// in\n        /* \"#utility.yul\":3886:4013   */\n    tag_232:\n        /* \"#utility.yul\":3947:3957   */\n      0x4e487b71\n        /* \"#utility.yul\":3942:3945   */\n      0xe0\n        /* \"#utility.yul\":3938:3958   */\n      shl\n        /* \"#utility.yul\":3935:3936   */\n      0x00\n        /* \"#utility.yul\":3928:3959   */\n      mstore\n        /* \"#utility.yul\":3978:3982   */\n      0x21\n        /* \"#utility.yul\":3975:3976   */\n      0x04\n        /* \"#utility.yul\":3968:3983   */\n      mstore\n        /* \"#utility.yul\":4002:4006   */\n      0x24\n        /* \"#utility.yul\":3999:4000   */\n      0x00\n        /* \"#utility.yul\":3992:4007   */\n      revert\n        /* \"#utility.yul\":4018:4259   */\n    tag_693:\n        /* \"#utility.yul\":4103:4104   */\n      0x03\n        /* \"#utility.yul\":4096:4101   */\n      dup2\n        /* \"#utility.yul\":4093:4105   */\n      lt\n        /* \"#utility.yul\":4083:4226   */\n      tag_726\n      jumpi\n        /* \"#utility.yul\":4148:4158   */\n      0x4e487b71\n        /* \"#utility.yul\":4143:4146   */\n      0xe0\n        /* \"#utility.yul\":4139:4159   */\n      shl\n        /* \"#utility.yul\":4136:4137   */\n      0x00\n        /* \"#utility.yul\":4129:4160   */\n      mstore\n        /* \"#utility.yul\":4183:4187   */\n      0x21\n        /* \"#utility.yul\":4180:4181   */\n      0x04\n        /* \"#utility.yul\":4173:4188   */\n      mstore\n        /* \"#utility.yul\":4211:4215   */\n      0x24\n        /* \"#utility.yul\":4208:4209   */\n      0x00\n        /* \"#utility.yul\":4201:4216   */\n      revert\n        /* \"#utility.yul\":4083:4226   */\n    tag_726:\n        /* \"#utility.yul\":4235:4253   */\n      swap1\n      mstore\n        /* \"#utility.yul\":4018:4259   */\n      jump\t// out\n        /* \"#utility.yul\":4264:4479   */\n    tag_201:\n        /* \"#utility.yul\":4413:4415   */\n      0x20\n        /* \"#utility.yul\":4398:4416   */\n      dup2\n      add\n        /* \"#utility.yul\":4425:4473   */\n      tag_222\n        /* \"#utility.yul\":4402:4411   */\n      dup3\n        /* \"#utility.yul\":4455:4461   */\n      dup5\n        /* \"#utility.yul\":4425:4473   */\n      tag_693\n      jump\t// in\n        /* \"#utility.yul\":4484:4772   */\n    tag_210:\n        /* \"#utility.yul\":4569:4575   */\n      0x00\n        /* \"#utility.yul\":4577:4583   */\n      dup1\n        /* \"#utility.yul\":4630:4632   */\n      0x40\n        /* \"#utility.yul\":4618:4627   */\n      dup4\n        /* \"#utility.yul\":4609:4616   */\n      dup6\n        /* \"#utility.yul\":4605:4628   */\n      sub\n        /* \"#utility.yul\":4601:4633   */\n      slt\n        /* \"#utility.yul\":4598:4650   */\n      iszero\n      tag_730\n      jumpi\n        /* \"#utility.yul\":4646:4647   */\n      0x00\n        /* \"#utility.yul\":4643:4644   */\n      dup1\n        /* \"#utility.yul\":4636:4648   */\n      revert\n        /* \"#utility.yul\":4598:4650   */\n    tag_730:\n        /* \"#utility.yul\":4669:4698   */\n      tag_731\n        /* \"#utility.yul\":4688:4697   */\n      dup4\n        /* \"#utility.yul\":4669:4698   */\n      tag_692\n      jump\t// in\n    tag_731:\n        /* \"#utility.yul\":4659:4698   */\n      swap2\n      pop\n        /* \"#utility.yul\":4717:4766   */\n      tag_732\n        /* \"#utility.yul\":4762:4764   */\n      0x20\n        /* \"#utility.yul\":4751:4760   */\n      dup5\n        /* \"#utility.yul\":4747:4765   */\n      add\n        /* \"#utility.yul\":4717:4766   */\n      tag_691\n      jump\t// in\n    tag_732:\n        /* \"#utility.yul\":4707:4766   */\n      swap1\n      pop\n        /* \"#utility.yul\":4484:4772   */\n      swap3\n      pop\n      swap3\n      swap1\n      pop\n      jump\t// out\n        /* \"#utility.yul\":4999:5126   */\n    tag_694:\n        /* \"#utility.yul\":5060:5070   */\n      0x4e487b71\n        /* \"#utility.yul\":5055:5058   */\n      0xe0\n        /* \"#utility.yul\":5051:5071   */\n      shl\n        /* \"#utility.yul\":5048:5049   */\n      0x00\n        /* \"#utility.yul\":5041:5072   */\n      mstore\n        /* \"#utility.yul\":5091:5095   */\n      0x11\n        /* \"#utility.yul\":5088:5089   */\n      0x04\n        /* \"#utility.yul\":5081:5096   */\n      mstore\n        /* \"#utility.yul\":5115:5119   */\n      0x24\n        /* \"#utility.yul\":5112:5113   */\n      0x00\n        /* \"#utility.yul\":5105:5120   */\n      revert\n        /* \"#utility.yul\":5131:5368   */\n    tag_225:\n        /* \"#utility.yul\":5203:5212   */\n      dup1\n      dup3\n      mul\n        /* \"#utility.yul\":5170:5177   */\n      0x00\n        /* \"#utility.yul\":5228:5237   */\n      dup3\n      slt\n      shl(0xff, 0x01)\n        /* \"#utility.yul\":5239:5257   */\n      dup5\n      eq\n        /* \"#utility.yul\":5224:5258   */\n      and\n        /* \"#utility.yul\":5221:5281   */\n      iszero\n      tag_737\n      jumpi\n        /* \"#utility.yul\":5261:5279   */\n      tag_737\n      tag_694\n      jump\t// in\n    tag_737:\n        /* \"#utility.yul\":5334:5335   */\n      dup2\n        /* \"#utility.yul\":5325:5332   */\n      dup2\n        /* \"#utility.yul\":5320:5336   */\n      sdiv\n        /* \"#utility.yul\":5317:5318   */\n      dup4\n        /* \"#utility.yul\":5314:5337   */\n      eq\n        /* \"#utility.yul\":5310:5311   */\n      dup3\n        /* \"#utility.yul\":5303:5312   */\n      iszero\n        /* \"#utility.yul\":5300:5338   */\n      or\n        /* \"#utility.yul\":5290:5362   */\n      tag_222\n      jumpi\n        /* \"#utility.yul\":5342:5360   */\n      tag_222\n      tag_694\n      jump\t// in\n        /* \"#utility.yul\":5720:5888   */\n    tag_237:\n        /* \"#utility.yul\":5793:5802   */\n      dup1\n      dup3\n      mul\n        /* \"#utility.yul\":5824:5833   */\n      dup2\n      iszero\n        /* \"#utility.yul\":5841:5856   */\n      dup3\n      dup3\n      div\n        /* \"#utility.yul\":5835:5857   */\n      dup5\n      eq\n        /* \"#utility.yul\":5821:5858   */\n      or\n        /* \"#utility.yul\":5811:5882   */\n      tag_222\n      jumpi\n        /* \"#utility.yul\":5862:5880   */\n      tag_222\n      tag_694\n      jump\t// in\n        /* \"#utility.yul\":5893:6110   */\n    tag_239:\n        /* \"#utility.yul\":5933:5934   */\n      0x00\n        /* \"#utility.yul\":5959:5960   */\n      dup3\n        /* \"#utility.yul\":5949:6081   */\n      tag_745\n      jumpi\n        /* \"#utility.yul\":6003:6013   */\n      0x4e487b71\n        /* \"#utility.yul\":5998:6001   */\n      0xe0\n        /* \"#utility.yul\":5994:6014   */\n      shl\n        /* \"#utility.yul\":5991:5992   */\n      0x00\n        /* \"#utility.yul\":5984:6015   */\n      mstore\n        /* \"#utility.yul\":6038:6042   */\n      0x12\n        /* \"#utility.yul\":6035:6036   */\n      0x04\n        /* \"#utility.yul\":6028:6043   */\n      mstore\n        /* \"#utility.yul\":6066:6070   */\n      0x24\n        /* \"#utility.yul\":6063:6064   */\n      0x00\n        /* \"#utility.yul\":6056:6071   */\n      revert\n        /* \"#utility.yul\":5949:6081   */\n    tag_745:\n      pop\n        /* \"#utility.yul\":6095:6104   */\n      div\n      swap1\n        /* \"#utility.yul\":5893:6110   */\n      jump\t// out\n        /* \"#utility.yul\":6115:6243   */\n    tag_252:\n        /* \"#utility.yul\":6182:6191   */\n      dup2\n      dup2\n      sub\n        /* \"#utility.yul\":6203:6214   */\n      dup2\n      dup2\n      gt\n        /* \"#utility.yul\":6200:6237   */\n      iszero\n      tag_222\n      jumpi\n        /* \"#utility.yul\":6217:6235   */\n      tag_222\n      tag_694\n      jump\t// in\n        /* \"#utility.yul\":6248:6623   */\n    tag_695:\n        /* \"#utility.yul\":6336:6337   */\n      0x01\n        /* \"#utility.yul\":6354:6359   */\n      dup2\n        /* \"#utility.yul\":6368:6617   */\n    tag_750:\n        /* \"#utility.yul\":6389:6390   */\n      0x01\n        /* \"#utility.yul\":6379:6387   */\n      dup5\n        /* \"#utility.yul\":6376:6391   */\n      gt\n        /* \"#utility.yul\":6368:6617   */\n      iszero\n      tag_752\n      jumpi\n        /* \"#utility.yul\":6439:6443   */\n      dup1\n        /* \"#utility.yul\":6434:6437   */\n      dup6\n        /* \"#utility.yul\":6430:6444   */\n      div\n        /* \"#utility.yul\":6424:6428   */\n      dup2\n        /* \"#utility.yul\":6421:6445   */\n      gt\n        /* \"#utility.yul\":6418:6468   */\n      iszero\n      tag_754\n      jumpi\n        /* \"#utility.yul\":6448:6466   */\n      tag_754\n      tag_694\n      jump\t// in\n    tag_754:\n        /* \"#utility.yul\":6498:6499   */\n      0x01\n        /* \"#utility.yul\":6488:6496   */\n      dup5\n        /* \"#utility.yul\":6484:6500   */\n      and\n        /* \"#utility.yul\":6481:6530   */\n      iszero\n      tag_755\n      jumpi\n        /* \"#utility.yul\":6512:6528   */\n      swap1\n      dup2\n      mul\n      swap1\n        /* \"#utility.yul\":6481:6530   */\n    tag_755:\n        /* \"#utility.yul\":6595:6596   */\n      0x01\n        /* \"#utility.yul\":6591:6607   */\n      swap4\n      swap1\n      swap4\n      shr\n      swap3\n        /* \"#utility.yul\":6551:6566   */\n      dup1\n      mul\n        /* \"#utility.yul\":6368:6617   */\n      jump(tag_750)\n    tag_752:\n        /* \"#utility.yul\":6248:6623   */\n      swap4\n      pop\n      swap4\n      swap2\n      pop\n      pop\n      jump\t// out\n        /* \"#utility.yul\":6628:7530   */\n    tag_696:\n        /* \"#utility.yul\":6677:6682   */\n      0x00\n        /* \"#utility.yul\":6707:6715   */\n      dup3\n        /* \"#utility.yul\":6697:6777   */\n      tag_757\n      jumpi\n      pop\n        /* \"#utility.yul\":6748:6749   */\n      0x01\n        /* \"#utility.yul\":6762:6767   */\n      jump(tag_222)\n        /* \"#utility.yul\":6697:6777   */\n    tag_757:\n        /* \"#utility.yul\":6796:6800   */\n      dup2\n        /* \"#utility.yul\":6786:6862   */\n      tag_758\n      jumpi\n      pop\n        /* \"#utility.yul\":6833:6834   */\n      0x00\n        /* \"#utility.yul\":6847:6852   */\n      jump(tag_222)\n        /* \"#utility.yul\":6786:6862   */\n    tag_758:\n        /* \"#utility.yul\":6878:6882   */\n      dup2\n        /* \"#utility.yul\":6896:6897   */\n      0x01\n        /* \"#utility.yul\":6891:6950   */\n      dup2\n      eq\n      tag_760\n      jumpi\n        /* \"#utility.yul\":6964:6965   */\n      0x02\n        /* \"#utility.yul\":6959:7133   */\n      dup2\n      eq\n      tag_761\n      jumpi\n        /* \"#utility.yul\":6871:7133   */\n      jump(tag_759)\n        /* \"#utility.yul\":6891:6950   */\n    tag_760:\n        /* \"#utility.yul\":6921:6922   */\n      0x01\n        /* \"#utility.yul\":6912:6922   */\n      swap2\n      pop\n        /* \"#utility.yul\":6935:6940   */\n      pop\n      jump(tag_222)\n        /* \"#utility.yul\":6959:7133   */\n    tag_761:\n        /* \"#utility.yul\":6996:6999   */\n      0xff\n        /* \"#utility.yul\":6986:6994   */\n      dup5\n        /* \"#utility.yul\":6983:7000   */\n      gt\n        /* \"#utility.yul\":6980:7023   */\n      iszero\n      tag_763\n      jumpi\n        /* \"#utility.yul\":7003:7021   */\n      tag_763\n      tag_694\n      jump\t// in\n    tag_763:\n      pop\n      pop\n        /* \"#utility.yul\":7059:7060   */\n      0x01\n        /* \"#utility.yul\":7045:7061   */\n      dup3\n      shl\n        /* \"#utility.yul\":7118:7123   */\n      jump(tag_222)\n        /* \"#utility.yul\":6871:7133   */\n    tag_759:\n      pop\n        /* \"#utility.yul\":7217:7219   */\n      0x20\n        /* \"#utility.yul\":7207:7215   */\n      dup4\n        /* \"#utility.yul\":7204:7220   */\n      lt\n        /* \"#utility.yul\":7198:7201   */\n      0x0133\n        /* \"#utility.yul\":7192:7196   */\n      dup4\n        /* \"#utility.yul\":7189:7202   */\n      lt\n        /* \"#utility.yul\":7185:7221   */\n      and\n        /* \"#utility.yul\":7179:7181   */\n      0x4e\n        /* \"#utility.yul\":7169:7177   */\n      dup5\n        /* \"#utility.yul\":7166:7182   */\n      lt\n        /* \"#utility.yul\":7161:7163   */\n      0x0b\n        /* \"#utility.yul\":7155:7159   */\n      dup5\n        /* \"#utility.yul\":7152:7164   */\n      lt\n        /* \"#utility.yul\":7148:7183   */\n      and\n        /* \"#utility.yul\":7145:7222   */\n      or\n        /* \"#utility.yul\":7142:7345   */\n      iszero\n      tag_764\n      jumpi\n      pop\n        /* \"#utility.yul\":7254:7273   */\n      dup2\n      dup2\n      exp\n        /* \"#utility.yul\":7330:7335   */\n      jump(tag_222)\n        /* \"#utility.yul\":7142:7345   */\n    tag_764:\n        /* \"#utility.yul\":7377:7419   */\n      tag_765\n      not(0x00)\n        /* \"#utility.yul\":7402:7410   */\n      dup5\n        /* \"#utility.yul\":7396:7400   */\n      dup5\n        /* \"#utility.yul\":7377:7419   */\n      tag_695\n      jump\t// in\n    tag_765:\n        /* \"#utility.yul\":7455:7461   */\n      dup1\n        /* \"#utility.yul\":7451:7452   */\n      0x00\n        /* \"#utility.yul\":7447:7453   */\n      not\n        /* \"#utility.yul\":7443:7462   */\n      div\n        /* \"#utility.yul\":7434:7441   */\n      dup3\n        /* \"#utility.yul\":7431:7463   */\n      gt\n        /* \"#utility.yul\":7428:7486   */\n      iszero\n      tag_767\n      jumpi\n        /* \"#utility.yul\":7466:7484   */\n      tag_767\n      tag_694\n      jump\t// in\n    tag_767:\n        /* \"#utility.yul\":7504:7524   */\n      mul\n      swap4\n        /* \"#utility.yul\":6628:7530   */\n      swap3\n      pop\n      pop\n      pop\n      jump\t// out\n        /* \"#utility.yul\":7535:7666   */\n    tag_254:\n        /* \"#utility.yul\":7595:7600   */\n      0x00\n        /* \"#utility.yul\":7624:7660   */\n      tag_709\n        /* \"#utility.yul\":7651:7659   */\n      dup4\n        /* \"#utility.yul\":7645:7649   */\n      dup4\n        /* \"#utility.yul\":7624:7660   */\n      tag_696\n      jump\t// in\n        /* \"#utility.yul\":8026:8205   */\n    tag_697:\n        /* \"#utility.yul\":8104:8117   */\n      dup1\n      mload\n        /* \"#utility.yul\":8157:8179   */\n      0xffffffffffffffffffff\n        /* \"#utility.yul\":8146:8180   */\n      dup2\n      and\n        /* \"#utility.yul\":8136:8181   */\n      dup2\n      eq\n        /* \"#utility.yul\":8126:8199   */\n      tag_292\n      jumpi\n        /* \"#utility.yul\":8195:8196   */\n      0x00\n        /* \"#utility.yul\":8192:8193   */\n      dup1\n        /* \"#utility.yul\":8185:8197   */\n      revert\n        /* \"#utility.yul\":8210:8781   */\n    tag_273:\n        /* \"#utility.yul\":8313:8319   */\n      0x00\n        /* \"#utility.yul\":8321:8327   */\n      dup1\n        /* \"#utility.yul\":8329:8335   */\n      0x00\n        /* \"#utility.yul\":8337:8343   */\n      dup1\n        /* \"#utility.yul\":8345:8351   */\n      0x00\n        /* \"#utility.yul\":8398:8401   */\n      0xa0\n        /* \"#utility.yul\":8386:8395   */\n      dup7\n        /* \"#utility.yul\":8377:8384   */\n      dup9\n        /* \"#utility.yul\":8373:8396   */\n      sub\n        /* \"#utility.yul\":8369:8402   */\n      slt\n        /* \"#utility.yul\":8366:8419   */\n      iszero\n      tag_774\n      jumpi\n        /* \"#utility.yul\":8415:8416   */\n      0x00\n        /* \"#utility.yul\":8412:8413   */\n      dup1\n        /* \"#utility.yul\":8405:8417   */\n      revert\n        /* \"#utility.yul\":8366:8419   */\n    tag_774:\n        /* \"#utility.yul\":8438:8477   */\n      tag_775\n        /* \"#utility.yul\":8467:8476   */\n      dup7\n        /* \"#utility.yul\":8438:8477   */\n      tag_697\n      jump\t// in\n    tag_775:\n        /* \"#utility.yul\":8517:8519   */\n      0x20\n        /* \"#utility.yul\":8502:8520   */\n      dup8\n      add\n        /* \"#utility.yul\":8496:8521   */\n      mload\n        /* \"#utility.yul\":8583:8585   */\n      0x40\n        /* \"#utility.yul\":8568:8586   */\n      dup9\n      add\n        /* \"#utility.yul\":8562:8587   */\n      mload\n        /* \"#utility.yul\":8677:8679   */\n      0x60\n        /* \"#utility.yul\":8662:8680   */\n      dup10\n      add\n        /* \"#utility.yul\":8656:8681   */\n      mload\n        /* \"#utility.yul\":8428:8477   */\n      swap3\n      swap8\n      pop\n        /* \"#utility.yul\":8496:8521   */\n      swap1\n      swap6\n      pop\n        /* \"#utility.yul\":8562:8587   */\n      swap4\n      pop\n        /* \"#utility.yul\":8656:8681   */\n      swap2\n      pop\n        /* \"#utility.yul\":8726:8775   */\n      tag_776\n        /* \"#utility.yul\":8770:8773   */\n      0x80\n        /* \"#utility.yul\":8755:8774   */\n      dup8\n      add\n        /* \"#utility.yul\":8726:8775   */\n      tag_697\n      jump\t// in\n    tag_776:\n        /* \"#utility.yul\":8716:8775   */\n      swap1\n      pop\n        /* \"#utility.yul\":8210:8781   */\n      swap3\n      swap6\n      pop\n      swap3\n      swap6\n      swap1\n      swap4\n      pop\n      jump\t// out\n        /* \"#utility.yul\":9536:9881   */\n    tag_340:\n        /* \"#utility.yul\":9738:9740   */\n      0x20\n        /* \"#utility.yul\":9720:9741   */\n      dup1\n      dup3\n      mstore\n        /* \"#utility.yul\":9777:9779   */\n      0x15\n        /* \"#utility.yul\":9757:9775   */\n      swap1\n      dup3\n      add\n        /* \"#utility.yul\":9750:9780   */\n      mstore\n      shl(0x5a, 0x1250d3c8185b1c9958591e48199a5b985b1a5e9959)\n        /* \"#utility.yul\":9811:9813   */\n      0x40\n        /* \"#utility.yul\":9796:9814   */\n      dup3\n      add\n        /* \"#utility.yul\":9789:9840   */\n      mstore\n        /* \"#utility.yul\":9872:9874   */\n      0x60\n        /* \"#utility.yul\":9857:9875   */\n      add\n      swap1\n        /* \"#utility.yul\":9536:9881   */\n      jump\t// out\n        /* \"#utility.yul\":9886:10216   */\n    tag_344:\n        /* \"#utility.yul\":10088:10090   */\n      0x20\n        /* \"#utility.yul\":10070:10091   */\n      dup1\n      dup3\n      mstore\n        /* \"#utility.yul\":10127:10128   */\n      0x07\n        /* \"#utility.yul\":10107:10125   */\n      swap1\n      dup3\n      add\n        /* \"#utility.yul\":10100:10129   */\n      mstore\n      shl(0xca, 0x199c99595e9959)\n        /* \"#utility.yul\":10160:10162   */\n      0x40\n        /* \"#utility.yul\":10145:10163   */\n      dup3\n      add\n        /* \"#utility.yul\":10138:10175   */\n      mstore\n        /* \"#utility.yul\":10207:10209   */\n      0x60\n        /* \"#utility.yul\":10192:10210   */\n      add\n      swap1\n        /* \"#utility.yul\":9886:10216   */\n      jump\t// out\n        /* \"#utility.yul\":12575:12710   */\n    tag_385:\n        /* \"#utility.yul\":12614:12617   */\n      0x00\n        /* \"#utility.yul\":12635:12652   */\n      0x01\n      dup3\n      add\n        /* \"#utility.yul\":12632:12675   */\n      tag_789\n      jumpi\n        /* \"#utility.yul\":12655:12673   */\n      tag_789\n      tag_694\n      jump\t// in\n    tag_789:\n      pop\n        /* \"#utility.yul\":12702:12703   */\n      0x01\n        /* \"#utility.yul\":12691:12704   */\n      add\n      swap1\n        /* \"#utility.yul\":12575:12710   */\n      jump\t// out\n        /* \"#utility.yul\":14071:14198   */\n    tag_423:\n        /* \"#utility.yul\":14132:14142   */\n      0x4e487b71\n        /* \"#utility.yul\":14127:14130   */\n      0xe0\n        /* \"#utility.yul\":14123:14143   */\n      shl\n        /* \"#utility.yul\":14120:14121   */\n      0x00\n        /* \"#utility.yul\":14113:14144   */\n      mstore\n        /* \"#utility.yul\":14163:14167   */\n      0x32\n        /* \"#utility.yul\":14160:14161   */\n      0x04\n        /* \"#utility.yul\":14153:14168   */\n      mstore\n        /* \"#utility.yul\":14187:14191   */\n      0x24\n        /* \"#utility.yul\":14184:14185   */\n      0x00\n        /* \"#utility.yul\":14177:14192   */\n      revert\n        /* \"#utility.yul\":15038:15315   */\n    tag_474:\n        /* \"#utility.yul\":15105:15111   */\n      0x00\n        /* \"#utility.yul\":15158:15160   */\n      0x20\n        /* \"#utility.yul\":15146:15155   */\n      dup3\n        /* \"#utility.yul\":15137:15144   */\n      dup5\n        /* \"#utility.yul\":15133:15156   */\n      sub\n        /* \"#utility.yul\":15129:15161   */\n      slt\n        /* \"#utility.yul\":15126:15178   */\n      iszero\n      tag_799\n      jumpi\n        /* \"#utility.yul\":15174:15175   */\n      0x00\n        /* \"#utility.yul\":15171:15172   */\n      dup1\n        /* \"#utility.yul\":15164:15176   */\n      revert\n        /* \"#utility.yul\":15126:15178   */\n    tag_799:\n        /* \"#utility.yul\":15206:15215   */\n      dup2\n        /* \"#utility.yul\":15200:15216   */\n      mload\n        /* \"#utility.yul\":15259:15264   */\n      dup1\n        /* \"#utility.yul\":15252:15265   */\n      iszero\n        /* \"#utility.yul\":15245:15266   */\n      iszero\n        /* \"#utility.yul\":15238:15243   */\n      dup2\n        /* \"#utility.yul\":15235:15267   */\n      eq\n        /* \"#utility.yul\":15225:15285   */\n      tag_709\n      jumpi\n        /* \"#utility.yul\":15281:15282   */\n      0x00\n        /* \"#utility.yul\":15278:15279   */\n      dup1\n        /* \"#utility.yul\":15271:15283   */\n      revert\n        /* \"#utility.yul\":16079:16365   */\n    tag_482:\n        /* \"#utility.yul\":16268:16293   */\n      dup3\n      dup2\n      mstore\n        /* \"#utility.yul\":16256:16258   */\n      0x40\n        /* \"#utility.yul\":16241:16259   */\n      dup2\n      add\n        /* \"#utility.yul\":16302:16359   */\n      tag_709\n        /* \"#utility.yul\":16355:16357   */\n      0x20\n        /* \"#utility.yul\":16340:16358   */\n      dup4\n      add\n        /* \"#utility.yul\":16332:16338   */\n      dup5\n        /* \"#utility.yul\":16302:16359   */\n      tag_693\n      jump\t// in\n        /* \"#utility.yul\":16370:16497   */\n    tag_485:\n        /* \"#utility.yul\":16431:16441   */\n      0x4e487b71\n        /* \"#utility.yul\":16426:16429   */\n      0xe0\n        /* \"#utility.yul\":16422:16442   */\n      shl\n        /* \"#utility.yul\":16419:16420   */\n      0x00\n        /* \"#utility.yul\":16412:16443   */\n      mstore\n        /* \"#utility.yul\":16462:16466   */\n      0x31\n        /* \"#utility.yul\":16459:16460   */\n      0x04\n        /* \"#utility.yul\":16452:16467   */\n      mstore\n        /* \"#utility.yul\":16486:16490   */\n      0x24\n        /* \"#utility.yul\":16483:16484   */\n      0x00\n        /* \"#utility.yul\":16476:16491   */\n      revert\n        /* \"#utility.yul\":16502:16638   */\n    tag_489:\n        /* \"#utility.yul\":16541:16544   */\n      0x00\n        /* \"#utility.yul\":16569:16574   */\n      dup2\n        /* \"#utility.yul\":16559:16598   */\n      tag_808\n      jumpi\n        /* \"#utility.yul\":16578:16596   */\n      tag_808\n      tag_694\n      jump\t// in\n    tag_808:\n      pop\n      not(0x00)\n        /* \"#utility.yul\":16614:16632   */\n      add\n      swap1\n        /* \"#utility.yul\":16502:16638   */\n      jump\t// out\n        /* \"#utility.yul\":16997:17227   */\n    tag_511:\n        /* \"#utility.yul\":17067:17073   */\n      0x00\n        /* \"#utility.yul\":17120:17122   */\n      0x20\n        /* \"#utility.yul\":17108:17117   */\n      dup3\n        /* \"#utility.yul\":17099:17106   */\n      dup5\n        /* \"#utility.yul\":17095:17118   */\n      sub\n        /* \"#utility.yul\":17091:17123   */\n      slt\n        /* \"#utility.yul\":17088:17140   */\n      iszero\n      tag_811\n      jumpi\n        /* \"#utility.yul\":17136:17137   */\n      0x00\n        /* \"#utility.yul\":17133:17134   */\n      dup1\n        /* \"#utility.yul\":17126:17138   */\n      revert\n        /* \"#utility.yul\":17088:17140   */\n    tag_811:\n      pop\n        /* \"#utility.yul\":17181:17197   */\n      mload\n      swap2\n        /* \"#utility.yul\":16997:17227   */\n      swap1\n      pop\n      jump\t// out\n        /* \"#utility.yul\":19695:19820   */\n    tag_578:\n        /* \"#utility.yul\":19760:19769   */\n      dup1\n      dup3\n      add\n        /* \"#utility.yul\":19781:19791   */\n      dup1\n      dup3\n      gt\n        /* \"#utility.yul\":19778:19814   */\n      iszero\n      tag_222\n      jumpi\n        /* \"#utility.yul\":19794:19812   */\n      tag_222\n      tag_694\n      jump\t// in\n        /* \"#utility.yul\":21234:21663   */\n    tag_633:\n        /* \"#utility.yul\":21480:21505   */\n      dup5\n      dup2\n      mstore\n        /* \"#utility.yul\":21536:21538   */\n      0x20\n        /* \"#utility.yul\":21521:21539   */\n      dup2\n      add\n        /* \"#utility.yul\":21514:21548   */\n      dup5\n      swap1\n      mstore\n        /* \"#utility.yul\":21579:21581   */\n      0x40\n        /* \"#utility.yul\":21564:21582   */\n      dup2\n      add\n        /* \"#utility.yul\":21557:21591   */\n      dup4\n      swap1\n      mstore\n        /* \"#utility.yul\":21467:21470   */\n      0x80\n        /* \"#utility.yul\":21452:21471   */\n      dup2\n      add\n        /* \"#utility.yul\":21600:21657   */\n      tag_827\n        /* \"#utility.yul\":21653:21655   */\n      0x60\n        /* \"#utility.yul\":21638:21656   */\n      dup4\n      add\n        /* \"#utility.yul\":21630:21636   */\n      dup5\n        /* \"#utility.yul\":21600:21657   */\n      tag_693\n      jump\t// in\n    tag_827:\n        /* \"#utility.yul\":21234:21663   */\n      swap6\n      swap5\n      pop\n      pop\n      pop\n      pop\n      pop\n      jump\t// out\n\n    auxdata: 0xa2646970667358221220aa793fed14142422ccc5dc76da028c8857e2e16ef2ef7bea3d0f0205f3c2bb1964736f6c634300081a0033\n}\n",
				"bytecode": {
					"linkReferences": {},
					"object": "608060405234801561001057600080fd5b50604051612baf380380612baf83398101604081905261002f9161014d565b6001600055338061005a57604051631e4fbdf760e01b81526000600482015260240160405180910390fd5b610063816100e3565b50600580546001600160a01b03199081166001600160a01b039a8b1617909155600695909555600793909355600d8054851696881696909617909555600e805484169487169490941790935560028054831693861693909317909255600380548216938516939093179092556004805490921692169190911790556101ea565b600180546001600160a01b038381166001600160a01b0319831681179093556040519116919082907f8be0079c531659141344cd1fd0a4f28419497f9722a3daafe3b4186f6b6457e090600090a35050565b6001600160a01b038116811461014a57600080fd5b50565b600080600080600080600080610100898b03121561016a57600080fd5b885161017581610135565b60208a015190985061018681610135565b60408a015190975061019781610135565b60608a015160808b015160a08c015192985090965094506101b781610135565b60c08a01519093506101c881610135565b60e08a01519092506101d981610135565b809150509295985092959890939650565b6129b6806101f96000396000f3fe6080604052600436106102295760003560e01c80638da5cb5b11610123578063c1560a14116100ab578063df4e05931161006f578063df4e0593146106f9578063e8e8738914610736578063efdcdb4514610763578063f2fde38b1461079b578063fc0c546a146107bb57600080fd5b8063c1560a14146105f3578063c211e1f914610609578063c81ffdea14610692578063d1f3b23e146106bf578063d3d9d1e4146106d957600080fd5b8063960524e3116100f2578063960524e31461051157806399131e7e14610526578063a1e89aec14610546578063b5f522f71461055c578063b9469e1a146105d357600080fd5b80638da5cb5b146104b257806391152c5c146104d057806391d8730a146104e5578063940c333e146104fe57600080fd5b80633feb5f2b116101b15780636c1909ed116101755780636c1909ed1461043d578063715018a61461045d578063721bc38b146104725780637cf12b90146104885780637fb120011461049d57600080fd5b80633feb5f2b146103b35780634dee1dc3146103d357806362a469e9146103f257806362a5af3b1461041257806363b201171461042757600080fd5b8063212ea247116101f8578063212ea247146103195780632151206e1461032e57806323cc75a8146103445780632f48ab7d1461035b5780633e413bee1461039357600080fd5b806305834e671461028057806306e4d36f146102b3578063115afc3a146102d9578063117d260f146102f957600080fd5b3661027b5760405162461bcd60e51b815260206004820181905260248201527f44697265637420424e42207472616e7366657273206e6f7420616c6c6f77656460448201526064015b60405180910390fd5b600080fd5b34801561028c57600080fd5b506102a061029b36600461251a565b6107db565b6040519081526020015b60405180910390f35b3480156102bf57600080fd5b5060065460095410155b60405190151581526020016102aa565b3480156102e557600080fd5b506102a06102f4366004612544565b610995565b34801561030557600080fd5b506102a061031436600461251a565b610aff565b34801561032557600080fd5b506008546102a0565b34801561033a57600080fd5b506102a060065481565b34801561035057600080fd5b50610359610cd1565b005b34801561036757600080fd5b50600d5461037b906001600160a01b031681565b6040516001600160a01b0390911681526020016102aa565b34801561039f57600080fd5b50600e5461037b906001600160a01b031681565b3480156103bf57600080fd5b5061037b6103ce366004612566565b610e43565b3480156103df57600080fd5b50600b546102c990610100900460ff1681565b3480156103fe57600080fd5b5060035461037b906001600160a01b031681565b34801561041e57600080fd5b50610359610e6d565b34801561043357600080fd5b506102a0600a5481565b34801561044957600080fd5b5061035961045836600461257f565b610ed3565b34801561046957600080fd5b50610359611124565b34801561047e57600080fd5b506102a060095481565b34801561049457600080fd5b50610359611136565b3480156104a957600080fd5b50610359611198565b3480156104be57600080fd5b506001546001600160a01b031661037b565b3480156104dc57600080fd5b5061035961169f565b3480156104f157600080fd5b50600754600954146102c9565b61035961050c36600461251a565b611a7f565b34801561051d57600080fd5b50600c546102a0565b34801561053257600080fd5b5060025461037b906001600160a01b031681565b34801561055257600080fd5b506102a060085481565b34801561056857600080fd5b506105a9610577366004612566565b600f60205260009081526040902080546001820154600283015460038401546004909401549293919290919060ff1685565b6040805195865260208601949094529284019190915260608301521515608082015260a0016102aa565b3480156105df57600080fd5b50600b546102c99062010000900460ff1681565b3480156105ff57600080fd5b506102a060075481565b34801561061557600080fd5b5061067d610624366004612566565b506008546000908152600f6020908152604091829020825160a081018452815480825260018301549382018490526002830154948201949094526003820154606082015260049091015460ff1615156080909101529091565b604080519283526020830191909152016102aa565b34801561069e57600080fd5b506102a06106ad3660046125c2565b60106020526000908152604090205481565b3480156106cb57600080fd5b50600b546102c99060ff1681565b3480156106e557600080fd5b5060045461037b906001600160a01b031681565b34801561070557600080fd5b506107296107143660046125c2565b60126020526000908152604090205460ff1681565b6040516102aa9190612615565b34801561074257600080fd5b506102a06107513660046125c2565b60116020526000908152604090205481565b34801561076f57600080fd5b506102a061077e366004612623565b601360209081526000928352604080842090915290825290205481565b3480156107a757600080fd5b506103596107b63660046125c2565b6120d8565b3480156107c757600080fd5b5060055461037b906001600160a01b031681565b6000806402540be4006107ed85610995565b6107f7919061266c565b90506000811361083e5760405162461bcd60e51b8152602060048201526012602482015271125b9d985b1a59081c1c9a58d9481999595960721b6044820152606401610272565b600061084960085490565b6000818152600f602052604081206002810154929350919080886002811115610874576108746125dd565b0361089d57670de0b6b3a764000061088c888761269c565b61089691906126b3565b9050610967565b60028860028111156108b1576108b16125dd565b14806108ce575060018860028111156108cc576108cc6125dd565b145b1561091f57600660006108e28260126126d5565b6108ed90600a6127cf565b6108f7908a61269c565b9050670de0b6b3a764000061090c828961269c565b61091691906126b3565b92505050610967565b60405162461bcd60e51b815260206004820152601a60248201527f556e737570706f72746564207061796d656e74206d6574686f640000000000006044820152606401610272565b60008261097c670de0b6b3a76400008461269c565b61098691906126b3565b96505050505050505b92915050565b6000808260028111156109aa576109aa6125dd565b03610a295760025460408051633fabe5a360e21b815290516000926001600160a01b03169163feaf968c9160048083019260a09291908290030181865afa1580156109f9573d6000803e3d6000fd5b505050506040513d601f19601f82011682018060405250810190610a1d91906127f5565b50919695505050505050565b6001826002811115610a3d57610a3d6125dd565b03610a8c5760035460408051633fabe5a360e21b815290516000926001600160a01b03169163feaf968c9160048083019260a09291908290030181865afa1580156109f9573d6000803e3d6000fd5b6002826002811115610aa057610aa06125dd565b0361091f576000600460009054906101000a90046001600160a01b03166001600160a01b031663feaf968c6040518163ffffffff1660e01b815260040160a060405180830381865afa1580156109f9573d6000803e3d6000fd5b919050565b6000808211610b5f5760405162461bcd60e51b815260206004820152602660248201527f546f6b656e20616d6f756e74206d7573742062652067726561746572207468616044820152656e207a65726f60d01b6064820152608401610272565b60006402540be400610b7085610995565b610b7a919061266c565b905060008113610bc15760405162461bcd60e51b8152602060048201526012602482015271125b9d985b1a59081c1c9a58d9481999595960721b6044820152606401610272565b6000610bcc60085490565b905080600003610c0f5760405162461bcd60e51b815260206004820152600e60248201526d4e6f206163746976652073616c6560901b6044820152606401610272565b6000818152600f6020526040812060028101549091670de0b6b3a7640000610c37838961269c565b610c4191906126b3565b9050600080896002811115610c5857610c586125dd565b03610c815785610c70670de0b6b3a76400008461269c565b610c7a91906126b3565b9050610cc5565b6001896002811115610c9557610c956125dd565b1480610cb257506002896002811115610cb057610cb06125dd565b145b1561091f5785610c7083620f424061269c565b98975050505050505050565b610cd9612116565b610ce1612140565b600b5460ff1615610d045760405162461bcd60e51b815260040161027290612847565b600b5462010000900460ff1615610d2d5760405162461bcd60e51b815260040161027290612876565b6006546009541015610da75760405162461bcd60e51b815260206004820152603860248201527f43616e6e6f742066696e616c697a653a20536f667420636170206e6f7420726560448201527f6163686564206f722073616c65206973206f6e676f696e6700000000000000006064820152608401610272565b600b54610100900460ff16610df65760405162461bcd60e51b8152602060048201526015602482015274105a5c991c9bdc081b9bdd0818dbdb5c1b195d1959605a1b6044820152606401610272565b600b805460ff19166001179055610e0b61216d565b600a546040517f9c4b134da32aab35252391880a9f2a3c13a760d7817ae8823f2b301d3522045a90600090a2610e416001600055565b565b600c8181548110610e5357600080fd5b6000918252602090912001546001600160a01b0316905081565b610e75612140565b600b5462010000900460ff1615610ec05760405162461bcd60e51b815260206004820152600f60248201526e105b1c9958591e48119c99595e9959608a1b6044820152606401610272565b600b805462ff0000191662010000179055565b610edb612140565b600b5460ff1615610efe5760405162461bcd60e51b815260040161027290612847565b600b5462010000900460ff1615610f275760405162461bcd60e51b815260040161027290612876565b428311610f8b5760405162461bcd60e51b815260206004820152602c60248201527f53746172742074696d65206d7573742062652067726561746572207468616e2060448201526b63757272656e742074696d6560a01b6064820152608401610272565b828211610feb5760405162461bcd60e51b815260206004820152602860248201527f456e642074696d65206d7573742062652067726561746572207468616e2073746044820152676172742074696d6560c01b6064820152608401610272565b6008546000908152600f602052604090206001015442116110635760405162461bcd60e51b815260206004820152602c60248201527f4e65772073616c65206d75737420737461727420616674657220746865206c6160448201526b73742073616c6520656e647360a01b6064820152608401610272565b6008805490600061107383612897565b90915550506040805160a08101825284815260208082018581528284018581526000606080860182815260808701838152600880548552600f8852938990209751885594516001880155925160028701559151600386015591516004909401805460ff1916941515949094179093555483518781529182018690529281018490527f63b43fa153147ade1de28ed76841cdbc34e510ed94dd1ff5a88e278b0b1ad9ba910160405180910390a2505050565b61112c612140565b610e4160006124b9565b61113e612140565b600b5462010000900460ff1661118a5760405162461bcd60e51b8152602060048201526011602482015270105b1c9958591e48155b919c99595e9959607a1b6044820152606401610272565b600b805462ff000019169055565b6111a0612116565b6111a8612140565b600b5460ff16156111cb5760405162461bcd60e51b815260040161027290612847565b6008546000908152600f6020526040902060010154421161121d5760405162461bcd60e51b815260206004820152600c60248201526b53616c65206f6e676f696e6760a01b6044820152606401610272565b600654600954106112635760405162461bcd60e51b815260206004820152601060248201526f14dbd99d0818d85c081c995858da195960821b6044820152606401610272565b600c546000600a8211156112835761127c600b836126d5565b9050611287565b5060005b60006112946001846126d5565b90505b81811061167a576000600c82815481106112b3576112b36128b0565b60009182526020822001546001600160a01b031691505b60038160ff1610156116235760008160ff1660028111156112ed576112ed6125dd565b6001600160a01b0384166000908152601360205260408120919250908183600281111561131c5761131c6125dd565b600281111561132d5761132d6125dd565b81526020019081526020016000205490506000811115611619576001600160a01b038416600090815260136020526040812081846002811115611372576113726125dd565b6002811115611383576113836125dd565b815260208101919091526040016000908120919091558260028111156113ab576113ab6125dd565b0361144d576000846001600160a01b03168260405160006040518083038185875af1925050503d80600081146113fd576040519150601f19603f3d011682016040523d82523d6000602084013e611402565b606091505b50509050806114475760405162461bcd60e51b8152602060048201526011602482015270109390881c99599d5b990819985a5b1959607a1b6044820152606401610272565b506115d5565b6001826002811115611461576114616125dd565b148061147e5750600282600281111561147c5761147c6125dd565b145b1561157f5760006001836002811115611499576114996125dd565b146114af57600e546001600160a01b03166114bc565b600d546001600160a01b03165b60405163a9059cbb60e01b81526001600160a01b038781166004830152602482018590529192509082169063a9059cbb906044016020604051808303816000875af115801561150f573d6000803e3d6000fd5b505050506040513d601f19601f8201168201806040525081019061153391906128c6565b6114475760405162461bcd60e51b815260206004820152601860248201527f537461626c65636f696e20726566756e64206661696c656400000000000000006044820152606401610272565b60405162461bcd60e51b815260206004820152602560248201527f556e737570706f72746564207061796d656e74206d6574686f6420666f72207260448201526419599d5b9960da1b6064820152608401610272565b836001600160a01b03167f03829ab241648d7348f97e4f77d36451330f2276ea8eeb3428e462012f9699e782846040516116109291906128e8565b60405180910390a25b50506001016112ca565b50600c805480611635576116356128fc565b600082815260208120820160001990810180546001600160a01b0319169055909101909155829003611667575061167a565b508061167281612912565b915050611297565b50600c5460000361169357600b805460ff191660011790555b5050610e416001600055565b6116a7612116565b6116af612140565b600b5460ff16156116d25760405162461bcd60e51b815260040161027290612847565b600b5462010000900460ff16156116fb5760405162461bcd60e51b815260040161027290612876565b600b54610100900460ff16156117535760405162461bcd60e51b815260206004820152601960248201527f41697264726f7020616c726561647920636f6d706c65746564000000000000006044820152606401610272565b600a546005546040516370a0823160e01b81523360048201526001600160a01b03909116906370a0823190602401602060405180830381865afa15801561179e573d6000803e3d6000fd5b505050506040513d601f19601f820116820180604052508101906117c29190612929565b10156118055760405162461bcd60e51b8152602060048201526012602482015271496e73756666696369656e742046756e647360701b6044820152606401610272565b6008546000908152600f602052604090206001015442116118575760405162461bcd60e51b815260206004820152600c60248201526b53616c65206f6e676f696e6760a01b6044820152606401610272565b600c546000600a82111561187757611870600b836126d5565b905061187b565b5060005b60006118886001846126d5565b90505b818110611a59576000600c82815481106118a7576118a76128b0565b60009182526020808320909101546001600160a01b031680835260119091526040909120549091508015611a35576005546000906001600160a01b03166323b872dd6118fb6001546001600160a01b031690565b6040516001600160e01b031960e084901b1681526001600160a01b0391821660048201529086166024820152604481018590526064016020604051808303816000875af1158015611950573d6000803e3d6000fd5b505050506040513d601f19601f8201168201806040525081019061197491906128c6565b9050806119bb5760405162461bcd60e51b8152602060048201526015602482015274151bdad95b881d1c985b9cd9995c8819985a5b1959605a1b6044820152606401610272565b600c8054806119cc576119cc6128fc565b600082815260209020810160001990810180546001600160a01b03191690550190556040516001600160a01b038416907f9bdcd0cc5503fb9a8dd7311d9617e33108c4b7c8948cc544b16c1fd63c6f475b90611a2b9085815260200190565b60405180910390a2505b82600003611a44575050611a59565b50508080611a5190612912565b91505061188b565b50600c5460000361169357600b805461ff0019166101001790555050610e416001600055565b600b5460ff1615611aa25760405162461bcd60e51b815260040161027290612847565b600b5462010000900460ff1615611acb5760405162461bcd60e51b815260040161027290612876565b6001546001600160a01b03163303611b255760405162461bcd60e51b815260206004820152601760248201527f4f776e65722063616e6e6f742062757920746f6b656e730000000000000000006044820152606401610272565b600854600003611b615760405162461bcd60e51b81526020600482015260076024820152664e6f2073616c6560c81b6044820152606401610272565b6008546000908152600f602052604090206004015460ff1615611bbf5760405162461bcd60e51b815260206004820152601660248201527514d85b1948185b1c9958591e48199a5b985b1a5e995960521b6044820152606401610272565b600080836002811115611bd457611bd46125dd565b03611c935760003411611c295760405162461bcd60e51b815260206004820152601760248201527f53656e6420612076616c696420424e4220616d6f756e740000000000000000006044820152606401610272565b611c3383346107db565b336000908152601360205260408120919250349190856002811115611c5a57611c5a6125dd565b6002811115611c6b57611c6b6125dd565b81526020019081526020016000206000828254611c889190612942565b90915550611e839050565b6001836002811115611ca757611ca76125dd565b1480611cc457506002836002811115611cc257611cc26125dd565b145b1561091f5760008211611d195760405162461bcd60e51b815260206004820152601f60248201527f456e74657220612076616c696420737461626c65636f696e20616d6f756e74006044820152606401610272565b60006001846002811115611d2f57611d2f6125dd565b14611d4557600e546001600160a01b0316611d52565b600d546001600160a01b03165b6040516323b872dd60e01b8152336004820152306024820152604481018590529091506001600160a01b038216906323b872dd906064016020604051808303816000875af1158015611da8573d6000803e3d6000fd5b505050506040513d601f19601f82011682018060405250810190611dcc91906128c6565b611e185760405162461bcd60e51b815260206004820152601a60248201527f537461626c65636f696e207472616e73666572206661696c65640000000000006044820152606401610272565b611e2284846107db565b336000908152601360205260408120919350849190866002811115611e4957611e496125dd565b6002811115611e5a57611e5a6125dd565b81526020019081526020016000206000828254611e779190612942565b90915550611e83915050565b60008111611eca5760405162461bcd60e51b8152602060048201526014602482015273125b9d985b1a59081d1bdad95b88185b5bdd5b9d60621b6044820152606401610272565b6008546000908152600f6020526040812060020154670de0b6b3a764000090611ef3908461269c565b611efd91906126b3565b905060075481600954611f109190612942565b1115611f515760405162461bcd60e51b815260206004820152601060248201526f12185c990818d85c081c995858da195960821b6044820152606401610272565b3360009081526010602052604081208054839290611f70908490612942565b925050819055508060096000828254611f899190612942565b90915550506008546000908152600f602052604081206003018054849290611fb2908490612942565b9250508190555081600a6000828254611fcb9190612942565b909155505033600090815260116020526040812054900361202957600c80546001810182556000919091527fdf6966c971051c3d54ec59162606531493a51404a002842f56009d7e5cf4a8c70180546001600160a01b031916331790555b3360009081526011602052604081208054849290612048908490612942565b9091555050336000908152601260205260409020805485919060ff19166001836002811115612079576120796125dd565b02179055506008546000818152600f60205260409081902060020154905133917fdbcef474a632721725d49e3f35d9defe0257100b01d1e4b4b135b14d6fe296e8916120ca91879189908b90612955565b60405180910390a350505050565b6120e0612140565b6001600160a01b03811661210a57604051631e4fbdf760e01b815260006004820152602401610272565b612113816124b9565b50565b60026000540361213957604051633ee5aeb560e01b815260040160405180910390fd5b6002600055565b6001546001600160a01b03163314610e415760405163118cdaa760e01b8152336004820152602401610272565b47801561221c5760006121886001546001600160a01b031690565b6001600160a01b03168260405160006040518083038185875af1925050503d80600081146121d2576040519150601f19603f3d011682016040523d82523d6000602084013e6121d7565b606091505b505090508061221a5760405162461bcd60e51b815260206004820152600f60248201526e151c985b9cd9995c8819985a5b1959608a1b6044820152606401610272565b505b600d546040516370a0823160e01b81523060048201526000916001600160a01b0316906370a0823190602401602060405180830381865afa158015612265573d6000803e3d6000fd5b505050506040513d601f19601f820116820180604052508101906122899190612929565b9050801561236857600d546001600160a01b031663a9059cbb6122b46001546001600160a01b031690565b6040516001600160e01b031960e084901b1681526001600160a01b039091166004820152602481018490526044016020604051808303816000875af1158015612301573d6000803e3d6000fd5b505050506040513d601f19601f8201168201806040525081019061232591906128c6565b6123685760405162461bcd60e51b81526020600482015260146024820152731554d115081d1c985b9cd9995c8819985a5b195960621b6044820152606401610272565b600e546040516370a0823160e01b81523060048201526000916001600160a01b0316906370a0823190602401602060405180830381865afa1580156123b1573d6000803e3d6000fd5b505050506040513d601f19601f820116820180604052508101906123d59190612929565b905080156124b457600e546001600160a01b031663a9059cbb6124006001546001600160a01b031690565b6040516001600160e01b031960e084901b1681526001600160a01b039091166004820152602481018490526044016020604051808303816000875af115801561244d573d6000803e3d6000fd5b505050506040513d601f19601f8201168201806040525081019061247191906128c6565b6124b45760405162461bcd60e51b81526020600482015260146024820152731554d110c81d1c985b9cd9995c8819985a5b195960621b6044820152606401610272565b505050565b600180546001600160a01b038381166001600160a01b0319831681179093556040519116919082907f8be0079c531659141344cd1fd0a4f28419497f9722a3daafe3b4186f6b6457e090600090a35050565b803560038110610afa57600080fd5b6000806040838503121561252d57600080fd5b6125368361250b565b946020939093013593505050565b60006020828403121561255657600080fd5b61255f8261250b565b9392505050565b60006020828403121561257857600080fd5b5035919050565b60008060006060848603121561259457600080fd5b505081359360208301359350604090920135919050565b80356001600160a01b0381168114610afa57600080fd5b6000602082840312156125d457600080fd5b61255f826125ab565b634e487b7160e01b600052602160045260246000fd5b6003811061261157634e487b7160e01b600052602160045260246000fd5b9052565b6020810161098f82846125f3565b6000806040838503121561263657600080fd5b61263f836125ab565b915061264d6020840161250b565b90509250929050565b634e487b7160e01b600052601160045260246000fd5b80820260008212600160ff1b8414161561268857612688612656565b818105831482151761098f5761098f612656565b808202811582820484141761098f5761098f612656565b6000826126d057634e487b7160e01b600052601260045260246000fd5b500490565b8181038181111561098f5761098f612656565b6001815b60018411156127235780850481111561270757612707612656565b600184161561271557908102905b60019390931c9280026126ec565b935093915050565b60008261273a5750600161098f565b816127475750600061098f565b816001811461275d576002811461276757612783565b600191505061098f565b60ff84111561277857612778612656565b50506001821b61098f565b5060208310610133831016604e8410600b84101617156127a6575081810a61098f565b6127b360001984846126e8565b80600019048211156127c7576127c7612656565b029392505050565b600061255f838361272b565b805169ffffffffffffffffffff81168114610afa57600080fd5b600080600080600060a0868803121561280d57600080fd5b612816866127db565b6020870151604088015160608901519297509095509350915061283b608087016127db565b90509295509295909350565b6020808252601590820152741250d3c8185b1c9958591e48199a5b985b1a5e9959605a1b604082015260600190565b602080825260079082015266199c99595e995960ca1b604082015260600190565b6000600182016128a9576128a9612656565b5060010190565b634e487b7160e01b600052603260045260246000fd5b6000602082840312156128d857600080fd5b8151801515811461255f57600080fd5b8281526040810161255f60208301846125f3565b634e487b7160e01b600052603160045260246000fd5b60008161292157612921612656565b506000190190565b60006020828403121561293b57600080fd5b5051919050565b8082018082111561098f5761098f612656565b84815260208101849052604081018390526080810161297760608301846125f3565b9594505050505056fea2646970667358221220aa793fed14142422ccc5dc76da028c8857e2e16ef2ef7bea3d0f0205f3c2bb1964736f6c634300081a0033",
					"opcodes": "PUSH1 0x80 PUSH1 0x40 MSTORE CALLVALUE DUP1 ISZERO PUSH2 0x10 JUMPI PUSH1 0x0 DUP1 REVERT JUMPDEST POP PUSH1 0x40 MLOAD PUSH2 0x2BAF CODESIZE SUB DUP1 PUSH2 0x2BAF DUP4 CODECOPY DUP2 ADD PUSH1 0x40 DUP2 SWAP1 MSTORE PUSH2 0x2F SWAP2 PUSH2 0x14D JUMP JUMPDEST PUSH1 0x1 PUSH1 0x0 SSTORE CALLER DUP1 PUSH2 0x5A JUMPI PUSH1 0x40 MLOAD PUSH4 0x1E4FBDF7 PUSH1 0xE0 SHL DUP2 MSTORE PUSH1 0x0 PUSH1 0x4 DUP3 ADD MSTORE PUSH1 0x24 ADD PUSH1 0x40 MLOAD DUP1 SWAP2 SUB SWAP1 REVERT JUMPDEST PUSH2 0x63 DUP2 PUSH2 0xE3 JUMP JUMPDEST POP PUSH1 0x5 DUP1 SLOAD PUSH1 0x1 PUSH1 0x1 PUSH1 0xA0 SHL SUB NOT SWAP1 DUP2 AND PUSH1 0x1 PUSH1 0x1 PUSH1 0xA0 SHL SUB SWAP11 DUP12 AND OR SWAP1 SWAP2 SSTORE PUSH1 0x6 SWAP6 SWAP1 SWAP6 SSTORE PUSH1 0x7 SWAP4 SWAP1 SWAP4 SSTORE PUSH1 0xD DUP1 SLOAD DUP6 AND SWAP7 DUP9 AND SWAP7 SWAP1 SWAP7 OR SWAP1 SWAP6 SSTORE PUSH1 0xE DUP1 SLOAD DUP5 AND SWAP5 DUP8 AND SWAP5 SWAP1 SWAP5 OR SWAP1 SWAP4 SSTORE PUSH1 0x2 DUP1 SLOAD DUP4 AND SWAP4 DUP7 AND SWAP4 SWAP1 SWAP4 OR SWAP1 SWAP3 SSTORE PUSH1 0x3 DUP1 SLOAD DUP3 AND SWAP4 DUP6 AND SWAP4 SWAP1 SWAP4 OR SWAP1 SWAP3 SSTORE PUSH1 0x4 DUP1 SLOAD SWAP1 SWAP3 AND SWAP3 AND SWAP2 SWAP1 SWAP2 OR SWAP1 SSTORE PUSH2 0x1EA JUMP JUMPDEST PUSH1 0x1 DUP1 SLOAD PUSH1 0x1 PUSH1 0x1 PUSH1 0xA0 SHL SUB DUP4 DUP2 AND PUSH1 0x1 PUSH1 0x1 PUSH1 0xA0 SHL SUB NOT DUP4 AND DUP2 OR SWAP1 SWAP4 SSTORE PUSH1 0x40 MLOAD SWAP2 AND SWAP2 SWAP1 DUP3 SWAP1 PUSH32 0x8BE0079C531659141344CD1FD0A4F28419497F9722A3DAAFE3B4186F6B6457E0 SWAP1 PUSH1 0x0 SWAP1 LOG3 POP POP JUMP JUMPDEST PUSH1 0x1 PUSH1 0x1 PUSH1 0xA0 SHL SUB DUP2 AND DUP2 EQ PUSH2 0x14A JUMPI PUSH1 0x0 DUP1 REVERT JUMPDEST POP JUMP JUMPDEST PUSH1 0x0 DUP1 PUSH1 0x0 DUP1 PUSH1 0x0 DUP1 PUSH1 0x0 DUP1 PUSH2 0x100 DUP10 DUP12 SUB SLT ISZERO PUSH2 0x16A JUMPI PUSH1 0x0 DUP1 REVERT JUMPDEST DUP9 MLOAD PUSH2 0x175 DUP2 PUSH2 0x135 JUMP JUMPDEST PUSH1 0x20 DUP11 ADD MLOAD SWAP1 SWAP9 POP PUSH2 0x186 DUP2 PUSH2 0x135 JUMP JUMPDEST PUSH1 0x40 DUP11 ADD MLOAD SWAP1 SWAP8 POP PUSH2 0x197 DUP2 PUSH2 0x135 JUMP JUMPDEST PUSH1 0x60 DUP11 ADD MLOAD PUSH1 0x80 DUP12 ADD MLOAD PUSH1 0xA0 DUP13 ADD MLOAD SWAP3 SWAP9 POP SWAP1 SWAP7 POP SWAP5 POP PUSH2 0x1B7 DUP2 PUSH2 0x135 JUMP JUMPDEST PUSH1 0xC0 DUP11 ADD MLOAD SWAP1 SWAP4 POP PUSH2 0x1C8 DUP2 PUSH2 0x135 JUMP JUMPDEST PUSH1 0xE0 DUP11 ADD MLOAD SWAP1 SWAP3 POP PUSH2 0x1D9 DUP2 PUSH2 0x135 JUMP JUMPDEST DUP1 SWAP2 POP POP SWAP3 SWAP6 SWAP9 POP SWAP3 SWAP6 SWAP9 SWAP1 SWAP4 SWAP7 POP JUMP JUMPDEST PUSH2 0x29B6 DUP1 PUSH2 0x1F9 PUSH1 0x0 CODECOPY PUSH1 0x0 RETURN INVALID PUSH1 0x80 PUSH1 0x40 MSTORE PUSH1 0x4 CALLDATASIZE LT PUSH2 0x229 JUMPI PUSH1 0x0 CALLDATALOAD PUSH1 0xE0 SHR DUP1 PUSH4 0x8DA5CB5B GT PUSH2 0x123 JUMPI DUP1 PUSH4 0xC1560A14 GT PUSH2 0xAB JUMPI DUP1 PUSH4 0xDF4E0593 GT PUSH2 0x6F JUMPI DUP1 PUSH4 0xDF4E0593 EQ PUSH2 0x6F9 JUMPI DUP1 PUSH4 0xE8E87389 EQ PUSH2 0x736 JUMPI DUP1 PUSH4 0xEFDCDB45 EQ PUSH2 0x763 JUMPI DUP1 PUSH4 0xF2FDE38B EQ PUSH2 0x79B JUMPI DUP1 PUSH4 0xFC0C546A EQ PUSH2 0x7BB JUMPI PUSH1 0x0 DUP1 REVERT JUMPDEST DUP1 PUSH4 0xC1560A14 EQ PUSH2 0x5F3 JUMPI DUP1 PUSH4 0xC211E1F9 EQ PUSH2 0x609 JUMPI DUP1 PUSH4 0xC81FFDEA EQ PUSH2 0x692 JUMPI DUP1 PUSH4 0xD1F3B23E EQ PUSH2 0x6BF JUMPI DUP1 PUSH4 0xD3D9D1E4 EQ PUSH2 0x6D9 JUMPI PUSH1 0x0 DUP1 REVERT JUMPDEST DUP1 PUSH4 0x960524E3 GT PUSH2 0xF2 JUMPI DUP1 PUSH4 0x960524E3 EQ PUSH2 0x511 JUMPI DUP1 PUSH4 0x99131E7E EQ PUSH2 0x526 JUMPI DUP1 PUSH4 0xA1E89AEC EQ PUSH2 0x546 JUMPI DUP1 PUSH4 0xB5F522F7 EQ PUSH2 0x55C JUMPI DUP1 PUSH4 0xB9469E1A EQ PUSH2 0x5D3 JUMPI PUSH1 0x0 DUP1 REVERT JUMPDEST DUP1 PUSH4 0x8DA5CB5B EQ PUSH2 0x4B2 JUMPI DUP1 PUSH4 0x91152C5C EQ PUSH2 0x4D0 JUMPI DUP1 PUSH4 0x91D8730A EQ PUSH2 0x4E5 JUMPI DUP1 PUSH4 0x940C333E EQ PUSH2 0x4FE JUMPI PUSH1 0x0 DUP1 REVERT JUMPDEST DUP1 PUSH4 0x3FEB5F2B GT PUSH2 0x1B1 JUMPI DUP1 PUSH4 0x6C1909ED GT PUSH2 0x175 JUMPI DUP1 PUSH4 0x6C1909ED EQ PUSH2 0x43D JUMPI DUP1 PUSH4 0x715018A6 EQ PUSH2 0x45D JUMPI DUP1 PUSH4 0x721BC38B EQ PUSH2 0x472 JUMPI DUP1 PUSH4 0x7CF12B90 EQ PUSH2 0x488 JUMPI DUP1 PUSH4 0x7FB12001 EQ PUSH2 0x49D JUMPI PUSH1 0x0 DUP1 REVERT JUMPDEST DUP1 PUSH4 0x3FEB5F2B EQ PUSH2 0x3B3 JUMPI DUP1 PUSH4 0x4DEE1DC3 EQ PUSH2 0x3D3 JUMPI DUP1 PUSH4 0x62A469E9 EQ PUSH2 0x3F2 JUMPI DUP1 PUSH4 0x62A5AF3B EQ PUSH2 0x412 JUMPI DUP1 PUSH4 0x63B20117 EQ PUSH2 0x427 JUMPI PUSH1 0x0 DUP1 REVERT JUMPDEST DUP1 PUSH4 0x212EA247 GT PUSH2 0x1F8 JUMPI DUP1 PUSH4 0x212EA247 EQ PUSH2 0x319 JUMPI DUP1 PUSH4 0x2151206E EQ PUSH2 0x32E JUMPI DUP1 PUSH4 0x23CC75A8 EQ PUSH2 0x344 JUMPI DUP1 PUSH4 0x2F48AB7D EQ PUSH2 0x35B JUMPI DUP1 PUSH4 0x3E413BEE EQ PUSH2 0x393 JUMPI PUSH1 0x0 DUP1 REVERT JUMPDEST DUP1 PUSH4 0x5834E67 EQ PUSH2 0x280 JUMPI DUP1 PUSH4 0x6E4D36F EQ PUSH2 0x2B3 JUMPI DUP1 PUSH4 0x115AFC3A EQ PUSH2 0x2D9 JUMPI DUP1 PUSH4 0x117D260F EQ PUSH2 0x2F9 JUMPI PUSH1 0x0 DUP1 REVERT JUMPDEST CALLDATASIZE PUSH2 0x27B JUMPI PUSH1 0x40 MLOAD PUSH3 0x461BCD PUSH1 0xE5 SHL DUP2 MSTORE PUSH1 0x20 PUSH1 0x4 DUP3 ADD DUP2 SWAP1 MSTORE PUSH1 0x24 DUP3 ADD MSTORE PUSH32 0x44697265637420424E42207472616E7366657273206E6F7420616C6C6F776564 PUSH1 0x44 DUP3 ADD MSTORE PUSH1 0x64 ADD JUMPDEST PUSH1 0x40 MLOAD DUP1 SWAP2 SUB SWAP1 REVERT JUMPDEST PUSH1 0x0 DUP1 REVERT JUMPDEST CALLVALUE DUP1 ISZERO PUSH2 0x28C JUMPI PUSH1 0x0 DUP1 REVERT JUMPDEST POP PUSH2 0x2A0 PUSH2 0x29B CALLDATASIZE PUSH1 0x4 PUSH2 0x251A JUMP JUMPDEST PUSH2 0x7DB JUMP JUMPDEST PUSH1 0x40 MLOAD SWAP1 DUP2 MSTORE PUSH1 0x20 ADD JUMPDEST PUSH1 0x40 MLOAD DUP1 SWAP2 SUB SWAP1 RETURN JUMPDEST CALLVALUE DUP1 ISZERO PUSH2 0x2BF JUMPI PUSH1 0x0 DUP1 REVERT JUMPDEST POP PUSH1 0x6 SLOAD PUSH1 0x9 SLOAD LT ISZERO JUMPDEST PUSH1 0x40 MLOAD SWAP1 ISZERO ISZERO DUP2 MSTORE PUSH1 0x20 ADD PUSH2 0x2AA JUMP JUMPDEST CALLVALUE DUP1 ISZERO PUSH2 0x2E5 JUMPI PUSH1 0x0 DUP1 REVERT JUMPDEST POP PUSH2 0x2A0 PUSH2 0x2F4 CALLDATASIZE PUSH1 0x4 PUSH2 0x2544 JUMP JUMPDEST PUSH2 0x995 JUMP JUMPDEST CALLVALUE DUP1 ISZERO PUSH2 0x305 JUMPI PUSH1 0x0 DUP1 REVERT JUMPDEST POP PUSH2 0x2A0 PUSH2 0x314 CALLDATASIZE PUSH1 0x4 PUSH2 0x251A JUMP JUMPDEST PUSH2 0xAFF JUMP JUMPDEST CALLVALUE DUP1 ISZERO PUSH2 0x325 JUMPI PUSH1 0x0 DUP1 REVERT JUMPDEST POP PUSH1 0x8 SLOAD PUSH2 0x2A0 JUMP JUMPDEST CALLVALUE DUP1 ISZERO PUSH2 0x33A JUMPI PUSH1 0x0 DUP1 REVERT JUMPDEST POP PUSH2 0x2A0 PUSH1 0x6 SLOAD DUP2 JUMP JUMPDEST CALLVALUE DUP1 ISZERO PUSH2 0x350 JUMPI PUSH1 0x0 DUP1 REVERT JUMPDEST POP PUSH2 0x359 PUSH2 0xCD1 JUMP JUMPDEST STOP JUMPDEST CALLVALUE DUP1 ISZERO PUSH2 0x367 JUMPI PUSH1 0x0 DUP1 REVERT JUMPDEST POP PUSH1 0xD SLOAD PUSH2 0x37B SWAP1 PUSH1 0x1 PUSH1 0x1 PUSH1 0xA0 SHL SUB AND DUP2 JUMP JUMPDEST PUSH1 0x40 MLOAD PUSH1 0x1 PUSH1 0x1 PUSH1 0xA0 SHL SUB SWAP1 SWAP2 AND DUP2 MSTORE PUSH1 0x20 ADD PUSH2 0x2AA JUMP JUMPDEST CALLVALUE DUP1 ISZERO PUSH2 0x39F JUMPI PUSH1 0x0 DUP1 REVERT JUMPDEST POP PUSH1 0xE SLOAD PUSH2 0x37B SWAP1 PUSH1 0x1 PUSH1 0x1 PUSH1 0xA0 SHL SUB AND DUP2 JUMP JUMPDEST CALLVALUE DUP1 ISZERO PUSH2 0x3BF JUMPI PUSH1 0x0 DUP1 REVERT JUMPDEST POP PUSH2 0x37B PUSH2 0x3CE CALLDATASIZE PUSH1 0x4 PUSH2 0x2566 JUMP JUMPDEST PUSH2 0xE43 JUMP JUMPDEST CALLVALUE DUP1 ISZERO PUSH2 0x3DF JUMPI PUSH1 0x0 DUP1 REVERT JUMPDEST POP PUSH1 0xB SLOAD PUSH2 0x2C9 SWAP1 PUSH2 0x100 SWAP1 DIV PUSH1 0xFF AND DUP2 JUMP JUMPDEST CALLVALUE DUP1 ISZERO PUSH2 0x3FE JUMPI PUSH1 0x0 DUP1 REVERT JUMPDEST POP PUSH1 0x3 SLOAD PUSH2 0x37B SWAP1 PUSH1 0x1 PUSH1 0x1 PUSH1 0xA0 SHL SUB AND DUP2 JUMP JUMPDEST CALLVALUE DUP1 ISZERO PUSH2 0x41E JUMPI PUSH1 0x0 DUP1 REVERT JUMPDEST POP PUSH2 0x359 PUSH2 0xE6D JUMP JUMPDEST CALLVALUE DUP1 ISZERO PUSH2 0x433 JUMPI PUSH1 0x0 DUP1 REVERT JUMPDEST POP PUSH2 0x2A0 PUSH1 0xA SLOAD DUP2 JUMP JUMPDEST CALLVALUE DUP1 ISZERO PUSH2 0x449 JUMPI PUSH1 0x0 DUP1 REVERT JUMPDEST POP PUSH2 0x359 PUSH2 0x458 CALLDATASIZE PUSH1 0x4 PUSH2 0x257F JUMP JUMPDEST PUSH2 0xED3 JUMP JUMPDEST CALLVALUE DUP1 ISZERO PUSH2 0x469 JUMPI PUSH1 0x0 DUP1 REVERT JUMPDEST POP PUSH2 0x359 PUSH2 0x1124 JUMP JUMPDEST CALLVALUE DUP1 ISZERO PUSH2 0x47E JUMPI PUSH1 0x0 DUP1 REVERT JUMPDEST POP PUSH2 0x2A0 PUSH1 0x9 SLOAD DUP2 JUMP JUMPDEST CALLVALUE DUP1 ISZERO PUSH2 0x494 JUMPI PUSH1 0x0 DUP1 REVERT JUMPDEST POP PUSH2 0x359 PUSH2 0x1136 JUMP JUMPDEST CALLVALUE DUP1 ISZERO PUSH2 0x4A9 JUMPI PUSH1 0x0 DUP1 REVERT JUMPDEST POP PUSH2 0x359 PUSH2 0x1198 JUMP JUMPDEST CALLVALUE DUP1 ISZERO PUSH2 0x4BE JUMPI PUSH1 0x0 DUP1 REVERT JUMPDEST POP PUSH1 0x1 SLOAD PUSH1 0x1 PUSH1 0x1 PUSH1 0xA0 SHL SUB AND PUSH2 0x37B JUMP JUMPDEST CALLVALUE DUP1 ISZERO PUSH2 0x4DC JUMPI PUSH1 0x0 DUP1 REVERT JUMPDEST POP PUSH2 0x359 PUSH2 0x169F JUMP JUMPDEST CALLVALUE DUP1 ISZERO PUSH2 0x4F1 JUMPI PUSH1 0x0 DUP1 REVERT JUMPDEST POP PUSH1 0x7 SLOAD PUSH1 0x9 SLOAD EQ PUSH2 0x2C9 JUMP JUMPDEST PUSH2 0x359 PUSH2 0x50C CALLDATASIZE PUSH1 0x4 PUSH2 0x251A JUMP JUMPDEST PUSH2 0x1A7F JUMP JUMPDEST CALLVALUE DUP1 ISZERO PUSH2 0x51D JUMPI PUSH1 0x0 DUP1 REVERT JUMPDEST POP PUSH1 0xC SLOAD PUSH2 0x2A0 JUMP JUMPDEST CALLVALUE DUP1 ISZERO PUSH2 0x532 JUMPI PUSH1 0x0 DUP1 REVERT JUMPDEST POP PUSH1 0x2 SLOAD PUSH2 0x37B SWAP1 PUSH1 0x1 PUSH1 0x1 PUSH1 0xA0 SHL SUB AND DUP2 JUMP JUMPDEST CALLVALUE DUP1 ISZERO PUSH2 0x552 JUMPI PUSH1 0x0 DUP1 REVERT JUMPDEST POP PUSH2 0x2A0 PUSH1 0x8 SLOAD DUP2 JUMP JUMPDEST CALLVALUE DUP1 ISZERO PUSH2 0x568 JUMPI PUSH1 0x0 DUP1 REVERT JUMPDEST POP PUSH2 0x5A9 PUSH2 0x577 CALLDATASIZE PUSH1 0x4 PUSH2 0x2566 JUMP JUMPDEST PUSH1 0xF PUSH1 0x20 MSTORE PUSH1 0x0 SWAP1 DUP2 MSTORE PUSH1 0x40 SWAP1 KECCAK256 DUP1 SLOAD PUSH1 0x1 DUP3 ADD SLOAD PUSH1 0x2 DUP4 ADD SLOAD PUSH1 0x3 DUP5 ADD SLOAD PUSH1 0x4 SWAP1 SWAP5 ADD SLOAD SWAP3 SWAP4 SWAP2 SWAP3 SWAP1 SWAP2 SWAP1 PUSH1 0xFF AND DUP6 JUMP JUMPDEST PUSH1 0x40 DUP1 MLOAD SWAP6 DUP7 MSTORE PUSH1 0x20 DUP7 ADD SWAP5 SWAP1 SWAP5 MSTORE SWAP3 DUP5 ADD SWAP2 SWAP1 SWAP2 MSTORE PUSH1 0x60 DUP4 ADD MSTORE ISZERO ISZERO PUSH1 0x80 DUP3 ADD MSTORE PUSH1 0xA0 ADD PUSH2 0x2AA JUMP JUMPDEST CALLVALUE DUP1 ISZERO PUSH2 0x5DF JUMPI PUSH1 0x0 DUP1 REVERT JUMPDEST POP PUSH1 0xB SLOAD PUSH2 0x2C9 SWAP1 PUSH3 0x10000 SWAP1 DIV PUSH1 0xFF AND DUP2 JUMP JUMPDEST CALLVALUE DUP1 ISZERO PUSH2 0x5FF JUMPI PUSH1 0x0 DUP1 REVERT JUMPDEST POP PUSH2 0x2A0 PUSH1 0x7 SLOAD DUP2 JUMP JUMPDEST CALLVALUE DUP1 ISZERO PUSH2 0x615 JUMPI PUSH1 0x0 DUP1 REVERT JUMPDEST POP PUSH2 0x67D PUSH2 0x624 CALLDATASIZE PUSH1 0x4 PUSH2 0x2566 JUMP JUMPDEST POP PUSH1 0x8 SLOAD PUSH1 0x0 SWAP1 DUP2 MSTORE PUSH1 0xF PUSH1 0x20 SWAP1 DUP2 MSTORE PUSH1 0x40 SWAP2 DUP3 SWAP1 KECCAK256 DUP3 MLOAD PUSH1 0xA0 DUP2 ADD DUP5 MSTORE DUP2 SLOAD DUP1 DUP3 MSTORE PUSH1 0x1 DUP4 ADD SLOAD SWAP4 DUP3 ADD DUP5 SWAP1 MSTORE PUSH1 0x2 DUP4 ADD SLOAD SWAP5 DUP3 ADD SWAP5 SWAP1 SWAP5 MSTORE PUSH1 0x3 DUP3 ADD SLOAD PUSH1 0x60 DUP3 ADD MSTORE PUSH1 0x4 SWAP1 SWAP2 ADD SLOAD PUSH1 0xFF AND ISZERO ISZERO PUSH1 0x80 SWAP1 SWAP2 ADD MSTORE SWAP1 SWAP2 JUMP JUMPDEST PUSH1 0x40 DUP1 MLOAD SWAP3 DUP4 MSTORE PUSH1 0x20 DUP4 ADD SWAP2 SWAP1 SWAP2 MSTORE ADD PUSH2 0x2AA JUMP JUMPDEST CALLVALUE DUP1 ISZERO PUSH2 0x69E JUMPI PUSH1 0x0 DUP1 REVERT JUMPDEST POP PUSH2 0x2A0 PUSH2 0x6AD CALLDATASIZE PUSH1 0x4 PUSH2 0x25C2 JUMP JUMPDEST PUSH1 0x10 PUSH1 0x20 MSTORE PUSH1 0x0 SWAP1 DUP2 MSTORE PUSH1 0x40 SWAP1 KECCAK256 SLOAD DUP2 JUMP JUMPDEST CALLVALUE DUP1 ISZERO PUSH2 0x6CB JUMPI PUSH1 0x0 DUP1 REVERT JUMPDEST POP PUSH1 0xB SLOAD PUSH2 0x2C9 SWAP1 PUSH1 0xFF AND DUP2 JUMP JUMPDEST CALLVALUE DUP1 ISZERO PUSH2 0x6E5 JUMPI PUSH1 0x0 DUP1 REVERT JUMPDEST POP PUSH1 0x4 SLOAD PUSH2 0x37B SWAP1 PUSH1 0x1 PUSH1 0x1 PUSH1 0xA0 SHL SUB AND DUP2 JUMP JUMPDEST CALLVALUE DUP1 ISZERO PUSH2 0x705 JUMPI PUSH1 0x0 DUP1 REVERT JUMPDEST POP PUSH2 0x729 PUSH2 0x714 CALLDATASIZE PUSH1 0x4 PUSH2 0x25C2 JUMP JUMPDEST PUSH1 0x12 PUSH1 0x20 MSTORE PUSH1 0x0 SWAP1 DUP2 MSTORE PUSH1 0x40 SWAP1 KECCAK256 SLOAD PUSH1 0xFF AND DUP2 JUMP JUMPDEST PUSH1 0x40 MLOAD PUSH2 0x2AA SWAP2 SWAP1 PUSH2 0x2615 JUMP JUMPDEST CALLVALUE DUP1 ISZERO PUSH2 0x742 JUMPI PUSH1 0x0 DUP1 REVERT JUMPDEST POP PUSH2 0x2A0 PUSH2 0x751 CALLDATASIZE PUSH1 0x4 PUSH2 0x25C2 JUMP JUMPDEST PUSH1 0x11 PUSH1 0x20 MSTORE PUSH1 0x0 SWAP1 DUP2 MSTORE PUSH1 0x40 SWAP1 KECCAK256 SLOAD DUP2 JUMP JUMPDEST CALLVALUE DUP1 ISZERO PUSH2 0x76F JUMPI PUSH1 0x0 DUP1 REVERT JUMPDEST POP PUSH2 0x2A0 PUSH2 0x77E CALLDATASIZE PUSH1 0x4 PUSH2 0x2623 JUMP JUMPDEST PUSH1 0x13 PUSH1 0x20 SWAP1 DUP2 MSTORE PUSH1 0x0 SWAP3 DUP4 MSTORE PUSH1 0x40 DUP1 DUP5 KECCAK256 SWAP1 SWAP2 MSTORE SWAP1 DUP3 MSTORE SWAP1 KECCAK256 SLOAD DUP2 JUMP JUMPDEST CALLVALUE DUP1 ISZERO PUSH2 0x7A7 JUMPI PUSH1 0x0 DUP1 REVERT JUMPDEST POP PUSH2 0x359 PUSH2 0x7B6 CALLDATASIZE PUSH1 0x4 PUSH2 0x25C2 JUMP JUMPDEST PUSH2 0x20D8 JUMP JUMPDEST CALLVALUE DUP1 ISZERO PUSH2 0x7C7 JUMPI PUSH1 0x0 DUP1 REVERT JUMPDEST POP PUSH1 0x5 SLOAD PUSH2 0x37B SWAP1 PUSH1 0x1 PUSH1 0x1 PUSH1 0xA0 SHL SUB AND DUP2 JUMP JUMPDEST PUSH1 0x0 DUP1 PUSH5 0x2540BE400 PUSH2 0x7ED DUP6 PUSH2 0x995 JUMP JUMPDEST PUSH2 0x7F7 SWAP2 SWAP1 PUSH2 0x266C JUMP JUMPDEST SWAP1 POP PUSH1 0x0 DUP2 SGT PUSH2 0x83E JUMPI PUSH1 0x40 MLOAD PUSH3 0x461BCD PUSH1 0xE5 SHL DUP2 MSTORE PUSH1 0x20 PUSH1 0x4 DUP3 ADD MSTORE PUSH1 0x12 PUSH1 0x24 DUP3 ADD MSTORE PUSH18 0x125B9D985B1A59081C1C9A58D94819995959 PUSH1 0x72 SHL PUSH1 0x44 DUP3 ADD MSTORE PUSH1 0x64 ADD PUSH2 0x272 JUMP JUMPDEST PUSH1 0x0 PUSH2 0x849 PUSH1 0x8 SLOAD SWAP1 JUMP JUMPDEST PUSH1 0x0 DUP2 DUP2 MSTORE PUSH1 0xF PUSH1 0x20 MSTORE PUSH1 0x40 DUP2 KECCAK256 PUSH1 0x2 DUP2 ADD SLOAD SWAP3 SWAP4 POP SWAP2 SWAP1 DUP1 DUP9 PUSH1 0x2 DUP2 GT ISZERO PUSH2 0x874 JUMPI PUSH2 0x874 PUSH2 0x25DD JUMP JUMPDEST SUB PUSH2 0x89D JUMPI PUSH8 0xDE0B6B3A7640000 PUSH2 0x88C DUP9 DUP8 PUSH2 0x269C JUMP JUMPDEST PUSH2 0x896 SWAP2 SWAP1 PUSH2 0x26B3 JUMP JUMPDEST SWAP1 POP PUSH2 0x967 JUMP JUMPDEST PUSH1 0x2 DUP9 PUSH1 0x2 DUP2 GT ISZERO PUSH2 0x8B1 JUMPI PUSH2 0x8B1 PUSH2 0x25DD JUMP JUMPDEST EQ DUP1 PUSH2 0x8CE JUMPI POP PUSH1 0x1 DUP9 PUSH1 0x2 DUP2 GT ISZERO PUSH2 0x8CC JUMPI PUSH2 0x8CC PUSH2 0x25DD JUMP JUMPDEST EQ JUMPDEST ISZERO PUSH2 0x91F JUMPI PUSH1 0x6 PUSH1 0x0 PUSH2 0x8E2 DUP3 PUSH1 0x12 PUSH2 0x26D5 JUMP JUMPDEST PUSH2 0x8ED SWAP1 PUSH1 0xA PUSH2 0x27CF JUMP JUMPDEST PUSH2 0x8F7 SWAP1 DUP11 PUSH2 0x269C JUMP JUMPDEST SWAP1 POP PUSH8 0xDE0B6B3A7640000 PUSH2 0x90C DUP3 DUP10 PUSH2 0x269C JUMP JUMPDEST PUSH2 0x916 SWAP2 SWAP1 PUSH2 0x26B3 JUMP JUMPDEST SWAP3 POP POP POP PUSH2 0x967 JUMP JUMPDEST PUSH1 0x40 MLOAD PUSH3 0x461BCD PUSH1 0xE5 SHL DUP2 MSTORE PUSH1 0x20 PUSH1 0x4 DUP3 ADD MSTORE PUSH1 0x1A PUSH1 0x24 DUP3 ADD MSTORE PUSH32 0x556E737570706F72746564207061796D656E74206D6574686F64000000000000 PUSH1 0x44 DUP3 ADD MSTORE PUSH1 0x64 ADD PUSH2 0x272 JUMP JUMPDEST PUSH1 0x0 DUP3 PUSH2 0x97C PUSH8 0xDE0B6B3A7640000 DUP5 PUSH2 0x269C JUMP JUMPDEST PUSH2 0x986 SWAP2 SWAP1 PUSH2 0x26B3 JUMP JUMPDEST SWAP7 POP POP POP POP POP POP POP JUMPDEST SWAP3 SWAP2 POP POP JUMP JUMPDEST PUSH1 0x0 DUP1 DUP3 PUSH1 0x2 DUP2 GT ISZERO PUSH2 0x9AA JUMPI PUSH2 0x9AA PUSH2 0x25DD JUMP JUMPDEST SUB PUSH2 0xA29 JUMPI PUSH1 0x2 SLOAD PUSH1 0x40 DUP1 MLOAD PUSH4 0x3FABE5A3 PUSH1 0xE2 SHL DUP2 MSTORE SWAP1 MLOAD PUSH1 0x0 SWAP3 PUSH1 0x1 PUSH1 0x1 PUSH1 0xA0 SHL SUB AND SWAP2 PUSH4 0xFEAF968C SWAP2 PUSH1 0x4 DUP1 DUP4 ADD SWAP3 PUSH1 0xA0 SWAP3 SWAP2 SWAP1 DUP3 SWAP1 SUB ADD DUP2 DUP7 GAS STATICCALL ISZERO DUP1 ISZERO PUSH2 0x9F9 JUMPI RETURNDATASIZE PUSH1 0x0 DUP1 RETURNDATACOPY RETURNDATASIZE PUSH1 0x0 REVERT JUMPDEST POP POP POP POP PUSH1 0x40 MLOAD RETURNDATASIZE PUSH1 0x1F NOT PUSH1 0x1F DUP3 ADD AND DUP3 ADD DUP1 PUSH1 0x40 MSTORE POP DUP2 ADD SWAP1 PUSH2 0xA1D SWAP2 SWAP1 PUSH2 0x27F5 JUMP JUMPDEST POP SWAP2 SWAP7 SWAP6 POP POP POP POP POP POP JUMP JUMPDEST PUSH1 0x1 DUP3 PUSH1 0x2 DUP2 GT ISZERO PUSH2 0xA3D JUMPI PUSH2 0xA3D PUSH2 0x25DD JUMP JUMPDEST SUB PUSH2 0xA8C JUMPI PUSH1 0x3 SLOAD PUSH1 0x40 DUP1 MLOAD PUSH4 0x3FABE5A3 PUSH1 0xE2 SHL DUP2 MSTORE SWAP1 MLOAD PUSH1 0x0 SWAP3 PUSH1 0x1 PUSH1 0x1 PUSH1 0xA0 SHL SUB AND SWAP2 PUSH4 0xFEAF968C SWAP2 PUSH1 0x4 DUP1 DUP4 ADD SWAP3 PUSH1 0xA0 SWAP3 SWAP2 SWAP1 DUP3 SWAP1 SUB ADD DUP2 DUP7 GAS STATICCALL ISZERO DUP1 ISZERO PUSH2 0x9F9 JUMPI RETURNDATASIZE PUSH1 0x0 DUP1 RETURNDATACOPY RETURNDATASIZE PUSH1 0x0 REVERT JUMPDEST PUSH1 0x2 DUP3 PUSH1 0x2 DUP2 GT ISZERO PUSH2 0xAA0 JUMPI PUSH2 0xAA0 PUSH2 0x25DD JUMP JUMPDEST SUB PUSH2 0x91F JUMPI PUSH1 0x0 PUSH1 0x4 PUSH1 0x0 SWAP1 SLOAD SWAP1 PUSH2 0x100 EXP SWAP1 DIV PUSH1 0x1 PUSH1 0x1 PUSH1 0xA0 SHL SUB AND PUSH1 0x1 PUSH1 0x1 PUSH1 0xA0 SHL SUB AND PUSH4 0xFEAF968C PUSH1 0x40 MLOAD DUP2 PUSH4 0xFFFFFFFF AND PUSH1 0xE0 SHL DUP2 MSTORE PUSH1 0x4 ADD PUSH1 0xA0 PUSH1 0x40 MLOAD DUP1 DUP4 SUB DUP2 DUP7 GAS STATICCALL ISZERO DUP1 ISZERO PUSH2 0x9F9 JUMPI RETURNDATASIZE PUSH1 0x0 DUP1 RETURNDATACOPY RETURNDATASIZE PUSH1 0x0 REVERT JUMPDEST SWAP2 SWAP1 POP JUMP JUMPDEST PUSH1 0x0 DUP1 DUP3 GT PUSH2 0xB5F JUMPI PUSH1 0x40 MLOAD PUSH3 0x461BCD PUSH1 0xE5 SHL DUP2 MSTORE PUSH1 0x20 PUSH1 0x4 DUP3 ADD MSTORE PUSH1 0x26 PUSH1 0x24 DUP3 ADD MSTORE PUSH32 0x546F6B656E20616D6F756E74206D757374206265206772656174657220746861 PUSH1 0x44 DUP3 ADD MSTORE PUSH6 0x6E207A65726F PUSH1 0xD0 SHL PUSH1 0x64 DUP3 ADD MSTORE PUSH1 0x84 ADD PUSH2 0x272 JUMP JUMPDEST PUSH1 0x0 PUSH5 0x2540BE400 PUSH2 0xB70 DUP6 PUSH2 0x995 JUMP JUMPDEST PUSH2 0xB7A SWAP2 SWAP1 PUSH2 0x266C JUMP JUMPDEST SWAP1 POP PUSH1 0x0 DUP2 SGT PUSH2 0xBC1 JUMPI PUSH1 0x40 MLOAD PUSH3 0x461BCD PUSH1 0xE5 SHL DUP2 MSTORE PUSH1 0x20 PUSH1 0x4 DUP3 ADD MSTORE PUSH1 0x12 PUSH1 0x24 DUP3 ADD MSTORE PUSH18 0x125B9D985B1A59081C1C9A58D94819995959 PUSH1 0x72 SHL PUSH1 0x44 DUP3 ADD MSTORE PUSH1 0x64 ADD PUSH2 0x272 JUMP JUMPDEST PUSH1 0x0 PUSH2 0xBCC PUSH1 0x8 SLOAD SWAP1 JUMP JUMPDEST SWAP1 POP DUP1 PUSH1 0x0 SUB PUSH2 0xC0F JUMPI PUSH1 0x40 MLOAD PUSH3 0x461BCD PUSH1 0xE5 SHL DUP2 MSTORE PUSH1 0x20 PUSH1 0x4 DUP3 ADD MSTORE PUSH1 0xE PUSH1 0x24 DUP3 ADD MSTORE PUSH14 0x4E6F206163746976652073616C65 PUSH1 0x90 SHL PUSH1 0x44 DUP3 ADD MSTORE PUSH1 0x64 ADD PUSH2 0x272 JUMP JUMPDEST PUSH1 0x0 DUP2 DUP2 MSTORE PUSH1 0xF PUSH1 0x20 MSTORE PUSH1 0x40 DUP2 KECCAK256 PUSH1 0x2 DUP2 ADD SLOAD SWAP1 SWAP2 PUSH8 0xDE0B6B3A7640000 PUSH2 0xC37 DUP4 DUP10 PUSH2 0x269C JUMP JUMPDEST PUSH2 0xC41 SWAP2 SWAP1 PUSH2 0x26B3 JUMP JUMPDEST SWAP1 POP PUSH1 0x0 DUP1 DUP10 PUSH1 0x2 DUP2 GT ISZERO PUSH2 0xC58 JUMPI PUSH2 0xC58 PUSH2 0x25DD JUMP JUMPDEST SUB PUSH2 0xC81 JUMPI DUP6 PUSH2 0xC70 PUSH8 0xDE0B6B3A7640000 DUP5 PUSH2 0x269C JUMP JUMPDEST PUSH2 0xC7A SWAP2 SWAP1 PUSH2 0x26B3 JUMP JUMPDEST SWAP1 POP PUSH2 0xCC5 JUMP JUMPDEST PUSH1 0x1 DUP10 PUSH1 0x2 DUP2 GT ISZERO PUSH2 0xC95 JUMPI PUSH2 0xC95 PUSH2 0x25DD JUMP JUMPDEST EQ DUP1 PUSH2 0xCB2 JUMPI POP PUSH1 0x2 DUP10 PUSH1 0x2 DUP2 GT ISZERO PUSH2 0xCB0 JUMPI PUSH2 0xCB0 PUSH2 0x25DD JUMP JUMPDEST EQ JUMPDEST ISZERO PUSH2 0x91F JUMPI DUP6 PUSH2 0xC70 DUP4 PUSH3 0xF4240 PUSH2 0x269C JUMP JUMPDEST SWAP9 SWAP8 POP POP POP POP POP POP POP POP JUMP JUMPDEST PUSH2 0xCD9 PUSH2 0x2116 JUMP JUMPDEST PUSH2 0xCE1 PUSH2 0x2140 JUMP JUMPDEST PUSH1 0xB SLOAD PUSH1 0xFF AND ISZERO PUSH2 0xD04 JUMPI PUSH1 0x40 MLOAD PUSH3 0x461BCD PUSH1 0xE5 SHL DUP2 MSTORE PUSH1 0x4 ADD PUSH2 0x272 SWAP1 PUSH2 0x2847 JUMP JUMPDEST PUSH1 0xB SLOAD PUSH3 0x10000 SWAP1 DIV PUSH1 0xFF AND ISZERO PUSH2 0xD2D JUMPI PUSH1 0x40 MLOAD PUSH3 0x461BCD PUSH1 0xE5 SHL DUP2 MSTORE PUSH1 0x4 ADD PUSH2 0x272 SWAP1 PUSH2 0x2876 JUMP JUMPDEST PUSH1 0x6 SLOAD PUSH1 0x9 SLOAD LT ISZERO PUSH2 0xDA7 JUMPI PUSH1 0x40 MLOAD PUSH3 0x461BCD PUSH1 0xE5 SHL DUP2 MSTORE PUSH1 0x20 PUSH1 0x4 DUP3 ADD MSTORE PUSH1 0x38 PUSH1 0x24 DUP3 ADD MSTORE PUSH32 0x43616E6E6F742066696E616C697A653A20536F667420636170206E6F74207265 PUSH1 0x44 DUP3 ADD MSTORE PUSH32 0x6163686564206F722073616C65206973206F6E676F696E670000000000000000 PUSH1 0x64 DUP3 ADD MSTORE PUSH1 0x84 ADD PUSH2 0x272 JUMP JUMPDEST PUSH1 0xB SLOAD PUSH2 0x100 SWAP1 DIV PUSH1 0xFF AND PUSH2 0xDF6 JUMPI PUSH1 0x40 MLOAD PUSH3 0x461BCD PUSH1 0xE5 SHL DUP2 MSTORE PUSH1 0x20 PUSH1 0x4 DUP3 ADD MSTORE PUSH1 0x15 PUSH1 0x24 DUP3 ADD MSTORE PUSH21 0x105A5C991C9BDC081B9BDD0818DBDB5C1B195D1959 PUSH1 0x5A SHL PUSH1 0x44 DUP3 ADD MSTORE PUSH1 0x64 ADD PUSH2 0x272 JUMP JUMPDEST PUSH1 0xB DUP1 SLOAD PUSH1 0xFF NOT AND PUSH1 0x1 OR SWAP1 SSTORE PUSH2 0xE0B PUSH2 0x216D JUMP JUMPDEST PUSH1 0xA SLOAD PUSH1 0x40 MLOAD PUSH32 0x9C4B134DA32AAB35252391880A9F2A3C13A760D7817AE8823F2B301D3522045A SWAP1 PUSH1 0x0 SWAP1 LOG2 PUSH2 0xE41 PUSH1 0x1 PUSH1 0x0 SSTORE JUMP JUMPDEST JUMP JUMPDEST PUSH1 0xC DUP2 DUP2 SLOAD DUP2 LT PUSH2 0xE53 JUMPI PUSH1 0x0 DUP1 REVERT JUMPDEST PUSH1 0x0 SWAP2 DUP3 MSTORE PUSH1 0x20 SWAP1 SWAP2 KECCAK256 ADD SLOAD PUSH1 0x1 PUSH1 0x1 PUSH1 0xA0 SHL SUB AND SWAP1 POP DUP2 JUMP JUMPDEST PUSH2 0xE75 PUSH2 0x2140 JUMP JUMPDEST PUSH1 0xB SLOAD PUSH3 0x10000 SWAP1 DIV PUSH1 0xFF AND ISZERO PUSH2 0xEC0 JUMPI PUSH1 0x40 MLOAD PUSH3 0x461BCD PUSH1 0xE5 SHL DUP2 MSTORE PUSH1 0x20 PUSH1 0x4 DUP3 ADD MSTORE PUSH1 0xF PUSH1 0x24 DUP3 ADD MSTORE PUSH15 0x105B1C9958591E48119C99595E9959 PUSH1 0x8A SHL PUSH1 0x44 DUP3 ADD MSTORE PUSH1 0x64 ADD PUSH2 0x272 JUMP JUMPDEST PUSH1 0xB DUP1 SLOAD PUSH3 0xFF0000 NOT AND PUSH3 0x10000 OR SWAP1 SSTORE JUMP JUMPDEST PUSH2 0xEDB PUSH2 0x2140 JUMP JUMPDEST PUSH1 0xB SLOAD PUSH1 0xFF AND ISZERO PUSH2 0xEFE JUMPI PUSH1 0x40 MLOAD PUSH3 0x461BCD PUSH1 0xE5 SHL DUP2 MSTORE PUSH1 0x4 ADD PUSH2 0x272 SWAP1 PUSH2 0x2847 JUMP JUMPDEST PUSH1 0xB SLOAD PUSH3 0x10000 SWAP1 DIV PUSH1 0xFF AND ISZERO PUSH2 0xF27 JUMPI PUSH1 0x40 MLOAD PUSH3 0x461BCD PUSH1 0xE5 SHL DUP2 MSTORE PUSH1 0x4 ADD PUSH2 0x272 SWAP1 PUSH2 0x2876 JUMP JUMPDEST TIMESTAMP DUP4 GT PUSH2 0xF8B JUMPI PUSH1 0x40 MLOAD PUSH3 0x461BCD PUSH1 0xE5 SHL DUP2 MSTORE PUSH1 0x20 PUSH1 0x4 DUP3 ADD MSTORE PUSH1 0x2C PUSH1 0x24 DUP3 ADD MSTORE PUSH32 0x53746172742074696D65206D7573742062652067726561746572207468616E20 PUSH1 0x44 DUP3 ADD MSTORE PUSH12 0x63757272656E742074696D65 PUSH1 0xA0 SHL PUSH1 0x64 DUP3 ADD MSTORE PUSH1 0x84 ADD PUSH2 0x272 JUMP JUMPDEST DUP3 DUP3 GT PUSH2 0xFEB JUMPI PUSH1 0x40 MLOAD PUSH3 0x461BCD PUSH1 0xE5 SHL DUP2 MSTORE PUSH1 0x20 PUSH1 0x4 DUP3 ADD MSTORE PUSH1 0x28 PUSH1 0x24 DUP3 ADD MSTORE PUSH32 0x456E642074696D65206D7573742062652067726561746572207468616E207374 PUSH1 0x44 DUP3 ADD MSTORE PUSH8 0x6172742074696D65 PUSH1 0xC0 SHL PUSH1 0x64 DUP3 ADD MSTORE PUSH1 0x84 ADD PUSH2 0x272 JUMP JUMPDEST PUSH1 0x8 SLOAD PUSH1 0x0 SWAP1 DUP2 MSTORE PUSH1 0xF PUSH1 0x20 MSTORE PUSH1 0x40 SWAP1 KECCAK256 PUSH1 0x1 ADD SLOAD TIMESTAMP GT PUSH2 0x1063 JUMPI PUSH1 0x40 MLOAD PUSH3 0x461BCD PUSH1 0xE5 SHL DUP2 MSTORE PUSH1 0x20 PUSH1 0x4 DUP3 ADD MSTORE PUSH1 0x2C PUSH1 0x24 DUP3 ADD MSTORE PUSH32 0x4E65772073616C65206D75737420737461727420616674657220746865206C61 PUSH1 0x44 DUP3 ADD MSTORE PUSH12 0x73742073616C6520656E6473 PUSH1 0xA0 SHL PUSH1 0x64 DUP3 ADD MSTORE PUSH1 0x84 ADD PUSH2 0x272 JUMP JUMPDEST PUSH1 0x8 DUP1 SLOAD SWAP1 PUSH1 0x0 PUSH2 0x1073 DUP4 PUSH2 0x2897 JUMP JUMPDEST SWAP1 SWAP2 SSTORE POP POP PUSH1 0x40 DUP1 MLOAD PUSH1 0xA0 DUP2 ADD DUP3 MSTORE DUP5 DUP2 MSTORE PUSH1 0x20 DUP1 DUP3 ADD DUP6 DUP2 MSTORE DUP3 DUP5 ADD DUP6 DUP2 MSTORE PUSH1 0x0 PUSH1 0x60 DUP1 DUP7 ADD DUP3 DUP2 MSTORE PUSH1 0x80 DUP8 ADD DUP4 DUP2 MSTORE PUSH1 0x8 DUP1 SLOAD DUP6 MSTORE PUSH1 0xF DUP9 MSTORE SWAP4 DUP10 SWAP1 KECCAK256 SWAP8 MLOAD DUP9 SSTORE SWAP5 MLOAD PUSH1 0x1 DUP9 ADD SSTORE SWAP3 MLOAD PUSH1 0x2 DUP8 ADD SSTORE SWAP2 MLOAD PUSH1 0x3 DUP7 ADD SSTORE SWAP2 MLOAD PUSH1 0x4 SWAP1 SWAP5 ADD DUP1 SLOAD PUSH1 0xFF NOT AND SWAP5 ISZERO ISZERO SWAP5 SWAP1 SWAP5 OR SWAP1 SWAP4 SSTORE SLOAD DUP4 MLOAD DUP8 DUP2 MSTORE SWAP2 DUP3 ADD DUP7 SWAP1 MSTORE SWAP3 DUP2 ADD DUP5 SWAP1 MSTORE PUSH32 0x63B43FA153147ADE1DE28ED76841CDBC34E510ED94DD1FF5A88E278B0B1AD9BA SWAP2 ADD PUSH1 0x40 MLOAD DUP1 SWAP2 SUB SWAP1 LOG2 POP POP POP JUMP JUMPDEST PUSH2 0x112C PUSH2 0x2140 JUMP JUMPDEST PUSH2 0xE41 PUSH1 0x0 PUSH2 0x24B9 JUMP JUMPDEST PUSH2 0x113E PUSH2 0x2140 JUMP JUMPDEST PUSH1 0xB SLOAD PUSH3 0x10000 SWAP1 DIV PUSH1 0xFF AND PUSH2 0x118A JUMPI PUSH1 0x40 MLOAD PUSH3 0x461BCD PUSH1 0xE5 SHL DUP2 MSTORE PUSH1 0x20 PUSH1 0x4 DUP3 ADD MSTORE PUSH1 0x11 PUSH1 0x24 DUP3 ADD MSTORE PUSH17 0x105B1C9958591E48155B919C99595E9959 PUSH1 0x7A SHL PUSH1 0x44 DUP3 ADD MSTORE PUSH1 0x64 ADD PUSH2 0x272 JUMP JUMPDEST PUSH1 0xB DUP1 SLOAD PUSH3 0xFF0000 NOT AND SWAP1 SSTORE JUMP JUMPDEST PUSH2 0x11A0 PUSH2 0x2116 JUMP JUMPDEST PUSH2 0x11A8 PUSH2 0x2140 JUMP JUMPDEST PUSH1 0xB SLOAD PUSH1 0xFF AND ISZERO PUSH2 0x11CB JUMPI PUSH1 0x40 MLOAD PUSH3 0x461BCD PUSH1 0xE5 SHL DUP2 MSTORE PUSH1 0x4 ADD PUSH2 0x272 SWAP1 PUSH2 0x2847 JUMP JUMPDEST PUSH1 0x8 SLOAD PUSH1 0x0 SWAP1 DUP2 MSTORE PUSH1 0xF PUSH1 0x20 MSTORE PUSH1 0x40 SWAP1 KECCAK256 PUSH1 0x1 ADD SLOAD TIMESTAMP GT PUSH2 0x121D JUMPI PUSH1 0x40 MLOAD PUSH3 0x461BCD PUSH1 0xE5 SHL DUP2 MSTORE PUSH1 0x20 PUSH1 0x4 DUP3 ADD MSTORE PUSH1 0xC PUSH1 0x24 DUP3 ADD MSTORE PUSH12 0x53616C65206F6E676F696E67 PUSH1 0xA0 SHL PUSH1 0x44 DUP3 ADD MSTORE PUSH1 0x64 ADD PUSH2 0x272 JUMP JUMPDEST PUSH1 0x6 SLOAD PUSH1 0x9 SLOAD LT PUSH2 0x1263 JUMPI PUSH1 0x40 MLOAD PUSH3 0x461BCD PUSH1 0xE5 SHL DUP2 MSTORE PUSH1 0x20 PUSH1 0x4 DUP3 ADD MSTORE PUSH1 0x10 PUSH1 0x24 DUP3 ADD MSTORE PUSH16 0x14DBD99D0818D85C081C995858DA1959 PUSH1 0x82 SHL PUSH1 0x44 DUP3 ADD MSTORE PUSH1 0x64 ADD PUSH2 0x272 JUMP JUMPDEST PUSH1 0xC SLOAD PUSH1 0x0 PUSH1 0xA DUP3 GT ISZERO PUSH2 0x1283 JUMPI PUSH2 0x127C PUSH1 0xB DUP4 PUSH2 0x26D5 JUMP JUMPDEST SWAP1 POP PUSH2 0x1287 JUMP JUMPDEST POP PUSH1 0x0 JUMPDEST PUSH1 0x0 PUSH2 0x1294 PUSH1 0x1 DUP5 PUSH2 0x26D5 JUMP JUMPDEST SWAP1 POP JUMPDEST DUP2 DUP2 LT PUSH2 0x167A JUMPI PUSH1 0x0 PUSH1 0xC DUP3 DUP2 SLOAD DUP2 LT PUSH2 0x12B3 JUMPI PUSH2 0x12B3 PUSH2 0x28B0 JUMP JUMPDEST PUSH1 0x0 SWAP2 DUP3 MSTORE PUSH1 0x20 DUP3 KECCAK256 ADD SLOAD PUSH1 0x1 PUSH1 0x1 PUSH1 0xA0 SHL SUB AND SWAP2 POP JUMPDEST PUSH1 0x3 DUP2 PUSH1 0xFF AND LT ISZERO PUSH2 0x1623 JUMPI PUSH1 0x0 DUP2 PUSH1 0xFF AND PUSH1 0x2 DUP2 GT ISZERO PUSH2 0x12ED JUMPI PUSH2 0x12ED PUSH2 0x25DD JUMP JUMPDEST PUSH1 0x1 PUSH1 0x1 PUSH1 0xA0 SHL SUB DUP5 AND PUSH1 0x0 SWAP1 DUP2 MSTORE PUSH1 0x13 PUSH1 0x20 MSTORE PUSH1 0x40 DUP2 KECCAK256 SWAP2 SWAP3 POP SWAP1 DUP2 DUP4 PUSH1 0x2 DUP2 GT ISZERO PUSH2 0x131C JUMPI PUSH2 0x131C PUSH2 0x25DD JUMP JUMPDEST PUSH1 0x2 DUP2 GT ISZERO PUSH2 0x132D JUMPI PUSH2 0x132D PUSH2 0x25DD JUMP JUMPDEST DUP2 MSTORE PUSH1 0x20 ADD SWAP1 DUP2 MSTORE PUSH1 0x20 ADD PUSH1 0x0 KECCAK256 SLOAD SWAP1 POP PUSH1 0x0 DUP2 GT ISZERO PUSH2 0x1619 JUMPI PUSH1 0x1 PUSH1 0x1 PUSH1 0xA0 SHL SUB DUP5 AND PUSH1 0x0 SWAP1 DUP2 MSTORE PUSH1 0x13 PUSH1 0x20 MSTORE PUSH1 0x40 DUP2 KECCAK256 DUP2 DUP5 PUSH1 0x2 DUP2 GT ISZERO PUSH2 0x1372 JUMPI PUSH2 0x1372 PUSH2 0x25DD JUMP JUMPDEST PUSH1 0x2 DUP2 GT ISZERO PUSH2 0x1383 JUMPI PUSH2 0x1383 PUSH2 0x25DD JUMP JUMPDEST DUP2 MSTORE PUSH1 0x20 DUP2 ADD SWAP2 SWAP1 SWAP2 MSTORE PUSH1 0x40 ADD PUSH1 0x0 SWAP1 DUP2 KECCAK256 SWAP2 SWAP1 SWAP2 SSTORE DUP3 PUSH1 0x2 DUP2 GT ISZERO PUSH2 0x13AB JUMPI PUSH2 0x13AB PUSH2 0x25DD JUMP JUMPDEST SUB PUSH2 0x144D JUMPI PUSH1 0x0 DUP5 PUSH1 0x1 PUSH1 0x1 PUSH1 0xA0 SHL SUB AND DUP3 PUSH1 0x40 MLOAD PUSH1 0x0 PUSH1 0x40 MLOAD DUP1 DUP4 SUB DUP2 DUP6 DUP8 GAS CALL SWAP3 POP POP POP RETURNDATASIZE DUP1 PUSH1 0x0 DUP2 EQ PUSH2 0x13FD JUMPI PUSH1 0x40 MLOAD SWAP2 POP PUSH1 0x1F NOT PUSH1 0x3F RETURNDATASIZE ADD AND DUP3 ADD PUSH1 0x40 MSTORE RETURNDATASIZE DUP3 MSTORE RETURNDATASIZE PUSH1 0x0 PUSH1 0x20 DUP5 ADD RETURNDATACOPY PUSH2 0x1402 JUMP JUMPDEST PUSH1 0x60 SWAP2 POP JUMPDEST POP POP SWAP1 POP DUP1 PUSH2 0x1447 JUMPI PUSH1 0x40 MLOAD PUSH3 0x461BCD PUSH1 0xE5 SHL DUP2 MSTORE PUSH1 0x20 PUSH1 0x4 DUP3 ADD MSTORE PUSH1 0x11 PUSH1 0x24 DUP3 ADD MSTORE PUSH17 0x109390881C99599D5B990819985A5B1959 PUSH1 0x7A SHL PUSH1 0x44 DUP3 ADD MSTORE PUSH1 0x64 ADD PUSH2 0x272 JUMP JUMPDEST POP PUSH2 0x15D5 JUMP JUMPDEST PUSH1 0x1 DUP3 PUSH1 0x2 DUP2 GT ISZERO PUSH2 0x1461 JUMPI PUSH2 0x1461 PUSH2 0x25DD JUMP JUMPDEST EQ DUP1 PUSH2 0x147E JUMPI POP PUSH1 0x2 DUP3 PUSH1 0x2 DUP2 GT ISZERO PUSH2 0x147C JUMPI PUSH2 0x147C PUSH2 0x25DD JUMP JUMPDEST EQ JUMPDEST ISZERO PUSH2 0x157F JUMPI PUSH1 0x0 PUSH1 0x1 DUP4 PUSH1 0x2 DUP2 GT ISZERO PUSH2 0x1499 JUMPI PUSH2 0x1499 PUSH2 0x25DD JUMP JUMPDEST EQ PUSH2 0x14AF JUMPI PUSH1 0xE SLOAD PUSH1 0x1 PUSH1 0x1 PUSH1 0xA0 SHL SUB AND PUSH2 0x14BC JUMP JUMPDEST PUSH1 0xD SLOAD PUSH1 0x1 PUSH1 0x1 PUSH1 0xA0 SHL SUB AND JUMPDEST PUSH1 0x40 MLOAD PUSH4 0xA9059CBB PUSH1 0xE0 SHL DUP2 MSTORE PUSH1 0x1 PUSH1 0x1 PUSH1 0xA0 SHL SUB DUP8 DUP2 AND PUSH1 0x4 DUP4 ADD MSTORE PUSH1 0x24 DUP3 ADD DUP6 SWAP1 MSTORE SWAP2 SWAP3 POP SWAP1 DUP3 AND SWAP1 PUSH4 0xA9059CBB SWAP1 PUSH1 0x44 ADD PUSH1 0x20 PUSH1 0x40 MLOAD DUP1 DUP4 SUB DUP2 PUSH1 0x0 DUP8 GAS CALL ISZERO DUP1 ISZERO PUSH2 0x150F JUMPI RETURNDATASIZE PUSH1 0x0 DUP1 RETURNDATACOPY RETURNDATASIZE PUSH1 0x0 REVERT JUMPDEST POP POP POP POP PUSH1 0x40 MLOAD RETURNDATASIZE PUSH1 0x1F NOT PUSH1 0x1F DUP3 ADD AND DUP3 ADD DUP1 PUSH1 0x40 MSTORE POP DUP2 ADD SWAP1 PUSH2 0x1533 SWAP2 SWAP1 PUSH2 0x28C6 JUMP JUMPDEST PUSH2 0x1447 JUMPI PUSH1 0x40 MLOAD PUSH3 0x461BCD PUSH1 0xE5 SHL DUP2 MSTORE PUSH1 0x20 PUSH1 0x4 DUP3 ADD MSTORE PUSH1 0x18 PUSH1 0x24 DUP3 ADD MSTORE PUSH32 0x537461626C65636F696E20726566756E64206661696C65640000000000000000 PUSH1 0x44 DUP3 ADD MSTORE PUSH1 0x64 ADD PUSH2 0x272 JUMP JUMPDEST PUSH1 0x40 MLOAD PUSH3 0x461BCD PUSH1 0xE5 SHL DUP2 MSTORE PUSH1 0x20 PUSH1 0x4 DUP3 ADD MSTORE PUSH1 0x25 PUSH1 0x24 DUP3 ADD MSTORE PUSH32 0x556E737570706F72746564207061796D656E74206D6574686F6420666F722072 PUSH1 0x44 DUP3 ADD MSTORE PUSH5 0x19599D5B99 PUSH1 0xDA SHL PUSH1 0x64 DUP3 ADD MSTORE PUSH1 0x84 ADD PUSH2 0x272 JUMP JUMPDEST DUP4 PUSH1 0x1 PUSH1 0x1 PUSH1 0xA0 SHL SUB AND PUSH32 0x3829AB241648D7348F97E4F77D36451330F2276EA8EEB3428E462012F9699E7 DUP3 DUP5 PUSH1 0x40 MLOAD PUSH2 0x1610 SWAP3 SWAP2 SWAP1 PUSH2 0x28E8 JUMP JUMPDEST PUSH1 0x40 MLOAD DUP1 SWAP2 SUB SWAP1 LOG2 JUMPDEST POP POP PUSH1 0x1 ADD PUSH2 0x12CA JUMP JUMPDEST POP PUSH1 0xC DUP1 SLOAD DUP1 PUSH2 0x1635 JUMPI PUSH2 0x1635 PUSH2 0x28FC JUMP JUMPDEST PUSH1 0x0 DUP3 DUP2 MSTORE PUSH1 0x20 DUP2 KECCAK256 DUP3 ADD PUSH1 0x0 NOT SWAP1 DUP2 ADD DUP1 SLOAD PUSH1 0x1 PUSH1 0x1 PUSH1 0xA0 SHL SUB NOT AND SWAP1 SSTORE SWAP1 SWAP2 ADD SWAP1 SWAP2 SSTORE DUP3 SWAP1 SUB PUSH2 0x1667 JUMPI POP PUSH2 0x167A JUMP JUMPDEST POP DUP1 PUSH2 0x1672 DUP2 PUSH2 0x2912 JUMP JUMPDEST SWAP2 POP POP PUSH2 0x1297 JUMP JUMPDEST POP PUSH1 0xC SLOAD PUSH1 0x0 SUB PUSH2 0x1693 JUMPI PUSH1 0xB DUP1 SLOAD PUSH1 0xFF NOT AND PUSH1 0x1 OR SWAP1 SSTORE JUMPDEST POP POP PUSH2 0xE41 PUSH1 0x1 PUSH1 0x0 SSTORE JUMP JUMPDEST PUSH2 0x16A7 PUSH2 0x2116 JUMP JUMPDEST PUSH2 0x16AF PUSH2 0x2140 JUMP JUMPDEST PUSH1 0xB SLOAD PUSH1 0xFF AND ISZERO PUSH2 0x16D2 JUMPI PUSH1 0x40 MLOAD PUSH3 0x461BCD PUSH1 0xE5 SHL DUP2 MSTORE PUSH1 0x4 ADD PUSH2 0x272 SWAP1 PUSH2 0x2847 JUMP JUMPDEST PUSH1 0xB SLOAD PUSH3 0x10000 SWAP1 DIV PUSH1 0xFF AND ISZERO PUSH2 0x16FB JUMPI PUSH1 0x40 MLOAD PUSH3 0x461BCD PUSH1 0xE5 SHL DUP2 MSTORE PUSH1 0x4 ADD PUSH2 0x272 SWAP1 PUSH2 0x2876 JUMP JUMPDEST PUSH1 0xB SLOAD PUSH2 0x100 SWAP1 DIV PUSH1 0xFF AND ISZERO PUSH2 0x1753 JUMPI PUSH1 0x40 MLOAD PUSH3 0x461BCD PUSH1 0xE5 SHL DUP2 MSTORE PUSH1 0x20 PUSH1 0x4 DUP3 ADD MSTORE PUSH1 0x19 PUSH1 0x24 DUP3 ADD MSTORE PUSH32 0x41697264726F7020616C726561647920636F6D706C6574656400000000000000 PUSH1 0x44 DUP3 ADD MSTORE PUSH1 0x64 ADD PUSH2 0x272 JUMP JUMPDEST PUSH1 0xA SLOAD PUSH1 0x5 SLOAD PUSH1 0x40 MLOAD PUSH4 0x70A08231 PUSH1 0xE0 SHL DUP2 MSTORE CALLER PUSH1 0x4 DUP3 ADD MSTORE PUSH1 0x1 PUSH1 0x1 PUSH1 0xA0 SHL SUB SWAP1 SWAP2 AND SWAP1 PUSH4 0x70A08231 SWAP1 PUSH1 0x24 ADD PUSH1 0x20 PUSH1 0x40 MLOAD DUP1 DUP4 SUB DUP2 DUP7 GAS STATICCALL ISZERO DUP1 ISZERO PUSH2 0x179E JUMPI RETURNDATASIZE PUSH1 0x0 DUP1 RETURNDATACOPY RETURNDATASIZE PUSH1 0x0 REVERT JUMPDEST POP POP POP POP PUSH1 0x40 MLOAD RETURNDATASIZE PUSH1 0x1F NOT PUSH1 0x1F DUP3 ADD AND DUP3 ADD DUP1 PUSH1 0x40 MSTORE POP DUP2 ADD SWAP1 PUSH2 0x17C2 SWAP2 SWAP1 PUSH2 0x2929 JUMP JUMPDEST LT ISZERO PUSH2 0x1805 JUMPI PUSH1 0x40 MLOAD PUSH3 0x461BCD PUSH1 0xE5 SHL DUP2 MSTORE PUSH1 0x20 PUSH1 0x4 DUP3 ADD MSTORE PUSH1 0x12 PUSH1 0x24 DUP3 ADD MSTORE PUSH18 0x496E73756666696369656E742046756E6473 PUSH1 0x70 SHL PUSH1 0x44 DUP3 ADD MSTORE PUSH1 0x64 ADD PUSH2 0x272 JUMP JUMPDEST PUSH1 0x8 SLOAD PUSH1 0x0 SWAP1 DUP2 MSTORE PUSH1 0xF PUSH1 0x20 MSTORE PUSH1 0x40 SWAP1 KECCAK256 PUSH1 0x1 ADD SLOAD TIMESTAMP GT PUSH2 0x1857 JUMPI PUSH1 0x40 MLOAD PUSH3 0x461BCD PUSH1 0xE5 SHL DUP2 MSTORE PUSH1 0x20 PUSH1 0x4 DUP3 ADD MSTORE PUSH1 0xC PUSH1 0x24 DUP3 ADD MSTORE PUSH12 0x53616C65206F6E676F696E67 PUSH1 0xA0 SHL PUSH1 0x44 DUP3 ADD MSTORE PUSH1 0x64 ADD PUSH2 0x272 JUMP JUMPDEST PUSH1 0xC SLOAD PUSH1 0x0 PUSH1 0xA DUP3 GT ISZERO PUSH2 0x1877 JUMPI PUSH2 0x1870 PUSH1 0xB DUP4 PUSH2 0x26D5 JUMP JUMPDEST SWAP1 POP PUSH2 0x187B JUMP JUMPDEST POP PUSH1 0x0 JUMPDEST PUSH1 0x0 PUSH2 0x1888 PUSH1 0x1 DUP5 PUSH2 0x26D5 JUMP JUMPDEST SWAP1 POP JUMPDEST DUP2 DUP2 LT PUSH2 0x1A59 JUMPI PUSH1 0x0 PUSH1 0xC DUP3 DUP2 SLOAD DUP2 LT PUSH2 0x18A7 JUMPI PUSH2 0x18A7 PUSH2 0x28B0 JUMP JUMPDEST PUSH1 0x0 SWAP2 DUP3 MSTORE PUSH1 0x20 DUP1 DUP4 KECCAK256 SWAP1 SWAP2 ADD SLOAD PUSH1 0x1 PUSH1 0x1 PUSH1 0xA0 SHL SUB AND DUP1 DUP4 MSTORE PUSH1 0x11 SWAP1 SWAP2 MSTORE PUSH1 0x40 SWAP1 SWAP2 KECCAK256 SLOAD SWAP1 SWAP2 POP DUP1 ISZERO PUSH2 0x1A35 JUMPI PUSH1 0x5 SLOAD PUSH1 0x0 SWAP1 PUSH1 0x1 PUSH1 0x1 PUSH1 0xA0 SHL SUB AND PUSH4 0x23B872DD PUSH2 0x18FB PUSH1 0x1 SLOAD PUSH1 0x1 PUSH1 0x1 PUSH1 0xA0 SHL SUB AND SWAP1 JUMP JUMPDEST PUSH1 0x40 MLOAD PUSH1 0x1 PUSH1 0x1 PUSH1 0xE0 SHL SUB NOT PUSH1 0xE0 DUP5 SWAP1 SHL AND DUP2 MSTORE PUSH1 0x1 PUSH1 0x1 PUSH1 0xA0 SHL SUB SWAP2 DUP3 AND PUSH1 0x4 DUP3 ADD MSTORE SWAP1 DUP7 AND PUSH1 0x24 DUP3 ADD MSTORE PUSH1 0x44 DUP2 ADD DUP6 SWAP1 MSTORE PUSH1 0x64 ADD PUSH1 0x20 PUSH1 0x40 MLOAD DUP1 DUP4 SUB DUP2 PUSH1 0x0 DUP8 GAS CALL ISZERO DUP1 ISZERO PUSH2 0x1950 JUMPI RETURNDATASIZE PUSH1 0x0 DUP1 RETURNDATACOPY RETURNDATASIZE PUSH1 0x0 REVERT JUMPDEST POP POP POP POP PUSH1 0x40 MLOAD RETURNDATASIZE PUSH1 0x1F NOT PUSH1 0x1F DUP3 ADD AND DUP3 ADD DUP1 PUSH1 0x40 MSTORE POP DUP2 ADD SWAP1 PUSH2 0x1974 SWAP2 SWAP1 PUSH2 0x28C6 JUMP JUMPDEST SWAP1 POP DUP1 PUSH2 0x19BB JUMPI PUSH1 0x40 MLOAD PUSH3 0x461BCD PUSH1 0xE5 SHL DUP2 MSTORE PUSH1 0x20 PUSH1 0x4 DUP3 ADD MSTORE PUSH1 0x15 PUSH1 0x24 DUP3 ADD MSTORE PUSH21 0x151BDAD95B881D1C985B9CD9995C8819985A5B1959 PUSH1 0x5A SHL PUSH1 0x44 DUP3 ADD MSTORE PUSH1 0x64 ADD PUSH2 0x272 JUMP JUMPDEST PUSH1 0xC DUP1 SLOAD DUP1 PUSH2 0x19CC JUMPI PUSH2 0x19CC PUSH2 0x28FC JUMP JUMPDEST PUSH1 0x0 DUP3 DUP2 MSTORE PUSH1 0x20 SWAP1 KECCAK256 DUP2 ADD PUSH1 0x0 NOT SWAP1 DUP2 ADD DUP1 SLOAD PUSH1 0x1 PUSH1 0x1 PUSH1 0xA0 SHL SUB NOT AND SWAP1 SSTORE ADD SWAP1 SSTORE PUSH1 0x40 MLOAD PUSH1 0x1 PUSH1 0x1 PUSH1 0xA0 SHL SUB DUP5 AND SWAP1 PUSH32 0x9BDCD0CC5503FB9A8DD7311D9617E33108C4B7C8948CC544B16C1FD63C6F475B SWAP1 PUSH2 0x1A2B SWAP1 DUP6 DUP2 MSTORE PUSH1 0x20 ADD SWAP1 JUMP JUMPDEST PUSH1 0x40 MLOAD DUP1 SWAP2 SUB SWAP1 LOG2 POP JUMPDEST DUP3 PUSH1 0x0 SUB PUSH2 0x1A44 JUMPI POP POP PUSH2 0x1A59 JUMP JUMPDEST POP POP DUP1 DUP1 PUSH2 0x1A51 SWAP1 PUSH2 0x2912 JUMP JUMPDEST SWAP2 POP POP PUSH2 0x188B JUMP JUMPDEST POP PUSH1 0xC SLOAD PUSH1 0x0 SUB PUSH2 0x1693 JUMPI PUSH1 0xB DUP1 SLOAD PUSH2 0xFF00 NOT AND PUSH2 0x100 OR SWAP1 SSTORE POP POP PUSH2 0xE41 PUSH1 0x1 PUSH1 0x0 SSTORE JUMP JUMPDEST PUSH1 0xB SLOAD PUSH1 0xFF AND ISZERO PUSH2 0x1AA2 JUMPI PUSH1 0x40 MLOAD PUSH3 0x461BCD PUSH1 0xE5 SHL DUP2 MSTORE PUSH1 0x4 ADD PUSH2 0x272 SWAP1 PUSH2 0x2847 JUMP JUMPDEST PUSH1 0xB SLOAD PUSH3 0x10000 SWAP1 DIV PUSH1 0xFF AND ISZERO PUSH2 0x1ACB JUMPI PUSH1 0x40 MLOAD PUSH3 0x461BCD PUSH1 0xE5 SHL DUP2 MSTORE PUSH1 0x4 ADD PUSH2 0x272 SWAP1 PUSH2 0x2876 JUMP JUMPDEST PUSH1 0x1 SLOAD PUSH1 0x1 PUSH1 0x1 PUSH1 0xA0 SHL SUB AND CALLER SUB PUSH2 0x1B25 JUMPI PUSH1 0x40 MLOAD PUSH3 0x461BCD PUSH1 0xE5 SHL DUP2 MSTORE PUSH1 0x20 PUSH1 0x4 DUP3 ADD MSTORE PUSH1 0x17 PUSH1 0x24 DUP3 ADD MSTORE PUSH32 0x4F776E65722063616E6E6F742062757920746F6B656E73000000000000000000 PUSH1 0x44 DUP3 ADD MSTORE PUSH1 0x64 ADD PUSH2 0x272 JUMP JUMPDEST PUSH1 0x8 SLOAD PUSH1 0x0 SUB PUSH2 0x1B61 JUMPI PUSH1 0x40 MLOAD PUSH3 0x461BCD PUSH1 0xE5 SHL DUP2 MSTORE PUSH1 0x20 PUSH1 0x4 DUP3 ADD MSTORE PUSH1 0x7 PUSH1 0x24 DUP3 ADD MSTORE PUSH7 0x4E6F2073616C65 PUSH1 0xC8 SHL PUSH1 0x44 DUP3 ADD MSTORE PUSH1 0x64 ADD PUSH2 0x272 JUMP JUMPDEST PUSH1 0x8 SLOAD PUSH1 0x0 SWAP1 DUP2 MSTORE PUSH1 0xF PUSH1 0x20 MSTORE PUSH1 0x40 SWAP1 KECCAK256 PUSH1 0x4 ADD SLOAD PUSH1 0xFF AND ISZERO PUSH2 0x1BBF JUMPI PUSH1 0x40 MLOAD PUSH3 0x461BCD PUSH1 0xE5 SHL DUP2 MSTORE PUSH1 0x20 PUSH1 0x4 DUP3 ADD MSTORE PUSH1 0x16 PUSH1 0x24 DUP3 ADD MSTORE PUSH22 0x14D85B1948185B1C9958591E48199A5B985B1A5E9959 PUSH1 0x52 SHL PUSH1 0x44 DUP3 ADD MSTORE PUSH1 0x64 ADD PUSH2 0x272 JUMP JUMPDEST PUSH1 0x0 DUP1 DUP4 PUSH1 0x2 DUP2 GT ISZERO PUSH2 0x1BD4 JUMPI PUSH2 0x1BD4 PUSH2 0x25DD JUMP JUMPDEST SUB PUSH2 0x1C93 JUMPI PUSH1 0x0 CALLVALUE GT PUSH2 0x1C29 JUMPI PUSH1 0x40 MLOAD PUSH3 0x461BCD PUSH1 0xE5 SHL DUP2 MSTORE PUSH1 0x20 PUSH1 0x4 DUP3 ADD MSTORE PUSH1 0x17 PUSH1 0x24 DUP3 ADD MSTORE PUSH32 0x53656E6420612076616C696420424E4220616D6F756E74000000000000000000 PUSH1 0x44 DUP3 ADD MSTORE PUSH1 0x64 ADD PUSH2 0x272 JUMP JUMPDEST PUSH2 0x1C33 DUP4 CALLVALUE PUSH2 0x7DB JUMP JUMPDEST CALLER PUSH1 0x0 SWAP1 DUP2 MSTORE PUSH1 0x13 PUSH1 0x20 MSTORE PUSH1 0x40 DUP2 KECCAK256 SWAP2 SWAP3 POP CALLVALUE SWAP2 SWAP1 DUP6 PUSH1 0x2 DUP2 GT ISZERO PUSH2 0x1C5A JUMPI PUSH2 0x1C5A PUSH2 0x25DD JUMP JUMPDEST PUSH1 0x2 DUP2 GT ISZERO PUSH2 0x1C6B JUMPI PUSH2 0x1C6B PUSH2 0x25DD JUMP JUMPDEST DUP2 MSTORE PUSH1 0x20 ADD SWAP1 DUP2 MSTORE PUSH1 0x20 ADD PUSH1 0x0 KECCAK256 PUSH1 0x0 DUP3 DUP3 SLOAD PUSH2 0x1C88 SWAP2 SWAP1 PUSH2 0x2942 JUMP JUMPDEST SWAP1 SWAP2 SSTORE POP PUSH2 0x1E83 SWAP1 POP JUMP JUMPDEST PUSH1 0x1 DUP4 PUSH1 0x2 DUP2 GT ISZERO PUSH2 0x1CA7 JUMPI PUSH2 0x1CA7 PUSH2 0x25DD JUMP JUMPDEST EQ DUP1 PUSH2 0x1CC4 JUMPI POP PUSH1 0x2 DUP4 PUSH1 0x2 DUP2 GT ISZERO PUSH2 0x1CC2 JUMPI PUSH2 0x1CC2 PUSH2 0x25DD JUMP JUMPDEST EQ JUMPDEST ISZERO PUSH2 0x91F JUMPI PUSH1 0x0 DUP3 GT PUSH2 0x1D19 JUMPI PUSH1 0x40 MLOAD PUSH3 0x461BCD PUSH1 0xE5 SHL DUP2 MSTORE PUSH1 0x20 PUSH1 0x4 DUP3 ADD MSTORE PUSH1 0x1F PUSH1 0x24 DUP3 ADD MSTORE PUSH32 0x456E74657220612076616C696420737461626C65636F696E20616D6F756E7400 PUSH1 0x44 DUP3 ADD MSTORE PUSH1 0x64 ADD PUSH2 0x272 JUMP JUMPDEST PUSH1 0x0 PUSH1 0x1 DUP5 PUSH1 0x2 DUP2 GT ISZERO PUSH2 0x1D2F JUMPI PUSH2 0x1D2F PUSH2 0x25DD JUMP JUMPDEST EQ PUSH2 0x1D45 JUMPI PUSH1 0xE SLOAD PUSH1 0x1 PUSH1 0x1 PUSH1 0xA0 SHL SUB AND PUSH2 0x1D52 JUMP JUMPDEST PUSH1 0xD SLOAD PUSH1 0x1 PUSH1 0x1 PUSH1 0xA0 SHL SUB AND JUMPDEST PUSH1 0x40 MLOAD PUSH4 0x23B872DD PUSH1 0xE0 SHL DUP2 MSTORE CALLER PUSH1 0x4 DUP3 ADD MSTORE ADDRESS PUSH1 0x24 DUP3 ADD MSTORE PUSH1 0x44 DUP2 ADD DUP6 SWAP1 MSTORE SWAP1 SWAP2 POP PUSH1 0x1 PUSH1 0x1 PUSH1 0xA0 SHL SUB DUP3 AND SWAP1 PUSH4 0x23B872DD SWAP1 PUSH1 0x64 ADD PUSH1 0x20 PUSH1 0x40 MLOAD DUP1 DUP4 SUB DUP2 PUSH1 0x0 DUP8 GAS CALL ISZERO DUP1 ISZERO PUSH2 0x1DA8 JUMPI RETURNDATASIZE PUSH1 0x0 DUP1 RETURNDATACOPY RETURNDATASIZE PUSH1 0x0 REVERT JUMPDEST POP POP POP POP PUSH1 0x40 MLOAD RETURNDATASIZE PUSH1 0x1F NOT PUSH1 0x1F DUP3 ADD AND DUP3 ADD DUP1 PUSH1 0x40 MSTORE POP DUP2 ADD SWAP1 PUSH2 0x1DCC SWAP2 SWAP1 PUSH2 0x28C6 JUMP JUMPDEST PUSH2 0x1E18 JUMPI PUSH1 0x40 MLOAD PUSH3 0x461BCD PUSH1 0xE5 SHL DUP2 MSTORE PUSH1 0x20 PUSH1 0x4 DUP3 ADD MSTORE PUSH1 0x1A PUSH1 0x24 DUP3 ADD MSTORE PUSH32 0x537461626C65636F696E207472616E73666572206661696C6564000000000000 PUSH1 0x44 DUP3 ADD MSTORE PUSH1 0x64 ADD PUSH2 0x272 JUMP JUMPDEST PUSH2 0x1E22 DUP5 DUP5 PUSH2 0x7DB JUMP JUMPDEST CALLER PUSH1 0x0 SWAP1 DUP2 MSTORE PUSH1 0x13 PUSH1 0x20 MSTORE PUSH1 0x40 DUP2 KECCAK256 SWAP2 SWAP4 POP DUP5 SWAP2 SWAP1 DUP7 PUSH1 0x2 DUP2 GT ISZERO PUSH2 0x1E49 JUMPI PUSH2 0x1E49 PUSH2 0x25DD JUMP JUMPDEST PUSH1 0x2 DUP2 GT ISZERO PUSH2 0x1E5A JUMPI PUSH2 0x1E5A PUSH2 0x25DD JUMP JUMPDEST DUP2 MSTORE PUSH1 0x20 ADD SWAP1 DUP2 MSTORE PUSH1 0x20 ADD PUSH1 0x0 KECCAK256 PUSH1 0x0 DUP3 DUP3 SLOAD PUSH2 0x1E77 SWAP2 SWAP1 PUSH2 0x2942 JUMP JUMPDEST SWAP1 SWAP2 SSTORE POP PUSH2 0x1E83 SWAP2 POP POP JUMP JUMPDEST PUSH1 0x0 DUP2 GT PUSH2 0x1ECA JUMPI PUSH1 0x40 MLOAD PUSH3 0x461BCD PUSH1 0xE5 SHL DUP2 MSTORE PUSH1 0x20 PUSH1 0x4 DUP3 ADD MSTORE PUSH1 0x14 PUSH1 0x24 DUP3 ADD MSTORE PUSH20 0x125B9D985B1A59081D1BDAD95B88185B5BDD5B9D PUSH1 0x62 SHL PUSH1 0x44 DUP3 ADD MSTORE PUSH1 0x64 ADD PUSH2 0x272 JUMP JUMPDEST PUSH1 0x8 SLOAD PUSH1 0x0 SWAP1 DUP2 MSTORE PUSH1 0xF PUSH1 0x20 MSTORE PUSH1 0x40 DUP2 KECCAK256 PUSH1 0x2 ADD SLOAD PUSH8 0xDE0B6B3A7640000 SWAP1 PUSH2 0x1EF3 SWAP1 DUP5 PUSH2 0x269C JUMP JUMPDEST PUSH2 0x1EFD SWAP2 SWAP1 PUSH2 0x26B3 JUMP JUMPDEST SWAP1 POP PUSH1 0x7 SLOAD DUP2 PUSH1 0x9 SLOAD PUSH2 0x1F10 SWAP2 SWAP1 PUSH2 0x2942 JUMP JUMPDEST GT ISZERO PUSH2 0x1F51 JUMPI PUSH1 0x40 MLOAD PUSH3 0x461BCD PUSH1 0xE5 SHL DUP2 MSTORE PUSH1 0x20 PUSH1 0x4 DUP3 ADD MSTORE PUSH1 0x10 PUSH1 0x24 DUP3 ADD MSTORE PUSH16 0x12185C990818D85C081C995858DA1959 PUSH1 0x82 SHL PUSH1 0x44 DUP3 ADD MSTORE PUSH1 0x64 ADD PUSH2 0x272 JUMP JUMPDEST CALLER PUSH1 0x0 SWAP1 DUP2 MSTORE PUSH1 0x10 PUSH1 0x20 MSTORE PUSH1 0x40 DUP2 KECCAK256 DUP1 SLOAD DUP4 SWAP3 SWAP1 PUSH2 0x1F70 SWAP1 DUP5 SWAP1 PUSH2 0x2942 JUMP JUMPDEST SWAP3 POP POP DUP2 SWAP1 SSTORE POP DUP1 PUSH1 0x9 PUSH1 0x0 DUP3 DUP3 SLOAD PUSH2 0x1F89 SWAP2 SWAP1 PUSH2 0x2942 JUMP JUMPDEST SWAP1 SWAP2 SSTORE POP POP PUSH1 0x8 SLOAD PUSH1 0x0 SWAP1 DUP2 MSTORE PUSH1 0xF PUSH1 0x20 MSTORE PUSH1 0x40 DUP2 KECCAK256 PUSH1 0x3 ADD DUP1 SLOAD DUP5 SWAP3 SWAP1 PUSH2 0x1FB2 SWAP1 DUP5 SWAP1 PUSH2 0x2942 JUMP JUMPDEST SWAP3 POP POP DUP2 SWAP1 SSTORE POP DUP2 PUSH1 0xA PUSH1 0x0 DUP3 DUP3 SLOAD PUSH2 0x1FCB SWAP2 SWAP1 PUSH2 0x2942 JUMP JUMPDEST SWAP1 SWAP2 SSTORE POP POP CALLER PUSH1 0x0 SWAP1 DUP2 MSTORE PUSH1 0x11 PUSH1 0x20 MSTORE PUSH1 0x40 DUP2 KECCAK256 SLOAD SWAP1 SUB PUSH2 0x2029 JUMPI PUSH1 0xC DUP1 SLOAD PUSH1 0x1 DUP2 ADD DUP3 SSTORE PUSH1 0x0 SWAP2 SWAP1 SWAP2 MSTORE PUSH32 0xDF6966C971051C3D54EC59162606531493A51404A002842F56009D7E5CF4A8C7 ADD DUP1 SLOAD PUSH1 0x1 PUSH1 0x1 PUSH1 0xA0 SHL SUB NOT AND CALLER OR SWAP1 SSTORE JUMPDEST CALLER PUSH1 0x0 SWAP1 DUP2 MSTORE PUSH1 0x11 PUSH1 0x20 MSTORE PUSH1 0x40 DUP2 KECCAK256 DUP1 SLOAD DUP5 SWAP3 SWAP1 PUSH2 0x2048 SWAP1 DUP5 SWAP1 PUSH2 0x2942 JUMP JUMPDEST SWAP1 SWAP2 SSTORE POP POP CALLER PUSH1 0x0 SWAP1 DUP2 MSTORE PUSH1 0x12 PUSH1 0x20 MSTORE PUSH1 0x40 SWAP1 KECCAK256 DUP1 SLOAD DUP6 SWAP2 SWAP1 PUSH1 0xFF NOT AND PUSH1 0x1 DUP4 PUSH1 0x2 DUP2 GT ISZERO PUSH2 0x2079 JUMPI PUSH2 0x2079 PUSH2 0x25DD JUMP JUMPDEST MUL OR SWAP1 SSTORE POP PUSH1 0x8 SLOAD PUSH1 0x0 DUP2 DUP2 MSTORE PUSH1 0xF PUSH1 0x20 MSTORE PUSH1 0x40 SWAP1 DUP2 SWAP1 KECCAK256 PUSH1 0x2 ADD SLOAD SWAP1 MLOAD CALLER SWAP2 PUSH32 0xDBCEF474A632721725D49E3F35D9DEFE0257100B01D1E4B4B135B14D6FE296E8 SWAP2 PUSH2 0x20CA SWAP2 DUP8 SWAP2 DUP10 SWAP1 DUP12 SWAP1 PUSH2 0x2955 JUMP JUMPDEST PUSH1 0x40 MLOAD DUP1 SWAP2 SUB SWAP1 LOG3 POP POP POP POP JUMP JUMPDEST PUSH2 0x20E0 PUSH2 0x2140 JUMP JUMPDEST PUSH1 0x1 PUSH1 0x1 PUSH1 0xA0 SHL SUB DUP2 AND PUSH2 0x210A JUMPI PUSH1 0x40 MLOAD PUSH4 0x1E4FBDF7 PUSH1 0xE0 SHL DUP2 MSTORE PUSH1 0x0 PUSH1 0x4 DUP3 ADD MSTORE PUSH1 0x24 ADD PUSH2 0x272 JUMP JUMPDEST PUSH2 0x2113 DUP2 PUSH2 0x24B9 JUMP JUMPDEST POP JUMP JUMPDEST PUSH1 0x2 PUSH1 0x0 SLOAD SUB PUSH2 0x2139 JUMPI PUSH1 0x40 MLOAD PUSH4 0x3EE5AEB5 PUSH1 0xE0 SHL DUP2 MSTORE PUSH1 0x4 ADD PUSH1 0x40 MLOAD DUP1 SWAP2 SUB SWAP1 REVERT JUMPDEST PUSH1 0x2 PUSH1 0x0 SSTORE JUMP JUMPDEST PUSH1 0x1 SLOAD PUSH1 0x1 PUSH1 0x1 PUSH1 0xA0 SHL SUB AND CALLER EQ PUSH2 0xE41 JUMPI PUSH1 0x40 MLOAD PUSH4 0x118CDAA7 PUSH1 0xE0 SHL DUP2 MSTORE CALLER PUSH1 0x4 DUP3 ADD MSTORE PUSH1 0x24 ADD PUSH2 0x272 JUMP JUMPDEST SELFBALANCE DUP1 ISZERO PUSH2 0x221C JUMPI PUSH1 0x0 PUSH2 0x2188 PUSH1 0x1 SLOAD PUSH1 0x1 PUSH1 0x1 PUSH1 0xA0 SHL SUB AND SWAP1 JUMP JUMPDEST PUSH1 0x1 PUSH1 0x1 PUSH1 0xA0 SHL SUB AND DUP3 PUSH1 0x40 MLOAD PUSH1 0x0 PUSH1 0x40 MLOAD DUP1 DUP4 SUB DUP2 DUP6 DUP8 GAS CALL SWAP3 POP POP POP RETURNDATASIZE DUP1 PUSH1 0x0 DUP2 EQ PUSH2 0x21D2 JUMPI PUSH1 0x40 MLOAD SWAP2 POP PUSH1 0x1F NOT PUSH1 0x3F RETURNDATASIZE ADD AND DUP3 ADD PUSH1 0x40 MSTORE RETURNDATASIZE DUP3 MSTORE RETURNDATASIZE PUSH1 0x0 PUSH1 0x20 DUP5 ADD RETURNDATACOPY PUSH2 0x21D7 JUMP JUMPDEST PUSH1 0x60 SWAP2 POP JUMPDEST POP POP SWAP1 POP DUP1 PUSH2 0x221A JUMPI PUSH1 0x40 MLOAD PUSH3 0x461BCD PUSH1 0xE5 SHL DUP2 MSTORE PUSH1 0x20 PUSH1 0x4 DUP3 ADD MSTORE PUSH1 0xF PUSH1 0x24 DUP3 ADD MSTORE PUSH15 0x151C985B9CD9995C8819985A5B1959 PUSH1 0x8A SHL PUSH1 0x44 DUP3 ADD MSTORE PUSH1 0x64 ADD PUSH2 0x272 JUMP JUMPDEST POP JUMPDEST PUSH1 0xD SLOAD PUSH1 0x40 MLOAD PUSH4 0x70A08231 PUSH1 0xE0 SHL DUP2 MSTORE ADDRESS PUSH1 0x4 DUP3 ADD MSTORE PUSH1 0x0 SWAP2 PUSH1 0x1 PUSH1 0x1 PUSH1 0xA0 SHL SUB AND SWAP1 PUSH4 0x70A08231 SWAP1 PUSH1 0x24 ADD PUSH1 0x20 PUSH1 0x40 MLOAD DUP1 DUP4 SUB DUP2 DUP7 GAS STATICCALL ISZERO DUP1 ISZERO PUSH2 0x2265 JUMPI RETURNDATASIZE PUSH1 0x0 DUP1 RETURNDATACOPY RETURNDATASIZE PUSH1 0x0 REVERT JUMPDEST POP POP POP POP PUSH1 0x40 MLOAD RETURNDATASIZE PUSH1 0x1F NOT PUSH1 0x1F DUP3 ADD AND DUP3 ADD DUP1 PUSH1 0x40 MSTORE POP DUP2 ADD SWAP1 PUSH2 0x2289 SWAP2 SWAP1 PUSH2 0x2929 JUMP JUMPDEST SWAP1 POP DUP1 ISZERO PUSH2 0x2368 JUMPI PUSH1 0xD SLOAD PUSH1 0x1 PUSH1 0x1 PUSH1 0xA0 SHL SUB AND PUSH4 0xA9059CBB PUSH2 0x22B4 PUSH1 0x1 SLOAD PUSH1 0x1 PUSH1 0x1 PUSH1 0xA0 SHL SUB AND SWAP1 JUMP JUMPDEST PUSH1 0x40 MLOAD PUSH1 0x1 PUSH1 0x1 PUSH1 0xE0 SHL SUB NOT PUSH1 0xE0 DUP5 SWAP1 SHL AND DUP2 MSTORE PUSH1 0x1 PUSH1 0x1 PUSH1 0xA0 SHL SUB SWAP1 SWAP2 AND PUSH1 0x4 DUP3 ADD MSTORE PUSH1 0x24 DUP2 ADD DUP5 SWAP1 MSTORE PUSH1 0x44 ADD PUSH1 0x20 PUSH1 0x40 MLOAD DUP1 DUP4 SUB DUP2 PUSH1 0x0 DUP8 GAS CALL ISZERO DUP1 ISZERO PUSH2 0x2301 JUMPI RETURNDATASIZE PUSH1 0x0 DUP1 RETURNDATACOPY RETURNDATASIZE PUSH1 0x0 REVERT JUMPDEST POP POP POP POP PUSH1 0x40 MLOAD RETURNDATASIZE PUSH1 0x1F NOT PUSH1 0x1F DUP3 ADD AND DUP3 ADD DUP1 PUSH1 0x40 MSTORE POP DUP2 ADD SWAP1 PUSH2 0x2325 SWAP2 SWAP1 PUSH2 0x28C6 JUMP JUMPDEST PUSH2 0x2368 JUMPI PUSH1 0x40 MLOAD PUSH3 0x461BCD PUSH1 0xE5 SHL DUP2 MSTORE PUSH1 0x20 PUSH1 0x4 DUP3 ADD MSTORE PUSH1 0x14 PUSH1 0x24 DUP3 ADD MSTORE PUSH20 0x1554D115081D1C985B9CD9995C8819985A5B1959 PUSH1 0x62 SHL PUSH1 0x44 DUP3 ADD MSTORE PUSH1 0x64 ADD PUSH2 0x272 JUMP JUMPDEST PUSH1 0xE SLOAD PUSH1 0x40 MLOAD PUSH4 0x70A08231 PUSH1 0xE0 SHL DUP2 MSTORE ADDRESS PUSH1 0x4 DUP3 ADD MSTORE PUSH1 0x0 SWAP2 PUSH1 0x1 PUSH1 0x1 PUSH1 0xA0 SHL SUB AND SWAP1 PUSH4 0x70A08231 SWAP1 PUSH1 0x24 ADD PUSH1 0x20 PUSH1 0x40 MLOAD DUP1 DUP4 SUB DUP2 DUP7 GAS STATICCALL ISZERO DUP1 ISZERO PUSH2 0x23B1 JUMPI RETURNDATASIZE PUSH1 0x0 DUP1 RETURNDATACOPY RETURNDATASIZE PUSH1 0x0 REVERT JUMPDEST POP POP POP POP PUSH1 0x40 MLOAD RETURNDATASIZE PUSH1 0x1F NOT PUSH1 0x1F DUP3 ADD AND DUP3 ADD DUP1 PUSH1 0x40 MSTORE POP DUP2 ADD SWAP1 PUSH2 0x23D5 SWAP2 SWAP1 PUSH2 0x2929 JUMP JUMPDEST SWAP1 POP DUP1 ISZERO PUSH2 0x24B4 JUMPI PUSH1 0xE SLOAD PUSH1 0x1 PUSH1 0x1 PUSH1 0xA0 SHL SUB AND PUSH4 0xA9059CBB PUSH2 0x2400 PUSH1 0x1 SLOAD PUSH1 0x1 PUSH1 0x1 PUSH1 0xA0 SHL SUB AND SWAP1 JUMP JUMPDEST PUSH1 0x40 MLOAD PUSH1 0x1 PUSH1 0x1 PUSH1 0xE0 SHL SUB NOT PUSH1 0xE0 DUP5 SWAP1 SHL AND DUP2 MSTORE PUSH1 0x1 PUSH1 0x1 PUSH1 0xA0 SHL SUB SWAP1 SWAP2 AND PUSH1 0x4 DUP3 ADD MSTORE PUSH1 0x24 DUP2 ADD DUP5 SWAP1 MSTORE PUSH1 0x44 ADD PUSH1 0x20 PUSH1 0x40 MLOAD DUP1 DUP4 SUB DUP2 PUSH1 0x0 DUP8 GAS CALL ISZERO DUP1 ISZERO PUSH2 0x244D JUMPI RETURNDATASIZE PUSH1 0x0 DUP1 RETURNDATACOPY RETURNDATASIZE PUSH1 0x0 REVERT JUMPDEST POP POP POP POP PUSH1 0x40 MLOAD RETURNDATASIZE PUSH1 0x1F NOT PUSH1 0x1F DUP3 ADD AND DUP3 ADD DUP1 PUSH1 0x40 MSTORE POP DUP2 ADD SWAP1 PUSH2 0x2471 SWAP2 SWAP1 PUSH2 0x28C6 JUMP JUMPDEST PUSH2 0x24B4 JUMPI PUSH1 0x40 MLOAD PUSH3 0x461BCD PUSH1 0xE5 SHL DUP2 MSTORE PUSH1 0x20 PUSH1 0x4 DUP3 ADD MSTORE PUSH1 0x14 PUSH1 0x24 DUP3 ADD MSTORE PUSH20 0x1554D110C81D1C985B9CD9995C8819985A5B1959 PUSH1 0x62 SHL PUSH1 0x44 DUP3 ADD MSTORE PUSH1 0x64 ADD PUSH2 0x272 JUMP JUMPDEST POP POP POP JUMP JUMPDEST PUSH1 0x1 DUP1 SLOAD PUSH1 0x1 PUSH1 0x1 PUSH1 0xA0 SHL SUB DUP4 DUP2 AND PUSH1 0x1 PUSH1 0x1 PUSH1 0xA0 SHL SUB NOT DUP4 AND DUP2 OR SWAP1 SWAP4 SSTORE PUSH1 0x40 MLOAD SWAP2 AND SWAP2 SWAP1 DUP3 SWAP1 PUSH32 0x8BE0079C531659141344CD1FD0A4F28419497F9722A3DAAFE3B4186F6B6457E0 SWAP1 PUSH1 0x0 SWAP1 LOG3 POP POP JUMP JUMPDEST DUP1 CALLDATALOAD PUSH1 0x3 DUP2 LT PUSH2 0xAFA JUMPI PUSH1 0x0 DUP1 REVERT JUMPDEST PUSH1 0x0 DUP1 PUSH1 0x40 DUP4 DUP6 SUB SLT ISZERO PUSH2 0x252D JUMPI PUSH1 0x0 DUP1 REVERT JUMPDEST PUSH2 0x2536 DUP4 PUSH2 0x250B JUMP JUMPDEST SWAP5 PUSH1 0x20 SWAP4 SWAP1 SWAP4 ADD CALLDATALOAD SWAP4 POP POP POP JUMP JUMPDEST PUSH1 0x0 PUSH1 0x20 DUP3 DUP5 SUB SLT ISZERO PUSH2 0x2556 JUMPI PUSH1 0x0 DUP1 REVERT JUMPDEST PUSH2 0x255F DUP3 PUSH2 0x250B JUMP JUMPDEST SWAP4 SWAP3 POP POP POP JUMP JUMPDEST PUSH1 0x0 PUSH1 0x20 DUP3 DUP5 SUB SLT ISZERO PUSH2 0x2578 JUMPI PUSH1 0x0 DUP1 REVERT JUMPDEST POP CALLDATALOAD SWAP2 SWAP1 POP JUMP JUMPDEST PUSH1 0x0 DUP1 PUSH1 0x0 PUSH1 0x60 DUP5 DUP7 SUB SLT ISZERO PUSH2 0x2594 JUMPI PUSH1 0x0 DUP1 REVERT JUMPDEST POP POP DUP2 CALLDATALOAD SWAP4 PUSH1 0x20 DUP4 ADD CALLDATALOAD SWAP4 POP PUSH1 0x40 SWAP1 SWAP3 ADD CALLDATALOAD SWAP2 SWAP1 POP JUMP JUMPDEST DUP1 CALLDATALOAD PUSH1 0x1 PUSH1 0x1 PUSH1 0xA0 SHL SUB DUP2 AND DUP2 EQ PUSH2 0xAFA JUMPI PUSH1 0x0 DUP1 REVERT JUMPDEST PUSH1 0x0 PUSH1 0x20 DUP3 DUP5 SUB SLT ISZERO PUSH2 0x25D4 JUMPI PUSH1 0x0 DUP1 REVERT JUMPDEST PUSH2 0x255F DUP3 PUSH2 0x25AB JUMP JUMPDEST PUSH4 0x4E487B71 PUSH1 0xE0 SHL PUSH1 0x0 MSTORE PUSH1 0x21 PUSH1 0x4 MSTORE PUSH1 0x24 PUSH1 0x0 REVERT JUMPDEST PUSH1 0x3 DUP2 LT PUSH2 0x2611 JUMPI PUSH4 0x4E487B71 PUSH1 0xE0 SHL PUSH1 0x0 MSTORE PUSH1 0x21 PUSH1 0x4 MSTORE PUSH1 0x24 PUSH1 0x0 REVERT JUMPDEST SWAP1 MSTORE JUMP JUMPDEST PUSH1 0x20 DUP2 ADD PUSH2 0x98F DUP3 DUP5 PUSH2 0x25F3 JUMP JUMPDEST PUSH1 0x0 DUP1 PUSH1 0x40 DUP4 DUP6 SUB SLT ISZERO PUSH2 0x2636 JUMPI PUSH1 0x0 DUP1 REVERT JUMPDEST PUSH2 0x263F DUP4 PUSH2 0x25AB JUMP JUMPDEST SWAP2 POP PUSH2 0x264D PUSH1 0x20 DUP5 ADD PUSH2 0x250B JUMP JUMPDEST SWAP1 POP SWAP3 POP SWAP3 SWAP1 POP JUMP JUMPDEST PUSH4 0x4E487B71 PUSH1 0xE0 SHL PUSH1 0x0 MSTORE PUSH1 0x11 PUSH1 0x4 MSTORE PUSH1 0x24 PUSH1 0x0 REVERT JUMPDEST DUP1 DUP3 MUL PUSH1 0x0 DUP3 SLT PUSH1 0x1 PUSH1 0xFF SHL DUP5 EQ AND ISZERO PUSH2 0x2688 JUMPI PUSH2 0x2688 PUSH2 0x2656 JUMP JUMPDEST DUP2 DUP2 SDIV DUP4 EQ DUP3 ISZERO OR PUSH2 0x98F JUMPI PUSH2 0x98F PUSH2 0x2656 JUMP JUMPDEST DUP1 DUP3 MUL DUP2 ISZERO DUP3 DUP3 DIV DUP5 EQ OR PUSH2 0x98F JUMPI PUSH2 0x98F PUSH2 0x2656 JUMP JUMPDEST PUSH1 0x0 DUP3 PUSH2 0x26D0 JUMPI PUSH4 0x4E487B71 PUSH1 0xE0 SHL PUSH1 0x0 MSTORE PUSH1 0x12 PUSH1 0x4 MSTORE PUSH1 0x24 PUSH1 0x0 REVERT JUMPDEST POP DIV SWAP1 JUMP JUMPDEST DUP2 DUP2 SUB DUP2 DUP2 GT ISZERO PUSH2 0x98F JUMPI PUSH2 0x98F PUSH2 0x2656 JUMP JUMPDEST PUSH1 0x1 DUP2 JUMPDEST PUSH1 0x1 DUP5 GT ISZERO PUSH2 0x2723 JUMPI DUP1 DUP6 DIV DUP2 GT ISZERO PUSH2 0x2707 JUMPI PUSH2 0x2707 PUSH2 0x2656 JUMP JUMPDEST PUSH1 0x1 DUP5 AND ISZERO PUSH2 0x2715 JUMPI SWAP1 DUP2 MUL SWAP1 JUMPDEST PUSH1 0x1 SWAP4 SWAP1 SWAP4 SHR SWAP3 DUP1 MUL PUSH2 0x26EC JUMP JUMPDEST SWAP4 POP SWAP4 SWAP2 POP POP JUMP JUMPDEST PUSH1 0x0 DUP3 PUSH2 0x273A JUMPI POP PUSH1 0x1 PUSH2 0x98F JUMP JUMPDEST DUP2 PUSH2 0x2747 JUMPI POP PUSH1 0x0 PUSH2 0x98F JUMP JUMPDEST DUP2 PUSH1 0x1 DUP2 EQ PUSH2 0x275D JUMPI PUSH1 0x2 DUP2 EQ PUSH2 0x2767 JUMPI PUSH2 0x2783 JUMP JUMPDEST PUSH1 0x1 SWAP2 POP POP PUSH2 0x98F JUMP JUMPDEST PUSH1 0xFF DUP5 GT ISZERO PUSH2 0x2778 JUMPI PUSH2 0x2778 PUSH2 0x2656 JUMP JUMPDEST POP POP PUSH1 0x1 DUP3 SHL PUSH2 0x98F JUMP JUMPDEST POP PUSH1 0x20 DUP4 LT PUSH2 0x133 DUP4 LT AND PUSH1 0x4E DUP5 LT PUSH1 0xB DUP5 LT AND OR ISZERO PUSH2 0x27A6 JUMPI POP DUP2 DUP2 EXP PUSH2 0x98F JUMP JUMPDEST PUSH2 0x27B3 PUSH1 0x0 NOT DUP5 DUP5 PUSH2 0x26E8 JUMP JUMPDEST DUP1 PUSH1 0x0 NOT DIV DUP3 GT ISZERO PUSH2 0x27C7 JUMPI PUSH2 0x27C7 PUSH2 0x2656 JUMP JUMPDEST MUL SWAP4 SWAP3 POP POP POP JUMP JUMPDEST PUSH1 0x0 PUSH2 0x255F DUP4 DUP4 PUSH2 0x272B JUMP JUMPDEST DUP1 MLOAD PUSH10 0xFFFFFFFFFFFFFFFFFFFF DUP2 AND DUP2 EQ PUSH2 0xAFA JUMPI PUSH1 0x0 DUP1 REVERT JUMPDEST PUSH1 0x0 DUP1 PUSH1 0x0 DUP1 PUSH1 0x0 PUSH1 0xA0 DUP7 DUP9 SUB SLT ISZERO PUSH2 0x280D JUMPI PUSH1 0x0 DUP1 REVERT JUMPDEST PUSH2 0x2816 DUP7 PUSH2 0x27DB JUMP JUMPDEST PUSH1 0x20 DUP8 ADD MLOAD PUSH1 0x40 DUP9 ADD MLOAD PUSH1 0x60 DUP10 ADD MLOAD SWAP3 SWAP8 POP SWAP1 SWAP6 POP SWAP4 POP SWAP2 POP PUSH2 0x283B PUSH1 0x80 DUP8 ADD PUSH2 0x27DB JUMP JUMPDEST SWAP1 POP SWAP3 SWAP6 POP SWAP3 SWAP6 SWAP1 SWAP4 POP JUMP JUMPDEST PUSH1 0x20 DUP1 DUP3 MSTORE PUSH1 0x15 SWAP1 DUP3 ADD MSTORE PUSH21 0x1250D3C8185B1C9958591E48199A5B985B1A5E9959 PUSH1 0x5A SHL PUSH1 0x40 DUP3 ADD MSTORE PUSH1 0x60 ADD SWAP1 JUMP JUMPDEST PUSH1 0x20 DUP1 DUP3 MSTORE PUSH1 0x7 SWAP1 DUP3 ADD MSTORE PUSH7 0x199C99595E9959 PUSH1 0xCA SHL PUSH1 0x40 DUP3 ADD MSTORE PUSH1 0x60 ADD SWAP1 JUMP JUMPDEST PUSH1 0x0 PUSH1 0x1 DUP3 ADD PUSH2 0x28A9 JUMPI PUSH2 0x28A9 PUSH2 0x2656 JUMP JUMPDEST POP PUSH1 0x1 ADD SWAP1 JUMP JUMPDEST PUSH4 0x4E487B71 PUSH1 0xE0 SHL PUSH1 0x0 MSTORE PUSH1 0x32 PUSH1 0x4 MSTORE PUSH1 0x24 PUSH1 0x0 REVERT JUMPDEST PUSH1 0x0 PUSH1 0x20 DUP3 DUP5 SUB SLT ISZERO PUSH2 0x28D8 JUMPI PUSH1 0x0 DUP1 REVERT JUMPDEST DUP2 MLOAD DUP1 ISZERO ISZERO DUP2 EQ PUSH2 0x255F JUMPI PUSH1 0x0 DUP1 REVERT JUMPDEST DUP3 DUP2 MSTORE PUSH1 0x40 DUP2 ADD PUSH2 0x255F PUSH1 0x20 DUP4 ADD DUP5 PUSH2 0x25F3 JUMP JUMPDEST PUSH4 0x4E487B71 PUSH1 0xE0 SHL PUSH1 0x0 MSTORE PUSH1 0x31 PUSH1 0x4 MSTORE PUSH1 0x24 PUSH1 0x0 REVERT JUMPDEST PUSH1 0x0 DUP2 PUSH2 0x2921 JUMPI PUSH2 0x2921 PUSH2 0x2656 JUMP JUMPDEST POP PUSH1 0x0 NOT ADD SWAP1 JUMP JUMPDEST PUSH1 0x0 PUSH1 0x20 DUP3 DUP5 SUB SLT ISZERO PUSH2 0x293B JUMPI PUSH1 0x0 DUP1 REVERT JUMPDEST POP MLOAD SWAP2 SWAP1 POP JUMP JUMPDEST DUP1 DUP3 ADD DUP1 DUP3 GT ISZERO PUSH2 0x98F JUMPI PUSH2 0x98F PUSH2 0x2656 JUMP JUMPDEST DUP5 DUP2 MSTORE PUSH1 0x20 DUP2 ADD DUP5 SWAP1 MSTORE PUSH1 0x40 DUP2 ADD DUP4 SWAP1 MSTORE PUSH1 0x80 DUP2 ADD PUSH2 0x2977 PUSH1 0x60 DUP4 ADD DUP5 PUSH2 0x25F3 JUMP JUMPDEST SWAP6 SWAP5 POP POP POP POP POP JUMP INVALID LOG2 PUSH5 0x6970667358 0x22 SLT KECCAK256 0xAA PUSH26 0x3FED14142422CCC5DC76DA028C8857E2E16EF2EF7BEA3D0F0205 RETURN 0xC2 0xBB NOT PUSH5 0x736F6C6343 STOP ADDMOD BYTE STOP CALLER "
				},
				"gasEstimates": {
					"creation": {
						"codeDepositCost": "2135600",
						"executionCost": "infinite",
						"totalCost": "infinite"
					},
					"external": {
						"_getPriceFeed(uint8)": "infinite",
						"airdropTokens()": "infinite",
						"buyTokens(uint8,uint256)": "infinite",
						"calculatePaymentAmount(uint8,uint256)": "infinite",
						"calculateTokenAmount(uint8,uint256)": "infinite",
						"contributionsInUSD(address)": "2597",
						"createSale(uint256,uint256,uint256)": "137368",
						"finalizeICO()": "infinite",
						"freeze()": "28781",
						"getCurrentSaleId()": "2327",
						"getHardCapReached()": "4494",
						"getInvestorCount()": "2326",
						"getSaleStartEndTime(uint256)": "13214",
						"getSoftCapReached()": "4465",
						"hardCapInUSD()": "2329",
						"initiateRefund()": "infinite",
						"investorPayments(address,uint8)": "infinite",
						"investors(uint256)": "4660",
						"isFreezed()": "2454",
						"isICOFinalized()": "2421",
						"isTokensAirdropped()": "2389",
						"owner()": "2377",
						"paymentMethodForInvestor(address)": "2650",
						"priceFeedBNB()": "2404",
						"priceFeedUSDC()": "2470",
						"priceFeedUSDT()": "2427",
						"renounceOwnership()": "infinite",
						"saleCount()": "2373",
						"sales(uint256)": "11105",
						"softCapInUSD()": "2352",
						"token()": "2469",
						"tokensBoughtByInvestor(address)": "2574",
						"totalFundsRaisedUSD()": "2373",
						"totalTokensSold()": "2418",
						"transferOwnership(address)": "28446",
						"unFreeze()": "28771",
						"usdc()": "2471",
						"usdt()": "2449"
					},
					"internal": {
						"_transferFundsToOwner()": "infinite",
						"getLatestSaleEndTime()": "infinite"
					}
				},
				"methodIdentifiers": {
					"_getPriceFeed(uint8)": "115afc3a",
					"airdropTokens()": "91152c5c",
					"buyTokens(uint8,uint256)": "940c333e",
					"calculatePaymentAmount(uint8,uint256)": "117d260f",
					"calculateTokenAmount(uint8,uint256)": "05834e67",
					"contributionsInUSD(address)": "c81ffdea",
					"createSale(uint256,uint256,uint256)": "6c1909ed",
					"finalizeICO()": "23cc75a8",
					"freeze()": "62a5af3b",
					"getCurrentSaleId()": "212ea247",
					"getHardCapReached()": "91d8730a",
					"getInvestorCount()": "960524e3",
					"getSaleStartEndTime(uint256)": "c211e1f9",
					"getSoftCapReached()": "06e4d36f",
					"hardCapInUSD()": "c1560a14",
					"initiateRefund()": "7fb12001",
					"investorPayments(address,uint8)": "efdcdb45",
					"investors(uint256)": "3feb5f2b",
					"isFreezed()": "b9469e1a",
					"isICOFinalized()": "d1f3b23e",
					"isTokensAirdropped()": "4dee1dc3",
					"owner()": "8da5cb5b",
					"paymentMethodForInvestor(address)": "df4e0593",
					"priceFeedBNB()": "99131e7e",
					"priceFeedUSDC()": "d3d9d1e4",
					"priceFeedUSDT()": "62a469e9",
					"renounceOwnership()": "715018a6",
					"saleCount()": "a1e89aec",
					"sales(uint256)": "b5f522f7",
					"softCapInUSD()": "2151206e",
					"token()": "fc0c546a",
					"tokensBoughtByInvestor(address)": "e8e87389",
					"totalFundsRaisedUSD()": "721bc38b",
					"totalTokensSold()": "63b20117",
					"transferOwnership(address)": "f2fde38b",
					"unFreeze()": "7cf12b90",
					"usdc()": "3e413bee",
					"usdt()": "2f48ab7d"
				}
			},
			"storageLayout": {
				"storage": [
					{
						"astId": 312,
						"contract": "ICO/IcoOptimized.sol:ICO",
						"label": "_status",
						"offset": 0,
						"slot": "0",
						"type": "t_uint256"
					},
					{
						"astId": 54,
						"contract": "ICO/IcoOptimized.sol:ICO",
						"label": "_owner",
						"offset": 0,
						"slot": "1",
						"type": "t_address"
					},
					{
						"astId": 383,
						"contract": "ICO/IcoOptimized.sol:ICO",
						"label": "priceFeedBNB",
						"offset": 0,
						"slot": "2",
						"type": "t_contract(AggregatorV3Interface)45"
					},
					{
						"astId": 386,
						"contract": "ICO/IcoOptimized.sol:ICO",
						"label": "priceFeedUSDT",
						"offset": 0,
						"slot": "3",
						"type": "t_contract(AggregatorV3Interface)45"
					},
					{
						"astId": 389,
						"contract": "ICO/IcoOptimized.sol:ICO",
						"label": "priceFeedUSDC",
						"offset": 0,
						"slot": "4",
						"type": "t_contract(AggregatorV3Interface)45"
					},
					{
						"astId": 407,
						"contract": "ICO/IcoOptimized.sol:ICO",
						"label": "token",
						"offset": 0,
						"slot": "5",
						"type": "t_contract(IERC20)271"
					},
					{
						"astId": 409,
						"contract": "ICO/IcoOptimized.sol:ICO",
						"label": "softCapInUSD",
						"offset": 0,
						"slot": "6",
						"type": "t_uint256"
					},
					{
						"astId": 411,
						"contract": "ICO/IcoOptimized.sol:ICO",
						"label": "hardCapInUSD",
						"offset": 0,
						"slot": "7",
						"type": "t_uint256"
					},
					{
						"astId": 413,
						"contract": "ICO/IcoOptimized.sol:ICO",
						"label": "saleCount",
						"offset": 0,
						"slot": "8",
						"type": "t_uint256"
					},
					{
						"astId": 415,
						"contract": "ICO/IcoOptimized.sol:ICO",
						"label": "totalFundsRaisedUSD",
						"offset": 0,
						"slot": "9",
						"type": "t_uint256"
					},
					{
						"astId": 417,
						"contract": "ICO/IcoOptimized.sol:ICO",
						"label": "totalTokensSold",
						"offset": 0,
						"slot": "10",
						"type": "t_uint256"
					},
					{
						"astId": 425,
						"contract": "ICO/IcoOptimized.sol:ICO",
						"label": "isICOFinalized",
						"offset": 0,
						"slot": "11",
						"type": "t_bool"
					},
					{
						"astId": 427,
						"contract": "ICO/IcoOptimized.sol:ICO",
						"label": "isTokensAirdropped",
						"offset": 1,
						"slot": "11",
						"type": "t_bool"
					},
					{
						"astId": 429,
						"contract": "ICO/IcoOptimized.sol:ICO",
						"label": "isFreezed",
						"offset": 2,
						"slot": "11",
						"type": "t_bool"
					},
					{
						"astId": 432,
						"contract": "ICO/IcoOptimized.sol:ICO",
						"label": "investors",
						"offset": 0,
						"slot": "12",
						"type": "t_array(t_address)dyn_storage"
					},
					{
						"astId": 434,
						"contract": "ICO/IcoOptimized.sol:ICO",
						"label": "usdt",
						"offset": 0,
						"slot": "13",
						"type": "t_address"
					},
					{
						"astId": 436,
						"contract": "ICO/IcoOptimized.sol:ICO",
						"label": "usdc",
						"offset": 0,
						"slot": "14",
						"type": "t_address"
					},
					{
						"astId": 441,
						"contract": "ICO/IcoOptimized.sol:ICO",
						"label": "sales",
						"offset": 0,
						"slot": "15",
						"type": "t_mapping(t_uint256,t_struct(Sale)400_storage)"
					},
					{
						"astId": 445,
						"contract": "ICO/IcoOptimized.sol:ICO",
						"label": "contributionsInUSD",
						"offset": 0,
						"slot": "16",
						"type": "t_mapping(t_address,t_uint256)"
					},
					{
						"astId": 449,
						"contract": "ICO/IcoOptimized.sol:ICO",
						"label": "tokensBoughtByInvestor",
						"offset": 0,
						"slot": "17",
						"type": "t_mapping(t_address,t_uint256)"
					},
					{
						"astId": 454,
						"contract": "ICO/IcoOptimized.sol:ICO",
						"label": "paymentMethodForInvestor",
						"offset": 0,
						"slot": "18",
						"type": "t_mapping(t_address,t_enum(PaymentMethod)404)"
					},
					{
						"astId": 461,
						"contract": "ICO/IcoOptimized.sol:ICO",
						"label": "investorPayments",
						"offset": 0,
						"slot": "19",
						"type": "t_mapping(t_address,t_mapping(t_enum(PaymentMethod)404,t_uint256))"
					}
				],
				"types": {
					"t_address": {
						"encoding": "inplace",
						"label": "address",
						"numberOfBytes": "20"
					},
					"t_array(t_address)dyn_storage": {
						"base": "t_address",
						"encoding": "dynamic_array",
						"label": "address[]",
						"numberOfBytes": "32"
					},
					"t_bool": {
						"encoding": "inplace",
						"label": "bool",
						"numberOfBytes": "1"
					},
					"t_contract(AggregatorV3Interface)45": {
						"encoding": "inplace",
						"label": "contract AggregatorV3Interface",
						"numberOfBytes": "20"
					},
					"t_contract(IERC20)271": {
						"encoding": "inplace",
						"label": "contract IERC20",
						"numberOfBytes": "20"
					},
					"t_enum(PaymentMethod)404": {
						"encoding": "inplace",
						"label": "enum ICO.PaymentMethod",
						"numberOfBytes": "1"
					},
					"t_mapping(t_address,t_enum(PaymentMethod)404)": {
						"encoding": "mapping",
						"key": "t_address",
						"label": "mapping(address => enum ICO.PaymentMethod)",
						"numberOfBytes": "32",
						"value": "t_enum(PaymentMethod)404"
					},
					"t_mapping(t_address,t_mapping(t_enum(PaymentMethod)404,t_uint256))": {
						"encoding": "mapping",
						"key": "t_address",
						"label": "mapping(address => mapping(enum ICO.PaymentMethod => uint256))",
						"numberOfBytes": "32",
						"value": "t_mapping(t_enum(PaymentMethod)404,t_uint256)"
					},
					"t_mapping(t_address,t_uint256)": {
						"encoding": "mapping",
						"key": "t_address",
						"label": "mapping(address => uint256)",
						"numberOfBytes": "32",
						"value": "t_uint256"
					},
					"t_mapping(t_enum(PaymentMethod)404,t_uint256)": {
						"encoding": "mapping",
						"key": "t_enum(PaymentMethod)404",
						"label": "mapping(enum ICO.PaymentMethod => uint256)",
						"numberOfBytes": "32",
						"value": "t_uint256"
					},
					"t_mapping(t_uint256,t_struct(Sale)400_storage)": {
						"encoding": "mapping",
						"key": "t_uint256",
						"label": "mapping(uint256 => struct ICO.Sale)",
						"numberOfBytes": "32",
						"value": "t_struct(Sale)400_storage"
					},
					"t_struct(Sale)400_storage": {
						"encoding": "inplace",
						"label": "struct ICO.Sale",
						"members": [
							{
								"astId": 391,
								"contract": "ICO/IcoOptimized.sol:ICO",
								"label": "startTime",
								"offset": 0,
								"slot": "0",
								"type": "t_uint256"
							},
							{
								"astId": 393,
								"contract": "ICO/IcoOptimized.sol:ICO",
								"label": "endTime",
								"offset": 0,
								"slot": "1",
								"type": "t_uint256"
							},
							{
								"astId": 395,
								"contract": "ICO/IcoOptimized.sol:ICO",
								"label": "tokenPriceUSD",
								"offset": 0,
								"slot": "2",
								"type": "t_uint256"
							},
							{
								"astId": 397,
								"contract": "ICO/IcoOptimized.sol:ICO",
								"label": "tokensSold",
								"offset": 0,
								"slot": "3",
								"type": "t_uint256"
							},
							{
								"astId": 399,
								"contract": "ICO/IcoOptimized.sol:ICO",
								"label": "isFinalized",
								"offset": 0,
								"slot": "4",
								"type": "t_bool"
							}
						],
						"numberOfBytes": "160"
					},
					"t_uint256": {
						"encoding": "inplace",
						"label": "uint256",
						"numberOfBytes": "32"
					}
				}
			},
			"userdoc": {
				"kind": "user",
				"methods": {},
				"version": 1
			}
		}
	}
}