{
	"ICO/ICOProxy.sol": {
		"ICO": {
			"abi": [
				{
					"inputs": [
						{
							"internalType": "address",
							"name": "target",
							"type": "address"
						}
					],
					"name": "AddressEmptyCode",
					"type": "error"
				},
				{
					"inputs": [
						{
							"internalType": "address",
							"name": "implementation",
							"type": "address"
						}
					],
					"name": "ERC1967InvalidImplementation",
					"type": "error"
				},
				{
					"inputs": [],
					"name": "ERC1967NonPayable",
					"type": "error"
				},
				{
					"inputs": [],
					"name": "FailedCall",
					"type": "error"
				},
				{
					"inputs": [],
					"name": "InvalidInitialization",
					"type": "error"
				},
				{
					"inputs": [],
					"name": "NotInitializing",
					"type": "error"
				},
				{
					"inputs": [
						{
							"internalType": "address",
							"name": "owner",
							"type": "address"
						}
					],
					"name": "OwnableInvalidOwner",
					"type": "error"
				},
				{
					"inputs": [
						{
							"internalType": "address",
							"name": "account",
							"type": "address"
						}
					],
					"name": "OwnableUnauthorizedAccount",
					"type": "error"
				},
				{
					"inputs": [],
					"name": "ReentrancyGuardReentrantCall",
					"type": "error"
				},
				{
					"inputs": [],
					"name": "UUPSUnauthorizedCallContext",
					"type": "error"
				},
				{
					"inputs": [
						{
							"internalType": "bytes32",
							"name": "slot",
							"type": "bytes32"
						}
					],
					"name": "UUPSUnsupportedProxiableUUID",
					"type": "error"
				},
				{
					"anonymous": false,
					"inputs": [
						{
							"indexed": true,
							"internalType": "uint256",
							"name": "totalTokensSold",
							"type": "uint256"
						}
					],
					"name": "ICOFinalized",
					"type": "event"
				},
				{
					"anonymous": false,
					"inputs": [
						{
							"indexed": true,
							"internalType": "uint256",
							"name": "saleId",
							"type": "uint256"
						}
					],
					"name": "ImmediateFinalization",
					"type": "event"
				},
				{
					"anonymous": false,
					"inputs": [
						{
							"indexed": false,
							"internalType": "uint64",
							"name": "version",
							"type": "uint64"
						}
					],
					"name": "Initialized",
					"type": "event"
				},
				{
					"anonymous": false,
					"inputs": [
						{
							"indexed": true,
							"internalType": "uint256",
							"name": "saleId",
							"type": "uint256"
						},
						{
							"indexed": false,
							"internalType": "uint256",
							"name": "startTime",
							"type": "uint256"
						},
						{
							"indexed": false,
							"internalType": "uint256",
							"name": "endTime",
							"type": "uint256"
						},
						{
							"indexed": false,
							"internalType": "uint256",
							"name": "tokenPriceUSD",
							"type": "uint256"
						}
					],
					"name": "NewSaleCreated",
					"type": "event"
				},
				{
					"anonymous": false,
					"inputs": [
						{
							"indexed": true,
							"internalType": "address",
							"name": "previousOwner",
							"type": "address"
						},
						{
							"indexed": true,
							"internalType": "address",
							"name": "newOwner",
							"type": "address"
						}
					],
					"name": "OwnershipTransferred",
					"type": "event"
				},
				{
					"anonymous": false,
					"inputs": [
						{
							"indexed": true,
							"internalType": "address",
							"name": "investor",
							"type": "address"
						},
						{
							"indexed": false,
							"internalType": "uint256",
							"name": "amount",
							"type": "uint256"
						},
						{
							"indexed": false,
							"internalType": "enum ICO.PaymentMethod",
							"name": "paymentMethod",
							"type": "uint8"
						}
					],
					"name": "RefundInitiated",
					"type": "event"
				},
				{
					"anonymous": false,
					"inputs": [
						{
							"indexed": true,
							"internalType": "address",
							"name": "investor",
							"type": "address"
						},
						{
							"indexed": false,
							"internalType": "uint256",
							"name": "airdroppedAmount",
							"type": "uint256"
						}
					],
					"name": "TokenAirdropped",
					"type": "event"
				},
				{
					"anonymous": false,
					"inputs": [
						{
							"indexed": true,
							"internalType": "address",
							"name": "buyer",
							"type": "address"
						},
						{
							"indexed": true,
							"internalType": "uint256",
							"name": "saleId",
							"type": "uint256"
						},
						{
							"indexed": false,
							"internalType": "uint256",
							"name": "tokenPurchaseAmount",
							"type": "uint256"
						},
						{
							"indexed": false,
							"internalType": "uint256",
							"name": "tokenPriceUSD",
							"type": "uint256"
						},
						{
							"indexed": false,
							"internalType": "uint256",
							"name": "amountPaid",
							"type": "uint256"
						},
						{
							"indexed": false,
							"internalType": "enum ICO.PaymentMethod",
							"name": "paymentMethod",
							"type": "uint8"
						}
					],
					"name": "TokensPurchased",
					"type": "event"
				},
				{
					"anonymous": false,
					"inputs": [
						{
							"indexed": true,
							"internalType": "address",
							"name": "implementation",
							"type": "address"
						}
					],
					"name": "Upgraded",
					"type": "event"
				},
				{
					"inputs": [],
					"name": "UPGRADE_INTERFACE_VERSION",
					"outputs": [
						{
							"internalType": "string",
							"name": "",
							"type": "string"
						}
					],
					"stateMutability": "view",
					"type": "function"
				},
				{
					"inputs": [
						{
							"internalType": "enum ICO.PaymentMethod",
							"name": "paymentMethod",
							"type": "uint8"
						}
					],
					"name": "_getPriceFeed",
					"outputs": [
						{
							"internalType": "int256",
							"name": "",
							"type": "int256"
						}
					],
					"stateMutability": "view",
					"type": "function"
				},
				{
					"inputs": [],
					"name": "airdropTokens",
					"outputs": [],
					"stateMutability": "nonpayable",
					"type": "function"
				},
				{
					"inputs": [
						{
							"internalType": "enum ICO.PaymentMethod",
							"name": "paymentMethod",
							"type": "uint8"
						},
						{
							"internalType": "uint256",
							"name": "paymentAmount",
							"type": "uint256"
						}
					],
					"name": "buyTokens",
					"outputs": [],
					"stateMutability": "payable",
					"type": "function"
				},
				{
					"inputs": [
						{
							"internalType": "enum ICO.PaymentMethod",
							"name": "paymentMethod",
							"type": "uint8"
						},
						{
							"internalType": "uint256",
							"name": "tokenAmount",
							"type": "uint256"
						}
					],
					"name": "calculatePaymentAmount",
					"outputs": [
						{
							"internalType": "uint256",
							"name": "",
							"type": "uint256"
						}
					],
					"stateMutability": "view",
					"type": "function"
				},
				{
					"inputs": [
						{
							"internalType": "enum ICO.PaymentMethod",
							"name": "paymentMethod",
							"type": "uint8"
						},
						{
							"internalType": "uint256",
							"name": "paymentAmount",
							"type": "uint256"
						}
					],
					"name": "calculateTokenAmount",
					"outputs": [
						{
							"internalType": "uint256",
							"name": "",
							"type": "uint256"
						}
					],
					"stateMutability": "view",
					"type": "function"
				},
				{
					"inputs": [
						{
							"internalType": "address",
							"name": "",
							"type": "address"
						}
					],
					"name": "contributionsInUSD",
					"outputs": [
						{
							"internalType": "uint256",
							"name": "",
							"type": "uint256"
						}
					],
					"stateMutability": "view",
					"type": "function"
				},
				{
					"inputs": [
						{
							"internalType": "uint256",
							"name": "_startTime",
							"type": "uint256"
						},
						{
							"internalType": "uint256",
							"name": "_endTime",
							"type": "uint256"
						},
						{
							"internalType": "uint256",
							"name": "_tokenPriceUSD",
							"type": "uint256"
						}
					],
					"name": "createSale",
					"outputs": [],
					"stateMutability": "nonpayable",
					"type": "function"
				},
				{
					"inputs": [],
					"name": "finalizeICO",
					"outputs": [],
					"stateMutability": "nonpayable",
					"type": "function"
				},
				{
					"inputs": [],
					"name": "freeze",
					"outputs": [],
					"stateMutability": "nonpayable",
					"type": "function"
				},
				{
					"inputs": [],
					"name": "getCurrentSaleId",
					"outputs": [
						{
							"internalType": "uint256",
							"name": "",
							"type": "uint256"
						}
					],
					"stateMutability": "view",
					"type": "function"
				},
				{
					"inputs": [],
					"name": "getHardCapReached",
					"outputs": [
						{
							"internalType": "bool",
							"name": "",
							"type": "bool"
						}
					],
					"stateMutability": "view",
					"type": "function"
				},
				{
					"inputs": [],
					"name": "getInvestorCount",
					"outputs": [
						{
							"internalType": "uint256",
							"name": "investorCount",
							"type": "uint256"
						}
					],
					"stateMutability": "view",
					"type": "function"
				},
				{
					"inputs": [
						{
							"internalType": "uint256",
							"name": "",
							"type": "uint256"
						}
					],
					"name": "getSaleStartEndTime",
					"outputs": [
						{
							"internalType": "uint256",
							"name": "_startTime",
							"type": "uint256"
						},
						{
							"internalType": "uint256",
							"name": "_endTime",
							"type": "uint256"
						}
					],
					"stateMutability": "view",
					"type": "function"
				},
				{
					"inputs": [],
					"name": "getSoftCapReached",
					"outputs": [
						{
							"internalType": "bool",
							"name": "",
							"type": "bool"
						}
					],
					"stateMutability": "view",
					"type": "function"
				},
				{
					"inputs": [],
					"name": "hardCapInUSD",
					"outputs": [
						{
							"internalType": "uint256",
							"name": "",
							"type": "uint256"
						}
					],
					"stateMutability": "view",
					"type": "function"
				},
				{
					"inputs": [
						{
							"internalType": "contract IERC20",
							"name": "_token",
							"type": "address"
						},
						{
							"internalType": "address",
							"name": "_usdt",
							"type": "address"
						},
						{
							"internalType": "address",
							"name": "_usdc",
							"type": "address"
						},
						{
							"internalType": "uint256",
							"name": "_softCapInUSD",
							"type": "uint256"
						},
						{
							"internalType": "uint256",
							"name": "_hardCapInUSD",
							"type": "uint256"
						},
						{
							"internalType": "address",
							"name": "_priceFeedBNB",
							"type": "address"
						},
						{
							"internalType": "address",
							"name": "_priceFeedUSDT",
							"type": "address"
						},
						{
							"internalType": "address",
							"name": "_priceFeedUSDC",
							"type": "address"
						}
					],
					"name": "initialize",
					"outputs": [],
					"stateMutability": "nonpayable",
					"type": "function"
				},
				{
					"inputs": [],
					"name": "initiateRefund",
					"outputs": [],
					"stateMutability": "nonpayable",
					"type": "function"
				},
				{
					"inputs": [
						{
							"internalType": "uint256",
							"name": "",
							"type": "uint256"
						}
					],
					"name": "investors",
					"outputs": [
						{
							"internalType": "address",
							"name": "",
							"type": "address"
						}
					],
					"stateMutability": "view",
					"type": "function"
				},
				{
					"inputs": [],
					"name": "isFreezed",
					"outputs": [
						{
							"internalType": "bool",
							"name": "",
							"type": "bool"
						}
					],
					"stateMutability": "view",
					"type": "function"
				},
				{
					"inputs": [],
					"name": "isICOFinalized",
					"outputs": [
						{
							"internalType": "bool",
							"name": "",
							"type": "bool"
						}
					],
					"stateMutability": "view",
					"type": "function"
				},
				{
					"inputs": [],
					"name": "isTokensAirdropped",
					"outputs": [
						{
							"internalType": "bool",
							"name": "",
							"type": "bool"
						}
					],
					"stateMutability": "view",
					"type": "function"
				},
				{
					"inputs": [],
					"name": "owner",
					"outputs": [
						{
							"internalType": "address",
							"name": "",
							"type": "address"
						}
					],
					"stateMutability": "view",
					"type": "function"
				},
				{
					"inputs": [
						{
							"internalType": "uint256",
							"name": "val",
							"type": "uint256"
						}
					],
					"name": "precision_div_10",
					"outputs": [
						{
							"internalType": "uint256",
							"name": "",
							"type": "uint256"
						}
					],
					"stateMutability": "pure",
					"type": "function"
				},
				{
					"inputs": [
						{
							"internalType": "uint256",
							"name": "val",
							"type": "uint256"
						}
					],
					"name": "precision_div_18",
					"outputs": [
						{
							"internalType": "uint256",
							"name": "",
							"type": "uint256"
						}
					],
					"stateMutability": "pure",
					"type": "function"
				},
				{
					"inputs": [
						{
							"internalType": "uint256",
							"name": "val",
							"type": "uint256"
						}
					],
					"name": "precision_mul_10",
					"outputs": [
						{
							"internalType": "uint256",
							"name": "",
							"type": "uint256"
						}
					],
					"stateMutability": "pure",
					"type": "function"
				},
				{
					"inputs": [
						{
							"internalType": "uint256",
							"name": "val",
							"type": "uint256"
						}
					],
					"name": "precision_mul_18",
					"outputs": [
						{
							"internalType": "uint256",
							"name": "",
							"type": "uint256"
						}
					],
					"stateMutability": "pure",
					"type": "function"
				},
				{
					"inputs": [],
					"name": "proxiableUUID",
					"outputs": [
						{
							"internalType": "bytes32",
							"name": "",
							"type": "bytes32"
						}
					],
					"stateMutability": "view",
					"type": "function"
				},
				{
					"inputs": [],
					"name": "renounceOwnership",
					"outputs": [],
					"stateMutability": "nonpayable",
					"type": "function"
				},
				{
					"inputs": [],
					"name": "saleCount",
					"outputs": [
						{
							"internalType": "uint256",
							"name": "",
							"type": "uint256"
						}
					],
					"stateMutability": "view",
					"type": "function"
				},
				{
					"inputs": [
						{
							"internalType": "uint256",
							"name": "",
							"type": "uint256"
						}
					],
					"name": "sales",
					"outputs": [
						{
							"internalType": "uint256",
							"name": "startTime",
							"type": "uint256"
						},
						{
							"internalType": "uint256",
							"name": "endTime",
							"type": "uint256"
						},
						{
							"internalType": "uint256",
							"name": "tokenPriceUSD",
							"type": "uint256"
						},
						{
							"internalType": "uint256",
							"name": "tokensSold",
							"type": "uint256"
						},
						{
							"internalType": "bool",
							"name": "isFinalized",
							"type": "bool"
						}
					],
					"stateMutability": "view",
					"type": "function"
				},
				{
					"inputs": [],
					"name": "softCapInUSD",
					"outputs": [
						{
							"internalType": "uint256",
							"name": "",
							"type": "uint256"
						}
					],
					"stateMutability": "view",
					"type": "function"
				},
				{
					"inputs": [],
					"name": "token",
					"outputs": [
						{
							"internalType": "contract IERC20",
							"name": "",
							"type": "address"
						}
					],
					"stateMutability": "view",
					"type": "function"
				},
				{
					"inputs": [
						{
							"internalType": "address",
							"name": "",
							"type": "address"
						}
					],
					"name": "tokensBoughtByInvestor",
					"outputs": [
						{
							"internalType": "uint256",
							"name": "",
							"type": "uint256"
						}
					],
					"stateMutability": "view",
					"type": "function"
				},
				{
					"inputs": [],
					"name": "totalFundsRaisedUSD",
					"outputs": [
						{
							"internalType": "uint256",
							"name": "",
							"type": "uint256"
						}
					],
					"stateMutability": "view",
					"type": "function"
				},
				{
					"inputs": [],
					"name": "totalTokensSold",
					"outputs": [
						{
							"internalType": "uint256",
							"name": "",
							"type": "uint256"
						}
					],
					"stateMutability": "view",
					"type": "function"
				},
				{
					"inputs": [
						{
							"internalType": "address",
							"name": "newOwner",
							"type": "address"
						}
					],
					"name": "transferOwnership",
					"outputs": [],
					"stateMutability": "nonpayable",
					"type": "function"
				},
				{
					"inputs": [],
					"name": "unFreeze",
					"outputs": [],
					"stateMutability": "nonpayable",
					"type": "function"
				},
				{
					"inputs": [
						{
							"internalType": "address",
							"name": "newImplementation",
							"type": "address"
						},
						{
							"internalType": "bytes",
							"name": "data",
							"type": "bytes"
						}
					],
					"name": "upgradeToAndCall",
					"outputs": [],
					"stateMutability": "payable",
					"type": "function"
				},
				{
					"inputs": [],
					"name": "usdc",
					"outputs": [
						{
							"internalType": "address",
							"name": "",
							"type": "address"
						}
					],
					"stateMutability": "view",
					"type": "function"
				},
				{
					"inputs": [],
					"name": "usdt",
					"outputs": [
						{
							"internalType": "address",
							"name": "",
							"type": "address"
						}
					],
					"stateMutability": "view",
					"type": "function"
				},
				{
					"stateMutability": "payable",
					"type": "receive"
				}
			],
			"devdoc": {
				"errors": {
					"AddressEmptyCode(address)": [
						{
							"details": "There's no code at `target` (it is not a contract)."
						}
					],
					"ERC1967InvalidImplementation(address)": [
						{
							"details": "The `implementation` of the proxy is invalid."
						}
					],
					"ERC1967NonPayable()": [
						{
							"details": "An upgrade function sees `msg.value > 0` that may be lost."
						}
					],
					"FailedCall()": [
						{
							"details": "A call to an address target failed. The target may have reverted."
						}
					],
					"InvalidInitialization()": [
						{
							"details": "The contract is already initialized."
						}
					],
					"NotInitializing()": [
						{
							"details": "The contract is not initializing."
						}
					],
					"OwnableInvalidOwner(address)": [
						{
							"details": "The owner is not a valid owner account. (eg. `address(0)`)"
						}
					],
					"OwnableUnauthorizedAccount(address)": [
						{
							"details": "The caller account is not authorized to perform an operation."
						}
					],
					"ReentrancyGuardReentrantCall()": [
						{
							"details": "Unauthorized reentrant call."
						}
					],
					"UUPSUnauthorizedCallContext()": [
						{
							"details": "The call is from an unauthorized context."
						}
					],
					"UUPSUnsupportedProxiableUUID(bytes32)": [
						{
							"details": "The storage `slot` is unsupported as a UUID."
						}
					]
				},
				"events": {
					"Initialized(uint64)": {
						"details": "Triggered when the contract has been initialized or reinitialized."
					},
					"Upgraded(address)": {
						"details": "Emitted when the implementation is upgraded."
					}
				},
				"kind": "dev",
				"methods": {
					"owner()": {
						"details": "Returns the address of the current owner."
					},
					"proxiableUUID()": {
						"details": "Implementation of the ERC-1822 {proxiableUUID} function. This returns the storage slot used by the implementation. It is used to validate the implementation's compatibility when performing an upgrade. IMPORTANT: A proxy pointing at a proxiable contract should not be considered proxiable itself, because this risks bricking a proxy that upgrades to it, by delegating to itself until out of gas. Thus it is critical that this function revert if invoked through a proxy. This is guaranteed by the `notDelegated` modifier."
					},
					"renounceOwnership()": {
						"details": "Leaves the contract without owner. It will not be possible to call `onlyOwner` functions. Can only be called by the current owner. NOTE: Renouncing ownership will leave the contract without an owner, thereby disabling any functionality that is only available to the owner."
					},
					"transferOwnership(address)": {
						"details": "Transfers ownership of the contract to a new account (`newOwner`). Can only be called by the current owner."
					},
					"upgradeToAndCall(address,bytes)": {
						"custom:oz-upgrades-unsafe-allow-reachable": "delegatecall",
						"details": "Upgrade the implementation of the proxy to `newImplementation`, and subsequently execute the function call encoded in `data`. Calls {_authorizeUpgrade}. Emits an {Upgraded} event."
					}
				},
				"version": 1
			},
			"evm": {
				"assembly": "    /* \"ICO/ICOProxy.sol\":429:15754  contract ICO is ReentrancyGuardUpgradeable ,OwnableUpgradeable, UUPSUpgradeable {... */\n  mstore(0x40, 0xa0)\n    /* \"@openzeppelin/contracts-upgradeable/proxy/utils/UUPSUpgradeable.sol\":1171:1175  this */\n  address\n    /* \"@openzeppelin/contracts-upgradeable/proxy/utils/UUPSUpgradeable.sol\":1128:1176  address private immutable __self = address(this) */\n  0x80\n  mstore\n    /* \"ICO/ICOProxy.sol\":429:15754  contract ICO is ReentrancyGuardUpgradeable ,OwnableUpgradeable, UUPSUpgradeable {... */\n  callvalue\n  dup1\n  iszero\n  tag_1\n  jumpi\n  revert(0x00, 0x00)\ntag_1:\n  pop\n  mload(0x80)\n  codecopy(0x00, dataOffset(sub_0), dataSize(sub_0))\n  0x00\n  assignImmutable(\"0xca4b0db001bf2677ca5ac885bd7766c7c4b4b5d0170066d4830e0728bf019f64\")\n  return(0x00, dataSize(sub_0))\nstop\n\nsub_0: assembly {\n        /* \"ICO/ICOProxy.sol\":429:15754  contract ICO is ReentrancyGuardUpgradeable ,OwnableUpgradeable, UUPSUpgradeable {... */\n      mstore(0x40, 0x80)\n      jumpi(tag_1, lt(calldatasize, 0x04))\n      shr(0xe0, calldataload(0x00))\n      dup1\n      0x7fb12001\n      gt\n      tag_44\n      jumpi\n      dup1\n      0xb3fdafb9\n      gt\n      tag_45\n      jumpi\n      dup1\n      0xc81ffdea\n      gt\n      tag_46\n      jumpi\n      dup1\n      0xc81ffdea\n      eq\n      tag_38\n      jumpi\n      dup1\n      0xd1f3b23e\n      eq\n      tag_39\n      jumpi\n      dup1\n      0xe8e87389\n      eq\n      tag_40\n      jumpi\n      dup1\n      0xf2fde38b\n      eq\n      tag_41\n      jumpi\n      dup1\n      0xfc0c546a\n      eq\n      tag_42\n      jumpi\n      dup1\n      0xfd663da2\n      eq\n      tag_43\n      jumpi\n      revert(0x00, 0x00)\n    tag_46:\n      dup1\n      0xb3fdafb9\n      eq\n      tag_33\n      jumpi\n      dup1\n      0xb5f522f7\n      eq\n      tag_34\n      jumpi\n      dup1\n      0xb9469e1a\n      eq\n      tag_35\n      jumpi\n      dup1\n      0xc1560a14\n      eq\n      tag_36\n      jumpi\n      dup1\n      0xc211e1f9\n      eq\n      tag_37\n      jumpi\n      revert(0x00, 0x00)\n    tag_45:\n      dup1\n      0x960524e3\n      gt\n      tag_47\n      jumpi\n      dup1\n      0x960524e3\n      eq\n      tag_28\n      jumpi\n      dup1\n      0x9fa8adb8\n      eq\n      tag_29\n      jumpi\n      dup1\n      0xa1c4b5a2\n      eq\n      tag_30\n      jumpi\n      dup1\n      0xa1e89aec\n      eq\n      tag_31\n      jumpi\n      dup1\n      0xad3cb1cc\n      eq\n      tag_32\n      jumpi\n      revert(0x00, 0x00)\n    tag_47:\n      dup1\n      0x7fb12001\n      eq\n      tag_23\n      jumpi\n      dup1\n      0x8da5cb5b\n      eq\n      tag_24\n      jumpi\n      dup1\n      0x91152c5c\n      eq\n      tag_25\n      jumpi\n      dup1\n      0x91d8730a\n      eq\n      tag_26\n      jumpi\n      dup1\n      0x940c333e\n      eq\n      tag_27\n      jumpi\n      revert(0x00, 0x00)\n    tag_44:\n      dup1\n      0x3feb5f2b\n      gt\n      tag_48\n      jumpi\n      dup1\n      0x63b20117\n      gt\n      tag_49\n      jumpi\n      dup1\n      0x63b20117\n      eq\n      tag_18\n      jumpi\n      dup1\n      0x6c1909ed\n      eq\n      tag_19\n      jumpi\n      dup1\n      0x715018a6\n      eq\n      tag_20\n      jumpi\n      dup1\n      0x721bc38b\n      eq\n      tag_21\n      jumpi\n      dup1\n      0x7cf12b90\n      eq\n      tag_22\n      jumpi\n      revert(0x00, 0x00)\n    tag_49:\n      dup1\n      0x3feb5f2b\n      eq\n      tag_13\n      jumpi\n      dup1\n      0x4dee1dc3\n      eq\n      tag_14\n      jumpi\n      dup1\n      0x4f1ef286\n      eq\n      tag_15\n      jumpi\n      dup1\n      0x52d1902d\n      eq\n      tag_16\n      jumpi\n      dup1\n      0x62a5af3b\n      eq\n      tag_17\n      jumpi\n      revert(0x00, 0x00)\n    tag_48:\n      dup1\n      0x2151206e\n      gt\n      tag_50\n      jumpi\n      dup1\n      0x2151206e\n      eq\n      tag_8\n      jumpi\n      dup1\n      0x23cc75a8\n      eq\n      tag_9\n      jumpi\n      dup1\n      0x2593198d\n      eq\n      tag_10\n      jumpi\n      dup1\n      0x2f48ab7d\n      eq\n      tag_11\n      jumpi\n      dup1\n      0x3e413bee\n      eq\n      tag_12\n      jumpi\n      revert(0x00, 0x00)\n    tag_50:\n      dup1\n      0x05834e67\n      eq\n      tag_3\n      jumpi\n      dup1\n      0x06e4d36f\n      eq\n      tag_4\n      jumpi\n      dup1\n      0x115afc3a\n      eq\n      tag_5\n      jumpi\n      dup1\n      0x117d260f\n      eq\n      tag_6\n      jumpi\n      dup1\n      0x212ea247\n      eq\n      tag_7\n      jumpi\n      revert(0x00, 0x00)\n    tag_1:\n      jumpi(tag_2, calldatasize)\n        /* \"ICO/ICOProxy.sol\":14766:14808  revert(\"Direct BNB transfers not allowed\") */\n      mload(0x40)\n      shl(0xe5, 0x461bcd)\n      dup2\n      mstore\n        /* \"#utility.yul\":216:218   */\n      0x20\n        /* \"ICO/ICOProxy.sol\":14766:14808  revert(\"Direct BNB transfers not allowed\") */\n      0x04\n      dup3\n      add\n        /* \"#utility.yul\":198:219   */\n      dup2\n      swap1\n      mstore\n        /* \"#utility.yul\":235:253   */\n      0x24\n      dup3\n      add\n        /* \"#utility.yul\":228:258   */\n      mstore\n        /* \"#utility.yul\":294:328   */\n      0x44697265637420424e42207472616e7366657273206e6f7420616c6c6f776564\n        /* \"#utility.yul\":274:292   */\n      0x44\n      dup3\n      add\n        /* \"#utility.yul\":267:329   */\n      mstore\n        /* \"#utility.yul\":346:364   */\n      0x64\n      add\n        /* \"ICO/ICOProxy.sol\":14766:14808  revert(\"Direct BNB transfers not allowed\") */\n    tag_53:\n      mload(0x40)\n      dup1\n      swap2\n      sub\n      swap1\n      revert\n        /* \"ICO/ICOProxy.sol\":429:15754  contract ICO is ReentrancyGuardUpgradeable ,OwnableUpgradeable, UUPSUpgradeable {... */\n    tag_2:\n      revert(0x00, 0x00)\n        /* \"ICO/ICOProxy.sol\":5373:6605  function calculateTokenAmount(... */\n    tag_3:\n      callvalue\n      dup1\n      iszero\n      tag_55\n      jumpi\n      revert(0x00, 0x00)\n    tag_55:\n      pop\n      tag_56\n      tag_57\n      calldatasize\n      0x04\n      tag_58\n      jump\t// in\n    tag_57:\n      tag_59\n      jump\t// in\n    tag_56:\n      mload(0x40)\n        /* \"#utility.yul\":1014:1039   */\n      swap1\n      dup2\n      mstore\n        /* \"#utility.yul\":1002:1004   */\n      0x20\n        /* \"#utility.yul\":987:1005   */\n      add\n        /* \"ICO/ICOProxy.sol\":5373:6605  function calculateTokenAmount(... */\n    tag_60:\n      mload(0x40)\n      dup1\n      swap2\n      sub\n      swap1\n      return\n        /* \"ICO/ICOProxy.sol\":15266:15383  function getSoftCapReached() public view returns (bool) {... */\n    tag_4:\n      callvalue\n      dup1\n      iszero\n      tag_62\n      jumpi\n      revert(0x00, 0x00)\n    tag_62:\n      pop\n        /* \"ICO/ICOProxy.sol\":15363:15375  softCapInUSD */\n      sload(0x04)\n        /* \"ICO/ICOProxy.sol\":15340:15359  totalFundsRaisedUSD */\n      sload(0x07)\n        /* \"ICO/ICOProxy.sol\":15340:15375  totalFundsRaisedUSD >= softCapInUSD */\n      lt\n      iszero\n        /* \"ICO/ICOProxy.sol\":15266:15383  function getSoftCapReached() public view returns (bool) {... */\n    tag_63:\n      mload(0x40)\n        /* \"#utility.yul\":1215:1229   */\n      swap1\n      iszero\n        /* \"#utility.yul\":1208:1230   */\n      iszero\n        /* \"#utility.yul\":1190:1231   */\n      dup2\n      mstore\n        /* \"#utility.yul\":1178:1180   */\n      0x20\n        /* \"#utility.yul\":1163:1181   */\n      add\n        /* \"ICO/ICOProxy.sol\":15266:15383  function getSoftCapReached() public view returns (bool) {... */\n      tag_60\n        /* \"#utility.yul\":1050:1237   */\n      jump\n        /* \"ICO/ICOProxy.sol\":3601:4247  function _getPriceFeed(PaymentMethod paymentMethod)... */\n    tag_5:\n      callvalue\n      dup1\n      iszero\n      tag_67\n      jumpi\n      revert(0x00, 0x00)\n    tag_67:\n      pop\n      tag_56\n      tag_69\n      calldatasize\n      0x04\n      tag_70\n      jump\t// in\n    tag_69:\n      tag_71\n      jump\t// in\n        /* \"ICO/ICOProxy.sol\":6611:7724  function calculatePaymentAmount(... */\n    tag_6:\n      callvalue\n      dup1\n      iszero\n      tag_74\n      jumpi\n      revert(0x00, 0x00)\n    tag_74:\n      pop\n      tag_56\n      tag_76\n      calldatasize\n      0x04\n      tag_58\n      jump\t// in\n    tag_76:\n      tag_77\n      jump\t// in\n        /* \"ICO/ICOProxy.sol\":14821:14912  function getCurrentSaleId() public view returns (uint256) {... */\n    tag_7:\n      callvalue\n      dup1\n      iszero\n      tag_79\n      jumpi\n      revert(0x00, 0x00)\n    tag_79:\n      pop\n        /* \"ICO/ICOProxy.sol\":14896:14905  saleCount */\n      sload(0x06)\n        /* \"ICO/ICOProxy.sol\":14821:14912  function getCurrentSaleId() public view returns (uint256) {... */\n      jump(tag_56)\n        /* \"ICO/ICOProxy.sol\":973:1000  uint256 public softCapInUSD */\n    tag_8:\n      callvalue\n      dup1\n      iszero\n      tag_83\n      jumpi\n      revert(0x00, 0x00)\n    tag_83:\n      pop\n      tag_56\n      sload(0x04)\n      dup2\n      jump\n        /* \"ICO/ICOProxy.sol\":10159:10570  function finalizeICO()... */\n    tag_9:\n      callvalue\n      dup1\n      iszero\n      tag_87\n      jumpi\n      revert(0x00, 0x00)\n    tag_87:\n      pop\n      tag_88\n      tag_89\n      jump\t// in\n    tag_88:\n      stop\n        /* \"ICO/ICOProxy.sol\":4355:4451  function precision_mul_18(uint val) public pure returns(uint){... */\n    tag_10:\n      callvalue\n      dup1\n      iszero\n      tag_90\n      jumpi\n      revert(0x00, 0x00)\n    tag_90:\n      pop\n      tag_56\n      tag_92\n      calldatasize\n      0x04\n      tag_93\n      jump\t// in\n    tag_92:\n      tag_94\n      jump\t// in\n        /* \"ICO/ICOProxy.sol\":1359:1378  address public usdt */\n    tag_11:\n      callvalue\n      dup1\n      iszero\n      tag_96\n      jumpi\n      revert(0x00, 0x00)\n    tag_96:\n      pop\n      sload(0x0b)\n      tag_97\n      swap1\n      sub(shl(0xa0, 0x01), 0x01)\n      and\n      dup2\n      jump\n    tag_97:\n      mload(0x40)\n      sub(shl(0xa0, 0x01), 0x01)\n        /* \"#utility.yul\":2037:2069   */\n      swap1\n      swap2\n      and\n        /* \"#utility.yul\":2019:2070   */\n      dup2\n      mstore\n        /* \"#utility.yul\":2007:2009   */\n      0x20\n        /* \"#utility.yul\":1992:2010   */\n      add\n        /* \"ICO/ICOProxy.sol\":1359:1378  address public usdt */\n      tag_60\n        /* \"#utility.yul\":1873:2076   */\n      jump\n        /* \"ICO/ICOProxy.sol\":1384:1403  address public usdc */\n    tag_12:\n      callvalue\n      dup1\n      iszero\n      tag_101\n      jumpi\n      revert(0x00, 0x00)\n    tag_101:\n      pop\n      sload(0x0c)\n      tag_97\n      swap1\n      sub(shl(0xa0, 0x01), 0x01)\n      and\n      dup2\n      jump\n        /* \"ICO/ICOProxy.sol\":1327:1353  address[] public investors */\n    tag_13:\n      callvalue\n      dup1\n      iszero\n      tag_105\n      jumpi\n      revert(0x00, 0x00)\n    tag_105:\n      pop\n      tag_97\n      tag_107\n      calldatasize\n      0x04\n      tag_93\n      jump\t// in\n    tag_107:\n      tag_108\n      jump\t// in\n        /* \"ICO/ICOProxy.sol\":1262:1292  bool public isTokensAirdropped */\n    tag_14:\n      callvalue\n      dup1\n      iszero\n      tag_110\n      jumpi\n      revert(0x00, 0x00)\n    tag_110:\n      pop\n      sload(0x09)\n      tag_63\n      swap1\n      0x0100\n      swap1\n      div\n      0xff\n      and\n      dup2\n      jump\n        /* \"@openzeppelin/contracts-upgradeable/proxy/utils/UUPSUpgradeable.sol\":4161:4375  function upgradeToAndCall(address newImplementation, bytes memory data) public payable virtual onlyProxy {... */\n    tag_15:\n      tag_88\n      tag_115\n      calldatasize\n      0x04\n      tag_116\n      jump\t// in\n    tag_115:\n      tag_117\n      jump\t// in\n        /* \"@openzeppelin/contracts-upgradeable/proxy/utils/UUPSUpgradeable.sol\":3708:3842  function proxiableUUID() external view virtual notDelegated returns (bytes32) {... */\n    tag_16:\n      callvalue\n      dup1\n      iszero\n      tag_118\n      jumpi\n      revert(0x00, 0x00)\n    tag_118:\n      pop\n      tag_56\n      tag_120\n      jump\t// in\n        /* \"ICO/ICOProxy.sol\":3338:3467  function freeze() external onlyOwner freezed {... */\n    tag_17:\n      callvalue\n      dup1\n      iszero\n      tag_123\n      jumpi\n      revert(0x00, 0x00)\n    tag_123:\n      pop\n      tag_88\n      tag_125\n      jump\t// in\n        /* \"ICO/ICOProxy.sol\":1109:1139  uint256 public totalTokensSold */\n    tag_18:\n      callvalue\n      dup1\n      iszero\n      tag_126\n      jumpi\n      revert(0x00, 0x00)\n    tag_126:\n      pop\n      tag_56\n      sload(0x08)\n      dup2\n      jump\n        /* \"ICO/ICOProxy.sol\":4659:5367  function createSale(... */\n    tag_19:\n      callvalue\n      dup1\n      iszero\n      tag_130\n      jumpi\n      revert(0x00, 0x00)\n    tag_130:\n      pop\n      tag_88\n      tag_132\n      calldatasize\n      0x04\n      tag_133\n      jump\t// in\n    tag_132:\n      tag_134\n      jump\t// in\n        /* \"@openzeppelin/contracts-upgradeable/access/OwnableUpgradeable.sol\":3155:3256  function renounceOwnership() public virtual onlyOwner {... */\n    tag_20:\n      callvalue\n      dup1\n      iszero\n      tag_135\n      jumpi\n      revert(0x00, 0x00)\n    tag_135:\n      pop\n      tag_88\n      tag_137\n      jump\t// in\n        /* \"ICO/ICOProxy.sol\":1069:1103  uint256 public totalFundsRaisedUSD */\n    tag_21:\n      callvalue\n      dup1\n      iszero\n      tag_138\n      jumpi\n      revert(0x00, 0x00)\n    tag_138:\n      pop\n      tag_56\n      sload(0x07)\n      dup2\n      jump\n        /* \"ICO/ICOProxy.sol\":3473:3595  function unFreeze() external onlyOwner {... */\n    tag_22:\n      callvalue\n      dup1\n      iszero\n      tag_142\n      jumpi\n      revert(0x00, 0x00)\n    tag_142:\n      pop\n      tag_88\n      tag_144\n      jump\t// in\n        /* \"ICO/ICOProxy.sol\":12677:14723  function initiateRefund() external nonReentrant onlyOwner icoNotFinalized {... */\n    tag_23:\n      callvalue\n      dup1\n      iszero\n      tag_145\n      jumpi\n      revert(0x00, 0x00)\n    tag_145:\n      pop\n      tag_88\n      tag_147\n      jump\t// in\n        /* \"@openzeppelin/contracts-upgradeable/access/OwnableUpgradeable.sol\":2441:2585  function owner() public view virtual returns (address) {... */\n    tag_24:\n      callvalue\n      dup1\n      iszero\n      tag_148\n      jumpi\n      revert(0x00, 0x00)\n    tag_148:\n      pop\n      tag_97\n      tag_150\n      jump\t// in\n        /* \"ICO/ICOProxy.sol\":11362:12671  function airdropTokens()... */\n    tag_25:\n      callvalue\n      dup1\n      iszero\n      tag_152\n      jumpi\n      revert(0x00, 0x00)\n    tag_152:\n      pop\n      tag_88\n      tag_154\n      jump\t// in\n        /* \"ICO/ICOProxy.sol\":15389:15506  function getHardCapReached() public view returns (bool) {... */\n    tag_26:\n      callvalue\n      dup1\n      iszero\n      tag_155\n      jumpi\n      revert(0x00, 0x00)\n    tag_155:\n      pop\n        /* \"ICO/ICOProxy.sol\":15486:15498  hardCapInUSD */\n      sload(0x05)\n        /* \"ICO/ICOProxy.sol\":15463:15482  totalFundsRaisedUSD */\n      sload(0x07)\n        /* \"ICO/ICOProxy.sol\":15463:15498  totalFundsRaisedUSD == hardCapInUSD */\n      eq\n        /* \"ICO/ICOProxy.sol\":15389:15506  function getHardCapReached() public view returns (bool) {... */\n      jump(tag_63)\n        /* \"ICO/ICOProxy.sol\":7730:10153  function buyTokens(PaymentMethod paymentMethod, uint256 paymentAmount)... */\n    tag_27:\n      tag_88\n      tag_160\n      calldatasize\n      0x04\n      tag_58\n      jump\t// in\n    tag_160:\n      tag_161\n      jump\t// in\n        /* \"ICO/ICOProxy.sol\":15512:15663  function getInvestorCount() public view returns (uint256 investorCount) {... */\n    tag_28:\n      callvalue\n      dup1\n      iszero\n      tag_162\n      jumpi\n      revert(0x00, 0x00)\n    tag_162:\n      pop\n        /* \"ICO/ICOProxy.sol\":15610:15619  investors */\n      0x0a\n        /* \"ICO/ICOProxy.sol\":15610:15626  investors.length */\n      sload\n        /* \"ICO/ICOProxy.sol\":15512:15663  function getInvestorCount() public view returns (uint256 investorCount) {... */\n      jump(tag_56)\n        /* \"ICO/ICOProxy.sol\":4557:4653  function precision_div_18(uint val) public pure returns(uint){... */\n    tag_29:\n      callvalue\n      dup1\n      iszero\n      tag_166\n      jumpi\n      revert(0x00, 0x00)\n    tag_166:\n      pop\n      tag_56\n      tag_168\n      calldatasize\n      0x04\n      tag_93\n      jump\t// in\n    tag_168:\n      tag_169\n      jump\t// in\n        /* \"ICO/ICOProxy.sol\":4253:4349  function precision_mul_10(uint val) public pure returns(uint){... */\n    tag_30:\n      callvalue\n      dup1\n      iszero\n      tag_171\n      jumpi\n      revert(0x00, 0x00)\n    tag_171:\n      pop\n      tag_56\n      tag_173\n      calldatasize\n      0x04\n      tag_93\n      jump\t// in\n    tag_173:\n      tag_174\n      jump\t// in\n        /* \"ICO/ICOProxy.sol\":1039:1063  uint256 public saleCount */\n    tag_31:\n      callvalue\n      dup1\n      iszero\n      tag_176\n      jumpi\n      revert(0x00, 0x00)\n    tag_176:\n      pop\n      tag_56\n      sload(0x06)\n      dup2\n      jump\n        /* \"@openzeppelin/contracts-upgradeable/proxy/utils/UUPSUpgradeable.sol\":1819:1877  string public constant UPGRADE_INTERFACE_VERSION = \"5.0.0\" */\n    tag_32:\n      callvalue\n      dup1\n      iszero\n      tag_180\n      jumpi\n      revert(0x00, 0x00)\n    tag_180:\n      pop\n      tag_181\n      mload(0x40)\n      dup1\n      0x40\n      add\n      0x40\n      mstore\n      dup1\n      0x05\n      dup2\n      mstore\n      0x20\n      add\n      shl(0xdc, 0x0352e302e3)\n      dup2\n      mstore\n      pop\n      dup2\n      jump\n    tag_181:\n      mload(0x40)\n      tag_60\n      swap2\n      swap1\n      tag_184\n      jump\t// in\n        /* \"ICO/ICOProxy.sol\":4456:4552  function precision_div_10(uint val) public pure returns(uint){... */\n    tag_33:\n      callvalue\n      dup1\n      iszero\n      tag_185\n      jumpi\n      revert(0x00, 0x00)\n    tag_185:\n      pop\n      tag_56\n      tag_187\n      calldatasize\n      0x04\n      tag_93\n      jump\t// in\n    tag_187:\n      tag_188\n      jump\t// in\n        /* \"ICO/ICOProxy.sol\":1426:1463  mapping(uint256 => Sale) public sales */\n    tag_34:\n      callvalue\n      dup1\n      iszero\n      tag_190\n      jumpi\n      revert(0x00, 0x00)\n    tag_190:\n      pop\n      tag_191\n      tag_192\n      calldatasize\n      0x04\n      tag_93\n      jump\t// in\n    tag_192:\n      mstore(0x20, 0x0d)\n      0x00\n      swap1\n      dup2\n      mstore\n      0x40\n      swap1\n      keccak256\n      dup1\n      sload\n      0x01\n      dup3\n      add\n      sload\n      0x02\n      dup4\n      add\n      sload\n      0x03\n      dup5\n      add\n      sload\n      0x04\n      swap1\n      swap5\n      add\n      sload\n      swap3\n      swap4\n      swap2\n      swap3\n      swap1\n      swap2\n      swap1\n      0xff\n      and\n      dup6\n      jump\n    tag_191:\n      0x40\n      dup1\n      mload\n        /* \"#utility.yul\":4762:4787   */\n      swap6\n      dup7\n      mstore\n        /* \"#utility.yul\":4818:4820   */\n      0x20\n        /* \"#utility.yul\":4803:4821   */\n      dup7\n      add\n        /* \"#utility.yul\":4796:4830   */\n      swap5\n      swap1\n      swap5\n      mstore\n        /* \"#utility.yul\":4846:4864   */\n      swap3\n      dup5\n      add\n        /* \"#utility.yul\":4839:4873   */\n      swap2\n      swap1\n      swap2\n      mstore\n        /* \"#utility.yul\":4904:4906   */\n      0x60\n        /* \"#utility.yul\":4889:4907   */\n      dup4\n      add\n        /* \"#utility.yul\":4882:4916   */\n      mstore\n        /* \"#utility.yul\":4960:4974   */\n      iszero\n        /* \"#utility.yul\":4953:4975   */\n      iszero\n        /* \"#utility.yul\":4947:4950   */\n      0x80\n        /* \"#utility.yul\":4932:4951   */\n      dup3\n      add\n        /* \"#utility.yul\":4925:4976   */\n      mstore\n        /* \"#utility.yul\":4749:4752   */\n      0xa0\n        /* \"#utility.yul\":4734:4753   */\n      add\n        /* \"ICO/ICOProxy.sol\":1426:1463  mapping(uint256 => Sale) public sales */\n      tag_60\n        /* \"#utility.yul\":4509:4982   */\n      jump\n        /* \"ICO/ICOProxy.sol\":1298:1319  bool public isFreezed */\n    tag_35:\n      callvalue\n      dup1\n      iszero\n      tag_196\n      jumpi\n      revert(0x00, 0x00)\n    tag_196:\n      pop\n      sload(0x09)\n      tag_63\n      swap1\n      0x010000\n      swap1\n      div\n      0xff\n      and\n      dup2\n      jump\n        /* \"ICO/ICOProxy.sol\":1006:1033  uint256 public hardCapInUSD */\n    tag_36:\n      callvalue\n      dup1\n      iszero\n      tag_200\n      jumpi\n      revert(0x00, 0x00)\n    tag_200:\n      pop\n      tag_56\n      sload(0x05)\n      dup2\n      jump\n        /* \"ICO/ICOProxy.sol\":15036:15260  function getSaleStartEndTime(uint256)... */\n    tag_37:\n      callvalue\n      dup1\n      iszero\n      tag_204\n      jumpi\n      revert(0x00, 0x00)\n    tag_204:\n      pop\n      tag_205\n      tag_206\n      calldatasize\n      0x04\n      tag_93\n      jump\t// in\n    tag_206:\n      pop\n        /* \"ICO/ICOProxy.sol\":15196:15205  saleCount */\n      sload(0x06)\n        /* \"ICO/ICOProxy.sol\":15119:15137  uint256 _startTime */\n      0x00\n        /* \"ICO/ICOProxy.sol\":15190:15206  sales[saleCount] */\n      swap1\n      dup2\n      mstore\n        /* \"ICO/ICOProxy.sol\":15190:15195  sales */\n      0x0d\n        /* \"ICO/ICOProxy.sol\":15190:15206  sales[saleCount] */\n      0x20\n      swap1\n      dup2\n      mstore\n      0x40\n      swap2\n      dup3\n      swap1\n      keccak256\n        /* \"ICO/ICOProxy.sol\":15171:15206  Sale memory sale = sales[saleCount] */\n      dup3\n      mload\n      0xa0\n      dup2\n      add\n      dup5\n      mstore\n      dup2\n      sload\n      dup1\n      dup3\n      mstore\n      0x01\n      dup4\n      add\n      sload\n      swap4\n      dup3\n      add\n      dup5\n      swap1\n      mstore\n      0x02\n      dup4\n      add\n      sload\n      swap5\n      dup3\n      add\n      swap5\n      swap1\n      swap5\n      mstore\n      0x03\n      dup3\n      add\n      sload\n      0x60\n      dup3\n      add\n      mstore\n      0x04\n      swap1\n      swap2\n      add\n      sload\n      0xff\n      and\n      iszero\n      iszero\n      0x80\n      swap1\n      swap2\n      add\n      mstore\n      swap1\n      swap2\n        /* \"ICO/ICOProxy.sol\":15036:15260  function getSaleStartEndTime(uint256)... */\n      jump\n    tag_205:\n      0x40\n      dup1\n      mload\n        /* \"#utility.yul\":5161:5186   */\n      swap3\n      dup4\n      mstore\n        /* \"#utility.yul\":5217:5219   */\n      0x20\n        /* \"#utility.yul\":5202:5220   */\n      dup4\n      add\n        /* \"#utility.yul\":5195:5229   */\n      swap2\n      swap1\n      swap2\n      mstore\n        /* \"#utility.yul\":5134:5152   */\n      add\n        /* \"ICO/ICOProxy.sol\":15036:15260  function getSaleStartEndTime(uint256)... */\n      tag_60\n        /* \"#utility.yul\":4987:5235   */\n      jump\n        /* \"ICO/ICOProxy.sol\":1469:1522  mapping(address => uint256) public contributionsInUSD */\n    tag_38:\n      callvalue\n      dup1\n      iszero\n      tag_210\n      jumpi\n      revert(0x00, 0x00)\n    tag_210:\n      pop\n      tag_56\n      tag_212\n      calldatasize\n      0x04\n      tag_213\n      jump\t// in\n    tag_212:\n      mstore(0x20, 0x0e)\n      0x00\n      swap1\n      dup2\n      mstore\n      0x40\n      swap1\n      keccak256\n      sload\n      dup2\n      jump\n        /* \"ICO/ICOProxy.sol\":1229:1255  bool public isICOFinalized */\n    tag_39:\n      callvalue\n      dup1\n      iszero\n      tag_216\n      jumpi\n      revert(0x00, 0x00)\n    tag_216:\n      pop\n      sload(0x09)\n      tag_63\n      swap1\n      0xff\n      and\n      dup2\n      jump\n        /* \"ICO/ICOProxy.sol\":1528:1585  mapping(address => uint256) public tokensBoughtByInvestor */\n    tag_40:\n      callvalue\n      dup1\n      iszero\n      tag_220\n      jumpi\n      revert(0x00, 0x00)\n    tag_220:\n      pop\n      tag_56\n      tag_222\n      calldatasize\n      0x04\n      tag_213\n      jump\t// in\n    tag_222:\n      mstore(0x20, 0x0f)\n      0x00\n      swap1\n      dup2\n      mstore\n      0x40\n      swap1\n      keccak256\n      sload\n      dup2\n      jump\n        /* \"@openzeppelin/contracts-upgradeable/access/OwnableUpgradeable.sol\":3405:3620  function transferOwnership(address newOwner) public virtual onlyOwner {... */\n    tag_41:\n      callvalue\n      dup1\n      iszero\n      tag_225\n      jumpi\n      revert(0x00, 0x00)\n    tag_225:\n      pop\n      tag_88\n      tag_227\n      calldatasize\n      0x04\n      tag_213\n      jump\t// in\n    tag_227:\n      tag_228\n      jump\t// in\n        /* \"ICO/ICOProxy.sol\":948:967  IERC20 public token */\n    tag_42:\n      callvalue\n      dup1\n      iszero\n      tag_229\n      jumpi\n      revert(0x00, 0x00)\n    tag_229:\n      pop\n      sload(0x03)\n      tag_97\n      swap1\n      sub(shl(0xa0, 0x01), 0x01)\n      and\n      dup2\n      jump\n        /* \"ICO/ICOProxy.sol\":2459:3139  function initialize(... */\n    tag_43:\n      callvalue\n      dup1\n      iszero\n      tag_234\n      jumpi\n      revert(0x00, 0x00)\n    tag_234:\n      pop\n      tag_88\n      tag_236\n      calldatasize\n      0x04\n      tag_237\n      jump\t// in\n    tag_236:\n      tag_238\n      jump\t// in\n        /* \"ICO/ICOProxy.sol\":5373:6605  function calculateTokenAmount(... */\n    tag_59:\n        /* \"ICO/ICOProxy.sol\":5498:5505  uint256 */\n      0x00\n        /* \"ICO/ICOProxy.sol\":5517:5530  uint256 price */\n      0x00\n        /* \"ICO/ICOProxy.sol\":5533:5585  precision_mul_10(uint(_getPriceFeed(paymentMethod))) */\n      tag_240\n        /* \"ICO/ICOProxy.sol\":5555:5583  _getPriceFeed(paymentMethod) */\n      tag_173\n        /* \"ICO/ICOProxy.sol\":5569:5582  paymentMethod */\n      dup6\n        /* \"ICO/ICOProxy.sol\":5555:5568  _getPriceFeed */\n      tag_71\n        /* \"ICO/ICOProxy.sol\":5555:5583  _getPriceFeed(paymentMethod) */\n      jump\t// in\n        /* \"ICO/ICOProxy.sol\":5533:5585  precision_mul_10(uint(_getPriceFeed(paymentMethod))) */\n    tag_240:\n        /* \"ICO/ICOProxy.sol\":5517:5585  uint256 price = precision_mul_10(uint(_getPriceFeed(paymentMethod))) */\n      swap1\n      pop\n        /* \"ICO/ICOProxy.sol\":5604:5609  price */\n      dup1\n        /* \"ICO/ICOProxy.sol\":5613:5614  0 */\n      0x00\n        /* \"ICO/ICOProxy.sol\":5604:5614  price != 0 */\n      sub\n        /* \"ICO/ICOProxy.sol\":5596:5637  require(price != 0, \"Invalid price feed\") */\n      tag_242\n      jumpi\n      mload(0x40)\n      shl(0xe5, 0x461bcd)\n      dup2\n      mstore\n        /* \"#utility.yul\":7134:7136   */\n      0x20\n        /* \"ICO/ICOProxy.sol\":5596:5637  require(price != 0, \"Invalid price feed\") */\n      0x04\n      dup3\n      add\n        /* \"#utility.yul\":7116:7137   */\n      mstore\n        /* \"#utility.yul\":7173:7175   */\n      0x12\n        /* \"#utility.yul\":7153:7171   */\n      0x24\n      dup3\n      add\n        /* \"#utility.yul\":7146:7176   */\n      mstore\n      shl(0x72, 0x125b9d985b1a59081c1c9a58d94819995959)\n        /* \"#utility.yul\":7192:7210   */\n      0x44\n      dup3\n      add\n        /* \"#utility.yul\":7185:7233   */\n      mstore\n        /* \"#utility.yul\":7250:7268   */\n      0x64\n      add\n        /* \"ICO/ICOProxy.sol\":5596:5637  require(price != 0, \"Invalid price feed\") */\n      tag_53\n        /* \"#utility.yul\":6932:7274   */\n      jump\n        /* \"ICO/ICOProxy.sol\":5596:5637  require(price != 0, \"Invalid price feed\") */\n    tag_242:\n        /* \"ICO/ICOProxy.sol\":5647:5668  uint256 currentSaleId */\n      0x00\n        /* \"ICO/ICOProxy.sol\":5671:5689  getCurrentSaleId() */\n      tag_245\n        /* \"ICO/ICOProxy.sol\":14896:14905  saleCount */\n      sload(0x06)\n      swap1\n        /* \"ICO/ICOProxy.sol\":14821:14912  function getCurrentSaleId() public view returns (uint256) {... */\n      jump\n        /* \"ICO/ICOProxy.sol\":5671:5689  getCurrentSaleId() */\n    tag_245:\n        /* \"ICO/ICOProxy.sol\":5699:5716  Sale storage sale */\n      0x00\n        /* \"ICO/ICOProxy.sol\":5719:5739  sales[currentSaleId] */\n      dup2\n      dup2\n      mstore\n        /* \"ICO/ICOProxy.sol\":5719:5724  sales */\n      0x0d\n        /* \"ICO/ICOProxy.sol\":5719:5739  sales[currentSaleId] */\n      0x20\n      mstore\n      0x40\n      dup2\n      keccak256\n        /* \"ICO/ICOProxy.sol\":5776:5794  sale.tokenPriceUSD */\n      0x02\n      dup2\n      add\n      sload\n        /* \"ICO/ICOProxy.sol\":5647:5689  uint256 currentSaleId = getCurrentSaleId() */\n      swap3\n      swap4\n      pop\n        /* \"ICO/ICOProxy.sol\":5719:5739  sales[currentSaleId] */\n      swap2\n        /* \"ICO/ICOProxy.sol\":5776:5794  sale.tokenPriceUSD */\n      swap1\n        /* \"ICO/ICOProxy.sol\":5699:5716  Sale storage sale */\n      dup1\n        /* \"ICO/ICOProxy.sol\":5878:5891  paymentMethod */\n      dup9\n        /* \"ICO/ICOProxy.sol\":5878:5912  paymentMethod == PaymentMethod.BNB */\n      0x02\n      dup2\n      gt\n      iszero\n      tag_250\n      jumpi\n      tag_250\n      tag_248\n      jump\t// in\n    tag_250:\n      sub\n        /* \"ICO/ICOProxy.sol\":5874:6472  if (paymentMethod == PaymentMethod.BNB) {... */\n      tag_251\n      jumpi\n        /* \"ICO/ICOProxy.sol\":5965:6013  precision_div_18(uint256(price) * paymentAmount) */\n      tag_252\n        /* \"ICO/ICOProxy.sol\":5982:6012  uint256(price) * paymentAmount */\n      tag_168\n        /* \"ICO/ICOProxy.sol\":5999:6012  paymentAmount */\n      dup9\n        /* \"ICO/ICOProxy.sol\":5990:5995  price */\n      dup8\n        /* \"ICO/ICOProxy.sol\":5982:6012  uint256(price) * paymentAmount */\n      tag_254\n      jump\t// in\n        /* \"ICO/ICOProxy.sol\":5965:6013  precision_div_18(uint256(price) * paymentAmount) */\n    tag_252:\n        /* \"ICO/ICOProxy.sol\":5928:6013  paymentAmountInUSD =... */\n      swap1\n      pop\n        /* \"ICO/ICOProxy.sol\":5874:6472  if (paymentMethod == PaymentMethod.BNB) {... */\n      jump(tag_273)\n    tag_251:\n        /* \"ICO/ICOProxy.sol\":6064:6082  PaymentMethod.USDC */\n      0x02\n        /* \"ICO/ICOProxy.sol\":6047:6060  paymentMethod */\n      dup9\n        /* \"ICO/ICOProxy.sol\":6047:6082  paymentMethod == PaymentMethod.USDC */\n      0x02\n      dup2\n      gt\n      iszero\n      tag_259\n      jumpi\n      tag_259\n      tag_248\n      jump\t// in\n    tag_259:\n      eq\n        /* \"ICO/ICOProxy.sol\":6047:6133  paymentMethod == PaymentMethod.USDC ||... */\n      dup1\n      tag_260\n      jumpi\n      pop\n        /* \"ICO/ICOProxy.sol\":6115:6133  PaymentMethod.USDT */\n      0x01\n        /* \"ICO/ICOProxy.sol\":6098:6111  paymentMethod */\n      dup9\n        /* \"ICO/ICOProxy.sol\":6098:6133  paymentMethod == PaymentMethod.USDT */\n      0x02\n      dup2\n      gt\n      iszero\n      tag_264\n      jumpi\n      tag_264\n      tag_248\n      jump\t// in\n    tag_264:\n      eq\n        /* \"ICO/ICOProxy.sol\":6047:6133  paymentMethod == PaymentMethod.USDC ||... */\n    tag_260:\n        /* \"ICO/ICOProxy.sol\":6030:6472  if (... */\n      iszero\n      tag_265\n      jumpi\n        /* \"ICO/ICOProxy.sol\":6187:6188  6 */\n      0x06\n        /* \"ICO/ICOProxy.sol\":6158:6184  uint256 stablecoinDecimals */\n      0x00\n        /* \"ICO/ICOProxy.sol\":6267:6290  18 - stablecoinDecimals */\n      tag_266\n        /* \"ICO/ICOProxy.sol\":6187:6188  6 */\n      dup3\n        /* \"ICO/ICOProxy.sol\":6267:6269  18 */\n      0x12\n        /* \"ICO/ICOProxy.sol\":6267:6290  18 - stablecoinDecimals */\n      tag_267\n      jump\t// in\n    tag_266:\n        /* \"ICO/ICOProxy.sol\":6262:6291  10**(18 - stablecoinDecimals) */\n      tag_268\n      swap1\n        /* \"ICO/ICOProxy.sol\":6262:6264  10 */\n      0x0a\n        /* \"ICO/ICOProxy.sol\":6262:6291  10**(18 - stablecoinDecimals) */\n      tag_269\n      jump\t// in\n    tag_268:\n        /* \"ICO/ICOProxy.sol\":6229:6292  paymentAmount *... */\n      tag_270\n      swap1\n        /* \"ICO/ICOProxy.sol\":6229:6242  paymentAmount */\n      dup11\n        /* \"ICO/ICOProxy.sol\":6229:6292  paymentAmount *... */\n      tag_254\n      jump\t// in\n    tag_270:\n        /* \"ICO/ICOProxy.sol\":6202:6292  uint256 normalizedAmount = paymentAmount *... */\n      swap1\n      pop\n        /* \"ICO/ICOProxy.sol\":6343:6394  precision_div_18(uint256(price) * normalizedAmount) */\n      tag_271\n        /* \"ICO/ICOProxy.sol\":6360:6393  uint256(price) * normalizedAmount */\n      tag_168\n        /* \"ICO/ICOProxy.sol\":6202:6292  uint256 normalizedAmount = paymentAmount *... */\n      dup3\n        /* \"ICO/ICOProxy.sol\":6368:6373  price */\n      dup10\n        /* \"ICO/ICOProxy.sol\":6360:6393  uint256(price) * normalizedAmount */\n      tag_254\n      jump\t// in\n        /* \"ICO/ICOProxy.sol\":6343:6394  precision_div_18(uint256(price) * normalizedAmount) */\n    tag_271:\n        /* \"ICO/ICOProxy.sol\":6306:6394  paymentAmountInUSD =... */\n      swap3\n      pop\n        /* \"ICO/ICOProxy.sol\":6144:6405  {... */\n      pop\n      pop\n        /* \"ICO/ICOProxy.sol\":6030:6472  if (... */\n      jump(tag_273)\n    tag_265:\n        /* \"ICO/ICOProxy.sol\":6425:6461  revert(\"Unsupported payment method\") */\n      mload(0x40)\n      shl(0xe5, 0x461bcd)\n      dup2\n      mstore\n        /* \"#utility.yul\":9474:9476   */\n      0x20\n        /* \"ICO/ICOProxy.sol\":6425:6461  revert(\"Unsupported payment method\") */\n      0x04\n      dup3\n      add\n        /* \"#utility.yul\":9456:9477   */\n      mstore\n        /* \"#utility.yul\":9513:9515   */\n      0x1a\n        /* \"#utility.yul\":9493:9511   */\n      0x24\n      dup3\n      add\n        /* \"#utility.yul\":9486:9516   */\n      mstore\n        /* \"#utility.yul\":9552:9580   */\n      0x556e737570706f72746564207061796d656e74206d6574686f64000000000000\n        /* \"#utility.yul\":9532:9550   */\n      0x44\n      dup3\n      add\n        /* \"#utility.yul\":9525:9581   */\n      mstore\n        /* \"#utility.yul\":9598:9616   */\n      0x64\n      add\n        /* \"ICO/ICOProxy.sol\":6425:6461  revert(\"Unsupported payment method\") */\n      tag_53\n        /* \"#utility.yul\":9272:9622   */\n      jump\n        /* \"ICO/ICOProxy.sol\":6030:6472  if (... */\n    tag_273:\n        /* \"ICO/ICOProxy.sol\":6482:6501  uint256 tokenAmount */\n      0x00\n        /* \"ICO/ICOProxy.sol\":6555:6570  tokenPriceInUSD */\n      dup3\n        /* \"ICO/ICOProxy.sol\":6504:6540  precision_mul_18(paymentAmountInUSD) */\n      tag_276\n        /* \"ICO/ICOProxy.sol\":6521:6539  paymentAmountInUSD */\n      dup4\n        /* \"ICO/ICOProxy.sol\":6504:6520  precision_mul_18 */\n      tag_94\n        /* \"ICO/ICOProxy.sol\":6504:6540  precision_mul_18(paymentAmountInUSD) */\n      jump\t// in\n    tag_276:\n        /* \"ICO/ICOProxy.sol\":6504:6570  precision_mul_18(paymentAmountInUSD) /... */\n      tag_277\n      swap2\n      swap1\n      tag_278\n      jump\t// in\n    tag_277:\n        /* \"ICO/ICOProxy.sol\":6482:6570  uint256 tokenAmount = precision_mul_18(paymentAmountInUSD) /... */\n      swap7\n      pop\n      pop\n      pop\n      pop\n      pop\n      pop\n      pop\n        /* \"ICO/ICOProxy.sol\":5373:6605  function calculateTokenAmount(... */\n    tag_239:\n      swap3\n      swap2\n      pop\n      pop\n      jump\t// out\n        /* \"ICO/ICOProxy.sol\":3601:4247  function _getPriceFeed(PaymentMethod paymentMethod)... */\n    tag_71:\n        /* \"ICO/ICOProxy.sol\":3698:3704  int256 */\n      0x00\n      dup1\n        /* \"ICO/ICOProxy.sol\":3724:3737  paymentMethod */\n      dup3\n        /* \"ICO/ICOProxy.sol\":3724:3758  paymentMethod == PaymentMethod.BNB */\n      0x02\n      dup2\n      gt\n      iszero\n      tag_284\n      jumpi\n      tag_284\n      tag_248\n      jump\t// in\n    tag_284:\n      sub\n        /* \"ICO/ICOProxy.sol\":3720:4241  if (paymentMethod == PaymentMethod.BNB) {... */\n      tag_285\n      jumpi\n        /* \"ICO/ICOProxy.sol\":3777:3789  int256 price */\n      0x00\n        /* \"ICO/ICOProxy.sol\":3799:3811  priceFeedBNB */\n      0x00\n      0x00\n      swap1\n      sload\n      swap1\n      0x0100\n      exp\n      swap1\n      div\n      sub(shl(0xa0, 0x01), 0x01)\n      and\n      sub(shl(0xa0, 0x01), 0x01)\n        /* \"ICO/ICOProxy.sol\":3799:3827  priceFeedBNB.latestRoundData */\n      and\n      0xfeaf968c\n        /* \"ICO/ICOProxy.sol\":3799:3829  priceFeedBNB.latestRoundData() */\n      mload(0x40)\n      dup2\n      0xffffffff\n      and\n      0xe0\n      shl\n      dup2\n      mstore\n      0x04\n      add\n      0xa0\n      mload(0x40)\n      dup1\n      dup4\n      sub\n      dup2\n      dup7\n      gas\n      staticcall\n      iszero\n      dup1\n      iszero\n      tag_287\n      jumpi\n      returndatacopy(0x00, 0x00, returndatasize)\n      revert(0x00, returndatasize)\n    tag_287:\n      pop\n      pop\n      pop\n      pop\n      mload(0x40)\n      returndatasize\n      not(0x1f)\n      0x1f\n      dup3\n      add\n      and\n      dup3\n      add\n      dup1\n      0x40\n      mstore\n      pop\n      dup2\n      add\n      swap1\n      tag_288\n      swap2\n      swap1\n      tag_289\n      jump\t// in\n    tag_288:\n      pop\n        /* \"ICO/ICOProxy.sol\":3774:3829  (, int256 price, , , ) = priceFeedBNB.latestRoundData() */\n      swap2\n      swap7\n        /* \"ICO/ICOProxy.sol\":3601:4247  function _getPriceFeed(PaymentMethod paymentMethod)... */\n      swap6\n      pop\n      pop\n      pop\n      pop\n      pop\n      pop\n      jump\t// out\n        /* \"ICO/ICOProxy.sol\":3720:4241  if (paymentMethod == PaymentMethod.BNB) {... */\n    tag_285:\n        /* \"ICO/ICOProxy.sol\":3893:3911  PaymentMethod.USDT */\n      0x01\n        /* \"ICO/ICOProxy.sol\":3876:3889  paymentMethod */\n      dup3\n        /* \"ICO/ICOProxy.sol\":3876:3911  paymentMethod == PaymentMethod.USDT */\n      0x02\n      dup2\n      gt\n      iszero\n      tag_294\n      jumpi\n      tag_294\n      tag_248\n      jump\t// in\n    tag_294:\n      sub\n        /* \"ICO/ICOProxy.sol\":3872:4241  if (paymentMethod == PaymentMethod.USDT) {... */\n      tag_295\n      jumpi\n        /* \"ICO/ICOProxy.sol\":3952:3965  priceFeedUSDT */\n      sload(0x01)\n        /* \"ICO/ICOProxy.sol\":3952:3983  priceFeedUSDT.latestRoundData() */\n      0x40\n      dup1\n      mload\n      shl(0xe2, 0x3fabe5a3)\n      dup2\n      mstore\n      swap1\n      mload\n        /* \"ICO/ICOProxy.sol\":3930:3942  int256 price */\n      0x00\n      swap3\n      sub(shl(0xa0, 0x01), 0x01)\n        /* \"ICO/ICOProxy.sol\":3952:3965  priceFeedUSDT */\n      and\n      swap2\n        /* \"ICO/ICOProxy.sol\":3952:3981  priceFeedUSDT.latestRoundData */\n      0xfeaf968c\n      swap2\n        /* \"ICO/ICOProxy.sol\":3952:3983  priceFeedUSDT.latestRoundData() */\n      0x04\n      dup1\n      dup4\n      add\n      swap3\n      0xa0\n      swap3\n      swap2\n      swap1\n      dup3\n      swap1\n      sub\n      add\n      dup2\n        /* \"ICO/ICOProxy.sol\":3952:3965  priceFeedUSDT */\n      dup7\n        /* \"ICO/ICOProxy.sol\":3952:3983  priceFeedUSDT.latestRoundData() */\n      gas\n      staticcall\n      iszero\n      dup1\n      iszero\n      tag_287\n      jumpi\n      returndatacopy(0x00, 0x00, returndatasize)\n      revert(0x00, returndatasize)\n        /* \"ICO/ICOProxy.sol\":3872:4241  if (paymentMethod == PaymentMethod.USDT) {... */\n    tag_295:\n        /* \"ICO/ICOProxy.sol\":4047:4065  PaymentMethod.USDC */\n      0x02\n        /* \"ICO/ICOProxy.sol\":4030:4043  paymentMethod */\n      dup3\n        /* \"ICO/ICOProxy.sol\":4030:4065  paymentMethod == PaymentMethod.USDC */\n      0x02\n      dup2\n      gt\n      iszero\n      tag_303\n      jumpi\n      tag_303\n      tag_248\n      jump\t// in\n    tag_303:\n      sub\n        /* \"ICO/ICOProxy.sol\":4026:4241  if (paymentMethod == PaymentMethod.USDC) {... */\n      tag_265\n      jumpi\n        /* \"ICO/ICOProxy.sol\":4106:4119  priceFeedUSDC */\n      sload(0x02)\n        /* \"ICO/ICOProxy.sol\":4106:4137  priceFeedUSDC.latestRoundData() */\n      0x40\n      dup1\n      mload\n      shl(0xe2, 0x3fabe5a3)\n      dup2\n      mstore\n      swap1\n      mload\n        /* \"ICO/ICOProxy.sol\":4084:4096  int256 price */\n      0x00\n      swap3\n      sub(shl(0xa0, 0x01), 0x01)\n        /* \"ICO/ICOProxy.sol\":4106:4119  priceFeedUSDC */\n      and\n      swap2\n        /* \"ICO/ICOProxy.sol\":4106:4135  priceFeedUSDC.latestRoundData */\n      0xfeaf968c\n      swap2\n        /* \"ICO/ICOProxy.sol\":4106:4137  priceFeedUSDC.latestRoundData() */\n      0x04\n      dup1\n      dup4\n      add\n      swap3\n      0xa0\n      swap3\n      swap2\n      swap1\n      dup3\n      swap1\n      sub\n      add\n      dup2\n        /* \"ICO/ICOProxy.sol\":4106:4119  priceFeedUSDC */\n      dup7\n        /* \"ICO/ICOProxy.sol\":4106:4137  priceFeedUSDC.latestRoundData() */\n      gas\n      staticcall\n      iszero\n      dup1\n      iszero\n      tag_287\n      jumpi\n      returndatacopy(0x00, 0x00, returndatasize)\n      revert(0x00, returndatasize)\n        /* \"ICO/ICOProxy.sol\":4026:4241  if (paymentMethod == PaymentMethod.USDC) {... */\n    tag_308:\n        /* \"ICO/ICOProxy.sol\":3601:4247  function _getPriceFeed(PaymentMethod paymentMethod)... */\n      swap2\n      swap1\n      pop\n      jump\t// out\n        /* \"ICO/ICOProxy.sol\":6611:7724  function calculatePaymentAmount(... */\n    tag_77:\n        /* \"ICO/ICOProxy.sol\":6738:6745  uint256 */\n      0x00\n        /* \"ICO/ICOProxy.sol\":6765:6776  tokenAmount */\n      dup2\n        /* \"ICO/ICOProxy.sol\":6780:6781  0 */\n      0x00\n        /* \"ICO/ICOProxy.sol\":6765:6781  tokenAmount != 0 */\n      sub\n        /* \"ICO/ICOProxy.sol\":6757:6809  require(tokenAmount != 0, \"Amount must be positive\") */\n      tag_311\n      jumpi\n      mload(0x40)\n      shl(0xe5, 0x461bcd)\n      dup2\n      mstore\n        /* \"#utility.yul\":10811:10813   */\n      0x20\n        /* \"ICO/ICOProxy.sol\":6757:6809  require(tokenAmount != 0, \"Amount must be positive\") */\n      0x04\n      dup3\n      add\n        /* \"#utility.yul\":10793:10814   */\n      mstore\n        /* \"#utility.yul\":10850:10852   */\n      0x17\n        /* \"#utility.yul\":10830:10848   */\n      0x24\n      dup3\n      add\n        /* \"#utility.yul\":10823:10853   */\n      mstore\n        /* \"#utility.yul\":10889:10914   */\n      0x416d6f756e74206d75737420626520706f736974697665000000000000000000\n        /* \"#utility.yul\":10869:10887   */\n      0x44\n      dup3\n      add\n        /* \"#utility.yul\":10862:10915   */\n      mstore\n        /* \"#utility.yul\":10932:10950   */\n      0x64\n      add\n        /* \"ICO/ICOProxy.sol\":6757:6809  require(tokenAmount != 0, \"Amount must be positive\") */\n      tag_53\n        /* \"#utility.yul\":10609:10956   */\n      jump\n        /* \"ICO/ICOProxy.sol\":6757:6809  require(tokenAmount != 0, \"Amount must be positive\") */\n    tag_311:\n        /* \"ICO/ICOProxy.sol\":6820:6833  uint256 price */\n      0x00\n        /* \"ICO/ICOProxy.sol\":6836:6888  precision_mul_10(uint(_getPriceFeed(paymentMethod))) */\n      tag_314\n        /* \"ICO/ICOProxy.sol\":6858:6886  _getPriceFeed(paymentMethod) */\n      tag_173\n        /* \"ICO/ICOProxy.sol\":6872:6885  paymentMethod */\n      dup6\n        /* \"ICO/ICOProxy.sol\":6858:6871  _getPriceFeed */\n      tag_71\n        /* \"ICO/ICOProxy.sol\":6858:6886  _getPriceFeed(paymentMethod) */\n      jump\t// in\n        /* \"ICO/ICOProxy.sol\":6836:6888  precision_mul_10(uint(_getPriceFeed(paymentMethod))) */\n    tag_314:\n        /* \"ICO/ICOProxy.sol\":6820:6888  uint256 price = precision_mul_10(uint(_getPriceFeed(paymentMethod))) */\n      swap1\n      pop\n        /* \"ICO/ICOProxy.sol\":6907:6912  price */\n      dup1\n        /* \"ICO/ICOProxy.sol\":6916:6917  0 */\n      0x00\n        /* \"ICO/ICOProxy.sol\":6907:6917  price != 0 */\n      sub\n        /* \"ICO/ICOProxy.sol\":6899:6940  require(price != 0, \"Invalid price feed\") */\n      tag_316\n      jumpi\n      mload(0x40)\n      shl(0xe5, 0x461bcd)\n      dup2\n      mstore\n        /* \"#utility.yul\":7134:7136   */\n      0x20\n        /* \"ICO/ICOProxy.sol\":6899:6940  require(price != 0, \"Invalid price feed\") */\n      0x04\n      dup3\n      add\n        /* \"#utility.yul\":7116:7137   */\n      mstore\n        /* \"#utility.yul\":7173:7175   */\n      0x12\n        /* \"#utility.yul\":7153:7171   */\n      0x24\n      dup3\n      add\n        /* \"#utility.yul\":7146:7176   */\n      mstore\n      shl(0x72, 0x125b9d985b1a59081c1c9a58d94819995959)\n        /* \"#utility.yul\":7192:7210   */\n      0x44\n      dup3\n      add\n        /* \"#utility.yul\":7185:7233   */\n      mstore\n        /* \"#utility.yul\":7250:7268   */\n      0x64\n      add\n        /* \"ICO/ICOProxy.sol\":6899:6940  require(price != 0, \"Invalid price feed\") */\n      tag_53\n        /* \"#utility.yul\":6932:7274   */\n      jump\n        /* \"ICO/ICOProxy.sol\":6899:6940  require(price != 0, \"Invalid price feed\") */\n    tag_316:\n        /* \"ICO/ICOProxy.sol\":6951:6972  uint256 currentSaleId */\n      0x00\n        /* \"ICO/ICOProxy.sol\":6975:6993  getCurrentSaleId() */\n      tag_318\n        /* \"ICO/ICOProxy.sol\":14896:14905  saleCount */\n      sload(0x06)\n      swap1\n        /* \"ICO/ICOProxy.sol\":14821:14912  function getCurrentSaleId() public view returns (uint256) {... */\n      jump\n        /* \"ICO/ICOProxy.sol\":6975:6993  getCurrentSaleId() */\n    tag_318:\n        /* \"ICO/ICOProxy.sol\":6951:6993  uint256 currentSaleId = getCurrentSaleId() */\n      swap1\n      pop\n        /* \"ICO/ICOProxy.sol\":7011:7024  currentSaleId */\n      dup1\n        /* \"ICO/ICOProxy.sol\":7028:7029  0 */\n      0x00\n        /* \"ICO/ICOProxy.sol\":7011:7029  currentSaleId != 0 */\n      sub\n        /* \"ICO/ICOProxy.sol\":7003:7048  require(currentSaleId != 0, \"No active sale\") */\n      tag_319\n      jumpi\n      mload(0x40)\n      shl(0xe5, 0x461bcd)\n      dup2\n      mstore\n        /* \"#utility.yul\":11163:11165   */\n      0x20\n        /* \"ICO/ICOProxy.sol\":7003:7048  require(currentSaleId != 0, \"No active sale\") */\n      0x04\n      dup3\n      add\n        /* \"#utility.yul\":11145:11166   */\n      mstore\n        /* \"#utility.yul\":11202:11204   */\n      0x0e\n        /* \"#utility.yul\":11182:11200   */\n      0x24\n      dup3\n      add\n        /* \"#utility.yul\":11175:11205   */\n      mstore\n      shl(0x90, 0x4e6f206163746976652073616c65)\n        /* \"#utility.yul\":11221:11239   */\n      0x44\n      dup3\n      add\n        /* \"#utility.yul\":11214:11258   */\n      mstore\n        /* \"#utility.yul\":11275:11293   */\n      0x64\n      add\n        /* \"ICO/ICOProxy.sol\":7003:7048  require(currentSaleId != 0, \"No active sale\") */\n      tag_53\n        /* \"#utility.yul\":10961:11299   */\n      jump\n        /* \"ICO/ICOProxy.sol\":7003:7048  require(currentSaleId != 0, \"No active sale\") */\n    tag_319:\n        /* \"ICO/ICOProxy.sol\":7058:7075  Sale storage sale */\n      0x00\n        /* \"ICO/ICOProxy.sol\":7078:7098  sales[currentSaleId] */\n      dup2\n      dup2\n      mstore\n        /* \"ICO/ICOProxy.sol\":7078:7083  sales */\n      0x0d\n        /* \"ICO/ICOProxy.sol\":7078:7098  sales[currentSaleId] */\n      0x20\n      mstore\n      0x40\n      dup2\n      keccak256\n        /* \"ICO/ICOProxy.sol\":7134:7152  sale.tokenPriceUSD */\n      0x02\n      dup2\n      add\n      sload\n        /* \"ICO/ICOProxy.sol\":7078:7098  sales[currentSaleId] */\n      swap1\n      swap2\n        /* \"ICO/ICOProxy.sol\":7191:7238  precision_div_18(tokenAmount * tokenPriceInUSD) */\n      tag_322\n        /* \"ICO/ICOProxy.sol\":7208:7237  tokenAmount * tokenPriceInUSD */\n      tag_168\n        /* \"ICO/ICOProxy.sol\":7134:7152  sale.tokenPriceUSD */\n      dup4\n        /* \"ICO/ICOProxy.sol\":7208:7219  tokenAmount */\n      dup10\n        /* \"ICO/ICOProxy.sol\":7208:7237  tokenAmount * tokenPriceInUSD */\n      tag_254\n      jump\t// in\n        /* \"ICO/ICOProxy.sol\":7191:7238  precision_div_18(tokenAmount * tokenPriceInUSD) */\n    tag_322:\n        /* \"ICO/ICOProxy.sol\":7163:7238  uint256 totalPaymentInUSD = precision_div_18(tokenAmount * tokenPriceInUSD) */\n      swap1\n      pop\n        /* \"ICO/ICOProxy.sol\":7249:7270  uint256 paymentAmount */\n      0x00\n      dup1\n        /* \"ICO/ICOProxy.sol\":7284:7297  paymentMethod */\n      dup10\n        /* \"ICO/ICOProxy.sol\":7284:7318  paymentMethod == PaymentMethod.BNB */\n      0x02\n      dup2\n      gt\n      iszero\n      tag_327\n      jumpi\n      tag_327\n      tag_248\n      jump\t// in\n    tag_327:\n      sub\n        /* \"ICO/ICOProxy.sol\":7280:7687  if (paymentMethod == PaymentMethod.BNB) {... */\n      tag_328\n      jumpi\n        /* \"ICO/ICOProxy.sol\":7396:7401  price */\n      dup6\n        /* \"ICO/ICOProxy.sol\":7350:7385  precision_mul_18(totalPaymentInUSD) */\n      tag_329\n        /* \"ICO/ICOProxy.sol\":7367:7384  totalPaymentInUSD */\n      dup4\n        /* \"ICO/ICOProxy.sol\":7350:7366  precision_mul_18 */\n      tag_94\n        /* \"ICO/ICOProxy.sol\":7350:7385  precision_mul_18(totalPaymentInUSD) */\n      jump\t// in\n    tag_329:\n        /* \"ICO/ICOProxy.sol\":7350:7402  precision_mul_18(totalPaymentInUSD) / uint256(price) */\n      tag_330\n      swap2\n      swap1\n      tag_278\n      jump\t// in\n    tag_330:\n        /* \"ICO/ICOProxy.sol\":7334:7402  paymentAmount = precision_mul_18(totalPaymentInUSD) / uint256(price) */\n      swap1\n      pop\n        /* \"ICO/ICOProxy.sol\":7280:7687  if (paymentMethod == PaymentMethod.BNB) {... */\n      jump(tag_344)\n    tag_328:\n        /* \"ICO/ICOProxy.sol\":7453:7471  PaymentMethod.USDT */\n      0x01\n        /* \"ICO/ICOProxy.sol\":7436:7449  paymentMethod */\n      dup10\n        /* \"ICO/ICOProxy.sol\":7436:7471  paymentMethod == PaymentMethod.USDT */\n      0x02\n      dup2\n      gt\n      iszero\n      tag_335\n      jumpi\n      tag_335\n      tag_248\n      jump\t// in\n    tag_335:\n      eq\n        /* \"ICO/ICOProxy.sol\":7436:7522  paymentMethod == PaymentMethod.USDT ||... */\n      dup1\n      tag_336\n      jumpi\n      pop\n        /* \"ICO/ICOProxy.sol\":7504:7522  PaymentMethod.USDC */\n      0x02\n        /* \"ICO/ICOProxy.sol\":7487:7500  paymentMethod */\n      dup10\n        /* \"ICO/ICOProxy.sol\":7487:7522  paymentMethod == PaymentMethod.USDC */\n      0x02\n      dup2\n      gt\n      iszero\n      tag_340\n      jumpi\n      tag_340\n      tag_248\n      jump\t// in\n    tag_340:\n      eq\n        /* \"ICO/ICOProxy.sol\":7436:7522  paymentMethod == PaymentMethod.USDT ||... */\n    tag_336:\n        /* \"ICO/ICOProxy.sol\":7419:7687  if (... */\n      iszero\n      tag_265\n      jumpi\n        /* \"ICO/ICOProxy.sol\":7603:7608  price */\n      dup6\n        /* \"ICO/ICOProxy.sol\":7564:7591  totalPaymentInUSD * (10**6) */\n      tag_329\n        /* \"ICO/ICOProxy.sol\":7564:7581  totalPaymentInUSD */\n      dup4\n        /* \"ICO/ICOProxy.sol\":7585:7590  10**6 */\n      0x0f4240\n        /* \"ICO/ICOProxy.sol\":7564:7591  totalPaymentInUSD * (10**6) */\n      tag_254\n      jump\t// in\n        /* \"ICO/ICOProxy.sol\":7419:7687  if (... */\n    tag_344:\n        /* \"ICO/ICOProxy.sol\":7704:7717  paymentAmount */\n      swap9\n        /* \"ICO/ICOProxy.sol\":6611:7724  function calculatePaymentAmount(... */\n      swap8\n      pop\n      pop\n      pop\n      pop\n      pop\n      pop\n      pop\n      pop\n      jump\t// out\n        /* \"ICO/ICOProxy.sol\":10159:10570  function finalizeICO()... */\n    tag_89:\n        /* \"@openzeppelin/contracts-upgradeable/utils/ReentrancyGuardUpgradeable.sol\":3395:3416  _nonReentrantBefore() */\n      tag_348\n        /* \"@openzeppelin/contracts-upgradeable/utils/ReentrancyGuardUpgradeable.sol\":3395:3414  _nonReentrantBefore */\n      tag_349\n        /* \"@openzeppelin/contracts-upgradeable/utils/ReentrancyGuardUpgradeable.sol\":3395:3416  _nonReentrantBefore() */\n      jump\t// in\n    tag_348:\n        /* \"@openzeppelin/contracts-upgradeable/access/OwnableUpgradeable.sol\":2334:2347  _checkOwner() */\n      tag_351\n        /* \"@openzeppelin/contracts-upgradeable/access/OwnableUpgradeable.sol\":2334:2345  _checkOwner */\n      tag_352\n        /* \"@openzeppelin/contracts-upgradeable/access/OwnableUpgradeable.sol\":2334:2347  _checkOwner() */\n      jump\t// in\n    tag_351:\n        /* \"ICO/ICOProxy.sol\":3191:3205  isICOFinalized */\n      and(0xff, sload(0x09))\n        /* \"ICO/ICOProxy.sol\":3190:3205  !isICOFinalized */\n      iszero\n        /* \"ICO/ICOProxy.sol\":3182:3231  require(!isICOFinalized, \"ICO already finalized\") */\n      tag_354\n      jumpi\n      mload(0x40)\n      shl(0xe5, 0x461bcd)\n      dup2\n      mstore\n      0x04\n      add\n      tag_53\n      swap1\n      tag_356\n      jump\t// in\n    tag_354:\n        /* \"ICO/ICOProxy.sol\":3293:3302  isFreezed */\n      sload(0x09)\n      0x010000\n      swap1\n      div\n      0xff\n      and\n        /* \"ICO/ICOProxy.sol\":3292:3302  !isFreezed */\n      iszero\n        /* \"ICO/ICOProxy.sol\":3284:3314  require(!isFreezed, \"freezed\") */\n      tag_358\n      jumpi\n      mload(0x40)\n      shl(0xe5, 0x461bcd)\n      dup2\n      mstore\n      0x04\n      add\n      tag_53\n      swap1\n      tag_360\n      jump\t// in\n    tag_358:\n        /* \"ICO/ICOProxy.sol\":10334:10346  softCapInUSD */\n      sload(0x04)\n        /* \"ICO/ICOProxy.sol\":10311:10330  totalFundsRaisedUSD */\n      sload(0x07)\n        /* \"ICO/ICOProxy.sol\":10311:10346  totalFundsRaisedUSD >= softCapInUSD */\n      lt\n      iszero\n        /* \"ICO/ICOProxy.sol\":10290:10392  require(... */\n      tag_362\n      jumpi\n      mload(0x40)\n      shl(0xe5, 0x461bcd)\n      dup2\n      mstore\n        /* \"#utility.yul\":12191:12193   */\n      0x20\n        /* \"ICO/ICOProxy.sol\":10290:10392  require(... */\n      0x04\n      dup3\n      add\n        /* \"#utility.yul\":12173:12194   */\n      mstore\n        /* \"#utility.yul\":12230:12232   */\n      0x14\n        /* \"#utility.yul\":12210:12228   */\n      0x24\n      dup3\n      add\n        /* \"#utility.yul\":12203:12233   */\n      mstore\n      shl(0x62, 0x14dbd99d0810d85c081393dd0814995858da1959)\n        /* \"#utility.yul\":12249:12267   */\n      0x44\n      dup3\n      add\n        /* \"#utility.yul\":12242:12292   */\n      mstore\n        /* \"#utility.yul\":12309:12327   */\n      0x64\n      add\n        /* \"ICO/ICOProxy.sol\":10290:10392  require(... */\n      tag_53\n        /* \"#utility.yul\":11989:12333   */\n      jump\n        /* \"ICO/ICOProxy.sol\":10290:10392  require(... */\n    tag_362:\n        /* \"ICO/ICOProxy.sol\":10410:10428  isTokensAirdropped */\n      sload(0x09)\n      0x0100\n      swap1\n      div\n      0xff\n      and\n        /* \"ICO/ICOProxy.sol\":10402:10454  require(isTokensAirdropped, \"Airdrop not completed\") */\n      tag_365\n      jumpi\n      mload(0x40)\n      shl(0xe5, 0x461bcd)\n      dup2\n      mstore\n        /* \"#utility.yul\":12540:12542   */\n      0x20\n        /* \"ICO/ICOProxy.sol\":10402:10454  require(isTokensAirdropped, \"Airdrop not completed\") */\n      0x04\n      dup3\n      add\n        /* \"#utility.yul\":12522:12543   */\n      mstore\n        /* \"#utility.yul\":12579:12581   */\n      0x15\n        /* \"#utility.yul\":12559:12577   */\n      0x24\n      dup3\n      add\n        /* \"#utility.yul\":12552:12582   */\n      mstore\n      shl(0x5a, 0x105a5c991c9bdc081b9bdd0818dbdb5c1b195d1959)\n        /* \"#utility.yul\":12598:12616   */\n      0x44\n      dup3\n      add\n        /* \"#utility.yul\":12591:12642   */\n      mstore\n        /* \"#utility.yul\":12659:12677   */\n      0x64\n      add\n        /* \"ICO/ICOProxy.sol\":10402:10454  require(isTokensAirdropped, \"Airdrop not completed\") */\n      tag_53\n        /* \"#utility.yul\":12338:12683   */\n      jump\n        /* \"ICO/ICOProxy.sol\":10402:10454  require(isTokensAirdropped, \"Airdrop not completed\") */\n    tag_365:\n        /* \"ICO/ICOProxy.sol\":10465:10479  isICOFinalized */\n      0x09\n        /* \"ICO/ICOProxy.sol\":10465:10486  isICOFinalized = true */\n      dup1\n      sload\n      not(0xff)\n      and\n        /* \"ICO/ICOProxy.sol\":10482:10486  true */\n      0x01\n        /* \"ICO/ICOProxy.sol\":10465:10486  isICOFinalized = true */\n      or\n      swap1\n      sstore\n        /* \"ICO/ICOProxy.sol\":10496:10519  _transferFundsToOwner() */\n      tag_368\n        /* \"ICO/ICOProxy.sol\":10496:10517  _transferFundsToOwner */\n      tag_369\n        /* \"ICO/ICOProxy.sol\":10496:10519  _transferFundsToOwner() */\n      jump\t// in\n    tag_368:\n        /* \"ICO/ICOProxy.sol\":10547:10562  totalTokensSold */\n      sload(0x08)\n        /* \"ICO/ICOProxy.sol\":10534:10563  ICOFinalized(totalTokensSold) */\n      mload(0x40)\n      0x9c4b134da32aab35252391880a9f2a3c13a760d7817ae8823f2b301d3522045a\n      swap1\n      0x00\n      swap1\n      log2\n        /* \"@openzeppelin/contracts-upgradeable/utils/ReentrancyGuardUpgradeable.sol\":3437:3457  _nonReentrantAfter() */\n      tag_370\n        /* \"@openzeppelin/contracts-upgradeable/utils/ReentrancyGuardUpgradeable.sol\":1949:1950  1 */\n      0x01\n      mload(0x00)\n      codecopy(0x00, data_c8669cf8eaf883002b9f48e28846a8d408c9b58ea6613bace374265e43c9bc43, 0x20)\n      mload(0x00)\n      swap1\n      0x00\n      mstore\n        /* \"@openzeppelin/contracts-upgradeable/utils/ReentrancyGuardUpgradeable.sol\":4113:4136  $._status = NOT_ENTERED */\n      sstore\n        /* \"@openzeppelin/contracts-upgradeable/utils/ReentrancyGuardUpgradeable.sol\":3860:4143  function _nonReentrantAfter() private {... */\n      jump\n        /* \"@openzeppelin/contracts-upgradeable/utils/ReentrancyGuardUpgradeable.sol\":3437:3457  _nonReentrantAfter() */\n    tag_370:\n        /* \"ICO/ICOProxy.sol\":10159:10570  function finalizeICO()... */\n      jump\t// out\n        /* \"ICO/ICOProxy.sol\":4355:4451  function precision_mul_18(uint val) public pure returns(uint){... */\n    tag_94:\n        /* \"ICO/ICOProxy.sol\":4411:4415  uint */\n      0x00\n        /* \"ICO/ICOProxy.sol\":4434:4444  val * 1e18 */\n      tag_239\n        /* \"ICO/ICOProxy.sol\":4434:4437  val */\n      dup3\n        /* \"ICO/ICOProxy.sol\":4440:4444  1e18 */\n      0x0de0b6b3a7640000\n        /* \"ICO/ICOProxy.sol\":4434:4444  val * 1e18 */\n      tag_254\n      jump\t// in\n        /* \"ICO/ICOProxy.sol\":1327:1353  address[] public investors */\n    tag_108:\n      0x0a\n      dup2\n      dup2\n      sload\n      dup2\n      lt\n      tag_374\n      jumpi\n      0x00\n      dup1\n      revert\n    tag_374:\n      0x00\n      swap2\n      dup3\n      mstore\n      0x20\n      swap1\n      swap2\n      keccak256\n      add\n      sload\n      sub(shl(0xa0, 0x01), 0x01)\n      and\n      swap1\n      pop\n      dup2\n      jump\t// out\n        /* \"@openzeppelin/contracts-upgradeable/proxy/utils/UUPSUpgradeable.sol\":4161:4375  function upgradeToAndCall(address newImplementation, bytes memory data) public payable virtual onlyProxy {... */\n    tag_117:\n        /* \"@openzeppelin/contracts-upgradeable/proxy/utils/UUPSUpgradeable.sol\":2655:2668  _checkProxy() */\n      tag_377\n        /* \"@openzeppelin/contracts-upgradeable/proxy/utils/UUPSUpgradeable.sol\":2655:2666  _checkProxy */\n      tag_378\n        /* \"@openzeppelin/contracts-upgradeable/proxy/utils/UUPSUpgradeable.sol\":2655:2668  _checkProxy() */\n      jump\t// in\n    tag_377:\n        /* \"@openzeppelin/contracts-upgradeable/proxy/utils/UUPSUpgradeable.sol\":4276:4312  _authorizeUpgrade(newImplementation) */\n      tag_380\n        /* \"@openzeppelin/contracts-upgradeable/proxy/utils/UUPSUpgradeable.sol\":4294:4311  newImplementation */\n      dup3\n        /* \"@openzeppelin/contracts-upgradeable/proxy/utils/UUPSUpgradeable.sol\":4276:4293  _authorizeUpgrade */\n      tag_381\n        /* \"@openzeppelin/contracts-upgradeable/proxy/utils/UUPSUpgradeable.sol\":4276:4312  _authorizeUpgrade(newImplementation) */\n      jump\t// in\n    tag_380:\n        /* \"@openzeppelin/contracts-upgradeable/proxy/utils/UUPSUpgradeable.sol\":4322:4368  _upgradeToAndCallUUPS(newImplementation, data) */\n      tag_382\n        /* \"@openzeppelin/contracts-upgradeable/proxy/utils/UUPSUpgradeable.sol\":4344:4361  newImplementation */\n      dup3\n        /* \"@openzeppelin/contracts-upgradeable/proxy/utils/UUPSUpgradeable.sol\":4363:4367  data */\n      dup3\n        /* \"@openzeppelin/contracts-upgradeable/proxy/utils/UUPSUpgradeable.sol\":4322:4343  _upgradeToAndCallUUPS */\n      tag_383\n        /* \"@openzeppelin/contracts-upgradeable/proxy/utils/UUPSUpgradeable.sol\":4322:4368  _upgradeToAndCallUUPS(newImplementation, data) */\n      jump\t// in\n    tag_382:\n        /* \"@openzeppelin/contracts-upgradeable/proxy/utils/UUPSUpgradeable.sol\":4161:4375  function upgradeToAndCall(address newImplementation, bytes memory data) public payable virtual onlyProxy {... */\n      pop\n      pop\n      jump\t// out\n        /* \"@openzeppelin/contracts-upgradeable/proxy/utils/UUPSUpgradeable.sol\":3708:3842  function proxiableUUID() external view virtual notDelegated returns (bytes32) {... */\n    tag_120:\n        /* \"@openzeppelin/contracts-upgradeable/proxy/utils/UUPSUpgradeable.sol\":3777:3784  bytes32 */\n      0x00\n        /* \"@openzeppelin/contracts-upgradeable/proxy/utils/UUPSUpgradeable.sol\":2926:2946  _checkNotDelegated() */\n      tag_385\n        /* \"@openzeppelin/contracts-upgradeable/proxy/utils/UUPSUpgradeable.sol\":2926:2944  _checkNotDelegated */\n      tag_386\n        /* \"@openzeppelin/contracts-upgradeable/proxy/utils/UUPSUpgradeable.sol\":2926:2946  _checkNotDelegated() */\n      jump\t// in\n    tag_385:\n      pop\n      mload(0x00)\n      codecopy(0x00, data_75b20eef8615de99c108b05f0dbda081c91897128caa336d75dffb97c4132b4d, 0x20)\n      mload(0x00)\n      swap1\n      0x00\n      mstore\n        /* \"@openzeppelin/contracts-upgradeable/proxy/utils/UUPSUpgradeable.sol\":3708:3842  function proxiableUUID() external view virtual notDelegated returns (bytes32) {... */\n      swap1\n      jump\t// out\n        /* \"ICO/ICOProxy.sol\":3338:3467  function freeze() external onlyOwner freezed {... */\n    tag_125:\n        /* \"@openzeppelin/contracts-upgradeable/access/OwnableUpgradeable.sol\":2334:2347  _checkOwner() */\n      tag_389\n        /* \"@openzeppelin/contracts-upgradeable/access/OwnableUpgradeable.sol\":2334:2345  _checkOwner */\n      tag_352\n        /* \"@openzeppelin/contracts-upgradeable/access/OwnableUpgradeable.sol\":2334:2347  _checkOwner() */\n      jump\t// in\n    tag_389:\n        /* \"ICO/ICOProxy.sol\":3293:3302  isFreezed */\n      sload(0x09)\n      0x010000\n      swap1\n      div\n      0xff\n      and\n        /* \"ICO/ICOProxy.sol\":3292:3302  !isFreezed */\n      iszero\n        /* \"ICO/ICOProxy.sol\":3284:3314  require(!isFreezed, \"freezed\") */\n      tag_391\n      jumpi\n      mload(0x40)\n      shl(0xe5, 0x461bcd)\n      dup2\n      mstore\n      0x04\n      add\n      tag_53\n      swap1\n      tag_360\n      jump\t// in\n    tag_391:\n        /* \"ICO/ICOProxy.sol\":3444:3453  isFreezed */\n      0x09\n        /* \"ICO/ICOProxy.sol\":3444:3460  isFreezed = true */\n      dup1\n      sload\n      not(0xff0000)\n      and\n      0x010000\n      or\n      swap1\n      sstore\n        /* \"ICO/ICOProxy.sol\":3338:3467  function freeze() external onlyOwner freezed {... */\n      jump\t// out\n        /* \"ICO/ICOProxy.sol\":4659:5367  function createSale(... */\n    tag_134:\n        /* \"@openzeppelin/contracts-upgradeable/utils/ReentrancyGuardUpgradeable.sol\":3395:3416  _nonReentrantBefore() */\n      tag_395\n        /* \"@openzeppelin/contracts-upgradeable/utils/ReentrancyGuardUpgradeable.sol\":3395:3414  _nonReentrantBefore */\n      tag_349\n        /* \"@openzeppelin/contracts-upgradeable/utils/ReentrancyGuardUpgradeable.sol\":3395:3416  _nonReentrantBefore() */\n      jump\t// in\n    tag_395:\n        /* \"@openzeppelin/contracts-upgradeable/access/OwnableUpgradeable.sol\":2334:2347  _checkOwner() */\n      tag_397\n        /* \"@openzeppelin/contracts-upgradeable/access/OwnableUpgradeable.sol\":2334:2345  _checkOwner */\n      tag_352\n        /* \"@openzeppelin/contracts-upgradeable/access/OwnableUpgradeable.sol\":2334:2347  _checkOwner() */\n      jump\t// in\n    tag_397:\n        /* \"ICO/ICOProxy.sol\":3191:3205  isICOFinalized */\n      and(0xff, sload(0x09))\n        /* \"ICO/ICOProxy.sol\":3190:3205  !isICOFinalized */\n      iszero\n        /* \"ICO/ICOProxy.sol\":3182:3231  require(!isICOFinalized, \"ICO already finalized\") */\n      tag_399\n      jumpi\n      mload(0x40)\n      shl(0xe5, 0x461bcd)\n      dup2\n      mstore\n      0x04\n      add\n      tag_53\n      swap1\n      tag_356\n      jump\t// in\n    tag_399:\n        /* \"ICO/ICOProxy.sol\":3293:3302  isFreezed */\n      sload(0x09)\n      0x010000\n      swap1\n      div\n      0xff\n      and\n        /* \"ICO/ICOProxy.sol\":3292:3302  !isFreezed */\n      iszero\n        /* \"ICO/ICOProxy.sol\":3284:3314  require(!isFreezed, \"freezed\") */\n      tag_402\n      jumpi\n      mload(0x40)\n      shl(0xe5, 0x461bcd)\n      dup2\n      mstore\n      0x04\n      add\n      tag_53\n      swap1\n      tag_360\n      jump\t// in\n    tag_402:\n        /* \"ICO/ICOProxy.sol\":4870:4885  block.timestamp */\n      timestamp\n        /* \"ICO/ICOProxy.sol\":4857:4867  _startTime */\n      dup4\n        /* \"ICO/ICOProxy.sol\":4857:4885  _startTime > block.timestamp */\n      gt\n        /* \"ICO/ICOProxy.sol\":4857:4910  _startTime > block.timestamp && _endTime > _startTime */\n      dup1\n      iszero\n      tag_405\n      jumpi\n      pop\n        /* \"ICO/ICOProxy.sol\":4900:4910  _startTime */\n      dup3\n        /* \"ICO/ICOProxy.sol\":4889:4897  _endTime */\n      dup3\n        /* \"ICO/ICOProxy.sol\":4889:4910  _endTime > _startTime */\n      gt\n        /* \"ICO/ICOProxy.sol\":4857:4910  _startTime > block.timestamp && _endTime > _startTime */\n    tag_405:\n        /* \"ICO/ICOProxy.sol\":4857:4954  _startTime > block.timestamp && _endTime > _startTime && block.timestamp > getLatestSaleEndTime() */\n      dup1\n      iszero\n      tag_406\n      jumpi\n      pop\n        /* \"ICO/ICOProxy.sol\":15005:15014  saleCount */\n      sload(0x06)\n        /* \"ICO/ICOProxy.sol\":14973:14980  uint256 */\n      0x00\n        /* \"ICO/ICOProxy.sol\":14999:15015  sales[saleCount] */\n      swap1\n      dup2\n      mstore\n        /* \"ICO/ICOProxy.sol\":14999:15004  sales */\n      0x0d\n        /* \"ICO/ICOProxy.sol\":14999:15015  sales[saleCount] */\n      0x20\n      mstore\n      0x40\n      swap1\n      keccak256\n        /* \"ICO/ICOProxy.sol\":14999:15023  sales[saleCount].endTime */\n      0x01\n      add\n      sload\n        /* \"ICO/ICOProxy.sol\":4914:4929  block.timestamp */\n      timestamp\n        /* \"ICO/ICOProxy.sol\":4914:4954  block.timestamp > getLatestSaleEndTime() */\n      gt\n        /* \"ICO/ICOProxy.sol\":4857:4954  _startTime > block.timestamp && _endTime > _startTime && block.timestamp > getLatestSaleEndTime() */\n    tag_406:\n        /* \"ICO/ICOProxy.sol\":4837:5004  require(... */\n      tag_409\n      jumpi\n      mload(0x40)\n      shl(0xe5, 0x461bcd)\n      dup2\n      mstore\n        /* \"#utility.yul\":12890:12892   */\n      0x20\n        /* \"ICO/ICOProxy.sol\":4837:5004  require(... */\n      0x04\n      dup3\n      add\n        /* \"#utility.yul\":12872:12893   */\n      mstore\n        /* \"#utility.yul\":12929:12931   */\n      0x18\n        /* \"#utility.yul\":12909:12927   */\n      0x24\n      dup3\n      add\n        /* \"#utility.yul\":12902:12932   */\n      mstore\n        /* \"#utility.yul\":12968:12994   */\n      0x496e76616c69642073746172742074696d652072616e67650000000000000000\n        /* \"#utility.yul\":12948:12966   */\n      0x44\n      dup3\n      add\n        /* \"#utility.yul\":12941:12995   */\n      mstore\n        /* \"#utility.yul\":13012:13030   */\n      0x64\n      add\n        /* \"ICO/ICOProxy.sol\":4837:5004  require(... */\n      tag_53\n        /* \"#utility.yul\":12688:13036   */\n      jump\n        /* \"ICO/ICOProxy.sol\":4837:5004  require(... */\n    tag_409:\n        /* \"ICO/ICOProxy.sol\":5026:5035  saleCount */\n      sload(0x06)\n        /* \"ICO/ICOProxy.sol\":5026:5038  saleCount +1 */\n      tag_412\n      swap1\n        /* \"ICO/ICOProxy.sol\":5037:5038  1 */\n      0x01\n        /* \"ICO/ICOProxy.sol\":5026:5038  saleCount +1 */\n      tag_413\n      jump\t// in\n    tag_412:\n        /* \"ICO/ICOProxy.sol\":5014:5023  saleCount */\n      0x06\n        /* \"ICO/ICOProxy.sol\":5014:5038  saleCount = saleCount +1 */\n      dup2\n      dup2\n      sstore\n        /* \"ICO/ICOProxy.sol\":5048:5065  Sale storage sale */\n      0x00\n        /* \"ICO/ICOProxy.sol\":5068:5084  sales[saleCount] */\n      swap2\n      dup3\n      mstore\n        /* \"ICO/ICOProxy.sol\":5068:5073  sales */\n      0x0d\n        /* \"ICO/ICOProxy.sol\":5068:5084  sales[saleCount] */\n      0x20\n      swap1\n      dup2\n      mstore\n      0x40\n      dup1\n      dup5\n      keccak256\n        /* \"ICO/ICOProxy.sol\":5098:5125  sale.startTime = _startTime */\n      dup8\n      dup2\n      sstore\n        /* \"ICO/ICOProxy.sol\":5139:5151  sale.endTime */\n      0x01\n      dup2\n      add\n        /* \"ICO/ICOProxy.sol\":5139:5162  sale.endTime = _endTime */\n      dup8\n      swap1\n      sstore\n        /* \"ICO/ICOProxy.sol\":5176:5194  sale.tokenPriceUSD */\n      0x02\n      dup2\n      add\n        /* \"ICO/ICOProxy.sol\":5176:5211  sale.tokenPriceUSD = _tokenPriceUSD */\n      dup7\n      swap1\n      sstore\n        /* \"ICO/ICOProxy.sol\":5225:5240  sale.tokensSold */\n      0x03\n      dup2\n      add\n        /* \"ICO/ICOProxy.sol\":5225:5244  sale.tokensSold = 0 */\n      swap5\n      swap1\n      swap5\n      sstore\n        /* \"ICO/ICOProxy.sol\":5258:5274  sale.isFinalized */\n      0x04\n      dup5\n      add\n        /* \"ICO/ICOProxy.sol\":5258:5282  sale.isFinalized = false */\n      dup1\n      sload\n      not(0xff)\n      and\n      swap1\n      sstore\n        /* \"ICO/ICOProxy.sol\":5312:5321  saleCount */\n      swap2\n      sload\n        /* \"ICO/ICOProxy.sol\":5297:5360  NewSaleCreated(saleCount, _startTime, _endTime, _tokenPriceUSD) */\n      dup3\n      mload\n        /* \"#utility.yul\":13373:13398   */\n      dup8\n      dup2\n      mstore\n        /* \"#utility.yul\":13414:13432   */\n      swap2\n      dup3\n      add\n        /* \"#utility.yul\":13407:13441   */\n      dup7\n      swap1\n      mstore\n        /* \"#utility.yul\":13457:13475   */\n      swap2\n      dup2\n      add\n        /* \"#utility.yul\":13450:13484   */\n      dup5\n      swap1\n      mstore\n        /* \"ICO/ICOProxy.sol\":5297:5360  NewSaleCreated(saleCount, _startTime, _endTime, _tokenPriceUSD) */\n      0x63b43fa153147ade1de28ed76841cdbc34e510ed94dd1ff5a88e278b0b1ad9ba\n      swap1\n        /* \"#utility.yul\":13361:13363   */\n      0x60\n        /* \"#utility.yul\":13346:13364   */\n      add\n        /* \"ICO/ICOProxy.sol\":5297:5360  NewSaleCreated(saleCount, _startTime, _endTime, _tokenPriceUSD) */\n      mload(0x40)\n      dup1\n      swap2\n      sub\n      swap1\n      log2\n        /* \"ICO/ICOProxy.sol\":4827:5367  {... */\n      pop\n        /* \"@openzeppelin/contracts-upgradeable/utils/ReentrancyGuardUpgradeable.sol\":3437:3457  _nonReentrantAfter() */\n      tag_416\n        /* \"@openzeppelin/contracts-upgradeable/utils/ReentrancyGuardUpgradeable.sol\":1949:1950  1 */\n      0x01\n      mload(0x00)\n      codecopy(0x00, data_c8669cf8eaf883002b9f48e28846a8d408c9b58ea6613bace374265e43c9bc43, 0x20)\n      mload(0x00)\n      swap1\n      0x00\n      mstore\n        /* \"@openzeppelin/contracts-upgradeable/utils/ReentrancyGuardUpgradeable.sol\":4113:4136  $._status = NOT_ENTERED */\n      sstore\n        /* \"@openzeppelin/contracts-upgradeable/utils/ReentrancyGuardUpgradeable.sol\":3860:4143  function _nonReentrantAfter() private {... */\n      jump\n        /* \"@openzeppelin/contracts-upgradeable/utils/ReentrancyGuardUpgradeable.sol\":3437:3457  _nonReentrantAfter() */\n    tag_416:\n        /* \"ICO/ICOProxy.sol\":4659:5367  function createSale(... */\n      pop\n      pop\n      pop\n      jump\t// out\n        /* \"@openzeppelin/contracts-upgradeable/access/OwnableUpgradeable.sol\":3155:3256  function renounceOwnership() public virtual onlyOwner {... */\n    tag_137:\n        /* \"@openzeppelin/contracts-upgradeable/access/OwnableUpgradeable.sol\":2334:2347  _checkOwner() */\n      tag_418\n        /* \"@openzeppelin/contracts-upgradeable/access/OwnableUpgradeable.sol\":2334:2345  _checkOwner */\n      tag_352\n        /* \"@openzeppelin/contracts-upgradeable/access/OwnableUpgradeable.sol\":2334:2347  _checkOwner() */\n      jump\t// in\n    tag_418:\n        /* \"@openzeppelin/contracts-upgradeable/access/OwnableUpgradeable.sol\":3219:3249  _transferOwnership(address(0)) */\n      tag_370\n        /* \"@openzeppelin/contracts-upgradeable/access/OwnableUpgradeable.sol\":3246:3247  0 */\n      0x00\n        /* \"@openzeppelin/contracts-upgradeable/access/OwnableUpgradeable.sol\":3219:3237  _transferOwnership */\n      tag_421\n        /* \"@openzeppelin/contracts-upgradeable/access/OwnableUpgradeable.sol\":3219:3249  _transferOwnership(address(0)) */\n      jump\t// in\n        /* \"ICO/ICOProxy.sol\":3473:3595  function unFreeze() external onlyOwner {... */\n    tag_144:\n        /* \"@openzeppelin/contracts-upgradeable/access/OwnableUpgradeable.sol\":2334:2347  _checkOwner() */\n      tag_423\n        /* \"@openzeppelin/contracts-upgradeable/access/OwnableUpgradeable.sol\":2334:2345  _checkOwner */\n      tag_352\n        /* \"@openzeppelin/contracts-upgradeable/access/OwnableUpgradeable.sol\":2334:2347  _checkOwner() */\n      jump\t// in\n    tag_423:\n        /* \"ICO/ICOProxy.sol\":3530:3539  isFreezed */\n      sload(0x09)\n      0x010000\n      swap1\n      div\n      0xff\n      and\n        /* \"ICO/ICOProxy.sol\":3522:3561  require(isFreezed ,\"Already UnFreezed\") */\n      tag_425\n      jumpi\n      mload(0x40)\n      shl(0xe5, 0x461bcd)\n      dup2\n      mstore\n        /* \"#utility.yul\":13697:13699   */\n      0x20\n        /* \"ICO/ICOProxy.sol\":3522:3561  require(isFreezed ,\"Already UnFreezed\") */\n      0x04\n      dup3\n      add\n        /* \"#utility.yul\":13679:13700   */\n      mstore\n        /* \"#utility.yul\":13736:13738   */\n      0x11\n        /* \"#utility.yul\":13716:13734   */\n      0x24\n      dup3\n      add\n        /* \"#utility.yul\":13709:13739   */\n      mstore\n      shl(0x7a, 0x105b1c9958591e48155b919c99595e9959)\n        /* \"#utility.yul\":13755:13773   */\n      0x44\n      dup3\n      add\n        /* \"#utility.yul\":13748:13795   */\n      mstore\n        /* \"#utility.yul\":13812:13830   */\n      0x64\n      add\n        /* \"ICO/ICOProxy.sol\":3522:3561  require(isFreezed ,\"Already UnFreezed\") */\n      tag_53\n        /* \"#utility.yul\":13495:13836   */\n      jump\n        /* \"ICO/ICOProxy.sol\":3522:3561  require(isFreezed ,\"Already UnFreezed\") */\n    tag_425:\n        /* \"ICO/ICOProxy.sol\":3571:3580  isFreezed */\n      0x09\n        /* \"ICO/ICOProxy.sol\":3571:3588  isFreezed = false */\n      dup1\n      sload\n      not(0xff0000)\n      and\n      swap1\n      sstore\n        /* \"ICO/ICOProxy.sol\":3473:3595  function unFreeze() external onlyOwner {... */\n      jump\t// out\n        /* \"ICO/ICOProxy.sol\":12677:14723  function initiateRefund() external nonReentrant onlyOwner icoNotFinalized {... */\n    tag_147:\n        /* \"@openzeppelin/contracts-upgradeable/utils/ReentrancyGuardUpgradeable.sol\":3395:3416  _nonReentrantBefore() */\n      tag_429\n        /* \"@openzeppelin/contracts-upgradeable/utils/ReentrancyGuardUpgradeable.sol\":3395:3414  _nonReentrantBefore */\n      tag_349\n        /* \"@openzeppelin/contracts-upgradeable/utils/ReentrancyGuardUpgradeable.sol\":3395:3416  _nonReentrantBefore() */\n      jump\t// in\n    tag_429:\n        /* \"@openzeppelin/contracts-upgradeable/access/OwnableUpgradeable.sol\":2334:2347  _checkOwner() */\n      tag_431\n        /* \"@openzeppelin/contracts-upgradeable/access/OwnableUpgradeable.sol\":2334:2345  _checkOwner */\n      tag_352\n        /* \"@openzeppelin/contracts-upgradeable/access/OwnableUpgradeable.sol\":2334:2347  _checkOwner() */\n      jump\t// in\n    tag_431:\n        /* \"ICO/ICOProxy.sol\":3191:3205  isICOFinalized */\n      and(0xff, sload(0x09))\n        /* \"ICO/ICOProxy.sol\":3190:3205  !isICOFinalized */\n      iszero\n        /* \"ICO/ICOProxy.sol\":3182:3231  require(!isICOFinalized, \"ICO already finalized\") */\n      tag_433\n      jumpi\n      mload(0x40)\n      shl(0xe5, 0x461bcd)\n      dup2\n      mstore\n      0x04\n      add\n      tag_53\n      swap1\n      tag_356\n      jump\t// in\n    tag_433:\n        /* \"ICO/ICOProxy.sol\":15005:15014  saleCount */\n      sload(0x06)\n        /* \"ICO/ICOProxy.sol\":14973:14980  uint256 */\n      0x00\n        /* \"ICO/ICOProxy.sol\":14999:15015  sales[saleCount] */\n      swap1\n      dup2\n      mstore\n        /* \"ICO/ICOProxy.sol\":14999:15004  sales */\n      0x0d\n        /* \"ICO/ICOProxy.sol\":14999:15015  sales[saleCount] */\n      0x20\n      mstore\n      0x40\n      swap1\n      keccak256\n        /* \"ICO/ICOProxy.sol\":14999:15023  sales[saleCount].endTime */\n      0x01\n      add\n      sload\n        /* \"ICO/ICOProxy.sol\":12769:12784  block.timestamp */\n      timestamp\n        /* \"ICO/ICOProxy.sol\":12769:12809  block.timestamp > getLatestSaleEndTime() */\n      gt\n        /* \"ICO/ICOProxy.sol\":12761:12826  require(block.timestamp > getLatestSaleEndTime(), \"Sale ongoing\") */\n      tag_437\n      jumpi\n      mload(0x40)\n      shl(0xe5, 0x461bcd)\n      dup2\n      mstore\n        /* \"#utility.yul\":14043:14045   */\n      0x20\n        /* \"ICO/ICOProxy.sol\":12761:12826  require(block.timestamp > getLatestSaleEndTime(), \"Sale ongoing\") */\n      0x04\n      dup3\n      add\n        /* \"#utility.yul\":14025:14046   */\n      mstore\n        /* \"#utility.yul\":14082:14084   */\n      0x0c\n        /* \"#utility.yul\":14062:14080   */\n      0x24\n      dup3\n      add\n        /* \"#utility.yul\":14055:14085   */\n      mstore\n      shl(0xa0, 0x53616c65206f6e676f696e67)\n        /* \"#utility.yul\":14101:14119   */\n      0x44\n      dup3\n      add\n        /* \"#utility.yul\":14094:14136   */\n      mstore\n        /* \"#utility.yul\":14153:14171   */\n      0x64\n      add\n        /* \"ICO/ICOProxy.sol\":12761:12826  require(block.timestamp > getLatestSaleEndTime(), \"Sale ongoing\") */\n      tag_53\n        /* \"#utility.yul\":13841:14177   */\n      jump\n        /* \"ICO/ICOProxy.sol\":12761:12826  require(block.timestamp > getLatestSaleEndTime(), \"Sale ongoing\") */\n    tag_437:\n        /* \"ICO/ICOProxy.sol\":12866:12878  softCapInUSD */\n      sload(0x04)\n        /* \"ICO/ICOProxy.sol\":12844:12863  totalFundsRaisedUSD */\n      sload(0x07)\n        /* \"ICO/ICOProxy.sol\":12844:12878  totalFundsRaisedUSD < softCapInUSD */\n      lt\n        /* \"ICO/ICOProxy.sol\":12836:12899  require(totalFundsRaisedUSD < softCapInUSD, \"Soft cap reached\") */\n      tag_440\n      jumpi\n      mload(0x40)\n      shl(0xe5, 0x461bcd)\n      dup2\n      mstore\n        /* \"#utility.yul\":14384:14386   */\n      0x20\n        /* \"ICO/ICOProxy.sol\":12836:12899  require(totalFundsRaisedUSD < softCapInUSD, \"Soft cap reached\") */\n      0x04\n      dup3\n      add\n        /* \"#utility.yul\":14366:14387   */\n      mstore\n        /* \"#utility.yul\":14423:14425   */\n      0x10\n        /* \"#utility.yul\":14403:14421   */\n      0x24\n      dup3\n      add\n        /* \"#utility.yul\":14396:14426   */\n      mstore\n      shl(0x82, 0x14dbd99d0818d85c081c995858da1959)\n        /* \"#utility.yul\":14442:14460   */\n      0x44\n      dup3\n      add\n        /* \"#utility.yul\":14435:14481   */\n      mstore\n        /* \"#utility.yul\":14498:14516   */\n      0x64\n      add\n        /* \"ICO/ICOProxy.sol\":12836:12899  require(totalFundsRaisedUSD < softCapInUSD, \"Soft cap reached\") */\n      tag_53\n        /* \"#utility.yul\":14182:14522   */\n      jump\n        /* \"ICO/ICOProxy.sol\":12836:12899  require(totalFundsRaisedUSD < softCapInUSD, \"Soft cap reached\") */\n    tag_440:\n        /* \"ICO/ICOProxy.sol\":12935:12944  investors */\n      0x0a\n        /* \"ICO/ICOProxy.sol\":12935:12951  investors.length */\n      dup1\n      sload\n      swap1\n        /* \"ICO/ICOProxy.sol\":12910:12932  uint256 investorLength */\n      0x00\n      swap1\n        /* \"ICO/ICOProxy.sol\":13001:13020  investorLength > 10 */\n      dup3\n      gt\n        /* \"ICO/ICOProxy.sol\":12997:13138  if (investorLength > 10) {... */\n      iszero\n      tag_443\n      jumpi\n        /* \"ICO/ICOProxy.sol\":13056:13075  investorLength - 11 */\n      tag_444\n        /* \"ICO/ICOProxy.sol\":13073:13075  11 */\n      0x0b\n        /* \"ICO/ICOProxy.sol\":13056:13070  investorLength */\n      dup4\n        /* \"ICO/ICOProxy.sol\":13056:13075  investorLength - 11 */\n      tag_267\n      jump\t// in\n    tag_444:\n        /* \"ICO/ICOProxy.sol\":13036:13075  investorsIterated = investorLength - 11 */\n      swap1\n      pop\n        /* \"ICO/ICOProxy.sol\":12997:13138  if (investorLength > 10) {... */\n      jump(tag_445)\n    tag_443:\n      pop\n        /* \"ICO/ICOProxy.sol\":13126:13127  0 */\n      0x00\n        /* \"ICO/ICOProxy.sol\":12997:13138  if (investorLength > 10) {... */\n    tag_445:\n        /* \"ICO/ICOProxy.sol\":13153:13162  uint256 i */\n      0x00\n        /* \"ICO/ICOProxy.sol\":13165:13183  investorLength - 1 */\n      tag_449\n        /* \"ICO/ICOProxy.sol\":13182:13183  1 */\n      0x01\n        /* \"ICO/ICOProxy.sol\":13165:13179  investorLength */\n      dup5\n        /* \"ICO/ICOProxy.sol\":13165:13183  investorLength - 1 */\n      tag_267\n      jump\t// in\n    tag_449:\n        /* \"ICO/ICOProxy.sol\":13153:13183  uint256 i = investorLength - 1 */\n      swap1\n      pop\n        /* \"ICO/ICOProxy.sol\":13148:14635  for (uint256 i = investorLength - 1; i >= investorsIterated; i--) {... */\n    tag_446:\n        /* \"ICO/ICOProxy.sol\":13190:13207  investorsIterated */\n      dup2\n        /* \"ICO/ICOProxy.sol\":13185:13186  i */\n      dup2\n        /* \"ICO/ICOProxy.sol\":13185:13207  i >= investorsIterated */\n      lt\n        /* \"ICO/ICOProxy.sol\":13148:14635  for (uint256 i = investorLength - 1; i >= investorsIterated; i--) {... */\n      tag_447\n      jumpi\n        /* \"ICO/ICOProxy.sol\":13228:13244  address investor */\n      0x00\n        /* \"ICO/ICOProxy.sol\":13247:13256  investors */\n      0x0a\n        /* \"ICO/ICOProxy.sol\":13257:13258  i */\n      dup3\n        /* \"ICO/ICOProxy.sol\":13247:13259  investors[i] */\n      dup2\n      sload\n      dup2\n      lt\n      tag_451\n      jumpi\n      tag_451\n      tag_452\n      jump\t// in\n    tag_451:\n      0x00\n      swap2\n      dup3\n      mstore\n      0x20\n      dup3\n      keccak256\n      add\n      sload\n      sub(shl(0xa0, 0x01), 0x01)\n      and\n      swap2\n      pop\n        /* \"ICO/ICOProxy.sol\":13273:14525  for (uint8 j = 0; j < 3; j++) {... */\n    tag_454:\n        /* \"ICO/ICOProxy.sol\":13295:13296  3 */\n      0x03\n        /* \"ICO/ICOProxy.sol\":13291:13292  j */\n      dup2\n        /* \"ICO/ICOProxy.sol\":13291:13296  j < 3 */\n      0xff\n      and\n      lt\n        /* \"ICO/ICOProxy.sol\":13273:14525  for (uint8 j = 0; j < 3; j++) {... */\n      iszero\n      tag_455\n      jumpi\n        /* \"ICO/ICOProxy.sol\":13321:13348  PaymentMethod paymentMethod */\n      0x00\n        /* \"ICO/ICOProxy.sol\":13365:13366  j */\n      dup2\n        /* \"ICO/ICOProxy.sol\":13351:13367  PaymentMethod(j) */\n      0xff\n      and\n      0x02\n      dup2\n      gt\n      iszero\n      tag_458\n      jumpi\n      tag_458\n      tag_248\n      jump\t// in\n    tag_458:\n      sub(shl(0xa0, 0x01), 0x01)\n        /* \"ICO/ICOProxy.sol\":13402:13428  investorPayments[investor] */\n      dup5\n      and\n        /* \"ICO/ICOProxy.sol\":13385:13399  uint256 amount */\n      0x00\n        /* \"ICO/ICOProxy.sol\":13402:13428  investorPayments[investor] */\n      swap1\n      dup2\n      mstore\n        /* \"ICO/ICOProxy.sol\":13402:13418  investorPayments */\n      0x11\n        /* \"ICO/ICOProxy.sol\":13402:13428  investorPayments[investor] */\n      0x20\n      mstore\n      0x40\n      dup2\n      keccak256\n        /* \"ICO/ICOProxy.sol\":13321:13367  PaymentMethod paymentMethod = PaymentMethod(j) */\n      swap2\n      swap3\n      pop\n        /* \"ICO/ICOProxy.sol\":13385:13399  uint256 amount */\n      swap1\n      dup2\n        /* \"ICO/ICOProxy.sol\":13321:13367  PaymentMethod paymentMethod = PaymentMethod(j) */\n      dup4\n        /* \"ICO/ICOProxy.sol\":13402:13443  investorPayments[investor][paymentMethod] */\n      0x02\n      dup2\n      gt\n      iszero\n      tag_460\n      jumpi\n      tag_460\n      tag_248\n      jump\t// in\n    tag_460:\n      0x02\n      dup2\n      gt\n      iszero\n      tag_462\n      jumpi\n      tag_462\n      tag_248\n      jump\t// in\n    tag_462:\n      dup2\n      mstore\n      0x20\n      add\n      swap1\n      dup2\n      mstore\n      0x20\n      add\n      0x00\n      keccak256\n      sload\n        /* \"ICO/ICOProxy.sol\":13385:13443  uint256 amount = investorPayments[investor][paymentMethod] */\n      swap1\n      pop\n        /* \"ICO/ICOProxy.sol\":13475:13476  0 */\n      0x00\n        /* \"ICO/ICOProxy.sol\":13466:13472  amount */\n      dup2\n        /* \"ICO/ICOProxy.sol\":13466:13476  amount > 0 */\n      gt\n        /* \"ICO/ICOProxy.sol\":13462:14494  if (amount > 0) {... */\n      iszero\n      tag_463\n      jumpi\n      sub(shl(0xa0, 0x01), 0x01)\n        /* \"ICO/ICOProxy.sol\":13500:13526  investorPayments[investor] */\n      dup5\n      and\n        /* \"ICO/ICOProxy.sol\":13544:13545  0 */\n      0x00\n        /* \"ICO/ICOProxy.sol\":13500:13526  investorPayments[investor] */\n      swap1\n      dup2\n      mstore\n        /* \"ICO/ICOProxy.sol\":13500:13516  investorPayments */\n      0x11\n        /* \"ICO/ICOProxy.sol\":13500:13526  investorPayments[investor] */\n      0x20\n      mstore\n      0x40\n      dup2\n      keccak256\n        /* \"ICO/ICOProxy.sol\":13544:13545  0 */\n      dup2\n        /* \"ICO/ICOProxy.sol\":13527:13540  paymentMethod */\n      dup5\n        /* \"ICO/ICOProxy.sol\":13500:13541  investorPayments[investor][paymentMethod] */\n      0x02\n      dup2\n      gt\n      iszero\n      tag_465\n      jumpi\n      tag_465\n      tag_248\n      jump\t// in\n    tag_465:\n      0x02\n      dup2\n      gt\n      iszero\n      tag_467\n      jumpi\n      tag_467\n      tag_248\n      jump\t// in\n    tag_467:\n      dup2\n      mstore\n      0x20\n      dup2\n      add\n      swap2\n      swap1\n      swap2\n      mstore\n      0x40\n      add\n      0x00\n      swap1\n      dup2\n      keccak256\n        /* \"ICO/ICOProxy.sol\":13500:13545  investorPayments[investor][paymentMethod] = 0 */\n      swap2\n      swap1\n      swap2\n      sstore\n        /* \"ICO/ICOProxy.sol\":13571:13584  paymentMethod */\n      dup3\n        /* \"ICO/ICOProxy.sol\":13571:13605  paymentMethod == PaymentMethod.BNB */\n      0x02\n      dup2\n      gt\n      iszero\n      tag_471\n      jumpi\n      tag_471\n      tag_248\n      jump\t// in\n    tag_471:\n      sub\n        /* \"ICO/ICOProxy.sol\":13567:14380  if (paymentMethod == PaymentMethod.BNB) {... */\n      tag_472\n      jumpi\n        /* \"ICO/ICOProxy.sol\":13634:13643  bool sent */\n      0x00\n        /* \"ICO/ICOProxy.sol\":13657:13665  investor */\n      dup5\n      sub(shl(0xa0, 0x01), 0x01)\n        /* \"ICO/ICOProxy.sol\":13649:13671  payable(investor).call */\n      and\n        /* \"ICO/ICOProxy.sol\":13679:13685  amount */\n      dup3\n        /* \"ICO/ICOProxy.sol\":13649:13744  payable(investor).call{value: amount}(... */\n      mload(0x40)\n      0x00\n      mload(0x40)\n      dup1\n      dup4\n      sub\n      dup2\n      dup6\n      dup8\n      gas\n      call\n      swap3\n      pop\n      pop\n      pop\n      returndatasize\n      dup1\n      0x00\n      dup2\n      eq\n      tag_477\n      jumpi\n      mload(0x40)\n      swap2\n      pop\n      and(add(returndatasize, 0x3f), not(0x1f))\n      dup3\n      add\n      0x40\n      mstore\n      returndatasize\n      dup3\n      mstore\n      returndatasize\n      0x00\n      0x20\n      dup5\n      add\n      returndatacopy\n      jump(tag_476)\n    tag_477:\n      0x60\n      swap2\n      pop\n    tag_476:\n      pop\n        /* \"ICO/ICOProxy.sol\":13633:13744  (bool sent, ) = payable(investor).call{value: amount}(... */\n      pop\n      swap1\n      pop\n        /* \"ICO/ICOProxy.sol\":13778:13782  sent */\n      dup1\n        /* \"ICO/ICOProxy.sol\":13770:13804  require(sent, \"BNB refund failed\") */\n      tag_478\n      jumpi\n      mload(0x40)\n      shl(0xe5, 0x461bcd)\n      dup2\n      mstore\n        /* \"#utility.yul\":15071:15073   */\n      0x20\n        /* \"ICO/ICOProxy.sol\":13770:13804  require(sent, \"BNB refund failed\") */\n      0x04\n      dup3\n      add\n        /* \"#utility.yul\":15053:15074   */\n      mstore\n        /* \"#utility.yul\":15110:15112   */\n      0x11\n        /* \"#utility.yul\":15090:15108   */\n      0x24\n      dup3\n      add\n        /* \"#utility.yul\":15083:15113   */\n      mstore\n      shl(0x7a, 0x109390881c99599d5b990819985a5b1959)\n        /* \"#utility.yul\":15129:15147   */\n      0x44\n      dup3\n      add\n        /* \"#utility.yul\":15122:15169   */\n      mstore\n        /* \"#utility.yul\":15186:15204   */\n      0x64\n      add\n        /* \"ICO/ICOProxy.sol\":13770:13804  require(sent, \"BNB refund failed\") */\n      tag_53\n        /* \"#utility.yul\":14869:15210   */\n      jump\n        /* \"ICO/ICOProxy.sol\":13770:13804  require(sent, \"BNB refund failed\") */\n    tag_478:\n        /* \"ICO/ICOProxy.sol\":13607:13827  {... */\n      pop\n        /* \"ICO/ICOProxy.sol\":13567:14380  if (paymentMethod == PaymentMethod.BNB) {... */\n      jump(tag_491)\n    tag_472:\n        /* \"ICO/ICOProxy.sol\":13879:13897  PaymentMethod.USDT */\n      0x01\n        /* \"ICO/ICOProxy.sol\":13862:13875  paymentMethod */\n      dup3\n        /* \"ICO/ICOProxy.sol\":13862:13897  paymentMethod == PaymentMethod.USDT */\n      0x02\n      dup2\n      gt\n      iszero\n      tag_485\n      jumpi\n      tag_485\n      tag_248\n      jump\t// in\n    tag_485:\n      eq\n        /* \"ICO/ICOProxy.sol\":13862:13960  paymentMethod == PaymentMethod.USDT ||... */\n      dup1\n      tag_486\n      jumpi\n      pop\n        /* \"ICO/ICOProxy.sol\":13942:13960  PaymentMethod.USDC */\n      0x02\n        /* \"ICO/ICOProxy.sol\":13925:13938  paymentMethod */\n      dup3\n        /* \"ICO/ICOProxy.sol\":13925:13960  paymentMethod == PaymentMethod.USDC */\n      0x02\n      dup2\n      gt\n      iszero\n      tag_490\n      jumpi\n      tag_490\n      tag_248\n      jump\t// in\n    tag_490:\n      eq\n        /* \"ICO/ICOProxy.sol\":13862:13960  paymentMethod == PaymentMethod.USDT ||... */\n    tag_486:\n        /* \"ICO/ICOProxy.sol\":13833:14380  if (... */\n      iszero\n      tag_491\n      jumpi\n        /* \"ICO/ICOProxy.sol\":14009:14026  IERC20 stablecoin */\n      0x00\n        /* \"ICO/ICOProxy.sol\":14046:14064  PaymentMethod.USDT */\n      0x01\n        /* \"ICO/ICOProxy.sol\":14029:14042  paymentMethod */\n      dup4\n        /* \"ICO/ICOProxy.sol\":14029:14064  paymentMethod == PaymentMethod.USDT */\n      0x02\n      dup2\n      gt\n      iszero\n      tag_495\n      jumpi\n      tag_495\n      tag_248\n      jump\t// in\n    tag_495:\n      eq\n        /* \"ICO/ICOProxy.sol\":14029:14150  paymentMethod == PaymentMethod.USDT... */\n      tag_496\n      jumpi\n        /* \"ICO/ICOProxy.sol\":14145:14149  usdc */\n      and(sub(shl(0xa0, 0x01), 0x01), sload(0x0c))\n        /* \"ICO/ICOProxy.sol\":14029:14150  paymentMethod == PaymentMethod.USDT... */\n      jump(tag_497)\n    tag_496:\n        /* \"ICO/ICOProxy.sol\":14102:14106  usdt */\n      and(sub(shl(0xa0, 0x01), 0x01), sload(0x0b))\n        /* \"ICO/ICOProxy.sol\":14029:14150  paymentMethod == PaymentMethod.USDT... */\n    tag_497:\n        /* \"ICO/ICOProxy.sol\":14213:14250  stablecoin.transfer(investor, amount) */\n      mload(0x40)\n      shl(0xe0, 0xa9059cbb)\n      dup2\n      mstore\n      sub(shl(0xa0, 0x01), 0x01)\n        /* \"#utility.yul\":15407:15439   */\n      dup8\n      dup2\n      and\n        /* \"ICO/ICOProxy.sol\":14213:14250  stablecoin.transfer(investor, amount) */\n      0x04\n      dup4\n      add\n        /* \"#utility.yul\":15389:15440   */\n      mstore\n        /* \"#utility.yul\":15456:15474   */\n      0x24\n      dup3\n      add\n        /* \"#utility.yul\":15449:15483   */\n      dup6\n      swap1\n      mstore\n        /* \"ICO/ICOProxy.sol\":14009:14150  IERC20 stablecoin = paymentMethod == PaymentMethod.USDT... */\n      swap2\n      swap3\n      pop\n        /* \"ICO/ICOProxy.sol\":14213:14232  stablecoin.transfer */\n      swap1\n      dup3\n      and\n      swap1\n      0xa9059cbb\n      swap1\n        /* \"#utility.yul\":15362:15380   */\n      0x44\n      add\n        /* \"ICO/ICOProxy.sol\":14213:14250  stablecoin.transfer(investor, amount) */\n      0x20\n      mload(0x40)\n      dup1\n      dup4\n      sub\n      dup2\n      0x00\n      dup8\n      gas\n      call\n      iszero\n      dup1\n      iszero\n      tag_501\n      jumpi\n      returndatacopy(0x00, 0x00, returndatasize)\n      revert(0x00, returndatasize)\n    tag_501:\n      pop\n      pop\n      pop\n      pop\n      mload(0x40)\n      returndatasize\n      not(0x1f)\n      0x1f\n      dup3\n      add\n      and\n      dup3\n      add\n      dup1\n      0x40\n      mstore\n      pop\n      dup2\n      add\n      swap1\n      tag_502\n      swap2\n      swap1\n      tag_503\n      jump\t// in\n    tag_502:\n        /* \"ICO/ICOProxy.sol\":14176:14332  require(... */\n      tag_504\n      jumpi\n      mload(0x40)\n      shl(0xe5, 0x461bcd)\n      dup2\n      mstore\n        /* \"#utility.yul\":15978:15980   */\n      0x20\n        /* \"ICO/ICOProxy.sol\":14176:14332  require(... */\n      0x04\n      dup3\n      add\n        /* \"#utility.yul\":15960:15981   */\n      mstore\n        /* \"#utility.yul\":16017:16019   */\n      0x18\n        /* \"#utility.yul\":15997:16015   */\n      0x24\n      dup3\n      add\n        /* \"#utility.yul\":15990:16020   */\n      mstore\n        /* \"#utility.yul\":16056:16082   */\n      0x537461626c65636f696e20726566756e64206661696c65640000000000000000\n        /* \"#utility.yul\":16036:16054   */\n      0x44\n      dup3\n      add\n        /* \"#utility.yul\":16029:16083   */\n      mstore\n        /* \"#utility.yul\":16100:16118   */\n      0x64\n      add\n        /* \"ICO/ICOProxy.sol\":14176:14332  require(... */\n      tag_53\n        /* \"#utility.yul\":15776:16124   */\n      jump\n        /* \"ICO/ICOProxy.sol\":14176:14332  require(... */\n    tag_504:\n        /* \"ICO/ICOProxy.sol\":13983:14380  {... */\n      pop\n        /* \"ICO/ICOProxy.sol\":13833:14380  if (... */\n    tag_491:\n        /* \"ICO/ICOProxy.sol\":14443:14451  investor */\n      dup4\n      sub(shl(0xa0, 0x01), 0x01)\n        /* \"ICO/ICOProxy.sol\":14427:14475  RefundInitiated(investor, amount, paymentMethod) */\n      and\n      0x03829ab241648d7348f97e4f77d36451330f2276ea8eeb3428e462012f9699e7\n        /* \"ICO/ICOProxy.sol\":14453:14459  amount */\n      dup3\n        /* \"ICO/ICOProxy.sol\":14461:14474  paymentMethod */\n      dup5\n        /* \"ICO/ICOProxy.sol\":14427:14475  RefundInitiated(investor, amount, paymentMethod) */\n      mload(0x40)\n      tag_507\n      swap3\n      swap2\n      swap1\n      tag_508\n      jump\t// in\n    tag_507:\n      mload(0x40)\n      dup1\n      swap2\n      sub\n      swap1\n      log2\n        /* \"ICO/ICOProxy.sol\":13462:14494  if (amount > 0) {... */\n    tag_463:\n      pop\n      pop\n        /* \"ICO/ICOProxy.sol\":13298:13301  j++ */\n      0x01\n      add\n        /* \"ICO/ICOProxy.sol\":13273:14525  for (uint8 j = 0; j < 3; j++) {... */\n      jump(tag_454)\n    tag_455:\n      pop\n        /* \"ICO/ICOProxy.sol\":14538:14547  investors */\n      0x0a\n        /* \"ICO/ICOProxy.sol\":14538:14553  investors.pop() */\n      dup1\n      sload\n      dup1\n      tag_510\n      jumpi\n      tag_510\n      tag_511\n      jump\t// in\n    tag_510:\n      0x00\n      dup3\n      dup2\n      mstore\n      0x20\n      dup2\n      keccak256\n      dup3\n      add\n      not(0x00)\n      swap1\n      dup2\n      add\n      dup1\n      sload\n      not(sub(shl(0xa0, 0x01), 0x01))\n      and\n      swap1\n      sstore\n      swap1\n      swap2\n      add\n      swap1\n      swap2\n      sstore\n        /* \"ICO/ICOProxy.sol\":14571:14577  i == 0 */\n      dup3\n      swap1\n      sub\n        /* \"ICO/ICOProxy.sol\":14567:14625  if (i == 0) {... */\n      tag_513\n      jumpi\n        /* \"ICO/ICOProxy.sol\":14601:14606  break */\n      pop\n      jump(tag_447)\n        /* \"ICO/ICOProxy.sol\":14567:14625  if (i == 0) {... */\n    tag_513:\n      pop\n        /* \"ICO/ICOProxy.sol\":13209:13212  i-- */\n      dup1\n      tag_514\n      dup2\n      tag_515\n      jump\t// in\n    tag_514:\n      swap2\n      pop\n      pop\n        /* \"ICO/ICOProxy.sol\":13148:14635  for (uint256 i = investorLength - 1; i >= investorsIterated; i--) {... */\n      jump(tag_446)\n    tag_447:\n      pop\n        /* \"ICO/ICOProxy.sol\":14648:14657  investors */\n      0x0a\n        /* \"ICO/ICOProxy.sol\":14648:14664  investors.length */\n      sload\n        /* \"ICO/ICOProxy.sol\":14668:14669  0 */\n      0x00\n        /* \"ICO/ICOProxy.sol\":14648:14669  investors.length == 0 */\n      sub\n        /* \"ICO/ICOProxy.sol\":14644:14717  if (investors.length == 0) {... */\n      tag_516\n      jumpi\n        /* \"ICO/ICOProxy.sol\":14685:14699  isICOFinalized */\n      0x09\n        /* \"ICO/ICOProxy.sol\":14685:14706  isICOFinalized = true */\n      dup1\n      sload\n      not(0xff)\n      and\n        /* \"ICO/ICOProxy.sol\":14702:14706  true */\n      0x01\n        /* \"ICO/ICOProxy.sol\":14685:14706  isICOFinalized = true */\n      or\n      swap1\n      sstore\n        /* \"ICO/ICOProxy.sol\":14644:14717  if (investors.length == 0) {... */\n    tag_516:\n        /* \"ICO/ICOProxy.sol\":12751:14723  {... */\n      pop\n      pop\n        /* \"@openzeppelin/contracts-upgradeable/utils/ReentrancyGuardUpgradeable.sol\":3437:3457  _nonReentrantAfter() */\n      tag_370\n        /* \"@openzeppelin/contracts-upgradeable/utils/ReentrancyGuardUpgradeable.sol\":1949:1950  1 */\n      0x01\n      mload(0x00)\n      codecopy(0x00, data_c8669cf8eaf883002b9f48e28846a8d408c9b58ea6613bace374265e43c9bc43, 0x20)\n      mload(0x00)\n      swap1\n      0x00\n      mstore\n        /* \"@openzeppelin/contracts-upgradeable/utils/ReentrancyGuardUpgradeable.sol\":4113:4136  $._status = NOT_ENTERED */\n      sstore\n        /* \"@openzeppelin/contracts-upgradeable/utils/ReentrancyGuardUpgradeable.sol\":3860:4143  function _nonReentrantAfter() private {... */\n      jump\n        /* \"@openzeppelin/contracts-upgradeable/access/OwnableUpgradeable.sol\":2441:2585  function owner() public view virtual returns (address) {... */\n    tag_150:\n        /* \"@openzeppelin/contracts-upgradeable/access/OwnableUpgradeable.sol\":1313:1335  OwnableStorageLocation */\n      0x9016d09d72d40fdae2fd8ceac6b6234c7706214fd39c1cd1e609a0528c199300\n        /* \"@openzeppelin/contracts-upgradeable/access/OwnableUpgradeable.sol\":2570:2578  $._owner */\n      sload\n      sub(shl(0xa0, 0x01), 0x01)\n      and\n      swap1\n        /* \"@openzeppelin/contracts-upgradeable/access/OwnableUpgradeable.sol\":2441:2585  function owner() public view virtual returns (address) {... */\n      jump\t// out\n        /* \"ICO/ICOProxy.sol\":11362:12671  function airdropTokens()... */\n    tag_154:\n        /* \"@openzeppelin/contracts-upgradeable/utils/ReentrancyGuardUpgradeable.sol\":3395:3416  _nonReentrantBefore() */\n      tag_522\n        /* \"@openzeppelin/contracts-upgradeable/utils/ReentrancyGuardUpgradeable.sol\":3395:3414  _nonReentrantBefore */\n      tag_349\n        /* \"@openzeppelin/contracts-upgradeable/utils/ReentrancyGuardUpgradeable.sol\":3395:3416  _nonReentrantBefore() */\n      jump\t// in\n    tag_522:\n        /* \"@openzeppelin/contracts-upgradeable/access/OwnableUpgradeable.sol\":2334:2347  _checkOwner() */\n      tag_524\n        /* \"@openzeppelin/contracts-upgradeable/access/OwnableUpgradeable.sol\":2334:2345  _checkOwner */\n      tag_352\n        /* \"@openzeppelin/contracts-upgradeable/access/OwnableUpgradeable.sol\":2334:2347  _checkOwner() */\n      jump\t// in\n    tag_524:\n        /* \"ICO/ICOProxy.sol\":3191:3205  isICOFinalized */\n      and(0xff, sload(0x09))\n        /* \"ICO/ICOProxy.sol\":3190:3205  !isICOFinalized */\n      iszero\n        /* \"ICO/ICOProxy.sol\":3182:3231  require(!isICOFinalized, \"ICO already finalized\") */\n      tag_526\n      jumpi\n      mload(0x40)\n      shl(0xe5, 0x461bcd)\n      dup2\n      mstore\n      0x04\n      add\n      tag_53\n      swap1\n      tag_356\n      jump\t// in\n    tag_526:\n        /* \"ICO/ICOProxy.sol\":3293:3302  isFreezed */\n      sload(0x09)\n      0x010000\n      swap1\n      div\n      0xff\n      and\n        /* \"ICO/ICOProxy.sol\":3292:3302  !isFreezed */\n      iszero\n        /* \"ICO/ICOProxy.sol\":3284:3314  require(!isFreezed, \"freezed\") */\n      tag_529\n      jumpi\n      mload(0x40)\n      shl(0xe5, 0x461bcd)\n      dup2\n      mstore\n      0x04\n      add\n      tag_53\n      swap1\n      tag_360\n      jump\t// in\n    tag_529:\n        /* \"ICO/ICOProxy.sol\":11506:11524  isTokensAirdropped */\n      sload(0x09)\n      0x0100\n      swap1\n      div\n      0xff\n      and\n        /* \"ICO/ICOProxy.sol\":11505:11524  !isTokensAirdropped */\n      iszero\n        /* \"ICO/ICOProxy.sol\":11497:11554  require(!isTokensAirdropped, \"Airdrop already completed\") */\n      tag_532\n      jumpi\n      mload(0x40)\n      shl(0xe5, 0x461bcd)\n      dup2\n      mstore\n        /* \"#utility.yul\":17142:17144   */\n      0x20\n        /* \"ICO/ICOProxy.sol\":11497:11554  require(!isTokensAirdropped, \"Airdrop already completed\") */\n      0x04\n      dup3\n      add\n        /* \"#utility.yul\":17124:17145   */\n      mstore\n        /* \"#utility.yul\":17181:17183   */\n      0x19\n        /* \"#utility.yul\":17161:17179   */\n      0x24\n      dup3\n      add\n        /* \"#utility.yul\":17154:17184   */\n      mstore\n        /* \"#utility.yul\":17220:17247   */\n      0x41697264726f7020616c726561647920636f6d706c6574656400000000000000\n        /* \"#utility.yul\":17200:17218   */\n      0x44\n      dup3\n      add\n        /* \"#utility.yul\":17193:17248   */\n      mstore\n        /* \"#utility.yul\":17265:17283   */\n      0x64\n      add\n        /* \"ICO/ICOProxy.sol\":11497:11554  require(!isTokensAirdropped, \"Airdrop already completed\") */\n      tag_53\n        /* \"#utility.yul\":16940:17289   */\n      jump\n        /* \"ICO/ICOProxy.sol\":11497:11554  require(!isTokensAirdropped, \"Airdrop already completed\") */\n    tag_532:\n        /* \"ICO/ICOProxy.sol\":11616:11631  totalTokensSold */\n      sload(0x08)\n        /* \"ICO/ICOProxy.sol\":11585:11590  token */\n      sload(0x03)\n        /* \"ICO/ICOProxy.sol\":11585:11612  token.balanceOf(msg.sender) */\n      mload(0x40)\n      shl(0xe0, 0x70a08231)\n      dup2\n      mstore\n        /* \"ICO/ICOProxy.sol\":11601:11611  msg.sender */\n      caller\n        /* \"ICO/ICOProxy.sol\":11585:11612  token.balanceOf(msg.sender) */\n      0x04\n      dup3\n      add\n        /* \"#utility.yul\":2019:2070   */\n      mstore\n      sub(shl(0xa0, 0x01), 0x01)\n        /* \"ICO/ICOProxy.sol\":11585:11590  token */\n      swap1\n      swap2\n      and\n      swap1\n        /* \"ICO/ICOProxy.sol\":11585:11600  token.balanceOf */\n      0x70a08231\n      swap1\n        /* \"#utility.yul\":1992:2010   */\n      0x24\n      add\n        /* \"ICO/ICOProxy.sol\":11585:11612  token.balanceOf(msg.sender) */\n      0x20\n      mload(0x40)\n      dup1\n      dup4\n      sub\n      dup2\n      dup7\n      gas\n      staticcall\n      iszero\n      dup1\n      iszero\n      tag_537\n      jumpi\n      returndatacopy(0x00, 0x00, returndatasize)\n      revert(0x00, returndatasize)\n    tag_537:\n      pop\n      pop\n      pop\n      pop\n      mload(0x40)\n      returndatasize\n      not(0x1f)\n      0x1f\n      dup3\n      add\n      and\n      dup3\n      add\n      dup1\n      0x40\n      mstore\n      pop\n      dup2\n      add\n      swap1\n      tag_538\n      swap2\n      swap1\n      tag_539\n      jump\t// in\n    tag_538:\n        /* \"ICO/ICOProxy.sol\":11585:11631  token.balanceOf(msg.sender) >= totalTokensSold */\n      lt\n      iszero\n        /* \"ICO/ICOProxy.sol\":11564:11675  require(... */\n      tag_540\n      jumpi\n      mload(0x40)\n      shl(0xe5, 0x461bcd)\n      dup2\n      mstore\n        /* \"#utility.yul\":17731:17733   */\n      0x20\n        /* \"ICO/ICOProxy.sol\":11564:11675  require(... */\n      0x04\n      dup3\n      add\n        /* \"#utility.yul\":17713:17734   */\n      mstore\n        /* \"#utility.yul\":17770:17772   */\n      0x12\n        /* \"#utility.yul\":17750:17768   */\n      0x24\n      dup3\n      add\n        /* \"#utility.yul\":17743:17773   */\n      mstore\n      shl(0x70, 0x496e73756666696369656e742046756e6473)\n        /* \"#utility.yul\":17789:17807   */\n      0x44\n      dup3\n      add\n        /* \"#utility.yul\":17782:17830   */\n      mstore\n        /* \"#utility.yul\":17847:17865   */\n      0x64\n      add\n        /* \"ICO/ICOProxy.sol\":11564:11675  require(... */\n      tag_53\n        /* \"#utility.yul\":17529:17871   */\n      jump\n        /* \"ICO/ICOProxy.sol\":11564:11675  require(... */\n    tag_540:\n        /* \"ICO/ICOProxy.sol\":15005:15014  saleCount */\n      sload(0x06)\n        /* \"ICO/ICOProxy.sol\":14973:14980  uint256 */\n      0x00\n        /* \"ICO/ICOProxy.sol\":14999:15015  sales[saleCount] */\n      swap1\n      dup2\n      mstore\n        /* \"ICO/ICOProxy.sol\":14999:15004  sales */\n      0x0d\n        /* \"ICO/ICOProxy.sol\":14999:15015  sales[saleCount] */\n      0x20\n      mstore\n      0x40\n      swap1\n      keccak256\n        /* \"ICO/ICOProxy.sol\":14999:15023  sales[saleCount].endTime */\n      0x01\n      add\n      sload\n        /* \"ICO/ICOProxy.sol\":11693:11708  block.timestamp */\n      timestamp\n        /* \"ICO/ICOProxy.sol\":11693:11733  block.timestamp > getLatestSaleEndTime() */\n      gt\n        /* \"ICO/ICOProxy.sol\":11685:11750  require(block.timestamp > getLatestSaleEndTime(), \"Sale ongoing\") */\n      tag_544\n      jumpi\n      mload(0x40)\n      shl(0xe5, 0x461bcd)\n      dup2\n      mstore\n        /* \"#utility.yul\":14043:14045   */\n      0x20\n        /* \"ICO/ICOProxy.sol\":11685:11750  require(block.timestamp > getLatestSaleEndTime(), \"Sale ongoing\") */\n      0x04\n      dup3\n      add\n        /* \"#utility.yul\":14025:14046   */\n      mstore\n        /* \"#utility.yul\":14082:14084   */\n      0x0c\n        /* \"#utility.yul\":14062:14080   */\n      0x24\n      dup3\n      add\n        /* \"#utility.yul\":14055:14085   */\n      mstore\n      shl(0xa0, 0x53616c65206f6e676f696e67)\n        /* \"#utility.yul\":14101:14119   */\n      0x44\n      dup3\n      add\n        /* \"#utility.yul\":14094:14136   */\n      mstore\n        /* \"#utility.yul\":14153:14171   */\n      0x64\n      add\n        /* \"ICO/ICOProxy.sol\":11685:11750  require(block.timestamp > getLatestSaleEndTime(), \"Sale ongoing\") */\n      tag_53\n        /* \"#utility.yul\":13841:14177   */\n      jump\n        /* \"ICO/ICOProxy.sol\":11685:11750  require(block.timestamp > getLatestSaleEndTime(), \"Sale ongoing\") */\n    tag_544:\n        /* \"ICO/ICOProxy.sol\":11786:11795  investors */\n      0x0a\n        /* \"ICO/ICOProxy.sol\":11786:11802  investors.length */\n      dup1\n      sload\n      swap1\n        /* \"ICO/ICOProxy.sol\":11761:11783  uint256 investorLength */\n      0x00\n      swap1\n        /* \"ICO/ICOProxy.sol\":11852:11871  investorLength > 10 */\n      dup3\n      gt\n        /* \"ICO/ICOProxy.sol\":11848:11989  if (investorLength > 10) {... */\n      iszero\n      tag_546\n      jumpi\n        /* \"ICO/ICOProxy.sol\":11907:11926  investorLength - 11 */\n      tag_547\n        /* \"ICO/ICOProxy.sol\":11924:11926  11 */\n      0x0b\n        /* \"ICO/ICOProxy.sol\":11907:11921  investorLength */\n      dup4\n        /* \"ICO/ICOProxy.sol\":11907:11926  investorLength - 11 */\n      tag_267\n      jump\t// in\n    tag_547:\n        /* \"ICO/ICOProxy.sol\":11887:11926  investorsIterated = investorLength - 11 */\n      swap1\n      pop\n        /* \"ICO/ICOProxy.sol\":11848:11989  if (investorLength > 10) {... */\n      jump(tag_548)\n    tag_546:\n      pop\n        /* \"ICO/ICOProxy.sol\":11977:11978  0 */\n      0x00\n        /* \"ICO/ICOProxy.sol\":11848:11989  if (investorLength > 10) {... */\n    tag_548:\n        /* \"ICO/ICOProxy.sol\":12003:12012  uint256 i */\n      0x00\n        /* \"ICO/ICOProxy.sol\":12015:12033  investorLength - 1 */\n      tag_552\n        /* \"ICO/ICOProxy.sol\":12032:12033  1 */\n      0x01\n        /* \"ICO/ICOProxy.sol\":12015:12029  investorLength */\n      dup5\n        /* \"ICO/ICOProxy.sol\":12015:12033  investorLength - 1 */\n      tag_267\n      jump\t// in\n    tag_552:\n        /* \"ICO/ICOProxy.sol\":12003:12033  uint256 i = investorLength - 1 */\n      swap1\n      pop\n        /* \"ICO/ICOProxy.sol\":11998:12579  for (uint256 i = investorLength - 1; i >= investorsIterated; i--) {... */\n    tag_549:\n        /* \"ICO/ICOProxy.sol\":12040:12057  investorsIterated */\n      dup2\n        /* \"ICO/ICOProxy.sol\":12035:12036  i */\n      dup2\n        /* \"ICO/ICOProxy.sol\":12035:12057  i >= investorsIterated */\n      lt\n        /* \"ICO/ICOProxy.sol\":11998:12579  for (uint256 i = investorLength - 1; i >= investorsIterated; i--) {... */\n      tag_550\n      jumpi\n        /* \"ICO/ICOProxy.sol\":12078:12094  address investor */\n      0x00\n        /* \"ICO/ICOProxy.sol\":12097:12106  investors */\n      0x0a\n        /* \"ICO/ICOProxy.sol\":12107:12108  i */\n      dup3\n        /* \"ICO/ICOProxy.sol\":12097:12109  investors[i] */\n      dup2\n      sload\n      dup2\n      lt\n      tag_554\n      jumpi\n      tag_554\n      tag_452\n      jump\t// in\n    tag_554:\n      0x00\n      swap2\n      dup3\n      mstore\n      0x20\n      dup1\n      dup4\n      keccak256\n      swap1\n      swap2\n      add\n      sload\n      sub(shl(0xa0, 0x01), 0x01)\n      and\n        /* \"ICO/ICOProxy.sol\":12146:12178  tokensBoughtByInvestor[investor] */\n      dup1\n      dup4\n      mstore\n        /* \"ICO/ICOProxy.sol\":12146:12168  tokensBoughtByInvestor */\n      0x0f\n        /* \"ICO/ICOProxy.sol\":12146:12178  tokensBoughtByInvestor[investor] */\n      swap1\n      swap2\n      mstore\n      0x40\n      swap1\n      swap2\n      keccak256\n      sload\n        /* \"ICO/ICOProxy.sol\":12097:12109  investors[i] */\n      swap1\n      swap2\n      pop\n        /* \"ICO/ICOProxy.sol\":12197:12213  tokensBought > 0 */\n      dup1\n      iszero\n        /* \"ICO/ICOProxy.sol\":12193:12506  if (tokensBought > 0) {... */\n      tag_556\n      jumpi\n        /* \"ICO/ICOProxy.sol\":12241:12246  token */\n      and(sub(shl(0xa0, 0x01), 0x01), sload(0x03))\n        /* \"ICO/ICOProxy.sol\":12241:12259  token.transferFrom */\n      0x23b872dd\n        /* \"ICO/ICOProxy.sol\":12281:12288  owner() */\n      tag_557\n        /* \"ICO/ICOProxy.sol\":12281:12286  owner */\n      tag_150\n        /* \"ICO/ICOProxy.sol\":12281:12288  owner() */\n      jump\t// in\n    tag_557:\n        /* \"ICO/ICOProxy.sol\":12241:12370  token.transferFrom(... */\n      mload(0x40)\n      not(sub(shl(0xe0, 0x01), 0x01))\n      0xe0\n      dup5\n      swap1\n      shl\n      and\n      dup2\n      mstore\n      sub(shl(0xa0, 0x01), 0x01)\n        /* \"#utility.yul\":18096:18128   */\n      swap2\n      dup3\n      and\n        /* \"ICO/ICOProxy.sol\":12241:12370  token.transferFrom(... */\n      0x04\n      dup3\n      add\n        /* \"#utility.yul\":18078:18129   */\n      mstore\n        /* \"#utility.yul\":18165:18197   */\n      swap1\n      dup6\n      and\n        /* \"#utility.yul\":18145:18163   */\n      0x24\n      dup3\n      add\n        /* \"#utility.yul\":18138:18198   */\n      mstore\n        /* \"#utility.yul\":18214:18232   */\n      0x44\n      dup2\n      add\n        /* \"#utility.yul\":18207:18241   */\n      dup5\n      swap1\n      mstore\n        /* \"#utility.yul\":18051:18069   */\n      0x64\n      add\n        /* \"ICO/ICOProxy.sol\":12241:12370  token.transferFrom(... */\n      0x20\n      mload(0x40)\n      dup1\n      dup4\n      sub\n      dup2\n      0x00\n      dup8\n      gas\n      call\n      iszero\n      dup1\n      iszero\n      tag_561\n      jumpi\n      returndatacopy(0x00, 0x00, returndatasize)\n      revert(0x00, returndatasize)\n    tag_561:\n      pop\n      pop\n      pop\n      pop\n      mload(0x40)\n      returndatasize\n      not(0x1f)\n      0x1f\n      dup3\n      add\n      and\n      dup3\n      add\n      dup1\n      0x40\n      mstore\n      pop\n      dup2\n      add\n      swap1\n      tag_562\n      swap2\n      swap1\n      tag_503\n      jump\t// in\n    tag_562:\n        /* \"ICO/ICOProxy.sol\":12233:12396  require(token.transferFrom(... */\n      tag_563\n      jumpi\n      mload(0x40)\n      shl(0xe5, 0x461bcd)\n      dup2\n      mstore\n        /* \"#utility.yul\":18454:18456   */\n      0x20\n        /* \"ICO/ICOProxy.sol\":12233:12396  require(token.transferFrom(... */\n      0x04\n      dup3\n      add\n        /* \"#utility.yul\":18436:18457   */\n      mstore\n        /* \"#utility.yul\":18493:18495   */\n      0x15\n        /* \"#utility.yul\":18473:18491   */\n      0x24\n      dup3\n      add\n        /* \"#utility.yul\":18466:18496   */\n      mstore\n      shl(0x5a, 0x151bdad95b881d1c985b9cd9995c8819985a5b1959)\n        /* \"#utility.yul\":18512:18530   */\n      0x44\n      dup3\n      add\n        /* \"#utility.yul\":18505:18556   */\n      mstore\n        /* \"#utility.yul\":18573:18591   */\n      0x64\n      add\n        /* \"ICO/ICOProxy.sol\":12233:12396  require(token.transferFrom(... */\n      tag_53\n        /* \"#utility.yul\":18252:18597   */\n      jump\n        /* \"ICO/ICOProxy.sol\":12233:12396  require(token.transferFrom(... */\n    tag_563:\n        /* \"ICO/ICOProxy.sol\":12414:12423  investors */\n      0x0a\n        /* \"ICO/ICOProxy.sol\":12414:12429  investors.pop() */\n      dup1\n      sload\n      dup1\n      tag_567\n      jumpi\n      tag_567\n      tag_511\n      jump\t// in\n    tag_567:\n      0x00\n      dup3\n      dup2\n      mstore\n      0x20\n      swap1\n      keccak256\n      dup2\n      add\n      not(0x00)\n      swap1\n      dup2\n      add\n      dup1\n      sload\n      not(sub(shl(0xa0, 0x01), 0x01))\n      and\n      swap1\n      sstore\n      add\n      swap1\n      sstore\n        /* \"ICO/ICOProxy.sol\":12452:12491  TokenAirdropped(investor, tokensBought) */\n      mload(0x40)\n      sub(shl(0xa0, 0x01), 0x01)\n      dup4\n      and\n      swap1\n      0x9bdcd0cc5503fb9a8dd7311d9617e33108c4b7c8948cc544b16c1fd63c6f475b\n      swap1\n      tag_569\n      swap1\n        /* \"ICO/ICOProxy.sol\":12478:12490  tokensBought */\n      dup5\n        /* \"#utility.yul\":1014:1039   */\n      dup2\n      mstore\n        /* \"#utility.yul\":1002:1004   */\n      0x20\n        /* \"#utility.yul\":987:1005   */\n      add\n      swap1\n        /* \"#utility.yul\":868:1045   */\n      jump\n        /* \"ICO/ICOProxy.sol\":12452:12491  TokenAirdropped(investor, tokensBought) */\n    tag_569:\n      mload(0x40)\n      dup1\n      swap2\n      sub\n      swap1\n      log2\n        /* \"ICO/ICOProxy.sol\":12193:12506  if (tokensBought > 0) {... */\n    tag_556:\n        /* \"ICO/ICOProxy.sol\":12523:12524  i */\n      dup3\n        /* \"ICO/ICOProxy.sol\":12528:12529  0 */\n      0x00\n        /* \"ICO/ICOProxy.sol\":12523:12529  i == 0 */\n      sub\n        /* \"ICO/ICOProxy.sol\":12519:12569  if (i == 0) {... */\n      tag_570\n      jumpi\n        /* \"ICO/ICOProxy.sol\":12549:12554  break */\n      pop\n      pop\n      jump(tag_550)\n        /* \"ICO/ICOProxy.sol\":12519:12569  if (i == 0) {... */\n    tag_570:\n        /* \"ICO/ICOProxy.sol\":12064:12579  {... */\n      pop\n      pop\n        /* \"ICO/ICOProxy.sol\":12059:12062  i-- */\n      dup1\n      dup1\n      tag_571\n      swap1\n      tag_515\n      jump\t// in\n    tag_571:\n      swap2\n      pop\n      pop\n        /* \"ICO/ICOProxy.sol\":11998:12579  for (uint256 i = investorLength - 1; i >= investorsIterated; i--) {... */\n      jump(tag_549)\n    tag_550:\n      pop\n        /* \"ICO/ICOProxy.sol\":12592:12601  investors */\n      0x0a\n        /* \"ICO/ICOProxy.sol\":12592:12608  investors.length */\n      sload\n        /* \"ICO/ICOProxy.sol\":12612:12613  0 */\n      0x00\n        /* \"ICO/ICOProxy.sol\":12592:12613  investors.length == 0 */\n      sub\n        /* \"ICO/ICOProxy.sol\":12588:12665  if (investors.length == 0) {... */\n      tag_516\n      jumpi\n        /* \"ICO/ICOProxy.sol\":12629:12647  isTokensAirdropped */\n      0x09\n        /* \"ICO/ICOProxy.sol\":12629:12654  isTokensAirdropped = true */\n      dup1\n      sload\n      not(0xff00)\n      and\n      0x0100\n      or\n      swap1\n      sstore\n        /* \"ICO/ICOProxy.sol\":11487:12671  {... */\n      pop\n      pop\n        /* \"@openzeppelin/contracts-upgradeable/utils/ReentrancyGuardUpgradeable.sol\":3437:3457  _nonReentrantAfter() */\n      tag_370\n        /* \"@openzeppelin/contracts-upgradeable/utils/ReentrancyGuardUpgradeable.sol\":1949:1950  1 */\n      0x01\n      mload(0x00)\n      codecopy(0x00, data_c8669cf8eaf883002b9f48e28846a8d408c9b58ea6613bace374265e43c9bc43, 0x20)\n      mload(0x00)\n      swap1\n      0x00\n      mstore\n        /* \"@openzeppelin/contracts-upgradeable/utils/ReentrancyGuardUpgradeable.sol\":4113:4136  $._status = NOT_ENTERED */\n      sstore\n        /* \"@openzeppelin/contracts-upgradeable/utils/ReentrancyGuardUpgradeable.sol\":3860:4143  function _nonReentrantAfter() private {... */\n      jump\n        /* \"ICO/ICOProxy.sol\":7730:10153  function buyTokens(PaymentMethod paymentMethod, uint256 paymentAmount)... */\n    tag_161:\n        /* \"@openzeppelin/contracts-upgradeable/utils/ReentrancyGuardUpgradeable.sol\":3395:3416  _nonReentrantBefore() */\n      tag_576\n        /* \"@openzeppelin/contracts-upgradeable/utils/ReentrancyGuardUpgradeable.sol\":3395:3414  _nonReentrantBefore */\n      tag_349\n        /* \"@openzeppelin/contracts-upgradeable/utils/ReentrancyGuardUpgradeable.sol\":3395:3416  _nonReentrantBefore() */\n      jump\t// in\n    tag_576:\n        /* \"ICO/ICOProxy.sol\":3191:3205  isICOFinalized */\n      and(0xff, sload(0x09))\n        /* \"ICO/ICOProxy.sol\":3190:3205  !isICOFinalized */\n      iszero\n        /* \"ICO/ICOProxy.sol\":3182:3231  require(!isICOFinalized, \"ICO already finalized\") */\n      tag_578\n      jumpi\n      mload(0x40)\n      shl(0xe5, 0x461bcd)\n      dup2\n      mstore\n      0x04\n      add\n      tag_53\n      swap1\n      tag_356\n      jump\t// in\n    tag_578:\n        /* \"ICO/ICOProxy.sol\":3293:3302  isFreezed */\n      sload(0x09)\n      0x010000\n      swap1\n      div\n      0xff\n      and\n        /* \"ICO/ICOProxy.sol\":3292:3302  !isFreezed */\n      iszero\n        /* \"ICO/ICOProxy.sol\":3284:3314  require(!isFreezed, \"freezed\") */\n      tag_581\n      jumpi\n      mload(0x40)\n      shl(0xe5, 0x461bcd)\n      dup2\n      mstore\n      0x04\n      add\n      tag_53\n      swap1\n      tag_360\n      jump\t// in\n    tag_581:\n        /* \"ICO/ICOProxy.sol\":7940:7947  owner() */\n      tag_584\n        /* \"ICO/ICOProxy.sol\":7940:7945  owner */\n      tag_150\n        /* \"ICO/ICOProxy.sol\":7940:7947  owner() */\n      jump\t// in\n    tag_584:\n      sub(shl(0xa0, 0x01), 0x01)\n        /* \"ICO/ICOProxy.sol\":7926:7947  msg.sender != owner() */\n      and\n        /* \"ICO/ICOProxy.sol\":7926:7936  msg.sender */\n      caller\n        /* \"ICO/ICOProxy.sol\":7926:7947  msg.sender != owner() */\n      sub\n        /* \"ICO/ICOProxy.sol\":7918:7975  require(msg.sender != owner(), \"Owner cannot buy tokens\") */\n      tag_585\n      jumpi\n      mload(0x40)\n      shl(0xe5, 0x461bcd)\n      dup2\n      mstore\n        /* \"#utility.yul\":18804:18806   */\n      0x20\n        /* \"ICO/ICOProxy.sol\":7918:7975  require(msg.sender != owner(), \"Owner cannot buy tokens\") */\n      0x04\n      dup3\n      add\n        /* \"#utility.yul\":18786:18807   */\n      mstore\n        /* \"#utility.yul\":18843:18845   */\n      0x17\n        /* \"#utility.yul\":18823:18841   */\n      0x24\n      dup3\n      add\n        /* \"#utility.yul\":18816:18846   */\n      mstore\n        /* \"#utility.yul\":18882:18907   */\n      0x4f776e65722063616e6e6f742062757920746f6b656e73000000000000000000\n        /* \"#utility.yul\":18862:18880   */\n      0x44\n      dup3\n      add\n        /* \"#utility.yul\":18855:18908   */\n      mstore\n        /* \"#utility.yul\":18925:18943   */\n      0x64\n      add\n        /* \"ICO/ICOProxy.sol\":7918:7975  require(msg.sender != owner(), \"Owner cannot buy tokens\") */\n      tag_53\n        /* \"#utility.yul\":18602:18949   */\n      jump\n        /* \"ICO/ICOProxy.sol\":7918:7975  require(msg.sender != owner(), \"Owner cannot buy tokens\") */\n    tag_585:\n        /* \"ICO/ICOProxy.sol\":7993:8002  saleCount */\n      sload(0x06)\n        /* \"ICO/ICOProxy.sol\":8006:8007  0 */\n      0x00\n        /* \"ICO/ICOProxy.sol\":7993:8007  saleCount != 0 */\n      sub\n        /* \"ICO/ICOProxy.sol\":7985:8019  require(saleCount != 0, \"No sale\") */\n      tag_588\n      jumpi\n      mload(0x40)\n      shl(0xe5, 0x461bcd)\n      dup2\n      mstore\n        /* \"#utility.yul\":19156:19158   */\n      0x20\n        /* \"ICO/ICOProxy.sol\":7985:8019  require(saleCount != 0, \"No sale\") */\n      0x04\n      dup3\n      add\n        /* \"#utility.yul\":19138:19159   */\n      mstore\n        /* \"#utility.yul\":19195:19196   */\n      0x07\n        /* \"#utility.yul\":19175:19193   */\n      0x24\n      dup3\n      add\n        /* \"#utility.yul\":19168:19197   */\n      mstore\n      shl(0xc8, 0x4e6f2073616c65)\n        /* \"#utility.yul\":19213:19231   */\n      0x44\n      dup3\n      add\n        /* \"#utility.yul\":19206:19243   */\n      mstore\n        /* \"#utility.yul\":19260:19278   */\n      0x64\n      add\n        /* \"ICO/ICOProxy.sol\":7985:8019  require(saleCount != 0, \"No sale\") */\n      tag_53\n        /* \"#utility.yul\":18954:19284   */\n      jump\n        /* \"ICO/ICOProxy.sol\":7985:8019  require(saleCount != 0, \"No sale\") */\n    tag_588:\n        /* \"ICO/ICOProxy.sol\":8044:8053  saleCount */\n      sload(0x06)\n        /* \"ICO/ICOProxy.sol\":8038:8054  sales[saleCount] */\n      0x00\n      swap1\n      dup2\n      mstore\n        /* \"ICO/ICOProxy.sol\":8038:8043  sales */\n      0x0d\n        /* \"ICO/ICOProxy.sol\":8038:8054  sales[saleCount] */\n      0x20\n      mstore\n      0x40\n      swap1\n      keccak256\n        /* \"ICO/ICOProxy.sol\":8038:8066  sales[saleCount].isFinalized */\n      0x04\n      add\n      sload\n      0xff\n      and\n        /* \"ICO/ICOProxy.sol\":8037:8066  !sales[saleCount].isFinalized */\n      iszero\n        /* \"ICO/ICOProxy.sol\":8029:8093  require(!sales[saleCount].isFinalized, \"Sale already finalized\") */\n      tag_591\n      jumpi\n      mload(0x40)\n      shl(0xe5, 0x461bcd)\n      dup2\n      mstore\n        /* \"#utility.yul\":19491:19493   */\n      0x20\n        /* \"ICO/ICOProxy.sol\":8029:8093  require(!sales[saleCount].isFinalized, \"Sale already finalized\") */\n      0x04\n      dup3\n      add\n        /* \"#utility.yul\":19473:19494   */\n      mstore\n        /* \"#utility.yul\":19530:19532   */\n      0x16\n        /* \"#utility.yul\":19510:19528   */\n      0x24\n      dup3\n      add\n        /* \"#utility.yul\":19503:19533   */\n      mstore\n      shl(0x52, 0x14d85b1948185b1c9958591e48199a5b985b1a5e9959)\n        /* \"#utility.yul\":19549:19567   */\n      0x44\n      dup3\n      add\n        /* \"#utility.yul\":19542:19594   */\n      mstore\n        /* \"#utility.yul\":19611:19629   */\n      0x64\n      add\n        /* \"ICO/ICOProxy.sol\":8029:8093  require(!sales[saleCount].isFinalized, \"Sale already finalized\") */\n      tag_53\n        /* \"#utility.yul\":19289:19635   */\n      jump\n        /* \"ICO/ICOProxy.sol\":8029:8093  require(!sales[saleCount].isFinalized, \"Sale already finalized\") */\n    tag_591:\n        /* \"ICO/ICOProxy.sol\":8103:8122  uint256 tokenAmount */\n      0x00\n      dup1\n        /* \"ICO/ICOProxy.sol\":8136:8149  paymentMethod */\n      dup4\n        /* \"ICO/ICOProxy.sol\":8136:8170  paymentMethod == PaymentMethod.BNB */\n      0x02\n      dup2\n      gt\n      iszero\n      tag_597\n      jumpi\n      tag_597\n      tag_248\n      jump\t// in\n    tag_597:\n      sub\n        /* \"ICO/ICOProxy.sol\":8132:9110  if (paymentMethod == PaymentMethod.BNB) {... */\n      tag_598\n      jumpi\n        /* \"ICO/ICOProxy.sol\":8194:8203  msg.value */\n      callvalue\n        /* \"ICO/ICOProxy.sol\":8207:8208  0 */\n      0x00\n        /* \"ICO/ICOProxy.sol\":8194:8208  msg.value != 0 */\n      sub\n        /* \"ICO/ICOProxy.sol\":8186:8236  require(msg.value != 0, \"Send a valid BNB amount\") */\n      tag_599\n      jumpi\n      mload(0x40)\n      shl(0xe5, 0x461bcd)\n      dup2\n      mstore\n        /* \"#utility.yul\":19842:19844   */\n      0x20\n        /* \"ICO/ICOProxy.sol\":8186:8236  require(msg.value != 0, \"Send a valid BNB amount\") */\n      0x04\n      dup3\n      add\n        /* \"#utility.yul\":19824:19845   */\n      mstore\n        /* \"#utility.yul\":19881:19883   */\n      0x17\n        /* \"#utility.yul\":19861:19879   */\n      0x24\n      dup3\n      add\n        /* \"#utility.yul\":19854:19884   */\n      mstore\n        /* \"#utility.yul\":19920:19945   */\n      0x53656e6420612076616c696420424e4220616d6f756e74000000000000000000\n        /* \"#utility.yul\":19900:19918   */\n      0x44\n      dup3\n      add\n        /* \"#utility.yul\":19893:19946   */\n      mstore\n        /* \"#utility.yul\":19963:19981   */\n      0x64\n      add\n        /* \"ICO/ICOProxy.sol\":8186:8236  require(msg.value != 0, \"Send a valid BNB amount\") */\n      tag_53\n        /* \"#utility.yul\":19640:19987   */\n      jump\n        /* \"ICO/ICOProxy.sol\":8186:8236  require(msg.value != 0, \"Send a valid BNB amount\") */\n    tag_599:\n        /* \"ICO/ICOProxy.sol\":8264:8310  calculateTokenAmount(paymentMethod, msg.value) */\n      tag_602\n        /* \"ICO/ICOProxy.sol\":8285:8298  paymentMethod */\n      dup4\n        /* \"ICO/ICOProxy.sol\":8300:8309  msg.value */\n      callvalue\n        /* \"ICO/ICOProxy.sol\":8264:8284  calculateTokenAmount */\n      tag_59\n        /* \"ICO/ICOProxy.sol\":8264:8310  calculateTokenAmount(paymentMethod, msg.value) */\n      jump\t// in\n    tag_602:\n        /* \"ICO/ICOProxy.sol\":8341:8351  msg.sender */\n      caller\n        /* \"ICO/ICOProxy.sol\":8324:8352  investorPayments[msg.sender] */\n      0x00\n      swap1\n      dup2\n      mstore\n        /* \"ICO/ICOProxy.sol\":8324:8340  investorPayments */\n      0x11\n        /* \"ICO/ICOProxy.sol\":8324:8352  investorPayments[msg.sender] */\n      0x20\n      mstore\n      0x40\n      dup2\n      keccak256\n        /* \"ICO/ICOProxy.sol\":8250:8310  tokenAmount = calculateTokenAmount(paymentMethod, msg.value) */\n      swap2\n      swap3\n      pop\n        /* \"ICO/ICOProxy.sol\":8371:8380  msg.value */\n      callvalue\n      swap2\n        /* \"ICO/ICOProxy.sol\":8324:8352  investorPayments[msg.sender] */\n      swap1\n        /* \"ICO/ICOProxy.sol\":8353:8366  paymentMethod */\n      dup6\n        /* \"ICO/ICOProxy.sol\":8324:8367  investorPayments[msg.sender][paymentMethod] */\n      0x02\n      dup2\n      gt\n      iszero\n      tag_604\n      jumpi\n      tag_604\n      tag_248\n      jump\t// in\n    tag_604:\n      0x02\n      dup2\n      gt\n      iszero\n      tag_606\n      jumpi\n      tag_606\n      tag_248\n      jump\t// in\n    tag_606:\n      dup2\n      mstore\n      0x20\n      add\n      swap1\n      dup2\n      mstore\n      0x20\n      add\n      0x00\n      keccak256\n      0x00\n        /* \"ICO/ICOProxy.sol\":8324:8380  investorPayments[msg.sender][paymentMethod] += msg.value */\n      dup3\n      dup3\n      sload\n      tag_607\n      swap2\n      swap1\n      tag_413\n      jump\t// in\n    tag_607:\n      swap1\n      swap2\n      sstore\n      pop\n        /* \"ICO/ICOProxy.sol\":8132:9110  if (paymentMethod == PaymentMethod.BNB) {... */\n      tag_618\n      swap1\n      pop\n      jump\n    tag_598:\n        /* \"ICO/ICOProxy.sol\":8431:8449  PaymentMethod.USDT */\n      0x01\n        /* \"ICO/ICOProxy.sol\":8414:8427  paymentMethod */\n      dup4\n        /* \"ICO/ICOProxy.sol\":8414:8449  paymentMethod == PaymentMethod.USDT */\n      0x02\n      dup2\n      gt\n      iszero\n      tag_612\n      jumpi\n      tag_612\n      tag_248\n      jump\t// in\n    tag_612:\n      eq\n        /* \"ICO/ICOProxy.sol\":8414:8500  paymentMethod == PaymentMethod.USDT ||... */\n      dup1\n      tag_613\n      jumpi\n      pop\n        /* \"ICO/ICOProxy.sol\":8482:8500  PaymentMethod.USDC */\n      0x02\n        /* \"ICO/ICOProxy.sol\":8465:8478  paymentMethod */\n      dup4\n        /* \"ICO/ICOProxy.sol\":8465:8500  paymentMethod == PaymentMethod.USDC */\n      0x02\n      dup2\n      gt\n      iszero\n      tag_617\n      jumpi\n      tag_617\n      tag_248\n      jump\t// in\n    tag_617:\n      eq\n        /* \"ICO/ICOProxy.sol\":8414:8500  paymentMethod == PaymentMethod.USDT ||... */\n    tag_613:\n        /* \"ICO/ICOProxy.sol\":8397:9110  if (... */\n      iszero\n      tag_618\n      jumpi\n        /* \"ICO/ICOProxy.sol\":8533:8546  paymentAmount */\n      dup2\n        /* \"ICO/ICOProxy.sol\":8550:8551  0 */\n      0x00\n        /* \"ICO/ICOProxy.sol\":8533:8551  paymentAmount != 0 */\n      sub\n        /* \"ICO/ICOProxy.sol\":8525:8574  require(paymentAmount != 0, \"Enter valid amount\") */\n      tag_619\n      jumpi\n      mload(0x40)\n      shl(0xe5, 0x461bcd)\n      dup2\n      mstore\n        /* \"#utility.yul\":20194:20196   */\n      0x20\n        /* \"ICO/ICOProxy.sol\":8525:8574  require(paymentAmount != 0, \"Enter valid amount\") */\n      0x04\n      dup3\n      add\n        /* \"#utility.yul\":20176:20197   */\n      mstore\n        /* \"#utility.yul\":20233:20235   */\n      0x12\n        /* \"#utility.yul\":20213:20231   */\n      0x24\n      dup3\n      add\n        /* \"#utility.yul\":20206:20236   */\n      mstore\n      shl(0x72, 0x115b9d195c881d985b1a5908185b5bdd5b9d)\n        /* \"#utility.yul\":20252:20270   */\n      0x44\n      dup3\n      add\n        /* \"#utility.yul\":20245:20293   */\n      mstore\n        /* \"#utility.yul\":20310:20328   */\n      0x64\n      add\n        /* \"ICO/ICOProxy.sol\":8525:8574  require(paymentAmount != 0, \"Enter valid amount\") */\n      tag_53\n        /* \"#utility.yul\":19992:20334   */\n      jump\n        /* \"ICO/ICOProxy.sol\":8525:8574  require(paymentAmount != 0, \"Enter valid amount\") */\n    tag_619:\n        /* \"ICO/ICOProxy.sol\":8588:8605  IERC20 stablecoin */\n      0x00\n        /* \"ICO/ICOProxy.sol\":8625:8643  PaymentMethod.USDT */\n      0x01\n        /* \"ICO/ICOProxy.sol\":8608:8621  paymentMethod */\n      dup5\n        /* \"ICO/ICOProxy.sol\":8608:8643  paymentMethod == PaymentMethod.USDT */\n      0x02\n      dup2\n      gt\n      iszero\n      tag_625\n      jumpi\n      tag_625\n      tag_248\n      jump\t// in\n    tag_625:\n      eq\n        /* \"ICO/ICOProxy.sol\":8608:8705  paymentMethod == PaymentMethod.USDT... */\n      tag_626\n      jumpi\n        /* \"ICO/ICOProxy.sol\":8700:8704  usdc */\n      and(sub(shl(0xa0, 0x01), 0x01), sload(0x0c))\n        /* \"ICO/ICOProxy.sol\":8608:8705  paymentMethod == PaymentMethod.USDT... */\n      jump(tag_627)\n    tag_626:\n        /* \"ICO/ICOProxy.sol\":8669:8673  usdt */\n      and(sub(shl(0xa0, 0x01), 0x01), sload(0x0b))\n        /* \"ICO/ICOProxy.sol\":8608:8705  paymentMethod == PaymentMethod.USDT... */\n    tag_627:\n        /* \"ICO/ICOProxy.sol\":8744:8887  stablecoin.transferFrom(... */\n      mload(0x40)\n      shl(0xe0, 0x23b872dd)\n      dup2\n      mstore\n        /* \"ICO/ICOProxy.sol\":8789:8799  msg.sender */\n      caller\n        /* \"ICO/ICOProxy.sol\":8744:8887  stablecoin.transferFrom(... */\n      0x04\n      dup3\n      add\n        /* \"#utility.yul\":18078:18129   */\n      mstore\n        /* \"ICO/ICOProxy.sol\":8829:8833  this */\n      address\n        /* \"#utility.yul\":18145:18163   */\n      0x24\n      dup3\n      add\n        /* \"#utility.yul\":18138:18198   */\n      mstore\n        /* \"#utility.yul\":18214:18232   */\n      0x44\n      dup2\n      add\n        /* \"#utility.yul\":18207:18241   */\n      dup6\n      swap1\n      mstore\n        /* \"ICO/ICOProxy.sol\":8588:8705  IERC20 stablecoin = paymentMethod == PaymentMethod.USDT... */\n      swap1\n      swap2\n      pop\n      sub(shl(0xa0, 0x01), 0x01)\n        /* \"ICO/ICOProxy.sol\":8744:8767  stablecoin.transferFrom */\n      dup3\n      and\n      swap1\n      0x23b872dd\n      swap1\n        /* \"#utility.yul\":18051:18069   */\n      0x64\n      add\n        /* \"ICO/ICOProxy.sol\":8744:8887  stablecoin.transferFrom(... */\n      0x20\n      mload(0x40)\n      dup1\n      dup4\n      sub\n      dup2\n      0x00\n      dup8\n      gas\n      call\n      iszero\n      dup1\n      iszero\n      tag_630\n      jumpi\n      returndatacopy(0x00, 0x00, returndatasize)\n      revert(0x00, returndatasize)\n    tag_630:\n      pop\n      pop\n      pop\n      pop\n      mload(0x40)\n      returndatasize\n      not(0x1f)\n      0x1f\n      dup3\n      add\n      and\n      dup3\n      add\n      dup1\n      0x40\n      mstore\n      pop\n      dup2\n      add\n      swap1\n      tag_631\n      swap2\n      swap1\n      tag_503\n      jump\t// in\n    tag_631:\n        /* \"ICO/ICOProxy.sol\":8719:8947  require(... */\n      tag_632\n      jumpi\n      mload(0x40)\n      shl(0xe5, 0x461bcd)\n      dup2\n      mstore\n        /* \"#utility.yul\":20541:20543   */\n      0x20\n        /* \"ICO/ICOProxy.sol\":8719:8947  require(... */\n      0x04\n      dup3\n      add\n        /* \"#utility.yul\":20523:20544   */\n      mstore\n        /* \"#utility.yul\":20580:20582   */\n      0x1a\n        /* \"#utility.yul\":20560:20578   */\n      0x24\n      dup3\n      add\n        /* \"#utility.yul\":20553:20583   */\n      mstore\n        /* \"#utility.yul\":20619:20647   */\n      0x537461626c65636f696e207472616e73666572206661696c6564000000000000\n        /* \"#utility.yul\":20599:20617   */\n      0x44\n      dup3\n      add\n        /* \"#utility.yul\":20592:20648   */\n      mstore\n        /* \"#utility.yul\":20665:20683   */\n      0x64\n      add\n        /* \"ICO/ICOProxy.sol\":8719:8947  require(... */\n      tag_53\n        /* \"#utility.yul\":20339:20689   */\n      jump\n        /* \"ICO/ICOProxy.sol\":8719:8947  require(... */\n    tag_632:\n        /* \"ICO/ICOProxy.sol\":8975:9025  calculateTokenAmount(paymentMethod, paymentAmount) */\n      tag_635\n        /* \"ICO/ICOProxy.sol\":8996:9009  paymentMethod */\n      dup5\n        /* \"ICO/ICOProxy.sol\":9011:9024  paymentAmount */\n      dup5\n        /* \"ICO/ICOProxy.sol\":8975:8995  calculateTokenAmount */\n      tag_59\n        /* \"ICO/ICOProxy.sol\":8975:9025  calculateTokenAmount(paymentMethod, paymentAmount) */\n      jump\t// in\n    tag_635:\n        /* \"ICO/ICOProxy.sol\":9056:9066  msg.sender */\n      caller\n        /* \"ICO/ICOProxy.sol\":9039:9067  investorPayments[msg.sender] */\n      0x00\n      swap1\n      dup2\n      mstore\n        /* \"ICO/ICOProxy.sol\":9039:9055  investorPayments */\n      0x11\n        /* \"ICO/ICOProxy.sol\":9039:9067  investorPayments[msg.sender] */\n      0x20\n      mstore\n      0x40\n      dup2\n      keccak256\n        /* \"ICO/ICOProxy.sol\":8961:9025  tokenAmount = calculateTokenAmount(paymentMethod, paymentAmount) */\n      swap2\n      swap4\n      pop\n        /* \"ICO/ICOProxy.sol\":9086:9099  paymentAmount */\n      dup5\n      swap2\n        /* \"ICO/ICOProxy.sol\":9039:9067  investorPayments[msg.sender] */\n      swap1\n        /* \"ICO/ICOProxy.sol\":9068:9081  paymentMethod */\n      dup7\n        /* \"ICO/ICOProxy.sol\":9039:9082  investorPayments[msg.sender][paymentMethod] */\n      0x02\n      dup2\n      gt\n      iszero\n      tag_637\n      jumpi\n      tag_637\n      tag_248\n      jump\t// in\n    tag_637:\n      0x02\n      dup2\n      gt\n      iszero\n      tag_639\n      jumpi\n      tag_639\n      tag_248\n      jump\t// in\n    tag_639:\n      dup2\n      mstore\n      0x20\n      add\n      swap1\n      dup2\n      mstore\n      0x20\n      add\n      0x00\n      keccak256\n      0x00\n        /* \"ICO/ICOProxy.sol\":9039:9099  investorPayments[msg.sender][paymentMethod] += paymentAmount */\n      dup3\n      dup3\n      sload\n      tag_640\n      swap2\n      swap1\n      tag_413\n      jump\t// in\n    tag_640:\n      swap1\n      swap2\n      sstore\n      pop\n      pop\n      pop\n        /* \"ICO/ICOProxy.sol\":8397:9110  if (... */\n    tag_618:\n        /* \"ICO/ICOProxy.sol\":9137:9148  tokenAmount */\n      dup1\n        /* \"ICO/ICOProxy.sol\":9152:9153  0 */\n      0x00\n        /* \"ICO/ICOProxy.sol\":9137:9153  tokenAmount != 0 */\n      sub\n        /* \"ICO/ICOProxy.sol\":9129:9178  require(tokenAmount != 0, \"Invalid token amount\") */\n      tag_641\n      jumpi\n      mload(0x40)\n      shl(0xe5, 0x461bcd)\n      dup2\n      mstore\n        /* \"#utility.yul\":20896:20898   */\n      0x20\n        /* \"ICO/ICOProxy.sol\":9129:9178  require(tokenAmount != 0, \"Invalid token amount\") */\n      0x04\n      dup3\n      add\n        /* \"#utility.yul\":20878:20899   */\n      mstore\n        /* \"#utility.yul\":20935:20937   */\n      0x14\n        /* \"#utility.yul\":20915:20933   */\n      0x24\n      dup3\n      add\n        /* \"#utility.yul\":20908:20938   */\n      mstore\n      shl(0x62, 0x125b9d985b1a59081d1bdad95b88185b5bdd5b9d)\n        /* \"#utility.yul\":20954:20972   */\n      0x44\n      dup3\n      add\n        /* \"#utility.yul\":20947:20997   */\n      mstore\n        /* \"#utility.yul\":21014:21032   */\n      0x64\n      add\n        /* \"ICO/ICOProxy.sol\":9129:9178  require(tokenAmount != 0, \"Invalid token amount\") */\n      tag_53\n        /* \"#utility.yul\":20694:21038   */\n      jump\n        /* \"ICO/ICOProxy.sol\":9129:9178  require(tokenAmount != 0, \"Invalid token amount\") */\n    tag_641:\n        /* \"ICO/ICOProxy.sol\":9246:9255  saleCount */\n      sload(0x06)\n        /* \"ICO/ICOProxy.sol\":9188:9210  uint256 totalCostInUSD */\n      0x00\n        /* \"ICO/ICOProxy.sol\":9240:9256  sales[saleCount] */\n      swap1\n      dup2\n      mstore\n        /* \"ICO/ICOProxy.sol\":9240:9245  sales */\n      0x0d\n        /* \"ICO/ICOProxy.sol\":9240:9256  sales[saleCount] */\n      0x20\n      mstore\n      0x40\n      dup2\n      keccak256\n        /* \"ICO/ICOProxy.sol\":9240:9270  sales[saleCount].tokenPriceUSD */\n      0x02\n      add\n      sload\n        /* \"ICO/ICOProxy.sol\":1219:1223  1e18 */\n      0x0de0b6b3a7640000\n      swap1\n        /* \"ICO/ICOProxy.sol\":9214:9270  tokenAmount *... */\n      tag_644\n      swap1\n        /* \"ICO/ICOProxy.sol\":9214:9225  tokenAmount */\n      dup5\n        /* \"ICO/ICOProxy.sol\":9214:9270  tokenAmount *... */\n      tag_254\n      jump\t// in\n    tag_644:\n        /* \"ICO/ICOProxy.sol\":9213:9286  (tokenAmount *... */\n      tag_645\n      swap2\n      swap1\n      tag_278\n      jump\t// in\n    tag_645:\n        /* \"ICO/ICOProxy.sol\":9188:9286  uint256 totalCostInUSD = (tokenAmount *... */\n      swap1\n      pop\n        /* \"ICO/ICOProxy.sol\":9357:9369  hardCapInUSD */\n      sload(0x05)\n        /* \"ICO/ICOProxy.sol\":9339:9353  totalCostInUSD */\n      dup2\n        /* \"ICO/ICOProxy.sol\":9317:9336  totalFundsRaisedUSD */\n      sload(0x07)\n        /* \"ICO/ICOProxy.sol\":9317:9353  totalFundsRaisedUSD + totalCostInUSD */\n      tag_646\n      swap2\n      swap1\n      tag_413\n      jump\t// in\n    tag_646:\n        /* \"ICO/ICOProxy.sol\":9317:9369  totalFundsRaisedUSD + totalCostInUSD <= hardCapInUSD */\n      gt\n      iszero\n        /* \"ICO/ICOProxy.sol\":9296:9411  require(... */\n      tag_647\n      jumpi\n      mload(0x40)\n      shl(0xe5, 0x461bcd)\n      dup2\n      mstore\n        /* \"#utility.yul\":21245:21247   */\n      0x20\n        /* \"ICO/ICOProxy.sol\":9296:9411  require(... */\n      0x04\n      dup3\n      add\n        /* \"#utility.yul\":21227:21248   */\n      mstore\n        /* \"#utility.yul\":21284:21286   */\n      0x10\n        /* \"#utility.yul\":21264:21282   */\n      0x24\n      dup3\n      add\n        /* \"#utility.yul\":21257:21287   */\n      mstore\n      shl(0x82, 0x12185c990818d85c081c995858da1959)\n        /* \"#utility.yul\":21303:21321   */\n      0x44\n      dup3\n      add\n        /* \"#utility.yul\":21296:21342   */\n      mstore\n        /* \"#utility.yul\":21359:21377   */\n      0x64\n      add\n        /* \"ICO/ICOProxy.sol\":9296:9411  require(... */\n      tag_53\n        /* \"#utility.yul\":21043:21383   */\n      jump\n        /* \"ICO/ICOProxy.sol\":9296:9411  require(... */\n    tag_647:\n        /* \"ICO/ICOProxy.sol\":9472:9482  msg.sender */\n      caller\n        /* \"ICO/ICOProxy.sol\":9453:9483  contributionsInUSD[msg.sender] */\n      0x00\n      swap1\n      dup2\n      mstore\n        /* \"ICO/ICOProxy.sol\":9453:9471  contributionsInUSD */\n      0x0e\n        /* \"ICO/ICOProxy.sol\":9453:9483  contributionsInUSD[msg.sender] */\n      0x20\n      mstore\n      0x40\n      swap1\n      keccak256\n      sload\n        /* \"ICO/ICOProxy.sol\":9453:9499  contributionsInUSD[msg.sender]+ totalCostInUSD */\n      tag_650\n      swap1\n        /* \"ICO/ICOProxy.sol\":9485:9499  totalCostInUSD */\n      dup3\n      swap1\n        /* \"ICO/ICOProxy.sol\":9453:9499  contributionsInUSD[msg.sender]+ totalCostInUSD */\n      tag_413\n      jump\t// in\n    tag_650:\n        /* \"ICO/ICOProxy.sol\":9440:9450  msg.sender */\n      caller\n        /* \"ICO/ICOProxy.sol\":9421:9451  contributionsInUSD[msg.sender] */\n      0x00\n      swap1\n      dup2\n      mstore\n        /* \"ICO/ICOProxy.sol\":9421:9439  contributionsInUSD */\n      0x0e\n        /* \"ICO/ICOProxy.sol\":9421:9451  contributionsInUSD[msg.sender] */\n      0x20\n      mstore\n      0x40\n      swap1\n      keccak256\n        /* \"ICO/ICOProxy.sol\":9421:9499  contributionsInUSD[msg.sender] =contributionsInUSD[msg.sender]+ totalCostInUSD */\n      sstore\n        /* \"ICO/ICOProxy.sol\":9531:9550  totalFundsRaisedUSD */\n      sload(0x07)\n        /* \"ICO/ICOProxy.sol\":9531:9566  totalFundsRaisedUSD+ totalCostInUSD */\n      tag_651\n      swap1\n        /* \"ICO/ICOProxy.sol\":9552:9566  totalCostInUSD */\n      dup3\n      swap1\n        /* \"ICO/ICOProxy.sol\":9531:9566  totalFundsRaisedUSD+ totalCostInUSD */\n      tag_413\n      jump\t// in\n    tag_651:\n        /* \"ICO/ICOProxy.sol\":9509:9528  totalFundsRaisedUSD */\n      0x07\n        /* \"ICO/ICOProxy.sol\":9509:9566  totalFundsRaisedUSD = totalFundsRaisedUSD+ totalCostInUSD */\n      sstore\n        /* \"ICO/ICOProxy.sol\":9582:9591  saleCount */\n      sload(0x06)\n        /* \"ICO/ICOProxy.sol\":9576:9592  sales[saleCount] */\n      0x00\n      swap1\n      dup2\n      mstore\n        /* \"ICO/ICOProxy.sol\":9576:9581  sales */\n      0x0d\n        /* \"ICO/ICOProxy.sol\":9576:9592  sales[saleCount] */\n      0x20\n      mstore\n      0x40\n      dup2\n      keccak256\n        /* \"ICO/ICOProxy.sol\":9576:9603  sales[saleCount].tokensSold */\n      0x03\n      add\n        /* \"ICO/ICOProxy.sol\":9576:9618  sales[saleCount].tokensSold += tokenAmount */\n      dup1\n      sload\n        /* \"ICO/ICOProxy.sol\":9607:9618  tokenAmount */\n      dup5\n      swap3\n        /* \"ICO/ICOProxy.sol\":9576:9592  sales[saleCount] */\n      swap1\n        /* \"ICO/ICOProxy.sol\":9576:9618  sales[saleCount].tokensSold += tokenAmount */\n      tag_652\n      swap1\n        /* \"ICO/ICOProxy.sol\":9607:9618  tokenAmount */\n      dup5\n      swap1\n        /* \"ICO/ICOProxy.sol\":9576:9618  sales[saleCount].tokensSold += tokenAmount */\n      tag_413\n      jump\t// in\n    tag_652:\n      swap1\n      swap2\n      sstore\n      pop\n      pop\n        /* \"ICO/ICOProxy.sol\":9646:9661  totalTokensSold */\n      sload(0x08)\n        /* \"ICO/ICOProxy.sol\":9646:9674  totalTokensSold+ tokenAmount */\n      tag_653\n      swap1\n        /* \"ICO/ICOProxy.sol\":9663:9674  tokenAmount */\n      dup4\n      swap1\n        /* \"ICO/ICOProxy.sol\":9646:9674  totalTokensSold+ tokenAmount */\n      tag_413\n      jump\t// in\n    tag_653:\n        /* \"ICO/ICOProxy.sol\":9628:9643  totalTokensSold */\n      0x08\n        /* \"ICO/ICOProxy.sol\":9628:9674  totalTokensSold = totalTokensSold+ tokenAmount */\n      sstore\n        /* \"ICO/ICOProxy.sol\":9712:9722  msg.sender */\n      caller\n        /* \"ICO/ICOProxy.sol\":9689:9723  tokensBoughtByInvestor[msg.sender] */\n      0x00\n      swap1\n      dup2\n      mstore\n        /* \"ICO/ICOProxy.sol\":9689:9711  tokensBoughtByInvestor */\n      0x0f\n        /* \"ICO/ICOProxy.sol\":9689:9723  tokensBoughtByInvestor[msg.sender] */\n      0x20\n      mstore\n      0x40\n      dup2\n      keccak256\n      sload\n        /* \"ICO/ICOProxy.sol\":9689:9728  tokensBoughtByInvestor[msg.sender] == 0 */\n      swap1\n      sub\n        /* \"ICO/ICOProxy.sol\":9685:9781  if (tokensBoughtByInvestor[msg.sender] == 0) {... */\n      tag_654\n      jumpi\n        /* \"ICO/ICOProxy.sol\":9744:9753  investors */\n      0x0a\n        /* \"ICO/ICOProxy.sol\":9744:9770  investors.push(msg.sender) */\n      dup1\n      sload\n      0x01\n      dup2\n      add\n      dup3\n      sstore\n      0x00\n      swap2\n      swap1\n      swap2\n      mstore\n      0xc65a7bb8d6351c1cf70c95a316cc6a92839c986682d98bc35f958f4883f9d2a8\n      add\n      dup1\n      sload\n      not(sub(shl(0xa0, 0x01), 0x01))\n      and\n        /* \"ICO/ICOProxy.sol\":9759:9769  msg.sender */\n      caller\n        /* \"ICO/ICOProxy.sol\":9744:9770  investors.push(msg.sender) */\n      or\n      swap1\n      sstore\n        /* \"ICO/ICOProxy.sol\":9685:9781  if (tokensBoughtByInvestor[msg.sender] == 0) {... */\n    tag_654:\n        /* \"ICO/ICOProxy.sol\":9849:9859  msg.sender */\n      caller\n        /* \"ICO/ICOProxy.sol\":9826:9860  tokensBoughtByInvestor[msg.sender] */\n      0x00\n      swap1\n      dup2\n      mstore\n        /* \"ICO/ICOProxy.sol\":9826:9848  tokensBoughtByInvestor */\n      0x0f\n        /* \"ICO/ICOProxy.sol\":9826:9860  tokensBoughtByInvestor[msg.sender] */\n      0x20\n      mstore\n      0x40\n      swap1\n      keccak256\n      sload\n        /* \"ICO/ICOProxy.sol\":9826:9873  tokensBoughtByInvestor[msg.sender]+ tokenAmount */\n      tag_656\n      swap1\n        /* \"ICO/ICOProxy.sol\":9862:9873  tokenAmount */\n      dup4\n      swap1\n        /* \"ICO/ICOProxy.sol\":9826:9873  tokensBoughtByInvestor[msg.sender]+ tokenAmount */\n      tag_413\n      jump\t// in\n    tag_656:\n        /* \"ICO/ICOProxy.sol\":9813:9823  msg.sender */\n      caller\n        /* \"ICO/ICOProxy.sol\":9790:9824  tokensBoughtByInvestor[msg.sender] */\n      0x00\n      swap1\n      dup2\n      mstore\n        /* \"ICO/ICOProxy.sol\":9790:9812  tokensBoughtByInvestor */\n      0x0f\n        /* \"ICO/ICOProxy.sol\":9790:9824  tokensBoughtByInvestor[msg.sender] */\n      0x20\n      swap1\n      dup2\n      mstore\n      0x40\n      dup1\n      dup4\n      keccak256\n        /* \"ICO/ICOProxy.sol\":9790:9873  tokensBoughtByInvestor[msg.sender] =tokensBoughtByInvestor[msg.sender]+ tokenAmount */\n      swap4\n      swap1\n      swap4\n      sstore\n        /* \"ICO/ICOProxy.sol\":9883:9907  paymentMethodForInvestor */\n      0x10\n        /* \"ICO/ICOProxy.sol\":9883:9919  paymentMethodForInvestor[msg.sender] */\n      swap1\n      mstore\n      keccak256\n        /* \"ICO/ICOProxy.sol\":9883:9935  paymentMethodForInvestor[msg.sender] = paymentMethod */\n      dup1\n      sload\n        /* \"ICO/ICOProxy.sol\":9922:9935  paymentMethod */\n      dup6\n      swap2\n        /* \"ICO/ICOProxy.sol\":9883:9919  paymentMethodForInvestor[msg.sender] */\n      swap1\n      not(0xff)\n        /* \"ICO/ICOProxy.sol\":9883:9935  paymentMethodForInvestor[msg.sender] = paymentMethod */\n      and\n      0x01\n        /* \"ICO/ICOProxy.sol\":9922:9935  paymentMethod */\n      dup4\n        /* \"ICO/ICOProxy.sol\":9883:9935  paymentMethodForInvestor[msg.sender] = paymentMethod */\n      0x02\n      dup2\n      gt\n      iszero\n      tag_658\n      jumpi\n      tag_658\n      tag_248\n      jump\t// in\n    tag_658:\n      mul\n      or\n      swap1\n      sstore\n      pop\n        /* \"ICO/ICOProxy.sol\":10004:10013  saleCount */\n      sload(0x06)\n        /* \"ICO/ICOProxy.sol\":10052:10068  sales[saleCount] */\n      0x00\n      dup2\n      dup2\n      mstore\n        /* \"ICO/ICOProxy.sol\":10052:10057  sales */\n      0x0d\n        /* \"ICO/ICOProxy.sol\":10052:10068  sales[saleCount] */\n      0x20\n      mstore\n      0x40\n      swap1\n      dup2\n      swap1\n      keccak256\n        /* \"ICO/ICOProxy.sol\":10052:10082  sales[saleCount].tokenPriceUSD */\n      0x02\n      add\n      sload\n        /* \"ICO/ICOProxy.sol\":9951:10146  TokensPurchased(... */\n      swap1\n      mload\n        /* \"ICO/ICOProxy.sol\":9980:9990  msg.sender */\n      caller\n      swap2\n        /* \"ICO/ICOProxy.sol\":9951:10146  TokensPurchased(... */\n      0xdbcef474a632721725d49e3f35d9defe0257100b01d1e4b4b135b14d6fe296e8\n      swap2\n      tag_659\n      swap2\n        /* \"ICO/ICOProxy.sol\":10027:10038  tokenAmount */\n      dup8\n      swap2\n        /* \"ICO/ICOProxy.sol\":10096:10109  paymentAmount */\n      dup10\n      swap1\n        /* \"ICO/ICOProxy.sol\":10123:10136  paymentMethod */\n      dup12\n      swap1\n        /* \"ICO/ICOProxy.sol\":9951:10146  TokensPurchased(... */\n      tag_660\n      jump\t// in\n    tag_659:\n      mload(0x40)\n      dup1\n      swap2\n      sub\n      swap1\n      log3\n        /* \"ICO/ICOProxy.sol\":7908:10153  {... */\n      pop\n      pop\n        /* \"@openzeppelin/contracts-upgradeable/utils/ReentrancyGuardUpgradeable.sol\":3437:3457  _nonReentrantAfter() */\n      tag_382\n        /* \"@openzeppelin/contracts-upgradeable/utils/ReentrancyGuardUpgradeable.sol\":1949:1950  1 */\n      0x01\n      mload(0x00)\n      codecopy(0x00, data_c8669cf8eaf883002b9f48e28846a8d408c9b58ea6613bace374265e43c9bc43, 0x20)\n      mload(0x00)\n      swap1\n      0x00\n      mstore\n        /* \"@openzeppelin/contracts-upgradeable/utils/ReentrancyGuardUpgradeable.sol\":4113:4136  $._status = NOT_ENTERED */\n      sstore\n        /* \"@openzeppelin/contracts-upgradeable/utils/ReentrancyGuardUpgradeable.sol\":3860:4143  function _nonReentrantAfter() private {... */\n      jump\n        /* \"ICO/ICOProxy.sol\":4557:4653  function precision_div_18(uint val) public pure returns(uint){... */\n    tag_169:\n        /* \"ICO/ICOProxy.sol\":4613:4617  uint */\n      0x00\n        /* \"ICO/ICOProxy.sol\":4636:4646  val / 1e18 */\n      tag_239\n        /* \"ICO/ICOProxy.sol\":4642:4646  1e18 */\n      0x0de0b6b3a7640000\n        /* \"ICO/ICOProxy.sol\":4636:4639  val */\n      dup4\n        /* \"ICO/ICOProxy.sol\":4636:4646  val / 1e18 */\n      tag_278\n      jump\t// in\n        /* \"ICO/ICOProxy.sol\":4253:4349  function precision_mul_10(uint val) public pure returns(uint){... */\n    tag_174:\n        /* \"ICO/ICOProxy.sol\":4309:4313  uint */\n      0x00\n        /* \"ICO/ICOProxy.sol\":4332:4342  val * 1e10 */\n      tag_239\n        /* \"ICO/ICOProxy.sol\":4332:4335  val */\n      dup3\n        /* \"ICO/ICOProxy.sol\":4338:4342  1e10 */\n      0x02540be400\n        /* \"ICO/ICOProxy.sol\":4332:4342  val * 1e10 */\n      tag_254\n      jump\t// in\n        /* \"ICO/ICOProxy.sol\":4456:4552  function precision_div_10(uint val) public pure returns(uint){... */\n    tag_188:\n        /* \"ICO/ICOProxy.sol\":4512:4516  uint */\n      0x00\n        /* \"ICO/ICOProxy.sol\":4535:4545  val / 1e10 */\n      tag_239\n        /* \"ICO/ICOProxy.sol\":4541:4545  1e10 */\n      0x02540be400\n        /* \"ICO/ICOProxy.sol\":4535:4538  val */\n      dup4\n        /* \"ICO/ICOProxy.sol\":4535:4545  val / 1e10 */\n      tag_278\n      jump\t// in\n        /* \"@openzeppelin/contracts-upgradeable/access/OwnableUpgradeable.sol\":3405:3620  function transferOwnership(address newOwner) public virtual onlyOwner {... */\n    tag_228:\n        /* \"@openzeppelin/contracts-upgradeable/access/OwnableUpgradeable.sol\":2334:2347  _checkOwner() */\n      tag_671\n        /* \"@openzeppelin/contracts-upgradeable/access/OwnableUpgradeable.sol\":2334:2345  _checkOwner */\n      tag_352\n        /* \"@openzeppelin/contracts-upgradeable/access/OwnableUpgradeable.sol\":2334:2347  _checkOwner() */\n      jump\t// in\n    tag_671:\n      sub(shl(0xa0, 0x01), 0x01)\n        /* \"@openzeppelin/contracts-upgradeable/access/OwnableUpgradeable.sol\":3489:3511  newOwner == address(0) */\n      dup2\n      and\n        /* \"@openzeppelin/contracts-upgradeable/access/OwnableUpgradeable.sol\":3485:3576  if (newOwner == address(0)) {... */\n      tag_673\n      jumpi\n        /* \"@openzeppelin/contracts-upgradeable/access/OwnableUpgradeable.sol\":3534:3565  OwnableInvalidOwner(address(0)) */\n      mload(0x40)\n      shl(0xe0, 0x1e4fbdf7)\n      dup2\n      mstore\n        /* \"@openzeppelin/contracts-upgradeable/access/OwnableUpgradeable.sol\":3562:3563  0 */\n      0x00\n        /* \"@openzeppelin/contracts-upgradeable/access/OwnableUpgradeable.sol\":3534:3565  OwnableInvalidOwner(address(0)) */\n      0x04\n      dup3\n      add\n        /* \"#utility.yul\":2019:2070   */\n      mstore\n        /* \"#utility.yul\":1992:2010   */\n      0x24\n      add\n        /* \"@openzeppelin/contracts-upgradeable/access/OwnableUpgradeable.sol\":3534:3565  OwnableInvalidOwner(address(0)) */\n      tag_53\n        /* \"#utility.yul\":1873:2076   */\n      jump\n        /* \"@openzeppelin/contracts-upgradeable/access/OwnableUpgradeable.sol\":3485:3576  if (newOwner == address(0)) {... */\n    tag_673:\n        /* \"@openzeppelin/contracts-upgradeable/access/OwnableUpgradeable.sol\":3585:3613  _transferOwnership(newOwner) */\n      tag_675\n        /* \"@openzeppelin/contracts-upgradeable/access/OwnableUpgradeable.sol\":3604:3612  newOwner */\n      dup2\n        /* \"@openzeppelin/contracts-upgradeable/access/OwnableUpgradeable.sol\":3585:3603  _transferOwnership */\n      tag_421\n        /* \"@openzeppelin/contracts-upgradeable/access/OwnableUpgradeable.sol\":3585:3613  _transferOwnership(newOwner) */\n      jump\t// in\n    tag_675:\n        /* \"@openzeppelin/contracts-upgradeable/access/OwnableUpgradeable.sol\":3405:3620  function transferOwnership(address newOwner) public virtual onlyOwner {... */\n      pop\n      jump\t// out\n        /* \"ICO/ICOProxy.sol\":2459:3139  function initialize(... */\n    tag_238:\n        /* \"@openzeppelin/contracts-upgradeable/proxy/utils/Initializable.sol\":8870:8891  INITIALIZABLE_STORAGE */\n      0xf0c57e16840df040f15088dc2f81fe391c3923bec73e23a9662efc9c229c6a00\n        /* \"@openzeppelin/contracts-upgradeable/proxy/utils/Initializable.sol\":4302:4317  $._initializing */\n      dup1\n      sload\n      shl(0x40, 0x01)\n      dup2\n      div\n      0xff\n      and\n        /* \"@openzeppelin/contracts-upgradeable/proxy/utils/Initializable.sol\":4301:4317  !$._initializing */\n      iszero\n      swap1\n        /* \"@openzeppelin/contracts-upgradeable/proxy/utils/Initializable.sol\":4348:4362  $._initialized */\n      0xffffffffffffffff\n      and\n        /* \"@openzeppelin/contracts-upgradeable/proxy/utils/Initializable.sol\":4158:4188  InitializableStorage storage $ */\n      0x00\n        /* \"@openzeppelin/contracts-upgradeable/proxy/utils/Initializable.sol\":4726:4742  initialized == 0 */\n      dup2\n      iszero\n        /* \"@openzeppelin/contracts-upgradeable/proxy/utils/Initializable.sol\":4726:4760  initialized == 0 && isTopLevelCall */\n      dup1\n      iszero\n      tag_679\n      jumpi\n      pop\n        /* \"@openzeppelin/contracts-upgradeable/proxy/utils/Initializable.sol\":4746:4760  isTopLevelCall */\n      dup3\n        /* \"@openzeppelin/contracts-upgradeable/proxy/utils/Initializable.sol\":4726:4760  initialized == 0 && isTopLevelCall */\n    tag_679:\n        /* \"@openzeppelin/contracts-upgradeable/proxy/utils/Initializable.sol\":4706:4760  bool initialSetup = initialized == 0 && isTopLevelCall */\n      swap1\n      pop\n        /* \"@openzeppelin/contracts-upgradeable/proxy/utils/Initializable.sol\":4770:4787  bool construction */\n      0x00\n        /* \"@openzeppelin/contracts-upgradeable/proxy/utils/Initializable.sol\":4790:4801  initialized */\n      dup3\n        /* \"@openzeppelin/contracts-upgradeable/proxy/utils/Initializable.sol\":4790:4806  initialized == 1 */\n      0xffffffffffffffff\n      and\n        /* \"@openzeppelin/contracts-upgradeable/proxy/utils/Initializable.sol\":4805:4806  1 */\n      0x01\n        /* \"@openzeppelin/contracts-upgradeable/proxy/utils/Initializable.sol\":4790:4806  initialized == 1 */\n      eq\n        /* \"@openzeppelin/contracts-upgradeable/proxy/utils/Initializable.sol\":4790:4840  initialized == 1 && address(this).code.length == 0 */\n      dup1\n      iszero\n      tag_680\n      jumpi\n      pop\n        /* \"@openzeppelin/contracts-upgradeable/proxy/utils/Initializable.sol\":4818:4822  this */\n      address\n        /* \"@openzeppelin/contracts-upgradeable/proxy/utils/Initializable.sol\":4810:4835  address(this).code.length */\n      extcodesize\n        /* \"@openzeppelin/contracts-upgradeable/proxy/utils/Initializable.sol\":4810:4840  address(this).code.length == 0 */\n      iszero\n        /* \"@openzeppelin/contracts-upgradeable/proxy/utils/Initializable.sol\":4790:4840  initialized == 1 && address(this).code.length == 0 */\n    tag_680:\n        /* \"@openzeppelin/contracts-upgradeable/proxy/utils/Initializable.sol\":4770:4840  bool construction = initialized == 1 && address(this).code.length == 0 */\n      swap1\n      pop\n        /* \"@openzeppelin/contracts-upgradeable/proxy/utils/Initializable.sol\":4856:4868  initialSetup */\n      dup2\n        /* \"@openzeppelin/contracts-upgradeable/proxy/utils/Initializable.sol\":4855:4868  !initialSetup */\n      iszero\n        /* \"@openzeppelin/contracts-upgradeable/proxy/utils/Initializable.sol\":4855:4885  !initialSetup && !construction */\n      dup1\n      iszero\n      tag_681\n      jumpi\n      pop\n        /* \"@openzeppelin/contracts-upgradeable/proxy/utils/Initializable.sol\":4873:4885  construction */\n      dup1\n        /* \"@openzeppelin/contracts-upgradeable/proxy/utils/Initializable.sol\":4872:4885  !construction */\n      iszero\n        /* \"@openzeppelin/contracts-upgradeable/proxy/utils/Initializable.sol\":4855:4885  !initialSetup && !construction */\n    tag_681:\n        /* \"@openzeppelin/contracts-upgradeable/proxy/utils/Initializable.sol\":4851:4942  if (!initialSetup && !construction) {... */\n      iszero\n      tag_682\n      jumpi\n        /* \"@openzeppelin/contracts-upgradeable/proxy/utils/Initializable.sol\":4908:4931  InvalidInitialization() */\n      mload(0x40)\n      shl(0xe0, 0xf92ee8a9)\n      dup2\n      mstore\n      0x04\n      add\n      mload(0x40)\n      dup1\n      swap2\n      sub\n      swap1\n      revert\n        /* \"@openzeppelin/contracts-upgradeable/proxy/utils/Initializable.sol\":4851:4942  if (!initialSetup && !construction) {... */\n    tag_682:\n        /* \"@openzeppelin/contracts-upgradeable/proxy/utils/Initializable.sol\":4951:4969  $._initialized = 1 */\n      dup5\n      sload\n      not(0xffffffffffffffff)\n      and\n        /* \"@openzeppelin/contracts-upgradeable/proxy/utils/Initializable.sol\":4968:4969  1 */\n      0x01\n        /* \"@openzeppelin/contracts-upgradeable/proxy/utils/Initializable.sol\":4951:4969  $._initialized = 1 */\n      or\n      dup6\n      sstore\n        /* \"@openzeppelin/contracts-upgradeable/proxy/utils/Initializable.sol\":4979:5046  if (isTopLevelCall) {... */\n      dup4\n      iszero\n      tag_683\n      jumpi\n        /* \"@openzeppelin/contracts-upgradeable/proxy/utils/Initializable.sol\":5013:5035  $._initializing = true */\n      dup5\n      sload\n      not(shl(0x40, 0xff))\n      and\n      shl(0x40, 0x01)\n      or\n      dup6\n      sstore\n        /* \"@openzeppelin/contracts-upgradeable/proxy/utils/Initializable.sol\":4979:5046  if (isTopLevelCall) {... */\n    tag_683:\n        /* \"ICO/ICOProxy.sol\":2740:2766  __Ownable_init(msg.sender) */\n      tag_685\n        /* \"ICO/ICOProxy.sol\":2755:2765  msg.sender */\n      caller\n        /* \"ICO/ICOProxy.sol\":2740:2754  __Ownable_init */\n      tag_686\n        /* \"ICO/ICOProxy.sol\":2740:2766  __Ownable_init(msg.sender) */\n      jump\t// in\n    tag_685:\n        /* \"ICO/ICOProxy.sol\":2776:2800  __UUPSUpgradeable_init() */\n      tag_687\n        /* \"ICO/ICOProxy.sol\":2776:2798  __UUPSUpgradeable_init */\n      tag_688\n        /* \"ICO/ICOProxy.sol\":2776:2800  __UUPSUpgradeable_init() */\n      jump\t// in\n    tag_687:\n        /* \"ICO/ICOProxy.sol\":2819:2825  _token */\n      dup13\n        /* \"ICO/ICOProxy.sol\":2811:2816  token */\n      0x03\n      0x00\n        /* \"ICO/ICOProxy.sol\":2811:2825  token = _token */\n      0x0100\n      exp\n      dup2\n      sload\n      dup2\n      sub(shl(0xa0, 0x01), 0x01)\n      mul\n      not\n      and\n      swap1\n      dup4\n      sub(shl(0xa0, 0x01), 0x01)\n      and\n      mul\n      or\n      swap1\n      sstore\n      pop\n        /* \"ICO/ICOProxy.sol\":2850:2863  _softCapInUSD */\n      dup10\n        /* \"ICO/ICOProxy.sol\":2835:2847  softCapInUSD */\n      0x04\n        /* \"ICO/ICOProxy.sol\":2835:2863  softCapInUSD = _softCapInUSD */\n      dup2\n      swap1\n      sstore\n      pop\n        /* \"ICO/ICOProxy.sol\":2888:2901  _hardCapInUSD */\n      dup9\n        /* \"ICO/ICOProxy.sol\":2873:2885  hardCapInUSD */\n      0x05\n        /* \"ICO/ICOProxy.sol\":2873:2901  hardCapInUSD = _hardCapInUSD */\n      dup2\n      swap1\n      sstore\n      pop\n        /* \"ICO/ICOProxy.sol\":2918:2923  _usdt */\n      dup12\n        /* \"ICO/ICOProxy.sol\":2911:2915  usdt */\n      0x0b\n      0x00\n        /* \"ICO/ICOProxy.sol\":2911:2923  usdt = _usdt */\n      0x0100\n      exp\n      dup2\n      sload\n      dup2\n      sub(shl(0xa0, 0x01), 0x01)\n      mul\n      not\n      and\n      swap1\n      dup4\n      sub(shl(0xa0, 0x01), 0x01)\n      and\n      mul\n      or\n      swap1\n      sstore\n      pop\n        /* \"ICO/ICOProxy.sol\":2940:2945  _usdc */\n      dup11\n        /* \"ICO/ICOProxy.sol\":2933:2937  usdc */\n      0x0c\n      0x00\n        /* \"ICO/ICOProxy.sol\":2933:2945  usdc = _usdc */\n      0x0100\n      exp\n      dup2\n      sload\n      dup2\n      sub(shl(0xa0, 0x01), 0x01)\n      mul\n      not\n      and\n      swap1\n      dup4\n      sub(shl(0xa0, 0x01), 0x01)\n      and\n      mul\n      or\n      swap1\n      sstore\n      pop\n        /* \"ICO/ICOProxy.sol\":2992:3005  _priceFeedBNB */\n      dup8\n        /* \"ICO/ICOProxy.sol\":2955:2967  priceFeedBNB */\n      0x00\n      0x00\n        /* \"ICO/ICOProxy.sol\":2955:3006  priceFeedBNB = AggregatorV3Interface(_priceFeedBNB) */\n      0x0100\n      exp\n      dup2\n      sload\n      dup2\n      sub(shl(0xa0, 0x01), 0x01)\n      mul\n      not\n      and\n      swap1\n      dup4\n      sub(shl(0xa0, 0x01), 0x01)\n      and\n      mul\n      or\n      swap1\n      sstore\n      pop\n        /* \"ICO/ICOProxy.sol\":3054:3068  _priceFeedUSDT */\n      dup7\n        /* \"ICO/ICOProxy.sol\":3016:3029  priceFeedUSDT */\n      0x01\n      0x00\n        /* \"ICO/ICOProxy.sol\":3016:3069  priceFeedUSDT = AggregatorV3Interface(_priceFeedUSDT) */\n      0x0100\n      exp\n      dup2\n      sload\n      dup2\n      sub(shl(0xa0, 0x01), 0x01)\n      mul\n      not\n      and\n      swap1\n      dup4\n      sub(shl(0xa0, 0x01), 0x01)\n      and\n      mul\n      or\n      swap1\n      sstore\n      pop\n        /* \"ICO/ICOProxy.sol\":3117:3131  _priceFeedUSDC */\n      dup6\n        /* \"ICO/ICOProxy.sol\":3079:3092  priceFeedUSDC */\n      0x02\n      0x00\n        /* \"ICO/ICOProxy.sol\":3079:3132  priceFeedUSDC = AggregatorV3Interface(_priceFeedUSDC) */\n      0x0100\n      exp\n      dup2\n      sload\n      dup2\n      sub(shl(0xa0, 0x01), 0x01)\n      mul\n      not\n      and\n      swap1\n      dup4\n      sub(shl(0xa0, 0x01), 0x01)\n      and\n      mul\n      or\n      swap1\n      sstore\n      pop\n        /* \"@openzeppelin/contracts-upgradeable/proxy/utils/Initializable.sol\":5070:5084  isTopLevelCall */\n      dup4\n        /* \"@openzeppelin/contracts-upgradeable/proxy/utils/Initializable.sol\":5066:5167  if (isTopLevelCall) {... */\n      iszero\n      tag_689\n      jumpi\n        /* \"@openzeppelin/contracts-upgradeable/proxy/utils/Initializable.sol\":5100:5123  $._initializing = false */\n      dup5\n      sload\n      not(shl(0x40, 0xff))\n      and\n      dup6\n      sstore\n        /* \"@openzeppelin/contracts-upgradeable/proxy/utils/Initializable.sol\":5142:5156  Initialized(1) */\n      mload(0x40)\n      0x01\n        /* \"#utility.yul\":21976:22026   */\n      dup2\n      mstore\n        /* \"@openzeppelin/contracts-upgradeable/proxy/utils/Initializable.sol\":5142:5156  Initialized(1) */\n      0xc7f505b2f371ae2175ee4913f4499e1f2633a7b5936321eed1cdaeb6115181d2\n      swap1\n        /* \"#utility.yul\":21964:21966   */\n      0x20\n        /* \"#utility.yul\":21949:21967   */\n      add\n        /* \"@openzeppelin/contracts-upgradeable/proxy/utils/Initializable.sol\":5142:5156  Initialized(1) */\n      mload(0x40)\n      dup1\n      swap2\n      sub\n      swap1\n      log1\n        /* \"@openzeppelin/contracts-upgradeable/proxy/utils/Initializable.sol\":5066:5167  if (isTopLevelCall) {... */\n    tag_689:\n        /* \"@openzeppelin/contracts-upgradeable/proxy/utils/Initializable.sol\":4092:5173  {... */\n      pop\n      pop\n      pop\n      pop\n      pop\n        /* \"ICO/ICOProxy.sol\":2459:3139  function initialize(... */\n      pop\n      pop\n      pop\n      pop\n      pop\n      pop\n      pop\n      pop\n      jump\t// out\n        /* \"@openzeppelin/contracts-upgradeable/utils/ReentrancyGuardUpgradeable.sol\":3470:3854  function _nonReentrantBefore() private {... */\n    tag_349:\n      mload(0x00)\n      codecopy(0x00, data_c8669cf8eaf883002b9f48e28846a8d408c9b58ea6613bace374265e43c9bc43, 0x20)\n      mload(0x00)\n      swap1\n      0x00\n      mstore\n        /* \"@openzeppelin/contracts-upgradeable/utils/ReentrancyGuardUpgradeable.sol\":3670:3679  $._status */\n      dup1\n      sload\n      not(0x01)\n        /* \"@openzeppelin/contracts-upgradeable/utils/ReentrancyGuardUpgradeable.sol\":3670:3690  $._status == ENTERED */\n      add\n        /* \"@openzeppelin/contracts-upgradeable/utils/ReentrancyGuardUpgradeable.sol\":3666:3754  if ($._status == ENTERED) {... */\n      tag_695\n      jumpi\n        /* \"@openzeppelin/contracts-upgradeable/utils/ReentrancyGuardUpgradeable.sol\":3713:3743  ReentrancyGuardReentrantCall() */\n      mload(0x40)\n      shl(0xe0, 0x3ee5aeb5)\n      dup2\n      mstore\n      0x04\n      add\n      mload(0x40)\n      dup1\n      swap2\n      sub\n      swap1\n      revert\n        /* \"@openzeppelin/contracts-upgradeable/utils/ReentrancyGuardUpgradeable.sol\":3666:3754  if ($._status == ENTERED) {... */\n    tag_695:\n        /* \"@openzeppelin/contracts-upgradeable/utils/ReentrancyGuardUpgradeable.sol\":1991:1992  2 */\n      0x02\n        /* \"@openzeppelin/contracts-upgradeable/utils/ReentrancyGuardUpgradeable.sol\":3828:3847  $._status = ENTERED */\n      swap1\n      sstore\n        /* \"@openzeppelin/contracts-upgradeable/utils/ReentrancyGuardUpgradeable.sol\":3470:3854  function _nonReentrantBefore() private {... */\n      jump\t// out\n        /* \"@openzeppelin/contracts-upgradeable/access/OwnableUpgradeable.sol\":2658:2820  function _checkOwner() internal view virtual {... */\n    tag_352:\n        /* \"@openzeppelin/contracts-upgradeable/utils/ContextUpgradeable.sol\":966:976  msg.sender */\n      caller\n        /* \"@openzeppelin/contracts-upgradeable/access/OwnableUpgradeable.sol\":2717:2724  owner() */\n      tag_699\n        /* \"@openzeppelin/contracts-upgradeable/access/OwnableUpgradeable.sol\":2717:2722  owner */\n      tag_150\n        /* \"@openzeppelin/contracts-upgradeable/access/OwnableUpgradeable.sol\":2717:2724  owner() */\n      jump\t// in\n    tag_699:\n      sub(shl(0xa0, 0x01), 0x01)\n        /* \"@openzeppelin/contracts-upgradeable/access/OwnableUpgradeable.sol\":2717:2740  owner() != _msgSender() */\n      and\n      eq\n        /* \"@openzeppelin/contracts-upgradeable/access/OwnableUpgradeable.sol\":2713:2814  if (owner() != _msgSender()) {... */\n      tag_370\n      jumpi\n        /* \"@openzeppelin/contracts-upgradeable/access/OwnableUpgradeable.sol\":2763:2803  OwnableUnauthorizedAccount(_msgSender()) */\n      mload(0x40)\n      shl(0xe0, 0x118cdaa7)\n      dup2\n      mstore\n        /* \"@openzeppelin/contracts-upgradeable/utils/ContextUpgradeable.sol\":966:976  msg.sender */\n      caller\n        /* \"@openzeppelin/contracts-upgradeable/access/OwnableUpgradeable.sol\":2763:2803  OwnableUnauthorizedAccount(_msgSender()) */\n      0x04\n      dup3\n      add\n        /* \"#utility.yul\":2019:2070   */\n      mstore\n        /* \"#utility.yul\":1992:2010   */\n      0x24\n      add\n        /* \"@openzeppelin/contracts-upgradeable/access/OwnableUpgradeable.sol\":2763:2803  OwnableUnauthorizedAccount(_msgSender()) */\n      tag_53\n        /* \"#utility.yul\":1873:2076   */\n      jump\n        /* \"ICO/ICOProxy.sol\":10576:11356  function _transferFundsToOwner() private{... */\n    tag_369:\n        /* \"ICO/ICOProxy.sol\":10649:10653  this */\n      address\n        /* \"ICO/ICOProxy.sol\":10688:10700  self.balance */\n      dup1\n      balance\n        /* \"ICO/ICOProxy.sol\":10714:10732  nativeBalance != 0 */\n      dup1\n      iszero\n        /* \"ICO/ICOProxy.sol\":10710:10874  if (nativeBalance != 0) {... */\n      tag_704\n      jumpi\n        /* \"ICO/ICOProxy.sol\":10749:10761  bool success */\n      0x00\n        /* \"ICO/ICOProxy.sol\":10775:10782  owner() */\n      tag_705\n        /* \"ICO/ICOProxy.sol\":10775:10780  owner */\n      tag_150\n        /* \"ICO/ICOProxy.sol\":10775:10782  owner() */\n      jump\t// in\n    tag_705:\n      sub(shl(0xa0, 0x01), 0x01)\n        /* \"ICO/ICOProxy.sol\":10767:10788  payable(owner()).call */\n      and\n        /* \"ICO/ICOProxy.sol\":10796:10809  nativeBalance */\n      dup3\n        /* \"ICO/ICOProxy.sol\":10767:10814  payable(owner()).call{value: nativeBalance}(\"\") */\n      mload(0x40)\n      0x00\n      mload(0x40)\n      dup1\n      dup4\n      sub\n      dup2\n      dup6\n      dup8\n      gas\n      call\n      swap3\n      pop\n      pop\n      pop\n      returndatasize\n      dup1\n      0x00\n      dup2\n      eq\n      tag_709\n      jumpi\n      mload(0x40)\n      swap2\n      pop\n      and(add(returndatasize, 0x3f), not(0x1f))\n      dup3\n      add\n      0x40\n      mstore\n      returndatasize\n      dup3\n      mstore\n      returndatasize\n      0x00\n      0x20\n      dup5\n      add\n      returndatacopy\n      jump(tag_708)\n    tag_709:\n      0x60\n      swap2\n      pop\n    tag_708:\n      pop\n        /* \"ICO/ICOProxy.sol\":10748:10814  (bool success, ) = payable(owner()).call{value: nativeBalance}(\"\") */\n      pop\n      swap1\n      pop\n        /* \"ICO/ICOProxy.sol\":10836:10843  success */\n      dup1\n        /* \"ICO/ICOProxy.sol\":10828:10863  require(success, \"Transfer failed\") */\n      tag_710\n      jumpi\n      mload(0x40)\n      shl(0xe5, 0x461bcd)\n      dup2\n      mstore\n        /* \"#utility.yul\":22239:22241   */\n      0x20\n        /* \"ICO/ICOProxy.sol\":10828:10863  require(success, \"Transfer failed\") */\n      0x04\n      dup3\n      add\n        /* \"#utility.yul\":22221:22242   */\n      mstore\n        /* \"#utility.yul\":22278:22280   */\n      0x0f\n        /* \"#utility.yul\":22258:22276   */\n      0x24\n      dup3\n      add\n        /* \"#utility.yul\":22251:22281   */\n      mstore\n      shl(0x8a, 0x151c985b9cd9995c8819985a5b1959)\n        /* \"#utility.yul\":22297:22315   */\n      0x44\n      dup3\n      add\n        /* \"#utility.yul\":22290:22335   */\n      mstore\n        /* \"#utility.yul\":22352:22370   */\n      0x64\n      add\n        /* \"ICO/ICOProxy.sol\":10828:10863  require(success, \"Transfer failed\") */\n      tag_53\n        /* \"#utility.yul\":22037:22376   */\n      jump\n        /* \"ICO/ICOProxy.sol\":10828:10863  require(success, \"Transfer failed\") */\n    tag_710:\n        /* \"ICO/ICOProxy.sol\":10734:10874  {... */\n      pop\n        /* \"ICO/ICOProxy.sol\":10710:10874  if (nativeBalance != 0) {... */\n    tag_704:\n        /* \"ICO/ICOProxy.sol\":10912:10916  usdt */\n      sload(0x0b)\n        /* \"ICO/ICOProxy.sol\":10905:10933  IERC20(usdt).balanceOf(self) */\n      mload(0x40)\n      shl(0xe0, 0x70a08231)\n      dup2\n      mstore\n      sub(shl(0xa0, 0x01), 0x01)\n        /* \"#utility.yul\":2037:2069   */\n      dup5\n      dup2\n      and\n        /* \"ICO/ICOProxy.sol\":10905:10933  IERC20(usdt).balanceOf(self) */\n      0x04\n      dup4\n      add\n        /* \"#utility.yul\":2019:2070   */\n      mstore\n        /* \"ICO/ICOProxy.sol\":10883:10902  uint256 usdtBalance */\n      0x00\n      swap3\n        /* \"ICO/ICOProxy.sol\":10912:10916  usdt */\n      and\n      swap1\n        /* \"ICO/ICOProxy.sol\":10905:10927  IERC20(usdt).balanceOf */\n      0x70a08231\n      swap1\n        /* \"#utility.yul\":1992:2010   */\n      0x24\n      add\n        /* \"ICO/ICOProxy.sol\":10905:10933  IERC20(usdt).balanceOf(self) */\n      0x20\n      mload(0x40)\n      dup1\n      dup4\n      sub\n      dup2\n      dup7\n      gas\n      staticcall\n      iszero\n      dup1\n      iszero\n      tag_715\n      jumpi\n      returndatacopy(0x00, 0x00, returndatasize)\n      revert(0x00, returndatasize)\n    tag_715:\n      pop\n      pop\n      pop\n      pop\n      mload(0x40)\n      returndatasize\n      not(0x1f)\n      0x1f\n      dup3\n      add\n      and\n      dup3\n      add\n      dup1\n      0x40\n      mstore\n      pop\n      dup2\n      add\n      swap1\n      tag_716\n      swap2\n      swap1\n      tag_539\n      jump\t// in\n    tag_716:\n        /* \"ICO/ICOProxy.sol\":10883:10933  uint256 usdtBalance = IERC20(usdt).balanceOf(self) */\n      swap1\n      pop\n        /* \"ICO/ICOProxy.sol\":10947:10963  usdtBalance != 0 */\n      dup1\n      iszero\n        /* \"ICO/ICOProxy.sol\":10943:11112  if (usdtBalance != 0) {... */\n      tag_723\n      jumpi\n        /* \"ICO/ICOProxy.sol\":11011:11015  usdt */\n      and(sub(shl(0xa0, 0x01), 0x01), sload(0x0b))\n        /* \"ICO/ICOProxy.sol\":11004:11025  IERC20(usdt).transfer */\n      0xa9059cbb\n        /* \"ICO/ICOProxy.sol\":11026:11033  owner() */\n      tag_718\n        /* \"ICO/ICOProxy.sol\":11026:11031  owner */\n      tag_150\n        /* \"ICO/ICOProxy.sol\":11026:11033  owner() */\n      jump\t// in\n    tag_718:\n        /* \"ICO/ICOProxy.sol\":11004:11047  IERC20(usdt).transfer(owner(), usdtBalance) */\n      mload(0x40)\n      not(sub(shl(0xe0, 0x01), 0x01))\n      0xe0\n      dup5\n      swap1\n      shl\n      and\n      dup2\n      mstore\n      sub(shl(0xa0, 0x01), 0x01)\n        /* \"#utility.yul\":15407:15439   */\n      swap1\n      swap2\n      and\n        /* \"ICO/ICOProxy.sol\":11004:11047  IERC20(usdt).transfer(owner(), usdtBalance) */\n      0x04\n      dup3\n      add\n        /* \"#utility.yul\":15389:15440   */\n      mstore\n        /* \"#utility.yul\":15456:15474   */\n      0x24\n      dup2\n      add\n        /* \"#utility.yul\":15449:15483   */\n      dup5\n      swap1\n      mstore\n        /* \"#utility.yul\":15362:15380   */\n      0x44\n      add\n        /* \"ICO/ICOProxy.sol\":11004:11047  IERC20(usdt).transfer(owner(), usdtBalance) */\n      0x20\n      mload(0x40)\n      dup1\n      dup4\n      sub\n      dup2\n      0x00\n      dup8\n      gas\n      call\n      iszero\n      dup1\n      iszero\n      tag_721\n      jumpi\n      returndatacopy(0x00, 0x00, returndatasize)\n      revert(0x00, returndatasize)\n    tag_721:\n      pop\n      pop\n      pop\n      pop\n      mload(0x40)\n      returndatasize\n      not(0x1f)\n      0x1f\n      dup3\n      add\n      and\n      dup3\n      add\n      dup1\n      0x40\n      mstore\n      pop\n      dup2\n      add\n      swap1\n      tag_722\n      swap2\n      swap1\n      tag_503\n      jump\t// in\n    tag_722:\n        /* \"ICO/ICOProxy.sol\":10979:11101  require(... */\n      tag_723\n      jumpi\n      mload(0x40)\n      shl(0xe5, 0x461bcd)\n      dup2\n      mstore\n        /* \"#utility.yul\":22583:22585   */\n      0x20\n        /* \"ICO/ICOProxy.sol\":10979:11101  require(... */\n      0x04\n      dup3\n      add\n        /* \"#utility.yul\":22565:22586   */\n      mstore\n        /* \"#utility.yul\":22622:22624   */\n      0x14\n        /* \"#utility.yul\":22602:22620   */\n      0x24\n      dup3\n      add\n        /* \"#utility.yul\":22595:22625   */\n      mstore\n      shl(0x62, 0x1554d115081d1c985b9cd9995c8819985a5b1959)\n        /* \"#utility.yul\":22641:22659   */\n      0x44\n      dup3\n      add\n        /* \"#utility.yul\":22634:22684   */\n      mstore\n        /* \"#utility.yul\":22701:22719   */\n      0x64\n      add\n        /* \"ICO/ICOProxy.sol\":10979:11101  require(... */\n      tag_53\n        /* \"#utility.yul\":22381:22725   */\n      jump\n        /* \"ICO/ICOProxy.sol\":10979:11101  require(... */\n    tag_723:\n        /* \"ICO/ICOProxy.sol\":11150:11154  usdc */\n      sload(0x0c)\n        /* \"ICO/ICOProxy.sol\":11143:11171  IERC20(usdc).balanceOf(self) */\n      mload(0x40)\n      shl(0xe0, 0x70a08231)\n      dup2\n      mstore\n      sub(shl(0xa0, 0x01), 0x01)\n        /* \"#utility.yul\":2037:2069   */\n      dup6\n      dup2\n      and\n        /* \"ICO/ICOProxy.sol\":11143:11171  IERC20(usdc).balanceOf(self) */\n      0x04\n      dup4\n      add\n        /* \"#utility.yul\":2019:2070   */\n      mstore\n        /* \"ICO/ICOProxy.sol\":11121:11140  uint256 usdcBalance */\n      0x00\n      swap3\n        /* \"ICO/ICOProxy.sol\":11150:11154  usdc */\n      and\n      swap1\n        /* \"ICO/ICOProxy.sol\":11143:11165  IERC20(usdc).balanceOf */\n      0x70a08231\n      swap1\n        /* \"#utility.yul\":1992:2010   */\n      0x24\n      add\n        /* \"ICO/ICOProxy.sol\":11143:11171  IERC20(usdc).balanceOf(self) */\n      0x20\n      mload(0x40)\n      dup1\n      dup4\n      sub\n      dup2\n      dup7\n      gas\n      staticcall\n      iszero\n      dup1\n      iszero\n      tag_728\n      jumpi\n      returndatacopy(0x00, 0x00, returndatasize)\n      revert(0x00, returndatasize)\n    tag_728:\n      pop\n      pop\n      pop\n      pop\n      mload(0x40)\n      returndatasize\n      not(0x1f)\n      0x1f\n      dup3\n      add\n      and\n      dup3\n      add\n      dup1\n      0x40\n      mstore\n      pop\n      dup2\n      add\n      swap1\n      tag_729\n      swap2\n      swap1\n      tag_539\n      jump\t// in\n    tag_729:\n        /* \"ICO/ICOProxy.sol\":11121:11171  uint256 usdcBalance = IERC20(usdc).balanceOf(self) */\n      swap1\n      pop\n        /* \"ICO/ICOProxy.sol\":11185:11201  usdcBalance != 0 */\n      dup1\n      iszero\n        /* \"ICO/ICOProxy.sol\":11181:11350  if (usdcBalance != 0) {... */\n      tag_736\n      jumpi\n        /* \"ICO/ICOProxy.sol\":11249:11253  usdc */\n      and(sub(shl(0xa0, 0x01), 0x01), sload(0x0c))\n        /* \"ICO/ICOProxy.sol\":11242:11263  IERC20(usdc).transfer */\n      0xa9059cbb\n        /* \"ICO/ICOProxy.sol\":11264:11271  owner() */\n      tag_731\n        /* \"ICO/ICOProxy.sol\":11264:11269  owner */\n      tag_150\n        /* \"ICO/ICOProxy.sol\":11264:11271  owner() */\n      jump\t// in\n    tag_731:\n        /* \"ICO/ICOProxy.sol\":11242:11285  IERC20(usdc).transfer(owner(), usdcBalance) */\n      mload(0x40)\n      not(sub(shl(0xe0, 0x01), 0x01))\n      0xe0\n      dup5\n      swap1\n      shl\n      and\n      dup2\n      mstore\n      sub(shl(0xa0, 0x01), 0x01)\n        /* \"#utility.yul\":15407:15439   */\n      swap1\n      swap2\n      and\n        /* \"ICO/ICOProxy.sol\":11242:11285  IERC20(usdc).transfer(owner(), usdcBalance) */\n      0x04\n      dup3\n      add\n        /* \"#utility.yul\":15389:15440   */\n      mstore\n        /* \"#utility.yul\":15456:15474   */\n      0x24\n      dup2\n      add\n        /* \"#utility.yul\":15449:15483   */\n      dup5\n      swap1\n      mstore\n        /* \"#utility.yul\":15362:15380   */\n      0x44\n      add\n        /* \"ICO/ICOProxy.sol\":11242:11285  IERC20(usdc).transfer(owner(), usdcBalance) */\n      0x20\n      mload(0x40)\n      dup1\n      dup4\n      sub\n      dup2\n      0x00\n      dup8\n      gas\n      call\n      iszero\n      dup1\n      iszero\n      tag_734\n      jumpi\n      returndatacopy(0x00, 0x00, returndatasize)\n      revert(0x00, returndatasize)\n    tag_734:\n      pop\n      pop\n      pop\n      pop\n      mload(0x40)\n      returndatasize\n      not(0x1f)\n      0x1f\n      dup3\n      add\n      and\n      dup3\n      add\n      dup1\n      0x40\n      mstore\n      pop\n      dup2\n      add\n      swap1\n      tag_735\n      swap2\n      swap1\n      tag_503\n      jump\t// in\n    tag_735:\n        /* \"ICO/ICOProxy.sol\":11217:11339  require(... */\n      tag_736\n      jumpi\n      mload(0x40)\n      shl(0xe5, 0x461bcd)\n      dup2\n      mstore\n        /* \"#utility.yul\":22932:22934   */\n      0x20\n        /* \"ICO/ICOProxy.sol\":11217:11339  require(... */\n      0x04\n      dup3\n      add\n        /* \"#utility.yul\":22914:22935   */\n      mstore\n        /* \"#utility.yul\":22971:22973   */\n      0x14\n        /* \"#utility.yul\":22951:22969   */\n      0x24\n      dup3\n      add\n        /* \"#utility.yul\":22944:22974   */\n      mstore\n      shl(0x62, 0x1554d110c81d1c985b9cd9995c8819985a5b1959)\n        /* \"#utility.yul\":22990:23008   */\n      0x44\n      dup3\n      add\n        /* \"#utility.yul\":22983:23033   */\n      mstore\n        /* \"#utility.yul\":23050:23068   */\n      0x64\n      add\n        /* \"ICO/ICOProxy.sol\":11217:11339  require(... */\n      tag_53\n        /* \"#utility.yul\":22730:23074   */\n      jump\n        /* \"ICO/ICOProxy.sol\":11217:11339  require(... */\n    tag_736:\n        /* \"ICO/ICOProxy.sol\":10616:11356  {... */\n      pop\n      pop\n      pop\n      pop\n        /* \"ICO/ICOProxy.sol\":10576:11356  function _transferFundsToOwner() private{... */\n      jump\t// out\n        /* \"@openzeppelin/contracts-upgradeable/proxy/utils/UUPSUpgradeable.sol\":4603:4915  function _checkProxy() internal view virtual {... */\n    tag_378:\n        /* \"@openzeppelin/contracts-upgradeable/proxy/utils/UUPSUpgradeable.sol\":4683:4687  this */\n      address\n      sub(shl(0xa0, 0x01), 0x01)\n        /* \"@openzeppelin/contracts-upgradeable/proxy/utils/UUPSUpgradeable.sol\":4692:4698  __self */\n      immutable(\"0xca4b0db001bf2677ca5ac885bd7766c7c4b4b5d0170066d4830e0728bf019f64\")\n        /* \"@openzeppelin/contracts-upgradeable/proxy/utils/UUPSUpgradeable.sol\":4675:4698  address(this) == __self */\n      and\n      eq\n      dup1\n        /* \"@openzeppelin/contracts-upgradeable/proxy/utils/UUPSUpgradeable.sol\":4675:4795  address(this) == __self || // Must be called through delegatecall... */\n      tag_742\n      jumpi\n      pop\n        /* \"@openzeppelin/contracts-upgradeable/proxy/utils/UUPSUpgradeable.sol\":4789:4795  __self */\n      immutable(\"0xca4b0db001bf2677ca5ac885bd7766c7c4b4b5d0170066d4830e0728bf019f64\")\n      sub(shl(0xa0, 0x01), 0x01)\n        /* \"@openzeppelin/contracts-upgradeable/proxy/utils/UUPSUpgradeable.sol\":4753:4795  ERC1967Utils.getImplementation() != __self */\n      and\n        /* \"@openzeppelin/contracts-upgradeable/proxy/utils/UUPSUpgradeable.sol\":4753:4785  ERC1967Utils.getImplementation() */\n      tag_743\n      mload(0x00)\n      codecopy(0x00, data_75b20eef8615de99c108b05f0dbda081c91897128caa336d75dffb97c4132b4d, 0x20)\n      mload(0x00)\n      swap1\n      0x00\n      mstore\n        /* \"@openzeppelin/contracts/proxy/ERC1967/ERC1967Utils.sol\":1519:1572  StorageSlot.getAddressSlot(IMPLEMENTATION_SLOT).value */\n      sload\n      sub(shl(0xa0, 0x01), 0x01)\n      and\n      swap1\n        /* \"@openzeppelin/contracts/proxy/ERC1967/ERC1967Utils.sol\":1441:1579  function getImplementation() internal view returns (address) {... */\n      jump\n        /* \"@openzeppelin/contracts-upgradeable/proxy/utils/UUPSUpgradeable.sol\":4753:4785  ERC1967Utils.getImplementation() */\n    tag_743:\n      sub(shl(0xa0, 0x01), 0x01)\n        /* \"@openzeppelin/contracts-upgradeable/proxy/utils/UUPSUpgradeable.sol\":4753:4795  ERC1967Utils.getImplementation() != __self */\n      and\n      eq\n      iszero\n        /* \"@openzeppelin/contracts-upgradeable/proxy/utils/UUPSUpgradeable.sol\":4675:4795  address(this) == __self || // Must be called through delegatecall... */\n    tag_742:\n        /* \"@openzeppelin/contracts-upgradeable/proxy/utils/UUPSUpgradeable.sol\":4658:4909  if (... */\n      iszero\n      tag_370\n      jumpi\n        /* \"@openzeppelin/contracts-upgradeable/proxy/utils/UUPSUpgradeable.sol\":4869:4898  UUPSUnauthorizedCallContext() */\n      mload(0x40)\n      shl(0xe1, 0x703e46dd)\n      dup2\n      mstore\n      0x04\n      add\n      mload(0x40)\n      dup1\n      swap2\n      sub\n      swap1\n      revert\n        /* \"ICO/ICOProxy.sol\":15668:15752  function _authorizeUpgrade(address newImplementation) internal override onlyOwner {} */\n    tag_381:\n        /* \"@openzeppelin/contracts-upgradeable/access/OwnableUpgradeable.sol\":2334:2347  _checkOwner() */\n      tag_675\n        /* \"@openzeppelin/contracts-upgradeable/access/OwnableUpgradeable.sol\":2334:2345  _checkOwner */\n      tag_352\n        /* \"@openzeppelin/contracts-upgradeable/access/OwnableUpgradeable.sol\":2334:2347  _checkOwner() */\n      jump\t// in\n        /* \"@openzeppelin/contracts-upgradeable/proxy/utils/UUPSUpgradeable.sol\":6057:6595  function _upgradeToAndCallUUPS(address newImplementation, bytes memory data) private {... */\n    tag_383:\n        /* \"@openzeppelin/contracts-upgradeable/proxy/utils/UUPSUpgradeable.sol\":6174:6191  newImplementation */\n      dup2\n      sub(shl(0xa0, 0x01), 0x01)\n        /* \"@openzeppelin/contracts-upgradeable/proxy/utils/UUPSUpgradeable.sol\":6156:6206  IERC1822Proxiable(newImplementation).proxiableUUID */\n      and\n      0x52d1902d\n        /* \"@openzeppelin/contracts-upgradeable/proxy/utils/UUPSUpgradeable.sol\":6156:6208  IERC1822Proxiable(newImplementation).proxiableUUID() */\n      mload(0x40)\n      dup2\n      0xffffffff\n      and\n      0xe0\n      shl\n      dup2\n      mstore\n      0x04\n      add\n      0x20\n      mload(0x40)\n      dup1\n      dup4\n      sub\n      dup2\n      dup7\n      gas\n      staticcall\n      swap3\n      pop\n      pop\n      pop\n      dup1\n      iszero\n      tag_750\n      jumpi\n      pop\n      0x40\n      dup1\n      mload\n      0x1f\n      returndatasize\n      swap1\n      dup2\n      add\n      not(0x1f)\n      and\n      dup3\n      add\n      swap1\n      swap3\n      mstore\n      tag_751\n      swap2\n      dup2\n      add\n      swap1\n      tag_539\n      jump\t// in\n    tag_751:\n      0x01\n    tag_750:\n        /* \"@openzeppelin/contracts-upgradeable/proxy/utils/UUPSUpgradeable.sol\":6152:6589  try IERC1822Proxiable(newImplementation).proxiableUUID() returns (bytes32 slot) {... */\n      tag_753\n      jumpi\n        /* \"@openzeppelin/contracts-upgradeable/proxy/utils/UUPSUpgradeable.sol\":6518:6578  ERC1967Utils.ERC1967InvalidImplementation(newImplementation) */\n      mload(0x40)\n      shl(0xe0, 0x4c9c8ce3)\n      dup2\n      mstore\n      sub(shl(0xa0, 0x01), 0x01)\n        /* \"#utility.yul\":2037:2069   */\n      dup4\n      and\n        /* \"@openzeppelin/contracts-upgradeable/proxy/utils/UUPSUpgradeable.sol\":6518:6578  ERC1967Utils.ERC1967InvalidImplementation(newImplementation) */\n      0x04\n      dup3\n      add\n        /* \"#utility.yul\":2019:2070   */\n      mstore\n        /* \"#utility.yul\":1992:2010   */\n      0x24\n      add\n        /* \"@openzeppelin/contracts-upgradeable/proxy/utils/UUPSUpgradeable.sol\":6518:6578  ERC1967Utils.ERC1967InvalidImplementation(newImplementation) */\n      tag_53\n        /* \"#utility.yul\":1873:2076   */\n      jump\n        /* \"@openzeppelin/contracts-upgradeable/proxy/utils/UUPSUpgradeable.sol\":6152:6589  try IERC1822Proxiable(newImplementation).proxiableUUID() returns (bytes32 slot) {... */\n    tag_753:\n      mload(0x00)\n      codecopy(0x00, data_75b20eef8615de99c108b05f0dbda081c91897128caa336d75dffb97c4132b4d, 0x20)\n      mload(0x00)\n      swap1\n      0x00\n      mstore\n        /* \"@openzeppelin/contracts-upgradeable/proxy/utils/UUPSUpgradeable.sol\":6250:6290  slot != ERC1967Utils.IMPLEMENTATION_SLOT */\n      dup2\n      eq\n        /* \"@openzeppelin/contracts-upgradeable/proxy/utils/UUPSUpgradeable.sol\":6246:6366  if (slot != ERC1967Utils.IMPLEMENTATION_SLOT) {... */\n      tag_759\n      jumpi\n        /* \"@openzeppelin/contracts-upgradeable/proxy/utils/UUPSUpgradeable.sol\":6317:6351  UUPSUnsupportedProxiableUUID(slot) */\n      mload(0x40)\n      shl(0xe2, 0x2a875269)\n      dup2\n      mstore\n      0x04\n      dup2\n      add\n        /* \"#utility.yul\":1014:1039   */\n      dup3\n      swap1\n      mstore\n        /* \"#utility.yul\":987:1005   */\n      0x24\n      add\n        /* \"@openzeppelin/contracts-upgradeable/proxy/utils/UUPSUpgradeable.sol\":6317:6351  UUPSUnsupportedProxiableUUID(slot) */\n      tag_53\n        /* \"#utility.yul\":868:1045   */\n      jump\n        /* \"@openzeppelin/contracts-upgradeable/proxy/utils/UUPSUpgradeable.sol\":6246:6366  if (slot != ERC1967Utils.IMPLEMENTATION_SLOT) {... */\n    tag_759:\n        /* \"@openzeppelin/contracts-upgradeable/proxy/utils/UUPSUpgradeable.sol\":6379:6433  ERC1967Utils.upgradeToAndCall(newImplementation, data) */\n      tag_416\n        /* \"@openzeppelin/contracts-upgradeable/proxy/utils/UUPSUpgradeable.sol\":6409:6426  newImplementation */\n      dup4\n        /* \"@openzeppelin/contracts-upgradeable/proxy/utils/UUPSUpgradeable.sol\":6428:6432  data */\n      dup4\n        /* \"@openzeppelin/contracts-upgradeable/proxy/utils/UUPSUpgradeable.sol\":6379:6408  ERC1967Utils.upgradeToAndCall */\n      tag_762\n        /* \"@openzeppelin/contracts-upgradeable/proxy/utils/UUPSUpgradeable.sol\":6379:6433  ERC1967Utils.upgradeToAndCall(newImplementation, data) */\n      jump\t// in\n        /* \"@openzeppelin/contracts-upgradeable/proxy/utils/UUPSUpgradeable.sol\":5032:5245  function _checkNotDelegated() internal view virtual {... */\n    tag_386:\n        /* \"@openzeppelin/contracts-upgradeable/proxy/utils/UUPSUpgradeable.sol\":5106:5110  this */\n      address\n      sub(shl(0xa0, 0x01), 0x01)\n        /* \"@openzeppelin/contracts-upgradeable/proxy/utils/UUPSUpgradeable.sol\":5115:5121  __self */\n      immutable(\"0xca4b0db001bf2677ca5ac885bd7766c7c4b4b5d0170066d4830e0728bf019f64\")\n        /* \"@openzeppelin/contracts-upgradeable/proxy/utils/UUPSUpgradeable.sol\":5098:5121  address(this) != __self */\n      and\n      eq\n        /* \"@openzeppelin/contracts-upgradeable/proxy/utils/UUPSUpgradeable.sol\":5094:5239  if (address(this) != __self) {... */\n      tag_370\n      jumpi\n        /* \"@openzeppelin/contracts-upgradeable/proxy/utils/UUPSUpgradeable.sol\":5199:5228  UUPSUnauthorizedCallContext() */\n      mload(0x40)\n      shl(0xe1, 0x703e46dd)\n      dup2\n      mstore\n      0x04\n      add\n      mload(0x40)\n      dup1\n      swap2\n      sub\n      swap1\n      revert\n        /* \"@openzeppelin/contracts-upgradeable/access/OwnableUpgradeable.sol\":3774:4022  function _transferOwnership(address newOwner) internal virtual {... */\n    tag_421:\n        /* \"@openzeppelin/contracts-upgradeable/access/OwnableUpgradeable.sol\":1313:1335  OwnableStorageLocation */\n      0x9016d09d72d40fdae2fd8ceac6b6234c7706214fd39c1cd1e609a0528c199300\n        /* \"@openzeppelin/contracts-upgradeable/access/OwnableUpgradeable.sol\":3923:3931  $._owner */\n      dup1\n      sload\n      not(sub(shl(0xa0, 0x01), 0x01))\n        /* \"@openzeppelin/contracts-upgradeable/access/OwnableUpgradeable.sol\":3941:3960  $._owner = newOwner */\n      dup2\n      and\n      sub(shl(0xa0, 0x01), 0x01)\n      dup5\n      dup2\n      and\n      swap2\n      dup3\n      or\n      dup5\n      sstore\n        /* \"@openzeppelin/contracts-upgradeable/access/OwnableUpgradeable.sol\":3975:4015  OwnershipTransferred(oldOwner, newOwner) */\n      mload(0x40)\n        /* \"@openzeppelin/contracts-upgradeable/access/OwnableUpgradeable.sol\":3923:3931  $._owner */\n      swap3\n      and\n      swap2\n      dup3\n      swap1\n        /* \"@openzeppelin/contracts-upgradeable/access/OwnableUpgradeable.sol\":3975:4015  OwnershipTransferred(oldOwner, newOwner) */\n      0x8be0079c531659141344cd1fd0a4f28419497f9722a3daafe3b4186f6b6457e0\n      swap1\n        /* \"@openzeppelin/contracts-upgradeable/access/OwnableUpgradeable.sol\":3847:3871  OwnableStorage storage $ */\n      0x00\n      swap1\n        /* \"@openzeppelin/contracts-upgradeable/access/OwnableUpgradeable.sol\":3975:4015  OwnershipTransferred(oldOwner, newOwner) */\n      log3\n        /* \"@openzeppelin/contracts-upgradeable/access/OwnableUpgradeable.sol\":3837:4022  {... */\n      pop\n      pop\n        /* \"@openzeppelin/contracts-upgradeable/access/OwnableUpgradeable.sol\":3774:4022  function _transferOwnership(address newOwner) internal virtual {... */\n      pop\n      jump\t// out\n        /* \"@openzeppelin/contracts-upgradeable/access/OwnableUpgradeable.sol\":1847:1974  function __Ownable_init(address initialOwner) internal onlyInitializing {... */\n    tag_686:\n        /* \"@openzeppelin/contracts-upgradeable/proxy/utils/Initializable.sol\":6931:6951  _checkInitializing() */\n      tag_771\n        /* \"@openzeppelin/contracts-upgradeable/proxy/utils/Initializable.sol\":6931:6949  _checkInitializing */\n      tag_772\n        /* \"@openzeppelin/contracts-upgradeable/proxy/utils/Initializable.sol\":6931:6951  _checkInitializing() */\n      jump\t// in\n    tag_771:\n        /* \"@openzeppelin/contracts-upgradeable/access/OwnableUpgradeable.sol\":1929:1967  __Ownable_init_unchained(initialOwner) */\n      tag_675\n        /* \"@openzeppelin/contracts-upgradeable/access/OwnableUpgradeable.sol\":1954:1966  initialOwner */\n      dup2\n        /* \"@openzeppelin/contracts-upgradeable/access/OwnableUpgradeable.sol\":1929:1953  __Ownable_init_unchained */\n      tag_775\n        /* \"@openzeppelin/contracts-upgradeable/access/OwnableUpgradeable.sol\":1929:1967  __Ownable_init_unchained(initialOwner) */\n      jump\t// in\n        /* \"@openzeppelin/contracts-upgradeable/proxy/utils/UUPSUpgradeable.sol\":2970:3037  function __UUPSUpgradeable_init() internal onlyInitializing {... */\n    tag_688:\n        /* \"@openzeppelin/contracts-upgradeable/proxy/utils/Initializable.sol\":6931:6951  _checkInitializing() */\n      tag_370\n        /* \"@openzeppelin/contracts-upgradeable/proxy/utils/Initializable.sol\":6931:6949  _checkInitializing */\n      tag_772\n        /* \"@openzeppelin/contracts-upgradeable/proxy/utils/Initializable.sol\":6931:6951  _checkInitializing() */\n      jump\t// in\n        /* \"@openzeppelin/contracts/proxy/ERC1967/ERC1967Utils.sol\":2264:2608  function upgradeToAndCall(address newImplementation, bytes memory data) internal {... */\n    tag_762:\n        /* \"@openzeppelin/contracts/proxy/ERC1967/ERC1967Utils.sol\":2355:2392  _setImplementation(newImplementation) */\n      tag_785\n        /* \"@openzeppelin/contracts/proxy/ERC1967/ERC1967Utils.sol\":2374:2391  newImplementation */\n      dup3\n        /* \"@openzeppelin/contracts/proxy/ERC1967/ERC1967Utils.sol\":2355:2373  _setImplementation */\n      tag_786\n        /* \"@openzeppelin/contracts/proxy/ERC1967/ERC1967Utils.sol\":2355:2392  _setImplementation(newImplementation) */\n      jump\t// in\n    tag_785:\n        /* \"@openzeppelin/contracts/proxy/ERC1967/ERC1967Utils.sol\":2407:2443  IERC1967.Upgraded(newImplementation) */\n      mload(0x40)\n      sub(shl(0xa0, 0x01), 0x01)\n      dup4\n      and\n      swap1\n      0xbc7cd75a20ee27fd9adebab32041f755214dbc6bffa90cc0225b39da2e5c2d3b\n      swap1\n      0x00\n      swap1\n      log2\n        /* \"@openzeppelin/contracts/proxy/ERC1967/ERC1967Utils.sol\":2458:2469  data.length */\n      dup1\n      mload\n        /* \"@openzeppelin/contracts/proxy/ERC1967/ERC1967Utils.sol\":2458:2473  data.length > 0 */\n      iszero\n        /* \"@openzeppelin/contracts/proxy/ERC1967/ERC1967Utils.sol\":2454:2602  if (data.length > 0) {... */\n      tag_787\n      jumpi\n        /* \"@openzeppelin/contracts/proxy/ERC1967/ERC1967Utils.sol\":2489:2542  Address.functionDelegateCall(newImplementation, data) */\n      tag_416\n        /* \"@openzeppelin/contracts/proxy/ERC1967/ERC1967Utils.sol\":2518:2535  newImplementation */\n      dup3\n        /* \"@openzeppelin/contracts/proxy/ERC1967/ERC1967Utils.sol\":2537:2541  data */\n      dup3\n        /* \"@openzeppelin/contracts/proxy/ERC1967/ERC1967Utils.sol\":2489:2517  Address.functionDelegateCall */\n      tag_789\n        /* \"@openzeppelin/contracts/proxy/ERC1967/ERC1967Utils.sol\":2489:2542  Address.functionDelegateCall(newImplementation, data) */\n      jump\t// in\n        /* \"@openzeppelin/contracts/proxy/ERC1967/ERC1967Utils.sol\":2454:2602  if (data.length > 0) {... */\n    tag_787:\n        /* \"@openzeppelin/contracts/proxy/ERC1967/ERC1967Utils.sol\":2573:2591  _checkNonPayable() */\n      tag_382\n        /* \"@openzeppelin/contracts/proxy/ERC1967/ERC1967Utils.sol\":2573:2589  _checkNonPayable */\n      tag_792\n        /* \"@openzeppelin/contracts/proxy/ERC1967/ERC1967Utils.sol\":2573:2591  _checkNonPayable() */\n      jump\t// in\n        /* \"@openzeppelin/contracts-upgradeable/proxy/utils/Initializable.sol\":7084:7225  function _checkInitializing() internal view virtual {... */\n    tag_772:\n        /* \"@openzeppelin/contracts-upgradeable/proxy/utils/Initializable.sol\":8870:8891  INITIALIZABLE_STORAGE */\n      0xf0c57e16840df040f15088dc2f81fe391c3923bec73e23a9662efc9c229c6a00\n        /* \"@openzeppelin/contracts-upgradeable/proxy/utils/Initializable.sol\":8560:8600  _getInitializableStorage()._initializing */\n      sload\n      shl(0x40, 0x01)\n      swap1\n      div\n      0xff\n      and\n        /* \"@openzeppelin/contracts-upgradeable/proxy/utils/Initializable.sol\":7146:7219  if (!_isInitializing()) {... */\n      tag_370\n      jumpi\n        /* \"@openzeppelin/contracts-upgradeable/proxy/utils/Initializable.sol\":7191:7208  NotInitializing() */\n      mload(0x40)\n      shl(0xe3, 0x1afcd79f)\n      dup2\n      mstore\n      0x04\n      add\n      mload(0x40)\n      dup1\n      swap2\n      sub\n      swap1\n      revert\n        /* \"@openzeppelin/contracts-upgradeable/access/OwnableUpgradeable.sol\":1980:2215  function __Ownable_init_unchained(address initialOwner) internal onlyInitializing {... */\n    tag_775:\n        /* \"@openzeppelin/contracts-upgradeable/proxy/utils/Initializable.sol\":6931:6951  _checkInitializing() */\n      tag_671\n        /* \"@openzeppelin/contracts-upgradeable/proxy/utils/Initializable.sol\":6931:6949  _checkInitializing */\n      tag_772\n        /* \"@openzeppelin/contracts-upgradeable/proxy/utils/Initializable.sol\":6931:6951  _checkInitializing() */\n      jump\t// in\n        /* \"@openzeppelin/contracts/proxy/ERC1967/ERC1967Utils.sol\":1671:1952  function _setImplementation(address newImplementation) private {... */\n    tag_786:\n        /* \"@openzeppelin/contracts/proxy/ERC1967/ERC1967Utils.sol\":1748:1765  newImplementation */\n      dup1\n      sub(shl(0xa0, 0x01), 0x01)\n        /* \"@openzeppelin/contracts/proxy/ERC1967/ERC1967Utils.sol\":1748:1777  newImplementation.code.length */\n      and\n      extcodesize\n        /* \"@openzeppelin/contracts/proxy/ERC1967/ERC1967Utils.sol\":1781:1782  0 */\n      0x00\n        /* \"@openzeppelin/contracts/proxy/ERC1967/ERC1967Utils.sol\":1748:1782  newImplementation.code.length == 0 */\n      sub\n        /* \"@openzeppelin/contracts/proxy/ERC1967/ERC1967Utils.sol\":1744:1863  if (newImplementation.code.length == 0) {... */\n      tag_805\n      jumpi\n        /* \"@openzeppelin/contracts/proxy/ERC1967/ERC1967Utils.sol\":1805:1852  ERC1967InvalidImplementation(newImplementation) */\n      mload(0x40)\n      shl(0xe0, 0x4c9c8ce3)\n      dup2\n      mstore\n      sub(shl(0xa0, 0x01), 0x01)\n        /* \"#utility.yul\":2037:2069   */\n      dup3\n      and\n        /* \"@openzeppelin/contracts/proxy/ERC1967/ERC1967Utils.sol\":1805:1852  ERC1967InvalidImplementation(newImplementation) */\n      0x04\n      dup3\n      add\n        /* \"#utility.yul\":2019:2070   */\n      mstore\n        /* \"#utility.yul\":1992:2010   */\n      0x24\n      add\n        /* \"@openzeppelin/contracts/proxy/ERC1967/ERC1967Utils.sol\":1805:1852  ERC1967InvalidImplementation(newImplementation) */\n      tag_53\n        /* \"#utility.yul\":1873:2076   */\n      jump\n        /* \"@openzeppelin/contracts/proxy/ERC1967/ERC1967Utils.sol\":1744:1863  if (newImplementation.code.length == 0) {... */\n    tag_805:\n      mload(0x00)\n      codecopy(0x00, data_75b20eef8615de99c108b05f0dbda081c91897128caa336d75dffb97c4132b4d, 0x20)\n      mload(0x00)\n      swap1\n      0x00\n      mstore\n        /* \"@openzeppelin/contracts/proxy/ERC1967/ERC1967Utils.sol\":1872:1945  StorageSlot.getAddressSlot(IMPLEMENTATION_SLOT).value = newImplementation */\n      dup1\n      sload\n      not(sub(shl(0xa0, 0x01), 0x01))\n      and\n      sub(shl(0xa0, 0x01), 0x01)\n      swap3\n      swap1\n      swap3\n      and\n      swap2\n      swap1\n      swap2\n      or\n      swap1\n      sstore\n        /* \"@openzeppelin/contracts/proxy/ERC1967/ERC1967Utils.sol\":1671:1952  function _setImplementation(address newImplementation) private {... */\n      jump\t// out\n        /* \"@openzeppelin/contracts/utils/Address.sol\":3900:4153  function functionDelegateCall(address target, bytes memory data) internal returns (bytes memory) {... */\n    tag_789:\n        /* \"@openzeppelin/contracts/utils/Address.sol\":3983:3995  bytes memory */\n      0x60\n        /* \"@openzeppelin/contracts/utils/Address.sol\":4008:4020  bool success */\n      0x00\n        /* \"@openzeppelin/contracts/utils/Address.sol\":4022:4045  bytes memory returndata */\n      0x00\n        /* \"@openzeppelin/contracts/utils/Address.sol\":4049:4055  target */\n      dup5\n      sub(shl(0xa0, 0x01), 0x01)\n        /* \"@openzeppelin/contracts/utils/Address.sol\":4049:4068  target.delegatecall */\n      and\n        /* \"@openzeppelin/contracts/utils/Address.sol\":4069:4073  data */\n      dup5\n        /* \"@openzeppelin/contracts/utils/Address.sol\":4049:4074  target.delegatecall(data) */\n      mload(0x40)\n      tag_809\n      swap2\n      swap1\n      tag_810\n      jump\t// in\n    tag_809:\n      0x00\n      mload(0x40)\n      dup1\n      dup4\n      sub\n      dup2\n      dup6\n      gas\n      delegatecall\n      swap2\n      pop\n      pop\n      returndatasize\n      dup1\n      0x00\n      dup2\n      eq\n      tag_813\n      jumpi\n      mload(0x40)\n      swap2\n      pop\n      and(add(returndatasize, 0x3f), not(0x1f))\n      dup3\n      add\n      0x40\n      mstore\n      returndatasize\n      dup3\n      mstore\n      returndatasize\n      0x00\n      0x20\n      dup5\n      add\n      returndatacopy\n      jump(tag_812)\n    tag_813:\n      0x60\n      swap2\n      pop\n    tag_812:\n      pop\n        /* \"@openzeppelin/contracts/utils/Address.sol\":4007:4074  (bool success, bytes memory returndata) = target.delegatecall(data) */\n      swap2\n      pop\n      swap2\n      pop\n        /* \"@openzeppelin/contracts/utils/Address.sol\":4091:4146  verifyCallResultFromTarget(target, success, returndata) */\n      tag_814\n        /* \"@openzeppelin/contracts/utils/Address.sol\":4118:4124  target */\n      dup6\n        /* \"@openzeppelin/contracts/utils/Address.sol\":4126:4133  success */\n      dup4\n        /* \"@openzeppelin/contracts/utils/Address.sol\":4135:4145  returndata */\n      dup4\n        /* \"@openzeppelin/contracts/utils/Address.sol\":4091:4117  verifyCallResultFromTarget */\n      tag_815\n        /* \"@openzeppelin/contracts/utils/Address.sol\":4091:4146  verifyCallResultFromTarget(target, success, returndata) */\n      jump\t// in\n    tag_814:\n        /* \"@openzeppelin/contracts/utils/Address.sol\":4084:4146  return verifyCallResultFromTarget(target, success, returndata) */\n      swap6\n        /* \"@openzeppelin/contracts/utils/Address.sol\":3900:4153  function functionDelegateCall(address target, bytes memory data) internal returns (bytes memory) {... */\n      swap5\n      pop\n      pop\n      pop\n      pop\n      pop\n      jump\t// out\n        /* \"@openzeppelin/contracts/proxy/ERC1967/ERC1967Utils.sol\":6113:6235  function _checkNonPayable() private {... */\n    tag_792:\n        /* \"@openzeppelin/contracts/proxy/ERC1967/ERC1967Utils.sol\":6163:6172  msg.value */\n      callvalue\n        /* \"@openzeppelin/contracts/proxy/ERC1967/ERC1967Utils.sol\":6163:6176  msg.value > 0 */\n      iszero\n        /* \"@openzeppelin/contracts/proxy/ERC1967/ERC1967Utils.sol\":6159:6229  if (msg.value > 0) {... */\n      tag_370\n      jumpi\n        /* \"@openzeppelin/contracts/proxy/ERC1967/ERC1967Utils.sol\":6199:6218  ERC1967NonPayable() */\n      mload(0x40)\n      shl(0xe0, 0xb398979f)\n      dup2\n      mstore\n      0x04\n      add\n      mload(0x40)\n      dup1\n      swap2\n      sub\n      swap1\n      revert\n        /* \"@openzeppelin/contracts/utils/Address.sol\":4421:5003  function verifyCallResultFromTarget(... */\n    tag_815:\n        /* \"@openzeppelin/contracts/utils/Address.sol\":4565:4577  bytes memory */\n      0x60\n        /* \"@openzeppelin/contracts/utils/Address.sol\":4594:4601  success */\n      dup3\n        /* \"@openzeppelin/contracts/utils/Address.sol\":4589:4997  if (!success) {... */\n      tag_821\n      jumpi\n        /* \"@openzeppelin/contracts/utils/Address.sol\":4617:4636  _revert(returndata) */\n      tag_822\n        /* \"@openzeppelin/contracts/utils/Address.sol\":4625:4635  returndata */\n      dup3\n        /* \"@openzeppelin/contracts/utils/Address.sol\":4617:4624  _revert */\n      tag_823\n        /* \"@openzeppelin/contracts/utils/Address.sol\":4617:4636  _revert(returndata) */\n      jump\t// in\n    tag_822:\n        /* \"@openzeppelin/contracts/utils/Address.sol\":4589:4997  if (!success) {... */\n      jump(tag_824)\n    tag_821:\n        /* \"@openzeppelin/contracts/utils/Address.sol\":4841:4858  returndata.length */\n      dup2\n      mload\n        /* \"@openzeppelin/contracts/utils/Address.sol\":4841:4863  returndata.length == 0 */\n      iszero\n        /* \"@openzeppelin/contracts/utils/Address.sol\":4841:4890  returndata.length == 0 && target.code.length == 0 */\n      dup1\n      iszero\n      tag_825\n      jumpi\n      pop\n      sub(shl(0xa0, 0x01), 0x01)\n        /* \"@openzeppelin/contracts/utils/Address.sol\":4867:4885  target.code.length */\n      dup5\n      and\n      extcodesize\n        /* \"@openzeppelin/contracts/utils/Address.sol\":4867:4890  target.code.length == 0 */\n      iszero\n        /* \"@openzeppelin/contracts/utils/Address.sol\":4841:4890  returndata.length == 0 && target.code.length == 0 */\n    tag_825:\n        /* \"@openzeppelin/contracts/utils/Address.sol\":4837:4956  if (returndata.length == 0 && target.code.length == 0) {... */\n      iszero\n      tag_826\n      jumpi\n        /* \"@openzeppelin/contracts/utils/Address.sol\":4917:4941  AddressEmptyCode(target) */\n      mload(0x40)\n      shl(0xe0, 0x9996b315)\n      dup2\n      mstore\n      sub(shl(0xa0, 0x01), 0x01)\n        /* \"#utility.yul\":2037:2069   */\n      dup6\n      and\n        /* \"@openzeppelin/contracts/utils/Address.sol\":4917:4941  AddressEmptyCode(target) */\n      0x04\n      dup3\n      add\n        /* \"#utility.yul\":2019:2070   */\n      mstore\n        /* \"#utility.yul\":1992:2010   */\n      0x24\n      add\n        /* \"@openzeppelin/contracts/utils/Address.sol\":4917:4941  AddressEmptyCode(target) */\n      tag_53\n        /* \"#utility.yul\":1873:2076   */\n      jump\n        /* \"@openzeppelin/contracts/utils/Address.sol\":4837:4956  if (returndata.length == 0 && target.code.length == 0) {... */\n    tag_826:\n      pop\n        /* \"@openzeppelin/contracts/utils/Address.sol\":4976:4986  returndata */\n      dup1\n        /* \"@openzeppelin/contracts/utils/Address.sol\":4589:4997  if (!success) {... */\n    tag_824:\n        /* \"@openzeppelin/contracts/utils/Address.sol\":4421:5003  function verifyCallResultFromTarget(... */\n      swap4\n      swap3\n      pop\n      pop\n      pop\n      jump\t// out\n        /* \"@openzeppelin/contracts/utils/Address.sol\":5543:6030  function _revert(bytes memory returndata) private pure {... */\n    tag_823:\n        /* \"@openzeppelin/contracts/utils/Address.sol\":5674:5691  returndata.length */\n      dup1\n      mload\n        /* \"@openzeppelin/contracts/utils/Address.sol\":5674:5695  returndata.length > 0 */\n      iszero\n        /* \"@openzeppelin/contracts/utils/Address.sol\":5670:6024  if (returndata.length > 0) {... */\n      tag_829\n      jumpi\n        /* \"@openzeppelin/contracts/utils/Address.sol\":5871:5881  returndata */\n      dup1\n        /* \"@openzeppelin/contracts/utils/Address.sol\":5865:5882  mload(returndata) */\n      mload\n        /* \"@openzeppelin/contracts/utils/Address.sol\":5927:5942  returndata_size */\n      dup1\n        /* \"@openzeppelin/contracts/utils/Address.sol\":5914:5924  returndata */\n      dup3\n        /* \"@openzeppelin/contracts/utils/Address.sol\":5910:5912  32 */\n      0x20\n        /* \"@openzeppelin/contracts/utils/Address.sol\":5906:5925  add(32, returndata) */\n      add\n        /* \"@openzeppelin/contracts/utils/Address.sol\":5899:5943  revert(add(32, returndata), returndata_size) */\n      revert\n        /* \"@openzeppelin/contracts/utils/Address.sol\":5670:6024  if (returndata.length > 0) {... */\n    tag_829:\n        /* \"@openzeppelin/contracts/utils/Address.sol\":5994:6013  Errors.FailedCall() */\n      mload(0x40)\n      shl(0xe0, 0xd6bda275)\n      dup2\n      mstore\n      0x04\n      add\n      mload(0x40)\n      dup1\n      swap2\n      sub\n      swap1\n      revert\n        /* \"#utility.yul\":375:529   */\n    tag_831:\n        /* \"#utility.yul\":454:474   */\n      dup1\n      calldataload\n        /* \"#utility.yul\":503:504   */\n      0x03\n        /* \"#utility.yul\":493:505   */\n      dup2\n      lt\n        /* \"#utility.yul\":483:523   */\n      tag_308\n      jumpi\n        /* \"#utility.yul\":519:520   */\n      0x00\n        /* \"#utility.yul\":516:517   */\n      0x00\n        /* \"#utility.yul\":509:521   */\n      revert\n        /* \"#utility.yul\":534:863   */\n    tag_58:\n        /* \"#utility.yul\":620:626   */\n      0x00\n        /* \"#utility.yul\":628:634   */\n      0x00\n        /* \"#utility.yul\":681:683   */\n      0x40\n        /* \"#utility.yul\":669:678   */\n      dup4\n        /* \"#utility.yul\":660:667   */\n      dup6\n        /* \"#utility.yul\":656:679   */\n      sub\n        /* \"#utility.yul\":652:684   */\n      slt\n        /* \"#utility.yul\":649:701   */\n      iszero\n      tag_844\n      jumpi\n        /* \"#utility.yul\":697:698   */\n      0x00\n        /* \"#utility.yul\":694:695   */\n      0x00\n        /* \"#utility.yul\":687:699   */\n      revert\n        /* \"#utility.yul\":649:701   */\n    tag_844:\n        /* \"#utility.yul\":720:760   */\n      tag_845\n        /* \"#utility.yul\":750:759   */\n      dup4\n        /* \"#utility.yul\":720:760   */\n      tag_831\n      jump\t// in\n    tag_845:\n        /* \"#utility.yul\":710:760   */\n      swap5\n        /* \"#utility.yul\":829:831   */\n      0x20\n        /* \"#utility.yul\":814:832   */\n      swap4\n      swap1\n      swap4\n      add\n        /* \"#utility.yul\":801:833   */\n      calldataload\n      swap4\n      pop\n      pop\n      pop\n        /* \"#utility.yul\":534:863   */\n      jump\t// out\n        /* \"#utility.yul\":1242:1457   */\n    tag_70:\n        /* \"#utility.yul\":1319:1325   */\n      0x00\n        /* \"#utility.yul\":1372:1374   */\n      0x20\n        /* \"#utility.yul\":1360:1369   */\n      dup3\n        /* \"#utility.yul\":1351:1358   */\n      dup5\n        /* \"#utility.yul\":1347:1370   */\n      sub\n        /* \"#utility.yul\":1343:1375   */\n      slt\n        /* \"#utility.yul\":1340:1392   */\n      iszero\n      tag_849\n      jumpi\n        /* \"#utility.yul\":1388:1389   */\n      0x00\n        /* \"#utility.yul\":1385:1386   */\n      0x00\n        /* \"#utility.yul\":1378:1390   */\n      revert\n        /* \"#utility.yul\":1340:1392   */\n    tag_849:\n        /* \"#utility.yul\":1411:1451   */\n      tag_824\n        /* \"#utility.yul\":1441:1450   */\n      dup3\n        /* \"#utility.yul\":1411:1451   */\n      tag_831\n      jump\t// in\n        /* \"#utility.yul\":1642:1868   */\n    tag_93:\n        /* \"#utility.yul\":1701:1707   */\n      0x00\n        /* \"#utility.yul\":1754:1756   */\n      0x20\n        /* \"#utility.yul\":1742:1751   */\n      dup3\n        /* \"#utility.yul\":1733:1740   */\n      dup5\n        /* \"#utility.yul\":1729:1752   */\n      sub\n        /* \"#utility.yul\":1725:1757   */\n      slt\n        /* \"#utility.yul\":1722:1774   */\n      iszero\n      tag_853\n      jumpi\n        /* \"#utility.yul\":1770:1771   */\n      0x00\n        /* \"#utility.yul\":1767:1768   */\n      0x00\n        /* \"#utility.yul\":1760:1772   */\n      revert\n        /* \"#utility.yul\":1722:1774   */\n    tag_853:\n      pop\n        /* \"#utility.yul\":1815:1838   */\n      calldataload\n      swap2\n        /* \"#utility.yul\":1642:1868   */\n      swap1\n      pop\n      jump\t// out\n        /* \"#utility.yul\":2081:2212   */\n    tag_832:\n      sub(shl(0xa0, 0x01), 0x01)\n        /* \"#utility.yul\":2156:2187   */\n      dup2\n      and\n        /* \"#utility.yul\":2146:2188   */\n      dup2\n      eq\n        /* \"#utility.yul\":2136:2206   */\n      tag_675\n      jumpi\n        /* \"#utility.yul\":2202:2203   */\n      0x00\n        /* \"#utility.yul\":2199:2200   */\n      0x00\n        /* \"#utility.yul\":2192:2204   */\n      revert\n        /* \"#utility.yul\":2217:2344   */\n    tag_833:\n        /* \"#utility.yul\":2278:2288   */\n      0x4e487b71\n        /* \"#utility.yul\":2273:2276   */\n      0xe0\n        /* \"#utility.yul\":2269:2289   */\n      shl\n        /* \"#utility.yul\":2266:2267   */\n      0x00\n        /* \"#utility.yul\":2259:2290   */\n      mstore\n        /* \"#utility.yul\":2309:2313   */\n      0x41\n        /* \"#utility.yul\":2306:2307   */\n      0x04\n        /* \"#utility.yul\":2299:2314   */\n      mstore\n        /* \"#utility.yul\":2333:2337   */\n      0x24\n        /* \"#utility.yul\":2330:2331   */\n      0x00\n        /* \"#utility.yul\":2323:2338   */\n      revert\n        /* \"#utility.yul\":2349:3428   */\n    tag_116:\n        /* \"#utility.yul\":2426:2432   */\n      0x00\n        /* \"#utility.yul\":2434:2440   */\n      0x00\n        /* \"#utility.yul\":2487:2489   */\n      0x40\n        /* \"#utility.yul\":2475:2484   */\n      dup4\n        /* \"#utility.yul\":2466:2473   */\n      dup6\n        /* \"#utility.yul\":2462:2485   */\n      sub\n        /* \"#utility.yul\":2458:2490   */\n      slt\n        /* \"#utility.yul\":2455:2507   */\n      iszero\n      tag_859\n      jumpi\n        /* \"#utility.yul\":2503:2504   */\n      0x00\n        /* \"#utility.yul\":2500:2501   */\n      0x00\n        /* \"#utility.yul\":2493:2505   */\n      revert\n        /* \"#utility.yul\":2455:2507   */\n    tag_859:\n        /* \"#utility.yul\":2542:2551   */\n      dup3\n        /* \"#utility.yul\":2529:2552   */\n      calldataload\n        /* \"#utility.yul\":2561:2592   */\n      tag_860\n        /* \"#utility.yul\":2586:2591   */\n      dup2\n        /* \"#utility.yul\":2561:2592   */\n      tag_832\n      jump\t// in\n    tag_860:\n        /* \"#utility.yul\":2611:2616   */\n      swap2\n      pop\n        /* \"#utility.yul\":2667:2669   */\n      0x20\n        /* \"#utility.yul\":2652:2670   */\n      dup4\n      add\n        /* \"#utility.yul\":2639:2671   */\n      calldataload\n        /* \"#utility.yul\":2694:2712   */\n      0xffffffffffffffff\n        /* \"#utility.yul\":2683:2713   */\n      dup2\n      gt\n        /* \"#utility.yul\":2680:2730   */\n      iszero\n      tag_861\n      jumpi\n        /* \"#utility.yul\":2726:2727   */\n      0x00\n        /* \"#utility.yul\":2723:2724   */\n      0x00\n        /* \"#utility.yul\":2716:2728   */\n      revert\n        /* \"#utility.yul\":2680:2730   */\n    tag_861:\n        /* \"#utility.yul\":2749:2771   */\n      dup4\n      add\n        /* \"#utility.yul\":2802:2806   */\n      0x1f\n        /* \"#utility.yul\":2794:2807   */\n      dup2\n      add\n        /* \"#utility.yul\":2790:2817   */\n      dup6\n      sgt\n        /* \"#utility.yul\":2780:2835   */\n      tag_862\n      jumpi\n        /* \"#utility.yul\":2831:2832   */\n      0x00\n        /* \"#utility.yul\":2828:2829   */\n      0x00\n        /* \"#utility.yul\":2821:2833   */\n      revert\n        /* \"#utility.yul\":2780:2835   */\n    tag_862:\n        /* \"#utility.yul\":2871:2873   */\n      dup1\n        /* \"#utility.yul\":2858:2874   */\n      calldataload\n        /* \"#utility.yul\":2897:2915   */\n      0xffffffffffffffff\n        /* \"#utility.yul\":2889:2895   */\n      dup2\n        /* \"#utility.yul\":2886:2916   */\n      gt\n        /* \"#utility.yul\":2883:2939   */\n      iszero\n      tag_864\n      jumpi\n        /* \"#utility.yul\":2919:2937   */\n      tag_864\n      tag_833\n      jump\t// in\n    tag_864:\n        /* \"#utility.yul\":2968:2970   */\n      0x40\n        /* \"#utility.yul\":2962:2971   */\n      mload\n        /* \"#utility.yul\":3060:3062   */\n      0x1f\n        /* \"#utility.yul\":3022:3039   */\n      dup3\n      add\n      not(0x1f)\n        /* \"#utility.yul\":3018:3049   */\n      swap1\n      dup2\n      and\n        /* \"#utility.yul\":3051:3053   */\n      0x3f\n        /* \"#utility.yul\":3014:3054   */\n      add\n        /* \"#utility.yul\":3010:3064   */\n      and\n        /* \"#utility.yul\":2998:3065   */\n      dup2\n      add\n        /* \"#utility.yul\":3095:3113   */\n      0xffffffffffffffff\n        /* \"#utility.yul\":3080:3114   */\n      dup2\n      gt\n        /* \"#utility.yul\":3116:3138   */\n      dup3\n      dup3\n      lt\n        /* \"#utility.yul\":3077:3139   */\n      or\n        /* \"#utility.yul\":3074:3162   */\n      iszero\n      tag_866\n      jumpi\n        /* \"#utility.yul\":3142:3160   */\n      tag_866\n      tag_833\n      jump\t// in\n    tag_866:\n        /* \"#utility.yul\":3178:3180   */\n      0x40\n        /* \"#utility.yul\":3171:3193   */\n      mstore\n        /* \"#utility.yul\":3202:3224   */\n      dup2\n      dup2\n      mstore\n        /* \"#utility.yul\":3243:3258   */\n      dup3\n      dup3\n      add\n        /* \"#utility.yul\":3260:3262   */\n      0x20\n        /* \"#utility.yul\":3239:3263   */\n      add\n        /* \"#utility.yul\":3236:3273   */\n      dup8\n      lt\n        /* \"#utility.yul\":3233:3290   */\n      iszero\n      tag_867\n      jumpi\n        /* \"#utility.yul\":3286:3287   */\n      0x00\n        /* \"#utility.yul\":3283:3284   */\n      0x00\n        /* \"#utility.yul\":3276:3288   */\n      revert\n        /* \"#utility.yul\":3233:3290   */\n    tag_867:\n        /* \"#utility.yul\":3342:3348   */\n      dup2\n        /* \"#utility.yul\":3337:3339   */\n      0x20\n        /* \"#utility.yul\":3333:3335   */\n      dup5\n        /* \"#utility.yul\":3329:3340   */\n      add\n        /* \"#utility.yul\":3324:3326   */\n      0x20\n        /* \"#utility.yul\":3316:3322   */\n      dup4\n        /* \"#utility.yul\":3312:3327   */\n      add\n        /* \"#utility.yul\":3299:3349   */\n      calldatacopy\n        /* \"#utility.yul\":3395:3396   */\n      0x00\n        /* \"#utility.yul\":3390:3392   */\n      0x20\n        /* \"#utility.yul\":3381:3387   */\n      dup4\n        /* \"#utility.yul\":3373:3379   */\n      dup4\n        /* \"#utility.yul\":3369:3388   */\n      add\n        /* \"#utility.yul\":3365:3393   */\n      add\n        /* \"#utility.yul\":3358:3397   */\n      mstore\n        /* \"#utility.yul\":3416:3422   */\n      dup1\n        /* \"#utility.yul\":3406:3422   */\n      swap4\n      pop\n      pop\n      pop\n      pop\n        /* \"#utility.yul\":2349:3428   */\n      swap3\n      pop\n      swap3\n      swap1\n      pop\n      jump\t// out\n        /* \"#utility.yul\":3615:4081   */\n    tag_133:\n        /* \"#utility.yul\":3692:3698   */\n      0x00\n        /* \"#utility.yul\":3700:3706   */\n      0x00\n        /* \"#utility.yul\":3708:3714   */\n      0x00\n        /* \"#utility.yul\":3761:3763   */\n      0x60\n        /* \"#utility.yul\":3749:3758   */\n      dup5\n        /* \"#utility.yul\":3740:3747   */\n      dup7\n        /* \"#utility.yul\":3736:3759   */\n      sub\n        /* \"#utility.yul\":3732:3764   */\n      slt\n        /* \"#utility.yul\":3729:3781   */\n      iszero\n      tag_870\n      jumpi\n        /* \"#utility.yul\":3777:3778   */\n      0x00\n        /* \"#utility.yul\":3774:3775   */\n      0x00\n        /* \"#utility.yul\":3767:3779   */\n      revert\n        /* \"#utility.yul\":3729:3781   */\n    tag_870:\n      pop\n      pop\n        /* \"#utility.yul\":3822:3845   */\n      dup2\n      calldataload\n      swap4\n        /* \"#utility.yul\":3942:3944   */\n      0x20\n        /* \"#utility.yul\":3927:3945   */\n      dup4\n      add\n        /* \"#utility.yul\":3914:3946   */\n      calldataload\n      swap4\n      pop\n        /* \"#utility.yul\":4045:4047   */\n      0x40\n        /* \"#utility.yul\":4030:4048   */\n      swap1\n      swap3\n      add\n        /* \"#utility.yul\":4017:4049   */\n      calldataload\n      swap2\n        /* \"#utility.yul\":3615:4081   */\n      swap1\n      pop\n      jump\t// out\n        /* \"#utility.yul\":4086:4504   */\n    tag_184:\n        /* \"#utility.yul\":4235:4237   */\n      0x20\n        /* \"#utility.yul\":4224:4233   */\n      dup2\n        /* \"#utility.yul\":4217:4238   */\n      mstore\n        /* \"#utility.yul\":4198:4202   */\n      0x00\n        /* \"#utility.yul\":4267:4273   */\n      dup3\n        /* \"#utility.yul\":4261:4274   */\n      mload\n        /* \"#utility.yul\":4310:4316   */\n      dup1\n        /* \"#utility.yul\":4305:4307   */\n      0x20\n        /* \"#utility.yul\":4294:4303   */\n      dup5\n        /* \"#utility.yul\":4290:4308   */\n      add\n        /* \"#utility.yul\":4283:4317   */\n      mstore\n        /* \"#utility.yul\":4369:4375   */\n      dup1\n        /* \"#utility.yul\":4364:4366   */\n      0x20\n        /* \"#utility.yul\":4356:4362   */\n      dup6\n        /* \"#utility.yul\":4352:4367   */\n      add\n        /* \"#utility.yul\":4347:4349   */\n      0x40\n        /* \"#utility.yul\":4336:4345   */\n      dup6\n        /* \"#utility.yul\":4332:4350   */\n      add\n        /* \"#utility.yul\":4326:4376   */\n      mcopy\n        /* \"#utility.yul\":4425:4426   */\n      0x00\n        /* \"#utility.yul\":4420:4422   */\n      0x40\n        /* \"#utility.yul\":4411:4417   */\n      dup3\n        /* \"#utility.yul\":4400:4409   */\n      dup6\n        /* \"#utility.yul\":4396:4418   */\n      add\n        /* \"#utility.yul\":4392:4423   */\n      add\n        /* \"#utility.yul\":4385:4427   */\n      mstore\n        /* \"#utility.yul\":4495:4497   */\n      0x40\n        /* \"#utility.yul\":4488:4490   */\n      0x1f\n        /* \"#utility.yul\":4484:4491   */\n      not\n        /* \"#utility.yul\":4479:4481   */\n      0x1f\n        /* \"#utility.yul\":4471:4477   */\n      dup4\n        /* \"#utility.yul\":4467:4482   */\n      add\n        /* \"#utility.yul\":4463:4492   */\n      and\n        /* \"#utility.yul\":4452:4461   */\n      dup5\n        /* \"#utility.yul\":4448:4493   */\n      add\n        /* \"#utility.yul\":4444:4498   */\n      add\n        /* \"#utility.yul\":4436:4498   */\n      swap2\n      pop\n      pop\n        /* \"#utility.yul\":4086:4504   */\n      swap3\n      swap2\n      pop\n      pop\n      jump\t// out\n        /* \"#utility.yul\":5240:5487   */\n    tag_213:\n        /* \"#utility.yul\":5299:5305   */\n      0x00\n        /* \"#utility.yul\":5352:5354   */\n      0x20\n        /* \"#utility.yul\":5340:5349   */\n      dup3\n        /* \"#utility.yul\":5331:5338   */\n      dup5\n        /* \"#utility.yul\":5327:5350   */\n      sub\n        /* \"#utility.yul\":5323:5355   */\n      slt\n        /* \"#utility.yul\":5320:5372   */\n      iszero\n      tag_875\n      jumpi\n        /* \"#utility.yul\":5368:5369   */\n      0x00\n        /* \"#utility.yul\":5365:5366   */\n      0x00\n        /* \"#utility.yul\":5358:5370   */\n      revert\n        /* \"#utility.yul\":5320:5372   */\n    tag_875:\n        /* \"#utility.yul\":5407:5416   */\n      dup2\n        /* \"#utility.yul\":5394:5417   */\n      calldataload\n        /* \"#utility.yul\":5426:5457   */\n      tag_824\n        /* \"#utility.yul\":5451:5456   */\n      dup2\n        /* \"#utility.yul\":5426:5457   */\n      tag_832\n      jump\t// in\n        /* \"#utility.yul\":5715:6927   */\n    tag_237:\n        /* \"#utility.yul\":5852:5858   */\n      0x00\n        /* \"#utility.yul\":5860:5866   */\n      0x00\n        /* \"#utility.yul\":5868:5874   */\n      0x00\n        /* \"#utility.yul\":5876:5882   */\n      0x00\n        /* \"#utility.yul\":5884:5890   */\n      0x00\n        /* \"#utility.yul\":5892:5898   */\n      0x00\n        /* \"#utility.yul\":5900:5906   */\n      0x00\n        /* \"#utility.yul\":5908:5914   */\n      0x00\n        /* \"#utility.yul\":5961:5964   */\n      0x0100\n        /* \"#utility.yul\":5949:5958   */\n      dup10\n        /* \"#utility.yul\":5940:5947   */\n      dup12\n        /* \"#utility.yul\":5936:5959   */\n      sub\n        /* \"#utility.yul\":5932:5965   */\n      slt\n        /* \"#utility.yul\":5929:5982   */\n      iszero\n      tag_879\n      jumpi\n        /* \"#utility.yul\":5978:5979   */\n      0x00\n        /* \"#utility.yul\":5975:5976   */\n      0x00\n        /* \"#utility.yul\":5968:5980   */\n      revert\n        /* \"#utility.yul\":5929:5982   */\n    tag_879:\n        /* \"#utility.yul\":6017:6026   */\n      dup9\n        /* \"#utility.yul\":6004:6027   */\n      calldataload\n        /* \"#utility.yul\":6036:6067   */\n      tag_880\n        /* \"#utility.yul\":6061:6066   */\n      dup2\n        /* \"#utility.yul\":6036:6067   */\n      tag_832\n      jump\t// in\n    tag_880:\n        /* \"#utility.yul\":6086:6091   */\n      swap8\n      pop\n        /* \"#utility.yul\":6143:6145   */\n      0x20\n        /* \"#utility.yul\":6128:6146   */\n      dup10\n      add\n        /* \"#utility.yul\":6115:6147   */\n      calldataload\n        /* \"#utility.yul\":6156:6189   */\n      tag_881\n        /* \"#utility.yul\":6115:6147   */\n      dup2\n        /* \"#utility.yul\":6156:6189   */\n      tag_832\n      jump\t// in\n    tag_881:\n        /* \"#utility.yul\":6208:6215   */\n      swap7\n      pop\n        /* \"#utility.yul\":6267:6269   */\n      0x40\n        /* \"#utility.yul\":6252:6270   */\n      dup10\n      add\n        /* \"#utility.yul\":6239:6271   */\n      calldataload\n        /* \"#utility.yul\":6280:6313   */\n      tag_882\n        /* \"#utility.yul\":6239:6271   */\n      dup2\n        /* \"#utility.yul\":6280:6313   */\n      tag_832\n      jump\t// in\n    tag_882:\n        /* \"#utility.yul\":6332:6339   */\n      swap6\n      pop\n        /* \"#utility.yul\":6412:6414   */\n      0x60\n        /* \"#utility.yul\":6397:6415   */\n      dup10\n      add\n        /* \"#utility.yul\":6384:6416   */\n      calldataload\n      swap5\n      pop\n        /* \"#utility.yul\":6515:6518   */\n      0x80\n        /* \"#utility.yul\":6500:6519   */\n      dup10\n      add\n        /* \"#utility.yul\":6487:6520   */\n      calldataload\n      swap4\n      pop\n        /* \"#utility.yul\":6598:6601   */\n      0xa0\n        /* \"#utility.yul\":6583:6602   */\n      dup10\n      add\n        /* \"#utility.yul\":6570:6603   */\n      calldataload\n        /* \"#utility.yul\":6612:6645   */\n      tag_883\n        /* \"#utility.yul\":6570:6603   */\n      dup2\n        /* \"#utility.yul\":6612:6645   */\n      tag_832\n      jump\t// in\n    tag_883:\n        /* \"#utility.yul\":6664:6671   */\n      swap3\n      pop\n        /* \"#utility.yul\":6723:6726   */\n      0xc0\n        /* \"#utility.yul\":6708:6727   */\n      dup10\n      add\n        /* \"#utility.yul\":6695:6728   */\n      calldataload\n        /* \"#utility.yul\":6737:6770   */\n      tag_884\n        /* \"#utility.yul\":6695:6728   */\n      dup2\n        /* \"#utility.yul\":6737:6770   */\n      tag_832\n      jump\t// in\n    tag_884:\n        /* \"#utility.yul\":6789:6796   */\n      swap2\n      pop\n        /* \"#utility.yul\":6848:6851   */\n      0xe0\n        /* \"#utility.yul\":6833:6852   */\n      dup10\n      add\n        /* \"#utility.yul\":6820:6853   */\n      calldataload\n        /* \"#utility.yul\":6862:6895   */\n      tag_885\n        /* \"#utility.yul\":6820:6853   */\n      dup2\n        /* \"#utility.yul\":6862:6895   */\n      tag_832\n      jump\t// in\n    tag_885:\n        /* \"#utility.yul\":6914:6921   */\n      dup1\n        /* \"#utility.yul\":6904:6921   */\n      swap2\n      pop\n      pop\n        /* \"#utility.yul\":5715:6927   */\n      swap3\n      swap6\n      swap9\n      pop\n      swap3\n      swap6\n      swap9\n      swap1\n      swap4\n      swap7\n      pop\n      jump\t// out\n        /* \"#utility.yul\":7279:7406   */\n    tag_248:\n        /* \"#utility.yul\":7340:7350   */\n      0x4e487b71\n        /* \"#utility.yul\":7335:7338   */\n      0xe0\n        /* \"#utility.yul\":7331:7351   */\n      shl\n        /* \"#utility.yul\":7328:7329   */\n      0x00\n        /* \"#utility.yul\":7321:7352   */\n      mstore\n        /* \"#utility.yul\":7371:7375   */\n      0x21\n        /* \"#utility.yul\":7368:7369   */\n      0x04\n        /* \"#utility.yul\":7361:7376   */\n      mstore\n        /* \"#utility.yul\":7395:7399   */\n      0x24\n        /* \"#utility.yul\":7392:7393   */\n      0x00\n        /* \"#utility.yul\":7385:7400   */\n      revert\n        /* \"#utility.yul\":7411:7538   */\n    tag_834:\n        /* \"#utility.yul\":7472:7482   */\n      0x4e487b71\n        /* \"#utility.yul\":7467:7470   */\n      0xe0\n        /* \"#utility.yul\":7463:7483   */\n      shl\n        /* \"#utility.yul\":7460:7461   */\n      0x00\n        /* \"#utility.yul\":7453:7484   */\n      mstore\n        /* \"#utility.yul\":7503:7507   */\n      0x11\n        /* \"#utility.yul\":7500:7501   */\n      0x04\n        /* \"#utility.yul\":7493:7508   */\n      mstore\n        /* \"#utility.yul\":7527:7531   */\n      0x24\n        /* \"#utility.yul\":7524:7525   */\n      0x00\n        /* \"#utility.yul\":7517:7532   */\n      revert\n        /* \"#utility.yul\":7543:7711   */\n    tag_254:\n        /* \"#utility.yul\":7616:7625   */\n      dup1\n      dup3\n      mul\n        /* \"#utility.yul\":7647:7656   */\n      dup2\n      iszero\n        /* \"#utility.yul\":7664:7679   */\n      dup3\n      dup3\n      div\n        /* \"#utility.yul\":7658:7680   */\n      dup5\n      eq\n        /* \"#utility.yul\":7644:7681   */\n      or\n        /* \"#utility.yul\":7634:7705   */\n      tag_239\n      jumpi\n        /* \"#utility.yul\":7685:7703   */\n      tag_239\n      tag_834\n      jump\t// in\n        /* \"#utility.yul\":7716:7844   */\n    tag_267:\n        /* \"#utility.yul\":7783:7792   */\n      dup2\n      dup2\n      sub\n        /* \"#utility.yul\":7804:7815   */\n      dup2\n      dup2\n      gt\n        /* \"#utility.yul\":7801:7838   */\n      iszero\n      tag_239\n      jumpi\n        /* \"#utility.yul\":7818:7836   */\n      tag_239\n      tag_834\n      jump\t// in\n        /* \"#utility.yul\":7849:8224   */\n    tag_835:\n        /* \"#utility.yul\":7937:7938   */\n      0x01\n        /* \"#utility.yul\":7955:7960   */\n      dup2\n        /* \"#utility.yul\":7969:8218   */\n    tag_896:\n        /* \"#utility.yul\":7990:7991   */\n      0x01\n        /* \"#utility.yul\":7980:7988   */\n      dup5\n        /* \"#utility.yul\":7977:7992   */\n      gt\n        /* \"#utility.yul\":7969:8218   */\n      iszero\n      tag_898\n      jumpi\n        /* \"#utility.yul\":8040:8044   */\n      dup1\n        /* \"#utility.yul\":8035:8038   */\n      dup6\n        /* \"#utility.yul\":8031:8045   */\n      div\n        /* \"#utility.yul\":8025:8029   */\n      dup2\n        /* \"#utility.yul\":8022:8046   */\n      gt\n        /* \"#utility.yul\":8019:8069   */\n      iszero\n      tag_900\n      jumpi\n        /* \"#utility.yul\":8049:8067   */\n      tag_900\n      tag_834\n      jump\t// in\n    tag_900:\n        /* \"#utility.yul\":8099:8100   */\n      0x01\n        /* \"#utility.yul\":8089:8097   */\n      dup5\n        /* \"#utility.yul\":8085:8101   */\n      and\n        /* \"#utility.yul\":8082:8131   */\n      iszero\n      tag_901\n      jumpi\n        /* \"#utility.yul\":8113:8129   */\n      swap1\n      dup2\n      mul\n      swap1\n        /* \"#utility.yul\":8082:8131   */\n    tag_901:\n        /* \"#utility.yul\":8196:8197   */\n      0x01\n        /* \"#utility.yul\":8192:8208   */\n      swap4\n      swap1\n      swap4\n      shr\n      swap3\n        /* \"#utility.yul\":8152:8167   */\n      dup1\n      mul\n        /* \"#utility.yul\":7969:8218   */\n      jump(tag_896)\n    tag_898:\n        /* \"#utility.yul\":7849:8224   */\n      swap4\n      pop\n      swap4\n      swap2\n      pop\n      pop\n      jump\t// out\n        /* \"#utility.yul\":8229:9131   */\n    tag_836:\n        /* \"#utility.yul\":8278:8283   */\n      0x00\n        /* \"#utility.yul\":8308:8316   */\n      dup3\n        /* \"#utility.yul\":8298:8378   */\n      tag_903\n      jumpi\n      pop\n        /* \"#utility.yul\":8349:8350   */\n      0x01\n        /* \"#utility.yul\":8363:8368   */\n      jump(tag_239)\n        /* \"#utility.yul\":8298:8378   */\n    tag_903:\n        /* \"#utility.yul\":8397:8401   */\n      dup2\n        /* \"#utility.yul\":8387:8463   */\n      tag_904\n      jumpi\n      pop\n        /* \"#utility.yul\":8434:8435   */\n      0x00\n        /* \"#utility.yul\":8448:8453   */\n      jump(tag_239)\n        /* \"#utility.yul\":8387:8463   */\n    tag_904:\n        /* \"#utility.yul\":8479:8483   */\n      dup2\n        /* \"#utility.yul\":8497:8498   */\n      0x01\n        /* \"#utility.yul\":8492:8551   */\n      dup2\n      eq\n      tag_906\n      jumpi\n        /* \"#utility.yul\":8565:8566   */\n      0x02\n        /* \"#utility.yul\":8560:8734   */\n      dup2\n      eq\n      tag_907\n      jumpi\n        /* \"#utility.yul\":8472:8734   */\n      jump(tag_905)\n        /* \"#utility.yul\":8492:8551   */\n    tag_906:\n        /* \"#utility.yul\":8522:8523   */\n      0x01\n        /* \"#utility.yul\":8513:8523   */\n      swap2\n      pop\n        /* \"#utility.yul\":8536:8541   */\n      pop\n      jump(tag_239)\n        /* \"#utility.yul\":8560:8734   */\n    tag_907:\n        /* \"#utility.yul\":8597:8600   */\n      0xff\n        /* \"#utility.yul\":8587:8595   */\n      dup5\n        /* \"#utility.yul\":8584:8601   */\n      gt\n        /* \"#utility.yul\":8581:8624   */\n      iszero\n      tag_909\n      jumpi\n        /* \"#utility.yul\":8604:8622   */\n      tag_909\n      tag_834\n      jump\t// in\n    tag_909:\n      pop\n      pop\n        /* \"#utility.yul\":8660:8661   */\n      0x01\n        /* \"#utility.yul\":8646:8662   */\n      dup3\n      shl\n        /* \"#utility.yul\":8719:8724   */\n      jump(tag_239)\n        /* \"#utility.yul\":8472:8734   */\n    tag_905:\n      pop\n        /* \"#utility.yul\":8818:8820   */\n      0x20\n        /* \"#utility.yul\":8808:8816   */\n      dup4\n        /* \"#utility.yul\":8805:8821   */\n      lt\n        /* \"#utility.yul\":8799:8802   */\n      0x0133\n        /* \"#utility.yul\":8793:8797   */\n      dup4\n        /* \"#utility.yul\":8790:8803   */\n      lt\n        /* \"#utility.yul\":8786:8822   */\n      and\n        /* \"#utility.yul\":8780:8782   */\n      0x4e\n        /* \"#utility.yul\":8770:8778   */\n      dup5\n        /* \"#utility.yul\":8767:8783   */\n      lt\n        /* \"#utility.yul\":8762:8764   */\n      0x0b\n        /* \"#utility.yul\":8756:8760   */\n      dup5\n        /* \"#utility.yul\":8753:8765   */\n      lt\n        /* \"#utility.yul\":8749:8784   */\n      and\n        /* \"#utility.yul\":8746:8823   */\n      or\n        /* \"#utility.yul\":8743:8946   */\n      iszero\n      tag_910\n      jumpi\n      pop\n        /* \"#utility.yul\":8855:8874   */\n      dup2\n      dup2\n      exp\n        /* \"#utility.yul\":8931:8936   */\n      jump(tag_239)\n        /* \"#utility.yul\":8743:8946   */\n    tag_910:\n        /* \"#utility.yul\":8978:9020   */\n      tag_911\n      not(0x00)\n        /* \"#utility.yul\":9003:9011   */\n      dup5\n        /* \"#utility.yul\":8997:9001   */\n      dup5\n        /* \"#utility.yul\":8978:9020   */\n      tag_835\n      jump\t// in\n    tag_911:\n        /* \"#utility.yul\":9056:9062   */\n      dup1\n        /* \"#utility.yul\":9052:9053   */\n      0x00\n        /* \"#utility.yul\":9048:9054   */\n      not\n        /* \"#utility.yul\":9044:9063   */\n      div\n        /* \"#utility.yul\":9035:9042   */\n      dup3\n        /* \"#utility.yul\":9032:9064   */\n      gt\n        /* \"#utility.yul\":9029:9087   */\n      iszero\n      tag_913\n      jumpi\n        /* \"#utility.yul\":9067:9085   */\n      tag_913\n      tag_834\n      jump\t// in\n    tag_913:\n        /* \"#utility.yul\":9105:9125   */\n      mul\n      swap4\n        /* \"#utility.yul\":8229:9131   */\n      swap3\n      pop\n      pop\n      pop\n      jump\t// out\n        /* \"#utility.yul\":9136:9267   */\n    tag_269:\n        /* \"#utility.yul\":9196:9201   */\n      0x00\n        /* \"#utility.yul\":9225:9261   */\n      tag_824\n        /* \"#utility.yul\":9252:9260   */\n      dup4\n        /* \"#utility.yul\":9246:9250   */\n      dup4\n        /* \"#utility.yul\":9225:9261   */\n      tag_836\n      jump\t// in\n        /* \"#utility.yul\":9627:9844   */\n    tag_278:\n        /* \"#utility.yul\":9667:9668   */\n      0x00\n        /* \"#utility.yul\":9693:9694   */\n      dup3\n        /* \"#utility.yul\":9683:9815   */\n      tag_918\n      jumpi\n        /* \"#utility.yul\":9737:9747   */\n      0x4e487b71\n        /* \"#utility.yul\":9732:9735   */\n      0xe0\n        /* \"#utility.yul\":9728:9748   */\n      shl\n        /* \"#utility.yul\":9725:9726   */\n      0x00\n        /* \"#utility.yul\":9718:9749   */\n      mstore\n        /* \"#utility.yul\":9772:9776   */\n      0x12\n        /* \"#utility.yul\":9769:9770   */\n      0x04\n        /* \"#utility.yul\":9762:9777   */\n      mstore\n        /* \"#utility.yul\":9800:9804   */\n      0x24\n        /* \"#utility.yul\":9797:9798   */\n      0x00\n        /* \"#utility.yul\":9790:9805   */\n      revert\n        /* \"#utility.yul\":9683:9815   */\n    tag_918:\n      pop\n        /* \"#utility.yul\":9829:9838   */\n      div\n      swap1\n        /* \"#utility.yul\":9627:9844   */\n      jump\t// out\n        /* \"#utility.yul\":9849:10028   */\n    tag_837:\n        /* \"#utility.yul\":9927:9940   */\n      dup1\n      mload\n        /* \"#utility.yul\":9980:10002   */\n      0xffffffffffffffffffff\n        /* \"#utility.yul\":9969:10003   */\n      dup2\n      and\n        /* \"#utility.yul\":9959:10004   */\n      dup2\n      eq\n        /* \"#utility.yul\":9949:10022   */\n      tag_308\n      jumpi\n        /* \"#utility.yul\":10018:10019   */\n      0x00\n        /* \"#utility.yul\":10015:10016   */\n      0x00\n        /* \"#utility.yul\":10008:10020   */\n      revert\n        /* \"#utility.yul\":10033:10604   */\n    tag_289:\n        /* \"#utility.yul\":10136:10142   */\n      0x00\n        /* \"#utility.yul\":10144:10150   */\n      0x00\n        /* \"#utility.yul\":10152:10158   */\n      0x00\n        /* \"#utility.yul\":10160:10166   */\n      0x00\n        /* \"#utility.yul\":10168:10174   */\n      0x00\n        /* \"#utility.yul\":10221:10224   */\n      0xa0\n        /* \"#utility.yul\":10209:10218   */\n      dup7\n        /* \"#utility.yul\":10200:10207   */\n      dup9\n        /* \"#utility.yul\":10196:10219   */\n      sub\n        /* \"#utility.yul\":10192:10225   */\n      slt\n        /* \"#utility.yul\":10189:10242   */\n      iszero\n      tag_922\n      jumpi\n        /* \"#utility.yul\":10238:10239   */\n      0x00\n        /* \"#utility.yul\":10235:10236   */\n      0x00\n        /* \"#utility.yul\":10228:10240   */\n      revert\n        /* \"#utility.yul\":10189:10242   */\n    tag_922:\n        /* \"#utility.yul\":10261:10300   */\n      tag_923\n        /* \"#utility.yul\":10290:10299   */\n      dup7\n        /* \"#utility.yul\":10261:10300   */\n      tag_837\n      jump\t// in\n    tag_923:\n        /* \"#utility.yul\":10340:10342   */\n      0x20\n        /* \"#utility.yul\":10325:10343   */\n      dup8\n      add\n        /* \"#utility.yul\":10319:10344   */\n      mload\n        /* \"#utility.yul\":10406:10408   */\n      0x40\n        /* \"#utility.yul\":10391:10409   */\n      dup9\n      add\n        /* \"#utility.yul\":10385:10410   */\n      mload\n        /* \"#utility.yul\":10500:10502   */\n      0x60\n        /* \"#utility.yul\":10485:10503   */\n      dup10\n      add\n        /* \"#utility.yul\":10479:10504   */\n      mload\n        /* \"#utility.yul\":10251:10300   */\n      swap3\n      swap8\n      pop\n        /* \"#utility.yul\":10319:10344   */\n      swap1\n      swap6\n      pop\n        /* \"#utility.yul\":10385:10410   */\n      swap4\n      pop\n        /* \"#utility.yul\":10479:10504   */\n      swap2\n      pop\n        /* \"#utility.yul\":10549:10598   */\n      tag_924\n        /* \"#utility.yul\":10593:10596   */\n      0x80\n        /* \"#utility.yul\":10578:10597   */\n      dup8\n      add\n        /* \"#utility.yul\":10549:10598   */\n      tag_837\n      jump\t// in\n    tag_924:\n        /* \"#utility.yul\":10539:10598   */\n      swap1\n      pop\n        /* \"#utility.yul\":10033:10604   */\n      swap3\n      swap6\n      pop\n      swap3\n      swap6\n      swap1\n      swap4\n      pop\n      jump\t// out\n        /* \"#utility.yul\":11304:11649   */\n    tag_356:\n        /* \"#utility.yul\":11506:11508   */\n      0x20\n        /* \"#utility.yul\":11488:11509   */\n      dup1\n      dup3\n      mstore\n        /* \"#utility.yul\":11545:11547   */\n      0x15\n        /* \"#utility.yul\":11525:11543   */\n      swap1\n      dup3\n      add\n        /* \"#utility.yul\":11518:11548   */\n      mstore\n      shl(0x5a, 0x1250d3c8185b1c9958591e48199a5b985b1a5e9959)\n        /* \"#utility.yul\":11579:11581   */\n      0x40\n        /* \"#utility.yul\":11564:11582   */\n      dup3\n      add\n        /* \"#utility.yul\":11557:11608   */\n      mstore\n        /* \"#utility.yul\":11640:11642   */\n      0x60\n        /* \"#utility.yul\":11625:11643   */\n      add\n      swap1\n        /* \"#utility.yul\":11304:11649   */\n      jump\t// out\n        /* \"#utility.yul\":11654:11984   */\n    tag_360:\n        /* \"#utility.yul\":11856:11858   */\n      0x20\n        /* \"#utility.yul\":11838:11859   */\n      dup1\n      dup3\n      mstore\n        /* \"#utility.yul\":11895:11896   */\n      0x07\n        /* \"#utility.yul\":11875:11893   */\n      swap1\n      dup3\n      add\n        /* \"#utility.yul\":11868:11897   */\n      mstore\n      shl(0xca, 0x199c99595e9959)\n        /* \"#utility.yul\":11928:11930   */\n      0x40\n        /* \"#utility.yul\":11913:11931   */\n      dup3\n      add\n        /* \"#utility.yul\":11906:11943   */\n      mstore\n        /* \"#utility.yul\":11975:11977   */\n      0x60\n        /* \"#utility.yul\":11960:11978   */\n      add\n      swap1\n        /* \"#utility.yul\":11654:11984   */\n      jump\t// out\n        /* \"#utility.yul\":13041:13166   */\n    tag_413:\n        /* \"#utility.yul\":13106:13115   */\n      dup1\n      dup3\n      add\n        /* \"#utility.yul\":13127:13137   */\n      dup1\n      dup3\n      gt\n        /* \"#utility.yul\":13124:13160   */\n      iszero\n      tag_239\n      jumpi\n        /* \"#utility.yul\":13140:13158   */\n      tag_239\n      tag_834\n      jump\t// in\n        /* \"#utility.yul\":14527:14654   */\n    tag_452:\n        /* \"#utility.yul\":14588:14598   */\n      0x4e487b71\n        /* \"#utility.yul\":14583:14586   */\n      0xe0\n        /* \"#utility.yul\":14579:14599   */\n      shl\n        /* \"#utility.yul\":14576:14577   */\n      0x00\n        /* \"#utility.yul\":14569:14600   */\n      mstore\n        /* \"#utility.yul\":14619:14623   */\n      0x32\n        /* \"#utility.yul\":14616:14617   */\n      0x04\n        /* \"#utility.yul\":14609:14624   */\n      mstore\n        /* \"#utility.yul\":14643:14647   */\n      0x24\n        /* \"#utility.yul\":14640:14641   */\n      0x00\n        /* \"#utility.yul\":14633:14648   */\n      revert\n        /* \"#utility.yul\":15494:15771   */\n    tag_503:\n        /* \"#utility.yul\":15561:15567   */\n      0x00\n        /* \"#utility.yul\":15614:15616   */\n      0x20\n        /* \"#utility.yul\":15602:15611   */\n      dup3\n        /* \"#utility.yul\":15593:15600   */\n      dup5\n        /* \"#utility.yul\":15589:15612   */\n      sub\n        /* \"#utility.yul\":15585:15617   */\n      slt\n        /* \"#utility.yul\":15582:15634   */\n      iszero\n      tag_944\n      jumpi\n        /* \"#utility.yul\":15630:15631   */\n      0x00\n        /* \"#utility.yul\":15627:15628   */\n      0x00\n        /* \"#utility.yul\":15620:15632   */\n      revert\n        /* \"#utility.yul\":15582:15634   */\n    tag_944:\n        /* \"#utility.yul\":15662:15671   */\n      dup2\n        /* \"#utility.yul\":15656:15672   */\n      mload\n        /* \"#utility.yul\":15715:15720   */\n      dup1\n        /* \"#utility.yul\":15708:15721   */\n      iszero\n        /* \"#utility.yul\":15701:15722   */\n      iszero\n        /* \"#utility.yul\":15694:15699   */\n      dup2\n        /* \"#utility.yul\":15691:15723   */\n      eq\n        /* \"#utility.yul\":15681:15741   */\n      tag_824\n      jumpi\n        /* \"#utility.yul\":15737:15738   */\n      0x00\n        /* \"#utility.yul\":15734:15735   */\n      0x00\n        /* \"#utility.yul\":15727:15739   */\n      revert\n        /* \"#utility.yul\":16129:16370   */\n    tag_838:\n        /* \"#utility.yul\":16214:16215   */\n      0x03\n        /* \"#utility.yul\":16207:16212   */\n      dup2\n        /* \"#utility.yul\":16204:16216   */\n      lt\n        /* \"#utility.yul\":16194:16337   */\n      tag_948\n      jumpi\n        /* \"#utility.yul\":16259:16269   */\n      0x4e487b71\n        /* \"#utility.yul\":16254:16257   */\n      0xe0\n        /* \"#utility.yul\":16250:16270   */\n      shl\n        /* \"#utility.yul\":16247:16248   */\n      0x00\n        /* \"#utility.yul\":16240:16271   */\n      mstore\n        /* \"#utility.yul\":16294:16298   */\n      0x21\n        /* \"#utility.yul\":16291:16292   */\n      0x04\n        /* \"#utility.yul\":16284:16299   */\n      mstore\n        /* \"#utility.yul\":16322:16326   */\n      0x24\n        /* \"#utility.yul\":16319:16320   */\n      0x00\n        /* \"#utility.yul\":16312:16327   */\n      revert\n        /* \"#utility.yul\":16194:16337   */\n    tag_948:\n        /* \"#utility.yul\":16346:16364   */\n      swap1\n      mstore\n        /* \"#utility.yul\":16129:16370   */\n      jump\t// out\n        /* \"#utility.yul\":16375:16662   */\n    tag_508:\n        /* \"#utility.yul\":16565:16590   */\n      dup3\n      dup2\n      mstore\n        /* \"#utility.yul\":16553:16555   */\n      0x40\n        /* \"#utility.yul\":16538:16556   */\n      dup2\n      add\n        /* \"#utility.yul\":16599:16656   */\n      tag_824\n        /* \"#utility.yul\":16652:16654   */\n      0x20\n        /* \"#utility.yul\":16637:16655   */\n      dup4\n      add\n        /* \"#utility.yul\":16629:16635   */\n      dup5\n        /* \"#utility.yul\":16599:16656   */\n      tag_838\n      jump\t// in\n        /* \"#utility.yul\":16667:16794   */\n    tag_511:\n        /* \"#utility.yul\":16728:16738   */\n      0x4e487b71\n        /* \"#utility.yul\":16723:16726   */\n      0xe0\n        /* \"#utility.yul\":16719:16739   */\n      shl\n        /* \"#utility.yul\":16716:16717   */\n      0x00\n        /* \"#utility.yul\":16709:16740   */\n      mstore\n        /* \"#utility.yul\":16759:16763   */\n      0x31\n        /* \"#utility.yul\":16756:16757   */\n      0x04\n        /* \"#utility.yul\":16749:16764   */\n      mstore\n        /* \"#utility.yul\":16783:16787   */\n      0x24\n        /* \"#utility.yul\":16780:16781   */\n      0x00\n        /* \"#utility.yul\":16773:16788   */\n      revert\n        /* \"#utility.yul\":16799:16935   */\n    tag_515:\n        /* \"#utility.yul\":16838:16841   */\n      0x00\n        /* \"#utility.yul\":16866:16871   */\n      dup2\n        /* \"#utility.yul\":16856:16895   */\n      tag_954\n      jumpi\n        /* \"#utility.yul\":16875:16893   */\n      tag_954\n      tag_834\n      jump\t// in\n    tag_954:\n      pop\n      not(0x00)\n        /* \"#utility.yul\":16911:16929   */\n      add\n      swap1\n        /* \"#utility.yul\":16799:16935   */\n      jump\t// out\n        /* \"#utility.yul\":17294:17524   */\n    tag_539:\n        /* \"#utility.yul\":17364:17370   */\n      0x00\n        /* \"#utility.yul\":17417:17419   */\n      0x20\n        /* \"#utility.yul\":17405:17414   */\n      dup3\n        /* \"#utility.yul\":17396:17403   */\n      dup5\n        /* \"#utility.yul\":17392:17415   */\n      sub\n        /* \"#utility.yul\":17388:17420   */\n      slt\n        /* \"#utility.yul\":17385:17437   */\n      iszero\n      tag_957\n      jumpi\n        /* \"#utility.yul\":17433:17434   */\n      0x00\n        /* \"#utility.yul\":17430:17431   */\n      0x00\n        /* \"#utility.yul\":17423:17435   */\n      revert\n        /* \"#utility.yul\":17385:17437   */\n    tag_957:\n      pop\n        /* \"#utility.yul\":17478:17494   */\n      mload\n      swap2\n        /* \"#utility.yul\":17294:17524   */\n      swap1\n      pop\n      jump\t// out\n        /* \"#utility.yul\":21388:21818   */\n    tag_660:\n        /* \"#utility.yul\":21635:21660   */\n      dup5\n      dup2\n      mstore\n        /* \"#utility.yul\":21691:21693   */\n      0x20\n        /* \"#utility.yul\":21676:21694   */\n      dup2\n      add\n        /* \"#utility.yul\":21669:21703   */\n      dup5\n      swap1\n      mstore\n        /* \"#utility.yul\":21734:21736   */\n      0x40\n        /* \"#utility.yul\":21719:21737   */\n      dup2\n      add\n        /* \"#utility.yul\":21712:21746   */\n      dup4\n      swap1\n      mstore\n        /* \"#utility.yul\":21622:21625   */\n      0x80\n        /* \"#utility.yul\":21607:21626   */\n      dup2\n      add\n        /* \"#utility.yul\":21755:21812   */\n      tag_814\n        /* \"#utility.yul\":21808:21810   */\n      0x60\n        /* \"#utility.yul\":21793:21811   */\n      dup4\n      add\n        /* \"#utility.yul\":21785:21791   */\n      dup5\n        /* \"#utility.yul\":21755:21812   */\n      tag_838\n      jump\t// in\n        /* \"#utility.yul\":23268:23569   */\n    tag_810:\n        /* \"#utility.yul\":23397:23400   */\n      0x00\n        /* \"#utility.yul\":23435:23441   */\n      dup3\n        /* \"#utility.yul\":23429:23442   */\n      mload\n        /* \"#utility.yul\":23481:23487   */\n      dup1\n        /* \"#utility.yul\":23474:23478   */\n      0x20\n        /* \"#utility.yul\":23466:23472   */\n      dup6\n        /* \"#utility.yul\":23462:23479   */\n      add\n        /* \"#utility.yul\":23457:23460   */\n      dup5\n        /* \"#utility.yul\":23451:23488   */\n      mcopy\n        /* \"#utility.yul\":23543:23544   */\n      0x00\n        /* \"#utility.yul\":23507:23523   */\n      swap3\n      add\n        /* \"#utility.yul\":23532:23545   */\n      swap2\n      dup3\n      mstore\n      pop\n        /* \"#utility.yul\":23507:23523   */\n      swap2\n        /* \"#utility.yul\":23268:23569   */\n      swap1\n      pop\n      jump\t// out\n    stop\n    data_75b20eef8615de99c108b05f0dbda081c91897128caa336d75dffb97c4132b4d 360894a13ba1a3210667c828492db98dca3e2076cc3735a920a3ca505d382bbc\n    data_c8669cf8eaf883002b9f48e28846a8d408c9b58ea6613bace374265e43c9bc43 9b779b17422d0df92223018b32b4d1fa46e071723d6817e2486d003becc55f00\n\n    auxdata: 0xa264697066735822122036d78f6cbc8b1932872996a08d570c5c340e8650b041e787bddd4f3228ef8c5364736f6c634300081c0033\n}\n",
				"bytecode": {
					"linkReferences": {},
					"object": "60a0604052306080523480156012575f5ffd5b50608051612f856100395f395f81816125570152818161258001526126bf0152612f855ff3fe608060405260043610610241575f3560e01c80637fb1200111610134578063b3fdafb9116100b3578063c81ffdea11610078578063c81ffdea14610723578063d1f3b23e1461074e578063e8e8738914610767578063f2fde38b14610792578063fc0c546a146107b1578063fd663da2146107d0575f5ffd5b8063b3fdafb9146105d4578063b5f522f7146105f3578063b9469e1a14610668578063c1560a1414610687578063c211e1f91461069c575f5ffd5b8063960524e3116100f9578063960524e3146105305780639fa8adb814610544578063a1c4b5a214610563578063a1e89aec14610582578063ad3cb1cc14610597575f5ffd5b80637fb12001146104c95780638da5cb5b146104dd57806391152c5c146104f157806391d8730a14610505578063940c333e1461051d575f5ffd5b80633feb5f2b116101c057806363b201171161018557806363b20117146104585780636c1909ed1461046d578063715018a61461048c578063721bc38b146104a05780637cf12b90146104b5575f5ffd5b80633feb5f2b146103e05780634dee1dc3146103ff5780634f1ef2861461041d57806352d1902d1461043057806362a5af3b14610444575f5ffd5b80632151206e116102065780632151206e1461034057806323cc75a8146103555780632593198d1461036b5780632f48ab7d1461038a5780633e413bee146103c1575f5ffd5b806305834e671461029757806306e4d36f146102c9578063115afc3a146102ee578063117d260f1461030d578063212ea2471461032c575f5ffd5b366102935760405162461bcd60e51b815260206004820181905260248201527f44697265637420424e42207472616e7366657273206e6f7420616c6c6f77656460448201526064015b60405180910390fd5b5f5ffd5b3480156102a2575f5ffd5b506102b66102b13660046129b6565b6107ef565b6040519081526020015b60405180910390f35b3480156102d4575f5ffd5b5060045460075410155b60405190151581526020016102c0565b3480156102f9575f5ffd5b506102b66103083660046129de565b61096d565b348015610318575f5ffd5b506102b66103273660046129b6565b610acb565b348015610337575f5ffd5b506006546102b6565b34801561034b575f5ffd5b506102b660045481565b348015610360575f5ffd5b50610369610c61565b005b348015610376575f5ffd5b506102b66103853660046129f7565b610daf565b348015610395575f5ffd5b50600b546103a9906001600160a01b031681565b6040516001600160a01b0390911681526020016102c0565b3480156103cc575f5ffd5b50600c546103a9906001600160a01b031681565b3480156103eb575f5ffd5b506103a96103fa3660046129f7565b610dc2565b34801561040a575f5ffd5b506009546102de90610100900460ff1681565b61036961042b366004612a36565b610dea565b34801561043b575f5ffd5b506102b6610e09565b34801561044f575f5ffd5b50610369610e24565b348015610463575f5ffd5b506102b660085481565b348015610478575f5ffd5b50610369610487366004612afc565b610e68565b348015610497575f5ffd5b50610369610fe0565b3480156104ab575f5ffd5b506102b660075481565b3480156104c0575f5ffd5b50610369610ff1565b3480156104d4575f5ffd5b50610369611053565b3480156104e8575f5ffd5b506103a96114fc565b3480156104fc575f5ffd5b5061036961152a565b348015610510575f5ffd5b50600554600754146102de565b61036961052b3660046129b6565b6118f7565b34801561053b575f5ffd5b50600a546102b6565b34801561054f575f5ffd5b506102b661055e3660046129f7565b611f40565b34801561056e575f5ffd5b506102b661057d3660046129f7565b611f53565b34801561058d575f5ffd5b506102b660065481565b3480156105a2575f5ffd5b506105c7604051806040016040528060058152602001640352e302e360dc1b81525081565b6040516102c09190612b25565b3480156105df575f5ffd5b506102b66105ee3660046129f7565b611f63565b3480156105fe575f5ffd5b5061063e61060d3660046129f7565b600d6020525f9081526040902080546001820154600283015460038401546004909401549293919290919060ff1685565b6040805195865260208601949094529284019190915260608301521515608082015260a0016102c0565b348015610673575f5ffd5b506009546102de9062010000900460ff1681565b348015610692575f5ffd5b506102b660055481565b3480156106a7575f5ffd5b5061070e6106b63660046129f7565b506006545f908152600d6020908152604091829020825160a081018452815480825260018301549382018490526002830154948201949094526003820154606082015260049091015460ff1615156080909101529091565b604080519283526020830191909152016102c0565b34801561072e575f5ffd5b506102b661073d366004612b5a565b600e6020525f908152604090205481565b348015610759575f5ffd5b506009546102de9060ff1681565b348015610772575f5ffd5b506102b6610781366004612b5a565b600f6020525f908152604090205481565b34801561079d575f5ffd5b506103696107ac366004612b5a565b611f73565b3480156107bc575f5ffd5b506003546103a9906001600160a01b031681565b3480156107db575f5ffd5b506103696107ea366004612b75565b611fb0565b5f5f6107fd61057d8561096d565b9050805f036108435760405162461bcd60e51b8152602060048201526012602482015271125b9d985b1a59081c1c9a58d9481999595960721b604482015260640161028a565b5f61084d60065490565b5f818152600d60205260408120600281015492935091908088600281111561087757610877612c07565b036108905761088961055e8887612c2f565b9050610949565b60028860028111156108a4576108a4612c07565b14806108c1575060018860028111156108bf576108bf612c07565b145b156109015760065f6108d4826012612c46565b6108df90600a612d3c565b6108e9908a612c2f565b90506108f861055e8289612c2f565b92505050610949565b60405162461bcd60e51b815260206004820152601a60248201527f556e737570706f72746564207061796d656e74206d6574686f64000000000000604482015260640161028a565b5f8261095483610daf565b61095e9190612d47565b96505050505050505b92915050565b5f8082600281111561098157610981612c07565b03610a06575f5f5f9054906101000a90046001600160a01b03166001600160a01b031663feaf968c6040518163ffffffff1660e01b815260040160a060405180830381865afa1580156109d6573d5f5f3e3d5ffd5b505050506040513d601f19601f820116820180604052508101906109fa9190612d7f565b50919695505050505050565b6001826002811115610a1a57610a1a612c07565b03610a665760015460408051633fabe5a360e21b815290515f926001600160a01b03169163feaf968c9160048083019260a09291908290030181865afa1580156109d6573d5f5f3e3d5ffd5b6002826002811115610a7a57610a7a612c07565b036109015760025460408051633fabe5a360e21b815290515f926001600160a01b03169163feaf968c9160048083019260a09291908290030181865afa1580156109d6573d5f5f3e3d5ffd5b919050565b5f815f03610b1b5760405162461bcd60e51b815260206004820152601760248201527f416d6f756e74206d75737420626520706f736974697665000000000000000000604482015260640161028a565b5f610b2861057d8561096d565b9050805f03610b6e5760405162461bcd60e51b8152602060048201526012602482015271125b9d985b1a59081c1c9a58d9481999595960721b604482015260640161028a565b5f610b7860065490565b9050805f03610bba5760405162461bcd60e51b815260206004820152600e60248201526d4e6f206163746976652073616c6560901b604482015260640161028a565b5f818152600d6020526040812060028101549091610bdb61055e8389612c2f565b90505f80896002811115610bf157610bf1612c07565b03610c115785610c0083610daf565b610c0a9190612d47565b9050610c55565b6001896002811115610c2557610c25612c07565b1480610c4257506002896002811115610c4057610c40612c07565b145b156109015785610c0083620f4240612c2f565b98975050505050505050565b610c696121be565b610c716121f5565b60095460ff1615610c945760405162461bcd60e51b815260040161028a90612dcd565b60095462010000900460ff1615610cbd5760405162461bcd60e51b815260040161028a90612dfc565b6004546007541015610d085760405162461bcd60e51b815260206004820152601460248201527314dbd99d0810d85c081393dd0814995858da195960621b604482015260640161028a565b600954610100900460ff16610d575760405162461bcd60e51b8152602060048201526015602482015274105a5c991c9bdc081b9bdd0818dbdb5c1b195d1959605a1b604482015260640161028a565b6009805460ff19166001179055610d6c612227565b6008546040517f9c4b134da32aab35252391880a9f2a3c13a760d7817ae8823f2b301d3522045a905f90a2610dad60015f516020612f305f395f51905f5255565b565b5f61096782670de0b6b3a7640000612c2f565b600a8181548110610dd1575f80fd5b5f918252602090912001546001600160a01b0316905081565b610df261254c565b610dfb826125f0565b610e0582826125f8565b5050565b5f610e126126b4565b505f516020612f105f395f51905f5290565b610e2c6121f5565b60095462010000900460ff1615610e555760405162461bcd60e51b815260040161028a90612dfc565b6009805462ff0000191662010000179055565b610e706121be565b610e786121f5565b60095460ff1615610e9b5760405162461bcd60e51b815260040161028a90612dcd565b60095462010000900460ff1615610ec45760405162461bcd60e51b815260040161028a90612dfc565b4283118015610ed257508282115b8015610ef057506006545f908152600d602052604090206001015442115b610f3c5760405162461bcd60e51b815260206004820152601860248201527f496e76616c69642073746172742074696d652072616e67650000000000000000604482015260640161028a565b600654610f4a906001612e1d565b60068181555f918252600d602090815260408084208781556001810187905560028101869055600381019490945560048401805460ff19169055915482518781529182018690529181018490527f63b43fa153147ade1de28ed76841cdbc34e510ed94dd1ff5a88e278b0b1ad9ba9060600160405180910390a250610fdb60015f516020612f305f395f51905f5255565b505050565b610fe86121f5565b610dad5f6126fd565b610ff96121f5565b60095462010000900460ff166110455760405162461bcd60e51b8152602060048201526011602482015270105b1c9958591e48155b919c99595e9959607a1b604482015260640161028a565b6009805462ff000019169055565b61105b6121be565b6110636121f5565b60095460ff16156110865760405162461bcd60e51b815260040161028a90612dcd565b6006545f908152600d602052604090206001015442116110d75760405162461bcd60e51b815260206004820152600c60248201526b53616c65206f6e676f696e6760a01b604482015260640161028a565b6004546007541061111d5760405162461bcd60e51b815260206004820152601060248201526f14dbd99d0818d85c081c995858da195960821b604482015260640161028a565b600a8054905f9082111561113d57611136600b83612c46565b9050611140565b505f5b5f61114c600184612c46565b90505b8181106114cc575f600a828154811061116a5761116a612e30565b5f9182526020822001546001600160a01b031691505b60038160ff161015611477575f8160ff1660028111156111a2576111a2612c07565b6001600160a01b0384165f90815260116020526040812091925090818360028111156111d0576111d0612c07565b60028111156111e1576111e1612c07565b81526020019081526020015f205490505f81111561146d576001600160a01b0384165f9081526011602052604081208184600281111561122357611223612c07565b600281111561123457611234612c07565b815260208101919091526040015f9081209190915582600281111561125b5761125b612c07565b036112f9575f846001600160a01b0316826040515f6040518083038185875af1925050503d805f81146112a9576040519150601f19603f3d011682016040523d82523d5f602084013e6112ae565b606091505b50509050806112f35760405162461bcd60e51b8152602060048201526011602482015270109390881c99599d5b990819985a5b1959607a1b604482015260640161028a565b50611429565b600182600281111561130d5761130d612c07565b148061132a5750600282600281111561132857611328612c07565b145b15611429575f600183600281111561134457611344612c07565b1461135a57600c546001600160a01b0316611367565b600b546001600160a01b03165b60405163a9059cbb60e01b81526001600160a01b038781166004830152602482018590529192509082169063a9059cbb906044016020604051808303815f875af11580156113b7573d5f5f3e3d5ffd5b505050506040513d601f19601f820116820180604052508101906113db9190612e44565b6114275760405162461bcd60e51b815260206004820152601860248201527f537461626c65636f696e20726566756e64206661696c65640000000000000000604482015260640161028a565b505b836001600160a01b03167f03829ab241648d7348f97e4f77d36451330f2276ea8eeb3428e462012f9699e78284604051611464929190612e83565b60405180910390a25b5050600101611180565b50600a80548061148957611489612e97565b5f8281526020812082015f1990810180546001600160a01b03191690559091019091558290036114b957506114cc565b50806114c481612eab565b91505061114f565b50600a545f036114e4576009805460ff191660011790555b5050610dad60015f516020612f305f395f51905f5255565b7f9016d09d72d40fdae2fd8ceac6b6234c7706214fd39c1cd1e609a0528c199300546001600160a01b031690565b6115326121be565b61153a6121f5565b60095460ff161561155d5760405162461bcd60e51b815260040161028a90612dcd565b60095462010000900460ff16156115865760405162461bcd60e51b815260040161028a90612dfc565b600954610100900460ff16156115de5760405162461bcd60e51b815260206004820152601960248201527f41697264726f7020616c726561647920636f6d706c6574656400000000000000604482015260640161028a565b6008546003546040516370a0823160e01b81523360048201526001600160a01b03909116906370a0823190602401602060405180830381865afa158015611627573d5f5f3e3d5ffd5b505050506040513d601f19601f8201168201806040525081019061164b9190612ec0565b101561168e5760405162461bcd60e51b8152602060048201526012602482015271496e73756666696369656e742046756e647360701b604482015260640161028a565b6006545f908152600d602052604090206001015442116116df5760405162461bcd60e51b815260206004820152600c60248201526b53616c65206f6e676f696e6760a01b604482015260640161028a565b600a8054905f908211156116ff576116f8600b83612c46565b9050611702565b505f5b5f61170e600184612c46565b90505b8181106118c6575f600a828154811061172c5761172c612e30565b5f9182526020808320909101546001600160a01b0316808352600f90915260409091205490915080156118a3576003546001600160a01b03166323b872dd6117726114fc565b6040516001600160e01b031960e084901b1681526001600160a01b0391821660048201529085166024820152604481018490526064016020604051808303815f875af11580156117c4573d5f5f3e3d5ffd5b505050506040513d601f19601f820116820180604052508101906117e89190612e44565b61182c5760405162461bcd60e51b8152602060048201526015602482015274151bdad95b881d1c985b9cd9995c8819985a5b1959605a1b604482015260640161028a565b600a80548061183d5761183d612e97565b5f8281526020902081015f1990810180546001600160a01b03191690550190556040516001600160a01b038316907f9bdcd0cc5503fb9a8dd7311d9617e33108c4b7c8948cc544b16c1fd63c6f475b9061189a9084815260200190565b60405180910390a25b825f036118b15750506118c6565b505080806118be90612eab565b915050611711565b50600a545f036114e4576009805461ff0019166101001790555050610dad60015f516020612f305f395f51905f5255565b6118ff6121be565b60095460ff16156119225760405162461bcd60e51b815260040161028a90612dcd565b60095462010000900460ff161561194b5760405162461bcd60e51b815260040161028a90612dfc565b6119536114fc565b6001600160a01b031633036119aa5760405162461bcd60e51b815260206004820152601760248201527f4f776e65722063616e6e6f742062757920746f6b656e73000000000000000000604482015260640161028a565b6006545f036119e55760405162461bcd60e51b81526020600482015260076024820152664e6f2073616c6560c81b604482015260640161028a565b6006545f908152600d602052604090206004015460ff1615611a425760405162461bcd60e51b815260206004820152601660248201527514d85b1948185b1c9958591e48199a5b985b1a5e995960521b604482015260640161028a565b5f80836002811115611a5657611a56612c07565b03611b1157345f03611aaa5760405162461bcd60e51b815260206004820152601760248201527f53656e6420612076616c696420424e4220616d6f756e74000000000000000000604482015260640161028a565b611ab483346107ef565b335f908152601160205260408120919250349190856002811115611ada57611ada612c07565b6002811115611aeb57611aeb612c07565b81526020019081526020015f205f828254611b069190612e1d565b90915550611ce99050565b6001836002811115611b2557611b25612c07565b1480611b4257506002836002811115611b4057611b40612c07565b145b15611ce957815f03611b8b5760405162461bcd60e51b8152602060048201526012602482015271115b9d195c881d985b1a5908185b5bdd5b9d60721b604482015260640161028a565b5f6001846002811115611ba057611ba0612c07565b14611bb657600c546001600160a01b0316611bc3565b600b546001600160a01b03165b6040516323b872dd60e01b8152336004820152306024820152604481018590529091506001600160a01b038216906323b872dd906064016020604051808303815f875af1158015611c16573d5f5f3e3d5ffd5b505050506040513d601f19601f82011682018060405250810190611c3a9190612e44565b611c865760405162461bcd60e51b815260206004820152601a60248201527f537461626c65636f696e207472616e73666572206661696c6564000000000000604482015260640161028a565b611c9084846107ef565b335f908152601160205260408120919350849190866002811115611cb657611cb6612c07565b6002811115611cc757611cc7612c07565b81526020019081526020015f205f828254611ce29190612e1d565b9091555050505b805f03611d2f5760405162461bcd60e51b8152602060048201526014602482015273125b9d985b1a59081d1bdad95b88185b5bdd5b9d60621b604482015260640161028a565b6006545f908152600d6020526040812060020154670de0b6b3a764000090611d579084612c2f565b611d619190612d47565b905060055481600754611d749190612e1d565b1115611db55760405162461bcd60e51b815260206004820152601060248201526f12185c990818d85c081c995858da195960821b604482015260640161028a565b335f908152600e6020526040902054611dcf908290612e1d565b335f908152600e6020526040902055600754611dec908290612e1d565b6007556006545f908152600d602052604081206003018054849290611e12908490612e1d565b9091555050600854611e25908390612e1d565b600855335f908152600f60205260408120549003611e7f57600a80546001810182555f919091527fc65a7bb8d6351c1cf70c95a316cc6a92839c986682d98bc35f958f4883f9d2a80180546001600160a01b031916331790555b335f908152600f6020526040902054611e99908390612e1d565b335f908152600f60209081526040808320939093556010905220805485919060ff19166001836002811115611ed057611ed0612c07565b02179055506006545f818152600d60205260409081902060020154905133917fdbcef474a632721725d49e3f35d9defe0257100b01d1e4b4b135b14d6fe296e891611f2091879189908b90612ed7565b60405180910390a35050610e0560015f516020612f305f395f51905f5255565b5f610967670de0b6b3a764000083612d47565b5f610967826402540be400612c2f565b5f6109676402540be40083612d47565b611f7b6121f5565b6001600160a01b038116611fa457604051631e4fbdf760e01b81525f600482015260240161028a565b611fad816126fd565b50565b7ff0c57e16840df040f15088dc2f81fe391c3923bec73e23a9662efc9c229c6a008054600160401b810460ff16159067ffffffffffffffff165f81158015611ff55750825b90505f8267ffffffffffffffff1660011480156120115750303b155b90508115801561201f575080155b1561203d5760405163f92ee8a960e01b815260040160405180910390fd5b845467ffffffffffffffff19166001178555831561206757845460ff60401b1916600160401b1785555b6120703361276d565b61207861277e565b8c60035f6101000a8154816001600160a01b0302191690836001600160a01b0316021790555089600481905550886005819055508b600b5f6101000a8154816001600160a01b0302191690836001600160a01b031602179055508a600c5f6101000a8154816001600160a01b0302191690836001600160a01b03160217905550875f5f6101000a8154816001600160a01b0302191690836001600160a01b031602179055508660015f6101000a8154816001600160a01b0302191690836001600160a01b031602179055508560025f6101000a8154816001600160a01b0302191690836001600160a01b0316021790555083156121af57845460ff60401b19168555604051600181527fc7f505b2f371ae2175ee4913f4499e1f2633a7b5936321eed1cdaeb6115181d29060200160405180910390a15b50505050505050505050505050565b5f516020612f305f395f51905f528054600119016121ef57604051633ee5aeb560e01b815260040160405180910390fd5b60029055565b336121fe6114fc565b6001600160a01b031614610dad5760405163118cdaa760e01b815233600482015260240161028a565b30803180156122ca575f6122396114fc565b6001600160a01b0316826040515f6040518083038185875af1925050503d805f8114612280576040519150601f19603f3d011682016040523d82523d5f602084013e612285565b606091505b50509050806122c85760405162461bcd60e51b815260206004820152600f60248201526e151c985b9cd9995c8819985a5b1959608a1b604482015260640161028a565b505b600b546040516370a0823160e01b81526001600160a01b0384811660048301525f9216906370a0823190602401602060405180830381865afa158015612312573d5f5f3e3d5ffd5b505050506040513d601f19601f820116820180604052508101906123369190612ec0565b9050801561240857600b546001600160a01b031663a9059cbb6123576114fc565b6040516001600160e01b031960e084901b1681526001600160a01b039091166004820152602481018490526044016020604051808303815f875af11580156123a1573d5f5f3e3d5ffd5b505050506040513d601f19601f820116820180604052508101906123c59190612e44565b6124085760405162461bcd60e51b81526020600482015260146024820152731554d115081d1c985b9cd9995c8819985a5b195960621b604482015260640161028a565b600c546040516370a0823160e01b81526001600160a01b0385811660048301525f9216906370a0823190602401602060405180830381865afa158015612450573d5f5f3e3d5ffd5b505050506040513d601f19601f820116820180604052508101906124749190612ec0565b9050801561254657600c546001600160a01b031663a9059cbb6124956114fc565b6040516001600160e01b031960e084901b1681526001600160a01b039091166004820152602481018490526044016020604051808303815f875af11580156124df573d5f5f3e3d5ffd5b505050506040513d601f19601f820116820180604052508101906125039190612e44565b6125465760405162461bcd60e51b81526020600482015260146024820152731554d110c81d1c985b9cd9995c8819985a5b195960621b604482015260640161028a565b50505050565b306001600160a01b037f00000000000000000000000000000000000000000000000000000000000000001614806125d257507f00000000000000000000000000000000000000000000000000000000000000006001600160a01b03166125c65f516020612f105f395f51905f52546001600160a01b031690565b6001600160a01b031614155b15610dad5760405163703e46dd60e11b815260040160405180910390fd5b611fad6121f5565b816001600160a01b03166352d1902d6040518163ffffffff1660e01b8152600401602060405180830381865afa925050508015612652575060408051601f3d908101601f1916820190925261264f91810190612ec0565b60015b61267a57604051634c9c8ce360e01b81526001600160a01b038316600482015260240161028a565b5f516020612f105f395f51905f5281146126aa57604051632a87526960e21b81526004810182905260240161028a565b610fdb8383612786565b306001600160a01b037f00000000000000000000000000000000000000000000000000000000000000001614610dad5760405163703e46dd60e11b815260040160405180910390fd5b7f9016d09d72d40fdae2fd8ceac6b6234c7706214fd39c1cd1e609a0528c19930080546001600160a01b031981166001600160a01b03848116918217845560405192169182907f8be0079c531659141344cd1fd0a4f28419497f9722a3daafe3b4186f6b6457e0905f90a3505050565b6127756127db565b611fad81612824565b610dad6127db565b61278f8261282c565b6040516001600160a01b038316907fbc7cd75a20ee27fd9adebab32041f755214dbc6bffa90cc0225b39da2e5c2d3b905f90a28051156127d357610fdb828261288f565b610e05612901565b7ff0c57e16840df040f15088dc2f81fe391c3923bec73e23a9662efc9c229c6a0054600160401b900460ff16610dad57604051631afcd79f60e31b815260040160405180910390fd5b611f7b6127db565b806001600160a01b03163b5f0361286157604051634c9c8ce360e01b81526001600160a01b038216600482015260240161028a565b5f516020612f105f395f51905f5280546001600160a01b0319166001600160a01b0392909216919091179055565b60605f5f846001600160a01b0316846040516128ab9190612ef9565b5f60405180830381855af49150503d805f81146128e3576040519150601f19603f3d011682016040523d82523d5f602084013e6128e8565b606091505b50915091506128f8858383612920565b95945050505050565b3415610dad5760405163b398979f60e01b815260040160405180910390fd5b606082612935576129308261297f565b612978565b815115801561294c57506001600160a01b0384163b155b1561297557604051639996b31560e01b81526001600160a01b038516600482015260240161028a565b50805b9392505050565b80511561298f5780518082602001fd5b60405163d6bda27560e01b815260040160405180910390fd5b803560038110610ac6575f5ffd5b5f5f604083850312156129c7575f5ffd5b6129d0836129a8565b946020939093013593505050565b5f602082840312156129ee575f5ffd5b612978826129a8565b5f60208284031215612a07575f5ffd5b5035919050565b6001600160a01b0381168114611fad575f5ffd5b634e487b7160e01b5f52604160045260245ffd5b5f5f60408385031215612a47575f5ffd5b8235612a5281612a0e565b9150602083013567ffffffffffffffff811115612a6d575f5ffd5b8301601f81018513612a7d575f5ffd5b803567ffffffffffffffff811115612a9757612a97612a22565b604051601f8201601f19908116603f0116810167ffffffffffffffff81118282101715612ac657612ac6612a22565b604052818152828201602001871015612add575f5ffd5b816020840160208301375f602083830101528093505050509250929050565b5f5f5f60608486031215612b0e575f5ffd5b505081359360208301359350604090920135919050565b602081525f82518060208401528060208501604085015e5f604082850101526040601f19601f83011684010191505092915050565b5f60208284031215612b6a575f5ffd5b813561297881612a0e565b5f5f5f5f5f5f5f5f610100898b031215612b8d575f5ffd5b8835612b9881612a0e565b97506020890135612ba881612a0e565b96506040890135612bb881612a0e565b9550606089013594506080890135935060a0890135612bd681612a0e565b925060c0890135612be681612a0e565b915060e0890135612bf681612a0e565b809150509295985092959890939650565b634e487b7160e01b5f52602160045260245ffd5b634e487b7160e01b5f52601160045260245ffd5b808202811582820484141761096757610967612c1b565b8181038181111561096757610967612c1b565b6001815b6001841115612c9457808504811115612c7857612c78612c1b565b6001841615612c8657908102905b60019390931c928002612c5d565b935093915050565b5f82612caa57506001610967565b81612cb657505f610967565b8160018114612ccc5760028114612cd657612cf2565b6001915050610967565b60ff841115612ce757612ce7612c1b565b50506001821b610967565b5060208310610133831016604e8410600b8410161715612d15575081810a610967565b612d215f198484612c59565b805f1904821115612d3457612d34612c1b565b029392505050565b5f6129788383612c9c565b5f82612d6157634e487b7160e01b5f52601260045260245ffd5b500490565b805169ffffffffffffffffffff81168114610ac6575f5ffd5b5f5f5f5f5f60a08688031215612d93575f5ffd5b612d9c86612d66565b60208701516040880151606089015192975090955093509150612dc160808701612d66565b90509295509295909350565b6020808252601590820152741250d3c8185b1c9958591e48199a5b985b1a5e9959605a1b604082015260600190565b602080825260079082015266199c99595e995960ca1b604082015260600190565b8082018082111561096757610967612c1b565b634e487b7160e01b5f52603260045260245ffd5b5f60208284031215612e54575f5ffd5b81518015158114612978575f5ffd5b60038110612e7f57634e487b7160e01b5f52602160045260245ffd5b9052565b828152604081016129786020830184612e63565b634e487b7160e01b5f52603160045260245ffd5b5f81612eb957612eb9612c1b565b505f190190565b5f60208284031215612ed0575f5ffd5b5051919050565b8481526020810184905260408101839052608081016128f86060830184612e63565b5f82518060208501845e5f92019182525091905056fe360894a13ba1a3210667c828492db98dca3e2076cc3735a920a3ca505d382bbc9b779b17422d0df92223018b32b4d1fa46e071723d6817e2486d003becc55f00a264697066735822122036d78f6cbc8b1932872996a08d570c5c340e8650b041e787bddd4f3228ef8c5364736f6c634300081c0033",
					"opcodes": "PUSH1 0xA0 PUSH1 0x40 MSTORE ADDRESS PUSH1 0x80 MSTORE CALLVALUE DUP1 ISZERO PUSH1 0x12 JUMPI PUSH0 PUSH0 REVERT JUMPDEST POP PUSH1 0x80 MLOAD PUSH2 0x2F85 PUSH2 0x39 PUSH0 CODECOPY PUSH0 DUP2 DUP2 PUSH2 0x2557 ADD MSTORE DUP2 DUP2 PUSH2 0x2580 ADD MSTORE PUSH2 0x26BF ADD MSTORE PUSH2 0x2F85 PUSH0 RETURN INVALID PUSH1 0x80 PUSH1 0x40 MSTORE PUSH1 0x4 CALLDATASIZE LT PUSH2 0x241 JUMPI PUSH0 CALLDATALOAD PUSH1 0xE0 SHR DUP1 PUSH4 0x7FB12001 GT PUSH2 0x134 JUMPI DUP1 PUSH4 0xB3FDAFB9 GT PUSH2 0xB3 JUMPI DUP1 PUSH4 0xC81FFDEA GT PUSH2 0x78 JUMPI DUP1 PUSH4 0xC81FFDEA EQ PUSH2 0x723 JUMPI DUP1 PUSH4 0xD1F3B23E EQ PUSH2 0x74E JUMPI DUP1 PUSH4 0xE8E87389 EQ PUSH2 0x767 JUMPI DUP1 PUSH4 0xF2FDE38B EQ PUSH2 0x792 JUMPI DUP1 PUSH4 0xFC0C546A EQ PUSH2 0x7B1 JUMPI DUP1 PUSH4 0xFD663DA2 EQ PUSH2 0x7D0 JUMPI PUSH0 PUSH0 REVERT JUMPDEST DUP1 PUSH4 0xB3FDAFB9 EQ PUSH2 0x5D4 JUMPI DUP1 PUSH4 0xB5F522F7 EQ PUSH2 0x5F3 JUMPI DUP1 PUSH4 0xB9469E1A EQ PUSH2 0x668 JUMPI DUP1 PUSH4 0xC1560A14 EQ PUSH2 0x687 JUMPI DUP1 PUSH4 0xC211E1F9 EQ PUSH2 0x69C JUMPI PUSH0 PUSH0 REVERT JUMPDEST DUP1 PUSH4 0x960524E3 GT PUSH2 0xF9 JUMPI DUP1 PUSH4 0x960524E3 EQ PUSH2 0x530 JUMPI DUP1 PUSH4 0x9FA8ADB8 EQ PUSH2 0x544 JUMPI DUP1 PUSH4 0xA1C4B5A2 EQ PUSH2 0x563 JUMPI DUP1 PUSH4 0xA1E89AEC EQ PUSH2 0x582 JUMPI DUP1 PUSH4 0xAD3CB1CC EQ PUSH2 0x597 JUMPI PUSH0 PUSH0 REVERT JUMPDEST DUP1 PUSH4 0x7FB12001 EQ PUSH2 0x4C9 JUMPI DUP1 PUSH4 0x8DA5CB5B EQ PUSH2 0x4DD JUMPI DUP1 PUSH4 0x91152C5C EQ PUSH2 0x4F1 JUMPI DUP1 PUSH4 0x91D8730A EQ PUSH2 0x505 JUMPI DUP1 PUSH4 0x940C333E EQ PUSH2 0x51D JUMPI PUSH0 PUSH0 REVERT JUMPDEST DUP1 PUSH4 0x3FEB5F2B GT PUSH2 0x1C0 JUMPI DUP1 PUSH4 0x63B20117 GT PUSH2 0x185 JUMPI DUP1 PUSH4 0x63B20117 EQ PUSH2 0x458 JUMPI DUP1 PUSH4 0x6C1909ED EQ PUSH2 0x46D JUMPI DUP1 PUSH4 0x715018A6 EQ PUSH2 0x48C JUMPI DUP1 PUSH4 0x721BC38B EQ PUSH2 0x4A0 JUMPI DUP1 PUSH4 0x7CF12B90 EQ PUSH2 0x4B5 JUMPI PUSH0 PUSH0 REVERT JUMPDEST DUP1 PUSH4 0x3FEB5F2B EQ PUSH2 0x3E0 JUMPI DUP1 PUSH4 0x4DEE1DC3 EQ PUSH2 0x3FF JUMPI DUP1 PUSH4 0x4F1EF286 EQ PUSH2 0x41D JUMPI DUP1 PUSH4 0x52D1902D EQ PUSH2 0x430 JUMPI DUP1 PUSH4 0x62A5AF3B EQ PUSH2 0x444 JUMPI PUSH0 PUSH0 REVERT JUMPDEST DUP1 PUSH4 0x2151206E GT PUSH2 0x206 JUMPI DUP1 PUSH4 0x2151206E EQ PUSH2 0x340 JUMPI DUP1 PUSH4 0x23CC75A8 EQ PUSH2 0x355 JUMPI DUP1 PUSH4 0x2593198D EQ PUSH2 0x36B JUMPI DUP1 PUSH4 0x2F48AB7D EQ PUSH2 0x38A JUMPI DUP1 PUSH4 0x3E413BEE EQ PUSH2 0x3C1 JUMPI PUSH0 PUSH0 REVERT JUMPDEST DUP1 PUSH4 0x5834E67 EQ PUSH2 0x297 JUMPI DUP1 PUSH4 0x6E4D36F EQ PUSH2 0x2C9 JUMPI DUP1 PUSH4 0x115AFC3A EQ PUSH2 0x2EE JUMPI DUP1 PUSH4 0x117D260F EQ PUSH2 0x30D JUMPI DUP1 PUSH4 0x212EA247 EQ PUSH2 0x32C JUMPI PUSH0 PUSH0 REVERT JUMPDEST CALLDATASIZE PUSH2 0x293 JUMPI PUSH1 0x40 MLOAD PUSH3 0x461BCD PUSH1 0xE5 SHL DUP2 MSTORE PUSH1 0x20 PUSH1 0x4 DUP3 ADD DUP2 SWAP1 MSTORE PUSH1 0x24 DUP3 ADD MSTORE PUSH32 0x44697265637420424E42207472616E7366657273206E6F7420616C6C6F776564 PUSH1 0x44 DUP3 ADD MSTORE PUSH1 0x64 ADD JUMPDEST PUSH1 0x40 MLOAD DUP1 SWAP2 SUB SWAP1 REVERT JUMPDEST PUSH0 PUSH0 REVERT JUMPDEST CALLVALUE DUP1 ISZERO PUSH2 0x2A2 JUMPI PUSH0 PUSH0 REVERT JUMPDEST POP PUSH2 0x2B6 PUSH2 0x2B1 CALLDATASIZE PUSH1 0x4 PUSH2 0x29B6 JUMP JUMPDEST PUSH2 0x7EF JUMP JUMPDEST PUSH1 0x40 MLOAD SWAP1 DUP2 MSTORE PUSH1 0x20 ADD JUMPDEST PUSH1 0x40 MLOAD DUP1 SWAP2 SUB SWAP1 RETURN JUMPDEST CALLVALUE DUP1 ISZERO PUSH2 0x2D4 JUMPI PUSH0 PUSH0 REVERT JUMPDEST POP PUSH1 0x4 SLOAD PUSH1 0x7 SLOAD LT ISZERO JUMPDEST PUSH1 0x40 MLOAD SWAP1 ISZERO ISZERO DUP2 MSTORE PUSH1 0x20 ADD PUSH2 0x2C0 JUMP JUMPDEST CALLVALUE DUP1 ISZERO PUSH2 0x2F9 JUMPI PUSH0 PUSH0 REVERT JUMPDEST POP PUSH2 0x2B6 PUSH2 0x308 CALLDATASIZE PUSH1 0x4 PUSH2 0x29DE JUMP JUMPDEST PUSH2 0x96D JUMP JUMPDEST CALLVALUE DUP1 ISZERO PUSH2 0x318 JUMPI PUSH0 PUSH0 REVERT JUMPDEST POP PUSH2 0x2B6 PUSH2 0x327 CALLDATASIZE PUSH1 0x4 PUSH2 0x29B6 JUMP JUMPDEST PUSH2 0xACB JUMP JUMPDEST CALLVALUE DUP1 ISZERO PUSH2 0x337 JUMPI PUSH0 PUSH0 REVERT JUMPDEST POP PUSH1 0x6 SLOAD PUSH2 0x2B6 JUMP JUMPDEST CALLVALUE DUP1 ISZERO PUSH2 0x34B JUMPI PUSH0 PUSH0 REVERT JUMPDEST POP PUSH2 0x2B6 PUSH1 0x4 SLOAD DUP2 JUMP JUMPDEST CALLVALUE DUP1 ISZERO PUSH2 0x360 JUMPI PUSH0 PUSH0 REVERT JUMPDEST POP PUSH2 0x369 PUSH2 0xC61 JUMP JUMPDEST STOP JUMPDEST CALLVALUE DUP1 ISZERO PUSH2 0x376 JUMPI PUSH0 PUSH0 REVERT JUMPDEST POP PUSH2 0x2B6 PUSH2 0x385 CALLDATASIZE PUSH1 0x4 PUSH2 0x29F7 JUMP JUMPDEST PUSH2 0xDAF JUMP JUMPDEST CALLVALUE DUP1 ISZERO PUSH2 0x395 JUMPI PUSH0 PUSH0 REVERT JUMPDEST POP PUSH1 0xB SLOAD PUSH2 0x3A9 SWAP1 PUSH1 0x1 PUSH1 0x1 PUSH1 0xA0 SHL SUB AND DUP2 JUMP JUMPDEST PUSH1 0x40 MLOAD PUSH1 0x1 PUSH1 0x1 PUSH1 0xA0 SHL SUB SWAP1 SWAP2 AND DUP2 MSTORE PUSH1 0x20 ADD PUSH2 0x2C0 JUMP JUMPDEST CALLVALUE DUP1 ISZERO PUSH2 0x3CC JUMPI PUSH0 PUSH0 REVERT JUMPDEST POP PUSH1 0xC SLOAD PUSH2 0x3A9 SWAP1 PUSH1 0x1 PUSH1 0x1 PUSH1 0xA0 SHL SUB AND DUP2 JUMP JUMPDEST CALLVALUE DUP1 ISZERO PUSH2 0x3EB JUMPI PUSH0 PUSH0 REVERT JUMPDEST POP PUSH2 0x3A9 PUSH2 0x3FA CALLDATASIZE PUSH1 0x4 PUSH2 0x29F7 JUMP JUMPDEST PUSH2 0xDC2 JUMP JUMPDEST CALLVALUE DUP1 ISZERO PUSH2 0x40A JUMPI PUSH0 PUSH0 REVERT JUMPDEST POP PUSH1 0x9 SLOAD PUSH2 0x2DE SWAP1 PUSH2 0x100 SWAP1 DIV PUSH1 0xFF AND DUP2 JUMP JUMPDEST PUSH2 0x369 PUSH2 0x42B CALLDATASIZE PUSH1 0x4 PUSH2 0x2A36 JUMP JUMPDEST PUSH2 0xDEA JUMP JUMPDEST CALLVALUE DUP1 ISZERO PUSH2 0x43B JUMPI PUSH0 PUSH0 REVERT JUMPDEST POP PUSH2 0x2B6 PUSH2 0xE09 JUMP JUMPDEST CALLVALUE DUP1 ISZERO PUSH2 0x44F JUMPI PUSH0 PUSH0 REVERT JUMPDEST POP PUSH2 0x369 PUSH2 0xE24 JUMP JUMPDEST CALLVALUE DUP1 ISZERO PUSH2 0x463 JUMPI PUSH0 PUSH0 REVERT JUMPDEST POP PUSH2 0x2B6 PUSH1 0x8 SLOAD DUP2 JUMP JUMPDEST CALLVALUE DUP1 ISZERO PUSH2 0x478 JUMPI PUSH0 PUSH0 REVERT JUMPDEST POP PUSH2 0x369 PUSH2 0x487 CALLDATASIZE PUSH1 0x4 PUSH2 0x2AFC JUMP JUMPDEST PUSH2 0xE68 JUMP JUMPDEST CALLVALUE DUP1 ISZERO PUSH2 0x497 JUMPI PUSH0 PUSH0 REVERT JUMPDEST POP PUSH2 0x369 PUSH2 0xFE0 JUMP JUMPDEST CALLVALUE DUP1 ISZERO PUSH2 0x4AB JUMPI PUSH0 PUSH0 REVERT JUMPDEST POP PUSH2 0x2B6 PUSH1 0x7 SLOAD DUP2 JUMP JUMPDEST CALLVALUE DUP1 ISZERO PUSH2 0x4C0 JUMPI PUSH0 PUSH0 REVERT JUMPDEST POP PUSH2 0x369 PUSH2 0xFF1 JUMP JUMPDEST CALLVALUE DUP1 ISZERO PUSH2 0x4D4 JUMPI PUSH0 PUSH0 REVERT JUMPDEST POP PUSH2 0x369 PUSH2 0x1053 JUMP JUMPDEST CALLVALUE DUP1 ISZERO PUSH2 0x4E8 JUMPI PUSH0 PUSH0 REVERT JUMPDEST POP PUSH2 0x3A9 PUSH2 0x14FC JUMP JUMPDEST CALLVALUE DUP1 ISZERO PUSH2 0x4FC JUMPI PUSH0 PUSH0 REVERT JUMPDEST POP PUSH2 0x369 PUSH2 0x152A JUMP JUMPDEST CALLVALUE DUP1 ISZERO PUSH2 0x510 JUMPI PUSH0 PUSH0 REVERT JUMPDEST POP PUSH1 0x5 SLOAD PUSH1 0x7 SLOAD EQ PUSH2 0x2DE JUMP JUMPDEST PUSH2 0x369 PUSH2 0x52B CALLDATASIZE PUSH1 0x4 PUSH2 0x29B6 JUMP JUMPDEST PUSH2 0x18F7 JUMP JUMPDEST CALLVALUE DUP1 ISZERO PUSH2 0x53B JUMPI PUSH0 PUSH0 REVERT JUMPDEST POP PUSH1 0xA SLOAD PUSH2 0x2B6 JUMP JUMPDEST CALLVALUE DUP1 ISZERO PUSH2 0x54F JUMPI PUSH0 PUSH0 REVERT JUMPDEST POP PUSH2 0x2B6 PUSH2 0x55E CALLDATASIZE PUSH1 0x4 PUSH2 0x29F7 JUMP JUMPDEST PUSH2 0x1F40 JUMP JUMPDEST CALLVALUE DUP1 ISZERO PUSH2 0x56E JUMPI PUSH0 PUSH0 REVERT JUMPDEST POP PUSH2 0x2B6 PUSH2 0x57D CALLDATASIZE PUSH1 0x4 PUSH2 0x29F7 JUMP JUMPDEST PUSH2 0x1F53 JUMP JUMPDEST CALLVALUE DUP1 ISZERO PUSH2 0x58D JUMPI PUSH0 PUSH0 REVERT JUMPDEST POP PUSH2 0x2B6 PUSH1 0x6 SLOAD DUP2 JUMP JUMPDEST CALLVALUE DUP1 ISZERO PUSH2 0x5A2 JUMPI PUSH0 PUSH0 REVERT JUMPDEST POP PUSH2 0x5C7 PUSH1 0x40 MLOAD DUP1 PUSH1 0x40 ADD PUSH1 0x40 MSTORE DUP1 PUSH1 0x5 DUP2 MSTORE PUSH1 0x20 ADD PUSH5 0x352E302E3 PUSH1 0xDC SHL DUP2 MSTORE POP DUP2 JUMP JUMPDEST PUSH1 0x40 MLOAD PUSH2 0x2C0 SWAP2 SWAP1 PUSH2 0x2B25 JUMP JUMPDEST CALLVALUE DUP1 ISZERO PUSH2 0x5DF JUMPI PUSH0 PUSH0 REVERT JUMPDEST POP PUSH2 0x2B6 PUSH2 0x5EE CALLDATASIZE PUSH1 0x4 PUSH2 0x29F7 JUMP JUMPDEST PUSH2 0x1F63 JUMP JUMPDEST CALLVALUE DUP1 ISZERO PUSH2 0x5FE JUMPI PUSH0 PUSH0 REVERT JUMPDEST POP PUSH2 0x63E PUSH2 0x60D CALLDATASIZE PUSH1 0x4 PUSH2 0x29F7 JUMP JUMPDEST PUSH1 0xD PUSH1 0x20 MSTORE PUSH0 SWAP1 DUP2 MSTORE PUSH1 0x40 SWAP1 KECCAK256 DUP1 SLOAD PUSH1 0x1 DUP3 ADD SLOAD PUSH1 0x2 DUP4 ADD SLOAD PUSH1 0x3 DUP5 ADD SLOAD PUSH1 0x4 SWAP1 SWAP5 ADD SLOAD SWAP3 SWAP4 SWAP2 SWAP3 SWAP1 SWAP2 SWAP1 PUSH1 0xFF AND DUP6 JUMP JUMPDEST PUSH1 0x40 DUP1 MLOAD SWAP6 DUP7 MSTORE PUSH1 0x20 DUP7 ADD SWAP5 SWAP1 SWAP5 MSTORE SWAP3 DUP5 ADD SWAP2 SWAP1 SWAP2 MSTORE PUSH1 0x60 DUP4 ADD MSTORE ISZERO ISZERO PUSH1 0x80 DUP3 ADD MSTORE PUSH1 0xA0 ADD PUSH2 0x2C0 JUMP JUMPDEST CALLVALUE DUP1 ISZERO PUSH2 0x673 JUMPI PUSH0 PUSH0 REVERT JUMPDEST POP PUSH1 0x9 SLOAD PUSH2 0x2DE SWAP1 PUSH3 0x10000 SWAP1 DIV PUSH1 0xFF AND DUP2 JUMP JUMPDEST CALLVALUE DUP1 ISZERO PUSH2 0x692 JUMPI PUSH0 PUSH0 REVERT JUMPDEST POP PUSH2 0x2B6 PUSH1 0x5 SLOAD DUP2 JUMP JUMPDEST CALLVALUE DUP1 ISZERO PUSH2 0x6A7 JUMPI PUSH0 PUSH0 REVERT JUMPDEST POP PUSH2 0x70E PUSH2 0x6B6 CALLDATASIZE PUSH1 0x4 PUSH2 0x29F7 JUMP JUMPDEST POP PUSH1 0x6 SLOAD PUSH0 SWAP1 DUP2 MSTORE PUSH1 0xD PUSH1 0x20 SWAP1 DUP2 MSTORE PUSH1 0x40 SWAP2 DUP3 SWAP1 KECCAK256 DUP3 MLOAD PUSH1 0xA0 DUP2 ADD DUP5 MSTORE DUP2 SLOAD DUP1 DUP3 MSTORE PUSH1 0x1 DUP4 ADD SLOAD SWAP4 DUP3 ADD DUP5 SWAP1 MSTORE PUSH1 0x2 DUP4 ADD SLOAD SWAP5 DUP3 ADD SWAP5 SWAP1 SWAP5 MSTORE PUSH1 0x3 DUP3 ADD SLOAD PUSH1 0x60 DUP3 ADD MSTORE PUSH1 0x4 SWAP1 SWAP2 ADD SLOAD PUSH1 0xFF AND ISZERO ISZERO PUSH1 0x80 SWAP1 SWAP2 ADD MSTORE SWAP1 SWAP2 JUMP JUMPDEST PUSH1 0x40 DUP1 MLOAD SWAP3 DUP4 MSTORE PUSH1 0x20 DUP4 ADD SWAP2 SWAP1 SWAP2 MSTORE ADD PUSH2 0x2C0 JUMP JUMPDEST CALLVALUE DUP1 ISZERO PUSH2 0x72E JUMPI PUSH0 PUSH0 REVERT JUMPDEST POP PUSH2 0x2B6 PUSH2 0x73D CALLDATASIZE PUSH1 0x4 PUSH2 0x2B5A JUMP JUMPDEST PUSH1 0xE PUSH1 0x20 MSTORE PUSH0 SWAP1 DUP2 MSTORE PUSH1 0x40 SWAP1 KECCAK256 SLOAD DUP2 JUMP JUMPDEST CALLVALUE DUP1 ISZERO PUSH2 0x759 JUMPI PUSH0 PUSH0 REVERT JUMPDEST POP PUSH1 0x9 SLOAD PUSH2 0x2DE SWAP1 PUSH1 0xFF AND DUP2 JUMP JUMPDEST CALLVALUE DUP1 ISZERO PUSH2 0x772 JUMPI PUSH0 PUSH0 REVERT JUMPDEST POP PUSH2 0x2B6 PUSH2 0x781 CALLDATASIZE PUSH1 0x4 PUSH2 0x2B5A JUMP JUMPDEST PUSH1 0xF PUSH1 0x20 MSTORE PUSH0 SWAP1 DUP2 MSTORE PUSH1 0x40 SWAP1 KECCAK256 SLOAD DUP2 JUMP JUMPDEST CALLVALUE DUP1 ISZERO PUSH2 0x79D JUMPI PUSH0 PUSH0 REVERT JUMPDEST POP PUSH2 0x369 PUSH2 0x7AC CALLDATASIZE PUSH1 0x4 PUSH2 0x2B5A JUMP JUMPDEST PUSH2 0x1F73 JUMP JUMPDEST CALLVALUE DUP1 ISZERO PUSH2 0x7BC JUMPI PUSH0 PUSH0 REVERT JUMPDEST POP PUSH1 0x3 SLOAD PUSH2 0x3A9 SWAP1 PUSH1 0x1 PUSH1 0x1 PUSH1 0xA0 SHL SUB AND DUP2 JUMP JUMPDEST CALLVALUE DUP1 ISZERO PUSH2 0x7DB JUMPI PUSH0 PUSH0 REVERT JUMPDEST POP PUSH2 0x369 PUSH2 0x7EA CALLDATASIZE PUSH1 0x4 PUSH2 0x2B75 JUMP JUMPDEST PUSH2 0x1FB0 JUMP JUMPDEST PUSH0 PUSH0 PUSH2 0x7FD PUSH2 0x57D DUP6 PUSH2 0x96D JUMP JUMPDEST SWAP1 POP DUP1 PUSH0 SUB PUSH2 0x843 JUMPI PUSH1 0x40 MLOAD PUSH3 0x461BCD PUSH1 0xE5 SHL DUP2 MSTORE PUSH1 0x20 PUSH1 0x4 DUP3 ADD MSTORE PUSH1 0x12 PUSH1 0x24 DUP3 ADD MSTORE PUSH18 0x125B9D985B1A59081C1C9A58D94819995959 PUSH1 0x72 SHL PUSH1 0x44 DUP3 ADD MSTORE PUSH1 0x64 ADD PUSH2 0x28A JUMP JUMPDEST PUSH0 PUSH2 0x84D PUSH1 0x6 SLOAD SWAP1 JUMP JUMPDEST PUSH0 DUP2 DUP2 MSTORE PUSH1 0xD PUSH1 0x20 MSTORE PUSH1 0x40 DUP2 KECCAK256 PUSH1 0x2 DUP2 ADD SLOAD SWAP3 SWAP4 POP SWAP2 SWAP1 DUP1 DUP9 PUSH1 0x2 DUP2 GT ISZERO PUSH2 0x877 JUMPI PUSH2 0x877 PUSH2 0x2C07 JUMP JUMPDEST SUB PUSH2 0x890 JUMPI PUSH2 0x889 PUSH2 0x55E DUP9 DUP8 PUSH2 0x2C2F JUMP JUMPDEST SWAP1 POP PUSH2 0x949 JUMP JUMPDEST PUSH1 0x2 DUP9 PUSH1 0x2 DUP2 GT ISZERO PUSH2 0x8A4 JUMPI PUSH2 0x8A4 PUSH2 0x2C07 JUMP JUMPDEST EQ DUP1 PUSH2 0x8C1 JUMPI POP PUSH1 0x1 DUP9 PUSH1 0x2 DUP2 GT ISZERO PUSH2 0x8BF JUMPI PUSH2 0x8BF PUSH2 0x2C07 JUMP JUMPDEST EQ JUMPDEST ISZERO PUSH2 0x901 JUMPI PUSH1 0x6 PUSH0 PUSH2 0x8D4 DUP3 PUSH1 0x12 PUSH2 0x2C46 JUMP JUMPDEST PUSH2 0x8DF SWAP1 PUSH1 0xA PUSH2 0x2D3C JUMP JUMPDEST PUSH2 0x8E9 SWAP1 DUP11 PUSH2 0x2C2F JUMP JUMPDEST SWAP1 POP PUSH2 0x8F8 PUSH2 0x55E DUP3 DUP10 PUSH2 0x2C2F JUMP JUMPDEST SWAP3 POP POP POP PUSH2 0x949 JUMP JUMPDEST PUSH1 0x40 MLOAD PUSH3 0x461BCD PUSH1 0xE5 SHL DUP2 MSTORE PUSH1 0x20 PUSH1 0x4 DUP3 ADD MSTORE PUSH1 0x1A PUSH1 0x24 DUP3 ADD MSTORE PUSH32 0x556E737570706F72746564207061796D656E74206D6574686F64000000000000 PUSH1 0x44 DUP3 ADD MSTORE PUSH1 0x64 ADD PUSH2 0x28A JUMP JUMPDEST PUSH0 DUP3 PUSH2 0x954 DUP4 PUSH2 0xDAF JUMP JUMPDEST PUSH2 0x95E SWAP2 SWAP1 PUSH2 0x2D47 JUMP JUMPDEST SWAP7 POP POP POP POP POP POP POP JUMPDEST SWAP3 SWAP2 POP POP JUMP JUMPDEST PUSH0 DUP1 DUP3 PUSH1 0x2 DUP2 GT ISZERO PUSH2 0x981 JUMPI PUSH2 0x981 PUSH2 0x2C07 JUMP JUMPDEST SUB PUSH2 0xA06 JUMPI PUSH0 PUSH0 PUSH0 SWAP1 SLOAD SWAP1 PUSH2 0x100 EXP SWAP1 DIV PUSH1 0x1 PUSH1 0x1 PUSH1 0xA0 SHL SUB AND PUSH1 0x1 PUSH1 0x1 PUSH1 0xA0 SHL SUB AND PUSH4 0xFEAF968C PUSH1 0x40 MLOAD DUP2 PUSH4 0xFFFFFFFF AND PUSH1 0xE0 SHL DUP2 MSTORE PUSH1 0x4 ADD PUSH1 0xA0 PUSH1 0x40 MLOAD DUP1 DUP4 SUB DUP2 DUP7 GAS STATICCALL ISZERO DUP1 ISZERO PUSH2 0x9D6 JUMPI RETURNDATASIZE PUSH0 PUSH0 RETURNDATACOPY RETURNDATASIZE PUSH0 REVERT JUMPDEST POP POP POP POP PUSH1 0x40 MLOAD RETURNDATASIZE PUSH1 0x1F NOT PUSH1 0x1F DUP3 ADD AND DUP3 ADD DUP1 PUSH1 0x40 MSTORE POP DUP2 ADD SWAP1 PUSH2 0x9FA SWAP2 SWAP1 PUSH2 0x2D7F JUMP JUMPDEST POP SWAP2 SWAP7 SWAP6 POP POP POP POP POP POP JUMP JUMPDEST PUSH1 0x1 DUP3 PUSH1 0x2 DUP2 GT ISZERO PUSH2 0xA1A JUMPI PUSH2 0xA1A PUSH2 0x2C07 JUMP JUMPDEST SUB PUSH2 0xA66 JUMPI PUSH1 0x1 SLOAD PUSH1 0x40 DUP1 MLOAD PUSH4 0x3FABE5A3 PUSH1 0xE2 SHL DUP2 MSTORE SWAP1 MLOAD PUSH0 SWAP3 PUSH1 0x1 PUSH1 0x1 PUSH1 0xA0 SHL SUB AND SWAP2 PUSH4 0xFEAF968C SWAP2 PUSH1 0x4 DUP1 DUP4 ADD SWAP3 PUSH1 0xA0 SWAP3 SWAP2 SWAP1 DUP3 SWAP1 SUB ADD DUP2 DUP7 GAS STATICCALL ISZERO DUP1 ISZERO PUSH2 0x9D6 JUMPI RETURNDATASIZE PUSH0 PUSH0 RETURNDATACOPY RETURNDATASIZE PUSH0 REVERT JUMPDEST PUSH1 0x2 DUP3 PUSH1 0x2 DUP2 GT ISZERO PUSH2 0xA7A JUMPI PUSH2 0xA7A PUSH2 0x2C07 JUMP JUMPDEST SUB PUSH2 0x901 JUMPI PUSH1 0x2 SLOAD PUSH1 0x40 DUP1 MLOAD PUSH4 0x3FABE5A3 PUSH1 0xE2 SHL DUP2 MSTORE SWAP1 MLOAD PUSH0 SWAP3 PUSH1 0x1 PUSH1 0x1 PUSH1 0xA0 SHL SUB AND SWAP2 PUSH4 0xFEAF968C SWAP2 PUSH1 0x4 DUP1 DUP4 ADD SWAP3 PUSH1 0xA0 SWAP3 SWAP2 SWAP1 DUP3 SWAP1 SUB ADD DUP2 DUP7 GAS STATICCALL ISZERO DUP1 ISZERO PUSH2 0x9D6 JUMPI RETURNDATASIZE PUSH0 PUSH0 RETURNDATACOPY RETURNDATASIZE PUSH0 REVERT JUMPDEST SWAP2 SWAP1 POP JUMP JUMPDEST PUSH0 DUP2 PUSH0 SUB PUSH2 0xB1B JUMPI PUSH1 0x40 MLOAD PUSH3 0x461BCD PUSH1 0xE5 SHL DUP2 MSTORE PUSH1 0x20 PUSH1 0x4 DUP3 ADD MSTORE PUSH1 0x17 PUSH1 0x24 DUP3 ADD MSTORE PUSH32 0x416D6F756E74206D75737420626520706F736974697665000000000000000000 PUSH1 0x44 DUP3 ADD MSTORE PUSH1 0x64 ADD PUSH2 0x28A JUMP JUMPDEST PUSH0 PUSH2 0xB28 PUSH2 0x57D DUP6 PUSH2 0x96D JUMP JUMPDEST SWAP1 POP DUP1 PUSH0 SUB PUSH2 0xB6E JUMPI PUSH1 0x40 MLOAD PUSH3 0x461BCD PUSH1 0xE5 SHL DUP2 MSTORE PUSH1 0x20 PUSH1 0x4 DUP3 ADD MSTORE PUSH1 0x12 PUSH1 0x24 DUP3 ADD MSTORE PUSH18 0x125B9D985B1A59081C1C9A58D94819995959 PUSH1 0x72 SHL PUSH1 0x44 DUP3 ADD MSTORE PUSH1 0x64 ADD PUSH2 0x28A JUMP JUMPDEST PUSH0 PUSH2 0xB78 PUSH1 0x6 SLOAD SWAP1 JUMP JUMPDEST SWAP1 POP DUP1 PUSH0 SUB PUSH2 0xBBA JUMPI PUSH1 0x40 MLOAD PUSH3 0x461BCD PUSH1 0xE5 SHL DUP2 MSTORE PUSH1 0x20 PUSH1 0x4 DUP3 ADD MSTORE PUSH1 0xE PUSH1 0x24 DUP3 ADD MSTORE PUSH14 0x4E6F206163746976652073616C65 PUSH1 0x90 SHL PUSH1 0x44 DUP3 ADD MSTORE PUSH1 0x64 ADD PUSH2 0x28A JUMP JUMPDEST PUSH0 DUP2 DUP2 MSTORE PUSH1 0xD PUSH1 0x20 MSTORE PUSH1 0x40 DUP2 KECCAK256 PUSH1 0x2 DUP2 ADD SLOAD SWAP1 SWAP2 PUSH2 0xBDB PUSH2 0x55E DUP4 DUP10 PUSH2 0x2C2F JUMP JUMPDEST SWAP1 POP PUSH0 DUP1 DUP10 PUSH1 0x2 DUP2 GT ISZERO PUSH2 0xBF1 JUMPI PUSH2 0xBF1 PUSH2 0x2C07 JUMP JUMPDEST SUB PUSH2 0xC11 JUMPI DUP6 PUSH2 0xC00 DUP4 PUSH2 0xDAF JUMP JUMPDEST PUSH2 0xC0A SWAP2 SWAP1 PUSH2 0x2D47 JUMP JUMPDEST SWAP1 POP PUSH2 0xC55 JUMP JUMPDEST PUSH1 0x1 DUP10 PUSH1 0x2 DUP2 GT ISZERO PUSH2 0xC25 JUMPI PUSH2 0xC25 PUSH2 0x2C07 JUMP JUMPDEST EQ DUP1 PUSH2 0xC42 JUMPI POP PUSH1 0x2 DUP10 PUSH1 0x2 DUP2 GT ISZERO PUSH2 0xC40 JUMPI PUSH2 0xC40 PUSH2 0x2C07 JUMP JUMPDEST EQ JUMPDEST ISZERO PUSH2 0x901 JUMPI DUP6 PUSH2 0xC00 DUP4 PUSH3 0xF4240 PUSH2 0x2C2F JUMP JUMPDEST SWAP9 SWAP8 POP POP POP POP POP POP POP POP JUMP JUMPDEST PUSH2 0xC69 PUSH2 0x21BE JUMP JUMPDEST PUSH2 0xC71 PUSH2 0x21F5 JUMP JUMPDEST PUSH1 0x9 SLOAD PUSH1 0xFF AND ISZERO PUSH2 0xC94 JUMPI PUSH1 0x40 MLOAD PUSH3 0x461BCD PUSH1 0xE5 SHL DUP2 MSTORE PUSH1 0x4 ADD PUSH2 0x28A SWAP1 PUSH2 0x2DCD JUMP JUMPDEST PUSH1 0x9 SLOAD PUSH3 0x10000 SWAP1 DIV PUSH1 0xFF AND ISZERO PUSH2 0xCBD JUMPI PUSH1 0x40 MLOAD PUSH3 0x461BCD PUSH1 0xE5 SHL DUP2 MSTORE PUSH1 0x4 ADD PUSH2 0x28A SWAP1 PUSH2 0x2DFC JUMP JUMPDEST PUSH1 0x4 SLOAD PUSH1 0x7 SLOAD LT ISZERO PUSH2 0xD08 JUMPI PUSH1 0x40 MLOAD PUSH3 0x461BCD PUSH1 0xE5 SHL DUP2 MSTORE PUSH1 0x20 PUSH1 0x4 DUP3 ADD MSTORE PUSH1 0x14 PUSH1 0x24 DUP3 ADD MSTORE PUSH20 0x14DBD99D0810D85C081393DD0814995858DA1959 PUSH1 0x62 SHL PUSH1 0x44 DUP3 ADD MSTORE PUSH1 0x64 ADD PUSH2 0x28A JUMP JUMPDEST PUSH1 0x9 SLOAD PUSH2 0x100 SWAP1 DIV PUSH1 0xFF AND PUSH2 0xD57 JUMPI PUSH1 0x40 MLOAD PUSH3 0x461BCD PUSH1 0xE5 SHL DUP2 MSTORE PUSH1 0x20 PUSH1 0x4 DUP3 ADD MSTORE PUSH1 0x15 PUSH1 0x24 DUP3 ADD MSTORE PUSH21 0x105A5C991C9BDC081B9BDD0818DBDB5C1B195D1959 PUSH1 0x5A SHL PUSH1 0x44 DUP3 ADD MSTORE PUSH1 0x64 ADD PUSH2 0x28A JUMP JUMPDEST PUSH1 0x9 DUP1 SLOAD PUSH1 0xFF NOT AND PUSH1 0x1 OR SWAP1 SSTORE PUSH2 0xD6C PUSH2 0x2227 JUMP JUMPDEST PUSH1 0x8 SLOAD PUSH1 0x40 MLOAD PUSH32 0x9C4B134DA32AAB35252391880A9F2A3C13A760D7817AE8823F2B301D3522045A SWAP1 PUSH0 SWAP1 LOG2 PUSH2 0xDAD PUSH1 0x1 PUSH0 MLOAD PUSH1 0x20 PUSH2 0x2F30 PUSH0 CODECOPY PUSH0 MLOAD SWAP1 PUSH0 MSTORE SSTORE JUMP JUMPDEST JUMP JUMPDEST PUSH0 PUSH2 0x967 DUP3 PUSH8 0xDE0B6B3A7640000 PUSH2 0x2C2F JUMP JUMPDEST PUSH1 0xA DUP2 DUP2 SLOAD DUP2 LT PUSH2 0xDD1 JUMPI PUSH0 DUP1 REVERT JUMPDEST PUSH0 SWAP2 DUP3 MSTORE PUSH1 0x20 SWAP1 SWAP2 KECCAK256 ADD SLOAD PUSH1 0x1 PUSH1 0x1 PUSH1 0xA0 SHL SUB AND SWAP1 POP DUP2 JUMP JUMPDEST PUSH2 0xDF2 PUSH2 0x254C JUMP JUMPDEST PUSH2 0xDFB DUP3 PUSH2 0x25F0 JUMP JUMPDEST PUSH2 0xE05 DUP3 DUP3 PUSH2 0x25F8 JUMP JUMPDEST POP POP JUMP JUMPDEST PUSH0 PUSH2 0xE12 PUSH2 0x26B4 JUMP JUMPDEST POP PUSH0 MLOAD PUSH1 0x20 PUSH2 0x2F10 PUSH0 CODECOPY PUSH0 MLOAD SWAP1 PUSH0 MSTORE SWAP1 JUMP JUMPDEST PUSH2 0xE2C PUSH2 0x21F5 JUMP JUMPDEST PUSH1 0x9 SLOAD PUSH3 0x10000 SWAP1 DIV PUSH1 0xFF AND ISZERO PUSH2 0xE55 JUMPI PUSH1 0x40 MLOAD PUSH3 0x461BCD PUSH1 0xE5 SHL DUP2 MSTORE PUSH1 0x4 ADD PUSH2 0x28A SWAP1 PUSH2 0x2DFC JUMP JUMPDEST PUSH1 0x9 DUP1 SLOAD PUSH3 0xFF0000 NOT AND PUSH3 0x10000 OR SWAP1 SSTORE JUMP JUMPDEST PUSH2 0xE70 PUSH2 0x21BE JUMP JUMPDEST PUSH2 0xE78 PUSH2 0x21F5 JUMP JUMPDEST PUSH1 0x9 SLOAD PUSH1 0xFF AND ISZERO PUSH2 0xE9B JUMPI PUSH1 0x40 MLOAD PUSH3 0x461BCD PUSH1 0xE5 SHL DUP2 MSTORE PUSH1 0x4 ADD PUSH2 0x28A SWAP1 PUSH2 0x2DCD JUMP JUMPDEST PUSH1 0x9 SLOAD PUSH3 0x10000 SWAP1 DIV PUSH1 0xFF AND ISZERO PUSH2 0xEC4 JUMPI PUSH1 0x40 MLOAD PUSH3 0x461BCD PUSH1 0xE5 SHL DUP2 MSTORE PUSH1 0x4 ADD PUSH2 0x28A SWAP1 PUSH2 0x2DFC JUMP JUMPDEST TIMESTAMP DUP4 GT DUP1 ISZERO PUSH2 0xED2 JUMPI POP DUP3 DUP3 GT JUMPDEST DUP1 ISZERO PUSH2 0xEF0 JUMPI POP PUSH1 0x6 SLOAD PUSH0 SWAP1 DUP2 MSTORE PUSH1 0xD PUSH1 0x20 MSTORE PUSH1 0x40 SWAP1 KECCAK256 PUSH1 0x1 ADD SLOAD TIMESTAMP GT JUMPDEST PUSH2 0xF3C JUMPI PUSH1 0x40 MLOAD PUSH3 0x461BCD PUSH1 0xE5 SHL DUP2 MSTORE PUSH1 0x20 PUSH1 0x4 DUP3 ADD MSTORE PUSH1 0x18 PUSH1 0x24 DUP3 ADD MSTORE PUSH32 0x496E76616C69642073746172742074696D652072616E67650000000000000000 PUSH1 0x44 DUP3 ADD MSTORE PUSH1 0x64 ADD PUSH2 0x28A JUMP JUMPDEST PUSH1 0x6 SLOAD PUSH2 0xF4A SWAP1 PUSH1 0x1 PUSH2 0x2E1D JUMP JUMPDEST PUSH1 0x6 DUP2 DUP2 SSTORE PUSH0 SWAP2 DUP3 MSTORE PUSH1 0xD PUSH1 0x20 SWAP1 DUP2 MSTORE PUSH1 0x40 DUP1 DUP5 KECCAK256 DUP8 DUP2 SSTORE PUSH1 0x1 DUP2 ADD DUP8 SWAP1 SSTORE PUSH1 0x2 DUP2 ADD DUP7 SWAP1 SSTORE PUSH1 0x3 DUP2 ADD SWAP5 SWAP1 SWAP5 SSTORE PUSH1 0x4 DUP5 ADD DUP1 SLOAD PUSH1 0xFF NOT AND SWAP1 SSTORE SWAP2 SLOAD DUP3 MLOAD DUP8 DUP2 MSTORE SWAP2 DUP3 ADD DUP7 SWAP1 MSTORE SWAP2 DUP2 ADD DUP5 SWAP1 MSTORE PUSH32 0x63B43FA153147ADE1DE28ED76841CDBC34E510ED94DD1FF5A88E278B0B1AD9BA SWAP1 PUSH1 0x60 ADD PUSH1 0x40 MLOAD DUP1 SWAP2 SUB SWAP1 LOG2 POP PUSH2 0xFDB PUSH1 0x1 PUSH0 MLOAD PUSH1 0x20 PUSH2 0x2F30 PUSH0 CODECOPY PUSH0 MLOAD SWAP1 PUSH0 MSTORE SSTORE JUMP JUMPDEST POP POP POP JUMP JUMPDEST PUSH2 0xFE8 PUSH2 0x21F5 JUMP JUMPDEST PUSH2 0xDAD PUSH0 PUSH2 0x26FD JUMP JUMPDEST PUSH2 0xFF9 PUSH2 0x21F5 JUMP JUMPDEST PUSH1 0x9 SLOAD PUSH3 0x10000 SWAP1 DIV PUSH1 0xFF AND PUSH2 0x1045 JUMPI PUSH1 0x40 MLOAD PUSH3 0x461BCD PUSH1 0xE5 SHL DUP2 MSTORE PUSH1 0x20 PUSH1 0x4 DUP3 ADD MSTORE PUSH1 0x11 PUSH1 0x24 DUP3 ADD MSTORE PUSH17 0x105B1C9958591E48155B919C99595E9959 PUSH1 0x7A SHL PUSH1 0x44 DUP3 ADD MSTORE PUSH1 0x64 ADD PUSH2 0x28A JUMP JUMPDEST PUSH1 0x9 DUP1 SLOAD PUSH3 0xFF0000 NOT AND SWAP1 SSTORE JUMP JUMPDEST PUSH2 0x105B PUSH2 0x21BE JUMP JUMPDEST PUSH2 0x1063 PUSH2 0x21F5 JUMP JUMPDEST PUSH1 0x9 SLOAD PUSH1 0xFF AND ISZERO PUSH2 0x1086 JUMPI PUSH1 0x40 MLOAD PUSH3 0x461BCD PUSH1 0xE5 SHL DUP2 MSTORE PUSH1 0x4 ADD PUSH2 0x28A SWAP1 PUSH2 0x2DCD JUMP JUMPDEST PUSH1 0x6 SLOAD PUSH0 SWAP1 DUP2 MSTORE PUSH1 0xD PUSH1 0x20 MSTORE PUSH1 0x40 SWAP1 KECCAK256 PUSH1 0x1 ADD SLOAD TIMESTAMP GT PUSH2 0x10D7 JUMPI PUSH1 0x40 MLOAD PUSH3 0x461BCD PUSH1 0xE5 SHL DUP2 MSTORE PUSH1 0x20 PUSH1 0x4 DUP3 ADD MSTORE PUSH1 0xC PUSH1 0x24 DUP3 ADD MSTORE PUSH12 0x53616C65206F6E676F696E67 PUSH1 0xA0 SHL PUSH1 0x44 DUP3 ADD MSTORE PUSH1 0x64 ADD PUSH2 0x28A JUMP JUMPDEST PUSH1 0x4 SLOAD PUSH1 0x7 SLOAD LT PUSH2 0x111D JUMPI PUSH1 0x40 MLOAD PUSH3 0x461BCD PUSH1 0xE5 SHL DUP2 MSTORE PUSH1 0x20 PUSH1 0x4 DUP3 ADD MSTORE PUSH1 0x10 PUSH1 0x24 DUP3 ADD MSTORE PUSH16 0x14DBD99D0818D85C081C995858DA1959 PUSH1 0x82 SHL PUSH1 0x44 DUP3 ADD MSTORE PUSH1 0x64 ADD PUSH2 0x28A JUMP JUMPDEST PUSH1 0xA DUP1 SLOAD SWAP1 PUSH0 SWAP1 DUP3 GT ISZERO PUSH2 0x113D JUMPI PUSH2 0x1136 PUSH1 0xB DUP4 PUSH2 0x2C46 JUMP JUMPDEST SWAP1 POP PUSH2 0x1140 JUMP JUMPDEST POP PUSH0 JUMPDEST PUSH0 PUSH2 0x114C PUSH1 0x1 DUP5 PUSH2 0x2C46 JUMP JUMPDEST SWAP1 POP JUMPDEST DUP2 DUP2 LT PUSH2 0x14CC JUMPI PUSH0 PUSH1 0xA DUP3 DUP2 SLOAD DUP2 LT PUSH2 0x116A JUMPI PUSH2 0x116A PUSH2 0x2E30 JUMP JUMPDEST PUSH0 SWAP2 DUP3 MSTORE PUSH1 0x20 DUP3 KECCAK256 ADD SLOAD PUSH1 0x1 PUSH1 0x1 PUSH1 0xA0 SHL SUB AND SWAP2 POP JUMPDEST PUSH1 0x3 DUP2 PUSH1 0xFF AND LT ISZERO PUSH2 0x1477 JUMPI PUSH0 DUP2 PUSH1 0xFF AND PUSH1 0x2 DUP2 GT ISZERO PUSH2 0x11A2 JUMPI PUSH2 0x11A2 PUSH2 0x2C07 JUMP JUMPDEST PUSH1 0x1 PUSH1 0x1 PUSH1 0xA0 SHL SUB DUP5 AND PUSH0 SWAP1 DUP2 MSTORE PUSH1 0x11 PUSH1 0x20 MSTORE PUSH1 0x40 DUP2 KECCAK256 SWAP2 SWAP3 POP SWAP1 DUP2 DUP4 PUSH1 0x2 DUP2 GT ISZERO PUSH2 0x11D0 JUMPI PUSH2 0x11D0 PUSH2 0x2C07 JUMP JUMPDEST PUSH1 0x2 DUP2 GT ISZERO PUSH2 0x11E1 JUMPI PUSH2 0x11E1 PUSH2 0x2C07 JUMP JUMPDEST DUP2 MSTORE PUSH1 0x20 ADD SWAP1 DUP2 MSTORE PUSH1 0x20 ADD PUSH0 KECCAK256 SLOAD SWAP1 POP PUSH0 DUP2 GT ISZERO PUSH2 0x146D JUMPI PUSH1 0x1 PUSH1 0x1 PUSH1 0xA0 SHL SUB DUP5 AND PUSH0 SWAP1 DUP2 MSTORE PUSH1 0x11 PUSH1 0x20 MSTORE PUSH1 0x40 DUP2 KECCAK256 DUP2 DUP5 PUSH1 0x2 DUP2 GT ISZERO PUSH2 0x1223 JUMPI PUSH2 0x1223 PUSH2 0x2C07 JUMP JUMPDEST PUSH1 0x2 DUP2 GT ISZERO PUSH2 0x1234 JUMPI PUSH2 0x1234 PUSH2 0x2C07 JUMP JUMPDEST DUP2 MSTORE PUSH1 0x20 DUP2 ADD SWAP2 SWAP1 SWAP2 MSTORE PUSH1 0x40 ADD PUSH0 SWAP1 DUP2 KECCAK256 SWAP2 SWAP1 SWAP2 SSTORE DUP3 PUSH1 0x2 DUP2 GT ISZERO PUSH2 0x125B JUMPI PUSH2 0x125B PUSH2 0x2C07 JUMP JUMPDEST SUB PUSH2 0x12F9 JUMPI PUSH0 DUP5 PUSH1 0x1 PUSH1 0x1 PUSH1 0xA0 SHL SUB AND DUP3 PUSH1 0x40 MLOAD PUSH0 PUSH1 0x40 MLOAD DUP1 DUP4 SUB DUP2 DUP6 DUP8 GAS CALL SWAP3 POP POP POP RETURNDATASIZE DUP1 PUSH0 DUP2 EQ PUSH2 0x12A9 JUMPI PUSH1 0x40 MLOAD SWAP2 POP PUSH1 0x1F NOT PUSH1 0x3F RETURNDATASIZE ADD AND DUP3 ADD PUSH1 0x40 MSTORE RETURNDATASIZE DUP3 MSTORE RETURNDATASIZE PUSH0 PUSH1 0x20 DUP5 ADD RETURNDATACOPY PUSH2 0x12AE JUMP JUMPDEST PUSH1 0x60 SWAP2 POP JUMPDEST POP POP SWAP1 POP DUP1 PUSH2 0x12F3 JUMPI PUSH1 0x40 MLOAD PUSH3 0x461BCD PUSH1 0xE5 SHL DUP2 MSTORE PUSH1 0x20 PUSH1 0x4 DUP3 ADD MSTORE PUSH1 0x11 PUSH1 0x24 DUP3 ADD MSTORE PUSH17 0x109390881C99599D5B990819985A5B1959 PUSH1 0x7A SHL PUSH1 0x44 DUP3 ADD MSTORE PUSH1 0x64 ADD PUSH2 0x28A JUMP JUMPDEST POP PUSH2 0x1429 JUMP JUMPDEST PUSH1 0x1 DUP3 PUSH1 0x2 DUP2 GT ISZERO PUSH2 0x130D JUMPI PUSH2 0x130D PUSH2 0x2C07 JUMP JUMPDEST EQ DUP1 PUSH2 0x132A JUMPI POP PUSH1 0x2 DUP3 PUSH1 0x2 DUP2 GT ISZERO PUSH2 0x1328 JUMPI PUSH2 0x1328 PUSH2 0x2C07 JUMP JUMPDEST EQ JUMPDEST ISZERO PUSH2 0x1429 JUMPI PUSH0 PUSH1 0x1 DUP4 PUSH1 0x2 DUP2 GT ISZERO PUSH2 0x1344 JUMPI PUSH2 0x1344 PUSH2 0x2C07 JUMP JUMPDEST EQ PUSH2 0x135A JUMPI PUSH1 0xC SLOAD PUSH1 0x1 PUSH1 0x1 PUSH1 0xA0 SHL SUB AND PUSH2 0x1367 JUMP JUMPDEST PUSH1 0xB SLOAD PUSH1 0x1 PUSH1 0x1 PUSH1 0xA0 SHL SUB AND JUMPDEST PUSH1 0x40 MLOAD PUSH4 0xA9059CBB PUSH1 0xE0 SHL DUP2 MSTORE PUSH1 0x1 PUSH1 0x1 PUSH1 0xA0 SHL SUB DUP8 DUP2 AND PUSH1 0x4 DUP4 ADD MSTORE PUSH1 0x24 DUP3 ADD DUP6 SWAP1 MSTORE SWAP2 SWAP3 POP SWAP1 DUP3 AND SWAP1 PUSH4 0xA9059CBB SWAP1 PUSH1 0x44 ADD PUSH1 0x20 PUSH1 0x40 MLOAD DUP1 DUP4 SUB DUP2 PUSH0 DUP8 GAS CALL ISZERO DUP1 ISZERO PUSH2 0x13B7 JUMPI RETURNDATASIZE PUSH0 PUSH0 RETURNDATACOPY RETURNDATASIZE PUSH0 REVERT JUMPDEST POP POP POP POP PUSH1 0x40 MLOAD RETURNDATASIZE PUSH1 0x1F NOT PUSH1 0x1F DUP3 ADD AND DUP3 ADD DUP1 PUSH1 0x40 MSTORE POP DUP2 ADD SWAP1 PUSH2 0x13DB SWAP2 SWAP1 PUSH2 0x2E44 JUMP JUMPDEST PUSH2 0x1427 JUMPI PUSH1 0x40 MLOAD PUSH3 0x461BCD PUSH1 0xE5 SHL DUP2 MSTORE PUSH1 0x20 PUSH1 0x4 DUP3 ADD MSTORE PUSH1 0x18 PUSH1 0x24 DUP3 ADD MSTORE PUSH32 0x537461626C65636F696E20726566756E64206661696C65640000000000000000 PUSH1 0x44 DUP3 ADD MSTORE PUSH1 0x64 ADD PUSH2 0x28A JUMP JUMPDEST POP JUMPDEST DUP4 PUSH1 0x1 PUSH1 0x1 PUSH1 0xA0 SHL SUB AND PUSH32 0x3829AB241648D7348F97E4F77D36451330F2276EA8EEB3428E462012F9699E7 DUP3 DUP5 PUSH1 0x40 MLOAD PUSH2 0x1464 SWAP3 SWAP2 SWAP1 PUSH2 0x2E83 JUMP JUMPDEST PUSH1 0x40 MLOAD DUP1 SWAP2 SUB SWAP1 LOG2 JUMPDEST POP POP PUSH1 0x1 ADD PUSH2 0x1180 JUMP JUMPDEST POP PUSH1 0xA DUP1 SLOAD DUP1 PUSH2 0x1489 JUMPI PUSH2 0x1489 PUSH2 0x2E97 JUMP JUMPDEST PUSH0 DUP3 DUP2 MSTORE PUSH1 0x20 DUP2 KECCAK256 DUP3 ADD PUSH0 NOT SWAP1 DUP2 ADD DUP1 SLOAD PUSH1 0x1 PUSH1 0x1 PUSH1 0xA0 SHL SUB NOT AND SWAP1 SSTORE SWAP1 SWAP2 ADD SWAP1 SWAP2 SSTORE DUP3 SWAP1 SUB PUSH2 0x14B9 JUMPI POP PUSH2 0x14CC JUMP JUMPDEST POP DUP1 PUSH2 0x14C4 DUP2 PUSH2 0x2EAB JUMP JUMPDEST SWAP2 POP POP PUSH2 0x114F JUMP JUMPDEST POP PUSH1 0xA SLOAD PUSH0 SUB PUSH2 0x14E4 JUMPI PUSH1 0x9 DUP1 SLOAD PUSH1 0xFF NOT AND PUSH1 0x1 OR SWAP1 SSTORE JUMPDEST POP POP PUSH2 0xDAD PUSH1 0x1 PUSH0 MLOAD PUSH1 0x20 PUSH2 0x2F30 PUSH0 CODECOPY PUSH0 MLOAD SWAP1 PUSH0 MSTORE SSTORE JUMP JUMPDEST PUSH32 0x9016D09D72D40FDAE2FD8CEAC6B6234C7706214FD39C1CD1E609A0528C199300 SLOAD PUSH1 0x1 PUSH1 0x1 PUSH1 0xA0 SHL SUB AND SWAP1 JUMP JUMPDEST PUSH2 0x1532 PUSH2 0x21BE JUMP JUMPDEST PUSH2 0x153A PUSH2 0x21F5 JUMP JUMPDEST PUSH1 0x9 SLOAD PUSH1 0xFF AND ISZERO PUSH2 0x155D JUMPI PUSH1 0x40 MLOAD PUSH3 0x461BCD PUSH1 0xE5 SHL DUP2 MSTORE PUSH1 0x4 ADD PUSH2 0x28A SWAP1 PUSH2 0x2DCD JUMP JUMPDEST PUSH1 0x9 SLOAD PUSH3 0x10000 SWAP1 DIV PUSH1 0xFF AND ISZERO PUSH2 0x1586 JUMPI PUSH1 0x40 MLOAD PUSH3 0x461BCD PUSH1 0xE5 SHL DUP2 MSTORE PUSH1 0x4 ADD PUSH2 0x28A SWAP1 PUSH2 0x2DFC JUMP JUMPDEST PUSH1 0x9 SLOAD PUSH2 0x100 SWAP1 DIV PUSH1 0xFF AND ISZERO PUSH2 0x15DE JUMPI PUSH1 0x40 MLOAD PUSH3 0x461BCD PUSH1 0xE5 SHL DUP2 MSTORE PUSH1 0x20 PUSH1 0x4 DUP3 ADD MSTORE PUSH1 0x19 PUSH1 0x24 DUP3 ADD MSTORE PUSH32 0x41697264726F7020616C726561647920636F6D706C6574656400000000000000 PUSH1 0x44 DUP3 ADD MSTORE PUSH1 0x64 ADD PUSH2 0x28A JUMP JUMPDEST PUSH1 0x8 SLOAD PUSH1 0x3 SLOAD PUSH1 0x40 MLOAD PUSH4 0x70A08231 PUSH1 0xE0 SHL DUP2 MSTORE CALLER PUSH1 0x4 DUP3 ADD MSTORE PUSH1 0x1 PUSH1 0x1 PUSH1 0xA0 SHL SUB SWAP1 SWAP2 AND SWAP1 PUSH4 0x70A08231 SWAP1 PUSH1 0x24 ADD PUSH1 0x20 PUSH1 0x40 MLOAD DUP1 DUP4 SUB DUP2 DUP7 GAS STATICCALL ISZERO DUP1 ISZERO PUSH2 0x1627 JUMPI RETURNDATASIZE PUSH0 PUSH0 RETURNDATACOPY RETURNDATASIZE PUSH0 REVERT JUMPDEST POP POP POP POP PUSH1 0x40 MLOAD RETURNDATASIZE PUSH1 0x1F NOT PUSH1 0x1F DUP3 ADD AND DUP3 ADD DUP1 PUSH1 0x40 MSTORE POP DUP2 ADD SWAP1 PUSH2 0x164B SWAP2 SWAP1 PUSH2 0x2EC0 JUMP JUMPDEST LT ISZERO PUSH2 0x168E JUMPI PUSH1 0x40 MLOAD PUSH3 0x461BCD PUSH1 0xE5 SHL DUP2 MSTORE PUSH1 0x20 PUSH1 0x4 DUP3 ADD MSTORE PUSH1 0x12 PUSH1 0x24 DUP3 ADD MSTORE PUSH18 0x496E73756666696369656E742046756E6473 PUSH1 0x70 SHL PUSH1 0x44 DUP3 ADD MSTORE PUSH1 0x64 ADD PUSH2 0x28A JUMP JUMPDEST PUSH1 0x6 SLOAD PUSH0 SWAP1 DUP2 MSTORE PUSH1 0xD PUSH1 0x20 MSTORE PUSH1 0x40 SWAP1 KECCAK256 PUSH1 0x1 ADD SLOAD TIMESTAMP GT PUSH2 0x16DF JUMPI PUSH1 0x40 MLOAD PUSH3 0x461BCD PUSH1 0xE5 SHL DUP2 MSTORE PUSH1 0x20 PUSH1 0x4 DUP3 ADD MSTORE PUSH1 0xC PUSH1 0x24 DUP3 ADD MSTORE PUSH12 0x53616C65206F6E676F696E67 PUSH1 0xA0 SHL PUSH1 0x44 DUP3 ADD MSTORE PUSH1 0x64 ADD PUSH2 0x28A JUMP JUMPDEST PUSH1 0xA DUP1 SLOAD SWAP1 PUSH0 SWAP1 DUP3 GT ISZERO PUSH2 0x16FF JUMPI PUSH2 0x16F8 PUSH1 0xB DUP4 PUSH2 0x2C46 JUMP JUMPDEST SWAP1 POP PUSH2 0x1702 JUMP JUMPDEST POP PUSH0 JUMPDEST PUSH0 PUSH2 0x170E PUSH1 0x1 DUP5 PUSH2 0x2C46 JUMP JUMPDEST SWAP1 POP JUMPDEST DUP2 DUP2 LT PUSH2 0x18C6 JUMPI PUSH0 PUSH1 0xA DUP3 DUP2 SLOAD DUP2 LT PUSH2 0x172C JUMPI PUSH2 0x172C PUSH2 0x2E30 JUMP JUMPDEST PUSH0 SWAP2 DUP3 MSTORE PUSH1 0x20 DUP1 DUP4 KECCAK256 SWAP1 SWAP2 ADD SLOAD PUSH1 0x1 PUSH1 0x1 PUSH1 0xA0 SHL SUB AND DUP1 DUP4 MSTORE PUSH1 0xF SWAP1 SWAP2 MSTORE PUSH1 0x40 SWAP1 SWAP2 KECCAK256 SLOAD SWAP1 SWAP2 POP DUP1 ISZERO PUSH2 0x18A3 JUMPI PUSH1 0x3 SLOAD PUSH1 0x1 PUSH1 0x1 PUSH1 0xA0 SHL SUB AND PUSH4 0x23B872DD PUSH2 0x1772 PUSH2 0x14FC JUMP JUMPDEST PUSH1 0x40 MLOAD PUSH1 0x1 PUSH1 0x1 PUSH1 0xE0 SHL SUB NOT PUSH1 0xE0 DUP5 SWAP1 SHL AND DUP2 MSTORE PUSH1 0x1 PUSH1 0x1 PUSH1 0xA0 SHL SUB SWAP2 DUP3 AND PUSH1 0x4 DUP3 ADD MSTORE SWAP1 DUP6 AND PUSH1 0x24 DUP3 ADD MSTORE PUSH1 0x44 DUP2 ADD DUP5 SWAP1 MSTORE PUSH1 0x64 ADD PUSH1 0x20 PUSH1 0x40 MLOAD DUP1 DUP4 SUB DUP2 PUSH0 DUP8 GAS CALL ISZERO DUP1 ISZERO PUSH2 0x17C4 JUMPI RETURNDATASIZE PUSH0 PUSH0 RETURNDATACOPY RETURNDATASIZE PUSH0 REVERT JUMPDEST POP POP POP POP PUSH1 0x40 MLOAD RETURNDATASIZE PUSH1 0x1F NOT PUSH1 0x1F DUP3 ADD AND DUP3 ADD DUP1 PUSH1 0x40 MSTORE POP DUP2 ADD SWAP1 PUSH2 0x17E8 SWAP2 SWAP1 PUSH2 0x2E44 JUMP JUMPDEST PUSH2 0x182C JUMPI PUSH1 0x40 MLOAD PUSH3 0x461BCD PUSH1 0xE5 SHL DUP2 MSTORE PUSH1 0x20 PUSH1 0x4 DUP3 ADD MSTORE PUSH1 0x15 PUSH1 0x24 DUP3 ADD MSTORE PUSH21 0x151BDAD95B881D1C985B9CD9995C8819985A5B1959 PUSH1 0x5A SHL PUSH1 0x44 DUP3 ADD MSTORE PUSH1 0x64 ADD PUSH2 0x28A JUMP JUMPDEST PUSH1 0xA DUP1 SLOAD DUP1 PUSH2 0x183D JUMPI PUSH2 0x183D PUSH2 0x2E97 JUMP JUMPDEST PUSH0 DUP3 DUP2 MSTORE PUSH1 0x20 SWAP1 KECCAK256 DUP2 ADD PUSH0 NOT SWAP1 DUP2 ADD DUP1 SLOAD PUSH1 0x1 PUSH1 0x1 PUSH1 0xA0 SHL SUB NOT AND SWAP1 SSTORE ADD SWAP1 SSTORE PUSH1 0x40 MLOAD PUSH1 0x1 PUSH1 0x1 PUSH1 0xA0 SHL SUB DUP4 AND SWAP1 PUSH32 0x9BDCD0CC5503FB9A8DD7311D9617E33108C4B7C8948CC544B16C1FD63C6F475B SWAP1 PUSH2 0x189A SWAP1 DUP5 DUP2 MSTORE PUSH1 0x20 ADD SWAP1 JUMP JUMPDEST PUSH1 0x40 MLOAD DUP1 SWAP2 SUB SWAP1 LOG2 JUMPDEST DUP3 PUSH0 SUB PUSH2 0x18B1 JUMPI POP POP PUSH2 0x18C6 JUMP JUMPDEST POP POP DUP1 DUP1 PUSH2 0x18BE SWAP1 PUSH2 0x2EAB JUMP JUMPDEST SWAP2 POP POP PUSH2 0x1711 JUMP JUMPDEST POP PUSH1 0xA SLOAD PUSH0 SUB PUSH2 0x14E4 JUMPI PUSH1 0x9 DUP1 SLOAD PUSH2 0xFF00 NOT AND PUSH2 0x100 OR SWAP1 SSTORE POP POP PUSH2 0xDAD PUSH1 0x1 PUSH0 MLOAD PUSH1 0x20 PUSH2 0x2F30 PUSH0 CODECOPY PUSH0 MLOAD SWAP1 PUSH0 MSTORE SSTORE JUMP JUMPDEST PUSH2 0x18FF PUSH2 0x21BE JUMP JUMPDEST PUSH1 0x9 SLOAD PUSH1 0xFF AND ISZERO PUSH2 0x1922 JUMPI PUSH1 0x40 MLOAD PUSH3 0x461BCD PUSH1 0xE5 SHL DUP2 MSTORE PUSH1 0x4 ADD PUSH2 0x28A SWAP1 PUSH2 0x2DCD JUMP JUMPDEST PUSH1 0x9 SLOAD PUSH3 0x10000 SWAP1 DIV PUSH1 0xFF AND ISZERO PUSH2 0x194B JUMPI PUSH1 0x40 MLOAD PUSH3 0x461BCD PUSH1 0xE5 SHL DUP2 MSTORE PUSH1 0x4 ADD PUSH2 0x28A SWAP1 PUSH2 0x2DFC JUMP JUMPDEST PUSH2 0x1953 PUSH2 0x14FC JUMP JUMPDEST PUSH1 0x1 PUSH1 0x1 PUSH1 0xA0 SHL SUB AND CALLER SUB PUSH2 0x19AA JUMPI PUSH1 0x40 MLOAD PUSH3 0x461BCD PUSH1 0xE5 SHL DUP2 MSTORE PUSH1 0x20 PUSH1 0x4 DUP3 ADD MSTORE PUSH1 0x17 PUSH1 0x24 DUP3 ADD MSTORE PUSH32 0x4F776E65722063616E6E6F742062757920746F6B656E73000000000000000000 PUSH1 0x44 DUP3 ADD MSTORE PUSH1 0x64 ADD PUSH2 0x28A JUMP JUMPDEST PUSH1 0x6 SLOAD PUSH0 SUB PUSH2 0x19E5 JUMPI PUSH1 0x40 MLOAD PUSH3 0x461BCD PUSH1 0xE5 SHL DUP2 MSTORE PUSH1 0x20 PUSH1 0x4 DUP3 ADD MSTORE PUSH1 0x7 PUSH1 0x24 DUP3 ADD MSTORE PUSH7 0x4E6F2073616C65 PUSH1 0xC8 SHL PUSH1 0x44 DUP3 ADD MSTORE PUSH1 0x64 ADD PUSH2 0x28A JUMP JUMPDEST PUSH1 0x6 SLOAD PUSH0 SWAP1 DUP2 MSTORE PUSH1 0xD PUSH1 0x20 MSTORE PUSH1 0x40 SWAP1 KECCAK256 PUSH1 0x4 ADD SLOAD PUSH1 0xFF AND ISZERO PUSH2 0x1A42 JUMPI PUSH1 0x40 MLOAD PUSH3 0x461BCD PUSH1 0xE5 SHL DUP2 MSTORE PUSH1 0x20 PUSH1 0x4 DUP3 ADD MSTORE PUSH1 0x16 PUSH1 0x24 DUP3 ADD MSTORE PUSH22 0x14D85B1948185B1C9958591E48199A5B985B1A5E9959 PUSH1 0x52 SHL PUSH1 0x44 DUP3 ADD MSTORE PUSH1 0x64 ADD PUSH2 0x28A JUMP JUMPDEST PUSH0 DUP1 DUP4 PUSH1 0x2 DUP2 GT ISZERO PUSH2 0x1A56 JUMPI PUSH2 0x1A56 PUSH2 0x2C07 JUMP JUMPDEST SUB PUSH2 0x1B11 JUMPI CALLVALUE PUSH0 SUB PUSH2 0x1AAA JUMPI PUSH1 0x40 MLOAD PUSH3 0x461BCD PUSH1 0xE5 SHL DUP2 MSTORE PUSH1 0x20 PUSH1 0x4 DUP3 ADD MSTORE PUSH1 0x17 PUSH1 0x24 DUP3 ADD MSTORE PUSH32 0x53656E6420612076616C696420424E4220616D6F756E74000000000000000000 PUSH1 0x44 DUP3 ADD MSTORE PUSH1 0x64 ADD PUSH2 0x28A JUMP JUMPDEST PUSH2 0x1AB4 DUP4 CALLVALUE PUSH2 0x7EF JUMP JUMPDEST CALLER PUSH0 SWAP1 DUP2 MSTORE PUSH1 0x11 PUSH1 0x20 MSTORE PUSH1 0x40 DUP2 KECCAK256 SWAP2 SWAP3 POP CALLVALUE SWAP2 SWAP1 DUP6 PUSH1 0x2 DUP2 GT ISZERO PUSH2 0x1ADA JUMPI PUSH2 0x1ADA PUSH2 0x2C07 JUMP JUMPDEST PUSH1 0x2 DUP2 GT ISZERO PUSH2 0x1AEB JUMPI PUSH2 0x1AEB PUSH2 0x2C07 JUMP JUMPDEST DUP2 MSTORE PUSH1 0x20 ADD SWAP1 DUP2 MSTORE PUSH1 0x20 ADD PUSH0 KECCAK256 PUSH0 DUP3 DUP3 SLOAD PUSH2 0x1B06 SWAP2 SWAP1 PUSH2 0x2E1D JUMP JUMPDEST SWAP1 SWAP2 SSTORE POP PUSH2 0x1CE9 SWAP1 POP JUMP JUMPDEST PUSH1 0x1 DUP4 PUSH1 0x2 DUP2 GT ISZERO PUSH2 0x1B25 JUMPI PUSH2 0x1B25 PUSH2 0x2C07 JUMP JUMPDEST EQ DUP1 PUSH2 0x1B42 JUMPI POP PUSH1 0x2 DUP4 PUSH1 0x2 DUP2 GT ISZERO PUSH2 0x1B40 JUMPI PUSH2 0x1B40 PUSH2 0x2C07 JUMP JUMPDEST EQ JUMPDEST ISZERO PUSH2 0x1CE9 JUMPI DUP2 PUSH0 SUB PUSH2 0x1B8B JUMPI PUSH1 0x40 MLOAD PUSH3 0x461BCD PUSH1 0xE5 SHL DUP2 MSTORE PUSH1 0x20 PUSH1 0x4 DUP3 ADD MSTORE PUSH1 0x12 PUSH1 0x24 DUP3 ADD MSTORE PUSH18 0x115B9D195C881D985B1A5908185B5BDD5B9D PUSH1 0x72 SHL PUSH1 0x44 DUP3 ADD MSTORE PUSH1 0x64 ADD PUSH2 0x28A JUMP JUMPDEST PUSH0 PUSH1 0x1 DUP5 PUSH1 0x2 DUP2 GT ISZERO PUSH2 0x1BA0 JUMPI PUSH2 0x1BA0 PUSH2 0x2C07 JUMP JUMPDEST EQ PUSH2 0x1BB6 JUMPI PUSH1 0xC SLOAD PUSH1 0x1 PUSH1 0x1 PUSH1 0xA0 SHL SUB AND PUSH2 0x1BC3 JUMP JUMPDEST PUSH1 0xB SLOAD PUSH1 0x1 PUSH1 0x1 PUSH1 0xA0 SHL SUB AND JUMPDEST PUSH1 0x40 MLOAD PUSH4 0x23B872DD PUSH1 0xE0 SHL DUP2 MSTORE CALLER PUSH1 0x4 DUP3 ADD MSTORE ADDRESS PUSH1 0x24 DUP3 ADD MSTORE PUSH1 0x44 DUP2 ADD DUP6 SWAP1 MSTORE SWAP1 SWAP2 POP PUSH1 0x1 PUSH1 0x1 PUSH1 0xA0 SHL SUB DUP3 AND SWAP1 PUSH4 0x23B872DD SWAP1 PUSH1 0x64 ADD PUSH1 0x20 PUSH1 0x40 MLOAD DUP1 DUP4 SUB DUP2 PUSH0 DUP8 GAS CALL ISZERO DUP1 ISZERO PUSH2 0x1C16 JUMPI RETURNDATASIZE PUSH0 PUSH0 RETURNDATACOPY RETURNDATASIZE PUSH0 REVERT JUMPDEST POP POP POP POP PUSH1 0x40 MLOAD RETURNDATASIZE PUSH1 0x1F NOT PUSH1 0x1F DUP3 ADD AND DUP3 ADD DUP1 PUSH1 0x40 MSTORE POP DUP2 ADD SWAP1 PUSH2 0x1C3A SWAP2 SWAP1 PUSH2 0x2E44 JUMP JUMPDEST PUSH2 0x1C86 JUMPI PUSH1 0x40 MLOAD PUSH3 0x461BCD PUSH1 0xE5 SHL DUP2 MSTORE PUSH1 0x20 PUSH1 0x4 DUP3 ADD MSTORE PUSH1 0x1A PUSH1 0x24 DUP3 ADD MSTORE PUSH32 0x537461626C65636F696E207472616E73666572206661696C6564000000000000 PUSH1 0x44 DUP3 ADD MSTORE PUSH1 0x64 ADD PUSH2 0x28A JUMP JUMPDEST PUSH2 0x1C90 DUP5 DUP5 PUSH2 0x7EF JUMP JUMPDEST CALLER PUSH0 SWAP1 DUP2 MSTORE PUSH1 0x11 PUSH1 0x20 MSTORE PUSH1 0x40 DUP2 KECCAK256 SWAP2 SWAP4 POP DUP5 SWAP2 SWAP1 DUP7 PUSH1 0x2 DUP2 GT ISZERO PUSH2 0x1CB6 JUMPI PUSH2 0x1CB6 PUSH2 0x2C07 JUMP JUMPDEST PUSH1 0x2 DUP2 GT ISZERO PUSH2 0x1CC7 JUMPI PUSH2 0x1CC7 PUSH2 0x2C07 JUMP JUMPDEST DUP2 MSTORE PUSH1 0x20 ADD SWAP1 DUP2 MSTORE PUSH1 0x20 ADD PUSH0 KECCAK256 PUSH0 DUP3 DUP3 SLOAD PUSH2 0x1CE2 SWAP2 SWAP1 PUSH2 0x2E1D JUMP JUMPDEST SWAP1 SWAP2 SSTORE POP POP POP JUMPDEST DUP1 PUSH0 SUB PUSH2 0x1D2F JUMPI PUSH1 0x40 MLOAD PUSH3 0x461BCD PUSH1 0xE5 SHL DUP2 MSTORE PUSH1 0x20 PUSH1 0x4 DUP3 ADD MSTORE PUSH1 0x14 PUSH1 0x24 DUP3 ADD MSTORE PUSH20 0x125B9D985B1A59081D1BDAD95B88185B5BDD5B9D PUSH1 0x62 SHL PUSH1 0x44 DUP3 ADD MSTORE PUSH1 0x64 ADD PUSH2 0x28A JUMP JUMPDEST PUSH1 0x6 SLOAD PUSH0 SWAP1 DUP2 MSTORE PUSH1 0xD PUSH1 0x20 MSTORE PUSH1 0x40 DUP2 KECCAK256 PUSH1 0x2 ADD SLOAD PUSH8 0xDE0B6B3A7640000 SWAP1 PUSH2 0x1D57 SWAP1 DUP5 PUSH2 0x2C2F JUMP JUMPDEST PUSH2 0x1D61 SWAP2 SWAP1 PUSH2 0x2D47 JUMP JUMPDEST SWAP1 POP PUSH1 0x5 SLOAD DUP2 PUSH1 0x7 SLOAD PUSH2 0x1D74 SWAP2 SWAP1 PUSH2 0x2E1D JUMP JUMPDEST GT ISZERO PUSH2 0x1DB5 JUMPI PUSH1 0x40 MLOAD PUSH3 0x461BCD PUSH1 0xE5 SHL DUP2 MSTORE PUSH1 0x20 PUSH1 0x4 DUP3 ADD MSTORE PUSH1 0x10 PUSH1 0x24 DUP3 ADD MSTORE PUSH16 0x12185C990818D85C081C995858DA1959 PUSH1 0x82 SHL PUSH1 0x44 DUP3 ADD MSTORE PUSH1 0x64 ADD PUSH2 0x28A JUMP JUMPDEST CALLER PUSH0 SWAP1 DUP2 MSTORE PUSH1 0xE PUSH1 0x20 MSTORE PUSH1 0x40 SWAP1 KECCAK256 SLOAD PUSH2 0x1DCF SWAP1 DUP3 SWAP1 PUSH2 0x2E1D JUMP JUMPDEST CALLER PUSH0 SWAP1 DUP2 MSTORE PUSH1 0xE PUSH1 0x20 MSTORE PUSH1 0x40 SWAP1 KECCAK256 SSTORE PUSH1 0x7 SLOAD PUSH2 0x1DEC SWAP1 DUP3 SWAP1 PUSH2 0x2E1D JUMP JUMPDEST PUSH1 0x7 SSTORE PUSH1 0x6 SLOAD PUSH0 SWAP1 DUP2 MSTORE PUSH1 0xD PUSH1 0x20 MSTORE PUSH1 0x40 DUP2 KECCAK256 PUSH1 0x3 ADD DUP1 SLOAD DUP5 SWAP3 SWAP1 PUSH2 0x1E12 SWAP1 DUP5 SWAP1 PUSH2 0x2E1D JUMP JUMPDEST SWAP1 SWAP2 SSTORE POP POP PUSH1 0x8 SLOAD PUSH2 0x1E25 SWAP1 DUP4 SWAP1 PUSH2 0x2E1D JUMP JUMPDEST PUSH1 0x8 SSTORE CALLER PUSH0 SWAP1 DUP2 MSTORE PUSH1 0xF PUSH1 0x20 MSTORE PUSH1 0x40 DUP2 KECCAK256 SLOAD SWAP1 SUB PUSH2 0x1E7F JUMPI PUSH1 0xA DUP1 SLOAD PUSH1 0x1 DUP2 ADD DUP3 SSTORE PUSH0 SWAP2 SWAP1 SWAP2 MSTORE PUSH32 0xC65A7BB8D6351C1CF70C95A316CC6A92839C986682D98BC35F958F4883F9D2A8 ADD DUP1 SLOAD PUSH1 0x1 PUSH1 0x1 PUSH1 0xA0 SHL SUB NOT AND CALLER OR SWAP1 SSTORE JUMPDEST CALLER PUSH0 SWAP1 DUP2 MSTORE PUSH1 0xF PUSH1 0x20 MSTORE PUSH1 0x40 SWAP1 KECCAK256 SLOAD PUSH2 0x1E99 SWAP1 DUP4 SWAP1 PUSH2 0x2E1D JUMP JUMPDEST CALLER PUSH0 SWAP1 DUP2 MSTORE PUSH1 0xF PUSH1 0x20 SWAP1 DUP2 MSTORE PUSH1 0x40 DUP1 DUP4 KECCAK256 SWAP4 SWAP1 SWAP4 SSTORE PUSH1 0x10 SWAP1 MSTORE KECCAK256 DUP1 SLOAD DUP6 SWAP2 SWAP1 PUSH1 0xFF NOT AND PUSH1 0x1 DUP4 PUSH1 0x2 DUP2 GT ISZERO PUSH2 0x1ED0 JUMPI PUSH2 0x1ED0 PUSH2 0x2C07 JUMP JUMPDEST MUL OR SWAP1 SSTORE POP PUSH1 0x6 SLOAD PUSH0 DUP2 DUP2 MSTORE PUSH1 0xD PUSH1 0x20 MSTORE PUSH1 0x40 SWAP1 DUP2 SWAP1 KECCAK256 PUSH1 0x2 ADD SLOAD SWAP1 MLOAD CALLER SWAP2 PUSH32 0xDBCEF474A632721725D49E3F35D9DEFE0257100B01D1E4B4B135B14D6FE296E8 SWAP2 PUSH2 0x1F20 SWAP2 DUP8 SWAP2 DUP10 SWAP1 DUP12 SWAP1 PUSH2 0x2ED7 JUMP JUMPDEST PUSH1 0x40 MLOAD DUP1 SWAP2 SUB SWAP1 LOG3 POP POP PUSH2 0xE05 PUSH1 0x1 PUSH0 MLOAD PUSH1 0x20 PUSH2 0x2F30 PUSH0 CODECOPY PUSH0 MLOAD SWAP1 PUSH0 MSTORE SSTORE JUMP JUMPDEST PUSH0 PUSH2 0x967 PUSH8 0xDE0B6B3A7640000 DUP4 PUSH2 0x2D47 JUMP JUMPDEST PUSH0 PUSH2 0x967 DUP3 PUSH5 0x2540BE400 PUSH2 0x2C2F JUMP JUMPDEST PUSH0 PUSH2 0x967 PUSH5 0x2540BE400 DUP4 PUSH2 0x2D47 JUMP JUMPDEST PUSH2 0x1F7B PUSH2 0x21F5 JUMP JUMPDEST PUSH1 0x1 PUSH1 0x1 PUSH1 0xA0 SHL SUB DUP2 AND PUSH2 0x1FA4 JUMPI PUSH1 0x40 MLOAD PUSH4 0x1E4FBDF7 PUSH1 0xE0 SHL DUP2 MSTORE PUSH0 PUSH1 0x4 DUP3 ADD MSTORE PUSH1 0x24 ADD PUSH2 0x28A JUMP JUMPDEST PUSH2 0x1FAD DUP2 PUSH2 0x26FD JUMP JUMPDEST POP JUMP JUMPDEST PUSH32 0xF0C57E16840DF040F15088DC2F81FE391C3923BEC73E23A9662EFC9C229C6A00 DUP1 SLOAD PUSH1 0x1 PUSH1 0x40 SHL DUP2 DIV PUSH1 0xFF AND ISZERO SWAP1 PUSH8 0xFFFFFFFFFFFFFFFF AND PUSH0 DUP2 ISZERO DUP1 ISZERO PUSH2 0x1FF5 JUMPI POP DUP3 JUMPDEST SWAP1 POP PUSH0 DUP3 PUSH8 0xFFFFFFFFFFFFFFFF AND PUSH1 0x1 EQ DUP1 ISZERO PUSH2 0x2011 JUMPI POP ADDRESS EXTCODESIZE ISZERO JUMPDEST SWAP1 POP DUP2 ISZERO DUP1 ISZERO PUSH2 0x201F JUMPI POP DUP1 ISZERO JUMPDEST ISZERO PUSH2 0x203D JUMPI PUSH1 0x40 MLOAD PUSH4 0xF92EE8A9 PUSH1 0xE0 SHL DUP2 MSTORE PUSH1 0x4 ADD PUSH1 0x40 MLOAD DUP1 SWAP2 SUB SWAP1 REVERT JUMPDEST DUP5 SLOAD PUSH8 0xFFFFFFFFFFFFFFFF NOT AND PUSH1 0x1 OR DUP6 SSTORE DUP4 ISZERO PUSH2 0x2067 JUMPI DUP5 SLOAD PUSH1 0xFF PUSH1 0x40 SHL NOT AND PUSH1 0x1 PUSH1 0x40 SHL OR DUP6 SSTORE JUMPDEST PUSH2 0x2070 CALLER PUSH2 0x276D JUMP JUMPDEST PUSH2 0x2078 PUSH2 0x277E JUMP JUMPDEST DUP13 PUSH1 0x3 PUSH0 PUSH2 0x100 EXP DUP2 SLOAD DUP2 PUSH1 0x1 PUSH1 0x1 PUSH1 0xA0 SHL SUB MUL NOT AND SWAP1 DUP4 PUSH1 0x1 PUSH1 0x1 PUSH1 0xA0 SHL SUB AND MUL OR SWAP1 SSTORE POP DUP10 PUSH1 0x4 DUP2 SWAP1 SSTORE POP DUP9 PUSH1 0x5 DUP2 SWAP1 SSTORE POP DUP12 PUSH1 0xB PUSH0 PUSH2 0x100 EXP DUP2 SLOAD DUP2 PUSH1 0x1 PUSH1 0x1 PUSH1 0xA0 SHL SUB MUL NOT AND SWAP1 DUP4 PUSH1 0x1 PUSH1 0x1 PUSH1 0xA0 SHL SUB AND MUL OR SWAP1 SSTORE POP DUP11 PUSH1 0xC PUSH0 PUSH2 0x100 EXP DUP2 SLOAD DUP2 PUSH1 0x1 PUSH1 0x1 PUSH1 0xA0 SHL SUB MUL NOT AND SWAP1 DUP4 PUSH1 0x1 PUSH1 0x1 PUSH1 0xA0 SHL SUB AND MUL OR SWAP1 SSTORE POP DUP8 PUSH0 PUSH0 PUSH2 0x100 EXP DUP2 SLOAD DUP2 PUSH1 0x1 PUSH1 0x1 PUSH1 0xA0 SHL SUB MUL NOT AND SWAP1 DUP4 PUSH1 0x1 PUSH1 0x1 PUSH1 0xA0 SHL SUB AND MUL OR SWAP1 SSTORE POP DUP7 PUSH1 0x1 PUSH0 PUSH2 0x100 EXP DUP2 SLOAD DUP2 PUSH1 0x1 PUSH1 0x1 PUSH1 0xA0 SHL SUB MUL NOT AND SWAP1 DUP4 PUSH1 0x1 PUSH1 0x1 PUSH1 0xA0 SHL SUB AND MUL OR SWAP1 SSTORE POP DUP6 PUSH1 0x2 PUSH0 PUSH2 0x100 EXP DUP2 SLOAD DUP2 PUSH1 0x1 PUSH1 0x1 PUSH1 0xA0 SHL SUB MUL NOT AND SWAP1 DUP4 PUSH1 0x1 PUSH1 0x1 PUSH1 0xA0 SHL SUB AND MUL OR SWAP1 SSTORE POP DUP4 ISZERO PUSH2 0x21AF JUMPI DUP5 SLOAD PUSH1 0xFF PUSH1 0x40 SHL NOT AND DUP6 SSTORE PUSH1 0x40 MLOAD PUSH1 0x1 DUP2 MSTORE PUSH32 0xC7F505B2F371AE2175EE4913F4499E1F2633A7B5936321EED1CDAEB6115181D2 SWAP1 PUSH1 0x20 ADD PUSH1 0x40 MLOAD DUP1 SWAP2 SUB SWAP1 LOG1 JUMPDEST POP POP POP POP POP POP POP POP POP POP POP POP POP JUMP JUMPDEST PUSH0 MLOAD PUSH1 0x20 PUSH2 0x2F30 PUSH0 CODECOPY PUSH0 MLOAD SWAP1 PUSH0 MSTORE DUP1 SLOAD PUSH1 0x1 NOT ADD PUSH2 0x21EF JUMPI PUSH1 0x40 MLOAD PUSH4 0x3EE5AEB5 PUSH1 0xE0 SHL DUP2 MSTORE PUSH1 0x4 ADD PUSH1 0x40 MLOAD DUP1 SWAP2 SUB SWAP1 REVERT JUMPDEST PUSH1 0x2 SWAP1 SSTORE JUMP JUMPDEST CALLER PUSH2 0x21FE PUSH2 0x14FC JUMP JUMPDEST PUSH1 0x1 PUSH1 0x1 PUSH1 0xA0 SHL SUB AND EQ PUSH2 0xDAD JUMPI PUSH1 0x40 MLOAD PUSH4 0x118CDAA7 PUSH1 0xE0 SHL DUP2 MSTORE CALLER PUSH1 0x4 DUP3 ADD MSTORE PUSH1 0x24 ADD PUSH2 0x28A JUMP JUMPDEST ADDRESS DUP1 BALANCE DUP1 ISZERO PUSH2 0x22CA JUMPI PUSH0 PUSH2 0x2239 PUSH2 0x14FC JUMP JUMPDEST PUSH1 0x1 PUSH1 0x1 PUSH1 0xA0 SHL SUB AND DUP3 PUSH1 0x40 MLOAD PUSH0 PUSH1 0x40 MLOAD DUP1 DUP4 SUB DUP2 DUP6 DUP8 GAS CALL SWAP3 POP POP POP RETURNDATASIZE DUP1 PUSH0 DUP2 EQ PUSH2 0x2280 JUMPI PUSH1 0x40 MLOAD SWAP2 POP PUSH1 0x1F NOT PUSH1 0x3F RETURNDATASIZE ADD AND DUP3 ADD PUSH1 0x40 MSTORE RETURNDATASIZE DUP3 MSTORE RETURNDATASIZE PUSH0 PUSH1 0x20 DUP5 ADD RETURNDATACOPY PUSH2 0x2285 JUMP JUMPDEST PUSH1 0x60 SWAP2 POP JUMPDEST POP POP SWAP1 POP DUP1 PUSH2 0x22C8 JUMPI PUSH1 0x40 MLOAD PUSH3 0x461BCD PUSH1 0xE5 SHL DUP2 MSTORE PUSH1 0x20 PUSH1 0x4 DUP3 ADD MSTORE PUSH1 0xF PUSH1 0x24 DUP3 ADD MSTORE PUSH15 0x151C985B9CD9995C8819985A5B1959 PUSH1 0x8A SHL PUSH1 0x44 DUP3 ADD MSTORE PUSH1 0x64 ADD PUSH2 0x28A JUMP JUMPDEST POP JUMPDEST PUSH1 0xB SLOAD PUSH1 0x40 MLOAD PUSH4 0x70A08231 PUSH1 0xE0 SHL DUP2 MSTORE PUSH1 0x1 PUSH1 0x1 PUSH1 0xA0 SHL SUB DUP5 DUP2 AND PUSH1 0x4 DUP4 ADD MSTORE PUSH0 SWAP3 AND SWAP1 PUSH4 0x70A08231 SWAP1 PUSH1 0x24 ADD PUSH1 0x20 PUSH1 0x40 MLOAD DUP1 DUP4 SUB DUP2 DUP7 GAS STATICCALL ISZERO DUP1 ISZERO PUSH2 0x2312 JUMPI RETURNDATASIZE PUSH0 PUSH0 RETURNDATACOPY RETURNDATASIZE PUSH0 REVERT JUMPDEST POP POP POP POP PUSH1 0x40 MLOAD RETURNDATASIZE PUSH1 0x1F NOT PUSH1 0x1F DUP3 ADD AND DUP3 ADD DUP1 PUSH1 0x40 MSTORE POP DUP2 ADD SWAP1 PUSH2 0x2336 SWAP2 SWAP1 PUSH2 0x2EC0 JUMP JUMPDEST SWAP1 POP DUP1 ISZERO PUSH2 0x2408 JUMPI PUSH1 0xB SLOAD PUSH1 0x1 PUSH1 0x1 PUSH1 0xA0 SHL SUB AND PUSH4 0xA9059CBB PUSH2 0x2357 PUSH2 0x14FC JUMP JUMPDEST PUSH1 0x40 MLOAD PUSH1 0x1 PUSH1 0x1 PUSH1 0xE0 SHL SUB NOT PUSH1 0xE0 DUP5 SWAP1 SHL AND DUP2 MSTORE PUSH1 0x1 PUSH1 0x1 PUSH1 0xA0 SHL SUB SWAP1 SWAP2 AND PUSH1 0x4 DUP3 ADD MSTORE PUSH1 0x24 DUP2 ADD DUP5 SWAP1 MSTORE PUSH1 0x44 ADD PUSH1 0x20 PUSH1 0x40 MLOAD DUP1 DUP4 SUB DUP2 PUSH0 DUP8 GAS CALL ISZERO DUP1 ISZERO PUSH2 0x23A1 JUMPI RETURNDATASIZE PUSH0 PUSH0 RETURNDATACOPY RETURNDATASIZE PUSH0 REVERT JUMPDEST POP POP POP POP PUSH1 0x40 MLOAD RETURNDATASIZE PUSH1 0x1F NOT PUSH1 0x1F DUP3 ADD AND DUP3 ADD DUP1 PUSH1 0x40 MSTORE POP DUP2 ADD SWAP1 PUSH2 0x23C5 SWAP2 SWAP1 PUSH2 0x2E44 JUMP JUMPDEST PUSH2 0x2408 JUMPI PUSH1 0x40 MLOAD PUSH3 0x461BCD PUSH1 0xE5 SHL DUP2 MSTORE PUSH1 0x20 PUSH1 0x4 DUP3 ADD MSTORE PUSH1 0x14 PUSH1 0x24 DUP3 ADD MSTORE PUSH20 0x1554D115081D1C985B9CD9995C8819985A5B1959 PUSH1 0x62 SHL PUSH1 0x44 DUP3 ADD MSTORE PUSH1 0x64 ADD PUSH2 0x28A JUMP JUMPDEST PUSH1 0xC SLOAD PUSH1 0x40 MLOAD PUSH4 0x70A08231 PUSH1 0xE0 SHL DUP2 MSTORE PUSH1 0x1 PUSH1 0x1 PUSH1 0xA0 SHL SUB DUP6 DUP2 AND PUSH1 0x4 DUP4 ADD MSTORE PUSH0 SWAP3 AND SWAP1 PUSH4 0x70A08231 SWAP1 PUSH1 0x24 ADD PUSH1 0x20 PUSH1 0x40 MLOAD DUP1 DUP4 SUB DUP2 DUP7 GAS STATICCALL ISZERO DUP1 ISZERO PUSH2 0x2450 JUMPI RETURNDATASIZE PUSH0 PUSH0 RETURNDATACOPY RETURNDATASIZE PUSH0 REVERT JUMPDEST POP POP POP POP PUSH1 0x40 MLOAD RETURNDATASIZE PUSH1 0x1F NOT PUSH1 0x1F DUP3 ADD AND DUP3 ADD DUP1 PUSH1 0x40 MSTORE POP DUP2 ADD SWAP1 PUSH2 0x2474 SWAP2 SWAP1 PUSH2 0x2EC0 JUMP JUMPDEST SWAP1 POP DUP1 ISZERO PUSH2 0x2546 JUMPI PUSH1 0xC SLOAD PUSH1 0x1 PUSH1 0x1 PUSH1 0xA0 SHL SUB AND PUSH4 0xA9059CBB PUSH2 0x2495 PUSH2 0x14FC JUMP JUMPDEST PUSH1 0x40 MLOAD PUSH1 0x1 PUSH1 0x1 PUSH1 0xE0 SHL SUB NOT PUSH1 0xE0 DUP5 SWAP1 SHL AND DUP2 MSTORE PUSH1 0x1 PUSH1 0x1 PUSH1 0xA0 SHL SUB SWAP1 SWAP2 AND PUSH1 0x4 DUP3 ADD MSTORE PUSH1 0x24 DUP2 ADD DUP5 SWAP1 MSTORE PUSH1 0x44 ADD PUSH1 0x20 PUSH1 0x40 MLOAD DUP1 DUP4 SUB DUP2 PUSH0 DUP8 GAS CALL ISZERO DUP1 ISZERO PUSH2 0x24DF JUMPI RETURNDATASIZE PUSH0 PUSH0 RETURNDATACOPY RETURNDATASIZE PUSH0 REVERT JUMPDEST POP POP POP POP PUSH1 0x40 MLOAD RETURNDATASIZE PUSH1 0x1F NOT PUSH1 0x1F DUP3 ADD AND DUP3 ADD DUP1 PUSH1 0x40 MSTORE POP DUP2 ADD SWAP1 PUSH2 0x2503 SWAP2 SWAP1 PUSH2 0x2E44 JUMP JUMPDEST PUSH2 0x2546 JUMPI PUSH1 0x40 MLOAD PUSH3 0x461BCD PUSH1 0xE5 SHL DUP2 MSTORE PUSH1 0x20 PUSH1 0x4 DUP3 ADD MSTORE PUSH1 0x14 PUSH1 0x24 DUP3 ADD MSTORE PUSH20 0x1554D110C81D1C985B9CD9995C8819985A5B1959 PUSH1 0x62 SHL PUSH1 0x44 DUP3 ADD MSTORE PUSH1 0x64 ADD PUSH2 0x28A JUMP JUMPDEST POP POP POP POP JUMP JUMPDEST ADDRESS PUSH1 0x1 PUSH1 0x1 PUSH1 0xA0 SHL SUB PUSH32 0x0 AND EQ DUP1 PUSH2 0x25D2 JUMPI POP PUSH32 0x0 PUSH1 0x1 PUSH1 0x1 PUSH1 0xA0 SHL SUB AND PUSH2 0x25C6 PUSH0 MLOAD PUSH1 0x20 PUSH2 0x2F10 PUSH0 CODECOPY PUSH0 MLOAD SWAP1 PUSH0 MSTORE SLOAD PUSH1 0x1 PUSH1 0x1 PUSH1 0xA0 SHL SUB AND SWAP1 JUMP JUMPDEST PUSH1 0x1 PUSH1 0x1 PUSH1 0xA0 SHL SUB AND EQ ISZERO JUMPDEST ISZERO PUSH2 0xDAD JUMPI PUSH1 0x40 MLOAD PUSH4 0x703E46DD PUSH1 0xE1 SHL DUP2 MSTORE PUSH1 0x4 ADD PUSH1 0x40 MLOAD DUP1 SWAP2 SUB SWAP1 REVERT JUMPDEST PUSH2 0x1FAD PUSH2 0x21F5 JUMP JUMPDEST DUP2 PUSH1 0x1 PUSH1 0x1 PUSH1 0xA0 SHL SUB AND PUSH4 0x52D1902D PUSH1 0x40 MLOAD DUP2 PUSH4 0xFFFFFFFF AND PUSH1 0xE0 SHL DUP2 MSTORE PUSH1 0x4 ADD PUSH1 0x20 PUSH1 0x40 MLOAD DUP1 DUP4 SUB DUP2 DUP7 GAS STATICCALL SWAP3 POP POP POP DUP1 ISZERO PUSH2 0x2652 JUMPI POP PUSH1 0x40 DUP1 MLOAD PUSH1 0x1F RETURNDATASIZE SWAP1 DUP2 ADD PUSH1 0x1F NOT AND DUP3 ADD SWAP1 SWAP3 MSTORE PUSH2 0x264F SWAP2 DUP2 ADD SWAP1 PUSH2 0x2EC0 JUMP JUMPDEST PUSH1 0x1 JUMPDEST PUSH2 0x267A JUMPI PUSH1 0x40 MLOAD PUSH4 0x4C9C8CE3 PUSH1 0xE0 SHL DUP2 MSTORE PUSH1 0x1 PUSH1 0x1 PUSH1 0xA0 SHL SUB DUP4 AND PUSH1 0x4 DUP3 ADD MSTORE PUSH1 0x24 ADD PUSH2 0x28A JUMP JUMPDEST PUSH0 MLOAD PUSH1 0x20 PUSH2 0x2F10 PUSH0 CODECOPY PUSH0 MLOAD SWAP1 PUSH0 MSTORE DUP2 EQ PUSH2 0x26AA JUMPI PUSH1 0x40 MLOAD PUSH4 0x2A875269 PUSH1 0xE2 SHL DUP2 MSTORE PUSH1 0x4 DUP2 ADD DUP3 SWAP1 MSTORE PUSH1 0x24 ADD PUSH2 0x28A JUMP JUMPDEST PUSH2 0xFDB DUP4 DUP4 PUSH2 0x2786 JUMP JUMPDEST ADDRESS PUSH1 0x1 PUSH1 0x1 PUSH1 0xA0 SHL SUB PUSH32 0x0 AND EQ PUSH2 0xDAD JUMPI PUSH1 0x40 MLOAD PUSH4 0x703E46DD PUSH1 0xE1 SHL DUP2 MSTORE PUSH1 0x4 ADD PUSH1 0x40 MLOAD DUP1 SWAP2 SUB SWAP1 REVERT JUMPDEST PUSH32 0x9016D09D72D40FDAE2FD8CEAC6B6234C7706214FD39C1CD1E609A0528C199300 DUP1 SLOAD PUSH1 0x1 PUSH1 0x1 PUSH1 0xA0 SHL SUB NOT DUP2 AND PUSH1 0x1 PUSH1 0x1 PUSH1 0xA0 SHL SUB DUP5 DUP2 AND SWAP2 DUP3 OR DUP5 SSTORE PUSH1 0x40 MLOAD SWAP3 AND SWAP2 DUP3 SWAP1 PUSH32 0x8BE0079C531659141344CD1FD0A4F28419497F9722A3DAAFE3B4186F6B6457E0 SWAP1 PUSH0 SWAP1 LOG3 POP POP POP JUMP JUMPDEST PUSH2 0x2775 PUSH2 0x27DB JUMP JUMPDEST PUSH2 0x1FAD DUP2 PUSH2 0x2824 JUMP JUMPDEST PUSH2 0xDAD PUSH2 0x27DB JUMP JUMPDEST PUSH2 0x278F DUP3 PUSH2 0x282C JUMP JUMPDEST PUSH1 0x40 MLOAD PUSH1 0x1 PUSH1 0x1 PUSH1 0xA0 SHL SUB DUP4 AND SWAP1 PUSH32 0xBC7CD75A20EE27FD9ADEBAB32041F755214DBC6BFFA90CC0225B39DA2E5C2D3B SWAP1 PUSH0 SWAP1 LOG2 DUP1 MLOAD ISZERO PUSH2 0x27D3 JUMPI PUSH2 0xFDB DUP3 DUP3 PUSH2 0x288F JUMP JUMPDEST PUSH2 0xE05 PUSH2 0x2901 JUMP JUMPDEST PUSH32 0xF0C57E16840DF040F15088DC2F81FE391C3923BEC73E23A9662EFC9C229C6A00 SLOAD PUSH1 0x1 PUSH1 0x40 SHL SWAP1 DIV PUSH1 0xFF AND PUSH2 0xDAD JUMPI PUSH1 0x40 MLOAD PUSH4 0x1AFCD79F PUSH1 0xE3 SHL DUP2 MSTORE PUSH1 0x4 ADD PUSH1 0x40 MLOAD DUP1 SWAP2 SUB SWAP1 REVERT JUMPDEST PUSH2 0x1F7B PUSH2 0x27DB JUMP JUMPDEST DUP1 PUSH1 0x1 PUSH1 0x1 PUSH1 0xA0 SHL SUB AND EXTCODESIZE PUSH0 SUB PUSH2 0x2861 JUMPI PUSH1 0x40 MLOAD PUSH4 0x4C9C8CE3 PUSH1 0xE0 SHL DUP2 MSTORE PUSH1 0x1 PUSH1 0x1 PUSH1 0xA0 SHL SUB DUP3 AND PUSH1 0x4 DUP3 ADD MSTORE PUSH1 0x24 ADD PUSH2 0x28A JUMP JUMPDEST PUSH0 MLOAD PUSH1 0x20 PUSH2 0x2F10 PUSH0 CODECOPY PUSH0 MLOAD SWAP1 PUSH0 MSTORE DUP1 SLOAD PUSH1 0x1 PUSH1 0x1 PUSH1 0xA0 SHL SUB NOT AND PUSH1 0x1 PUSH1 0x1 PUSH1 0xA0 SHL SUB SWAP3 SWAP1 SWAP3 AND SWAP2 SWAP1 SWAP2 OR SWAP1 SSTORE JUMP JUMPDEST PUSH1 0x60 PUSH0 PUSH0 DUP5 PUSH1 0x1 PUSH1 0x1 PUSH1 0xA0 SHL SUB AND DUP5 PUSH1 0x40 MLOAD PUSH2 0x28AB SWAP2 SWAP1 PUSH2 0x2EF9 JUMP JUMPDEST PUSH0 PUSH1 0x40 MLOAD DUP1 DUP4 SUB DUP2 DUP6 GAS DELEGATECALL SWAP2 POP POP RETURNDATASIZE DUP1 PUSH0 DUP2 EQ PUSH2 0x28E3 JUMPI PUSH1 0x40 MLOAD SWAP2 POP PUSH1 0x1F NOT PUSH1 0x3F RETURNDATASIZE ADD AND DUP3 ADD PUSH1 0x40 MSTORE RETURNDATASIZE DUP3 MSTORE RETURNDATASIZE PUSH0 PUSH1 0x20 DUP5 ADD RETURNDATACOPY PUSH2 0x28E8 JUMP JUMPDEST PUSH1 0x60 SWAP2 POP JUMPDEST POP SWAP2 POP SWAP2 POP PUSH2 0x28F8 DUP6 DUP4 DUP4 PUSH2 0x2920 JUMP JUMPDEST SWAP6 SWAP5 POP POP POP POP POP JUMP JUMPDEST CALLVALUE ISZERO PUSH2 0xDAD JUMPI PUSH1 0x40 MLOAD PUSH4 0xB398979F PUSH1 0xE0 SHL DUP2 MSTORE PUSH1 0x4 ADD PUSH1 0x40 MLOAD DUP1 SWAP2 SUB SWAP1 REVERT JUMPDEST PUSH1 0x60 DUP3 PUSH2 0x2935 JUMPI PUSH2 0x2930 DUP3 PUSH2 0x297F JUMP JUMPDEST PUSH2 0x2978 JUMP JUMPDEST DUP2 MLOAD ISZERO DUP1 ISZERO PUSH2 0x294C JUMPI POP PUSH1 0x1 PUSH1 0x1 PUSH1 0xA0 SHL SUB DUP5 AND EXTCODESIZE ISZERO JUMPDEST ISZERO PUSH2 0x2975 JUMPI PUSH1 0x40 MLOAD PUSH4 0x9996B315 PUSH1 0xE0 SHL DUP2 MSTORE PUSH1 0x1 PUSH1 0x1 PUSH1 0xA0 SHL SUB DUP6 AND PUSH1 0x4 DUP3 ADD MSTORE PUSH1 0x24 ADD PUSH2 0x28A JUMP JUMPDEST POP DUP1 JUMPDEST SWAP4 SWAP3 POP POP POP JUMP JUMPDEST DUP1 MLOAD ISZERO PUSH2 0x298F JUMPI DUP1 MLOAD DUP1 DUP3 PUSH1 0x20 ADD REVERT JUMPDEST PUSH1 0x40 MLOAD PUSH4 0xD6BDA275 PUSH1 0xE0 SHL DUP2 MSTORE PUSH1 0x4 ADD PUSH1 0x40 MLOAD DUP1 SWAP2 SUB SWAP1 REVERT JUMPDEST DUP1 CALLDATALOAD PUSH1 0x3 DUP2 LT PUSH2 0xAC6 JUMPI PUSH0 PUSH0 REVERT JUMPDEST PUSH0 PUSH0 PUSH1 0x40 DUP4 DUP6 SUB SLT ISZERO PUSH2 0x29C7 JUMPI PUSH0 PUSH0 REVERT JUMPDEST PUSH2 0x29D0 DUP4 PUSH2 0x29A8 JUMP JUMPDEST SWAP5 PUSH1 0x20 SWAP4 SWAP1 SWAP4 ADD CALLDATALOAD SWAP4 POP POP POP JUMP JUMPDEST PUSH0 PUSH1 0x20 DUP3 DUP5 SUB SLT ISZERO PUSH2 0x29EE JUMPI PUSH0 PUSH0 REVERT JUMPDEST PUSH2 0x2978 DUP3 PUSH2 0x29A8 JUMP JUMPDEST PUSH0 PUSH1 0x20 DUP3 DUP5 SUB SLT ISZERO PUSH2 0x2A07 JUMPI PUSH0 PUSH0 REVERT JUMPDEST POP CALLDATALOAD SWAP2 SWAP1 POP JUMP JUMPDEST PUSH1 0x1 PUSH1 0x1 PUSH1 0xA0 SHL SUB DUP2 AND DUP2 EQ PUSH2 0x1FAD JUMPI PUSH0 PUSH0 REVERT JUMPDEST PUSH4 0x4E487B71 PUSH1 0xE0 SHL PUSH0 MSTORE PUSH1 0x41 PUSH1 0x4 MSTORE PUSH1 0x24 PUSH0 REVERT JUMPDEST PUSH0 PUSH0 PUSH1 0x40 DUP4 DUP6 SUB SLT ISZERO PUSH2 0x2A47 JUMPI PUSH0 PUSH0 REVERT JUMPDEST DUP3 CALLDATALOAD PUSH2 0x2A52 DUP2 PUSH2 0x2A0E JUMP JUMPDEST SWAP2 POP PUSH1 0x20 DUP4 ADD CALLDATALOAD PUSH8 0xFFFFFFFFFFFFFFFF DUP2 GT ISZERO PUSH2 0x2A6D JUMPI PUSH0 PUSH0 REVERT JUMPDEST DUP4 ADD PUSH1 0x1F DUP2 ADD DUP6 SGT PUSH2 0x2A7D JUMPI PUSH0 PUSH0 REVERT JUMPDEST DUP1 CALLDATALOAD PUSH8 0xFFFFFFFFFFFFFFFF DUP2 GT ISZERO PUSH2 0x2A97 JUMPI PUSH2 0x2A97 PUSH2 0x2A22 JUMP JUMPDEST PUSH1 0x40 MLOAD PUSH1 0x1F DUP3 ADD PUSH1 0x1F NOT SWAP1 DUP2 AND PUSH1 0x3F ADD AND DUP2 ADD PUSH8 0xFFFFFFFFFFFFFFFF DUP2 GT DUP3 DUP3 LT OR ISZERO PUSH2 0x2AC6 JUMPI PUSH2 0x2AC6 PUSH2 0x2A22 JUMP JUMPDEST PUSH1 0x40 MSTORE DUP2 DUP2 MSTORE DUP3 DUP3 ADD PUSH1 0x20 ADD DUP8 LT ISZERO PUSH2 0x2ADD JUMPI PUSH0 PUSH0 REVERT JUMPDEST DUP2 PUSH1 0x20 DUP5 ADD PUSH1 0x20 DUP4 ADD CALLDATACOPY PUSH0 PUSH1 0x20 DUP4 DUP4 ADD ADD MSTORE DUP1 SWAP4 POP POP POP POP SWAP3 POP SWAP3 SWAP1 POP JUMP JUMPDEST PUSH0 PUSH0 PUSH0 PUSH1 0x60 DUP5 DUP7 SUB SLT ISZERO PUSH2 0x2B0E JUMPI PUSH0 PUSH0 REVERT JUMPDEST POP POP DUP2 CALLDATALOAD SWAP4 PUSH1 0x20 DUP4 ADD CALLDATALOAD SWAP4 POP PUSH1 0x40 SWAP1 SWAP3 ADD CALLDATALOAD SWAP2 SWAP1 POP JUMP JUMPDEST PUSH1 0x20 DUP2 MSTORE PUSH0 DUP3 MLOAD DUP1 PUSH1 0x20 DUP5 ADD MSTORE DUP1 PUSH1 0x20 DUP6 ADD PUSH1 0x40 DUP6 ADD MCOPY PUSH0 PUSH1 0x40 DUP3 DUP6 ADD ADD MSTORE PUSH1 0x40 PUSH1 0x1F NOT PUSH1 0x1F DUP4 ADD AND DUP5 ADD ADD SWAP2 POP POP SWAP3 SWAP2 POP POP JUMP JUMPDEST PUSH0 PUSH1 0x20 DUP3 DUP5 SUB SLT ISZERO PUSH2 0x2B6A JUMPI PUSH0 PUSH0 REVERT JUMPDEST DUP2 CALLDATALOAD PUSH2 0x2978 DUP2 PUSH2 0x2A0E JUMP JUMPDEST PUSH0 PUSH0 PUSH0 PUSH0 PUSH0 PUSH0 PUSH0 PUSH0 PUSH2 0x100 DUP10 DUP12 SUB SLT ISZERO PUSH2 0x2B8D JUMPI PUSH0 PUSH0 REVERT JUMPDEST DUP9 CALLDATALOAD PUSH2 0x2B98 DUP2 PUSH2 0x2A0E JUMP JUMPDEST SWAP8 POP PUSH1 0x20 DUP10 ADD CALLDATALOAD PUSH2 0x2BA8 DUP2 PUSH2 0x2A0E JUMP JUMPDEST SWAP7 POP PUSH1 0x40 DUP10 ADD CALLDATALOAD PUSH2 0x2BB8 DUP2 PUSH2 0x2A0E JUMP JUMPDEST SWAP6 POP PUSH1 0x60 DUP10 ADD CALLDATALOAD SWAP5 POP PUSH1 0x80 DUP10 ADD CALLDATALOAD SWAP4 POP PUSH1 0xA0 DUP10 ADD CALLDATALOAD PUSH2 0x2BD6 DUP2 PUSH2 0x2A0E JUMP JUMPDEST SWAP3 POP PUSH1 0xC0 DUP10 ADD CALLDATALOAD PUSH2 0x2BE6 DUP2 PUSH2 0x2A0E JUMP JUMPDEST SWAP2 POP PUSH1 0xE0 DUP10 ADD CALLDATALOAD PUSH2 0x2BF6 DUP2 PUSH2 0x2A0E JUMP JUMPDEST DUP1 SWAP2 POP POP SWAP3 SWAP6 SWAP9 POP SWAP3 SWAP6 SWAP9 SWAP1 SWAP4 SWAP7 POP JUMP JUMPDEST PUSH4 0x4E487B71 PUSH1 0xE0 SHL PUSH0 MSTORE PUSH1 0x21 PUSH1 0x4 MSTORE PUSH1 0x24 PUSH0 REVERT JUMPDEST PUSH4 0x4E487B71 PUSH1 0xE0 SHL PUSH0 MSTORE PUSH1 0x11 PUSH1 0x4 MSTORE PUSH1 0x24 PUSH0 REVERT JUMPDEST DUP1 DUP3 MUL DUP2 ISZERO DUP3 DUP3 DIV DUP5 EQ OR PUSH2 0x967 JUMPI PUSH2 0x967 PUSH2 0x2C1B JUMP JUMPDEST DUP2 DUP2 SUB DUP2 DUP2 GT ISZERO PUSH2 0x967 JUMPI PUSH2 0x967 PUSH2 0x2C1B JUMP JUMPDEST PUSH1 0x1 DUP2 JUMPDEST PUSH1 0x1 DUP5 GT ISZERO PUSH2 0x2C94 JUMPI DUP1 DUP6 DIV DUP2 GT ISZERO PUSH2 0x2C78 JUMPI PUSH2 0x2C78 PUSH2 0x2C1B JUMP JUMPDEST PUSH1 0x1 DUP5 AND ISZERO PUSH2 0x2C86 JUMPI SWAP1 DUP2 MUL SWAP1 JUMPDEST PUSH1 0x1 SWAP4 SWAP1 SWAP4 SHR SWAP3 DUP1 MUL PUSH2 0x2C5D JUMP JUMPDEST SWAP4 POP SWAP4 SWAP2 POP POP JUMP JUMPDEST PUSH0 DUP3 PUSH2 0x2CAA JUMPI POP PUSH1 0x1 PUSH2 0x967 JUMP JUMPDEST DUP2 PUSH2 0x2CB6 JUMPI POP PUSH0 PUSH2 0x967 JUMP JUMPDEST DUP2 PUSH1 0x1 DUP2 EQ PUSH2 0x2CCC JUMPI PUSH1 0x2 DUP2 EQ PUSH2 0x2CD6 JUMPI PUSH2 0x2CF2 JUMP JUMPDEST PUSH1 0x1 SWAP2 POP POP PUSH2 0x967 JUMP JUMPDEST PUSH1 0xFF DUP5 GT ISZERO PUSH2 0x2CE7 JUMPI PUSH2 0x2CE7 PUSH2 0x2C1B JUMP JUMPDEST POP POP PUSH1 0x1 DUP3 SHL PUSH2 0x967 JUMP JUMPDEST POP PUSH1 0x20 DUP4 LT PUSH2 0x133 DUP4 LT AND PUSH1 0x4E DUP5 LT PUSH1 0xB DUP5 LT AND OR ISZERO PUSH2 0x2D15 JUMPI POP DUP2 DUP2 EXP PUSH2 0x967 JUMP JUMPDEST PUSH2 0x2D21 PUSH0 NOT DUP5 DUP5 PUSH2 0x2C59 JUMP JUMPDEST DUP1 PUSH0 NOT DIV DUP3 GT ISZERO PUSH2 0x2D34 JUMPI PUSH2 0x2D34 PUSH2 0x2C1B JUMP JUMPDEST MUL SWAP4 SWAP3 POP POP POP JUMP JUMPDEST PUSH0 PUSH2 0x2978 DUP4 DUP4 PUSH2 0x2C9C JUMP JUMPDEST PUSH0 DUP3 PUSH2 0x2D61 JUMPI PUSH4 0x4E487B71 PUSH1 0xE0 SHL PUSH0 MSTORE PUSH1 0x12 PUSH1 0x4 MSTORE PUSH1 0x24 PUSH0 REVERT JUMPDEST POP DIV SWAP1 JUMP JUMPDEST DUP1 MLOAD PUSH10 0xFFFFFFFFFFFFFFFFFFFF DUP2 AND DUP2 EQ PUSH2 0xAC6 JUMPI PUSH0 PUSH0 REVERT JUMPDEST PUSH0 PUSH0 PUSH0 PUSH0 PUSH0 PUSH1 0xA0 DUP7 DUP9 SUB SLT ISZERO PUSH2 0x2D93 JUMPI PUSH0 PUSH0 REVERT JUMPDEST PUSH2 0x2D9C DUP7 PUSH2 0x2D66 JUMP JUMPDEST PUSH1 0x20 DUP8 ADD MLOAD PUSH1 0x40 DUP9 ADD MLOAD PUSH1 0x60 DUP10 ADD MLOAD SWAP3 SWAP8 POP SWAP1 SWAP6 POP SWAP4 POP SWAP2 POP PUSH2 0x2DC1 PUSH1 0x80 DUP8 ADD PUSH2 0x2D66 JUMP JUMPDEST SWAP1 POP SWAP3 SWAP6 POP SWAP3 SWAP6 SWAP1 SWAP4 POP JUMP JUMPDEST PUSH1 0x20 DUP1 DUP3 MSTORE PUSH1 0x15 SWAP1 DUP3 ADD MSTORE PUSH21 0x1250D3C8185B1C9958591E48199A5B985B1A5E9959 PUSH1 0x5A SHL PUSH1 0x40 DUP3 ADD MSTORE PUSH1 0x60 ADD SWAP1 JUMP JUMPDEST PUSH1 0x20 DUP1 DUP3 MSTORE PUSH1 0x7 SWAP1 DUP3 ADD MSTORE PUSH7 0x199C99595E9959 PUSH1 0xCA SHL PUSH1 0x40 DUP3 ADD MSTORE PUSH1 0x60 ADD SWAP1 JUMP JUMPDEST DUP1 DUP3 ADD DUP1 DUP3 GT ISZERO PUSH2 0x967 JUMPI PUSH2 0x967 PUSH2 0x2C1B JUMP JUMPDEST PUSH4 0x4E487B71 PUSH1 0xE0 SHL PUSH0 MSTORE PUSH1 0x32 PUSH1 0x4 MSTORE PUSH1 0x24 PUSH0 REVERT JUMPDEST PUSH0 PUSH1 0x20 DUP3 DUP5 SUB SLT ISZERO PUSH2 0x2E54 JUMPI PUSH0 PUSH0 REVERT JUMPDEST DUP2 MLOAD DUP1 ISZERO ISZERO DUP2 EQ PUSH2 0x2978 JUMPI PUSH0 PUSH0 REVERT JUMPDEST PUSH1 0x3 DUP2 LT PUSH2 0x2E7F JUMPI PUSH4 0x4E487B71 PUSH1 0xE0 SHL PUSH0 MSTORE PUSH1 0x21 PUSH1 0x4 MSTORE PUSH1 0x24 PUSH0 REVERT JUMPDEST SWAP1 MSTORE JUMP JUMPDEST DUP3 DUP2 MSTORE PUSH1 0x40 DUP2 ADD PUSH2 0x2978 PUSH1 0x20 DUP4 ADD DUP5 PUSH2 0x2E63 JUMP JUMPDEST PUSH4 0x4E487B71 PUSH1 0xE0 SHL PUSH0 MSTORE PUSH1 0x31 PUSH1 0x4 MSTORE PUSH1 0x24 PUSH0 REVERT JUMPDEST PUSH0 DUP2 PUSH2 0x2EB9 JUMPI PUSH2 0x2EB9 PUSH2 0x2C1B JUMP JUMPDEST POP PUSH0 NOT ADD SWAP1 JUMP JUMPDEST PUSH0 PUSH1 0x20 DUP3 DUP5 SUB SLT ISZERO PUSH2 0x2ED0 JUMPI PUSH0 PUSH0 REVERT JUMPDEST POP MLOAD SWAP2 SWAP1 POP JUMP JUMPDEST DUP5 DUP2 MSTORE PUSH1 0x20 DUP2 ADD DUP5 SWAP1 MSTORE PUSH1 0x40 DUP2 ADD DUP4 SWAP1 MSTORE PUSH1 0x80 DUP2 ADD PUSH2 0x28F8 PUSH1 0x60 DUP4 ADD DUP5 PUSH2 0x2E63 JUMP JUMPDEST PUSH0 DUP3 MLOAD DUP1 PUSH1 0x20 DUP6 ADD DUP5 MCOPY PUSH0 SWAP3 ADD SWAP2 DUP3 MSTORE POP SWAP2 SWAP1 POP JUMP INVALID CALLDATASIZE ADDMOD SWAP5 LOG1 EXTCODESIZE LOG1 LOG3 0x21 MOD PUSH8 0xC828492DB98DCA3E KECCAK256 PUSH23 0xCC3735A920A3CA505D382BBC9B779B17422D0DF9222301 DUP12 ORIGIN 0xB4 0xD1 STATICCALL CHAINID 0xE0 PUSH18 0x723D6817E2486D003BECC55F00A264697066 PUSH20 0x5822122036D78F6CBC8B1932872996A08D570C5C CALLVALUE 0xE DUP7 POP 0xB0 COINBASE 0xE7 DUP8 0xBD 0xDD 0x4F ORIGIN 0x28 0xEF DUP13 MSTORE8 PUSH5 0x736F6C6343 STOP ADDMOD SHR STOP CALLER "
				},
				"gasEstimates": {
					"creation": {
						"codeDepositCost": "2433000",
						"executionCost": "infinite",
						"totalCost": "infinite"
					},
					"external": {
						"UPGRADE_INTERFACE_VERSION()": "infinite",
						"_getPriceFeed(uint8)": "infinite",
						"airdropTokens()": "infinite",
						"buyTokens(uint8,uint256)": "infinite",
						"calculatePaymentAmount(uint8,uint256)": "infinite",
						"calculateTokenAmount(uint8,uint256)": "infinite",
						"contributionsInUSD(address)": "2543",
						"createSale(uint256,uint256,uint256)": "infinite",
						"finalizeICO()": "infinite",
						"freeze()": "28847",
						"getCurrentSaleId()": "2415",
						"getHardCapReached()": "4515",
						"getInvestorCount()": "2325",
						"getSaleStartEndTime(uint256)": "13277",
						"getSoftCapReached()": "4464",
						"hardCapInUSD()": "2394",
						"initialize(address,address,address,uint256,uint256,address,address,address)": "infinite",
						"initiateRefund()": "infinite",
						"investors(uint256)": "4657",
						"isFreezed()": "2409",
						"isICOFinalized()": "2375",
						"isTokensAirdropped()": "2388",
						"owner()": "2413",
						"precision_div_10(uint256)": "381",
						"precision_div_18(uint256)": "403",
						"precision_mul_10(uint256)": "infinite",
						"precision_mul_18(uint256)": "infinite",
						"proxiableUUID()": "infinite",
						"renounceOwnership()": "infinite",
						"saleCount()": "2394",
						"sales(uint256)": "11058",
						"softCapInUSD()": "2329",
						"token()": "2468",
						"tokensBoughtByInvestor(address)": "2587",
						"totalFundsRaisedUSD()": "2394",
						"totalTokensSold()": "2328",
						"transferOwnership(address)": "infinite",
						"unFreeze()": "28837",
						"upgradeToAndCall(address,bytes)": "infinite",
						"usdc()": "2470",
						"usdt()": "2448"
					},
					"internal": {
						"_authorizeUpgrade(address)": "infinite",
						"_transferFundsToOwner()": "infinite",
						"getLatestSaleEndTime()": "infinite"
					}
				},
				"methodIdentifiers": {
					"UPGRADE_INTERFACE_VERSION()": "ad3cb1cc",
					"_getPriceFeed(uint8)": "115afc3a",
					"airdropTokens()": "91152c5c",
					"buyTokens(uint8,uint256)": "940c333e",
					"calculatePaymentAmount(uint8,uint256)": "117d260f",
					"calculateTokenAmount(uint8,uint256)": "05834e67",
					"contributionsInUSD(address)": "c81ffdea",
					"createSale(uint256,uint256,uint256)": "6c1909ed",
					"finalizeICO()": "23cc75a8",
					"freeze()": "62a5af3b",
					"getCurrentSaleId()": "212ea247",
					"getHardCapReached()": "91d8730a",
					"getInvestorCount()": "960524e3",
					"getSaleStartEndTime(uint256)": "c211e1f9",
					"getSoftCapReached()": "06e4d36f",
					"hardCapInUSD()": "c1560a14",
					"initialize(address,address,address,uint256,uint256,address,address,address)": "fd663da2",
					"initiateRefund()": "7fb12001",
					"investors(uint256)": "3feb5f2b",
					"isFreezed()": "b9469e1a",
					"isICOFinalized()": "d1f3b23e",
					"isTokensAirdropped()": "4dee1dc3",
					"owner()": "8da5cb5b",
					"precision_div_10(uint256)": "b3fdafb9",
					"precision_div_18(uint256)": "9fa8adb8",
					"precision_mul_10(uint256)": "a1c4b5a2",
					"precision_mul_18(uint256)": "2593198d",
					"proxiableUUID()": "52d1902d",
					"renounceOwnership()": "715018a6",
					"saleCount()": "a1e89aec",
					"sales(uint256)": "b5f522f7",
					"softCapInUSD()": "2151206e",
					"token()": "fc0c546a",
					"tokensBoughtByInvestor(address)": "e8e87389",
					"totalFundsRaisedUSD()": "721bc38b",
					"totalTokensSold()": "63b20117",
					"transferOwnership(address)": "f2fde38b",
					"unFreeze()": "7cf12b90",
					"upgradeToAndCall(address,bytes)": "4f1ef286",
					"usdc()": "3e413bee",
					"usdt()": "2f48ab7d"
				}
			},
			"storageLayout": {
				"storage": [
					{
						"astId": 1685,
						"contract": "ICO/ICOProxy.sol:ICO",
						"label": "priceFeedBNB",
						"offset": 0,
						"slot": "0",
						"type": "t_contract(AggregatorV3Interface)45"
					},
					{
						"astId": 1688,
						"contract": "ICO/ICOProxy.sol:ICO",
						"label": "priceFeedUSDT",
						"offset": 0,
						"slot": "1",
						"type": "t_contract(AggregatorV3Interface)45"
					},
					{
						"astId": 1691,
						"contract": "ICO/ICOProxy.sol:ICO",
						"label": "priceFeedUSDC",
						"offset": 0,
						"slot": "2",
						"type": "t_contract(AggregatorV3Interface)45"
					},
					{
						"astId": 1709,
						"contract": "ICO/ICOProxy.sol:ICO",
						"label": "token",
						"offset": 0,
						"slot": "3",
						"type": "t_contract(IERC20)1264"
					},
					{
						"astId": 1711,
						"contract": "ICO/ICOProxy.sol:ICO",
						"label": "softCapInUSD",
						"offset": 0,
						"slot": "4",
						"type": "t_uint256"
					},
					{
						"astId": 1713,
						"contract": "ICO/ICOProxy.sol:ICO",
						"label": "hardCapInUSD",
						"offset": 0,
						"slot": "5",
						"type": "t_uint256"
					},
					{
						"astId": 1715,
						"contract": "ICO/ICOProxy.sol:ICO",
						"label": "saleCount",
						"offset": 0,
						"slot": "6",
						"type": "t_uint256"
					},
					{
						"astId": 1717,
						"contract": "ICO/ICOProxy.sol:ICO",
						"label": "totalFundsRaisedUSD",
						"offset": 0,
						"slot": "7",
						"type": "t_uint256"
					},
					{
						"astId": 1719,
						"contract": "ICO/ICOProxy.sol:ICO",
						"label": "totalTokensSold",
						"offset": 0,
						"slot": "8",
						"type": "t_uint256"
					},
					{
						"astId": 1727,
						"contract": "ICO/ICOProxy.sol:ICO",
						"label": "isICOFinalized",
						"offset": 0,
						"slot": "9",
						"type": "t_bool"
					},
					{
						"astId": 1729,
						"contract": "ICO/ICOProxy.sol:ICO",
						"label": "isTokensAirdropped",
						"offset": 1,
						"slot": "9",
						"type": "t_bool"
					},
					{
						"astId": 1731,
						"contract": "ICO/ICOProxy.sol:ICO",
						"label": "isFreezed",
						"offset": 2,
						"slot": "9",
						"type": "t_bool"
					},
					{
						"astId": 1734,
						"contract": "ICO/ICOProxy.sol:ICO",
						"label": "investors",
						"offset": 0,
						"slot": "10",
						"type": "t_array(t_address)dyn_storage"
					},
					{
						"astId": 1736,
						"contract": "ICO/ICOProxy.sol:ICO",
						"label": "usdt",
						"offset": 0,
						"slot": "11",
						"type": "t_address"
					},
					{
						"astId": 1738,
						"contract": "ICO/ICOProxy.sol:ICO",
						"label": "usdc",
						"offset": 0,
						"slot": "12",
						"type": "t_address"
					},
					{
						"astId": 1743,
						"contract": "ICO/ICOProxy.sol:ICO",
						"label": "sales",
						"offset": 0,
						"slot": "13",
						"type": "t_mapping(t_uint256,t_struct(Sale)1702_storage)"
					},
					{
						"astId": 1747,
						"contract": "ICO/ICOProxy.sol:ICO",
						"label": "contributionsInUSD",
						"offset": 0,
						"slot": "14",
						"type": "t_mapping(t_address,t_uint256)"
					},
					{
						"astId": 1751,
						"contract": "ICO/ICOProxy.sol:ICO",
						"label": "tokensBoughtByInvestor",
						"offset": 0,
						"slot": "15",
						"type": "t_mapping(t_address,t_uint256)"
					},
					{
						"astId": 1756,
						"contract": "ICO/ICOProxy.sol:ICO",
						"label": "paymentMethodForInvestor",
						"offset": 0,
						"slot": "16",
						"type": "t_mapping(t_address,t_enum(PaymentMethod)1706)"
					},
					{
						"astId": 1763,
						"contract": "ICO/ICOProxy.sol:ICO",
						"label": "investorPayments",
						"offset": 0,
						"slot": "17",
						"type": "t_mapping(t_address,t_mapping(t_enum(PaymentMethod)1706,t_uint256))"
					}
				],
				"types": {
					"t_address": {
						"encoding": "inplace",
						"label": "address",
						"numberOfBytes": "20"
					},
					"t_array(t_address)dyn_storage": {
						"base": "t_address",
						"encoding": "dynamic_array",
						"label": "address[]",
						"numberOfBytes": "32"
					},
					"t_bool": {
						"encoding": "inplace",
						"label": "bool",
						"numberOfBytes": "1"
					},
					"t_contract(AggregatorV3Interface)45": {
						"encoding": "inplace",
						"label": "contract AggregatorV3Interface",
						"numberOfBytes": "20"
					},
					"t_contract(IERC20)1264": {
						"encoding": "inplace",
						"label": "contract IERC20",
						"numberOfBytes": "20"
					},
					"t_enum(PaymentMethod)1706": {
						"encoding": "inplace",
						"label": "enum ICO.PaymentMethod",
						"numberOfBytes": "1"
					},
					"t_mapping(t_address,t_enum(PaymentMethod)1706)": {
						"encoding": "mapping",
						"key": "t_address",
						"label": "mapping(address => enum ICO.PaymentMethod)",
						"numberOfBytes": "32",
						"value": "t_enum(PaymentMethod)1706"
					},
					"t_mapping(t_address,t_mapping(t_enum(PaymentMethod)1706,t_uint256))": {
						"encoding": "mapping",
						"key": "t_address",
						"label": "mapping(address => mapping(enum ICO.PaymentMethod => uint256))",
						"numberOfBytes": "32",
						"value": "t_mapping(t_enum(PaymentMethod)1706,t_uint256)"
					},
					"t_mapping(t_address,t_uint256)": {
						"encoding": "mapping",
						"key": "t_address",
						"label": "mapping(address => uint256)",
						"numberOfBytes": "32",
						"value": "t_uint256"
					},
					"t_mapping(t_enum(PaymentMethod)1706,t_uint256)": {
						"encoding": "mapping",
						"key": "t_enum(PaymentMethod)1706",
						"label": "mapping(enum ICO.PaymentMethod => uint256)",
						"numberOfBytes": "32",
						"value": "t_uint256"
					},
					"t_mapping(t_uint256,t_struct(Sale)1702_storage)": {
						"encoding": "mapping",
						"key": "t_uint256",
						"label": "mapping(uint256 => struct ICO.Sale)",
						"numberOfBytes": "32",
						"value": "t_struct(Sale)1702_storage"
					},
					"t_struct(Sale)1702_storage": {
						"encoding": "inplace",
						"label": "struct ICO.Sale",
						"members": [
							{
								"astId": 1693,
								"contract": "ICO/ICOProxy.sol:ICO",
								"label": "startTime",
								"offset": 0,
								"slot": "0",
								"type": "t_uint256"
							},
							{
								"astId": 1695,
								"contract": "ICO/ICOProxy.sol:ICO",
								"label": "endTime",
								"offset": 0,
								"slot": "1",
								"type": "t_uint256"
							},
							{
								"astId": 1697,
								"contract": "ICO/ICOProxy.sol:ICO",
								"label": "tokenPriceUSD",
								"offset": 0,
								"slot": "2",
								"type": "t_uint256"
							},
							{
								"astId": 1699,
								"contract": "ICO/ICOProxy.sol:ICO",
								"label": "tokensSold",
								"offset": 0,
								"slot": "3",
								"type": "t_uint256"
							},
							{
								"astId": 1701,
								"contract": "ICO/ICOProxy.sol:ICO",
								"label": "isFinalized",
								"offset": 0,
								"slot": "4",
								"type": "t_bool"
							}
						],
						"numberOfBytes": "160"
					},
					"t_uint256": {
						"encoding": "inplace",
						"label": "uint256",
						"numberOfBytes": "32"
					}
				}
			},
			"userdoc": {
				"kind": "user",
				"methods": {},
				"version": 1
			}
		}
	}
}