{
	"data": {
		"bytecode": {
			"linkReferences": {},
			"object": "60806040526009805460ff19169055348015601957600080fd5b50608c806100286000396000f3fe6080604052348015600f57600080fd5b506004361060285760003560e01c80634b6406d114602d575b600080fd5b600654603f90610100900461ffff1681565b60405161ffff909116815260200160405180910390f3fea2646970667358221220a456b8a5a2fbc7dbdb59bbaaba29692ee526a6b5c0ca2460688e967cb181920964736f6c63430008110033",
			"opcodes": "PUSH1 0x80 PUSH1 0x40 MSTORE PUSH1 0x9 DUP1 SLOAD PUSH1 0xFF NOT AND SWAP1 SSTORE CALLVALUE DUP1 ISZERO PUSH1 0x19 JUMPI PUSH1 0x0 DUP1 REVERT JUMPDEST POP PUSH1 0x8C DUP1 PUSH2 0x28 PUSH1 0x0 CODECOPY PUSH1 0x0 RETURN INVALID PUSH1 0x80 PUSH1 0x40 MSTORE CALLVALUE DUP1 ISZERO PUSH1 0xF JUMPI PUSH1 0x0 DUP1 REVERT JUMPDEST POP PUSH1 0x4 CALLDATASIZE LT PUSH1 0x28 JUMPI PUSH1 0x0 CALLDATALOAD PUSH1 0xE0 SHR DUP1 PUSH4 0x4B6406D1 EQ PUSH1 0x2D JUMPI JUMPDEST PUSH1 0x0 DUP1 REVERT JUMPDEST PUSH1 0x6 SLOAD PUSH1 0x3F SWAP1 PUSH2 0x100 SWAP1 DIV PUSH2 0xFFFF AND DUP2 JUMP JUMPDEST PUSH1 0x40 MLOAD PUSH2 0xFFFF SWAP1 SWAP2 AND DUP2 MSTORE PUSH1 0x20 ADD PUSH1 0x40 MLOAD DUP1 SWAP2 SUB SWAP1 RETURN INVALID LOG2 PUSH5 0x6970667358 0x22 SLT KECCAK256 LOG4 JUMP 0xB8 0xA5 LOG2 0xFB 0xC7 0xDB 0xDB MSIZE 0xBB 0xAA 0xBA 0x29 PUSH10 0x2EE526A6B5C0CA246068 DUP15 SWAP7 PUSH29 0xB181920964736F6C634300081100330000000000000000000000000000 "
		},
		"gasEstimates": {
			"creation": {
				"codeDepositCost": "28000",
				"executionCost": "24299",
				"totalCost": "52299"
			},
			"external": {
				"maxsupply()": "2290"
			}
		},
		"methodIdentifiers": {
			"maxsupply()": "4b6406d1"
		}
	},
	"abi": [
		{
			"inputs": [],
			"name": "maxsupply",
			"outputs": [
				{
					"internalType": "uint16",
					"name": "",
					"type": "uint16"
				}
			],
			"stateMutability": "view",
			"type": "function"
		}
	]
}