{
	"Staking/staking.sol": {
		"Staking": {
			"abi": [
				{
					"inputs": [
						{
							"internalType": "address",
							"name": "_stakingToken",
							"type": "address"
						},
						{
							"internalType": "address",
							"name": "_rewardToken",
							"type": "address"
						}
					],
					"stateMutability": "nonpayable",
					"type": "constructor"
				},
				{
					"anonymous": false,
					"inputs": [
						{
							"indexed": true,
							"internalType": "address",
							"name": "user",
							"type": "address"
						},
						{
							"indexed": true,
							"internalType": "uint256",
							"name": "amount",
							"type": "uint256"
						}
					],
					"name": "RewardsClaimed",
					"type": "event"
				},
				{
					"anonymous": false,
					"inputs": [
						{
							"indexed": true,
							"internalType": "address",
							"name": "user",
							"type": "address"
						},
						{
							"indexed": true,
							"internalType": "uint256",
							"name": "amount",
							"type": "uint256"
						}
					],
					"name": "Staked",
					"type": "event"
				},
				{
					"anonymous": false,
					"inputs": [
						{
							"indexed": true,
							"internalType": "address",
							"name": "user",
							"type": "address"
						},
						{
							"indexed": true,
							"internalType": "uint256",
							"name": "amount",
							"type": "uint256"
						}
					],
					"name": "Withdraw",
					"type": "event"
				},
				{
					"inputs": [],
					"name": "Reward_Rate",
					"outputs": [
						{
							"internalType": "uint256",
							"name": "",
							"type": "uint256"
						}
					],
					"stateMutability": "view",
					"type": "function"
				},
				{
					"inputs": [],
					"name": "lastUpdateTime",
					"outputs": [
						{
							"internalType": "uint256",
							"name": "",
							"type": "uint256"
						}
					],
					"stateMutability": "view",
					"type": "function"
				},
				{
					"inputs": [],
					"name": "rewardPerPair",
					"outputs": [
						{
							"internalType": "uint256",
							"name": "",
							"type": "uint256"
						}
					],
					"stateMutability": "view",
					"type": "function"
				},
				{
					"inputs": [],
					"name": "rewardToken",
					"outputs": [
						{
							"internalType": "contract IERC20",
							"name": "",
							"type": "address"
						}
					],
					"stateMutability": "view",
					"type": "function"
				},
				{
					"inputs": [],
					"name": "rewardperTokenStored",
					"outputs": [
						{
							"internalType": "uint256",
							"name": "",
							"type": "uint256"
						}
					],
					"stateMutability": "view",
					"type": "function"
				},
				{
					"inputs": [
						{
							"internalType": "address",
							"name": "",
							"type": "address"
						}
					],
					"name": "rewards",
					"outputs": [
						{
							"internalType": "uint256",
							"name": "",
							"type": "uint256"
						}
					],
					"stateMutability": "view",
					"type": "function"
				},
				{
					"inputs": [
						{
							"internalType": "address",
							"name": "",
							"type": "address"
						}
					],
					"name": "stakedBalance",
					"outputs": [
						{
							"internalType": "uint256",
							"name": "",
							"type": "uint256"
						}
					],
					"stateMutability": "view",
					"type": "function"
				},
				{
					"inputs": [],
					"name": "stakingToken",
					"outputs": [
						{
							"internalType": "contract IERC20",
							"name": "",
							"type": "address"
						}
					],
					"stateMutability": "view",
					"type": "function"
				},
				{
					"inputs": [
						{
							"internalType": "address",
							"name": "",
							"type": "address"
						}
					],
					"name": "userRewardPerToken",
					"outputs": [
						{
							"internalType": "uint256",
							"name": "",
							"type": "uint256"
						}
					],
					"stateMutability": "view",
					"type": "function"
				}
			],
			"devdoc": {
				"kind": "dev",
				"methods": {},
				"version": 1
			},
			"evm": {
				"assembly": "    /* \"Staking/staking.sol\":236:1341  contract Staking is ReentrancyGuard {... */\n  mstore(0x40, 0x80)\n    /* \"Staking/staking.sol\":853:1006  constructor(address _stakingToken, address _rewardToken){... */\n  callvalue\n  dup1\n  iszero\n  tag_1\n  jumpi\n  0x00\n  dup1\n  revert\ntag_1:\n  pop\n  mload(0x40)\n  sub(codesize, bytecodeSize)\n  dup1\n  bytecodeSize\n  dup4\n  codecopy\n  dup2\n  add\n  0x40\n  dup2\n  swap1\n  mstore\n  tag_2\n  swap2\n  tag_3\n  jump\t// in\ntag_2:\n    /* \"@openzeppelin/contracts/security/ReentrancyGuard.sol\":1716:1717  1 */\n  0x01\n    /* \"@openzeppelin/contracts/security/ReentrancyGuard.sol\":1821:1828  _status */\n  0x00\n    /* \"@openzeppelin/contracts/security/ReentrancyGuard.sol\":1821:1843  _status = _NOT_ENTERED */\n  dup2\n  swap1\n  sstore\n    /* \"Staking/staking.sol\":919:955  stakingToken = IERC20(_stakingToken) */\n  dup1\n  sload\n  sub(shl(0xa0, 0x01), 0x01)\n  swap4\n  dup5\n  and\n  not(sub(shl(0xa0, 0x01), 0x01))\n  swap2\n  dup3\n  and\n  or\n  swap1\n  swap2\n  sstore\n    /* \"Staking/staking.sol\":965:976  rewardToken */\n  0x02\n    /* \"Staking/staking.sol\":965:999  rewardToken = IERC20(_rewardToken) */\n  dup1\n  sload\n  swap3\n  swap1\n  swap4\n  and\n  swap2\n  and\n  or\n  swap1\n  sstore\n    /* \"Staking/staking.sol\":236:1341  contract Staking is ReentrancyGuard {... */\n  jump(tag_10)\n    /* \"#utility.yul\":14:191   */\ntag_9:\n    /* \"#utility.yul\":93:106   */\n  dup1\n  mload\n  sub(shl(0xa0, 0x01), 0x01)\n    /* \"#utility.yul\":135:166   */\n  dup2\n  and\n    /* \"#utility.yul\":125:167   */\n  dup2\n  eq\n    /* \"#utility.yul\":115:185   */\n  tag_12\n  jumpi\n    /* \"#utility.yul\":181:182   */\n  0x00\n    /* \"#utility.yul\":178:179   */\n  dup1\n    /* \"#utility.yul\":171:183   */\n  revert\n    /* \"#utility.yul\":115:185   */\ntag_12:\n    /* \"#utility.yul\":14:191   */\n  swap2\n  swap1\n  pop\n  jump\t// out\n    /* \"#utility.yul\":196:489   */\ntag_3:\n    /* \"#utility.yul\":275:281   */\n  0x00\n    /* \"#utility.yul\":283:289   */\n  dup1\n    /* \"#utility.yul\":336:338   */\n  0x40\n    /* \"#utility.yul\":324:333   */\n  dup4\n    /* \"#utility.yul\":315:322   */\n  dup6\n    /* \"#utility.yul\":311:334   */\n  sub\n    /* \"#utility.yul\":307:339   */\n  slt\n    /* \"#utility.yul\":304:356   */\n  iszero\n  tag_14\n  jumpi\n    /* \"#utility.yul\":352:353   */\n  0x00\n    /* \"#utility.yul\":349:350   */\n  dup1\n    /* \"#utility.yul\":342:354   */\n  revert\n    /* \"#utility.yul\":304:356   */\ntag_14:\n    /* \"#utility.yul\":375:415   */\n  tag_15\n    /* \"#utility.yul\":405:414   */\n  dup4\n    /* \"#utility.yul\":375:415   */\n  tag_9\n  jump\t// in\ntag_15:\n    /* \"#utility.yul\":365:415   */\n  swap2\n  pop\n    /* \"#utility.yul\":434:483   */\n  tag_16\n    /* \"#utility.yul\":479:481   */\n  0x20\n    /* \"#utility.yul\":468:477   */\n  dup5\n    /* \"#utility.yul\":464:482   */\n  add\n    /* \"#utility.yul\":434:483   */\n  tag_9\n  jump\t// in\ntag_16:\n    /* \"#utility.yul\":424:483   */\n  swap1\n  pop\n    /* \"#utility.yul\":196:489   */\n  swap3\n  pop\n  swap3\n  swap1\n  pop\n  jump\t// out\ntag_10:\n    /* \"Staking/staking.sol\":236:1341  contract Staking is ReentrancyGuard {... */\n  dataSize(sub_0)\n  dup1\n  dataOffset(sub_0)\n  0x00\n  codecopy\n  0x00\n  return\nstop\n\nsub_0: assembly {\n        /* \"Staking/staking.sol\":236:1341  contract Staking is ReentrancyGuard {... */\n      mstore(0x40, 0x80)\n      callvalue\n      dup1\n      iszero\n      tag_1\n      jumpi\n      0x00\n      dup1\n      revert\n    tag_1:\n      pop\n      jumpi(tag_2, lt(calldatasize, 0x04))\n      shr(0xe0, calldataload(0x00))\n      dup1\n      0x72f702f3\n      gt\n      tag_12\n      jumpi\n      dup1\n      0x72f702f3\n      eq\n      tag_7\n      jumpi\n      dup1\n      0xc8f33c91\n      eq\n      tag_8\n      jumpi\n      dup1\n      0xe6103637\n      eq\n      tag_9\n      jumpi\n      dup1\n      0xf7c618c1\n      eq\n      tag_10\n      jumpi\n      dup1\n      0xfcd21237\n      eq\n      tag_11\n      jumpi\n      0x00\n      dup1\n      revert\n    tag_12:\n      dup1\n      0x0700037d\n      eq\n      tag_3\n      jumpi\n      dup1\n      0x55e6a8ff\n      eq\n      tag_4\n      jumpi\n      dup1\n      0x60217267\n      eq\n      tag_5\n      jumpi\n      dup1\n      0x69ef6ee7\n      eq\n      tag_6\n      jumpi\n    tag_2:\n      0x00\n      dup1\n      revert\n        /* \"Staking/staking.sol\":558:595  mapping(address=>uint) public rewards */\n    tag_3:\n      tag_13\n      tag_14\n      calldatasize\n      0x04\n      tag_15\n      jump\t// in\n    tag_14:\n      mstore(0x20, 0x07)\n      0x00\n      swap1\n      dup2\n      mstore\n      0x40\n      swap1\n      keccak256\n      sload\n      dup2\n      jump\n    tag_13:\n      mload(0x40)\n        /* \"#utility.yul\":451:476   */\n      swap1\n      dup2\n      mstore\n        /* \"#utility.yul\":439:441   */\n      0x20\n        /* \"#utility.yul\":424:442   */\n      add\n        /* \"Staking/staking.sol\":558:595  mapping(address=>uint) public rewards */\n    tag_17:\n      mload(0x40)\n      dup1\n      swap2\n      sub\n      swap1\n      return\n        /* \"Staking/staking.sol\":601:649  mapping(address=>uint) public userRewardPerToken */\n    tag_4:\n      tag_13\n      tag_20\n      calldatasize\n      0x04\n      tag_15\n      jump\t// in\n    tag_20:\n      mstore(0x20, 0x08)\n      0x00\n      swap1\n      dup2\n      mstore\n      0x40\n      swap1\n      keccak256\n      sload\n      dup2\n      jump\n        /* \"Staking/staking.sol\":509:552  mapping(address=>uint) public stakedBalance */\n    tag_5:\n      tag_13\n      tag_24\n      calldatasize\n      0x04\n      tag_15\n      jump\t// in\n    tag_24:\n      mstore(0x20, 0x06)\n      0x00\n      swap1\n      dup2\n      mstore\n      0x40\n      swap1\n      keccak256\n      sload\n      dup2\n      jump\n        /* \"Staking/staking.sol\":343:383  uint256 public constant Reward_Rate = 10 */\n    tag_6:\n      tag_13\n        /* \"Staking/staking.sol\":381:383  10 */\n      0x0a\n        /* \"Staking/staking.sol\":343:383  uint256 public constant Reward_Rate = 10 */\n      dup2\n      jump\n        /* \"Staking/staking.sol\":279:305  IERC20 public stakingToken */\n    tag_7:\n      sload(0x01)\n      tag_30\n      swap1\n      sub(shl(0xa0, 0x01), 0x01)\n      and\n      dup2\n      jump\n    tag_30:\n      mload(0x40)\n      sub(shl(0xa0, 0x01), 0x01)\n        /* \"#utility.yul\":665:697   */\n      swap1\n      swap2\n      and\n        /* \"#utility.yul\":647:698   */\n      dup2\n      mstore\n        /* \"#utility.yul\":635:637   */\n      0x20\n        /* \"#utility.yul\":620:638   */\n      add\n        /* \"Staking/staking.sol\":279:305  IERC20 public stakingToken */\n      tag_17\n        /* \"#utility.yul\":487:704   */\n      jump\n        /* \"Staking/staking.sol\":473:502  uint256 public lastUpdateTime */\n    tag_8:\n      tag_13\n      sload(0x05)\n      dup2\n      jump\n        /* \"Staking/staking.sol\":431:467  uint256 public  rewardperTokenStored */\n    tag_9:\n      tag_13\n      sload(0x04)\n      dup2\n      jump\n        /* \"Staking/staking.sol\":311:336  IERC20 public rewardToken */\n    tag_10:\n      sload(0x02)\n      tag_30\n      swap1\n      sub(shl(0xa0, 0x01), 0x01)\n      and\n      dup2\n      jump\n        /* \"Staking/staking.sol\":1012:1338  function rewardPerPair()public view  returns(uint) {... */\n    tag_11:\n      tag_13\n        /* \"Staking/staking.sol\":1057:1061  uint */\n      0x00\n        /* \"Staking/staking.sol\":1076:1093  totalStakedTokens */\n      sload(0x03)\n        /* \"Staking/staking.sol\":1097:1098  0 */\n      0x00\n        /* \"Staking/staking.sol\":1076:1098  totalStakedTokens == 0 */\n      sub\n        /* \"Staking/staking.sol\":1073:1151  if(totalStakedTokens == 0){... */\n      tag_47\n      jumpi\n      pop\n        /* \"Staking/staking.sol\":1120:1140  rewardperTokenStored */\n      sload(0x04)\n      swap1\n        /* \"Staking/staking.sol\":1012:1338  function rewardPerPair()public view  returns(uint) {... */\n      jump\t// out\n        /* \"Staking/staking.sol\":1073:1151  if(totalStakedTokens == 0){... */\n    tag_47:\n        /* \"Staking/staking.sol\":1160:1174  uint totalTime */\n      0x00\n        /* \"Staking/staking.sol\":1194:1208  lastUpdateTime */\n      sload(0x05)\n        /* \"Staking/staking.sol\":1176:1191  block.timestamp */\n      timestamp\n        /* \"Staking/staking.sol\":1176:1208  block.timestamp - lastUpdateTime */\n      tag_48\n      swap2\n      swap1\n      tag_49\n      jump\t// in\n    tag_48:\n        /* \"Staking/staking.sol\":1160:1208  uint totalTime= block.timestamp - lastUpdateTime */\n      swap1\n      pop\n        /* \"Staking/staking.sol\":1218:1234  uint totalReward */\n      0x00\n        /* \"Staking/staking.sol\":1237:1260  Reward_Rate * totalTime */\n      tag_50\n        /* \"Staking/staking.sol\":1160:1208  uint totalTime= block.timestamp - lastUpdateTime */\n      dup3\n        /* \"Staking/staking.sol\":381:383  10 */\n      0x0a\n        /* \"Staking/staking.sol\":1237:1260  Reward_Rate * totalTime */\n      tag_51\n      jump\t// in\n    tag_50:\n        /* \"Staking/staking.sol\":1218:1260  uint totalReward = Reward_Rate * totalTime */\n      swap1\n      pop\n        /* \"Staking/staking.sol\":1314:1331  totalStakedTokens */\n      sload(0x03)\n        /* \"Staking/staking.sol\":1300:1311  totalReward */\n      dup2\n        /* \"Staking/staking.sol\":1300:1331  totalReward / totalStakedTokens */\n      tag_52\n      swap2\n      swap1\n      tag_53\n      jump\t// in\n    tag_52:\n        /* \"Staking/staking.sol\":1277:1297  rewardperTokenStored */\n      sload(0x04)\n        /* \"Staking/staking.sol\":1277:1331  rewardperTokenStored + totalReward / totalStakedTokens */\n      tag_54\n      swap2\n      swap1\n      tag_55\n      jump\t// in\n    tag_54:\n        /* \"Staking/staking.sol\":1270:1331  return rewardperTokenStored + totalReward / totalStakedTokens */\n      swap3\n      pop\n      pop\n      pop\n        /* \"Staking/staking.sol\":1012:1338  function rewardPerPair()public view  returns(uint) {... */\n      swap1\n      jump\t// out\n        /* \"#utility.yul\":14:300   */\n    tag_15:\n        /* \"#utility.yul\":73:79   */\n      0x00\n        /* \"#utility.yul\":126:128   */\n      0x20\n        /* \"#utility.yul\":114:123   */\n      dup3\n        /* \"#utility.yul\":105:112   */\n      dup5\n        /* \"#utility.yul\":101:124   */\n      sub\n        /* \"#utility.yul\":97:129   */\n      slt\n        /* \"#utility.yul\":94:146   */\n      iszero\n      tag_59\n      jumpi\n        /* \"#utility.yul\":142:143   */\n      0x00\n        /* \"#utility.yul\":139:140   */\n      dup1\n        /* \"#utility.yul\":132:144   */\n      revert\n        /* \"#utility.yul\":94:146   */\n    tag_59:\n        /* \"#utility.yul\":168:191   */\n      dup2\n      calldataload\n      sub(shl(0xa0, 0x01), 0x01)\n        /* \"#utility.yul\":220:251   */\n      dup2\n      and\n        /* \"#utility.yul\":210:252   */\n      dup2\n      eq\n        /* \"#utility.yul\":200:270   */\n      tag_60\n      jumpi\n        /* \"#utility.yul\":266:267   */\n      0x00\n        /* \"#utility.yul\":263:264   */\n      dup1\n        /* \"#utility.yul\":256:268   */\n      revert\n        /* \"#utility.yul\":200:270   */\n    tag_60:\n        /* \"#utility.yul\":289:294   */\n      swap4\n        /* \"#utility.yul\":14:300   */\n      swap3\n      pop\n      pop\n      pop\n      jump\t// out\n        /* \"#utility.yul\":709:836   */\n    tag_56:\n        /* \"#utility.yul\":770:780   */\n      0x4e487b71\n        /* \"#utility.yul\":765:768   */\n      0xe0\n        /* \"#utility.yul\":761:781   */\n      shl\n        /* \"#utility.yul\":758:759   */\n      0x00\n        /* \"#utility.yul\":751:782   */\n      mstore\n        /* \"#utility.yul\":801:805   */\n      0x11\n        /* \"#utility.yul\":798:799   */\n      0x04\n        /* \"#utility.yul\":791:806   */\n      mstore\n        /* \"#utility.yul\":825:829   */\n      0x24\n        /* \"#utility.yul\":822:823   */\n      0x00\n        /* \"#utility.yul\":815:830   */\n      revert\n        /* \"#utility.yul\":841:969   */\n    tag_49:\n        /* \"#utility.yul\":908:917   */\n      dup2\n      dup2\n      sub\n        /* \"#utility.yul\":929:940   */\n      dup2\n      dup2\n      gt\n        /* \"#utility.yul\":926:963   */\n      iszero\n      tag_66\n      jumpi\n        /* \"#utility.yul\":943:961   */\n      tag_66\n      tag_56\n      jump\t// in\n    tag_66:\n        /* \"#utility.yul\":841:969   */\n      swap3\n      swap2\n      pop\n      pop\n      jump\t// out\n        /* \"#utility.yul\":974:1142   */\n    tag_51:\n        /* \"#utility.yul\":1047:1056   */\n      dup1\n      dup3\n      mul\n        /* \"#utility.yul\":1078:1087   */\n      dup2\n      iszero\n        /* \"#utility.yul\":1095:1110   */\n      dup3\n      dup3\n      div\n        /* \"#utility.yul\":1089:1111   */\n      dup5\n      eq\n        /* \"#utility.yul\":1075:1112   */\n      or\n        /* \"#utility.yul\":1065:1136   */\n      tag_66\n      jumpi\n        /* \"#utility.yul\":1116:1134   */\n      tag_66\n      tag_56\n      jump\t// in\n        /* \"#utility.yul\":1147:1364   */\n    tag_53:\n        /* \"#utility.yul\":1187:1188   */\n      0x00\n        /* \"#utility.yul\":1213:1214   */\n      dup3\n        /* \"#utility.yul\":1203:1335   */\n      tag_71\n      jumpi\n        /* \"#utility.yul\":1257:1267   */\n      0x4e487b71\n        /* \"#utility.yul\":1252:1255   */\n      0xe0\n        /* \"#utility.yul\":1248:1268   */\n      shl\n        /* \"#utility.yul\":1245:1246   */\n      0x00\n        /* \"#utility.yul\":1238:1269   */\n      mstore\n        /* \"#utility.yul\":1292:1296   */\n      0x12\n        /* \"#utility.yul\":1289:1290   */\n      0x04\n        /* \"#utility.yul\":1282:1297   */\n      mstore\n        /* \"#utility.yul\":1320:1324   */\n      0x24\n        /* \"#utility.yul\":1317:1318   */\n      0x00\n        /* \"#utility.yul\":1310:1325   */\n      revert\n        /* \"#utility.yul\":1203:1335   */\n    tag_71:\n      pop\n        /* \"#utility.yul\":1349:1358   */\n      div\n      swap1\n        /* \"#utility.yul\":1147:1364   */\n      jump\t// out\n        /* \"#utility.yul\":1369:1494   */\n    tag_55:\n        /* \"#utility.yul\":1434:1443   */\n      dup1\n      dup3\n      add\n        /* \"#utility.yul\":1455:1465   */\n      dup1\n      dup3\n      gt\n        /* \"#utility.yul\":1452:1488   */\n      iszero\n      tag_66\n      jumpi\n        /* \"#utility.yul\":1468:1486   */\n      tag_66\n      tag_56\n      jump\t// in\n\n    auxdata: 0xa2646970667358221220d4412f7f2787e304e6d0954ac7cea72a12d9f7bc76fa01cfc2d9d33a56c7781a64736f6c63430008140033\n}\n",
				"bytecode": {
					"linkReferences": {},
					"object": "608060405234801561001057600080fd5b5060405161036038038061036083398101604081905261002f91610081565b6001600081905580546001600160a01b039384166001600160a01b031991821617909155600280549290931691161790556100b4565b80516001600160a01b038116811461007c57600080fd5b919050565b6000806040838503121561009457600080fd5b61009d83610065565b91506100ab60208401610065565b90509250929050565b61029d806100c36000396000f3fe608060405234801561001057600080fd5b50600436106100935760003560e01c806372f702f31161006657806372f702f314610113578063c8f33c911461013e578063e610363714610147578063f7c618c114610150578063fcd212371461016357600080fd5b80630700037d1461009857806355e6a8ff146100cb57806360217267146100eb57806369ef6ee71461010b575b600080fd5b6100b86100a63660046101bc565b60076020526000908152604090205481565b6040519081526020015b60405180910390f35b6100b86100d93660046101bc565b60086020526000908152604090205481565b6100b86100f93660046101bc565b60066020526000908152604090205481565b6100b8600a81565b600154610126906001600160a01b031681565b6040516001600160a01b0390911681526020016100c2565b6100b860055481565b6100b860045481565b600254610126906001600160a01b031681565b6100b86000600354600003610179575060045490565b6000600554426101899190610202565b9050600061019882600a61021b565b9050600354816101a89190610232565b6004546101b59190610254565b9250505090565b6000602082840312156101ce57600080fd5b81356001600160a01b03811681146101e557600080fd5b9392505050565b634e487b7160e01b600052601160045260246000fd5b81810381811115610215576102156101ec565b92915050565b8082028115828204841417610215576102156101ec565b60008261024f57634e487b7160e01b600052601260045260246000fd5b500490565b80820180821115610215576102156101ec56fea2646970667358221220d4412f7f2787e304e6d0954ac7cea72a12d9f7bc76fa01cfc2d9d33a56c7781a64736f6c63430008140033",
					"opcodes": "PUSH1 0x80 PUSH1 0x40 MSTORE CALLVALUE DUP1 ISZERO PUSH2 0x10 JUMPI PUSH1 0x0 DUP1 REVERT JUMPDEST POP PUSH1 0x40 MLOAD PUSH2 0x360 CODESIZE SUB DUP1 PUSH2 0x360 DUP4 CODECOPY DUP2 ADD PUSH1 0x40 DUP2 SWAP1 MSTORE PUSH2 0x2F SWAP2 PUSH2 0x81 JUMP JUMPDEST PUSH1 0x1 PUSH1 0x0 DUP2 SWAP1 SSTORE DUP1 SLOAD PUSH1 0x1 PUSH1 0x1 PUSH1 0xA0 SHL SUB SWAP4 DUP5 AND PUSH1 0x1 PUSH1 0x1 PUSH1 0xA0 SHL SUB NOT SWAP2 DUP3 AND OR SWAP1 SWAP2 SSTORE PUSH1 0x2 DUP1 SLOAD SWAP3 SWAP1 SWAP4 AND SWAP2 AND OR SWAP1 SSTORE PUSH2 0xB4 JUMP JUMPDEST DUP1 MLOAD PUSH1 0x1 PUSH1 0x1 PUSH1 0xA0 SHL SUB DUP2 AND DUP2 EQ PUSH2 0x7C JUMPI PUSH1 0x0 DUP1 REVERT JUMPDEST SWAP2 SWAP1 POP JUMP JUMPDEST PUSH1 0x0 DUP1 PUSH1 0x40 DUP4 DUP6 SUB SLT ISZERO PUSH2 0x94 JUMPI PUSH1 0x0 DUP1 REVERT JUMPDEST PUSH2 0x9D DUP4 PUSH2 0x65 JUMP JUMPDEST SWAP2 POP PUSH2 0xAB PUSH1 0x20 DUP5 ADD PUSH2 0x65 JUMP JUMPDEST SWAP1 POP SWAP3 POP SWAP3 SWAP1 POP JUMP JUMPDEST PUSH2 0x29D DUP1 PUSH2 0xC3 PUSH1 0x0 CODECOPY PUSH1 0x0 RETURN INVALID PUSH1 0x80 PUSH1 0x40 MSTORE CALLVALUE DUP1 ISZERO PUSH2 0x10 JUMPI PUSH1 0x0 DUP1 REVERT JUMPDEST POP PUSH1 0x4 CALLDATASIZE LT PUSH2 0x93 JUMPI PUSH1 0x0 CALLDATALOAD PUSH1 0xE0 SHR DUP1 PUSH4 0x72F702F3 GT PUSH2 0x66 JUMPI DUP1 PUSH4 0x72F702F3 EQ PUSH2 0x113 JUMPI DUP1 PUSH4 0xC8F33C91 EQ PUSH2 0x13E JUMPI DUP1 PUSH4 0xE6103637 EQ PUSH2 0x147 JUMPI DUP1 PUSH4 0xF7C618C1 EQ PUSH2 0x150 JUMPI DUP1 PUSH4 0xFCD21237 EQ PUSH2 0x163 JUMPI PUSH1 0x0 DUP1 REVERT JUMPDEST DUP1 PUSH4 0x700037D EQ PUSH2 0x98 JUMPI DUP1 PUSH4 0x55E6A8FF EQ PUSH2 0xCB JUMPI DUP1 PUSH4 0x60217267 EQ PUSH2 0xEB JUMPI DUP1 PUSH4 0x69EF6EE7 EQ PUSH2 0x10B JUMPI JUMPDEST PUSH1 0x0 DUP1 REVERT JUMPDEST PUSH2 0xB8 PUSH2 0xA6 CALLDATASIZE PUSH1 0x4 PUSH2 0x1BC JUMP JUMPDEST PUSH1 0x7 PUSH1 0x20 MSTORE PUSH1 0x0 SWAP1 DUP2 MSTORE PUSH1 0x40 SWAP1 KECCAK256 SLOAD DUP2 JUMP JUMPDEST PUSH1 0x40 MLOAD SWAP1 DUP2 MSTORE PUSH1 0x20 ADD JUMPDEST PUSH1 0x40 MLOAD DUP1 SWAP2 SUB SWAP1 RETURN JUMPDEST PUSH2 0xB8 PUSH2 0xD9 CALLDATASIZE PUSH1 0x4 PUSH2 0x1BC JUMP JUMPDEST PUSH1 0x8 PUSH1 0x20 MSTORE PUSH1 0x0 SWAP1 DUP2 MSTORE PUSH1 0x40 SWAP1 KECCAK256 SLOAD DUP2 JUMP JUMPDEST PUSH2 0xB8 PUSH2 0xF9 CALLDATASIZE PUSH1 0x4 PUSH2 0x1BC JUMP JUMPDEST PUSH1 0x6 PUSH1 0x20 MSTORE PUSH1 0x0 SWAP1 DUP2 MSTORE PUSH1 0x40 SWAP1 KECCAK256 SLOAD DUP2 JUMP JUMPDEST PUSH2 0xB8 PUSH1 0xA DUP2 JUMP JUMPDEST PUSH1 0x1 SLOAD PUSH2 0x126 SWAP1 PUSH1 0x1 PUSH1 0x1 PUSH1 0xA0 SHL SUB AND DUP2 JUMP JUMPDEST PUSH1 0x40 MLOAD PUSH1 0x1 PUSH1 0x1 PUSH1 0xA0 SHL SUB SWAP1 SWAP2 AND DUP2 MSTORE PUSH1 0x20 ADD PUSH2 0xC2 JUMP JUMPDEST PUSH2 0xB8 PUSH1 0x5 SLOAD DUP2 JUMP JUMPDEST PUSH2 0xB8 PUSH1 0x4 SLOAD DUP2 JUMP JUMPDEST PUSH1 0x2 SLOAD PUSH2 0x126 SWAP1 PUSH1 0x1 PUSH1 0x1 PUSH1 0xA0 SHL SUB AND DUP2 JUMP JUMPDEST PUSH2 0xB8 PUSH1 0x0 PUSH1 0x3 SLOAD PUSH1 0x0 SUB PUSH2 0x179 JUMPI POP PUSH1 0x4 SLOAD SWAP1 JUMP JUMPDEST PUSH1 0x0 PUSH1 0x5 SLOAD TIMESTAMP PUSH2 0x189 SWAP2 SWAP1 PUSH2 0x202 JUMP JUMPDEST SWAP1 POP PUSH1 0x0 PUSH2 0x198 DUP3 PUSH1 0xA PUSH2 0x21B JUMP JUMPDEST SWAP1 POP PUSH1 0x3 SLOAD DUP2 PUSH2 0x1A8 SWAP2 SWAP1 PUSH2 0x232 JUMP JUMPDEST PUSH1 0x4 SLOAD PUSH2 0x1B5 SWAP2 SWAP1 PUSH2 0x254 JUMP JUMPDEST SWAP3 POP POP POP SWAP1 JUMP JUMPDEST PUSH1 0x0 PUSH1 0x20 DUP3 DUP5 SUB SLT ISZERO PUSH2 0x1CE JUMPI PUSH1 0x0 DUP1 REVERT JUMPDEST DUP2 CALLDATALOAD PUSH1 0x1 PUSH1 0x1 PUSH1 0xA0 SHL SUB DUP2 AND DUP2 EQ PUSH2 0x1E5 JUMPI PUSH1 0x0 DUP1 REVERT JUMPDEST SWAP4 SWAP3 POP POP POP JUMP JUMPDEST PUSH4 0x4E487B71 PUSH1 0xE0 SHL PUSH1 0x0 MSTORE PUSH1 0x11 PUSH1 0x4 MSTORE PUSH1 0x24 PUSH1 0x0 REVERT JUMPDEST DUP2 DUP2 SUB DUP2 DUP2 GT ISZERO PUSH2 0x215 JUMPI PUSH2 0x215 PUSH2 0x1EC JUMP JUMPDEST SWAP3 SWAP2 POP POP JUMP JUMPDEST DUP1 DUP3 MUL DUP2 ISZERO DUP3 DUP3 DIV DUP5 EQ OR PUSH2 0x215 JUMPI PUSH2 0x215 PUSH2 0x1EC JUMP JUMPDEST PUSH1 0x0 DUP3 PUSH2 0x24F JUMPI PUSH4 0x4E487B71 PUSH1 0xE0 SHL PUSH1 0x0 MSTORE PUSH1 0x12 PUSH1 0x4 MSTORE PUSH1 0x24 PUSH1 0x0 REVERT JUMPDEST POP DIV SWAP1 JUMP JUMPDEST DUP1 DUP3 ADD DUP1 DUP3 GT ISZERO PUSH2 0x215 JUMPI PUSH2 0x215 PUSH2 0x1EC JUMP INVALID LOG2 PUSH5 0x6970667358 0x22 SLT KECCAK256 0xD4 COINBASE 0x2F PUSH32 0x2787E304E6D0954AC7CEA72A12D9F7BC76FA01CFC2D9D33A56C7781A64736F6C PUSH4 0x43000814 STOP CALLER "
				},
				"gasEstimates": {
					"creation": {
						"codeDepositCost": "133800",
						"executionCost": "infinite",
						"totalCost": "infinite"
					},
					"external": {
						"Reward_Rate()": "251",
						"lastUpdateTime()": "2306",
						"rewardPerPair()": "infinite",
						"rewardToken()": "2403",
						"rewardperTokenStored()": "2328",
						"rewards(address)": "2474",
						"stakedBalance(address)": "2518",
						"stakingToken()": "2337",
						"userRewardPerToken(address)": "2496"
					}
				},
				"methodIdentifiers": {
					"Reward_Rate()": "69ef6ee7",
					"lastUpdateTime()": "c8f33c91",
					"rewardPerPair()": "fcd21237",
					"rewardToken()": "f7c618c1",
					"rewardperTokenStored()": "e6103637",
					"rewards(address)": "0700037d",
					"stakedBalance(address)": "60217267",
					"stakingToken()": "72f702f3",
					"userRewardPerToken(address)": "55e6a8ff"
				}
			},
			"storageLayout": {
				"storage": [
					{
						"astId": 10,
						"contract": "Staking/staking.sol:Staking",
						"label": "_status",
						"offset": 0,
						"slot": "0",
						"type": "t_uint256"
					},
					{
						"astId": 464,
						"contract": "Staking/staking.sol:Staking",
						"label": "stakingToken",
						"offset": 0,
						"slot": "1",
						"type": "t_contract(IERC20)142"
					},
					{
						"astId": 467,
						"contract": "Staking/staking.sol:Staking",
						"label": "rewardToken",
						"offset": 0,
						"slot": "2",
						"type": "t_contract(IERC20)142"
					},
					{
						"astId": 472,
						"contract": "Staking/staking.sol:Staking",
						"label": "totalStakedTokens",
						"offset": 0,
						"slot": "3",
						"type": "t_uint256"
					},
					{
						"astId": 474,
						"contract": "Staking/staking.sol:Staking",
						"label": "rewardperTokenStored",
						"offset": 0,
						"slot": "4",
						"type": "t_uint256"
					},
					{
						"astId": 476,
						"contract": "Staking/staking.sol:Staking",
						"label": "lastUpdateTime",
						"offset": 0,
						"slot": "5",
						"type": "t_uint256"
					},
					{
						"astId": 480,
						"contract": "Staking/staking.sol:Staking",
						"label": "stakedBalance",
						"offset": 0,
						"slot": "6",
						"type": "t_mapping(t_address,t_uint256)"
					},
					{
						"astId": 484,
						"contract": "Staking/staking.sol:Staking",
						"label": "rewards",
						"offset": 0,
						"slot": "7",
						"type": "t_mapping(t_address,t_uint256)"
					},
					{
						"astId": 488,
						"contract": "Staking/staking.sol:Staking",
						"label": "userRewardPerToken",
						"offset": 0,
						"slot": "8",
						"type": "t_mapping(t_address,t_uint256)"
					}
				],
				"types": {
					"t_address": {
						"encoding": "inplace",
						"label": "address",
						"numberOfBytes": "20"
					},
					"t_contract(IERC20)142": {
						"encoding": "inplace",
						"label": "contract IERC20",
						"numberOfBytes": "20"
					},
					"t_mapping(t_address,t_uint256)": {
						"encoding": "mapping",
						"key": "t_address",
						"label": "mapping(address => uint256)",
						"numberOfBytes": "32",
						"value": "t_uint256"
					},
					"t_uint256": {
						"encoding": "inplace",
						"label": "uint256",
						"numberOfBytes": "32"
					}
				}
			},
			"userdoc": {
				"kind": "user",
				"methods": {},
				"version": 1
			}
		}
	}
}