{
	"SMTchecker.sol": {
		"Overflow": {
			"abi": [
				{
					"inputs": [
						{
							"internalType": "uint256",
							"name": "x_",
							"type": "uint256"
						},
						{
							"internalType": "uint256",
							"name": "y_",
							"type": "uint256"
						}
					],
					"stateMutability": "nonpayable",
					"type": "constructor"
				},
				{
					"inputs": [],
					"name": "stateAdd",
					"outputs": [
						{
							"internalType": "uint256",
							"name": "",
							"type": "uint256"
						}
					],
					"stateMutability": "view",
					"type": "function"
				}
			],
			"devdoc": {
				"kind": "dev",
				"methods": {},
				"version": 1
			},
			"evm": {
				"assembly": "    /* \"SMTchecker.sol\":63:381  contract Overflow {... */\n  mstore(0x40, 0xc0)\n    /* \"SMTchecker.sol\":229:293  constructor(uint x_, uint y_) {... */\n  callvalue\n  dup1\n  iszero\n  tag_1\n  jumpi\n  0x00\n  dup1\n  revert\ntag_1:\n  pop\n  mload(0x40)\n  sub(codesize, bytecodeSize)\n  dup1\n  bytecodeSize\n  dup4\n  codecopy\n  dup2\n  add\n  0x40\n  dup2\n  swap1\n  mstore\n  tag_2\n  swap2\n  tag_3\n  jump\t// in\ntag_2:\n    /* \"SMTchecker.sol\":269:286  (x, y) = (x_, y_) */\n  0xa0\n  mstore\n  0x80\n  mstore\n    /* \"SMTchecker.sol\":63:381  contract Overflow {... */\n  jump(tag_7)\n    /* \"#utility.yul\":14:259   */\ntag_3:\n    /* \"#utility.yul\":93:99   */\n  0x00\n    /* \"#utility.yul\":101:107   */\n  dup1\n    /* \"#utility.yul\":154:156   */\n  0x40\n    /* \"#utility.yul\":142:151   */\n  dup4\n    /* \"#utility.yul\":133:140   */\n  dup6\n    /* \"#utility.yul\":129:152   */\n  sub\n    /* \"#utility.yul\":125:157   */\n  slt\n    /* \"#utility.yul\":122:174   */\n  iszero\n  tag_9\n  jumpi\n    /* \"#utility.yul\":170:171   */\n  0x00\n    /* \"#utility.yul\":167:168   */\n  dup1\n    /* \"#utility.yul\":160:172   */\n  revert\n    /* \"#utility.yul\":122:174   */\ntag_9:\n  pop\n  pop\n    /* \"#utility.yul\":193:209   */\n  dup1\n  mload\n    /* \"#utility.yul\":249:251   */\n  0x20\n    /* \"#utility.yul\":234:252   */\n  swap1\n  swap2\n  add\n    /* \"#utility.yul\":228:253   */\n  mload\n    /* \"#utility.yul\":193:209   */\n  swap1\n  swap3\n    /* \"#utility.yul\":228:253   */\n  swap1\n  swap2\n  pop\n    /* \"#utility.yul\":14:259   */\n  jump\t// out\ntag_7:\n    /* \"SMTchecker.sol\":63:381  contract Overflow {... */\n  mload(0x80)\n  mload(0xa0)\n  codecopy(0x00, dataOffset(sub_0), dataSize(sub_0))\n  0x00\n  assignImmutable(\"0xceebf77a833b30520287ddd9478ff51abbdffa30aa90a8d655dba0e8a79ce0c1\")\n  0x00\n  assignImmutable(\"0x2a80e1ef1d7842f27f2e6be0972bb708b9a135c38860dbe73c27c3486c34f4de\")\n  return(0x00, dataSize(sub_0))\nstop\n\nsub_0: assembly {\n        /* \"SMTchecker.sol\":63:381  contract Overflow {... */\n      mstore(0x40, 0x80)\n      callvalue\n      dup1\n      iszero\n      tag_1\n      jumpi\n      0x00\n      dup1\n      revert\n    tag_1:\n      pop\n      jumpi(tag_2, lt(calldatasize, 0x04))\n      shr(0xe0, calldataload(0x00))\n      dup1\n      0xe1a62055\n      eq\n      tag_3\n      jumpi\n    tag_2:\n      0x00\n      dup1\n      revert\n        /* \"SMTchecker.sol\":299:379  function stateAdd() public view returns (uint) {... */\n    tag_3:\n      tag_4\n      tag_5\n      jump\t// in\n    tag_4:\n      mload(0x40)\n        /* \"#utility.yul\":160:185   */\n      swap1\n      dup2\n      mstore\n        /* \"#utility.yul\":148:150   */\n      0x20\n        /* \"#utility.yul\":133:151   */\n      add\n        /* \"SMTchecker.sol\":299:379  function stateAdd() public view returns (uint) {... */\n      mload(0x40)\n      dup1\n      swap2\n      sub\n      swap1\n      return\n    tag_5:\n        /* \"SMTchecker.sol\":340:344  uint */\n      0x00\n        /* \"SMTchecker.sol\":363:372  add(x, y) */\n      tag_9\n        /* \"SMTchecker.sol\":367:368  x */\n      immutable(\"0x2a80e1ef1d7842f27f2e6be0972bb708b9a135c38860dbe73c27c3486c34f4de\")\n        /* \"SMTchecker.sol\":370:371  y */\n      immutable(\"0xceebf77a833b30520287ddd9478ff51abbdffa30aa90a8d655dba0e8a79ce0c1\")\n        /* \"SMTchecker.sol\":363:366  add */\n      tag_10\n        /* \"SMTchecker.sol\":363:372  add(x, y) */\n      jump\t// in\n    tag_9:\n        /* \"SMTchecker.sol\":356:372  return add(x, y) */\n      swap1\n      pop\n        /* \"SMTchecker.sol\":299:379  function stateAdd() public view returns (uint) {... */\n      swap1\n      jump\t// out\n        /* \"SMTchecker.sol\":132:223  function add(uint x_, uint y_) internal pure returns (uint) {... */\n    tag_10:\n        /* \"SMTchecker.sol\":186:190  uint */\n      0x00\n        /* \"SMTchecker.sol\":209:216  x_ + y_ */\n      tag_12\n        /* \"SMTchecker.sol\":214:216  y_ */\n      dup3\n        /* \"SMTchecker.sol\":209:211  x_ */\n      dup5\n        /* \"SMTchecker.sol\":209:216  x_ + y_ */\n      tag_13\n      jump\t// in\n    tag_12:\n        /* \"SMTchecker.sol\":202:216  return x_ + y_ */\n      swap1\n      pop\n        /* \"SMTchecker.sol\":132:223  function add(uint x_, uint y_) internal pure returns (uint) {... */\n    tag_11:\n      swap3\n      swap2\n      pop\n      pop\n      jump\t// out\n        /* \"#utility.yul\":196:418   */\n    tag_13:\n        /* \"#utility.yul\":261:270   */\n      dup1\n      dup3\n      add\n        /* \"#utility.yul\":282:292   */\n      dup1\n      dup3\n      gt\n        /* \"#utility.yul\":279:412   */\n      iszero\n      tag_11\n      jumpi\n        /* \"#utility.yul\":334:344   */\n      0x4e487b71\n        /* \"#utility.yul\":329:332   */\n      0xe0\n        /* \"#utility.yul\":325:345   */\n      shl\n        /* \"#utility.yul\":322:323   */\n      0x00\n        /* \"#utility.yul\":315:346   */\n      mstore\n        /* \"#utility.yul\":369:373   */\n      0x11\n        /* \"#utility.yul\":366:367   */\n      0x04\n        /* \"#utility.yul\":359:374   */\n      mstore\n        /* \"#utility.yul\":397:401   */\n      0x24\n        /* \"#utility.yul\":394:395   */\n      0x00\n        /* \"#utility.yul\":387:402   */\n      revert\n\n    auxdata: 0xa26469706673582212206bbf7b6e7f9e6dd85a4eb15aef524f4e5ca871c2be9372efb3c1ee0959f5566864736f6c63430008150033\n}\n",
				"bytecode": {
					"linkReferences": {},
					"object": "60c060405234801561001057600080fd5b5060405161017c38038061017c83398101604081905261002f9161003a565b60a05260805261005e565b6000806040838503121561004d57600080fd5b505080516020909101519092909150565b60805160a05160fd61007f6000396000606c01526000604b015260fd6000f3fe6080604052348015600f57600080fd5b506004361060285760003560e01c8063e1a6205514602d575b600080fd5b60336045565b60405190815260200160405180910390f35b6000608f7f00000000000000000000000000000000000000000000000000000000000000007f00000000000000000000000000000000000000000000000000000000000000006094565b905090565b6000609e828460a7565b90505b92915050565b8082018082111560a157634e487b7160e01b600052601160045260246000fdfea26469706673582212206bbf7b6e7f9e6dd85a4eb15aef524f4e5ca871c2be9372efb3c1ee0959f5566864736f6c63430008150033",
					"opcodes": "PUSH1 0xC0 PUSH1 0x40 MSTORE CALLVALUE DUP1 ISZERO PUSH2 0x10 JUMPI PUSH1 0x0 DUP1 REVERT JUMPDEST POP PUSH1 0x40 MLOAD PUSH2 0x17C CODESIZE SUB DUP1 PUSH2 0x17C DUP4 CODECOPY DUP2 ADD PUSH1 0x40 DUP2 SWAP1 MSTORE PUSH2 0x2F SWAP2 PUSH2 0x3A JUMP JUMPDEST PUSH1 0xA0 MSTORE PUSH1 0x80 MSTORE PUSH2 0x5E JUMP JUMPDEST PUSH1 0x0 DUP1 PUSH1 0x40 DUP4 DUP6 SUB SLT ISZERO PUSH2 0x4D JUMPI PUSH1 0x0 DUP1 REVERT JUMPDEST POP POP DUP1 MLOAD PUSH1 0x20 SWAP1 SWAP2 ADD MLOAD SWAP1 SWAP3 SWAP1 SWAP2 POP JUMP JUMPDEST PUSH1 0x80 MLOAD PUSH1 0xA0 MLOAD PUSH1 0xFD PUSH2 0x7F PUSH1 0x0 CODECOPY PUSH1 0x0 PUSH1 0x6C ADD MSTORE PUSH1 0x0 PUSH1 0x4B ADD MSTORE PUSH1 0xFD PUSH1 0x0 RETURN INVALID PUSH1 0x80 PUSH1 0x40 MSTORE CALLVALUE DUP1 ISZERO PUSH1 0xF JUMPI PUSH1 0x0 DUP1 REVERT JUMPDEST POP PUSH1 0x4 CALLDATASIZE LT PUSH1 0x28 JUMPI PUSH1 0x0 CALLDATALOAD PUSH1 0xE0 SHR DUP1 PUSH4 0xE1A62055 EQ PUSH1 0x2D JUMPI JUMPDEST PUSH1 0x0 DUP1 REVERT JUMPDEST PUSH1 0x33 PUSH1 0x45 JUMP JUMPDEST PUSH1 0x40 MLOAD SWAP1 DUP2 MSTORE PUSH1 0x20 ADD PUSH1 0x40 MLOAD DUP1 SWAP2 SUB SWAP1 RETURN JUMPDEST PUSH1 0x0 PUSH1 0x8F PUSH32 0x0 PUSH32 0x0 PUSH1 0x94 JUMP JUMPDEST SWAP1 POP SWAP1 JUMP JUMPDEST PUSH1 0x0 PUSH1 0x9E DUP3 DUP5 PUSH1 0xA7 JUMP JUMPDEST SWAP1 POP JUMPDEST SWAP3 SWAP2 POP POP JUMP JUMPDEST DUP1 DUP3 ADD DUP1 DUP3 GT ISZERO PUSH1 0xA1 JUMPI PUSH4 0x4E487B71 PUSH1 0xE0 SHL PUSH1 0x0 MSTORE PUSH1 0x11 PUSH1 0x4 MSTORE PUSH1 0x24 PUSH1 0x0 REVERT INVALID LOG2 PUSH5 0x6970667358 0x22 SLT KECCAK256 PUSH12 0xBF7B6E7F9E6DD85A4EB15AEF MSTORE 0x4F 0x4E 0x5C 0xA8 PUSH18 0xC2BE9372EFB3C1EE0959F5566864736F6C63 NUMBER STOP ADDMOD ISZERO STOP CALLER "
				},
				"gasEstimates": {
					"creation": {
						"codeDepositCost": "50600",
						"executionCost": "infinite",
						"totalCost": "infinite"
					},
					"external": {
						"stateAdd()": "infinite"
					},
					"internal": {
						"add(uint256,uint256)": "infinite"
					}
				},
				"methodIdentifiers": {
					"stateAdd()": "e1a62055"
				}
			},
			"storageLayout": {
				"storage": [],
				"types": null
			},
			"userdoc": {
				"kind": "user",
				"methods": {},
				"version": 1
			}
		}
	}
}