{
	"gyubbhjhbj.sol": {
		"StakingContract": {
			"abi": [
				{
					"inputs": [
						{
							"internalType": "address",
							"name": "_tokenAddress",
							"type": "address"
						},
						{
							"internalType": "uint256",
							"name": "_penaltyPercentage",
							"type": "uint256"
						},
						{
							"internalType": "uint256",
							"name": "_fixedInterestRate",
							"type": "uint256"
						},
						{
							"internalType": "uint256",
							"name": "_unfixedInterestRate",
							"type": "uint256"
						}
					],
					"stateMutability": "nonpayable",
					"type": "constructor"
				},
				{
					"anonymous": false,
					"inputs": [
						{
							"indexed": true,
							"internalType": "address",
							"name": "user",
							"type": "address"
						},
						{
							"indexed": false,
							"internalType": "uint256",
							"name": "amount",
							"type": "uint256"
						}
					],
					"name": "RewardClaimed",
					"type": "event"
				},
				{
					"anonymous": false,
					"inputs": [
						{
							"indexed": true,
							"internalType": "address",
							"name": "user",
							"type": "address"
						},
						{
							"indexed": false,
							"internalType": "uint256",
							"name": "amount",
							"type": "uint256"
						},
						{
							"indexed": false,
							"internalType": "bool",
							"name": "isFixed",
							"type": "bool"
						}
					],
					"name": "Staked",
					"type": "event"
				},
				{
					"anonymous": false,
					"inputs": [
						{
							"indexed": true,
							"internalType": "address",
							"name": "user",
							"type": "address"
						},
						{
							"indexed": false,
							"internalType": "uint256",
							"name": "amount",
							"type": "uint256"
						},
						{
							"indexed": false,
							"internalType": "bool",
							"name": "isFixed",
							"type": "bool"
						}
					],
					"name": "Unstaked",
					"type": "event"
				},
				{
					"inputs": [
						{
							"internalType": "address",
							"name": "",
							"type": "address"
						}
					],
					"name": "balances",
					"outputs": [
						{
							"internalType": "uint256",
							"name": "",
							"type": "uint256"
						}
					],
					"stateMutability": "view",
					"type": "function"
				},
				{
					"inputs": [],
					"name": "claimReward",
					"outputs": [],
					"stateMutability": "nonpayable",
					"type": "function"
				},
				{
					"inputs": [
						{
							"internalType": "address",
							"name": "",
							"type": "address"
						}
					],
					"name": "claimedRewards",
					"outputs": [
						{
							"internalType": "uint256",
							"name": "",
							"type": "uint256"
						}
					],
					"stateMutability": "view",
					"type": "function"
				},
				{
					"inputs": [],
					"name": "fixedInterestRate",
					"outputs": [
						{
							"internalType": "uint256",
							"name": "",
							"type": "uint256"
						}
					],
					"stateMutability": "view",
					"type": "function"
				},
				{
					"inputs": [],
					"name": "getClaimableRewards",
					"outputs": [],
					"stateMutability": "nonpayable",
					"type": "function"
				},
				{
					"inputs": [],
					"name": "penaltyPercentage",
					"outputs": [
						{
							"internalType": "uint256",
							"name": "",
							"type": "uint256"
						}
					],
					"stateMutability": "view",
					"type": "function"
				},
				{
					"inputs": [
						{
							"internalType": "address",
							"name": "",
							"type": "address"
						}
					],
					"name": "rewards",
					"outputs": [
						{
							"internalType": "uint256",
							"name": "",
							"type": "uint256"
						}
					],
					"stateMutability": "view",
					"type": "function"
				},
				{
					"inputs": [
						{
							"internalType": "uint256",
							"name": "_amount",
							"type": "uint256"
						},
						{
							"internalType": "bool",
							"name": "_isFixed",
							"type": "bool"
						},
						{
							"internalType": "uint256",
							"name": "_duration",
							"type": "uint256"
						}
					],
					"name": "stake",
					"outputs": [],
					"stateMutability": "nonpayable",
					"type": "function"
				},
				{
					"inputs": [
						{
							"internalType": "address",
							"name": "",
							"type": "address"
						}
					],
					"name": "stakings",
					"outputs": [
						{
							"internalType": "uint256",
							"name": "amount",
							"type": "uint256"
						},
						{
							"internalType": "uint256",
							"name": "startTime",
							"type": "uint256"
						},
						{
							"internalType": "uint256",
							"name": "duration",
							"type": "uint256"
						},
						{
							"internalType": "bool",
							"name": "isFixed",
							"type": "bool"
						},
						{
							"internalType": "bool",
							"name": "isStaked",
							"type": "bool"
						}
					],
					"stateMutability": "view",
					"type": "function"
				},
				{
					"inputs": [],
					"name": "token",
					"outputs": [
						{
							"internalType": "contract IERC20",
							"name": "",
							"type": "address"
						}
					],
					"stateMutability": "view",
					"type": "function"
				},
				{
					"inputs": [
						{
							"internalType": "address",
							"name": "",
							"type": "address"
						}
					],
					"name": "unclaimedRewards",
					"outputs": [
						{
							"internalType": "uint256",
							"name": "",
							"type": "uint256"
						}
					],
					"stateMutability": "view",
					"type": "function"
				},
				{
					"inputs": [],
					"name": "unfixedInterestRate",
					"outputs": [
						{
							"internalType": "uint256",
							"name": "",
							"type": "uint256"
						}
					],
					"stateMutability": "view",
					"type": "function"
				},
				{
					"inputs": [],
					"name": "unstake",
					"outputs": [],
					"stateMutability": "nonpayable",
					"type": "function"
				}
			],
			"devdoc": {
				"kind": "dev",
				"methods": {},
				"version": 1
			},
			"evm": {
				"assembly": "    /* \"gyubbhjhbj.sol\":87:3726  contract StakingContract {... */\n  mstore(0x40, 0x80)\n    /* \"gyubbhjhbj.sol\":899:1262  constructor(... */\n  callvalue\n  dup1\n  iszero\n  tag_1\n  jumpi\n  0x00\n  dup1\n  revert\ntag_1:\n  pop\n  mload(0x40)\n  sub(codesize, bytecodeSize)\n  dup1\n  bytecodeSize\n  dup4\n  codecopy\n  dup2\n  dup2\n  add\n  0x40\n  mstore\n  dup2\n  add\n  swap1\n  tag_2\n  swap2\n  swap1\n  tag_3\n  jump\t// in\ntag_2:\n    /* \"gyubbhjhbj.sol\":1089:1102  _tokenAddress */\n  dup4\n    /* \"gyubbhjhbj.sol\":1074:1079  token */\n  0x05\n  0x00\n    /* \"gyubbhjhbj.sol\":1074:1103  token = IERC20(_tokenAddress) */\n  0x0100\n  exp\n  dup2\n  sload\n  dup2\n  0xffffffffffffffffffffffffffffffffffffffff\n  mul\n  not\n  and\n  swap1\n  dup4\n  0xffffffffffffffffffffffffffffffffffffffff\n  and\n  mul\n  or\n  swap1\n  sstore\n  pop\n    /* \"gyubbhjhbj.sol\":1134:1152  _penaltyPercentage */\n  dup3\n    /* \"gyubbhjhbj.sol\":1114:1131  penaltyPercentage */\n  0x06\n    /* \"gyubbhjhbj.sol\":1114:1152  penaltyPercentage = _penaltyPercentage */\n  dup2\n  swap1\n  sstore\n  pop\n    /* \"gyubbhjhbj.sol\":1183:1201  _fixedInterestRate */\n  dup2\n    /* \"gyubbhjhbj.sol\":1163:1180  fixedInterestRate */\n  0x07\n    /* \"gyubbhjhbj.sol\":1163:1201  fixedInterestRate = _fixedInterestRate */\n  dup2\n  swap1\n  sstore\n  pop\n    /* \"gyubbhjhbj.sol\":1234:1254  _unfixedInterestRate */\n  dup1\n    /* \"gyubbhjhbj.sol\":1212:1231  unfixedInterestRate */\n  0x08\n    /* \"gyubbhjhbj.sol\":1212:1254  unfixedInterestRate = _unfixedInterestRate */\n  dup2\n  swap1\n  sstore\n  pop\n    /* \"gyubbhjhbj.sol\":899:1262  constructor(... */\n  pop\n  pop\n  pop\n  pop\n    /* \"gyubbhjhbj.sol\":87:3726  contract StakingContract {... */\n  jump(tag_6)\n    /* \"#utility.yul\":88:205   */\ntag_8:\n    /* \"#utility.yul\":197:198   */\n  0x00\n    /* \"#utility.yul\":194:195   */\n  dup1\n    /* \"#utility.yul\":187:199   */\n  revert\n    /* \"#utility.yul\":334:460   */\ntag_10:\n    /* \"#utility.yul\":371:378   */\n  0x00\n    /* \"#utility.yul\":411:453   */\n  0xffffffffffffffffffffffffffffffffffffffff\n    /* \"#utility.yul\":404:409   */\n  dup3\n    /* \"#utility.yul\":400:454   */\n  and\n    /* \"#utility.yul\":389:454   */\n  swap1\n  pop\n    /* \"#utility.yul\":334:460   */\n  swap2\n  swap1\n  pop\n  jump\t// out\n    /* \"#utility.yul\":466:562   */\ntag_11:\n    /* \"#utility.yul\":503:510   */\n  0x00\n    /* \"#utility.yul\":532:556   */\n  tag_23\n    /* \"#utility.yul\":550:555   */\n  dup3\n    /* \"#utility.yul\":532:556   */\n  tag_10\n  jump\t// in\ntag_23:\n    /* \"#utility.yul\":521:556   */\n  swap1\n  pop\n    /* \"#utility.yul\":466:562   */\n  swap2\n  swap1\n  pop\n  jump\t// out\n    /* \"#utility.yul\":568:690   */\ntag_12:\n    /* \"#utility.yul\":641:665   */\n  tag_25\n    /* \"#utility.yul\":659:664   */\n  dup2\n    /* \"#utility.yul\":641:665   */\n  tag_11\n  jump\t// in\ntag_25:\n    /* \"#utility.yul\":634:639   */\n  dup2\n    /* \"#utility.yul\":631:666   */\n  eq\n    /* \"#utility.yul\":621:684   */\n  tag_26\n  jumpi\n    /* \"#utility.yul\":680:681   */\n  0x00\n    /* \"#utility.yul\":677:678   */\n  dup1\n    /* \"#utility.yul\":670:682   */\n  revert\n    /* \"#utility.yul\":621:684   */\ntag_26:\n    /* \"#utility.yul\":568:690   */\n  pop\n  jump\t// out\n    /* \"#utility.yul\":696:839   */\ntag_13:\n    /* \"#utility.yul\":753:758   */\n  0x00\n    /* \"#utility.yul\":784:790   */\n  dup2\n    /* \"#utility.yul\":778:791   */\n  mload\n    /* \"#utility.yul\":769:791   */\n  swap1\n  pop\n    /* \"#utility.yul\":800:833   */\n  tag_28\n    /* \"#utility.yul\":827:832   */\n  dup2\n    /* \"#utility.yul\":800:833   */\n  tag_12\n  jump\t// in\ntag_28:\n    /* \"#utility.yul\":696:839   */\n  swap3\n  swap2\n  pop\n  pop\n  jump\t// out\n    /* \"#utility.yul\":845:922   */\ntag_14:\n    /* \"#utility.yul\":882:889   */\n  0x00\n    /* \"#utility.yul\":911:916   */\n  dup2\n    /* \"#utility.yul\":900:916   */\n  swap1\n  pop\n    /* \"#utility.yul\":845:922   */\n  swap2\n  swap1\n  pop\n  jump\t// out\n    /* \"#utility.yul\":928:1050   */\ntag_15:\n    /* \"#utility.yul\":1001:1025   */\n  tag_31\n    /* \"#utility.yul\":1019:1024   */\n  dup2\n    /* \"#utility.yul\":1001:1025   */\n  tag_14\n  jump\t// in\ntag_31:\n    /* \"#utility.yul\":994:999   */\n  dup2\n    /* \"#utility.yul\":991:1026   */\n  eq\n    /* \"#utility.yul\":981:1044   */\n  tag_32\n  jumpi\n    /* \"#utility.yul\":1040:1041   */\n  0x00\n    /* \"#utility.yul\":1037:1038   */\n  dup1\n    /* \"#utility.yul\":1030:1042   */\n  revert\n    /* \"#utility.yul\":981:1044   */\ntag_32:\n    /* \"#utility.yul\":928:1050   */\n  pop\n  jump\t// out\n    /* \"#utility.yul\":1056:1199   */\ntag_16:\n    /* \"#utility.yul\":1113:1118   */\n  0x00\n    /* \"#utility.yul\":1144:1150   */\n  dup2\n    /* \"#utility.yul\":1138:1151   */\n  mload\n    /* \"#utility.yul\":1129:1151   */\n  swap1\n  pop\n    /* \"#utility.yul\":1160:1193   */\n  tag_34\n    /* \"#utility.yul\":1187:1192   */\n  dup2\n    /* \"#utility.yul\":1160:1193   */\n  tag_15\n  jump\t// in\ntag_34:\n    /* \"#utility.yul\":1056:1199   */\n  swap3\n  swap2\n  pop\n  pop\n  jump\t// out\n    /* \"#utility.yul\":1205:2025   */\ntag_3:\n    /* \"#utility.yul\":1302:1308   */\n  0x00\n    /* \"#utility.yul\":1310:1316   */\n  dup1\n    /* \"#utility.yul\":1318:1324   */\n  0x00\n    /* \"#utility.yul\":1326:1332   */\n  dup1\n    /* \"#utility.yul\":1375:1378   */\n  0x80\n    /* \"#utility.yul\":1363:1372   */\n  dup6\n    /* \"#utility.yul\":1354:1361   */\n  dup8\n    /* \"#utility.yul\":1350:1373   */\n  sub\n    /* \"#utility.yul\":1346:1379   */\n  slt\n    /* \"#utility.yul\":1343:1463   */\n  iszero\n  tag_36\n  jumpi\n    /* \"#utility.yul\":1382:1461   */\n  tag_37\n  tag_8\n  jump\t// in\ntag_37:\n    /* \"#utility.yul\":1343:1463   */\ntag_36:\n    /* \"#utility.yul\":1502:1503   */\n  0x00\n    /* \"#utility.yul\":1527:1591   */\n  tag_38\n    /* \"#utility.yul\":1583:1590   */\n  dup8\n    /* \"#utility.yul\":1574:1580   */\n  dup3\n    /* \"#utility.yul\":1563:1572   */\n  dup9\n    /* \"#utility.yul\":1559:1581   */\n  add\n    /* \"#utility.yul\":1527:1591   */\n  tag_13\n  jump\t// in\ntag_38:\n    /* \"#utility.yul\":1517:1591   */\n  swap5\n  pop\n    /* \"#utility.yul\":1473:1601   */\n  pop\n    /* \"#utility.yul\":1640:1642   */\n  0x20\n    /* \"#utility.yul\":1666:1730   */\n  tag_39\n    /* \"#utility.yul\":1722:1729   */\n  dup8\n    /* \"#utility.yul\":1713:1719   */\n  dup3\n    /* \"#utility.yul\":1702:1711   */\n  dup9\n    /* \"#utility.yul\":1698:1720   */\n  add\n    /* \"#utility.yul\":1666:1730   */\n  tag_16\n  jump\t// in\ntag_39:\n    /* \"#utility.yul\":1656:1730   */\n  swap4\n  pop\n    /* \"#utility.yul\":1611:1740   */\n  pop\n    /* \"#utility.yul\":1779:1781   */\n  0x40\n    /* \"#utility.yul\":1805:1869   */\n  tag_40\n    /* \"#utility.yul\":1861:1868   */\n  dup8\n    /* \"#utility.yul\":1852:1858   */\n  dup3\n    /* \"#utility.yul\":1841:1850   */\n  dup9\n    /* \"#utility.yul\":1837:1859   */\n  add\n    /* \"#utility.yul\":1805:1869   */\n  tag_16\n  jump\t// in\ntag_40:\n    /* \"#utility.yul\":1795:1869   */\n  swap3\n  pop\n    /* \"#utility.yul\":1750:1879   */\n  pop\n    /* \"#utility.yul\":1918:1920   */\n  0x60\n    /* \"#utility.yul\":1944:2008   */\n  tag_41\n    /* \"#utility.yul\":2000:2007   */\n  dup8\n    /* \"#utility.yul\":1991:1997   */\n  dup3\n    /* \"#utility.yul\":1980:1989   */\n  dup9\n    /* \"#utility.yul\":1976:1998   */\n  add\n    /* \"#utility.yul\":1944:2008   */\n  tag_16\n  jump\t// in\ntag_41:\n    /* \"#utility.yul\":1934:2008   */\n  swap2\n  pop\n    /* \"#utility.yul\":1889:2018   */\n  pop\n    /* \"#utility.yul\":1205:2025   */\n  swap3\n  swap6\n  swap2\n  swap5\n  pop\n  swap3\n  pop\n  jump\t// out\n    /* \"gyubbhjhbj.sol\":87:3726  contract StakingContract {... */\ntag_6:\n  dataSize(sub_0)\n  dup1\n  dataOffset(sub_0)\n  0x00\n  codecopy\n  0x00\n  return\nstop\n\nsub_0: assembly {\n        /* \"gyubbhjhbj.sol\":87:3726  contract StakingContract {... */\n      mstore(0x40, 0x80)\n      callvalue\n      dup1\n      iszero\n      tag_1\n      jumpi\n      0x00\n      dup1\n      revert\n    tag_1:\n      pop\n      jumpi(tag_2, lt(calldatasize, 0x04))\n      shr(0xe0, calldataload(0x00))\n      dup1\n      0x892983c2\n      gt\n      tag_16\n      jumpi\n      dup1\n      0xbd834345\n      gt\n      tag_17\n      jumpi\n      dup1\n      0xbd834345\n      eq\n      tag_12\n      jumpi\n      dup1\n      0xdc6e13e1\n      eq\n      tag_13\n      jumpi\n      dup1\n      0xfc0c546a\n      eq\n      tag_14\n      jumpi\n      dup1\n      0xffe0cbc6\n      eq\n      tag_15\n      jumpi\n      jump(tag_2)\n    tag_17:\n      dup1\n      0x892983c2\n      eq\n      tag_9\n      jumpi\n      dup1\n      0x949813b8\n      eq\n      tag_10\n      jumpi\n      dup1\n      0xb88a802f\n      eq\n      tag_11\n      jumpi\n      jump(tag_2)\n    tag_16:\n      dup1\n      0x0700037d\n      eq\n      tag_3\n      jumpi\n      dup1\n      0x149c4de2\n      eq\n      tag_4\n      jumpi\n      dup1\n      0x15908d51\n      eq\n      tag_5\n      jumpi\n      dup1\n      0x27e235e3\n      eq\n      tag_6\n      jumpi\n      dup1\n      0x2def6620\n      eq\n      tag_7\n      jumpi\n      dup1\n      0x447da8a6\n      eq\n      tag_8\n      jumpi\n    tag_2:\n      0x00\n      dup1\n      revert\n        /* \"gyubbhjhbj.sol\":327:369  mapping(address => uint256) public rewards */\n    tag_3:\n      tag_18\n      0x04\n      dup1\n      calldatasize\n      sub\n      dup2\n      add\n      swap1\n      tag_19\n      swap2\n      swap1\n      tag_20\n      jump\t// in\n    tag_19:\n      tag_21\n      jump\t// in\n    tag_18:\n      mload(0x40)\n      tag_22\n      swap2\n      swap1\n      tag_23\n      jump\t// in\n    tag_22:\n      mload(0x40)\n      dup1\n      swap2\n      sub\n      swap1\n      return\n        /* \"gyubbhjhbj.sol\":646:680  uint256 public unfixedInterestRate */\n    tag_4:\n      tag_24\n      tag_25\n      jump\t// in\n    tag_24:\n      mload(0x40)\n      tag_26\n      swap2\n      swap1\n      tag_23\n      jump\t// in\n    tag_26:\n      mload(0x40)\n      dup1\n      swap2\n      sub\n      swap1\n      return\n        /* \"gyubbhjhbj.sol\":568:600  uint256 public penaltyPercentage */\n    tag_5:\n      tag_27\n      tag_28\n      jump\t// in\n    tag_27:\n      mload(0x40)\n      tag_29\n      swap2\n      swap1\n      tag_23\n      jump\t// in\n    tag_29:\n      mload(0x40)\n      dup1\n      swap2\n      sub\n      swap1\n      return\n        /* \"gyubbhjhbj.sol\":376:419  mapping(address => uint256) public balances */\n    tag_6:\n      tag_30\n      0x04\n      dup1\n      calldatasize\n      sub\n      dup2\n      add\n      swap1\n      tag_31\n      swap2\n      swap1\n      tag_20\n      jump\t// in\n    tag_31:\n      tag_32\n      jump\t// in\n    tag_30:\n      mload(0x40)\n      tag_33\n      swap2\n      swap1\n      tag_23\n      jump\t// in\n    tag_33:\n      mload(0x40)\n      dup1\n      swap2\n      sub\n      swap1\n      return\n        /* \"gyubbhjhbj.sol\":1873:2549  function unstake() external {... */\n    tag_7:\n      tag_34\n      tag_35\n      jump\t// in\n    tag_34:\n      stop\n        /* \"gyubbhjhbj.sol\":1270:1865  function stake(uint256 _amount, bool _isFixed, uint256 _duration) external {... */\n    tag_8:\n      tag_36\n      0x04\n      dup1\n      calldatasize\n      sub\n      dup2\n      add\n      swap1\n      tag_37\n      swap2\n      swap1\n      tag_38\n      jump\t// in\n    tag_37:\n      tag_39\n      jump\t// in\n    tag_36:\n      stop\n        /* \"gyubbhjhbj.sol\":607:639  uint256 public fixedInterestRate */\n    tag_9:\n      tag_40\n      tag_41\n      jump\t// in\n    tag_40:\n      mload(0x40)\n      tag_42\n      swap2\n      swap1\n      tag_23\n      jump\t// in\n    tag_42:\n      mload(0x40)\n      dup1\n      swap2\n      sub\n      swap1\n      return\n        /* \"gyubbhjhbj.sol\":482:533  mapping(address => uint256) public unclaimedRewards */\n    tag_10:\n      tag_43\n      0x04\n      dup1\n      calldatasize\n      sub\n      dup2\n      add\n      swap1\n      tag_44\n      swap2\n      swap1\n      tag_20\n      jump\t// in\n    tag_44:\n      tag_45\n      jump\t// in\n    tag_43:\n      mload(0x40)\n      tag_46\n      swap2\n      swap1\n      tag_23\n      jump\t// in\n    tag_46:\n      mload(0x40)\n      dup1\n      swap2\n      sub\n      swap1\n      return\n        /* \"gyubbhjhbj.sol\":2557:3189  function claimReward() external {... */\n    tag_11:\n      tag_47\n      tag_48\n      jump\t// in\n    tag_47:\n      stop\n        /* \"gyubbhjhbj.sol\":426:475  mapping(address => uint256) public claimedRewards */\n    tag_12:\n      tag_49\n      0x04\n      dup1\n      calldatasize\n      sub\n      dup2\n      add\n      swap1\n      tag_50\n      swap2\n      swap1\n      tag_20\n      jump\t// in\n    tag_50:\n      tag_51\n      jump\t// in\n    tag_49:\n      mload(0x40)\n      tag_52\n      swap2\n      swap1\n      tag_23\n      jump\t// in\n    tag_52:\n      mload(0x40)\n      dup1\n      swap2\n      sub\n      swap1\n      return\n        /* \"gyubbhjhbj.sol\":277:320  mapping(address => Staking) public stakings */\n    tag_13:\n      tag_53\n      0x04\n      dup1\n      calldatasize\n      sub\n      dup2\n      add\n      swap1\n      tag_54\n      swap2\n      swap1\n      tag_20\n      jump\t// in\n    tag_54:\n      tag_55\n      jump\t// in\n    tag_53:\n      mload(0x40)\n      tag_56\n      swap6\n      swap5\n      swap4\n      swap3\n      swap2\n      swap1\n      tag_57\n      jump\t// in\n    tag_56:\n      mload(0x40)\n      dup1\n      swap2\n      sub\n      swap1\n      return\n        /* \"gyubbhjhbj.sol\":542:561  IERC20 public token */\n    tag_14:\n      tag_58\n      tag_59\n      jump\t// in\n    tag_58:\n      mload(0x40)\n      tag_60\n      swap2\n      swap1\n      tag_61\n      jump\t// in\n    tag_60:\n      mload(0x40)\n      dup1\n      swap2\n      sub\n      swap1\n      return\n        /* \"gyubbhjhbj.sol\":3457:3723  function getClaimableRewards() external {... */\n    tag_15:\n      tag_62\n      tag_63\n      jump\t// in\n    tag_62:\n      stop\n        /* \"gyubbhjhbj.sol\":327:369  mapping(address => uint256) public rewards */\n    tag_21:\n      mstore(0x20, 0x01)\n      dup1\n      0x00\n      mstore\n      keccak256(0x00, 0x40)\n      0x00\n      swap2\n      pop\n      swap1\n      pop\n      sload\n      dup2\n      jump\t// out\n        /* \"gyubbhjhbj.sol\":646:680  uint256 public unfixedInterestRate */\n    tag_25:\n      sload(0x08)\n      dup2\n      jump\t// out\n        /* \"gyubbhjhbj.sol\":568:600  uint256 public penaltyPercentage */\n    tag_28:\n      sload(0x06)\n      dup2\n      jump\t// out\n        /* \"gyubbhjhbj.sol\":376:419  mapping(address => uint256) public balances */\n    tag_32:\n      mstore(0x20, 0x02)\n      dup1\n      0x00\n      mstore\n      keccak256(0x00, 0x40)\n      0x00\n      swap2\n      pop\n      swap1\n      pop\n      sload\n      dup2\n      jump\t// out\n        /* \"gyubbhjhbj.sol\":1873:2549  function unstake() external {... */\n    tag_35:\n        /* \"gyubbhjhbj.sol\":1920:1928  stakings */\n      0x00\n        /* \"gyubbhjhbj.sol\":1920:1940  stakings[msg.sender] */\n      dup1\n        /* \"gyubbhjhbj.sol\":1929:1939  msg.sender */\n      caller\n        /* \"gyubbhjhbj.sol\":1920:1940  stakings[msg.sender] */\n      0xffffffffffffffffffffffffffffffffffffffff\n      and\n      0xffffffffffffffffffffffffffffffffffffffff\n      and\n      dup2\n      mstore\n      0x20\n      add\n      swap1\n      dup2\n      mstore\n      0x20\n      add\n      0x00\n      keccak256\n        /* \"gyubbhjhbj.sol\":1920:1949  stakings[msg.sender].isStaked */\n      0x03\n      add\n      0x01\n      swap1\n      sload\n      swap1\n      0x0100\n      exp\n      swap1\n      div\n      0xff\n      and\n        /* \"gyubbhjhbj.sol\":1912:1964  require(stakings[msg.sender].isStaked, \"Not staked\") */\n      tag_65\n      jumpi\n      mload(0x40)\n      0x08c379a000000000000000000000000000000000000000000000000000000000\n      dup2\n      mstore\n      0x04\n      add\n      tag_66\n      swap1\n      tag_67\n      jump\t// in\n    tag_66:\n      mload(0x40)\n      dup1\n      swap2\n      sub\n      swap1\n      revert\n    tag_65:\n        /* \"gyubbhjhbj.sol\":1975:1997  Staking memory staking */\n      0x00\n        /* \"gyubbhjhbj.sol\":2000:2008  stakings */\n      dup1\n        /* \"gyubbhjhbj.sol\":2000:2020  stakings[msg.sender] */\n      0x00\n        /* \"gyubbhjhbj.sol\":2009:2019  msg.sender */\n      caller\n        /* \"gyubbhjhbj.sol\":2000:2020  stakings[msg.sender] */\n      0xffffffffffffffffffffffffffffffffffffffff\n      and\n      0xffffffffffffffffffffffffffffffffffffffff\n      and\n      dup2\n      mstore\n      0x20\n      add\n      swap1\n      dup2\n      mstore\n      0x20\n      add\n      0x00\n      keccak256\n        /* \"gyubbhjhbj.sol\":1975:2020  Staking memory staking = stakings[msg.sender] */\n      mload(0x40)\n      dup1\n      0xa0\n      add\n      0x40\n      mstore\n      swap1\n      dup2\n      0x00\n      dup3\n      add\n      sload\n      dup2\n      mstore\n      0x20\n      add\n      0x01\n      dup3\n      add\n      sload\n      dup2\n      mstore\n      0x20\n      add\n      0x02\n      dup3\n      add\n      sload\n      dup2\n      mstore\n      0x20\n      add\n      0x03\n      dup3\n      add\n      0x00\n      swap1\n      sload\n      swap1\n      0x0100\n      exp\n      swap1\n      div\n      0xff\n      and\n      iszero\n      iszero\n      iszero\n      iszero\n      dup2\n      mstore\n      0x20\n      add\n      0x03\n      dup3\n      add\n      0x01\n      swap1\n      sload\n      swap1\n      0x0100\n      exp\n      swap1\n      div\n      0xff\n      and\n      iszero\n      iszero\n      iszero\n      iszero\n      dup2\n      mstore\n      pop\n      pop\n      swap1\n      pop\n        /* \"gyubbhjhbj.sol\":2031:2051  uint256 stakedAmount */\n      0x00\n        /* \"gyubbhjhbj.sol\":2054:2061  staking */\n      dup2\n        /* \"gyubbhjhbj.sol\":2054:2068  staking.amount */\n      0x00\n      add\n      mload\n        /* \"gyubbhjhbj.sol\":2031:2068  uint256 stakedAmount = staking.amount */\n      swap1\n      pop\n        /* \"gyubbhjhbj.sol\":2085:2092  staking */\n      dup2\n        /* \"gyubbhjhbj.sol\":2085:2100  staking.isFixed */\n      0x60\n      add\n      mload\n        /* \"gyubbhjhbj.sol\":2081:2335  if (staking.isFixed) {... */\n      iszero\n      tag_68\n      jumpi\n        /* \"gyubbhjhbj.sol\":2164:2171  staking */\n      dup2\n        /* \"gyubbhjhbj.sol\":2164:2180  staking.duration */\n      0x40\n      add\n      mload\n        /* \"gyubbhjhbj.sol\":2144:2151  staking */\n      dup3\n        /* \"gyubbhjhbj.sol\":2144:2161  staking.startTime */\n      0x20\n      add\n      mload\n        /* \"gyubbhjhbj.sol\":2144:2180  staking.startTime + staking.duration */\n      tag_69\n      swap2\n      swap1\n      tag_70\n      jump\t// in\n    tag_69:\n        /* \"gyubbhjhbj.sol\":2125:2140  block.timestamp */\n      timestamp\n        /* \"gyubbhjhbj.sol\":2125:2180  block.timestamp >= staking.startTime + staking.duration */\n      lt\n      iszero\n        /* \"gyubbhjhbj.sol\":2117:2210  require(block.timestamp >= staking.startTime + staking.duration, \"Fixed staking not expired\") */\n      tag_71\n      jumpi\n      mload(0x40)\n      0x08c379a000000000000000000000000000000000000000000000000000000000\n      dup2\n      mstore\n      0x04\n      add\n      tag_72\n      swap1\n      tag_73\n      jump\t// in\n    tag_72:\n      mload(0x40)\n      dup1\n      swap2\n      sub\n      swap1\n      revert\n    tag_71:\n        /* \"gyubbhjhbj.sol\":2225:2240  uint256 penalty */\n      0x00\n        /* \"gyubbhjhbj.sol\":2282:2285  100 */\n      0x64\n        /* \"gyubbhjhbj.sol\":2261:2278  penaltyPercentage */\n      sload(0x06)\n        /* \"gyubbhjhbj.sol\":2244:2251  staking */\n      dup5\n        /* \"gyubbhjhbj.sol\":2244:2258  staking.amount */\n      0x00\n      add\n      mload\n        /* \"gyubbhjhbj.sol\":2244:2278  staking.amount * penaltyPercentage */\n      tag_74\n      swap2\n      swap1\n      tag_75\n      jump\t// in\n    tag_74:\n        /* \"gyubbhjhbj.sol\":2243:2285  (staking.amount * penaltyPercentage) / 100 */\n      tag_76\n      swap2\n      swap1\n      tag_77\n      jump\t// in\n    tag_76:\n        /* \"gyubbhjhbj.sol\":2225:2285  uint256 penalty = (staking.amount * penaltyPercentage) / 100 */\n      swap1\n      pop\n        /* \"gyubbhjhbj.sol\":2316:2323  penalty */\n      dup1\n        /* \"gyubbhjhbj.sol\":2300:2323  stakedAmount -= penalty */\n      dup3\n      tag_78\n      swap2\n      swap1\n      tag_79\n      jump\t// in\n    tag_78:\n      swap2\n      pop\n        /* \"gyubbhjhbj.sol\":2102:2335  {... */\n      pop\n        /* \"gyubbhjhbj.sol\":2081:2335  if (staking.isFixed) {... */\n    tag_68:\n        /* \"gyubbhjhbj.sol\":2354:2362  stakings */\n      0x00\n        /* \"gyubbhjhbj.sol\":2354:2374  stakings[msg.sender] */\n      dup1\n        /* \"gyubbhjhbj.sol\":2363:2373  msg.sender */\n      caller\n        /* \"gyubbhjhbj.sol\":2354:2374  stakings[msg.sender] */\n      0xffffffffffffffffffffffffffffffffffffffff\n      and\n      0xffffffffffffffffffffffffffffffffffffffff\n      and\n      dup2\n      mstore\n      0x20\n      add\n      swap1\n      dup2\n      mstore\n      0x20\n      add\n      0x00\n      keccak256\n      0x00\n        /* \"gyubbhjhbj.sol\":2347:2374  delete stakings[msg.sender] */\n      dup1\n      dup3\n      add\n      0x00\n      swap1\n      sstore\n      0x01\n      dup3\n      add\n      0x00\n      swap1\n      sstore\n      0x02\n      dup3\n      add\n      0x00\n      swap1\n      sstore\n      0x03\n      dup3\n      add\n      exp(0x0100, 0x00)\n      dup2\n      sload\n      swap1\n      0xff\n      mul\n      not\n      and\n      swap1\n      sstore\n      0x03\n      dup3\n      add\n      exp(0x0100, 0x01)\n      dup2\n      sload\n      swap1\n      0xff\n      mul\n      not\n      and\n      swap1\n      sstore\n      pop\n      pop\n        /* \"gyubbhjhbj.sol\":2409:2421  stakedAmount */\n      dup1\n        /* \"gyubbhjhbj.sol\":2385:2393  balances */\n      0x02\n        /* \"gyubbhjhbj.sol\":2385:2405  balances[msg.sender] */\n      0x00\n        /* \"gyubbhjhbj.sol\":2394:2404  msg.sender */\n      caller\n        /* \"gyubbhjhbj.sol\":2385:2405  balances[msg.sender] */\n      0xffffffffffffffffffffffffffffffffffffffff\n      and\n      0xffffffffffffffffffffffffffffffffffffffff\n      and\n      dup2\n      mstore\n      0x20\n      add\n      swap1\n      dup2\n      mstore\n      0x20\n      add\n      0x00\n      keccak256\n      0x00\n        /* \"gyubbhjhbj.sol\":2385:2421  balances[msg.sender] -= stakedAmount */\n      dup3\n      dup3\n      sload\n      tag_80\n      swap2\n      swap1\n      tag_79\n      jump\t// in\n    tag_80:\n      swap3\n      pop\n      pop\n      dup2\n      swap1\n      sstore\n      pop\n        /* \"gyubbhjhbj.sol\":2432:2437  token */\n      0x05\n      0x00\n      swap1\n      sload\n      swap1\n      0x0100\n      exp\n      swap1\n      div\n      0xffffffffffffffffffffffffffffffffffffffff\n      and\n        /* \"gyubbhjhbj.sol\":2432:2446  token.transfer */\n      0xffffffffffffffffffffffffffffffffffffffff\n      and\n      0xa9059cbb\n        /* \"gyubbhjhbj.sol\":2447:2457  msg.sender */\n      caller\n        /* \"gyubbhjhbj.sol\":2459:2471  stakedAmount */\n      dup4\n        /* \"gyubbhjhbj.sol\":2432:2472  token.transfer(msg.sender, stakedAmount) */\n      mload(0x40)\n      dup4\n      0xffffffff\n      and\n      0xe0\n      shl\n      dup2\n      mstore\n      0x04\n      add\n      tag_81\n      swap3\n      swap2\n      swap1\n      tag_82\n      jump\t// in\n    tag_81:\n      0x20\n      mload(0x40)\n      dup1\n      dup4\n      sub\n      dup2\n      0x00\n      dup8\n      gas\n      call\n      iszero\n      dup1\n      iszero\n      tag_84\n      jumpi\n      returndatasize\n      0x00\n      dup1\n      returndatacopy\n      revert(0x00, returndatasize)\n    tag_84:\n      pop\n      pop\n      pop\n      pop\n      mload(0x40)\n      returndatasize\n      not(0x1f)\n      0x1f\n      dup3\n      add\n      and\n      dup3\n      add\n      dup1\n      0x40\n      mstore\n      pop\n      dup2\n      add\n      swap1\n      tag_85\n      swap2\n      swap1\n      tag_86\n      jump\t// in\n    tag_85:\n      pop\n        /* \"gyubbhjhbj.sol\":2499:2509  msg.sender */\n      caller\n        /* \"gyubbhjhbj.sol\":2490:2541  Unstaked(msg.sender, stakedAmount, staking.isFixed) */\n      0xffffffffffffffffffffffffffffffffffffffff\n      and\n      0x4416ca74b4c9dd8d6070d91c267a6cf53734c0f343ced0ad02471ccb5417037e\n        /* \"gyubbhjhbj.sol\":2511:2523  stakedAmount */\n      dup3\n        /* \"gyubbhjhbj.sol\":2525:2532  staking */\n      dup5\n        /* \"gyubbhjhbj.sol\":2525:2540  staking.isFixed */\n      0x60\n      add\n      mload\n        /* \"gyubbhjhbj.sol\":2490:2541  Unstaked(msg.sender, stakedAmount, staking.isFixed) */\n      mload(0x40)\n      tag_87\n      swap3\n      swap2\n      swap1\n      tag_88\n      jump\t// in\n    tag_87:\n      mload(0x40)\n      dup1\n      swap2\n      sub\n      swap1\n      log2\n        /* \"gyubbhjhbj.sol\":1901:2549  {... */\n      pop\n      pop\n        /* \"gyubbhjhbj.sol\":1873:2549  function unstake() external {... */\n      jump\t// out\n        /* \"gyubbhjhbj.sol\":1270:1865  function stake(uint256 _amount, bool _isFixed, uint256 _duration) external {... */\n    tag_39:\n        /* \"gyubbhjhbj.sol\":1365:1373  stakings */\n      0x00\n        /* \"gyubbhjhbj.sol\":1365:1385  stakings[msg.sender] */\n      dup1\n        /* \"gyubbhjhbj.sol\":1374:1384  msg.sender */\n      caller\n        /* \"gyubbhjhbj.sol\":1365:1385  stakings[msg.sender] */\n      0xffffffffffffffffffffffffffffffffffffffff\n      and\n      0xffffffffffffffffffffffffffffffffffffffff\n      and\n      dup2\n      mstore\n      0x20\n      add\n      swap1\n      dup2\n      mstore\n      0x20\n      add\n      0x00\n      keccak256\n        /* \"gyubbhjhbj.sol\":1365:1394  stakings[msg.sender].isStaked */\n      0x03\n      add\n      0x01\n      swap1\n      sload\n      swap1\n      0x0100\n      exp\n      swap1\n      div\n      0xff\n      and\n        /* \"gyubbhjhbj.sol\":1364:1394  !stakings[msg.sender].isStaked */\n      iszero\n        /* \"gyubbhjhbj.sol\":1356:1413  require(!stakings[msg.sender].isStaked, \"Already staked\") */\n      tag_90\n      jumpi\n      mload(0x40)\n      0x08c379a000000000000000000000000000000000000000000000000000000000\n      dup2\n      mstore\n      0x04\n      add\n      tag_91\n      swap1\n      tag_92\n      jump\t// in\n    tag_91:\n      mload(0x40)\n      dup1\n      swap2\n      sub\n      swap1\n      revert\n    tag_90:\n        /* \"gyubbhjhbj.sol\":1430:1438  _isFixed */\n      dup2\n        /* \"gyubbhjhbj.sol\":1426:1694  if (_isFixed) {... */\n      iszero\n      tag_93\n      jumpi\n        /* \"gyubbhjhbj.sol\":1475:1476  0 */\n      0x00\n        /* \"gyubbhjhbj.sol\":1463:1472  _duration */\n      dup2\n        /* \"gyubbhjhbj.sol\":1463:1476  _duration > 0 */\n      gt\n        /* \"gyubbhjhbj.sol\":1455:1497  require(_duration > 0, \"Invalid duration\") */\n      tag_94\n      jumpi\n      mload(0x40)\n      0x08c379a000000000000000000000000000000000000000000000000000000000\n      dup2\n      mstore\n      0x04\n      add\n      tag_95\n      swap1\n      tag_96\n      jump\t// in\n    tag_95:\n      mload(0x40)\n      dup1\n      swap2\n      sub\n      swap1\n      revert\n    tag_94:\n        /* \"gyubbhjhbj.sol\":1535:1591  Staking(_amount, block.timestamp, _duration, true, true) */\n      mload(0x40)\n      dup1\n      0xa0\n      add\n      0x40\n      mstore\n      dup1\n        /* \"gyubbhjhbj.sol\":1543:1550  _amount */\n      dup5\n        /* \"gyubbhjhbj.sol\":1535:1591  Staking(_amount, block.timestamp, _duration, true, true) */\n      dup2\n      mstore\n      0x20\n      add\n        /* \"gyubbhjhbj.sol\":1552:1567  block.timestamp */\n      timestamp\n        /* \"gyubbhjhbj.sol\":1535:1591  Staking(_amount, block.timestamp, _duration, true, true) */\n      dup2\n      mstore\n      0x20\n      add\n        /* \"gyubbhjhbj.sol\":1569:1578  _duration */\n      dup3\n        /* \"gyubbhjhbj.sol\":1535:1591  Staking(_amount, block.timestamp, _duration, true, true) */\n      dup2\n      mstore\n      0x20\n      add\n        /* \"gyubbhjhbj.sol\":1580:1584  true */\n      0x01\n        /* \"gyubbhjhbj.sol\":1535:1591  Staking(_amount, block.timestamp, _duration, true, true) */\n      iszero\n      iszero\n      dup2\n      mstore\n      0x20\n      add\n        /* \"gyubbhjhbj.sol\":1586:1590  true */\n      0x01\n        /* \"gyubbhjhbj.sol\":1535:1591  Staking(_amount, block.timestamp, _duration, true, true) */\n      iszero\n      iszero\n      dup2\n      mstore\n      pop\n        /* \"gyubbhjhbj.sol\":1512:1520  stakings */\n      0x00\n        /* \"gyubbhjhbj.sol\":1512:1532  stakings[msg.sender] */\n      dup1\n        /* \"gyubbhjhbj.sol\":1521:1531  msg.sender */\n      caller\n        /* \"gyubbhjhbj.sol\":1512:1532  stakings[msg.sender] */\n      0xffffffffffffffffffffffffffffffffffffffff\n      and\n      0xffffffffffffffffffffffffffffffffffffffff\n      and\n      dup2\n      mstore\n      0x20\n      add\n      swap1\n      dup2\n      mstore\n      0x20\n      add\n      0x00\n      keccak256\n        /* \"gyubbhjhbj.sol\":1512:1591  stakings[msg.sender] = Staking(_amount, block.timestamp, _duration, true, true) */\n      0x00\n      dup3\n      add\n      mload\n      dup2\n      0x00\n      add\n      sstore\n      0x20\n      dup3\n      add\n      mload\n      dup2\n      0x01\n      add\n      sstore\n      0x40\n      dup3\n      add\n      mload\n      dup2\n      0x02\n      add\n      sstore\n      0x60\n      dup3\n      add\n      mload\n      dup2\n      0x03\n      add\n      exp(0x0100, 0x00)\n      dup2\n      sload\n      dup2\n      0xff\n      mul\n      not\n      and\n      swap1\n      dup4\n      iszero\n      iszero\n      mul\n      or\n      swap1\n      sstore\n      pop\n      0x80\n      dup3\n      add\n      mload\n      dup2\n      0x03\n      add\n      exp(0x0100, 0x01)\n      dup2\n      sload\n      dup2\n      0xff\n      mul\n      not\n      and\n      swap1\n      dup4\n      iszero\n      iszero\n      mul\n      or\n      swap1\n      sstore\n      pop\n      swap1\n      pop\n      pop\n        /* \"gyubbhjhbj.sol\":1426:1694  if (_isFixed) {... */\n      jump(tag_97)\n    tag_93:\n        /* \"gyubbhjhbj.sol\":1647:1682  Staking(_amount, 0, 0, false, true) */\n      mload(0x40)\n      dup1\n      0xa0\n      add\n      0x40\n      mstore\n      dup1\n        /* \"gyubbhjhbj.sol\":1655:1662  _amount */\n      dup5\n        /* \"gyubbhjhbj.sol\":1647:1682  Staking(_amount, 0, 0, false, true) */\n      dup2\n      mstore\n      0x20\n      add\n        /* \"gyubbhjhbj.sol\":1664:1665  0 */\n      0x00\n        /* \"gyubbhjhbj.sol\":1647:1682  Staking(_amount, 0, 0, false, true) */\n      dup2\n      mstore\n      0x20\n      add\n        /* \"gyubbhjhbj.sol\":1667:1668  0 */\n      0x00\n        /* \"gyubbhjhbj.sol\":1647:1682  Staking(_amount, 0, 0, false, true) */\n      dup2\n      mstore\n      0x20\n      add\n        /* \"gyubbhjhbj.sol\":1670:1675  false */\n      0x00\n        /* \"gyubbhjhbj.sol\":1647:1682  Staking(_amount, 0, 0, false, true) */\n      iszero\n      iszero\n      dup2\n      mstore\n      0x20\n      add\n        /* \"gyubbhjhbj.sol\":1677:1681  true */\n      0x01\n        /* \"gyubbhjhbj.sol\":1647:1682  Staking(_amount, 0, 0, false, true) */\n      iszero\n      iszero\n      dup2\n      mstore\n      pop\n        /* \"gyubbhjhbj.sol\":1624:1632  stakings */\n      0x00\n        /* \"gyubbhjhbj.sol\":1624:1644  stakings[msg.sender] */\n      dup1\n        /* \"gyubbhjhbj.sol\":1633:1643  msg.sender */\n      caller\n        /* \"gyubbhjhbj.sol\":1624:1644  stakings[msg.sender] */\n      0xffffffffffffffffffffffffffffffffffffffff\n      and\n      0xffffffffffffffffffffffffffffffffffffffff\n      and\n      dup2\n      mstore\n      0x20\n      add\n      swap1\n      dup2\n      mstore\n      0x20\n      add\n      0x00\n      keccak256\n        /* \"gyubbhjhbj.sol\":1624:1682  stakings[msg.sender] = Staking(_amount, 0, 0, false, true) */\n      0x00\n      dup3\n      add\n      mload\n      dup2\n      0x00\n      add\n      sstore\n      0x20\n      dup3\n      add\n      mload\n      dup2\n      0x01\n      add\n      sstore\n      0x40\n      dup3\n      add\n      mload\n      dup2\n      0x02\n      add\n      sstore\n      0x60\n      dup3\n      add\n      mload\n      dup2\n      0x03\n      add\n      exp(0x0100, 0x00)\n      dup2\n      sload\n      dup2\n      0xff\n      mul\n      not\n      and\n      swap1\n      dup4\n      iszero\n      iszero\n      mul\n      or\n      swap1\n      sstore\n      pop\n      0x80\n      dup3\n      add\n      mload\n      dup2\n      0x03\n      add\n      exp(0x0100, 0x01)\n      dup2\n      sload\n      dup2\n      0xff\n      mul\n      not\n      and\n      swap1\n      dup4\n      iszero\n      iszero\n      mul\n      or\n      swap1\n      sstore\n      pop\n      swap1\n      pop\n      pop\n        /* \"gyubbhjhbj.sol\":1426:1694  if (_isFixed) {... */\n    tag_97:\n        /* \"gyubbhjhbj.sol\":1730:1737  _amount */\n      dup3\n        /* \"gyubbhjhbj.sol\":1706:1714  balances */\n      0x02\n        /* \"gyubbhjhbj.sol\":1706:1726  balances[msg.sender] */\n      0x00\n        /* \"gyubbhjhbj.sol\":1715:1725  msg.sender */\n      caller\n        /* \"gyubbhjhbj.sol\":1706:1726  balances[msg.sender] */\n      0xffffffffffffffffffffffffffffffffffffffff\n      and\n      0xffffffffffffffffffffffffffffffffffffffff\n      and\n      dup2\n      mstore\n      0x20\n      add\n      swap1\n      dup2\n      mstore\n      0x20\n      add\n      0x00\n      keccak256\n      0x00\n        /* \"gyubbhjhbj.sol\":1706:1737  balances[msg.sender] += _amount */\n      dup3\n      dup3\n      sload\n      tag_98\n      swap2\n      swap1\n      tag_70\n      jump\t// in\n    tag_98:\n      swap3\n      pop\n      pop\n      dup2\n      swap1\n      sstore\n      pop\n        /* \"gyubbhjhbj.sol\":1748:1753  token */\n      0x05\n      0x00\n      swap1\n      sload\n      swap1\n      0x0100\n      exp\n      swap1\n      div\n      0xffffffffffffffffffffffffffffffffffffffff\n      and\n        /* \"gyubbhjhbj.sol\":1748:1766  token.transferFrom */\n      0xffffffffffffffffffffffffffffffffffffffff\n      and\n      0x23b872dd\n        /* \"gyubbhjhbj.sol\":1767:1777  msg.sender */\n      caller\n        /* \"gyubbhjhbj.sol\":1787:1791  this */\n      address\n        /* \"gyubbhjhbj.sol\":1794:1801  _amount */\n      dup7\n        /* \"gyubbhjhbj.sol\":1748:1802  token.transferFrom(msg.sender, address(this), _amount) */\n      mload(0x40)\n      dup5\n      0xffffffff\n      and\n      0xe0\n      shl\n      dup2\n      mstore\n      0x04\n      add\n      tag_99\n      swap4\n      swap3\n      swap2\n      swap1\n      tag_100\n      jump\t// in\n    tag_99:\n      0x20\n      mload(0x40)\n      dup1\n      dup4\n      sub\n      dup2\n      0x00\n      dup8\n      gas\n      call\n      iszero\n      dup1\n      iszero\n      tag_102\n      jumpi\n      returndatasize\n      0x00\n      dup1\n      returndatacopy\n      revert(0x00, returndatasize)\n    tag_102:\n      pop\n      pop\n      pop\n      pop\n      mload(0x40)\n      returndatasize\n      not(0x1f)\n      0x1f\n      dup3\n      add\n      and\n      dup3\n      add\n      dup1\n      0x40\n      mstore\n      pop\n      dup2\n      add\n      swap1\n      tag_103\n      swap2\n      swap1\n      tag_86\n      jump\t// in\n    tag_103:\n      pop\n        /* \"gyubbhjhbj.sol\":1827:1837  msg.sender */\n      caller\n        /* \"gyubbhjhbj.sol\":1820:1857  Staked(msg.sender, _amount, _isFixed) */\n      0xffffffffffffffffffffffffffffffffffffffff\n      and\n      0x37d4053e34fde482e96f6bcd424dfa31342cbd5fe184d497fb3c8bb4b4b97580\n        /* \"gyubbhjhbj.sol\":1839:1846  _amount */\n      dup5\n        /* \"gyubbhjhbj.sol\":1848:1856  _isFixed */\n      dup5\n        /* \"gyubbhjhbj.sol\":1820:1857  Staked(msg.sender, _amount, _isFixed) */\n      mload(0x40)\n      tag_104\n      swap3\n      swap2\n      swap1\n      tag_88\n      jump\t// in\n    tag_104:\n      mload(0x40)\n      dup1\n      swap2\n      sub\n      swap1\n      log2\n        /* \"gyubbhjhbj.sol\":1270:1865  function stake(uint256 _amount, bool _isFixed, uint256 _duration) external {... */\n      pop\n      pop\n      pop\n      jump\t// out\n        /* \"gyubbhjhbj.sol\":607:639  uint256 public fixedInterestRate */\n    tag_41:\n      sload(0x07)\n      dup2\n      jump\t// out\n        /* \"gyubbhjhbj.sol\":482:533  mapping(address => uint256) public unclaimedRewards */\n    tag_45:\n      mstore(0x20, 0x04)\n      dup1\n      0x00\n      mstore\n      keccak256(0x00, 0x40)\n      0x00\n      swap2\n      pop\n      swap1\n      pop\n      sload\n      dup2\n      jump\t// out\n        /* \"gyubbhjhbj.sol\":2557:3189  function claimReward() external {... */\n    tag_48:\n        /* \"gyubbhjhbj.sol\":2608:2616  stakings */\n      0x00\n        /* \"gyubbhjhbj.sol\":2608:2628  stakings[msg.sender] */\n      dup1\n        /* \"gyubbhjhbj.sol\":2617:2627  msg.sender */\n      caller\n        /* \"gyubbhjhbj.sol\":2608:2628  stakings[msg.sender] */\n      0xffffffffffffffffffffffffffffffffffffffff\n      and\n      0xffffffffffffffffffffffffffffffffffffffff\n      and\n      dup2\n      mstore\n      0x20\n      add\n      swap1\n      dup2\n      mstore\n      0x20\n      add\n      0x00\n      keccak256\n        /* \"gyubbhjhbj.sol\":2608:2637  stakings[msg.sender].isStaked */\n      0x03\n      add\n      0x01\n      swap1\n      sload\n      swap1\n      0x0100\n      exp\n      swap1\n      div\n      0xff\n      and\n        /* \"gyubbhjhbj.sol\":2600:2652  require(stakings[msg.sender].isStaked, \"Not staked\") */\n      tag_106\n      jumpi\n      mload(0x40)\n      0x08c379a000000000000000000000000000000000000000000000000000000000\n      dup2\n      mstore\n      0x04\n      add\n      tag_107\n      swap1\n      tag_67\n      jump\t// in\n    tag_107:\n      mload(0x40)\n      dup1\n      swap2\n      sub\n      swap1\n      revert\n    tag_106:\n        /* \"gyubbhjhbj.sol\":2665:2679  uint256 reward */\n      0x00\n        /* \"gyubbhjhbj.sol\":2690:2712  Staking memory staking */\n      dup1\n        /* \"gyubbhjhbj.sol\":2715:2723  stakings */\n      0x00\n        /* \"gyubbhjhbj.sol\":2715:2735  stakings[msg.sender] */\n      dup1\n        /* \"gyubbhjhbj.sol\":2724:2734  msg.sender */\n      caller\n        /* \"gyubbhjhbj.sol\":2715:2735  stakings[msg.sender] */\n      0xffffffffffffffffffffffffffffffffffffffff\n      and\n      0xffffffffffffffffffffffffffffffffffffffff\n      and\n      dup2\n      mstore\n      0x20\n      add\n      swap1\n      dup2\n      mstore\n      0x20\n      add\n      0x00\n      keccak256\n        /* \"gyubbhjhbj.sol\":2690:2735  Staking memory staking = stakings[msg.sender] */\n      mload(0x40)\n      dup1\n      0xa0\n      add\n      0x40\n      mstore\n      swap1\n      dup2\n      0x00\n      dup3\n      add\n      sload\n      dup2\n      mstore\n      0x20\n      add\n      0x01\n      dup3\n      add\n      sload\n      dup2\n      mstore\n      0x20\n      add\n      0x02\n      dup3\n      add\n      sload\n      dup2\n      mstore\n      0x20\n      add\n      0x03\n      dup3\n      add\n      0x00\n      swap1\n      sload\n      swap1\n      0x0100\n      exp\n      swap1\n      div\n      0xff\n      and\n      iszero\n      iszero\n      iszero\n      iszero\n      dup2\n      mstore\n      0x20\n      add\n      0x03\n      dup3\n      add\n      0x01\n      swap1\n      sload\n      swap1\n      0x0100\n      exp\n      swap1\n      div\n      0xff\n      and\n      iszero\n      iszero\n      iszero\n      iszero\n      dup2\n      mstore\n      pop\n      pop\n      swap1\n      pop\n        /* \"gyubbhjhbj.sol\":2750:2757  staking */\n      dup1\n        /* \"gyubbhjhbj.sol\":2750:2765  staking.isFixed */\n      0x60\n      add\n      mload\n        /* \"gyubbhjhbj.sol\":2746:3040  if (staking.isFixed) {... */\n      iszero\n      tag_108\n      jumpi\n        /* \"gyubbhjhbj.sol\":2791:2878  calculateReward(staking.amount, staking.startTime, staking.duration, fixedInterestRate) */\n      tag_109\n        /* \"gyubbhjhbj.sol\":2807:2814  staking */\n      dup2\n        /* \"gyubbhjhbj.sol\":2807:2821  staking.amount */\n      0x00\n      add\n      mload\n        /* \"gyubbhjhbj.sol\":2823:2830  staking */\n      dup3\n        /* \"gyubbhjhbj.sol\":2823:2840  staking.startTime */\n      0x20\n      add\n      mload\n        /* \"gyubbhjhbj.sol\":2842:2849  staking */\n      dup4\n        /* \"gyubbhjhbj.sol\":2842:2858  staking.duration */\n      0x40\n      add\n      mload\n        /* \"gyubbhjhbj.sol\":2860:2877  fixedInterestRate */\n      sload(0x07)\n        /* \"gyubbhjhbj.sol\":2791:2806  calculateReward */\n      tag_110\n        /* \"gyubbhjhbj.sol\":2791:2878  calculateReward(staking.amount, staking.startTime, staking.duration, fixedInterestRate) */\n      jump\t// in\n    tag_109:\n        /* \"gyubbhjhbj.sol\":2782:2878  reward = calculateReward(staking.amount, staking.startTime, staking.duration, fixedInterestRate) */\n      swap2\n      pop\n        /* \"gyubbhjhbj.sol\":2746:3040  if (staking.isFixed) {... */\n      jump(tag_111)\n    tag_108:\n        /* \"gyubbhjhbj.sol\":2920:3028  calculateReward(staking.amount, staking.startTime, block.timestamp - staking.startTime, unfixedInterestRate) */\n      tag_112\n        /* \"gyubbhjhbj.sol\":2936:2943  staking */\n      dup2\n        /* \"gyubbhjhbj.sol\":2936:2950  staking.amount */\n      0x00\n      add\n      mload\n        /* \"gyubbhjhbj.sol\":2952:2959  staking */\n      dup3\n        /* \"gyubbhjhbj.sol\":2952:2969  staking.startTime */\n      0x20\n      add\n      mload\n        /* \"gyubbhjhbj.sol\":2989:2996  staking */\n      dup4\n        /* \"gyubbhjhbj.sol\":2989:3006  staking.startTime */\n      0x20\n      add\n      mload\n        /* \"gyubbhjhbj.sol\":2971:2986  block.timestamp */\n      timestamp\n        /* \"gyubbhjhbj.sol\":2971:3006  block.timestamp - staking.startTime */\n      tag_113\n      swap2\n      swap1\n      tag_79\n      jump\t// in\n    tag_113:\n        /* \"gyubbhjhbj.sol\":3008:3027  unfixedInterestRate */\n      sload(0x08)\n        /* \"gyubbhjhbj.sol\":2920:2935  calculateReward */\n      tag_110\n        /* \"gyubbhjhbj.sol\":2920:3028  calculateReward(staking.amount, staking.startTime, block.timestamp - staking.startTime, unfixedInterestRate) */\n      jump\t// in\n    tag_112:\n        /* \"gyubbhjhbj.sol\":2911:3028  reward = calculateReward(staking.amount, staking.startTime, block.timestamp - staking.startTime, unfixedInterestRate) */\n      swap2\n      pop\n        /* \"gyubbhjhbj.sol\":2746:3040  if (staking.isFixed) {... */\n    tag_111:\n        /* \"gyubbhjhbj.sol\":3075:3081  reward */\n      dup2\n        /* \"gyubbhjhbj.sol\":3052:3059  rewards */\n      0x01\n        /* \"gyubbhjhbj.sol\":3052:3071  rewards[msg.sender] */\n      0x00\n        /* \"gyubbhjhbj.sol\":3060:3070  msg.sender */\n      caller\n        /* \"gyubbhjhbj.sol\":3052:3071  rewards[msg.sender] */\n      0xffffffffffffffffffffffffffffffffffffffff\n      and\n      0xffffffffffffffffffffffffffffffffffffffff\n      and\n      dup2\n      mstore\n      0x20\n      add\n      swap1\n      dup2\n      mstore\n      0x20\n      add\n      0x00\n      keccak256\n      0x00\n        /* \"gyubbhjhbj.sol\":3052:3081  rewards[msg.sender] += reward */\n      dup3\n      dup3\n      sload\n      tag_114\n      swap2\n      swap1\n      tag_70\n      jump\t// in\n    tag_114:\n      swap3\n      pop\n      pop\n      dup2\n      swap1\n      sstore\n      pop\n        /* \"gyubbhjhbj.sol\":3124:3130  reward */\n      dup2\n        /* \"gyubbhjhbj.sol\":3092:3108  unclaimedRewards */\n      0x04\n        /* \"gyubbhjhbj.sol\":3092:3120  unclaimedRewards[msg.sender] */\n      0x00\n        /* \"gyubbhjhbj.sol\":3109:3119  msg.sender */\n      caller\n        /* \"gyubbhjhbj.sol\":3092:3120  unclaimedRewards[msg.sender] */\n      0xffffffffffffffffffffffffffffffffffffffff\n      and\n      0xffffffffffffffffffffffffffffffffffffffff\n      and\n      dup2\n      mstore\n      0x20\n      add\n      swap1\n      dup2\n      mstore\n      0x20\n      add\n      0x00\n      keccak256\n      0x00\n        /* \"gyubbhjhbj.sol\":3092:3130  unclaimedRewards[msg.sender] += reward */\n      dup3\n      dup3\n      sload\n      tag_115\n      swap2\n      swap1\n      tag_70\n      jump\t// in\n    tag_115:\n      swap3\n      pop\n      pop\n      dup2\n      swap1\n      sstore\n      pop\n        /* \"gyubbhjhbj.sol\":3162:3172  msg.sender */\n      caller\n        /* \"gyubbhjhbj.sol\":3148:3181  RewardClaimed(msg.sender, reward) */\n      0xffffffffffffffffffffffffffffffffffffffff\n      and\n      0x106f923f993c2149d49b4255ff723acafa1f2d94393f561d3eda32ae348f7241\n        /* \"gyubbhjhbj.sol\":3174:3180  reward */\n      dup4\n        /* \"gyubbhjhbj.sol\":3148:3181  RewardClaimed(msg.sender, reward) */\n      mload(0x40)\n      tag_116\n      swap2\n      swap1\n      tag_23\n      jump\t// in\n    tag_116:\n      mload(0x40)\n      dup1\n      swap2\n      sub\n      swap1\n      log2\n        /* \"gyubbhjhbj.sol\":2589:3189  {... */\n      pop\n      pop\n        /* \"gyubbhjhbj.sol\":2557:3189  function claimReward() external {... */\n      jump\t// out\n        /* \"gyubbhjhbj.sol\":426:475  mapping(address => uint256) public claimedRewards */\n    tag_51:\n      mstore(0x20, 0x03)\n      dup1\n      0x00\n      mstore\n      keccak256(0x00, 0x40)\n      0x00\n      swap2\n      pop\n      swap1\n      pop\n      sload\n      dup2\n      jump\t// out\n        /* \"gyubbhjhbj.sol\":277:320  mapping(address => Staking) public stakings */\n    tag_55:\n      mstore(0x20, 0x00)\n      dup1\n      0x00\n      mstore\n      keccak256(0x00, 0x40)\n      0x00\n      swap2\n      pop\n      swap1\n      pop\n      dup1\n      0x00\n      add\n      sload\n      swap1\n      dup1\n      0x01\n      add\n      sload\n      swap1\n      dup1\n      0x02\n      add\n      sload\n      swap1\n      dup1\n      0x03\n      add\n      0x00\n      swap1\n      sload\n      swap1\n      0x0100\n      exp\n      swap1\n      div\n      0xff\n      and\n      swap1\n      dup1\n      0x03\n      add\n      0x01\n      swap1\n      sload\n      swap1\n      0x0100\n      exp\n      swap1\n      div\n      0xff\n      and\n      swap1\n      pop\n      dup6\n      jump\t// out\n        /* \"gyubbhjhbj.sol\":542:561  IERC20 public token */\n    tag_59:\n      0x05\n      0x00\n      swap1\n      sload\n      swap1\n      0x0100\n      exp\n      swap1\n      div\n      0xffffffffffffffffffffffffffffffffffffffff\n      and\n      dup2\n      jump\t// out\n        /* \"gyubbhjhbj.sol\":3457:3723  function getClaimableRewards() external {... */\n    tag_63:\n        /* \"gyubbhjhbj.sol\":3508:3531  uint256 unclaimedReward */\n      0x00\n        /* \"gyubbhjhbj.sol\":3534:3550  unclaimedRewards */\n      0x04\n        /* \"gyubbhjhbj.sol\":3534:3562  unclaimedRewards[msg.sender] */\n      0x00\n        /* \"gyubbhjhbj.sol\":3551:3561  msg.sender */\n      caller\n        /* \"gyubbhjhbj.sol\":3534:3562  unclaimedRewards[msg.sender] */\n      0xffffffffffffffffffffffffffffffffffffffff\n      and\n      0xffffffffffffffffffffffffffffffffffffffff\n      and\n      dup2\n      mstore\n      0x20\n      add\n      swap1\n      dup2\n      mstore\n      0x20\n      add\n      0x00\n      keccak256\n      sload\n        /* \"gyubbhjhbj.sol\":3508:3562  uint256 unclaimedReward = unclaimedRewards[msg.sender] */\n      swap1\n      pop\n        /* \"gyubbhjhbj.sol\":3604:3605  0 */\n      0x00\n        /* \"gyubbhjhbj.sol\":3573:3589  unclaimedRewards */\n      0x04\n        /* \"gyubbhjhbj.sol\":3573:3601  unclaimedRewards[msg.sender] */\n      0x00\n        /* \"gyubbhjhbj.sol\":3590:3600  msg.sender */\n      caller\n        /* \"gyubbhjhbj.sol\":3573:3601  unclaimedRewards[msg.sender] */\n      0xffffffffffffffffffffffffffffffffffffffff\n      and\n      0xffffffffffffffffffffffffffffffffffffffff\n      and\n      dup2\n      mstore\n      0x20\n      add\n      swap1\n      dup2\n      mstore\n      0x20\n      add\n      0x00\n      keccak256\n        /* \"gyubbhjhbj.sol\":3573:3605  unclaimedRewards[msg.sender] = 0 */\n      dup2\n      swap1\n      sstore\n      pop\n        /* \"gyubbhjhbj.sol\":3646:3661  unclaimedReward */\n      dup1\n        /* \"gyubbhjhbj.sol\":3616:3630  claimedRewards */\n      0x03\n        /* \"gyubbhjhbj.sol\":3616:3642  claimedRewards[msg.sender] */\n      0x00\n        /* \"gyubbhjhbj.sol\":3631:3641  msg.sender */\n      caller\n        /* \"gyubbhjhbj.sol\":3616:3642  claimedRewards[msg.sender] */\n      0xffffffffffffffffffffffffffffffffffffffff\n      and\n      0xffffffffffffffffffffffffffffffffffffffff\n      and\n      dup2\n      mstore\n      0x20\n      add\n      swap1\n      dup2\n      mstore\n      0x20\n      add\n      0x00\n      keccak256\n      0x00\n        /* \"gyubbhjhbj.sol\":3616:3661  claimedRewards[msg.sender] += unclaimedReward */\n      dup3\n      dup3\n      sload\n      tag_118\n      swap2\n      swap1\n      tag_70\n      jump\t// in\n    tag_118:\n      swap3\n      pop\n      pop\n      dup2\n      swap1\n      sstore\n      pop\n        /* \"gyubbhjhbj.sol\":3672:3677  token */\n      0x05\n      0x00\n      swap1\n      sload\n      swap1\n      0x0100\n      exp\n      swap1\n      div\n      0xffffffffffffffffffffffffffffffffffffffff\n      and\n        /* \"gyubbhjhbj.sol\":3672:3686  token.transfer */\n      0xffffffffffffffffffffffffffffffffffffffff\n      and\n      0xa9059cbb\n        /* \"gyubbhjhbj.sol\":3687:3697  msg.sender */\n      caller\n        /* \"gyubbhjhbj.sol\":3699:3714  unclaimedReward */\n      dup4\n        /* \"gyubbhjhbj.sol\":3672:3715  token.transfer(msg.sender, unclaimedReward) */\n      mload(0x40)\n      dup4\n      0xffffffff\n      and\n      0xe0\n      shl\n      dup2\n      mstore\n      0x04\n      add\n      tag_119\n      swap3\n      swap2\n      swap1\n      tag_82\n      jump\t// in\n    tag_119:\n      0x20\n      mload(0x40)\n      dup1\n      dup4\n      sub\n      dup2\n      0x00\n      dup8\n      gas\n      call\n      iszero\n      dup1\n      iszero\n      tag_121\n      jumpi\n      returndatasize\n      0x00\n      dup1\n      returndatacopy\n      revert(0x00, returndatasize)\n    tag_121:\n      pop\n      pop\n      pop\n      pop\n      mload(0x40)\n      returndatasize\n      not(0x1f)\n      0x1f\n      dup3\n      add\n      and\n      dup3\n      add\n      dup1\n      0x40\n      mstore\n      pop\n      dup2\n      add\n      swap1\n      tag_122\n      swap2\n      swap1\n      tag_86\n      jump\t// in\n    tag_122:\n      pop\n        /* \"gyubbhjhbj.sol\":3497:3723  {... */\n      pop\n        /* \"gyubbhjhbj.sol\":3457:3723  function getClaimableRewards() external {... */\n      jump\t// out\n        /* \"gyubbhjhbj.sol\":3197:3449  function calculateReward(uint256 _amount, uint256 _startTime, uint256 _duration, uint256 _interestRate) internal pure returns (uint256) {... */\n    tag_110:\n        /* \"gyubbhjhbj.sol\":3324:3331  uint256 */\n      0x00\n        /* \"gyubbhjhbj.sol\":3344:3358  uint256 reward */\n      dup1\n        /* \"gyubbhjhbj.sol\":3402:3416  100 * 365 days */\n      0xbbf81e00\n        /* \"gyubbhjhbj.sol\":3388:3397  _duration */\n      dup5\n        /* \"gyubbhjhbj.sol\":3372:3385  _interestRate */\n      dup5\n        /* \"gyubbhjhbj.sol\":3362:3369  _amount */\n      dup9\n        /* \"gyubbhjhbj.sol\":3362:3385  _amount * _interestRate */\n      tag_124\n      swap2\n      swap1\n      tag_75\n      jump\t// in\n    tag_124:\n        /* \"gyubbhjhbj.sol\":3362:3397  _amount * _interestRate * _duration */\n      tag_125\n      swap2\n      swap1\n      tag_75\n      jump\t// in\n    tag_125:\n        /* \"gyubbhjhbj.sol\":3361:3417  (_amount * _interestRate * _duration) / (100 * 365 days) */\n      tag_126\n      swap2\n      swap1\n      tag_77\n      jump\t// in\n    tag_126:\n        /* \"gyubbhjhbj.sol\":3344:3417  uint256 reward = (_amount * _interestRate * _duration) / (100 * 365 days) */\n      swap1\n      pop\n        /* \"gyubbhjhbj.sol\":3435:3441  reward */\n      dup1\n        /* \"gyubbhjhbj.sol\":3428:3441  return reward */\n      swap2\n      pop\n      pop\n        /* \"gyubbhjhbj.sol\":3197:3449  function calculateReward(uint256 _amount, uint256 _startTime, uint256 _duration, uint256 _interestRate) internal pure returns (uint256) {... */\n      swap5\n      swap4\n      pop\n      pop\n      pop\n      pop\n      jump\t// out\n        /* \"#utility.yul\":88:205   */\n    tag_128:\n        /* \"#utility.yul\":197:198   */\n      0x00\n        /* \"#utility.yul\":194:195   */\n      dup1\n        /* \"#utility.yul\":187:199   */\n      revert\n        /* \"#utility.yul\":334:460   */\n    tag_130:\n        /* \"#utility.yul\":371:378   */\n      0x00\n        /* \"#utility.yul\":411:453   */\n      0xffffffffffffffffffffffffffffffffffffffff\n        /* \"#utility.yul\":404:409   */\n      dup3\n        /* \"#utility.yul\":400:454   */\n      and\n        /* \"#utility.yul\":389:454   */\n      swap1\n      pop\n        /* \"#utility.yul\":334:460   */\n      swap2\n      swap1\n      pop\n      jump\t// out\n        /* \"#utility.yul\":466:562   */\n    tag_131:\n        /* \"#utility.yul\":503:510   */\n      0x00\n        /* \"#utility.yul\":532:556   */\n      tag_166\n        /* \"#utility.yul\":550:555   */\n      dup3\n        /* \"#utility.yul\":532:556   */\n      tag_130\n      jump\t// in\n    tag_166:\n        /* \"#utility.yul\":521:556   */\n      swap1\n      pop\n        /* \"#utility.yul\":466:562   */\n      swap2\n      swap1\n      pop\n      jump\t// out\n        /* \"#utility.yul\":568:690   */\n    tag_132:\n        /* \"#utility.yul\":641:665   */\n      tag_168\n        /* \"#utility.yul\":659:664   */\n      dup2\n        /* \"#utility.yul\":641:665   */\n      tag_131\n      jump\t// in\n    tag_168:\n        /* \"#utility.yul\":634:639   */\n      dup2\n        /* \"#utility.yul\":631:666   */\n      eq\n        /* \"#utility.yul\":621:684   */\n      tag_169\n      jumpi\n        /* \"#utility.yul\":680:681   */\n      0x00\n        /* \"#utility.yul\":677:678   */\n      dup1\n        /* \"#utility.yul\":670:682   */\n      revert\n        /* \"#utility.yul\":621:684   */\n    tag_169:\n        /* \"#utility.yul\":568:690   */\n      pop\n      jump\t// out\n        /* \"#utility.yul\":696:835   */\n    tag_133:\n        /* \"#utility.yul\":742:747   */\n      0x00\n        /* \"#utility.yul\":780:786   */\n      dup2\n        /* \"#utility.yul\":767:787   */\n      calldataload\n        /* \"#utility.yul\":758:787   */\n      swap1\n      pop\n        /* \"#utility.yul\":796:829   */\n      tag_171\n        /* \"#utility.yul\":823:828   */\n      dup2\n        /* \"#utility.yul\":796:829   */\n      tag_132\n      jump\t// in\n    tag_171:\n        /* \"#utility.yul\":696:835   */\n      swap3\n      swap2\n      pop\n      pop\n      jump\t// out\n        /* \"#utility.yul\":841:1170   */\n    tag_20:\n        /* \"#utility.yul\":900:906   */\n      0x00\n        /* \"#utility.yul\":949:951   */\n      0x20\n        /* \"#utility.yul\":937:946   */\n      dup3\n        /* \"#utility.yul\":928:935   */\n      dup5\n        /* \"#utility.yul\":924:947   */\n      sub\n        /* \"#utility.yul\":920:952   */\n      slt\n        /* \"#utility.yul\":917:1036   */\n      iszero\n      tag_173\n      jumpi\n        /* \"#utility.yul\":955:1034   */\n      tag_174\n      tag_128\n      jump\t// in\n    tag_174:\n        /* \"#utility.yul\":917:1036   */\n    tag_173:\n        /* \"#utility.yul\":1075:1076   */\n      0x00\n        /* \"#utility.yul\":1100:1153   */\n      tag_175\n        /* \"#utility.yul\":1145:1152   */\n      dup5\n        /* \"#utility.yul\":1136:1142   */\n      dup3\n        /* \"#utility.yul\":1125:1134   */\n      dup6\n        /* \"#utility.yul\":1121:1143   */\n      add\n        /* \"#utility.yul\":1100:1153   */\n      tag_133\n      jump\t// in\n    tag_175:\n        /* \"#utility.yul\":1090:1153   */\n      swap2\n      pop\n        /* \"#utility.yul\":1046:1163   */\n      pop\n        /* \"#utility.yul\":841:1170   */\n      swap3\n      swap2\n      pop\n      pop\n      jump\t// out\n        /* \"#utility.yul\":1176:1253   */\n    tag_134:\n        /* \"#utility.yul\":1213:1220   */\n      0x00\n        /* \"#utility.yul\":1242:1247   */\n      dup2\n        /* \"#utility.yul\":1231:1247   */\n      swap1\n      pop\n        /* \"#utility.yul\":1176:1253   */\n      swap2\n      swap1\n      pop\n      jump\t// out\n        /* \"#utility.yul\":1259:1377   */\n    tag_135:\n        /* \"#utility.yul\":1346:1370   */\n      tag_178\n        /* \"#utility.yul\":1364:1369   */\n      dup2\n        /* \"#utility.yul\":1346:1370   */\n      tag_134\n      jump\t// in\n    tag_178:\n        /* \"#utility.yul\":1341:1344   */\n      dup3\n        /* \"#utility.yul\":1334:1371   */\n      mstore\n        /* \"#utility.yul\":1259:1377   */\n      pop\n      pop\n      jump\t// out\n        /* \"#utility.yul\":1383:1605   */\n    tag_23:\n        /* \"#utility.yul\":1476:1480   */\n      0x00\n        /* \"#utility.yul\":1514:1516   */\n      0x20\n        /* \"#utility.yul\":1503:1512   */\n      dup3\n        /* \"#utility.yul\":1499:1517   */\n      add\n        /* \"#utility.yul\":1491:1517   */\n      swap1\n      pop\n        /* \"#utility.yul\":1527:1598   */\n      tag_180\n        /* \"#utility.yul\":1595:1596   */\n      0x00\n        /* \"#utility.yul\":1584:1593   */\n      dup4\n        /* \"#utility.yul\":1580:1597   */\n      add\n        /* \"#utility.yul\":1571:1577   */\n      dup5\n        /* \"#utility.yul\":1527:1598   */\n      tag_135\n      jump\t// in\n    tag_180:\n        /* \"#utility.yul\":1383:1605   */\n      swap3\n      swap2\n      pop\n      pop\n      jump\t// out\n        /* \"#utility.yul\":1611:1733   */\n    tag_136:\n        /* \"#utility.yul\":1684:1708   */\n      tag_182\n        /* \"#utility.yul\":1702:1707   */\n      dup2\n        /* \"#utility.yul\":1684:1708   */\n      tag_134\n      jump\t// in\n    tag_182:\n        /* \"#utility.yul\":1677:1682   */\n      dup2\n        /* \"#utility.yul\":1674:1709   */\n      eq\n        /* \"#utility.yul\":1664:1727   */\n      tag_183\n      jumpi\n        /* \"#utility.yul\":1723:1724   */\n      0x00\n        /* \"#utility.yul\":1720:1721   */\n      dup1\n        /* \"#utility.yul\":1713:1725   */\n      revert\n        /* \"#utility.yul\":1664:1727   */\n    tag_183:\n        /* \"#utility.yul\":1611:1733   */\n      pop\n      jump\t// out\n        /* \"#utility.yul\":1739:1878   */\n    tag_137:\n        /* \"#utility.yul\":1785:1790   */\n      0x00\n        /* \"#utility.yul\":1823:1829   */\n      dup2\n        /* \"#utility.yul\":1810:1830   */\n      calldataload\n        /* \"#utility.yul\":1801:1830   */\n      swap1\n      pop\n        /* \"#utility.yul\":1839:1872   */\n      tag_185\n        /* \"#utility.yul\":1866:1871   */\n      dup2\n        /* \"#utility.yul\":1839:1872   */\n      tag_136\n      jump\t// in\n    tag_185:\n        /* \"#utility.yul\":1739:1878   */\n      swap3\n      swap2\n      pop\n      pop\n      jump\t// out\n        /* \"#utility.yul\":1884:1974   */\n    tag_138:\n        /* \"#utility.yul\":1918:1925   */\n      0x00\n        /* \"#utility.yul\":1961:1966   */\n      dup2\n        /* \"#utility.yul\":1954:1967   */\n      iszero\n        /* \"#utility.yul\":1947:1968   */\n      iszero\n        /* \"#utility.yul\":1936:1968   */\n      swap1\n      pop\n        /* \"#utility.yul\":1884:1974   */\n      swap2\n      swap1\n      pop\n      jump\t// out\n        /* \"#utility.yul\":1980:2096   */\n    tag_139:\n        /* \"#utility.yul\":2050:2071   */\n      tag_188\n        /* \"#utility.yul\":2065:2070   */\n      dup2\n        /* \"#utility.yul\":2050:2071   */\n      tag_138\n      jump\t// in\n    tag_188:\n        /* \"#utility.yul\":2043:2048   */\n      dup2\n        /* \"#utility.yul\":2040:2072   */\n      eq\n        /* \"#utility.yul\":2030:2090   */\n      tag_189\n      jumpi\n        /* \"#utility.yul\":2086:2087   */\n      0x00\n        /* \"#utility.yul\":2083:2084   */\n      dup1\n        /* \"#utility.yul\":2076:2088   */\n      revert\n        /* \"#utility.yul\":2030:2090   */\n    tag_189:\n        /* \"#utility.yul\":1980:2096   */\n      pop\n      jump\t// out\n        /* \"#utility.yul\":2102:2235   */\n    tag_140:\n        /* \"#utility.yul\":2145:2150   */\n      0x00\n        /* \"#utility.yul\":2183:2189   */\n      dup2\n        /* \"#utility.yul\":2170:2190   */\n      calldataload\n        /* \"#utility.yul\":2161:2190   */\n      swap1\n      pop\n        /* \"#utility.yul\":2199:2229   */\n      tag_191\n        /* \"#utility.yul\":2223:2228   */\n      dup2\n        /* \"#utility.yul\":2199:2229   */\n      tag_139\n      jump\t// in\n    tag_191:\n        /* \"#utility.yul\":2102:2235   */\n      swap3\n      swap2\n      pop\n      pop\n      jump\t// out\n        /* \"#utility.yul\":2241:2854   */\n    tag_38:\n        /* \"#utility.yul\":2315:2321   */\n      0x00\n        /* \"#utility.yul\":2323:2329   */\n      dup1\n        /* \"#utility.yul\":2331:2337   */\n      0x00\n        /* \"#utility.yul\":2380:2382   */\n      0x60\n        /* \"#utility.yul\":2368:2377   */\n      dup5\n        /* \"#utility.yul\":2359:2366   */\n      dup7\n        /* \"#utility.yul\":2355:2378   */\n      sub\n        /* \"#utility.yul\":2351:2383   */\n      slt\n        /* \"#utility.yul\":2348:2467   */\n      iszero\n      tag_193\n      jumpi\n        /* \"#utility.yul\":2386:2465   */\n      tag_194\n      tag_128\n      jump\t// in\n    tag_194:\n        /* \"#utility.yul\":2348:2467   */\n    tag_193:\n        /* \"#utility.yul\":2506:2507   */\n      0x00\n        /* \"#utility.yul\":2531:2584   */\n      tag_195\n        /* \"#utility.yul\":2576:2583   */\n      dup7\n        /* \"#utility.yul\":2567:2573   */\n      dup3\n        /* \"#utility.yul\":2556:2565   */\n      dup8\n        /* \"#utility.yul\":2552:2574   */\n      add\n        /* \"#utility.yul\":2531:2584   */\n      tag_137\n      jump\t// in\n    tag_195:\n        /* \"#utility.yul\":2521:2584   */\n      swap4\n      pop\n        /* \"#utility.yul\":2477:2594   */\n      pop\n        /* \"#utility.yul\":2633:2635   */\n      0x20\n        /* \"#utility.yul\":2659:2709   */\n      tag_196\n        /* \"#utility.yul\":2701:2708   */\n      dup7\n        /* \"#utility.yul\":2692:2698   */\n      dup3\n        /* \"#utility.yul\":2681:2690   */\n      dup8\n        /* \"#utility.yul\":2677:2699   */\n      add\n        /* \"#utility.yul\":2659:2709   */\n      tag_140\n      jump\t// in\n    tag_196:\n        /* \"#utility.yul\":2649:2709   */\n      swap3\n      pop\n        /* \"#utility.yul\":2604:2719   */\n      pop\n        /* \"#utility.yul\":2758:2760   */\n      0x40\n        /* \"#utility.yul\":2784:2837   */\n      tag_197\n        /* \"#utility.yul\":2829:2836   */\n      dup7\n        /* \"#utility.yul\":2820:2826   */\n      dup3\n        /* \"#utility.yul\":2809:2818   */\n      dup8\n        /* \"#utility.yul\":2805:2827   */\n      add\n        /* \"#utility.yul\":2784:2837   */\n      tag_137\n      jump\t// in\n    tag_197:\n        /* \"#utility.yul\":2774:2837   */\n      swap2\n      pop\n        /* \"#utility.yul\":2729:2847   */\n      pop\n        /* \"#utility.yul\":2241:2854   */\n      swap3\n      pop\n      swap3\n      pop\n      swap3\n      jump\t// out\n        /* \"#utility.yul\":2860:2969   */\n    tag_141:\n        /* \"#utility.yul\":2941:2962   */\n      tag_199\n        /* \"#utility.yul\":2956:2961   */\n      dup2\n        /* \"#utility.yul\":2941:2962   */\n      tag_138\n      jump\t// in\n    tag_199:\n        /* \"#utility.yul\":2936:2939   */\n      dup3\n        /* \"#utility.yul\":2929:2963   */\n      mstore\n        /* \"#utility.yul\":2860:2969   */\n      pop\n      pop\n      jump\t// out\n        /* \"#utility.yul\":2975:3615   */\n    tag_57:\n        /* \"#utility.yul\":3168:3172   */\n      0x00\n        /* \"#utility.yul\":3206:3209   */\n      0xa0\n        /* \"#utility.yul\":3195:3204   */\n      dup3\n        /* \"#utility.yul\":3191:3210   */\n      add\n        /* \"#utility.yul\":3183:3210   */\n      swap1\n      pop\n        /* \"#utility.yul\":3220:3291   */\n      tag_201\n        /* \"#utility.yul\":3288:3289   */\n      0x00\n        /* \"#utility.yul\":3277:3286   */\n      dup4\n        /* \"#utility.yul\":3273:3290   */\n      add\n        /* \"#utility.yul\":3264:3270   */\n      dup9\n        /* \"#utility.yul\":3220:3291   */\n      tag_135\n      jump\t// in\n    tag_201:\n        /* \"#utility.yul\":3301:3373   */\n      tag_202\n        /* \"#utility.yul\":3369:3371   */\n      0x20\n        /* \"#utility.yul\":3358:3367   */\n      dup4\n        /* \"#utility.yul\":3354:3372   */\n      add\n        /* \"#utility.yul\":3345:3351   */\n      dup8\n        /* \"#utility.yul\":3301:3373   */\n      tag_135\n      jump\t// in\n    tag_202:\n        /* \"#utility.yul\":3383:3455   */\n      tag_203\n        /* \"#utility.yul\":3451:3453   */\n      0x40\n        /* \"#utility.yul\":3440:3449   */\n      dup4\n        /* \"#utility.yul\":3436:3454   */\n      add\n        /* \"#utility.yul\":3427:3433   */\n      dup7\n        /* \"#utility.yul\":3383:3455   */\n      tag_135\n      jump\t// in\n    tag_203:\n        /* \"#utility.yul\":3465:3531   */\n      tag_204\n        /* \"#utility.yul\":3527:3529   */\n      0x60\n        /* \"#utility.yul\":3516:3525   */\n      dup4\n        /* \"#utility.yul\":3512:3530   */\n      add\n        /* \"#utility.yul\":3503:3509   */\n      dup6\n        /* \"#utility.yul\":3465:3531   */\n      tag_141\n      jump\t// in\n    tag_204:\n        /* \"#utility.yul\":3541:3608   */\n      tag_205\n        /* \"#utility.yul\":3603:3606   */\n      0x80\n        /* \"#utility.yul\":3592:3601   */\n      dup4\n        /* \"#utility.yul\":3588:3607   */\n      add\n        /* \"#utility.yul\":3579:3585   */\n      dup5\n        /* \"#utility.yul\":3541:3608   */\n      tag_141\n      jump\t// in\n    tag_205:\n        /* \"#utility.yul\":2975:3615   */\n      swap7\n      swap6\n      pop\n      pop\n      pop\n      pop\n      pop\n      pop\n      jump\t// out\n        /* \"#utility.yul\":3621:3681   */\n    tag_142:\n        /* \"#utility.yul\":3649:3652   */\n      0x00\n        /* \"#utility.yul\":3670:3675   */\n      dup2\n        /* \"#utility.yul\":3663:3675   */\n      swap1\n      pop\n        /* \"#utility.yul\":3621:3681   */\n      swap2\n      swap1\n      pop\n      jump\t// out\n        /* \"#utility.yul\":3687:3829   */\n    tag_143:\n        /* \"#utility.yul\":3737:3746   */\n      0x00\n        /* \"#utility.yul\":3770:3823   */\n      tag_208\n        /* \"#utility.yul\":3788:3822   */\n      tag_209\n        /* \"#utility.yul\":3797:3821   */\n      tag_210\n        /* \"#utility.yul\":3815:3820   */\n      dup5\n        /* \"#utility.yul\":3797:3821   */\n      tag_130\n      jump\t// in\n    tag_210:\n        /* \"#utility.yul\":3788:3822   */\n      tag_142\n      jump\t// in\n    tag_209:\n        /* \"#utility.yul\":3770:3823   */\n      tag_130\n      jump\t// in\n    tag_208:\n        /* \"#utility.yul\":3757:3823   */\n      swap1\n      pop\n        /* \"#utility.yul\":3687:3829   */\n      swap2\n      swap1\n      pop\n      jump\t// out\n        /* \"#utility.yul\":3835:3961   */\n    tag_144:\n        /* \"#utility.yul\":3885:3894   */\n      0x00\n        /* \"#utility.yul\":3918:3955   */\n      tag_212\n        /* \"#utility.yul\":3949:3954   */\n      dup3\n        /* \"#utility.yul\":3918:3955   */\n      tag_143\n      jump\t// in\n    tag_212:\n        /* \"#utility.yul\":3905:3955   */\n      swap1\n      pop\n        /* \"#utility.yul\":3835:3961   */\n      swap2\n      swap1\n      pop\n      jump\t// out\n        /* \"#utility.yul\":3967:4106   */\n    tag_145:\n        /* \"#utility.yul\":4030:4039   */\n      0x00\n        /* \"#utility.yul\":4063:4100   */\n      tag_214\n        /* \"#utility.yul\":4094:4099   */\n      dup3\n        /* \"#utility.yul\":4063:4100   */\n      tag_144\n      jump\t// in\n    tag_214:\n        /* \"#utility.yul\":4050:4100   */\n      swap1\n      pop\n        /* \"#utility.yul\":3967:4106   */\n      swap2\n      swap1\n      pop\n      jump\t// out\n        /* \"#utility.yul\":4112:4269   */\n    tag_146:\n        /* \"#utility.yul\":4212:4262   */\n      tag_216\n        /* \"#utility.yul\":4256:4261   */\n      dup2\n        /* \"#utility.yul\":4212:4262   */\n      tag_145\n      jump\t// in\n    tag_216:\n        /* \"#utility.yul\":4207:4210   */\n      dup3\n        /* \"#utility.yul\":4200:4263   */\n      mstore\n        /* \"#utility.yul\":4112:4269   */\n      pop\n      pop\n      jump\t// out\n        /* \"#utility.yul\":4275:4523   */\n    tag_61:\n        /* \"#utility.yul\":4381:4385   */\n      0x00\n        /* \"#utility.yul\":4419:4421   */\n      0x20\n        /* \"#utility.yul\":4408:4417   */\n      dup3\n        /* \"#utility.yul\":4404:4422   */\n      add\n        /* \"#utility.yul\":4396:4422   */\n      swap1\n      pop\n        /* \"#utility.yul\":4432:4516   */\n      tag_218\n        /* \"#utility.yul\":4513:4514   */\n      0x00\n        /* \"#utility.yul\":4502:4511   */\n      dup4\n        /* \"#utility.yul\":4498:4515   */\n      add\n        /* \"#utility.yul\":4489:4495   */\n      dup5\n        /* \"#utility.yul\":4432:4516   */\n      tag_146\n      jump\t// in\n    tag_218:\n        /* \"#utility.yul\":4275:4523   */\n      swap3\n      swap2\n      pop\n      pop\n      jump\t// out\n        /* \"#utility.yul\":4529:4698   */\n    tag_147:\n        /* \"#utility.yul\":4613:4624   */\n      0x00\n        /* \"#utility.yul\":4647:4653   */\n      dup3\n        /* \"#utility.yul\":4642:4645   */\n      dup3\n        /* \"#utility.yul\":4635:4654   */\n      mstore\n        /* \"#utility.yul\":4687:4691   */\n      0x20\n        /* \"#utility.yul\":4682:4685   */\n      dup3\n        /* \"#utility.yul\":4678:4692   */\n      add\n        /* \"#utility.yul\":4663:4692   */\n      swap1\n      pop\n        /* \"#utility.yul\":4529:4698   */\n      swap3\n      swap2\n      pop\n      pop\n      jump\t// out\n        /* \"#utility.yul\":4704:4864   */\n    tag_148:\n        /* \"#utility.yul\":4844:4856   */\n      0x4e6f74207374616b656400000000000000000000000000000000000000000000\n        /* \"#utility.yul\":4840:4841   */\n      0x00\n        /* \"#utility.yul\":4832:4838   */\n      dup3\n        /* \"#utility.yul\":4828:4842   */\n      add\n        /* \"#utility.yul\":4821:4857   */\n      mstore\n        /* \"#utility.yul\":4704:4864   */\n      pop\n      jump\t// out\n        /* \"#utility.yul\":4870:5236   */\n    tag_149:\n        /* \"#utility.yul\":5012:5015   */\n      0x00\n        /* \"#utility.yul\":5033:5100   */\n      tag_222\n        /* \"#utility.yul\":5097:5099   */\n      0x0a\n        /* \"#utility.yul\":5092:5095   */\n      dup4\n        /* \"#utility.yul\":5033:5100   */\n      tag_147\n      jump\t// in\n    tag_222:\n        /* \"#utility.yul\":5026:5100   */\n      swap2\n      pop\n        /* \"#utility.yul\":5109:5202   */\n      tag_223\n        /* \"#utility.yul\":5198:5201   */\n      dup3\n        /* \"#utility.yul\":5109:5202   */\n      tag_148\n      jump\t// in\n    tag_223:\n        /* \"#utility.yul\":5227:5229   */\n      0x20\n        /* \"#utility.yul\":5222:5225   */\n      dup3\n        /* \"#utility.yul\":5218:5230   */\n      add\n        /* \"#utility.yul\":5211:5230   */\n      swap1\n      pop\n        /* \"#utility.yul\":4870:5236   */\n      swap2\n      swap1\n      pop\n      jump\t// out\n        /* \"#utility.yul\":5242:5661   */\n    tag_67:\n        /* \"#utility.yul\":5408:5412   */\n      0x00\n        /* \"#utility.yul\":5446:5448   */\n      0x20\n        /* \"#utility.yul\":5435:5444   */\n      dup3\n        /* \"#utility.yul\":5431:5449   */\n      add\n        /* \"#utility.yul\":5423:5449   */\n      swap1\n      pop\n        /* \"#utility.yul\":5495:5504   */\n      dup2\n        /* \"#utility.yul\":5489:5493   */\n      dup2\n        /* \"#utility.yul\":5485:5505   */\n      sub\n        /* \"#utility.yul\":5481:5482   */\n      0x00\n        /* \"#utility.yul\":5470:5479   */\n      dup4\n        /* \"#utility.yul\":5466:5483   */\n      add\n        /* \"#utility.yul\":5459:5506   */\n      mstore\n        /* \"#utility.yul\":5523:5654   */\n      tag_225\n        /* \"#utility.yul\":5649:5653   */\n      dup2\n        /* \"#utility.yul\":5523:5654   */\n      tag_149\n      jump\t// in\n    tag_225:\n        /* \"#utility.yul\":5515:5654   */\n      swap1\n      pop\n        /* \"#utility.yul\":5242:5661   */\n      swap2\n      swap1\n      pop\n      jump\t// out\n        /* \"#utility.yul\":5667:5847   */\n    tag_150:\n        /* \"#utility.yul\":5715:5792   */\n      0x4e487b7100000000000000000000000000000000000000000000000000000000\n        /* \"#utility.yul\":5712:5713   */\n      0x00\n        /* \"#utility.yul\":5705:5793   */\n      mstore\n        /* \"#utility.yul\":5812:5816   */\n      0x11\n        /* \"#utility.yul\":5809:5810   */\n      0x04\n        /* \"#utility.yul\":5802:5817   */\n      mstore\n        /* \"#utility.yul\":5836:5840   */\n      0x24\n        /* \"#utility.yul\":5833:5834   */\n      0x00\n        /* \"#utility.yul\":5826:5841   */\n      revert\n        /* \"#utility.yul\":5853:6044   */\n    tag_70:\n        /* \"#utility.yul\":5893:5896   */\n      0x00\n        /* \"#utility.yul\":5912:5932   */\n      tag_228\n        /* \"#utility.yul\":5930:5931   */\n      dup3\n        /* \"#utility.yul\":5912:5932   */\n      tag_134\n      jump\t// in\n    tag_228:\n        /* \"#utility.yul\":5907:5932   */\n      swap2\n      pop\n        /* \"#utility.yul\":5946:5966   */\n      tag_229\n        /* \"#utility.yul\":5964:5965   */\n      dup4\n        /* \"#utility.yul\":5946:5966   */\n      tag_134\n      jump\t// in\n    tag_229:\n        /* \"#utility.yul\":5941:5966   */\n      swap3\n      pop\n        /* \"#utility.yul\":5989:5990   */\n      dup3\n        /* \"#utility.yul\":5986:5987   */\n      dup3\n        /* \"#utility.yul\":5982:5991   */\n      add\n        /* \"#utility.yul\":5975:5991   */\n      swap1\n      pop\n        /* \"#utility.yul\":6010:6013   */\n      dup1\n        /* \"#utility.yul\":6007:6008   */\n      dup3\n        /* \"#utility.yul\":6004:6014   */\n      gt\n        /* \"#utility.yul\":6001:6037   */\n      iszero\n      tag_230\n      jumpi\n        /* \"#utility.yul\":6017:6035   */\n      tag_231\n      tag_150\n      jump\t// in\n    tag_231:\n        /* \"#utility.yul\":6001:6037   */\n    tag_230:\n        /* \"#utility.yul\":5853:6044   */\n      swap3\n      swap2\n      pop\n      pop\n      jump\t// out\n        /* \"#utility.yul\":6050:6225   */\n    tag_151:\n        /* \"#utility.yul\":6190:6217   */\n      0x4669786564207374616b696e67206e6f74206578706972656400000000000000\n        /* \"#utility.yul\":6186:6187   */\n      0x00\n        /* \"#utility.yul\":6178:6184   */\n      dup3\n        /* \"#utility.yul\":6174:6188   */\n      add\n        /* \"#utility.yul\":6167:6218   */\n      mstore\n        /* \"#utility.yul\":6050:6225   */\n      pop\n      jump\t// out\n        /* \"#utility.yul\":6231:6597   */\n    tag_152:\n        /* \"#utility.yul\":6373:6376   */\n      0x00\n        /* \"#utility.yul\":6394:6461   */\n      tag_234\n        /* \"#utility.yul\":6458:6460   */\n      0x19\n        /* \"#utility.yul\":6453:6456   */\n      dup4\n        /* \"#utility.yul\":6394:6461   */\n      tag_147\n      jump\t// in\n    tag_234:\n        /* \"#utility.yul\":6387:6461   */\n      swap2\n      pop\n        /* \"#utility.yul\":6470:6563   */\n      tag_235\n        /* \"#utility.yul\":6559:6562   */\n      dup3\n        /* \"#utility.yul\":6470:6563   */\n      tag_151\n      jump\t// in\n    tag_235:\n        /* \"#utility.yul\":6588:6590   */\n      0x20\n        /* \"#utility.yul\":6583:6586   */\n      dup3\n        /* \"#utility.yul\":6579:6591   */\n      add\n        /* \"#utility.yul\":6572:6591   */\n      swap1\n      pop\n        /* \"#utility.yul\":6231:6597   */\n      swap2\n      swap1\n      pop\n      jump\t// out\n        /* \"#utility.yul\":6603:7022   */\n    tag_73:\n        /* \"#utility.yul\":6769:6773   */\n      0x00\n        /* \"#utility.yul\":6807:6809   */\n      0x20\n        /* \"#utility.yul\":6796:6805   */\n      dup3\n        /* \"#utility.yul\":6792:6810   */\n      add\n        /* \"#utility.yul\":6784:6810   */\n      swap1\n      pop\n        /* \"#utility.yul\":6856:6865   */\n      dup2\n        /* \"#utility.yul\":6850:6854   */\n      dup2\n        /* \"#utility.yul\":6846:6866   */\n      sub\n        /* \"#utility.yul\":6842:6843   */\n      0x00\n        /* \"#utility.yul\":6831:6840   */\n      dup4\n        /* \"#utility.yul\":6827:6844   */\n      add\n        /* \"#utility.yul\":6820:6867   */\n      mstore\n        /* \"#utility.yul\":6884:7015   */\n      tag_237\n        /* \"#utility.yul\":7010:7014   */\n      dup2\n        /* \"#utility.yul\":6884:7015   */\n      tag_152\n      jump\t// in\n    tag_237:\n        /* \"#utility.yul\":6876:7015   */\n      swap1\n      pop\n        /* \"#utility.yul\":6603:7022   */\n      swap2\n      swap1\n      pop\n      jump\t// out\n        /* \"#utility.yul\":7028:7438   */\n    tag_75:\n        /* \"#utility.yul\":7068:7075   */\n      0x00\n        /* \"#utility.yul\":7091:7111   */\n      tag_239\n        /* \"#utility.yul\":7109:7110   */\n      dup3\n        /* \"#utility.yul\":7091:7111   */\n      tag_134\n      jump\t// in\n    tag_239:\n        /* \"#utility.yul\":7086:7111   */\n      swap2\n      pop\n        /* \"#utility.yul\":7125:7145   */\n      tag_240\n        /* \"#utility.yul\":7143:7144   */\n      dup4\n        /* \"#utility.yul\":7125:7145   */\n      tag_134\n      jump\t// in\n    tag_240:\n        /* \"#utility.yul\":7120:7145   */\n      swap3\n      pop\n        /* \"#utility.yul\":7180:7181   */\n      dup3\n        /* \"#utility.yul\":7177:7178   */\n      dup3\n        /* \"#utility.yul\":7173:7182   */\n      mul\n        /* \"#utility.yul\":7202:7232   */\n      tag_241\n        /* \"#utility.yul\":7220:7231   */\n      dup2\n        /* \"#utility.yul\":7202:7232   */\n      tag_134\n      jump\t// in\n    tag_241:\n        /* \"#utility.yul\":7191:7232   */\n      swap2\n      pop\n        /* \"#utility.yul\":7381:7382   */\n      dup3\n        /* \"#utility.yul\":7372:7379   */\n      dup3\n        /* \"#utility.yul\":7368:7383   */\n      div\n        /* \"#utility.yul\":7365:7366   */\n      dup5\n        /* \"#utility.yul\":7362:7384   */\n      eq\n        /* \"#utility.yul\":7342:7343   */\n      dup4\n        /* \"#utility.yul\":7335:7344   */\n      iszero\n        /* \"#utility.yul\":7315:7398   */\n      or\n        /* \"#utility.yul\":7292:7431   */\n      tag_242\n      jumpi\n        /* \"#utility.yul\":7411:7429   */\n      tag_243\n      tag_150\n      jump\t// in\n    tag_243:\n        /* \"#utility.yul\":7292:7431   */\n    tag_242:\n        /* \"#utility.yul\":7076:7438   */\n      pop\n        /* \"#utility.yul\":7028:7438   */\n      swap3\n      swap2\n      pop\n      pop\n      jump\t// out\n        /* \"#utility.yul\":7444:7624   */\n    tag_153:\n        /* \"#utility.yul\":7492:7569   */\n      0x4e487b7100000000000000000000000000000000000000000000000000000000\n        /* \"#utility.yul\":7489:7490   */\n      0x00\n        /* \"#utility.yul\":7482:7570   */\n      mstore\n        /* \"#utility.yul\":7589:7593   */\n      0x12\n        /* \"#utility.yul\":7586:7587   */\n      0x04\n        /* \"#utility.yul\":7579:7594   */\n      mstore\n        /* \"#utility.yul\":7613:7617   */\n      0x24\n        /* \"#utility.yul\":7610:7611   */\n      0x00\n        /* \"#utility.yul\":7603:7618   */\n      revert\n        /* \"#utility.yul\":7630:7815   */\n    tag_77:\n        /* \"#utility.yul\":7670:7671   */\n      0x00\n        /* \"#utility.yul\":7687:7707   */\n      tag_246\n        /* \"#utility.yul\":7705:7706   */\n      dup3\n        /* \"#utility.yul\":7687:7707   */\n      tag_134\n      jump\t// in\n    tag_246:\n        /* \"#utility.yul\":7682:7707   */\n      swap2\n      pop\n        /* \"#utility.yul\":7721:7741   */\n      tag_247\n        /* \"#utility.yul\":7739:7740   */\n      dup4\n        /* \"#utility.yul\":7721:7741   */\n      tag_134\n      jump\t// in\n    tag_247:\n        /* \"#utility.yul\":7716:7741   */\n      swap3\n      pop\n        /* \"#utility.yul\":7760:7761   */\n      dup3\n        /* \"#utility.yul\":7750:7785   */\n      tag_248\n      jumpi\n        /* \"#utility.yul\":7765:7783   */\n      tag_249\n      tag_153\n      jump\t// in\n    tag_249:\n        /* \"#utility.yul\":7750:7785   */\n    tag_248:\n        /* \"#utility.yul\":7807:7808   */\n      dup3\n        /* \"#utility.yul\":7804:7805   */\n      dup3\n        /* \"#utility.yul\":7800:7809   */\n      div\n        /* \"#utility.yul\":7795:7809   */\n      swap1\n      pop\n        /* \"#utility.yul\":7630:7815   */\n      swap3\n      swap2\n      pop\n      pop\n      jump\t// out\n        /* \"#utility.yul\":7821:8015   */\n    tag_79:\n        /* \"#utility.yul\":7861:7865   */\n      0x00\n        /* \"#utility.yul\":7881:7901   */\n      tag_251\n        /* \"#utility.yul\":7899:7900   */\n      dup3\n        /* \"#utility.yul\":7881:7901   */\n      tag_134\n      jump\t// in\n    tag_251:\n        /* \"#utility.yul\":7876:7901   */\n      swap2\n      pop\n        /* \"#utility.yul\":7915:7935   */\n      tag_252\n        /* \"#utility.yul\":7933:7934   */\n      dup4\n        /* \"#utility.yul\":7915:7935   */\n      tag_134\n      jump\t// in\n    tag_252:\n        /* \"#utility.yul\":7910:7935   */\n      swap3\n      pop\n        /* \"#utility.yul\":7959:7960   */\n      dup3\n        /* \"#utility.yul\":7956:7957   */\n      dup3\n        /* \"#utility.yul\":7952:7961   */\n      sub\n        /* \"#utility.yul\":7944:7961   */\n      swap1\n      pop\n        /* \"#utility.yul\":7983:7984   */\n      dup2\n        /* \"#utility.yul\":7977:7981   */\n      dup2\n        /* \"#utility.yul\":7974:7985   */\n      gt\n        /* \"#utility.yul\":7971:8008   */\n      iszero\n      tag_253\n      jumpi\n        /* \"#utility.yul\":7988:8006   */\n      tag_254\n      tag_150\n      jump\t// in\n    tag_254:\n        /* \"#utility.yul\":7971:8008   */\n    tag_253:\n        /* \"#utility.yul\":7821:8015   */\n      swap3\n      swap2\n      pop\n      pop\n      jump\t// out\n        /* \"#utility.yul\":8021:8139   */\n    tag_154:\n        /* \"#utility.yul\":8108:8132   */\n      tag_256\n        /* \"#utility.yul\":8126:8131   */\n      dup2\n        /* \"#utility.yul\":8108:8132   */\n      tag_131\n      jump\t// in\n    tag_256:\n        /* \"#utility.yul\":8103:8106   */\n      dup3\n        /* \"#utility.yul\":8096:8133   */\n      mstore\n        /* \"#utility.yul\":8021:8139   */\n      pop\n      pop\n      jump\t// out\n        /* \"#utility.yul\":8145:8477   */\n    tag_82:\n        /* \"#utility.yul\":8266:8270   */\n      0x00\n        /* \"#utility.yul\":8304:8306   */\n      0x40\n        /* \"#utility.yul\":8293:8302   */\n      dup3\n        /* \"#utility.yul\":8289:8307   */\n      add\n        /* \"#utility.yul\":8281:8307   */\n      swap1\n      pop\n        /* \"#utility.yul\":8317:8388   */\n      tag_258\n        /* \"#utility.yul\":8385:8386   */\n      0x00\n        /* \"#utility.yul\":8374:8383   */\n      dup4\n        /* \"#utility.yul\":8370:8387   */\n      add\n        /* \"#utility.yul\":8361:8367   */\n      dup6\n        /* \"#utility.yul\":8317:8388   */\n      tag_154\n      jump\t// in\n    tag_258:\n        /* \"#utility.yul\":8398:8470   */\n      tag_259\n        /* \"#utility.yul\":8466:8468   */\n      0x20\n        /* \"#utility.yul\":8455:8464   */\n      dup4\n        /* \"#utility.yul\":8451:8469   */\n      add\n        /* \"#utility.yul\":8442:8448   */\n      dup5\n        /* \"#utility.yul\":8398:8470   */\n      tag_135\n      jump\t// in\n    tag_259:\n        /* \"#utility.yul\":8145:8477   */\n      swap4\n      swap3\n      pop\n      pop\n      pop\n      jump\t// out\n        /* \"#utility.yul\":8483:8620   */\n    tag_155:\n        /* \"#utility.yul\":8537:8542   */\n      0x00\n        /* \"#utility.yul\":8568:8574   */\n      dup2\n        /* \"#utility.yul\":8562:8575   */\n      mload\n        /* \"#utility.yul\":8553:8575   */\n      swap1\n      pop\n        /* \"#utility.yul\":8584:8614   */\n      tag_261\n        /* \"#utility.yul\":8608:8613   */\n      dup2\n        /* \"#utility.yul\":8584:8614   */\n      tag_139\n      jump\t// in\n    tag_261:\n        /* \"#utility.yul\":8483:8620   */\n      swap3\n      swap2\n      pop\n      pop\n      jump\t// out\n        /* \"#utility.yul\":8626:8971   */\n    tag_86:\n        /* \"#utility.yul\":8693:8699   */\n      0x00\n        /* \"#utility.yul\":8742:8744   */\n      0x20\n        /* \"#utility.yul\":8730:8739   */\n      dup3\n        /* \"#utility.yul\":8721:8728   */\n      dup5\n        /* \"#utility.yul\":8717:8740   */\n      sub\n        /* \"#utility.yul\":8713:8745   */\n      slt\n        /* \"#utility.yul\":8710:8829   */\n      iszero\n      tag_263\n      jumpi\n        /* \"#utility.yul\":8748:8827   */\n      tag_264\n      tag_128\n      jump\t// in\n    tag_264:\n        /* \"#utility.yul\":8710:8829   */\n    tag_263:\n        /* \"#utility.yul\":8868:8869   */\n      0x00\n        /* \"#utility.yul\":8893:8954   */\n      tag_265\n        /* \"#utility.yul\":8946:8953   */\n      dup5\n        /* \"#utility.yul\":8937:8943   */\n      dup3\n        /* \"#utility.yul\":8926:8935   */\n      dup6\n        /* \"#utility.yul\":8922:8944   */\n      add\n        /* \"#utility.yul\":8893:8954   */\n      tag_155\n      jump\t// in\n    tag_265:\n        /* \"#utility.yul\":8883:8954   */\n      swap2\n      pop\n        /* \"#utility.yul\":8839:8964   */\n      pop\n        /* \"#utility.yul\":8626:8971   */\n      swap3\n      swap2\n      pop\n      pop\n      jump\t// out\n        /* \"#utility.yul\":8977:9297   */\n    tag_88:\n        /* \"#utility.yul\":9092:9096   */\n      0x00\n        /* \"#utility.yul\":9130:9132   */\n      0x40\n        /* \"#utility.yul\":9119:9128   */\n      dup3\n        /* \"#utility.yul\":9115:9133   */\n      add\n        /* \"#utility.yul\":9107:9133   */\n      swap1\n      pop\n        /* \"#utility.yul\":9143:9214   */\n      tag_267\n        /* \"#utility.yul\":9211:9212   */\n      0x00\n        /* \"#utility.yul\":9200:9209   */\n      dup4\n        /* \"#utility.yul\":9196:9213   */\n      add\n        /* \"#utility.yul\":9187:9193   */\n      dup6\n        /* \"#utility.yul\":9143:9214   */\n      tag_135\n      jump\t// in\n    tag_267:\n        /* \"#utility.yul\":9224:9290   */\n      tag_268\n        /* \"#utility.yul\":9286:9288   */\n      0x20\n        /* \"#utility.yul\":9275:9284   */\n      dup4\n        /* \"#utility.yul\":9271:9289   */\n      add\n        /* \"#utility.yul\":9262:9268   */\n      dup5\n        /* \"#utility.yul\":9224:9290   */\n      tag_141\n      jump\t// in\n    tag_268:\n        /* \"#utility.yul\":8977:9297   */\n      swap4\n      swap3\n      pop\n      pop\n      pop\n      jump\t// out\n        /* \"#utility.yul\":9303:9467   */\n    tag_156:\n        /* \"#utility.yul\":9443:9459   */\n      0x416c7265616479207374616b6564000000000000000000000000000000000000\n        /* \"#utility.yul\":9439:9440   */\n      0x00\n        /* \"#utility.yul\":9431:9437   */\n      dup3\n        /* \"#utility.yul\":9427:9441   */\n      add\n        /* \"#utility.yul\":9420:9460   */\n      mstore\n        /* \"#utility.yul\":9303:9467   */\n      pop\n      jump\t// out\n        /* \"#utility.yul\":9473:9839   */\n    tag_157:\n        /* \"#utility.yul\":9615:9618   */\n      0x00\n        /* \"#utility.yul\":9636:9703   */\n      tag_271\n        /* \"#utility.yul\":9700:9702   */\n      0x0e\n        /* \"#utility.yul\":9695:9698   */\n      dup4\n        /* \"#utility.yul\":9636:9703   */\n      tag_147\n      jump\t// in\n    tag_271:\n        /* \"#utility.yul\":9629:9703   */\n      swap2\n      pop\n        /* \"#utility.yul\":9712:9805   */\n      tag_272\n        /* \"#utility.yul\":9801:9804   */\n      dup3\n        /* \"#utility.yul\":9712:9805   */\n      tag_156\n      jump\t// in\n    tag_272:\n        /* \"#utility.yul\":9830:9832   */\n      0x20\n        /* \"#utility.yul\":9825:9828   */\n      dup3\n        /* \"#utility.yul\":9821:9833   */\n      add\n        /* \"#utility.yul\":9814:9833   */\n      swap1\n      pop\n        /* \"#utility.yul\":9473:9839   */\n      swap2\n      swap1\n      pop\n      jump\t// out\n        /* \"#utility.yul\":9845:10264   */\n    tag_92:\n        /* \"#utility.yul\":10011:10015   */\n      0x00\n        /* \"#utility.yul\":10049:10051   */\n      0x20\n        /* \"#utility.yul\":10038:10047   */\n      dup3\n        /* \"#utility.yul\":10034:10052   */\n      add\n        /* \"#utility.yul\":10026:10052   */\n      swap1\n      pop\n        /* \"#utility.yul\":10098:10107   */\n      dup2\n        /* \"#utility.yul\":10092:10096   */\n      dup2\n        /* \"#utility.yul\":10088:10108   */\n      sub\n        /* \"#utility.yul\":10084:10085   */\n      0x00\n        /* \"#utility.yul\":10073:10082   */\n      dup4\n        /* \"#utility.yul\":10069:10086   */\n      add\n        /* \"#utility.yul\":10062:10109   */\n      mstore\n        /* \"#utility.yul\":10126:10257   */\n      tag_274\n        /* \"#utility.yul\":10252:10256   */\n      dup2\n        /* \"#utility.yul\":10126:10257   */\n      tag_157\n      jump\t// in\n    tag_274:\n        /* \"#utility.yul\":10118:10257   */\n      swap1\n      pop\n        /* \"#utility.yul\":9845:10264   */\n      swap2\n      swap1\n      pop\n      jump\t// out\n        /* \"#utility.yul\":10270:10436   */\n    tag_158:\n        /* \"#utility.yul\":10410:10428   */\n      0x496e76616c6964206475726174696f6e00000000000000000000000000000000\n        /* \"#utility.yul\":10406:10407   */\n      0x00\n        /* \"#utility.yul\":10398:10404   */\n      dup3\n        /* \"#utility.yul\":10394:10408   */\n      add\n        /* \"#utility.yul\":10387:10429   */\n      mstore\n        /* \"#utility.yul\":10270:10436   */\n      pop\n      jump\t// out\n        /* \"#utility.yul\":10442:10808   */\n    tag_159:\n        /* \"#utility.yul\":10584:10587   */\n      0x00\n        /* \"#utility.yul\":10605:10672   */\n      tag_277\n        /* \"#utility.yul\":10669:10671   */\n      0x10\n        /* \"#utility.yul\":10664:10667   */\n      dup4\n        /* \"#utility.yul\":10605:10672   */\n      tag_147\n      jump\t// in\n    tag_277:\n        /* \"#utility.yul\":10598:10672   */\n      swap2\n      pop\n        /* \"#utility.yul\":10681:10774   */\n      tag_278\n        /* \"#utility.yul\":10770:10773   */\n      dup3\n        /* \"#utility.yul\":10681:10774   */\n      tag_158\n      jump\t// in\n    tag_278:\n        /* \"#utility.yul\":10799:10801   */\n      0x20\n        /* \"#utility.yul\":10794:10797   */\n      dup3\n        /* \"#utility.yul\":10790:10802   */\n      add\n        /* \"#utility.yul\":10783:10802   */\n      swap1\n      pop\n        /* \"#utility.yul\":10442:10808   */\n      swap2\n      swap1\n      pop\n      jump\t// out\n        /* \"#utility.yul\":10814:11233   */\n    tag_96:\n        /* \"#utility.yul\":10980:10984   */\n      0x00\n        /* \"#utility.yul\":11018:11020   */\n      0x20\n        /* \"#utility.yul\":11007:11016   */\n      dup3\n        /* \"#utility.yul\":11003:11021   */\n      add\n        /* \"#utility.yul\":10995:11021   */\n      swap1\n      pop\n        /* \"#utility.yul\":11067:11076   */\n      dup2\n        /* \"#utility.yul\":11061:11065   */\n      dup2\n        /* \"#utility.yul\":11057:11077   */\n      sub\n        /* \"#utility.yul\":11053:11054   */\n      0x00\n        /* \"#utility.yul\":11042:11051   */\n      dup4\n        /* \"#utility.yul\":11038:11055   */\n      add\n        /* \"#utility.yul\":11031:11078   */\n      mstore\n        /* \"#utility.yul\":11095:11226   */\n      tag_280\n        /* \"#utility.yul\":11221:11225   */\n      dup2\n        /* \"#utility.yul\":11095:11226   */\n      tag_159\n      jump\t// in\n    tag_280:\n        /* \"#utility.yul\":11087:11226   */\n      swap1\n      pop\n        /* \"#utility.yul\":10814:11233   */\n      swap2\n      swap1\n      pop\n      jump\t// out\n        /* \"#utility.yul\":11239:11681   */\n    tag_100:\n        /* \"#utility.yul\":11388:11392   */\n      0x00\n        /* \"#utility.yul\":11426:11428   */\n      0x60\n        /* \"#utility.yul\":11415:11424   */\n      dup3\n        /* \"#utility.yul\":11411:11429   */\n      add\n        /* \"#utility.yul\":11403:11429   */\n      swap1\n      pop\n        /* \"#utility.yul\":11439:11510   */\n      tag_282\n        /* \"#utility.yul\":11507:11508   */\n      0x00\n        /* \"#utility.yul\":11496:11505   */\n      dup4\n        /* \"#utility.yul\":11492:11509   */\n      add\n        /* \"#utility.yul\":11483:11489   */\n      dup7\n        /* \"#utility.yul\":11439:11510   */\n      tag_154\n      jump\t// in\n    tag_282:\n        /* \"#utility.yul\":11520:11592   */\n      tag_283\n        /* \"#utility.yul\":11588:11590   */\n      0x20\n        /* \"#utility.yul\":11577:11586   */\n      dup4\n        /* \"#utility.yul\":11573:11591   */\n      add\n        /* \"#utility.yul\":11564:11570   */\n      dup6\n        /* \"#utility.yul\":11520:11592   */\n      tag_154\n      jump\t// in\n    tag_283:\n        /* \"#utility.yul\":11602:11674   */\n      tag_284\n        /* \"#utility.yul\":11670:11672   */\n      0x40\n        /* \"#utility.yul\":11659:11668   */\n      dup4\n        /* \"#utility.yul\":11655:11673   */\n      add\n        /* \"#utility.yul\":11646:11652   */\n      dup5\n        /* \"#utility.yul\":11602:11674   */\n      tag_135\n      jump\t// in\n    tag_284:\n        /* \"#utility.yul\":11239:11681   */\n      swap5\n      swap4\n      pop\n      pop\n      pop\n      pop\n      jump\t// out\n\n    auxdata: 0xa2646970667358221220368c3d45e435420a314efa44e730645ad5f36e7503c1e44ee3669b51abebd22b64736f6c63430008140033\n}\n",
				"bytecode": {
					"linkReferences": {},
					"object": "608060405234801562000010575f80fd5b506040516200166e3803806200166e833981810160405281019062000036919062000132565b8360055f6101000a81548173ffffffffffffffffffffffffffffffffffffffff021916908373ffffffffffffffffffffffffffffffffffffffff16021790555082600681905550816007819055508060088190555050505050620001a1565b5f80fd5b5f73ffffffffffffffffffffffffffffffffffffffff82169050919050565b5f620000c48262000099565b9050919050565b620000d681620000b8565b8114620000e1575f80fd5b50565b5f81519050620000f481620000cb565b92915050565b5f819050919050565b6200010e81620000fa565b811462000119575f80fd5b50565b5f815190506200012c8162000103565b92915050565b5f805f80608085870312156200014d576200014c62000095565b5b5f6200015c87828801620000e4565b94505060206200016f878288016200011c565b935050604062000182878288016200011c565b925050606062000195878288016200011c565b91505092959194509250565b6114bf80620001af5f395ff3fe608060405234801561000f575f80fd5b50600436106100cd575f3560e01c8063892983c21161008a578063bd83434511610064578063bd834345146101eb578063dc6e13e11461021b578063fc0c546a1461024f578063ffe0cbc61461026d576100cd565b8063892983c214610193578063949813b8146101b1578063b88a802f146101e1576100cd565b80630700037d146100d1578063149c4de21461010157806315908d511461011f57806327e235e31461013d5780632def66201461016d578063447da8a614610177575b5f80fd5b6100eb60048036038101906100e69190610ef8565b610277565b6040516100f89190610f3b565b60405180910390f35b61010961028c565b6040516101169190610f3b565b60405180910390f35b610127610292565b6040516101349190610f3b565b60405180910390f35b61015760048036038101906101529190610ef8565b610298565b6040516101649190610f3b565b60405180910390f35b6101756102ad565b005b610191600480360381019061018c9190610fb3565b61062e565b005b61019b6109dd565b6040516101a89190610f3b565b60405180910390f35b6101cb60048036038101906101c69190610ef8565b6109e3565b6040516101d89190610f3b565b60405180910390f35b6101e96109f8565b005b61020560048036038101906102009190610ef8565b610c6a565b6040516102129190610f3b565b60405180910390f35b61023560048036038101906102309190610ef8565b610c7f565b604051610246959493929190611012565b60405180910390f35b610257610cc9565b60405161026491906110be565b60405180910390f35b610275610cee565b005b6001602052805f5260405f205f915090505481565b60085481565b60065481565b6002602052805f5260405f205f915090505481565b5f803373ffffffffffffffffffffffffffffffffffffffff1673ffffffffffffffffffffffffffffffffffffffff1681526020019081526020015f2060030160019054906101000a900460ff16610339576040517f08c379a000000000000000000000000000000000000000000000000000000000815260040161033090611131565b60405180910390fd5b5f805f3373ffffffffffffffffffffffffffffffffffffffff1673ffffffffffffffffffffffffffffffffffffffff1681526020019081526020015f206040518060a00160405290815f82015481526020016001820154815260200160028201548152602001600382015f9054906101000a900460ff161515151581526020016003820160019054906101000a900460ff16151515158152505090505f815f0151905081606001511561046c57816040015182602001516103fa919061117c565b42101561043c576040517f08c379a0000000000000000000000000000000000000000000000000000000008152600401610433906111f9565b60405180910390fd5b5f6064600654845f01516104509190611217565b61045a9190611285565b9050808261046891906112b5565b9150505b5f803373ffffffffffffffffffffffffffffffffffffffff1673ffffffffffffffffffffffffffffffffffffffff1681526020019081526020015f205f8082015f9055600182015f9055600282015f9055600382015f6101000a81549060ff02191690556003820160016101000a81549060ff021916905550508060025f3373ffffffffffffffffffffffffffffffffffffffff1673ffffffffffffffffffffffffffffffffffffffff1681526020019081526020015f205f82825461053291906112b5565b9250508190555060055f9054906101000a900473ffffffffffffffffffffffffffffffffffffffff1673ffffffffffffffffffffffffffffffffffffffff1663a9059cbb33836040518363ffffffff1660e01b81526004016105959291906112f7565b6020604051808303815f875af11580156105b1573d5f803e3d5ffd5b505050506040513d601f19601f820116820180604052508101906105d59190611332565b503373ffffffffffffffffffffffffffffffffffffffff167f4416ca74b4c9dd8d6070d91c267a6cf53734c0f343ced0ad02471ccb5417037e82846060015160405161062292919061135d565b60405180910390a25050565b5f803373ffffffffffffffffffffffffffffffffffffffff1673ffffffffffffffffffffffffffffffffffffffff1681526020019081526020015f2060030160019054906101000a900460ff16156106bb576040517f08c379a00000000000000000000000000000000000000000000000000000000081526004016106b2906113ce565b60405180910390fd5b81156107cf575f8111610703576040517f08c379a00000000000000000000000000000000000000000000000000000000081526004016106fa90611436565b60405180910390fd5b6040518060a00160405280848152602001428152602001828152602001600115158152602001600115158152505f803373ffffffffffffffffffffffffffffffffffffffff1673ffffffffffffffffffffffffffffffffffffffff1681526020019081526020015f205f820151815f015560208201518160010155604082015181600201556060820151816003015f6101000a81548160ff02191690831515021790555060808201518160030160016101000a81548160ff021916908315150217905550905050610896565b6040518060a001604052808481526020015f81526020015f81526020015f15158152602001600115158152505f803373ffffffffffffffffffffffffffffffffffffffff1673ffffffffffffffffffffffffffffffffffffffff1681526020019081526020015f205f820151815f015560208201518160010155604082015181600201556060820151816003015f6101000a81548160ff02191690831515021790555060808201518160030160016101000a81548160ff0219169083151502179055509050505b8260025f3373ffffffffffffffffffffffffffffffffffffffff1673ffffffffffffffffffffffffffffffffffffffff1681526020019081526020015f205f8282546108e2919061117c565b9250508190555060055f9054906101000a900473ffffffffffffffffffffffffffffffffffffffff1673ffffffffffffffffffffffffffffffffffffffff166323b872dd3330866040518463ffffffff1660e01b815260040161094793929190611454565b6020604051808303815f875af1158015610963573d5f803e3d5ffd5b505050506040513d601f19601f820116820180604052508101906109879190611332565b503373ffffffffffffffffffffffffffffffffffffffff167f37d4053e34fde482e96f6bcd424dfa31342cbd5fe184d497fb3c8bb4b4b9758084846040516109d092919061135d565b60405180910390a2505050565b60075481565b6004602052805f5260405f205f915090505481565b5f803373ffffffffffffffffffffffffffffffffffffffff1673ffffffffffffffffffffffffffffffffffffffff1681526020019081526020015f2060030160019054906101000a900460ff16610a84576040517f08c379a0000000000000000000000000000000000000000000000000000000008152600401610a7b90611131565b60405180910390fd5b5f805f803373ffffffffffffffffffffffffffffffffffffffff1673ffffffffffffffffffffffffffffffffffffffff1681526020019081526020015f206040518060a00160405290815f82015481526020016001820154815260200160028201548152602001600382015f9054906101000a900460ff161515151581526020016003820160019054906101000a900460ff1615151515815250509050806060015115610b4b57610b44815f015182602001518360400151600754610e64565b9150610b72565b610b6f815f01518260200151836020015142610b6791906112b5565b600854610e64565b91505b8160015f3373ffffffffffffffffffffffffffffffffffffffff1673ffffffffffffffffffffffffffffffffffffffff1681526020019081526020015f205f828254610bbe919061117c565b925050819055508160045f3373ffffffffffffffffffffffffffffffffffffffff1673ffffffffffffffffffffffffffffffffffffffff1681526020019081526020015f205f828254610c11919061117c565b925050819055503373ffffffffffffffffffffffffffffffffffffffff167f106f923f993c2149d49b4255ff723acafa1f2d94393f561d3eda32ae348f724183604051610c5e9190610f3b565b60405180910390a25050565b6003602052805f5260405f205f915090505481565b5f602052805f5260405f205f91509050805f015490806001015490806002015490806003015f9054906101000a900460ff16908060030160019054906101000a900460ff16905085565b60055f9054906101000a900473ffffffffffffffffffffffffffffffffffffffff1681565b5f60045f3373ffffffffffffffffffffffffffffffffffffffff1673ffffffffffffffffffffffffffffffffffffffff1681526020019081526020015f205490505f60045f3373ffffffffffffffffffffffffffffffffffffffff1673ffffffffffffffffffffffffffffffffffffffff1681526020019081526020015f20819055508060035f3373ffffffffffffffffffffffffffffffffffffffff1673ffffffffffffffffffffffffffffffffffffffff1681526020019081526020015f205f828254610dbd919061117c565b9250508190555060055f9054906101000a900473ffffffffffffffffffffffffffffffffffffffff1673ffffffffffffffffffffffffffffffffffffffff1663a9059cbb33836040518363ffffffff1660e01b8152600401610e209291906112f7565b6020604051808303815f875af1158015610e3c573d5f803e3d5ffd5b505050506040513d601f19601f82011682018060405250810190610e609190611332565b5050565b5f8063bbf81e00848488610e789190611217565b610e829190611217565b610e8c9190611285565b905080915050949350505050565b5f80fd5b5f73ffffffffffffffffffffffffffffffffffffffff82169050919050565b5f610ec782610e9e565b9050919050565b610ed781610ebd565b8114610ee1575f80fd5b50565b5f81359050610ef281610ece565b92915050565b5f60208284031215610f0d57610f0c610e9a565b5b5f610f1a84828501610ee4565b91505092915050565b5f819050919050565b610f3581610f23565b82525050565b5f602082019050610f4e5f830184610f2c565b92915050565b610f5d81610f23565b8114610f67575f80fd5b50565b5f81359050610f7881610f54565b92915050565b5f8115159050919050565b610f9281610f7e565b8114610f9c575f80fd5b50565b5f81359050610fad81610f89565b92915050565b5f805f60608486031215610fca57610fc9610e9a565b5b5f610fd786828701610f6a565b9350506020610fe886828701610f9f565b9250506040610ff986828701610f6a565b9150509250925092565b61100c81610f7e565b82525050565b5f60a0820190506110255f830188610f2c565b6110326020830187610f2c565b61103f6040830186610f2c565b61104c6060830185611003565b6110596080830184611003565b9695505050505050565b5f819050919050565b5f61108661108161107c84610e9e565b611063565b610e9e565b9050919050565b5f6110978261106c565b9050919050565b5f6110a88261108d565b9050919050565b6110b88161109e565b82525050565b5f6020820190506110d15f8301846110af565b92915050565b5f82825260208201905092915050565b7f4e6f74207374616b6564000000000000000000000000000000000000000000005f82015250565b5f61111b600a836110d7565b9150611126826110e7565b602082019050919050565b5f6020820190508181035f8301526111488161110f565b9050919050565b7f4e487b71000000000000000000000000000000000000000000000000000000005f52601160045260245ffd5b5f61118682610f23565b915061119183610f23565b92508282019050808211156111a9576111a861114f565b5b92915050565b7f4669786564207374616b696e67206e6f742065787069726564000000000000005f82015250565b5f6111e36019836110d7565b91506111ee826111af565b602082019050919050565b5f6020820190508181035f830152611210816111d7565b9050919050565b5f61122182610f23565b915061122c83610f23565b925082820261123a81610f23565b915082820484148315176112515761125061114f565b5b5092915050565b7f4e487b71000000000000000000000000000000000000000000000000000000005f52601260045260245ffd5b5f61128f82610f23565b915061129a83610f23565b9250826112aa576112a9611258565b5b828204905092915050565b5f6112bf82610f23565b91506112ca83610f23565b92508282039050818111156112e2576112e161114f565b5b92915050565b6112f181610ebd565b82525050565b5f60408201905061130a5f8301856112e8565b6113176020830184610f2c565b9392505050565b5f8151905061132c81610f89565b92915050565b5f6020828403121561134757611346610e9a565b5b5f6113548482850161131e565b91505092915050565b5f6040820190506113705f830185610f2c565b61137d6020830184611003565b9392505050565b7f416c7265616479207374616b65640000000000000000000000000000000000005f82015250565b5f6113b8600e836110d7565b91506113c382611384565b602082019050919050565b5f6020820190508181035f8301526113e5816113ac565b9050919050565b7f496e76616c6964206475726174696f6e000000000000000000000000000000005f82015250565b5f6114206010836110d7565b915061142b826113ec565b602082019050919050565b5f6020820190508181035f83015261144d81611414565b9050919050565b5f6060820190506114675f8301866112e8565b61147460208301856112e8565b6114816040830184610f2c565b94935050505056fea2646970667358221220368c3d45e435420a314efa44e730645ad5f36e7503c1e44ee3669b51abebd22b64736f6c63430008140033",
					"opcodes": "PUSH1 0x80 PUSH1 0x40 MSTORE CALLVALUE DUP1 ISZERO PUSH3 0x10 JUMPI PUSH0 DUP1 REVERT JUMPDEST POP PUSH1 0x40 MLOAD PUSH3 0x166E CODESIZE SUB DUP1 PUSH3 0x166E DUP4 CODECOPY DUP2 DUP2 ADD PUSH1 0x40 MSTORE DUP2 ADD SWAP1 PUSH3 0x36 SWAP2 SWAP1 PUSH3 0x132 JUMP JUMPDEST DUP4 PUSH1 0x5 PUSH0 PUSH2 0x100 EXP DUP2 SLOAD DUP2 PUSH20 0xFFFFFFFFFFFFFFFFFFFFFFFFFFFFFFFFFFFFFFFF MUL NOT AND SWAP1 DUP4 PUSH20 0xFFFFFFFFFFFFFFFFFFFFFFFFFFFFFFFFFFFFFFFF AND MUL OR SWAP1 SSTORE POP DUP3 PUSH1 0x6 DUP2 SWAP1 SSTORE POP DUP2 PUSH1 0x7 DUP2 SWAP1 SSTORE POP DUP1 PUSH1 0x8 DUP2 SWAP1 SSTORE POP POP POP POP POP PUSH3 0x1A1 JUMP JUMPDEST PUSH0 DUP1 REVERT JUMPDEST PUSH0 PUSH20 0xFFFFFFFFFFFFFFFFFFFFFFFFFFFFFFFFFFFFFFFF DUP3 AND SWAP1 POP SWAP2 SWAP1 POP JUMP JUMPDEST PUSH0 PUSH3 0xC4 DUP3 PUSH3 0x99 JUMP JUMPDEST SWAP1 POP SWAP2 SWAP1 POP JUMP JUMPDEST PUSH3 0xD6 DUP2 PUSH3 0xB8 JUMP JUMPDEST DUP2 EQ PUSH3 0xE1 JUMPI PUSH0 DUP1 REVERT JUMPDEST POP JUMP JUMPDEST PUSH0 DUP2 MLOAD SWAP1 POP PUSH3 0xF4 DUP2 PUSH3 0xCB JUMP JUMPDEST SWAP3 SWAP2 POP POP JUMP JUMPDEST PUSH0 DUP2 SWAP1 POP SWAP2 SWAP1 POP JUMP JUMPDEST PUSH3 0x10E DUP2 PUSH3 0xFA JUMP JUMPDEST DUP2 EQ PUSH3 0x119 JUMPI PUSH0 DUP1 REVERT JUMPDEST POP JUMP JUMPDEST PUSH0 DUP2 MLOAD SWAP1 POP PUSH3 0x12C DUP2 PUSH3 0x103 JUMP JUMPDEST SWAP3 SWAP2 POP POP JUMP JUMPDEST PUSH0 DUP1 PUSH0 DUP1 PUSH1 0x80 DUP6 DUP8 SUB SLT ISZERO PUSH3 0x14D JUMPI PUSH3 0x14C PUSH3 0x95 JUMP JUMPDEST JUMPDEST PUSH0 PUSH3 0x15C DUP8 DUP3 DUP9 ADD PUSH3 0xE4 JUMP JUMPDEST SWAP5 POP POP PUSH1 0x20 PUSH3 0x16F DUP8 DUP3 DUP9 ADD PUSH3 0x11C JUMP JUMPDEST SWAP4 POP POP PUSH1 0x40 PUSH3 0x182 DUP8 DUP3 DUP9 ADD PUSH3 0x11C JUMP JUMPDEST SWAP3 POP POP PUSH1 0x60 PUSH3 0x195 DUP8 DUP3 DUP9 ADD PUSH3 0x11C JUMP JUMPDEST SWAP2 POP POP SWAP3 SWAP6 SWAP2 SWAP5 POP SWAP3 POP JUMP JUMPDEST PUSH2 0x14BF DUP1 PUSH3 0x1AF PUSH0 CODECOPY PUSH0 RETURN INVALID PUSH1 0x80 PUSH1 0x40 MSTORE CALLVALUE DUP1 ISZERO PUSH2 0xF JUMPI PUSH0 DUP1 REVERT JUMPDEST POP PUSH1 0x4 CALLDATASIZE LT PUSH2 0xCD JUMPI PUSH0 CALLDATALOAD PUSH1 0xE0 SHR DUP1 PUSH4 0x892983C2 GT PUSH2 0x8A JUMPI DUP1 PUSH4 0xBD834345 GT PUSH2 0x64 JUMPI DUP1 PUSH4 0xBD834345 EQ PUSH2 0x1EB JUMPI DUP1 PUSH4 0xDC6E13E1 EQ PUSH2 0x21B JUMPI DUP1 PUSH4 0xFC0C546A EQ PUSH2 0x24F JUMPI DUP1 PUSH4 0xFFE0CBC6 EQ PUSH2 0x26D JUMPI PUSH2 0xCD JUMP JUMPDEST DUP1 PUSH4 0x892983C2 EQ PUSH2 0x193 JUMPI DUP1 PUSH4 0x949813B8 EQ PUSH2 0x1B1 JUMPI DUP1 PUSH4 0xB88A802F EQ PUSH2 0x1E1 JUMPI PUSH2 0xCD JUMP JUMPDEST DUP1 PUSH4 0x700037D EQ PUSH2 0xD1 JUMPI DUP1 PUSH4 0x149C4DE2 EQ PUSH2 0x101 JUMPI DUP1 PUSH4 0x15908D51 EQ PUSH2 0x11F JUMPI DUP1 PUSH4 0x27E235E3 EQ PUSH2 0x13D JUMPI DUP1 PUSH4 0x2DEF6620 EQ PUSH2 0x16D JUMPI DUP1 PUSH4 0x447DA8A6 EQ PUSH2 0x177 JUMPI JUMPDEST PUSH0 DUP1 REVERT JUMPDEST PUSH2 0xEB PUSH1 0x4 DUP1 CALLDATASIZE SUB DUP2 ADD SWAP1 PUSH2 0xE6 SWAP2 SWAP1 PUSH2 0xEF8 JUMP JUMPDEST PUSH2 0x277 JUMP JUMPDEST PUSH1 0x40 MLOAD PUSH2 0xF8 SWAP2 SWAP1 PUSH2 0xF3B JUMP JUMPDEST PUSH1 0x40 MLOAD DUP1 SWAP2 SUB SWAP1 RETURN JUMPDEST PUSH2 0x109 PUSH2 0x28C JUMP JUMPDEST PUSH1 0x40 MLOAD PUSH2 0x116 SWAP2 SWAP1 PUSH2 0xF3B JUMP JUMPDEST PUSH1 0x40 MLOAD DUP1 SWAP2 SUB SWAP1 RETURN JUMPDEST PUSH2 0x127 PUSH2 0x292 JUMP JUMPDEST PUSH1 0x40 MLOAD PUSH2 0x134 SWAP2 SWAP1 PUSH2 0xF3B JUMP JUMPDEST PUSH1 0x40 MLOAD DUP1 SWAP2 SUB SWAP1 RETURN JUMPDEST PUSH2 0x157 PUSH1 0x4 DUP1 CALLDATASIZE SUB DUP2 ADD SWAP1 PUSH2 0x152 SWAP2 SWAP1 PUSH2 0xEF8 JUMP JUMPDEST PUSH2 0x298 JUMP JUMPDEST PUSH1 0x40 MLOAD PUSH2 0x164 SWAP2 SWAP1 PUSH2 0xF3B JUMP JUMPDEST PUSH1 0x40 MLOAD DUP1 SWAP2 SUB SWAP1 RETURN JUMPDEST PUSH2 0x175 PUSH2 0x2AD JUMP JUMPDEST STOP JUMPDEST PUSH2 0x191 PUSH1 0x4 DUP1 CALLDATASIZE SUB DUP2 ADD SWAP1 PUSH2 0x18C SWAP2 SWAP1 PUSH2 0xFB3 JUMP JUMPDEST PUSH2 0x62E JUMP JUMPDEST STOP JUMPDEST PUSH2 0x19B PUSH2 0x9DD JUMP JUMPDEST PUSH1 0x40 MLOAD PUSH2 0x1A8 SWAP2 SWAP1 PUSH2 0xF3B JUMP JUMPDEST PUSH1 0x40 MLOAD DUP1 SWAP2 SUB SWAP1 RETURN JUMPDEST PUSH2 0x1CB PUSH1 0x4 DUP1 CALLDATASIZE SUB DUP2 ADD SWAP1 PUSH2 0x1C6 SWAP2 SWAP1 PUSH2 0xEF8 JUMP JUMPDEST PUSH2 0x9E3 JUMP JUMPDEST PUSH1 0x40 MLOAD PUSH2 0x1D8 SWAP2 SWAP1 PUSH2 0xF3B JUMP JUMPDEST PUSH1 0x40 MLOAD DUP1 SWAP2 SUB SWAP1 RETURN JUMPDEST PUSH2 0x1E9 PUSH2 0x9F8 JUMP JUMPDEST STOP JUMPDEST PUSH2 0x205 PUSH1 0x4 DUP1 CALLDATASIZE SUB DUP2 ADD SWAP1 PUSH2 0x200 SWAP2 SWAP1 PUSH2 0xEF8 JUMP JUMPDEST PUSH2 0xC6A JUMP JUMPDEST PUSH1 0x40 MLOAD PUSH2 0x212 SWAP2 SWAP1 PUSH2 0xF3B JUMP JUMPDEST PUSH1 0x40 MLOAD DUP1 SWAP2 SUB SWAP1 RETURN JUMPDEST PUSH2 0x235 PUSH1 0x4 DUP1 CALLDATASIZE SUB DUP2 ADD SWAP1 PUSH2 0x230 SWAP2 SWAP1 PUSH2 0xEF8 JUMP JUMPDEST PUSH2 0xC7F JUMP JUMPDEST PUSH1 0x40 MLOAD PUSH2 0x246 SWAP6 SWAP5 SWAP4 SWAP3 SWAP2 SWAP1 PUSH2 0x1012 JUMP JUMPDEST PUSH1 0x40 MLOAD DUP1 SWAP2 SUB SWAP1 RETURN JUMPDEST PUSH2 0x257 PUSH2 0xCC9 JUMP JUMPDEST PUSH1 0x40 MLOAD PUSH2 0x264 SWAP2 SWAP1 PUSH2 0x10BE JUMP JUMPDEST PUSH1 0x40 MLOAD DUP1 SWAP2 SUB SWAP1 RETURN JUMPDEST PUSH2 0x275 PUSH2 0xCEE JUMP JUMPDEST STOP JUMPDEST PUSH1 0x1 PUSH1 0x20 MSTORE DUP1 PUSH0 MSTORE PUSH1 0x40 PUSH0 KECCAK256 PUSH0 SWAP2 POP SWAP1 POP SLOAD DUP2 JUMP JUMPDEST PUSH1 0x8 SLOAD DUP2 JUMP JUMPDEST PUSH1 0x6 SLOAD DUP2 JUMP JUMPDEST PUSH1 0x2 PUSH1 0x20 MSTORE DUP1 PUSH0 MSTORE PUSH1 0x40 PUSH0 KECCAK256 PUSH0 SWAP2 POP SWAP1 POP SLOAD DUP2 JUMP JUMPDEST PUSH0 DUP1 CALLER PUSH20 0xFFFFFFFFFFFFFFFFFFFFFFFFFFFFFFFFFFFFFFFF AND PUSH20 0xFFFFFFFFFFFFFFFFFFFFFFFFFFFFFFFFFFFFFFFF AND DUP2 MSTORE PUSH1 0x20 ADD SWAP1 DUP2 MSTORE PUSH1 0x20 ADD PUSH0 KECCAK256 PUSH1 0x3 ADD PUSH1 0x1 SWAP1 SLOAD SWAP1 PUSH2 0x100 EXP SWAP1 DIV PUSH1 0xFF AND PUSH2 0x339 JUMPI PUSH1 0x40 MLOAD PUSH32 0x8C379A000000000000000000000000000000000000000000000000000000000 DUP2 MSTORE PUSH1 0x4 ADD PUSH2 0x330 SWAP1 PUSH2 0x1131 JUMP JUMPDEST PUSH1 0x40 MLOAD DUP1 SWAP2 SUB SWAP1 REVERT JUMPDEST PUSH0 DUP1 PUSH0 CALLER PUSH20 0xFFFFFFFFFFFFFFFFFFFFFFFFFFFFFFFFFFFFFFFF AND PUSH20 0xFFFFFFFFFFFFFFFFFFFFFFFFFFFFFFFFFFFFFFFF AND DUP2 MSTORE PUSH1 0x20 ADD SWAP1 DUP2 MSTORE PUSH1 0x20 ADD PUSH0 KECCAK256 PUSH1 0x40 MLOAD DUP1 PUSH1 0xA0 ADD PUSH1 0x40 MSTORE SWAP1 DUP2 PUSH0 DUP3 ADD SLOAD DUP2 MSTORE PUSH1 0x20 ADD PUSH1 0x1 DUP3 ADD SLOAD DUP2 MSTORE PUSH1 0x20 ADD PUSH1 0x2 DUP3 ADD SLOAD DUP2 MSTORE PUSH1 0x20 ADD PUSH1 0x3 DUP3 ADD PUSH0 SWAP1 SLOAD SWAP1 PUSH2 0x100 EXP SWAP1 DIV PUSH1 0xFF AND ISZERO ISZERO ISZERO ISZERO DUP2 MSTORE PUSH1 0x20 ADD PUSH1 0x3 DUP3 ADD PUSH1 0x1 SWAP1 SLOAD SWAP1 PUSH2 0x100 EXP SWAP1 DIV PUSH1 0xFF AND ISZERO ISZERO ISZERO ISZERO DUP2 MSTORE POP POP SWAP1 POP PUSH0 DUP2 PUSH0 ADD MLOAD SWAP1 POP DUP2 PUSH1 0x60 ADD MLOAD ISZERO PUSH2 0x46C JUMPI DUP2 PUSH1 0x40 ADD MLOAD DUP3 PUSH1 0x20 ADD MLOAD PUSH2 0x3FA SWAP2 SWAP1 PUSH2 0x117C JUMP JUMPDEST TIMESTAMP LT ISZERO PUSH2 0x43C JUMPI PUSH1 0x40 MLOAD PUSH32 0x8C379A000000000000000000000000000000000000000000000000000000000 DUP2 MSTORE PUSH1 0x4 ADD PUSH2 0x433 SWAP1 PUSH2 0x11F9 JUMP JUMPDEST PUSH1 0x40 MLOAD DUP1 SWAP2 SUB SWAP1 REVERT JUMPDEST PUSH0 PUSH1 0x64 PUSH1 0x6 SLOAD DUP5 PUSH0 ADD MLOAD PUSH2 0x450 SWAP2 SWAP1 PUSH2 0x1217 JUMP JUMPDEST PUSH2 0x45A SWAP2 SWAP1 PUSH2 0x1285 JUMP JUMPDEST SWAP1 POP DUP1 DUP3 PUSH2 0x468 SWAP2 SWAP1 PUSH2 0x12B5 JUMP JUMPDEST SWAP2 POP POP JUMPDEST PUSH0 DUP1 CALLER PUSH20 0xFFFFFFFFFFFFFFFFFFFFFFFFFFFFFFFFFFFFFFFF AND PUSH20 0xFFFFFFFFFFFFFFFFFFFFFFFFFFFFFFFFFFFFFFFF AND DUP2 MSTORE PUSH1 0x20 ADD SWAP1 DUP2 MSTORE PUSH1 0x20 ADD PUSH0 KECCAK256 PUSH0 DUP1 DUP3 ADD PUSH0 SWAP1 SSTORE PUSH1 0x1 DUP3 ADD PUSH0 SWAP1 SSTORE PUSH1 0x2 DUP3 ADD PUSH0 SWAP1 SSTORE PUSH1 0x3 DUP3 ADD PUSH0 PUSH2 0x100 EXP DUP2 SLOAD SWAP1 PUSH1 0xFF MUL NOT AND SWAP1 SSTORE PUSH1 0x3 DUP3 ADD PUSH1 0x1 PUSH2 0x100 EXP DUP2 SLOAD SWAP1 PUSH1 0xFF MUL NOT AND SWAP1 SSTORE POP POP DUP1 PUSH1 0x2 PUSH0 CALLER PUSH20 0xFFFFFFFFFFFFFFFFFFFFFFFFFFFFFFFFFFFFFFFF AND PUSH20 0xFFFFFFFFFFFFFFFFFFFFFFFFFFFFFFFFFFFFFFFF AND DUP2 MSTORE PUSH1 0x20 ADD SWAP1 DUP2 MSTORE PUSH1 0x20 ADD PUSH0 KECCAK256 PUSH0 DUP3 DUP3 SLOAD PUSH2 0x532 SWAP2 SWAP1 PUSH2 0x12B5 JUMP JUMPDEST SWAP3 POP POP DUP2 SWAP1 SSTORE POP PUSH1 0x5 PUSH0 SWAP1 SLOAD SWAP1 PUSH2 0x100 EXP SWAP1 DIV PUSH20 0xFFFFFFFFFFFFFFFFFFFFFFFFFFFFFFFFFFFFFFFF AND PUSH20 0xFFFFFFFFFFFFFFFFFFFFFFFFFFFFFFFFFFFFFFFF AND PUSH4 0xA9059CBB CALLER DUP4 PUSH1 0x40 MLOAD DUP4 PUSH4 0xFFFFFFFF AND PUSH1 0xE0 SHL DUP2 MSTORE PUSH1 0x4 ADD PUSH2 0x595 SWAP3 SWAP2 SWAP1 PUSH2 0x12F7 JUMP JUMPDEST PUSH1 0x20 PUSH1 0x40 MLOAD DUP1 DUP4 SUB DUP2 PUSH0 DUP8 GAS CALL ISZERO DUP1 ISZERO PUSH2 0x5B1 JUMPI RETURNDATASIZE PUSH0 DUP1 RETURNDATACOPY RETURNDATASIZE PUSH0 REVERT JUMPDEST POP POP POP POP PUSH1 0x40 MLOAD RETURNDATASIZE PUSH1 0x1F NOT PUSH1 0x1F DUP3 ADD AND DUP3 ADD DUP1 PUSH1 0x40 MSTORE POP DUP2 ADD SWAP1 PUSH2 0x5D5 SWAP2 SWAP1 PUSH2 0x1332 JUMP JUMPDEST POP CALLER PUSH20 0xFFFFFFFFFFFFFFFFFFFFFFFFFFFFFFFFFFFFFFFF AND PUSH32 0x4416CA74B4C9DD8D6070D91C267A6CF53734C0F343CED0AD02471CCB5417037E DUP3 DUP5 PUSH1 0x60 ADD MLOAD PUSH1 0x40 MLOAD PUSH2 0x622 SWAP3 SWAP2 SWAP1 PUSH2 0x135D JUMP JUMPDEST PUSH1 0x40 MLOAD DUP1 SWAP2 SUB SWAP1 LOG2 POP POP JUMP JUMPDEST PUSH0 DUP1 CALLER PUSH20 0xFFFFFFFFFFFFFFFFFFFFFFFFFFFFFFFFFFFFFFFF AND PUSH20 0xFFFFFFFFFFFFFFFFFFFFFFFFFFFFFFFFFFFFFFFF AND DUP2 MSTORE PUSH1 0x20 ADD SWAP1 DUP2 MSTORE PUSH1 0x20 ADD PUSH0 KECCAK256 PUSH1 0x3 ADD PUSH1 0x1 SWAP1 SLOAD SWAP1 PUSH2 0x100 EXP SWAP1 DIV PUSH1 0xFF AND ISZERO PUSH2 0x6BB JUMPI PUSH1 0x40 MLOAD PUSH32 0x8C379A000000000000000000000000000000000000000000000000000000000 DUP2 MSTORE PUSH1 0x4 ADD PUSH2 0x6B2 SWAP1 PUSH2 0x13CE JUMP JUMPDEST PUSH1 0x40 MLOAD DUP1 SWAP2 SUB SWAP1 REVERT JUMPDEST DUP2 ISZERO PUSH2 0x7CF JUMPI PUSH0 DUP2 GT PUSH2 0x703 JUMPI PUSH1 0x40 MLOAD PUSH32 0x8C379A000000000000000000000000000000000000000000000000000000000 DUP2 MSTORE PUSH1 0x4 ADD PUSH2 0x6FA SWAP1 PUSH2 0x1436 JUMP JUMPDEST PUSH1 0x40 MLOAD DUP1 SWAP2 SUB SWAP1 REVERT JUMPDEST PUSH1 0x40 MLOAD DUP1 PUSH1 0xA0 ADD PUSH1 0x40 MSTORE DUP1 DUP5 DUP2 MSTORE PUSH1 0x20 ADD TIMESTAMP DUP2 MSTORE PUSH1 0x20 ADD DUP3 DUP2 MSTORE PUSH1 0x20 ADD PUSH1 0x1 ISZERO ISZERO DUP2 MSTORE PUSH1 0x20 ADD PUSH1 0x1 ISZERO ISZERO DUP2 MSTORE POP PUSH0 DUP1 CALLER PUSH20 0xFFFFFFFFFFFFFFFFFFFFFFFFFFFFFFFFFFFFFFFF AND PUSH20 0xFFFFFFFFFFFFFFFFFFFFFFFFFFFFFFFFFFFFFFFF AND DUP2 MSTORE PUSH1 0x20 ADD SWAP1 DUP2 MSTORE PUSH1 0x20 ADD PUSH0 KECCAK256 PUSH0 DUP3 ADD MLOAD DUP2 PUSH0 ADD SSTORE PUSH1 0x20 DUP3 ADD MLOAD DUP2 PUSH1 0x1 ADD SSTORE PUSH1 0x40 DUP3 ADD MLOAD DUP2 PUSH1 0x2 ADD SSTORE PUSH1 0x60 DUP3 ADD MLOAD DUP2 PUSH1 0x3 ADD PUSH0 PUSH2 0x100 EXP DUP2 SLOAD DUP2 PUSH1 0xFF MUL NOT AND SWAP1 DUP4 ISZERO ISZERO MUL OR SWAP1 SSTORE POP PUSH1 0x80 DUP3 ADD MLOAD DUP2 PUSH1 0x3 ADD PUSH1 0x1 PUSH2 0x100 EXP DUP2 SLOAD DUP2 PUSH1 0xFF MUL NOT AND SWAP1 DUP4 ISZERO ISZERO MUL OR SWAP1 SSTORE POP SWAP1 POP POP PUSH2 0x896 JUMP JUMPDEST PUSH1 0x40 MLOAD DUP1 PUSH1 0xA0 ADD PUSH1 0x40 MSTORE DUP1 DUP5 DUP2 MSTORE PUSH1 0x20 ADD PUSH0 DUP2 MSTORE PUSH1 0x20 ADD PUSH0 DUP2 MSTORE PUSH1 0x20 ADD PUSH0 ISZERO ISZERO DUP2 MSTORE PUSH1 0x20 ADD PUSH1 0x1 ISZERO ISZERO DUP2 MSTORE POP PUSH0 DUP1 CALLER PUSH20 0xFFFFFFFFFFFFFFFFFFFFFFFFFFFFFFFFFFFFFFFF AND PUSH20 0xFFFFFFFFFFFFFFFFFFFFFFFFFFFFFFFFFFFFFFFF AND DUP2 MSTORE PUSH1 0x20 ADD SWAP1 DUP2 MSTORE PUSH1 0x20 ADD PUSH0 KECCAK256 PUSH0 DUP3 ADD MLOAD DUP2 PUSH0 ADD SSTORE PUSH1 0x20 DUP3 ADD MLOAD DUP2 PUSH1 0x1 ADD SSTORE PUSH1 0x40 DUP3 ADD MLOAD DUP2 PUSH1 0x2 ADD SSTORE PUSH1 0x60 DUP3 ADD MLOAD DUP2 PUSH1 0x3 ADD PUSH0 PUSH2 0x100 EXP DUP2 SLOAD DUP2 PUSH1 0xFF MUL NOT AND SWAP1 DUP4 ISZERO ISZERO MUL OR SWAP1 SSTORE POP PUSH1 0x80 DUP3 ADD MLOAD DUP2 PUSH1 0x3 ADD PUSH1 0x1 PUSH2 0x100 EXP DUP2 SLOAD DUP2 PUSH1 0xFF MUL NOT AND SWAP1 DUP4 ISZERO ISZERO MUL OR SWAP1 SSTORE POP SWAP1 POP POP JUMPDEST DUP3 PUSH1 0x2 PUSH0 CALLER PUSH20 0xFFFFFFFFFFFFFFFFFFFFFFFFFFFFFFFFFFFFFFFF AND PUSH20 0xFFFFFFFFFFFFFFFFFFFFFFFFFFFFFFFFFFFFFFFF AND DUP2 MSTORE PUSH1 0x20 ADD SWAP1 DUP2 MSTORE PUSH1 0x20 ADD PUSH0 KECCAK256 PUSH0 DUP3 DUP3 SLOAD PUSH2 0x8E2 SWAP2 SWAP1 PUSH2 0x117C JUMP JUMPDEST SWAP3 POP POP DUP2 SWAP1 SSTORE POP PUSH1 0x5 PUSH0 SWAP1 SLOAD SWAP1 PUSH2 0x100 EXP SWAP1 DIV PUSH20 0xFFFFFFFFFFFFFFFFFFFFFFFFFFFFFFFFFFFFFFFF AND PUSH20 0xFFFFFFFFFFFFFFFFFFFFFFFFFFFFFFFFFFFFFFFF AND PUSH4 0x23B872DD CALLER ADDRESS DUP7 PUSH1 0x40 MLOAD DUP5 PUSH4 0xFFFFFFFF AND PUSH1 0xE0 SHL DUP2 MSTORE PUSH1 0x4 ADD PUSH2 0x947 SWAP4 SWAP3 SWAP2 SWAP1 PUSH2 0x1454 JUMP JUMPDEST PUSH1 0x20 PUSH1 0x40 MLOAD DUP1 DUP4 SUB DUP2 PUSH0 DUP8 GAS CALL ISZERO DUP1 ISZERO PUSH2 0x963 JUMPI RETURNDATASIZE PUSH0 DUP1 RETURNDATACOPY RETURNDATASIZE PUSH0 REVERT JUMPDEST POP POP POP POP PUSH1 0x40 MLOAD RETURNDATASIZE PUSH1 0x1F NOT PUSH1 0x1F DUP3 ADD AND DUP3 ADD DUP1 PUSH1 0x40 MSTORE POP DUP2 ADD SWAP1 PUSH2 0x987 SWAP2 SWAP1 PUSH2 0x1332 JUMP JUMPDEST POP CALLER PUSH20 0xFFFFFFFFFFFFFFFFFFFFFFFFFFFFFFFFFFFFFFFF AND PUSH32 0x37D4053E34FDE482E96F6BCD424DFA31342CBD5FE184D497FB3C8BB4B4B97580 DUP5 DUP5 PUSH1 0x40 MLOAD PUSH2 0x9D0 SWAP3 SWAP2 SWAP1 PUSH2 0x135D JUMP JUMPDEST PUSH1 0x40 MLOAD DUP1 SWAP2 SUB SWAP1 LOG2 POP POP POP JUMP JUMPDEST PUSH1 0x7 SLOAD DUP2 JUMP JUMPDEST PUSH1 0x4 PUSH1 0x20 MSTORE DUP1 PUSH0 MSTORE PUSH1 0x40 PUSH0 KECCAK256 PUSH0 SWAP2 POP SWAP1 POP SLOAD DUP2 JUMP JUMPDEST PUSH0 DUP1 CALLER PUSH20 0xFFFFFFFFFFFFFFFFFFFFFFFFFFFFFFFFFFFFFFFF AND PUSH20 0xFFFFFFFFFFFFFFFFFFFFFFFFFFFFFFFFFFFFFFFF AND DUP2 MSTORE PUSH1 0x20 ADD SWAP1 DUP2 MSTORE PUSH1 0x20 ADD PUSH0 KECCAK256 PUSH1 0x3 ADD PUSH1 0x1 SWAP1 SLOAD SWAP1 PUSH2 0x100 EXP SWAP1 DIV PUSH1 0xFF AND PUSH2 0xA84 JUMPI PUSH1 0x40 MLOAD PUSH32 0x8C379A000000000000000000000000000000000000000000000000000000000 DUP2 MSTORE PUSH1 0x4 ADD PUSH2 0xA7B SWAP1 PUSH2 0x1131 JUMP JUMPDEST PUSH1 0x40 MLOAD DUP1 SWAP2 SUB SWAP1 REVERT JUMPDEST PUSH0 DUP1 PUSH0 DUP1 CALLER PUSH20 0xFFFFFFFFFFFFFFFFFFFFFFFFFFFFFFFFFFFFFFFF AND PUSH20 0xFFFFFFFFFFFFFFFFFFFFFFFFFFFFFFFFFFFFFFFF AND DUP2 MSTORE PUSH1 0x20 ADD SWAP1 DUP2 MSTORE PUSH1 0x20 ADD PUSH0 KECCAK256 PUSH1 0x40 MLOAD DUP1 PUSH1 0xA0 ADD PUSH1 0x40 MSTORE SWAP1 DUP2 PUSH0 DUP3 ADD SLOAD DUP2 MSTORE PUSH1 0x20 ADD PUSH1 0x1 DUP3 ADD SLOAD DUP2 MSTORE PUSH1 0x20 ADD PUSH1 0x2 DUP3 ADD SLOAD DUP2 MSTORE PUSH1 0x20 ADD PUSH1 0x3 DUP3 ADD PUSH0 SWAP1 SLOAD SWAP1 PUSH2 0x100 EXP SWAP1 DIV PUSH1 0xFF AND ISZERO ISZERO ISZERO ISZERO DUP2 MSTORE PUSH1 0x20 ADD PUSH1 0x3 DUP3 ADD PUSH1 0x1 SWAP1 SLOAD SWAP1 PUSH2 0x100 EXP SWAP1 DIV PUSH1 0xFF AND ISZERO ISZERO ISZERO ISZERO DUP2 MSTORE POP POP SWAP1 POP DUP1 PUSH1 0x60 ADD MLOAD ISZERO PUSH2 0xB4B JUMPI PUSH2 0xB44 DUP2 PUSH0 ADD MLOAD DUP3 PUSH1 0x20 ADD MLOAD DUP4 PUSH1 0x40 ADD MLOAD PUSH1 0x7 SLOAD PUSH2 0xE64 JUMP JUMPDEST SWAP2 POP PUSH2 0xB72 JUMP JUMPDEST PUSH2 0xB6F DUP2 PUSH0 ADD MLOAD DUP3 PUSH1 0x20 ADD MLOAD DUP4 PUSH1 0x20 ADD MLOAD TIMESTAMP PUSH2 0xB67 SWAP2 SWAP1 PUSH2 0x12B5 JUMP JUMPDEST PUSH1 0x8 SLOAD PUSH2 0xE64 JUMP JUMPDEST SWAP2 POP JUMPDEST DUP2 PUSH1 0x1 PUSH0 CALLER PUSH20 0xFFFFFFFFFFFFFFFFFFFFFFFFFFFFFFFFFFFFFFFF AND PUSH20 0xFFFFFFFFFFFFFFFFFFFFFFFFFFFFFFFFFFFFFFFF AND DUP2 MSTORE PUSH1 0x20 ADD SWAP1 DUP2 MSTORE PUSH1 0x20 ADD PUSH0 KECCAK256 PUSH0 DUP3 DUP3 SLOAD PUSH2 0xBBE SWAP2 SWAP1 PUSH2 0x117C JUMP JUMPDEST SWAP3 POP POP DUP2 SWAP1 SSTORE POP DUP2 PUSH1 0x4 PUSH0 CALLER PUSH20 0xFFFFFFFFFFFFFFFFFFFFFFFFFFFFFFFFFFFFFFFF AND PUSH20 0xFFFFFFFFFFFFFFFFFFFFFFFFFFFFFFFFFFFFFFFF AND DUP2 MSTORE PUSH1 0x20 ADD SWAP1 DUP2 MSTORE PUSH1 0x20 ADD PUSH0 KECCAK256 PUSH0 DUP3 DUP3 SLOAD PUSH2 0xC11 SWAP2 SWAP1 PUSH2 0x117C JUMP JUMPDEST SWAP3 POP POP DUP2 SWAP1 SSTORE POP CALLER PUSH20 0xFFFFFFFFFFFFFFFFFFFFFFFFFFFFFFFFFFFFFFFF AND PUSH32 0x106F923F993C2149D49B4255FF723ACAFA1F2D94393F561D3EDA32AE348F7241 DUP4 PUSH1 0x40 MLOAD PUSH2 0xC5E SWAP2 SWAP1 PUSH2 0xF3B JUMP JUMPDEST PUSH1 0x40 MLOAD DUP1 SWAP2 SUB SWAP1 LOG2 POP POP JUMP JUMPDEST PUSH1 0x3 PUSH1 0x20 MSTORE DUP1 PUSH0 MSTORE PUSH1 0x40 PUSH0 KECCAK256 PUSH0 SWAP2 POP SWAP1 POP SLOAD DUP2 JUMP JUMPDEST PUSH0 PUSH1 0x20 MSTORE DUP1 PUSH0 MSTORE PUSH1 0x40 PUSH0 KECCAK256 PUSH0 SWAP2 POP SWAP1 POP DUP1 PUSH0 ADD SLOAD SWAP1 DUP1 PUSH1 0x1 ADD SLOAD SWAP1 DUP1 PUSH1 0x2 ADD SLOAD SWAP1 DUP1 PUSH1 0x3 ADD PUSH0 SWAP1 SLOAD SWAP1 PUSH2 0x100 EXP SWAP1 DIV PUSH1 0xFF AND SWAP1 DUP1 PUSH1 0x3 ADD PUSH1 0x1 SWAP1 SLOAD SWAP1 PUSH2 0x100 EXP SWAP1 DIV PUSH1 0xFF AND SWAP1 POP DUP6 JUMP JUMPDEST PUSH1 0x5 PUSH0 SWAP1 SLOAD SWAP1 PUSH2 0x100 EXP SWAP1 DIV PUSH20 0xFFFFFFFFFFFFFFFFFFFFFFFFFFFFFFFFFFFFFFFF AND DUP2 JUMP JUMPDEST PUSH0 PUSH1 0x4 PUSH0 CALLER PUSH20 0xFFFFFFFFFFFFFFFFFFFFFFFFFFFFFFFFFFFFFFFF AND PUSH20 0xFFFFFFFFFFFFFFFFFFFFFFFFFFFFFFFFFFFFFFFF AND DUP2 MSTORE PUSH1 0x20 ADD SWAP1 DUP2 MSTORE PUSH1 0x20 ADD PUSH0 KECCAK256 SLOAD SWAP1 POP PUSH0 PUSH1 0x4 PUSH0 CALLER PUSH20 0xFFFFFFFFFFFFFFFFFFFFFFFFFFFFFFFFFFFFFFFF AND PUSH20 0xFFFFFFFFFFFFFFFFFFFFFFFFFFFFFFFFFFFFFFFF AND DUP2 MSTORE PUSH1 0x20 ADD SWAP1 DUP2 MSTORE PUSH1 0x20 ADD PUSH0 KECCAK256 DUP2 SWAP1 SSTORE POP DUP1 PUSH1 0x3 PUSH0 CALLER PUSH20 0xFFFFFFFFFFFFFFFFFFFFFFFFFFFFFFFFFFFFFFFF AND PUSH20 0xFFFFFFFFFFFFFFFFFFFFFFFFFFFFFFFFFFFFFFFF AND DUP2 MSTORE PUSH1 0x20 ADD SWAP1 DUP2 MSTORE PUSH1 0x20 ADD PUSH0 KECCAK256 PUSH0 DUP3 DUP3 SLOAD PUSH2 0xDBD SWAP2 SWAP1 PUSH2 0x117C JUMP JUMPDEST SWAP3 POP POP DUP2 SWAP1 SSTORE POP PUSH1 0x5 PUSH0 SWAP1 SLOAD SWAP1 PUSH2 0x100 EXP SWAP1 DIV PUSH20 0xFFFFFFFFFFFFFFFFFFFFFFFFFFFFFFFFFFFFFFFF AND PUSH20 0xFFFFFFFFFFFFFFFFFFFFFFFFFFFFFFFFFFFFFFFF AND PUSH4 0xA9059CBB CALLER DUP4 PUSH1 0x40 MLOAD DUP4 PUSH4 0xFFFFFFFF AND PUSH1 0xE0 SHL DUP2 MSTORE PUSH1 0x4 ADD PUSH2 0xE20 SWAP3 SWAP2 SWAP1 PUSH2 0x12F7 JUMP JUMPDEST PUSH1 0x20 PUSH1 0x40 MLOAD DUP1 DUP4 SUB DUP2 PUSH0 DUP8 GAS CALL ISZERO DUP1 ISZERO PUSH2 0xE3C JUMPI RETURNDATASIZE PUSH0 DUP1 RETURNDATACOPY RETURNDATASIZE PUSH0 REVERT JUMPDEST POP POP POP POP PUSH1 0x40 MLOAD RETURNDATASIZE PUSH1 0x1F NOT PUSH1 0x1F DUP3 ADD AND DUP3 ADD DUP1 PUSH1 0x40 MSTORE POP DUP2 ADD SWAP1 PUSH2 0xE60 SWAP2 SWAP1 PUSH2 0x1332 JUMP JUMPDEST POP POP JUMP JUMPDEST PUSH0 DUP1 PUSH4 0xBBF81E00 DUP5 DUP5 DUP9 PUSH2 0xE78 SWAP2 SWAP1 PUSH2 0x1217 JUMP JUMPDEST PUSH2 0xE82 SWAP2 SWAP1 PUSH2 0x1217 JUMP JUMPDEST PUSH2 0xE8C SWAP2 SWAP1 PUSH2 0x1285 JUMP JUMPDEST SWAP1 POP DUP1 SWAP2 POP POP SWAP5 SWAP4 POP POP POP POP JUMP JUMPDEST PUSH0 DUP1 REVERT JUMPDEST PUSH0 PUSH20 0xFFFFFFFFFFFFFFFFFFFFFFFFFFFFFFFFFFFFFFFF DUP3 AND SWAP1 POP SWAP2 SWAP1 POP JUMP JUMPDEST PUSH0 PUSH2 0xEC7 DUP3 PUSH2 0xE9E JUMP JUMPDEST SWAP1 POP SWAP2 SWAP1 POP JUMP JUMPDEST PUSH2 0xED7 DUP2 PUSH2 0xEBD JUMP JUMPDEST DUP2 EQ PUSH2 0xEE1 JUMPI PUSH0 DUP1 REVERT JUMPDEST POP JUMP JUMPDEST PUSH0 DUP2 CALLDATALOAD SWAP1 POP PUSH2 0xEF2 DUP2 PUSH2 0xECE JUMP JUMPDEST SWAP3 SWAP2 POP POP JUMP JUMPDEST PUSH0 PUSH1 0x20 DUP3 DUP5 SUB SLT ISZERO PUSH2 0xF0D JUMPI PUSH2 0xF0C PUSH2 0xE9A JUMP JUMPDEST JUMPDEST PUSH0 PUSH2 0xF1A DUP5 DUP3 DUP6 ADD PUSH2 0xEE4 JUMP JUMPDEST SWAP2 POP POP SWAP3 SWAP2 POP POP JUMP JUMPDEST PUSH0 DUP2 SWAP1 POP SWAP2 SWAP1 POP JUMP JUMPDEST PUSH2 0xF35 DUP2 PUSH2 0xF23 JUMP JUMPDEST DUP3 MSTORE POP POP JUMP JUMPDEST PUSH0 PUSH1 0x20 DUP3 ADD SWAP1 POP PUSH2 0xF4E PUSH0 DUP4 ADD DUP5 PUSH2 0xF2C JUMP JUMPDEST SWAP3 SWAP2 POP POP JUMP JUMPDEST PUSH2 0xF5D DUP2 PUSH2 0xF23 JUMP JUMPDEST DUP2 EQ PUSH2 0xF67 JUMPI PUSH0 DUP1 REVERT JUMPDEST POP JUMP JUMPDEST PUSH0 DUP2 CALLDATALOAD SWAP1 POP PUSH2 0xF78 DUP2 PUSH2 0xF54 JUMP JUMPDEST SWAP3 SWAP2 POP POP JUMP JUMPDEST PUSH0 DUP2 ISZERO ISZERO SWAP1 POP SWAP2 SWAP1 POP JUMP JUMPDEST PUSH2 0xF92 DUP2 PUSH2 0xF7E JUMP JUMPDEST DUP2 EQ PUSH2 0xF9C JUMPI PUSH0 DUP1 REVERT JUMPDEST POP JUMP JUMPDEST PUSH0 DUP2 CALLDATALOAD SWAP1 POP PUSH2 0xFAD DUP2 PUSH2 0xF89 JUMP JUMPDEST SWAP3 SWAP2 POP POP JUMP JUMPDEST PUSH0 DUP1 PUSH0 PUSH1 0x60 DUP5 DUP7 SUB SLT ISZERO PUSH2 0xFCA JUMPI PUSH2 0xFC9 PUSH2 0xE9A JUMP JUMPDEST JUMPDEST PUSH0 PUSH2 0xFD7 DUP7 DUP3 DUP8 ADD PUSH2 0xF6A JUMP JUMPDEST SWAP4 POP POP PUSH1 0x20 PUSH2 0xFE8 DUP7 DUP3 DUP8 ADD PUSH2 0xF9F JUMP JUMPDEST SWAP3 POP POP PUSH1 0x40 PUSH2 0xFF9 DUP7 DUP3 DUP8 ADD PUSH2 0xF6A JUMP JUMPDEST SWAP2 POP POP SWAP3 POP SWAP3 POP SWAP3 JUMP JUMPDEST PUSH2 0x100C DUP2 PUSH2 0xF7E JUMP JUMPDEST DUP3 MSTORE POP POP JUMP JUMPDEST PUSH0 PUSH1 0xA0 DUP3 ADD SWAP1 POP PUSH2 0x1025 PUSH0 DUP4 ADD DUP9 PUSH2 0xF2C JUMP JUMPDEST PUSH2 0x1032 PUSH1 0x20 DUP4 ADD DUP8 PUSH2 0xF2C JUMP JUMPDEST PUSH2 0x103F PUSH1 0x40 DUP4 ADD DUP7 PUSH2 0xF2C JUMP JUMPDEST PUSH2 0x104C PUSH1 0x60 DUP4 ADD DUP6 PUSH2 0x1003 JUMP JUMPDEST PUSH2 0x1059 PUSH1 0x80 DUP4 ADD DUP5 PUSH2 0x1003 JUMP JUMPDEST SWAP7 SWAP6 POP POP POP POP POP POP JUMP JUMPDEST PUSH0 DUP2 SWAP1 POP SWAP2 SWAP1 POP JUMP JUMPDEST PUSH0 PUSH2 0x1086 PUSH2 0x1081 PUSH2 0x107C DUP5 PUSH2 0xE9E JUMP JUMPDEST PUSH2 0x1063 JUMP JUMPDEST PUSH2 0xE9E JUMP JUMPDEST SWAP1 POP SWAP2 SWAP1 POP JUMP JUMPDEST PUSH0 PUSH2 0x1097 DUP3 PUSH2 0x106C JUMP JUMPDEST SWAP1 POP SWAP2 SWAP1 POP JUMP JUMPDEST PUSH0 PUSH2 0x10A8 DUP3 PUSH2 0x108D JUMP JUMPDEST SWAP1 POP SWAP2 SWAP1 POP JUMP JUMPDEST PUSH2 0x10B8 DUP2 PUSH2 0x109E JUMP JUMPDEST DUP3 MSTORE POP POP JUMP JUMPDEST PUSH0 PUSH1 0x20 DUP3 ADD SWAP1 POP PUSH2 0x10D1 PUSH0 DUP4 ADD DUP5 PUSH2 0x10AF JUMP JUMPDEST SWAP3 SWAP2 POP POP JUMP JUMPDEST PUSH0 DUP3 DUP3 MSTORE PUSH1 0x20 DUP3 ADD SWAP1 POP SWAP3 SWAP2 POP POP JUMP JUMPDEST PUSH32 0x4E6F74207374616B656400000000000000000000000000000000000000000000 PUSH0 DUP3 ADD MSTORE POP JUMP JUMPDEST PUSH0 PUSH2 0x111B PUSH1 0xA DUP4 PUSH2 0x10D7 JUMP JUMPDEST SWAP2 POP PUSH2 0x1126 DUP3 PUSH2 0x10E7 JUMP JUMPDEST PUSH1 0x20 DUP3 ADD SWAP1 POP SWAP2 SWAP1 POP JUMP JUMPDEST PUSH0 PUSH1 0x20 DUP3 ADD SWAP1 POP DUP2 DUP2 SUB PUSH0 DUP4 ADD MSTORE PUSH2 0x1148 DUP2 PUSH2 0x110F JUMP JUMPDEST SWAP1 POP SWAP2 SWAP1 POP JUMP JUMPDEST PUSH32 0x4E487B7100000000000000000000000000000000000000000000000000000000 PUSH0 MSTORE PUSH1 0x11 PUSH1 0x4 MSTORE PUSH1 0x24 PUSH0 REVERT JUMPDEST PUSH0 PUSH2 0x1186 DUP3 PUSH2 0xF23 JUMP JUMPDEST SWAP2 POP PUSH2 0x1191 DUP4 PUSH2 0xF23 JUMP JUMPDEST SWAP3 POP DUP3 DUP3 ADD SWAP1 POP DUP1 DUP3 GT ISZERO PUSH2 0x11A9 JUMPI PUSH2 0x11A8 PUSH2 0x114F JUMP JUMPDEST JUMPDEST SWAP3 SWAP2 POP POP JUMP JUMPDEST PUSH32 0x4669786564207374616B696E67206E6F74206578706972656400000000000000 PUSH0 DUP3 ADD MSTORE POP JUMP JUMPDEST PUSH0 PUSH2 0x11E3 PUSH1 0x19 DUP4 PUSH2 0x10D7 JUMP JUMPDEST SWAP2 POP PUSH2 0x11EE DUP3 PUSH2 0x11AF JUMP JUMPDEST PUSH1 0x20 DUP3 ADD SWAP1 POP SWAP2 SWAP1 POP JUMP JUMPDEST PUSH0 PUSH1 0x20 DUP3 ADD SWAP1 POP DUP2 DUP2 SUB PUSH0 DUP4 ADD MSTORE PUSH2 0x1210 DUP2 PUSH2 0x11D7 JUMP JUMPDEST SWAP1 POP SWAP2 SWAP1 POP JUMP JUMPDEST PUSH0 PUSH2 0x1221 DUP3 PUSH2 0xF23 JUMP JUMPDEST SWAP2 POP PUSH2 0x122C DUP4 PUSH2 0xF23 JUMP JUMPDEST SWAP3 POP DUP3 DUP3 MUL PUSH2 0x123A DUP2 PUSH2 0xF23 JUMP JUMPDEST SWAP2 POP DUP3 DUP3 DIV DUP5 EQ DUP4 ISZERO OR PUSH2 0x1251 JUMPI PUSH2 0x1250 PUSH2 0x114F JUMP JUMPDEST JUMPDEST POP SWAP3 SWAP2 POP POP JUMP JUMPDEST PUSH32 0x4E487B7100000000000000000000000000000000000000000000000000000000 PUSH0 MSTORE PUSH1 0x12 PUSH1 0x4 MSTORE PUSH1 0x24 PUSH0 REVERT JUMPDEST PUSH0 PUSH2 0x128F DUP3 PUSH2 0xF23 JUMP JUMPDEST SWAP2 POP PUSH2 0x129A DUP4 PUSH2 0xF23 JUMP JUMPDEST SWAP3 POP DUP3 PUSH2 0x12AA JUMPI PUSH2 0x12A9 PUSH2 0x1258 JUMP JUMPDEST JUMPDEST DUP3 DUP3 DIV SWAP1 POP SWAP3 SWAP2 POP POP JUMP JUMPDEST PUSH0 PUSH2 0x12BF DUP3 PUSH2 0xF23 JUMP JUMPDEST SWAP2 POP PUSH2 0x12CA DUP4 PUSH2 0xF23 JUMP JUMPDEST SWAP3 POP DUP3 DUP3 SUB SWAP1 POP DUP2 DUP2 GT ISZERO PUSH2 0x12E2 JUMPI PUSH2 0x12E1 PUSH2 0x114F JUMP JUMPDEST JUMPDEST SWAP3 SWAP2 POP POP JUMP JUMPDEST PUSH2 0x12F1 DUP2 PUSH2 0xEBD JUMP JUMPDEST DUP3 MSTORE POP POP JUMP JUMPDEST PUSH0 PUSH1 0x40 DUP3 ADD SWAP1 POP PUSH2 0x130A PUSH0 DUP4 ADD DUP6 PUSH2 0x12E8 JUMP JUMPDEST PUSH2 0x1317 PUSH1 0x20 DUP4 ADD DUP5 PUSH2 0xF2C JUMP JUMPDEST SWAP4 SWAP3 POP POP POP JUMP JUMPDEST PUSH0 DUP2 MLOAD SWAP1 POP PUSH2 0x132C DUP2 PUSH2 0xF89 JUMP JUMPDEST SWAP3 SWAP2 POP POP JUMP JUMPDEST PUSH0 PUSH1 0x20 DUP3 DUP5 SUB SLT ISZERO PUSH2 0x1347 JUMPI PUSH2 0x1346 PUSH2 0xE9A JUMP JUMPDEST JUMPDEST PUSH0 PUSH2 0x1354 DUP5 DUP3 DUP6 ADD PUSH2 0x131E JUMP JUMPDEST SWAP2 POP POP SWAP3 SWAP2 POP POP JUMP JUMPDEST PUSH0 PUSH1 0x40 DUP3 ADD SWAP1 POP PUSH2 0x1370 PUSH0 DUP4 ADD DUP6 PUSH2 0xF2C JUMP JUMPDEST PUSH2 0x137D PUSH1 0x20 DUP4 ADD DUP5 PUSH2 0x1003 JUMP JUMPDEST SWAP4 SWAP3 POP POP POP JUMP JUMPDEST PUSH32 0x416C7265616479207374616B6564000000000000000000000000000000000000 PUSH0 DUP3 ADD MSTORE POP JUMP JUMPDEST PUSH0 PUSH2 0x13B8 PUSH1 0xE DUP4 PUSH2 0x10D7 JUMP JUMPDEST SWAP2 POP PUSH2 0x13C3 DUP3 PUSH2 0x1384 JUMP JUMPDEST PUSH1 0x20 DUP3 ADD SWAP1 POP SWAP2 SWAP1 POP JUMP JUMPDEST PUSH0 PUSH1 0x20 DUP3 ADD SWAP1 POP DUP2 DUP2 SUB PUSH0 DUP4 ADD MSTORE PUSH2 0x13E5 DUP2 PUSH2 0x13AC JUMP JUMPDEST SWAP1 POP SWAP2 SWAP1 POP JUMP JUMPDEST PUSH32 0x496E76616C6964206475726174696F6E00000000000000000000000000000000 PUSH0 DUP3 ADD MSTORE POP JUMP JUMPDEST PUSH0 PUSH2 0x1420 PUSH1 0x10 DUP4 PUSH2 0x10D7 JUMP JUMPDEST SWAP2 POP PUSH2 0x142B DUP3 PUSH2 0x13EC JUMP JUMPDEST PUSH1 0x20 DUP3 ADD SWAP1 POP SWAP2 SWAP1 POP JUMP JUMPDEST PUSH0 PUSH1 0x20 DUP3 ADD SWAP1 POP DUP2 DUP2 SUB PUSH0 DUP4 ADD MSTORE PUSH2 0x144D DUP2 PUSH2 0x1414 JUMP JUMPDEST SWAP1 POP SWAP2 SWAP1 POP JUMP JUMPDEST PUSH0 PUSH1 0x60 DUP3 ADD SWAP1 POP PUSH2 0x1467 PUSH0 DUP4 ADD DUP7 PUSH2 0x12E8 JUMP JUMPDEST PUSH2 0x1474 PUSH1 0x20 DUP4 ADD DUP6 PUSH2 0x12E8 JUMP JUMPDEST PUSH2 0x1481 PUSH1 0x40 DUP4 ADD DUP5 PUSH2 0xF2C JUMP JUMPDEST SWAP5 SWAP4 POP POP POP POP JUMP INVALID LOG2 PUSH5 0x6970667358 0x22 SLT KECCAK256 CALLDATASIZE DUP13 RETURNDATASIZE GASLIMIT 0xE4 CALLDATALOAD TIMESTAMP EXP BALANCE 0x4E STATICCALL PREVRANDAO 0xE7 ADDRESS PUSH5 0x5AD5F36E75 SUB 0xC1 0xE4 0x4E 0xE3 PUSH7 0x9B51ABEBD22B64 PUSH20 0x6F6C634300081400330000000000000000000000 "
				},
				"gasEstimates": {
					"creation": {
						"codeDepositCost": "1062200",
						"executionCost": "infinite",
						"totalCost": "infinite"
					},
					"external": {
						"balances(address)": "2869",
						"claimReward()": "infinite",
						"claimedRewards(address)": "2824",
						"fixedInterestRate()": "2448",
						"getClaimableRewards()": "infinite",
						"penaltyPercentage()": "2470",
						"rewards(address)": "2803",
						"stake(uint256,bool,uint256)": "infinite",
						"stakings(address)": "infinite",
						"token()": "infinite",
						"unclaimedRewards(address)": "2847",
						"unfixedInterestRate()": "2448",
						"unstake()": "infinite"
					},
					"internal": {
						"calculateReward(uint256,uint256,uint256,uint256)": "infinite"
					}
				},
				"methodIdentifiers": {
					"balances(address)": "27e235e3",
					"claimReward()": "b88a802f",
					"claimedRewards(address)": "bd834345",
					"fixedInterestRate()": "892983c2",
					"getClaimableRewards()": "ffe0cbc6",
					"penaltyPercentage()": "15908d51",
					"rewards(address)": "0700037d",
					"stake(uint256,bool,uint256)": "447da8a6",
					"stakings(address)": "dc6e13e1",
					"token()": "fc0c546a",
					"unclaimedRewards(address)": "949813b8",
					"unfixedInterestRate()": "149c4de2",
					"unstake()": "2def6620"
				}
			},
			"storageLayout": {
				"storage": [
					{
						"astId": 96,
						"contract": "gyubbhjhbj.sol:StakingContract",
						"label": "stakings",
						"offset": 0,
						"slot": "0",
						"type": "t_mapping(t_address,t_struct(Staking)91_storage)"
					},
					{
						"astId": 100,
						"contract": "gyubbhjhbj.sol:StakingContract",
						"label": "rewards",
						"offset": 0,
						"slot": "1",
						"type": "t_mapping(t_address,t_uint256)"
					},
					{
						"astId": 104,
						"contract": "gyubbhjhbj.sol:StakingContract",
						"label": "balances",
						"offset": 0,
						"slot": "2",
						"type": "t_mapping(t_address,t_uint256)"
					},
					{
						"astId": 108,
						"contract": "gyubbhjhbj.sol:StakingContract",
						"label": "claimedRewards",
						"offset": 0,
						"slot": "3",
						"type": "t_mapping(t_address,t_uint256)"
					},
					{
						"astId": 112,
						"contract": "gyubbhjhbj.sol:StakingContract",
						"label": "unclaimedRewards",
						"offset": 0,
						"slot": "4",
						"type": "t_mapping(t_address,t_uint256)"
					},
					{
						"astId": 115,
						"contract": "gyubbhjhbj.sol:StakingContract",
						"label": "token",
						"offset": 0,
						"slot": "5",
						"type": "t_contract(IERC20)77"
					},
					{
						"astId": 117,
						"contract": "gyubbhjhbj.sol:StakingContract",
						"label": "penaltyPercentage",
						"offset": 0,
						"slot": "6",
						"type": "t_uint256"
					},
					{
						"astId": 119,
						"contract": "gyubbhjhbj.sol:StakingContract",
						"label": "fixedInterestRate",
						"offset": 0,
						"slot": "7",
						"type": "t_uint256"
					},
					{
						"astId": 121,
						"contract": "gyubbhjhbj.sol:StakingContract",
						"label": "unfixedInterestRate",
						"offset": 0,
						"slot": "8",
						"type": "t_uint256"
					}
				],
				"types": {
					"t_address": {
						"encoding": "inplace",
						"label": "address",
						"numberOfBytes": "20"
					},
					"t_bool": {
						"encoding": "inplace",
						"label": "bool",
						"numberOfBytes": "1"
					},
					"t_contract(IERC20)77": {
						"encoding": "inplace",
						"label": "contract IERC20",
						"numberOfBytes": "20"
					},
					"t_mapping(t_address,t_struct(Staking)91_storage)": {
						"encoding": "mapping",
						"key": "t_address",
						"label": "mapping(address => struct StakingContract.Staking)",
						"numberOfBytes": "32",
						"value": "t_struct(Staking)91_storage"
					},
					"t_mapping(t_address,t_uint256)": {
						"encoding": "mapping",
						"key": "t_address",
						"label": "mapping(address => uint256)",
						"numberOfBytes": "32",
						"value": "t_uint256"
					},
					"t_struct(Staking)91_storage": {
						"encoding": "inplace",
						"label": "struct StakingContract.Staking",
						"members": [
							{
								"astId": 82,
								"contract": "gyubbhjhbj.sol:StakingContract",
								"label": "amount",
								"offset": 0,
								"slot": "0",
								"type": "t_uint256"
							},
							{
								"astId": 84,
								"contract": "gyubbhjhbj.sol:StakingContract",
								"label": "startTime",
								"offset": 0,
								"slot": "1",
								"type": "t_uint256"
							},
							{
								"astId": 86,
								"contract": "gyubbhjhbj.sol:StakingContract",
								"label": "duration",
								"offset": 0,
								"slot": "2",
								"type": "t_uint256"
							},
							{
								"astId": 88,
								"contract": "gyubbhjhbj.sol:StakingContract",
								"label": "isFixed",
								"offset": 0,
								"slot": "3",
								"type": "t_bool"
							},
							{
								"astId": 90,
								"contract": "gyubbhjhbj.sol:StakingContract",
								"label": "isStaked",
								"offset": 1,
								"slot": "3",
								"type": "t_bool"
							}
						],
						"numberOfBytes": "128"
					},
					"t_uint256": {
						"encoding": "inplace",
						"label": "uint256",
						"numberOfBytes": "32"
					}
				}
			},
			"userdoc": {
				"kind": "user",
				"methods": {},
				"version": 1
			}
		}
	}
}