{
	"interoperatibility/sapCont.sol": {
		"OmniChainNFT": {
			"abi": [
				{
					"inputs": [
						{
							"internalType": "address",
							"name": "_endpoint",
							"type": "address"
						},
						{
							"internalType": "uint256",
							"name": "startId",
							"type": "uint256"
						},
						{
							"internalType": "uint256",
							"name": "_max",
							"type": "uint256"
						}
					],
					"stateMutability": "nonpayable",
					"type": "constructor"
				},
				{
					"inputs": [
						{
							"internalType": "address",
							"name": "sender",
							"type": "address"
						},
						{
							"internalType": "uint256",
							"name": "tokenId",
							"type": "uint256"
						},
						{
							"internalType": "address",
							"name": "owner",
							"type": "address"
						}
					],
					"name": "ERC721IncorrectOwner",
					"type": "error"
				},
				{
					"inputs": [
						{
							"internalType": "address",
							"name": "operator",
							"type": "address"
						},
						{
							"internalType": "uint256",
							"name": "tokenId",
							"type": "uint256"
						}
					],
					"name": "ERC721InsufficientApproval",
					"type": "error"
				},
				{
					"inputs": [
						{
							"internalType": "address",
							"name": "approver",
							"type": "address"
						}
					],
					"name": "ERC721InvalidApprover",
					"type": "error"
				},
				{
					"inputs": [
						{
							"internalType": "address",
							"name": "operator",
							"type": "address"
						}
					],
					"name": "ERC721InvalidOperator",
					"type": "error"
				},
				{
					"inputs": [
						{
							"internalType": "address",
							"name": "owner",
							"type": "address"
						}
					],
					"name": "ERC721InvalidOwner",
					"type": "error"
				},
				{
					"inputs": [
						{
							"internalType": "address",
							"name": "receiver",
							"type": "address"
						}
					],
					"name": "ERC721InvalidReceiver",
					"type": "error"
				},
				{
					"inputs": [
						{
							"internalType": "address",
							"name": "sender",
							"type": "address"
						}
					],
					"name": "ERC721InvalidSender",
					"type": "error"
				},
				{
					"inputs": [
						{
							"internalType": "uint256",
							"name": "tokenId",
							"type": "uint256"
						}
					],
					"name": "ERC721NonexistentToken",
					"type": "error"
				},
				{
					"inputs": [
						{
							"internalType": "address",
							"name": "owner",
							"type": "address"
						}
					],
					"name": "OwnableInvalidOwner",
					"type": "error"
				},
				{
					"inputs": [
						{
							"internalType": "address",
							"name": "account",
							"type": "address"
						}
					],
					"name": "OwnableUnauthorizedAccount",
					"type": "error"
				},
				{
					"anonymous": false,
					"inputs": [
						{
							"indexed": true,
							"internalType": "address",
							"name": "owner",
							"type": "address"
						},
						{
							"indexed": true,
							"internalType": "address",
							"name": "approved",
							"type": "address"
						},
						{
							"indexed": true,
							"internalType": "uint256",
							"name": "tokenId",
							"type": "uint256"
						}
					],
					"name": "Approval",
					"type": "event"
				},
				{
					"anonymous": false,
					"inputs": [
						{
							"indexed": true,
							"internalType": "address",
							"name": "owner",
							"type": "address"
						},
						{
							"indexed": true,
							"internalType": "address",
							"name": "operator",
							"type": "address"
						},
						{
							"indexed": false,
							"internalType": "bool",
							"name": "approved",
							"type": "bool"
						}
					],
					"name": "ApprovalForAll",
					"type": "event"
				},
				{
					"anonymous": false,
					"inputs": [
						{
							"indexed": true,
							"internalType": "address",
							"name": "previousOwner",
							"type": "address"
						},
						{
							"indexed": true,
							"internalType": "address",
							"name": "newOwner",
							"type": "address"
						}
					],
					"name": "OwnershipTransferred",
					"type": "event"
				},
				{
					"anonymous": false,
					"inputs": [
						{
							"indexed": false,
							"internalType": "uint16",
							"name": "_srcChainId",
							"type": "uint16"
						},
						{
							"indexed": false,
							"internalType": "address",
							"name": "_from",
							"type": "address"
						},
						{
							"indexed": false,
							"internalType": "uint256",
							"name": "_tokenId",
							"type": "uint256"
						},
						{
							"indexed": false,
							"internalType": "uint256",
							"name": "counter",
							"type": "uint256"
						}
					],
					"name": "ReceiveNFT",
					"type": "event"
				},
				{
					"anonymous": false,
					"inputs": [
						{
							"indexed": true,
							"internalType": "address",
							"name": "from",
							"type": "address"
						},
						{
							"indexed": true,
							"internalType": "address",
							"name": "to",
							"type": "address"
						},
						{
							"indexed": true,
							"internalType": "uint256",
							"name": "tokenId",
							"type": "uint256"
						}
					],
					"name": "Transfer",
					"type": "event"
				},
				{
					"inputs": [
						{
							"internalType": "address",
							"name": "to",
							"type": "address"
						},
						{
							"internalType": "uint256",
							"name": "tokenId",
							"type": "uint256"
						}
					],
					"name": "approve",
					"outputs": [],
					"stateMutability": "nonpayable",
					"type": "function"
				},
				{
					"inputs": [
						{
							"internalType": "address",
							"name": "owner",
							"type": "address"
						}
					],
					"name": "balanceOf",
					"outputs": [
						{
							"internalType": "uint256",
							"name": "",
							"type": "uint256"
						}
					],
					"stateMutability": "view",
					"type": "function"
				},
				{
					"inputs": [
						{
							"internalType": "uint16",
							"name": "_dstChainId",
							"type": "uint16"
						},
						{
							"internalType": "bytes",
							"name": "_destination",
							"type": "bytes"
						},
						{
							"internalType": "uint256",
							"name": "tokenId",
							"type": "uint256"
						}
					],
					"name": "crossChain",
					"outputs": [],
					"stateMutability": "payable",
					"type": "function"
				},
				{
					"inputs": [],
					"name": "endpoint",
					"outputs": [
						{
							"internalType": "contract ILayerZeroEndpoint",
							"name": "",
							"type": "address"
						}
					],
					"stateMutability": "view",
					"type": "function"
				},
				{
					"inputs": [
						{
							"internalType": "uint16",
							"name": "_dstChainId",
							"type": "uint16"
						},
						{
							"internalType": "address",
							"name": "_userApplication",
							"type": "address"
						},
						{
							"internalType": "bytes",
							"name": "_payload",
							"type": "bytes"
						},
						{
							"internalType": "bool",
							"name": "_payInZRO",
							"type": "bool"
						},
						{
							"internalType": "bytes",
							"name": "_adapterParams",
							"type": "bytes"
						}
					],
					"name": "estimateFees",
					"outputs": [
						{
							"internalType": "uint256",
							"name": "nativeFee",
							"type": "uint256"
						},
						{
							"internalType": "uint256",
							"name": "zroFee",
							"type": "uint256"
						}
					],
					"stateMutability": "view",
					"type": "function"
				},
				{
					"inputs": [
						{
							"internalType": "uint256",
							"name": "tokenId",
							"type": "uint256"
						}
					],
					"name": "getApproved",
					"outputs": [
						{
							"internalType": "address",
							"name": "",
							"type": "address"
						}
					],
					"stateMutability": "view",
					"type": "function"
				},
				{
					"inputs": [
						{
							"internalType": "address",
							"name": "owner",
							"type": "address"
						},
						{
							"internalType": "address",
							"name": "operator",
							"type": "address"
						}
					],
					"name": "isApprovedForAll",
					"outputs": [
						{
							"internalType": "bool",
							"name": "",
							"type": "bool"
						}
					],
					"stateMutability": "view",
					"type": "function"
				},
				{
					"inputs": [
						{
							"internalType": "uint16",
							"name": "_srcChainId",
							"type": "uint16"
						},
						{
							"internalType": "bytes",
							"name": "_from",
							"type": "bytes"
						},
						{
							"internalType": "uint64",
							"name": "",
							"type": "uint64"
						},
						{
							"internalType": "bytes",
							"name": "_payload",
							"type": "bytes"
						}
					],
					"name": "lzReceive",
					"outputs": [],
					"stateMutability": "nonpayable",
					"type": "function"
				},
				{
					"inputs": [],
					"name": "mint",
					"outputs": [],
					"stateMutability": "payable",
					"type": "function"
				},
				{
					"inputs": [],
					"name": "name",
					"outputs": [
						{
							"internalType": "string",
							"name": "",
							"type": "string"
						}
					],
					"stateMutability": "view",
					"type": "function"
				},
				{
					"inputs": [],
					"name": "owner",
					"outputs": [
						{
							"internalType": "address",
							"name": "",
							"type": "address"
						}
					],
					"stateMutability": "view",
					"type": "function"
				},
				{
					"inputs": [
						{
							"internalType": "uint256",
							"name": "tokenId",
							"type": "uint256"
						}
					],
					"name": "ownerOf",
					"outputs": [
						{
							"internalType": "address",
							"name": "",
							"type": "address"
						}
					],
					"stateMutability": "view",
					"type": "function"
				},
				{
					"inputs": [],
					"name": "renounceOwnership",
					"outputs": [],
					"stateMutability": "nonpayable",
					"type": "function"
				},
				{
					"inputs": [
						{
							"internalType": "address",
							"name": "from",
							"type": "address"
						},
						{
							"internalType": "address",
							"name": "to",
							"type": "address"
						},
						{
							"internalType": "uint256",
							"name": "tokenId",
							"type": "uint256"
						}
					],
					"name": "safeTransferFrom",
					"outputs": [],
					"stateMutability": "nonpayable",
					"type": "function"
				},
				{
					"inputs": [
						{
							"internalType": "address",
							"name": "from",
							"type": "address"
						},
						{
							"internalType": "address",
							"name": "to",
							"type": "address"
						},
						{
							"internalType": "uint256",
							"name": "tokenId",
							"type": "uint256"
						},
						{
							"internalType": "bytes",
							"name": "data",
							"type": "bytes"
						}
					],
					"name": "safeTransferFrom",
					"outputs": [],
					"stateMutability": "nonpayable",
					"type": "function"
				},
				{
					"inputs": [
						{
							"internalType": "address",
							"name": "operator",
							"type": "address"
						},
						{
							"internalType": "bool",
							"name": "approved",
							"type": "bool"
						}
					],
					"name": "setApprovalForAll",
					"outputs": [],
					"stateMutability": "nonpayable",
					"type": "function"
				},
				{
					"inputs": [
						{
							"internalType": "bytes4",
							"name": "interfaceId",
							"type": "bytes4"
						}
					],
					"name": "supportsInterface",
					"outputs": [
						{
							"internalType": "bool",
							"name": "",
							"type": "bool"
						}
					],
					"stateMutability": "view",
					"type": "function"
				},
				{
					"inputs": [],
					"name": "symbol",
					"outputs": [
						{
							"internalType": "string",
							"name": "",
							"type": "string"
						}
					],
					"stateMutability": "view",
					"type": "function"
				},
				{
					"inputs": [
						{
							"internalType": "uint256",
							"name": "tokenId",
							"type": "uint256"
						}
					],
					"name": "tokenURI",
					"outputs": [
						{
							"internalType": "string",
							"name": "",
							"type": "string"
						}
					],
					"stateMutability": "view",
					"type": "function"
				},
				{
					"inputs": [
						{
							"internalType": "address",
							"name": "from",
							"type": "address"
						},
						{
							"internalType": "address",
							"name": "to",
							"type": "address"
						},
						{
							"internalType": "uint256",
							"name": "tokenId",
							"type": "uint256"
						}
					],
					"name": "transferFrom",
					"outputs": [],
					"stateMutability": "nonpayable",
					"type": "function"
				},
				{
					"inputs": [
						{
							"internalType": "address",
							"name": "newOwner",
							"type": "address"
						}
					],
					"name": "transferOwnership",
					"outputs": [],
					"stateMutability": "nonpayable",
					"type": "function"
				}
			],
			"devdoc": {
				"errors": {
					"ERC721IncorrectOwner(address,uint256,address)": [
						{
							"details": "Indicates an error related to the ownership over a particular token. Used in transfers.",
							"params": {
								"owner": "Address of the current owner of a token.",
								"sender": "Address whose tokens are being transferred.",
								"tokenId": "Identifier number of a token."
							}
						}
					],
					"ERC721InsufficientApproval(address,uint256)": [
						{
							"details": "Indicates a failure with the `operator`’s approval. Used in transfers.",
							"params": {
								"operator": "Address that may be allowed to operate on tokens without being their owner.",
								"tokenId": "Identifier number of a token."
							}
						}
					],
					"ERC721InvalidApprover(address)": [
						{
							"details": "Indicates a failure with the `approver` of a token to be approved. Used in approvals.",
							"params": {
								"approver": "Address initiating an approval operation."
							}
						}
					],
					"ERC721InvalidOperator(address)": [
						{
							"details": "Indicates a failure with the `operator` to be approved. Used in approvals.",
							"params": {
								"operator": "Address that may be allowed to operate on tokens without being their owner."
							}
						}
					],
					"ERC721InvalidOwner(address)": [
						{
							"details": "Indicates that an address can't be an owner. For example, `address(0)` is a forbidden owner in EIP-20. Used in balance queries.",
							"params": {
								"owner": "Address of the current owner of a token."
							}
						}
					],
					"ERC721InvalidReceiver(address)": [
						{
							"details": "Indicates a failure with the token `receiver`. Used in transfers.",
							"params": {
								"receiver": "Address to which tokens are being transferred."
							}
						}
					],
					"ERC721InvalidSender(address)": [
						{
							"details": "Indicates a failure with the token `sender`. Used in transfers.",
							"params": {
								"sender": "Address whose tokens are being transferred."
							}
						}
					],
					"ERC721NonexistentToken(uint256)": [
						{
							"details": "Indicates a `tokenId` whose `owner` is the zero address.",
							"params": {
								"tokenId": "Identifier number of a token."
							}
						}
					],
					"OwnableInvalidOwner(address)": [
						{
							"details": "The owner is not a valid owner account. (eg. `address(0)`)"
						}
					],
					"OwnableUnauthorizedAccount(address)": [
						{
							"details": "The caller account is not authorized to perform an operation."
						}
					]
				},
				"events": {
					"Approval(address,address,uint256)": {
						"details": "Emitted when `owner` enables `approved` to manage the `tokenId` token."
					},
					"ApprovalForAll(address,address,bool)": {
						"details": "Emitted when `owner` enables or disables (`approved`) `operator` to manage all of its assets."
					},
					"Transfer(address,address,uint256)": {
						"details": "Emitted when `tokenId` token is transferred from `from` to `to`."
					}
				},
				"kind": "dev",
				"methods": {
					"approve(address,uint256)": {
						"details": "See {IERC721-approve}."
					},
					"balanceOf(address)": {
						"details": "See {IERC721-balanceOf}."
					},
					"getApproved(uint256)": {
						"details": "See {IERC721-getApproved}."
					},
					"isApprovedForAll(address,address)": {
						"details": "See {IERC721-isApprovedForAll}."
					},
					"name()": {
						"details": "See {IERC721Metadata-name}."
					},
					"owner()": {
						"details": "Returns the address of the current owner."
					},
					"ownerOf(uint256)": {
						"details": "See {IERC721-ownerOf}."
					},
					"renounceOwnership()": {
						"details": "Leaves the contract without owner. It will not be possible to call `onlyOwner` functions. Can only be called by the current owner. NOTE: Renouncing ownership will leave the contract without an owner, thereby disabling any functionality that is only available to the owner."
					},
					"safeTransferFrom(address,address,uint256)": {
						"details": "See {IERC721-safeTransferFrom}."
					},
					"safeTransferFrom(address,address,uint256,bytes)": {
						"details": "See {IERC721-safeTransferFrom}."
					},
					"setApprovalForAll(address,bool)": {
						"details": "See {IERC721-setApprovalForAll}."
					},
					"supportsInterface(bytes4)": {
						"details": "See {IERC165-supportsInterface}."
					},
					"symbol()": {
						"details": "See {IERC721Metadata-symbol}."
					},
					"tokenURI(uint256)": {
						"details": "See {IERC721Metadata-tokenURI}."
					},
					"transferFrom(address,address,uint256)": {
						"details": "See {IERC721-transferFrom}."
					},
					"transferOwnership(address)": {
						"details": "Transfers ownership of the contract to a new account (`newOwner`). Can only be called by the current owner."
					}
				},
				"version": 1
			},
			"evm": {
				"assembly": "    /* \"interoperatibility/sapCont.sol\":411:3286  contract OmniChainNFT is Ownable, ERC721, ILayerZeroReceiver {... */\n  mstore(0x40, 0x80)\n    /* \"interoperatibility/sapCont.sol\":496:497  0 */\n  0x00\n    /* \"interoperatibility/sapCont.sol\":478:497  uint256 counter = 0 */\n  0x07\n  sstore\n    /* \"interoperatibility/sapCont.sol\":520:521  0 */\n  0x00\n    /* \"interoperatibility/sapCont.sol\":503:521  uint256 nextId = 0 */\n  0x08\n  sstore\n    /* \"interoperatibility/sapCont.sol\":541:544  100 */\n  0x64\n    /* \"interoperatibility/sapCont.sol\":527:544  uint256 MAX = 100 */\n  0x09\n  sstore\n    /* \"interoperatibility/sapCont.sol\":564:570  350000 */\n  0x055730\n    /* \"interoperatibility/sapCont.sol\":550:570  uint256 gas = 350000 */\n  0x0a\n  sstore\n    /* \"interoperatibility/sapCont.sol\":746:964  constructor( address _endpoint,uint256 startId,uint256 _max) ERC721(\"OmniChainNFT\", \"OOCCNFT\") Ownable(msg.sender) {... */\n  callvalue\n  dup1\n  iszero\n  tag_1\n  jumpi\n  0x00\n  dup1\n  revert\ntag_1:\n  pop\n  mload(0x40)\n  sub(codesize, bytecodeSize)\n  dup1\n  bytecodeSize\n  dup4\n  codecopy\n  dup2\n  dup2\n  add\n  0x40\n  mstore\n  dup2\n  add\n  swap1\n  tag_2\n  swap2\n  swap1\n  tag_3\n  jump\t// in\ntag_2:\n    /* \"@openzeppelin/contracts/token/ERC721/ERC721.sol\":1381:1494  constructor(string memory name_, string memory symbol_) {... */\n  mload(0x40)\n  dup1\n  0x40\n  add\n  0x40\n  mstore\n  dup1\n  0x0c\n  dup2\n  mstore\n  0x20\n  add\n  0x4f6d6e69436861696e4e46540000000000000000000000000000000000000000\n  dup2\n  mstore\n  pop\n  mload(0x40)\n  dup1\n  0x40\n  add\n  0x40\n  mstore\n  dup1\n  0x07\n  dup2\n  mstore\n  0x20\n  add\n  0x4f4f43434e465400000000000000000000000000000000000000000000000000\n  dup2\n  mstore\n  pop\n    /* \"interoperatibility/sapCont.sol\":849:859  msg.sender */\n  caller\n    /* \"@openzeppelin/contracts/access/Ownable.sol\":1297:1298  0 */\n  0x00\n    /* \"@openzeppelin/contracts/access/Ownable.sol\":1273:1299  initialOwner == address(0) */\n  0xffffffffffffffffffffffffffffffffffffffff\n  and\n    /* \"@openzeppelin/contracts/access/Ownable.sol\":1273:1285  initialOwner */\n  dup2\n    /* \"@openzeppelin/contracts/access/Ownable.sol\":1273:1299  initialOwner == address(0) */\n  0xffffffffffffffffffffffffffffffffffffffff\n  and\n  sub\n    /* \"@openzeppelin/contracts/access/Ownable.sol\":1269:1364  if (initialOwner == address(0)) {... */\n  tag_8\n  jumpi\n    /* \"@openzeppelin/contracts/access/Ownable.sol\":1350:1351  0 */\n  0x00\n    /* \"@openzeppelin/contracts/access/Ownable.sol\":1322:1353  OwnableInvalidOwner(address(0)) */\n  mload(0x40)\n  0x1e4fbdf700000000000000000000000000000000000000000000000000000000\n  dup2\n  mstore\n  0x04\n  add\n  tag_9\n  swap2\n  swap1\n  tag_10\n  jump\t// in\ntag_9:\n  mload(0x40)\n  dup1\n  swap2\n  sub\n  swap1\n  revert\n    /* \"@openzeppelin/contracts/access/Ownable.sol\":1269:1364  if (initialOwner == address(0)) {... */\ntag_8:\n    /* \"@openzeppelin/contracts/access/Ownable.sol\":1373:1405  _transferOwnership(initialOwner) */\n  tag_11\n    /* \"@openzeppelin/contracts/access/Ownable.sol\":1392:1404  initialOwner */\n  dup2\n    /* \"@openzeppelin/contracts/access/Ownable.sol\":1373:1391  _transferOwnership */\n  shl(0x20, tag_12)\n    /* \"@openzeppelin/contracts/access/Ownable.sol\":1373:1405  _transferOwnership(initialOwner) */\n  0x20\n  shr\n  jump\t// in\ntag_11:\n    /* \"@openzeppelin/contracts/access/Ownable.sol\":1225:1412  constructor(address initialOwner) {... */\n  pop\n    /* \"@openzeppelin/contracts/token/ERC721/ERC721.sol\":1455:1460  name_ */\n  dup2\n    /* \"@openzeppelin/contracts/token/ERC721/ERC721.sol\":1447:1452  _name */\n  0x01\n    /* \"@openzeppelin/contracts/token/ERC721/ERC721.sol\":1447:1460  _name = name_ */\n  swap1\n  dup2\n  tag_14\n  swap2\n  swap1\n  tag_15\n  jump\t// in\ntag_14:\n  pop\n    /* \"@openzeppelin/contracts/token/ERC721/ERC721.sol\":1480:1487  symbol_ */\n  dup1\n    /* \"@openzeppelin/contracts/token/ERC721/ERC721.sol\":1470:1477  _symbol */\n  0x02\n    /* \"@openzeppelin/contracts/token/ERC721/ERC721.sol\":1470:1487  _symbol = symbol_ */\n  swap1\n  dup2\n  tag_16\n  swap2\n  swap1\n  tag_15\n  jump\t// in\ntag_16:\n  pop\n    /* \"@openzeppelin/contracts/token/ERC721/ERC721.sol\":1381:1494  constructor(string memory name_, string memory symbol_) {... */\n  pop\n  pop\n    /* \"interoperatibility/sapCont.sol\":901:910  _endpoint */\n  dup3\n    /* \"interoperatibility/sapCont.sol\":871:879  endpoint */\n  0x0b\n  0x00\n    /* \"interoperatibility/sapCont.sol\":871:911  endpoint = ILayerZeroEndpoint(_endpoint) */\n  0x0100\n  exp\n  dup2\n  sload\n  dup2\n  0xffffffffffffffffffffffffffffffffffffffff\n  mul\n  not\n  and\n  swap1\n  dup4\n  0xffffffffffffffffffffffffffffffffffffffff\n  and\n  mul\n  or\n  swap1\n  sstore\n  pop\n    /* \"interoperatibility/sapCont.sol\":930:937  startId */\n  dup2\n    /* \"interoperatibility/sapCont.sol\":921:927  nextId */\n  0x08\n    /* \"interoperatibility/sapCont.sol\":921:937  nextId = startId */\n  dup2\n  swap1\n  sstore\n  pop\n    /* \"interoperatibility/sapCont.sol\":953:957  _max */\n  dup1\n    /* \"interoperatibility/sapCont.sol\":947:950  MAX */\n  0x09\n    /* \"interoperatibility/sapCont.sol\":947:957  MAX = _max */\n  dup2\n  swap1\n  sstore\n  pop\n    /* \"interoperatibility/sapCont.sol\":746:964  constructor( address _endpoint,uint256 startId,uint256 _max) ERC721(\"OmniChainNFT\", \"OOCCNFT\") Ownable(msg.sender) {... */\n  pop\n  pop\n  pop\n    /* \"interoperatibility/sapCont.sol\":411:3286  contract OmniChainNFT is Ownable, ERC721, ILayerZeroReceiver {... */\n  jump(tag_18)\n    /* \"@openzeppelin/contracts/access/Ownable.sol\":2912:3099  function _transferOwnership(address newOwner) internal virtual {... */\ntag_12:\n    /* \"@openzeppelin/contracts/access/Ownable.sol\":2985:3001  address oldOwner */\n  0x00\n    /* \"@openzeppelin/contracts/access/Ownable.sol\":3004:3010  _owner */\n  dup1\n  0x00\n  swap1\n  sload\n  swap1\n  0x0100\n  exp\n  swap1\n  div\n  0xffffffffffffffffffffffffffffffffffffffff\n  and\n    /* \"@openzeppelin/contracts/access/Ownable.sol\":2985:3010  address oldOwner = _owner */\n  swap1\n  pop\n    /* \"@openzeppelin/contracts/access/Ownable.sol\":3029:3037  newOwner */\n  dup2\n    /* \"@openzeppelin/contracts/access/Ownable.sol\":3020:3026  _owner */\n  0x00\n  dup1\n    /* \"@openzeppelin/contracts/access/Ownable.sol\":3020:3037  _owner = newOwner */\n  0x0100\n  exp\n  dup2\n  sload\n  dup2\n  0xffffffffffffffffffffffffffffffffffffffff\n  mul\n  not\n  and\n  swap1\n  dup4\n  0xffffffffffffffffffffffffffffffffffffffff\n  and\n  mul\n  or\n  swap1\n  sstore\n  pop\n    /* \"@openzeppelin/contracts/access/Ownable.sol\":3083:3091  newOwner */\n  dup2\n    /* \"@openzeppelin/contracts/access/Ownable.sol\":3052:3092  OwnershipTransferred(oldOwner, newOwner) */\n  0xffffffffffffffffffffffffffffffffffffffff\n  and\n    /* \"@openzeppelin/contracts/access/Ownable.sol\":3073:3081  oldOwner */\n  dup2\n    /* \"@openzeppelin/contracts/access/Ownable.sol\":3052:3092  OwnershipTransferred(oldOwner, newOwner) */\n  0xffffffffffffffffffffffffffffffffffffffff\n  and\n  0x8be0079c531659141344cd1fd0a4f28419497f9722a3daafe3b4186f6b6457e0\n  mload(0x40)\n  mload(0x40)\n  dup1\n  swap2\n  sub\n  swap1\n  log3\n    /* \"@openzeppelin/contracts/access/Ownable.sol\":2975:3099  {... */\n  pop\n    /* \"@openzeppelin/contracts/access/Ownable.sol\":2912:3099  function _transferOwnership(address newOwner) internal virtual {... */\n  pop\n  jump\t// out\n    /* \"#utility.yul\":88:205   */\ntag_21:\n    /* \"#utility.yul\":197:198   */\n  0x00\n    /* \"#utility.yul\":194:195   */\n  dup1\n    /* \"#utility.yul\":187:199   */\n  revert\n    /* \"#utility.yul\":334:460   */\ntag_23:\n    /* \"#utility.yul\":371:378   */\n  0x00\n    /* \"#utility.yul\":411:453   */\n  0xffffffffffffffffffffffffffffffffffffffff\n    /* \"#utility.yul\":404:409   */\n  dup3\n    /* \"#utility.yul\":400:454   */\n  and\n    /* \"#utility.yul\":389:454   */\n  swap1\n  pop\n    /* \"#utility.yul\":334:460   */\n  swap2\n  swap1\n  pop\n  jump\t// out\n    /* \"#utility.yul\":466:562   */\ntag_24:\n    /* \"#utility.yul\":503:510   */\n  0x00\n    /* \"#utility.yul\":532:556   */\n  tag_56\n    /* \"#utility.yul\":550:555   */\n  dup3\n    /* \"#utility.yul\":532:556   */\n  tag_23\n  jump\t// in\ntag_56:\n    /* \"#utility.yul\":521:556   */\n  swap1\n  pop\n    /* \"#utility.yul\":466:562   */\n  swap2\n  swap1\n  pop\n  jump\t// out\n    /* \"#utility.yul\":568:690   */\ntag_25:\n    /* \"#utility.yul\":641:665   */\n  tag_58\n    /* \"#utility.yul\":659:664   */\n  dup2\n    /* \"#utility.yul\":641:665   */\n  tag_24\n  jump\t// in\ntag_58:\n    /* \"#utility.yul\":634:639   */\n  dup2\n    /* \"#utility.yul\":631:666   */\n  eq\n    /* \"#utility.yul\":621:684   */\n  tag_59\n  jumpi\n    /* \"#utility.yul\":680:681   */\n  0x00\n    /* \"#utility.yul\":677:678   */\n  dup1\n    /* \"#utility.yul\":670:682   */\n  revert\n    /* \"#utility.yul\":621:684   */\ntag_59:\n    /* \"#utility.yul\":568:690   */\n  pop\n  jump\t// out\n    /* \"#utility.yul\":696:839   */\ntag_26:\n    /* \"#utility.yul\":753:758   */\n  0x00\n    /* \"#utility.yul\":784:790   */\n  dup2\n    /* \"#utility.yul\":778:791   */\n  mload\n    /* \"#utility.yul\":769:791   */\n  swap1\n  pop\n    /* \"#utility.yul\":800:833   */\n  tag_61\n    /* \"#utility.yul\":827:832   */\n  dup2\n    /* \"#utility.yul\":800:833   */\n  tag_25\n  jump\t// in\ntag_61:\n    /* \"#utility.yul\":696:839   */\n  swap3\n  swap2\n  pop\n  pop\n  jump\t// out\n    /* \"#utility.yul\":845:922   */\ntag_27:\n    /* \"#utility.yul\":882:889   */\n  0x00\n    /* \"#utility.yul\":911:916   */\n  dup2\n    /* \"#utility.yul\":900:916   */\n  swap1\n  pop\n    /* \"#utility.yul\":845:922   */\n  swap2\n  swap1\n  pop\n  jump\t// out\n    /* \"#utility.yul\":928:1050   */\ntag_28:\n    /* \"#utility.yul\":1001:1025   */\n  tag_64\n    /* \"#utility.yul\":1019:1024   */\n  dup2\n    /* \"#utility.yul\":1001:1025   */\n  tag_27\n  jump\t// in\ntag_64:\n    /* \"#utility.yul\":994:999   */\n  dup2\n    /* \"#utility.yul\":991:1026   */\n  eq\n    /* \"#utility.yul\":981:1044   */\n  tag_65\n  jumpi\n    /* \"#utility.yul\":1040:1041   */\n  0x00\n    /* \"#utility.yul\":1037:1038   */\n  dup1\n    /* \"#utility.yul\":1030:1042   */\n  revert\n    /* \"#utility.yul\":981:1044   */\ntag_65:\n    /* \"#utility.yul\":928:1050   */\n  pop\n  jump\t// out\n    /* \"#utility.yul\":1056:1199   */\ntag_29:\n    /* \"#utility.yul\":1113:1118   */\n  0x00\n    /* \"#utility.yul\":1144:1150   */\n  dup2\n    /* \"#utility.yul\":1138:1151   */\n  mload\n    /* \"#utility.yul\":1129:1151   */\n  swap1\n  pop\n    /* \"#utility.yul\":1160:1193   */\n  tag_67\n    /* \"#utility.yul\":1187:1192   */\n  dup2\n    /* \"#utility.yul\":1160:1193   */\n  tag_28\n  jump\t// in\ntag_67:\n    /* \"#utility.yul\":1056:1199   */\n  swap3\n  swap2\n  pop\n  pop\n  jump\t// out\n    /* \"#utility.yul\":1205:1868   */\ntag_3:\n    /* \"#utility.yul\":1293:1299   */\n  0x00\n    /* \"#utility.yul\":1301:1307   */\n  dup1\n    /* \"#utility.yul\":1309:1315   */\n  0x00\n    /* \"#utility.yul\":1358:1360   */\n  0x60\n    /* \"#utility.yul\":1346:1355   */\n  dup5\n    /* \"#utility.yul\":1337:1344   */\n  dup7\n    /* \"#utility.yul\":1333:1356   */\n  sub\n    /* \"#utility.yul\":1329:1361   */\n  slt\n    /* \"#utility.yul\":1326:1445   */\n  iszero\n  tag_69\n  jumpi\n    /* \"#utility.yul\":1364:1443   */\n  tag_70\n  tag_21\n  jump\t// in\ntag_70:\n    /* \"#utility.yul\":1326:1445   */\ntag_69:\n    /* \"#utility.yul\":1484:1485   */\n  0x00\n    /* \"#utility.yul\":1509:1573   */\n  tag_71\n    /* \"#utility.yul\":1565:1572   */\n  dup7\n    /* \"#utility.yul\":1556:1562   */\n  dup3\n    /* \"#utility.yul\":1545:1554   */\n  dup8\n    /* \"#utility.yul\":1541:1563   */\n  add\n    /* \"#utility.yul\":1509:1573   */\n  tag_26\n  jump\t// in\ntag_71:\n    /* \"#utility.yul\":1499:1573   */\n  swap4\n  pop\n    /* \"#utility.yul\":1455:1583   */\n  pop\n    /* \"#utility.yul\":1622:1624   */\n  0x20\n    /* \"#utility.yul\":1648:1712   */\n  tag_72\n    /* \"#utility.yul\":1704:1711   */\n  dup7\n    /* \"#utility.yul\":1695:1701   */\n  dup3\n    /* \"#utility.yul\":1684:1693   */\n  dup8\n    /* \"#utility.yul\":1680:1702   */\n  add\n    /* \"#utility.yul\":1648:1712   */\n  tag_29\n  jump\t// in\ntag_72:\n    /* \"#utility.yul\":1638:1712   */\n  swap3\n  pop\n    /* \"#utility.yul\":1593:1722   */\n  pop\n    /* \"#utility.yul\":1761:1763   */\n  0x40\n    /* \"#utility.yul\":1787:1851   */\n  tag_73\n    /* \"#utility.yul\":1843:1850   */\n  dup7\n    /* \"#utility.yul\":1834:1840   */\n  dup3\n    /* \"#utility.yul\":1823:1832   */\n  dup8\n    /* \"#utility.yul\":1819:1841   */\n  add\n    /* \"#utility.yul\":1787:1851   */\n  tag_29\n  jump\t// in\ntag_73:\n    /* \"#utility.yul\":1777:1851   */\n  swap2\n  pop\n    /* \"#utility.yul\":1732:1861   */\n  pop\n    /* \"#utility.yul\":1205:1868   */\n  swap3\n  pop\n  swap3\n  pop\n  swap3\n  jump\t// out\n    /* \"#utility.yul\":1874:1992   */\ntag_30:\n    /* \"#utility.yul\":1961:1985   */\n  tag_75\n    /* \"#utility.yul\":1979:1984   */\n  dup2\n    /* \"#utility.yul\":1961:1985   */\n  tag_24\n  jump\t// in\ntag_75:\n    /* \"#utility.yul\":1956:1959   */\n  dup3\n    /* \"#utility.yul\":1949:1986   */\n  mstore\n    /* \"#utility.yul\":1874:1992   */\n  pop\n  pop\n  jump\t// out\n    /* \"#utility.yul\":1998:2220   */\ntag_10:\n    /* \"#utility.yul\":2091:2095   */\n  0x00\n    /* \"#utility.yul\":2129:2131   */\n  0x20\n    /* \"#utility.yul\":2118:2127   */\n  dup3\n    /* \"#utility.yul\":2114:2132   */\n  add\n    /* \"#utility.yul\":2106:2132   */\n  swap1\n  pop\n    /* \"#utility.yul\":2142:2213   */\n  tag_77\n    /* \"#utility.yul\":2210:2211   */\n  0x00\n    /* \"#utility.yul\":2199:2208   */\n  dup4\n    /* \"#utility.yul\":2195:2212   */\n  add\n    /* \"#utility.yul\":2186:2192   */\n  dup5\n    /* \"#utility.yul\":2142:2213   */\n  tag_30\n  jump\t// in\ntag_77:\n    /* \"#utility.yul\":1998:2220   */\n  swap3\n  swap2\n  pop\n  pop\n  jump\t// out\n    /* \"#utility.yul\":2226:2325   */\ntag_31:\n    /* \"#utility.yul\":2278:2284   */\n  0x00\n    /* \"#utility.yul\":2312:2317   */\n  dup2\n    /* \"#utility.yul\":2306:2318   */\n  mload\n    /* \"#utility.yul\":2296:2318   */\n  swap1\n  pop\n    /* \"#utility.yul\":2226:2325   */\n  swap2\n  swap1\n  pop\n  jump\t// out\n    /* \"#utility.yul\":2331:2511   */\ntag_32:\n    /* \"#utility.yul\":2379:2456   */\n  0x4e487b7100000000000000000000000000000000000000000000000000000000\n    /* \"#utility.yul\":2376:2377   */\n  0x00\n    /* \"#utility.yul\":2369:2457   */\n  mstore\n    /* \"#utility.yul\":2476:2480   */\n  0x41\n    /* \"#utility.yul\":2473:2474   */\n  0x04\n    /* \"#utility.yul\":2466:2481   */\n  mstore\n    /* \"#utility.yul\":2500:2504   */\n  0x24\n    /* \"#utility.yul\":2497:2498   */\n  0x00\n    /* \"#utility.yul\":2490:2505   */\n  revert\n    /* \"#utility.yul\":2517:2697   */\ntag_33:\n    /* \"#utility.yul\":2565:2642   */\n  0x4e487b7100000000000000000000000000000000000000000000000000000000\n    /* \"#utility.yul\":2562:2563   */\n  0x00\n    /* \"#utility.yul\":2555:2643   */\n  mstore\n    /* \"#utility.yul\":2662:2666   */\n  0x22\n    /* \"#utility.yul\":2659:2660   */\n  0x04\n    /* \"#utility.yul\":2652:2667   */\n  mstore\n    /* \"#utility.yul\":2686:2690   */\n  0x24\n    /* \"#utility.yul\":2683:2684   */\n  0x00\n    /* \"#utility.yul\":2676:2691   */\n  revert\n    /* \"#utility.yul\":2703:3023   */\ntag_34:\n    /* \"#utility.yul\":2747:2753   */\n  0x00\n    /* \"#utility.yul\":2784:2785   */\n  0x02\n    /* \"#utility.yul\":2778:2782   */\n  dup3\n    /* \"#utility.yul\":2774:2786   */\n  div\n    /* \"#utility.yul\":2764:2786   */\n  swap1\n  pop\n    /* \"#utility.yul\":2831:2832   */\n  0x01\n    /* \"#utility.yul\":2825:2829   */\n  dup3\n    /* \"#utility.yul\":2821:2833   */\n  and\n    /* \"#utility.yul\":2852:2870   */\n  dup1\n    /* \"#utility.yul\":2842:2923   */\n  tag_82\n  jumpi\n    /* \"#utility.yul\":2908:2912   */\n  0x7f\n    /* \"#utility.yul\":2900:2906   */\n  dup3\n    /* \"#utility.yul\":2896:2913   */\n  and\n    /* \"#utility.yul\":2886:2913   */\n  swap2\n  pop\n    /* \"#utility.yul\":2842:2923   */\ntag_82:\n    /* \"#utility.yul\":2970:2972   */\n  0x20\n    /* \"#utility.yul\":2962:2968   */\n  dup3\n    /* \"#utility.yul\":2959:2973   */\n  lt\n    /* \"#utility.yul\":2939:2957   */\n  dup2\n    /* \"#utility.yul\":2936:2974   */\n  sub\n    /* \"#utility.yul\":2933:3017   */\n  tag_83\n  jumpi\n    /* \"#utility.yul\":2989:3007   */\n  tag_84\n  tag_33\n  jump\t// in\ntag_84:\n    /* \"#utility.yul\":2933:3017   */\ntag_83:\n    /* \"#utility.yul\":2754:3023   */\n  pop\n    /* \"#utility.yul\":2703:3023   */\n  swap2\n  swap1\n  pop\n  jump\t// out\n    /* \"#utility.yul\":3029:3170   */\ntag_35:\n    /* \"#utility.yul\":3078:3082   */\n  0x00\n    /* \"#utility.yul\":3101:3104   */\n  dup2\n    /* \"#utility.yul\":3093:3104   */\n  swap1\n  pop\n    /* \"#utility.yul\":3124:3127   */\n  dup2\n    /* \"#utility.yul\":3121:3122   */\n  0x00\n    /* \"#utility.yul\":3114:3128   */\n  mstore\n    /* \"#utility.yul\":3158:3162   */\n  0x20\n    /* \"#utility.yul\":3155:3156   */\n  0x00\n    /* \"#utility.yul\":3145:3163   */\n  keccak256\n    /* \"#utility.yul\":3137:3163   */\n  swap1\n  pop\n    /* \"#utility.yul\":3029:3170   */\n  swap2\n  swap1\n  pop\n  jump\t// out\n    /* \"#utility.yul\":3176:3269   */\ntag_36:\n    /* \"#utility.yul\":3213:3219   */\n  0x00\n    /* \"#utility.yul\":3260:3262   */\n  0x20\n    /* \"#utility.yul\":3255:3257   */\n  0x1f\n    /* \"#utility.yul\":3248:3253   */\n  dup4\n    /* \"#utility.yul\":3244:3258   */\n  add\n    /* \"#utility.yul\":3240:3263   */\n  div\n    /* \"#utility.yul\":3230:3263   */\n  swap1\n  pop\n    /* \"#utility.yul\":3176:3269   */\n  swap2\n  swap1\n  pop\n  jump\t// out\n    /* \"#utility.yul\":3275:3382   */\ntag_37:\n    /* \"#utility.yul\":3319:3327   */\n  0x00\n    /* \"#utility.yul\":3369:3374   */\n  dup3\n    /* \"#utility.yul\":3363:3367   */\n  dup3\n    /* \"#utility.yul\":3359:3375   */\n  shl\n    /* \"#utility.yul\":3338:3375   */\n  swap1\n  pop\n    /* \"#utility.yul\":3275:3382   */\n  swap3\n  swap2\n  pop\n  pop\n  jump\t// out\n    /* \"#utility.yul\":3388:3781   */\ntag_38:\n    /* \"#utility.yul\":3457:3463   */\n  0x00\n    /* \"#utility.yul\":3507:3508   */\n  0x08\n    /* \"#utility.yul\":3495:3505   */\n  dup4\n    /* \"#utility.yul\":3491:3509   */\n  mul\n    /* \"#utility.yul\":3530:3627   */\n  tag_89\n    /* \"#utility.yul\":3560:3626   */\n  0xffffffffffffffffffffffffffffffffffffffffffffffffffffffffffffffff\n    /* \"#utility.yul\":3549:3558   */\n  dup3\n    /* \"#utility.yul\":3530:3627   */\n  tag_37\n  jump\t// in\ntag_89:\n    /* \"#utility.yul\":3648:3687   */\n  tag_90\n    /* \"#utility.yul\":3678:3686   */\n  dup7\n    /* \"#utility.yul\":3667:3676   */\n  dup4\n    /* \"#utility.yul\":3648:3687   */\n  tag_37\n  jump\t// in\ntag_90:\n    /* \"#utility.yul\":3636:3687   */\n  swap6\n  pop\n    /* \"#utility.yul\":3720:3724   */\n  dup1\n    /* \"#utility.yul\":3716:3725   */\n  not\n    /* \"#utility.yul\":3709:3714   */\n  dup5\n    /* \"#utility.yul\":3705:3726   */\n  and\n    /* \"#utility.yul\":3696:3726   */\n  swap4\n  pop\n    /* \"#utility.yul\":3769:3773   */\n  dup1\n    /* \"#utility.yul\":3759:3767   */\n  dup7\n    /* \"#utility.yul\":3755:3774   */\n  and\n    /* \"#utility.yul\":3748:3753   */\n  dup5\n    /* \"#utility.yul\":3745:3775   */\n  or\n    /* \"#utility.yul\":3735:3775   */\n  swap3\n  pop\n    /* \"#utility.yul\":3464:3781   */\n  pop\n  pop\n    /* \"#utility.yul\":3388:3781   */\n  swap4\n  swap3\n  pop\n  pop\n  pop\n  jump\t// out\n    /* \"#utility.yul\":3787:3847   */\ntag_39:\n    /* \"#utility.yul\":3815:3818   */\n  0x00\n    /* \"#utility.yul\":3836:3841   */\n  dup2\n    /* \"#utility.yul\":3829:3841   */\n  swap1\n  pop\n    /* \"#utility.yul\":3787:3847   */\n  swap2\n  swap1\n  pop\n  jump\t// out\n    /* \"#utility.yul\":3853:3995   */\ntag_40:\n    /* \"#utility.yul\":3903:3912   */\n  0x00\n    /* \"#utility.yul\":3936:3989   */\n  tag_93\n    /* \"#utility.yul\":3954:3988   */\n  tag_94\n    /* \"#utility.yul\":3963:3987   */\n  tag_95\n    /* \"#utility.yul\":3981:3986   */\n  dup5\n    /* \"#utility.yul\":3963:3987   */\n  tag_27\n  jump\t// in\ntag_95:\n    /* \"#utility.yul\":3954:3988   */\n  tag_39\n  jump\t// in\ntag_94:\n    /* \"#utility.yul\":3936:3989   */\n  tag_27\n  jump\t// in\ntag_93:\n    /* \"#utility.yul\":3923:3989   */\n  swap1\n  pop\n    /* \"#utility.yul\":3853:3995   */\n  swap2\n  swap1\n  pop\n  jump\t// out\n    /* \"#utility.yul\":4001:4076   */\ntag_41:\n    /* \"#utility.yul\":4044:4047   */\n  0x00\n    /* \"#utility.yul\":4065:4070   */\n  dup2\n    /* \"#utility.yul\":4058:4070   */\n  swap1\n  pop\n    /* \"#utility.yul\":4001:4076   */\n  swap2\n  swap1\n  pop\n  jump\t// out\n    /* \"#utility.yul\":4082:4351   */\ntag_42:\n    /* \"#utility.yul\":4192:4231   */\n  tag_98\n    /* \"#utility.yul\":4223:4230   */\n  dup4\n    /* \"#utility.yul\":4192:4231   */\n  tag_40\n  jump\t// in\ntag_98:\n    /* \"#utility.yul\":4253:4344   */\n  tag_99\n    /* \"#utility.yul\":4302:4343   */\n  tag_100\n    /* \"#utility.yul\":4326:4342   */\n  dup3\n    /* \"#utility.yul\":4302:4343   */\n  tag_41\n  jump\t// in\ntag_100:\n    /* \"#utility.yul\":4294:4300   */\n  dup5\n    /* \"#utility.yul\":4287:4291   */\n  dup5\n    /* \"#utility.yul\":4281:4292   */\n  sload\n    /* \"#utility.yul\":4253:4344   */\n  tag_38\n  jump\t// in\ntag_99:\n    /* \"#utility.yul\":4247:4251   */\n  dup3\n    /* \"#utility.yul\":4240:4345   */\n  sstore\n    /* \"#utility.yul\":4158:4351   */\n  pop\n    /* \"#utility.yul\":4082:4351   */\n  pop\n  pop\n  pop\n  jump\t// out\n    /* \"#utility.yul\":4357:4430   */\ntag_43:\n    /* \"#utility.yul\":4402:4405   */\n  0x00\n    /* \"#utility.yul\":4357:4430   */\n  swap1\n  jump\t// out\n    /* \"#utility.yul\":4436:4625   */\ntag_44:\n    /* \"#utility.yul\":4513:4545   */\n  tag_103\n  tag_43\n  jump\t// in\ntag_103:\n    /* \"#utility.yul\":4554:4619   */\n  tag_104\n    /* \"#utility.yul\":4612:4618   */\n  dup2\n    /* \"#utility.yul\":4604:4610   */\n  dup5\n    /* \"#utility.yul\":4598:4602   */\n  dup5\n    /* \"#utility.yul\":4554:4619   */\n  tag_42\n  jump\t// in\ntag_104:\n    /* \"#utility.yul\":4489:4625   */\n  pop\n    /* \"#utility.yul\":4436:4625   */\n  pop\n  pop\n  jump\t// out\n    /* \"#utility.yul\":4631:4817   */\ntag_45:\n    /* \"#utility.yul\":4691:4811   */\ntag_106:\n    /* \"#utility.yul\":4708:4711   */\n  dup2\n    /* \"#utility.yul\":4701:4706   */\n  dup2\n    /* \"#utility.yul\":4698:4712   */\n  lt\n    /* \"#utility.yul\":4691:4811   */\n  iszero\n  tag_108\n  jumpi\n    /* \"#utility.yul\":4762:4801   */\n  tag_109\n    /* \"#utility.yul\":4799:4800   */\n  0x00\n    /* \"#utility.yul\":4792:4797   */\n  dup3\n    /* \"#utility.yul\":4762:4801   */\n  tag_44\n  jump\t// in\ntag_109:\n    /* \"#utility.yul\":4735:4736   */\n  0x01\n    /* \"#utility.yul\":4728:4733   */\n  dup2\n    /* \"#utility.yul\":4724:4737   */\n  add\n    /* \"#utility.yul\":4715:4737   */\n  swap1\n  pop\n    /* \"#utility.yul\":4691:4811   */\n  jump(tag_106)\ntag_108:\n    /* \"#utility.yul\":4631:4817   */\n  pop\n  pop\n  jump\t// out\n    /* \"#utility.yul\":4823:5366   */\ntag_46:\n    /* \"#utility.yul\":4924:4926   */\n  0x1f\n    /* \"#utility.yul\":4919:4922   */\n  dup3\n    /* \"#utility.yul\":4916:4927   */\n  gt\n    /* \"#utility.yul\":4913:5359   */\n  iszero\n  tag_111\n  jumpi\n    /* \"#utility.yul\":4958:4996   */\n  tag_112\n    /* \"#utility.yul\":4990:4995   */\n  dup2\n    /* \"#utility.yul\":4958:4996   */\n  tag_35\n  jump\t// in\ntag_112:\n    /* \"#utility.yul\":5042:5071   */\n  tag_113\n    /* \"#utility.yul\":5060:5070   */\n  dup5\n    /* \"#utility.yul\":5042:5071   */\n  tag_36\n  jump\t// in\ntag_113:\n    /* \"#utility.yul\":5032:5040   */\n  dup2\n    /* \"#utility.yul\":5028:5072   */\n  add\n    /* \"#utility.yul\":5225:5227   */\n  0x20\n    /* \"#utility.yul\":5213:5223   */\n  dup6\n    /* \"#utility.yul\":5210:5228   */\n  lt\n    /* \"#utility.yul\":5207:5256   */\n  iszero\n  tag_114\n  jumpi\n    /* \"#utility.yul\":5246:5254   */\n  dup2\n    /* \"#utility.yul\":5231:5254   */\n  swap1\n  pop\n    /* \"#utility.yul\":5207:5256   */\ntag_114:\n    /* \"#utility.yul\":5269:5349   */\n  tag_115\n    /* \"#utility.yul\":5325:5347   */\n  tag_116\n    /* \"#utility.yul\":5343:5346   */\n  dup6\n    /* \"#utility.yul\":5325:5347   */\n  tag_36\n  jump\t// in\ntag_116:\n    /* \"#utility.yul\":5315:5323   */\n  dup4\n    /* \"#utility.yul\":5311:5348   */\n  add\n    /* \"#utility.yul\":5298:5309   */\n  dup3\n    /* \"#utility.yul\":5269:5349   */\n  tag_45\n  jump\t// in\ntag_115:\n    /* \"#utility.yul\":4928:5359   */\n  pop\n  pop\n    /* \"#utility.yul\":4913:5359   */\ntag_111:\n    /* \"#utility.yul\":4823:5366   */\n  pop\n  pop\n  pop\n  jump\t// out\n    /* \"#utility.yul\":5372:5489   */\ntag_47:\n    /* \"#utility.yul\":5426:5434   */\n  0x00\n    /* \"#utility.yul\":5476:5481   */\n  dup3\n    /* \"#utility.yul\":5470:5474   */\n  dup3\n    /* \"#utility.yul\":5466:5482   */\n  shr\n    /* \"#utility.yul\":5445:5482   */\n  swap1\n  pop\n    /* \"#utility.yul\":5372:5489   */\n  swap3\n  swap2\n  pop\n  pop\n  jump\t// out\n    /* \"#utility.yul\":5495:5664   */\ntag_48:\n    /* \"#utility.yul\":5539:5545   */\n  0x00\n    /* \"#utility.yul\":5572:5623   */\n  tag_119\n    /* \"#utility.yul\":5620:5621   */\n  0x00\n    /* \"#utility.yul\":5616:5622   */\n  not\n    /* \"#utility.yul\":5608:5613   */\n  dup5\n    /* \"#utility.yul\":5605:5606   */\n  0x08\n    /* \"#utility.yul\":5601:5614   */\n  mul\n    /* \"#utility.yul\":5572:5623   */\n  tag_47\n  jump\t// in\ntag_119:\n    /* \"#utility.yul\":5568:5624   */\n  not\n    /* \"#utility.yul\":5653:5657   */\n  dup1\n    /* \"#utility.yul\":5647:5651   */\n  dup4\n    /* \"#utility.yul\":5643:5658   */\n  and\n    /* \"#utility.yul\":5633:5658   */\n  swap2\n  pop\n    /* \"#utility.yul\":5546:5664   */\n  pop\n    /* \"#utility.yul\":5495:5664   */\n  swap3\n  swap2\n  pop\n  pop\n  jump\t// out\n    /* \"#utility.yul\":5669:5964   */\ntag_49:\n    /* \"#utility.yul\":5745:5749   */\n  0x00\n    /* \"#utility.yul\":5891:5920   */\n  tag_121\n    /* \"#utility.yul\":5916:5919   */\n  dup4\n    /* \"#utility.yul\":5910:5914   */\n  dup4\n    /* \"#utility.yul\":5891:5920   */\n  tag_48\n  jump\t// in\ntag_121:\n    /* \"#utility.yul\":5883:5920   */\n  swap2\n  pop\n    /* \"#utility.yul\":5953:5956   */\n  dup3\n    /* \"#utility.yul\":5950:5951   */\n  0x02\n    /* \"#utility.yul\":5946:5957   */\n  mul\n    /* \"#utility.yul\":5940:5944   */\n  dup3\n    /* \"#utility.yul\":5937:5958   */\n  or\n    /* \"#utility.yul\":5929:5958   */\n  swap1\n  pop\n    /* \"#utility.yul\":5669:5964   */\n  swap3\n  swap2\n  pop\n  pop\n  jump\t// out\n    /* \"#utility.yul\":5969:7364   */\ntag_15:\n    /* \"#utility.yul\":6086:6123   */\n  tag_123\n    /* \"#utility.yul\":6119:6122   */\n  dup3\n    /* \"#utility.yul\":6086:6123   */\n  tag_31\n  jump\t// in\ntag_123:\n    /* \"#utility.yul\":6188:6206   */\n  0xffffffffffffffff\n    /* \"#utility.yul\":6180:6186   */\n  dup2\n    /* \"#utility.yul\":6177:6207   */\n  gt\n    /* \"#utility.yul\":6174:6230   */\n  iszero\n  tag_124\n  jumpi\n    /* \"#utility.yul\":6210:6228   */\n  tag_125\n  tag_32\n  jump\t// in\ntag_125:\n    /* \"#utility.yul\":6174:6230   */\ntag_124:\n    /* \"#utility.yul\":6254:6292   */\n  tag_126\n    /* \"#utility.yul\":6286:6290   */\n  dup3\n    /* \"#utility.yul\":6280:6291   */\n  sload\n    /* \"#utility.yul\":6254:6292   */\n  tag_34\n  jump\t// in\ntag_126:\n    /* \"#utility.yul\":6339:6406   */\n  tag_127\n    /* \"#utility.yul\":6399:6405   */\n  dup3\n    /* \"#utility.yul\":6391:6397   */\n  dup3\n    /* \"#utility.yul\":6385:6389   */\n  dup6\n    /* \"#utility.yul\":6339:6406   */\n  tag_46\n  jump\t// in\ntag_127:\n    /* \"#utility.yul\":6433:6434   */\n  0x00\n    /* \"#utility.yul\":6457:6461   */\n  0x20\n    /* \"#utility.yul\":6444:6461   */\n  swap1\n  pop\n    /* \"#utility.yul\":6489:6491   */\n  0x1f\n    /* \"#utility.yul\":6481:6487   */\n  dup4\n    /* \"#utility.yul\":6478:6492   */\n  gt\n    /* \"#utility.yul\":6506:6507   */\n  0x01\n    /* \"#utility.yul\":6501:7119   */\n  dup2\n  eq\n  tag_129\n  jumpi\n    /* \"#utility.yul\":7163:7164   */\n  0x00\n    /* \"#utility.yul\":7180:7186   */\n  dup5\n    /* \"#utility.yul\":7177:7254   */\n  iszero\n  tag_130\n  jumpi\n    /* \"#utility.yul\":7229:7238   */\n  dup3\n    /* \"#utility.yul\":7224:7227   */\n  dup8\n    /* \"#utility.yul\":7220:7239   */\n  add\n    /* \"#utility.yul\":7214:7240   */\n  mload\n    /* \"#utility.yul\":7205:7240   */\n  swap1\n  pop\n    /* \"#utility.yul\":7177:7254   */\ntag_130:\n    /* \"#utility.yul\":7280:7347   */\n  tag_131\n    /* \"#utility.yul\":7340:7346   */\n  dup6\n    /* \"#utility.yul\":7333:7338   */\n  dup3\n    /* \"#utility.yul\":7280:7347   */\n  tag_49\n  jump\t// in\ntag_131:\n    /* \"#utility.yul\":7274:7278   */\n  dup7\n    /* \"#utility.yul\":7267:7348   */\n  sstore\n    /* \"#utility.yul\":7136:7358   */\n  pop\n    /* \"#utility.yul\":6471:7358   */\n  jump(tag_128)\n    /* \"#utility.yul\":6501:7119   */\ntag_129:\n    /* \"#utility.yul\":6553:6557   */\n  0x1f\n    /* \"#utility.yul\":6549:6558   */\n  not\n    /* \"#utility.yul\":6541:6547   */\n  dup5\n    /* \"#utility.yul\":6537:6559   */\n  and\n    /* \"#utility.yul\":6587:6624   */\n  tag_132\n    /* \"#utility.yul\":6619:6623   */\n  dup7\n    /* \"#utility.yul\":6587:6624   */\n  tag_35\n  jump\t// in\ntag_132:\n    /* \"#utility.yul\":6646:6647   */\n  0x00\n    /* \"#utility.yul\":6660:6868   */\ntag_133:\n    /* \"#utility.yul\":6674:6681   */\n  dup3\n    /* \"#utility.yul\":6671:6672   */\n  dup2\n    /* \"#utility.yul\":6668:6682   */\n  lt\n    /* \"#utility.yul\":6660:6868   */\n  iszero\n  tag_135\n  jumpi\n    /* \"#utility.yul\":6753:6762   */\n  dup5\n    /* \"#utility.yul\":6748:6751   */\n  dup10\n    /* \"#utility.yul\":6744:6763   */\n  add\n    /* \"#utility.yul\":6738:6764   */\n  mload\n    /* \"#utility.yul\":6730:6736   */\n  dup3\n    /* \"#utility.yul\":6723:6765   */\n  sstore\n    /* \"#utility.yul\":6804:6805   */\n  0x01\n    /* \"#utility.yul\":6796:6802   */\n  dup3\n    /* \"#utility.yul\":6792:6806   */\n  add\n    /* \"#utility.yul\":6782:6806   */\n  swap2\n  pop\n    /* \"#utility.yul\":6851:6853   */\n  0x20\n    /* \"#utility.yul\":6840:6849   */\n  dup6\n    /* \"#utility.yul\":6836:6854   */\n  add\n    /* \"#utility.yul\":6823:6854   */\n  swap5\n  pop\n    /* \"#utility.yul\":6697:6701   */\n  0x20\n    /* \"#utility.yul\":6694:6695   */\n  dup2\n    /* \"#utility.yul\":6690:6702   */\n  add\n    /* \"#utility.yul\":6685:6702   */\n  swap1\n  pop\n    /* \"#utility.yul\":6660:6868   */\n  jump(tag_133)\ntag_135:\n    /* \"#utility.yul\":6896:6902   */\n  dup7\n    /* \"#utility.yul\":6887:6894   */\n  dup4\n    /* \"#utility.yul\":6884:6903   */\n  lt\n    /* \"#utility.yul\":6881:7060   */\n  iszero\n  tag_136\n  jumpi\n    /* \"#utility.yul\":6954:6963   */\n  dup5\n    /* \"#utility.yul\":6949:6952   */\n  dup10\n    /* \"#utility.yul\":6945:6964   */\n  add\n    /* \"#utility.yul\":6939:6965   */\n  mload\n    /* \"#utility.yul\":6997:7045   */\n  tag_137\n    /* \"#utility.yul\":7039:7043   */\n  0x1f\n    /* \"#utility.yul\":7031:7037   */\n  dup10\n    /* \"#utility.yul\":7027:7044   */\n  and\n    /* \"#utility.yul\":7016:7025   */\n  dup3\n    /* \"#utility.yul\":6997:7045   */\n  tag_48\n  jump\t// in\ntag_137:\n    /* \"#utility.yul\":6989:6995   */\n  dup4\n    /* \"#utility.yul\":6982:7046   */\n  sstore\n    /* \"#utility.yul\":6904:7060   */\n  pop\n    /* \"#utility.yul\":6881:7060   */\ntag_136:\n    /* \"#utility.yul\":7106:7107   */\n  0x01\n    /* \"#utility.yul\":7102:7103   */\n  0x02\n    /* \"#utility.yul\":7094:7100   */\n  dup9\n    /* \"#utility.yul\":7090:7104   */\n  mul\n    /* \"#utility.yul\":7086:7108   */\n  add\n    /* \"#utility.yul\":7080:7084   */\n  dup9\n    /* \"#utility.yul\":7073:7109   */\n  sstore\n    /* \"#utility.yul\":6508:7119   */\n  pop\n  pop\n  pop\n    /* \"#utility.yul\":6471:7358   */\ntag_128:\n  pop\n    /* \"#utility.yul\":6061:7364   */\n  pop\n  pop\n  pop\n    /* \"#utility.yul\":5969:7364   */\n  pop\n  pop\n  jump\t// out\n    /* \"interoperatibility/sapCont.sol\":411:3286  contract OmniChainNFT is Ownable, ERC721, ILayerZeroReceiver {... */\ntag_18:\n  dataSize(sub_0)\n  dup1\n  dataOffset(sub_0)\n  0x00\n  codecopy\n  0x00\n  return\nstop\n\nsub_0: assembly {\n        /* \"interoperatibility/sapCont.sol\":411:3286  contract OmniChainNFT is Ownable, ERC721, ILayerZeroReceiver {... */\n      mstore(0x40, 0x80)\n      jumpi(tag_1, lt(calldatasize, 0x04))\n      shr(0xe0, calldataload(0x00))\n      dup1\n      0x6352211e\n      gt\n      tag_23\n      jumpi\n      dup1\n      0xa22cb465\n      gt\n      tag_24\n      jumpi\n      dup1\n      0xa22cb465\n      eq\n      tag_17\n      jumpi\n      dup1\n      0xb88d4fde\n      eq\n      tag_18\n      jumpi\n      dup1\n      0xbaf1639e\n      eq\n      tag_19\n      jumpi\n      dup1\n      0xc87b56dd\n      eq\n      tag_20\n      jumpi\n      dup1\n      0xe985e9c5\n      eq\n      tag_21\n      jumpi\n      dup1\n      0xf2fde38b\n      eq\n      tag_22\n      jumpi\n      jump(tag_1)\n    tag_24:\n      dup1\n      0x6352211e\n      eq\n      tag_12\n      jumpi\n      dup1\n      0x70a08231\n      eq\n      tag_13\n      jumpi\n      dup1\n      0x715018a6\n      eq\n      tag_14\n      jumpi\n      dup1\n      0x8da5cb5b\n      eq\n      tag_15\n      jumpi\n      dup1\n      0x95d89b41\n      eq\n      tag_16\n      jumpi\n      jump(tag_1)\n    tag_23:\n      dup1\n      0x1249c58b\n      gt\n      tag_25\n      jumpi\n      dup1\n      0x1249c58b\n      eq\n      tag_7\n      jumpi\n      dup1\n      0x23b872dd\n      eq\n      tag_8\n      jumpi\n      dup1\n      0x40a7bb10\n      eq\n      tag_9\n      jumpi\n      dup1\n      0x42842e0e\n      eq\n      tag_10\n      jumpi\n      dup1\n      0x5e280f11\n      eq\n      tag_11\n      jumpi\n      jump(tag_1)\n    tag_25:\n      dup1\n      0x1d3567\n      eq\n      tag_2\n      jumpi\n      dup1\n      0x01ffc9a7\n      eq\n      tag_3\n      jumpi\n      dup1\n      0x06fdde03\n      eq\n      tag_4\n      jumpi\n      dup1\n      0x081812fc\n      eq\n      tag_5\n      jumpi\n      dup1\n      0x095ea7b3\n      eq\n      tag_6\n      jumpi\n    tag_1:\n      0x00\n      dup1\n      revert\n        /* \"interoperatibility/sapCont.sol\":2174:2748  function lzReceive(... */\n    tag_2:\n      callvalue\n      dup1\n      iszero\n      tag_26\n      jumpi\n      0x00\n      dup1\n      revert\n    tag_26:\n      pop\n      tag_27\n      0x04\n      dup1\n      calldatasize\n      sub\n      dup2\n      add\n      swap1\n      tag_28\n      swap2\n      swap1\n      tag_29\n      jump\t// in\n    tag_28:\n      tag_30\n      jump\t// in\n    tag_27:\n      stop\n        /* \"@openzeppelin/contracts/token/ERC721/ERC721.sol\":1561:1861  function supportsInterface(bytes4 interfaceId) public view virtual override(ERC165, IERC165) returns (bool) {... */\n    tag_3:\n      callvalue\n      dup1\n      iszero\n      tag_31\n      jumpi\n      0x00\n      dup1\n      revert\n    tag_31:\n      pop\n      tag_32\n      0x04\n      dup1\n      calldatasize\n      sub\n      dup2\n      add\n      swap1\n      tag_33\n      swap2\n      swap1\n      tag_34\n      jump\t// in\n    tag_33:\n      tag_35\n      jump\t// in\n    tag_32:\n      mload(0x40)\n      tag_36\n      swap2\n      swap1\n      tag_37\n      jump\t// in\n    tag_36:\n      mload(0x40)\n      dup1\n      swap2\n      sub\n      swap1\n      return\n        /* \"@openzeppelin/contracts/token/ERC721/ERC721.sol\":2365:2454  function name() public view virtual returns (string memory) {... */\n    tag_4:\n      callvalue\n      dup1\n      iszero\n      tag_38\n      jumpi\n      0x00\n      dup1\n      revert\n    tag_38:\n      pop\n      tag_39\n      tag_40\n      jump\t// in\n    tag_39:\n      mload(0x40)\n      tag_41\n      swap2\n      swap1\n      tag_42\n      jump\t// in\n    tag_41:\n      mload(0x40)\n      dup1\n      swap2\n      sub\n      swap1\n      return\n        /* \"@openzeppelin/contracts/token/ERC721/ERC721.sol\":3497:3651  function getApproved(uint256 tokenId) public view virtual returns (address) {... */\n    tag_5:\n      callvalue\n      dup1\n      iszero\n      tag_43\n      jumpi\n      0x00\n      dup1\n      revert\n    tag_43:\n      pop\n      tag_44\n      0x04\n      dup1\n      calldatasize\n      sub\n      dup2\n      add\n      swap1\n      tag_45\n      swap2\n      swap1\n      tag_46\n      jump\t// in\n    tag_45:\n      tag_47\n      jump\t// in\n    tag_44:\n      mload(0x40)\n      tag_48\n      swap2\n      swap1\n      tag_49\n      jump\t// in\n    tag_48:\n      mload(0x40)\n      dup1\n      swap2\n      sub\n      swap1\n      return\n        /* \"@openzeppelin/contracts/token/ERC721/ERC721.sol\":3323:3436  function approve(address to, uint256 tokenId) public virtual {... */\n    tag_6:\n      callvalue\n      dup1\n      iszero\n      tag_50\n      jumpi\n      0x00\n      dup1\n      revert\n    tag_50:\n      pop\n      tag_51\n      0x04\n      dup1\n      calldatasize\n      sub\n      dup2\n      add\n      swap1\n      tag_52\n      swap2\n      swap1\n      tag_53\n      jump\t// in\n    tag_52:\n      tag_54\n      jump\t// in\n    tag_51:\n      stop\n        /* \"interoperatibility/sapCont.sol\":969:1145  function mint() external payable {... */\n    tag_7:\n      tag_55\n      tag_56\n      jump\t// in\n    tag_55:\n      stop\n        /* \"@openzeppelin/contracts/token/ERC721/ERC721.sol\":4143:4721  function transferFrom(address from, address to, uint256 tokenId) public virtual {... */\n    tag_8:\n      callvalue\n      dup1\n      iszero\n      tag_57\n      jumpi\n      0x00\n      dup1\n      revert\n    tag_57:\n      pop\n      tag_58\n      0x04\n      dup1\n      calldatasize\n      sub\n      dup2\n      add\n      swap1\n      tag_59\n      swap2\n      swap1\n      tag_60\n      jump\t// in\n    tag_59:\n      tag_61\n      jump\t// in\n    tag_58:\n      stop\n        /* \"interoperatibility/sapCont.sol\":2821:3284  function estimateFees(... */\n    tag_9:\n      callvalue\n      dup1\n      iszero\n      tag_62\n      jumpi\n      0x00\n      dup1\n      revert\n    tag_62:\n      pop\n      tag_63\n      0x04\n      dup1\n      calldatasize\n      sub\n      dup2\n      add\n      swap1\n      tag_64\n      swap2\n      swap1\n      tag_65\n      jump\t// in\n    tag_64:\n      tag_66\n      jump\t// in\n    tag_63:\n      mload(0x40)\n      tag_67\n      swap3\n      swap2\n      swap1\n      tag_68\n      jump\t// in\n    tag_67:\n      mload(0x40)\n      dup1\n      swap2\n      sub\n      swap1\n      return\n        /* \"@openzeppelin/contracts/token/ERC721/ERC721.sol\":4787:4919  function safeTransferFrom(address from, address to, uint256 tokenId) public {... */\n    tag_10:\n      callvalue\n      dup1\n      iszero\n      tag_69\n      jumpi\n      0x00\n      dup1\n      revert\n    tag_69:\n      pop\n      tag_70\n      0x04\n      dup1\n      calldatasize\n      sub\n      dup2\n      add\n      swap1\n      tag_71\n      swap2\n      swap1\n      tag_60\n      jump\t// in\n    tag_71:\n      tag_72\n      jump\t// in\n    tag_70:\n      stop\n        /* \"interoperatibility/sapCont.sol\":576:610  ILayerZeroEndpoint public endpoint */\n    tag_11:\n      callvalue\n      dup1\n      iszero\n      tag_73\n      jumpi\n      0x00\n      dup1\n      revert\n    tag_73:\n      pop\n      tag_74\n      tag_75\n      jump\t// in\n    tag_74:\n      mload(0x40)\n      tag_76\n      swap2\n      swap1\n      tag_77\n      jump\t// in\n    tag_76:\n      mload(0x40)\n      dup1\n      swap2\n      sub\n      swap1\n      return\n        /* \"@openzeppelin/contracts/token/ERC721/ERC721.sol\":2185:2303  function ownerOf(uint256 tokenId) public view virtual returns (address) {... */\n    tag_12:\n      callvalue\n      dup1\n      iszero\n      tag_78\n      jumpi\n      0x00\n      dup1\n      revert\n    tag_78:\n      pop\n      tag_79\n      0x04\n      dup1\n      calldatasize\n      sub\n      dup2\n      add\n      swap1\n      tag_80\n      swap2\n      swap1\n      tag_46\n      jump\t// in\n    tag_80:\n      tag_81\n      jump\t// in\n    tag_79:\n      mload(0x40)\n      tag_82\n      swap2\n      swap1\n      tag_49\n      jump\t// in\n    tag_82:\n      mload(0x40)\n      dup1\n      swap2\n      sub\n      swap1\n      return\n        /* \"@openzeppelin/contracts/token/ERC721/ERC721.sol\":1920:2128  function balanceOf(address owner) public view virtual returns (uint256) {... */\n    tag_13:\n      callvalue\n      dup1\n      iszero\n      tag_83\n      jumpi\n      0x00\n      dup1\n      revert\n    tag_83:\n      pop\n      tag_84\n      0x04\n      dup1\n      calldatasize\n      sub\n      dup2\n      add\n      swap1\n      tag_85\n      swap2\n      swap1\n      tag_86\n      jump\t// in\n    tag_85:\n      tag_87\n      jump\t// in\n    tag_84:\n      mload(0x40)\n      tag_88\n      swap2\n      swap1\n      tag_89\n      jump\t// in\n    tag_88:\n      mload(0x40)\n      dup1\n      swap2\n      sub\n      swap1\n      return\n        /* \"@openzeppelin/contracts/access/Ownable.sol\":2293:2394  function renounceOwnership() public virtual onlyOwner {... */\n    tag_14:\n      callvalue\n      dup1\n      iszero\n      tag_90\n      jumpi\n      0x00\n      dup1\n      revert\n    tag_90:\n      pop\n      tag_91\n      tag_92\n      jump\t// in\n    tag_91:\n      stop\n        /* \"@openzeppelin/contracts/access/Ownable.sol\":1638:1723  function owner() public view virtual returns (address) {... */\n    tag_15:\n      callvalue\n      dup1\n      iszero\n      tag_93\n      jumpi\n      0x00\n      dup1\n      revert\n    tag_93:\n      pop\n      tag_94\n      tag_95\n      jump\t// in\n    tag_94:\n      mload(0x40)\n      tag_96\n      swap2\n      swap1\n      tag_49\n      jump\t// in\n    tag_96:\n      mload(0x40)\n      dup1\n      swap2\n      sub\n      swap1\n      return\n        /* \"@openzeppelin/contracts/token/ERC721/ERC721.sol\":2518:2611  function symbol() public view virtual returns (string memory) {... */\n    tag_16:\n      callvalue\n      dup1\n      iszero\n      tag_97\n      jumpi\n      0x00\n      dup1\n      revert\n    tag_97:\n      pop\n      tag_98\n      tag_99\n      jump\t// in\n    tag_98:\n      mload(0x40)\n      tag_100\n      swap2\n      swap1\n      tag_42\n      jump\t// in\n    tag_100:\n      mload(0x40)\n      dup1\n      swap2\n      sub\n      swap1\n      return\n        /* \"@openzeppelin/contracts/token/ERC721/ERC721.sol\":3718:3862  function setApprovalForAll(address operator, bool approved) public virtual {... */\n    tag_17:\n      callvalue\n      dup1\n      iszero\n      tag_101\n      jumpi\n      0x00\n      dup1\n      revert\n    tag_101:\n      pop\n      tag_102\n      0x04\n      dup1\n      calldatasize\n      sub\n      dup2\n      add\n      swap1\n      tag_103\n      swap2\n      swap1\n      tag_104\n      jump\t// in\n    tag_103:\n      tag_105\n      jump\t// in\n    tag_102:\n      stop\n        /* \"@openzeppelin/contracts/token/ERC721/ERC721.sol\":4985:5193  function safeTransferFrom(address from, address to, uint256 tokenId, bytes memory data) public virtual {... */\n    tag_18:\n      callvalue\n      dup1\n      iszero\n      tag_106\n      jumpi\n      0x00\n      dup1\n      revert\n    tag_106:\n      pop\n      tag_107\n      0x04\n      dup1\n      calldatasize\n      sub\n      dup2\n      add\n      swap1\n      tag_108\n      swap2\n      swap1\n      tag_109\n      jump\t// in\n    tag_108:\n      tag_110\n      jump\t// in\n    tag_107:\n      stop\n        /* \"interoperatibility/sapCont.sol\":1150:2169  function crossChain(... */\n    tag_19:\n      tag_111\n      0x04\n      dup1\n      calldatasize\n      sub\n      dup2\n      add\n      swap1\n      tag_112\n      swap2\n      swap1\n      tag_113\n      jump\t// in\n    tag_112:\n      tag_114\n      jump\t// in\n    tag_111:\n      stop\n        /* \"@openzeppelin/contracts/token/ERC721/ERC721.sol\":2677:2932  function tokenURI(uint256 tokenId) public view virtual returns (string memory) {... */\n    tag_20:\n      callvalue\n      dup1\n      iszero\n      tag_115\n      jumpi\n      0x00\n      dup1\n      revert\n    tag_115:\n      pop\n      tag_116\n      0x04\n      dup1\n      calldatasize\n      sub\n      dup2\n      add\n      swap1\n      tag_117\n      swap2\n      swap1\n      tag_46\n      jump\t// in\n    tag_117:\n      tag_118\n      jump\t// in\n    tag_116:\n      mload(0x40)\n      tag_119\n      swap2\n      swap1\n      tag_42\n      jump\t// in\n    tag_119:\n      mload(0x40)\n      dup1\n      swap2\n      sub\n      swap1\n      return\n        /* \"@openzeppelin/contracts/token/ERC721/ERC721.sol\":3928:4081  function isApprovedForAll(address owner, address operator) public view virtual returns (bool) {... */\n    tag_21:\n      callvalue\n      dup1\n      iszero\n      tag_120\n      jumpi\n      0x00\n      dup1\n      revert\n    tag_120:\n      pop\n      tag_121\n      0x04\n      dup1\n      calldatasize\n      sub\n      dup2\n      add\n      swap1\n      tag_122\n      swap2\n      swap1\n      tag_123\n      jump\t// in\n    tag_122:\n      tag_124\n      jump\t// in\n    tag_121:\n      mload(0x40)\n      tag_125\n      swap2\n      swap1\n      tag_37\n      jump\t// in\n    tag_125:\n      mload(0x40)\n      dup1\n      swap2\n      sub\n      swap1\n      return\n        /* \"@openzeppelin/contracts/access/Ownable.sol\":2543:2758  function transferOwnership(address newOwner) public virtual onlyOwner {... */\n    tag_22:\n      callvalue\n      dup1\n      iszero\n      tag_126\n      jumpi\n      0x00\n      dup1\n      revert\n    tag_126:\n      pop\n      tag_127\n      0x04\n      dup1\n      calldatasize\n      sub\n      dup2\n      add\n      swap1\n      tag_128\n      swap2\n      swap1\n      tag_86\n      jump\t// in\n    tag_128:\n      tag_129\n      jump\t// in\n    tag_127:\n      stop\n        /* \"interoperatibility/sapCont.sol\":2174:2748  function lzReceive(... */\n    tag_30:\n        /* \"interoperatibility/sapCont.sol\":2360:2368  endpoint */\n      0x0b\n      0x00\n      swap1\n      sload\n      swap1\n      0x0100\n      exp\n      swap1\n      div\n      0xffffffffffffffffffffffffffffffffffffffff\n      and\n        /* \"interoperatibility/sapCont.sol\":2338:2369  msg.sender == address(endpoint) */\n      0xffffffffffffffffffffffffffffffffffffffff\n      and\n        /* \"interoperatibility/sapCont.sol\":2338:2348  msg.sender */\n      caller\n        /* \"interoperatibility/sapCont.sol\":2338:2369  msg.sender == address(endpoint) */\n      0xffffffffffffffffffffffffffffffffffffffff\n      and\n      eq\n        /* \"interoperatibility/sapCont.sol\":2330:2370  require(msg.sender == address(endpoint)) */\n      tag_131\n      jumpi\n      0x00\n      dup1\n      revert\n    tag_131:\n        /* \"interoperatibility/sapCont.sol\":2380:2392  address from */\n      0x00\n        /* \"interoperatibility/sapCont.sol\":2450:2452  20 */\n      0x14\n        /* \"interoperatibility/sapCont.sol\":2443:2448  _from */\n      dup5\n        /* \"interoperatibility/sapCont.sol\":2439:2453  add(_from, 20) */\n      add\n        /* \"interoperatibility/sapCont.sol\":2433:2454  mload(add(_from, 20)) */\n      mload\n        /* \"interoperatibility/sapCont.sol\":2425:2454  from := mload(add(_from, 20)) */\n      swap1\n      pop\n        /* \"interoperatibility/sapCont.sol\":2474:2491  address toAddress */\n      0x00\n        /* \"interoperatibility/sapCont.sol\":2493:2508  uint256 tokenId */\n      dup1\n        /* \"interoperatibility/sapCont.sol\":2536:2544  _payload */\n      dup4\n        /* \"interoperatibility/sapCont.sol\":2512:2586  abi.decode(... */\n      dup1\n      0x20\n      add\n      swap1\n      mload\n      dup2\n      add\n      swap1\n      tag_132\n      swap2\n      swap1\n      tag_133\n      jump\t// in\n    tag_132:\n        /* \"interoperatibility/sapCont.sol\":2473:2586  (address toAddress, uint256 tokenId) = abi.decode(... */\n      swap2\n      pop\n      swap2\n      pop\n        /* \"interoperatibility/sapCont.sol\":2623:2652  _safeMint(toAddress, tokenId) */\n      tag_134\n        /* \"interoperatibility/sapCont.sol\":2633:2642  toAddress */\n      dup3\n        /* \"interoperatibility/sapCont.sol\":2644:2651  tokenId */\n      dup3\n        /* \"interoperatibility/sapCont.sol\":2623:2632  _safeMint */\n      tag_135\n        /* \"interoperatibility/sapCont.sol\":2623:2652  _safeMint(toAddress, tokenId) */\n      jump\t// in\n    tag_134:\n        /* \"interoperatibility/sapCont.sol\":2673:2674  1 */\n      0x01\n        /* \"interoperatibility/sapCont.sol\":2662:2669  counter */\n      0x07\n      0x00\n        /* \"interoperatibility/sapCont.sol\":2662:2674  counter += 1 */\n      dup3\n      dup3\n      sload\n      tag_136\n      swap2\n      swap1\n      tag_137\n      jump\t// in\n    tag_136:\n      swap3\n      pop\n      pop\n      dup2\n      swap1\n      sstore\n      pop\n        /* \"interoperatibility/sapCont.sol\":2689:2741  ReceiveNFT(_srcChainId, toAddress, tokenId, counter) */\n      0xec16668a9529c4fc256054f3e18620ef50c89aec357376cce821207ff1e656f0\n        /* \"interoperatibility/sapCont.sol\":2700:2711  _srcChainId */\n      dup8\n        /* \"interoperatibility/sapCont.sol\":2713:2722  toAddress */\n      dup4\n        /* \"interoperatibility/sapCont.sol\":2724:2731  tokenId */\n      dup4\n        /* \"interoperatibility/sapCont.sol\":2733:2740  counter */\n      sload(0x07)\n        /* \"interoperatibility/sapCont.sol\":2689:2741  ReceiveNFT(_srcChainId, toAddress, tokenId, counter) */\n      mload(0x40)\n      tag_138\n      swap5\n      swap4\n      swap3\n      swap2\n      swap1\n      tag_139\n      jump\t// in\n    tag_138:\n      mload(0x40)\n      dup1\n      swap2\n      sub\n      swap1\n      log1\n        /* \"interoperatibility/sapCont.sol\":2320:2748  {... */\n      pop\n      pop\n      pop\n        /* \"interoperatibility/sapCont.sol\":2174:2748  function lzReceive(... */\n      pop\n      pop\n      pop\n      pop\n      jump\t// out\n        /* \"@openzeppelin/contracts/token/ERC721/ERC721.sol\":1561:1861  function supportsInterface(bytes4 interfaceId) public view virtual override(ERC165, IERC165) returns (bool) {... */\n    tag_35:\n        /* \"@openzeppelin/contracts/token/ERC721/ERC721.sol\":1663:1667  bool */\n      0x00\n        /* \"@openzeppelin/contracts/token/ERC721/ERC721.sol\":1713:1738  type(IERC721).interfaceId */\n      0x80ac58cd00000000000000000000000000000000000000000000000000000000\n        /* \"@openzeppelin/contracts/token/ERC721/ERC721.sol\":1698:1738  interfaceId == type(IERC721).interfaceId */\n      not(0xffffffffffffffffffffffffffffffffffffffffffffffffffffffff)\n      and\n        /* \"@openzeppelin/contracts/token/ERC721/ERC721.sol\":1698:1709  interfaceId */\n      dup3\n        /* \"@openzeppelin/contracts/token/ERC721/ERC721.sol\":1698:1738  interfaceId == type(IERC721).interfaceId */\n      not(0xffffffffffffffffffffffffffffffffffffffffffffffffffffffff)\n      and\n      eq\n        /* \"@openzeppelin/contracts/token/ERC721/ERC721.sol\":1698:1802  interfaceId == type(IERC721).interfaceId ||... */\n      dup1\n      tag_141\n      jumpi\n      pop\n        /* \"@openzeppelin/contracts/token/ERC721/ERC721.sol\":1769:1802  type(IERC721Metadata).interfaceId */\n      0x5b5e139f00000000000000000000000000000000000000000000000000000000\n        /* \"@openzeppelin/contracts/token/ERC721/ERC721.sol\":1754:1802  interfaceId == type(IERC721Metadata).interfaceId */\n      not(0xffffffffffffffffffffffffffffffffffffffffffffffffffffffff)\n      and\n        /* \"@openzeppelin/contracts/token/ERC721/ERC721.sol\":1754:1765  interfaceId */\n      dup3\n        /* \"@openzeppelin/contracts/token/ERC721/ERC721.sol\":1754:1802  interfaceId == type(IERC721Metadata).interfaceId */\n      not(0xffffffffffffffffffffffffffffffffffffffffffffffffffffffff)\n      and\n      eq\n        /* \"@openzeppelin/contracts/token/ERC721/ERC721.sol\":1698:1802  interfaceId == type(IERC721).interfaceId ||... */\n    tag_141:\n        /* \"@openzeppelin/contracts/token/ERC721/ERC721.sol\":1698:1854  interfaceId == type(IERC721).interfaceId ||... */\n      dup1\n      tag_142\n      jumpi\n      pop\n        /* \"@openzeppelin/contracts/token/ERC721/ERC721.sol\":1818:1854  super.supportsInterface(interfaceId) */\n      tag_143\n        /* \"@openzeppelin/contracts/token/ERC721/ERC721.sol\":1842:1853  interfaceId */\n      dup3\n        /* \"@openzeppelin/contracts/token/ERC721/ERC721.sol\":1818:1841  super.supportsInterface */\n      tag_144\n        /* \"@openzeppelin/contracts/token/ERC721/ERC721.sol\":1818:1854  super.supportsInterface(interfaceId) */\n      jump\t// in\n    tag_143:\n        /* \"@openzeppelin/contracts/token/ERC721/ERC721.sol\":1698:1854  interfaceId == type(IERC721).interfaceId ||... */\n    tag_142:\n        /* \"@openzeppelin/contracts/token/ERC721/ERC721.sol\":1679:1854  return... */\n      swap1\n      pop\n        /* \"@openzeppelin/contracts/token/ERC721/ERC721.sol\":1561:1861  function supportsInterface(bytes4 interfaceId) public view virtual override(ERC165, IERC165) returns (bool) {... */\n      swap2\n      swap1\n      pop\n      jump\t// out\n        /* \"@openzeppelin/contracts/token/ERC721/ERC721.sol\":2365:2454  function name() public view virtual returns (string memory) {... */\n    tag_40:\n        /* \"@openzeppelin/contracts/token/ERC721/ERC721.sol\":2410:2423  string memory */\n      0x60\n        /* \"@openzeppelin/contracts/token/ERC721/ERC721.sol\":2442:2447  _name */\n      0x01\n        /* \"@openzeppelin/contracts/token/ERC721/ERC721.sol\":2435:2447  return _name */\n      dup1\n      sload\n      tag_146\n      swap1\n      tag_147\n      jump\t// in\n    tag_146:\n      dup1\n      0x1f\n      add\n      0x20\n      dup1\n      swap2\n      div\n      mul\n      0x20\n      add\n      mload(0x40)\n      swap1\n      dup2\n      add\n      0x40\n      mstore\n      dup1\n      swap3\n      swap2\n      swap1\n      dup2\n      dup2\n      mstore\n      0x20\n      add\n      dup3\n      dup1\n      sload\n      tag_148\n      swap1\n      tag_147\n      jump\t// in\n    tag_148:\n      dup1\n      iszero\n      tag_149\n      jumpi\n      dup1\n      0x1f\n      lt\n      tag_150\n      jumpi\n      0x0100\n      dup1\n      dup4\n      sload\n      div\n      mul\n      dup4\n      mstore\n      swap2\n      0x20\n      add\n      swap2\n      jump(tag_149)\n    tag_150:\n      dup3\n      add\n      swap2\n      swap1\n      0x00\n      mstore\n      keccak256(0x00, 0x20)\n      swap1\n    tag_151:\n      dup2\n      sload\n      dup2\n      mstore\n      swap1\n      0x01\n      add\n      swap1\n      0x20\n      add\n      dup1\n      dup4\n      gt\n      tag_151\n      jumpi\n      dup3\n      swap1\n      sub\n      0x1f\n      and\n      dup3\n      add\n      swap2\n    tag_149:\n      pop\n      pop\n      pop\n      pop\n      pop\n      swap1\n      pop\n        /* \"@openzeppelin/contracts/token/ERC721/ERC721.sol\":2365:2454  function name() public view virtual returns (string memory) {... */\n      swap1\n      jump\t// out\n        /* \"@openzeppelin/contracts/token/ERC721/ERC721.sol\":3497:3651  function getApproved(uint256 tokenId) public view virtual returns (address) {... */\n    tag_47:\n        /* \"@openzeppelin/contracts/token/ERC721/ERC721.sol\":3564:3571  address */\n      0x00\n        /* \"@openzeppelin/contracts/token/ERC721/ERC721.sol\":3583:3605  _requireOwned(tokenId) */\n      tag_153\n        /* \"@openzeppelin/contracts/token/ERC721/ERC721.sol\":3597:3604  tokenId */\n      dup3\n        /* \"@openzeppelin/contracts/token/ERC721/ERC721.sol\":3583:3596  _requireOwned */\n      tag_154\n        /* \"@openzeppelin/contracts/token/ERC721/ERC721.sol\":3583:3605  _requireOwned(tokenId) */\n      jump\t// in\n    tag_153:\n      pop\n        /* \"@openzeppelin/contracts/token/ERC721/ERC721.sol\":3623:3644  _getApproved(tokenId) */\n      tag_155\n        /* \"@openzeppelin/contracts/token/ERC721/ERC721.sol\":3636:3643  tokenId */\n      dup3\n        /* \"@openzeppelin/contracts/token/ERC721/ERC721.sol\":3623:3635  _getApproved */\n      tag_156\n        /* \"@openzeppelin/contracts/token/ERC721/ERC721.sol\":3623:3644  _getApproved(tokenId) */\n      jump\t// in\n    tag_155:\n        /* \"@openzeppelin/contracts/token/ERC721/ERC721.sol\":3616:3644  return _getApproved(tokenId) */\n      swap1\n      pop\n        /* \"@openzeppelin/contracts/token/ERC721/ERC721.sol\":3497:3651  function getApproved(uint256 tokenId) public view virtual returns (address) {... */\n      swap2\n      swap1\n      pop\n      jump\t// out\n        /* \"@openzeppelin/contracts/token/ERC721/ERC721.sol\":3323:3436  function approve(address to, uint256 tokenId) public virtual {... */\n    tag_54:\n        /* \"@openzeppelin/contracts/token/ERC721/ERC721.sol\":3394:3429  _approve(to, tokenId, _msgSender()) */\n      tag_158\n        /* \"@openzeppelin/contracts/token/ERC721/ERC721.sol\":3403:3405  to */\n      dup3\n        /* \"@openzeppelin/contracts/token/ERC721/ERC721.sol\":3407:3414  tokenId */\n      dup3\n        /* \"@openzeppelin/contracts/token/ERC721/ERC721.sol\":3416:3428  _msgSender() */\n      tag_159\n        /* \"@openzeppelin/contracts/token/ERC721/ERC721.sol\":3416:3426  _msgSender */\n      tag_160\n        /* \"@openzeppelin/contracts/token/ERC721/ERC721.sol\":3416:3428  _msgSender() */\n      jump\t// in\n    tag_159:\n        /* \"@openzeppelin/contracts/token/ERC721/ERC721.sol\":3394:3402  _approve */\n      tag_161\n        /* \"@openzeppelin/contracts/token/ERC721/ERC721.sol\":3394:3429  _approve(to, tokenId, _msgSender()) */\n      jump\t// in\n    tag_158:\n        /* \"@openzeppelin/contracts/token/ERC721/ERC721.sol\":3323:3436  function approve(address to, uint256 tokenId) public virtual {... */\n      pop\n      pop\n      jump\t// out\n        /* \"interoperatibility/sapCont.sol\":969:1145  function mint() external payable {... */\n    tag_56:\n        /* \"interoperatibility/sapCont.sol\":1034:1037  MAX */\n      sload(0x09)\n        /* \"interoperatibility/sapCont.sol\":1029:1030  1 */\n      0x01\n        /* \"interoperatibility/sapCont.sol\":1020:1026  nextId */\n      sload(0x08)\n        /* \"interoperatibility/sapCont.sol\":1020:1030  nextId + 1 */\n      tag_163\n      swap2\n      swap1\n      tag_137\n      jump\t// in\n    tag_163:\n        /* \"interoperatibility/sapCont.sol\":1020:1037  nextId + 1 <= MAX */\n      gt\n      iszero\n        /* \"interoperatibility/sapCont.sol\":1012:1056  require(nextId + 1 <= MAX, \"Exceeds supply\") */\n      tag_164\n      jumpi\n      mload(0x40)\n      0x08c379a000000000000000000000000000000000000000000000000000000000\n      dup2\n      mstore\n      0x04\n      add\n      tag_165\n      swap1\n      tag_166\n      jump\t// in\n    tag_165:\n      mload(0x40)\n      dup1\n      swap2\n      sub\n      swap1\n      revert\n    tag_164:\n        /* \"interoperatibility/sapCont.sol\":1076:1077  1 */\n      0x01\n        /* \"interoperatibility/sapCont.sol\":1066:1072  nextId */\n      0x08\n      0x00\n        /* \"interoperatibility/sapCont.sol\":1066:1077  nextId += 1 */\n      dup3\n      dup3\n      sload\n      tag_167\n      swap2\n      swap1\n      tag_137\n      jump\t// in\n    tag_167:\n      swap3\n      pop\n      pop\n      dup2\n      swap1\n      sstore\n      pop\n        /* \"interoperatibility/sapCont.sol\":1087:1116  _safeMint(msg.sender, nextId) */\n      tag_168\n        /* \"interoperatibility/sapCont.sol\":1097:1107  msg.sender */\n      caller\n        /* \"interoperatibility/sapCont.sol\":1109:1115  nextId */\n      sload(0x08)\n        /* \"interoperatibility/sapCont.sol\":1087:1096  _safeMint */\n      tag_135\n        /* \"interoperatibility/sapCont.sol\":1087:1116  _safeMint(msg.sender, nextId) */\n      jump\t// in\n    tag_168:\n        /* \"interoperatibility/sapCont.sol\":1137:1138  1 */\n      0x01\n        /* \"interoperatibility/sapCont.sol\":1126:1133  counter */\n      0x07\n      0x00\n        /* \"interoperatibility/sapCont.sol\":1126:1138  counter += 1 */\n      dup3\n      dup3\n      sload\n      tag_169\n      swap2\n      swap1\n      tag_137\n      jump\t// in\n    tag_169:\n      swap3\n      pop\n      pop\n      dup2\n      swap1\n      sstore\n      pop\n        /* \"interoperatibility/sapCont.sol\":969:1145  function mint() external payable {... */\n      jump\t// out\n        /* \"@openzeppelin/contracts/token/ERC721/ERC721.sol\":4143:4721  function transferFrom(address from, address to, uint256 tokenId) public virtual {... */\n    tag_61:\n        /* \"@openzeppelin/contracts/token/ERC721/ERC721.sol\":4251:4252  0 */\n      0x00\n        /* \"@openzeppelin/contracts/token/ERC721/ERC721.sol\":4237:4253  to == address(0) */\n      0xffffffffffffffffffffffffffffffffffffffff\n      and\n        /* \"@openzeppelin/contracts/token/ERC721/ERC721.sol\":4237:4239  to */\n      dup3\n        /* \"@openzeppelin/contracts/token/ERC721/ERC721.sol\":4237:4253  to == address(0) */\n      0xffffffffffffffffffffffffffffffffffffffff\n      and\n      sub\n        /* \"@openzeppelin/contracts/token/ERC721/ERC721.sol\":4233:4320  if (to == address(0)) {... */\n      tag_171\n      jumpi\n        /* \"@openzeppelin/contracts/token/ERC721/ERC721.sol\":4306:4307  0 */\n      0x00\n        /* \"@openzeppelin/contracts/token/ERC721/ERC721.sol\":4276:4309  ERC721InvalidReceiver(address(0)) */\n      mload(0x40)\n      0x64a0ae9200000000000000000000000000000000000000000000000000000000\n      dup2\n      mstore\n      0x04\n      add\n      tag_172\n      swap2\n      swap1\n      tag_49\n      jump\t// in\n    tag_172:\n      mload(0x40)\n      dup1\n      swap2\n      sub\n      swap1\n      revert\n        /* \"@openzeppelin/contracts/token/ERC721/ERC721.sol\":4233:4320  if (to == address(0)) {... */\n    tag_171:\n        /* \"@openzeppelin/contracts/token/ERC721/ERC721.sol\":4538:4559  address previousOwner */\n      0x00\n        /* \"@openzeppelin/contracts/token/ERC721/ERC721.sol\":4562:4596  _update(to, tokenId, _msgSender()) */\n      tag_173\n        /* \"@openzeppelin/contracts/token/ERC721/ERC721.sol\":4570:4572  to */\n      dup4\n        /* \"@openzeppelin/contracts/token/ERC721/ERC721.sol\":4574:4581  tokenId */\n      dup4\n        /* \"@openzeppelin/contracts/token/ERC721/ERC721.sol\":4583:4595  _msgSender() */\n      tag_174\n        /* \"@openzeppelin/contracts/token/ERC721/ERC721.sol\":4583:4593  _msgSender */\n      tag_160\n        /* \"@openzeppelin/contracts/token/ERC721/ERC721.sol\":4583:4595  _msgSender() */\n      jump\t// in\n    tag_174:\n        /* \"@openzeppelin/contracts/token/ERC721/ERC721.sol\":4562:4569  _update */\n      tag_175\n        /* \"@openzeppelin/contracts/token/ERC721/ERC721.sol\":4562:4596  _update(to, tokenId, _msgSender()) */\n      jump\t// in\n    tag_173:\n        /* \"@openzeppelin/contracts/token/ERC721/ERC721.sol\":4538:4596  address previousOwner = _update(to, tokenId, _msgSender()) */\n      swap1\n      pop\n        /* \"@openzeppelin/contracts/token/ERC721/ERC721.sol\":4627:4631  from */\n      dup4\n        /* \"@openzeppelin/contracts/token/ERC721/ERC721.sol\":4610:4631  previousOwner != from */\n      0xffffffffffffffffffffffffffffffffffffffff\n      and\n        /* \"@openzeppelin/contracts/token/ERC721/ERC721.sol\":4610:4623  previousOwner */\n      dup2\n        /* \"@openzeppelin/contracts/token/ERC721/ERC721.sol\":4610:4631  previousOwner != from */\n      0xffffffffffffffffffffffffffffffffffffffff\n      and\n      eq\n        /* \"@openzeppelin/contracts/token/ERC721/ERC721.sol\":4606:4715  if (previousOwner != from) {... */\n      tag_176\n      jumpi\n        /* \"@openzeppelin/contracts/token/ERC721/ERC721.sol\":4675:4679  from */\n      dup4\n        /* \"@openzeppelin/contracts/token/ERC721/ERC721.sol\":4681:4688  tokenId */\n      dup3\n        /* \"@openzeppelin/contracts/token/ERC721/ERC721.sol\":4690:4703  previousOwner */\n      dup3\n        /* \"@openzeppelin/contracts/token/ERC721/ERC721.sol\":4654:4704  ERC721IncorrectOwner(from, tokenId, previousOwner) */\n      mload(0x40)\n      0x64283d7b00000000000000000000000000000000000000000000000000000000\n      dup2\n      mstore\n      0x04\n      add\n      tag_177\n      swap4\n      swap3\n      swap2\n      swap1\n      tag_178\n      jump\t// in\n    tag_177:\n      mload(0x40)\n      dup1\n      swap2\n      sub\n      swap1\n      revert\n        /* \"@openzeppelin/contracts/token/ERC721/ERC721.sol\":4606:4715  if (previousOwner != from) {... */\n    tag_176:\n        /* \"@openzeppelin/contracts/token/ERC721/ERC721.sol\":4223:4721  {... */\n      pop\n        /* \"@openzeppelin/contracts/token/ERC721/ERC721.sol\":4143:4721  function transferFrom(address from, address to, uint256 tokenId) public virtual {... */\n      pop\n      pop\n      pop\n      jump\t// out\n        /* \"interoperatibility/sapCont.sol\":2821:3284  function estimateFees(... */\n    tag_66:\n        /* \"interoperatibility/sapCont.sol\":3030:3047  uint256 nativeFee */\n      0x00\n        /* \"interoperatibility/sapCont.sol\":3049:3063  uint256 zroFee */\n      dup1\n        /* \"interoperatibility/sapCont.sol\":3094:3102  endpoint */\n      0x0b\n      0x00\n      swap1\n      sload\n      swap1\n      0x0100\n      exp\n      swap1\n      div\n      0xffffffffffffffffffffffffffffffffffffffff\n      and\n        /* \"interoperatibility/sapCont.sol\":3094:3115  endpoint.estimateFees */\n      0xffffffffffffffffffffffffffffffffffffffff\n      and\n      0x40a7bb10\n        /* \"interoperatibility/sapCont.sol\":3133:3144  _dstChainId */\n      dup11\n        /* \"interoperatibility/sapCont.sol\":3162:3178  _userApplication */\n      dup11\n        /* \"interoperatibility/sapCont.sol\":3196:3204  _payload */\n      dup11\n      dup11\n        /* \"interoperatibility/sapCont.sol\":3222:3231  _payInZRO */\n      dup11\n        /* \"interoperatibility/sapCont.sol\":3249:3263  _adapterParams */\n      dup11\n      dup11\n        /* \"interoperatibility/sapCont.sol\":3094:3277  endpoint.estimateFees(... */\n      mload(0x40)\n      dup9\n      0xffffffff\n      and\n      0xe0\n      shl\n      dup2\n      mstore\n      0x04\n      add\n      tag_180\n      swap8\n      swap7\n      swap6\n      swap5\n      swap4\n      swap3\n      swap2\n      swap1\n      tag_181\n      jump\t// in\n    tag_180:\n      0x40\n      dup1\n      mload\n      dup1\n      dup4\n      sub\n      dup2\n      dup7\n      gas\n      staticcall\n      iszero\n      dup1\n      iszero\n      tag_183\n      jumpi\n      returndatasize\n      0x00\n      dup1\n      returndatacopy\n      revert(0x00, returndatasize)\n    tag_183:\n      pop\n      pop\n      pop\n      pop\n      mload(0x40)\n      returndatasize\n      not(0x1f)\n      0x1f\n      dup3\n      add\n      and\n      dup3\n      add\n      dup1\n      0x40\n      mstore\n      pop\n      dup2\n      add\n      swap1\n      tag_184\n      swap2\n      swap1\n      tag_185\n      jump\t// in\n    tag_184:\n        /* \"interoperatibility/sapCont.sol\":3075:3277  return... */\n      swap2\n      pop\n      swap2\n      pop\n        /* \"interoperatibility/sapCont.sol\":2821:3284  function estimateFees(... */\n      swap8\n      pop\n      swap8\n      swap6\n      pop\n      pop\n      pop\n      pop\n      pop\n      pop\n      jump\t// out\n        /* \"@openzeppelin/contracts/token/ERC721/ERC721.sol\":4787:4919  function safeTransferFrom(address from, address to, uint256 tokenId) public {... */\n    tag_72:\n        /* \"@openzeppelin/contracts/token/ERC721/ERC721.sol\":4873:4912  safeTransferFrom(from, to, tokenId, \"\") */\n      tag_187\n        /* \"@openzeppelin/contracts/token/ERC721/ERC721.sol\":4890:4894  from */\n      dup4\n        /* \"@openzeppelin/contracts/token/ERC721/ERC721.sol\":4896:4898  to */\n      dup4\n        /* \"@openzeppelin/contracts/token/ERC721/ERC721.sol\":4900:4907  tokenId */\n      dup4\n        /* \"@openzeppelin/contracts/token/ERC721/ERC721.sol\":4873:4912  safeTransferFrom(from, to, tokenId, \"\") */\n      mload(0x40)\n      dup1\n      0x20\n      add\n      0x40\n      mstore\n      dup1\n      0x00\n      dup2\n      mstore\n      pop\n        /* \"@openzeppelin/contracts/token/ERC721/ERC721.sol\":4873:4889  safeTransferFrom */\n      tag_110\n        /* \"@openzeppelin/contracts/token/ERC721/ERC721.sol\":4873:4912  safeTransferFrom(from, to, tokenId, \"\") */\n      jump\t// in\n    tag_187:\n        /* \"@openzeppelin/contracts/token/ERC721/ERC721.sol\":4787:4919  function safeTransferFrom(address from, address to, uint256 tokenId) public {... */\n      pop\n      pop\n      pop\n      jump\t// out\n        /* \"interoperatibility/sapCont.sol\":576:610  ILayerZeroEndpoint public endpoint */\n    tag_75:\n      0x0b\n      0x00\n      swap1\n      sload\n      swap1\n      0x0100\n      exp\n      swap1\n      div\n      0xffffffffffffffffffffffffffffffffffffffff\n      and\n      dup2\n      jump\t// out\n        /* \"@openzeppelin/contracts/token/ERC721/ERC721.sol\":2185:2303  function ownerOf(uint256 tokenId) public view virtual returns (address) {... */\n    tag_81:\n        /* \"@openzeppelin/contracts/token/ERC721/ERC721.sol\":2248:2255  address */\n      0x00\n        /* \"@openzeppelin/contracts/token/ERC721/ERC721.sol\":2274:2296  _requireOwned(tokenId) */\n      tag_189\n        /* \"@openzeppelin/contracts/token/ERC721/ERC721.sol\":2288:2295  tokenId */\n      dup3\n        /* \"@openzeppelin/contracts/token/ERC721/ERC721.sol\":2274:2287  _requireOwned */\n      tag_154\n        /* \"@openzeppelin/contracts/token/ERC721/ERC721.sol\":2274:2296  _requireOwned(tokenId) */\n      jump\t// in\n    tag_189:\n        /* \"@openzeppelin/contracts/token/ERC721/ERC721.sol\":2267:2296  return _requireOwned(tokenId) */\n      swap1\n      pop\n        /* \"@openzeppelin/contracts/token/ERC721/ERC721.sol\":2185:2303  function ownerOf(uint256 tokenId) public view virtual returns (address) {... */\n      swap2\n      swap1\n      pop\n      jump\t// out\n        /* \"@openzeppelin/contracts/token/ERC721/ERC721.sol\":1920:2128  function balanceOf(address owner) public view virtual returns (uint256) {... */\n    tag_87:\n        /* \"@openzeppelin/contracts/token/ERC721/ERC721.sol\":1983:1990  uint256 */\n      0x00\n        /* \"@openzeppelin/contracts/token/ERC721/ERC721.sol\":2023:2024  0 */\n      dup1\n        /* \"@openzeppelin/contracts/token/ERC721/ERC721.sol\":2006:2025  owner == address(0) */\n      0xffffffffffffffffffffffffffffffffffffffff\n      and\n        /* \"@openzeppelin/contracts/token/ERC721/ERC721.sol\":2006:2011  owner */\n      dup3\n        /* \"@openzeppelin/contracts/token/ERC721/ERC721.sol\":2006:2025  owner == address(0) */\n      0xffffffffffffffffffffffffffffffffffffffff\n      and\n      sub\n        /* \"@openzeppelin/contracts/token/ERC721/ERC721.sol\":2002:2089  if (owner == address(0)) {... */\n      tag_191\n      jumpi\n        /* \"@openzeppelin/contracts/token/ERC721/ERC721.sol\":2075:2076  0 */\n      0x00\n        /* \"@openzeppelin/contracts/token/ERC721/ERC721.sol\":2048:2078  ERC721InvalidOwner(address(0)) */\n      mload(0x40)\n      0x89c62b6400000000000000000000000000000000000000000000000000000000\n      dup2\n      mstore\n      0x04\n      add\n      tag_192\n      swap2\n      swap1\n      tag_49\n      jump\t// in\n    tag_192:\n      mload(0x40)\n      dup1\n      swap2\n      sub\n      swap1\n      revert\n        /* \"@openzeppelin/contracts/token/ERC721/ERC721.sol\":2002:2089  if (owner == address(0)) {... */\n    tag_191:\n        /* \"@openzeppelin/contracts/token/ERC721/ERC721.sol\":2105:2114  _balances */\n      0x04\n        /* \"@openzeppelin/contracts/token/ERC721/ERC721.sol\":2105:2121  _balances[owner] */\n      0x00\n        /* \"@openzeppelin/contracts/token/ERC721/ERC721.sol\":2115:2120  owner */\n      dup4\n        /* \"@openzeppelin/contracts/token/ERC721/ERC721.sol\":2105:2121  _balances[owner] */\n      0xffffffffffffffffffffffffffffffffffffffff\n      and\n      0xffffffffffffffffffffffffffffffffffffffff\n      and\n      dup2\n      mstore\n      0x20\n      add\n      swap1\n      dup2\n      mstore\n      0x20\n      add\n      0x00\n      keccak256\n      sload\n        /* \"@openzeppelin/contracts/token/ERC721/ERC721.sol\":2098:2121  return _balances[owner] */\n      swap1\n      pop\n        /* \"@openzeppelin/contracts/token/ERC721/ERC721.sol\":1920:2128  function balanceOf(address owner) public view virtual returns (uint256) {... */\n      swap2\n      swap1\n      pop\n      jump\t// out\n        /* \"@openzeppelin/contracts/access/Ownable.sol\":2293:2394  function renounceOwnership() public virtual onlyOwner {... */\n    tag_92:\n        /* \"@openzeppelin/contracts/access/Ownable.sol\":1531:1544  _checkOwner() */\n      tag_194\n        /* \"@openzeppelin/contracts/access/Ownable.sol\":1531:1542  _checkOwner */\n      tag_195\n        /* \"@openzeppelin/contracts/access/Ownable.sol\":1531:1544  _checkOwner() */\n      jump\t// in\n    tag_194:\n        /* \"@openzeppelin/contracts/access/Ownable.sol\":2357:2387  _transferOwnership(address(0)) */\n      tag_197\n        /* \"@openzeppelin/contracts/access/Ownable.sol\":2384:2385  0 */\n      0x00\n        /* \"@openzeppelin/contracts/access/Ownable.sol\":2357:2375  _transferOwnership */\n      tag_198\n        /* \"@openzeppelin/contracts/access/Ownable.sol\":2357:2387  _transferOwnership(address(0)) */\n      jump\t// in\n    tag_197:\n        /* \"@openzeppelin/contracts/access/Ownable.sol\":2293:2394  function renounceOwnership() public virtual onlyOwner {... */\n      jump\t// out\n        /* \"@openzeppelin/contracts/access/Ownable.sol\":1638:1723  function owner() public view virtual returns (address) {... */\n    tag_95:\n        /* \"@openzeppelin/contracts/access/Ownable.sol\":1684:1691  address */\n      0x00\n        /* \"@openzeppelin/contracts/access/Ownable.sol\":1710:1716  _owner */\n      dup1\n      0x00\n      swap1\n      sload\n      swap1\n      0x0100\n      exp\n      swap1\n      div\n      0xffffffffffffffffffffffffffffffffffffffff\n      and\n        /* \"@openzeppelin/contracts/access/Ownable.sol\":1703:1716  return _owner */\n      swap1\n      pop\n        /* \"@openzeppelin/contracts/access/Ownable.sol\":1638:1723  function owner() public view virtual returns (address) {... */\n      swap1\n      jump\t// out\n        /* \"@openzeppelin/contracts/token/ERC721/ERC721.sol\":2518:2611  function symbol() public view virtual returns (string memory) {... */\n    tag_99:\n        /* \"@openzeppelin/contracts/token/ERC721/ERC721.sol\":2565:2578  string memory */\n      0x60\n        /* \"@openzeppelin/contracts/token/ERC721/ERC721.sol\":2597:2604  _symbol */\n      0x02\n        /* \"@openzeppelin/contracts/token/ERC721/ERC721.sol\":2590:2604  return _symbol */\n      dup1\n      sload\n      tag_201\n      swap1\n      tag_147\n      jump\t// in\n    tag_201:\n      dup1\n      0x1f\n      add\n      0x20\n      dup1\n      swap2\n      div\n      mul\n      0x20\n      add\n      mload(0x40)\n      swap1\n      dup2\n      add\n      0x40\n      mstore\n      dup1\n      swap3\n      swap2\n      swap1\n      dup2\n      dup2\n      mstore\n      0x20\n      add\n      dup3\n      dup1\n      sload\n      tag_202\n      swap1\n      tag_147\n      jump\t// in\n    tag_202:\n      dup1\n      iszero\n      tag_203\n      jumpi\n      dup1\n      0x1f\n      lt\n      tag_204\n      jumpi\n      0x0100\n      dup1\n      dup4\n      sload\n      div\n      mul\n      dup4\n      mstore\n      swap2\n      0x20\n      add\n      swap2\n      jump(tag_203)\n    tag_204:\n      dup3\n      add\n      swap2\n      swap1\n      0x00\n      mstore\n      keccak256(0x00, 0x20)\n      swap1\n    tag_205:\n      dup2\n      sload\n      dup2\n      mstore\n      swap1\n      0x01\n      add\n      swap1\n      0x20\n      add\n      dup1\n      dup4\n      gt\n      tag_205\n      jumpi\n      dup3\n      swap1\n      sub\n      0x1f\n      and\n      dup3\n      add\n      swap2\n    tag_203:\n      pop\n      pop\n      pop\n      pop\n      pop\n      swap1\n      pop\n        /* \"@openzeppelin/contracts/token/ERC721/ERC721.sol\":2518:2611  function symbol() public view virtual returns (string memory) {... */\n      swap1\n      jump\t// out\n        /* \"@openzeppelin/contracts/token/ERC721/ERC721.sol\":3718:3862  function setApprovalForAll(address operator, bool approved) public virtual {... */\n    tag_105:\n        /* \"@openzeppelin/contracts/token/ERC721/ERC721.sol\":3803:3855  _setApprovalForAll(_msgSender(), operator, approved) */\n      tag_207\n        /* \"@openzeppelin/contracts/token/ERC721/ERC721.sol\":3822:3834  _msgSender() */\n      tag_208\n        /* \"@openzeppelin/contracts/token/ERC721/ERC721.sol\":3822:3832  _msgSender */\n      tag_160\n        /* \"@openzeppelin/contracts/token/ERC721/ERC721.sol\":3822:3834  _msgSender() */\n      jump\t// in\n    tag_208:\n        /* \"@openzeppelin/contracts/token/ERC721/ERC721.sol\":3836:3844  operator */\n      dup4\n        /* \"@openzeppelin/contracts/token/ERC721/ERC721.sol\":3846:3854  approved */\n      dup4\n        /* \"@openzeppelin/contracts/token/ERC721/ERC721.sol\":3803:3821  _setApprovalForAll */\n      tag_209\n        /* \"@openzeppelin/contracts/token/ERC721/ERC721.sol\":3803:3855  _setApprovalForAll(_msgSender(), operator, approved) */\n      jump\t// in\n    tag_207:\n        /* \"@openzeppelin/contracts/token/ERC721/ERC721.sol\":3718:3862  function setApprovalForAll(address operator, bool approved) public virtual {... */\n      pop\n      pop\n      jump\t// out\n        /* \"@openzeppelin/contracts/token/ERC721/ERC721.sol\":4985:5193  function safeTransferFrom(address from, address to, uint256 tokenId, bytes memory data) public virtual {... */\n    tag_110:\n        /* \"@openzeppelin/contracts/token/ERC721/ERC721.sol\":5098:5129  transferFrom(from, to, tokenId) */\n      tag_211\n        /* \"@openzeppelin/contracts/token/ERC721/ERC721.sol\":5111:5115  from */\n      dup5\n        /* \"@openzeppelin/contracts/token/ERC721/ERC721.sol\":5117:5119  to */\n      dup5\n        /* \"@openzeppelin/contracts/token/ERC721/ERC721.sol\":5121:5128  tokenId */\n      dup5\n        /* \"@openzeppelin/contracts/token/ERC721/ERC721.sol\":5098:5110  transferFrom */\n      tag_61\n        /* \"@openzeppelin/contracts/token/ERC721/ERC721.sol\":5098:5129  transferFrom(from, to, tokenId) */\n      jump\t// in\n    tag_211:\n        /* \"@openzeppelin/contracts/token/ERC721/ERC721.sol\":5139:5186  _checkOnERC721Received(from, to, tokenId, data) */\n      tag_212\n        /* \"@openzeppelin/contracts/token/ERC721/ERC721.sol\":5162:5166  from */\n      dup5\n        /* \"@openzeppelin/contracts/token/ERC721/ERC721.sol\":5168:5170  to */\n      dup5\n        /* \"@openzeppelin/contracts/token/ERC721/ERC721.sol\":5172:5179  tokenId */\n      dup5\n        /* \"@openzeppelin/contracts/token/ERC721/ERC721.sol\":5181:5185  data */\n      dup5\n        /* \"@openzeppelin/contracts/token/ERC721/ERC721.sol\":5139:5161  _checkOnERC721Received */\n      tag_213\n        /* \"@openzeppelin/contracts/token/ERC721/ERC721.sol\":5139:5186  _checkOnERC721Received(from, to, tokenId, data) */\n      jump\t// in\n    tag_212:\n        /* \"@openzeppelin/contracts/token/ERC721/ERC721.sol\":4985:5193  function safeTransferFrom(address from, address to, uint256 tokenId, bytes memory data) public virtual {... */\n      pop\n      pop\n      pop\n      pop\n      jump\t// out\n        /* \"interoperatibility/sapCont.sol\":1150:2169  function crossChain(... */\n    tag_114:\n        /* \"interoperatibility/sapCont.sol\":1313:1329  ownerOf(tokenId) */\n      tag_215\n        /* \"interoperatibility/sapCont.sol\":1321:1328  tokenId */\n      dup2\n        /* \"interoperatibility/sapCont.sol\":1313:1320  ownerOf */\n      tag_81\n        /* \"interoperatibility/sapCont.sol\":1313:1329  ownerOf(tokenId) */\n      jump\t// in\n    tag_215:\n        /* \"interoperatibility/sapCont.sol\":1299:1329  msg.sender == ownerOf(tokenId) */\n      0xffffffffffffffffffffffffffffffffffffffff\n      and\n        /* \"interoperatibility/sapCont.sol\":1299:1309  msg.sender */\n      caller\n        /* \"interoperatibility/sapCont.sol\":1299:1329  msg.sender == ownerOf(tokenId) */\n      0xffffffffffffffffffffffffffffffffffffffff\n      and\n      eq\n        /* \"interoperatibility/sapCont.sol\":1291:1347  require(msg.sender == ownerOf(tokenId), \"Not the owner\") */\n      tag_216\n      jumpi\n      mload(0x40)\n      0x08c379a000000000000000000000000000000000000000000000000000000000\n      dup2\n      mstore\n      0x04\n      add\n      tag_217\n      swap1\n      tag_218\n      jump\t// in\n    tag_217:\n      mload(0x40)\n      dup1\n      swap2\n      sub\n      swap1\n      revert\n    tag_216:\n        /* \"interoperatibility/sapCont.sol\":1377:1391  _burn(tokenId) */\n      tag_219\n        /* \"interoperatibility/sapCont.sol\":1383:1390  tokenId */\n      dup2\n        /* \"interoperatibility/sapCont.sol\":1377:1382  _burn */\n      tag_220\n        /* \"interoperatibility/sapCont.sol\":1377:1391  _burn(tokenId) */\n      jump\t// in\n    tag_219:\n        /* \"interoperatibility/sapCont.sol\":1412:1413  1 */\n      0x01\n        /* \"interoperatibility/sapCont.sol\":1401:1408  counter */\n      0x07\n      0x00\n        /* \"interoperatibility/sapCont.sol\":1401:1413  counter -= 1 */\n      dup3\n      dup3\n      sload\n      tag_221\n      swap2\n      swap1\n      tag_222\n      jump\t// in\n    tag_221:\n      swap3\n      pop\n      pop\n      dup2\n      swap1\n      sstore\n      pop\n        /* \"interoperatibility/sapCont.sol\":1423:1443  bytes memory payload */\n      0x00\n        /* \"interoperatibility/sapCont.sol\":1457:1467  msg.sender */\n      caller\n        /* \"interoperatibility/sapCont.sol\":1469:1476  tokenId */\n      dup3\n        /* \"interoperatibility/sapCont.sol\":1446:1477  abi.encode(msg.sender, tokenId) */\n      add(0x20, mload(0x40))\n      tag_223\n      swap3\n      swap2\n      swap1\n      tag_224\n      jump\t// in\n    tag_223:\n      mload(0x40)\n      0x20\n      dup2\n      dup4\n      sub\n      sub\n      dup2\n      mstore\n      swap1\n      0x40\n      mstore\n        /* \"interoperatibility/sapCont.sol\":1423:1477  bytes memory payload = abi.encode(msg.sender, tokenId) */\n      swap1\n      pop\n        /* \"interoperatibility/sapCont.sol\":1559:1573  uint16 version */\n      0x00\n        /* \"interoperatibility/sapCont.sol\":1576:1577  1 */\n      0x01\n        /* \"interoperatibility/sapCont.sol\":1559:1577  uint16 version = 1 */\n      swap1\n      pop\n        /* \"interoperatibility/sapCont.sol\":1587:1613  bytes memory adapterParams */\n      0x00\n        /* \"interoperatibility/sapCont.sol\":1633:1640  version */\n      dup2\n        /* \"interoperatibility/sapCont.sol\":1642:1645  gas */\n      sload(0x0a)\n        /* \"interoperatibility/sapCont.sol\":1616:1646  abi.encodePacked(version, gas) */\n      add(0x20, mload(0x40))\n      tag_225\n      swap3\n      swap2\n      swap1\n      tag_226\n      jump\t// in\n    tag_225:\n      mload(0x40)\n      0x20\n      dup2\n      dup4\n      sub\n      sub\n      dup2\n      mstore\n      swap1\n      0x40\n      mstore\n        /* \"interoperatibility/sapCont.sol\":1587:1646  bytes memory adapterParams = abi.encodePacked(version, gas) */\n      swap1\n      pop\n        /* \"interoperatibility/sapCont.sol\":1657:1675  uint256 messageFee */\n      0x00\n        /* \"interoperatibility/sapCont.sol\":1681:1689  endpoint */\n      0x0b\n      0x00\n      swap1\n      sload\n      swap1\n      0x0100\n      exp\n      swap1\n      div\n      0xffffffffffffffffffffffffffffffffffffffff\n      and\n        /* \"interoperatibility/sapCont.sol\":1681:1702  endpoint.estimateFees */\n      0xffffffffffffffffffffffffffffffffffffffff\n      and\n      0x40a7bb10\n        /* \"interoperatibility/sapCont.sol\":1716:1727  _dstChainId */\n      dup10\n        /* \"interoperatibility/sapCont.sol\":1749:1753  this */\n      address\n        /* \"interoperatibility/sapCont.sol\":1768:1775  payload */\n      dup8\n        /* \"interoperatibility/sapCont.sol\":1789:1794  false */\n      0x00\n        /* \"interoperatibility/sapCont.sol\":1808:1821  adapterParams */\n      dup8\n        /* \"interoperatibility/sapCont.sol\":1681:1831  endpoint.estimateFees(... */\n      mload(0x40)\n      dup7\n      0xffffffff\n      and\n      0xe0\n      shl\n      dup2\n      mstore\n      0x04\n      add\n      tag_227\n      swap6\n      swap5\n      swap4\n      swap3\n      swap2\n      swap1\n      tag_228\n      jump\t// in\n    tag_227:\n      0x40\n      dup1\n      mload\n      dup1\n      dup4\n      sub\n      dup2\n      dup7\n      gas\n      staticcall\n      iszero\n      dup1\n      iszero\n      tag_230\n      jumpi\n      returndatasize\n      0x00\n      dup1\n      returndatacopy\n      revert(0x00, returndatasize)\n    tag_230:\n      pop\n      pop\n      pop\n      pop\n      mload(0x40)\n      returndatasize\n      not(0x1f)\n      0x1f\n      dup3\n      add\n      and\n      dup3\n      add\n      dup1\n      0x40\n      mstore\n      pop\n      dup2\n      add\n      swap1\n      tag_231\n      swap2\n      swap1\n      tag_185\n      jump\t// in\n    tag_231:\n        /* \"interoperatibility/sapCont.sol\":1656:1831  (uint256 messageFee, ) = endpoint.estimateFees(... */\n      pop\n      swap1\n      pop\n        /* \"interoperatibility/sapCont.sol\":1875:1885  messageFee */\n      dup1\n        /* \"interoperatibility/sapCont.sol\":1862:1871  msg.value */\n      callvalue\n        /* \"interoperatibility/sapCont.sol\":1862:1885  msg.value >= messageFee */\n      lt\n      iszero\n        /* \"interoperatibility/sapCont.sol\":1841:1953  require(... */\n      tag_232\n      jumpi\n      mload(0x40)\n      0x08c379a000000000000000000000000000000000000000000000000000000000\n      dup2\n      mstore\n      0x04\n      add\n      tag_233\n      swap1\n      tag_234\n      jump\t// in\n    tag_233:\n      mload(0x40)\n      dup1\n      swap2\n      sub\n      swap1\n      revert\n    tag_232:\n        /* \"interoperatibility/sapCont.sol\":1963:1971  endpoint */\n      0x0b\n      0x00\n      swap1\n      sload\n      swap1\n      0x0100\n      exp\n      swap1\n      div\n      0xffffffffffffffffffffffffffffffffffffffff\n      and\n        /* \"interoperatibility/sapCont.sol\":1963:1976  endpoint.send */\n      0xffffffffffffffffffffffffffffffffffffffff\n      and\n      0xc5803100\n        /* \"interoperatibility/sapCont.sol\":1984:1993  msg.value */\n      callvalue\n        /* \"interoperatibility/sapCont.sol\":2008:2019  _dstChainId */\n      dup11\n        /* \"interoperatibility/sapCont.sol\":2033:2045  _destination */\n      dup11\n      dup11\n        /* \"interoperatibility/sapCont.sol\":2059:2066  payload */\n      dup10\n        /* \"interoperatibility/sapCont.sol\":2088:2098  msg.sender */\n      caller\n        /* \"interoperatibility/sapCont.sol\":2121:2124  0x0 */\n      0x00\n        /* \"interoperatibility/sapCont.sol\":2139:2152  adapterParams */\n      dup11\n        /* \"interoperatibility/sapCont.sol\":1963:2162  endpoint.send{value: msg.value}(... */\n      mload(0x40)\n      dup10\n      0xffffffff\n      and\n      0xe0\n      shl\n      dup2\n      mstore\n      0x04\n      add\n      tag_235\n      swap8\n      swap7\n      swap6\n      swap5\n      swap4\n      swap3\n      swap2\n      swap1\n      tag_236\n      jump\t// in\n    tag_235:\n      0x00\n      mload(0x40)\n      dup1\n      dup4\n      sub\n      dup2\n      dup6\n      dup9\n      dup1\n      extcodesize\n      iszero\n      dup1\n      iszero\n      tag_237\n      jumpi\n      0x00\n      dup1\n      revert\n    tag_237:\n      pop\n      gas\n      call\n      iszero\n      dup1\n      iszero\n      tag_239\n      jumpi\n      returndatasize\n      0x00\n      dup1\n      returndatacopy\n      revert(0x00, returndatasize)\n    tag_239:\n      pop\n      pop\n      pop\n      pop\n      pop\n        /* \"interoperatibility/sapCont.sol\":1281:2169  {... */\n      pop\n      pop\n      pop\n      pop\n        /* \"interoperatibility/sapCont.sol\":1150:2169  function crossChain(... */\n      pop\n      pop\n      pop\n      pop\n      jump\t// out\n        /* \"@openzeppelin/contracts/token/ERC721/ERC721.sol\":2677:2932  function tokenURI(uint256 tokenId) public view virtual returns (string memory) {... */\n    tag_118:\n        /* \"@openzeppelin/contracts/token/ERC721/ERC721.sol\":2741:2754  string memory */\n      0x60\n        /* \"@openzeppelin/contracts/token/ERC721/ERC721.sol\":2766:2788  _requireOwned(tokenId) */\n      tag_241\n        /* \"@openzeppelin/contracts/token/ERC721/ERC721.sol\":2780:2787  tokenId */\n      dup3\n        /* \"@openzeppelin/contracts/token/ERC721/ERC721.sol\":2766:2779  _requireOwned */\n      tag_154\n        /* \"@openzeppelin/contracts/token/ERC721/ERC721.sol\":2766:2788  _requireOwned(tokenId) */\n      jump\t// in\n    tag_241:\n      pop\n        /* \"@openzeppelin/contracts/token/ERC721/ERC721.sol\":2799:2820  string memory baseURI */\n      0x00\n        /* \"@openzeppelin/contracts/token/ERC721/ERC721.sol\":2823:2833  _baseURI() */\n      tag_242\n        /* \"@openzeppelin/contracts/token/ERC721/ERC721.sol\":2823:2831  _baseURI */\n      tag_243\n        /* \"@openzeppelin/contracts/token/ERC721/ERC721.sol\":2823:2833  _baseURI() */\n      jump\t// in\n    tag_242:\n        /* \"@openzeppelin/contracts/token/ERC721/ERC721.sol\":2799:2833  string memory baseURI = _baseURI() */\n      swap1\n      pop\n        /* \"@openzeppelin/contracts/token/ERC721/ERC721.sol\":2874:2875  0 */\n      0x00\n        /* \"@openzeppelin/contracts/token/ERC721/ERC721.sol\":2856:2863  baseURI */\n      dup2\n        /* \"@openzeppelin/contracts/token/ERC721/ERC721.sol\":2850:2871  bytes(baseURI).length */\n      mload\n        /* \"@openzeppelin/contracts/token/ERC721/ERC721.sol\":2850:2875  bytes(baseURI).length > 0 */\n      gt\n        /* \"@openzeppelin/contracts/token/ERC721/ERC721.sol\":2850:2925  bytes(baseURI).length > 0 ? string.concat(baseURI, tokenId.toString()) : \"\" */\n      tag_244\n      jumpi\n      mload(0x40)\n      dup1\n      0x20\n      add\n      0x40\n      mstore\n      dup1\n      0x00\n      dup2\n      mstore\n      pop\n      jump(tag_245)\n    tag_244:\n        /* \"@openzeppelin/contracts/token/ERC721/ERC721.sol\":2892:2899  baseURI */\n      dup1\n        /* \"@openzeppelin/contracts/token/ERC721/ERC721.sol\":2901:2919  tokenId.toString() */\n      tag_246\n        /* \"@openzeppelin/contracts/token/ERC721/ERC721.sol\":2901:2908  tokenId */\n      dup5\n        /* \"@openzeppelin/contracts/token/ERC721/ERC721.sol\":2901:2917  tokenId.toString */\n      tag_247\n        /* \"@openzeppelin/contracts/token/ERC721/ERC721.sol\":2901:2919  tokenId.toString() */\n      jump\t// in\n    tag_246:\n        /* \"@openzeppelin/contracts/token/ERC721/ERC721.sol\":2878:2920  string.concat(baseURI, tokenId.toString()) */\n      add(0x20, mload(0x40))\n      tag_248\n      swap3\n      swap2\n      swap1\n      tag_249\n      jump\t// in\n    tag_248:\n      mload(0x40)\n      0x20\n      dup2\n      dup4\n      sub\n      sub\n      dup2\n      mstore\n      swap1\n      0x40\n      mstore\n        /* \"@openzeppelin/contracts/token/ERC721/ERC721.sol\":2850:2925  bytes(baseURI).length > 0 ? string.concat(baseURI, tokenId.toString()) : \"\" */\n    tag_245:\n        /* \"@openzeppelin/contracts/token/ERC721/ERC721.sol\":2843:2925  return bytes(baseURI).length > 0 ? string.concat(baseURI, tokenId.toString()) : \"\" */\n      swap2\n      pop\n      pop\n        /* \"@openzeppelin/contracts/token/ERC721/ERC721.sol\":2677:2932  function tokenURI(uint256 tokenId) public view virtual returns (string memory) {... */\n      swap2\n      swap1\n      pop\n      jump\t// out\n        /* \"@openzeppelin/contracts/token/ERC721/ERC721.sol\":3928:4081  function isApprovedForAll(address owner, address operator) public view virtual returns (bool) {... */\n    tag_124:\n        /* \"@openzeppelin/contracts/token/ERC721/ERC721.sol\":4016:4020  bool */\n      0x00\n        /* \"@openzeppelin/contracts/token/ERC721/ERC721.sol\":4039:4057  _operatorApprovals */\n      0x06\n        /* \"@openzeppelin/contracts/token/ERC721/ERC721.sol\":4039:4064  _operatorApprovals[owner] */\n      0x00\n        /* \"@openzeppelin/contracts/token/ERC721/ERC721.sol\":4058:4063  owner */\n      dup5\n        /* \"@openzeppelin/contracts/token/ERC721/ERC721.sol\":4039:4064  _operatorApprovals[owner] */\n      0xffffffffffffffffffffffffffffffffffffffff\n      and\n      0xffffffffffffffffffffffffffffffffffffffff\n      and\n      dup2\n      mstore\n      0x20\n      add\n      swap1\n      dup2\n      mstore\n      0x20\n      add\n      0x00\n      keccak256\n        /* \"@openzeppelin/contracts/token/ERC721/ERC721.sol\":4039:4074  _operatorApprovals[owner][operator] */\n      0x00\n        /* \"@openzeppelin/contracts/token/ERC721/ERC721.sol\":4065:4073  operator */\n      dup4\n        /* \"@openzeppelin/contracts/token/ERC721/ERC721.sol\":4039:4074  _operatorApprovals[owner][operator] */\n      0xffffffffffffffffffffffffffffffffffffffff\n      and\n      0xffffffffffffffffffffffffffffffffffffffff\n      and\n      dup2\n      mstore\n      0x20\n      add\n      swap1\n      dup2\n      mstore\n      0x20\n      add\n      0x00\n      keccak256\n      0x00\n      swap1\n      sload\n      swap1\n      0x0100\n      exp\n      swap1\n      div\n      0xff\n      and\n        /* \"@openzeppelin/contracts/token/ERC721/ERC721.sol\":4032:4074  return _operatorApprovals[owner][operator] */\n      swap1\n      pop\n        /* \"@openzeppelin/contracts/token/ERC721/ERC721.sol\":3928:4081  function isApprovedForAll(address owner, address operator) public view virtual returns (bool) {... */\n      swap3\n      swap2\n      pop\n      pop\n      jump\t// out\n        /* \"@openzeppelin/contracts/access/Ownable.sol\":2543:2758  function transferOwnership(address newOwner) public virtual onlyOwner {... */\n    tag_129:\n        /* \"@openzeppelin/contracts/access/Ownable.sol\":1531:1544  _checkOwner() */\n      tag_252\n        /* \"@openzeppelin/contracts/access/Ownable.sol\":1531:1542  _checkOwner */\n      tag_195\n        /* \"@openzeppelin/contracts/access/Ownable.sol\":1531:1544  _checkOwner() */\n      jump\t// in\n    tag_252:\n        /* \"@openzeppelin/contracts/access/Ownable.sol\":2647:2648  0 */\n      0x00\n        /* \"@openzeppelin/contracts/access/Ownable.sol\":2627:2649  newOwner == address(0) */\n      0xffffffffffffffffffffffffffffffffffffffff\n      and\n        /* \"@openzeppelin/contracts/access/Ownable.sol\":2627:2635  newOwner */\n      dup2\n        /* \"@openzeppelin/contracts/access/Ownable.sol\":2627:2649  newOwner == address(0) */\n      0xffffffffffffffffffffffffffffffffffffffff\n      and\n      sub\n        /* \"@openzeppelin/contracts/access/Ownable.sol\":2623:2714  if (newOwner == address(0)) {... */\n      tag_254\n      jumpi\n        /* \"@openzeppelin/contracts/access/Ownable.sol\":2700:2701  0 */\n      0x00\n        /* \"@openzeppelin/contracts/access/Ownable.sol\":2672:2703  OwnableInvalidOwner(address(0)) */\n      mload(0x40)\n      0x1e4fbdf700000000000000000000000000000000000000000000000000000000\n      dup2\n      mstore\n      0x04\n      add\n      tag_255\n      swap2\n      swap1\n      tag_49\n      jump\t// in\n    tag_255:\n      mload(0x40)\n      dup1\n      swap2\n      sub\n      swap1\n      revert\n        /* \"@openzeppelin/contracts/access/Ownable.sol\":2623:2714  if (newOwner == address(0)) {... */\n    tag_254:\n        /* \"@openzeppelin/contracts/access/Ownable.sol\":2723:2751  _transferOwnership(newOwner) */\n      tag_256\n        /* \"@openzeppelin/contracts/access/Ownable.sol\":2742:2750  newOwner */\n      dup2\n        /* \"@openzeppelin/contracts/access/Ownable.sol\":2723:2741  _transferOwnership */\n      tag_198\n        /* \"@openzeppelin/contracts/access/Ownable.sol\":2723:2751  _transferOwnership(newOwner) */\n      jump\t// in\n    tag_256:\n        /* \"@openzeppelin/contracts/access/Ownable.sol\":2543:2758  function transferOwnership(address newOwner) public virtual onlyOwner {... */\n      pop\n      jump\t// out\n        /* \"@openzeppelin/contracts/token/ERC721/ERC721.sol\":10633:10733  function _safeMint(address to, uint256 tokenId) internal {... */\n    tag_135:\n        /* \"@openzeppelin/contracts/token/ERC721/ERC721.sol\":10700:10726  _safeMint(to, tokenId, \"\") */\n      tag_258\n        /* \"@openzeppelin/contracts/token/ERC721/ERC721.sol\":10710:10712  to */\n      dup3\n        /* \"@openzeppelin/contracts/token/ERC721/ERC721.sol\":10714:10721  tokenId */\n      dup3\n        /* \"@openzeppelin/contracts/token/ERC721/ERC721.sol\":10700:10726  _safeMint(to, tokenId, \"\") */\n      mload(0x40)\n      dup1\n      0x20\n      add\n      0x40\n      mstore\n      dup1\n      0x00\n      dup2\n      mstore\n      pop\n        /* \"@openzeppelin/contracts/token/ERC721/ERC721.sol\":10700:10709  _safeMint */\n      tag_259\n        /* \"@openzeppelin/contracts/token/ERC721/ERC721.sol\":10700:10726  _safeMint(to, tokenId, \"\") */\n      jump\t// in\n    tag_258:\n        /* \"@openzeppelin/contracts/token/ERC721/ERC721.sol\":10633:10733  function _safeMint(address to, uint256 tokenId) internal {... */\n      pop\n      pop\n      jump\t// out\n        /* \"@openzeppelin/contracts/utils/introspection/ERC165.sol\":762:908  function supportsInterface(bytes4 interfaceId) public view virtual returns (bool) {... */\n    tag_144:\n        /* \"@openzeppelin/contracts/utils/introspection/ERC165.sol\":838:842  bool */\n      0x00\n        /* \"@openzeppelin/contracts/utils/introspection/ERC165.sol\":876:901  type(IERC165).interfaceId */\n      0x01ffc9a700000000000000000000000000000000000000000000000000000000\n        /* \"@openzeppelin/contracts/utils/introspection/ERC165.sol\":861:901  interfaceId == type(IERC165).interfaceId */\n      not(0xffffffffffffffffffffffffffffffffffffffffffffffffffffffff)\n      and\n        /* \"@openzeppelin/contracts/utils/introspection/ERC165.sol\":861:872  interfaceId */\n      dup3\n        /* \"@openzeppelin/contracts/utils/introspection/ERC165.sol\":861:901  interfaceId == type(IERC165).interfaceId */\n      not(0xffffffffffffffffffffffffffffffffffffffffffffffffffffffff)\n      and\n      eq\n        /* \"@openzeppelin/contracts/utils/introspection/ERC165.sol\":854:901  return interfaceId == type(IERC165).interfaceId */\n      swap1\n      pop\n        /* \"@openzeppelin/contracts/utils/introspection/ERC165.sol\":762:908  function supportsInterface(bytes4 interfaceId) public view virtual returns (bool) {... */\n      swap2\n      swap1\n      pop\n      jump\t// out\n        /* \"@openzeppelin/contracts/token/ERC721/ERC721.sol\":16138:16379  function _requireOwned(uint256 tokenId) internal view returns (address) {... */\n    tag_154:\n        /* \"@openzeppelin/contracts/token/ERC721/ERC721.sol\":16201:16208  address */\n      0x00\n        /* \"@openzeppelin/contracts/token/ERC721/ERC721.sol\":16220:16233  address owner */\n      dup1\n        /* \"@openzeppelin/contracts/token/ERC721/ERC721.sol\":16236:16253  _ownerOf(tokenId) */\n      tag_262\n        /* \"@openzeppelin/contracts/token/ERC721/ERC721.sol\":16245:16252  tokenId */\n      dup4\n        /* \"@openzeppelin/contracts/token/ERC721/ERC721.sol\":16236:16244  _ownerOf */\n      tag_263\n        /* \"@openzeppelin/contracts/token/ERC721/ERC721.sol\":16236:16253  _ownerOf(tokenId) */\n      jump\t// in\n    tag_262:\n        /* \"@openzeppelin/contracts/token/ERC721/ERC721.sol\":16220:16253  address owner = _ownerOf(tokenId) */\n      swap1\n      pop\n        /* \"@openzeppelin/contracts/token/ERC721/ERC721.sol\":16284:16285  0 */\n      0x00\n        /* \"@openzeppelin/contracts/token/ERC721/ERC721.sol\":16267:16286  owner == address(0) */\n      0xffffffffffffffffffffffffffffffffffffffff\n      and\n        /* \"@openzeppelin/contracts/token/ERC721/ERC721.sol\":16267:16272  owner */\n      dup2\n        /* \"@openzeppelin/contracts/token/ERC721/ERC721.sol\":16267:16286  owner == address(0) */\n      0xffffffffffffffffffffffffffffffffffffffff\n      and\n      sub\n        /* \"@openzeppelin/contracts/token/ERC721/ERC721.sol\":16263:16351  if (owner == address(0)) {... */\n      tag_264\n      jumpi\n        /* \"@openzeppelin/contracts/token/ERC721/ERC721.sol\":16332:16339  tokenId */\n      dup3\n        /* \"@openzeppelin/contracts/token/ERC721/ERC721.sol\":16309:16340  ERC721NonexistentToken(tokenId) */\n      mload(0x40)\n      0x7e27328900000000000000000000000000000000000000000000000000000000\n      dup2\n      mstore\n      0x04\n      add\n      tag_265\n      swap2\n      swap1\n      tag_89\n      jump\t// in\n    tag_265:\n      mload(0x40)\n      dup1\n      swap2\n      sub\n      swap1\n      revert\n        /* \"@openzeppelin/contracts/token/ERC721/ERC721.sol\":16263:16351  if (owner == address(0)) {... */\n    tag_264:\n        /* \"@openzeppelin/contracts/token/ERC721/ERC721.sol\":16367:16372  owner */\n      dup1\n        /* \"@openzeppelin/contracts/token/ERC721/ERC721.sol\":16360:16372  return owner */\n      swap2\n      pop\n      pop\n        /* \"@openzeppelin/contracts/token/ERC721/ERC721.sol\":16138:16379  function _requireOwned(uint256 tokenId) internal view returns (address) {... */\n      swap2\n      swap1\n      pop\n      jump\t// out\n        /* \"@openzeppelin/contracts/token/ERC721/ERC721.sol\":5938:6065  function _getApproved(uint256 tokenId) internal view virtual returns (address) {... */\n    tag_156:\n        /* \"@openzeppelin/contracts/token/ERC721/ERC721.sol\":6008:6015  address */\n      0x00\n        /* \"@openzeppelin/contracts/token/ERC721/ERC721.sol\":6034:6049  _tokenApprovals */\n      0x05\n        /* \"@openzeppelin/contracts/token/ERC721/ERC721.sol\":6034:6058  _tokenApprovals[tokenId] */\n      0x00\n        /* \"@openzeppelin/contracts/token/ERC721/ERC721.sol\":6050:6057  tokenId */\n      dup4\n        /* \"@openzeppelin/contracts/token/ERC721/ERC721.sol\":6034:6058  _tokenApprovals[tokenId] */\n      dup2\n      mstore\n      0x20\n      add\n      swap1\n      dup2\n      mstore\n      0x20\n      add\n      0x00\n      keccak256\n      0x00\n      swap1\n      sload\n      swap1\n      0x0100\n      exp\n      swap1\n      div\n      0xffffffffffffffffffffffffffffffffffffffff\n      and\n        /* \"@openzeppelin/contracts/token/ERC721/ERC721.sol\":6027:6058  return _tokenApprovals[tokenId] */\n      swap1\n      pop\n        /* \"@openzeppelin/contracts/token/ERC721/ERC721.sol\":5938:6065  function _getApproved(uint256 tokenId) internal view virtual returns (address) {... */\n      swap2\n      swap1\n      pop\n      jump\t// out\n        /* \"@openzeppelin/contracts/utils/Context.sol\":656:752  function _msgSender() internal view virtual returns (address) {... */\n    tag_160:\n        /* \"@openzeppelin/contracts/utils/Context.sol\":709:716  address */\n      0x00\n        /* \"@openzeppelin/contracts/utils/Context.sol\":735:745  msg.sender */\n      caller\n        /* \"@openzeppelin/contracts/utils/Context.sol\":728:745  return msg.sender */\n      swap1\n      pop\n        /* \"@openzeppelin/contracts/utils/Context.sol\":656:752  function _msgSender() internal view virtual returns (address) {... */\n      swap1\n      jump\t// out\n        /* \"@openzeppelin/contracts/token/ERC721/ERC721.sol\":14418:14538  function _approve(address to, uint256 tokenId, address auth) internal {... */\n    tag_161:\n        /* \"@openzeppelin/contracts/token/ERC721/ERC721.sol\":14498:14531  _approve(to, tokenId, auth, true) */\n      tag_269\n        /* \"@openzeppelin/contracts/token/ERC721/ERC721.sol\":14507:14509  to */\n      dup4\n        /* \"@openzeppelin/contracts/token/ERC721/ERC721.sol\":14511:14518  tokenId */\n      dup4\n        /* \"@openzeppelin/contracts/token/ERC721/ERC721.sol\":14520:14524  auth */\n      dup4\n        /* \"@openzeppelin/contracts/token/ERC721/ERC721.sol\":14526:14530  true */\n      0x01\n        /* \"@openzeppelin/contracts/token/ERC721/ERC721.sol\":14498:14506  _approve */\n      tag_270\n        /* \"@openzeppelin/contracts/token/ERC721/ERC721.sol\":14498:14531  _approve(to, tokenId, auth, true) */\n      jump\t// in\n    tag_269:\n        /* \"@openzeppelin/contracts/token/ERC721/ERC721.sol\":14418:14538  function _approve(address to, uint256 tokenId, address auth) internal {... */\n      pop\n      pop\n      pop\n      jump\t// out\n        /* \"@openzeppelin/contracts/token/ERC721/ERC721.sol\":8838:9633  function _update(address to, uint256 tokenId, address auth) internal virtual returns (address) {... */\n    tag_175:\n        /* \"@openzeppelin/contracts/token/ERC721/ERC721.sol\":8924:8931  address */\n      0x00\n        /* \"@openzeppelin/contracts/token/ERC721/ERC721.sol\":8943:8955  address from */\n      dup1\n        /* \"@openzeppelin/contracts/token/ERC721/ERC721.sol\":8958:8975  _ownerOf(tokenId) */\n      tag_272\n        /* \"@openzeppelin/contracts/token/ERC721/ERC721.sol\":8967:8974  tokenId */\n      dup5\n        /* \"@openzeppelin/contracts/token/ERC721/ERC721.sol\":8958:8966  _ownerOf */\n      tag_263\n        /* \"@openzeppelin/contracts/token/ERC721/ERC721.sol\":8958:8975  _ownerOf(tokenId) */\n      jump\t// in\n    tag_272:\n        /* \"@openzeppelin/contracts/token/ERC721/ERC721.sol\":8943:8975  address from = _ownerOf(tokenId) */\n      swap1\n      pop\n        /* \"@openzeppelin/contracts/token/ERC721/ERC721.sol\":9051:9052  0 */\n      0x00\n        /* \"@openzeppelin/contracts/token/ERC721/ERC721.sol\":9035:9053  auth != address(0) */\n      0xffffffffffffffffffffffffffffffffffffffff\n      and\n        /* \"@openzeppelin/contracts/token/ERC721/ERC721.sol\":9035:9039  auth */\n      dup4\n        /* \"@openzeppelin/contracts/token/ERC721/ERC721.sol\":9035:9053  auth != address(0) */\n      0xffffffffffffffffffffffffffffffffffffffff\n      and\n      eq\n        /* \"@openzeppelin/contracts/token/ERC721/ERC721.sol\":9031:9117  if (auth != address(0)) {... */\n      tag_273\n      jumpi\n        /* \"@openzeppelin/contracts/token/ERC721/ERC721.sol\":9069:9106  _checkAuthorized(from, auth, tokenId) */\n      tag_274\n        /* \"@openzeppelin/contracts/token/ERC721/ERC721.sol\":9086:9090  from */\n      dup2\n        /* \"@openzeppelin/contracts/token/ERC721/ERC721.sol\":9092:9096  auth */\n      dup5\n        /* \"@openzeppelin/contracts/token/ERC721/ERC721.sol\":9098:9105  tokenId */\n      dup7\n        /* \"@openzeppelin/contracts/token/ERC721/ERC721.sol\":9069:9085  _checkAuthorized */\n      tag_275\n        /* \"@openzeppelin/contracts/token/ERC721/ERC721.sol\":9069:9106  _checkAuthorized(from, auth, tokenId) */\n      jump\t// in\n    tag_274:\n        /* \"@openzeppelin/contracts/token/ERC721/ERC721.sol\":9031:9117  if (auth != address(0)) {... */\n    tag_273:\n        /* \"@openzeppelin/contracts/token/ERC721/ERC721.sol\":9177:9178  0 */\n      0x00\n        /* \"@openzeppelin/contracts/token/ERC721/ERC721.sol\":9161:9179  from != address(0) */\n      0xffffffffffffffffffffffffffffffffffffffff\n      and\n        /* \"@openzeppelin/contracts/token/ERC721/ERC721.sol\":9161:9165  from */\n      dup2\n        /* \"@openzeppelin/contracts/token/ERC721/ERC721.sol\":9161:9179  from != address(0) */\n      0xffffffffffffffffffffffffffffffffffffffff\n      and\n      eq\n        /* \"@openzeppelin/contracts/token/ERC721/ERC721.sol\":9157:9413  if (from != address(0)) {... */\n      tag_276\n      jumpi\n        /* \"@openzeppelin/contracts/token/ERC721/ERC721.sol\":9277:9325  _approve(address(0), tokenId, address(0), false) */\n      tag_277\n        /* \"@openzeppelin/contracts/token/ERC721/ERC721.sol\":9294:9295  0 */\n      0x00\n        /* \"@openzeppelin/contracts/token/ERC721/ERC721.sol\":9298:9305  tokenId */\n      dup6\n        /* \"@openzeppelin/contracts/token/ERC721/ERC721.sol\":9315:9316  0 */\n      0x00\n        /* \"@openzeppelin/contracts/token/ERC721/ERC721.sol\":9319:9324  false */\n      dup1\n        /* \"@openzeppelin/contracts/token/ERC721/ERC721.sol\":9277:9285  _approve */\n      tag_270\n        /* \"@openzeppelin/contracts/token/ERC721/ERC721.sol\":9277:9325  _approve(address(0), tokenId, address(0), false) */\n      jump\t// in\n    tag_277:\n        /* \"@openzeppelin/contracts/token/ERC721/ERC721.sol\":9387:9388  1 */\n      0x01\n        /* \"@openzeppelin/contracts/token/ERC721/ERC721.sol\":9368:9377  _balances */\n      0x04\n        /* \"@openzeppelin/contracts/token/ERC721/ERC721.sol\":9368:9383  _balances[from] */\n      0x00\n        /* \"@openzeppelin/contracts/token/ERC721/ERC721.sol\":9378:9382  from */\n      dup4\n        /* \"@openzeppelin/contracts/token/ERC721/ERC721.sol\":9368:9383  _balances[from] */\n      0xffffffffffffffffffffffffffffffffffffffff\n      and\n      0xffffffffffffffffffffffffffffffffffffffff\n      and\n      dup2\n      mstore\n      0x20\n      add\n      swap1\n      dup2\n      mstore\n      0x20\n      add\n      0x00\n      keccak256\n      0x00\n        /* \"@openzeppelin/contracts/token/ERC721/ERC721.sol\":9368:9388  _balances[from] -= 1 */\n      dup3\n      dup3\n      sload\n      sub\n      swap3\n      pop\n      pop\n      dup2\n      swap1\n      sstore\n      pop\n        /* \"@openzeppelin/contracts/token/ERC721/ERC721.sol\":9157:9413  if (from != address(0)) {... */\n    tag_276:\n        /* \"@openzeppelin/contracts/token/ERC721/ERC721.sol\":9441:9442  0 */\n      0x00\n        /* \"@openzeppelin/contracts/token/ERC721/ERC721.sol\":9427:9443  to != address(0) */\n      0xffffffffffffffffffffffffffffffffffffffff\n      and\n        /* \"@openzeppelin/contracts/token/ERC721/ERC721.sol\":9427:9429  to */\n      dup6\n        /* \"@openzeppelin/contracts/token/ERC721/ERC721.sol\":9427:9443  to != address(0) */\n      0xffffffffffffffffffffffffffffffffffffffff\n      and\n      eq\n        /* \"@openzeppelin/contracts/token/ERC721/ERC721.sol\":9423:9530  if (to != address(0)) {... */\n      tag_278\n      jumpi\n        /* \"@openzeppelin/contracts/token/ERC721/ERC721.sol\":9504:9505  1 */\n      0x01\n        /* \"@openzeppelin/contracts/token/ERC721/ERC721.sol\":9487:9496  _balances */\n      0x04\n        /* \"@openzeppelin/contracts/token/ERC721/ERC721.sol\":9487:9500  _balances[to] */\n      0x00\n        /* \"@openzeppelin/contracts/token/ERC721/ERC721.sol\":9497:9499  to */\n      dup8\n        /* \"@openzeppelin/contracts/token/ERC721/ERC721.sol\":9487:9500  _balances[to] */\n      0xffffffffffffffffffffffffffffffffffffffff\n      and\n      0xffffffffffffffffffffffffffffffffffffffff\n      and\n      dup2\n      mstore\n      0x20\n      add\n      swap1\n      dup2\n      mstore\n      0x20\n      add\n      0x00\n      keccak256\n      0x00\n        /* \"@openzeppelin/contracts/token/ERC721/ERC721.sol\":9487:9505  _balances[to] += 1 */\n      dup3\n      dup3\n      sload\n      add\n      swap3\n      pop\n      pop\n      dup2\n      swap1\n      sstore\n      pop\n        /* \"@openzeppelin/contracts/token/ERC721/ERC721.sol\":9423:9530  if (to != address(0)) {... */\n    tag_278:\n        /* \"@openzeppelin/contracts/token/ERC721/ERC721.sol\":9559:9561  to */\n      dup5\n        /* \"@openzeppelin/contracts/token/ERC721/ERC721.sol\":9540:9547  _owners */\n      0x03\n        /* \"@openzeppelin/contracts/token/ERC721/ERC721.sol\":9540:9556  _owners[tokenId] */\n      0x00\n        /* \"@openzeppelin/contracts/token/ERC721/ERC721.sol\":9548:9555  tokenId */\n      dup7\n        /* \"@openzeppelin/contracts/token/ERC721/ERC721.sol\":9540:9556  _owners[tokenId] */\n      dup2\n      mstore\n      0x20\n      add\n      swap1\n      dup2\n      mstore\n      0x20\n      add\n      0x00\n      keccak256\n      0x00\n        /* \"@openzeppelin/contracts/token/ERC721/ERC721.sol\":9540:9561  _owners[tokenId] = to */\n      0x0100\n      exp\n      dup2\n      sload\n      dup2\n      0xffffffffffffffffffffffffffffffffffffffff\n      mul\n      not\n      and\n      swap1\n      dup4\n      0xffffffffffffffffffffffffffffffffffffffff\n      and\n      mul\n      or\n      swap1\n      sstore\n      pop\n        /* \"@openzeppelin/contracts/token/ERC721/ERC721.sol\":9596:9603  tokenId */\n      dup4\n        /* \"@openzeppelin/contracts/token/ERC721/ERC721.sol\":9592:9594  to */\n      dup6\n        /* \"@openzeppelin/contracts/token/ERC721/ERC721.sol\":9577:9604  Transfer(from, to, tokenId) */\n      0xffffffffffffffffffffffffffffffffffffffff\n      and\n        /* \"@openzeppelin/contracts/token/ERC721/ERC721.sol\":9586:9590  from */\n      dup3\n        /* \"@openzeppelin/contracts/token/ERC721/ERC721.sol\":9577:9604  Transfer(from, to, tokenId) */\n      0xffffffffffffffffffffffffffffffffffffffff\n      and\n      0xddf252ad1be2c89b69c2b068fc378daa952ba7f163c4a11628f55a4df523b3ef\n      mload(0x40)\n      mload(0x40)\n      dup1\n      swap2\n      sub\n      swap1\n      log4\n        /* \"@openzeppelin/contracts/token/ERC721/ERC721.sol\":9622:9626  from */\n      dup1\n        /* \"@openzeppelin/contracts/token/ERC721/ERC721.sol\":9615:9626  return from */\n      swap2\n      pop\n      pop\n        /* \"@openzeppelin/contracts/token/ERC721/ERC721.sol\":8838:9633  function _update(address to, uint256 tokenId, address auth) internal virtual returns (address) {... */\n      swap4\n      swap3\n      pop\n      pop\n      pop\n      jump\t// out\n        /* \"@openzeppelin/contracts/access/Ownable.sol\":1796:1958  function _checkOwner() internal view virtual {... */\n    tag_195:\n        /* \"@openzeppelin/contracts/access/Ownable.sol\":1866:1878  _msgSender() */\n      tag_280\n        /* \"@openzeppelin/contracts/access/Ownable.sol\":1866:1876  _msgSender */\n      tag_160\n        /* \"@openzeppelin/contracts/access/Ownable.sol\":1866:1878  _msgSender() */\n      jump\t// in\n    tag_280:\n        /* \"@openzeppelin/contracts/access/Ownable.sol\":1855:1878  owner() != _msgSender() */\n      0xffffffffffffffffffffffffffffffffffffffff\n      and\n        /* \"@openzeppelin/contracts/access/Ownable.sol\":1855:1862  owner() */\n      tag_281\n        /* \"@openzeppelin/contracts/access/Ownable.sol\":1855:1860  owner */\n      tag_95\n        /* \"@openzeppelin/contracts/access/Ownable.sol\":1855:1862  owner() */\n      jump\t// in\n    tag_281:\n        /* \"@openzeppelin/contracts/access/Ownable.sol\":1855:1878  owner() != _msgSender() */\n      0xffffffffffffffffffffffffffffffffffffffff\n      and\n      eq\n        /* \"@openzeppelin/contracts/access/Ownable.sol\":1851:1952  if (owner() != _msgSender()) {... */\n      tag_282\n      jumpi\n        /* \"@openzeppelin/contracts/access/Ownable.sol\":1928:1940  _msgSender() */\n      tag_283\n        /* \"@openzeppelin/contracts/access/Ownable.sol\":1928:1938  _msgSender */\n      tag_160\n        /* \"@openzeppelin/contracts/access/Ownable.sol\":1928:1940  _msgSender() */\n      jump\t// in\n    tag_283:\n        /* \"@openzeppelin/contracts/access/Ownable.sol\":1901:1941  OwnableUnauthorizedAccount(_msgSender()) */\n      mload(0x40)\n      0x118cdaa700000000000000000000000000000000000000000000000000000000\n      dup2\n      mstore\n      0x04\n      add\n      tag_284\n      swap2\n      swap1\n      tag_49\n      jump\t// in\n    tag_284:\n      mload(0x40)\n      dup1\n      swap2\n      sub\n      swap1\n      revert\n        /* \"@openzeppelin/contracts/access/Ownable.sol\":1851:1952  if (owner() != _msgSender()) {... */\n    tag_282:\n        /* \"@openzeppelin/contracts/access/Ownable.sol\":1796:1958  function _checkOwner() internal view virtual {... */\n      jump\t// out\n        /* \"@openzeppelin/contracts/access/Ownable.sol\":2912:3099  function _transferOwnership(address newOwner) internal virtual {... */\n    tag_198:\n        /* \"@openzeppelin/contracts/access/Ownable.sol\":2985:3001  address oldOwner */\n      0x00\n        /* \"@openzeppelin/contracts/access/Ownable.sol\":3004:3010  _owner */\n      dup1\n      0x00\n      swap1\n      sload\n      swap1\n      0x0100\n      exp\n      swap1\n      div\n      0xffffffffffffffffffffffffffffffffffffffff\n      and\n        /* \"@openzeppelin/contracts/access/Ownable.sol\":2985:3010  address oldOwner = _owner */\n      swap1\n      pop\n        /* \"@openzeppelin/contracts/access/Ownable.sol\":3029:3037  newOwner */\n      dup2\n        /* \"@openzeppelin/contracts/access/Ownable.sol\":3020:3026  _owner */\n      0x00\n      dup1\n        /* \"@openzeppelin/contracts/access/Ownable.sol\":3020:3037  _owner = newOwner */\n      0x0100\n      exp\n      dup2\n      sload\n      dup2\n      0xffffffffffffffffffffffffffffffffffffffff\n      mul\n      not\n      and\n      swap1\n      dup4\n      0xffffffffffffffffffffffffffffffffffffffff\n      and\n      mul\n      or\n      swap1\n      sstore\n      pop\n        /* \"@openzeppelin/contracts/access/Ownable.sol\":3083:3091  newOwner */\n      dup2\n        /* \"@openzeppelin/contracts/access/Ownable.sol\":3052:3092  OwnershipTransferred(oldOwner, newOwner) */\n      0xffffffffffffffffffffffffffffffffffffffff\n      and\n        /* \"@openzeppelin/contracts/access/Ownable.sol\":3073:3081  oldOwner */\n      dup2\n        /* \"@openzeppelin/contracts/access/Ownable.sol\":3052:3092  OwnershipTransferred(oldOwner, newOwner) */\n      0xffffffffffffffffffffffffffffffffffffffff\n      and\n      0x8be0079c531659141344cd1fd0a4f28419497f9722a3daafe3b4186f6b6457e0\n      mload(0x40)\n      mload(0x40)\n      dup1\n      swap2\n      sub\n      swap1\n      log3\n        /* \"@openzeppelin/contracts/access/Ownable.sol\":2975:3099  {... */\n      pop\n        /* \"@openzeppelin/contracts/access/Ownable.sol\":2912:3099  function _transferOwnership(address newOwner) internal virtual {... */\n      pop\n      jump\t// out\n        /* \"@openzeppelin/contracts/token/ERC721/ERC721.sol\":15591:15903  function _setApprovalForAll(address owner, address operator, bool approved) internal virtual {... */\n    tag_209:\n        /* \"@openzeppelin/contracts/token/ERC721/ERC721.sol\":15718:15719  0 */\n      0x00\n        /* \"@openzeppelin/contracts/token/ERC721/ERC721.sol\":15698:15720  operator == address(0) */\n      0xffffffffffffffffffffffffffffffffffffffff\n      and\n        /* \"@openzeppelin/contracts/token/ERC721/ERC721.sol\":15698:15706  operator */\n      dup3\n        /* \"@openzeppelin/contracts/token/ERC721/ERC721.sol\":15698:15720  operator == address(0) */\n      0xffffffffffffffffffffffffffffffffffffffff\n      and\n      sub\n        /* \"@openzeppelin/contracts/token/ERC721/ERC721.sol\":15694:15785  if (operator == address(0)) {... */\n      tag_287\n      jumpi\n        /* \"@openzeppelin/contracts/token/ERC721/ERC721.sol\":15765:15773  operator */\n      dup2\n        /* \"@openzeppelin/contracts/token/ERC721/ERC721.sol\":15743:15774  ERC721InvalidOperator(operator) */\n      mload(0x40)\n      0x5b08ba1800000000000000000000000000000000000000000000000000000000\n      dup2\n      mstore\n      0x04\n      add\n      tag_288\n      swap2\n      swap1\n      tag_49\n      jump\t// in\n    tag_288:\n      mload(0x40)\n      dup1\n      swap2\n      sub\n      swap1\n      revert\n        /* \"@openzeppelin/contracts/token/ERC721/ERC721.sol\":15694:15785  if (operator == address(0)) {... */\n    tag_287:\n        /* \"@openzeppelin/contracts/token/ERC721/ERC721.sol\":15832:15840  approved */\n      dup1\n        /* \"@openzeppelin/contracts/token/ERC721/ERC721.sol\":15794:15812  _operatorApprovals */\n      0x06\n        /* \"@openzeppelin/contracts/token/ERC721/ERC721.sol\":15794:15819  _operatorApprovals[owner] */\n      0x00\n        /* \"@openzeppelin/contracts/token/ERC721/ERC721.sol\":15813:15818  owner */\n      dup6\n        /* \"@openzeppelin/contracts/token/ERC721/ERC721.sol\":15794:15819  _operatorApprovals[owner] */\n      0xffffffffffffffffffffffffffffffffffffffff\n      and\n      0xffffffffffffffffffffffffffffffffffffffff\n      and\n      dup2\n      mstore\n      0x20\n      add\n      swap1\n      dup2\n      mstore\n      0x20\n      add\n      0x00\n      keccak256\n        /* \"@openzeppelin/contracts/token/ERC721/ERC721.sol\":15794:15829  _operatorApprovals[owner][operator] */\n      0x00\n        /* \"@openzeppelin/contracts/token/ERC721/ERC721.sol\":15820:15828  operator */\n      dup5\n        /* \"@openzeppelin/contracts/token/ERC721/ERC721.sol\":15794:15829  _operatorApprovals[owner][operator] */\n      0xffffffffffffffffffffffffffffffffffffffff\n      and\n      0xffffffffffffffffffffffffffffffffffffffff\n      and\n      dup2\n      mstore\n      0x20\n      add\n      swap1\n      dup2\n      mstore\n      0x20\n      add\n      0x00\n      keccak256\n      0x00\n        /* \"@openzeppelin/contracts/token/ERC721/ERC721.sol\":15794:15840  _operatorApprovals[owner][operator] = approved */\n      0x0100\n      exp\n      dup2\n      sload\n      dup2\n      0xff\n      mul\n      not\n      and\n      swap1\n      dup4\n      iszero\n      iszero\n      mul\n      or\n      swap1\n      sstore\n      pop\n        /* \"@openzeppelin/contracts/token/ERC721/ERC721.sol\":15877:15885  operator */\n      dup2\n        /* \"@openzeppelin/contracts/token/ERC721/ERC721.sol\":15855:15896  ApprovalForAll(owner, operator, approved) */\n      0xffffffffffffffffffffffffffffffffffffffff\n      and\n        /* \"@openzeppelin/contracts/token/ERC721/ERC721.sol\":15870:15875  owner */\n      dup4\n        /* \"@openzeppelin/contracts/token/ERC721/ERC721.sol\":15855:15896  ApprovalForAll(owner, operator, approved) */\n      0xffffffffffffffffffffffffffffffffffffffff\n      and\n      0x17307eab39ab6107e8899845ad3d59bd9653f200f220920489ca2b5937696c31\n        /* \"@openzeppelin/contracts/token/ERC721/ERC721.sol\":15887:15895  approved */\n      dup4\n        /* \"@openzeppelin/contracts/token/ERC721/ERC721.sol\":15855:15896  ApprovalForAll(owner, operator, approved) */\n      mload(0x40)\n      tag_289\n      swap2\n      swap1\n      tag_37\n      jump\t// in\n    tag_289:\n      mload(0x40)\n      dup1\n      swap2\n      sub\n      swap1\n      log3\n        /* \"@openzeppelin/contracts/token/ERC721/ERC721.sol\":15591:15903  function _setApprovalForAll(address owner, address operator, bool approved) internal virtual {... */\n      pop\n      pop\n      pop\n      jump\t// out\n        /* \"@openzeppelin/contracts/token/ERC721/ERC721.sol\":16918:17700  function _checkOnERC721Received(address from, address to, uint256 tokenId, bytes memory data) private {... */\n    tag_213:\n        /* \"@openzeppelin/contracts/token/ERC721/ERC721.sol\":17051:17052  0 */\n      0x00\n        /* \"@openzeppelin/contracts/token/ERC721/ERC721.sol\":17034:17036  to */\n      dup4\n        /* \"@openzeppelin/contracts/token/ERC721/ERC721.sol\":17034:17048  to.code.length */\n      0xffffffffffffffffffffffffffffffffffffffff\n      and\n      extcodesize\n        /* \"@openzeppelin/contracts/token/ERC721/ERC721.sol\":17034:17052  to.code.length > 0 */\n      gt\n        /* \"@openzeppelin/contracts/token/ERC721/ERC721.sol\":17030:17694  if (to.code.length > 0) {... */\n      iszero\n      tag_291\n      jumpi\n        /* \"@openzeppelin/contracts/token/ERC721/ERC721.sol\":17088:17090  to */\n      dup3\n        /* \"@openzeppelin/contracts/token/ERC721/ERC721.sol\":17072:17108  IERC721Receiver(to).onERC721Received */\n      0xffffffffffffffffffffffffffffffffffffffff\n      and\n      0x150b7a02\n        /* \"@openzeppelin/contracts/token/ERC721/ERC721.sol\":17109:17121  _msgSender() */\n      tag_292\n        /* \"@openzeppelin/contracts/token/ERC721/ERC721.sol\":17109:17119  _msgSender */\n      tag_160\n        /* \"@openzeppelin/contracts/token/ERC721/ERC721.sol\":17109:17121  _msgSender() */\n      jump\t// in\n    tag_292:\n        /* \"@openzeppelin/contracts/token/ERC721/ERC721.sol\":17123:17127  from */\n      dup7\n        /* \"@openzeppelin/contracts/token/ERC721/ERC721.sol\":17129:17136  tokenId */\n      dup6\n        /* \"@openzeppelin/contracts/token/ERC721/ERC721.sol\":17138:17142  data */\n      dup6\n        /* \"@openzeppelin/contracts/token/ERC721/ERC721.sol\":17072:17143  IERC721Receiver(to).onERC721Received(_msgSender(), from, tokenId, data) */\n      mload(0x40)\n      dup6\n      0xffffffff\n      and\n      0xe0\n      shl\n      dup2\n      mstore\n      0x04\n      add\n      tag_293\n      swap5\n      swap4\n      swap3\n      swap2\n      swap1\n      tag_294\n      jump\t// in\n    tag_293:\n      0x20\n      mload(0x40)\n      dup1\n      dup4\n      sub\n      dup2\n      0x00\n      dup8\n      gas\n      call\n      swap3\n      pop\n      pop\n      pop\n      dup1\n      iszero\n      tag_295\n      jumpi\n      pop\n      mload(0x40)\n      returndatasize\n      not(0x1f)\n      0x1f\n      dup3\n      add\n      and\n      dup3\n      add\n      dup1\n      0x40\n      mstore\n      pop\n      dup2\n      add\n      swap1\n      tag_296\n      swap2\n      swap1\n      tag_297\n      jump\t// in\n    tag_296:\n      0x01\n    tag_295:\n        /* \"@openzeppelin/contracts/token/ERC721/ERC721.sol\":17068:17684  try IERC721Receiver(to).onERC721Received(_msgSender(), from, tokenId, data) returns (bytes4 retval) {... */\n      tag_298\n      jumpi\n      returndatasize\n      dup1\n      0x00\n      dup2\n      eq\n      tag_303\n      jumpi\n      mload(0x40)\n      swap2\n      pop\n      and(add(returndatasize, 0x3f), not(0x1f))\n      dup3\n      add\n      0x40\n      mstore\n      returndatasize\n      dup3\n      mstore\n      returndatasize\n      0x00\n      0x20\n      dup5\n      add\n      returndatacopy\n      jump(tag_302)\n    tag_303:\n      0x60\n      swap2\n      pop\n    tag_302:\n      pop\n        /* \"@openzeppelin/contracts/token/ERC721/ERC721.sol\":17398:17399  0 */\n      0x00\n        /* \"@openzeppelin/contracts/token/ERC721/ERC721.sol\":17381:17387  reason */\n      dup2\n        /* \"@openzeppelin/contracts/token/ERC721/ERC721.sol\":17381:17394  reason.length */\n      mload\n        /* \"@openzeppelin/contracts/token/ERC721/ERC721.sol\":17381:17399  reason.length == 0 */\n      sub\n        /* \"@openzeppelin/contracts/token/ERC721/ERC721.sol\":17377:17670  if (reason.length == 0) {... */\n      tag_304\n      jumpi\n        /* \"@openzeppelin/contracts/token/ERC721/ERC721.sol\":17452:17454  to */\n      dup4\n        /* \"@openzeppelin/contracts/token/ERC721/ERC721.sol\":17430:17455  ERC721InvalidReceiver(to) */\n      mload(0x40)\n      0x64a0ae9200000000000000000000000000000000000000000000000000000000\n      dup2\n      mstore\n      0x04\n      add\n      tag_305\n      swap2\n      swap1\n      tag_49\n      jump\t// in\n    tag_305:\n      mload(0x40)\n      dup1\n      swap2\n      sub\n      swap1\n      revert\n        /* \"@openzeppelin/contracts/token/ERC721/ERC721.sol\":17377:17670  if (reason.length == 0) {... */\n    tag_304:\n        /* \"@openzeppelin/contracts/token/ERC721/ERC721.sol\":17622:17628  reason */\n      dup1\n        /* \"@openzeppelin/contracts/token/ERC721/ERC721.sol\":17616:17629  mload(reason) */\n      mload\n        /* \"@openzeppelin/contracts/token/ERC721/ERC721.sol\":17607:17613  reason */\n      dup2\n        /* \"@openzeppelin/contracts/token/ERC721/ERC721.sol\":17603:17605  32 */\n      0x20\n        /* \"@openzeppelin/contracts/token/ERC721/ERC721.sol\":17599:17614  add(32, reason) */\n      add\n        /* \"@openzeppelin/contracts/token/ERC721/ERC721.sol\":17592:17630  revert(add(32, reason), mload(reason)) */\n      revert\n        /* \"@openzeppelin/contracts/token/ERC721/ERC721.sol\":17068:17684  try IERC721Receiver(to).onERC721Received(_msgSender(), from, tokenId, data) returns (bytes4 retval) {... */\n    tag_298:\n        /* \"@openzeppelin/contracts/token/ERC721/ERC721.sol\":17200:17241  IERC721Receiver.onERC721Received.selector */\n      shl(0xe0, 0x150b7a02)\n        /* \"@openzeppelin/contracts/token/ERC721/ERC721.sol\":17190:17241  retval != IERC721Receiver.onERC721Received.selector */\n      not(0xffffffffffffffffffffffffffffffffffffffffffffffffffffffff)\n      and\n        /* \"@openzeppelin/contracts/token/ERC721/ERC721.sol\":17190:17196  retval */\n      dup2\n        /* \"@openzeppelin/contracts/token/ERC721/ERC721.sol\":17190:17241  retval != IERC721Receiver.onERC721Received.selector */\n      not(0xffffffffffffffffffffffffffffffffffffffffffffffffffffffff)\n      and\n      eq\n        /* \"@openzeppelin/contracts/token/ERC721/ERC721.sol\":17186:17316  if (retval != IERC721Receiver.onERC721Received.selector) {... */\n      tag_308\n      jumpi\n        /* \"@openzeppelin/contracts/token/ERC721/ERC721.sol\":17294:17296  to */\n      dup4\n        /* \"@openzeppelin/contracts/token/ERC721/ERC721.sol\":17272:17297  ERC721InvalidReceiver(to) */\n      mload(0x40)\n      0x64a0ae9200000000000000000000000000000000000000000000000000000000\n      dup2\n      mstore\n      0x04\n      add\n      tag_309\n      swap2\n      swap1\n      tag_49\n      jump\t// in\n    tag_309:\n      mload(0x40)\n      dup1\n      swap2\n      sub\n      swap1\n      revert\n        /* \"@openzeppelin/contracts/token/ERC721/ERC721.sol\":17186:17316  if (retval != IERC721Receiver.onERC721Received.selector) {... */\n    tag_308:\n        /* \"@openzeppelin/contracts/token/ERC721/ERC721.sol\":17144:17330  returns (bytes4 retval) {... */\n      pop\n        /* \"@openzeppelin/contracts/token/ERC721/ERC721.sol\":17030:17694  if (to.code.length > 0) {... */\n    tag_291:\n        /* \"@openzeppelin/contracts/token/ERC721/ERC721.sol\":16918:17700  function _checkOnERC721Received(address from, address to, uint256 tokenId, bytes memory data) private {... */\n      pop\n      pop\n      pop\n      pop\n      jump\t// out\n        /* \"@openzeppelin/contracts/token/ERC721/ERC721.sol\":11462:11689  function _burn(uint256 tokenId) internal {... */\n    tag_220:\n        /* \"@openzeppelin/contracts/token/ERC721/ERC721.sol\":11513:11534  address previousOwner */\n      0x00\n        /* \"@openzeppelin/contracts/token/ERC721/ERC721.sol\":11537:11577  _update(address(0), tokenId, address(0)) */\n      tag_311\n        /* \"@openzeppelin/contracts/token/ERC721/ERC721.sol\":11553:11554  0 */\n      0x00\n        /* \"@openzeppelin/contracts/token/ERC721/ERC721.sol\":11557:11564  tokenId */\n      dup4\n        /* \"@openzeppelin/contracts/token/ERC721/ERC721.sol\":11574:11575  0 */\n      0x00\n        /* \"@openzeppelin/contracts/token/ERC721/ERC721.sol\":11537:11544  _update */\n      tag_175\n        /* \"@openzeppelin/contracts/token/ERC721/ERC721.sol\":11537:11577  _update(address(0), tokenId, address(0)) */\n      jump\t// in\n    tag_311:\n        /* \"@openzeppelin/contracts/token/ERC721/ERC721.sol\":11513:11577  address previousOwner = _update(address(0), tokenId, address(0)) */\n      swap1\n      pop\n        /* \"@openzeppelin/contracts/token/ERC721/ERC721.sol\":11616:11617  0 */\n      0x00\n        /* \"@openzeppelin/contracts/token/ERC721/ERC721.sol\":11591:11618  previousOwner == address(0) */\n      0xffffffffffffffffffffffffffffffffffffffff\n      and\n        /* \"@openzeppelin/contracts/token/ERC721/ERC721.sol\":11591:11604  previousOwner */\n      dup2\n        /* \"@openzeppelin/contracts/token/ERC721/ERC721.sol\":11591:11618  previousOwner == address(0) */\n      0xffffffffffffffffffffffffffffffffffffffff\n      and\n      sub\n        /* \"@openzeppelin/contracts/token/ERC721/ERC721.sol\":11587:11683  if (previousOwner == address(0)) {... */\n      tag_312\n      jumpi\n        /* \"@openzeppelin/contracts/token/ERC721/ERC721.sol\":11664:11671  tokenId */\n      dup2\n        /* \"@openzeppelin/contracts/token/ERC721/ERC721.sol\":11641:11672  ERC721NonexistentToken(tokenId) */\n      mload(0x40)\n      0x7e27328900000000000000000000000000000000000000000000000000000000\n      dup2\n      mstore\n      0x04\n      add\n      tag_313\n      swap2\n      swap1\n      tag_89\n      jump\t// in\n    tag_313:\n      mload(0x40)\n      dup1\n      swap2\n      sub\n      swap1\n      revert\n        /* \"@openzeppelin/contracts/token/ERC721/ERC721.sol\":11587:11683  if (previousOwner == address(0)) {... */\n    tag_312:\n        /* \"@openzeppelin/contracts/token/ERC721/ERC721.sol\":11503:11689  {... */\n      pop\n        /* \"@openzeppelin/contracts/token/ERC721/ERC721.sol\":11462:11689  function _burn(uint256 tokenId) internal {... */\n      pop\n      jump\t// out\n        /* \"@openzeppelin/contracts/token/ERC721/ERC721.sol\":3174:3266  function _baseURI() internal view virtual returns (string memory) {... */\n    tag_243:\n        /* \"@openzeppelin/contracts/token/ERC721/ERC721.sol\":3225:3238  string memory */\n      0x60\n        /* \"@openzeppelin/contracts/token/ERC721/ERC721.sol\":3250:3259  return \"\" */\n      mload(0x40)\n      dup1\n      0x20\n      add\n      0x40\n      mstore\n      dup1\n      0x00\n      dup2\n      mstore\n      pop\n      swap1\n      pop\n        /* \"@openzeppelin/contracts/token/ERC721/ERC721.sol\":3174:3266  function _baseURI() internal view virtual returns (string memory) {... */\n      swap1\n      jump\t// out\n        /* \"@openzeppelin/contracts/utils/Strings.sol\":637:1335  function toString(uint256 value) internal pure returns (string memory) {... */\n    tag_247:\n        /* \"@openzeppelin/contracts/utils/Strings.sol\":693:706  string memory */\n      0x60\n        /* \"@openzeppelin/contracts/utils/Strings.sol\":742:756  uint256 length */\n      0x00\n        /* \"@openzeppelin/contracts/utils/Strings.sol\":779:780  1 */\n      0x01\n        /* \"@openzeppelin/contracts/utils/Strings.sol\":759:776  Math.log10(value) */\n      tag_316\n        /* \"@openzeppelin/contracts/utils/Strings.sol\":770:775  value */\n      dup5\n        /* \"@openzeppelin/contracts/utils/Strings.sol\":759:769  Math.log10 */\n      tag_317\n        /* \"@openzeppelin/contracts/utils/Strings.sol\":759:776  Math.log10(value) */\n      jump\t// in\n    tag_316:\n        /* \"@openzeppelin/contracts/utils/Strings.sol\":759:780  Math.log10(value) + 1 */\n      add\n        /* \"@openzeppelin/contracts/utils/Strings.sol\":742:780  uint256 length = Math.log10(value) + 1 */\n      swap1\n      pop\n        /* \"@openzeppelin/contracts/utils/Strings.sol\":794:814  string memory buffer */\n      0x00\n        /* \"@openzeppelin/contracts/utils/Strings.sol\":828:834  length */\n      dup2\n        /* \"@openzeppelin/contracts/utils/Strings.sol\":817:835  new string(length) */\n      0xffffffffffffffff\n      dup2\n      gt\n      iszero\n      tag_318\n      jumpi\n      tag_319\n      tag_320\n      jump\t// in\n    tag_319:\n    tag_318:\n      mload(0x40)\n      swap1\n      dup1\n      dup3\n      mstore\n      dup1\n      0x1f\n      add\n      not(0x1f)\n      and\n      0x20\n      add\n      dup3\n      add\n      0x40\n      mstore\n      dup1\n      iszero\n      tag_321\n      jumpi\n      dup2\n      0x20\n      add\n      0x01\n      dup3\n      mul\n      dup1\n      calldatasize\n      dup4\n      calldatacopy\n      dup1\n      dup3\n      add\n      swap2\n      pop\n      pop\n      swap1\n      pop\n    tag_321:\n      pop\n        /* \"@openzeppelin/contracts/utils/Strings.sol\":794:835  string memory buffer = new string(length) */\n      swap1\n      pop\n        /* \"@openzeppelin/contracts/utils/Strings.sol\":849:860  uint256 ptr */\n      0x00\n        /* \"@openzeppelin/contracts/utils/Strings.sol\":975:981  length */\n      dup3\n        /* \"@openzeppelin/contracts/utils/Strings.sol\":971:973  32 */\n      0x20\n        /* \"@openzeppelin/contracts/utils/Strings.sol\":967:982  add(32, length) */\n      add\n        /* \"@openzeppelin/contracts/utils/Strings.sol\":959:965  buffer */\n      dup3\n        /* \"@openzeppelin/contracts/utils/Strings.sol\":955:983  add(buffer, add(32, length)) */\n      add\n        /* \"@openzeppelin/contracts/utils/Strings.sol\":948:983  ptr := add(buffer, add(32, length)) */\n      swap1\n      pop\n        /* \"@openzeppelin/contracts/utils/Strings.sol\":1010:1292  while (true) {... */\n    tag_322:\n        /* \"@openzeppelin/contracts/utils/Strings.sol\":1017:1021  true */\n      0x01\n        /* \"@openzeppelin/contracts/utils/Strings.sol\":1010:1292  while (true) {... */\n      iszero\n      tag_323\n      jumpi\n        /* \"@openzeppelin/contracts/utils/Strings.sol\":1041:1046  ptr-- */\n      dup1\n      dup1\n      0x01\n      swap1\n      sub\n      swap2\n      pop\n      pop\n        /* \"@openzeppelin/contracts/utils/Strings.sol\":1180:1190  HEX_DIGITS */\n      0x3031323334353637383961626364656600000000000000000000000000000000\n        /* \"@openzeppelin/contracts/utils/Strings.sol\":1175:1177  10 */\n      0x0a\n        /* \"@openzeppelin/contracts/utils/Strings.sol\":1168:1173  value */\n      dup7\n        /* \"@openzeppelin/contracts/utils/Strings.sol\":1164:1178  mod(value, 10) */\n      mod\n        /* \"@openzeppelin/contracts/utils/Strings.sol\":1159:1191  byte(mod(value, 10), HEX_DIGITS) */\n      byte\n        /* \"@openzeppelin/contracts/utils/Strings.sol\":1154:1157  ptr */\n      dup2\n        /* \"@openzeppelin/contracts/utils/Strings.sol\":1146:1192  mstore8(ptr, byte(mod(value, 10), HEX_DIGITS)) */\n      mstore8\n        /* \"@openzeppelin/contracts/utils/Strings.sol\":1236:1238  10 */\n      0x0a\n        /* \"@openzeppelin/contracts/utils/Strings.sol\":1227:1238  value /= 10 */\n      dup6\n      dup2\n      tag_324\n      jumpi\n      tag_325\n      tag_326\n      jump\t// in\n    tag_325:\n    tag_324:\n      div\n      swap5\n      pop\n        /* \"@openzeppelin/contracts/utils/Strings.sol\":1269:1270  0 */\n      0x00\n        /* \"@openzeppelin/contracts/utils/Strings.sol\":1260:1265  value */\n      dup6\n        /* \"@openzeppelin/contracts/utils/Strings.sol\":1260:1270  value == 0 */\n      sub\n        /* \"@openzeppelin/contracts/utils/Strings.sol\":1010:1292  while (true) {... */\n      tag_322\n        /* \"@openzeppelin/contracts/utils/Strings.sol\":1256:1277  if (value == 0) break */\n      jumpi\n        /* \"@openzeppelin/contracts/utils/Strings.sol\":1010:1292  while (true) {... */\n    tag_323:\n        /* \"@openzeppelin/contracts/utils/Strings.sol\":1312:1318  buffer */\n      dup2\n        /* \"@openzeppelin/contracts/utils/Strings.sol\":1305:1318  return buffer */\n      swap4\n      pop\n      pop\n      pop\n      pop\n        /* \"@openzeppelin/contracts/utils/Strings.sol\":637:1335  function toString(uint256 value) internal pure returns (string memory) {... */\n      swap2\n      swap1\n      pop\n      jump\t// out\n        /* \"@openzeppelin/contracts/token/ERC721/ERC721.sol\":10954:11136  function _safeMint(address to, uint256 tokenId, bytes memory data) internal virtual {... */\n    tag_259:\n        /* \"@openzeppelin/contracts/token/ERC721/ERC721.sol\":11048:11066  _mint(to, tokenId) */\n      tag_329\n        /* \"@openzeppelin/contracts/token/ERC721/ERC721.sol\":11054:11056  to */\n      dup4\n        /* \"@openzeppelin/contracts/token/ERC721/ERC721.sol\":11058:11065  tokenId */\n      dup4\n        /* \"@openzeppelin/contracts/token/ERC721/ERC721.sol\":11048:11053  _mint */\n      tag_330\n        /* \"@openzeppelin/contracts/token/ERC721/ERC721.sol\":11048:11066  _mint(to, tokenId) */\n      jump\t// in\n    tag_329:\n        /* \"@openzeppelin/contracts/token/ERC721/ERC721.sol\":11076:11129  _checkOnERC721Received(address(0), to, tokenId, data) */\n      tag_331\n        /* \"@openzeppelin/contracts/token/ERC721/ERC721.sol\":11107:11108  0 */\n      0x00\n        /* \"@openzeppelin/contracts/token/ERC721/ERC721.sol\":11111:11113  to */\n      dup5\n        /* \"@openzeppelin/contracts/token/ERC721/ERC721.sol\":11115:11122  tokenId */\n      dup5\n        /* \"@openzeppelin/contracts/token/ERC721/ERC721.sol\":11124:11128  data */\n      dup5\n        /* \"@openzeppelin/contracts/token/ERC721/ERC721.sol\":11076:11098  _checkOnERC721Received */\n      tag_213\n        /* \"@openzeppelin/contracts/token/ERC721/ERC721.sol\":11076:11129  _checkOnERC721Received(address(0), to, tokenId, data) */\n      jump\t// in\n    tag_331:\n        /* \"@openzeppelin/contracts/token/ERC721/ERC721.sol\":10954:11136  function _safeMint(address to, uint256 tokenId, bytes memory data) internal virtual {... */\n      pop\n      pop\n      pop\n      jump\t// out\n        /* \"@openzeppelin/contracts/token/ERC721/ERC721.sol\":5707:5822  function _ownerOf(uint256 tokenId) internal view virtual returns (address) {... */\n    tag_263:\n        /* \"@openzeppelin/contracts/token/ERC721/ERC721.sol\":5773:5780  address */\n      0x00\n        /* \"@openzeppelin/contracts/token/ERC721/ERC721.sol\":5799:5806  _owners */\n      0x03\n        /* \"@openzeppelin/contracts/token/ERC721/ERC721.sol\":5799:5815  _owners[tokenId] */\n      0x00\n        /* \"@openzeppelin/contracts/token/ERC721/ERC721.sol\":5807:5814  tokenId */\n      dup4\n        /* \"@openzeppelin/contracts/token/ERC721/ERC721.sol\":5799:5815  _owners[tokenId] */\n      dup2\n      mstore\n      0x20\n      add\n      swap1\n      dup2\n      mstore\n      0x20\n      add\n      0x00\n      keccak256\n      0x00\n      swap1\n      sload\n      swap1\n      0x0100\n      exp\n      swap1\n      div\n      0xffffffffffffffffffffffffffffffffffffffff\n      and\n        /* \"@openzeppelin/contracts/token/ERC721/ERC721.sol\":5792:5815  return _owners[tokenId] */\n      swap1\n      pop\n        /* \"@openzeppelin/contracts/token/ERC721/ERC721.sol\":5707:5822  function _ownerOf(uint256 tokenId) internal view virtual returns (address) {... */\n      swap2\n      swap1\n      pop\n      jump\t// out\n        /* \"@openzeppelin/contracts/token/ERC721/ERC721.sol\":14720:15382  function _approve(address to, uint256 tokenId, address auth, bool emitEvent) internal virtual {... */\n    tag_270:\n        /* \"@openzeppelin/contracts/token/ERC721/ERC721.sol\":14880:14889  emitEvent */\n      dup1\n        /* \"@openzeppelin/contracts/token/ERC721/ERC721.sol\":14880:14911  emitEvent || auth != address(0) */\n      dup1\n      tag_334\n      jumpi\n      pop\n        /* \"@openzeppelin/contracts/token/ERC721/ERC721.sol\":14909:14910  0 */\n      0x00\n        /* \"@openzeppelin/contracts/token/ERC721/ERC721.sol\":14893:14911  auth != address(0) */\n      0xffffffffffffffffffffffffffffffffffffffff\n      and\n        /* \"@openzeppelin/contracts/token/ERC721/ERC721.sol\":14893:14897  auth */\n      dup3\n        /* \"@openzeppelin/contracts/token/ERC721/ERC721.sol\":14893:14911  auth != address(0) */\n      0xffffffffffffffffffffffffffffffffffffffff\n      and\n      eq\n      iszero\n        /* \"@openzeppelin/contracts/token/ERC721/ERC721.sol\":14880:14911  emitEvent || auth != address(0) */\n    tag_334:\n        /* \"@openzeppelin/contracts/token/ERC721/ERC721.sol\":14876:15336  if (emitEvent || auth != address(0)) {... */\n      iszero\n      tag_335\n      jumpi\n        /* \"@openzeppelin/contracts/token/ERC721/ERC721.sol\":14927:14940  address owner */\n      0x00\n        /* \"@openzeppelin/contracts/token/ERC721/ERC721.sol\":14943:14965  _requireOwned(tokenId) */\n      tag_336\n        /* \"@openzeppelin/contracts/token/ERC721/ERC721.sol\":14957:14964  tokenId */\n      dup5\n        /* \"@openzeppelin/contracts/token/ERC721/ERC721.sol\":14943:14956  _requireOwned */\n      tag_154\n        /* \"@openzeppelin/contracts/token/ERC721/ERC721.sol\":14943:14965  _requireOwned(tokenId) */\n      jump\t// in\n    tag_336:\n        /* \"@openzeppelin/contracts/token/ERC721/ERC721.sol\":14927:14965  address owner = _requireOwned(tokenId) */\n      swap1\n      pop\n        /* \"@openzeppelin/contracts/token/ERC721/ERC721.sol\":15109:15110  0 */\n      0x00\n        /* \"@openzeppelin/contracts/token/ERC721/ERC721.sol\":15093:15111  auth != address(0) */\n      0xffffffffffffffffffffffffffffffffffffffff\n      and\n        /* \"@openzeppelin/contracts/token/ERC721/ERC721.sol\":15093:15097  auth */\n      dup4\n        /* \"@openzeppelin/contracts/token/ERC721/ERC721.sol\":15093:15111  auth != address(0) */\n      0xffffffffffffffffffffffffffffffffffffffff\n      and\n      eq\n      iszero\n        /* \"@openzeppelin/contracts/token/ERC721/ERC721.sol\":15093:15128  auth != address(0) && owner != auth */\n      dup1\n      iszero\n      tag_337\n      jumpi\n      pop\n        /* \"@openzeppelin/contracts/token/ERC721/ERC721.sol\":15124:15128  auth */\n      dup3\n        /* \"@openzeppelin/contracts/token/ERC721/ERC721.sol\":15115:15128  owner != auth */\n      0xffffffffffffffffffffffffffffffffffffffff\n      and\n        /* \"@openzeppelin/contracts/token/ERC721/ERC721.sol\":15115:15120  owner */\n      dup2\n        /* \"@openzeppelin/contracts/token/ERC721/ERC721.sol\":15115:15128  owner != auth */\n      0xffffffffffffffffffffffffffffffffffffffff\n      and\n      eq\n      iszero\n        /* \"@openzeppelin/contracts/token/ERC721/ERC721.sol\":15093:15128  auth != address(0) && owner != auth */\n    tag_337:\n        /* \"@openzeppelin/contracts/token/ERC721/ERC721.sol\":15093:15162  auth != address(0) && owner != auth && !isApprovedForAll(owner, auth) */\n      dup1\n      iszero\n      tag_338\n      jumpi\n      pop\n        /* \"@openzeppelin/contracts/token/ERC721/ERC721.sol\":15133:15162  isApprovedForAll(owner, auth) */\n      tag_339\n        /* \"@openzeppelin/contracts/token/ERC721/ERC721.sol\":15150:15155  owner */\n      dup2\n        /* \"@openzeppelin/contracts/token/ERC721/ERC721.sol\":15157:15161  auth */\n      dup5\n        /* \"@openzeppelin/contracts/token/ERC721/ERC721.sol\":15133:15149  isApprovedForAll */\n      tag_124\n        /* \"@openzeppelin/contracts/token/ERC721/ERC721.sol\":15133:15162  isApprovedForAll(owner, auth) */\n      jump\t// in\n    tag_339:\n        /* \"@openzeppelin/contracts/token/ERC721/ERC721.sol\":15132:15162  !isApprovedForAll(owner, auth) */\n      iszero\n        /* \"@openzeppelin/contracts/token/ERC721/ERC721.sol\":15093:15162  auth != address(0) && owner != auth && !isApprovedForAll(owner, auth) */\n    tag_338:\n        /* \"@openzeppelin/contracts/token/ERC721/ERC721.sol\":15089:15231  if (auth != address(0) && owner != auth && !isApprovedForAll(owner, auth)) {... */\n      iszero\n      tag_340\n      jumpi\n        /* \"@openzeppelin/contracts/token/ERC721/ERC721.sol\":15211:15215  auth */\n      dup3\n        /* \"@openzeppelin/contracts/token/ERC721/ERC721.sol\":15189:15216  ERC721InvalidApprover(auth) */\n      mload(0x40)\n      0xa9fbf51f00000000000000000000000000000000000000000000000000000000\n      dup2\n      mstore\n      0x04\n      add\n      tag_341\n      swap2\n      swap1\n      tag_49\n      jump\t// in\n    tag_341:\n      mload(0x40)\n      dup1\n      swap2\n      sub\n      swap1\n      revert\n        /* \"@openzeppelin/contracts/token/ERC721/ERC721.sol\":15089:15231  if (auth != address(0) && owner != auth && !isApprovedForAll(owner, auth)) {... */\n    tag_340:\n        /* \"@openzeppelin/contracts/token/ERC721/ERC721.sol\":15249:15258  emitEvent */\n      dup2\n        /* \"@openzeppelin/contracts/token/ERC721/ERC721.sol\":15245:15326  if (emitEvent) {... */\n      iszero\n      tag_342\n      jumpi\n        /* \"@openzeppelin/contracts/token/ERC721/ERC721.sol\":15303:15310  tokenId */\n      dup4\n        /* \"@openzeppelin/contracts/token/ERC721/ERC721.sol\":15299:15301  to */\n      dup6\n        /* \"@openzeppelin/contracts/token/ERC721/ERC721.sol\":15283:15311  Approval(owner, to, tokenId) */\n      0xffffffffffffffffffffffffffffffffffffffff\n      and\n        /* \"@openzeppelin/contracts/token/ERC721/ERC721.sol\":15292:15297  owner */\n      dup3\n        /* \"@openzeppelin/contracts/token/ERC721/ERC721.sol\":15283:15311  Approval(owner, to, tokenId) */\n      0xffffffffffffffffffffffffffffffffffffffff\n      and\n      0x8c5be1e5ebec7d5bd14f71427d1e84f3dd0314c0f7b2291e5b200ac8c7c3b925\n      mload(0x40)\n      mload(0x40)\n      dup1\n      swap2\n      sub\n      swap1\n      log4\n        /* \"@openzeppelin/contracts/token/ERC721/ERC721.sol\":15245:15326  if (emitEvent) {... */\n    tag_342:\n        /* \"@openzeppelin/contracts/token/ERC721/ERC721.sol\":14913:15336  {... */\n      pop\n        /* \"@openzeppelin/contracts/token/ERC721/ERC721.sol\":14876:15336  if (emitEvent || auth != address(0)) {... */\n    tag_335:\n        /* \"@openzeppelin/contracts/token/ERC721/ERC721.sol\":15373:15375  to */\n      dup4\n        /* \"@openzeppelin/contracts/token/ERC721/ERC721.sol\":15346:15361  _tokenApprovals */\n      0x05\n        /* \"@openzeppelin/contracts/token/ERC721/ERC721.sol\":15346:15370  _tokenApprovals[tokenId] */\n      0x00\n        /* \"@openzeppelin/contracts/token/ERC721/ERC721.sol\":15362:15369  tokenId */\n      dup6\n        /* \"@openzeppelin/contracts/token/ERC721/ERC721.sol\":15346:15370  _tokenApprovals[tokenId] */\n      dup2\n      mstore\n      0x20\n      add\n      swap1\n      dup2\n      mstore\n      0x20\n      add\n      0x00\n      keccak256\n      0x00\n        /* \"@openzeppelin/contracts/token/ERC721/ERC721.sol\":15346:15375  _tokenApprovals[tokenId] = to */\n      0x0100\n      exp\n      dup2\n      sload\n      dup2\n      0xffffffffffffffffffffffffffffffffffffffff\n      mul\n      not\n      and\n      swap1\n      dup4\n      0xffffffffffffffffffffffffffffffffffffffff\n      and\n      mul\n      or\n      swap1\n      sstore\n      pop\n        /* \"@openzeppelin/contracts/token/ERC721/ERC721.sol\":14720:15382  function _approve(address to, uint256 tokenId, address auth, bool emitEvent) internal virtual {... */\n      pop\n      pop\n      pop\n      pop\n      jump\t// out\n        /* \"@openzeppelin/contracts/token/ERC721/ERC721.sol\":7082:7450  function _checkAuthorized(address owner, address spender, uint256 tokenId) internal view virtual {... */\n    tag_275:\n        /* \"@openzeppelin/contracts/token/ERC721/ERC721.sol\":7194:7232  _isAuthorized(owner, spender, tokenId) */\n      tag_344\n        /* \"@openzeppelin/contracts/token/ERC721/ERC721.sol\":7208:7213  owner */\n      dup4\n        /* \"@openzeppelin/contracts/token/ERC721/ERC721.sol\":7215:7222  spender */\n      dup4\n        /* \"@openzeppelin/contracts/token/ERC721/ERC721.sol\":7224:7231  tokenId */\n      dup4\n        /* \"@openzeppelin/contracts/token/ERC721/ERC721.sol\":7194:7207  _isAuthorized */\n      tag_345\n        /* \"@openzeppelin/contracts/token/ERC721/ERC721.sol\":7194:7232  _isAuthorized(owner, spender, tokenId) */\n      jump\t// in\n    tag_344:\n        /* \"@openzeppelin/contracts/token/ERC721/ERC721.sol\":7189:7444  if (!_isAuthorized(owner, spender, tokenId)) {... */\n      tag_346\n      jumpi\n        /* \"@openzeppelin/contracts/token/ERC721/ERC721.sol\":7269:7270  0 */\n      0x00\n        /* \"@openzeppelin/contracts/token/ERC721/ERC721.sol\":7252:7271  owner == address(0) */\n      0xffffffffffffffffffffffffffffffffffffffff\n      and\n        /* \"@openzeppelin/contracts/token/ERC721/ERC721.sol\":7252:7257  owner */\n      dup4\n        /* \"@openzeppelin/contracts/token/ERC721/ERC721.sol\":7252:7271  owner == address(0) */\n      0xffffffffffffffffffffffffffffffffffffffff\n      and\n      sub\n        /* \"@openzeppelin/contracts/token/ERC721/ERC721.sol\":7248:7434  if (owner == address(0)) {... */\n      tag_347\n      jumpi\n        /* \"@openzeppelin/contracts/token/ERC721/ERC721.sol\":7321:7328  tokenId */\n      dup1\n        /* \"@openzeppelin/contracts/token/ERC721/ERC721.sol\":7298:7329  ERC721NonexistentToken(tokenId) */\n      mload(0x40)\n      0x7e27328900000000000000000000000000000000000000000000000000000000\n      dup2\n      mstore\n      0x04\n      add\n      tag_348\n      swap2\n      swap1\n      tag_89\n      jump\t// in\n    tag_348:\n      mload(0x40)\n      dup1\n      swap2\n      sub\n      swap1\n      revert\n        /* \"@openzeppelin/contracts/token/ERC721/ERC721.sol\":7248:7434  if (owner == address(0)) {... */\n    tag_347:\n        /* \"@openzeppelin/contracts/token/ERC721/ERC721.sol\":7402:7409  spender */\n      dup2\n        /* \"@openzeppelin/contracts/token/ERC721/ERC721.sol\":7411:7418  tokenId */\n      dup2\n        /* \"@openzeppelin/contracts/token/ERC721/ERC721.sol\":7375:7419  ERC721InsufficientApproval(spender, tokenId) */\n      mload(0x40)\n      0x177e802f00000000000000000000000000000000000000000000000000000000\n      dup2\n      mstore\n      0x04\n      add\n      tag_350\n      swap3\n      swap2\n      swap1\n      tag_224\n      jump\t// in\n    tag_350:\n      mload(0x40)\n      dup1\n      swap2\n      sub\n      swap1\n      revert\n        /* \"@openzeppelin/contracts/token/ERC721/ERC721.sol\":7189:7444  if (!_isAuthorized(owner, spender, tokenId)) {... */\n    tag_346:\n        /* \"@openzeppelin/contracts/token/ERC721/ERC721.sol\":7082:7450  function _checkAuthorized(address owner, address spender, uint256 tokenId) internal view virtual {... */\n      pop\n      pop\n      pop\n      jump\t// out\n        /* \"@openzeppelin/contracts/utils/math/Math.sol\":12214:13130  function log10(uint256 value) internal pure returns (uint256) {... */\n    tag_317:\n        /* \"@openzeppelin/contracts/utils/math/Math.sol\":12267:12274  uint256 */\n      0x00\n        /* \"@openzeppelin/contracts/utils/math/Math.sol\":12286:12300  uint256 result */\n      dup1\n        /* \"@openzeppelin/contracts/utils/math/Math.sol\":12303:12304  0 */\n      0x00\n        /* \"@openzeppelin/contracts/utils/math/Math.sol\":12286:12304  uint256 result = 0 */\n      swap1\n      pop\n        /* \"@openzeppelin/contracts/utils/math/Math.sol\":12351:12359  10 ** 64 */\n      0x184f03e93ff9f4daa797ed6e38ed64bf6a1f010000000000000000\n        /* \"@openzeppelin/contracts/utils/math/Math.sol\":12342:12347  value */\n      dup4\n        /* \"@openzeppelin/contracts/utils/math/Math.sol\":12342:12359  value >= 10 ** 64 */\n      lt\n        /* \"@openzeppelin/contracts/utils/math/Math.sol\":12338:12441  if (value >= 10 ** 64) {... */\n      tag_352\n      jumpi\n        /* \"@openzeppelin/contracts/utils/math/Math.sol\":12388:12396  10 ** 64 */\n      0x184f03e93ff9f4daa797ed6e38ed64bf6a1f010000000000000000\n        /* \"@openzeppelin/contracts/utils/math/Math.sol\":12379:12396  value /= 10 ** 64 */\n      dup4\n      dup2\n      tag_353\n      jumpi\n      tag_354\n      tag_326\n      jump\t// in\n    tag_354:\n    tag_353:\n      div\n      swap3\n      pop\n        /* \"@openzeppelin/contracts/utils/math/Math.sol\":12424:12426  64 */\n      0x40\n        /* \"@openzeppelin/contracts/utils/math/Math.sol\":12414:12426  result += 64 */\n      dup2\n      add\n      swap1\n      pop\n        /* \"@openzeppelin/contracts/utils/math/Math.sol\":12338:12441  if (value >= 10 ** 64) {... */\n    tag_352:\n        /* \"@openzeppelin/contracts/utils/math/Math.sol\":12467:12475  10 ** 32 */\n      0x04ee2d6d415b85acef8100000000\n        /* \"@openzeppelin/contracts/utils/math/Math.sol\":12458:12463  value */\n      dup4\n        /* \"@openzeppelin/contracts/utils/math/Math.sol\":12458:12475  value >= 10 ** 32 */\n      lt\n        /* \"@openzeppelin/contracts/utils/math/Math.sol\":12454:12557  if (value >= 10 ** 32) {... */\n      tag_355\n      jumpi\n        /* \"@openzeppelin/contracts/utils/math/Math.sol\":12504:12512  10 ** 32 */\n      0x04ee2d6d415b85acef8100000000\n        /* \"@openzeppelin/contracts/utils/math/Math.sol\":12495:12512  value /= 10 ** 32 */\n      dup4\n      dup2\n      tag_356\n      jumpi\n      tag_357\n      tag_326\n      jump\t// in\n    tag_357:\n    tag_356:\n      div\n      swap3\n      pop\n        /* \"@openzeppelin/contracts/utils/math/Math.sol\":12540:12542  32 */\n      0x20\n        /* \"@openzeppelin/contracts/utils/math/Math.sol\":12530:12542  result += 32 */\n      dup2\n      add\n      swap1\n      pop\n        /* \"@openzeppelin/contracts/utils/math/Math.sol\":12454:12557  if (value >= 10 ** 32) {... */\n    tag_355:\n        /* \"@openzeppelin/contracts/utils/math/Math.sol\":12583:12591  10 ** 16 */\n      0x2386f26fc10000\n        /* \"@openzeppelin/contracts/utils/math/Math.sol\":12574:12579  value */\n      dup4\n        /* \"@openzeppelin/contracts/utils/math/Math.sol\":12574:12591  value >= 10 ** 16 */\n      lt\n        /* \"@openzeppelin/contracts/utils/math/Math.sol\":12570:12673  if (value >= 10 ** 16) {... */\n      tag_358\n      jumpi\n        /* \"@openzeppelin/contracts/utils/math/Math.sol\":12620:12628  10 ** 16 */\n      0x2386f26fc10000\n        /* \"@openzeppelin/contracts/utils/math/Math.sol\":12611:12628  value /= 10 ** 16 */\n      dup4\n      dup2\n      tag_359\n      jumpi\n      tag_360\n      tag_326\n      jump\t// in\n    tag_360:\n    tag_359:\n      div\n      swap3\n      pop\n        /* \"@openzeppelin/contracts/utils/math/Math.sol\":12656:12658  16 */\n      0x10\n        /* \"@openzeppelin/contracts/utils/math/Math.sol\":12646:12658  result += 16 */\n      dup2\n      add\n      swap1\n      pop\n        /* \"@openzeppelin/contracts/utils/math/Math.sol\":12570:12673  if (value >= 10 ** 16) {... */\n    tag_358:\n        /* \"@openzeppelin/contracts/utils/math/Math.sol\":12699:12706  10 ** 8 */\n      0x05f5e100\n        /* \"@openzeppelin/contracts/utils/math/Math.sol\":12690:12695  value */\n      dup4\n        /* \"@openzeppelin/contracts/utils/math/Math.sol\":12690:12706  value >= 10 ** 8 */\n      lt\n        /* \"@openzeppelin/contracts/utils/math/Math.sol\":12686:12786  if (value >= 10 ** 8) {... */\n      tag_361\n      jumpi\n        /* \"@openzeppelin/contracts/utils/math/Math.sol\":12735:12742  10 ** 8 */\n      0x05f5e100\n        /* \"@openzeppelin/contracts/utils/math/Math.sol\":12726:12742  value /= 10 ** 8 */\n      dup4\n      dup2\n      tag_362\n      jumpi\n      tag_363\n      tag_326\n      jump\t// in\n    tag_363:\n    tag_362:\n      div\n      swap3\n      pop\n        /* \"@openzeppelin/contracts/utils/math/Math.sol\":12770:12771  8 */\n      0x08\n        /* \"@openzeppelin/contracts/utils/math/Math.sol\":12760:12771  result += 8 */\n      dup2\n      add\n      swap1\n      pop\n        /* \"@openzeppelin/contracts/utils/math/Math.sol\":12686:12786  if (value >= 10 ** 8) {... */\n    tag_361:\n        /* \"@openzeppelin/contracts/utils/math/Math.sol\":12812:12819  10 ** 4 */\n      0x2710\n        /* \"@openzeppelin/contracts/utils/math/Math.sol\":12803:12808  value */\n      dup4\n        /* \"@openzeppelin/contracts/utils/math/Math.sol\":12803:12819  value >= 10 ** 4 */\n      lt\n        /* \"@openzeppelin/contracts/utils/math/Math.sol\":12799:12899  if (value >= 10 ** 4) {... */\n      tag_364\n      jumpi\n        /* \"@openzeppelin/contracts/utils/math/Math.sol\":12848:12855  10 ** 4 */\n      0x2710\n        /* \"@openzeppelin/contracts/utils/math/Math.sol\":12839:12855  value /= 10 ** 4 */\n      dup4\n      dup2\n      tag_365\n      jumpi\n      tag_366\n      tag_326\n      jump\t// in\n    tag_366:\n    tag_365:\n      div\n      swap3\n      pop\n        /* \"@openzeppelin/contracts/utils/math/Math.sol\":12883:12884  4 */\n      0x04\n        /* \"@openzeppelin/contracts/utils/math/Math.sol\":12873:12884  result += 4 */\n      dup2\n      add\n      swap1\n      pop\n        /* \"@openzeppelin/contracts/utils/math/Math.sol\":12799:12899  if (value >= 10 ** 4) {... */\n    tag_364:\n        /* \"@openzeppelin/contracts/utils/math/Math.sol\":12925:12932  10 ** 2 */\n      0x64\n        /* \"@openzeppelin/contracts/utils/math/Math.sol\":12916:12921  value */\n      dup4\n        /* \"@openzeppelin/contracts/utils/math/Math.sol\":12916:12932  value >= 10 ** 2 */\n      lt\n        /* \"@openzeppelin/contracts/utils/math/Math.sol\":12912:13012  if (value >= 10 ** 2) {... */\n      tag_367\n      jumpi\n        /* \"@openzeppelin/contracts/utils/math/Math.sol\":12961:12968  10 ** 2 */\n      0x64\n        /* \"@openzeppelin/contracts/utils/math/Math.sol\":12952:12968  value /= 10 ** 2 */\n      dup4\n      dup2\n      tag_368\n      jumpi\n      tag_369\n      tag_326\n      jump\t// in\n    tag_369:\n    tag_368:\n      div\n      swap3\n      pop\n        /* \"@openzeppelin/contracts/utils/math/Math.sol\":12996:12997  2 */\n      0x02\n        /* \"@openzeppelin/contracts/utils/math/Math.sol\":12986:12997  result += 2 */\n      dup2\n      add\n      swap1\n      pop\n        /* \"@openzeppelin/contracts/utils/math/Math.sol\":12912:13012  if (value >= 10 ** 2) {... */\n    tag_367:\n        /* \"@openzeppelin/contracts/utils/math/Math.sol\":13038:13045  10 ** 1 */\n      0x0a\n        /* \"@openzeppelin/contracts/utils/math/Math.sol\":13029:13034  value */\n      dup4\n        /* \"@openzeppelin/contracts/utils/math/Math.sol\":13029:13045  value >= 10 ** 1 */\n      lt\n        /* \"@openzeppelin/contracts/utils/math/Math.sol\":13025:13091  if (value >= 10 ** 1) {... */\n      tag_370\n      jumpi\n        /* \"@openzeppelin/contracts/utils/math/Math.sol\":13075:13076  1 */\n      0x01\n        /* \"@openzeppelin/contracts/utils/math/Math.sol\":13065:13076  result += 1 */\n      dup2\n      add\n      swap1\n      pop\n        /* \"@openzeppelin/contracts/utils/math/Math.sol\":13025:13091  if (value >= 10 ** 1) {... */\n    tag_370:\n        /* \"@openzeppelin/contracts/utils/math/Math.sol\":13117:13123  result */\n      dup1\n        /* \"@openzeppelin/contracts/utils/math/Math.sol\":13110:13123  return result */\n      swap2\n      pop\n      pop\n        /* \"@openzeppelin/contracts/utils/math/Math.sol\":12214:13130  function log10(uint256 value) internal pure returns (uint256) {... */\n      swap2\n      swap1\n      pop\n      jump\t// out\n        /* \"@openzeppelin/contracts/token/ERC721/ERC721.sol\":9955:10282  function _mint(address to, uint256 tokenId) internal {... */\n    tag_330:\n        /* \"@openzeppelin/contracts/token/ERC721/ERC721.sol\":10036:10037  0 */\n      0x00\n        /* \"@openzeppelin/contracts/token/ERC721/ERC721.sol\":10022:10038  to == address(0) */\n      0xffffffffffffffffffffffffffffffffffffffff\n      and\n        /* \"@openzeppelin/contracts/token/ERC721/ERC721.sol\":10022:10024  to */\n      dup3\n        /* \"@openzeppelin/contracts/token/ERC721/ERC721.sol\":10022:10038  to == address(0) */\n      0xffffffffffffffffffffffffffffffffffffffff\n      and\n      sub\n        /* \"@openzeppelin/contracts/token/ERC721/ERC721.sol\":10018:10105  if (to == address(0)) {... */\n      tag_372\n      jumpi\n        /* \"@openzeppelin/contracts/token/ERC721/ERC721.sol\":10091:10092  0 */\n      0x00\n        /* \"@openzeppelin/contracts/token/ERC721/ERC721.sol\":10061:10094  ERC721InvalidReceiver(address(0)) */\n      mload(0x40)\n      0x64a0ae9200000000000000000000000000000000000000000000000000000000\n      dup2\n      mstore\n      0x04\n      add\n      tag_373\n      swap2\n      swap1\n      tag_49\n      jump\t// in\n    tag_373:\n      mload(0x40)\n      dup1\n      swap2\n      sub\n      swap1\n      revert\n        /* \"@openzeppelin/contracts/token/ERC721/ERC721.sol\":10018:10105  if (to == address(0)) {... */\n    tag_372:\n        /* \"@openzeppelin/contracts/token/ERC721/ERC721.sol\":10114:10135  address previousOwner */\n      0x00\n        /* \"@openzeppelin/contracts/token/ERC721/ERC721.sol\":10138:10170  _update(to, tokenId, address(0)) */\n      tag_374\n        /* \"@openzeppelin/contracts/token/ERC721/ERC721.sol\":10146:10148  to */\n      dup4\n        /* \"@openzeppelin/contracts/token/ERC721/ERC721.sol\":10150:10157  tokenId */\n      dup4\n        /* \"@openzeppelin/contracts/token/ERC721/ERC721.sol\":10167:10168  0 */\n      0x00\n        /* \"@openzeppelin/contracts/token/ERC721/ERC721.sol\":10138:10145  _update */\n      tag_175\n        /* \"@openzeppelin/contracts/token/ERC721/ERC721.sol\":10138:10170  _update(to, tokenId, address(0)) */\n      jump\t// in\n    tag_374:\n        /* \"@openzeppelin/contracts/token/ERC721/ERC721.sol\":10114:10170  address previousOwner = _update(to, tokenId, address(0)) */\n      swap1\n      pop\n        /* \"@openzeppelin/contracts/token/ERC721/ERC721.sol\":10209:10210  0 */\n      0x00\n        /* \"@openzeppelin/contracts/token/ERC721/ERC721.sol\":10184:10211  previousOwner != address(0) */\n      0xffffffffffffffffffffffffffffffffffffffff\n      and\n        /* \"@openzeppelin/contracts/token/ERC721/ERC721.sol\":10184:10197  previousOwner */\n      dup2\n        /* \"@openzeppelin/contracts/token/ERC721/ERC721.sol\":10184:10211  previousOwner != address(0) */\n      0xffffffffffffffffffffffffffffffffffffffff\n      and\n      eq\n        /* \"@openzeppelin/contracts/token/ERC721/ERC721.sol\":10180:10276  if (previousOwner != address(0)) {... */\n      tag_375\n      jumpi\n        /* \"@openzeppelin/contracts/token/ERC721/ERC721.sol\":10262:10263  0 */\n      0x00\n        /* \"@openzeppelin/contracts/token/ERC721/ERC721.sol\":10234:10265  ERC721InvalidSender(address(0)) */\n      mload(0x40)\n      0x73c6ac6e00000000000000000000000000000000000000000000000000000000\n      dup2\n      mstore\n      0x04\n      add\n      tag_376\n      swap2\n      swap1\n      tag_49\n      jump\t// in\n    tag_376:\n      mload(0x40)\n      dup1\n      swap2\n      sub\n      swap1\n      revert\n        /* \"@openzeppelin/contracts/token/ERC721/ERC721.sol\":10180:10276  if (previousOwner != address(0)) {... */\n    tag_375:\n        /* \"@openzeppelin/contracts/token/ERC721/ERC721.sol\":10008:10282  {... */\n      pop\n        /* \"@openzeppelin/contracts/token/ERC721/ERC721.sol\":9955:10282  function _mint(address to, uint256 tokenId) internal {... */\n      pop\n      pop\n      jump\t// out\n        /* \"@openzeppelin/contracts/token/ERC721/ERC721.sol\":6376:6648  function _isAuthorized(address owner, address spender, uint256 tokenId) internal view virtual returns (bool) {... */\n    tag_345:\n        /* \"@openzeppelin/contracts/token/ERC721/ERC721.sol\":6479:6483  bool */\n      0x00\n        /* \"@openzeppelin/contracts/token/ERC721/ERC721.sol\":6533:6534  0 */\n      dup1\n        /* \"@openzeppelin/contracts/token/ERC721/ERC721.sol\":6514:6535  spender != address(0) */\n      0xffffffffffffffffffffffffffffffffffffffff\n      and\n        /* \"@openzeppelin/contracts/token/ERC721/ERC721.sol\":6514:6521  spender */\n      dup4\n        /* \"@openzeppelin/contracts/token/ERC721/ERC721.sol\":6514:6535  spender != address(0) */\n      0xffffffffffffffffffffffffffffffffffffffff\n      and\n      eq\n      iszero\n        /* \"@openzeppelin/contracts/token/ERC721/ERC721.sol\":6514:6641  spender != address(0) &&... */\n      dup1\n      iszero\n      tag_378\n      jumpi\n      pop\n        /* \"@openzeppelin/contracts/token/ERC721/ERC721.sol\":6561:6568  spender */\n      dup3\n        /* \"@openzeppelin/contracts/token/ERC721/ERC721.sol\":6552:6568  owner == spender */\n      0xffffffffffffffffffffffffffffffffffffffff\n      and\n        /* \"@openzeppelin/contracts/token/ERC721/ERC721.sol\":6552:6557  owner */\n      dup5\n        /* \"@openzeppelin/contracts/token/ERC721/ERC721.sol\":6552:6568  owner == spender */\n      0xffffffffffffffffffffffffffffffffffffffff\n      and\n      eq\n        /* \"@openzeppelin/contracts/token/ERC721/ERC721.sol\":6552:6604  owner == spender || isApprovedForAll(owner, spender) */\n      dup1\n      tag_379\n      jumpi\n      pop\n        /* \"@openzeppelin/contracts/token/ERC721/ERC721.sol\":6572:6604  isApprovedForAll(owner, spender) */\n      tag_380\n        /* \"@openzeppelin/contracts/token/ERC721/ERC721.sol\":6589:6594  owner */\n      dup5\n        /* \"@openzeppelin/contracts/token/ERC721/ERC721.sol\":6596:6603  spender */\n      dup5\n        /* \"@openzeppelin/contracts/token/ERC721/ERC721.sol\":6572:6588  isApprovedForAll */\n      tag_124\n        /* \"@openzeppelin/contracts/token/ERC721/ERC721.sol\":6572:6604  isApprovedForAll(owner, spender) */\n      jump\t// in\n    tag_380:\n        /* \"@openzeppelin/contracts/token/ERC721/ERC721.sol\":6552:6604  owner == spender || isApprovedForAll(owner, spender) */\n    tag_379:\n        /* \"@openzeppelin/contracts/token/ERC721/ERC721.sol\":6552:6640  owner == spender || isApprovedForAll(owner, spender) || _getApproved(tokenId) == spender */\n      dup1\n      tag_381\n      jumpi\n      pop\n        /* \"@openzeppelin/contracts/token/ERC721/ERC721.sol\":6633:6640  spender */\n      dup3\n        /* \"@openzeppelin/contracts/token/ERC721/ERC721.sol\":6608:6640  _getApproved(tokenId) == spender */\n      0xffffffffffffffffffffffffffffffffffffffff\n      and\n        /* \"@openzeppelin/contracts/token/ERC721/ERC721.sol\":6608:6629  _getApproved(tokenId) */\n      tag_382\n        /* \"@openzeppelin/contracts/token/ERC721/ERC721.sol\":6621:6628  tokenId */\n      dup4\n        /* \"@openzeppelin/contracts/token/ERC721/ERC721.sol\":6608:6620  _getApproved */\n      tag_156\n        /* \"@openzeppelin/contracts/token/ERC721/ERC721.sol\":6608:6629  _getApproved(tokenId) */\n      jump\t// in\n    tag_382:\n        /* \"@openzeppelin/contracts/token/ERC721/ERC721.sol\":6608:6640  _getApproved(tokenId) == spender */\n      0xffffffffffffffffffffffffffffffffffffffff\n      and\n      eq\n        /* \"@openzeppelin/contracts/token/ERC721/ERC721.sol\":6552:6640  owner == spender || isApprovedForAll(owner, spender) || _getApproved(tokenId) == spender */\n    tag_381:\n        /* \"@openzeppelin/contracts/token/ERC721/ERC721.sol\":6514:6641  spender != address(0) &&... */\n    tag_378:\n        /* \"@openzeppelin/contracts/token/ERC721/ERC721.sol\":6495:6641  return... */\n      swap1\n      pop\n        /* \"@openzeppelin/contracts/token/ERC721/ERC721.sol\":6376:6648  function _isAuthorized(address owner, address spender, uint256 tokenId) internal view virtual returns (bool) {... */\n      swap4\n      swap3\n      pop\n      pop\n      pop\n      jump\t// out\n        /* \"#utility.yul\":7:82   */\n    tag_383:\n        /* \"#utility.yul\":40:46   */\n      0x00\n        /* \"#utility.yul\":73:75   */\n      0x40\n        /* \"#utility.yul\":67:76   */\n      mload\n        /* \"#utility.yul\":57:76   */\n      swap1\n      pop\n        /* \"#utility.yul\":7:82   */\n      swap1\n      jump\t// out\n        /* \"#utility.yul\":88:205   */\n    tag_384:\n        /* \"#utility.yul\":197:198   */\n      0x00\n        /* \"#utility.yul\":194:195   */\n      dup1\n        /* \"#utility.yul\":187:199   */\n      revert\n        /* \"#utility.yul\":211:328   */\n    tag_385:\n        /* \"#utility.yul\":320:321   */\n      0x00\n        /* \"#utility.yul\":317:318   */\n      dup1\n        /* \"#utility.yul\":310:322   */\n      revert\n        /* \"#utility.yul\":334:423   */\n    tag_386:\n        /* \"#utility.yul\":370:377   */\n      0x00\n        /* \"#utility.yul\":410:416   */\n      0xffff\n        /* \"#utility.yul\":403:408   */\n      dup3\n        /* \"#utility.yul\":399:417   */\n      and\n        /* \"#utility.yul\":388:417   */\n      swap1\n      pop\n        /* \"#utility.yul\":334:423   */\n      swap2\n      swap1\n      pop\n      jump\t// out\n        /* \"#utility.yul\":429:549   */\n    tag_387:\n        /* \"#utility.yul\":501:524   */\n      tag_461\n        /* \"#utility.yul\":518:523   */\n      dup2\n        /* \"#utility.yul\":501:524   */\n      tag_386\n      jump\t// in\n    tag_461:\n        /* \"#utility.yul\":494:499   */\n      dup2\n        /* \"#utility.yul\":491:525   */\n      eq\n        /* \"#utility.yul\":481:543   */\n      tag_462\n      jumpi\n        /* \"#utility.yul\":539:540   */\n      0x00\n        /* \"#utility.yul\":536:537   */\n      dup1\n        /* \"#utility.yul\":529:541   */\n      revert\n        /* \"#utility.yul\":481:543   */\n    tag_462:\n        /* \"#utility.yul\":429:549   */\n      pop\n      jump\t// out\n        /* \"#utility.yul\":555:692   */\n    tag_388:\n        /* \"#utility.yul\":600:605   */\n      0x00\n        /* \"#utility.yul\":638:644   */\n      dup2\n        /* \"#utility.yul\":625:645   */\n      calldataload\n        /* \"#utility.yul\":616:645   */\n      swap1\n      pop\n        /* \"#utility.yul\":654:686   */\n      tag_464\n        /* \"#utility.yul\":680:685   */\n      dup2\n        /* \"#utility.yul\":654:686   */\n      tag_387\n      jump\t// in\n    tag_464:\n        /* \"#utility.yul\":555:692   */\n      swap3\n      swap2\n      pop\n      pop\n      jump\t// out\n        /* \"#utility.yul\":698:815   */\n    tag_389:\n        /* \"#utility.yul\":807:808   */\n      0x00\n        /* \"#utility.yul\":804:805   */\n      dup1\n        /* \"#utility.yul\":797:809   */\n      revert\n        /* \"#utility.yul\":821:938   */\n    tag_390:\n        /* \"#utility.yul\":930:931   */\n      0x00\n        /* \"#utility.yul\":927:928   */\n      dup1\n        /* \"#utility.yul\":920:932   */\n      revert\n        /* \"#utility.yul\":944:1046   */\n    tag_391:\n        /* \"#utility.yul\":985:991   */\n      0x00\n        /* \"#utility.yul\":1036:1038   */\n      0x1f\n        /* \"#utility.yul\":1032:1039   */\n      not\n        /* \"#utility.yul\":1027:1029   */\n      0x1f\n        /* \"#utility.yul\":1020:1025   */\n      dup4\n        /* \"#utility.yul\":1016:1030   */\n      add\n        /* \"#utility.yul\":1012:1040   */\n      and\n        /* \"#utility.yul\":1002:1040   */\n      swap1\n      pop\n        /* \"#utility.yul\":944:1046   */\n      swap2\n      swap1\n      pop\n      jump\t// out\n        /* \"#utility.yul\":1052:1232   */\n    tag_320:\n        /* \"#utility.yul\":1100:1177   */\n      0x4e487b7100000000000000000000000000000000000000000000000000000000\n        /* \"#utility.yul\":1097:1098   */\n      0x00\n        /* \"#utility.yul\":1090:1178   */\n      mstore\n        /* \"#utility.yul\":1197:1201   */\n      0x41\n        /* \"#utility.yul\":1194:1195   */\n      0x04\n        /* \"#utility.yul\":1187:1202   */\n      mstore\n        /* \"#utility.yul\":1221:1225   */\n      0x24\n        /* \"#utility.yul\":1218:1219   */\n      0x00\n        /* \"#utility.yul\":1211:1226   */\n      revert\n        /* \"#utility.yul\":1238:1519   */\n    tag_392:\n        /* \"#utility.yul\":1321:1348   */\n      tag_470\n        /* \"#utility.yul\":1343:1347   */\n      dup3\n        /* \"#utility.yul\":1321:1348   */\n      tag_391\n      jump\t// in\n    tag_470:\n        /* \"#utility.yul\":1313:1319   */\n      dup2\n        /* \"#utility.yul\":1309:1349   */\n      add\n        /* \"#utility.yul\":1451:1457   */\n      dup2\n        /* \"#utility.yul\":1439:1449   */\n      dup2\n        /* \"#utility.yul\":1436:1458   */\n      lt\n        /* \"#utility.yul\":1415:1433   */\n      0xffffffffffffffff\n        /* \"#utility.yul\":1403:1413   */\n      dup3\n        /* \"#utility.yul\":1400:1434   */\n      gt\n        /* \"#utility.yul\":1397:1459   */\n      or\n        /* \"#utility.yul\":1394:1482   */\n      iszero\n      tag_471\n      jumpi\n        /* \"#utility.yul\":1462:1480   */\n      tag_472\n      tag_320\n      jump\t// in\n    tag_472:\n        /* \"#utility.yul\":1394:1482   */\n    tag_471:\n        /* \"#utility.yul\":1502:1512   */\n      dup1\n        /* \"#utility.yul\":1498:1500   */\n      0x40\n        /* \"#utility.yul\":1491:1513   */\n      mstore\n        /* \"#utility.yul\":1281:1519   */\n      pop\n        /* \"#utility.yul\":1238:1519   */\n      pop\n      pop\n      jump\t// out\n        /* \"#utility.yul\":1525:1654   */\n    tag_393:\n        /* \"#utility.yul\":1559:1565   */\n      0x00\n        /* \"#utility.yul\":1586:1606   */\n      tag_474\n      tag_383\n      jump\t// in\n    tag_474:\n        /* \"#utility.yul\":1576:1606   */\n      swap1\n      pop\n        /* \"#utility.yul\":1615:1648   */\n      tag_475\n        /* \"#utility.yul\":1643:1647   */\n      dup3\n        /* \"#utility.yul\":1635:1641   */\n      dup3\n        /* \"#utility.yul\":1615:1648   */\n      tag_392\n      jump\t// in\n    tag_475:\n        /* \"#utility.yul\":1525:1654   */\n      swap2\n      swap1\n      pop\n      jump\t// out\n        /* \"#utility.yul\":1660:1967   */\n    tag_394:\n        /* \"#utility.yul\":1721:1725   */\n      0x00\n        /* \"#utility.yul\":1811:1829   */\n      0xffffffffffffffff\n        /* \"#utility.yul\":1803:1809   */\n      dup3\n        /* \"#utility.yul\":1800:1830   */\n      gt\n        /* \"#utility.yul\":1797:1853   */\n      iszero\n      tag_477\n      jumpi\n        /* \"#utility.yul\":1833:1851   */\n      tag_478\n      tag_320\n      jump\t// in\n    tag_478:\n        /* \"#utility.yul\":1797:1853   */\n    tag_477:\n        /* \"#utility.yul\":1871:1900   */\n      tag_479\n        /* \"#utility.yul\":1893:1899   */\n      dup3\n        /* \"#utility.yul\":1871:1900   */\n      tag_391\n      jump\t// in\n    tag_479:\n        /* \"#utility.yul\":1863:1900   */\n      swap1\n      pop\n        /* \"#utility.yul\":1955:1959   */\n      0x20\n        /* \"#utility.yul\":1949:1953   */\n      dup2\n        /* \"#utility.yul\":1945:1960   */\n      add\n        /* \"#utility.yul\":1937:1960   */\n      swap1\n      pop\n        /* \"#utility.yul\":1660:1967   */\n      swap2\n      swap1\n      pop\n      jump\t// out\n        /* \"#utility.yul\":1973:2119   */\n    tag_395:\n        /* \"#utility.yul\":2070:2076   */\n      dup3\n        /* \"#utility.yul\":2065:2068   */\n      dup2\n        /* \"#utility.yul\":2060:2063   */\n      dup4\n        /* \"#utility.yul\":2047:2077   */\n      calldatacopy\n        /* \"#utility.yul\":2111:2112   */\n      0x00\n        /* \"#utility.yul\":2102:2108   */\n      dup4\n        /* \"#utility.yul\":2097:2100   */\n      dup4\n        /* \"#utility.yul\":2093:2109   */\n      add\n        /* \"#utility.yul\":2086:2113   */\n      mstore\n        /* \"#utility.yul\":1973:2119   */\n      pop\n      pop\n      pop\n      jump\t// out\n        /* \"#utility.yul\":2125:2548   */\n    tag_396:\n        /* \"#utility.yul\":2202:2207   */\n      0x00\n        /* \"#utility.yul\":2227:2292   */\n      tag_482\n        /* \"#utility.yul\":2243:2291   */\n      tag_483\n        /* \"#utility.yul\":2284:2290   */\n      dup5\n        /* \"#utility.yul\":2243:2291   */\n      tag_394\n      jump\t// in\n    tag_483:\n        /* \"#utility.yul\":2227:2292   */\n      tag_393\n      jump\t// in\n    tag_482:\n        /* \"#utility.yul\":2218:2292   */\n      swap1\n      pop\n        /* \"#utility.yul\":2315:2321   */\n      dup3\n        /* \"#utility.yul\":2308:2313   */\n      dup2\n        /* \"#utility.yul\":2301:2322   */\n      mstore\n        /* \"#utility.yul\":2353:2357   */\n      0x20\n        /* \"#utility.yul\":2346:2351   */\n      dup2\n        /* \"#utility.yul\":2342:2358   */\n      add\n        /* \"#utility.yul\":2391:2394   */\n      dup5\n        /* \"#utility.yul\":2382:2388   */\n      dup5\n        /* \"#utility.yul\":2377:2380   */\n      dup5\n        /* \"#utility.yul\":2373:2389   */\n      add\n        /* \"#utility.yul\":2370:2395   */\n      gt\n        /* \"#utility.yul\":2367:2479   */\n      iszero\n      tag_484\n      jumpi\n        /* \"#utility.yul\":2398:2477   */\n      tag_485\n      tag_390\n      jump\t// in\n    tag_485:\n        /* \"#utility.yul\":2367:2479   */\n    tag_484:\n        /* \"#utility.yul\":2488:2542   */\n      tag_486\n        /* \"#utility.yul\":2535:2541   */\n      dup5\n        /* \"#utility.yul\":2530:2533   */\n      dup3\n        /* \"#utility.yul\":2525:2528   */\n      dup6\n        /* \"#utility.yul\":2488:2542   */\n      tag_395\n      jump\t// in\n    tag_486:\n        /* \"#utility.yul\":2208:2548   */\n      pop\n        /* \"#utility.yul\":2125:2548   */\n      swap4\n      swap3\n      pop\n      pop\n      pop\n      jump\t// out\n        /* \"#utility.yul\":2567:2905   */\n    tag_397:\n        /* \"#utility.yul\":2622:2627   */\n      0x00\n        /* \"#utility.yul\":2671:2674   */\n      dup3\n        /* \"#utility.yul\":2664:2668   */\n      0x1f\n        /* \"#utility.yul\":2656:2662   */\n      dup4\n        /* \"#utility.yul\":2652:2669   */\n      add\n        /* \"#utility.yul\":2648:2675   */\n      slt\n        /* \"#utility.yul\":2638:2760   */\n      tag_488\n      jumpi\n        /* \"#utility.yul\":2679:2758   */\n      tag_489\n      tag_389\n      jump\t// in\n    tag_489:\n        /* \"#utility.yul\":2638:2760   */\n    tag_488:\n        /* \"#utility.yul\":2796:2802   */\n      dup2\n        /* \"#utility.yul\":2783:2803   */\n      calldataload\n        /* \"#utility.yul\":2821:2899   */\n      tag_490\n        /* \"#utility.yul\":2895:2898   */\n      dup5\n        /* \"#utility.yul\":2887:2893   */\n      dup3\n        /* \"#utility.yul\":2880:2884   */\n      0x20\n        /* \"#utility.yul\":2872:2878   */\n      dup7\n        /* \"#utility.yul\":2868:2885   */\n      add\n        /* \"#utility.yul\":2821:2899   */\n      tag_396\n      jump\t// in\n    tag_490:\n        /* \"#utility.yul\":2812:2899   */\n      swap2\n      pop\n        /* \"#utility.yul\":2628:2905   */\n      pop\n        /* \"#utility.yul\":2567:2905   */\n      swap3\n      swap2\n      pop\n      pop\n      jump\t// out\n        /* \"#utility.yul\":2911:3012   */\n    tag_398:\n        /* \"#utility.yul\":2947:2954   */\n      0x00\n        /* \"#utility.yul\":2987:3005   */\n      0xffffffffffffffff\n        /* \"#utility.yul\":2980:2985   */\n      dup3\n        /* \"#utility.yul\":2976:3006   */\n      and\n        /* \"#utility.yul\":2965:3006   */\n      swap1\n      pop\n        /* \"#utility.yul\":2911:3012   */\n      swap2\n      swap1\n      pop\n      jump\t// out\n        /* \"#utility.yul\":3018:3138   */\n    tag_399:\n        /* \"#utility.yul\":3090:3113   */\n      tag_493\n        /* \"#utility.yul\":3107:3112   */\n      dup2\n        /* \"#utility.yul\":3090:3113   */\n      tag_398\n      jump\t// in\n    tag_493:\n        /* \"#utility.yul\":3083:3088   */\n      dup2\n        /* \"#utility.yul\":3080:3114   */\n      eq\n        /* \"#utility.yul\":3070:3132   */\n      tag_494\n      jumpi\n        /* \"#utility.yul\":3128:3129   */\n      0x00\n        /* \"#utility.yul\":3125:3126   */\n      dup1\n        /* \"#utility.yul\":3118:3130   */\n      revert\n        /* \"#utility.yul\":3070:3132   */\n    tag_494:\n        /* \"#utility.yul\":3018:3138   */\n      pop\n      jump\t// out\n        /* \"#utility.yul\":3144:3281   */\n    tag_400:\n        /* \"#utility.yul\":3189:3194   */\n      0x00\n        /* \"#utility.yul\":3227:3233   */\n      dup2\n        /* \"#utility.yul\":3214:3234   */\n      calldataload\n        /* \"#utility.yul\":3205:3234   */\n      swap1\n      pop\n        /* \"#utility.yul\":3243:3275   */\n      tag_496\n        /* \"#utility.yul\":3269:3274   */\n      dup2\n        /* \"#utility.yul\":3243:3275   */\n      tag_399\n      jump\t// in\n    tag_496:\n        /* \"#utility.yul\":3144:3281   */\n      swap3\n      swap2\n      pop\n      pop\n      jump\t// out\n        /* \"#utility.yul\":3287:4404   */\n    tag_29:\n        /* \"#utility.yul\":3389:3395   */\n      0x00\n        /* \"#utility.yul\":3397:3403   */\n      dup1\n        /* \"#utility.yul\":3405:3411   */\n      0x00\n        /* \"#utility.yul\":3413:3419   */\n      dup1\n        /* \"#utility.yul\":3462:3465   */\n      0x80\n        /* \"#utility.yul\":3450:3459   */\n      dup6\n        /* \"#utility.yul\":3441:3448   */\n      dup8\n        /* \"#utility.yul\":3437:3460   */\n      sub\n        /* \"#utility.yul\":3433:3466   */\n      slt\n        /* \"#utility.yul\":3430:3550   */\n      iszero\n      tag_498\n      jumpi\n        /* \"#utility.yul\":3469:3548   */\n      tag_499\n      tag_384\n      jump\t// in\n    tag_499:\n        /* \"#utility.yul\":3430:3550   */\n    tag_498:\n        /* \"#utility.yul\":3589:3590   */\n      0x00\n        /* \"#utility.yul\":3614:3666   */\n      tag_500\n        /* \"#utility.yul\":3658:3665   */\n      dup8\n        /* \"#utility.yul\":3649:3655   */\n      dup3\n        /* \"#utility.yul\":3638:3647   */\n      dup9\n        /* \"#utility.yul\":3634:3656   */\n      add\n        /* \"#utility.yul\":3614:3666   */\n      tag_388\n      jump\t// in\n    tag_500:\n        /* \"#utility.yul\":3604:3666   */\n      swap5\n      pop\n        /* \"#utility.yul\":3560:3676   */\n      pop\n        /* \"#utility.yul\":3743:3745   */\n      0x20\n        /* \"#utility.yul\":3732:3741   */\n      dup6\n        /* \"#utility.yul\":3728:3746   */\n      add\n        /* \"#utility.yul\":3715:3747   */\n      calldataload\n        /* \"#utility.yul\":3774:3792   */\n      0xffffffffffffffff\n        /* \"#utility.yul\":3766:3772   */\n      dup2\n        /* \"#utility.yul\":3763:3793   */\n      gt\n        /* \"#utility.yul\":3760:3877   */\n      iszero\n      tag_501\n      jumpi\n        /* \"#utility.yul\":3796:3875   */\n      tag_502\n      tag_385\n      jump\t// in\n    tag_502:\n        /* \"#utility.yul\":3760:3877   */\n    tag_501:\n        /* \"#utility.yul\":3901:3963   */\n      tag_503\n        /* \"#utility.yul\":3955:3962   */\n      dup8\n        /* \"#utility.yul\":3946:3952   */\n      dup3\n        /* \"#utility.yul\":3935:3944   */\n      dup9\n        /* \"#utility.yul\":3931:3953   */\n      add\n        /* \"#utility.yul\":3901:3963   */\n      tag_397\n      jump\t// in\n    tag_503:\n        /* \"#utility.yul\":3891:3963   */\n      swap4\n      pop\n        /* \"#utility.yul\":3686:3973   */\n      pop\n        /* \"#utility.yul\":4012:4014   */\n      0x40\n        /* \"#utility.yul\":4038:4090   */\n      tag_504\n        /* \"#utility.yul\":4082:4089   */\n      dup8\n        /* \"#utility.yul\":4073:4079   */\n      dup3\n        /* \"#utility.yul\":4062:4071   */\n      dup9\n        /* \"#utility.yul\":4058:4080   */\n      add\n        /* \"#utility.yul\":4038:4090   */\n      tag_400\n      jump\t// in\n    tag_504:\n        /* \"#utility.yul\":4028:4090   */\n      swap3\n      pop\n        /* \"#utility.yul\":3983:4100   */\n      pop\n        /* \"#utility.yul\":4167:4169   */\n      0x60\n        /* \"#utility.yul\":4156:4165   */\n      dup6\n        /* \"#utility.yul\":4152:4170   */\n      add\n        /* \"#utility.yul\":4139:4171   */\n      calldataload\n        /* \"#utility.yul\":4198:4216   */\n      0xffffffffffffffff\n        /* \"#utility.yul\":4190:4196   */\n      dup2\n        /* \"#utility.yul\":4187:4217   */\n      gt\n        /* \"#utility.yul\":4184:4301   */\n      iszero\n      tag_505\n      jumpi\n        /* \"#utility.yul\":4220:4299   */\n      tag_506\n      tag_385\n      jump\t// in\n    tag_506:\n        /* \"#utility.yul\":4184:4301   */\n    tag_505:\n        /* \"#utility.yul\":4325:4387   */\n      tag_507\n        /* \"#utility.yul\":4379:4386   */\n      dup8\n        /* \"#utility.yul\":4370:4376   */\n      dup3\n        /* \"#utility.yul\":4359:4368   */\n      dup9\n        /* \"#utility.yul\":4355:4377   */\n      add\n        /* \"#utility.yul\":4325:4387   */\n      tag_397\n      jump\t// in\n    tag_507:\n        /* \"#utility.yul\":4315:4387   */\n      swap2\n      pop\n        /* \"#utility.yul\":4110:4397   */\n      pop\n        /* \"#utility.yul\":3287:4404   */\n      swap3\n      swap6\n      swap2\n      swap5\n      pop\n      swap3\n      pop\n      jump\t// out\n        /* \"#utility.yul\":4410:4559   */\n    tag_401:\n        /* \"#utility.yul\":4446:4453   */\n      0x00\n        /* \"#utility.yul\":4486:4552   */\n      0xffffffff00000000000000000000000000000000000000000000000000000000\n        /* \"#utility.yul\":4479:4484   */\n      dup3\n        /* \"#utility.yul\":4475:4553   */\n      and\n        /* \"#utility.yul\":4464:4553   */\n      swap1\n      pop\n        /* \"#utility.yul\":4410:4559   */\n      swap2\n      swap1\n      pop\n      jump\t// out\n        /* \"#utility.yul\":4565:4685   */\n    tag_402:\n        /* \"#utility.yul\":4637:4660   */\n      tag_510\n        /* \"#utility.yul\":4654:4659   */\n      dup2\n        /* \"#utility.yul\":4637:4660   */\n      tag_401\n      jump\t// in\n    tag_510:\n        /* \"#utility.yul\":4630:4635   */\n      dup2\n        /* \"#utility.yul\":4627:4661   */\n      eq\n        /* \"#utility.yul\":4617:4679   */\n      tag_511\n      jumpi\n        /* \"#utility.yul\":4675:4676   */\n      0x00\n        /* \"#utility.yul\":4672:4673   */\n      dup1\n        /* \"#utility.yul\":4665:4677   */\n      revert\n        /* \"#utility.yul\":4617:4679   */\n    tag_511:\n        /* \"#utility.yul\":4565:4685   */\n      pop\n      jump\t// out\n        /* \"#utility.yul\":4691:4828   */\n    tag_403:\n        /* \"#utility.yul\":4736:4741   */\n      0x00\n        /* \"#utility.yul\":4774:4780   */\n      dup2\n        /* \"#utility.yul\":4761:4781   */\n      calldataload\n        /* \"#utility.yul\":4752:4781   */\n      swap1\n      pop\n        /* \"#utility.yul\":4790:4822   */\n      tag_513\n        /* \"#utility.yul\":4816:4821   */\n      dup2\n        /* \"#utility.yul\":4790:4822   */\n      tag_402\n      jump\t// in\n    tag_513:\n        /* \"#utility.yul\":4691:4828   */\n      swap3\n      swap2\n      pop\n      pop\n      jump\t// out\n        /* \"#utility.yul\":4834:5161   */\n    tag_34:\n        /* \"#utility.yul\":4892:4898   */\n      0x00\n        /* \"#utility.yul\":4941:4943   */\n      0x20\n        /* \"#utility.yul\":4929:4938   */\n      dup3\n        /* \"#utility.yul\":4920:4927   */\n      dup5\n        /* \"#utility.yul\":4916:4939   */\n      sub\n        /* \"#utility.yul\":4912:4944   */\n      slt\n        /* \"#utility.yul\":4909:5028   */\n      iszero\n      tag_515\n      jumpi\n        /* \"#utility.yul\":4947:5026   */\n      tag_516\n      tag_384\n      jump\t// in\n    tag_516:\n        /* \"#utility.yul\":4909:5028   */\n    tag_515:\n        /* \"#utility.yul\":5067:5068   */\n      0x00\n        /* \"#utility.yul\":5092:5144   */\n      tag_517\n        /* \"#utility.yul\":5136:5143   */\n      dup5\n        /* \"#utility.yul\":5127:5133   */\n      dup3\n        /* \"#utility.yul\":5116:5125   */\n      dup6\n        /* \"#utility.yul\":5112:5134   */\n      add\n        /* \"#utility.yul\":5092:5144   */\n      tag_403\n      jump\t// in\n    tag_517:\n        /* \"#utility.yul\":5082:5144   */\n      swap2\n      pop\n        /* \"#utility.yul\":5038:5154   */\n      pop\n        /* \"#utility.yul\":4834:5161   */\n      swap3\n      swap2\n      pop\n      pop\n      jump\t// out\n        /* \"#utility.yul\":5167:5257   */\n    tag_404:\n        /* \"#utility.yul\":5201:5208   */\n      0x00\n        /* \"#utility.yul\":5244:5249   */\n      dup2\n        /* \"#utility.yul\":5237:5250   */\n      iszero\n        /* \"#utility.yul\":5230:5251   */\n      iszero\n        /* \"#utility.yul\":5219:5251   */\n      swap1\n      pop\n        /* \"#utility.yul\":5167:5257   */\n      swap2\n      swap1\n      pop\n      jump\t// out\n        /* \"#utility.yul\":5263:5372   */\n    tag_405:\n        /* \"#utility.yul\":5344:5365   */\n      tag_520\n        /* \"#utility.yul\":5359:5364   */\n      dup2\n        /* \"#utility.yul\":5344:5365   */\n      tag_404\n      jump\t// in\n    tag_520:\n        /* \"#utility.yul\":5339:5342   */\n      dup3\n        /* \"#utility.yul\":5332:5366   */\n      mstore\n        /* \"#utility.yul\":5263:5372   */\n      pop\n      pop\n      jump\t// out\n        /* \"#utility.yul\":5378:5588   */\n    tag_37:\n        /* \"#utility.yul\":5465:5469   */\n      0x00\n        /* \"#utility.yul\":5503:5505   */\n      0x20\n        /* \"#utility.yul\":5492:5501   */\n      dup3\n        /* \"#utility.yul\":5488:5506   */\n      add\n        /* \"#utility.yul\":5480:5506   */\n      swap1\n      pop\n        /* \"#utility.yul\":5516:5581   */\n      tag_522\n        /* \"#utility.yul\":5578:5579   */\n      0x00\n        /* \"#utility.yul\":5567:5576   */\n      dup4\n        /* \"#utility.yul\":5563:5580   */\n      add\n        /* \"#utility.yul\":5554:5560   */\n      dup5\n        /* \"#utility.yul\":5516:5581   */\n      tag_405\n      jump\t// in\n    tag_522:\n        /* \"#utility.yul\":5378:5588   */\n      swap3\n      swap2\n      pop\n      pop\n      jump\t// out\n        /* \"#utility.yul\":5594:5693   */\n    tag_406:\n        /* \"#utility.yul\":5646:5652   */\n      0x00\n        /* \"#utility.yul\":5680:5685   */\n      dup2\n        /* \"#utility.yul\":5674:5686   */\n      mload\n        /* \"#utility.yul\":5664:5686   */\n      swap1\n      pop\n        /* \"#utility.yul\":5594:5693   */\n      swap2\n      swap1\n      pop\n      jump\t// out\n        /* \"#utility.yul\":5699:5868   */\n    tag_407:\n        /* \"#utility.yul\":5783:5794   */\n      0x00\n        /* \"#utility.yul\":5817:5823   */\n      dup3\n        /* \"#utility.yul\":5812:5815   */\n      dup3\n        /* \"#utility.yul\":5805:5824   */\n      mstore\n        /* \"#utility.yul\":5857:5861   */\n      0x20\n        /* \"#utility.yul\":5852:5855   */\n      dup3\n        /* \"#utility.yul\":5848:5862   */\n      add\n        /* \"#utility.yul\":5833:5862   */\n      swap1\n      pop\n        /* \"#utility.yul\":5699:5868   */\n      swap3\n      swap2\n      pop\n      pop\n      jump\t// out\n        /* \"#utility.yul\":5874:6120   */\n    tag_408:\n        /* \"#utility.yul\":5955:5956   */\n      0x00\n        /* \"#utility.yul\":5965:6078   */\n    tag_526:\n        /* \"#utility.yul\":5979:5985   */\n      dup4\n        /* \"#utility.yul\":5976:5977   */\n      dup2\n        /* \"#utility.yul\":5973:5986   */\n      lt\n        /* \"#utility.yul\":5965:6078   */\n      iszero\n      tag_528\n      jumpi\n        /* \"#utility.yul\":6064:6065   */\n      dup1\n        /* \"#utility.yul\":6059:6062   */\n      dup3\n        /* \"#utility.yul\":6055:6066   */\n      add\n        /* \"#utility.yul\":6049:6067   */\n      mload\n        /* \"#utility.yul\":6045:6046   */\n      dup2\n        /* \"#utility.yul\":6040:6043   */\n      dup5\n        /* \"#utility.yul\":6036:6047   */\n      add\n        /* \"#utility.yul\":6029:6068   */\n      mstore\n        /* \"#utility.yul\":6001:6003   */\n      0x20\n        /* \"#utility.yul\":5998:5999   */\n      dup2\n        /* \"#utility.yul\":5994:6004   */\n      add\n        /* \"#utility.yul\":5989:6004   */\n      swap1\n      pop\n        /* \"#utility.yul\":5965:6078   */\n      jump(tag_526)\n    tag_528:\n        /* \"#utility.yul\":6112:6113   */\n      0x00\n        /* \"#utility.yul\":6103:6109   */\n      dup5\n        /* \"#utility.yul\":6098:6101   */\n      dup5\n        /* \"#utility.yul\":6094:6110   */\n      add\n        /* \"#utility.yul\":6087:6114   */\n      mstore\n        /* \"#utility.yul\":5936:6120   */\n      pop\n        /* \"#utility.yul\":5874:6120   */\n      pop\n      pop\n      pop\n      jump\t// out\n        /* \"#utility.yul\":6126:6503   */\n    tag_409:\n        /* \"#utility.yul\":6214:6217   */\n      0x00\n        /* \"#utility.yul\":6242:6281   */\n      tag_530\n        /* \"#utility.yul\":6275:6280   */\n      dup3\n        /* \"#utility.yul\":6242:6281   */\n      tag_406\n      jump\t// in\n    tag_530:\n        /* \"#utility.yul\":6297:6368   */\n      tag_531\n        /* \"#utility.yul\":6361:6367   */\n      dup2\n        /* \"#utility.yul\":6356:6359   */\n      dup6\n        /* \"#utility.yul\":6297:6368   */\n      tag_407\n      jump\t// in\n    tag_531:\n        /* \"#utility.yul\":6290:6368   */\n      swap4\n      pop\n        /* \"#utility.yul\":6377:6442   */\n      tag_532\n        /* \"#utility.yul\":6435:6441   */\n      dup2\n        /* \"#utility.yul\":6430:6433   */\n      dup6\n        /* \"#utility.yul\":6423:6427   */\n      0x20\n        /* \"#utility.yul\":6416:6421   */\n      dup7\n        /* \"#utility.yul\":6412:6428   */\n      add\n        /* \"#utility.yul\":6377:6442   */\n      tag_408\n      jump\t// in\n    tag_532:\n        /* \"#utility.yul\":6467:6496   */\n      tag_533\n        /* \"#utility.yul\":6489:6495   */\n      dup2\n        /* \"#utility.yul\":6467:6496   */\n      tag_391\n      jump\t// in\n    tag_533:\n        /* \"#utility.yul\":6462:6465   */\n      dup5\n        /* \"#utility.yul\":6458:6497   */\n      add\n        /* \"#utility.yul\":6451:6497   */\n      swap2\n      pop\n        /* \"#utility.yul\":6218:6503   */\n      pop\n        /* \"#utility.yul\":6126:6503   */\n      swap3\n      swap2\n      pop\n      pop\n      jump\t// out\n        /* \"#utility.yul\":6509:6822   */\n    tag_42:\n        /* \"#utility.yul\":6622:6626   */\n      0x00\n        /* \"#utility.yul\":6660:6662   */\n      0x20\n        /* \"#utility.yul\":6649:6658   */\n      dup3\n        /* \"#utility.yul\":6645:6663   */\n      add\n        /* \"#utility.yul\":6637:6663   */\n      swap1\n      pop\n        /* \"#utility.yul\":6709:6718   */\n      dup2\n        /* \"#utility.yul\":6703:6707   */\n      dup2\n        /* \"#utility.yul\":6699:6719   */\n      sub\n        /* \"#utility.yul\":6695:6696   */\n      0x00\n        /* \"#utility.yul\":6684:6693   */\n      dup4\n        /* \"#utility.yul\":6680:6697   */\n      add\n        /* \"#utility.yul\":6673:6720   */\n      mstore\n        /* \"#utility.yul\":6737:6815   */\n      tag_535\n        /* \"#utility.yul\":6810:6814   */\n      dup2\n        /* \"#utility.yul\":6801:6807   */\n      dup5\n        /* \"#utility.yul\":6737:6815   */\n      tag_409\n      jump\t// in\n    tag_535:\n        /* \"#utility.yul\":6729:6815   */\n      swap1\n      pop\n        /* \"#utility.yul\":6509:6822   */\n      swap3\n      swap2\n      pop\n      pop\n      jump\t// out\n        /* \"#utility.yul\":6828:6905   */\n    tag_410:\n        /* \"#utility.yul\":6865:6872   */\n      0x00\n        /* \"#utility.yul\":6894:6899   */\n      dup2\n        /* \"#utility.yul\":6883:6899   */\n      swap1\n      pop\n        /* \"#utility.yul\":6828:6905   */\n      swap2\n      swap1\n      pop\n      jump\t// out\n        /* \"#utility.yul\":6911:7033   */\n    tag_411:\n        /* \"#utility.yul\":6984:7008   */\n      tag_538\n        /* \"#utility.yul\":7002:7007   */\n      dup2\n        /* \"#utility.yul\":6984:7008   */\n      tag_410\n      jump\t// in\n    tag_538:\n        /* \"#utility.yul\":6977:6982   */\n      dup2\n        /* \"#utility.yul\":6974:7009   */\n      eq\n        /* \"#utility.yul\":6964:7027   */\n      tag_539\n      jumpi\n        /* \"#utility.yul\":7023:7024   */\n      0x00\n        /* \"#utility.yul\":7020:7021   */\n      dup1\n        /* \"#utility.yul\":7013:7025   */\n      revert\n        /* \"#utility.yul\":6964:7027   */\n    tag_539:\n        /* \"#utility.yul\":6911:7033   */\n      pop\n      jump\t// out\n        /* \"#utility.yul\":7039:7178   */\n    tag_412:\n        /* \"#utility.yul\":7085:7090   */\n      0x00\n        /* \"#utility.yul\":7123:7129   */\n      dup2\n        /* \"#utility.yul\":7110:7130   */\n      calldataload\n        /* \"#utility.yul\":7101:7130   */\n      swap1\n      pop\n        /* \"#utility.yul\":7139:7172   */\n      tag_541\n        /* \"#utility.yul\":7166:7171   */\n      dup2\n        /* \"#utility.yul\":7139:7172   */\n      tag_411\n      jump\t// in\n    tag_541:\n        /* \"#utility.yul\":7039:7178   */\n      swap3\n      swap2\n      pop\n      pop\n      jump\t// out\n        /* \"#utility.yul\":7184:7513   */\n    tag_46:\n        /* \"#utility.yul\":7243:7249   */\n      0x00\n        /* \"#utility.yul\":7292:7294   */\n      0x20\n        /* \"#utility.yul\":7280:7289   */\n      dup3\n        /* \"#utility.yul\":7271:7278   */\n      dup5\n        /* \"#utility.yul\":7267:7290   */\n      sub\n        /* \"#utility.yul\":7263:7295   */\n      slt\n        /* \"#utility.yul\":7260:7379   */\n      iszero\n      tag_543\n      jumpi\n        /* \"#utility.yul\":7298:7377   */\n      tag_544\n      tag_384\n      jump\t// in\n    tag_544:\n        /* \"#utility.yul\":7260:7379   */\n    tag_543:\n        /* \"#utility.yul\":7418:7419   */\n      0x00\n        /* \"#utility.yul\":7443:7496   */\n      tag_545\n        /* \"#utility.yul\":7488:7495   */\n      dup5\n        /* \"#utility.yul\":7479:7485   */\n      dup3\n        /* \"#utility.yul\":7468:7477   */\n      dup6\n        /* \"#utility.yul\":7464:7486   */\n      add\n        /* \"#utility.yul\":7443:7496   */\n      tag_412\n      jump\t// in\n    tag_545:\n        /* \"#utility.yul\":7433:7496   */\n      swap2\n      pop\n        /* \"#utility.yul\":7389:7506   */\n      pop\n        /* \"#utility.yul\":7184:7513   */\n      swap3\n      swap2\n      pop\n      pop\n      jump\t// out\n        /* \"#utility.yul\":7519:7645   */\n    tag_413:\n        /* \"#utility.yul\":7556:7563   */\n      0x00\n        /* \"#utility.yul\":7596:7638   */\n      0xffffffffffffffffffffffffffffffffffffffff\n        /* \"#utility.yul\":7589:7594   */\n      dup3\n        /* \"#utility.yul\":7585:7639   */\n      and\n        /* \"#utility.yul\":7574:7639   */\n      swap1\n      pop\n        /* \"#utility.yul\":7519:7645   */\n      swap2\n      swap1\n      pop\n      jump\t// out\n        /* \"#utility.yul\":7651:7747   */\n    tag_414:\n        /* \"#utility.yul\":7688:7695   */\n      0x00\n        /* \"#utility.yul\":7717:7741   */\n      tag_548\n        /* \"#utility.yul\":7735:7740   */\n      dup3\n        /* \"#utility.yul\":7717:7741   */\n      tag_413\n      jump\t// in\n    tag_548:\n        /* \"#utility.yul\":7706:7741   */\n      swap1\n      pop\n        /* \"#utility.yul\":7651:7747   */\n      swap2\n      swap1\n      pop\n      jump\t// out\n        /* \"#utility.yul\":7753:7871   */\n    tag_415:\n        /* \"#utility.yul\":7840:7864   */\n      tag_550\n        /* \"#utility.yul\":7858:7863   */\n      dup2\n        /* \"#utility.yul\":7840:7864   */\n      tag_414\n      jump\t// in\n    tag_550:\n        /* \"#utility.yul\":7835:7838   */\n      dup3\n        /* \"#utility.yul\":7828:7865   */\n      mstore\n        /* \"#utility.yul\":7753:7871   */\n      pop\n      pop\n      jump\t// out\n        /* \"#utility.yul\":7877:8099   */\n    tag_49:\n        /* \"#utility.yul\":7970:7974   */\n      0x00\n        /* \"#utility.yul\":8008:8010   */\n      0x20\n        /* \"#utility.yul\":7997:8006   */\n      dup3\n        /* \"#utility.yul\":7993:8011   */\n      add\n        /* \"#utility.yul\":7985:8011   */\n      swap1\n      pop\n        /* \"#utility.yul\":8021:8092   */\n      tag_552\n        /* \"#utility.yul\":8089:8090   */\n      0x00\n        /* \"#utility.yul\":8078:8087   */\n      dup4\n        /* \"#utility.yul\":8074:8091   */\n      add\n        /* \"#utility.yul\":8065:8071   */\n      dup5\n        /* \"#utility.yul\":8021:8092   */\n      tag_415\n      jump\t// in\n    tag_552:\n        /* \"#utility.yul\":7877:8099   */\n      swap3\n      swap2\n      pop\n      pop\n      jump\t// out\n        /* \"#utility.yul\":8105:8227   */\n    tag_416:\n        /* \"#utility.yul\":8178:8202   */\n      tag_554\n        /* \"#utility.yul\":8196:8201   */\n      dup2\n        /* \"#utility.yul\":8178:8202   */\n      tag_414\n      jump\t// in\n    tag_554:\n        /* \"#utility.yul\":8171:8176   */\n      dup2\n        /* \"#utility.yul\":8168:8203   */\n      eq\n        /* \"#utility.yul\":8158:8221   */\n      tag_555\n      jumpi\n        /* \"#utility.yul\":8217:8218   */\n      0x00\n        /* \"#utility.yul\":8214:8215   */\n      dup1\n        /* \"#utility.yul\":8207:8219   */\n      revert\n        /* \"#utility.yul\":8158:8221   */\n    tag_555:\n        /* \"#utility.yul\":8105:8227   */\n      pop\n      jump\t// out\n        /* \"#utility.yul\":8233:8372   */\n    tag_417:\n        /* \"#utility.yul\":8279:8284   */\n      0x00\n        /* \"#utility.yul\":8317:8323   */\n      dup2\n        /* \"#utility.yul\":8304:8324   */\n      calldataload\n        /* \"#utility.yul\":8295:8324   */\n      swap1\n      pop\n        /* \"#utility.yul\":8333:8366   */\n      tag_557\n        /* \"#utility.yul\":8360:8365   */\n      dup2\n        /* \"#utility.yul\":8333:8366   */\n      tag_416\n      jump\t// in\n    tag_557:\n        /* \"#utility.yul\":8233:8372   */\n      swap3\n      swap2\n      pop\n      pop\n      jump\t// out\n        /* \"#utility.yul\":8378:8852   */\n    tag_53:\n        /* \"#utility.yul\":8446:8452   */\n      0x00\n        /* \"#utility.yul\":8454:8460   */\n      dup1\n        /* \"#utility.yul\":8503:8505   */\n      0x40\n        /* \"#utility.yul\":8491:8500   */\n      dup4\n        /* \"#utility.yul\":8482:8489   */\n      dup6\n        /* \"#utility.yul\":8478:8501   */\n      sub\n        /* \"#utility.yul\":8474:8506   */\n      slt\n        /* \"#utility.yul\":8471:8590   */\n      iszero\n      tag_559\n      jumpi\n        /* \"#utility.yul\":8509:8588   */\n      tag_560\n      tag_384\n      jump\t// in\n    tag_560:\n        /* \"#utility.yul\":8471:8590   */\n    tag_559:\n        /* \"#utility.yul\":8629:8630   */\n      0x00\n        /* \"#utility.yul\":8654:8707   */\n      tag_561\n        /* \"#utility.yul\":8699:8706   */\n      dup6\n        /* \"#utility.yul\":8690:8696   */\n      dup3\n        /* \"#utility.yul\":8679:8688   */\n      dup7\n        /* \"#utility.yul\":8675:8697   */\n      add\n        /* \"#utility.yul\":8654:8707   */\n      tag_417\n      jump\t// in\n    tag_561:\n        /* \"#utility.yul\":8644:8707   */\n      swap3\n      pop\n        /* \"#utility.yul\":8600:8717   */\n      pop\n        /* \"#utility.yul\":8756:8758   */\n      0x20\n        /* \"#utility.yul\":8782:8835   */\n      tag_562\n        /* \"#utility.yul\":8827:8834   */\n      dup6\n        /* \"#utility.yul\":8818:8824   */\n      dup3\n        /* \"#utility.yul\":8807:8816   */\n      dup7\n        /* \"#utility.yul\":8803:8825   */\n      add\n        /* \"#utility.yul\":8782:8835   */\n      tag_412\n      jump\t// in\n    tag_562:\n        /* \"#utility.yul\":8772:8835   */\n      swap2\n      pop\n        /* \"#utility.yul\":8727:8845   */\n      pop\n        /* \"#utility.yul\":8378:8852   */\n      swap3\n      pop\n      swap3\n      swap1\n      pop\n      jump\t// out\n        /* \"#utility.yul\":8858:9477   */\n    tag_60:\n        /* \"#utility.yul\":8935:8941   */\n      0x00\n        /* \"#utility.yul\":8943:8949   */\n      dup1\n        /* \"#utility.yul\":8951:8957   */\n      0x00\n        /* \"#utility.yul\":9000:9002   */\n      0x60\n        /* \"#utility.yul\":8988:8997   */\n      dup5\n        /* \"#utility.yul\":8979:8986   */\n      dup7\n        /* \"#utility.yul\":8975:8998   */\n      sub\n        /* \"#utility.yul\":8971:9003   */\n      slt\n        /* \"#utility.yul\":8968:9087   */\n      iszero\n      tag_564\n      jumpi\n        /* \"#utility.yul\":9006:9085   */\n      tag_565\n      tag_384\n      jump\t// in\n    tag_565:\n        /* \"#utility.yul\":8968:9087   */\n    tag_564:\n        /* \"#utility.yul\":9126:9127   */\n      0x00\n        /* \"#utility.yul\":9151:9204   */\n      tag_566\n        /* \"#utility.yul\":9196:9203   */\n      dup7\n        /* \"#utility.yul\":9187:9193   */\n      dup3\n        /* \"#utility.yul\":9176:9185   */\n      dup8\n        /* \"#utility.yul\":9172:9194   */\n      add\n        /* \"#utility.yul\":9151:9204   */\n      tag_417\n      jump\t// in\n    tag_566:\n        /* \"#utility.yul\":9141:9204   */\n      swap4\n      pop\n        /* \"#utility.yul\":9097:9214   */\n      pop\n        /* \"#utility.yul\":9253:9255   */\n      0x20\n        /* \"#utility.yul\":9279:9332   */\n      tag_567\n        /* \"#utility.yul\":9324:9331   */\n      dup7\n        /* \"#utility.yul\":9315:9321   */\n      dup3\n        /* \"#utility.yul\":9304:9313   */\n      dup8\n        /* \"#utility.yul\":9300:9322   */\n      add\n        /* \"#utility.yul\":9279:9332   */\n      tag_417\n      jump\t// in\n    tag_567:\n        /* \"#utility.yul\":9269:9332   */\n      swap3\n      pop\n        /* \"#utility.yul\":9224:9342   */\n      pop\n        /* \"#utility.yul\":9381:9383   */\n      0x40\n        /* \"#utility.yul\":9407:9460   */\n      tag_568\n        /* \"#utility.yul\":9452:9459   */\n      dup7\n        /* \"#utility.yul\":9443:9449   */\n      dup3\n        /* \"#utility.yul\":9432:9441   */\n      dup8\n        /* \"#utility.yul\":9428:9450   */\n      add\n        /* \"#utility.yul\":9407:9460   */\n      tag_412\n      jump\t// in\n    tag_568:\n        /* \"#utility.yul\":9397:9460   */\n      swap2\n      pop\n        /* \"#utility.yul\":9352:9470   */\n      pop\n        /* \"#utility.yul\":8858:9477   */\n      swap3\n      pop\n      swap3\n      pop\n      swap3\n      jump\t// out\n        /* \"#utility.yul\":9483:9600   */\n    tag_418:\n        /* \"#utility.yul\":9592:9593   */\n      0x00\n        /* \"#utility.yul\":9589:9590   */\n      dup1\n        /* \"#utility.yul\":9582:9594   */\n      revert\n        /* \"#utility.yul\":9606:9723   */\n    tag_419:\n        /* \"#utility.yul\":9715:9716   */\n      0x00\n        /* \"#utility.yul\":9712:9713   */\n      dup1\n        /* \"#utility.yul\":9705:9717   */\n      revert\n        /* \"#utility.yul\":9742:10294   */\n    tag_420:\n        /* \"#utility.yul\":9799:9807   */\n      0x00\n        /* \"#utility.yul\":9809:9815   */\n      dup1\n        /* \"#utility.yul\":9859:9862   */\n      dup4\n        /* \"#utility.yul\":9852:9856   */\n      0x1f\n        /* \"#utility.yul\":9844:9850   */\n      dup5\n        /* \"#utility.yul\":9840:9857   */\n      add\n        /* \"#utility.yul\":9836:9863   */\n      slt\n        /* \"#utility.yul\":9826:9948   */\n      tag_572\n      jumpi\n        /* \"#utility.yul\":9867:9946   */\n      tag_573\n      tag_389\n      jump\t// in\n    tag_573:\n        /* \"#utility.yul\":9826:9948   */\n    tag_572:\n        /* \"#utility.yul\":9980:9986   */\n      dup3\n        /* \"#utility.yul\":9967:9987   */\n      calldataload\n        /* \"#utility.yul\":9957:9987   */\n      swap1\n      pop\n        /* \"#utility.yul\":10010:10028   */\n      0xffffffffffffffff\n        /* \"#utility.yul\":10002:10008   */\n      dup2\n        /* \"#utility.yul\":9999:10029   */\n      gt\n        /* \"#utility.yul\":9996:10113   */\n      iszero\n      tag_574\n      jumpi\n        /* \"#utility.yul\":10032:10111   */\n      tag_575\n      tag_418\n      jump\t// in\n    tag_575:\n        /* \"#utility.yul\":9996:10113   */\n    tag_574:\n        /* \"#utility.yul\":10146:10150   */\n      0x20\n        /* \"#utility.yul\":10138:10144   */\n      dup4\n        /* \"#utility.yul\":10134:10151   */\n      add\n        /* \"#utility.yul\":10122:10151   */\n      swap2\n      pop\n        /* \"#utility.yul\":10200:10203   */\n      dup4\n        /* \"#utility.yul\":10192:10196   */\n      0x01\n        /* \"#utility.yul\":10184:10190   */\n      dup3\n        /* \"#utility.yul\":10180:10197   */\n      mul\n        /* \"#utility.yul\":10170:10178   */\n      dup4\n        /* \"#utility.yul\":10166:10198   */\n      add\n        /* \"#utility.yul\":10163:10204   */\n      gt\n        /* \"#utility.yul\":10160:10288   */\n      iszero\n      tag_576\n      jumpi\n        /* \"#utility.yul\":10207:10286   */\n      tag_577\n      tag_419\n      jump\t// in\n    tag_577:\n        /* \"#utility.yul\":10160:10288   */\n    tag_576:\n        /* \"#utility.yul\":9742:10294   */\n      swap3\n      pop\n      swap3\n      swap1\n      pop\n      jump\t// out\n        /* \"#utility.yul\":10300:10416   */\n    tag_421:\n        /* \"#utility.yul\":10370:10391   */\n      tag_579\n        /* \"#utility.yul\":10385:10390   */\n      dup2\n        /* \"#utility.yul\":10370:10391   */\n      tag_404\n      jump\t// in\n    tag_579:\n        /* \"#utility.yul\":10363:10368   */\n      dup2\n        /* \"#utility.yul\":10360:10392   */\n      eq\n        /* \"#utility.yul\":10350:10410   */\n      tag_580\n      jumpi\n        /* \"#utility.yul\":10406:10407   */\n      0x00\n        /* \"#utility.yul\":10403:10404   */\n      dup1\n        /* \"#utility.yul\":10396:10408   */\n      revert\n        /* \"#utility.yul\":10350:10410   */\n    tag_580:\n        /* \"#utility.yul\":10300:10416   */\n      pop\n      jump\t// out\n        /* \"#utility.yul\":10422:10555   */\n    tag_422:\n        /* \"#utility.yul\":10465:10470   */\n      0x00\n        /* \"#utility.yul\":10503:10509   */\n      dup2\n        /* \"#utility.yul\":10490:10510   */\n      calldataload\n        /* \"#utility.yul\":10481:10510   */\n      swap1\n      pop\n        /* \"#utility.yul\":10519:10549   */\n      tag_582\n        /* \"#utility.yul\":10543:10548   */\n      dup2\n        /* \"#utility.yul\":10519:10549   */\n      tag_421\n      jump\t// in\n    tag_582:\n        /* \"#utility.yul\":10422:10555   */\n      swap3\n      swap2\n      pop\n      pop\n      jump\t// out\n        /* \"#utility.yul\":10561:11860   */\n    tag_65:\n        /* \"#utility.yul\":10674:10680   */\n      0x00\n        /* \"#utility.yul\":10682:10688   */\n      dup1\n        /* \"#utility.yul\":10690:10696   */\n      0x00\n        /* \"#utility.yul\":10698:10704   */\n      dup1\n        /* \"#utility.yul\":10706:10712   */\n      0x00\n        /* \"#utility.yul\":10714:10720   */\n      dup1\n        /* \"#utility.yul\":10722:10728   */\n      0x00\n        /* \"#utility.yul\":10771:10774   */\n      0xa0\n        /* \"#utility.yul\":10759:10768   */\n      dup9\n        /* \"#utility.yul\":10750:10757   */\n      dup11\n        /* \"#utility.yul\":10746:10769   */\n      sub\n        /* \"#utility.yul\":10742:10775   */\n      slt\n        /* \"#utility.yul\":10739:10859   */\n      iszero\n      tag_584\n      jumpi\n        /* \"#utility.yul\":10778:10857   */\n      tag_585\n      tag_384\n      jump\t// in\n    tag_585:\n        /* \"#utility.yul\":10739:10859   */\n    tag_584:\n        /* \"#utility.yul\":10898:10899   */\n      0x00\n        /* \"#utility.yul\":10923:10975   */\n      tag_586\n        /* \"#utility.yul\":10967:10974   */\n      dup11\n        /* \"#utility.yul\":10958:10964   */\n      dup3\n        /* \"#utility.yul\":10947:10956   */\n      dup12\n        /* \"#utility.yul\":10943:10965   */\n      add\n        /* \"#utility.yul\":10923:10975   */\n      tag_388\n      jump\t// in\n    tag_586:\n        /* \"#utility.yul\":10913:10975   */\n      swap8\n      pop\n        /* \"#utility.yul\":10869:10985   */\n      pop\n        /* \"#utility.yul\":11024:11026   */\n      0x20\n        /* \"#utility.yul\":11050:11103   */\n      tag_587\n        /* \"#utility.yul\":11095:11102   */\n      dup11\n        /* \"#utility.yul\":11086:11092   */\n      dup3\n        /* \"#utility.yul\":11075:11084   */\n      dup12\n        /* \"#utility.yul\":11071:11093   */\n      add\n        /* \"#utility.yul\":11050:11103   */\n      tag_417\n      jump\t// in\n    tag_587:\n        /* \"#utility.yul\":11040:11103   */\n      swap7\n      pop\n        /* \"#utility.yul\":10995:11113   */\n      pop\n        /* \"#utility.yul\":11180:11182   */\n      0x40\n        /* \"#utility.yul\":11169:11178   */\n      dup9\n        /* \"#utility.yul\":11165:11183   */\n      add\n        /* \"#utility.yul\":11152:11184   */\n      calldataload\n        /* \"#utility.yul\":11211:11229   */\n      0xffffffffffffffff\n        /* \"#utility.yul\":11203:11209   */\n      dup2\n        /* \"#utility.yul\":11200:11230   */\n      gt\n        /* \"#utility.yul\":11197:11314   */\n      iszero\n      tag_588\n      jumpi\n        /* \"#utility.yul\":11233:11312   */\n      tag_589\n      tag_385\n      jump\t// in\n    tag_589:\n        /* \"#utility.yul\":11197:11314   */\n    tag_588:\n        /* \"#utility.yul\":11346:11410   */\n      tag_590\n        /* \"#utility.yul\":11402:11409   */\n      dup11\n        /* \"#utility.yul\":11393:11399   */\n      dup3\n        /* \"#utility.yul\":11382:11391   */\n      dup12\n        /* \"#utility.yul\":11378:11400   */\n      add\n        /* \"#utility.yul\":11346:11410   */\n      tag_420\n      jump\t// in\n    tag_590:\n        /* \"#utility.yul\":11328:11410   */\n      swap6\n      pop\n      swap6\n      pop\n        /* \"#utility.yul\":11123:11420   */\n      pop\n        /* \"#utility.yul\":11459:11461   */\n      0x60\n        /* \"#utility.yul\":11485:11535   */\n      tag_591\n        /* \"#utility.yul\":11527:11534   */\n      dup11\n        /* \"#utility.yul\":11518:11524   */\n      dup3\n        /* \"#utility.yul\":11507:11516   */\n      dup12\n        /* \"#utility.yul\":11503:11525   */\n      add\n        /* \"#utility.yul\":11485:11535   */\n      tag_422\n      jump\t// in\n    tag_591:\n        /* \"#utility.yul\":11475:11535   */\n      swap4\n      pop\n        /* \"#utility.yul\":11430:11545   */\n      pop\n        /* \"#utility.yul\":11612:11615   */\n      0x80\n        /* \"#utility.yul\":11601:11610   */\n      dup9\n        /* \"#utility.yul\":11597:11616   */\n      add\n        /* \"#utility.yul\":11584:11617   */\n      calldataload\n        /* \"#utility.yul\":11644:11662   */\n      0xffffffffffffffff\n        /* \"#utility.yul\":11636:11642   */\n      dup2\n        /* \"#utility.yul\":11633:11663   */\n      gt\n        /* \"#utility.yul\":11630:11747   */\n      iszero\n      tag_592\n      jumpi\n        /* \"#utility.yul\":11666:11745   */\n      tag_593\n      tag_385\n      jump\t// in\n    tag_593:\n        /* \"#utility.yul\":11630:11747   */\n    tag_592:\n        /* \"#utility.yul\":11779:11843   */\n      tag_594\n        /* \"#utility.yul\":11835:11842   */\n      dup11\n        /* \"#utility.yul\":11826:11832   */\n      dup3\n        /* \"#utility.yul\":11815:11824   */\n      dup12\n        /* \"#utility.yul\":11811:11833   */\n      add\n        /* \"#utility.yul\":11779:11843   */\n      tag_420\n      jump\t// in\n    tag_594:\n        /* \"#utility.yul\":11761:11843   */\n      swap3\n      pop\n      swap3\n      pop\n        /* \"#utility.yul\":11555:11853   */\n      pop\n        /* \"#utility.yul\":10561:11860   */\n      swap3\n      swap6\n      swap9\n      swap2\n      swap5\n      swap8\n      pop\n      swap3\n      swap6\n      pop\n      jump\t// out\n        /* \"#utility.yul\":11866:11984   */\n    tag_423:\n        /* \"#utility.yul\":11953:11977   */\n      tag_596\n        /* \"#utility.yul\":11971:11976   */\n      dup2\n        /* \"#utility.yul\":11953:11977   */\n      tag_410\n      jump\t// in\n    tag_596:\n        /* \"#utility.yul\":11948:11951   */\n      dup3\n        /* \"#utility.yul\":11941:11978   */\n      mstore\n        /* \"#utility.yul\":11866:11984   */\n      pop\n      pop\n      jump\t// out\n        /* \"#utility.yul\":11990:12322   */\n    tag_68:\n        /* \"#utility.yul\":12111:12115   */\n      0x00\n        /* \"#utility.yul\":12149:12151   */\n      0x40\n        /* \"#utility.yul\":12138:12147   */\n      dup3\n        /* \"#utility.yul\":12134:12152   */\n      add\n        /* \"#utility.yul\":12126:12152   */\n      swap1\n      pop\n        /* \"#utility.yul\":12162:12233   */\n      tag_598\n        /* \"#utility.yul\":12230:12231   */\n      0x00\n        /* \"#utility.yul\":12219:12228   */\n      dup4\n        /* \"#utility.yul\":12215:12232   */\n      add\n        /* \"#utility.yul\":12206:12212   */\n      dup6\n        /* \"#utility.yul\":12162:12233   */\n      tag_423\n      jump\t// in\n    tag_598:\n        /* \"#utility.yul\":12243:12315   */\n      tag_599\n        /* \"#utility.yul\":12311:12313   */\n      0x20\n        /* \"#utility.yul\":12300:12309   */\n      dup4\n        /* \"#utility.yul\":12296:12314   */\n      add\n        /* \"#utility.yul\":12287:12293   */\n      dup5\n        /* \"#utility.yul\":12243:12315   */\n      tag_423\n      jump\t// in\n    tag_599:\n        /* \"#utility.yul\":11990:12322   */\n      swap4\n      swap3\n      pop\n      pop\n      pop\n      jump\t// out\n        /* \"#utility.yul\":12328:12388   */\n    tag_424:\n        /* \"#utility.yul\":12356:12359   */\n      0x00\n        /* \"#utility.yul\":12377:12382   */\n      dup2\n        /* \"#utility.yul\":12370:12382   */\n      swap1\n      pop\n        /* \"#utility.yul\":12328:12388   */\n      swap2\n      swap1\n      pop\n      jump\t// out\n        /* \"#utility.yul\":12394:12536   */\n    tag_425:\n        /* \"#utility.yul\":12444:12453   */\n      0x00\n        /* \"#utility.yul\":12477:12530   */\n      tag_602\n        /* \"#utility.yul\":12495:12529   */\n      tag_603\n        /* \"#utility.yul\":12504:12528   */\n      tag_604\n        /* \"#utility.yul\":12522:12527   */\n      dup5\n        /* \"#utility.yul\":12504:12528   */\n      tag_413\n      jump\t// in\n    tag_604:\n        /* \"#utility.yul\":12495:12529   */\n      tag_424\n      jump\t// in\n    tag_603:\n        /* \"#utility.yul\":12477:12530   */\n      tag_413\n      jump\t// in\n    tag_602:\n        /* \"#utility.yul\":12464:12530   */\n      swap1\n      pop\n        /* \"#utility.yul\":12394:12536   */\n      swap2\n      swap1\n      pop\n      jump\t// out\n        /* \"#utility.yul\":12542:12668   */\n    tag_426:\n        /* \"#utility.yul\":12592:12601   */\n      0x00\n        /* \"#utility.yul\":12625:12662   */\n      tag_606\n        /* \"#utility.yul\":12656:12661   */\n      dup3\n        /* \"#utility.yul\":12625:12662   */\n      tag_425\n      jump\t// in\n    tag_606:\n        /* \"#utility.yul\":12612:12662   */\n      swap1\n      pop\n        /* \"#utility.yul\":12542:12668   */\n      swap2\n      swap1\n      pop\n      jump\t// out\n        /* \"#utility.yul\":12674:12827   */\n    tag_427:\n        /* \"#utility.yul\":12751:12760   */\n      0x00\n        /* \"#utility.yul\":12784:12821   */\n      tag_608\n        /* \"#utility.yul\":12815:12820   */\n      dup3\n        /* \"#utility.yul\":12784:12821   */\n      tag_426\n      jump\t// in\n    tag_608:\n        /* \"#utility.yul\":12771:12821   */\n      swap1\n      pop\n        /* \"#utility.yul\":12674:12827   */\n      swap2\n      swap1\n      pop\n      jump\t// out\n        /* \"#utility.yul\":12833:13018   */\n    tag_428:\n        /* \"#utility.yul\":12947:13011   */\n      tag_610\n        /* \"#utility.yul\":13005:13010   */\n      dup2\n        /* \"#utility.yul\":12947:13011   */\n      tag_427\n      jump\t// in\n    tag_610:\n        /* \"#utility.yul\":12942:12945   */\n      dup3\n        /* \"#utility.yul\":12935:13012   */\n      mstore\n        /* \"#utility.yul\":12833:13018   */\n      pop\n      pop\n      jump\t// out\n        /* \"#utility.yul\":13024:13300   */\n    tag_77:\n        /* \"#utility.yul\":13144:13148   */\n      0x00\n        /* \"#utility.yul\":13182:13184   */\n      0x20\n        /* \"#utility.yul\":13171:13180   */\n      dup3\n        /* \"#utility.yul\":13167:13185   */\n      add\n        /* \"#utility.yul\":13159:13185   */\n      swap1\n      pop\n        /* \"#utility.yul\":13195:13293   */\n      tag_612\n        /* \"#utility.yul\":13290:13291   */\n      0x00\n        /* \"#utility.yul\":13279:13288   */\n      dup4\n        /* \"#utility.yul\":13275:13292   */\n      add\n        /* \"#utility.yul\":13266:13272   */\n      dup5\n        /* \"#utility.yul\":13195:13293   */\n      tag_428\n      jump\t// in\n    tag_612:\n        /* \"#utility.yul\":13024:13300   */\n      swap3\n      swap2\n      pop\n      pop\n      jump\t// out\n        /* \"#utility.yul\":13306:13635   */\n    tag_86:\n        /* \"#utility.yul\":13365:13371   */\n      0x00\n        /* \"#utility.yul\":13414:13416   */\n      0x20\n        /* \"#utility.yul\":13402:13411   */\n      dup3\n        /* \"#utility.yul\":13393:13400   */\n      dup5\n        /* \"#utility.yul\":13389:13412   */\n      sub\n        /* \"#utility.yul\":13385:13417   */\n      slt\n        /* \"#utility.yul\":13382:13501   */\n      iszero\n      tag_614\n      jumpi\n        /* \"#utility.yul\":13420:13499   */\n      tag_615\n      tag_384\n      jump\t// in\n    tag_615:\n        /* \"#utility.yul\":13382:13501   */\n    tag_614:\n        /* \"#utility.yul\":13540:13541   */\n      0x00\n        /* \"#utility.yul\":13565:13618   */\n      tag_616\n        /* \"#utility.yul\":13610:13617   */\n      dup5\n        /* \"#utility.yul\":13601:13607   */\n      dup3\n        /* \"#utility.yul\":13590:13599   */\n      dup6\n        /* \"#utility.yul\":13586:13608   */\n      add\n        /* \"#utility.yul\":13565:13618   */\n      tag_417\n      jump\t// in\n    tag_616:\n        /* \"#utility.yul\":13555:13618   */\n      swap2\n      pop\n        /* \"#utility.yul\":13511:13628   */\n      pop\n        /* \"#utility.yul\":13306:13635   */\n      swap3\n      swap2\n      pop\n      pop\n      jump\t// out\n        /* \"#utility.yul\":13641:13863   */\n    tag_89:\n        /* \"#utility.yul\":13734:13738   */\n      0x00\n        /* \"#utility.yul\":13772:13774   */\n      0x20\n        /* \"#utility.yul\":13761:13770   */\n      dup3\n        /* \"#utility.yul\":13757:13775   */\n      add\n        /* \"#utility.yul\":13749:13775   */\n      swap1\n      pop\n        /* \"#utility.yul\":13785:13856   */\n      tag_618\n        /* \"#utility.yul\":13853:13854   */\n      0x00\n        /* \"#utility.yul\":13842:13851   */\n      dup4\n        /* \"#utility.yul\":13838:13855   */\n      add\n        /* \"#utility.yul\":13829:13835   */\n      dup5\n        /* \"#utility.yul\":13785:13856   */\n      tag_423\n      jump\t// in\n    tag_618:\n        /* \"#utility.yul\":13641:13863   */\n      swap3\n      swap2\n      pop\n      pop\n      jump\t// out\n        /* \"#utility.yul\":13869:14337   */\n    tag_104:\n        /* \"#utility.yul\":13934:13940   */\n      0x00\n        /* \"#utility.yul\":13942:13948   */\n      dup1\n        /* \"#utility.yul\":13991:13993   */\n      0x40\n        /* \"#utility.yul\":13979:13988   */\n      dup4\n        /* \"#utility.yul\":13970:13977   */\n      dup6\n        /* \"#utility.yul\":13966:13989   */\n      sub\n        /* \"#utility.yul\":13962:13994   */\n      slt\n        /* \"#utility.yul\":13959:14078   */\n      iszero\n      tag_620\n      jumpi\n        /* \"#utility.yul\":13997:14076   */\n      tag_621\n      tag_384\n      jump\t// in\n    tag_621:\n        /* \"#utility.yul\":13959:14078   */\n    tag_620:\n        /* \"#utility.yul\":14117:14118   */\n      0x00\n        /* \"#utility.yul\":14142:14195   */\n      tag_622\n        /* \"#utility.yul\":14187:14194   */\n      dup6\n        /* \"#utility.yul\":14178:14184   */\n      dup3\n        /* \"#utility.yul\":14167:14176   */\n      dup7\n        /* \"#utility.yul\":14163:14185   */\n      add\n        /* \"#utility.yul\":14142:14195   */\n      tag_417\n      jump\t// in\n    tag_622:\n        /* \"#utility.yul\":14132:14195   */\n      swap3\n      pop\n        /* \"#utility.yul\":14088:14205   */\n      pop\n        /* \"#utility.yul\":14244:14246   */\n      0x20\n        /* \"#utility.yul\":14270:14320   */\n      tag_623\n        /* \"#utility.yul\":14312:14319   */\n      dup6\n        /* \"#utility.yul\":14303:14309   */\n      dup3\n        /* \"#utility.yul\":14292:14301   */\n      dup7\n        /* \"#utility.yul\":14288:14310   */\n      add\n        /* \"#utility.yul\":14270:14320   */\n      tag_422\n      jump\t// in\n    tag_623:\n        /* \"#utility.yul\":14260:14320   */\n      swap2\n      pop\n        /* \"#utility.yul\":14215:14330   */\n      pop\n        /* \"#utility.yul\":13869:14337   */\n      swap3\n      pop\n      swap3\n      swap1\n      pop\n      jump\t// out\n        /* \"#utility.yul\":14343:15286   */\n    tag_109:\n        /* \"#utility.yul\":14438:14444   */\n      0x00\n        /* \"#utility.yul\":14446:14452   */\n      dup1\n        /* \"#utility.yul\":14454:14460   */\n      0x00\n        /* \"#utility.yul\":14462:14468   */\n      dup1\n        /* \"#utility.yul\":14511:14514   */\n      0x80\n        /* \"#utility.yul\":14499:14508   */\n      dup6\n        /* \"#utility.yul\":14490:14497   */\n      dup8\n        /* \"#utility.yul\":14486:14509   */\n      sub\n        /* \"#utility.yul\":14482:14515   */\n      slt\n        /* \"#utility.yul\":14479:14599   */\n      iszero\n      tag_625\n      jumpi\n        /* \"#utility.yul\":14518:14597   */\n      tag_626\n      tag_384\n      jump\t// in\n    tag_626:\n        /* \"#utility.yul\":14479:14599   */\n    tag_625:\n        /* \"#utility.yul\":14638:14639   */\n      0x00\n        /* \"#utility.yul\":14663:14716   */\n      tag_627\n        /* \"#utility.yul\":14708:14715   */\n      dup8\n        /* \"#utility.yul\":14699:14705   */\n      dup3\n        /* \"#utility.yul\":14688:14697   */\n      dup9\n        /* \"#utility.yul\":14684:14706   */\n      add\n        /* \"#utility.yul\":14663:14716   */\n      tag_417\n      jump\t// in\n    tag_627:\n        /* \"#utility.yul\":14653:14716   */\n      swap5\n      pop\n        /* \"#utility.yul\":14609:14726   */\n      pop\n        /* \"#utility.yul\":14765:14767   */\n      0x20\n        /* \"#utility.yul\":14791:14844   */\n      tag_628\n        /* \"#utility.yul\":14836:14843   */\n      dup8\n        /* \"#utility.yul\":14827:14833   */\n      dup3\n        /* \"#utility.yul\":14816:14825   */\n      dup9\n        /* \"#utility.yul\":14812:14834   */\n      add\n        /* \"#utility.yul\":14791:14844   */\n      tag_417\n      jump\t// in\n    tag_628:\n        /* \"#utility.yul\":14781:14844   */\n      swap4\n      pop\n        /* \"#utility.yul\":14736:14854   */\n      pop\n        /* \"#utility.yul\":14893:14895   */\n      0x40\n        /* \"#utility.yul\":14919:14972   */\n      tag_629\n        /* \"#utility.yul\":14964:14971   */\n      dup8\n        /* \"#utility.yul\":14955:14961   */\n      dup3\n        /* \"#utility.yul\":14944:14953   */\n      dup9\n        /* \"#utility.yul\":14940:14962   */\n      add\n        /* \"#utility.yul\":14919:14972   */\n      tag_412\n      jump\t// in\n    tag_629:\n        /* \"#utility.yul\":14909:14972   */\n      swap3\n      pop\n        /* \"#utility.yul\":14864:14982   */\n      pop\n        /* \"#utility.yul\":15049:15051   */\n      0x60\n        /* \"#utility.yul\":15038:15047   */\n      dup6\n        /* \"#utility.yul\":15034:15052   */\n      add\n        /* \"#utility.yul\":15021:15053   */\n      calldataload\n        /* \"#utility.yul\":15080:15098   */\n      0xffffffffffffffff\n        /* \"#utility.yul\":15072:15078   */\n      dup2\n        /* \"#utility.yul\":15069:15099   */\n      gt\n        /* \"#utility.yul\":15066:15183   */\n      iszero\n      tag_630\n      jumpi\n        /* \"#utility.yul\":15102:15181   */\n      tag_631\n      tag_385\n      jump\t// in\n    tag_631:\n        /* \"#utility.yul\":15066:15183   */\n    tag_630:\n        /* \"#utility.yul\":15207:15269   */\n      tag_632\n        /* \"#utility.yul\":15261:15268   */\n      dup8\n        /* \"#utility.yul\":15252:15258   */\n      dup3\n        /* \"#utility.yul\":15241:15250   */\n      dup9\n        /* \"#utility.yul\":15237:15259   */\n      add\n        /* \"#utility.yul\":15207:15269   */\n      tag_397\n      jump\t// in\n    tag_632:\n        /* \"#utility.yul\":15197:15269   */\n      swap2\n      pop\n        /* \"#utility.yul\":14992:15279   */\n      pop\n        /* \"#utility.yul\":14343:15286   */\n      swap3\n      swap6\n      swap2\n      swap5\n      pop\n      swap3\n      pop\n      jump\t// out\n        /* \"#utility.yul\":15292:16107   */\n    tag_113:\n        /* \"#utility.yul\":15379:15385   */\n      0x00\n        /* \"#utility.yul\":15387:15393   */\n      dup1\n        /* \"#utility.yul\":15395:15401   */\n      0x00\n        /* \"#utility.yul\":15403:15409   */\n      dup1\n        /* \"#utility.yul\":15452:15454   */\n      0x60\n        /* \"#utility.yul\":15440:15449   */\n      dup6\n        /* \"#utility.yul\":15431:15438   */\n      dup8\n        /* \"#utility.yul\":15427:15450   */\n      sub\n        /* \"#utility.yul\":15423:15455   */\n      slt\n        /* \"#utility.yul\":15420:15539   */\n      iszero\n      tag_634\n      jumpi\n        /* \"#utility.yul\":15458:15537   */\n      tag_635\n      tag_384\n      jump\t// in\n    tag_635:\n        /* \"#utility.yul\":15420:15539   */\n    tag_634:\n        /* \"#utility.yul\":15578:15579   */\n      0x00\n        /* \"#utility.yul\":15603:15655   */\n      tag_636\n        /* \"#utility.yul\":15647:15654   */\n      dup8\n        /* \"#utility.yul\":15638:15644   */\n      dup3\n        /* \"#utility.yul\":15627:15636   */\n      dup9\n        /* \"#utility.yul\":15623:15645   */\n      add\n        /* \"#utility.yul\":15603:15655   */\n      tag_388\n      jump\t// in\n    tag_636:\n        /* \"#utility.yul\":15593:15655   */\n      swap5\n      pop\n        /* \"#utility.yul\":15549:15665   */\n      pop\n        /* \"#utility.yul\":15732:15734   */\n      0x20\n        /* \"#utility.yul\":15721:15730   */\n      dup6\n        /* \"#utility.yul\":15717:15735   */\n      add\n        /* \"#utility.yul\":15704:15736   */\n      calldataload\n        /* \"#utility.yul\":15763:15781   */\n      0xffffffffffffffff\n        /* \"#utility.yul\":15755:15761   */\n      dup2\n        /* \"#utility.yul\":15752:15782   */\n      gt\n        /* \"#utility.yul\":15749:15866   */\n      iszero\n      tag_637\n      jumpi\n        /* \"#utility.yul\":15785:15864   */\n      tag_638\n      tag_385\n      jump\t// in\n    tag_638:\n        /* \"#utility.yul\":15749:15866   */\n    tag_637:\n        /* \"#utility.yul\":15898:15962   */\n      tag_639\n        /* \"#utility.yul\":15954:15961   */\n      dup8\n        /* \"#utility.yul\":15945:15951   */\n      dup3\n        /* \"#utility.yul\":15934:15943   */\n      dup9\n        /* \"#utility.yul\":15930:15952   */\n      add\n        /* \"#utility.yul\":15898:15962   */\n      tag_420\n      jump\t// in\n    tag_639:\n        /* \"#utility.yul\":15880:15962   */\n      swap4\n      pop\n      swap4\n      pop\n        /* \"#utility.yul\":15675:15972   */\n      pop\n        /* \"#utility.yul\":16011:16013   */\n      0x40\n        /* \"#utility.yul\":16037:16090   */\n      tag_640\n        /* \"#utility.yul\":16082:16089   */\n      dup8\n        /* \"#utility.yul\":16073:16079   */\n      dup3\n        /* \"#utility.yul\":16062:16071   */\n      dup9\n        /* \"#utility.yul\":16058:16080   */\n      add\n        /* \"#utility.yul\":16037:16090   */\n      tag_412\n      jump\t// in\n    tag_640:\n        /* \"#utility.yul\":16027:16090   */\n      swap2\n      pop\n        /* \"#utility.yul\":15982:16100   */\n      pop\n        /* \"#utility.yul\":15292:16107   */\n      swap3\n      swap6\n      swap2\n      swap5\n      pop\n      swap3\n      pop\n      jump\t// out\n        /* \"#utility.yul\":16113:16587   */\n    tag_123:\n        /* \"#utility.yul\":16181:16187   */\n      0x00\n        /* \"#utility.yul\":16189:16195   */\n      dup1\n        /* \"#utility.yul\":16238:16240   */\n      0x40\n        /* \"#utility.yul\":16226:16235   */\n      dup4\n        /* \"#utility.yul\":16217:16224   */\n      dup6\n        /* \"#utility.yul\":16213:16236   */\n      sub\n        /* \"#utility.yul\":16209:16241   */\n      slt\n        /* \"#utility.yul\":16206:16325   */\n      iszero\n      tag_642\n      jumpi\n        /* \"#utility.yul\":16244:16323   */\n      tag_643\n      tag_384\n      jump\t// in\n    tag_643:\n        /* \"#utility.yul\":16206:16325   */\n    tag_642:\n        /* \"#utility.yul\":16364:16365   */\n      0x00\n        /* \"#utility.yul\":16389:16442   */\n      tag_644\n        /* \"#utility.yul\":16434:16441   */\n      dup6\n        /* \"#utility.yul\":16425:16431   */\n      dup3\n        /* \"#utility.yul\":16414:16423   */\n      dup7\n        /* \"#utility.yul\":16410:16432   */\n      add\n        /* \"#utility.yul\":16389:16442   */\n      tag_417\n      jump\t// in\n    tag_644:\n        /* \"#utility.yul\":16379:16442   */\n      swap3\n      pop\n        /* \"#utility.yul\":16335:16452   */\n      pop\n        /* \"#utility.yul\":16491:16493   */\n      0x20\n        /* \"#utility.yul\":16517:16570   */\n      tag_645\n        /* \"#utility.yul\":16562:16569   */\n      dup6\n        /* \"#utility.yul\":16553:16559   */\n      dup3\n        /* \"#utility.yul\":16542:16551   */\n      dup7\n        /* \"#utility.yul\":16538:16560   */\n      add\n        /* \"#utility.yul\":16517:16570   */\n      tag_417\n      jump\t// in\n    tag_645:\n        /* \"#utility.yul\":16507:16570   */\n      swap2\n      pop\n        /* \"#utility.yul\":16462:16580   */\n      pop\n        /* \"#utility.yul\":16113:16587   */\n      swap3\n      pop\n      swap3\n      swap1\n      pop\n      jump\t// out\n        /* \"#utility.yul\":16593:16697   */\n    tag_429:\n        /* \"#utility.yul\":16638:16645   */\n      0x00\n        /* \"#utility.yul\":16667:16691   */\n      tag_647\n        /* \"#utility.yul\":16685:16690   */\n      dup3\n        /* \"#utility.yul\":16667:16691   */\n      tag_413\n      jump\t// in\n    tag_647:\n        /* \"#utility.yul\":16656:16691   */\n      swap1\n      pop\n        /* \"#utility.yul\":16593:16697   */\n      swap2\n      swap1\n      pop\n      jump\t// out\n        /* \"#utility.yul\":16703:16841   */\n    tag_430:\n        /* \"#utility.yul\":16784:16816   */\n      tag_649\n        /* \"#utility.yul\":16810:16815   */\n      dup2\n        /* \"#utility.yul\":16784:16816   */\n      tag_429\n      jump\t// in\n    tag_649:\n        /* \"#utility.yul\":16777:16782   */\n      dup2\n        /* \"#utility.yul\":16774:16817   */\n      eq\n        /* \"#utility.yul\":16764:16835   */\n      tag_650\n      jumpi\n        /* \"#utility.yul\":16831:16832   */\n      0x00\n        /* \"#utility.yul\":16828:16829   */\n      dup1\n        /* \"#utility.yul\":16821:16833   */\n      revert\n        /* \"#utility.yul\":16764:16835   */\n    tag_650:\n        /* \"#utility.yul\":16703:16841   */\n      pop\n      jump\t// out\n        /* \"#utility.yul\":16847:17006   */\n    tag_431:\n        /* \"#utility.yul\":16912:16917   */\n      0x00\n        /* \"#utility.yul\":16943:16949   */\n      dup2\n        /* \"#utility.yul\":16937:16950   */\n      mload\n        /* \"#utility.yul\":16928:16950   */\n      swap1\n      pop\n        /* \"#utility.yul\":16959:17000   */\n      tag_652\n        /* \"#utility.yul\":16994:16999   */\n      dup2\n        /* \"#utility.yul\":16959:17000   */\n      tag_430\n      jump\t// in\n    tag_652:\n        /* \"#utility.yul\":16847:17006   */\n      swap3\n      swap2\n      pop\n      pop\n      jump\t// out\n        /* \"#utility.yul\":17012:17155   */\n    tag_432:\n        /* \"#utility.yul\":17069:17074   */\n      0x00\n        /* \"#utility.yul\":17100:17106   */\n      dup2\n        /* \"#utility.yul\":17094:17107   */\n      mload\n        /* \"#utility.yul\":17085:17107   */\n      swap1\n      pop\n        /* \"#utility.yul\":17116:17149   */\n      tag_654\n        /* \"#utility.yul\":17143:17148   */\n      dup2\n        /* \"#utility.yul\":17116:17149   */\n      tag_411\n      jump\t// in\n    tag_654:\n        /* \"#utility.yul\":17012:17155   */\n      swap3\n      swap2\n      pop\n      pop\n      jump\t// out\n        /* \"#utility.yul\":17161:17684   */\n    tag_133:\n        /* \"#utility.yul\":17248:17254   */\n      0x00\n        /* \"#utility.yul\":17256:17262   */\n      dup1\n        /* \"#utility.yul\":17305:17307   */\n      0x40\n        /* \"#utility.yul\":17293:17302   */\n      dup4\n        /* \"#utility.yul\":17284:17291   */\n      dup6\n        /* \"#utility.yul\":17280:17303   */\n      sub\n        /* \"#utility.yul\":17276:17308   */\n      slt\n        /* \"#utility.yul\":17273:17392   */\n      iszero\n      tag_656\n      jumpi\n        /* \"#utility.yul\":17311:17390   */\n      tag_657\n      tag_384\n      jump\t// in\n    tag_657:\n        /* \"#utility.yul\":17273:17392   */\n    tag_656:\n        /* \"#utility.yul\":17431:17432   */\n      0x00\n        /* \"#utility.yul\":17456:17528   */\n      tag_658\n        /* \"#utility.yul\":17520:17527   */\n      dup6\n        /* \"#utility.yul\":17511:17517   */\n      dup3\n        /* \"#utility.yul\":17500:17509   */\n      dup7\n        /* \"#utility.yul\":17496:17518   */\n      add\n        /* \"#utility.yul\":17456:17528   */\n      tag_431\n      jump\t// in\n    tag_658:\n        /* \"#utility.yul\":17446:17528   */\n      swap3\n      pop\n        /* \"#utility.yul\":17402:17538   */\n      pop\n        /* \"#utility.yul\":17577:17579   */\n      0x20\n        /* \"#utility.yul\":17603:17667   */\n      tag_659\n        /* \"#utility.yul\":17659:17666   */\n      dup6\n        /* \"#utility.yul\":17650:17656   */\n      dup3\n        /* \"#utility.yul\":17639:17648   */\n      dup7\n        /* \"#utility.yul\":17635:17657   */\n      add\n        /* \"#utility.yul\":17603:17667   */\n      tag_432\n      jump\t// in\n    tag_659:\n        /* \"#utility.yul\":17593:17667   */\n      swap2\n      pop\n        /* \"#utility.yul\":17548:17677   */\n      pop\n        /* \"#utility.yul\":17161:17684   */\n      swap3\n      pop\n      swap3\n      swap1\n      pop\n      jump\t// out\n        /* \"#utility.yul\":17690:17870   */\n    tag_433:\n        /* \"#utility.yul\":17738:17815   */\n      0x4e487b7100000000000000000000000000000000000000000000000000000000\n        /* \"#utility.yul\":17735:17736   */\n      0x00\n        /* \"#utility.yul\":17728:17816   */\n      mstore\n        /* \"#utility.yul\":17835:17839   */\n      0x11\n        /* \"#utility.yul\":17832:17833   */\n      0x04\n        /* \"#utility.yul\":17825:17840   */\n      mstore\n        /* \"#utility.yul\":17859:17863   */\n      0x24\n        /* \"#utility.yul\":17856:17857   */\n      0x00\n        /* \"#utility.yul\":17849:17864   */\n      revert\n        /* \"#utility.yul\":17876:18067   */\n    tag_137:\n        /* \"#utility.yul\":17916:17919   */\n      0x00\n        /* \"#utility.yul\":17935:17955   */\n      tag_662\n        /* \"#utility.yul\":17953:17954   */\n      dup3\n        /* \"#utility.yul\":17935:17955   */\n      tag_410\n      jump\t// in\n    tag_662:\n        /* \"#utility.yul\":17930:17955   */\n      swap2\n      pop\n        /* \"#utility.yul\":17969:17989   */\n      tag_663\n        /* \"#utility.yul\":17987:17988   */\n      dup4\n        /* \"#utility.yul\":17969:17989   */\n      tag_410\n      jump\t// in\n    tag_663:\n        /* \"#utility.yul\":17964:17989   */\n      swap3\n      pop\n        /* \"#utility.yul\":18012:18013   */\n      dup3\n        /* \"#utility.yul\":18009:18010   */\n      dup3\n        /* \"#utility.yul\":18005:18014   */\n      add\n        /* \"#utility.yul\":17998:18014   */\n      swap1\n      pop\n        /* \"#utility.yul\":18033:18036   */\n      dup1\n        /* \"#utility.yul\":18030:18031   */\n      dup3\n        /* \"#utility.yul\":18027:18037   */\n      gt\n        /* \"#utility.yul\":18024:18060   */\n      iszero\n      tag_664\n      jumpi\n        /* \"#utility.yul\":18040:18058   */\n      tag_665\n      tag_433\n      jump\t// in\n    tag_665:\n        /* \"#utility.yul\":18024:18060   */\n    tag_664:\n        /* \"#utility.yul\":17876:18067   */\n      swap3\n      swap2\n      pop\n      pop\n      jump\t// out\n        /* \"#utility.yul\":18073:18188   */\n    tag_434:\n        /* \"#utility.yul\":18158:18181   */\n      tag_667\n        /* \"#utility.yul\":18175:18180   */\n      dup2\n        /* \"#utility.yul\":18158:18181   */\n      tag_386\n      jump\t// in\n    tag_667:\n        /* \"#utility.yul\":18153:18156   */\n      dup3\n        /* \"#utility.yul\":18146:18182   */\n      mstore\n        /* \"#utility.yul\":18073:18188   */\n      pop\n      pop\n      jump\t// out\n        /* \"#utility.yul\":18194:18743   */\n    tag_139:\n        /* \"#utility.yul\":18369:18373   */\n      0x00\n        /* \"#utility.yul\":18407:18410   */\n      0x80\n        /* \"#utility.yul\":18396:18405   */\n      dup3\n        /* \"#utility.yul\":18392:18411   */\n      add\n        /* \"#utility.yul\":18384:18411   */\n      swap1\n      pop\n        /* \"#utility.yul\":18421:18490   */\n      tag_669\n        /* \"#utility.yul\":18487:18488   */\n      0x00\n        /* \"#utility.yul\":18476:18485   */\n      dup4\n        /* \"#utility.yul\":18472:18489   */\n      add\n        /* \"#utility.yul\":18463:18469   */\n      dup8\n        /* \"#utility.yul\":18421:18490   */\n      tag_434\n      jump\t// in\n    tag_669:\n        /* \"#utility.yul\":18500:18572   */\n      tag_670\n        /* \"#utility.yul\":18568:18570   */\n      0x20\n        /* \"#utility.yul\":18557:18566   */\n      dup4\n        /* \"#utility.yul\":18553:18571   */\n      add\n        /* \"#utility.yul\":18544:18550   */\n      dup7\n        /* \"#utility.yul\":18500:18572   */\n      tag_415\n      jump\t// in\n    tag_670:\n        /* \"#utility.yul\":18582:18654   */\n      tag_671\n        /* \"#utility.yul\":18650:18652   */\n      0x40\n        /* \"#utility.yul\":18639:18648   */\n      dup4\n        /* \"#utility.yul\":18635:18653   */\n      add\n        /* \"#utility.yul\":18626:18632   */\n      dup6\n        /* \"#utility.yul\":18582:18654   */\n      tag_423\n      jump\t// in\n    tag_671:\n        /* \"#utility.yul\":18664:18736   */\n      tag_672\n        /* \"#utility.yul\":18732:18734   */\n      0x60\n        /* \"#utility.yul\":18721:18730   */\n      dup4\n        /* \"#utility.yul\":18717:18735   */\n      add\n        /* \"#utility.yul\":18708:18714   */\n      dup5\n        /* \"#utility.yul\":18664:18736   */\n      tag_423\n      jump\t// in\n    tag_672:\n        /* \"#utility.yul\":18194:18743   */\n      swap6\n      swap5\n      pop\n      pop\n      pop\n      pop\n      pop\n      jump\t// out\n        /* \"#utility.yul\":18749:18929   */\n    tag_435:\n        /* \"#utility.yul\":18797:18874   */\n      0x4e487b7100000000000000000000000000000000000000000000000000000000\n        /* \"#utility.yul\":18794:18795   */\n      0x00\n        /* \"#utility.yul\":18787:18875   */\n      mstore\n        /* \"#utility.yul\":18894:18898   */\n      0x22\n        /* \"#utility.yul\":18891:18892   */\n      0x04\n        /* \"#utility.yul\":18884:18899   */\n      mstore\n        /* \"#utility.yul\":18918:18922   */\n      0x24\n        /* \"#utility.yul\":18915:18916   */\n      0x00\n        /* \"#utility.yul\":18908:18923   */\n      revert\n        /* \"#utility.yul\":18935:19255   */\n    tag_147:\n        /* \"#utility.yul\":18979:18985   */\n      0x00\n        /* \"#utility.yul\":19016:19017   */\n      0x02\n        /* \"#utility.yul\":19010:19014   */\n      dup3\n        /* \"#utility.yul\":19006:19018   */\n      div\n        /* \"#utility.yul\":18996:19018   */\n      swap1\n      pop\n        /* \"#utility.yul\":19063:19064   */\n      0x01\n        /* \"#utility.yul\":19057:19061   */\n      dup3\n        /* \"#utility.yul\":19053:19065   */\n      and\n        /* \"#utility.yul\":19084:19102   */\n      dup1\n        /* \"#utility.yul\":19074:19155   */\n      tag_675\n      jumpi\n        /* \"#utility.yul\":19140:19144   */\n      0x7f\n        /* \"#utility.yul\":19132:19138   */\n      dup3\n        /* \"#utility.yul\":19128:19145   */\n      and\n        /* \"#utility.yul\":19118:19145   */\n      swap2\n      pop\n        /* \"#utility.yul\":19074:19155   */\n    tag_675:\n        /* \"#utility.yul\":19202:19204   */\n      0x20\n        /* \"#utility.yul\":19194:19200   */\n      dup3\n        /* \"#utility.yul\":19191:19205   */\n      lt\n        /* \"#utility.yul\":19171:19189   */\n      dup2\n        /* \"#utility.yul\":19168:19206   */\n      sub\n        /* \"#utility.yul\":19165:19249   */\n      tag_676\n      jumpi\n        /* \"#utility.yul\":19221:19239   */\n      tag_677\n      tag_435\n      jump\t// in\n    tag_677:\n        /* \"#utility.yul\":19165:19249   */\n    tag_676:\n        /* \"#utility.yul\":18986:19255   */\n      pop\n        /* \"#utility.yul\":18935:19255   */\n      swap2\n      swap1\n      pop\n      jump\t// out\n        /* \"#utility.yul\":19261:19425   */\n    tag_436:\n        /* \"#utility.yul\":19401:19417   */\n      0x4578636565647320737570706c79000000000000000000000000000000000000\n        /* \"#utility.yul\":19397:19398   */\n      0x00\n        /* \"#utility.yul\":19389:19395   */\n      dup3\n        /* \"#utility.yul\":19385:19399   */\n      add\n        /* \"#utility.yul\":19378:19418   */\n      mstore\n        /* \"#utility.yul\":19261:19425   */\n      pop\n      jump\t// out\n        /* \"#utility.yul\":19431:19797   */\n    tag_437:\n        /* \"#utility.yul\":19573:19576   */\n      0x00\n        /* \"#utility.yul\":19594:19661   */\n      tag_680\n        /* \"#utility.yul\":19658:19660   */\n      0x0e\n        /* \"#utility.yul\":19653:19656   */\n      dup4\n        /* \"#utility.yul\":19594:19661   */\n      tag_407\n      jump\t// in\n    tag_680:\n        /* \"#utility.yul\":19587:19661   */\n      swap2\n      pop\n        /* \"#utility.yul\":19670:19763   */\n      tag_681\n        /* \"#utility.yul\":19759:19762   */\n      dup3\n        /* \"#utility.yul\":19670:19763   */\n      tag_436\n      jump\t// in\n    tag_681:\n        /* \"#utility.yul\":19788:19790   */\n      0x20\n        /* \"#utility.yul\":19783:19786   */\n      dup3\n        /* \"#utility.yul\":19779:19791   */\n      add\n        /* \"#utility.yul\":19772:19791   */\n      swap1\n      pop\n        /* \"#utility.yul\":19431:19797   */\n      swap2\n      swap1\n      pop\n      jump\t// out\n        /* \"#utility.yul\":19803:20222   */\n    tag_166:\n        /* \"#utility.yul\":19969:19973   */\n      0x00\n        /* \"#utility.yul\":20007:20009   */\n      0x20\n        /* \"#utility.yul\":19996:20005   */\n      dup3\n        /* \"#utility.yul\":19992:20010   */\n      add\n        /* \"#utility.yul\":19984:20010   */\n      swap1\n      pop\n        /* \"#utility.yul\":20056:20065   */\n      dup2\n        /* \"#utility.yul\":20050:20054   */\n      dup2\n        /* \"#utility.yul\":20046:20066   */\n      sub\n        /* \"#utility.yul\":20042:20043   */\n      0x00\n        /* \"#utility.yul\":20031:20040   */\n      dup4\n        /* \"#utility.yul\":20027:20044   */\n      add\n        /* \"#utility.yul\":20020:20067   */\n      mstore\n        /* \"#utility.yul\":20084:20215   */\n      tag_683\n        /* \"#utility.yul\":20210:20214   */\n      dup2\n        /* \"#utility.yul\":20084:20215   */\n      tag_437\n      jump\t// in\n    tag_683:\n        /* \"#utility.yul\":20076:20215   */\n      swap1\n      pop\n        /* \"#utility.yul\":19803:20222   */\n      swap2\n      swap1\n      pop\n      jump\t// out\n        /* \"#utility.yul\":20228:20670   */\n    tag_178:\n        /* \"#utility.yul\":20377:20381   */\n      0x00\n        /* \"#utility.yul\":20415:20417   */\n      0x60\n        /* \"#utility.yul\":20404:20413   */\n      dup3\n        /* \"#utility.yul\":20400:20418   */\n      add\n        /* \"#utility.yul\":20392:20418   */\n      swap1\n      pop\n        /* \"#utility.yul\":20428:20499   */\n      tag_685\n        /* \"#utility.yul\":20496:20497   */\n      0x00\n        /* \"#utility.yul\":20485:20494   */\n      dup4\n        /* \"#utility.yul\":20481:20498   */\n      add\n        /* \"#utility.yul\":20472:20478   */\n      dup7\n        /* \"#utility.yul\":20428:20499   */\n      tag_415\n      jump\t// in\n    tag_685:\n        /* \"#utility.yul\":20509:20581   */\n      tag_686\n        /* \"#utility.yul\":20577:20579   */\n      0x20\n        /* \"#utility.yul\":20566:20575   */\n      dup4\n        /* \"#utility.yul\":20562:20580   */\n      add\n        /* \"#utility.yul\":20553:20559   */\n      dup6\n        /* \"#utility.yul\":20509:20581   */\n      tag_423\n      jump\t// in\n    tag_686:\n        /* \"#utility.yul\":20591:20663   */\n      tag_687\n        /* \"#utility.yul\":20659:20661   */\n      0x40\n        /* \"#utility.yul\":20648:20657   */\n      dup4\n        /* \"#utility.yul\":20644:20662   */\n      add\n        /* \"#utility.yul\":20635:20641   */\n      dup5\n        /* \"#utility.yul\":20591:20663   */\n      tag_415\n      jump\t// in\n    tag_687:\n        /* \"#utility.yul\":20228:20670   */\n      swap5\n      swap4\n      pop\n      pop\n      pop\n      pop\n      jump\t// out\n        /* \"#utility.yul\":20676:20844   */\n    tag_438:\n        /* \"#utility.yul\":20759:20770   */\n      0x00\n        /* \"#utility.yul\":20793:20799   */\n      dup3\n        /* \"#utility.yul\":20788:20791   */\n      dup3\n        /* \"#utility.yul\":20781:20800   */\n      mstore\n        /* \"#utility.yul\":20833:20837   */\n      0x20\n        /* \"#utility.yul\":20828:20831   */\n      dup3\n        /* \"#utility.yul\":20824:20838   */\n      add\n        /* \"#utility.yul\":20809:20838   */\n      swap1\n      pop\n        /* \"#utility.yul\":20676:20844   */\n      swap3\n      swap2\n      pop\n      pop\n      jump\t// out\n        /* \"#utility.yul\":20872:21186   */\n    tag_439:\n        /* \"#utility.yul\":20968:20971   */\n      0x00\n        /* \"#utility.yul\":20989:21059   */\n      tag_690\n        /* \"#utility.yul\":21052:21058   */\n      dup4\n        /* \"#utility.yul\":21047:21050   */\n      dup6\n        /* \"#utility.yul\":20989:21059   */\n      tag_438\n      jump\t// in\n    tag_690:\n        /* \"#utility.yul\":20982:21059   */\n      swap4\n      pop\n        /* \"#utility.yul\":21069:21125   */\n      tag_691\n        /* \"#utility.yul\":21118:21124   */\n      dup4\n        /* \"#utility.yul\":21113:21116   */\n      dup6\n        /* \"#utility.yul\":21106:21111   */\n      dup5\n        /* \"#utility.yul\":21069:21125   */\n      tag_395\n      jump\t// in\n    tag_691:\n        /* \"#utility.yul\":21150:21179   */\n      tag_692\n        /* \"#utility.yul\":21172:21178   */\n      dup4\n        /* \"#utility.yul\":21150:21179   */\n      tag_391\n      jump\t// in\n    tag_692:\n        /* \"#utility.yul\":21145:21148   */\n      dup5\n        /* \"#utility.yul\":21141:21180   */\n      add\n        /* \"#utility.yul\":21134:21180   */\n      swap1\n      pop\n        /* \"#utility.yul\":20872:21186   */\n      swap4\n      swap3\n      pop\n      pop\n      pop\n      jump\t// out\n        /* \"#utility.yul\":21192:22054   */\n    tag_181:\n        /* \"#utility.yul\":21445:21449   */\n      0x00\n        /* \"#utility.yul\":21483:21486   */\n      0xa0\n        /* \"#utility.yul\":21472:21481   */\n      dup3\n        /* \"#utility.yul\":21468:21487   */\n      add\n        /* \"#utility.yul\":21460:21487   */\n      swap1\n      pop\n        /* \"#utility.yul\":21497:21566   */\n      tag_694\n        /* \"#utility.yul\":21563:21564   */\n      0x00\n        /* \"#utility.yul\":21552:21561   */\n      dup4\n        /* \"#utility.yul\":21548:21565   */\n      add\n        /* \"#utility.yul\":21539:21545   */\n      dup11\n        /* \"#utility.yul\":21497:21566   */\n      tag_434\n      jump\t// in\n    tag_694:\n        /* \"#utility.yul\":21576:21648   */\n      tag_695\n        /* \"#utility.yul\":21644:21646   */\n      0x20\n        /* \"#utility.yul\":21633:21642   */\n      dup4\n        /* \"#utility.yul\":21629:21647   */\n      add\n        /* \"#utility.yul\":21620:21626   */\n      dup10\n        /* \"#utility.yul\":21576:21648   */\n      tag_415\n      jump\t// in\n    tag_695:\n        /* \"#utility.yul\":21695:21704   */\n      dup2\n        /* \"#utility.yul\":21689:21693   */\n      dup2\n        /* \"#utility.yul\":21685:21705   */\n      sub\n        /* \"#utility.yul\":21680:21682   */\n      0x40\n        /* \"#utility.yul\":21669:21678   */\n      dup4\n        /* \"#utility.yul\":21665:21683   */\n      add\n        /* \"#utility.yul\":21658:21706   */\n      mstore\n        /* \"#utility.yul\":21723:21809   */\n      tag_696\n        /* \"#utility.yul\":21804:21808   */\n      dup2\n        /* \"#utility.yul\":21795:21801   */\n      dup8\n        /* \"#utility.yul\":21787:21793   */\n      dup10\n        /* \"#utility.yul\":21723:21809   */\n      tag_439\n      jump\t// in\n    tag_696:\n        /* \"#utility.yul\":21715:21809   */\n      swap1\n      pop\n        /* \"#utility.yul\":21819:21885   */\n      tag_697\n        /* \"#utility.yul\":21881:21883   */\n      0x60\n        /* \"#utility.yul\":21870:21879   */\n      dup4\n        /* \"#utility.yul\":21866:21884   */\n      add\n        /* \"#utility.yul\":21857:21863   */\n      dup7\n        /* \"#utility.yul\":21819:21885   */\n      tag_405\n      jump\t// in\n    tag_697:\n        /* \"#utility.yul\":21933:21942   */\n      dup2\n        /* \"#utility.yul\":21927:21931   */\n      dup2\n        /* \"#utility.yul\":21923:21943   */\n      sub\n        /* \"#utility.yul\":21917:21920   */\n      0x80\n        /* \"#utility.yul\":21906:21915   */\n      dup4\n        /* \"#utility.yul\":21902:21921   */\n      add\n        /* \"#utility.yul\":21895:21944   */\n      mstore\n        /* \"#utility.yul\":21961:22047   */\n      tag_698\n        /* \"#utility.yul\":22042:22046   */\n      dup2\n        /* \"#utility.yul\":22033:22039   */\n      dup5\n        /* \"#utility.yul\":22025:22031   */\n      dup7\n        /* \"#utility.yul\":21961:22047   */\n      tag_439\n      jump\t// in\n    tag_698:\n        /* \"#utility.yul\":21953:22047   */\n      swap1\n      pop\n        /* \"#utility.yul\":21192:22054   */\n      swap9\n      swap8\n      pop\n      pop\n      pop\n      pop\n      pop\n      pop\n      pop\n      pop\n      jump\t// out\n        /* \"#utility.yul\":22060:22567   */\n    tag_185:\n        /* \"#utility.yul\":22139:22145   */\n      0x00\n        /* \"#utility.yul\":22147:22153   */\n      dup1\n        /* \"#utility.yul\":22196:22198   */\n      0x40\n        /* \"#utility.yul\":22184:22193   */\n      dup4\n        /* \"#utility.yul\":22175:22182   */\n      dup6\n        /* \"#utility.yul\":22171:22194   */\n      sub\n        /* \"#utility.yul\":22167:22199   */\n      slt\n        /* \"#utility.yul\":22164:22283   */\n      iszero\n      tag_700\n      jumpi\n        /* \"#utility.yul\":22202:22281   */\n      tag_701\n      tag_384\n      jump\t// in\n    tag_701:\n        /* \"#utility.yul\":22164:22283   */\n    tag_700:\n        /* \"#utility.yul\":22322:22323   */\n      0x00\n        /* \"#utility.yul\":22347:22411   */\n      tag_702\n        /* \"#utility.yul\":22403:22410   */\n      dup6\n        /* \"#utility.yul\":22394:22400   */\n      dup3\n        /* \"#utility.yul\":22383:22392   */\n      dup7\n        /* \"#utility.yul\":22379:22401   */\n      add\n        /* \"#utility.yul\":22347:22411   */\n      tag_432\n      jump\t// in\n    tag_702:\n        /* \"#utility.yul\":22337:22411   */\n      swap3\n      pop\n        /* \"#utility.yul\":22293:22421   */\n      pop\n        /* \"#utility.yul\":22460:22462   */\n      0x20\n        /* \"#utility.yul\":22486:22550   */\n      tag_703\n        /* \"#utility.yul\":22542:22549   */\n      dup6\n        /* \"#utility.yul\":22533:22539   */\n      dup3\n        /* \"#utility.yul\":22522:22531   */\n      dup7\n        /* \"#utility.yul\":22518:22540   */\n      add\n        /* \"#utility.yul\":22486:22550   */\n      tag_432\n      jump\t// in\n    tag_703:\n        /* \"#utility.yul\":22476:22550   */\n      swap2\n      pop\n        /* \"#utility.yul\":22431:22560   */\n      pop\n        /* \"#utility.yul\":22060:22567   */\n      swap3\n      pop\n      swap3\n      swap1\n      pop\n      jump\t// out\n        /* \"#utility.yul\":22573:22736   */\n    tag_440:\n        /* \"#utility.yul\":22713:22728   */\n      0x4e6f7420746865206f776e657200000000000000000000000000000000000000\n        /* \"#utility.yul\":22709:22710   */\n      0x00\n        /* \"#utility.yul\":22701:22707   */\n      dup3\n        /* \"#utility.yul\":22697:22711   */\n      add\n        /* \"#utility.yul\":22690:22729   */\n      mstore\n        /* \"#utility.yul\":22573:22736   */\n      pop\n      jump\t// out\n        /* \"#utility.yul\":22742:23108   */\n    tag_441:\n        /* \"#utility.yul\":22884:22887   */\n      0x00\n        /* \"#utility.yul\":22905:22972   */\n      tag_706\n        /* \"#utility.yul\":22969:22971   */\n      0x0d\n        /* \"#utility.yul\":22964:22967   */\n      dup4\n        /* \"#utility.yul\":22905:22972   */\n      tag_407\n      jump\t// in\n    tag_706:\n        /* \"#utility.yul\":22898:22972   */\n      swap2\n      pop\n        /* \"#utility.yul\":22981:23074   */\n      tag_707\n        /* \"#utility.yul\":23070:23073   */\n      dup3\n        /* \"#utility.yul\":22981:23074   */\n      tag_440\n      jump\t// in\n    tag_707:\n        /* \"#utility.yul\":23099:23101   */\n      0x20\n        /* \"#utility.yul\":23094:23097   */\n      dup3\n        /* \"#utility.yul\":23090:23102   */\n      add\n        /* \"#utility.yul\":23083:23102   */\n      swap1\n      pop\n        /* \"#utility.yul\":22742:23108   */\n      swap2\n      swap1\n      pop\n      jump\t// out\n        /* \"#utility.yul\":23114:23533   */\n    tag_218:\n        /* \"#utility.yul\":23280:23284   */\n      0x00\n        /* \"#utility.yul\":23318:23320   */\n      0x20\n        /* \"#utility.yul\":23307:23316   */\n      dup3\n        /* \"#utility.yul\":23303:23321   */\n      add\n        /* \"#utility.yul\":23295:23321   */\n      swap1\n      pop\n        /* \"#utility.yul\":23367:23376   */\n      dup2\n        /* \"#utility.yul\":23361:23365   */\n      dup2\n        /* \"#utility.yul\":23357:23377   */\n      sub\n        /* \"#utility.yul\":23353:23354   */\n      0x00\n        /* \"#utility.yul\":23342:23351   */\n      dup4\n        /* \"#utility.yul\":23338:23355   */\n      add\n        /* \"#utility.yul\":23331:23378   */\n      mstore\n        /* \"#utility.yul\":23395:23526   */\n      tag_709\n        /* \"#utility.yul\":23521:23525   */\n      dup2\n        /* \"#utility.yul\":23395:23526   */\n      tag_441\n      jump\t// in\n    tag_709:\n        /* \"#utility.yul\":23387:23526   */\n      swap1\n      pop\n        /* \"#utility.yul\":23114:23533   */\n      swap2\n      swap1\n      pop\n      jump\t// out\n        /* \"#utility.yul\":23539:23733   */\n    tag_222:\n        /* \"#utility.yul\":23579:23583   */\n      0x00\n        /* \"#utility.yul\":23599:23619   */\n      tag_711\n        /* \"#utility.yul\":23617:23618   */\n      dup3\n        /* \"#utility.yul\":23599:23619   */\n      tag_410\n      jump\t// in\n    tag_711:\n        /* \"#utility.yul\":23594:23619   */\n      swap2\n      pop\n        /* \"#utility.yul\":23633:23653   */\n      tag_712\n        /* \"#utility.yul\":23651:23652   */\n      dup4\n        /* \"#utility.yul\":23633:23653   */\n      tag_410\n      jump\t// in\n    tag_712:\n        /* \"#utility.yul\":23628:23653   */\n      swap3\n      pop\n        /* \"#utility.yul\":23677:23678   */\n      dup3\n        /* \"#utility.yul\":23674:23675   */\n      dup3\n        /* \"#utility.yul\":23670:23679   */\n      sub\n        /* \"#utility.yul\":23662:23679   */\n      swap1\n      pop\n        /* \"#utility.yul\":23701:23702   */\n      dup2\n        /* \"#utility.yul\":23695:23699   */\n      dup2\n        /* \"#utility.yul\":23692:23703   */\n      gt\n        /* \"#utility.yul\":23689:23726   */\n      iszero\n      tag_713\n      jumpi\n        /* \"#utility.yul\":23706:23724   */\n      tag_714\n      tag_433\n      jump\t// in\n    tag_714:\n        /* \"#utility.yul\":23689:23726   */\n    tag_713:\n        /* \"#utility.yul\":23539:23733   */\n      swap3\n      swap2\n      pop\n      pop\n      jump\t// out\n        /* \"#utility.yul\":23739:24071   */\n    tag_224:\n        /* \"#utility.yul\":23860:23864   */\n      0x00\n        /* \"#utility.yul\":23898:23900   */\n      0x40\n        /* \"#utility.yul\":23887:23896   */\n      dup3\n        /* \"#utility.yul\":23883:23901   */\n      add\n        /* \"#utility.yul\":23875:23901   */\n      swap1\n      pop\n        /* \"#utility.yul\":23911:23982   */\n      tag_716\n        /* \"#utility.yul\":23979:23980   */\n      0x00\n        /* \"#utility.yul\":23968:23977   */\n      dup4\n        /* \"#utility.yul\":23964:23981   */\n      add\n        /* \"#utility.yul\":23955:23961   */\n      dup6\n        /* \"#utility.yul\":23911:23982   */\n      tag_415\n      jump\t// in\n    tag_716:\n        /* \"#utility.yul\":23992:24064   */\n      tag_717\n        /* \"#utility.yul\":24060:24062   */\n      0x20\n        /* \"#utility.yul\":24049:24058   */\n      dup4\n        /* \"#utility.yul\":24045:24063   */\n      add\n        /* \"#utility.yul\":24036:24042   */\n      dup5\n        /* \"#utility.yul\":23992:24064   */\n      tag_423\n      jump\t// in\n    tag_717:\n        /* \"#utility.yul\":23739:24071   */\n      swap4\n      swap3\n      pop\n      pop\n      pop\n      jump\t// out\n        /* \"#utility.yul\":24077:24173   */\n    tag_442:\n        /* \"#utility.yul\":24111:24119   */\n      0x00\n        /* \"#utility.yul\":24160:24165   */\n      dup2\n        /* \"#utility.yul\":24155:24158   */\n      0xf0\n        /* \"#utility.yul\":24151:24166   */\n      shl\n        /* \"#utility.yul\":24130:24166   */\n      swap1\n      pop\n        /* \"#utility.yul\":24077:24173   */\n      swap2\n      swap1\n      pop\n      jump\t// out\n        /* \"#utility.yul\":24179:24273   */\n    tag_443:\n        /* \"#utility.yul\":24217:24224   */\n      0x00\n        /* \"#utility.yul\":24246:24267   */\n      tag_720\n        /* \"#utility.yul\":24261:24266   */\n      dup3\n        /* \"#utility.yul\":24246:24267   */\n      tag_442\n      jump\t// in\n    tag_720:\n        /* \"#utility.yul\":24235:24267   */\n      swap1\n      pop\n        /* \"#utility.yul\":24179:24273   */\n      swap2\n      swap1\n      pop\n      jump\t// out\n        /* \"#utility.yul\":24279:24432   */\n    tag_444:\n        /* \"#utility.yul\":24382:24425   */\n      tag_722\n        /* \"#utility.yul\":24401:24424   */\n      tag_723\n        /* \"#utility.yul\":24418:24423   */\n      dup3\n        /* \"#utility.yul\":24401:24424   */\n      tag_386\n      jump\t// in\n    tag_723:\n        /* \"#utility.yul\":24382:24425   */\n      tag_443\n      jump\t// in\n    tag_722:\n        /* \"#utility.yul\":24377:24380   */\n      dup3\n        /* \"#utility.yul\":24370:24426   */\n      mstore\n        /* \"#utility.yul\":24279:24432   */\n      pop\n      pop\n      jump\t// out\n        /* \"#utility.yul\":24438:24517   */\n    tag_445:\n        /* \"#utility.yul\":24477:24484   */\n      0x00\n        /* \"#utility.yul\":24506:24511   */\n      dup2\n        /* \"#utility.yul\":24495:24511   */\n      swap1\n      pop\n        /* \"#utility.yul\":24438:24517   */\n      swap2\n      swap1\n      pop\n      jump\t// out\n        /* \"#utility.yul\":24523:24680   */\n    tag_446:\n        /* \"#utility.yul\":24628:24673   */\n      tag_726\n        /* \"#utility.yul\":24648:24672   */\n      tag_727\n        /* \"#utility.yul\":24666:24671   */\n      dup3\n        /* \"#utility.yul\":24648:24672   */\n      tag_410\n      jump\t// in\n    tag_727:\n        /* \"#utility.yul\":24628:24673   */\n      tag_445\n      jump\t// in\n    tag_726:\n        /* \"#utility.yul\":24623:24626   */\n      dup3\n        /* \"#utility.yul\":24616:24674   */\n      mstore\n        /* \"#utility.yul\":24523:24680   */\n      pop\n      pop\n      jump\t// out\n        /* \"#utility.yul\":24686:25078   */\n    tag_226:\n        /* \"#utility.yul\":24824:24827   */\n      0x00\n        /* \"#utility.yul\":24839:24912   */\n      tag_729\n        /* \"#utility.yul\":24908:24911   */\n      dup3\n        /* \"#utility.yul\":24899:24905   */\n      dup6\n        /* \"#utility.yul\":24839:24912   */\n      tag_444\n      jump\t// in\n    tag_729:\n        /* \"#utility.yul\":24937:24938   */\n      0x02\n        /* \"#utility.yul\":24932:24935   */\n      dup3\n        /* \"#utility.yul\":24928:24939   */\n      add\n        /* \"#utility.yul\":24921:24939   */\n      swap2\n      pop\n        /* \"#utility.yul\":24949:25024   */\n      tag_730\n        /* \"#utility.yul\":25020:25023   */\n      dup3\n        /* \"#utility.yul\":25011:25017   */\n      dup5\n        /* \"#utility.yul\":24949:25024   */\n      tag_446\n      jump\t// in\n    tag_730:\n        /* \"#utility.yul\":25049:25051   */\n      0x20\n        /* \"#utility.yul\":25044:25047   */\n      dup3\n        /* \"#utility.yul\":25040:25052   */\n      add\n        /* \"#utility.yul\":25033:25052   */\n      swap2\n      pop\n        /* \"#utility.yul\":25069:25072   */\n      dup2\n        /* \"#utility.yul\":25062:25072   */\n      swap1\n      pop\n        /* \"#utility.yul\":24686:25078   */\n      swap4\n      swap3\n      pop\n      pop\n      pop\n      jump\t// out\n        /* \"#utility.yul\":25084:25182   */\n    tag_447:\n        /* \"#utility.yul\":25135:25141   */\n      0x00\n        /* \"#utility.yul\":25169:25174   */\n      dup2\n        /* \"#utility.yul\":25163:25175   */\n      mload\n        /* \"#utility.yul\":25153:25175   */\n      swap1\n      pop\n        /* \"#utility.yul\":25084:25182   */\n      swap2\n      swap1\n      pop\n      jump\t// out\n        /* \"#utility.yul\":25188:25561   */\n    tag_448:\n        /* \"#utility.yul\":25274:25277   */\n      0x00\n        /* \"#utility.yul\":25302:25340   */\n      tag_733\n        /* \"#utility.yul\":25334:25339   */\n      dup3\n        /* \"#utility.yul\":25302:25340   */\n      tag_447\n      jump\t// in\n    tag_733:\n        /* \"#utility.yul\":25356:25426   */\n      tag_734\n        /* \"#utility.yul\":25419:25425   */\n      dup2\n        /* \"#utility.yul\":25414:25417   */\n      dup6\n        /* \"#utility.yul\":25356:25426   */\n      tag_438\n      jump\t// in\n    tag_734:\n        /* \"#utility.yul\":25349:25426   */\n      swap4\n      pop\n        /* \"#utility.yul\":25435:25500   */\n      tag_735\n        /* \"#utility.yul\":25493:25499   */\n      dup2\n        /* \"#utility.yul\":25488:25491   */\n      dup6\n        /* \"#utility.yul\":25481:25485   */\n      0x20\n        /* \"#utility.yul\":25474:25479   */\n      dup7\n        /* \"#utility.yul\":25470:25486   */\n      add\n        /* \"#utility.yul\":25435:25500   */\n      tag_408\n      jump\t// in\n    tag_735:\n        /* \"#utility.yul\":25525:25554   */\n      tag_736\n        /* \"#utility.yul\":25547:25553   */\n      dup2\n        /* \"#utility.yul\":25525:25554   */\n      tag_391\n      jump\t// in\n    tag_736:\n        /* \"#utility.yul\":25520:25523   */\n      dup5\n        /* \"#utility.yul\":25516:25555   */\n      add\n        /* \"#utility.yul\":25509:25555   */\n      swap2\n      pop\n        /* \"#utility.yul\":25278:25561   */\n      pop\n        /* \"#utility.yul\":25188:25561   */\n      swap3\n      swap2\n      pop\n      pop\n      jump\t// out\n        /* \"#utility.yul\":25567:26389   */\n    tag_228:\n        /* \"#utility.yul\":25800:25804   */\n      0x00\n        /* \"#utility.yul\":25838:25841   */\n      0xa0\n        /* \"#utility.yul\":25827:25836   */\n      dup3\n        /* \"#utility.yul\":25823:25842   */\n      add\n        /* \"#utility.yul\":25815:25842   */\n      swap1\n      pop\n        /* \"#utility.yul\":25852:25921   */\n      tag_738\n        /* \"#utility.yul\":25918:25919   */\n      0x00\n        /* \"#utility.yul\":25907:25916   */\n      dup4\n        /* \"#utility.yul\":25903:25920   */\n      add\n        /* \"#utility.yul\":25894:25900   */\n      dup9\n        /* \"#utility.yul\":25852:25921   */\n      tag_434\n      jump\t// in\n    tag_738:\n        /* \"#utility.yul\":25931:26003   */\n      tag_739\n        /* \"#utility.yul\":25999:26001   */\n      0x20\n        /* \"#utility.yul\":25988:25997   */\n      dup4\n        /* \"#utility.yul\":25984:26002   */\n      add\n        /* \"#utility.yul\":25975:25981   */\n      dup8\n        /* \"#utility.yul\":25931:26003   */\n      tag_415\n      jump\t// in\n    tag_739:\n        /* \"#utility.yul\":26050:26059   */\n      dup2\n        /* \"#utility.yul\":26044:26048   */\n      dup2\n        /* \"#utility.yul\":26040:26060   */\n      sub\n        /* \"#utility.yul\":26035:26037   */\n      0x40\n        /* \"#utility.yul\":26024:26033   */\n      dup4\n        /* \"#utility.yul\":26020:26038   */\n      add\n        /* \"#utility.yul\":26013:26061   */\n      mstore\n        /* \"#utility.yul\":26078:26154   */\n      tag_740\n        /* \"#utility.yul\":26149:26153   */\n      dup2\n        /* \"#utility.yul\":26140:26146   */\n      dup7\n        /* \"#utility.yul\":26078:26154   */\n      tag_448\n      jump\t// in\n    tag_740:\n        /* \"#utility.yul\":26070:26154   */\n      swap1\n      pop\n        /* \"#utility.yul\":26164:26230   */\n      tag_741\n        /* \"#utility.yul\":26226:26228   */\n      0x60\n        /* \"#utility.yul\":26215:26224   */\n      dup4\n        /* \"#utility.yul\":26211:26229   */\n      add\n        /* \"#utility.yul\":26202:26208   */\n      dup6\n        /* \"#utility.yul\":26164:26230   */\n      tag_405\n      jump\t// in\n    tag_741:\n        /* \"#utility.yul\":26278:26287   */\n      dup2\n        /* \"#utility.yul\":26272:26276   */\n      dup2\n        /* \"#utility.yul\":26268:26288   */\n      sub\n        /* \"#utility.yul\":26262:26265   */\n      0x80\n        /* \"#utility.yul\":26251:26260   */\n      dup4\n        /* \"#utility.yul\":26247:26266   */\n      add\n        /* \"#utility.yul\":26240:26289   */\n      mstore\n        /* \"#utility.yul\":26306:26382   */\n      tag_742\n        /* \"#utility.yul\":26377:26381   */\n      dup2\n        /* \"#utility.yul\":26368:26374   */\n      dup5\n        /* \"#utility.yul\":26306:26382   */\n      tag_448\n      jump\t// in\n    tag_742:\n        /* \"#utility.yul\":26298:26382   */\n      swap1\n      pop\n        /* \"#utility.yul\":25567:26389   */\n      swap7\n      swap6\n      pop\n      pop\n      pop\n      pop\n      pop\n      pop\n      jump\t// out\n        /* \"#utility.yul\":26395:26624   */\n    tag_449:\n        /* \"#utility.yul\":26535:26569   */\n      0x4d7573742073656e6420656e6f7567682076616c756520746f20636f76657220\n        /* \"#utility.yul\":26531:26532   */\n      0x00\n        /* \"#utility.yul\":26523:26529   */\n      dup3\n        /* \"#utility.yul\":26519:26533   */\n      add\n        /* \"#utility.yul\":26512:26570   */\n      mstore\n        /* \"#utility.yul\":26604:26616   */\n      0x6d65737361676546656500000000000000000000000000000000000000000000\n        /* \"#utility.yul\":26599:26601   */\n      0x20\n        /* \"#utility.yul\":26591:26597   */\n      dup3\n        /* \"#utility.yul\":26587:26602   */\n      add\n        /* \"#utility.yul\":26580:26617   */\n      mstore\n        /* \"#utility.yul\":26395:26624   */\n      pop\n      jump\t// out\n        /* \"#utility.yul\":26630:26996   */\n    tag_450:\n        /* \"#utility.yul\":26772:26775   */\n      0x00\n        /* \"#utility.yul\":26793:26860   */\n      tag_745\n        /* \"#utility.yul\":26857:26859   */\n      0x2a\n        /* \"#utility.yul\":26852:26855   */\n      dup4\n        /* \"#utility.yul\":26793:26860   */\n      tag_407\n      jump\t// in\n    tag_745:\n        /* \"#utility.yul\":26786:26860   */\n      swap2\n      pop\n        /* \"#utility.yul\":26869:26962   */\n      tag_746\n        /* \"#utility.yul\":26958:26961   */\n      dup3\n        /* \"#utility.yul\":26869:26962   */\n      tag_449\n      jump\t// in\n    tag_746:\n        /* \"#utility.yul\":26987:26989   */\n      0x40\n        /* \"#utility.yul\":26982:26985   */\n      dup3\n        /* \"#utility.yul\":26978:26990   */\n      add\n        /* \"#utility.yul\":26971:26990   */\n      swap1\n      pop\n        /* \"#utility.yul\":26630:26996   */\n      swap2\n      swap1\n      pop\n      jump\t// out\n        /* \"#utility.yul\":27002:27421   */\n    tag_234:\n        /* \"#utility.yul\":27168:27172   */\n      0x00\n        /* \"#utility.yul\":27206:27208   */\n      0x20\n        /* \"#utility.yul\":27195:27204   */\n      dup3\n        /* \"#utility.yul\":27191:27209   */\n      add\n        /* \"#utility.yul\":27183:27209   */\n      swap1\n      pop\n        /* \"#utility.yul\":27255:27264   */\n      dup2\n        /* \"#utility.yul\":27249:27253   */\n      dup2\n        /* \"#utility.yul\":27245:27265   */\n      sub\n        /* \"#utility.yul\":27241:27242   */\n      0x00\n        /* \"#utility.yul\":27230:27239   */\n      dup4\n        /* \"#utility.yul\":27226:27243   */\n      add\n        /* \"#utility.yul\":27219:27266   */\n      mstore\n        /* \"#utility.yul\":27283:27414   */\n      tag_748\n        /* \"#utility.yul\":27409:27413   */\n      dup2\n        /* \"#utility.yul\":27283:27414   */\n      tag_450\n      jump\t// in\n    tag_748:\n        /* \"#utility.yul\":27275:27414   */\n      swap1\n      pop\n        /* \"#utility.yul\":27002:27421   */\n      swap2\n      swap1\n      pop\n      jump\t// out\n        /* \"#utility.yul\":27427:27569   */\n    tag_451:\n        /* \"#utility.yul\":27530:27562   */\n      tag_750\n        /* \"#utility.yul\":27556:27561   */\n      dup2\n        /* \"#utility.yul\":27530:27562   */\n      tag_429\n      jump\t// in\n    tag_750:\n        /* \"#utility.yul\":27525:27528   */\n      dup3\n        /* \"#utility.yul\":27518:27563   */\n      mstore\n        /* \"#utility.yul\":27427:27569   */\n      pop\n      pop\n      jump\t// out\n        /* \"#utility.yul\":27575:28659   */\n    tag_236:\n        /* \"#utility.yul\":27886:27890   */\n      0x00\n        /* \"#utility.yul\":27924:27927   */\n      0xc0\n        /* \"#utility.yul\":27913:27922   */\n      dup3\n        /* \"#utility.yul\":27909:27928   */\n      add\n        /* \"#utility.yul\":27901:27928   */\n      swap1\n      pop\n        /* \"#utility.yul\":27938:28007   */\n      tag_752\n        /* \"#utility.yul\":28004:28005   */\n      0x00\n        /* \"#utility.yul\":27993:28002   */\n      dup4\n        /* \"#utility.yul\":27989:28006   */\n      add\n        /* \"#utility.yul\":27980:27986   */\n      dup11\n        /* \"#utility.yul\":27938:28007   */\n      tag_434\n      jump\t// in\n    tag_752:\n        /* \"#utility.yul\":28054:28063   */\n      dup2\n        /* \"#utility.yul\":28048:28052   */\n      dup2\n        /* \"#utility.yul\":28044:28064   */\n      sub\n        /* \"#utility.yul\":28039:28041   */\n      0x20\n        /* \"#utility.yul\":28028:28037   */\n      dup4\n        /* \"#utility.yul\":28024:28042   */\n      add\n        /* \"#utility.yul\":28017:28065   */\n      mstore\n        /* \"#utility.yul\":28082:28168   */\n      tag_753\n        /* \"#utility.yul\":28163:28167   */\n      dup2\n        /* \"#utility.yul\":28154:28160   */\n      dup9\n        /* \"#utility.yul\":28146:28152   */\n      dup11\n        /* \"#utility.yul\":28082:28168   */\n      tag_439\n      jump\t// in\n    tag_753:\n        /* \"#utility.yul\":28074:28168   */\n      swap1\n      pop\n        /* \"#utility.yul\":28215:28224   */\n      dup2\n        /* \"#utility.yul\":28209:28213   */\n      dup2\n        /* \"#utility.yul\":28205:28225   */\n      sub\n        /* \"#utility.yul\":28200:28202   */\n      0x40\n        /* \"#utility.yul\":28189:28198   */\n      dup4\n        /* \"#utility.yul\":28185:28203   */\n      add\n        /* \"#utility.yul\":28178:28226   */\n      mstore\n        /* \"#utility.yul\":28243:28319   */\n      tag_754\n        /* \"#utility.yul\":28314:28318   */\n      dup2\n        /* \"#utility.yul\":28305:28311   */\n      dup8\n        /* \"#utility.yul\":28243:28319   */\n      tag_448\n      jump\t// in\n    tag_754:\n        /* \"#utility.yul\":28235:28319   */\n      swap1\n      pop\n        /* \"#utility.yul\":28329:28417   */\n      tag_755\n        /* \"#utility.yul\":28413:28415   */\n      0x60\n        /* \"#utility.yul\":28402:28411   */\n      dup4\n        /* \"#utility.yul\":28398:28416   */\n      add\n        /* \"#utility.yul\":28389:28395   */\n      dup7\n        /* \"#utility.yul\":28329:28417   */\n      tag_451\n      jump\t// in\n    tag_755:\n        /* \"#utility.yul\":28427:28500   */\n      tag_756\n        /* \"#utility.yul\":28495:28498   */\n      0x80\n        /* \"#utility.yul\":28484:28493   */\n      dup4\n        /* \"#utility.yul\":28480:28499   */\n      add\n        /* \"#utility.yul\":28471:28477   */\n      dup6\n        /* \"#utility.yul\":28427:28500   */\n      tag_415\n      jump\t// in\n    tag_756:\n        /* \"#utility.yul\":28548:28557   */\n      dup2\n        /* \"#utility.yul\":28542:28546   */\n      dup2\n        /* \"#utility.yul\":28538:28558   */\n      sub\n        /* \"#utility.yul\":28532:28535   */\n      0xa0\n        /* \"#utility.yul\":28521:28530   */\n      dup4\n        /* \"#utility.yul\":28517:28536   */\n      add\n        /* \"#utility.yul\":28510:28559   */\n      mstore\n        /* \"#utility.yul\":28576:28652   */\n      tag_757\n        /* \"#utility.yul\":28647:28651   */\n      dup2\n        /* \"#utility.yul\":28638:28644   */\n      dup5\n        /* \"#utility.yul\":28576:28652   */\n      tag_448\n      jump\t// in\n    tag_757:\n        /* \"#utility.yul\":28568:28652   */\n      swap1\n      pop\n        /* \"#utility.yul\":27575:28659   */\n      swap9\n      swap8\n      pop\n      pop\n      pop\n      pop\n      pop\n      pop\n      pop\n      pop\n      jump\t// out\n        /* \"#utility.yul\":28665:28813   */\n    tag_452:\n        /* \"#utility.yul\":28767:28778   */\n      0x00\n        /* \"#utility.yul\":28804:28807   */\n      dup2\n        /* \"#utility.yul\":28789:28807   */\n      swap1\n      pop\n        /* \"#utility.yul\":28665:28813   */\n      swap3\n      swap2\n      pop\n      pop\n      jump\t// out\n        /* \"#utility.yul\":28819:29209   */\n    tag_453:\n        /* \"#utility.yul\":28925:28928   */\n      0x00\n        /* \"#utility.yul\":28953:28992   */\n      tag_760\n        /* \"#utility.yul\":28986:28991   */\n      dup3\n        /* \"#utility.yul\":28953:28992   */\n      tag_406\n      jump\t// in\n    tag_760:\n        /* \"#utility.yul\":29008:29097   */\n      tag_761\n        /* \"#utility.yul\":29090:29096   */\n      dup2\n        /* \"#utility.yul\":29085:29088   */\n      dup6\n        /* \"#utility.yul\":29008:29097   */\n      tag_452\n      jump\t// in\n    tag_761:\n        /* \"#utility.yul\":29001:29097   */\n      swap4\n      pop\n        /* \"#utility.yul\":29106:29171   */\n      tag_762\n        /* \"#utility.yul\":29164:29170   */\n      dup2\n        /* \"#utility.yul\":29159:29162   */\n      dup6\n        /* \"#utility.yul\":29152:29156   */\n      0x20\n        /* \"#utility.yul\":29145:29150   */\n      dup7\n        /* \"#utility.yul\":29141:29157   */\n      add\n        /* \"#utility.yul\":29106:29171   */\n      tag_408\n      jump\t// in\n    tag_762:\n        /* \"#utility.yul\":29196:29202   */\n      dup1\n        /* \"#utility.yul\":29191:29194   */\n      dup5\n        /* \"#utility.yul\":29187:29203   */\n      add\n        /* \"#utility.yul\":29180:29203   */\n      swap2\n      pop\n        /* \"#utility.yul\":28929:29209   */\n      pop\n        /* \"#utility.yul\":28819:29209   */\n      swap3\n      swap2\n      pop\n      pop\n      jump\t// out\n        /* \"#utility.yul\":29215:29650   */\n    tag_249:\n        /* \"#utility.yul\":29395:29398   */\n      0x00\n        /* \"#utility.yul\":29417:29512   */\n      tag_764\n        /* \"#utility.yul\":29508:29511   */\n      dup3\n        /* \"#utility.yul\":29499:29505   */\n      dup6\n        /* \"#utility.yul\":29417:29512   */\n      tag_453\n      jump\t// in\n    tag_764:\n        /* \"#utility.yul\":29410:29512   */\n      swap2\n      pop\n        /* \"#utility.yul\":29529:29624   */\n      tag_765\n        /* \"#utility.yul\":29620:29623   */\n      dup3\n        /* \"#utility.yul\":29611:29617   */\n      dup5\n        /* \"#utility.yul\":29529:29624   */\n      tag_453\n      jump\t// in\n    tag_765:\n        /* \"#utility.yul\":29522:29624   */\n      swap2\n      pop\n        /* \"#utility.yul\":29641:29644   */\n      dup2\n        /* \"#utility.yul\":29634:29644   */\n      swap1\n      pop\n        /* \"#utility.yul\":29215:29650   */\n      swap4\n      swap3\n      pop\n      pop\n      pop\n      jump\t// out\n        /* \"#utility.yul\":29656:30296   */\n    tag_294:\n        /* \"#utility.yul\":29851:29855   */\n      0x00\n        /* \"#utility.yul\":29889:29892   */\n      0x80\n        /* \"#utility.yul\":29878:29887   */\n      dup3\n        /* \"#utility.yul\":29874:29893   */\n      add\n        /* \"#utility.yul\":29866:29893   */\n      swap1\n      pop\n        /* \"#utility.yul\":29903:29974   */\n      tag_767\n        /* \"#utility.yul\":29971:29972   */\n      0x00\n        /* \"#utility.yul\":29960:29969   */\n      dup4\n        /* \"#utility.yul\":29956:29973   */\n      add\n        /* \"#utility.yul\":29947:29953   */\n      dup8\n        /* \"#utility.yul\":29903:29974   */\n      tag_415\n      jump\t// in\n    tag_767:\n        /* \"#utility.yul\":29984:30056   */\n      tag_768\n        /* \"#utility.yul\":30052:30054   */\n      0x20\n        /* \"#utility.yul\":30041:30050   */\n      dup4\n        /* \"#utility.yul\":30037:30055   */\n      add\n        /* \"#utility.yul\":30028:30034   */\n      dup7\n        /* \"#utility.yul\":29984:30056   */\n      tag_415\n      jump\t// in\n    tag_768:\n        /* \"#utility.yul\":30066:30138   */\n      tag_769\n        /* \"#utility.yul\":30134:30136   */\n      0x40\n        /* \"#utility.yul\":30123:30132   */\n      dup4\n        /* \"#utility.yul\":30119:30137   */\n      add\n        /* \"#utility.yul\":30110:30116   */\n      dup6\n        /* \"#utility.yul\":30066:30138   */\n      tag_423\n      jump\t// in\n    tag_769:\n        /* \"#utility.yul\":30185:30194   */\n      dup2\n        /* \"#utility.yul\":30179:30183   */\n      dup2\n        /* \"#utility.yul\":30175:30195   */\n      sub\n        /* \"#utility.yul\":30170:30172   */\n      0x60\n        /* \"#utility.yul\":30159:30168   */\n      dup4\n        /* \"#utility.yul\":30155:30173   */\n      add\n        /* \"#utility.yul\":30148:30196   */\n      mstore\n        /* \"#utility.yul\":30213:30289   */\n      tag_770\n        /* \"#utility.yul\":30284:30288   */\n      dup2\n        /* \"#utility.yul\":30275:30281   */\n      dup5\n        /* \"#utility.yul\":30213:30289   */\n      tag_448\n      jump\t// in\n    tag_770:\n        /* \"#utility.yul\":30205:30289   */\n      swap1\n      pop\n        /* \"#utility.yul\":29656:30296   */\n      swap6\n      swap5\n      pop\n      pop\n      pop\n      pop\n      pop\n      jump\t// out\n        /* \"#utility.yul\":30302:30443   */\n    tag_454:\n        /* \"#utility.yul\":30358:30363   */\n      0x00\n        /* \"#utility.yul\":30389:30395   */\n      dup2\n        /* \"#utility.yul\":30383:30396   */\n      mload\n        /* \"#utility.yul\":30374:30396   */\n      swap1\n      pop\n        /* \"#utility.yul\":30405:30437   */\n      tag_772\n        /* \"#utility.yul\":30431:30436   */\n      dup2\n        /* \"#utility.yul\":30405:30437   */\n      tag_402\n      jump\t// in\n    tag_772:\n        /* \"#utility.yul\":30302:30443   */\n      swap3\n      swap2\n      pop\n      pop\n      jump\t// out\n        /* \"#utility.yul\":30449:30798   */\n    tag_297:\n        /* \"#utility.yul\":30518:30524   */\n      0x00\n        /* \"#utility.yul\":30567:30569   */\n      0x20\n        /* \"#utility.yul\":30555:30564   */\n      dup3\n        /* \"#utility.yul\":30546:30553   */\n      dup5\n        /* \"#utility.yul\":30542:30565   */\n      sub\n        /* \"#utility.yul\":30538:30570   */\n      slt\n        /* \"#utility.yul\":30535:30654   */\n      iszero\n      tag_774\n      jumpi\n        /* \"#utility.yul\":30573:30652   */\n      tag_775\n      tag_384\n      jump\t// in\n    tag_775:\n        /* \"#utility.yul\":30535:30654   */\n    tag_774:\n        /* \"#utility.yul\":30693:30694   */\n      0x00\n        /* \"#utility.yul\":30718:30781   */\n      tag_776\n        /* \"#utility.yul\":30773:30780   */\n      dup5\n        /* \"#utility.yul\":30764:30770   */\n      dup3\n        /* \"#utility.yul\":30753:30762   */\n      dup6\n        /* \"#utility.yul\":30749:30771   */\n      add\n        /* \"#utility.yul\":30718:30781   */\n      tag_454\n      jump\t// in\n    tag_776:\n        /* \"#utility.yul\":30708:30781   */\n      swap2\n      pop\n        /* \"#utility.yul\":30664:30791   */\n      pop\n        /* \"#utility.yul\":30449:30798   */\n      swap3\n      swap2\n      pop\n      pop\n      jump\t// out\n        /* \"#utility.yul\":30804:30984   */\n    tag_326:\n        /* \"#utility.yul\":30852:30929   */\n      0x4e487b7100000000000000000000000000000000000000000000000000000000\n        /* \"#utility.yul\":30849:30850   */\n      0x00\n        /* \"#utility.yul\":30842:30930   */\n      mstore\n        /* \"#utility.yul\":30949:30953   */\n      0x12\n        /* \"#utility.yul\":30946:30947   */\n      0x04\n        /* \"#utility.yul\":30939:30954   */\n      mstore\n        /* \"#utility.yul\":30973:30977   */\n      0x24\n        /* \"#utility.yul\":30970:30971   */\n      0x00\n        /* \"#utility.yul\":30963:30978   */\n      revert\n\n    auxdata: 0xa264697066735822122003b56bfca614c4c04b507d484893e1b20ad3c95d74fc9f3e736c7b58bcff99df64736f6c63430008140033\n}\n",
				"bytecode": {
					"linkReferences": {},
					"object": "608060405260006007556000600855606460095562055730600a553480156200002757600080fd5b50604051620036d0380380620036d083398181016040528101906200004d919062000328565b6040518060400160405280600c81526020017f4f6d6e69436861696e4e465400000000000000000000000000000000000000008152506040518060400160405280600781526020017f4f4f43434e46540000000000000000000000000000000000000000000000000081525033600073ffffffffffffffffffffffffffffffffffffffff168173ffffffffffffffffffffffffffffffffffffffff16036200012f5760006040517f1e4fbdf700000000000000000000000000000000000000000000000000000000815260040162000126919062000395565b60405180910390fd5b6200014081620001bf60201b60201c565b50816001908162000152919062000622565b50806002908162000164919062000622565b50505082600b60006101000a81548173ffffffffffffffffffffffffffffffffffffffff021916908373ffffffffffffffffffffffffffffffffffffffff160217905550816008819055508060098190555050505062000709565b60008060009054906101000a900473ffffffffffffffffffffffffffffffffffffffff169050816000806101000a81548173ffffffffffffffffffffffffffffffffffffffff021916908373ffffffffffffffffffffffffffffffffffffffff1602179055508173ffffffffffffffffffffffffffffffffffffffff168173ffffffffffffffffffffffffffffffffffffffff167f8be0079c531659141344cd1fd0a4f28419497f9722a3daafe3b4186f6b6457e060405160405180910390a35050565b600080fd5b600073ffffffffffffffffffffffffffffffffffffffff82169050919050565b6000620002b58262000288565b9050919050565b620002c781620002a8565b8114620002d357600080fd5b50565b600081519050620002e781620002bc565b92915050565b6000819050919050565b6200030281620002ed565b81146200030e57600080fd5b50565b6000815190506200032281620002f7565b92915050565b60008060006060848603121562000344576200034362000283565b5b60006200035486828701620002d6565b9350506020620003678682870162000311565b92505060406200037a8682870162000311565b9150509250925092565b6200038f81620002a8565b82525050565b6000602082019050620003ac600083018462000384565b92915050565b600081519050919050565b7f4e487b7100000000000000000000000000000000000000000000000000000000600052604160045260246000fd5b7f4e487b7100000000000000000000000000000000000000000000000000000000600052602260045260246000fd5b600060028204905060018216806200043457607f821691505b6020821081036200044a5762000449620003ec565b5b50919050565b60008190508160005260206000209050919050565b60006020601f8301049050919050565b600082821b905092915050565b600060088302620004b47fffffffffffffffffffffffffffffffffffffffffffffffffffffffffffffffff8262000475565b620004c0868362000475565b95508019841693508086168417925050509392505050565b6000819050919050565b600062000503620004fd620004f784620002ed565b620004d8565b620002ed565b9050919050565b6000819050919050565b6200051f83620004e2565b620005376200052e826200050a565b84845462000482565b825550505050565b600090565b6200054e6200053f565b6200055b81848462000514565b505050565b5b8181101562000583576200057760008262000544565b60018101905062000561565b5050565b601f821115620005d2576200059c8162000450565b620005a78462000465565b81016020851015620005b7578190505b620005cf620005c68562000465565b83018262000560565b50505b505050565b600082821c905092915050565b6000620005f760001984600802620005d7565b1980831691505092915050565b6000620006128383620005e4565b9150826002028217905092915050565b6200062d82620003b2565b67ffffffffffffffff811115620006495762000648620003bd565b5b6200065582546200041b565b6200066282828562000587565b600060209050601f8311600181146200069a576000841562000685578287015190505b62000691858262000604565b86555062000701565b601f198416620006aa8662000450565b60005b82811015620006d457848901518255600182019150602085019450602081019050620006ad565b86831015620006f45784890151620006f0601f891682620005e4565b8355505b6001600288020188555050505b505050505050565b612fb780620007196000396000f3fe6080604052600436106101295760003560e01c80636352211e116100ab578063a22cb4651161006f578063a22cb465146103d1578063b88d4fde146103fa578063baf1639e14610423578063c87b56dd1461043f578063e985e9c51461047c578063f2fde38b146104b957610129565b80636352211e146102ea57806370a0823114610327578063715018a6146103645780638da5cb5b1461037b57806395d89b41146103a657610129565b80631249c58b116100f25780631249c58b1461022557806323b872dd1461022f57806340a7bb101461025857806342842e0e146102965780635e280f11146102bf57610129565b80621d35671461012e57806301ffc9a71461015757806306fdde0314610194578063081812fc146101bf578063095ea7b3146101fc575b600080fd5b34801561013a57600080fd5b50610155600480360381019061015091906120f8565b6104e2565b005b34801561016357600080fd5b5061017e600480360381019061017991906121ef565b6105cc565b60405161018b9190612237565b60405180910390f35b3480156101a057600080fd5b506101a96106ae565b6040516101b691906122d1565b60405180910390f35b3480156101cb57600080fd5b506101e660048036038101906101e19190612329565b610740565b6040516101f39190612397565b60405180910390f35b34801561020857600080fd5b50610223600480360381019061021e91906123de565b61075c565b005b61022d610772565b005b34801561023b57600080fd5b506102566004803603810190610251919061241e565b610807565b005b34801561026457600080fd5b5061027f600480360381019061027a91906124fd565b610909565b60405161028d9291906125c8565b60405180910390f35b3480156102a257600080fd5b506102bd60048036038101906102b8919061241e565b6109c3565b005b3480156102cb57600080fd5b506102d46109e3565b6040516102e19190612650565b60405180910390f35b3480156102f657600080fd5b50610311600480360381019061030c9190612329565b610a09565b60405161031e9190612397565b60405180910390f35b34801561033357600080fd5b5061034e6004803603810190610349919061266b565b610a1b565b60405161035b9190612698565b60405180910390f35b34801561037057600080fd5b50610379610ad5565b005b34801561038757600080fd5b50610390610ae9565b60405161039d9190612397565b60405180910390f35b3480156103b257600080fd5b506103bb610b12565b6040516103c891906122d1565b60405180910390f35b3480156103dd57600080fd5b506103f860048036038101906103f391906126b3565b610ba4565b005b34801561040657600080fd5b50610421600480360381019061041c91906126f3565b610bba565b005b61043d60048036038101906104389190612776565b610bd7565b005b34801561044b57600080fd5b5061046660048036038101906104619190612329565b610e55565b60405161047391906122d1565b60405180910390f35b34801561048857600080fd5b506104a3600480360381019061049e91906127ea565b610ebe565b6040516104b09190612237565b60405180910390f35b3480156104c557600080fd5b506104e060048036038101906104db919061266b565b610f52565b005b600b60009054906101000a900473ffffffffffffffffffffffffffffffffffffffff1673ffffffffffffffffffffffffffffffffffffffff163373ffffffffffffffffffffffffffffffffffffffff161461053c57600080fd5b6000601484015190506000808380602001905181019061055c919061287d565b9150915061056a8282610fd8565b60016007600082825461057d91906128ec565b925050819055507fec16668a9529c4fc256054f3e18620ef50c89aec357376cce821207ff1e656f08783836007546040516105bb949392919061292f565b60405180910390a150505050505050565b60007f80ac58cd000000000000000000000000000000000000000000000000000000007bffffffffffffffffffffffffffffffffffffffffffffffffffffffff1916827bffffffffffffffffffffffffffffffffffffffffffffffffffffffff1916148061069757507f5b5e139f000000000000000000000000000000000000000000000000000000007bffffffffffffffffffffffffffffffffffffffffffffffffffffffff1916827bffffffffffffffffffffffffffffffffffffffffffffffffffffffff1916145b806106a757506106a682610ff6565b5b9050919050565b6060600180546106bd906129a3565b80601f01602080910402602001604051908101604052809291908181526020018280546106e9906129a3565b80156107365780601f1061070b57610100808354040283529160200191610736565b820191906000526020600020905b81548152906001019060200180831161071957829003601f168201915b5050505050905090565b600061074b82611060565b50610755826110e8565b9050919050565b61076e8282610769611125565b61112d565b5050565b600954600160085461078491906128ec565b11156107c5576040517f08c379a00000000000000000000000000000000000000000000000000000000081526004016107bc90612a20565b60405180910390fd5b6001600860008282546107d891906128ec565b925050819055506107eb33600854610fd8565b6001600760008282546107fe91906128ec565b92505081905550565b600073ffffffffffffffffffffffffffffffffffffffff168273ffffffffffffffffffffffffffffffffffffffff16036108795760006040517f64a0ae920000000000000000000000000000000000000000000000000000000081526004016108709190612397565b60405180910390fd5b600061088d8383610888611125565b61113f565b90508373ffffffffffffffffffffffffffffffffffffffff168173ffffffffffffffffffffffffffffffffffffffff1614610903578382826040517f64283d7b0000000000000000000000000000000000000000000000000000000081526004016108fa93929190612a40565b60405180910390fd5b50505050565b600080600b60009054906101000a900473ffffffffffffffffffffffffffffffffffffffff1673ffffffffffffffffffffffffffffffffffffffff166340a7bb108a8a8a8a8a8a8a6040518863ffffffff1660e01b81526004016109739796959493929190612ab5565b6040805180830381865afa15801561098f573d6000803e3d6000fd5b505050506040513d601f19601f820116820180604052508101906109b39190612b1a565b9150915097509795505050505050565b6109de83838360405180602001604052806000815250610bba565b505050565b600b60009054906101000a900473ffffffffffffffffffffffffffffffffffffffff1681565b6000610a1482611060565b9050919050565b60008073ffffffffffffffffffffffffffffffffffffffff168273ffffffffffffffffffffffffffffffffffffffff1603610a8e5760006040517f89c62b64000000000000000000000000000000000000000000000000000000008152600401610a859190612397565b60405180910390fd5b600460008373ffffffffffffffffffffffffffffffffffffffff1673ffffffffffffffffffffffffffffffffffffffff168152602001908152602001600020549050919050565b610add611359565b610ae760006113e0565b565b60008060009054906101000a900473ffffffffffffffffffffffffffffffffffffffff16905090565b606060028054610b21906129a3565b80601f0160208091040260200160405190810160405280929190818152602001828054610b4d906129a3565b8015610b9a5780601f10610b6f57610100808354040283529160200191610b9a565b820191906000526020600020905b815481529060010190602001808311610b7d57829003601f168201915b5050505050905090565b610bb6610baf611125565b83836114a4565b5050565b610bc5848484610807565b610bd184848484611613565b50505050565b610be081610a09565b73ffffffffffffffffffffffffffffffffffffffff163373ffffffffffffffffffffffffffffffffffffffff1614610c4d576040517f08c379a0000000000000000000000000000000000000000000000000000000008152600401610c4490612ba6565b60405180910390fd5b610c56816117ca565b600160076000828254610c699190612bc6565b9250508190555060003382604051602001610c85929190612bfa565b6040516020818303038152906040529050600060019050600081600a54604051602001610cb3929190612c7a565b60405160208183030381529060405290506000600b60009054906101000a900473ffffffffffffffffffffffffffffffffffffffff1673ffffffffffffffffffffffffffffffffffffffff166340a7bb108930876000876040518663ffffffff1660e01b8152600401610d2a959493929190612cea565b6040805180830381865afa158015610d46573d6000803e3d6000fd5b505050506040513d601f19601f82011682018060405250810190610d6a9190612b1a565b50905080341015610db0576040517f08c379a0000000000000000000000000000000000000000000000000000000008152600401610da790612dbd565b60405180910390fd5b600b60009054906101000a900473ffffffffffffffffffffffffffffffffffffffff1673ffffffffffffffffffffffffffffffffffffffff1663c5803100348a8a8a893360008a6040518963ffffffff1660e01b8152600401610e199796959493929190612dec565b6000604051808303818588803b158015610e3257600080fd5b505af1158015610e46573d6000803e3d6000fd5b50505050505050505050505050565b6060610e6082611060565b506000610e6b611850565b90506000815111610e8b5760405180602001604052806000815250610eb6565b80610e9584611867565b604051602001610ea6929190612ea0565b6040516020818303038152906040525b915050919050565b6000600660008473ffffffffffffffffffffffffffffffffffffffff1673ffffffffffffffffffffffffffffffffffffffff16815260200190815260200160002060008373ffffffffffffffffffffffffffffffffffffffff1673ffffffffffffffffffffffffffffffffffffffff16815260200190815260200160002060009054906101000a900460ff16905092915050565b610f5a611359565b600073ffffffffffffffffffffffffffffffffffffffff168173ffffffffffffffffffffffffffffffffffffffff1603610fcc5760006040517f1e4fbdf7000000000000000000000000000000000000000000000000000000008152600401610fc39190612397565b60405180910390fd5b610fd5816113e0565b50565b610ff2828260405180602001604052806000815250611935565b5050565b60007f01ffc9a7000000000000000000000000000000000000000000000000000000007bffffffffffffffffffffffffffffffffffffffffffffffffffffffff1916827bffffffffffffffffffffffffffffffffffffffffffffffffffffffff1916149050919050565b60008061106c83611951565b9050600073ffffffffffffffffffffffffffffffffffffffff168173ffffffffffffffffffffffffffffffffffffffff16036110df57826040517f7e2732890000000000000000000000000000000000000000000000000000000081526004016110d69190612698565b60405180910390fd5b80915050919050565b60006005600083815260200190815260200160002060009054906101000a900473ffffffffffffffffffffffffffffffffffffffff169050919050565b600033905090565b61113a838383600161198e565b505050565b60008061114b84611951565b9050600073ffffffffffffffffffffffffffffffffffffffff168373ffffffffffffffffffffffffffffffffffffffff161461118d5761118c818486611b53565b5b600073ffffffffffffffffffffffffffffffffffffffff168173ffffffffffffffffffffffffffffffffffffffff161461121e576111cf60008560008061198e565b6001600460008373ffffffffffffffffffffffffffffffffffffffff1673ffffffffffffffffffffffffffffffffffffffff168152602001908152602001600020600082825403925050819055505b600073ffffffffffffffffffffffffffffffffffffffff168573ffffffffffffffffffffffffffffffffffffffff16146112a1576001600460008773ffffffffffffffffffffffffffffffffffffffff1673ffffffffffffffffffffffffffffffffffffffff168152602001908152602001600020600082825401925050819055505b846003600086815260200190815260200160002060006101000a81548173ffffffffffffffffffffffffffffffffffffffff021916908373ffffffffffffffffffffffffffffffffffffffff160217905550838573ffffffffffffffffffffffffffffffffffffffff168273ffffffffffffffffffffffffffffffffffffffff167fddf252ad1be2c89b69c2b068fc378daa952ba7f163c4a11628f55a4df523b3ef60405160405180910390a4809150509392505050565b611361611125565b73ffffffffffffffffffffffffffffffffffffffff1661137f610ae9565b73ffffffffffffffffffffffffffffffffffffffff16146113de576113a2611125565b6040517f118cdaa70000000000000000000000000000000000000000000000000000000081526004016113d59190612397565b60405180910390fd5b565b60008060009054906101000a900473ffffffffffffffffffffffffffffffffffffffff169050816000806101000a81548173ffffffffffffffffffffffffffffffffffffffff021916908373ffffffffffffffffffffffffffffffffffffffff1602179055508173ffffffffffffffffffffffffffffffffffffffff168173ffffffffffffffffffffffffffffffffffffffff167f8be0079c531659141344cd1fd0a4f28419497f9722a3daafe3b4186f6b6457e060405160405180910390a35050565b600073ffffffffffffffffffffffffffffffffffffffff168273ffffffffffffffffffffffffffffffffffffffff160361151557816040517f5b08ba1800000000000000000000000000000000000000000000000000000000815260040161150c9190612397565b60405180910390fd5b80600660008573ffffffffffffffffffffffffffffffffffffffff1673ffffffffffffffffffffffffffffffffffffffff16815260200190815260200160002060008473ffffffffffffffffffffffffffffffffffffffff1673ffffffffffffffffffffffffffffffffffffffff16815260200190815260200160002060006101000a81548160ff0219169083151502179055508173ffffffffffffffffffffffffffffffffffffffff168373ffffffffffffffffffffffffffffffffffffffff167f17307eab39ab6107e8899845ad3d59bd9653f200f220920489ca2b5937696c31836040516116069190612237565b60405180910390a3505050565b60008373ffffffffffffffffffffffffffffffffffffffff163b11156117c4578273ffffffffffffffffffffffffffffffffffffffff1663150b7a02611657611125565b8685856040518563ffffffff1660e01b81526004016116799493929190612ec4565b6020604051808303816000875af19250505080156116b557506040513d601f19601f820116820180604052508101906116b29190612f25565b60015b611739573d80600081146116e5576040519150601f19603f3d011682016040523d82523d6000602084013e6116ea565b606091505b50600081510361173157836040517f64a0ae920000000000000000000000000000000000000000000000000000000081526004016117289190612397565b60405180910390fd5b805181602001fd5b63150b7a0260e01b7bffffffffffffffffffffffffffffffffffffffffffffffffffffffff1916817bffffffffffffffffffffffffffffffffffffffffffffffffffffffff1916146117c257836040517f64a0ae920000000000000000000000000000000000000000000000000000000081526004016117b99190612397565b60405180910390fd5b505b50505050565b60006117d9600083600061113f565b9050600073ffffffffffffffffffffffffffffffffffffffff168173ffffffffffffffffffffffffffffffffffffffff160361184c57816040517f7e2732890000000000000000000000000000000000000000000000000000000081526004016118439190612698565b60405180910390fd5b5050565b606060405180602001604052806000815250905090565b60606000600161187684611c17565b01905060008167ffffffffffffffff81111561189557611894611f8d565b5b6040519080825280601f01601f1916602001820160405280156118c75781602001600182028036833780820191505090505b509050600082602001820190505b60011561192a578080600190039150507f3031323334353637383961626364656600000000000000000000000000000000600a86061a8153600a858161191e5761191d612f52565b5b049450600085036118d5575b819350505050919050565b61193f8383611d6a565b61194c6000848484611613565b505050565b60006003600083815260200190815260200160002060009054906101000a900473ffffffffffffffffffffffffffffffffffffffff169050919050565b80806119c75750600073ffffffffffffffffffffffffffffffffffffffff168273ffffffffffffffffffffffffffffffffffffffff1614155b15611afb5760006119d784611060565b9050600073ffffffffffffffffffffffffffffffffffffffff168373ffffffffffffffffffffffffffffffffffffffff1614158015611a4257508273ffffffffffffffffffffffffffffffffffffffff168173ffffffffffffffffffffffffffffffffffffffff1614155b8015611a555750611a538184610ebe565b155b15611a9757826040517fa9fbf51f000000000000000000000000000000000000000000000000000000008152600401611a8e9190612397565b60405180910390fd5b8115611af957838573ffffffffffffffffffffffffffffffffffffffff168273ffffffffffffffffffffffffffffffffffffffff167f8c5be1e5ebec7d5bd14f71427d1e84f3dd0314c0f7b2291e5b200ac8c7c3b92560405160405180910390a45b505b836005600085815260200190815260200160002060006101000a81548173ffffffffffffffffffffffffffffffffffffffff021916908373ffffffffffffffffffffffffffffffffffffffff16021790555050505050565b611b5e838383611e63565b611c1257600073ffffffffffffffffffffffffffffffffffffffff168373ffffffffffffffffffffffffffffffffffffffff1603611bd357806040517f7e273289000000000000000000000000000000000000000000000000000000008152600401611bca9190612698565b60405180910390fd5b81816040517f177e802f000000000000000000000000000000000000000000000000000000008152600401611c09929190612bfa565b60405180910390fd5b505050565b600080600090507a184f03e93ff9f4daa797ed6e38ed64bf6a1f0100000000000000008310611c75577a184f03e93ff9f4daa797ed6e38ed64bf6a1f0100000000000000008381611c6b57611c6a612f52565b5b0492506040810190505b6d04ee2d6d415b85acef81000000008310611cb2576d04ee2d6d415b85acef81000000008381611ca857611ca7612f52565b5b0492506020810190505b662386f26fc100008310611ce157662386f26fc100008381611cd757611cd6612f52565b5b0492506010810190505b6305f5e1008310611d0a576305f5e1008381611d0057611cff612f52565b5b0492506008810190505b6127108310611d2f576127108381611d2557611d24612f52565b5b0492506004810190505b60648310611d525760648381611d4857611d47612f52565b5b0492506002810190505b600a8310611d61576001810190505b80915050919050565b600073ffffffffffffffffffffffffffffffffffffffff168273ffffffffffffffffffffffffffffffffffffffff1603611ddc5760006040517f64a0ae92000000000000000000000000000000000000000000000000000000008152600401611dd39190612397565b60405180910390fd5b6000611dea8383600061113f565b9050600073ffffffffffffffffffffffffffffffffffffffff168173ffffffffffffffffffffffffffffffffffffffff1614611e5e5760006040517f73c6ac6e000000000000000000000000000000000000000000000000000000008152600401611e559190612397565b60405180910390fd5b505050565b60008073ffffffffffffffffffffffffffffffffffffffff168373ffffffffffffffffffffffffffffffffffffffff1614158015611f1b57508273ffffffffffffffffffffffffffffffffffffffff168473ffffffffffffffffffffffffffffffffffffffff161480611edc5750611edb8484610ebe565b5b80611f1a57508273ffffffffffffffffffffffffffffffffffffffff16611f02836110e8565b73ffffffffffffffffffffffffffffffffffffffff16145b5b90509392505050565b6000604051905090565b600080fd5b600080fd5b600061ffff82169050919050565b611f4f81611f38565b8114611f5a57600080fd5b50565b600081359050611f6c81611f46565b92915050565b600080fd5b600080fd5b6000601f19601f8301169050919050565b7f4e487b7100000000000000000000000000000000000000000000000000000000600052604160045260246000fd5b611fc582611f7c565b810181811067ffffffffffffffff82111715611fe457611fe3611f8d565b5b80604052505050565b6000611ff7611f24565b90506120038282611fbc565b919050565b600067ffffffffffffffff82111561202357612022611f8d565b5b61202c82611f7c565b9050602081019050919050565b82818337600083830152505050565b600061205b61205684612008565b611fed565b90508281526020810184848401111561207757612076611f77565b5b612082848285612039565b509392505050565b600082601f83011261209f5761209e611f72565b5b81356120af848260208601612048565b91505092915050565b600067ffffffffffffffff82169050919050565b6120d5816120b8565b81146120e057600080fd5b50565b6000813590506120f2816120cc565b92915050565b6000806000806080858703121561211257612111611f2e565b5b600061212087828801611f5d565b945050602085013567ffffffffffffffff81111561214157612140611f33565b5b61214d8782880161208a565b935050604061215e878288016120e3565b925050606085013567ffffffffffffffff81111561217f5761217e611f33565b5b61218b8782880161208a565b91505092959194509250565b60007fffffffff0000000000000000000000000000000000000000000000000000000082169050919050565b6121cc81612197565b81146121d757600080fd5b50565b6000813590506121e9816121c3565b92915050565b60006020828403121561220557612204611f2e565b5b6000612213848285016121da565b91505092915050565b60008115159050919050565b6122318161221c565b82525050565b600060208201905061224c6000830184612228565b92915050565b600081519050919050565b600082825260208201905092915050565b60005b8381101561228c578082015181840152602081019050612271565b60008484015250505050565b60006122a382612252565b6122ad818561225d565b93506122bd81856020860161226e565b6122c681611f7c565b840191505092915050565b600060208201905081810360008301526122eb8184612298565b905092915050565b6000819050919050565b612306816122f3565b811461231157600080fd5b50565b600081359050612323816122fd565b92915050565b60006020828403121561233f5761233e611f2e565b5b600061234d84828501612314565b91505092915050565b600073ffffffffffffffffffffffffffffffffffffffff82169050919050565b600061238182612356565b9050919050565b61239181612376565b82525050565b60006020820190506123ac6000830184612388565b92915050565b6123bb81612376565b81146123c657600080fd5b50565b6000813590506123d8816123b2565b92915050565b600080604083850312156123f5576123f4611f2e565b5b6000612403858286016123c9565b925050602061241485828601612314565b9150509250929050565b60008060006060848603121561243757612436611f2e565b5b6000612445868287016123c9565b9350506020612456868287016123c9565b925050604061246786828701612314565b9150509250925092565b600080fd5b600080fd5b60008083601f84011261249157612490611f72565b5b8235905067ffffffffffffffff8111156124ae576124ad612471565b5b6020830191508360018202830111156124ca576124c9612476565b5b9250929050565b6124da8161221c565b81146124e557600080fd5b50565b6000813590506124f7816124d1565b92915050565b600080600080600080600060a0888a03121561251c5761251b611f2e565b5b600061252a8a828b01611f5d565b975050602061253b8a828b016123c9565b965050604088013567ffffffffffffffff81111561255c5761255b611f33565b5b6125688a828b0161247b565b9550955050606061257b8a828b016124e8565b935050608088013567ffffffffffffffff81111561259c5761259b611f33565b5b6125a88a828b0161247b565b925092505092959891949750929550565b6125c2816122f3565b82525050565b60006040820190506125dd60008301856125b9565b6125ea60208301846125b9565b9392505050565b6000819050919050565b600061261661261161260c84612356565b6125f1565b612356565b9050919050565b6000612628826125fb565b9050919050565b600061263a8261261d565b9050919050565b61264a8161262f565b82525050565b60006020820190506126656000830184612641565b92915050565b60006020828403121561268157612680611f2e565b5b600061268f848285016123c9565b91505092915050565b60006020820190506126ad60008301846125b9565b92915050565b600080604083850312156126ca576126c9611f2e565b5b60006126d8858286016123c9565b92505060206126e9858286016124e8565b9150509250929050565b6000806000806080858703121561270d5761270c611f2e565b5b600061271b878288016123c9565b945050602061272c878288016123c9565b935050604061273d87828801612314565b925050606085013567ffffffffffffffff81111561275e5761275d611f33565b5b61276a8782880161208a565b91505092959194509250565b600080600080606085870312156127905761278f611f2e565b5b600061279e87828801611f5d565b945050602085013567ffffffffffffffff8111156127bf576127be611f33565b5b6127cb8782880161247b565b935093505060406127de87828801612314565b91505092959194509250565b6000806040838503121561280157612800611f2e565b5b600061280f858286016123c9565b9250506020612820858286016123c9565b9150509250929050565b600061283582612356565b9050919050565b6128458161282a565b811461285057600080fd5b50565b6000815190506128628161283c565b92915050565b600081519050612877816122fd565b92915050565b6000806040838503121561289457612893611f2e565b5b60006128a285828601612853565b92505060206128b385828601612868565b9150509250929050565b7f4e487b7100000000000000000000000000000000000000000000000000000000600052601160045260246000fd5b60006128f7826122f3565b9150612902836122f3565b925082820190508082111561291a576129196128bd565b5b92915050565b61292981611f38565b82525050565b60006080820190506129446000830187612920565b6129516020830186612388565b61295e60408301856125b9565b61296b60608301846125b9565b95945050505050565b7f4e487b7100000000000000000000000000000000000000000000000000000000600052602260045260246000fd5b600060028204905060018216806129bb57607f821691505b6020821081036129ce576129cd612974565b5b50919050565b7f4578636565647320737570706c79000000000000000000000000000000000000600082015250565b6000612a0a600e8361225d565b9150612a15826129d4565b602082019050919050565b60006020820190508181036000830152612a39816129fd565b9050919050565b6000606082019050612a556000830186612388565b612a6260208301856125b9565b612a6f6040830184612388565b949350505050565b600082825260208201905092915050565b6000612a948385612a77565b9350612aa1838584612039565b612aaa83611f7c565b840190509392505050565b600060a082019050612aca600083018a612920565b612ad76020830189612388565b8181036040830152612aea818789612a88565b9050612af96060830186612228565b8181036080830152612b0c818486612a88565b905098975050505050505050565b60008060408385031215612b3157612b30611f2e565b5b6000612b3f85828601612868565b9250506020612b5085828601612868565b9150509250929050565b7f4e6f7420746865206f776e657200000000000000000000000000000000000000600082015250565b6000612b90600d8361225d565b9150612b9b82612b5a565b602082019050919050565b60006020820190508181036000830152612bbf81612b83565b9050919050565b6000612bd1826122f3565b9150612bdc836122f3565b9250828203905081811115612bf457612bf36128bd565b5b92915050565b6000604082019050612c0f6000830185612388565b612c1c60208301846125b9565b9392505050565b60008160f01b9050919050565b6000612c3b82612c23565b9050919050565b612c53612c4e82611f38565b612c30565b82525050565b6000819050919050565b612c74612c6f826122f3565b612c59565b82525050565b6000612c868285612c42565b600282019150612c968284612c63565b6020820191508190509392505050565b600081519050919050565b6000612cbc82612ca6565b612cc68185612a77565b9350612cd681856020860161226e565b612cdf81611f7c565b840191505092915050565b600060a082019050612cff6000830188612920565b612d0c6020830187612388565b8181036040830152612d1e8186612cb1565b9050612d2d6060830185612228565b8181036080830152612d3f8184612cb1565b90509695505050505050565b7f4d7573742073656e6420656e6f7567682076616c756520746f20636f7665722060008201527f6d65737361676546656500000000000000000000000000000000000000000000602082015250565b6000612da7602a8361225d565b9150612db282612d4b565b604082019050919050565b60006020820190508181036000830152612dd681612d9a565b9050919050565b612de68161282a565b82525050565b600060c082019050612e01600083018a612920565b8181036020830152612e1481888a612a88565b90508181036040830152612e288187612cb1565b9050612e376060830186612ddd565b612e446080830185612388565b81810360a0830152612e568184612cb1565b905098975050505050505050565b600081905092915050565b6000612e7a82612252565b612e848185612e64565b9350612e9481856020860161226e565b80840191505092915050565b6000612eac8285612e6f565b9150612eb88284612e6f565b91508190509392505050565b6000608082019050612ed96000830187612388565b612ee66020830186612388565b612ef360408301856125b9565b8181036060830152612f058184612cb1565b905095945050505050565b600081519050612f1f816121c3565b92915050565b600060208284031215612f3b57612f3a611f2e565b5b6000612f4984828501612f10565b91505092915050565b7f4e487b7100000000000000000000000000000000000000000000000000000000600052601260045260246000fdfea264697066735822122003b56bfca614c4c04b507d484893e1b20ad3c95d74fc9f3e736c7b58bcff99df64736f6c63430008140033",
					"opcodes": "PUSH1 0x80 PUSH1 0x40 MSTORE PUSH1 0x0 PUSH1 0x7 SSTORE PUSH1 0x0 PUSH1 0x8 SSTORE PUSH1 0x64 PUSH1 0x9 SSTORE PUSH3 0x55730 PUSH1 0xA SSTORE CALLVALUE DUP1 ISZERO PUSH3 0x27 JUMPI PUSH1 0x0 DUP1 REVERT JUMPDEST POP PUSH1 0x40 MLOAD PUSH3 0x36D0 CODESIZE SUB DUP1 PUSH3 0x36D0 DUP4 CODECOPY DUP2 DUP2 ADD PUSH1 0x40 MSTORE DUP2 ADD SWAP1 PUSH3 0x4D SWAP2 SWAP1 PUSH3 0x328 JUMP JUMPDEST PUSH1 0x40 MLOAD DUP1 PUSH1 0x40 ADD PUSH1 0x40 MSTORE DUP1 PUSH1 0xC DUP2 MSTORE PUSH1 0x20 ADD PUSH32 0x4F6D6E69436861696E4E46540000000000000000000000000000000000000000 DUP2 MSTORE POP PUSH1 0x40 MLOAD DUP1 PUSH1 0x40 ADD PUSH1 0x40 MSTORE DUP1 PUSH1 0x7 DUP2 MSTORE PUSH1 0x20 ADD PUSH32 0x4F4F43434E465400000000000000000000000000000000000000000000000000 DUP2 MSTORE POP CALLER PUSH1 0x0 PUSH20 0xFFFFFFFFFFFFFFFFFFFFFFFFFFFFFFFFFFFFFFFF AND DUP2 PUSH20 0xFFFFFFFFFFFFFFFFFFFFFFFFFFFFFFFFFFFFFFFF AND SUB PUSH3 0x12F JUMPI PUSH1 0x0 PUSH1 0x40 MLOAD PUSH32 0x1E4FBDF700000000000000000000000000000000000000000000000000000000 DUP2 MSTORE PUSH1 0x4 ADD PUSH3 0x126 SWAP2 SWAP1 PUSH3 0x395 JUMP JUMPDEST PUSH1 0x40 MLOAD DUP1 SWAP2 SUB SWAP1 REVERT JUMPDEST PUSH3 0x140 DUP2 PUSH3 0x1BF PUSH1 0x20 SHL PUSH1 0x20 SHR JUMP JUMPDEST POP DUP2 PUSH1 0x1 SWAP1 DUP2 PUSH3 0x152 SWAP2 SWAP1 PUSH3 0x622 JUMP JUMPDEST POP DUP1 PUSH1 0x2 SWAP1 DUP2 PUSH3 0x164 SWAP2 SWAP1 PUSH3 0x622 JUMP JUMPDEST POP POP POP DUP3 PUSH1 0xB PUSH1 0x0 PUSH2 0x100 EXP DUP2 SLOAD DUP2 PUSH20 0xFFFFFFFFFFFFFFFFFFFFFFFFFFFFFFFFFFFFFFFF MUL NOT AND SWAP1 DUP4 PUSH20 0xFFFFFFFFFFFFFFFFFFFFFFFFFFFFFFFFFFFFFFFF AND MUL OR SWAP1 SSTORE POP DUP2 PUSH1 0x8 DUP2 SWAP1 SSTORE POP DUP1 PUSH1 0x9 DUP2 SWAP1 SSTORE POP POP POP POP PUSH3 0x709 JUMP JUMPDEST PUSH1 0x0 DUP1 PUSH1 0x0 SWAP1 SLOAD SWAP1 PUSH2 0x100 EXP SWAP1 DIV PUSH20 0xFFFFFFFFFFFFFFFFFFFFFFFFFFFFFFFFFFFFFFFF AND SWAP1 POP DUP2 PUSH1 0x0 DUP1 PUSH2 0x100 EXP DUP2 SLOAD DUP2 PUSH20 0xFFFFFFFFFFFFFFFFFFFFFFFFFFFFFFFFFFFFFFFF MUL NOT AND SWAP1 DUP4 PUSH20 0xFFFFFFFFFFFFFFFFFFFFFFFFFFFFFFFFFFFFFFFF AND MUL OR SWAP1 SSTORE POP DUP2 PUSH20 0xFFFFFFFFFFFFFFFFFFFFFFFFFFFFFFFFFFFFFFFF AND DUP2 PUSH20 0xFFFFFFFFFFFFFFFFFFFFFFFFFFFFFFFFFFFFFFFF AND PUSH32 0x8BE0079C531659141344CD1FD0A4F28419497F9722A3DAAFE3B4186F6B6457E0 PUSH1 0x40 MLOAD PUSH1 0x40 MLOAD DUP1 SWAP2 SUB SWAP1 LOG3 POP POP JUMP JUMPDEST PUSH1 0x0 DUP1 REVERT JUMPDEST PUSH1 0x0 PUSH20 0xFFFFFFFFFFFFFFFFFFFFFFFFFFFFFFFFFFFFFFFF DUP3 AND SWAP1 POP SWAP2 SWAP1 POP JUMP JUMPDEST PUSH1 0x0 PUSH3 0x2B5 DUP3 PUSH3 0x288 JUMP JUMPDEST SWAP1 POP SWAP2 SWAP1 POP JUMP JUMPDEST PUSH3 0x2C7 DUP2 PUSH3 0x2A8 JUMP JUMPDEST DUP2 EQ PUSH3 0x2D3 JUMPI PUSH1 0x0 DUP1 REVERT JUMPDEST POP JUMP JUMPDEST PUSH1 0x0 DUP2 MLOAD SWAP1 POP PUSH3 0x2E7 DUP2 PUSH3 0x2BC JUMP JUMPDEST SWAP3 SWAP2 POP POP JUMP JUMPDEST PUSH1 0x0 DUP2 SWAP1 POP SWAP2 SWAP1 POP JUMP JUMPDEST PUSH3 0x302 DUP2 PUSH3 0x2ED JUMP JUMPDEST DUP2 EQ PUSH3 0x30E JUMPI PUSH1 0x0 DUP1 REVERT JUMPDEST POP JUMP JUMPDEST PUSH1 0x0 DUP2 MLOAD SWAP1 POP PUSH3 0x322 DUP2 PUSH3 0x2F7 JUMP JUMPDEST SWAP3 SWAP2 POP POP JUMP JUMPDEST PUSH1 0x0 DUP1 PUSH1 0x0 PUSH1 0x60 DUP5 DUP7 SUB SLT ISZERO PUSH3 0x344 JUMPI PUSH3 0x343 PUSH3 0x283 JUMP JUMPDEST JUMPDEST PUSH1 0x0 PUSH3 0x354 DUP7 DUP3 DUP8 ADD PUSH3 0x2D6 JUMP JUMPDEST SWAP4 POP POP PUSH1 0x20 PUSH3 0x367 DUP7 DUP3 DUP8 ADD PUSH3 0x311 JUMP JUMPDEST SWAP3 POP POP PUSH1 0x40 PUSH3 0x37A DUP7 DUP3 DUP8 ADD PUSH3 0x311 JUMP JUMPDEST SWAP2 POP POP SWAP3 POP SWAP3 POP SWAP3 JUMP JUMPDEST PUSH3 0x38F DUP2 PUSH3 0x2A8 JUMP JUMPDEST DUP3 MSTORE POP POP JUMP JUMPDEST PUSH1 0x0 PUSH1 0x20 DUP3 ADD SWAP1 POP PUSH3 0x3AC PUSH1 0x0 DUP4 ADD DUP5 PUSH3 0x384 JUMP JUMPDEST SWAP3 SWAP2 POP POP JUMP JUMPDEST PUSH1 0x0 DUP2 MLOAD SWAP1 POP SWAP2 SWAP1 POP JUMP JUMPDEST PUSH32 0x4E487B7100000000000000000000000000000000000000000000000000000000 PUSH1 0x0 MSTORE PUSH1 0x41 PUSH1 0x4 MSTORE PUSH1 0x24 PUSH1 0x0 REVERT JUMPDEST PUSH32 0x4E487B7100000000000000000000000000000000000000000000000000000000 PUSH1 0x0 MSTORE PUSH1 0x22 PUSH1 0x4 MSTORE PUSH1 0x24 PUSH1 0x0 REVERT JUMPDEST PUSH1 0x0 PUSH1 0x2 DUP3 DIV SWAP1 POP PUSH1 0x1 DUP3 AND DUP1 PUSH3 0x434 JUMPI PUSH1 0x7F DUP3 AND SWAP2 POP JUMPDEST PUSH1 0x20 DUP3 LT DUP2 SUB PUSH3 0x44A JUMPI PUSH3 0x449 PUSH3 0x3EC JUMP JUMPDEST JUMPDEST POP SWAP2 SWAP1 POP JUMP JUMPDEST PUSH1 0x0 DUP2 SWAP1 POP DUP2 PUSH1 0x0 MSTORE PUSH1 0x20 PUSH1 0x0 KECCAK256 SWAP1 POP SWAP2 SWAP1 POP JUMP JUMPDEST PUSH1 0x0 PUSH1 0x20 PUSH1 0x1F DUP4 ADD DIV SWAP1 POP SWAP2 SWAP1 POP JUMP JUMPDEST PUSH1 0x0 DUP3 DUP3 SHL SWAP1 POP SWAP3 SWAP2 POP POP JUMP JUMPDEST PUSH1 0x0 PUSH1 0x8 DUP4 MUL PUSH3 0x4B4 PUSH32 0xFFFFFFFFFFFFFFFFFFFFFFFFFFFFFFFFFFFFFFFFFFFFFFFFFFFFFFFFFFFFFFFF DUP3 PUSH3 0x475 JUMP JUMPDEST PUSH3 0x4C0 DUP7 DUP4 PUSH3 0x475 JUMP JUMPDEST SWAP6 POP DUP1 NOT DUP5 AND SWAP4 POP DUP1 DUP7 AND DUP5 OR SWAP3 POP POP POP SWAP4 SWAP3 POP POP POP JUMP JUMPDEST PUSH1 0x0 DUP2 SWAP1 POP SWAP2 SWAP1 POP JUMP JUMPDEST PUSH1 0x0 PUSH3 0x503 PUSH3 0x4FD PUSH3 0x4F7 DUP5 PUSH3 0x2ED JUMP JUMPDEST PUSH3 0x4D8 JUMP JUMPDEST PUSH3 0x2ED JUMP JUMPDEST SWAP1 POP SWAP2 SWAP1 POP JUMP JUMPDEST PUSH1 0x0 DUP2 SWAP1 POP SWAP2 SWAP1 POP JUMP JUMPDEST PUSH3 0x51F DUP4 PUSH3 0x4E2 JUMP JUMPDEST PUSH3 0x537 PUSH3 0x52E DUP3 PUSH3 0x50A JUMP JUMPDEST DUP5 DUP5 SLOAD PUSH3 0x482 JUMP JUMPDEST DUP3 SSTORE POP POP POP POP JUMP JUMPDEST PUSH1 0x0 SWAP1 JUMP JUMPDEST PUSH3 0x54E PUSH3 0x53F JUMP JUMPDEST PUSH3 0x55B DUP2 DUP5 DUP5 PUSH3 0x514 JUMP JUMPDEST POP POP POP JUMP JUMPDEST JUMPDEST DUP2 DUP2 LT ISZERO PUSH3 0x583 JUMPI PUSH3 0x577 PUSH1 0x0 DUP3 PUSH3 0x544 JUMP JUMPDEST PUSH1 0x1 DUP2 ADD SWAP1 POP PUSH3 0x561 JUMP JUMPDEST POP POP JUMP JUMPDEST PUSH1 0x1F DUP3 GT ISZERO PUSH3 0x5D2 JUMPI PUSH3 0x59C DUP2 PUSH3 0x450 JUMP JUMPDEST PUSH3 0x5A7 DUP5 PUSH3 0x465 JUMP JUMPDEST DUP2 ADD PUSH1 0x20 DUP6 LT ISZERO PUSH3 0x5B7 JUMPI DUP2 SWAP1 POP JUMPDEST PUSH3 0x5CF PUSH3 0x5C6 DUP6 PUSH3 0x465 JUMP JUMPDEST DUP4 ADD DUP3 PUSH3 0x560 JUMP JUMPDEST POP POP JUMPDEST POP POP POP JUMP JUMPDEST PUSH1 0x0 DUP3 DUP3 SHR SWAP1 POP SWAP3 SWAP2 POP POP JUMP JUMPDEST PUSH1 0x0 PUSH3 0x5F7 PUSH1 0x0 NOT DUP5 PUSH1 0x8 MUL PUSH3 0x5D7 JUMP JUMPDEST NOT DUP1 DUP4 AND SWAP2 POP POP SWAP3 SWAP2 POP POP JUMP JUMPDEST PUSH1 0x0 PUSH3 0x612 DUP4 DUP4 PUSH3 0x5E4 JUMP JUMPDEST SWAP2 POP DUP3 PUSH1 0x2 MUL DUP3 OR SWAP1 POP SWAP3 SWAP2 POP POP JUMP JUMPDEST PUSH3 0x62D DUP3 PUSH3 0x3B2 JUMP JUMPDEST PUSH8 0xFFFFFFFFFFFFFFFF DUP2 GT ISZERO PUSH3 0x649 JUMPI PUSH3 0x648 PUSH3 0x3BD JUMP JUMPDEST JUMPDEST PUSH3 0x655 DUP3 SLOAD PUSH3 0x41B JUMP JUMPDEST PUSH3 0x662 DUP3 DUP3 DUP6 PUSH3 0x587 JUMP JUMPDEST PUSH1 0x0 PUSH1 0x20 SWAP1 POP PUSH1 0x1F DUP4 GT PUSH1 0x1 DUP2 EQ PUSH3 0x69A JUMPI PUSH1 0x0 DUP5 ISZERO PUSH3 0x685 JUMPI DUP3 DUP8 ADD MLOAD SWAP1 POP JUMPDEST PUSH3 0x691 DUP6 DUP3 PUSH3 0x604 JUMP JUMPDEST DUP7 SSTORE POP PUSH3 0x701 JUMP JUMPDEST PUSH1 0x1F NOT DUP5 AND PUSH3 0x6AA DUP7 PUSH3 0x450 JUMP JUMPDEST PUSH1 0x0 JUMPDEST DUP3 DUP2 LT ISZERO PUSH3 0x6D4 JUMPI DUP5 DUP10 ADD MLOAD DUP3 SSTORE PUSH1 0x1 DUP3 ADD SWAP2 POP PUSH1 0x20 DUP6 ADD SWAP5 POP PUSH1 0x20 DUP2 ADD SWAP1 POP PUSH3 0x6AD JUMP JUMPDEST DUP7 DUP4 LT ISZERO PUSH3 0x6F4 JUMPI DUP5 DUP10 ADD MLOAD PUSH3 0x6F0 PUSH1 0x1F DUP10 AND DUP3 PUSH3 0x5E4 JUMP JUMPDEST DUP4 SSTORE POP JUMPDEST PUSH1 0x1 PUSH1 0x2 DUP9 MUL ADD DUP9 SSTORE POP POP POP JUMPDEST POP POP POP POP POP POP JUMP JUMPDEST PUSH2 0x2FB7 DUP1 PUSH3 0x719 PUSH1 0x0 CODECOPY PUSH1 0x0 RETURN INVALID PUSH1 0x80 PUSH1 0x40 MSTORE PUSH1 0x4 CALLDATASIZE LT PUSH2 0x129 JUMPI PUSH1 0x0 CALLDATALOAD PUSH1 0xE0 SHR DUP1 PUSH4 0x6352211E GT PUSH2 0xAB JUMPI DUP1 PUSH4 0xA22CB465 GT PUSH2 0x6F JUMPI DUP1 PUSH4 0xA22CB465 EQ PUSH2 0x3D1 JUMPI DUP1 PUSH4 0xB88D4FDE EQ PUSH2 0x3FA JUMPI DUP1 PUSH4 0xBAF1639E EQ PUSH2 0x423 JUMPI DUP1 PUSH4 0xC87B56DD EQ PUSH2 0x43F JUMPI DUP1 PUSH4 0xE985E9C5 EQ PUSH2 0x47C JUMPI DUP1 PUSH4 0xF2FDE38B EQ PUSH2 0x4B9 JUMPI PUSH2 0x129 JUMP JUMPDEST DUP1 PUSH4 0x6352211E EQ PUSH2 0x2EA JUMPI DUP1 PUSH4 0x70A08231 EQ PUSH2 0x327 JUMPI DUP1 PUSH4 0x715018A6 EQ PUSH2 0x364 JUMPI DUP1 PUSH4 0x8DA5CB5B EQ PUSH2 0x37B JUMPI DUP1 PUSH4 0x95D89B41 EQ PUSH2 0x3A6 JUMPI PUSH2 0x129 JUMP JUMPDEST DUP1 PUSH4 0x1249C58B GT PUSH2 0xF2 JUMPI DUP1 PUSH4 0x1249C58B EQ PUSH2 0x225 JUMPI DUP1 PUSH4 0x23B872DD EQ PUSH2 0x22F JUMPI DUP1 PUSH4 0x40A7BB10 EQ PUSH2 0x258 JUMPI DUP1 PUSH4 0x42842E0E EQ PUSH2 0x296 JUMPI DUP1 PUSH4 0x5E280F11 EQ PUSH2 0x2BF JUMPI PUSH2 0x129 JUMP JUMPDEST DUP1 PUSH3 0x1D3567 EQ PUSH2 0x12E JUMPI DUP1 PUSH4 0x1FFC9A7 EQ PUSH2 0x157 JUMPI DUP1 PUSH4 0x6FDDE03 EQ PUSH2 0x194 JUMPI DUP1 PUSH4 0x81812FC EQ PUSH2 0x1BF JUMPI DUP1 PUSH4 0x95EA7B3 EQ PUSH2 0x1FC JUMPI JUMPDEST PUSH1 0x0 DUP1 REVERT JUMPDEST CALLVALUE DUP1 ISZERO PUSH2 0x13A JUMPI PUSH1 0x0 DUP1 REVERT JUMPDEST POP PUSH2 0x155 PUSH1 0x4 DUP1 CALLDATASIZE SUB DUP2 ADD SWAP1 PUSH2 0x150 SWAP2 SWAP1 PUSH2 0x20F8 JUMP JUMPDEST PUSH2 0x4E2 JUMP JUMPDEST STOP JUMPDEST CALLVALUE DUP1 ISZERO PUSH2 0x163 JUMPI PUSH1 0x0 DUP1 REVERT JUMPDEST POP PUSH2 0x17E PUSH1 0x4 DUP1 CALLDATASIZE SUB DUP2 ADD SWAP1 PUSH2 0x179 SWAP2 SWAP1 PUSH2 0x21EF JUMP JUMPDEST PUSH2 0x5CC JUMP JUMPDEST PUSH1 0x40 MLOAD PUSH2 0x18B SWAP2 SWAP1 PUSH2 0x2237 JUMP JUMPDEST PUSH1 0x40 MLOAD DUP1 SWAP2 SUB SWAP1 RETURN JUMPDEST CALLVALUE DUP1 ISZERO PUSH2 0x1A0 JUMPI PUSH1 0x0 DUP1 REVERT JUMPDEST POP PUSH2 0x1A9 PUSH2 0x6AE JUMP JUMPDEST PUSH1 0x40 MLOAD PUSH2 0x1B6 SWAP2 SWAP1 PUSH2 0x22D1 JUMP JUMPDEST PUSH1 0x40 MLOAD DUP1 SWAP2 SUB SWAP1 RETURN JUMPDEST CALLVALUE DUP1 ISZERO PUSH2 0x1CB JUMPI PUSH1 0x0 DUP1 REVERT JUMPDEST POP PUSH2 0x1E6 PUSH1 0x4 DUP1 CALLDATASIZE SUB DUP2 ADD SWAP1 PUSH2 0x1E1 SWAP2 SWAP1 PUSH2 0x2329 JUMP JUMPDEST PUSH2 0x740 JUMP JUMPDEST PUSH1 0x40 MLOAD PUSH2 0x1F3 SWAP2 SWAP1 PUSH2 0x2397 JUMP JUMPDEST PUSH1 0x40 MLOAD DUP1 SWAP2 SUB SWAP1 RETURN JUMPDEST CALLVALUE DUP1 ISZERO PUSH2 0x208 JUMPI PUSH1 0x0 DUP1 REVERT JUMPDEST POP PUSH2 0x223 PUSH1 0x4 DUP1 CALLDATASIZE SUB DUP2 ADD SWAP1 PUSH2 0x21E SWAP2 SWAP1 PUSH2 0x23DE JUMP JUMPDEST PUSH2 0x75C JUMP JUMPDEST STOP JUMPDEST PUSH2 0x22D PUSH2 0x772 JUMP JUMPDEST STOP JUMPDEST CALLVALUE DUP1 ISZERO PUSH2 0x23B JUMPI PUSH1 0x0 DUP1 REVERT JUMPDEST POP PUSH2 0x256 PUSH1 0x4 DUP1 CALLDATASIZE SUB DUP2 ADD SWAP1 PUSH2 0x251 SWAP2 SWAP1 PUSH2 0x241E JUMP JUMPDEST PUSH2 0x807 JUMP JUMPDEST STOP JUMPDEST CALLVALUE DUP1 ISZERO PUSH2 0x264 JUMPI PUSH1 0x0 DUP1 REVERT JUMPDEST POP PUSH2 0x27F PUSH1 0x4 DUP1 CALLDATASIZE SUB DUP2 ADD SWAP1 PUSH2 0x27A SWAP2 SWAP1 PUSH2 0x24FD JUMP JUMPDEST PUSH2 0x909 JUMP JUMPDEST PUSH1 0x40 MLOAD PUSH2 0x28D SWAP3 SWAP2 SWAP1 PUSH2 0x25C8 JUMP JUMPDEST PUSH1 0x40 MLOAD DUP1 SWAP2 SUB SWAP1 RETURN JUMPDEST CALLVALUE DUP1 ISZERO PUSH2 0x2A2 JUMPI PUSH1 0x0 DUP1 REVERT JUMPDEST POP PUSH2 0x2BD PUSH1 0x4 DUP1 CALLDATASIZE SUB DUP2 ADD SWAP1 PUSH2 0x2B8 SWAP2 SWAP1 PUSH2 0x241E JUMP JUMPDEST PUSH2 0x9C3 JUMP JUMPDEST STOP JUMPDEST CALLVALUE DUP1 ISZERO PUSH2 0x2CB JUMPI PUSH1 0x0 DUP1 REVERT JUMPDEST POP PUSH2 0x2D4 PUSH2 0x9E3 JUMP JUMPDEST PUSH1 0x40 MLOAD PUSH2 0x2E1 SWAP2 SWAP1 PUSH2 0x2650 JUMP JUMPDEST PUSH1 0x40 MLOAD DUP1 SWAP2 SUB SWAP1 RETURN JUMPDEST CALLVALUE DUP1 ISZERO PUSH2 0x2F6 JUMPI PUSH1 0x0 DUP1 REVERT JUMPDEST POP PUSH2 0x311 PUSH1 0x4 DUP1 CALLDATASIZE SUB DUP2 ADD SWAP1 PUSH2 0x30C SWAP2 SWAP1 PUSH2 0x2329 JUMP JUMPDEST PUSH2 0xA09 JUMP JUMPDEST PUSH1 0x40 MLOAD PUSH2 0x31E SWAP2 SWAP1 PUSH2 0x2397 JUMP JUMPDEST PUSH1 0x40 MLOAD DUP1 SWAP2 SUB SWAP1 RETURN JUMPDEST CALLVALUE DUP1 ISZERO PUSH2 0x333 JUMPI PUSH1 0x0 DUP1 REVERT JUMPDEST POP PUSH2 0x34E PUSH1 0x4 DUP1 CALLDATASIZE SUB DUP2 ADD SWAP1 PUSH2 0x349 SWAP2 SWAP1 PUSH2 0x266B JUMP JUMPDEST PUSH2 0xA1B JUMP JUMPDEST PUSH1 0x40 MLOAD PUSH2 0x35B SWAP2 SWAP1 PUSH2 0x2698 JUMP JUMPDEST PUSH1 0x40 MLOAD DUP1 SWAP2 SUB SWAP1 RETURN JUMPDEST CALLVALUE DUP1 ISZERO PUSH2 0x370 JUMPI PUSH1 0x0 DUP1 REVERT JUMPDEST POP PUSH2 0x379 PUSH2 0xAD5 JUMP JUMPDEST STOP JUMPDEST CALLVALUE DUP1 ISZERO PUSH2 0x387 JUMPI PUSH1 0x0 DUP1 REVERT JUMPDEST POP PUSH2 0x390 PUSH2 0xAE9 JUMP JUMPDEST PUSH1 0x40 MLOAD PUSH2 0x39D SWAP2 SWAP1 PUSH2 0x2397 JUMP JUMPDEST PUSH1 0x40 MLOAD DUP1 SWAP2 SUB SWAP1 RETURN JUMPDEST CALLVALUE DUP1 ISZERO PUSH2 0x3B2 JUMPI PUSH1 0x0 DUP1 REVERT JUMPDEST POP PUSH2 0x3BB PUSH2 0xB12 JUMP JUMPDEST PUSH1 0x40 MLOAD PUSH2 0x3C8 SWAP2 SWAP1 PUSH2 0x22D1 JUMP JUMPDEST PUSH1 0x40 MLOAD DUP1 SWAP2 SUB SWAP1 RETURN JUMPDEST CALLVALUE DUP1 ISZERO PUSH2 0x3DD JUMPI PUSH1 0x0 DUP1 REVERT JUMPDEST POP PUSH2 0x3F8 PUSH1 0x4 DUP1 CALLDATASIZE SUB DUP2 ADD SWAP1 PUSH2 0x3F3 SWAP2 SWAP1 PUSH2 0x26B3 JUMP JUMPDEST PUSH2 0xBA4 JUMP JUMPDEST STOP JUMPDEST CALLVALUE DUP1 ISZERO PUSH2 0x406 JUMPI PUSH1 0x0 DUP1 REVERT JUMPDEST POP PUSH2 0x421 PUSH1 0x4 DUP1 CALLDATASIZE SUB DUP2 ADD SWAP1 PUSH2 0x41C SWAP2 SWAP1 PUSH2 0x26F3 JUMP JUMPDEST PUSH2 0xBBA JUMP JUMPDEST STOP JUMPDEST PUSH2 0x43D PUSH1 0x4 DUP1 CALLDATASIZE SUB DUP2 ADD SWAP1 PUSH2 0x438 SWAP2 SWAP1 PUSH2 0x2776 JUMP JUMPDEST PUSH2 0xBD7 JUMP JUMPDEST STOP JUMPDEST CALLVALUE DUP1 ISZERO PUSH2 0x44B JUMPI PUSH1 0x0 DUP1 REVERT JUMPDEST POP PUSH2 0x466 PUSH1 0x4 DUP1 CALLDATASIZE SUB DUP2 ADD SWAP1 PUSH2 0x461 SWAP2 SWAP1 PUSH2 0x2329 JUMP JUMPDEST PUSH2 0xE55 JUMP JUMPDEST PUSH1 0x40 MLOAD PUSH2 0x473 SWAP2 SWAP1 PUSH2 0x22D1 JUMP JUMPDEST PUSH1 0x40 MLOAD DUP1 SWAP2 SUB SWAP1 RETURN JUMPDEST CALLVALUE DUP1 ISZERO PUSH2 0x488 JUMPI PUSH1 0x0 DUP1 REVERT JUMPDEST POP PUSH2 0x4A3 PUSH1 0x4 DUP1 CALLDATASIZE SUB DUP2 ADD SWAP1 PUSH2 0x49E SWAP2 SWAP1 PUSH2 0x27EA JUMP JUMPDEST PUSH2 0xEBE JUMP JUMPDEST PUSH1 0x40 MLOAD PUSH2 0x4B0 SWAP2 SWAP1 PUSH2 0x2237 JUMP JUMPDEST PUSH1 0x40 MLOAD DUP1 SWAP2 SUB SWAP1 RETURN JUMPDEST CALLVALUE DUP1 ISZERO PUSH2 0x4C5 JUMPI PUSH1 0x0 DUP1 REVERT JUMPDEST POP PUSH2 0x4E0 PUSH1 0x4 DUP1 CALLDATASIZE SUB DUP2 ADD SWAP1 PUSH2 0x4DB SWAP2 SWAP1 PUSH2 0x266B JUMP JUMPDEST PUSH2 0xF52 JUMP JUMPDEST STOP JUMPDEST PUSH1 0xB PUSH1 0x0 SWAP1 SLOAD SWAP1 PUSH2 0x100 EXP SWAP1 DIV PUSH20 0xFFFFFFFFFFFFFFFFFFFFFFFFFFFFFFFFFFFFFFFF AND PUSH20 0xFFFFFFFFFFFFFFFFFFFFFFFFFFFFFFFFFFFFFFFF AND CALLER PUSH20 0xFFFFFFFFFFFFFFFFFFFFFFFFFFFFFFFFFFFFFFFF AND EQ PUSH2 0x53C JUMPI PUSH1 0x0 DUP1 REVERT JUMPDEST PUSH1 0x0 PUSH1 0x14 DUP5 ADD MLOAD SWAP1 POP PUSH1 0x0 DUP1 DUP4 DUP1 PUSH1 0x20 ADD SWAP1 MLOAD DUP2 ADD SWAP1 PUSH2 0x55C SWAP2 SWAP1 PUSH2 0x287D JUMP JUMPDEST SWAP2 POP SWAP2 POP PUSH2 0x56A DUP3 DUP3 PUSH2 0xFD8 JUMP JUMPDEST PUSH1 0x1 PUSH1 0x7 PUSH1 0x0 DUP3 DUP3 SLOAD PUSH2 0x57D SWAP2 SWAP1 PUSH2 0x28EC JUMP JUMPDEST SWAP3 POP POP DUP2 SWAP1 SSTORE POP PUSH32 0xEC16668A9529C4FC256054F3E18620EF50C89AEC357376CCE821207FF1E656F0 DUP8 DUP4 DUP4 PUSH1 0x7 SLOAD PUSH1 0x40 MLOAD PUSH2 0x5BB SWAP5 SWAP4 SWAP3 SWAP2 SWAP1 PUSH2 0x292F JUMP JUMPDEST PUSH1 0x40 MLOAD DUP1 SWAP2 SUB SWAP1 LOG1 POP POP POP POP POP POP POP JUMP JUMPDEST PUSH1 0x0 PUSH32 0x80AC58CD00000000000000000000000000000000000000000000000000000000 PUSH28 0xFFFFFFFFFFFFFFFFFFFFFFFFFFFFFFFFFFFFFFFFFFFFFFFFFFFFFFFF NOT AND DUP3 PUSH28 0xFFFFFFFFFFFFFFFFFFFFFFFFFFFFFFFFFFFFFFFFFFFFFFFFFFFFFFFF NOT AND EQ DUP1 PUSH2 0x697 JUMPI POP PUSH32 0x5B5E139F00000000000000000000000000000000000000000000000000000000 PUSH28 0xFFFFFFFFFFFFFFFFFFFFFFFFFFFFFFFFFFFFFFFFFFFFFFFFFFFFFFFF NOT AND DUP3 PUSH28 0xFFFFFFFFFFFFFFFFFFFFFFFFFFFFFFFFFFFFFFFFFFFFFFFFFFFFFFFF NOT AND EQ JUMPDEST DUP1 PUSH2 0x6A7 JUMPI POP PUSH2 0x6A6 DUP3 PUSH2 0xFF6 JUMP JUMPDEST JUMPDEST SWAP1 POP SWAP2 SWAP1 POP JUMP JUMPDEST PUSH1 0x60 PUSH1 0x1 DUP1 SLOAD PUSH2 0x6BD SWAP1 PUSH2 0x29A3 JUMP JUMPDEST DUP1 PUSH1 0x1F ADD PUSH1 0x20 DUP1 SWAP2 DIV MUL PUSH1 0x20 ADD PUSH1 0x40 MLOAD SWAP1 DUP2 ADD PUSH1 0x40 MSTORE DUP1 SWAP3 SWAP2 SWAP1 DUP2 DUP2 MSTORE PUSH1 0x20 ADD DUP3 DUP1 SLOAD PUSH2 0x6E9 SWAP1 PUSH2 0x29A3 JUMP JUMPDEST DUP1 ISZERO PUSH2 0x736 JUMPI DUP1 PUSH1 0x1F LT PUSH2 0x70B JUMPI PUSH2 0x100 DUP1 DUP4 SLOAD DIV MUL DUP4 MSTORE SWAP2 PUSH1 0x20 ADD SWAP2 PUSH2 0x736 JUMP JUMPDEST DUP3 ADD SWAP2 SWAP1 PUSH1 0x0 MSTORE PUSH1 0x20 PUSH1 0x0 KECCAK256 SWAP1 JUMPDEST DUP2 SLOAD DUP2 MSTORE SWAP1 PUSH1 0x1 ADD SWAP1 PUSH1 0x20 ADD DUP1 DUP4 GT PUSH2 0x719 JUMPI DUP3 SWAP1 SUB PUSH1 0x1F AND DUP3 ADD SWAP2 JUMPDEST POP POP POP POP POP SWAP1 POP SWAP1 JUMP JUMPDEST PUSH1 0x0 PUSH2 0x74B DUP3 PUSH2 0x1060 JUMP JUMPDEST POP PUSH2 0x755 DUP3 PUSH2 0x10E8 JUMP JUMPDEST SWAP1 POP SWAP2 SWAP1 POP JUMP JUMPDEST PUSH2 0x76E DUP3 DUP3 PUSH2 0x769 PUSH2 0x1125 JUMP JUMPDEST PUSH2 0x112D JUMP JUMPDEST POP POP JUMP JUMPDEST PUSH1 0x9 SLOAD PUSH1 0x1 PUSH1 0x8 SLOAD PUSH2 0x784 SWAP2 SWAP1 PUSH2 0x28EC JUMP JUMPDEST GT ISZERO PUSH2 0x7C5 JUMPI PUSH1 0x40 MLOAD PUSH32 0x8C379A000000000000000000000000000000000000000000000000000000000 DUP2 MSTORE PUSH1 0x4 ADD PUSH2 0x7BC SWAP1 PUSH2 0x2A20 JUMP JUMPDEST PUSH1 0x40 MLOAD DUP1 SWAP2 SUB SWAP1 REVERT JUMPDEST PUSH1 0x1 PUSH1 0x8 PUSH1 0x0 DUP3 DUP3 SLOAD PUSH2 0x7D8 SWAP2 SWAP1 PUSH2 0x28EC JUMP JUMPDEST SWAP3 POP POP DUP2 SWAP1 SSTORE POP PUSH2 0x7EB CALLER PUSH1 0x8 SLOAD PUSH2 0xFD8 JUMP JUMPDEST PUSH1 0x1 PUSH1 0x7 PUSH1 0x0 DUP3 DUP3 SLOAD PUSH2 0x7FE SWAP2 SWAP1 PUSH2 0x28EC JUMP JUMPDEST SWAP3 POP POP DUP2 SWAP1 SSTORE POP JUMP JUMPDEST PUSH1 0x0 PUSH20 0xFFFFFFFFFFFFFFFFFFFFFFFFFFFFFFFFFFFFFFFF AND DUP3 PUSH20 0xFFFFFFFFFFFFFFFFFFFFFFFFFFFFFFFFFFFFFFFF AND SUB PUSH2 0x879 JUMPI PUSH1 0x0 PUSH1 0x40 MLOAD PUSH32 0x64A0AE9200000000000000000000000000000000000000000000000000000000 DUP2 MSTORE PUSH1 0x4 ADD PUSH2 0x870 SWAP2 SWAP1 PUSH2 0x2397 JUMP JUMPDEST PUSH1 0x40 MLOAD DUP1 SWAP2 SUB SWAP1 REVERT JUMPDEST PUSH1 0x0 PUSH2 0x88D DUP4 DUP4 PUSH2 0x888 PUSH2 0x1125 JUMP JUMPDEST PUSH2 0x113F JUMP JUMPDEST SWAP1 POP DUP4 PUSH20 0xFFFFFFFFFFFFFFFFFFFFFFFFFFFFFFFFFFFFFFFF AND DUP2 PUSH20 0xFFFFFFFFFFFFFFFFFFFFFFFFFFFFFFFFFFFFFFFF AND EQ PUSH2 0x903 JUMPI DUP4 DUP3 DUP3 PUSH1 0x40 MLOAD PUSH32 0x64283D7B00000000000000000000000000000000000000000000000000000000 DUP2 MSTORE PUSH1 0x4 ADD PUSH2 0x8FA SWAP4 SWAP3 SWAP2 SWAP1 PUSH2 0x2A40 JUMP JUMPDEST PUSH1 0x40 MLOAD DUP1 SWAP2 SUB SWAP1 REVERT JUMPDEST POP POP POP POP JUMP JUMPDEST PUSH1 0x0 DUP1 PUSH1 0xB PUSH1 0x0 SWAP1 SLOAD SWAP1 PUSH2 0x100 EXP SWAP1 DIV PUSH20 0xFFFFFFFFFFFFFFFFFFFFFFFFFFFFFFFFFFFFFFFF AND PUSH20 0xFFFFFFFFFFFFFFFFFFFFFFFFFFFFFFFFFFFFFFFF AND PUSH4 0x40A7BB10 DUP11 DUP11 DUP11 DUP11 DUP11 DUP11 DUP11 PUSH1 0x40 MLOAD DUP9 PUSH4 0xFFFFFFFF AND PUSH1 0xE0 SHL DUP2 MSTORE PUSH1 0x4 ADD PUSH2 0x973 SWAP8 SWAP7 SWAP6 SWAP5 SWAP4 SWAP3 SWAP2 SWAP1 PUSH2 0x2AB5 JUMP JUMPDEST PUSH1 0x40 DUP1 MLOAD DUP1 DUP4 SUB DUP2 DUP7 GAS STATICCALL ISZERO DUP1 ISZERO PUSH2 0x98F JUMPI RETURNDATASIZE PUSH1 0x0 DUP1 RETURNDATACOPY RETURNDATASIZE PUSH1 0x0 REVERT JUMPDEST POP POP POP POP PUSH1 0x40 MLOAD RETURNDATASIZE PUSH1 0x1F NOT PUSH1 0x1F DUP3 ADD AND DUP3 ADD DUP1 PUSH1 0x40 MSTORE POP DUP2 ADD SWAP1 PUSH2 0x9B3 SWAP2 SWAP1 PUSH2 0x2B1A JUMP JUMPDEST SWAP2 POP SWAP2 POP SWAP8 POP SWAP8 SWAP6 POP POP POP POP POP POP JUMP JUMPDEST PUSH2 0x9DE DUP4 DUP4 DUP4 PUSH1 0x40 MLOAD DUP1 PUSH1 0x20 ADD PUSH1 0x40 MSTORE DUP1 PUSH1 0x0 DUP2 MSTORE POP PUSH2 0xBBA JUMP JUMPDEST POP POP POP JUMP JUMPDEST PUSH1 0xB PUSH1 0x0 SWAP1 SLOAD SWAP1 PUSH2 0x100 EXP SWAP1 DIV PUSH20 0xFFFFFFFFFFFFFFFFFFFFFFFFFFFFFFFFFFFFFFFF AND DUP2 JUMP JUMPDEST PUSH1 0x0 PUSH2 0xA14 DUP3 PUSH2 0x1060 JUMP JUMPDEST SWAP1 POP SWAP2 SWAP1 POP JUMP JUMPDEST PUSH1 0x0 DUP1 PUSH20 0xFFFFFFFFFFFFFFFFFFFFFFFFFFFFFFFFFFFFFFFF AND DUP3 PUSH20 0xFFFFFFFFFFFFFFFFFFFFFFFFFFFFFFFFFFFFFFFF AND SUB PUSH2 0xA8E JUMPI PUSH1 0x0 PUSH1 0x40 MLOAD PUSH32 0x89C62B6400000000000000000000000000000000000000000000000000000000 DUP2 MSTORE PUSH1 0x4 ADD PUSH2 0xA85 SWAP2 SWAP1 PUSH2 0x2397 JUMP JUMPDEST PUSH1 0x40 MLOAD DUP1 SWAP2 SUB SWAP1 REVERT JUMPDEST PUSH1 0x4 PUSH1 0x0 DUP4 PUSH20 0xFFFFFFFFFFFFFFFFFFFFFFFFFFFFFFFFFFFFFFFF AND PUSH20 0xFFFFFFFFFFFFFFFFFFFFFFFFFFFFFFFFFFFFFFFF AND DUP2 MSTORE PUSH1 0x20 ADD SWAP1 DUP2 MSTORE PUSH1 0x20 ADD PUSH1 0x0 KECCAK256 SLOAD SWAP1 POP SWAP2 SWAP1 POP JUMP JUMPDEST PUSH2 0xADD PUSH2 0x1359 JUMP JUMPDEST PUSH2 0xAE7 PUSH1 0x0 PUSH2 0x13E0 JUMP JUMPDEST JUMP JUMPDEST PUSH1 0x0 DUP1 PUSH1 0x0 SWAP1 SLOAD SWAP1 PUSH2 0x100 EXP SWAP1 DIV PUSH20 0xFFFFFFFFFFFFFFFFFFFFFFFFFFFFFFFFFFFFFFFF AND SWAP1 POP SWAP1 JUMP JUMPDEST PUSH1 0x60 PUSH1 0x2 DUP1 SLOAD PUSH2 0xB21 SWAP1 PUSH2 0x29A3 JUMP JUMPDEST DUP1 PUSH1 0x1F ADD PUSH1 0x20 DUP1 SWAP2 DIV MUL PUSH1 0x20 ADD PUSH1 0x40 MLOAD SWAP1 DUP2 ADD PUSH1 0x40 MSTORE DUP1 SWAP3 SWAP2 SWAP1 DUP2 DUP2 MSTORE PUSH1 0x20 ADD DUP3 DUP1 SLOAD PUSH2 0xB4D SWAP1 PUSH2 0x29A3 JUMP JUMPDEST DUP1 ISZERO PUSH2 0xB9A JUMPI DUP1 PUSH1 0x1F LT PUSH2 0xB6F JUMPI PUSH2 0x100 DUP1 DUP4 SLOAD DIV MUL DUP4 MSTORE SWAP2 PUSH1 0x20 ADD SWAP2 PUSH2 0xB9A JUMP JUMPDEST DUP3 ADD SWAP2 SWAP1 PUSH1 0x0 MSTORE PUSH1 0x20 PUSH1 0x0 KECCAK256 SWAP1 JUMPDEST DUP2 SLOAD DUP2 MSTORE SWAP1 PUSH1 0x1 ADD SWAP1 PUSH1 0x20 ADD DUP1 DUP4 GT PUSH2 0xB7D JUMPI DUP3 SWAP1 SUB PUSH1 0x1F AND DUP3 ADD SWAP2 JUMPDEST POP POP POP POP POP SWAP1 POP SWAP1 JUMP JUMPDEST PUSH2 0xBB6 PUSH2 0xBAF PUSH2 0x1125 JUMP JUMPDEST DUP4 DUP4 PUSH2 0x14A4 JUMP JUMPDEST POP POP JUMP JUMPDEST PUSH2 0xBC5 DUP5 DUP5 DUP5 PUSH2 0x807 JUMP JUMPDEST PUSH2 0xBD1 DUP5 DUP5 DUP5 DUP5 PUSH2 0x1613 JUMP JUMPDEST POP POP POP POP JUMP JUMPDEST PUSH2 0xBE0 DUP2 PUSH2 0xA09 JUMP JUMPDEST PUSH20 0xFFFFFFFFFFFFFFFFFFFFFFFFFFFFFFFFFFFFFFFF AND CALLER PUSH20 0xFFFFFFFFFFFFFFFFFFFFFFFFFFFFFFFFFFFFFFFF AND EQ PUSH2 0xC4D JUMPI PUSH1 0x40 MLOAD PUSH32 0x8C379A000000000000000000000000000000000000000000000000000000000 DUP2 MSTORE PUSH1 0x4 ADD PUSH2 0xC44 SWAP1 PUSH2 0x2BA6 JUMP JUMPDEST PUSH1 0x40 MLOAD DUP1 SWAP2 SUB SWAP1 REVERT JUMPDEST PUSH2 0xC56 DUP2 PUSH2 0x17CA JUMP JUMPDEST PUSH1 0x1 PUSH1 0x7 PUSH1 0x0 DUP3 DUP3 SLOAD PUSH2 0xC69 SWAP2 SWAP1 PUSH2 0x2BC6 JUMP JUMPDEST SWAP3 POP POP DUP2 SWAP1 SSTORE POP PUSH1 0x0 CALLER DUP3 PUSH1 0x40 MLOAD PUSH1 0x20 ADD PUSH2 0xC85 SWAP3 SWAP2 SWAP1 PUSH2 0x2BFA JUMP JUMPDEST PUSH1 0x40 MLOAD PUSH1 0x20 DUP2 DUP4 SUB SUB DUP2 MSTORE SWAP1 PUSH1 0x40 MSTORE SWAP1 POP PUSH1 0x0 PUSH1 0x1 SWAP1 POP PUSH1 0x0 DUP2 PUSH1 0xA SLOAD PUSH1 0x40 MLOAD PUSH1 0x20 ADD PUSH2 0xCB3 SWAP3 SWAP2 SWAP1 PUSH2 0x2C7A JUMP JUMPDEST PUSH1 0x40 MLOAD PUSH1 0x20 DUP2 DUP4 SUB SUB DUP2 MSTORE SWAP1 PUSH1 0x40 MSTORE SWAP1 POP PUSH1 0x0 PUSH1 0xB PUSH1 0x0 SWAP1 SLOAD SWAP1 PUSH2 0x100 EXP SWAP1 DIV PUSH20 0xFFFFFFFFFFFFFFFFFFFFFFFFFFFFFFFFFFFFFFFF AND PUSH20 0xFFFFFFFFFFFFFFFFFFFFFFFFFFFFFFFFFFFFFFFF AND PUSH4 0x40A7BB10 DUP10 ADDRESS DUP8 PUSH1 0x0 DUP8 PUSH1 0x40 MLOAD DUP7 PUSH4 0xFFFFFFFF AND PUSH1 0xE0 SHL DUP2 MSTORE PUSH1 0x4 ADD PUSH2 0xD2A SWAP6 SWAP5 SWAP4 SWAP3 SWAP2 SWAP1 PUSH2 0x2CEA JUMP JUMPDEST PUSH1 0x40 DUP1 MLOAD DUP1 DUP4 SUB DUP2 DUP7 GAS STATICCALL ISZERO DUP1 ISZERO PUSH2 0xD46 JUMPI RETURNDATASIZE PUSH1 0x0 DUP1 RETURNDATACOPY RETURNDATASIZE PUSH1 0x0 REVERT JUMPDEST POP POP POP POP PUSH1 0x40 MLOAD RETURNDATASIZE PUSH1 0x1F NOT PUSH1 0x1F DUP3 ADD AND DUP3 ADD DUP1 PUSH1 0x40 MSTORE POP DUP2 ADD SWAP1 PUSH2 0xD6A SWAP2 SWAP1 PUSH2 0x2B1A JUMP JUMPDEST POP SWAP1 POP DUP1 CALLVALUE LT ISZERO PUSH2 0xDB0 JUMPI PUSH1 0x40 MLOAD PUSH32 0x8C379A000000000000000000000000000000000000000000000000000000000 DUP2 MSTORE PUSH1 0x4 ADD PUSH2 0xDA7 SWAP1 PUSH2 0x2DBD JUMP JUMPDEST PUSH1 0x40 MLOAD DUP1 SWAP2 SUB SWAP1 REVERT JUMPDEST PUSH1 0xB PUSH1 0x0 SWAP1 SLOAD SWAP1 PUSH2 0x100 EXP SWAP1 DIV PUSH20 0xFFFFFFFFFFFFFFFFFFFFFFFFFFFFFFFFFFFFFFFF AND PUSH20 0xFFFFFFFFFFFFFFFFFFFFFFFFFFFFFFFFFFFFFFFF AND PUSH4 0xC5803100 CALLVALUE DUP11 DUP11 DUP11 DUP10 CALLER PUSH1 0x0 DUP11 PUSH1 0x40 MLOAD DUP10 PUSH4 0xFFFFFFFF AND PUSH1 0xE0 SHL DUP2 MSTORE PUSH1 0x4 ADD PUSH2 0xE19 SWAP8 SWAP7 SWAP6 SWAP5 SWAP4 SWAP3 SWAP2 SWAP1 PUSH2 0x2DEC JUMP JUMPDEST PUSH1 0x0 PUSH1 0x40 MLOAD DUP1 DUP4 SUB DUP2 DUP6 DUP9 DUP1 EXTCODESIZE ISZERO DUP1 ISZERO PUSH2 0xE32 JUMPI PUSH1 0x0 DUP1 REVERT JUMPDEST POP GAS CALL ISZERO DUP1 ISZERO PUSH2 0xE46 JUMPI RETURNDATASIZE PUSH1 0x0 DUP1 RETURNDATACOPY RETURNDATASIZE PUSH1 0x0 REVERT JUMPDEST POP POP POP POP POP POP POP POP POP POP POP POP POP JUMP JUMPDEST PUSH1 0x60 PUSH2 0xE60 DUP3 PUSH2 0x1060 JUMP JUMPDEST POP PUSH1 0x0 PUSH2 0xE6B PUSH2 0x1850 JUMP JUMPDEST SWAP1 POP PUSH1 0x0 DUP2 MLOAD GT PUSH2 0xE8B JUMPI PUSH1 0x40 MLOAD DUP1 PUSH1 0x20 ADD PUSH1 0x40 MSTORE DUP1 PUSH1 0x0 DUP2 MSTORE POP PUSH2 0xEB6 JUMP JUMPDEST DUP1 PUSH2 0xE95 DUP5 PUSH2 0x1867 JUMP JUMPDEST PUSH1 0x40 MLOAD PUSH1 0x20 ADD PUSH2 0xEA6 SWAP3 SWAP2 SWAP1 PUSH2 0x2EA0 JUMP JUMPDEST PUSH1 0x40 MLOAD PUSH1 0x20 DUP2 DUP4 SUB SUB DUP2 MSTORE SWAP1 PUSH1 0x40 MSTORE JUMPDEST SWAP2 POP POP SWAP2 SWAP1 POP JUMP JUMPDEST PUSH1 0x0 PUSH1 0x6 PUSH1 0x0 DUP5 PUSH20 0xFFFFFFFFFFFFFFFFFFFFFFFFFFFFFFFFFFFFFFFF AND PUSH20 0xFFFFFFFFFFFFFFFFFFFFFFFFFFFFFFFFFFFFFFFF AND DUP2 MSTORE PUSH1 0x20 ADD SWAP1 DUP2 MSTORE PUSH1 0x20 ADD PUSH1 0x0 KECCAK256 PUSH1 0x0 DUP4 PUSH20 0xFFFFFFFFFFFFFFFFFFFFFFFFFFFFFFFFFFFFFFFF AND PUSH20 0xFFFFFFFFFFFFFFFFFFFFFFFFFFFFFFFFFFFFFFFF AND DUP2 MSTORE PUSH1 0x20 ADD SWAP1 DUP2 MSTORE PUSH1 0x20 ADD PUSH1 0x0 KECCAK256 PUSH1 0x0 SWAP1 SLOAD SWAP1 PUSH2 0x100 EXP SWAP1 DIV PUSH1 0xFF AND SWAP1 POP SWAP3 SWAP2 POP POP JUMP JUMPDEST PUSH2 0xF5A PUSH2 0x1359 JUMP JUMPDEST PUSH1 0x0 PUSH20 0xFFFFFFFFFFFFFFFFFFFFFFFFFFFFFFFFFFFFFFFF AND DUP2 PUSH20 0xFFFFFFFFFFFFFFFFFFFFFFFFFFFFFFFFFFFFFFFF AND SUB PUSH2 0xFCC JUMPI PUSH1 0x0 PUSH1 0x40 MLOAD PUSH32 0x1E4FBDF700000000000000000000000000000000000000000000000000000000 DUP2 MSTORE PUSH1 0x4 ADD PUSH2 0xFC3 SWAP2 SWAP1 PUSH2 0x2397 JUMP JUMPDEST PUSH1 0x40 MLOAD DUP1 SWAP2 SUB SWAP1 REVERT JUMPDEST PUSH2 0xFD5 DUP2 PUSH2 0x13E0 JUMP JUMPDEST POP JUMP JUMPDEST PUSH2 0xFF2 DUP3 DUP3 PUSH1 0x40 MLOAD DUP1 PUSH1 0x20 ADD PUSH1 0x40 MSTORE DUP1 PUSH1 0x0 DUP2 MSTORE POP PUSH2 0x1935 JUMP JUMPDEST POP POP JUMP JUMPDEST PUSH1 0x0 PUSH32 0x1FFC9A700000000000000000000000000000000000000000000000000000000 PUSH28 0xFFFFFFFFFFFFFFFFFFFFFFFFFFFFFFFFFFFFFFFFFFFFFFFFFFFFFFFF NOT AND DUP3 PUSH28 0xFFFFFFFFFFFFFFFFFFFFFFFFFFFFFFFFFFFFFFFFFFFFFFFFFFFFFFFF NOT AND EQ SWAP1 POP SWAP2 SWAP1 POP JUMP JUMPDEST PUSH1 0x0 DUP1 PUSH2 0x106C DUP4 PUSH2 0x1951 JUMP JUMPDEST SWAP1 POP PUSH1 0x0 PUSH20 0xFFFFFFFFFFFFFFFFFFFFFFFFFFFFFFFFFFFFFFFF AND DUP2 PUSH20 0xFFFFFFFFFFFFFFFFFFFFFFFFFFFFFFFFFFFFFFFF AND SUB PUSH2 0x10DF JUMPI DUP3 PUSH1 0x40 MLOAD PUSH32 0x7E27328900000000000000000000000000000000000000000000000000000000 DUP2 MSTORE PUSH1 0x4 ADD PUSH2 0x10D6 SWAP2 SWAP1 PUSH2 0x2698 JUMP JUMPDEST PUSH1 0x40 MLOAD DUP1 SWAP2 SUB SWAP1 REVERT JUMPDEST DUP1 SWAP2 POP POP SWAP2 SWAP1 POP JUMP JUMPDEST PUSH1 0x0 PUSH1 0x5 PUSH1 0x0 DUP4 DUP2 MSTORE PUSH1 0x20 ADD SWAP1 DUP2 MSTORE PUSH1 0x20 ADD PUSH1 0x0 KECCAK256 PUSH1 0x0 SWAP1 SLOAD SWAP1 PUSH2 0x100 EXP SWAP1 DIV PUSH20 0xFFFFFFFFFFFFFFFFFFFFFFFFFFFFFFFFFFFFFFFF AND SWAP1 POP SWAP2 SWAP1 POP JUMP JUMPDEST PUSH1 0x0 CALLER SWAP1 POP SWAP1 JUMP JUMPDEST PUSH2 0x113A DUP4 DUP4 DUP4 PUSH1 0x1 PUSH2 0x198E JUMP JUMPDEST POP POP POP JUMP JUMPDEST PUSH1 0x0 DUP1 PUSH2 0x114B DUP5 PUSH2 0x1951 JUMP JUMPDEST SWAP1 POP PUSH1 0x0 PUSH20 0xFFFFFFFFFFFFFFFFFFFFFFFFFFFFFFFFFFFFFFFF AND DUP4 PUSH20 0xFFFFFFFFFFFFFFFFFFFFFFFFFFFFFFFFFFFFFFFF AND EQ PUSH2 0x118D JUMPI PUSH2 0x118C DUP2 DUP5 DUP7 PUSH2 0x1B53 JUMP JUMPDEST JUMPDEST PUSH1 0x0 PUSH20 0xFFFFFFFFFFFFFFFFFFFFFFFFFFFFFFFFFFFFFFFF AND DUP2 PUSH20 0xFFFFFFFFFFFFFFFFFFFFFFFFFFFFFFFFFFFFFFFF AND EQ PUSH2 0x121E JUMPI PUSH2 0x11CF PUSH1 0x0 DUP6 PUSH1 0x0 DUP1 PUSH2 0x198E JUMP JUMPDEST PUSH1 0x1 PUSH1 0x4 PUSH1 0x0 DUP4 PUSH20 0xFFFFFFFFFFFFFFFFFFFFFFFFFFFFFFFFFFFFFFFF AND PUSH20 0xFFFFFFFFFFFFFFFFFFFFFFFFFFFFFFFFFFFFFFFF AND DUP2 MSTORE PUSH1 0x20 ADD SWAP1 DUP2 MSTORE PUSH1 0x20 ADD PUSH1 0x0 KECCAK256 PUSH1 0x0 DUP3 DUP3 SLOAD SUB SWAP3 POP POP DUP2 SWAP1 SSTORE POP JUMPDEST PUSH1 0x0 PUSH20 0xFFFFFFFFFFFFFFFFFFFFFFFFFFFFFFFFFFFFFFFF AND DUP6 PUSH20 0xFFFFFFFFFFFFFFFFFFFFFFFFFFFFFFFFFFFFFFFF AND EQ PUSH2 0x12A1 JUMPI PUSH1 0x1 PUSH1 0x4 PUSH1 0x0 DUP8 PUSH20 0xFFFFFFFFFFFFFFFFFFFFFFFFFFFFFFFFFFFFFFFF AND PUSH20 0xFFFFFFFFFFFFFFFFFFFFFFFFFFFFFFFFFFFFFFFF AND DUP2 MSTORE PUSH1 0x20 ADD SWAP1 DUP2 MSTORE PUSH1 0x20 ADD PUSH1 0x0 KECCAK256 PUSH1 0x0 DUP3 DUP3 SLOAD ADD SWAP3 POP POP DUP2 SWAP1 SSTORE POP JUMPDEST DUP5 PUSH1 0x3 PUSH1 0x0 DUP7 DUP2 MSTORE PUSH1 0x20 ADD SWAP1 DUP2 MSTORE PUSH1 0x20 ADD PUSH1 0x0 KECCAK256 PUSH1 0x0 PUSH2 0x100 EXP DUP2 SLOAD DUP2 PUSH20 0xFFFFFFFFFFFFFFFFFFFFFFFFFFFFFFFFFFFFFFFF MUL NOT AND SWAP1 DUP4 PUSH20 0xFFFFFFFFFFFFFFFFFFFFFFFFFFFFFFFFFFFFFFFF AND MUL OR SWAP1 SSTORE POP DUP4 DUP6 PUSH20 0xFFFFFFFFFFFFFFFFFFFFFFFFFFFFFFFFFFFFFFFF AND DUP3 PUSH20 0xFFFFFFFFFFFFFFFFFFFFFFFFFFFFFFFFFFFFFFFF AND PUSH32 0xDDF252AD1BE2C89B69C2B068FC378DAA952BA7F163C4A11628F55A4DF523B3EF PUSH1 0x40 MLOAD PUSH1 0x40 MLOAD DUP1 SWAP2 SUB SWAP1 LOG4 DUP1 SWAP2 POP POP SWAP4 SWAP3 POP POP POP JUMP JUMPDEST PUSH2 0x1361 PUSH2 0x1125 JUMP JUMPDEST PUSH20 0xFFFFFFFFFFFFFFFFFFFFFFFFFFFFFFFFFFFFFFFF AND PUSH2 0x137F PUSH2 0xAE9 JUMP JUMPDEST PUSH20 0xFFFFFFFFFFFFFFFFFFFFFFFFFFFFFFFFFFFFFFFF AND EQ PUSH2 0x13DE JUMPI PUSH2 0x13A2 PUSH2 0x1125 JUMP JUMPDEST PUSH1 0x40 MLOAD PUSH32 0x118CDAA700000000000000000000000000000000000000000000000000000000 DUP2 MSTORE PUSH1 0x4 ADD PUSH2 0x13D5 SWAP2 SWAP1 PUSH2 0x2397 JUMP JUMPDEST PUSH1 0x40 MLOAD DUP1 SWAP2 SUB SWAP1 REVERT JUMPDEST JUMP JUMPDEST PUSH1 0x0 DUP1 PUSH1 0x0 SWAP1 SLOAD SWAP1 PUSH2 0x100 EXP SWAP1 DIV PUSH20 0xFFFFFFFFFFFFFFFFFFFFFFFFFFFFFFFFFFFFFFFF AND SWAP1 POP DUP2 PUSH1 0x0 DUP1 PUSH2 0x100 EXP DUP2 SLOAD DUP2 PUSH20 0xFFFFFFFFFFFFFFFFFFFFFFFFFFFFFFFFFFFFFFFF MUL NOT AND SWAP1 DUP4 PUSH20 0xFFFFFFFFFFFFFFFFFFFFFFFFFFFFFFFFFFFFFFFF AND MUL OR SWAP1 SSTORE POP DUP2 PUSH20 0xFFFFFFFFFFFFFFFFFFFFFFFFFFFFFFFFFFFFFFFF AND DUP2 PUSH20 0xFFFFFFFFFFFFFFFFFFFFFFFFFFFFFFFFFFFFFFFF AND PUSH32 0x8BE0079C531659141344CD1FD0A4F28419497F9722A3DAAFE3B4186F6B6457E0 PUSH1 0x40 MLOAD PUSH1 0x40 MLOAD DUP1 SWAP2 SUB SWAP1 LOG3 POP POP JUMP JUMPDEST PUSH1 0x0 PUSH20 0xFFFFFFFFFFFFFFFFFFFFFFFFFFFFFFFFFFFFFFFF AND DUP3 PUSH20 0xFFFFFFFFFFFFFFFFFFFFFFFFFFFFFFFFFFFFFFFF AND SUB PUSH2 0x1515 JUMPI DUP2 PUSH1 0x40 MLOAD PUSH32 0x5B08BA1800000000000000000000000000000000000000000000000000000000 DUP2 MSTORE PUSH1 0x4 ADD PUSH2 0x150C SWAP2 SWAP1 PUSH2 0x2397 JUMP JUMPDEST PUSH1 0x40 MLOAD DUP1 SWAP2 SUB SWAP1 REVERT JUMPDEST DUP1 PUSH1 0x6 PUSH1 0x0 DUP6 PUSH20 0xFFFFFFFFFFFFFFFFFFFFFFFFFFFFFFFFFFFFFFFF AND PUSH20 0xFFFFFFFFFFFFFFFFFFFFFFFFFFFFFFFFFFFFFFFF AND DUP2 MSTORE PUSH1 0x20 ADD SWAP1 DUP2 MSTORE PUSH1 0x20 ADD PUSH1 0x0 KECCAK256 PUSH1 0x0 DUP5 PUSH20 0xFFFFFFFFFFFFFFFFFFFFFFFFFFFFFFFFFFFFFFFF AND PUSH20 0xFFFFFFFFFFFFFFFFFFFFFFFFFFFFFFFFFFFFFFFF AND DUP2 MSTORE PUSH1 0x20 ADD SWAP1 DUP2 MSTORE PUSH1 0x20 ADD PUSH1 0x0 KECCAK256 PUSH1 0x0 PUSH2 0x100 EXP DUP2 SLOAD DUP2 PUSH1 0xFF MUL NOT AND SWAP1 DUP4 ISZERO ISZERO MUL OR SWAP1 SSTORE POP DUP2 PUSH20 0xFFFFFFFFFFFFFFFFFFFFFFFFFFFFFFFFFFFFFFFF AND DUP4 PUSH20 0xFFFFFFFFFFFFFFFFFFFFFFFFFFFFFFFFFFFFFFFF AND PUSH32 0x17307EAB39AB6107E8899845AD3D59BD9653F200F220920489CA2B5937696C31 DUP4 PUSH1 0x40 MLOAD PUSH2 0x1606 SWAP2 SWAP1 PUSH2 0x2237 JUMP JUMPDEST PUSH1 0x40 MLOAD DUP1 SWAP2 SUB SWAP1 LOG3 POP POP POP JUMP JUMPDEST PUSH1 0x0 DUP4 PUSH20 0xFFFFFFFFFFFFFFFFFFFFFFFFFFFFFFFFFFFFFFFF AND EXTCODESIZE GT ISZERO PUSH2 0x17C4 JUMPI DUP3 PUSH20 0xFFFFFFFFFFFFFFFFFFFFFFFFFFFFFFFFFFFFFFFF AND PUSH4 0x150B7A02 PUSH2 0x1657 PUSH2 0x1125 JUMP JUMPDEST DUP7 DUP6 DUP6 PUSH1 0x40 MLOAD DUP6 PUSH4 0xFFFFFFFF AND PUSH1 0xE0 SHL DUP2 MSTORE PUSH1 0x4 ADD PUSH2 0x1679 SWAP5 SWAP4 SWAP3 SWAP2 SWAP1 PUSH2 0x2EC4 JUMP JUMPDEST PUSH1 0x20 PUSH1 0x40 MLOAD DUP1 DUP4 SUB DUP2 PUSH1 0x0 DUP8 GAS CALL SWAP3 POP POP POP DUP1 ISZERO PUSH2 0x16B5 JUMPI POP PUSH1 0x40 MLOAD RETURNDATASIZE PUSH1 0x1F NOT PUSH1 0x1F DUP3 ADD AND DUP3 ADD DUP1 PUSH1 0x40 MSTORE POP DUP2 ADD SWAP1 PUSH2 0x16B2 SWAP2 SWAP1 PUSH2 0x2F25 JUMP JUMPDEST PUSH1 0x1 JUMPDEST PUSH2 0x1739 JUMPI RETURNDATASIZE DUP1 PUSH1 0x0 DUP2 EQ PUSH2 0x16E5 JUMPI PUSH1 0x40 MLOAD SWAP2 POP PUSH1 0x1F NOT PUSH1 0x3F RETURNDATASIZE ADD AND DUP3 ADD PUSH1 0x40 MSTORE RETURNDATASIZE DUP3 MSTORE RETURNDATASIZE PUSH1 0x0 PUSH1 0x20 DUP5 ADD RETURNDATACOPY PUSH2 0x16EA JUMP JUMPDEST PUSH1 0x60 SWAP2 POP JUMPDEST POP PUSH1 0x0 DUP2 MLOAD SUB PUSH2 0x1731 JUMPI DUP4 PUSH1 0x40 MLOAD PUSH32 0x64A0AE9200000000000000000000000000000000000000000000000000000000 DUP2 MSTORE PUSH1 0x4 ADD PUSH2 0x1728 SWAP2 SWAP1 PUSH2 0x2397 JUMP JUMPDEST PUSH1 0x40 MLOAD DUP1 SWAP2 SUB SWAP1 REVERT JUMPDEST DUP1 MLOAD DUP2 PUSH1 0x20 ADD REVERT JUMPDEST PUSH4 0x150B7A02 PUSH1 0xE0 SHL PUSH28 0xFFFFFFFFFFFFFFFFFFFFFFFFFFFFFFFFFFFFFFFFFFFFFFFFFFFFFFFF NOT AND DUP2 PUSH28 0xFFFFFFFFFFFFFFFFFFFFFFFFFFFFFFFFFFFFFFFFFFFFFFFFFFFFFFFF NOT AND EQ PUSH2 0x17C2 JUMPI DUP4 PUSH1 0x40 MLOAD PUSH32 0x64A0AE9200000000000000000000000000000000000000000000000000000000 DUP2 MSTORE PUSH1 0x4 ADD PUSH2 0x17B9 SWAP2 SWAP1 PUSH2 0x2397 JUMP JUMPDEST PUSH1 0x40 MLOAD DUP1 SWAP2 SUB SWAP1 REVERT JUMPDEST POP JUMPDEST POP POP POP POP JUMP JUMPDEST PUSH1 0x0 PUSH2 0x17D9 PUSH1 0x0 DUP4 PUSH1 0x0 PUSH2 0x113F JUMP JUMPDEST SWAP1 POP PUSH1 0x0 PUSH20 0xFFFFFFFFFFFFFFFFFFFFFFFFFFFFFFFFFFFFFFFF AND DUP2 PUSH20 0xFFFFFFFFFFFFFFFFFFFFFFFFFFFFFFFFFFFFFFFF AND SUB PUSH2 0x184C JUMPI DUP2 PUSH1 0x40 MLOAD PUSH32 0x7E27328900000000000000000000000000000000000000000000000000000000 DUP2 MSTORE PUSH1 0x4 ADD PUSH2 0x1843 SWAP2 SWAP1 PUSH2 0x2698 JUMP JUMPDEST PUSH1 0x40 MLOAD DUP1 SWAP2 SUB SWAP1 REVERT JUMPDEST POP POP JUMP JUMPDEST PUSH1 0x60 PUSH1 0x40 MLOAD DUP1 PUSH1 0x20 ADD PUSH1 0x40 MSTORE DUP1 PUSH1 0x0 DUP2 MSTORE POP SWAP1 POP SWAP1 JUMP JUMPDEST PUSH1 0x60 PUSH1 0x0 PUSH1 0x1 PUSH2 0x1876 DUP5 PUSH2 0x1C17 JUMP JUMPDEST ADD SWAP1 POP PUSH1 0x0 DUP2 PUSH8 0xFFFFFFFFFFFFFFFF DUP2 GT ISZERO PUSH2 0x1895 JUMPI PUSH2 0x1894 PUSH2 0x1F8D JUMP JUMPDEST JUMPDEST PUSH1 0x40 MLOAD SWAP1 DUP1 DUP3 MSTORE DUP1 PUSH1 0x1F ADD PUSH1 0x1F NOT AND PUSH1 0x20 ADD DUP3 ADD PUSH1 0x40 MSTORE DUP1 ISZERO PUSH2 0x18C7 JUMPI DUP2 PUSH1 0x20 ADD PUSH1 0x1 DUP3 MUL DUP1 CALLDATASIZE DUP4 CALLDATACOPY DUP1 DUP3 ADD SWAP2 POP POP SWAP1 POP JUMPDEST POP SWAP1 POP PUSH1 0x0 DUP3 PUSH1 0x20 ADD DUP3 ADD SWAP1 POP JUMPDEST PUSH1 0x1 ISZERO PUSH2 0x192A JUMPI DUP1 DUP1 PUSH1 0x1 SWAP1 SUB SWAP2 POP POP PUSH32 0x3031323334353637383961626364656600000000000000000000000000000000 PUSH1 0xA DUP7 MOD BYTE DUP2 MSTORE8 PUSH1 0xA DUP6 DUP2 PUSH2 0x191E JUMPI PUSH2 0x191D PUSH2 0x2F52 JUMP JUMPDEST JUMPDEST DIV SWAP5 POP PUSH1 0x0 DUP6 SUB PUSH2 0x18D5 JUMPI JUMPDEST DUP2 SWAP4 POP POP POP POP SWAP2 SWAP1 POP JUMP JUMPDEST PUSH2 0x193F DUP4 DUP4 PUSH2 0x1D6A JUMP JUMPDEST PUSH2 0x194C PUSH1 0x0 DUP5 DUP5 DUP5 PUSH2 0x1613 JUMP JUMPDEST POP POP POP JUMP JUMPDEST PUSH1 0x0 PUSH1 0x3 PUSH1 0x0 DUP4 DUP2 MSTORE PUSH1 0x20 ADD SWAP1 DUP2 MSTORE PUSH1 0x20 ADD PUSH1 0x0 KECCAK256 PUSH1 0x0 SWAP1 SLOAD SWAP1 PUSH2 0x100 EXP SWAP1 DIV PUSH20 0xFFFFFFFFFFFFFFFFFFFFFFFFFFFFFFFFFFFFFFFF AND SWAP1 POP SWAP2 SWAP1 POP JUMP JUMPDEST DUP1 DUP1 PUSH2 0x19C7 JUMPI POP PUSH1 0x0 PUSH20 0xFFFFFFFFFFFFFFFFFFFFFFFFFFFFFFFFFFFFFFFF AND DUP3 PUSH20 0xFFFFFFFFFFFFFFFFFFFFFFFFFFFFFFFFFFFFFFFF AND EQ ISZERO JUMPDEST ISZERO PUSH2 0x1AFB JUMPI PUSH1 0x0 PUSH2 0x19D7 DUP5 PUSH2 0x1060 JUMP JUMPDEST SWAP1 POP PUSH1 0x0 PUSH20 0xFFFFFFFFFFFFFFFFFFFFFFFFFFFFFFFFFFFFFFFF AND DUP4 PUSH20 0xFFFFFFFFFFFFFFFFFFFFFFFFFFFFFFFFFFFFFFFF AND EQ ISZERO DUP1 ISZERO PUSH2 0x1A42 JUMPI POP DUP3 PUSH20 0xFFFFFFFFFFFFFFFFFFFFFFFFFFFFFFFFFFFFFFFF AND DUP2 PUSH20 0xFFFFFFFFFFFFFFFFFFFFFFFFFFFFFFFFFFFFFFFF AND EQ ISZERO JUMPDEST DUP1 ISZERO PUSH2 0x1A55 JUMPI POP PUSH2 0x1A53 DUP2 DUP5 PUSH2 0xEBE JUMP JUMPDEST ISZERO JUMPDEST ISZERO PUSH2 0x1A97 JUMPI DUP3 PUSH1 0x40 MLOAD PUSH32 0xA9FBF51F00000000000000000000000000000000000000000000000000000000 DUP2 MSTORE PUSH1 0x4 ADD PUSH2 0x1A8E SWAP2 SWAP1 PUSH2 0x2397 JUMP JUMPDEST PUSH1 0x40 MLOAD DUP1 SWAP2 SUB SWAP1 REVERT JUMPDEST DUP2 ISZERO PUSH2 0x1AF9 JUMPI DUP4 DUP6 PUSH20 0xFFFFFFFFFFFFFFFFFFFFFFFFFFFFFFFFFFFFFFFF AND DUP3 PUSH20 0xFFFFFFFFFFFFFFFFFFFFFFFFFFFFFFFFFFFFFFFF AND PUSH32 0x8C5BE1E5EBEC7D5BD14F71427D1E84F3DD0314C0F7B2291E5B200AC8C7C3B925 PUSH1 0x40 MLOAD PUSH1 0x40 MLOAD DUP1 SWAP2 SUB SWAP1 LOG4 JUMPDEST POP JUMPDEST DUP4 PUSH1 0x5 PUSH1 0x0 DUP6 DUP2 MSTORE PUSH1 0x20 ADD SWAP1 DUP2 MSTORE PUSH1 0x20 ADD PUSH1 0x0 KECCAK256 PUSH1 0x0 PUSH2 0x100 EXP DUP2 SLOAD DUP2 PUSH20 0xFFFFFFFFFFFFFFFFFFFFFFFFFFFFFFFFFFFFFFFF MUL NOT AND SWAP1 DUP4 PUSH20 0xFFFFFFFFFFFFFFFFFFFFFFFFFFFFFFFFFFFFFFFF AND MUL OR SWAP1 SSTORE POP POP POP POP POP JUMP JUMPDEST PUSH2 0x1B5E DUP4 DUP4 DUP4 PUSH2 0x1E63 JUMP JUMPDEST PUSH2 0x1C12 JUMPI PUSH1 0x0 PUSH20 0xFFFFFFFFFFFFFFFFFFFFFFFFFFFFFFFFFFFFFFFF AND DUP4 PUSH20 0xFFFFFFFFFFFFFFFFFFFFFFFFFFFFFFFFFFFFFFFF AND SUB PUSH2 0x1BD3 JUMPI DUP1 PUSH1 0x40 MLOAD PUSH32 0x7E27328900000000000000000000000000000000000000000000000000000000 DUP2 MSTORE PUSH1 0x4 ADD PUSH2 0x1BCA SWAP2 SWAP1 PUSH2 0x2698 JUMP JUMPDEST PUSH1 0x40 MLOAD DUP1 SWAP2 SUB SWAP1 REVERT JUMPDEST DUP2 DUP2 PUSH1 0x40 MLOAD PUSH32 0x177E802F00000000000000000000000000000000000000000000000000000000 DUP2 MSTORE PUSH1 0x4 ADD PUSH2 0x1C09 SWAP3 SWAP2 SWAP1 PUSH2 0x2BFA JUMP JUMPDEST PUSH1 0x40 MLOAD DUP1 SWAP2 SUB SWAP1 REVERT JUMPDEST POP POP POP JUMP JUMPDEST PUSH1 0x0 DUP1 PUSH1 0x0 SWAP1 POP PUSH27 0x184F03E93FF9F4DAA797ED6E38ED64BF6A1F010000000000000000 DUP4 LT PUSH2 0x1C75 JUMPI PUSH27 0x184F03E93FF9F4DAA797ED6E38ED64BF6A1F010000000000000000 DUP4 DUP2 PUSH2 0x1C6B JUMPI PUSH2 0x1C6A PUSH2 0x2F52 JUMP JUMPDEST JUMPDEST DIV SWAP3 POP PUSH1 0x40 DUP2 ADD SWAP1 POP JUMPDEST PUSH14 0x4EE2D6D415B85ACEF8100000000 DUP4 LT PUSH2 0x1CB2 JUMPI PUSH14 0x4EE2D6D415B85ACEF8100000000 DUP4 DUP2 PUSH2 0x1CA8 JUMPI PUSH2 0x1CA7 PUSH2 0x2F52 JUMP JUMPDEST JUMPDEST DIV SWAP3 POP PUSH1 0x20 DUP2 ADD SWAP1 POP JUMPDEST PUSH7 0x2386F26FC10000 DUP4 LT PUSH2 0x1CE1 JUMPI PUSH7 0x2386F26FC10000 DUP4 DUP2 PUSH2 0x1CD7 JUMPI PUSH2 0x1CD6 PUSH2 0x2F52 JUMP JUMPDEST JUMPDEST DIV SWAP3 POP PUSH1 0x10 DUP2 ADD SWAP1 POP JUMPDEST PUSH4 0x5F5E100 DUP4 LT PUSH2 0x1D0A JUMPI PUSH4 0x5F5E100 DUP4 DUP2 PUSH2 0x1D00 JUMPI PUSH2 0x1CFF PUSH2 0x2F52 JUMP JUMPDEST JUMPDEST DIV SWAP3 POP PUSH1 0x8 DUP2 ADD SWAP1 POP JUMPDEST PUSH2 0x2710 DUP4 LT PUSH2 0x1D2F JUMPI PUSH2 0x2710 DUP4 DUP2 PUSH2 0x1D25 JUMPI PUSH2 0x1D24 PUSH2 0x2F52 JUMP JUMPDEST JUMPDEST DIV SWAP3 POP PUSH1 0x4 DUP2 ADD SWAP1 POP JUMPDEST PUSH1 0x64 DUP4 LT PUSH2 0x1D52 JUMPI PUSH1 0x64 DUP4 DUP2 PUSH2 0x1D48 JUMPI PUSH2 0x1D47 PUSH2 0x2F52 JUMP JUMPDEST JUMPDEST DIV SWAP3 POP PUSH1 0x2 DUP2 ADD SWAP1 POP JUMPDEST PUSH1 0xA DUP4 LT PUSH2 0x1D61 JUMPI PUSH1 0x1 DUP2 ADD SWAP1 POP JUMPDEST DUP1 SWAP2 POP POP SWAP2 SWAP1 POP JUMP JUMPDEST PUSH1 0x0 PUSH20 0xFFFFFFFFFFFFFFFFFFFFFFFFFFFFFFFFFFFFFFFF AND DUP3 PUSH20 0xFFFFFFFFFFFFFFFFFFFFFFFFFFFFFFFFFFFFFFFF AND SUB PUSH2 0x1DDC JUMPI PUSH1 0x0 PUSH1 0x40 MLOAD PUSH32 0x64A0AE9200000000000000000000000000000000000000000000000000000000 DUP2 MSTORE PUSH1 0x4 ADD PUSH2 0x1DD3 SWAP2 SWAP1 PUSH2 0x2397 JUMP JUMPDEST PUSH1 0x40 MLOAD DUP1 SWAP2 SUB SWAP1 REVERT JUMPDEST PUSH1 0x0 PUSH2 0x1DEA DUP4 DUP4 PUSH1 0x0 PUSH2 0x113F JUMP JUMPDEST SWAP1 POP PUSH1 0x0 PUSH20 0xFFFFFFFFFFFFFFFFFFFFFFFFFFFFFFFFFFFFFFFF AND DUP2 PUSH20 0xFFFFFFFFFFFFFFFFFFFFFFFFFFFFFFFFFFFFFFFF AND EQ PUSH2 0x1E5E JUMPI PUSH1 0x0 PUSH1 0x40 MLOAD PUSH32 0x73C6AC6E00000000000000000000000000000000000000000000000000000000 DUP2 MSTORE PUSH1 0x4 ADD PUSH2 0x1E55 SWAP2 SWAP1 PUSH2 0x2397 JUMP JUMPDEST PUSH1 0x40 MLOAD DUP1 SWAP2 SUB SWAP1 REVERT JUMPDEST POP POP POP JUMP JUMPDEST PUSH1 0x0 DUP1 PUSH20 0xFFFFFFFFFFFFFFFFFFFFFFFFFFFFFFFFFFFFFFFF AND DUP4 PUSH20 0xFFFFFFFFFFFFFFFFFFFFFFFFFFFFFFFFFFFFFFFF AND EQ ISZERO DUP1 ISZERO PUSH2 0x1F1B JUMPI POP DUP3 PUSH20 0xFFFFFFFFFFFFFFFFFFFFFFFFFFFFFFFFFFFFFFFF AND DUP5 PUSH20 0xFFFFFFFFFFFFFFFFFFFFFFFFFFFFFFFFFFFFFFFF AND EQ DUP1 PUSH2 0x1EDC JUMPI POP PUSH2 0x1EDB DUP5 DUP5 PUSH2 0xEBE JUMP JUMPDEST JUMPDEST DUP1 PUSH2 0x1F1A JUMPI POP DUP3 PUSH20 0xFFFFFFFFFFFFFFFFFFFFFFFFFFFFFFFFFFFFFFFF AND PUSH2 0x1F02 DUP4 PUSH2 0x10E8 JUMP JUMPDEST PUSH20 0xFFFFFFFFFFFFFFFFFFFFFFFFFFFFFFFFFFFFFFFF AND EQ JUMPDEST JUMPDEST SWAP1 POP SWAP4 SWAP3 POP POP POP JUMP JUMPDEST PUSH1 0x0 PUSH1 0x40 MLOAD SWAP1 POP SWAP1 JUMP JUMPDEST PUSH1 0x0 DUP1 REVERT JUMPDEST PUSH1 0x0 DUP1 REVERT JUMPDEST PUSH1 0x0 PUSH2 0xFFFF DUP3 AND SWAP1 POP SWAP2 SWAP1 POP JUMP JUMPDEST PUSH2 0x1F4F DUP2 PUSH2 0x1F38 JUMP JUMPDEST DUP2 EQ PUSH2 0x1F5A JUMPI PUSH1 0x0 DUP1 REVERT JUMPDEST POP JUMP JUMPDEST PUSH1 0x0 DUP2 CALLDATALOAD SWAP1 POP PUSH2 0x1F6C DUP2 PUSH2 0x1F46 JUMP JUMPDEST SWAP3 SWAP2 POP POP JUMP JUMPDEST PUSH1 0x0 DUP1 REVERT JUMPDEST PUSH1 0x0 DUP1 REVERT JUMPDEST PUSH1 0x0 PUSH1 0x1F NOT PUSH1 0x1F DUP4 ADD AND SWAP1 POP SWAP2 SWAP1 POP JUMP JUMPDEST PUSH32 0x4E487B7100000000000000000000000000000000000000000000000000000000 PUSH1 0x0 MSTORE PUSH1 0x41 PUSH1 0x4 MSTORE PUSH1 0x24 PUSH1 0x0 REVERT JUMPDEST PUSH2 0x1FC5 DUP3 PUSH2 0x1F7C JUMP JUMPDEST DUP2 ADD DUP2 DUP2 LT PUSH8 0xFFFFFFFFFFFFFFFF DUP3 GT OR ISZERO PUSH2 0x1FE4 JUMPI PUSH2 0x1FE3 PUSH2 0x1F8D JUMP JUMPDEST JUMPDEST DUP1 PUSH1 0x40 MSTORE POP POP POP JUMP JUMPDEST PUSH1 0x0 PUSH2 0x1FF7 PUSH2 0x1F24 JUMP JUMPDEST SWAP1 POP PUSH2 0x2003 DUP3 DUP3 PUSH2 0x1FBC JUMP JUMPDEST SWAP2 SWAP1 POP JUMP JUMPDEST PUSH1 0x0 PUSH8 0xFFFFFFFFFFFFFFFF DUP3 GT ISZERO PUSH2 0x2023 JUMPI PUSH2 0x2022 PUSH2 0x1F8D JUMP JUMPDEST JUMPDEST PUSH2 0x202C DUP3 PUSH2 0x1F7C JUMP JUMPDEST SWAP1 POP PUSH1 0x20 DUP2 ADD SWAP1 POP SWAP2 SWAP1 POP JUMP JUMPDEST DUP3 DUP2 DUP4 CALLDATACOPY PUSH1 0x0 DUP4 DUP4 ADD MSTORE POP POP POP JUMP JUMPDEST PUSH1 0x0 PUSH2 0x205B PUSH2 0x2056 DUP5 PUSH2 0x2008 JUMP JUMPDEST PUSH2 0x1FED JUMP JUMPDEST SWAP1 POP DUP3 DUP2 MSTORE PUSH1 0x20 DUP2 ADD DUP5 DUP5 DUP5 ADD GT ISZERO PUSH2 0x2077 JUMPI PUSH2 0x2076 PUSH2 0x1F77 JUMP JUMPDEST JUMPDEST PUSH2 0x2082 DUP5 DUP3 DUP6 PUSH2 0x2039 JUMP JUMPDEST POP SWAP4 SWAP3 POP POP POP JUMP JUMPDEST PUSH1 0x0 DUP3 PUSH1 0x1F DUP4 ADD SLT PUSH2 0x209F JUMPI PUSH2 0x209E PUSH2 0x1F72 JUMP JUMPDEST JUMPDEST DUP2 CALLDATALOAD PUSH2 0x20AF DUP5 DUP3 PUSH1 0x20 DUP7 ADD PUSH2 0x2048 JUMP JUMPDEST SWAP2 POP POP SWAP3 SWAP2 POP POP JUMP JUMPDEST PUSH1 0x0 PUSH8 0xFFFFFFFFFFFFFFFF DUP3 AND SWAP1 POP SWAP2 SWAP1 POP JUMP JUMPDEST PUSH2 0x20D5 DUP2 PUSH2 0x20B8 JUMP JUMPDEST DUP2 EQ PUSH2 0x20E0 JUMPI PUSH1 0x0 DUP1 REVERT JUMPDEST POP JUMP JUMPDEST PUSH1 0x0 DUP2 CALLDATALOAD SWAP1 POP PUSH2 0x20F2 DUP2 PUSH2 0x20CC JUMP JUMPDEST SWAP3 SWAP2 POP POP JUMP JUMPDEST PUSH1 0x0 DUP1 PUSH1 0x0 DUP1 PUSH1 0x80 DUP6 DUP8 SUB SLT ISZERO PUSH2 0x2112 JUMPI PUSH2 0x2111 PUSH2 0x1F2E JUMP JUMPDEST JUMPDEST PUSH1 0x0 PUSH2 0x2120 DUP8 DUP3 DUP9 ADD PUSH2 0x1F5D JUMP JUMPDEST SWAP5 POP POP PUSH1 0x20 DUP6 ADD CALLDATALOAD PUSH8 0xFFFFFFFFFFFFFFFF DUP2 GT ISZERO PUSH2 0x2141 JUMPI PUSH2 0x2140 PUSH2 0x1F33 JUMP JUMPDEST JUMPDEST PUSH2 0x214D DUP8 DUP3 DUP9 ADD PUSH2 0x208A JUMP JUMPDEST SWAP4 POP POP PUSH1 0x40 PUSH2 0x215E DUP8 DUP3 DUP9 ADD PUSH2 0x20E3 JUMP JUMPDEST SWAP3 POP POP PUSH1 0x60 DUP6 ADD CALLDATALOAD PUSH8 0xFFFFFFFFFFFFFFFF DUP2 GT ISZERO PUSH2 0x217F JUMPI PUSH2 0x217E PUSH2 0x1F33 JUMP JUMPDEST JUMPDEST PUSH2 0x218B DUP8 DUP3 DUP9 ADD PUSH2 0x208A JUMP JUMPDEST SWAP2 POP POP SWAP3 SWAP6 SWAP2 SWAP5 POP SWAP3 POP JUMP JUMPDEST PUSH1 0x0 PUSH32 0xFFFFFFFF00000000000000000000000000000000000000000000000000000000 DUP3 AND SWAP1 POP SWAP2 SWAP1 POP JUMP JUMPDEST PUSH2 0x21CC DUP2 PUSH2 0x2197 JUMP JUMPDEST DUP2 EQ PUSH2 0x21D7 JUMPI PUSH1 0x0 DUP1 REVERT JUMPDEST POP JUMP JUMPDEST PUSH1 0x0 DUP2 CALLDATALOAD SWAP1 POP PUSH2 0x21E9 DUP2 PUSH2 0x21C3 JUMP JUMPDEST SWAP3 SWAP2 POP POP JUMP JUMPDEST PUSH1 0x0 PUSH1 0x20 DUP3 DUP5 SUB SLT ISZERO PUSH2 0x2205 JUMPI PUSH2 0x2204 PUSH2 0x1F2E JUMP JUMPDEST JUMPDEST PUSH1 0x0 PUSH2 0x2213 DUP5 DUP3 DUP6 ADD PUSH2 0x21DA JUMP JUMPDEST SWAP2 POP POP SWAP3 SWAP2 POP POP JUMP JUMPDEST PUSH1 0x0 DUP2 ISZERO ISZERO SWAP1 POP SWAP2 SWAP1 POP JUMP JUMPDEST PUSH2 0x2231 DUP2 PUSH2 0x221C JUMP JUMPDEST DUP3 MSTORE POP POP JUMP JUMPDEST PUSH1 0x0 PUSH1 0x20 DUP3 ADD SWAP1 POP PUSH2 0x224C PUSH1 0x0 DUP4 ADD DUP5 PUSH2 0x2228 JUMP JUMPDEST SWAP3 SWAP2 POP POP JUMP JUMPDEST PUSH1 0x0 DUP2 MLOAD SWAP1 POP SWAP2 SWAP1 POP JUMP JUMPDEST PUSH1 0x0 DUP3 DUP3 MSTORE PUSH1 0x20 DUP3 ADD SWAP1 POP SWAP3 SWAP2 POP POP JUMP JUMPDEST PUSH1 0x0 JUMPDEST DUP4 DUP2 LT ISZERO PUSH2 0x228C JUMPI DUP1 DUP3 ADD MLOAD DUP2 DUP5 ADD MSTORE PUSH1 0x20 DUP2 ADD SWAP1 POP PUSH2 0x2271 JUMP JUMPDEST PUSH1 0x0 DUP5 DUP5 ADD MSTORE POP POP POP POP JUMP JUMPDEST PUSH1 0x0 PUSH2 0x22A3 DUP3 PUSH2 0x2252 JUMP JUMPDEST PUSH2 0x22AD DUP2 DUP6 PUSH2 0x225D JUMP JUMPDEST SWAP4 POP PUSH2 0x22BD DUP2 DUP6 PUSH1 0x20 DUP7 ADD PUSH2 0x226E JUMP JUMPDEST PUSH2 0x22C6 DUP2 PUSH2 0x1F7C JUMP JUMPDEST DUP5 ADD SWAP2 POP POP SWAP3 SWAP2 POP POP JUMP JUMPDEST PUSH1 0x0 PUSH1 0x20 DUP3 ADD SWAP1 POP DUP2 DUP2 SUB PUSH1 0x0 DUP4 ADD MSTORE PUSH2 0x22EB DUP2 DUP5 PUSH2 0x2298 JUMP JUMPDEST SWAP1 POP SWAP3 SWAP2 POP POP JUMP JUMPDEST PUSH1 0x0 DUP2 SWAP1 POP SWAP2 SWAP1 POP JUMP JUMPDEST PUSH2 0x2306 DUP2 PUSH2 0x22F3 JUMP JUMPDEST DUP2 EQ PUSH2 0x2311 JUMPI PUSH1 0x0 DUP1 REVERT JUMPDEST POP JUMP JUMPDEST PUSH1 0x0 DUP2 CALLDATALOAD SWAP1 POP PUSH2 0x2323 DUP2 PUSH2 0x22FD JUMP JUMPDEST SWAP3 SWAP2 POP POP JUMP JUMPDEST PUSH1 0x0 PUSH1 0x20 DUP3 DUP5 SUB SLT ISZERO PUSH2 0x233F JUMPI PUSH2 0x233E PUSH2 0x1F2E JUMP JUMPDEST JUMPDEST PUSH1 0x0 PUSH2 0x234D DUP5 DUP3 DUP6 ADD PUSH2 0x2314 JUMP JUMPDEST SWAP2 POP POP SWAP3 SWAP2 POP POP JUMP JUMPDEST PUSH1 0x0 PUSH20 0xFFFFFFFFFFFFFFFFFFFFFFFFFFFFFFFFFFFFFFFF DUP3 AND SWAP1 POP SWAP2 SWAP1 POP JUMP JUMPDEST PUSH1 0x0 PUSH2 0x2381 DUP3 PUSH2 0x2356 JUMP JUMPDEST SWAP1 POP SWAP2 SWAP1 POP JUMP JUMPDEST PUSH2 0x2391 DUP2 PUSH2 0x2376 JUMP JUMPDEST DUP3 MSTORE POP POP JUMP JUMPDEST PUSH1 0x0 PUSH1 0x20 DUP3 ADD SWAP1 POP PUSH2 0x23AC PUSH1 0x0 DUP4 ADD DUP5 PUSH2 0x2388 JUMP JUMPDEST SWAP3 SWAP2 POP POP JUMP JUMPDEST PUSH2 0x23BB DUP2 PUSH2 0x2376 JUMP JUMPDEST DUP2 EQ PUSH2 0x23C6 JUMPI PUSH1 0x0 DUP1 REVERT JUMPDEST POP JUMP JUMPDEST PUSH1 0x0 DUP2 CALLDATALOAD SWAP1 POP PUSH2 0x23D8 DUP2 PUSH2 0x23B2 JUMP JUMPDEST SWAP3 SWAP2 POP POP JUMP JUMPDEST PUSH1 0x0 DUP1 PUSH1 0x40 DUP4 DUP6 SUB SLT ISZERO PUSH2 0x23F5 JUMPI PUSH2 0x23F4 PUSH2 0x1F2E JUMP JUMPDEST JUMPDEST PUSH1 0x0 PUSH2 0x2403 DUP6 DUP3 DUP7 ADD PUSH2 0x23C9 JUMP JUMPDEST SWAP3 POP POP PUSH1 0x20 PUSH2 0x2414 DUP6 DUP3 DUP7 ADD PUSH2 0x2314 JUMP JUMPDEST SWAP2 POP POP SWAP3 POP SWAP3 SWAP1 POP JUMP JUMPDEST PUSH1 0x0 DUP1 PUSH1 0x0 PUSH1 0x60 DUP5 DUP7 SUB SLT ISZERO PUSH2 0x2437 JUMPI PUSH2 0x2436 PUSH2 0x1F2E JUMP JUMPDEST JUMPDEST PUSH1 0x0 PUSH2 0x2445 DUP7 DUP3 DUP8 ADD PUSH2 0x23C9 JUMP JUMPDEST SWAP4 POP POP PUSH1 0x20 PUSH2 0x2456 DUP7 DUP3 DUP8 ADD PUSH2 0x23C9 JUMP JUMPDEST SWAP3 POP POP PUSH1 0x40 PUSH2 0x2467 DUP7 DUP3 DUP8 ADD PUSH2 0x2314 JUMP JUMPDEST SWAP2 POP POP SWAP3 POP SWAP3 POP SWAP3 JUMP JUMPDEST PUSH1 0x0 DUP1 REVERT JUMPDEST PUSH1 0x0 DUP1 REVERT JUMPDEST PUSH1 0x0 DUP1 DUP4 PUSH1 0x1F DUP5 ADD SLT PUSH2 0x2491 JUMPI PUSH2 0x2490 PUSH2 0x1F72 JUMP JUMPDEST JUMPDEST DUP3 CALLDATALOAD SWAP1 POP PUSH8 0xFFFFFFFFFFFFFFFF DUP2 GT ISZERO PUSH2 0x24AE JUMPI PUSH2 0x24AD PUSH2 0x2471 JUMP JUMPDEST JUMPDEST PUSH1 0x20 DUP4 ADD SWAP2 POP DUP4 PUSH1 0x1 DUP3 MUL DUP4 ADD GT ISZERO PUSH2 0x24CA JUMPI PUSH2 0x24C9 PUSH2 0x2476 JUMP JUMPDEST JUMPDEST SWAP3 POP SWAP3 SWAP1 POP JUMP JUMPDEST PUSH2 0x24DA DUP2 PUSH2 0x221C JUMP JUMPDEST DUP2 EQ PUSH2 0x24E5 JUMPI PUSH1 0x0 DUP1 REVERT JUMPDEST POP JUMP JUMPDEST PUSH1 0x0 DUP2 CALLDATALOAD SWAP1 POP PUSH2 0x24F7 DUP2 PUSH2 0x24D1 JUMP JUMPDEST SWAP3 SWAP2 POP POP JUMP JUMPDEST PUSH1 0x0 DUP1 PUSH1 0x0 DUP1 PUSH1 0x0 DUP1 PUSH1 0x0 PUSH1 0xA0 DUP9 DUP11 SUB SLT ISZERO PUSH2 0x251C JUMPI PUSH2 0x251B PUSH2 0x1F2E JUMP JUMPDEST JUMPDEST PUSH1 0x0 PUSH2 0x252A DUP11 DUP3 DUP12 ADD PUSH2 0x1F5D JUMP JUMPDEST SWAP8 POP POP PUSH1 0x20 PUSH2 0x253B DUP11 DUP3 DUP12 ADD PUSH2 0x23C9 JUMP JUMPDEST SWAP7 POP POP PUSH1 0x40 DUP9 ADD CALLDATALOAD PUSH8 0xFFFFFFFFFFFFFFFF DUP2 GT ISZERO PUSH2 0x255C JUMPI PUSH2 0x255B PUSH2 0x1F33 JUMP JUMPDEST JUMPDEST PUSH2 0x2568 DUP11 DUP3 DUP12 ADD PUSH2 0x247B JUMP JUMPDEST SWAP6 POP SWAP6 POP POP PUSH1 0x60 PUSH2 0x257B DUP11 DUP3 DUP12 ADD PUSH2 0x24E8 JUMP JUMPDEST SWAP4 POP POP PUSH1 0x80 DUP9 ADD CALLDATALOAD PUSH8 0xFFFFFFFFFFFFFFFF DUP2 GT ISZERO PUSH2 0x259C JUMPI PUSH2 0x259B PUSH2 0x1F33 JUMP JUMPDEST JUMPDEST PUSH2 0x25A8 DUP11 DUP3 DUP12 ADD PUSH2 0x247B JUMP JUMPDEST SWAP3 POP SWAP3 POP POP SWAP3 SWAP6 SWAP9 SWAP2 SWAP5 SWAP8 POP SWAP3 SWAP6 POP JUMP JUMPDEST PUSH2 0x25C2 DUP2 PUSH2 0x22F3 JUMP JUMPDEST DUP3 MSTORE POP POP JUMP JUMPDEST PUSH1 0x0 PUSH1 0x40 DUP3 ADD SWAP1 POP PUSH2 0x25DD PUSH1 0x0 DUP4 ADD DUP6 PUSH2 0x25B9 JUMP JUMPDEST PUSH2 0x25EA PUSH1 0x20 DUP4 ADD DUP5 PUSH2 0x25B9 JUMP JUMPDEST SWAP4 SWAP3 POP POP POP JUMP JUMPDEST PUSH1 0x0 DUP2 SWAP1 POP SWAP2 SWAP1 POP JUMP JUMPDEST PUSH1 0x0 PUSH2 0x2616 PUSH2 0x2611 PUSH2 0x260C DUP5 PUSH2 0x2356 JUMP JUMPDEST PUSH2 0x25F1 JUMP JUMPDEST PUSH2 0x2356 JUMP JUMPDEST SWAP1 POP SWAP2 SWAP1 POP JUMP JUMPDEST PUSH1 0x0 PUSH2 0x2628 DUP3 PUSH2 0x25FB JUMP JUMPDEST SWAP1 POP SWAP2 SWAP1 POP JUMP JUMPDEST PUSH1 0x0 PUSH2 0x263A DUP3 PUSH2 0x261D JUMP JUMPDEST SWAP1 POP SWAP2 SWAP1 POP JUMP JUMPDEST PUSH2 0x264A DUP2 PUSH2 0x262F JUMP JUMPDEST DUP3 MSTORE POP POP JUMP JUMPDEST PUSH1 0x0 PUSH1 0x20 DUP3 ADD SWAP1 POP PUSH2 0x2665 PUSH1 0x0 DUP4 ADD DUP5 PUSH2 0x2641 JUMP JUMPDEST SWAP3 SWAP2 POP POP JUMP JUMPDEST PUSH1 0x0 PUSH1 0x20 DUP3 DUP5 SUB SLT ISZERO PUSH2 0x2681 JUMPI PUSH2 0x2680 PUSH2 0x1F2E JUMP JUMPDEST JUMPDEST PUSH1 0x0 PUSH2 0x268F DUP5 DUP3 DUP6 ADD PUSH2 0x23C9 JUMP JUMPDEST SWAP2 POP POP SWAP3 SWAP2 POP POP JUMP JUMPDEST PUSH1 0x0 PUSH1 0x20 DUP3 ADD SWAP1 POP PUSH2 0x26AD PUSH1 0x0 DUP4 ADD DUP5 PUSH2 0x25B9 JUMP JUMPDEST SWAP3 SWAP2 POP POP JUMP JUMPDEST PUSH1 0x0 DUP1 PUSH1 0x40 DUP4 DUP6 SUB SLT ISZERO PUSH2 0x26CA JUMPI PUSH2 0x26C9 PUSH2 0x1F2E JUMP JUMPDEST JUMPDEST PUSH1 0x0 PUSH2 0x26D8 DUP6 DUP3 DUP7 ADD PUSH2 0x23C9 JUMP JUMPDEST SWAP3 POP POP PUSH1 0x20 PUSH2 0x26E9 DUP6 DUP3 DUP7 ADD PUSH2 0x24E8 JUMP JUMPDEST SWAP2 POP POP SWAP3 POP SWAP3 SWAP1 POP JUMP JUMPDEST PUSH1 0x0 DUP1 PUSH1 0x0 DUP1 PUSH1 0x80 DUP6 DUP8 SUB SLT ISZERO PUSH2 0x270D JUMPI PUSH2 0x270C PUSH2 0x1F2E JUMP JUMPDEST JUMPDEST PUSH1 0x0 PUSH2 0x271B DUP8 DUP3 DUP9 ADD PUSH2 0x23C9 JUMP JUMPDEST SWAP5 POP POP PUSH1 0x20 PUSH2 0x272C DUP8 DUP3 DUP9 ADD PUSH2 0x23C9 JUMP JUMPDEST SWAP4 POP POP PUSH1 0x40 PUSH2 0x273D DUP8 DUP3 DUP9 ADD PUSH2 0x2314 JUMP JUMPDEST SWAP3 POP POP PUSH1 0x60 DUP6 ADD CALLDATALOAD PUSH8 0xFFFFFFFFFFFFFFFF DUP2 GT ISZERO PUSH2 0x275E JUMPI PUSH2 0x275D PUSH2 0x1F33 JUMP JUMPDEST JUMPDEST PUSH2 0x276A DUP8 DUP3 DUP9 ADD PUSH2 0x208A JUMP JUMPDEST SWAP2 POP POP SWAP3 SWAP6 SWAP2 SWAP5 POP SWAP3 POP JUMP JUMPDEST PUSH1 0x0 DUP1 PUSH1 0x0 DUP1 PUSH1 0x60 DUP6 DUP8 SUB SLT ISZERO PUSH2 0x2790 JUMPI PUSH2 0x278F PUSH2 0x1F2E JUMP JUMPDEST JUMPDEST PUSH1 0x0 PUSH2 0x279E DUP8 DUP3 DUP9 ADD PUSH2 0x1F5D JUMP JUMPDEST SWAP5 POP POP PUSH1 0x20 DUP6 ADD CALLDATALOAD PUSH8 0xFFFFFFFFFFFFFFFF DUP2 GT ISZERO PUSH2 0x27BF JUMPI PUSH2 0x27BE PUSH2 0x1F33 JUMP JUMPDEST JUMPDEST PUSH2 0x27CB DUP8 DUP3 DUP9 ADD PUSH2 0x247B JUMP JUMPDEST SWAP4 POP SWAP4 POP POP PUSH1 0x40 PUSH2 0x27DE DUP8 DUP3 DUP9 ADD PUSH2 0x2314 JUMP JUMPDEST SWAP2 POP POP SWAP3 SWAP6 SWAP2 SWAP5 POP SWAP3 POP JUMP JUMPDEST PUSH1 0x0 DUP1 PUSH1 0x40 DUP4 DUP6 SUB SLT ISZERO PUSH2 0x2801 JUMPI PUSH2 0x2800 PUSH2 0x1F2E JUMP JUMPDEST JUMPDEST PUSH1 0x0 PUSH2 0x280F DUP6 DUP3 DUP7 ADD PUSH2 0x23C9 JUMP JUMPDEST SWAP3 POP POP PUSH1 0x20 PUSH2 0x2820 DUP6 DUP3 DUP7 ADD PUSH2 0x23C9 JUMP JUMPDEST SWAP2 POP POP SWAP3 POP SWAP3 SWAP1 POP JUMP JUMPDEST PUSH1 0x0 PUSH2 0x2835 DUP3 PUSH2 0x2356 JUMP JUMPDEST SWAP1 POP SWAP2 SWAP1 POP JUMP JUMPDEST PUSH2 0x2845 DUP2 PUSH2 0x282A JUMP JUMPDEST DUP2 EQ PUSH2 0x2850 JUMPI PUSH1 0x0 DUP1 REVERT JUMPDEST POP JUMP JUMPDEST PUSH1 0x0 DUP2 MLOAD SWAP1 POP PUSH2 0x2862 DUP2 PUSH2 0x283C JUMP JUMPDEST SWAP3 SWAP2 POP POP JUMP JUMPDEST PUSH1 0x0 DUP2 MLOAD SWAP1 POP PUSH2 0x2877 DUP2 PUSH2 0x22FD JUMP JUMPDEST SWAP3 SWAP2 POP POP JUMP JUMPDEST PUSH1 0x0 DUP1 PUSH1 0x40 DUP4 DUP6 SUB SLT ISZERO PUSH2 0x2894 JUMPI PUSH2 0x2893 PUSH2 0x1F2E JUMP JUMPDEST JUMPDEST PUSH1 0x0 PUSH2 0x28A2 DUP6 DUP3 DUP7 ADD PUSH2 0x2853 JUMP JUMPDEST SWAP3 POP POP PUSH1 0x20 PUSH2 0x28B3 DUP6 DUP3 DUP7 ADD PUSH2 0x2868 JUMP JUMPDEST SWAP2 POP POP SWAP3 POP SWAP3 SWAP1 POP JUMP JUMPDEST PUSH32 0x4E487B7100000000000000000000000000000000000000000000000000000000 PUSH1 0x0 MSTORE PUSH1 0x11 PUSH1 0x4 MSTORE PUSH1 0x24 PUSH1 0x0 REVERT JUMPDEST PUSH1 0x0 PUSH2 0x28F7 DUP3 PUSH2 0x22F3 JUMP JUMPDEST SWAP2 POP PUSH2 0x2902 DUP4 PUSH2 0x22F3 JUMP JUMPDEST SWAP3 POP DUP3 DUP3 ADD SWAP1 POP DUP1 DUP3 GT ISZERO PUSH2 0x291A JUMPI PUSH2 0x2919 PUSH2 0x28BD JUMP JUMPDEST JUMPDEST SWAP3 SWAP2 POP POP JUMP JUMPDEST PUSH2 0x2929 DUP2 PUSH2 0x1F38 JUMP JUMPDEST DUP3 MSTORE POP POP JUMP JUMPDEST PUSH1 0x0 PUSH1 0x80 DUP3 ADD SWAP1 POP PUSH2 0x2944 PUSH1 0x0 DUP4 ADD DUP8 PUSH2 0x2920 JUMP JUMPDEST PUSH2 0x2951 PUSH1 0x20 DUP4 ADD DUP7 PUSH2 0x2388 JUMP JUMPDEST PUSH2 0x295E PUSH1 0x40 DUP4 ADD DUP6 PUSH2 0x25B9 JUMP JUMPDEST PUSH2 0x296B PUSH1 0x60 DUP4 ADD DUP5 PUSH2 0x25B9 JUMP JUMPDEST SWAP6 SWAP5 POP POP POP POP POP JUMP JUMPDEST PUSH32 0x4E487B7100000000000000000000000000000000000000000000000000000000 PUSH1 0x0 MSTORE PUSH1 0x22 PUSH1 0x4 MSTORE PUSH1 0x24 PUSH1 0x0 REVERT JUMPDEST PUSH1 0x0 PUSH1 0x2 DUP3 DIV SWAP1 POP PUSH1 0x1 DUP3 AND DUP1 PUSH2 0x29BB JUMPI PUSH1 0x7F DUP3 AND SWAP2 POP JUMPDEST PUSH1 0x20 DUP3 LT DUP2 SUB PUSH2 0x29CE JUMPI PUSH2 0x29CD PUSH2 0x2974 JUMP JUMPDEST JUMPDEST POP SWAP2 SWAP1 POP JUMP JUMPDEST PUSH32 0x4578636565647320737570706C79000000000000000000000000000000000000 PUSH1 0x0 DUP3 ADD MSTORE POP JUMP JUMPDEST PUSH1 0x0 PUSH2 0x2A0A PUSH1 0xE DUP4 PUSH2 0x225D JUMP JUMPDEST SWAP2 POP PUSH2 0x2A15 DUP3 PUSH2 0x29D4 JUMP JUMPDEST PUSH1 0x20 DUP3 ADD SWAP1 POP SWAP2 SWAP1 POP JUMP JUMPDEST PUSH1 0x0 PUSH1 0x20 DUP3 ADD SWAP1 POP DUP2 DUP2 SUB PUSH1 0x0 DUP4 ADD MSTORE PUSH2 0x2A39 DUP2 PUSH2 0x29FD JUMP JUMPDEST SWAP1 POP SWAP2 SWAP1 POP JUMP JUMPDEST PUSH1 0x0 PUSH1 0x60 DUP3 ADD SWAP1 POP PUSH2 0x2A55 PUSH1 0x0 DUP4 ADD DUP7 PUSH2 0x2388 JUMP JUMPDEST PUSH2 0x2A62 PUSH1 0x20 DUP4 ADD DUP6 PUSH2 0x25B9 JUMP JUMPDEST PUSH2 0x2A6F PUSH1 0x40 DUP4 ADD DUP5 PUSH2 0x2388 JUMP JUMPDEST SWAP5 SWAP4 POP POP POP POP JUMP JUMPDEST PUSH1 0x0 DUP3 DUP3 MSTORE PUSH1 0x20 DUP3 ADD SWAP1 POP SWAP3 SWAP2 POP POP JUMP JUMPDEST PUSH1 0x0 PUSH2 0x2A94 DUP4 DUP6 PUSH2 0x2A77 JUMP JUMPDEST SWAP4 POP PUSH2 0x2AA1 DUP4 DUP6 DUP5 PUSH2 0x2039 JUMP JUMPDEST PUSH2 0x2AAA DUP4 PUSH2 0x1F7C JUMP JUMPDEST DUP5 ADD SWAP1 POP SWAP4 SWAP3 POP POP POP JUMP JUMPDEST PUSH1 0x0 PUSH1 0xA0 DUP3 ADD SWAP1 POP PUSH2 0x2ACA PUSH1 0x0 DUP4 ADD DUP11 PUSH2 0x2920 JUMP JUMPDEST PUSH2 0x2AD7 PUSH1 0x20 DUP4 ADD DUP10 PUSH2 0x2388 JUMP JUMPDEST DUP2 DUP2 SUB PUSH1 0x40 DUP4 ADD MSTORE PUSH2 0x2AEA DUP2 DUP8 DUP10 PUSH2 0x2A88 JUMP JUMPDEST SWAP1 POP PUSH2 0x2AF9 PUSH1 0x60 DUP4 ADD DUP7 PUSH2 0x2228 JUMP JUMPDEST DUP2 DUP2 SUB PUSH1 0x80 DUP4 ADD MSTORE PUSH2 0x2B0C DUP2 DUP5 DUP7 PUSH2 0x2A88 JUMP JUMPDEST SWAP1 POP SWAP9 SWAP8 POP POP POP POP POP POP POP POP JUMP JUMPDEST PUSH1 0x0 DUP1 PUSH1 0x40 DUP4 DUP6 SUB SLT ISZERO PUSH2 0x2B31 JUMPI PUSH2 0x2B30 PUSH2 0x1F2E JUMP JUMPDEST JUMPDEST PUSH1 0x0 PUSH2 0x2B3F DUP6 DUP3 DUP7 ADD PUSH2 0x2868 JUMP JUMPDEST SWAP3 POP POP PUSH1 0x20 PUSH2 0x2B50 DUP6 DUP3 DUP7 ADD PUSH2 0x2868 JUMP JUMPDEST SWAP2 POP POP SWAP3 POP SWAP3 SWAP1 POP JUMP JUMPDEST PUSH32 0x4E6F7420746865206F776E657200000000000000000000000000000000000000 PUSH1 0x0 DUP3 ADD MSTORE POP JUMP JUMPDEST PUSH1 0x0 PUSH2 0x2B90 PUSH1 0xD DUP4 PUSH2 0x225D JUMP JUMPDEST SWAP2 POP PUSH2 0x2B9B DUP3 PUSH2 0x2B5A JUMP JUMPDEST PUSH1 0x20 DUP3 ADD SWAP1 POP SWAP2 SWAP1 POP JUMP JUMPDEST PUSH1 0x0 PUSH1 0x20 DUP3 ADD SWAP1 POP DUP2 DUP2 SUB PUSH1 0x0 DUP4 ADD MSTORE PUSH2 0x2BBF DUP2 PUSH2 0x2B83 JUMP JUMPDEST SWAP1 POP SWAP2 SWAP1 POP JUMP JUMPDEST PUSH1 0x0 PUSH2 0x2BD1 DUP3 PUSH2 0x22F3 JUMP JUMPDEST SWAP2 POP PUSH2 0x2BDC DUP4 PUSH2 0x22F3 JUMP JUMPDEST SWAP3 POP DUP3 DUP3 SUB SWAP1 POP DUP2 DUP2 GT ISZERO PUSH2 0x2BF4 JUMPI PUSH2 0x2BF3 PUSH2 0x28BD JUMP JUMPDEST JUMPDEST SWAP3 SWAP2 POP POP JUMP JUMPDEST PUSH1 0x0 PUSH1 0x40 DUP3 ADD SWAP1 POP PUSH2 0x2C0F PUSH1 0x0 DUP4 ADD DUP6 PUSH2 0x2388 JUMP JUMPDEST PUSH2 0x2C1C PUSH1 0x20 DUP4 ADD DUP5 PUSH2 0x25B9 JUMP JUMPDEST SWAP4 SWAP3 POP POP POP JUMP JUMPDEST PUSH1 0x0 DUP2 PUSH1 0xF0 SHL SWAP1 POP SWAP2 SWAP1 POP JUMP JUMPDEST PUSH1 0x0 PUSH2 0x2C3B DUP3 PUSH2 0x2C23 JUMP JUMPDEST SWAP1 POP SWAP2 SWAP1 POP JUMP JUMPDEST PUSH2 0x2C53 PUSH2 0x2C4E DUP3 PUSH2 0x1F38 JUMP JUMPDEST PUSH2 0x2C30 JUMP JUMPDEST DUP3 MSTORE POP POP JUMP JUMPDEST PUSH1 0x0 DUP2 SWAP1 POP SWAP2 SWAP1 POP JUMP JUMPDEST PUSH2 0x2C74 PUSH2 0x2C6F DUP3 PUSH2 0x22F3 JUMP JUMPDEST PUSH2 0x2C59 JUMP JUMPDEST DUP3 MSTORE POP POP JUMP JUMPDEST PUSH1 0x0 PUSH2 0x2C86 DUP3 DUP6 PUSH2 0x2C42 JUMP JUMPDEST PUSH1 0x2 DUP3 ADD SWAP2 POP PUSH2 0x2C96 DUP3 DUP5 PUSH2 0x2C63 JUMP JUMPDEST PUSH1 0x20 DUP3 ADD SWAP2 POP DUP2 SWAP1 POP SWAP4 SWAP3 POP POP POP JUMP JUMPDEST PUSH1 0x0 DUP2 MLOAD SWAP1 POP SWAP2 SWAP1 POP JUMP JUMPDEST PUSH1 0x0 PUSH2 0x2CBC DUP3 PUSH2 0x2CA6 JUMP JUMPDEST PUSH2 0x2CC6 DUP2 DUP6 PUSH2 0x2A77 JUMP JUMPDEST SWAP4 POP PUSH2 0x2CD6 DUP2 DUP6 PUSH1 0x20 DUP7 ADD PUSH2 0x226E JUMP JUMPDEST PUSH2 0x2CDF DUP2 PUSH2 0x1F7C JUMP JUMPDEST DUP5 ADD SWAP2 POP POP SWAP3 SWAP2 POP POP JUMP JUMPDEST PUSH1 0x0 PUSH1 0xA0 DUP3 ADD SWAP1 POP PUSH2 0x2CFF PUSH1 0x0 DUP4 ADD DUP9 PUSH2 0x2920 JUMP JUMPDEST PUSH2 0x2D0C PUSH1 0x20 DUP4 ADD DUP8 PUSH2 0x2388 JUMP JUMPDEST DUP2 DUP2 SUB PUSH1 0x40 DUP4 ADD MSTORE PUSH2 0x2D1E DUP2 DUP7 PUSH2 0x2CB1 JUMP JUMPDEST SWAP1 POP PUSH2 0x2D2D PUSH1 0x60 DUP4 ADD DUP6 PUSH2 0x2228 JUMP JUMPDEST DUP2 DUP2 SUB PUSH1 0x80 DUP4 ADD MSTORE PUSH2 0x2D3F DUP2 DUP5 PUSH2 0x2CB1 JUMP JUMPDEST SWAP1 POP SWAP7 SWAP6 POP POP POP POP POP POP JUMP JUMPDEST PUSH32 0x4D7573742073656E6420656E6F7567682076616C756520746F20636F76657220 PUSH1 0x0 DUP3 ADD MSTORE PUSH32 0x6D65737361676546656500000000000000000000000000000000000000000000 PUSH1 0x20 DUP3 ADD MSTORE POP JUMP JUMPDEST PUSH1 0x0 PUSH2 0x2DA7 PUSH1 0x2A DUP4 PUSH2 0x225D JUMP JUMPDEST SWAP2 POP PUSH2 0x2DB2 DUP3 PUSH2 0x2D4B JUMP JUMPDEST PUSH1 0x40 DUP3 ADD SWAP1 POP SWAP2 SWAP1 POP JUMP JUMPDEST PUSH1 0x0 PUSH1 0x20 DUP3 ADD SWAP1 POP DUP2 DUP2 SUB PUSH1 0x0 DUP4 ADD MSTORE PUSH2 0x2DD6 DUP2 PUSH2 0x2D9A JUMP JUMPDEST SWAP1 POP SWAP2 SWAP1 POP JUMP JUMPDEST PUSH2 0x2DE6 DUP2 PUSH2 0x282A JUMP JUMPDEST DUP3 MSTORE POP POP JUMP JUMPDEST PUSH1 0x0 PUSH1 0xC0 DUP3 ADD SWAP1 POP PUSH2 0x2E01 PUSH1 0x0 DUP4 ADD DUP11 PUSH2 0x2920 JUMP JUMPDEST DUP2 DUP2 SUB PUSH1 0x20 DUP4 ADD MSTORE PUSH2 0x2E14 DUP2 DUP9 DUP11 PUSH2 0x2A88 JUMP JUMPDEST SWAP1 POP DUP2 DUP2 SUB PUSH1 0x40 DUP4 ADD MSTORE PUSH2 0x2E28 DUP2 DUP8 PUSH2 0x2CB1 JUMP JUMPDEST SWAP1 POP PUSH2 0x2E37 PUSH1 0x60 DUP4 ADD DUP7 PUSH2 0x2DDD JUMP JUMPDEST PUSH2 0x2E44 PUSH1 0x80 DUP4 ADD DUP6 PUSH2 0x2388 JUMP JUMPDEST DUP2 DUP2 SUB PUSH1 0xA0 DUP4 ADD MSTORE PUSH2 0x2E56 DUP2 DUP5 PUSH2 0x2CB1 JUMP JUMPDEST SWAP1 POP SWAP9 SWAP8 POP POP POP POP POP POP POP POP JUMP JUMPDEST PUSH1 0x0 DUP2 SWAP1 POP SWAP3 SWAP2 POP POP JUMP JUMPDEST PUSH1 0x0 PUSH2 0x2E7A DUP3 PUSH2 0x2252 JUMP JUMPDEST PUSH2 0x2E84 DUP2 DUP6 PUSH2 0x2E64 JUMP JUMPDEST SWAP4 POP PUSH2 0x2E94 DUP2 DUP6 PUSH1 0x20 DUP7 ADD PUSH2 0x226E JUMP JUMPDEST DUP1 DUP5 ADD SWAP2 POP POP SWAP3 SWAP2 POP POP JUMP JUMPDEST PUSH1 0x0 PUSH2 0x2EAC DUP3 DUP6 PUSH2 0x2E6F JUMP JUMPDEST SWAP2 POP PUSH2 0x2EB8 DUP3 DUP5 PUSH2 0x2E6F JUMP JUMPDEST SWAP2 POP DUP2 SWAP1 POP SWAP4 SWAP3 POP POP POP JUMP JUMPDEST PUSH1 0x0 PUSH1 0x80 DUP3 ADD SWAP1 POP PUSH2 0x2ED9 PUSH1 0x0 DUP4 ADD DUP8 PUSH2 0x2388 JUMP JUMPDEST PUSH2 0x2EE6 PUSH1 0x20 DUP4 ADD DUP7 PUSH2 0x2388 JUMP JUMPDEST PUSH2 0x2EF3 PUSH1 0x40 DUP4 ADD DUP6 PUSH2 0x25B9 JUMP JUMPDEST DUP2 DUP2 SUB PUSH1 0x60 DUP4 ADD MSTORE PUSH2 0x2F05 DUP2 DUP5 PUSH2 0x2CB1 JUMP JUMPDEST SWAP1 POP SWAP6 SWAP5 POP POP POP POP POP JUMP JUMPDEST PUSH1 0x0 DUP2 MLOAD SWAP1 POP PUSH2 0x2F1F DUP2 PUSH2 0x21C3 JUMP JUMPDEST SWAP3 SWAP2 POP POP JUMP JUMPDEST PUSH1 0x0 PUSH1 0x20 DUP3 DUP5 SUB SLT ISZERO PUSH2 0x2F3B JUMPI PUSH2 0x2F3A PUSH2 0x1F2E JUMP JUMPDEST JUMPDEST PUSH1 0x0 PUSH2 0x2F49 DUP5 DUP3 DUP6 ADD PUSH2 0x2F10 JUMP JUMPDEST SWAP2 POP POP SWAP3 SWAP2 POP POP JUMP JUMPDEST PUSH32 0x4E487B7100000000000000000000000000000000000000000000000000000000 PUSH1 0x0 MSTORE PUSH1 0x12 PUSH1 0x4 MSTORE PUSH1 0x24 PUSH1 0x0 REVERT INVALID LOG2 PUSH5 0x6970667358 0x22 SLT KECCAK256 SUB 0xB5 PUSH12 0xFCA614C4C04B507D484893E1 0xB2 EXP 0xD3 0xC9 0x5D PUSH21 0xFC9F3E736C7B58BCFF99DF64736F6C634300081400 CALLER "
				},
				"gasEstimates": {
					"creation": {
						"codeDepositCost": "2443000",
						"executionCost": "infinite",
						"totalCost": "infinite"
					},
					"external": {
						"approve(address,uint256)": "infinite",
						"balanceOf(address)": "infinite",
						"crossChain(uint16,bytes,uint256)": "infinite",
						"endpoint()": "infinite",
						"estimateFees(uint16,address,bytes,bool,bytes)": "infinite",
						"getApproved(uint256)": "infinite",
						"isApprovedForAll(address,address)": "infinite",
						"lzReceive(uint16,bytes,uint64,bytes)": "infinite",
						"mint()": "infinite",
						"name()": "infinite",
						"owner()": "2611",
						"ownerOf(uint256)": "infinite",
						"renounceOwnership()": "infinite",
						"safeTransferFrom(address,address,uint256)": "infinite",
						"safeTransferFrom(address,address,uint256,bytes)": "infinite",
						"setApprovalForAll(address,bool)": "infinite",
						"supportsInterface(bytes4)": "819",
						"symbol()": "infinite",
						"tokenURI(uint256)": "infinite",
						"transferFrom(address,address,uint256)": "infinite",
						"transferOwnership(address)": "infinite"
					}
				},
				"methodIdentifiers": {
					"approve(address,uint256)": "095ea7b3",
					"balanceOf(address)": "70a08231",
					"crossChain(uint16,bytes,uint256)": "baf1639e",
					"endpoint()": "5e280f11",
					"estimateFees(uint16,address,bytes,bool,bytes)": "40a7bb10",
					"getApproved(uint256)": "081812fc",
					"isApprovedForAll(address,address)": "e985e9c5",
					"lzReceive(uint16,bytes,uint64,bytes)": "001d3567",
					"mint()": "1249c58b",
					"name()": "06fdde03",
					"owner()": "8da5cb5b",
					"ownerOf(uint256)": "6352211e",
					"renounceOwnership()": "715018a6",
					"safeTransferFrom(address,address,uint256)": "42842e0e",
					"safeTransferFrom(address,address,uint256,bytes)": "b88d4fde",
					"setApprovalForAll(address,bool)": "a22cb465",
					"supportsInterface(bytes4)": "01ffc9a7",
					"symbol()": "95d89b41",
					"tokenURI(uint256)": "c87b56dd",
					"transferFrom(address,address,uint256)": "23b872dd",
					"transferOwnership(address)": "f2fde38b"
				}
			},
			"storageLayout": {
				"storage": [
					{
						"astId": 8,
						"contract": "interoperatibility/sapCont.sol:OmniChainNFT",
						"label": "_owner",
						"offset": 0,
						"slot": "0",
						"type": "t_address"
					},
					{
						"astId": 317,
						"contract": "interoperatibility/sapCont.sol:OmniChainNFT",
						"label": "_name",
						"offset": 0,
						"slot": "1",
						"type": "t_string_storage"
					},
					{
						"astId": 319,
						"contract": "interoperatibility/sapCont.sol:OmniChainNFT",
						"label": "_symbol",
						"offset": 0,
						"slot": "2",
						"type": "t_string_storage"
					},
					{
						"astId": 323,
						"contract": "interoperatibility/sapCont.sol:OmniChainNFT",
						"label": "_owners",
						"offset": 0,
						"slot": "3",
						"type": "t_mapping(t_uint256,t_address)"
					},
					{
						"astId": 327,
						"contract": "interoperatibility/sapCont.sol:OmniChainNFT",
						"label": "_balances",
						"offset": 0,
						"slot": "4",
						"type": "t_mapping(t_address,t_uint256)"
					},
					{
						"astId": 331,
						"contract": "interoperatibility/sapCont.sol:OmniChainNFT",
						"label": "_tokenApprovals",
						"offset": 0,
						"slot": "5",
						"type": "t_mapping(t_uint256,t_address)"
					},
					{
						"astId": 337,
						"contract": "interoperatibility/sapCont.sol:OmniChainNFT",
						"label": "_operatorApprovals",
						"offset": 0,
						"slot": "6",
						"type": "t_mapping(t_address,t_mapping(t_address,t_bool))"
					},
					{
						"astId": 3141,
						"contract": "interoperatibility/sapCont.sol:OmniChainNFT",
						"label": "counter",
						"offset": 0,
						"slot": "7",
						"type": "t_uint256"
					},
					{
						"astId": 3144,
						"contract": "interoperatibility/sapCont.sol:OmniChainNFT",
						"label": "nextId",
						"offset": 0,
						"slot": "8",
						"type": "t_uint256"
					},
					{
						"astId": 3147,
						"contract": "interoperatibility/sapCont.sol:OmniChainNFT",
						"label": "MAX",
						"offset": 0,
						"slot": "9",
						"type": "t_uint256"
					},
					{
						"astId": 3150,
						"contract": "interoperatibility/sapCont.sol:OmniChainNFT",
						"label": "gas",
						"offset": 0,
						"slot": "10",
						"type": "t_uint256"
					},
					{
						"astId": 3153,
						"contract": "interoperatibility/sapCont.sol:OmniChainNFT",
						"label": "endpoint",
						"offset": 0,
						"slot": "11",
						"type": "t_contract(ILayerZeroEndpoint)3081"
					}
				],
				"types": {
					"t_address": {
						"encoding": "inplace",
						"label": "address",
						"numberOfBytes": "20"
					},
					"t_bool": {
						"encoding": "inplace",
						"label": "bool",
						"numberOfBytes": "1"
					},
					"t_contract(ILayerZeroEndpoint)3081": {
						"encoding": "inplace",
						"label": "contract ILayerZeroEndpoint",
						"numberOfBytes": "20"
					},
					"t_mapping(t_address,t_bool)": {
						"encoding": "mapping",
						"key": "t_address",
						"label": "mapping(address => bool)",
						"numberOfBytes": "32",
						"value": "t_bool"
					},
					"t_mapping(t_address,t_mapping(t_address,t_bool))": {
						"encoding": "mapping",
						"key": "t_address",
						"label": "mapping(address => mapping(address => bool))",
						"numberOfBytes": "32",
						"value": "t_mapping(t_address,t_bool)"
					},
					"t_mapping(t_address,t_uint256)": {
						"encoding": "mapping",
						"key": "t_address",
						"label": "mapping(address => uint256)",
						"numberOfBytes": "32",
						"value": "t_uint256"
					},
					"t_mapping(t_uint256,t_address)": {
						"encoding": "mapping",
						"key": "t_uint256",
						"label": "mapping(uint256 => address)",
						"numberOfBytes": "32",
						"value": "t_address"
					},
					"t_string_storage": {
						"encoding": "bytes",
						"label": "string",
						"numberOfBytes": "32"
					},
					"t_uint256": {
						"encoding": "inplace",
						"label": "uint256",
						"numberOfBytes": "32"
					}
				}
			},
			"userdoc": {
				"kind": "user",
				"methods": {},
				"version": 1
			}
		}
	}
}