{
	"DEX/Token.sol": {
		"erc20token": {
			"abi": [
				{
					"inputs": [
						{
							"internalType": "string",
							"name": "name",
							"type": "string"
						},
						{
							"internalType": "string",
							"name": "symbol",
							"type": "string"
						}
					],
					"stateMutability": "nonpayable",
					"type": "constructor"
				},
				{
					"inputs": [
						{
							"internalType": "address",
							"name": "spender",
							"type": "address"
						},
						{
							"internalType": "uint256",
							"name": "allowance",
							"type": "uint256"
						},
						{
							"internalType": "uint256",
							"name": "needed",
							"type": "uint256"
						}
					],
					"name": "ERC20InsufficientAllowance",
					"type": "error"
				},
				{
					"inputs": [
						{
							"internalType": "address",
							"name": "sender",
							"type": "address"
						},
						{
							"internalType": "uint256",
							"name": "balance",
							"type": "uint256"
						},
						{
							"internalType": "uint256",
							"name": "needed",
							"type": "uint256"
						}
					],
					"name": "ERC20InsufficientBalance",
					"type": "error"
				},
				{
					"inputs": [
						{
							"internalType": "address",
							"name": "approver",
							"type": "address"
						}
					],
					"name": "ERC20InvalidApprover",
					"type": "error"
				},
				{
					"inputs": [
						{
							"internalType": "address",
							"name": "receiver",
							"type": "address"
						}
					],
					"name": "ERC20InvalidReceiver",
					"type": "error"
				},
				{
					"inputs": [
						{
							"internalType": "address",
							"name": "sender",
							"type": "address"
						}
					],
					"name": "ERC20InvalidSender",
					"type": "error"
				},
				{
					"inputs": [
						{
							"internalType": "address",
							"name": "spender",
							"type": "address"
						}
					],
					"name": "ERC20InvalidSpender",
					"type": "error"
				},
				{
					"anonymous": false,
					"inputs": [
						{
							"indexed": true,
							"internalType": "address",
							"name": "owner",
							"type": "address"
						},
						{
							"indexed": true,
							"internalType": "address",
							"name": "spender",
							"type": "address"
						},
						{
							"indexed": false,
							"internalType": "uint256",
							"name": "value",
							"type": "uint256"
						}
					],
					"name": "Approval",
					"type": "event"
				},
				{
					"anonymous": false,
					"inputs": [
						{
							"indexed": true,
							"internalType": "address",
							"name": "from",
							"type": "address"
						},
						{
							"indexed": true,
							"internalType": "address",
							"name": "to",
							"type": "address"
						},
						{
							"indexed": false,
							"internalType": "uint256",
							"name": "value",
							"type": "uint256"
						}
					],
					"name": "Transfer",
					"type": "event"
				},
				{
					"inputs": [
						{
							"internalType": "address",
							"name": "recipient",
							"type": "address"
						},
						{
							"internalType": "uint256",
							"name": "Amount",
							"type": "uint256"
						}
					],
					"name": "PublicMint",
					"outputs": [],
					"stateMutability": "nonpayable",
					"type": "function"
				},
				{
					"inputs": [
						{
							"internalType": "address",
							"name": "owner",
							"type": "address"
						},
						{
							"internalType": "address",
							"name": "spender",
							"type": "address"
						}
					],
					"name": "allowance",
					"outputs": [
						{
							"internalType": "uint256",
							"name": "",
							"type": "uint256"
						}
					],
					"stateMutability": "view",
					"type": "function"
				},
				{
					"inputs": [
						{
							"internalType": "address",
							"name": "spender",
							"type": "address"
						},
						{
							"internalType": "uint256",
							"name": "value",
							"type": "uint256"
						}
					],
					"name": "approve",
					"outputs": [
						{
							"internalType": "bool",
							"name": "",
							"type": "bool"
						}
					],
					"stateMutability": "nonpayable",
					"type": "function"
				},
				{
					"inputs": [
						{
							"internalType": "address",
							"name": "account",
							"type": "address"
						}
					],
					"name": "balanceOf",
					"outputs": [
						{
							"internalType": "uint256",
							"name": "",
							"type": "uint256"
						}
					],
					"stateMutability": "view",
					"type": "function"
				},
				{
					"inputs": [],
					"name": "decimals",
					"outputs": [
						{
							"internalType": "uint8",
							"name": "",
							"type": "uint8"
						}
					],
					"stateMutability": "pure",
					"type": "function"
				},
				{
					"inputs": [],
					"name": "name",
					"outputs": [
						{
							"internalType": "string",
							"name": "",
							"type": "string"
						}
					],
					"stateMutability": "view",
					"type": "function"
				},
				{
					"inputs": [],
					"name": "symbol",
					"outputs": [
						{
							"internalType": "string",
							"name": "",
							"type": "string"
						}
					],
					"stateMutability": "view",
					"type": "function"
				},
				{
					"inputs": [],
					"name": "totalSupply",
					"outputs": [
						{
							"internalType": "uint256",
							"name": "",
							"type": "uint256"
						}
					],
					"stateMutability": "view",
					"type": "function"
				},
				{
					"inputs": [
						{
							"internalType": "address",
							"name": "to",
							"type": "address"
						},
						{
							"internalType": "uint256",
							"name": "value",
							"type": "uint256"
						}
					],
					"name": "transfer",
					"outputs": [
						{
							"internalType": "bool",
							"name": "",
							"type": "bool"
						}
					],
					"stateMutability": "nonpayable",
					"type": "function"
				},
				{
					"inputs": [
						{
							"internalType": "address",
							"name": "from",
							"type": "address"
						},
						{
							"internalType": "address",
							"name": "to",
							"type": "address"
						},
						{
							"internalType": "uint256",
							"name": "value",
							"type": "uint256"
						}
					],
					"name": "transferFrom",
					"outputs": [
						{
							"internalType": "bool",
							"name": "",
							"type": "bool"
						}
					],
					"stateMutability": "nonpayable",
					"type": "function"
				}
			],
			"devdoc": {
				"errors": {
					"ERC20InsufficientAllowance(address,uint256,uint256)": [
						{
							"details": "Indicates a failure with the `spender`’s `allowance`. Used in transfers.",
							"params": {
								"allowance": "Amount of tokens a `spender` is allowed to operate with.",
								"needed": "Minimum amount required to perform a transfer.",
								"spender": "Address that may be allowed to operate on tokens without being their owner."
							}
						}
					],
					"ERC20InsufficientBalance(address,uint256,uint256)": [
						{
							"details": "Indicates an error related to the current `balance` of a `sender`. Used in transfers.",
							"params": {
								"balance": "Current balance for the interacting account.",
								"needed": "Minimum amount required to perform a transfer.",
								"sender": "Address whose tokens are being transferred."
							}
						}
					],
					"ERC20InvalidApprover(address)": [
						{
							"details": "Indicates a failure with the `approver` of a token to be approved. Used in approvals.",
							"params": {
								"approver": "Address initiating an approval operation."
							}
						}
					],
					"ERC20InvalidReceiver(address)": [
						{
							"details": "Indicates a failure with the token `receiver`. Used in transfers.",
							"params": {
								"receiver": "Address to which tokens are being transferred."
							}
						}
					],
					"ERC20InvalidSender(address)": [
						{
							"details": "Indicates a failure with the token `sender`. Used in transfers.",
							"params": {
								"sender": "Address whose tokens are being transferred."
							}
						}
					],
					"ERC20InvalidSpender(address)": [
						{
							"details": "Indicates a failure with the `spender` to be approved. Used in approvals.",
							"params": {
								"spender": "Address that may be allowed to operate on tokens without being their owner."
							}
						}
					]
				},
				"events": {
					"Approval(address,address,uint256)": {
						"details": "Emitted when the allowance of a `spender` for an `owner` is set by a call to {approve}. `value` is the new allowance."
					},
					"Transfer(address,address,uint256)": {
						"details": "Emitted when `value` tokens are moved from one account (`from`) to another (`to`). Note that `value` may be zero."
					}
				},
				"kind": "dev",
				"methods": {
					"allowance(address,address)": {
						"details": "See {IERC20-allowance}."
					},
					"approve(address,uint256)": {
						"details": "See {IERC20-approve}. NOTE: If `value` is the maximum `uint256`, the allowance is not updated on `transferFrom`. This is semantically equivalent to an infinite approval. Requirements: - `spender` cannot be the zero address."
					},
					"balanceOf(address)": {
						"details": "See {IERC20-balanceOf}."
					},
					"decimals()": {
						"details": "Returns the number of decimals used to get its user representation. For example, if `decimals` equals `2`, a balance of `505` tokens should be displayed to a user as `5.05` (`505 / 10 ** 2`). Tokens usually opt for a value of 18, imitating the relationship between Ether and Wei. This is the default value returned by this function, unless it's overridden. NOTE: This information is only used for _display_ purposes: it in no way affects any of the arithmetic of the contract, including {IERC20-balanceOf} and {IERC20-transfer}."
					},
					"name()": {
						"details": "Returns the name of the token."
					},
					"symbol()": {
						"details": "Returns the symbol of the token, usually a shorter version of the name."
					},
					"totalSupply()": {
						"details": "See {IERC20-totalSupply}."
					},
					"transfer(address,uint256)": {
						"details": "See {IERC20-transfer}. Requirements: - `to` cannot be the zero address. - the caller must have a balance of at least `value`."
					},
					"transferFrom(address,address,uint256)": {
						"details": "See {IERC20-transferFrom}. Skips emitting an {Approval} event indicating an allowance update. This is not required by the ERC. See {xref-ERC20-_approve-address-address-uint256-bool-}[_approve]. NOTE: Does not update the allowance if the current allowance is the maximum `uint256`. Requirements: - `from` and `to` cannot be the zero address. - `from` must have a balance of at least `value`. - the caller must have allowance for ``from``'s tokens of at least `value`."
					}
				},
				"version": 1
			},
			"evm": {
				"assembly": "    /* \"DEX/Token.sol\":116:437  contract erc20token is IERC20, ERC20 {... */\n  mstore(0x40, 0x80)\n    /* \"DEX/Token.sol\":159:235  constructor(string memory name, string memory symbol) ERC20(name, symbol) {} */\n  callvalue\n  dup1\n  iszero\n  tag_1\n  jumpi\n  revert(0x00, 0x00)\ntag_1:\n  pop\n  mload(0x40)\n  sub(codesize, bytecodeSize)\n  dup1\n  bytecodeSize\n  dup4\n  codecopy\n  dup2\n  add\n  0x40\n  dup2\n  swap1\n  mstore\n  tag_2\n  swap2\n  tag_3\n  jump\t// in\ntag_2:\n    /* \"DEX/Token.sol\":219:223  name */\n  dup2\n    /* \"DEX/Token.sol\":225:231  symbol */\n  dup2\n    /* \"@openzeppelin/contracts/token/ERC20/ERC20.sol\":1667:1672  _name */\n  0x03\n    /* \"@openzeppelin/contracts/token/ERC20/ERC20.sol\":1667:1680  _name = name_ */\n  tag_7\n    /* \"DEX/Token.sol\":219:223  name */\n  dup4\n    /* \"@openzeppelin/contracts/token/ERC20/ERC20.sol\":1667:1672  _name */\n  dup3\n    /* \"@openzeppelin/contracts/token/ERC20/ERC20.sol\":1667:1680  _name = name_ */\n  tag_8\n  jump\t// in\ntag_7:\n  pop\n    /* \"@openzeppelin/contracts/token/ERC20/ERC20.sol\":1690:1697  _symbol */\n  0x04\n    /* \"@openzeppelin/contracts/token/ERC20/ERC20.sol\":1690:1707  _symbol = symbol_ */\n  tag_9\n    /* \"@openzeppelin/contracts/token/ERC20/ERC20.sol\":1700:1707  symbol_ */\n  dup3\n    /* \"@openzeppelin/contracts/token/ERC20/ERC20.sol\":1690:1697  _symbol */\n  dup3\n    /* \"@openzeppelin/contracts/token/ERC20/ERC20.sol\":1690:1707  _symbol = symbol_ */\n  tag_8\n  jump\t// in\ntag_9:\n  pop\n    /* \"@openzeppelin/contracts/token/ERC20/ERC20.sol\":1601:1714  constructor(string memory name_, string memory symbol_) {... */\n  pop\n  pop\n    /* \"DEX/Token.sol\":159:235  constructor(string memory name, string memory symbol) ERC20(name, symbol) {} */\n  pop\n  pop\n    /* \"DEX/Token.sol\":116:437  contract erc20token is IERC20, ERC20 {... */\n  jump(tag_18)\n    /* \"#utility.yul\":14:141   */\ntag_12:\n    /* \"#utility.yul\":75:85   */\n  0x4e487b71\n    /* \"#utility.yul\":70:73   */\n  0xe0\n    /* \"#utility.yul\":66:86   */\n  shl\n    /* \"#utility.yul\":63:64   */\n  0x00\n    /* \"#utility.yul\":56:87   */\n  mstore\n    /* \"#utility.yul\":106:110   */\n  0x41\n    /* \"#utility.yul\":103:104   */\n  0x04\n    /* \"#utility.yul\":96:111   */\n  mstore\n    /* \"#utility.yul\":130:134   */\n  0x24\n    /* \"#utility.yul\":127:128   */\n  0x00\n    /* \"#utility.yul\":120:135   */\n  revert\n    /* \"#utility.yul\":146:869   */\ntag_13:\n    /* \"#utility.yul\":200:205   */\n  0x00\n    /* \"#utility.yul\":253:256   */\n  dup3\n    /* \"#utility.yul\":246:250   */\n  0x1f\n    /* \"#utility.yul\":238:244   */\n  dup4\n    /* \"#utility.yul\":234:251   */\n  add\n    /* \"#utility.yul\":230:257   */\n  slt\n    /* \"#utility.yul\":220:275   */\n  tag_21\n  jumpi\n    /* \"#utility.yul\":271:272   */\n  0x00\n    /* \"#utility.yul\":268:269   */\n  0x00\n    /* \"#utility.yul\":261:273   */\n  revert\n    /* \"#utility.yul\":220:275   */\ntag_21:\n    /* \"#utility.yul\":298:311   */\n  dup2\n  mload\n  sub(shl(0x40, 0x01), 0x01)\n    /* \"#utility.yul\":323:353   */\n  dup2\n  gt\n    /* \"#utility.yul\":320:376   */\n  iszero\n  tag_23\n  jumpi\n    /* \"#utility.yul\":356:374   */\n  tag_23\n  tag_12\n  jump\t// in\ntag_23:\n    /* \"#utility.yul\":405:407   */\n  0x40\n    /* \"#utility.yul\":399:408   */\n  mload\n    /* \"#utility.yul\":497:499   */\n  0x1f\n    /* \"#utility.yul\":459:476   */\n  dup3\n  add\n  not(0x1f)\n    /* \"#utility.yul\":455:486   */\n  swap1\n  dup2\n  and\n    /* \"#utility.yul\":488:490   */\n  0x3f\n    /* \"#utility.yul\":451:491   */\n  add\n    /* \"#utility.yul\":447:501   */\n  and\n    /* \"#utility.yul\":435:502   */\n  dup2\n  add\n  sub(shl(0x40, 0x01), 0x01)\n    /* \"#utility.yul\":517:551   */\n  dup2\n  gt\n    /* \"#utility.yul\":553:575   */\n  dup3\n  dup3\n  lt\n    /* \"#utility.yul\":514:576   */\n  or\n    /* \"#utility.yul\":511:599   */\n  iszero\n  tag_25\n  jumpi\n    /* \"#utility.yul\":579:597   */\n  tag_25\n  tag_12\n  jump\t// in\ntag_25:\n    /* \"#utility.yul\":615:617   */\n  0x40\n    /* \"#utility.yul\":608:630   */\n  mstore\n    /* \"#utility.yul\":639:661   */\n  dup2\n  dup2\n  mstore\n    /* \"#utility.yul\":680:699   */\n  dup4\n  dup3\n  add\n    /* \"#utility.yul\":701:705   */\n  0x20\n    /* \"#utility.yul\":676:706   */\n  add\n    /* \"#utility.yul\":673:712   */\n  dup6\n  lt\n    /* \"#utility.yul\":670:729   */\n  iszero\n  tag_26\n  jumpi\n    /* \"#utility.yul\":725:726   */\n  0x00\n    /* \"#utility.yul\":722:723   */\n  0x00\n    /* \"#utility.yul\":715:727   */\n  revert\n    /* \"#utility.yul\":670:729   */\ntag_26:\n    /* \"#utility.yul\":782:788   */\n  dup2\n    /* \"#utility.yul\":775:779   */\n  0x20\n    /* \"#utility.yul\":767:773   */\n  dup6\n    /* \"#utility.yul\":763:780   */\n  add\n    /* \"#utility.yul\":756:760   */\n  0x20\n    /* \"#utility.yul\":748:754   */\n  dup4\n    /* \"#utility.yul\":744:761   */\n  add\n    /* \"#utility.yul\":738:789   */\n  mcopy\n    /* \"#utility.yul\":837:838   */\n  0x00\n    /* \"#utility.yul\":809:828   */\n  swap2\n  dup2\n  add\n    /* \"#utility.yul\":830:834   */\n  0x20\n    /* \"#utility.yul\":805:835   */\n  add\n    /* \"#utility.yul\":798:839   */\n  swap2\n  swap1\n  swap2\n  mstore\n    /* \"#utility.yul\":813:819   */\n  swap4\n    /* \"#utility.yul\":146:869   */\n  swap3\n  pop\n  pop\n  pop\n  jump\t// out\n    /* \"#utility.yul\":874:1431   */\ntag_3:\n    /* \"#utility.yul\":973:979   */\n  0x00\n    /* \"#utility.yul\":981:987   */\n  0x00\n    /* \"#utility.yul\":1034:1036   */\n  0x40\n    /* \"#utility.yul\":1022:1031   */\n  dup4\n    /* \"#utility.yul\":1013:1020   */\n  dup6\n    /* \"#utility.yul\":1009:1032   */\n  sub\n    /* \"#utility.yul\":1005:1037   */\n  slt\n    /* \"#utility.yul\":1002:1054   */\n  iszero\n  tag_28\n  jumpi\n    /* \"#utility.yul\":1050:1051   */\n  0x00\n    /* \"#utility.yul\":1047:1048   */\n  0x00\n    /* \"#utility.yul\":1040:1052   */\n  revert\n    /* \"#utility.yul\":1002:1054   */\ntag_28:\n    /* \"#utility.yul\":1077:1093   */\n  dup3\n  mload\n  sub(shl(0x40, 0x01), 0x01)\n    /* \"#utility.yul\":1105:1135   */\n  dup2\n  gt\n    /* \"#utility.yul\":1102:1152   */\n  iszero\n  tag_29\n  jumpi\n    /* \"#utility.yul\":1148:1149   */\n  0x00\n    /* \"#utility.yul\":1145:1146   */\n  0x00\n    /* \"#utility.yul\":1138:1150   */\n  revert\n    /* \"#utility.yul\":1102:1152   */\ntag_29:\n    /* \"#utility.yul\":1171:1232   */\n  tag_30\n    /* \"#utility.yul\":1224:1231   */\n  dup6\n    /* \"#utility.yul\":1215:1221   */\n  dup3\n    /* \"#utility.yul\":1204:1213   */\n  dup7\n    /* \"#utility.yul\":1200:1222   */\n  add\n    /* \"#utility.yul\":1171:1232   */\n  tag_13\n  jump\t// in\ntag_30:\n    /* \"#utility.yul\":1278:1280   */\n  0x20\n    /* \"#utility.yul\":1263:1281   */\n  dup6\n  add\n    /* \"#utility.yul\":1257:1282   */\n  mload\n    /* \"#utility.yul\":1161:1232   */\n  swap1\n  swap4\n  pop\n    /* \"#utility.yul\":1257:1282   */\n  swap1\n  pop\n  sub(shl(0x40, 0x01), 0x01)\n    /* \"#utility.yul\":1294:1326   */\n  dup2\n  gt\n    /* \"#utility.yul\":1291:1343   */\n  iszero\n  tag_31\n  jumpi\n    /* \"#utility.yul\":1339:1340   */\n  0x00\n    /* \"#utility.yul\":1336:1337   */\n  0x00\n    /* \"#utility.yul\":1329:1341   */\n  revert\n    /* \"#utility.yul\":1291:1343   */\ntag_31:\n    /* \"#utility.yul\":1362:1425   */\n  tag_32\n    /* \"#utility.yul\":1417:1424   */\n  dup6\n    /* \"#utility.yul\":1406:1414   */\n  dup3\n    /* \"#utility.yul\":1395:1404   */\n  dup7\n    /* \"#utility.yul\":1391:1415   */\n  add\n    /* \"#utility.yul\":1362:1425   */\n  tag_13\n  jump\t// in\ntag_32:\n    /* \"#utility.yul\":1352:1425   */\n  swap2\n  pop\n  pop\n    /* \"#utility.yul\":874:1431   */\n  swap3\n  pop\n  swap3\n  swap1\n  pop\n  jump\t// out\n    /* \"#utility.yul\":1436:1816   */\ntag_14:\n    /* \"#utility.yul\":1515:1516   */\n  0x01\n    /* \"#utility.yul\":1511:1523   */\n  dup2\n  dup2\n  shr\n  swap1\n    /* \"#utility.yul\":1558:1570   */\n  dup3\n  and\n  dup1\n    /* \"#utility.yul\":1579:1640   */\n  tag_34\n  jumpi\n    /* \"#utility.yul\":1633:1637   */\n  0x7f\n    /* \"#utility.yul\":1625:1631   */\n  dup3\n    /* \"#utility.yul\":1621:1638   */\n  and\n    /* \"#utility.yul\":1611:1638   */\n  swap2\n  pop\n    /* \"#utility.yul\":1579:1640   */\ntag_34:\n    /* \"#utility.yul\":1686:1688   */\n  0x20\n    /* \"#utility.yul\":1678:1684   */\n  dup3\n    /* \"#utility.yul\":1675:1689   */\n  lt\n    /* \"#utility.yul\":1655:1673   */\n  dup2\n    /* \"#utility.yul\":1652:1690   */\n  sub\n    /* \"#utility.yul\":1649:1810   */\n  tag_35\n  jumpi\n    /* \"#utility.yul\":1732:1742   */\n  0x4e487b71\n    /* \"#utility.yul\":1727:1730   */\n  0xe0\n    /* \"#utility.yul\":1723:1743   */\n  shl\n    /* \"#utility.yul\":1720:1721   */\n  0x00\n    /* \"#utility.yul\":1713:1744   */\n  mstore\n    /* \"#utility.yul\":1767:1771   */\n  0x22\n    /* \"#utility.yul\":1764:1765   */\n  0x04\n    /* \"#utility.yul\":1757:1772   */\n  mstore\n    /* \"#utility.yul\":1795:1799   */\n  0x24\n    /* \"#utility.yul\":1792:1793   */\n  0x00\n    /* \"#utility.yul\":1785:1800   */\n  revert\n    /* \"#utility.yul\":1649:1810   */\ntag_35:\n  pop\n    /* \"#utility.yul\":1436:1816   */\n  swap2\n  swap1\n  pop\n  jump\t// out\n    /* \"#utility.yul\":1947:2465   */\ntag_16:\n    /* \"#utility.yul\":2049:2051   */\n  0x1f\n    /* \"#utility.yul\":2044:2047   */\n  dup3\n    /* \"#utility.yul\":2041:2052   */\n  gt\n    /* \"#utility.yul\":2038:2459   */\n  iszero\n  tag_38\n  jumpi\n    /* \"#utility.yul\":2085:2090   */\n  dup1\n    /* \"#utility.yul\":2082:2083   */\n  0x00\n    /* \"#utility.yul\":2075:2091   */\n  mstore\n    /* \"#utility.yul\":2129:2133   */\n  0x20\n    /* \"#utility.yul\":2126:2127   */\n  0x00\n    /* \"#utility.yul\":2116:2134   */\n  keccak256\n    /* \"#utility.yul\":2199:2201   */\n  0x1f\n    /* \"#utility.yul\":2187:2197   */\n  dup5\n    /* \"#utility.yul\":2183:2202   */\n  add\n    /* \"#utility.yul\":2180:2181   */\n  0x05\n    /* \"#utility.yul\":2176:2203   */\n  shr\n    /* \"#utility.yul\":2170:2174   */\n  dup2\n    /* \"#utility.yul\":2166:2204   */\n  add\n    /* \"#utility.yul\":2235:2239   */\n  0x20\n    /* \"#utility.yul\":2223:2233   */\n  dup6\n    /* \"#utility.yul\":2220:2240   */\n  lt\n    /* \"#utility.yul\":2217:2264   */\n  iszero\n  tag_39\n  jumpi\n  pop\n    /* \"#utility.yul\":2258:2262   */\n  dup1\n    /* \"#utility.yul\":2217:2264   */\ntag_39:\n    /* \"#utility.yul\":2313:2315   */\n  0x1f\n    /* \"#utility.yul\":2308:2311   */\n  dup5\n    /* \"#utility.yul\":2304:2316   */\n  add\n    /* \"#utility.yul\":2301:2302   */\n  0x05\n    /* \"#utility.yul\":2297:2317   */\n  shr\n    /* \"#utility.yul\":2291:2295   */\n  dup3\n    /* \"#utility.yul\":2287:2318   */\n  add\n    /* \"#utility.yul\":2277:2318   */\n  swap2\n  pop\n    /* \"#utility.yul\":2368:2449   */\ntag_40:\n    /* \"#utility.yul\":2386:2388   */\n  dup2\n    /* \"#utility.yul\":2379:2384   */\n  dup2\n    /* \"#utility.yul\":2376:2389   */\n  lt\n    /* \"#utility.yul\":2368:2449   */\n  iszero\n  tag_42\n  jumpi\n    /* \"#utility.yul\":2445:2446   */\n  0x00\n    /* \"#utility.yul\":2431:2447   */\n  dup2\n  sstore\n    /* \"#utility.yul\":2412:2413   */\n  0x01\n    /* \"#utility.yul\":2401:2414   */\n  add\n    /* \"#utility.yul\":2368:2449   */\n  jump(tag_40)\ntag_42:\n    /* \"#utility.yul\":2372:2375   */\n  pop\n  pop\n    /* \"#utility.yul\":2038:2459   */\ntag_38:\n    /* \"#utility.yul\":1947:2465   */\n  pop\n  pop\n  pop\n  jump\t// out\n    /* \"#utility.yul\":2641:3940   */\ntag_8:\n    /* \"#utility.yul\":2761:2771   */\n  dup2\n  mload\n  sub(shl(0x40, 0x01), 0x01)\n    /* \"#utility.yul\":2783:2813   */\n  dup2\n  gt\n    /* \"#utility.yul\":2780:2836   */\n  iszero\n  tag_46\n  jumpi\n    /* \"#utility.yul\":2816:2834   */\n  tag_46\n  tag_12\n  jump\t// in\ntag_46:\n    /* \"#utility.yul\":2845:2942   */\n  tag_47\n    /* \"#utility.yul\":2935:2941   */\n  dup2\n    /* \"#utility.yul\":2895:2933   */\n  tag_48\n    /* \"#utility.yul\":2927:2931   */\n  dup5\n    /* \"#utility.yul\":2921:2932   */\n  sload\n    /* \"#utility.yul\":2895:2933   */\n  tag_14\n  jump\t// in\ntag_48:\n    /* \"#utility.yul\":2889:2893   */\n  dup5\n    /* \"#utility.yul\":2845:2942   */\n  tag_16\n  jump\t// in\ntag_47:\n    /* \"#utility.yul\":2991:2995   */\n  0x20\n    /* \"#utility.yul\":3022:3024   */\n  0x1f\n    /* \"#utility.yul\":3011:3025   */\n  dup3\n  gt\n    /* \"#utility.yul\":3039:3040   */\n  0x01\n    /* \"#utility.yul\":3034:3683   */\n  dup2\n  eq\n  tag_50\n  jumpi\n    /* \"#utility.yul\":3727:3728   */\n  0x00\n    /* \"#utility.yul\":3744:3750   */\n  dup4\n    /* \"#utility.yul\":3741:3830   */\n  iszero\n  tag_51\n  jumpi\n  pop\n    /* \"#utility.yul\":3796:3815   */\n  dup5\n  dup3\n  add\n    /* \"#utility.yul\":3790:3816   */\n  mload\n    /* \"#utility.yul\":3741:3830   */\ntag_51:\n  not(0x00)\n    /* \"#utility.yul\":2598:2599   */\n  0x03\n    /* \"#utility.yul\":2594:2605   */\n  dup6\n  swap1\n  shl\n    /* \"#utility.yul\":2590:2614   */\n  shr\n    /* \"#utility.yul\":2586:2615   */\n  not\n    /* \"#utility.yul\":2576:2616   */\n  and\n    /* \"#utility.yul\":2622:2623   */\n  0x01\n    /* \"#utility.yul\":2618:2629   */\n  dup5\n  swap1\n  shl\n    /* \"#utility.yul\":2573:2630   */\n  or\n    /* \"#utility.yul\":3843:3924   */\n  dup5\n  sstore\n    /* \"#utility.yul\":3004:3934   */\n  jump(tag_42)\n    /* \"#utility.yul\":3034:3683   */\ntag_50:\n    /* \"#utility.yul\":1894:1895   */\n  0x00\n    /* \"#utility.yul\":1887:1901   */\n  dup5\n  dup2\n  mstore\n    /* \"#utility.yul\":1931:1935   */\n  0x20\n    /* \"#utility.yul\":1918:1936   */\n  dup2\n  keccak256\n  not(0x1f)\n    /* \"#utility.yul\":3070:3090   */\n  dup6\n  and\n  swap2\n    /* \"#utility.yul\":3188:3410   */\ntag_54:\n    /* \"#utility.yul\":3202:3209   */\n  dup3\n    /* \"#utility.yul\":3199:3200   */\n  dup2\n    /* \"#utility.yul\":3196:3210   */\n  lt\n    /* \"#utility.yul\":3188:3410   */\n  iszero\n  tag_56\n  jumpi\n    /* \"#utility.yul\":3284:3303   */\n  dup8\n  dup6\n  add\n    /* \"#utility.yul\":3278:3304   */\n  mload\n    /* \"#utility.yul\":3263:3305   */\n  dup3\n  sstore\n    /* \"#utility.yul\":3391:3395   */\n  0x20\n    /* \"#utility.yul\":3376:3396   */\n  swap5\n  dup6\n  add\n  swap5\n    /* \"#utility.yul\":3344:3345   */\n  0x01\n    /* \"#utility.yul\":3332:3346   */\n  swap1\n  swap3\n  add\n  swap2\n    /* \"#utility.yul\":3218:3230   */\n  add\n    /* \"#utility.yul\":3188:3410   */\n  jump(tag_54)\ntag_56:\n    /* \"#utility.yul\":3192:3195   */\n  pop\n    /* \"#utility.yul\":3438:3444   */\n  dup5\n    /* \"#utility.yul\":3429:3436   */\n  dup3\n    /* \"#utility.yul\":3426:3445   */\n  lt\n    /* \"#utility.yul\":3423:3624   */\n  iszero\n  tag_57\n  jumpi\n    /* \"#utility.yul\":3499:3518   */\n  dup7\n  dup5\n  add\n    /* \"#utility.yul\":3493:3519   */\n  mload\n  not(0x00)\n    /* \"#utility.yul\":3582:3583   */\n  0x03\n    /* \"#utility.yul\":3578:3592   */\n  dup8\n  swap1\n  shl\n    /* \"#utility.yul\":3594:3597   */\n  0xf8\n    /* \"#utility.yul\":3574:3598   */\n  and\n    /* \"#utility.yul\":3570:3607   */\n  shr\n    /* \"#utility.yul\":3566:3608   */\n  not\n    /* \"#utility.yul\":3551:3609   */\n  and\n    /* \"#utility.yul\":3536:3610   */\n  dup2\n  sstore\n    /* \"#utility.yul\":3423:3624   */\ntag_57:\n  pop\n  pop\n  pop\n  pop\n    /* \"#utility.yul\":3670:3671   */\n  0x01\n    /* \"#utility.yul\":3654:3668   */\n  swap1\n  dup2\n  shl\n    /* \"#utility.yul\":3650:3672   */\n  add\n    /* \"#utility.yul\":3637:3673   */\n  swap1\n  sstore\n  pop\n    /* \"#utility.yul\":2641:3940   */\n  jump\t// out\ntag_18:\n    /* \"DEX/Token.sol\":116:437  contract erc20token is IERC20, ERC20 {... */\n  dataSize(sub_0)\n  dup1\n  dataOffset(sub_0)\n  0x00\n  codecopy\n  0x00\n  return\nstop\n\nsub_0: assembly {\n        /* \"DEX/Token.sol\":116:437  contract erc20token is IERC20, ERC20 {... */\n      mstore(0x40, 0x80)\n      callvalue\n      dup1\n      iszero\n      tag_1\n      jumpi\n      revert(0x00, 0x00)\n    tag_1:\n      pop\n      jumpi(tag_2, lt(calldatasize, 0x04))\n      shr(0xe0, calldataload(0x00))\n      dup1\n      0x70a08231\n      gt\n      tag_13\n      jumpi\n      dup1\n      0x70a08231\n      eq\n      tag_8\n      jumpi\n      dup1\n      0x748a2986\n      eq\n      tag_9\n      jumpi\n      dup1\n      0x95d89b41\n      eq\n      tag_10\n      jumpi\n      dup1\n      0xa9059cbb\n      eq\n      tag_11\n      jumpi\n      dup1\n      0xdd62ed3e\n      eq\n      tag_12\n      jumpi\n      revert(0x00, 0x00)\n    tag_13:\n      dup1\n      0x06fdde03\n      eq\n      tag_3\n      jumpi\n      dup1\n      0x095ea7b3\n      eq\n      tag_4\n      jumpi\n      dup1\n      0x18160ddd\n      eq\n      tag_5\n      jumpi\n      dup1\n      0x23b872dd\n      eq\n      tag_6\n      jumpi\n      dup1\n      0x313ce567\n      eq\n      tag_7\n      jumpi\n    tag_2:\n      revert(0x00, 0x00)\n        /* \"@openzeppelin/contracts/token/ERC20/ERC20.sol\":1779:1868  function name() public view virtual returns (string memory) {... */\n    tag_3:\n      tag_14\n      tag_15\n      jump\t// in\n    tag_14:\n      mload(0x40)\n      tag_16\n      swap2\n      swap1\n      tag_17\n      jump\t// in\n    tag_16:\n      mload(0x40)\n      dup1\n      swap2\n      sub\n      swap1\n      return\n        /* \"@openzeppelin/contracts/token/ERC20/ERC20.sol\":3998:4184  function approve(address spender, uint256 value) public virtual returns (bool) {... */\n    tag_4:\n      tag_18\n      tag_19\n      calldatasize\n      0x04\n      tag_20\n      jump\t// in\n    tag_19:\n      tag_21\n      jump\t// in\n    tag_18:\n      mload(0x40)\n        /* \"#utility.yul\":1085:1099   */\n      swap1\n      iszero\n        /* \"#utility.yul\":1078:1100   */\n      iszero\n        /* \"#utility.yul\":1060:1101   */\n      dup2\n      mstore\n        /* \"#utility.yul\":1048:1050   */\n      0x20\n        /* \"#utility.yul\":1033:1051   */\n      add\n        /* \"@openzeppelin/contracts/token/ERC20/ERC20.sol\":3998:4184  function approve(address spender, uint256 value) public virtual returns (bool) {... */\n      tag_16\n        /* \"#utility.yul\":920:1107   */\n      jump\n        /* \"@openzeppelin/contracts/token/ERC20/ERC20.sol\":2849:2946  function totalSupply() public view virtual returns (uint256) {... */\n    tag_5:\n        /* \"@openzeppelin/contracts/token/ERC20/ERC20.sol\":2927:2939  _totalSupply */\n      sload(0x02)\n        /* \"@openzeppelin/contracts/token/ERC20/ERC20.sol\":2849:2946  function totalSupply() public view virtual returns (uint256) {... */\n    tag_24:\n      mload(0x40)\n        /* \"#utility.yul\":1258:1283   */\n      swap1\n      dup2\n      mstore\n        /* \"#utility.yul\":1246:1248   */\n      0x20\n        /* \"#utility.yul\":1231:1249   */\n      add\n        /* \"@openzeppelin/contracts/token/ERC20/ERC20.sol\":2849:2946  function totalSupply() public view virtual returns (uint256) {... */\n      tag_16\n        /* \"#utility.yul\":1112:1289   */\n      jump\n        /* \"@openzeppelin/contracts/token/ERC20/ERC20.sol\":4776:5020  function transferFrom(address from, address to, uint256 value) public virtual returns (bool) {... */\n    tag_6:\n      tag_18\n      tag_29\n      calldatasize\n      0x04\n      tag_30\n      jump\t// in\n    tag_29:\n      tag_31\n      jump\t// in\n        /* \"DEX/Token.sol\":351:434  function decimals() public pure override  returns (uint8) {... */\n    tag_7:\n      mload(0x40)\n        /* \"DEX/Token.sol\":426:427  6 */\n      0x06\n        /* \"#utility.yul\":1815:1851   */\n      dup2\n      mstore\n        /* \"#utility.yul\":1803:1805   */\n      0x20\n        /* \"#utility.yul\":1788:1806   */\n      add\n        /* \"DEX/Token.sol\":351:434  function decimals() public pure override  returns (uint8) {... */\n      tag_16\n        /* \"#utility.yul\":1673:1857   */\n      jump\n        /* \"@openzeppelin/contracts/token/ERC20/ERC20.sol\":3004:3120  function balanceOf(address account) public view virtual returns (uint256) {... */\n    tag_8:\n      tag_24\n      tag_38\n      calldatasize\n      0x04\n      tag_39\n      jump\t// in\n    tag_38:\n      sub(shl(0xa0, 0x01), 0x01)\n        /* \"@openzeppelin/contracts/token/ERC20/ERC20.sol\":3095:3113  _balances[account] */\n      and\n        /* \"@openzeppelin/contracts/token/ERC20/ERC20.sol\":3069:3076  uint256 */\n      0x00\n        /* \"@openzeppelin/contracts/token/ERC20/ERC20.sol\":3095:3113  _balances[account] */\n      swap1\n      dup2\n      mstore\n      0x20\n      dup2\n      swap1\n      mstore\n      0x40\n      swap1\n      keccak256\n      sload\n      swap1\n        /* \"@openzeppelin/contracts/token/ERC20/ERC20.sol\":3004:3120  function balanceOf(address account) public view virtual returns (uint256) {... */\n      jump\n        /* \"DEX/Token.sol\":241:344  function PublicMint(address recipient, uint256 Amount) public {... */\n    tag_9:\n      tag_42\n      tag_43\n      calldatasize\n      0x04\n      tag_20\n      jump\t// in\n    tag_43:\n      tag_44\n      jump\t// in\n    tag_42:\n      stop\n        /* \"@openzeppelin/contracts/token/ERC20/ERC20.sol\":1981:2074  function symbol() public view virtual returns (string memory) {... */\n    tag_10:\n      tag_14\n      tag_46\n      jump\t// in\n        /* \"@openzeppelin/contracts/token/ERC20/ERC20.sol\":3315:3493  function transfer(address to, uint256 value) public virtual returns (bool) {... */\n    tag_11:\n      tag_18\n      tag_49\n      calldatasize\n      0x04\n      tag_20\n      jump\t// in\n    tag_49:\n      tag_50\n      jump\t// in\n        /* \"@openzeppelin/contracts/token/ERC20/ERC20.sol\":3551:3691  function allowance(address owner, address spender) public view virtual returns (uint256) {... */\n    tag_12:\n      tag_24\n      tag_53\n      calldatasize\n      0x04\n      tag_54\n      jump\t// in\n    tag_53:\n      sub(shl(0xa0, 0x01), 0x01)\n        /* \"@openzeppelin/contracts/token/ERC20/ERC20.sol\":3657:3675  _allowances[owner] */\n      swap2\n      dup3\n      and\n        /* \"@openzeppelin/contracts/token/ERC20/ERC20.sol\":3631:3638  uint256 */\n      0x00\n        /* \"@openzeppelin/contracts/token/ERC20/ERC20.sol\":3657:3675  _allowances[owner] */\n      swap1\n      dup2\n      mstore\n        /* \"@openzeppelin/contracts/token/ERC20/ERC20.sol\":3657:3668  _allowances */\n      0x01\n        /* \"@openzeppelin/contracts/token/ERC20/ERC20.sol\":3657:3675  _allowances[owner] */\n      0x20\n      swap1\n      dup2\n      mstore\n      0x40\n      dup1\n      dup4\n      keccak256\n        /* \"@openzeppelin/contracts/token/ERC20/ERC20.sol\":3657:3684  _allowances[owner][spender] */\n      swap4\n      swap1\n      swap5\n      and\n      dup3\n      mstore\n      swap2\n      swap1\n      swap2\n      mstore\n      keccak256\n      sload\n      swap1\n        /* \"@openzeppelin/contracts/token/ERC20/ERC20.sol\":3551:3691  function allowance(address owner, address spender) public view virtual returns (uint256) {... */\n      jump\n        /* \"@openzeppelin/contracts/token/ERC20/ERC20.sol\":1779:1868  function name() public view virtual returns (string memory) {... */\n    tag_15:\n        /* \"@openzeppelin/contracts/token/ERC20/ERC20.sol\":1824:1837  string memory */\n      0x60\n        /* \"@openzeppelin/contracts/token/ERC20/ERC20.sol\":1856:1861  _name */\n      0x03\n        /* \"@openzeppelin/contracts/token/ERC20/ERC20.sol\":1849:1861  return _name */\n      dup1\n      sload\n      tag_58\n      swap1\n      tag_59\n      jump\t// in\n    tag_58:\n      dup1\n      0x1f\n      add\n      0x20\n      dup1\n      swap2\n      div\n      mul\n      0x20\n      add\n      mload(0x40)\n      swap1\n      dup2\n      add\n      0x40\n      mstore\n      dup1\n      swap3\n      swap2\n      swap1\n      dup2\n      dup2\n      mstore\n      0x20\n      add\n      dup3\n      dup1\n      sload\n      tag_60\n      swap1\n      tag_59\n      jump\t// in\n    tag_60:\n      dup1\n      iszero\n      tag_61\n      jumpi\n      dup1\n      0x1f\n      lt\n      tag_62\n      jumpi\n      0x0100\n      dup1\n      dup4\n      sload\n      div\n      mul\n      dup4\n      mstore\n      swap2\n      0x20\n      add\n      swap2\n      jump(tag_61)\n    tag_62:\n      dup3\n      add\n      swap2\n      swap1\n      0x00\n      mstore\n      keccak256(0x00, 0x20)\n      swap1\n    tag_63:\n      dup2\n      sload\n      dup2\n      mstore\n      swap1\n      0x01\n      add\n      swap1\n      0x20\n      add\n      dup1\n      dup4\n      gt\n      tag_63\n      jumpi\n      dup3\n      swap1\n      sub\n      0x1f\n      and\n      dup3\n      add\n      swap2\n    tag_61:\n      pop\n      pop\n      pop\n      pop\n      pop\n      swap1\n      pop\n        /* \"@openzeppelin/contracts/token/ERC20/ERC20.sol\":1779:1868  function name() public view virtual returns (string memory) {... */\n      swap1\n      jump\t// out\n        /* \"@openzeppelin/contracts/token/ERC20/ERC20.sol\":3998:4184  function approve(address spender, uint256 value) public virtual returns (bool) {... */\n    tag_21:\n        /* \"@openzeppelin/contracts/token/ERC20/ERC20.sol\":4071:4075  bool */\n      0x00\n        /* \"@openzeppelin/contracts/utils/Context.sol\":735:745  msg.sender */\n      caller\n        /* \"@openzeppelin/contracts/token/ERC20/ERC20.sol\":4125:4156  _approve(owner, spender, value) */\n      tag_67\n        /* \"@openzeppelin/contracts/utils/Context.sol\":735:745  msg.sender */\n      dup2\n        /* \"@openzeppelin/contracts/token/ERC20/ERC20.sol\":4141:4148  spender */\n      dup6\n        /* \"@openzeppelin/contracts/token/ERC20/ERC20.sol\":4150:4155  value */\n      dup6\n        /* \"@openzeppelin/contracts/token/ERC20/ERC20.sol\":4125:4133  _approve */\n      tag_68\n        /* \"@openzeppelin/contracts/token/ERC20/ERC20.sol\":4125:4156  _approve(owner, spender, value) */\n      jump\t// in\n    tag_67:\n        /* \"@openzeppelin/contracts/token/ERC20/ERC20.sol\":4173:4177  true */\n      0x01\n        /* \"@openzeppelin/contracts/token/ERC20/ERC20.sol\":4166:4177  return true */\n      swap2\n      pop\n      pop\n        /* \"@openzeppelin/contracts/token/ERC20/ERC20.sol\":3998:4184  function approve(address spender, uint256 value) public virtual returns (bool) {... */\n    tag_64:\n      swap3\n      swap2\n      pop\n      pop\n      jump\t// out\n        /* \"@openzeppelin/contracts/token/ERC20/ERC20.sol\":4776:5020  function transferFrom(address from, address to, uint256 value) public virtual returns (bool) {... */\n    tag_31:\n        /* \"@openzeppelin/contracts/token/ERC20/ERC20.sol\":4863:4867  bool */\n      0x00\n        /* \"@openzeppelin/contracts/utils/Context.sol\":735:745  msg.sender */\n      caller\n        /* \"@openzeppelin/contracts/token/ERC20/ERC20.sol\":4919:4956  _spendAllowance(from, spender, value) */\n      tag_72\n        /* \"@openzeppelin/contracts/token/ERC20/ERC20.sol\":4935:4939  from */\n      dup6\n        /* \"@openzeppelin/contracts/utils/Context.sol\":735:745  msg.sender */\n      dup3\n        /* \"@openzeppelin/contracts/token/ERC20/ERC20.sol\":4950:4955  value */\n      dup6\n        /* \"@openzeppelin/contracts/token/ERC20/ERC20.sol\":4919:4934  _spendAllowance */\n      tag_73\n        /* \"@openzeppelin/contracts/token/ERC20/ERC20.sol\":4919:4956  _spendAllowance(from, spender, value) */\n      jump\t// in\n    tag_72:\n        /* \"@openzeppelin/contracts/token/ERC20/ERC20.sol\":4966:4992  _transfer(from, to, value) */\n      tag_74\n        /* \"@openzeppelin/contracts/token/ERC20/ERC20.sol\":4976:4980  from */\n      dup6\n        /* \"@openzeppelin/contracts/token/ERC20/ERC20.sol\":4982:4984  to */\n      dup6\n        /* \"@openzeppelin/contracts/token/ERC20/ERC20.sol\":4986:4991  value */\n      dup6\n        /* \"@openzeppelin/contracts/token/ERC20/ERC20.sol\":4966:4975  _transfer */\n      tag_75\n        /* \"@openzeppelin/contracts/token/ERC20/ERC20.sol\":4966:4992  _transfer(from, to, value) */\n      jump\t// in\n    tag_74:\n      pop\n        /* \"@openzeppelin/contracts/token/ERC20/ERC20.sol\":5009:5013  true */\n      0x01\n      swap5\n        /* \"@openzeppelin/contracts/token/ERC20/ERC20.sol\":4776:5020  function transferFrom(address from, address to, uint256 value) public virtual returns (bool) {... */\n      swap4\n      pop\n      pop\n      pop\n      pop\n      jump\t// out\n        /* \"DEX/Token.sol\":241:344  function PublicMint(address recipient, uint256 Amount) public {... */\n    tag_44:\n        /* \"DEX/Token.sol\":313:337  _mint(recipient, Amount) */\n      tag_79\n        /* \"DEX/Token.sol\":319:328  recipient */\n      dup3\n        /* \"DEX/Token.sol\":330:336  Amount */\n      dup3\n        /* \"DEX/Token.sol\":313:318  _mint */\n      tag_80\n        /* \"DEX/Token.sol\":313:337  _mint(recipient, Amount) */\n      jump\t// in\n    tag_79:\n        /* \"DEX/Token.sol\":241:344  function PublicMint(address recipient, uint256 Amount) public {... */\n      pop\n      pop\n      jump\t// out\n        /* \"@openzeppelin/contracts/token/ERC20/ERC20.sol\":1981:2074  function symbol() public view virtual returns (string memory) {... */\n    tag_46:\n        /* \"@openzeppelin/contracts/token/ERC20/ERC20.sol\":2028:2041  string memory */\n      0x60\n        /* \"@openzeppelin/contracts/token/ERC20/ERC20.sol\":2060:2067  _symbol */\n      0x04\n        /* \"@openzeppelin/contracts/token/ERC20/ERC20.sol\":2053:2067  return _symbol */\n      dup1\n      sload\n      tag_58\n      swap1\n      tag_59\n      jump\t// in\n        /* \"@openzeppelin/contracts/token/ERC20/ERC20.sol\":3315:3493  function transfer(address to, uint256 value) public virtual returns (bool) {... */\n    tag_50:\n        /* \"@openzeppelin/contracts/token/ERC20/ERC20.sol\":3384:3388  bool */\n      0x00\n        /* \"@openzeppelin/contracts/utils/Context.sol\":735:745  msg.sender */\n      caller\n        /* \"@openzeppelin/contracts/token/ERC20/ERC20.sol\":3438:3465  _transfer(owner, to, value) */\n      tag_67\n        /* \"@openzeppelin/contracts/utils/Context.sol\":735:745  msg.sender */\n      dup2\n        /* \"@openzeppelin/contracts/token/ERC20/ERC20.sol\":3455:3457  to */\n      dup6\n        /* \"@openzeppelin/contracts/token/ERC20/ERC20.sol\":3459:3464  value */\n      dup6\n        /* \"@openzeppelin/contracts/token/ERC20/ERC20.sol\":3438:3447  _transfer */\n      tag_75\n        /* \"@openzeppelin/contracts/token/ERC20/ERC20.sol\":3438:3465  _transfer(owner, to, value) */\n      jump\t// in\n        /* \"@openzeppelin/contracts/token/ERC20/ERC20.sol\":8726:8854  function _approve(address owner, address spender, uint256 value) internal {... */\n    tag_68:\n        /* \"@openzeppelin/contracts/token/ERC20/ERC20.sol\":8810:8847  _approve(owner, spender, value, true) */\n      tag_93\n        /* \"@openzeppelin/contracts/token/ERC20/ERC20.sol\":8819:8824  owner */\n      dup4\n        /* \"@openzeppelin/contracts/token/ERC20/ERC20.sol\":8826:8833  spender */\n      dup4\n        /* \"@openzeppelin/contracts/token/ERC20/ERC20.sol\":8835:8840  value */\n      dup4\n        /* \"@openzeppelin/contracts/token/ERC20/ERC20.sol\":8842:8846  true */\n      0x01\n        /* \"@openzeppelin/contracts/token/ERC20/ERC20.sol\":8810:8818  _approve */\n      tag_94\n        /* \"@openzeppelin/contracts/token/ERC20/ERC20.sol\":8810:8847  _approve(owner, spender, value, true) */\n      jump\t// in\n    tag_93:\n        /* \"@openzeppelin/contracts/token/ERC20/ERC20.sol\":8726:8854  function _approve(address owner, address spender, uint256 value) internal {... */\n      pop\n      pop\n      pop\n      jump\t// out\n        /* \"@openzeppelin/contracts/token/ERC20/ERC20.sol\":10415:10892  function _spendAllowance(address owner, address spender, uint256 value) internal virtual {... */\n    tag_73:\n      sub(shl(0xa0, 0x01), 0x01)\n        /* \"@openzeppelin/contracts/token/ERC20/ERC20.sol\":3657:3675  _allowances[owner] */\n      dup4\n      dup2\n      and\n        /* \"@openzeppelin/contracts/token/ERC20/ERC20.sol\":10514:10538  uint256 currentAllowance */\n      0x00\n        /* \"@openzeppelin/contracts/token/ERC20/ERC20.sol\":3657:3675  _allowances[owner] */\n      swap1\n      dup2\n      mstore\n        /* \"@openzeppelin/contracts/token/ERC20/ERC20.sol\":3657:3668  _allowances */\n      0x01\n        /* \"@openzeppelin/contracts/token/ERC20/ERC20.sol\":3657:3675  _allowances[owner] */\n      0x20\n      swap1\n      dup2\n      mstore\n      0x40\n      dup1\n      dup4\n      keccak256\n        /* \"@openzeppelin/contracts/token/ERC20/ERC20.sol\":3657:3684  _allowances[owner][spender] */\n      swap4\n      dup7\n      and\n      dup4\n      mstore\n      swap3\n      swap1\n      mstore\n      keccak256\n      sload\n      not(0x00)\n        /* \"@openzeppelin/contracts/token/ERC20/ERC20.sol\":10580:10617  currentAllowance != type(uint256).max */\n      dup2\n      eq\n        /* \"@openzeppelin/contracts/token/ERC20/ERC20.sol\":10576:10886  if (currentAllowance != type(uint256).max) {... */\n      tag_101\n      jumpi\n        /* \"@openzeppelin/contracts/token/ERC20/ERC20.sol\":10656:10661  value */\n      dup2\n        /* \"@openzeppelin/contracts/token/ERC20/ERC20.sol\":10637:10653  currentAllowance */\n      dup2\n        /* \"@openzeppelin/contracts/token/ERC20/ERC20.sol\":10637:10661  currentAllowance < value */\n      lt\n        /* \"@openzeppelin/contracts/token/ERC20/ERC20.sol\":10633:10763  if (currentAllowance < value) {... */\n      iszero\n      tag_98\n      jumpi\n        /* \"@openzeppelin/contracts/token/ERC20/ERC20.sol\":10688:10748  ERC20InsufficientAllowance(spender, currentAllowance, value) */\n      mload(0x40)\n      shl(0xe1, 0x7dc7a0d9)\n      dup2\n      mstore\n      sub(shl(0xa0, 0x01), 0x01)\n        /* \"#utility.yul\":2923:2955   */\n      dup5\n      and\n        /* \"@openzeppelin/contracts/token/ERC20/ERC20.sol\":10688:10748  ERC20InsufficientAllowance(spender, currentAllowance, value) */\n      0x04\n      dup3\n      add\n        /* \"#utility.yul\":2905:2956   */\n      mstore\n        /* \"#utility.yul\":2972:2990   */\n      0x24\n      dup2\n      add\n        /* \"#utility.yul\":2965:2999   */\n      dup3\n      swap1\n      mstore\n        /* \"#utility.yul\":3015:3033   */\n      0x44\n      dup2\n      add\n        /* \"#utility.yul\":3008:3042   */\n      dup4\n      swap1\n      mstore\n        /* \"#utility.yul\":2878:2896   */\n      0x64\n      add\n        /* \"@openzeppelin/contracts/token/ERC20/ERC20.sol\":10688:10748  ERC20InsufficientAllowance(spender, currentAllowance, value) */\n    tag_99:\n      mload(0x40)\n      dup1\n      swap2\n      sub\n      swap1\n      revert\n        /* \"@openzeppelin/contracts/token/ERC20/ERC20.sol\":10633:10763  if (currentAllowance < value) {... */\n    tag_98:\n        /* \"@openzeppelin/contracts/token/ERC20/ERC20.sol\":10804:10861  _approve(owner, spender, currentAllowance - value, false) */\n      tag_101\n        /* \"@openzeppelin/contracts/token/ERC20/ERC20.sol\":10813:10818  owner */\n      dup5\n        /* \"@openzeppelin/contracts/token/ERC20/ERC20.sol\":10820:10827  spender */\n      dup5\n        /* \"@openzeppelin/contracts/token/ERC20/ERC20.sol\":10848:10853  value */\n      dup5\n        /* \"@openzeppelin/contracts/token/ERC20/ERC20.sol\":10829:10845  currentAllowance */\n      dup5\n        /* \"@openzeppelin/contracts/token/ERC20/ERC20.sol\":10829:10853  currentAllowance - value */\n      sub\n        /* \"@openzeppelin/contracts/token/ERC20/ERC20.sol\":10855:10860  false */\n      0x00\n        /* \"@openzeppelin/contracts/token/ERC20/ERC20.sol\":10804:10812  _approve */\n      tag_94\n        /* \"@openzeppelin/contracts/token/ERC20/ERC20.sol\":10804:10861  _approve(owner, spender, currentAllowance - value, false) */\n      jump\t// in\n    tag_101:\n        /* \"@openzeppelin/contracts/token/ERC20/ERC20.sol\":10504:10892  {... */\n      pop\n        /* \"@openzeppelin/contracts/token/ERC20/ERC20.sol\":10415:10892  function _spendAllowance(address owner, address spender, uint256 value) internal virtual {... */\n      pop\n      pop\n      pop\n      jump\t// out\n        /* \"@openzeppelin/contracts/token/ERC20/ERC20.sol\":5393:5693  function _transfer(address from, address to, uint256 value) internal {... */\n    tag_75:\n      sub(shl(0xa0, 0x01), 0x01)\n        /* \"@openzeppelin/contracts/token/ERC20/ERC20.sol\":5476:5494  from == address(0) */\n      dup4\n      and\n        /* \"@openzeppelin/contracts/token/ERC20/ERC20.sol\":5472:5558  if (from == address(0)) {... */\n      tag_103\n      jumpi\n        /* \"@openzeppelin/contracts/token/ERC20/ERC20.sol\":5517:5547  ERC20InvalidSender(address(0)) */\n      mload(0x40)\n      shl(0xe1, 0x4b637e8f)\n      dup2\n      mstore\n        /* \"@openzeppelin/contracts/token/ERC20/ERC20.sol\":5544:5545  0 */\n      0x00\n        /* \"@openzeppelin/contracts/token/ERC20/ERC20.sol\":5517:5547  ERC20InvalidSender(address(0)) */\n      0x04\n      dup3\n      add\n        /* \"#utility.yul\":3199:3250   */\n      mstore\n        /* \"#utility.yul\":3172:3190   */\n      0x24\n      add\n        /* \"@openzeppelin/contracts/token/ERC20/ERC20.sol\":5517:5547  ERC20InvalidSender(address(0)) */\n      tag_99\n        /* \"#utility.yul\":3053:3256   */\n      jump\n        /* \"@openzeppelin/contracts/token/ERC20/ERC20.sol\":5472:5558  if (from == address(0)) {... */\n    tag_103:\n      sub(shl(0xa0, 0x01), 0x01)\n        /* \"@openzeppelin/contracts/token/ERC20/ERC20.sol\":5571:5587  to == address(0) */\n      dup3\n      and\n        /* \"@openzeppelin/contracts/token/ERC20/ERC20.sol\":5567:5653  if (to == address(0)) {... */\n      tag_106\n      jumpi\n        /* \"@openzeppelin/contracts/token/ERC20/ERC20.sol\":5610:5642  ERC20InvalidReceiver(address(0)) */\n      mload(0x40)\n      shl(0xe0, 0xec442f05)\n      dup2\n      mstore\n        /* \"@openzeppelin/contracts/token/ERC20/ERC20.sol\":5639:5640  0 */\n      0x00\n        /* \"@openzeppelin/contracts/token/ERC20/ERC20.sol\":5610:5642  ERC20InvalidReceiver(address(0)) */\n      0x04\n      dup3\n      add\n        /* \"#utility.yul\":3199:3250   */\n      mstore\n        /* \"#utility.yul\":3172:3190   */\n      0x24\n      add\n        /* \"@openzeppelin/contracts/token/ERC20/ERC20.sol\":5610:5642  ERC20InvalidReceiver(address(0)) */\n      tag_99\n        /* \"#utility.yul\":3053:3256   */\n      jump\n        /* \"@openzeppelin/contracts/token/ERC20/ERC20.sol\":5567:5653  if (to == address(0)) {... */\n    tag_106:\n        /* \"@openzeppelin/contracts/token/ERC20/ERC20.sol\":5662:5686  _update(from, to, value) */\n      tag_93\n        /* \"@openzeppelin/contracts/token/ERC20/ERC20.sol\":5670:5674  from */\n      dup4\n        /* \"@openzeppelin/contracts/token/ERC20/ERC20.sol\":5676:5678  to */\n      dup4\n        /* \"@openzeppelin/contracts/token/ERC20/ERC20.sol\":5680:5685  value */\n      dup4\n        /* \"@openzeppelin/contracts/token/ERC20/ERC20.sol\":5662:5669  _update */\n      tag_109\n        /* \"@openzeppelin/contracts/token/ERC20/ERC20.sol\":5662:5686  _update(from, to, value) */\n      jump\t// in\n        /* \"@openzeppelin/contracts/token/ERC20/ERC20.sol\":7458:7666  function _mint(address account, uint256 value) internal {... */\n    tag_80:\n      sub(shl(0xa0, 0x01), 0x01)\n        /* \"@openzeppelin/contracts/token/ERC20/ERC20.sol\":7528:7549  account == address(0) */\n      dup3\n      and\n        /* \"@openzeppelin/contracts/token/ERC20/ERC20.sol\":7524:7615  if (account == address(0)) {... */\n      tag_111\n      jumpi\n        /* \"@openzeppelin/contracts/token/ERC20/ERC20.sol\":7572:7604  ERC20InvalidReceiver(address(0)) */\n      mload(0x40)\n      shl(0xe0, 0xec442f05)\n      dup2\n      mstore\n        /* \"@openzeppelin/contracts/token/ERC20/ERC20.sol\":7601:7602  0 */\n      0x00\n        /* \"@openzeppelin/contracts/token/ERC20/ERC20.sol\":7572:7604  ERC20InvalidReceiver(address(0)) */\n      0x04\n      dup3\n      add\n        /* \"#utility.yul\":3199:3250   */\n      mstore\n        /* \"#utility.yul\":3172:3190   */\n      0x24\n      add\n        /* \"@openzeppelin/contracts/token/ERC20/ERC20.sol\":7572:7604  ERC20InvalidReceiver(address(0)) */\n      tag_99\n        /* \"#utility.yul\":3053:3256   */\n      jump\n        /* \"@openzeppelin/contracts/token/ERC20/ERC20.sol\":7524:7615  if (account == address(0)) {... */\n    tag_111:\n        /* \"@openzeppelin/contracts/token/ERC20/ERC20.sol\":7624:7659  _update(address(0), account, value) */\n      tag_79\n        /* \"@openzeppelin/contracts/token/ERC20/ERC20.sol\":7640:7641  0 */\n      0x00\n        /* \"@openzeppelin/contracts/token/ERC20/ERC20.sol\":7644:7651  account */\n      dup4\n        /* \"@openzeppelin/contracts/token/ERC20/ERC20.sol\":7653:7658  value */\n      dup4\n        /* \"@openzeppelin/contracts/token/ERC20/ERC20.sol\":7624:7631  _update */\n      tag_109\n        /* \"@openzeppelin/contracts/token/ERC20/ERC20.sol\":7624:7659  _update(address(0), account, value) */\n      jump\t// in\n        /* \"@openzeppelin/contracts/token/ERC20/ERC20.sol\":9701:10133  function _approve(address owner, address spender, uint256 value, bool emitEvent) internal virtual {... */\n    tag_94:\n      sub(shl(0xa0, 0x01), 0x01)\n        /* \"@openzeppelin/contracts/token/ERC20/ERC20.sol\":9813:9832  owner == address(0) */\n      dup5\n      and\n        /* \"@openzeppelin/contracts/token/ERC20/ERC20.sol\":9809:9898  if (owner == address(0)) {... */\n      tag_115\n      jumpi\n        /* \"@openzeppelin/contracts/token/ERC20/ERC20.sol\":9855:9887  ERC20InvalidApprover(address(0)) */\n      mload(0x40)\n      shl(0xe0, 0xe602df05)\n      dup2\n      mstore\n        /* \"@openzeppelin/contracts/token/ERC20/ERC20.sol\":9884:9885  0 */\n      0x00\n        /* \"@openzeppelin/contracts/token/ERC20/ERC20.sol\":9855:9887  ERC20InvalidApprover(address(0)) */\n      0x04\n      dup3\n      add\n        /* \"#utility.yul\":3199:3250   */\n      mstore\n        /* \"#utility.yul\":3172:3190   */\n      0x24\n      add\n        /* \"@openzeppelin/contracts/token/ERC20/ERC20.sol\":9855:9887  ERC20InvalidApprover(address(0)) */\n      tag_99\n        /* \"#utility.yul\":3053:3256   */\n      jump\n        /* \"@openzeppelin/contracts/token/ERC20/ERC20.sol\":9809:9898  if (owner == address(0)) {... */\n    tag_115:\n      sub(shl(0xa0, 0x01), 0x01)\n        /* \"@openzeppelin/contracts/token/ERC20/ERC20.sol\":9911:9932  spender == address(0) */\n      dup4\n      and\n        /* \"@openzeppelin/contracts/token/ERC20/ERC20.sol\":9907:9997  if (spender == address(0)) {... */\n      tag_117\n      jumpi\n        /* \"@openzeppelin/contracts/token/ERC20/ERC20.sol\":9955:9986  ERC20InvalidSpender(address(0)) */\n      mload(0x40)\n      shl(0xe1, 0x4a1406b1)\n      dup2\n      mstore\n        /* \"@openzeppelin/contracts/token/ERC20/ERC20.sol\":9983:9984  0 */\n      0x00\n        /* \"@openzeppelin/contracts/token/ERC20/ERC20.sol\":9955:9986  ERC20InvalidSpender(address(0)) */\n      0x04\n      dup3\n      add\n        /* \"#utility.yul\":3199:3250   */\n      mstore\n        /* \"#utility.yul\":3172:3190   */\n      0x24\n      add\n        /* \"@openzeppelin/contracts/token/ERC20/ERC20.sol\":9955:9986  ERC20InvalidSpender(address(0)) */\n      tag_99\n        /* \"#utility.yul\":3053:3256   */\n      jump\n        /* \"@openzeppelin/contracts/token/ERC20/ERC20.sol\":9907:9997  if (spender == address(0)) {... */\n    tag_117:\n      sub(shl(0xa0, 0x01), 0x01)\n        /* \"@openzeppelin/contracts/token/ERC20/ERC20.sol\":10006:10024  _allowances[owner] */\n      dup1\n      dup6\n      and\n      0x00\n      swap1\n      dup2\n      mstore\n        /* \"@openzeppelin/contracts/token/ERC20/ERC20.sol\":10006:10017  _allowances */\n      0x01\n        /* \"@openzeppelin/contracts/token/ERC20/ERC20.sol\":10006:10024  _allowances[owner] */\n      0x20\n      swap1\n      dup2\n      mstore\n      0x40\n      dup1\n      dup4\n      keccak256\n        /* \"@openzeppelin/contracts/token/ERC20/ERC20.sol\":10006:10033  _allowances[owner][spender] */\n      swap4\n      dup8\n      and\n      dup4\n      mstore\n      swap3\n      swap1\n      mstore\n      keccak256\n        /* \"@openzeppelin/contracts/token/ERC20/ERC20.sol\":10006:10041  _allowances[owner][spender] = value */\n      dup3\n      swap1\n      sstore\n        /* \"@openzeppelin/contracts/token/ERC20/ERC20.sol\":10051:10127  if (emitEvent) {... */\n      dup1\n      iszero\n      tag_101\n      jumpi\n        /* \"@openzeppelin/contracts/token/ERC20/ERC20.sol\":10101:10108  spender */\n      dup3\n      sub(shl(0xa0, 0x01), 0x01)\n        /* \"@openzeppelin/contracts/token/ERC20/ERC20.sol\":10085:10116  Approval(owner, spender, value) */\n      and\n        /* \"@openzeppelin/contracts/token/ERC20/ERC20.sol\":10094:10099  owner */\n      dup5\n      sub(shl(0xa0, 0x01), 0x01)\n        /* \"@openzeppelin/contracts/token/ERC20/ERC20.sol\":10085:10116  Approval(owner, spender, value) */\n      and\n      0x8c5be1e5ebec7d5bd14f71427d1e84f3dd0314c0f7b2291e5b200ac8c7c3b925\n        /* \"@openzeppelin/contracts/token/ERC20/ERC20.sol\":10110:10115  value */\n      dup5\n        /* \"@openzeppelin/contracts/token/ERC20/ERC20.sol\":10085:10116  Approval(owner, spender, value) */\n      mload(0x40)\n      tag_120\n      swap2\n        /* \"#utility.yul\":1258:1283   */\n      dup2\n      mstore\n        /* \"#utility.yul\":1246:1248   */\n      0x20\n        /* \"#utility.yul\":1231:1249   */\n      add\n      swap1\n        /* \"#utility.yul\":1112:1289   */\n      jump\n        /* \"@openzeppelin/contracts/token/ERC20/ERC20.sol\":10085:10116  Approval(owner, spender, value) */\n    tag_120:\n      mload(0x40)\n      dup1\n      swap2\n      sub\n      swap1\n      log3\n        /* \"@openzeppelin/contracts/token/ERC20/ERC20.sol\":9701:10133  function _approve(address owner, address spender, uint256 value, bool emitEvent) internal virtual {... */\n      pop\n      pop\n      pop\n      pop\n      jump\t// out\n        /* \"@openzeppelin/contracts/token/ERC20/ERC20.sol\":6008:7115  function _update(address from, address to, uint256 value) internal virtual {... */\n    tag_109:\n      sub(shl(0xa0, 0x01), 0x01)\n        /* \"@openzeppelin/contracts/token/ERC20/ERC20.sol\":6097:6115  from == address(0) */\n      dup4\n      and\n        /* \"@openzeppelin/contracts/token/ERC20/ERC20.sol\":6093:6633  if (from == address(0)) {... */\n      tag_122\n      jumpi\n        /* \"@openzeppelin/contracts/token/ERC20/ERC20.sol\":6249:6254  value */\n      dup1\n        /* \"@openzeppelin/contracts/token/ERC20/ERC20.sol\":6233:6245  _totalSupply */\n      0x02\n      0x00\n        /* \"@openzeppelin/contracts/token/ERC20/ERC20.sol\":6233:6254  _totalSupply += value */\n      dup3\n      dup3\n      sload\n      tag_123\n      swap2\n      swap1\n      tag_124\n      jump\t// in\n    tag_123:\n      swap1\n      swap2\n      sstore\n      pop\n        /* \"@openzeppelin/contracts/token/ERC20/ERC20.sol\":6093:6633  if (from == address(0)) {... */\n      tag_125\n      swap1\n      pop\n      jump\n    tag_122:\n      sub(shl(0xa0, 0x01), 0x01)\n        /* \"@openzeppelin/contracts/token/ERC20/ERC20.sol\":6307:6322  _balances[from] */\n      dup4\n      and\n        /* \"@openzeppelin/contracts/token/ERC20/ERC20.sol\":6285:6304  uint256 fromBalance */\n      0x00\n        /* \"@openzeppelin/contracts/token/ERC20/ERC20.sol\":6307:6322  _balances[from] */\n      swap1\n      dup2\n      mstore\n      0x20\n      dup2\n      swap1\n      mstore\n      0x40\n      swap1\n      keccak256\n      sload\n        /* \"@openzeppelin/contracts/token/ERC20/ERC20.sol\":6340:6359  fromBalance < value */\n      dup2\n      dup2\n      lt\n        /* \"@openzeppelin/contracts/token/ERC20/ERC20.sol\":6336:6451  if (fromBalance < value) {... */\n      iszero\n      tag_126\n      jumpi\n        /* \"@openzeppelin/contracts/token/ERC20/ERC20.sol\":6386:6436  ERC20InsufficientBalance(from, fromBalance, value) */\n      mload(0x40)\n      shl(0xe2, 0x391434e3)\n      dup2\n      mstore\n      sub(shl(0xa0, 0x01), 0x01)\n        /* \"#utility.yul\":2923:2955   */\n      dup6\n      and\n        /* \"@openzeppelin/contracts/token/ERC20/ERC20.sol\":6386:6436  ERC20InsufficientBalance(from, fromBalance, value) */\n      0x04\n      dup3\n      add\n        /* \"#utility.yul\":2905:2956   */\n      mstore\n        /* \"#utility.yul\":2972:2990   */\n      0x24\n      dup2\n      add\n        /* \"#utility.yul\":2965:2999   */\n      dup3\n      swap1\n      mstore\n        /* \"#utility.yul\":3015:3033   */\n      0x44\n      dup2\n      add\n        /* \"#utility.yul\":3008:3042   */\n      dup4\n      swap1\n      mstore\n        /* \"#utility.yul\":2878:2896   */\n      0x64\n      add\n        /* \"@openzeppelin/contracts/token/ERC20/ERC20.sol\":6386:6436  ERC20InsufficientBalance(from, fromBalance, value) */\n      tag_99\n        /* \"#utility.yul\":2703:3048   */\n      jump\n        /* \"@openzeppelin/contracts/token/ERC20/ERC20.sol\":6336:6451  if (fromBalance < value) {... */\n    tag_126:\n      sub(shl(0xa0, 0x01), 0x01)\n        /* \"@openzeppelin/contracts/token/ERC20/ERC20.sol\":6571:6586  _balances[from] */\n      dup5\n      and\n        /* \"@openzeppelin/contracts/token/ERC20/ERC20.sol\":6571:6580  _balances */\n      0x00\n        /* \"@openzeppelin/contracts/token/ERC20/ERC20.sol\":6571:6586  _balances[from] */\n      swap1\n      dup2\n      mstore\n      0x20\n      dup2\n      swap1\n      mstore\n      0x40\n      swap1\n      keccak256\n        /* \"@openzeppelin/contracts/token/ERC20/ERC20.sol\":6589:6608  fromBalance - value */\n      swap1\n      dup3\n      swap1\n      sub\n        /* \"@openzeppelin/contracts/token/ERC20/ERC20.sol\":6571:6608  _balances[from] = fromBalance - value */\n      swap1\n      sstore\n        /* \"@openzeppelin/contracts/token/ERC20/ERC20.sol\":6093:6633  if (from == address(0)) {... */\n    tag_125:\n      sub(shl(0xa0, 0x01), 0x01)\n        /* \"@openzeppelin/contracts/token/ERC20/ERC20.sol\":6647:6663  to == address(0) */\n      dup3\n      and\n        /* \"@openzeppelin/contracts/token/ERC20/ERC20.sol\":6643:7068  if (to == address(0)) {... */\n      tag_128\n      jumpi\n        /* \"@openzeppelin/contracts/token/ERC20/ERC20.sol\":6810:6822  _totalSupply */\n      0x02\n        /* \"@openzeppelin/contracts/token/ERC20/ERC20.sol\":6810:6831  _totalSupply -= value */\n      dup1\n      sload\n      dup3\n      swap1\n      sub\n      swap1\n      sstore\n        /* \"@openzeppelin/contracts/token/ERC20/ERC20.sol\":6643:7068  if (to == address(0)) {... */\n      jump(tag_129)\n    tag_128:\n      sub(shl(0xa0, 0x01), 0x01)\n        /* \"@openzeppelin/contracts/token/ERC20/ERC20.sol\":7021:7034  _balances[to] */\n      dup3\n      and\n        /* \"@openzeppelin/contracts/token/ERC20/ERC20.sol\":7021:7030  _balances */\n      0x00\n        /* \"@openzeppelin/contracts/token/ERC20/ERC20.sol\":7021:7034  _balances[to] */\n      swap1\n      dup2\n      mstore\n      0x20\n      dup2\n      swap1\n      mstore\n      0x40\n      swap1\n      keccak256\n        /* \"@openzeppelin/contracts/token/ERC20/ERC20.sol\":7021:7043  _balances[to] += value */\n      dup1\n      sload\n      dup3\n      add\n      swap1\n      sstore\n        /* \"@openzeppelin/contracts/token/ERC20/ERC20.sol\":6643:7068  if (to == address(0)) {... */\n    tag_129:\n        /* \"@openzeppelin/contracts/token/ERC20/ERC20.sol\":7098:7100  to */\n      dup2\n      sub(shl(0xa0, 0x01), 0x01)\n        /* \"@openzeppelin/contracts/token/ERC20/ERC20.sol\":7083:7108  Transfer(from, to, value) */\n      and\n        /* \"@openzeppelin/contracts/token/ERC20/ERC20.sol\":7092:7096  from */\n      dup4\n      sub(shl(0xa0, 0x01), 0x01)\n        /* \"@openzeppelin/contracts/token/ERC20/ERC20.sol\":7083:7108  Transfer(from, to, value) */\n      and\n      0xddf252ad1be2c89b69c2b068fc378daa952ba7f163c4a11628f55a4df523b3ef\n        /* \"@openzeppelin/contracts/token/ERC20/ERC20.sol\":7102:7107  value */\n      dup4\n        /* \"@openzeppelin/contracts/token/ERC20/ERC20.sol\":7083:7108  Transfer(from, to, value) */\n      mload(0x40)\n      tag_130\n      swap2\n        /* \"#utility.yul\":1258:1283   */\n      dup2\n      mstore\n        /* \"#utility.yul\":1246:1248   */\n      0x20\n        /* \"#utility.yul\":1231:1249   */\n      add\n      swap1\n        /* \"#utility.yul\":1112:1289   */\n      jump\n        /* \"@openzeppelin/contracts/token/ERC20/ERC20.sol\":7083:7108  Transfer(from, to, value) */\n    tag_130:\n      mload(0x40)\n      dup1\n      swap2\n      sub\n      swap1\n      log3\n        /* \"@openzeppelin/contracts/token/ERC20/ERC20.sol\":6008:7115  function _update(address from, address to, uint256 value) internal virtual {... */\n      pop\n      pop\n      pop\n      jump\t// out\n        /* \"#utility.yul\":14:432   */\n    tag_17:\n        /* \"#utility.yul\":163:165   */\n      0x20\n        /* \"#utility.yul\":152:161   */\n      dup2\n        /* \"#utility.yul\":145:166   */\n      mstore\n        /* \"#utility.yul\":126:130   */\n      0x00\n        /* \"#utility.yul\":195:201   */\n      dup3\n        /* \"#utility.yul\":189:202   */\n      mload\n        /* \"#utility.yul\":238:244   */\n      dup1\n        /* \"#utility.yul\":233:235   */\n      0x20\n        /* \"#utility.yul\":222:231   */\n      dup5\n        /* \"#utility.yul\":218:236   */\n      add\n        /* \"#utility.yul\":211:245   */\n      mstore\n        /* \"#utility.yul\":297:303   */\n      dup1\n        /* \"#utility.yul\":292:294   */\n      0x20\n        /* \"#utility.yul\":284:290   */\n      dup6\n        /* \"#utility.yul\":280:295   */\n      add\n        /* \"#utility.yul\":275:277   */\n      0x40\n        /* \"#utility.yul\":264:273   */\n      dup6\n        /* \"#utility.yul\":260:278   */\n      add\n        /* \"#utility.yul\":254:304   */\n      mcopy\n        /* \"#utility.yul\":353:354   */\n      0x00\n        /* \"#utility.yul\":348:350   */\n      0x40\n        /* \"#utility.yul\":339:345   */\n      dup3\n        /* \"#utility.yul\":328:337   */\n      dup6\n        /* \"#utility.yul\":324:346   */\n      add\n        /* \"#utility.yul\":320:351   */\n      add\n        /* \"#utility.yul\":313:355   */\n      mstore\n        /* \"#utility.yul\":423:425   */\n      0x40\n        /* \"#utility.yul\":416:418   */\n      0x1f\n        /* \"#utility.yul\":412:419   */\n      not\n        /* \"#utility.yul\":407:409   */\n      0x1f\n        /* \"#utility.yul\":399:405   */\n      dup4\n        /* \"#utility.yul\":395:410   */\n      add\n        /* \"#utility.yul\":391:420   */\n      and\n        /* \"#utility.yul\":380:389   */\n      dup5\n        /* \"#utility.yul\":376:421   */\n      add\n        /* \"#utility.yul\":372:426   */\n      add\n        /* \"#utility.yul\":364:426   */\n      swap2\n      pop\n      pop\n        /* \"#utility.yul\":14:432   */\n      swap3\n      swap2\n      pop\n      pop\n      jump\t// out\n        /* \"#utility.yul\":437:610   */\n    tag_131:\n        /* \"#utility.yul\":505:525   */\n      dup1\n      calldataload\n      sub(shl(0xa0, 0x01), 0x01)\n        /* \"#utility.yul\":554:585   */\n      dup2\n      and\n        /* \"#utility.yul\":544:586   */\n      dup2\n      eq\n        /* \"#utility.yul\":534:604   */\n      tag_135\n      jumpi\n        /* \"#utility.yul\":600:601   */\n      0x00\n        /* \"#utility.yul\":597:598   */\n      0x00\n        /* \"#utility.yul\":590:602   */\n      revert\n        /* \"#utility.yul\":534:604   */\n    tag_135:\n        /* \"#utility.yul\":437:610   */\n      swap2\n      swap1\n      pop\n      jump\t// out\n        /* \"#utility.yul\":615:915   */\n    tag_20:\n        /* \"#utility.yul\":683:689   */\n      0x00\n        /* \"#utility.yul\":691:697   */\n      0x00\n        /* \"#utility.yul\":744:746   */\n      0x40\n        /* \"#utility.yul\":732:741   */\n      dup4\n        /* \"#utility.yul\":723:730   */\n      dup6\n        /* \"#utility.yul\":719:742   */\n      sub\n        /* \"#utility.yul\":715:747   */\n      slt\n        /* \"#utility.yul\":712:764   */\n      iszero\n      tag_137\n      jumpi\n        /* \"#utility.yul\":760:761   */\n      0x00\n        /* \"#utility.yul\":757:758   */\n      0x00\n        /* \"#utility.yul\":750:762   */\n      revert\n        /* \"#utility.yul\":712:764   */\n    tag_137:\n        /* \"#utility.yul\":783:812   */\n      tag_138\n        /* \"#utility.yul\":802:811   */\n      dup4\n        /* \"#utility.yul\":783:812   */\n      tag_131\n      jump\t// in\n    tag_138:\n        /* \"#utility.yul\":773:812   */\n      swap5\n        /* \"#utility.yul\":881:883   */\n      0x20\n        /* \"#utility.yul\":866:884   */\n      swap4\n      swap1\n      swap4\n      add\n        /* \"#utility.yul\":853:885   */\n      calldataload\n      swap4\n      pop\n      pop\n      pop\n        /* \"#utility.yul\":615:915   */\n      jump\t// out\n        /* \"#utility.yul\":1294:1668   */\n    tag_30:\n        /* \"#utility.yul\":1371:1377   */\n      0x00\n        /* \"#utility.yul\":1379:1385   */\n      0x00\n        /* \"#utility.yul\":1387:1393   */\n      0x00\n        /* \"#utility.yul\":1440:1442   */\n      0x60\n        /* \"#utility.yul\":1428:1437   */\n      dup5\n        /* \"#utility.yul\":1419:1426   */\n      dup7\n        /* \"#utility.yul\":1415:1438   */\n      sub\n        /* \"#utility.yul\":1411:1443   */\n      slt\n        /* \"#utility.yul\":1408:1460   */\n      iszero\n      tag_142\n      jumpi\n        /* \"#utility.yul\":1456:1457   */\n      0x00\n        /* \"#utility.yul\":1453:1454   */\n      0x00\n        /* \"#utility.yul\":1446:1458   */\n      revert\n        /* \"#utility.yul\":1408:1460   */\n    tag_142:\n        /* \"#utility.yul\":1479:1508   */\n      tag_143\n        /* \"#utility.yul\":1498:1507   */\n      dup5\n        /* \"#utility.yul\":1479:1508   */\n      tag_131\n      jump\t// in\n    tag_143:\n        /* \"#utility.yul\":1469:1508   */\n      swap3\n      pop\n        /* \"#utility.yul\":1527:1565   */\n      tag_144\n        /* \"#utility.yul\":1561:1563   */\n      0x20\n        /* \"#utility.yul\":1550:1559   */\n      dup6\n        /* \"#utility.yul\":1546:1564   */\n      add\n        /* \"#utility.yul\":1527:1565   */\n      tag_131\n      jump\t// in\n    tag_144:\n        /* \"#utility.yul\":1294:1668   */\n      swap3\n      swap6\n        /* \"#utility.yul\":1517:1565   */\n      swap3\n      swap5\n      pop\n      pop\n      pop\n        /* \"#utility.yul\":1634:1636   */\n      0x40\n        /* \"#utility.yul\":1619:1637   */\n      swap2\n      swap1\n      swap2\n      add\n        /* \"#utility.yul\":1606:1638   */\n      calldataload\n      swap1\n        /* \"#utility.yul\":1294:1668   */\n      jump\t// out\n        /* \"#utility.yul\":1862:2048   */\n    tag_39:\n        /* \"#utility.yul\":1921:1927   */\n      0x00\n        /* \"#utility.yul\":1974:1976   */\n      0x20\n        /* \"#utility.yul\":1962:1971   */\n      dup3\n        /* \"#utility.yul\":1953:1960   */\n      dup5\n        /* \"#utility.yul\":1949:1972   */\n      sub\n        /* \"#utility.yul\":1945:1977   */\n      slt\n        /* \"#utility.yul\":1942:1994   */\n      iszero\n      tag_147\n      jumpi\n        /* \"#utility.yul\":1990:1991   */\n      0x00\n        /* \"#utility.yul\":1987:1988   */\n      0x00\n        /* \"#utility.yul\":1980:1992   */\n      revert\n        /* \"#utility.yul\":1942:1994   */\n    tag_147:\n        /* \"#utility.yul\":2013:2042   */\n      tag_148\n        /* \"#utility.yul\":2032:2041   */\n      dup3\n        /* \"#utility.yul\":2013:2042   */\n      tag_131\n      jump\t// in\n    tag_148:\n        /* \"#utility.yul\":2003:2042   */\n      swap4\n        /* \"#utility.yul\":1862:2048   */\n      swap3\n      pop\n      pop\n      pop\n      jump\t// out\n        /* \"#utility.yul\":2053:2313   */\n    tag_54:\n        /* \"#utility.yul\":2121:2127   */\n      0x00\n        /* \"#utility.yul\":2129:2135   */\n      0x00\n        /* \"#utility.yul\":2182:2184   */\n      0x40\n        /* \"#utility.yul\":2170:2179   */\n      dup4\n        /* \"#utility.yul\":2161:2168   */\n      dup6\n        /* \"#utility.yul\":2157:2180   */\n      sub\n        /* \"#utility.yul\":2153:2185   */\n      slt\n        /* \"#utility.yul\":2150:2202   */\n      iszero\n      tag_150\n      jumpi\n        /* \"#utility.yul\":2198:2199   */\n      0x00\n        /* \"#utility.yul\":2195:2196   */\n      0x00\n        /* \"#utility.yul\":2188:2200   */\n      revert\n        /* \"#utility.yul\":2150:2202   */\n    tag_150:\n        /* \"#utility.yul\":2221:2250   */\n      tag_151\n        /* \"#utility.yul\":2240:2249   */\n      dup4\n        /* \"#utility.yul\":2221:2250   */\n      tag_131\n      jump\t// in\n    tag_151:\n        /* \"#utility.yul\":2211:2250   */\n      swap2\n      pop\n        /* \"#utility.yul\":2269:2307   */\n      tag_152\n        /* \"#utility.yul\":2303:2305   */\n      0x20\n        /* \"#utility.yul\":2292:2301   */\n      dup5\n        /* \"#utility.yul\":2288:2306   */\n      add\n        /* \"#utility.yul\":2269:2307   */\n      tag_131\n      jump\t// in\n    tag_152:\n        /* \"#utility.yul\":2259:2307   */\n      swap1\n      pop\n        /* \"#utility.yul\":2053:2313   */\n      swap3\n      pop\n      swap3\n      swap1\n      pop\n      jump\t// out\n        /* \"#utility.yul\":2318:2698   */\n    tag_59:\n        /* \"#utility.yul\":2397:2398   */\n      0x01\n        /* \"#utility.yul\":2393:2405   */\n      dup2\n      dup2\n      shr\n      swap1\n        /* \"#utility.yul\":2440:2452   */\n      dup3\n      and\n      dup1\n        /* \"#utility.yul\":2461:2522   */\n      tag_154\n      jumpi\n        /* \"#utility.yul\":2515:2519   */\n      0x7f\n        /* \"#utility.yul\":2507:2513   */\n      dup3\n        /* \"#utility.yul\":2503:2520   */\n      and\n        /* \"#utility.yul\":2493:2520   */\n      swap2\n      pop\n        /* \"#utility.yul\":2461:2522   */\n    tag_154:\n        /* \"#utility.yul\":2568:2570   */\n      0x20\n        /* \"#utility.yul\":2560:2566   */\n      dup3\n        /* \"#utility.yul\":2557:2571   */\n      lt\n        /* \"#utility.yul\":2537:2555   */\n      dup2\n        /* \"#utility.yul\":2534:2572   */\n      sub\n        /* \"#utility.yul\":2531:2692   */\n      tag_155\n      jumpi\n        /* \"#utility.yul\":2614:2624   */\n      0x4e487b71\n        /* \"#utility.yul\":2609:2612   */\n      0xe0\n        /* \"#utility.yul\":2605:2625   */\n      shl\n        /* \"#utility.yul\":2602:2603   */\n      0x00\n        /* \"#utility.yul\":2595:2626   */\n      mstore\n        /* \"#utility.yul\":2649:2653   */\n      0x22\n        /* \"#utility.yul\":2646:2647   */\n      0x04\n        /* \"#utility.yul\":2639:2654   */\n      mstore\n        /* \"#utility.yul\":2677:2681   */\n      0x24\n        /* \"#utility.yul\":2674:2675   */\n      0x00\n        /* \"#utility.yul\":2667:2682   */\n      revert\n        /* \"#utility.yul\":2531:2692   */\n    tag_155:\n      pop\n        /* \"#utility.yul\":2318:2698   */\n      swap2\n      swap1\n      pop\n      jump\t// out\n        /* \"#utility.yul\":3261:3483   */\n    tag_124:\n        /* \"#utility.yul\":3326:3335   */\n      dup1\n      dup3\n      add\n        /* \"#utility.yul\":3347:3357   */\n      dup1\n      dup3\n      gt\n        /* \"#utility.yul\":3344:3477   */\n      iszero\n      tag_64\n      jumpi\n        /* \"#utility.yul\":3399:3409   */\n      0x4e487b71\n        /* \"#utility.yul\":3394:3397   */\n      0xe0\n        /* \"#utility.yul\":3390:3410   */\n      shl\n        /* \"#utility.yul\":3387:3388   */\n      0x00\n        /* \"#utility.yul\":3380:3411   */\n      mstore\n        /* \"#utility.yul\":3434:3438   */\n      0x11\n        /* \"#utility.yul\":3431:3432   */\n      0x04\n        /* \"#utility.yul\":3424:3439   */\n      mstore\n        /* \"#utility.yul\":3462:3466   */\n      0x24\n        /* \"#utility.yul\":3459:3460   */\n      0x00\n        /* \"#utility.yul\":3452:3467   */\n      revert\n\n    auxdata: 0xa264697066735822122058e0aa5a5a4854a1d68e4570960c320282a13d88996af53d67e734a7e764d27664736f6c634300081c0033\n}\n",
				"bytecode": {
					"linkReferences": {},
					"object": "608060405234801561000f575f5ffd5b506040516109e53803806109e583398101604081905261002e916100f0565b8181600361003c83826101d9565b50600461004982826101d9565b5050505050610293565b634e487b7160e01b5f52604160045260245ffd5b5f82601f830112610076575f5ffd5b81516001600160401b0381111561008f5761008f610053565b604051601f8201601f19908116603f011681016001600160401b03811182821017156100bd576100bd610053565b6040528181528382016020018510156100d4575f5ffd5b8160208501602083015e5f918101602001919091529392505050565b5f5f60408385031215610101575f5ffd5b82516001600160401b03811115610116575f5ffd5b61012285828601610067565b602085015190935090506001600160401b0381111561013f575f5ffd5b61014b85828601610067565b9150509250929050565b600181811c9082168061016957607f821691505b60208210810361018757634e487b7160e01b5f52602260045260245ffd5b50919050565b601f8211156101d457805f5260205f20601f840160051c810160208510156101b25750805b601f840160051c820191505b818110156101d1575f81556001016101be565b50505b505050565b81516001600160401b038111156101f2576101f2610053565b610206816102008454610155565b8461018d565b6020601f821160018114610238575f83156102215750848201515b5f19600385901b1c1916600184901b1784556101d1565b5f84815260208120601f198516915b828110156102675787850151825560209485019460019092019101610247565b508482101561028457868401515f19600387901b60f8161c191681555b50505050600190811b01905550565b610745806102a05f395ff3fe608060405234801561000f575f5ffd5b506004361061009b575f3560e01c806370a082311161006357806370a0823114610114578063748a29861461013c57806395d89b4114610151578063a9059cbb14610159578063dd62ed3e1461016c575f5ffd5b806306fdde031461009f578063095ea7b3146100bd57806318160ddd146100e057806323b872dd146100f2578063313ce56714610105575b5f5ffd5b6100a76101a4565b6040516100b491906105b5565b60405180910390f35b6100d06100cb366004610605565b610234565b60405190151581526020016100b4565b6002545b6040519081526020016100b4565b6100d061010036600461062d565b61024d565b604051600681526020016100b4565b6100e4610122366004610667565b6001600160a01b03165f9081526020819052604090205490565b61014f61014a366004610605565b610270565b005b6100a761027e565b6100d0610167366004610605565b61028d565b6100e461017a366004610687565b6001600160a01b039182165f90815260016020908152604080832093909416825291909152205490565b6060600380546101b3906106b8565b80601f01602080910402602001604051908101604052809291908181526020018280546101df906106b8565b801561022a5780601f106102015761010080835404028352916020019161022a565b820191905f5260205f20905b81548152906001019060200180831161020d57829003601f168201915b5050505050905090565b5f3361024181858561029a565b60019150505b92915050565b5f3361025a8582856102ac565b61026585858561032c565b506001949350505050565b61027a8282610389565b5050565b6060600480546101b3906106b8565b5f3361024181858561032c565b6102a783838360016103bd565b505050565b6001600160a01b038381165f908152600160209081526040808320938616835292905220545f198114610326578181101561031857604051637dc7a0d960e11b81526001600160a01b038416600482015260248101829052604481018390526064015b60405180910390fd5b61032684848484035f6103bd565b50505050565b6001600160a01b03831661035557604051634b637e8f60e11b81525f600482015260240161030f565b6001600160a01b03821661037e5760405163ec442f0560e01b81525f600482015260240161030f565b6102a783838361048f565b6001600160a01b0382166103b25760405163ec442f0560e01b81525f600482015260240161030f565b61027a5f838361048f565b6001600160a01b0384166103e65760405163e602df0560e01b81525f600482015260240161030f565b6001600160a01b03831661040f57604051634a1406b160e11b81525f600482015260240161030f565b6001600160a01b038085165f908152600160209081526040808320938716835292905220829055801561032657826001600160a01b0316846001600160a01b03167f8c5be1e5ebec7d5bd14f71427d1e84f3dd0314c0f7b2291e5b200ac8c7c3b9258460405161048191815260200190565b60405180910390a350505050565b6001600160a01b0383166104b9578060025f8282546104ae91906106f0565b909155506105299050565b6001600160a01b0383165f908152602081905260409020548181101561050b5760405163391434e360e21b81526001600160a01b0385166004820152602481018290526044810183905260640161030f565b6001600160a01b0384165f9081526020819052604090209082900390555b6001600160a01b03821661054557600280548290039055610563565b6001600160a01b0382165f9081526020819052604090208054820190555b816001600160a01b0316836001600160a01b03167fddf252ad1be2c89b69c2b068fc378daa952ba7f163c4a11628f55a4df523b3ef836040516105a891815260200190565b60405180910390a3505050565b602081525f82518060208401528060208501604085015e5f604082850101526040601f19601f83011684010191505092915050565b80356001600160a01b0381168114610600575f5ffd5b919050565b5f5f60408385031215610616575f5ffd5b61061f836105ea565b946020939093013593505050565b5f5f5f6060848603121561063f575f5ffd5b610648846105ea565b9250610656602085016105ea565b929592945050506040919091013590565b5f60208284031215610677575f5ffd5b610680826105ea565b9392505050565b5f5f60408385031215610698575f5ffd5b6106a1836105ea565b91506106af602084016105ea565b90509250929050565b600181811c908216806106cc57607f821691505b6020821081036106ea57634e487b7160e01b5f52602260045260245ffd5b50919050565b8082018082111561024757634e487b7160e01b5f52601160045260245ffdfea264697066735822122058e0aa5a5a4854a1d68e4570960c320282a13d88996af53d67e734a7e764d27664736f6c634300081c0033",
					"opcodes": "PUSH1 0x80 PUSH1 0x40 MSTORE CALLVALUE DUP1 ISZERO PUSH2 0xF JUMPI PUSH0 PUSH0 REVERT JUMPDEST POP PUSH1 0x40 MLOAD PUSH2 0x9E5 CODESIZE SUB DUP1 PUSH2 0x9E5 DUP4 CODECOPY DUP2 ADD PUSH1 0x40 DUP2 SWAP1 MSTORE PUSH2 0x2E SWAP2 PUSH2 0xF0 JUMP JUMPDEST DUP2 DUP2 PUSH1 0x3 PUSH2 0x3C DUP4 DUP3 PUSH2 0x1D9 JUMP JUMPDEST POP PUSH1 0x4 PUSH2 0x49 DUP3 DUP3 PUSH2 0x1D9 JUMP JUMPDEST POP POP POP POP POP PUSH2 0x293 JUMP JUMPDEST PUSH4 0x4E487B71 PUSH1 0xE0 SHL PUSH0 MSTORE PUSH1 0x41 PUSH1 0x4 MSTORE PUSH1 0x24 PUSH0 REVERT JUMPDEST PUSH0 DUP3 PUSH1 0x1F DUP4 ADD SLT PUSH2 0x76 JUMPI PUSH0 PUSH0 REVERT JUMPDEST DUP2 MLOAD PUSH1 0x1 PUSH1 0x1 PUSH1 0x40 SHL SUB DUP2 GT ISZERO PUSH2 0x8F JUMPI PUSH2 0x8F PUSH2 0x53 JUMP JUMPDEST PUSH1 0x40 MLOAD PUSH1 0x1F DUP3 ADD PUSH1 0x1F NOT SWAP1 DUP2 AND PUSH1 0x3F ADD AND DUP2 ADD PUSH1 0x1 PUSH1 0x1 PUSH1 0x40 SHL SUB DUP2 GT DUP3 DUP3 LT OR ISZERO PUSH2 0xBD JUMPI PUSH2 0xBD PUSH2 0x53 JUMP JUMPDEST PUSH1 0x40 MSTORE DUP2 DUP2 MSTORE DUP4 DUP3 ADD PUSH1 0x20 ADD DUP6 LT ISZERO PUSH2 0xD4 JUMPI PUSH0 PUSH0 REVERT JUMPDEST DUP2 PUSH1 0x20 DUP6 ADD PUSH1 0x20 DUP4 ADD MCOPY PUSH0 SWAP2 DUP2 ADD PUSH1 0x20 ADD SWAP2 SWAP1 SWAP2 MSTORE SWAP4 SWAP3 POP POP POP JUMP JUMPDEST PUSH0 PUSH0 PUSH1 0x40 DUP4 DUP6 SUB SLT ISZERO PUSH2 0x101 JUMPI PUSH0 PUSH0 REVERT JUMPDEST DUP3 MLOAD PUSH1 0x1 PUSH1 0x1 PUSH1 0x40 SHL SUB DUP2 GT ISZERO PUSH2 0x116 JUMPI PUSH0 PUSH0 REVERT JUMPDEST PUSH2 0x122 DUP6 DUP3 DUP7 ADD PUSH2 0x67 JUMP JUMPDEST PUSH1 0x20 DUP6 ADD MLOAD SWAP1 SWAP4 POP SWAP1 POP PUSH1 0x1 PUSH1 0x1 PUSH1 0x40 SHL SUB DUP2 GT ISZERO PUSH2 0x13F JUMPI PUSH0 PUSH0 REVERT JUMPDEST PUSH2 0x14B DUP6 DUP3 DUP7 ADD PUSH2 0x67 JUMP JUMPDEST SWAP2 POP POP SWAP3 POP SWAP3 SWAP1 POP JUMP JUMPDEST PUSH1 0x1 DUP2 DUP2 SHR SWAP1 DUP3 AND DUP1 PUSH2 0x169 JUMPI PUSH1 0x7F DUP3 AND SWAP2 POP JUMPDEST PUSH1 0x20 DUP3 LT DUP2 SUB PUSH2 0x187 JUMPI PUSH4 0x4E487B71 PUSH1 0xE0 SHL PUSH0 MSTORE PUSH1 0x22 PUSH1 0x4 MSTORE PUSH1 0x24 PUSH0 REVERT JUMPDEST POP SWAP2 SWAP1 POP JUMP JUMPDEST PUSH1 0x1F DUP3 GT ISZERO PUSH2 0x1D4 JUMPI DUP1 PUSH0 MSTORE PUSH1 0x20 PUSH0 KECCAK256 PUSH1 0x1F DUP5 ADD PUSH1 0x5 SHR DUP2 ADD PUSH1 0x20 DUP6 LT ISZERO PUSH2 0x1B2 JUMPI POP DUP1 JUMPDEST PUSH1 0x1F DUP5 ADD PUSH1 0x5 SHR DUP3 ADD SWAP2 POP JUMPDEST DUP2 DUP2 LT ISZERO PUSH2 0x1D1 JUMPI PUSH0 DUP2 SSTORE PUSH1 0x1 ADD PUSH2 0x1BE JUMP JUMPDEST POP POP JUMPDEST POP POP POP JUMP JUMPDEST DUP2 MLOAD PUSH1 0x1 PUSH1 0x1 PUSH1 0x40 SHL SUB DUP2 GT ISZERO PUSH2 0x1F2 JUMPI PUSH2 0x1F2 PUSH2 0x53 JUMP JUMPDEST PUSH2 0x206 DUP2 PUSH2 0x200 DUP5 SLOAD PUSH2 0x155 JUMP JUMPDEST DUP5 PUSH2 0x18D JUMP JUMPDEST PUSH1 0x20 PUSH1 0x1F DUP3 GT PUSH1 0x1 DUP2 EQ PUSH2 0x238 JUMPI PUSH0 DUP4 ISZERO PUSH2 0x221 JUMPI POP DUP5 DUP3 ADD MLOAD JUMPDEST PUSH0 NOT PUSH1 0x3 DUP6 SWAP1 SHL SHR NOT AND PUSH1 0x1 DUP5 SWAP1 SHL OR DUP5 SSTORE PUSH2 0x1D1 JUMP JUMPDEST PUSH0 DUP5 DUP2 MSTORE PUSH1 0x20 DUP2 KECCAK256 PUSH1 0x1F NOT DUP6 AND SWAP2 JUMPDEST DUP3 DUP2 LT ISZERO PUSH2 0x267 JUMPI DUP8 DUP6 ADD MLOAD DUP3 SSTORE PUSH1 0x20 SWAP5 DUP6 ADD SWAP5 PUSH1 0x1 SWAP1 SWAP3 ADD SWAP2 ADD PUSH2 0x247 JUMP JUMPDEST POP DUP5 DUP3 LT ISZERO PUSH2 0x284 JUMPI DUP7 DUP5 ADD MLOAD PUSH0 NOT PUSH1 0x3 DUP8 SWAP1 SHL PUSH1 0xF8 AND SHR NOT AND DUP2 SSTORE JUMPDEST POP POP POP POP PUSH1 0x1 SWAP1 DUP2 SHL ADD SWAP1 SSTORE POP JUMP JUMPDEST PUSH2 0x745 DUP1 PUSH2 0x2A0 PUSH0 CODECOPY PUSH0 RETURN INVALID PUSH1 0x80 PUSH1 0x40 MSTORE CALLVALUE DUP1 ISZERO PUSH2 0xF JUMPI PUSH0 PUSH0 REVERT JUMPDEST POP PUSH1 0x4 CALLDATASIZE LT PUSH2 0x9B JUMPI PUSH0 CALLDATALOAD PUSH1 0xE0 SHR DUP1 PUSH4 0x70A08231 GT PUSH2 0x63 JUMPI DUP1 PUSH4 0x70A08231 EQ PUSH2 0x114 JUMPI DUP1 PUSH4 0x748A2986 EQ PUSH2 0x13C JUMPI DUP1 PUSH4 0x95D89B41 EQ PUSH2 0x151 JUMPI DUP1 PUSH4 0xA9059CBB EQ PUSH2 0x159 JUMPI DUP1 PUSH4 0xDD62ED3E EQ PUSH2 0x16C JUMPI PUSH0 PUSH0 REVERT JUMPDEST DUP1 PUSH4 0x6FDDE03 EQ PUSH2 0x9F JUMPI DUP1 PUSH4 0x95EA7B3 EQ PUSH2 0xBD JUMPI DUP1 PUSH4 0x18160DDD EQ PUSH2 0xE0 JUMPI DUP1 PUSH4 0x23B872DD EQ PUSH2 0xF2 JUMPI DUP1 PUSH4 0x313CE567 EQ PUSH2 0x105 JUMPI JUMPDEST PUSH0 PUSH0 REVERT JUMPDEST PUSH2 0xA7 PUSH2 0x1A4 JUMP JUMPDEST PUSH1 0x40 MLOAD PUSH2 0xB4 SWAP2 SWAP1 PUSH2 0x5B5 JUMP JUMPDEST PUSH1 0x40 MLOAD DUP1 SWAP2 SUB SWAP1 RETURN JUMPDEST PUSH2 0xD0 PUSH2 0xCB CALLDATASIZE PUSH1 0x4 PUSH2 0x605 JUMP JUMPDEST PUSH2 0x234 JUMP JUMPDEST PUSH1 0x40 MLOAD SWAP1 ISZERO ISZERO DUP2 MSTORE PUSH1 0x20 ADD PUSH2 0xB4 JUMP JUMPDEST PUSH1 0x2 SLOAD JUMPDEST PUSH1 0x40 MLOAD SWAP1 DUP2 MSTORE PUSH1 0x20 ADD PUSH2 0xB4 JUMP JUMPDEST PUSH2 0xD0 PUSH2 0x100 CALLDATASIZE PUSH1 0x4 PUSH2 0x62D JUMP JUMPDEST PUSH2 0x24D JUMP JUMPDEST PUSH1 0x40 MLOAD PUSH1 0x6 DUP2 MSTORE PUSH1 0x20 ADD PUSH2 0xB4 JUMP JUMPDEST PUSH2 0xE4 PUSH2 0x122 CALLDATASIZE PUSH1 0x4 PUSH2 0x667 JUMP JUMPDEST PUSH1 0x1 PUSH1 0x1 PUSH1 0xA0 SHL SUB AND PUSH0 SWAP1 DUP2 MSTORE PUSH1 0x20 DUP2 SWAP1 MSTORE PUSH1 0x40 SWAP1 KECCAK256 SLOAD SWAP1 JUMP JUMPDEST PUSH2 0x14F PUSH2 0x14A CALLDATASIZE PUSH1 0x4 PUSH2 0x605 JUMP JUMPDEST PUSH2 0x270 JUMP JUMPDEST STOP JUMPDEST PUSH2 0xA7 PUSH2 0x27E JUMP JUMPDEST PUSH2 0xD0 PUSH2 0x167 CALLDATASIZE PUSH1 0x4 PUSH2 0x605 JUMP JUMPDEST PUSH2 0x28D JUMP JUMPDEST PUSH2 0xE4 PUSH2 0x17A CALLDATASIZE PUSH1 0x4 PUSH2 0x687 JUMP JUMPDEST PUSH1 0x1 PUSH1 0x1 PUSH1 0xA0 SHL SUB SWAP2 DUP3 AND PUSH0 SWAP1 DUP2 MSTORE PUSH1 0x1 PUSH1 0x20 SWAP1 DUP2 MSTORE PUSH1 0x40 DUP1 DUP4 KECCAK256 SWAP4 SWAP1 SWAP5 AND DUP3 MSTORE SWAP2 SWAP1 SWAP2 MSTORE KECCAK256 SLOAD SWAP1 JUMP JUMPDEST PUSH1 0x60 PUSH1 0x3 DUP1 SLOAD PUSH2 0x1B3 SWAP1 PUSH2 0x6B8 JUMP JUMPDEST DUP1 PUSH1 0x1F ADD PUSH1 0x20 DUP1 SWAP2 DIV MUL PUSH1 0x20 ADD PUSH1 0x40 MLOAD SWAP1 DUP2 ADD PUSH1 0x40 MSTORE DUP1 SWAP3 SWAP2 SWAP1 DUP2 DUP2 MSTORE PUSH1 0x20 ADD DUP3 DUP1 SLOAD PUSH2 0x1DF SWAP1 PUSH2 0x6B8 JUMP JUMPDEST DUP1 ISZERO PUSH2 0x22A JUMPI DUP1 PUSH1 0x1F LT PUSH2 0x201 JUMPI PUSH2 0x100 DUP1 DUP4 SLOAD DIV MUL DUP4 MSTORE SWAP2 PUSH1 0x20 ADD SWAP2 PUSH2 0x22A JUMP JUMPDEST DUP3 ADD SWAP2 SWAP1 PUSH0 MSTORE PUSH1 0x20 PUSH0 KECCAK256 SWAP1 JUMPDEST DUP2 SLOAD DUP2 MSTORE SWAP1 PUSH1 0x1 ADD SWAP1 PUSH1 0x20 ADD DUP1 DUP4 GT PUSH2 0x20D JUMPI DUP3 SWAP1 SUB PUSH1 0x1F AND DUP3 ADD SWAP2 JUMPDEST POP POP POP POP POP SWAP1 POP SWAP1 JUMP JUMPDEST PUSH0 CALLER PUSH2 0x241 DUP2 DUP6 DUP6 PUSH2 0x29A JUMP JUMPDEST PUSH1 0x1 SWAP2 POP POP JUMPDEST SWAP3 SWAP2 POP POP JUMP JUMPDEST PUSH0 CALLER PUSH2 0x25A DUP6 DUP3 DUP6 PUSH2 0x2AC JUMP JUMPDEST PUSH2 0x265 DUP6 DUP6 DUP6 PUSH2 0x32C JUMP JUMPDEST POP PUSH1 0x1 SWAP5 SWAP4 POP POP POP POP JUMP JUMPDEST PUSH2 0x27A DUP3 DUP3 PUSH2 0x389 JUMP JUMPDEST POP POP JUMP JUMPDEST PUSH1 0x60 PUSH1 0x4 DUP1 SLOAD PUSH2 0x1B3 SWAP1 PUSH2 0x6B8 JUMP JUMPDEST PUSH0 CALLER PUSH2 0x241 DUP2 DUP6 DUP6 PUSH2 0x32C JUMP JUMPDEST PUSH2 0x2A7 DUP4 DUP4 DUP4 PUSH1 0x1 PUSH2 0x3BD JUMP JUMPDEST POP POP POP JUMP JUMPDEST PUSH1 0x1 PUSH1 0x1 PUSH1 0xA0 SHL SUB DUP4 DUP2 AND PUSH0 SWAP1 DUP2 MSTORE PUSH1 0x1 PUSH1 0x20 SWAP1 DUP2 MSTORE PUSH1 0x40 DUP1 DUP4 KECCAK256 SWAP4 DUP7 AND DUP4 MSTORE SWAP3 SWAP1 MSTORE KECCAK256 SLOAD PUSH0 NOT DUP2 EQ PUSH2 0x326 JUMPI DUP2 DUP2 LT ISZERO PUSH2 0x318 JUMPI PUSH1 0x40 MLOAD PUSH4 0x7DC7A0D9 PUSH1 0xE1 SHL DUP2 MSTORE PUSH1 0x1 PUSH1 0x1 PUSH1 0xA0 SHL SUB DUP5 AND PUSH1 0x4 DUP3 ADD MSTORE PUSH1 0x24 DUP2 ADD DUP3 SWAP1 MSTORE PUSH1 0x44 DUP2 ADD DUP4 SWAP1 MSTORE PUSH1 0x64 ADD JUMPDEST PUSH1 0x40 MLOAD DUP1 SWAP2 SUB SWAP1 REVERT JUMPDEST PUSH2 0x326 DUP5 DUP5 DUP5 DUP5 SUB PUSH0 PUSH2 0x3BD JUMP JUMPDEST POP POP POP POP JUMP JUMPDEST PUSH1 0x1 PUSH1 0x1 PUSH1 0xA0 SHL SUB DUP4 AND PUSH2 0x355 JUMPI PUSH1 0x40 MLOAD PUSH4 0x4B637E8F PUSH1 0xE1 SHL DUP2 MSTORE PUSH0 PUSH1 0x4 DUP3 ADD MSTORE PUSH1 0x24 ADD PUSH2 0x30F JUMP JUMPDEST PUSH1 0x1 PUSH1 0x1 PUSH1 0xA0 SHL SUB DUP3 AND PUSH2 0x37E JUMPI PUSH1 0x40 MLOAD PUSH4 0xEC442F05 PUSH1 0xE0 SHL DUP2 MSTORE PUSH0 PUSH1 0x4 DUP3 ADD MSTORE PUSH1 0x24 ADD PUSH2 0x30F JUMP JUMPDEST PUSH2 0x2A7 DUP4 DUP4 DUP4 PUSH2 0x48F JUMP JUMPDEST PUSH1 0x1 PUSH1 0x1 PUSH1 0xA0 SHL SUB DUP3 AND PUSH2 0x3B2 JUMPI PUSH1 0x40 MLOAD PUSH4 0xEC442F05 PUSH1 0xE0 SHL DUP2 MSTORE PUSH0 PUSH1 0x4 DUP3 ADD MSTORE PUSH1 0x24 ADD PUSH2 0x30F JUMP JUMPDEST PUSH2 0x27A PUSH0 DUP4 DUP4 PUSH2 0x48F JUMP JUMPDEST PUSH1 0x1 PUSH1 0x1 PUSH1 0xA0 SHL SUB DUP5 AND PUSH2 0x3E6 JUMPI PUSH1 0x40 MLOAD PUSH4 0xE602DF05 PUSH1 0xE0 SHL DUP2 MSTORE PUSH0 PUSH1 0x4 DUP3 ADD MSTORE PUSH1 0x24 ADD PUSH2 0x30F JUMP JUMPDEST PUSH1 0x1 PUSH1 0x1 PUSH1 0xA0 SHL SUB DUP4 AND PUSH2 0x40F JUMPI PUSH1 0x40 MLOAD PUSH4 0x4A1406B1 PUSH1 0xE1 SHL DUP2 MSTORE PUSH0 PUSH1 0x4 DUP3 ADD MSTORE PUSH1 0x24 ADD PUSH2 0x30F JUMP JUMPDEST PUSH1 0x1 PUSH1 0x1 PUSH1 0xA0 SHL SUB DUP1 DUP6 AND PUSH0 SWAP1 DUP2 MSTORE PUSH1 0x1 PUSH1 0x20 SWAP1 DUP2 MSTORE PUSH1 0x40 DUP1 DUP4 KECCAK256 SWAP4 DUP8 AND DUP4 MSTORE SWAP3 SWAP1 MSTORE KECCAK256 DUP3 SWAP1 SSTORE DUP1 ISZERO PUSH2 0x326 JUMPI DUP3 PUSH1 0x1 PUSH1 0x1 PUSH1 0xA0 SHL SUB AND DUP5 PUSH1 0x1 PUSH1 0x1 PUSH1 0xA0 SHL SUB AND PUSH32 0x8C5BE1E5EBEC7D5BD14F71427D1E84F3DD0314C0F7B2291E5B200AC8C7C3B925 DUP5 PUSH1 0x40 MLOAD PUSH2 0x481 SWAP2 DUP2 MSTORE PUSH1 0x20 ADD SWAP1 JUMP JUMPDEST PUSH1 0x40 MLOAD DUP1 SWAP2 SUB SWAP1 LOG3 POP POP POP POP JUMP JUMPDEST PUSH1 0x1 PUSH1 0x1 PUSH1 0xA0 SHL SUB DUP4 AND PUSH2 0x4B9 JUMPI DUP1 PUSH1 0x2 PUSH0 DUP3 DUP3 SLOAD PUSH2 0x4AE SWAP2 SWAP1 PUSH2 0x6F0 JUMP JUMPDEST SWAP1 SWAP2 SSTORE POP PUSH2 0x529 SWAP1 POP JUMP JUMPDEST PUSH1 0x1 PUSH1 0x1 PUSH1 0xA0 SHL SUB DUP4 AND PUSH0 SWAP1 DUP2 MSTORE PUSH1 0x20 DUP2 SWAP1 MSTORE PUSH1 0x40 SWAP1 KECCAK256 SLOAD DUP2 DUP2 LT ISZERO PUSH2 0x50B JUMPI PUSH1 0x40 MLOAD PUSH4 0x391434E3 PUSH1 0xE2 SHL DUP2 MSTORE PUSH1 0x1 PUSH1 0x1 PUSH1 0xA0 SHL SUB DUP6 AND PUSH1 0x4 DUP3 ADD MSTORE PUSH1 0x24 DUP2 ADD DUP3 SWAP1 MSTORE PUSH1 0x44 DUP2 ADD DUP4 SWAP1 MSTORE PUSH1 0x64 ADD PUSH2 0x30F JUMP JUMPDEST PUSH1 0x1 PUSH1 0x1 PUSH1 0xA0 SHL SUB DUP5 AND PUSH0 SWAP1 DUP2 MSTORE PUSH1 0x20 DUP2 SWAP1 MSTORE PUSH1 0x40 SWAP1 KECCAK256 SWAP1 DUP3 SWAP1 SUB SWAP1 SSTORE JUMPDEST PUSH1 0x1 PUSH1 0x1 PUSH1 0xA0 SHL SUB DUP3 AND PUSH2 0x545 JUMPI PUSH1 0x2 DUP1 SLOAD DUP3 SWAP1 SUB SWAP1 SSTORE PUSH2 0x563 JUMP JUMPDEST PUSH1 0x1 PUSH1 0x1 PUSH1 0xA0 SHL SUB DUP3 AND PUSH0 SWAP1 DUP2 MSTORE PUSH1 0x20 DUP2 SWAP1 MSTORE PUSH1 0x40 SWAP1 KECCAK256 DUP1 SLOAD DUP3 ADD SWAP1 SSTORE JUMPDEST DUP2 PUSH1 0x1 PUSH1 0x1 PUSH1 0xA0 SHL SUB AND DUP4 PUSH1 0x1 PUSH1 0x1 PUSH1 0xA0 SHL SUB AND PUSH32 0xDDF252AD1BE2C89B69C2B068FC378DAA952BA7F163C4A11628F55A4DF523B3EF DUP4 PUSH1 0x40 MLOAD PUSH2 0x5A8 SWAP2 DUP2 MSTORE PUSH1 0x20 ADD SWAP1 JUMP JUMPDEST PUSH1 0x40 MLOAD DUP1 SWAP2 SUB SWAP1 LOG3 POP POP POP JUMP JUMPDEST PUSH1 0x20 DUP2 MSTORE PUSH0 DUP3 MLOAD DUP1 PUSH1 0x20 DUP5 ADD MSTORE DUP1 PUSH1 0x20 DUP6 ADD PUSH1 0x40 DUP6 ADD MCOPY PUSH0 PUSH1 0x40 DUP3 DUP6 ADD ADD MSTORE PUSH1 0x40 PUSH1 0x1F NOT PUSH1 0x1F DUP4 ADD AND DUP5 ADD ADD SWAP2 POP POP SWAP3 SWAP2 POP POP JUMP JUMPDEST DUP1 CALLDATALOAD PUSH1 0x1 PUSH1 0x1 PUSH1 0xA0 SHL SUB DUP2 AND DUP2 EQ PUSH2 0x600 JUMPI PUSH0 PUSH0 REVERT JUMPDEST SWAP2 SWAP1 POP JUMP JUMPDEST PUSH0 PUSH0 PUSH1 0x40 DUP4 DUP6 SUB SLT ISZERO PUSH2 0x616 JUMPI PUSH0 PUSH0 REVERT JUMPDEST PUSH2 0x61F DUP4 PUSH2 0x5EA JUMP JUMPDEST SWAP5 PUSH1 0x20 SWAP4 SWAP1 SWAP4 ADD CALLDATALOAD SWAP4 POP POP POP JUMP JUMPDEST PUSH0 PUSH0 PUSH0 PUSH1 0x60 DUP5 DUP7 SUB SLT ISZERO PUSH2 0x63F JUMPI PUSH0 PUSH0 REVERT JUMPDEST PUSH2 0x648 DUP5 PUSH2 0x5EA JUMP JUMPDEST SWAP3 POP PUSH2 0x656 PUSH1 0x20 DUP6 ADD PUSH2 0x5EA JUMP JUMPDEST SWAP3 SWAP6 SWAP3 SWAP5 POP POP POP PUSH1 0x40 SWAP2 SWAP1 SWAP2 ADD CALLDATALOAD SWAP1 JUMP JUMPDEST PUSH0 PUSH1 0x20 DUP3 DUP5 SUB SLT ISZERO PUSH2 0x677 JUMPI PUSH0 PUSH0 REVERT JUMPDEST PUSH2 0x680 DUP3 PUSH2 0x5EA JUMP JUMPDEST SWAP4 SWAP3 POP POP POP JUMP JUMPDEST PUSH0 PUSH0 PUSH1 0x40 DUP4 DUP6 SUB SLT ISZERO PUSH2 0x698 JUMPI PUSH0 PUSH0 REVERT JUMPDEST PUSH2 0x6A1 DUP4 PUSH2 0x5EA JUMP JUMPDEST SWAP2 POP PUSH2 0x6AF PUSH1 0x20 DUP5 ADD PUSH2 0x5EA JUMP JUMPDEST SWAP1 POP SWAP3 POP SWAP3 SWAP1 POP JUMP JUMPDEST PUSH1 0x1 DUP2 DUP2 SHR SWAP1 DUP3 AND DUP1 PUSH2 0x6CC JUMPI PUSH1 0x7F DUP3 AND SWAP2 POP JUMPDEST PUSH1 0x20 DUP3 LT DUP2 SUB PUSH2 0x6EA JUMPI PUSH4 0x4E487B71 PUSH1 0xE0 SHL PUSH0 MSTORE PUSH1 0x22 PUSH1 0x4 MSTORE PUSH1 0x24 PUSH0 REVERT JUMPDEST POP SWAP2 SWAP1 POP JUMP JUMPDEST DUP1 DUP3 ADD DUP1 DUP3 GT ISZERO PUSH2 0x247 JUMPI PUSH4 0x4E487B71 PUSH1 0xE0 SHL PUSH0 MSTORE PUSH1 0x11 PUSH1 0x4 MSTORE PUSH1 0x24 PUSH0 REVERT INVALID LOG2 PUSH5 0x6970667358 0x22 SLT KECCAK256 PC 0xE0 0xAA GAS GAS BASEFEE SLOAD LOG1 0xD6 DUP15 GASLIMIT PUSH17 0x960C320282A13D88996AF53D67E734A7E7 PUSH5 0xD27664736F PUSH13 0x634300081C0033000000000000 "
				},
				"gasEstimates": {
					"creation": {
						"codeDepositCost": "372200",
						"executionCost": "infinite",
						"totalCost": "infinite"
					},
					"external": {
						"PublicMint(address,uint256)": "infinite",
						"allowance(address,address)": "infinite",
						"approve(address,uint256)": "24734",
						"balanceOf(address)": "2537",
						"decimals()": "265",
						"name()": "infinite",
						"symbol()": "infinite",
						"totalSupply()": "2325",
						"transfer(address,uint256)": "51281",
						"transferFrom(address,address,uint256)": "infinite"
					}
				},
				"methodIdentifiers": {
					"PublicMint(address,uint256)": "748a2986",
					"allowance(address,address)": "dd62ed3e",
					"approve(address,uint256)": "095ea7b3",
					"balanceOf(address)": "70a08231",
					"decimals()": "313ce567",
					"name()": "06fdde03",
					"symbol()": "95d89b41",
					"totalSupply()": "18160ddd",
					"transfer(address,uint256)": "a9059cbb",
					"transferFrom(address,address,uint256)": "23b872dd"
				}
			},
			"storageLayout": {
				"storage": [
					{
						"astId": 159,
						"contract": "DEX/Token.sol:erc20token",
						"label": "_balances",
						"offset": 0,
						"slot": "0",
						"type": "t_mapping(t_address,t_uint256)"
					},
					{
						"astId": 165,
						"contract": "DEX/Token.sol:erc20token",
						"label": "_allowances",
						"offset": 0,
						"slot": "1",
						"type": "t_mapping(t_address,t_mapping(t_address,t_uint256))"
					},
					{
						"astId": 167,
						"contract": "DEX/Token.sol:erc20token",
						"label": "_totalSupply",
						"offset": 0,
						"slot": "2",
						"type": "t_uint256"
					},
					{
						"astId": 169,
						"contract": "DEX/Token.sol:erc20token",
						"label": "_name",
						"offset": 0,
						"slot": "3",
						"type": "t_string_storage"
					},
					{
						"astId": 171,
						"contract": "DEX/Token.sol:erc20token",
						"label": "_symbol",
						"offset": 0,
						"slot": "4",
						"type": "t_string_storage"
					}
				],
				"types": {
					"t_address": {
						"encoding": "inplace",
						"label": "address",
						"numberOfBytes": "20"
					},
					"t_mapping(t_address,t_mapping(t_address,t_uint256))": {
						"encoding": "mapping",
						"key": "t_address",
						"label": "mapping(address => mapping(address => uint256))",
						"numberOfBytes": "32",
						"value": "t_mapping(t_address,t_uint256)"
					},
					"t_mapping(t_address,t_uint256)": {
						"encoding": "mapping",
						"key": "t_address",
						"label": "mapping(address => uint256)",
						"numberOfBytes": "32",
						"value": "t_uint256"
					},
					"t_string_storage": {
						"encoding": "bytes",
						"label": "string",
						"numberOfBytes": "32"
					},
					"t_uint256": {
						"encoding": "inplace",
						"label": "uint256",
						"numberOfBytes": "32"
					}
				}
			},
			"userdoc": {
				"kind": "user",
				"methods": {},
				"version": 1
			}
		}
	}
}