{
	"AAVE Flash Loans/Exchange.sol": {
		"Exchange": {
			"abi": [
				{
					"inputs": [],
					"stateMutability": "nonpayable",
					"type": "constructor"
				},
				{
					"inputs": [],
					"name": "buyDAI",
					"outputs": [],
					"stateMutability": "nonpayable",
					"type": "function"
				},
				{
					"inputs": [
						{
							"internalType": "address",
							"name": "",
							"type": "address"
						}
					],
					"name": "daiBalances",
					"outputs": [
						{
							"internalType": "uint256",
							"name": "",
							"type": "uint256"
						}
					],
					"stateMutability": "view",
					"type": "function"
				},
				{
					"inputs": [
						{
							"internalType": "uint256",
							"name": "_amount",
							"type": "uint256"
						}
					],
					"name": "depositDAI",
					"outputs": [],
					"stateMutability": "nonpayable",
					"type": "function"
				},
				{
					"inputs": [
						{
							"internalType": "uint256",
							"name": "_amount",
							"type": "uint256"
						}
					],
					"name": "depositUSDC",
					"outputs": [],
					"stateMutability": "nonpayable",
					"type": "function"
				},
				{
					"inputs": [
						{
							"internalType": "address",
							"name": "_tokenAddress",
							"type": "address"
						}
					],
					"name": "getBalance",
					"outputs": [
						{
							"internalType": "uint256",
							"name": "",
							"type": "uint256"
						}
					],
					"stateMutability": "view",
					"type": "function"
				},
				{
					"inputs": [],
					"name": "owner",
					"outputs": [
						{
							"internalType": "address payable",
							"name": "",
							"type": "address"
						}
					],
					"stateMutability": "view",
					"type": "function"
				},
				{
					"inputs": [],
					"name": "sellDAI",
					"outputs": [],
					"stateMutability": "nonpayable",
					"type": "function"
				},
				{
					"inputs": [
						{
							"internalType": "address",
							"name": "",
							"type": "address"
						}
					],
					"name": "usdcBalances",
					"outputs": [
						{
							"internalType": "uint256",
							"name": "",
							"type": "uint256"
						}
					],
					"stateMutability": "view",
					"type": "function"
				},
				{
					"inputs": [
						{
							"internalType": "address",
							"name": "_tokenAddress",
							"type": "address"
						}
					],
					"name": "withdraw",
					"outputs": [],
					"stateMutability": "nonpayable",
					"type": "function"
				},
				{
					"stateMutability": "payable",
					"type": "receive"
				}
			],
			"devdoc": {
				"kind": "dev",
				"methods": {},
				"version": 1
			},
			"evm": {
				"assembly": "    /* \"AAVE Flash Loans/Exchange.sol\":155:2465  contract Exchange {... */\n  mstore(0x40, 0xc0)\n    /* \"AAVE Flash Loans/Exchange.sol\":320:362  0x94a9D9AC8a22534E3FaCa9F4e7F2E2cf85d5E4C8 */\n  0x94a9d9ac8a22534e3faca9f4e7f2e2cf85d5e4c8\n    /* \"AAVE Flash Loans/Exchange.sol\":272:362  address private immutable usdcAddress =... */\n  0xffffffffffffffffffffffffffffffffffffffff\n  and\n  0x80\n  swap1\n  0xffffffffffffffffffffffffffffffffffffffff\n  and\n  dup2\n  mstore\n  pop\n    /* \"AAVE Flash Loans/Exchange.sol\":416:458  0xFF34B3d4Aee8ddCd6F9AFFFB6Fe49bD371b8a357 */\n  0xff34b3d4aee8ddcd6f9afffb6fe49bd371b8a357\n    /* \"AAVE Flash Loans/Exchange.sol\":369:458  address private immutable daiAddress =... */\n  0xffffffffffffffffffffffffffffffffffffffff\n  and\n  0xa0\n  swap1\n  0xffffffffffffffffffffffffffffffffffffffff\n  and\n  dup2\n  mstore\n  pop\n    /* \"AAVE Flash Loans/Exchange.sol\":563:565  90 */\n  0x5a\n    /* \"AAVE Flash Loans/Exchange.sol\":544:565  uint256 dexARate = 90 */\n  0x03\n  sstore\n    /* \"AAVE Flash Loans/Exchange.sol\":590:593  100 */\n  0x64\n    /* \"AAVE Flash Loans/Exchange.sol\":571:593  uint256 dexBRate = 100 */\n  0x04\n  sstore\n    /* \"AAVE Flash Loans/Exchange.sol\":804:932  constructor() {... */\n  callvalue\n  dup1\n  iszero\n  tag_1\n  jumpi\n  0x00\n  dup1\n  revert\ntag_1:\n  pop\n    /* \"AAVE Flash Loans/Exchange.sol\":844:854  msg.sender */\n  caller\n    /* \"AAVE Flash Loans/Exchange.sol\":828:833  owner */\n  0x00\n  dup1\n    /* \"AAVE Flash Loans/Exchange.sol\":828:855  owner = payable(msg.sender) */\n  0x0100\n  exp\n  dup2\n  sload\n  dup2\n  0xffffffffffffffffffffffffffffffffffffffff\n  mul\n  not\n  and\n  swap1\n  dup4\n  0xffffffffffffffffffffffffffffffffffffffff\n  and\n  mul\n  or\n  swap1\n  sstore\n  pop\n    /* \"AAVE Flash Loans/Exchange.sol\":878:888  daiAddress */\n  mload(0xa0)\n    /* \"AAVE Flash Loans/Exchange.sol\":865:868  dai */\n  0x01\n  0x00\n    /* \"AAVE Flash Loans/Exchange.sol\":865:889  dai = IERC20(daiAddress) */\n  0x0100\n  exp\n  dup2\n  sload\n  dup2\n  0xffffffffffffffffffffffffffffffffffffffff\n  mul\n  not\n  and\n  swap1\n  dup4\n  0xffffffffffffffffffffffffffffffffffffffff\n  and\n  mul\n  or\n  swap1\n  sstore\n  pop\n    /* \"AAVE Flash Loans/Exchange.sol\":913:924  usdcAddress */\n  mload(0x80)\n    /* \"AAVE Flash Loans/Exchange.sol\":899:903  usdc */\n  0x02\n  0x00\n    /* \"AAVE Flash Loans/Exchange.sol\":899:925  usdc = IERC20(usdcAddress) */\n  0x0100\n  exp\n  dup2\n  sload\n  dup2\n  0xffffffffffffffffffffffffffffffffffffffff\n  mul\n  not\n  and\n  swap1\n  dup4\n  0xffffffffffffffffffffffffffffffffffffffff\n  and\n  mul\n  or\n  swap1\n  sstore\n  pop\n    /* \"AAVE Flash Loans/Exchange.sol\":155:2465  contract Exchange {... */\n  mload(0x80)\n  mload(0xa0)\n  codecopy(0x00, dataOffset(sub_0), dataSize(sub_0))\n  0x00\n  assignImmutable(\"0x5ad0f966e4dd8863f27c0e6ee7d684c0c8f4319efed210fe15662a0d29bcd615\")\n  0x00\n  assignImmutable(\"0xcc193713febc75d3d9bd2f9ce113f403ff19633f15c8cdbcf79756ae23e77f9a\")\n  return(0x00, dataSize(sub_0))\nstop\n\nsub_0: assembly {\n        /* \"AAVE Flash Loans/Exchange.sol\":155:2465  contract Exchange {... */\n      mstore(0x40, 0x80)\n      jumpi(tag_1, lt(calldatasize, 0x04))\n      shr(0xe0, calldataload(0x00))\n      dup1\n      0x8da5cb5b\n      gt\n      tag_12\n      jumpi\n      dup1\n      0x8da5cb5b\n      eq\n      tag_7\n      jumpi\n      dup1\n      0xa99c68c5\n      eq\n      tag_8\n      jumpi\n      dup1\n      0xef067342\n      eq\n      tag_9\n      jumpi\n      dup1\n      0xf688bcfb\n      eq\n      tag_10\n      jumpi\n      dup1\n      0xf8b2cb4f\n      eq\n      tag_11\n      jumpi\n      jump(tag_2)\n    tag_12:\n      dup1\n      0x05abf904\n      eq\n      tag_3\n      jumpi\n      dup1\n      0x15602991\n      eq\n      tag_4\n      jumpi\n      dup1\n      0x365833e1\n      eq\n      tag_5\n      jumpi\n      dup1\n      0x51cff8d9\n      eq\n      tag_6\n      jumpi\n      jump(tag_2)\n    tag_1:\n      jumpi(tag_2, calldatasize)\n      stop\n    tag_2:\n      0x00\n      dup1\n      revert\n        /* \"AAVE Flash Loans/Exchange.sol\":1548:1731  function buyDAI() external {... */\n    tag_3:\n      callvalue\n      dup1\n      iszero\n      tag_15\n      jumpi\n      0x00\n      dup1\n      revert\n    tag_15:\n      pop\n      tag_16\n      tag_17\n      jump\t// in\n    tag_16:\n      stop\n        /* \"AAVE Flash Loans/Exchange.sol\":1737:1923  function sellDAI() external {... */\n    tag_4:\n      callvalue\n      dup1\n      iszero\n      tag_18\n      jumpi\n      0x00\n      dup1\n      revert\n    tag_18:\n      pop\n      tag_19\n      tag_20\n      jump\t// in\n    tag_19:\n      stop\n        /* \"AAVE Flash Loans/Exchange.sol\":1245:1542  function depositDAI(uint256 _amount) external {... */\n    tag_5:\n      callvalue\n      dup1\n      iszero\n      tag_21\n      jumpi\n      0x00\n      dup1\n      revert\n    tag_21:\n      pop\n      tag_22\n      0x04\n      dup1\n      calldatasize\n      sub\n      dup2\n      add\n      swap1\n      tag_23\n      swap2\n      swap1\n      tag_24\n      jump\t// in\n    tag_23:\n      tag_25\n      jump\t// in\n    tag_22:\n      stop\n        /* \"AAVE Flash Loans/Exchange.sol\":2080:2261  function withdraw(address _tokenAddress) external onlyOwner {... */\n    tag_6:\n      callvalue\n      dup1\n      iszero\n      tag_26\n      jumpi\n      0x00\n      dup1\n      revert\n    tag_26:\n      pop\n      tag_27\n      0x04\n      dup1\n      calldatasize\n      sub\n      dup2\n      add\n      swap1\n      tag_28\n      swap2\n      swap1\n      tag_29\n      jump\t// in\n    tag_28:\n      tag_30\n      jump\t// in\n    tag_27:\n      stop\n        /* \"AAVE Flash Loans/Exchange.sol\":179:207  address payable public owner */\n    tag_7:\n      callvalue\n      dup1\n      iszero\n      tag_31\n      jumpi\n      0x00\n      dup1\n      revert\n    tag_31:\n      pop\n      tag_32\n      tag_33\n      jump\t// in\n    tag_32:\n      mload(0x40)\n      tag_34\n      swap2\n      swap1\n      tag_35\n      jump\t// in\n    tag_34:\n      mload(0x40)\n      dup1\n      swap2\n      sub\n      swap1\n      return\n        /* \"AAVE Flash Loans/Exchange.sol\":750:797  mapping(address => uint256) public usdcBalances */\n    tag_8:\n      callvalue\n      dup1\n      iszero\n      tag_36\n      jumpi\n      0x00\n      dup1\n      revert\n    tag_36:\n      pop\n      tag_37\n      0x04\n      dup1\n      calldatasize\n      sub\n      dup2\n      add\n      swap1\n      tag_38\n      swap2\n      swap1\n      tag_29\n      jump\t// in\n    tag_38:\n      tag_39\n      jump\t// in\n    tag_37:\n      mload(0x40)\n      tag_40\n      swap2\n      swap1\n      tag_41\n      jump\t// in\n    tag_40:\n      mload(0x40)\n      dup1\n      swap2\n      sub\n      swap1\n      return\n        /* \"AAVE Flash Loans/Exchange.sol\":648:694  mapping(address => uint256) public daiBalances */\n    tag_9:\n      callvalue\n      dup1\n      iszero\n      tag_42\n      jumpi\n      0x00\n      dup1\n      revert\n    tag_42:\n      pop\n      tag_43\n      0x04\n      dup1\n      calldatasize\n      sub\n      dup2\n      add\n      swap1\n      tag_44\n      swap2\n      swap1\n      tag_29\n      jump\t// in\n    tag_44:\n      tag_45\n      jump\t// in\n    tag_43:\n      mload(0x40)\n      tag_46\n      swap2\n      swap1\n      tag_41\n      jump\t// in\n    tag_46:\n      mload(0x40)\n      dup1\n      swap2\n      sub\n      swap1\n      return\n        /* \"AAVE Flash Loans/Exchange.sol\":938:1239  function depositUSDC(uint256 _amount) external {... */\n    tag_10:\n      callvalue\n      dup1\n      iszero\n      tag_47\n      jumpi\n      0x00\n      dup1\n      revert\n    tag_47:\n      pop\n      tag_48\n      0x04\n      dup1\n      calldatasize\n      sub\n      dup2\n      add\n      swap1\n      tag_49\n      swap2\n      swap1\n      tag_24\n      jump\t// in\n    tag_49:\n      tag_50\n      jump\t// in\n    tag_48:\n      stop\n        /* \"AAVE Flash Loans/Exchange.sol\":1929:2074  function getBalance(address _tokenAddress) external view returns (uint256) {... */\n    tag_11:\n      callvalue\n      dup1\n      iszero\n      tag_51\n      jumpi\n      0x00\n      dup1\n      revert\n    tag_51:\n      pop\n      tag_52\n      0x04\n      dup1\n      calldatasize\n      sub\n      dup2\n      add\n      swap1\n      tag_53\n      swap2\n      swap1\n      tag_29\n      jump\t// in\n    tag_53:\n      tag_54\n      jump\t// in\n    tag_52:\n      mload(0x40)\n      tag_55\n      swap2\n      swap1\n      tag_41\n      jump\t// in\n    tag_55:\n      mload(0x40)\n      dup1\n      swap2\n      sub\n      swap1\n      return\n        /* \"AAVE Flash Loans/Exchange.sol\":1548:1731  function buyDAI() external {... */\n    tag_17:\n        /* \"AAVE Flash Loans/Exchange.sol\":1585:1605  uint256 daiToReceive */\n      0x00\n        /* \"AAVE Flash Loans/Exchange.sol\":1669:1675  10**12 */\n      0xe8d4a51000\n        /* \"AAVE Flash Loans/Exchange.sol\":1649:1652  100 */\n      0x64\n        /* \"AAVE Flash Loans/Exchange.sol\":1637:1645  dexARate */\n      sload(0x03)\n        /* \"AAVE Flash Loans/Exchange.sol\":1610:1622  usdcBalances */\n      0x06\n        /* \"AAVE Flash Loans/Exchange.sol\":1610:1634  usdcBalances[msg.sender] */\n      0x00\n        /* \"AAVE Flash Loans/Exchange.sol\":1623:1633  msg.sender */\n      caller\n        /* \"AAVE Flash Loans/Exchange.sol\":1610:1634  usdcBalances[msg.sender] */\n      0xffffffffffffffffffffffffffffffffffffffff\n      and\n      0xffffffffffffffffffffffffffffffffffffffff\n      and\n      dup2\n      mstore\n      0x20\n      add\n      swap1\n      dup2\n      mstore\n      0x20\n      add\n      0x00\n      keccak256\n      sload\n        /* \"AAVE Flash Loans/Exchange.sol\":1610:1645  usdcBalances[msg.sender] / dexARate */\n      tag_57\n      swap2\n      swap1\n      tag_58\n      jump\t// in\n    tag_57:\n        /* \"AAVE Flash Loans/Exchange.sol\":1609:1652  (usdcBalances[msg.sender] / dexARate) * 100 */\n      tag_59\n      swap2\n      swap1\n      tag_60\n      jump\t// in\n    tag_59:\n        /* \"AAVE Flash Loans/Exchange.sol\":1608:1676  ((usdcBalances[msg.sender] / dexARate) * 100) *... */\n      tag_61\n      swap2\n      swap1\n      tag_60\n      jump\t// in\n    tag_61:\n        /* \"AAVE Flash Loans/Exchange.sol\":1585:1676  uint256 daiToReceive = ((usdcBalances[msg.sender] / dexARate) * 100) *... */\n      swap1\n      pop\n        /* \"AAVE Flash Loans/Exchange.sol\":1686:1689  dai */\n      0x01\n      0x00\n      swap1\n      sload\n      swap1\n      0x0100\n      exp\n      swap1\n      div\n      0xffffffffffffffffffffffffffffffffffffffff\n      and\n        /* \"AAVE Flash Loans/Exchange.sol\":1686:1698  dai.transfer */\n      0xffffffffffffffffffffffffffffffffffffffff\n      and\n      0xa9059cbb\n        /* \"AAVE Flash Loans/Exchange.sol\":1699:1709  msg.sender */\n      caller\n        /* \"AAVE Flash Loans/Exchange.sol\":1711:1723  daiToReceive */\n      dup4\n        /* \"AAVE Flash Loans/Exchange.sol\":1686:1724  dai.transfer(msg.sender, daiToReceive) */\n      mload(0x40)\n      dup4\n      0xffffffff\n      and\n      0xe0\n      shl\n      dup2\n      mstore\n      0x04\n      add\n      tag_62\n      swap3\n      swap2\n      swap1\n      tag_63\n      jump\t// in\n    tag_62:\n      0x20\n      mload(0x40)\n      dup1\n      dup4\n      sub\n      dup2\n      0x00\n      dup8\n      gas\n      call\n      iszero\n      dup1\n      iszero\n      tag_65\n      jumpi\n      returndatasize\n      0x00\n      dup1\n      returndatacopy\n      revert(0x00, returndatasize)\n    tag_65:\n      pop\n      pop\n      pop\n      pop\n      mload(0x40)\n      returndatasize\n      not(0x1f)\n      0x1f\n      dup3\n      add\n      and\n      dup3\n      add\n      dup1\n      0x40\n      mstore\n      pop\n      dup2\n      add\n      swap1\n      tag_66\n      swap2\n      swap1\n      tag_67\n      jump\t// in\n    tag_66:\n      pop\n        /* \"AAVE Flash Loans/Exchange.sol\":1575:1731  {... */\n      pop\n        /* \"AAVE Flash Loans/Exchange.sol\":1548:1731  function buyDAI() external {... */\n      jump\t// out\n        /* \"AAVE Flash Loans/Exchange.sol\":1737:1923  function sellDAI() external {... */\n    tag_20:\n        /* \"AAVE Flash Loans/Exchange.sol\":1775:1796  uint256 usdcToReceive */\n      0x00\n        /* \"AAVE Flash Loans/Exchange.sol\":1859:1865  10**12 */\n      0xe8d4a51000\n        /* \"AAVE Flash Loans/Exchange.sol\":1839:1842  100 */\n      0x64\n        /* \"AAVE Flash Loans/Exchange.sol\":1827:1835  dexBRate */\n      sload(0x04)\n        /* \"AAVE Flash Loans/Exchange.sol\":1801:1812  daiBalances */\n      0x05\n        /* \"AAVE Flash Loans/Exchange.sol\":1801:1824  daiBalances[msg.sender] */\n      0x00\n        /* \"AAVE Flash Loans/Exchange.sol\":1813:1823  msg.sender */\n      caller\n        /* \"AAVE Flash Loans/Exchange.sol\":1801:1824  daiBalances[msg.sender] */\n      0xffffffffffffffffffffffffffffffffffffffff\n      and\n      0xffffffffffffffffffffffffffffffffffffffff\n      and\n      dup2\n      mstore\n      0x20\n      add\n      swap1\n      dup2\n      mstore\n      0x20\n      add\n      0x00\n      keccak256\n      sload\n        /* \"AAVE Flash Loans/Exchange.sol\":1801:1835  daiBalances[msg.sender] * dexBRate */\n      tag_69\n      swap2\n      swap1\n      tag_60\n      jump\t// in\n    tag_69:\n        /* \"AAVE Flash Loans/Exchange.sol\":1800:1842  (daiBalances[msg.sender] * dexBRate) / 100 */\n      tag_70\n      swap2\n      swap1\n      tag_58\n      jump\t// in\n    tag_70:\n        /* \"AAVE Flash Loans/Exchange.sol\":1799:1866  ((daiBalances[msg.sender] * dexBRate) / 100) /... */\n      tag_71\n      swap2\n      swap1\n      tag_58\n      jump\t// in\n    tag_71:\n        /* \"AAVE Flash Loans/Exchange.sol\":1775:1866  uint256 usdcToReceive = ((daiBalances[msg.sender] * dexBRate) / 100) /... */\n      swap1\n      pop\n        /* \"AAVE Flash Loans/Exchange.sol\":1876:1880  usdc */\n      0x02\n      0x00\n      swap1\n      sload\n      swap1\n      0x0100\n      exp\n      swap1\n      div\n      0xffffffffffffffffffffffffffffffffffffffff\n      and\n        /* \"AAVE Flash Loans/Exchange.sol\":1876:1889  usdc.transfer */\n      0xffffffffffffffffffffffffffffffffffffffff\n      and\n      0xa9059cbb\n        /* \"AAVE Flash Loans/Exchange.sol\":1890:1900  msg.sender */\n      caller\n        /* \"AAVE Flash Loans/Exchange.sol\":1902:1915  usdcToReceive */\n      dup4\n        /* \"AAVE Flash Loans/Exchange.sol\":1876:1916  usdc.transfer(msg.sender, usdcToReceive) */\n      mload(0x40)\n      dup4\n      0xffffffff\n      and\n      0xe0\n      shl\n      dup2\n      mstore\n      0x04\n      add\n      tag_72\n      swap3\n      swap2\n      swap1\n      tag_63\n      jump\t// in\n    tag_72:\n      0x20\n      mload(0x40)\n      dup1\n      dup4\n      sub\n      dup2\n      0x00\n      dup8\n      gas\n      call\n      iszero\n      dup1\n      iszero\n      tag_74\n      jumpi\n      returndatasize\n      0x00\n      dup1\n      returndatacopy\n      revert(0x00, returndatasize)\n    tag_74:\n      pop\n      pop\n      pop\n      pop\n      mload(0x40)\n      returndatasize\n      not(0x1f)\n      0x1f\n      dup3\n      add\n      and\n      dup3\n      add\n      dup1\n      0x40\n      mstore\n      pop\n      dup2\n      add\n      swap1\n      tag_75\n      swap2\n      swap1\n      tag_67\n      jump\t// in\n    tag_75:\n      pop\n        /* \"AAVE Flash Loans/Exchange.sol\":1765:1923  {... */\n      pop\n        /* \"AAVE Flash Loans/Exchange.sol\":1737:1923  function sellDAI() external {... */\n      jump\t// out\n        /* \"AAVE Flash Loans/Exchange.sol\":1245:1542  function depositDAI(uint256 _amount) external {... */\n    tag_25:\n        /* \"AAVE Flash Loans/Exchange.sol\":1328:1335  _amount */\n      dup1\n        /* \"AAVE Flash Loans/Exchange.sol\":1301:1312  daiBalances */\n      0x05\n        /* \"AAVE Flash Loans/Exchange.sol\":1301:1324  daiBalances[msg.sender] */\n      0x00\n        /* \"AAVE Flash Loans/Exchange.sol\":1313:1323  msg.sender */\n      caller\n        /* \"AAVE Flash Loans/Exchange.sol\":1301:1324  daiBalances[msg.sender] */\n      0xffffffffffffffffffffffffffffffffffffffff\n      and\n      0xffffffffffffffffffffffffffffffffffffffff\n      and\n      dup2\n      mstore\n      0x20\n      add\n      swap1\n      dup2\n      mstore\n      0x20\n      add\n      0x00\n      keccak256\n      0x00\n        /* \"AAVE Flash Loans/Exchange.sol\":1301:1335  daiBalances[msg.sender] += _amount */\n      dup3\n      dup3\n      sload\n      tag_77\n      swap2\n      swap1\n      tag_78\n      jump\t// in\n    tag_77:\n      swap3\n      pop\n      pop\n      dup2\n      swap1\n      sstore\n      pop\n        /* \"AAVE Flash Loans/Exchange.sol\":1345:1362  uint256 allowance */\n      0x00\n        /* \"AAVE Flash Loans/Exchange.sol\":1365:1368  dai */\n      0x01\n      0x00\n      swap1\n      sload\n      swap1\n      0x0100\n      exp\n      swap1\n      div\n      0xffffffffffffffffffffffffffffffffffffffff\n      and\n        /* \"AAVE Flash Loans/Exchange.sol\":1365:1378  dai.allowance */\n      0xffffffffffffffffffffffffffffffffffffffff\n      and\n      0xdd62ed3e\n        /* \"AAVE Flash Loans/Exchange.sol\":1379:1389  msg.sender */\n      caller\n        /* \"AAVE Flash Loans/Exchange.sol\":1399:1403  this */\n      address\n        /* \"AAVE Flash Loans/Exchange.sol\":1365:1405  dai.allowance(msg.sender, address(this)) */\n      mload(0x40)\n      dup4\n      0xffffffff\n      and\n      0xe0\n      shl\n      dup2\n      mstore\n      0x04\n      add\n      tag_79\n      swap3\n      swap2\n      swap1\n      tag_80\n      jump\t// in\n    tag_79:\n      0x20\n      mload(0x40)\n      dup1\n      dup4\n      sub\n      dup2\n      dup7\n      gas\n      staticcall\n      iszero\n      dup1\n      iszero\n      tag_82\n      jumpi\n      returndatasize\n      0x00\n      dup1\n      returndatacopy\n      revert(0x00, returndatasize)\n    tag_82:\n      pop\n      pop\n      pop\n      pop\n      mload(0x40)\n      returndatasize\n      not(0x1f)\n      0x1f\n      dup3\n      add\n      and\n      dup3\n      add\n      dup1\n      0x40\n      mstore\n      pop\n      dup2\n      add\n      swap1\n      tag_83\n      swap2\n      swap1\n      tag_84\n      jump\t// in\n    tag_83:\n        /* \"AAVE Flash Loans/Exchange.sol\":1345:1405  uint256 allowance = dai.allowance(msg.sender, address(this)) */\n      swap1\n      pop\n        /* \"AAVE Flash Loans/Exchange.sol\":1436:1443  _amount */\n      dup2\n        /* \"AAVE Flash Loans/Exchange.sol\":1423:1432  allowance */\n      dup2\n        /* \"AAVE Flash Loans/Exchange.sol\":1423:1443  allowance >= _amount */\n      lt\n      iszero\n        /* \"AAVE Flash Loans/Exchange.sol\":1415:1473  require(allowance >= _amount, \"Check the token allowance\") */\n      tag_85\n      jumpi\n      mload(0x40)\n      0x08c379a000000000000000000000000000000000000000000000000000000000\n      dup2\n      mstore\n      0x04\n      add\n      tag_86\n      swap1\n      tag_87\n      jump\t// in\n    tag_86:\n      mload(0x40)\n      dup1\n      swap2\n      sub\n      swap1\n      revert\n    tag_85:\n        /* \"AAVE Flash Loans/Exchange.sol\":1483:1486  dai */\n      0x01\n      0x00\n      swap1\n      sload\n      swap1\n      0x0100\n      exp\n      swap1\n      div\n      0xffffffffffffffffffffffffffffffffffffffff\n      and\n        /* \"AAVE Flash Loans/Exchange.sol\":1483:1499  dai.transferFrom */\n      0xffffffffffffffffffffffffffffffffffffffff\n      and\n      0x23b872dd\n        /* \"AAVE Flash Loans/Exchange.sol\":1500:1510  msg.sender */\n      caller\n        /* \"AAVE Flash Loans/Exchange.sol\":1520:1524  this */\n      address\n        /* \"AAVE Flash Loans/Exchange.sol\":1527:1534  _amount */\n      dup6\n        /* \"AAVE Flash Loans/Exchange.sol\":1483:1535  dai.transferFrom(msg.sender, address(this), _amount) */\n      mload(0x40)\n      dup5\n      0xffffffff\n      and\n      0xe0\n      shl\n      dup2\n      mstore\n      0x04\n      add\n      tag_88\n      swap4\n      swap3\n      swap2\n      swap1\n      tag_89\n      jump\t// in\n    tag_88:\n      0x20\n      mload(0x40)\n      dup1\n      dup4\n      sub\n      dup2\n      0x00\n      dup8\n      gas\n      call\n      iszero\n      dup1\n      iszero\n      tag_91\n      jumpi\n      returndatasize\n      0x00\n      dup1\n      returndatacopy\n      revert(0x00, returndatasize)\n    tag_91:\n      pop\n      pop\n      pop\n      pop\n      mload(0x40)\n      returndatasize\n      not(0x1f)\n      0x1f\n      dup3\n      add\n      and\n      dup3\n      add\n      dup1\n      0x40\n      mstore\n      pop\n      dup2\n      add\n      swap1\n      tag_92\n      swap2\n      swap1\n      tag_67\n      jump\t// in\n    tag_92:\n      pop\n        /* \"AAVE Flash Loans/Exchange.sol\":1291:1542  {... */\n      pop\n        /* \"AAVE Flash Loans/Exchange.sol\":1245:1542  function depositDAI(uint256 _amount) external {... */\n      pop\n      jump\t// out\n        /* \"AAVE Flash Loans/Exchange.sol\":2080:2261  function withdraw(address _tokenAddress) external onlyOwner {... */\n    tag_30:\n        /* \"AAVE Flash Loans/Exchange.sol\":2333:2338  owner */\n      0x00\n      dup1\n      sload\n      swap1\n      0x0100\n      exp\n      swap1\n      div\n      0xffffffffffffffffffffffffffffffffffffffff\n      and\n        /* \"AAVE Flash Loans/Exchange.sol\":2319:2338  msg.sender == owner */\n      0xffffffffffffffffffffffffffffffffffffffff\n      and\n        /* \"AAVE Flash Loans/Exchange.sol\":2319:2329  msg.sender */\n      caller\n        /* \"AAVE Flash Loans/Exchange.sol\":2319:2338  msg.sender == owner */\n      0xffffffffffffffffffffffffffffffffffffffff\n      and\n      eq\n        /* \"AAVE Flash Loans/Exchange.sol\":2298:2410  require(... */\n      tag_94\n      jumpi\n      mload(0x40)\n      0x08c379a000000000000000000000000000000000000000000000000000000000\n      dup2\n      mstore\n      0x04\n      add\n      tag_95\n      swap1\n      tag_96\n      jump\t// in\n    tag_95:\n      mload(0x40)\n      dup1\n      swap2\n      sub\n      swap1\n      revert\n    tag_94:\n        /* \"AAVE Flash Loans/Exchange.sol\":2150:2162  IERC20 token */\n      0x00\n        /* \"AAVE Flash Loans/Exchange.sol\":2172:2185  _tokenAddress */\n      dup2\n        /* \"AAVE Flash Loans/Exchange.sol\":2150:2186  IERC20 token = IERC20(_tokenAddress) */\n      swap1\n      pop\n        /* \"AAVE Flash Loans/Exchange.sol\":2196:2201  token */\n      dup1\n        /* \"AAVE Flash Loans/Exchange.sol\":2196:2210  token.transfer */\n      0xffffffffffffffffffffffffffffffffffffffff\n      and\n      0xa9059cbb\n        /* \"AAVE Flash Loans/Exchange.sol\":2211:2221  msg.sender */\n      caller\n        /* \"AAVE Flash Loans/Exchange.sol\":2223:2228  token */\n      dup4\n        /* \"AAVE Flash Loans/Exchange.sol\":2223:2238  token.balanceOf */\n      0xffffffffffffffffffffffffffffffffffffffff\n      and\n      0x70a08231\n        /* \"AAVE Flash Loans/Exchange.sol\":2247:2251  this */\n      address\n        /* \"AAVE Flash Loans/Exchange.sol\":2223:2253  token.balanceOf(address(this)) */\n      mload(0x40)\n      dup3\n      0xffffffff\n      and\n      0xe0\n      shl\n      dup2\n      mstore\n      0x04\n      add\n      tag_98\n      swap2\n      swap1\n      tag_99\n      jump\t// in\n    tag_98:\n      0x20\n      mload(0x40)\n      dup1\n      dup4\n      sub\n      dup2\n      dup7\n      gas\n      staticcall\n      iszero\n      dup1\n      iszero\n      tag_101\n      jumpi\n      returndatasize\n      0x00\n      dup1\n      returndatacopy\n      revert(0x00, returndatasize)\n    tag_101:\n      pop\n      pop\n      pop\n      pop\n      mload(0x40)\n      returndatasize\n      not(0x1f)\n      0x1f\n      dup3\n      add\n      and\n      dup3\n      add\n      dup1\n      0x40\n      mstore\n      pop\n      dup2\n      add\n      swap1\n      tag_102\n      swap2\n      swap1\n      tag_84\n      jump\t// in\n    tag_102:\n        /* \"AAVE Flash Loans/Exchange.sol\":2196:2254  token.transfer(msg.sender, token.balanceOf(address(this))) */\n      mload(0x40)\n      dup4\n      0xffffffff\n      and\n      0xe0\n      shl\n      dup2\n      mstore\n      0x04\n      add\n      tag_103\n      swap3\n      swap2\n      swap1\n      tag_63\n      jump\t// in\n    tag_103:\n      0x20\n      mload(0x40)\n      dup1\n      dup4\n      sub\n      dup2\n      0x00\n      dup8\n      gas\n      call\n      iszero\n      dup1\n      iszero\n      tag_105\n      jumpi\n      returndatasize\n      0x00\n      dup1\n      returndatacopy\n      revert(0x00, returndatasize)\n    tag_105:\n      pop\n      pop\n      pop\n      pop\n      mload(0x40)\n      returndatasize\n      not(0x1f)\n      0x1f\n      dup3\n      add\n      and\n      dup3\n      add\n      dup1\n      0x40\n      mstore\n      pop\n      dup2\n      add\n      swap1\n      tag_106\n      swap2\n      swap1\n      tag_67\n      jump\t// in\n    tag_106:\n      pop\n        /* \"AAVE Flash Loans/Exchange.sol\":2140:2261  {... */\n      pop\n        /* \"AAVE Flash Loans/Exchange.sol\":2080:2261  function withdraw(address _tokenAddress) external onlyOwner {... */\n      pop\n      jump\t// out\n        /* \"AAVE Flash Loans/Exchange.sol\":179:207  address payable public owner */\n    tag_33:\n      0x00\n      dup1\n      sload\n      swap1\n      0x0100\n      exp\n      swap1\n      div\n      0xffffffffffffffffffffffffffffffffffffffff\n      and\n      dup2\n      jump\t// out\n        /* \"AAVE Flash Loans/Exchange.sol\":750:797  mapping(address => uint256) public usdcBalances */\n    tag_39:\n      mstore(0x20, 0x06)\n      dup1\n      0x00\n      mstore\n      keccak256(0x00, 0x40)\n      0x00\n      swap2\n      pop\n      swap1\n      pop\n      sload\n      dup2\n      jump\t// out\n        /* \"AAVE Flash Loans/Exchange.sol\":648:694  mapping(address => uint256) public daiBalances */\n    tag_45:\n      mstore(0x20, 0x05)\n      dup1\n      0x00\n      mstore\n      keccak256(0x00, 0x40)\n      0x00\n      swap2\n      pop\n      swap1\n      pop\n      sload\n      dup2\n      jump\t// out\n        /* \"AAVE Flash Loans/Exchange.sol\":938:1239  function depositUSDC(uint256 _amount) external {... */\n    tag_50:\n        /* \"AAVE Flash Loans/Exchange.sol\":1023:1030  _amount */\n      dup1\n        /* \"AAVE Flash Loans/Exchange.sol\":995:1007  usdcBalances */\n      0x06\n        /* \"AAVE Flash Loans/Exchange.sol\":995:1019  usdcBalances[msg.sender] */\n      0x00\n        /* \"AAVE Flash Loans/Exchange.sol\":1008:1018  msg.sender */\n      caller\n        /* \"AAVE Flash Loans/Exchange.sol\":995:1019  usdcBalances[msg.sender] */\n      0xffffffffffffffffffffffffffffffffffffffff\n      and\n      0xffffffffffffffffffffffffffffffffffffffff\n      and\n      dup2\n      mstore\n      0x20\n      add\n      swap1\n      dup2\n      mstore\n      0x20\n      add\n      0x00\n      keccak256\n      0x00\n        /* \"AAVE Flash Loans/Exchange.sol\":995:1030  usdcBalances[msg.sender] += _amount */\n      dup3\n      dup3\n      sload\n      tag_108\n      swap2\n      swap1\n      tag_78\n      jump\t// in\n    tag_108:\n      swap3\n      pop\n      pop\n      dup2\n      swap1\n      sstore\n      pop\n        /* \"AAVE Flash Loans/Exchange.sol\":1040:1057  uint256 allowance */\n      0x00\n        /* \"AAVE Flash Loans/Exchange.sol\":1060:1064  usdc */\n      0x02\n      0x00\n      swap1\n      sload\n      swap1\n      0x0100\n      exp\n      swap1\n      div\n      0xffffffffffffffffffffffffffffffffffffffff\n      and\n        /* \"AAVE Flash Loans/Exchange.sol\":1060:1074  usdc.allowance */\n      0xffffffffffffffffffffffffffffffffffffffff\n      and\n      0xdd62ed3e\n        /* \"AAVE Flash Loans/Exchange.sol\":1075:1085  msg.sender */\n      caller\n        /* \"AAVE Flash Loans/Exchange.sol\":1095:1099  this */\n      address\n        /* \"AAVE Flash Loans/Exchange.sol\":1060:1101  usdc.allowance(msg.sender, address(this)) */\n      mload(0x40)\n      dup4\n      0xffffffff\n      and\n      0xe0\n      shl\n      dup2\n      mstore\n      0x04\n      add\n      tag_109\n      swap3\n      swap2\n      swap1\n      tag_80\n      jump\t// in\n    tag_109:\n      0x20\n      mload(0x40)\n      dup1\n      dup4\n      sub\n      dup2\n      dup7\n      gas\n      staticcall\n      iszero\n      dup1\n      iszero\n      tag_111\n      jumpi\n      returndatasize\n      0x00\n      dup1\n      returndatacopy\n      revert(0x00, returndatasize)\n    tag_111:\n      pop\n      pop\n      pop\n      pop\n      mload(0x40)\n      returndatasize\n      not(0x1f)\n      0x1f\n      dup3\n      add\n      and\n      dup3\n      add\n      dup1\n      0x40\n      mstore\n      pop\n      dup2\n      add\n      swap1\n      tag_112\n      swap2\n      swap1\n      tag_84\n      jump\t// in\n    tag_112:\n        /* \"AAVE Flash Loans/Exchange.sol\":1040:1101  uint256 allowance = usdc.allowance(msg.sender, address(this)) */\n      swap1\n      pop\n        /* \"AAVE Flash Loans/Exchange.sol\":1132:1139  _amount */\n      dup2\n        /* \"AAVE Flash Loans/Exchange.sol\":1119:1128  allowance */\n      dup2\n        /* \"AAVE Flash Loans/Exchange.sol\":1119:1139  allowance >= _amount */\n      lt\n      iszero\n        /* \"AAVE Flash Loans/Exchange.sol\":1111:1169  require(allowance >= _amount, \"Check the token allowance\") */\n      tag_113\n      jumpi\n      mload(0x40)\n      0x08c379a000000000000000000000000000000000000000000000000000000000\n      dup2\n      mstore\n      0x04\n      add\n      tag_114\n      swap1\n      tag_87\n      jump\t// in\n    tag_114:\n      mload(0x40)\n      dup1\n      swap2\n      sub\n      swap1\n      revert\n    tag_113:\n        /* \"AAVE Flash Loans/Exchange.sol\":1179:1183  usdc */\n      0x02\n      0x00\n      swap1\n      sload\n      swap1\n      0x0100\n      exp\n      swap1\n      div\n      0xffffffffffffffffffffffffffffffffffffffff\n      and\n        /* \"AAVE Flash Loans/Exchange.sol\":1179:1196  usdc.transferFrom */\n      0xffffffffffffffffffffffffffffffffffffffff\n      and\n      0x23b872dd\n        /* \"AAVE Flash Loans/Exchange.sol\":1197:1207  msg.sender */\n      caller\n        /* \"AAVE Flash Loans/Exchange.sol\":1217:1221  this */\n      address\n        /* \"AAVE Flash Loans/Exchange.sol\":1224:1231  _amount */\n      dup6\n        /* \"AAVE Flash Loans/Exchange.sol\":1179:1232  usdc.transferFrom(msg.sender, address(this), _amount) */\n      mload(0x40)\n      dup5\n      0xffffffff\n      and\n      0xe0\n      shl\n      dup2\n      mstore\n      0x04\n      add\n      tag_115\n      swap4\n      swap3\n      swap2\n      swap1\n      tag_89\n      jump\t// in\n    tag_115:\n      0x20\n      mload(0x40)\n      dup1\n      dup4\n      sub\n      dup2\n      0x00\n      dup8\n      gas\n      call\n      iszero\n      dup1\n      iszero\n      tag_117\n      jumpi\n      returndatasize\n      0x00\n      dup1\n      returndatacopy\n      revert(0x00, returndatasize)\n    tag_117:\n      pop\n      pop\n      pop\n      pop\n      mload(0x40)\n      returndatasize\n      not(0x1f)\n      0x1f\n      dup3\n      add\n      and\n      dup3\n      add\n      dup1\n      0x40\n      mstore\n      pop\n      dup2\n      add\n      swap1\n      tag_118\n      swap2\n      swap1\n      tag_67\n      jump\t// in\n    tag_118:\n      pop\n        /* \"AAVE Flash Loans/Exchange.sol\":985:1239  {... */\n      pop\n        /* \"AAVE Flash Loans/Exchange.sol\":938:1239  function depositUSDC(uint256 _amount) external {... */\n      pop\n      jump\t// out\n        /* \"AAVE Flash Loans/Exchange.sol\":1929:2074  function getBalance(address _tokenAddress) external view returns (uint256) {... */\n    tag_54:\n        /* \"AAVE Flash Loans/Exchange.sol\":1995:2002  uint256 */\n      0x00\n        /* \"AAVE Flash Loans/Exchange.sol\":2028:2041  _tokenAddress */\n      dup2\n        /* \"AAVE Flash Loans/Exchange.sol\":2021:2052  IERC20(_tokenAddress).balanceOf */\n      0xffffffffffffffffffffffffffffffffffffffff\n      and\n      0x70a08231\n        /* \"AAVE Flash Loans/Exchange.sol\":2061:2065  this */\n      address\n        /* \"AAVE Flash Loans/Exchange.sol\":2021:2067  IERC20(_tokenAddress).balanceOf(address(this)) */\n      mload(0x40)\n      dup3\n      0xffffffff\n      and\n      0xe0\n      shl\n      dup2\n      mstore\n      0x04\n      add\n      tag_120\n      swap2\n      swap1\n      tag_99\n      jump\t// in\n    tag_120:\n      0x20\n      mload(0x40)\n      dup1\n      dup4\n      sub\n      dup2\n      dup7\n      gas\n      staticcall\n      iszero\n      dup1\n      iszero\n      tag_122\n      jumpi\n      returndatasize\n      0x00\n      dup1\n      returndatacopy\n      revert(0x00, returndatasize)\n    tag_122:\n      pop\n      pop\n      pop\n      pop\n      mload(0x40)\n      returndatasize\n      not(0x1f)\n      0x1f\n      dup3\n      add\n      and\n      dup3\n      add\n      dup1\n      0x40\n      mstore\n      pop\n      dup2\n      add\n      swap1\n      tag_123\n      swap2\n      swap1\n      tag_84\n      jump\t// in\n    tag_123:\n        /* \"AAVE Flash Loans/Exchange.sol\":2014:2067  return IERC20(_tokenAddress).balanceOf(address(this)) */\n      swap1\n      pop\n        /* \"AAVE Flash Loans/Exchange.sol\":1929:2074  function getBalance(address _tokenAddress) external view returns (uint256) {... */\n      swap2\n      swap1\n      pop\n      jump\t// out\n        /* \"#utility.yul\":88:205   */\n    tag_125:\n        /* \"#utility.yul\":197:198   */\n      0x00\n        /* \"#utility.yul\":194:195   */\n      dup1\n        /* \"#utility.yul\":187:199   */\n      revert\n        /* \"#utility.yul\":334:411   */\n    tag_127:\n        /* \"#utility.yul\":371:378   */\n      0x00\n        /* \"#utility.yul\":400:405   */\n      dup2\n        /* \"#utility.yul\":389:405   */\n      swap1\n      pop\n        /* \"#utility.yul\":334:411   */\n      swap2\n      swap1\n      pop\n      jump\t// out\n        /* \"#utility.yul\":417:539   */\n    tag_128:\n        /* \"#utility.yul\":490:514   */\n      tag_155\n        /* \"#utility.yul\":508:513   */\n      dup2\n        /* \"#utility.yul\":490:514   */\n      tag_127\n      jump\t// in\n    tag_155:\n        /* \"#utility.yul\":483:488   */\n      dup2\n        /* \"#utility.yul\":480:515   */\n      eq\n        /* \"#utility.yul\":470:533   */\n      tag_156\n      jumpi\n        /* \"#utility.yul\":529:530   */\n      0x00\n        /* \"#utility.yul\":526:527   */\n      dup1\n        /* \"#utility.yul\":519:531   */\n      revert\n        /* \"#utility.yul\":470:533   */\n    tag_156:\n        /* \"#utility.yul\":417:539   */\n      pop\n      jump\t// out\n        /* \"#utility.yul\":545:684   */\n    tag_129:\n        /* \"#utility.yul\":591:596   */\n      0x00\n        /* \"#utility.yul\":629:635   */\n      dup2\n        /* \"#utility.yul\":616:636   */\n      calldataload\n        /* \"#utility.yul\":607:636   */\n      swap1\n      pop\n        /* \"#utility.yul\":645:678   */\n      tag_158\n        /* \"#utility.yul\":672:677   */\n      dup2\n        /* \"#utility.yul\":645:678   */\n      tag_128\n      jump\t// in\n    tag_158:\n        /* \"#utility.yul\":545:684   */\n      swap3\n      swap2\n      pop\n      pop\n      jump\t// out\n        /* \"#utility.yul\":690:1019   */\n    tag_24:\n        /* \"#utility.yul\":749:755   */\n      0x00\n        /* \"#utility.yul\":798:800   */\n      0x20\n        /* \"#utility.yul\":786:795   */\n      dup3\n        /* \"#utility.yul\":777:784   */\n      dup5\n        /* \"#utility.yul\":773:796   */\n      sub\n        /* \"#utility.yul\":769:801   */\n      slt\n        /* \"#utility.yul\":766:885   */\n      iszero\n      tag_160\n      jumpi\n        /* \"#utility.yul\":804:883   */\n      tag_161\n      tag_125\n      jump\t// in\n    tag_161:\n        /* \"#utility.yul\":766:885   */\n    tag_160:\n        /* \"#utility.yul\":924:925   */\n      0x00\n        /* \"#utility.yul\":949:1002   */\n      tag_162\n        /* \"#utility.yul\":994:1001   */\n      dup5\n        /* \"#utility.yul\":985:991   */\n      dup3\n        /* \"#utility.yul\":974:983   */\n      dup6\n        /* \"#utility.yul\":970:992   */\n      add\n        /* \"#utility.yul\":949:1002   */\n      tag_129\n      jump\t// in\n    tag_162:\n        /* \"#utility.yul\":939:1002   */\n      swap2\n      pop\n        /* \"#utility.yul\":895:1012   */\n      pop\n        /* \"#utility.yul\":690:1019   */\n      swap3\n      swap2\n      pop\n      pop\n      jump\t// out\n        /* \"#utility.yul\":1025:1151   */\n    tag_130:\n        /* \"#utility.yul\":1062:1069   */\n      0x00\n        /* \"#utility.yul\":1102:1144   */\n      0xffffffffffffffffffffffffffffffffffffffff\n        /* \"#utility.yul\":1095:1100   */\n      dup3\n        /* \"#utility.yul\":1091:1145   */\n      and\n        /* \"#utility.yul\":1080:1145   */\n      swap1\n      pop\n        /* \"#utility.yul\":1025:1151   */\n      swap2\n      swap1\n      pop\n      jump\t// out\n        /* \"#utility.yul\":1157:1253   */\n    tag_131:\n        /* \"#utility.yul\":1194:1201   */\n      0x00\n        /* \"#utility.yul\":1223:1247   */\n      tag_165\n        /* \"#utility.yul\":1241:1246   */\n      dup3\n        /* \"#utility.yul\":1223:1247   */\n      tag_130\n      jump\t// in\n    tag_165:\n        /* \"#utility.yul\":1212:1247   */\n      swap1\n      pop\n        /* \"#utility.yul\":1157:1253   */\n      swap2\n      swap1\n      pop\n      jump\t// out\n        /* \"#utility.yul\":1259:1381   */\n    tag_132:\n        /* \"#utility.yul\":1332:1356   */\n      tag_167\n        /* \"#utility.yul\":1350:1355   */\n      dup2\n        /* \"#utility.yul\":1332:1356   */\n      tag_131\n      jump\t// in\n    tag_167:\n        /* \"#utility.yul\":1325:1330   */\n      dup2\n        /* \"#utility.yul\":1322:1357   */\n      eq\n        /* \"#utility.yul\":1312:1375   */\n      tag_168\n      jumpi\n        /* \"#utility.yul\":1371:1372   */\n      0x00\n        /* \"#utility.yul\":1368:1369   */\n      dup1\n        /* \"#utility.yul\":1361:1373   */\n      revert\n        /* \"#utility.yul\":1312:1375   */\n    tag_168:\n        /* \"#utility.yul\":1259:1381   */\n      pop\n      jump\t// out\n        /* \"#utility.yul\":1387:1526   */\n    tag_133:\n        /* \"#utility.yul\":1433:1438   */\n      0x00\n        /* \"#utility.yul\":1471:1477   */\n      dup2\n        /* \"#utility.yul\":1458:1478   */\n      calldataload\n        /* \"#utility.yul\":1449:1478   */\n      swap1\n      pop\n        /* \"#utility.yul\":1487:1520   */\n      tag_170\n        /* \"#utility.yul\":1514:1519   */\n      dup2\n        /* \"#utility.yul\":1487:1520   */\n      tag_132\n      jump\t// in\n    tag_170:\n        /* \"#utility.yul\":1387:1526   */\n      swap3\n      swap2\n      pop\n      pop\n      jump\t// out\n        /* \"#utility.yul\":1532:1861   */\n    tag_29:\n        /* \"#utility.yul\":1591:1597   */\n      0x00\n        /* \"#utility.yul\":1640:1642   */\n      0x20\n        /* \"#utility.yul\":1628:1637   */\n      dup3\n        /* \"#utility.yul\":1619:1626   */\n      dup5\n        /* \"#utility.yul\":1615:1638   */\n      sub\n        /* \"#utility.yul\":1611:1643   */\n      slt\n        /* \"#utility.yul\":1608:1727   */\n      iszero\n      tag_172\n      jumpi\n        /* \"#utility.yul\":1646:1725   */\n      tag_173\n      tag_125\n      jump\t// in\n    tag_173:\n        /* \"#utility.yul\":1608:1727   */\n    tag_172:\n        /* \"#utility.yul\":1766:1767   */\n      0x00\n        /* \"#utility.yul\":1791:1844   */\n      tag_174\n        /* \"#utility.yul\":1836:1843   */\n      dup5\n        /* \"#utility.yul\":1827:1833   */\n      dup3\n        /* \"#utility.yul\":1816:1825   */\n      dup6\n        /* \"#utility.yul\":1812:1834   */\n      add\n        /* \"#utility.yul\":1791:1844   */\n      tag_133\n      jump\t// in\n    tag_174:\n        /* \"#utility.yul\":1781:1844   */\n      swap2\n      pop\n        /* \"#utility.yul\":1737:1854   */\n      pop\n        /* \"#utility.yul\":1532:1861   */\n      swap3\n      swap2\n      pop\n      pop\n      jump\t// out\n        /* \"#utility.yul\":1867:1971   */\n    tag_134:\n        /* \"#utility.yul\":1912:1919   */\n      0x00\n        /* \"#utility.yul\":1941:1965   */\n      tag_176\n        /* \"#utility.yul\":1959:1964   */\n      dup3\n        /* \"#utility.yul\":1941:1965   */\n      tag_130\n      jump\t// in\n    tag_176:\n        /* \"#utility.yul\":1930:1965   */\n      swap1\n      pop\n        /* \"#utility.yul\":1867:1971   */\n      swap2\n      swap1\n      pop\n      jump\t// out\n        /* \"#utility.yul\":1977:2119   */\n    tag_135:\n        /* \"#utility.yul\":2080:2112   */\n      tag_178\n        /* \"#utility.yul\":2106:2111   */\n      dup2\n        /* \"#utility.yul\":2080:2112   */\n      tag_134\n      jump\t// in\n    tag_178:\n        /* \"#utility.yul\":2075:2078   */\n      dup3\n        /* \"#utility.yul\":2068:2113   */\n      mstore\n        /* \"#utility.yul\":1977:2119   */\n      pop\n      pop\n      jump\t// out\n        /* \"#utility.yul\":2125:2379   */\n    tag_35:\n        /* \"#utility.yul\":2234:2238   */\n      0x00\n        /* \"#utility.yul\":2272:2274   */\n      0x20\n        /* \"#utility.yul\":2261:2270   */\n      dup3\n        /* \"#utility.yul\":2257:2275   */\n      add\n        /* \"#utility.yul\":2249:2275   */\n      swap1\n      pop\n        /* \"#utility.yul\":2285:2372   */\n      tag_180\n        /* \"#utility.yul\":2369:2370   */\n      0x00\n        /* \"#utility.yul\":2358:2367   */\n      dup4\n        /* \"#utility.yul\":2354:2371   */\n      add\n        /* \"#utility.yul\":2345:2351   */\n      dup5\n        /* \"#utility.yul\":2285:2372   */\n      tag_135\n      jump\t// in\n    tag_180:\n        /* \"#utility.yul\":2125:2379   */\n      swap3\n      swap2\n      pop\n      pop\n      jump\t// out\n        /* \"#utility.yul\":2385:2503   */\n    tag_136:\n        /* \"#utility.yul\":2472:2496   */\n      tag_182\n        /* \"#utility.yul\":2490:2495   */\n      dup2\n        /* \"#utility.yul\":2472:2496   */\n      tag_127\n      jump\t// in\n    tag_182:\n        /* \"#utility.yul\":2467:2470   */\n      dup3\n        /* \"#utility.yul\":2460:2497   */\n      mstore\n        /* \"#utility.yul\":2385:2503   */\n      pop\n      pop\n      jump\t// out\n        /* \"#utility.yul\":2509:2731   */\n    tag_41:\n        /* \"#utility.yul\":2602:2606   */\n      0x00\n        /* \"#utility.yul\":2640:2642   */\n      0x20\n        /* \"#utility.yul\":2629:2638   */\n      dup3\n        /* \"#utility.yul\":2625:2643   */\n      add\n        /* \"#utility.yul\":2617:2643   */\n      swap1\n      pop\n        /* \"#utility.yul\":2653:2724   */\n      tag_184\n        /* \"#utility.yul\":2721:2722   */\n      0x00\n        /* \"#utility.yul\":2710:2719   */\n      dup4\n        /* \"#utility.yul\":2706:2723   */\n      add\n        /* \"#utility.yul\":2697:2703   */\n      dup5\n        /* \"#utility.yul\":2653:2724   */\n      tag_136\n      jump\t// in\n    tag_184:\n        /* \"#utility.yul\":2509:2731   */\n      swap3\n      swap2\n      pop\n      pop\n      jump\t// out\n        /* \"#utility.yul\":2737:2917   */\n    tag_137:\n        /* \"#utility.yul\":2785:2862   */\n      0x4e487b7100000000000000000000000000000000000000000000000000000000\n        /* \"#utility.yul\":2782:2783   */\n      0x00\n        /* \"#utility.yul\":2775:2863   */\n      mstore\n        /* \"#utility.yul\":2882:2886   */\n      0x12\n        /* \"#utility.yul\":2879:2880   */\n      0x04\n        /* \"#utility.yul\":2872:2887   */\n      mstore\n        /* \"#utility.yul\":2906:2910   */\n      0x24\n        /* \"#utility.yul\":2903:2904   */\n      0x00\n        /* \"#utility.yul\":2896:2911   */\n      revert\n        /* \"#utility.yul\":2923:3103   */\n    tag_138:\n        /* \"#utility.yul\":2971:3048   */\n      0x4e487b7100000000000000000000000000000000000000000000000000000000\n        /* \"#utility.yul\":2968:2969   */\n      0x00\n        /* \"#utility.yul\":2961:3049   */\n      mstore\n        /* \"#utility.yul\":3068:3072   */\n      0x11\n        /* \"#utility.yul\":3065:3066   */\n      0x04\n        /* \"#utility.yul\":3058:3073   */\n      mstore\n        /* \"#utility.yul\":3092:3096   */\n      0x24\n        /* \"#utility.yul\":3089:3090   */\n      0x00\n        /* \"#utility.yul\":3082:3097   */\n      revert\n        /* \"#utility.yul\":3109:3294   */\n    tag_58:\n        /* \"#utility.yul\":3149:3150   */\n      0x00\n        /* \"#utility.yul\":3166:3186   */\n      tag_188\n        /* \"#utility.yul\":3184:3185   */\n      dup3\n        /* \"#utility.yul\":3166:3186   */\n      tag_127\n      jump\t// in\n    tag_188:\n        /* \"#utility.yul\":3161:3186   */\n      swap2\n      pop\n        /* \"#utility.yul\":3200:3220   */\n      tag_189\n        /* \"#utility.yul\":3218:3219   */\n      dup4\n        /* \"#utility.yul\":3200:3220   */\n      tag_127\n      jump\t// in\n    tag_189:\n        /* \"#utility.yul\":3195:3220   */\n      swap3\n      pop\n        /* \"#utility.yul\":3239:3240   */\n      dup3\n        /* \"#utility.yul\":3229:3264   */\n      tag_190\n      jumpi\n        /* \"#utility.yul\":3244:3262   */\n      tag_191\n      tag_137\n      jump\t// in\n    tag_191:\n        /* \"#utility.yul\":3229:3264   */\n    tag_190:\n        /* \"#utility.yul\":3286:3287   */\n      dup3\n        /* \"#utility.yul\":3283:3284   */\n      dup3\n        /* \"#utility.yul\":3279:3288   */\n      div\n        /* \"#utility.yul\":3274:3288   */\n      swap1\n      pop\n        /* \"#utility.yul\":3109:3294   */\n      swap3\n      swap2\n      pop\n      pop\n      jump\t// out\n        /* \"#utility.yul\":3300:3710   */\n    tag_60:\n        /* \"#utility.yul\":3340:3347   */\n      0x00\n        /* \"#utility.yul\":3363:3383   */\n      tag_193\n        /* \"#utility.yul\":3381:3382   */\n      dup3\n        /* \"#utility.yul\":3363:3383   */\n      tag_127\n      jump\t// in\n    tag_193:\n        /* \"#utility.yul\":3358:3383   */\n      swap2\n      pop\n        /* \"#utility.yul\":3397:3417   */\n      tag_194\n        /* \"#utility.yul\":3415:3416   */\n      dup4\n        /* \"#utility.yul\":3397:3417   */\n      tag_127\n      jump\t// in\n    tag_194:\n        /* \"#utility.yul\":3392:3417   */\n      swap3\n      pop\n        /* \"#utility.yul\":3452:3453   */\n      dup3\n        /* \"#utility.yul\":3449:3450   */\n      dup3\n        /* \"#utility.yul\":3445:3454   */\n      mul\n        /* \"#utility.yul\":3474:3504   */\n      tag_195\n        /* \"#utility.yul\":3492:3503   */\n      dup2\n        /* \"#utility.yul\":3474:3504   */\n      tag_127\n      jump\t// in\n    tag_195:\n        /* \"#utility.yul\":3463:3504   */\n      swap2\n      pop\n        /* \"#utility.yul\":3653:3654   */\n      dup3\n        /* \"#utility.yul\":3644:3651   */\n      dup3\n        /* \"#utility.yul\":3640:3655   */\n      div\n        /* \"#utility.yul\":3637:3638   */\n      dup5\n        /* \"#utility.yul\":3634:3656   */\n      eq\n        /* \"#utility.yul\":3614:3615   */\n      dup4\n        /* \"#utility.yul\":3607:3616   */\n      iszero\n        /* \"#utility.yul\":3587:3670   */\n      or\n        /* \"#utility.yul\":3564:3703   */\n      tag_196\n      jumpi\n        /* \"#utility.yul\":3683:3701   */\n      tag_197\n      tag_138\n      jump\t// in\n    tag_197:\n        /* \"#utility.yul\":3564:3703   */\n    tag_196:\n        /* \"#utility.yul\":3348:3710   */\n      pop\n        /* \"#utility.yul\":3300:3710   */\n      swap3\n      swap2\n      pop\n      pop\n      jump\t// out\n        /* \"#utility.yul\":3716:3834   */\n    tag_139:\n        /* \"#utility.yul\":3803:3827   */\n      tag_199\n        /* \"#utility.yul\":3821:3826   */\n      dup2\n        /* \"#utility.yul\":3803:3827   */\n      tag_131\n      jump\t// in\n    tag_199:\n        /* \"#utility.yul\":3798:3801   */\n      dup3\n        /* \"#utility.yul\":3791:3828   */\n      mstore\n        /* \"#utility.yul\":3716:3834   */\n      pop\n      pop\n      jump\t// out\n        /* \"#utility.yul\":3840:4172   */\n    tag_63:\n        /* \"#utility.yul\":3961:3965   */\n      0x00\n        /* \"#utility.yul\":3999:4001   */\n      0x40\n        /* \"#utility.yul\":3988:3997   */\n      dup3\n        /* \"#utility.yul\":3984:4002   */\n      add\n        /* \"#utility.yul\":3976:4002   */\n      swap1\n      pop\n        /* \"#utility.yul\":4012:4083   */\n      tag_201\n        /* \"#utility.yul\":4080:4081   */\n      0x00\n        /* \"#utility.yul\":4069:4078   */\n      dup4\n        /* \"#utility.yul\":4065:4082   */\n      add\n        /* \"#utility.yul\":4056:4062   */\n      dup6\n        /* \"#utility.yul\":4012:4083   */\n      tag_139\n      jump\t// in\n    tag_201:\n        /* \"#utility.yul\":4093:4165   */\n      tag_202\n        /* \"#utility.yul\":4161:4163   */\n      0x20\n        /* \"#utility.yul\":4150:4159   */\n      dup4\n        /* \"#utility.yul\":4146:4164   */\n      add\n        /* \"#utility.yul\":4137:4143   */\n      dup5\n        /* \"#utility.yul\":4093:4165   */\n      tag_136\n      jump\t// in\n    tag_202:\n        /* \"#utility.yul\":3840:4172   */\n      swap4\n      swap3\n      pop\n      pop\n      pop\n      jump\t// out\n        /* \"#utility.yul\":4178:4268   */\n    tag_140:\n        /* \"#utility.yul\":4212:4219   */\n      0x00\n        /* \"#utility.yul\":4255:4260   */\n      dup2\n        /* \"#utility.yul\":4248:4261   */\n      iszero\n        /* \"#utility.yul\":4241:4262   */\n      iszero\n        /* \"#utility.yul\":4230:4262   */\n      swap1\n      pop\n        /* \"#utility.yul\":4178:4268   */\n      swap2\n      swap1\n      pop\n      jump\t// out\n        /* \"#utility.yul\":4274:4390   */\n    tag_141:\n        /* \"#utility.yul\":4344:4365   */\n      tag_205\n        /* \"#utility.yul\":4359:4364   */\n      dup2\n        /* \"#utility.yul\":4344:4365   */\n      tag_140\n      jump\t// in\n    tag_205:\n        /* \"#utility.yul\":4337:4342   */\n      dup2\n        /* \"#utility.yul\":4334:4366   */\n      eq\n        /* \"#utility.yul\":4324:4384   */\n      tag_206\n      jumpi\n        /* \"#utility.yul\":4380:4381   */\n      0x00\n        /* \"#utility.yul\":4377:4378   */\n      dup1\n        /* \"#utility.yul\":4370:4382   */\n      revert\n        /* \"#utility.yul\":4324:4384   */\n    tag_206:\n        /* \"#utility.yul\":4274:4390   */\n      pop\n      jump\t// out\n        /* \"#utility.yul\":4396:4533   */\n    tag_142:\n        /* \"#utility.yul\":4450:4455   */\n      0x00\n        /* \"#utility.yul\":4481:4487   */\n      dup2\n        /* \"#utility.yul\":4475:4488   */\n      mload\n        /* \"#utility.yul\":4466:4488   */\n      swap1\n      pop\n        /* \"#utility.yul\":4497:4527   */\n      tag_208\n        /* \"#utility.yul\":4521:4526   */\n      dup2\n        /* \"#utility.yul\":4497:4527   */\n      tag_141\n      jump\t// in\n    tag_208:\n        /* \"#utility.yul\":4396:4533   */\n      swap3\n      swap2\n      pop\n      pop\n      jump\t// out\n        /* \"#utility.yul\":4539:4884   */\n    tag_67:\n        /* \"#utility.yul\":4606:4612   */\n      0x00\n        /* \"#utility.yul\":4655:4657   */\n      0x20\n        /* \"#utility.yul\":4643:4652   */\n      dup3\n        /* \"#utility.yul\":4634:4641   */\n      dup5\n        /* \"#utility.yul\":4630:4653   */\n      sub\n        /* \"#utility.yul\":4626:4658   */\n      slt\n        /* \"#utility.yul\":4623:4742   */\n      iszero\n      tag_210\n      jumpi\n        /* \"#utility.yul\":4661:4740   */\n      tag_211\n      tag_125\n      jump\t// in\n    tag_211:\n        /* \"#utility.yul\":4623:4742   */\n    tag_210:\n        /* \"#utility.yul\":4781:4782   */\n      0x00\n        /* \"#utility.yul\":4806:4867   */\n      tag_212\n        /* \"#utility.yul\":4859:4866   */\n      dup5\n        /* \"#utility.yul\":4850:4856   */\n      dup3\n        /* \"#utility.yul\":4839:4848   */\n      dup6\n        /* \"#utility.yul\":4835:4857   */\n      add\n        /* \"#utility.yul\":4806:4867   */\n      tag_142\n      jump\t// in\n    tag_212:\n        /* \"#utility.yul\":4796:4867   */\n      swap2\n      pop\n        /* \"#utility.yul\":4752:4877   */\n      pop\n        /* \"#utility.yul\":4539:4884   */\n      swap3\n      swap2\n      pop\n      pop\n      jump\t// out\n        /* \"#utility.yul\":4890:5081   */\n    tag_78:\n        /* \"#utility.yul\":4930:4933   */\n      0x00\n        /* \"#utility.yul\":4949:4969   */\n      tag_214\n        /* \"#utility.yul\":4967:4968   */\n      dup3\n        /* \"#utility.yul\":4949:4969   */\n      tag_127\n      jump\t// in\n    tag_214:\n        /* \"#utility.yul\":4944:4969   */\n      swap2\n      pop\n        /* \"#utility.yul\":4983:5003   */\n      tag_215\n        /* \"#utility.yul\":5001:5002   */\n      dup4\n        /* \"#utility.yul\":4983:5003   */\n      tag_127\n      jump\t// in\n    tag_215:\n        /* \"#utility.yul\":4978:5003   */\n      swap3\n      pop\n        /* \"#utility.yul\":5026:5027   */\n      dup3\n        /* \"#utility.yul\":5023:5024   */\n      dup3\n        /* \"#utility.yul\":5019:5028   */\n      add\n        /* \"#utility.yul\":5012:5028   */\n      swap1\n      pop\n        /* \"#utility.yul\":5047:5050   */\n      dup1\n        /* \"#utility.yul\":5044:5045   */\n      dup3\n        /* \"#utility.yul\":5041:5051   */\n      gt\n        /* \"#utility.yul\":5038:5074   */\n      iszero\n      tag_216\n      jumpi\n        /* \"#utility.yul\":5054:5072   */\n      tag_217\n      tag_138\n      jump\t// in\n    tag_217:\n        /* \"#utility.yul\":5038:5074   */\n    tag_216:\n        /* \"#utility.yul\":4890:5081   */\n      swap3\n      swap2\n      pop\n      pop\n      jump\t// out\n        /* \"#utility.yul\":5087:5419   */\n    tag_80:\n        /* \"#utility.yul\":5208:5212   */\n      0x00\n        /* \"#utility.yul\":5246:5248   */\n      0x40\n        /* \"#utility.yul\":5235:5244   */\n      dup3\n        /* \"#utility.yul\":5231:5249   */\n      add\n        /* \"#utility.yul\":5223:5249   */\n      swap1\n      pop\n        /* \"#utility.yul\":5259:5330   */\n      tag_219\n        /* \"#utility.yul\":5327:5328   */\n      0x00\n        /* \"#utility.yul\":5316:5325   */\n      dup4\n        /* \"#utility.yul\":5312:5329   */\n      add\n        /* \"#utility.yul\":5303:5309   */\n      dup6\n        /* \"#utility.yul\":5259:5330   */\n      tag_139\n      jump\t// in\n    tag_219:\n        /* \"#utility.yul\":5340:5412   */\n      tag_220\n        /* \"#utility.yul\":5408:5410   */\n      0x20\n        /* \"#utility.yul\":5397:5406   */\n      dup4\n        /* \"#utility.yul\":5393:5411   */\n      add\n        /* \"#utility.yul\":5384:5390   */\n      dup5\n        /* \"#utility.yul\":5340:5412   */\n      tag_139\n      jump\t// in\n    tag_220:\n        /* \"#utility.yul\":5087:5419   */\n      swap4\n      swap3\n      pop\n      pop\n      pop\n      jump\t// out\n        /* \"#utility.yul\":5425:5568   */\n    tag_143:\n        /* \"#utility.yul\":5482:5487   */\n      0x00\n        /* \"#utility.yul\":5513:5519   */\n      dup2\n        /* \"#utility.yul\":5507:5520   */\n      mload\n        /* \"#utility.yul\":5498:5520   */\n      swap1\n      pop\n        /* \"#utility.yul\":5529:5562   */\n      tag_222\n        /* \"#utility.yul\":5556:5561   */\n      dup2\n        /* \"#utility.yul\":5529:5562   */\n      tag_128\n      jump\t// in\n    tag_222:\n        /* \"#utility.yul\":5425:5568   */\n      swap3\n      swap2\n      pop\n      pop\n      jump\t// out\n        /* \"#utility.yul\":5574:5925   */\n    tag_84:\n        /* \"#utility.yul\":5644:5650   */\n      0x00\n        /* \"#utility.yul\":5693:5695   */\n      0x20\n        /* \"#utility.yul\":5681:5690   */\n      dup3\n        /* \"#utility.yul\":5672:5679   */\n      dup5\n        /* \"#utility.yul\":5668:5691   */\n      sub\n        /* \"#utility.yul\":5664:5696   */\n      slt\n        /* \"#utility.yul\":5661:5780   */\n      iszero\n      tag_224\n      jumpi\n        /* \"#utility.yul\":5699:5778   */\n      tag_225\n      tag_125\n      jump\t// in\n    tag_225:\n        /* \"#utility.yul\":5661:5780   */\n    tag_224:\n        /* \"#utility.yul\":5819:5820   */\n      0x00\n        /* \"#utility.yul\":5844:5908   */\n      tag_226\n        /* \"#utility.yul\":5900:5907   */\n      dup5\n        /* \"#utility.yul\":5891:5897   */\n      dup3\n        /* \"#utility.yul\":5880:5889   */\n      dup6\n        /* \"#utility.yul\":5876:5898   */\n      add\n        /* \"#utility.yul\":5844:5908   */\n      tag_143\n      jump\t// in\n    tag_226:\n        /* \"#utility.yul\":5834:5908   */\n      swap2\n      pop\n        /* \"#utility.yul\":5790:5918   */\n      pop\n        /* \"#utility.yul\":5574:5925   */\n      swap3\n      swap2\n      pop\n      pop\n      jump\t// out\n        /* \"#utility.yul\":5931:6100   */\n    tag_144:\n        /* \"#utility.yul\":6015:6026   */\n      0x00\n        /* \"#utility.yul\":6049:6055   */\n      dup3\n        /* \"#utility.yul\":6044:6047   */\n      dup3\n        /* \"#utility.yul\":6037:6056   */\n      mstore\n        /* \"#utility.yul\":6089:6093   */\n      0x20\n        /* \"#utility.yul\":6084:6087   */\n      dup3\n        /* \"#utility.yul\":6080:6094   */\n      add\n        /* \"#utility.yul\":6065:6094   */\n      swap1\n      pop\n        /* \"#utility.yul\":5931:6100   */\n      swap3\n      swap2\n      pop\n      pop\n      jump\t// out\n        /* \"#utility.yul\":6106:6281   */\n    tag_145:\n        /* \"#utility.yul\":6246:6273   */\n      0x436865636b2074686520746f6b656e20616c6c6f77616e636500000000000000\n        /* \"#utility.yul\":6242:6243   */\n      0x00\n        /* \"#utility.yul\":6234:6240   */\n      dup3\n        /* \"#utility.yul\":6230:6244   */\n      add\n        /* \"#utility.yul\":6223:6274   */\n      mstore\n        /* \"#utility.yul\":6106:6281   */\n      pop\n      jump\t// out\n        /* \"#utility.yul\":6287:6653   */\n    tag_146:\n        /* \"#utility.yul\":6429:6432   */\n      0x00\n        /* \"#utility.yul\":6450:6517   */\n      tag_230\n        /* \"#utility.yul\":6514:6516   */\n      0x19\n        /* \"#utility.yul\":6509:6512   */\n      dup4\n        /* \"#utility.yul\":6450:6517   */\n      tag_144\n      jump\t// in\n    tag_230:\n        /* \"#utility.yul\":6443:6517   */\n      swap2\n      pop\n        /* \"#utility.yul\":6526:6619   */\n      tag_231\n        /* \"#utility.yul\":6615:6618   */\n      dup3\n        /* \"#utility.yul\":6526:6619   */\n      tag_145\n      jump\t// in\n    tag_231:\n        /* \"#utility.yul\":6644:6646   */\n      0x20\n        /* \"#utility.yul\":6639:6642   */\n      dup3\n        /* \"#utility.yul\":6635:6647   */\n      add\n        /* \"#utility.yul\":6628:6647   */\n      swap1\n      pop\n        /* \"#utility.yul\":6287:6653   */\n      swap2\n      swap1\n      pop\n      jump\t// out\n        /* \"#utility.yul\":6659:7078   */\n    tag_87:\n        /* \"#utility.yul\":6825:6829   */\n      0x00\n        /* \"#utility.yul\":6863:6865   */\n      0x20\n        /* \"#utility.yul\":6852:6861   */\n      dup3\n        /* \"#utility.yul\":6848:6866   */\n      add\n        /* \"#utility.yul\":6840:6866   */\n      swap1\n      pop\n        /* \"#utility.yul\":6912:6921   */\n      dup2\n        /* \"#utility.yul\":6906:6910   */\n      dup2\n        /* \"#utility.yul\":6902:6922   */\n      sub\n        /* \"#utility.yul\":6898:6899   */\n      0x00\n        /* \"#utility.yul\":6887:6896   */\n      dup4\n        /* \"#utility.yul\":6883:6900   */\n      add\n        /* \"#utility.yul\":6876:6923   */\n      mstore\n        /* \"#utility.yul\":6940:7071   */\n      tag_233\n        /* \"#utility.yul\":7066:7070   */\n      dup2\n        /* \"#utility.yul\":6940:7071   */\n      tag_146\n      jump\t// in\n    tag_233:\n        /* \"#utility.yul\":6932:7071   */\n      swap1\n      pop\n        /* \"#utility.yul\":6659:7078   */\n      swap2\n      swap1\n      pop\n      jump\t// out\n        /* \"#utility.yul\":7084:7526   */\n    tag_89:\n        /* \"#utility.yul\":7233:7237   */\n      0x00\n        /* \"#utility.yul\":7271:7273   */\n      0x60\n        /* \"#utility.yul\":7260:7269   */\n      dup3\n        /* \"#utility.yul\":7256:7274   */\n      add\n        /* \"#utility.yul\":7248:7274   */\n      swap1\n      pop\n        /* \"#utility.yul\":7284:7355   */\n      tag_235\n        /* \"#utility.yul\":7352:7353   */\n      0x00\n        /* \"#utility.yul\":7341:7350   */\n      dup4\n        /* \"#utility.yul\":7337:7354   */\n      add\n        /* \"#utility.yul\":7328:7334   */\n      dup7\n        /* \"#utility.yul\":7284:7355   */\n      tag_139\n      jump\t// in\n    tag_235:\n        /* \"#utility.yul\":7365:7437   */\n      tag_236\n        /* \"#utility.yul\":7433:7435   */\n      0x20\n        /* \"#utility.yul\":7422:7431   */\n      dup4\n        /* \"#utility.yul\":7418:7436   */\n      add\n        /* \"#utility.yul\":7409:7415   */\n      dup6\n        /* \"#utility.yul\":7365:7437   */\n      tag_139\n      jump\t// in\n    tag_236:\n        /* \"#utility.yul\":7447:7519   */\n      tag_237\n        /* \"#utility.yul\":7515:7517   */\n      0x40\n        /* \"#utility.yul\":7504:7513   */\n      dup4\n        /* \"#utility.yul\":7500:7518   */\n      add\n        /* \"#utility.yul\":7491:7497   */\n      dup5\n        /* \"#utility.yul\":7447:7519   */\n      tag_136\n      jump\t// in\n    tag_237:\n        /* \"#utility.yul\":7084:7526   */\n      swap5\n      swap4\n      pop\n      pop\n      pop\n      pop\n      jump\t// out\n        /* \"#utility.yul\":7532:7765   */\n    tag_147:\n        /* \"#utility.yul\":7672:7706   */\n      0x4f6e6c792074686520636f6e7472616374206f776e65722063616e2063616c6c\n        /* \"#utility.yul\":7668:7669   */\n      0x00\n        /* \"#utility.yul\":7660:7666   */\n      dup3\n        /* \"#utility.yul\":7656:7670   */\n      add\n        /* \"#utility.yul\":7649:7707   */\n      mstore\n        /* \"#utility.yul\":7741:7757   */\n      0x20746869732066756e6374696f6e000000000000000000000000000000000000\n        /* \"#utility.yul\":7736:7738   */\n      0x20\n        /* \"#utility.yul\":7728:7734   */\n      dup3\n        /* \"#utility.yul\":7724:7739   */\n      add\n        /* \"#utility.yul\":7717:7758   */\n      mstore\n        /* \"#utility.yul\":7532:7765   */\n      pop\n      jump\t// out\n        /* \"#utility.yul\":7771:8137   */\n    tag_148:\n        /* \"#utility.yul\":7913:7916   */\n      0x00\n        /* \"#utility.yul\":7934:8001   */\n      tag_240\n        /* \"#utility.yul\":7998:8000   */\n      0x2e\n        /* \"#utility.yul\":7993:7996   */\n      dup4\n        /* \"#utility.yul\":7934:8001   */\n      tag_144\n      jump\t// in\n    tag_240:\n        /* \"#utility.yul\":7927:8001   */\n      swap2\n      pop\n        /* \"#utility.yul\":8010:8103   */\n      tag_241\n        /* \"#utility.yul\":8099:8102   */\n      dup3\n        /* \"#utility.yul\":8010:8103   */\n      tag_147\n      jump\t// in\n    tag_241:\n        /* \"#utility.yul\":8128:8130   */\n      0x40\n        /* \"#utility.yul\":8123:8126   */\n      dup3\n        /* \"#utility.yul\":8119:8131   */\n      add\n        /* \"#utility.yul\":8112:8131   */\n      swap1\n      pop\n        /* \"#utility.yul\":7771:8137   */\n      swap2\n      swap1\n      pop\n      jump\t// out\n        /* \"#utility.yul\":8143:8562   */\n    tag_96:\n        /* \"#utility.yul\":8309:8313   */\n      0x00\n        /* \"#utility.yul\":8347:8349   */\n      0x20\n        /* \"#utility.yul\":8336:8345   */\n      dup3\n        /* \"#utility.yul\":8332:8350   */\n      add\n        /* \"#utility.yul\":8324:8350   */\n      swap1\n      pop\n        /* \"#utility.yul\":8396:8405   */\n      dup2\n        /* \"#utility.yul\":8390:8394   */\n      dup2\n        /* \"#utility.yul\":8386:8406   */\n      sub\n        /* \"#utility.yul\":8382:8383   */\n      0x00\n        /* \"#utility.yul\":8371:8380   */\n      dup4\n        /* \"#utility.yul\":8367:8384   */\n      add\n        /* \"#utility.yul\":8360:8407   */\n      mstore\n        /* \"#utility.yul\":8424:8555   */\n      tag_243\n        /* \"#utility.yul\":8550:8554   */\n      dup2\n        /* \"#utility.yul\":8424:8555   */\n      tag_148\n      jump\t// in\n    tag_243:\n        /* \"#utility.yul\":8416:8555   */\n      swap1\n      pop\n        /* \"#utility.yul\":8143:8562   */\n      swap2\n      swap1\n      pop\n      jump\t// out\n        /* \"#utility.yul\":8568:8790   */\n    tag_99:\n        /* \"#utility.yul\":8661:8665   */\n      0x00\n        /* \"#utility.yul\":8699:8701   */\n      0x20\n        /* \"#utility.yul\":8688:8697   */\n      dup3\n        /* \"#utility.yul\":8684:8702   */\n      add\n        /* \"#utility.yul\":8676:8702   */\n      swap1\n      pop\n        /* \"#utility.yul\":8712:8783   */\n      tag_245\n        /* \"#utility.yul\":8780:8781   */\n      0x00\n        /* \"#utility.yul\":8769:8778   */\n      dup4\n        /* \"#utility.yul\":8765:8782   */\n      add\n        /* \"#utility.yul\":8756:8762   */\n      dup5\n        /* \"#utility.yul\":8712:8783   */\n      tag_139\n      jump\t// in\n    tag_245:\n        /* \"#utility.yul\":8568:8790   */\n      swap3\n      swap2\n      pop\n      pop\n      jump\t// out\n\n    auxdata: 0xa2646970667358221220555091ccc4730066e9faface08bf63b1700c8a4c8e990031fa6f13ff04cc33ea64736f6c63430008160033\n}\n",
				"bytecode": {
					"linkReferences": {},
					"object": "60c06040527394a9d9ac8a22534e3faca9f4e7f2e2cf85d5e4c873ffffffffffffffffffffffffffffffffffffffff1660809073ffffffffffffffffffffffffffffffffffffffff1681525073ff34b3d4aee8ddcd6f9afffb6fe49bd371b8a35773ffffffffffffffffffffffffffffffffffffffff1660a09073ffffffffffffffffffffffffffffffffffffffff16815250605a60035560646004553480156100a7575f80fd5b50335f806101000a81548173ffffffffffffffffffffffffffffffffffffffff021916908373ffffffffffffffffffffffffffffffffffffffff16021790555060a05160015f6101000a81548173ffffffffffffffffffffffffffffffffffffffff021916908373ffffffffffffffffffffffffffffffffffffffff16021790555060805160025f6101000a81548173ffffffffffffffffffffffffffffffffffffffff021916908373ffffffffffffffffffffffffffffffffffffffff16021790555060805160a051610ef96101865f395f50505f5050610ef95ff3fe608060405260043610610089575f3560e01c80638da5cb5b116100585780638da5cb5b14610110578063a99c68c51461013a578063ef06734214610176578063f688bcfb146101b2578063f8b2cb4f146101da57610090565b806305abf9041461009457806315602991146100aa578063365833e1146100c057806351cff8d9146100e857610090565b3661009057005b5f80fd5b34801561009f575f80fd5b506100a8610216565b005b3480156100b5575f80fd5b506100be610320565b005b3480156100cb575f80fd5b506100e660048036038101906100e19190610a64565b61042a565b005b3480156100f3575f80fd5b5061010e60048036038101906101099190610ae9565b610601565b005b34801561011b575f80fd5b50610124610789565b6040516101319190610b34565b60405180910390f35b348015610145575f80fd5b50610160600480360381019061015b9190610ae9565b6107ac565b60405161016d9190610b5c565b60405180910390f35b348015610181575f80fd5b5061019c60048036038101906101979190610ae9565b6107c1565b6040516101a99190610b5c565b60405180910390f35b3480156101bd575f80fd5b506101d860048036038101906101d39190610a64565b6107d6565b005b3480156101e5575f80fd5b5061020060048036038101906101fb9190610ae9565b6109ad565b60405161020d9190610b5c565b60405180910390f35b5f64e8d4a51000606460035460065f3373ffffffffffffffffffffffffffffffffffffffff1673ffffffffffffffffffffffffffffffffffffffff1681526020019081526020015f205461026a9190610bcf565b6102749190610bff565b61027e9190610bff565b905060015f9054906101000a900473ffffffffffffffffffffffffffffffffffffffff1673ffffffffffffffffffffffffffffffffffffffff1663a9059cbb33836040518363ffffffff1660e01b81526004016102dc929190610c4f565b6020604051808303815f875af11580156102f8573d5f803e3d5ffd5b505050506040513d601f19601f8201168201806040525081019061031c9190610cab565b5050565b5f64e8d4a51000606460045460055f3373ffffffffffffffffffffffffffffffffffffffff1673ffffffffffffffffffffffffffffffffffffffff1681526020019081526020015f20546103749190610bff565b61037e9190610bcf565b6103889190610bcf565b905060025f9054906101000a900473ffffffffffffffffffffffffffffffffffffffff1673ffffffffffffffffffffffffffffffffffffffff1663a9059cbb33836040518363ffffffff1660e01b81526004016103e6929190610c4f565b6020604051808303815f875af1158015610402573d5f803e3d5ffd5b505050506040513d601f19601f820116820180604052508101906104269190610cab565b5050565b8060055f3373ffffffffffffffffffffffffffffffffffffffff1673ffffffffffffffffffffffffffffffffffffffff1681526020019081526020015f205f8282546104769190610cd6565b925050819055505f60015f9054906101000a900473ffffffffffffffffffffffffffffffffffffffff1673ffffffffffffffffffffffffffffffffffffffff1663dd62ed3e33306040518363ffffffff1660e01b81526004016104da929190610d09565b602060405180830381865afa1580156104f5573d5f803e3d5ffd5b505050506040513d601f19601f820116820180604052508101906105199190610d44565b90508181101561055e576040517f08c379a000000000000000000000000000000000000000000000000000000000815260040161055590610dc9565b60405180910390fd5b60015f9054906101000a900473ffffffffffffffffffffffffffffffffffffffff1673ffffffffffffffffffffffffffffffffffffffff166323b872dd3330856040518463ffffffff1660e01b81526004016105bc93929190610de7565b6020604051808303815f875af11580156105d8573d5f803e3d5ffd5b505050506040513d601f19601f820116820180604052508101906105fc9190610cab565b505050565b5f8054906101000a900473ffffffffffffffffffffffffffffffffffffffff1673ffffffffffffffffffffffffffffffffffffffff163373ffffffffffffffffffffffffffffffffffffffff161461068e576040517f08c379a000000000000000000000000000000000000000000000000000000000815260040161068590610e8c565b60405180910390fd5b5f8190508073ffffffffffffffffffffffffffffffffffffffff1663a9059cbb338373ffffffffffffffffffffffffffffffffffffffff166370a08231306040518263ffffffff1660e01b81526004016106e89190610eaa565b602060405180830381865afa158015610703573d5f803e3d5ffd5b505050506040513d601f19601f820116820180604052508101906107279190610d44565b6040518363ffffffff1660e01b8152600401610744929190610c4f565b6020604051808303815f875af1158015610760573d5f803e3d5ffd5b505050506040513d601f19601f820116820180604052508101906107849190610cab565b505050565b5f8054906101000a900473ffffffffffffffffffffffffffffffffffffffff1681565b6006602052805f5260405f205f915090505481565b6005602052805f5260405f205f915090505481565b8060065f3373ffffffffffffffffffffffffffffffffffffffff1673ffffffffffffffffffffffffffffffffffffffff1681526020019081526020015f205f8282546108229190610cd6565b925050819055505f60025f9054906101000a900473ffffffffffffffffffffffffffffffffffffffff1673ffffffffffffffffffffffffffffffffffffffff1663dd62ed3e33306040518363ffffffff1660e01b8152600401610886929190610d09565b602060405180830381865afa1580156108a1573d5f803e3d5ffd5b505050506040513d601f19601f820116820180604052508101906108c59190610d44565b90508181101561090a576040517f08c379a000000000000000000000000000000000000000000000000000000000815260040161090190610dc9565b60405180910390fd5b60025f9054906101000a900473ffffffffffffffffffffffffffffffffffffffff1673ffffffffffffffffffffffffffffffffffffffff166323b872dd3330856040518463ffffffff1660e01b815260040161096893929190610de7565b6020604051808303815f875af1158015610984573d5f803e3d5ffd5b505050506040513d601f19601f820116820180604052508101906109a89190610cab565b505050565b5f8173ffffffffffffffffffffffffffffffffffffffff166370a08231306040518263ffffffff1660e01b81526004016109e79190610eaa565b602060405180830381865afa158015610a02573d5f803e3d5ffd5b505050506040513d601f19601f82011682018060405250810190610a269190610d44565b9050919050565b5f80fd5b5f819050919050565b610a4381610a31565b8114610a4d575f80fd5b50565b5f81359050610a5e81610a3a565b92915050565b5f60208284031215610a7957610a78610a2d565b5b5f610a8684828501610a50565b91505092915050565b5f73ffffffffffffffffffffffffffffffffffffffff82169050919050565b5f610ab882610a8f565b9050919050565b610ac881610aae565b8114610ad2575f80fd5b50565b5f81359050610ae381610abf565b92915050565b5f60208284031215610afe57610afd610a2d565b5b5f610b0b84828501610ad5565b91505092915050565b5f610b1e82610a8f565b9050919050565b610b2e81610b14565b82525050565b5f602082019050610b475f830184610b25565b92915050565b610b5681610a31565b82525050565b5f602082019050610b6f5f830184610b4d565b92915050565b7f4e487b71000000000000000000000000000000000000000000000000000000005f52601260045260245ffd5b7f4e487b71000000000000000000000000000000000000000000000000000000005f52601160045260245ffd5b5f610bd982610a31565b9150610be483610a31565b925082610bf457610bf3610b75565b5b828204905092915050565b5f610c0982610a31565b9150610c1483610a31565b9250828202610c2281610a31565b91508282048414831517610c3957610c38610ba2565b5b5092915050565b610c4981610aae565b82525050565b5f604082019050610c625f830185610c40565b610c6f6020830184610b4d565b9392505050565b5f8115159050919050565b610c8a81610c76565b8114610c94575f80fd5b50565b5f81519050610ca581610c81565b92915050565b5f60208284031215610cc057610cbf610a2d565b5b5f610ccd84828501610c97565b91505092915050565b5f610ce082610a31565b9150610ceb83610a31565b9250828201905080821115610d0357610d02610ba2565b5b92915050565b5f604082019050610d1c5f830185610c40565b610d296020830184610c40565b9392505050565b5f81519050610d3e81610a3a565b92915050565b5f60208284031215610d5957610d58610a2d565b5b5f610d6684828501610d30565b91505092915050565b5f82825260208201905092915050565b7f436865636b2074686520746f6b656e20616c6c6f77616e6365000000000000005f82015250565b5f610db3601983610d6f565b9150610dbe82610d7f565b602082019050919050565b5f6020820190508181035f830152610de081610da7565b9050919050565b5f606082019050610dfa5f830186610c40565b610e076020830185610c40565b610e146040830184610b4d565b949350505050565b7f4f6e6c792074686520636f6e7472616374206f776e65722063616e2063616c6c5f8201527f20746869732066756e6374696f6e000000000000000000000000000000000000602082015250565b5f610e76602e83610d6f565b9150610e8182610e1c565b604082019050919050565b5f6020820190508181035f830152610ea381610e6a565b9050919050565b5f602082019050610ebd5f830184610c40565b9291505056fea2646970667358221220555091ccc4730066e9faface08bf63b1700c8a4c8e990031fa6f13ff04cc33ea64736f6c63430008160033",
					"opcodes": "PUSH1 0xC0 PUSH1 0x40 MSTORE PUSH20 0x94A9D9AC8A22534E3FACA9F4E7F2E2CF85D5E4C8 PUSH20 0xFFFFFFFFFFFFFFFFFFFFFFFFFFFFFFFFFFFFFFFF AND PUSH1 0x80 SWAP1 PUSH20 0xFFFFFFFFFFFFFFFFFFFFFFFFFFFFFFFFFFFFFFFF AND DUP2 MSTORE POP PUSH20 0xFF34B3D4AEE8DDCD6F9AFFFB6FE49BD371B8A357 PUSH20 0xFFFFFFFFFFFFFFFFFFFFFFFFFFFFFFFFFFFFFFFF AND PUSH1 0xA0 SWAP1 PUSH20 0xFFFFFFFFFFFFFFFFFFFFFFFFFFFFFFFFFFFFFFFF AND DUP2 MSTORE POP PUSH1 0x5A PUSH1 0x3 SSTORE PUSH1 0x64 PUSH1 0x4 SSTORE CALLVALUE DUP1 ISZERO PUSH2 0xA7 JUMPI PUSH0 DUP1 REVERT JUMPDEST POP CALLER PUSH0 DUP1 PUSH2 0x100 EXP DUP2 SLOAD DUP2 PUSH20 0xFFFFFFFFFFFFFFFFFFFFFFFFFFFFFFFFFFFFFFFF MUL NOT AND SWAP1 DUP4 PUSH20 0xFFFFFFFFFFFFFFFFFFFFFFFFFFFFFFFFFFFFFFFF AND MUL OR SWAP1 SSTORE POP PUSH1 0xA0 MLOAD PUSH1 0x1 PUSH0 PUSH2 0x100 EXP DUP2 SLOAD DUP2 PUSH20 0xFFFFFFFFFFFFFFFFFFFFFFFFFFFFFFFFFFFFFFFF MUL NOT AND SWAP1 DUP4 PUSH20 0xFFFFFFFFFFFFFFFFFFFFFFFFFFFFFFFFFFFFFFFF AND MUL OR SWAP1 SSTORE POP PUSH1 0x80 MLOAD PUSH1 0x2 PUSH0 PUSH2 0x100 EXP DUP2 SLOAD DUP2 PUSH20 0xFFFFFFFFFFFFFFFFFFFFFFFFFFFFFFFFFFFFFFFF MUL NOT AND SWAP1 DUP4 PUSH20 0xFFFFFFFFFFFFFFFFFFFFFFFFFFFFFFFFFFFFFFFF AND MUL OR SWAP1 SSTORE POP PUSH1 0x80 MLOAD PUSH1 0xA0 MLOAD PUSH2 0xEF9 PUSH2 0x186 PUSH0 CODECOPY PUSH0 POP POP PUSH0 POP POP PUSH2 0xEF9 PUSH0 RETURN INVALID PUSH1 0x80 PUSH1 0x40 MSTORE PUSH1 0x4 CALLDATASIZE LT PUSH2 0x89 JUMPI PUSH0 CALLDATALOAD PUSH1 0xE0 SHR DUP1 PUSH4 0x8DA5CB5B GT PUSH2 0x58 JUMPI DUP1 PUSH4 0x8DA5CB5B EQ PUSH2 0x110 JUMPI DUP1 PUSH4 0xA99C68C5 EQ PUSH2 0x13A JUMPI DUP1 PUSH4 0xEF067342 EQ PUSH2 0x176 JUMPI DUP1 PUSH4 0xF688BCFB EQ PUSH2 0x1B2 JUMPI DUP1 PUSH4 0xF8B2CB4F EQ PUSH2 0x1DA JUMPI PUSH2 0x90 JUMP JUMPDEST DUP1 PUSH4 0x5ABF904 EQ PUSH2 0x94 JUMPI DUP1 PUSH4 0x15602991 EQ PUSH2 0xAA JUMPI DUP1 PUSH4 0x365833E1 EQ PUSH2 0xC0 JUMPI DUP1 PUSH4 0x51CFF8D9 EQ PUSH2 0xE8 JUMPI PUSH2 0x90 JUMP JUMPDEST CALLDATASIZE PUSH2 0x90 JUMPI STOP JUMPDEST PUSH0 DUP1 REVERT JUMPDEST CALLVALUE DUP1 ISZERO PUSH2 0x9F JUMPI PUSH0 DUP1 REVERT JUMPDEST POP PUSH2 0xA8 PUSH2 0x216 JUMP JUMPDEST STOP JUMPDEST CALLVALUE DUP1 ISZERO PUSH2 0xB5 JUMPI PUSH0 DUP1 REVERT JUMPDEST POP PUSH2 0xBE PUSH2 0x320 JUMP JUMPDEST STOP JUMPDEST CALLVALUE DUP1 ISZERO PUSH2 0xCB JUMPI PUSH0 DUP1 REVERT JUMPDEST POP PUSH2 0xE6 PUSH1 0x4 DUP1 CALLDATASIZE SUB DUP2 ADD SWAP1 PUSH2 0xE1 SWAP2 SWAP1 PUSH2 0xA64 JUMP JUMPDEST PUSH2 0x42A JUMP JUMPDEST STOP JUMPDEST CALLVALUE DUP1 ISZERO PUSH2 0xF3 JUMPI PUSH0 DUP1 REVERT JUMPDEST POP PUSH2 0x10E PUSH1 0x4 DUP1 CALLDATASIZE SUB DUP2 ADD SWAP1 PUSH2 0x109 SWAP2 SWAP1 PUSH2 0xAE9 JUMP JUMPDEST PUSH2 0x601 JUMP JUMPDEST STOP JUMPDEST CALLVALUE DUP1 ISZERO PUSH2 0x11B JUMPI PUSH0 DUP1 REVERT JUMPDEST POP PUSH2 0x124 PUSH2 0x789 JUMP JUMPDEST PUSH1 0x40 MLOAD PUSH2 0x131 SWAP2 SWAP1 PUSH2 0xB34 JUMP JUMPDEST PUSH1 0x40 MLOAD DUP1 SWAP2 SUB SWAP1 RETURN JUMPDEST CALLVALUE DUP1 ISZERO PUSH2 0x145 JUMPI PUSH0 DUP1 REVERT JUMPDEST POP PUSH2 0x160 PUSH1 0x4 DUP1 CALLDATASIZE SUB DUP2 ADD SWAP1 PUSH2 0x15B SWAP2 SWAP1 PUSH2 0xAE9 JUMP JUMPDEST PUSH2 0x7AC JUMP JUMPDEST PUSH1 0x40 MLOAD PUSH2 0x16D SWAP2 SWAP1 PUSH2 0xB5C JUMP JUMPDEST PUSH1 0x40 MLOAD DUP1 SWAP2 SUB SWAP1 RETURN JUMPDEST CALLVALUE DUP1 ISZERO PUSH2 0x181 JUMPI PUSH0 DUP1 REVERT JUMPDEST POP PUSH2 0x19C PUSH1 0x4 DUP1 CALLDATASIZE SUB DUP2 ADD SWAP1 PUSH2 0x197 SWAP2 SWAP1 PUSH2 0xAE9 JUMP JUMPDEST PUSH2 0x7C1 JUMP JUMPDEST PUSH1 0x40 MLOAD PUSH2 0x1A9 SWAP2 SWAP1 PUSH2 0xB5C JUMP JUMPDEST PUSH1 0x40 MLOAD DUP1 SWAP2 SUB SWAP1 RETURN JUMPDEST CALLVALUE DUP1 ISZERO PUSH2 0x1BD JUMPI PUSH0 DUP1 REVERT JUMPDEST POP PUSH2 0x1D8 PUSH1 0x4 DUP1 CALLDATASIZE SUB DUP2 ADD SWAP1 PUSH2 0x1D3 SWAP2 SWAP1 PUSH2 0xA64 JUMP JUMPDEST PUSH2 0x7D6 JUMP JUMPDEST STOP JUMPDEST CALLVALUE DUP1 ISZERO PUSH2 0x1E5 JUMPI PUSH0 DUP1 REVERT JUMPDEST POP PUSH2 0x200 PUSH1 0x4 DUP1 CALLDATASIZE SUB DUP2 ADD SWAP1 PUSH2 0x1FB SWAP2 SWAP1 PUSH2 0xAE9 JUMP JUMPDEST PUSH2 0x9AD JUMP JUMPDEST PUSH1 0x40 MLOAD PUSH2 0x20D SWAP2 SWAP1 PUSH2 0xB5C JUMP JUMPDEST PUSH1 0x40 MLOAD DUP1 SWAP2 SUB SWAP1 RETURN JUMPDEST PUSH0 PUSH5 0xE8D4A51000 PUSH1 0x64 PUSH1 0x3 SLOAD PUSH1 0x6 PUSH0 CALLER PUSH20 0xFFFFFFFFFFFFFFFFFFFFFFFFFFFFFFFFFFFFFFFF AND PUSH20 0xFFFFFFFFFFFFFFFFFFFFFFFFFFFFFFFFFFFFFFFF AND DUP2 MSTORE PUSH1 0x20 ADD SWAP1 DUP2 MSTORE PUSH1 0x20 ADD PUSH0 KECCAK256 SLOAD PUSH2 0x26A SWAP2 SWAP1 PUSH2 0xBCF JUMP JUMPDEST PUSH2 0x274 SWAP2 SWAP1 PUSH2 0xBFF JUMP JUMPDEST PUSH2 0x27E SWAP2 SWAP1 PUSH2 0xBFF JUMP JUMPDEST SWAP1 POP PUSH1 0x1 PUSH0 SWAP1 SLOAD SWAP1 PUSH2 0x100 EXP SWAP1 DIV PUSH20 0xFFFFFFFFFFFFFFFFFFFFFFFFFFFFFFFFFFFFFFFF AND PUSH20 0xFFFFFFFFFFFFFFFFFFFFFFFFFFFFFFFFFFFFFFFF AND PUSH4 0xA9059CBB CALLER DUP4 PUSH1 0x40 MLOAD DUP4 PUSH4 0xFFFFFFFF AND PUSH1 0xE0 SHL DUP2 MSTORE PUSH1 0x4 ADD PUSH2 0x2DC SWAP3 SWAP2 SWAP1 PUSH2 0xC4F JUMP JUMPDEST PUSH1 0x20 PUSH1 0x40 MLOAD DUP1 DUP4 SUB DUP2 PUSH0 DUP8 GAS CALL ISZERO DUP1 ISZERO PUSH2 0x2F8 JUMPI RETURNDATASIZE PUSH0 DUP1 RETURNDATACOPY RETURNDATASIZE PUSH0 REVERT JUMPDEST POP POP POP POP PUSH1 0x40 MLOAD RETURNDATASIZE PUSH1 0x1F NOT PUSH1 0x1F DUP3 ADD AND DUP3 ADD DUP1 PUSH1 0x40 MSTORE POP DUP2 ADD SWAP1 PUSH2 0x31C SWAP2 SWAP1 PUSH2 0xCAB JUMP JUMPDEST POP POP JUMP JUMPDEST PUSH0 PUSH5 0xE8D4A51000 PUSH1 0x64 PUSH1 0x4 SLOAD PUSH1 0x5 PUSH0 CALLER PUSH20 0xFFFFFFFFFFFFFFFFFFFFFFFFFFFFFFFFFFFFFFFF AND PUSH20 0xFFFFFFFFFFFFFFFFFFFFFFFFFFFFFFFFFFFFFFFF AND DUP2 MSTORE PUSH1 0x20 ADD SWAP1 DUP2 MSTORE PUSH1 0x20 ADD PUSH0 KECCAK256 SLOAD PUSH2 0x374 SWAP2 SWAP1 PUSH2 0xBFF JUMP JUMPDEST PUSH2 0x37E SWAP2 SWAP1 PUSH2 0xBCF JUMP JUMPDEST PUSH2 0x388 SWAP2 SWAP1 PUSH2 0xBCF JUMP JUMPDEST SWAP1 POP PUSH1 0x2 PUSH0 SWAP1 SLOAD SWAP1 PUSH2 0x100 EXP SWAP1 DIV PUSH20 0xFFFFFFFFFFFFFFFFFFFFFFFFFFFFFFFFFFFFFFFF AND PUSH20 0xFFFFFFFFFFFFFFFFFFFFFFFFFFFFFFFFFFFFFFFF AND PUSH4 0xA9059CBB CALLER DUP4 PUSH1 0x40 MLOAD DUP4 PUSH4 0xFFFFFFFF AND PUSH1 0xE0 SHL DUP2 MSTORE PUSH1 0x4 ADD PUSH2 0x3E6 SWAP3 SWAP2 SWAP1 PUSH2 0xC4F JUMP JUMPDEST PUSH1 0x20 PUSH1 0x40 MLOAD DUP1 DUP4 SUB DUP2 PUSH0 DUP8 GAS CALL ISZERO DUP1 ISZERO PUSH2 0x402 JUMPI RETURNDATASIZE PUSH0 DUP1 RETURNDATACOPY RETURNDATASIZE PUSH0 REVERT JUMPDEST POP POP POP POP PUSH1 0x40 MLOAD RETURNDATASIZE PUSH1 0x1F NOT PUSH1 0x1F DUP3 ADD AND DUP3 ADD DUP1 PUSH1 0x40 MSTORE POP DUP2 ADD SWAP1 PUSH2 0x426 SWAP2 SWAP1 PUSH2 0xCAB JUMP JUMPDEST POP POP JUMP JUMPDEST DUP1 PUSH1 0x5 PUSH0 CALLER PUSH20 0xFFFFFFFFFFFFFFFFFFFFFFFFFFFFFFFFFFFFFFFF AND PUSH20 0xFFFFFFFFFFFFFFFFFFFFFFFFFFFFFFFFFFFFFFFF AND DUP2 MSTORE PUSH1 0x20 ADD SWAP1 DUP2 MSTORE PUSH1 0x20 ADD PUSH0 KECCAK256 PUSH0 DUP3 DUP3 SLOAD PUSH2 0x476 SWAP2 SWAP1 PUSH2 0xCD6 JUMP JUMPDEST SWAP3 POP POP DUP2 SWAP1 SSTORE POP PUSH0 PUSH1 0x1 PUSH0 SWAP1 SLOAD SWAP1 PUSH2 0x100 EXP SWAP1 DIV PUSH20 0xFFFFFFFFFFFFFFFFFFFFFFFFFFFFFFFFFFFFFFFF AND PUSH20 0xFFFFFFFFFFFFFFFFFFFFFFFFFFFFFFFFFFFFFFFF AND PUSH4 0xDD62ED3E CALLER ADDRESS PUSH1 0x40 MLOAD DUP4 PUSH4 0xFFFFFFFF AND PUSH1 0xE0 SHL DUP2 MSTORE PUSH1 0x4 ADD PUSH2 0x4DA SWAP3 SWAP2 SWAP1 PUSH2 0xD09 JUMP JUMPDEST PUSH1 0x20 PUSH1 0x40 MLOAD DUP1 DUP4 SUB DUP2 DUP7 GAS STATICCALL ISZERO DUP1 ISZERO PUSH2 0x4F5 JUMPI RETURNDATASIZE PUSH0 DUP1 RETURNDATACOPY RETURNDATASIZE PUSH0 REVERT JUMPDEST POP POP POP POP PUSH1 0x40 MLOAD RETURNDATASIZE PUSH1 0x1F NOT PUSH1 0x1F DUP3 ADD AND DUP3 ADD DUP1 PUSH1 0x40 MSTORE POP DUP2 ADD SWAP1 PUSH2 0x519 SWAP2 SWAP1 PUSH2 0xD44 JUMP JUMPDEST SWAP1 POP DUP2 DUP2 LT ISZERO PUSH2 0x55E JUMPI PUSH1 0x40 MLOAD PUSH32 0x8C379A000000000000000000000000000000000000000000000000000000000 DUP2 MSTORE PUSH1 0x4 ADD PUSH2 0x555 SWAP1 PUSH2 0xDC9 JUMP JUMPDEST PUSH1 0x40 MLOAD DUP1 SWAP2 SUB SWAP1 REVERT JUMPDEST PUSH1 0x1 PUSH0 SWAP1 SLOAD SWAP1 PUSH2 0x100 EXP SWAP1 DIV PUSH20 0xFFFFFFFFFFFFFFFFFFFFFFFFFFFFFFFFFFFFFFFF AND PUSH20 0xFFFFFFFFFFFFFFFFFFFFFFFFFFFFFFFFFFFFFFFF AND PUSH4 0x23B872DD CALLER ADDRESS DUP6 PUSH1 0x40 MLOAD DUP5 PUSH4 0xFFFFFFFF AND PUSH1 0xE0 SHL DUP2 MSTORE PUSH1 0x4 ADD PUSH2 0x5BC SWAP4 SWAP3 SWAP2 SWAP1 PUSH2 0xDE7 JUMP JUMPDEST PUSH1 0x20 PUSH1 0x40 MLOAD DUP1 DUP4 SUB DUP2 PUSH0 DUP8 GAS CALL ISZERO DUP1 ISZERO PUSH2 0x5D8 JUMPI RETURNDATASIZE PUSH0 DUP1 RETURNDATACOPY RETURNDATASIZE PUSH0 REVERT JUMPDEST POP POP POP POP PUSH1 0x40 MLOAD RETURNDATASIZE PUSH1 0x1F NOT PUSH1 0x1F DUP3 ADD AND DUP3 ADD DUP1 PUSH1 0x40 MSTORE POP DUP2 ADD SWAP1 PUSH2 0x5FC SWAP2 SWAP1 PUSH2 0xCAB JUMP JUMPDEST POP POP POP JUMP JUMPDEST PUSH0 DUP1 SLOAD SWAP1 PUSH2 0x100 EXP SWAP1 DIV PUSH20 0xFFFFFFFFFFFFFFFFFFFFFFFFFFFFFFFFFFFFFFFF AND PUSH20 0xFFFFFFFFFFFFFFFFFFFFFFFFFFFFFFFFFFFFFFFF AND CALLER PUSH20 0xFFFFFFFFFFFFFFFFFFFFFFFFFFFFFFFFFFFFFFFF AND EQ PUSH2 0x68E JUMPI PUSH1 0x40 MLOAD PUSH32 0x8C379A000000000000000000000000000000000000000000000000000000000 DUP2 MSTORE PUSH1 0x4 ADD PUSH2 0x685 SWAP1 PUSH2 0xE8C JUMP JUMPDEST PUSH1 0x40 MLOAD DUP1 SWAP2 SUB SWAP1 REVERT JUMPDEST PUSH0 DUP2 SWAP1 POP DUP1 PUSH20 0xFFFFFFFFFFFFFFFFFFFFFFFFFFFFFFFFFFFFFFFF AND PUSH4 0xA9059CBB CALLER DUP4 PUSH20 0xFFFFFFFFFFFFFFFFFFFFFFFFFFFFFFFFFFFFFFFF AND PUSH4 0x70A08231 ADDRESS PUSH1 0x40 MLOAD DUP3 PUSH4 0xFFFFFFFF AND PUSH1 0xE0 SHL DUP2 MSTORE PUSH1 0x4 ADD PUSH2 0x6E8 SWAP2 SWAP1 PUSH2 0xEAA JUMP JUMPDEST PUSH1 0x20 PUSH1 0x40 MLOAD DUP1 DUP4 SUB DUP2 DUP7 GAS STATICCALL ISZERO DUP1 ISZERO PUSH2 0x703 JUMPI RETURNDATASIZE PUSH0 DUP1 RETURNDATACOPY RETURNDATASIZE PUSH0 REVERT JUMPDEST POP POP POP POP PUSH1 0x40 MLOAD RETURNDATASIZE PUSH1 0x1F NOT PUSH1 0x1F DUP3 ADD AND DUP3 ADD DUP1 PUSH1 0x40 MSTORE POP DUP2 ADD SWAP1 PUSH2 0x727 SWAP2 SWAP1 PUSH2 0xD44 JUMP JUMPDEST PUSH1 0x40 MLOAD DUP4 PUSH4 0xFFFFFFFF AND PUSH1 0xE0 SHL DUP2 MSTORE PUSH1 0x4 ADD PUSH2 0x744 SWAP3 SWAP2 SWAP1 PUSH2 0xC4F JUMP JUMPDEST PUSH1 0x20 PUSH1 0x40 MLOAD DUP1 DUP4 SUB DUP2 PUSH0 DUP8 GAS CALL ISZERO DUP1 ISZERO PUSH2 0x760 JUMPI RETURNDATASIZE PUSH0 DUP1 RETURNDATACOPY RETURNDATASIZE PUSH0 REVERT JUMPDEST POP POP POP POP PUSH1 0x40 MLOAD RETURNDATASIZE PUSH1 0x1F NOT PUSH1 0x1F DUP3 ADD AND DUP3 ADD DUP1 PUSH1 0x40 MSTORE POP DUP2 ADD SWAP1 PUSH2 0x784 SWAP2 SWAP1 PUSH2 0xCAB JUMP JUMPDEST POP POP POP JUMP JUMPDEST PUSH0 DUP1 SLOAD SWAP1 PUSH2 0x100 EXP SWAP1 DIV PUSH20 0xFFFFFFFFFFFFFFFFFFFFFFFFFFFFFFFFFFFFFFFF AND DUP2 JUMP JUMPDEST PUSH1 0x6 PUSH1 0x20 MSTORE DUP1 PUSH0 MSTORE PUSH1 0x40 PUSH0 KECCAK256 PUSH0 SWAP2 POP SWAP1 POP SLOAD DUP2 JUMP JUMPDEST PUSH1 0x5 PUSH1 0x20 MSTORE DUP1 PUSH0 MSTORE PUSH1 0x40 PUSH0 KECCAK256 PUSH0 SWAP2 POP SWAP1 POP SLOAD DUP2 JUMP JUMPDEST DUP1 PUSH1 0x6 PUSH0 CALLER PUSH20 0xFFFFFFFFFFFFFFFFFFFFFFFFFFFFFFFFFFFFFFFF AND PUSH20 0xFFFFFFFFFFFFFFFFFFFFFFFFFFFFFFFFFFFFFFFF AND DUP2 MSTORE PUSH1 0x20 ADD SWAP1 DUP2 MSTORE PUSH1 0x20 ADD PUSH0 KECCAK256 PUSH0 DUP3 DUP3 SLOAD PUSH2 0x822 SWAP2 SWAP1 PUSH2 0xCD6 JUMP JUMPDEST SWAP3 POP POP DUP2 SWAP1 SSTORE POP PUSH0 PUSH1 0x2 PUSH0 SWAP1 SLOAD SWAP1 PUSH2 0x100 EXP SWAP1 DIV PUSH20 0xFFFFFFFFFFFFFFFFFFFFFFFFFFFFFFFFFFFFFFFF AND PUSH20 0xFFFFFFFFFFFFFFFFFFFFFFFFFFFFFFFFFFFFFFFF AND PUSH4 0xDD62ED3E CALLER ADDRESS PUSH1 0x40 MLOAD DUP4 PUSH4 0xFFFFFFFF AND PUSH1 0xE0 SHL DUP2 MSTORE PUSH1 0x4 ADD PUSH2 0x886 SWAP3 SWAP2 SWAP1 PUSH2 0xD09 JUMP JUMPDEST PUSH1 0x20 PUSH1 0x40 MLOAD DUP1 DUP4 SUB DUP2 DUP7 GAS STATICCALL ISZERO DUP1 ISZERO PUSH2 0x8A1 JUMPI RETURNDATASIZE PUSH0 DUP1 RETURNDATACOPY RETURNDATASIZE PUSH0 REVERT JUMPDEST POP POP POP POP PUSH1 0x40 MLOAD RETURNDATASIZE PUSH1 0x1F NOT PUSH1 0x1F DUP3 ADD AND DUP3 ADD DUP1 PUSH1 0x40 MSTORE POP DUP2 ADD SWAP1 PUSH2 0x8C5 SWAP2 SWAP1 PUSH2 0xD44 JUMP JUMPDEST SWAP1 POP DUP2 DUP2 LT ISZERO PUSH2 0x90A JUMPI PUSH1 0x40 MLOAD PUSH32 0x8C379A000000000000000000000000000000000000000000000000000000000 DUP2 MSTORE PUSH1 0x4 ADD PUSH2 0x901 SWAP1 PUSH2 0xDC9 JUMP JUMPDEST PUSH1 0x40 MLOAD DUP1 SWAP2 SUB SWAP1 REVERT JUMPDEST PUSH1 0x2 PUSH0 SWAP1 SLOAD SWAP1 PUSH2 0x100 EXP SWAP1 DIV PUSH20 0xFFFFFFFFFFFFFFFFFFFFFFFFFFFFFFFFFFFFFFFF AND PUSH20 0xFFFFFFFFFFFFFFFFFFFFFFFFFFFFFFFFFFFFFFFF AND PUSH4 0x23B872DD CALLER ADDRESS DUP6 PUSH1 0x40 MLOAD DUP5 PUSH4 0xFFFFFFFF AND PUSH1 0xE0 SHL DUP2 MSTORE PUSH1 0x4 ADD PUSH2 0x968 SWAP4 SWAP3 SWAP2 SWAP1 PUSH2 0xDE7 JUMP JUMPDEST PUSH1 0x20 PUSH1 0x40 MLOAD DUP1 DUP4 SUB DUP2 PUSH0 DUP8 GAS CALL ISZERO DUP1 ISZERO PUSH2 0x984 JUMPI RETURNDATASIZE PUSH0 DUP1 RETURNDATACOPY RETURNDATASIZE PUSH0 REVERT JUMPDEST POP POP POP POP PUSH1 0x40 MLOAD RETURNDATASIZE PUSH1 0x1F NOT PUSH1 0x1F DUP3 ADD AND DUP3 ADD DUP1 PUSH1 0x40 MSTORE POP DUP2 ADD SWAP1 PUSH2 0x9A8 SWAP2 SWAP1 PUSH2 0xCAB JUMP JUMPDEST POP POP POP JUMP JUMPDEST PUSH0 DUP2 PUSH20 0xFFFFFFFFFFFFFFFFFFFFFFFFFFFFFFFFFFFFFFFF AND PUSH4 0x70A08231 ADDRESS PUSH1 0x40 MLOAD DUP3 PUSH4 0xFFFFFFFF AND PUSH1 0xE0 SHL DUP2 MSTORE PUSH1 0x4 ADD PUSH2 0x9E7 SWAP2 SWAP1 PUSH2 0xEAA JUMP JUMPDEST PUSH1 0x20 PUSH1 0x40 MLOAD DUP1 DUP4 SUB DUP2 DUP7 GAS STATICCALL ISZERO DUP1 ISZERO PUSH2 0xA02 JUMPI RETURNDATASIZE PUSH0 DUP1 RETURNDATACOPY RETURNDATASIZE PUSH0 REVERT JUMPDEST POP POP POP POP PUSH1 0x40 MLOAD RETURNDATASIZE PUSH1 0x1F NOT PUSH1 0x1F DUP3 ADD AND DUP3 ADD DUP1 PUSH1 0x40 MSTORE POP DUP2 ADD SWAP1 PUSH2 0xA26 SWAP2 SWAP1 PUSH2 0xD44 JUMP JUMPDEST SWAP1 POP SWAP2 SWAP1 POP JUMP JUMPDEST PUSH0 DUP1 REVERT JUMPDEST PUSH0 DUP2 SWAP1 POP SWAP2 SWAP1 POP JUMP JUMPDEST PUSH2 0xA43 DUP2 PUSH2 0xA31 JUMP JUMPDEST DUP2 EQ PUSH2 0xA4D JUMPI PUSH0 DUP1 REVERT JUMPDEST POP JUMP JUMPDEST PUSH0 DUP2 CALLDATALOAD SWAP1 POP PUSH2 0xA5E DUP2 PUSH2 0xA3A JUMP JUMPDEST SWAP3 SWAP2 POP POP JUMP JUMPDEST PUSH0 PUSH1 0x20 DUP3 DUP5 SUB SLT ISZERO PUSH2 0xA79 JUMPI PUSH2 0xA78 PUSH2 0xA2D JUMP JUMPDEST JUMPDEST PUSH0 PUSH2 0xA86 DUP5 DUP3 DUP6 ADD PUSH2 0xA50 JUMP JUMPDEST SWAP2 POP POP SWAP3 SWAP2 POP POP JUMP JUMPDEST PUSH0 PUSH20 0xFFFFFFFFFFFFFFFFFFFFFFFFFFFFFFFFFFFFFFFF DUP3 AND SWAP1 POP SWAP2 SWAP1 POP JUMP JUMPDEST PUSH0 PUSH2 0xAB8 DUP3 PUSH2 0xA8F JUMP JUMPDEST SWAP1 POP SWAP2 SWAP1 POP JUMP JUMPDEST PUSH2 0xAC8 DUP2 PUSH2 0xAAE JUMP JUMPDEST DUP2 EQ PUSH2 0xAD2 JUMPI PUSH0 DUP1 REVERT JUMPDEST POP JUMP JUMPDEST PUSH0 DUP2 CALLDATALOAD SWAP1 POP PUSH2 0xAE3 DUP2 PUSH2 0xABF JUMP JUMPDEST SWAP3 SWAP2 POP POP JUMP JUMPDEST PUSH0 PUSH1 0x20 DUP3 DUP5 SUB SLT ISZERO PUSH2 0xAFE JUMPI PUSH2 0xAFD PUSH2 0xA2D JUMP JUMPDEST JUMPDEST PUSH0 PUSH2 0xB0B DUP5 DUP3 DUP6 ADD PUSH2 0xAD5 JUMP JUMPDEST SWAP2 POP POP SWAP3 SWAP2 POP POP JUMP JUMPDEST PUSH0 PUSH2 0xB1E DUP3 PUSH2 0xA8F JUMP JUMPDEST SWAP1 POP SWAP2 SWAP1 POP JUMP JUMPDEST PUSH2 0xB2E DUP2 PUSH2 0xB14 JUMP JUMPDEST DUP3 MSTORE POP POP JUMP JUMPDEST PUSH0 PUSH1 0x20 DUP3 ADD SWAP1 POP PUSH2 0xB47 PUSH0 DUP4 ADD DUP5 PUSH2 0xB25 JUMP JUMPDEST SWAP3 SWAP2 POP POP JUMP JUMPDEST PUSH2 0xB56 DUP2 PUSH2 0xA31 JUMP JUMPDEST DUP3 MSTORE POP POP JUMP JUMPDEST PUSH0 PUSH1 0x20 DUP3 ADD SWAP1 POP PUSH2 0xB6F PUSH0 DUP4 ADD DUP5 PUSH2 0xB4D JUMP JUMPDEST SWAP3 SWAP2 POP POP JUMP JUMPDEST PUSH32 0x4E487B7100000000000000000000000000000000000000000000000000000000 PUSH0 MSTORE PUSH1 0x12 PUSH1 0x4 MSTORE PUSH1 0x24 PUSH0 REVERT JUMPDEST PUSH32 0x4E487B7100000000000000000000000000000000000000000000000000000000 PUSH0 MSTORE PUSH1 0x11 PUSH1 0x4 MSTORE PUSH1 0x24 PUSH0 REVERT JUMPDEST PUSH0 PUSH2 0xBD9 DUP3 PUSH2 0xA31 JUMP JUMPDEST SWAP2 POP PUSH2 0xBE4 DUP4 PUSH2 0xA31 JUMP JUMPDEST SWAP3 POP DUP3 PUSH2 0xBF4 JUMPI PUSH2 0xBF3 PUSH2 0xB75 JUMP JUMPDEST JUMPDEST DUP3 DUP3 DIV SWAP1 POP SWAP3 SWAP2 POP POP JUMP JUMPDEST PUSH0 PUSH2 0xC09 DUP3 PUSH2 0xA31 JUMP JUMPDEST SWAP2 POP PUSH2 0xC14 DUP4 PUSH2 0xA31 JUMP JUMPDEST SWAP3 POP DUP3 DUP3 MUL PUSH2 0xC22 DUP2 PUSH2 0xA31 JUMP JUMPDEST SWAP2 POP DUP3 DUP3 DIV DUP5 EQ DUP4 ISZERO OR PUSH2 0xC39 JUMPI PUSH2 0xC38 PUSH2 0xBA2 JUMP JUMPDEST JUMPDEST POP SWAP3 SWAP2 POP POP JUMP JUMPDEST PUSH2 0xC49 DUP2 PUSH2 0xAAE JUMP JUMPDEST DUP3 MSTORE POP POP JUMP JUMPDEST PUSH0 PUSH1 0x40 DUP3 ADD SWAP1 POP PUSH2 0xC62 PUSH0 DUP4 ADD DUP6 PUSH2 0xC40 JUMP JUMPDEST PUSH2 0xC6F PUSH1 0x20 DUP4 ADD DUP5 PUSH2 0xB4D JUMP JUMPDEST SWAP4 SWAP3 POP POP POP JUMP JUMPDEST PUSH0 DUP2 ISZERO ISZERO SWAP1 POP SWAP2 SWAP1 POP JUMP JUMPDEST PUSH2 0xC8A DUP2 PUSH2 0xC76 JUMP JUMPDEST DUP2 EQ PUSH2 0xC94 JUMPI PUSH0 DUP1 REVERT JUMPDEST POP JUMP JUMPDEST PUSH0 DUP2 MLOAD SWAP1 POP PUSH2 0xCA5 DUP2 PUSH2 0xC81 JUMP JUMPDEST SWAP3 SWAP2 POP POP JUMP JUMPDEST PUSH0 PUSH1 0x20 DUP3 DUP5 SUB SLT ISZERO PUSH2 0xCC0 JUMPI PUSH2 0xCBF PUSH2 0xA2D JUMP JUMPDEST JUMPDEST PUSH0 PUSH2 0xCCD DUP5 DUP3 DUP6 ADD PUSH2 0xC97 JUMP JUMPDEST SWAP2 POP POP SWAP3 SWAP2 POP POP JUMP JUMPDEST PUSH0 PUSH2 0xCE0 DUP3 PUSH2 0xA31 JUMP JUMPDEST SWAP2 POP PUSH2 0xCEB DUP4 PUSH2 0xA31 JUMP JUMPDEST SWAP3 POP DUP3 DUP3 ADD SWAP1 POP DUP1 DUP3 GT ISZERO PUSH2 0xD03 JUMPI PUSH2 0xD02 PUSH2 0xBA2 JUMP JUMPDEST JUMPDEST SWAP3 SWAP2 POP POP JUMP JUMPDEST PUSH0 PUSH1 0x40 DUP3 ADD SWAP1 POP PUSH2 0xD1C PUSH0 DUP4 ADD DUP6 PUSH2 0xC40 JUMP JUMPDEST PUSH2 0xD29 PUSH1 0x20 DUP4 ADD DUP5 PUSH2 0xC40 JUMP JUMPDEST SWAP4 SWAP3 POP POP POP JUMP JUMPDEST PUSH0 DUP2 MLOAD SWAP1 POP PUSH2 0xD3E DUP2 PUSH2 0xA3A JUMP JUMPDEST SWAP3 SWAP2 POP POP JUMP JUMPDEST PUSH0 PUSH1 0x20 DUP3 DUP5 SUB SLT ISZERO PUSH2 0xD59 JUMPI PUSH2 0xD58 PUSH2 0xA2D JUMP JUMPDEST JUMPDEST PUSH0 PUSH2 0xD66 DUP5 DUP3 DUP6 ADD PUSH2 0xD30 JUMP JUMPDEST SWAP2 POP POP SWAP3 SWAP2 POP POP JUMP JUMPDEST PUSH0 DUP3 DUP3 MSTORE PUSH1 0x20 DUP3 ADD SWAP1 POP SWAP3 SWAP2 POP POP JUMP JUMPDEST PUSH32 0x436865636B2074686520746F6B656E20616C6C6F77616E636500000000000000 PUSH0 DUP3 ADD MSTORE POP JUMP JUMPDEST PUSH0 PUSH2 0xDB3 PUSH1 0x19 DUP4 PUSH2 0xD6F JUMP JUMPDEST SWAP2 POP PUSH2 0xDBE DUP3 PUSH2 0xD7F JUMP JUMPDEST PUSH1 0x20 DUP3 ADD SWAP1 POP SWAP2 SWAP1 POP JUMP JUMPDEST PUSH0 PUSH1 0x20 DUP3 ADD SWAP1 POP DUP2 DUP2 SUB PUSH0 DUP4 ADD MSTORE PUSH2 0xDE0 DUP2 PUSH2 0xDA7 JUMP JUMPDEST SWAP1 POP SWAP2 SWAP1 POP JUMP JUMPDEST PUSH0 PUSH1 0x60 DUP3 ADD SWAP1 POP PUSH2 0xDFA PUSH0 DUP4 ADD DUP7 PUSH2 0xC40 JUMP JUMPDEST PUSH2 0xE07 PUSH1 0x20 DUP4 ADD DUP6 PUSH2 0xC40 JUMP JUMPDEST PUSH2 0xE14 PUSH1 0x40 DUP4 ADD DUP5 PUSH2 0xB4D JUMP JUMPDEST SWAP5 SWAP4 POP POP POP POP JUMP JUMPDEST PUSH32 0x4F6E6C792074686520636F6E7472616374206F776E65722063616E2063616C6C PUSH0 DUP3 ADD MSTORE PUSH32 0x20746869732066756E6374696F6E000000000000000000000000000000000000 PUSH1 0x20 DUP3 ADD MSTORE POP JUMP JUMPDEST PUSH0 PUSH2 0xE76 PUSH1 0x2E DUP4 PUSH2 0xD6F JUMP JUMPDEST SWAP2 POP PUSH2 0xE81 DUP3 PUSH2 0xE1C JUMP JUMPDEST PUSH1 0x40 DUP3 ADD SWAP1 POP SWAP2 SWAP1 POP JUMP JUMPDEST PUSH0 PUSH1 0x20 DUP3 ADD SWAP1 POP DUP2 DUP2 SUB PUSH0 DUP4 ADD MSTORE PUSH2 0xEA3 DUP2 PUSH2 0xE6A JUMP JUMPDEST SWAP1 POP SWAP2 SWAP1 POP JUMP JUMPDEST PUSH0 PUSH1 0x20 DUP3 ADD SWAP1 POP PUSH2 0xEBD PUSH0 DUP4 ADD DUP5 PUSH2 0xC40 JUMP JUMPDEST SWAP3 SWAP2 POP POP JUMP INVALID LOG2 PUSH5 0x6970667358 0x22 SLT KECCAK256 SSTORE POP SWAP2 0xCC 0xC4 PUSH20 0x66E9FAFACE08BF63B1700C8A4C8E990031FA6F SGT SELFDESTRUCT DIV 0xCC CALLER 0xEA PUSH5 0x736F6C6343 STOP ADDMOD AND STOP CALLER "
				},
				"gasEstimates": {
					"creation": {
						"codeDepositCost": "766600",
						"executionCost": "infinite",
						"totalCost": "infinite"
					},
					"external": {
						"buyDAI()": "infinite",
						"daiBalances(address)": "2846",
						"depositDAI(uint256)": "infinite",
						"depositUSDC(uint256)": "infinite",
						"getBalance(address)": "infinite",
						"owner()": "2505",
						"sellDAI()": "infinite",
						"usdcBalances(address)": "2824",
						"withdraw(address)": "infinite"
					}
				},
				"methodIdentifiers": {
					"buyDAI()": "05abf904",
					"daiBalances(address)": "ef067342",
					"depositDAI(uint256)": "365833e1",
					"depositUSDC(uint256)": "f688bcfb",
					"getBalance(address)": "f8b2cb4f",
					"owner()": "8da5cb5b",
					"sellDAI()": "15602991",
					"usdcBalances(address)": "a99c68c5",
					"withdraw(address)": "51cff8d9"
				}
			},
			"storageLayout": {
				"storage": [
					{
						"astId": 83,
						"contract": "AAVE Flash Loans/Exchange.sol:Exchange",
						"label": "owner",
						"offset": 0,
						"slot": "0",
						"type": "t_address_payable"
					},
					{
						"astId": 92,
						"contract": "AAVE Flash Loans/Exchange.sol:Exchange",
						"label": "dai",
						"offset": 0,
						"slot": "1",
						"type": "t_contract(IERC20)77"
					},
					{
						"astId": 95,
						"contract": "AAVE Flash Loans/Exchange.sol:Exchange",
						"label": "usdc",
						"offset": 0,
						"slot": "2",
						"type": "t_contract(IERC20)77"
					},
					{
						"astId": 98,
						"contract": "AAVE Flash Loans/Exchange.sol:Exchange",
						"label": "dexARate",
						"offset": 0,
						"slot": "3",
						"type": "t_uint256"
					},
					{
						"astId": 101,
						"contract": "AAVE Flash Loans/Exchange.sol:Exchange",
						"label": "dexBRate",
						"offset": 0,
						"slot": "4",
						"type": "t_uint256"
					},
					{
						"astId": 105,
						"contract": "AAVE Flash Loans/Exchange.sol:Exchange",
						"label": "daiBalances",
						"offset": 0,
						"slot": "5",
						"type": "t_mapping(t_address,t_uint256)"
					},
					{
						"astId": 109,
						"contract": "AAVE Flash Loans/Exchange.sol:Exchange",
						"label": "usdcBalances",
						"offset": 0,
						"slot": "6",
						"type": "t_mapping(t_address,t_uint256)"
					}
				],
				"types": {
					"t_address": {
						"encoding": "inplace",
						"label": "address",
						"numberOfBytes": "20"
					},
					"t_address_payable": {
						"encoding": "inplace",
						"label": "address payable",
						"numberOfBytes": "20"
					},
					"t_contract(IERC20)77": {
						"encoding": "inplace",
						"label": "contract IERC20",
						"numberOfBytes": "20"
					},
					"t_mapping(t_address,t_uint256)": {
						"encoding": "mapping",
						"key": "t_address",
						"label": "mapping(address => uint256)",
						"numberOfBytes": "32",
						"value": "t_uint256"
					},
					"t_uint256": {
						"encoding": "inplace",
						"label": "uint256",
						"numberOfBytes": "32"
					}
				}
			},
			"userdoc": {
				"kind": "user",
				"methods": {},
				"version": 1
			}
		}
	}
}