{
	"Final Assignment/ERC-20.sol": {
		"ERC20Basic": {
			"abi": [
				{
					"inputs": [],
					"stateMutability": "nonpayable",
					"type": "constructor"
				},
				{
					"anonymous": false,
					"inputs": [
						{
							"indexed": true,
							"internalType": "address",
							"name": "owner",
							"type": "address"
						},
						{
							"indexed": true,
							"internalType": "address",
							"name": "spender",
							"type": "address"
						},
						{
							"indexed": false,
							"internalType": "uint256",
							"name": "value",
							"type": "uint256"
						}
					],
					"name": "Approval",
					"type": "event"
				},
				{
					"anonymous": false,
					"inputs": [
						{
							"indexed": true,
							"internalType": "address",
							"name": "from",
							"type": "address"
						},
						{
							"indexed": true,
							"internalType": "address",
							"name": "to",
							"type": "address"
						},
						{
							"indexed": false,
							"internalType": "uint256",
							"name": "value",
							"type": "uint256"
						}
					],
					"name": "Transfer",
					"type": "event"
				},
				{
					"inputs": [
						{
							"internalType": "address",
							"name": "owner",
							"type": "address"
						},
						{
							"internalType": "address",
							"name": "delegate",
							"type": "address"
						}
					],
					"name": "allowance",
					"outputs": [
						{
							"internalType": "uint256",
							"name": "",
							"type": "uint256"
						}
					],
					"stateMutability": "view",
					"type": "function"
				},
				{
					"inputs": [
						{
							"internalType": "address",
							"name": "delegate",
							"type": "address"
						},
						{
							"internalType": "uint256",
							"name": "numTokens",
							"type": "uint256"
						}
					],
					"name": "approve",
					"outputs": [
						{
							"internalType": "bool",
							"name": "",
							"type": "bool"
						}
					],
					"stateMutability": "nonpayable",
					"type": "function"
				},
				{
					"inputs": [
						{
							"internalType": "address",
							"name": "tokenOwner",
							"type": "address"
						}
					],
					"name": "balanceOf",
					"outputs": [
						{
							"internalType": "uint256",
							"name": "",
							"type": "uint256"
						}
					],
					"stateMutability": "view",
					"type": "function"
				},
				{
					"inputs": [],
					"name": "decimals",
					"outputs": [
						{
							"internalType": "uint8",
							"name": "",
							"type": "uint8"
						}
					],
					"stateMutability": "view",
					"type": "function"
				},
				{
					"inputs": [],
					"name": "getcontractaddress",
					"outputs": [
						{
							"internalType": "address",
							"name": "",
							"type": "address"
						}
					],
					"stateMutability": "nonpayable",
					"type": "function"
				},
				{
					"inputs": [
						{
							"internalType": "uint256",
							"name": "_amount",
							"type": "uint256"
						}
					],
					"name": "mint",
					"outputs": [
						{
							"internalType": "uint256",
							"name": "",
							"type": "uint256"
						}
					],
					"stateMutability": "nonpayable",
					"type": "function"
				},
				{
					"inputs": [],
					"name": "name",
					"outputs": [
						{
							"internalType": "string",
							"name": "",
							"type": "string"
						}
					],
					"stateMutability": "view",
					"type": "function"
				},
				{
					"inputs": [],
					"name": "symbol",
					"outputs": [
						{
							"internalType": "string",
							"name": "",
							"type": "string"
						}
					],
					"stateMutability": "view",
					"type": "function"
				},
				{
					"inputs": [],
					"name": "totalSupply",
					"outputs": [
						{
							"internalType": "uint256",
							"name": "",
							"type": "uint256"
						}
					],
					"stateMutability": "view",
					"type": "function"
				},
				{
					"inputs": [
						{
							"internalType": "address",
							"name": "sender",
							"type": "address"
						},
						{
							"internalType": "address",
							"name": "receiver",
							"type": "address"
						},
						{
							"internalType": "uint256",
							"name": "numTokens",
							"type": "uint256"
						}
					],
					"name": "transfer",
					"outputs": [
						{
							"internalType": "bool",
							"name": "",
							"type": "bool"
						}
					],
					"stateMutability": "nonpayable",
					"type": "function"
				},
				{
					"inputs": [
						{
							"internalType": "address",
							"name": "owner",
							"type": "address"
						},
						{
							"internalType": "address",
							"name": "buyer",
							"type": "address"
						},
						{
							"internalType": "uint256",
							"name": "numTokens",
							"type": "uint256"
						}
					],
					"name": "transferFrom",
					"outputs": [
						{
							"internalType": "bool",
							"name": "",
							"type": "bool"
						}
					],
					"stateMutability": "nonpayable",
					"type": "function"
				}
			],
			"devdoc": {
				"kind": "dev",
				"methods": {},
				"version": 1
			},
			"evm": {
				"assembly": "    /* \"Final Assignment/ERC-20.sol\":764:2910  contract ERC20Basic is IERC20 {... */\n  mstore(0x40, 0x80)\n    /* \"Final Assignment/ERC-20.sol\":1075:1083  10 ether */\n  0x8ac7230489e80000\n    /* \"Final Assignment/ERC-20.sol\":1052:1083  uint256 totalSupply_ = 10 ether */\n  0x02\n  sstore\n    /* \"Final Assignment/ERC-20.sol\":1093:1157  constructor() {... */\n  callvalue\n  dup1\n  iszero\n  tag_1\n  jumpi\n  0x00\n  dup1\n  revert\ntag_1:\n  pop\n    /* \"Final Assignment/ERC-20.sol\":1137:1149  totalSupply_ */\n  sload(0x02)\n    /* \"Final Assignment/ERC-20.sol\":1114:1122  balances */\n  0x00\n    /* \"Final Assignment/ERC-20.sol\":1114:1134  balances[msg.sender] */\n  dup1\n    /* \"Final Assignment/ERC-20.sol\":1123:1133  msg.sender */\n  caller\n    /* \"Final Assignment/ERC-20.sol\":1114:1134  balances[msg.sender] */\n  0xffffffffffffffffffffffffffffffffffffffff\n  and\n  0xffffffffffffffffffffffffffffffffffffffff\n  and\n  dup2\n  mstore\n  0x20\n  add\n  swap1\n  dup2\n  mstore\n  0x20\n  add\n  0x00\n  keccak256\n    /* \"Final Assignment/ERC-20.sol\":1114:1149  balances[msg.sender] = totalSupply_ */\n  dup2\n  swap1\n  sstore\n  pop\n    /* \"Final Assignment/ERC-20.sol\":764:2910  contract ERC20Basic is IERC20 {... */\n  dataSize(sub_0)\n  dup1\n  dataOffset(sub_0)\n  0x00\n  codecopy\n  0x00\n  return\nstop\n\nsub_0: assembly {\n        /* \"Final Assignment/ERC-20.sol\":764:2910  contract ERC20Basic is IERC20 {... */\n      mstore(0x40, 0x80)\n      callvalue\n      dup1\n      iszero\n      tag_1\n      jumpi\n      0x00\n      dup1\n      revert\n    tag_1:\n      pop\n      jumpi(tag_2, lt(calldatasize, 0x04))\n      shr(0xe0, calldataload(0x00))\n      dup1\n      0x313ce567\n      gt\n      tag_14\n      jumpi\n      dup1\n      0x313ce567\n      eq\n      tag_8\n      jumpi\n      dup1\n      0x70a08231\n      eq\n      tag_9\n      jumpi\n      dup1\n      0x95d89b41\n      eq\n      tag_10\n      jumpi\n      dup1\n      0xa0712d68\n      eq\n      tag_11\n      jumpi\n      dup1\n      0xbeabacc8\n      eq\n      tag_12\n      jumpi\n      dup1\n      0xdd62ed3e\n      eq\n      tag_13\n      jumpi\n      jump(tag_2)\n    tag_14:\n      dup1\n      0x06fdde03\n      eq\n      tag_3\n      jumpi\n      dup1\n      0x095ea7b3\n      eq\n      tag_4\n      jumpi\n      dup1\n      0x15621373\n      eq\n      tag_5\n      jumpi\n      dup1\n      0x18160ddd\n      eq\n      tag_6\n      jumpi\n      dup1\n      0x23b872dd\n      eq\n      tag_7\n      jumpi\n    tag_2:\n      0x00\n      dup1\n      revert\n        /* \"Final Assignment/ERC-20.sol\":803:845  string public constant name = \"ERC20Basic\" */\n    tag_3:\n      tag_15\n      tag_16\n      jump\t// in\n    tag_15:\n      mload(0x40)\n      tag_17\n      swap2\n      swap1\n      tag_18\n      jump\t// in\n    tag_17:\n      mload(0x40)\n      dup1\n      swap2\n      sub\n      swap1\n      return\n        /* \"Final Assignment/ERC-20.sol\":1957:2181  function approve(address delegate, uint256 numTokens) public override returns (bool) {... */\n    tag_4:\n      tag_19\n      0x04\n      dup1\n      calldatasize\n      sub\n      dup2\n      add\n      swap1\n      tag_20\n      swap2\n      swap1\n      tag_21\n      jump\t// in\n    tag_20:\n      tag_22\n      jump\t// in\n    tag_19:\n      mload(0x40)\n      tag_23\n      swap2\n      swap1\n      tag_24\n      jump\t// in\n    tag_23:\n      mload(0x40)\n      dup1\n      swap2\n      sub\n      swap1\n      return\n        /* \"Final Assignment/ERC-20.sol\":2815:2907  function getcontractaddress() public returns(address){... */\n    tag_5:\n      tag_25\n      tag_26\n      jump\t// in\n    tag_25:\n      mload(0x40)\n      tag_27\n      swap2\n      swap1\n      tag_28\n      jump\t// in\n    tag_27:\n      mload(0x40)\n      dup1\n      swap2\n      sub\n      swap1\n      return\n        /* \"Final Assignment/ERC-20.sol\":1343:1439  function totalSupply() public override view returns (uint256) {... */\n    tag_6:\n      tag_29\n      tag_30\n      jump\t// in\n    tag_29:\n      mload(0x40)\n      tag_31\n      swap2\n      swap1\n      tag_32\n      jump\t// in\n    tag_31:\n      mload(0x40)\n      dup1\n      swap2\n      sub\n      swap1\n      return\n        /* \"Final Assignment/ERC-20.sol\":2335:2807  function transferFrom(address owner, address buyer, uint256 numTokens) public override returns (bool) {... */\n    tag_7:\n      tag_33\n      0x04\n      dup1\n      calldatasize\n      sub\n      dup2\n      add\n      swap1\n      tag_34\n      swap2\n      swap1\n      tag_35\n      jump\t// in\n    tag_34:\n      tag_36\n      jump\t// in\n    tag_33:\n      mload(0x40)\n      tag_37\n      swap2\n      swap1\n      tag_24\n      jump\t// in\n    tag_37:\n      mload(0x40)\n      dup1\n      swap2\n      sub\n      swap1\n      return\n        /* \"Final Assignment/ERC-20.sol\":896:931  uint8 public constant decimals = 18 */\n    tag_8:\n      tag_38\n      tag_39\n      jump\t// in\n    tag_38:\n      mload(0x40)\n      tag_40\n      swap2\n      swap1\n      tag_41\n      jump\t// in\n    tag_40:\n      mload(0x40)\n      dup1\n      swap2\n      sub\n      swap1\n      return\n        /* \"Final Assignment/ERC-20.sol\":1447:1571  function balanceOf(address tokenOwner) public override view returns (uint256) {... */\n    tag_9:\n      tag_42\n      0x04\n      dup1\n      calldatasize\n      sub\n      dup2\n      add\n      swap1\n      tag_43\n      swap2\n      swap1\n      tag_44\n      jump\t// in\n    tag_43:\n      tag_45\n      jump\t// in\n    tag_42:\n      mload(0x40)\n      tag_46\n      swap2\n      swap1\n      tag_32\n      jump\t// in\n    tag_46:\n      mload(0x40)\n      dup1\n      swap2\n      sub\n      swap1\n      return\n        /* \"Final Assignment/ERC-20.sol\":852:889  string public constant symbol = \"ERC\" */\n    tag_10:\n      tag_47\n      tag_48\n      jump\t// in\n    tag_47:\n      mload(0x40)\n      tag_49\n      swap2\n      swap1\n      tag_18\n      jump\t// in\n    tag_49:\n      mload(0x40)\n      dup1\n      swap2\n      sub\n      swap1\n      return\n        /* \"Final Assignment/ERC-20.sol\":1167:1335  function mint(uint _amount)public returns(uint){... */\n    tag_11:\n      tag_50\n      0x04\n      dup1\n      calldatasize\n      sub\n      dup2\n      add\n      swap1\n      tag_51\n      swap2\n      swap1\n      tag_52\n      jump\t// in\n    tag_51:\n      tag_53\n      jump\t// in\n    tag_50:\n      mload(0x40)\n      tag_54\n      swap2\n      swap1\n      tag_32\n      jump\t// in\n    tag_54:\n      mload(0x40)\n      dup1\n      swap2\n      sub\n      swap1\n      return\n        /* \"Final Assignment/ERC-20.sol\":1579:1949  function transfer(address sender,address receiver, uint256 numTokens) public override returns (bool) {... */\n    tag_12:\n      tag_55\n      0x04\n      dup1\n      calldatasize\n      sub\n      dup2\n      add\n      swap1\n      tag_56\n      swap2\n      swap1\n      tag_35\n      jump\t// in\n    tag_56:\n      tag_57\n      jump\t// in\n    tag_55:\n      mload(0x40)\n      tag_58\n      swap2\n      swap1\n      tag_24\n      jump\t// in\n    tag_58:\n      mload(0x40)\n      dup1\n      swap2\n      sub\n      swap1\n      return\n        /* \"Final Assignment/ERC-20.sol\":2189:2327  function allowance(address owner, address delegate) public override view returns (uint) {... */\n    tag_13:\n      tag_59\n      0x04\n      dup1\n      calldatasize\n      sub\n      dup2\n      add\n      swap1\n      tag_60\n      swap2\n      swap1\n      tag_61\n      jump\t// in\n    tag_60:\n      tag_62\n      jump\t// in\n    tag_59:\n      mload(0x40)\n      tag_63\n      swap2\n      swap1\n      tag_32\n      jump\t// in\n    tag_63:\n      mload(0x40)\n      dup1\n      swap2\n      sub\n      swap1\n      return\n        /* \"Final Assignment/ERC-20.sol\":803:845  string public constant name = \"ERC20Basic\" */\n    tag_16:\n      mload(0x40)\n      dup1\n      0x40\n      add\n      0x40\n      mstore\n      dup1\n      0x0a\n      dup2\n      mstore\n      0x20\n      add\n      0x4552433230426173696300000000000000000000000000000000000000000000\n      dup2\n      mstore\n      pop\n      dup2\n      jump\t// out\n        /* \"Final Assignment/ERC-20.sol\":1957:2181  function approve(address delegate, uint256 numTokens) public override returns (bool) {... */\n    tag_22:\n        /* \"Final Assignment/ERC-20.sol\":2036:2040  bool */\n      0x00\n        /* \"Final Assignment/ERC-20.sol\":2085:2094  numTokens */\n      dup2\n        /* \"Final Assignment/ERC-20.sol\":2053:2060  allowed */\n      0x01\n        /* \"Final Assignment/ERC-20.sol\":2053:2072  allowed[msg.sender] */\n      0x00\n        /* \"Final Assignment/ERC-20.sol\":2061:2071  msg.sender */\n      caller\n        /* \"Final Assignment/ERC-20.sol\":2053:2072  allowed[msg.sender] */\n      0xffffffffffffffffffffffffffffffffffffffff\n      and\n      0xffffffffffffffffffffffffffffffffffffffff\n      and\n      dup2\n      mstore\n      0x20\n      add\n      swap1\n      dup2\n      mstore\n      0x20\n      add\n      0x00\n      keccak256\n        /* \"Final Assignment/ERC-20.sol\":2053:2082  allowed[msg.sender][delegate] */\n      0x00\n        /* \"Final Assignment/ERC-20.sol\":2073:2081  delegate */\n      dup6\n        /* \"Final Assignment/ERC-20.sol\":2053:2082  allowed[msg.sender][delegate] */\n      0xffffffffffffffffffffffffffffffffffffffff\n      and\n      0xffffffffffffffffffffffffffffffffffffffff\n      and\n      dup2\n      mstore\n      0x20\n      add\n      swap1\n      dup2\n      mstore\n      0x20\n      add\n      0x00\n      keccak256\n        /* \"Final Assignment/ERC-20.sol\":2053:2094  allowed[msg.sender][delegate] = numTokens */\n      dup2\n      swap1\n      sstore\n      pop\n        /* \"Final Assignment/ERC-20.sol\":2131:2139  delegate */\n      dup3\n        /* \"Final Assignment/ERC-20.sol\":2110:2151  Approval(msg.sender, delegate, numTokens) */\n      0xffffffffffffffffffffffffffffffffffffffff\n      and\n        /* \"Final Assignment/ERC-20.sol\":2119:2129  msg.sender */\n      caller\n        /* \"Final Assignment/ERC-20.sol\":2110:2151  Approval(msg.sender, delegate, numTokens) */\n      0xffffffffffffffffffffffffffffffffffffffff\n      and\n      0x8c5be1e5ebec7d5bd14f71427d1e84f3dd0314c0f7b2291e5b200ac8c7c3b925\n        /* \"Final Assignment/ERC-20.sol\":2141:2150  numTokens */\n      dup5\n        /* \"Final Assignment/ERC-20.sol\":2110:2151  Approval(msg.sender, delegate, numTokens) */\n      mload(0x40)\n      tag_65\n      swap2\n      swap1\n      tag_32\n      jump\t// in\n    tag_65:\n      mload(0x40)\n      dup1\n      swap2\n      sub\n      swap1\n      log3\n        /* \"Final Assignment/ERC-20.sol\":2169:2173  true */\n      0x01\n        /* \"Final Assignment/ERC-20.sol\":2162:2173  return true */\n      swap1\n      pop\n        /* \"Final Assignment/ERC-20.sol\":1957:2181  function approve(address delegate, uint256 numTokens) public override returns (bool) {... */\n      swap3\n      swap2\n      pop\n      pop\n      jump\t// out\n        /* \"Final Assignment/ERC-20.sol\":2815:2907  function getcontractaddress() public returns(address){... */\n    tag_26:\n        /* \"Final Assignment/ERC-20.sol\":2860:2867  address */\n      0x00\n        /* \"Final Assignment/ERC-20.sol\":2892:2896  this */\n      address\n        /* \"Final Assignment/ERC-20.sol\":2877:2897  return address(this) */\n      swap1\n      pop\n        /* \"Final Assignment/ERC-20.sol\":2815:2907  function getcontractaddress() public returns(address){... */\n      swap1\n      jump\t// out\n        /* \"Final Assignment/ERC-20.sol\":1343:1439  function totalSupply() public override view returns (uint256) {... */\n    tag_30:\n        /* \"Final Assignment/ERC-20.sol\":1396:1403  uint256 */\n      0x00\n        /* \"Final Assignment/ERC-20.sol\":1419:1431  totalSupply_ */\n      sload(0x02)\n        /* \"Final Assignment/ERC-20.sol\":1412:1431  return totalSupply_ */\n      swap1\n      pop\n        /* \"Final Assignment/ERC-20.sol\":1343:1439  function totalSupply() public override view returns (uint256) {... */\n      swap1\n      jump\t// out\n        /* \"Final Assignment/ERC-20.sol\":2335:2807  function transferFrom(address owner, address buyer, uint256 numTokens) public override returns (bool) {... */\n    tag_36:\n        /* \"Final Assignment/ERC-20.sol\":2431:2435  bool */\n      0x00\n        /* \"Final Assignment/ERC-20.sol\":2469:2477  balances */\n      dup1\n        /* \"Final Assignment/ERC-20.sol\":2469:2484  balances[owner] */\n      0x00\n        /* \"Final Assignment/ERC-20.sol\":2478:2483  owner */\n      dup6\n        /* \"Final Assignment/ERC-20.sol\":2469:2484  balances[owner] */\n      0xffffffffffffffffffffffffffffffffffffffff\n      and\n      0xffffffffffffffffffffffffffffffffffffffff\n      and\n      dup2\n      mstore\n      0x20\n      add\n      swap1\n      dup2\n      mstore\n      0x20\n      add\n      0x00\n      keccak256\n      sload\n        /* \"Final Assignment/ERC-20.sol\":2456:2465  numTokens */\n      dup3\n        /* \"Final Assignment/ERC-20.sol\":2456:2484  numTokens <= balances[owner] */\n      gt\n      iszero\n        /* \"Final Assignment/ERC-20.sol\":2448:2485  require(numTokens <= balances[owner]) */\n      tag_69\n      jumpi\n      0x00\n      dup1\n      revert\n    tag_69:\n        /* \"Final Assignment/ERC-20.sol\":2517:2524  allowed */\n      0x01\n        /* \"Final Assignment/ERC-20.sol\":2517:2531  allowed[owner] */\n      0x00\n        /* \"Final Assignment/ERC-20.sol\":2525:2530  owner */\n      dup6\n        /* \"Final Assignment/ERC-20.sol\":2517:2531  allowed[owner] */\n      0xffffffffffffffffffffffffffffffffffffffff\n      and\n      0xffffffffffffffffffffffffffffffffffffffff\n      and\n      dup2\n      mstore\n      0x20\n      add\n      swap1\n      dup2\n      mstore\n      0x20\n      add\n      0x00\n      keccak256\n        /* \"Final Assignment/ERC-20.sol\":2517:2543  allowed[owner][msg.sender] */\n      0x00\n        /* \"Final Assignment/ERC-20.sol\":2532:2542  msg.sender */\n      caller\n        /* \"Final Assignment/ERC-20.sol\":2517:2543  allowed[owner][msg.sender] */\n      0xffffffffffffffffffffffffffffffffffffffff\n      and\n      0xffffffffffffffffffffffffffffffffffffffff\n      and\n      dup2\n      mstore\n      0x20\n      add\n      swap1\n      dup2\n      mstore\n      0x20\n      add\n      0x00\n      keccak256\n      sload\n        /* \"Final Assignment/ERC-20.sol\":2504:2513  numTokens */\n      dup3\n        /* \"Final Assignment/ERC-20.sol\":2504:2543  numTokens <= allowed[owner][msg.sender] */\n      gt\n      iszero\n        /* \"Final Assignment/ERC-20.sol\":2496:2544  require(numTokens <= allowed[owner][msg.sender]) */\n      tag_70\n      jumpi\n      0x00\n      dup1\n      revert\n    tag_70:\n        /* \"Final Assignment/ERC-20.sol\":2589:2598  numTokens */\n      dup2\n        /* \"Final Assignment/ERC-20.sol\":2573:2581  balances */\n      0x00\n        /* \"Final Assignment/ERC-20.sol\":2573:2588  balances[owner] */\n      dup1\n        /* \"Final Assignment/ERC-20.sol\":2582:2587  owner */\n      dup7\n        /* \"Final Assignment/ERC-20.sol\":2573:2588  balances[owner] */\n      0xffffffffffffffffffffffffffffffffffffffff\n      and\n      0xffffffffffffffffffffffffffffffffffffffff\n      and\n      dup2\n      mstore\n      0x20\n      add\n      swap1\n      dup2\n      mstore\n      0x20\n      add\n      0x00\n      keccak256\n      sload\n        /* \"Final Assignment/ERC-20.sol\":2573:2598  balances[owner]-numTokens */\n      tag_71\n      swap2\n      swap1\n      tag_72\n      jump\t// in\n    tag_71:\n        /* \"Final Assignment/ERC-20.sol\":2555:2563  balances */\n      0x00\n        /* \"Final Assignment/ERC-20.sol\":2555:2570  balances[owner] */\n      dup1\n        /* \"Final Assignment/ERC-20.sol\":2564:2569  owner */\n      dup7\n        /* \"Final Assignment/ERC-20.sol\":2555:2570  balances[owner] */\n      0xffffffffffffffffffffffffffffffffffffffff\n      and\n      0xffffffffffffffffffffffffffffffffffffffff\n      and\n      dup2\n      mstore\n      0x20\n      add\n      swap1\n      dup2\n      mstore\n      0x20\n      add\n      0x00\n      keccak256\n        /* \"Final Assignment/ERC-20.sol\":2555:2598  balances[owner] = balances[owner]-numTokens */\n      dup2\n      swap1\n      sstore\n      pop\n        /* \"Final Assignment/ERC-20.sol\":2665:2674  numTokens */\n      dup2\n        /* \"Final Assignment/ERC-20.sol\":2638:2645  allowed */\n      0x01\n        /* \"Final Assignment/ERC-20.sol\":2638:2652  allowed[owner] */\n      0x00\n        /* \"Final Assignment/ERC-20.sol\":2646:2651  owner */\n      dup7\n        /* \"Final Assignment/ERC-20.sol\":2638:2652  allowed[owner] */\n      0xffffffffffffffffffffffffffffffffffffffff\n      and\n      0xffffffffffffffffffffffffffffffffffffffff\n      and\n      dup2\n      mstore\n      0x20\n      add\n      swap1\n      dup2\n      mstore\n      0x20\n      add\n      0x00\n      keccak256\n        /* \"Final Assignment/ERC-20.sol\":2638:2664  allowed[owner][msg.sender] */\n      0x00\n        /* \"Final Assignment/ERC-20.sol\":2653:2663  msg.sender */\n      caller\n        /* \"Final Assignment/ERC-20.sol\":2638:2664  allowed[owner][msg.sender] */\n      0xffffffffffffffffffffffffffffffffffffffff\n      and\n      0xffffffffffffffffffffffffffffffffffffffff\n      and\n      dup2\n      mstore\n      0x20\n      add\n      swap1\n      dup2\n      mstore\n      0x20\n      add\n      0x00\n      keccak256\n      sload\n        /* \"Final Assignment/ERC-20.sol\":2638:2674  allowed[owner][msg.sender]-numTokens */\n      tag_73\n      swap2\n      swap1\n      tag_72\n      jump\t// in\n    tag_73:\n        /* \"Final Assignment/ERC-20.sol\":2609:2616  allowed */\n      0x01\n        /* \"Final Assignment/ERC-20.sol\":2609:2623  allowed[owner] */\n      0x00\n        /* \"Final Assignment/ERC-20.sol\":2617:2622  owner */\n      dup7\n        /* \"Final Assignment/ERC-20.sol\":2609:2623  allowed[owner] */\n      0xffffffffffffffffffffffffffffffffffffffff\n      and\n      0xffffffffffffffffffffffffffffffffffffffff\n      and\n      dup2\n      mstore\n      0x20\n      add\n      swap1\n      dup2\n      mstore\n      0x20\n      add\n      0x00\n      keccak256\n        /* \"Final Assignment/ERC-20.sol\":2609:2635  allowed[owner][msg.sender] */\n      0x00\n        /* \"Final Assignment/ERC-20.sol\":2624:2634  msg.sender */\n      caller\n        /* \"Final Assignment/ERC-20.sol\":2609:2635  allowed[owner][msg.sender] */\n      0xffffffffffffffffffffffffffffffffffffffff\n      and\n      0xffffffffffffffffffffffffffffffffffffffff\n      and\n      dup2\n      mstore\n      0x20\n      add\n      swap1\n      dup2\n      mstore\n      0x20\n      add\n      0x00\n      keccak256\n        /* \"Final Assignment/ERC-20.sol\":2609:2674  allowed[owner][msg.sender] = allowed[owner][msg.sender]-numTokens */\n      dup2\n      swap1\n      sstore\n      pop\n        /* \"Final Assignment/ERC-20.sol\":2719:2728  numTokens */\n      dup2\n        /* \"Final Assignment/ERC-20.sol\":2703:2711  balances */\n      0x00\n        /* \"Final Assignment/ERC-20.sol\":2703:2718  balances[buyer] */\n      dup1\n        /* \"Final Assignment/ERC-20.sol\":2712:2717  buyer */\n      dup6\n        /* \"Final Assignment/ERC-20.sol\":2703:2718  balances[buyer] */\n      0xffffffffffffffffffffffffffffffffffffffff\n      and\n      0xffffffffffffffffffffffffffffffffffffffff\n      and\n      dup2\n      mstore\n      0x20\n      add\n      swap1\n      dup2\n      mstore\n      0x20\n      add\n      0x00\n      keccak256\n      sload\n        /* \"Final Assignment/ERC-20.sol\":2703:2728  balances[buyer]+numTokens */\n      tag_74\n      swap2\n      swap1\n      tag_75\n      jump\t// in\n    tag_74:\n        /* \"Final Assignment/ERC-20.sol\":2685:2693  balances */\n      0x00\n        /* \"Final Assignment/ERC-20.sol\":2685:2700  balances[buyer] */\n      dup1\n        /* \"Final Assignment/ERC-20.sol\":2694:2699  buyer */\n      dup6\n        /* \"Final Assignment/ERC-20.sol\":2685:2700  balances[buyer] */\n      0xffffffffffffffffffffffffffffffffffffffff\n      and\n      0xffffffffffffffffffffffffffffffffffffffff\n      and\n      dup2\n      mstore\n      0x20\n      add\n      swap1\n      dup2\n      mstore\n      0x20\n      add\n      0x00\n      keccak256\n        /* \"Final Assignment/ERC-20.sol\":2685:2728  balances[buyer] = balances[buyer]+numTokens */\n      dup2\n      swap1\n      sstore\n      pop\n        /* \"Final Assignment/ERC-20.sol\":2760:2765  buyer */\n      dup3\n        /* \"Final Assignment/ERC-20.sol\":2744:2777  Transfer(owner, buyer, numTokens) */\n      0xffffffffffffffffffffffffffffffffffffffff\n      and\n        /* \"Final Assignment/ERC-20.sol\":2753:2758  owner */\n      dup5\n        /* \"Final Assignment/ERC-20.sol\":2744:2777  Transfer(owner, buyer, numTokens) */\n      0xffffffffffffffffffffffffffffffffffffffff\n      and\n      0xddf252ad1be2c89b69c2b068fc378daa952ba7f163c4a11628f55a4df523b3ef\n        /* \"Final Assignment/ERC-20.sol\":2767:2776  numTokens */\n      dup5\n        /* \"Final Assignment/ERC-20.sol\":2744:2777  Transfer(owner, buyer, numTokens) */\n      mload(0x40)\n      tag_76\n      swap2\n      swap1\n      tag_32\n      jump\t// in\n    tag_76:\n      mload(0x40)\n      dup1\n      swap2\n      sub\n      swap1\n      log3\n        /* \"Final Assignment/ERC-20.sol\":2795:2799  true */\n      0x01\n        /* \"Final Assignment/ERC-20.sol\":2788:2799  return true */\n      swap1\n      pop\n        /* \"Final Assignment/ERC-20.sol\":2335:2807  function transferFrom(address owner, address buyer, uint256 numTokens) public override returns (bool) {... */\n      swap4\n      swap3\n      pop\n      pop\n      pop\n      jump\t// out\n        /* \"Final Assignment/ERC-20.sol\":896:931  uint8 public constant decimals = 18 */\n    tag_39:\n        /* \"Final Assignment/ERC-20.sol\":929:931  18 */\n      0x12\n        /* \"Final Assignment/ERC-20.sol\":896:931  uint8 public constant decimals = 18 */\n      dup2\n      jump\t// out\n        /* \"Final Assignment/ERC-20.sol\":1447:1571  function balanceOf(address tokenOwner) public override view returns (uint256) {... */\n    tag_45:\n        /* \"Final Assignment/ERC-20.sol\":1516:1523  uint256 */\n      0x00\n        /* \"Final Assignment/ERC-20.sol\":1543:1551  balances */\n      dup1\n        /* \"Final Assignment/ERC-20.sol\":1543:1563  balances[tokenOwner] */\n      0x00\n        /* \"Final Assignment/ERC-20.sol\":1552:1562  tokenOwner */\n      dup4\n        /* \"Final Assignment/ERC-20.sol\":1543:1563  balances[tokenOwner] */\n      0xffffffffffffffffffffffffffffffffffffffff\n      and\n      0xffffffffffffffffffffffffffffffffffffffff\n      and\n      dup2\n      mstore\n      0x20\n      add\n      swap1\n      dup2\n      mstore\n      0x20\n      add\n      0x00\n      keccak256\n      sload\n        /* \"Final Assignment/ERC-20.sol\":1536:1563  return balances[tokenOwner] */\n      swap1\n      pop\n        /* \"Final Assignment/ERC-20.sol\":1447:1571  function balanceOf(address tokenOwner) public override view returns (uint256) {... */\n      swap2\n      swap1\n      pop\n      jump\t// out\n        /* \"Final Assignment/ERC-20.sol\":852:889  string public constant symbol = \"ERC\" */\n    tag_48:\n      mload(0x40)\n      dup1\n      0x40\n      add\n      0x40\n      mstore\n      dup1\n      0x03\n      dup2\n      mstore\n      0x20\n      add\n      0x4552430000000000000000000000000000000000000000000000000000000000\n      dup2\n      mstore\n      pop\n      dup2\n      jump\t// out\n        /* \"Final Assignment/ERC-20.sol\":1167:1335  function mint(uint _amount)public returns(uint){... */\n    tag_53:\n        /* \"Final Assignment/ERC-20.sol\":1209:1213  uint */\n      0x00\n        /* \"Final Assignment/ERC-20.sol\":1241:1248  _amount */\n      dup2\n        /* \"Final Assignment/ERC-20.sol\":1225:1237  totalSupply_ */\n      0x02\n      0x00\n        /* \"Final Assignment/ERC-20.sol\":1225:1248  totalSupply_ += _amount */\n      dup3\n      dup3\n      sload\n      tag_79\n      swap2\n      swap1\n      tag_75\n      jump\t// in\n    tag_79:\n      swap3\n      pop\n      pop\n      dup2\n      swap1\n      sstore\n      pop\n        /* \"Final Assignment/ERC-20.sol\":1283:1290  _amount */\n      dup2\n        /* \"Final Assignment/ERC-20.sol\":1259:1267  balances */\n      0x00\n        /* \"Final Assignment/ERC-20.sol\":1259:1279  balances[msg.sender] */\n      dup1\n        /* \"Final Assignment/ERC-20.sol\":1268:1278  msg.sender */\n      caller\n        /* \"Final Assignment/ERC-20.sol\":1259:1279  balances[msg.sender] */\n      0xffffffffffffffffffffffffffffffffffffffff\n      and\n      0xffffffffffffffffffffffffffffffffffffffff\n      and\n      dup2\n      mstore\n      0x20\n      add\n      swap1\n      dup2\n      mstore\n      0x20\n      add\n      0x00\n      keccak256\n      0x00\n        /* \"Final Assignment/ERC-20.sol\":1259:1290  balances[msg.sender] += _amount */\n      dup3\n      dup3\n      sload\n      tag_80\n      swap2\n      swap1\n      tag_75\n      jump\t// in\n    tag_80:\n      swap3\n      pop\n      pop\n      dup2\n      swap1\n      sstore\n      pop\n        /* \"Final Assignment/ERC-20.sol\":1308:1320  totalSupply_ */\n      sload(0x02)\n        /* \"Final Assignment/ERC-20.sol\":1301:1320  return totalSupply_ */\n      swap1\n      pop\n        /* \"Final Assignment/ERC-20.sol\":1167:1335  function mint(uint _amount)public returns(uint){... */\n      swap2\n      swap1\n      pop\n      jump\t// out\n        /* \"Final Assignment/ERC-20.sol\":1579:1949  function transfer(address sender,address receiver, uint256 numTokens) public override returns (bool) {... */\n    tag_57:\n        /* \"Final Assignment/ERC-20.sol\":1674:1678  bool */\n      0x00\n        /* \"Final Assignment/ERC-20.sol\":1712:1720  balances */\n      dup1\n        /* \"Final Assignment/ERC-20.sol\":1712:1728  balances[sender] */\n      0x00\n        /* \"Final Assignment/ERC-20.sol\":1721:1727  sender */\n      dup6\n        /* \"Final Assignment/ERC-20.sol\":1712:1728  balances[sender] */\n      0xffffffffffffffffffffffffffffffffffffffff\n      and\n      0xffffffffffffffffffffffffffffffffffffffff\n      and\n      dup2\n      mstore\n      0x20\n      add\n      swap1\n      dup2\n      mstore\n      0x20\n      add\n      0x00\n      keccak256\n      sload\n        /* \"Final Assignment/ERC-20.sol\":1699:1708  numTokens */\n      dup3\n        /* \"Final Assignment/ERC-20.sol\":1699:1728  numTokens <= balances[sender] */\n      gt\n      iszero\n        /* \"Final Assignment/ERC-20.sol\":1691:1750  require(numTokens <= balances[sender],\"balance not enough\") */\n      tag_82\n      jumpi\n      mload(0x40)\n      0x08c379a000000000000000000000000000000000000000000000000000000000\n      dup2\n      mstore\n      0x04\n      add\n      tag_83\n      swap1\n      tag_84\n      jump\t// in\n    tag_83:\n      mload(0x40)\n      dup1\n      swap2\n      sub\n      swap1\n      revert\n    tag_82:\n        /* \"Final Assignment/ERC-20.sol\":1797:1806  numTokens */\n      dup2\n        /* \"Final Assignment/ERC-20.sol\":1780:1788  balances */\n      0x00\n        /* \"Final Assignment/ERC-20.sol\":1780:1796  balances[sender] */\n      dup1\n        /* \"Final Assignment/ERC-20.sol\":1789:1795  sender */\n      dup7\n        /* \"Final Assignment/ERC-20.sol\":1780:1796  balances[sender] */\n      0xffffffffffffffffffffffffffffffffffffffff\n      and\n      0xffffffffffffffffffffffffffffffffffffffff\n      and\n      dup2\n      mstore\n      0x20\n      add\n      swap1\n      dup2\n      mstore\n      0x20\n      add\n      0x00\n      keccak256\n      sload\n        /* \"Final Assignment/ERC-20.sol\":1780:1806  balances[sender]-numTokens */\n      tag_85\n      swap2\n      swap1\n      tag_72\n      jump\t// in\n    tag_85:\n        /* \"Final Assignment/ERC-20.sol\":1761:1769  balances */\n      0x00\n        /* \"Final Assignment/ERC-20.sol\":1761:1777  balances[sender] */\n      dup1\n        /* \"Final Assignment/ERC-20.sol\":1770:1776  sender */\n      dup7\n        /* \"Final Assignment/ERC-20.sol\":1761:1777  balances[sender] */\n      0xffffffffffffffffffffffffffffffffffffffff\n      and\n      0xffffffffffffffffffffffffffffffffffffffff\n      and\n      dup2\n      mstore\n      0x20\n      add\n      swap1\n      dup2\n      mstore\n      0x20\n      add\n      0x00\n      keccak256\n        /* \"Final Assignment/ERC-20.sol\":1761:1806  balances[sender] = balances[sender]-numTokens */\n      dup2\n      swap1\n      sstore\n      pop\n        /* \"Final Assignment/ERC-20.sol\":1857:1866  numTokens */\n      dup2\n        /* \"Final Assignment/ERC-20.sol\":1838:1846  balances */\n      0x00\n        /* \"Final Assignment/ERC-20.sol\":1838:1856  balances[receiver] */\n      dup1\n        /* \"Final Assignment/ERC-20.sol\":1847:1855  receiver */\n      dup6\n        /* \"Final Assignment/ERC-20.sol\":1838:1856  balances[receiver] */\n      0xffffffffffffffffffffffffffffffffffffffff\n      and\n      0xffffffffffffffffffffffffffffffffffffffff\n      and\n      dup2\n      mstore\n      0x20\n      add\n      swap1\n      dup2\n      mstore\n      0x20\n      add\n      0x00\n      keccak256\n      sload\n        /* \"Final Assignment/ERC-20.sol\":1838:1866  balances[receiver]+numTokens */\n      tag_86\n      swap2\n      swap1\n      tag_75\n      jump\t// in\n    tag_86:\n        /* \"Final Assignment/ERC-20.sol\":1817:1825  balances */\n      0x00\n        /* \"Final Assignment/ERC-20.sol\":1817:1835  balances[receiver] */\n      dup1\n        /* \"Final Assignment/ERC-20.sol\":1826:1834  receiver */\n      dup6\n        /* \"Final Assignment/ERC-20.sol\":1817:1835  balances[receiver] */\n      0xffffffffffffffffffffffffffffffffffffffff\n      and\n      0xffffffffffffffffffffffffffffffffffffffff\n      and\n      dup2\n      mstore\n      0x20\n      add\n      swap1\n      dup2\n      mstore\n      0x20\n      add\n      0x00\n      keccak256\n        /* \"Final Assignment/ERC-20.sol\":1817:1866  balances[receiver] = balances[receiver]+numTokens */\n      dup2\n      swap1\n      sstore\n      pop\n        /* \"Final Assignment/ERC-20.sol\":1899:1907  receiver */\n      dup3\n        /* \"Final Assignment/ERC-20.sol\":1882:1919  Transfer(sender, receiver, numTokens) */\n      0xffffffffffffffffffffffffffffffffffffffff\n      and\n        /* \"Final Assignment/ERC-20.sol\":1891:1897  sender */\n      dup5\n        /* \"Final Assignment/ERC-20.sol\":1882:1919  Transfer(sender, receiver, numTokens) */\n      0xffffffffffffffffffffffffffffffffffffffff\n      and\n      0xddf252ad1be2c89b69c2b068fc378daa952ba7f163c4a11628f55a4df523b3ef\n        /* \"Final Assignment/ERC-20.sol\":1909:1918  numTokens */\n      dup5\n        /* \"Final Assignment/ERC-20.sol\":1882:1919  Transfer(sender, receiver, numTokens) */\n      mload(0x40)\n      tag_87\n      swap2\n      swap1\n      tag_32\n      jump\t// in\n    tag_87:\n      mload(0x40)\n      dup1\n      swap2\n      sub\n      swap1\n      log3\n        /* \"Final Assignment/ERC-20.sol\":1937:1941  true */\n      0x01\n        /* \"Final Assignment/ERC-20.sol\":1930:1941  return true */\n      swap1\n      pop\n        /* \"Final Assignment/ERC-20.sol\":1579:1949  function transfer(address sender,address receiver, uint256 numTokens) public override returns (bool) {... */\n      swap4\n      swap3\n      pop\n      pop\n      pop\n      jump\t// out\n        /* \"Final Assignment/ERC-20.sol\":2189:2327  function allowance(address owner, address delegate) public override view returns (uint) {... */\n    tag_62:\n        /* \"Final Assignment/ERC-20.sol\":2271:2275  uint */\n      0x00\n        /* \"Final Assignment/ERC-20.sol\":2295:2302  allowed */\n      0x01\n        /* \"Final Assignment/ERC-20.sol\":2295:2309  allowed[owner] */\n      0x00\n        /* \"Final Assignment/ERC-20.sol\":2303:2308  owner */\n      dup5\n        /* \"Final Assignment/ERC-20.sol\":2295:2309  allowed[owner] */\n      0xffffffffffffffffffffffffffffffffffffffff\n      and\n      0xffffffffffffffffffffffffffffffffffffffff\n      and\n      dup2\n      mstore\n      0x20\n      add\n      swap1\n      dup2\n      mstore\n      0x20\n      add\n      0x00\n      keccak256\n        /* \"Final Assignment/ERC-20.sol\":2295:2319  allowed[owner][delegate] */\n      0x00\n        /* \"Final Assignment/ERC-20.sol\":2310:2318  delegate */\n      dup4\n        /* \"Final Assignment/ERC-20.sol\":2295:2319  allowed[owner][delegate] */\n      0xffffffffffffffffffffffffffffffffffffffff\n      and\n      0xffffffffffffffffffffffffffffffffffffffff\n      and\n      dup2\n      mstore\n      0x20\n      add\n      swap1\n      dup2\n      mstore\n      0x20\n      add\n      0x00\n      keccak256\n      sload\n        /* \"Final Assignment/ERC-20.sol\":2288:2319  return allowed[owner][delegate] */\n      swap1\n      pop\n        /* \"Final Assignment/ERC-20.sol\":2189:2327  function allowance(address owner, address delegate) public override view returns (uint) {... */\n      swap3\n      swap2\n      pop\n      pop\n      jump\t// out\n        /* \"#utility.yul\":7:106   */\n    tag_89:\n        /* \"#utility.yul\":59:65   */\n      0x00\n        /* \"#utility.yul\":93:98   */\n      dup2\n        /* \"#utility.yul\":87:99   */\n      mload\n        /* \"#utility.yul\":77:99   */\n      swap1\n      pop\n        /* \"#utility.yul\":7:106   */\n      swap2\n      swap1\n      pop\n      jump\t// out\n        /* \"#utility.yul\":112:281   */\n    tag_90:\n        /* \"#utility.yul\":196:207   */\n      0x00\n        /* \"#utility.yul\":230:236   */\n      dup3\n        /* \"#utility.yul\":225:228   */\n      dup3\n        /* \"#utility.yul\":218:237   */\n      mstore\n        /* \"#utility.yul\":270:274   */\n      0x20\n        /* \"#utility.yul\":265:268   */\n      dup3\n        /* \"#utility.yul\":261:275   */\n      add\n        /* \"#utility.yul\":246:275   */\n      swap1\n      pop\n        /* \"#utility.yul\":112:281   */\n      swap3\n      swap2\n      pop\n      pop\n      jump\t// out\n        /* \"#utility.yul\":287:533   */\n    tag_91:\n        /* \"#utility.yul\":368:369   */\n      0x00\n        /* \"#utility.yul\":378:491   */\n    tag_117:\n        /* \"#utility.yul\":392:398   */\n      dup4\n        /* \"#utility.yul\":389:390   */\n      dup2\n        /* \"#utility.yul\":386:399   */\n      lt\n        /* \"#utility.yul\":378:491   */\n      iszero\n      tag_119\n      jumpi\n        /* \"#utility.yul\":477:478   */\n      dup1\n        /* \"#utility.yul\":472:475   */\n      dup3\n        /* \"#utility.yul\":468:479   */\n      add\n        /* \"#utility.yul\":462:480   */\n      mload\n        /* \"#utility.yul\":458:459   */\n      dup2\n        /* \"#utility.yul\":453:456   */\n      dup5\n        /* \"#utility.yul\":449:460   */\n      add\n        /* \"#utility.yul\":442:481   */\n      mstore\n        /* \"#utility.yul\":414:416   */\n      0x20\n        /* \"#utility.yul\":411:412   */\n      dup2\n        /* \"#utility.yul\":407:417   */\n      add\n        /* \"#utility.yul\":402:417   */\n      swap1\n      pop\n        /* \"#utility.yul\":378:491   */\n      jump(tag_117)\n    tag_119:\n        /* \"#utility.yul\":525:526   */\n      0x00\n        /* \"#utility.yul\":516:522   */\n      dup5\n        /* \"#utility.yul\":511:514   */\n      dup5\n        /* \"#utility.yul\":507:523   */\n      add\n        /* \"#utility.yul\":500:527   */\n      mstore\n        /* \"#utility.yul\":349:533   */\n      pop\n        /* \"#utility.yul\":287:533   */\n      pop\n      pop\n      pop\n      jump\t// out\n        /* \"#utility.yul\":539:641   */\n    tag_92:\n        /* \"#utility.yul\":580:586   */\n      0x00\n        /* \"#utility.yul\":631:633   */\n      0x1f\n        /* \"#utility.yul\":627:634   */\n      not\n        /* \"#utility.yul\":622:624   */\n      0x1f\n        /* \"#utility.yul\":615:620   */\n      dup4\n        /* \"#utility.yul\":611:625   */\n      add\n        /* \"#utility.yul\":607:635   */\n      and\n        /* \"#utility.yul\":597:635   */\n      swap1\n      pop\n        /* \"#utility.yul\":539:641   */\n      swap2\n      swap1\n      pop\n      jump\t// out\n        /* \"#utility.yul\":647:1024   */\n    tag_93:\n        /* \"#utility.yul\":735:738   */\n      0x00\n        /* \"#utility.yul\":763:802   */\n      tag_122\n        /* \"#utility.yul\":796:801   */\n      dup3\n        /* \"#utility.yul\":763:802   */\n      tag_89\n      jump\t// in\n    tag_122:\n        /* \"#utility.yul\":818:889   */\n      tag_123\n        /* \"#utility.yul\":882:888   */\n      dup2\n        /* \"#utility.yul\":877:880   */\n      dup6\n        /* \"#utility.yul\":818:889   */\n      tag_90\n      jump\t// in\n    tag_123:\n        /* \"#utility.yul\":811:889   */\n      swap4\n      pop\n        /* \"#utility.yul\":898:963   */\n      tag_124\n        /* \"#utility.yul\":956:962   */\n      dup2\n        /* \"#utility.yul\":951:954   */\n      dup6\n        /* \"#utility.yul\":944:948   */\n      0x20\n        /* \"#utility.yul\":937:942   */\n      dup7\n        /* \"#utility.yul\":933:949   */\n      add\n        /* \"#utility.yul\":898:963   */\n      tag_91\n      jump\t// in\n    tag_124:\n        /* \"#utility.yul\":988:1017   */\n      tag_125\n        /* \"#utility.yul\":1010:1016   */\n      dup2\n        /* \"#utility.yul\":988:1017   */\n      tag_92\n      jump\t// in\n    tag_125:\n        /* \"#utility.yul\":983:986   */\n      dup5\n        /* \"#utility.yul\":979:1018   */\n      add\n        /* \"#utility.yul\":972:1018   */\n      swap2\n      pop\n        /* \"#utility.yul\":739:1024   */\n      pop\n        /* \"#utility.yul\":647:1024   */\n      swap3\n      swap2\n      pop\n      pop\n      jump\t// out\n        /* \"#utility.yul\":1030:1343   */\n    tag_18:\n        /* \"#utility.yul\":1143:1147   */\n      0x00\n        /* \"#utility.yul\":1181:1183   */\n      0x20\n        /* \"#utility.yul\":1170:1179   */\n      dup3\n        /* \"#utility.yul\":1166:1184   */\n      add\n        /* \"#utility.yul\":1158:1184   */\n      swap1\n      pop\n        /* \"#utility.yul\":1230:1239   */\n      dup2\n        /* \"#utility.yul\":1224:1228   */\n      dup2\n        /* \"#utility.yul\":1220:1240   */\n      sub\n        /* \"#utility.yul\":1216:1217   */\n      0x00\n        /* \"#utility.yul\":1205:1214   */\n      dup4\n        /* \"#utility.yul\":1201:1218   */\n      add\n        /* \"#utility.yul\":1194:1241   */\n      mstore\n        /* \"#utility.yul\":1258:1336   */\n      tag_127\n        /* \"#utility.yul\":1331:1335   */\n      dup2\n        /* \"#utility.yul\":1322:1328   */\n      dup5\n        /* \"#utility.yul\":1258:1336   */\n      tag_93\n      jump\t// in\n    tag_127:\n        /* \"#utility.yul\":1250:1336   */\n      swap1\n      pop\n        /* \"#utility.yul\":1030:1343   */\n      swap3\n      swap2\n      pop\n      pop\n      jump\t// out\n        /* \"#utility.yul\":1430:1547   */\n    tag_95:\n        /* \"#utility.yul\":1539:1540   */\n      0x00\n        /* \"#utility.yul\":1536:1537   */\n      dup1\n        /* \"#utility.yul\":1529:1541   */\n      revert\n        /* \"#utility.yul\":1676:1802   */\n    tag_97:\n        /* \"#utility.yul\":1713:1720   */\n      0x00\n        /* \"#utility.yul\":1753:1795   */\n      0xffffffffffffffffffffffffffffffffffffffff\n        /* \"#utility.yul\":1746:1751   */\n      dup3\n        /* \"#utility.yul\":1742:1796   */\n      and\n        /* \"#utility.yul\":1731:1796   */\n      swap1\n      pop\n        /* \"#utility.yul\":1676:1802   */\n      swap2\n      swap1\n      pop\n      jump\t// out\n        /* \"#utility.yul\":1808:1904   */\n    tag_98:\n        /* \"#utility.yul\":1845:1852   */\n      0x00\n        /* \"#utility.yul\":1874:1898   */\n      tag_133\n        /* \"#utility.yul\":1892:1897   */\n      dup3\n        /* \"#utility.yul\":1874:1898   */\n      tag_97\n      jump\t// in\n    tag_133:\n        /* \"#utility.yul\":1863:1898   */\n      swap1\n      pop\n        /* \"#utility.yul\":1808:1904   */\n      swap2\n      swap1\n      pop\n      jump\t// out\n        /* \"#utility.yul\":1910:2032   */\n    tag_99:\n        /* \"#utility.yul\":1983:2007   */\n      tag_135\n        /* \"#utility.yul\":2001:2006   */\n      dup2\n        /* \"#utility.yul\":1983:2007   */\n      tag_98\n      jump\t// in\n    tag_135:\n        /* \"#utility.yul\":1976:1981   */\n      dup2\n        /* \"#utility.yul\":1973:2008   */\n      eq\n        /* \"#utility.yul\":1963:2026   */\n      tag_136\n      jumpi\n        /* \"#utility.yul\":2022:2023   */\n      0x00\n        /* \"#utility.yul\":2019:2020   */\n      dup1\n        /* \"#utility.yul\":2012:2024   */\n      revert\n        /* \"#utility.yul\":1963:2026   */\n    tag_136:\n        /* \"#utility.yul\":1910:2032   */\n      pop\n      jump\t// out\n        /* \"#utility.yul\":2038:2177   */\n    tag_100:\n        /* \"#utility.yul\":2084:2089   */\n      0x00\n        /* \"#utility.yul\":2122:2128   */\n      dup2\n        /* \"#utility.yul\":2109:2129   */\n      calldataload\n        /* \"#utility.yul\":2100:2129   */\n      swap1\n      pop\n        /* \"#utility.yul\":2138:2171   */\n      tag_138\n        /* \"#utility.yul\":2165:2170   */\n      dup2\n        /* \"#utility.yul\":2138:2171   */\n      tag_99\n      jump\t// in\n    tag_138:\n        /* \"#utility.yul\":2038:2177   */\n      swap3\n      swap2\n      pop\n      pop\n      jump\t// out\n        /* \"#utility.yul\":2183:2260   */\n    tag_101:\n        /* \"#utility.yul\":2220:2227   */\n      0x00\n        /* \"#utility.yul\":2249:2254   */\n      dup2\n        /* \"#utility.yul\":2238:2254   */\n      swap1\n      pop\n        /* \"#utility.yul\":2183:2260   */\n      swap2\n      swap1\n      pop\n      jump\t// out\n        /* \"#utility.yul\":2266:2388   */\n    tag_102:\n        /* \"#utility.yul\":2339:2363   */\n      tag_141\n        /* \"#utility.yul\":2357:2362   */\n      dup2\n        /* \"#utility.yul\":2339:2363   */\n      tag_101\n      jump\t// in\n    tag_141:\n        /* \"#utility.yul\":2332:2337   */\n      dup2\n        /* \"#utility.yul\":2329:2364   */\n      eq\n        /* \"#utility.yul\":2319:2382   */\n      tag_142\n      jumpi\n        /* \"#utility.yul\":2378:2379   */\n      0x00\n        /* \"#utility.yul\":2375:2376   */\n      dup1\n        /* \"#utility.yul\":2368:2380   */\n      revert\n        /* \"#utility.yul\":2319:2382   */\n    tag_142:\n        /* \"#utility.yul\":2266:2388   */\n      pop\n      jump\t// out\n        /* \"#utility.yul\":2394:2533   */\n    tag_103:\n        /* \"#utility.yul\":2440:2445   */\n      0x00\n        /* \"#utility.yul\":2478:2484   */\n      dup2\n        /* \"#utility.yul\":2465:2485   */\n      calldataload\n        /* \"#utility.yul\":2456:2485   */\n      swap1\n      pop\n        /* \"#utility.yul\":2494:2527   */\n      tag_144\n        /* \"#utility.yul\":2521:2526   */\n      dup2\n        /* \"#utility.yul\":2494:2527   */\n      tag_102\n      jump\t// in\n    tag_144:\n        /* \"#utility.yul\":2394:2533   */\n      swap3\n      swap2\n      pop\n      pop\n      jump\t// out\n        /* \"#utility.yul\":2539:3013   */\n    tag_21:\n        /* \"#utility.yul\":2607:2613   */\n      0x00\n        /* \"#utility.yul\":2615:2621   */\n      dup1\n        /* \"#utility.yul\":2664:2666   */\n      0x40\n        /* \"#utility.yul\":2652:2661   */\n      dup4\n        /* \"#utility.yul\":2643:2650   */\n      dup6\n        /* \"#utility.yul\":2639:2662   */\n      sub\n        /* \"#utility.yul\":2635:2667   */\n      slt\n        /* \"#utility.yul\":2632:2751   */\n      iszero\n      tag_146\n      jumpi\n        /* \"#utility.yul\":2670:2749   */\n      tag_147\n      tag_95\n      jump\t// in\n    tag_147:\n        /* \"#utility.yul\":2632:2751   */\n    tag_146:\n        /* \"#utility.yul\":2790:2791   */\n      0x00\n        /* \"#utility.yul\":2815:2868   */\n      tag_148\n        /* \"#utility.yul\":2860:2867   */\n      dup6\n        /* \"#utility.yul\":2851:2857   */\n      dup3\n        /* \"#utility.yul\":2840:2849   */\n      dup7\n        /* \"#utility.yul\":2836:2858   */\n      add\n        /* \"#utility.yul\":2815:2868   */\n      tag_100\n      jump\t// in\n    tag_148:\n        /* \"#utility.yul\":2805:2868   */\n      swap3\n      pop\n        /* \"#utility.yul\":2761:2878   */\n      pop\n        /* \"#utility.yul\":2917:2919   */\n      0x20\n        /* \"#utility.yul\":2943:2996   */\n      tag_149\n        /* \"#utility.yul\":2988:2995   */\n      dup6\n        /* \"#utility.yul\":2979:2985   */\n      dup3\n        /* \"#utility.yul\":2968:2977   */\n      dup7\n        /* \"#utility.yul\":2964:2986   */\n      add\n        /* \"#utility.yul\":2943:2996   */\n      tag_103\n      jump\t// in\n    tag_149:\n        /* \"#utility.yul\":2933:2996   */\n      swap2\n      pop\n        /* \"#utility.yul\":2888:3006   */\n      pop\n        /* \"#utility.yul\":2539:3013   */\n      swap3\n      pop\n      swap3\n      swap1\n      pop\n      jump\t// out\n        /* \"#utility.yul\":3019:3109   */\n    tag_104:\n        /* \"#utility.yul\":3053:3060   */\n      0x00\n        /* \"#utility.yul\":3096:3101   */\n      dup2\n        /* \"#utility.yul\":3089:3102   */\n      iszero\n        /* \"#utility.yul\":3082:3103   */\n      iszero\n        /* \"#utility.yul\":3071:3103   */\n      swap1\n      pop\n        /* \"#utility.yul\":3019:3109   */\n      swap2\n      swap1\n      pop\n      jump\t// out\n        /* \"#utility.yul\":3115:3224   */\n    tag_105:\n        /* \"#utility.yul\":3196:3217   */\n      tag_152\n        /* \"#utility.yul\":3211:3216   */\n      dup2\n        /* \"#utility.yul\":3196:3217   */\n      tag_104\n      jump\t// in\n    tag_152:\n        /* \"#utility.yul\":3191:3194   */\n      dup3\n        /* \"#utility.yul\":3184:3218   */\n      mstore\n        /* \"#utility.yul\":3115:3224   */\n      pop\n      pop\n      jump\t// out\n        /* \"#utility.yul\":3230:3440   */\n    tag_24:\n        /* \"#utility.yul\":3317:3321   */\n      0x00\n        /* \"#utility.yul\":3355:3357   */\n      0x20\n        /* \"#utility.yul\":3344:3353   */\n      dup3\n        /* \"#utility.yul\":3340:3358   */\n      add\n        /* \"#utility.yul\":3332:3358   */\n      swap1\n      pop\n        /* \"#utility.yul\":3368:3433   */\n      tag_154\n        /* \"#utility.yul\":3430:3431   */\n      0x00\n        /* \"#utility.yul\":3419:3428   */\n      dup4\n        /* \"#utility.yul\":3415:3432   */\n      add\n        /* \"#utility.yul\":3406:3412   */\n      dup5\n        /* \"#utility.yul\":3368:3433   */\n      tag_105\n      jump\t// in\n    tag_154:\n        /* \"#utility.yul\":3230:3440   */\n      swap3\n      swap2\n      pop\n      pop\n      jump\t// out\n        /* \"#utility.yul\":3446:3564   */\n    tag_106:\n        /* \"#utility.yul\":3533:3557   */\n      tag_156\n        /* \"#utility.yul\":3551:3556   */\n      dup2\n        /* \"#utility.yul\":3533:3557   */\n      tag_98\n      jump\t// in\n    tag_156:\n        /* \"#utility.yul\":3528:3531   */\n      dup3\n        /* \"#utility.yul\":3521:3558   */\n      mstore\n        /* \"#utility.yul\":3446:3564   */\n      pop\n      pop\n      jump\t// out\n        /* \"#utility.yul\":3570:3792   */\n    tag_28:\n        /* \"#utility.yul\":3663:3667   */\n      0x00\n        /* \"#utility.yul\":3701:3703   */\n      0x20\n        /* \"#utility.yul\":3690:3699   */\n      dup3\n        /* \"#utility.yul\":3686:3704   */\n      add\n        /* \"#utility.yul\":3678:3704   */\n      swap1\n      pop\n        /* \"#utility.yul\":3714:3785   */\n      tag_158\n        /* \"#utility.yul\":3782:3783   */\n      0x00\n        /* \"#utility.yul\":3771:3780   */\n      dup4\n        /* \"#utility.yul\":3767:3784   */\n      add\n        /* \"#utility.yul\":3758:3764   */\n      dup5\n        /* \"#utility.yul\":3714:3785   */\n      tag_106\n      jump\t// in\n    tag_158:\n        /* \"#utility.yul\":3570:3792   */\n      swap3\n      swap2\n      pop\n      pop\n      jump\t// out\n        /* \"#utility.yul\":3798:3916   */\n    tag_107:\n        /* \"#utility.yul\":3885:3909   */\n      tag_160\n        /* \"#utility.yul\":3903:3908   */\n      dup2\n        /* \"#utility.yul\":3885:3909   */\n      tag_101\n      jump\t// in\n    tag_160:\n        /* \"#utility.yul\":3880:3883   */\n      dup3\n        /* \"#utility.yul\":3873:3910   */\n      mstore\n        /* \"#utility.yul\":3798:3916   */\n      pop\n      pop\n      jump\t// out\n        /* \"#utility.yul\":3922:4144   */\n    tag_32:\n        /* \"#utility.yul\":4015:4019   */\n      0x00\n        /* \"#utility.yul\":4053:4055   */\n      0x20\n        /* \"#utility.yul\":4042:4051   */\n      dup3\n        /* \"#utility.yul\":4038:4056   */\n      add\n        /* \"#utility.yul\":4030:4056   */\n      swap1\n      pop\n        /* \"#utility.yul\":4066:4137   */\n      tag_162\n        /* \"#utility.yul\":4134:4135   */\n      0x00\n        /* \"#utility.yul\":4123:4132   */\n      dup4\n        /* \"#utility.yul\":4119:4136   */\n      add\n        /* \"#utility.yul\":4110:4116   */\n      dup5\n        /* \"#utility.yul\":4066:4137   */\n      tag_107\n      jump\t// in\n    tag_162:\n        /* \"#utility.yul\":3922:4144   */\n      swap3\n      swap2\n      pop\n      pop\n      jump\t// out\n        /* \"#utility.yul\":4150:4769   */\n    tag_35:\n        /* \"#utility.yul\":4227:4233   */\n      0x00\n        /* \"#utility.yul\":4235:4241   */\n      dup1\n        /* \"#utility.yul\":4243:4249   */\n      0x00\n        /* \"#utility.yul\":4292:4294   */\n      0x60\n        /* \"#utility.yul\":4280:4289   */\n      dup5\n        /* \"#utility.yul\":4271:4278   */\n      dup7\n        /* \"#utility.yul\":4267:4290   */\n      sub\n        /* \"#utility.yul\":4263:4295   */\n      slt\n        /* \"#utility.yul\":4260:4379   */\n      iszero\n      tag_164\n      jumpi\n        /* \"#utility.yul\":4298:4377   */\n      tag_165\n      tag_95\n      jump\t// in\n    tag_165:\n        /* \"#utility.yul\":4260:4379   */\n    tag_164:\n        /* \"#utility.yul\":4418:4419   */\n      0x00\n        /* \"#utility.yul\":4443:4496   */\n      tag_166\n        /* \"#utility.yul\":4488:4495   */\n      dup7\n        /* \"#utility.yul\":4479:4485   */\n      dup3\n        /* \"#utility.yul\":4468:4477   */\n      dup8\n        /* \"#utility.yul\":4464:4486   */\n      add\n        /* \"#utility.yul\":4443:4496   */\n      tag_100\n      jump\t// in\n    tag_166:\n        /* \"#utility.yul\":4433:4496   */\n      swap4\n      pop\n        /* \"#utility.yul\":4389:4506   */\n      pop\n        /* \"#utility.yul\":4545:4547   */\n      0x20\n        /* \"#utility.yul\":4571:4624   */\n      tag_167\n        /* \"#utility.yul\":4616:4623   */\n      dup7\n        /* \"#utility.yul\":4607:4613   */\n      dup3\n        /* \"#utility.yul\":4596:4605   */\n      dup8\n        /* \"#utility.yul\":4592:4614   */\n      add\n        /* \"#utility.yul\":4571:4624   */\n      tag_100\n      jump\t// in\n    tag_167:\n        /* \"#utility.yul\":4561:4624   */\n      swap3\n      pop\n        /* \"#utility.yul\":4516:4634   */\n      pop\n        /* \"#utility.yul\":4673:4675   */\n      0x40\n        /* \"#utility.yul\":4699:4752   */\n      tag_168\n        /* \"#utility.yul\":4744:4751   */\n      dup7\n        /* \"#utility.yul\":4735:4741   */\n      dup3\n        /* \"#utility.yul\":4724:4733   */\n      dup8\n        /* \"#utility.yul\":4720:4742   */\n      add\n        /* \"#utility.yul\":4699:4752   */\n      tag_103\n      jump\t// in\n    tag_168:\n        /* \"#utility.yul\":4689:4752   */\n      swap2\n      pop\n        /* \"#utility.yul\":4644:4762   */\n      pop\n        /* \"#utility.yul\":4150:4769   */\n      swap3\n      pop\n      swap3\n      pop\n      swap3\n      jump\t// out\n        /* \"#utility.yul\":4775:4861   */\n    tag_108:\n        /* \"#utility.yul\":4810:4817   */\n      0x00\n        /* \"#utility.yul\":4850:4854   */\n      0xff\n        /* \"#utility.yul\":4843:4848   */\n      dup3\n        /* \"#utility.yul\":4839:4855   */\n      and\n        /* \"#utility.yul\":4828:4855   */\n      swap1\n      pop\n        /* \"#utility.yul\":4775:4861   */\n      swap2\n      swap1\n      pop\n      jump\t// out\n        /* \"#utility.yul\":4867:4979   */\n    tag_109:\n        /* \"#utility.yul\":4950:4972   */\n      tag_171\n        /* \"#utility.yul\":4966:4971   */\n      dup2\n        /* \"#utility.yul\":4950:4972   */\n      tag_108\n      jump\t// in\n    tag_171:\n        /* \"#utility.yul\":4945:4948   */\n      dup3\n        /* \"#utility.yul\":4938:4973   */\n      mstore\n        /* \"#utility.yul\":4867:4979   */\n      pop\n      pop\n      jump\t// out\n        /* \"#utility.yul\":4985:5199   */\n    tag_41:\n        /* \"#utility.yul\":5074:5078   */\n      0x00\n        /* \"#utility.yul\":5112:5114   */\n      0x20\n        /* \"#utility.yul\":5101:5110   */\n      dup3\n        /* \"#utility.yul\":5097:5115   */\n      add\n        /* \"#utility.yul\":5089:5115   */\n      swap1\n      pop\n        /* \"#utility.yul\":5125:5192   */\n      tag_173\n        /* \"#utility.yul\":5189:5190   */\n      0x00\n        /* \"#utility.yul\":5178:5187   */\n      dup4\n        /* \"#utility.yul\":5174:5191   */\n      add\n        /* \"#utility.yul\":5165:5171   */\n      dup5\n        /* \"#utility.yul\":5125:5192   */\n      tag_109\n      jump\t// in\n    tag_173:\n        /* \"#utility.yul\":4985:5199   */\n      swap3\n      swap2\n      pop\n      pop\n      jump\t// out\n        /* \"#utility.yul\":5205:5534   */\n    tag_44:\n        /* \"#utility.yul\":5264:5270   */\n      0x00\n        /* \"#utility.yul\":5313:5315   */\n      0x20\n        /* \"#utility.yul\":5301:5310   */\n      dup3\n        /* \"#utility.yul\":5292:5299   */\n      dup5\n        /* \"#utility.yul\":5288:5311   */\n      sub\n        /* \"#utility.yul\":5284:5316   */\n      slt\n        /* \"#utility.yul\":5281:5400   */\n      iszero\n      tag_175\n      jumpi\n        /* \"#utility.yul\":5319:5398   */\n      tag_176\n      tag_95\n      jump\t// in\n    tag_176:\n        /* \"#utility.yul\":5281:5400   */\n    tag_175:\n        /* \"#utility.yul\":5439:5440   */\n      0x00\n        /* \"#utility.yul\":5464:5517   */\n      tag_177\n        /* \"#utility.yul\":5509:5516   */\n      dup5\n        /* \"#utility.yul\":5500:5506   */\n      dup3\n        /* \"#utility.yul\":5489:5498   */\n      dup6\n        /* \"#utility.yul\":5485:5507   */\n      add\n        /* \"#utility.yul\":5464:5517   */\n      tag_100\n      jump\t// in\n    tag_177:\n        /* \"#utility.yul\":5454:5517   */\n      swap2\n      pop\n        /* \"#utility.yul\":5410:5527   */\n      pop\n        /* \"#utility.yul\":5205:5534   */\n      swap3\n      swap2\n      pop\n      pop\n      jump\t// out\n        /* \"#utility.yul\":5540:5869   */\n    tag_52:\n        /* \"#utility.yul\":5599:5605   */\n      0x00\n        /* \"#utility.yul\":5648:5650   */\n      0x20\n        /* \"#utility.yul\":5636:5645   */\n      dup3\n        /* \"#utility.yul\":5627:5634   */\n      dup5\n        /* \"#utility.yul\":5623:5646   */\n      sub\n        /* \"#utility.yul\":5619:5651   */\n      slt\n        /* \"#utility.yul\":5616:5735   */\n      iszero\n      tag_179\n      jumpi\n        /* \"#utility.yul\":5654:5733   */\n      tag_180\n      tag_95\n      jump\t// in\n    tag_180:\n        /* \"#utility.yul\":5616:5735   */\n    tag_179:\n        /* \"#utility.yul\":5774:5775   */\n      0x00\n        /* \"#utility.yul\":5799:5852   */\n      tag_181\n        /* \"#utility.yul\":5844:5851   */\n      dup5\n        /* \"#utility.yul\":5835:5841   */\n      dup3\n        /* \"#utility.yul\":5824:5833   */\n      dup6\n        /* \"#utility.yul\":5820:5842   */\n      add\n        /* \"#utility.yul\":5799:5852   */\n      tag_103\n      jump\t// in\n    tag_181:\n        /* \"#utility.yul\":5789:5852   */\n      swap2\n      pop\n        /* \"#utility.yul\":5745:5862   */\n      pop\n        /* \"#utility.yul\":5540:5869   */\n      swap3\n      swap2\n      pop\n      pop\n      jump\t// out\n        /* \"#utility.yul\":5875:6349   */\n    tag_61:\n        /* \"#utility.yul\":5943:5949   */\n      0x00\n        /* \"#utility.yul\":5951:5957   */\n      dup1\n        /* \"#utility.yul\":6000:6002   */\n      0x40\n        /* \"#utility.yul\":5988:5997   */\n      dup4\n        /* \"#utility.yul\":5979:5986   */\n      dup6\n        /* \"#utility.yul\":5975:5998   */\n      sub\n        /* \"#utility.yul\":5971:6003   */\n      slt\n        /* \"#utility.yul\":5968:6087   */\n      iszero\n      tag_183\n      jumpi\n        /* \"#utility.yul\":6006:6085   */\n      tag_184\n      tag_95\n      jump\t// in\n    tag_184:\n        /* \"#utility.yul\":5968:6087   */\n    tag_183:\n        /* \"#utility.yul\":6126:6127   */\n      0x00\n        /* \"#utility.yul\":6151:6204   */\n      tag_185\n        /* \"#utility.yul\":6196:6203   */\n      dup6\n        /* \"#utility.yul\":6187:6193   */\n      dup3\n        /* \"#utility.yul\":6176:6185   */\n      dup7\n        /* \"#utility.yul\":6172:6194   */\n      add\n        /* \"#utility.yul\":6151:6204   */\n      tag_100\n      jump\t// in\n    tag_185:\n        /* \"#utility.yul\":6141:6204   */\n      swap3\n      pop\n        /* \"#utility.yul\":6097:6214   */\n      pop\n        /* \"#utility.yul\":6253:6255   */\n      0x20\n        /* \"#utility.yul\":6279:6332   */\n      tag_186\n        /* \"#utility.yul\":6324:6331   */\n      dup6\n        /* \"#utility.yul\":6315:6321   */\n      dup3\n        /* \"#utility.yul\":6304:6313   */\n      dup7\n        /* \"#utility.yul\":6300:6322   */\n      add\n        /* \"#utility.yul\":6279:6332   */\n      tag_100\n      jump\t// in\n    tag_186:\n        /* \"#utility.yul\":6269:6332   */\n      swap2\n      pop\n        /* \"#utility.yul\":6224:6342   */\n      pop\n        /* \"#utility.yul\":5875:6349   */\n      swap3\n      pop\n      swap3\n      swap1\n      pop\n      jump\t// out\n        /* \"#utility.yul\":6355:6535   */\n    tag_110:\n        /* \"#utility.yul\":6403:6480   */\n      0x4e487b7100000000000000000000000000000000000000000000000000000000\n        /* \"#utility.yul\":6400:6401   */\n      0x00\n        /* \"#utility.yul\":6393:6481   */\n      mstore\n        /* \"#utility.yul\":6500:6504   */\n      0x11\n        /* \"#utility.yul\":6497:6498   */\n      0x04\n        /* \"#utility.yul\":6490:6505   */\n      mstore\n        /* \"#utility.yul\":6524:6528   */\n      0x24\n        /* \"#utility.yul\":6521:6522   */\n      0x00\n        /* \"#utility.yul\":6514:6529   */\n      revert\n        /* \"#utility.yul\":6541:6735   */\n    tag_72:\n        /* \"#utility.yul\":6581:6585   */\n      0x00\n        /* \"#utility.yul\":6601:6621   */\n      tag_189\n        /* \"#utility.yul\":6619:6620   */\n      dup3\n        /* \"#utility.yul\":6601:6621   */\n      tag_101\n      jump\t// in\n    tag_189:\n        /* \"#utility.yul\":6596:6621   */\n      swap2\n      pop\n        /* \"#utility.yul\":6635:6655   */\n      tag_190\n        /* \"#utility.yul\":6653:6654   */\n      dup4\n        /* \"#utility.yul\":6635:6655   */\n      tag_101\n      jump\t// in\n    tag_190:\n        /* \"#utility.yul\":6630:6655   */\n      swap3\n      pop\n        /* \"#utility.yul\":6679:6680   */\n      dup3\n        /* \"#utility.yul\":6676:6677   */\n      dup3\n        /* \"#utility.yul\":6672:6681   */\n      sub\n        /* \"#utility.yul\":6664:6681   */\n      swap1\n      pop\n        /* \"#utility.yul\":6703:6704   */\n      dup2\n        /* \"#utility.yul\":6697:6701   */\n      dup2\n        /* \"#utility.yul\":6694:6705   */\n      gt\n        /* \"#utility.yul\":6691:6728   */\n      iszero\n      tag_191\n      jumpi\n        /* \"#utility.yul\":6708:6726   */\n      tag_192\n      tag_110\n      jump\t// in\n    tag_192:\n        /* \"#utility.yul\":6691:6728   */\n    tag_191:\n        /* \"#utility.yul\":6541:6735   */\n      swap3\n      swap2\n      pop\n      pop\n      jump\t// out\n        /* \"#utility.yul\":6741:6932   */\n    tag_75:\n        /* \"#utility.yul\":6781:6784   */\n      0x00\n        /* \"#utility.yul\":6800:6820   */\n      tag_194\n        /* \"#utility.yul\":6818:6819   */\n      dup3\n        /* \"#utility.yul\":6800:6820   */\n      tag_101\n      jump\t// in\n    tag_194:\n        /* \"#utility.yul\":6795:6820   */\n      swap2\n      pop\n        /* \"#utility.yul\":6834:6854   */\n      tag_195\n        /* \"#utility.yul\":6852:6853   */\n      dup4\n        /* \"#utility.yul\":6834:6854   */\n      tag_101\n      jump\t// in\n    tag_195:\n        /* \"#utility.yul\":6829:6854   */\n      swap3\n      pop\n        /* \"#utility.yul\":6877:6878   */\n      dup3\n        /* \"#utility.yul\":6874:6875   */\n      dup3\n        /* \"#utility.yul\":6870:6879   */\n      add\n        /* \"#utility.yul\":6863:6879   */\n      swap1\n      pop\n        /* \"#utility.yul\":6898:6901   */\n      dup1\n        /* \"#utility.yul\":6895:6896   */\n      dup3\n        /* \"#utility.yul\":6892:6902   */\n      gt\n        /* \"#utility.yul\":6889:6925   */\n      iszero\n      tag_196\n      jumpi\n        /* \"#utility.yul\":6905:6923   */\n      tag_197\n      tag_110\n      jump\t// in\n    tag_197:\n        /* \"#utility.yul\":6889:6925   */\n    tag_196:\n        /* \"#utility.yul\":6741:6932   */\n      swap3\n      swap2\n      pop\n      pop\n      jump\t// out\n        /* \"#utility.yul\":6938:7106   */\n    tag_111:\n        /* \"#utility.yul\":7078:7098   */\n      0x62616c616e6365206e6f7420656e6f7567680000000000000000000000000000\n        /* \"#utility.yul\":7074:7075   */\n      0x00\n        /* \"#utility.yul\":7066:7072   */\n      dup3\n        /* \"#utility.yul\":7062:7076   */\n      add\n        /* \"#utility.yul\":7055:7099   */\n      mstore\n        /* \"#utility.yul\":6938:7106   */\n      pop\n      jump\t// out\n        /* \"#utility.yul\":7112:7478   */\n    tag_112:\n        /* \"#utility.yul\":7254:7257   */\n      0x00\n        /* \"#utility.yul\":7275:7342   */\n      tag_200\n        /* \"#utility.yul\":7339:7341   */\n      0x12\n        /* \"#utility.yul\":7334:7337   */\n      dup4\n        /* \"#utility.yul\":7275:7342   */\n      tag_90\n      jump\t// in\n    tag_200:\n        /* \"#utility.yul\":7268:7342   */\n      swap2\n      pop\n        /* \"#utility.yul\":7351:7444   */\n      tag_201\n        /* \"#utility.yul\":7440:7443   */\n      dup3\n        /* \"#utility.yul\":7351:7444   */\n      tag_111\n      jump\t// in\n    tag_201:\n        /* \"#utility.yul\":7469:7471   */\n      0x20\n        /* \"#utility.yul\":7464:7467   */\n      dup3\n        /* \"#utility.yul\":7460:7472   */\n      add\n        /* \"#utility.yul\":7453:7472   */\n      swap1\n      pop\n        /* \"#utility.yul\":7112:7478   */\n      swap2\n      swap1\n      pop\n      jump\t// out\n        /* \"#utility.yul\":7484:7903   */\n    tag_84:\n        /* \"#utility.yul\":7650:7654   */\n      0x00\n        /* \"#utility.yul\":7688:7690   */\n      0x20\n        /* \"#utility.yul\":7677:7686   */\n      dup3\n        /* \"#utility.yul\":7673:7691   */\n      add\n        /* \"#utility.yul\":7665:7691   */\n      swap1\n      pop\n        /* \"#utility.yul\":7737:7746   */\n      dup2\n        /* \"#utility.yul\":7731:7735   */\n      dup2\n        /* \"#utility.yul\":7727:7747   */\n      sub\n        /* \"#utility.yul\":7723:7724   */\n      0x00\n        /* \"#utility.yul\":7712:7721   */\n      dup4\n        /* \"#utility.yul\":7708:7725   */\n      add\n        /* \"#utility.yul\":7701:7748   */\n      mstore\n        /* \"#utility.yul\":7765:7896   */\n      tag_203\n        /* \"#utility.yul\":7891:7895   */\n      dup2\n        /* \"#utility.yul\":7765:7896   */\n      tag_112\n      jump\t// in\n    tag_203:\n        /* \"#utility.yul\":7757:7896   */\n      swap1\n      pop\n        /* \"#utility.yul\":7484:7903   */\n      swap2\n      swap1\n      pop\n      jump\t// out\n\n    auxdata: 0xa2646970667358221220d22e1601d065bb93b23a831b8bdb0e795e7a0cc4e7b2c1bbdc76d962142b7f6164736f6c63430008160033\n}\n",
				"bytecode": {
					"linkReferences": {},
					"object": "6080604052678ac7230489e8000060025534801561001b575f80fd5b506002545f803373ffffffffffffffffffffffffffffffffffffffff1673ffffffffffffffffffffffffffffffffffffffff1681526020019081526020015f2081905550610ea38061006c5f395ff3fe608060405234801561000f575f80fd5b50600436106100a7575f3560e01c8063313ce5671161006f578063313ce5671461016557806370a082311461018357806395d89b41146101b3578063a0712d68146101d1578063beabacc814610201578063dd62ed3e14610231576100a7565b806306fdde03146100ab578063095ea7b3146100c957806315621373146100f957806318160ddd1461011757806323b872dd14610135575b5f80fd5b6100b3610261565b6040516100c09190610ae8565b60405180910390f35b6100e360048036038101906100de9190610b99565b61029a565b6040516100f09190610bf1565b60405180910390f35b610101610387565b60405161010e9190610c19565b60405180910390f35b61011f61038e565b60405161012c9190610c41565b60405180910390f35b61014f600480360381019061014a9190610c5a565b610397565b60405161015c9190610bf1565b60405180910390f35b61016d6106e4565b60405161017a9190610cc5565b60405180910390f35b61019d60048036038101906101989190610cde565b6106e9565b6040516101aa9190610c41565b60405180910390f35b6101bb61072e565b6040516101c89190610ae8565b60405180910390f35b6101eb60048036038101906101e69190610d09565b610767565b6040516101f89190610c41565b60405180910390f35b61021b60048036038101906102169190610c5a565b6107dc565b6040516102289190610bf1565b60405180910390f35b61024b60048036038101906102469190610d34565b6109dc565b6040516102589190610c41565b60405180910390f35b6040518060400160405280600a81526020017f455243323042617369630000000000000000000000000000000000000000000081525081565b5f8160015f3373ffffffffffffffffffffffffffffffffffffffff1673ffffffffffffffffffffffffffffffffffffffff1681526020019081526020015f205f8573ffffffffffffffffffffffffffffffffffffffff1673ffffffffffffffffffffffffffffffffffffffff1681526020019081526020015f20819055508273ffffffffffffffffffffffffffffffffffffffff163373ffffffffffffffffffffffffffffffffffffffff167f8c5be1e5ebec7d5bd14f71427d1e84f3dd0314c0f7b2291e5b200ac8c7c3b925846040516103759190610c41565b60405180910390a36001905092915050565b5f30905090565b5f600254905090565b5f805f8573ffffffffffffffffffffffffffffffffffffffff1673ffffffffffffffffffffffffffffffffffffffff1681526020019081526020015f20548211156103e0575f80fd5b60015f8573ffffffffffffffffffffffffffffffffffffffff1673ffffffffffffffffffffffffffffffffffffffff1681526020019081526020015f205f3373ffffffffffffffffffffffffffffffffffffffff1673ffffffffffffffffffffffffffffffffffffffff1681526020019081526020015f2054821115610464575f80fd5b815f808673ffffffffffffffffffffffffffffffffffffffff1673ffffffffffffffffffffffffffffffffffffffff1681526020019081526020015f20546104ac9190610d9f565b5f808673ffffffffffffffffffffffffffffffffffffffff1673ffffffffffffffffffffffffffffffffffffffff1681526020019081526020015f20819055508160015f8673ffffffffffffffffffffffffffffffffffffffff1673ffffffffffffffffffffffffffffffffffffffff1681526020019081526020015f205f3373ffffffffffffffffffffffffffffffffffffffff1673ffffffffffffffffffffffffffffffffffffffff1681526020019081526020015f20546105709190610d9f565b60015f8673ffffffffffffffffffffffffffffffffffffffff1673ffffffffffffffffffffffffffffffffffffffff1681526020019081526020015f205f3373ffffffffffffffffffffffffffffffffffffffff1673ffffffffffffffffffffffffffffffffffffffff1681526020019081526020015f2081905550815f808573ffffffffffffffffffffffffffffffffffffffff1673ffffffffffffffffffffffffffffffffffffffff1681526020019081526020015f20546106349190610dd2565b5f808573ffffffffffffffffffffffffffffffffffffffff1673ffffffffffffffffffffffffffffffffffffffff1681526020019081526020015f20819055508273ffffffffffffffffffffffffffffffffffffffff168473ffffffffffffffffffffffffffffffffffffffff167fddf252ad1be2c89b69c2b068fc378daa952ba7f163c4a11628f55a4df523b3ef846040516106d19190610c41565b60405180910390a3600190509392505050565b601281565b5f805f8373ffffffffffffffffffffffffffffffffffffffff1673ffffffffffffffffffffffffffffffffffffffff1681526020019081526020015f20549050919050565b6040518060400160405280600381526020017f455243000000000000000000000000000000000000000000000000000000000081525081565b5f8160025f8282546107799190610dd2565b92505081905550815f803373ffffffffffffffffffffffffffffffffffffffff1673ffffffffffffffffffffffffffffffffffffffff1681526020019081526020015f205f8282546107cb9190610dd2565b925050819055506002549050919050565b5f805f8573ffffffffffffffffffffffffffffffffffffffff1673ffffffffffffffffffffffffffffffffffffffff1681526020019081526020015f205482111561085c576040517f08c379a000000000000000000000000000000000000000000000000000000000815260040161085390610e4f565b60405180910390fd5b815f808673ffffffffffffffffffffffffffffffffffffffff1673ffffffffffffffffffffffffffffffffffffffff1681526020019081526020015f20546108a49190610d9f565b5f808673ffffffffffffffffffffffffffffffffffffffff1673ffffffffffffffffffffffffffffffffffffffff1681526020019081526020015f2081905550815f808573ffffffffffffffffffffffffffffffffffffffff1673ffffffffffffffffffffffffffffffffffffffff1681526020019081526020015f205461092c9190610dd2565b5f808573ffffffffffffffffffffffffffffffffffffffff1673ffffffffffffffffffffffffffffffffffffffff1681526020019081526020015f20819055508273ffffffffffffffffffffffffffffffffffffffff168473ffffffffffffffffffffffffffffffffffffffff167fddf252ad1be2c89b69c2b068fc378daa952ba7f163c4a11628f55a4df523b3ef846040516109c99190610c41565b60405180910390a3600190509392505050565b5f60015f8473ffffffffffffffffffffffffffffffffffffffff1673ffffffffffffffffffffffffffffffffffffffff1681526020019081526020015f205f8373ffffffffffffffffffffffffffffffffffffffff1673ffffffffffffffffffffffffffffffffffffffff1681526020019081526020015f2054905092915050565b5f81519050919050565b5f82825260208201905092915050565b5f5b83811015610a95578082015181840152602081019050610a7a565b5f8484015250505050565b5f601f19601f8301169050919050565b5f610aba82610a5e565b610ac48185610a68565b9350610ad4818560208601610a78565b610add81610aa0565b840191505092915050565b5f6020820190508181035f830152610b008184610ab0565b905092915050565b5f80fd5b5f73ffffffffffffffffffffffffffffffffffffffff82169050919050565b5f610b3582610b0c565b9050919050565b610b4581610b2b565b8114610b4f575f80fd5b50565b5f81359050610b6081610b3c565b92915050565b5f819050919050565b610b7881610b66565b8114610b82575f80fd5b50565b5f81359050610b9381610b6f565b92915050565b5f8060408385031215610baf57610bae610b08565b5b5f610bbc85828601610b52565b9250506020610bcd85828601610b85565b9150509250929050565b5f8115159050919050565b610beb81610bd7565b82525050565b5f602082019050610c045f830184610be2565b92915050565b610c1381610b2b565b82525050565b5f602082019050610c2c5f830184610c0a565b92915050565b610c3b81610b66565b82525050565b5f602082019050610c545f830184610c32565b92915050565b5f805f60608486031215610c7157610c70610b08565b5b5f610c7e86828701610b52565b9350506020610c8f86828701610b52565b9250506040610ca086828701610b85565b9150509250925092565b5f60ff82169050919050565b610cbf81610caa565b82525050565b5f602082019050610cd85f830184610cb6565b92915050565b5f60208284031215610cf357610cf2610b08565b5b5f610d0084828501610b52565b91505092915050565b5f60208284031215610d1e57610d1d610b08565b5b5f610d2b84828501610b85565b91505092915050565b5f8060408385031215610d4a57610d49610b08565b5b5f610d5785828601610b52565b9250506020610d6885828601610b52565b9150509250929050565b7f4e487b71000000000000000000000000000000000000000000000000000000005f52601160045260245ffd5b5f610da982610b66565b9150610db483610b66565b9250828203905081811115610dcc57610dcb610d72565b5b92915050565b5f610ddc82610b66565b9150610de783610b66565b9250828201905080821115610dff57610dfe610d72565b5b92915050565b7f62616c616e6365206e6f7420656e6f75676800000000000000000000000000005f82015250565b5f610e39601283610a68565b9150610e4482610e05565b602082019050919050565b5f6020820190508181035f830152610e6681610e2d565b905091905056fea2646970667358221220d22e1601d065bb93b23a831b8bdb0e795e7a0cc4e7b2c1bbdc76d962142b7f6164736f6c63430008160033",
					"opcodes": "PUSH1 0x80 PUSH1 0x40 MSTORE PUSH8 0x8AC7230489E80000 PUSH1 0x2 SSTORE CALLVALUE DUP1 ISZERO PUSH2 0x1B JUMPI PUSH0 DUP1 REVERT JUMPDEST POP PUSH1 0x2 SLOAD PUSH0 DUP1 CALLER PUSH20 0xFFFFFFFFFFFFFFFFFFFFFFFFFFFFFFFFFFFFFFFF AND PUSH20 0xFFFFFFFFFFFFFFFFFFFFFFFFFFFFFFFFFFFFFFFF AND DUP2 MSTORE PUSH1 0x20 ADD SWAP1 DUP2 MSTORE PUSH1 0x20 ADD PUSH0 KECCAK256 DUP2 SWAP1 SSTORE POP PUSH2 0xEA3 DUP1 PUSH2 0x6C PUSH0 CODECOPY PUSH0 RETURN INVALID PUSH1 0x80 PUSH1 0x40 MSTORE CALLVALUE DUP1 ISZERO PUSH2 0xF JUMPI PUSH0 DUP1 REVERT JUMPDEST POP PUSH1 0x4 CALLDATASIZE LT PUSH2 0xA7 JUMPI PUSH0 CALLDATALOAD PUSH1 0xE0 SHR DUP1 PUSH4 0x313CE567 GT PUSH2 0x6F JUMPI DUP1 PUSH4 0x313CE567 EQ PUSH2 0x165 JUMPI DUP1 PUSH4 0x70A08231 EQ PUSH2 0x183 JUMPI DUP1 PUSH4 0x95D89B41 EQ PUSH2 0x1B3 JUMPI DUP1 PUSH4 0xA0712D68 EQ PUSH2 0x1D1 JUMPI DUP1 PUSH4 0xBEABACC8 EQ PUSH2 0x201 JUMPI DUP1 PUSH4 0xDD62ED3E EQ PUSH2 0x231 JUMPI PUSH2 0xA7 JUMP JUMPDEST DUP1 PUSH4 0x6FDDE03 EQ PUSH2 0xAB JUMPI DUP1 PUSH4 0x95EA7B3 EQ PUSH2 0xC9 JUMPI DUP1 PUSH4 0x15621373 EQ PUSH2 0xF9 JUMPI DUP1 PUSH4 0x18160DDD EQ PUSH2 0x117 JUMPI DUP1 PUSH4 0x23B872DD EQ PUSH2 0x135 JUMPI JUMPDEST PUSH0 DUP1 REVERT JUMPDEST PUSH2 0xB3 PUSH2 0x261 JUMP JUMPDEST PUSH1 0x40 MLOAD PUSH2 0xC0 SWAP2 SWAP1 PUSH2 0xAE8 JUMP JUMPDEST PUSH1 0x40 MLOAD DUP1 SWAP2 SUB SWAP1 RETURN JUMPDEST PUSH2 0xE3 PUSH1 0x4 DUP1 CALLDATASIZE SUB DUP2 ADD SWAP1 PUSH2 0xDE SWAP2 SWAP1 PUSH2 0xB99 JUMP JUMPDEST PUSH2 0x29A JUMP JUMPDEST PUSH1 0x40 MLOAD PUSH2 0xF0 SWAP2 SWAP1 PUSH2 0xBF1 JUMP JUMPDEST PUSH1 0x40 MLOAD DUP1 SWAP2 SUB SWAP1 RETURN JUMPDEST PUSH2 0x101 PUSH2 0x387 JUMP JUMPDEST PUSH1 0x40 MLOAD PUSH2 0x10E SWAP2 SWAP1 PUSH2 0xC19 JUMP JUMPDEST PUSH1 0x40 MLOAD DUP1 SWAP2 SUB SWAP1 RETURN JUMPDEST PUSH2 0x11F PUSH2 0x38E JUMP JUMPDEST PUSH1 0x40 MLOAD PUSH2 0x12C SWAP2 SWAP1 PUSH2 0xC41 JUMP JUMPDEST PUSH1 0x40 MLOAD DUP1 SWAP2 SUB SWAP1 RETURN JUMPDEST PUSH2 0x14F PUSH1 0x4 DUP1 CALLDATASIZE SUB DUP2 ADD SWAP1 PUSH2 0x14A SWAP2 SWAP1 PUSH2 0xC5A JUMP JUMPDEST PUSH2 0x397 JUMP JUMPDEST PUSH1 0x40 MLOAD PUSH2 0x15C SWAP2 SWAP1 PUSH2 0xBF1 JUMP JUMPDEST PUSH1 0x40 MLOAD DUP1 SWAP2 SUB SWAP1 RETURN JUMPDEST PUSH2 0x16D PUSH2 0x6E4 JUMP JUMPDEST PUSH1 0x40 MLOAD PUSH2 0x17A SWAP2 SWAP1 PUSH2 0xCC5 JUMP JUMPDEST PUSH1 0x40 MLOAD DUP1 SWAP2 SUB SWAP1 RETURN JUMPDEST PUSH2 0x19D PUSH1 0x4 DUP1 CALLDATASIZE SUB DUP2 ADD SWAP1 PUSH2 0x198 SWAP2 SWAP1 PUSH2 0xCDE JUMP JUMPDEST PUSH2 0x6E9 JUMP JUMPDEST PUSH1 0x40 MLOAD PUSH2 0x1AA SWAP2 SWAP1 PUSH2 0xC41 JUMP JUMPDEST PUSH1 0x40 MLOAD DUP1 SWAP2 SUB SWAP1 RETURN JUMPDEST PUSH2 0x1BB PUSH2 0x72E JUMP JUMPDEST PUSH1 0x40 MLOAD PUSH2 0x1C8 SWAP2 SWAP1 PUSH2 0xAE8 JUMP JUMPDEST PUSH1 0x40 MLOAD DUP1 SWAP2 SUB SWAP1 RETURN JUMPDEST PUSH2 0x1EB PUSH1 0x4 DUP1 CALLDATASIZE SUB DUP2 ADD SWAP1 PUSH2 0x1E6 SWAP2 SWAP1 PUSH2 0xD09 JUMP JUMPDEST PUSH2 0x767 JUMP JUMPDEST PUSH1 0x40 MLOAD PUSH2 0x1F8 SWAP2 SWAP1 PUSH2 0xC41 JUMP JUMPDEST PUSH1 0x40 MLOAD DUP1 SWAP2 SUB SWAP1 RETURN JUMPDEST PUSH2 0x21B PUSH1 0x4 DUP1 CALLDATASIZE SUB DUP2 ADD SWAP1 PUSH2 0x216 SWAP2 SWAP1 PUSH2 0xC5A JUMP JUMPDEST PUSH2 0x7DC JUMP JUMPDEST PUSH1 0x40 MLOAD PUSH2 0x228 SWAP2 SWAP1 PUSH2 0xBF1 JUMP JUMPDEST PUSH1 0x40 MLOAD DUP1 SWAP2 SUB SWAP1 RETURN JUMPDEST PUSH2 0x24B PUSH1 0x4 DUP1 CALLDATASIZE SUB DUP2 ADD SWAP1 PUSH2 0x246 SWAP2 SWAP1 PUSH2 0xD34 JUMP JUMPDEST PUSH2 0x9DC JUMP JUMPDEST PUSH1 0x40 MLOAD PUSH2 0x258 SWAP2 SWAP1 PUSH2 0xC41 JUMP JUMPDEST PUSH1 0x40 MLOAD DUP1 SWAP2 SUB SWAP1 RETURN JUMPDEST PUSH1 0x40 MLOAD DUP1 PUSH1 0x40 ADD PUSH1 0x40 MSTORE DUP1 PUSH1 0xA DUP2 MSTORE PUSH1 0x20 ADD PUSH32 0x4552433230426173696300000000000000000000000000000000000000000000 DUP2 MSTORE POP DUP2 JUMP JUMPDEST PUSH0 DUP2 PUSH1 0x1 PUSH0 CALLER PUSH20 0xFFFFFFFFFFFFFFFFFFFFFFFFFFFFFFFFFFFFFFFF AND PUSH20 0xFFFFFFFFFFFFFFFFFFFFFFFFFFFFFFFFFFFFFFFF AND DUP2 MSTORE PUSH1 0x20 ADD SWAP1 DUP2 MSTORE PUSH1 0x20 ADD PUSH0 KECCAK256 PUSH0 DUP6 PUSH20 0xFFFFFFFFFFFFFFFFFFFFFFFFFFFFFFFFFFFFFFFF AND PUSH20 0xFFFFFFFFFFFFFFFFFFFFFFFFFFFFFFFFFFFFFFFF AND DUP2 MSTORE PUSH1 0x20 ADD SWAP1 DUP2 MSTORE PUSH1 0x20 ADD PUSH0 KECCAK256 DUP2 SWAP1 SSTORE POP DUP3 PUSH20 0xFFFFFFFFFFFFFFFFFFFFFFFFFFFFFFFFFFFFFFFF AND CALLER PUSH20 0xFFFFFFFFFFFFFFFFFFFFFFFFFFFFFFFFFFFFFFFF AND PUSH32 0x8C5BE1E5EBEC7D5BD14F71427D1E84F3DD0314C0F7B2291E5B200AC8C7C3B925 DUP5 PUSH1 0x40 MLOAD PUSH2 0x375 SWAP2 SWAP1 PUSH2 0xC41 JUMP JUMPDEST PUSH1 0x40 MLOAD DUP1 SWAP2 SUB SWAP1 LOG3 PUSH1 0x1 SWAP1 POP SWAP3 SWAP2 POP POP JUMP JUMPDEST PUSH0 ADDRESS SWAP1 POP SWAP1 JUMP JUMPDEST PUSH0 PUSH1 0x2 SLOAD SWAP1 POP SWAP1 JUMP JUMPDEST PUSH0 DUP1 PUSH0 DUP6 PUSH20 0xFFFFFFFFFFFFFFFFFFFFFFFFFFFFFFFFFFFFFFFF AND PUSH20 0xFFFFFFFFFFFFFFFFFFFFFFFFFFFFFFFFFFFFFFFF AND DUP2 MSTORE PUSH1 0x20 ADD SWAP1 DUP2 MSTORE PUSH1 0x20 ADD PUSH0 KECCAK256 SLOAD DUP3 GT ISZERO PUSH2 0x3E0 JUMPI PUSH0 DUP1 REVERT JUMPDEST PUSH1 0x1 PUSH0 DUP6 PUSH20 0xFFFFFFFFFFFFFFFFFFFFFFFFFFFFFFFFFFFFFFFF AND PUSH20 0xFFFFFFFFFFFFFFFFFFFFFFFFFFFFFFFFFFFFFFFF AND DUP2 MSTORE PUSH1 0x20 ADD SWAP1 DUP2 MSTORE PUSH1 0x20 ADD PUSH0 KECCAK256 PUSH0 CALLER PUSH20 0xFFFFFFFFFFFFFFFFFFFFFFFFFFFFFFFFFFFFFFFF AND PUSH20 0xFFFFFFFFFFFFFFFFFFFFFFFFFFFFFFFFFFFFFFFF AND DUP2 MSTORE PUSH1 0x20 ADD SWAP1 DUP2 MSTORE PUSH1 0x20 ADD PUSH0 KECCAK256 SLOAD DUP3 GT ISZERO PUSH2 0x464 JUMPI PUSH0 DUP1 REVERT JUMPDEST DUP2 PUSH0 DUP1 DUP7 PUSH20 0xFFFFFFFFFFFFFFFFFFFFFFFFFFFFFFFFFFFFFFFF AND PUSH20 0xFFFFFFFFFFFFFFFFFFFFFFFFFFFFFFFFFFFFFFFF AND DUP2 MSTORE PUSH1 0x20 ADD SWAP1 DUP2 MSTORE PUSH1 0x20 ADD PUSH0 KECCAK256 SLOAD PUSH2 0x4AC SWAP2 SWAP1 PUSH2 0xD9F JUMP JUMPDEST PUSH0 DUP1 DUP7 PUSH20 0xFFFFFFFFFFFFFFFFFFFFFFFFFFFFFFFFFFFFFFFF AND PUSH20 0xFFFFFFFFFFFFFFFFFFFFFFFFFFFFFFFFFFFFFFFF AND DUP2 MSTORE PUSH1 0x20 ADD SWAP1 DUP2 MSTORE PUSH1 0x20 ADD PUSH0 KECCAK256 DUP2 SWAP1 SSTORE POP DUP2 PUSH1 0x1 PUSH0 DUP7 PUSH20 0xFFFFFFFFFFFFFFFFFFFFFFFFFFFFFFFFFFFFFFFF AND PUSH20 0xFFFFFFFFFFFFFFFFFFFFFFFFFFFFFFFFFFFFFFFF AND DUP2 MSTORE PUSH1 0x20 ADD SWAP1 DUP2 MSTORE PUSH1 0x20 ADD PUSH0 KECCAK256 PUSH0 CALLER PUSH20 0xFFFFFFFFFFFFFFFFFFFFFFFFFFFFFFFFFFFFFFFF AND PUSH20 0xFFFFFFFFFFFFFFFFFFFFFFFFFFFFFFFFFFFFFFFF AND DUP2 MSTORE PUSH1 0x20 ADD SWAP1 DUP2 MSTORE PUSH1 0x20 ADD PUSH0 KECCAK256 SLOAD PUSH2 0x570 SWAP2 SWAP1 PUSH2 0xD9F JUMP JUMPDEST PUSH1 0x1 PUSH0 DUP7 PUSH20 0xFFFFFFFFFFFFFFFFFFFFFFFFFFFFFFFFFFFFFFFF AND PUSH20 0xFFFFFFFFFFFFFFFFFFFFFFFFFFFFFFFFFFFFFFFF AND DUP2 MSTORE PUSH1 0x20 ADD SWAP1 DUP2 MSTORE PUSH1 0x20 ADD PUSH0 KECCAK256 PUSH0 CALLER PUSH20 0xFFFFFFFFFFFFFFFFFFFFFFFFFFFFFFFFFFFFFFFF AND PUSH20 0xFFFFFFFFFFFFFFFFFFFFFFFFFFFFFFFFFFFFFFFF AND DUP2 MSTORE PUSH1 0x20 ADD SWAP1 DUP2 MSTORE PUSH1 0x20 ADD PUSH0 KECCAK256 DUP2 SWAP1 SSTORE POP DUP2 PUSH0 DUP1 DUP6 PUSH20 0xFFFFFFFFFFFFFFFFFFFFFFFFFFFFFFFFFFFFFFFF AND PUSH20 0xFFFFFFFFFFFFFFFFFFFFFFFFFFFFFFFFFFFFFFFF AND DUP2 MSTORE PUSH1 0x20 ADD SWAP1 DUP2 MSTORE PUSH1 0x20 ADD PUSH0 KECCAK256 SLOAD PUSH2 0x634 SWAP2 SWAP1 PUSH2 0xDD2 JUMP JUMPDEST PUSH0 DUP1 DUP6 PUSH20 0xFFFFFFFFFFFFFFFFFFFFFFFFFFFFFFFFFFFFFFFF AND PUSH20 0xFFFFFFFFFFFFFFFFFFFFFFFFFFFFFFFFFFFFFFFF AND DUP2 MSTORE PUSH1 0x20 ADD SWAP1 DUP2 MSTORE PUSH1 0x20 ADD PUSH0 KECCAK256 DUP2 SWAP1 SSTORE POP DUP3 PUSH20 0xFFFFFFFFFFFFFFFFFFFFFFFFFFFFFFFFFFFFFFFF AND DUP5 PUSH20 0xFFFFFFFFFFFFFFFFFFFFFFFFFFFFFFFFFFFFFFFF AND PUSH32 0xDDF252AD1BE2C89B69C2B068FC378DAA952BA7F163C4A11628F55A4DF523B3EF DUP5 PUSH1 0x40 MLOAD PUSH2 0x6D1 SWAP2 SWAP1 PUSH2 0xC41 JUMP JUMPDEST PUSH1 0x40 MLOAD DUP1 SWAP2 SUB SWAP1 LOG3 PUSH1 0x1 SWAP1 POP SWAP4 SWAP3 POP POP POP JUMP JUMPDEST PUSH1 0x12 DUP2 JUMP JUMPDEST PUSH0 DUP1 PUSH0 DUP4 PUSH20 0xFFFFFFFFFFFFFFFFFFFFFFFFFFFFFFFFFFFFFFFF AND PUSH20 0xFFFFFFFFFFFFFFFFFFFFFFFFFFFFFFFFFFFFFFFF AND DUP2 MSTORE PUSH1 0x20 ADD SWAP1 DUP2 MSTORE PUSH1 0x20 ADD PUSH0 KECCAK256 SLOAD SWAP1 POP SWAP2 SWAP1 POP JUMP JUMPDEST PUSH1 0x40 MLOAD DUP1 PUSH1 0x40 ADD PUSH1 0x40 MSTORE DUP1 PUSH1 0x3 DUP2 MSTORE PUSH1 0x20 ADD PUSH32 0x4552430000000000000000000000000000000000000000000000000000000000 DUP2 MSTORE POP DUP2 JUMP JUMPDEST PUSH0 DUP2 PUSH1 0x2 PUSH0 DUP3 DUP3 SLOAD PUSH2 0x779 SWAP2 SWAP1 PUSH2 0xDD2 JUMP JUMPDEST SWAP3 POP POP DUP2 SWAP1 SSTORE POP DUP2 PUSH0 DUP1 CALLER PUSH20 0xFFFFFFFFFFFFFFFFFFFFFFFFFFFFFFFFFFFFFFFF AND PUSH20 0xFFFFFFFFFFFFFFFFFFFFFFFFFFFFFFFFFFFFFFFF AND DUP2 MSTORE PUSH1 0x20 ADD SWAP1 DUP2 MSTORE PUSH1 0x20 ADD PUSH0 KECCAK256 PUSH0 DUP3 DUP3 SLOAD PUSH2 0x7CB SWAP2 SWAP1 PUSH2 0xDD2 JUMP JUMPDEST SWAP3 POP POP DUP2 SWAP1 SSTORE POP PUSH1 0x2 SLOAD SWAP1 POP SWAP2 SWAP1 POP JUMP JUMPDEST PUSH0 DUP1 PUSH0 DUP6 PUSH20 0xFFFFFFFFFFFFFFFFFFFFFFFFFFFFFFFFFFFFFFFF AND PUSH20 0xFFFFFFFFFFFFFFFFFFFFFFFFFFFFFFFFFFFFFFFF AND DUP2 MSTORE PUSH1 0x20 ADD SWAP1 DUP2 MSTORE PUSH1 0x20 ADD PUSH0 KECCAK256 SLOAD DUP3 GT ISZERO PUSH2 0x85C JUMPI PUSH1 0x40 MLOAD PUSH32 0x8C379A000000000000000000000000000000000000000000000000000000000 DUP2 MSTORE PUSH1 0x4 ADD PUSH2 0x853 SWAP1 PUSH2 0xE4F JUMP JUMPDEST PUSH1 0x40 MLOAD DUP1 SWAP2 SUB SWAP1 REVERT JUMPDEST DUP2 PUSH0 DUP1 DUP7 PUSH20 0xFFFFFFFFFFFFFFFFFFFFFFFFFFFFFFFFFFFFFFFF AND PUSH20 0xFFFFFFFFFFFFFFFFFFFFFFFFFFFFFFFFFFFFFFFF AND DUP2 MSTORE PUSH1 0x20 ADD SWAP1 DUP2 MSTORE PUSH1 0x20 ADD PUSH0 KECCAK256 SLOAD PUSH2 0x8A4 SWAP2 SWAP1 PUSH2 0xD9F JUMP JUMPDEST PUSH0 DUP1 DUP7 PUSH20 0xFFFFFFFFFFFFFFFFFFFFFFFFFFFFFFFFFFFFFFFF AND PUSH20 0xFFFFFFFFFFFFFFFFFFFFFFFFFFFFFFFFFFFFFFFF AND DUP2 MSTORE PUSH1 0x20 ADD SWAP1 DUP2 MSTORE PUSH1 0x20 ADD PUSH0 KECCAK256 DUP2 SWAP1 SSTORE POP DUP2 PUSH0 DUP1 DUP6 PUSH20 0xFFFFFFFFFFFFFFFFFFFFFFFFFFFFFFFFFFFFFFFF AND PUSH20 0xFFFFFFFFFFFFFFFFFFFFFFFFFFFFFFFFFFFFFFFF AND DUP2 MSTORE PUSH1 0x20 ADD SWAP1 DUP2 MSTORE PUSH1 0x20 ADD PUSH0 KECCAK256 SLOAD PUSH2 0x92C SWAP2 SWAP1 PUSH2 0xDD2 JUMP JUMPDEST PUSH0 DUP1 DUP6 PUSH20 0xFFFFFFFFFFFFFFFFFFFFFFFFFFFFFFFFFFFFFFFF AND PUSH20 0xFFFFFFFFFFFFFFFFFFFFFFFFFFFFFFFFFFFFFFFF AND DUP2 MSTORE PUSH1 0x20 ADD SWAP1 DUP2 MSTORE PUSH1 0x20 ADD PUSH0 KECCAK256 DUP2 SWAP1 SSTORE POP DUP3 PUSH20 0xFFFFFFFFFFFFFFFFFFFFFFFFFFFFFFFFFFFFFFFF AND DUP5 PUSH20 0xFFFFFFFFFFFFFFFFFFFFFFFFFFFFFFFFFFFFFFFF AND PUSH32 0xDDF252AD1BE2C89B69C2B068FC378DAA952BA7F163C4A11628F55A4DF523B3EF DUP5 PUSH1 0x40 MLOAD PUSH2 0x9C9 SWAP2 SWAP1 PUSH2 0xC41 JUMP JUMPDEST PUSH1 0x40 MLOAD DUP1 SWAP2 SUB SWAP1 LOG3 PUSH1 0x1 SWAP1 POP SWAP4 SWAP3 POP POP POP JUMP JUMPDEST PUSH0 PUSH1 0x1 PUSH0 DUP5 PUSH20 0xFFFFFFFFFFFFFFFFFFFFFFFFFFFFFFFFFFFFFFFF AND PUSH20 0xFFFFFFFFFFFFFFFFFFFFFFFFFFFFFFFFFFFFFFFF AND DUP2 MSTORE PUSH1 0x20 ADD SWAP1 DUP2 MSTORE PUSH1 0x20 ADD PUSH0 KECCAK256 PUSH0 DUP4 PUSH20 0xFFFFFFFFFFFFFFFFFFFFFFFFFFFFFFFFFFFFFFFF AND PUSH20 0xFFFFFFFFFFFFFFFFFFFFFFFFFFFFFFFFFFFFFFFF AND DUP2 MSTORE PUSH1 0x20 ADD SWAP1 DUP2 MSTORE PUSH1 0x20 ADD PUSH0 KECCAK256 SLOAD SWAP1 POP SWAP3 SWAP2 POP POP JUMP JUMPDEST PUSH0 DUP2 MLOAD SWAP1 POP SWAP2 SWAP1 POP JUMP JUMPDEST PUSH0 DUP3 DUP3 MSTORE PUSH1 0x20 DUP3 ADD SWAP1 POP SWAP3 SWAP2 POP POP JUMP JUMPDEST PUSH0 JUMPDEST DUP4 DUP2 LT ISZERO PUSH2 0xA95 JUMPI DUP1 DUP3 ADD MLOAD DUP2 DUP5 ADD MSTORE PUSH1 0x20 DUP2 ADD SWAP1 POP PUSH2 0xA7A JUMP JUMPDEST PUSH0 DUP5 DUP5 ADD MSTORE POP POP POP POP JUMP JUMPDEST PUSH0 PUSH1 0x1F NOT PUSH1 0x1F DUP4 ADD AND SWAP1 POP SWAP2 SWAP1 POP JUMP JUMPDEST PUSH0 PUSH2 0xABA DUP3 PUSH2 0xA5E JUMP JUMPDEST PUSH2 0xAC4 DUP2 DUP6 PUSH2 0xA68 JUMP JUMPDEST SWAP4 POP PUSH2 0xAD4 DUP2 DUP6 PUSH1 0x20 DUP7 ADD PUSH2 0xA78 JUMP JUMPDEST PUSH2 0xADD DUP2 PUSH2 0xAA0 JUMP JUMPDEST DUP5 ADD SWAP2 POP POP SWAP3 SWAP2 POP POP JUMP JUMPDEST PUSH0 PUSH1 0x20 DUP3 ADD SWAP1 POP DUP2 DUP2 SUB PUSH0 DUP4 ADD MSTORE PUSH2 0xB00 DUP2 DUP5 PUSH2 0xAB0 JUMP JUMPDEST SWAP1 POP SWAP3 SWAP2 POP POP JUMP JUMPDEST PUSH0 DUP1 REVERT JUMPDEST PUSH0 PUSH20 0xFFFFFFFFFFFFFFFFFFFFFFFFFFFFFFFFFFFFFFFF DUP3 AND SWAP1 POP SWAP2 SWAP1 POP JUMP JUMPDEST PUSH0 PUSH2 0xB35 DUP3 PUSH2 0xB0C JUMP JUMPDEST SWAP1 POP SWAP2 SWAP1 POP JUMP JUMPDEST PUSH2 0xB45 DUP2 PUSH2 0xB2B JUMP JUMPDEST DUP2 EQ PUSH2 0xB4F JUMPI PUSH0 DUP1 REVERT JUMPDEST POP JUMP JUMPDEST PUSH0 DUP2 CALLDATALOAD SWAP1 POP PUSH2 0xB60 DUP2 PUSH2 0xB3C JUMP JUMPDEST SWAP3 SWAP2 POP POP JUMP JUMPDEST PUSH0 DUP2 SWAP1 POP SWAP2 SWAP1 POP JUMP JUMPDEST PUSH2 0xB78 DUP2 PUSH2 0xB66 JUMP JUMPDEST DUP2 EQ PUSH2 0xB82 JUMPI PUSH0 DUP1 REVERT JUMPDEST POP JUMP JUMPDEST PUSH0 DUP2 CALLDATALOAD SWAP1 POP PUSH2 0xB93 DUP2 PUSH2 0xB6F JUMP JUMPDEST SWAP3 SWAP2 POP POP JUMP JUMPDEST PUSH0 DUP1 PUSH1 0x40 DUP4 DUP6 SUB SLT ISZERO PUSH2 0xBAF JUMPI PUSH2 0xBAE PUSH2 0xB08 JUMP JUMPDEST JUMPDEST PUSH0 PUSH2 0xBBC DUP6 DUP3 DUP7 ADD PUSH2 0xB52 JUMP JUMPDEST SWAP3 POP POP PUSH1 0x20 PUSH2 0xBCD DUP6 DUP3 DUP7 ADD PUSH2 0xB85 JUMP JUMPDEST SWAP2 POP POP SWAP3 POP SWAP3 SWAP1 POP JUMP JUMPDEST PUSH0 DUP2 ISZERO ISZERO SWAP1 POP SWAP2 SWAP1 POP JUMP JUMPDEST PUSH2 0xBEB DUP2 PUSH2 0xBD7 JUMP JUMPDEST DUP3 MSTORE POP POP JUMP JUMPDEST PUSH0 PUSH1 0x20 DUP3 ADD SWAP1 POP PUSH2 0xC04 PUSH0 DUP4 ADD DUP5 PUSH2 0xBE2 JUMP JUMPDEST SWAP3 SWAP2 POP POP JUMP JUMPDEST PUSH2 0xC13 DUP2 PUSH2 0xB2B JUMP JUMPDEST DUP3 MSTORE POP POP JUMP JUMPDEST PUSH0 PUSH1 0x20 DUP3 ADD SWAP1 POP PUSH2 0xC2C PUSH0 DUP4 ADD DUP5 PUSH2 0xC0A JUMP JUMPDEST SWAP3 SWAP2 POP POP JUMP JUMPDEST PUSH2 0xC3B DUP2 PUSH2 0xB66 JUMP JUMPDEST DUP3 MSTORE POP POP JUMP JUMPDEST PUSH0 PUSH1 0x20 DUP3 ADD SWAP1 POP PUSH2 0xC54 PUSH0 DUP4 ADD DUP5 PUSH2 0xC32 JUMP JUMPDEST SWAP3 SWAP2 POP POP JUMP JUMPDEST PUSH0 DUP1 PUSH0 PUSH1 0x60 DUP5 DUP7 SUB SLT ISZERO PUSH2 0xC71 JUMPI PUSH2 0xC70 PUSH2 0xB08 JUMP JUMPDEST JUMPDEST PUSH0 PUSH2 0xC7E DUP7 DUP3 DUP8 ADD PUSH2 0xB52 JUMP JUMPDEST SWAP4 POP POP PUSH1 0x20 PUSH2 0xC8F DUP7 DUP3 DUP8 ADD PUSH2 0xB52 JUMP JUMPDEST SWAP3 POP POP PUSH1 0x40 PUSH2 0xCA0 DUP7 DUP3 DUP8 ADD PUSH2 0xB85 JUMP JUMPDEST SWAP2 POP POP SWAP3 POP SWAP3 POP SWAP3 JUMP JUMPDEST PUSH0 PUSH1 0xFF DUP3 AND SWAP1 POP SWAP2 SWAP1 POP JUMP JUMPDEST PUSH2 0xCBF DUP2 PUSH2 0xCAA JUMP JUMPDEST DUP3 MSTORE POP POP JUMP JUMPDEST PUSH0 PUSH1 0x20 DUP3 ADD SWAP1 POP PUSH2 0xCD8 PUSH0 DUP4 ADD DUP5 PUSH2 0xCB6 JUMP JUMPDEST SWAP3 SWAP2 POP POP JUMP JUMPDEST PUSH0 PUSH1 0x20 DUP3 DUP5 SUB SLT ISZERO PUSH2 0xCF3 JUMPI PUSH2 0xCF2 PUSH2 0xB08 JUMP JUMPDEST JUMPDEST PUSH0 PUSH2 0xD00 DUP5 DUP3 DUP6 ADD PUSH2 0xB52 JUMP JUMPDEST SWAP2 POP POP SWAP3 SWAP2 POP POP JUMP JUMPDEST PUSH0 PUSH1 0x20 DUP3 DUP5 SUB SLT ISZERO PUSH2 0xD1E JUMPI PUSH2 0xD1D PUSH2 0xB08 JUMP JUMPDEST JUMPDEST PUSH0 PUSH2 0xD2B DUP5 DUP3 DUP6 ADD PUSH2 0xB85 JUMP JUMPDEST SWAP2 POP POP SWAP3 SWAP2 POP POP JUMP JUMPDEST PUSH0 DUP1 PUSH1 0x40 DUP4 DUP6 SUB SLT ISZERO PUSH2 0xD4A JUMPI PUSH2 0xD49 PUSH2 0xB08 JUMP JUMPDEST JUMPDEST PUSH0 PUSH2 0xD57 DUP6 DUP3 DUP7 ADD PUSH2 0xB52 JUMP JUMPDEST SWAP3 POP POP PUSH1 0x20 PUSH2 0xD68 DUP6 DUP3 DUP7 ADD PUSH2 0xB52 JUMP JUMPDEST SWAP2 POP POP SWAP3 POP SWAP3 SWAP1 POP JUMP JUMPDEST PUSH32 0x4E487B7100000000000000000000000000000000000000000000000000000000 PUSH0 MSTORE PUSH1 0x11 PUSH1 0x4 MSTORE PUSH1 0x24 PUSH0 REVERT JUMPDEST PUSH0 PUSH2 0xDA9 DUP3 PUSH2 0xB66 JUMP JUMPDEST SWAP2 POP PUSH2 0xDB4 DUP4 PUSH2 0xB66 JUMP JUMPDEST SWAP3 POP DUP3 DUP3 SUB SWAP1 POP DUP2 DUP2 GT ISZERO PUSH2 0xDCC JUMPI PUSH2 0xDCB PUSH2 0xD72 JUMP JUMPDEST JUMPDEST SWAP3 SWAP2 POP POP JUMP JUMPDEST PUSH0 PUSH2 0xDDC DUP3 PUSH2 0xB66 JUMP JUMPDEST SWAP2 POP PUSH2 0xDE7 DUP4 PUSH2 0xB66 JUMP JUMPDEST SWAP3 POP DUP3 DUP3 ADD SWAP1 POP DUP1 DUP3 GT ISZERO PUSH2 0xDFF JUMPI PUSH2 0xDFE PUSH2 0xD72 JUMP JUMPDEST JUMPDEST SWAP3 SWAP2 POP POP JUMP JUMPDEST PUSH32 0x62616C616E6365206E6F7420656E6F7567680000000000000000000000000000 PUSH0 DUP3 ADD MSTORE POP JUMP JUMPDEST PUSH0 PUSH2 0xE39 PUSH1 0x12 DUP4 PUSH2 0xA68 JUMP JUMPDEST SWAP2 POP PUSH2 0xE44 DUP3 PUSH2 0xE05 JUMP JUMPDEST PUSH1 0x20 DUP3 ADD SWAP1 POP SWAP2 SWAP1 POP JUMP JUMPDEST PUSH0 PUSH1 0x20 DUP3 ADD SWAP1 POP DUP2 DUP2 SUB PUSH0 DUP4 ADD MSTORE PUSH2 0xE66 DUP2 PUSH2 0xE2D JUMP JUMPDEST SWAP1 POP SWAP2 SWAP1 POP JUMP INVALID LOG2 PUSH5 0x6970667358 0x22 SLT KECCAK256 0xD2 0x2E AND ADD 0xD0 PUSH6 0xBB93B23A831B DUP12 0xDB 0xE PUSH26 0x5E7A0CC4E7B2C1BBDC76D962142B7F6164736F6C634300081600 CALLER "
				},
				"gasEstimates": {
					"creation": {
						"codeDepositCost": "749400",
						"executionCost": "47191",
						"totalCost": "796591"
					},
					"external": {
						"allowance(address,address)": "infinite",
						"approve(address,uint256)": "infinite",
						"balanceOf(address)": "2851",
						"decimals()": "331",
						"getcontractaddress()": "424",
						"mint(uint256)": "infinite",
						"name()": "infinite",
						"symbol()": "infinite",
						"totalSupply()": "2499",
						"transfer(address,address,uint256)": "infinite",
						"transferFrom(address,address,uint256)": "infinite"
					}
				},
				"methodIdentifiers": {
					"allowance(address,address)": "dd62ed3e",
					"approve(address,uint256)": "095ea7b3",
					"balanceOf(address)": "70a08231",
					"decimals()": "313ce567",
					"getcontractaddress()": "15621373",
					"mint(uint256)": "a0712d68",
					"name()": "06fdde03",
					"symbol()": "95d89b41",
					"totalSupply()": "18160ddd",
					"transfer(address,address,uint256)": "beabacc8",
					"transferFrom(address,address,uint256)": "23b872dd"
				}
			},
			"storageLayout": {
				"storage": [
					{
						"astId": 85,
						"contract": "Final Assignment/ERC-20.sol:ERC20Basic",
						"label": "balances",
						"offset": 0,
						"slot": "0",
						"type": "t_mapping(t_address,t_uint256)"
					},
					{
						"astId": 91,
						"contract": "Final Assignment/ERC-20.sol:ERC20Basic",
						"label": "allowed",
						"offset": 0,
						"slot": "1",
						"type": "t_mapping(t_address,t_mapping(t_address,t_uint256))"
					},
					{
						"astId": 94,
						"contract": "Final Assignment/ERC-20.sol:ERC20Basic",
						"label": "totalSupply_",
						"offset": 0,
						"slot": "2",
						"type": "t_uint256"
					}
				],
				"types": {
					"t_address": {
						"encoding": "inplace",
						"label": "address",
						"numberOfBytes": "20"
					},
					"t_mapping(t_address,t_mapping(t_address,t_uint256))": {
						"encoding": "mapping",
						"key": "t_address",
						"label": "mapping(address => mapping(address => uint256))",
						"numberOfBytes": "32",
						"value": "t_mapping(t_address,t_uint256)"
					},
					"t_mapping(t_address,t_uint256)": {
						"encoding": "mapping",
						"key": "t_address",
						"label": "mapping(address => uint256)",
						"numberOfBytes": "32",
						"value": "t_uint256"
					},
					"t_uint256": {
						"encoding": "inplace",
						"label": "uint256",
						"numberOfBytes": "32"
					}
				}
			},
			"userdoc": {
				"kind": "user",
				"methods": {},
				"version": 1
			}
		}
	}
}