{
	"data": {
		"bytecode": {
			"linkReferences": {},
			"object": "608060405260405180606001604052806040518060a00160405280607e815260200162002a61607e913981526020016040518060a00160405280607c815260200162002adf607c913981526020016040518060a001604052806079815260200162002b5b6079913981525060099060036200007c92919062000155565b5034801562000089575f80fd5b5060405162002bd438038062002bd48339818101604052810190620000af919062000276565b6040518060400160405280600881526020017f47616d654974656d0000000000000000000000000000000000000000000000008152506040518060400160405280600381526020017f49544d0000000000000000000000000000000000000000000000000000000000815250815f90816200012b919062000501565b5080600190816200013d919062000501565b505050806007819055504260088190555050620005e5565b828054828255905f5260205f20908101928215620001a0579160200282015b828111156200019f5782518290816200018e919062000501565b509160200191906001019062000174565b5b509050620001af9190620001b3565b5090565b5b80821115620001d6575f8181620001cc9190620001da565b50600101620001b4565b5090565b508054620001e8906200030a565b5f825580601f10620001fb57506200021a565b601f0160209004905f5260205f20908101906200021991906200021d565b5b50565b5b8082111562000236575f815f9055506001016200021e565b5090565b5f80fd5b5f819050919050565b62000252816200023e565b81146200025d575f80fd5b50565b5f81519050620002708162000247565b92915050565b5f602082840312156200028e576200028d6200023a565b5b5f6200029d8482850162000260565b91505092915050565b5f81519050919050565b7f4e487b71000000000000000000000000000000000000000000000000000000005f52604160045260245ffd5b7f4e487b71000000000000000000000000000000000000000000000000000000005f52602260045260245ffd5b5f60028204905060018216806200032257607f821691505b602082108103620003385762000337620002dd565b5b50919050565b5f819050815f5260205f209050919050565b5f6020601f8301049050919050565b5f82821b905092915050565b5f600883026200039c7fffffffffffffffffffffffffffffffffffffffffffffffffffffffffffffffff826200035f565b620003a886836200035f565b95508019841693508086168417925050509392505050565b5f819050919050565b5f620003e9620003e3620003dd846200023e565b620003c0565b6200023e565b9050919050565b5f819050919050565b6200040483620003c9565b6200041c6200041382620003f0565b8484546200036b565b825550505050565b5f90565b6200043262000424565b6200043f818484620003f9565b505050565b5b8181101562000466576200045a5f8262000428565b60018101905062000445565b5050565b601f821115620004b5576200047f816200033e565b6200048a8462000350565b810160208510156200049a578190505b620004b2620004a98562000350565b83018262000444565b50505b505050565b5f82821c905092915050565b5f620004d75f1984600802620004ba565b1980831691505092915050565b5f620004f18383620004c6565b9150826002028217905092915050565b6200050c82620002a6565b67ffffffffffffffff811115620005285762000527620002b0565b5b6200053482546200030a565b620005418282856200046a565b5f60209050601f83116001811462000577575f841562000562578287015190505b6200056e8582620004e4565b865550620005dd565b601f19841662000587866200033e565b5f5b82811015620005b05784890151825560018201915060208501945060208101905062000589565b86831015620005d05784890151620005cc601f891682620004c6565b8355505b6001600288020188555050505b505050505050565b61246e80620005f35f395ff3fe608060405234801561000f575f80fd5b50600436106100fe575f3560e01c80636e04ff0d11610095578063b88d4fde11610064578063b88d4fde146102bb578063c87b56dd146102d7578063cd279c7c14610307578063e985e9c514610323576100fe565b80636e04ff0d1461022057806370a082311461025157806395d89b4114610281578063a22cb4651461029f576100fe565b806323b872dd116100d157806323b872dd1461019c57806342842e0e146101b85780634585e33b146101d45780636352211e146101f0576100fe565b806301ffc9a71461010257806306fdde0314610132578063081812fc14610150578063095ea7b314610180575b5f80fd5b61011c60048036038101906101179190611853565b610353565b6040516101299190611898565b60405180910390f35b61013a6103b3565b604051610147919061193b565b60405180910390f35b61016a6004803603810190610165919061198e565b610442565b60405161017791906119f8565b60405180910390f35b61019a60048036038101906101959190611a3b565b61045d565b005b6101b660048036038101906101b19190611a79565b610473565b005b6101d260048036038101906101cd9190611a79565b610572565b005b6101ee60048036038101906101e99190611b2a565b610591565b005b61020a6004803603810190610205919061198e565b6105b4565b60405161021791906119f8565b60405180910390f35b61023a60048036038101906102359190611b2a565b6105c5565b604051610248929190611bc7565b60405180910390f35b61026b60048036038101906102669190611bf5565b6105e3565b6040516102789190611c2f565b60405180910390f35b610289610699565b604051610296919061193b565b60405180910390f35b6102b960048036038101906102b49190611c72565b610729565b005b6102d560048036038101906102d09190611dd8565b61073f565b005b6102f160048036038101906102ec919061198e565b61075c565b6040516102fe919061193b565b60405180910390f35b610321600480360381019061031c9190611ef6565b610867565b005b61033d60048036038101906103389190611f62565b610880565b60405161034a9190611898565b60405180910390f35b5f634906490660e01b7bffffffffffffffffffffffffffffffffffffffffffffffffffffffff1916827bffffffffffffffffffffffffffffffffffffffffffffffffffffffff191614806103ac57506103ab8261090e565b5b9050919050565b60605f80546103c190611fcd565b80601f01602080910402602001604051908101604052809291908181526020018280546103ed90611fcd565b80156104385780601f1061040f57610100808354040283529160200191610438565b820191905f5260205f20905b81548152906001019060200180831161041b57829003601f168201915b5050505050905090565b5f61044c826109ef565b5061045682610a75565b9050919050565b61046f828261046a610aae565b610ab5565b5050565b5f73ffffffffffffffffffffffffffffffffffffffff168273ffffffffffffffffffffffffffffffffffffffff16036104e3575f6040517f64a0ae920000000000000000000000000000000000000000000000000000000081526004016104da91906119f8565b60405180910390fd5b5f6104f683836104f1610aae565b610ac7565b90508373ffffffffffffffffffffffffffffffffffffffff168173ffffffffffffffffffffffffffffffffffffffff161461056c578382826040517f64283d7b00000000000000000000000000000000000000000000000000000000815260040161056393929190611ffd565b60405180910390fd5b50505050565b61058c83838360405180602001604052805f81525061073f565b505050565b600754600854426105a2919061205f565b11156105b057426008819055505b5050565b5f6105be826109ef565b9050919050565b5f6060600754600854426105d9919061205f565b1191509250929050565b5f8073ffffffffffffffffffffffffffffffffffffffff168273ffffffffffffffffffffffffffffffffffffffff1603610654575f6040517f89c62b6400000000000000000000000000000000000000000000000000000000815260040161064b91906119f8565b60405180910390fd5b60035f8373ffffffffffffffffffffffffffffffffffffffff1673ffffffffffffffffffffffffffffffffffffffff1681526020019081526020015f20549050919050565b6060600180546106a890611fcd565b80601f01602080910402602001604051908101604052809291908181526020018280546106d490611fcd565b801561071f5780601f106106f65761010080835404028352916020019161071f565b820191905f5260205f20905b81548152906001019060200180831161070257829003601f168201915b5050505050905090565b61073b610734610aae565b8383610cd2565b5050565b61074a848484610473565b61075684848484610e3b565b50505050565b6060610767826109ef565b505f60065f8481526020019081526020015f20805461078590611fcd565b80601f01602080910402602001604051908101604052809291908181526020018280546107b190611fcd565b80156107fc5780601f106107d3576101008083540402835291602001916107fc565b820191905f5260205f20905b8154815290600101906020018083116107df57829003601f168201915b505050505090505f61080c610fed565b90505f815103610820578192505050610862565b5f8251111561085457808260405160200161083c9291906120cc565b60405160208183030381529060405292505050610862565b61085d84611003565b925050505b919050565b6108718383611069565b61087b8282611086565b505050565b5f60055f8473ffffffffffffffffffffffffffffffffffffffff1673ffffffffffffffffffffffffffffffffffffffff1681526020019081526020015f205f8373ffffffffffffffffffffffffffffffffffffffff1673ffffffffffffffffffffffffffffffffffffffff1681526020019081526020015f205f9054906101000a900460ff16905092915050565b5f7f80ac58cd000000000000000000000000000000000000000000000000000000007bffffffffffffffffffffffffffffffffffffffffffffffffffffffff1916827bffffffffffffffffffffffffffffffffffffffffffffffffffffffff191614806109d857507f5b5e139f000000000000000000000000000000000000000000000000000000007bffffffffffffffffffffffffffffffffffffffffffffffffffffffff1916827bffffffffffffffffffffffffffffffffffffffffffffffffffffffff1916145b806109e857506109e7826110e0565b5b9050919050565b5f806109fa83611149565b90505f73ffffffffffffffffffffffffffffffffffffffff168173ffffffffffffffffffffffffffffffffffffffff1603610a6c57826040517f7e273289000000000000000000000000000000000000000000000000000000008152600401610a639190611c2f565b60405180910390fd5b80915050919050565b5f60045f8381526020019081526020015f205f9054906101000a900473ffffffffffffffffffffffffffffffffffffffff169050919050565b5f33905090565b610ac28383836001611182565b505050565b5f80610ad284611149565b90505f73ffffffffffffffffffffffffffffffffffffffff168373ffffffffffffffffffffffffffffffffffffffff1614610b1357610b12818486611341565b5b5f73ffffffffffffffffffffffffffffffffffffffff168173ffffffffffffffffffffffffffffffffffffffff1614610b9e57610b525f855f80611182565b600160035f8373ffffffffffffffffffffffffffffffffffffffff1673ffffffffffffffffffffffffffffffffffffffff1681526020019081526020015f205f82825403925050819055505b5f73ffffffffffffffffffffffffffffffffffffffff168573ffffffffffffffffffffffffffffffffffffffff1614610c1d57600160035f8773ffffffffffffffffffffffffffffffffffffffff1673ffffffffffffffffffffffffffffffffffffffff1681526020019081526020015f205f82825401925050819055505b8460025f8681526020019081526020015f205f6101000a81548173ffffffffffffffffffffffffffffffffffffffff021916908373ffffffffffffffffffffffffffffffffffffffff160217905550838573ffffffffffffffffffffffffffffffffffffffff168273ffffffffffffffffffffffffffffffffffffffff167fddf252ad1be2c89b69c2b068fc378daa952ba7f163c4a11628f55a4df523b3ef60405160405180910390a4809150509392505050565b5f73ffffffffffffffffffffffffffffffffffffffff168273ffffffffffffffffffffffffffffffffffffffff1603610d4257816040517f5b08ba18000000000000000000000000000000000000000000000000000000008152600401610d3991906119f8565b60405180910390fd5b8060055f8573ffffffffffffffffffffffffffffffffffffffff1673ffffffffffffffffffffffffffffffffffffffff1681526020019081526020015f205f8473ffffffffffffffffffffffffffffffffffffffff1673ffffffffffffffffffffffffffffffffffffffff1681526020019081526020015f205f6101000a81548160ff0219169083151502179055508173ffffffffffffffffffffffffffffffffffffffff168373ffffffffffffffffffffffffffffffffffffffff167f17307eab39ab6107e8899845ad3d59bd9653f200f220920489ca2b5937696c3183604051610e2e9190611898565b60405180910390a3505050565b5f8373ffffffffffffffffffffffffffffffffffffffff163b1115610fe7578273ffffffffffffffffffffffffffffffffffffffff1663150b7a02610e7e610aae565b8685856040518563ffffffff1660e01b8152600401610ea094939291906120ef565b6020604051808303815f875af1925050508015610edb57506040513d601f19601f82011682018060405250810190610ed8919061214d565b60015b610f5c573d805f8114610f09576040519150601f19603f3d011682016040523d82523d5f602084013e610f0e565b606091505b505f815103610f5457836040517f64a0ae92000000000000000000000000000000000000000000000000000000008152600401610f4b91906119f8565b60405180910390fd5b805181602001fd5b63150b7a0260e01b7bffffffffffffffffffffffffffffffffffffffffffffffffffffffff1916817bffffffffffffffffffffffffffffffffffffffffffffffffffffffff191614610fe557836040517f64a0ae92000000000000000000000000000000000000000000000000000000008152600401610fdc91906119f8565b60405180910390fd5b505b50505050565b606060405180602001604052805f815250905090565b606061100e826109ef565b505f611018610fed565b90505f8151116110365760405180602001604052805f815250611061565b8061104084611404565b6040516020016110519291906120cc565b6040516020818303038152906040525b915050919050565b611082828260405180602001604052805f8152506114ce565b5050565b8060065f8481526020019081526020015f2090816110a49190612315565b507ff8e1a15aba9398e019f0b49df1a4fde98ee17ae345cb5f6b5e2c27f5033e8ce7826040516110d49190611c2f565b60405180910390a15050565b5f7f01ffc9a7000000000000000000000000000000000000000000000000000000007bffffffffffffffffffffffffffffffffffffffffffffffffffffffff1916827bffffffffffffffffffffffffffffffffffffffffffffffffffffffff1916149050919050565b5f60025f8381526020019081526020015f205f9054906101000a900473ffffffffffffffffffffffffffffffffffffffff169050919050565b80806111ba57505f73ffffffffffffffffffffffffffffffffffffffff168273ffffffffffffffffffffffffffffffffffffffff1614155b156112ec575f6111c9846109ef565b90505f73ffffffffffffffffffffffffffffffffffffffff168373ffffffffffffffffffffffffffffffffffffffff161415801561123357508273ffffffffffffffffffffffffffffffffffffffff168173ffffffffffffffffffffffffffffffffffffffff1614155b801561124657506112448184610880565b155b1561128857826040517fa9fbf51f00000000000000000000000000000000000000000000000000000000815260040161127f91906119f8565b60405180910390fd5b81156112ea57838573ffffffffffffffffffffffffffffffffffffffff168273ffffffffffffffffffffffffffffffffffffffff167f8c5be1e5ebec7d5bd14f71427d1e84f3dd0314c0f7b2291e5b200ac8c7c3b92560405160405180910390a45b505b8360045f8581526020019081526020015f205f6101000a81548173ffffffffffffffffffffffffffffffffffffffff021916908373ffffffffffffffffffffffffffffffffffffffff16021790555050505050565b61134c8383836114e9565b6113ff575f73ffffffffffffffffffffffffffffffffffffffff168373ffffffffffffffffffffffffffffffffffffffff16036113c057806040517f7e2732890000000000000000000000000000000000000000000000000000000081526004016113b79190611c2f565b60405180910390fd5b81816040517f177e802f0000000000000000000000000000000000000000000000000000000081526004016113f69291906123e4565b60405180910390fd5b505050565b60605f6001611412846115a9565b0190505f8167ffffffffffffffff8111156114305761142f611cb4565b5b6040519080825280601f01601f1916602001820160405280156114625781602001600182028036833780820191505090505b5090505f82602001820190505b6001156114c3578080600190039150507f3031323334353637383961626364656600000000000000000000000000000000600a86061a8153600a85816114b8576114b761240b565b5b0494505f850361146f575b819350505050919050565b6114d883836116fa565b6114e45f848484610e3b565b505050565b5f8073ffffffffffffffffffffffffffffffffffffffff168373ffffffffffffffffffffffffffffffffffffffff16141580156115a057508273ffffffffffffffffffffffffffffffffffffffff168473ffffffffffffffffffffffffffffffffffffffff16148061156157506115608484610880565b5b8061159f57508273ffffffffffffffffffffffffffffffffffffffff1661158783610a75565b73ffffffffffffffffffffffffffffffffffffffff16145b5b90509392505050565b5f805f90507a184f03e93ff9f4daa797ed6e38ed64bf6a1f0100000000000000008310611605577a184f03e93ff9f4daa797ed6e38ed64bf6a1f01000000000000000083816115fb576115fa61240b565b5b0492506040810190505b6d04ee2d6d415b85acef81000000008310611642576d04ee2d6d415b85acef810000000083816116385761163761240b565b5b0492506020810190505b662386f26fc10000831061167157662386f26fc1000083816116675761166661240b565b5b0492506010810190505b6305f5e100831061169a576305f5e10083816116905761168f61240b565b5b0492506008810190505b61271083106116bf5761271083816116b5576116b461240b565b5b0492506004810190505b606483106116e257606483816116d8576116d761240b565b5b0492506002810190505b600a83106116f1576001810190505b80915050919050565b5f73ffffffffffffffffffffffffffffffffffffffff168273ffffffffffffffffffffffffffffffffffffffff160361176a575f6040517f64a0ae9200000000000000000000000000000000000000000000000000000000815260040161176191906119f8565b60405180910390fd5b5f61177683835f610ac7565b90505f73ffffffffffffffffffffffffffffffffffffffff168173ffffffffffffffffffffffffffffffffffffffff16146117e8575f6040517f73c6ac6e0000000000000000000000000000000000000000000000000000000081526004016117df91906119f8565b60405180910390fd5b505050565b5f604051905090565b5f80fd5b5f80fd5b5f7fffffffff0000000000000000000000000000000000000000000000000000000082169050919050565b611832816117fe565b811461183c575f80fd5b50565b5f8135905061184d81611829565b92915050565b5f60208284031215611868576118676117f6565b5b5f6118758482850161183f565b91505092915050565b5f8115159050919050565b6118928161187e565b82525050565b5f6020820190506118ab5f830184611889565b92915050565b5f81519050919050565b5f82825260208201905092915050565b5f5b838110156118e85780820151818401526020810190506118cd565b5f8484015250505050565b5f601f19601f8301169050919050565b5f61190d826118b1565b61191781856118bb565b93506119278185602086016118cb565b611930816118f3565b840191505092915050565b5f6020820190508181035f8301526119538184611903565b905092915050565b5f819050919050565b61196d8161195b565b8114611977575f80fd5b50565b5f8135905061198881611964565b92915050565b5f602082840312156119a3576119a26117f6565b5b5f6119b08482850161197a565b91505092915050565b5f73ffffffffffffffffffffffffffffffffffffffff82169050919050565b5f6119e2826119b9565b9050919050565b6119f2816119d8565b82525050565b5f602082019050611a0b5f8301846119e9565b92915050565b611a1a816119d8565b8114611a24575f80fd5b50565b5f81359050611a3581611a11565b92915050565b5f8060408385031215611a5157611a506117f6565b5b5f611a5e85828601611a27565b9250506020611a6f8582860161197a565b9150509250929050565b5f805f60608486031215611a9057611a8f6117f6565b5b5f611a9d86828701611a27565b9350506020611aae86828701611a27565b9250506040611abf8682870161197a565b9150509250925092565b5f80fd5b5f80fd5b5f80fd5b5f8083601f840112611aea57611ae9611ac9565b5b8235905067ffffffffffffffff811115611b0757611b06611acd565b5b602083019150836001820283011115611b2357611b22611ad1565b5b9250929050565b5f8060208385031215611b4057611b3f6117f6565b5b5f83013567ffffffffffffffff811115611b5d57611b5c6117fa565b5b611b6985828601611ad5565b92509250509250929050565b5f81519050919050565b5f82825260208201905092915050565b5f611b9982611b75565b611ba38185611b7f565b9350611bb38185602086016118cb565b611bbc816118f3565b840191505092915050565b5f604082019050611bda5f830185611889565b8181036020830152611bec8184611b8f565b90509392505050565b5f60208284031215611c0a57611c096117f6565b5b5f611c1784828501611a27565b91505092915050565b611c298161195b565b82525050565b5f602082019050611c425f830184611c20565b92915050565b611c518161187e565b8114611c5b575f80fd5b50565b5f81359050611c6c81611c48565b92915050565b5f8060408385031215611c8857611c876117f6565b5b5f611c9585828601611a27565b9250506020611ca685828601611c5e565b9150509250929050565b5f80fd5b7f4e487b71000000000000000000000000000000000000000000000000000000005f52604160045260245ffd5b611cea826118f3565b810181811067ffffffffffffffff82111715611d0957611d08611cb4565b5b80604052505050565b5f611d1b6117ed565b9050611d278282611ce1565b919050565b5f67ffffffffffffffff821115611d4657611d45611cb4565b5b611d4f826118f3565b9050602081019050919050565b828183375f83830152505050565b5f611d7c611d7784611d2c565b611d12565b905082815260208101848484011115611d9857611d97611cb0565b5b611da3848285611d5c565b509392505050565b5f82601f830112611dbf57611dbe611ac9565b5b8135611dcf848260208601611d6a565b91505092915050565b5f805f8060808587031215611df057611def6117f6565b5b5f611dfd87828801611a27565b9450506020611e0e87828801611a27565b9350506040611e1f8782880161197a565b925050606085013567ffffffffffffffff811115611e4057611e3f6117fa565b5b611e4c87828801611dab565b91505092959194509250565b5f67ffffffffffffffff821115611e7257611e71611cb4565b5b611e7b826118f3565b9050602081019050919050565b5f611e9a611e9584611e58565b611d12565b905082815260208101848484011115611eb657611eb5611cb0565b5b611ec1848285611d5c565b509392505050565b5f82601f830112611edd57611edc611ac9565b5b8135611eed848260208601611e88565b91505092915050565b5f805f60608486031215611f0d57611f0c6117f6565b5b5f611f1a86828701611a27565b9350506020611f2b8682870161197a565b925050604084013567ffffffffffffffff811115611f4c57611f4b6117fa565b5b611f5886828701611ec9565b9150509250925092565b5f8060408385031215611f7857611f776117f6565b5b5f611f8585828601611a27565b9250506020611f9685828601611a27565b9150509250929050565b7f4e487b71000000000000000000000000000000000000000000000000000000005f52602260045260245ffd5b5f6002820490506001821680611fe457607f821691505b602082108103611ff757611ff6611fa0565b5b50919050565b5f6060820190506120105f8301866119e9565b61201d6020830185611c20565b61202a60408301846119e9565b949350505050565b7f4e487b71000000000000000000000000000000000000000000000000000000005f52601160045260245ffd5b5f6120698261195b565b91506120748361195b565b925082820390508181111561208c5761208b612032565b5b92915050565b5f81905092915050565b5f6120a6826118b1565b6120b08185612092565b93506120c08185602086016118cb565b80840191505092915050565b5f6120d7828561209c565b91506120e3828461209c565b91508190509392505050565b5f6080820190506121025f8301876119e9565b61210f60208301866119e9565b61211c6040830185611c20565b818103606083015261212e8184611b8f565b905095945050505050565b5f8151905061214781611829565b92915050565b5f60208284031215612162576121616117f6565b5b5f61216f84828501612139565b91505092915050565b5f819050815f5260205f209050919050565b5f6020601f8301049050919050565b5f82821b905092915050565b5f600883026121d47fffffffffffffffffffffffffffffffffffffffffffffffffffffffffffffffff82612199565b6121de8683612199565b95508019841693508086168417925050509392505050565b5f819050919050565b5f61221961221461220f8461195b565b6121f6565b61195b565b9050919050565b5f819050919050565b612232836121ff565b61224661223e82612220565b8484546121a5565b825550505050565b5f90565b61225a61224e565b612265818484612229565b505050565b5b818110156122885761227d5f82612252565b60018101905061226b565b5050565b601f8211156122cd5761229e81612178565b6122a78461218a565b810160208510156122b6578190505b6122ca6122c28561218a565b83018261226a565b50505b505050565b5f82821c905092915050565b5f6122ed5f19846008026122d2565b1980831691505092915050565b5f61230583836122de565b9150826002028217905092915050565b61231e826118b1565b67ffffffffffffffff81111561233757612336611cb4565b5b6123418254611fcd565b61234c82828561228c565b5f60209050601f83116001811461237d575f841561236b578287015190505b61237585826122fa565b8655506123dc565b601f19841661238b86612178565b5f5b828110156123b25784890151825560018201915060208501945060208101905061238d565b868310156123cf57848901516123cb601f8916826122de565b8355505b6001600288020188555050505b505050505050565b5f6040820190506123f75f8301856119e9565b6124046020830184611c20565b9392505050565b7f4e487b71000000000000000000000000000000000000000000000000000000005f52601260045260245ffdfea2646970667358221220c6fbd4b838f4a1ddef1194a32529d62bc9ef1ab6362cc525c1c52a94bd38660964736f6c6343000814003368747470733a2f2f676174657761792e697066732e696f2f697066732f6261667962656968617a646c7971636f3261366a63347074633473686c346773796273766d3279336a336e707667796577677763343366347463752f79616e6e69732d7a617567672d594b5649737749306953382d756e73706c6173682e6a706768747470733a2f2f676174657761792e697066732e696f2f697066732f62616679626569613561736d61617166703776626d757170706f6c6c67326e6435787534677076726e666b7566357a78736c757465336f657033712f7765732d74696e64656c2d6a7049725131516d3367672d756e73706c6173682e6a706768747470733a2f2f676174657761792e697066732e696f2f697066732f62616679626569617373766b7a75737967707969667070323379786b7061673469613374686c786c34696e696a6a776877776f62746b71693778612f666c617669656e2d455358684953797948686f2d756e73706c6173682e6a7067",
			"opcodes": "PUSH1 0x80 PUSH1 0x40 MSTORE PUSH1 0x40 MLOAD DUP1 PUSH1 0x60 ADD PUSH1 0x40 MSTORE DUP1 PUSH1 0x40 MLOAD DUP1 PUSH1 0xA0 ADD PUSH1 0x40 MSTORE DUP1 PUSH1 0x7E DUP2 MSTORE PUSH1 0x20 ADD PUSH3 0x2A61 PUSH1 0x7E SWAP2 CODECOPY DUP2 MSTORE PUSH1 0x20 ADD PUSH1 0x40 MLOAD DUP1 PUSH1 0xA0 ADD PUSH1 0x40 MSTORE DUP1 PUSH1 0x7C DUP2 MSTORE PUSH1 0x20 ADD PUSH3 0x2ADF PUSH1 0x7C SWAP2 CODECOPY DUP2 MSTORE PUSH1 0x20 ADD PUSH1 0x40 MLOAD DUP1 PUSH1 0xA0 ADD PUSH1 0x40 MSTORE DUP1 PUSH1 0x79 DUP2 MSTORE PUSH1 0x20 ADD PUSH3 0x2B5B PUSH1 0x79 SWAP2 CODECOPY DUP2 MSTORE POP PUSH1 0x9 SWAP1 PUSH1 0x3 PUSH3 0x7C SWAP3 SWAP2 SWAP1 PUSH3 0x155 JUMP JUMPDEST POP CALLVALUE DUP1 ISZERO PUSH3 0x89 JUMPI PUSH0 DUP1 REVERT JUMPDEST POP PUSH1 0x40 MLOAD PUSH3 0x2BD4 CODESIZE SUB DUP1 PUSH3 0x2BD4 DUP4 CODECOPY DUP2 DUP2 ADD PUSH1 0x40 MSTORE DUP2 ADD SWAP1 PUSH3 0xAF SWAP2 SWAP1 PUSH3 0x276 JUMP JUMPDEST PUSH1 0x40 MLOAD DUP1 PUSH1 0x40 ADD PUSH1 0x40 MSTORE DUP1 PUSH1 0x8 DUP2 MSTORE PUSH1 0x20 ADD PUSH32 0x47616D654974656D000000000000000000000000000000000000000000000000 DUP2 MSTORE POP PUSH1 0x40 MLOAD DUP1 PUSH1 0x40 ADD PUSH1 0x40 MSTORE DUP1 PUSH1 0x3 DUP2 MSTORE PUSH1 0x20 ADD PUSH32 0x49544D0000000000000000000000000000000000000000000000000000000000 DUP2 MSTORE POP DUP2 PUSH0 SWAP1 DUP2 PUSH3 0x12B SWAP2 SWAP1 PUSH3 0x501 JUMP JUMPDEST POP DUP1 PUSH1 0x1 SWAP1 DUP2 PUSH3 0x13D SWAP2 SWAP1 PUSH3 0x501 JUMP JUMPDEST POP POP POP DUP1 PUSH1 0x7 DUP2 SWAP1 SSTORE POP TIMESTAMP PUSH1 0x8 DUP2 SWAP1 SSTORE POP POP PUSH3 0x5E5 JUMP JUMPDEST DUP3 DUP1 SLOAD DUP3 DUP3 SSTORE SWAP1 PUSH0 MSTORE PUSH1 0x20 PUSH0 KECCAK256 SWAP1 DUP2 ADD SWAP3 DUP3 ISZERO PUSH3 0x1A0 JUMPI SWAP2 PUSH1 0x20 MUL DUP3 ADD JUMPDEST DUP3 DUP2 GT ISZERO PUSH3 0x19F JUMPI DUP3 MLOAD DUP3 SWAP1 DUP2 PUSH3 0x18E SWAP2 SWAP1 PUSH3 0x501 JUMP JUMPDEST POP SWAP2 PUSH1 0x20 ADD SWAP2 SWAP1 PUSH1 0x1 ADD SWAP1 PUSH3 0x174 JUMP JUMPDEST JUMPDEST POP SWAP1 POP PUSH3 0x1AF SWAP2 SWAP1 PUSH3 0x1B3 JUMP JUMPDEST POP SWAP1 JUMP JUMPDEST JUMPDEST DUP1 DUP3 GT ISZERO PUSH3 0x1D6 JUMPI PUSH0 DUP2 DUP2 PUSH3 0x1CC SWAP2 SWAP1 PUSH3 0x1DA JUMP JUMPDEST POP PUSH1 0x1 ADD PUSH3 0x1B4 JUMP JUMPDEST POP SWAP1 JUMP JUMPDEST POP DUP1 SLOAD PUSH3 0x1E8 SWAP1 PUSH3 0x30A JUMP JUMPDEST PUSH0 DUP3 SSTORE DUP1 PUSH1 0x1F LT PUSH3 0x1FB JUMPI POP PUSH3 0x21A JUMP JUMPDEST PUSH1 0x1F ADD PUSH1 0x20 SWAP1 DIV SWAP1 PUSH0 MSTORE PUSH1 0x20 PUSH0 KECCAK256 SWAP1 DUP2 ADD SWAP1 PUSH3 0x219 SWAP2 SWAP1 PUSH3 0x21D JUMP JUMPDEST JUMPDEST POP JUMP JUMPDEST JUMPDEST DUP1 DUP3 GT ISZERO PUSH3 0x236 JUMPI PUSH0 DUP2 PUSH0 SWAP1 SSTORE POP PUSH1 0x1 ADD PUSH3 0x21E JUMP JUMPDEST POP SWAP1 JUMP JUMPDEST PUSH0 DUP1 REVERT JUMPDEST PUSH0 DUP2 SWAP1 POP SWAP2 SWAP1 POP JUMP JUMPDEST PUSH3 0x252 DUP2 PUSH3 0x23E JUMP JUMPDEST DUP2 EQ PUSH3 0x25D JUMPI PUSH0 DUP1 REVERT JUMPDEST POP JUMP JUMPDEST PUSH0 DUP2 MLOAD SWAP1 POP PUSH3 0x270 DUP2 PUSH3 0x247 JUMP JUMPDEST SWAP3 SWAP2 POP POP JUMP JUMPDEST PUSH0 PUSH1 0x20 DUP3 DUP5 SUB SLT ISZERO PUSH3 0x28E JUMPI PUSH3 0x28D PUSH3 0x23A JUMP JUMPDEST JUMPDEST PUSH0 PUSH3 0x29D DUP5 DUP3 DUP6 ADD PUSH3 0x260 JUMP JUMPDEST SWAP2 POP POP SWAP3 SWAP2 POP POP JUMP JUMPDEST PUSH0 DUP2 MLOAD SWAP1 POP SWAP2 SWAP1 POP JUMP JUMPDEST PUSH32 0x4E487B7100000000000000000000000000000000000000000000000000000000 PUSH0 MSTORE PUSH1 0x41 PUSH1 0x4 MSTORE PUSH1 0x24 PUSH0 REVERT JUMPDEST PUSH32 0x4E487B7100000000000000000000000000000000000000000000000000000000 PUSH0 MSTORE PUSH1 0x22 PUSH1 0x4 MSTORE PUSH1 0x24 PUSH0 REVERT JUMPDEST PUSH0 PUSH1 0x2 DUP3 DIV SWAP1 POP PUSH1 0x1 DUP3 AND DUP1 PUSH3 0x322 JUMPI PUSH1 0x7F DUP3 AND SWAP2 POP JUMPDEST PUSH1 0x20 DUP3 LT DUP2 SUB PUSH3 0x338 JUMPI PUSH3 0x337 PUSH3 0x2DD JUMP JUMPDEST JUMPDEST POP SWAP2 SWAP1 POP JUMP JUMPDEST PUSH0 DUP2 SWAP1 POP DUP2 PUSH0 MSTORE PUSH1 0x20 PUSH0 KECCAK256 SWAP1 POP SWAP2 SWAP1 POP JUMP JUMPDEST PUSH0 PUSH1 0x20 PUSH1 0x1F DUP4 ADD DIV SWAP1 POP SWAP2 SWAP1 POP JUMP JUMPDEST PUSH0 DUP3 DUP3 SHL SWAP1 POP SWAP3 SWAP2 POP POP JUMP JUMPDEST PUSH0 PUSH1 0x8 DUP4 MUL PUSH3 0x39C PUSH32 0xFFFFFFFFFFFFFFFFFFFFFFFFFFFFFFFFFFFFFFFFFFFFFFFFFFFFFFFFFFFFFFFF DUP3 PUSH3 0x35F JUMP JUMPDEST PUSH3 0x3A8 DUP7 DUP4 PUSH3 0x35F JUMP JUMPDEST SWAP6 POP DUP1 NOT DUP5 AND SWAP4 POP DUP1 DUP7 AND DUP5 OR SWAP3 POP POP POP SWAP4 SWAP3 POP POP POP JUMP JUMPDEST PUSH0 DUP2 SWAP1 POP SWAP2 SWAP1 POP JUMP JUMPDEST PUSH0 PUSH3 0x3E9 PUSH3 0x3E3 PUSH3 0x3DD DUP5 PUSH3 0x23E JUMP JUMPDEST PUSH3 0x3C0 JUMP JUMPDEST PUSH3 0x23E JUMP JUMPDEST SWAP1 POP SWAP2 SWAP1 POP JUMP JUMPDEST PUSH0 DUP2 SWAP1 POP SWAP2 SWAP1 POP JUMP JUMPDEST PUSH3 0x404 DUP4 PUSH3 0x3C9 JUMP JUMPDEST PUSH3 0x41C PUSH3 0x413 DUP3 PUSH3 0x3F0 JUMP JUMPDEST DUP5 DUP5 SLOAD PUSH3 0x36B JUMP JUMPDEST DUP3 SSTORE POP POP POP POP JUMP JUMPDEST PUSH0 SWAP1 JUMP JUMPDEST PUSH3 0x432 PUSH3 0x424 JUMP JUMPDEST PUSH3 0x43F DUP2 DUP5 DUP5 PUSH3 0x3F9 JUMP JUMPDEST POP POP POP JUMP JUMPDEST JUMPDEST DUP2 DUP2 LT ISZERO PUSH3 0x466 JUMPI PUSH3 0x45A PUSH0 DUP3 PUSH3 0x428 JUMP JUMPDEST PUSH1 0x1 DUP2 ADD SWAP1 POP PUSH3 0x445 JUMP JUMPDEST POP POP JUMP JUMPDEST PUSH1 0x1F DUP3 GT ISZERO PUSH3 0x4B5 JUMPI PUSH3 0x47F DUP2 PUSH3 0x33E JUMP JUMPDEST PUSH3 0x48A DUP5 PUSH3 0x350 JUMP JUMPDEST DUP2 ADD PUSH1 0x20 DUP6 LT ISZERO PUSH3 0x49A JUMPI DUP2 SWAP1 POP JUMPDEST PUSH3 0x4B2 PUSH3 0x4A9 DUP6 PUSH3 0x350 JUMP JUMPDEST DUP4 ADD DUP3 PUSH3 0x444 JUMP JUMPDEST POP POP JUMPDEST POP POP POP JUMP JUMPDEST PUSH0 DUP3 DUP3 SHR SWAP1 POP SWAP3 SWAP2 POP POP JUMP JUMPDEST PUSH0 PUSH3 0x4D7 PUSH0 NOT DUP5 PUSH1 0x8 MUL PUSH3 0x4BA JUMP JUMPDEST NOT DUP1 DUP4 AND SWAP2 POP POP SWAP3 SWAP2 POP POP JUMP JUMPDEST PUSH0 PUSH3 0x4F1 DUP4 DUP4 PUSH3 0x4C6 JUMP JUMPDEST SWAP2 POP DUP3 PUSH1 0x2 MUL DUP3 OR SWAP1 POP SWAP3 SWAP2 POP POP JUMP JUMPDEST PUSH3 0x50C DUP3 PUSH3 0x2A6 JUMP JUMPDEST PUSH8 0xFFFFFFFFFFFFFFFF DUP2 GT ISZERO PUSH3 0x528 JUMPI PUSH3 0x527 PUSH3 0x2B0 JUMP JUMPDEST JUMPDEST PUSH3 0x534 DUP3 SLOAD PUSH3 0x30A JUMP JUMPDEST PUSH3 0x541 DUP3 DUP3 DUP6 PUSH3 0x46A JUMP JUMPDEST PUSH0 PUSH1 0x20 SWAP1 POP PUSH1 0x1F DUP4 GT PUSH1 0x1 DUP2 EQ PUSH3 0x577 JUMPI PUSH0 DUP5 ISZERO PUSH3 0x562 JUMPI DUP3 DUP8 ADD MLOAD SWAP1 POP JUMPDEST PUSH3 0x56E DUP6 DUP3 PUSH3 0x4E4 JUMP JUMPDEST DUP7 SSTORE POP PUSH3 0x5DD JUMP JUMPDEST PUSH1 0x1F NOT DUP5 AND PUSH3 0x587 DUP7 PUSH3 0x33E JUMP JUMPDEST PUSH0 JUMPDEST DUP3 DUP2 LT ISZERO PUSH3 0x5B0 JUMPI DUP5 DUP10 ADD MLOAD DUP3 SSTORE PUSH1 0x1 DUP3 ADD SWAP2 POP PUSH1 0x20 DUP6 ADD SWAP5 POP PUSH1 0x20 DUP2 ADD SWAP1 POP PUSH3 0x589 JUMP JUMPDEST DUP7 DUP4 LT ISZERO PUSH3 0x5D0 JUMPI DUP5 DUP10 ADD MLOAD PUSH3 0x5CC PUSH1 0x1F DUP10 AND DUP3 PUSH3 0x4C6 JUMP JUMPDEST DUP4 SSTORE POP JUMPDEST PUSH1 0x1 PUSH1 0x2 DUP9 MUL ADD DUP9 SSTORE POP POP POP JUMPDEST POP POP POP POP POP POP JUMP JUMPDEST PUSH2 0x246E DUP1 PUSH3 0x5F3 PUSH0 CODECOPY PUSH0 RETURN INVALID PUSH1 0x80 PUSH1 0x40 MSTORE CALLVALUE DUP1 ISZERO PUSH2 0xF JUMPI PUSH0 DUP1 REVERT JUMPDEST POP PUSH1 0x4 CALLDATASIZE LT PUSH2 0xFE JUMPI PUSH0 CALLDATALOAD PUSH1 0xE0 SHR DUP1 PUSH4 0x6E04FF0D GT PUSH2 0x95 JUMPI DUP1 PUSH4 0xB88D4FDE GT PUSH2 0x64 JUMPI DUP1 PUSH4 0xB88D4FDE EQ PUSH2 0x2BB JUMPI DUP1 PUSH4 0xC87B56DD EQ PUSH2 0x2D7 JUMPI DUP1 PUSH4 0xCD279C7C EQ PUSH2 0x307 JUMPI DUP1 PUSH4 0xE985E9C5 EQ PUSH2 0x323 JUMPI PUSH2 0xFE JUMP JUMPDEST DUP1 PUSH4 0x6E04FF0D EQ PUSH2 0x220 JUMPI DUP1 PUSH4 0x70A08231 EQ PUSH2 0x251 JUMPI DUP1 PUSH4 0x95D89B41 EQ PUSH2 0x281 JUMPI DUP1 PUSH4 0xA22CB465 EQ PUSH2 0x29F JUMPI PUSH2 0xFE JUMP JUMPDEST DUP1 PUSH4 0x23B872DD GT PUSH2 0xD1 JUMPI DUP1 PUSH4 0x23B872DD EQ PUSH2 0x19C JUMPI DUP1 PUSH4 0x42842E0E EQ PUSH2 0x1B8 JUMPI DUP1 PUSH4 0x4585E33B EQ PUSH2 0x1D4 JUMPI DUP1 PUSH4 0x6352211E EQ PUSH2 0x1F0 JUMPI PUSH2 0xFE JUMP JUMPDEST DUP1 PUSH4 0x1FFC9A7 EQ PUSH2 0x102 JUMPI DUP1 PUSH4 0x6FDDE03 EQ PUSH2 0x132 JUMPI DUP1 PUSH4 0x81812FC EQ PUSH2 0x150 JUMPI DUP1 PUSH4 0x95EA7B3 EQ PUSH2 0x180 JUMPI JUMPDEST PUSH0 DUP1 REVERT JUMPDEST PUSH2 0x11C PUSH1 0x4 DUP1 CALLDATASIZE SUB DUP2 ADD SWAP1 PUSH2 0x117 SWAP2 SWAP1 PUSH2 0x1853 JUMP JUMPDEST PUSH2 0x353 JUMP JUMPDEST PUSH1 0x40 MLOAD PUSH2 0x129 SWAP2 SWAP1 PUSH2 0x1898 JUMP JUMPDEST PUSH1 0x40 MLOAD DUP1 SWAP2 SUB SWAP1 RETURN JUMPDEST PUSH2 0x13A PUSH2 0x3B3 JUMP JUMPDEST PUSH1 0x40 MLOAD PUSH2 0x147 SWAP2 SWAP1 PUSH2 0x193B JUMP JUMPDEST PUSH1 0x40 MLOAD DUP1 SWAP2 SUB SWAP1 RETURN JUMPDEST PUSH2 0x16A PUSH1 0x4 DUP1 CALLDATASIZE SUB DUP2 ADD SWAP1 PUSH2 0x165 SWAP2 SWAP1 PUSH2 0x198E JUMP JUMPDEST PUSH2 0x442 JUMP JUMPDEST PUSH1 0x40 MLOAD PUSH2 0x177 SWAP2 SWAP1 PUSH2 0x19F8 JUMP JUMPDEST PUSH1 0x40 MLOAD DUP1 SWAP2 SUB SWAP1 RETURN JUMPDEST PUSH2 0x19A PUSH1 0x4 DUP1 CALLDATASIZE SUB DUP2 ADD SWAP1 PUSH2 0x195 SWAP2 SWAP1 PUSH2 0x1A3B JUMP JUMPDEST PUSH2 0x45D JUMP JUMPDEST STOP JUMPDEST PUSH2 0x1B6 PUSH1 0x4 DUP1 CALLDATASIZE SUB DUP2 ADD SWAP1 PUSH2 0x1B1 SWAP2 SWAP1 PUSH2 0x1A79 JUMP JUMPDEST PUSH2 0x473 JUMP JUMPDEST STOP JUMPDEST PUSH2 0x1D2 PUSH1 0x4 DUP1 CALLDATASIZE SUB DUP2 ADD SWAP1 PUSH2 0x1CD SWAP2 SWAP1 PUSH2 0x1A79 JUMP JUMPDEST PUSH2 0x572 JUMP JUMPDEST STOP JUMPDEST PUSH2 0x1EE PUSH1 0x4 DUP1 CALLDATASIZE SUB DUP2 ADD SWAP1 PUSH2 0x1E9 SWAP2 SWAP1 PUSH2 0x1B2A JUMP JUMPDEST PUSH2 0x591 JUMP JUMPDEST STOP JUMPDEST PUSH2 0x20A PUSH1 0x4 DUP1 CALLDATASIZE SUB DUP2 ADD SWAP1 PUSH2 0x205 SWAP2 SWAP1 PUSH2 0x198E JUMP JUMPDEST PUSH2 0x5B4 JUMP JUMPDEST PUSH1 0x40 MLOAD PUSH2 0x217 SWAP2 SWAP1 PUSH2 0x19F8 JUMP JUMPDEST PUSH1 0x40 MLOAD DUP1 SWAP2 SUB SWAP1 RETURN JUMPDEST PUSH2 0x23A PUSH1 0x4 DUP1 CALLDATASIZE SUB DUP2 ADD SWAP1 PUSH2 0x235 SWAP2 SWAP1 PUSH2 0x1B2A JUMP JUMPDEST PUSH2 0x5C5 JUMP JUMPDEST PUSH1 0x40 MLOAD PUSH2 0x248 SWAP3 SWAP2 SWAP1 PUSH2 0x1BC7 JUMP JUMPDEST PUSH1 0x40 MLOAD DUP1 SWAP2 SUB SWAP1 RETURN JUMPDEST PUSH2 0x26B PUSH1 0x4 DUP1 CALLDATASIZE SUB DUP2 ADD SWAP1 PUSH2 0x266 SWAP2 SWAP1 PUSH2 0x1BF5 JUMP JUMPDEST PUSH2 0x5E3 JUMP JUMPDEST PUSH1 0x40 MLOAD PUSH2 0x278 SWAP2 SWAP1 PUSH2 0x1C2F JUMP JUMPDEST PUSH1 0x40 MLOAD DUP1 SWAP2 SUB SWAP1 RETURN JUMPDEST PUSH2 0x289 PUSH2 0x699 JUMP JUMPDEST PUSH1 0x40 MLOAD PUSH2 0x296 SWAP2 SWAP1 PUSH2 0x193B JUMP JUMPDEST PUSH1 0x40 MLOAD DUP1 SWAP2 SUB SWAP1 RETURN JUMPDEST PUSH2 0x2B9 PUSH1 0x4 DUP1 CALLDATASIZE SUB DUP2 ADD SWAP1 PUSH2 0x2B4 SWAP2 SWAP1 PUSH2 0x1C72 JUMP JUMPDEST PUSH2 0x729 JUMP JUMPDEST STOP JUMPDEST PUSH2 0x2D5 PUSH1 0x4 DUP1 CALLDATASIZE SUB DUP2 ADD SWAP1 PUSH2 0x2D0 SWAP2 SWAP1 PUSH2 0x1DD8 JUMP JUMPDEST PUSH2 0x73F JUMP JUMPDEST STOP JUMPDEST PUSH2 0x2F1 PUSH1 0x4 DUP1 CALLDATASIZE SUB DUP2 ADD SWAP1 PUSH2 0x2EC SWAP2 SWAP1 PUSH2 0x198E JUMP JUMPDEST PUSH2 0x75C JUMP JUMPDEST PUSH1 0x40 MLOAD PUSH2 0x2FE SWAP2 SWAP1 PUSH2 0x193B JUMP JUMPDEST PUSH1 0x40 MLOAD DUP1 SWAP2 SUB SWAP1 RETURN JUMPDEST PUSH2 0x321 PUSH1 0x4 DUP1 CALLDATASIZE SUB DUP2 ADD SWAP1 PUSH2 0x31C SWAP2 SWAP1 PUSH2 0x1EF6 JUMP JUMPDEST PUSH2 0x867 JUMP JUMPDEST STOP JUMPDEST PUSH2 0x33D PUSH1 0x4 DUP1 CALLDATASIZE SUB DUP2 ADD SWAP1 PUSH2 0x338 SWAP2 SWAP1 PUSH2 0x1F62 JUMP JUMPDEST PUSH2 0x880 JUMP JUMPDEST PUSH1 0x40 MLOAD PUSH2 0x34A SWAP2 SWAP1 PUSH2 0x1898 JUMP JUMPDEST PUSH1 0x40 MLOAD DUP1 SWAP2 SUB SWAP1 RETURN JUMPDEST PUSH0 PUSH4 0x49064906 PUSH1 0xE0 SHL PUSH28 0xFFFFFFFFFFFFFFFFFFFFFFFFFFFFFFFFFFFFFFFFFFFFFFFFFFFFFFFF NOT AND DUP3 PUSH28 0xFFFFFFFFFFFFFFFFFFFFFFFFFFFFFFFFFFFFFFFFFFFFFFFFFFFFFFFF NOT AND EQ DUP1 PUSH2 0x3AC JUMPI POP PUSH2 0x3AB DUP3 PUSH2 0x90E JUMP JUMPDEST JUMPDEST SWAP1 POP SWAP2 SWAP1 POP JUMP JUMPDEST PUSH1 0x60 PUSH0 DUP1 SLOAD PUSH2 0x3C1 SWAP1 PUSH2 0x1FCD JUMP JUMPDEST DUP1 PUSH1 0x1F ADD PUSH1 0x20 DUP1 SWAP2 DIV MUL PUSH1 0x20 ADD PUSH1 0x40 MLOAD SWAP1 DUP2 ADD PUSH1 0x40 MSTORE DUP1 SWAP3 SWAP2 SWAP1 DUP2 DUP2 MSTORE PUSH1 0x20 ADD DUP3 DUP1 SLOAD PUSH2 0x3ED SWAP1 PUSH2 0x1FCD JUMP JUMPDEST DUP1 ISZERO PUSH2 0x438 JUMPI DUP1 PUSH1 0x1F LT PUSH2 0x40F JUMPI PUSH2 0x100 DUP1 DUP4 SLOAD DIV MUL DUP4 MSTORE SWAP2 PUSH1 0x20 ADD SWAP2 PUSH2 0x438 JUMP JUMPDEST DUP3 ADD SWAP2 SWAP1 PUSH0 MSTORE PUSH1 0x20 PUSH0 KECCAK256 SWAP1 JUMPDEST DUP2 SLOAD DUP2 MSTORE SWAP1 PUSH1 0x1 ADD SWAP1 PUSH1 0x20 ADD DUP1 DUP4 GT PUSH2 0x41B JUMPI DUP3 SWAP1 SUB PUSH1 0x1F AND DUP3 ADD SWAP2 JUMPDEST POP POP POP POP POP SWAP1 POP SWAP1 JUMP JUMPDEST PUSH0 PUSH2 0x44C DUP3 PUSH2 0x9EF JUMP JUMPDEST POP PUSH2 0x456 DUP3 PUSH2 0xA75 JUMP JUMPDEST SWAP1 POP SWAP2 SWAP1 POP JUMP JUMPDEST PUSH2 0x46F DUP3 DUP3 PUSH2 0x46A PUSH2 0xAAE JUMP JUMPDEST PUSH2 0xAB5 JUMP JUMPDEST POP POP JUMP JUMPDEST PUSH0 PUSH20 0xFFFFFFFFFFFFFFFFFFFFFFFFFFFFFFFFFFFFFFFF AND DUP3 PUSH20 0xFFFFFFFFFFFFFFFFFFFFFFFFFFFFFFFFFFFFFFFF AND SUB PUSH2 0x4E3 JUMPI PUSH0 PUSH1 0x40 MLOAD PUSH32 0x64A0AE9200000000000000000000000000000000000000000000000000000000 DUP2 MSTORE PUSH1 0x4 ADD PUSH2 0x4DA SWAP2 SWAP1 PUSH2 0x19F8 JUMP JUMPDEST PUSH1 0x40 MLOAD DUP1 SWAP2 SUB SWAP1 REVERT JUMPDEST PUSH0 PUSH2 0x4F6 DUP4 DUP4 PUSH2 0x4F1 PUSH2 0xAAE JUMP JUMPDEST PUSH2 0xAC7 JUMP JUMPDEST SWAP1 POP DUP4 PUSH20 0xFFFFFFFFFFFFFFFFFFFFFFFFFFFFFFFFFFFFFFFF AND DUP2 PUSH20 0xFFFFFFFFFFFFFFFFFFFFFFFFFFFFFFFFFFFFFFFF AND EQ PUSH2 0x56C JUMPI DUP4 DUP3 DUP3 PUSH1 0x40 MLOAD PUSH32 0x64283D7B00000000000000000000000000000000000000000000000000000000 DUP2 MSTORE PUSH1 0x4 ADD PUSH2 0x563 SWAP4 SWAP3 SWAP2 SWAP1 PUSH2 0x1FFD JUMP JUMPDEST PUSH1 0x40 MLOAD DUP1 SWAP2 SUB SWAP1 REVERT JUMPDEST POP POP POP POP JUMP JUMPDEST PUSH2 0x58C DUP4 DUP4 DUP4 PUSH1 0x40 MLOAD DUP1 PUSH1 0x20 ADD PUSH1 0x40 MSTORE DUP1 PUSH0 DUP2 MSTORE POP PUSH2 0x73F JUMP JUMPDEST POP POP POP JUMP JUMPDEST PUSH1 0x7 SLOAD PUSH1 0x8 SLOAD TIMESTAMP PUSH2 0x5A2 SWAP2 SWAP1 PUSH2 0x205F JUMP JUMPDEST GT ISZERO PUSH2 0x5B0 JUMPI TIMESTAMP PUSH1 0x8 DUP2 SWAP1 SSTORE POP JUMPDEST POP POP JUMP JUMPDEST PUSH0 PUSH2 0x5BE DUP3 PUSH2 0x9EF JUMP JUMPDEST SWAP1 POP SWAP2 SWAP1 POP JUMP JUMPDEST PUSH0 PUSH1 0x60 PUSH1 0x7 SLOAD PUSH1 0x8 SLOAD TIMESTAMP PUSH2 0x5D9 SWAP2 SWAP1 PUSH2 0x205F JUMP JUMPDEST GT SWAP2 POP SWAP3 POP SWAP3 SWAP1 POP JUMP JUMPDEST PUSH0 DUP1 PUSH20 0xFFFFFFFFFFFFFFFFFFFFFFFFFFFFFFFFFFFFFFFF AND DUP3 PUSH20 0xFFFFFFFFFFFFFFFFFFFFFFFFFFFFFFFFFFFFFFFF AND SUB PUSH2 0x654 JUMPI PUSH0 PUSH1 0x40 MLOAD PUSH32 0x89C62B6400000000000000000000000000000000000000000000000000000000 DUP2 MSTORE PUSH1 0x4 ADD PUSH2 0x64B SWAP2 SWAP1 PUSH2 0x19F8 JUMP JUMPDEST PUSH1 0x40 MLOAD DUP1 SWAP2 SUB SWAP1 REVERT JUMPDEST PUSH1 0x3 PUSH0 DUP4 PUSH20 0xFFFFFFFFFFFFFFFFFFFFFFFFFFFFFFFFFFFFFFFF AND PUSH20 0xFFFFFFFFFFFFFFFFFFFFFFFFFFFFFFFFFFFFFFFF AND DUP2 MSTORE PUSH1 0x20 ADD SWAP1 DUP2 MSTORE PUSH1 0x20 ADD PUSH0 KECCAK256 SLOAD SWAP1 POP SWAP2 SWAP1 POP JUMP JUMPDEST PUSH1 0x60 PUSH1 0x1 DUP1 SLOAD PUSH2 0x6A8 SWAP1 PUSH2 0x1FCD JUMP JUMPDEST DUP1 PUSH1 0x1F ADD PUSH1 0x20 DUP1 SWAP2 DIV MUL PUSH1 0x20 ADD PUSH1 0x40 MLOAD SWAP1 DUP2 ADD PUSH1 0x40 MSTORE DUP1 SWAP3 SWAP2 SWAP1 DUP2 DUP2 MSTORE PUSH1 0x20 ADD DUP3 DUP1 SLOAD PUSH2 0x6D4 SWAP1 PUSH2 0x1FCD JUMP JUMPDEST DUP1 ISZERO PUSH2 0x71F JUMPI DUP1 PUSH1 0x1F LT PUSH2 0x6F6 JUMPI PUSH2 0x100 DUP1 DUP4 SLOAD DIV MUL DUP4 MSTORE SWAP2 PUSH1 0x20 ADD SWAP2 PUSH2 0x71F JUMP JUMPDEST DUP3 ADD SWAP2 SWAP1 PUSH0 MSTORE PUSH1 0x20 PUSH0 KECCAK256 SWAP1 JUMPDEST DUP2 SLOAD DUP2 MSTORE SWAP1 PUSH1 0x1 ADD SWAP1 PUSH1 0x20 ADD DUP1 DUP4 GT PUSH2 0x702 JUMPI DUP3 SWAP1 SUB PUSH1 0x1F AND DUP3 ADD SWAP2 JUMPDEST POP POP POP POP POP SWAP1 POP SWAP1 JUMP JUMPDEST PUSH2 0x73B PUSH2 0x734 PUSH2 0xAAE JUMP JUMPDEST DUP4 DUP4 PUSH2 0xCD2 JUMP JUMPDEST POP POP JUMP JUMPDEST PUSH2 0x74A DUP5 DUP5 DUP5 PUSH2 0x473 JUMP JUMPDEST PUSH2 0x756 DUP5 DUP5 DUP5 DUP5 PUSH2 0xE3B JUMP JUMPDEST POP POP POP POP JUMP JUMPDEST PUSH1 0x60 PUSH2 0x767 DUP3 PUSH2 0x9EF JUMP JUMPDEST POP PUSH0 PUSH1 0x6 PUSH0 DUP5 DUP2 MSTORE PUSH1 0x20 ADD SWAP1 DUP2 MSTORE PUSH1 0x20 ADD PUSH0 KECCAK256 DUP1 SLOAD PUSH2 0x785 SWAP1 PUSH2 0x1FCD JUMP JUMPDEST DUP1 PUSH1 0x1F ADD PUSH1 0x20 DUP1 SWAP2 DIV MUL PUSH1 0x20 ADD PUSH1 0x40 MLOAD SWAP1 DUP2 ADD PUSH1 0x40 MSTORE DUP1 SWAP3 SWAP2 SWAP1 DUP2 DUP2 MSTORE PUSH1 0x20 ADD DUP3 DUP1 SLOAD PUSH2 0x7B1 SWAP1 PUSH2 0x1FCD JUMP JUMPDEST DUP1 ISZERO PUSH2 0x7FC JUMPI DUP1 PUSH1 0x1F LT PUSH2 0x7D3 JUMPI PUSH2 0x100 DUP1 DUP4 SLOAD DIV MUL DUP4 MSTORE SWAP2 PUSH1 0x20 ADD SWAP2 PUSH2 0x7FC JUMP JUMPDEST DUP3 ADD SWAP2 SWAP1 PUSH0 MSTORE PUSH1 0x20 PUSH0 KECCAK256 SWAP1 JUMPDEST DUP2 SLOAD DUP2 MSTORE SWAP1 PUSH1 0x1 ADD SWAP1 PUSH1 0x20 ADD DUP1 DUP4 GT PUSH2 0x7DF JUMPI DUP3 SWAP1 SUB PUSH1 0x1F AND DUP3 ADD SWAP2 JUMPDEST POP POP POP POP POP SWAP1 POP PUSH0 PUSH2 0x80C PUSH2 0xFED JUMP JUMPDEST SWAP1 POP PUSH0 DUP2 MLOAD SUB PUSH2 0x820 JUMPI DUP2 SWAP3 POP POP POP PUSH2 0x862 JUMP JUMPDEST PUSH0 DUP3 MLOAD GT ISZERO PUSH2 0x854 JUMPI DUP1 DUP3 PUSH1 0x40 MLOAD PUSH1 0x20 ADD PUSH2 0x83C SWAP3 SWAP2 SWAP1 PUSH2 0x20CC JUMP JUMPDEST PUSH1 0x40 MLOAD PUSH1 0x20 DUP2 DUP4 SUB SUB DUP2 MSTORE SWAP1 PUSH1 0x40 MSTORE SWAP3 POP POP POP PUSH2 0x862 JUMP JUMPDEST PUSH2 0x85D DUP5 PUSH2 0x1003 JUMP JUMPDEST SWAP3 POP POP POP JUMPDEST SWAP2 SWAP1 POP JUMP JUMPDEST PUSH2 0x871 DUP4 DUP4 PUSH2 0x1069 JUMP JUMPDEST PUSH2 0x87B DUP3 DUP3 PUSH2 0x1086 JUMP JUMPDEST POP POP POP JUMP JUMPDEST PUSH0 PUSH1 0x5 PUSH0 DUP5 PUSH20 0xFFFFFFFFFFFFFFFFFFFFFFFFFFFFFFFFFFFFFFFF AND PUSH20 0xFFFFFFFFFFFFFFFFFFFFFFFFFFFFFFFFFFFFFFFF AND DUP2 MSTORE PUSH1 0x20 ADD SWAP1 DUP2 MSTORE PUSH1 0x20 ADD PUSH0 KECCAK256 PUSH0 DUP4 PUSH20 0xFFFFFFFFFFFFFFFFFFFFFFFFFFFFFFFFFFFFFFFF AND PUSH20 0xFFFFFFFFFFFFFFFFFFFFFFFFFFFFFFFFFFFFFFFF AND DUP2 MSTORE PUSH1 0x20 ADD SWAP1 DUP2 MSTORE PUSH1 0x20 ADD PUSH0 KECCAK256 PUSH0 SWAP1 SLOAD SWAP1 PUSH2 0x100 EXP SWAP1 DIV PUSH1 0xFF AND SWAP1 POP SWAP3 SWAP2 POP POP JUMP JUMPDEST PUSH0 PUSH32 0x80AC58CD00000000000000000000000000000000000000000000000000000000 PUSH28 0xFFFFFFFFFFFFFFFFFFFFFFFFFFFFFFFFFFFFFFFFFFFFFFFFFFFFFFFF NOT AND DUP3 PUSH28 0xFFFFFFFFFFFFFFFFFFFFFFFFFFFFFFFFFFFFFFFFFFFFFFFFFFFFFFFF NOT AND EQ DUP1 PUSH2 0x9D8 JUMPI POP PUSH32 0x5B5E139F00000000000000000000000000000000000000000000000000000000 PUSH28 0xFFFFFFFFFFFFFFFFFFFFFFFFFFFFFFFFFFFFFFFFFFFFFFFFFFFFFFFF NOT AND DUP3 PUSH28 0xFFFFFFFFFFFFFFFFFFFFFFFFFFFFFFFFFFFFFFFFFFFFFFFFFFFFFFFF NOT AND EQ JUMPDEST DUP1 PUSH2 0x9E8 JUMPI POP PUSH2 0x9E7 DUP3 PUSH2 0x10E0 JUMP JUMPDEST JUMPDEST SWAP1 POP SWAP2 SWAP1 POP JUMP JUMPDEST PUSH0 DUP1 PUSH2 0x9FA DUP4 PUSH2 0x1149 JUMP JUMPDEST SWAP1 POP PUSH0 PUSH20 0xFFFFFFFFFFFFFFFFFFFFFFFFFFFFFFFFFFFFFFFF AND DUP2 PUSH20 0xFFFFFFFFFFFFFFFFFFFFFFFFFFFFFFFFFFFFFFFF AND SUB PUSH2 0xA6C JUMPI DUP3 PUSH1 0x40 MLOAD PUSH32 0x7E27328900000000000000000000000000000000000000000000000000000000 DUP2 MSTORE PUSH1 0x4 ADD PUSH2 0xA63 SWAP2 SWAP1 PUSH2 0x1C2F JUMP JUMPDEST PUSH1 0x40 MLOAD DUP1 SWAP2 SUB SWAP1 REVERT JUMPDEST DUP1 SWAP2 POP POP SWAP2 SWAP1 POP JUMP JUMPDEST PUSH0 PUSH1 0x4 PUSH0 DUP4 DUP2 MSTORE PUSH1 0x20 ADD SWAP1 DUP2 MSTORE PUSH1 0x20 ADD PUSH0 KECCAK256 PUSH0 SWAP1 SLOAD SWAP1 PUSH2 0x100 EXP SWAP1 DIV PUSH20 0xFFFFFFFFFFFFFFFFFFFFFFFFFFFFFFFFFFFFFFFF AND SWAP1 POP SWAP2 SWAP1 POP JUMP JUMPDEST PUSH0 CALLER SWAP1 POP SWAP1 JUMP JUMPDEST PUSH2 0xAC2 DUP4 DUP4 DUP4 PUSH1 0x1 PUSH2 0x1182 JUMP JUMPDEST POP POP POP JUMP JUMPDEST PUSH0 DUP1 PUSH2 0xAD2 DUP5 PUSH2 0x1149 JUMP JUMPDEST SWAP1 POP PUSH0 PUSH20 0xFFFFFFFFFFFFFFFFFFFFFFFFFFFFFFFFFFFFFFFF AND DUP4 PUSH20 0xFFFFFFFFFFFFFFFFFFFFFFFFFFFFFFFFFFFFFFFF AND EQ PUSH2 0xB13 JUMPI PUSH2 0xB12 DUP2 DUP5 DUP7 PUSH2 0x1341 JUMP JUMPDEST JUMPDEST PUSH0 PUSH20 0xFFFFFFFFFFFFFFFFFFFFFFFFFFFFFFFFFFFFFFFF AND DUP2 PUSH20 0xFFFFFFFFFFFFFFFFFFFFFFFFFFFFFFFFFFFFFFFF AND EQ PUSH2 0xB9E JUMPI PUSH2 0xB52 PUSH0 DUP6 PUSH0 DUP1 PUSH2 0x1182 JUMP JUMPDEST PUSH1 0x1 PUSH1 0x3 PUSH0 DUP4 PUSH20 0xFFFFFFFFFFFFFFFFFFFFFFFFFFFFFFFFFFFFFFFF AND PUSH20 0xFFFFFFFFFFFFFFFFFFFFFFFFFFFFFFFFFFFFFFFF AND DUP2 MSTORE PUSH1 0x20 ADD SWAP1 DUP2 MSTORE PUSH1 0x20 ADD PUSH0 KECCAK256 PUSH0 DUP3 DUP3 SLOAD SUB SWAP3 POP POP DUP2 SWAP1 SSTORE POP JUMPDEST PUSH0 PUSH20 0xFFFFFFFFFFFFFFFFFFFFFFFFFFFFFFFFFFFFFFFF AND DUP6 PUSH20 0xFFFFFFFFFFFFFFFFFFFFFFFFFFFFFFFFFFFFFFFF AND EQ PUSH2 0xC1D JUMPI PUSH1 0x1 PUSH1 0x3 PUSH0 DUP8 PUSH20 0xFFFFFFFFFFFFFFFFFFFFFFFFFFFFFFFFFFFFFFFF AND PUSH20 0xFFFFFFFFFFFFFFFFFFFFFFFFFFFFFFFFFFFFFFFF AND DUP2 MSTORE PUSH1 0x20 ADD SWAP1 DUP2 MSTORE PUSH1 0x20 ADD PUSH0 KECCAK256 PUSH0 DUP3 DUP3 SLOAD ADD SWAP3 POP POP DUP2 SWAP1 SSTORE POP JUMPDEST DUP5 PUSH1 0x2 PUSH0 DUP7 DUP2 MSTORE PUSH1 0x20 ADD SWAP1 DUP2 MSTORE PUSH1 0x20 ADD PUSH0 KECCAK256 PUSH0 PUSH2 0x100 EXP DUP2 SLOAD DUP2 PUSH20 0xFFFFFFFFFFFFFFFFFFFFFFFFFFFFFFFFFFFFFFFF MUL NOT AND SWAP1 DUP4 PUSH20 0xFFFFFFFFFFFFFFFFFFFFFFFFFFFFFFFFFFFFFFFF AND MUL OR SWAP1 SSTORE POP DUP4 DUP6 PUSH20 0xFFFFFFFFFFFFFFFFFFFFFFFFFFFFFFFFFFFFFFFF AND DUP3 PUSH20 0xFFFFFFFFFFFFFFFFFFFFFFFFFFFFFFFFFFFFFFFF AND PUSH32 0xDDF252AD1BE2C89B69C2B068FC378DAA952BA7F163C4A11628F55A4DF523B3EF PUSH1 0x40 MLOAD PUSH1 0x40 MLOAD DUP1 SWAP2 SUB SWAP1 LOG4 DUP1 SWAP2 POP POP SWAP4 SWAP3 POP POP POP JUMP JUMPDEST PUSH0 PUSH20 0xFFFFFFFFFFFFFFFFFFFFFFFFFFFFFFFFFFFFFFFF AND DUP3 PUSH20 0xFFFFFFFFFFFFFFFFFFFFFFFFFFFFFFFFFFFFFFFF AND SUB PUSH2 0xD42 JUMPI DUP2 PUSH1 0x40 MLOAD PUSH32 0x5B08BA1800000000000000000000000000000000000000000000000000000000 DUP2 MSTORE PUSH1 0x4 ADD PUSH2 0xD39 SWAP2 SWAP1 PUSH2 0x19F8 JUMP JUMPDEST PUSH1 0x40 MLOAD DUP1 SWAP2 SUB SWAP1 REVERT JUMPDEST DUP1 PUSH1 0x5 PUSH0 DUP6 PUSH20 0xFFFFFFFFFFFFFFFFFFFFFFFFFFFFFFFFFFFFFFFF AND PUSH20 0xFFFFFFFFFFFFFFFFFFFFFFFFFFFFFFFFFFFFFFFF AND DUP2 MSTORE PUSH1 0x20 ADD SWAP1 DUP2 MSTORE PUSH1 0x20 ADD PUSH0 KECCAK256 PUSH0 DUP5 PUSH20 0xFFFFFFFFFFFFFFFFFFFFFFFFFFFFFFFFFFFFFFFF AND PUSH20 0xFFFFFFFFFFFFFFFFFFFFFFFFFFFFFFFFFFFFFFFF AND DUP2 MSTORE PUSH1 0x20 ADD SWAP1 DUP2 MSTORE PUSH1 0x20 ADD PUSH0 KECCAK256 PUSH0 PUSH2 0x100 EXP DUP2 SLOAD DUP2 PUSH1 0xFF MUL NOT AND SWAP1 DUP4 ISZERO ISZERO MUL OR SWAP1 SSTORE POP DUP2 PUSH20 0xFFFFFFFFFFFFFFFFFFFFFFFFFFFFFFFFFFFFFFFF AND DUP4 PUSH20 0xFFFFFFFFFFFFFFFFFFFFFFFFFFFFFFFFFFFFFFFF AND PUSH32 0x17307EAB39AB6107E8899845AD3D59BD9653F200F220920489CA2B5937696C31 DUP4 PUSH1 0x40 MLOAD PUSH2 0xE2E SWAP2 SWAP1 PUSH2 0x1898 JUMP JUMPDEST PUSH1 0x40 MLOAD DUP1 SWAP2 SUB SWAP1 LOG3 POP POP POP JUMP JUMPDEST PUSH0 DUP4 PUSH20 0xFFFFFFFFFFFFFFFFFFFFFFFFFFFFFFFFFFFFFFFF AND EXTCODESIZE GT ISZERO PUSH2 0xFE7 JUMPI DUP3 PUSH20 0xFFFFFFFFFFFFFFFFFFFFFFFFFFFFFFFFFFFFFFFF AND PUSH4 0x150B7A02 PUSH2 0xE7E PUSH2 0xAAE JUMP JUMPDEST DUP7 DUP6 DUP6 PUSH1 0x40 MLOAD DUP6 PUSH4 0xFFFFFFFF AND PUSH1 0xE0 SHL DUP2 MSTORE PUSH1 0x4 ADD PUSH2 0xEA0 SWAP5 SWAP4 SWAP3 SWAP2 SWAP1 PUSH2 0x20EF JUMP JUMPDEST PUSH1 0x20 PUSH1 0x40 MLOAD DUP1 DUP4 SUB DUP2 PUSH0 DUP8 GAS CALL SWAP3 POP POP POP DUP1 ISZERO PUSH2 0xEDB JUMPI POP PUSH1 0x40 MLOAD RETURNDATASIZE PUSH1 0x1F NOT PUSH1 0x1F DUP3 ADD AND DUP3 ADD DUP1 PUSH1 0x40 MSTORE POP DUP2 ADD SWAP1 PUSH2 0xED8 SWAP2 SWAP1 PUSH2 0x214D JUMP JUMPDEST PUSH1 0x1 JUMPDEST PUSH2 0xF5C JUMPI RETURNDATASIZE DUP1 PUSH0 DUP2 EQ PUSH2 0xF09 JUMPI PUSH1 0x40 MLOAD SWAP2 POP PUSH1 0x1F NOT PUSH1 0x3F RETURNDATASIZE ADD AND DUP3 ADD PUSH1 0x40 MSTORE RETURNDATASIZE DUP3 MSTORE RETURNDATASIZE PUSH0 PUSH1 0x20 DUP5 ADD RETURNDATACOPY PUSH2 0xF0E JUMP JUMPDEST PUSH1 0x60 SWAP2 POP JUMPDEST POP PUSH0 DUP2 MLOAD SUB PUSH2 0xF54 JUMPI DUP4 PUSH1 0x40 MLOAD PUSH32 0x64A0AE9200000000000000000000000000000000000000000000000000000000 DUP2 MSTORE PUSH1 0x4 ADD PUSH2 0xF4B SWAP2 SWAP1 PUSH2 0x19F8 JUMP JUMPDEST PUSH1 0x40 MLOAD DUP1 SWAP2 SUB SWAP1 REVERT JUMPDEST DUP1 MLOAD DUP2 PUSH1 0x20 ADD REVERT JUMPDEST PUSH4 0x150B7A02 PUSH1 0xE0 SHL PUSH28 0xFFFFFFFFFFFFFFFFFFFFFFFFFFFFFFFFFFFFFFFFFFFFFFFFFFFFFFFF NOT AND DUP2 PUSH28 0xFFFFFFFFFFFFFFFFFFFFFFFFFFFFFFFFFFFFFFFFFFFFFFFFFFFFFFFF NOT AND EQ PUSH2 0xFE5 JUMPI DUP4 PUSH1 0x40 MLOAD PUSH32 0x64A0AE9200000000000000000000000000000000000000000000000000000000 DUP2 MSTORE PUSH1 0x4 ADD PUSH2 0xFDC SWAP2 SWAP1 PUSH2 0x19F8 JUMP JUMPDEST PUSH1 0x40 MLOAD DUP1 SWAP2 SUB SWAP1 REVERT JUMPDEST POP JUMPDEST POP POP POP POP JUMP JUMPDEST PUSH1 0x60 PUSH1 0x40 MLOAD DUP1 PUSH1 0x20 ADD PUSH1 0x40 MSTORE DUP1 PUSH0 DUP2 MSTORE POP SWAP1 POP SWAP1 JUMP JUMPDEST PUSH1 0x60 PUSH2 0x100E DUP3 PUSH2 0x9EF JUMP JUMPDEST POP PUSH0 PUSH2 0x1018 PUSH2 0xFED JUMP JUMPDEST SWAP1 POP PUSH0 DUP2 MLOAD GT PUSH2 0x1036 JUMPI PUSH1 0x40 MLOAD DUP1 PUSH1 0x20 ADD PUSH1 0x40 MSTORE DUP1 PUSH0 DUP2 MSTORE POP PUSH2 0x1061 JUMP JUMPDEST DUP1 PUSH2 0x1040 DUP5 PUSH2 0x1404 JUMP JUMPDEST PUSH1 0x40 MLOAD PUSH1 0x20 ADD PUSH2 0x1051 SWAP3 SWAP2 SWAP1 PUSH2 0x20CC JUMP JUMPDEST PUSH1 0x40 MLOAD PUSH1 0x20 DUP2 DUP4 SUB SUB DUP2 MSTORE SWAP1 PUSH1 0x40 MSTORE JUMPDEST SWAP2 POP POP SWAP2 SWAP1 POP JUMP JUMPDEST PUSH2 0x1082 DUP3 DUP3 PUSH1 0x40 MLOAD DUP1 PUSH1 0x20 ADD PUSH1 0x40 MSTORE DUP1 PUSH0 DUP2 MSTORE POP PUSH2 0x14CE JUMP JUMPDEST POP POP JUMP JUMPDEST DUP1 PUSH1 0x6 PUSH0 DUP5 DUP2 MSTORE PUSH1 0x20 ADD SWAP1 DUP2 MSTORE PUSH1 0x20 ADD PUSH0 KECCAK256 SWAP1 DUP2 PUSH2 0x10A4 SWAP2 SWAP1 PUSH2 0x2315 JUMP JUMPDEST POP PUSH32 0xF8E1A15ABA9398E019F0B49DF1A4FDE98EE17AE345CB5F6B5E2C27F5033E8CE7 DUP3 PUSH1 0x40 MLOAD PUSH2 0x10D4 SWAP2 SWAP1 PUSH2 0x1C2F JUMP JUMPDEST PUSH1 0x40 MLOAD DUP1 SWAP2 SUB SWAP1 LOG1 POP POP JUMP JUMPDEST PUSH0 PUSH32 0x1FFC9A700000000000000000000000000000000000000000000000000000000 PUSH28 0xFFFFFFFFFFFFFFFFFFFFFFFFFFFFFFFFFFFFFFFFFFFFFFFFFFFFFFFF NOT AND DUP3 PUSH28 0xFFFFFFFFFFFFFFFFFFFFFFFFFFFFFFFFFFFFFFFFFFFFFFFFFFFFFFFF NOT AND EQ SWAP1 POP SWAP2 SWAP1 POP JUMP JUMPDEST PUSH0 PUSH1 0x2 PUSH0 DUP4 DUP2 MSTORE PUSH1 0x20 ADD SWAP1 DUP2 MSTORE PUSH1 0x20 ADD PUSH0 KECCAK256 PUSH0 SWAP1 SLOAD SWAP1 PUSH2 0x100 EXP SWAP1 DIV PUSH20 0xFFFFFFFFFFFFFFFFFFFFFFFFFFFFFFFFFFFFFFFF AND SWAP1 POP SWAP2 SWAP1 POP JUMP JUMPDEST DUP1 DUP1 PUSH2 0x11BA JUMPI POP PUSH0 PUSH20 0xFFFFFFFFFFFFFFFFFFFFFFFFFFFFFFFFFFFFFFFF AND DUP3 PUSH20 0xFFFFFFFFFFFFFFFFFFFFFFFFFFFFFFFFFFFFFFFF AND EQ ISZERO JUMPDEST ISZERO PUSH2 0x12EC JUMPI PUSH0 PUSH2 0x11C9 DUP5 PUSH2 0x9EF JUMP JUMPDEST SWAP1 POP PUSH0 PUSH20 0xFFFFFFFFFFFFFFFFFFFFFFFFFFFFFFFFFFFFFFFF AND DUP4 PUSH20 0xFFFFFFFFFFFFFFFFFFFFFFFFFFFFFFFFFFFFFFFF AND EQ ISZERO DUP1 ISZERO PUSH2 0x1233 JUMPI POP DUP3 PUSH20 0xFFFFFFFFFFFFFFFFFFFFFFFFFFFFFFFFFFFFFFFF AND DUP2 PUSH20 0xFFFFFFFFFFFFFFFFFFFFFFFFFFFFFFFFFFFFFFFF AND EQ ISZERO JUMPDEST DUP1 ISZERO PUSH2 0x1246 JUMPI POP PUSH2 0x1244 DUP2 DUP5 PUSH2 0x880 JUMP JUMPDEST ISZERO JUMPDEST ISZERO PUSH2 0x1288 JUMPI DUP3 PUSH1 0x40 MLOAD PUSH32 0xA9FBF51F00000000000000000000000000000000000000000000000000000000 DUP2 MSTORE PUSH1 0x4 ADD PUSH2 0x127F SWAP2 SWAP1 PUSH2 0x19F8 JUMP JUMPDEST PUSH1 0x40 MLOAD DUP1 SWAP2 SUB SWAP1 REVERT JUMPDEST DUP2 ISZERO PUSH2 0x12EA JUMPI DUP4 DUP6 PUSH20 0xFFFFFFFFFFFFFFFFFFFFFFFFFFFFFFFFFFFFFFFF AND DUP3 PUSH20 0xFFFFFFFFFFFFFFFFFFFFFFFFFFFFFFFFFFFFFFFF AND PUSH32 0x8C5BE1E5EBEC7D5BD14F71427D1E84F3DD0314C0F7B2291E5B200AC8C7C3B925 PUSH1 0x40 MLOAD PUSH1 0x40 MLOAD DUP1 SWAP2 SUB SWAP1 LOG4 JUMPDEST POP JUMPDEST DUP4 PUSH1 0x4 PUSH0 DUP6 DUP2 MSTORE PUSH1 0x20 ADD SWAP1 DUP2 MSTORE PUSH1 0x20 ADD PUSH0 KECCAK256 PUSH0 PUSH2 0x100 EXP DUP2 SLOAD DUP2 PUSH20 0xFFFFFFFFFFFFFFFFFFFFFFFFFFFFFFFFFFFFFFFF MUL NOT AND SWAP1 DUP4 PUSH20 0xFFFFFFFFFFFFFFFFFFFFFFFFFFFFFFFFFFFFFFFF AND MUL OR SWAP1 SSTORE POP POP POP POP POP JUMP JUMPDEST PUSH2 0x134C DUP4 DUP4 DUP4 PUSH2 0x14E9 JUMP JUMPDEST PUSH2 0x13FF JUMPI PUSH0 PUSH20 0xFFFFFFFFFFFFFFFFFFFFFFFFFFFFFFFFFFFFFFFF AND DUP4 PUSH20 0xFFFFFFFFFFFFFFFFFFFFFFFFFFFFFFFFFFFFFFFF AND SUB PUSH2 0x13C0 JUMPI DUP1 PUSH1 0x40 MLOAD PUSH32 0x7E27328900000000000000000000000000000000000000000000000000000000 DUP2 MSTORE PUSH1 0x4 ADD PUSH2 0x13B7 SWAP2 SWAP1 PUSH2 0x1C2F JUMP JUMPDEST PUSH1 0x40 MLOAD DUP1 SWAP2 SUB SWAP1 REVERT JUMPDEST DUP2 DUP2 PUSH1 0x40 MLOAD PUSH32 0x177E802F00000000000000000000000000000000000000000000000000000000 DUP2 MSTORE PUSH1 0x4 ADD PUSH2 0x13F6 SWAP3 SWAP2 SWAP1 PUSH2 0x23E4 JUMP JUMPDEST PUSH1 0x40 MLOAD DUP1 SWAP2 SUB SWAP1 REVERT JUMPDEST POP POP POP JUMP JUMPDEST PUSH1 0x60 PUSH0 PUSH1 0x1 PUSH2 0x1412 DUP5 PUSH2 0x15A9 JUMP JUMPDEST ADD SWAP1 POP PUSH0 DUP2 PUSH8 0xFFFFFFFFFFFFFFFF DUP2 GT ISZERO PUSH2 0x1430 JUMPI PUSH2 0x142F PUSH2 0x1CB4 JUMP JUMPDEST JUMPDEST PUSH1 0x40 MLOAD SWAP1 DUP1 DUP3 MSTORE DUP1 PUSH1 0x1F ADD PUSH1 0x1F NOT AND PUSH1 0x20 ADD DUP3 ADD PUSH1 0x40 MSTORE DUP1 ISZERO PUSH2 0x1462 JUMPI DUP2 PUSH1 0x20 ADD PUSH1 0x1 DUP3 MUL DUP1 CALLDATASIZE DUP4 CALLDATACOPY DUP1 DUP3 ADD SWAP2 POP POP SWAP1 POP JUMPDEST POP SWAP1 POP PUSH0 DUP3 PUSH1 0x20 ADD DUP3 ADD SWAP1 POP JUMPDEST PUSH1 0x1 ISZERO PUSH2 0x14C3 JUMPI DUP1 DUP1 PUSH1 0x1 SWAP1 SUB SWAP2 POP POP PUSH32 0x3031323334353637383961626364656600000000000000000000000000000000 PUSH1 0xA DUP7 MOD BYTE DUP2 MSTORE8 PUSH1 0xA DUP6 DUP2 PUSH2 0x14B8 JUMPI PUSH2 0x14B7 PUSH2 0x240B JUMP JUMPDEST JUMPDEST DIV SWAP5 POP PUSH0 DUP6 SUB PUSH2 0x146F JUMPI JUMPDEST DUP2 SWAP4 POP POP POP POP SWAP2 SWAP1 POP JUMP JUMPDEST PUSH2 0x14D8 DUP4 DUP4 PUSH2 0x16FA JUMP JUMPDEST PUSH2 0x14E4 PUSH0 DUP5 DUP5 DUP5 PUSH2 0xE3B JUMP JUMPDEST POP POP POP JUMP JUMPDEST PUSH0 DUP1 PUSH20 0xFFFFFFFFFFFFFFFFFFFFFFFFFFFFFFFFFFFFFFFF AND DUP4 PUSH20 0xFFFFFFFFFFFFFFFFFFFFFFFFFFFFFFFFFFFFFFFF AND EQ ISZERO DUP1 ISZERO PUSH2 0x15A0 JUMPI POP DUP3 PUSH20 0xFFFFFFFFFFFFFFFFFFFFFFFFFFFFFFFFFFFFFFFF AND DUP5 PUSH20 0xFFFFFFFFFFFFFFFFFFFFFFFFFFFFFFFFFFFFFFFF AND EQ DUP1 PUSH2 0x1561 JUMPI POP PUSH2 0x1560 DUP5 DUP5 PUSH2 0x880 JUMP JUMPDEST JUMPDEST DUP1 PUSH2 0x159F JUMPI POP DUP3 PUSH20 0xFFFFFFFFFFFFFFFFFFFFFFFFFFFFFFFFFFFFFFFF AND PUSH2 0x1587 DUP4 PUSH2 0xA75 JUMP JUMPDEST PUSH20 0xFFFFFFFFFFFFFFFFFFFFFFFFFFFFFFFFFFFFFFFF AND EQ JUMPDEST JUMPDEST SWAP1 POP SWAP4 SWAP3 POP POP POP JUMP JUMPDEST PUSH0 DUP1 PUSH0 SWAP1 POP PUSH27 0x184F03E93FF9F4DAA797ED6E38ED64BF6A1F010000000000000000 DUP4 LT PUSH2 0x1605 JUMPI PUSH27 0x184F03E93FF9F4DAA797ED6E38ED64BF6A1F010000000000000000 DUP4 DUP2 PUSH2 0x15FB JUMPI PUSH2 0x15FA PUSH2 0x240B JUMP JUMPDEST JUMPDEST DIV SWAP3 POP PUSH1 0x40 DUP2 ADD SWAP1 POP JUMPDEST PUSH14 0x4EE2D6D415B85ACEF8100000000 DUP4 LT PUSH2 0x1642 JUMPI PUSH14 0x4EE2D6D415B85ACEF8100000000 DUP4 DUP2 PUSH2 0x1638 JUMPI PUSH2 0x1637 PUSH2 0x240B JUMP JUMPDEST JUMPDEST DIV SWAP3 POP PUSH1 0x20 DUP2 ADD SWAP1 POP JUMPDEST PUSH7 0x2386F26FC10000 DUP4 LT PUSH2 0x1671 JUMPI PUSH7 0x2386F26FC10000 DUP4 DUP2 PUSH2 0x1667 JUMPI PUSH2 0x1666 PUSH2 0x240B JUMP JUMPDEST JUMPDEST DIV SWAP3 POP PUSH1 0x10 DUP2 ADD SWAP1 POP JUMPDEST PUSH4 0x5F5E100 DUP4 LT PUSH2 0x169A JUMPI PUSH4 0x5F5E100 DUP4 DUP2 PUSH2 0x1690 JUMPI PUSH2 0x168F PUSH2 0x240B JUMP JUMPDEST JUMPDEST DIV SWAP3 POP PUSH1 0x8 DUP2 ADD SWAP1 POP JUMPDEST PUSH2 0x2710 DUP4 LT PUSH2 0x16BF JUMPI PUSH2 0x2710 DUP4 DUP2 PUSH2 0x16B5 JUMPI PUSH2 0x16B4 PUSH2 0x240B JUMP JUMPDEST JUMPDEST DIV SWAP3 POP PUSH1 0x4 DUP2 ADD SWAP1 POP JUMPDEST PUSH1 0x64 DUP4 LT PUSH2 0x16E2 JUMPI PUSH1 0x64 DUP4 DUP2 PUSH2 0x16D8 JUMPI PUSH2 0x16D7 PUSH2 0x240B JUMP JUMPDEST JUMPDEST DIV SWAP3 POP PUSH1 0x2 DUP2 ADD SWAP1 POP JUMPDEST PUSH1 0xA DUP4 LT PUSH2 0x16F1 JUMPI PUSH1 0x1 DUP2 ADD SWAP1 POP JUMPDEST DUP1 SWAP2 POP POP SWAP2 SWAP1 POP JUMP JUMPDEST PUSH0 PUSH20 0xFFFFFFFFFFFFFFFFFFFFFFFFFFFFFFFFFFFFFFFF AND DUP3 PUSH20 0xFFFFFFFFFFFFFFFFFFFFFFFFFFFFFFFFFFFFFFFF AND SUB PUSH2 0x176A JUMPI PUSH0 PUSH1 0x40 MLOAD PUSH32 0x64A0AE9200000000000000000000000000000000000000000000000000000000 DUP2 MSTORE PUSH1 0x4 ADD PUSH2 0x1761 SWAP2 SWAP1 PUSH2 0x19F8 JUMP JUMPDEST PUSH1 0x40 MLOAD DUP1 SWAP2 SUB SWAP1 REVERT JUMPDEST PUSH0 PUSH2 0x1776 DUP4 DUP4 PUSH0 PUSH2 0xAC7 JUMP JUMPDEST SWAP1 POP PUSH0 PUSH20 0xFFFFFFFFFFFFFFFFFFFFFFFFFFFFFFFFFFFFFFFF AND DUP2 PUSH20 0xFFFFFFFFFFFFFFFFFFFFFFFFFFFFFFFFFFFFFFFF AND EQ PUSH2 0x17E8 JUMPI PUSH0 PUSH1 0x40 MLOAD PUSH32 0x73C6AC6E00000000000000000000000000000000000000000000000000000000 DUP2 MSTORE PUSH1 0x4 ADD PUSH2 0x17DF SWAP2 SWAP1 PUSH2 0x19F8 JUMP JUMPDEST PUSH1 0x40 MLOAD DUP1 SWAP2 SUB SWAP1 REVERT JUMPDEST POP POP POP JUMP JUMPDEST PUSH0 PUSH1 0x40 MLOAD SWAP1 POP SWAP1 JUMP JUMPDEST PUSH0 DUP1 REVERT JUMPDEST PUSH0 DUP1 REVERT JUMPDEST PUSH0 PUSH32 0xFFFFFFFF00000000000000000000000000000000000000000000000000000000 DUP3 AND SWAP1 POP SWAP2 SWAP1 POP JUMP JUMPDEST PUSH2 0x1832 DUP2 PUSH2 0x17FE JUMP JUMPDEST DUP2 EQ PUSH2 0x183C JUMPI PUSH0 DUP1 REVERT JUMPDEST POP JUMP JUMPDEST PUSH0 DUP2 CALLDATALOAD SWAP1 POP PUSH2 0x184D DUP2 PUSH2 0x1829 JUMP JUMPDEST SWAP3 SWAP2 POP POP JUMP JUMPDEST PUSH0 PUSH1 0x20 DUP3 DUP5 SUB SLT ISZERO PUSH2 0x1868 JUMPI PUSH2 0x1867 PUSH2 0x17F6 JUMP JUMPDEST JUMPDEST PUSH0 PUSH2 0x1875 DUP5 DUP3 DUP6 ADD PUSH2 0x183F JUMP JUMPDEST SWAP2 POP POP SWAP3 SWAP2 POP POP JUMP JUMPDEST PUSH0 DUP2 ISZERO ISZERO SWAP1 POP SWAP2 SWAP1 POP JUMP JUMPDEST PUSH2 0x1892 DUP2 PUSH2 0x187E JUMP JUMPDEST DUP3 MSTORE POP POP JUMP JUMPDEST PUSH0 PUSH1 0x20 DUP3 ADD SWAP1 POP PUSH2 0x18AB PUSH0 DUP4 ADD DUP5 PUSH2 0x1889 JUMP JUMPDEST SWAP3 SWAP2 POP POP JUMP JUMPDEST PUSH0 DUP2 MLOAD SWAP1 POP SWAP2 SWAP1 POP JUMP JUMPDEST PUSH0 DUP3 DUP3 MSTORE PUSH1 0x20 DUP3 ADD SWAP1 POP SWAP3 SWAP2 POP POP JUMP JUMPDEST PUSH0 JUMPDEST DUP4 DUP2 LT ISZERO PUSH2 0x18E8 JUMPI DUP1 DUP3 ADD MLOAD DUP2 DUP5 ADD MSTORE PUSH1 0x20 DUP2 ADD SWAP1 POP PUSH2 0x18CD JUMP JUMPDEST PUSH0 DUP5 DUP5 ADD MSTORE POP POP POP POP JUMP JUMPDEST PUSH0 PUSH1 0x1F NOT PUSH1 0x1F DUP4 ADD AND SWAP1 POP SWAP2 SWAP1 POP JUMP JUMPDEST PUSH0 PUSH2 0x190D DUP3 PUSH2 0x18B1 JUMP JUMPDEST PUSH2 0x1917 DUP2 DUP6 PUSH2 0x18BB JUMP JUMPDEST SWAP4 POP PUSH2 0x1927 DUP2 DUP6 PUSH1 0x20 DUP7 ADD PUSH2 0x18CB JUMP JUMPDEST PUSH2 0x1930 DUP2 PUSH2 0x18F3 JUMP JUMPDEST DUP5 ADD SWAP2 POP POP SWAP3 SWAP2 POP POP JUMP JUMPDEST PUSH0 PUSH1 0x20 DUP3 ADD SWAP1 POP DUP2 DUP2 SUB PUSH0 DUP4 ADD MSTORE PUSH2 0x1953 DUP2 DUP5 PUSH2 0x1903 JUMP JUMPDEST SWAP1 POP SWAP3 SWAP2 POP POP JUMP JUMPDEST PUSH0 DUP2 SWAP1 POP SWAP2 SWAP1 POP JUMP JUMPDEST PUSH2 0x196D DUP2 PUSH2 0x195B JUMP JUMPDEST DUP2 EQ PUSH2 0x1977 JUMPI PUSH0 DUP1 REVERT JUMPDEST POP JUMP JUMPDEST PUSH0 DUP2 CALLDATALOAD SWAP1 POP PUSH2 0x1988 DUP2 PUSH2 0x1964 JUMP JUMPDEST SWAP3 SWAP2 POP POP JUMP JUMPDEST PUSH0 PUSH1 0x20 DUP3 DUP5 SUB SLT ISZERO PUSH2 0x19A3 JUMPI PUSH2 0x19A2 PUSH2 0x17F6 JUMP JUMPDEST JUMPDEST PUSH0 PUSH2 0x19B0 DUP5 DUP3 DUP6 ADD PUSH2 0x197A JUMP JUMPDEST SWAP2 POP POP SWAP3 SWAP2 POP POP JUMP JUMPDEST PUSH0 PUSH20 0xFFFFFFFFFFFFFFFFFFFFFFFFFFFFFFFFFFFFFFFF DUP3 AND SWAP1 POP SWAP2 SWAP1 POP JUMP JUMPDEST PUSH0 PUSH2 0x19E2 DUP3 PUSH2 0x19B9 JUMP JUMPDEST SWAP1 POP SWAP2 SWAP1 POP JUMP JUMPDEST PUSH2 0x19F2 DUP2 PUSH2 0x19D8 JUMP JUMPDEST DUP3 MSTORE POP POP JUMP JUMPDEST PUSH0 PUSH1 0x20 DUP3 ADD SWAP1 POP PUSH2 0x1A0B PUSH0 DUP4 ADD DUP5 PUSH2 0x19E9 JUMP JUMPDEST SWAP3 SWAP2 POP POP JUMP JUMPDEST PUSH2 0x1A1A DUP2 PUSH2 0x19D8 JUMP JUMPDEST DUP2 EQ PUSH2 0x1A24 JUMPI PUSH0 DUP1 REVERT JUMPDEST POP JUMP JUMPDEST PUSH0 DUP2 CALLDATALOAD SWAP1 POP PUSH2 0x1A35 DUP2 PUSH2 0x1A11 JUMP JUMPDEST SWAP3 SWAP2 POP POP JUMP JUMPDEST PUSH0 DUP1 PUSH1 0x40 DUP4 DUP6 SUB SLT ISZERO PUSH2 0x1A51 JUMPI PUSH2 0x1A50 PUSH2 0x17F6 JUMP JUMPDEST JUMPDEST PUSH0 PUSH2 0x1A5E DUP6 DUP3 DUP7 ADD PUSH2 0x1A27 JUMP JUMPDEST SWAP3 POP POP PUSH1 0x20 PUSH2 0x1A6F DUP6 DUP3 DUP7 ADD PUSH2 0x197A JUMP JUMPDEST SWAP2 POP POP SWAP3 POP SWAP3 SWAP1 POP JUMP JUMPDEST PUSH0 DUP1 PUSH0 PUSH1 0x60 DUP5 DUP7 SUB SLT ISZERO PUSH2 0x1A90 JUMPI PUSH2 0x1A8F PUSH2 0x17F6 JUMP JUMPDEST JUMPDEST PUSH0 PUSH2 0x1A9D DUP7 DUP3 DUP8 ADD PUSH2 0x1A27 JUMP JUMPDEST SWAP4 POP POP PUSH1 0x20 PUSH2 0x1AAE DUP7 DUP3 DUP8 ADD PUSH2 0x1A27 JUMP JUMPDEST SWAP3 POP POP PUSH1 0x40 PUSH2 0x1ABF DUP7 DUP3 DUP8 ADD PUSH2 0x197A JUMP JUMPDEST SWAP2 POP POP SWAP3 POP SWAP3 POP SWAP3 JUMP JUMPDEST PUSH0 DUP1 REVERT JUMPDEST PUSH0 DUP1 REVERT JUMPDEST PUSH0 DUP1 REVERT JUMPDEST PUSH0 DUP1 DUP4 PUSH1 0x1F DUP5 ADD SLT PUSH2 0x1AEA JUMPI PUSH2 0x1AE9 PUSH2 0x1AC9 JUMP JUMPDEST JUMPDEST DUP3 CALLDATALOAD SWAP1 POP PUSH8 0xFFFFFFFFFFFFFFFF DUP2 GT ISZERO PUSH2 0x1B07 JUMPI PUSH2 0x1B06 PUSH2 0x1ACD JUMP JUMPDEST JUMPDEST PUSH1 0x20 DUP4 ADD SWAP2 POP DUP4 PUSH1 0x1 DUP3 MUL DUP4 ADD GT ISZERO PUSH2 0x1B23 JUMPI PUSH2 0x1B22 PUSH2 0x1AD1 JUMP JUMPDEST JUMPDEST SWAP3 POP SWAP3 SWAP1 POP JUMP JUMPDEST PUSH0 DUP1 PUSH1 0x20 DUP4 DUP6 SUB SLT ISZERO PUSH2 0x1B40 JUMPI PUSH2 0x1B3F PUSH2 0x17F6 JUMP JUMPDEST JUMPDEST PUSH0 DUP4 ADD CALLDATALOAD PUSH8 0xFFFFFFFFFFFFFFFF DUP2 GT ISZERO PUSH2 0x1B5D JUMPI PUSH2 0x1B5C PUSH2 0x17FA JUMP JUMPDEST JUMPDEST PUSH2 0x1B69 DUP6 DUP3 DUP7 ADD PUSH2 0x1AD5 JUMP JUMPDEST SWAP3 POP SWAP3 POP POP SWAP3 POP SWAP3 SWAP1 POP JUMP JUMPDEST PUSH0 DUP2 MLOAD SWAP1 POP SWAP2 SWAP1 POP JUMP JUMPDEST PUSH0 DUP3 DUP3 MSTORE PUSH1 0x20 DUP3 ADD SWAP1 POP SWAP3 SWAP2 POP POP JUMP JUMPDEST PUSH0 PUSH2 0x1B99 DUP3 PUSH2 0x1B75 JUMP JUMPDEST PUSH2 0x1BA3 DUP2 DUP6 PUSH2 0x1B7F JUMP JUMPDEST SWAP4 POP PUSH2 0x1BB3 DUP2 DUP6 PUSH1 0x20 DUP7 ADD PUSH2 0x18CB JUMP JUMPDEST PUSH2 0x1BBC DUP2 PUSH2 0x18F3 JUMP JUMPDEST DUP5 ADD SWAP2 POP POP SWAP3 SWAP2 POP POP JUMP JUMPDEST PUSH0 PUSH1 0x40 DUP3 ADD SWAP1 POP PUSH2 0x1BDA PUSH0 DUP4 ADD DUP6 PUSH2 0x1889 JUMP JUMPDEST DUP2 DUP2 SUB PUSH1 0x20 DUP4 ADD MSTORE PUSH2 0x1BEC DUP2 DUP5 PUSH2 0x1B8F JUMP JUMPDEST SWAP1 POP SWAP4 SWAP3 POP POP POP JUMP JUMPDEST PUSH0 PUSH1 0x20 DUP3 DUP5 SUB SLT ISZERO PUSH2 0x1C0A JUMPI PUSH2 0x1C09 PUSH2 0x17F6 JUMP JUMPDEST JUMPDEST PUSH0 PUSH2 0x1C17 DUP5 DUP3 DUP6 ADD PUSH2 0x1A27 JUMP JUMPDEST SWAP2 POP POP SWAP3 SWAP2 POP POP JUMP JUMPDEST PUSH2 0x1C29 DUP2 PUSH2 0x195B JUMP JUMPDEST DUP3 MSTORE POP POP JUMP JUMPDEST PUSH0 PUSH1 0x20 DUP3 ADD SWAP1 POP PUSH2 0x1C42 PUSH0 DUP4 ADD DUP5 PUSH2 0x1C20 JUMP JUMPDEST SWAP3 SWAP2 POP POP JUMP JUMPDEST PUSH2 0x1C51 DUP2 PUSH2 0x187E JUMP JUMPDEST DUP2 EQ PUSH2 0x1C5B JUMPI PUSH0 DUP1 REVERT JUMPDEST POP JUMP JUMPDEST PUSH0 DUP2 CALLDATALOAD SWAP1 POP PUSH2 0x1C6C DUP2 PUSH2 0x1C48 JUMP JUMPDEST SWAP3 SWAP2 POP POP JUMP JUMPDEST PUSH0 DUP1 PUSH1 0x40 DUP4 DUP6 SUB SLT ISZERO PUSH2 0x1C88 JUMPI PUSH2 0x1C87 PUSH2 0x17F6 JUMP JUMPDEST JUMPDEST PUSH0 PUSH2 0x1C95 DUP6 DUP3 DUP7 ADD PUSH2 0x1A27 JUMP JUMPDEST SWAP3 POP POP PUSH1 0x20 PUSH2 0x1CA6 DUP6 DUP3 DUP7 ADD PUSH2 0x1C5E JUMP JUMPDEST SWAP2 POP POP SWAP3 POP SWAP3 SWAP1 POP JUMP JUMPDEST PUSH0 DUP1 REVERT JUMPDEST PUSH32 0x4E487B7100000000000000000000000000000000000000000000000000000000 PUSH0 MSTORE PUSH1 0x41 PUSH1 0x4 MSTORE PUSH1 0x24 PUSH0 REVERT JUMPDEST PUSH2 0x1CEA DUP3 PUSH2 0x18F3 JUMP JUMPDEST DUP2 ADD DUP2 DUP2 LT PUSH8 0xFFFFFFFFFFFFFFFF DUP3 GT OR ISZERO PUSH2 0x1D09 JUMPI PUSH2 0x1D08 PUSH2 0x1CB4 JUMP JUMPDEST JUMPDEST DUP1 PUSH1 0x40 MSTORE POP POP POP JUMP JUMPDEST PUSH0 PUSH2 0x1D1B PUSH2 0x17ED JUMP JUMPDEST SWAP1 POP PUSH2 0x1D27 DUP3 DUP3 PUSH2 0x1CE1 JUMP JUMPDEST SWAP2 SWAP1 POP JUMP JUMPDEST PUSH0 PUSH8 0xFFFFFFFFFFFFFFFF DUP3 GT ISZERO PUSH2 0x1D46 JUMPI PUSH2 0x1D45 PUSH2 0x1CB4 JUMP JUMPDEST JUMPDEST PUSH2 0x1D4F DUP3 PUSH2 0x18F3 JUMP JUMPDEST SWAP1 POP PUSH1 0x20 DUP2 ADD SWAP1 POP SWAP2 SWAP1 POP JUMP JUMPDEST DUP3 DUP2 DUP4 CALLDATACOPY PUSH0 DUP4 DUP4 ADD MSTORE POP POP POP JUMP JUMPDEST PUSH0 PUSH2 0x1D7C PUSH2 0x1D77 DUP5 PUSH2 0x1D2C JUMP JUMPDEST PUSH2 0x1D12 JUMP JUMPDEST SWAP1 POP DUP3 DUP2 MSTORE PUSH1 0x20 DUP2 ADD DUP5 DUP5 DUP5 ADD GT ISZERO PUSH2 0x1D98 JUMPI PUSH2 0x1D97 PUSH2 0x1CB0 JUMP JUMPDEST JUMPDEST PUSH2 0x1DA3 DUP5 DUP3 DUP6 PUSH2 0x1D5C JUMP JUMPDEST POP SWAP4 SWAP3 POP POP POP JUMP JUMPDEST PUSH0 DUP3 PUSH1 0x1F DUP4 ADD SLT PUSH2 0x1DBF JUMPI PUSH2 0x1DBE PUSH2 0x1AC9 JUMP JUMPDEST JUMPDEST DUP2 CALLDATALOAD PUSH2 0x1DCF DUP5 DUP3 PUSH1 0x20 DUP7 ADD PUSH2 0x1D6A JUMP JUMPDEST SWAP2 POP POP SWAP3 SWAP2 POP POP JUMP JUMPDEST PUSH0 DUP1 PUSH0 DUP1 PUSH1 0x80 DUP6 DUP8 SUB SLT ISZERO PUSH2 0x1DF0 JUMPI PUSH2 0x1DEF PUSH2 0x17F6 JUMP JUMPDEST JUMPDEST PUSH0 PUSH2 0x1DFD DUP8 DUP3 DUP9 ADD PUSH2 0x1A27 JUMP JUMPDEST SWAP5 POP POP PUSH1 0x20 PUSH2 0x1E0E DUP8 DUP3 DUP9 ADD PUSH2 0x1A27 JUMP JUMPDEST SWAP4 POP POP PUSH1 0x40 PUSH2 0x1E1F DUP8 DUP3 DUP9 ADD PUSH2 0x197A JUMP JUMPDEST SWAP3 POP POP PUSH1 0x60 DUP6 ADD CALLDATALOAD PUSH8 0xFFFFFFFFFFFFFFFF DUP2 GT ISZERO PUSH2 0x1E40 JUMPI PUSH2 0x1E3F PUSH2 0x17FA JUMP JUMPDEST JUMPDEST PUSH2 0x1E4C DUP8 DUP3 DUP9 ADD PUSH2 0x1DAB JUMP JUMPDEST SWAP2 POP POP SWAP3 SWAP6 SWAP2 SWAP5 POP SWAP3 POP JUMP JUMPDEST PUSH0 PUSH8 0xFFFFFFFFFFFFFFFF DUP3 GT ISZERO PUSH2 0x1E72 JUMPI PUSH2 0x1E71 PUSH2 0x1CB4 JUMP JUMPDEST JUMPDEST PUSH2 0x1E7B DUP3 PUSH2 0x18F3 JUMP JUMPDEST SWAP1 POP PUSH1 0x20 DUP2 ADD SWAP1 POP SWAP2 SWAP1 POP JUMP JUMPDEST PUSH0 PUSH2 0x1E9A PUSH2 0x1E95 DUP5 PUSH2 0x1E58 JUMP JUMPDEST PUSH2 0x1D12 JUMP JUMPDEST SWAP1 POP DUP3 DUP2 MSTORE PUSH1 0x20 DUP2 ADD DUP5 DUP5 DUP5 ADD GT ISZERO PUSH2 0x1EB6 JUMPI PUSH2 0x1EB5 PUSH2 0x1CB0 JUMP JUMPDEST JUMPDEST PUSH2 0x1EC1 DUP5 DUP3 DUP6 PUSH2 0x1D5C JUMP JUMPDEST POP SWAP4 SWAP3 POP POP POP JUMP JUMPDEST PUSH0 DUP3 PUSH1 0x1F DUP4 ADD SLT PUSH2 0x1EDD JUMPI PUSH2 0x1EDC PUSH2 0x1AC9 JUMP JUMPDEST JUMPDEST DUP2 CALLDATALOAD PUSH2 0x1EED DUP5 DUP3 PUSH1 0x20 DUP7 ADD PUSH2 0x1E88 JUMP JUMPDEST SWAP2 POP POP SWAP3 SWAP2 POP POP JUMP JUMPDEST PUSH0 DUP1 PUSH0 PUSH1 0x60 DUP5 DUP7 SUB SLT ISZERO PUSH2 0x1F0D JUMPI PUSH2 0x1F0C PUSH2 0x17F6 JUMP JUMPDEST JUMPDEST PUSH0 PUSH2 0x1F1A DUP7 DUP3 DUP8 ADD PUSH2 0x1A27 JUMP JUMPDEST SWAP4 POP POP PUSH1 0x20 PUSH2 0x1F2B DUP7 DUP3 DUP8 ADD PUSH2 0x197A JUMP JUMPDEST SWAP3 POP POP PUSH1 0x40 DUP5 ADD CALLDATALOAD PUSH8 0xFFFFFFFFFFFFFFFF DUP2 GT ISZERO PUSH2 0x1F4C JUMPI PUSH2 0x1F4B PUSH2 0x17FA JUMP JUMPDEST JUMPDEST PUSH2 0x1F58 DUP7 DUP3 DUP8 ADD PUSH2 0x1EC9 JUMP JUMPDEST SWAP2 POP POP SWAP3 POP SWAP3 POP SWAP3 JUMP JUMPDEST PUSH0 DUP1 PUSH1 0x40 DUP4 DUP6 SUB SLT ISZERO PUSH2 0x1F78 JUMPI PUSH2 0x1F77 PUSH2 0x17F6 JUMP JUMPDEST JUMPDEST PUSH0 PUSH2 0x1F85 DUP6 DUP3 DUP7 ADD PUSH2 0x1A27 JUMP JUMPDEST SWAP3 POP POP PUSH1 0x20 PUSH2 0x1F96 DUP6 DUP3 DUP7 ADD PUSH2 0x1A27 JUMP JUMPDEST SWAP2 POP POP SWAP3 POP SWAP3 SWAP1 POP JUMP JUMPDEST PUSH32 0x4E487B7100000000000000000000000000000000000000000000000000000000 PUSH0 MSTORE PUSH1 0x22 PUSH1 0x4 MSTORE PUSH1 0x24 PUSH0 REVERT JUMPDEST PUSH0 PUSH1 0x2 DUP3 DIV SWAP1 POP PUSH1 0x1 DUP3 AND DUP1 PUSH2 0x1FE4 JUMPI PUSH1 0x7F DUP3 AND SWAP2 POP JUMPDEST PUSH1 0x20 DUP3 LT DUP2 SUB PUSH2 0x1FF7 JUMPI PUSH2 0x1FF6 PUSH2 0x1FA0 JUMP JUMPDEST JUMPDEST POP SWAP2 SWAP1 POP JUMP JUMPDEST PUSH0 PUSH1 0x60 DUP3 ADD SWAP1 POP PUSH2 0x2010 PUSH0 DUP4 ADD DUP7 PUSH2 0x19E9 JUMP JUMPDEST PUSH2 0x201D PUSH1 0x20 DUP4 ADD DUP6 PUSH2 0x1C20 JUMP JUMPDEST PUSH2 0x202A PUSH1 0x40 DUP4 ADD DUP5 PUSH2 0x19E9 JUMP JUMPDEST SWAP5 SWAP4 POP POP POP POP JUMP JUMPDEST PUSH32 0x4E487B7100000000000000000000000000000000000000000000000000000000 PUSH0 MSTORE PUSH1 0x11 PUSH1 0x4 MSTORE PUSH1 0x24 PUSH0 REVERT JUMPDEST PUSH0 PUSH2 0x2069 DUP3 PUSH2 0x195B JUMP JUMPDEST SWAP2 POP PUSH2 0x2074 DUP4 PUSH2 0x195B JUMP JUMPDEST SWAP3 POP DUP3 DUP3 SUB SWAP1 POP DUP2 DUP2 GT ISZERO PUSH2 0x208C JUMPI PUSH2 0x208B PUSH2 0x2032 JUMP JUMPDEST JUMPDEST SWAP3 SWAP2 POP POP JUMP JUMPDEST PUSH0 DUP2 SWAP1 POP SWAP3 SWAP2 POP POP JUMP JUMPDEST PUSH0 PUSH2 0x20A6 DUP3 PUSH2 0x18B1 JUMP JUMPDEST PUSH2 0x20B0 DUP2 DUP6 PUSH2 0x2092 JUMP JUMPDEST SWAP4 POP PUSH2 0x20C0 DUP2 DUP6 PUSH1 0x20 DUP7 ADD PUSH2 0x18CB JUMP JUMPDEST DUP1 DUP5 ADD SWAP2 POP POP SWAP3 SWAP2 POP POP JUMP JUMPDEST PUSH0 PUSH2 0x20D7 DUP3 DUP6 PUSH2 0x209C JUMP JUMPDEST SWAP2 POP PUSH2 0x20E3 DUP3 DUP5 PUSH2 0x209C JUMP JUMPDEST SWAP2 POP DUP2 SWAP1 POP SWAP4 SWAP3 POP POP POP JUMP JUMPDEST PUSH0 PUSH1 0x80 DUP3 ADD SWAP1 POP PUSH2 0x2102 PUSH0 DUP4 ADD DUP8 PUSH2 0x19E9 JUMP JUMPDEST PUSH2 0x210F PUSH1 0x20 DUP4 ADD DUP7 PUSH2 0x19E9 JUMP JUMPDEST PUSH2 0x211C PUSH1 0x40 DUP4 ADD DUP6 PUSH2 0x1C20 JUMP JUMPDEST DUP2 DUP2 SUB PUSH1 0x60 DUP4 ADD MSTORE PUSH2 0x212E DUP2 DUP5 PUSH2 0x1B8F JUMP JUMPDEST SWAP1 POP SWAP6 SWAP5 POP POP POP POP POP JUMP JUMPDEST PUSH0 DUP2 MLOAD SWAP1 POP PUSH2 0x2147 DUP2 PUSH2 0x1829 JUMP JUMPDEST SWAP3 SWAP2 POP POP JUMP JUMPDEST PUSH0 PUSH1 0x20 DUP3 DUP5 SUB SLT ISZERO PUSH2 0x2162 JUMPI PUSH2 0x2161 PUSH2 0x17F6 JUMP JUMPDEST JUMPDEST PUSH0 PUSH2 0x216F DUP5 DUP3 DUP6 ADD PUSH2 0x2139 JUMP JUMPDEST SWAP2 POP POP SWAP3 SWAP2 POP POP JUMP JUMPDEST PUSH0 DUP2 SWAP1 POP DUP2 PUSH0 MSTORE PUSH1 0x20 PUSH0 KECCAK256 SWAP1 POP SWAP2 SWAP1 POP JUMP JUMPDEST PUSH0 PUSH1 0x20 PUSH1 0x1F DUP4 ADD DIV SWAP1 POP SWAP2 SWAP1 POP JUMP JUMPDEST PUSH0 DUP3 DUP3 SHL SWAP1 POP SWAP3 SWAP2 POP POP JUMP JUMPDEST PUSH0 PUSH1 0x8 DUP4 MUL PUSH2 0x21D4 PUSH32 0xFFFFFFFFFFFFFFFFFFFFFFFFFFFFFFFFFFFFFFFFFFFFFFFFFFFFFFFFFFFFFFFF DUP3 PUSH2 0x2199 JUMP JUMPDEST PUSH2 0x21DE DUP7 DUP4 PUSH2 0x2199 JUMP JUMPDEST SWAP6 POP DUP1 NOT DUP5 AND SWAP4 POP DUP1 DUP7 AND DUP5 OR SWAP3 POP POP POP SWAP4 SWAP3 POP POP POP JUMP JUMPDEST PUSH0 DUP2 SWAP1 POP SWAP2 SWAP1 POP JUMP JUMPDEST PUSH0 PUSH2 0x2219 PUSH2 0x2214 PUSH2 0x220F DUP5 PUSH2 0x195B JUMP JUMPDEST PUSH2 0x21F6 JUMP JUMPDEST PUSH2 0x195B JUMP JUMPDEST SWAP1 POP SWAP2 SWAP1 POP JUMP JUMPDEST PUSH0 DUP2 SWAP1 POP SWAP2 SWAP1 POP JUMP JUMPDEST PUSH2 0x2232 DUP4 PUSH2 0x21FF JUMP JUMPDEST PUSH2 0x2246 PUSH2 0x223E DUP3 PUSH2 0x2220 JUMP JUMPDEST DUP5 DUP5 SLOAD PUSH2 0x21A5 JUMP JUMPDEST DUP3 SSTORE POP POP POP POP JUMP JUMPDEST PUSH0 SWAP1 JUMP JUMPDEST PUSH2 0x225A PUSH2 0x224E JUMP JUMPDEST PUSH2 0x2265 DUP2 DUP5 DUP5 PUSH2 0x2229 JUMP JUMPDEST POP POP POP JUMP JUMPDEST JUMPDEST DUP2 DUP2 LT ISZERO PUSH2 0x2288 JUMPI PUSH2 0x227D PUSH0 DUP3 PUSH2 0x2252 JUMP JUMPDEST PUSH1 0x1 DUP2 ADD SWAP1 POP PUSH2 0x226B JUMP JUMPDEST POP POP JUMP JUMPDEST PUSH1 0x1F DUP3 GT ISZERO PUSH2 0x22CD JUMPI PUSH2 0x229E DUP2 PUSH2 0x2178 JUMP JUMPDEST PUSH2 0x22A7 DUP5 PUSH2 0x218A JUMP JUMPDEST DUP2 ADD PUSH1 0x20 DUP6 LT ISZERO PUSH2 0x22B6 JUMPI DUP2 SWAP1 POP JUMPDEST PUSH2 0x22CA PUSH2 0x22C2 DUP6 PUSH2 0x218A JUMP JUMPDEST DUP4 ADD DUP3 PUSH2 0x226A JUMP JUMPDEST POP POP JUMPDEST POP POP POP JUMP JUMPDEST PUSH0 DUP3 DUP3 SHR SWAP1 POP SWAP3 SWAP2 POP POP JUMP JUMPDEST PUSH0 PUSH2 0x22ED PUSH0 NOT DUP5 PUSH1 0x8 MUL PUSH2 0x22D2 JUMP JUMPDEST NOT DUP1 DUP4 AND SWAP2 POP POP SWAP3 SWAP2 POP POP JUMP JUMPDEST PUSH0 PUSH2 0x2305 DUP4 DUP4 PUSH2 0x22DE JUMP JUMPDEST SWAP2 POP DUP3 PUSH1 0x2 MUL DUP3 OR SWAP1 POP SWAP3 SWAP2 POP POP JUMP JUMPDEST PUSH2 0x231E DUP3 PUSH2 0x18B1 JUMP JUMPDEST PUSH8 0xFFFFFFFFFFFFFFFF DUP2 GT ISZERO PUSH2 0x2337 JUMPI PUSH2 0x2336 PUSH2 0x1CB4 JUMP JUMPDEST JUMPDEST PUSH2 0x2341 DUP3 SLOAD PUSH2 0x1FCD JUMP JUMPDEST PUSH2 0x234C DUP3 DUP3 DUP6 PUSH2 0x228C JUMP JUMPDEST PUSH0 PUSH1 0x20 SWAP1 POP PUSH1 0x1F DUP4 GT PUSH1 0x1 DUP2 EQ PUSH2 0x237D JUMPI PUSH0 DUP5 ISZERO PUSH2 0x236B JUMPI DUP3 DUP8 ADD MLOAD SWAP1 POP JUMPDEST PUSH2 0x2375 DUP6 DUP3 PUSH2 0x22FA JUMP JUMPDEST DUP7 SSTORE POP PUSH2 0x23DC JUMP JUMPDEST PUSH1 0x1F NOT DUP5 AND PUSH2 0x238B DUP7 PUSH2 0x2178 JUMP JUMPDEST PUSH0 JUMPDEST DUP3 DUP2 LT ISZERO PUSH2 0x23B2 JUMPI DUP5 DUP10 ADD MLOAD DUP3 SSTORE PUSH1 0x1 DUP3 ADD SWAP2 POP PUSH1 0x20 DUP6 ADD SWAP5 POP PUSH1 0x20 DUP2 ADD SWAP1 POP PUSH2 0x238D JUMP JUMPDEST DUP7 DUP4 LT ISZERO PUSH2 0x23CF JUMPI DUP5 DUP10 ADD MLOAD PUSH2 0x23CB PUSH1 0x1F DUP10 AND DUP3 PUSH2 0x22DE JUMP JUMPDEST DUP4 SSTORE POP JUMPDEST PUSH1 0x1 PUSH1 0x2 DUP9 MUL ADD DUP9 SSTORE POP POP POP JUMPDEST POP POP POP POP POP POP JUMP JUMPDEST PUSH0 PUSH1 0x40 DUP3 ADD SWAP1 POP PUSH2 0x23F7 PUSH0 DUP4 ADD DUP6 PUSH2 0x19E9 JUMP JUMPDEST PUSH2 0x2404 PUSH1 0x20 DUP4 ADD DUP5 PUSH2 0x1C20 JUMP JUMPDEST SWAP4 SWAP3 POP POP POP JUMP JUMPDEST PUSH32 0x4E487B7100000000000000000000000000000000000000000000000000000000 PUSH0 MSTORE PUSH1 0x12 PUSH1 0x4 MSTORE PUSH1 0x24 PUSH0 REVERT INVALID LOG2 PUSH5 0x6970667358 0x22 SLT KECCAK256 0xC6 0xFB 0xD4 0xB8 CODESIZE DELEGATECALL LOG1 0xDD 0xEF GT SWAP5 LOG3 0x25 0x29 0xD6 0x2B 0xC9 0xEF BYTE 0xB6 CALLDATASIZE 0x2C 0xC5 0x25 0xC1 0xC5 0x2A SWAP5 0xBD CODESIZE PUSH7 0x964736F6C6343 STOP ADDMOD EQ STOP CALLER PUSH9 0x747470733A2F2F6761 PUSH21 0x657761792E697066732E696F2F697066732F626166 PUSH26 0x62656968617A646C7971636F3261366A63347074633473686C34 PUSH8 0x73796273766D3279 CALLER PUSH11 0x336E707667796577677763 CALLVALUE CALLER PUSH7 0x347463752F7961 PUSH15 0x6E69732D7A617567672D594B564973 PUSH24 0x49306953382D756E73706C6173682E6A706768747470733A 0x2F 0x2F PUSH8 0x6174657761792E69 PUSH17 0x66732E696F2F697066732F626166796265 PUSH10 0x613561736D6161716670 CALLDATACOPY PUSH23 0x626D757170706F6C6C67326E6435787534677076726E66 PUSH12 0x7566357A78736C757465336F PUSH6 0x7033712F7765 PUSH20 0x2D74696E64656C2D6A7049725131516D3367672D PUSH22 0x6E73706C6173682E6A706768747470733A2F2F676174 PUSH6 0x7761792E6970 PUSH7 0x732E696F2F6970 PUSH7 0x732F6261667962 PUSH6 0x69617373766B PUSH27 0x75737967707969667070323379786B7061673469613374686C786C CALLVALUE PUSH10 0x6E696A6A776877776F62 PUSH21 0x6B71693778612F666C617669656E2D455358684953 PUSH26 0x7948686F2D756E73706C6173682E6A7067000000000000000000 "
		},
		"gasEstimates": {
			"creation": {
				"codeDepositCost": "1865200",
				"executionCost": "infinite",
				"totalCost": "infinite"
			},
			"external": {
				"approve(address,uint256)": "infinite",
				"balanceOf(address)": "infinite",
				"checkUpkeep(bytes)": "infinite",
				"getApproved(uint256)": "infinite",
				"isApprovedForAll(address,address)": "infinite",
				"name()": "infinite",
				"ownerOf(uint256)": "infinite",
				"performUpkeep(bytes)": "infinite",
				"safeMint(address,uint256,string)": "infinite",
				"safeTransferFrom(address,address,uint256)": "infinite",
				"safeTransferFrom(address,address,uint256,bytes)": "infinite",
				"setApprovalForAll(address,bool)": "infinite",
				"supportsInterface(bytes4)": "881",
				"symbol()": "infinite",
				"tokenURI(uint256)": "infinite",
				"transferFrom(address,address,uint256)": "infinite"
			}
		},
		"methodIdentifiers": {
			"approve(address,uint256)": "095ea7b3",
			"balanceOf(address)": "70a08231",
			"checkUpkeep(bytes)": "6e04ff0d",
			"getApproved(uint256)": "081812fc",
			"isApprovedForAll(address,address)": "e985e9c5",
			"name()": "06fdde03",
			"ownerOf(uint256)": "6352211e",
			"performUpkeep(bytes)": "4585e33b",
			"safeMint(address,uint256,string)": "cd279c7c",
			"safeTransferFrom(address,address,uint256)": "42842e0e",
			"safeTransferFrom(address,address,uint256,bytes)": "b88d4fde",
			"setApprovalForAll(address,bool)": "a22cb465",
			"supportsInterface(bytes4)": "01ffc9a7",
			"symbol()": "95d89b41",
			"tokenURI(uint256)": "c87b56dd",
			"transferFrom(address,address,uint256)": "23b872dd"
		}
	},
	"abi": [
		{
			"inputs": [
				{
					"internalType": "uint256",
					"name": "_interval",
					"type": "uint256"
				}
			],
			"stateMutability": "nonpayable",
			"type": "constructor"
		},
		{
			"inputs": [
				{
					"internalType": "address",
					"name": "sender",
					"type": "address"
				},
				{
					"internalType": "uint256",
					"name": "tokenId",
					"type": "uint256"
				},
				{
					"internalType": "address",
					"name": "owner",
					"type": "address"
				}
			],
			"name": "ERC721IncorrectOwner",
			"type": "error"
		},
		{
			"inputs": [
				{
					"internalType": "address",
					"name": "operator",
					"type": "address"
				},
				{
					"internalType": "uint256",
					"name": "tokenId",
					"type": "uint256"
				}
			],
			"name": "ERC721InsufficientApproval",
			"type": "error"
		},
		{
			"inputs": [
				{
					"internalType": "address",
					"name": "approver",
					"type": "address"
				}
			],
			"name": "ERC721InvalidApprover",
			"type": "error"
		},
		{
			"inputs": [
				{
					"internalType": "address",
					"name": "operator",
					"type": "address"
				}
			],
			"name": "ERC721InvalidOperator",
			"type": "error"
		},
		{
			"inputs": [
				{
					"internalType": "address",
					"name": "owner",
					"type": "address"
				}
			],
			"name": "ERC721InvalidOwner",
			"type": "error"
		},
		{
			"inputs": [
				{
					"internalType": "address",
					"name": "receiver",
					"type": "address"
				}
			],
			"name": "ERC721InvalidReceiver",
			"type": "error"
		},
		{
			"inputs": [
				{
					"internalType": "address",
					"name": "sender",
					"type": "address"
				}
			],
			"name": "ERC721InvalidSender",
			"type": "error"
		},
		{
			"inputs": [
				{
					"internalType": "uint256",
					"name": "tokenId",
					"type": "uint256"
				}
			],
			"name": "ERC721NonexistentToken",
			"type": "error"
		},
		{
			"anonymous": false,
			"inputs": [
				{
					"indexed": true,
					"internalType": "address",
					"name": "owner",
					"type": "address"
				},
				{
					"indexed": true,
					"internalType": "address",
					"name": "approved",
					"type": "address"
				},
				{
					"indexed": true,
					"internalType": "uint256",
					"name": "tokenId",
					"type": "uint256"
				}
			],
			"name": "Approval",
			"type": "event"
		},
		{
			"anonymous": false,
			"inputs": [
				{
					"indexed": true,
					"internalType": "address",
					"name": "owner",
					"type": "address"
				},
				{
					"indexed": true,
					"internalType": "address",
					"name": "operator",
					"type": "address"
				},
				{
					"indexed": false,
					"internalType": "bool",
					"name": "approved",
					"type": "bool"
				}
			],
			"name": "ApprovalForAll",
			"type": "event"
		},
		{
			"anonymous": false,
			"inputs": [
				{
					"indexed": false,
					"internalType": "uint256",
					"name": "_fromTokenId",
					"type": "uint256"
				},
				{
					"indexed": false,
					"internalType": "uint256",
					"name": "_toTokenId",
					"type": "uint256"
				}
			],
			"name": "BatchMetadataUpdate",
			"type": "event"
		},
		{
			"anonymous": false,
			"inputs": [
				{
					"indexed": false,
					"internalType": "uint256",
					"name": "_tokenId",
					"type": "uint256"
				}
			],
			"name": "MetadataUpdate",
			"type": "event"
		},
		{
			"anonymous": false,
			"inputs": [
				{
					"indexed": true,
					"internalType": "address",
					"name": "from",
					"type": "address"
				},
				{
					"indexed": true,
					"internalType": "address",
					"name": "to",
					"type": "address"
				},
				{
					"indexed": true,
					"internalType": "uint256",
					"name": "tokenId",
					"type": "uint256"
				}
			],
			"name": "Transfer",
			"type": "event"
		},
		{
			"inputs": [
				{
					"internalType": "address",
					"name": "to",
					"type": "address"
				},
				{
					"internalType": "uint256",
					"name": "tokenId",
					"type": "uint256"
				}
			],
			"name": "approve",
			"outputs": [],
			"stateMutability": "nonpayable",
			"type": "function"
		},
		{
			"inputs": [
				{
					"internalType": "address",
					"name": "owner",
					"type": "address"
				}
			],
			"name": "balanceOf",
			"outputs": [
				{
					"internalType": "uint256",
					"name": "",
					"type": "uint256"
				}
			],
			"stateMutability": "view",
			"type": "function"
		},
		{
			"inputs": [
				{
					"internalType": "bytes",
					"name": "",
					"type": "bytes"
				}
			],
			"name": "checkUpkeep",
			"outputs": [
				{
					"internalType": "bool",
					"name": "upkeepNeeded",
					"type": "bool"
				},
				{
					"internalType": "bytes",
					"name": "",
					"type": "bytes"
				}
			],
			"stateMutability": "view",
			"type": "function"
		},
		{
			"inputs": [
				{
					"internalType": "uint256",
					"name": "tokenId",
					"type": "uint256"
				}
			],
			"name": "getApproved",
			"outputs": [
				{
					"internalType": "address",
					"name": "",
					"type": "address"
				}
			],
			"stateMutability": "view",
			"type": "function"
		},
		{
			"inputs": [
				{
					"internalType": "address",
					"name": "owner",
					"type": "address"
				},
				{
					"internalType": "address",
					"name": "operator",
					"type": "address"
				}
			],
			"name": "isApprovedForAll",
			"outputs": [
				{
					"internalType": "bool",
					"name": "",
					"type": "bool"
				}
			],
			"stateMutability": "view",
			"type": "function"
		},
		{
			"inputs": [],
			"name": "name",
			"outputs": [
				{
					"internalType": "string",
					"name": "",
					"type": "string"
				}
			],
			"stateMutability": "view",
			"type": "function"
		},
		{
			"inputs": [
				{
					"internalType": "uint256",
					"name": "tokenId",
					"type": "uint256"
				}
			],
			"name": "ownerOf",
			"outputs": [
				{
					"internalType": "address",
					"name": "",
					"type": "address"
				}
			],
			"stateMutability": "view",
			"type": "function"
		},
		{
			"inputs": [
				{
					"internalType": "bytes",
					"name": "",
					"type": "bytes"
				}
			],
			"name": "performUpkeep",
			"outputs": [],
			"stateMutability": "nonpayable",
			"type": "function"
		},
		{
			"inputs": [
				{
					"internalType": "address",
					"name": "to",
					"type": "address"
				},
				{
					"internalType": "uint256",
					"name": "tokenId",
					"type": "uint256"
				},
				{
					"internalType": "string",
					"name": "uri",
					"type": "string"
				}
			],
			"name": "safeMint",
			"outputs": [],
			"stateMutability": "nonpayable",
			"type": "function"
		},
		{
			"inputs": [
				{
					"internalType": "address",
					"name": "from",
					"type": "address"
				},
				{
					"internalType": "address",
					"name": "to",
					"type": "address"
				},
				{
					"internalType": "uint256",
					"name": "tokenId",
					"type": "uint256"
				}
			],
			"name": "safeTransferFrom",
			"outputs": [],
			"stateMutability": "nonpayable",
			"type": "function"
		},
		{
			"inputs": [
				{
					"internalType": "address",
					"name": "from",
					"type": "address"
				},
				{
					"internalType": "address",
					"name": "to",
					"type": "address"
				},
				{
					"internalType": "uint256",
					"name": "tokenId",
					"type": "uint256"
				},
				{
					"internalType": "bytes",
					"name": "data",
					"type": "bytes"
				}
			],
			"name": "safeTransferFrom",
			"outputs": [],
			"stateMutability": "nonpayable",
			"type": "function"
		},
		{
			"inputs": [
				{
					"internalType": "address",
					"name": "operator",
					"type": "address"
				},
				{
					"internalType": "bool",
					"name": "approved",
					"type": "bool"
				}
			],
			"name": "setApprovalForAll",
			"outputs": [],
			"stateMutability": "nonpayable",
			"type": "function"
		},
		{
			"inputs": [
				{
					"internalType": "bytes4",
					"name": "interfaceId",
					"type": "bytes4"
				}
			],
			"name": "supportsInterface",
			"outputs": [
				{
					"internalType": "bool",
					"name": "",
					"type": "bool"
				}
			],
			"stateMutability": "view",
			"type": "function"
		},
		{
			"inputs": [],
			"name": "symbol",
			"outputs": [
				{
					"internalType": "string",
					"name": "",
					"type": "string"
				}
			],
			"stateMutability": "view",
			"type": "function"
		},
		{
			"inputs": [
				{
					"internalType": "uint256",
					"name": "tokenId",
					"type": "uint256"
				}
			],
			"name": "tokenURI",
			"outputs": [
				{
					"internalType": "string",
					"name": "",
					"type": "string"
				}
			],
			"stateMutability": "view",
			"type": "function"
		},
		{
			"inputs": [
				{
					"internalType": "address",
					"name": "from",
					"type": "address"
				},
				{
					"internalType": "address",
					"name": "to",
					"type": "address"
				},
				{
					"internalType": "uint256",
					"name": "tokenId",
					"type": "uint256"
				}
			],
			"name": "transferFrom",
			"outputs": [],
			"stateMutability": "nonpayable",
			"type": "function"
		}
	]
}