{
	"data": {
		"bytecode": {
			"linkReferences": {},
			"object": "60806040526000600560006101000a81548160ff0219169083151502179055506001600560016101000a81548160ff0219169083151502179055503480156200004757600080fd5b5060405180608001604052806051815260200162003dbd6051913962000073816200009a60201b60201c565b506200009462000088620000af60201b60201c565b620000b760201b60201c565b620004de565b8060029081620000ab9190620003f7565b5050565b600033905090565b6000600360009054906101000a900473ffffffffffffffffffffffffffffffffffffffff16905081600360006101000a81548173ffffffffffffffffffffffffffffffffffffffff021916908373ffffffffffffffffffffffffffffffffffffffff1602179055508173ffffffffffffffffffffffffffffffffffffffff168173ffffffffffffffffffffffffffffffffffffffff167f8be0079c531659141344cd1fd0a4f28419497f9722a3daafe3b4186f6b6457e060405160405180910390a35050565b600081519050919050565b7f4e487b7100000000000000000000000000000000000000000000000000000000600052604160045260246000fd5b7f4e487b7100000000000000000000000000000000000000000000000000000000600052602260045260246000fd5b60006002820490506001821680620001ff57607f821691505b602082108103620002155762000214620001b7565b5b50919050565b60008190508160005260206000209050919050565b60006020601f8301049050919050565b600082821b905092915050565b6000600883026200027f7fffffffffffffffffffffffffffffffffffffffffffffffffffffffffffffffff8262000240565b6200028b868362000240565b95508019841693508086168417925050509392505050565b6000819050919050565b6000819050919050565b6000620002d8620002d2620002cc84620002a3565b620002ad565b620002a3565b9050919050565b6000819050919050565b620002f483620002b7565b6200030c6200030382620002df565b8484546200024d565b825550505050565b600090565b6200032362000314565b62000330818484620002e9565b505050565b5b8181101562000358576200034c60008262000319565b60018101905062000336565b5050565b601f821115620003a75762000371816200021b565b6200037c8462000230565b810160208510156200038c578190505b620003a46200039b8562000230565b83018262000335565b50505b505050565b600082821c905092915050565b6000620003cc60001984600802620003ac565b1980831691505092915050565b6000620003e78383620003b9565b9150826002028217905092915050565b62000402826200017d565b67ffffffffffffffff8111156200041e576200041d62000188565b5b6200042a8254620001e6565b620004378282856200035c565b600060209050601f8311600181146200046f57600084156200045a578287015190505b620004668582620003d9565b865550620004d6565b601f1984166200047f866200021b565b60005b82811015620004a95784890151825560018201915060208501945060208101905062000482565b86831015620004c95784890151620004c5601f891682620003b9565b8355505b6001600288020188555050505b505050505050565b6138cf80620004ee6000396000f3fe6080604052600436106101295760003560e01c80634f558e79116100ab578063bcc9ca5b1161006f578063bcc9ca5b146103bf578063bd85b039146103ea578063d5abeb0114610427578063e985e9c514610452578063f242432a1461048f578063f2fde38b146104b857610129565b80634f558e79146102ee5780636447c35d1461032b578063715018a6146103545780638da5cb5b1461036b578063a22cb4651461039657610129565b80631b2ef1ca116100f25780631b2ef1ca1461022c5780632eb2c2d61461024857806332324ea8146102715780633ccfd60b1461029a5780634e1273f4146102b157610129565b8062fdd58e1461012e57806301ffc9a71461016b578063085c9bac146101a85780630e89341c146101d3578063128ac91b14610210575b600080fd5b34801561013a57600080fd5b50610155600480360381019061015091906120fa565b6104e1565b6040516101629190612149565b60405180910390f35b34801561017757600080fd5b50610192600480360381019061018d91906121bc565b6105a9565b60405161019f9190612204565b60405180910390f35b3480156101b457600080fd5b506101bd61068b565b6040516101ca9190612204565b60405180910390f35b3480156101df57600080fd5b506101fa60048036038101906101f5919061221f565b61069e565b60405161020791906122dc565b60405180910390f35b61022a600480360381019061022591906122fe565b6106a5565b005b610246600480360381019061024191906122fe565b6108ad565b005b34801561025457600080fd5b5061026f600480360381019061026a919061253b565b610a29565b005b34801561027d57600080fd5b5061029860048036038101906102939190612636565b610aca565b005b3480156102a657600080fd5b506102af610b0a565b005b3480156102bd57600080fd5b506102d860048036038101906102d39190612739565b610b68565b6040516102e5919061286f565b60405180910390f35b3480156102fa57600080fd5b506103156004803603810190610310919061221f565b610c81565b6040516103229190612204565b60405180910390f35b34801561033757600080fd5b50610352600480360381019061034d91906128ec565b610c95565b005b34801561036057600080fd5b50610369610d42565b005b34801561037757600080fd5b50610380610d56565b60405161038d9190612948565b60405180910390f35b3480156103a257600080fd5b506103bd60048036038101906103b89190612963565b610d80565b005b3480156103cb57600080fd5b506103d4610d96565b6040516103e19190612204565b60405180910390f35b3480156103f657600080fd5b50610411600480360381019061040c919061221f565b610da9565b60405161041e9190612149565b60405180910390f35b34801561043357600080fd5b5061043c610dc6565b6040516104499190612149565b60405180910390f35b34801561045e57600080fd5b50610479600480360381019061047491906129a3565b610dcb565b6040516104869190612204565b60405180910390f35b34801561049b57600080fd5b506104b660048036038101906104b191906129e3565b610e5f565b005b3480156104c457600080fd5b506104df60048036038101906104da9190612a7a565b610f00565b005b60008073ffffffffffffffffffffffffffffffffffffffff168373ffffffffffffffffffffffffffffffffffffffff1603610551576040517f08c379a000000000000000000000000000000000000000000000000000000000815260040161054890612b19565b60405180910390fd5b60008083815260200190815260200160002060008473ffffffffffffffffffffffffffffffffffffffff1673ffffffffffffffffffffffffffffffffffffffff16815260200190815260200160002054905092915050565b60007fd9b67a26000000000000000000000000000000000000000000000000000000007bffffffffffffffffffffffffffffffffffffffffffffffffffffffff1916827bffffffffffffffffffffffffffffffffffffffffffffffffffffffff1916148061067457507f0e89341c000000000000000000000000000000000000000000000000000000007bffffffffffffffffffffffffffffffffffffffffffffffffffffffff1916827bffffffffffffffffffffffffffffffffffffffffffffffffffffffff1916145b80610684575061068382610f83565b5b9050919050565b600560019054906101000a900460ff1681565b6060919050565b600560019054906101000a900460ff166106f4576040517f08c379a00000000000000000000000000000000000000000000000000000000081526004016106eb90612b85565b60405180910390fd5b600660003373ffffffffffffffffffffffffffffffffffffffff1673ffffffffffffffffffffffffffffffffffffffff16815260200190815260200160002060009054906101000a900460ff16610780576040517f08c379a000000000000000000000000000000000000000000000000000000000815260040161077790612c17565b60405180910390fd5b80601461078d9190612c66565b34146107ce576040517f08c379a00000000000000000000000000000000000000000000000000000000081526004016107c590612cf4565b60405180910390fd5b60028210610811576040517f08c379a000000000000000000000000000000000000000000000000000000000815260040161080890612d60565b60405180910390fd5b60328161081d84610da9565b6108279190612d80565b1115610868576040517f08c379a000000000000000000000000000000000000000000000000000000000815260040161085f90612e00565b60405180910390fd5b6108a93383836040518060400160405280600181526020017f2000000000000000000000000000000000000000000000000000000000000000815250610fed565b5050565b600560009054906101000a900460ff166108fc576040517f08c379a00000000000000000000000000000000000000000000000000000000081526004016108f390612e6c565b60405180910390fd5b6002821061093f576040517f08c379a000000000000000000000000000000000000000000000000000000000815260040161093690612d60565b60405180910390fd5b80602861094c9190612c66565b341461098d576040517f08c379a000000000000000000000000000000000000000000000000000000000815260040161098490612ed8565b60405180910390fd5b60328161099984610da9565b6109a39190612d80565b11156109e4576040517f08c379a00000000000000000000000000000000000000000000000000000000081526004016109db90612e00565b60405180910390fd5b610a253383836040518060400160405280600181526020017f2000000000000000000000000000000000000000000000000000000000000000815250610fed565b5050565b610a3161119d565b73ffffffffffffffffffffffffffffffffffffffff168573ffffffffffffffffffffffffffffffffffffffff161480610a775750610a7685610a7161119d565b610dcb565b5b610ab6576040517f08c379a0000000000000000000000000000000000000000000000000000000008152600401610aad90612f6a565b60405180910390fd5b610ac385858585856111a5565b5050505050565b610ad26114c6565b81600560006101000a81548160ff02191690831515021790555080600560016101000a81548160ff0219169083151502179055505050565b610b126114c6565b6000479050610b1f610d56565b73ffffffffffffffffffffffffffffffffffffffff166108fc829081150290604051600060405180830381858888f19350505050158015610b64573d6000803e3d6000fd5b5050565b60608151835114610bae576040517f08c379a0000000000000000000000000000000000000000000000000000000008152600401610ba590612ffc565b60405180910390fd5b6000835167ffffffffffffffff811115610bcb57610bca612343565b5b604051908082528060200260200182016040528015610bf95781602001602082028036833780820191505090505b50905060005b8451811015610c7657610c46858281518110610c1e57610c1d61301c565b5b6020026020010151858381518110610c3957610c3861301c565b5b60200260200101516104e1565b828281518110610c5957610c5861301c565b5b60200260200101818152505080610c6f9061304b565b9050610bff565b508091505092915050565b600080610c8d83610da9565b119050919050565b610c9d6114c6565b60005b82829050811015610d3d57600160066000858585818110610cc457610cc361301c565b5b9050602002016020810190610cd99190612a7a565b73ffffffffffffffffffffffffffffffffffffffff1673ffffffffffffffffffffffffffffffffffffffff16815260200190815260200160002060006101000a81548160ff0219169083151502179055508080610d359061304b565b915050610ca0565b505050565b610d4a6114c6565b610d546000611544565b565b6000600360009054906101000a900473ffffffffffffffffffffffffffffffffffffffff16905090565b610d92610d8b61119d565b838361160a565b5050565b600560009054906101000a900460ff1681565b600060046000838152602001908152602001600020549050919050565b603281565b6000600160008473ffffffffffffffffffffffffffffffffffffffff1673ffffffffffffffffffffffffffffffffffffffff16815260200190815260200160002060008373ffffffffffffffffffffffffffffffffffffffff1673ffffffffffffffffffffffffffffffffffffffff16815260200190815260200160002060009054906101000a900460ff16905092915050565b610e6761119d565b73ffffffffffffffffffffffffffffffffffffffff168573ffffffffffffffffffffffffffffffffffffffff161480610ead5750610eac85610ea761119d565b610dcb565b5b610eec576040517f08c379a0000000000000000000000000000000000000000000000000000000008152600401610ee390612f6a565b60405180910390fd5b610ef98585858585611776565b5050505050565b610f086114c6565b600073ffffffffffffffffffffffffffffffffffffffff168173ffffffffffffffffffffffffffffffffffffffff1603610f77576040517f08c379a0000000000000000000000000000000000000000000000000000000008152600401610f6e90613105565b60405180910390fd5b610f8081611544565b50565b60007f01ffc9a7000000000000000000000000000000000000000000000000000000007bffffffffffffffffffffffffffffffffffffffffffffffffffffffff1916827bffffffffffffffffffffffffffffffffffffffffffffffffffffffff1916149050919050565b600073ffffffffffffffffffffffffffffffffffffffff168473ffffffffffffffffffffffffffffffffffffffff160361105c576040517f08c379a000000000000000000000000000000000000000000000000000000000815260040161105390613197565b60405180910390fd5b600061106661119d565b9050600061107385611a11565b9050600061108085611a11565b905061109183600089858589611a8b565b8460008088815260200190815260200160002060008973ffffffffffffffffffffffffffffffffffffffff1673ffffffffffffffffffffffffffffffffffffffff16815260200190815260200160002060008282546110f09190612d80565b925050819055508673ffffffffffffffffffffffffffffffffffffffff16600073ffffffffffffffffffffffffffffffffffffffff168473ffffffffffffffffffffffffffffffffffffffff167fc3d58168c5ae7397731d063d5bbf3d657854427343f4c083240f7aacaa2d0f62898960405161116e9291906131b7565b60405180910390a461118583600089858589611aa1565b61119483600089898989611aa9565b50505050505050565b600033905090565b81518351146111e9576040517f08c379a00000000000000000000000000000000000000000000000000000000081526004016111e090613252565b60405180910390fd5b600073ffffffffffffffffffffffffffffffffffffffff168473ffffffffffffffffffffffffffffffffffffffff1603611258576040517f08c379a000000000000000000000000000000000000000000000000000000000815260040161124f906132e4565b60405180910390fd5b600061126261119d565b9050611272818787878787611a8b565b60005b84518110156114235760008582815181106112935761129261301c565b5b6020026020010151905060008583815181106112b2576112b161301c565b5b60200260200101519050600080600084815260200190815260200160002060008b73ffffffffffffffffffffffffffffffffffffffff1673ffffffffffffffffffffffffffffffffffffffff16815260200190815260200160002054905081811015611353576040517f08c379a000000000000000000000000000000000000000000000000000000000815260040161134a90613376565b60405180910390fd5b81810360008085815260200190815260200160002060008c73ffffffffffffffffffffffffffffffffffffffff1673ffffffffffffffffffffffffffffffffffffffff168152602001908152602001600020819055508160008085815260200190815260200160002060008b73ffffffffffffffffffffffffffffffffffffffff1673ffffffffffffffffffffffffffffffffffffffff16815260200190815260200160002060008282546114089190612d80565b925050819055505050508061141c9061304b565b9050611275565b508473ffffffffffffffffffffffffffffffffffffffff168673ffffffffffffffffffffffffffffffffffffffff168273ffffffffffffffffffffffffffffffffffffffff167f4a39dc06d4c0dbc64b70af90fd698a233a518aa5d07e595d983b8c0526c8f7fb878760405161149a929190613396565b60405180910390a46114b0818787878787611aa1565b6114be818787878787611c80565b505050505050565b6114ce61119d565b73ffffffffffffffffffffffffffffffffffffffff166114ec610d56565b73ffffffffffffffffffffffffffffffffffffffff1614611542576040517f08c379a000000000000000000000000000000000000000000000000000000000815260040161153990613419565b60405180910390fd5b565b6000600360009054906101000a900473ffffffffffffffffffffffffffffffffffffffff16905081600360006101000a81548173ffffffffffffffffffffffffffffffffffffffff021916908373ffffffffffffffffffffffffffffffffffffffff1602179055508173ffffffffffffffffffffffffffffffffffffffff168173ffffffffffffffffffffffffffffffffffffffff167f8be0079c531659141344cd1fd0a4f28419497f9722a3daafe3b4186f6b6457e060405160405180910390a35050565b8173ffffffffffffffffffffffffffffffffffffffff168373ffffffffffffffffffffffffffffffffffffffff1603611678576040517f08c379a000000000000000000000000000000000000000000000000000000000815260040161166f906134ab565b60405180910390fd5b80600160008573ffffffffffffffffffffffffffffffffffffffff1673ffffffffffffffffffffffffffffffffffffffff16815260200190815260200160002060008473ffffffffffffffffffffffffffffffffffffffff1673ffffffffffffffffffffffffffffffffffffffff16815260200190815260200160002060006101000a81548160ff0219169083151502179055508173ffffffffffffffffffffffffffffffffffffffff168373ffffffffffffffffffffffffffffffffffffffff167f17307eab39ab6107e8899845ad3d59bd9653f200f220920489ca2b5937696c31836040516117699190612204565b60405180910390a3505050565b600073ffffffffffffffffffffffffffffffffffffffff168473ffffffffffffffffffffffffffffffffffffffff16036117e5576040517f08c379a00000000000000000000000000000000000000000000000000000000081526004016117dc906132e4565b60405180910390fd5b60006117ef61119d565b905060006117fc85611a11565b9050600061180985611a11565b9050611819838989858589611a8b565b600080600088815260200190815260200160002060008a73ffffffffffffffffffffffffffffffffffffffff1673ffffffffffffffffffffffffffffffffffffffff168152602001908152602001600020549050858110156118b0576040517f08c379a00000000000000000000000000000000000000000000000000000000081526004016118a790613376565b60405180910390fd5b85810360008089815260200190815260200160002060008b73ffffffffffffffffffffffffffffffffffffffff1673ffffffffffffffffffffffffffffffffffffffff168152602001908152602001600020819055508560008089815260200190815260200160002060008a73ffffffffffffffffffffffffffffffffffffffff1673ffffffffffffffffffffffffffffffffffffffff16815260200190815260200160002060008282546119659190612d80565b925050819055508773ffffffffffffffffffffffffffffffffffffffff168973ffffffffffffffffffffffffffffffffffffffff168573ffffffffffffffffffffffffffffffffffffffff167fc3d58168c5ae7397731d063d5bbf3d657854427343f4c083240f7aacaa2d0f628a8a6040516119e29291906131b7565b60405180910390a46119f8848a8a86868a611aa1565b611a06848a8a8a8a8a611aa9565b505050505050505050565b60606000600167ffffffffffffffff811115611a3057611a2f612343565b5b604051908082528060200260200182016040528015611a5e5781602001602082028036833780820191505090505b5090508281600081518110611a7657611a7561301c565b5b60200260200101818152505080915050919050565b611a99868686868686611e57565b505050505050565b505050505050565b611ac88473ffffffffffffffffffffffffffffffffffffffff16612027565b15611c78578373ffffffffffffffffffffffffffffffffffffffff1663f23a6e6187878686866040518663ffffffff1660e01b8152600401611b0e959493929190613520565b6020604051808303816000875af1925050508015611b4a57506040513d601f19601f82011682018060405250810190611b47919061358f565b60015b611bef57611b566135c9565b806308c379a003611bb25750611b6a6135eb565b80611b755750611bb4565b806040517f08c379a0000000000000000000000000000000000000000000000000000000008152600401611ba991906122dc565b60405180910390fd5b505b6040517f08c379a0000000000000000000000000000000000000000000000000000000008152600401611be6906136ed565b60405180910390fd5b63f23a6e6160e01b7bffffffffffffffffffffffffffffffffffffffffffffffffffffffff1916817bffffffffffffffffffffffffffffffffffffffffffffffffffffffff191614611c76576040517f08c379a0000000000000000000000000000000000000000000000000000000008152600401611c6d9061377f565b60405180910390fd5b505b505050505050565b611c9f8473ffffffffffffffffffffffffffffffffffffffff16612027565b15611e4f578373ffffffffffffffffffffffffffffffffffffffff1663bc197c8187878686866040518663ffffffff1660e01b8152600401611ce595949392919061379f565b6020604051808303816000875af1925050508015611d2157506040513d601f19601f82011682018060405250810190611d1e919061358f565b60015b611dc657611d2d6135c9565b806308c379a003611d895750611d416135eb565b80611d4c5750611d8b565b806040517f08c379a0000000000000000000000000000000000000000000000000000000008152600401611d8091906122dc565b60405180910390fd5b505b6040517f08c379a0000000000000000000000000000000000000000000000000000000008152600401611dbd906136ed565b60405180910390fd5b63bc197c8160e01b7bffffffffffffffffffffffffffffffffffffffffffffffffffffffff1916817bffffffffffffffffffffffffffffffffffffffffffffffffffffffff191614611e4d576040517f08c379a0000000000000000000000000000000000000000000000000000000008152600401611e449061377f565b60405180910390fd5b505b505050505050565b611e6586868686868661204a565b600073ffffffffffffffffffffffffffffffffffffffff168573ffffffffffffffffffffffffffffffffffffffff1603611f165760005b8351811015611f1457828181518110611eb857611eb761301c565b5b602002602001015160046000868481518110611ed757611ed661301c565b5b602002602001015181526020019081526020016000206000828254611efc9190612d80565b9250508190555080611f0d9061304b565b9050611e9c565b505b600073ffffffffffffffffffffffffffffffffffffffff168473ffffffffffffffffffffffffffffffffffffffff160361201f5760005b835181101561201d576000848281518110611f6b57611f6a61301c565b5b602002602001015190506000848381518110611f8a57611f8961301c565b5b6020026020010151905060006004600084815260200190815260200160002054905081811015611fef576040517f08c379a0000000000000000000000000000000000000000000000000000000008152600401611fe690613879565b60405180910390fd5b8181036004600085815260200190815260200160002081905550505050806120169061304b565b9050611f4d565b505b505050505050565b6000808273ffffffffffffffffffffffffffffffffffffffff163b119050919050565b505050505050565b6000604051905090565b600080fd5b600080fd5b600073ffffffffffffffffffffffffffffffffffffffff82169050919050565b600061209182612066565b9050919050565b6120a181612086565b81146120ac57600080fd5b50565b6000813590506120be81612098565b92915050565b6000819050919050565b6120d7816120c4565b81146120e257600080fd5b50565b6000813590506120f4816120ce565b92915050565b600080604083850312156121115761211061205c565b5b600061211f858286016120af565b9250506020612130858286016120e5565b9150509250929050565b612143816120c4565b82525050565b600060208201905061215e600083018461213a565b92915050565b60007fffffffff0000000000000000000000000000000000000000000000000000000082169050919050565b61219981612164565b81146121a457600080fd5b50565b6000813590506121b681612190565b92915050565b6000602082840312156121d2576121d161205c565b5b60006121e0848285016121a7565b91505092915050565b60008115159050919050565b6121fe816121e9565b82525050565b600060208201905061221960008301846121f5565b92915050565b6000602082840312156122355761223461205c565b5b6000612243848285016120e5565b91505092915050565b600081519050919050565b600082825260208201905092915050565b60005b8381101561228657808201518184015260208101905061226b565b60008484015250505050565b6000601f19601f8301169050919050565b60006122ae8261224c565b6122b88185612257565b93506122c8818560208601612268565b6122d181612292565b840191505092915050565b600060208201905081810360008301526122f681846122a3565b905092915050565b600080604083850312156123155761231461205c565b5b6000612323858286016120e5565b9250506020612334858286016120e5565b9150509250929050565b600080fd5b7f4e487b7100000000000000000000000000000000000000000000000000000000600052604160045260246000fd5b61237b82612292565b810181811067ffffffffffffffff8211171561239a57612399612343565b5b80604052505050565b60006123ad612052565b90506123b98282612372565b919050565b600067ffffffffffffffff8211156123d9576123d8612343565b5b602082029050602081019050919050565b600080fd5b60006124026123fd846123be565b6123a3565b90508083825260208201905060208402830185811115612425576124246123ea565b5b835b8181101561244e578061243a88826120e5565b845260208401935050602081019050612427565b5050509392505050565b600082601f83011261246d5761246c61233e565b5b813561247d8482602086016123ef565b91505092915050565b600080fd5b600067ffffffffffffffff8211156124a6576124a5612343565b5b6124af82612292565b9050602081019050919050565b82818337600083830152505050565b60006124de6124d98461248b565b6123a3565b9050828152602081018484840111156124fa576124f9612486565b5b6125058482856124bc565b509392505050565b600082601f8301126125225761252161233e565b5b81356125328482602086016124cb565b91505092915050565b600080600080600060a086880312156125575761255661205c565b5b6000612565888289016120af565b9550506020612576888289016120af565b945050604086013567ffffffffffffffff81111561259757612596612061565b5b6125a388828901612458565b935050606086013567ffffffffffffffff8111156125c4576125c3612061565b5b6125d088828901612458565b925050608086013567ffffffffffffffff8111156125f1576125f0612061565b5b6125fd8882890161250d565b9150509295509295909350565b612613816121e9565b811461261e57600080fd5b50565b6000813590506126308161260a565b92915050565b6000806040838503121561264d5761264c61205c565b5b600061265b85828601612621565b925050602061266c85828601612621565b9150509250929050565b600067ffffffffffffffff82111561269157612690612343565b5b602082029050602081019050919050565b60006126b56126b084612676565b6123a3565b905080838252602082019050602084028301858111156126d8576126d76123ea565b5b835b8181101561270157806126ed88826120af565b8452602084019350506020810190506126da565b5050509392505050565b600082601f8301126127205761271f61233e565b5b81356127308482602086016126a2565b91505092915050565b600080604083850312156127505761274f61205c565b5b600083013567ffffffffffffffff81111561276e5761276d612061565b5b61277a8582860161270b565b925050602083013567ffffffffffffffff81111561279b5761279a612061565b5b6127a785828601612458565b9150509250929050565b600081519050919050565b600082825260208201905092915050565b6000819050602082019050919050565b6127e6816120c4565b82525050565b60006127f883836127dd565b60208301905092915050565b6000602082019050919050565b600061281c826127b1565b61282681856127bc565b9350612831836127cd565b8060005b8381101561286257815161284988826127ec565b975061285483612804565b925050600181019050612835565b5085935050505092915050565b600060208201905081810360008301526128898184612811565b905092915050565b600080fd5b60008083601f8401126128ac576128ab61233e565b5b8235905067ffffffffffffffff8111156128c9576128c8612891565b5b6020830191508360208202830111156128e5576128e46123ea565b5b9250929050565b600080602083850312156129035761290261205c565b5b600083013567ffffffffffffffff81111561292157612920612061565b5b61292d85828601612896565b92509250509250929050565b61294281612086565b82525050565b600060208201905061295d6000830184612939565b92915050565b6000806040838503121561297a5761297961205c565b5b6000612988858286016120af565b925050602061299985828601612621565b9150509250929050565b600080604083850312156129ba576129b961205c565b5b60006129c8858286016120af565b92505060206129d9858286016120af565b9150509250929050565b600080600080600060a086880312156129ff576129fe61205c565b5b6000612a0d888289016120af565b9550506020612a1e888289016120af565b9450506040612a2f888289016120e5565b9350506060612a40888289016120e5565b925050608086013567ffffffffffffffff811115612a6157612a60612061565b5b612a6d8882890161250d565b9150509295509295909350565b600060208284031215612a9057612a8f61205c565b5b6000612a9e848285016120af565b91505092915050565b7f455243313135353a2061646472657373207a65726f206973206e6f742061207660008201527f616c6964206f776e657200000000000000000000000000000000000000000000602082015250565b6000612b03602a83612257565b9150612b0e82612aa7565b604082019050919050565b60006020820190508181036000830152612b3281612af6565b9050919050565b7f49747320436c6f73656400000000000000000000000000000000000000000000600082015250565b6000612b6f600a83612257565b9150612b7a82612b39565b602082019050919050565b60006020820190508181036000830152612b9e81612b62565b9050919050565b7f596f7520617265206e6f74206c697374656420696e20616c6f777765646c697360008201527f7400000000000000000000000000000000000000000000000000000000000000602082015250565b6000612c01602183612257565b9150612c0c82612ba5565b604082019050919050565b60006020820190508181036000830152612c3081612bf4565b9050919050565b7f4e487b7100000000000000000000000000000000000000000000000000000000600052601160045260246000fd5b6000612c71826120c4565b9150612c7c836120c4565b9250828202612c8a816120c4565b91508282048414831517612ca157612ca0612c37565b5b5092915050565b7f4e6f7420456e6f756768206d6f6e65792073656e742021000000000000000000600082015250565b6000612cde601783612257565b9150612ce982612ca8565b602082019050919050565b60006020820190508181036000830152612d0d81612cd1565b9050919050565b7f536f72727920796f7520617265206d696e746e672077726f6e67206e66740000600082015250565b6000612d4a601e83612257565b9150612d5582612d14565b602082019050919050565b60006020820190508181036000830152612d7981612d3d565b9050919050565b6000612d8b826120c4565b9150612d96836120c4565b9250828201905080821115612dae57612dad612c37565b5b92915050565b7f4c696d6979206578656564656400000000000000000000000000000000000000600082015250565b6000612dea600d83612257565b9150612df582612db4565b602082019050919050565b60006020820190508181036000830152612e1981612ddd565b9050919050565b7f49747320636c6f73656400000000000000000000000000000000000000000000600082015250565b6000612e56600a83612257565b9150612e6182612e20565b602082019050919050565b60006020820190508181036000830152612e8581612e49565b9050919050565b7f456e74657220726967687420616d6f756e740000000000000000000000000000600082015250565b6000612ec2601283612257565b9150612ecd82612e8c565b602082019050919050565b60006020820190508181036000830152612ef181612eb5565b9050919050565b7f455243313135353a2063616c6c6572206973206e6f7420746f6b656e206f776e60008201527f6572206f7220617070726f766564000000000000000000000000000000000000602082015250565b6000612f54602e83612257565b9150612f5f82612ef8565b604082019050919050565b60006020820190508181036000830152612f8381612f47565b9050919050565b7f455243313135353a206163636f756e747320616e6420696473206c656e67746860008201527f206d69736d617463680000000000000000000000000000000000000000000000602082015250565b6000612fe6602983612257565b9150612ff182612f8a565b604082019050919050565b6000602082019050818103600083015261301581612fd9565b9050919050565b7f4e487b7100000000000000000000000000000000000000000000000000000000600052603260045260246000fd5b6000613056826120c4565b91507fffffffffffffffffffffffffffffffffffffffffffffffffffffffffffffffff820361308857613087612c37565b5b600182019050919050565b7f4f776e61626c653a206e6577206f776e657220697320746865207a65726f206160008201527f6464726573730000000000000000000000000000000000000000000000000000602082015250565b60006130ef602683612257565b91506130fa82613093565b604082019050919050565b6000602082019050818103600083015261311e816130e2565b9050919050565b7f455243313135353a206d696e7420746f20746865207a65726f2061646472657360008201527f7300000000000000000000000000000000000000000000000000000000000000602082015250565b6000613181602183612257565b915061318c82613125565b604082019050919050565b600060208201905081810360008301526131b081613174565b9050919050565b60006040820190506131cc600083018561213a565b6131d9602083018461213a565b9392505050565b7f455243313135353a2069647320616e6420616d6f756e7473206c656e6774682060008201527f6d69736d61746368000000000000000000000000000000000000000000000000602082015250565b600061323c602883612257565b9150613247826131e0565b604082019050919050565b6000602082019050818103600083015261326b8161322f565b9050919050565b7f455243313135353a207472616e7366657220746f20746865207a65726f20616460008201527f6472657373000000000000000000000000000000000000000000000000000000602082015250565b60006132ce602583612257565b91506132d982613272565b604082019050919050565b600060208201905081810360008301526132fd816132c1565b9050919050565b7f455243313135353a20696e73756666696369656e742062616c616e636520666f60008201527f72207472616e7366657200000000000000000000000000000000000000000000602082015250565b6000613360602a83612257565b915061336b82613304565b604082019050919050565b6000602082019050818103600083015261338f81613353565b9050919050565b600060408201905081810360008301526133b08185612811565b905081810360208301526133c48184612811565b90509392505050565b7f4f776e61626c653a2063616c6c6572206973206e6f7420746865206f776e6572600082015250565b6000613403602083612257565b915061340e826133cd565b602082019050919050565b60006020820190508181036000830152613432816133f6565b9050919050565b7f455243313135353a2073657474696e6720617070726f76616c2073746174757360008201527f20666f722073656c660000000000000000000000000000000000000000000000602082015250565b6000613495602983612257565b91506134a082613439565b604082019050919050565b600060208201905081810360008301526134c481613488565b9050919050565b600081519050919050565b600082825260208201905092915050565b60006134f2826134cb565b6134fc81856134d6565b935061350c818560208601612268565b61351581612292565b840191505092915050565b600060a0820190506135356000830188612939565b6135426020830187612939565b61354f604083018661213a565b61355c606083018561213a565b818103608083015261356e81846134e7565b90509695505050505050565b60008151905061358981612190565b92915050565b6000602082840312156135a5576135a461205c565b5b60006135b38482850161357a565b91505092915050565b60008160e01c9050919050565b600060033d11156135e85760046000803e6135e56000516135bc565b90505b90565b600060443d10613678576135fd612052565b60043d036004823e80513d602482011167ffffffffffffffff82111715613625575050613678565b808201805167ffffffffffffffff8111156136435750505050613678565b80602083010160043d038501811115613660575050505050613678565b61366f82602001850186612372565b82955050505050505b90565b7f455243313135353a207472616e7366657220746f206e6f6e2d4552433131353560008201527f526563656976657220696d706c656d656e746572000000000000000000000000602082015250565b60006136d7603483612257565b91506136e28261367b565b604082019050919050565b60006020820190508181036000830152613706816136ca565b9050919050565b7f455243313135353a204552433131353552656365697665722072656a6563746560008201527f6420746f6b656e73000000000000000000000000000000000000000000000000602082015250565b6000613769602883612257565b91506137748261370d565b604082019050919050565b600060208201905081810360008301526137988161375c565b9050919050565b600060a0820190506137b46000830188612939565b6137c16020830187612939565b81810360408301526137d38186612811565b905081810360608301526137e78185612811565b905081810360808301526137fb81846134e7565b90509695505050505050565b7f455243313135353a206275726e20616d6f756e74206578636565647320746f7460008201527f616c537570706c79000000000000000000000000000000000000000000000000602082015250565b6000613863602883612257565b915061386e82613807565b604082019050919050565b6000602082019050818103600083015261389281613856565b905091905056fea2646970667358221220827172e2010c8c8f2366a1827b37729d010759dcaede611a224928afcfc2919364736f6c6343000812003368747470733a2f2f676174657761792e70696e6174612e636c6f75642f697066732f516d5a316341476869786f6a4568616d5367716264505665784376414c35544a46316953705141783944745152322f",
			"opcodes": "PUSH1 0x80 PUSH1 0x40 MSTORE PUSH1 0x0 PUSH1 0x5 PUSH1 0x0 PUSH2 0x100 EXP DUP2 SLOAD DUP2 PUSH1 0xFF MUL NOT AND SWAP1 DUP4 ISZERO ISZERO MUL OR SWAP1 SSTORE POP PUSH1 0x1 PUSH1 0x5 PUSH1 0x1 PUSH2 0x100 EXP DUP2 SLOAD DUP2 PUSH1 0xFF MUL NOT AND SWAP1 DUP4 ISZERO ISZERO MUL OR SWAP1 SSTORE POP CALLVALUE DUP1 ISZERO PUSH3 0x47 JUMPI PUSH1 0x0 DUP1 REVERT JUMPDEST POP PUSH1 0x40 MLOAD DUP1 PUSH1 0x80 ADD PUSH1 0x40 MSTORE DUP1 PUSH1 0x51 DUP2 MSTORE PUSH1 0x20 ADD PUSH3 0x3DBD PUSH1 0x51 SWAP2 CODECOPY PUSH3 0x73 DUP2 PUSH3 0x9A PUSH1 0x20 SHL PUSH1 0x20 SHR JUMP JUMPDEST POP PUSH3 0x94 PUSH3 0x88 PUSH3 0xAF PUSH1 0x20 SHL PUSH1 0x20 SHR JUMP JUMPDEST PUSH3 0xB7 PUSH1 0x20 SHL PUSH1 0x20 SHR JUMP JUMPDEST PUSH3 0x4DE JUMP JUMPDEST DUP1 PUSH1 0x2 SWAP1 DUP2 PUSH3 0xAB SWAP2 SWAP1 PUSH3 0x3F7 JUMP JUMPDEST POP POP JUMP JUMPDEST PUSH1 0x0 CALLER SWAP1 POP SWAP1 JUMP JUMPDEST PUSH1 0x0 PUSH1 0x3 PUSH1 0x0 SWAP1 SLOAD SWAP1 PUSH2 0x100 EXP SWAP1 DIV PUSH20 0xFFFFFFFFFFFFFFFFFFFFFFFFFFFFFFFFFFFFFFFF AND SWAP1 POP DUP2 PUSH1 0x3 PUSH1 0x0 PUSH2 0x100 EXP DUP2 SLOAD DUP2 PUSH20 0xFFFFFFFFFFFFFFFFFFFFFFFFFFFFFFFFFFFFFFFF MUL NOT AND SWAP1 DUP4 PUSH20 0xFFFFFFFFFFFFFFFFFFFFFFFFFFFFFFFFFFFFFFFF AND MUL OR SWAP1 SSTORE POP DUP2 PUSH20 0xFFFFFFFFFFFFFFFFFFFFFFFFFFFFFFFFFFFFFFFF AND DUP2 PUSH20 0xFFFFFFFFFFFFFFFFFFFFFFFFFFFFFFFFFFFFFFFF AND PUSH32 0x8BE0079C531659141344CD1FD0A4F28419497F9722A3DAAFE3B4186F6B6457E0 PUSH1 0x40 MLOAD PUSH1 0x40 MLOAD DUP1 SWAP2 SUB SWAP1 LOG3 POP POP JUMP JUMPDEST PUSH1 0x0 DUP2 MLOAD SWAP1 POP SWAP2 SWAP1 POP JUMP JUMPDEST PUSH32 0x4E487B7100000000000000000000000000000000000000000000000000000000 PUSH1 0x0 MSTORE PUSH1 0x41 PUSH1 0x4 MSTORE PUSH1 0x24 PUSH1 0x0 REVERT JUMPDEST PUSH32 0x4E487B7100000000000000000000000000000000000000000000000000000000 PUSH1 0x0 MSTORE PUSH1 0x22 PUSH1 0x4 MSTORE PUSH1 0x24 PUSH1 0x0 REVERT JUMPDEST PUSH1 0x0 PUSH1 0x2 DUP3 DIV SWAP1 POP PUSH1 0x1 DUP3 AND DUP1 PUSH3 0x1FF JUMPI PUSH1 0x7F DUP3 AND SWAP2 POP JUMPDEST PUSH1 0x20 DUP3 LT DUP2 SUB PUSH3 0x215 JUMPI PUSH3 0x214 PUSH3 0x1B7 JUMP JUMPDEST JUMPDEST POP SWAP2 SWAP1 POP JUMP JUMPDEST PUSH1 0x0 DUP2 SWAP1 POP DUP2 PUSH1 0x0 MSTORE PUSH1 0x20 PUSH1 0x0 KECCAK256 SWAP1 POP SWAP2 SWAP1 POP JUMP JUMPDEST PUSH1 0x0 PUSH1 0x20 PUSH1 0x1F DUP4 ADD DIV SWAP1 POP SWAP2 SWAP1 POP JUMP JUMPDEST PUSH1 0x0 DUP3 DUP3 SHL SWAP1 POP SWAP3 SWAP2 POP POP JUMP JUMPDEST PUSH1 0x0 PUSH1 0x8 DUP4 MUL PUSH3 0x27F PUSH32 0xFFFFFFFFFFFFFFFFFFFFFFFFFFFFFFFFFFFFFFFFFFFFFFFFFFFFFFFFFFFFFFFF DUP3 PUSH3 0x240 JUMP JUMPDEST PUSH3 0x28B DUP7 DUP4 PUSH3 0x240 JUMP JUMPDEST SWAP6 POP DUP1 NOT DUP5 AND SWAP4 POP DUP1 DUP7 AND DUP5 OR SWAP3 POP POP POP SWAP4 SWAP3 POP POP POP JUMP JUMPDEST PUSH1 0x0 DUP2 SWAP1 POP SWAP2 SWAP1 POP JUMP JUMPDEST PUSH1 0x0 DUP2 SWAP1 POP SWAP2 SWAP1 POP JUMP JUMPDEST PUSH1 0x0 PUSH3 0x2D8 PUSH3 0x2D2 PUSH3 0x2CC DUP5 PUSH3 0x2A3 JUMP JUMPDEST PUSH3 0x2AD JUMP JUMPDEST PUSH3 0x2A3 JUMP JUMPDEST SWAP1 POP SWAP2 SWAP1 POP JUMP JUMPDEST PUSH1 0x0 DUP2 SWAP1 POP SWAP2 SWAP1 POP JUMP JUMPDEST PUSH3 0x2F4 DUP4 PUSH3 0x2B7 JUMP JUMPDEST PUSH3 0x30C PUSH3 0x303 DUP3 PUSH3 0x2DF JUMP JUMPDEST DUP5 DUP5 SLOAD PUSH3 0x24D JUMP JUMPDEST DUP3 SSTORE POP POP POP POP JUMP JUMPDEST PUSH1 0x0 SWAP1 JUMP JUMPDEST PUSH3 0x323 PUSH3 0x314 JUMP JUMPDEST PUSH3 0x330 DUP2 DUP5 DUP5 PUSH3 0x2E9 JUMP JUMPDEST POP POP POP JUMP JUMPDEST JUMPDEST DUP2 DUP2 LT ISZERO PUSH3 0x358 JUMPI PUSH3 0x34C PUSH1 0x0 DUP3 PUSH3 0x319 JUMP JUMPDEST PUSH1 0x1 DUP2 ADD SWAP1 POP PUSH3 0x336 JUMP JUMPDEST POP POP JUMP JUMPDEST PUSH1 0x1F DUP3 GT ISZERO PUSH3 0x3A7 JUMPI PUSH3 0x371 DUP2 PUSH3 0x21B JUMP JUMPDEST PUSH3 0x37C DUP5 PUSH3 0x230 JUMP JUMPDEST DUP2 ADD PUSH1 0x20 DUP6 LT ISZERO PUSH3 0x38C JUMPI DUP2 SWAP1 POP JUMPDEST PUSH3 0x3A4 PUSH3 0x39B DUP6 PUSH3 0x230 JUMP JUMPDEST DUP4 ADD DUP3 PUSH3 0x335 JUMP JUMPDEST POP POP JUMPDEST POP POP POP JUMP JUMPDEST PUSH1 0x0 DUP3 DUP3 SHR SWAP1 POP SWAP3 SWAP2 POP POP JUMP JUMPDEST PUSH1 0x0 PUSH3 0x3CC PUSH1 0x0 NOT DUP5 PUSH1 0x8 MUL PUSH3 0x3AC JUMP JUMPDEST NOT DUP1 DUP4 AND SWAP2 POP POP SWAP3 SWAP2 POP POP JUMP JUMPDEST PUSH1 0x0 PUSH3 0x3E7 DUP4 DUP4 PUSH3 0x3B9 JUMP JUMPDEST SWAP2 POP DUP3 PUSH1 0x2 MUL DUP3 OR SWAP1 POP SWAP3 SWAP2 POP POP JUMP JUMPDEST PUSH3 0x402 DUP3 PUSH3 0x17D JUMP JUMPDEST PUSH8 0xFFFFFFFFFFFFFFFF DUP2 GT ISZERO PUSH3 0x41E JUMPI PUSH3 0x41D PUSH3 0x188 JUMP JUMPDEST JUMPDEST PUSH3 0x42A DUP3 SLOAD PUSH3 0x1E6 JUMP JUMPDEST PUSH3 0x437 DUP3 DUP3 DUP6 PUSH3 0x35C JUMP JUMPDEST PUSH1 0x0 PUSH1 0x20 SWAP1 POP PUSH1 0x1F DUP4 GT PUSH1 0x1 DUP2 EQ PUSH3 0x46F JUMPI PUSH1 0x0 DUP5 ISZERO PUSH3 0x45A JUMPI DUP3 DUP8 ADD MLOAD SWAP1 POP JUMPDEST PUSH3 0x466 DUP6 DUP3 PUSH3 0x3D9 JUMP JUMPDEST DUP7 SSTORE POP PUSH3 0x4D6 JUMP JUMPDEST PUSH1 0x1F NOT DUP5 AND PUSH3 0x47F DUP7 PUSH3 0x21B JUMP JUMPDEST PUSH1 0x0 JUMPDEST DUP3 DUP2 LT ISZERO PUSH3 0x4A9 JUMPI DUP5 DUP10 ADD MLOAD DUP3 SSTORE PUSH1 0x1 DUP3 ADD SWAP2 POP PUSH1 0x20 DUP6 ADD SWAP5 POP PUSH1 0x20 DUP2 ADD SWAP1 POP PUSH3 0x482 JUMP JUMPDEST DUP7 DUP4 LT ISZERO PUSH3 0x4C9 JUMPI DUP5 DUP10 ADD MLOAD PUSH3 0x4C5 PUSH1 0x1F DUP10 AND DUP3 PUSH3 0x3B9 JUMP JUMPDEST DUP4 SSTORE POP JUMPDEST PUSH1 0x1 PUSH1 0x2 DUP9 MUL ADD DUP9 SSTORE POP POP POP JUMPDEST POP POP POP POP POP POP JUMP JUMPDEST PUSH2 0x38CF DUP1 PUSH3 0x4EE PUSH1 0x0 CODECOPY PUSH1 0x0 RETURN INVALID PUSH1 0x80 PUSH1 0x40 MSTORE PUSH1 0x4 CALLDATASIZE LT PUSH2 0x129 JUMPI PUSH1 0x0 CALLDATALOAD PUSH1 0xE0 SHR DUP1 PUSH4 0x4F558E79 GT PUSH2 0xAB JUMPI DUP1 PUSH4 0xBCC9CA5B GT PUSH2 0x6F JUMPI DUP1 PUSH4 0xBCC9CA5B EQ PUSH2 0x3BF JUMPI DUP1 PUSH4 0xBD85B039 EQ PUSH2 0x3EA JUMPI DUP1 PUSH4 0xD5ABEB01 EQ PUSH2 0x427 JUMPI DUP1 PUSH4 0xE985E9C5 EQ PUSH2 0x452 JUMPI DUP1 PUSH4 0xF242432A EQ PUSH2 0x48F JUMPI DUP1 PUSH4 0xF2FDE38B EQ PUSH2 0x4B8 JUMPI PUSH2 0x129 JUMP JUMPDEST DUP1 PUSH4 0x4F558E79 EQ PUSH2 0x2EE JUMPI DUP1 PUSH4 0x6447C35D EQ PUSH2 0x32B JUMPI DUP1 PUSH4 0x715018A6 EQ PUSH2 0x354 JUMPI DUP1 PUSH4 0x8DA5CB5B EQ PUSH2 0x36B JUMPI DUP1 PUSH4 0xA22CB465 EQ PUSH2 0x396 JUMPI PUSH2 0x129 JUMP JUMPDEST DUP1 PUSH4 0x1B2EF1CA GT PUSH2 0xF2 JUMPI DUP1 PUSH4 0x1B2EF1CA EQ PUSH2 0x22C JUMPI DUP1 PUSH4 0x2EB2C2D6 EQ PUSH2 0x248 JUMPI DUP1 PUSH4 0x32324EA8 EQ PUSH2 0x271 JUMPI DUP1 PUSH4 0x3CCFD60B EQ PUSH2 0x29A JUMPI DUP1 PUSH4 0x4E1273F4 EQ PUSH2 0x2B1 JUMPI PUSH2 0x129 JUMP JUMPDEST DUP1 PUSH3 0xFDD58E EQ PUSH2 0x12E JUMPI DUP1 PUSH4 0x1FFC9A7 EQ PUSH2 0x16B JUMPI DUP1 PUSH4 0x85C9BAC EQ PUSH2 0x1A8 JUMPI DUP1 PUSH4 0xE89341C EQ PUSH2 0x1D3 JUMPI DUP1 PUSH4 0x128AC91B EQ PUSH2 0x210 JUMPI JUMPDEST PUSH1 0x0 DUP1 REVERT JUMPDEST CALLVALUE DUP1 ISZERO PUSH2 0x13A JUMPI PUSH1 0x0 DUP1 REVERT JUMPDEST POP PUSH2 0x155 PUSH1 0x4 DUP1 CALLDATASIZE SUB DUP2 ADD SWAP1 PUSH2 0x150 SWAP2 SWAP1 PUSH2 0x20FA JUMP JUMPDEST PUSH2 0x4E1 JUMP JUMPDEST PUSH1 0x40 MLOAD PUSH2 0x162 SWAP2 SWAP1 PUSH2 0x2149 JUMP JUMPDEST PUSH1 0x40 MLOAD DUP1 SWAP2 SUB SWAP1 RETURN JUMPDEST CALLVALUE DUP1 ISZERO PUSH2 0x177 JUMPI PUSH1 0x0 DUP1 REVERT JUMPDEST POP PUSH2 0x192 PUSH1 0x4 DUP1 CALLDATASIZE SUB DUP2 ADD SWAP1 PUSH2 0x18D SWAP2 SWAP1 PUSH2 0x21BC JUMP JUMPDEST PUSH2 0x5A9 JUMP JUMPDEST PUSH1 0x40 MLOAD PUSH2 0x19F SWAP2 SWAP1 PUSH2 0x2204 JUMP JUMPDEST PUSH1 0x40 MLOAD DUP1 SWAP2 SUB SWAP1 RETURN JUMPDEST CALLVALUE DUP1 ISZERO PUSH2 0x1B4 JUMPI PUSH1 0x0 DUP1 REVERT JUMPDEST POP PUSH2 0x1BD PUSH2 0x68B JUMP JUMPDEST PUSH1 0x40 MLOAD PUSH2 0x1CA SWAP2 SWAP1 PUSH2 0x2204 JUMP JUMPDEST PUSH1 0x40 MLOAD DUP1 SWAP2 SUB SWAP1 RETURN JUMPDEST CALLVALUE DUP1 ISZERO PUSH2 0x1DF JUMPI PUSH1 0x0 DUP1 REVERT JUMPDEST POP PUSH2 0x1FA PUSH1 0x4 DUP1 CALLDATASIZE SUB DUP2 ADD SWAP1 PUSH2 0x1F5 SWAP2 SWAP1 PUSH2 0x221F JUMP JUMPDEST PUSH2 0x69E JUMP JUMPDEST PUSH1 0x40 MLOAD PUSH2 0x207 SWAP2 SWAP1 PUSH2 0x22DC JUMP JUMPDEST PUSH1 0x40 MLOAD DUP1 SWAP2 SUB SWAP1 RETURN JUMPDEST PUSH2 0x22A PUSH1 0x4 DUP1 CALLDATASIZE SUB DUP2 ADD SWAP1 PUSH2 0x225 SWAP2 SWAP1 PUSH2 0x22FE JUMP JUMPDEST PUSH2 0x6A5 JUMP JUMPDEST STOP JUMPDEST PUSH2 0x246 PUSH1 0x4 DUP1 CALLDATASIZE SUB DUP2 ADD SWAP1 PUSH2 0x241 SWAP2 SWAP1 PUSH2 0x22FE JUMP JUMPDEST PUSH2 0x8AD JUMP JUMPDEST STOP JUMPDEST CALLVALUE DUP1 ISZERO PUSH2 0x254 JUMPI PUSH1 0x0 DUP1 REVERT JUMPDEST POP PUSH2 0x26F PUSH1 0x4 DUP1 CALLDATASIZE SUB DUP2 ADD SWAP1 PUSH2 0x26A SWAP2 SWAP1 PUSH2 0x253B JUMP JUMPDEST PUSH2 0xA29 JUMP JUMPDEST STOP JUMPDEST CALLVALUE DUP1 ISZERO PUSH2 0x27D JUMPI PUSH1 0x0 DUP1 REVERT JUMPDEST POP PUSH2 0x298 PUSH1 0x4 DUP1 CALLDATASIZE SUB DUP2 ADD SWAP1 PUSH2 0x293 SWAP2 SWAP1 PUSH2 0x2636 JUMP JUMPDEST PUSH2 0xACA JUMP JUMPDEST STOP JUMPDEST CALLVALUE DUP1 ISZERO PUSH2 0x2A6 JUMPI PUSH1 0x0 DUP1 REVERT JUMPDEST POP PUSH2 0x2AF PUSH2 0xB0A JUMP JUMPDEST STOP JUMPDEST CALLVALUE DUP1 ISZERO PUSH2 0x2BD JUMPI PUSH1 0x0 DUP1 REVERT JUMPDEST POP PUSH2 0x2D8 PUSH1 0x4 DUP1 CALLDATASIZE SUB DUP2 ADD SWAP1 PUSH2 0x2D3 SWAP2 SWAP1 PUSH2 0x2739 JUMP JUMPDEST PUSH2 0xB68 JUMP JUMPDEST PUSH1 0x40 MLOAD PUSH2 0x2E5 SWAP2 SWAP1 PUSH2 0x286F JUMP JUMPDEST PUSH1 0x40 MLOAD DUP1 SWAP2 SUB SWAP1 RETURN JUMPDEST CALLVALUE DUP1 ISZERO PUSH2 0x2FA JUMPI PUSH1 0x0 DUP1 REVERT JUMPDEST POP PUSH2 0x315 PUSH1 0x4 DUP1 CALLDATASIZE SUB DUP2 ADD SWAP1 PUSH2 0x310 SWAP2 SWAP1 PUSH2 0x221F JUMP JUMPDEST PUSH2 0xC81 JUMP JUMPDEST PUSH1 0x40 MLOAD PUSH2 0x322 SWAP2 SWAP1 PUSH2 0x2204 JUMP JUMPDEST PUSH1 0x40 MLOAD DUP1 SWAP2 SUB SWAP1 RETURN JUMPDEST CALLVALUE DUP1 ISZERO PUSH2 0x337 JUMPI PUSH1 0x0 DUP1 REVERT JUMPDEST POP PUSH2 0x352 PUSH1 0x4 DUP1 CALLDATASIZE SUB DUP2 ADD SWAP1 PUSH2 0x34D SWAP2 SWAP1 PUSH2 0x28EC JUMP JUMPDEST PUSH2 0xC95 JUMP JUMPDEST STOP JUMPDEST CALLVALUE DUP1 ISZERO PUSH2 0x360 JUMPI PUSH1 0x0 DUP1 REVERT JUMPDEST POP PUSH2 0x369 PUSH2 0xD42 JUMP JUMPDEST STOP JUMPDEST CALLVALUE DUP1 ISZERO PUSH2 0x377 JUMPI PUSH1 0x0 DUP1 REVERT JUMPDEST POP PUSH2 0x380 PUSH2 0xD56 JUMP JUMPDEST PUSH1 0x40 MLOAD PUSH2 0x38D SWAP2 SWAP1 PUSH2 0x2948 JUMP JUMPDEST PUSH1 0x40 MLOAD DUP1 SWAP2 SUB SWAP1 RETURN JUMPDEST CALLVALUE DUP1 ISZERO PUSH2 0x3A2 JUMPI PUSH1 0x0 DUP1 REVERT JUMPDEST POP PUSH2 0x3BD PUSH1 0x4 DUP1 CALLDATASIZE SUB DUP2 ADD SWAP1 PUSH2 0x3B8 SWAP2 SWAP1 PUSH2 0x2963 JUMP JUMPDEST PUSH2 0xD80 JUMP JUMPDEST STOP JUMPDEST CALLVALUE DUP1 ISZERO PUSH2 0x3CB JUMPI PUSH1 0x0 DUP1 REVERT JUMPDEST POP PUSH2 0x3D4 PUSH2 0xD96 JUMP JUMPDEST PUSH1 0x40 MLOAD PUSH2 0x3E1 SWAP2 SWAP1 PUSH2 0x2204 JUMP JUMPDEST PUSH1 0x40 MLOAD DUP1 SWAP2 SUB SWAP1 RETURN JUMPDEST CALLVALUE DUP1 ISZERO PUSH2 0x3F6 JUMPI PUSH1 0x0 DUP1 REVERT JUMPDEST POP PUSH2 0x411 PUSH1 0x4 DUP1 CALLDATASIZE SUB DUP2 ADD SWAP1 PUSH2 0x40C SWAP2 SWAP1 PUSH2 0x221F JUMP JUMPDEST PUSH2 0xDA9 JUMP JUMPDEST PUSH1 0x40 MLOAD PUSH2 0x41E SWAP2 SWAP1 PUSH2 0x2149 JUMP JUMPDEST PUSH1 0x40 MLOAD DUP1 SWAP2 SUB SWAP1 RETURN JUMPDEST CALLVALUE DUP1 ISZERO PUSH2 0x433 JUMPI PUSH1 0x0 DUP1 REVERT JUMPDEST POP PUSH2 0x43C PUSH2 0xDC6 JUMP JUMPDEST PUSH1 0x40 MLOAD PUSH2 0x449 SWAP2 SWAP1 PUSH2 0x2149 JUMP JUMPDEST PUSH1 0x40 MLOAD DUP1 SWAP2 SUB SWAP1 RETURN JUMPDEST CALLVALUE DUP1 ISZERO PUSH2 0x45E JUMPI PUSH1 0x0 DUP1 REVERT JUMPDEST POP PUSH2 0x479 PUSH1 0x4 DUP1 CALLDATASIZE SUB DUP2 ADD SWAP1 PUSH2 0x474 SWAP2 SWAP1 PUSH2 0x29A3 JUMP JUMPDEST PUSH2 0xDCB JUMP JUMPDEST PUSH1 0x40 MLOAD PUSH2 0x486 SWAP2 SWAP1 PUSH2 0x2204 JUMP JUMPDEST PUSH1 0x40 MLOAD DUP1 SWAP2 SUB SWAP1 RETURN JUMPDEST CALLVALUE DUP1 ISZERO PUSH2 0x49B JUMPI PUSH1 0x0 DUP1 REVERT JUMPDEST POP PUSH2 0x4B6 PUSH1 0x4 DUP1 CALLDATASIZE SUB DUP2 ADD SWAP1 PUSH2 0x4B1 SWAP2 SWAP1 PUSH2 0x29E3 JUMP JUMPDEST PUSH2 0xE5F JUMP JUMPDEST STOP JUMPDEST CALLVALUE DUP1 ISZERO PUSH2 0x4C4 JUMPI PUSH1 0x0 DUP1 REVERT JUMPDEST POP PUSH2 0x4DF PUSH1 0x4 DUP1 CALLDATASIZE SUB DUP2 ADD SWAP1 PUSH2 0x4DA SWAP2 SWAP1 PUSH2 0x2A7A JUMP JUMPDEST PUSH2 0xF00 JUMP JUMPDEST STOP JUMPDEST PUSH1 0x0 DUP1 PUSH20 0xFFFFFFFFFFFFFFFFFFFFFFFFFFFFFFFFFFFFFFFF AND DUP4 PUSH20 0xFFFFFFFFFFFFFFFFFFFFFFFFFFFFFFFFFFFFFFFF AND SUB PUSH2 0x551 JUMPI PUSH1 0x40 MLOAD PUSH32 0x8C379A000000000000000000000000000000000000000000000000000000000 DUP2 MSTORE PUSH1 0x4 ADD PUSH2 0x548 SWAP1 PUSH2 0x2B19 JUMP JUMPDEST PUSH1 0x40 MLOAD DUP1 SWAP2 SUB SWAP1 REVERT JUMPDEST PUSH1 0x0 DUP1 DUP4 DUP2 MSTORE PUSH1 0x20 ADD SWAP1 DUP2 MSTORE PUSH1 0x20 ADD PUSH1 0x0 KECCAK256 PUSH1 0x0 DUP5 PUSH20 0xFFFFFFFFFFFFFFFFFFFFFFFFFFFFFFFFFFFFFFFF AND PUSH20 0xFFFFFFFFFFFFFFFFFFFFFFFFFFFFFFFFFFFFFFFF AND DUP2 MSTORE PUSH1 0x20 ADD SWAP1 DUP2 MSTORE PUSH1 0x20 ADD PUSH1 0x0 KECCAK256 SLOAD SWAP1 POP SWAP3 SWAP2 POP POP JUMP JUMPDEST PUSH1 0x0 PUSH32 0xD9B67A2600000000000000000000000000000000000000000000000000000000 PUSH28 0xFFFFFFFFFFFFFFFFFFFFFFFFFFFFFFFFFFFFFFFFFFFFFFFFFFFFFFFF NOT AND DUP3 PUSH28 0xFFFFFFFFFFFFFFFFFFFFFFFFFFFFFFFFFFFFFFFFFFFFFFFFFFFFFFFF NOT AND EQ DUP1 PUSH2 0x674 JUMPI POP PUSH32 0xE89341C00000000000000000000000000000000000000000000000000000000 PUSH28 0xFFFFFFFFFFFFFFFFFFFFFFFFFFFFFFFFFFFFFFFFFFFFFFFFFFFFFFFF NOT AND DUP3 PUSH28 0xFFFFFFFFFFFFFFFFFFFFFFFFFFFFFFFFFFFFFFFFFFFFFFFFFFFFFFFF NOT AND EQ JUMPDEST DUP1 PUSH2 0x684 JUMPI POP PUSH2 0x683 DUP3 PUSH2 0xF83 JUMP JUMPDEST JUMPDEST SWAP1 POP SWAP2 SWAP1 POP JUMP JUMPDEST PUSH1 0x5 PUSH1 0x1 SWAP1 SLOAD SWAP1 PUSH2 0x100 EXP SWAP1 DIV PUSH1 0xFF AND DUP2 JUMP JUMPDEST PUSH1 0x60 SWAP2 SWAP1 POP JUMP JUMPDEST PUSH1 0x5 PUSH1 0x1 SWAP1 SLOAD SWAP1 PUSH2 0x100 EXP SWAP1 DIV PUSH1 0xFF AND PUSH2 0x6F4 JUMPI PUSH1 0x40 MLOAD PUSH32 0x8C379A000000000000000000000000000000000000000000000000000000000 DUP2 MSTORE PUSH1 0x4 ADD PUSH2 0x6EB SWAP1 PUSH2 0x2B85 JUMP JUMPDEST PUSH1 0x40 MLOAD DUP1 SWAP2 SUB SWAP1 REVERT JUMPDEST PUSH1 0x6 PUSH1 0x0 CALLER PUSH20 0xFFFFFFFFFFFFFFFFFFFFFFFFFFFFFFFFFFFFFFFF AND PUSH20 0xFFFFFFFFFFFFFFFFFFFFFFFFFFFFFFFFFFFFFFFF AND DUP2 MSTORE PUSH1 0x20 ADD SWAP1 DUP2 MSTORE PUSH1 0x20 ADD PUSH1 0x0 KECCAK256 PUSH1 0x0 SWAP1 SLOAD SWAP1 PUSH2 0x100 EXP SWAP1 DIV PUSH1 0xFF AND PUSH2 0x780 JUMPI PUSH1 0x40 MLOAD PUSH32 0x8C379A000000000000000000000000000000000000000000000000000000000 DUP2 MSTORE PUSH1 0x4 ADD PUSH2 0x777 SWAP1 PUSH2 0x2C17 JUMP JUMPDEST PUSH1 0x40 MLOAD DUP1 SWAP2 SUB SWAP1 REVERT JUMPDEST DUP1 PUSH1 0x14 PUSH2 0x78D SWAP2 SWAP1 PUSH2 0x2C66 JUMP JUMPDEST CALLVALUE EQ PUSH2 0x7CE JUMPI PUSH1 0x40 MLOAD PUSH32 0x8C379A000000000000000000000000000000000000000000000000000000000 DUP2 MSTORE PUSH1 0x4 ADD PUSH2 0x7C5 SWAP1 PUSH2 0x2CF4 JUMP JUMPDEST PUSH1 0x40 MLOAD DUP1 SWAP2 SUB SWAP1 REVERT JUMPDEST PUSH1 0x2 DUP3 LT PUSH2 0x811 JUMPI PUSH1 0x40 MLOAD PUSH32 0x8C379A000000000000000000000000000000000000000000000000000000000 DUP2 MSTORE PUSH1 0x4 ADD PUSH2 0x808 SWAP1 PUSH2 0x2D60 JUMP JUMPDEST PUSH1 0x40 MLOAD DUP1 SWAP2 SUB SWAP1 REVERT JUMPDEST PUSH1 0x32 DUP2 PUSH2 0x81D DUP5 PUSH2 0xDA9 JUMP JUMPDEST PUSH2 0x827 SWAP2 SWAP1 PUSH2 0x2D80 JUMP JUMPDEST GT ISZERO PUSH2 0x868 JUMPI PUSH1 0x40 MLOAD PUSH32 0x8C379A000000000000000000000000000000000000000000000000000000000 DUP2 MSTORE PUSH1 0x4 ADD PUSH2 0x85F SWAP1 PUSH2 0x2E00 JUMP JUMPDEST PUSH1 0x40 MLOAD DUP1 SWAP2 SUB SWAP1 REVERT JUMPDEST PUSH2 0x8A9 CALLER DUP4 DUP4 PUSH1 0x40 MLOAD DUP1 PUSH1 0x40 ADD PUSH1 0x40 MSTORE DUP1 PUSH1 0x1 DUP2 MSTORE PUSH1 0x20 ADD PUSH32 0x2000000000000000000000000000000000000000000000000000000000000000 DUP2 MSTORE POP PUSH2 0xFED JUMP JUMPDEST POP POP JUMP JUMPDEST PUSH1 0x5 PUSH1 0x0 SWAP1 SLOAD SWAP1 PUSH2 0x100 EXP SWAP1 DIV PUSH1 0xFF AND PUSH2 0x8FC JUMPI PUSH1 0x40 MLOAD PUSH32 0x8C379A000000000000000000000000000000000000000000000000000000000 DUP2 MSTORE PUSH1 0x4 ADD PUSH2 0x8F3 SWAP1 PUSH2 0x2E6C JUMP JUMPDEST PUSH1 0x40 MLOAD DUP1 SWAP2 SUB SWAP1 REVERT JUMPDEST PUSH1 0x2 DUP3 LT PUSH2 0x93F JUMPI PUSH1 0x40 MLOAD PUSH32 0x8C379A000000000000000000000000000000000000000000000000000000000 DUP2 MSTORE PUSH1 0x4 ADD PUSH2 0x936 SWAP1 PUSH2 0x2D60 JUMP JUMPDEST PUSH1 0x40 MLOAD DUP1 SWAP2 SUB SWAP1 REVERT JUMPDEST DUP1 PUSH1 0x28 PUSH2 0x94C SWAP2 SWAP1 PUSH2 0x2C66 JUMP JUMPDEST CALLVALUE EQ PUSH2 0x98D JUMPI PUSH1 0x40 MLOAD PUSH32 0x8C379A000000000000000000000000000000000000000000000000000000000 DUP2 MSTORE PUSH1 0x4 ADD PUSH2 0x984 SWAP1 PUSH2 0x2ED8 JUMP JUMPDEST PUSH1 0x40 MLOAD DUP1 SWAP2 SUB SWAP1 REVERT JUMPDEST PUSH1 0x32 DUP2 PUSH2 0x999 DUP5 PUSH2 0xDA9 JUMP JUMPDEST PUSH2 0x9A3 SWAP2 SWAP1 PUSH2 0x2D80 JUMP JUMPDEST GT ISZERO PUSH2 0x9E4 JUMPI PUSH1 0x40 MLOAD PUSH32 0x8C379A000000000000000000000000000000000000000000000000000000000 DUP2 MSTORE PUSH1 0x4 ADD PUSH2 0x9DB SWAP1 PUSH2 0x2E00 JUMP JUMPDEST PUSH1 0x40 MLOAD DUP1 SWAP2 SUB SWAP1 REVERT JUMPDEST PUSH2 0xA25 CALLER DUP4 DUP4 PUSH1 0x40 MLOAD DUP1 PUSH1 0x40 ADD PUSH1 0x40 MSTORE DUP1 PUSH1 0x1 DUP2 MSTORE PUSH1 0x20 ADD PUSH32 0x2000000000000000000000000000000000000000000000000000000000000000 DUP2 MSTORE POP PUSH2 0xFED JUMP JUMPDEST POP POP JUMP JUMPDEST PUSH2 0xA31 PUSH2 0x119D JUMP JUMPDEST PUSH20 0xFFFFFFFFFFFFFFFFFFFFFFFFFFFFFFFFFFFFFFFF AND DUP6 PUSH20 0xFFFFFFFFFFFFFFFFFFFFFFFFFFFFFFFFFFFFFFFF AND EQ DUP1 PUSH2 0xA77 JUMPI POP PUSH2 0xA76 DUP6 PUSH2 0xA71 PUSH2 0x119D JUMP JUMPDEST PUSH2 0xDCB JUMP JUMPDEST JUMPDEST PUSH2 0xAB6 JUMPI PUSH1 0x40 MLOAD PUSH32 0x8C379A000000000000000000000000000000000000000000000000000000000 DUP2 MSTORE PUSH1 0x4 ADD PUSH2 0xAAD SWAP1 PUSH2 0x2F6A JUMP JUMPDEST PUSH1 0x40 MLOAD DUP1 SWAP2 SUB SWAP1 REVERT JUMPDEST PUSH2 0xAC3 DUP6 DUP6 DUP6 DUP6 DUP6 PUSH2 0x11A5 JUMP JUMPDEST POP POP POP POP POP JUMP JUMPDEST PUSH2 0xAD2 PUSH2 0x14C6 JUMP JUMPDEST DUP2 PUSH1 0x5 PUSH1 0x0 PUSH2 0x100 EXP DUP2 SLOAD DUP2 PUSH1 0xFF MUL NOT AND SWAP1 DUP4 ISZERO ISZERO MUL OR SWAP1 SSTORE POP DUP1 PUSH1 0x5 PUSH1 0x1 PUSH2 0x100 EXP DUP2 SLOAD DUP2 PUSH1 0xFF MUL NOT AND SWAP1 DUP4 ISZERO ISZERO MUL OR SWAP1 SSTORE POP POP POP JUMP JUMPDEST PUSH2 0xB12 PUSH2 0x14C6 JUMP JUMPDEST PUSH1 0x0 SELFBALANCE SWAP1 POP PUSH2 0xB1F PUSH2 0xD56 JUMP JUMPDEST PUSH20 0xFFFFFFFFFFFFFFFFFFFFFFFFFFFFFFFFFFFFFFFF AND PUSH2 0x8FC DUP3 SWAP1 DUP2 ISZERO MUL SWAP1 PUSH1 0x40 MLOAD PUSH1 0x0 PUSH1 0x40 MLOAD DUP1 DUP4 SUB DUP2 DUP6 DUP9 DUP9 CALL SWAP4 POP POP POP POP ISZERO DUP1 ISZERO PUSH2 0xB64 JUMPI RETURNDATASIZE PUSH1 0x0 DUP1 RETURNDATACOPY RETURNDATASIZE PUSH1 0x0 REVERT JUMPDEST POP POP JUMP JUMPDEST PUSH1 0x60 DUP2 MLOAD DUP4 MLOAD EQ PUSH2 0xBAE JUMPI PUSH1 0x40 MLOAD PUSH32 0x8C379A000000000000000000000000000000000000000000000000000000000 DUP2 MSTORE PUSH1 0x4 ADD PUSH2 0xBA5 SWAP1 PUSH2 0x2FFC JUMP JUMPDEST PUSH1 0x40 MLOAD DUP1 SWAP2 SUB SWAP1 REVERT JUMPDEST PUSH1 0x0 DUP4 MLOAD PUSH8 0xFFFFFFFFFFFFFFFF DUP2 GT ISZERO PUSH2 0xBCB JUMPI PUSH2 0xBCA PUSH2 0x2343 JUMP JUMPDEST JUMPDEST PUSH1 0x40 MLOAD SWAP1 DUP1 DUP3 MSTORE DUP1 PUSH1 0x20 MUL PUSH1 0x20 ADD DUP3 ADD PUSH1 0x40 MSTORE DUP1 ISZERO PUSH2 0xBF9 JUMPI DUP2 PUSH1 0x20 ADD PUSH1 0x20 DUP3 MUL DUP1 CALLDATASIZE DUP4 CALLDATACOPY DUP1 DUP3 ADD SWAP2 POP POP SWAP1 POP JUMPDEST POP SWAP1 POP PUSH1 0x0 JUMPDEST DUP5 MLOAD DUP2 LT ISZERO PUSH2 0xC76 JUMPI PUSH2 0xC46 DUP6 DUP3 DUP2 MLOAD DUP2 LT PUSH2 0xC1E JUMPI PUSH2 0xC1D PUSH2 0x301C JUMP JUMPDEST JUMPDEST PUSH1 0x20 MUL PUSH1 0x20 ADD ADD MLOAD DUP6 DUP4 DUP2 MLOAD DUP2 LT PUSH2 0xC39 JUMPI PUSH2 0xC38 PUSH2 0x301C JUMP JUMPDEST JUMPDEST PUSH1 0x20 MUL PUSH1 0x20 ADD ADD MLOAD PUSH2 0x4E1 JUMP JUMPDEST DUP3 DUP3 DUP2 MLOAD DUP2 LT PUSH2 0xC59 JUMPI PUSH2 0xC58 PUSH2 0x301C JUMP JUMPDEST JUMPDEST PUSH1 0x20 MUL PUSH1 0x20 ADD ADD DUP2 DUP2 MSTORE POP POP DUP1 PUSH2 0xC6F SWAP1 PUSH2 0x304B JUMP JUMPDEST SWAP1 POP PUSH2 0xBFF JUMP JUMPDEST POP DUP1 SWAP2 POP POP SWAP3 SWAP2 POP POP JUMP JUMPDEST PUSH1 0x0 DUP1 PUSH2 0xC8D DUP4 PUSH2 0xDA9 JUMP JUMPDEST GT SWAP1 POP SWAP2 SWAP1 POP JUMP JUMPDEST PUSH2 0xC9D PUSH2 0x14C6 JUMP JUMPDEST PUSH1 0x0 JUMPDEST DUP3 DUP3 SWAP1 POP DUP2 LT ISZERO PUSH2 0xD3D JUMPI PUSH1 0x1 PUSH1 0x6 PUSH1 0x0 DUP6 DUP6 DUP6 DUP2 DUP2 LT PUSH2 0xCC4 JUMPI PUSH2 0xCC3 PUSH2 0x301C JUMP JUMPDEST JUMPDEST SWAP1 POP PUSH1 0x20 MUL ADD PUSH1 0x20 DUP2 ADD SWAP1 PUSH2 0xCD9 SWAP2 SWAP1 PUSH2 0x2A7A JUMP JUMPDEST PUSH20 0xFFFFFFFFFFFFFFFFFFFFFFFFFFFFFFFFFFFFFFFF AND PUSH20 0xFFFFFFFFFFFFFFFFFFFFFFFFFFFFFFFFFFFFFFFF AND DUP2 MSTORE PUSH1 0x20 ADD SWAP1 DUP2 MSTORE PUSH1 0x20 ADD PUSH1 0x0 KECCAK256 PUSH1 0x0 PUSH2 0x100 EXP DUP2 SLOAD DUP2 PUSH1 0xFF MUL NOT AND SWAP1 DUP4 ISZERO ISZERO MUL OR SWAP1 SSTORE POP DUP1 DUP1 PUSH2 0xD35 SWAP1 PUSH2 0x304B JUMP JUMPDEST SWAP2 POP POP PUSH2 0xCA0 JUMP JUMPDEST POP POP POP JUMP JUMPDEST PUSH2 0xD4A PUSH2 0x14C6 JUMP JUMPDEST PUSH2 0xD54 PUSH1 0x0 PUSH2 0x1544 JUMP JUMPDEST JUMP JUMPDEST PUSH1 0x0 PUSH1 0x3 PUSH1 0x0 SWAP1 SLOAD SWAP1 PUSH2 0x100 EXP SWAP1 DIV PUSH20 0xFFFFFFFFFFFFFFFFFFFFFFFFFFFFFFFFFFFFFFFF AND SWAP1 POP SWAP1 JUMP JUMPDEST PUSH2 0xD92 PUSH2 0xD8B PUSH2 0x119D JUMP JUMPDEST DUP4 DUP4 PUSH2 0x160A JUMP JUMPDEST POP POP JUMP JUMPDEST PUSH1 0x5 PUSH1 0x0 SWAP1 SLOAD SWAP1 PUSH2 0x100 EXP SWAP1 DIV PUSH1 0xFF AND DUP2 JUMP JUMPDEST PUSH1 0x0 PUSH1 0x4 PUSH1 0x0 DUP4 DUP2 MSTORE PUSH1 0x20 ADD SWAP1 DUP2 MSTORE PUSH1 0x20 ADD PUSH1 0x0 KECCAK256 SLOAD SWAP1 POP SWAP2 SWAP1 POP JUMP JUMPDEST PUSH1 0x32 DUP2 JUMP JUMPDEST PUSH1 0x0 PUSH1 0x1 PUSH1 0x0 DUP5 PUSH20 0xFFFFFFFFFFFFFFFFFFFFFFFFFFFFFFFFFFFFFFFF AND PUSH20 0xFFFFFFFFFFFFFFFFFFFFFFFFFFFFFFFFFFFFFFFF AND DUP2 MSTORE PUSH1 0x20 ADD SWAP1 DUP2 MSTORE PUSH1 0x20 ADD PUSH1 0x0 KECCAK256 PUSH1 0x0 DUP4 PUSH20 0xFFFFFFFFFFFFFFFFFFFFFFFFFFFFFFFFFFFFFFFF AND PUSH20 0xFFFFFFFFFFFFFFFFFFFFFFFFFFFFFFFFFFFFFFFF AND DUP2 MSTORE PUSH1 0x20 ADD SWAP1 DUP2 MSTORE PUSH1 0x20 ADD PUSH1 0x0 KECCAK256 PUSH1 0x0 SWAP1 SLOAD SWAP1 PUSH2 0x100 EXP SWAP1 DIV PUSH1 0xFF AND SWAP1 POP SWAP3 SWAP2 POP POP JUMP JUMPDEST PUSH2 0xE67 PUSH2 0x119D JUMP JUMPDEST PUSH20 0xFFFFFFFFFFFFFFFFFFFFFFFFFFFFFFFFFFFFFFFF AND DUP6 PUSH20 0xFFFFFFFFFFFFFFFFFFFFFFFFFFFFFFFFFFFFFFFF AND EQ DUP1 PUSH2 0xEAD JUMPI POP PUSH2 0xEAC DUP6 PUSH2 0xEA7 PUSH2 0x119D JUMP JUMPDEST PUSH2 0xDCB JUMP JUMPDEST JUMPDEST PUSH2 0xEEC JUMPI PUSH1 0x40 MLOAD PUSH32 0x8C379A000000000000000000000000000000000000000000000000000000000 DUP2 MSTORE PUSH1 0x4 ADD PUSH2 0xEE3 SWAP1 PUSH2 0x2F6A JUMP JUMPDEST PUSH1 0x40 MLOAD DUP1 SWAP2 SUB SWAP1 REVERT JUMPDEST PUSH2 0xEF9 DUP6 DUP6 DUP6 DUP6 DUP6 PUSH2 0x1776 JUMP JUMPDEST POP POP POP POP POP JUMP JUMPDEST PUSH2 0xF08 PUSH2 0x14C6 JUMP JUMPDEST PUSH1 0x0 PUSH20 0xFFFFFFFFFFFFFFFFFFFFFFFFFFFFFFFFFFFFFFFF AND DUP2 PUSH20 0xFFFFFFFFFFFFFFFFFFFFFFFFFFFFFFFFFFFFFFFF AND SUB PUSH2 0xF77 JUMPI PUSH1 0x40 MLOAD PUSH32 0x8C379A000000000000000000000000000000000000000000000000000000000 DUP2 MSTORE PUSH1 0x4 ADD PUSH2 0xF6E SWAP1 PUSH2 0x3105 JUMP JUMPDEST PUSH1 0x40 MLOAD DUP1 SWAP2 SUB SWAP1 REVERT JUMPDEST PUSH2 0xF80 DUP2 PUSH2 0x1544 JUMP JUMPDEST POP JUMP JUMPDEST PUSH1 0x0 PUSH32 0x1FFC9A700000000000000000000000000000000000000000000000000000000 PUSH28 0xFFFFFFFFFFFFFFFFFFFFFFFFFFFFFFFFFFFFFFFFFFFFFFFFFFFFFFFF NOT AND DUP3 PUSH28 0xFFFFFFFFFFFFFFFFFFFFFFFFFFFFFFFFFFFFFFFFFFFFFFFFFFFFFFFF NOT AND EQ SWAP1 POP SWAP2 SWAP1 POP JUMP JUMPDEST PUSH1 0x0 PUSH20 0xFFFFFFFFFFFFFFFFFFFFFFFFFFFFFFFFFFFFFFFF AND DUP5 PUSH20 0xFFFFFFFFFFFFFFFFFFFFFFFFFFFFFFFFFFFFFFFF AND SUB PUSH2 0x105C JUMPI PUSH1 0x40 MLOAD PUSH32 0x8C379A000000000000000000000000000000000000000000000000000000000 DUP2 MSTORE PUSH1 0x4 ADD PUSH2 0x1053 SWAP1 PUSH2 0x3197 JUMP JUMPDEST PUSH1 0x40 MLOAD DUP1 SWAP2 SUB SWAP1 REVERT JUMPDEST PUSH1 0x0 PUSH2 0x1066 PUSH2 0x119D JUMP JUMPDEST SWAP1 POP PUSH1 0x0 PUSH2 0x1073 DUP6 PUSH2 0x1A11 JUMP JUMPDEST SWAP1 POP PUSH1 0x0 PUSH2 0x1080 DUP6 PUSH2 0x1A11 JUMP JUMPDEST SWAP1 POP PUSH2 0x1091 DUP4 PUSH1 0x0 DUP10 DUP6 DUP6 DUP10 PUSH2 0x1A8B JUMP JUMPDEST DUP5 PUSH1 0x0 DUP1 DUP9 DUP2 MSTORE PUSH1 0x20 ADD SWAP1 DUP2 MSTORE PUSH1 0x20 ADD PUSH1 0x0 KECCAK256 PUSH1 0x0 DUP10 PUSH20 0xFFFFFFFFFFFFFFFFFFFFFFFFFFFFFFFFFFFFFFFF AND PUSH20 0xFFFFFFFFFFFFFFFFFFFFFFFFFFFFFFFFFFFFFFFF AND DUP2 MSTORE PUSH1 0x20 ADD SWAP1 DUP2 MSTORE PUSH1 0x20 ADD PUSH1 0x0 KECCAK256 PUSH1 0x0 DUP3 DUP3 SLOAD PUSH2 0x10F0 SWAP2 SWAP1 PUSH2 0x2D80 JUMP JUMPDEST SWAP3 POP POP DUP2 SWAP1 SSTORE POP DUP7 PUSH20 0xFFFFFFFFFFFFFFFFFFFFFFFFFFFFFFFFFFFFFFFF AND PUSH1 0x0 PUSH20 0xFFFFFFFFFFFFFFFFFFFFFFFFFFFFFFFFFFFFFFFF AND DUP5 PUSH20 0xFFFFFFFFFFFFFFFFFFFFFFFFFFFFFFFFFFFFFFFF AND PUSH32 0xC3D58168C5AE7397731D063D5BBF3D657854427343F4C083240F7AACAA2D0F62 DUP10 DUP10 PUSH1 0x40 MLOAD PUSH2 0x116E SWAP3 SWAP2 SWAP1 PUSH2 0x31B7 JUMP JUMPDEST PUSH1 0x40 MLOAD DUP1 SWAP2 SUB SWAP1 LOG4 PUSH2 0x1185 DUP4 PUSH1 0x0 DUP10 DUP6 DUP6 DUP10 PUSH2 0x1AA1 JUMP JUMPDEST PUSH2 0x1194 DUP4 PUSH1 0x0 DUP10 DUP10 DUP10 DUP10 PUSH2 0x1AA9 JUMP JUMPDEST POP POP POP POP POP POP POP JUMP JUMPDEST PUSH1 0x0 CALLER SWAP1 POP SWAP1 JUMP JUMPDEST DUP2 MLOAD DUP4 MLOAD EQ PUSH2 0x11E9 JUMPI PUSH1 0x40 MLOAD PUSH32 0x8C379A000000000000000000000000000000000000000000000000000000000 DUP2 MSTORE PUSH1 0x4 ADD PUSH2 0x11E0 SWAP1 PUSH2 0x3252 JUMP JUMPDEST PUSH1 0x40 MLOAD DUP1 SWAP2 SUB SWAP1 REVERT JUMPDEST PUSH1 0x0 PUSH20 0xFFFFFFFFFFFFFFFFFFFFFFFFFFFFFFFFFFFFFFFF AND DUP5 PUSH20 0xFFFFFFFFFFFFFFFFFFFFFFFFFFFFFFFFFFFFFFFF AND SUB PUSH2 0x1258 JUMPI PUSH1 0x40 MLOAD PUSH32 0x8C379A000000000000000000000000000000000000000000000000000000000 DUP2 MSTORE PUSH1 0x4 ADD PUSH2 0x124F SWAP1 PUSH2 0x32E4 JUMP JUMPDEST PUSH1 0x40 MLOAD DUP1 SWAP2 SUB SWAP1 REVERT JUMPDEST PUSH1 0x0 PUSH2 0x1262 PUSH2 0x119D JUMP JUMPDEST SWAP1 POP PUSH2 0x1272 DUP2 DUP8 DUP8 DUP8 DUP8 DUP8 PUSH2 0x1A8B JUMP JUMPDEST PUSH1 0x0 JUMPDEST DUP5 MLOAD DUP2 LT ISZERO PUSH2 0x1423 JUMPI PUSH1 0x0 DUP6 DUP3 DUP2 MLOAD DUP2 LT PUSH2 0x1293 JUMPI PUSH2 0x1292 PUSH2 0x301C JUMP JUMPDEST JUMPDEST PUSH1 0x20 MUL PUSH1 0x20 ADD ADD MLOAD SWAP1 POP PUSH1 0x0 DUP6 DUP4 DUP2 MLOAD DUP2 LT PUSH2 0x12B2 JUMPI PUSH2 0x12B1 PUSH2 0x301C JUMP JUMPDEST JUMPDEST PUSH1 0x20 MUL PUSH1 0x20 ADD ADD MLOAD SWAP1 POP PUSH1 0x0 DUP1 PUSH1 0x0 DUP5 DUP2 MSTORE PUSH1 0x20 ADD SWAP1 DUP2 MSTORE PUSH1 0x20 ADD PUSH1 0x0 KECCAK256 PUSH1 0x0 DUP12 PUSH20 0xFFFFFFFFFFFFFFFFFFFFFFFFFFFFFFFFFFFFFFFF AND PUSH20 0xFFFFFFFFFFFFFFFFFFFFFFFFFFFFFFFFFFFFFFFF AND DUP2 MSTORE PUSH1 0x20 ADD SWAP1 DUP2 MSTORE PUSH1 0x20 ADD PUSH1 0x0 KECCAK256 SLOAD SWAP1 POP DUP2 DUP2 LT ISZERO PUSH2 0x1353 JUMPI PUSH1 0x40 MLOAD PUSH32 0x8C379A000000000000000000000000000000000000000000000000000000000 DUP2 MSTORE PUSH1 0x4 ADD PUSH2 0x134A SWAP1 PUSH2 0x3376 JUMP JUMPDEST PUSH1 0x40 MLOAD DUP1 SWAP2 SUB SWAP1 REVERT JUMPDEST DUP2 DUP2 SUB PUSH1 0x0 DUP1 DUP6 DUP2 MSTORE PUSH1 0x20 ADD SWAP1 DUP2 MSTORE PUSH1 0x20 ADD PUSH1 0x0 KECCAK256 PUSH1 0x0 DUP13 PUSH20 0xFFFFFFFFFFFFFFFFFFFFFFFFFFFFFFFFFFFFFFFF AND PUSH20 0xFFFFFFFFFFFFFFFFFFFFFFFFFFFFFFFFFFFFFFFF AND DUP2 MSTORE PUSH1 0x20 ADD SWAP1 DUP2 MSTORE PUSH1 0x20 ADD PUSH1 0x0 KECCAK256 DUP2 SWAP1 SSTORE POP DUP2 PUSH1 0x0 DUP1 DUP6 DUP2 MSTORE PUSH1 0x20 ADD SWAP1 DUP2 MSTORE PUSH1 0x20 ADD PUSH1 0x0 KECCAK256 PUSH1 0x0 DUP12 PUSH20 0xFFFFFFFFFFFFFFFFFFFFFFFFFFFFFFFFFFFFFFFF AND PUSH20 0xFFFFFFFFFFFFFFFFFFFFFFFFFFFFFFFFFFFFFFFF AND DUP2 MSTORE PUSH1 0x20 ADD SWAP1 DUP2 MSTORE PUSH1 0x20 ADD PUSH1 0x0 KECCAK256 PUSH1 0x0 DUP3 DUP3 SLOAD PUSH2 0x1408 SWAP2 SWAP1 PUSH2 0x2D80 JUMP JUMPDEST SWAP3 POP POP DUP2 SWAP1 SSTORE POP POP POP POP DUP1 PUSH2 0x141C SWAP1 PUSH2 0x304B JUMP JUMPDEST SWAP1 POP PUSH2 0x1275 JUMP JUMPDEST POP DUP5 PUSH20 0xFFFFFFFFFFFFFFFFFFFFFFFFFFFFFFFFFFFFFFFF AND DUP7 PUSH20 0xFFFFFFFFFFFFFFFFFFFFFFFFFFFFFFFFFFFFFFFF AND DUP3 PUSH20 0xFFFFFFFFFFFFFFFFFFFFFFFFFFFFFFFFFFFFFFFF AND PUSH32 0x4A39DC06D4C0DBC64B70AF90FD698A233A518AA5D07E595D983B8C0526C8F7FB DUP8 DUP8 PUSH1 0x40 MLOAD PUSH2 0x149A SWAP3 SWAP2 SWAP1 PUSH2 0x3396 JUMP JUMPDEST PUSH1 0x40 MLOAD DUP1 SWAP2 SUB SWAP1 LOG4 PUSH2 0x14B0 DUP2 DUP8 DUP8 DUP8 DUP8 DUP8 PUSH2 0x1AA1 JUMP JUMPDEST PUSH2 0x14BE DUP2 DUP8 DUP8 DUP8 DUP8 DUP8 PUSH2 0x1C80 JUMP JUMPDEST POP POP POP POP POP POP JUMP JUMPDEST PUSH2 0x14CE PUSH2 0x119D JUMP JUMPDEST PUSH20 0xFFFFFFFFFFFFFFFFFFFFFFFFFFFFFFFFFFFFFFFF AND PUSH2 0x14EC PUSH2 0xD56 JUMP JUMPDEST PUSH20 0xFFFFFFFFFFFFFFFFFFFFFFFFFFFFFFFFFFFFFFFF AND EQ PUSH2 0x1542 JUMPI PUSH1 0x40 MLOAD PUSH32 0x8C379A000000000000000000000000000000000000000000000000000000000 DUP2 MSTORE PUSH1 0x4 ADD PUSH2 0x1539 SWAP1 PUSH2 0x3419 JUMP JUMPDEST PUSH1 0x40 MLOAD DUP1 SWAP2 SUB SWAP1 REVERT JUMPDEST JUMP JUMPDEST PUSH1 0x0 PUSH1 0x3 PUSH1 0x0 SWAP1 SLOAD SWAP1 PUSH2 0x100 EXP SWAP1 DIV PUSH20 0xFFFFFFFFFFFFFFFFFFFFFFFFFFFFFFFFFFFFFFFF AND SWAP1 POP DUP2 PUSH1 0x3 PUSH1 0x0 PUSH2 0x100 EXP DUP2 SLOAD DUP2 PUSH20 0xFFFFFFFFFFFFFFFFFFFFFFFFFFFFFFFFFFFFFFFF MUL NOT AND SWAP1 DUP4 PUSH20 0xFFFFFFFFFFFFFFFFFFFFFFFFFFFFFFFFFFFFFFFF AND MUL OR SWAP1 SSTORE POP DUP2 PUSH20 0xFFFFFFFFFFFFFFFFFFFFFFFFFFFFFFFFFFFFFFFF AND DUP2 PUSH20 0xFFFFFFFFFFFFFFFFFFFFFFFFFFFFFFFFFFFFFFFF AND PUSH32 0x8BE0079C531659141344CD1FD0A4F28419497F9722A3DAAFE3B4186F6B6457E0 PUSH1 0x40 MLOAD PUSH1 0x40 MLOAD DUP1 SWAP2 SUB SWAP1 LOG3 POP POP JUMP JUMPDEST DUP2 PUSH20 0xFFFFFFFFFFFFFFFFFFFFFFFFFFFFFFFFFFFFFFFF AND DUP4 PUSH20 0xFFFFFFFFFFFFFFFFFFFFFFFFFFFFFFFFFFFFFFFF AND SUB PUSH2 0x1678 JUMPI PUSH1 0x40 MLOAD PUSH32 0x8C379A000000000000000000000000000000000000000000000000000000000 DUP2 MSTORE PUSH1 0x4 ADD PUSH2 0x166F SWAP1 PUSH2 0x34AB JUMP JUMPDEST PUSH1 0x40 MLOAD DUP1 SWAP2 SUB SWAP1 REVERT JUMPDEST DUP1 PUSH1 0x1 PUSH1 0x0 DUP6 PUSH20 0xFFFFFFFFFFFFFFFFFFFFFFFFFFFFFFFFFFFFFFFF AND PUSH20 0xFFFFFFFFFFFFFFFFFFFFFFFFFFFFFFFFFFFFFFFF AND DUP2 MSTORE PUSH1 0x20 ADD SWAP1 DUP2 MSTORE PUSH1 0x20 ADD PUSH1 0x0 KECCAK256 PUSH1 0x0 DUP5 PUSH20 0xFFFFFFFFFFFFFFFFFFFFFFFFFFFFFFFFFFFFFFFF AND PUSH20 0xFFFFFFFFFFFFFFFFFFFFFFFFFFFFFFFFFFFFFFFF AND DUP2 MSTORE PUSH1 0x20 ADD SWAP1 DUP2 MSTORE PUSH1 0x20 ADD PUSH1 0x0 KECCAK256 PUSH1 0x0 PUSH2 0x100 EXP DUP2 SLOAD DUP2 PUSH1 0xFF MUL NOT AND SWAP1 DUP4 ISZERO ISZERO MUL OR SWAP1 SSTORE POP DUP2 PUSH20 0xFFFFFFFFFFFFFFFFFFFFFFFFFFFFFFFFFFFFFFFF AND DUP4 PUSH20 0xFFFFFFFFFFFFFFFFFFFFFFFFFFFFFFFFFFFFFFFF AND PUSH32 0x17307EAB39AB6107E8899845AD3D59BD9653F200F220920489CA2B5937696C31 DUP4 PUSH1 0x40 MLOAD PUSH2 0x1769 SWAP2 SWAP1 PUSH2 0x2204 JUMP JUMPDEST PUSH1 0x40 MLOAD DUP1 SWAP2 SUB SWAP1 LOG3 POP POP POP JUMP JUMPDEST PUSH1 0x0 PUSH20 0xFFFFFFFFFFFFFFFFFFFFFFFFFFFFFFFFFFFFFFFF AND DUP5 PUSH20 0xFFFFFFFFFFFFFFFFFFFFFFFFFFFFFFFFFFFFFFFF AND SUB PUSH2 0x17E5 JUMPI PUSH1 0x40 MLOAD PUSH32 0x8C379A000000000000000000000000000000000000000000000000000000000 DUP2 MSTORE PUSH1 0x4 ADD PUSH2 0x17DC SWAP1 PUSH2 0x32E4 JUMP JUMPDEST PUSH1 0x40 MLOAD DUP1 SWAP2 SUB SWAP1 REVERT JUMPDEST PUSH1 0x0 PUSH2 0x17EF PUSH2 0x119D JUMP JUMPDEST SWAP1 POP PUSH1 0x0 PUSH2 0x17FC DUP6 PUSH2 0x1A11 JUMP JUMPDEST SWAP1 POP PUSH1 0x0 PUSH2 0x1809 DUP6 PUSH2 0x1A11 JUMP JUMPDEST SWAP1 POP PUSH2 0x1819 DUP4 DUP10 DUP10 DUP6 DUP6 DUP10 PUSH2 0x1A8B JUMP JUMPDEST PUSH1 0x0 DUP1 PUSH1 0x0 DUP9 DUP2 MSTORE PUSH1 0x20 ADD SWAP1 DUP2 MSTORE PUSH1 0x20 ADD PUSH1 0x0 KECCAK256 PUSH1 0x0 DUP11 PUSH20 0xFFFFFFFFFFFFFFFFFFFFFFFFFFFFFFFFFFFFFFFF AND PUSH20 0xFFFFFFFFFFFFFFFFFFFFFFFFFFFFFFFFFFFFFFFF AND DUP2 MSTORE PUSH1 0x20 ADD SWAP1 DUP2 MSTORE PUSH1 0x20 ADD PUSH1 0x0 KECCAK256 SLOAD SWAP1 POP DUP6 DUP2 LT ISZERO PUSH2 0x18B0 JUMPI PUSH1 0x40 MLOAD PUSH32 0x8C379A000000000000000000000000000000000000000000000000000000000 DUP2 MSTORE PUSH1 0x4 ADD PUSH2 0x18A7 SWAP1 PUSH2 0x3376 JUMP JUMPDEST PUSH1 0x40 MLOAD DUP1 SWAP2 SUB SWAP1 REVERT JUMPDEST DUP6 DUP2 SUB PUSH1 0x0 DUP1 DUP10 DUP2 MSTORE PUSH1 0x20 ADD SWAP1 DUP2 MSTORE PUSH1 0x20 ADD PUSH1 0x0 KECCAK256 PUSH1 0x0 DUP12 PUSH20 0xFFFFFFFFFFFFFFFFFFFFFFFFFFFFFFFFFFFFFFFF AND PUSH20 0xFFFFFFFFFFFFFFFFFFFFFFFFFFFFFFFFFFFFFFFF AND DUP2 MSTORE PUSH1 0x20 ADD SWAP1 DUP2 MSTORE PUSH1 0x20 ADD PUSH1 0x0 KECCAK256 DUP2 SWAP1 SSTORE POP DUP6 PUSH1 0x0 DUP1 DUP10 DUP2 MSTORE PUSH1 0x20 ADD SWAP1 DUP2 MSTORE PUSH1 0x20 ADD PUSH1 0x0 KECCAK256 PUSH1 0x0 DUP11 PUSH20 0xFFFFFFFFFFFFFFFFFFFFFFFFFFFFFFFFFFFFFFFF AND PUSH20 0xFFFFFFFFFFFFFFFFFFFFFFFFFFFFFFFFFFFFFFFF AND DUP2 MSTORE PUSH1 0x20 ADD SWAP1 DUP2 MSTORE PUSH1 0x20 ADD PUSH1 0x0 KECCAK256 PUSH1 0x0 DUP3 DUP3 SLOAD PUSH2 0x1965 SWAP2 SWAP1 PUSH2 0x2D80 JUMP JUMPDEST SWAP3 POP POP DUP2 SWAP1 SSTORE POP DUP8 PUSH20 0xFFFFFFFFFFFFFFFFFFFFFFFFFFFFFFFFFFFFFFFF AND DUP10 PUSH20 0xFFFFFFFFFFFFFFFFFFFFFFFFFFFFFFFFFFFFFFFF AND DUP6 PUSH20 0xFFFFFFFFFFFFFFFFFFFFFFFFFFFFFFFFFFFFFFFF AND PUSH32 0xC3D58168C5AE7397731D063D5BBF3D657854427343F4C083240F7AACAA2D0F62 DUP11 DUP11 PUSH1 0x40 MLOAD PUSH2 0x19E2 SWAP3 SWAP2 SWAP1 PUSH2 0x31B7 JUMP JUMPDEST PUSH1 0x40 MLOAD DUP1 SWAP2 SUB SWAP1 LOG4 PUSH2 0x19F8 DUP5 DUP11 DUP11 DUP7 DUP7 DUP11 PUSH2 0x1AA1 JUMP JUMPDEST PUSH2 0x1A06 DUP5 DUP11 DUP11 DUP11 DUP11 DUP11 PUSH2 0x1AA9 JUMP JUMPDEST POP POP POP POP POP POP POP POP POP JUMP JUMPDEST PUSH1 0x60 PUSH1 0x0 PUSH1 0x1 PUSH8 0xFFFFFFFFFFFFFFFF DUP2 GT ISZERO PUSH2 0x1A30 JUMPI PUSH2 0x1A2F PUSH2 0x2343 JUMP JUMPDEST JUMPDEST PUSH1 0x40 MLOAD SWAP1 DUP1 DUP3 MSTORE DUP1 PUSH1 0x20 MUL PUSH1 0x20 ADD DUP3 ADD PUSH1 0x40 MSTORE DUP1 ISZERO PUSH2 0x1A5E JUMPI DUP2 PUSH1 0x20 ADD PUSH1 0x20 DUP3 MUL DUP1 CALLDATASIZE DUP4 CALLDATACOPY DUP1 DUP3 ADD SWAP2 POP POP SWAP1 POP JUMPDEST POP SWAP1 POP DUP3 DUP2 PUSH1 0x0 DUP2 MLOAD DUP2 LT PUSH2 0x1A76 JUMPI PUSH2 0x1A75 PUSH2 0x301C JUMP JUMPDEST JUMPDEST PUSH1 0x20 MUL PUSH1 0x20 ADD ADD DUP2 DUP2 MSTORE POP POP DUP1 SWAP2 POP POP SWAP2 SWAP1 POP JUMP JUMPDEST PUSH2 0x1A99 DUP7 DUP7 DUP7 DUP7 DUP7 DUP7 PUSH2 0x1E57 JUMP JUMPDEST POP POP POP POP POP POP JUMP JUMPDEST POP POP POP POP POP POP JUMP JUMPDEST PUSH2 0x1AC8 DUP5 PUSH20 0xFFFFFFFFFFFFFFFFFFFFFFFFFFFFFFFFFFFFFFFF AND PUSH2 0x2027 JUMP JUMPDEST ISZERO PUSH2 0x1C78 JUMPI DUP4 PUSH20 0xFFFFFFFFFFFFFFFFFFFFFFFFFFFFFFFFFFFFFFFF AND PUSH4 0xF23A6E61 DUP8 DUP8 DUP7 DUP7 DUP7 PUSH1 0x40 MLOAD DUP7 PUSH4 0xFFFFFFFF AND PUSH1 0xE0 SHL DUP2 MSTORE PUSH1 0x4 ADD PUSH2 0x1B0E SWAP6 SWAP5 SWAP4 SWAP3 SWAP2 SWAP1 PUSH2 0x3520 JUMP JUMPDEST PUSH1 0x20 PUSH1 0x40 MLOAD DUP1 DUP4 SUB DUP2 PUSH1 0x0 DUP8 GAS CALL SWAP3 POP POP POP DUP1 ISZERO PUSH2 0x1B4A JUMPI POP PUSH1 0x40 MLOAD RETURNDATASIZE PUSH1 0x1F NOT PUSH1 0x1F DUP3 ADD AND DUP3 ADD DUP1 PUSH1 0x40 MSTORE POP DUP2 ADD SWAP1 PUSH2 0x1B47 SWAP2 SWAP1 PUSH2 0x358F JUMP JUMPDEST PUSH1 0x1 JUMPDEST PUSH2 0x1BEF JUMPI PUSH2 0x1B56 PUSH2 0x35C9 JUMP JUMPDEST DUP1 PUSH4 0x8C379A0 SUB PUSH2 0x1BB2 JUMPI POP PUSH2 0x1B6A PUSH2 0x35EB JUMP JUMPDEST DUP1 PUSH2 0x1B75 JUMPI POP PUSH2 0x1BB4 JUMP JUMPDEST DUP1 PUSH1 0x40 MLOAD PUSH32 0x8C379A000000000000000000000000000000000000000000000000000000000 DUP2 MSTORE PUSH1 0x4 ADD PUSH2 0x1BA9 SWAP2 SWAP1 PUSH2 0x22DC JUMP JUMPDEST PUSH1 0x40 MLOAD DUP1 SWAP2 SUB SWAP1 REVERT JUMPDEST POP JUMPDEST PUSH1 0x40 MLOAD PUSH32 0x8C379A000000000000000000000000000000000000000000000000000000000 DUP2 MSTORE PUSH1 0x4 ADD PUSH2 0x1BE6 SWAP1 PUSH2 0x36ED JUMP JUMPDEST PUSH1 0x40 MLOAD DUP1 SWAP2 SUB SWAP1 REVERT JUMPDEST PUSH4 0xF23A6E61 PUSH1 0xE0 SHL PUSH28 0xFFFFFFFFFFFFFFFFFFFFFFFFFFFFFFFFFFFFFFFFFFFFFFFFFFFFFFFF NOT AND DUP2 PUSH28 0xFFFFFFFFFFFFFFFFFFFFFFFFFFFFFFFFFFFFFFFFFFFFFFFFFFFFFFFF NOT AND EQ PUSH2 0x1C76 JUMPI PUSH1 0x40 MLOAD PUSH32 0x8C379A000000000000000000000000000000000000000000000000000000000 DUP2 MSTORE PUSH1 0x4 ADD PUSH2 0x1C6D SWAP1 PUSH2 0x377F JUMP JUMPDEST PUSH1 0x40 MLOAD DUP1 SWAP2 SUB SWAP1 REVERT JUMPDEST POP JUMPDEST POP POP POP POP POP POP JUMP JUMPDEST PUSH2 0x1C9F DUP5 PUSH20 0xFFFFFFFFFFFFFFFFFFFFFFFFFFFFFFFFFFFFFFFF AND PUSH2 0x2027 JUMP JUMPDEST ISZERO PUSH2 0x1E4F JUMPI DUP4 PUSH20 0xFFFFFFFFFFFFFFFFFFFFFFFFFFFFFFFFFFFFFFFF AND PUSH4 0xBC197C81 DUP8 DUP8 DUP7 DUP7 DUP7 PUSH1 0x40 MLOAD DUP7 PUSH4 0xFFFFFFFF AND PUSH1 0xE0 SHL DUP2 MSTORE PUSH1 0x4 ADD PUSH2 0x1CE5 SWAP6 SWAP5 SWAP4 SWAP3 SWAP2 SWAP1 PUSH2 0x379F JUMP JUMPDEST PUSH1 0x20 PUSH1 0x40 MLOAD DUP1 DUP4 SUB DUP2 PUSH1 0x0 DUP8 GAS CALL SWAP3 POP POP POP DUP1 ISZERO PUSH2 0x1D21 JUMPI POP PUSH1 0x40 MLOAD RETURNDATASIZE PUSH1 0x1F NOT PUSH1 0x1F DUP3 ADD AND DUP3 ADD DUP1 PUSH1 0x40 MSTORE POP DUP2 ADD SWAP1 PUSH2 0x1D1E SWAP2 SWAP1 PUSH2 0x358F JUMP JUMPDEST PUSH1 0x1 JUMPDEST PUSH2 0x1DC6 JUMPI PUSH2 0x1D2D PUSH2 0x35C9 JUMP JUMPDEST DUP1 PUSH4 0x8C379A0 SUB PUSH2 0x1D89 JUMPI POP PUSH2 0x1D41 PUSH2 0x35EB JUMP JUMPDEST DUP1 PUSH2 0x1D4C JUMPI POP PUSH2 0x1D8B JUMP JUMPDEST DUP1 PUSH1 0x40 MLOAD PUSH32 0x8C379A000000000000000000000000000000000000000000000000000000000 DUP2 MSTORE PUSH1 0x4 ADD PUSH2 0x1D80 SWAP2 SWAP1 PUSH2 0x22DC JUMP JUMPDEST PUSH1 0x40 MLOAD DUP1 SWAP2 SUB SWAP1 REVERT JUMPDEST POP JUMPDEST PUSH1 0x40 MLOAD PUSH32 0x8C379A000000000000000000000000000000000000000000000000000000000 DUP2 MSTORE PUSH1 0x4 ADD PUSH2 0x1DBD SWAP1 PUSH2 0x36ED JUMP JUMPDEST PUSH1 0x40 MLOAD DUP1 SWAP2 SUB SWAP1 REVERT JUMPDEST PUSH4 0xBC197C81 PUSH1 0xE0 SHL PUSH28 0xFFFFFFFFFFFFFFFFFFFFFFFFFFFFFFFFFFFFFFFFFFFFFFFFFFFFFFFF NOT AND DUP2 PUSH28 0xFFFFFFFFFFFFFFFFFFFFFFFFFFFFFFFFFFFFFFFFFFFFFFFFFFFFFFFF NOT AND EQ PUSH2 0x1E4D JUMPI PUSH1 0x40 MLOAD PUSH32 0x8C379A000000000000000000000000000000000000000000000000000000000 DUP2 MSTORE PUSH1 0x4 ADD PUSH2 0x1E44 SWAP1 PUSH2 0x377F JUMP JUMPDEST PUSH1 0x40 MLOAD DUP1 SWAP2 SUB SWAP1 REVERT JUMPDEST POP JUMPDEST POP POP POP POP POP POP JUMP JUMPDEST PUSH2 0x1E65 DUP7 DUP7 DUP7 DUP7 DUP7 DUP7 PUSH2 0x204A JUMP JUMPDEST PUSH1 0x0 PUSH20 0xFFFFFFFFFFFFFFFFFFFFFFFFFFFFFFFFFFFFFFFF AND DUP6 PUSH20 0xFFFFFFFFFFFFFFFFFFFFFFFFFFFFFFFFFFFFFFFF AND SUB PUSH2 0x1F16 JUMPI PUSH1 0x0 JUMPDEST DUP4 MLOAD DUP2 LT ISZERO PUSH2 0x1F14 JUMPI DUP3 DUP2 DUP2 MLOAD DUP2 LT PUSH2 0x1EB8 JUMPI PUSH2 0x1EB7 PUSH2 0x301C JUMP JUMPDEST JUMPDEST PUSH1 0x20 MUL PUSH1 0x20 ADD ADD MLOAD PUSH1 0x4 PUSH1 0x0 DUP7 DUP5 DUP2 MLOAD DUP2 LT PUSH2 0x1ED7 JUMPI PUSH2 0x1ED6 PUSH2 0x301C JUMP JUMPDEST JUMPDEST PUSH1 0x20 MUL PUSH1 0x20 ADD ADD MLOAD DUP2 MSTORE PUSH1 0x20 ADD SWAP1 DUP2 MSTORE PUSH1 0x20 ADD PUSH1 0x0 KECCAK256 PUSH1 0x0 DUP3 DUP3 SLOAD PUSH2 0x1EFC SWAP2 SWAP1 PUSH2 0x2D80 JUMP JUMPDEST SWAP3 POP POP DUP2 SWAP1 SSTORE POP DUP1 PUSH2 0x1F0D SWAP1 PUSH2 0x304B JUMP JUMPDEST SWAP1 POP PUSH2 0x1E9C JUMP JUMPDEST POP JUMPDEST PUSH1 0x0 PUSH20 0xFFFFFFFFFFFFFFFFFFFFFFFFFFFFFFFFFFFFFFFF AND DUP5 PUSH20 0xFFFFFFFFFFFFFFFFFFFFFFFFFFFFFFFFFFFFFFFF AND SUB PUSH2 0x201F JUMPI PUSH1 0x0 JUMPDEST DUP4 MLOAD DUP2 LT ISZERO PUSH2 0x201D JUMPI PUSH1 0x0 DUP5 DUP3 DUP2 MLOAD DUP2 LT PUSH2 0x1F6B JUMPI PUSH2 0x1F6A PUSH2 0x301C JUMP JUMPDEST JUMPDEST PUSH1 0x20 MUL PUSH1 0x20 ADD ADD MLOAD SWAP1 POP PUSH1 0x0 DUP5 DUP4 DUP2 MLOAD DUP2 LT PUSH2 0x1F8A JUMPI PUSH2 0x1F89 PUSH2 0x301C JUMP JUMPDEST JUMPDEST PUSH1 0x20 MUL PUSH1 0x20 ADD ADD MLOAD SWAP1 POP PUSH1 0x0 PUSH1 0x4 PUSH1 0x0 DUP5 DUP2 MSTORE PUSH1 0x20 ADD SWAP1 DUP2 MSTORE PUSH1 0x20 ADD PUSH1 0x0 KECCAK256 SLOAD SWAP1 POP DUP2 DUP2 LT ISZERO PUSH2 0x1FEF JUMPI PUSH1 0x40 MLOAD PUSH32 0x8C379A000000000000000000000000000000000000000000000000000000000 DUP2 MSTORE PUSH1 0x4 ADD PUSH2 0x1FE6 SWAP1 PUSH2 0x3879 JUMP JUMPDEST PUSH1 0x40 MLOAD DUP1 SWAP2 SUB SWAP1 REVERT JUMPDEST DUP2 DUP2 SUB PUSH1 0x4 PUSH1 0x0 DUP6 DUP2 MSTORE PUSH1 0x20 ADD SWAP1 DUP2 MSTORE PUSH1 0x20 ADD PUSH1 0x0 KECCAK256 DUP2 SWAP1 SSTORE POP POP POP POP DUP1 PUSH2 0x2016 SWAP1 PUSH2 0x304B JUMP JUMPDEST SWAP1 POP PUSH2 0x1F4D JUMP JUMPDEST POP JUMPDEST POP POP POP POP POP POP JUMP JUMPDEST PUSH1 0x0 DUP1 DUP3 PUSH20 0xFFFFFFFFFFFFFFFFFFFFFFFFFFFFFFFFFFFFFFFF AND EXTCODESIZE GT SWAP1 POP SWAP2 SWAP1 POP JUMP JUMPDEST POP POP POP POP POP POP JUMP JUMPDEST PUSH1 0x0 PUSH1 0x40 MLOAD SWAP1 POP SWAP1 JUMP JUMPDEST PUSH1 0x0 DUP1 REVERT JUMPDEST PUSH1 0x0 DUP1 REVERT JUMPDEST PUSH1 0x0 PUSH20 0xFFFFFFFFFFFFFFFFFFFFFFFFFFFFFFFFFFFFFFFF DUP3 AND SWAP1 POP SWAP2 SWAP1 POP JUMP JUMPDEST PUSH1 0x0 PUSH2 0x2091 DUP3 PUSH2 0x2066 JUMP JUMPDEST SWAP1 POP SWAP2 SWAP1 POP JUMP JUMPDEST PUSH2 0x20A1 DUP2 PUSH2 0x2086 JUMP JUMPDEST DUP2 EQ PUSH2 0x20AC JUMPI PUSH1 0x0 DUP1 REVERT JUMPDEST POP JUMP JUMPDEST PUSH1 0x0 DUP2 CALLDATALOAD SWAP1 POP PUSH2 0x20BE DUP2 PUSH2 0x2098 JUMP JUMPDEST SWAP3 SWAP2 POP POP JUMP JUMPDEST PUSH1 0x0 DUP2 SWAP1 POP SWAP2 SWAP1 POP JUMP JUMPDEST PUSH2 0x20D7 DUP2 PUSH2 0x20C4 JUMP JUMPDEST DUP2 EQ PUSH2 0x20E2 JUMPI PUSH1 0x0 DUP1 REVERT JUMPDEST POP JUMP JUMPDEST PUSH1 0x0 DUP2 CALLDATALOAD SWAP1 POP PUSH2 0x20F4 DUP2 PUSH2 0x20CE JUMP JUMPDEST SWAP3 SWAP2 POP POP JUMP JUMPDEST PUSH1 0x0 DUP1 PUSH1 0x40 DUP4 DUP6 SUB SLT ISZERO PUSH2 0x2111 JUMPI PUSH2 0x2110 PUSH2 0x205C JUMP JUMPDEST JUMPDEST PUSH1 0x0 PUSH2 0x211F DUP6 DUP3 DUP7 ADD PUSH2 0x20AF JUMP JUMPDEST SWAP3 POP POP PUSH1 0x20 PUSH2 0x2130 DUP6 DUP3 DUP7 ADD PUSH2 0x20E5 JUMP JUMPDEST SWAP2 POP POP SWAP3 POP SWAP3 SWAP1 POP JUMP JUMPDEST PUSH2 0x2143 DUP2 PUSH2 0x20C4 JUMP JUMPDEST DUP3 MSTORE POP POP JUMP JUMPDEST PUSH1 0x0 PUSH1 0x20 DUP3 ADD SWAP1 POP PUSH2 0x215E PUSH1 0x0 DUP4 ADD DUP5 PUSH2 0x213A JUMP JUMPDEST SWAP3 SWAP2 POP POP JUMP JUMPDEST PUSH1 0x0 PUSH32 0xFFFFFFFF00000000000000000000000000000000000000000000000000000000 DUP3 AND SWAP1 POP SWAP2 SWAP1 POP JUMP JUMPDEST PUSH2 0x2199 DUP2 PUSH2 0x2164 JUMP JUMPDEST DUP2 EQ PUSH2 0x21A4 JUMPI PUSH1 0x0 DUP1 REVERT JUMPDEST POP JUMP JUMPDEST PUSH1 0x0 DUP2 CALLDATALOAD SWAP1 POP PUSH2 0x21B6 DUP2 PUSH2 0x2190 JUMP JUMPDEST SWAP3 SWAP2 POP POP JUMP JUMPDEST PUSH1 0x0 PUSH1 0x20 DUP3 DUP5 SUB SLT ISZERO PUSH2 0x21D2 JUMPI PUSH2 0x21D1 PUSH2 0x205C JUMP JUMPDEST JUMPDEST PUSH1 0x0 PUSH2 0x21E0 DUP5 DUP3 DUP6 ADD PUSH2 0x21A7 JUMP JUMPDEST SWAP2 POP POP SWAP3 SWAP2 POP POP JUMP JUMPDEST PUSH1 0x0 DUP2 ISZERO ISZERO SWAP1 POP SWAP2 SWAP1 POP JUMP JUMPDEST PUSH2 0x21FE DUP2 PUSH2 0x21E9 JUMP JUMPDEST DUP3 MSTORE POP POP JUMP JUMPDEST PUSH1 0x0 PUSH1 0x20 DUP3 ADD SWAP1 POP PUSH2 0x2219 PUSH1 0x0 DUP4 ADD DUP5 PUSH2 0x21F5 JUMP JUMPDEST SWAP3 SWAP2 POP POP JUMP JUMPDEST PUSH1 0x0 PUSH1 0x20 DUP3 DUP5 SUB SLT ISZERO PUSH2 0x2235 JUMPI PUSH2 0x2234 PUSH2 0x205C JUMP JUMPDEST JUMPDEST PUSH1 0x0 PUSH2 0x2243 DUP5 DUP3 DUP6 ADD PUSH2 0x20E5 JUMP JUMPDEST SWAP2 POP POP SWAP3 SWAP2 POP POP JUMP JUMPDEST PUSH1 0x0 DUP2 MLOAD SWAP1 POP SWAP2 SWAP1 POP JUMP JUMPDEST PUSH1 0x0 DUP3 DUP3 MSTORE PUSH1 0x20 DUP3 ADD SWAP1 POP SWAP3 SWAP2 POP POP JUMP JUMPDEST PUSH1 0x0 JUMPDEST DUP4 DUP2 LT ISZERO PUSH2 0x2286 JUMPI DUP1 DUP3 ADD MLOAD DUP2 DUP5 ADD MSTORE PUSH1 0x20 DUP2 ADD SWAP1 POP PUSH2 0x226B JUMP JUMPDEST PUSH1 0x0 DUP5 DUP5 ADD MSTORE POP POP POP POP JUMP JUMPDEST PUSH1 0x0 PUSH1 0x1F NOT PUSH1 0x1F DUP4 ADD AND SWAP1 POP SWAP2 SWAP1 POP JUMP JUMPDEST PUSH1 0x0 PUSH2 0x22AE DUP3 PUSH2 0x224C JUMP JUMPDEST PUSH2 0x22B8 DUP2 DUP6 PUSH2 0x2257 JUMP JUMPDEST SWAP4 POP PUSH2 0x22C8 DUP2 DUP6 PUSH1 0x20 DUP7 ADD PUSH2 0x2268 JUMP JUMPDEST PUSH2 0x22D1 DUP2 PUSH2 0x2292 JUMP JUMPDEST DUP5 ADD SWAP2 POP POP SWAP3 SWAP2 POP POP JUMP JUMPDEST PUSH1 0x0 PUSH1 0x20 DUP3 ADD SWAP1 POP DUP2 DUP2 SUB PUSH1 0x0 DUP4 ADD MSTORE PUSH2 0x22F6 DUP2 DUP5 PUSH2 0x22A3 JUMP JUMPDEST SWAP1 POP SWAP3 SWAP2 POP POP JUMP JUMPDEST PUSH1 0x0 DUP1 PUSH1 0x40 DUP4 DUP6 SUB SLT ISZERO PUSH2 0x2315 JUMPI PUSH2 0x2314 PUSH2 0x205C JUMP JUMPDEST JUMPDEST PUSH1 0x0 PUSH2 0x2323 DUP6 DUP3 DUP7 ADD PUSH2 0x20E5 JUMP JUMPDEST SWAP3 POP POP PUSH1 0x20 PUSH2 0x2334 DUP6 DUP3 DUP7 ADD PUSH2 0x20E5 JUMP JUMPDEST SWAP2 POP POP SWAP3 POP SWAP3 SWAP1 POP JUMP JUMPDEST PUSH1 0x0 DUP1 REVERT JUMPDEST PUSH32 0x4E487B7100000000000000000000000000000000000000000000000000000000 PUSH1 0x0 MSTORE PUSH1 0x41 PUSH1 0x4 MSTORE PUSH1 0x24 PUSH1 0x0 REVERT JUMPDEST PUSH2 0x237B DUP3 PUSH2 0x2292 JUMP JUMPDEST DUP2 ADD DUP2 DUP2 LT PUSH8 0xFFFFFFFFFFFFFFFF DUP3 GT OR ISZERO PUSH2 0x239A JUMPI PUSH2 0x2399 PUSH2 0x2343 JUMP JUMPDEST JUMPDEST DUP1 PUSH1 0x40 MSTORE POP POP POP JUMP JUMPDEST PUSH1 0x0 PUSH2 0x23AD PUSH2 0x2052 JUMP JUMPDEST SWAP1 POP PUSH2 0x23B9 DUP3 DUP3 PUSH2 0x2372 JUMP JUMPDEST SWAP2 SWAP1 POP JUMP JUMPDEST PUSH1 0x0 PUSH8 0xFFFFFFFFFFFFFFFF DUP3 GT ISZERO PUSH2 0x23D9 JUMPI PUSH2 0x23D8 PUSH2 0x2343 JUMP JUMPDEST JUMPDEST PUSH1 0x20 DUP3 MUL SWAP1 POP PUSH1 0x20 DUP2 ADD SWAP1 POP SWAP2 SWAP1 POP JUMP JUMPDEST PUSH1 0x0 DUP1 REVERT JUMPDEST PUSH1 0x0 PUSH2 0x2402 PUSH2 0x23FD DUP5 PUSH2 0x23BE JUMP JUMPDEST PUSH2 0x23A3 JUMP JUMPDEST SWAP1 POP DUP1 DUP4 DUP3 MSTORE PUSH1 0x20 DUP3 ADD SWAP1 POP PUSH1 0x20 DUP5 MUL DUP4 ADD DUP6 DUP2 GT ISZERO PUSH2 0x2425 JUMPI PUSH2 0x2424 PUSH2 0x23EA JUMP JUMPDEST JUMPDEST DUP4 JUMPDEST DUP2 DUP2 LT ISZERO PUSH2 0x244E JUMPI DUP1 PUSH2 0x243A DUP9 DUP3 PUSH2 0x20E5 JUMP JUMPDEST DUP5 MSTORE PUSH1 0x20 DUP5 ADD SWAP4 POP POP PUSH1 0x20 DUP2 ADD SWAP1 POP PUSH2 0x2427 JUMP JUMPDEST POP POP POP SWAP4 SWAP3 POP POP POP JUMP JUMPDEST PUSH1 0x0 DUP3 PUSH1 0x1F DUP4 ADD SLT PUSH2 0x246D JUMPI PUSH2 0x246C PUSH2 0x233E JUMP JUMPDEST JUMPDEST DUP2 CALLDATALOAD PUSH2 0x247D DUP5 DUP3 PUSH1 0x20 DUP7 ADD PUSH2 0x23EF JUMP JUMPDEST SWAP2 POP POP SWAP3 SWAP2 POP POP JUMP JUMPDEST PUSH1 0x0 DUP1 REVERT JUMPDEST PUSH1 0x0 PUSH8 0xFFFFFFFFFFFFFFFF DUP3 GT ISZERO PUSH2 0x24A6 JUMPI PUSH2 0x24A5 PUSH2 0x2343 JUMP JUMPDEST JUMPDEST PUSH2 0x24AF DUP3 PUSH2 0x2292 JUMP JUMPDEST SWAP1 POP PUSH1 0x20 DUP2 ADD SWAP1 POP SWAP2 SWAP1 POP JUMP JUMPDEST DUP3 DUP2 DUP4 CALLDATACOPY PUSH1 0x0 DUP4 DUP4 ADD MSTORE POP POP POP JUMP JUMPDEST PUSH1 0x0 PUSH2 0x24DE PUSH2 0x24D9 DUP5 PUSH2 0x248B JUMP JUMPDEST PUSH2 0x23A3 JUMP JUMPDEST SWAP1 POP DUP3 DUP2 MSTORE PUSH1 0x20 DUP2 ADD DUP5 DUP5 DUP5 ADD GT ISZERO PUSH2 0x24FA JUMPI PUSH2 0x24F9 PUSH2 0x2486 JUMP JUMPDEST JUMPDEST PUSH2 0x2505 DUP5 DUP3 DUP6 PUSH2 0x24BC JUMP JUMPDEST POP SWAP4 SWAP3 POP POP POP JUMP JUMPDEST PUSH1 0x0 DUP3 PUSH1 0x1F DUP4 ADD SLT PUSH2 0x2522 JUMPI PUSH2 0x2521 PUSH2 0x233E JUMP JUMPDEST JUMPDEST DUP2 CALLDATALOAD PUSH2 0x2532 DUP5 DUP3 PUSH1 0x20 DUP7 ADD PUSH2 0x24CB JUMP JUMPDEST SWAP2 POP POP SWAP3 SWAP2 POP POP JUMP JUMPDEST PUSH1 0x0 DUP1 PUSH1 0x0 DUP1 PUSH1 0x0 PUSH1 0xA0 DUP7 DUP9 SUB SLT ISZERO PUSH2 0x2557 JUMPI PUSH2 0x2556 PUSH2 0x205C JUMP JUMPDEST JUMPDEST PUSH1 0x0 PUSH2 0x2565 DUP9 DUP3 DUP10 ADD PUSH2 0x20AF JUMP JUMPDEST SWAP6 POP POP PUSH1 0x20 PUSH2 0x2576 DUP9 DUP3 DUP10 ADD PUSH2 0x20AF JUMP JUMPDEST SWAP5 POP POP PUSH1 0x40 DUP7 ADD CALLDATALOAD PUSH8 0xFFFFFFFFFFFFFFFF DUP2 GT ISZERO PUSH2 0x2597 JUMPI PUSH2 0x2596 PUSH2 0x2061 JUMP JUMPDEST JUMPDEST PUSH2 0x25A3 DUP9 DUP3 DUP10 ADD PUSH2 0x2458 JUMP JUMPDEST SWAP4 POP POP PUSH1 0x60 DUP7 ADD CALLDATALOAD PUSH8 0xFFFFFFFFFFFFFFFF DUP2 GT ISZERO PUSH2 0x25C4 JUMPI PUSH2 0x25C3 PUSH2 0x2061 JUMP JUMPDEST JUMPDEST PUSH2 0x25D0 DUP9 DUP3 DUP10 ADD PUSH2 0x2458 JUMP JUMPDEST SWAP3 POP POP PUSH1 0x80 DUP7 ADD CALLDATALOAD PUSH8 0xFFFFFFFFFFFFFFFF DUP2 GT ISZERO PUSH2 0x25F1 JUMPI PUSH2 0x25F0 PUSH2 0x2061 JUMP JUMPDEST JUMPDEST PUSH2 0x25FD DUP9 DUP3 DUP10 ADD PUSH2 0x250D JUMP JUMPDEST SWAP2 POP POP SWAP3 SWAP6 POP SWAP3 SWAP6 SWAP1 SWAP4 POP JUMP JUMPDEST PUSH2 0x2613 DUP2 PUSH2 0x21E9 JUMP JUMPDEST DUP2 EQ PUSH2 0x261E JUMPI PUSH1 0x0 DUP1 REVERT JUMPDEST POP JUMP JUMPDEST PUSH1 0x0 DUP2 CALLDATALOAD SWAP1 POP PUSH2 0x2630 DUP2 PUSH2 0x260A JUMP JUMPDEST SWAP3 SWAP2 POP POP JUMP JUMPDEST PUSH1 0x0 DUP1 PUSH1 0x40 DUP4 DUP6 SUB SLT ISZERO PUSH2 0x264D JUMPI PUSH2 0x264C PUSH2 0x205C JUMP JUMPDEST JUMPDEST PUSH1 0x0 PUSH2 0x265B DUP6 DUP3 DUP7 ADD PUSH2 0x2621 JUMP JUMPDEST SWAP3 POP POP PUSH1 0x20 PUSH2 0x266C DUP6 DUP3 DUP7 ADD PUSH2 0x2621 JUMP JUMPDEST SWAP2 POP POP SWAP3 POP SWAP3 SWAP1 POP JUMP JUMPDEST PUSH1 0x0 PUSH8 0xFFFFFFFFFFFFFFFF DUP3 GT ISZERO PUSH2 0x2691 JUMPI PUSH2 0x2690 PUSH2 0x2343 JUMP JUMPDEST JUMPDEST PUSH1 0x20 DUP3 MUL SWAP1 POP PUSH1 0x20 DUP2 ADD SWAP1 POP SWAP2 SWAP1 POP JUMP JUMPDEST PUSH1 0x0 PUSH2 0x26B5 PUSH2 0x26B0 DUP5 PUSH2 0x2676 JUMP JUMPDEST PUSH2 0x23A3 JUMP JUMPDEST SWAP1 POP DUP1 DUP4 DUP3 MSTORE PUSH1 0x20 DUP3 ADD SWAP1 POP PUSH1 0x20 DUP5 MUL DUP4 ADD DUP6 DUP2 GT ISZERO PUSH2 0x26D8 JUMPI PUSH2 0x26D7 PUSH2 0x23EA JUMP JUMPDEST JUMPDEST DUP4 JUMPDEST DUP2 DUP2 LT ISZERO PUSH2 0x2701 JUMPI DUP1 PUSH2 0x26ED DUP9 DUP3 PUSH2 0x20AF JUMP JUMPDEST DUP5 MSTORE PUSH1 0x20 DUP5 ADD SWAP4 POP POP PUSH1 0x20 DUP2 ADD SWAP1 POP PUSH2 0x26DA JUMP JUMPDEST POP POP POP SWAP4 SWAP3 POP POP POP JUMP JUMPDEST PUSH1 0x0 DUP3 PUSH1 0x1F DUP4 ADD SLT PUSH2 0x2720 JUMPI PUSH2 0x271F PUSH2 0x233E JUMP JUMPDEST JUMPDEST DUP2 CALLDATALOAD PUSH2 0x2730 DUP5 DUP3 PUSH1 0x20 DUP7 ADD PUSH2 0x26A2 JUMP JUMPDEST SWAP2 POP POP SWAP3 SWAP2 POP POP JUMP JUMPDEST PUSH1 0x0 DUP1 PUSH1 0x40 DUP4 DUP6 SUB SLT ISZERO PUSH2 0x2750 JUMPI PUSH2 0x274F PUSH2 0x205C JUMP JUMPDEST JUMPDEST PUSH1 0x0 DUP4 ADD CALLDATALOAD PUSH8 0xFFFFFFFFFFFFFFFF DUP2 GT ISZERO PUSH2 0x276E JUMPI PUSH2 0x276D PUSH2 0x2061 JUMP JUMPDEST JUMPDEST PUSH2 0x277A DUP6 DUP3 DUP7 ADD PUSH2 0x270B JUMP JUMPDEST SWAP3 POP POP PUSH1 0x20 DUP4 ADD CALLDATALOAD PUSH8 0xFFFFFFFFFFFFFFFF DUP2 GT ISZERO PUSH2 0x279B JUMPI PUSH2 0x279A PUSH2 0x2061 JUMP JUMPDEST JUMPDEST PUSH2 0x27A7 DUP6 DUP3 DUP7 ADD PUSH2 0x2458 JUMP JUMPDEST SWAP2 POP POP SWAP3 POP SWAP3 SWAP1 POP JUMP JUMPDEST PUSH1 0x0 DUP2 MLOAD SWAP1 POP SWAP2 SWAP1 POP JUMP JUMPDEST PUSH1 0x0 DUP3 DUP3 MSTORE PUSH1 0x20 DUP3 ADD SWAP1 POP SWAP3 SWAP2 POP POP JUMP JUMPDEST PUSH1 0x0 DUP2 SWAP1 POP PUSH1 0x20 DUP3 ADD SWAP1 POP SWAP2 SWAP1 POP JUMP JUMPDEST PUSH2 0x27E6 DUP2 PUSH2 0x20C4 JUMP JUMPDEST DUP3 MSTORE POP POP JUMP JUMPDEST PUSH1 0x0 PUSH2 0x27F8 DUP4 DUP4 PUSH2 0x27DD JUMP JUMPDEST PUSH1 0x20 DUP4 ADD SWAP1 POP SWAP3 SWAP2 POP POP JUMP JUMPDEST PUSH1 0x0 PUSH1 0x20 DUP3 ADD SWAP1 POP SWAP2 SWAP1 POP JUMP JUMPDEST PUSH1 0x0 PUSH2 0x281C DUP3 PUSH2 0x27B1 JUMP JUMPDEST PUSH2 0x2826 DUP2 DUP6 PUSH2 0x27BC JUMP JUMPDEST SWAP4 POP PUSH2 0x2831 DUP4 PUSH2 0x27CD JUMP JUMPDEST DUP1 PUSH1 0x0 JUMPDEST DUP4 DUP2 LT ISZERO PUSH2 0x2862 JUMPI DUP2 MLOAD PUSH2 0x2849 DUP9 DUP3 PUSH2 0x27EC JUMP JUMPDEST SWAP8 POP PUSH2 0x2854 DUP4 PUSH2 0x2804 JUMP JUMPDEST SWAP3 POP POP PUSH1 0x1 DUP2 ADD SWAP1 POP PUSH2 0x2835 JUMP JUMPDEST POP DUP6 SWAP4 POP POP POP POP SWAP3 SWAP2 POP POP JUMP JUMPDEST PUSH1 0x0 PUSH1 0x20 DUP3 ADD SWAP1 POP DUP2 DUP2 SUB PUSH1 0x0 DUP4 ADD MSTORE PUSH2 0x2889 DUP2 DUP5 PUSH2 0x2811 JUMP JUMPDEST SWAP1 POP SWAP3 SWAP2 POP POP JUMP JUMPDEST PUSH1 0x0 DUP1 REVERT JUMPDEST PUSH1 0x0 DUP1 DUP4 PUSH1 0x1F DUP5 ADD SLT PUSH2 0x28AC JUMPI PUSH2 0x28AB PUSH2 0x233E JUMP JUMPDEST JUMPDEST DUP3 CALLDATALOAD SWAP1 POP PUSH8 0xFFFFFFFFFFFFFFFF DUP2 GT ISZERO PUSH2 0x28C9 JUMPI PUSH2 0x28C8 PUSH2 0x2891 JUMP JUMPDEST JUMPDEST PUSH1 0x20 DUP4 ADD SWAP2 POP DUP4 PUSH1 0x20 DUP3 MUL DUP4 ADD GT ISZERO PUSH2 0x28E5 JUMPI PUSH2 0x28E4 PUSH2 0x23EA JUMP JUMPDEST JUMPDEST SWAP3 POP SWAP3 SWAP1 POP JUMP JUMPDEST PUSH1 0x0 DUP1 PUSH1 0x20 DUP4 DUP6 SUB SLT ISZERO PUSH2 0x2903 JUMPI PUSH2 0x2902 PUSH2 0x205C JUMP JUMPDEST JUMPDEST PUSH1 0x0 DUP4 ADD CALLDATALOAD PUSH8 0xFFFFFFFFFFFFFFFF DUP2 GT ISZERO PUSH2 0x2921 JUMPI PUSH2 0x2920 PUSH2 0x2061 JUMP JUMPDEST JUMPDEST PUSH2 0x292D DUP6 DUP3 DUP7 ADD PUSH2 0x2896 JUMP JUMPDEST SWAP3 POP SWAP3 POP POP SWAP3 POP SWAP3 SWAP1 POP JUMP JUMPDEST PUSH2 0x2942 DUP2 PUSH2 0x2086 JUMP JUMPDEST DUP3 MSTORE POP POP JUMP JUMPDEST PUSH1 0x0 PUSH1 0x20 DUP3 ADD SWAP1 POP PUSH2 0x295D PUSH1 0x0 DUP4 ADD DUP5 PUSH2 0x2939 JUMP JUMPDEST SWAP3 SWAP2 POP POP JUMP JUMPDEST PUSH1 0x0 DUP1 PUSH1 0x40 DUP4 DUP6 SUB SLT ISZERO PUSH2 0x297A JUMPI PUSH2 0x2979 PUSH2 0x205C JUMP JUMPDEST JUMPDEST PUSH1 0x0 PUSH2 0x2988 DUP6 DUP3 DUP7 ADD PUSH2 0x20AF JUMP JUMPDEST SWAP3 POP POP PUSH1 0x20 PUSH2 0x2999 DUP6 DUP3 DUP7 ADD PUSH2 0x2621 JUMP JUMPDEST SWAP2 POP POP SWAP3 POP SWAP3 SWAP1 POP JUMP JUMPDEST PUSH1 0x0 DUP1 PUSH1 0x40 DUP4 DUP6 SUB SLT ISZERO PUSH2 0x29BA JUMPI PUSH2 0x29B9 PUSH2 0x205C JUMP JUMPDEST JUMPDEST PUSH1 0x0 PUSH2 0x29C8 DUP6 DUP3 DUP7 ADD PUSH2 0x20AF JUMP JUMPDEST SWAP3 POP POP PUSH1 0x20 PUSH2 0x29D9 DUP6 DUP3 DUP7 ADD PUSH2 0x20AF JUMP JUMPDEST SWAP2 POP POP SWAP3 POP SWAP3 SWAP1 POP JUMP JUMPDEST PUSH1 0x0 DUP1 PUSH1 0x0 DUP1 PUSH1 0x0 PUSH1 0xA0 DUP7 DUP9 SUB SLT ISZERO PUSH2 0x29FF JUMPI PUSH2 0x29FE PUSH2 0x205C JUMP JUMPDEST JUMPDEST PUSH1 0x0 PUSH2 0x2A0D DUP9 DUP3 DUP10 ADD PUSH2 0x20AF JUMP JUMPDEST SWAP6 POP POP PUSH1 0x20 PUSH2 0x2A1E DUP9 DUP3 DUP10 ADD PUSH2 0x20AF JUMP JUMPDEST SWAP5 POP POP PUSH1 0x40 PUSH2 0x2A2F DUP9 DUP3 DUP10 ADD PUSH2 0x20E5 JUMP JUMPDEST SWAP4 POP POP PUSH1 0x60 PUSH2 0x2A40 DUP9 DUP3 DUP10 ADD PUSH2 0x20E5 JUMP JUMPDEST SWAP3 POP POP PUSH1 0x80 DUP7 ADD CALLDATALOAD PUSH8 0xFFFFFFFFFFFFFFFF DUP2 GT ISZERO PUSH2 0x2A61 JUMPI PUSH2 0x2A60 PUSH2 0x2061 JUMP JUMPDEST JUMPDEST PUSH2 0x2A6D DUP9 DUP3 DUP10 ADD PUSH2 0x250D JUMP JUMPDEST SWAP2 POP POP SWAP3 SWAP6 POP SWAP3 SWAP6 SWAP1 SWAP4 POP JUMP JUMPDEST PUSH1 0x0 PUSH1 0x20 DUP3 DUP5 SUB SLT ISZERO PUSH2 0x2A90 JUMPI PUSH2 0x2A8F PUSH2 0x205C JUMP JUMPDEST JUMPDEST PUSH1 0x0 PUSH2 0x2A9E DUP5 DUP3 DUP6 ADD PUSH2 0x20AF JUMP JUMPDEST SWAP2 POP POP SWAP3 SWAP2 POP POP JUMP JUMPDEST PUSH32 0x455243313135353A2061646472657373207A65726F206973206E6F7420612076 PUSH1 0x0 DUP3 ADD MSTORE PUSH32 0x616C6964206F776E657200000000000000000000000000000000000000000000 PUSH1 0x20 DUP3 ADD MSTORE POP JUMP JUMPDEST PUSH1 0x0 PUSH2 0x2B03 PUSH1 0x2A DUP4 PUSH2 0x2257 JUMP JUMPDEST SWAP2 POP PUSH2 0x2B0E DUP3 PUSH2 0x2AA7 JUMP JUMPDEST PUSH1 0x40 DUP3 ADD SWAP1 POP SWAP2 SWAP1 POP JUMP JUMPDEST PUSH1 0x0 PUSH1 0x20 DUP3 ADD SWAP1 POP DUP2 DUP2 SUB PUSH1 0x0 DUP4 ADD MSTORE PUSH2 0x2B32 DUP2 PUSH2 0x2AF6 JUMP JUMPDEST SWAP1 POP SWAP2 SWAP1 POP JUMP JUMPDEST PUSH32 0x49747320436C6F73656400000000000000000000000000000000000000000000 PUSH1 0x0 DUP3 ADD MSTORE POP JUMP JUMPDEST PUSH1 0x0 PUSH2 0x2B6F PUSH1 0xA DUP4 PUSH2 0x2257 JUMP JUMPDEST SWAP2 POP PUSH2 0x2B7A DUP3 PUSH2 0x2B39 JUMP JUMPDEST PUSH1 0x20 DUP3 ADD SWAP1 POP SWAP2 SWAP1 POP JUMP JUMPDEST PUSH1 0x0 PUSH1 0x20 DUP3 ADD SWAP1 POP DUP2 DUP2 SUB PUSH1 0x0 DUP4 ADD MSTORE PUSH2 0x2B9E DUP2 PUSH2 0x2B62 JUMP JUMPDEST SWAP1 POP SWAP2 SWAP1 POP JUMP JUMPDEST PUSH32 0x596F7520617265206E6F74206C697374656420696E20616C6F777765646C6973 PUSH1 0x0 DUP3 ADD MSTORE PUSH32 0x7400000000000000000000000000000000000000000000000000000000000000 PUSH1 0x20 DUP3 ADD MSTORE POP JUMP JUMPDEST PUSH1 0x0 PUSH2 0x2C01 PUSH1 0x21 DUP4 PUSH2 0x2257 JUMP JUMPDEST SWAP2 POP PUSH2 0x2C0C DUP3 PUSH2 0x2BA5 JUMP JUMPDEST PUSH1 0x40 DUP3 ADD SWAP1 POP SWAP2 SWAP1 POP JUMP JUMPDEST PUSH1 0x0 PUSH1 0x20 DUP3 ADD SWAP1 POP DUP2 DUP2 SUB PUSH1 0x0 DUP4 ADD MSTORE PUSH2 0x2C30 DUP2 PUSH2 0x2BF4 JUMP JUMPDEST SWAP1 POP SWAP2 SWAP1 POP JUMP JUMPDEST PUSH32 0x4E487B7100000000000000000000000000000000000000000000000000000000 PUSH1 0x0 MSTORE PUSH1 0x11 PUSH1 0x4 MSTORE PUSH1 0x24 PUSH1 0x0 REVERT JUMPDEST PUSH1 0x0 PUSH2 0x2C71 DUP3 PUSH2 0x20C4 JUMP JUMPDEST SWAP2 POP PUSH2 0x2C7C DUP4 PUSH2 0x20C4 JUMP JUMPDEST SWAP3 POP DUP3 DUP3 MUL PUSH2 0x2C8A DUP2 PUSH2 0x20C4 JUMP JUMPDEST SWAP2 POP DUP3 DUP3 DIV DUP5 EQ DUP4 ISZERO OR PUSH2 0x2CA1 JUMPI PUSH2 0x2CA0 PUSH2 0x2C37 JUMP JUMPDEST JUMPDEST POP SWAP3 SWAP2 POP POP JUMP JUMPDEST PUSH32 0x4E6F7420456E6F756768206D6F6E65792073656E742021000000000000000000 PUSH1 0x0 DUP3 ADD MSTORE POP JUMP JUMPDEST PUSH1 0x0 PUSH2 0x2CDE PUSH1 0x17 DUP4 PUSH2 0x2257 JUMP JUMPDEST SWAP2 POP PUSH2 0x2CE9 DUP3 PUSH2 0x2CA8 JUMP JUMPDEST PUSH1 0x20 DUP3 ADD SWAP1 POP SWAP2 SWAP1 POP JUMP JUMPDEST PUSH1 0x0 PUSH1 0x20 DUP3 ADD SWAP1 POP DUP2 DUP2 SUB PUSH1 0x0 DUP4 ADD MSTORE PUSH2 0x2D0D DUP2 PUSH2 0x2CD1 JUMP JUMPDEST SWAP1 POP SWAP2 SWAP1 POP JUMP JUMPDEST PUSH32 0x536F72727920796F7520617265206D696E746E672077726F6E67206E66740000 PUSH1 0x0 DUP3 ADD MSTORE POP JUMP JUMPDEST PUSH1 0x0 PUSH2 0x2D4A PUSH1 0x1E DUP4 PUSH2 0x2257 JUMP JUMPDEST SWAP2 POP PUSH2 0x2D55 DUP3 PUSH2 0x2D14 JUMP JUMPDEST PUSH1 0x20 DUP3 ADD SWAP1 POP SWAP2 SWAP1 POP JUMP JUMPDEST PUSH1 0x0 PUSH1 0x20 DUP3 ADD SWAP1 POP DUP2 DUP2 SUB PUSH1 0x0 DUP4 ADD MSTORE PUSH2 0x2D79 DUP2 PUSH2 0x2D3D JUMP JUMPDEST SWAP1 POP SWAP2 SWAP1 POP JUMP JUMPDEST PUSH1 0x0 PUSH2 0x2D8B DUP3 PUSH2 0x20C4 JUMP JUMPDEST SWAP2 POP PUSH2 0x2D96 DUP4 PUSH2 0x20C4 JUMP JUMPDEST SWAP3 POP DUP3 DUP3 ADD SWAP1 POP DUP1 DUP3 GT ISZERO PUSH2 0x2DAE JUMPI PUSH2 0x2DAD PUSH2 0x2C37 JUMP JUMPDEST JUMPDEST SWAP3 SWAP2 POP POP JUMP JUMPDEST PUSH32 0x4C696D6979206578656564656400000000000000000000000000000000000000 PUSH1 0x0 DUP3 ADD MSTORE POP JUMP JUMPDEST PUSH1 0x0 PUSH2 0x2DEA PUSH1 0xD DUP4 PUSH2 0x2257 JUMP JUMPDEST SWAP2 POP PUSH2 0x2DF5 DUP3 PUSH2 0x2DB4 JUMP JUMPDEST PUSH1 0x20 DUP3 ADD SWAP1 POP SWAP2 SWAP1 POP JUMP JUMPDEST PUSH1 0x0 PUSH1 0x20 DUP3 ADD SWAP1 POP DUP2 DUP2 SUB PUSH1 0x0 DUP4 ADD MSTORE PUSH2 0x2E19 DUP2 PUSH2 0x2DDD JUMP JUMPDEST SWAP1 POP SWAP2 SWAP1 POP JUMP JUMPDEST PUSH32 0x49747320636C6F73656400000000000000000000000000000000000000000000 PUSH1 0x0 DUP3 ADD MSTORE POP JUMP JUMPDEST PUSH1 0x0 PUSH2 0x2E56 PUSH1 0xA DUP4 PUSH2 0x2257 JUMP JUMPDEST SWAP2 POP PUSH2 0x2E61 DUP3 PUSH2 0x2E20 JUMP JUMPDEST PUSH1 0x20 DUP3 ADD SWAP1 POP SWAP2 SWAP1 POP JUMP JUMPDEST PUSH1 0x0 PUSH1 0x20 DUP3 ADD SWAP1 POP DUP2 DUP2 SUB PUSH1 0x0 DUP4 ADD MSTORE PUSH2 0x2E85 DUP2 PUSH2 0x2E49 JUMP JUMPDEST SWAP1 POP SWAP2 SWAP1 POP JUMP JUMPDEST PUSH32 0x456E74657220726967687420616D6F756E740000000000000000000000000000 PUSH1 0x0 DUP3 ADD MSTORE POP JUMP JUMPDEST PUSH1 0x0 PUSH2 0x2EC2 PUSH1 0x12 DUP4 PUSH2 0x2257 JUMP JUMPDEST SWAP2 POP PUSH2 0x2ECD DUP3 PUSH2 0x2E8C JUMP JUMPDEST PUSH1 0x20 DUP3 ADD SWAP1 POP SWAP2 SWAP1 POP JUMP JUMPDEST PUSH1 0x0 PUSH1 0x20 DUP3 ADD SWAP1 POP DUP2 DUP2 SUB PUSH1 0x0 DUP4 ADD MSTORE PUSH2 0x2EF1 DUP2 PUSH2 0x2EB5 JUMP JUMPDEST SWAP1 POP SWAP2 SWAP1 POP JUMP JUMPDEST PUSH32 0x455243313135353A2063616C6C6572206973206E6F7420746F6B656E206F776E PUSH1 0x0 DUP3 ADD MSTORE PUSH32 0x6572206F7220617070726F766564000000000000000000000000000000000000 PUSH1 0x20 DUP3 ADD MSTORE POP JUMP JUMPDEST PUSH1 0x0 PUSH2 0x2F54 PUSH1 0x2E DUP4 PUSH2 0x2257 JUMP JUMPDEST SWAP2 POP PUSH2 0x2F5F DUP3 PUSH2 0x2EF8 JUMP JUMPDEST PUSH1 0x40 DUP3 ADD SWAP1 POP SWAP2 SWAP1 POP JUMP JUMPDEST PUSH1 0x0 PUSH1 0x20 DUP3 ADD SWAP1 POP DUP2 DUP2 SUB PUSH1 0x0 DUP4 ADD MSTORE PUSH2 0x2F83 DUP2 PUSH2 0x2F47 JUMP JUMPDEST SWAP1 POP SWAP2 SWAP1 POP JUMP JUMPDEST PUSH32 0x455243313135353A206163636F756E747320616E6420696473206C656E677468 PUSH1 0x0 DUP3 ADD MSTORE PUSH32 0x206D69736D617463680000000000000000000000000000000000000000000000 PUSH1 0x20 DUP3 ADD MSTORE POP JUMP JUMPDEST PUSH1 0x0 PUSH2 0x2FE6 PUSH1 0x29 DUP4 PUSH2 0x2257 JUMP JUMPDEST SWAP2 POP PUSH2 0x2FF1 DUP3 PUSH2 0x2F8A JUMP JUMPDEST PUSH1 0x40 DUP3 ADD SWAP1 POP SWAP2 SWAP1 POP JUMP JUMPDEST PUSH1 0x0 PUSH1 0x20 DUP3 ADD SWAP1 POP DUP2 DUP2 SUB PUSH1 0x0 DUP4 ADD MSTORE PUSH2 0x3015 DUP2 PUSH2 0x2FD9 JUMP JUMPDEST SWAP1 POP SWAP2 SWAP1 POP JUMP JUMPDEST PUSH32 0x4E487B7100000000000000000000000000000000000000000000000000000000 PUSH1 0x0 MSTORE PUSH1 0x32 PUSH1 0x4 MSTORE PUSH1 0x24 PUSH1 0x0 REVERT JUMPDEST PUSH1 0x0 PUSH2 0x3056 DUP3 PUSH2 0x20C4 JUMP JUMPDEST SWAP2 POP PUSH32 0xFFFFFFFFFFFFFFFFFFFFFFFFFFFFFFFFFFFFFFFFFFFFFFFFFFFFFFFFFFFFFFFF DUP3 SUB PUSH2 0x3088 JUMPI PUSH2 0x3087 PUSH2 0x2C37 JUMP JUMPDEST JUMPDEST PUSH1 0x1 DUP3 ADD SWAP1 POP SWAP2 SWAP1 POP JUMP JUMPDEST PUSH32 0x4F776E61626C653A206E6577206F776E657220697320746865207A65726F2061 PUSH1 0x0 DUP3 ADD MSTORE PUSH32 0x6464726573730000000000000000000000000000000000000000000000000000 PUSH1 0x20 DUP3 ADD MSTORE POP JUMP JUMPDEST PUSH1 0x0 PUSH2 0x30EF PUSH1 0x26 DUP4 PUSH2 0x2257 JUMP JUMPDEST SWAP2 POP PUSH2 0x30FA DUP3 PUSH2 0x3093 JUMP JUMPDEST PUSH1 0x40 DUP3 ADD SWAP1 POP SWAP2 SWAP1 POP JUMP JUMPDEST PUSH1 0x0 PUSH1 0x20 DUP3 ADD SWAP1 POP DUP2 DUP2 SUB PUSH1 0x0 DUP4 ADD MSTORE PUSH2 0x311E DUP2 PUSH2 0x30E2 JUMP JUMPDEST SWAP1 POP SWAP2 SWAP1 POP JUMP JUMPDEST PUSH32 0x455243313135353A206D696E7420746F20746865207A65726F20616464726573 PUSH1 0x0 DUP3 ADD MSTORE PUSH32 0x7300000000000000000000000000000000000000000000000000000000000000 PUSH1 0x20 DUP3 ADD MSTORE POP JUMP JUMPDEST PUSH1 0x0 PUSH2 0x3181 PUSH1 0x21 DUP4 PUSH2 0x2257 JUMP JUMPDEST SWAP2 POP PUSH2 0x318C DUP3 PUSH2 0x3125 JUMP JUMPDEST PUSH1 0x40 DUP3 ADD SWAP1 POP SWAP2 SWAP1 POP JUMP JUMPDEST PUSH1 0x0 PUSH1 0x20 DUP3 ADD SWAP1 POP DUP2 DUP2 SUB PUSH1 0x0 DUP4 ADD MSTORE PUSH2 0x31B0 DUP2 PUSH2 0x3174 JUMP JUMPDEST SWAP1 POP SWAP2 SWAP1 POP JUMP JUMPDEST PUSH1 0x0 PUSH1 0x40 DUP3 ADD SWAP1 POP PUSH2 0x31CC PUSH1 0x0 DUP4 ADD DUP6 PUSH2 0x213A JUMP JUMPDEST PUSH2 0x31D9 PUSH1 0x20 DUP4 ADD DUP5 PUSH2 0x213A JUMP JUMPDEST SWAP4 SWAP3 POP POP POP JUMP JUMPDEST PUSH32 0x455243313135353A2069647320616E6420616D6F756E7473206C656E67746820 PUSH1 0x0 DUP3 ADD MSTORE PUSH32 0x6D69736D61746368000000000000000000000000000000000000000000000000 PUSH1 0x20 DUP3 ADD MSTORE POP JUMP JUMPDEST PUSH1 0x0 PUSH2 0x323C PUSH1 0x28 DUP4 PUSH2 0x2257 JUMP JUMPDEST SWAP2 POP PUSH2 0x3247 DUP3 PUSH2 0x31E0 JUMP JUMPDEST PUSH1 0x40 DUP3 ADD SWAP1 POP SWAP2 SWAP1 POP JUMP JUMPDEST PUSH1 0x0 PUSH1 0x20 DUP3 ADD SWAP1 POP DUP2 DUP2 SUB PUSH1 0x0 DUP4 ADD MSTORE PUSH2 0x326B DUP2 PUSH2 0x322F JUMP JUMPDEST SWAP1 POP SWAP2 SWAP1 POP JUMP JUMPDEST PUSH32 0x455243313135353A207472616E7366657220746F20746865207A65726F206164 PUSH1 0x0 DUP3 ADD MSTORE PUSH32 0x6472657373000000000000000000000000000000000000000000000000000000 PUSH1 0x20 DUP3 ADD MSTORE POP JUMP JUMPDEST PUSH1 0x0 PUSH2 0x32CE PUSH1 0x25 DUP4 PUSH2 0x2257 JUMP JUMPDEST SWAP2 POP PUSH2 0x32D9 DUP3 PUSH2 0x3272 JUMP JUMPDEST PUSH1 0x40 DUP3 ADD SWAP1 POP SWAP2 SWAP1 POP JUMP JUMPDEST PUSH1 0x0 PUSH1 0x20 DUP3 ADD SWAP1 POP DUP2 DUP2 SUB PUSH1 0x0 DUP4 ADD MSTORE PUSH2 0x32FD DUP2 PUSH2 0x32C1 JUMP JUMPDEST SWAP1 POP SWAP2 SWAP1 POP JUMP JUMPDEST PUSH32 0x455243313135353A20696E73756666696369656E742062616C616E636520666F PUSH1 0x0 DUP3 ADD MSTORE PUSH32 0x72207472616E7366657200000000000000000000000000000000000000000000 PUSH1 0x20 DUP3 ADD MSTORE POP JUMP JUMPDEST PUSH1 0x0 PUSH2 0x3360 PUSH1 0x2A DUP4 PUSH2 0x2257 JUMP JUMPDEST SWAP2 POP PUSH2 0x336B DUP3 PUSH2 0x3304 JUMP JUMPDEST PUSH1 0x40 DUP3 ADD SWAP1 POP SWAP2 SWAP1 POP JUMP JUMPDEST PUSH1 0x0 PUSH1 0x20 DUP3 ADD SWAP1 POP DUP2 DUP2 SUB PUSH1 0x0 DUP4 ADD MSTORE PUSH2 0x338F DUP2 PUSH2 0x3353 JUMP JUMPDEST SWAP1 POP SWAP2 SWAP1 POP JUMP JUMPDEST PUSH1 0x0 PUSH1 0x40 DUP3 ADD SWAP1 POP DUP2 DUP2 SUB PUSH1 0x0 DUP4 ADD MSTORE PUSH2 0x33B0 DUP2 DUP6 PUSH2 0x2811 JUMP JUMPDEST SWAP1 POP DUP2 DUP2 SUB PUSH1 0x20 DUP4 ADD MSTORE PUSH2 0x33C4 DUP2 DUP5 PUSH2 0x2811 JUMP JUMPDEST SWAP1 POP SWAP4 SWAP3 POP POP POP JUMP JUMPDEST PUSH32 0x4F776E61626C653A2063616C6C6572206973206E6F7420746865206F776E6572 PUSH1 0x0 DUP3 ADD MSTORE POP JUMP JUMPDEST PUSH1 0x0 PUSH2 0x3403 PUSH1 0x20 DUP4 PUSH2 0x2257 JUMP JUMPDEST SWAP2 POP PUSH2 0x340E DUP3 PUSH2 0x33CD JUMP JUMPDEST PUSH1 0x20 DUP3 ADD SWAP1 POP SWAP2 SWAP1 POP JUMP JUMPDEST PUSH1 0x0 PUSH1 0x20 DUP3 ADD SWAP1 POP DUP2 DUP2 SUB PUSH1 0x0 DUP4 ADD MSTORE PUSH2 0x3432 DUP2 PUSH2 0x33F6 JUMP JUMPDEST SWAP1 POP SWAP2 SWAP1 POP JUMP JUMPDEST PUSH32 0x455243313135353A2073657474696E6720617070726F76616C20737461747573 PUSH1 0x0 DUP3 ADD MSTORE PUSH32 0x20666F722073656C660000000000000000000000000000000000000000000000 PUSH1 0x20 DUP3 ADD MSTORE POP JUMP JUMPDEST PUSH1 0x0 PUSH2 0x3495 PUSH1 0x29 DUP4 PUSH2 0x2257 JUMP JUMPDEST SWAP2 POP PUSH2 0x34A0 DUP3 PUSH2 0x3439 JUMP JUMPDEST PUSH1 0x40 DUP3 ADD SWAP1 POP SWAP2 SWAP1 POP JUMP JUMPDEST PUSH1 0x0 PUSH1 0x20 DUP3 ADD SWAP1 POP DUP2 DUP2 SUB PUSH1 0x0 DUP4 ADD MSTORE PUSH2 0x34C4 DUP2 PUSH2 0x3488 JUMP JUMPDEST SWAP1 POP SWAP2 SWAP1 POP JUMP JUMPDEST PUSH1 0x0 DUP2 MLOAD SWAP1 POP SWAP2 SWAP1 POP JUMP JUMPDEST PUSH1 0x0 DUP3 DUP3 MSTORE PUSH1 0x20 DUP3 ADD SWAP1 POP SWAP3 SWAP2 POP POP JUMP JUMPDEST PUSH1 0x0 PUSH2 0x34F2 DUP3 PUSH2 0x34CB JUMP JUMPDEST PUSH2 0x34FC DUP2 DUP6 PUSH2 0x34D6 JUMP JUMPDEST SWAP4 POP PUSH2 0x350C DUP2 DUP6 PUSH1 0x20 DUP7 ADD PUSH2 0x2268 JUMP JUMPDEST PUSH2 0x3515 DUP2 PUSH2 0x2292 JUMP JUMPDEST DUP5 ADD SWAP2 POP POP SWAP3 SWAP2 POP POP JUMP JUMPDEST PUSH1 0x0 PUSH1 0xA0 DUP3 ADD SWAP1 POP PUSH2 0x3535 PUSH1 0x0 DUP4 ADD DUP9 PUSH2 0x2939 JUMP JUMPDEST PUSH2 0x3542 PUSH1 0x20 DUP4 ADD DUP8 PUSH2 0x2939 JUMP JUMPDEST PUSH2 0x354F PUSH1 0x40 DUP4 ADD DUP7 PUSH2 0x213A JUMP JUMPDEST PUSH2 0x355C PUSH1 0x60 DUP4 ADD DUP6 PUSH2 0x213A JUMP JUMPDEST DUP2 DUP2 SUB PUSH1 0x80 DUP4 ADD MSTORE PUSH2 0x356E DUP2 DUP5 PUSH2 0x34E7 JUMP JUMPDEST SWAP1 POP SWAP7 SWAP6 POP POP POP POP POP POP JUMP JUMPDEST PUSH1 0x0 DUP2 MLOAD SWAP1 POP PUSH2 0x3589 DUP2 PUSH2 0x2190 JUMP JUMPDEST SWAP3 SWAP2 POP POP JUMP JUMPDEST PUSH1 0x0 PUSH1 0x20 DUP3 DUP5 SUB SLT ISZERO PUSH2 0x35A5 JUMPI PUSH2 0x35A4 PUSH2 0x205C JUMP JUMPDEST JUMPDEST PUSH1 0x0 PUSH2 0x35B3 DUP5 DUP3 DUP6 ADD PUSH2 0x357A JUMP JUMPDEST SWAP2 POP POP SWAP3 SWAP2 POP POP JUMP JUMPDEST PUSH1 0x0 DUP2 PUSH1 0xE0 SHR SWAP1 POP SWAP2 SWAP1 POP JUMP JUMPDEST PUSH1 0x0 PUSH1 0x3 RETURNDATASIZE GT ISZERO PUSH2 0x35E8 JUMPI PUSH1 0x4 PUSH1 0x0 DUP1 RETURNDATACOPY PUSH2 0x35E5 PUSH1 0x0 MLOAD PUSH2 0x35BC JUMP JUMPDEST SWAP1 POP JUMPDEST SWAP1 JUMP JUMPDEST PUSH1 0x0 PUSH1 0x44 RETURNDATASIZE LT PUSH2 0x3678 JUMPI PUSH2 0x35FD PUSH2 0x2052 JUMP JUMPDEST PUSH1 0x4 RETURNDATASIZE SUB PUSH1 0x4 DUP3 RETURNDATACOPY DUP1 MLOAD RETURNDATASIZE PUSH1 0x24 DUP3 ADD GT PUSH8 0xFFFFFFFFFFFFFFFF DUP3 GT OR ISZERO PUSH2 0x3625 JUMPI POP POP PUSH2 0x3678 JUMP JUMPDEST DUP1 DUP3 ADD DUP1 MLOAD PUSH8 0xFFFFFFFFFFFFFFFF DUP2 GT ISZERO PUSH2 0x3643 JUMPI POP POP POP POP PUSH2 0x3678 JUMP JUMPDEST DUP1 PUSH1 0x20 DUP4 ADD ADD PUSH1 0x4 RETURNDATASIZE SUB DUP6 ADD DUP2 GT ISZERO PUSH2 0x3660 JUMPI POP POP POP POP POP PUSH2 0x3678 JUMP JUMPDEST PUSH2 0x366F DUP3 PUSH1 0x20 ADD DUP6 ADD DUP7 PUSH2 0x2372 JUMP JUMPDEST DUP3 SWAP6 POP POP POP POP POP POP JUMPDEST SWAP1 JUMP JUMPDEST PUSH32 0x455243313135353A207472616E7366657220746F206E6F6E2D45524331313535 PUSH1 0x0 DUP3 ADD MSTORE PUSH32 0x526563656976657220696D706C656D656E746572000000000000000000000000 PUSH1 0x20 DUP3 ADD MSTORE POP JUMP JUMPDEST PUSH1 0x0 PUSH2 0x36D7 PUSH1 0x34 DUP4 PUSH2 0x2257 JUMP JUMPDEST SWAP2 POP PUSH2 0x36E2 DUP3 PUSH2 0x367B JUMP JUMPDEST PUSH1 0x40 DUP3 ADD SWAP1 POP SWAP2 SWAP1 POP JUMP JUMPDEST PUSH1 0x0 PUSH1 0x20 DUP3 ADD SWAP1 POP DUP2 DUP2 SUB PUSH1 0x0 DUP4 ADD MSTORE PUSH2 0x3706 DUP2 PUSH2 0x36CA JUMP JUMPDEST SWAP1 POP SWAP2 SWAP1 POP JUMP JUMPDEST PUSH32 0x455243313135353A204552433131353552656365697665722072656A65637465 PUSH1 0x0 DUP3 ADD MSTORE PUSH32 0x6420746F6B656E73000000000000000000000000000000000000000000000000 PUSH1 0x20 DUP3 ADD MSTORE POP JUMP JUMPDEST PUSH1 0x0 PUSH2 0x3769 PUSH1 0x28 DUP4 PUSH2 0x2257 JUMP JUMPDEST SWAP2 POP PUSH2 0x3774 DUP3 PUSH2 0x370D JUMP JUMPDEST PUSH1 0x40 DUP3 ADD SWAP1 POP SWAP2 SWAP1 POP JUMP JUMPDEST PUSH1 0x0 PUSH1 0x20 DUP3 ADD SWAP1 POP DUP2 DUP2 SUB PUSH1 0x0 DUP4 ADD MSTORE PUSH2 0x3798 DUP2 PUSH2 0x375C JUMP JUMPDEST SWAP1 POP SWAP2 SWAP1 POP JUMP JUMPDEST PUSH1 0x0 PUSH1 0xA0 DUP3 ADD SWAP1 POP PUSH2 0x37B4 PUSH1 0x0 DUP4 ADD DUP9 PUSH2 0x2939 JUMP JUMPDEST PUSH2 0x37C1 PUSH1 0x20 DUP4 ADD DUP8 PUSH2 0x2939 JUMP JUMPDEST DUP2 DUP2 SUB PUSH1 0x40 DUP4 ADD MSTORE PUSH2 0x37D3 DUP2 DUP7 PUSH2 0x2811 JUMP JUMPDEST SWAP1 POP DUP2 DUP2 SUB PUSH1 0x60 DUP4 ADD MSTORE PUSH2 0x37E7 DUP2 DUP6 PUSH2 0x2811 JUMP JUMPDEST SWAP1 POP DUP2 DUP2 SUB PUSH1 0x80 DUP4 ADD MSTORE PUSH2 0x37FB DUP2 DUP5 PUSH2 0x34E7 JUMP JUMPDEST SWAP1 POP SWAP7 SWAP6 POP POP POP POP POP POP JUMP JUMPDEST PUSH32 0x455243313135353A206275726E20616D6F756E74206578636565647320746F74 PUSH1 0x0 DUP3 ADD MSTORE PUSH32 0x616C537570706C79000000000000000000000000000000000000000000000000 PUSH1 0x20 DUP3 ADD MSTORE POP JUMP JUMPDEST PUSH1 0x0 PUSH2 0x3863 PUSH1 0x28 DUP4 PUSH2 0x2257 JUMP JUMPDEST SWAP2 POP PUSH2 0x386E DUP3 PUSH2 0x3807 JUMP JUMPDEST PUSH1 0x40 DUP3 ADD SWAP1 POP SWAP2 SWAP1 POP JUMP JUMPDEST PUSH1 0x0 PUSH1 0x20 DUP3 ADD SWAP1 POP DUP2 DUP2 SUB PUSH1 0x0 DUP4 ADD MSTORE PUSH2 0x3892 DUP2 PUSH2 0x3856 JUMP JUMPDEST SWAP1 POP SWAP2 SWAP1 POP JUMP INVALID LOG2 PUSH5 0x6970667358 0x22 SLT KECCAK256 DUP3 PUSH18 0x72E2010C8C8F2366A1827B37729D010759DC 0xAE 0xDE PUSH2 0x1A22 0x49 0x28 0xAF 0xCF 0xC2 SWAP2 SWAP4 PUSH5 0x736F6C6343 STOP ADDMOD SLT STOP CALLER PUSH9 0x747470733A2F2F6761 PUSH21 0x657761792E70696E6174612E636C6F75642F697066 PUSH20 0x2F516D5A316341476869786F6A4568616D536771 PUSH3 0x645056 PUSH6 0x784376414C35 SLOAD 0x4A CHAINID BALANCE PUSH10 0x53705141783944745152 ORIGIN 0x2F "
		},
		"gasEstimates": {
			"creation": {
				"codeDepositCost": "2908600",
				"executionCost": "infinite",
				"totalCost": "infinite"
			},
			"external": {
				"allowListMint(uint256,uint256)": "infinite",
				"allowListMintOpen()": "2589",
				"balanceOf(address,uint256)": "infinite",
				"balanceOfBatch(address[],uint256[])": "infinite",
				"editMintState(bool,bool)": "infinite",
				"exists(uint256)": "2858",
				"isApprovedForAll(address,address)": "infinite",
				"maxSupply()": "395",
				"mint(uint256,uint256)": "infinite",
				"owner()": "2611",
				"publicMintOpen()": "2493",
				"renounceOwnership()": "30465",
				"safeBatchTransferFrom(address,address,uint256[],uint256[],bytes)": "infinite",
				"safeTransferFrom(address,address,uint256,uint256,bytes)": "infinite",
				"setAllowList(address[])": "infinite",
				"setApprovalForAll(address,bool)": "infinite",
				"supportsInterface(bytes4)": "819",
				"totalSupply(uint256)": "infinite",
				"transferOwnership(address)": "30876",
				"uri(uint256)": "infinite",
				"withdraw()": "infinite"
			},
			"internal": {
				"_beforeTokenTransfer(address,address,address,uint256[] memory,uint256[] memory,bytes memory)": "infinite"
			}
		},
		"methodIdentifiers": {
			"allowListMint(uint256,uint256)": "128ac91b",
			"allowListMintOpen()": "085c9bac",
			"balanceOf(address,uint256)": "00fdd58e",
			"balanceOfBatch(address[],uint256[])": "4e1273f4",
			"editMintState(bool,bool)": "32324ea8",
			"exists(uint256)": "4f558e79",
			"isApprovedForAll(address,address)": "e985e9c5",
			"maxSupply()": "d5abeb01",
			"mint(uint256,uint256)": "1b2ef1ca",
			"owner()": "8da5cb5b",
			"publicMintOpen()": "bcc9ca5b",
			"renounceOwnership()": "715018a6",
			"safeBatchTransferFrom(address,address,uint256[],uint256[],bytes)": "2eb2c2d6",
			"safeTransferFrom(address,address,uint256,uint256,bytes)": "f242432a",
			"setAllowList(address[])": "6447c35d",
			"setApprovalForAll(address,bool)": "a22cb465",
			"supportsInterface(bytes4)": "01ffc9a7",
			"totalSupply(uint256)": "bd85b039",
			"transferOwnership(address)": "f2fde38b",
			"uri(uint256)": "0e89341c",
			"withdraw()": "3ccfd60b"
		}
	},
	"abi": [
		{
			"inputs": [],
			"stateMutability": "nonpayable",
			"type": "constructor"
		},
		{
			"anonymous": false,
			"inputs": [
				{
					"indexed": true,
					"internalType": "address",
					"name": "account",
					"type": "address"
				},
				{
					"indexed": true,
					"internalType": "address",
					"name": "operator",
					"type": "address"
				},
				{
					"indexed": false,
					"internalType": "bool",
					"name": "approved",
					"type": "bool"
				}
			],
			"name": "ApprovalForAll",
			"type": "event"
		},
		{
			"anonymous": false,
			"inputs": [
				{
					"indexed": true,
					"internalType": "address",
					"name": "previousOwner",
					"type": "address"
				},
				{
					"indexed": true,
					"internalType": "address",
					"name": "newOwner",
					"type": "address"
				}
			],
			"name": "OwnershipTransferred",
			"type": "event"
		},
		{
			"anonymous": false,
			"inputs": [
				{
					"indexed": true,
					"internalType": "address",
					"name": "operator",
					"type": "address"
				},
				{
					"indexed": true,
					"internalType": "address",
					"name": "from",
					"type": "address"
				},
				{
					"indexed": true,
					"internalType": "address",
					"name": "to",
					"type": "address"
				},
				{
					"indexed": false,
					"internalType": "uint256[]",
					"name": "ids",
					"type": "uint256[]"
				},
				{
					"indexed": false,
					"internalType": "uint256[]",
					"name": "values",
					"type": "uint256[]"
				}
			],
			"name": "TransferBatch",
			"type": "event"
		},
		{
			"anonymous": false,
			"inputs": [
				{
					"indexed": true,
					"internalType": "address",
					"name": "operator",
					"type": "address"
				},
				{
					"indexed": true,
					"internalType": "address",
					"name": "from",
					"type": "address"
				},
				{
					"indexed": true,
					"internalType": "address",
					"name": "to",
					"type": "address"
				},
				{
					"indexed": false,
					"internalType": "uint256",
					"name": "id",
					"type": "uint256"
				},
				{
					"indexed": false,
					"internalType": "uint256",
					"name": "value",
					"type": "uint256"
				}
			],
			"name": "TransferSingle",
			"type": "event"
		},
		{
			"anonymous": false,
			"inputs": [
				{
					"indexed": false,
					"internalType": "string",
					"name": "value",
					"type": "string"
				},
				{
					"indexed": true,
					"internalType": "uint256",
					"name": "id",
					"type": "uint256"
				}
			],
			"name": "URI",
			"type": "event"
		},
		{
			"inputs": [
				{
					"internalType": "uint256",
					"name": "id",
					"type": "uint256"
				},
				{
					"internalType": "uint256",
					"name": "amount",
					"type": "uint256"
				}
			],
			"name": "allowListMint",
			"outputs": [],
			"stateMutability": "payable",
			"type": "function"
		},
		{
			"inputs": [],
			"name": "allowListMintOpen",
			"outputs": [
				{
					"internalType": "bool",
					"name": "",
					"type": "bool"
				}
			],
			"stateMutability": "view",
			"type": "function"
		},
		{
			"inputs": [
				{
					"internalType": "address",
					"name": "account",
					"type": "address"
				},
				{
					"internalType": "uint256",
					"name": "id",
					"type": "uint256"
				}
			],
			"name": "balanceOf",
			"outputs": [
				{
					"internalType": "uint256",
					"name": "",
					"type": "uint256"
				}
			],
			"stateMutability": "view",
			"type": "function"
		},
		{
			"inputs": [
				{
					"internalType": "address[]",
					"name": "accounts",
					"type": "address[]"
				},
				{
					"internalType": "uint256[]",
					"name": "ids",
					"type": "uint256[]"
				}
			],
			"name": "balanceOfBatch",
			"outputs": [
				{
					"internalType": "uint256[]",
					"name": "",
					"type": "uint256[]"
				}
			],
			"stateMutability": "view",
			"type": "function"
		},
		{
			"inputs": [
				{
					"internalType": "bool",
					"name": "_publicMintOpen",
					"type": "bool"
				},
				{
					"internalType": "bool",
					"name": "_allowListMintOpen",
					"type": "bool"
				}
			],
			"name": "editMintState",
			"outputs": [],
			"stateMutability": "nonpayable",
			"type": "function"
		},
		{
			"inputs": [
				{
					"internalType": "uint256",
					"name": "id",
					"type": "uint256"
				}
			],
			"name": "exists",
			"outputs": [
				{
					"internalType": "bool",
					"name": "",
					"type": "bool"
				}
			],
			"stateMutability": "view",
			"type": "function"
		},
		{
			"inputs": [
				{
					"internalType": "address",
					"name": "account",
					"type": "address"
				},
				{
					"internalType": "address",
					"name": "operator",
					"type": "address"
				}
			],
			"name": "isApprovedForAll",
			"outputs": [
				{
					"internalType": "bool",
					"name": "",
					"type": "bool"
				}
			],
			"stateMutability": "view",
			"type": "function"
		},
		{
			"inputs": [],
			"name": "maxSupply",
			"outputs": [
				{
					"internalType": "uint256",
					"name": "",
					"type": "uint256"
				}
			],
			"stateMutability": "view",
			"type": "function"
		},
		{
			"inputs": [
				{
					"internalType": "uint256",
					"name": "id",
					"type": "uint256"
				},
				{
					"internalType": "uint256",
					"name": "amount",
					"type": "uint256"
				}
			],
			"name": "mint",
			"outputs": [],
			"stateMutability": "payable",
			"type": "function"
		},
		{
			"inputs": [],
			"name": "owner",
			"outputs": [
				{
					"internalType": "address",
					"name": "",
					"type": "address"
				}
			],
			"stateMutability": "view",
			"type": "function"
		},
		{
			"inputs": [],
			"name": "publicMintOpen",
			"outputs": [
				{
					"internalType": "bool",
					"name": "",
					"type": "bool"
				}
			],
			"stateMutability": "view",
			"type": "function"
		},
		{
			"inputs": [],
			"name": "renounceOwnership",
			"outputs": [],
			"stateMutability": "nonpayable",
			"type": "function"
		},
		{
			"inputs": [
				{
					"internalType": "address",
					"name": "from",
					"type": "address"
				},
				{
					"internalType": "address",
					"name": "to",
					"type": "address"
				},
				{
					"internalType": "uint256[]",
					"name": "ids",
					"type": "uint256[]"
				},
				{
					"internalType": "uint256[]",
					"name": "amounts",
					"type": "uint256[]"
				},
				{
					"internalType": "bytes",
					"name": "data",
					"type": "bytes"
				}
			],
			"name": "safeBatchTransferFrom",
			"outputs": [],
			"stateMutability": "nonpayable",
			"type": "function"
		},
		{
			"inputs": [
				{
					"internalType": "address",
					"name": "from",
					"type": "address"
				},
				{
					"internalType": "address",
					"name": "to",
					"type": "address"
				},
				{
					"internalType": "uint256",
					"name": "id",
					"type": "uint256"
				},
				{
					"internalType": "uint256",
					"name": "amount",
					"type": "uint256"
				},
				{
					"internalType": "bytes",
					"name": "data",
					"type": "bytes"
				}
			],
			"name": "safeTransferFrom",
			"outputs": [],
			"stateMutability": "nonpayable",
			"type": "function"
		},
		{
			"inputs": [
				{
					"internalType": "address[]",
					"name": "addresses",
					"type": "address[]"
				}
			],
			"name": "setAllowList",
			"outputs": [],
			"stateMutability": "nonpayable",
			"type": "function"
		},
		{
			"inputs": [
				{
					"internalType": "address",
					"name": "operator",
					"type": "address"
				},
				{
					"internalType": "bool",
					"name": "approved",
					"type": "bool"
				}
			],
			"name": "setApprovalForAll",
			"outputs": [],
			"stateMutability": "nonpayable",
			"type": "function"
		},
		{
			"inputs": [
				{
					"internalType": "bytes4",
					"name": "interfaceId",
					"type": "bytes4"
				}
			],
			"name": "supportsInterface",
			"outputs": [
				{
					"internalType": "bool",
					"name": "",
					"type": "bool"
				}
			],
			"stateMutability": "view",
			"type": "function"
		},
		{
			"inputs": [
				{
					"internalType": "uint256",
					"name": "id",
					"type": "uint256"
				}
			],
			"name": "totalSupply",
			"outputs": [
				{
					"internalType": "uint256",
					"name": "",
					"type": "uint256"
				}
			],
			"stateMutability": "view",
			"type": "function"
		},
		{
			"inputs": [
				{
					"internalType": "address",
					"name": "newOwner",
					"type": "address"
				}
			],
			"name": "transferOwnership",
			"outputs": [],
			"stateMutability": "nonpayable",
			"type": "function"
		},
		{
			"inputs": [
				{
					"internalType": "uint256",
					"name": "id",
					"type": "uint256"
				}
			],
			"name": "uri",
			"outputs": [
				{
					"internalType": "string",
					"name": "",
					"type": "string"
				}
			],
			"stateMutability": "view",
			"type": "function"
		},
		{
			"inputs": [],
			"name": "withdraw",
			"outputs": [],
			"stateMutability": "nonpayable",
			"type": "function"
		}
	]
}