{
	"data": {
		"bytecode": {
			"linkReferences": {},
			"object": "60806040526040518060400160405280600681526020017f77616c6c65740000000000000000000000000000000000000000000000000000815250600090816200004a9190620002d9565b503480156200005857600080fd5b50620003c0565b600081519050919050565b7f4e487b7100000000000000000000000000000000000000000000000000000000600052604160045260246000fd5b7f4e487b7100000000000000000000000000000000000000000000000000000000600052602260045260246000fd5b60006002820490506001821680620000e157607f821691505b602082108103620000f757620000f662000099565b5b50919050565b60008190508160005260206000209050919050565b60006020601f8301049050919050565b600082821b905092915050565b600060088302620001617fffffffffffffffffffffffffffffffffffffffffffffffffffffffffffffffff8262000122565b6200016d868362000122565b95508019841693508086168417925050509392505050565b6000819050919050565b6000819050919050565b6000620001ba620001b4620001ae8462000185565b6200018f565b62000185565b9050919050565b6000819050919050565b620001d68362000199565b620001ee620001e582620001c1565b8484546200012f565b825550505050565b600090565b62000205620001f6565b62000212818484620001cb565b505050565b5b818110156200023a576200022e600082620001fb565b60018101905062000218565b5050565b601f82111562000289576200025381620000fd565b6200025e8462000112565b810160208510156200026e578190505b620002866200027d8562000112565b83018262000217565b50505b505050565b600082821c905092915050565b6000620002ae600019846008026200028e565b1980831691505092915050565b6000620002c983836200029b565b9150826002028217905092915050565b620002e4826200005f565b67ffffffffffffffff8111156200030057620002ff6200006a565b5b6200030c8254620000c8565b620003198282856200023e565b600060209050601f8311600181146200035157600084156200033c578287015190505b620003488582620002bb565b865550620003b8565b601f1984166200036186620000fd565b60005b828110156200038b5784890151825560018201915060208501945060208101905062000364565b86831015620003ab5784890151620003a7601f8916826200029b565b8355505b6001600288020188555050505b505050505050565b61056680620003d06000396000f3fe60806040526004361061007b5760003560e01c806331b75c0e1161004e57806331b75c0e1461011d57806355241077146101275780638b7afe2e14610150578063d294cb0f1461017b5761007b565b806306fdde031461008057806315621373146100ab5780631bc5e545146100d657806320965255146100f2575b600080fd5b34801561008c57600080fd5b506100956101b8565b6040516100a29190610367565b60405180910390f35b3480156100b757600080fd5b506100c0610246565b6040516100cd91906103ca565b60405180910390f35b6100f060048036038101906100eb9190610416565b61024e565b005b3480156100fe57600080fd5b50610107610298565b604051610114919061045c565b60405180910390f35b6101256102a2565b005b34801561013357600080fd5b5061014e600480360381019061014991906104a3565b6102a4565b005b34801561015c57600080fd5b506101656102ae565b604051610172919061045c565b60405180910390f35b34801561018757600080fd5b506101a2600480360381019061019d9190610416565b6102b6565b6040516101af919061045c565b60405180910390f35b600080546101c5906104ff565b80601f01602080910402602001604051908101604052809291908181526020018280546101f1906104ff565b801561023e5780601f106102135761010080835404028352916020019161023e565b820191906000526020600020905b81548152906001019060200180831161022157829003601f168201915b505050505081565b600030905090565b8073ffffffffffffffffffffffffffffffffffffffff166108fc349081150290604051600060405180830381858888f19350505050158015610294573d6000803e3d6000fd5b5050565b6000600154905090565b565b8060018190555050565b600047905090565b60008173ffffffffffffffffffffffffffffffffffffffff16319050919050565b600081519050919050565b600082825260208201905092915050565b60005b838110156103115780820151818401526020810190506102f6565b60008484015250505050565b6000601f19601f8301169050919050565b6000610339826102d7565b61034381856102e2565b93506103538185602086016102f3565b61035c8161031d565b840191505092915050565b60006020820190508181036000830152610381818461032e565b905092915050565b600073ffffffffffffffffffffffffffffffffffffffff82169050919050565b60006103b482610389565b9050919050565b6103c4816103a9565b82525050565b60006020820190506103df60008301846103bb565b92915050565b600080fd5b6103f3816103a9565b81146103fe57600080fd5b50565b600081359050610410816103ea565b92915050565b60006020828403121561042c5761042b6103e5565b5b600061043a84828501610401565b91505092915050565b6000819050919050565b61045681610443565b82525050565b6000602082019050610471600083018461044d565b92915050565b61048081610443565b811461048b57600080fd5b50565b60008135905061049d81610477565b92915050565b6000602082840312156104b9576104b86103e5565b5b60006104c78482850161048e565b91505092915050565b7f4e487b7100000000000000000000000000000000000000000000000000000000600052602260045260246000fd5b6000600282049050600182168061051757607f821691505b60208210810361052a576105296104d0565b5b5091905056fea2646970667358221220b9e98159bdbcabd4e2e6483e37d60625edc7fc44e5a207f58f98ad8c4ee5629b64736f6c63430008120033",
			"opcodes": "PUSH1 0x80 PUSH1 0x40 MSTORE PUSH1 0x40 MLOAD DUP1 PUSH1 0x40 ADD PUSH1 0x40 MSTORE DUP1 PUSH1 0x6 DUP2 MSTORE PUSH1 0x20 ADD PUSH32 0x77616C6C65740000000000000000000000000000000000000000000000000000 DUP2 MSTORE POP PUSH1 0x0 SWAP1 DUP2 PUSH3 0x4A SWAP2 SWAP1 PUSH3 0x2D9 JUMP JUMPDEST POP CALLVALUE DUP1 ISZERO PUSH3 0x58 JUMPI PUSH1 0x0 DUP1 REVERT JUMPDEST POP PUSH3 0x3C0 JUMP JUMPDEST PUSH1 0x0 DUP2 MLOAD SWAP1 POP SWAP2 SWAP1 POP JUMP JUMPDEST PUSH32 0x4E487B7100000000000000000000000000000000000000000000000000000000 PUSH1 0x0 MSTORE PUSH1 0x41 PUSH1 0x4 MSTORE PUSH1 0x24 PUSH1 0x0 REVERT JUMPDEST PUSH32 0x4E487B7100000000000000000000000000000000000000000000000000000000 PUSH1 0x0 MSTORE PUSH1 0x22 PUSH1 0x4 MSTORE PUSH1 0x24 PUSH1 0x0 REVERT JUMPDEST PUSH1 0x0 PUSH1 0x2 DUP3 DIV SWAP1 POP PUSH1 0x1 DUP3 AND DUP1 PUSH3 0xE1 JUMPI PUSH1 0x7F DUP3 AND SWAP2 POP JUMPDEST PUSH1 0x20 DUP3 LT DUP2 SUB PUSH3 0xF7 JUMPI PUSH3 0xF6 PUSH3 0x99 JUMP JUMPDEST JUMPDEST POP SWAP2 SWAP1 POP JUMP JUMPDEST PUSH1 0x0 DUP2 SWAP1 POP DUP2 PUSH1 0x0 MSTORE PUSH1 0x20 PUSH1 0x0 KECCAK256 SWAP1 POP SWAP2 SWAP1 POP JUMP JUMPDEST PUSH1 0x0 PUSH1 0x20 PUSH1 0x1F DUP4 ADD DIV SWAP1 POP SWAP2 SWAP1 POP JUMP JUMPDEST PUSH1 0x0 DUP3 DUP3 SHL SWAP1 POP SWAP3 SWAP2 POP POP JUMP JUMPDEST PUSH1 0x0 PUSH1 0x8 DUP4 MUL PUSH3 0x161 PUSH32 0xFFFFFFFFFFFFFFFFFFFFFFFFFFFFFFFFFFFFFFFFFFFFFFFFFFFFFFFFFFFFFFFF DUP3 PUSH3 0x122 JUMP JUMPDEST PUSH3 0x16D DUP7 DUP4 PUSH3 0x122 JUMP JUMPDEST SWAP6 POP DUP1 NOT DUP5 AND SWAP4 POP DUP1 DUP7 AND DUP5 OR SWAP3 POP POP POP SWAP4 SWAP3 POP POP POP JUMP JUMPDEST PUSH1 0x0 DUP2 SWAP1 POP SWAP2 SWAP1 POP JUMP JUMPDEST PUSH1 0x0 DUP2 SWAP1 POP SWAP2 SWAP1 POP JUMP JUMPDEST PUSH1 0x0 PUSH3 0x1BA PUSH3 0x1B4 PUSH3 0x1AE DUP5 PUSH3 0x185 JUMP JUMPDEST PUSH3 0x18F JUMP JUMPDEST PUSH3 0x185 JUMP JUMPDEST SWAP1 POP SWAP2 SWAP1 POP JUMP JUMPDEST PUSH1 0x0 DUP2 SWAP1 POP SWAP2 SWAP1 POP JUMP JUMPDEST PUSH3 0x1D6 DUP4 PUSH3 0x199 JUMP JUMPDEST PUSH3 0x1EE PUSH3 0x1E5 DUP3 PUSH3 0x1C1 JUMP JUMPDEST DUP5 DUP5 SLOAD PUSH3 0x12F JUMP JUMPDEST DUP3 SSTORE POP POP POP POP JUMP JUMPDEST PUSH1 0x0 SWAP1 JUMP JUMPDEST PUSH3 0x205 PUSH3 0x1F6 JUMP JUMPDEST PUSH3 0x212 DUP2 DUP5 DUP5 PUSH3 0x1CB JUMP JUMPDEST POP POP POP JUMP JUMPDEST JUMPDEST DUP2 DUP2 LT ISZERO PUSH3 0x23A JUMPI PUSH3 0x22E PUSH1 0x0 DUP3 PUSH3 0x1FB JUMP JUMPDEST PUSH1 0x1 DUP2 ADD SWAP1 POP PUSH3 0x218 JUMP JUMPDEST POP POP JUMP JUMPDEST PUSH1 0x1F DUP3 GT ISZERO PUSH3 0x289 JUMPI PUSH3 0x253 DUP2 PUSH3 0xFD JUMP JUMPDEST PUSH3 0x25E DUP5 PUSH3 0x112 JUMP JUMPDEST DUP2 ADD PUSH1 0x20 DUP6 LT ISZERO PUSH3 0x26E JUMPI DUP2 SWAP1 POP JUMPDEST PUSH3 0x286 PUSH3 0x27D DUP6 PUSH3 0x112 JUMP JUMPDEST DUP4 ADD DUP3 PUSH3 0x217 JUMP JUMPDEST POP POP JUMPDEST POP POP POP JUMP JUMPDEST PUSH1 0x0 DUP3 DUP3 SHR SWAP1 POP SWAP3 SWAP2 POP POP JUMP JUMPDEST PUSH1 0x0 PUSH3 0x2AE PUSH1 0x0 NOT DUP5 PUSH1 0x8 MUL PUSH3 0x28E JUMP JUMPDEST NOT DUP1 DUP4 AND SWAP2 POP POP SWAP3 SWAP2 POP POP JUMP JUMPDEST PUSH1 0x0 PUSH3 0x2C9 DUP4 DUP4 PUSH3 0x29B JUMP JUMPDEST SWAP2 POP DUP3 PUSH1 0x2 MUL DUP3 OR SWAP1 POP SWAP3 SWAP2 POP POP JUMP JUMPDEST PUSH3 0x2E4 DUP3 PUSH3 0x5F JUMP JUMPDEST PUSH8 0xFFFFFFFFFFFFFFFF DUP2 GT ISZERO PUSH3 0x300 JUMPI PUSH3 0x2FF PUSH3 0x6A JUMP JUMPDEST JUMPDEST PUSH3 0x30C DUP3 SLOAD PUSH3 0xC8 JUMP JUMPDEST PUSH3 0x319 DUP3 DUP3 DUP6 PUSH3 0x23E JUMP JUMPDEST PUSH1 0x0 PUSH1 0x20 SWAP1 POP PUSH1 0x1F DUP4 GT PUSH1 0x1 DUP2 EQ PUSH3 0x351 JUMPI PUSH1 0x0 DUP5 ISZERO PUSH3 0x33C JUMPI DUP3 DUP8 ADD MLOAD SWAP1 POP JUMPDEST PUSH3 0x348 DUP6 DUP3 PUSH3 0x2BB JUMP JUMPDEST DUP7 SSTORE POP PUSH3 0x3B8 JUMP JUMPDEST PUSH1 0x1F NOT DUP5 AND PUSH3 0x361 DUP7 PUSH3 0xFD JUMP JUMPDEST PUSH1 0x0 JUMPDEST DUP3 DUP2 LT ISZERO PUSH3 0x38B JUMPI DUP5 DUP10 ADD MLOAD DUP3 SSTORE PUSH1 0x1 DUP3 ADD SWAP2 POP PUSH1 0x20 DUP6 ADD SWAP5 POP PUSH1 0x20 DUP2 ADD SWAP1 POP PUSH3 0x364 JUMP JUMPDEST DUP7 DUP4 LT ISZERO PUSH3 0x3AB JUMPI DUP5 DUP10 ADD MLOAD PUSH3 0x3A7 PUSH1 0x1F DUP10 AND DUP3 PUSH3 0x29B JUMP JUMPDEST DUP4 SSTORE POP JUMPDEST PUSH1 0x1 PUSH1 0x2 DUP9 MUL ADD DUP9 SSTORE POP POP POP JUMPDEST POP POP POP POP POP POP JUMP JUMPDEST PUSH2 0x566 DUP1 PUSH3 0x3D0 PUSH1 0x0 CODECOPY PUSH1 0x0 RETURN INVALID PUSH1 0x80 PUSH1 0x40 MSTORE PUSH1 0x4 CALLDATASIZE LT PUSH2 0x7B JUMPI PUSH1 0x0 CALLDATALOAD PUSH1 0xE0 SHR DUP1 PUSH4 0x31B75C0E GT PUSH2 0x4E JUMPI DUP1 PUSH4 0x31B75C0E EQ PUSH2 0x11D JUMPI DUP1 PUSH4 0x55241077 EQ PUSH2 0x127 JUMPI DUP1 PUSH4 0x8B7AFE2E EQ PUSH2 0x150 JUMPI DUP1 PUSH4 0xD294CB0F EQ PUSH2 0x17B JUMPI PUSH2 0x7B JUMP JUMPDEST DUP1 PUSH4 0x6FDDE03 EQ PUSH2 0x80 JUMPI DUP1 PUSH4 0x15621373 EQ PUSH2 0xAB JUMPI DUP1 PUSH4 0x1BC5E545 EQ PUSH2 0xD6 JUMPI DUP1 PUSH4 0x20965255 EQ PUSH2 0xF2 JUMPI JUMPDEST PUSH1 0x0 DUP1 REVERT JUMPDEST CALLVALUE DUP1 ISZERO PUSH2 0x8C JUMPI PUSH1 0x0 DUP1 REVERT JUMPDEST POP PUSH2 0x95 PUSH2 0x1B8 JUMP JUMPDEST PUSH1 0x40 MLOAD PUSH2 0xA2 SWAP2 SWAP1 PUSH2 0x367 JUMP JUMPDEST PUSH1 0x40 MLOAD DUP1 SWAP2 SUB SWAP1 RETURN JUMPDEST CALLVALUE DUP1 ISZERO PUSH2 0xB7 JUMPI PUSH1 0x0 DUP1 REVERT JUMPDEST POP PUSH2 0xC0 PUSH2 0x246 JUMP JUMPDEST PUSH1 0x40 MLOAD PUSH2 0xCD SWAP2 SWAP1 PUSH2 0x3CA JUMP JUMPDEST PUSH1 0x40 MLOAD DUP1 SWAP2 SUB SWAP1 RETURN JUMPDEST PUSH2 0xF0 PUSH1 0x4 DUP1 CALLDATASIZE SUB DUP2 ADD SWAP1 PUSH2 0xEB SWAP2 SWAP1 PUSH2 0x416 JUMP JUMPDEST PUSH2 0x24E JUMP JUMPDEST STOP JUMPDEST CALLVALUE DUP1 ISZERO PUSH2 0xFE JUMPI PUSH1 0x0 DUP1 REVERT JUMPDEST POP PUSH2 0x107 PUSH2 0x298 JUMP JUMPDEST PUSH1 0x40 MLOAD PUSH2 0x114 SWAP2 SWAP1 PUSH2 0x45C JUMP JUMPDEST PUSH1 0x40 MLOAD DUP1 SWAP2 SUB SWAP1 RETURN JUMPDEST PUSH2 0x125 PUSH2 0x2A2 JUMP JUMPDEST STOP JUMPDEST CALLVALUE DUP1 ISZERO PUSH2 0x133 JUMPI PUSH1 0x0 DUP1 REVERT JUMPDEST POP PUSH2 0x14E PUSH1 0x4 DUP1 CALLDATASIZE SUB DUP2 ADD SWAP1 PUSH2 0x149 SWAP2 SWAP1 PUSH2 0x4A3 JUMP JUMPDEST PUSH2 0x2A4 JUMP JUMPDEST STOP JUMPDEST CALLVALUE DUP1 ISZERO PUSH2 0x15C JUMPI PUSH1 0x0 DUP1 REVERT JUMPDEST POP PUSH2 0x165 PUSH2 0x2AE JUMP JUMPDEST PUSH1 0x40 MLOAD PUSH2 0x172 SWAP2 SWAP1 PUSH2 0x45C JUMP JUMPDEST PUSH1 0x40 MLOAD DUP1 SWAP2 SUB SWAP1 RETURN JUMPDEST CALLVALUE DUP1 ISZERO PUSH2 0x187 JUMPI PUSH1 0x0 DUP1 REVERT JUMPDEST POP PUSH2 0x1A2 PUSH1 0x4 DUP1 CALLDATASIZE SUB DUP2 ADD SWAP1 PUSH2 0x19D SWAP2 SWAP1 PUSH2 0x416 JUMP JUMPDEST PUSH2 0x2B6 JUMP JUMPDEST PUSH1 0x40 MLOAD PUSH2 0x1AF SWAP2 SWAP1 PUSH2 0x45C JUMP JUMPDEST PUSH1 0x40 MLOAD DUP1 SWAP2 SUB SWAP1 RETURN JUMPDEST PUSH1 0x0 DUP1 SLOAD PUSH2 0x1C5 SWAP1 PUSH2 0x4FF JUMP JUMPDEST DUP1 PUSH1 0x1F ADD PUSH1 0x20 DUP1 SWAP2 DIV MUL PUSH1 0x20 ADD PUSH1 0x40 MLOAD SWAP1 DUP2 ADD PUSH1 0x40 MSTORE DUP1 SWAP3 SWAP2 SWAP1 DUP2 DUP2 MSTORE PUSH1 0x20 ADD DUP3 DUP1 SLOAD PUSH2 0x1F1 SWAP1 PUSH2 0x4FF JUMP JUMPDEST DUP1 ISZERO PUSH2 0x23E JUMPI DUP1 PUSH1 0x1F LT PUSH2 0x213 JUMPI PUSH2 0x100 DUP1 DUP4 SLOAD DIV MUL DUP4 MSTORE SWAP2 PUSH1 0x20 ADD SWAP2 PUSH2 0x23E JUMP JUMPDEST DUP3 ADD SWAP2 SWAP1 PUSH1 0x0 MSTORE PUSH1 0x20 PUSH1 0x0 KECCAK256 SWAP1 JUMPDEST DUP2 SLOAD DUP2 MSTORE SWAP1 PUSH1 0x1 ADD SWAP1 PUSH1 0x20 ADD DUP1 DUP4 GT PUSH2 0x221 JUMPI DUP3 SWAP1 SUB PUSH1 0x1F AND DUP3 ADD SWAP2 JUMPDEST POP POP POP POP POP DUP2 JUMP JUMPDEST PUSH1 0x0 ADDRESS SWAP1 POP SWAP1 JUMP JUMPDEST DUP1 PUSH20 0xFFFFFFFFFFFFFFFFFFFFFFFFFFFFFFFFFFFFFFFF AND PUSH2 0x8FC CALLVALUE SWAP1 DUP2 ISZERO MUL SWAP1 PUSH1 0x40 MLOAD PUSH1 0x0 PUSH1 0x40 MLOAD DUP1 DUP4 SUB DUP2 DUP6 DUP9 DUP9 CALL SWAP4 POP POP POP POP ISZERO DUP1 ISZERO PUSH2 0x294 JUMPI RETURNDATASIZE PUSH1 0x0 DUP1 RETURNDATACOPY RETURNDATASIZE PUSH1 0x0 REVERT JUMPDEST POP POP JUMP JUMPDEST PUSH1 0x0 PUSH1 0x1 SLOAD SWAP1 POP SWAP1 JUMP JUMPDEST JUMP JUMPDEST DUP1 PUSH1 0x1 DUP2 SWAP1 SSTORE POP POP JUMP JUMPDEST PUSH1 0x0 SELFBALANCE SWAP1 POP SWAP1 JUMP JUMPDEST PUSH1 0x0 DUP2 PUSH20 0xFFFFFFFFFFFFFFFFFFFFFFFFFFFFFFFFFFFFFFFF AND BALANCE SWAP1 POP SWAP2 SWAP1 POP JUMP JUMPDEST PUSH1 0x0 DUP2 MLOAD SWAP1 POP SWAP2 SWAP1 POP JUMP JUMPDEST PUSH1 0x0 DUP3 DUP3 MSTORE PUSH1 0x20 DUP3 ADD SWAP1 POP SWAP3 SWAP2 POP POP JUMP JUMPDEST PUSH1 0x0 JUMPDEST DUP4 DUP2 LT ISZERO PUSH2 0x311 JUMPI DUP1 DUP3 ADD MLOAD DUP2 DUP5 ADD MSTORE PUSH1 0x20 DUP2 ADD SWAP1 POP PUSH2 0x2F6 JUMP JUMPDEST PUSH1 0x0 DUP5 DUP5 ADD MSTORE POP POP POP POP JUMP JUMPDEST PUSH1 0x0 PUSH1 0x1F NOT PUSH1 0x1F DUP4 ADD AND SWAP1 POP SWAP2 SWAP1 POP JUMP JUMPDEST PUSH1 0x0 PUSH2 0x339 DUP3 PUSH2 0x2D7 JUMP JUMPDEST PUSH2 0x343 DUP2 DUP6 PUSH2 0x2E2 JUMP JUMPDEST SWAP4 POP PUSH2 0x353 DUP2 DUP6 PUSH1 0x20 DUP7 ADD PUSH2 0x2F3 JUMP JUMPDEST PUSH2 0x35C DUP2 PUSH2 0x31D JUMP JUMPDEST DUP5 ADD SWAP2 POP POP SWAP3 SWAP2 POP POP JUMP JUMPDEST PUSH1 0x0 PUSH1 0x20 DUP3 ADD SWAP1 POP DUP2 DUP2 SUB PUSH1 0x0 DUP4 ADD MSTORE PUSH2 0x381 DUP2 DUP5 PUSH2 0x32E JUMP JUMPDEST SWAP1 POP SWAP3 SWAP2 POP POP JUMP JUMPDEST PUSH1 0x0 PUSH20 0xFFFFFFFFFFFFFFFFFFFFFFFFFFFFFFFFFFFFFFFF DUP3 AND SWAP1 POP SWAP2 SWAP1 POP JUMP JUMPDEST PUSH1 0x0 PUSH2 0x3B4 DUP3 PUSH2 0x389 JUMP JUMPDEST SWAP1 POP SWAP2 SWAP1 POP JUMP JUMPDEST PUSH2 0x3C4 DUP2 PUSH2 0x3A9 JUMP JUMPDEST DUP3 MSTORE POP POP JUMP JUMPDEST PUSH1 0x0 PUSH1 0x20 DUP3 ADD SWAP1 POP PUSH2 0x3DF PUSH1 0x0 DUP4 ADD DUP5 PUSH2 0x3BB JUMP JUMPDEST SWAP3 SWAP2 POP POP JUMP JUMPDEST PUSH1 0x0 DUP1 REVERT JUMPDEST PUSH2 0x3F3 DUP2 PUSH2 0x3A9 JUMP JUMPDEST DUP2 EQ PUSH2 0x3FE JUMPI PUSH1 0x0 DUP1 REVERT JUMPDEST POP JUMP JUMPDEST PUSH1 0x0 DUP2 CALLDATALOAD SWAP1 POP PUSH2 0x410 DUP2 PUSH2 0x3EA JUMP JUMPDEST SWAP3 SWAP2 POP POP JUMP JUMPDEST PUSH1 0x0 PUSH1 0x20 DUP3 DUP5 SUB SLT ISZERO PUSH2 0x42C JUMPI PUSH2 0x42B PUSH2 0x3E5 JUMP JUMPDEST JUMPDEST PUSH1 0x0 PUSH2 0x43A DUP5 DUP3 DUP6 ADD PUSH2 0x401 JUMP JUMPDEST SWAP2 POP POP SWAP3 SWAP2 POP POP JUMP JUMPDEST PUSH1 0x0 DUP2 SWAP1 POP SWAP2 SWAP1 POP JUMP JUMPDEST PUSH2 0x456 DUP2 PUSH2 0x443 JUMP JUMPDEST DUP3 MSTORE POP POP JUMP JUMPDEST PUSH1 0x0 PUSH1 0x20 DUP3 ADD SWAP1 POP PUSH2 0x471 PUSH1 0x0 DUP4 ADD DUP5 PUSH2 0x44D JUMP JUMPDEST SWAP3 SWAP2 POP POP JUMP JUMPDEST PUSH2 0x480 DUP2 PUSH2 0x443 JUMP JUMPDEST DUP2 EQ PUSH2 0x48B JUMPI PUSH1 0x0 DUP1 REVERT JUMPDEST POP JUMP JUMPDEST PUSH1 0x0 DUP2 CALLDATALOAD SWAP1 POP PUSH2 0x49D DUP2 PUSH2 0x477 JUMP JUMPDEST SWAP3 SWAP2 POP POP JUMP JUMPDEST PUSH1 0x0 PUSH1 0x20 DUP3 DUP5 SUB SLT ISZERO PUSH2 0x4B9 JUMPI PUSH2 0x4B8 PUSH2 0x3E5 JUMP JUMPDEST JUMPDEST PUSH1 0x0 PUSH2 0x4C7 DUP5 DUP3 DUP6 ADD PUSH2 0x48E JUMP JUMPDEST SWAP2 POP POP SWAP3 SWAP2 POP POP JUMP JUMPDEST PUSH32 0x4E487B7100000000000000000000000000000000000000000000000000000000 PUSH1 0x0 MSTORE PUSH1 0x22 PUSH1 0x4 MSTORE PUSH1 0x24 PUSH1 0x0 REVERT JUMPDEST PUSH1 0x0 PUSH1 0x2 DUP3 DIV SWAP1 POP PUSH1 0x1 DUP3 AND DUP1 PUSH2 0x517 JUMPI PUSH1 0x7F DUP3 AND SWAP2 POP JUMPDEST PUSH1 0x20 DUP3 LT DUP2 SUB PUSH2 0x52A JUMPI PUSH2 0x529 PUSH2 0x4D0 JUMP JUMPDEST JUMPDEST POP SWAP2 SWAP1 POP JUMP INVALID LOG2 PUSH5 0x6970667358 0x22 SLT KECCAK256 0xB9 0xE9 DUP2 MSIZE 0xBD 0xBC 0xAB 0xD4 0xE2 0xE6 BASEFEE RETURNDATACOPY CALLDATACOPY 0xD6 MOD 0x25 0xED 0xC7 0xFC PREVRANDAO 0xE5 LOG2 SMOD CREATE2 DUP16 SWAP9 0xAD DUP13 0x4E 0xE5 PUSH3 0x9B6473 PUSH16 0x6C634300081200330000000000000000 "
		},
		"gasEstimates": {
			"creation": {
				"codeDepositCost": "276400",
				"executionCost": "infinite",
				"totalCost": "infinite"
			},
			"external": {
				"accountBalance(address)": "3323",
				"contractBalance()": "383",
				"getValue()": "2504",
				"getcontractaddress()": "408",
				"name()": "infinite",
				"sendEthContract()": "120",
				"sendEthUser(address)": "infinite",
				"setValue(uint256)": "22542"
			}
		},
		"methodIdentifiers": {
			"accountBalance(address)": "d294cb0f",
			"contractBalance()": "8b7afe2e",
			"getValue()": "20965255",
			"getcontractaddress()": "15621373",
			"name()": "06fdde03",
			"sendEthContract()": "31b75c0e",
			"sendEthUser(address)": "1bc5e545",
			"setValue(uint256)": "55241077"
		}
	},
	"abi": [
		{
			"inputs": [
				{
					"internalType": "address",
					"name": "_address",
					"type": "address"
				}
			],
			"name": "accountBalance",
			"outputs": [
				{
					"internalType": "uint256",
					"name": "",
					"type": "uint256"
				}
			],
			"stateMutability": "view",
			"type": "function"
		},
		{
			"inputs": [],
			"name": "contractBalance",
			"outputs": [
				{
					"internalType": "uint256",
					"name": "",
					"type": "uint256"
				}
			],
			"stateMutability": "view",
			"type": "function"
		},
		{
			"inputs": [],
			"name": "getValue",
			"outputs": [
				{
					"internalType": "uint256",
					"name": "",
					"type": "uint256"
				}
			],
			"stateMutability": "view",
			"type": "function"
		},
		{
			"inputs": [],
			"name": "getcontractaddress",
			"outputs": [
				{
					"internalType": "address",
					"name": "",
					"type": "address"
				}
			],
			"stateMutability": "view",
			"type": "function"
		},
		{
			"inputs": [],
			"name": "name",
			"outputs": [
				{
					"internalType": "string",
					"name": "",
					"type": "string"
				}
			],
			"stateMutability": "view",
			"type": "function"
		},
		{
			"inputs": [],
			"name": "sendEthContract",
			"outputs": [],
			"stateMutability": "payable",
			"type": "function"
		},
		{
			"inputs": [
				{
					"internalType": "address",
					"name": "_user",
					"type": "address"
				}
			],
			"name": "sendEthUser",
			"outputs": [],
			"stateMutability": "payable",
			"type": "function"
		},
		{
			"inputs": [
				{
					"internalType": "uint256",
					"name": "_num",
					"type": "uint256"
				}
			],
			"name": "setValue",
			"outputs": [],
			"stateMutability": "nonpayable",
			"type": "function"
		}
	]
}