{
	"data": {
		"bytecode": {
			"linkReferences": {},
			"object": "60c06040523480156200001157600080fd5b5060405162003a4538038062003a458339810160408190526200003491620001e9565b81806040518060400160405280600d81526020016c10dc9bdcdcd0da185a5b939195609a1b8152506040518060400160405280600581526020016410d0d3919560da1b815250620000946200008e620000ef60201b60201c565b620000f3565b8151620000a990600190602085019062000143565b508051620000bf90600290602084019062000143565b5050506001600160a01b031660805250600d819055620000e3816201869f62000225565b60a05250620002899050565b3390565b600080546001600160a01b038381166001600160a01b0319831681178455604051919092169283917f8be0079c531659141344cd1fd0a4f28419497f9722a3daafe3b4186f6b6457e09190a35050565b82805462000151906200024c565b90600052602060002090601f016020900481019282620001755760008555620001c0565b82601f106200019057805160ff1916838001178555620001c0565b82800160010185558215620001c0579182015b82811115620001c0578251825591602001919060010190620001a3565b50620001ce929150620001d2565b5090565b5b80821115620001ce5760008155600101620001d3565b60008060408385031215620001fd57600080fd5b82516001600160a01b03811681146200021557600080fd5b6020939093015192949293505050565b600082198211156200024757634e487b7160e01b600052601160045260246000fd5b500190565b600181811c908216806200026157607f821691505b602082108114156200028357634e487b7160e01b600052602260045260246000fd5b50919050565b60805160a051613750620002f5600039600081816103e60152610dc70152600081816106df0152818161087601528181610ba901528181610d8e01528181610ebb01528181611062015281816113e20152818161179f01528181611be1015261241901526137506000f3fe6080604052600436106102655760003560e01c8063715018a611610144578063b88d4fde116100b6578063d1deba1f1161007a578063d1deba1f14610797578063df2a5b3b146107aa578063e985e9c5146107ca578063eb8d72b714610813578063f2fde38b14610833578063f5ecbdbc1461085357600080fd5b8063b88d4fde14610701578063baf3292d14610721578063c446183414610741578063c87b56dd14610757578063cbed8b9c1461077757600080fd5b8063950c8a7411610108578063950c8a741461063857806395d89b41146106585780639f38369a1461066d578063a22cb4651461068d578063a6c3d165146106ad578063b353aaa7146106cd57600080fd5b8063715018a61461059a5780637533d788146105af5780638588cfad146105cf5780638cfd8f5c146105e25780638da5cb5b1461061a57600080fd5b806323b872dd116101dd57806342d65a8d116101a157806342d65a8d146104b55780635b8c41e6146104d557806361bc221a146105245780636352211e1461053a57806366ad5c8a1461055a57806370a082311461057a57600080fd5b806323b872dd14610408578063362790f6146104285780633d8b38f6146104485780633f1f4fa41461046857806342842e0e1461049557600080fd5b8063081812fc1161022f578063081812fc14610327578063095ea7b31461035f5780630df374831461037f57806310ddb1371461039f5780631249c58b146103bf57806317bac052146103d457600080fd5b80621d35671461026a5780629a9b7b1461028c57806301ffc9a7146102b557806306fdde03146102e557806307e0db1714610307575b600080fd5b34801561027657600080fd5b5061028a610285366004612c3a565b610873565b005b34801561029857600080fd5b506102a2600d5481565b6040519081526020015b60405180910390f35b3480156102c157600080fd5b506102d56102d0366004612ce3565b610aa4565b60405190151581526020016102ac565b3480156102f157600080fd5b506102fa610af6565b6040516102ac9190612d58565b34801561031357600080fd5b5061028a610322366004612d6b565b610b88565b34801561033357600080fd5b50610347610342366004612d86565b610c11565b6040516001600160a01b0390911681526020016102ac565b34801561036b57600080fd5b5061028a61037a366004612db4565b610c38565b34801561038b57600080fd5b5061028a61039a366004612de0565b610d4e565b3480156103ab57600080fd5b5061028a6103ba366004612d6b565b610d6d565b3480156103cb57600080fd5b5061028a610dc5565b3480156103e057600080fd5b506102a27f000000000000000000000000000000000000000000000000000000000000000081565b34801561041457600080fd5b5061028a610423366004612dfc565b610e2b565b34801561043457600080fd5b506102a2610443366004612de0565b610e5c565b34801561045457600080fd5b506102d5610463366004612e3d565b610f5c565b34801561047457600080fd5b506102a2610483366004612d6b565b60096020526000908152604090205481565b3480156104a157600080fd5b5061028a6104b0366004612dfc565b611028565b3480156104c157600080fd5b5061028a6104d0366004612e3d565b611043565b3480156104e157600080fd5b506102a26104f0366004612f52565b600b602090815260009384526040808520845180860184018051928152908401958401959095209452929052825290205481565b34801561053057600080fd5b506102a2600c5481565b34801561054657600080fd5b50610347610555366004612d86565b6110c9565b34801561056657600080fd5b5061028a610575366004612c3a565b611129565b34801561058657600080fd5b506102a2610595366004612faf565b611205565b3480156105a657600080fd5b5061028a61128b565b3480156105bb57600080fd5b506102fa6105ca366004612d6b565b61129f565b61028a6105dd366004612fcc565b611339565b3480156105ee57600080fd5b506102a26105fd36600461300c565b600860209081526000928352604080842090915290825290205481565b34801561062657600080fd5b506000546001600160a01b0316610347565b34801561064457600080fd5b50600a54610347906001600160a01b031681565b34801561066457600080fd5b506102fa6114b1565b34801561067957600080fd5b506102fa610688366004612d6b565b6114c0565b34801561069957600080fd5b5061028a6106a836600461303f565b6115d7565b3480156106b957600080fd5b5061028a6106c8366004612e3d565b6115e6565b3480156106d957600080fd5b506103477f000000000000000000000000000000000000000000000000000000000000000081565b34801561070d57600080fd5b5061028a61071c36600461307d565b611679565b34801561072d57600080fd5b5061028a61073c366004612faf565b6116b1565b34801561074d57600080fd5b506102a261271081565b34801561076357600080fd5b506102fa610772366004612d86565b61170d565b34801561078357600080fd5b5061028a6107923660046130e8565b611780565b61028a6107a5366004612c3a565b611815565b3480156107b657600080fd5b5061028a6107c5366004613156565b611a2b565b3480156107d657600080fd5b506102d56107e5366004613192565b6001600160a01b03918216600090815260066020908152604080832093909416825291909152205460ff1690565b34801561081f57600080fd5b5061028a61082e366004612e3d565b611add565b34801561083f57600080fd5b5061028a61084e366004612faf565b611b37565b34801561085f57600080fd5b506102fa61086e3660046131c0565b611bb0565b337f00000000000000000000000000000000000000000000000000000000000000006001600160a01b0316146108f05760405162461bcd60e51b815260206004820152601e60248201527f4c7a4170703a20696e76616c696420656e64706f696e742063616c6c6572000060448201526064015b60405180910390fd5b61ffff86166000908152600760205260408120805461090e9061320d565b80601f016020809104026020016040519081016040528092919081815260200182805461093a9061320d565b80156109875780601f1061095c57610100808354040283529160200191610987565b820191906000526020600020905b81548152906001019060200180831161096a57829003601f168201915b505050505090508051868690501480156109a2575060008151115b80156109ca5750805160208201206040516109c09088908890613248565b6040518091039020145b610a255760405162461bcd60e51b815260206004820152602660248201527f4c7a4170703a20696e76616c696420736f757263652073656e64696e6720636f6044820152651b9d1c9858dd60d21b60648201526084016108e7565b610a9b8787878080601f01602080910402602001604051908101604052809392919081815260200183838082843760009201919091525050604080516020601f8a018190048102820181019092528881528a935091508890889081908401838280828437600092019190915250611c7292505050565b50505050505050565b60006001600160e01b031982166380ac58cd60e01b1480610ad557506001600160e01b03198216635b5e139f60e01b145b80610af057506301ffc9a760e01b6001600160e01b03198316145b92915050565b606060018054610b059061320d565b80601f0160208091040260200160405190810160405280929190818152602001828054610b319061320d565b8015610b7e5780601f10610b5357610100808354040283529160200191610b7e565b820191906000526020600020905b815481529060010190602001808311610b6157829003601f168201915b5050505050905090565b610b90611ceb565b6040516307e0db1760e01b815261ffff821660048201527f00000000000000000000000000000000000000000000000000000000000000006001600160a01b0316906307e0db17906024015b600060405180830381600087803b158015610bf657600080fd5b505af1158015610c0a573d6000803e3d6000fd5b5050505050565b6000610c1c82611d45565b506000908152600560205260409020546001600160a01b031690565b6000610c43826110c9565b9050806001600160a01b0316836001600160a01b03161415610cb15760405162461bcd60e51b815260206004820152602160248201527f4552433732313a20617070726f76616c20746f2063757272656e74206f776e656044820152603960f91b60648201526084016108e7565b336001600160a01b0382161480610ccd5750610ccd81336107e5565b610d3f5760405162461bcd60e51b815260206004820152603d60248201527f4552433732313a20617070726f76652063616c6c6572206973206e6f7420746f60448201527f6b656e206f776e6572206f7220617070726f76656420666f7220616c6c00000060648201526084016108e7565b610d498383611da4565b505050565b610d56611ceb565b61ffff909116600090815260096020526040902055565b610d75611ceb565b6040516310ddb13760e01b815261ffff821660048201527f00000000000000000000000000000000000000000000000000000000000000006001600160a01b0316906310ddb13790602401610bdc565b7f0000000000000000000000000000000000000000000000000000000000000000600d541415610e0857604051637d3d824960e01b815260040160405180910390fd5b610e1433600d54611e12565b600d80546001908101909155600c80549091019055565b610e353382611f9d565b610e515760405162461bcd60e51b81526004016108e790613258565b610d4983838361201b565b60408051336020820152808201839052815180820383018152606082018352600160f01b60808301526205573060828084018290528451808503909101815260a284019485905263040a7bb160e41b90945260009391926001929085907f00000000000000000000000000000000000000000000000000000000000000006001600160a01b0316906340a7bb1090610f00908b9030908a908790899060a6016132a5565b604080518083038186803b158015610f1757600080fd5b505afa158015610f2b573d6000803e3d6000fd5b505050506040513d601f19601f82011682018060405250810190610f4f91906132f9565b5098975050505050505050565b61ffff831660009081526007602052604081208054829190610f7d9061320d565b80601f0160208091040260200160405190810160405280929190818152602001828054610fa99061320d565b8015610ff65780601f10610fcb57610100808354040283529160200191610ff6565b820191906000526020600020905b815481529060010190602001808311610fd957829003601f168201915b50505050509050838360405161100d929190613248565b60405180910390208180519060200120149150509392505050565b610d4983838360405180602001604052806000815250611679565b61104b611ceb565b6040516342d65a8d60e01b81526001600160a01b037f000000000000000000000000000000000000000000000000000000000000000016906342d65a8d9061109b90869086908690600401613346565b600060405180830381600087803b1580156110b557600080fd5b505af1158015610a9b573d6000803e3d6000fd5b6000818152600360205260408120546001600160a01b031680610af05760405162461bcd60e51b8152602060048201526018602482015277115490cdcc8c4e881a5b9d985b1a59081d1bdad95b88125160421b60448201526064016108e7565b3330146111875760405162461bcd60e51b815260206004820152602660248201527f4e6f6e626c6f636b696e674c7a4170703a2063616c6c6572206d7573742062656044820152650204c7a4170760d41b60648201526084016108e7565b6111fd8686868080601f01602080910402602001604051908101604052809392919081815260200183838082843760009201919091525050604080516020601f89018190048102820181019092528781528993509150879087908190840183828082843760009201919091525061217f92505050565b505050505050565b60006001600160a01b03821661126f5760405162461bcd60e51b815260206004820152602960248201527f4552433732313a2061646472657373207a65726f206973206e6f7420612076616044820152683634b21037bbb732b960b91b60648201526084016108e7565b506001600160a01b031660009081526004602052604090205490565b611293611ceb565b61129d600061220a565b565b600760205260009081526040902080546112b89061320d565b80601f01602080910402602001604051908101604052809291908181526020018280546112e49061320d565b80156113315780601f1061130657610100808354040283529160200191611331565b820191906000526020600020905b81548152906001019060200180831161131457829003601f168201915b505050505081565b611342826110c9565b6001600160a01b0316336001600160a01b031614611373576040516359dc379f60e01b815260040160405180910390fd5b600c80546000190190556113868261225a565b60408051336020820152808201849052815180820383018152606082018352600160f01b60808301526205573060828084018290528451808503909101815260a284019485905263040a7bb160e41b90945290926001926000907f00000000000000000000000000000000000000000000000000000000000000006001600160a01b0316906340a7bb1090611427908b9030908a908790899060a6016132a5565b604080518083038186803b15801561143e57600080fd5b505afa158015611452573d6000803e3d6000fd5b505050506040513d601f19601f8201168201806040525081019061147691906132f9565b509050803411611499576040516307099c5360e21b815260040160405180910390fd5b6114a78886338986346122ef565b5050505050505050565b606060028054610b059061320d565b61ffff81166000908152600760205260408120805460609291906114e39061320d565b80601f016020809104026020016040519081016040528092919081815260200182805461150f9061320d565b801561155c5780601f106115315761010080835404028352916020019161155c565b820191906000526020600020905b81548152906001019060200180831161153f57829003601f168201915b505050505090508051600014156115b55760405162461bcd60e51b815260206004820152601d60248201527f4c7a4170703a206e6f20747275737465642070617468207265636f726400000060448201526064016108e7565b6115d06000601483516115c8919061337a565b839190612495565b9392505050565b6115e23383836125a2565b5050565b6115ee611ceb565b81813060405160200161160393929190613391565b60408051601f1981840301815291815261ffff8516600090815260076020908152919020825161163893919290910190612ab7565b507f8c0400cfe2d1199b1a725c78960bcc2a344d869b80590d0f2bd005db15a572ce83838360405161166c93929190613346565b60405180910390a1505050565b6116833383611f9d565b61169f5760405162461bcd60e51b81526004016108e790613258565b6116ab84848484612671565b50505050565b6116b9611ceb565b600a80546001600160a01b0319166001600160a01b0383169081179091556040519081527f5db758e995a17ec1ad84bdef7e8c3293a0bd6179bcce400dff5d4c3d87db726b9060200160405180910390a150565b606061171882611d45565b600061172f60408051602081019091526000815290565b9050600081511161174f57604051806020016040528060008152506115d0565b80611759846126a4565b60405160200161176a9291906133b7565b6040516020818303038152906040529392505050565b611788611ceb565b6040516332fb62e760e21b81526001600160a01b037f0000000000000000000000000000000000000000000000000000000000000000169063cbed8b9c906117dc90889088908890889088906004016133e6565b600060405180830381600087803b1580156117f657600080fd5b505af115801561180a573d6000803e3d6000fd5b505050505050505050565b61ffff86166000908152600b602052604080822090516118389088908890613248565b90815260408051602092819003830190206001600160401b038716600090815292529020549050806118b85760405162461bcd60e51b815260206004820152602360248201527f4e6f6e626c6f636b696e674c7a4170703a206e6f2073746f726564206d65737360448201526261676560e81b60648201526084016108e7565b8083836040516118c9929190613248565b6040518091039020146119285760405162461bcd60e51b815260206004820152602160248201527f4e6f6e626c6f636b696e674c7a4170703a20696e76616c6964207061796c6f616044820152601960fa1b60648201526084016108e7565b61ffff87166000908152600b6020526040808220905161194b9089908990613248565b90815260408051602092819003830181206001600160401b038916600090815290845282902093909355601f880182900482028301820190528682526119e3918991899089908190840183828082843760009201919091525050604080516020601f8a018190048102820181019092528881528a93509150889088908190840183828082843760009201919091525061217f92505050565b7fc264d91f3adc5588250e1551f547752ca0cfa8f6b530d243b9f9f4cab10ea8e58787878785604051611a1a95949392919061341f565b60405180910390a150505050505050565b611a33611ceb565b60008111611a7b5760405162461bcd60e51b81526020600482015260156024820152744c7a4170703a20696e76616c6964206d696e47617360581b60448201526064016108e7565b61ffff83811660008181526008602090815260408083209487168084529482529182902085905581519283528201929092529081018290527f9d5c7c0b934da8fefa9c7760c98383778a12dfbfc0c3b3106518f43fb9508ac09060600161166c565b611ae5611ceb565b61ffff83166000908152600760205260409020611b03908383612b3b565b507ffa41487ad5d6728f0b19276fa1eddc16558578f5109fc39d2dc33c3230470dab83838360405161166c93929190613346565b611b3f611ceb565b6001600160a01b038116611ba45760405162461bcd60e51b815260206004820152602660248201527f4f776e61626c653a206e6577206f776e657220697320746865207a65726f206160448201526564647265737360d01b60648201526084016108e7565b611bad8161220a565b50565b604051633d7b2f6f60e21b815261ffff808616600483015284166024820152306044820152606481018290526060907f00000000000000000000000000000000000000000000000000000000000000006001600160a01b03169063f5ecbdbc9060840160006040518083038186803b158015611c2b57600080fd5b505afa158015611c3f573d6000803e3d6000fd5b505050506040513d6000823e601f3d908101601f19168201604052611c67919081019061345a565b90505b949350505050565b600080611cd55a60966366ad5c8a60e01b89898989604051602401611c9a94939291906134d0565b60408051601f198184030181529190526020810180516001600160e01b03166001600160e01b03199093169290921790915230929190612740565b91509150816111fd576111fd86868686856127ca565b6000546001600160a01b0316331461129d5760405162461bcd60e51b815260206004820181905260248201527f4f776e61626c653a2063616c6c6572206973206e6f7420746865206f776e657260448201526064016108e7565b6000818152600360205260409020546001600160a01b0316611bad5760405162461bcd60e51b8152602060048201526018602482015277115490cdcc8c4e881a5b9d985b1a59081d1bdad95b88125160421b60448201526064016108e7565b600081815260056020526040902080546001600160a01b0319166001600160a01b0384169081179091558190611dd9826110c9565b6001600160a01b03167f8c5be1e5ebec7d5bd14f71427d1e84f3dd0314c0f7b2291e5b200ac8c7c3b92560405160405180910390a45050565b6001600160a01b038216611e685760405162461bcd60e51b815260206004820181905260248201527f4552433732313a206d696e7420746f20746865207a65726f206164647265737360448201526064016108e7565b6000818152600360205260409020546001600160a01b031615611ecd5760405162461bcd60e51b815260206004820152601c60248201527f4552433732313a20746f6b656e20616c7265616479206d696e7465640000000060448201526064016108e7565b6000818152600360205260409020546001600160a01b031615611f325760405162461bcd60e51b815260206004820152601c60248201527f4552433732313a20746f6b656e20616c7265616479206d696e7465640000000060448201526064016108e7565b6001600160a01b038216600081815260046020908152604080832080546001019055848352600390915280822080546001600160a01b0319168417905551839291907fddf252ad1be2c89b69c2b068fc378daa952ba7f163c4a11628f55a4df523b3ef908290a45050565b600080611fa9836110c9565b9050806001600160a01b0316846001600160a01b03161480611ff057506001600160a01b0380821660009081526006602090815260408083209388168352929052205460ff165b80611c6a5750836001600160a01b031661200984610c11565b6001600160a01b031614949350505050565b826001600160a01b031661202e826110c9565b6001600160a01b0316146120545760405162461bcd60e51b81526004016108e79061350e565b6001600160a01b0382166120b65760405162461bcd60e51b8152602060048201526024808201527f4552433732313a207472616e7366657220746f20746865207a65726f206164646044820152637265737360e01b60648201526084016108e7565b826001600160a01b03166120c9826110c9565b6001600160a01b0316146120ef5760405162461bcd60e51b81526004016108e79061350e565b600081815260056020908152604080832080546001600160a01b03199081169091556001600160a01b0387811680865260048552838620805460001901905590871680865283862080546001019055868652600390945282852080549092168417909155905184937fddf252ad1be2c89b69c2b068fc378daa952ba7f163c4a11628f55a4df523b3ef91a4505050565b6000601484015190506000808380602001905181019061219f9190613553565b915091506121ad8282611e12565b600c8054600101908190556040805161ffff8a1681526001600160a01b038616602082015290810183905260608101919091527f31ae2bb20187b24b2039def7711f43f56311ec96de17b7ef01d1b1da40eb2eee90608001611a1a565b600080546001600160a01b038381166001600160a01b0319831681178455604051919092169283917f8be0079c531659141344cd1fd0a4f28419497f9722a3daafe3b4186f6b6457e09190a35050565b6000612265826110c9565b9050612270826110c9565b600083815260056020908152604080832080546001600160a01b03199081169091556001600160a01b0385168085526004845282852080546000190190558785526003909352818420805490911690555192935084927fddf252ad1be2c89b69c2b068fc378daa952ba7f163c4a11628f55a4df523b3ef908390a45050565b61ffff86166000908152600760205260408120805461230d9061320d565b80601f01602080910402602001604051908101604052809291908181526020018280546123399061320d565b80156123865780601f1061235b57610100808354040283529160200191612386565b820191906000526020600020905b81548152906001019060200180831161236957829003601f168201915b505050505090508051600014156123f85760405162461bcd60e51b815260206004820152603060248201527f4c7a4170703a2064657374696e6174696f6e20636861696e206973206e6f742060448201526f61207472757374656420736f7572636560801b60648201526084016108e7565b612403878751612867565b60405162c5803160e81b81526001600160a01b037f0000000000000000000000000000000000000000000000000000000000000000169063c580310090849061245a908b9086908c908c908c908c90600401613581565b6000604051808303818588803b15801561247357600080fd5b505af1158015612487573d6000803e3d6000fd5b505050505050505050505050565b6060816124a381601f6135e8565b10156124e25760405162461bcd60e51b815260206004820152600e60248201526d736c6963655f6f766572666c6f7760901b60448201526064016108e7565b6124ec82846135e8565b845110156125305760405162461bcd60e51b8152602060048201526011602482015270736c6963655f6f75744f66426f756e647360781b60448201526064016108e7565b60608215801561254f5760405191506000825260208201604052612599565b6040519150601f8416801560200281840101858101878315602002848b0101015b81831015612588578051835260209283019201612570565b5050858452601f01601f1916604052505b50949350505050565b816001600160a01b0316836001600160a01b031614156126045760405162461bcd60e51b815260206004820152601960248201527f4552433732313a20617070726f766520746f2063616c6c65720000000000000060448201526064016108e7565b6001600160a01b03838116600081815260066020908152604080832094871680845294825291829020805460ff191686151590811790915591519182527f17307eab39ab6107e8899845ad3d59bd9653f200f220920489ca2b5937696c31910160405180910390a3505050565b61267c84848461201b565b612688848484846128d5565b6116ab5760405162461bcd60e51b81526004016108e790613600565b606060006126b1836129df565b60010190506000816001600160401b038111156126d0576126d0612e8f565b6040519080825280601f01601f1916602001820160405280156126fa576020820181803683370190505b5090508181016020015b600019016f181899199a1a9b1b9c1cb0b131b232b360811b600a86061a8153600a850494508461273357612738565b612704565b509392505050565b6000606060008060008661ffff166001600160401b0381111561276557612765612e8f565b6040519080825280601f01601f19166020018201604052801561278f576020820181803683370190505b50905060008087516020890160008d8df191503d9250868311156127b1578692505b828152826000602083013e909890975095505050505050565b8180519060200120600b60008761ffff1661ffff168152602001908152602001600020856040516127fb9190613652565b9081526040805191829003602090810183206001600160401b0388166000908152915220919091557fe183f33de2837795525b4792ca4cd60535bd77c53b7e7030060bfcf5734d6b0c90612858908790879087908790879061366e565b60405180910390a15050505050565b61ffff82166000908152600960205260409020548061288557506127105b80821115610d495760405162461bcd60e51b815260206004820181905260248201527f4c7a4170703a207061796c6f61642073697a6520697320746f6f206c6172676560448201526064016108e7565b60006001600160a01b0384163b156129d757604051630a85bd0160e11b81526001600160a01b0385169063150b7a02906129199033908990889088906004016136c0565b602060405180830381600087803b15801561293357600080fd5b505af1925050508015612963575060408051601f3d908101601f19168201909252612960918101906136fd565b60015b6129bd573d808015612991576040519150601f19603f3d011682016040523d82523d6000602084013e612996565b606091505b5080516129b55760405162461bcd60e51b81526004016108e790613600565b805181602001fd5b6001600160e01b031916630a85bd0160e11b149050611c6a565b506001611c6a565b60008072184f03e93ff9f4daa797ed6e38ed64bf6a1f0160401b8310612a1e5772184f03e93ff9f4daa797ed6e38ed64bf6a1f0160401b830492506040015b6d04ee2d6d415b85acef81000000008310612a4a576d04ee2d6d415b85acef8100000000830492506020015b662386f26fc100008310612a6857662386f26fc10000830492506010015b6305f5e1008310612a80576305f5e100830492506008015b6127108310612a9457612710830492506004015b60648310612aa6576064830492506002015b600a8310610af05760010192915050565b828054612ac39061320d565b90600052602060002090601f016020900481019282612ae55760008555612b2b565b82601f10612afe57805160ff1916838001178555612b2b565b82800160010185558215612b2b579182015b82811115612b2b578251825591602001919060010190612b10565b50612b37929150612baf565b5090565b828054612b479061320d565b90600052602060002090601f016020900481019282612b695760008555612b2b565b82601f10612b825782800160ff19823516178555612b2b565b82800160010185558215612b2b579182015b82811115612b2b578235825591602001919060010190612b94565b5b80821115612b375760008155600101612bb0565b803561ffff81168114612bd657600080fd5b919050565b60008083601f840112612bed57600080fd5b5081356001600160401b03811115612c0457600080fd5b602083019150836020828501011115612c1c57600080fd5b9250929050565b80356001600160401b0381168114612bd657600080fd5b60008060008060008060808789031215612c5357600080fd5b612c5c87612bc4565b955060208701356001600160401b0380821115612c7857600080fd5b612c848a838b01612bdb565b9097509550859150612c9860408a01612c23565b94506060890135915080821115612cae57600080fd5b50612cbb89828a01612bdb565b979a9699509497509295939492505050565b6001600160e01b031981168114611bad57600080fd5b600060208284031215612cf557600080fd5b81356115d081612ccd565b60005b83811015612d1b578181015183820152602001612d03565b838111156116ab5750506000910152565b60008151808452612d44816020860160208601612d00565b601f01601f19169290920160200192915050565b6020815260006115d06020830184612d2c565b600060208284031215612d7d57600080fd5b6115d082612bc4565b600060208284031215612d9857600080fd5b5035919050565b6001600160a01b0381168114611bad57600080fd5b60008060408385031215612dc757600080fd5b8235612dd281612d9f565b946020939093013593505050565b60008060408385031215612df357600080fd5b612dd283612bc4565b600080600060608486031215612e1157600080fd5b8335612e1c81612d9f565b92506020840135612e2c81612d9f565b929592945050506040919091013590565b600080600060408486031215612e5257600080fd5b612e5b84612bc4565b925060208401356001600160401b03811115612e7657600080fd5b612e8286828701612bdb565b9497909650939450505050565b634e487b7160e01b600052604160045260246000fd5b604051601f8201601f191681016001600160401b0381118282101715612ecd57612ecd612e8f565b604052919050565b60006001600160401b03821115612eee57612eee612e8f565b50601f01601f191660200190565b600082601f830112612f0d57600080fd5b8135612f20612f1b82612ed5565b612ea5565b818152846020838601011115612f3557600080fd5b816020850160208301376000918101602001919091529392505050565b600080600060608486031215612f6757600080fd5b612f7084612bc4565b925060208401356001600160401b03811115612f8b57600080fd5b612f9786828701612efc565b925050612fa660408501612c23565b90509250925092565b600060208284031215612fc157600080fd5b81356115d081612d9f565b600080600060608486031215612fe157600080fd5b612fea84612bc4565b925060208401359150604084013561300181612d9f565b809150509250925092565b6000806040838503121561301f57600080fd5b61302883612bc4565b915061303660208401612bc4565b90509250929050565b6000806040838503121561305257600080fd5b823561305d81612d9f565b91506020830135801515811461307257600080fd5b809150509250929050565b6000806000806080858703121561309357600080fd5b843561309e81612d9f565b935060208501356130ae81612d9f565b92506040850135915060608501356001600160401b038111156130d057600080fd5b6130dc87828801612efc565b91505092959194509250565b60008060008060006080868803121561310057600080fd5b61310986612bc4565b945061311760208701612bc4565b93506040860135925060608601356001600160401b0381111561313957600080fd5b61314588828901612bdb565b969995985093965092949392505050565b60008060006060848603121561316b57600080fd5b61317484612bc4565b925061318260208501612bc4565b9150604084013590509250925092565b600080604083850312156131a557600080fd5b82356131b081612d9f565b9150602083013561307281612d9f565b600080600080608085870312156131d657600080fd5b6131df85612bc4565b93506131ed60208601612bc4565b925060408501356131fd81612d9f565b9396929550929360600135925050565b600181811c9082168061322157607f821691505b6020821081141561324257634e487b7160e01b600052602260045260246000fd5b50919050565b8183823760009101908152919050565b6020808252602d908201527f4552433732313a2063616c6c6572206973206e6f7420746f6b656e206f776e6560408201526c1c881bdc88185c1c1c9bdd9959609a1b606082015260800190565b61ffff861681526001600160a01b038516602082015260a0604082018190526000906132d390830186612d2c565b841515606084015282810360808401526132ed8185612d2c565b98975050505050505050565b6000806040838503121561330c57600080fd5b505080516020909101519092909150565b81835281816020850137506000828201602090810191909152601f909101601f19169091010190565b61ffff84168152604060208201526000611c6760408301848661331d565b634e487b7160e01b600052601160045260246000fd5b60008282101561338c5761338c613364565b500390565b8284823760609190911b6bffffffffffffffffffffffff19169101908152601401919050565b600083516133c9818460208801612d00565b8351908301906133dd818360208801612d00565b01949350505050565b600061ffff80881683528087166020840152508460408301526080606083015261341460808301848661331d565b979650505050505050565b61ffff8616815260806020820152600061343d60808301868861331d565b6001600160401b0394909416604083015250606001529392505050565b60006020828403121561346c57600080fd5b81516001600160401b0381111561348257600080fd5b8201601f8101841361349357600080fd5b80516134a1612f1b82612ed5565b8181528560208385010111156134b657600080fd5b6134c7826020830160208601612d00565b95945050505050565b61ffff851681526080602082015260006134ed6080830186612d2c565b6001600160401b038516604084015282810360608401526134148185612d2c565b60208082526025908201527f4552433732313a207472616e736665722066726f6d20696e636f72726563742060408201526437bbb732b960d91b606082015260800190565b6000806040838503121561356657600080fd5b825161357181612d9f565b6020939093015192949293505050565b61ffff8716815260c06020820152600061359e60c0830188612d2c565b82810360408401526135b08188612d2c565b6001600160a01b0387811660608601528616608085015283810360a085015290506135db8185612d2c565b9998505050505050505050565b600082198211156135fb576135fb613364565b500190565b60208082526032908201527f4552433732313a207472616e7366657220746f206e6f6e20455243373231526560408201527131b2b4bb32b91034b6b83632b6b2b73a32b960711b606082015260800190565b60008251613664818460208701612d00565b9190910192915050565b61ffff8616815260a06020820152600061368b60a0830187612d2c565b6001600160401b038616604084015282810360608401526136ac8186612d2c565b905082810360808401526132ed8185612d2c565b6001600160a01b03858116825284166020820152604081018390526080606082018190526000906136f390830184612d2c565b9695505050505050565b60006020828403121561370f57600080fd5b81516115d081612ccd56fea26469706673582212205ab0f529eabc856a9e49eddda46ed3eb397caa717885232aba0642cc832d87d964736f6c63430008090033",
			"opcodes": "PUSH1 0xC0 PUSH1 0x40 MSTORE CALLVALUE DUP1 ISZERO PUSH3 0x11 JUMPI PUSH1 0x0 DUP1 REVERT JUMPDEST POP PUSH1 0x40 MLOAD PUSH3 0x3A45 CODESIZE SUB DUP1 PUSH3 0x3A45 DUP4 CODECOPY DUP2 ADD PUSH1 0x40 DUP2 SWAP1 MSTORE PUSH3 0x34 SWAP2 PUSH3 0x1E9 JUMP JUMPDEST DUP2 DUP1 PUSH1 0x40 MLOAD DUP1 PUSH1 0x40 ADD PUSH1 0x40 MSTORE DUP1 PUSH1 0xD DUP2 MSTORE PUSH1 0x20 ADD PUSH13 0x10DC9BDCDCD0DA185A5B939195 PUSH1 0x9A SHL DUP2 MSTORE POP PUSH1 0x40 MLOAD DUP1 PUSH1 0x40 ADD PUSH1 0x40 MSTORE DUP1 PUSH1 0x5 DUP2 MSTORE PUSH1 0x20 ADD PUSH5 0x10D0D39195 PUSH1 0xDA SHL DUP2 MSTORE POP PUSH3 0x94 PUSH3 0x8E PUSH3 0xEF PUSH1 0x20 SHL PUSH1 0x20 SHR JUMP JUMPDEST PUSH3 0xF3 JUMP JUMPDEST DUP2 MLOAD PUSH3 0xA9 SWAP1 PUSH1 0x1 SWAP1 PUSH1 0x20 DUP6 ADD SWAP1 PUSH3 0x143 JUMP JUMPDEST POP DUP1 MLOAD PUSH3 0xBF SWAP1 PUSH1 0x2 SWAP1 PUSH1 0x20 DUP5 ADD SWAP1 PUSH3 0x143 JUMP JUMPDEST POP POP POP PUSH1 0x1 PUSH1 0x1 PUSH1 0xA0 SHL SUB AND PUSH1 0x80 MSTORE POP PUSH1 0xD DUP2 SWAP1 SSTORE PUSH3 0xE3 DUP2 PUSH3 0x1869F PUSH3 0x225 JUMP JUMPDEST PUSH1 0xA0 MSTORE POP PUSH3 0x289 SWAP1 POP JUMP JUMPDEST CALLER SWAP1 JUMP JUMPDEST PUSH1 0x0 DUP1 SLOAD PUSH1 0x1 PUSH1 0x1 PUSH1 0xA0 SHL SUB DUP4 DUP2 AND PUSH1 0x1 PUSH1 0x1 PUSH1 0xA0 SHL SUB NOT DUP4 AND DUP2 OR DUP5 SSTORE PUSH1 0x40 MLOAD SWAP2 SWAP1 SWAP3 AND SWAP3 DUP4 SWAP2 PUSH32 0x8BE0079C531659141344CD1FD0A4F28419497F9722A3DAAFE3B4186F6B6457E0 SWAP2 SWAP1 LOG3 POP POP JUMP JUMPDEST DUP3 DUP1 SLOAD PUSH3 0x151 SWAP1 PUSH3 0x24C JUMP JUMPDEST SWAP1 PUSH1 0x0 MSTORE PUSH1 0x20 PUSH1 0x0 KECCAK256 SWAP1 PUSH1 0x1F ADD PUSH1 0x20 SWAP1 DIV DUP2 ADD SWAP3 DUP3 PUSH3 0x175 JUMPI PUSH1 0x0 DUP6 SSTORE PUSH3 0x1C0 JUMP JUMPDEST DUP3 PUSH1 0x1F LT PUSH3 0x190 JUMPI DUP1 MLOAD PUSH1 0xFF NOT AND DUP4 DUP1 ADD OR DUP6 SSTORE PUSH3 0x1C0 JUMP JUMPDEST DUP3 DUP1 ADD PUSH1 0x1 ADD DUP6 SSTORE DUP3 ISZERO PUSH3 0x1C0 JUMPI SWAP2 DUP3 ADD JUMPDEST DUP3 DUP2 GT ISZERO PUSH3 0x1C0 JUMPI DUP3 MLOAD DUP3 SSTORE SWAP2 PUSH1 0x20 ADD SWAP2 SWAP1 PUSH1 0x1 ADD SWAP1 PUSH3 0x1A3 JUMP JUMPDEST POP PUSH3 0x1CE SWAP3 SWAP2 POP PUSH3 0x1D2 JUMP JUMPDEST POP SWAP1 JUMP JUMPDEST JUMPDEST DUP1 DUP3 GT ISZERO PUSH3 0x1CE JUMPI PUSH1 0x0 DUP2 SSTORE PUSH1 0x1 ADD PUSH3 0x1D3 JUMP JUMPDEST PUSH1 0x0 DUP1 PUSH1 0x40 DUP4 DUP6 SUB SLT ISZERO PUSH3 0x1FD JUMPI PUSH1 0x0 DUP1 REVERT JUMPDEST DUP3 MLOAD PUSH1 0x1 PUSH1 0x1 PUSH1 0xA0 SHL SUB DUP2 AND DUP2 EQ PUSH3 0x215 JUMPI PUSH1 0x0 DUP1 REVERT JUMPDEST PUSH1 0x20 SWAP4 SWAP1 SWAP4 ADD MLOAD SWAP3 SWAP5 SWAP3 SWAP4 POP POP POP JUMP JUMPDEST PUSH1 0x0 DUP3 NOT DUP3 GT ISZERO PUSH3 0x247 JUMPI PUSH4 0x4E487B71 PUSH1 0xE0 SHL PUSH1 0x0 MSTORE PUSH1 0x11 PUSH1 0x4 MSTORE PUSH1 0x24 PUSH1 0x0 REVERT JUMPDEST POP ADD SWAP1 JUMP JUMPDEST PUSH1 0x1 DUP2 DUP2 SHR SWAP1 DUP3 AND DUP1 PUSH3 0x261 JUMPI PUSH1 0x7F DUP3 AND SWAP2 POP JUMPDEST PUSH1 0x20 DUP3 LT DUP2 EQ ISZERO PUSH3 0x283 JUMPI PUSH4 0x4E487B71 PUSH1 0xE0 SHL PUSH1 0x0 MSTORE PUSH1 0x22 PUSH1 0x4 MSTORE PUSH1 0x24 PUSH1 0x0 REVERT JUMPDEST POP SWAP2 SWAP1 POP JUMP JUMPDEST PUSH1 0x80 MLOAD PUSH1 0xA0 MLOAD PUSH2 0x3750 PUSH3 0x2F5 PUSH1 0x0 CODECOPY PUSH1 0x0 DUP2 DUP2 PUSH2 0x3E6 ADD MSTORE PUSH2 0xDC7 ADD MSTORE PUSH1 0x0 DUP2 DUP2 PUSH2 0x6DF ADD MSTORE DUP2 DUP2 PUSH2 0x876 ADD MSTORE DUP2 DUP2 PUSH2 0xBA9 ADD MSTORE DUP2 DUP2 PUSH2 0xD8E ADD MSTORE DUP2 DUP2 PUSH2 0xEBB ADD MSTORE DUP2 DUP2 PUSH2 0x1062 ADD MSTORE DUP2 DUP2 PUSH2 0x13E2 ADD MSTORE DUP2 DUP2 PUSH2 0x179F ADD MSTORE DUP2 DUP2 PUSH2 0x1BE1 ADD MSTORE PUSH2 0x2419 ADD MSTORE PUSH2 0x3750 PUSH1 0x0 RETURN INVALID PUSH1 0x80 PUSH1 0x40 MSTORE PUSH1 0x4 CALLDATASIZE LT PUSH2 0x265 JUMPI PUSH1 0x0 CALLDATALOAD PUSH1 0xE0 SHR DUP1 PUSH4 0x715018A6 GT PUSH2 0x144 JUMPI DUP1 PUSH4 0xB88D4FDE GT PUSH2 0xB6 JUMPI DUP1 PUSH4 0xD1DEBA1F GT PUSH2 0x7A JUMPI DUP1 PUSH4 0xD1DEBA1F EQ PUSH2 0x797 JUMPI DUP1 PUSH4 0xDF2A5B3B EQ PUSH2 0x7AA JUMPI DUP1 PUSH4 0xE985E9C5 EQ PUSH2 0x7CA JUMPI DUP1 PUSH4 0xEB8D72B7 EQ PUSH2 0x813 JUMPI DUP1 PUSH4 0xF2FDE38B EQ PUSH2 0x833 JUMPI DUP1 PUSH4 0xF5ECBDBC EQ PUSH2 0x853 JUMPI PUSH1 0x0 DUP1 REVERT JUMPDEST DUP1 PUSH4 0xB88D4FDE EQ PUSH2 0x701 JUMPI DUP1 PUSH4 0xBAF3292D EQ PUSH2 0x721 JUMPI DUP1 PUSH4 0xC4461834 EQ PUSH2 0x741 JUMPI DUP1 PUSH4 0xC87B56DD EQ PUSH2 0x757 JUMPI DUP1 PUSH4 0xCBED8B9C EQ PUSH2 0x777 JUMPI PUSH1 0x0 DUP1 REVERT JUMPDEST DUP1 PUSH4 0x950C8A74 GT PUSH2 0x108 JUMPI DUP1 PUSH4 0x950C8A74 EQ PUSH2 0x638 JUMPI DUP1 PUSH4 0x95D89B41 EQ PUSH2 0x658 JUMPI DUP1 PUSH4 0x9F38369A EQ PUSH2 0x66D JUMPI DUP1 PUSH4 0xA22CB465 EQ PUSH2 0x68D JUMPI DUP1 PUSH4 0xA6C3D165 EQ PUSH2 0x6AD JUMPI DUP1 PUSH4 0xB353AAA7 EQ PUSH2 0x6CD JUMPI PUSH1 0x0 DUP1 REVERT JUMPDEST DUP1 PUSH4 0x715018A6 EQ PUSH2 0x59A JUMPI DUP1 PUSH4 0x7533D788 EQ PUSH2 0x5AF JUMPI DUP1 PUSH4 0x8588CFAD EQ PUSH2 0x5CF JUMPI DUP1 PUSH4 0x8CFD8F5C EQ PUSH2 0x5E2 JUMPI DUP1 PUSH4 0x8DA5CB5B EQ PUSH2 0x61A JUMPI PUSH1 0x0 DUP1 REVERT JUMPDEST DUP1 PUSH4 0x23B872DD GT PUSH2 0x1DD JUMPI DUP1 PUSH4 0x42D65A8D GT PUSH2 0x1A1 JUMPI DUP1 PUSH4 0x42D65A8D EQ PUSH2 0x4B5 JUMPI DUP1 PUSH4 0x5B8C41E6 EQ PUSH2 0x4D5 JUMPI DUP1 PUSH4 0x61BC221A EQ PUSH2 0x524 JUMPI DUP1 PUSH4 0x6352211E EQ PUSH2 0x53A JUMPI DUP1 PUSH4 0x66AD5C8A EQ PUSH2 0x55A JUMPI DUP1 PUSH4 0x70A08231 EQ PUSH2 0x57A JUMPI PUSH1 0x0 DUP1 REVERT JUMPDEST DUP1 PUSH4 0x23B872DD EQ PUSH2 0x408 JUMPI DUP1 PUSH4 0x362790F6 EQ PUSH2 0x428 JUMPI DUP1 PUSH4 0x3D8B38F6 EQ PUSH2 0x448 JUMPI DUP1 PUSH4 0x3F1F4FA4 EQ PUSH2 0x468 JUMPI DUP1 PUSH4 0x42842E0E EQ PUSH2 0x495 JUMPI PUSH1 0x0 DUP1 REVERT JUMPDEST DUP1 PUSH4 0x81812FC GT PUSH2 0x22F JUMPI DUP1 PUSH4 0x81812FC EQ PUSH2 0x327 JUMPI DUP1 PUSH4 0x95EA7B3 EQ PUSH2 0x35F JUMPI DUP1 PUSH4 0xDF37483 EQ PUSH2 0x37F JUMPI DUP1 PUSH4 0x10DDB137 EQ PUSH2 0x39F JUMPI DUP1 PUSH4 0x1249C58B EQ PUSH2 0x3BF JUMPI DUP1 PUSH4 0x17BAC052 EQ PUSH2 0x3D4 JUMPI PUSH1 0x0 DUP1 REVERT JUMPDEST DUP1 PUSH3 0x1D3567 EQ PUSH2 0x26A JUMPI DUP1 PUSH3 0x9A9B7B EQ PUSH2 0x28C JUMPI DUP1 PUSH4 0x1FFC9A7 EQ PUSH2 0x2B5 JUMPI DUP1 PUSH4 0x6FDDE03 EQ PUSH2 0x2E5 JUMPI DUP1 PUSH4 0x7E0DB17 EQ PUSH2 0x307 JUMPI JUMPDEST PUSH1 0x0 DUP1 REVERT JUMPDEST CALLVALUE DUP1 ISZERO PUSH2 0x276 JUMPI PUSH1 0x0 DUP1 REVERT JUMPDEST POP PUSH2 0x28A PUSH2 0x285 CALLDATASIZE PUSH1 0x4 PUSH2 0x2C3A JUMP JUMPDEST PUSH2 0x873 JUMP JUMPDEST STOP JUMPDEST CALLVALUE DUP1 ISZERO PUSH2 0x298 JUMPI PUSH1 0x0 DUP1 REVERT JUMPDEST POP PUSH2 0x2A2 PUSH1 0xD SLOAD DUP2 JUMP JUMPDEST PUSH1 0x40 MLOAD SWAP1 DUP2 MSTORE PUSH1 0x20 ADD JUMPDEST PUSH1 0x40 MLOAD DUP1 SWAP2 SUB SWAP1 RETURN JUMPDEST CALLVALUE DUP1 ISZERO PUSH2 0x2C1 JUMPI PUSH1 0x0 DUP1 REVERT JUMPDEST POP PUSH2 0x2D5 PUSH2 0x2D0 CALLDATASIZE PUSH1 0x4 PUSH2 0x2CE3 JUMP JUMPDEST PUSH2 0xAA4 JUMP JUMPDEST PUSH1 0x40 MLOAD SWAP1 ISZERO ISZERO DUP2 MSTORE PUSH1 0x20 ADD PUSH2 0x2AC JUMP JUMPDEST CALLVALUE DUP1 ISZERO PUSH2 0x2F1 JUMPI PUSH1 0x0 DUP1 REVERT JUMPDEST POP PUSH2 0x2FA PUSH2 0xAF6 JUMP JUMPDEST PUSH1 0x40 MLOAD PUSH2 0x2AC SWAP2 SWAP1 PUSH2 0x2D58 JUMP JUMPDEST CALLVALUE DUP1 ISZERO PUSH2 0x313 JUMPI PUSH1 0x0 DUP1 REVERT JUMPDEST POP PUSH2 0x28A PUSH2 0x322 CALLDATASIZE PUSH1 0x4 PUSH2 0x2D6B JUMP JUMPDEST PUSH2 0xB88 JUMP JUMPDEST CALLVALUE DUP1 ISZERO PUSH2 0x333 JUMPI PUSH1 0x0 DUP1 REVERT JUMPDEST POP PUSH2 0x347 PUSH2 0x342 CALLDATASIZE PUSH1 0x4 PUSH2 0x2D86 JUMP JUMPDEST PUSH2 0xC11 JUMP JUMPDEST PUSH1 0x40 MLOAD PUSH1 0x1 PUSH1 0x1 PUSH1 0xA0 SHL SUB SWAP1 SWAP2 AND DUP2 MSTORE PUSH1 0x20 ADD PUSH2 0x2AC JUMP JUMPDEST CALLVALUE DUP1 ISZERO PUSH2 0x36B JUMPI PUSH1 0x0 DUP1 REVERT JUMPDEST POP PUSH2 0x28A PUSH2 0x37A CALLDATASIZE PUSH1 0x4 PUSH2 0x2DB4 JUMP JUMPDEST PUSH2 0xC38 JUMP JUMPDEST CALLVALUE DUP1 ISZERO PUSH2 0x38B JUMPI PUSH1 0x0 DUP1 REVERT JUMPDEST POP PUSH2 0x28A PUSH2 0x39A CALLDATASIZE PUSH1 0x4 PUSH2 0x2DE0 JUMP JUMPDEST PUSH2 0xD4E JUMP JUMPDEST CALLVALUE DUP1 ISZERO PUSH2 0x3AB JUMPI PUSH1 0x0 DUP1 REVERT JUMPDEST POP PUSH2 0x28A PUSH2 0x3BA CALLDATASIZE PUSH1 0x4 PUSH2 0x2D6B JUMP JUMPDEST PUSH2 0xD6D JUMP JUMPDEST CALLVALUE DUP1 ISZERO PUSH2 0x3CB JUMPI PUSH1 0x0 DUP1 REVERT JUMPDEST POP PUSH2 0x28A PUSH2 0xDC5 JUMP JUMPDEST CALLVALUE DUP1 ISZERO PUSH2 0x3E0 JUMPI PUSH1 0x0 DUP1 REVERT JUMPDEST POP PUSH2 0x2A2 PUSH32 0x0 DUP2 JUMP JUMPDEST CALLVALUE DUP1 ISZERO PUSH2 0x414 JUMPI PUSH1 0x0 DUP1 REVERT JUMPDEST POP PUSH2 0x28A PUSH2 0x423 CALLDATASIZE PUSH1 0x4 PUSH2 0x2DFC JUMP JUMPDEST PUSH2 0xE2B JUMP JUMPDEST CALLVALUE DUP1 ISZERO PUSH2 0x434 JUMPI PUSH1 0x0 DUP1 REVERT JUMPDEST POP PUSH2 0x2A2 PUSH2 0x443 CALLDATASIZE PUSH1 0x4 PUSH2 0x2DE0 JUMP JUMPDEST PUSH2 0xE5C JUMP JUMPDEST CALLVALUE DUP1 ISZERO PUSH2 0x454 JUMPI PUSH1 0x0 DUP1 REVERT JUMPDEST POP PUSH2 0x2D5 PUSH2 0x463 CALLDATASIZE PUSH1 0x4 PUSH2 0x2E3D JUMP JUMPDEST PUSH2 0xF5C JUMP JUMPDEST CALLVALUE DUP1 ISZERO PUSH2 0x474 JUMPI PUSH1 0x0 DUP1 REVERT JUMPDEST POP PUSH2 0x2A2 PUSH2 0x483 CALLDATASIZE PUSH1 0x4 PUSH2 0x2D6B JUMP JUMPDEST PUSH1 0x9 PUSH1 0x20 MSTORE PUSH1 0x0 SWAP1 DUP2 MSTORE PUSH1 0x40 SWAP1 KECCAK256 SLOAD DUP2 JUMP JUMPDEST CALLVALUE DUP1 ISZERO PUSH2 0x4A1 JUMPI PUSH1 0x0 DUP1 REVERT JUMPDEST POP PUSH2 0x28A PUSH2 0x4B0 CALLDATASIZE PUSH1 0x4 PUSH2 0x2DFC JUMP JUMPDEST PUSH2 0x1028 JUMP JUMPDEST CALLVALUE DUP1 ISZERO PUSH2 0x4C1 JUMPI PUSH1 0x0 DUP1 REVERT JUMPDEST POP PUSH2 0x28A PUSH2 0x4D0 CALLDATASIZE PUSH1 0x4 PUSH2 0x2E3D JUMP JUMPDEST PUSH2 0x1043 JUMP JUMPDEST CALLVALUE DUP1 ISZERO PUSH2 0x4E1 JUMPI PUSH1 0x0 DUP1 REVERT JUMPDEST POP PUSH2 0x2A2 PUSH2 0x4F0 CALLDATASIZE PUSH1 0x4 PUSH2 0x2F52 JUMP JUMPDEST PUSH1 0xB PUSH1 0x20 SWAP1 DUP2 MSTORE PUSH1 0x0 SWAP4 DUP5 MSTORE PUSH1 0x40 DUP1 DUP6 KECCAK256 DUP5 MLOAD DUP1 DUP7 ADD DUP5 ADD DUP1 MLOAD SWAP3 DUP2 MSTORE SWAP1 DUP5 ADD SWAP6 DUP5 ADD SWAP6 SWAP1 SWAP6 KECCAK256 SWAP5 MSTORE SWAP3 SWAP1 MSTORE DUP3 MSTORE SWAP1 KECCAK256 SLOAD DUP2 JUMP JUMPDEST CALLVALUE DUP1 ISZERO PUSH2 0x530 JUMPI PUSH1 0x0 DUP1 REVERT JUMPDEST POP PUSH2 0x2A2 PUSH1 0xC SLOAD DUP2 JUMP JUMPDEST CALLVALUE DUP1 ISZERO PUSH2 0x546 JUMPI PUSH1 0x0 DUP1 REVERT JUMPDEST POP PUSH2 0x347 PUSH2 0x555 CALLDATASIZE PUSH1 0x4 PUSH2 0x2D86 JUMP JUMPDEST PUSH2 0x10C9 JUMP JUMPDEST CALLVALUE DUP1 ISZERO PUSH2 0x566 JUMPI PUSH1 0x0 DUP1 REVERT JUMPDEST POP PUSH2 0x28A PUSH2 0x575 CALLDATASIZE PUSH1 0x4 PUSH2 0x2C3A JUMP JUMPDEST PUSH2 0x1129 JUMP JUMPDEST CALLVALUE DUP1 ISZERO PUSH2 0x586 JUMPI PUSH1 0x0 DUP1 REVERT JUMPDEST POP PUSH2 0x2A2 PUSH2 0x595 CALLDATASIZE PUSH1 0x4 PUSH2 0x2FAF JUMP JUMPDEST PUSH2 0x1205 JUMP JUMPDEST CALLVALUE DUP1 ISZERO PUSH2 0x5A6 JUMPI PUSH1 0x0 DUP1 REVERT JUMPDEST POP PUSH2 0x28A PUSH2 0x128B JUMP JUMPDEST CALLVALUE DUP1 ISZERO PUSH2 0x5BB JUMPI PUSH1 0x0 DUP1 REVERT JUMPDEST POP PUSH2 0x2FA PUSH2 0x5CA CALLDATASIZE PUSH1 0x4 PUSH2 0x2D6B JUMP JUMPDEST PUSH2 0x129F JUMP JUMPDEST PUSH2 0x28A PUSH2 0x5DD CALLDATASIZE PUSH1 0x4 PUSH2 0x2FCC JUMP JUMPDEST PUSH2 0x1339 JUMP JUMPDEST CALLVALUE DUP1 ISZERO PUSH2 0x5EE JUMPI PUSH1 0x0 DUP1 REVERT JUMPDEST POP PUSH2 0x2A2 PUSH2 0x5FD CALLDATASIZE PUSH1 0x4 PUSH2 0x300C JUMP JUMPDEST PUSH1 0x8 PUSH1 0x20 SWAP1 DUP2 MSTORE PUSH1 0x0 SWAP3 DUP4 MSTORE PUSH1 0x40 DUP1 DUP5 KECCAK256 SWAP1 SWAP2 MSTORE SWAP1 DUP3 MSTORE SWAP1 KECCAK256 SLOAD DUP2 JUMP JUMPDEST CALLVALUE DUP1 ISZERO PUSH2 0x626 JUMPI PUSH1 0x0 DUP1 REVERT JUMPDEST POP PUSH1 0x0 SLOAD PUSH1 0x1 PUSH1 0x1 PUSH1 0xA0 SHL SUB AND PUSH2 0x347 JUMP JUMPDEST CALLVALUE DUP1 ISZERO PUSH2 0x644 JUMPI PUSH1 0x0 DUP1 REVERT JUMPDEST POP PUSH1 0xA SLOAD PUSH2 0x347 SWAP1 PUSH1 0x1 PUSH1 0x1 PUSH1 0xA0 SHL SUB AND DUP2 JUMP JUMPDEST CALLVALUE DUP1 ISZERO PUSH2 0x664 JUMPI PUSH1 0x0 DUP1 REVERT JUMPDEST POP PUSH2 0x2FA PUSH2 0x14B1 JUMP JUMPDEST CALLVALUE DUP1 ISZERO PUSH2 0x679 JUMPI PUSH1 0x0 DUP1 REVERT JUMPDEST POP PUSH2 0x2FA PUSH2 0x688 CALLDATASIZE PUSH1 0x4 PUSH2 0x2D6B JUMP JUMPDEST PUSH2 0x14C0 JUMP JUMPDEST CALLVALUE DUP1 ISZERO PUSH2 0x699 JUMPI PUSH1 0x0 DUP1 REVERT JUMPDEST POP PUSH2 0x28A PUSH2 0x6A8 CALLDATASIZE PUSH1 0x4 PUSH2 0x303F JUMP JUMPDEST PUSH2 0x15D7 JUMP JUMPDEST CALLVALUE DUP1 ISZERO PUSH2 0x6B9 JUMPI PUSH1 0x0 DUP1 REVERT JUMPDEST POP PUSH2 0x28A PUSH2 0x6C8 CALLDATASIZE PUSH1 0x4 PUSH2 0x2E3D JUMP JUMPDEST PUSH2 0x15E6 JUMP JUMPDEST CALLVALUE DUP1 ISZERO PUSH2 0x6D9 JUMPI PUSH1 0x0 DUP1 REVERT JUMPDEST POP PUSH2 0x347 PUSH32 0x0 DUP2 JUMP JUMPDEST CALLVALUE DUP1 ISZERO PUSH2 0x70D JUMPI PUSH1 0x0 DUP1 REVERT JUMPDEST POP PUSH2 0x28A PUSH2 0x71C CALLDATASIZE PUSH1 0x4 PUSH2 0x307D JUMP JUMPDEST PUSH2 0x1679 JUMP JUMPDEST CALLVALUE DUP1 ISZERO PUSH2 0x72D JUMPI PUSH1 0x0 DUP1 REVERT JUMPDEST POP PUSH2 0x28A PUSH2 0x73C CALLDATASIZE PUSH1 0x4 PUSH2 0x2FAF JUMP JUMPDEST PUSH2 0x16B1 JUMP JUMPDEST CALLVALUE DUP1 ISZERO PUSH2 0x74D JUMPI PUSH1 0x0 DUP1 REVERT JUMPDEST POP PUSH2 0x2A2 PUSH2 0x2710 DUP2 JUMP JUMPDEST CALLVALUE DUP1 ISZERO PUSH2 0x763 JUMPI PUSH1 0x0 DUP1 REVERT JUMPDEST POP PUSH2 0x2FA PUSH2 0x772 CALLDATASIZE PUSH1 0x4 PUSH2 0x2D86 JUMP JUMPDEST PUSH2 0x170D JUMP JUMPDEST CALLVALUE DUP1 ISZERO PUSH2 0x783 JUMPI PUSH1 0x0 DUP1 REVERT JUMPDEST POP PUSH2 0x28A PUSH2 0x792 CALLDATASIZE PUSH1 0x4 PUSH2 0x30E8 JUMP JUMPDEST PUSH2 0x1780 JUMP JUMPDEST PUSH2 0x28A PUSH2 0x7A5 CALLDATASIZE PUSH1 0x4 PUSH2 0x2C3A JUMP JUMPDEST PUSH2 0x1815 JUMP JUMPDEST CALLVALUE DUP1 ISZERO PUSH2 0x7B6 JUMPI PUSH1 0x0 DUP1 REVERT JUMPDEST POP PUSH2 0x28A PUSH2 0x7C5 CALLDATASIZE PUSH1 0x4 PUSH2 0x3156 JUMP JUMPDEST PUSH2 0x1A2B JUMP JUMPDEST CALLVALUE DUP1 ISZERO PUSH2 0x7D6 JUMPI PUSH1 0x0 DUP1 REVERT JUMPDEST POP PUSH2 0x2D5 PUSH2 0x7E5 CALLDATASIZE PUSH1 0x4 PUSH2 0x3192 JUMP JUMPDEST PUSH1 0x1 PUSH1 0x1 PUSH1 0xA0 SHL SUB SWAP2 DUP3 AND PUSH1 0x0 SWAP1 DUP2 MSTORE PUSH1 0x6 PUSH1 0x20 SWAP1 DUP2 MSTORE PUSH1 0x40 DUP1 DUP4 KECCAK256 SWAP4 SWAP1 SWAP5 AND DUP3 MSTORE SWAP2 SWAP1 SWAP2 MSTORE KECCAK256 SLOAD PUSH1 0xFF AND SWAP1 JUMP JUMPDEST CALLVALUE DUP1 ISZERO PUSH2 0x81F JUMPI PUSH1 0x0 DUP1 REVERT JUMPDEST POP PUSH2 0x28A PUSH2 0x82E CALLDATASIZE PUSH1 0x4 PUSH2 0x2E3D JUMP JUMPDEST PUSH2 0x1ADD JUMP JUMPDEST CALLVALUE DUP1 ISZERO PUSH2 0x83F JUMPI PUSH1 0x0 DUP1 REVERT JUMPDEST POP PUSH2 0x28A PUSH2 0x84E CALLDATASIZE PUSH1 0x4 PUSH2 0x2FAF JUMP JUMPDEST PUSH2 0x1B37 JUMP JUMPDEST CALLVALUE DUP1 ISZERO PUSH2 0x85F JUMPI PUSH1 0x0 DUP1 REVERT JUMPDEST POP PUSH2 0x2FA PUSH2 0x86E CALLDATASIZE PUSH1 0x4 PUSH2 0x31C0 JUMP JUMPDEST PUSH2 0x1BB0 JUMP JUMPDEST CALLER PUSH32 0x0 PUSH1 0x1 PUSH1 0x1 PUSH1 0xA0 SHL SUB AND EQ PUSH2 0x8F0 JUMPI PUSH1 0x40 MLOAD PUSH3 0x461BCD PUSH1 0xE5 SHL DUP2 MSTORE PUSH1 0x20 PUSH1 0x4 DUP3 ADD MSTORE PUSH1 0x1E PUSH1 0x24 DUP3 ADD MSTORE PUSH32 0x4C7A4170703A20696E76616C696420656E64706F696E742063616C6C65720000 PUSH1 0x44 DUP3 ADD MSTORE PUSH1 0x64 ADD JUMPDEST PUSH1 0x40 MLOAD DUP1 SWAP2 SUB SWAP1 REVERT JUMPDEST PUSH2 0xFFFF DUP7 AND PUSH1 0x0 SWAP1 DUP2 MSTORE PUSH1 0x7 PUSH1 0x20 MSTORE PUSH1 0x40 DUP2 KECCAK256 DUP1 SLOAD PUSH2 0x90E SWAP1 PUSH2 0x320D JUMP JUMPDEST DUP1 PUSH1 0x1F ADD PUSH1 0x20 DUP1 SWAP2 DIV MUL PUSH1 0x20 ADD PUSH1 0x40 MLOAD SWAP1 DUP2 ADD PUSH1 0x40 MSTORE DUP1 SWAP3 SWAP2 SWAP1 DUP2 DUP2 MSTORE PUSH1 0x20 ADD DUP3 DUP1 SLOAD PUSH2 0x93A SWAP1 PUSH2 0x320D JUMP JUMPDEST DUP1 ISZERO PUSH2 0x987 JUMPI DUP1 PUSH1 0x1F LT PUSH2 0x95C JUMPI PUSH2 0x100 DUP1 DUP4 SLOAD DIV MUL DUP4 MSTORE SWAP2 PUSH1 0x20 ADD SWAP2 PUSH2 0x987 JUMP JUMPDEST DUP3 ADD SWAP2 SWAP1 PUSH1 0x0 MSTORE PUSH1 0x20 PUSH1 0x0 KECCAK256 SWAP1 JUMPDEST DUP2 SLOAD DUP2 MSTORE SWAP1 PUSH1 0x1 ADD SWAP1 PUSH1 0x20 ADD DUP1 DUP4 GT PUSH2 0x96A JUMPI DUP3 SWAP1 SUB PUSH1 0x1F AND DUP3 ADD SWAP2 JUMPDEST POP POP POP POP POP SWAP1 POP DUP1 MLOAD DUP7 DUP7 SWAP1 POP EQ DUP1 ISZERO PUSH2 0x9A2 JUMPI POP PUSH1 0x0 DUP2 MLOAD GT JUMPDEST DUP1 ISZERO PUSH2 0x9CA JUMPI POP DUP1 MLOAD PUSH1 0x20 DUP3 ADD KECCAK256 PUSH1 0x40 MLOAD PUSH2 0x9C0 SWAP1 DUP9 SWAP1 DUP9 SWAP1 PUSH2 0x3248 JUMP JUMPDEST PUSH1 0x40 MLOAD DUP1 SWAP2 SUB SWAP1 KECCAK256 EQ JUMPDEST PUSH2 0xA25 JUMPI PUSH1 0x40 MLOAD PUSH3 0x461BCD PUSH1 0xE5 SHL DUP2 MSTORE PUSH1 0x20 PUSH1 0x4 DUP3 ADD MSTORE PUSH1 0x26 PUSH1 0x24 DUP3 ADD MSTORE PUSH32 0x4C7A4170703A20696E76616C696420736F757263652073656E64696E6720636F PUSH1 0x44 DUP3 ADD MSTORE PUSH6 0x1B9D1C9858DD PUSH1 0xD2 SHL PUSH1 0x64 DUP3 ADD MSTORE PUSH1 0x84 ADD PUSH2 0x8E7 JUMP JUMPDEST PUSH2 0xA9B DUP8 DUP8 DUP8 DUP1 DUP1 PUSH1 0x1F ADD PUSH1 0x20 DUP1 SWAP2 DIV MUL PUSH1 0x20 ADD PUSH1 0x40 MLOAD SWAP1 DUP2 ADD PUSH1 0x40 MSTORE DUP1 SWAP4 SWAP3 SWAP2 SWAP1 DUP2 DUP2 MSTORE PUSH1 0x20 ADD DUP4 DUP4 DUP1 DUP3 DUP5 CALLDATACOPY PUSH1 0x0 SWAP3 ADD SWAP2 SWAP1 SWAP2 MSTORE POP POP PUSH1 0x40 DUP1 MLOAD PUSH1 0x20 PUSH1 0x1F DUP11 ADD DUP2 SWAP1 DIV DUP2 MUL DUP3 ADD DUP2 ADD SWAP1 SWAP3 MSTORE DUP9 DUP2 MSTORE DUP11 SWAP4 POP SWAP2 POP DUP9 SWAP1 DUP9 SWAP1 DUP2 SWAP1 DUP5 ADD DUP4 DUP3 DUP1 DUP3 DUP5 CALLDATACOPY PUSH1 0x0 SWAP3 ADD SWAP2 SWAP1 SWAP2 MSTORE POP PUSH2 0x1C72 SWAP3 POP POP POP JUMP JUMPDEST POP POP POP POP POP POP POP JUMP JUMPDEST PUSH1 0x0 PUSH1 0x1 PUSH1 0x1 PUSH1 0xE0 SHL SUB NOT DUP3 AND PUSH4 0x80AC58CD PUSH1 0xE0 SHL EQ DUP1 PUSH2 0xAD5 JUMPI POP PUSH1 0x1 PUSH1 0x1 PUSH1 0xE0 SHL SUB NOT DUP3 AND PUSH4 0x5B5E139F PUSH1 0xE0 SHL EQ JUMPDEST DUP1 PUSH2 0xAF0 JUMPI POP PUSH4 0x1FFC9A7 PUSH1 0xE0 SHL PUSH1 0x1 PUSH1 0x1 PUSH1 0xE0 SHL SUB NOT DUP4 AND EQ JUMPDEST SWAP3 SWAP2 POP POP JUMP JUMPDEST PUSH1 0x60 PUSH1 0x1 DUP1 SLOAD PUSH2 0xB05 SWAP1 PUSH2 0x320D JUMP JUMPDEST DUP1 PUSH1 0x1F ADD PUSH1 0x20 DUP1 SWAP2 DIV MUL PUSH1 0x20 ADD PUSH1 0x40 MLOAD SWAP1 DUP2 ADD PUSH1 0x40 MSTORE DUP1 SWAP3 SWAP2 SWAP1 DUP2 DUP2 MSTORE PUSH1 0x20 ADD DUP3 DUP1 SLOAD PUSH2 0xB31 SWAP1 PUSH2 0x320D JUMP JUMPDEST DUP1 ISZERO PUSH2 0xB7E JUMPI DUP1 PUSH1 0x1F LT PUSH2 0xB53 JUMPI PUSH2 0x100 DUP1 DUP4 SLOAD DIV MUL DUP4 MSTORE SWAP2 PUSH1 0x20 ADD SWAP2 PUSH2 0xB7E JUMP JUMPDEST DUP3 ADD SWAP2 SWAP1 PUSH1 0x0 MSTORE PUSH1 0x20 PUSH1 0x0 KECCAK256 SWAP1 JUMPDEST DUP2 SLOAD DUP2 MSTORE SWAP1 PUSH1 0x1 ADD SWAP1 PUSH1 0x20 ADD DUP1 DUP4 GT PUSH2 0xB61 JUMPI DUP3 SWAP1 SUB PUSH1 0x1F AND DUP3 ADD SWAP2 JUMPDEST POP POP POP POP POP SWAP1 POP SWAP1 JUMP JUMPDEST PUSH2 0xB90 PUSH2 0x1CEB JUMP JUMPDEST PUSH1 0x40 MLOAD PUSH4 0x7E0DB17 PUSH1 0xE0 SHL DUP2 MSTORE PUSH2 0xFFFF DUP3 AND PUSH1 0x4 DUP3 ADD MSTORE PUSH32 0x0 PUSH1 0x1 PUSH1 0x1 PUSH1 0xA0 SHL SUB AND SWAP1 PUSH4 0x7E0DB17 SWAP1 PUSH1 0x24 ADD JUMPDEST PUSH1 0x0 PUSH1 0x40 MLOAD DUP1 DUP4 SUB DUP2 PUSH1 0x0 DUP8 DUP1 EXTCODESIZE ISZERO DUP1 ISZERO PUSH2 0xBF6 JUMPI PUSH1 0x0 DUP1 REVERT JUMPDEST POP GAS CALL ISZERO DUP1 ISZERO PUSH2 0xC0A JUMPI RETURNDATASIZE PUSH1 0x0 DUP1 RETURNDATACOPY RETURNDATASIZE PUSH1 0x0 REVERT JUMPDEST POP POP POP POP POP JUMP JUMPDEST PUSH1 0x0 PUSH2 0xC1C DUP3 PUSH2 0x1D45 JUMP JUMPDEST POP PUSH1 0x0 SWAP1 DUP2 MSTORE PUSH1 0x5 PUSH1 0x20 MSTORE PUSH1 0x40 SWAP1 KECCAK256 SLOAD PUSH1 0x1 PUSH1 0x1 PUSH1 0xA0 SHL SUB AND SWAP1 JUMP JUMPDEST PUSH1 0x0 PUSH2 0xC43 DUP3 PUSH2 0x10C9 JUMP JUMPDEST SWAP1 POP DUP1 PUSH1 0x1 PUSH1 0x1 PUSH1 0xA0 SHL SUB AND DUP4 PUSH1 0x1 PUSH1 0x1 PUSH1 0xA0 SHL SUB AND EQ ISZERO PUSH2 0xCB1 JUMPI PUSH1 0x40 MLOAD PUSH3 0x461BCD PUSH1 0xE5 SHL DUP2 MSTORE PUSH1 0x20 PUSH1 0x4 DUP3 ADD MSTORE PUSH1 0x21 PUSH1 0x24 DUP3 ADD MSTORE PUSH32 0x4552433732313A20617070726F76616C20746F2063757272656E74206F776E65 PUSH1 0x44 DUP3 ADD MSTORE PUSH1 0x39 PUSH1 0xF9 SHL PUSH1 0x64 DUP3 ADD MSTORE PUSH1 0x84 ADD PUSH2 0x8E7 JUMP JUMPDEST CALLER PUSH1 0x1 PUSH1 0x1 PUSH1 0xA0 SHL SUB DUP3 AND EQ DUP1 PUSH2 0xCCD JUMPI POP PUSH2 0xCCD DUP2 CALLER PUSH2 0x7E5 JUMP JUMPDEST PUSH2 0xD3F JUMPI PUSH1 0x40 MLOAD PUSH3 0x461BCD PUSH1 0xE5 SHL DUP2 MSTORE PUSH1 0x20 PUSH1 0x4 DUP3 ADD MSTORE PUSH1 0x3D PUSH1 0x24 DUP3 ADD MSTORE PUSH32 0x4552433732313A20617070726F76652063616C6C6572206973206E6F7420746F PUSH1 0x44 DUP3 ADD MSTORE PUSH32 0x6B656E206F776E6572206F7220617070726F76656420666F7220616C6C000000 PUSH1 0x64 DUP3 ADD MSTORE PUSH1 0x84 ADD PUSH2 0x8E7 JUMP JUMPDEST PUSH2 0xD49 DUP4 DUP4 PUSH2 0x1DA4 JUMP JUMPDEST POP POP POP JUMP JUMPDEST PUSH2 0xD56 PUSH2 0x1CEB JUMP JUMPDEST PUSH2 0xFFFF SWAP1 SWAP2 AND PUSH1 0x0 SWAP1 DUP2 MSTORE PUSH1 0x9 PUSH1 0x20 MSTORE PUSH1 0x40 SWAP1 KECCAK256 SSTORE JUMP JUMPDEST PUSH2 0xD75 PUSH2 0x1CEB JUMP JUMPDEST PUSH1 0x40 MLOAD PUSH4 0x10DDB137 PUSH1 0xE0 SHL DUP2 MSTORE PUSH2 0xFFFF DUP3 AND PUSH1 0x4 DUP3 ADD MSTORE PUSH32 0x0 PUSH1 0x1 PUSH1 0x1 PUSH1 0xA0 SHL SUB AND SWAP1 PUSH4 0x10DDB137 SWAP1 PUSH1 0x24 ADD PUSH2 0xBDC JUMP JUMPDEST PUSH32 0x0 PUSH1 0xD SLOAD EQ ISZERO PUSH2 0xE08 JUMPI PUSH1 0x40 MLOAD PUSH4 0x7D3D8249 PUSH1 0xE0 SHL DUP2 MSTORE PUSH1 0x4 ADD PUSH1 0x40 MLOAD DUP1 SWAP2 SUB SWAP1 REVERT JUMPDEST PUSH2 0xE14 CALLER PUSH1 0xD SLOAD PUSH2 0x1E12 JUMP JUMPDEST PUSH1 0xD DUP1 SLOAD PUSH1 0x1 SWAP1 DUP2 ADD SWAP1 SWAP2 SSTORE PUSH1 0xC DUP1 SLOAD SWAP1 SWAP2 ADD SWAP1 SSTORE JUMP JUMPDEST PUSH2 0xE35 CALLER DUP3 PUSH2 0x1F9D JUMP JUMPDEST PUSH2 0xE51 JUMPI PUSH1 0x40 MLOAD PUSH3 0x461BCD PUSH1 0xE5 SHL DUP2 MSTORE PUSH1 0x4 ADD PUSH2 0x8E7 SWAP1 PUSH2 0x3258 JUMP JUMPDEST PUSH2 0xD49 DUP4 DUP4 DUP4 PUSH2 0x201B JUMP JUMPDEST PUSH1 0x40 DUP1 MLOAD CALLER PUSH1 0x20 DUP3 ADD MSTORE DUP1 DUP3 ADD DUP4 SWAP1 MSTORE DUP2 MLOAD DUP1 DUP3 SUB DUP4 ADD DUP2 MSTORE PUSH1 0x60 DUP3 ADD DUP4 MSTORE PUSH1 0x1 PUSH1 0xF0 SHL PUSH1 0x80 DUP4 ADD MSTORE PUSH3 0x55730 PUSH1 0x82 DUP1 DUP5 ADD DUP3 SWAP1 MSTORE DUP5 MLOAD DUP1 DUP6 SUB SWAP1 SWAP2 ADD DUP2 MSTORE PUSH1 0xA2 DUP5 ADD SWAP5 DUP6 SWAP1 MSTORE PUSH4 0x40A7BB1 PUSH1 0xE4 SHL SWAP1 SWAP5 MSTORE PUSH1 0x0 SWAP4 SWAP2 SWAP3 PUSH1 0x1 SWAP3 SWAP1 DUP6 SWAP1 PUSH32 0x0 PUSH1 0x1 PUSH1 0x1 PUSH1 0xA0 SHL SUB AND SWAP1 PUSH4 0x40A7BB10 SWAP1 PUSH2 0xF00 SWAP1 DUP12 SWAP1 ADDRESS SWAP1 DUP11 SWAP1 DUP8 SWAP1 DUP10 SWAP1 PUSH1 0xA6 ADD PUSH2 0x32A5 JUMP JUMPDEST PUSH1 0x40 DUP1 MLOAD DUP1 DUP4 SUB DUP2 DUP7 DUP1 EXTCODESIZE ISZERO DUP1 ISZERO PUSH2 0xF17 JUMPI PUSH1 0x0 DUP1 REVERT JUMPDEST POP GAS STATICCALL ISZERO DUP1 ISZERO PUSH2 0xF2B JUMPI RETURNDATASIZE PUSH1 0x0 DUP1 RETURNDATACOPY RETURNDATASIZE PUSH1 0x0 REVERT JUMPDEST POP POP POP POP PUSH1 0x40 MLOAD RETURNDATASIZE PUSH1 0x1F NOT PUSH1 0x1F DUP3 ADD AND DUP3 ADD DUP1 PUSH1 0x40 MSTORE POP DUP2 ADD SWAP1 PUSH2 0xF4F SWAP2 SWAP1 PUSH2 0x32F9 JUMP JUMPDEST POP SWAP9 SWAP8 POP POP POP POP POP POP POP POP JUMP JUMPDEST PUSH2 0xFFFF DUP4 AND PUSH1 0x0 SWAP1 DUP2 MSTORE PUSH1 0x7 PUSH1 0x20 MSTORE PUSH1 0x40 DUP2 KECCAK256 DUP1 SLOAD DUP3 SWAP2 SWAP1 PUSH2 0xF7D SWAP1 PUSH2 0x320D JUMP JUMPDEST DUP1 PUSH1 0x1F ADD PUSH1 0x20 DUP1 SWAP2 DIV MUL PUSH1 0x20 ADD PUSH1 0x40 MLOAD SWAP1 DUP2 ADD PUSH1 0x40 MSTORE DUP1 SWAP3 SWAP2 SWAP1 DUP2 DUP2 MSTORE PUSH1 0x20 ADD DUP3 DUP1 SLOAD PUSH2 0xFA9 SWAP1 PUSH2 0x320D JUMP JUMPDEST DUP1 ISZERO PUSH2 0xFF6 JUMPI DUP1 PUSH1 0x1F LT PUSH2 0xFCB JUMPI PUSH2 0x100 DUP1 DUP4 SLOAD DIV MUL DUP4 MSTORE SWAP2 PUSH1 0x20 ADD SWAP2 PUSH2 0xFF6 JUMP JUMPDEST DUP3 ADD SWAP2 SWAP1 PUSH1 0x0 MSTORE PUSH1 0x20 PUSH1 0x0 KECCAK256 SWAP1 JUMPDEST DUP2 SLOAD DUP2 MSTORE SWAP1 PUSH1 0x1 ADD SWAP1 PUSH1 0x20 ADD DUP1 DUP4 GT PUSH2 0xFD9 JUMPI DUP3 SWAP1 SUB PUSH1 0x1F AND DUP3 ADD SWAP2 JUMPDEST POP POP POP POP POP SWAP1 POP DUP4 DUP4 PUSH1 0x40 MLOAD PUSH2 0x100D SWAP3 SWAP2 SWAP1 PUSH2 0x3248 JUMP JUMPDEST PUSH1 0x40 MLOAD DUP1 SWAP2 SUB SWAP1 KECCAK256 DUP2 DUP1 MLOAD SWAP1 PUSH1 0x20 ADD KECCAK256 EQ SWAP2 POP POP SWAP4 SWAP3 POP POP POP JUMP JUMPDEST PUSH2 0xD49 DUP4 DUP4 DUP4 PUSH1 0x40 MLOAD DUP1 PUSH1 0x20 ADD PUSH1 0x40 MSTORE DUP1 PUSH1 0x0 DUP2 MSTORE POP PUSH2 0x1679 JUMP JUMPDEST PUSH2 0x104B PUSH2 0x1CEB JUMP JUMPDEST PUSH1 0x40 MLOAD PUSH4 0x42D65A8D PUSH1 0xE0 SHL DUP2 MSTORE PUSH1 0x1 PUSH1 0x1 PUSH1 0xA0 SHL SUB PUSH32 0x0 AND SWAP1 PUSH4 0x42D65A8D SWAP1 PUSH2 0x109B SWAP1 DUP7 SWAP1 DUP7 SWAP1 DUP7 SWAP1 PUSH1 0x4 ADD PUSH2 0x3346 JUMP JUMPDEST PUSH1 0x0 PUSH1 0x40 MLOAD DUP1 DUP4 SUB DUP2 PUSH1 0x0 DUP8 DUP1 EXTCODESIZE ISZERO DUP1 ISZERO PUSH2 0x10B5 JUMPI PUSH1 0x0 DUP1 REVERT JUMPDEST POP GAS CALL ISZERO DUP1 ISZERO PUSH2 0xA9B JUMPI RETURNDATASIZE PUSH1 0x0 DUP1 RETURNDATACOPY RETURNDATASIZE PUSH1 0x0 REVERT JUMPDEST PUSH1 0x0 DUP2 DUP2 MSTORE PUSH1 0x3 PUSH1 0x20 MSTORE PUSH1 0x40 DUP2 KECCAK256 SLOAD PUSH1 0x1 PUSH1 0x1 PUSH1 0xA0 SHL SUB AND DUP1 PUSH2 0xAF0 JUMPI PUSH1 0x40 MLOAD PUSH3 0x461BCD PUSH1 0xE5 SHL DUP2 MSTORE PUSH1 0x20 PUSH1 0x4 DUP3 ADD MSTORE PUSH1 0x18 PUSH1 0x24 DUP3 ADD MSTORE PUSH24 0x115490CDCC8C4E881A5B9D985B1A59081D1BDAD95B881251 PUSH1 0x42 SHL PUSH1 0x44 DUP3 ADD MSTORE PUSH1 0x64 ADD PUSH2 0x8E7 JUMP JUMPDEST CALLER ADDRESS EQ PUSH2 0x1187 JUMPI PUSH1 0x40 MLOAD PUSH3 0x461BCD PUSH1 0xE5 SHL DUP2 MSTORE PUSH1 0x20 PUSH1 0x4 DUP3 ADD MSTORE PUSH1 0x26 PUSH1 0x24 DUP3 ADD MSTORE PUSH32 0x4E6F6E626C6F636B696E674C7A4170703A2063616C6C6572206D757374206265 PUSH1 0x44 DUP3 ADD MSTORE PUSH6 0x204C7A41707 PUSH1 0xD4 SHL PUSH1 0x64 DUP3 ADD MSTORE PUSH1 0x84 ADD PUSH2 0x8E7 JUMP JUMPDEST PUSH2 0x11FD DUP7 DUP7 DUP7 DUP1 DUP1 PUSH1 0x1F ADD PUSH1 0x20 DUP1 SWAP2 DIV MUL PUSH1 0x20 ADD PUSH1 0x40 MLOAD SWAP1 DUP2 ADD PUSH1 0x40 MSTORE DUP1 SWAP4 SWAP3 SWAP2 SWAP1 DUP2 DUP2 MSTORE PUSH1 0x20 ADD DUP4 DUP4 DUP1 DUP3 DUP5 CALLDATACOPY PUSH1 0x0 SWAP3 ADD SWAP2 SWAP1 SWAP2 MSTORE POP POP PUSH1 0x40 DUP1 MLOAD PUSH1 0x20 PUSH1 0x1F DUP10 ADD DUP2 SWAP1 DIV DUP2 MUL DUP3 ADD DUP2 ADD SWAP1 SWAP3 MSTORE DUP8 DUP2 MSTORE DUP10 SWAP4 POP SWAP2 POP DUP8 SWAP1 DUP8 SWAP1 DUP2 SWAP1 DUP5 ADD DUP4 DUP3 DUP1 DUP3 DUP5 CALLDATACOPY PUSH1 0x0 SWAP3 ADD SWAP2 SWAP1 SWAP2 MSTORE POP PUSH2 0x217F SWAP3 POP POP POP JUMP JUMPDEST POP POP POP POP POP POP JUMP JUMPDEST PUSH1 0x0 PUSH1 0x1 PUSH1 0x1 PUSH1 0xA0 SHL SUB DUP3 AND PUSH2 0x126F JUMPI PUSH1 0x40 MLOAD PUSH3 0x461BCD PUSH1 0xE5 SHL DUP2 MSTORE PUSH1 0x20 PUSH1 0x4 DUP3 ADD MSTORE PUSH1 0x29 PUSH1 0x24 DUP3 ADD MSTORE PUSH32 0x4552433732313A2061646472657373207A65726F206973206E6F742061207661 PUSH1 0x44 DUP3 ADD MSTORE PUSH9 0x3634B21037BBB732B9 PUSH1 0xB9 SHL PUSH1 0x64 DUP3 ADD MSTORE PUSH1 0x84 ADD PUSH2 0x8E7 JUMP JUMPDEST POP PUSH1 0x1 PUSH1 0x1 PUSH1 0xA0 SHL SUB AND PUSH1 0x0 SWAP1 DUP2 MSTORE PUSH1 0x4 PUSH1 0x20 MSTORE PUSH1 0x40 SWAP1 KECCAK256 SLOAD SWAP1 JUMP JUMPDEST PUSH2 0x1293 PUSH2 0x1CEB JUMP JUMPDEST PUSH2 0x129D PUSH1 0x0 PUSH2 0x220A JUMP JUMPDEST JUMP JUMPDEST PUSH1 0x7 PUSH1 0x20 MSTORE PUSH1 0x0 SWAP1 DUP2 MSTORE PUSH1 0x40 SWAP1 KECCAK256 DUP1 SLOAD PUSH2 0x12B8 SWAP1 PUSH2 0x320D JUMP JUMPDEST DUP1 PUSH1 0x1F ADD PUSH1 0x20 DUP1 SWAP2 DIV MUL PUSH1 0x20 ADD PUSH1 0x40 MLOAD SWAP1 DUP2 ADD PUSH1 0x40 MSTORE DUP1 SWAP3 SWAP2 SWAP1 DUP2 DUP2 MSTORE PUSH1 0x20 ADD DUP3 DUP1 SLOAD PUSH2 0x12E4 SWAP1 PUSH2 0x320D JUMP JUMPDEST DUP1 ISZERO PUSH2 0x1331 JUMPI DUP1 PUSH1 0x1F LT PUSH2 0x1306 JUMPI PUSH2 0x100 DUP1 DUP4 SLOAD DIV MUL DUP4 MSTORE SWAP2 PUSH1 0x20 ADD SWAP2 PUSH2 0x1331 JUMP JUMPDEST DUP3 ADD SWAP2 SWAP1 PUSH1 0x0 MSTORE PUSH1 0x20 PUSH1 0x0 KECCAK256 SWAP1 JUMPDEST DUP2 SLOAD DUP2 MSTORE SWAP1 PUSH1 0x1 ADD SWAP1 PUSH1 0x20 ADD DUP1 DUP4 GT PUSH2 0x1314 JUMPI DUP3 SWAP1 SUB PUSH1 0x1F AND DUP3 ADD SWAP2 JUMPDEST POP POP POP POP POP DUP2 JUMP JUMPDEST PUSH2 0x1342 DUP3 PUSH2 0x10C9 JUMP JUMPDEST PUSH1 0x1 PUSH1 0x1 PUSH1 0xA0 SHL SUB AND CALLER PUSH1 0x1 PUSH1 0x1 PUSH1 0xA0 SHL SUB AND EQ PUSH2 0x1373 JUMPI PUSH1 0x40 MLOAD PUSH4 0x59DC379F PUSH1 0xE0 SHL DUP2 MSTORE PUSH1 0x4 ADD PUSH1 0x40 MLOAD DUP1 SWAP2 SUB SWAP1 REVERT JUMPDEST PUSH1 0xC DUP1 SLOAD PUSH1 0x0 NOT ADD SWAP1 SSTORE PUSH2 0x1386 DUP3 PUSH2 0x225A JUMP JUMPDEST PUSH1 0x40 DUP1 MLOAD CALLER PUSH1 0x20 DUP3 ADD MSTORE DUP1 DUP3 ADD DUP5 SWAP1 MSTORE DUP2 MLOAD DUP1 DUP3 SUB DUP4 ADD DUP2 MSTORE PUSH1 0x60 DUP3 ADD DUP4 MSTORE PUSH1 0x1 PUSH1 0xF0 SHL PUSH1 0x80 DUP4 ADD MSTORE PUSH3 0x55730 PUSH1 0x82 DUP1 DUP5 ADD DUP3 SWAP1 MSTORE DUP5 MLOAD DUP1 DUP6 SUB SWAP1 SWAP2 ADD DUP2 MSTORE PUSH1 0xA2 DUP5 ADD SWAP5 DUP6 SWAP1 MSTORE PUSH4 0x40A7BB1 PUSH1 0xE4 SHL SWAP1 SWAP5 MSTORE SWAP1 SWAP3 PUSH1 0x1 SWAP3 PUSH1 0x0 SWAP1 PUSH32 0x0 PUSH1 0x1 PUSH1 0x1 PUSH1 0xA0 SHL SUB AND SWAP1 PUSH4 0x40A7BB10 SWAP1 PUSH2 0x1427 SWAP1 DUP12 SWAP1 ADDRESS SWAP1 DUP11 SWAP1 DUP8 SWAP1 DUP10 SWAP1 PUSH1 0xA6 ADD PUSH2 0x32A5 JUMP JUMPDEST PUSH1 0x40 DUP1 MLOAD DUP1 DUP4 SUB DUP2 DUP7 DUP1 EXTCODESIZE ISZERO DUP1 ISZERO PUSH2 0x143E JUMPI PUSH1 0x0 DUP1 REVERT JUMPDEST POP GAS STATICCALL ISZERO DUP1 ISZERO PUSH2 0x1452 JUMPI RETURNDATASIZE PUSH1 0x0 DUP1 RETURNDATACOPY RETURNDATASIZE PUSH1 0x0 REVERT JUMPDEST POP POP POP POP PUSH1 0x40 MLOAD RETURNDATASIZE PUSH1 0x1F NOT PUSH1 0x1F DUP3 ADD AND DUP3 ADD DUP1 PUSH1 0x40 MSTORE POP DUP2 ADD SWAP1 PUSH2 0x1476 SWAP2 SWAP1 PUSH2 0x32F9 JUMP JUMPDEST POP SWAP1 POP DUP1 CALLVALUE GT PUSH2 0x1499 JUMPI PUSH1 0x40 MLOAD PUSH4 0x7099C53 PUSH1 0xE2 SHL DUP2 MSTORE PUSH1 0x4 ADD PUSH1 0x40 MLOAD DUP1 SWAP2 SUB SWAP1 REVERT JUMPDEST PUSH2 0x14A7 DUP9 DUP7 CALLER DUP10 DUP7 CALLVALUE PUSH2 0x22EF JUMP JUMPDEST POP POP POP POP POP POP POP POP JUMP JUMPDEST PUSH1 0x60 PUSH1 0x2 DUP1 SLOAD PUSH2 0xB05 SWAP1 PUSH2 0x320D JUMP JUMPDEST PUSH2 0xFFFF DUP2 AND PUSH1 0x0 SWAP1 DUP2 MSTORE PUSH1 0x7 PUSH1 0x20 MSTORE PUSH1 0x40 DUP2 KECCAK256 DUP1 SLOAD PUSH1 0x60 SWAP3 SWAP2 SWAP1 PUSH2 0x14E3 SWAP1 PUSH2 0x320D JUMP JUMPDEST DUP1 PUSH1 0x1F ADD PUSH1 0x20 DUP1 SWAP2 DIV MUL PUSH1 0x20 ADD PUSH1 0x40 MLOAD SWAP1 DUP2 ADD PUSH1 0x40 MSTORE DUP1 SWAP3 SWAP2 SWAP1 DUP2 DUP2 MSTORE PUSH1 0x20 ADD DUP3 DUP1 SLOAD PUSH2 0x150F SWAP1 PUSH2 0x320D JUMP JUMPDEST DUP1 ISZERO PUSH2 0x155C JUMPI DUP1 PUSH1 0x1F LT PUSH2 0x1531 JUMPI PUSH2 0x100 DUP1 DUP4 SLOAD DIV MUL DUP4 MSTORE SWAP2 PUSH1 0x20 ADD SWAP2 PUSH2 0x155C JUMP JUMPDEST DUP3 ADD SWAP2 SWAP1 PUSH1 0x0 MSTORE PUSH1 0x20 PUSH1 0x0 KECCAK256 SWAP1 JUMPDEST DUP2 SLOAD DUP2 MSTORE SWAP1 PUSH1 0x1 ADD SWAP1 PUSH1 0x20 ADD DUP1 DUP4 GT PUSH2 0x153F JUMPI DUP3 SWAP1 SUB PUSH1 0x1F AND DUP3 ADD SWAP2 JUMPDEST POP POP POP POP POP SWAP1 POP DUP1 MLOAD PUSH1 0x0 EQ ISZERO PUSH2 0x15B5 JUMPI PUSH1 0x40 MLOAD PUSH3 0x461BCD PUSH1 0xE5 SHL DUP2 MSTORE PUSH1 0x20 PUSH1 0x4 DUP3 ADD MSTORE PUSH1 0x1D PUSH1 0x24 DUP3 ADD MSTORE PUSH32 0x4C7A4170703A206E6F20747275737465642070617468207265636F7264000000 PUSH1 0x44 DUP3 ADD MSTORE PUSH1 0x64 ADD PUSH2 0x8E7 JUMP JUMPDEST PUSH2 0x15D0 PUSH1 0x0 PUSH1 0x14 DUP4 MLOAD PUSH2 0x15C8 SWAP2 SWAP1 PUSH2 0x337A JUMP JUMPDEST DUP4 SWAP2 SWAP1 PUSH2 0x2495 JUMP JUMPDEST SWAP4 SWAP3 POP POP POP JUMP JUMPDEST PUSH2 0x15E2 CALLER DUP4 DUP4 PUSH2 0x25A2 JUMP JUMPDEST POP POP JUMP JUMPDEST PUSH2 0x15EE PUSH2 0x1CEB JUMP JUMPDEST DUP2 DUP2 ADDRESS PUSH1 0x40 MLOAD PUSH1 0x20 ADD PUSH2 0x1603 SWAP4 SWAP3 SWAP2 SWAP1 PUSH2 0x3391 JUMP JUMPDEST PUSH1 0x40 DUP1 MLOAD PUSH1 0x1F NOT DUP2 DUP5 SUB ADD DUP2 MSTORE SWAP2 DUP2 MSTORE PUSH2 0xFFFF DUP6 AND PUSH1 0x0 SWAP1 DUP2 MSTORE PUSH1 0x7 PUSH1 0x20 SWAP1 DUP2 MSTORE SWAP2 SWAP1 KECCAK256 DUP3 MLOAD PUSH2 0x1638 SWAP4 SWAP2 SWAP3 SWAP1 SWAP2 ADD SWAP1 PUSH2 0x2AB7 JUMP JUMPDEST POP PUSH32 0x8C0400CFE2D1199B1A725C78960BCC2A344D869B80590D0F2BD005DB15A572CE DUP4 DUP4 DUP4 PUSH1 0x40 MLOAD PUSH2 0x166C SWAP4 SWAP3 SWAP2 SWAP1 PUSH2 0x3346 JUMP JUMPDEST PUSH1 0x40 MLOAD DUP1 SWAP2 SUB SWAP1 LOG1 POP POP POP JUMP JUMPDEST PUSH2 0x1683 CALLER DUP4 PUSH2 0x1F9D JUMP JUMPDEST PUSH2 0x169F JUMPI PUSH1 0x40 MLOAD PUSH3 0x461BCD PUSH1 0xE5 SHL DUP2 MSTORE PUSH1 0x4 ADD PUSH2 0x8E7 SWAP1 PUSH2 0x3258 JUMP JUMPDEST PUSH2 0x16AB DUP5 DUP5 DUP5 DUP5 PUSH2 0x2671 JUMP JUMPDEST POP POP POP POP JUMP JUMPDEST PUSH2 0x16B9 PUSH2 0x1CEB JUMP JUMPDEST PUSH1 0xA DUP1 SLOAD PUSH1 0x1 PUSH1 0x1 PUSH1 0xA0 SHL SUB NOT AND PUSH1 0x1 PUSH1 0x1 PUSH1 0xA0 SHL SUB DUP4 AND SWAP1 DUP2 OR SWAP1 SWAP2 SSTORE PUSH1 0x40 MLOAD SWAP1 DUP2 MSTORE PUSH32 0x5DB758E995A17EC1AD84BDEF7E8C3293A0BD6179BCCE400DFF5D4C3D87DB726B SWAP1 PUSH1 0x20 ADD PUSH1 0x40 MLOAD DUP1 SWAP2 SUB SWAP1 LOG1 POP JUMP JUMPDEST PUSH1 0x60 PUSH2 0x1718 DUP3 PUSH2 0x1D45 JUMP JUMPDEST PUSH1 0x0 PUSH2 0x172F PUSH1 0x40 DUP1 MLOAD PUSH1 0x20 DUP2 ADD SWAP1 SWAP2 MSTORE PUSH1 0x0 DUP2 MSTORE SWAP1 JUMP JUMPDEST SWAP1 POP PUSH1 0x0 DUP2 MLOAD GT PUSH2 0x174F JUMPI PUSH1 0x40 MLOAD DUP1 PUSH1 0x20 ADD PUSH1 0x40 MSTORE DUP1 PUSH1 0x0 DUP2 MSTORE POP PUSH2 0x15D0 JUMP JUMPDEST DUP1 PUSH2 0x1759 DUP5 PUSH2 0x26A4 JUMP JUMPDEST PUSH1 0x40 MLOAD PUSH1 0x20 ADD PUSH2 0x176A SWAP3 SWAP2 SWAP1 PUSH2 0x33B7 JUMP JUMPDEST PUSH1 0x40 MLOAD PUSH1 0x20 DUP2 DUP4 SUB SUB DUP2 MSTORE SWAP1 PUSH1 0x40 MSTORE SWAP4 SWAP3 POP POP POP JUMP JUMPDEST PUSH2 0x1788 PUSH2 0x1CEB JUMP JUMPDEST PUSH1 0x40 MLOAD PUSH4 0x32FB62E7 PUSH1 0xE2 SHL DUP2 MSTORE PUSH1 0x1 PUSH1 0x1 PUSH1 0xA0 SHL SUB PUSH32 0x0 AND SWAP1 PUSH4 0xCBED8B9C SWAP1 PUSH2 0x17DC SWAP1 DUP9 SWAP1 DUP9 SWAP1 DUP9 SWAP1 DUP9 SWAP1 DUP9 SWAP1 PUSH1 0x4 ADD PUSH2 0x33E6 JUMP JUMPDEST PUSH1 0x0 PUSH1 0x40 MLOAD DUP1 DUP4 SUB DUP2 PUSH1 0x0 DUP8 DUP1 EXTCODESIZE ISZERO DUP1 ISZERO PUSH2 0x17F6 JUMPI PUSH1 0x0 DUP1 REVERT JUMPDEST POP GAS CALL ISZERO DUP1 ISZERO PUSH2 0x180A JUMPI RETURNDATASIZE PUSH1 0x0 DUP1 RETURNDATACOPY RETURNDATASIZE PUSH1 0x0 REVERT JUMPDEST POP POP POP POP POP POP POP POP POP JUMP JUMPDEST PUSH2 0xFFFF DUP7 AND PUSH1 0x0 SWAP1 DUP2 MSTORE PUSH1 0xB PUSH1 0x20 MSTORE PUSH1 0x40 DUP1 DUP3 KECCAK256 SWAP1 MLOAD PUSH2 0x1838 SWAP1 DUP9 SWAP1 DUP9 SWAP1 PUSH2 0x3248 JUMP JUMPDEST SWAP1 DUP2 MSTORE PUSH1 0x40 DUP1 MLOAD PUSH1 0x20 SWAP3 DUP2 SWAP1 SUB DUP4 ADD SWAP1 KECCAK256 PUSH1 0x1 PUSH1 0x1 PUSH1 0x40 SHL SUB DUP8 AND PUSH1 0x0 SWAP1 DUP2 MSTORE SWAP3 MSTORE SWAP1 KECCAK256 SLOAD SWAP1 POP DUP1 PUSH2 0x18B8 JUMPI PUSH1 0x40 MLOAD PUSH3 0x461BCD PUSH1 0xE5 SHL DUP2 MSTORE PUSH1 0x20 PUSH1 0x4 DUP3 ADD MSTORE PUSH1 0x23 PUSH1 0x24 DUP3 ADD MSTORE PUSH32 0x4E6F6E626C6F636B696E674C7A4170703A206E6F2073746F726564206D657373 PUSH1 0x44 DUP3 ADD MSTORE PUSH3 0x616765 PUSH1 0xE8 SHL PUSH1 0x64 DUP3 ADD MSTORE PUSH1 0x84 ADD PUSH2 0x8E7 JUMP JUMPDEST DUP1 DUP4 DUP4 PUSH1 0x40 MLOAD PUSH2 0x18C9 SWAP3 SWAP2 SWAP1 PUSH2 0x3248 JUMP JUMPDEST PUSH1 0x40 MLOAD DUP1 SWAP2 SUB SWAP1 KECCAK256 EQ PUSH2 0x1928 JUMPI PUSH1 0x40 MLOAD PUSH3 0x461BCD PUSH1 0xE5 SHL DUP2 MSTORE PUSH1 0x20 PUSH1 0x4 DUP3 ADD MSTORE PUSH1 0x21 PUSH1 0x24 DUP3 ADD MSTORE PUSH32 0x4E6F6E626C6F636B696E674C7A4170703A20696E76616C6964207061796C6F61 PUSH1 0x44 DUP3 ADD MSTORE PUSH1 0x19 PUSH1 0xFA SHL PUSH1 0x64 DUP3 ADD MSTORE PUSH1 0x84 ADD PUSH2 0x8E7 JUMP JUMPDEST PUSH2 0xFFFF DUP8 AND PUSH1 0x0 SWAP1 DUP2 MSTORE PUSH1 0xB PUSH1 0x20 MSTORE PUSH1 0x40 DUP1 DUP3 KECCAK256 SWAP1 MLOAD PUSH2 0x194B SWAP1 DUP10 SWAP1 DUP10 SWAP1 PUSH2 0x3248 JUMP JUMPDEST SWAP1 DUP2 MSTORE PUSH1 0x40 DUP1 MLOAD PUSH1 0x20 SWAP3 DUP2 SWAP1 SUB DUP4 ADD DUP2 KECCAK256 PUSH1 0x1 PUSH1 0x1 PUSH1 0x40 SHL SUB DUP10 AND PUSH1 0x0 SWAP1 DUP2 MSTORE SWAP1 DUP5 MSTORE DUP3 SWAP1 KECCAK256 SWAP4 SWAP1 SWAP4 SSTORE PUSH1 0x1F DUP9 ADD DUP3 SWAP1 DIV DUP3 MUL DUP4 ADD DUP3 ADD SWAP1 MSTORE DUP7 DUP3 MSTORE PUSH2 0x19E3 SWAP2 DUP10 SWAP2 DUP10 SWAP1 DUP10 SWAP1 DUP2 SWAP1 DUP5 ADD DUP4 DUP3 DUP1 DUP3 DUP5 CALLDATACOPY PUSH1 0x0 SWAP3 ADD SWAP2 SWAP1 SWAP2 MSTORE POP POP PUSH1 0x40 DUP1 MLOAD PUSH1 0x20 PUSH1 0x1F DUP11 ADD DUP2 SWAP1 DIV DUP2 MUL DUP3 ADD DUP2 ADD SWAP1 SWAP3 MSTORE DUP9 DUP2 MSTORE DUP11 SWAP4 POP SWAP2 POP DUP9 SWAP1 DUP9 SWAP1 DUP2 SWAP1 DUP5 ADD DUP4 DUP3 DUP1 DUP3 DUP5 CALLDATACOPY PUSH1 0x0 SWAP3 ADD SWAP2 SWAP1 SWAP2 MSTORE POP PUSH2 0x217F SWAP3 POP POP POP JUMP JUMPDEST PUSH32 0xC264D91F3ADC5588250E1551F547752CA0CFA8F6B530D243B9F9F4CAB10EA8E5 DUP8 DUP8 DUP8 DUP8 DUP6 PUSH1 0x40 MLOAD PUSH2 0x1A1A SWAP6 SWAP5 SWAP4 SWAP3 SWAP2 SWAP1 PUSH2 0x341F JUMP JUMPDEST PUSH1 0x40 MLOAD DUP1 SWAP2 SUB SWAP1 LOG1 POP POP POP POP POP POP POP JUMP JUMPDEST PUSH2 0x1A33 PUSH2 0x1CEB JUMP JUMPDEST PUSH1 0x0 DUP2 GT PUSH2 0x1A7B JUMPI PUSH1 0x40 MLOAD PUSH3 0x461BCD PUSH1 0xE5 SHL DUP2 MSTORE PUSH1 0x20 PUSH1 0x4 DUP3 ADD MSTORE PUSH1 0x15 PUSH1 0x24 DUP3 ADD MSTORE PUSH21 0x4C7A4170703A20696E76616C6964206D696E476173 PUSH1 0x58 SHL PUSH1 0x44 DUP3 ADD MSTORE PUSH1 0x64 ADD PUSH2 0x8E7 JUMP JUMPDEST PUSH2 0xFFFF DUP4 DUP2 AND PUSH1 0x0 DUP2 DUP2 MSTORE PUSH1 0x8 PUSH1 0x20 SWAP1 DUP2 MSTORE PUSH1 0x40 DUP1 DUP4 KECCAK256 SWAP5 DUP8 AND DUP1 DUP5 MSTORE SWAP5 DUP3 MSTORE SWAP2 DUP3 SWAP1 KECCAK256 DUP6 SWAP1 SSTORE DUP2 MLOAD SWAP3 DUP4 MSTORE DUP3 ADD SWAP3 SWAP1 SWAP3 MSTORE SWAP1 DUP2 ADD DUP3 SWAP1 MSTORE PUSH32 0x9D5C7C0B934DA8FEFA9C7760C98383778A12DFBFC0C3B3106518F43FB9508AC0 SWAP1 PUSH1 0x60 ADD PUSH2 0x166C JUMP JUMPDEST PUSH2 0x1AE5 PUSH2 0x1CEB JUMP JUMPDEST PUSH2 0xFFFF DUP4 AND PUSH1 0x0 SWAP1 DUP2 MSTORE PUSH1 0x7 PUSH1 0x20 MSTORE PUSH1 0x40 SWAP1 KECCAK256 PUSH2 0x1B03 SWAP1 DUP4 DUP4 PUSH2 0x2B3B JUMP JUMPDEST POP PUSH32 0xFA41487AD5D6728F0B19276FA1EDDC16558578F5109FC39D2DC33C3230470DAB DUP4 DUP4 DUP4 PUSH1 0x40 MLOAD PUSH2 0x166C SWAP4 SWAP3 SWAP2 SWAP1 PUSH2 0x3346 JUMP JUMPDEST PUSH2 0x1B3F PUSH2 0x1CEB JUMP JUMPDEST PUSH1 0x1 PUSH1 0x1 PUSH1 0xA0 SHL SUB DUP2 AND PUSH2 0x1BA4 JUMPI PUSH1 0x40 MLOAD PUSH3 0x461BCD PUSH1 0xE5 SHL DUP2 MSTORE PUSH1 0x20 PUSH1 0x4 DUP3 ADD MSTORE PUSH1 0x26 PUSH1 0x24 DUP3 ADD MSTORE PUSH32 0x4F776E61626C653A206E6577206F776E657220697320746865207A65726F2061 PUSH1 0x44 DUP3 ADD MSTORE PUSH6 0x646472657373 PUSH1 0xD0 SHL PUSH1 0x64 DUP3 ADD MSTORE PUSH1 0x84 ADD PUSH2 0x8E7 JUMP JUMPDEST PUSH2 0x1BAD DUP2 PUSH2 0x220A JUMP JUMPDEST POP JUMP JUMPDEST PUSH1 0x40 MLOAD PUSH4 0x3D7B2F6F PUSH1 0xE2 SHL DUP2 MSTORE PUSH2 0xFFFF DUP1 DUP7 AND PUSH1 0x4 DUP4 ADD MSTORE DUP5 AND PUSH1 0x24 DUP3 ADD MSTORE ADDRESS PUSH1 0x44 DUP3 ADD MSTORE PUSH1 0x64 DUP2 ADD DUP3 SWAP1 MSTORE PUSH1 0x60 SWAP1 PUSH32 0x0 PUSH1 0x1 PUSH1 0x1 PUSH1 0xA0 SHL SUB AND SWAP1 PUSH4 0xF5ECBDBC SWAP1 PUSH1 0x84 ADD PUSH1 0x0 PUSH1 0x40 MLOAD DUP1 DUP4 SUB DUP2 DUP7 DUP1 EXTCODESIZE ISZERO DUP1 ISZERO PUSH2 0x1C2B JUMPI PUSH1 0x0 DUP1 REVERT JUMPDEST POP GAS STATICCALL ISZERO DUP1 ISZERO PUSH2 0x1C3F JUMPI RETURNDATASIZE PUSH1 0x0 DUP1 RETURNDATACOPY RETURNDATASIZE PUSH1 0x0 REVERT JUMPDEST POP POP POP POP PUSH1 0x40 MLOAD RETURNDATASIZE PUSH1 0x0 DUP3 RETURNDATACOPY PUSH1 0x1F RETURNDATASIZE SWAP1 DUP2 ADD PUSH1 0x1F NOT AND DUP3 ADD PUSH1 0x40 MSTORE PUSH2 0x1C67 SWAP2 SWAP1 DUP2 ADD SWAP1 PUSH2 0x345A JUMP JUMPDEST SWAP1 POP JUMPDEST SWAP5 SWAP4 POP POP POP POP JUMP JUMPDEST PUSH1 0x0 DUP1 PUSH2 0x1CD5 GAS PUSH1 0x96 PUSH4 0x66AD5C8A PUSH1 0xE0 SHL DUP10 DUP10 DUP10 DUP10 PUSH1 0x40 MLOAD PUSH1 0x24 ADD PUSH2 0x1C9A SWAP5 SWAP4 SWAP3 SWAP2 SWAP1 PUSH2 0x34D0 JUMP JUMPDEST PUSH1 0x40 DUP1 MLOAD PUSH1 0x1F NOT DUP2 DUP5 SUB ADD DUP2 MSTORE SWAP2 SWAP1 MSTORE PUSH1 0x20 DUP2 ADD DUP1 MLOAD PUSH1 0x1 PUSH1 0x1 PUSH1 0xE0 SHL SUB AND PUSH1 0x1 PUSH1 0x1 PUSH1 0xE0 SHL SUB NOT SWAP1 SWAP4 AND SWAP3 SWAP1 SWAP3 OR SWAP1 SWAP2 MSTORE ADDRESS SWAP3 SWAP2 SWAP1 PUSH2 0x2740 JUMP JUMPDEST SWAP2 POP SWAP2 POP DUP2 PUSH2 0x11FD JUMPI PUSH2 0x11FD DUP7 DUP7 DUP7 DUP7 DUP6 PUSH2 0x27CA JUMP JUMPDEST PUSH1 0x0 SLOAD PUSH1 0x1 PUSH1 0x1 PUSH1 0xA0 SHL SUB AND CALLER EQ PUSH2 0x129D JUMPI PUSH1 0x40 MLOAD PUSH3 0x461BCD PUSH1 0xE5 SHL DUP2 MSTORE PUSH1 0x20 PUSH1 0x4 DUP3 ADD DUP2 SWAP1 MSTORE PUSH1 0x24 DUP3 ADD MSTORE PUSH32 0x4F776E61626C653A2063616C6C6572206973206E6F7420746865206F776E6572 PUSH1 0x44 DUP3 ADD MSTORE PUSH1 0x64 ADD PUSH2 0x8E7 JUMP JUMPDEST PUSH1 0x0 DUP2 DUP2 MSTORE PUSH1 0x3 PUSH1 0x20 MSTORE PUSH1 0x40 SWAP1 KECCAK256 SLOAD PUSH1 0x1 PUSH1 0x1 PUSH1 0xA0 SHL SUB AND PUSH2 0x1BAD JUMPI PUSH1 0x40 MLOAD PUSH3 0x461BCD PUSH1 0xE5 SHL DUP2 MSTORE PUSH1 0x20 PUSH1 0x4 DUP3 ADD MSTORE PUSH1 0x18 PUSH1 0x24 DUP3 ADD MSTORE PUSH24 0x115490CDCC8C4E881A5B9D985B1A59081D1BDAD95B881251 PUSH1 0x42 SHL PUSH1 0x44 DUP3 ADD MSTORE PUSH1 0x64 ADD PUSH2 0x8E7 JUMP JUMPDEST PUSH1 0x0 DUP2 DUP2 MSTORE PUSH1 0x5 PUSH1 0x20 MSTORE PUSH1 0x40 SWAP1 KECCAK256 DUP1 SLOAD PUSH1 0x1 PUSH1 0x1 PUSH1 0xA0 SHL SUB NOT AND PUSH1 0x1 PUSH1 0x1 PUSH1 0xA0 SHL SUB DUP5 AND SWAP1 DUP2 OR SWAP1 SWAP2 SSTORE DUP2 SWAP1 PUSH2 0x1DD9 DUP3 PUSH2 0x10C9 JUMP JUMPDEST PUSH1 0x1 PUSH1 0x1 PUSH1 0xA0 SHL SUB AND PUSH32 0x8C5BE1E5EBEC7D5BD14F71427D1E84F3DD0314C0F7B2291E5B200AC8C7C3B925 PUSH1 0x40 MLOAD PUSH1 0x40 MLOAD DUP1 SWAP2 SUB SWAP1 LOG4 POP POP JUMP JUMPDEST PUSH1 0x1 PUSH1 0x1 PUSH1 0xA0 SHL SUB DUP3 AND PUSH2 0x1E68 JUMPI PUSH1 0x40 MLOAD PUSH3 0x461BCD PUSH1 0xE5 SHL DUP2 MSTORE PUSH1 0x20 PUSH1 0x4 DUP3 ADD DUP2 SWAP1 MSTORE PUSH1 0x24 DUP3 ADD MSTORE PUSH32 0x4552433732313A206D696E7420746F20746865207A65726F2061646472657373 PUSH1 0x44 DUP3 ADD MSTORE PUSH1 0x64 ADD PUSH2 0x8E7 JUMP JUMPDEST PUSH1 0x0 DUP2 DUP2 MSTORE PUSH1 0x3 PUSH1 0x20 MSTORE PUSH1 0x40 SWAP1 KECCAK256 SLOAD PUSH1 0x1 PUSH1 0x1 PUSH1 0xA0 SHL SUB AND ISZERO PUSH2 0x1ECD JUMPI PUSH1 0x40 MLOAD PUSH3 0x461BCD PUSH1 0xE5 SHL DUP2 MSTORE PUSH1 0x20 PUSH1 0x4 DUP3 ADD MSTORE PUSH1 0x1C PUSH1 0x24 DUP3 ADD MSTORE PUSH32 0x4552433732313A20746F6B656E20616C7265616479206D696E74656400000000 PUSH1 0x44 DUP3 ADD MSTORE PUSH1 0x64 ADD PUSH2 0x8E7 JUMP JUMPDEST PUSH1 0x0 DUP2 DUP2 MSTORE PUSH1 0x3 PUSH1 0x20 MSTORE PUSH1 0x40 SWAP1 KECCAK256 SLOAD PUSH1 0x1 PUSH1 0x1 PUSH1 0xA0 SHL SUB AND ISZERO PUSH2 0x1F32 JUMPI PUSH1 0x40 MLOAD PUSH3 0x461BCD PUSH1 0xE5 SHL DUP2 MSTORE PUSH1 0x20 PUSH1 0x4 DUP3 ADD MSTORE PUSH1 0x1C PUSH1 0x24 DUP3 ADD MSTORE PUSH32 0x4552433732313A20746F6B656E20616C7265616479206D696E74656400000000 PUSH1 0x44 DUP3 ADD MSTORE PUSH1 0x64 ADD PUSH2 0x8E7 JUMP JUMPDEST PUSH1 0x1 PUSH1 0x1 PUSH1 0xA0 SHL SUB DUP3 AND PUSH1 0x0 DUP2 DUP2 MSTORE PUSH1 0x4 PUSH1 0x20 SWAP1 DUP2 MSTORE PUSH1 0x40 DUP1 DUP4 KECCAK256 DUP1 SLOAD PUSH1 0x1 ADD SWAP1 SSTORE DUP5 DUP4 MSTORE PUSH1 0x3 SWAP1 SWAP2 MSTORE DUP1 DUP3 KECCAK256 DUP1 SLOAD PUSH1 0x1 PUSH1 0x1 PUSH1 0xA0 SHL SUB NOT AND DUP5 OR SWAP1 SSTORE MLOAD DUP4 SWAP3 SWAP2 SWAP1 PUSH32 0xDDF252AD1BE2C89B69C2B068FC378DAA952BA7F163C4A11628F55A4DF523B3EF SWAP1 DUP3 SWAP1 LOG4 POP POP JUMP JUMPDEST PUSH1 0x0 DUP1 PUSH2 0x1FA9 DUP4 PUSH2 0x10C9 JUMP JUMPDEST SWAP1 POP DUP1 PUSH1 0x1 PUSH1 0x1 PUSH1 0xA0 SHL SUB AND DUP5 PUSH1 0x1 PUSH1 0x1 PUSH1 0xA0 SHL SUB AND EQ DUP1 PUSH2 0x1FF0 JUMPI POP PUSH1 0x1 PUSH1 0x1 PUSH1 0xA0 SHL SUB DUP1 DUP3 AND PUSH1 0x0 SWAP1 DUP2 MSTORE PUSH1 0x6 PUSH1 0x20 SWAP1 DUP2 MSTORE PUSH1 0x40 DUP1 DUP4 KECCAK256 SWAP4 DUP9 AND DUP4 MSTORE SWAP3 SWAP1 MSTORE KECCAK256 SLOAD PUSH1 0xFF AND JUMPDEST DUP1 PUSH2 0x1C6A JUMPI POP DUP4 PUSH1 0x1 PUSH1 0x1 PUSH1 0xA0 SHL SUB AND PUSH2 0x2009 DUP5 PUSH2 0xC11 JUMP JUMPDEST PUSH1 0x1 PUSH1 0x1 PUSH1 0xA0 SHL SUB AND EQ SWAP5 SWAP4 POP POP POP POP JUMP JUMPDEST DUP3 PUSH1 0x1 PUSH1 0x1 PUSH1 0xA0 SHL SUB AND PUSH2 0x202E DUP3 PUSH2 0x10C9 JUMP JUMPDEST PUSH1 0x1 PUSH1 0x1 PUSH1 0xA0 SHL SUB AND EQ PUSH2 0x2054 JUMPI PUSH1 0x40 MLOAD PUSH3 0x461BCD PUSH1 0xE5 SHL DUP2 MSTORE PUSH1 0x4 ADD PUSH2 0x8E7 SWAP1 PUSH2 0x350E JUMP JUMPDEST PUSH1 0x1 PUSH1 0x1 PUSH1 0xA0 SHL SUB DUP3 AND PUSH2 0x20B6 JUMPI PUSH1 0x40 MLOAD PUSH3 0x461BCD PUSH1 0xE5 SHL DUP2 MSTORE PUSH1 0x20 PUSH1 0x4 DUP3 ADD MSTORE PUSH1 0x24 DUP1 DUP3 ADD MSTORE PUSH32 0x4552433732313A207472616E7366657220746F20746865207A65726F20616464 PUSH1 0x44 DUP3 ADD MSTORE PUSH4 0x72657373 PUSH1 0xE0 SHL PUSH1 0x64 DUP3 ADD MSTORE PUSH1 0x84 ADD PUSH2 0x8E7 JUMP JUMPDEST DUP3 PUSH1 0x1 PUSH1 0x1 PUSH1 0xA0 SHL SUB AND PUSH2 0x20C9 DUP3 PUSH2 0x10C9 JUMP JUMPDEST PUSH1 0x1 PUSH1 0x1 PUSH1 0xA0 SHL SUB AND EQ PUSH2 0x20EF JUMPI PUSH1 0x40 MLOAD PUSH3 0x461BCD PUSH1 0xE5 SHL DUP2 MSTORE PUSH1 0x4 ADD PUSH2 0x8E7 SWAP1 PUSH2 0x350E JUMP JUMPDEST PUSH1 0x0 DUP2 DUP2 MSTORE PUSH1 0x5 PUSH1 0x20 SWAP1 DUP2 MSTORE PUSH1 0x40 DUP1 DUP4 KECCAK256 DUP1 SLOAD PUSH1 0x1 PUSH1 0x1 PUSH1 0xA0 SHL SUB NOT SWAP1 DUP2 AND SWAP1 SWAP2 SSTORE PUSH1 0x1 PUSH1 0x1 PUSH1 0xA0 SHL SUB DUP8 DUP2 AND DUP1 DUP7 MSTORE PUSH1 0x4 DUP6 MSTORE DUP4 DUP7 KECCAK256 DUP1 SLOAD PUSH1 0x0 NOT ADD SWAP1 SSTORE SWAP1 DUP8 AND DUP1 DUP7 MSTORE DUP4 DUP7 KECCAK256 DUP1 SLOAD PUSH1 0x1 ADD SWAP1 SSTORE DUP7 DUP7 MSTORE PUSH1 0x3 SWAP1 SWAP5 MSTORE DUP3 DUP6 KECCAK256 DUP1 SLOAD SWAP1 SWAP3 AND DUP5 OR SWAP1 SWAP2 SSTORE SWAP1 MLOAD DUP5 SWAP4 PUSH32 0xDDF252AD1BE2C89B69C2B068FC378DAA952BA7F163C4A11628F55A4DF523B3EF SWAP2 LOG4 POP POP POP JUMP JUMPDEST PUSH1 0x0 PUSH1 0x14 DUP5 ADD MLOAD SWAP1 POP PUSH1 0x0 DUP1 DUP4 DUP1 PUSH1 0x20 ADD SWAP1 MLOAD DUP2 ADD SWAP1 PUSH2 0x219F SWAP2 SWAP1 PUSH2 0x3553 JUMP JUMPDEST SWAP2 POP SWAP2 POP PUSH2 0x21AD DUP3 DUP3 PUSH2 0x1E12 JUMP JUMPDEST PUSH1 0xC DUP1 SLOAD PUSH1 0x1 ADD SWAP1 DUP2 SWAP1 SSTORE PUSH1 0x40 DUP1 MLOAD PUSH2 0xFFFF DUP11 AND DUP2 MSTORE PUSH1 0x1 PUSH1 0x1 PUSH1 0xA0 SHL SUB DUP7 AND PUSH1 0x20 DUP3 ADD MSTORE SWAP1 DUP2 ADD DUP4 SWAP1 MSTORE PUSH1 0x60 DUP2 ADD SWAP2 SWAP1 SWAP2 MSTORE PUSH32 0x31AE2BB20187B24B2039DEF7711F43F56311EC96DE17B7EF01D1B1DA40EB2EEE SWAP1 PUSH1 0x80 ADD PUSH2 0x1A1A JUMP JUMPDEST PUSH1 0x0 DUP1 SLOAD PUSH1 0x1 PUSH1 0x1 PUSH1 0xA0 SHL SUB DUP4 DUP2 AND PUSH1 0x1 PUSH1 0x1 PUSH1 0xA0 SHL SUB NOT DUP4 AND DUP2 OR DUP5 SSTORE PUSH1 0x40 MLOAD SWAP2 SWAP1 SWAP3 AND SWAP3 DUP4 SWAP2 PUSH32 0x8BE0079C531659141344CD1FD0A4F28419497F9722A3DAAFE3B4186F6B6457E0 SWAP2 SWAP1 LOG3 POP POP JUMP JUMPDEST PUSH1 0x0 PUSH2 0x2265 DUP3 PUSH2 0x10C9 JUMP JUMPDEST SWAP1 POP PUSH2 0x2270 DUP3 PUSH2 0x10C9 JUMP JUMPDEST PUSH1 0x0 DUP4 DUP2 MSTORE PUSH1 0x5 PUSH1 0x20 SWAP1 DUP2 MSTORE PUSH1 0x40 DUP1 DUP4 KECCAK256 DUP1 SLOAD PUSH1 0x1 PUSH1 0x1 PUSH1 0xA0 SHL SUB NOT SWAP1 DUP2 AND SWAP1 SWAP2 SSTORE PUSH1 0x1 PUSH1 0x1 PUSH1 0xA0 SHL SUB DUP6 AND DUP1 DUP6 MSTORE PUSH1 0x4 DUP5 MSTORE DUP3 DUP6 KECCAK256 DUP1 SLOAD PUSH1 0x0 NOT ADD SWAP1 SSTORE DUP8 DUP6 MSTORE PUSH1 0x3 SWAP1 SWAP4 MSTORE DUP2 DUP5 KECCAK256 DUP1 SLOAD SWAP1 SWAP2 AND SWAP1 SSTORE MLOAD SWAP3 SWAP4 POP DUP5 SWAP3 PUSH32 0xDDF252AD1BE2C89B69C2B068FC378DAA952BA7F163C4A11628F55A4DF523B3EF SWAP1 DUP4 SWAP1 LOG4 POP POP JUMP JUMPDEST PUSH2 0xFFFF DUP7 AND PUSH1 0x0 SWAP1 DUP2 MSTORE PUSH1 0x7 PUSH1 0x20 MSTORE PUSH1 0x40 DUP2 KECCAK256 DUP1 SLOAD PUSH2 0x230D SWAP1 PUSH2 0x320D JUMP JUMPDEST DUP1 PUSH1 0x1F ADD PUSH1 0x20 DUP1 SWAP2 DIV MUL PUSH1 0x20 ADD PUSH1 0x40 MLOAD SWAP1 DUP2 ADD PUSH1 0x40 MSTORE DUP1 SWAP3 SWAP2 SWAP1 DUP2 DUP2 MSTORE PUSH1 0x20 ADD DUP3 DUP1 SLOAD PUSH2 0x2339 SWAP1 PUSH2 0x320D JUMP JUMPDEST DUP1 ISZERO PUSH2 0x2386 JUMPI DUP1 PUSH1 0x1F LT PUSH2 0x235B JUMPI PUSH2 0x100 DUP1 DUP4 SLOAD DIV MUL DUP4 MSTORE SWAP2 PUSH1 0x20 ADD SWAP2 PUSH2 0x2386 JUMP JUMPDEST DUP3 ADD SWAP2 SWAP1 PUSH1 0x0 MSTORE PUSH1 0x20 PUSH1 0x0 KECCAK256 SWAP1 JUMPDEST DUP2 SLOAD DUP2 MSTORE SWAP1 PUSH1 0x1 ADD SWAP1 PUSH1 0x20 ADD DUP1 DUP4 GT PUSH2 0x2369 JUMPI DUP3 SWAP1 SUB PUSH1 0x1F AND DUP3 ADD SWAP2 JUMPDEST POP POP POP POP POP SWAP1 POP DUP1 MLOAD PUSH1 0x0 EQ ISZERO PUSH2 0x23F8 JUMPI PUSH1 0x40 MLOAD PUSH3 0x461BCD PUSH1 0xE5 SHL DUP2 MSTORE PUSH1 0x20 PUSH1 0x4 DUP3 ADD MSTORE PUSH1 0x30 PUSH1 0x24 DUP3 ADD MSTORE PUSH32 0x4C7A4170703A2064657374696E6174696F6E20636861696E206973206E6F7420 PUSH1 0x44 DUP3 ADD MSTORE PUSH16 0x61207472757374656420736F75726365 PUSH1 0x80 SHL PUSH1 0x64 DUP3 ADD MSTORE PUSH1 0x84 ADD PUSH2 0x8E7 JUMP JUMPDEST PUSH2 0x2403 DUP8 DUP8 MLOAD PUSH2 0x2867 JUMP JUMPDEST PUSH1 0x40 MLOAD PUSH3 0xC58031 PUSH1 0xE8 SHL DUP2 MSTORE PUSH1 0x1 PUSH1 0x1 PUSH1 0xA0 SHL SUB PUSH32 0x0 AND SWAP1 PUSH4 0xC5803100 SWAP1 DUP5 SWAP1 PUSH2 0x245A SWAP1 DUP12 SWAP1 DUP7 SWAP1 DUP13 SWAP1 DUP13 SWAP1 DUP13 SWAP1 DUP13 SWAP1 PUSH1 0x4 ADD PUSH2 0x3581 JUMP JUMPDEST PUSH1 0x0 PUSH1 0x40 MLOAD DUP1 DUP4 SUB DUP2 DUP6 DUP9 DUP1 EXTCODESIZE ISZERO DUP1 ISZERO PUSH2 0x2473 JUMPI PUSH1 0x0 DUP1 REVERT JUMPDEST POP GAS CALL ISZERO DUP1 ISZERO PUSH2 0x2487 JUMPI RETURNDATASIZE PUSH1 0x0 DUP1 RETURNDATACOPY RETURNDATASIZE PUSH1 0x0 REVERT JUMPDEST POP POP POP POP POP POP POP POP POP POP POP POP JUMP JUMPDEST PUSH1 0x60 DUP2 PUSH2 0x24A3 DUP2 PUSH1 0x1F PUSH2 0x35E8 JUMP JUMPDEST LT ISZERO PUSH2 0x24E2 JUMPI PUSH1 0x40 MLOAD PUSH3 0x461BCD PUSH1 0xE5 SHL DUP2 MSTORE PUSH1 0x20 PUSH1 0x4 DUP3 ADD MSTORE PUSH1 0xE PUSH1 0x24 DUP3 ADD MSTORE PUSH14 0x736C6963655F6F766572666C6F77 PUSH1 0x90 SHL PUSH1 0x44 DUP3 ADD MSTORE PUSH1 0x64 ADD PUSH2 0x8E7 JUMP JUMPDEST PUSH2 0x24EC DUP3 DUP5 PUSH2 0x35E8 JUMP JUMPDEST DUP5 MLOAD LT ISZERO PUSH2 0x2530 JUMPI PUSH1 0x40 MLOAD PUSH3 0x461BCD PUSH1 0xE5 SHL DUP2 MSTORE PUSH1 0x20 PUSH1 0x4 DUP3 ADD MSTORE PUSH1 0x11 PUSH1 0x24 DUP3 ADD MSTORE PUSH17 0x736C6963655F6F75744F66426F756E6473 PUSH1 0x78 SHL PUSH1 0x44 DUP3 ADD MSTORE PUSH1 0x64 ADD PUSH2 0x8E7 JUMP JUMPDEST PUSH1 0x60 DUP3 ISZERO DUP1 ISZERO PUSH2 0x254F JUMPI PUSH1 0x40 MLOAD SWAP2 POP PUSH1 0x0 DUP3 MSTORE PUSH1 0x20 DUP3 ADD PUSH1 0x40 MSTORE PUSH2 0x2599 JUMP JUMPDEST PUSH1 0x40 MLOAD SWAP2 POP PUSH1 0x1F DUP5 AND DUP1 ISZERO PUSH1 0x20 MUL DUP2 DUP5 ADD ADD DUP6 DUP2 ADD DUP8 DUP4 ISZERO PUSH1 0x20 MUL DUP5 DUP12 ADD ADD ADD JUMPDEST DUP2 DUP4 LT ISZERO PUSH2 0x2588 JUMPI DUP1 MLOAD DUP4 MSTORE PUSH1 0x20 SWAP3 DUP4 ADD SWAP3 ADD PUSH2 0x2570 JUMP JUMPDEST POP POP DUP6 DUP5 MSTORE PUSH1 0x1F ADD PUSH1 0x1F NOT AND PUSH1 0x40 MSTORE POP JUMPDEST POP SWAP5 SWAP4 POP POP POP POP JUMP JUMPDEST DUP2 PUSH1 0x1 PUSH1 0x1 PUSH1 0xA0 SHL SUB AND DUP4 PUSH1 0x1 PUSH1 0x1 PUSH1 0xA0 SHL SUB AND EQ ISZERO PUSH2 0x2604 JUMPI PUSH1 0x40 MLOAD PUSH3 0x461BCD PUSH1 0xE5 SHL DUP2 MSTORE PUSH1 0x20 PUSH1 0x4 DUP3 ADD MSTORE PUSH1 0x19 PUSH1 0x24 DUP3 ADD MSTORE PUSH32 0x4552433732313A20617070726F766520746F2063616C6C657200000000000000 PUSH1 0x44 DUP3 ADD MSTORE PUSH1 0x64 ADD PUSH2 0x8E7 JUMP JUMPDEST PUSH1 0x1 PUSH1 0x1 PUSH1 0xA0 SHL SUB DUP4 DUP2 AND PUSH1 0x0 DUP2 DUP2 MSTORE PUSH1 0x6 PUSH1 0x20 SWAP1 DUP2 MSTORE PUSH1 0x40 DUP1 DUP4 KECCAK256 SWAP5 DUP8 AND DUP1 DUP5 MSTORE SWAP5 DUP3 MSTORE SWAP2 DUP3 SWAP1 KECCAK256 DUP1 SLOAD PUSH1 0xFF NOT AND DUP7 ISZERO ISZERO SWAP1 DUP2 OR SWAP1 SWAP2 SSTORE SWAP2 MLOAD SWAP2 DUP3 MSTORE PUSH32 0x17307EAB39AB6107E8899845AD3D59BD9653F200F220920489CA2B5937696C31 SWAP2 ADD PUSH1 0x40 MLOAD DUP1 SWAP2 SUB SWAP1 LOG3 POP POP POP JUMP JUMPDEST PUSH2 0x267C DUP5 DUP5 DUP5 PUSH2 0x201B JUMP JUMPDEST PUSH2 0x2688 DUP5 DUP5 DUP5 DUP5 PUSH2 0x28D5 JUMP JUMPDEST PUSH2 0x16AB JUMPI PUSH1 0x40 MLOAD PUSH3 0x461BCD PUSH1 0xE5 SHL DUP2 MSTORE PUSH1 0x4 ADD PUSH2 0x8E7 SWAP1 PUSH2 0x3600 JUMP JUMPDEST PUSH1 0x60 PUSH1 0x0 PUSH2 0x26B1 DUP4 PUSH2 0x29DF JUMP JUMPDEST PUSH1 0x1 ADD SWAP1 POP PUSH1 0x0 DUP2 PUSH1 0x1 PUSH1 0x1 PUSH1 0x40 SHL SUB DUP2 GT ISZERO PUSH2 0x26D0 JUMPI PUSH2 0x26D0 PUSH2 0x2E8F JUMP JUMPDEST PUSH1 0x40 MLOAD SWAP1 DUP1 DUP3 MSTORE DUP1 PUSH1 0x1F ADD PUSH1 0x1F NOT AND PUSH1 0x20 ADD DUP3 ADD PUSH1 0x40 MSTORE DUP1 ISZERO PUSH2 0x26FA JUMPI PUSH1 0x20 DUP3 ADD DUP2 DUP1 CALLDATASIZE DUP4 CALLDATACOPY ADD SWAP1 POP JUMPDEST POP SWAP1 POP DUP2 DUP2 ADD PUSH1 0x20 ADD JUMPDEST PUSH1 0x0 NOT ADD PUSH16 0x181899199A1A9B1B9C1CB0B131B232B3 PUSH1 0x81 SHL PUSH1 0xA DUP7 MOD BYTE DUP2 MSTORE8 PUSH1 0xA DUP6 DIV SWAP5 POP DUP5 PUSH2 0x2733 JUMPI PUSH2 0x2738 JUMP JUMPDEST PUSH2 0x2704 JUMP JUMPDEST POP SWAP4 SWAP3 POP POP POP JUMP JUMPDEST PUSH1 0x0 PUSH1 0x60 PUSH1 0x0 DUP1 PUSH1 0x0 DUP7 PUSH2 0xFFFF AND PUSH1 0x1 PUSH1 0x1 PUSH1 0x40 SHL SUB DUP2 GT ISZERO PUSH2 0x2765 JUMPI PUSH2 0x2765 PUSH2 0x2E8F JUMP JUMPDEST PUSH1 0x40 MLOAD SWAP1 DUP1 DUP3 MSTORE DUP1 PUSH1 0x1F ADD PUSH1 0x1F NOT AND PUSH1 0x20 ADD DUP3 ADD PUSH1 0x40 MSTORE DUP1 ISZERO PUSH2 0x278F JUMPI PUSH1 0x20 DUP3 ADD DUP2 DUP1 CALLDATASIZE DUP4 CALLDATACOPY ADD SWAP1 POP JUMPDEST POP SWAP1 POP PUSH1 0x0 DUP1 DUP8 MLOAD PUSH1 0x20 DUP10 ADD PUSH1 0x0 DUP14 DUP14 CALL SWAP2 POP RETURNDATASIZE SWAP3 POP DUP7 DUP4 GT ISZERO PUSH2 0x27B1 JUMPI DUP7 SWAP3 POP JUMPDEST DUP3 DUP2 MSTORE DUP3 PUSH1 0x0 PUSH1 0x20 DUP4 ADD RETURNDATACOPY SWAP1 SWAP9 SWAP1 SWAP8 POP SWAP6 POP POP POP POP POP POP JUMP JUMPDEST DUP2 DUP1 MLOAD SWAP1 PUSH1 0x20 ADD KECCAK256 PUSH1 0xB PUSH1 0x0 DUP8 PUSH2 0xFFFF AND PUSH2 0xFFFF AND DUP2 MSTORE PUSH1 0x20 ADD SWAP1 DUP2 MSTORE PUSH1 0x20 ADD PUSH1 0x0 KECCAK256 DUP6 PUSH1 0x40 MLOAD PUSH2 0x27FB SWAP2 SWAP1 PUSH2 0x3652 JUMP JUMPDEST SWAP1 DUP2 MSTORE PUSH1 0x40 DUP1 MLOAD SWAP2 DUP3 SWAP1 SUB PUSH1 0x20 SWAP1 DUP2 ADD DUP4 KECCAK256 PUSH1 0x1 PUSH1 0x1 PUSH1 0x40 SHL SUB DUP9 AND PUSH1 0x0 SWAP1 DUP2 MSTORE SWAP2 MSTORE KECCAK256 SWAP2 SWAP1 SWAP2 SSTORE PUSH32 0xE183F33DE2837795525B4792CA4CD60535BD77C53B7E7030060BFCF5734D6B0C SWAP1 PUSH2 0x2858 SWAP1 DUP8 SWAP1 DUP8 SWAP1 DUP8 SWAP1 DUP8 SWAP1 DUP8 SWAP1 PUSH2 0x366E JUMP JUMPDEST PUSH1 0x40 MLOAD DUP1 SWAP2 SUB SWAP1 LOG1 POP POP POP POP POP JUMP JUMPDEST PUSH2 0xFFFF DUP3 AND PUSH1 0x0 SWAP1 DUP2 MSTORE PUSH1 0x9 PUSH1 0x20 MSTORE PUSH1 0x40 SWAP1 KECCAK256 SLOAD DUP1 PUSH2 0x2885 JUMPI POP PUSH2 0x2710 JUMPDEST DUP1 DUP3 GT ISZERO PUSH2 0xD49 JUMPI PUSH1 0x40 MLOAD PUSH3 0x461BCD PUSH1 0xE5 SHL DUP2 MSTORE PUSH1 0x20 PUSH1 0x4 DUP3 ADD DUP2 SWAP1 MSTORE PUSH1 0x24 DUP3 ADD MSTORE PUSH32 0x4C7A4170703A207061796C6F61642073697A6520697320746F6F206C61726765 PUSH1 0x44 DUP3 ADD MSTORE PUSH1 0x64 ADD PUSH2 0x8E7 JUMP JUMPDEST PUSH1 0x0 PUSH1 0x1 PUSH1 0x1 PUSH1 0xA0 SHL SUB DUP5 AND EXTCODESIZE ISZERO PUSH2 0x29D7 JUMPI PUSH1 0x40 MLOAD PUSH4 0xA85BD01 PUSH1 0xE1 SHL DUP2 MSTORE PUSH1 0x1 PUSH1 0x1 PUSH1 0xA0 SHL SUB DUP6 AND SWAP1 PUSH4 0x150B7A02 SWAP1 PUSH2 0x2919 SWAP1 CALLER SWAP1 DUP10 SWAP1 DUP9 SWAP1 DUP9 SWAP1 PUSH1 0x4 ADD PUSH2 0x36C0 JUMP JUMPDEST PUSH1 0x20 PUSH1 0x40 MLOAD DUP1 DUP4 SUB DUP2 PUSH1 0x0 DUP8 DUP1 EXTCODESIZE ISZERO DUP1 ISZERO PUSH2 0x2933 JUMPI PUSH1 0x0 DUP1 REVERT JUMPDEST POP GAS CALL SWAP3 POP POP POP DUP1 ISZERO PUSH2 0x2963 JUMPI POP PUSH1 0x40 DUP1 MLOAD PUSH1 0x1F RETURNDATASIZE SWAP1 DUP2 ADD PUSH1 0x1F NOT AND DUP3 ADD SWAP1 SWAP3 MSTORE PUSH2 0x2960 SWAP2 DUP2 ADD SWAP1 PUSH2 0x36FD JUMP JUMPDEST PUSH1 0x1 JUMPDEST PUSH2 0x29BD JUMPI RETURNDATASIZE DUP1 DUP1 ISZERO PUSH2 0x2991 JUMPI PUSH1 0x40 MLOAD SWAP2 POP PUSH1 0x1F NOT PUSH1 0x3F RETURNDATASIZE ADD AND DUP3 ADD PUSH1 0x40 MSTORE RETURNDATASIZE DUP3 MSTORE RETURNDATASIZE PUSH1 0x0 PUSH1 0x20 DUP5 ADD RETURNDATACOPY PUSH2 0x2996 JUMP JUMPDEST PUSH1 0x60 SWAP2 POP JUMPDEST POP DUP1 MLOAD PUSH2 0x29B5 JUMPI PUSH1 0x40 MLOAD PUSH3 0x461BCD PUSH1 0xE5 SHL DUP2 MSTORE PUSH1 0x4 ADD PUSH2 0x8E7 SWAP1 PUSH2 0x3600 JUMP JUMPDEST DUP1 MLOAD DUP2 PUSH1 0x20 ADD REVERT JUMPDEST PUSH1 0x1 PUSH1 0x1 PUSH1 0xE0 SHL SUB NOT AND PUSH4 0xA85BD01 PUSH1 0xE1 SHL EQ SWAP1 POP PUSH2 0x1C6A JUMP JUMPDEST POP PUSH1 0x1 PUSH2 0x1C6A JUMP JUMPDEST PUSH1 0x0 DUP1 PUSH19 0x184F03E93FF9F4DAA797ED6E38ED64BF6A1F01 PUSH1 0x40 SHL DUP4 LT PUSH2 0x2A1E JUMPI PUSH19 0x184F03E93FF9F4DAA797ED6E38ED64BF6A1F01 PUSH1 0x40 SHL DUP4 DIV SWAP3 POP PUSH1 0x40 ADD JUMPDEST PUSH14 0x4EE2D6D415B85ACEF8100000000 DUP4 LT PUSH2 0x2A4A JUMPI PUSH14 0x4EE2D6D415B85ACEF8100000000 DUP4 DIV SWAP3 POP PUSH1 0x20 ADD JUMPDEST PUSH7 0x2386F26FC10000 DUP4 LT PUSH2 0x2A68 JUMPI PUSH7 0x2386F26FC10000 DUP4 DIV SWAP3 POP PUSH1 0x10 ADD JUMPDEST PUSH4 0x5F5E100 DUP4 LT PUSH2 0x2A80 JUMPI PUSH4 0x5F5E100 DUP4 DIV SWAP3 POP PUSH1 0x8 ADD JUMPDEST PUSH2 0x2710 DUP4 LT PUSH2 0x2A94 JUMPI PUSH2 0x2710 DUP4 DIV SWAP3 POP PUSH1 0x4 ADD JUMPDEST PUSH1 0x64 DUP4 LT PUSH2 0x2AA6 JUMPI PUSH1 0x64 DUP4 DIV SWAP3 POP PUSH1 0x2 ADD JUMPDEST PUSH1 0xA DUP4 LT PUSH2 0xAF0 JUMPI PUSH1 0x1 ADD SWAP3 SWAP2 POP POP JUMP JUMPDEST DUP3 DUP1 SLOAD PUSH2 0x2AC3 SWAP1 PUSH2 0x320D JUMP JUMPDEST SWAP1 PUSH1 0x0 MSTORE PUSH1 0x20 PUSH1 0x0 KECCAK256 SWAP1 PUSH1 0x1F ADD PUSH1 0x20 SWAP1 DIV DUP2 ADD SWAP3 DUP3 PUSH2 0x2AE5 JUMPI PUSH1 0x0 DUP6 SSTORE PUSH2 0x2B2B JUMP JUMPDEST DUP3 PUSH1 0x1F LT PUSH2 0x2AFE JUMPI DUP1 MLOAD PUSH1 0xFF NOT AND DUP4 DUP1 ADD OR DUP6 SSTORE PUSH2 0x2B2B JUMP JUMPDEST DUP3 DUP1 ADD PUSH1 0x1 ADD DUP6 SSTORE DUP3 ISZERO PUSH2 0x2B2B JUMPI SWAP2 DUP3 ADD JUMPDEST DUP3 DUP2 GT ISZERO PUSH2 0x2B2B JUMPI DUP3 MLOAD DUP3 SSTORE SWAP2 PUSH1 0x20 ADD SWAP2 SWAP1 PUSH1 0x1 ADD SWAP1 PUSH2 0x2B10 JUMP JUMPDEST POP PUSH2 0x2B37 SWAP3 SWAP2 POP PUSH2 0x2BAF JUMP JUMPDEST POP SWAP1 JUMP JUMPDEST DUP3 DUP1 SLOAD PUSH2 0x2B47 SWAP1 PUSH2 0x320D JUMP JUMPDEST SWAP1 PUSH1 0x0 MSTORE PUSH1 0x20 PUSH1 0x0 KECCAK256 SWAP1 PUSH1 0x1F ADD PUSH1 0x20 SWAP1 DIV DUP2 ADD SWAP3 DUP3 PUSH2 0x2B69 JUMPI PUSH1 0x0 DUP6 SSTORE PUSH2 0x2B2B JUMP JUMPDEST DUP3 PUSH1 0x1F LT PUSH2 0x2B82 JUMPI DUP3 DUP1 ADD PUSH1 0xFF NOT DUP3 CALLDATALOAD AND OR DUP6 SSTORE PUSH2 0x2B2B JUMP JUMPDEST DUP3 DUP1 ADD PUSH1 0x1 ADD DUP6 SSTORE DUP3 ISZERO PUSH2 0x2B2B JUMPI SWAP2 DUP3 ADD JUMPDEST DUP3 DUP2 GT ISZERO PUSH2 0x2B2B JUMPI DUP3 CALLDATALOAD DUP3 SSTORE SWAP2 PUSH1 0x20 ADD SWAP2 SWAP1 PUSH1 0x1 ADD SWAP1 PUSH2 0x2B94 JUMP JUMPDEST JUMPDEST DUP1 DUP3 GT ISZERO PUSH2 0x2B37 JUMPI PUSH1 0x0 DUP2 SSTORE PUSH1 0x1 ADD PUSH2 0x2BB0 JUMP JUMPDEST DUP1 CALLDATALOAD PUSH2 0xFFFF DUP2 AND DUP2 EQ PUSH2 0x2BD6 JUMPI PUSH1 0x0 DUP1 REVERT JUMPDEST SWAP2 SWAP1 POP JUMP JUMPDEST PUSH1 0x0 DUP1 DUP4 PUSH1 0x1F DUP5 ADD SLT PUSH2 0x2BED JUMPI PUSH1 0x0 DUP1 REVERT JUMPDEST POP DUP2 CALLDATALOAD PUSH1 0x1 PUSH1 0x1 PUSH1 0x40 SHL SUB DUP2 GT ISZERO PUSH2 0x2C04 JUMPI PUSH1 0x0 DUP1 REVERT JUMPDEST PUSH1 0x20 DUP4 ADD SWAP2 POP DUP4 PUSH1 0x20 DUP3 DUP6 ADD ADD GT ISZERO PUSH2 0x2C1C JUMPI PUSH1 0x0 DUP1 REVERT JUMPDEST SWAP3 POP SWAP3 SWAP1 POP JUMP JUMPDEST DUP1 CALLDATALOAD PUSH1 0x1 PUSH1 0x1 PUSH1 0x40 SHL SUB DUP2 AND DUP2 EQ PUSH2 0x2BD6 JUMPI PUSH1 0x0 DUP1 REVERT JUMPDEST PUSH1 0x0 DUP1 PUSH1 0x0 DUP1 PUSH1 0x0 DUP1 PUSH1 0x80 DUP8 DUP10 SUB SLT ISZERO PUSH2 0x2C53 JUMPI PUSH1 0x0 DUP1 REVERT JUMPDEST PUSH2 0x2C5C DUP8 PUSH2 0x2BC4 JUMP JUMPDEST SWAP6 POP PUSH1 0x20 DUP8 ADD CALLDATALOAD PUSH1 0x1 PUSH1 0x1 PUSH1 0x40 SHL SUB DUP1 DUP3 GT ISZERO PUSH2 0x2C78 JUMPI PUSH1 0x0 DUP1 REVERT JUMPDEST PUSH2 0x2C84 DUP11 DUP4 DUP12 ADD PUSH2 0x2BDB JUMP JUMPDEST SWAP1 SWAP8 POP SWAP6 POP DUP6 SWAP2 POP PUSH2 0x2C98 PUSH1 0x40 DUP11 ADD PUSH2 0x2C23 JUMP JUMPDEST SWAP5 POP PUSH1 0x60 DUP10 ADD CALLDATALOAD SWAP2 POP DUP1 DUP3 GT ISZERO PUSH2 0x2CAE JUMPI PUSH1 0x0 DUP1 REVERT JUMPDEST POP PUSH2 0x2CBB DUP10 DUP3 DUP11 ADD PUSH2 0x2BDB JUMP JUMPDEST SWAP8 SWAP11 SWAP7 SWAP10 POP SWAP5 SWAP8 POP SWAP3 SWAP6 SWAP4 SWAP5 SWAP3 POP POP POP JUMP JUMPDEST PUSH1 0x1 PUSH1 0x1 PUSH1 0xE0 SHL SUB NOT DUP2 AND DUP2 EQ PUSH2 0x1BAD JUMPI PUSH1 0x0 DUP1 REVERT JUMPDEST PUSH1 0x0 PUSH1 0x20 DUP3 DUP5 SUB SLT ISZERO PUSH2 0x2CF5 JUMPI PUSH1 0x0 DUP1 REVERT JUMPDEST DUP2 CALLDATALOAD PUSH2 0x15D0 DUP2 PUSH2 0x2CCD JUMP JUMPDEST PUSH1 0x0 JUMPDEST DUP4 DUP2 LT ISZERO PUSH2 0x2D1B JUMPI DUP2 DUP2 ADD MLOAD DUP4 DUP3 ADD MSTORE PUSH1 0x20 ADD PUSH2 0x2D03 JUMP JUMPDEST DUP4 DUP2 GT ISZERO PUSH2 0x16AB JUMPI POP POP PUSH1 0x0 SWAP2 ADD MSTORE JUMP JUMPDEST PUSH1 0x0 DUP2 MLOAD DUP1 DUP5 MSTORE PUSH2 0x2D44 DUP2 PUSH1 0x20 DUP7 ADD PUSH1 0x20 DUP7 ADD PUSH2 0x2D00 JUMP JUMPDEST PUSH1 0x1F ADD PUSH1 0x1F NOT AND SWAP3 SWAP1 SWAP3 ADD PUSH1 0x20 ADD SWAP3 SWAP2 POP POP JUMP JUMPDEST PUSH1 0x20 DUP2 MSTORE PUSH1 0x0 PUSH2 0x15D0 PUSH1 0x20 DUP4 ADD DUP5 PUSH2 0x2D2C JUMP JUMPDEST PUSH1 0x0 PUSH1 0x20 DUP3 DUP5 SUB SLT ISZERO PUSH2 0x2D7D JUMPI PUSH1 0x0 DUP1 REVERT JUMPDEST PUSH2 0x15D0 DUP3 PUSH2 0x2BC4 JUMP JUMPDEST PUSH1 0x0 PUSH1 0x20 DUP3 DUP5 SUB SLT ISZERO PUSH2 0x2D98 JUMPI PUSH1 0x0 DUP1 REVERT JUMPDEST POP CALLDATALOAD SWAP2 SWAP1 POP JUMP JUMPDEST PUSH1 0x1 PUSH1 0x1 PUSH1 0xA0 SHL SUB DUP2 AND DUP2 EQ PUSH2 0x1BAD JUMPI PUSH1 0x0 DUP1 REVERT JUMPDEST PUSH1 0x0 DUP1 PUSH1 0x40 DUP4 DUP6 SUB SLT ISZERO PUSH2 0x2DC7 JUMPI PUSH1 0x0 DUP1 REVERT JUMPDEST DUP3 CALLDATALOAD PUSH2 0x2DD2 DUP2 PUSH2 0x2D9F JUMP JUMPDEST SWAP5 PUSH1 0x20 SWAP4 SWAP1 SWAP4 ADD CALLDATALOAD SWAP4 POP POP POP JUMP JUMPDEST PUSH1 0x0 DUP1 PUSH1 0x40 DUP4 DUP6 SUB SLT ISZERO PUSH2 0x2DF3 JUMPI PUSH1 0x0 DUP1 REVERT JUMPDEST PUSH2 0x2DD2 DUP4 PUSH2 0x2BC4 JUMP JUMPDEST PUSH1 0x0 DUP1 PUSH1 0x0 PUSH1 0x60 DUP5 DUP7 SUB SLT ISZERO PUSH2 0x2E11 JUMPI PUSH1 0x0 DUP1 REVERT JUMPDEST DUP4 CALLDATALOAD PUSH2 0x2E1C DUP2 PUSH2 0x2D9F JUMP JUMPDEST SWAP3 POP PUSH1 0x20 DUP5 ADD CALLDATALOAD PUSH2 0x2E2C DUP2 PUSH2 0x2D9F JUMP JUMPDEST SWAP3 SWAP6 SWAP3 SWAP5 POP POP POP PUSH1 0x40 SWAP2 SWAP1 SWAP2 ADD CALLDATALOAD SWAP1 JUMP JUMPDEST PUSH1 0x0 DUP1 PUSH1 0x0 PUSH1 0x40 DUP5 DUP7 SUB SLT ISZERO PUSH2 0x2E52 JUMPI PUSH1 0x0 DUP1 REVERT JUMPDEST PUSH2 0x2E5B DUP5 PUSH2 0x2BC4 JUMP JUMPDEST SWAP3 POP PUSH1 0x20 DUP5 ADD CALLDATALOAD PUSH1 0x1 PUSH1 0x1 PUSH1 0x40 SHL SUB DUP2 GT ISZERO PUSH2 0x2E76 JUMPI PUSH1 0x0 DUP1 REVERT JUMPDEST PUSH2 0x2E82 DUP7 DUP3 DUP8 ADD PUSH2 0x2BDB JUMP JUMPDEST SWAP5 SWAP8 SWAP1 SWAP7 POP SWAP4 SWAP5 POP POP POP POP JUMP JUMPDEST PUSH4 0x4E487B71 PUSH1 0xE0 SHL PUSH1 0x0 MSTORE PUSH1 0x41 PUSH1 0x4 MSTORE PUSH1 0x24 PUSH1 0x0 REVERT JUMPDEST PUSH1 0x40 MLOAD PUSH1 0x1F DUP3 ADD PUSH1 0x1F NOT AND DUP2 ADD PUSH1 0x1 PUSH1 0x1 PUSH1 0x40 SHL SUB DUP2 GT DUP3 DUP3 LT OR ISZERO PUSH2 0x2ECD JUMPI PUSH2 0x2ECD PUSH2 0x2E8F JUMP JUMPDEST PUSH1 0x40 MSTORE SWAP2 SWAP1 POP JUMP JUMPDEST PUSH1 0x0 PUSH1 0x1 PUSH1 0x1 PUSH1 0x40 SHL SUB DUP3 GT ISZERO PUSH2 0x2EEE JUMPI PUSH2 0x2EEE PUSH2 0x2E8F JUMP JUMPDEST POP PUSH1 0x1F ADD PUSH1 0x1F NOT AND PUSH1 0x20 ADD SWAP1 JUMP JUMPDEST PUSH1 0x0 DUP3 PUSH1 0x1F DUP4 ADD SLT PUSH2 0x2F0D JUMPI PUSH1 0x0 DUP1 REVERT JUMPDEST DUP2 CALLDATALOAD PUSH2 0x2F20 PUSH2 0x2F1B DUP3 PUSH2 0x2ED5 JUMP JUMPDEST PUSH2 0x2EA5 JUMP JUMPDEST DUP2 DUP2 MSTORE DUP5 PUSH1 0x20 DUP4 DUP7 ADD ADD GT ISZERO PUSH2 0x2F35 JUMPI PUSH1 0x0 DUP1 REVERT JUMPDEST DUP2 PUSH1 0x20 DUP6 ADD PUSH1 0x20 DUP4 ADD CALLDATACOPY PUSH1 0x0 SWAP2 DUP2 ADD PUSH1 0x20 ADD SWAP2 SWAP1 SWAP2 MSTORE SWAP4 SWAP3 POP POP POP JUMP JUMPDEST PUSH1 0x0 DUP1 PUSH1 0x0 PUSH1 0x60 DUP5 DUP7 SUB SLT ISZERO PUSH2 0x2F67 JUMPI PUSH1 0x0 DUP1 REVERT JUMPDEST PUSH2 0x2F70 DUP5 PUSH2 0x2BC4 JUMP JUMPDEST SWAP3 POP PUSH1 0x20 DUP5 ADD CALLDATALOAD PUSH1 0x1 PUSH1 0x1 PUSH1 0x40 SHL SUB DUP2 GT ISZERO PUSH2 0x2F8B JUMPI PUSH1 0x0 DUP1 REVERT JUMPDEST PUSH2 0x2F97 DUP7 DUP3 DUP8 ADD PUSH2 0x2EFC JUMP JUMPDEST SWAP3 POP POP PUSH2 0x2FA6 PUSH1 0x40 DUP6 ADD PUSH2 0x2C23 JUMP JUMPDEST SWAP1 POP SWAP3 POP SWAP3 POP SWAP3 JUMP JUMPDEST PUSH1 0x0 PUSH1 0x20 DUP3 DUP5 SUB SLT ISZERO PUSH2 0x2FC1 JUMPI PUSH1 0x0 DUP1 REVERT JUMPDEST DUP2 CALLDATALOAD PUSH2 0x15D0 DUP2 PUSH2 0x2D9F JUMP JUMPDEST PUSH1 0x0 DUP1 PUSH1 0x0 PUSH1 0x60 DUP5 DUP7 SUB SLT ISZERO PUSH2 0x2FE1 JUMPI PUSH1 0x0 DUP1 REVERT JUMPDEST PUSH2 0x2FEA DUP5 PUSH2 0x2BC4 JUMP JUMPDEST SWAP3 POP PUSH1 0x20 DUP5 ADD CALLDATALOAD SWAP2 POP PUSH1 0x40 DUP5 ADD CALLDATALOAD PUSH2 0x3001 DUP2 PUSH2 0x2D9F JUMP JUMPDEST DUP1 SWAP2 POP POP SWAP3 POP SWAP3 POP SWAP3 JUMP JUMPDEST PUSH1 0x0 DUP1 PUSH1 0x40 DUP4 DUP6 SUB SLT ISZERO PUSH2 0x301F JUMPI PUSH1 0x0 DUP1 REVERT JUMPDEST PUSH2 0x3028 DUP4 PUSH2 0x2BC4 JUMP JUMPDEST SWAP2 POP PUSH2 0x3036 PUSH1 0x20 DUP5 ADD PUSH2 0x2BC4 JUMP JUMPDEST SWAP1 POP SWAP3 POP SWAP3 SWAP1 POP JUMP JUMPDEST PUSH1 0x0 DUP1 PUSH1 0x40 DUP4 DUP6 SUB SLT ISZERO PUSH2 0x3052 JUMPI PUSH1 0x0 DUP1 REVERT JUMPDEST DUP3 CALLDATALOAD PUSH2 0x305D DUP2 PUSH2 0x2D9F JUMP JUMPDEST SWAP2 POP PUSH1 0x20 DUP4 ADD CALLDATALOAD DUP1 ISZERO ISZERO DUP2 EQ PUSH2 0x3072 JUMPI PUSH1 0x0 DUP1 REVERT JUMPDEST DUP1 SWAP2 POP POP SWAP3 POP SWAP3 SWAP1 POP JUMP JUMPDEST PUSH1 0x0 DUP1 PUSH1 0x0 DUP1 PUSH1 0x80 DUP6 DUP8 SUB SLT ISZERO PUSH2 0x3093 JUMPI PUSH1 0x0 DUP1 REVERT JUMPDEST DUP5 CALLDATALOAD PUSH2 0x309E DUP2 PUSH2 0x2D9F JUMP JUMPDEST SWAP4 POP PUSH1 0x20 DUP6 ADD CALLDATALOAD PUSH2 0x30AE DUP2 PUSH2 0x2D9F JUMP JUMPDEST SWAP3 POP PUSH1 0x40 DUP6 ADD CALLDATALOAD SWAP2 POP PUSH1 0x60 DUP6 ADD CALLDATALOAD PUSH1 0x1 PUSH1 0x1 PUSH1 0x40 SHL SUB DUP2 GT ISZERO PUSH2 0x30D0 JUMPI PUSH1 0x0 DUP1 REVERT JUMPDEST PUSH2 0x30DC DUP8 DUP3 DUP9 ADD PUSH2 0x2EFC JUMP JUMPDEST SWAP2 POP POP SWAP3 SWAP6 SWAP2 SWAP5 POP SWAP3 POP JUMP JUMPDEST PUSH1 0x0 DUP1 PUSH1 0x0 DUP1 PUSH1 0x0 PUSH1 0x80 DUP7 DUP9 SUB SLT ISZERO PUSH2 0x3100 JUMPI PUSH1 0x0 DUP1 REVERT JUMPDEST PUSH2 0x3109 DUP7 PUSH2 0x2BC4 JUMP JUMPDEST SWAP5 POP PUSH2 0x3117 PUSH1 0x20 DUP8 ADD PUSH2 0x2BC4 JUMP JUMPDEST SWAP4 POP PUSH1 0x40 DUP7 ADD CALLDATALOAD SWAP3 POP PUSH1 0x60 DUP7 ADD CALLDATALOAD PUSH1 0x1 PUSH1 0x1 PUSH1 0x40 SHL SUB DUP2 GT ISZERO PUSH2 0x3139 JUMPI PUSH1 0x0 DUP1 REVERT JUMPDEST PUSH2 0x3145 DUP9 DUP3 DUP10 ADD PUSH2 0x2BDB JUMP JUMPDEST SWAP7 SWAP10 SWAP6 SWAP9 POP SWAP4 SWAP7 POP SWAP3 SWAP5 SWAP4 SWAP3 POP POP POP JUMP JUMPDEST PUSH1 0x0 DUP1 PUSH1 0x0 PUSH1 0x60 DUP5 DUP7 SUB SLT ISZERO PUSH2 0x316B JUMPI PUSH1 0x0 DUP1 REVERT JUMPDEST PUSH2 0x3174 DUP5 PUSH2 0x2BC4 JUMP JUMPDEST SWAP3 POP PUSH2 0x3182 PUSH1 0x20 DUP6 ADD PUSH2 0x2BC4 JUMP JUMPDEST SWAP2 POP PUSH1 0x40 DUP5 ADD CALLDATALOAD SWAP1 POP SWAP3 POP SWAP3 POP SWAP3 JUMP JUMPDEST PUSH1 0x0 DUP1 PUSH1 0x40 DUP4 DUP6 SUB SLT ISZERO PUSH2 0x31A5 JUMPI PUSH1 0x0 DUP1 REVERT JUMPDEST DUP3 CALLDATALOAD PUSH2 0x31B0 DUP2 PUSH2 0x2D9F JUMP JUMPDEST SWAP2 POP PUSH1 0x20 DUP4 ADD CALLDATALOAD PUSH2 0x3072 DUP2 PUSH2 0x2D9F JUMP JUMPDEST PUSH1 0x0 DUP1 PUSH1 0x0 DUP1 PUSH1 0x80 DUP6 DUP8 SUB SLT ISZERO PUSH2 0x31D6 JUMPI PUSH1 0x0 DUP1 REVERT JUMPDEST PUSH2 0x31DF DUP6 PUSH2 0x2BC4 JUMP JUMPDEST SWAP4 POP PUSH2 0x31ED PUSH1 0x20 DUP7 ADD PUSH2 0x2BC4 JUMP JUMPDEST SWAP3 POP PUSH1 0x40 DUP6 ADD CALLDATALOAD PUSH2 0x31FD DUP2 PUSH2 0x2D9F JUMP JUMPDEST SWAP4 SWAP7 SWAP3 SWAP6 POP SWAP3 SWAP4 PUSH1 0x60 ADD CALLDATALOAD SWAP3 POP POP JUMP JUMPDEST PUSH1 0x1 DUP2 DUP2 SHR SWAP1 DUP3 AND DUP1 PUSH2 0x3221 JUMPI PUSH1 0x7F DUP3 AND SWAP2 POP JUMPDEST PUSH1 0x20 DUP3 LT DUP2 EQ ISZERO PUSH2 0x3242 JUMPI PUSH4 0x4E487B71 PUSH1 0xE0 SHL PUSH1 0x0 MSTORE PUSH1 0x22 PUSH1 0x4 MSTORE PUSH1 0x24 PUSH1 0x0 REVERT JUMPDEST POP SWAP2 SWAP1 POP JUMP JUMPDEST DUP2 DUP4 DUP3 CALLDATACOPY PUSH1 0x0 SWAP2 ADD SWAP1 DUP2 MSTORE SWAP2 SWAP1 POP JUMP JUMPDEST PUSH1 0x20 DUP1 DUP3 MSTORE PUSH1 0x2D SWAP1 DUP3 ADD MSTORE PUSH32 0x4552433732313A2063616C6C6572206973206E6F7420746F6B656E206F776E65 PUSH1 0x40 DUP3 ADD MSTORE PUSH13 0x1C881BDC88185C1C1C9BDD9959 PUSH1 0x9A SHL PUSH1 0x60 DUP3 ADD MSTORE PUSH1 0x80 ADD SWAP1 JUMP JUMPDEST PUSH2 0xFFFF DUP7 AND DUP2 MSTORE PUSH1 0x1 PUSH1 0x1 PUSH1 0xA0 SHL SUB DUP6 AND PUSH1 0x20 DUP3 ADD MSTORE PUSH1 0xA0 PUSH1 0x40 DUP3 ADD DUP2 SWAP1 MSTORE PUSH1 0x0 SWAP1 PUSH2 0x32D3 SWAP1 DUP4 ADD DUP7 PUSH2 0x2D2C JUMP JUMPDEST DUP5 ISZERO ISZERO PUSH1 0x60 DUP5 ADD MSTORE DUP3 DUP2 SUB PUSH1 0x80 DUP5 ADD MSTORE PUSH2 0x32ED DUP2 DUP6 PUSH2 0x2D2C JUMP JUMPDEST SWAP9 SWAP8 POP POP POP POP POP POP POP POP JUMP JUMPDEST PUSH1 0x0 DUP1 PUSH1 0x40 DUP4 DUP6 SUB SLT ISZERO PUSH2 0x330C JUMPI PUSH1 0x0 DUP1 REVERT JUMPDEST POP POP DUP1 MLOAD PUSH1 0x20 SWAP1 SWAP2 ADD MLOAD SWAP1 SWAP3 SWAP1 SWAP2 POP JUMP JUMPDEST DUP2 DUP4 MSTORE DUP2 DUP2 PUSH1 0x20 DUP6 ADD CALLDATACOPY POP PUSH1 0x0 DUP3 DUP3 ADD PUSH1 0x20 SWAP1 DUP2 ADD SWAP2 SWAP1 SWAP2 MSTORE PUSH1 0x1F SWAP1 SWAP2 ADD PUSH1 0x1F NOT AND SWAP1 SWAP2 ADD ADD SWAP1 JUMP JUMPDEST PUSH2 0xFFFF DUP5 AND DUP2 MSTORE PUSH1 0x40 PUSH1 0x20 DUP3 ADD MSTORE PUSH1 0x0 PUSH2 0x1C67 PUSH1 0x40 DUP4 ADD DUP5 DUP7 PUSH2 0x331D JUMP JUMPDEST PUSH4 0x4E487B71 PUSH1 0xE0 SHL PUSH1 0x0 MSTORE PUSH1 0x11 PUSH1 0x4 MSTORE PUSH1 0x24 PUSH1 0x0 REVERT JUMPDEST PUSH1 0x0 DUP3 DUP3 LT ISZERO PUSH2 0x338C JUMPI PUSH2 0x338C PUSH2 0x3364 JUMP JUMPDEST POP SUB SWAP1 JUMP JUMPDEST DUP3 DUP5 DUP3 CALLDATACOPY PUSH1 0x60 SWAP2 SWAP1 SWAP2 SHL PUSH12 0xFFFFFFFFFFFFFFFFFFFFFFFF NOT AND SWAP2 ADD SWAP1 DUP2 MSTORE PUSH1 0x14 ADD SWAP2 SWAP1 POP JUMP JUMPDEST PUSH1 0x0 DUP4 MLOAD PUSH2 0x33C9 DUP2 DUP5 PUSH1 0x20 DUP9 ADD PUSH2 0x2D00 JUMP JUMPDEST DUP4 MLOAD SWAP1 DUP4 ADD SWAP1 PUSH2 0x33DD DUP2 DUP4 PUSH1 0x20 DUP9 ADD PUSH2 0x2D00 JUMP JUMPDEST ADD SWAP5 SWAP4 POP POP POP POP JUMP JUMPDEST PUSH1 0x0 PUSH2 0xFFFF DUP1 DUP9 AND DUP4 MSTORE DUP1 DUP8 AND PUSH1 0x20 DUP5 ADD MSTORE POP DUP5 PUSH1 0x40 DUP4 ADD MSTORE PUSH1 0x80 PUSH1 0x60 DUP4 ADD MSTORE PUSH2 0x3414 PUSH1 0x80 DUP4 ADD DUP5 DUP7 PUSH2 0x331D JUMP JUMPDEST SWAP8 SWAP7 POP POP POP POP POP POP POP JUMP JUMPDEST PUSH2 0xFFFF DUP7 AND DUP2 MSTORE PUSH1 0x80 PUSH1 0x20 DUP3 ADD MSTORE PUSH1 0x0 PUSH2 0x343D PUSH1 0x80 DUP4 ADD DUP7 DUP9 PUSH2 0x331D JUMP JUMPDEST PUSH1 0x1 PUSH1 0x1 PUSH1 0x40 SHL SUB SWAP5 SWAP1 SWAP5 AND PUSH1 0x40 DUP4 ADD MSTORE POP PUSH1 0x60 ADD MSTORE SWAP4 SWAP3 POP POP POP JUMP JUMPDEST PUSH1 0x0 PUSH1 0x20 DUP3 DUP5 SUB SLT ISZERO PUSH2 0x346C JUMPI PUSH1 0x0 DUP1 REVERT JUMPDEST DUP2 MLOAD PUSH1 0x1 PUSH1 0x1 PUSH1 0x40 SHL SUB DUP2 GT ISZERO PUSH2 0x3482 JUMPI PUSH1 0x0 DUP1 REVERT JUMPDEST DUP3 ADD PUSH1 0x1F DUP2 ADD DUP5 SGT PUSH2 0x3493 JUMPI PUSH1 0x0 DUP1 REVERT JUMPDEST DUP1 MLOAD PUSH2 0x34A1 PUSH2 0x2F1B DUP3 PUSH2 0x2ED5 JUMP JUMPDEST DUP2 DUP2 MSTORE DUP6 PUSH1 0x20 DUP4 DUP6 ADD ADD GT ISZERO PUSH2 0x34B6 JUMPI PUSH1 0x0 DUP1 REVERT JUMPDEST PUSH2 0x34C7 DUP3 PUSH1 0x20 DUP4 ADD PUSH1 0x20 DUP7 ADD PUSH2 0x2D00 JUMP JUMPDEST SWAP6 SWAP5 POP POP POP POP POP JUMP JUMPDEST PUSH2 0xFFFF DUP6 AND DUP2 MSTORE PUSH1 0x80 PUSH1 0x20 DUP3 ADD MSTORE PUSH1 0x0 PUSH2 0x34ED PUSH1 0x80 DUP4 ADD DUP7 PUSH2 0x2D2C JUMP JUMPDEST PUSH1 0x1 PUSH1 0x1 PUSH1 0x40 SHL SUB DUP6 AND PUSH1 0x40 DUP5 ADD MSTORE DUP3 DUP2 SUB PUSH1 0x60 DUP5 ADD MSTORE PUSH2 0x3414 DUP2 DUP6 PUSH2 0x2D2C JUMP JUMPDEST PUSH1 0x20 DUP1 DUP3 MSTORE PUSH1 0x25 SWAP1 DUP3 ADD MSTORE PUSH32 0x4552433732313A207472616E736665722066726F6D20696E636F727265637420 PUSH1 0x40 DUP3 ADD MSTORE PUSH5 0x37BBB732B9 PUSH1 0xD9 SHL PUSH1 0x60 DUP3 ADD MSTORE PUSH1 0x80 ADD SWAP1 JUMP JUMPDEST PUSH1 0x0 DUP1 PUSH1 0x40 DUP4 DUP6 SUB SLT ISZERO PUSH2 0x3566 JUMPI PUSH1 0x0 DUP1 REVERT JUMPDEST DUP3 MLOAD PUSH2 0x3571 DUP2 PUSH2 0x2D9F JUMP JUMPDEST PUSH1 0x20 SWAP4 SWAP1 SWAP4 ADD MLOAD SWAP3 SWAP5 SWAP3 SWAP4 POP POP POP JUMP JUMPDEST PUSH2 0xFFFF DUP8 AND DUP2 MSTORE PUSH1 0xC0 PUSH1 0x20 DUP3 ADD MSTORE PUSH1 0x0 PUSH2 0x359E PUSH1 0xC0 DUP4 ADD DUP9 PUSH2 0x2D2C JUMP JUMPDEST DUP3 DUP2 SUB PUSH1 0x40 DUP5 ADD MSTORE PUSH2 0x35B0 DUP2 DUP9 PUSH2 0x2D2C JUMP JUMPDEST PUSH1 0x1 PUSH1 0x1 PUSH1 0xA0 SHL SUB DUP8 DUP2 AND PUSH1 0x60 DUP7 ADD MSTORE DUP7 AND PUSH1 0x80 DUP6 ADD MSTORE DUP4 DUP2 SUB PUSH1 0xA0 DUP6 ADD MSTORE SWAP1 POP PUSH2 0x35DB DUP2 DUP6 PUSH2 0x2D2C JUMP JUMPDEST SWAP10 SWAP9 POP POP POP POP POP POP POP POP POP JUMP JUMPDEST PUSH1 0x0 DUP3 NOT DUP3 GT ISZERO PUSH2 0x35FB JUMPI PUSH2 0x35FB PUSH2 0x3364 JUMP JUMPDEST POP ADD SWAP1 JUMP JUMPDEST PUSH1 0x20 DUP1 DUP3 MSTORE PUSH1 0x32 SWAP1 DUP3 ADD MSTORE PUSH32 0x4552433732313A207472616E7366657220746F206E6F6E204552433732315265 PUSH1 0x40 DUP3 ADD MSTORE PUSH18 0x31B2B4BB32B91034B6B83632B6B2B73A32B9 PUSH1 0x71 SHL PUSH1 0x60 DUP3 ADD MSTORE PUSH1 0x80 ADD SWAP1 JUMP JUMPDEST PUSH1 0x0 DUP3 MLOAD PUSH2 0x3664 DUP2 DUP5 PUSH1 0x20 DUP8 ADD PUSH2 0x2D00 JUMP JUMPDEST SWAP2 SWAP1 SWAP2 ADD SWAP3 SWAP2 POP POP JUMP JUMPDEST PUSH2 0xFFFF DUP7 AND DUP2 MSTORE PUSH1 0xA0 PUSH1 0x20 DUP3 ADD MSTORE PUSH1 0x0 PUSH2 0x368B PUSH1 0xA0 DUP4 ADD DUP8 PUSH2 0x2D2C JUMP JUMPDEST PUSH1 0x1 PUSH1 0x1 PUSH1 0x40 SHL SUB DUP7 AND PUSH1 0x40 DUP5 ADD MSTORE DUP3 DUP2 SUB PUSH1 0x60 DUP5 ADD MSTORE PUSH2 0x36AC DUP2 DUP7 PUSH2 0x2D2C JUMP JUMPDEST SWAP1 POP DUP3 DUP2 SUB PUSH1 0x80 DUP5 ADD MSTORE PUSH2 0x32ED DUP2 DUP6 PUSH2 0x2D2C JUMP JUMPDEST PUSH1 0x1 PUSH1 0x1 PUSH1 0xA0 SHL SUB DUP6 DUP2 AND DUP3 MSTORE DUP5 AND PUSH1 0x20 DUP3 ADD MSTORE PUSH1 0x40 DUP2 ADD DUP4 SWAP1 MSTORE PUSH1 0x80 PUSH1 0x60 DUP3 ADD DUP2 SWAP1 MSTORE PUSH1 0x0 SWAP1 PUSH2 0x36F3 SWAP1 DUP4 ADD DUP5 PUSH2 0x2D2C JUMP JUMPDEST SWAP7 SWAP6 POP POP POP POP POP POP JUMP JUMPDEST PUSH1 0x0 PUSH1 0x20 DUP3 DUP5 SUB SLT ISZERO PUSH2 0x370F JUMPI PUSH1 0x0 DUP1 REVERT JUMPDEST DUP2 MLOAD PUSH2 0x15D0 DUP2 PUSH2 0x2CCD JUMP INVALID LOG2 PUSH5 0x6970667358 0x22 SLT KECCAK256 GAS 0xB0 CREATE2 0x29 0xEA 0xBC DUP6 PUSH11 0x9E49EDDDA46ED3EB397CAA PUSH18 0x7885232ABA0642CC832D87D964736F6C6343 STOP ADDMOD MULMOD STOP CALLER "
		},
		"gasEstimates": {
			"creation": {
				"codeDepositCost": "2832000",
				"executionCost": "infinite",
				"totalCost": "infinite"
			},
			"external": {
				"DEFAULT_PAYLOAD_SIZE_LIMIT()": "273",
				"MAX_ID()": "infinite",
				"approve(address,uint256)": "infinite",
				"balanceOf(address)": "2727",
				"counter()": "2373",
				"crossChain(uint16,uint256,address)": "infinite",
				"currentTokenId()": "2353",
				"estimateFees(uint16,uint256)": "infinite",
				"failedMessages(uint16,bytes,uint64)": "infinite",
				"forceResumeReceive(uint16,bytes)": "infinite",
				"getApproved(uint256)": "4770",
				"getConfig(uint16,uint16,address,uint256)": "infinite",
				"getTrustedRemoteAddress(uint16)": "infinite",
				"isApprovedForAll(address,address)": "infinite",
				"isTrustedRemote(uint16,bytes)": "infinite",
				"lzEndpoint()": "infinite",
				"lzReceive(uint16,bytes,uint64,bytes)": "infinite",
				"minDstGasLookup(uint16,uint16)": "infinite",
				"mint()": "infinite",
				"name()": "infinite",
				"nonblockingLzReceive(uint16,bytes,uint64,bytes)": "infinite",
				"owner()": "2465",
				"ownerOf(uint256)": "2649",
				"payloadSizeLimitLookup(uint16)": "2608",
				"precrime()": "2382",
				"renounceOwnership()": "infinite",
				"retryMessage(uint16,bytes,uint64,bytes)": "infinite",
				"safeTransferFrom(address,address,uint256)": "infinite",
				"safeTransferFrom(address,address,uint256,bytes)": "infinite",
				"setApprovalForAll(address,bool)": "26791",
				"setConfig(uint16,uint16,uint256,bytes)": "infinite",
				"setMinDstGas(uint16,uint16,uint256)": "infinite",
				"setPayloadSizeLimit(uint16,uint256)": "24746",
				"setPrecrime(address)": "27849",
				"setReceiveVersion(uint16)": "infinite",
				"setSendVersion(uint16)": "infinite",
				"setTrustedRemote(uint16,bytes)": "infinite",
				"setTrustedRemoteAddress(uint16,bytes)": "infinite",
				"supportsInterface(bytes4)": "612",
				"symbol()": "infinite",
				"tokenURI(uint256)": "infinite",
				"transferFrom(address,address,uint256)": "infinite",
				"transferOwnership(address)": "infinite",
				"trustedRemoteLookup(uint16)": "infinite"
			},
			"internal": {
				"_nonblockingLzReceive(uint16,bytes memory,uint64,bytes memory)": "infinite"
			}
		},
		"methodIdentifiers": {
			"DEFAULT_PAYLOAD_SIZE_LIMIT()": "c4461834",
			"MAX_ID()": "17bac052",
			"approve(address,uint256)": "095ea7b3",
			"balanceOf(address)": "70a08231",
			"counter()": "61bc221a",
			"crossChain(uint16,uint256,address)": "8588cfad",
			"currentTokenId()": "009a9b7b",
			"estimateFees(uint16,uint256)": "362790f6",
			"failedMessages(uint16,bytes,uint64)": "5b8c41e6",
			"forceResumeReceive(uint16,bytes)": "42d65a8d",
			"getApproved(uint256)": "081812fc",
			"getConfig(uint16,uint16,address,uint256)": "f5ecbdbc",
			"getTrustedRemoteAddress(uint16)": "9f38369a",
			"isApprovedForAll(address,address)": "e985e9c5",
			"isTrustedRemote(uint16,bytes)": "3d8b38f6",
			"lzEndpoint()": "b353aaa7",
			"lzReceive(uint16,bytes,uint64,bytes)": "001d3567",
			"minDstGasLookup(uint16,uint16)": "8cfd8f5c",
			"mint()": "1249c58b",
			"name()": "06fdde03",
			"nonblockingLzReceive(uint16,bytes,uint64,bytes)": "66ad5c8a",
			"owner()": "8da5cb5b",
			"ownerOf(uint256)": "6352211e",
			"payloadSizeLimitLookup(uint16)": "3f1f4fa4",
			"precrime()": "950c8a74",
			"renounceOwnership()": "715018a6",
			"retryMessage(uint16,bytes,uint64,bytes)": "d1deba1f",
			"safeTransferFrom(address,address,uint256)": "42842e0e",
			"safeTransferFrom(address,address,uint256,bytes)": "b88d4fde",
			"setApprovalForAll(address,bool)": "a22cb465",
			"setConfig(uint16,uint16,uint256,bytes)": "cbed8b9c",
			"setMinDstGas(uint16,uint16,uint256)": "df2a5b3b",
			"setPayloadSizeLimit(uint16,uint256)": "0df37483",
			"setPrecrime(address)": "baf3292d",
			"setReceiveVersion(uint16)": "10ddb137",
			"setSendVersion(uint16)": "07e0db17",
			"setTrustedRemote(uint16,bytes)": "eb8d72b7",
			"setTrustedRemoteAddress(uint16,bytes)": "a6c3d165",
			"supportsInterface(bytes4)": "01ffc9a7",
			"symbol()": "95d89b41",
			"tokenURI(uint256)": "c87b56dd",
			"transferFrom(address,address,uint256)": "23b872dd",
			"transferOwnership(address)": "f2fde38b",
			"trustedRemoteLookup(uint16)": "7533d788"
		}
	},
	"abi": [
		{
			"inputs": [
				{
					"internalType": "address",
					"name": "_endpoint",
					"type": "address"
				},
				{
					"internalType": "uint256",
					"name": "_startTokenId",
					"type": "uint256"
				}
			],
			"stateMutability": "nonpayable",
			"type": "constructor"
		},
		{
			"inputs": [],
			"name": "InsufficientGas",
			"type": "error"
		},
		{
			"inputs": [],
			"name": "NotTokenOwner",
			"type": "error"
		},
		{
			"inputs": [],
			"name": "SupplyExceeded",
			"type": "error"
		},
		{
			"anonymous": false,
			"inputs": [
				{
					"indexed": true,
					"internalType": "address",
					"name": "owner",
					"type": "address"
				},
				{
					"indexed": true,
					"internalType": "address",
					"name": "approved",
					"type": "address"
				},
				{
					"indexed": true,
					"internalType": "uint256",
					"name": "tokenId",
					"type": "uint256"
				}
			],
			"name": "Approval",
			"type": "event"
		},
		{
			"anonymous": false,
			"inputs": [
				{
					"indexed": true,
					"internalType": "address",
					"name": "owner",
					"type": "address"
				},
				{
					"indexed": true,
					"internalType": "address",
					"name": "operator",
					"type": "address"
				},
				{
					"indexed": false,
					"internalType": "bool",
					"name": "approved",
					"type": "bool"
				}
			],
			"name": "ApprovalForAll",
			"type": "event"
		},
		{
			"anonymous": false,
			"inputs": [
				{
					"indexed": false,
					"internalType": "uint16",
					"name": "_srcChainId",
					"type": "uint16"
				},
				{
					"indexed": false,
					"internalType": "bytes",
					"name": "_srcAddress",
					"type": "bytes"
				},
				{
					"indexed": false,
					"internalType": "uint64",
					"name": "_nonce",
					"type": "uint64"
				},
				{
					"indexed": false,
					"internalType": "bytes",
					"name": "_payload",
					"type": "bytes"
				},
				{
					"indexed": false,
					"internalType": "bytes",
					"name": "_reason",
					"type": "bytes"
				}
			],
			"name": "MessageFailed",
			"type": "event"
		},
		{
			"anonymous": false,
			"inputs": [
				{
					"indexed": true,
					"internalType": "address",
					"name": "previousOwner",
					"type": "address"
				},
				{
					"indexed": true,
					"internalType": "address",
					"name": "newOwner",
					"type": "address"
				}
			],
			"name": "OwnershipTransferred",
			"type": "event"
		},
		{
			"anonymous": false,
			"inputs": [
				{
					"indexed": false,
					"internalType": "uint16",
					"name": "_srcChainId",
					"type": "uint16"
				},
				{
					"indexed": false,
					"internalType": "address",
					"name": "_from",
					"type": "address"
				},
				{
					"indexed": false,
					"internalType": "uint256",
					"name": "_tokenId",
					"type": "uint256"
				},
				{
					"indexed": false,
					"internalType": "uint256",
					"name": "counter",
					"type": "uint256"
				}
			],
			"name": "ReceivedNFT",
			"type": "event"
		},
		{
			"anonymous": false,
			"inputs": [
				{
					"indexed": false,
					"internalType": "uint16",
					"name": "_srcChainId",
					"type": "uint16"
				},
				{
					"indexed": false,
					"internalType": "bytes",
					"name": "_srcAddress",
					"type": "bytes"
				},
				{
					"indexed": false,
					"internalType": "uint64",
					"name": "_nonce",
					"type": "uint64"
				},
				{
					"indexed": false,
					"internalType": "bytes32",
					"name": "_payloadHash",
					"type": "bytes32"
				}
			],
			"name": "RetryMessageSuccess",
			"type": "event"
		},
		{
			"anonymous": false,
			"inputs": [
				{
					"indexed": false,
					"internalType": "uint16",
					"name": "_dstChainId",
					"type": "uint16"
				},
				{
					"indexed": false,
					"internalType": "uint16",
					"name": "_type",
					"type": "uint16"
				},
				{
					"indexed": false,
					"internalType": "uint256",
					"name": "_minDstGas",
					"type": "uint256"
				}
			],
			"name": "SetMinDstGas",
			"type": "event"
		},
		{
			"anonymous": false,
			"inputs": [
				{
					"indexed": false,
					"internalType": "address",
					"name": "precrime",
					"type": "address"
				}
			],
			"name": "SetPrecrime",
			"type": "event"
		},
		{
			"anonymous": false,
			"inputs": [
				{
					"indexed": false,
					"internalType": "uint16",
					"name": "_remoteChainId",
					"type": "uint16"
				},
				{
					"indexed": false,
					"internalType": "bytes",
					"name": "_path",
					"type": "bytes"
				}
			],
			"name": "SetTrustedRemote",
			"type": "event"
		},
		{
			"anonymous": false,
			"inputs": [
				{
					"indexed": false,
					"internalType": "uint16",
					"name": "_remoteChainId",
					"type": "uint16"
				},
				{
					"indexed": false,
					"internalType": "bytes",
					"name": "_remoteAddress",
					"type": "bytes"
				}
			],
			"name": "SetTrustedRemoteAddress",
			"type": "event"
		},
		{
			"anonymous": false,
			"inputs": [
				{
					"indexed": true,
					"internalType": "address",
					"name": "from",
					"type": "address"
				},
				{
					"indexed": true,
					"internalType": "address",
					"name": "to",
					"type": "address"
				},
				{
					"indexed": true,
					"internalType": "uint256",
					"name": "tokenId",
					"type": "uint256"
				}
			],
			"name": "Transfer",
			"type": "event"
		},
		{
			"inputs": [],
			"name": "DEFAULT_PAYLOAD_SIZE_LIMIT",
			"outputs": [
				{
					"internalType": "uint256",
					"name": "",
					"type": "uint256"
				}
			],
			"stateMutability": "view",
			"type": "function"
		},
		{
			"inputs": [],
			"name": "MAX_ID",
			"outputs": [
				{
					"internalType": "uint256",
					"name": "",
					"type": "uint256"
				}
			],
			"stateMutability": "view",
			"type": "function"
		},
		{
			"inputs": [
				{
					"internalType": "address",
					"name": "to",
					"type": "address"
				},
				{
					"internalType": "uint256",
					"name": "tokenId",
					"type": "uint256"
				}
			],
			"name": "approve",
			"outputs": [],
			"stateMutability": "nonpayable",
			"type": "function"
		},
		{
			"inputs": [
				{
					"internalType": "address",
					"name": "owner",
					"type": "address"
				}
			],
			"name": "balanceOf",
			"outputs": [
				{
					"internalType": "uint256",
					"name": "",
					"type": "uint256"
				}
			],
			"stateMutability": "view",
			"type": "function"
		},
		{
			"inputs": [],
			"name": "counter",
			"outputs": [
				{
					"internalType": "uint256",
					"name": "",
					"type": "uint256"
				}
			],
			"stateMutability": "view",
			"type": "function"
		},
		{
			"inputs": [
				{
					"internalType": "uint16",
					"name": "dstChainId",
					"type": "uint16"
				},
				{
					"internalType": "uint256",
					"name": "tokenId",
					"type": "uint256"
				},
				{
					"internalType": "address",
					"name": "_dstAddress",
					"type": "address"
				}
			],
			"name": "crossChain",
			"outputs": [],
			"stateMutability": "payable",
			"type": "function"
		},
		{
			"inputs": [],
			"name": "currentTokenId",
			"outputs": [
				{
					"internalType": "uint256",
					"name": "",
					"type": "uint256"
				}
			],
			"stateMutability": "view",
			"type": "function"
		},
		{
			"inputs": [
				{
					"internalType": "uint16",
					"name": "dstChainId",
					"type": "uint16"
				},
				{
					"internalType": "uint256",
					"name": "tokenId",
					"type": "uint256"
				}
			],
			"name": "estimateFees",
			"outputs": [
				{
					"internalType": "uint256",
					"name": "",
					"type": "uint256"
				}
			],
			"stateMutability": "view",
			"type": "function"
		},
		{
			"inputs": [
				{
					"internalType": "uint16",
					"name": "",
					"type": "uint16"
				},
				{
					"internalType": "bytes",
					"name": "",
					"type": "bytes"
				},
				{
					"internalType": "uint64",
					"name": "",
					"type": "uint64"
				}
			],
			"name": "failedMessages",
			"outputs": [
				{
					"internalType": "bytes32",
					"name": "",
					"type": "bytes32"
				}
			],
			"stateMutability": "view",
			"type": "function"
		},
		{
			"inputs": [
				{
					"internalType": "uint16",
					"name": "_srcChainId",
					"type": "uint16"
				},
				{
					"internalType": "bytes",
					"name": "_srcAddress",
					"type": "bytes"
				}
			],
			"name": "forceResumeReceive",
			"outputs": [],
			"stateMutability": "nonpayable",
			"type": "function"
		},
		{
			"inputs": [
				{
					"internalType": "uint256",
					"name": "tokenId",
					"type": "uint256"
				}
			],
			"name": "getApproved",
			"outputs": [
				{
					"internalType": "address",
					"name": "",
					"type": "address"
				}
			],
			"stateMutability": "view",
			"type": "function"
		},
		{
			"inputs": [
				{
					"internalType": "uint16",
					"name": "_version",
					"type": "uint16"
				},
				{
					"internalType": "uint16",
					"name": "_chainId",
					"type": "uint16"
				},
				{
					"internalType": "address",
					"name": "",
					"type": "address"
				},
				{
					"internalType": "uint256",
					"name": "_configType",
					"type": "uint256"
				}
			],
			"name": "getConfig",
			"outputs": [
				{
					"internalType": "bytes",
					"name": "",
					"type": "bytes"
				}
			],
			"stateMutability": "view",
			"type": "function"
		},
		{
			"inputs": [
				{
					"internalType": "uint16",
					"name": "_remoteChainId",
					"type": "uint16"
				}
			],
			"name": "getTrustedRemoteAddress",
			"outputs": [
				{
					"internalType": "bytes",
					"name": "",
					"type": "bytes"
				}
			],
			"stateMutability": "view",
			"type": "function"
		},
		{
			"inputs": [
				{
					"internalType": "address",
					"name": "owner",
					"type": "address"
				},
				{
					"internalType": "address",
					"name": "operator",
					"type": "address"
				}
			],
			"name": "isApprovedForAll",
			"outputs": [
				{
					"internalType": "bool",
					"name": "",
					"type": "bool"
				}
			],
			"stateMutability": "view",
			"type": "function"
		},
		{
			"inputs": [
				{
					"internalType": "uint16",
					"name": "_srcChainId",
					"type": "uint16"
				},
				{
					"internalType": "bytes",
					"name": "_srcAddress",
					"type": "bytes"
				}
			],
			"name": "isTrustedRemote",
			"outputs": [
				{
					"internalType": "bool",
					"name": "",
					"type": "bool"
				}
			],
			"stateMutability": "view",
			"type": "function"
		},
		{
			"inputs": [],
			"name": "lzEndpoint",
			"outputs": [
				{
					"internalType": "contract ILayerZeroEndpoint",
					"name": "",
					"type": "address"
				}
			],
			"stateMutability": "view",
			"type": "function"
		},
		{
			"inputs": [
				{
					"internalType": "uint16",
					"name": "_srcChainId",
					"type": "uint16"
				},
				{
					"internalType": "bytes",
					"name": "_srcAddress",
					"type": "bytes"
				},
				{
					"internalType": "uint64",
					"name": "_nonce",
					"type": "uint64"
				},
				{
					"internalType": "bytes",
					"name": "_payload",
					"type": "bytes"
				}
			],
			"name": "lzReceive",
			"outputs": [],
			"stateMutability": "nonpayable",
			"type": "function"
		},
		{
			"inputs": [
				{
					"internalType": "uint16",
					"name": "",
					"type": "uint16"
				},
				{
					"internalType": "uint16",
					"name": "",
					"type": "uint16"
				}
			],
			"name": "minDstGasLookup",
			"outputs": [
				{
					"internalType": "uint256",
					"name": "",
					"type": "uint256"
				}
			],
			"stateMutability": "view",
			"type": "function"
		},
		{
			"inputs": [],
			"name": "mint",
			"outputs": [],
			"stateMutability": "nonpayable",
			"type": "function"
		},
		{
			"inputs": [],
			"name": "name",
			"outputs": [
				{
					"internalType": "string",
					"name": "",
					"type": "string"
				}
			],
			"stateMutability": "view",
			"type": "function"
		},
		{
			"inputs": [
				{
					"internalType": "uint16",
					"name": "_srcChainId",
					"type": "uint16"
				},
				{
					"internalType": "bytes",
					"name": "_srcAddress",
					"type": "bytes"
				},
				{
					"internalType": "uint64",
					"name": "_nonce",
					"type": "uint64"
				},
				{
					"internalType": "bytes",
					"name": "_payload",
					"type": "bytes"
				}
			],
			"name": "nonblockingLzReceive",
			"outputs": [],
			"stateMutability": "nonpayable",
			"type": "function"
		},
		{
			"inputs": [],
			"name": "owner",
			"outputs": [
				{
					"internalType": "address",
					"name": "",
					"type": "address"
				}
			],
			"stateMutability": "view",
			"type": "function"
		},
		{
			"inputs": [
				{
					"internalType": "uint256",
					"name": "tokenId",
					"type": "uint256"
				}
			],
			"name": "ownerOf",
			"outputs": [
				{
					"internalType": "address",
					"name": "",
					"type": "address"
				}
			],
			"stateMutability": "view",
			"type": "function"
		},
		{
			"inputs": [
				{
					"internalType": "uint16",
					"name": "",
					"type": "uint16"
				}
			],
			"name": "payloadSizeLimitLookup",
			"outputs": [
				{
					"internalType": "uint256",
					"name": "",
					"type": "uint256"
				}
			],
			"stateMutability": "view",
			"type": "function"
		},
		{
			"inputs": [],
			"name": "precrime",
			"outputs": [
				{
					"internalType": "address",
					"name": "",
					"type": "address"
				}
			],
			"stateMutability": "view",
			"type": "function"
		},
		{
			"inputs": [],
			"name": "renounceOwnership",
			"outputs": [],
			"stateMutability": "nonpayable",
			"type": "function"
		},
		{
			"inputs": [
				{
					"internalType": "uint16",
					"name": "_srcChainId",
					"type": "uint16"
				},
				{
					"internalType": "bytes",
					"name": "_srcAddress",
					"type": "bytes"
				},
				{
					"internalType": "uint64",
					"name": "_nonce",
					"type": "uint64"
				},
				{
					"internalType": "bytes",
					"name": "_payload",
					"type": "bytes"
				}
			],
			"name": "retryMessage",
			"outputs": [],
			"stateMutability": "payable",
			"type": "function"
		},
		{
			"inputs": [
				{
					"internalType": "address",
					"name": "from",
					"type": "address"
				},
				{
					"internalType": "address",
					"name": "to",
					"type": "address"
				},
				{
					"internalType": "uint256",
					"name": "tokenId",
					"type": "uint256"
				}
			],
			"name": "safeTransferFrom",
			"outputs": [],
			"stateMutability": "nonpayable",
			"type": "function"
		},
		{
			"inputs": [
				{
					"internalType": "address",
					"name": "from",
					"type": "address"
				},
				{
					"internalType": "address",
					"name": "to",
					"type": "address"
				},
				{
					"internalType": "uint256",
					"name": "tokenId",
					"type": "uint256"
				},
				{
					"internalType": "bytes",
					"name": "data",
					"type": "bytes"
				}
			],
			"name": "safeTransferFrom",
			"outputs": [],
			"stateMutability": "nonpayable",
			"type": "function"
		},
		{
			"inputs": [
				{
					"internalType": "address",
					"name": "operator",
					"type": "address"
				},
				{
					"internalType": "bool",
					"name": "approved",
					"type": "bool"
				}
			],
			"name": "setApprovalForAll",
			"outputs": [],
			"stateMutability": "nonpayable",
			"type": "function"
		},
		{
			"inputs": [
				{
					"internalType": "uint16",
					"name": "_version",
					"type": "uint16"
				},
				{
					"internalType": "uint16",
					"name": "_chainId",
					"type": "uint16"
				},
				{
					"internalType": "uint256",
					"name": "_configType",
					"type": "uint256"
				},
				{
					"internalType": "bytes",
					"name": "_config",
					"type": "bytes"
				}
			],
			"name": "setConfig",
			"outputs": [],
			"stateMutability": "nonpayable",
			"type": "function"
		},
		{
			"inputs": [
				{
					"internalType": "uint16",
					"name": "_dstChainId",
					"type": "uint16"
				},
				{
					"internalType": "uint16",
					"name": "_packetType",
					"type": "uint16"
				},
				{
					"internalType": "uint256",
					"name": "_minGas",
					"type": "uint256"
				}
			],
			"name": "setMinDstGas",
			"outputs": [],
			"stateMutability": "nonpayable",
			"type": "function"
		},
		{
			"inputs": [
				{
					"internalType": "uint16",
					"name": "_dstChainId",
					"type": "uint16"
				},
				{
					"internalType": "uint256",
					"name": "_size",
					"type": "uint256"
				}
			],
			"name": "setPayloadSizeLimit",
			"outputs": [],
			"stateMutability": "nonpayable",
			"type": "function"
		},
		{
			"inputs": [
				{
					"internalType": "address",
					"name": "_precrime",
					"type": "address"
				}
			],
			"name": "setPrecrime",
			"outputs": [],
			"stateMutability": "nonpayable",
			"type": "function"
		},
		{
			"inputs": [
				{
					"internalType": "uint16",
					"name": "_version",
					"type": "uint16"
				}
			],
			"name": "setReceiveVersion",
			"outputs": [],
			"stateMutability": "nonpayable",
			"type": "function"
		},
		{
			"inputs": [
				{
					"internalType": "uint16",
					"name": "_version",
					"type": "uint16"
				}
			],
			"name": "setSendVersion",
			"outputs": [],
			"stateMutability": "nonpayable",
			"type": "function"
		},
		{
			"inputs": [
				{
					"internalType": "uint16",
					"name": "_srcChainId",
					"type": "uint16"
				},
				{
					"internalType": "bytes",
					"name": "_path",
					"type": "bytes"
				}
			],
			"name": "setTrustedRemote",
			"outputs": [],
			"stateMutability": "nonpayable",
			"type": "function"
		},
		{
			"inputs": [
				{
					"internalType": "uint16",
					"name": "_remoteChainId",
					"type": "uint16"
				},
				{
					"internalType": "bytes",
					"name": "_remoteAddress",
					"type": "bytes"
				}
			],
			"name": "setTrustedRemoteAddress",
			"outputs": [],
			"stateMutability": "nonpayable",
			"type": "function"
		},
		{
			"inputs": [
				{
					"internalType": "bytes4",
					"name": "interfaceId",
					"type": "bytes4"
				}
			],
			"name": "supportsInterface",
			"outputs": [
				{
					"internalType": "bool",
					"name": "",
					"type": "bool"
				}
			],
			"stateMutability": "view",
			"type": "function"
		},
		{
			"inputs": [],
			"name": "symbol",
			"outputs": [
				{
					"internalType": "string",
					"name": "",
					"type": "string"
				}
			],
			"stateMutability": "view",
			"type": "function"
		},
		{
			"inputs": [
				{
					"internalType": "uint256",
					"name": "tokenId",
					"type": "uint256"
				}
			],
			"name": "tokenURI",
			"outputs": [
				{
					"internalType": "string",
					"name": "",
					"type": "string"
				}
			],
			"stateMutability": "view",
			"type": "function"
		},
		{
			"inputs": [
				{
					"internalType": "address",
					"name": "from",
					"type": "address"
				},
				{
					"internalType": "address",
					"name": "to",
					"type": "address"
				},
				{
					"internalType": "uint256",
					"name": "tokenId",
					"type": "uint256"
				}
			],
			"name": "transferFrom",
			"outputs": [],
			"stateMutability": "nonpayable",
			"type": "function"
		},
		{
			"inputs": [
				{
					"internalType": "address",
					"name": "newOwner",
					"type": "address"
				}
			],
			"name": "transferOwnership",
			"outputs": [],
			"stateMutability": "nonpayable",
			"type": "function"
		},
		{
			"inputs": [
				{
					"internalType": "uint16",
					"name": "",
					"type": "uint16"
				}
			],
			"name": "trustedRemoteLookup",
			"outputs": [
				{
					"internalType": "bytes",
					"name": "",
					"type": "bytes"
				}
			],
			"stateMutability": "view",
			"type": "function"
		}
	]
}