{
	"data": {
		"bytecode": {
			"linkReferences": {},
			"object": "60e0604052601460a08190527f4e6f7468696e672072656365697665642079657400000000000000000000000060c090815262000040916006919062000149565b503480156200004e57600080fd5b50604051620024cd380380620024cd8339810160408190526200007191620001ef565b80806200007e33620000f9565b6001600160a01b039081166080528216736ab5ae6822647046626e83ee6db8187151e1d5ab14159050620000bc576007805461ffff191661279f1790555b736fcb97553d41516cb228ac03fdc8b9a0a9df04a16001600160a01b0382161415620000f2576007805461ffff19166127761790555b506200025e565b600080546001600160a01b038381166001600160a01b0319831681178455604051919092169283917f8be0079c531659141344cd1fd0a4f28419497f9722a3daafe3b4186f6b6457e09190a35050565b828054620001579062000221565b90600052602060002090601f0160209004810192826200017b5760008555620001c6565b82601f106200019657805160ff1916838001178555620001c6565b82800160010185558215620001c6579182015b82811115620001c6578251825591602001919060010190620001a9565b50620001d4929150620001d8565b5090565b5b80821115620001d45760008155600101620001d9565b6000602082840312156200020257600080fd5b81516001600160a01b03811681146200021a57600080fd5b9392505050565b600181811c908216806200023657607f821691505b602082108114156200025857634e487b7160e01b600052602260045260246000fd5b50919050565b608051612222620002ab600039600081816104a2015281816105b0015281816107ff015281816108a7015281816109ca01528181610e99015281816112db015261156701526122226000f3fe6080604052600436106101b65760003560e01c80638cfd8f5c116100ec578063c44618341161008a578063df2a5b3b11610064578063df2a5b3b1461052d578063eb8d72b71461054d578063f2fde38b1461056d578063f5ecbdbc1461058d57600080fd5b8063c4461834146104e4578063cbed8b9c146104fa578063d1deba1f1461051a57600080fd5b80639f38369a116100c65780639f38369a14610450578063a6c3d16514610470578063b353aaa714610490578063baf3292d146104c457600080fd5b80638cfd8f5c146103c65780638da5cb5b146103fe578063950c8a741461043057600080fd5b80635b8c41e61161015957806366ad5c8a1161013357806366ad5c8a1461034f578063715018a61461036f57806373d4a13a146103845780637533d788146103a657600080fd5b80635b8c41e6146102cd5780635cdf16491461031c57806366792ba11461033c57600080fd5b806310ddb1371161019557806310ddb1371461021d5780633d8b38f61461023d5780633f1f4fa41461027257806342d65a8d146102ad57600080fd5b80621d3567146101bb57806307e0db17146101dd5780630df37483146101fd575b600080fd5b3480156101c757600080fd5b506101db6101d6366004611a85565b6105ad565b005b3480156101e957600080fd5b506101db6101f8366004611b18565b6107de565b34801561020957600080fd5b506101db610218366004611b33565b610867565b34801561022957600080fd5b506101db610238366004611b18565b610886565b34801561024957600080fd5b5061025d610258366004611b5d565b6108de565b60405190151581526020015b60405180910390f35b34801561027e57600080fd5b5061029f61028d366004611b18565b60036020526000908152604090205481565b604051908152602001610269565b3480156102b957600080fd5b506101db6102c8366004611b5d565b6109ab565b3480156102d957600080fd5b5061029f6102e8366004611c5a565b6005602090815260009384526040808520845180860184018051928152908401958401959095209452929052825290205481565b34801561032857600080fd5b506101db610337366004611ce2565b610a31565b6101db61034a366004611cfd565b610a9d565b34801561035b57600080fd5b506101db61036a366004611a85565b610ae4565b34801561037b57600080fd5b506101db610bc0565b34801561039057600080fd5b50610399610bd4565b6040516102699190611da9565b3480156103b257600080fd5b506103996103c1366004611b18565b610c62565b3480156103d257600080fd5b5061029f6103e1366004611dbc565b600260209081526000928352604080842090915290825290205481565b34801561040a57600080fd5b506000546001600160a01b03165b6040516001600160a01b039091168152602001610269565b34801561043c57600080fd5b50600454610418906001600160a01b031681565b34801561045c57600080fd5b5061039961046b366004611b18565b610c7b565b34801561047c57600080fd5b506101db61048b366004611b5d565b610d8b565b34801561049c57600080fd5b506104187f000000000000000000000000000000000000000000000000000000000000000081565b3480156104d057600080fd5b506101db6104df366004611ce2565b610e1e565b3480156104f057600080fd5b5061029f61271081565b34801561050657600080fd5b506101db610515366004611def565b610e7a565b6101db610528366004611a85565b610f0f565b34801561053957600080fd5b506101db610548366004611e5d565b611125565b34801561055957600080fd5b506101db610568366004611b5d565b6111d7565b34801561057957600080fd5b506101db610588366004611ce2565b611231565b34801561059957600080fd5b506103996105a8366004611e99565b6112aa565b337f00000000000000000000000000000000000000000000000000000000000000006001600160a01b03161461062a5760405162461bcd60e51b815260206004820152601e60248201527f4c7a4170703a20696e76616c696420656e64706f696e742063616c6c6572000060448201526064015b60405180910390fd5b61ffff86166000908152600160205260408120805461064890611ee4565b80601f016020809104026020016040519081016040528092919081815260200182805461067490611ee4565b80156106c15780601f10610696576101008083540402835291602001916106c1565b820191906000526020600020905b8154815290600101906020018083116106a457829003601f168201915b505050505090508051868690501480156106dc575060008151115b80156107045750805160208201206040516106fa9088908890611f1f565b6040518091039020145b61075f5760405162461bcd60e51b815260206004820152602660248201527f4c7a4170703a20696e76616c696420736f757263652073656e64696e6720636f6044820152651b9d1c9858dd60d21b6064820152608401610621565b6107d58787878080601f01602080910402602001604051908101604052809392919081815260200183838082843760009201919091525050604080516020601f8a018190048102820181019092528881528a93509150889088908190840183828082843760009201919091525061136a92505050565b50505050505050565b6107e66113e3565b6040516307e0db1760e01b815261ffff821660048201527f00000000000000000000000000000000000000000000000000000000000000006001600160a01b0316906307e0db17906024015b600060405180830381600087803b15801561084c57600080fd5b505af1158015610860573d6000803e3d6000fd5b5050505050565b61086f6113e3565b61ffff909116600090815260036020526040902055565b61088e6113e3565b6040516310ddb13760e01b815261ffff821660048201527f00000000000000000000000000000000000000000000000000000000000000006001600160a01b0316906310ddb13790602401610832565b61ffff8316600090815260016020526040812080548291906108ff90611ee4565b80601f016020809104026020016040519081016040528092919081815260200182805461092b90611ee4565b80156109785780601f1061094d57610100808354040283529160200191610978565b820191906000526020600020905b81548152906001019060200180831161095b57829003601f168201915b50505050509050838360405161098f929190611f1f565b60405180910390208180519060200120149150505b9392505050565b6109b36113e3565b6040516342d65a8d60e01b81526001600160a01b037f000000000000000000000000000000000000000000000000000000000000000016906342d65a8d90610a0390869086908690600401611f58565b600060405180830381600087803b158015610a1d57600080fd5b505af11580156107d5573d6000803e3d6000fd5b610a396113e3565b6040516bffffffffffffffffffffffff19606083811b8216602084015230901b16603482015260480160408051601f1981840301815291815260075461ffff166000908152600160209081529190208251610a9993919290910190611902565b5050565b600081604051602001610ab09190611da9565b60408051601f19818403018152600754602084019092526000808452909350610a999261ffff90921691849133913461143d565b333014610b425760405162461bcd60e51b815260206004820152602660248201527f4e6f6e626c6f636b696e674c7a4170703a2063616c6c6572206d7573742062656044820152650204c7a4170760d41b6064820152608401610621565b610bb88686868080601f01602080910402602001604051908101604052809392919081815260200183838082843760009201919091525050604080516020601f8901819004810282018101909252878152899350915087908790819084018382808284376000920191909152506115e392505050565b505050505050565b610bc86113e3565b610bd2600061160b565b565b60068054610be190611ee4565b80601f0160208091040260200160405190810160405280929190818152602001828054610c0d90611ee4565b8015610c5a5780601f10610c2f57610100808354040283529160200191610c5a565b820191906000526020600020905b815481529060010190602001808311610c3d57829003601f168201915b505050505081565b60016020526000908152604090208054610be190611ee4565b61ffff8116600090815260016020526040812080546060929190610c9e90611ee4565b80601f0160208091040260200160405190810160405280929190818152602001828054610cca90611ee4565b8015610d175780601f10610cec57610100808354040283529160200191610d17565b820191906000526020600020905b815481529060010190602001808311610cfa57829003601f168201915b50505050509050805160001415610d705760405162461bcd60e51b815260206004820152601d60248201527f4c7a4170703a206e6f20747275737465642070617468207265636f72640000006044820152606401610621565b6109a4600060148351610d839190611f8c565b83919061165b565b610d936113e3565b818130604051602001610da893929190611fa3565b60408051601f1981840301815291815261ffff85166000908152600160209081529190208251610ddd93919290910190611902565b507f8c0400cfe2d1199b1a725c78960bcc2a344d869b80590d0f2bd005db15a572ce838383604051610e1193929190611f58565b60405180910390a1505050565b610e266113e3565b600480546001600160a01b0319166001600160a01b0383169081179091556040519081527f5db758e995a17ec1ad84bdef7e8c3293a0bd6179bcce400dff5d4c3d87db726b9060200160405180910390a150565b610e826113e3565b6040516332fb62e760e21b81526001600160a01b037f0000000000000000000000000000000000000000000000000000000000000000169063cbed8b9c90610ed69088908890889088908890600401611fc9565b600060405180830381600087803b158015610ef057600080fd5b505af1158015610f04573d6000803e3d6000fd5b505050505050505050565b61ffff86166000908152600560205260408082209051610f329088908890611f1f565b90815260408051602092819003830190206001600160401b03871660009081529252902054905080610fb25760405162461bcd60e51b815260206004820152602360248201527f4e6f6e626c6f636b696e674c7a4170703a206e6f2073746f726564206d65737360448201526261676560e81b6064820152608401610621565b808383604051610fc3929190611f1f565b6040518091039020146110225760405162461bcd60e51b815260206004820152602160248201527f4e6f6e626c6f636b696e674c7a4170703a20696e76616c6964207061796c6f616044820152601960fa1b6064820152608401610621565b61ffff871660009081526005602052604080822090516110459089908990611f1f565b90815260408051602092819003830181206001600160401b038916600090815290845282902093909355601f880182900482028301820190528682526110dd918991899089908190840183828082843760009201919091525050604080516020601f8a018190048102820181019092528881528a9350915088908890819084018382808284376000920191909152506115e392505050565b7fc264d91f3adc5588250e1551f547752ca0cfa8f6b530d243b9f9f4cab10ea8e58787878785604051611114959493929190612002565b60405180910390a150505050505050565b61112d6113e3565b600081116111755760405162461bcd60e51b81526020600482015260156024820152744c7a4170703a20696e76616c6964206d696e47617360581b6044820152606401610621565b61ffff83811660008181526002602090815260408083209487168084529482529182902085905581519283528201929092529081018290527f9d5c7c0b934da8fefa9c7760c98383778a12dfbfc0c3b3106518f43fb9508ac090606001610e11565b6111df6113e3565b61ffff831660009081526001602052604090206111fd908383611986565b507ffa41487ad5d6728f0b19276fa1eddc16558578f5109fc39d2dc33c3230470dab838383604051610e1193929190611f58565b6112396113e3565b6001600160a01b03811661129e5760405162461bcd60e51b815260206004820152602660248201527f4f776e61626c653a206e6577206f776e657220697320746865207a65726f206160448201526564647265737360d01b6064820152608401610621565b6112a78161160b565b50565b604051633d7b2f6f60e21b815261ffff808616600483015284166024820152306044820152606481018290526060907f00000000000000000000000000000000000000000000000000000000000000006001600160a01b03169063f5ecbdbc9060840160006040518083038186803b15801561132557600080fd5b505afa158015611339573d6000803e3d6000fd5b505050506040513d6000823e601f3d908101601f19168201604052611361919081019061206d565b95945050505050565b6000806113cd5a60966366ad5c8a60e01b8989898960405160240161139294939291906120b5565b60408051601f198184030181529190526020810180516001600160e01b03166001600160e01b03199093169290921790915230929190611768565b9150915081610bb857610bb886868686856117f2565b6000546001600160a01b03163314610bd25760405162461bcd60e51b815260206004820181905260248201527f4f776e61626c653a2063616c6c6572206973206e6f7420746865206f776e65726044820152606401610621565b61ffff86166000908152600160205260408120805461145b90611ee4565b80601f016020809104026020016040519081016040528092919081815260200182805461148790611ee4565b80156114d45780601f106114a9576101008083540402835291602001916114d4565b820191906000526020600020905b8154815290600101906020018083116114b757829003601f168201915b505050505090508051600014156115465760405162461bcd60e51b815260206004820152603060248201527f4c7a4170703a2064657374696e6174696f6e20636861696e206973206e6f742060448201526f61207472757374656420736f7572636560801b6064820152608401610621565b61155187875161188f565b60405162c5803160e81b81526001600160a01b037f0000000000000000000000000000000000000000000000000000000000000000169063c58031009084906115a8908b9086908c908c908c908c906004016120f3565b6000604051808303818588803b1580156115c157600080fd5b505af11580156115d5573d6000803e3d6000fd5b505050505050505050505050565b808060200190518101906115f7919061206d565b805161086091600691602090910190611902565b600080546001600160a01b038381166001600160a01b0319831681178455604051919092169283917f8be0079c531659141344cd1fd0a4f28419497f9722a3daafe3b4186f6b6457e09190a35050565b60608161166981601f61215a565b10156116a85760405162461bcd60e51b815260206004820152600e60248201526d736c6963655f6f766572666c6f7760901b6044820152606401610621565b6116b2828461215a565b845110156116f65760405162461bcd60e51b8152602060048201526011602482015270736c6963655f6f75744f66426f756e647360781b6044820152606401610621565b606082158015611715576040519150600082526020820160405261175f565b6040519150601f8416801560200281840101858101878315602002848b0101015b8183101561174e578051835260209283019201611736565b5050858452601f01601f1916604052505b50949350505050565b6000606060008060008661ffff166001600160401b0381111561178d5761178d611baf565b6040519080825280601f01601f1916602001820160405280156117b7576020820181803683370190505b50905060008087516020890160008d8df191503d9250868311156117d9578692505b828152826000602083013e909890975095505050505050565b8180519060200120600560008761ffff1661ffff168152602001908152602001600020856040516118239190612172565b9081526040805191829003602090810183206001600160401b0388166000908152915220919091557fe183f33de2837795525b4792ca4cd60535bd77c53b7e7030060bfcf5734d6b0c90611880908790879087908790879061218e565b60405180910390a15050505050565b61ffff8216600090815260036020526040902054806118ad57506127105b808211156118fd5760405162461bcd60e51b815260206004820181905260248201527f4c7a4170703a207061796c6f61642073697a6520697320746f6f206c617267656044820152606401610621565b505050565b82805461190e90611ee4565b90600052602060002090601f0160209004810192826119305760008555611976565b82601f1061194957805160ff1916838001178555611976565b82800160010185558215611976579182015b8281111561197657825182559160200191906001019061195b565b506119829291506119fa565b5090565b82805461199290611ee4565b90600052602060002090601f0160209004810192826119b45760008555611976565b82601f106119cd5782800160ff19823516178555611976565b82800160010185558215611976579182015b828111156119765782358255916020019190600101906119df565b5b8082111561198257600081556001016119fb565b803561ffff81168114611a2157600080fd5b919050565b60008083601f840112611a3857600080fd5b5081356001600160401b03811115611a4f57600080fd5b602083019150836020828501011115611a6757600080fd5b9250929050565b80356001600160401b0381168114611a2157600080fd5b60008060008060008060808789031215611a9e57600080fd5b611aa787611a0f565b955060208701356001600160401b0380821115611ac357600080fd5b611acf8a838b01611a26565b9097509550859150611ae360408a01611a6e565b94506060890135915080821115611af957600080fd5b50611b0689828a01611a26565b979a9699509497509295939492505050565b600060208284031215611b2a57600080fd5b6109a482611a0f565b60008060408385031215611b4657600080fd5b611b4f83611a0f565b946020939093013593505050565b600080600060408486031215611b7257600080fd5b611b7b84611a0f565b925060208401356001600160401b03811115611b9657600080fd5b611ba286828701611a26565b9497909650939450505050565b634e487b7160e01b600052604160045260246000fd5b604051601f8201601f191681016001600160401b0381118282101715611bed57611bed611baf565b604052919050565b60006001600160401b03821115611c0e57611c0e611baf565b50601f01601f191660200190565b6000611c2f611c2a84611bf5565b611bc5565b9050828152838383011115611c4357600080fd5b828260208301376000602084830101529392505050565b600080600060608486031215611c6f57600080fd5b611c7884611a0f565b925060208401356001600160401b03811115611c9357600080fd5b8401601f81018613611ca457600080fd5b611cb386823560208401611c1c565b925050611cc260408501611a6e565b90509250925092565b80356001600160a01b0381168114611a2157600080fd5b600060208284031215611cf457600080fd5b6109a482611ccb565b600060208284031215611d0f57600080fd5b81356001600160401b03811115611d2557600080fd5b8201601f81018413611d3657600080fd5b611d4584823560208401611c1c565b949350505050565b60005b83811015611d68578181015183820152602001611d50565b83811115611d77576000848401525b50505050565b60008151808452611d95816020860160208601611d4d565b601f01601f19169290920160200192915050565b6020815260006109a46020830184611d7d565b60008060408385031215611dcf57600080fd5b611dd883611a0f565b9150611de660208401611a0f565b90509250929050565b600080600080600060808688031215611e0757600080fd5b611e1086611a0f565b9450611e1e60208701611a0f565b93506040860135925060608601356001600160401b03811115611e4057600080fd5b611e4c88828901611a26565b969995985093965092949392505050565b600080600060608486031215611e7257600080fd5b611e7b84611a0f565b9250611e8960208501611a0f565b9150604084013590509250925092565b60008060008060808587031215611eaf57600080fd5b611eb885611a0f565b9350611ec660208601611a0f565b9250611ed460408601611ccb565b9396929550929360600135925050565b600181811c90821680611ef857607f821691505b60208210811415611f1957634e487b7160e01b600052602260045260246000fd5b50919050565b8183823760009101908152919050565b81835281816020850137506000828201602090810191909152601f909101601f19169091010190565b61ffff84168152604060208201526000611361604083018486611f2f565b634e487b7160e01b600052601160045260246000fd5b600082821015611f9e57611f9e611f76565b500390565b8284823760609190911b6bffffffffffffffffffffffff19169101908152601401919050565b600061ffff808816835280871660208401525084604083015260806060830152611ff7608083018486611f2f565b979650505050505050565b61ffff86168152608060208201526000612020608083018688611f2f565b6001600160401b0394909416604083015250606001529392505050565b600061204b611c2a84611bf5565b905082815283838301111561205f57600080fd5b6109a4836020830184611d4d565b60006020828403121561207f57600080fd5b81516001600160401b0381111561209557600080fd5b8201601f810184136120a657600080fd5b611d458482516020840161203d565b61ffff851681526080602082015260006120d26080830186611d7d565b6001600160401b03851660408401528281036060840152611ff78185611d7d565b61ffff8716815260c06020820152600061211060c0830188611d7d565b82810360408401526121228188611d7d565b6001600160a01b0387811660608601528616608085015283810360a0850152905061214d8185611d7d565b9998505050505050505050565b6000821982111561216d5761216d611f76565b500190565b60008251612184818460208701611d4d565b9190910192915050565b61ffff8616815260a0602082015260006121ab60a0830187611d7d565b6001600160401b038616604084015282810360608401526121cc8186611d7d565b905082810360808401526121e08185611d7d565b9897505050505050505056fea264697066735822122078566df60312db95fcd6bf1ea4daf1f58ac441c985ba338a528ec47fd5a1a80964736f6c63430008090033",
			"opcodes": "PUSH1 0xE0 PUSH1 0x40 MSTORE PUSH1 0x14 PUSH1 0xA0 DUP2 SWAP1 MSTORE PUSH32 0x4E6F7468696E6720726563656976656420796574000000000000000000000000 PUSH1 0xC0 SWAP1 DUP2 MSTORE PUSH3 0x40 SWAP2 PUSH1 0x6 SWAP2 SWAP1 PUSH3 0x149 JUMP JUMPDEST POP CALLVALUE DUP1 ISZERO PUSH3 0x4E JUMPI PUSH1 0x0 DUP1 REVERT JUMPDEST POP PUSH1 0x40 MLOAD PUSH3 0x24CD CODESIZE SUB DUP1 PUSH3 0x24CD DUP4 CODECOPY DUP2 ADD PUSH1 0x40 DUP2 SWAP1 MSTORE PUSH3 0x71 SWAP2 PUSH3 0x1EF JUMP JUMPDEST DUP1 DUP1 PUSH3 0x7E CALLER PUSH3 0xF9 JUMP JUMPDEST PUSH1 0x1 PUSH1 0x1 PUSH1 0xA0 SHL SUB SWAP1 DUP2 AND PUSH1 0x80 MSTORE DUP3 AND PUSH20 0x6AB5AE6822647046626E83EE6DB8187151E1D5AB EQ ISZERO SWAP1 POP PUSH3 0xBC JUMPI PUSH1 0x7 DUP1 SLOAD PUSH2 0xFFFF NOT AND PUSH2 0x279F OR SWAP1 SSTORE JUMPDEST PUSH20 0x6FCB97553D41516CB228AC03FDC8B9A0A9DF04A1 PUSH1 0x1 PUSH1 0x1 PUSH1 0xA0 SHL SUB DUP3 AND EQ ISZERO PUSH3 0xF2 JUMPI PUSH1 0x7 DUP1 SLOAD PUSH2 0xFFFF NOT AND PUSH2 0x2776 OR SWAP1 SSTORE JUMPDEST POP PUSH3 0x25E JUMP JUMPDEST PUSH1 0x0 DUP1 SLOAD PUSH1 0x1 PUSH1 0x1 PUSH1 0xA0 SHL SUB DUP4 DUP2 AND PUSH1 0x1 PUSH1 0x1 PUSH1 0xA0 SHL SUB NOT DUP4 AND DUP2 OR DUP5 SSTORE PUSH1 0x40 MLOAD SWAP2 SWAP1 SWAP3 AND SWAP3 DUP4 SWAP2 PUSH32 0x8BE0079C531659141344CD1FD0A4F28419497F9722A3DAAFE3B4186F6B6457E0 SWAP2 SWAP1 LOG3 POP POP JUMP JUMPDEST DUP3 DUP1 SLOAD PUSH3 0x157 SWAP1 PUSH3 0x221 JUMP JUMPDEST SWAP1 PUSH1 0x0 MSTORE PUSH1 0x20 PUSH1 0x0 KECCAK256 SWAP1 PUSH1 0x1F ADD PUSH1 0x20 SWAP1 DIV DUP2 ADD SWAP3 DUP3 PUSH3 0x17B JUMPI PUSH1 0x0 DUP6 SSTORE PUSH3 0x1C6 JUMP JUMPDEST DUP3 PUSH1 0x1F LT PUSH3 0x196 JUMPI DUP1 MLOAD PUSH1 0xFF NOT AND DUP4 DUP1 ADD OR DUP6 SSTORE PUSH3 0x1C6 JUMP JUMPDEST DUP3 DUP1 ADD PUSH1 0x1 ADD DUP6 SSTORE DUP3 ISZERO PUSH3 0x1C6 JUMPI SWAP2 DUP3 ADD JUMPDEST DUP3 DUP2 GT ISZERO PUSH3 0x1C6 JUMPI DUP3 MLOAD DUP3 SSTORE SWAP2 PUSH1 0x20 ADD SWAP2 SWAP1 PUSH1 0x1 ADD SWAP1 PUSH3 0x1A9 JUMP JUMPDEST POP PUSH3 0x1D4 SWAP3 SWAP2 POP PUSH3 0x1D8 JUMP JUMPDEST POP SWAP1 JUMP JUMPDEST JUMPDEST DUP1 DUP3 GT ISZERO PUSH3 0x1D4 JUMPI PUSH1 0x0 DUP2 SSTORE PUSH1 0x1 ADD PUSH3 0x1D9 JUMP JUMPDEST PUSH1 0x0 PUSH1 0x20 DUP3 DUP5 SUB SLT ISZERO PUSH3 0x202 JUMPI PUSH1 0x0 DUP1 REVERT JUMPDEST DUP2 MLOAD PUSH1 0x1 PUSH1 0x1 PUSH1 0xA0 SHL SUB DUP2 AND DUP2 EQ PUSH3 0x21A JUMPI PUSH1 0x0 DUP1 REVERT JUMPDEST SWAP4 SWAP3 POP POP POP JUMP JUMPDEST PUSH1 0x1 DUP2 DUP2 SHR SWAP1 DUP3 AND DUP1 PUSH3 0x236 JUMPI PUSH1 0x7F DUP3 AND SWAP2 POP JUMPDEST PUSH1 0x20 DUP3 LT DUP2 EQ ISZERO PUSH3 0x258 JUMPI PUSH4 0x4E487B71 PUSH1 0xE0 SHL PUSH1 0x0 MSTORE PUSH1 0x22 PUSH1 0x4 MSTORE PUSH1 0x24 PUSH1 0x0 REVERT JUMPDEST POP SWAP2 SWAP1 POP JUMP JUMPDEST PUSH1 0x80 MLOAD PUSH2 0x2222 PUSH3 0x2AB PUSH1 0x0 CODECOPY PUSH1 0x0 DUP2 DUP2 PUSH2 0x4A2 ADD MSTORE DUP2 DUP2 PUSH2 0x5B0 ADD MSTORE DUP2 DUP2 PUSH2 0x7FF ADD MSTORE DUP2 DUP2 PUSH2 0x8A7 ADD MSTORE DUP2 DUP2 PUSH2 0x9CA ADD MSTORE DUP2 DUP2 PUSH2 0xE99 ADD MSTORE DUP2 DUP2 PUSH2 0x12DB ADD MSTORE PUSH2 0x1567 ADD MSTORE PUSH2 0x2222 PUSH1 0x0 RETURN INVALID PUSH1 0x80 PUSH1 0x40 MSTORE PUSH1 0x4 CALLDATASIZE LT PUSH2 0x1B6 JUMPI PUSH1 0x0 CALLDATALOAD PUSH1 0xE0 SHR DUP1 PUSH4 0x8CFD8F5C GT PUSH2 0xEC JUMPI DUP1 PUSH4 0xC4461834 GT PUSH2 0x8A JUMPI DUP1 PUSH4 0xDF2A5B3B GT PUSH2 0x64 JUMPI DUP1 PUSH4 0xDF2A5B3B EQ PUSH2 0x52D JUMPI DUP1 PUSH4 0xEB8D72B7 EQ PUSH2 0x54D JUMPI DUP1 PUSH4 0xF2FDE38B EQ PUSH2 0x56D JUMPI DUP1 PUSH4 0xF5ECBDBC EQ PUSH2 0x58D JUMPI PUSH1 0x0 DUP1 REVERT JUMPDEST DUP1 PUSH4 0xC4461834 EQ PUSH2 0x4E4 JUMPI DUP1 PUSH4 0xCBED8B9C EQ PUSH2 0x4FA JUMPI DUP1 PUSH4 0xD1DEBA1F EQ PUSH2 0x51A JUMPI PUSH1 0x0 DUP1 REVERT JUMPDEST DUP1 PUSH4 0x9F38369A GT PUSH2 0xC6 JUMPI DUP1 PUSH4 0x9F38369A EQ PUSH2 0x450 JUMPI DUP1 PUSH4 0xA6C3D165 EQ PUSH2 0x470 JUMPI DUP1 PUSH4 0xB353AAA7 EQ PUSH2 0x490 JUMPI DUP1 PUSH4 0xBAF3292D EQ PUSH2 0x4C4 JUMPI PUSH1 0x0 DUP1 REVERT JUMPDEST DUP1 PUSH4 0x8CFD8F5C EQ PUSH2 0x3C6 JUMPI DUP1 PUSH4 0x8DA5CB5B EQ PUSH2 0x3FE JUMPI DUP1 PUSH4 0x950C8A74 EQ PUSH2 0x430 JUMPI PUSH1 0x0 DUP1 REVERT JUMPDEST DUP1 PUSH4 0x5B8C41E6 GT PUSH2 0x159 JUMPI DUP1 PUSH4 0x66AD5C8A GT PUSH2 0x133 JUMPI DUP1 PUSH4 0x66AD5C8A EQ PUSH2 0x34F JUMPI DUP1 PUSH4 0x715018A6 EQ PUSH2 0x36F JUMPI DUP1 PUSH4 0x73D4A13A EQ PUSH2 0x384 JUMPI DUP1 PUSH4 0x7533D788 EQ PUSH2 0x3A6 JUMPI PUSH1 0x0 DUP1 REVERT JUMPDEST DUP1 PUSH4 0x5B8C41E6 EQ PUSH2 0x2CD JUMPI DUP1 PUSH4 0x5CDF1649 EQ PUSH2 0x31C JUMPI DUP1 PUSH4 0x66792BA1 EQ PUSH2 0x33C JUMPI PUSH1 0x0 DUP1 REVERT JUMPDEST DUP1 PUSH4 0x10DDB137 GT PUSH2 0x195 JUMPI DUP1 PUSH4 0x10DDB137 EQ PUSH2 0x21D JUMPI DUP1 PUSH4 0x3D8B38F6 EQ PUSH2 0x23D JUMPI DUP1 PUSH4 0x3F1F4FA4 EQ PUSH2 0x272 JUMPI DUP1 PUSH4 0x42D65A8D EQ PUSH2 0x2AD JUMPI PUSH1 0x0 DUP1 REVERT JUMPDEST DUP1 PUSH3 0x1D3567 EQ PUSH2 0x1BB JUMPI DUP1 PUSH4 0x7E0DB17 EQ PUSH2 0x1DD JUMPI DUP1 PUSH4 0xDF37483 EQ PUSH2 0x1FD JUMPI JUMPDEST PUSH1 0x0 DUP1 REVERT JUMPDEST CALLVALUE DUP1 ISZERO PUSH2 0x1C7 JUMPI PUSH1 0x0 DUP1 REVERT JUMPDEST POP PUSH2 0x1DB PUSH2 0x1D6 CALLDATASIZE PUSH1 0x4 PUSH2 0x1A85 JUMP JUMPDEST PUSH2 0x5AD JUMP JUMPDEST STOP JUMPDEST CALLVALUE DUP1 ISZERO PUSH2 0x1E9 JUMPI PUSH1 0x0 DUP1 REVERT JUMPDEST POP PUSH2 0x1DB PUSH2 0x1F8 CALLDATASIZE PUSH1 0x4 PUSH2 0x1B18 JUMP JUMPDEST PUSH2 0x7DE JUMP JUMPDEST CALLVALUE DUP1 ISZERO PUSH2 0x209 JUMPI PUSH1 0x0 DUP1 REVERT JUMPDEST POP PUSH2 0x1DB PUSH2 0x218 CALLDATASIZE PUSH1 0x4 PUSH2 0x1B33 JUMP JUMPDEST PUSH2 0x867 JUMP JUMPDEST CALLVALUE DUP1 ISZERO PUSH2 0x229 JUMPI PUSH1 0x0 DUP1 REVERT JUMPDEST POP PUSH2 0x1DB PUSH2 0x238 CALLDATASIZE PUSH1 0x4 PUSH2 0x1B18 JUMP JUMPDEST PUSH2 0x886 JUMP JUMPDEST CALLVALUE DUP1 ISZERO PUSH2 0x249 JUMPI PUSH1 0x0 DUP1 REVERT JUMPDEST POP PUSH2 0x25D PUSH2 0x258 CALLDATASIZE PUSH1 0x4 PUSH2 0x1B5D JUMP JUMPDEST PUSH2 0x8DE JUMP JUMPDEST PUSH1 0x40 MLOAD SWAP1 ISZERO ISZERO DUP2 MSTORE PUSH1 0x20 ADD JUMPDEST PUSH1 0x40 MLOAD DUP1 SWAP2 SUB SWAP1 RETURN JUMPDEST CALLVALUE DUP1 ISZERO PUSH2 0x27E JUMPI PUSH1 0x0 DUP1 REVERT JUMPDEST POP PUSH2 0x29F PUSH2 0x28D CALLDATASIZE PUSH1 0x4 PUSH2 0x1B18 JUMP JUMPDEST PUSH1 0x3 PUSH1 0x20 MSTORE PUSH1 0x0 SWAP1 DUP2 MSTORE PUSH1 0x40 SWAP1 KECCAK256 SLOAD DUP2 JUMP JUMPDEST PUSH1 0x40 MLOAD SWAP1 DUP2 MSTORE PUSH1 0x20 ADD PUSH2 0x269 JUMP JUMPDEST CALLVALUE DUP1 ISZERO PUSH2 0x2B9 JUMPI PUSH1 0x0 DUP1 REVERT JUMPDEST POP PUSH2 0x1DB PUSH2 0x2C8 CALLDATASIZE PUSH1 0x4 PUSH2 0x1B5D JUMP JUMPDEST PUSH2 0x9AB JUMP JUMPDEST CALLVALUE DUP1 ISZERO PUSH2 0x2D9 JUMPI PUSH1 0x0 DUP1 REVERT JUMPDEST POP PUSH2 0x29F PUSH2 0x2E8 CALLDATASIZE PUSH1 0x4 PUSH2 0x1C5A JUMP JUMPDEST PUSH1 0x5 PUSH1 0x20 SWAP1 DUP2 MSTORE PUSH1 0x0 SWAP4 DUP5 MSTORE PUSH1 0x40 DUP1 DUP6 KECCAK256 DUP5 MLOAD DUP1 DUP7 ADD DUP5 ADD DUP1 MLOAD SWAP3 DUP2 MSTORE SWAP1 DUP5 ADD SWAP6 DUP5 ADD SWAP6 SWAP1 SWAP6 KECCAK256 SWAP5 MSTORE SWAP3 SWAP1 MSTORE DUP3 MSTORE SWAP1 KECCAK256 SLOAD DUP2 JUMP JUMPDEST CALLVALUE DUP1 ISZERO PUSH2 0x328 JUMPI PUSH1 0x0 DUP1 REVERT JUMPDEST POP PUSH2 0x1DB PUSH2 0x337 CALLDATASIZE PUSH1 0x4 PUSH2 0x1CE2 JUMP JUMPDEST PUSH2 0xA31 JUMP JUMPDEST PUSH2 0x1DB PUSH2 0x34A CALLDATASIZE PUSH1 0x4 PUSH2 0x1CFD JUMP JUMPDEST PUSH2 0xA9D JUMP JUMPDEST CALLVALUE DUP1 ISZERO PUSH2 0x35B JUMPI PUSH1 0x0 DUP1 REVERT JUMPDEST POP PUSH2 0x1DB PUSH2 0x36A CALLDATASIZE PUSH1 0x4 PUSH2 0x1A85 JUMP JUMPDEST PUSH2 0xAE4 JUMP JUMPDEST CALLVALUE DUP1 ISZERO PUSH2 0x37B JUMPI PUSH1 0x0 DUP1 REVERT JUMPDEST POP PUSH2 0x1DB PUSH2 0xBC0 JUMP JUMPDEST CALLVALUE DUP1 ISZERO PUSH2 0x390 JUMPI PUSH1 0x0 DUP1 REVERT JUMPDEST POP PUSH2 0x399 PUSH2 0xBD4 JUMP JUMPDEST PUSH1 0x40 MLOAD PUSH2 0x269 SWAP2 SWAP1 PUSH2 0x1DA9 JUMP JUMPDEST CALLVALUE DUP1 ISZERO PUSH2 0x3B2 JUMPI PUSH1 0x0 DUP1 REVERT JUMPDEST POP PUSH2 0x399 PUSH2 0x3C1 CALLDATASIZE PUSH1 0x4 PUSH2 0x1B18 JUMP JUMPDEST PUSH2 0xC62 JUMP JUMPDEST CALLVALUE DUP1 ISZERO PUSH2 0x3D2 JUMPI PUSH1 0x0 DUP1 REVERT JUMPDEST POP PUSH2 0x29F PUSH2 0x3E1 CALLDATASIZE PUSH1 0x4 PUSH2 0x1DBC JUMP JUMPDEST PUSH1 0x2 PUSH1 0x20 SWAP1 DUP2 MSTORE PUSH1 0x0 SWAP3 DUP4 MSTORE PUSH1 0x40 DUP1 DUP5 KECCAK256 SWAP1 SWAP2 MSTORE SWAP1 DUP3 MSTORE SWAP1 KECCAK256 SLOAD DUP2 JUMP JUMPDEST CALLVALUE DUP1 ISZERO PUSH2 0x40A JUMPI PUSH1 0x0 DUP1 REVERT JUMPDEST POP PUSH1 0x0 SLOAD PUSH1 0x1 PUSH1 0x1 PUSH1 0xA0 SHL SUB AND JUMPDEST PUSH1 0x40 MLOAD PUSH1 0x1 PUSH1 0x1 PUSH1 0xA0 SHL SUB SWAP1 SWAP2 AND DUP2 MSTORE PUSH1 0x20 ADD PUSH2 0x269 JUMP JUMPDEST CALLVALUE DUP1 ISZERO PUSH2 0x43C JUMPI PUSH1 0x0 DUP1 REVERT JUMPDEST POP PUSH1 0x4 SLOAD PUSH2 0x418 SWAP1 PUSH1 0x1 PUSH1 0x1 PUSH1 0xA0 SHL SUB AND DUP2 JUMP JUMPDEST CALLVALUE DUP1 ISZERO PUSH2 0x45C JUMPI PUSH1 0x0 DUP1 REVERT JUMPDEST POP PUSH2 0x399 PUSH2 0x46B CALLDATASIZE PUSH1 0x4 PUSH2 0x1B18 JUMP JUMPDEST PUSH2 0xC7B JUMP JUMPDEST CALLVALUE DUP1 ISZERO PUSH2 0x47C JUMPI PUSH1 0x0 DUP1 REVERT JUMPDEST POP PUSH2 0x1DB PUSH2 0x48B CALLDATASIZE PUSH1 0x4 PUSH2 0x1B5D JUMP JUMPDEST PUSH2 0xD8B JUMP JUMPDEST CALLVALUE DUP1 ISZERO PUSH2 0x49C JUMPI PUSH1 0x0 DUP1 REVERT JUMPDEST POP PUSH2 0x418 PUSH32 0x0 DUP2 JUMP JUMPDEST CALLVALUE DUP1 ISZERO PUSH2 0x4D0 JUMPI PUSH1 0x0 DUP1 REVERT JUMPDEST POP PUSH2 0x1DB PUSH2 0x4DF CALLDATASIZE PUSH1 0x4 PUSH2 0x1CE2 JUMP JUMPDEST PUSH2 0xE1E JUMP JUMPDEST CALLVALUE DUP1 ISZERO PUSH2 0x4F0 JUMPI PUSH1 0x0 DUP1 REVERT JUMPDEST POP PUSH2 0x29F PUSH2 0x2710 DUP2 JUMP JUMPDEST CALLVALUE DUP1 ISZERO PUSH2 0x506 JUMPI PUSH1 0x0 DUP1 REVERT JUMPDEST POP PUSH2 0x1DB PUSH2 0x515 CALLDATASIZE PUSH1 0x4 PUSH2 0x1DEF JUMP JUMPDEST PUSH2 0xE7A JUMP JUMPDEST PUSH2 0x1DB PUSH2 0x528 CALLDATASIZE PUSH1 0x4 PUSH2 0x1A85 JUMP JUMPDEST PUSH2 0xF0F JUMP JUMPDEST CALLVALUE DUP1 ISZERO PUSH2 0x539 JUMPI PUSH1 0x0 DUP1 REVERT JUMPDEST POP PUSH2 0x1DB PUSH2 0x548 CALLDATASIZE PUSH1 0x4 PUSH2 0x1E5D JUMP JUMPDEST PUSH2 0x1125 JUMP JUMPDEST CALLVALUE DUP1 ISZERO PUSH2 0x559 JUMPI PUSH1 0x0 DUP1 REVERT JUMPDEST POP PUSH2 0x1DB PUSH2 0x568 CALLDATASIZE PUSH1 0x4 PUSH2 0x1B5D JUMP JUMPDEST PUSH2 0x11D7 JUMP JUMPDEST CALLVALUE DUP1 ISZERO PUSH2 0x579 JUMPI PUSH1 0x0 DUP1 REVERT JUMPDEST POP PUSH2 0x1DB PUSH2 0x588 CALLDATASIZE PUSH1 0x4 PUSH2 0x1CE2 JUMP JUMPDEST PUSH2 0x1231 JUMP JUMPDEST CALLVALUE DUP1 ISZERO PUSH2 0x599 JUMPI PUSH1 0x0 DUP1 REVERT JUMPDEST POP PUSH2 0x399 PUSH2 0x5A8 CALLDATASIZE PUSH1 0x4 PUSH2 0x1E99 JUMP JUMPDEST PUSH2 0x12AA JUMP JUMPDEST CALLER PUSH32 0x0 PUSH1 0x1 PUSH1 0x1 PUSH1 0xA0 SHL SUB AND EQ PUSH2 0x62A JUMPI PUSH1 0x40 MLOAD PUSH3 0x461BCD PUSH1 0xE5 SHL DUP2 MSTORE PUSH1 0x20 PUSH1 0x4 DUP3 ADD MSTORE PUSH1 0x1E PUSH1 0x24 DUP3 ADD MSTORE PUSH32 0x4C7A4170703A20696E76616C696420656E64706F696E742063616C6C65720000 PUSH1 0x44 DUP3 ADD MSTORE PUSH1 0x64 ADD JUMPDEST PUSH1 0x40 MLOAD DUP1 SWAP2 SUB SWAP1 REVERT JUMPDEST PUSH2 0xFFFF DUP7 AND PUSH1 0x0 SWAP1 DUP2 MSTORE PUSH1 0x1 PUSH1 0x20 MSTORE PUSH1 0x40 DUP2 KECCAK256 DUP1 SLOAD PUSH2 0x648 SWAP1 PUSH2 0x1EE4 JUMP JUMPDEST DUP1 PUSH1 0x1F ADD PUSH1 0x20 DUP1 SWAP2 DIV MUL PUSH1 0x20 ADD PUSH1 0x40 MLOAD SWAP1 DUP2 ADD PUSH1 0x40 MSTORE DUP1 SWAP3 SWAP2 SWAP1 DUP2 DUP2 MSTORE PUSH1 0x20 ADD DUP3 DUP1 SLOAD PUSH2 0x674 SWAP1 PUSH2 0x1EE4 JUMP JUMPDEST DUP1 ISZERO PUSH2 0x6C1 JUMPI DUP1 PUSH1 0x1F LT PUSH2 0x696 JUMPI PUSH2 0x100 DUP1 DUP4 SLOAD DIV MUL DUP4 MSTORE SWAP2 PUSH1 0x20 ADD SWAP2 PUSH2 0x6C1 JUMP JUMPDEST DUP3 ADD SWAP2 SWAP1 PUSH1 0x0 MSTORE PUSH1 0x20 PUSH1 0x0 KECCAK256 SWAP1 JUMPDEST DUP2 SLOAD DUP2 MSTORE SWAP1 PUSH1 0x1 ADD SWAP1 PUSH1 0x20 ADD DUP1 DUP4 GT PUSH2 0x6A4 JUMPI DUP3 SWAP1 SUB PUSH1 0x1F AND DUP3 ADD SWAP2 JUMPDEST POP POP POP POP POP SWAP1 POP DUP1 MLOAD DUP7 DUP7 SWAP1 POP EQ DUP1 ISZERO PUSH2 0x6DC JUMPI POP PUSH1 0x0 DUP2 MLOAD GT JUMPDEST DUP1 ISZERO PUSH2 0x704 JUMPI POP DUP1 MLOAD PUSH1 0x20 DUP3 ADD KECCAK256 PUSH1 0x40 MLOAD PUSH2 0x6FA SWAP1 DUP9 SWAP1 DUP9 SWAP1 PUSH2 0x1F1F JUMP JUMPDEST PUSH1 0x40 MLOAD DUP1 SWAP2 SUB SWAP1 KECCAK256 EQ JUMPDEST PUSH2 0x75F JUMPI PUSH1 0x40 MLOAD PUSH3 0x461BCD PUSH1 0xE5 SHL DUP2 MSTORE PUSH1 0x20 PUSH1 0x4 DUP3 ADD MSTORE PUSH1 0x26 PUSH1 0x24 DUP3 ADD MSTORE PUSH32 0x4C7A4170703A20696E76616C696420736F757263652073656E64696E6720636F PUSH1 0x44 DUP3 ADD MSTORE PUSH6 0x1B9D1C9858DD PUSH1 0xD2 SHL PUSH1 0x64 DUP3 ADD MSTORE PUSH1 0x84 ADD PUSH2 0x621 JUMP JUMPDEST PUSH2 0x7D5 DUP8 DUP8 DUP8 DUP1 DUP1 PUSH1 0x1F ADD PUSH1 0x20 DUP1 SWAP2 DIV MUL PUSH1 0x20 ADD PUSH1 0x40 MLOAD SWAP1 DUP2 ADD PUSH1 0x40 MSTORE DUP1 SWAP4 SWAP3 SWAP2 SWAP1 DUP2 DUP2 MSTORE PUSH1 0x20 ADD DUP4 DUP4 DUP1 DUP3 DUP5 CALLDATACOPY PUSH1 0x0 SWAP3 ADD SWAP2 SWAP1 SWAP2 MSTORE POP POP PUSH1 0x40 DUP1 MLOAD PUSH1 0x20 PUSH1 0x1F DUP11 ADD DUP2 SWAP1 DIV DUP2 MUL DUP3 ADD DUP2 ADD SWAP1 SWAP3 MSTORE DUP9 DUP2 MSTORE DUP11 SWAP4 POP SWAP2 POP DUP9 SWAP1 DUP9 SWAP1 DUP2 SWAP1 DUP5 ADD DUP4 DUP3 DUP1 DUP3 DUP5 CALLDATACOPY PUSH1 0x0 SWAP3 ADD SWAP2 SWAP1 SWAP2 MSTORE POP PUSH2 0x136A SWAP3 POP POP POP JUMP JUMPDEST POP POP POP POP POP POP POP JUMP JUMPDEST PUSH2 0x7E6 PUSH2 0x13E3 JUMP JUMPDEST PUSH1 0x40 MLOAD PUSH4 0x7E0DB17 PUSH1 0xE0 SHL DUP2 MSTORE PUSH2 0xFFFF DUP3 AND PUSH1 0x4 DUP3 ADD MSTORE PUSH32 0x0 PUSH1 0x1 PUSH1 0x1 PUSH1 0xA0 SHL SUB AND SWAP1 PUSH4 0x7E0DB17 SWAP1 PUSH1 0x24 ADD JUMPDEST PUSH1 0x0 PUSH1 0x40 MLOAD DUP1 DUP4 SUB DUP2 PUSH1 0x0 DUP8 DUP1 EXTCODESIZE ISZERO DUP1 ISZERO PUSH2 0x84C JUMPI PUSH1 0x0 DUP1 REVERT JUMPDEST POP GAS CALL ISZERO DUP1 ISZERO PUSH2 0x860 JUMPI RETURNDATASIZE PUSH1 0x0 DUP1 RETURNDATACOPY RETURNDATASIZE PUSH1 0x0 REVERT JUMPDEST POP POP POP POP POP JUMP JUMPDEST PUSH2 0x86F PUSH2 0x13E3 JUMP JUMPDEST PUSH2 0xFFFF SWAP1 SWAP2 AND PUSH1 0x0 SWAP1 DUP2 MSTORE PUSH1 0x3 PUSH1 0x20 MSTORE PUSH1 0x40 SWAP1 KECCAK256 SSTORE JUMP JUMPDEST PUSH2 0x88E PUSH2 0x13E3 JUMP JUMPDEST PUSH1 0x40 MLOAD PUSH4 0x10DDB137 PUSH1 0xE0 SHL DUP2 MSTORE PUSH2 0xFFFF DUP3 AND PUSH1 0x4 DUP3 ADD MSTORE PUSH32 0x0 PUSH1 0x1 PUSH1 0x1 PUSH1 0xA0 SHL SUB AND SWAP1 PUSH4 0x10DDB137 SWAP1 PUSH1 0x24 ADD PUSH2 0x832 JUMP JUMPDEST PUSH2 0xFFFF DUP4 AND PUSH1 0x0 SWAP1 DUP2 MSTORE PUSH1 0x1 PUSH1 0x20 MSTORE PUSH1 0x40 DUP2 KECCAK256 DUP1 SLOAD DUP3 SWAP2 SWAP1 PUSH2 0x8FF SWAP1 PUSH2 0x1EE4 JUMP JUMPDEST DUP1 PUSH1 0x1F ADD PUSH1 0x20 DUP1 SWAP2 DIV MUL PUSH1 0x20 ADD PUSH1 0x40 MLOAD SWAP1 DUP2 ADD PUSH1 0x40 MSTORE DUP1 SWAP3 SWAP2 SWAP1 DUP2 DUP2 MSTORE PUSH1 0x20 ADD DUP3 DUP1 SLOAD PUSH2 0x92B SWAP1 PUSH2 0x1EE4 JUMP JUMPDEST DUP1 ISZERO PUSH2 0x978 JUMPI DUP1 PUSH1 0x1F LT PUSH2 0x94D JUMPI PUSH2 0x100 DUP1 DUP4 SLOAD DIV MUL DUP4 MSTORE SWAP2 PUSH1 0x20 ADD SWAP2 PUSH2 0x978 JUMP JUMPDEST DUP3 ADD SWAP2 SWAP1 PUSH1 0x0 MSTORE PUSH1 0x20 PUSH1 0x0 KECCAK256 SWAP1 JUMPDEST DUP2 SLOAD DUP2 MSTORE SWAP1 PUSH1 0x1 ADD SWAP1 PUSH1 0x20 ADD DUP1 DUP4 GT PUSH2 0x95B JUMPI DUP3 SWAP1 SUB PUSH1 0x1F AND DUP3 ADD SWAP2 JUMPDEST POP POP POP POP POP SWAP1 POP DUP4 DUP4 PUSH1 0x40 MLOAD PUSH2 0x98F SWAP3 SWAP2 SWAP1 PUSH2 0x1F1F JUMP JUMPDEST PUSH1 0x40 MLOAD DUP1 SWAP2 SUB SWAP1 KECCAK256 DUP2 DUP1 MLOAD SWAP1 PUSH1 0x20 ADD KECCAK256 EQ SWAP2 POP POP JUMPDEST SWAP4 SWAP3 POP POP POP JUMP JUMPDEST PUSH2 0x9B3 PUSH2 0x13E3 JUMP JUMPDEST PUSH1 0x40 MLOAD PUSH4 0x42D65A8D PUSH1 0xE0 SHL DUP2 MSTORE PUSH1 0x1 PUSH1 0x1 PUSH1 0xA0 SHL SUB PUSH32 0x0 AND SWAP1 PUSH4 0x42D65A8D SWAP1 PUSH2 0xA03 SWAP1 DUP7 SWAP1 DUP7 SWAP1 DUP7 SWAP1 PUSH1 0x4 ADD PUSH2 0x1F58 JUMP JUMPDEST PUSH1 0x0 PUSH1 0x40 MLOAD DUP1 DUP4 SUB DUP2 PUSH1 0x0 DUP8 DUP1 EXTCODESIZE ISZERO DUP1 ISZERO PUSH2 0xA1D JUMPI PUSH1 0x0 DUP1 REVERT JUMPDEST POP GAS CALL ISZERO DUP1 ISZERO PUSH2 0x7D5 JUMPI RETURNDATASIZE PUSH1 0x0 DUP1 RETURNDATACOPY RETURNDATASIZE PUSH1 0x0 REVERT JUMPDEST PUSH2 0xA39 PUSH2 0x13E3 JUMP JUMPDEST PUSH1 0x40 MLOAD PUSH12 0xFFFFFFFFFFFFFFFFFFFFFFFF NOT PUSH1 0x60 DUP4 DUP2 SHL DUP3 AND PUSH1 0x20 DUP5 ADD MSTORE ADDRESS SWAP1 SHL AND PUSH1 0x34 DUP3 ADD MSTORE PUSH1 0x48 ADD PUSH1 0x40 DUP1 MLOAD PUSH1 0x1F NOT DUP2 DUP5 SUB ADD DUP2 MSTORE SWAP2 DUP2 MSTORE PUSH1 0x7 SLOAD PUSH2 0xFFFF AND PUSH1 0x0 SWAP1 DUP2 MSTORE PUSH1 0x1 PUSH1 0x20 SWAP1 DUP2 MSTORE SWAP2 SWAP1 KECCAK256 DUP3 MLOAD PUSH2 0xA99 SWAP4 SWAP2 SWAP3 SWAP1 SWAP2 ADD SWAP1 PUSH2 0x1902 JUMP JUMPDEST POP POP JUMP JUMPDEST PUSH1 0x0 DUP2 PUSH1 0x40 MLOAD PUSH1 0x20 ADD PUSH2 0xAB0 SWAP2 SWAP1 PUSH2 0x1DA9 JUMP JUMPDEST PUSH1 0x40 DUP1 MLOAD PUSH1 0x1F NOT DUP2 DUP5 SUB ADD DUP2 MSTORE PUSH1 0x7 SLOAD PUSH1 0x20 DUP5 ADD SWAP1 SWAP3 MSTORE PUSH1 0x0 DUP1 DUP5 MSTORE SWAP1 SWAP4 POP PUSH2 0xA99 SWAP3 PUSH2 0xFFFF SWAP1 SWAP3 AND SWAP2 DUP5 SWAP2 CALLER SWAP2 CALLVALUE PUSH2 0x143D JUMP JUMPDEST CALLER ADDRESS EQ PUSH2 0xB42 JUMPI PUSH1 0x40 MLOAD PUSH3 0x461BCD PUSH1 0xE5 SHL DUP2 MSTORE PUSH1 0x20 PUSH1 0x4 DUP3 ADD MSTORE PUSH1 0x26 PUSH1 0x24 DUP3 ADD MSTORE PUSH32 0x4E6F6E626C6F636B696E674C7A4170703A2063616C6C6572206D757374206265 PUSH1 0x44 DUP3 ADD MSTORE PUSH6 0x204C7A41707 PUSH1 0xD4 SHL PUSH1 0x64 DUP3 ADD MSTORE PUSH1 0x84 ADD PUSH2 0x621 JUMP JUMPDEST PUSH2 0xBB8 DUP7 DUP7 DUP7 DUP1 DUP1 PUSH1 0x1F ADD PUSH1 0x20 DUP1 SWAP2 DIV MUL PUSH1 0x20 ADD PUSH1 0x40 MLOAD SWAP1 DUP2 ADD PUSH1 0x40 MSTORE DUP1 SWAP4 SWAP3 SWAP2 SWAP1 DUP2 DUP2 MSTORE PUSH1 0x20 ADD DUP4 DUP4 DUP1 DUP3 DUP5 CALLDATACOPY PUSH1 0x0 SWAP3 ADD SWAP2 SWAP1 SWAP2 MSTORE POP POP PUSH1 0x40 DUP1 MLOAD PUSH1 0x20 PUSH1 0x1F DUP10 ADD DUP2 SWAP1 DIV DUP2 MUL DUP3 ADD DUP2 ADD SWAP1 SWAP3 MSTORE DUP8 DUP2 MSTORE DUP10 SWAP4 POP SWAP2 POP DUP8 SWAP1 DUP8 SWAP1 DUP2 SWAP1 DUP5 ADD DUP4 DUP3 DUP1 DUP3 DUP5 CALLDATACOPY PUSH1 0x0 SWAP3 ADD SWAP2 SWAP1 SWAP2 MSTORE POP PUSH2 0x15E3 SWAP3 POP POP POP JUMP JUMPDEST POP POP POP POP POP POP JUMP JUMPDEST PUSH2 0xBC8 PUSH2 0x13E3 JUMP JUMPDEST PUSH2 0xBD2 PUSH1 0x0 PUSH2 0x160B JUMP JUMPDEST JUMP JUMPDEST PUSH1 0x6 DUP1 SLOAD PUSH2 0xBE1 SWAP1 PUSH2 0x1EE4 JUMP JUMPDEST DUP1 PUSH1 0x1F ADD PUSH1 0x20 DUP1 SWAP2 DIV MUL PUSH1 0x20 ADD PUSH1 0x40 MLOAD SWAP1 DUP2 ADD PUSH1 0x40 MSTORE DUP1 SWAP3 SWAP2 SWAP1 DUP2 DUP2 MSTORE PUSH1 0x20 ADD DUP3 DUP1 SLOAD PUSH2 0xC0D SWAP1 PUSH2 0x1EE4 JUMP JUMPDEST DUP1 ISZERO PUSH2 0xC5A JUMPI DUP1 PUSH1 0x1F LT PUSH2 0xC2F JUMPI PUSH2 0x100 DUP1 DUP4 SLOAD DIV MUL DUP4 MSTORE SWAP2 PUSH1 0x20 ADD SWAP2 PUSH2 0xC5A JUMP JUMPDEST DUP3 ADD SWAP2 SWAP1 PUSH1 0x0 MSTORE PUSH1 0x20 PUSH1 0x0 KECCAK256 SWAP1 JUMPDEST DUP2 SLOAD DUP2 MSTORE SWAP1 PUSH1 0x1 ADD SWAP1 PUSH1 0x20 ADD DUP1 DUP4 GT PUSH2 0xC3D JUMPI DUP3 SWAP1 SUB PUSH1 0x1F AND DUP3 ADD SWAP2 JUMPDEST POP POP POP POP POP DUP2 JUMP JUMPDEST PUSH1 0x1 PUSH1 0x20 MSTORE PUSH1 0x0 SWAP1 DUP2 MSTORE PUSH1 0x40 SWAP1 KECCAK256 DUP1 SLOAD PUSH2 0xBE1 SWAP1 PUSH2 0x1EE4 JUMP JUMPDEST PUSH2 0xFFFF DUP2 AND PUSH1 0x0 SWAP1 DUP2 MSTORE PUSH1 0x1 PUSH1 0x20 MSTORE PUSH1 0x40 DUP2 KECCAK256 DUP1 SLOAD PUSH1 0x60 SWAP3 SWAP2 SWAP1 PUSH2 0xC9E SWAP1 PUSH2 0x1EE4 JUMP JUMPDEST DUP1 PUSH1 0x1F ADD PUSH1 0x20 DUP1 SWAP2 DIV MUL PUSH1 0x20 ADD PUSH1 0x40 MLOAD SWAP1 DUP2 ADD PUSH1 0x40 MSTORE DUP1 SWAP3 SWAP2 SWAP1 DUP2 DUP2 MSTORE PUSH1 0x20 ADD DUP3 DUP1 SLOAD PUSH2 0xCCA SWAP1 PUSH2 0x1EE4 JUMP JUMPDEST DUP1 ISZERO PUSH2 0xD17 JUMPI DUP1 PUSH1 0x1F LT PUSH2 0xCEC JUMPI PUSH2 0x100 DUP1 DUP4 SLOAD DIV MUL DUP4 MSTORE SWAP2 PUSH1 0x20 ADD SWAP2 PUSH2 0xD17 JUMP JUMPDEST DUP3 ADD SWAP2 SWAP1 PUSH1 0x0 MSTORE PUSH1 0x20 PUSH1 0x0 KECCAK256 SWAP1 JUMPDEST DUP2 SLOAD DUP2 MSTORE SWAP1 PUSH1 0x1 ADD SWAP1 PUSH1 0x20 ADD DUP1 DUP4 GT PUSH2 0xCFA JUMPI DUP3 SWAP1 SUB PUSH1 0x1F AND DUP3 ADD SWAP2 JUMPDEST POP POP POP POP POP SWAP1 POP DUP1 MLOAD PUSH1 0x0 EQ ISZERO PUSH2 0xD70 JUMPI PUSH1 0x40 MLOAD PUSH3 0x461BCD PUSH1 0xE5 SHL DUP2 MSTORE PUSH1 0x20 PUSH1 0x4 DUP3 ADD MSTORE PUSH1 0x1D PUSH1 0x24 DUP3 ADD MSTORE PUSH32 0x4C7A4170703A206E6F20747275737465642070617468207265636F7264000000 PUSH1 0x44 DUP3 ADD MSTORE PUSH1 0x64 ADD PUSH2 0x621 JUMP JUMPDEST PUSH2 0x9A4 PUSH1 0x0 PUSH1 0x14 DUP4 MLOAD PUSH2 0xD83 SWAP2 SWAP1 PUSH2 0x1F8C JUMP JUMPDEST DUP4 SWAP2 SWAP1 PUSH2 0x165B JUMP JUMPDEST PUSH2 0xD93 PUSH2 0x13E3 JUMP JUMPDEST DUP2 DUP2 ADDRESS PUSH1 0x40 MLOAD PUSH1 0x20 ADD PUSH2 0xDA8 SWAP4 SWAP3 SWAP2 SWAP1 PUSH2 0x1FA3 JUMP JUMPDEST PUSH1 0x40 DUP1 MLOAD PUSH1 0x1F NOT DUP2 DUP5 SUB ADD DUP2 MSTORE SWAP2 DUP2 MSTORE PUSH2 0xFFFF DUP6 AND PUSH1 0x0 SWAP1 DUP2 MSTORE PUSH1 0x1 PUSH1 0x20 SWAP1 DUP2 MSTORE SWAP2 SWAP1 KECCAK256 DUP3 MLOAD PUSH2 0xDDD SWAP4 SWAP2 SWAP3 SWAP1 SWAP2 ADD SWAP1 PUSH2 0x1902 JUMP JUMPDEST POP PUSH32 0x8C0400CFE2D1199B1A725C78960BCC2A344D869B80590D0F2BD005DB15A572CE DUP4 DUP4 DUP4 PUSH1 0x40 MLOAD PUSH2 0xE11 SWAP4 SWAP3 SWAP2 SWAP1 PUSH2 0x1F58 JUMP JUMPDEST PUSH1 0x40 MLOAD DUP1 SWAP2 SUB SWAP1 LOG1 POP POP POP JUMP JUMPDEST PUSH2 0xE26 PUSH2 0x13E3 JUMP JUMPDEST PUSH1 0x4 DUP1 SLOAD PUSH1 0x1 PUSH1 0x1 PUSH1 0xA0 SHL SUB NOT AND PUSH1 0x1 PUSH1 0x1 PUSH1 0xA0 SHL SUB DUP4 AND SWAP1 DUP2 OR SWAP1 SWAP2 SSTORE PUSH1 0x40 MLOAD SWAP1 DUP2 MSTORE PUSH32 0x5DB758E995A17EC1AD84BDEF7E8C3293A0BD6179BCCE400DFF5D4C3D87DB726B SWAP1 PUSH1 0x20 ADD PUSH1 0x40 MLOAD DUP1 SWAP2 SUB SWAP1 LOG1 POP JUMP JUMPDEST PUSH2 0xE82 PUSH2 0x13E3 JUMP JUMPDEST PUSH1 0x40 MLOAD PUSH4 0x32FB62E7 PUSH1 0xE2 SHL DUP2 MSTORE PUSH1 0x1 PUSH1 0x1 PUSH1 0xA0 SHL SUB PUSH32 0x0 AND SWAP1 PUSH4 0xCBED8B9C SWAP1 PUSH2 0xED6 SWAP1 DUP9 SWAP1 DUP9 SWAP1 DUP9 SWAP1 DUP9 SWAP1 DUP9 SWAP1 PUSH1 0x4 ADD PUSH2 0x1FC9 JUMP JUMPDEST PUSH1 0x0 PUSH1 0x40 MLOAD DUP1 DUP4 SUB DUP2 PUSH1 0x0 DUP8 DUP1 EXTCODESIZE ISZERO DUP1 ISZERO PUSH2 0xEF0 JUMPI PUSH1 0x0 DUP1 REVERT JUMPDEST POP GAS CALL ISZERO DUP1 ISZERO PUSH2 0xF04 JUMPI RETURNDATASIZE PUSH1 0x0 DUP1 RETURNDATACOPY RETURNDATASIZE PUSH1 0x0 REVERT JUMPDEST POP POP POP POP POP POP POP POP POP JUMP JUMPDEST PUSH2 0xFFFF DUP7 AND PUSH1 0x0 SWAP1 DUP2 MSTORE PUSH1 0x5 PUSH1 0x20 MSTORE PUSH1 0x40 DUP1 DUP3 KECCAK256 SWAP1 MLOAD PUSH2 0xF32 SWAP1 DUP9 SWAP1 DUP9 SWAP1 PUSH2 0x1F1F JUMP JUMPDEST SWAP1 DUP2 MSTORE PUSH1 0x40 DUP1 MLOAD PUSH1 0x20 SWAP3 DUP2 SWAP1 SUB DUP4 ADD SWAP1 KECCAK256 PUSH1 0x1 PUSH1 0x1 PUSH1 0x40 SHL SUB DUP8 AND PUSH1 0x0 SWAP1 DUP2 MSTORE SWAP3 MSTORE SWAP1 KECCAK256 SLOAD SWAP1 POP DUP1 PUSH2 0xFB2 JUMPI PUSH1 0x40 MLOAD PUSH3 0x461BCD PUSH1 0xE5 SHL DUP2 MSTORE PUSH1 0x20 PUSH1 0x4 DUP3 ADD MSTORE PUSH1 0x23 PUSH1 0x24 DUP3 ADD MSTORE PUSH32 0x4E6F6E626C6F636B696E674C7A4170703A206E6F2073746F726564206D657373 PUSH1 0x44 DUP3 ADD MSTORE PUSH3 0x616765 PUSH1 0xE8 SHL PUSH1 0x64 DUP3 ADD MSTORE PUSH1 0x84 ADD PUSH2 0x621 JUMP JUMPDEST DUP1 DUP4 DUP4 PUSH1 0x40 MLOAD PUSH2 0xFC3 SWAP3 SWAP2 SWAP1 PUSH2 0x1F1F JUMP JUMPDEST PUSH1 0x40 MLOAD DUP1 SWAP2 SUB SWAP1 KECCAK256 EQ PUSH2 0x1022 JUMPI PUSH1 0x40 MLOAD PUSH3 0x461BCD PUSH1 0xE5 SHL DUP2 MSTORE PUSH1 0x20 PUSH1 0x4 DUP3 ADD MSTORE PUSH1 0x21 PUSH1 0x24 DUP3 ADD MSTORE PUSH32 0x4E6F6E626C6F636B696E674C7A4170703A20696E76616C6964207061796C6F61 PUSH1 0x44 DUP3 ADD MSTORE PUSH1 0x19 PUSH1 0xFA SHL PUSH1 0x64 DUP3 ADD MSTORE PUSH1 0x84 ADD PUSH2 0x621 JUMP JUMPDEST PUSH2 0xFFFF DUP8 AND PUSH1 0x0 SWAP1 DUP2 MSTORE PUSH1 0x5 PUSH1 0x20 MSTORE PUSH1 0x40 DUP1 DUP3 KECCAK256 SWAP1 MLOAD PUSH2 0x1045 SWAP1 DUP10 SWAP1 DUP10 SWAP1 PUSH2 0x1F1F JUMP JUMPDEST SWAP1 DUP2 MSTORE PUSH1 0x40 DUP1 MLOAD PUSH1 0x20 SWAP3 DUP2 SWAP1 SUB DUP4 ADD DUP2 KECCAK256 PUSH1 0x1 PUSH1 0x1 PUSH1 0x40 SHL SUB DUP10 AND PUSH1 0x0 SWAP1 DUP2 MSTORE SWAP1 DUP5 MSTORE DUP3 SWAP1 KECCAK256 SWAP4 SWAP1 SWAP4 SSTORE PUSH1 0x1F DUP9 ADD DUP3 SWAP1 DIV DUP3 MUL DUP4 ADD DUP3 ADD SWAP1 MSTORE DUP7 DUP3 MSTORE PUSH2 0x10DD SWAP2 DUP10 SWAP2 DUP10 SWAP1 DUP10 SWAP1 DUP2 SWAP1 DUP5 ADD DUP4 DUP3 DUP1 DUP3 DUP5 CALLDATACOPY PUSH1 0x0 SWAP3 ADD SWAP2 SWAP1 SWAP2 MSTORE POP POP PUSH1 0x40 DUP1 MLOAD PUSH1 0x20 PUSH1 0x1F DUP11 ADD DUP2 SWAP1 DIV DUP2 MUL DUP3 ADD DUP2 ADD SWAP1 SWAP3 MSTORE DUP9 DUP2 MSTORE DUP11 SWAP4 POP SWAP2 POP DUP9 SWAP1 DUP9 SWAP1 DUP2 SWAP1 DUP5 ADD DUP4 DUP3 DUP1 DUP3 DUP5 CALLDATACOPY PUSH1 0x0 SWAP3 ADD SWAP2 SWAP1 SWAP2 MSTORE POP PUSH2 0x15E3 SWAP3 POP POP POP JUMP JUMPDEST PUSH32 0xC264D91F3ADC5588250E1551F547752CA0CFA8F6B530D243B9F9F4CAB10EA8E5 DUP8 DUP8 DUP8 DUP8 DUP6 PUSH1 0x40 MLOAD PUSH2 0x1114 SWAP6 SWAP5 SWAP4 SWAP3 SWAP2 SWAP1 PUSH2 0x2002 JUMP JUMPDEST PUSH1 0x40 MLOAD DUP1 SWAP2 SUB SWAP1 LOG1 POP POP POP POP POP POP POP JUMP JUMPDEST PUSH2 0x112D PUSH2 0x13E3 JUMP JUMPDEST PUSH1 0x0 DUP2 GT PUSH2 0x1175 JUMPI PUSH1 0x40 MLOAD PUSH3 0x461BCD PUSH1 0xE5 SHL DUP2 MSTORE PUSH1 0x20 PUSH1 0x4 DUP3 ADD MSTORE PUSH1 0x15 PUSH1 0x24 DUP3 ADD MSTORE PUSH21 0x4C7A4170703A20696E76616C6964206D696E476173 PUSH1 0x58 SHL PUSH1 0x44 DUP3 ADD MSTORE PUSH1 0x64 ADD PUSH2 0x621 JUMP JUMPDEST PUSH2 0xFFFF DUP4 DUP2 AND PUSH1 0x0 DUP2 DUP2 MSTORE PUSH1 0x2 PUSH1 0x20 SWAP1 DUP2 MSTORE PUSH1 0x40 DUP1 DUP4 KECCAK256 SWAP5 DUP8 AND DUP1 DUP5 MSTORE SWAP5 DUP3 MSTORE SWAP2 DUP3 SWAP1 KECCAK256 DUP6 SWAP1 SSTORE DUP2 MLOAD SWAP3 DUP4 MSTORE DUP3 ADD SWAP3 SWAP1 SWAP3 MSTORE SWAP1 DUP2 ADD DUP3 SWAP1 MSTORE PUSH32 0x9D5C7C0B934DA8FEFA9C7760C98383778A12DFBFC0C3B3106518F43FB9508AC0 SWAP1 PUSH1 0x60 ADD PUSH2 0xE11 JUMP JUMPDEST PUSH2 0x11DF PUSH2 0x13E3 JUMP JUMPDEST PUSH2 0xFFFF DUP4 AND PUSH1 0x0 SWAP1 DUP2 MSTORE PUSH1 0x1 PUSH1 0x20 MSTORE PUSH1 0x40 SWAP1 KECCAK256 PUSH2 0x11FD SWAP1 DUP4 DUP4 PUSH2 0x1986 JUMP JUMPDEST POP PUSH32 0xFA41487AD5D6728F0B19276FA1EDDC16558578F5109FC39D2DC33C3230470DAB DUP4 DUP4 DUP4 PUSH1 0x40 MLOAD PUSH2 0xE11 SWAP4 SWAP3 SWAP2 SWAP1 PUSH2 0x1F58 JUMP JUMPDEST PUSH2 0x1239 PUSH2 0x13E3 JUMP JUMPDEST PUSH1 0x1 PUSH1 0x1 PUSH1 0xA0 SHL SUB DUP2 AND PUSH2 0x129E JUMPI PUSH1 0x40 MLOAD PUSH3 0x461BCD PUSH1 0xE5 SHL DUP2 MSTORE PUSH1 0x20 PUSH1 0x4 DUP3 ADD MSTORE PUSH1 0x26 PUSH1 0x24 DUP3 ADD MSTORE PUSH32 0x4F776E61626C653A206E6577206F776E657220697320746865207A65726F2061 PUSH1 0x44 DUP3 ADD MSTORE PUSH6 0x646472657373 PUSH1 0xD0 SHL PUSH1 0x64 DUP3 ADD MSTORE PUSH1 0x84 ADD PUSH2 0x621 JUMP JUMPDEST PUSH2 0x12A7 DUP2 PUSH2 0x160B JUMP JUMPDEST POP JUMP JUMPDEST PUSH1 0x40 MLOAD PUSH4 0x3D7B2F6F PUSH1 0xE2 SHL DUP2 MSTORE PUSH2 0xFFFF DUP1 DUP7 AND PUSH1 0x4 DUP4 ADD MSTORE DUP5 AND PUSH1 0x24 DUP3 ADD MSTORE ADDRESS PUSH1 0x44 DUP3 ADD MSTORE PUSH1 0x64 DUP2 ADD DUP3 SWAP1 MSTORE PUSH1 0x60 SWAP1 PUSH32 0x0 PUSH1 0x1 PUSH1 0x1 PUSH1 0xA0 SHL SUB AND SWAP1 PUSH4 0xF5ECBDBC SWAP1 PUSH1 0x84 ADD PUSH1 0x0 PUSH1 0x40 MLOAD DUP1 DUP4 SUB DUP2 DUP7 DUP1 EXTCODESIZE ISZERO DUP1 ISZERO PUSH2 0x1325 JUMPI PUSH1 0x0 DUP1 REVERT JUMPDEST POP GAS STATICCALL ISZERO DUP1 ISZERO PUSH2 0x1339 JUMPI RETURNDATASIZE PUSH1 0x0 DUP1 RETURNDATACOPY RETURNDATASIZE PUSH1 0x0 REVERT JUMPDEST POP POP POP POP PUSH1 0x40 MLOAD RETURNDATASIZE PUSH1 0x0 DUP3 RETURNDATACOPY PUSH1 0x1F RETURNDATASIZE SWAP1 DUP2 ADD PUSH1 0x1F NOT AND DUP3 ADD PUSH1 0x40 MSTORE PUSH2 0x1361 SWAP2 SWAP1 DUP2 ADD SWAP1 PUSH2 0x206D JUMP JUMPDEST SWAP6 SWAP5 POP POP POP POP POP JUMP JUMPDEST PUSH1 0x0 DUP1 PUSH2 0x13CD GAS PUSH1 0x96 PUSH4 0x66AD5C8A PUSH1 0xE0 SHL DUP10 DUP10 DUP10 DUP10 PUSH1 0x40 MLOAD PUSH1 0x24 ADD PUSH2 0x1392 SWAP5 SWAP4 SWAP3 SWAP2 SWAP1 PUSH2 0x20B5 JUMP JUMPDEST PUSH1 0x40 DUP1 MLOAD PUSH1 0x1F NOT DUP2 DUP5 SUB ADD DUP2 MSTORE SWAP2 SWAP1 MSTORE PUSH1 0x20 DUP2 ADD DUP1 MLOAD PUSH1 0x1 PUSH1 0x1 PUSH1 0xE0 SHL SUB AND PUSH1 0x1 PUSH1 0x1 PUSH1 0xE0 SHL SUB NOT SWAP1 SWAP4 AND SWAP3 SWAP1 SWAP3 OR SWAP1 SWAP2 MSTORE ADDRESS SWAP3 SWAP2 SWAP1 PUSH2 0x1768 JUMP JUMPDEST SWAP2 POP SWAP2 POP DUP2 PUSH2 0xBB8 JUMPI PUSH2 0xBB8 DUP7 DUP7 DUP7 DUP7 DUP6 PUSH2 0x17F2 JUMP JUMPDEST PUSH1 0x0 SLOAD PUSH1 0x1 PUSH1 0x1 PUSH1 0xA0 SHL SUB AND CALLER EQ PUSH2 0xBD2 JUMPI PUSH1 0x40 MLOAD PUSH3 0x461BCD PUSH1 0xE5 SHL DUP2 MSTORE PUSH1 0x20 PUSH1 0x4 DUP3 ADD DUP2 SWAP1 MSTORE PUSH1 0x24 DUP3 ADD MSTORE PUSH32 0x4F776E61626C653A2063616C6C6572206973206E6F7420746865206F776E6572 PUSH1 0x44 DUP3 ADD MSTORE PUSH1 0x64 ADD PUSH2 0x621 JUMP JUMPDEST PUSH2 0xFFFF DUP7 AND PUSH1 0x0 SWAP1 DUP2 MSTORE PUSH1 0x1 PUSH1 0x20 MSTORE PUSH1 0x40 DUP2 KECCAK256 DUP1 SLOAD PUSH2 0x145B SWAP1 PUSH2 0x1EE4 JUMP JUMPDEST DUP1 PUSH1 0x1F ADD PUSH1 0x20 DUP1 SWAP2 DIV MUL PUSH1 0x20 ADD PUSH1 0x40 MLOAD SWAP1 DUP2 ADD PUSH1 0x40 MSTORE DUP1 SWAP3 SWAP2 SWAP1 DUP2 DUP2 MSTORE PUSH1 0x20 ADD DUP3 DUP1 SLOAD PUSH2 0x1487 SWAP1 PUSH2 0x1EE4 JUMP JUMPDEST DUP1 ISZERO PUSH2 0x14D4 JUMPI DUP1 PUSH1 0x1F LT PUSH2 0x14A9 JUMPI PUSH2 0x100 DUP1 DUP4 SLOAD DIV MUL DUP4 MSTORE SWAP2 PUSH1 0x20 ADD SWAP2 PUSH2 0x14D4 JUMP JUMPDEST DUP3 ADD SWAP2 SWAP1 PUSH1 0x0 MSTORE PUSH1 0x20 PUSH1 0x0 KECCAK256 SWAP1 JUMPDEST DUP2 SLOAD DUP2 MSTORE SWAP1 PUSH1 0x1 ADD SWAP1 PUSH1 0x20 ADD DUP1 DUP4 GT PUSH2 0x14B7 JUMPI DUP3 SWAP1 SUB PUSH1 0x1F AND DUP3 ADD SWAP2 JUMPDEST POP POP POP POP POP SWAP1 POP DUP1 MLOAD PUSH1 0x0 EQ ISZERO PUSH2 0x1546 JUMPI PUSH1 0x40 MLOAD PUSH3 0x461BCD PUSH1 0xE5 SHL DUP2 MSTORE PUSH1 0x20 PUSH1 0x4 DUP3 ADD MSTORE PUSH1 0x30 PUSH1 0x24 DUP3 ADD MSTORE PUSH32 0x4C7A4170703A2064657374696E6174696F6E20636861696E206973206E6F7420 PUSH1 0x44 DUP3 ADD MSTORE PUSH16 0x61207472757374656420736F75726365 PUSH1 0x80 SHL PUSH1 0x64 DUP3 ADD MSTORE PUSH1 0x84 ADD PUSH2 0x621 JUMP JUMPDEST PUSH2 0x1551 DUP8 DUP8 MLOAD PUSH2 0x188F JUMP JUMPDEST PUSH1 0x40 MLOAD PUSH3 0xC58031 PUSH1 0xE8 SHL DUP2 MSTORE PUSH1 0x1 PUSH1 0x1 PUSH1 0xA0 SHL SUB PUSH32 0x0 AND SWAP1 PUSH4 0xC5803100 SWAP1 DUP5 SWAP1 PUSH2 0x15A8 SWAP1 DUP12 SWAP1 DUP7 SWAP1 DUP13 SWAP1 DUP13 SWAP1 DUP13 SWAP1 DUP13 SWAP1 PUSH1 0x4 ADD PUSH2 0x20F3 JUMP JUMPDEST PUSH1 0x0 PUSH1 0x40 MLOAD DUP1 DUP4 SUB DUP2 DUP6 DUP9 DUP1 EXTCODESIZE ISZERO DUP1 ISZERO PUSH2 0x15C1 JUMPI PUSH1 0x0 DUP1 REVERT JUMPDEST POP GAS CALL ISZERO DUP1 ISZERO PUSH2 0x15D5 JUMPI RETURNDATASIZE PUSH1 0x0 DUP1 RETURNDATACOPY RETURNDATASIZE PUSH1 0x0 REVERT JUMPDEST POP POP POP POP POP POP POP POP POP POP POP POP JUMP JUMPDEST DUP1 DUP1 PUSH1 0x20 ADD SWAP1 MLOAD DUP2 ADD SWAP1 PUSH2 0x15F7 SWAP2 SWAP1 PUSH2 0x206D JUMP JUMPDEST DUP1 MLOAD PUSH2 0x860 SWAP2 PUSH1 0x6 SWAP2 PUSH1 0x20 SWAP1 SWAP2 ADD SWAP1 PUSH2 0x1902 JUMP JUMPDEST PUSH1 0x0 DUP1 SLOAD PUSH1 0x1 PUSH1 0x1 PUSH1 0xA0 SHL SUB DUP4 DUP2 AND PUSH1 0x1 PUSH1 0x1 PUSH1 0xA0 SHL SUB NOT DUP4 AND DUP2 OR DUP5 SSTORE PUSH1 0x40 MLOAD SWAP2 SWAP1 SWAP3 AND SWAP3 DUP4 SWAP2 PUSH32 0x8BE0079C531659141344CD1FD0A4F28419497F9722A3DAAFE3B4186F6B6457E0 SWAP2 SWAP1 LOG3 POP POP JUMP JUMPDEST PUSH1 0x60 DUP2 PUSH2 0x1669 DUP2 PUSH1 0x1F PUSH2 0x215A JUMP JUMPDEST LT ISZERO PUSH2 0x16A8 JUMPI PUSH1 0x40 MLOAD PUSH3 0x461BCD PUSH1 0xE5 SHL DUP2 MSTORE PUSH1 0x20 PUSH1 0x4 DUP3 ADD MSTORE PUSH1 0xE PUSH1 0x24 DUP3 ADD MSTORE PUSH14 0x736C6963655F6F766572666C6F77 PUSH1 0x90 SHL PUSH1 0x44 DUP3 ADD MSTORE PUSH1 0x64 ADD PUSH2 0x621 JUMP JUMPDEST PUSH2 0x16B2 DUP3 DUP5 PUSH2 0x215A JUMP JUMPDEST DUP5 MLOAD LT ISZERO PUSH2 0x16F6 JUMPI PUSH1 0x40 MLOAD PUSH3 0x461BCD PUSH1 0xE5 SHL DUP2 MSTORE PUSH1 0x20 PUSH1 0x4 DUP3 ADD MSTORE PUSH1 0x11 PUSH1 0x24 DUP3 ADD MSTORE PUSH17 0x736C6963655F6F75744F66426F756E6473 PUSH1 0x78 SHL PUSH1 0x44 DUP3 ADD MSTORE PUSH1 0x64 ADD PUSH2 0x621 JUMP JUMPDEST PUSH1 0x60 DUP3 ISZERO DUP1 ISZERO PUSH2 0x1715 JUMPI PUSH1 0x40 MLOAD SWAP2 POP PUSH1 0x0 DUP3 MSTORE PUSH1 0x20 DUP3 ADD PUSH1 0x40 MSTORE PUSH2 0x175F JUMP JUMPDEST PUSH1 0x40 MLOAD SWAP2 POP PUSH1 0x1F DUP5 AND DUP1 ISZERO PUSH1 0x20 MUL DUP2 DUP5 ADD ADD DUP6 DUP2 ADD DUP8 DUP4 ISZERO PUSH1 0x20 MUL DUP5 DUP12 ADD ADD ADD JUMPDEST DUP2 DUP4 LT ISZERO PUSH2 0x174E JUMPI DUP1 MLOAD DUP4 MSTORE PUSH1 0x20 SWAP3 DUP4 ADD SWAP3 ADD PUSH2 0x1736 JUMP JUMPDEST POP POP DUP6 DUP5 MSTORE PUSH1 0x1F ADD PUSH1 0x1F NOT AND PUSH1 0x40 MSTORE POP JUMPDEST POP SWAP5 SWAP4 POP POP POP POP JUMP JUMPDEST PUSH1 0x0 PUSH1 0x60 PUSH1 0x0 DUP1 PUSH1 0x0 DUP7 PUSH2 0xFFFF AND PUSH1 0x1 PUSH1 0x1 PUSH1 0x40 SHL SUB DUP2 GT ISZERO PUSH2 0x178D JUMPI PUSH2 0x178D PUSH2 0x1BAF JUMP JUMPDEST PUSH1 0x40 MLOAD SWAP1 DUP1 DUP3 MSTORE DUP1 PUSH1 0x1F ADD PUSH1 0x1F NOT AND PUSH1 0x20 ADD DUP3 ADD PUSH1 0x40 MSTORE DUP1 ISZERO PUSH2 0x17B7 JUMPI PUSH1 0x20 DUP3 ADD DUP2 DUP1 CALLDATASIZE DUP4 CALLDATACOPY ADD SWAP1 POP JUMPDEST POP SWAP1 POP PUSH1 0x0 DUP1 DUP8 MLOAD PUSH1 0x20 DUP10 ADD PUSH1 0x0 DUP14 DUP14 CALL SWAP2 POP RETURNDATASIZE SWAP3 POP DUP7 DUP4 GT ISZERO PUSH2 0x17D9 JUMPI DUP7 SWAP3 POP JUMPDEST DUP3 DUP2 MSTORE DUP3 PUSH1 0x0 PUSH1 0x20 DUP4 ADD RETURNDATACOPY SWAP1 SWAP9 SWAP1 SWAP8 POP SWAP6 POP POP POP POP POP POP JUMP JUMPDEST DUP2 DUP1 MLOAD SWAP1 PUSH1 0x20 ADD KECCAK256 PUSH1 0x5 PUSH1 0x0 DUP8 PUSH2 0xFFFF AND PUSH2 0xFFFF AND DUP2 MSTORE PUSH1 0x20 ADD SWAP1 DUP2 MSTORE PUSH1 0x20 ADD PUSH1 0x0 KECCAK256 DUP6 PUSH1 0x40 MLOAD PUSH2 0x1823 SWAP2 SWAP1 PUSH2 0x2172 JUMP JUMPDEST SWAP1 DUP2 MSTORE PUSH1 0x40 DUP1 MLOAD SWAP2 DUP3 SWAP1 SUB PUSH1 0x20 SWAP1 DUP2 ADD DUP4 KECCAK256 PUSH1 0x1 PUSH1 0x1 PUSH1 0x40 SHL SUB DUP9 AND PUSH1 0x0 SWAP1 DUP2 MSTORE SWAP2 MSTORE KECCAK256 SWAP2 SWAP1 SWAP2 SSTORE PUSH32 0xE183F33DE2837795525B4792CA4CD60535BD77C53B7E7030060BFCF5734D6B0C SWAP1 PUSH2 0x1880 SWAP1 DUP8 SWAP1 DUP8 SWAP1 DUP8 SWAP1 DUP8 SWAP1 DUP8 SWAP1 PUSH2 0x218E JUMP JUMPDEST PUSH1 0x40 MLOAD DUP1 SWAP2 SUB SWAP1 LOG1 POP POP POP POP POP JUMP JUMPDEST PUSH2 0xFFFF DUP3 AND PUSH1 0x0 SWAP1 DUP2 MSTORE PUSH1 0x3 PUSH1 0x20 MSTORE PUSH1 0x40 SWAP1 KECCAK256 SLOAD DUP1 PUSH2 0x18AD JUMPI POP PUSH2 0x2710 JUMPDEST DUP1 DUP3 GT ISZERO PUSH2 0x18FD JUMPI PUSH1 0x40 MLOAD PUSH3 0x461BCD PUSH1 0xE5 SHL DUP2 MSTORE PUSH1 0x20 PUSH1 0x4 DUP3 ADD DUP2 SWAP1 MSTORE PUSH1 0x24 DUP3 ADD MSTORE PUSH32 0x4C7A4170703A207061796C6F61642073697A6520697320746F6F206C61726765 PUSH1 0x44 DUP3 ADD MSTORE PUSH1 0x64 ADD PUSH2 0x621 JUMP JUMPDEST POP POP POP JUMP JUMPDEST DUP3 DUP1 SLOAD PUSH2 0x190E SWAP1 PUSH2 0x1EE4 JUMP JUMPDEST SWAP1 PUSH1 0x0 MSTORE PUSH1 0x20 PUSH1 0x0 KECCAK256 SWAP1 PUSH1 0x1F ADD PUSH1 0x20 SWAP1 DIV DUP2 ADD SWAP3 DUP3 PUSH2 0x1930 JUMPI PUSH1 0x0 DUP6 SSTORE PUSH2 0x1976 JUMP JUMPDEST DUP3 PUSH1 0x1F LT PUSH2 0x1949 JUMPI DUP1 MLOAD PUSH1 0xFF NOT AND DUP4 DUP1 ADD OR DUP6 SSTORE PUSH2 0x1976 JUMP JUMPDEST DUP3 DUP1 ADD PUSH1 0x1 ADD DUP6 SSTORE DUP3 ISZERO PUSH2 0x1976 JUMPI SWAP2 DUP3 ADD JUMPDEST DUP3 DUP2 GT ISZERO PUSH2 0x1976 JUMPI DUP3 MLOAD DUP3 SSTORE SWAP2 PUSH1 0x20 ADD SWAP2 SWAP1 PUSH1 0x1 ADD SWAP1 PUSH2 0x195B JUMP JUMPDEST POP PUSH2 0x1982 SWAP3 SWAP2 POP PUSH2 0x19FA JUMP JUMPDEST POP SWAP1 JUMP JUMPDEST DUP3 DUP1 SLOAD PUSH2 0x1992 SWAP1 PUSH2 0x1EE4 JUMP JUMPDEST SWAP1 PUSH1 0x0 MSTORE PUSH1 0x20 PUSH1 0x0 KECCAK256 SWAP1 PUSH1 0x1F ADD PUSH1 0x20 SWAP1 DIV DUP2 ADD SWAP3 DUP3 PUSH2 0x19B4 JUMPI PUSH1 0x0 DUP6 SSTORE PUSH2 0x1976 JUMP JUMPDEST DUP3 PUSH1 0x1F LT PUSH2 0x19CD JUMPI DUP3 DUP1 ADD PUSH1 0xFF NOT DUP3 CALLDATALOAD AND OR DUP6 SSTORE PUSH2 0x1976 JUMP JUMPDEST DUP3 DUP1 ADD PUSH1 0x1 ADD DUP6 SSTORE DUP3 ISZERO PUSH2 0x1976 JUMPI SWAP2 DUP3 ADD JUMPDEST DUP3 DUP2 GT ISZERO PUSH2 0x1976 JUMPI DUP3 CALLDATALOAD DUP3 SSTORE SWAP2 PUSH1 0x20 ADD SWAP2 SWAP1 PUSH1 0x1 ADD SWAP1 PUSH2 0x19DF JUMP JUMPDEST JUMPDEST DUP1 DUP3 GT ISZERO PUSH2 0x1982 JUMPI PUSH1 0x0 DUP2 SSTORE PUSH1 0x1 ADD PUSH2 0x19FB JUMP JUMPDEST DUP1 CALLDATALOAD PUSH2 0xFFFF DUP2 AND DUP2 EQ PUSH2 0x1A21 JUMPI PUSH1 0x0 DUP1 REVERT JUMPDEST SWAP2 SWAP1 POP JUMP JUMPDEST PUSH1 0x0 DUP1 DUP4 PUSH1 0x1F DUP5 ADD SLT PUSH2 0x1A38 JUMPI PUSH1 0x0 DUP1 REVERT JUMPDEST POP DUP2 CALLDATALOAD PUSH1 0x1 PUSH1 0x1 PUSH1 0x40 SHL SUB DUP2 GT ISZERO PUSH2 0x1A4F JUMPI PUSH1 0x0 DUP1 REVERT JUMPDEST PUSH1 0x20 DUP4 ADD SWAP2 POP DUP4 PUSH1 0x20 DUP3 DUP6 ADD ADD GT ISZERO PUSH2 0x1A67 JUMPI PUSH1 0x0 DUP1 REVERT JUMPDEST SWAP3 POP SWAP3 SWAP1 POP JUMP JUMPDEST DUP1 CALLDATALOAD PUSH1 0x1 PUSH1 0x1 PUSH1 0x40 SHL SUB DUP2 AND DUP2 EQ PUSH2 0x1A21 JUMPI PUSH1 0x0 DUP1 REVERT JUMPDEST PUSH1 0x0 DUP1 PUSH1 0x0 DUP1 PUSH1 0x0 DUP1 PUSH1 0x80 DUP8 DUP10 SUB SLT ISZERO PUSH2 0x1A9E JUMPI PUSH1 0x0 DUP1 REVERT JUMPDEST PUSH2 0x1AA7 DUP8 PUSH2 0x1A0F JUMP JUMPDEST SWAP6 POP PUSH1 0x20 DUP8 ADD CALLDATALOAD PUSH1 0x1 PUSH1 0x1 PUSH1 0x40 SHL SUB DUP1 DUP3 GT ISZERO PUSH2 0x1AC3 JUMPI PUSH1 0x0 DUP1 REVERT JUMPDEST PUSH2 0x1ACF DUP11 DUP4 DUP12 ADD PUSH2 0x1A26 JUMP JUMPDEST SWAP1 SWAP8 POP SWAP6 POP DUP6 SWAP2 POP PUSH2 0x1AE3 PUSH1 0x40 DUP11 ADD PUSH2 0x1A6E JUMP JUMPDEST SWAP5 POP PUSH1 0x60 DUP10 ADD CALLDATALOAD SWAP2 POP DUP1 DUP3 GT ISZERO PUSH2 0x1AF9 JUMPI PUSH1 0x0 DUP1 REVERT JUMPDEST POP PUSH2 0x1B06 DUP10 DUP3 DUP11 ADD PUSH2 0x1A26 JUMP JUMPDEST SWAP8 SWAP11 SWAP7 SWAP10 POP SWAP5 SWAP8 POP SWAP3 SWAP6 SWAP4 SWAP5 SWAP3 POP POP POP JUMP JUMPDEST PUSH1 0x0 PUSH1 0x20 DUP3 DUP5 SUB SLT ISZERO PUSH2 0x1B2A JUMPI PUSH1 0x0 DUP1 REVERT JUMPDEST PUSH2 0x9A4 DUP3 PUSH2 0x1A0F JUMP JUMPDEST PUSH1 0x0 DUP1 PUSH1 0x40 DUP4 DUP6 SUB SLT ISZERO PUSH2 0x1B46 JUMPI PUSH1 0x0 DUP1 REVERT JUMPDEST PUSH2 0x1B4F DUP4 PUSH2 0x1A0F JUMP JUMPDEST SWAP5 PUSH1 0x20 SWAP4 SWAP1 SWAP4 ADD CALLDATALOAD SWAP4 POP POP POP JUMP JUMPDEST PUSH1 0x0 DUP1 PUSH1 0x0 PUSH1 0x40 DUP5 DUP7 SUB SLT ISZERO PUSH2 0x1B72 JUMPI PUSH1 0x0 DUP1 REVERT JUMPDEST PUSH2 0x1B7B DUP5 PUSH2 0x1A0F JUMP JUMPDEST SWAP3 POP PUSH1 0x20 DUP5 ADD CALLDATALOAD PUSH1 0x1 PUSH1 0x1 PUSH1 0x40 SHL SUB DUP2 GT ISZERO PUSH2 0x1B96 JUMPI PUSH1 0x0 DUP1 REVERT JUMPDEST PUSH2 0x1BA2 DUP7 DUP3 DUP8 ADD PUSH2 0x1A26 JUMP JUMPDEST SWAP5 SWAP8 SWAP1 SWAP7 POP SWAP4 SWAP5 POP POP POP POP JUMP JUMPDEST PUSH4 0x4E487B71 PUSH1 0xE0 SHL PUSH1 0x0 MSTORE PUSH1 0x41 PUSH1 0x4 MSTORE PUSH1 0x24 PUSH1 0x0 REVERT JUMPDEST PUSH1 0x40 MLOAD PUSH1 0x1F DUP3 ADD PUSH1 0x1F NOT AND DUP2 ADD PUSH1 0x1 PUSH1 0x1 PUSH1 0x40 SHL SUB DUP2 GT DUP3 DUP3 LT OR ISZERO PUSH2 0x1BED JUMPI PUSH2 0x1BED PUSH2 0x1BAF JUMP JUMPDEST PUSH1 0x40 MSTORE SWAP2 SWAP1 POP JUMP JUMPDEST PUSH1 0x0 PUSH1 0x1 PUSH1 0x1 PUSH1 0x40 SHL SUB DUP3 GT ISZERO PUSH2 0x1C0E JUMPI PUSH2 0x1C0E PUSH2 0x1BAF JUMP JUMPDEST POP PUSH1 0x1F ADD PUSH1 0x1F NOT AND PUSH1 0x20 ADD SWAP1 JUMP JUMPDEST PUSH1 0x0 PUSH2 0x1C2F PUSH2 0x1C2A DUP5 PUSH2 0x1BF5 JUMP JUMPDEST PUSH2 0x1BC5 JUMP JUMPDEST SWAP1 POP DUP3 DUP2 MSTORE DUP4 DUP4 DUP4 ADD GT ISZERO PUSH2 0x1C43 JUMPI PUSH1 0x0 DUP1 REVERT JUMPDEST DUP3 DUP3 PUSH1 0x20 DUP4 ADD CALLDATACOPY PUSH1 0x0 PUSH1 0x20 DUP5 DUP4 ADD ADD MSTORE SWAP4 SWAP3 POP POP POP JUMP JUMPDEST PUSH1 0x0 DUP1 PUSH1 0x0 PUSH1 0x60 DUP5 DUP7 SUB SLT ISZERO PUSH2 0x1C6F JUMPI PUSH1 0x0 DUP1 REVERT JUMPDEST PUSH2 0x1C78 DUP5 PUSH2 0x1A0F JUMP JUMPDEST SWAP3 POP PUSH1 0x20 DUP5 ADD CALLDATALOAD PUSH1 0x1 PUSH1 0x1 PUSH1 0x40 SHL SUB DUP2 GT ISZERO PUSH2 0x1C93 JUMPI PUSH1 0x0 DUP1 REVERT JUMPDEST DUP5 ADD PUSH1 0x1F DUP2 ADD DUP7 SGT PUSH2 0x1CA4 JUMPI PUSH1 0x0 DUP1 REVERT JUMPDEST PUSH2 0x1CB3 DUP7 DUP3 CALLDATALOAD PUSH1 0x20 DUP5 ADD PUSH2 0x1C1C JUMP JUMPDEST SWAP3 POP POP PUSH2 0x1CC2 PUSH1 0x40 DUP6 ADD PUSH2 0x1A6E JUMP JUMPDEST SWAP1 POP SWAP3 POP SWAP3 POP SWAP3 JUMP JUMPDEST DUP1 CALLDATALOAD PUSH1 0x1 PUSH1 0x1 PUSH1 0xA0 SHL SUB DUP2 AND DUP2 EQ PUSH2 0x1A21 JUMPI PUSH1 0x0 DUP1 REVERT JUMPDEST PUSH1 0x0 PUSH1 0x20 DUP3 DUP5 SUB SLT ISZERO PUSH2 0x1CF4 JUMPI PUSH1 0x0 DUP1 REVERT JUMPDEST PUSH2 0x9A4 DUP3 PUSH2 0x1CCB JUMP JUMPDEST PUSH1 0x0 PUSH1 0x20 DUP3 DUP5 SUB SLT ISZERO PUSH2 0x1D0F JUMPI PUSH1 0x0 DUP1 REVERT JUMPDEST DUP2 CALLDATALOAD PUSH1 0x1 PUSH1 0x1 PUSH1 0x40 SHL SUB DUP2 GT ISZERO PUSH2 0x1D25 JUMPI PUSH1 0x0 DUP1 REVERT JUMPDEST DUP3 ADD PUSH1 0x1F DUP2 ADD DUP5 SGT PUSH2 0x1D36 JUMPI PUSH1 0x0 DUP1 REVERT JUMPDEST PUSH2 0x1D45 DUP5 DUP3 CALLDATALOAD PUSH1 0x20 DUP5 ADD PUSH2 0x1C1C JUMP JUMPDEST SWAP5 SWAP4 POP POP POP POP JUMP JUMPDEST PUSH1 0x0 JUMPDEST DUP4 DUP2 LT ISZERO PUSH2 0x1D68 JUMPI DUP2 DUP2 ADD MLOAD DUP4 DUP3 ADD MSTORE PUSH1 0x20 ADD PUSH2 0x1D50 JUMP JUMPDEST DUP4 DUP2 GT ISZERO PUSH2 0x1D77 JUMPI PUSH1 0x0 DUP5 DUP5 ADD MSTORE JUMPDEST POP POP POP POP JUMP JUMPDEST PUSH1 0x0 DUP2 MLOAD DUP1 DUP5 MSTORE PUSH2 0x1D95 DUP2 PUSH1 0x20 DUP7 ADD PUSH1 0x20 DUP7 ADD PUSH2 0x1D4D JUMP JUMPDEST PUSH1 0x1F ADD PUSH1 0x1F NOT AND SWAP3 SWAP1 SWAP3 ADD PUSH1 0x20 ADD SWAP3 SWAP2 POP POP JUMP JUMPDEST PUSH1 0x20 DUP2 MSTORE PUSH1 0x0 PUSH2 0x9A4 PUSH1 0x20 DUP4 ADD DUP5 PUSH2 0x1D7D JUMP JUMPDEST PUSH1 0x0 DUP1 PUSH1 0x40 DUP4 DUP6 SUB SLT ISZERO PUSH2 0x1DCF JUMPI PUSH1 0x0 DUP1 REVERT JUMPDEST PUSH2 0x1DD8 DUP4 PUSH2 0x1A0F JUMP JUMPDEST SWAP2 POP PUSH2 0x1DE6 PUSH1 0x20 DUP5 ADD PUSH2 0x1A0F JUMP JUMPDEST SWAP1 POP SWAP3 POP SWAP3 SWAP1 POP JUMP JUMPDEST PUSH1 0x0 DUP1 PUSH1 0x0 DUP1 PUSH1 0x0 PUSH1 0x80 DUP7 DUP9 SUB SLT ISZERO PUSH2 0x1E07 JUMPI PUSH1 0x0 DUP1 REVERT JUMPDEST PUSH2 0x1E10 DUP7 PUSH2 0x1A0F JUMP JUMPDEST SWAP5 POP PUSH2 0x1E1E PUSH1 0x20 DUP8 ADD PUSH2 0x1A0F JUMP JUMPDEST SWAP4 POP PUSH1 0x40 DUP7 ADD CALLDATALOAD SWAP3 POP PUSH1 0x60 DUP7 ADD CALLDATALOAD PUSH1 0x1 PUSH1 0x1 PUSH1 0x40 SHL SUB DUP2 GT ISZERO PUSH2 0x1E40 JUMPI PUSH1 0x0 DUP1 REVERT JUMPDEST PUSH2 0x1E4C DUP9 DUP3 DUP10 ADD PUSH2 0x1A26 JUMP JUMPDEST SWAP7 SWAP10 SWAP6 SWAP9 POP SWAP4 SWAP7 POP SWAP3 SWAP5 SWAP4 SWAP3 POP POP POP JUMP JUMPDEST PUSH1 0x0 DUP1 PUSH1 0x0 PUSH1 0x60 DUP5 DUP7 SUB SLT ISZERO PUSH2 0x1E72 JUMPI PUSH1 0x0 DUP1 REVERT JUMPDEST PUSH2 0x1E7B DUP5 PUSH2 0x1A0F JUMP JUMPDEST SWAP3 POP PUSH2 0x1E89 PUSH1 0x20 DUP6 ADD PUSH2 0x1A0F JUMP JUMPDEST SWAP2 POP PUSH1 0x40 DUP5 ADD CALLDATALOAD SWAP1 POP SWAP3 POP SWAP3 POP SWAP3 JUMP JUMPDEST PUSH1 0x0 DUP1 PUSH1 0x0 DUP1 PUSH1 0x80 DUP6 DUP8 SUB SLT ISZERO PUSH2 0x1EAF JUMPI PUSH1 0x0 DUP1 REVERT JUMPDEST PUSH2 0x1EB8 DUP6 PUSH2 0x1A0F JUMP JUMPDEST SWAP4 POP PUSH2 0x1EC6 PUSH1 0x20 DUP7 ADD PUSH2 0x1A0F JUMP JUMPDEST SWAP3 POP PUSH2 0x1ED4 PUSH1 0x40 DUP7 ADD PUSH2 0x1CCB JUMP JUMPDEST SWAP4 SWAP7 SWAP3 SWAP6 POP SWAP3 SWAP4 PUSH1 0x60 ADD CALLDATALOAD SWAP3 POP POP JUMP JUMPDEST PUSH1 0x1 DUP2 DUP2 SHR SWAP1 DUP3 AND DUP1 PUSH2 0x1EF8 JUMPI PUSH1 0x7F DUP3 AND SWAP2 POP JUMPDEST PUSH1 0x20 DUP3 LT DUP2 EQ ISZERO PUSH2 0x1F19 JUMPI PUSH4 0x4E487B71 PUSH1 0xE0 SHL PUSH1 0x0 MSTORE PUSH1 0x22 PUSH1 0x4 MSTORE PUSH1 0x24 PUSH1 0x0 REVERT JUMPDEST POP SWAP2 SWAP1 POP JUMP JUMPDEST DUP2 DUP4 DUP3 CALLDATACOPY PUSH1 0x0 SWAP2 ADD SWAP1 DUP2 MSTORE SWAP2 SWAP1 POP JUMP JUMPDEST DUP2 DUP4 MSTORE DUP2 DUP2 PUSH1 0x20 DUP6 ADD CALLDATACOPY POP PUSH1 0x0 DUP3 DUP3 ADD PUSH1 0x20 SWAP1 DUP2 ADD SWAP2 SWAP1 SWAP2 MSTORE PUSH1 0x1F SWAP1 SWAP2 ADD PUSH1 0x1F NOT AND SWAP1 SWAP2 ADD ADD SWAP1 JUMP JUMPDEST PUSH2 0xFFFF DUP5 AND DUP2 MSTORE PUSH1 0x40 PUSH1 0x20 DUP3 ADD MSTORE PUSH1 0x0 PUSH2 0x1361 PUSH1 0x40 DUP4 ADD DUP5 DUP7 PUSH2 0x1F2F JUMP JUMPDEST PUSH4 0x4E487B71 PUSH1 0xE0 SHL PUSH1 0x0 MSTORE PUSH1 0x11 PUSH1 0x4 MSTORE PUSH1 0x24 PUSH1 0x0 REVERT JUMPDEST PUSH1 0x0 DUP3 DUP3 LT ISZERO PUSH2 0x1F9E JUMPI PUSH2 0x1F9E PUSH2 0x1F76 JUMP JUMPDEST POP SUB SWAP1 JUMP JUMPDEST DUP3 DUP5 DUP3 CALLDATACOPY PUSH1 0x60 SWAP2 SWAP1 SWAP2 SHL PUSH12 0xFFFFFFFFFFFFFFFFFFFFFFFF NOT AND SWAP2 ADD SWAP1 DUP2 MSTORE PUSH1 0x14 ADD SWAP2 SWAP1 POP JUMP JUMPDEST PUSH1 0x0 PUSH2 0xFFFF DUP1 DUP9 AND DUP4 MSTORE DUP1 DUP8 AND PUSH1 0x20 DUP5 ADD MSTORE POP DUP5 PUSH1 0x40 DUP4 ADD MSTORE PUSH1 0x80 PUSH1 0x60 DUP4 ADD MSTORE PUSH2 0x1FF7 PUSH1 0x80 DUP4 ADD DUP5 DUP7 PUSH2 0x1F2F JUMP JUMPDEST SWAP8 SWAP7 POP POP POP POP POP POP POP JUMP JUMPDEST PUSH2 0xFFFF DUP7 AND DUP2 MSTORE PUSH1 0x80 PUSH1 0x20 DUP3 ADD MSTORE PUSH1 0x0 PUSH2 0x2020 PUSH1 0x80 DUP4 ADD DUP7 DUP9 PUSH2 0x1F2F JUMP JUMPDEST PUSH1 0x1 PUSH1 0x1 PUSH1 0x40 SHL SUB SWAP5 SWAP1 SWAP5 AND PUSH1 0x40 DUP4 ADD MSTORE POP PUSH1 0x60 ADD MSTORE SWAP4 SWAP3 POP POP POP JUMP JUMPDEST PUSH1 0x0 PUSH2 0x204B PUSH2 0x1C2A DUP5 PUSH2 0x1BF5 JUMP JUMPDEST SWAP1 POP DUP3 DUP2 MSTORE DUP4 DUP4 DUP4 ADD GT ISZERO PUSH2 0x205F JUMPI PUSH1 0x0 DUP1 REVERT JUMPDEST PUSH2 0x9A4 DUP4 PUSH1 0x20 DUP4 ADD DUP5 PUSH2 0x1D4D JUMP JUMPDEST PUSH1 0x0 PUSH1 0x20 DUP3 DUP5 SUB SLT ISZERO PUSH2 0x207F JUMPI PUSH1 0x0 DUP1 REVERT JUMPDEST DUP2 MLOAD PUSH1 0x1 PUSH1 0x1 PUSH1 0x40 SHL SUB DUP2 GT ISZERO PUSH2 0x2095 JUMPI PUSH1 0x0 DUP1 REVERT JUMPDEST DUP3 ADD PUSH1 0x1F DUP2 ADD DUP5 SGT PUSH2 0x20A6 JUMPI PUSH1 0x0 DUP1 REVERT JUMPDEST PUSH2 0x1D45 DUP5 DUP3 MLOAD PUSH1 0x20 DUP5 ADD PUSH2 0x203D JUMP JUMPDEST PUSH2 0xFFFF DUP6 AND DUP2 MSTORE PUSH1 0x80 PUSH1 0x20 DUP3 ADD MSTORE PUSH1 0x0 PUSH2 0x20D2 PUSH1 0x80 DUP4 ADD DUP7 PUSH2 0x1D7D JUMP JUMPDEST PUSH1 0x1 PUSH1 0x1 PUSH1 0x40 SHL SUB DUP6 AND PUSH1 0x40 DUP5 ADD MSTORE DUP3 DUP2 SUB PUSH1 0x60 DUP5 ADD MSTORE PUSH2 0x1FF7 DUP2 DUP6 PUSH2 0x1D7D JUMP JUMPDEST PUSH2 0xFFFF DUP8 AND DUP2 MSTORE PUSH1 0xC0 PUSH1 0x20 DUP3 ADD MSTORE PUSH1 0x0 PUSH2 0x2110 PUSH1 0xC0 DUP4 ADD DUP9 PUSH2 0x1D7D JUMP JUMPDEST DUP3 DUP2 SUB PUSH1 0x40 DUP5 ADD MSTORE PUSH2 0x2122 DUP2 DUP9 PUSH2 0x1D7D JUMP JUMPDEST PUSH1 0x1 PUSH1 0x1 PUSH1 0xA0 SHL SUB DUP8 DUP2 AND PUSH1 0x60 DUP7 ADD MSTORE DUP7 AND PUSH1 0x80 DUP6 ADD MSTORE DUP4 DUP2 SUB PUSH1 0xA0 DUP6 ADD MSTORE SWAP1 POP PUSH2 0x214D DUP2 DUP6 PUSH2 0x1D7D JUMP JUMPDEST SWAP10 SWAP9 POP POP POP POP POP POP POP POP POP JUMP JUMPDEST PUSH1 0x0 DUP3 NOT DUP3 GT ISZERO PUSH2 0x216D JUMPI PUSH2 0x216D PUSH2 0x1F76 JUMP JUMPDEST POP ADD SWAP1 JUMP JUMPDEST PUSH1 0x0 DUP3 MLOAD PUSH2 0x2184 DUP2 DUP5 PUSH1 0x20 DUP8 ADD PUSH2 0x1D4D JUMP JUMPDEST SWAP2 SWAP1 SWAP2 ADD SWAP3 SWAP2 POP POP JUMP JUMPDEST PUSH2 0xFFFF DUP7 AND DUP2 MSTORE PUSH1 0xA0 PUSH1 0x20 DUP3 ADD MSTORE PUSH1 0x0 PUSH2 0x21AB PUSH1 0xA0 DUP4 ADD DUP8 PUSH2 0x1D7D JUMP JUMPDEST PUSH1 0x1 PUSH1 0x1 PUSH1 0x40 SHL SUB DUP7 AND PUSH1 0x40 DUP5 ADD MSTORE DUP3 DUP2 SUB PUSH1 0x60 DUP5 ADD MSTORE PUSH2 0x21CC DUP2 DUP7 PUSH2 0x1D7D JUMP JUMPDEST SWAP1 POP DUP3 DUP2 SUB PUSH1 0x80 DUP5 ADD MSTORE PUSH2 0x21E0 DUP2 DUP6 PUSH2 0x1D7D JUMP JUMPDEST SWAP9 SWAP8 POP POP POP POP POP POP POP POP JUMP INVALID LOG2 PUSH5 0x6970667358 0x22 SLT KECCAK256 PUSH25 0x566DF60312DB95FCD6BF1EA4DAF1F58AC441C985BA338A528E 0xC4 PUSH32 0xD5A1A80964736F6C634300080900330000000000000000000000000000000000 "
		},
		"gasEstimates": {
			"creation": {
				"codeDepositCost": "1747600",
				"executionCost": "infinite",
				"totalCost": "infinite"
			},
			"external": {
				"DEFAULT_PAYLOAD_SIZE_LIMIT()": "240",
				"data()": "infinite",
				"failedMessages(uint16,bytes,uint64)": "infinite",
				"forceResumeReceive(uint16,bytes)": "infinite",
				"getConfig(uint16,uint16,address,uint256)": "infinite",
				"getTrustedRemoteAddress(uint16)": "infinite",
				"isTrustedRemote(uint16,bytes)": "infinite",
				"lzEndpoint()": "infinite",
				"lzReceive(uint16,bytes,uint64,bytes)": "infinite",
				"minDstGasLookup(uint16,uint16)": "infinite",
				"nonblockingLzReceive(uint16,bytes,uint64,bytes)": "infinite",
				"owner()": "2388",
				"payloadSizeLimitLookup(uint16)": "2597",
				"precrime()": "2427",
				"renounceOwnership()": "infinite",
				"retryMessage(uint16,bytes,uint64,bytes)": "infinite",
				"send(string)": "infinite",
				"setConfig(uint16,uint16,uint256,bytes)": "infinite",
				"setMinDstGas(uint16,uint16,uint256)": "infinite",
				"setPayloadSizeLimit(uint16,uint256)": "24747",
				"setPrecrime(address)": "27899",
				"setReceiveVersion(uint16)": "infinite",
				"setSendVersion(uint16)": "infinite",
				"setTrustedRemote(uint16,bytes)": "infinite",
				"setTrustedRemoteAddress(uint16,bytes)": "infinite",
				"transferOwnership(address)": "28421",
				"trustAddress(address)": "infinite",
				"trustedRemoteLookup(uint16)": "infinite"
			},
			"internal": {
				"_nonblockingLzReceive(uint16,bytes memory,uint64,bytes memory)": "infinite"
			}
		},
		"methodIdentifiers": {
			"DEFAULT_PAYLOAD_SIZE_LIMIT()": "c4461834",
			"data()": "73d4a13a",
			"failedMessages(uint16,bytes,uint64)": "5b8c41e6",
			"forceResumeReceive(uint16,bytes)": "42d65a8d",
			"getConfig(uint16,uint16,address,uint256)": "f5ecbdbc",
			"getTrustedRemoteAddress(uint16)": "9f38369a",
			"isTrustedRemote(uint16,bytes)": "3d8b38f6",
			"lzEndpoint()": "b353aaa7",
			"lzReceive(uint16,bytes,uint64,bytes)": "001d3567",
			"minDstGasLookup(uint16,uint16)": "8cfd8f5c",
			"nonblockingLzReceive(uint16,bytes,uint64,bytes)": "66ad5c8a",
			"owner()": "8da5cb5b",
			"payloadSizeLimitLookup(uint16)": "3f1f4fa4",
			"precrime()": "950c8a74",
			"renounceOwnership()": "715018a6",
			"retryMessage(uint16,bytes,uint64,bytes)": "d1deba1f",
			"send(string)": "66792ba1",
			"setConfig(uint16,uint16,uint256,bytes)": "cbed8b9c",
			"setMinDstGas(uint16,uint16,uint256)": "df2a5b3b",
			"setPayloadSizeLimit(uint16,uint256)": "0df37483",
			"setPrecrime(address)": "baf3292d",
			"setReceiveVersion(uint16)": "10ddb137",
			"setSendVersion(uint16)": "07e0db17",
			"setTrustedRemote(uint16,bytes)": "eb8d72b7",
			"setTrustedRemoteAddress(uint16,bytes)": "a6c3d165",
			"transferOwnership(address)": "f2fde38b",
			"trustAddress(address)": "5cdf1649",
			"trustedRemoteLookup(uint16)": "7533d788"
		}
	},
	"abi": [
		{
			"inputs": [
				{
					"internalType": "address",
					"name": "_lzEndpoint",
					"type": "address"
				}
			],
			"stateMutability": "nonpayable",
			"type": "constructor"
		},
		{
			"anonymous": false,
			"inputs": [
				{
					"indexed": false,
					"internalType": "uint16",
					"name": "_srcChainId",
					"type": "uint16"
				},
				{
					"indexed": false,
					"internalType": "bytes",
					"name": "_srcAddress",
					"type": "bytes"
				},
				{
					"indexed": false,
					"internalType": "uint64",
					"name": "_nonce",
					"type": "uint64"
				},
				{
					"indexed": false,
					"internalType": "bytes",
					"name": "_payload",
					"type": "bytes"
				},
				{
					"indexed": false,
					"internalType": "bytes",
					"name": "_reason",
					"type": "bytes"
				}
			],
			"name": "MessageFailed",
			"type": "event"
		},
		{
			"anonymous": false,
			"inputs": [
				{
					"indexed": true,
					"internalType": "address",
					"name": "previousOwner",
					"type": "address"
				},
				{
					"indexed": true,
					"internalType": "address",
					"name": "newOwner",
					"type": "address"
				}
			],
			"name": "OwnershipTransferred",
			"type": "event"
		},
		{
			"anonymous": false,
			"inputs": [
				{
					"indexed": false,
					"internalType": "uint16",
					"name": "_srcChainId",
					"type": "uint16"
				},
				{
					"indexed": false,
					"internalType": "bytes",
					"name": "_srcAddress",
					"type": "bytes"
				},
				{
					"indexed": false,
					"internalType": "uint64",
					"name": "_nonce",
					"type": "uint64"
				},
				{
					"indexed": false,
					"internalType": "bytes32",
					"name": "_payloadHash",
					"type": "bytes32"
				}
			],
			"name": "RetryMessageSuccess",
			"type": "event"
		},
		{
			"anonymous": false,
			"inputs": [
				{
					"indexed": false,
					"internalType": "uint16",
					"name": "_dstChainId",
					"type": "uint16"
				},
				{
					"indexed": false,
					"internalType": "uint16",
					"name": "_type",
					"type": "uint16"
				},
				{
					"indexed": false,
					"internalType": "uint256",
					"name": "_minDstGas",
					"type": "uint256"
				}
			],
			"name": "SetMinDstGas",
			"type": "event"
		},
		{
			"anonymous": false,
			"inputs": [
				{
					"indexed": false,
					"internalType": "address",
					"name": "precrime",
					"type": "address"
				}
			],
			"name": "SetPrecrime",
			"type": "event"
		},
		{
			"anonymous": false,
			"inputs": [
				{
					"indexed": false,
					"internalType": "uint16",
					"name": "_remoteChainId",
					"type": "uint16"
				},
				{
					"indexed": false,
					"internalType": "bytes",
					"name": "_path",
					"type": "bytes"
				}
			],
			"name": "SetTrustedRemote",
			"type": "event"
		},
		{
			"anonymous": false,
			"inputs": [
				{
					"indexed": false,
					"internalType": "uint16",
					"name": "_remoteChainId",
					"type": "uint16"
				},
				{
					"indexed": false,
					"internalType": "bytes",
					"name": "_remoteAddress",
					"type": "bytes"
				}
			],
			"name": "SetTrustedRemoteAddress",
			"type": "event"
		},
		{
			"inputs": [],
			"name": "DEFAULT_PAYLOAD_SIZE_LIMIT",
			"outputs": [
				{
					"internalType": "uint256",
					"name": "",
					"type": "uint256"
				}
			],
			"stateMutability": "view",
			"type": "function"
		},
		{
			"inputs": [],
			"name": "data",
			"outputs": [
				{
					"internalType": "string",
					"name": "",
					"type": "string"
				}
			],
			"stateMutability": "view",
			"type": "function"
		},
		{
			"inputs": [
				{
					"internalType": "uint16",
					"name": "",
					"type": "uint16"
				},
				{
					"internalType": "bytes",
					"name": "",
					"type": "bytes"
				},
				{
					"internalType": "uint64",
					"name": "",
					"type": "uint64"
				}
			],
			"name": "failedMessages",
			"outputs": [
				{
					"internalType": "bytes32",
					"name": "",
					"type": "bytes32"
				}
			],
			"stateMutability": "view",
			"type": "function"
		},
		{
			"inputs": [
				{
					"internalType": "uint16",
					"name": "_srcChainId",
					"type": "uint16"
				},
				{
					"internalType": "bytes",
					"name": "_srcAddress",
					"type": "bytes"
				}
			],
			"name": "forceResumeReceive",
			"outputs": [],
			"stateMutability": "nonpayable",
			"type": "function"
		},
		{
			"inputs": [
				{
					"internalType": "uint16",
					"name": "_version",
					"type": "uint16"
				},
				{
					"internalType": "uint16",
					"name": "_chainId",
					"type": "uint16"
				},
				{
					"internalType": "address",
					"name": "",
					"type": "address"
				},
				{
					"internalType": "uint256",
					"name": "_configType",
					"type": "uint256"
				}
			],
			"name": "getConfig",
			"outputs": [
				{
					"internalType": "bytes",
					"name": "",
					"type": "bytes"
				}
			],
			"stateMutability": "view",
			"type": "function"
		},
		{
			"inputs": [
				{
					"internalType": "uint16",
					"name": "_remoteChainId",
					"type": "uint16"
				}
			],
			"name": "getTrustedRemoteAddress",
			"outputs": [
				{
					"internalType": "bytes",
					"name": "",
					"type": "bytes"
				}
			],
			"stateMutability": "view",
			"type": "function"
		},
		{
			"inputs": [
				{
					"internalType": "uint16",
					"name": "_srcChainId",
					"type": "uint16"
				},
				{
					"internalType": "bytes",
					"name": "_srcAddress",
					"type": "bytes"
				}
			],
			"name": "isTrustedRemote",
			"outputs": [
				{
					"internalType": "bool",
					"name": "",
					"type": "bool"
				}
			],
			"stateMutability": "view",
			"type": "function"
		},
		{
			"inputs": [],
			"name": "lzEndpoint",
			"outputs": [
				{
					"internalType": "contract ILayerZeroEndpoint",
					"name": "",
					"type": "address"
				}
			],
			"stateMutability": "view",
			"type": "function"
		},
		{
			"inputs": [
				{
					"internalType": "uint16",
					"name": "_srcChainId",
					"type": "uint16"
				},
				{
					"internalType": "bytes",
					"name": "_srcAddress",
					"type": "bytes"
				},
				{
					"internalType": "uint64",
					"name": "_nonce",
					"type": "uint64"
				},
				{
					"internalType": "bytes",
					"name": "_payload",
					"type": "bytes"
				}
			],
			"name": "lzReceive",
			"outputs": [],
			"stateMutability": "nonpayable",
			"type": "function"
		},
		{
			"inputs": [
				{
					"internalType": "uint16",
					"name": "",
					"type": "uint16"
				},
				{
					"internalType": "uint16",
					"name": "",
					"type": "uint16"
				}
			],
			"name": "minDstGasLookup",
			"outputs": [
				{
					"internalType": "uint256",
					"name": "",
					"type": "uint256"
				}
			],
			"stateMutability": "view",
			"type": "function"
		},
		{
			"inputs": [
				{
					"internalType": "uint16",
					"name": "_srcChainId",
					"type": "uint16"
				},
				{
					"internalType": "bytes",
					"name": "_srcAddress",
					"type": "bytes"
				},
				{
					"internalType": "uint64",
					"name": "_nonce",
					"type": "uint64"
				},
				{
					"internalType": "bytes",
					"name": "_payload",
					"type": "bytes"
				}
			],
			"name": "nonblockingLzReceive",
			"outputs": [],
			"stateMutability": "nonpayable",
			"type": "function"
		},
		{
			"inputs": [],
			"name": "owner",
			"outputs": [
				{
					"internalType": "address",
					"name": "",
					"type": "address"
				}
			],
			"stateMutability": "view",
			"type": "function"
		},
		{
			"inputs": [
				{
					"internalType": "uint16",
					"name": "",
					"type": "uint16"
				}
			],
			"name": "payloadSizeLimitLookup",
			"outputs": [
				{
					"internalType": "uint256",
					"name": "",
					"type": "uint256"
				}
			],
			"stateMutability": "view",
			"type": "function"
		},
		{
			"inputs": [],
			"name": "precrime",
			"outputs": [
				{
					"internalType": "address",
					"name": "",
					"type": "address"
				}
			],
			"stateMutability": "view",
			"type": "function"
		},
		{
			"inputs": [],
			"name": "renounceOwnership",
			"outputs": [],
			"stateMutability": "nonpayable",
			"type": "function"
		},
		{
			"inputs": [
				{
					"internalType": "uint16",
					"name": "_srcChainId",
					"type": "uint16"
				},
				{
					"internalType": "bytes",
					"name": "_srcAddress",
					"type": "bytes"
				},
				{
					"internalType": "uint64",
					"name": "_nonce",
					"type": "uint64"
				},
				{
					"internalType": "bytes",
					"name": "_payload",
					"type": "bytes"
				}
			],
			"name": "retryMessage",
			"outputs": [],
			"stateMutability": "payable",
			"type": "function"
		},
		{
			"inputs": [
				{
					"internalType": "string",
					"name": "_message",
					"type": "string"
				}
			],
			"name": "send",
			"outputs": [],
			"stateMutability": "payable",
			"type": "function"
		},
		{
			"inputs": [
				{
					"internalType": "uint16",
					"name": "_version",
					"type": "uint16"
				},
				{
					"internalType": "uint16",
					"name": "_chainId",
					"type": "uint16"
				},
				{
					"internalType": "uint256",
					"name": "_configType",
					"type": "uint256"
				},
				{
					"internalType": "bytes",
					"name": "_config",
					"type": "bytes"
				}
			],
			"name": "setConfig",
			"outputs": [],
			"stateMutability": "nonpayable",
			"type": "function"
		},
		{
			"inputs": [
				{
					"internalType": "uint16",
					"name": "_dstChainId",
					"type": "uint16"
				},
				{
					"internalType": "uint16",
					"name": "_packetType",
					"type": "uint16"
				},
				{
					"internalType": "uint256",
					"name": "_minGas",
					"type": "uint256"
				}
			],
			"name": "setMinDstGas",
			"outputs": [],
			"stateMutability": "nonpayable",
			"type": "function"
		},
		{
			"inputs": [
				{
					"internalType": "uint16",
					"name": "_dstChainId",
					"type": "uint16"
				},
				{
					"internalType": "uint256",
					"name": "_size",
					"type": "uint256"
				}
			],
			"name": "setPayloadSizeLimit",
			"outputs": [],
			"stateMutability": "nonpayable",
			"type": "function"
		},
		{
			"inputs": [
				{
					"internalType": "address",
					"name": "_precrime",
					"type": "address"
				}
			],
			"name": "setPrecrime",
			"outputs": [],
			"stateMutability": "nonpayable",
			"type": "function"
		},
		{
			"inputs": [
				{
					"internalType": "uint16",
					"name": "_version",
					"type": "uint16"
				}
			],
			"name": "setReceiveVersion",
			"outputs": [],
			"stateMutability": "nonpayable",
			"type": "function"
		},
		{
			"inputs": [
				{
					"internalType": "uint16",
					"name": "_version",
					"type": "uint16"
				}
			],
			"name": "setSendVersion",
			"outputs": [],
			"stateMutability": "nonpayable",
			"type": "function"
		},
		{
			"inputs": [
				{
					"internalType": "uint16",
					"name": "_remoteChainId",
					"type": "uint16"
				},
				{
					"internalType": "bytes",
					"name": "_path",
					"type": "bytes"
				}
			],
			"name": "setTrustedRemote",
			"outputs": [],
			"stateMutability": "nonpayable",
			"type": "function"
		},
		{
			"inputs": [
				{
					"internalType": "uint16",
					"name": "_remoteChainId",
					"type": "uint16"
				},
				{
					"internalType": "bytes",
					"name": "_remoteAddress",
					"type": "bytes"
				}
			],
			"name": "setTrustedRemoteAddress",
			"outputs": [],
			"stateMutability": "nonpayable",
			"type": "function"
		},
		{
			"inputs": [
				{
					"internalType": "address",
					"name": "newOwner",
					"type": "address"
				}
			],
			"name": "transferOwnership",
			"outputs": [],
			"stateMutability": "nonpayable",
			"type": "function"
		},
		{
			"inputs": [
				{
					"internalType": "address",
					"name": "_otherContract",
					"type": "address"
				}
			],
			"name": "trustAddress",
			"outputs": [],
			"stateMutability": "nonpayable",
			"type": "function"
		},
		{
			"inputs": [
				{
					"internalType": "uint16",
					"name": "",
					"type": "uint16"
				}
			],
			"name": "trustedRemoteLookup",
			"outputs": [
				{
					"internalType": "bytes",
					"name": "",
					"type": "bytes"
				}
			],
			"stateMutability": "view",
			"type": "function"
		}
	]
}