{
	"ERC3643Original/contracts/registry/implementation/TrustedIssuersRegistry.sol": {
		"TrustedIssuersRegistry": {
			"abi": [
				{
					"anonymous": false,
					"inputs": [
						{
							"indexed": true,
							"internalType": "contract IClaimIssuer",
							"name": "trustedIssuer",
							"type": "address"
						},
						{
							"indexed": false,
							"internalType": "uint256[]",
							"name": "claimTopics",
							"type": "uint256[]"
						}
					],
					"name": "ClaimTopicsUpdated",
					"type": "event"
				},
				{
					"anonymous": false,
					"inputs": [
						{
							"indexed": false,
							"internalType": "uint8",
							"name": "version",
							"type": "uint8"
						}
					],
					"name": "Initialized",
					"type": "event"
				},
				{
					"anonymous": false,
					"inputs": [
						{
							"indexed": true,
							"internalType": "address",
							"name": "previousOwner",
							"type": "address"
						},
						{
							"indexed": true,
							"internalType": "address",
							"name": "newOwner",
							"type": "address"
						}
					],
					"name": "OwnershipTransferred",
					"type": "event"
				},
				{
					"anonymous": false,
					"inputs": [
						{
							"indexed": true,
							"internalType": "contract IClaimIssuer",
							"name": "trustedIssuer",
							"type": "address"
						},
						{
							"indexed": false,
							"internalType": "uint256[]",
							"name": "claimTopics",
							"type": "uint256[]"
						}
					],
					"name": "TrustedIssuerAdded",
					"type": "event"
				},
				{
					"anonymous": false,
					"inputs": [
						{
							"indexed": true,
							"internalType": "contract IClaimIssuer",
							"name": "trustedIssuer",
							"type": "address"
						}
					],
					"name": "TrustedIssuerRemoved",
					"type": "event"
				},
				{
					"inputs": [
						{
							"internalType": "contract IClaimIssuer",
							"name": "_trustedIssuer",
							"type": "address"
						},
						{
							"internalType": "uint256[]",
							"name": "_claimTopics",
							"type": "uint256[]"
						}
					],
					"name": "addTrustedIssuer",
					"outputs": [],
					"stateMutability": "nonpayable",
					"type": "function"
				},
				{
					"inputs": [
						{
							"internalType": "contract IClaimIssuer",
							"name": "_trustedIssuer",
							"type": "address"
						}
					],
					"name": "getTrustedIssuerClaimTopics",
					"outputs": [
						{
							"internalType": "uint256[]",
							"name": "",
							"type": "uint256[]"
						}
					],
					"stateMutability": "view",
					"type": "function"
				},
				{
					"inputs": [],
					"name": "getTrustedIssuers",
					"outputs": [
						{
							"internalType": "contract IClaimIssuer[]",
							"name": "",
							"type": "address[]"
						}
					],
					"stateMutability": "view",
					"type": "function"
				},
				{
					"inputs": [
						{
							"internalType": "uint256",
							"name": "claimTopic",
							"type": "uint256"
						}
					],
					"name": "getTrustedIssuersForClaimTopic",
					"outputs": [
						{
							"internalType": "contract IClaimIssuer[]",
							"name": "",
							"type": "address[]"
						}
					],
					"stateMutability": "view",
					"type": "function"
				},
				{
					"inputs": [
						{
							"internalType": "address",
							"name": "_issuer",
							"type": "address"
						},
						{
							"internalType": "uint256",
							"name": "_claimTopic",
							"type": "uint256"
						}
					],
					"name": "hasClaimTopic",
					"outputs": [
						{
							"internalType": "bool",
							"name": "",
							"type": "bool"
						}
					],
					"stateMutability": "view",
					"type": "function"
				},
				{
					"inputs": [],
					"name": "init",
					"outputs": [],
					"stateMutability": "nonpayable",
					"type": "function"
				},
				{
					"inputs": [
						{
							"internalType": "address",
							"name": "_issuer",
							"type": "address"
						}
					],
					"name": "isTrustedIssuer",
					"outputs": [
						{
							"internalType": "bool",
							"name": "",
							"type": "bool"
						}
					],
					"stateMutability": "view",
					"type": "function"
				},
				{
					"inputs": [],
					"name": "owner",
					"outputs": [
						{
							"internalType": "address",
							"name": "",
							"type": "address"
						}
					],
					"stateMutability": "view",
					"type": "function"
				},
				{
					"inputs": [
						{
							"internalType": "contract IClaimIssuer",
							"name": "_trustedIssuer",
							"type": "address"
						}
					],
					"name": "removeTrustedIssuer",
					"outputs": [],
					"stateMutability": "nonpayable",
					"type": "function"
				},
				{
					"inputs": [],
					"name": "renounceOwnership",
					"outputs": [],
					"stateMutability": "nonpayable",
					"type": "function"
				},
				{
					"inputs": [
						{
							"internalType": "address",
							"name": "newOwner",
							"type": "address"
						}
					],
					"name": "transferOwnership",
					"outputs": [],
					"stateMutability": "nonpayable",
					"type": "function"
				},
				{
					"inputs": [
						{
							"internalType": "contract IClaimIssuer",
							"name": "_trustedIssuer",
							"type": "address"
						},
						{
							"internalType": "uint256[]",
							"name": "_claimTopics",
							"type": "uint256[]"
						}
					],
					"name": "updateIssuerClaimTopics",
					"outputs": [],
					"stateMutability": "nonpayable",
					"type": "function"
				}
			],
			"devdoc": {
				"kind": "dev",
				"methods": {
					"addTrustedIssuer(address,uint256[])": {
						"details": "See {ITrustedIssuersRegistry-addTrustedIssuer}."
					},
					"getTrustedIssuerClaimTopics(address)": {
						"details": "See {ITrustedIssuersRegistry-getTrustedIssuerClaimTopics}."
					},
					"getTrustedIssuers()": {
						"details": "See {ITrustedIssuersRegistry-getTrustedIssuers}."
					},
					"getTrustedIssuersForClaimTopic(uint256)": {
						"details": "See {ITrustedIssuersRegistry-getTrustedIssuersForClaimTopic}."
					},
					"hasClaimTopic(address,uint256)": {
						"details": "See {ITrustedIssuersRegistry-hasClaimTopic}."
					},
					"isTrustedIssuer(address)": {
						"details": "See {ITrustedIssuersRegistry-isTrustedIssuer}."
					},
					"owner()": {
						"details": "Returns the address of the current owner."
					},
					"removeTrustedIssuer(address)": {
						"details": "See {ITrustedIssuersRegistry-removeTrustedIssuer}."
					},
					"renounceOwnership()": {
						"details": "Leaves the contract without owner. It will not be possible to call `onlyOwner` functions. Can only be called by the current owner. NOTE: Renouncing ownership will leave the contract without an owner, thereby disabling any functionality that is only available to the owner."
					},
					"transferOwnership(address)": {
						"details": "Transfers ownership of the contract to a new account (`newOwner`). Can only be called by the current owner."
					},
					"updateIssuerClaimTopics(address,uint256[])": {
						"details": "See {ITrustedIssuersRegistry-updateIssuerClaimTopics}."
					}
				},
				"version": 1
			},
			"evm": {
				"assembly": "    /* \"ERC3643Original/contracts/registry/implementation/TrustedIssuersRegistry.sol\":294:7335  contract TrustedIssuersRegistry is... */\n  mstore(0x40, 0x80)\n  callvalue\n  dup1\n  iszero\n  tag_1\n  jumpi\n  0x00\n  dup1\n  revert\ntag_1:\n  pop\n  dataSize(sub_0)\n  dup1\n  dataOffset(sub_0)\n  0x00\n  codecopy\n  0x00\n  return\nstop\n\nsub_0: assembly {\n        /* \"ERC3643Original/contracts/registry/implementation/TrustedIssuersRegistry.sol\":294:7335  contract TrustedIssuersRegistry is... */\n      mstore(0x40, 0x80)\n      callvalue\n      dup1\n      iszero\n      tag_1\n      jumpi\n      0x00\n      dup1\n      revert\n    tag_1:\n      pop\n      jumpi(tag_2, lt(calldatasize, 0x04))\n      shr(0xe0, calldataload(0x00))\n      dup1\n      0xb93d28eb\n      gt\n      tag_15\n      jumpi\n      dup1\n      0xb93d28eb\n      eq\n      tag_9\n      jumpi\n      dup1\n      0xc28fb278\n      eq\n      tag_10\n      jumpi\n      dup1\n      0xd9dd24c5\n      eq\n      tag_11\n      jumpi\n      dup1\n      0xe1c7392a\n      eq\n      tag_12\n      jumpi\n      dup1\n      0xef2ed1a4\n      eq\n      tag_13\n      jumpi\n      dup1\n      0xf2fde38b\n      eq\n      tag_14\n      jumpi\n      jump(tag_2)\n    tag_15:\n      dup1\n      0x04bc7e84\n      eq\n      tag_3\n      jumpi\n      dup1\n      0x34a89987\n      eq\n      tag_4\n      jumpi\n      dup1\n      0x52c111d1\n      eq\n      tag_5\n      jumpi\n      dup1\n      0x715018a6\n      eq\n      tag_6\n      jumpi\n      dup1\n      0x8da5cb5b\n      eq\n      tag_7\n      jumpi\n      dup1\n      0x9f63ea98\n      eq\n      tag_8\n      jumpi\n    tag_2:\n      0x00\n      dup1\n      revert\n        /* \"ERC3643Original/contracts/registry/implementation/TrustedIssuersRegistry.sol\":3636:5452  function updateIssuerClaimTopics(... */\n    tag_3:\n      tag_16\n      0x04\n      dup1\n      calldatasize\n      sub\n      dup2\n      add\n      swap1\n      tag_17\n      swap2\n      swap1\n      tag_18\n      jump\t// in\n    tag_17:\n      tag_19\n      jump\t// in\n    tag_16:\n      stop\n        /* \"ERC3643Original/contracts/registry/implementation/TrustedIssuersRegistry.sol\":6877:7333  function hasClaimTopic(address _issuer, uint256 _claimTopic)... */\n    tag_4:\n      tag_20\n      0x04\n      dup1\n      calldatasize\n      sub\n      dup2\n      add\n      swap1\n      tag_21\n      swap2\n      swap1\n      tag_22\n      jump\t// in\n    tag_21:\n      tag_23\n      jump\t// in\n    tag_20:\n      mload(0x40)\n      tag_24\n      swap2\n      swap1\n      tag_25\n      jump\t// in\n    tag_24:\n      mload(0x40)\n      dup1\n      swap2\n      sub\n      swap1\n      return\n        /* \"ERC3643Original/contracts/registry/implementation/TrustedIssuersRegistry.sol\":5792:6007  function getTrustedIssuersForClaimTopic(uint256 claimTopic)... */\n    tag_5:\n      tag_26\n      0x04\n      dup1\n      calldatasize\n      sub\n      dup2\n      add\n      swap1\n      tag_27\n      swap2\n      swap1\n      tag_28\n      jump\t// in\n    tag_27:\n      tag_29\n      jump\t// in\n    tag_26:\n      mload(0x40)\n      tag_30\n      swap2\n      swap1\n      tag_31\n      jump\t// in\n    tag_30:\n      mload(0x40)\n      dup1\n      swap2\n      sub\n      swap1\n      return\n        /* \"@openzeppelin/contracts-upgradeable/access/OwnableUpgradeable.sol\":2064:2165  function renounceOwnership() public virtual onlyOwner {... */\n    tag_6:\n      tag_32\n      tag_33\n      jump\t// in\n    tag_32:\n      stop\n        /* \"@openzeppelin/contracts-upgradeable/access/OwnableUpgradeable.sol\":1441:1526  function owner() public view virtual returns (address) {... */\n    tag_7:\n      tag_34\n      tag_35\n      jump\t// in\n    tag_34:\n      mload(0x40)\n      tag_36\n      swap2\n      swap1\n      tag_37\n      jump\t// in\n    tag_36:\n      mload(0x40)\n      dup1\n      swap2\n      sub\n      swap1\n      return\n        /* \"ERC3643Original/contracts/registry/implementation/TrustedIssuersRegistry.sol\":556:1667  function addTrustedIssuer(... */\n    tag_8:\n      tag_38\n      0x04\n      dup1\n      calldatasize\n      sub\n      dup2\n      add\n      swap1\n      tag_39\n      swap2\n      swap1\n      tag_18\n      jump\t// in\n    tag_39:\n      tag_40\n      jump\t// in\n    tag_38:\n      stop\n        /* \"ERC3643Original/contracts/registry/implementation/TrustedIssuersRegistry.sol\":1753:3546  function removeTrustedIssuer(IClaimIssuer _trustedIssuer)... */\n    tag_9:\n      tag_41\n      0x04\n      dup1\n      calldatasize\n      sub\n      dup2\n      add\n      swap1\n      tag_42\n      swap2\n      swap1\n      tag_43\n      jump\t// in\n    tag_42:\n      tag_44\n      jump\t// in\n    tag_41:\n      stop\n        /* \"ERC3643Original/contracts/registry/implementation/TrustedIssuersRegistry.sol\":6424:6797  function getTrustedIssuerClaimTopics(IClaimIssuer _trustedIssuer)... */\n    tag_10:\n      tag_45\n      0x04\n      dup1\n      calldatasize\n      sub\n      dup2\n      add\n      swap1\n      tag_46\n      swap2\n      swap1\n      tag_43\n      jump\t// in\n    tag_46:\n      tag_47\n      jump\t// in\n    tag_45:\n      mload(0x40)\n      tag_48\n      swap2\n      swap1\n      tag_49\n      jump\t// in\n    tag_48:\n      mload(0x40)\n      dup1\n      swap2\n      sub\n      swap1\n      return\n        /* \"ERC3643Original/contracts/registry/implementation/TrustedIssuersRegistry.sol\":5536:5695  function getTrustedIssuers()... */\n    tag_11:\n      tag_50\n      tag_51\n      jump\t// in\n    tag_50:\n      mload(0x40)\n      tag_52\n      swap2\n      swap1\n      tag_31\n      jump\t// in\n    tag_52:\n      mload(0x40)\n      dup1\n      swap2\n      sub\n      swap1\n      return\n        /* \"ERC3643Original/contracts/registry/implementation/TrustedIssuersRegistry.sol\":403:473  function init() external initializer {... */\n    tag_12:\n      tag_53\n      tag_54\n      jump\t// in\n    tag_53:\n      stop\n        /* \"ERC3643Original/contracts/registry/implementation/TrustedIssuersRegistry.sol\":6089:6330  function isTrustedIssuer(address _issuer)... */\n    tag_13:\n      tag_55\n      0x04\n      dup1\n      calldatasize\n      sub\n      dup2\n      add\n      swap1\n      tag_56\n      swap2\n      swap1\n      tag_57\n      jump\t// in\n    tag_56:\n      tag_58\n      jump\t// in\n    tag_55:\n      mload(0x40)\n      tag_59\n      swap2\n      swap1\n      tag_25\n      jump\t// in\n    tag_59:\n      mload(0x40)\n      dup1\n      swap2\n      sub\n      swap1\n      return\n        /* \"@openzeppelin/contracts-upgradeable/access/OwnableUpgradeable.sol\":2314:2512  function transferOwnership(address newOwner) public virtual onlyOwner {... */\n    tag_14:\n      tag_60\n      0x04\n      dup1\n      calldatasize\n      sub\n      dup2\n      add\n      swap1\n      tag_61\n      swap2\n      swap1\n      tag_57\n      jump\t// in\n    tag_61:\n      tag_62\n      jump\t// in\n    tag_60:\n      stop\n        /* \"ERC3643Original/contracts/registry/implementation/TrustedIssuersRegistry.sol\":3636:5452  function updateIssuerClaimTopics(... */\n    tag_19:\n        /* \"@openzeppelin/contracts-upgradeable/access/OwnableUpgradeable.sol\":1334:1347  _checkOwner() */\n      tag_64\n        /* \"@openzeppelin/contracts-upgradeable/access/OwnableUpgradeable.sol\":1334:1345  _checkOwner */\n      tag_65\n        /* \"@openzeppelin/contracts-upgradeable/access/OwnableUpgradeable.sol\":1334:1347  _checkOwner() */\n      jump\t// in\n    tag_64:\n        /* \"ERC3643Original/contracts/registry/implementation/TrustedIssuersRegistry.sol\":3847:3848  0 */\n      0x00\n        /* \"ERC3643Original/contracts/registry/implementation/TrustedIssuersRegistry.sol\":3812:3849  address(_trustedIssuer) != address(0) */\n      0xffffffffffffffffffffffffffffffffffffffff\n      and\n        /* \"ERC3643Original/contracts/registry/implementation/TrustedIssuersRegistry.sol\":3820:3834  _trustedIssuer */\n      dup4\n        /* \"ERC3643Original/contracts/registry/implementation/TrustedIssuersRegistry.sol\":3812:3849  address(_trustedIssuer) != address(0) */\n      0xffffffffffffffffffffffffffffffffffffffff\n      and\n      sub\n        /* \"ERC3643Original/contracts/registry/implementation/TrustedIssuersRegistry.sol\":3791:3906  require(... */\n      tag_67\n      jumpi\n      mload(0x40)\n      0x08c379a000000000000000000000000000000000000000000000000000000000\n      dup2\n      mstore\n      0x04\n      add\n      tag_68\n      swap1\n      tag_69\n      jump\t// in\n    tag_68:\n      mload(0x40)\n      dup1\n      swap2\n      sub\n      swap1\n      revert\n    tag_67:\n        /* \"ERC3643Original/contracts/registry/implementation/TrustedIssuersRegistry.sol\":3998:3999  0 */\n      0x00\n        /* \"ERC3643Original/contracts/registry/implementation/TrustedIssuersRegistry.sol\":3937:3962  _trustedIssuerClaimTopics */\n      0x66\n        /* \"ERC3643Original/contracts/registry/implementation/TrustedIssuersRegistry.sol\":3937:3987  _trustedIssuerClaimTopics[address(_trustedIssuer)] */\n      0x00\n        /* \"ERC3643Original/contracts/registry/implementation/TrustedIssuersRegistry.sol\":3971:3985  _trustedIssuer */\n      dup6\n        /* \"ERC3643Original/contracts/registry/implementation/TrustedIssuersRegistry.sol\":3937:3987  _trustedIssuerClaimTopics[address(_trustedIssuer)] */\n      0xffffffffffffffffffffffffffffffffffffffff\n      and\n      0xffffffffffffffffffffffffffffffffffffffff\n      and\n      dup2\n      mstore\n      0x20\n      add\n      swap1\n      dup2\n      mstore\n      0x20\n      add\n      0x00\n      keccak256\n        /* \"ERC3643Original/contracts/registry/implementation/TrustedIssuersRegistry.sol\":3937:3994  _trustedIssuerClaimTopics[address(_trustedIssuer)].length */\n      dup1\n      sload\n      swap1\n      pop\n        /* \"ERC3643Original/contracts/registry/implementation/TrustedIssuersRegistry.sol\":3937:3999  _trustedIssuerClaimTopics[address(_trustedIssuer)].length != 0 */\n      sub\n        /* \"ERC3643Original/contracts/registry/implementation/TrustedIssuersRegistry.sol\":3916:4045  require(... */\n      tag_70\n      jumpi\n      mload(0x40)\n      0x08c379a000000000000000000000000000000000000000000000000000000000\n      dup2\n      mstore\n      0x04\n      add\n      tag_71\n      swap1\n      tag_72\n      jump\t// in\n    tag_71:\n      mload(0x40)\n      dup1\n      swap2\n      sub\n      swap1\n      revert\n    tag_70:\n        /* \"ERC3643Original/contracts/registry/implementation/TrustedIssuersRegistry.sol\":4099:4101  15 */\n      0x0f\n        /* \"ERC3643Original/contracts/registry/implementation/TrustedIssuersRegistry.sol\":4076:4088  _claimTopics */\n      dup3\n      dup3\n        /* \"ERC3643Original/contracts/registry/implementation/TrustedIssuersRegistry.sol\":4076:4095  _claimTopics.length */\n      swap1\n      pop\n        /* \"ERC3643Original/contracts/registry/implementation/TrustedIssuersRegistry.sol\":4076:4101  _claimTopics.length <= 15 */\n      gt\n      iszero\n        /* \"ERC3643Original/contracts/registry/implementation/TrustedIssuersRegistry.sol\":4055:4164  require(... */\n      tag_73\n      jumpi\n      mload(0x40)\n      0x08c379a000000000000000000000000000000000000000000000000000000000\n      dup2\n      mstore\n      0x04\n      add\n      tag_74\n      swap1\n      tag_75\n      jump\t// in\n    tag_74:\n      mload(0x40)\n      dup1\n      swap2\n      sub\n      swap1\n      revert\n    tag_73:\n        /* \"ERC3643Original/contracts/registry/implementation/TrustedIssuersRegistry.sol\":4204:4205  0 */\n      0x00\n        /* \"ERC3643Original/contracts/registry/implementation/TrustedIssuersRegistry.sol\":4182:4194  _claimTopics */\n      dup3\n      dup3\n        /* \"ERC3643Original/contracts/registry/implementation/TrustedIssuersRegistry.sol\":4182:4201  _claimTopics.length */\n      swap1\n      pop\n        /* \"ERC3643Original/contracts/registry/implementation/TrustedIssuersRegistry.sol\":4182:4205  _claimTopics.length > 0 */\n      gt\n        /* \"ERC3643Original/contracts/registry/implementation/TrustedIssuersRegistry.sol\":4174:4238  require(_claimTopics.length > 0, \"claim topics cannot be empty\") */\n      tag_76\n      jumpi\n      mload(0x40)\n      0x08c379a000000000000000000000000000000000000000000000000000000000\n      dup2\n      mstore\n      0x04\n      add\n      tag_77\n      swap1\n      tag_78\n      jump\t// in\n    tag_77:\n      mload(0x40)\n      dup1\n      swap2\n      sub\n      swap1\n      revert\n    tag_76:\n        /* \"ERC3643Original/contracts/registry/implementation/TrustedIssuersRegistry.sol\":4267:4276  uint256 i */\n      0x00\n        /* \"ERC3643Original/contracts/registry/implementation/TrustedIssuersRegistry.sol\":4249:5158  for (... */\n    tag_79:\n        /* \"ERC3643Original/contracts/registry/implementation/TrustedIssuersRegistry.sol\":4298:4323  _trustedIssuerClaimTopics */\n      0x66\n        /* \"ERC3643Original/contracts/registry/implementation/TrustedIssuersRegistry.sol\":4298:4348  _trustedIssuerClaimTopics[address(_trustedIssuer)] */\n      0x00\n        /* \"ERC3643Original/contracts/registry/implementation/TrustedIssuersRegistry.sol\":4332:4346  _trustedIssuer */\n      dup6\n        /* \"ERC3643Original/contracts/registry/implementation/TrustedIssuersRegistry.sol\":4298:4348  _trustedIssuerClaimTopics[address(_trustedIssuer)] */\n      0xffffffffffffffffffffffffffffffffffffffff\n      and\n      0xffffffffffffffffffffffffffffffffffffffff\n      and\n      dup2\n      mstore\n      0x20\n      add\n      swap1\n      dup2\n      mstore\n      0x20\n      add\n      0x00\n      keccak256\n        /* \"ERC3643Original/contracts/registry/implementation/TrustedIssuersRegistry.sol\":4298:4355  _trustedIssuerClaimTopics[address(_trustedIssuer)].length */\n      dup1\n      sload\n      swap1\n      pop\n        /* \"ERC3643Original/contracts/registry/implementation/TrustedIssuersRegistry.sol\":4294:4295  i */\n      dup2\n        /* \"ERC3643Original/contracts/registry/implementation/TrustedIssuersRegistry.sol\":4294:4355  i < _trustedIssuerClaimTopics[address(_trustedIssuer)].length */\n      lt\n        /* \"ERC3643Original/contracts/registry/implementation/TrustedIssuersRegistry.sol\":4249:5158  for (... */\n      iszero\n      tag_80\n      jumpi\n        /* \"ERC3643Original/contracts/registry/implementation/TrustedIssuersRegistry.sol\":4397:4415  uint256 claimTopic */\n      0x00\n        /* \"ERC3643Original/contracts/registry/implementation/TrustedIssuersRegistry.sol\":4418:4443  _trustedIssuerClaimTopics */\n      0x66\n        /* \"ERC3643Original/contracts/registry/implementation/TrustedIssuersRegistry.sol\":4418:4498  _trustedIssuerClaimTopics[... */\n      0x00\n        /* \"ERC3643Original/contracts/registry/implementation/TrustedIssuersRegistry.sol\":4469:4483  _trustedIssuer */\n      dup7\n        /* \"ERC3643Original/contracts/registry/implementation/TrustedIssuersRegistry.sol\":4418:4498  _trustedIssuerClaimTopics[... */\n      0xffffffffffffffffffffffffffffffffffffffff\n      and\n      0xffffffffffffffffffffffffffffffffffffffff\n      and\n      dup2\n      mstore\n      0x20\n      add\n      swap1\n      dup2\n      mstore\n      0x20\n      add\n      0x00\n      keccak256\n        /* \"ERC3643Original/contracts/registry/implementation/TrustedIssuersRegistry.sol\":4499:4500  i */\n      dup3\n        /* \"ERC3643Original/contracts/registry/implementation/TrustedIssuersRegistry.sol\":4418:4501  _trustedIssuerClaimTopics[... */\n      dup2\n      sload\n      dup2\n      lt\n      tag_82\n      jumpi\n      tag_83\n      tag_84\n      jump\t// in\n    tag_83:\n    tag_82:\n      swap1\n      0x00\n      mstore\n      keccak256(0x00, 0x20)\n      add\n      sload\n        /* \"ERC3643Original/contracts/registry/implementation/TrustedIssuersRegistry.sol\":4397:4501  uint256 claimTopic = _trustedIssuerClaimTopics[... */\n      swap1\n      pop\n        /* \"ERC3643Original/contracts/registry/implementation/TrustedIssuersRegistry.sol\":4515:4535  uint256 topicsLength */\n      0x00\n        /* \"ERC3643Original/contracts/registry/implementation/TrustedIssuersRegistry.sol\":4538:4566  _claimTopicsToTrustedIssuers */\n      0x67\n        /* \"ERC3643Original/contracts/registry/implementation/TrustedIssuersRegistry.sol\":4538:4578  _claimTopicsToTrustedIssuers[claimTopic] */\n      0x00\n        /* \"ERC3643Original/contracts/registry/implementation/TrustedIssuersRegistry.sol\":4567:4577  claimTopic */\n      dup4\n        /* \"ERC3643Original/contracts/registry/implementation/TrustedIssuersRegistry.sol\":4538:4578  _claimTopicsToTrustedIssuers[claimTopic] */\n      dup2\n      mstore\n      0x20\n      add\n      swap1\n      dup2\n      mstore\n      0x20\n      add\n      0x00\n      keccak256\n        /* \"ERC3643Original/contracts/registry/implementation/TrustedIssuersRegistry.sol\":4538:4602  _claimTopicsToTrustedIssuers[claimTopic]... */\n      dup1\n      sload\n      swap1\n      pop\n        /* \"ERC3643Original/contracts/registry/implementation/TrustedIssuersRegistry.sol\":4515:4602  uint256 topicsLength = _claimTopicsToTrustedIssuers[claimTopic]... */\n      swap1\n      pop\n        /* \"ERC3643Original/contracts/registry/implementation/TrustedIssuersRegistry.sol\":4621:4630  uint256 j */\n      0x00\n        /* \"ERC3643Original/contracts/registry/implementation/TrustedIssuersRegistry.sol\":4616:5148  for (uint256 j = 0; j < topicsLength; j++) {... */\n    tag_86:\n        /* \"ERC3643Original/contracts/registry/implementation/TrustedIssuersRegistry.sol\":4640:4652  topicsLength */\n      dup2\n        /* \"ERC3643Original/contracts/registry/implementation/TrustedIssuersRegistry.sol\":4636:4637  j */\n      dup2\n        /* \"ERC3643Original/contracts/registry/implementation/TrustedIssuersRegistry.sol\":4636:4652  j < topicsLength */\n      lt\n        /* \"ERC3643Original/contracts/registry/implementation/TrustedIssuersRegistry.sol\":4616:5148  for (uint256 j = 0; j < topicsLength; j++) {... */\n      iszero\n      tag_87\n      jumpi\n        /* \"ERC3643Original/contracts/registry/implementation/TrustedIssuersRegistry.sol\":4769:4783  _trustedIssuer */\n      dup7\n        /* \"ERC3643Original/contracts/registry/implementation/TrustedIssuersRegistry.sol\":4702:4783  _claimTopicsToTrustedIssuers[claimTopic][j] ==... */\n      0xffffffffffffffffffffffffffffffffffffffff\n      and\n        /* \"ERC3643Original/contracts/registry/implementation/TrustedIssuersRegistry.sol\":4702:4730  _claimTopicsToTrustedIssuers */\n      0x67\n        /* \"ERC3643Original/contracts/registry/implementation/TrustedIssuersRegistry.sol\":4702:4742  _claimTopicsToTrustedIssuers[claimTopic] */\n      0x00\n        /* \"ERC3643Original/contracts/registry/implementation/TrustedIssuersRegistry.sol\":4731:4741  claimTopic */\n      dup6\n        /* \"ERC3643Original/contracts/registry/implementation/TrustedIssuersRegistry.sol\":4702:4742  _claimTopicsToTrustedIssuers[claimTopic] */\n      dup2\n      mstore\n      0x20\n      add\n      swap1\n      dup2\n      mstore\n      0x20\n      add\n      0x00\n      keccak256\n        /* \"ERC3643Original/contracts/registry/implementation/TrustedIssuersRegistry.sol\":4743:4744  j */\n      dup3\n        /* \"ERC3643Original/contracts/registry/implementation/TrustedIssuersRegistry.sol\":4702:4745  _claimTopicsToTrustedIssuers[claimTopic][j] */\n      dup2\n      sload\n      dup2\n      lt\n      tag_89\n      jumpi\n      tag_90\n      tag_84\n      jump\t// in\n    tag_90:\n    tag_89:\n      swap1\n      0x00\n      mstore\n      keccak256(0x00, 0x20)\n      add\n      0x00\n      swap1\n      sload\n      swap1\n      0x0100\n      exp\n      swap1\n      div\n      0xffffffffffffffffffffffffffffffffffffffff\n      and\n        /* \"ERC3643Original/contracts/registry/implementation/TrustedIssuersRegistry.sol\":4702:4783  _claimTopicsToTrustedIssuers[claimTopic][j] ==... */\n      0xffffffffffffffffffffffffffffffffffffffff\n      and\n      sub\n        /* \"ERC3643Original/contracts/registry/implementation/TrustedIssuersRegistry.sol\":4677:5134  if (... */\n      tag_92\n      jumpi\n        /* \"ERC3643Original/contracts/registry/implementation/TrustedIssuersRegistry.sol\":4916:4944  _claimTopicsToTrustedIssuers */\n      0x67\n        /* \"ERC3643Original/contracts/registry/implementation/TrustedIssuersRegistry.sol\":4916:4956  _claimTopicsToTrustedIssuers[claimTopic] */\n      0x00\n        /* \"ERC3643Original/contracts/registry/implementation/TrustedIssuersRegistry.sol\":4945:4955  claimTopic */\n      dup5\n        /* \"ERC3643Original/contracts/registry/implementation/TrustedIssuersRegistry.sol\":4916:4956  _claimTopicsToTrustedIssuers[claimTopic] */\n      dup2\n      mstore\n      0x20\n      add\n      swap1\n      dup2\n      mstore\n      0x20\n      add\n      0x00\n      keccak256\n        /* \"ERC3643Original/contracts/registry/implementation/TrustedIssuersRegistry.sol\":4997:4998  1 */\n      0x01\n        /* \"ERC3643Original/contracts/registry/implementation/TrustedIssuersRegistry.sol\":4982:4994  topicsLength */\n      dup4\n        /* \"ERC3643Original/contracts/registry/implementation/TrustedIssuersRegistry.sol\":4982:4998  topicsLength - 1 */\n      tag_93\n      swap2\n      swap1\n      tag_94\n      jump\t// in\n    tag_93:\n        /* \"ERC3643Original/contracts/registry/implementation/TrustedIssuersRegistry.sol\":4916:5020  _claimTopicsToTrustedIssuers[claimTopic][... */\n      dup2\n      sload\n      dup2\n      lt\n      tag_95\n      jumpi\n      tag_96\n      tag_84\n      jump\t// in\n    tag_96:\n    tag_95:\n      swap1\n      0x00\n      mstore\n      keccak256(0x00, 0x20)\n      add\n      0x00\n      swap1\n      sload\n      swap1\n      0x0100\n      exp\n      swap1\n      div\n      0xffffffffffffffffffffffffffffffffffffffff\n      and\n        /* \"ERC3643Original/contracts/registry/implementation/TrustedIssuersRegistry.sol\":4824:4852  _claimTopicsToTrustedIssuers */\n      0x67\n        /* \"ERC3643Original/contracts/registry/implementation/TrustedIssuersRegistry.sol\":4824:4864  _claimTopicsToTrustedIssuers[claimTopic] */\n      0x00\n        /* \"ERC3643Original/contracts/registry/implementation/TrustedIssuersRegistry.sol\":4853:4863  claimTopic */\n      dup6\n        /* \"ERC3643Original/contracts/registry/implementation/TrustedIssuersRegistry.sol\":4824:4864  _claimTopicsToTrustedIssuers[claimTopic] */\n      dup2\n      mstore\n      0x20\n      add\n      swap1\n      dup2\n      mstore\n      0x20\n      add\n      0x00\n      keccak256\n        /* \"ERC3643Original/contracts/registry/implementation/TrustedIssuersRegistry.sol\":4890:4891  j */\n      dup3\n        /* \"ERC3643Original/contracts/registry/implementation/TrustedIssuersRegistry.sol\":4824:4913  _claimTopicsToTrustedIssuers[claimTopic][... */\n      dup2\n      sload\n      dup2\n      lt\n      tag_98\n      jumpi\n      tag_99\n      tag_84\n      jump\t// in\n    tag_99:\n    tag_98:\n      swap1\n      0x00\n      mstore\n      keccak256(0x00, 0x20)\n      add\n      0x00\n        /* \"ERC3643Original/contracts/registry/implementation/TrustedIssuersRegistry.sol\":4824:5020  _claimTopicsToTrustedIssuers[claimTopic][... */\n      0x0100\n      exp\n      dup2\n      sload\n      dup2\n      0xffffffffffffffffffffffffffffffffffffffff\n      mul\n      not\n      and\n      swap1\n      dup4\n      0xffffffffffffffffffffffffffffffffffffffff\n      and\n      mul\n      or\n      swap1\n      sstore\n      pop\n        /* \"ERC3643Original/contracts/registry/implementation/TrustedIssuersRegistry.sol\":5042:5070  _claimTopicsToTrustedIssuers */\n      0x67\n        /* \"ERC3643Original/contracts/registry/implementation/TrustedIssuersRegistry.sol\":5042:5082  _claimTopicsToTrustedIssuers[claimTopic] */\n      0x00\n        /* \"ERC3643Original/contracts/registry/implementation/TrustedIssuersRegistry.sol\":5071:5081  claimTopic */\n      dup5\n        /* \"ERC3643Original/contracts/registry/implementation/TrustedIssuersRegistry.sol\":5042:5082  _claimTopicsToTrustedIssuers[claimTopic] */\n      dup2\n      mstore\n      0x20\n      add\n      swap1\n      dup2\n      mstore\n      0x20\n      add\n      0x00\n      keccak256\n        /* \"ERC3643Original/contracts/registry/implementation/TrustedIssuersRegistry.sol\":5042:5088  _claimTopicsToTrustedIssuers[claimTopic].pop() */\n      dup1\n      sload\n      dup1\n      tag_101\n      jumpi\n      tag_102\n      tag_103\n      jump\t// in\n    tag_102:\n    tag_101:\n      0x01\n      swap1\n      sub\n      dup2\n      dup2\n      swap1\n      0x00\n      mstore\n      keccak256(0x00, 0x20)\n      add\n      exp(0x0100, 0x00)\n      dup2\n      sload\n      swap1\n      0xffffffffffffffffffffffffffffffffffffffff\n      mul\n      not\n      and\n      swap1\n      sstore\n      swap1\n      sstore\n        /* \"ERC3643Original/contracts/registry/implementation/TrustedIssuersRegistry.sol\":5110:5115  break */\n      jump(tag_87)\n        /* \"ERC3643Original/contracts/registry/implementation/TrustedIssuersRegistry.sol\":4677:5134  if (... */\n    tag_92:\n        /* \"ERC3643Original/contracts/registry/implementation/TrustedIssuersRegistry.sol\":4654:4657  j++ */\n      dup1\n      dup1\n      tag_105\n      swap1\n      tag_106\n      jump\t// in\n    tag_105:\n      swap2\n      pop\n      pop\n        /* \"ERC3643Original/contracts/registry/implementation/TrustedIssuersRegistry.sol\":4616:5148  for (uint256 j = 0; j < topicsLength; j++) {... */\n      jump(tag_86)\n    tag_87:\n      pop\n        /* \"ERC3643Original/contracts/registry/implementation/TrustedIssuersRegistry.sol\":4383:5158  {... */\n      pop\n      pop\n        /* \"ERC3643Original/contracts/registry/implementation/TrustedIssuersRegistry.sol\":4369:4372  i++ */\n      dup1\n      dup1\n      tag_107\n      swap1\n      tag_106\n      jump\t// in\n    tag_107:\n      swap2\n      pop\n      pop\n        /* \"ERC3643Original/contracts/registry/implementation/TrustedIssuersRegistry.sol\":4249:5158  for (... */\n      jump(tag_79)\n    tag_80:\n      pop\n        /* \"ERC3643Original/contracts/registry/implementation/TrustedIssuersRegistry.sol\":5220:5232  _claimTopics */\n      dup2\n      dup2\n        /* \"ERC3643Original/contracts/registry/implementation/TrustedIssuersRegistry.sol\":5167:5192  _trustedIssuerClaimTopics */\n      0x66\n        /* \"ERC3643Original/contracts/registry/implementation/TrustedIssuersRegistry.sol\":5167:5217  _trustedIssuerClaimTopics[address(_trustedIssuer)] */\n      0x00\n        /* \"ERC3643Original/contracts/registry/implementation/TrustedIssuersRegistry.sol\":5201:5215  _trustedIssuer */\n      dup7\n        /* \"ERC3643Original/contracts/registry/implementation/TrustedIssuersRegistry.sol\":5167:5217  _trustedIssuerClaimTopics[address(_trustedIssuer)] */\n      0xffffffffffffffffffffffffffffffffffffffff\n      and\n      0xffffffffffffffffffffffffffffffffffffffff\n      and\n      dup2\n      mstore\n      0x20\n      add\n      swap1\n      dup2\n      mstore\n      0x20\n      add\n      0x00\n      keccak256\n        /* \"ERC3643Original/contracts/registry/implementation/TrustedIssuersRegistry.sol\":5167:5232  _trustedIssuerClaimTopics[address(_trustedIssuer)] = _claimTopics */\n      swap2\n      swap1\n      tag_108\n      swap3\n      swap2\n      swap1\n      tag_109\n      jump\t// in\n    tag_108:\n      pop\n        /* \"ERC3643Original/contracts/registry/implementation/TrustedIssuersRegistry.sol\":5247:5256  uint256 i */\n      0x00\n        /* \"ERC3643Original/contracts/registry/implementation/TrustedIssuersRegistry.sol\":5242:5383  for (uint256 i = 0; i < _claimTopics.length; i++) {... */\n    tag_110:\n        /* \"ERC3643Original/contracts/registry/implementation/TrustedIssuersRegistry.sol\":5266:5278  _claimTopics */\n      dup3\n      dup3\n        /* \"ERC3643Original/contracts/registry/implementation/TrustedIssuersRegistry.sol\":5266:5285  _claimTopics.length */\n      swap1\n      pop\n        /* \"ERC3643Original/contracts/registry/implementation/TrustedIssuersRegistry.sol\":5262:5263  i */\n      dup2\n        /* \"ERC3643Original/contracts/registry/implementation/TrustedIssuersRegistry.sol\":5262:5285  i < _claimTopics.length */\n      lt\n        /* \"ERC3643Original/contracts/registry/implementation/TrustedIssuersRegistry.sol\":5242:5383  for (uint256 i = 0; i < _claimTopics.length; i++) {... */\n      iszero\n      tag_111\n      jumpi\n        /* \"ERC3643Original/contracts/registry/implementation/TrustedIssuersRegistry.sol\":5306:5334  _claimTopicsToTrustedIssuers */\n      0x67\n        /* \"ERC3643Original/contracts/registry/implementation/TrustedIssuersRegistry.sol\":5306:5351  _claimTopicsToTrustedIssuers[_claimTopics[i]] */\n      0x00\n        /* \"ERC3643Original/contracts/registry/implementation/TrustedIssuersRegistry.sol\":5335:5347  _claimTopics */\n      dup5\n      dup5\n        /* \"ERC3643Original/contracts/registry/implementation/TrustedIssuersRegistry.sol\":5348:5349  i */\n      dup5\n        /* \"ERC3643Original/contracts/registry/implementation/TrustedIssuersRegistry.sol\":5335:5350  _claimTopics[i] */\n      dup2\n      dup2\n      lt\n      tag_113\n      jumpi\n      tag_114\n      tag_84\n      jump\t// in\n    tag_114:\n    tag_113:\n      swap1\n      pop\n      0x20\n      mul\n      add\n      calldataload\n        /* \"ERC3643Original/contracts/registry/implementation/TrustedIssuersRegistry.sol\":5306:5351  _claimTopicsToTrustedIssuers[_claimTopics[i]] */\n      dup2\n      mstore\n      0x20\n      add\n      swap1\n      dup2\n      mstore\n      0x20\n      add\n      0x00\n      keccak256\n        /* \"ERC3643Original/contracts/registry/implementation/TrustedIssuersRegistry.sol\":5357:5371  _trustedIssuer */\n      dup5\n        /* \"ERC3643Original/contracts/registry/implementation/TrustedIssuersRegistry.sol\":5306:5372  _claimTopicsToTrustedIssuers[_claimTopics[i]].push(_trustedIssuer) */\n      swap1\n      dup1\n      0x01\n      dup2\n      sload\n      add\n      dup1\n      dup3\n      sstore\n      dup1\n      swap2\n      pop\n      pop\n      0x01\n      swap1\n      sub\n      swap1\n      0x00\n      mstore\n      keccak256(0x00, 0x20)\n      add\n      0x00\n      swap1\n      swap2\n      swap1\n      swap2\n      swap1\n      swap2\n      0x0100\n      exp\n      dup2\n      sload\n      dup2\n      0xffffffffffffffffffffffffffffffffffffffff\n      mul\n      not\n      and\n      swap1\n      dup4\n      0xffffffffffffffffffffffffffffffffffffffff\n      and\n      mul\n      or\n      swap1\n      sstore\n      pop\n        /* \"ERC3643Original/contracts/registry/implementation/TrustedIssuersRegistry.sol\":5287:5290  i++ */\n      dup1\n      dup1\n      tag_116\n      swap1\n      tag_106\n      jump\t// in\n    tag_116:\n      swap2\n      pop\n      pop\n        /* \"ERC3643Original/contracts/registry/implementation/TrustedIssuersRegistry.sol\":5242:5383  for (uint256 i = 0; i < _claimTopics.length; i++) {... */\n      jump(tag_110)\n    tag_111:\n      pop\n        /* \"ERC3643Original/contracts/registry/implementation/TrustedIssuersRegistry.sol\":5416:5430  _trustedIssuer */\n      dup3\n        /* \"ERC3643Original/contracts/registry/implementation/TrustedIssuersRegistry.sol\":5397:5445  ClaimTopicsUpdated(_trustedIssuer, _claimTopics) */\n      0xffffffffffffffffffffffffffffffffffffffff\n      and\n      0xec753cfc52044f61676f18a11e500093a9f2b1cd5e4942bc476f2b0438159bcf\n        /* \"ERC3643Original/contracts/registry/implementation/TrustedIssuersRegistry.sol\":5432:5444  _claimTopics */\n      dup4\n      dup4\n        /* \"ERC3643Original/contracts/registry/implementation/TrustedIssuersRegistry.sol\":5397:5445  ClaimTopicsUpdated(_trustedIssuer, _claimTopics) */\n      mload(0x40)\n      tag_117\n      swap3\n      swap2\n      swap1\n      tag_118\n      jump\t// in\n    tag_117:\n      mload(0x40)\n      dup1\n      swap2\n      sub\n      swap1\n      log2\n        /* \"ERC3643Original/contracts/registry/implementation/TrustedIssuersRegistry.sol\":3636:5452  function updateIssuerClaimTopics(... */\n      pop\n      pop\n      pop\n      jump\t// out\n        /* \"ERC3643Original/contracts/registry/implementation/TrustedIssuersRegistry.sol\":6877:7333  function hasClaimTopic(address _issuer, uint256 _claimTopic)... */\n    tag_23:\n        /* \"ERC3643Original/contracts/registry/implementation/TrustedIssuersRegistry.sol\":7002:7006  bool */\n      0x00\n        /* \"ERC3643Original/contracts/registry/implementation/TrustedIssuersRegistry.sol\":7022:7036  uint256 length */\n      dup1\n        /* \"ERC3643Original/contracts/registry/implementation/TrustedIssuersRegistry.sol\":7039:7064  _trustedIssuerClaimTopics */\n      0x66\n        /* \"ERC3643Original/contracts/registry/implementation/TrustedIssuersRegistry.sol\":7039:7073  _trustedIssuerClaimTopics[_issuer] */\n      0x00\n        /* \"ERC3643Original/contracts/registry/implementation/TrustedIssuersRegistry.sol\":7065:7072  _issuer */\n      dup6\n        /* \"ERC3643Original/contracts/registry/implementation/TrustedIssuersRegistry.sol\":7039:7073  _trustedIssuerClaimTopics[_issuer] */\n      0xffffffffffffffffffffffffffffffffffffffff\n      and\n      0xffffffffffffffffffffffffffffffffffffffff\n      and\n      dup2\n      mstore\n      0x20\n      add\n      swap1\n      dup2\n      mstore\n      0x20\n      add\n      0x00\n      keccak256\n        /* \"ERC3643Original/contracts/registry/implementation/TrustedIssuersRegistry.sol\":7039:7080  _trustedIssuerClaimTopics[_issuer].length */\n      dup1\n      sload\n      swap1\n      pop\n        /* \"ERC3643Original/contracts/registry/implementation/TrustedIssuersRegistry.sol\":7022:7080  uint256 length = _trustedIssuerClaimTopics[_issuer].length */\n      swap1\n      pop\n        /* \"ERC3643Original/contracts/registry/implementation/TrustedIssuersRegistry.sol\":7090:7118  uint256[] memory claimTopics */\n      0x00\n        /* \"ERC3643Original/contracts/registry/implementation/TrustedIssuersRegistry.sol\":7121:7146  _trustedIssuerClaimTopics */\n      0x66\n        /* \"ERC3643Original/contracts/registry/implementation/TrustedIssuersRegistry.sol\":7121:7155  _trustedIssuerClaimTopics[_issuer] */\n      0x00\n        /* \"ERC3643Original/contracts/registry/implementation/TrustedIssuersRegistry.sol\":7147:7154  _issuer */\n      dup7\n        /* \"ERC3643Original/contracts/registry/implementation/TrustedIssuersRegistry.sol\":7121:7155  _trustedIssuerClaimTopics[_issuer] */\n      0xffffffffffffffffffffffffffffffffffffffff\n      and\n      0xffffffffffffffffffffffffffffffffffffffff\n      and\n      dup2\n      mstore\n      0x20\n      add\n      swap1\n      dup2\n      mstore\n      0x20\n      add\n      0x00\n      keccak256\n        /* \"ERC3643Original/contracts/registry/implementation/TrustedIssuersRegistry.sol\":7090:7155  uint256[] memory claimTopics = _trustedIssuerClaimTopics[_issuer] */\n      dup1\n      sload\n      dup1\n      0x20\n      mul\n      0x20\n      add\n      mload(0x40)\n      swap1\n      dup2\n      add\n      0x40\n      mstore\n      dup1\n      swap3\n      swap2\n      swap1\n      dup2\n      dup2\n      mstore\n      0x20\n      add\n      dup3\n      dup1\n      sload\n      dup1\n      iszero\n      tag_120\n      jumpi\n      0x20\n      mul\n      dup3\n      add\n      swap2\n      swap1\n      0x00\n      mstore\n      keccak256(0x00, 0x20)\n      swap1\n    tag_121:\n      dup2\n      sload\n      dup2\n      mstore\n      0x20\n      add\n      swap1\n      0x01\n      add\n      swap1\n      dup1\n      dup4\n      gt\n      tag_121\n      jumpi\n    tag_120:\n      pop\n      pop\n      pop\n      pop\n      pop\n      swap1\n      pop\n        /* \"ERC3643Original/contracts/registry/implementation/TrustedIssuersRegistry.sol\":7170:7179  uint256 i */\n      0x00\n        /* \"ERC3643Original/contracts/registry/implementation/TrustedIssuersRegistry.sol\":7165:7305  for (uint256 i = 0; i < length; i++) {... */\n    tag_122:\n        /* \"ERC3643Original/contracts/registry/implementation/TrustedIssuersRegistry.sol\":7189:7195  length */\n      dup3\n        /* \"ERC3643Original/contracts/registry/implementation/TrustedIssuersRegistry.sol\":7185:7186  i */\n      dup2\n        /* \"ERC3643Original/contracts/registry/implementation/TrustedIssuersRegistry.sol\":7185:7195  i < length */\n      lt\n        /* \"ERC3643Original/contracts/registry/implementation/TrustedIssuersRegistry.sol\":7165:7305  for (uint256 i = 0; i < length; i++) {... */\n      iszero\n      tag_123\n      jumpi\n        /* \"ERC3643Original/contracts/registry/implementation/TrustedIssuersRegistry.sol\":7238:7249  _claimTopic */\n      dup5\n        /* \"ERC3643Original/contracts/registry/implementation/TrustedIssuersRegistry.sol\":7220:7231  claimTopics */\n      dup3\n        /* \"ERC3643Original/contracts/registry/implementation/TrustedIssuersRegistry.sol\":7232:7233  i */\n      dup3\n        /* \"ERC3643Original/contracts/registry/implementation/TrustedIssuersRegistry.sol\":7220:7234  claimTopics[i] */\n      dup2\n      mload\n      dup2\n      lt\n      tag_125\n      jumpi\n      tag_126\n      tag_84\n      jump\t// in\n    tag_126:\n    tag_125:\n      0x20\n      mul\n      0x20\n      add\n      add\n      mload\n        /* \"ERC3643Original/contracts/registry/implementation/TrustedIssuersRegistry.sol\":7220:7249  claimTopics[i] == _claimTopic */\n      sub\n        /* \"ERC3643Original/contracts/registry/implementation/TrustedIssuersRegistry.sol\":7216:7295  if (claimTopics[i] == _claimTopic) {... */\n      tag_127\n      jumpi\n        /* \"ERC3643Original/contracts/registry/implementation/TrustedIssuersRegistry.sol\":7276:7280  true */\n      0x01\n        /* \"ERC3643Original/contracts/registry/implementation/TrustedIssuersRegistry.sol\":7269:7280  return true */\n      swap4\n      pop\n      pop\n      pop\n      pop\n      jump(tag_119)\n        /* \"ERC3643Original/contracts/registry/implementation/TrustedIssuersRegistry.sol\":7216:7295  if (claimTopics[i] == _claimTopic) {... */\n    tag_127:\n        /* \"ERC3643Original/contracts/registry/implementation/TrustedIssuersRegistry.sol\":7197:7200  i++ */\n      dup1\n      dup1\n      tag_128\n      swap1\n      tag_106\n      jump\t// in\n    tag_128:\n      swap2\n      pop\n      pop\n        /* \"ERC3643Original/contracts/registry/implementation/TrustedIssuersRegistry.sol\":7165:7305  for (uint256 i = 0; i < length; i++) {... */\n      jump(tag_122)\n    tag_123:\n      pop\n        /* \"ERC3643Original/contracts/registry/implementation/TrustedIssuersRegistry.sol\":7321:7326  false */\n      0x00\n        /* \"ERC3643Original/contracts/registry/implementation/TrustedIssuersRegistry.sol\":7314:7326  return false */\n      swap3\n      pop\n      pop\n      pop\n        /* \"ERC3643Original/contracts/registry/implementation/TrustedIssuersRegistry.sol\":6877:7333  function hasClaimTopic(address _issuer, uint256 _claimTopic)... */\n    tag_119:\n      swap3\n      swap2\n      pop\n      pop\n      jump\t// out\n        /* \"ERC3643Original/contracts/registry/implementation/TrustedIssuersRegistry.sol\":5792:6007  function getTrustedIssuersForClaimTopic(uint256 claimTopic)... */\n    tag_29:\n        /* \"ERC3643Original/contracts/registry/implementation/TrustedIssuersRegistry.sol\":5916:5937  IClaimIssuer[] memory */\n      0x60\n        /* \"ERC3643Original/contracts/registry/implementation/TrustedIssuersRegistry.sol\":5960:5988  _claimTopicsToTrustedIssuers */\n      0x67\n        /* \"ERC3643Original/contracts/registry/implementation/TrustedIssuersRegistry.sol\":5960:6000  _claimTopicsToTrustedIssuers[claimTopic] */\n      0x00\n        /* \"ERC3643Original/contracts/registry/implementation/TrustedIssuersRegistry.sol\":5989:5999  claimTopic */\n      dup4\n        /* \"ERC3643Original/contracts/registry/implementation/TrustedIssuersRegistry.sol\":5960:6000  _claimTopicsToTrustedIssuers[claimTopic] */\n      dup2\n      mstore\n      0x20\n      add\n      swap1\n      dup2\n      mstore\n      0x20\n      add\n      0x00\n      keccak256\n        /* \"ERC3643Original/contracts/registry/implementation/TrustedIssuersRegistry.sol\":5953:6000  return _claimTopicsToTrustedIssuers[claimTopic] */\n      dup1\n      sload\n      dup1\n      0x20\n      mul\n      0x20\n      add\n      mload(0x40)\n      swap1\n      dup2\n      add\n      0x40\n      mstore\n      dup1\n      swap3\n      swap2\n      swap1\n      dup2\n      dup2\n      mstore\n      0x20\n      add\n      dup3\n      dup1\n      sload\n      dup1\n      iszero\n      tag_130\n      jumpi\n      0x20\n      mul\n      dup3\n      add\n      swap2\n      swap1\n      0x00\n      mstore\n      keccak256(0x00, 0x20)\n      swap1\n    tag_131:\n      dup2\n      0x00\n      swap1\n      sload\n      swap1\n      0x0100\n      exp\n      swap1\n      div\n      0xffffffffffffffffffffffffffffffffffffffff\n      and\n      0xffffffffffffffffffffffffffffffffffffffff\n      and\n      dup2\n      mstore\n      0x20\n      add\n      swap1\n      0x01\n      add\n      swap1\n      dup1\n      dup4\n      gt\n      tag_131\n      jumpi\n    tag_130:\n      pop\n      pop\n      pop\n      pop\n      pop\n      swap1\n      pop\n        /* \"ERC3643Original/contracts/registry/implementation/TrustedIssuersRegistry.sol\":5792:6007  function getTrustedIssuersForClaimTopic(uint256 claimTopic)... */\n      swap2\n      swap1\n      pop\n      jump\t// out\n        /* \"@openzeppelin/contracts-upgradeable/access/OwnableUpgradeable.sol\":2064:2165  function renounceOwnership() public virtual onlyOwner {... */\n    tag_33:\n        /* \"@openzeppelin/contracts-upgradeable/access/OwnableUpgradeable.sol\":1334:1347  _checkOwner() */\n      tag_133\n        /* \"@openzeppelin/contracts-upgradeable/access/OwnableUpgradeable.sol\":1334:1345  _checkOwner */\n      tag_65\n        /* \"@openzeppelin/contracts-upgradeable/access/OwnableUpgradeable.sol\":1334:1347  _checkOwner() */\n      jump\t// in\n    tag_133:\n        /* \"@openzeppelin/contracts-upgradeable/access/OwnableUpgradeable.sol\":2128:2158  _transferOwnership(address(0)) */\n      tag_135\n        /* \"@openzeppelin/contracts-upgradeable/access/OwnableUpgradeable.sol\":2155:2156  0 */\n      0x00\n        /* \"@openzeppelin/contracts-upgradeable/access/OwnableUpgradeable.sol\":2128:2146  _transferOwnership */\n      tag_136\n        /* \"@openzeppelin/contracts-upgradeable/access/OwnableUpgradeable.sol\":2128:2158  _transferOwnership(address(0)) */\n      jump\t// in\n    tag_135:\n        /* \"@openzeppelin/contracts-upgradeable/access/OwnableUpgradeable.sol\":2064:2165  function renounceOwnership() public virtual onlyOwner {... */\n      jump\t// out\n        /* \"@openzeppelin/contracts-upgradeable/access/OwnableUpgradeable.sol\":1441:1526  function owner() public view virtual returns (address) {... */\n    tag_35:\n        /* \"@openzeppelin/contracts-upgradeable/access/OwnableUpgradeable.sol\":1487:1494  address */\n      0x00\n        /* \"@openzeppelin/contracts-upgradeable/access/OwnableUpgradeable.sol\":1513:1519  _owner */\n      0x33\n      0x00\n      swap1\n      sload\n      swap1\n      0x0100\n      exp\n      swap1\n      div\n      0xffffffffffffffffffffffffffffffffffffffff\n      and\n        /* \"@openzeppelin/contracts-upgradeable/access/OwnableUpgradeable.sol\":1506:1519  return _owner */\n      swap1\n      pop\n        /* \"@openzeppelin/contracts-upgradeable/access/OwnableUpgradeable.sol\":1441:1526  function owner() public view virtual returns (address) {... */\n      swap1\n      jump\t// out\n        /* \"ERC3643Original/contracts/registry/implementation/TrustedIssuersRegistry.sol\":556:1667  function addTrustedIssuer(... */\n    tag_40:\n        /* \"@openzeppelin/contracts-upgradeable/access/OwnableUpgradeable.sol\":1334:1347  _checkOwner() */\n      tag_139\n        /* \"@openzeppelin/contracts-upgradeable/access/OwnableUpgradeable.sol\":1334:1345  _checkOwner */\n      tag_65\n        /* \"@openzeppelin/contracts-upgradeable/access/OwnableUpgradeable.sol\":1334:1347  _checkOwner() */\n      jump\t// in\n    tag_139:\n        /* \"ERC3643Original/contracts/registry/implementation/TrustedIssuersRegistry.sol\":760:761  0 */\n      0x00\n        /* \"ERC3643Original/contracts/registry/implementation/TrustedIssuersRegistry.sol\":725:762  address(_trustedIssuer) != address(0) */\n      0xffffffffffffffffffffffffffffffffffffffff\n      and\n        /* \"ERC3643Original/contracts/registry/implementation/TrustedIssuersRegistry.sol\":733:747  _trustedIssuer */\n      dup4\n        /* \"ERC3643Original/contracts/registry/implementation/TrustedIssuersRegistry.sol\":725:762  address(_trustedIssuer) != address(0) */\n      0xffffffffffffffffffffffffffffffffffffffff\n      and\n      sub\n        /* \"ERC3643Original/contracts/registry/implementation/TrustedIssuersRegistry.sol\":704:819  require(... */\n      tag_141\n      jumpi\n      mload(0x40)\n      0x08c379a000000000000000000000000000000000000000000000000000000000\n      dup2\n      mstore\n      0x04\n      add\n      tag_142\n      swap1\n      tag_69\n      jump\t// in\n    tag_142:\n      mload(0x40)\n      dup1\n      swap2\n      sub\n      swap1\n      revert\n    tag_141:\n        /* \"ERC3643Original/contracts/registry/implementation/TrustedIssuersRegistry.sol\":911:912  0 */\n      0x00\n        /* \"ERC3643Original/contracts/registry/implementation/TrustedIssuersRegistry.sol\":850:875  _trustedIssuerClaimTopics */\n      0x66\n        /* \"ERC3643Original/contracts/registry/implementation/TrustedIssuersRegistry.sol\":850:900  _trustedIssuerClaimTopics[address(_trustedIssuer)] */\n      0x00\n        /* \"ERC3643Original/contracts/registry/implementation/TrustedIssuersRegistry.sol\":884:898  _trustedIssuer */\n      dup6\n        /* \"ERC3643Original/contracts/registry/implementation/TrustedIssuersRegistry.sol\":850:900  _trustedIssuerClaimTopics[address(_trustedIssuer)] */\n      0xffffffffffffffffffffffffffffffffffffffff\n      and\n      0xffffffffffffffffffffffffffffffffffffffff\n      and\n      dup2\n      mstore\n      0x20\n      add\n      swap1\n      dup2\n      mstore\n      0x20\n      add\n      0x00\n      keccak256\n        /* \"ERC3643Original/contracts/registry/implementation/TrustedIssuersRegistry.sol\":850:907  _trustedIssuerClaimTopics[address(_trustedIssuer)].length */\n      dup1\n      sload\n      swap1\n      pop\n        /* \"ERC3643Original/contracts/registry/implementation/TrustedIssuersRegistry.sol\":850:912  _trustedIssuerClaimTopics[address(_trustedIssuer)].length == 0 */\n      eq\n        /* \"ERC3643Original/contracts/registry/implementation/TrustedIssuersRegistry.sol\":829:967  require(... */\n      tag_143\n      jumpi\n      mload(0x40)\n      0x08c379a000000000000000000000000000000000000000000000000000000000\n      dup2\n      mstore\n      0x04\n      add\n      tag_144\n      swap1\n      tag_145\n      jump\t// in\n    tag_144:\n      mload(0x40)\n      dup1\n      swap2\n      sub\n      swap1\n      revert\n    tag_143:\n        /* \"ERC3643Original/contracts/registry/implementation/TrustedIssuersRegistry.sol\":1020:1021  0 */\n      0x00\n        /* \"ERC3643Original/contracts/registry/implementation/TrustedIssuersRegistry.sol\":998:1010  _claimTopics */\n      dup3\n      dup3\n        /* \"ERC3643Original/contracts/registry/implementation/TrustedIssuersRegistry.sol\":998:1017  _claimTopics.length */\n      swap1\n      pop\n        /* \"ERC3643Original/contracts/registry/implementation/TrustedIssuersRegistry.sol\":998:1021  _claimTopics.length > 0 */\n      gt\n        /* \"ERC3643Original/contracts/registry/implementation/TrustedIssuersRegistry.sol\":977:1083  require(... */\n      tag_146\n      jumpi\n      mload(0x40)\n      0x08c379a000000000000000000000000000000000000000000000000000000000\n      dup2\n      mstore\n      0x04\n      add\n      tag_147\n      swap1\n      tag_148\n      jump\t// in\n    tag_147:\n      mload(0x40)\n      dup1\n      swap2\n      sub\n      swap1\n      revert\n    tag_146:\n        /* \"ERC3643Original/contracts/registry/implementation/TrustedIssuersRegistry.sol\":1137:1139  15 */\n      0x0f\n        /* \"ERC3643Original/contracts/registry/implementation/TrustedIssuersRegistry.sol\":1114:1126  _claimTopics */\n      dup3\n      dup3\n        /* \"ERC3643Original/contracts/registry/implementation/TrustedIssuersRegistry.sol\":1114:1133  _claimTopics.length */\n      swap1\n      pop\n        /* \"ERC3643Original/contracts/registry/implementation/TrustedIssuersRegistry.sol\":1114:1139  _claimTopics.length <= 15 */\n      gt\n      iszero\n        /* \"ERC3643Original/contracts/registry/implementation/TrustedIssuersRegistry.sol\":1093:1202  require(... */\n      tag_149\n      jumpi\n      mload(0x40)\n      0x08c379a000000000000000000000000000000000000000000000000000000000\n      dup2\n      mstore\n      0x04\n      add\n      tag_150\n      swap1\n      tag_75\n      jump\t// in\n    tag_150:\n      mload(0x40)\n      dup1\n      swap2\n      sub\n      swap1\n      revert\n    tag_149:\n        /* \"ERC3643Original/contracts/registry/implementation/TrustedIssuersRegistry.sol\":1258:1260  50 */\n      0x32\n        /* \"ERC3643Original/contracts/registry/implementation/TrustedIssuersRegistry.sol\":1233:1248  _trustedIssuers */\n      0x65\n        /* \"ERC3643Original/contracts/registry/implementation/TrustedIssuersRegistry.sol\":1233:1255  _trustedIssuers.length */\n      dup1\n      sload\n      swap1\n      pop\n        /* \"ERC3643Original/contracts/registry/implementation/TrustedIssuersRegistry.sol\":1233:1260  _trustedIssuers.length < 50 */\n      lt\n        /* \"ERC3643Original/contracts/registry/implementation/TrustedIssuersRegistry.sol\":1212:1326  require(... */\n      tag_151\n      jumpi\n      mload(0x40)\n      0x08c379a000000000000000000000000000000000000000000000000000000000\n      dup2\n      mstore\n      0x04\n      add\n      tag_152\n      swap1\n      tag_153\n      jump\t// in\n    tag_152:\n      mload(0x40)\n      dup1\n      swap2\n      sub\n      swap1\n      revert\n    tag_151:\n        /* \"ERC3643Original/contracts/registry/implementation/TrustedIssuersRegistry.sol\":1336:1351  _trustedIssuers */\n      0x65\n        /* \"ERC3643Original/contracts/registry/implementation/TrustedIssuersRegistry.sol\":1357:1371  _trustedIssuer */\n      dup4\n        /* \"ERC3643Original/contracts/registry/implementation/TrustedIssuersRegistry.sol\":1336:1372  _trustedIssuers.push(_trustedIssuer) */\n      swap1\n      dup1\n      0x01\n      dup2\n      sload\n      add\n      dup1\n      dup3\n      sstore\n      dup1\n      swap2\n      pop\n      pop\n      0x01\n      swap1\n      sub\n      swap1\n      0x00\n      mstore\n      keccak256(0x00, 0x20)\n      add\n      0x00\n      swap1\n      swap2\n      swap1\n      swap2\n      swap1\n      swap2\n      0x0100\n      exp\n      dup2\n      sload\n      dup2\n      0xffffffffffffffffffffffffffffffffffffffff\n      mul\n      not\n      and\n      swap1\n      dup4\n      0xffffffffffffffffffffffffffffffffffffffff\n      and\n      mul\n      or\n      swap1\n      sstore\n      pop\n        /* \"ERC3643Original/contracts/registry/implementation/TrustedIssuersRegistry.sol\":1435:1447  _claimTopics */\n      dup2\n      dup2\n        /* \"ERC3643Original/contracts/registry/implementation/TrustedIssuersRegistry.sol\":1382:1407  _trustedIssuerClaimTopics */\n      0x66\n        /* \"ERC3643Original/contracts/registry/implementation/TrustedIssuersRegistry.sol\":1382:1432  _trustedIssuerClaimTopics[address(_trustedIssuer)] */\n      0x00\n        /* \"ERC3643Original/contracts/registry/implementation/TrustedIssuersRegistry.sol\":1416:1430  _trustedIssuer */\n      dup7\n        /* \"ERC3643Original/contracts/registry/implementation/TrustedIssuersRegistry.sol\":1382:1432  _trustedIssuerClaimTopics[address(_trustedIssuer)] */\n      0xffffffffffffffffffffffffffffffffffffffff\n      and\n      0xffffffffffffffffffffffffffffffffffffffff\n      and\n      dup2\n      mstore\n      0x20\n      add\n      swap1\n      dup2\n      mstore\n      0x20\n      add\n      0x00\n      keccak256\n        /* \"ERC3643Original/contracts/registry/implementation/TrustedIssuersRegistry.sol\":1382:1447  _trustedIssuerClaimTopics[address(_trustedIssuer)] = _claimTopics */\n      swap2\n      swap1\n      tag_155\n      swap3\n      swap2\n      swap1\n      tag_109\n      jump\t// in\n    tag_155:\n      pop\n        /* \"ERC3643Original/contracts/registry/implementation/TrustedIssuersRegistry.sol\":1462:1471  uint256 i */\n      0x00\n        /* \"ERC3643Original/contracts/registry/implementation/TrustedIssuersRegistry.sol\":1457:1598  for (uint256 i = 0; i < _claimTopics.length; i++) {... */\n    tag_156:\n        /* \"ERC3643Original/contracts/registry/implementation/TrustedIssuersRegistry.sol\":1481:1493  _claimTopics */\n      dup3\n      dup3\n        /* \"ERC3643Original/contracts/registry/implementation/TrustedIssuersRegistry.sol\":1481:1500  _claimTopics.length */\n      swap1\n      pop\n        /* \"ERC3643Original/contracts/registry/implementation/TrustedIssuersRegistry.sol\":1477:1478  i */\n      dup2\n        /* \"ERC3643Original/contracts/registry/implementation/TrustedIssuersRegistry.sol\":1477:1500  i < _claimTopics.length */\n      lt\n        /* \"ERC3643Original/contracts/registry/implementation/TrustedIssuersRegistry.sol\":1457:1598  for (uint256 i = 0; i < _claimTopics.length; i++) {... */\n      iszero\n      tag_157\n      jumpi\n        /* \"ERC3643Original/contracts/registry/implementation/TrustedIssuersRegistry.sol\":1521:1549  _claimTopicsToTrustedIssuers */\n      0x67\n        /* \"ERC3643Original/contracts/registry/implementation/TrustedIssuersRegistry.sol\":1521:1566  _claimTopicsToTrustedIssuers[_claimTopics[i]] */\n      0x00\n        /* \"ERC3643Original/contracts/registry/implementation/TrustedIssuersRegistry.sol\":1550:1562  _claimTopics */\n      dup5\n      dup5\n        /* \"ERC3643Original/contracts/registry/implementation/TrustedIssuersRegistry.sol\":1563:1564  i */\n      dup5\n        /* \"ERC3643Original/contracts/registry/implementation/TrustedIssuersRegistry.sol\":1550:1565  _claimTopics[i] */\n      dup2\n      dup2\n      lt\n      tag_159\n      jumpi\n      tag_160\n      tag_84\n      jump\t// in\n    tag_160:\n    tag_159:\n      swap1\n      pop\n      0x20\n      mul\n      add\n      calldataload\n        /* \"ERC3643Original/contracts/registry/implementation/TrustedIssuersRegistry.sol\":1521:1566  _claimTopicsToTrustedIssuers[_claimTopics[i]] */\n      dup2\n      mstore\n      0x20\n      add\n      swap1\n      dup2\n      mstore\n      0x20\n      add\n      0x00\n      keccak256\n        /* \"ERC3643Original/contracts/registry/implementation/TrustedIssuersRegistry.sol\":1572:1586  _trustedIssuer */\n      dup5\n        /* \"ERC3643Original/contracts/registry/implementation/TrustedIssuersRegistry.sol\":1521:1587  _claimTopicsToTrustedIssuers[_claimTopics[i]].push(_trustedIssuer) */\n      swap1\n      dup1\n      0x01\n      dup2\n      sload\n      add\n      dup1\n      dup3\n      sstore\n      dup1\n      swap2\n      pop\n      pop\n      0x01\n      swap1\n      sub\n      swap1\n      0x00\n      mstore\n      keccak256(0x00, 0x20)\n      add\n      0x00\n      swap1\n      swap2\n      swap1\n      swap2\n      swap1\n      swap2\n      0x0100\n      exp\n      dup2\n      sload\n      dup2\n      0xffffffffffffffffffffffffffffffffffffffff\n      mul\n      not\n      and\n      swap1\n      dup4\n      0xffffffffffffffffffffffffffffffffffffffff\n      and\n      mul\n      or\n      swap1\n      sstore\n      pop\n        /* \"ERC3643Original/contracts/registry/implementation/TrustedIssuersRegistry.sol\":1502:1505  i++ */\n      dup1\n      dup1\n      tag_162\n      swap1\n      tag_106\n      jump\t// in\n    tag_162:\n      swap2\n      pop\n      pop\n        /* \"ERC3643Original/contracts/registry/implementation/TrustedIssuersRegistry.sol\":1457:1598  for (uint256 i = 0; i < _claimTopics.length; i++) {... */\n      jump(tag_156)\n    tag_157:\n      pop\n        /* \"ERC3643Original/contracts/registry/implementation/TrustedIssuersRegistry.sol\":1631:1645  _trustedIssuer */\n      dup3\n        /* \"ERC3643Original/contracts/registry/implementation/TrustedIssuersRegistry.sol\":1612:1660  TrustedIssuerAdded(_trustedIssuer, _claimTopics) */\n      0xffffffffffffffffffffffffffffffffffffffff\n      and\n      0xfedc33fd34859594822c0ff6f3f4f9fc279cc6d5cae53068f706a088e4500872\n        /* \"ERC3643Original/contracts/registry/implementation/TrustedIssuersRegistry.sol\":1647:1659  _claimTopics */\n      dup4\n      dup4\n        /* \"ERC3643Original/contracts/registry/implementation/TrustedIssuersRegistry.sol\":1612:1660  TrustedIssuerAdded(_trustedIssuer, _claimTopics) */\n      mload(0x40)\n      tag_163\n      swap3\n      swap2\n      swap1\n      tag_118\n      jump\t// in\n    tag_163:\n      mload(0x40)\n      dup1\n      swap2\n      sub\n      swap1\n      log2\n        /* \"ERC3643Original/contracts/registry/implementation/TrustedIssuersRegistry.sol\":556:1667  function addTrustedIssuer(... */\n      pop\n      pop\n      pop\n      jump\t// out\n        /* \"ERC3643Original/contracts/registry/implementation/TrustedIssuersRegistry.sol\":1753:3546  function removeTrustedIssuer(IClaimIssuer _trustedIssuer)... */\n    tag_44:\n        /* \"@openzeppelin/contracts-upgradeable/access/OwnableUpgradeable.sol\":1334:1347  _checkOwner() */\n      tag_165\n        /* \"@openzeppelin/contracts-upgradeable/access/OwnableUpgradeable.sol\":1334:1345  _checkOwner */\n      tag_65\n        /* \"@openzeppelin/contracts-upgradeable/access/OwnableUpgradeable.sol\":1334:1347  _checkOwner() */\n      jump\t// in\n    tag_165:\n        /* \"ERC3643Original/contracts/registry/implementation/TrustedIssuersRegistry.sol\":1933:1934  0 */\n      0x00\n        /* \"ERC3643Original/contracts/registry/implementation/TrustedIssuersRegistry.sol\":1898:1935  address(_trustedIssuer) != address(0) */\n      0xffffffffffffffffffffffffffffffffffffffff\n      and\n        /* \"ERC3643Original/contracts/registry/implementation/TrustedIssuersRegistry.sol\":1906:1920  _trustedIssuer */\n      dup2\n        /* \"ERC3643Original/contracts/registry/implementation/TrustedIssuersRegistry.sol\":1898:1935  address(_trustedIssuer) != address(0) */\n      0xffffffffffffffffffffffffffffffffffffffff\n      and\n      sub\n        /* \"ERC3643Original/contracts/registry/implementation/TrustedIssuersRegistry.sol\":1877:1992  require(... */\n      tag_167\n      jumpi\n      mload(0x40)\n      0x08c379a000000000000000000000000000000000000000000000000000000000\n      dup2\n      mstore\n      0x04\n      add\n      tag_168\n      swap1\n      tag_69\n      jump\t// in\n    tag_168:\n      mload(0x40)\n      dup1\n      swap2\n      sub\n      swap1\n      revert\n    tag_167:\n        /* \"ERC3643Original/contracts/registry/implementation/TrustedIssuersRegistry.sol\":2084:2085  0 */\n      0x00\n        /* \"ERC3643Original/contracts/registry/implementation/TrustedIssuersRegistry.sol\":2023:2048  _trustedIssuerClaimTopics */\n      0x66\n        /* \"ERC3643Original/contracts/registry/implementation/TrustedIssuersRegistry.sol\":2023:2073  _trustedIssuerClaimTopics[address(_trustedIssuer)] */\n      0x00\n        /* \"ERC3643Original/contracts/registry/implementation/TrustedIssuersRegistry.sol\":2057:2071  _trustedIssuer */\n      dup4\n        /* \"ERC3643Original/contracts/registry/implementation/TrustedIssuersRegistry.sol\":2023:2073  _trustedIssuerClaimTopics[address(_trustedIssuer)] */\n      0xffffffffffffffffffffffffffffffffffffffff\n      and\n      0xffffffffffffffffffffffffffffffffffffffff\n      and\n      dup2\n      mstore\n      0x20\n      add\n      swap1\n      dup2\n      mstore\n      0x20\n      add\n      0x00\n      keccak256\n        /* \"ERC3643Original/contracts/registry/implementation/TrustedIssuersRegistry.sol\":2023:2080  _trustedIssuerClaimTopics[address(_trustedIssuer)].length */\n      dup1\n      sload\n      swap1\n      pop\n        /* \"ERC3643Original/contracts/registry/implementation/TrustedIssuersRegistry.sol\":2023:2085  _trustedIssuerClaimTopics[address(_trustedIssuer)].length != 0 */\n      sub\n        /* \"ERC3643Original/contracts/registry/implementation/TrustedIssuersRegistry.sol\":2002:2131  require(... */\n      tag_169\n      jumpi\n      mload(0x40)\n      0x08c379a000000000000000000000000000000000000000000000000000000000\n      dup2\n      mstore\n      0x04\n      add\n      tag_170\n      swap1\n      tag_72\n      jump\t// in\n    tag_170:\n      mload(0x40)\n      dup1\n      swap2\n      sub\n      swap1\n      revert\n    tag_169:\n        /* \"ERC3643Original/contracts/registry/implementation/TrustedIssuersRegistry.sol\":2141:2155  uint256 length */\n      0x00\n        /* \"ERC3643Original/contracts/registry/implementation/TrustedIssuersRegistry.sol\":2158:2173  _trustedIssuers */\n      0x65\n        /* \"ERC3643Original/contracts/registry/implementation/TrustedIssuersRegistry.sol\":2158:2180  _trustedIssuers.length */\n      dup1\n      sload\n      swap1\n      pop\n        /* \"ERC3643Original/contracts/registry/implementation/TrustedIssuersRegistry.sol\":2141:2180  uint256 length = _trustedIssuers.length */\n      swap1\n      pop\n        /* \"ERC3643Original/contracts/registry/implementation/TrustedIssuersRegistry.sol\":2195:2204  uint256 i */\n      0x00\n        /* \"ERC3643Original/contracts/registry/implementation/TrustedIssuersRegistry.sol\":2190:2436  for (uint256 i = 0; i < length; i++) {... */\n    tag_171:\n        /* \"ERC3643Original/contracts/registry/implementation/TrustedIssuersRegistry.sol\":2214:2220  length */\n      dup2\n        /* \"ERC3643Original/contracts/registry/implementation/TrustedIssuersRegistry.sol\":2210:2211  i */\n      dup2\n        /* \"ERC3643Original/contracts/registry/implementation/TrustedIssuersRegistry.sol\":2210:2220  i < length */\n      lt\n        /* \"ERC3643Original/contracts/registry/implementation/TrustedIssuersRegistry.sol\":2190:2436  for (uint256 i = 0; i < length; i++) {... */\n      iszero\n      tag_172\n      jumpi\n        /* \"ERC3643Original/contracts/registry/implementation/TrustedIssuersRegistry.sol\":2267:2281  _trustedIssuer */\n      dup3\n        /* \"ERC3643Original/contracts/registry/implementation/TrustedIssuersRegistry.sol\":2245:2281  _trustedIssuers[i] == _trustedIssuer */\n      0xffffffffffffffffffffffffffffffffffffffff\n      and\n        /* \"ERC3643Original/contracts/registry/implementation/TrustedIssuersRegistry.sol\":2245:2260  _trustedIssuers */\n      0x65\n        /* \"ERC3643Original/contracts/registry/implementation/TrustedIssuersRegistry.sol\":2261:2262  i */\n      dup3\n        /* \"ERC3643Original/contracts/registry/implementation/TrustedIssuersRegistry.sol\":2245:2263  _trustedIssuers[i] */\n      dup2\n      sload\n      dup2\n      lt\n      tag_174\n      jumpi\n      tag_175\n      tag_84\n      jump\t// in\n    tag_175:\n    tag_174:\n      swap1\n      0x00\n      mstore\n      keccak256(0x00, 0x20)\n      add\n      0x00\n      swap1\n      sload\n      swap1\n      0x0100\n      exp\n      swap1\n      div\n      0xffffffffffffffffffffffffffffffffffffffff\n      and\n        /* \"ERC3643Original/contracts/registry/implementation/TrustedIssuersRegistry.sol\":2245:2281  _trustedIssuers[i] == _trustedIssuer */\n      0xffffffffffffffffffffffffffffffffffffffff\n      and\n      sub\n        /* \"ERC3643Original/contracts/registry/implementation/TrustedIssuersRegistry.sol\":2241:2426  if (_trustedIssuers[i] == _trustedIssuer) {... */\n      tag_177\n      jumpi\n        /* \"ERC3643Original/contracts/registry/implementation/TrustedIssuersRegistry.sol\":2322:2337  _trustedIssuers */\n      0x65\n        /* \"ERC3643Original/contracts/registry/implementation/TrustedIssuersRegistry.sol\":2347:2348  1 */\n      0x01\n        /* \"ERC3643Original/contracts/registry/implementation/TrustedIssuersRegistry.sol\":2338:2344  length */\n      dup4\n        /* \"ERC3643Original/contracts/registry/implementation/TrustedIssuersRegistry.sol\":2338:2348  length - 1 */\n      tag_178\n      swap2\n      swap1\n      tag_94\n      jump\t// in\n    tag_178:\n        /* \"ERC3643Original/contracts/registry/implementation/TrustedIssuersRegistry.sol\":2322:2349  _trustedIssuers[length - 1] */\n      dup2\n      sload\n      dup2\n      lt\n      tag_179\n      jumpi\n      tag_180\n      tag_84\n      jump\t// in\n    tag_180:\n    tag_179:\n      swap1\n      0x00\n      mstore\n      keccak256(0x00, 0x20)\n      add\n      0x00\n      swap1\n      sload\n      swap1\n      0x0100\n      exp\n      swap1\n      div\n      0xffffffffffffffffffffffffffffffffffffffff\n      and\n        /* \"ERC3643Original/contracts/registry/implementation/TrustedIssuersRegistry.sol\":2301:2316  _trustedIssuers */\n      0x65\n        /* \"ERC3643Original/contracts/registry/implementation/TrustedIssuersRegistry.sol\":2317:2318  i */\n      dup3\n        /* \"ERC3643Original/contracts/registry/implementation/TrustedIssuersRegistry.sol\":2301:2319  _trustedIssuers[i] */\n      dup2\n      sload\n      dup2\n      lt\n      tag_182\n      jumpi\n      tag_183\n      tag_84\n      jump\t// in\n    tag_183:\n    tag_182:\n      swap1\n      0x00\n      mstore\n      keccak256(0x00, 0x20)\n      add\n      0x00\n        /* \"ERC3643Original/contracts/registry/implementation/TrustedIssuersRegistry.sol\":2301:2349  _trustedIssuers[i] = _trustedIssuers[length - 1] */\n      0x0100\n      exp\n      dup2\n      sload\n      dup2\n      0xffffffffffffffffffffffffffffffffffffffff\n      mul\n      not\n      and\n      swap1\n      dup4\n      0xffffffffffffffffffffffffffffffffffffffff\n      and\n      mul\n      or\n      swap1\n      sstore\n      pop\n        /* \"ERC3643Original/contracts/registry/implementation/TrustedIssuersRegistry.sol\":2367:2382  _trustedIssuers */\n      0x65\n        /* \"ERC3643Original/contracts/registry/implementation/TrustedIssuersRegistry.sol\":2367:2388  _trustedIssuers.pop() */\n      dup1\n      sload\n      dup1\n      tag_185\n      jumpi\n      tag_186\n      tag_103\n      jump\t// in\n    tag_186:\n    tag_185:\n      0x01\n      swap1\n      sub\n      dup2\n      dup2\n      swap1\n      0x00\n      mstore\n      keccak256(0x00, 0x20)\n      add\n      exp(0x0100, 0x00)\n      dup2\n      sload\n      swap1\n      0xffffffffffffffffffffffffffffffffffffffff\n      mul\n      not\n      and\n      swap1\n      sstore\n      swap1\n      sstore\n        /* \"ERC3643Original/contracts/registry/implementation/TrustedIssuersRegistry.sol\":2406:2411  break */\n      jump(tag_172)\n        /* \"ERC3643Original/contracts/registry/implementation/TrustedIssuersRegistry.sol\":2241:2426  if (_trustedIssuers[i] == _trustedIssuer) {... */\n    tag_177:\n        /* \"ERC3643Original/contracts/registry/implementation/TrustedIssuersRegistry.sol\":2222:2225  i++ */\n      dup1\n      dup1\n      tag_188\n      swap1\n      tag_106\n      jump\t// in\n    tag_188:\n      swap2\n      pop\n      pop\n        /* \"ERC3643Original/contracts/registry/implementation/TrustedIssuersRegistry.sol\":2190:2436  for (uint256 i = 0; i < length; i++) {... */\n      jump(tag_171)\n    tag_172:\n      pop\n        /* \"ERC3643Original/contracts/registry/implementation/TrustedIssuersRegistry.sol\":2463:2486  uint256 claimTopicIndex */\n      0x00\n        /* \"ERC3643Original/contracts/registry/implementation/TrustedIssuersRegistry.sol\":2445:3422  for (... */\n    tag_189:\n        /* \"ERC3643Original/contracts/registry/implementation/TrustedIssuersRegistry.sol\":2534:2559  _trustedIssuerClaimTopics */\n      0x66\n        /* \"ERC3643Original/contracts/registry/implementation/TrustedIssuersRegistry.sol\":2534:2584  _trustedIssuerClaimTopics[address(_trustedIssuer)] */\n      0x00\n        /* \"ERC3643Original/contracts/registry/implementation/TrustedIssuersRegistry.sol\":2568:2582  _trustedIssuer */\n      dup5\n        /* \"ERC3643Original/contracts/registry/implementation/TrustedIssuersRegistry.sol\":2534:2584  _trustedIssuerClaimTopics[address(_trustedIssuer)] */\n      0xffffffffffffffffffffffffffffffffffffffff\n      and\n      0xffffffffffffffffffffffffffffffffffffffff\n      and\n      dup2\n      mstore\n      0x20\n      add\n      swap1\n      dup2\n      mstore\n      0x20\n      add\n      0x00\n      keccak256\n        /* \"ERC3643Original/contracts/registry/implementation/TrustedIssuersRegistry.sol\":2534:2591  _trustedIssuerClaimTopics[address(_trustedIssuer)].length */\n      dup1\n      sload\n      swap1\n      pop\n        /* \"ERC3643Original/contracts/registry/implementation/TrustedIssuersRegistry.sol\":2504:2519  claimTopicIndex */\n      dup2\n        /* \"ERC3643Original/contracts/registry/implementation/TrustedIssuersRegistry.sol\":2504:2591  claimTopicIndex <... */\n      lt\n        /* \"ERC3643Original/contracts/registry/implementation/TrustedIssuersRegistry.sol\":2445:3422  for (... */\n      iszero\n      tag_190\n      jumpi\n        /* \"ERC3643Original/contracts/registry/implementation/TrustedIssuersRegistry.sol\":2647:2665  uint256 claimTopic */\n      0x00\n        /* \"ERC3643Original/contracts/registry/implementation/TrustedIssuersRegistry.sol\":2668:2693  _trustedIssuerClaimTopics */\n      0x66\n        /* \"ERC3643Original/contracts/registry/implementation/TrustedIssuersRegistry.sol\":2668:2748  _trustedIssuerClaimTopics[... */\n      0x00\n        /* \"ERC3643Original/contracts/registry/implementation/TrustedIssuersRegistry.sol\":2719:2733  _trustedIssuer */\n      dup6\n        /* \"ERC3643Original/contracts/registry/implementation/TrustedIssuersRegistry.sol\":2668:2748  _trustedIssuerClaimTopics[... */\n      0xffffffffffffffffffffffffffffffffffffffff\n      and\n      0xffffffffffffffffffffffffffffffffffffffff\n      and\n      dup2\n      mstore\n      0x20\n      add\n      swap1\n      dup2\n      mstore\n      0x20\n      add\n      0x00\n      keccak256\n        /* \"ERC3643Original/contracts/registry/implementation/TrustedIssuersRegistry.sol\":2749:2764  claimTopicIndex */\n      dup3\n        /* \"ERC3643Original/contracts/registry/implementation/TrustedIssuersRegistry.sol\":2668:2765  _trustedIssuerClaimTopics[... */\n      dup2\n      sload\n      dup2\n      lt\n      tag_192\n      jumpi\n      tag_193\n      tag_84\n      jump\t// in\n    tag_193:\n    tag_192:\n      swap1\n      0x00\n      mstore\n      keccak256(0x00, 0x20)\n      add\n      sload\n        /* \"ERC3643Original/contracts/registry/implementation/TrustedIssuersRegistry.sol\":2647:2765  uint256 claimTopic = _trustedIssuerClaimTopics[... */\n      swap1\n      pop\n        /* \"ERC3643Original/contracts/registry/implementation/TrustedIssuersRegistry.sol\":2779:2799  uint256 topicsLength */\n      0x00\n        /* \"ERC3643Original/contracts/registry/implementation/TrustedIssuersRegistry.sol\":2802:2830  _claimTopicsToTrustedIssuers */\n      0x67\n        /* \"ERC3643Original/contracts/registry/implementation/TrustedIssuersRegistry.sol\":2802:2842  _claimTopicsToTrustedIssuers[claimTopic] */\n      0x00\n        /* \"ERC3643Original/contracts/registry/implementation/TrustedIssuersRegistry.sol\":2831:2841  claimTopic */\n      dup4\n        /* \"ERC3643Original/contracts/registry/implementation/TrustedIssuersRegistry.sol\":2802:2842  _claimTopicsToTrustedIssuers[claimTopic] */\n      dup2\n      mstore\n      0x20\n      add\n      swap1\n      dup2\n      mstore\n      0x20\n      add\n      0x00\n      keccak256\n        /* \"ERC3643Original/contracts/registry/implementation/TrustedIssuersRegistry.sol\":2802:2866  _claimTopicsToTrustedIssuers[claimTopic]... */\n      dup1\n      sload\n      swap1\n      pop\n        /* \"ERC3643Original/contracts/registry/implementation/TrustedIssuersRegistry.sol\":2779:2866  uint256 topicsLength = _claimTopicsToTrustedIssuers[claimTopic]... */\n      swap1\n      pop\n        /* \"ERC3643Original/contracts/registry/implementation/TrustedIssuersRegistry.sol\":2885:2894  uint256 i */\n      0x00\n        /* \"ERC3643Original/contracts/registry/implementation/TrustedIssuersRegistry.sol\":2880:3412  for (uint256 i = 0; i < topicsLength; i++) {... */\n    tag_195:\n        /* \"ERC3643Original/contracts/registry/implementation/TrustedIssuersRegistry.sol\":2904:2916  topicsLength */\n      dup2\n        /* \"ERC3643Original/contracts/registry/implementation/TrustedIssuersRegistry.sol\":2900:2901  i */\n      dup2\n        /* \"ERC3643Original/contracts/registry/implementation/TrustedIssuersRegistry.sol\":2900:2916  i < topicsLength */\n      lt\n        /* \"ERC3643Original/contracts/registry/implementation/TrustedIssuersRegistry.sol\":2880:3412  for (uint256 i = 0; i < topicsLength; i++) {... */\n      iszero\n      tag_196\n      jumpi\n        /* \"ERC3643Original/contracts/registry/implementation/TrustedIssuersRegistry.sol\":3033:3047  _trustedIssuer */\n      dup6\n        /* \"ERC3643Original/contracts/registry/implementation/TrustedIssuersRegistry.sol\":2966:3047  _claimTopicsToTrustedIssuers[claimTopic][i] ==... */\n      0xffffffffffffffffffffffffffffffffffffffff\n      and\n        /* \"ERC3643Original/contracts/registry/implementation/TrustedIssuersRegistry.sol\":2966:2994  _claimTopicsToTrustedIssuers */\n      0x67\n        /* \"ERC3643Original/contracts/registry/implementation/TrustedIssuersRegistry.sol\":2966:3006  _claimTopicsToTrustedIssuers[claimTopic] */\n      0x00\n        /* \"ERC3643Original/contracts/registry/implementation/TrustedIssuersRegistry.sol\":2995:3005  claimTopic */\n      dup6\n        /* \"ERC3643Original/contracts/registry/implementation/TrustedIssuersRegistry.sol\":2966:3006  _claimTopicsToTrustedIssuers[claimTopic] */\n      dup2\n      mstore\n      0x20\n      add\n      swap1\n      dup2\n      mstore\n      0x20\n      add\n      0x00\n      keccak256\n        /* \"ERC3643Original/contracts/registry/implementation/TrustedIssuersRegistry.sol\":3007:3008  i */\n      dup3\n        /* \"ERC3643Original/contracts/registry/implementation/TrustedIssuersRegistry.sol\":2966:3009  _claimTopicsToTrustedIssuers[claimTopic][i] */\n      dup2\n      sload\n      dup2\n      lt\n      tag_198\n      jumpi\n      tag_199\n      tag_84\n      jump\t// in\n    tag_199:\n    tag_198:\n      swap1\n      0x00\n      mstore\n      keccak256(0x00, 0x20)\n      add\n      0x00\n      swap1\n      sload\n      swap1\n      0x0100\n      exp\n      swap1\n      div\n      0xffffffffffffffffffffffffffffffffffffffff\n      and\n        /* \"ERC3643Original/contracts/registry/implementation/TrustedIssuersRegistry.sol\":2966:3047  _claimTopicsToTrustedIssuers[claimTopic][i] ==... */\n      0xffffffffffffffffffffffffffffffffffffffff\n      and\n      sub\n        /* \"ERC3643Original/contracts/registry/implementation/TrustedIssuersRegistry.sol\":2941:3398  if (... */\n      tag_201\n      jumpi\n        /* \"ERC3643Original/contracts/registry/implementation/TrustedIssuersRegistry.sol\":3180:3208  _claimTopicsToTrustedIssuers */\n      0x67\n        /* \"ERC3643Original/contracts/registry/implementation/TrustedIssuersRegistry.sol\":3180:3220  _claimTopicsToTrustedIssuers[claimTopic] */\n      0x00\n        /* \"ERC3643Original/contracts/registry/implementation/TrustedIssuersRegistry.sol\":3209:3219  claimTopic */\n      dup5\n        /* \"ERC3643Original/contracts/registry/implementation/TrustedIssuersRegistry.sol\":3180:3220  _claimTopicsToTrustedIssuers[claimTopic] */\n      dup2\n      mstore\n      0x20\n      add\n      swap1\n      dup2\n      mstore\n      0x20\n      add\n      0x00\n      keccak256\n        /* \"ERC3643Original/contracts/registry/implementation/TrustedIssuersRegistry.sol\":3261:3262  1 */\n      0x01\n        /* \"ERC3643Original/contracts/registry/implementation/TrustedIssuersRegistry.sol\":3246:3258  topicsLength */\n      dup4\n        /* \"ERC3643Original/contracts/registry/implementation/TrustedIssuersRegistry.sol\":3246:3262  topicsLength - 1 */\n      tag_202\n      swap2\n      swap1\n      tag_94\n      jump\t// in\n    tag_202:\n        /* \"ERC3643Original/contracts/registry/implementation/TrustedIssuersRegistry.sol\":3180:3284  _claimTopicsToTrustedIssuers[claimTopic][... */\n      dup2\n      sload\n      dup2\n      lt\n      tag_203\n      jumpi\n      tag_204\n      tag_84\n      jump\t// in\n    tag_204:\n    tag_203:\n      swap1\n      0x00\n      mstore\n      keccak256(0x00, 0x20)\n      add\n      0x00\n      swap1\n      sload\n      swap1\n      0x0100\n      exp\n      swap1\n      div\n      0xffffffffffffffffffffffffffffffffffffffff\n      and\n        /* \"ERC3643Original/contracts/registry/implementation/TrustedIssuersRegistry.sol\":3088:3116  _claimTopicsToTrustedIssuers */\n      0x67\n        /* \"ERC3643Original/contracts/registry/implementation/TrustedIssuersRegistry.sol\":3088:3128  _claimTopicsToTrustedIssuers[claimTopic] */\n      0x00\n        /* \"ERC3643Original/contracts/registry/implementation/TrustedIssuersRegistry.sol\":3117:3127  claimTopic */\n      dup6\n        /* \"ERC3643Original/contracts/registry/implementation/TrustedIssuersRegistry.sol\":3088:3128  _claimTopicsToTrustedIssuers[claimTopic] */\n      dup2\n      mstore\n      0x20\n      add\n      swap1\n      dup2\n      mstore\n      0x20\n      add\n      0x00\n      keccak256\n        /* \"ERC3643Original/contracts/registry/implementation/TrustedIssuersRegistry.sol\":3154:3155  i */\n      dup3\n        /* \"ERC3643Original/contracts/registry/implementation/TrustedIssuersRegistry.sol\":3088:3177  _claimTopicsToTrustedIssuers[claimTopic][... */\n      dup2\n      sload\n      dup2\n      lt\n      tag_206\n      jumpi\n      tag_207\n      tag_84\n      jump\t// in\n    tag_207:\n    tag_206:\n      swap1\n      0x00\n      mstore\n      keccak256(0x00, 0x20)\n      add\n      0x00\n        /* \"ERC3643Original/contracts/registry/implementation/TrustedIssuersRegistry.sol\":3088:3284  _claimTopicsToTrustedIssuers[claimTopic][... */\n      0x0100\n      exp\n      dup2\n      sload\n      dup2\n      0xffffffffffffffffffffffffffffffffffffffff\n      mul\n      not\n      and\n      swap1\n      dup4\n      0xffffffffffffffffffffffffffffffffffffffff\n      and\n      mul\n      or\n      swap1\n      sstore\n      pop\n        /* \"ERC3643Original/contracts/registry/implementation/TrustedIssuersRegistry.sol\":3306:3334  _claimTopicsToTrustedIssuers */\n      0x67\n        /* \"ERC3643Original/contracts/registry/implementation/TrustedIssuersRegistry.sol\":3306:3346  _claimTopicsToTrustedIssuers[claimTopic] */\n      0x00\n        /* \"ERC3643Original/contracts/registry/implementation/TrustedIssuersRegistry.sol\":3335:3345  claimTopic */\n      dup5\n        /* \"ERC3643Original/contracts/registry/implementation/TrustedIssuersRegistry.sol\":3306:3346  _claimTopicsToTrustedIssuers[claimTopic] */\n      dup2\n      mstore\n      0x20\n      add\n      swap1\n      dup2\n      mstore\n      0x20\n      add\n      0x00\n      keccak256\n        /* \"ERC3643Original/contracts/registry/implementation/TrustedIssuersRegistry.sol\":3306:3352  _claimTopicsToTrustedIssuers[claimTopic].pop() */\n      dup1\n      sload\n      dup1\n      tag_209\n      jumpi\n      tag_210\n      tag_103\n      jump\t// in\n    tag_210:\n    tag_209:\n      0x01\n      swap1\n      sub\n      dup2\n      dup2\n      swap1\n      0x00\n      mstore\n      keccak256(0x00, 0x20)\n      add\n      exp(0x0100, 0x00)\n      dup2\n      sload\n      swap1\n      0xffffffffffffffffffffffffffffffffffffffff\n      mul\n      not\n      and\n      swap1\n      sstore\n      swap1\n      sstore\n        /* \"ERC3643Original/contracts/registry/implementation/TrustedIssuersRegistry.sol\":3374:3379  break */\n      jump(tag_196)\n        /* \"ERC3643Original/contracts/registry/implementation/TrustedIssuersRegistry.sol\":2941:3398  if (... */\n    tag_201:\n        /* \"ERC3643Original/contracts/registry/implementation/TrustedIssuersRegistry.sol\":2918:2921  i++ */\n      dup1\n      dup1\n      tag_212\n      swap1\n      tag_106\n      jump\t// in\n    tag_212:\n      swap2\n      pop\n      pop\n        /* \"ERC3643Original/contracts/registry/implementation/TrustedIssuersRegistry.sol\":2880:3412  for (uint256 i = 0; i < topicsLength; i++) {... */\n      jump(tag_195)\n    tag_196:\n      pop\n        /* \"ERC3643Original/contracts/registry/implementation/TrustedIssuersRegistry.sol\":2633:3422  {... */\n      pop\n      pop\n        /* \"ERC3643Original/contracts/registry/implementation/TrustedIssuersRegistry.sol\":2605:2622  claimTopicIndex++ */\n      dup1\n      dup1\n      tag_213\n      swap1\n      tag_106\n      jump\t// in\n    tag_213:\n      swap2\n      pop\n      pop\n        /* \"ERC3643Original/contracts/registry/implementation/TrustedIssuersRegistry.sol\":2445:3422  for (... */\n      jump(tag_189)\n    tag_190:\n      pop\n        /* \"ERC3643Original/contracts/registry/implementation/TrustedIssuersRegistry.sol\":3438:3463  _trustedIssuerClaimTopics */\n      0x66\n        /* \"ERC3643Original/contracts/registry/implementation/TrustedIssuersRegistry.sol\":3438:3488  _trustedIssuerClaimTopics[address(_trustedIssuer)] */\n      0x00\n        /* \"ERC3643Original/contracts/registry/implementation/TrustedIssuersRegistry.sol\":3472:3486  _trustedIssuer */\n      dup4\n        /* \"ERC3643Original/contracts/registry/implementation/TrustedIssuersRegistry.sol\":3438:3488  _trustedIssuerClaimTopics[address(_trustedIssuer)] */\n      0xffffffffffffffffffffffffffffffffffffffff\n      and\n      0xffffffffffffffffffffffffffffffffffffffff\n      and\n      dup2\n      mstore\n      0x20\n      add\n      swap1\n      dup2\n      mstore\n      0x20\n      add\n      0x00\n      keccak256\n      0x00\n        /* \"ERC3643Original/contracts/registry/implementation/TrustedIssuersRegistry.sol\":3431:3488  delete _trustedIssuerClaimTopics[address(_trustedIssuer)] */\n      tag_214\n      swap2\n      swap1\n      tag_215\n      jump\t// in\n    tag_214:\n        /* \"ERC3643Original/contracts/registry/implementation/TrustedIssuersRegistry.sol\":3524:3538  _trustedIssuer */\n      dup2\n        /* \"ERC3643Original/contracts/registry/implementation/TrustedIssuersRegistry.sol\":3503:3539  TrustedIssuerRemoved(_trustedIssuer) */\n      0xffffffffffffffffffffffffffffffffffffffff\n      and\n      0x2214ded40113cc3fb63fc206cafee88270b0a903dac7245d54efdde30ebb0321\n      mload(0x40)\n      mload(0x40)\n      dup1\n      swap2\n      sub\n      swap1\n      log2\n        /* \"ERC3643Original/contracts/registry/implementation/TrustedIssuersRegistry.sol\":1867:3546  {... */\n      pop\n        /* \"ERC3643Original/contracts/registry/implementation/TrustedIssuersRegistry.sol\":1753:3546  function removeTrustedIssuer(IClaimIssuer _trustedIssuer)... */\n      pop\n      jump\t// out\n        /* \"ERC3643Original/contracts/registry/implementation/TrustedIssuersRegistry.sol\":6424:6797  function getTrustedIssuerClaimTopics(IClaimIssuer _trustedIssuer)... */\n    tag_47:\n        /* \"ERC3643Original/contracts/registry/implementation/TrustedIssuersRegistry.sol\":6554:6570  uint256[] memory */\n      0x60\n        /* \"ERC3643Original/contracts/registry/implementation/TrustedIssuersRegistry.sol\":6668:6669  0 */\n      0x00\n        /* \"ERC3643Original/contracts/registry/implementation/TrustedIssuersRegistry.sol\":6607:6632  _trustedIssuerClaimTopics */\n      0x66\n        /* \"ERC3643Original/contracts/registry/implementation/TrustedIssuersRegistry.sol\":6607:6657  _trustedIssuerClaimTopics[address(_trustedIssuer)] */\n      0x00\n        /* \"ERC3643Original/contracts/registry/implementation/TrustedIssuersRegistry.sol\":6641:6655  _trustedIssuer */\n      dup5\n        /* \"ERC3643Original/contracts/registry/implementation/TrustedIssuersRegistry.sol\":6607:6657  _trustedIssuerClaimTopics[address(_trustedIssuer)] */\n      0xffffffffffffffffffffffffffffffffffffffff\n      and\n      0xffffffffffffffffffffffffffffffffffffffff\n      and\n      dup2\n      mstore\n      0x20\n      add\n      swap1\n      dup2\n      mstore\n      0x20\n      add\n      0x00\n      keccak256\n        /* \"ERC3643Original/contracts/registry/implementation/TrustedIssuersRegistry.sol\":6607:6664  _trustedIssuerClaimTopics[address(_trustedIssuer)].length */\n      dup1\n      sload\n      swap1\n      pop\n        /* \"ERC3643Original/contracts/registry/implementation/TrustedIssuersRegistry.sol\":6607:6669  _trustedIssuerClaimTopics[address(_trustedIssuer)].length != 0 */\n      sub\n        /* \"ERC3643Original/contracts/registry/implementation/TrustedIssuersRegistry.sol\":6586:6723  require(... */\n      tag_217\n      jumpi\n      mload(0x40)\n      0x08c379a000000000000000000000000000000000000000000000000000000000\n      dup2\n      mstore\n      0x04\n      add\n      tag_218\n      swap1\n      tag_219\n      jump\t// in\n    tag_218:\n      mload(0x40)\n      dup1\n      swap2\n      sub\n      swap1\n      revert\n    tag_217:\n        /* \"ERC3643Original/contracts/registry/implementation/TrustedIssuersRegistry.sol\":6740:6765  _trustedIssuerClaimTopics */\n      0x66\n        /* \"ERC3643Original/contracts/registry/implementation/TrustedIssuersRegistry.sol\":6740:6790  _trustedIssuerClaimTopics[address(_trustedIssuer)] */\n      0x00\n        /* \"ERC3643Original/contracts/registry/implementation/TrustedIssuersRegistry.sol\":6774:6788  _trustedIssuer */\n      dup4\n        /* \"ERC3643Original/contracts/registry/implementation/TrustedIssuersRegistry.sol\":6740:6790  _trustedIssuerClaimTopics[address(_trustedIssuer)] */\n      0xffffffffffffffffffffffffffffffffffffffff\n      and\n      0xffffffffffffffffffffffffffffffffffffffff\n      and\n      dup2\n      mstore\n      0x20\n      add\n      swap1\n      dup2\n      mstore\n      0x20\n      add\n      0x00\n      keccak256\n        /* \"ERC3643Original/contracts/registry/implementation/TrustedIssuersRegistry.sol\":6733:6790  return _trustedIssuerClaimTopics[address(_trustedIssuer)] */\n      dup1\n      sload\n      dup1\n      0x20\n      mul\n      0x20\n      add\n      mload(0x40)\n      swap1\n      dup2\n      add\n      0x40\n      mstore\n      dup1\n      swap3\n      swap2\n      swap1\n      dup2\n      dup2\n      mstore\n      0x20\n      add\n      dup3\n      dup1\n      sload\n      dup1\n      iszero\n      tag_220\n      jumpi\n      0x20\n      mul\n      dup3\n      add\n      swap2\n      swap1\n      0x00\n      mstore\n      keccak256(0x00, 0x20)\n      swap1\n    tag_221:\n      dup2\n      sload\n      dup2\n      mstore\n      0x20\n      add\n      swap1\n      0x01\n      add\n      swap1\n      dup1\n      dup4\n      gt\n      tag_221\n      jumpi\n    tag_220:\n      pop\n      pop\n      pop\n      pop\n      pop\n      swap1\n      pop\n        /* \"ERC3643Original/contracts/registry/implementation/TrustedIssuersRegistry.sol\":6424:6797  function getTrustedIssuerClaimTopics(IClaimIssuer _trustedIssuer)... */\n      swap2\n      swap1\n      pop\n      jump\t// out\n        /* \"ERC3643Original/contracts/registry/implementation/TrustedIssuersRegistry.sol\":5536:5695  function getTrustedIssuers()... */\n    tag_51:\n        /* \"ERC3643Original/contracts/registry/implementation/TrustedIssuersRegistry.sol\":5629:5650  IClaimIssuer[] memory */\n      0x60\n        /* \"ERC3643Original/contracts/registry/implementation/TrustedIssuersRegistry.sol\":5673:5688  _trustedIssuers */\n      0x65\n        /* \"ERC3643Original/contracts/registry/implementation/TrustedIssuersRegistry.sol\":5666:5688  return _trustedIssuers */\n      dup1\n      sload\n      dup1\n      0x20\n      mul\n      0x20\n      add\n      mload(0x40)\n      swap1\n      dup2\n      add\n      0x40\n      mstore\n      dup1\n      swap3\n      swap2\n      swap1\n      dup2\n      dup2\n      mstore\n      0x20\n      add\n      dup3\n      dup1\n      sload\n      dup1\n      iszero\n      tag_223\n      jumpi\n      0x20\n      mul\n      dup3\n      add\n      swap2\n      swap1\n      0x00\n      mstore\n      keccak256(0x00, 0x20)\n      swap1\n    tag_224:\n      dup2\n      0x00\n      swap1\n      sload\n      swap1\n      0x0100\n      exp\n      swap1\n      div\n      0xffffffffffffffffffffffffffffffffffffffff\n      and\n      0xffffffffffffffffffffffffffffffffffffffff\n      and\n      dup2\n      mstore\n      0x20\n      add\n      swap1\n      0x01\n      add\n      swap1\n      dup1\n      dup4\n      gt\n      tag_224\n      jumpi\n    tag_223:\n      pop\n      pop\n      pop\n      pop\n      pop\n      swap1\n      pop\n        /* \"ERC3643Original/contracts/registry/implementation/TrustedIssuersRegistry.sol\":5536:5695  function getTrustedIssuers()... */\n      swap1\n      jump\t// out\n        /* \"ERC3643Original/contracts/registry/implementation/TrustedIssuersRegistry.sol\":403:473  function init() external initializer {... */\n    tag_54:\n        /* \"@openzeppelin/contracts-upgradeable/proxy/utils/Initializable.sol\":3279:3298  bool isTopLevelCall */\n      0x00\n        /* \"@openzeppelin/contracts-upgradeable/proxy/utils/Initializable.sol\":3302:3315  _initializing */\n      dup1\n      0x01\n      swap1\n      sload\n      swap1\n      0x0100\n      exp\n      swap1\n      div\n      0xff\n      and\n        /* \"@openzeppelin/contracts-upgradeable/proxy/utils/Initializable.sol\":3301:3315  !_initializing */\n      iszero\n        /* \"@openzeppelin/contracts-upgradeable/proxy/utils/Initializable.sol\":3279:3315  bool isTopLevelCall = !_initializing */\n      swap1\n      pop\n        /* \"@openzeppelin/contracts-upgradeable/proxy/utils/Initializable.sol\":3347:3361  isTopLevelCall */\n      dup1\n        /* \"@openzeppelin/contracts-upgradeable/proxy/utils/Initializable.sol\":3347:3381  isTopLevelCall && _initialized < 1 */\n      dup1\n      iszero\n      tag_226\n      jumpi\n      pop\n        /* \"@openzeppelin/contracts-upgradeable/proxy/utils/Initializable.sol\":3380:3381  1 */\n      0x01\n        /* \"@openzeppelin/contracts-upgradeable/proxy/utils/Initializable.sol\":3365:3377  _initialized */\n      0x00\n      dup1\n      sload\n      swap1\n      0x0100\n      exp\n      swap1\n      div\n      0xff\n      and\n        /* \"@openzeppelin/contracts-upgradeable/proxy/utils/Initializable.sol\":3365:3381  _initialized < 1 */\n      0xff\n      and\n      lt\n        /* \"@openzeppelin/contracts-upgradeable/proxy/utils/Initializable.sol\":3347:3381  isTopLevelCall && _initialized < 1 */\n    tag_226:\n        /* \"@openzeppelin/contracts-upgradeable/proxy/utils/Initializable.sol\":3346:3454  (isTopLevelCall && _initialized < 1) || (!AddressUpgradeable.isContract(address(this)) && _initialized == 1) */\n      dup1\n      tag_227\n      jumpi\n      pop\n        /* \"@openzeppelin/contracts-upgradeable/proxy/utils/Initializable.sol\":3388:3432  AddressUpgradeable.isContract(address(this)) */\n      tag_228\n        /* \"@openzeppelin/contracts-upgradeable/proxy/utils/Initializable.sol\":3426:3430  this */\n      address\n        /* \"@openzeppelin/contracts-upgradeable/proxy/utils/Initializable.sol\":3388:3417  AddressUpgradeable.isContract */\n      tag_229\n        /* \"@openzeppelin/contracts-upgradeable/proxy/utils/Initializable.sol\":3388:3432  AddressUpgradeable.isContract(address(this)) */\n      jump\t// in\n    tag_228:\n        /* \"@openzeppelin/contracts-upgradeable/proxy/utils/Initializable.sol\":3387:3432  !AddressUpgradeable.isContract(address(this)) */\n      iszero\n        /* \"@openzeppelin/contracts-upgradeable/proxy/utils/Initializable.sol\":3387:3453  !AddressUpgradeable.isContract(address(this)) && _initialized == 1 */\n      dup1\n      iszero\n      tag_230\n      jumpi\n      pop\n        /* \"@openzeppelin/contracts-upgradeable/proxy/utils/Initializable.sol\":3452:3453  1 */\n      0x01\n        /* \"@openzeppelin/contracts-upgradeable/proxy/utils/Initializable.sol\":3436:3448  _initialized */\n      0x00\n      dup1\n      sload\n      swap1\n      0x0100\n      exp\n      swap1\n      div\n      0xff\n      and\n        /* \"@openzeppelin/contracts-upgradeable/proxy/utils/Initializable.sol\":3436:3453  _initialized == 1 */\n      0xff\n      and\n      eq\n        /* \"@openzeppelin/contracts-upgradeable/proxy/utils/Initializable.sol\":3387:3453  !AddressUpgradeable.isContract(address(this)) && _initialized == 1 */\n    tag_230:\n        /* \"@openzeppelin/contracts-upgradeable/proxy/utils/Initializable.sol\":3346:3454  (isTopLevelCall && _initialized < 1) || (!AddressUpgradeable.isContract(address(this)) && _initialized == 1) */\n    tag_227:\n        /* \"@openzeppelin/contracts-upgradeable/proxy/utils/Initializable.sol\":3325:3526  require(... */\n      tag_231\n      jumpi\n      mload(0x40)\n      0x08c379a000000000000000000000000000000000000000000000000000000000\n      dup2\n      mstore\n      0x04\n      add\n      tag_232\n      swap1\n      tag_233\n      jump\t// in\n    tag_232:\n      mload(0x40)\n      dup1\n      swap2\n      sub\n      swap1\n      revert\n    tag_231:\n        /* \"@openzeppelin/contracts-upgradeable/proxy/utils/Initializable.sol\":3551:3552  1 */\n      0x01\n        /* \"@openzeppelin/contracts-upgradeable/proxy/utils/Initializable.sol\":3536:3548  _initialized */\n      0x00\n      dup1\n        /* \"@openzeppelin/contracts-upgradeable/proxy/utils/Initializable.sol\":3536:3552  _initialized = 1 */\n      0x0100\n      exp\n      dup2\n      sload\n      dup2\n      0xff\n      mul\n      not\n      and\n      swap1\n      dup4\n      0xff\n      and\n      mul\n      or\n      swap1\n      sstore\n      pop\n        /* \"@openzeppelin/contracts-upgradeable/proxy/utils/Initializable.sol\":3566:3580  isTopLevelCall */\n      dup1\n        /* \"@openzeppelin/contracts-upgradeable/proxy/utils/Initializable.sol\":3562:3627  if (isTopLevelCall) {... */\n      iszero\n      tag_234\n      jumpi\n        /* \"@openzeppelin/contracts-upgradeable/proxy/utils/Initializable.sol\":3612:3616  true */\n      0x01\n        /* \"@openzeppelin/contracts-upgradeable/proxy/utils/Initializable.sol\":3596:3609  _initializing */\n      0x00\n      0x01\n        /* \"@openzeppelin/contracts-upgradeable/proxy/utils/Initializable.sol\":3596:3616  _initializing = true */\n      0x0100\n      exp\n      dup2\n      sload\n      dup2\n      0xff\n      mul\n      not\n      and\n      swap1\n      dup4\n      iszero\n      iszero\n      mul\n      or\n      swap1\n      sstore\n      pop\n        /* \"@openzeppelin/contracts-upgradeable/proxy/utils/Initializable.sol\":3562:3627  if (isTopLevelCall) {... */\n    tag_234:\n        /* \"ERC3643Original/contracts/registry/implementation/TrustedIssuersRegistry.sol\":450:466  __Ownable_init() */\n      tag_236\n        /* \"ERC3643Original/contracts/registry/implementation/TrustedIssuersRegistry.sol\":450:464  __Ownable_init */\n      tag_237\n        /* \"ERC3643Original/contracts/registry/implementation/TrustedIssuersRegistry.sol\":450:466  __Ownable_init() */\n      jump\t// in\n    tag_236:\n        /* \"@openzeppelin/contracts-upgradeable/proxy/utils/Initializable.sol\":3651:3665  isTopLevelCall */\n      dup1\n        /* \"@openzeppelin/contracts-upgradeable/proxy/utils/Initializable.sol\":3647:3746  if (isTopLevelCall) {... */\n      iszero\n      tag_238\n      jumpi\n        /* \"@openzeppelin/contracts-upgradeable/proxy/utils/Initializable.sol\":3697:3702  false */\n      0x00\n        /* \"@openzeppelin/contracts-upgradeable/proxy/utils/Initializable.sol\":3681:3694  _initializing */\n      dup1\n      0x01\n        /* \"@openzeppelin/contracts-upgradeable/proxy/utils/Initializable.sol\":3681:3702  _initializing = false */\n      0x0100\n      exp\n      dup2\n      sload\n      dup2\n      0xff\n      mul\n      not\n      and\n      swap1\n      dup4\n      iszero\n      iszero\n      mul\n      or\n      swap1\n      sstore\n      pop\n        /* \"@openzeppelin/contracts-upgradeable/proxy/utils/Initializable.sol\":3721:3735  Initialized(1) */\n      0x7f26b83ff96e1f2b6a682f133852f6798a09c465da95921460cefb3847402498\n        /* \"@openzeppelin/contracts-upgradeable/proxy/utils/Initializable.sol\":3733:3734  1 */\n      0x01\n        /* \"@openzeppelin/contracts-upgradeable/proxy/utils/Initializable.sol\":3721:3735  Initialized(1) */\n      mload(0x40)\n      tag_239\n      swap2\n      swap1\n      tag_240\n      jump\t// in\n    tag_239:\n      mload(0x40)\n      dup1\n      swap2\n      sub\n      swap1\n      log1\n        /* \"@openzeppelin/contracts-upgradeable/proxy/utils/Initializable.sol\":3647:3746  if (isTopLevelCall) {... */\n    tag_238:\n        /* \"@openzeppelin/contracts-upgradeable/proxy/utils/Initializable.sol\":3269:3752  {... */\n      pop\n        /* \"ERC3643Original/contracts/registry/implementation/TrustedIssuersRegistry.sol\":403:473  function init() external initializer {... */\n      jump\t// out\n        /* \"ERC3643Original/contracts/registry/implementation/TrustedIssuersRegistry.sol\":6089:6330  function isTrustedIssuer(address _issuer)... */\n    tag_58:\n        /* \"ERC3643Original/contracts/registry/implementation/TrustedIssuersRegistry.sol\":6195:6199  bool */\n      0x00\n        /* \"ERC3643Original/contracts/registry/implementation/TrustedIssuersRegistry.sol\":6263:6264  0 */\n      dup1\n        /* \"ERC3643Original/contracts/registry/implementation/TrustedIssuersRegistry.sol\":6219:6244  _trustedIssuerClaimTopics */\n      0x66\n        /* \"ERC3643Original/contracts/registry/implementation/TrustedIssuersRegistry.sol\":6219:6253  _trustedIssuerClaimTopics[_issuer] */\n      0x00\n        /* \"ERC3643Original/contracts/registry/implementation/TrustedIssuersRegistry.sol\":6245:6252  _issuer */\n      dup5\n        /* \"ERC3643Original/contracts/registry/implementation/TrustedIssuersRegistry.sol\":6219:6253  _trustedIssuerClaimTopics[_issuer] */\n      0xffffffffffffffffffffffffffffffffffffffff\n      and\n      0xffffffffffffffffffffffffffffffffffffffff\n      and\n      dup2\n      mstore\n      0x20\n      add\n      swap1\n      dup2\n      mstore\n      0x20\n      add\n      0x00\n      keccak256\n        /* \"ERC3643Original/contracts/registry/implementation/TrustedIssuersRegistry.sol\":6219:6260  _trustedIssuerClaimTopics[_issuer].length */\n      dup1\n      sload\n      swap1\n      pop\n        /* \"ERC3643Original/contracts/registry/implementation/TrustedIssuersRegistry.sol\":6219:6264  _trustedIssuerClaimTopics[_issuer].length > 0 */\n      gt\n        /* \"ERC3643Original/contracts/registry/implementation/TrustedIssuersRegistry.sol\":6215:6302  if (_trustedIssuerClaimTopics[_issuer].length > 0) {... */\n      iszero\n      tag_242\n      jumpi\n        /* \"ERC3643Original/contracts/registry/implementation/TrustedIssuersRegistry.sol\":6287:6291  true */\n      0x01\n        /* \"ERC3643Original/contracts/registry/implementation/TrustedIssuersRegistry.sol\":6280:6291  return true */\n      swap1\n      pop\n      jump(tag_241)\n        /* \"ERC3643Original/contracts/registry/implementation/TrustedIssuersRegistry.sol\":6215:6302  if (_trustedIssuerClaimTopics[_issuer].length > 0) {... */\n    tag_242:\n        /* \"ERC3643Original/contracts/registry/implementation/TrustedIssuersRegistry.sol\":6318:6323  false */\n      0x00\n        /* \"ERC3643Original/contracts/registry/implementation/TrustedIssuersRegistry.sol\":6311:6323  return false */\n      swap1\n      pop\n        /* \"ERC3643Original/contracts/registry/implementation/TrustedIssuersRegistry.sol\":6089:6330  function isTrustedIssuer(address _issuer)... */\n    tag_241:\n      swap2\n      swap1\n      pop\n      jump\t// out\n        /* \"@openzeppelin/contracts-upgradeable/access/OwnableUpgradeable.sol\":2314:2512  function transferOwnership(address newOwner) public virtual onlyOwner {... */\n    tag_62:\n        /* \"@openzeppelin/contracts-upgradeable/access/OwnableUpgradeable.sol\":1334:1347  _checkOwner() */\n      tag_244\n        /* \"@openzeppelin/contracts-upgradeable/access/OwnableUpgradeable.sol\":1334:1345  _checkOwner */\n      tag_65\n        /* \"@openzeppelin/contracts-upgradeable/access/OwnableUpgradeable.sol\":1334:1347  _checkOwner() */\n      jump\t// in\n    tag_244:\n        /* \"@openzeppelin/contracts-upgradeable/access/OwnableUpgradeable.sol\":2422:2423  0 */\n      0x00\n        /* \"@openzeppelin/contracts-upgradeable/access/OwnableUpgradeable.sol\":2402:2424  newOwner != address(0) */\n      0xffffffffffffffffffffffffffffffffffffffff\n      and\n        /* \"@openzeppelin/contracts-upgradeable/access/OwnableUpgradeable.sol\":2402:2410  newOwner */\n      dup2\n        /* \"@openzeppelin/contracts-upgradeable/access/OwnableUpgradeable.sol\":2402:2424  newOwner != address(0) */\n      0xffffffffffffffffffffffffffffffffffffffff\n      and\n      sub\n        /* \"@openzeppelin/contracts-upgradeable/access/OwnableUpgradeable.sol\":2394:2467  require(newOwner != address(0), \"Ownable: new owner is the zero address\") */\n      tag_246\n      jumpi\n      mload(0x40)\n      0x08c379a000000000000000000000000000000000000000000000000000000000\n      dup2\n      mstore\n      0x04\n      add\n      tag_247\n      swap1\n      tag_248\n      jump\t// in\n    tag_247:\n      mload(0x40)\n      dup1\n      swap2\n      sub\n      swap1\n      revert\n    tag_246:\n        /* \"@openzeppelin/contracts-upgradeable/access/OwnableUpgradeable.sol\":2477:2505  _transferOwnership(newOwner) */\n      tag_249\n        /* \"@openzeppelin/contracts-upgradeable/access/OwnableUpgradeable.sol\":2496:2504  newOwner */\n      dup2\n        /* \"@openzeppelin/contracts-upgradeable/access/OwnableUpgradeable.sol\":2477:2495  _transferOwnership */\n      tag_136\n        /* \"@openzeppelin/contracts-upgradeable/access/OwnableUpgradeable.sol\":2477:2505  _transferOwnership(newOwner) */\n      jump\t// in\n    tag_249:\n        /* \"@openzeppelin/contracts-upgradeable/access/OwnableUpgradeable.sol\":2314:2512  function transferOwnership(address newOwner) public virtual onlyOwner {... */\n      pop\n      jump\t// out\n        /* \"@openzeppelin/contracts-upgradeable/access/OwnableUpgradeable.sol\":1599:1729  function _checkOwner() internal view virtual {... */\n    tag_65:\n        /* \"@openzeppelin/contracts-upgradeable/access/OwnableUpgradeable.sol\":1673:1685  _msgSender() */\n      tag_251\n        /* \"@openzeppelin/contracts-upgradeable/access/OwnableUpgradeable.sol\":1673:1683  _msgSender */\n      tag_252\n        /* \"@openzeppelin/contracts-upgradeable/access/OwnableUpgradeable.sol\":1673:1685  _msgSender() */\n      jump\t// in\n    tag_251:\n        /* \"@openzeppelin/contracts-upgradeable/access/OwnableUpgradeable.sol\":1662:1685  owner() == _msgSender() */\n      0xffffffffffffffffffffffffffffffffffffffff\n      and\n        /* \"@openzeppelin/contracts-upgradeable/access/OwnableUpgradeable.sol\":1662:1669  owner() */\n      tag_253\n        /* \"@openzeppelin/contracts-upgradeable/access/OwnableUpgradeable.sol\":1662:1667  owner */\n      tag_35\n        /* \"@openzeppelin/contracts-upgradeable/access/OwnableUpgradeable.sol\":1662:1669  owner() */\n      jump\t// in\n    tag_253:\n        /* \"@openzeppelin/contracts-upgradeable/access/OwnableUpgradeable.sol\":1662:1685  owner() == _msgSender() */\n      0xffffffffffffffffffffffffffffffffffffffff\n      and\n      eq\n        /* \"@openzeppelin/contracts-upgradeable/access/OwnableUpgradeable.sol\":1654:1722  require(owner() == _msgSender(), \"Ownable: caller is not the owner\") */\n      tag_254\n      jumpi\n      mload(0x40)\n      0x08c379a000000000000000000000000000000000000000000000000000000000\n      dup2\n      mstore\n      0x04\n      add\n      tag_255\n      swap1\n      tag_256\n      jump\t// in\n    tag_255:\n      mload(0x40)\n      dup1\n      swap2\n      sub\n      swap1\n      revert\n    tag_254:\n        /* \"@openzeppelin/contracts-upgradeable/access/OwnableUpgradeable.sol\":1599:1729  function _checkOwner() internal view virtual {... */\n      jump\t// out\n        /* \"@openzeppelin/contracts-upgradeable/access/OwnableUpgradeable.sol\":2666:2853  function _transferOwnership(address newOwner) internal virtual {... */\n    tag_136:\n        /* \"@openzeppelin/contracts-upgradeable/access/OwnableUpgradeable.sol\":2739:2755  address oldOwner */\n      0x00\n        /* \"@openzeppelin/contracts-upgradeable/access/OwnableUpgradeable.sol\":2758:2764  _owner */\n      0x33\n      0x00\n      swap1\n      sload\n      swap1\n      0x0100\n      exp\n      swap1\n      div\n      0xffffffffffffffffffffffffffffffffffffffff\n      and\n        /* \"@openzeppelin/contracts-upgradeable/access/OwnableUpgradeable.sol\":2739:2764  address oldOwner = _owner */\n      swap1\n      pop\n        /* \"@openzeppelin/contracts-upgradeable/access/OwnableUpgradeable.sol\":2783:2791  newOwner */\n      dup2\n        /* \"@openzeppelin/contracts-upgradeable/access/OwnableUpgradeable.sol\":2774:2780  _owner */\n      0x33\n      0x00\n        /* \"@openzeppelin/contracts-upgradeable/access/OwnableUpgradeable.sol\":2774:2791  _owner = newOwner */\n      0x0100\n      exp\n      dup2\n      sload\n      dup2\n      0xffffffffffffffffffffffffffffffffffffffff\n      mul\n      not\n      and\n      swap1\n      dup4\n      0xffffffffffffffffffffffffffffffffffffffff\n      and\n      mul\n      or\n      swap1\n      sstore\n      pop\n        /* \"@openzeppelin/contracts-upgradeable/access/OwnableUpgradeable.sol\":2837:2845  newOwner */\n      dup2\n        /* \"@openzeppelin/contracts-upgradeable/access/OwnableUpgradeable.sol\":2806:2846  OwnershipTransferred(oldOwner, newOwner) */\n      0xffffffffffffffffffffffffffffffffffffffff\n      and\n        /* \"@openzeppelin/contracts-upgradeable/access/OwnableUpgradeable.sol\":2827:2835  oldOwner */\n      dup2\n        /* \"@openzeppelin/contracts-upgradeable/access/OwnableUpgradeable.sol\":2806:2846  OwnershipTransferred(oldOwner, newOwner) */\n      0xffffffffffffffffffffffffffffffffffffffff\n      and\n      0x8be0079c531659141344cd1fd0a4f28419497f9722a3daafe3b4186f6b6457e0\n      mload(0x40)\n      mload(0x40)\n      dup1\n      swap2\n      sub\n      swap1\n      log3\n        /* \"@openzeppelin/contracts-upgradeable/access/OwnableUpgradeable.sol\":2729:2853  {... */\n      pop\n        /* \"@openzeppelin/contracts-upgradeable/access/OwnableUpgradeable.sol\":2666:2853  function _transferOwnership(address newOwner) internal virtual {... */\n      pop\n      jump\t// out\n        /* \"@openzeppelin/contracts-upgradeable/utils/AddressUpgradeable.sol\":1423:1743  function isContract(address account) internal view returns (bool) {... */\n    tag_229:\n        /* \"@openzeppelin/contracts-upgradeable/utils/AddressUpgradeable.sol\":1483:1487  bool */\n      0x00\n        /* \"@openzeppelin/contracts-upgradeable/utils/AddressUpgradeable.sol\":1735:1736  0 */\n      dup1\n        /* \"@openzeppelin/contracts-upgradeable/utils/AddressUpgradeable.sol\":1713:1720  account */\n      dup3\n        /* \"@openzeppelin/contracts-upgradeable/utils/AddressUpgradeable.sol\":1713:1732  account.code.length */\n      0xffffffffffffffffffffffffffffffffffffffff\n      and\n      extcodesize\n        /* \"@openzeppelin/contracts-upgradeable/utils/AddressUpgradeable.sol\":1713:1736  account.code.length > 0 */\n      gt\n        /* \"@openzeppelin/contracts-upgradeable/utils/AddressUpgradeable.sol\":1706:1736  return account.code.length > 0 */\n      swap1\n      pop\n        /* \"@openzeppelin/contracts-upgradeable/utils/AddressUpgradeable.sol\":1423:1743  function isContract(address account) internal view returns (bool) {... */\n      swap2\n      swap1\n      pop\n      jump\t// out\n        /* \"@openzeppelin/contracts-upgradeable/access/OwnableUpgradeable.sol\":1003:1098  function __Ownable_init() internal onlyInitializing {... */\n    tag_237:\n        /* \"@openzeppelin/contracts-upgradeable/proxy/utils/Initializable.sol\":5374:5387  _initializing */\n      0x00\n      0x01\n      swap1\n      sload\n      swap1\n      0x0100\n      exp\n      swap1\n      div\n      0xff\n      and\n        /* \"@openzeppelin/contracts-upgradeable/proxy/utils/Initializable.sol\":5366:5435  require(_initializing, \"Initializable: contract is not initializing\") */\n      tag_260\n      jumpi\n      mload(0x40)\n      0x08c379a000000000000000000000000000000000000000000000000000000000\n      dup2\n      mstore\n      0x04\n      add\n      tag_261\n      swap1\n      tag_262\n      jump\t// in\n    tag_261:\n      mload(0x40)\n      dup1\n      swap2\n      sub\n      swap1\n      revert\n    tag_260:\n        /* \"@openzeppelin/contracts-upgradeable/access/OwnableUpgradeable.sol\":1065:1091  __Ownable_init_unchained() */\n      tag_264\n        /* \"@openzeppelin/contracts-upgradeable/access/OwnableUpgradeable.sol\":1065:1089  __Ownable_init_unchained */\n      tag_265\n        /* \"@openzeppelin/contracts-upgradeable/access/OwnableUpgradeable.sol\":1065:1091  __Ownable_init_unchained() */\n      jump\t// in\n    tag_264:\n        /* \"@openzeppelin/contracts-upgradeable/access/OwnableUpgradeable.sol\":1003:1098  function __Ownable_init() internal onlyInitializing {... */\n      jump\t// out\n        /* \"@openzeppelin/contracts-upgradeable/utils/ContextUpgradeable.sol\":850:946  function _msgSender() internal view virtual returns (address) {... */\n    tag_252:\n        /* \"@openzeppelin/contracts-upgradeable/utils/ContextUpgradeable.sol\":903:910  address */\n      0x00\n        /* \"@openzeppelin/contracts-upgradeable/utils/ContextUpgradeable.sol\":929:939  msg.sender */\n      caller\n        /* \"@openzeppelin/contracts-upgradeable/utils/ContextUpgradeable.sol\":922:939  return msg.sender */\n      swap1\n      pop\n        /* \"@openzeppelin/contracts-upgradeable/utils/ContextUpgradeable.sol\":850:946  function _msgSender() internal view virtual returns (address) {... */\n      swap1\n      jump\t// out\n        /* \"@openzeppelin/contracts-upgradeable/access/OwnableUpgradeable.sol\":1104:1215  function __Ownable_init_unchained() internal onlyInitializing {... */\n    tag_265:\n        /* \"@openzeppelin/contracts-upgradeable/proxy/utils/Initializable.sol\":5374:5387  _initializing */\n      0x00\n      0x01\n      swap1\n      sload\n      swap1\n      0x0100\n      exp\n      swap1\n      div\n      0xff\n      and\n        /* \"@openzeppelin/contracts-upgradeable/proxy/utils/Initializable.sol\":5366:5435  require(_initializing, \"Initializable: contract is not initializing\") */\n      tag_268\n      jumpi\n      mload(0x40)\n      0x08c379a000000000000000000000000000000000000000000000000000000000\n      dup2\n      mstore\n      0x04\n      add\n      tag_269\n      swap1\n      tag_262\n      jump\t// in\n    tag_269:\n      mload(0x40)\n      dup1\n      swap2\n      sub\n      swap1\n      revert\n    tag_268:\n        /* \"@openzeppelin/contracts-upgradeable/access/OwnableUpgradeable.sol\":1176:1208  _transferOwnership(_msgSender()) */\n      tag_271\n        /* \"@openzeppelin/contracts-upgradeable/access/OwnableUpgradeable.sol\":1195:1207  _msgSender() */\n      tag_272\n        /* \"@openzeppelin/contracts-upgradeable/access/OwnableUpgradeable.sol\":1195:1205  _msgSender */\n      tag_252\n        /* \"@openzeppelin/contracts-upgradeable/access/OwnableUpgradeable.sol\":1195:1207  _msgSender() */\n      jump\t// in\n    tag_272:\n        /* \"@openzeppelin/contracts-upgradeable/access/OwnableUpgradeable.sol\":1176:1194  _transferOwnership */\n      tag_136\n        /* \"@openzeppelin/contracts-upgradeable/access/OwnableUpgradeable.sol\":1176:1208  _transferOwnership(_msgSender()) */\n      jump\t// in\n    tag_271:\n        /* \"@openzeppelin/contracts-upgradeable/access/OwnableUpgradeable.sol\":1104:1215  function __Ownable_init_unchained() internal onlyInitializing {... */\n      jump\t// out\n    tag_109:\n      dup3\n      dup1\n      sload\n      dup3\n      dup3\n      sstore\n      swap1\n      0x00\n      mstore\n      keccak256(0x00, 0x20)\n      swap1\n      dup2\n      add\n      swap3\n      dup3\n      iszero\n      tag_273\n      jumpi\n      swap2\n      0x20\n      mul\n      dup3\n      add\n    tag_274:\n      dup3\n      dup2\n      gt\n      iszero\n      tag_275\n      jumpi\n      dup3\n      calldataload\n      dup3\n      sstore\n      swap2\n      0x20\n      add\n      swap2\n      swap1\n      0x01\n      add\n      swap1\n      jump(tag_274)\n    tag_275:\n    tag_273:\n      pop\n      swap1\n      pop\n      tag_276\n      swap2\n      swap1\n      tag_277\n      jump\t// in\n    tag_276:\n      pop\n      swap1\n      jump\t// out\n    tag_215:\n      pop\n      dup1\n      sload\n      0x00\n      dup3\n      sstore\n      swap1\n      0x00\n      mstore\n      keccak256(0x00, 0x20)\n      swap1\n      dup2\n      add\n      swap1\n      tag_279\n      swap2\n      swap1\n      tag_277\n      jump\t// in\n    tag_279:\n      pop\n      jump\t// out\n    tag_277:\n    tag_280:\n      dup1\n      dup3\n      gt\n      iszero\n      tag_281\n      jumpi\n      0x00\n      dup2\n      0x00\n      swap1\n      sstore\n      pop\n      0x01\n      add\n      jump(tag_280)\n    tag_281:\n      pop\n      swap1\n      jump\t// out\n        /* \"#utility.yul\":88:205   */\n    tag_283:\n        /* \"#utility.yul\":197:198   */\n      0x00\n        /* \"#utility.yul\":194:195   */\n      dup1\n        /* \"#utility.yul\":187:199   */\n      revert\n        /* \"#utility.yul\":211:328   */\n    tag_284:\n        /* \"#utility.yul\":320:321   */\n      0x00\n        /* \"#utility.yul\":317:318   */\n      dup1\n        /* \"#utility.yul\":310:322   */\n      revert\n        /* \"#utility.yul\":334:460   */\n    tag_285:\n        /* \"#utility.yul\":371:378   */\n      0x00\n        /* \"#utility.yul\":411:453   */\n      0xffffffffffffffffffffffffffffffffffffffff\n        /* \"#utility.yul\":404:409   */\n      dup3\n        /* \"#utility.yul\":400:454   */\n      and\n        /* \"#utility.yul\":389:454   */\n      swap1\n      pop\n        /* \"#utility.yul\":334:460   */\n      swap2\n      swap1\n      pop\n      jump\t// out\n        /* \"#utility.yul\":466:562   */\n    tag_286:\n        /* \"#utility.yul\":503:510   */\n      0x00\n        /* \"#utility.yul\":532:556   */\n      tag_359\n        /* \"#utility.yul\":550:555   */\n      dup3\n        /* \"#utility.yul\":532:556   */\n      tag_285\n      jump\t// in\n    tag_359:\n        /* \"#utility.yul\":521:556   */\n      swap1\n      pop\n        /* \"#utility.yul\":466:562   */\n      swap2\n      swap1\n      pop\n      jump\t// out\n        /* \"#utility.yul\":568:683   */\n    tag_287:\n        /* \"#utility.yul\":624:631   */\n      0x00\n        /* \"#utility.yul\":653:677   */\n      tag_361\n        /* \"#utility.yul\":671:676   */\n      dup3\n        /* \"#utility.yul\":653:677   */\n      tag_286\n      jump\t// in\n    tag_361:\n        /* \"#utility.yul\":642:677   */\n      swap1\n      pop\n        /* \"#utility.yul\":568:683   */\n      swap2\n      swap1\n      pop\n      jump\t// out\n        /* \"#utility.yul\":689:849   */\n    tag_288:\n        /* \"#utility.yul\":781:824   */\n      tag_363\n        /* \"#utility.yul\":818:823   */\n      dup2\n        /* \"#utility.yul\":781:824   */\n      tag_287\n      jump\t// in\n    tag_363:\n        /* \"#utility.yul\":774:779   */\n      dup2\n        /* \"#utility.yul\":771:825   */\n      eq\n        /* \"#utility.yul\":761:843   */\n      tag_364\n      jumpi\n        /* \"#utility.yul\":839:840   */\n      0x00\n        /* \"#utility.yul\":836:837   */\n      dup1\n        /* \"#utility.yul\":829:841   */\n      revert\n        /* \"#utility.yul\":761:843   */\n    tag_364:\n        /* \"#utility.yul\":689:849   */\n      pop\n      jump\t// out\n        /* \"#utility.yul\":855:1032   */\n    tag_289:\n        /* \"#utility.yul\":920:925   */\n      0x00\n        /* \"#utility.yul\":958:964   */\n      dup2\n        /* \"#utility.yul\":945:965   */\n      calldataload\n        /* \"#utility.yul\":936:965   */\n      swap1\n      pop\n        /* \"#utility.yul\":974:1026   */\n      tag_366\n        /* \"#utility.yul\":1020:1025   */\n      dup2\n        /* \"#utility.yul\":974:1026   */\n      tag_288\n      jump\t// in\n    tag_366:\n        /* \"#utility.yul\":855:1032   */\n      swap3\n      swap2\n      pop\n      pop\n      jump\t// out\n        /* \"#utility.yul\":1038:1155   */\n    tag_290:\n        /* \"#utility.yul\":1147:1148   */\n      0x00\n        /* \"#utility.yul\":1144:1145   */\n      dup1\n        /* \"#utility.yul\":1137:1149   */\n      revert\n        /* \"#utility.yul\":1161:1278   */\n    tag_291:\n        /* \"#utility.yul\":1270:1271   */\n      0x00\n        /* \"#utility.yul\":1267:1268   */\n      dup1\n        /* \"#utility.yul\":1260:1272   */\n      revert\n        /* \"#utility.yul\":1284:1401   */\n    tag_292:\n        /* \"#utility.yul\":1393:1394   */\n      0x00\n        /* \"#utility.yul\":1390:1391   */\n      dup1\n        /* \"#utility.yul\":1383:1395   */\n      revert\n        /* \"#utility.yul\":1424:1992   */\n    tag_293:\n        /* \"#utility.yul\":1497:1505   */\n      0x00\n        /* \"#utility.yul\":1507:1513   */\n      dup1\n        /* \"#utility.yul\":1557:1560   */\n      dup4\n        /* \"#utility.yul\":1550:1554   */\n      0x1f\n        /* \"#utility.yul\":1542:1548   */\n      dup5\n        /* \"#utility.yul\":1538:1555   */\n      add\n        /* \"#utility.yul\":1534:1561   */\n      slt\n        /* \"#utility.yul\":1524:1646   */\n      tag_371\n      jumpi\n        /* \"#utility.yul\":1565:1644   */\n      tag_372\n      tag_290\n      jump\t// in\n    tag_372:\n        /* \"#utility.yul\":1524:1646   */\n    tag_371:\n        /* \"#utility.yul\":1678:1684   */\n      dup3\n        /* \"#utility.yul\":1665:1685   */\n      calldataload\n        /* \"#utility.yul\":1655:1685   */\n      swap1\n      pop\n        /* \"#utility.yul\":1708:1726   */\n      0xffffffffffffffff\n        /* \"#utility.yul\":1700:1706   */\n      dup2\n        /* \"#utility.yul\":1697:1727   */\n      gt\n        /* \"#utility.yul\":1694:1811   */\n      iszero\n      tag_373\n      jumpi\n        /* \"#utility.yul\":1730:1809   */\n      tag_374\n      tag_291\n      jump\t// in\n    tag_374:\n        /* \"#utility.yul\":1694:1811   */\n    tag_373:\n        /* \"#utility.yul\":1844:1848   */\n      0x20\n        /* \"#utility.yul\":1836:1842   */\n      dup4\n        /* \"#utility.yul\":1832:1849   */\n      add\n        /* \"#utility.yul\":1820:1849   */\n      swap2\n      pop\n        /* \"#utility.yul\":1898:1901   */\n      dup4\n        /* \"#utility.yul\":1890:1894   */\n      0x20\n        /* \"#utility.yul\":1882:1888   */\n      dup3\n        /* \"#utility.yul\":1878:1895   */\n      mul\n        /* \"#utility.yul\":1868:1876   */\n      dup4\n        /* \"#utility.yul\":1864:1896   */\n      add\n        /* \"#utility.yul\":1861:1902   */\n      gt\n        /* \"#utility.yul\":1858:1986   */\n      iszero\n      tag_375\n      jumpi\n        /* \"#utility.yul\":1905:1984   */\n      tag_376\n      tag_292\n      jump\t// in\n    tag_376:\n        /* \"#utility.yul\":1858:1986   */\n    tag_375:\n        /* \"#utility.yul\":1424:1992   */\n      swap3\n      pop\n      swap3\n      swap1\n      pop\n      jump\t// out\n        /* \"#utility.yul\":1998:2740   */\n    tag_18:\n        /* \"#utility.yul\":2112:2118   */\n      0x00\n        /* \"#utility.yul\":2120:2126   */\n      dup1\n        /* \"#utility.yul\":2128:2134   */\n      0x00\n        /* \"#utility.yul\":2177:2179   */\n      0x40\n        /* \"#utility.yul\":2165:2174   */\n      dup5\n        /* \"#utility.yul\":2156:2163   */\n      dup7\n        /* \"#utility.yul\":2152:2175   */\n      sub\n        /* \"#utility.yul\":2148:2180   */\n      slt\n        /* \"#utility.yul\":2145:2264   */\n      iszero\n      tag_378\n      jumpi\n        /* \"#utility.yul\":2183:2262   */\n      tag_379\n      tag_283\n      jump\t// in\n    tag_379:\n        /* \"#utility.yul\":2145:2264   */\n    tag_378:\n        /* \"#utility.yul\":2303:2304   */\n      0x00\n        /* \"#utility.yul\":2328:2400   */\n      tag_380\n        /* \"#utility.yul\":2392:2399   */\n      dup7\n        /* \"#utility.yul\":2383:2389   */\n      dup3\n        /* \"#utility.yul\":2372:2381   */\n      dup8\n        /* \"#utility.yul\":2368:2390   */\n      add\n        /* \"#utility.yul\":2328:2400   */\n      tag_289\n      jump\t// in\n    tag_380:\n        /* \"#utility.yul\":2318:2400   */\n      swap4\n      pop\n        /* \"#utility.yul\":2274:2410   */\n      pop\n        /* \"#utility.yul\":2477:2479   */\n      0x20\n        /* \"#utility.yul\":2466:2475   */\n      dup5\n        /* \"#utility.yul\":2462:2480   */\n      add\n        /* \"#utility.yul\":2449:2481   */\n      calldataload\n        /* \"#utility.yul\":2508:2526   */\n      0xffffffffffffffff\n        /* \"#utility.yul\":2500:2506   */\n      dup2\n        /* \"#utility.yul\":2497:2527   */\n      gt\n        /* \"#utility.yul\":2494:2611   */\n      iszero\n      tag_381\n      jumpi\n        /* \"#utility.yul\":2530:2609   */\n      tag_382\n      tag_284\n      jump\t// in\n    tag_382:\n        /* \"#utility.yul\":2494:2611   */\n    tag_381:\n        /* \"#utility.yul\":2643:2723   */\n      tag_383\n        /* \"#utility.yul\":2715:2722   */\n      dup7\n        /* \"#utility.yul\":2706:2712   */\n      dup3\n        /* \"#utility.yul\":2695:2704   */\n      dup8\n        /* \"#utility.yul\":2691:2713   */\n      add\n        /* \"#utility.yul\":2643:2723   */\n      tag_293\n      jump\t// in\n    tag_383:\n        /* \"#utility.yul\":2625:2723   */\n      swap3\n      pop\n      swap3\n      pop\n        /* \"#utility.yul\":2420:2733   */\n      pop\n        /* \"#utility.yul\":1998:2740   */\n      swap3\n      pop\n      swap3\n      pop\n      swap3\n      jump\t// out\n        /* \"#utility.yul\":2746:2868   */\n    tag_294:\n        /* \"#utility.yul\":2819:2843   */\n      tag_385\n        /* \"#utility.yul\":2837:2842   */\n      dup2\n        /* \"#utility.yul\":2819:2843   */\n      tag_286\n      jump\t// in\n    tag_385:\n        /* \"#utility.yul\":2812:2817   */\n      dup2\n        /* \"#utility.yul\":2809:2844   */\n      eq\n        /* \"#utility.yul\":2799:2862   */\n      tag_386\n      jumpi\n        /* \"#utility.yul\":2858:2859   */\n      0x00\n        /* \"#utility.yul\":2855:2856   */\n      dup1\n        /* \"#utility.yul\":2848:2860   */\n      revert\n        /* \"#utility.yul\":2799:2862   */\n    tag_386:\n        /* \"#utility.yul\":2746:2868   */\n      pop\n      jump\t// out\n        /* \"#utility.yul\":2874:3013   */\n    tag_295:\n        /* \"#utility.yul\":2920:2925   */\n      0x00\n        /* \"#utility.yul\":2958:2964   */\n      dup2\n        /* \"#utility.yul\":2945:2965   */\n      calldataload\n        /* \"#utility.yul\":2936:2965   */\n      swap1\n      pop\n        /* \"#utility.yul\":2974:3007   */\n      tag_388\n        /* \"#utility.yul\":3001:3006   */\n      dup2\n        /* \"#utility.yul\":2974:3007   */\n      tag_294\n      jump\t// in\n    tag_388:\n        /* \"#utility.yul\":2874:3013   */\n      swap3\n      swap2\n      pop\n      pop\n      jump\t// out\n        /* \"#utility.yul\":3019:3096   */\n    tag_296:\n        /* \"#utility.yul\":3056:3063   */\n      0x00\n        /* \"#utility.yul\":3085:3090   */\n      dup2\n        /* \"#utility.yul\":3074:3090   */\n      swap1\n      pop\n        /* \"#utility.yul\":3019:3096   */\n      swap2\n      swap1\n      pop\n      jump\t// out\n        /* \"#utility.yul\":3102:3224   */\n    tag_297:\n        /* \"#utility.yul\":3175:3199   */\n      tag_391\n        /* \"#utility.yul\":3193:3198   */\n      dup2\n        /* \"#utility.yul\":3175:3199   */\n      tag_296\n      jump\t// in\n    tag_391:\n        /* \"#utility.yul\":3168:3173   */\n      dup2\n        /* \"#utility.yul\":3165:3200   */\n      eq\n        /* \"#utility.yul\":3155:3218   */\n      tag_392\n      jumpi\n        /* \"#utility.yul\":3214:3215   */\n      0x00\n        /* \"#utility.yul\":3211:3212   */\n      dup1\n        /* \"#utility.yul\":3204:3216   */\n      revert\n        /* \"#utility.yul\":3155:3218   */\n    tag_392:\n        /* \"#utility.yul\":3102:3224   */\n      pop\n      jump\t// out\n        /* \"#utility.yul\":3230:3369   */\n    tag_298:\n        /* \"#utility.yul\":3276:3281   */\n      0x00\n        /* \"#utility.yul\":3314:3320   */\n      dup2\n        /* \"#utility.yul\":3301:3321   */\n      calldataload\n        /* \"#utility.yul\":3292:3321   */\n      swap1\n      pop\n        /* \"#utility.yul\":3330:3363   */\n      tag_394\n        /* \"#utility.yul\":3357:3362   */\n      dup2\n        /* \"#utility.yul\":3330:3363   */\n      tag_297\n      jump\t// in\n    tag_394:\n        /* \"#utility.yul\":3230:3369   */\n      swap3\n      swap2\n      pop\n      pop\n      jump\t// out\n        /* \"#utility.yul\":3375:3849   */\n    tag_22:\n        /* \"#utility.yul\":3443:3449   */\n      0x00\n        /* \"#utility.yul\":3451:3457   */\n      dup1\n        /* \"#utility.yul\":3500:3502   */\n      0x40\n        /* \"#utility.yul\":3488:3497   */\n      dup4\n        /* \"#utility.yul\":3479:3486   */\n      dup6\n        /* \"#utility.yul\":3475:3498   */\n      sub\n        /* \"#utility.yul\":3471:3503   */\n      slt\n        /* \"#utility.yul\":3468:3587   */\n      iszero\n      tag_396\n      jumpi\n        /* \"#utility.yul\":3506:3585   */\n      tag_397\n      tag_283\n      jump\t// in\n    tag_397:\n        /* \"#utility.yul\":3468:3587   */\n    tag_396:\n        /* \"#utility.yul\":3626:3627   */\n      0x00\n        /* \"#utility.yul\":3651:3704   */\n      tag_398\n        /* \"#utility.yul\":3696:3703   */\n      dup6\n        /* \"#utility.yul\":3687:3693   */\n      dup3\n        /* \"#utility.yul\":3676:3685   */\n      dup7\n        /* \"#utility.yul\":3672:3694   */\n      add\n        /* \"#utility.yul\":3651:3704   */\n      tag_295\n      jump\t// in\n    tag_398:\n        /* \"#utility.yul\":3641:3704   */\n      swap3\n      pop\n        /* \"#utility.yul\":3597:3714   */\n      pop\n        /* \"#utility.yul\":3753:3755   */\n      0x20\n        /* \"#utility.yul\":3779:3832   */\n      tag_399\n        /* \"#utility.yul\":3824:3831   */\n      dup6\n        /* \"#utility.yul\":3815:3821   */\n      dup3\n        /* \"#utility.yul\":3804:3813   */\n      dup7\n        /* \"#utility.yul\":3800:3822   */\n      add\n        /* \"#utility.yul\":3779:3832   */\n      tag_298\n      jump\t// in\n    tag_399:\n        /* \"#utility.yul\":3769:3832   */\n      swap2\n      pop\n        /* \"#utility.yul\":3724:3842   */\n      pop\n        /* \"#utility.yul\":3375:3849   */\n      swap3\n      pop\n      swap3\n      swap1\n      pop\n      jump\t// out\n        /* \"#utility.yul\":3855:3945   */\n    tag_299:\n        /* \"#utility.yul\":3889:3896   */\n      0x00\n        /* \"#utility.yul\":3932:3937   */\n      dup2\n        /* \"#utility.yul\":3925:3938   */\n      iszero\n        /* \"#utility.yul\":3918:3939   */\n      iszero\n        /* \"#utility.yul\":3907:3939   */\n      swap1\n      pop\n        /* \"#utility.yul\":3855:3945   */\n      swap2\n      swap1\n      pop\n      jump\t// out\n        /* \"#utility.yul\":3951:4060   */\n    tag_300:\n        /* \"#utility.yul\":4032:4053   */\n      tag_402\n        /* \"#utility.yul\":4047:4052   */\n      dup2\n        /* \"#utility.yul\":4032:4053   */\n      tag_299\n      jump\t// in\n    tag_402:\n        /* \"#utility.yul\":4027:4030   */\n      dup3\n        /* \"#utility.yul\":4020:4054   */\n      mstore\n        /* \"#utility.yul\":3951:4060   */\n      pop\n      pop\n      jump\t// out\n        /* \"#utility.yul\":4066:4276   */\n    tag_25:\n        /* \"#utility.yul\":4153:4157   */\n      0x00\n        /* \"#utility.yul\":4191:4193   */\n      0x20\n        /* \"#utility.yul\":4180:4189   */\n      dup3\n        /* \"#utility.yul\":4176:4194   */\n      add\n        /* \"#utility.yul\":4168:4194   */\n      swap1\n      pop\n        /* \"#utility.yul\":4204:4269   */\n      tag_404\n        /* \"#utility.yul\":4266:4267   */\n      0x00\n        /* \"#utility.yul\":4255:4264   */\n      dup4\n        /* \"#utility.yul\":4251:4268   */\n      add\n        /* \"#utility.yul\":4242:4248   */\n      dup5\n        /* \"#utility.yul\":4204:4269   */\n      tag_300\n      jump\t// in\n    tag_404:\n        /* \"#utility.yul\":4066:4276   */\n      swap3\n      swap2\n      pop\n      pop\n      jump\t// out\n        /* \"#utility.yul\":4282:4611   */\n    tag_28:\n        /* \"#utility.yul\":4341:4347   */\n      0x00\n        /* \"#utility.yul\":4390:4392   */\n      0x20\n        /* \"#utility.yul\":4378:4387   */\n      dup3\n        /* \"#utility.yul\":4369:4376   */\n      dup5\n        /* \"#utility.yul\":4365:4388   */\n      sub\n        /* \"#utility.yul\":4361:4393   */\n      slt\n        /* \"#utility.yul\":4358:4477   */\n      iszero\n      tag_406\n      jumpi\n        /* \"#utility.yul\":4396:4475   */\n      tag_407\n      tag_283\n      jump\t// in\n    tag_407:\n        /* \"#utility.yul\":4358:4477   */\n    tag_406:\n        /* \"#utility.yul\":4516:4517   */\n      0x00\n        /* \"#utility.yul\":4541:4594   */\n      tag_408\n        /* \"#utility.yul\":4586:4593   */\n      dup5\n        /* \"#utility.yul\":4577:4583   */\n      dup3\n        /* \"#utility.yul\":4566:4575   */\n      dup6\n        /* \"#utility.yul\":4562:4584   */\n      add\n        /* \"#utility.yul\":4541:4594   */\n      tag_298\n      jump\t// in\n    tag_408:\n        /* \"#utility.yul\":4531:4594   */\n      swap2\n      pop\n        /* \"#utility.yul\":4487:4604   */\n      pop\n        /* \"#utility.yul\":4282:4611   */\n      swap3\n      swap2\n      pop\n      pop\n      jump\t// out\n        /* \"#utility.yul\":4617:4750   */\n    tag_301:\n        /* \"#utility.yul\":4703:4709   */\n      0x00\n        /* \"#utility.yul\":4737:4742   */\n      dup2\n        /* \"#utility.yul\":4731:4743   */\n      mload\n        /* \"#utility.yul\":4721:4743   */\n      swap1\n      pop\n        /* \"#utility.yul\":4617:4750   */\n      swap2\n      swap1\n      pop\n      jump\t// out\n        /* \"#utility.yul\":4756:4940   */\n    tag_302:\n        /* \"#utility.yul\":4855:4866   */\n      0x00\n        /* \"#utility.yul\":4889:4895   */\n      dup3\n        /* \"#utility.yul\":4884:4887   */\n      dup3\n        /* \"#utility.yul\":4877:4896   */\n      mstore\n        /* \"#utility.yul\":4929:4933   */\n      0x20\n        /* \"#utility.yul\":4924:4927   */\n      dup3\n        /* \"#utility.yul\":4920:4934   */\n      add\n        /* \"#utility.yul\":4905:4934   */\n      swap1\n      pop\n        /* \"#utility.yul\":4756:4940   */\n      swap3\n      swap2\n      pop\n      pop\n      jump\t// out\n        /* \"#utility.yul\":4946:5097   */\n    tag_303:\n        /* \"#utility.yul\":5032:5036   */\n      0x00\n        /* \"#utility.yul\":5055:5058   */\n      dup2\n        /* \"#utility.yul\":5047:5058   */\n      swap1\n      pop\n        /* \"#utility.yul\":5085:5089   */\n      0x20\n        /* \"#utility.yul\":5080:5083   */\n      dup3\n        /* \"#utility.yul\":5076:5090   */\n      add\n        /* \"#utility.yul\":5068:5090   */\n      swap1\n      pop\n        /* \"#utility.yul\":4946:5097   */\n      swap2\n      swap1\n      pop\n      jump\t// out\n        /* \"#utility.yul\":5103:5163   */\n    tag_304:\n        /* \"#utility.yul\":5131:5134   */\n      0x00\n        /* \"#utility.yul\":5152:5157   */\n      dup2\n        /* \"#utility.yul\":5145:5157   */\n      swap1\n      pop\n        /* \"#utility.yul\":5103:5163   */\n      swap2\n      swap1\n      pop\n      jump\t// out\n        /* \"#utility.yul\":5169:5311   */\n    tag_305:\n        /* \"#utility.yul\":5219:5228   */\n      0x00\n        /* \"#utility.yul\":5252:5305   */\n      tag_414\n        /* \"#utility.yul\":5270:5304   */\n      tag_415\n        /* \"#utility.yul\":5279:5303   */\n      tag_416\n        /* \"#utility.yul\":5297:5302   */\n      dup5\n        /* \"#utility.yul\":5279:5303   */\n      tag_285\n      jump\t// in\n    tag_416:\n        /* \"#utility.yul\":5270:5304   */\n      tag_304\n      jump\t// in\n    tag_415:\n        /* \"#utility.yul\":5252:5305   */\n      tag_285\n      jump\t// in\n    tag_414:\n        /* \"#utility.yul\":5239:5305   */\n      swap1\n      pop\n        /* \"#utility.yul\":5169:5311   */\n      swap2\n      swap1\n      pop\n      jump\t// out\n        /* \"#utility.yul\":5317:5443   */\n    tag_306:\n        /* \"#utility.yul\":5367:5376   */\n      0x00\n        /* \"#utility.yul\":5400:5437   */\n      tag_418\n        /* \"#utility.yul\":5431:5436   */\n      dup3\n        /* \"#utility.yul\":5400:5437   */\n      tag_305\n      jump\t// in\n    tag_418:\n        /* \"#utility.yul\":5387:5437   */\n      swap1\n      pop\n        /* \"#utility.yul\":5317:5443   */\n      swap2\n      swap1\n      pop\n      jump\t// out\n        /* \"#utility.yul\":5449:5594   */\n    tag_307:\n        /* \"#utility.yul\":5518:5527   */\n      0x00\n        /* \"#utility.yul\":5551:5588   */\n      tag_420\n        /* \"#utility.yul\":5582:5587   */\n      dup3\n        /* \"#utility.yul\":5551:5588   */\n      tag_306\n      jump\t// in\n    tag_420:\n        /* \"#utility.yul\":5538:5588   */\n      swap1\n      pop\n        /* \"#utility.yul\":5449:5594   */\n      swap2\n      swap1\n      pop\n      jump\t// out\n        /* \"#utility.yul\":5600:5759   */\n    tag_308:\n        /* \"#utility.yul\":5696:5752   */\n      tag_422\n        /* \"#utility.yul\":5746:5751   */\n      dup2\n        /* \"#utility.yul\":5696:5752   */\n      tag_307\n      jump\t// in\n    tag_422:\n        /* \"#utility.yul\":5691:5694   */\n      dup3\n        /* \"#utility.yul\":5684:5753   */\n      mstore\n        /* \"#utility.yul\":5600:5759   */\n      pop\n      pop\n      jump\t// out\n        /* \"#utility.yul\":5765:5982   */\n    tag_309:\n        /* \"#utility.yul\":5853:5863   */\n      0x00\n        /* \"#utility.yul\":5874:5939   */\n      tag_424\n        /* \"#utility.yul\":5935:5938   */\n      dup4\n        /* \"#utility.yul\":5927:5933   */\n      dup4\n        /* \"#utility.yul\":5874:5939   */\n      tag_308\n      jump\t// in\n    tag_424:\n        /* \"#utility.yul\":5971:5975   */\n      0x20\n        /* \"#utility.yul\":5966:5969   */\n      dup4\n        /* \"#utility.yul\":5962:5976   */\n      add\n        /* \"#utility.yul\":5948:5976   */\n      swap1\n      pop\n        /* \"#utility.yul\":5765:5982   */\n      swap3\n      swap2\n      pop\n      pop\n      jump\t// out\n        /* \"#utility.yul\":5988:6120   */\n    tag_310:\n        /* \"#utility.yul\":6077:6081   */\n      0x00\n        /* \"#utility.yul\":6109:6113   */\n      0x20\n        /* \"#utility.yul\":6104:6107   */\n      dup3\n        /* \"#utility.yul\":6100:6114   */\n      add\n        /* \"#utility.yul\":6092:6114   */\n      swap1\n      pop\n        /* \"#utility.yul\":5988:6120   */\n      swap2\n      swap1\n      pop\n      jump\t// out\n        /* \"#utility.yul\":6170:6997   */\n    tag_311:\n        /* \"#utility.yul\":6308:6311   */\n      0x00\n        /* \"#utility.yul\":6337:6410   */\n      tag_427\n        /* \"#utility.yul\":6404:6409   */\n      dup3\n        /* \"#utility.yul\":6337:6410   */\n      tag_301\n      jump\t// in\n    tag_427:\n        /* \"#utility.yul\":6426:6512   */\n      tag_428\n        /* \"#utility.yul\":6505:6511   */\n      dup2\n        /* \"#utility.yul\":6500:6503   */\n      dup6\n        /* \"#utility.yul\":6426:6512   */\n      tag_302\n      jump\t// in\n    tag_428:\n        /* \"#utility.yul\":6419:6512   */\n      swap4\n      pop\n        /* \"#utility.yul\":6536:6611   */\n      tag_429\n        /* \"#utility.yul\":6605:6610   */\n      dup4\n        /* \"#utility.yul\":6536:6611   */\n      tag_303\n      jump\t// in\n    tag_429:\n        /* \"#utility.yul\":6634:6641   */\n      dup1\n        /* \"#utility.yul\":6665:6666   */\n      0x00\n        /* \"#utility.yul\":6650:6972   */\n    tag_430:\n        /* \"#utility.yul\":6675:6681   */\n      dup4\n        /* \"#utility.yul\":6672:6673   */\n      dup2\n        /* \"#utility.yul\":6669:6682   */\n      lt\n        /* \"#utility.yul\":6650:6972   */\n      iszero\n      tag_432\n      jumpi\n        /* \"#utility.yul\":6751:6757   */\n      dup2\n        /* \"#utility.yul\":6745:6758   */\n      mload\n        /* \"#utility.yul\":6778:6860   */\n      tag_433\n        /* \"#utility.yul\":6856:6859   */\n      dup9\n        /* \"#utility.yul\":6841:6854   */\n      dup3\n        /* \"#utility.yul\":6778:6860   */\n      tag_309\n      jump\t// in\n    tag_433:\n        /* \"#utility.yul\":6771:6860   */\n      swap8\n      pop\n        /* \"#utility.yul\":6883:6962   */\n      tag_434\n        /* \"#utility.yul\":6955:6961   */\n      dup4\n        /* \"#utility.yul\":6883:6962   */\n      tag_310\n      jump\t// in\n    tag_434:\n        /* \"#utility.yul\":6873:6962   */\n      swap3\n      pop\n        /* \"#utility.yul\":6710:6972   */\n      pop\n        /* \"#utility.yul\":6697:6698   */\n      0x01\n        /* \"#utility.yul\":6694:6695   */\n      dup2\n        /* \"#utility.yul\":6690:6699   */\n      add\n        /* \"#utility.yul\":6685:6699   */\n      swap1\n      pop\n        /* \"#utility.yul\":6650:6972   */\n      jump(tag_430)\n    tag_432:\n        /* \"#utility.yul\":6654:6668   */\n      pop\n        /* \"#utility.yul\":6988:6991   */\n      dup6\n        /* \"#utility.yul\":6981:6991   */\n      swap4\n      pop\n        /* \"#utility.yul\":6313:6997   */\n      pop\n      pop\n      pop\n        /* \"#utility.yul\":6170:6997   */\n      swap3\n      swap2\n      pop\n      pop\n      jump\t// out\n        /* \"#utility.yul\":7003:7414   */\n    tag_31:\n        /* \"#utility.yul\":7165:7169   */\n      0x00\n        /* \"#utility.yul\":7203:7205   */\n      0x20\n        /* \"#utility.yul\":7192:7201   */\n      dup3\n        /* \"#utility.yul\":7188:7206   */\n      add\n        /* \"#utility.yul\":7180:7206   */\n      swap1\n      pop\n        /* \"#utility.yul\":7252:7261   */\n      dup2\n        /* \"#utility.yul\":7246:7250   */\n      dup2\n        /* \"#utility.yul\":7242:7262   */\n      sub\n        /* \"#utility.yul\":7238:7239   */\n      0x00\n        /* \"#utility.yul\":7227:7236   */\n      dup4\n        /* \"#utility.yul\":7223:7240   */\n      add\n        /* \"#utility.yul\":7216:7263   */\n      mstore\n        /* \"#utility.yul\":7280:7407   */\n      tag_436\n        /* \"#utility.yul\":7402:7406   */\n      dup2\n        /* \"#utility.yul\":7393:7399   */\n      dup5\n        /* \"#utility.yul\":7280:7407   */\n      tag_311\n      jump\t// in\n    tag_436:\n        /* \"#utility.yul\":7272:7407   */\n      swap1\n      pop\n        /* \"#utility.yul\":7003:7414   */\n      swap3\n      swap2\n      pop\n      pop\n      jump\t// out\n        /* \"#utility.yul\":7420:7538   */\n    tag_312:\n        /* \"#utility.yul\":7507:7531   */\n      tag_438\n        /* \"#utility.yul\":7525:7530   */\n      dup2\n        /* \"#utility.yul\":7507:7531   */\n      tag_286\n      jump\t// in\n    tag_438:\n        /* \"#utility.yul\":7502:7505   */\n      dup3\n        /* \"#utility.yul\":7495:7532   */\n      mstore\n        /* \"#utility.yul\":7420:7538   */\n      pop\n      pop\n      jump\t// out\n        /* \"#utility.yul\":7544:7766   */\n    tag_37:\n        /* \"#utility.yul\":7637:7641   */\n      0x00\n        /* \"#utility.yul\":7675:7677   */\n      0x20\n        /* \"#utility.yul\":7664:7673   */\n      dup3\n        /* \"#utility.yul\":7660:7678   */\n      add\n        /* \"#utility.yul\":7652:7678   */\n      swap1\n      pop\n        /* \"#utility.yul\":7688:7759   */\n      tag_440\n        /* \"#utility.yul\":7756:7757   */\n      0x00\n        /* \"#utility.yul\":7745:7754   */\n      dup4\n        /* \"#utility.yul\":7741:7758   */\n      add\n        /* \"#utility.yul\":7732:7738   */\n      dup5\n        /* \"#utility.yul\":7688:7759   */\n      tag_312\n      jump\t// in\n    tag_440:\n        /* \"#utility.yul\":7544:7766   */\n      swap3\n      swap2\n      pop\n      pop\n      jump\t// out\n        /* \"#utility.yul\":7772:8139   */\n    tag_43:\n        /* \"#utility.yul\":7850:7856   */\n      0x00\n        /* \"#utility.yul\":7899:7901   */\n      0x20\n        /* \"#utility.yul\":7887:7896   */\n      dup3\n        /* \"#utility.yul\":7878:7885   */\n      dup5\n        /* \"#utility.yul\":7874:7897   */\n      sub\n        /* \"#utility.yul\":7870:7902   */\n      slt\n        /* \"#utility.yul\":7867:7986   */\n      iszero\n      tag_442\n      jumpi\n        /* \"#utility.yul\":7905:7984   */\n      tag_443\n      tag_283\n      jump\t// in\n    tag_443:\n        /* \"#utility.yul\":7867:7986   */\n    tag_442:\n        /* \"#utility.yul\":8025:8026   */\n      0x00\n        /* \"#utility.yul\":8050:8122   */\n      tag_444\n        /* \"#utility.yul\":8114:8121   */\n      dup5\n        /* \"#utility.yul\":8105:8111   */\n      dup3\n        /* \"#utility.yul\":8094:8103   */\n      dup6\n        /* \"#utility.yul\":8090:8112   */\n      add\n        /* \"#utility.yul\":8050:8122   */\n      tag_289\n      jump\t// in\n    tag_444:\n        /* \"#utility.yul\":8040:8122   */\n      swap2\n      pop\n        /* \"#utility.yul\":7996:8132   */\n      pop\n        /* \"#utility.yul\":7772:8139   */\n      swap3\n      swap2\n      pop\n      pop\n      jump\t// out\n        /* \"#utility.yul\":8145:8259   */\n    tag_313:\n        /* \"#utility.yul\":8212:8218   */\n      0x00\n        /* \"#utility.yul\":8246:8251   */\n      dup2\n        /* \"#utility.yul\":8240:8252   */\n      mload\n        /* \"#utility.yul\":8230:8252   */\n      swap1\n      pop\n        /* \"#utility.yul\":8145:8259   */\n      swap2\n      swap1\n      pop\n      jump\t// out\n        /* \"#utility.yul\":8265:8449   */\n    tag_314:\n        /* \"#utility.yul\":8364:8375   */\n      0x00\n        /* \"#utility.yul\":8398:8404   */\n      dup3\n        /* \"#utility.yul\":8393:8396   */\n      dup3\n        /* \"#utility.yul\":8386:8405   */\n      mstore\n        /* \"#utility.yul\":8438:8442   */\n      0x20\n        /* \"#utility.yul\":8433:8436   */\n      dup3\n        /* \"#utility.yul\":8429:8443   */\n      add\n        /* \"#utility.yul\":8414:8443   */\n      swap1\n      pop\n        /* \"#utility.yul\":8265:8449   */\n      swap3\n      swap2\n      pop\n      pop\n      jump\t// out\n        /* \"#utility.yul\":8455:8587   */\n    tag_315:\n        /* \"#utility.yul\":8522:8526   */\n      0x00\n        /* \"#utility.yul\":8545:8548   */\n      dup2\n        /* \"#utility.yul\":8537:8548   */\n      swap1\n      pop\n        /* \"#utility.yul\":8575:8579   */\n      0x20\n        /* \"#utility.yul\":8570:8573   */\n      dup3\n        /* \"#utility.yul\":8566:8580   */\n      add\n        /* \"#utility.yul\":8558:8580   */\n      swap1\n      pop\n        /* \"#utility.yul\":8455:8587   */\n      swap2\n      swap1\n      pop\n      jump\t// out\n        /* \"#utility.yul\":8593:8701   */\n    tag_316:\n        /* \"#utility.yul\":8670:8694   */\n      tag_449\n        /* \"#utility.yul\":8688:8693   */\n      dup2\n        /* \"#utility.yul\":8670:8694   */\n      tag_296\n      jump\t// in\n    tag_449:\n        /* \"#utility.yul\":8665:8668   */\n      dup3\n        /* \"#utility.yul\":8658:8695   */\n      mstore\n        /* \"#utility.yul\":8593:8701   */\n      pop\n      pop\n      jump\t// out\n        /* \"#utility.yul\":8707:8886   */\n    tag_317:\n        /* \"#utility.yul\":8776:8786   */\n      0x00\n        /* \"#utility.yul\":8797:8843   */\n      tag_451\n        /* \"#utility.yul\":8839:8842   */\n      dup4\n        /* \"#utility.yul\":8831:8837   */\n      dup4\n        /* \"#utility.yul\":8797:8843   */\n      tag_316\n      jump\t// in\n    tag_451:\n        /* \"#utility.yul\":8875:8879   */\n      0x20\n        /* \"#utility.yul\":8870:8873   */\n      dup4\n        /* \"#utility.yul\":8866:8880   */\n      add\n        /* \"#utility.yul\":8852:8880   */\n      swap1\n      pop\n        /* \"#utility.yul\":8707:8886   */\n      swap3\n      swap2\n      pop\n      pop\n      jump\t// out\n        /* \"#utility.yul\":8892:9005   */\n    tag_318:\n        /* \"#utility.yul\":8962:8966   */\n      0x00\n        /* \"#utility.yul\":8994:8998   */\n      0x20\n        /* \"#utility.yul\":8989:8992   */\n      dup3\n        /* \"#utility.yul\":8985:8999   */\n      add\n        /* \"#utility.yul\":8977:8999   */\n      swap1\n      pop\n        /* \"#utility.yul\":8892:9005   */\n      swap2\n      swap1\n      pop\n      jump\t// out\n        /* \"#utility.yul\":9041:9773   */\n    tag_319:\n        /* \"#utility.yul\":9160:9163   */\n      0x00\n        /* \"#utility.yul\":9189:9243   */\n      tag_454\n        /* \"#utility.yul\":9237:9242   */\n      dup3\n        /* \"#utility.yul\":9189:9243   */\n      tag_313\n      jump\t// in\n    tag_454:\n        /* \"#utility.yul\":9259:9345   */\n      tag_455\n        /* \"#utility.yul\":9338:9344   */\n      dup2\n        /* \"#utility.yul\":9333:9336   */\n      dup6\n        /* \"#utility.yul\":9259:9345   */\n      tag_314\n      jump\t// in\n    tag_455:\n        /* \"#utility.yul\":9252:9345   */\n      swap4\n      pop\n        /* \"#utility.yul\":9369:9425   */\n      tag_456\n        /* \"#utility.yul\":9419:9424   */\n      dup4\n        /* \"#utility.yul\":9369:9425   */\n      tag_315\n      jump\t// in\n    tag_456:\n        /* \"#utility.yul\":9448:9455   */\n      dup1\n        /* \"#utility.yul\":9479:9480   */\n      0x00\n        /* \"#utility.yul\":9464:9748   */\n    tag_457:\n        /* \"#utility.yul\":9489:9495   */\n      dup4\n        /* \"#utility.yul\":9486:9487   */\n      dup2\n        /* \"#utility.yul\":9483:9496   */\n      lt\n        /* \"#utility.yul\":9464:9748   */\n      iszero\n      tag_459\n      jumpi\n        /* \"#utility.yul\":9565:9571   */\n      dup2\n        /* \"#utility.yul\":9559:9572   */\n      mload\n        /* \"#utility.yul\":9592:9655   */\n      tag_460\n        /* \"#utility.yul\":9651:9654   */\n      dup9\n        /* \"#utility.yul\":9636:9649   */\n      dup3\n        /* \"#utility.yul\":9592:9655   */\n      tag_317\n      jump\t// in\n    tag_460:\n        /* \"#utility.yul\":9585:9655   */\n      swap8\n      pop\n        /* \"#utility.yul\":9678:9738   */\n      tag_461\n        /* \"#utility.yul\":9731:9737   */\n      dup4\n        /* \"#utility.yul\":9678:9738   */\n      tag_318\n      jump\t// in\n    tag_461:\n        /* \"#utility.yul\":9668:9738   */\n      swap3\n      pop\n        /* \"#utility.yul\":9524:9748   */\n      pop\n        /* \"#utility.yul\":9511:9512   */\n      0x01\n        /* \"#utility.yul\":9508:9509   */\n      dup2\n        /* \"#utility.yul\":9504:9513   */\n      add\n        /* \"#utility.yul\":9499:9513   */\n      swap1\n      pop\n        /* \"#utility.yul\":9464:9748   */\n      jump(tag_457)\n    tag_459:\n        /* \"#utility.yul\":9468:9482   */\n      pop\n        /* \"#utility.yul\":9764:9767   */\n      dup6\n        /* \"#utility.yul\":9757:9767   */\n      swap4\n      pop\n        /* \"#utility.yul\":9165:9773   */\n      pop\n      pop\n      pop\n        /* \"#utility.yul\":9041:9773   */\n      swap3\n      swap2\n      pop\n      pop\n      jump\t// out\n        /* \"#utility.yul\":9779:10152   */\n    tag_49:\n        /* \"#utility.yul\":9922:9926   */\n      0x00\n        /* \"#utility.yul\":9960:9962   */\n      0x20\n        /* \"#utility.yul\":9949:9958   */\n      dup3\n        /* \"#utility.yul\":9945:9963   */\n      add\n        /* \"#utility.yul\":9937:9963   */\n      swap1\n      pop\n        /* \"#utility.yul\":10009:10018   */\n      dup2\n        /* \"#utility.yul\":10003:10007   */\n      dup2\n        /* \"#utility.yul\":9999:10019   */\n      sub\n        /* \"#utility.yul\":9995:9996   */\n      0x00\n        /* \"#utility.yul\":9984:9993   */\n      dup4\n        /* \"#utility.yul\":9980:9997   */\n      add\n        /* \"#utility.yul\":9973:10020   */\n      mstore\n        /* \"#utility.yul\":10037:10145   */\n      tag_463\n        /* \"#utility.yul\":10140:10144   */\n      dup2\n        /* \"#utility.yul\":10131:10137   */\n      dup5\n        /* \"#utility.yul\":10037:10145   */\n      tag_319\n      jump\t// in\n    tag_463:\n        /* \"#utility.yul\":10029:10145   */\n      swap1\n      pop\n        /* \"#utility.yul\":9779:10152   */\n      swap3\n      swap2\n      pop\n      pop\n      jump\t// out\n        /* \"#utility.yul\":10158:10487   */\n    tag_57:\n        /* \"#utility.yul\":10217:10223   */\n      0x00\n        /* \"#utility.yul\":10266:10268   */\n      0x20\n        /* \"#utility.yul\":10254:10263   */\n      dup3\n        /* \"#utility.yul\":10245:10252   */\n      dup5\n        /* \"#utility.yul\":10241:10264   */\n      sub\n        /* \"#utility.yul\":10237:10269   */\n      slt\n        /* \"#utility.yul\":10234:10353   */\n      iszero\n      tag_465\n      jumpi\n        /* \"#utility.yul\":10272:10351   */\n      tag_466\n      tag_283\n      jump\t// in\n    tag_466:\n        /* \"#utility.yul\":10234:10353   */\n    tag_465:\n        /* \"#utility.yul\":10392:10393   */\n      0x00\n        /* \"#utility.yul\":10417:10470   */\n      tag_467\n        /* \"#utility.yul\":10462:10469   */\n      dup5\n        /* \"#utility.yul\":10453:10459   */\n      dup3\n        /* \"#utility.yul\":10442:10451   */\n      dup6\n        /* \"#utility.yul\":10438:10460   */\n      add\n        /* \"#utility.yul\":10417:10470   */\n      tag_295\n      jump\t// in\n    tag_467:\n        /* \"#utility.yul\":10407:10470   */\n      swap2\n      pop\n        /* \"#utility.yul\":10363:10480   */\n      pop\n        /* \"#utility.yul\":10158:10487   */\n      swap3\n      swap2\n      pop\n      pop\n      jump\t// out\n        /* \"#utility.yul\":10493:10662   */\n    tag_320:\n        /* \"#utility.yul\":10577:10588   */\n      0x00\n        /* \"#utility.yul\":10611:10617   */\n      dup3\n        /* \"#utility.yul\":10606:10609   */\n      dup3\n        /* \"#utility.yul\":10599:10618   */\n      mstore\n        /* \"#utility.yul\":10651:10655   */\n      0x20\n        /* \"#utility.yul\":10646:10649   */\n      dup3\n        /* \"#utility.yul\":10642:10656   */\n      add\n        /* \"#utility.yul\":10627:10656   */\n      swap1\n      pop\n        /* \"#utility.yul\":10493:10662   */\n      swap3\n      swap2\n      pop\n      pop\n      jump\t// out\n        /* \"#utility.yul\":10668:10849   */\n    tag_321:\n        /* \"#utility.yul\":10808:10841   */\n      0x696e76616c696420617267756d656e74202d207a65726f206164647265737300\n        /* \"#utility.yul\":10804:10805   */\n      0x00\n        /* \"#utility.yul\":10796:10802   */\n      dup3\n        /* \"#utility.yul\":10792:10806   */\n      add\n        /* \"#utility.yul\":10785:10842   */\n      mstore\n        /* \"#utility.yul\":10668:10849   */\n      pop\n      jump\t// out\n        /* \"#utility.yul\":10855:11221   */\n    tag_322:\n        /* \"#utility.yul\":10997:11000   */\n      0x00\n        /* \"#utility.yul\":11018:11085   */\n      tag_471\n        /* \"#utility.yul\":11082:11084   */\n      0x1f\n        /* \"#utility.yul\":11077:11080   */\n      dup4\n        /* \"#utility.yul\":11018:11085   */\n      tag_320\n      jump\t// in\n    tag_471:\n        /* \"#utility.yul\":11011:11085   */\n      swap2\n      pop\n        /* \"#utility.yul\":11094:11187   */\n      tag_472\n        /* \"#utility.yul\":11183:11186   */\n      dup3\n        /* \"#utility.yul\":11094:11187   */\n      tag_321\n      jump\t// in\n    tag_472:\n        /* \"#utility.yul\":11212:11214   */\n      0x20\n        /* \"#utility.yul\":11207:11210   */\n      dup3\n        /* \"#utility.yul\":11203:11215   */\n      add\n        /* \"#utility.yul\":11196:11215   */\n      swap1\n      pop\n        /* \"#utility.yul\":10855:11221   */\n      swap2\n      swap1\n      pop\n      jump\t// out\n        /* \"#utility.yul\":11227:11646   */\n    tag_69:\n        /* \"#utility.yul\":11393:11397   */\n      0x00\n        /* \"#utility.yul\":11431:11433   */\n      0x20\n        /* \"#utility.yul\":11420:11429   */\n      dup3\n        /* \"#utility.yul\":11416:11434   */\n      add\n        /* \"#utility.yul\":11408:11434   */\n      swap1\n      pop\n        /* \"#utility.yul\":11480:11489   */\n      dup2\n        /* \"#utility.yul\":11474:11478   */\n      dup2\n        /* \"#utility.yul\":11470:11490   */\n      sub\n        /* \"#utility.yul\":11466:11467   */\n      0x00\n        /* \"#utility.yul\":11455:11464   */\n      dup4\n        /* \"#utility.yul\":11451:11468   */\n      add\n        /* \"#utility.yul\":11444:11491   */\n      mstore\n        /* \"#utility.yul\":11508:11639   */\n      tag_474\n        /* \"#utility.yul\":11634:11638   */\n      dup2\n        /* \"#utility.yul\":11508:11639   */\n      tag_322\n      jump\t// in\n    tag_474:\n        /* \"#utility.yul\":11500:11639   */\n      swap1\n      pop\n        /* \"#utility.yul\":11227:11646   */\n      swap2\n      swap1\n      pop\n      jump\t// out\n        /* \"#utility.yul\":11652:11822   */\n    tag_323:\n        /* \"#utility.yul\":11792:11814   */\n      0x4e4f542061207472757374656420697373756572000000000000000000000000\n        /* \"#utility.yul\":11788:11789   */\n      0x00\n        /* \"#utility.yul\":11780:11786   */\n      dup3\n        /* \"#utility.yul\":11776:11790   */\n      add\n        /* \"#utility.yul\":11769:11815   */\n      mstore\n        /* \"#utility.yul\":11652:11822   */\n      pop\n      jump\t// out\n        /* \"#utility.yul\":11828:12194   */\n    tag_324:\n        /* \"#utility.yul\":11970:11973   */\n      0x00\n        /* \"#utility.yul\":11991:12058   */\n      tag_477\n        /* \"#utility.yul\":12055:12057   */\n      0x14\n        /* \"#utility.yul\":12050:12053   */\n      dup4\n        /* \"#utility.yul\":11991:12058   */\n      tag_320\n      jump\t// in\n    tag_477:\n        /* \"#utility.yul\":11984:12058   */\n      swap2\n      pop\n        /* \"#utility.yul\":12067:12160   */\n      tag_478\n        /* \"#utility.yul\":12156:12159   */\n      dup3\n        /* \"#utility.yul\":12067:12160   */\n      tag_323\n      jump\t// in\n    tag_478:\n        /* \"#utility.yul\":12185:12187   */\n      0x20\n        /* \"#utility.yul\":12180:12183   */\n      dup3\n        /* \"#utility.yul\":12176:12188   */\n      add\n        /* \"#utility.yul\":12169:12188   */\n      swap1\n      pop\n        /* \"#utility.yul\":11828:12194   */\n      swap2\n      swap1\n      pop\n      jump\t// out\n        /* \"#utility.yul\":12200:12619   */\n    tag_72:\n        /* \"#utility.yul\":12366:12370   */\n      0x00\n        /* \"#utility.yul\":12404:12406   */\n      0x20\n        /* \"#utility.yul\":12393:12402   */\n      dup3\n        /* \"#utility.yul\":12389:12407   */\n      add\n        /* \"#utility.yul\":12381:12407   */\n      swap1\n      pop\n        /* \"#utility.yul\":12453:12462   */\n      dup2\n        /* \"#utility.yul\":12447:12451   */\n      dup2\n        /* \"#utility.yul\":12443:12463   */\n      sub\n        /* \"#utility.yul\":12439:12440   */\n      0x00\n        /* \"#utility.yul\":12428:12437   */\n      dup4\n        /* \"#utility.yul\":12424:12441   */\n      add\n        /* \"#utility.yul\":12417:12464   */\n      mstore\n        /* \"#utility.yul\":12481:12612   */\n      tag_480\n        /* \"#utility.yul\":12607:12611   */\n      dup2\n        /* \"#utility.yul\":12481:12612   */\n      tag_324\n      jump\t// in\n    tag_480:\n        /* \"#utility.yul\":12473:12612   */\n      swap1\n      pop\n        /* \"#utility.yul\":12200:12619   */\n      swap2\n      swap1\n      pop\n      jump\t// out\n        /* \"#utility.yul\":12625:12849   */\n    tag_325:\n        /* \"#utility.yul\":12765:12799   */\n      0x63616e6e6f742068617665206d6f7265207468616e20313520636c61696d2074\n        /* \"#utility.yul\":12761:12762   */\n      0x00\n        /* \"#utility.yul\":12753:12759   */\n      dup3\n        /* \"#utility.yul\":12749:12763   */\n      add\n        /* \"#utility.yul\":12742:12800   */\n      mstore\n        /* \"#utility.yul\":12834:12841   */\n      0x6f70696373000000000000000000000000000000000000000000000000000000\n        /* \"#utility.yul\":12829:12831   */\n      0x20\n        /* \"#utility.yul\":12821:12827   */\n      dup3\n        /* \"#utility.yul\":12817:12832   */\n      add\n        /* \"#utility.yul\":12810:12842   */\n      mstore\n        /* \"#utility.yul\":12625:12849   */\n      pop\n      jump\t// out\n        /* \"#utility.yul\":12855:13221   */\n    tag_326:\n        /* \"#utility.yul\":12997:13000   */\n      0x00\n        /* \"#utility.yul\":13018:13085   */\n      tag_483\n        /* \"#utility.yul\":13082:13084   */\n      0x25\n        /* \"#utility.yul\":13077:13080   */\n      dup4\n        /* \"#utility.yul\":13018:13085   */\n      tag_320\n      jump\t// in\n    tag_483:\n        /* \"#utility.yul\":13011:13085   */\n      swap2\n      pop\n        /* \"#utility.yul\":13094:13187   */\n      tag_484\n        /* \"#utility.yul\":13183:13186   */\n      dup3\n        /* \"#utility.yul\":13094:13187   */\n      tag_325\n      jump\t// in\n    tag_484:\n        /* \"#utility.yul\":13212:13214   */\n      0x40\n        /* \"#utility.yul\":13207:13210   */\n      dup3\n        /* \"#utility.yul\":13203:13215   */\n      add\n        /* \"#utility.yul\":13196:13215   */\n      swap1\n      pop\n        /* \"#utility.yul\":12855:13221   */\n      swap2\n      swap1\n      pop\n      jump\t// out\n        /* \"#utility.yul\":13227:13646   */\n    tag_75:\n        /* \"#utility.yul\":13393:13397   */\n      0x00\n        /* \"#utility.yul\":13431:13433   */\n      0x20\n        /* \"#utility.yul\":13420:13429   */\n      dup3\n        /* \"#utility.yul\":13416:13434   */\n      add\n        /* \"#utility.yul\":13408:13434   */\n      swap1\n      pop\n        /* \"#utility.yul\":13480:13489   */\n      dup2\n        /* \"#utility.yul\":13474:13478   */\n      dup2\n        /* \"#utility.yul\":13470:13490   */\n      sub\n        /* \"#utility.yul\":13466:13467   */\n      0x00\n        /* \"#utility.yul\":13455:13464   */\n      dup4\n        /* \"#utility.yul\":13451:13468   */\n      add\n        /* \"#utility.yul\":13444:13491   */\n      mstore\n        /* \"#utility.yul\":13508:13639   */\n      tag_486\n        /* \"#utility.yul\":13634:13638   */\n      dup2\n        /* \"#utility.yul\":13508:13639   */\n      tag_326\n      jump\t// in\n    tag_486:\n        /* \"#utility.yul\":13500:13639   */\n      swap1\n      pop\n        /* \"#utility.yul\":13227:13646   */\n      swap2\n      swap1\n      pop\n      jump\t// out\n        /* \"#utility.yul\":13652:13830   */\n    tag_327:\n        /* \"#utility.yul\":13792:13822   */\n      0x636c61696d20746f706963732063616e6e6f7420626520656d70747900000000\n        /* \"#utility.yul\":13788:13789   */\n      0x00\n        /* \"#utility.yul\":13780:13786   */\n      dup3\n        /* \"#utility.yul\":13776:13790   */\n      add\n        /* \"#utility.yul\":13769:13823   */\n      mstore\n        /* \"#utility.yul\":13652:13830   */\n      pop\n      jump\t// out\n        /* \"#utility.yul\":13836:14202   */\n    tag_328:\n        /* \"#utility.yul\":13978:13981   */\n      0x00\n        /* \"#utility.yul\":13999:14066   */\n      tag_489\n        /* \"#utility.yul\":14063:14065   */\n      0x1c\n        /* \"#utility.yul\":14058:14061   */\n      dup4\n        /* \"#utility.yul\":13999:14066   */\n      tag_320\n      jump\t// in\n    tag_489:\n        /* \"#utility.yul\":13992:14066   */\n      swap2\n      pop\n        /* \"#utility.yul\":14075:14168   */\n      tag_490\n        /* \"#utility.yul\":14164:14167   */\n      dup3\n        /* \"#utility.yul\":14075:14168   */\n      tag_327\n      jump\t// in\n    tag_490:\n        /* \"#utility.yul\":14193:14195   */\n      0x20\n        /* \"#utility.yul\":14188:14191   */\n      dup3\n        /* \"#utility.yul\":14184:14196   */\n      add\n        /* \"#utility.yul\":14177:14196   */\n      swap1\n      pop\n        /* \"#utility.yul\":13836:14202   */\n      swap2\n      swap1\n      pop\n      jump\t// out\n        /* \"#utility.yul\":14208:14627   */\n    tag_78:\n        /* \"#utility.yul\":14374:14378   */\n      0x00\n        /* \"#utility.yul\":14412:14414   */\n      0x20\n        /* \"#utility.yul\":14401:14410   */\n      dup3\n        /* \"#utility.yul\":14397:14415   */\n      add\n        /* \"#utility.yul\":14389:14415   */\n      swap1\n      pop\n        /* \"#utility.yul\":14461:14470   */\n      dup2\n        /* \"#utility.yul\":14455:14459   */\n      dup2\n        /* \"#utility.yul\":14451:14471   */\n      sub\n        /* \"#utility.yul\":14447:14448   */\n      0x00\n        /* \"#utility.yul\":14436:14445   */\n      dup4\n        /* \"#utility.yul\":14432:14449   */\n      add\n        /* \"#utility.yul\":14425:14472   */\n      mstore\n        /* \"#utility.yul\":14489:14620   */\n      tag_492\n        /* \"#utility.yul\":14615:14619   */\n      dup2\n        /* \"#utility.yul\":14489:14620   */\n      tag_328\n      jump\t// in\n    tag_492:\n        /* \"#utility.yul\":14481:14620   */\n      swap1\n      pop\n        /* \"#utility.yul\":14208:14627   */\n      swap2\n      swap1\n      pop\n      jump\t// out\n        /* \"#utility.yul\":14633:14813   */\n    tag_84:\n        /* \"#utility.yul\":14681:14758   */\n      0x4e487b7100000000000000000000000000000000000000000000000000000000\n        /* \"#utility.yul\":14678:14679   */\n      0x00\n        /* \"#utility.yul\":14671:14759   */\n      mstore\n        /* \"#utility.yul\":14778:14782   */\n      0x32\n        /* \"#utility.yul\":14775:14776   */\n      0x04\n        /* \"#utility.yul\":14768:14783   */\n      mstore\n        /* \"#utility.yul\":14802:14806   */\n      0x24\n        /* \"#utility.yul\":14799:14800   */\n      0x00\n        /* \"#utility.yul\":14792:14807   */\n      revert\n        /* \"#utility.yul\":14819:14999   */\n    tag_329:\n        /* \"#utility.yul\":14867:14944   */\n      0x4e487b7100000000000000000000000000000000000000000000000000000000\n        /* \"#utility.yul\":14864:14865   */\n      0x00\n        /* \"#utility.yul\":14857:14945   */\n      mstore\n        /* \"#utility.yul\":14964:14968   */\n      0x11\n        /* \"#utility.yul\":14961:14962   */\n      0x04\n        /* \"#utility.yul\":14954:14969   */\n      mstore\n        /* \"#utility.yul\":14988:14992   */\n      0x24\n        /* \"#utility.yul\":14985:14986   */\n      0x00\n        /* \"#utility.yul\":14978:14993   */\n      revert\n        /* \"#utility.yul\":15005:15199   */\n    tag_94:\n        /* \"#utility.yul\":15045:15049   */\n      0x00\n        /* \"#utility.yul\":15065:15085   */\n      tag_496\n        /* \"#utility.yul\":15083:15084   */\n      dup3\n        /* \"#utility.yul\":15065:15085   */\n      tag_296\n      jump\t// in\n    tag_496:\n        /* \"#utility.yul\":15060:15085   */\n      swap2\n      pop\n        /* \"#utility.yul\":15099:15119   */\n      tag_497\n        /* \"#utility.yul\":15117:15118   */\n      dup4\n        /* \"#utility.yul\":15099:15119   */\n      tag_296\n      jump\t// in\n    tag_497:\n        /* \"#utility.yul\":15094:15119   */\n      swap3\n      pop\n        /* \"#utility.yul\":15143:15144   */\n      dup3\n        /* \"#utility.yul\":15140:15141   */\n      dup3\n        /* \"#utility.yul\":15136:15145   */\n      sub\n        /* \"#utility.yul\":15128:15145   */\n      swap1\n      pop\n        /* \"#utility.yul\":15167:15168   */\n      dup2\n        /* \"#utility.yul\":15161:15165   */\n      dup2\n        /* \"#utility.yul\":15158:15169   */\n      gt\n        /* \"#utility.yul\":15155:15192   */\n      iszero\n      tag_498\n      jumpi\n        /* \"#utility.yul\":15172:15190   */\n      tag_499\n      tag_329\n      jump\t// in\n    tag_499:\n        /* \"#utility.yul\":15155:15192   */\n    tag_498:\n        /* \"#utility.yul\":15005:15199   */\n      swap3\n      swap2\n      pop\n      pop\n      jump\t// out\n        /* \"#utility.yul\":15205:15385   */\n    tag_103:\n        /* \"#utility.yul\":15253:15330   */\n      0x4e487b7100000000000000000000000000000000000000000000000000000000\n        /* \"#utility.yul\":15250:15251   */\n      0x00\n        /* \"#utility.yul\":15243:15331   */\n      mstore\n        /* \"#utility.yul\":15350:15354   */\n      0x31\n        /* \"#utility.yul\":15347:15348   */\n      0x04\n        /* \"#utility.yul\":15340:15355   */\n      mstore\n        /* \"#utility.yul\":15374:15378   */\n      0x24\n        /* \"#utility.yul\":15371:15372   */\n      0x00\n        /* \"#utility.yul\":15364:15379   */\n      revert\n        /* \"#utility.yul\":15391:15624   */\n    tag_106:\n        /* \"#utility.yul\":15430:15433   */\n      0x00\n        /* \"#utility.yul\":15453:15477   */\n      tag_502\n        /* \"#utility.yul\":15471:15476   */\n      dup3\n        /* \"#utility.yul\":15453:15477   */\n      tag_296\n      jump\t// in\n    tag_502:\n        /* \"#utility.yul\":15444:15477   */\n      swap2\n      pop\n        /* \"#utility.yul\":15499:15565   */\n      0xffffffffffffffffffffffffffffffffffffffffffffffffffffffffffffffff\n        /* \"#utility.yul\":15492:15497   */\n      dup3\n        /* \"#utility.yul\":15489:15566   */\n      sub\n        /* \"#utility.yul\":15486:15589   */\n      tag_503\n      jumpi\n        /* \"#utility.yul\":15569:15587   */\n      tag_504\n      tag_329\n      jump\t// in\n    tag_504:\n        /* \"#utility.yul\":15486:15589   */\n    tag_503:\n        /* \"#utility.yul\":15616:15617   */\n      0x01\n        /* \"#utility.yul\":15609:15614   */\n      dup3\n        /* \"#utility.yul\":15605:15618   */\n      add\n        /* \"#utility.yul\":15598:15618   */\n      swap1\n      pop\n        /* \"#utility.yul\":15391:15624   */\n      swap2\n      swap1\n      pop\n      jump\t// out\n        /* \"#utility.yul\":15630:15747   */\n    tag_330:\n        /* \"#utility.yul\":15739:15740   */\n      0x00\n        /* \"#utility.yul\":15736:15737   */\n      dup1\n        /* \"#utility.yul\":15729:15741   */\n      revert\n        /* \"#utility.yul\":15753:15851   */\n    tag_331:\n        /* \"#utility.yul\":15837:15843   */\n      dup3\n        /* \"#utility.yul\":15832:15835   */\n      dup2\n        /* \"#utility.yul\":15827:15830   */\n      dup4\n        /* \"#utility.yul\":15814:15844   */\n      calldatacopy\n        /* \"#utility.yul\":15753:15851   */\n      pop\n      pop\n      pop\n      jump\t// out\n        /* \"#utility.yul\":15887:16424   */\n    tag_332:\n        /* \"#utility.yul\":16015:16018   */\n      0x00\n        /* \"#utility.yul\":16036:16122   */\n      tag_508\n        /* \"#utility.yul\":16115:16121   */\n      dup4\n        /* \"#utility.yul\":16110:16113   */\n      dup6\n        /* \"#utility.yul\":16036:16122   */\n      tag_314\n      jump\t// in\n    tag_508:\n        /* \"#utility.yul\":16029:16122   */\n      swap4\n      pop\n        /* \"#utility.yul\":16146:16212   */\n      0x07ffffffffffffffffffffffffffffffffffffffffffffffffffffffffffffff\n        /* \"#utility.yul\":16138:16144   */\n      dup4\n        /* \"#utility.yul\":16135:16213   */\n      gt\n        /* \"#utility.yul\":16132:16297   */\n      iszero\n      tag_509\n      jumpi\n        /* \"#utility.yul\":16216:16295   */\n      tag_510\n      tag_330\n      jump\t// in\n    tag_510:\n        /* \"#utility.yul\":16132:16297   */\n    tag_509:\n        /* \"#utility.yul\":16328:16332   */\n      0x20\n        /* \"#utility.yul\":16320:16326   */\n      dup4\n        /* \"#utility.yul\":16316:16333   */\n      mul\n        /* \"#utility.yul\":16306:16333   */\n      swap3\n      pop\n        /* \"#utility.yul\":16343:16386   */\n      tag_511\n        /* \"#utility.yul\":16379:16385   */\n      dup4\n        /* \"#utility.yul\":16374:16377   */\n      dup6\n        /* \"#utility.yul\":16367:16372   */\n      dup5\n        /* \"#utility.yul\":16343:16386   */\n      tag_331\n      jump\t// in\n    tag_511:\n        /* \"#utility.yul\":16411:16417   */\n      dup3\n        /* \"#utility.yul\":16406:16409   */\n      dup5\n        /* \"#utility.yul\":16402:16418   */\n      add\n        /* \"#utility.yul\":16395:16418   */\n      swap1\n      pop\n        /* \"#utility.yul\":15887:16424   */\n      swap4\n      swap3\n      pop\n      pop\n      pop\n      jump\t// out\n        /* \"#utility.yul\":16430:16823   */\n    tag_118:\n        /* \"#utility.yul\":16583:16587   */\n      0x00\n        /* \"#utility.yul\":16621:16623   */\n      0x20\n        /* \"#utility.yul\":16610:16619   */\n      dup3\n        /* \"#utility.yul\":16606:16624   */\n      add\n        /* \"#utility.yul\":16598:16624   */\n      swap1\n      pop\n        /* \"#utility.yul\":16670:16679   */\n      dup2\n        /* \"#utility.yul\":16664:16668   */\n      dup2\n        /* \"#utility.yul\":16660:16680   */\n      sub\n        /* \"#utility.yul\":16656:16657   */\n      0x00\n        /* \"#utility.yul\":16645:16654   */\n      dup4\n        /* \"#utility.yul\":16641:16658   */\n      add\n        /* \"#utility.yul\":16634:16681   */\n      mstore\n        /* \"#utility.yul\":16698:16816   */\n      tag_513\n        /* \"#utility.yul\":16811:16815   */\n      dup2\n        /* \"#utility.yul\":16802:16808   */\n      dup5\n        /* \"#utility.yul\":16794:16800   */\n      dup7\n        /* \"#utility.yul\":16698:16816   */\n      tag_332\n      jump\t// in\n    tag_513:\n        /* \"#utility.yul\":16690:16816   */\n      swap1\n      pop\n        /* \"#utility.yul\":16430:16823   */\n      swap4\n      swap3\n      pop\n      pop\n      pop\n      jump\t// out\n        /* \"#utility.yul\":16829:17008   */\n    tag_333:\n        /* \"#utility.yul\":16969:17000   */\n      0x747275737465642049737375657220616c726561647920657869737473000000\n        /* \"#utility.yul\":16965:16966   */\n      0x00\n        /* \"#utility.yul\":16957:16963   */\n      dup3\n        /* \"#utility.yul\":16953:16967   */\n      add\n        /* \"#utility.yul\":16946:17001   */\n      mstore\n        /* \"#utility.yul\":16829:17008   */\n      pop\n      jump\t// out\n        /* \"#utility.yul\":17014:17380   */\n    tag_334:\n        /* \"#utility.yul\":17156:17159   */\n      0x00\n        /* \"#utility.yul\":17177:17244   */\n      tag_516\n        /* \"#utility.yul\":17241:17243   */\n      0x1d\n        /* \"#utility.yul\":17236:17239   */\n      dup4\n        /* \"#utility.yul\":17177:17244   */\n      tag_320\n      jump\t// in\n    tag_516:\n        /* \"#utility.yul\":17170:17244   */\n      swap2\n      pop\n        /* \"#utility.yul\":17253:17346   */\n      tag_517\n        /* \"#utility.yul\":17342:17345   */\n      dup3\n        /* \"#utility.yul\":17253:17346   */\n      tag_333\n      jump\t// in\n    tag_517:\n        /* \"#utility.yul\":17371:17373   */\n      0x20\n        /* \"#utility.yul\":17366:17369   */\n      dup3\n        /* \"#utility.yul\":17362:17374   */\n      add\n        /* \"#utility.yul\":17355:17374   */\n      swap1\n      pop\n        /* \"#utility.yul\":17014:17380   */\n      swap2\n      swap1\n      pop\n      jump\t// out\n        /* \"#utility.yul\":17386:17805   */\n    tag_145:\n        /* \"#utility.yul\":17552:17556   */\n      0x00\n        /* \"#utility.yul\":17590:17592   */\n      0x20\n        /* \"#utility.yul\":17579:17588   */\n      dup3\n        /* \"#utility.yul\":17575:17593   */\n      add\n        /* \"#utility.yul\":17567:17593   */\n      swap1\n      pop\n        /* \"#utility.yul\":17639:17648   */\n      dup2\n        /* \"#utility.yul\":17633:17637   */\n      dup2\n        /* \"#utility.yul\":17629:17649   */\n      sub\n        /* \"#utility.yul\":17625:17626   */\n      0x00\n        /* \"#utility.yul\":17614:17623   */\n      dup4\n        /* \"#utility.yul\":17610:17627   */\n      add\n        /* \"#utility.yul\":17603:17650   */\n      mstore\n        /* \"#utility.yul\":17667:17798   */\n      tag_519\n        /* \"#utility.yul\":17793:17797   */\n      dup2\n        /* \"#utility.yul\":17667:17798   */\n      tag_334\n      jump\t// in\n    tag_519:\n        /* \"#utility.yul\":17659:17798   */\n      swap1\n      pop\n        /* \"#utility.yul\":17386:17805   */\n      swap2\n      swap1\n      pop\n      jump\t// out\n        /* \"#utility.yul\":17811:18034   */\n    tag_335:\n        /* \"#utility.yul\":17951:17985   */\n      0x7472757374656420636c61696d20746f706963732063616e6e6f742062652065\n        /* \"#utility.yul\":17947:17948   */\n      0x00\n        /* \"#utility.yul\":17939:17945   */\n      dup3\n        /* \"#utility.yul\":17935:17949   */\n      add\n        /* \"#utility.yul\":17928:17986   */\n      mstore\n        /* \"#utility.yul\":18020:18026   */\n      0x6d70747900000000000000000000000000000000000000000000000000000000\n        /* \"#utility.yul\":18015:18017   */\n      0x20\n        /* \"#utility.yul\":18007:18013   */\n      dup3\n        /* \"#utility.yul\":18003:18018   */\n      add\n        /* \"#utility.yul\":17996:18027   */\n      mstore\n        /* \"#utility.yul\":17811:18034   */\n      pop\n      jump\t// out\n        /* \"#utility.yul\":18040:18406   */\n    tag_336:\n        /* \"#utility.yul\":18182:18185   */\n      0x00\n        /* \"#utility.yul\":18203:18270   */\n      tag_522\n        /* \"#utility.yul\":18267:18269   */\n      0x24\n        /* \"#utility.yul\":18262:18265   */\n      dup4\n        /* \"#utility.yul\":18203:18270   */\n      tag_320\n      jump\t// in\n    tag_522:\n        /* \"#utility.yul\":18196:18270   */\n      swap2\n      pop\n        /* \"#utility.yul\":18279:18372   */\n      tag_523\n        /* \"#utility.yul\":18368:18371   */\n      dup3\n        /* \"#utility.yul\":18279:18372   */\n      tag_335\n      jump\t// in\n    tag_523:\n        /* \"#utility.yul\":18397:18399   */\n      0x40\n        /* \"#utility.yul\":18392:18395   */\n      dup3\n        /* \"#utility.yul\":18388:18400   */\n      add\n        /* \"#utility.yul\":18381:18400   */\n      swap1\n      pop\n        /* \"#utility.yul\":18040:18406   */\n      swap2\n      swap1\n      pop\n      jump\t// out\n        /* \"#utility.yul\":18412:18831   */\n    tag_148:\n        /* \"#utility.yul\":18578:18582   */\n      0x00\n        /* \"#utility.yul\":18616:18618   */\n      0x20\n        /* \"#utility.yul\":18605:18614   */\n      dup3\n        /* \"#utility.yul\":18601:18619   */\n      add\n        /* \"#utility.yul\":18593:18619   */\n      swap1\n      pop\n        /* \"#utility.yul\":18665:18674   */\n      dup2\n        /* \"#utility.yul\":18659:18663   */\n      dup2\n        /* \"#utility.yul\":18655:18675   */\n      sub\n        /* \"#utility.yul\":18651:18652   */\n      0x00\n        /* \"#utility.yul\":18640:18649   */\n      dup4\n        /* \"#utility.yul\":18636:18653   */\n      add\n        /* \"#utility.yul\":18629:18676   */\n      mstore\n        /* \"#utility.yul\":18693:18824   */\n      tag_525\n        /* \"#utility.yul\":18819:18823   */\n      dup2\n        /* \"#utility.yul\":18693:18824   */\n      tag_336\n      jump\t// in\n    tag_525:\n        /* \"#utility.yul\":18685:18824   */\n      swap1\n      pop\n        /* \"#utility.yul\":18412:18831   */\n      swap2\n      swap1\n      pop\n      jump\t// out\n        /* \"#utility.yul\":18837:19064   */\n    tag_337:\n        /* \"#utility.yul\":18977:19011   */\n      0x63616e6e6f742068617665206d6f7265207468616e2035302074727573746564\n        /* \"#utility.yul\":18973:18974   */\n      0x00\n        /* \"#utility.yul\":18965:18971   */\n      dup3\n        /* \"#utility.yul\":18961:18975   */\n      add\n        /* \"#utility.yul\":18954:19012   */\n      mstore\n        /* \"#utility.yul\":19046:19056   */\n      0x2069737375657273000000000000000000000000000000000000000000000000\n        /* \"#utility.yul\":19041:19043   */\n      0x20\n        /* \"#utility.yul\":19033:19039   */\n      dup3\n        /* \"#utility.yul\":19029:19044   */\n      add\n        /* \"#utility.yul\":19022:19057   */\n      mstore\n        /* \"#utility.yul\":18837:19064   */\n      pop\n      jump\t// out\n        /* \"#utility.yul\":19070:19436   */\n    tag_338:\n        /* \"#utility.yul\":19212:19215   */\n      0x00\n        /* \"#utility.yul\":19233:19300   */\n      tag_528\n        /* \"#utility.yul\":19297:19299   */\n      0x28\n        /* \"#utility.yul\":19292:19295   */\n      dup4\n        /* \"#utility.yul\":19233:19300   */\n      tag_320\n      jump\t// in\n    tag_528:\n        /* \"#utility.yul\":19226:19300   */\n      swap2\n      pop\n        /* \"#utility.yul\":19309:19402   */\n      tag_529\n        /* \"#utility.yul\":19398:19401   */\n      dup3\n        /* \"#utility.yul\":19309:19402   */\n      tag_337\n      jump\t// in\n    tag_529:\n        /* \"#utility.yul\":19427:19429   */\n      0x40\n        /* \"#utility.yul\":19422:19425   */\n      dup3\n        /* \"#utility.yul\":19418:19430   */\n      add\n        /* \"#utility.yul\":19411:19430   */\n      swap1\n      pop\n        /* \"#utility.yul\":19070:19436   */\n      swap2\n      swap1\n      pop\n      jump\t// out\n        /* \"#utility.yul\":19442:19861   */\n    tag_153:\n        /* \"#utility.yul\":19608:19612   */\n      0x00\n        /* \"#utility.yul\":19646:19648   */\n      0x20\n        /* \"#utility.yul\":19635:19644   */\n      dup3\n        /* \"#utility.yul\":19631:19649   */\n      add\n        /* \"#utility.yul\":19623:19649   */\n      swap1\n      pop\n        /* \"#utility.yul\":19695:19704   */\n      dup2\n        /* \"#utility.yul\":19689:19693   */\n      dup2\n        /* \"#utility.yul\":19685:19705   */\n      sub\n        /* \"#utility.yul\":19681:19682   */\n      0x00\n        /* \"#utility.yul\":19670:19679   */\n      dup4\n        /* \"#utility.yul\":19666:19683   */\n      add\n        /* \"#utility.yul\":19659:19706   */\n      mstore\n        /* \"#utility.yul\":19723:19854   */\n      tag_531\n        /* \"#utility.yul\":19849:19853   */\n      dup2\n        /* \"#utility.yul\":19723:19854   */\n      tag_338\n      jump\t// in\n    tag_531:\n        /* \"#utility.yul\":19715:19854   */\n      swap1\n      pop\n        /* \"#utility.yul\":19442:19861   */\n      swap2\n      swap1\n      pop\n      jump\t// out\n        /* \"#utility.yul\":19867:20045   */\n    tag_339:\n        /* \"#utility.yul\":20007:20037   */\n      0x747275737465642049737375657220646f65736e277420657869737400000000\n        /* \"#utility.yul\":20003:20004   */\n      0x00\n        /* \"#utility.yul\":19995:20001   */\n      dup3\n        /* \"#utility.yul\":19991:20005   */\n      add\n        /* \"#utility.yul\":19984:20038   */\n      mstore\n        /* \"#utility.yul\":19867:20045   */\n      pop\n      jump\t// out\n        /* \"#utility.yul\":20051:20417   */\n    tag_340:\n        /* \"#utility.yul\":20193:20196   */\n      0x00\n        /* \"#utility.yul\":20214:20281   */\n      tag_534\n        /* \"#utility.yul\":20278:20280   */\n      0x1c\n        /* \"#utility.yul\":20273:20276   */\n      dup4\n        /* \"#utility.yul\":20214:20281   */\n      tag_320\n      jump\t// in\n    tag_534:\n        /* \"#utility.yul\":20207:20281   */\n      swap2\n      pop\n        /* \"#utility.yul\":20290:20383   */\n      tag_535\n        /* \"#utility.yul\":20379:20382   */\n      dup3\n        /* \"#utility.yul\":20290:20383   */\n      tag_339\n      jump\t// in\n    tag_535:\n        /* \"#utility.yul\":20408:20410   */\n      0x20\n        /* \"#utility.yul\":20403:20406   */\n      dup3\n        /* \"#utility.yul\":20399:20411   */\n      add\n        /* \"#utility.yul\":20392:20411   */\n      swap1\n      pop\n        /* \"#utility.yul\":20051:20417   */\n      swap2\n      swap1\n      pop\n      jump\t// out\n        /* \"#utility.yul\":20423:20842   */\n    tag_219:\n        /* \"#utility.yul\":20589:20593   */\n      0x00\n        /* \"#utility.yul\":20627:20629   */\n      0x20\n        /* \"#utility.yul\":20616:20625   */\n      dup3\n        /* \"#utility.yul\":20612:20630   */\n      add\n        /* \"#utility.yul\":20604:20630   */\n      swap1\n      pop\n        /* \"#utility.yul\":20676:20685   */\n      dup2\n        /* \"#utility.yul\":20670:20674   */\n      dup2\n        /* \"#utility.yul\":20666:20686   */\n      sub\n        /* \"#utility.yul\":20662:20663   */\n      0x00\n        /* \"#utility.yul\":20651:20660   */\n      dup4\n        /* \"#utility.yul\":20647:20664   */\n      add\n        /* \"#utility.yul\":20640:20687   */\n      mstore\n        /* \"#utility.yul\":20704:20835   */\n      tag_537\n        /* \"#utility.yul\":20830:20834   */\n      dup2\n        /* \"#utility.yul\":20704:20835   */\n      tag_340\n      jump\t// in\n    tag_537:\n        /* \"#utility.yul\":20696:20835   */\n      swap1\n      pop\n        /* \"#utility.yul\":20423:20842   */\n      swap2\n      swap1\n      pop\n      jump\t// out\n        /* \"#utility.yul\":20848:21081   */\n    tag_341:\n        /* \"#utility.yul\":20988:21022   */\n      0x496e697469616c697a61626c653a20636f6e747261637420697320616c726561\n        /* \"#utility.yul\":20984:20985   */\n      0x00\n        /* \"#utility.yul\":20976:20982   */\n      dup3\n        /* \"#utility.yul\":20972:20986   */\n      add\n        /* \"#utility.yul\":20965:21023   */\n      mstore\n        /* \"#utility.yul\":21057:21073   */\n      0x647920696e697469616c697a6564000000000000000000000000000000000000\n        /* \"#utility.yul\":21052:21054   */\n      0x20\n        /* \"#utility.yul\":21044:21050   */\n      dup3\n        /* \"#utility.yul\":21040:21055   */\n      add\n        /* \"#utility.yul\":21033:21074   */\n      mstore\n        /* \"#utility.yul\":20848:21081   */\n      pop\n      jump\t// out\n        /* \"#utility.yul\":21087:21453   */\n    tag_342:\n        /* \"#utility.yul\":21229:21232   */\n      0x00\n        /* \"#utility.yul\":21250:21317   */\n      tag_540\n        /* \"#utility.yul\":21314:21316   */\n      0x2e\n        /* \"#utility.yul\":21309:21312   */\n      dup4\n        /* \"#utility.yul\":21250:21317   */\n      tag_320\n      jump\t// in\n    tag_540:\n        /* \"#utility.yul\":21243:21317   */\n      swap2\n      pop\n        /* \"#utility.yul\":21326:21419   */\n      tag_541\n        /* \"#utility.yul\":21415:21418   */\n      dup3\n        /* \"#utility.yul\":21326:21419   */\n      tag_341\n      jump\t// in\n    tag_541:\n        /* \"#utility.yul\":21444:21446   */\n      0x40\n        /* \"#utility.yul\":21439:21442   */\n      dup3\n        /* \"#utility.yul\":21435:21447   */\n      add\n        /* \"#utility.yul\":21428:21447   */\n      swap1\n      pop\n        /* \"#utility.yul\":21087:21453   */\n      swap2\n      swap1\n      pop\n      jump\t// out\n        /* \"#utility.yul\":21459:21878   */\n    tag_233:\n        /* \"#utility.yul\":21625:21629   */\n      0x00\n        /* \"#utility.yul\":21663:21665   */\n      0x20\n        /* \"#utility.yul\":21652:21661   */\n      dup3\n        /* \"#utility.yul\":21648:21666   */\n      add\n        /* \"#utility.yul\":21640:21666   */\n      swap1\n      pop\n        /* \"#utility.yul\":21712:21721   */\n      dup2\n        /* \"#utility.yul\":21706:21710   */\n      dup2\n        /* \"#utility.yul\":21702:21722   */\n      sub\n        /* \"#utility.yul\":21698:21699   */\n      0x00\n        /* \"#utility.yul\":21687:21696   */\n      dup4\n        /* \"#utility.yul\":21683:21700   */\n      add\n        /* \"#utility.yul\":21676:21723   */\n      mstore\n        /* \"#utility.yul\":21740:21871   */\n      tag_543\n        /* \"#utility.yul\":21866:21870   */\n      dup2\n        /* \"#utility.yul\":21740:21871   */\n      tag_342\n      jump\t// in\n    tag_543:\n        /* \"#utility.yul\":21732:21871   */\n      swap1\n      pop\n        /* \"#utility.yul\":21459:21878   */\n      swap2\n      swap1\n      pop\n      jump\t// out\n        /* \"#utility.yul\":21884:21969   */\n    tag_343:\n        /* \"#utility.yul\":21929:21936   */\n      0x00\n        /* \"#utility.yul\":21958:21963   */\n      dup2\n        /* \"#utility.yul\":21947:21963   */\n      swap1\n      pop\n        /* \"#utility.yul\":21884:21969   */\n      swap2\n      swap1\n      pop\n      jump\t// out\n        /* \"#utility.yul\":21975:22061   */\n    tag_344:\n        /* \"#utility.yul\":22010:22017   */\n      0x00\n        /* \"#utility.yul\":22050:22054   */\n      0xff\n        /* \"#utility.yul\":22043:22048   */\n      dup3\n        /* \"#utility.yul\":22039:22055   */\n      and\n        /* \"#utility.yul\":22028:22055   */\n      swap1\n      pop\n        /* \"#utility.yul\":21975:22061   */\n      swap2\n      swap1\n      pop\n      jump\t// out\n        /* \"#utility.yul\":22067:22221   */\n    tag_345:\n        /* \"#utility.yul\":22123:22132   */\n      0x00\n        /* \"#utility.yul\":22156:22215   */\n      tag_547\n        /* \"#utility.yul\":22172:22214   */\n      tag_548\n        /* \"#utility.yul\":22181:22213   */\n      tag_549\n        /* \"#utility.yul\":22207:22212   */\n      dup5\n        /* \"#utility.yul\":22181:22213   */\n      tag_343\n      jump\t// in\n    tag_549:\n        /* \"#utility.yul\":22172:22214   */\n      tag_304\n      jump\t// in\n    tag_548:\n        /* \"#utility.yul\":22156:22215   */\n      tag_344\n      jump\t// in\n    tag_547:\n        /* \"#utility.yul\":22143:22215   */\n      swap1\n      pop\n        /* \"#utility.yul\":22067:22221   */\n      swap2\n      swap1\n      pop\n      jump\t// out\n        /* \"#utility.yul\":22227:22370   */\n    tag_346:\n        /* \"#utility.yul\":22320:22363   */\n      tag_551\n        /* \"#utility.yul\":22357:22362   */\n      dup2\n        /* \"#utility.yul\":22320:22363   */\n      tag_345\n      jump\t// in\n    tag_551:\n        /* \"#utility.yul\":22315:22318   */\n      dup3\n        /* \"#utility.yul\":22308:22364   */\n      mstore\n        /* \"#utility.yul\":22227:22370   */\n      pop\n      pop\n      jump\t// out\n        /* \"#utility.yul\":22376:22610   */\n    tag_240:\n        /* \"#utility.yul\":22475:22479   */\n      0x00\n        /* \"#utility.yul\":22513:22515   */\n      0x20\n        /* \"#utility.yul\":22502:22511   */\n      dup3\n        /* \"#utility.yul\":22498:22516   */\n      add\n        /* \"#utility.yul\":22490:22516   */\n      swap1\n      pop\n        /* \"#utility.yul\":22526:22603   */\n      tag_553\n        /* \"#utility.yul\":22600:22601   */\n      0x00\n        /* \"#utility.yul\":22589:22598   */\n      dup4\n        /* \"#utility.yul\":22585:22602   */\n      add\n        /* \"#utility.yul\":22576:22582   */\n      dup5\n        /* \"#utility.yul\":22526:22603   */\n      tag_346\n      jump\t// in\n    tag_553:\n        /* \"#utility.yul\":22376:22610   */\n      swap3\n      swap2\n      pop\n      pop\n      jump\t// out\n        /* \"#utility.yul\":22616:22841   */\n    tag_347:\n        /* \"#utility.yul\":22756:22790   */\n      0x4f776e61626c653a206e6577206f776e657220697320746865207a65726f2061\n        /* \"#utility.yul\":22752:22753   */\n      0x00\n        /* \"#utility.yul\":22744:22750   */\n      dup3\n        /* \"#utility.yul\":22740:22754   */\n      add\n        /* \"#utility.yul\":22733:22791   */\n      mstore\n        /* \"#utility.yul\":22825:22833   */\n      0x6464726573730000000000000000000000000000000000000000000000000000\n        /* \"#utility.yul\":22820:22822   */\n      0x20\n        /* \"#utility.yul\":22812:22818   */\n      dup3\n        /* \"#utility.yul\":22808:22823   */\n      add\n        /* \"#utility.yul\":22801:22834   */\n      mstore\n        /* \"#utility.yul\":22616:22841   */\n      pop\n      jump\t// out\n        /* \"#utility.yul\":22847:23213   */\n    tag_348:\n        /* \"#utility.yul\":22989:22992   */\n      0x00\n        /* \"#utility.yul\":23010:23077   */\n      tag_556\n        /* \"#utility.yul\":23074:23076   */\n      0x26\n        /* \"#utility.yul\":23069:23072   */\n      dup4\n        /* \"#utility.yul\":23010:23077   */\n      tag_320\n      jump\t// in\n    tag_556:\n        /* \"#utility.yul\":23003:23077   */\n      swap2\n      pop\n        /* \"#utility.yul\":23086:23179   */\n      tag_557\n        /* \"#utility.yul\":23175:23178   */\n      dup3\n        /* \"#utility.yul\":23086:23179   */\n      tag_347\n      jump\t// in\n    tag_557:\n        /* \"#utility.yul\":23204:23206   */\n      0x40\n        /* \"#utility.yul\":23199:23202   */\n      dup3\n        /* \"#utility.yul\":23195:23207   */\n      add\n        /* \"#utility.yul\":23188:23207   */\n      swap1\n      pop\n        /* \"#utility.yul\":22847:23213   */\n      swap2\n      swap1\n      pop\n      jump\t// out\n        /* \"#utility.yul\":23219:23638   */\n    tag_248:\n        /* \"#utility.yul\":23385:23389   */\n      0x00\n        /* \"#utility.yul\":23423:23425   */\n      0x20\n        /* \"#utility.yul\":23412:23421   */\n      dup3\n        /* \"#utility.yul\":23408:23426   */\n      add\n        /* \"#utility.yul\":23400:23426   */\n      swap1\n      pop\n        /* \"#utility.yul\":23472:23481   */\n      dup2\n        /* \"#utility.yul\":23466:23470   */\n      dup2\n        /* \"#utility.yul\":23462:23482   */\n      sub\n        /* \"#utility.yul\":23458:23459   */\n      0x00\n        /* \"#utility.yul\":23447:23456   */\n      dup4\n        /* \"#utility.yul\":23443:23460   */\n      add\n        /* \"#utility.yul\":23436:23483   */\n      mstore\n        /* \"#utility.yul\":23500:23631   */\n      tag_559\n        /* \"#utility.yul\":23626:23630   */\n      dup2\n        /* \"#utility.yul\":23500:23631   */\n      tag_348\n      jump\t// in\n    tag_559:\n        /* \"#utility.yul\":23492:23631   */\n      swap1\n      pop\n        /* \"#utility.yul\":23219:23638   */\n      swap2\n      swap1\n      pop\n      jump\t// out\n        /* \"#utility.yul\":23644:23826   */\n    tag_349:\n        /* \"#utility.yul\":23784:23818   */\n      0x4f776e61626c653a2063616c6c6572206973206e6f7420746865206f776e6572\n        /* \"#utility.yul\":23780:23781   */\n      0x00\n        /* \"#utility.yul\":23772:23778   */\n      dup3\n        /* \"#utility.yul\":23768:23782   */\n      add\n        /* \"#utility.yul\":23761:23819   */\n      mstore\n        /* \"#utility.yul\":23644:23826   */\n      pop\n      jump\t// out\n        /* \"#utility.yul\":23832:24198   */\n    tag_350:\n        /* \"#utility.yul\":23974:23977   */\n      0x00\n        /* \"#utility.yul\":23995:24062   */\n      tag_562\n        /* \"#utility.yul\":24059:24061   */\n      0x20\n        /* \"#utility.yul\":24054:24057   */\n      dup4\n        /* \"#utility.yul\":23995:24062   */\n      tag_320\n      jump\t// in\n    tag_562:\n        /* \"#utility.yul\":23988:24062   */\n      swap2\n      pop\n        /* \"#utility.yul\":24071:24164   */\n      tag_563\n        /* \"#utility.yul\":24160:24163   */\n      dup3\n        /* \"#utility.yul\":24071:24164   */\n      tag_349\n      jump\t// in\n    tag_563:\n        /* \"#utility.yul\":24189:24191   */\n      0x20\n        /* \"#utility.yul\":24184:24187   */\n      dup3\n        /* \"#utility.yul\":24180:24192   */\n      add\n        /* \"#utility.yul\":24173:24192   */\n      swap1\n      pop\n        /* \"#utility.yul\":23832:24198   */\n      swap2\n      swap1\n      pop\n      jump\t// out\n        /* \"#utility.yul\":24204:24623   */\n    tag_256:\n        /* \"#utility.yul\":24370:24374   */\n      0x00\n        /* \"#utility.yul\":24408:24410   */\n      0x20\n        /* \"#utility.yul\":24397:24406   */\n      dup3\n        /* \"#utility.yul\":24393:24411   */\n      add\n        /* \"#utility.yul\":24385:24411   */\n      swap1\n      pop\n        /* \"#utility.yul\":24457:24466   */\n      dup2\n        /* \"#utility.yul\":24451:24455   */\n      dup2\n        /* \"#utility.yul\":24447:24467   */\n      sub\n        /* \"#utility.yul\":24443:24444   */\n      0x00\n        /* \"#utility.yul\":24432:24441   */\n      dup4\n        /* \"#utility.yul\":24428:24445   */\n      add\n        /* \"#utility.yul\":24421:24468   */\n      mstore\n        /* \"#utility.yul\":24485:24616   */\n      tag_565\n        /* \"#utility.yul\":24611:24615   */\n      dup2\n        /* \"#utility.yul\":24485:24616   */\n      tag_350\n      jump\t// in\n    tag_565:\n        /* \"#utility.yul\":24477:24616   */\n      swap1\n      pop\n        /* \"#utility.yul\":24204:24623   */\n      swap2\n      swap1\n      pop\n      jump\t// out\n        /* \"#utility.yul\":24629:24859   */\n    tag_351:\n        /* \"#utility.yul\":24769:24803   */\n      0x496e697469616c697a61626c653a20636f6e7472616374206973206e6f742069\n        /* \"#utility.yul\":24765:24766   */\n      0x00\n        /* \"#utility.yul\":24757:24763   */\n      dup3\n        /* \"#utility.yul\":24753:24767   */\n      add\n        /* \"#utility.yul\":24746:24804   */\n      mstore\n        /* \"#utility.yul\":24838:24851   */\n      0x6e697469616c697a696e67000000000000000000000000000000000000000000\n        /* \"#utility.yul\":24833:24835   */\n      0x20\n        /* \"#utility.yul\":24825:24831   */\n      dup3\n        /* \"#utility.yul\":24821:24836   */\n      add\n        /* \"#utility.yul\":24814:24852   */\n      mstore\n        /* \"#utility.yul\":24629:24859   */\n      pop\n      jump\t// out\n        /* \"#utility.yul\":24865:25231   */\n    tag_352:\n        /* \"#utility.yul\":25007:25010   */\n      0x00\n        /* \"#utility.yul\":25028:25095   */\n      tag_568\n        /* \"#utility.yul\":25092:25094   */\n      0x2b\n        /* \"#utility.yul\":25087:25090   */\n      dup4\n        /* \"#utility.yul\":25028:25095   */\n      tag_320\n      jump\t// in\n    tag_568:\n        /* \"#utility.yul\":25021:25095   */\n      swap2\n      pop\n        /* \"#utility.yul\":25104:25197   */\n      tag_569\n        /* \"#utility.yul\":25193:25196   */\n      dup3\n        /* \"#utility.yul\":25104:25197   */\n      tag_351\n      jump\t// in\n    tag_569:\n        /* \"#utility.yul\":25222:25224   */\n      0x40\n        /* \"#utility.yul\":25217:25220   */\n      dup3\n        /* \"#utility.yul\":25213:25225   */\n      add\n        /* \"#utility.yul\":25206:25225   */\n      swap1\n      pop\n        /* \"#utility.yul\":24865:25231   */\n      swap2\n      swap1\n      pop\n      jump\t// out\n        /* \"#utility.yul\":25237:25656   */\n    tag_262:\n        /* \"#utility.yul\":25403:25407   */\n      0x00\n        /* \"#utility.yul\":25441:25443   */\n      0x20\n        /* \"#utility.yul\":25430:25439   */\n      dup3\n        /* \"#utility.yul\":25426:25444   */\n      add\n        /* \"#utility.yul\":25418:25444   */\n      swap1\n      pop\n        /* \"#utility.yul\":25490:25499   */\n      dup2\n        /* \"#utility.yul\":25484:25488   */\n      dup2\n        /* \"#utility.yul\":25480:25500   */\n      sub\n        /* \"#utility.yul\":25476:25477   */\n      0x00\n        /* \"#utility.yul\":25465:25474   */\n      dup4\n        /* \"#utility.yul\":25461:25478   */\n      add\n        /* \"#utility.yul\":25454:25501   */\n      mstore\n        /* \"#utility.yul\":25518:25649   */\n      tag_571\n        /* \"#utility.yul\":25644:25648   */\n      dup2\n        /* \"#utility.yul\":25518:25649   */\n      tag_352\n      jump\t// in\n    tag_571:\n        /* \"#utility.yul\":25510:25649   */\n      swap1\n      pop\n        /* \"#utility.yul\":25237:25656   */\n      swap2\n      swap1\n      pop\n      jump\t// out\n\n    auxdata: 0xa264697066735822122059a6aa26d1429e1c103eae20d3810b30ede1316c31772b11571dab494a07e17364736f6c63430008110033\n}\n",
				"bytecode": {
					"linkReferences": {},
					"object": "608060405234801561001057600080fd5b5061269e806100206000396000f3fe608060405234801561001057600080fd5b50600436106100b45760003560e01c8063b93d28eb11610071578063b93d28eb14610179578063c28fb27814610195578063d9dd24c5146101c5578063e1c7392a146101e3578063ef2ed1a4146101ed578063f2fde38b1461021d576100b4565b806304bc7e84146100b957806334a89987146100d557806352c111d114610105578063715018a6146101355780638da5cb5b1461013f5780639f63ea981461015d575b600080fd5b6100d360048036038101906100ce9190611a70565b610239565b005b6100ef60048036038101906100ea9190611b32565b6107ba565b6040516100fc9190611b8d565b60405180910390f35b61011f600480360381019061011a9190611ba8565b6108ed565b60405161012c9190611ce3565b60405180910390f35b61013d61098e565b005b6101476109a2565b6040516101549190611d14565b60405180910390f35b61017760048036038101906101729190611a70565b6109cc565b005b610193600480360381019061018e9190611d2f565b610d53565b005b6101af60048036038101906101aa9190611d2f565b611313565b6040516101bc9190611e1a565b60405180910390f35b6101cd61142f565b6040516101da9190611ce3565b60405180910390f35b6101eb6114bd565b005b61020760048036038101906102029190611e3c565b6115fb565b6040516102149190611b8d565b60405180910390f35b61023760048036038101906102329190611e3c565b61165a565b005b6102416116dd565b600073ffffffffffffffffffffffffffffffffffffffff168373ffffffffffffffffffffffffffffffffffffffff16036102b0576040517f08c379a00000000000000000000000000000000000000000000000000000000081526004016102a790611ec6565b60405180910390fd5b6000606660008573ffffffffffffffffffffffffffffffffffffffff1673ffffffffffffffffffffffffffffffffffffffff1681526020019081526020016000208054905003610335576040517f08c379a000000000000000000000000000000000000000000000000000000000815260040161032c90611f32565b60405180910390fd5b600f82829050111561037c576040517f08c379a000000000000000000000000000000000000000000000000000000000815260040161037390611fc4565b60405180910390fd5b600082829050116103c2576040517f08c379a00000000000000000000000000000000000000000000000000000000081526004016103b990612030565b60405180910390fd5b60005b606660008573ffffffffffffffffffffffffffffffffffffffff1673ffffffffffffffffffffffffffffffffffffffff16815260200190815260200160002080549050811015610666576000606660008673ffffffffffffffffffffffffffffffffffffffff1673ffffffffffffffffffffffffffffffffffffffff168152602001908152602001600020828154811061046257610461612050565b5b9060005260206000200154905060006067600083815260200190815260200160002080549050905060005b81811015610650578673ffffffffffffffffffffffffffffffffffffffff166067600085815260200190815260200160002082815481106104d1576104d0612050565b5b9060005260206000200160009054906101000a900473ffffffffffffffffffffffffffffffffffffffff1673ffffffffffffffffffffffffffffffffffffffff160361063d576067600084815260200190815260200160002060018361053791906120ae565b8154811061054857610547612050565b5b9060005260206000200160009054906101000a900473ffffffffffffffffffffffffffffffffffffffff1660676000858152602001908152602001600020828154811061059857610597612050565b5b9060005260206000200160006101000a81548173ffffffffffffffffffffffffffffffffffffffff021916908373ffffffffffffffffffffffffffffffffffffffff16021790555060676000848152602001908152602001600020805480610603576106026120e2565b5b6001900381819060005260206000200160006101000a81549073ffffffffffffffffffffffffffffffffffffffff02191690559055610650565b808061064890612111565b91505061048d565b505050808061065e90612111565b9150506103c5565b508181606660008673ffffffffffffffffffffffffffffffffffffffff1673ffffffffffffffffffffffffffffffffffffffff16815260200190815260200160002091906106b5929190611906565b5060005b8282905081101561076457606760008484848181106106db576106da612050565b5b905060200201358152602001908152602001600020849080600181540180825580915050600190039060005260206000200160009091909190916101000a81548173ffffffffffffffffffffffffffffffffffffffff021916908373ffffffffffffffffffffffffffffffffffffffff160217905550808061075c90612111565b9150506106b9565b508273ffffffffffffffffffffffffffffffffffffffff167fec753cfc52044f61676f18a11e500093a9f2b1cd5e4942bc476f2b0438159bcf83836040516107ad9291906121c3565b60405180910390a2505050565b600080606660008573ffffffffffffffffffffffffffffffffffffffff1673ffffffffffffffffffffffffffffffffffffffff1681526020019081526020016000208054905090506000606660008673ffffffffffffffffffffffffffffffffffffffff1673ffffffffffffffffffffffffffffffffffffffff16815260200190815260200160002080548060200260200160405190810160405280929190818152602001828054801561088d57602002820191906000526020600020905b815481526020019060010190808311610879575b5050505050905060005b828110156108df57848282815181106108b3576108b2612050565b5b6020026020010151036108cc57600193505050506108e7565b80806108d790612111565b915050610897565b506000925050505b92915050565b60606067600083815260200190815260200160002080548060200260200160405190810160405280929190818152602001828054801561098257602002820191906000526020600020905b8160009054906101000a900473ffffffffffffffffffffffffffffffffffffffff1673ffffffffffffffffffffffffffffffffffffffff1681526020019060010190808311610938575b50505050509050919050565b6109966116dd565b6109a0600061175b565b565b6000603360009054906101000a900473ffffffffffffffffffffffffffffffffffffffff16905090565b6109d46116dd565b600073ffffffffffffffffffffffffffffffffffffffff168373ffffffffffffffffffffffffffffffffffffffff1603610a43576040517f08c379a0000000000000000000000000000000000000000000000000000000008152600401610a3a90611ec6565b60405180910390fd5b6000606660008573ffffffffffffffffffffffffffffffffffffffff1673ffffffffffffffffffffffffffffffffffffffff1681526020019081526020016000208054905014610ac8576040517f08c379a0000000000000000000000000000000000000000000000000000000008152600401610abf90612233565b60405180910390fd5b60008282905011610b0e576040517f08c379a0000000000000000000000000000000000000000000000000000000008152600401610b05906122c5565b60405180910390fd5b600f828290501115610b55576040517f08c379a0000000000000000000000000000000000000000000000000000000008152600401610b4c90611fc4565b60405180910390fd5b603260658054905010610b9d576040517f08c379a0000000000000000000000000000000000000000000000000000000008152600401610b9490612357565b60405180910390fd5b6065839080600181540180825580915050600190039060005260206000200160009091909190916101000a81548173ffffffffffffffffffffffffffffffffffffffff021916908373ffffffffffffffffffffffffffffffffffffffff1602179055508181606660008673ffffffffffffffffffffffffffffffffffffffff1673ffffffffffffffffffffffffffffffffffffffff1681526020019081526020016000209190610c4e929190611906565b5060005b82829050811015610cfd5760676000848484818110610c7457610c73612050565b5b905060200201358152602001908152602001600020849080600181540180825580915050600190039060005260206000200160009091909190916101000a81548173ffffffffffffffffffffffffffffffffffffffff021916908373ffffffffffffffffffffffffffffffffffffffff1602179055508080610cf590612111565b915050610c52565b508273ffffffffffffffffffffffffffffffffffffffff167ffedc33fd34859594822c0ff6f3f4f9fc279cc6d5cae53068f706a088e45008728383604051610d469291906121c3565b60405180910390a2505050565b610d5b6116dd565b600073ffffffffffffffffffffffffffffffffffffffff168173ffffffffffffffffffffffffffffffffffffffff1603610dca576040517f08c379a0000000000000000000000000000000000000000000000000000000008152600401610dc190611ec6565b60405180910390fd5b6000606660008373ffffffffffffffffffffffffffffffffffffffff1673ffffffffffffffffffffffffffffffffffffffff1681526020019081526020016000208054905003610e4f576040517f08c379a0000000000000000000000000000000000000000000000000000000008152600401610e4690611f32565b60405180910390fd5b6000606580549050905060005b81811015610fdb578273ffffffffffffffffffffffffffffffffffffffff1660658281548110610e8f57610e8e612050565b5b9060005260206000200160009054906101000a900473ffffffffffffffffffffffffffffffffffffffff1673ffffffffffffffffffffffffffffffffffffffff1603610fc8576065600183610ee491906120ae565b81548110610ef557610ef4612050565b5b9060005260206000200160009054906101000a900473ffffffffffffffffffffffffffffffffffffffff1660658281548110610f3457610f33612050565b5b9060005260206000200160006101000a81548173ffffffffffffffffffffffffffffffffffffffff021916908373ffffffffffffffffffffffffffffffffffffffff1602179055506065805480610f8e57610f8d6120e2565b5b6001900381819060005260206000200160006101000a81549073ffffffffffffffffffffffffffffffffffffffff02191690559055610fdb565b8080610fd390612111565b915050610e5c565b5060005b606660008473ffffffffffffffffffffffffffffffffffffffff1673ffffffffffffffffffffffffffffffffffffffff16815260200190815260200160002080549050811015611280576000606660008573ffffffffffffffffffffffffffffffffffffffff1673ffffffffffffffffffffffffffffffffffffffff168152602001908152602001600020828154811061107c5761107b612050565b5b9060005260206000200154905060006067600083815260200190815260200160002080549050905060005b8181101561126a578573ffffffffffffffffffffffffffffffffffffffff166067600085815260200190815260200160002082815481106110eb576110ea612050565b5b9060005260206000200160009054906101000a900473ffffffffffffffffffffffffffffffffffffffff1673ffffffffffffffffffffffffffffffffffffffff1603611257576067600084815260200190815260200160002060018361115191906120ae565b8154811061116257611161612050565b5b9060005260206000200160009054906101000a900473ffffffffffffffffffffffffffffffffffffffff166067600085815260200190815260200160002082815481106111b2576111b1612050565b5b9060005260206000200160006101000a81548173ffffffffffffffffffffffffffffffffffffffff021916908373ffffffffffffffffffffffffffffffffffffffff1602179055506067600084815260200190815260200160002080548061121d5761121c6120e2565b5b6001900381819060005260206000200160006101000a81549073ffffffffffffffffffffffffffffffffffffffff0219169055905561126a565b808061126290612111565b9150506110a7565b505050808061127890612111565b915050610fdf565b50606660008373ffffffffffffffffffffffffffffffffffffffff1673ffffffffffffffffffffffffffffffffffffffff16815260200190815260200160002060006112cc9190611953565b8173ffffffffffffffffffffffffffffffffffffffff167f2214ded40113cc3fb63fc206cafee88270b0a903dac7245d54efdde30ebb032160405160405180910390a25050565b60606000606660008473ffffffffffffffffffffffffffffffffffffffff1673ffffffffffffffffffffffffffffffffffffffff168152602001908152602001600020805490500361139a576040517f08c379a0000000000000000000000000000000000000000000000000000000008152600401611391906123c3565b60405180910390fd5b606660008373ffffffffffffffffffffffffffffffffffffffff1673ffffffffffffffffffffffffffffffffffffffff16815260200190815260200160002080548060200260200160405190810160405280929190818152602001828054801561142357602002820191906000526020600020905b81548152602001906001019080831161140f575b50505050509050919050565b606060658054806020026020016040519081016040528092919081815260200182805480156114b357602002820191906000526020600020905b8160009054906101000a900473ffffffffffffffffffffffffffffffffffffffff1673ffffffffffffffffffffffffffffffffffffffff1681526020019060010190808311611469575b5050505050905090565b60008060019054906101000a900460ff161590508080156114ee5750600160008054906101000a900460ff1660ff16105b8061151b57506114fd30611821565b15801561151a5750600160008054906101000a900460ff1660ff16145b5b61155a576040517f08c379a000000000000000000000000000000000000000000000000000000000815260040161155190612455565b60405180910390fd5b60016000806101000a81548160ff021916908360ff1602179055508015611597576001600060016101000a81548160ff0219169083151502179055505b61159f611844565b80156115f85760008060016101000a81548160ff0219169083151502179055507f7f26b83ff96e1f2b6a682f133852f6798a09c465da95921460cefb384740249860016040516115ef91906124bd565b60405180910390a15b50565b600080606660008473ffffffffffffffffffffffffffffffffffffffff1673ffffffffffffffffffffffffffffffffffffffff1681526020019081526020016000208054905011156116505760019050611655565b600090505b919050565b6116626116dd565b600073ffffffffffffffffffffffffffffffffffffffff168173ffffffffffffffffffffffffffffffffffffffff16036116d1576040517f08c379a00000000000000000000000000000000000000000000000000000000081526004016116c89061254a565b60405180910390fd5b6116da8161175b565b50565b6116e561189d565b73ffffffffffffffffffffffffffffffffffffffff166117036109a2565b73ffffffffffffffffffffffffffffffffffffffff1614611759576040517f08c379a0000000000000000000000000000000000000000000000000000000008152600401611750906125b6565b60405180910390fd5b565b6000603360009054906101000a900473ffffffffffffffffffffffffffffffffffffffff16905081603360006101000a81548173ffffffffffffffffffffffffffffffffffffffff021916908373ffffffffffffffffffffffffffffffffffffffff1602179055508173ffffffffffffffffffffffffffffffffffffffff168173ffffffffffffffffffffffffffffffffffffffff167f8be0079c531659141344cd1fd0a4f28419497f9722a3daafe3b4186f6b6457e060405160405180910390a35050565b6000808273ffffffffffffffffffffffffffffffffffffffff163b119050919050565b600060019054906101000a900460ff16611893576040517f08c379a000000000000000000000000000000000000000000000000000000000815260040161188a90612648565b60405180910390fd5b61189b6118a5565b565b600033905090565b600060019054906101000a900460ff166118f4576040517f08c379a00000000000000000000000000000000000000000000000000000000081526004016118eb90612648565b60405180910390fd5b6119046118ff61189d565b61175b565b565b828054828255906000526020600020908101928215611942579160200282015b82811115611941578235825591602001919060010190611926565b5b50905061194f9190611974565b5090565b50805460008255906000526020600020908101906119719190611974565b50565b5b8082111561198d576000816000905550600101611975565b5090565b600080fd5b600080fd5b600073ffffffffffffffffffffffffffffffffffffffff82169050919050565b60006119c68261199b565b9050919050565b60006119d8826119bb565b9050919050565b6119e8816119cd565b81146119f357600080fd5b50565b600081359050611a05816119df565b92915050565b600080fd5b600080fd5b600080fd5b60008083601f840112611a3057611a2f611a0b565b5b8235905067ffffffffffffffff811115611a4d57611a4c611a10565b5b602083019150836020820283011115611a6957611a68611a15565b5b9250929050565b600080600060408486031215611a8957611a88611991565b5b6000611a97868287016119f6565b935050602084013567ffffffffffffffff811115611ab857611ab7611996565b5b611ac486828701611a1a565b92509250509250925092565b611ad9816119bb565b8114611ae457600080fd5b50565b600081359050611af681611ad0565b92915050565b6000819050919050565b611b0f81611afc565b8114611b1a57600080fd5b50565b600081359050611b2c81611b06565b92915050565b60008060408385031215611b4957611b48611991565b5b6000611b5785828601611ae7565b9250506020611b6885828601611b1d565b9150509250929050565b60008115159050919050565b611b8781611b72565b82525050565b6000602082019050611ba26000830184611b7e565b92915050565b600060208284031215611bbe57611bbd611991565b5b6000611bcc84828501611b1d565b91505092915050565b600081519050919050565b600082825260208201905092915050565b6000819050602082019050919050565b6000819050919050565b6000611c26611c21611c1c8461199b565b611c01565b61199b565b9050919050565b6000611c3882611c0b565b9050919050565b6000611c4a82611c2d565b9050919050565b611c5a81611c3f565b82525050565b6000611c6c8383611c51565b60208301905092915050565b6000602082019050919050565b6000611c9082611bd5565b611c9a8185611be0565b9350611ca583611bf1565b8060005b83811015611cd6578151611cbd8882611c60565b9750611cc883611c78565b925050600181019050611ca9565b5085935050505092915050565b60006020820190508181036000830152611cfd8184611c85565b905092915050565b611d0e816119bb565b82525050565b6000602082019050611d296000830184611d05565b92915050565b600060208284031215611d4557611d44611991565b5b6000611d53848285016119f6565b91505092915050565b600081519050919050565b600082825260208201905092915050565b6000819050602082019050919050565b611d9181611afc565b82525050565b6000611da38383611d88565b60208301905092915050565b6000602082019050919050565b6000611dc782611d5c565b611dd18185611d67565b9350611ddc83611d78565b8060005b83811015611e0d578151611df48882611d97565b9750611dff83611daf565b925050600181019050611de0565b5085935050505092915050565b60006020820190508181036000830152611e348184611dbc565b905092915050565b600060208284031215611e5257611e51611991565b5b6000611e6084828501611ae7565b91505092915050565b600082825260208201905092915050565b7f696e76616c696420617267756d656e74202d207a65726f206164647265737300600082015250565b6000611eb0601f83611e69565b9150611ebb82611e7a565b602082019050919050565b60006020820190508181036000830152611edf81611ea3565b9050919050565b7f4e4f542061207472757374656420697373756572000000000000000000000000600082015250565b6000611f1c601483611e69565b9150611f2782611ee6565b602082019050919050565b60006020820190508181036000830152611f4b81611f0f565b9050919050565b7f63616e6e6f742068617665206d6f7265207468616e20313520636c61696d207460008201527f6f70696373000000000000000000000000000000000000000000000000000000602082015250565b6000611fae602583611e69565b9150611fb982611f52565b604082019050919050565b60006020820190508181036000830152611fdd81611fa1565b9050919050565b7f636c61696d20746f706963732063616e6e6f7420626520656d70747900000000600082015250565b600061201a601c83611e69565b915061202582611fe4565b602082019050919050565b600060208201905081810360008301526120498161200d565b9050919050565b7f4e487b7100000000000000000000000000000000000000000000000000000000600052603260045260246000fd5b7f4e487b7100000000000000000000000000000000000000000000000000000000600052601160045260246000fd5b60006120b982611afc565b91506120c483611afc565b92508282039050818111156120dc576120db61207f565b5b92915050565b7f4e487b7100000000000000000000000000000000000000000000000000000000600052603160045260246000fd5b600061211c82611afc565b91507fffffffffffffffffffffffffffffffffffffffffffffffffffffffffffffffff820361214e5761214d61207f565b5b600182019050919050565b600080fd5b82818337505050565b60006121738385611d67565b93507f07ffffffffffffffffffffffffffffffffffffffffffffffffffffffffffffff8311156121a6576121a5612159565b5b6020830292506121b783858461215e565b82840190509392505050565b600060208201905081810360008301526121de818486612167565b90509392505050565b7f747275737465642049737375657220616c726561647920657869737473000000600082015250565b600061221d601d83611e69565b9150612228826121e7565b602082019050919050565b6000602082019050818103600083015261224c81612210565b9050919050565b7f7472757374656420636c61696d20746f706963732063616e6e6f74206265206560008201527f6d70747900000000000000000000000000000000000000000000000000000000602082015250565b60006122af602483611e69565b91506122ba82612253565b604082019050919050565b600060208201905081810360008301526122de816122a2565b9050919050565b7f63616e6e6f742068617665206d6f7265207468616e203530207472757374656460008201527f2069737375657273000000000000000000000000000000000000000000000000602082015250565b6000612341602883611e69565b915061234c826122e5565b604082019050919050565b6000602082019050818103600083015261237081612334565b9050919050565b7f747275737465642049737375657220646f65736e277420657869737400000000600082015250565b60006123ad601c83611e69565b91506123b882612377565b602082019050919050565b600060208201905081810360008301526123dc816123a0565b9050919050565b7f496e697469616c697a61626c653a20636f6e747261637420697320616c72656160008201527f647920696e697469616c697a6564000000000000000000000000000000000000602082015250565b600061243f602e83611e69565b915061244a826123e3565b604082019050919050565b6000602082019050818103600083015261246e81612432565b9050919050565b6000819050919050565b600060ff82169050919050565b60006124a76124a261249d84612475565b611c01565b61247f565b9050919050565b6124b78161248c565b82525050565b60006020820190506124d260008301846124ae565b92915050565b7f4f776e61626c653a206e6577206f776e657220697320746865207a65726f206160008201527f6464726573730000000000000000000000000000000000000000000000000000602082015250565b6000612534602683611e69565b915061253f826124d8565b604082019050919050565b6000602082019050818103600083015261256381612527565b9050919050565b7f4f776e61626c653a2063616c6c6572206973206e6f7420746865206f776e6572600082015250565b60006125a0602083611e69565b91506125ab8261256a565b602082019050919050565b600060208201905081810360008301526125cf81612593565b9050919050565b7f496e697469616c697a61626c653a20636f6e7472616374206973206e6f74206960008201527f6e697469616c697a696e67000000000000000000000000000000000000000000602082015250565b6000612632602b83611e69565b915061263d826125d6565b604082019050919050565b6000602082019050818103600083015261266181612625565b905091905056fea264697066735822122059a6aa26d1429e1c103eae20d3810b30ede1316c31772b11571dab494a07e17364736f6c63430008110033",
					"opcodes": "PUSH1 0x80 PUSH1 0x40 MSTORE CALLVALUE DUP1 ISZERO PUSH2 0x10 JUMPI PUSH1 0x0 DUP1 REVERT JUMPDEST POP PUSH2 0x269E DUP1 PUSH2 0x20 PUSH1 0x0 CODECOPY PUSH1 0x0 RETURN INVALID PUSH1 0x80 PUSH1 0x40 MSTORE CALLVALUE DUP1 ISZERO PUSH2 0x10 JUMPI PUSH1 0x0 DUP1 REVERT JUMPDEST POP PUSH1 0x4 CALLDATASIZE LT PUSH2 0xB4 JUMPI PUSH1 0x0 CALLDATALOAD PUSH1 0xE0 SHR DUP1 PUSH4 0xB93D28EB GT PUSH2 0x71 JUMPI DUP1 PUSH4 0xB93D28EB EQ PUSH2 0x179 JUMPI DUP1 PUSH4 0xC28FB278 EQ PUSH2 0x195 JUMPI DUP1 PUSH4 0xD9DD24C5 EQ PUSH2 0x1C5 JUMPI DUP1 PUSH4 0xE1C7392A EQ PUSH2 0x1E3 JUMPI DUP1 PUSH4 0xEF2ED1A4 EQ PUSH2 0x1ED JUMPI DUP1 PUSH4 0xF2FDE38B EQ PUSH2 0x21D JUMPI PUSH2 0xB4 JUMP JUMPDEST DUP1 PUSH4 0x4BC7E84 EQ PUSH2 0xB9 JUMPI DUP1 PUSH4 0x34A89987 EQ PUSH2 0xD5 JUMPI DUP1 PUSH4 0x52C111D1 EQ PUSH2 0x105 JUMPI DUP1 PUSH4 0x715018A6 EQ PUSH2 0x135 JUMPI DUP1 PUSH4 0x8DA5CB5B EQ PUSH2 0x13F JUMPI DUP1 PUSH4 0x9F63EA98 EQ PUSH2 0x15D JUMPI JUMPDEST PUSH1 0x0 DUP1 REVERT JUMPDEST PUSH2 0xD3 PUSH1 0x4 DUP1 CALLDATASIZE SUB DUP2 ADD SWAP1 PUSH2 0xCE SWAP2 SWAP1 PUSH2 0x1A70 JUMP JUMPDEST PUSH2 0x239 JUMP JUMPDEST STOP JUMPDEST PUSH2 0xEF PUSH1 0x4 DUP1 CALLDATASIZE SUB DUP2 ADD SWAP1 PUSH2 0xEA SWAP2 SWAP1 PUSH2 0x1B32 JUMP JUMPDEST PUSH2 0x7BA JUMP JUMPDEST PUSH1 0x40 MLOAD PUSH2 0xFC SWAP2 SWAP1 PUSH2 0x1B8D JUMP JUMPDEST PUSH1 0x40 MLOAD DUP1 SWAP2 SUB SWAP1 RETURN JUMPDEST PUSH2 0x11F PUSH1 0x4 DUP1 CALLDATASIZE SUB DUP2 ADD SWAP1 PUSH2 0x11A SWAP2 SWAP1 PUSH2 0x1BA8 JUMP JUMPDEST PUSH2 0x8ED JUMP JUMPDEST PUSH1 0x40 MLOAD PUSH2 0x12C SWAP2 SWAP1 PUSH2 0x1CE3 JUMP JUMPDEST PUSH1 0x40 MLOAD DUP1 SWAP2 SUB SWAP1 RETURN JUMPDEST PUSH2 0x13D PUSH2 0x98E JUMP JUMPDEST STOP JUMPDEST PUSH2 0x147 PUSH2 0x9A2 JUMP JUMPDEST PUSH1 0x40 MLOAD PUSH2 0x154 SWAP2 SWAP1 PUSH2 0x1D14 JUMP JUMPDEST PUSH1 0x40 MLOAD DUP1 SWAP2 SUB SWAP1 RETURN JUMPDEST PUSH2 0x177 PUSH1 0x4 DUP1 CALLDATASIZE SUB DUP2 ADD SWAP1 PUSH2 0x172 SWAP2 SWAP1 PUSH2 0x1A70 JUMP JUMPDEST PUSH2 0x9CC JUMP JUMPDEST STOP JUMPDEST PUSH2 0x193 PUSH1 0x4 DUP1 CALLDATASIZE SUB DUP2 ADD SWAP1 PUSH2 0x18E SWAP2 SWAP1 PUSH2 0x1D2F JUMP JUMPDEST PUSH2 0xD53 JUMP JUMPDEST STOP JUMPDEST PUSH2 0x1AF PUSH1 0x4 DUP1 CALLDATASIZE SUB DUP2 ADD SWAP1 PUSH2 0x1AA SWAP2 SWAP1 PUSH2 0x1D2F JUMP JUMPDEST PUSH2 0x1313 JUMP JUMPDEST PUSH1 0x40 MLOAD PUSH2 0x1BC SWAP2 SWAP1 PUSH2 0x1E1A JUMP JUMPDEST PUSH1 0x40 MLOAD DUP1 SWAP2 SUB SWAP1 RETURN JUMPDEST PUSH2 0x1CD PUSH2 0x142F JUMP JUMPDEST PUSH1 0x40 MLOAD PUSH2 0x1DA SWAP2 SWAP1 PUSH2 0x1CE3 JUMP JUMPDEST PUSH1 0x40 MLOAD DUP1 SWAP2 SUB SWAP1 RETURN JUMPDEST PUSH2 0x1EB PUSH2 0x14BD JUMP JUMPDEST STOP JUMPDEST PUSH2 0x207 PUSH1 0x4 DUP1 CALLDATASIZE SUB DUP2 ADD SWAP1 PUSH2 0x202 SWAP2 SWAP1 PUSH2 0x1E3C JUMP JUMPDEST PUSH2 0x15FB JUMP JUMPDEST PUSH1 0x40 MLOAD PUSH2 0x214 SWAP2 SWAP1 PUSH2 0x1B8D JUMP JUMPDEST PUSH1 0x40 MLOAD DUP1 SWAP2 SUB SWAP1 RETURN JUMPDEST PUSH2 0x237 PUSH1 0x4 DUP1 CALLDATASIZE SUB DUP2 ADD SWAP1 PUSH2 0x232 SWAP2 SWAP1 PUSH2 0x1E3C JUMP JUMPDEST PUSH2 0x165A JUMP JUMPDEST STOP JUMPDEST PUSH2 0x241 PUSH2 0x16DD JUMP JUMPDEST PUSH1 0x0 PUSH20 0xFFFFFFFFFFFFFFFFFFFFFFFFFFFFFFFFFFFFFFFF AND DUP4 PUSH20 0xFFFFFFFFFFFFFFFFFFFFFFFFFFFFFFFFFFFFFFFF AND SUB PUSH2 0x2B0 JUMPI PUSH1 0x40 MLOAD PUSH32 0x8C379A000000000000000000000000000000000000000000000000000000000 DUP2 MSTORE PUSH1 0x4 ADD PUSH2 0x2A7 SWAP1 PUSH2 0x1EC6 JUMP JUMPDEST PUSH1 0x40 MLOAD DUP1 SWAP2 SUB SWAP1 REVERT JUMPDEST PUSH1 0x0 PUSH1 0x66 PUSH1 0x0 DUP6 PUSH20 0xFFFFFFFFFFFFFFFFFFFFFFFFFFFFFFFFFFFFFFFF AND PUSH20 0xFFFFFFFFFFFFFFFFFFFFFFFFFFFFFFFFFFFFFFFF AND DUP2 MSTORE PUSH1 0x20 ADD SWAP1 DUP2 MSTORE PUSH1 0x20 ADD PUSH1 0x0 KECCAK256 DUP1 SLOAD SWAP1 POP SUB PUSH2 0x335 JUMPI PUSH1 0x40 MLOAD PUSH32 0x8C379A000000000000000000000000000000000000000000000000000000000 DUP2 MSTORE PUSH1 0x4 ADD PUSH2 0x32C SWAP1 PUSH2 0x1F32 JUMP JUMPDEST PUSH1 0x40 MLOAD DUP1 SWAP2 SUB SWAP1 REVERT JUMPDEST PUSH1 0xF DUP3 DUP3 SWAP1 POP GT ISZERO PUSH2 0x37C JUMPI PUSH1 0x40 MLOAD PUSH32 0x8C379A000000000000000000000000000000000000000000000000000000000 DUP2 MSTORE PUSH1 0x4 ADD PUSH2 0x373 SWAP1 PUSH2 0x1FC4 JUMP JUMPDEST PUSH1 0x40 MLOAD DUP1 SWAP2 SUB SWAP1 REVERT JUMPDEST PUSH1 0x0 DUP3 DUP3 SWAP1 POP GT PUSH2 0x3C2 JUMPI PUSH1 0x40 MLOAD PUSH32 0x8C379A000000000000000000000000000000000000000000000000000000000 DUP2 MSTORE PUSH1 0x4 ADD PUSH2 0x3B9 SWAP1 PUSH2 0x2030 JUMP JUMPDEST PUSH1 0x40 MLOAD DUP1 SWAP2 SUB SWAP1 REVERT JUMPDEST PUSH1 0x0 JUMPDEST PUSH1 0x66 PUSH1 0x0 DUP6 PUSH20 0xFFFFFFFFFFFFFFFFFFFFFFFFFFFFFFFFFFFFFFFF AND PUSH20 0xFFFFFFFFFFFFFFFFFFFFFFFFFFFFFFFFFFFFFFFF AND DUP2 MSTORE PUSH1 0x20 ADD SWAP1 DUP2 MSTORE PUSH1 0x20 ADD PUSH1 0x0 KECCAK256 DUP1 SLOAD SWAP1 POP DUP2 LT ISZERO PUSH2 0x666 JUMPI PUSH1 0x0 PUSH1 0x66 PUSH1 0x0 DUP7 PUSH20 0xFFFFFFFFFFFFFFFFFFFFFFFFFFFFFFFFFFFFFFFF AND PUSH20 0xFFFFFFFFFFFFFFFFFFFFFFFFFFFFFFFFFFFFFFFF AND DUP2 MSTORE PUSH1 0x20 ADD SWAP1 DUP2 MSTORE PUSH1 0x20 ADD PUSH1 0x0 KECCAK256 DUP3 DUP2 SLOAD DUP2 LT PUSH2 0x462 JUMPI PUSH2 0x461 PUSH2 0x2050 JUMP JUMPDEST JUMPDEST SWAP1 PUSH1 0x0 MSTORE PUSH1 0x20 PUSH1 0x0 KECCAK256 ADD SLOAD SWAP1 POP PUSH1 0x0 PUSH1 0x67 PUSH1 0x0 DUP4 DUP2 MSTORE PUSH1 0x20 ADD SWAP1 DUP2 MSTORE PUSH1 0x20 ADD PUSH1 0x0 KECCAK256 DUP1 SLOAD SWAP1 POP SWAP1 POP PUSH1 0x0 JUMPDEST DUP2 DUP2 LT ISZERO PUSH2 0x650 JUMPI DUP7 PUSH20 0xFFFFFFFFFFFFFFFFFFFFFFFFFFFFFFFFFFFFFFFF AND PUSH1 0x67 PUSH1 0x0 DUP6 DUP2 MSTORE PUSH1 0x20 ADD SWAP1 DUP2 MSTORE PUSH1 0x20 ADD PUSH1 0x0 KECCAK256 DUP3 DUP2 SLOAD DUP2 LT PUSH2 0x4D1 JUMPI PUSH2 0x4D0 PUSH2 0x2050 JUMP JUMPDEST JUMPDEST SWAP1 PUSH1 0x0 MSTORE PUSH1 0x20 PUSH1 0x0 KECCAK256 ADD PUSH1 0x0 SWAP1 SLOAD SWAP1 PUSH2 0x100 EXP SWAP1 DIV PUSH20 0xFFFFFFFFFFFFFFFFFFFFFFFFFFFFFFFFFFFFFFFF AND PUSH20 0xFFFFFFFFFFFFFFFFFFFFFFFFFFFFFFFFFFFFFFFF AND SUB PUSH2 0x63D JUMPI PUSH1 0x67 PUSH1 0x0 DUP5 DUP2 MSTORE PUSH1 0x20 ADD SWAP1 DUP2 MSTORE PUSH1 0x20 ADD PUSH1 0x0 KECCAK256 PUSH1 0x1 DUP4 PUSH2 0x537 SWAP2 SWAP1 PUSH2 0x20AE JUMP JUMPDEST DUP2 SLOAD DUP2 LT PUSH2 0x548 JUMPI PUSH2 0x547 PUSH2 0x2050 JUMP JUMPDEST JUMPDEST SWAP1 PUSH1 0x0 MSTORE PUSH1 0x20 PUSH1 0x0 KECCAK256 ADD PUSH1 0x0 SWAP1 SLOAD SWAP1 PUSH2 0x100 EXP SWAP1 DIV PUSH20 0xFFFFFFFFFFFFFFFFFFFFFFFFFFFFFFFFFFFFFFFF AND PUSH1 0x67 PUSH1 0x0 DUP6 DUP2 MSTORE PUSH1 0x20 ADD SWAP1 DUP2 MSTORE PUSH1 0x20 ADD PUSH1 0x0 KECCAK256 DUP3 DUP2 SLOAD DUP2 LT PUSH2 0x598 JUMPI PUSH2 0x597 PUSH2 0x2050 JUMP JUMPDEST JUMPDEST SWAP1 PUSH1 0x0 MSTORE PUSH1 0x20 PUSH1 0x0 KECCAK256 ADD PUSH1 0x0 PUSH2 0x100 EXP DUP2 SLOAD DUP2 PUSH20 0xFFFFFFFFFFFFFFFFFFFFFFFFFFFFFFFFFFFFFFFF MUL NOT AND SWAP1 DUP4 PUSH20 0xFFFFFFFFFFFFFFFFFFFFFFFFFFFFFFFFFFFFFFFF AND MUL OR SWAP1 SSTORE POP PUSH1 0x67 PUSH1 0x0 DUP5 DUP2 MSTORE PUSH1 0x20 ADD SWAP1 DUP2 MSTORE PUSH1 0x20 ADD PUSH1 0x0 KECCAK256 DUP1 SLOAD DUP1 PUSH2 0x603 JUMPI PUSH2 0x602 PUSH2 0x20E2 JUMP JUMPDEST JUMPDEST PUSH1 0x1 SWAP1 SUB DUP2 DUP2 SWAP1 PUSH1 0x0 MSTORE PUSH1 0x20 PUSH1 0x0 KECCAK256 ADD PUSH1 0x0 PUSH2 0x100 EXP DUP2 SLOAD SWAP1 PUSH20 0xFFFFFFFFFFFFFFFFFFFFFFFFFFFFFFFFFFFFFFFF MUL NOT AND SWAP1 SSTORE SWAP1 SSTORE PUSH2 0x650 JUMP JUMPDEST DUP1 DUP1 PUSH2 0x648 SWAP1 PUSH2 0x2111 JUMP JUMPDEST SWAP2 POP POP PUSH2 0x48D JUMP JUMPDEST POP POP POP DUP1 DUP1 PUSH2 0x65E SWAP1 PUSH2 0x2111 JUMP JUMPDEST SWAP2 POP POP PUSH2 0x3C5 JUMP JUMPDEST POP DUP2 DUP2 PUSH1 0x66 PUSH1 0x0 DUP7 PUSH20 0xFFFFFFFFFFFFFFFFFFFFFFFFFFFFFFFFFFFFFFFF AND PUSH20 0xFFFFFFFFFFFFFFFFFFFFFFFFFFFFFFFFFFFFFFFF AND DUP2 MSTORE PUSH1 0x20 ADD SWAP1 DUP2 MSTORE PUSH1 0x20 ADD PUSH1 0x0 KECCAK256 SWAP2 SWAP1 PUSH2 0x6B5 SWAP3 SWAP2 SWAP1 PUSH2 0x1906 JUMP JUMPDEST POP PUSH1 0x0 JUMPDEST DUP3 DUP3 SWAP1 POP DUP2 LT ISZERO PUSH2 0x764 JUMPI PUSH1 0x67 PUSH1 0x0 DUP5 DUP5 DUP5 DUP2 DUP2 LT PUSH2 0x6DB JUMPI PUSH2 0x6DA PUSH2 0x2050 JUMP JUMPDEST JUMPDEST SWAP1 POP PUSH1 0x20 MUL ADD CALLDATALOAD DUP2 MSTORE PUSH1 0x20 ADD SWAP1 DUP2 MSTORE PUSH1 0x20 ADD PUSH1 0x0 KECCAK256 DUP5 SWAP1 DUP1 PUSH1 0x1 DUP2 SLOAD ADD DUP1 DUP3 SSTORE DUP1 SWAP2 POP POP PUSH1 0x1 SWAP1 SUB SWAP1 PUSH1 0x0 MSTORE PUSH1 0x20 PUSH1 0x0 KECCAK256 ADD PUSH1 0x0 SWAP1 SWAP2 SWAP1 SWAP2 SWAP1 SWAP2 PUSH2 0x100 EXP DUP2 SLOAD DUP2 PUSH20 0xFFFFFFFFFFFFFFFFFFFFFFFFFFFFFFFFFFFFFFFF MUL NOT AND SWAP1 DUP4 PUSH20 0xFFFFFFFFFFFFFFFFFFFFFFFFFFFFFFFFFFFFFFFF AND MUL OR SWAP1 SSTORE POP DUP1 DUP1 PUSH2 0x75C SWAP1 PUSH2 0x2111 JUMP JUMPDEST SWAP2 POP POP PUSH2 0x6B9 JUMP JUMPDEST POP DUP3 PUSH20 0xFFFFFFFFFFFFFFFFFFFFFFFFFFFFFFFFFFFFFFFF AND PUSH32 0xEC753CFC52044F61676F18A11E500093A9F2B1CD5E4942BC476F2B0438159BCF DUP4 DUP4 PUSH1 0x40 MLOAD PUSH2 0x7AD SWAP3 SWAP2 SWAP1 PUSH2 0x21C3 JUMP JUMPDEST PUSH1 0x40 MLOAD DUP1 SWAP2 SUB SWAP1 LOG2 POP POP POP JUMP JUMPDEST PUSH1 0x0 DUP1 PUSH1 0x66 PUSH1 0x0 DUP6 PUSH20 0xFFFFFFFFFFFFFFFFFFFFFFFFFFFFFFFFFFFFFFFF AND PUSH20 0xFFFFFFFFFFFFFFFFFFFFFFFFFFFFFFFFFFFFFFFF AND DUP2 MSTORE PUSH1 0x20 ADD SWAP1 DUP2 MSTORE PUSH1 0x20 ADD PUSH1 0x0 KECCAK256 DUP1 SLOAD SWAP1 POP SWAP1 POP PUSH1 0x0 PUSH1 0x66 PUSH1 0x0 DUP7 PUSH20 0xFFFFFFFFFFFFFFFFFFFFFFFFFFFFFFFFFFFFFFFF AND PUSH20 0xFFFFFFFFFFFFFFFFFFFFFFFFFFFFFFFFFFFFFFFF AND DUP2 MSTORE PUSH1 0x20 ADD SWAP1 DUP2 MSTORE PUSH1 0x20 ADD PUSH1 0x0 KECCAK256 DUP1 SLOAD DUP1 PUSH1 0x20 MUL PUSH1 0x20 ADD PUSH1 0x40 MLOAD SWAP1 DUP2 ADD PUSH1 0x40 MSTORE DUP1 SWAP3 SWAP2 SWAP1 DUP2 DUP2 MSTORE PUSH1 0x20 ADD DUP3 DUP1 SLOAD DUP1 ISZERO PUSH2 0x88D JUMPI PUSH1 0x20 MUL DUP3 ADD SWAP2 SWAP1 PUSH1 0x0 MSTORE PUSH1 0x20 PUSH1 0x0 KECCAK256 SWAP1 JUMPDEST DUP2 SLOAD DUP2 MSTORE PUSH1 0x20 ADD SWAP1 PUSH1 0x1 ADD SWAP1 DUP1 DUP4 GT PUSH2 0x879 JUMPI JUMPDEST POP POP POP POP POP SWAP1 POP PUSH1 0x0 JUMPDEST DUP3 DUP2 LT ISZERO PUSH2 0x8DF JUMPI DUP5 DUP3 DUP3 DUP2 MLOAD DUP2 LT PUSH2 0x8B3 JUMPI PUSH2 0x8B2 PUSH2 0x2050 JUMP JUMPDEST JUMPDEST PUSH1 0x20 MUL PUSH1 0x20 ADD ADD MLOAD SUB PUSH2 0x8CC JUMPI PUSH1 0x1 SWAP4 POP POP POP POP PUSH2 0x8E7 JUMP JUMPDEST DUP1 DUP1 PUSH2 0x8D7 SWAP1 PUSH2 0x2111 JUMP JUMPDEST SWAP2 POP POP PUSH2 0x897 JUMP JUMPDEST POP PUSH1 0x0 SWAP3 POP POP POP JUMPDEST SWAP3 SWAP2 POP POP JUMP JUMPDEST PUSH1 0x60 PUSH1 0x67 PUSH1 0x0 DUP4 DUP2 MSTORE PUSH1 0x20 ADD SWAP1 DUP2 MSTORE PUSH1 0x20 ADD PUSH1 0x0 KECCAK256 DUP1 SLOAD DUP1 PUSH1 0x20 MUL PUSH1 0x20 ADD PUSH1 0x40 MLOAD SWAP1 DUP2 ADD PUSH1 0x40 MSTORE DUP1 SWAP3 SWAP2 SWAP1 DUP2 DUP2 MSTORE PUSH1 0x20 ADD DUP3 DUP1 SLOAD DUP1 ISZERO PUSH2 0x982 JUMPI PUSH1 0x20 MUL DUP3 ADD SWAP2 SWAP1 PUSH1 0x0 MSTORE PUSH1 0x20 PUSH1 0x0 KECCAK256 SWAP1 JUMPDEST DUP2 PUSH1 0x0 SWAP1 SLOAD SWAP1 PUSH2 0x100 EXP SWAP1 DIV PUSH20 0xFFFFFFFFFFFFFFFFFFFFFFFFFFFFFFFFFFFFFFFF AND PUSH20 0xFFFFFFFFFFFFFFFFFFFFFFFFFFFFFFFFFFFFFFFF AND DUP2 MSTORE PUSH1 0x20 ADD SWAP1 PUSH1 0x1 ADD SWAP1 DUP1 DUP4 GT PUSH2 0x938 JUMPI JUMPDEST POP POP POP POP POP SWAP1 POP SWAP2 SWAP1 POP JUMP JUMPDEST PUSH2 0x996 PUSH2 0x16DD JUMP JUMPDEST PUSH2 0x9A0 PUSH1 0x0 PUSH2 0x175B JUMP JUMPDEST JUMP JUMPDEST PUSH1 0x0 PUSH1 0x33 PUSH1 0x0 SWAP1 SLOAD SWAP1 PUSH2 0x100 EXP SWAP1 DIV PUSH20 0xFFFFFFFFFFFFFFFFFFFFFFFFFFFFFFFFFFFFFFFF AND SWAP1 POP SWAP1 JUMP JUMPDEST PUSH2 0x9D4 PUSH2 0x16DD JUMP JUMPDEST PUSH1 0x0 PUSH20 0xFFFFFFFFFFFFFFFFFFFFFFFFFFFFFFFFFFFFFFFF AND DUP4 PUSH20 0xFFFFFFFFFFFFFFFFFFFFFFFFFFFFFFFFFFFFFFFF AND SUB PUSH2 0xA43 JUMPI PUSH1 0x40 MLOAD PUSH32 0x8C379A000000000000000000000000000000000000000000000000000000000 DUP2 MSTORE PUSH1 0x4 ADD PUSH2 0xA3A SWAP1 PUSH2 0x1EC6 JUMP JUMPDEST PUSH1 0x40 MLOAD DUP1 SWAP2 SUB SWAP1 REVERT JUMPDEST PUSH1 0x0 PUSH1 0x66 PUSH1 0x0 DUP6 PUSH20 0xFFFFFFFFFFFFFFFFFFFFFFFFFFFFFFFFFFFFFFFF AND PUSH20 0xFFFFFFFFFFFFFFFFFFFFFFFFFFFFFFFFFFFFFFFF AND DUP2 MSTORE PUSH1 0x20 ADD SWAP1 DUP2 MSTORE PUSH1 0x20 ADD PUSH1 0x0 KECCAK256 DUP1 SLOAD SWAP1 POP EQ PUSH2 0xAC8 JUMPI PUSH1 0x40 MLOAD PUSH32 0x8C379A000000000000000000000000000000000000000000000000000000000 DUP2 MSTORE PUSH1 0x4 ADD PUSH2 0xABF SWAP1 PUSH2 0x2233 JUMP JUMPDEST PUSH1 0x40 MLOAD DUP1 SWAP2 SUB SWAP1 REVERT JUMPDEST PUSH1 0x0 DUP3 DUP3 SWAP1 POP GT PUSH2 0xB0E JUMPI PUSH1 0x40 MLOAD PUSH32 0x8C379A000000000000000000000000000000000000000000000000000000000 DUP2 MSTORE PUSH1 0x4 ADD PUSH2 0xB05 SWAP1 PUSH2 0x22C5 JUMP JUMPDEST PUSH1 0x40 MLOAD DUP1 SWAP2 SUB SWAP1 REVERT JUMPDEST PUSH1 0xF DUP3 DUP3 SWAP1 POP GT ISZERO PUSH2 0xB55 JUMPI PUSH1 0x40 MLOAD PUSH32 0x8C379A000000000000000000000000000000000000000000000000000000000 DUP2 MSTORE PUSH1 0x4 ADD PUSH2 0xB4C SWAP1 PUSH2 0x1FC4 JUMP JUMPDEST PUSH1 0x40 MLOAD DUP1 SWAP2 SUB SWAP1 REVERT JUMPDEST PUSH1 0x32 PUSH1 0x65 DUP1 SLOAD SWAP1 POP LT PUSH2 0xB9D JUMPI PUSH1 0x40 MLOAD PUSH32 0x8C379A000000000000000000000000000000000000000000000000000000000 DUP2 MSTORE PUSH1 0x4 ADD PUSH2 0xB94 SWAP1 PUSH2 0x2357 JUMP JUMPDEST PUSH1 0x40 MLOAD DUP1 SWAP2 SUB SWAP1 REVERT JUMPDEST PUSH1 0x65 DUP4 SWAP1 DUP1 PUSH1 0x1 DUP2 SLOAD ADD DUP1 DUP3 SSTORE DUP1 SWAP2 POP POP PUSH1 0x1 SWAP1 SUB SWAP1 PUSH1 0x0 MSTORE PUSH1 0x20 PUSH1 0x0 KECCAK256 ADD PUSH1 0x0 SWAP1 SWAP2 SWAP1 SWAP2 SWAP1 SWAP2 PUSH2 0x100 EXP DUP2 SLOAD DUP2 PUSH20 0xFFFFFFFFFFFFFFFFFFFFFFFFFFFFFFFFFFFFFFFF MUL NOT AND SWAP1 DUP4 PUSH20 0xFFFFFFFFFFFFFFFFFFFFFFFFFFFFFFFFFFFFFFFF AND MUL OR SWAP1 SSTORE POP DUP2 DUP2 PUSH1 0x66 PUSH1 0x0 DUP7 PUSH20 0xFFFFFFFFFFFFFFFFFFFFFFFFFFFFFFFFFFFFFFFF AND PUSH20 0xFFFFFFFFFFFFFFFFFFFFFFFFFFFFFFFFFFFFFFFF AND DUP2 MSTORE PUSH1 0x20 ADD SWAP1 DUP2 MSTORE PUSH1 0x20 ADD PUSH1 0x0 KECCAK256 SWAP2 SWAP1 PUSH2 0xC4E SWAP3 SWAP2 SWAP1 PUSH2 0x1906 JUMP JUMPDEST POP PUSH1 0x0 JUMPDEST DUP3 DUP3 SWAP1 POP DUP2 LT ISZERO PUSH2 0xCFD JUMPI PUSH1 0x67 PUSH1 0x0 DUP5 DUP5 DUP5 DUP2 DUP2 LT PUSH2 0xC74 JUMPI PUSH2 0xC73 PUSH2 0x2050 JUMP JUMPDEST JUMPDEST SWAP1 POP PUSH1 0x20 MUL ADD CALLDATALOAD DUP2 MSTORE PUSH1 0x20 ADD SWAP1 DUP2 MSTORE PUSH1 0x20 ADD PUSH1 0x0 KECCAK256 DUP5 SWAP1 DUP1 PUSH1 0x1 DUP2 SLOAD ADD DUP1 DUP3 SSTORE DUP1 SWAP2 POP POP PUSH1 0x1 SWAP1 SUB SWAP1 PUSH1 0x0 MSTORE PUSH1 0x20 PUSH1 0x0 KECCAK256 ADD PUSH1 0x0 SWAP1 SWAP2 SWAP1 SWAP2 SWAP1 SWAP2 PUSH2 0x100 EXP DUP2 SLOAD DUP2 PUSH20 0xFFFFFFFFFFFFFFFFFFFFFFFFFFFFFFFFFFFFFFFF MUL NOT AND SWAP1 DUP4 PUSH20 0xFFFFFFFFFFFFFFFFFFFFFFFFFFFFFFFFFFFFFFFF AND MUL OR SWAP1 SSTORE POP DUP1 DUP1 PUSH2 0xCF5 SWAP1 PUSH2 0x2111 JUMP JUMPDEST SWAP2 POP POP PUSH2 0xC52 JUMP JUMPDEST POP DUP3 PUSH20 0xFFFFFFFFFFFFFFFFFFFFFFFFFFFFFFFFFFFFFFFF AND PUSH32 0xFEDC33FD34859594822C0FF6F3F4F9FC279CC6D5CAE53068F706A088E4500872 DUP4 DUP4 PUSH1 0x40 MLOAD PUSH2 0xD46 SWAP3 SWAP2 SWAP1 PUSH2 0x21C3 JUMP JUMPDEST PUSH1 0x40 MLOAD DUP1 SWAP2 SUB SWAP1 LOG2 POP POP POP JUMP JUMPDEST PUSH2 0xD5B PUSH2 0x16DD JUMP JUMPDEST PUSH1 0x0 PUSH20 0xFFFFFFFFFFFFFFFFFFFFFFFFFFFFFFFFFFFFFFFF AND DUP2 PUSH20 0xFFFFFFFFFFFFFFFFFFFFFFFFFFFFFFFFFFFFFFFF AND SUB PUSH2 0xDCA JUMPI PUSH1 0x40 MLOAD PUSH32 0x8C379A000000000000000000000000000000000000000000000000000000000 DUP2 MSTORE PUSH1 0x4 ADD PUSH2 0xDC1 SWAP1 PUSH2 0x1EC6 JUMP JUMPDEST PUSH1 0x40 MLOAD DUP1 SWAP2 SUB SWAP1 REVERT JUMPDEST PUSH1 0x0 PUSH1 0x66 PUSH1 0x0 DUP4 PUSH20 0xFFFFFFFFFFFFFFFFFFFFFFFFFFFFFFFFFFFFFFFF AND PUSH20 0xFFFFFFFFFFFFFFFFFFFFFFFFFFFFFFFFFFFFFFFF AND DUP2 MSTORE PUSH1 0x20 ADD SWAP1 DUP2 MSTORE PUSH1 0x20 ADD PUSH1 0x0 KECCAK256 DUP1 SLOAD SWAP1 POP SUB PUSH2 0xE4F JUMPI PUSH1 0x40 MLOAD PUSH32 0x8C379A000000000000000000000000000000000000000000000000000000000 DUP2 MSTORE PUSH1 0x4 ADD PUSH2 0xE46 SWAP1 PUSH2 0x1F32 JUMP JUMPDEST PUSH1 0x40 MLOAD DUP1 SWAP2 SUB SWAP1 REVERT JUMPDEST PUSH1 0x0 PUSH1 0x65 DUP1 SLOAD SWAP1 POP SWAP1 POP PUSH1 0x0 JUMPDEST DUP2 DUP2 LT ISZERO PUSH2 0xFDB JUMPI DUP3 PUSH20 0xFFFFFFFFFFFFFFFFFFFFFFFFFFFFFFFFFFFFFFFF AND PUSH1 0x65 DUP3 DUP2 SLOAD DUP2 LT PUSH2 0xE8F JUMPI PUSH2 0xE8E PUSH2 0x2050 JUMP JUMPDEST JUMPDEST SWAP1 PUSH1 0x0 MSTORE PUSH1 0x20 PUSH1 0x0 KECCAK256 ADD PUSH1 0x0 SWAP1 SLOAD SWAP1 PUSH2 0x100 EXP SWAP1 DIV PUSH20 0xFFFFFFFFFFFFFFFFFFFFFFFFFFFFFFFFFFFFFFFF AND PUSH20 0xFFFFFFFFFFFFFFFFFFFFFFFFFFFFFFFFFFFFFFFF AND SUB PUSH2 0xFC8 JUMPI PUSH1 0x65 PUSH1 0x1 DUP4 PUSH2 0xEE4 SWAP2 SWAP1 PUSH2 0x20AE JUMP JUMPDEST DUP2 SLOAD DUP2 LT PUSH2 0xEF5 JUMPI PUSH2 0xEF4 PUSH2 0x2050 JUMP JUMPDEST JUMPDEST SWAP1 PUSH1 0x0 MSTORE PUSH1 0x20 PUSH1 0x0 KECCAK256 ADD PUSH1 0x0 SWAP1 SLOAD SWAP1 PUSH2 0x100 EXP SWAP1 DIV PUSH20 0xFFFFFFFFFFFFFFFFFFFFFFFFFFFFFFFFFFFFFFFF AND PUSH1 0x65 DUP3 DUP2 SLOAD DUP2 LT PUSH2 0xF34 JUMPI PUSH2 0xF33 PUSH2 0x2050 JUMP JUMPDEST JUMPDEST SWAP1 PUSH1 0x0 MSTORE PUSH1 0x20 PUSH1 0x0 KECCAK256 ADD PUSH1 0x0 PUSH2 0x100 EXP DUP2 SLOAD DUP2 PUSH20 0xFFFFFFFFFFFFFFFFFFFFFFFFFFFFFFFFFFFFFFFF MUL NOT AND SWAP1 DUP4 PUSH20 0xFFFFFFFFFFFFFFFFFFFFFFFFFFFFFFFFFFFFFFFF AND MUL OR SWAP1 SSTORE POP PUSH1 0x65 DUP1 SLOAD DUP1 PUSH2 0xF8E JUMPI PUSH2 0xF8D PUSH2 0x20E2 JUMP JUMPDEST JUMPDEST PUSH1 0x1 SWAP1 SUB DUP2 DUP2 SWAP1 PUSH1 0x0 MSTORE PUSH1 0x20 PUSH1 0x0 KECCAK256 ADD PUSH1 0x0 PUSH2 0x100 EXP DUP2 SLOAD SWAP1 PUSH20 0xFFFFFFFFFFFFFFFFFFFFFFFFFFFFFFFFFFFFFFFF MUL NOT AND SWAP1 SSTORE SWAP1 SSTORE PUSH2 0xFDB JUMP JUMPDEST DUP1 DUP1 PUSH2 0xFD3 SWAP1 PUSH2 0x2111 JUMP JUMPDEST SWAP2 POP POP PUSH2 0xE5C JUMP JUMPDEST POP PUSH1 0x0 JUMPDEST PUSH1 0x66 PUSH1 0x0 DUP5 PUSH20 0xFFFFFFFFFFFFFFFFFFFFFFFFFFFFFFFFFFFFFFFF AND PUSH20 0xFFFFFFFFFFFFFFFFFFFFFFFFFFFFFFFFFFFFFFFF AND DUP2 MSTORE PUSH1 0x20 ADD SWAP1 DUP2 MSTORE PUSH1 0x20 ADD PUSH1 0x0 KECCAK256 DUP1 SLOAD SWAP1 POP DUP2 LT ISZERO PUSH2 0x1280 JUMPI PUSH1 0x0 PUSH1 0x66 PUSH1 0x0 DUP6 PUSH20 0xFFFFFFFFFFFFFFFFFFFFFFFFFFFFFFFFFFFFFFFF AND PUSH20 0xFFFFFFFFFFFFFFFFFFFFFFFFFFFFFFFFFFFFFFFF AND DUP2 MSTORE PUSH1 0x20 ADD SWAP1 DUP2 MSTORE PUSH1 0x20 ADD PUSH1 0x0 KECCAK256 DUP3 DUP2 SLOAD DUP2 LT PUSH2 0x107C JUMPI PUSH2 0x107B PUSH2 0x2050 JUMP JUMPDEST JUMPDEST SWAP1 PUSH1 0x0 MSTORE PUSH1 0x20 PUSH1 0x0 KECCAK256 ADD SLOAD SWAP1 POP PUSH1 0x0 PUSH1 0x67 PUSH1 0x0 DUP4 DUP2 MSTORE PUSH1 0x20 ADD SWAP1 DUP2 MSTORE PUSH1 0x20 ADD PUSH1 0x0 KECCAK256 DUP1 SLOAD SWAP1 POP SWAP1 POP PUSH1 0x0 JUMPDEST DUP2 DUP2 LT ISZERO PUSH2 0x126A JUMPI DUP6 PUSH20 0xFFFFFFFFFFFFFFFFFFFFFFFFFFFFFFFFFFFFFFFF AND PUSH1 0x67 PUSH1 0x0 DUP6 DUP2 MSTORE PUSH1 0x20 ADD SWAP1 DUP2 MSTORE PUSH1 0x20 ADD PUSH1 0x0 KECCAK256 DUP3 DUP2 SLOAD DUP2 LT PUSH2 0x10EB JUMPI PUSH2 0x10EA PUSH2 0x2050 JUMP JUMPDEST JUMPDEST SWAP1 PUSH1 0x0 MSTORE PUSH1 0x20 PUSH1 0x0 KECCAK256 ADD PUSH1 0x0 SWAP1 SLOAD SWAP1 PUSH2 0x100 EXP SWAP1 DIV PUSH20 0xFFFFFFFFFFFFFFFFFFFFFFFFFFFFFFFFFFFFFFFF AND PUSH20 0xFFFFFFFFFFFFFFFFFFFFFFFFFFFFFFFFFFFFFFFF AND SUB PUSH2 0x1257 JUMPI PUSH1 0x67 PUSH1 0x0 DUP5 DUP2 MSTORE PUSH1 0x20 ADD SWAP1 DUP2 MSTORE PUSH1 0x20 ADD PUSH1 0x0 KECCAK256 PUSH1 0x1 DUP4 PUSH2 0x1151 SWAP2 SWAP1 PUSH2 0x20AE JUMP JUMPDEST DUP2 SLOAD DUP2 LT PUSH2 0x1162 JUMPI PUSH2 0x1161 PUSH2 0x2050 JUMP JUMPDEST JUMPDEST SWAP1 PUSH1 0x0 MSTORE PUSH1 0x20 PUSH1 0x0 KECCAK256 ADD PUSH1 0x0 SWAP1 SLOAD SWAP1 PUSH2 0x100 EXP SWAP1 DIV PUSH20 0xFFFFFFFFFFFFFFFFFFFFFFFFFFFFFFFFFFFFFFFF AND PUSH1 0x67 PUSH1 0x0 DUP6 DUP2 MSTORE PUSH1 0x20 ADD SWAP1 DUP2 MSTORE PUSH1 0x20 ADD PUSH1 0x0 KECCAK256 DUP3 DUP2 SLOAD DUP2 LT PUSH2 0x11B2 JUMPI PUSH2 0x11B1 PUSH2 0x2050 JUMP JUMPDEST JUMPDEST SWAP1 PUSH1 0x0 MSTORE PUSH1 0x20 PUSH1 0x0 KECCAK256 ADD PUSH1 0x0 PUSH2 0x100 EXP DUP2 SLOAD DUP2 PUSH20 0xFFFFFFFFFFFFFFFFFFFFFFFFFFFFFFFFFFFFFFFF MUL NOT AND SWAP1 DUP4 PUSH20 0xFFFFFFFFFFFFFFFFFFFFFFFFFFFFFFFFFFFFFFFF AND MUL OR SWAP1 SSTORE POP PUSH1 0x67 PUSH1 0x0 DUP5 DUP2 MSTORE PUSH1 0x20 ADD SWAP1 DUP2 MSTORE PUSH1 0x20 ADD PUSH1 0x0 KECCAK256 DUP1 SLOAD DUP1 PUSH2 0x121D JUMPI PUSH2 0x121C PUSH2 0x20E2 JUMP JUMPDEST JUMPDEST PUSH1 0x1 SWAP1 SUB DUP2 DUP2 SWAP1 PUSH1 0x0 MSTORE PUSH1 0x20 PUSH1 0x0 KECCAK256 ADD PUSH1 0x0 PUSH2 0x100 EXP DUP2 SLOAD SWAP1 PUSH20 0xFFFFFFFFFFFFFFFFFFFFFFFFFFFFFFFFFFFFFFFF MUL NOT AND SWAP1 SSTORE SWAP1 SSTORE PUSH2 0x126A JUMP JUMPDEST DUP1 DUP1 PUSH2 0x1262 SWAP1 PUSH2 0x2111 JUMP JUMPDEST SWAP2 POP POP PUSH2 0x10A7 JUMP JUMPDEST POP POP POP DUP1 DUP1 PUSH2 0x1278 SWAP1 PUSH2 0x2111 JUMP JUMPDEST SWAP2 POP POP PUSH2 0xFDF JUMP JUMPDEST POP PUSH1 0x66 PUSH1 0x0 DUP4 PUSH20 0xFFFFFFFFFFFFFFFFFFFFFFFFFFFFFFFFFFFFFFFF AND PUSH20 0xFFFFFFFFFFFFFFFFFFFFFFFFFFFFFFFFFFFFFFFF AND DUP2 MSTORE PUSH1 0x20 ADD SWAP1 DUP2 MSTORE PUSH1 0x20 ADD PUSH1 0x0 KECCAK256 PUSH1 0x0 PUSH2 0x12CC SWAP2 SWAP1 PUSH2 0x1953 JUMP JUMPDEST DUP2 PUSH20 0xFFFFFFFFFFFFFFFFFFFFFFFFFFFFFFFFFFFFFFFF AND PUSH32 0x2214DED40113CC3FB63FC206CAFEE88270B0A903DAC7245D54EFDDE30EBB0321 PUSH1 0x40 MLOAD PUSH1 0x40 MLOAD DUP1 SWAP2 SUB SWAP1 LOG2 POP POP JUMP JUMPDEST PUSH1 0x60 PUSH1 0x0 PUSH1 0x66 PUSH1 0x0 DUP5 PUSH20 0xFFFFFFFFFFFFFFFFFFFFFFFFFFFFFFFFFFFFFFFF AND PUSH20 0xFFFFFFFFFFFFFFFFFFFFFFFFFFFFFFFFFFFFFFFF AND DUP2 MSTORE PUSH1 0x20 ADD SWAP1 DUP2 MSTORE PUSH1 0x20 ADD PUSH1 0x0 KECCAK256 DUP1 SLOAD SWAP1 POP SUB PUSH2 0x139A JUMPI PUSH1 0x40 MLOAD PUSH32 0x8C379A000000000000000000000000000000000000000000000000000000000 DUP2 MSTORE PUSH1 0x4 ADD PUSH2 0x1391 SWAP1 PUSH2 0x23C3 JUMP JUMPDEST PUSH1 0x40 MLOAD DUP1 SWAP2 SUB SWAP1 REVERT JUMPDEST PUSH1 0x66 PUSH1 0x0 DUP4 PUSH20 0xFFFFFFFFFFFFFFFFFFFFFFFFFFFFFFFFFFFFFFFF AND PUSH20 0xFFFFFFFFFFFFFFFFFFFFFFFFFFFFFFFFFFFFFFFF AND DUP2 MSTORE PUSH1 0x20 ADD SWAP1 DUP2 MSTORE PUSH1 0x20 ADD PUSH1 0x0 KECCAK256 DUP1 SLOAD DUP1 PUSH1 0x20 MUL PUSH1 0x20 ADD PUSH1 0x40 MLOAD SWAP1 DUP2 ADD PUSH1 0x40 MSTORE DUP1 SWAP3 SWAP2 SWAP1 DUP2 DUP2 MSTORE PUSH1 0x20 ADD DUP3 DUP1 SLOAD DUP1 ISZERO PUSH2 0x1423 JUMPI PUSH1 0x20 MUL DUP3 ADD SWAP2 SWAP1 PUSH1 0x0 MSTORE PUSH1 0x20 PUSH1 0x0 KECCAK256 SWAP1 JUMPDEST DUP2 SLOAD DUP2 MSTORE PUSH1 0x20 ADD SWAP1 PUSH1 0x1 ADD SWAP1 DUP1 DUP4 GT PUSH2 0x140F JUMPI JUMPDEST POP POP POP POP POP SWAP1 POP SWAP2 SWAP1 POP JUMP JUMPDEST PUSH1 0x60 PUSH1 0x65 DUP1 SLOAD DUP1 PUSH1 0x20 MUL PUSH1 0x20 ADD PUSH1 0x40 MLOAD SWAP1 DUP2 ADD PUSH1 0x40 MSTORE DUP1 SWAP3 SWAP2 SWAP1 DUP2 DUP2 MSTORE PUSH1 0x20 ADD DUP3 DUP1 SLOAD DUP1 ISZERO PUSH2 0x14B3 JUMPI PUSH1 0x20 MUL DUP3 ADD SWAP2 SWAP1 PUSH1 0x0 MSTORE PUSH1 0x20 PUSH1 0x0 KECCAK256 SWAP1 JUMPDEST DUP2 PUSH1 0x0 SWAP1 SLOAD SWAP1 PUSH2 0x100 EXP SWAP1 DIV PUSH20 0xFFFFFFFFFFFFFFFFFFFFFFFFFFFFFFFFFFFFFFFF AND PUSH20 0xFFFFFFFFFFFFFFFFFFFFFFFFFFFFFFFFFFFFFFFF AND DUP2 MSTORE PUSH1 0x20 ADD SWAP1 PUSH1 0x1 ADD SWAP1 DUP1 DUP4 GT PUSH2 0x1469 JUMPI JUMPDEST POP POP POP POP POP SWAP1 POP SWAP1 JUMP JUMPDEST PUSH1 0x0 DUP1 PUSH1 0x1 SWAP1 SLOAD SWAP1 PUSH2 0x100 EXP SWAP1 DIV PUSH1 0xFF AND ISZERO SWAP1 POP DUP1 DUP1 ISZERO PUSH2 0x14EE JUMPI POP PUSH1 0x1 PUSH1 0x0 DUP1 SLOAD SWAP1 PUSH2 0x100 EXP SWAP1 DIV PUSH1 0xFF AND PUSH1 0xFF AND LT JUMPDEST DUP1 PUSH2 0x151B JUMPI POP PUSH2 0x14FD ADDRESS PUSH2 0x1821 JUMP JUMPDEST ISZERO DUP1 ISZERO PUSH2 0x151A JUMPI POP PUSH1 0x1 PUSH1 0x0 DUP1 SLOAD SWAP1 PUSH2 0x100 EXP SWAP1 DIV PUSH1 0xFF AND PUSH1 0xFF AND EQ JUMPDEST JUMPDEST PUSH2 0x155A JUMPI PUSH1 0x40 MLOAD PUSH32 0x8C379A000000000000000000000000000000000000000000000000000000000 DUP2 MSTORE PUSH1 0x4 ADD PUSH2 0x1551 SWAP1 PUSH2 0x2455 JUMP JUMPDEST PUSH1 0x40 MLOAD DUP1 SWAP2 SUB SWAP1 REVERT JUMPDEST PUSH1 0x1 PUSH1 0x0 DUP1 PUSH2 0x100 EXP DUP2 SLOAD DUP2 PUSH1 0xFF MUL NOT AND SWAP1 DUP4 PUSH1 0xFF AND MUL OR SWAP1 SSTORE POP DUP1 ISZERO PUSH2 0x1597 JUMPI PUSH1 0x1 PUSH1 0x0 PUSH1 0x1 PUSH2 0x100 EXP DUP2 SLOAD DUP2 PUSH1 0xFF MUL NOT AND SWAP1 DUP4 ISZERO ISZERO MUL OR SWAP1 SSTORE POP JUMPDEST PUSH2 0x159F PUSH2 0x1844 JUMP JUMPDEST DUP1 ISZERO PUSH2 0x15F8 JUMPI PUSH1 0x0 DUP1 PUSH1 0x1 PUSH2 0x100 EXP DUP2 SLOAD DUP2 PUSH1 0xFF MUL NOT AND SWAP1 DUP4 ISZERO ISZERO MUL OR SWAP1 SSTORE POP PUSH32 0x7F26B83FF96E1F2B6A682F133852F6798A09C465DA95921460CEFB3847402498 PUSH1 0x1 PUSH1 0x40 MLOAD PUSH2 0x15EF SWAP2 SWAP1 PUSH2 0x24BD JUMP JUMPDEST PUSH1 0x40 MLOAD DUP1 SWAP2 SUB SWAP1 LOG1 JUMPDEST POP JUMP JUMPDEST PUSH1 0x0 DUP1 PUSH1 0x66 PUSH1 0x0 DUP5 PUSH20 0xFFFFFFFFFFFFFFFFFFFFFFFFFFFFFFFFFFFFFFFF AND PUSH20 0xFFFFFFFFFFFFFFFFFFFFFFFFFFFFFFFFFFFFFFFF AND DUP2 MSTORE PUSH1 0x20 ADD SWAP1 DUP2 MSTORE PUSH1 0x20 ADD PUSH1 0x0 KECCAK256 DUP1 SLOAD SWAP1 POP GT ISZERO PUSH2 0x1650 JUMPI PUSH1 0x1 SWAP1 POP PUSH2 0x1655 JUMP JUMPDEST PUSH1 0x0 SWAP1 POP JUMPDEST SWAP2 SWAP1 POP JUMP JUMPDEST PUSH2 0x1662 PUSH2 0x16DD JUMP JUMPDEST PUSH1 0x0 PUSH20 0xFFFFFFFFFFFFFFFFFFFFFFFFFFFFFFFFFFFFFFFF AND DUP2 PUSH20 0xFFFFFFFFFFFFFFFFFFFFFFFFFFFFFFFFFFFFFFFF AND SUB PUSH2 0x16D1 JUMPI PUSH1 0x40 MLOAD PUSH32 0x8C379A000000000000000000000000000000000000000000000000000000000 DUP2 MSTORE PUSH1 0x4 ADD PUSH2 0x16C8 SWAP1 PUSH2 0x254A JUMP JUMPDEST PUSH1 0x40 MLOAD DUP1 SWAP2 SUB SWAP1 REVERT JUMPDEST PUSH2 0x16DA DUP2 PUSH2 0x175B JUMP JUMPDEST POP JUMP JUMPDEST PUSH2 0x16E5 PUSH2 0x189D JUMP JUMPDEST PUSH20 0xFFFFFFFFFFFFFFFFFFFFFFFFFFFFFFFFFFFFFFFF AND PUSH2 0x1703 PUSH2 0x9A2 JUMP JUMPDEST PUSH20 0xFFFFFFFFFFFFFFFFFFFFFFFFFFFFFFFFFFFFFFFF AND EQ PUSH2 0x1759 JUMPI PUSH1 0x40 MLOAD PUSH32 0x8C379A000000000000000000000000000000000000000000000000000000000 DUP2 MSTORE PUSH1 0x4 ADD PUSH2 0x1750 SWAP1 PUSH2 0x25B6 JUMP JUMPDEST PUSH1 0x40 MLOAD DUP1 SWAP2 SUB SWAP1 REVERT JUMPDEST JUMP JUMPDEST PUSH1 0x0 PUSH1 0x33 PUSH1 0x0 SWAP1 SLOAD SWAP1 PUSH2 0x100 EXP SWAP1 DIV PUSH20 0xFFFFFFFFFFFFFFFFFFFFFFFFFFFFFFFFFFFFFFFF AND SWAP1 POP DUP2 PUSH1 0x33 PUSH1 0x0 PUSH2 0x100 EXP DUP2 SLOAD DUP2 PUSH20 0xFFFFFFFFFFFFFFFFFFFFFFFFFFFFFFFFFFFFFFFF MUL NOT AND SWAP1 DUP4 PUSH20 0xFFFFFFFFFFFFFFFFFFFFFFFFFFFFFFFFFFFFFFFF AND MUL OR SWAP1 SSTORE POP DUP2 PUSH20 0xFFFFFFFFFFFFFFFFFFFFFFFFFFFFFFFFFFFFFFFF AND DUP2 PUSH20 0xFFFFFFFFFFFFFFFFFFFFFFFFFFFFFFFFFFFFFFFF AND PUSH32 0x8BE0079C531659141344CD1FD0A4F28419497F9722A3DAAFE3B4186F6B6457E0 PUSH1 0x40 MLOAD PUSH1 0x40 MLOAD DUP1 SWAP2 SUB SWAP1 LOG3 POP POP JUMP JUMPDEST PUSH1 0x0 DUP1 DUP3 PUSH20 0xFFFFFFFFFFFFFFFFFFFFFFFFFFFFFFFFFFFFFFFF AND EXTCODESIZE GT SWAP1 POP SWAP2 SWAP1 POP JUMP JUMPDEST PUSH1 0x0 PUSH1 0x1 SWAP1 SLOAD SWAP1 PUSH2 0x100 EXP SWAP1 DIV PUSH1 0xFF AND PUSH2 0x1893 JUMPI PUSH1 0x40 MLOAD PUSH32 0x8C379A000000000000000000000000000000000000000000000000000000000 DUP2 MSTORE PUSH1 0x4 ADD PUSH2 0x188A SWAP1 PUSH2 0x2648 JUMP JUMPDEST PUSH1 0x40 MLOAD DUP1 SWAP2 SUB SWAP1 REVERT JUMPDEST PUSH2 0x189B PUSH2 0x18A5 JUMP JUMPDEST JUMP JUMPDEST PUSH1 0x0 CALLER SWAP1 POP SWAP1 JUMP JUMPDEST PUSH1 0x0 PUSH1 0x1 SWAP1 SLOAD SWAP1 PUSH2 0x100 EXP SWAP1 DIV PUSH1 0xFF AND PUSH2 0x18F4 JUMPI PUSH1 0x40 MLOAD PUSH32 0x8C379A000000000000000000000000000000000000000000000000000000000 DUP2 MSTORE PUSH1 0x4 ADD PUSH2 0x18EB SWAP1 PUSH2 0x2648 JUMP JUMPDEST PUSH1 0x40 MLOAD DUP1 SWAP2 SUB SWAP1 REVERT JUMPDEST PUSH2 0x1904 PUSH2 0x18FF PUSH2 0x189D JUMP JUMPDEST PUSH2 0x175B JUMP JUMPDEST JUMP JUMPDEST DUP3 DUP1 SLOAD DUP3 DUP3 SSTORE SWAP1 PUSH1 0x0 MSTORE PUSH1 0x20 PUSH1 0x0 KECCAK256 SWAP1 DUP2 ADD SWAP3 DUP3 ISZERO PUSH2 0x1942 JUMPI SWAP2 PUSH1 0x20 MUL DUP3 ADD JUMPDEST DUP3 DUP2 GT ISZERO PUSH2 0x1941 JUMPI DUP3 CALLDATALOAD DUP3 SSTORE SWAP2 PUSH1 0x20 ADD SWAP2 SWAP1 PUSH1 0x1 ADD SWAP1 PUSH2 0x1926 JUMP JUMPDEST JUMPDEST POP SWAP1 POP PUSH2 0x194F SWAP2 SWAP1 PUSH2 0x1974 JUMP JUMPDEST POP SWAP1 JUMP JUMPDEST POP DUP1 SLOAD PUSH1 0x0 DUP3 SSTORE SWAP1 PUSH1 0x0 MSTORE PUSH1 0x20 PUSH1 0x0 KECCAK256 SWAP1 DUP2 ADD SWAP1 PUSH2 0x1971 SWAP2 SWAP1 PUSH2 0x1974 JUMP JUMPDEST POP JUMP JUMPDEST JUMPDEST DUP1 DUP3 GT ISZERO PUSH2 0x198D JUMPI PUSH1 0x0 DUP2 PUSH1 0x0 SWAP1 SSTORE POP PUSH1 0x1 ADD PUSH2 0x1975 JUMP JUMPDEST POP SWAP1 JUMP JUMPDEST PUSH1 0x0 DUP1 REVERT JUMPDEST PUSH1 0x0 DUP1 REVERT JUMPDEST PUSH1 0x0 PUSH20 0xFFFFFFFFFFFFFFFFFFFFFFFFFFFFFFFFFFFFFFFF DUP3 AND SWAP1 POP SWAP2 SWAP1 POP JUMP JUMPDEST PUSH1 0x0 PUSH2 0x19C6 DUP3 PUSH2 0x199B JUMP JUMPDEST SWAP1 POP SWAP2 SWAP1 POP JUMP JUMPDEST PUSH1 0x0 PUSH2 0x19D8 DUP3 PUSH2 0x19BB JUMP JUMPDEST SWAP1 POP SWAP2 SWAP1 POP JUMP JUMPDEST PUSH2 0x19E8 DUP2 PUSH2 0x19CD JUMP JUMPDEST DUP2 EQ PUSH2 0x19F3 JUMPI PUSH1 0x0 DUP1 REVERT JUMPDEST POP JUMP JUMPDEST PUSH1 0x0 DUP2 CALLDATALOAD SWAP1 POP PUSH2 0x1A05 DUP2 PUSH2 0x19DF JUMP JUMPDEST SWAP3 SWAP2 POP POP JUMP JUMPDEST PUSH1 0x0 DUP1 REVERT JUMPDEST PUSH1 0x0 DUP1 REVERT JUMPDEST PUSH1 0x0 DUP1 REVERT JUMPDEST PUSH1 0x0 DUP1 DUP4 PUSH1 0x1F DUP5 ADD SLT PUSH2 0x1A30 JUMPI PUSH2 0x1A2F PUSH2 0x1A0B JUMP JUMPDEST JUMPDEST DUP3 CALLDATALOAD SWAP1 POP PUSH8 0xFFFFFFFFFFFFFFFF DUP2 GT ISZERO PUSH2 0x1A4D JUMPI PUSH2 0x1A4C PUSH2 0x1A10 JUMP JUMPDEST JUMPDEST PUSH1 0x20 DUP4 ADD SWAP2 POP DUP4 PUSH1 0x20 DUP3 MUL DUP4 ADD GT ISZERO PUSH2 0x1A69 JUMPI PUSH2 0x1A68 PUSH2 0x1A15 JUMP JUMPDEST JUMPDEST SWAP3 POP SWAP3 SWAP1 POP JUMP JUMPDEST PUSH1 0x0 DUP1 PUSH1 0x0 PUSH1 0x40 DUP5 DUP7 SUB SLT ISZERO PUSH2 0x1A89 JUMPI PUSH2 0x1A88 PUSH2 0x1991 JUMP JUMPDEST JUMPDEST PUSH1 0x0 PUSH2 0x1A97 DUP7 DUP3 DUP8 ADD PUSH2 0x19F6 JUMP JUMPDEST SWAP4 POP POP PUSH1 0x20 DUP5 ADD CALLDATALOAD PUSH8 0xFFFFFFFFFFFFFFFF DUP2 GT ISZERO PUSH2 0x1AB8 JUMPI PUSH2 0x1AB7 PUSH2 0x1996 JUMP JUMPDEST JUMPDEST PUSH2 0x1AC4 DUP7 DUP3 DUP8 ADD PUSH2 0x1A1A JUMP JUMPDEST SWAP3 POP SWAP3 POP POP SWAP3 POP SWAP3 POP SWAP3 JUMP JUMPDEST PUSH2 0x1AD9 DUP2 PUSH2 0x19BB JUMP JUMPDEST DUP2 EQ PUSH2 0x1AE4 JUMPI PUSH1 0x0 DUP1 REVERT JUMPDEST POP JUMP JUMPDEST PUSH1 0x0 DUP2 CALLDATALOAD SWAP1 POP PUSH2 0x1AF6 DUP2 PUSH2 0x1AD0 JUMP JUMPDEST SWAP3 SWAP2 POP POP JUMP JUMPDEST PUSH1 0x0 DUP2 SWAP1 POP SWAP2 SWAP1 POP JUMP JUMPDEST PUSH2 0x1B0F DUP2 PUSH2 0x1AFC JUMP JUMPDEST DUP2 EQ PUSH2 0x1B1A JUMPI PUSH1 0x0 DUP1 REVERT JUMPDEST POP JUMP JUMPDEST PUSH1 0x0 DUP2 CALLDATALOAD SWAP1 POP PUSH2 0x1B2C DUP2 PUSH2 0x1B06 JUMP JUMPDEST SWAP3 SWAP2 POP POP JUMP JUMPDEST PUSH1 0x0 DUP1 PUSH1 0x40 DUP4 DUP6 SUB SLT ISZERO PUSH2 0x1B49 JUMPI PUSH2 0x1B48 PUSH2 0x1991 JUMP JUMPDEST JUMPDEST PUSH1 0x0 PUSH2 0x1B57 DUP6 DUP3 DUP7 ADD PUSH2 0x1AE7 JUMP JUMPDEST SWAP3 POP POP PUSH1 0x20 PUSH2 0x1B68 DUP6 DUP3 DUP7 ADD PUSH2 0x1B1D JUMP JUMPDEST SWAP2 POP POP SWAP3 POP SWAP3 SWAP1 POP JUMP JUMPDEST PUSH1 0x0 DUP2 ISZERO ISZERO SWAP1 POP SWAP2 SWAP1 POP JUMP JUMPDEST PUSH2 0x1B87 DUP2 PUSH2 0x1B72 JUMP JUMPDEST DUP3 MSTORE POP POP JUMP JUMPDEST PUSH1 0x0 PUSH1 0x20 DUP3 ADD SWAP1 POP PUSH2 0x1BA2 PUSH1 0x0 DUP4 ADD DUP5 PUSH2 0x1B7E JUMP JUMPDEST SWAP3 SWAP2 POP POP JUMP JUMPDEST PUSH1 0x0 PUSH1 0x20 DUP3 DUP5 SUB SLT ISZERO PUSH2 0x1BBE JUMPI PUSH2 0x1BBD PUSH2 0x1991 JUMP JUMPDEST JUMPDEST PUSH1 0x0 PUSH2 0x1BCC DUP5 DUP3 DUP6 ADD PUSH2 0x1B1D JUMP JUMPDEST SWAP2 POP POP SWAP3 SWAP2 POP POP JUMP JUMPDEST PUSH1 0x0 DUP2 MLOAD SWAP1 POP SWAP2 SWAP1 POP JUMP JUMPDEST PUSH1 0x0 DUP3 DUP3 MSTORE PUSH1 0x20 DUP3 ADD SWAP1 POP SWAP3 SWAP2 POP POP JUMP JUMPDEST PUSH1 0x0 DUP2 SWAP1 POP PUSH1 0x20 DUP3 ADD SWAP1 POP SWAP2 SWAP1 POP JUMP JUMPDEST PUSH1 0x0 DUP2 SWAP1 POP SWAP2 SWAP1 POP JUMP JUMPDEST PUSH1 0x0 PUSH2 0x1C26 PUSH2 0x1C21 PUSH2 0x1C1C DUP5 PUSH2 0x199B JUMP JUMPDEST PUSH2 0x1C01 JUMP JUMPDEST PUSH2 0x199B JUMP JUMPDEST SWAP1 POP SWAP2 SWAP1 POP JUMP JUMPDEST PUSH1 0x0 PUSH2 0x1C38 DUP3 PUSH2 0x1C0B JUMP JUMPDEST SWAP1 POP SWAP2 SWAP1 POP JUMP JUMPDEST PUSH1 0x0 PUSH2 0x1C4A DUP3 PUSH2 0x1C2D JUMP JUMPDEST SWAP1 POP SWAP2 SWAP1 POP JUMP JUMPDEST PUSH2 0x1C5A DUP2 PUSH2 0x1C3F JUMP JUMPDEST DUP3 MSTORE POP POP JUMP JUMPDEST PUSH1 0x0 PUSH2 0x1C6C DUP4 DUP4 PUSH2 0x1C51 JUMP JUMPDEST PUSH1 0x20 DUP4 ADD SWAP1 POP SWAP3 SWAP2 POP POP JUMP JUMPDEST PUSH1 0x0 PUSH1 0x20 DUP3 ADD SWAP1 POP SWAP2 SWAP1 POP JUMP JUMPDEST PUSH1 0x0 PUSH2 0x1C90 DUP3 PUSH2 0x1BD5 JUMP JUMPDEST PUSH2 0x1C9A DUP2 DUP6 PUSH2 0x1BE0 JUMP JUMPDEST SWAP4 POP PUSH2 0x1CA5 DUP4 PUSH2 0x1BF1 JUMP JUMPDEST DUP1 PUSH1 0x0 JUMPDEST DUP4 DUP2 LT ISZERO PUSH2 0x1CD6 JUMPI DUP2 MLOAD PUSH2 0x1CBD DUP9 DUP3 PUSH2 0x1C60 JUMP JUMPDEST SWAP8 POP PUSH2 0x1CC8 DUP4 PUSH2 0x1C78 JUMP JUMPDEST SWAP3 POP POP PUSH1 0x1 DUP2 ADD SWAP1 POP PUSH2 0x1CA9 JUMP JUMPDEST POP DUP6 SWAP4 POP POP POP POP SWAP3 SWAP2 POP POP JUMP JUMPDEST PUSH1 0x0 PUSH1 0x20 DUP3 ADD SWAP1 POP DUP2 DUP2 SUB PUSH1 0x0 DUP4 ADD MSTORE PUSH2 0x1CFD DUP2 DUP5 PUSH2 0x1C85 JUMP JUMPDEST SWAP1 POP SWAP3 SWAP2 POP POP JUMP JUMPDEST PUSH2 0x1D0E DUP2 PUSH2 0x19BB JUMP JUMPDEST DUP3 MSTORE POP POP JUMP JUMPDEST PUSH1 0x0 PUSH1 0x20 DUP3 ADD SWAP1 POP PUSH2 0x1D29 PUSH1 0x0 DUP4 ADD DUP5 PUSH2 0x1D05 JUMP JUMPDEST SWAP3 SWAP2 POP POP JUMP JUMPDEST PUSH1 0x0 PUSH1 0x20 DUP3 DUP5 SUB SLT ISZERO PUSH2 0x1D45 JUMPI PUSH2 0x1D44 PUSH2 0x1991 JUMP JUMPDEST JUMPDEST PUSH1 0x0 PUSH2 0x1D53 DUP5 DUP3 DUP6 ADD PUSH2 0x19F6 JUMP JUMPDEST SWAP2 POP POP SWAP3 SWAP2 POP POP JUMP JUMPDEST PUSH1 0x0 DUP2 MLOAD SWAP1 POP SWAP2 SWAP1 POP JUMP JUMPDEST PUSH1 0x0 DUP3 DUP3 MSTORE PUSH1 0x20 DUP3 ADD SWAP1 POP SWAP3 SWAP2 POP POP JUMP JUMPDEST PUSH1 0x0 DUP2 SWAP1 POP PUSH1 0x20 DUP3 ADD SWAP1 POP SWAP2 SWAP1 POP JUMP JUMPDEST PUSH2 0x1D91 DUP2 PUSH2 0x1AFC JUMP JUMPDEST DUP3 MSTORE POP POP JUMP JUMPDEST PUSH1 0x0 PUSH2 0x1DA3 DUP4 DUP4 PUSH2 0x1D88 JUMP JUMPDEST PUSH1 0x20 DUP4 ADD SWAP1 POP SWAP3 SWAP2 POP POP JUMP JUMPDEST PUSH1 0x0 PUSH1 0x20 DUP3 ADD SWAP1 POP SWAP2 SWAP1 POP JUMP JUMPDEST PUSH1 0x0 PUSH2 0x1DC7 DUP3 PUSH2 0x1D5C JUMP JUMPDEST PUSH2 0x1DD1 DUP2 DUP6 PUSH2 0x1D67 JUMP JUMPDEST SWAP4 POP PUSH2 0x1DDC DUP4 PUSH2 0x1D78 JUMP JUMPDEST DUP1 PUSH1 0x0 JUMPDEST DUP4 DUP2 LT ISZERO PUSH2 0x1E0D JUMPI DUP2 MLOAD PUSH2 0x1DF4 DUP9 DUP3 PUSH2 0x1D97 JUMP JUMPDEST SWAP8 POP PUSH2 0x1DFF DUP4 PUSH2 0x1DAF JUMP JUMPDEST SWAP3 POP POP PUSH1 0x1 DUP2 ADD SWAP1 POP PUSH2 0x1DE0 JUMP JUMPDEST POP DUP6 SWAP4 POP POP POP POP SWAP3 SWAP2 POP POP JUMP JUMPDEST PUSH1 0x0 PUSH1 0x20 DUP3 ADD SWAP1 POP DUP2 DUP2 SUB PUSH1 0x0 DUP4 ADD MSTORE PUSH2 0x1E34 DUP2 DUP5 PUSH2 0x1DBC JUMP JUMPDEST SWAP1 POP SWAP3 SWAP2 POP POP JUMP JUMPDEST PUSH1 0x0 PUSH1 0x20 DUP3 DUP5 SUB SLT ISZERO PUSH2 0x1E52 JUMPI PUSH2 0x1E51 PUSH2 0x1991 JUMP JUMPDEST JUMPDEST PUSH1 0x0 PUSH2 0x1E60 DUP5 DUP3 DUP6 ADD PUSH2 0x1AE7 JUMP JUMPDEST SWAP2 POP POP SWAP3 SWAP2 POP POP JUMP JUMPDEST PUSH1 0x0 DUP3 DUP3 MSTORE PUSH1 0x20 DUP3 ADD SWAP1 POP SWAP3 SWAP2 POP POP JUMP JUMPDEST PUSH32 0x696E76616C696420617267756D656E74202D207A65726F206164647265737300 PUSH1 0x0 DUP3 ADD MSTORE POP JUMP JUMPDEST PUSH1 0x0 PUSH2 0x1EB0 PUSH1 0x1F DUP4 PUSH2 0x1E69 JUMP JUMPDEST SWAP2 POP PUSH2 0x1EBB DUP3 PUSH2 0x1E7A JUMP JUMPDEST PUSH1 0x20 DUP3 ADD SWAP1 POP SWAP2 SWAP1 POP JUMP JUMPDEST PUSH1 0x0 PUSH1 0x20 DUP3 ADD SWAP1 POP DUP2 DUP2 SUB PUSH1 0x0 DUP4 ADD MSTORE PUSH2 0x1EDF DUP2 PUSH2 0x1EA3 JUMP JUMPDEST SWAP1 POP SWAP2 SWAP1 POP JUMP JUMPDEST PUSH32 0x4E4F542061207472757374656420697373756572000000000000000000000000 PUSH1 0x0 DUP3 ADD MSTORE POP JUMP JUMPDEST PUSH1 0x0 PUSH2 0x1F1C PUSH1 0x14 DUP4 PUSH2 0x1E69 JUMP JUMPDEST SWAP2 POP PUSH2 0x1F27 DUP3 PUSH2 0x1EE6 JUMP JUMPDEST PUSH1 0x20 DUP3 ADD SWAP1 POP SWAP2 SWAP1 POP JUMP JUMPDEST PUSH1 0x0 PUSH1 0x20 DUP3 ADD SWAP1 POP DUP2 DUP2 SUB PUSH1 0x0 DUP4 ADD MSTORE PUSH2 0x1F4B DUP2 PUSH2 0x1F0F JUMP JUMPDEST SWAP1 POP SWAP2 SWAP1 POP JUMP JUMPDEST PUSH32 0x63616E6E6F742068617665206D6F7265207468616E20313520636C61696D2074 PUSH1 0x0 DUP3 ADD MSTORE PUSH32 0x6F70696373000000000000000000000000000000000000000000000000000000 PUSH1 0x20 DUP3 ADD MSTORE POP JUMP JUMPDEST PUSH1 0x0 PUSH2 0x1FAE PUSH1 0x25 DUP4 PUSH2 0x1E69 JUMP JUMPDEST SWAP2 POP PUSH2 0x1FB9 DUP3 PUSH2 0x1F52 JUMP JUMPDEST PUSH1 0x40 DUP3 ADD SWAP1 POP SWAP2 SWAP1 POP JUMP JUMPDEST PUSH1 0x0 PUSH1 0x20 DUP3 ADD SWAP1 POP DUP2 DUP2 SUB PUSH1 0x0 DUP4 ADD MSTORE PUSH2 0x1FDD DUP2 PUSH2 0x1FA1 JUMP JUMPDEST SWAP1 POP SWAP2 SWAP1 POP JUMP JUMPDEST PUSH32 0x636C61696D20746F706963732063616E6E6F7420626520656D70747900000000 PUSH1 0x0 DUP3 ADD MSTORE POP JUMP JUMPDEST PUSH1 0x0 PUSH2 0x201A PUSH1 0x1C DUP4 PUSH2 0x1E69 JUMP JUMPDEST SWAP2 POP PUSH2 0x2025 DUP3 PUSH2 0x1FE4 JUMP JUMPDEST PUSH1 0x20 DUP3 ADD SWAP1 POP SWAP2 SWAP1 POP JUMP JUMPDEST PUSH1 0x0 PUSH1 0x20 DUP3 ADD SWAP1 POP DUP2 DUP2 SUB PUSH1 0x0 DUP4 ADD MSTORE PUSH2 0x2049 DUP2 PUSH2 0x200D JUMP JUMPDEST SWAP1 POP SWAP2 SWAP1 POP JUMP JUMPDEST PUSH32 0x4E487B7100000000000000000000000000000000000000000000000000000000 PUSH1 0x0 MSTORE PUSH1 0x32 PUSH1 0x4 MSTORE PUSH1 0x24 PUSH1 0x0 REVERT JUMPDEST PUSH32 0x4E487B7100000000000000000000000000000000000000000000000000000000 PUSH1 0x0 MSTORE PUSH1 0x11 PUSH1 0x4 MSTORE PUSH1 0x24 PUSH1 0x0 REVERT JUMPDEST PUSH1 0x0 PUSH2 0x20B9 DUP3 PUSH2 0x1AFC JUMP JUMPDEST SWAP2 POP PUSH2 0x20C4 DUP4 PUSH2 0x1AFC JUMP JUMPDEST SWAP3 POP DUP3 DUP3 SUB SWAP1 POP DUP2 DUP2 GT ISZERO PUSH2 0x20DC JUMPI PUSH2 0x20DB PUSH2 0x207F JUMP JUMPDEST JUMPDEST SWAP3 SWAP2 POP POP JUMP JUMPDEST PUSH32 0x4E487B7100000000000000000000000000000000000000000000000000000000 PUSH1 0x0 MSTORE PUSH1 0x31 PUSH1 0x4 MSTORE PUSH1 0x24 PUSH1 0x0 REVERT JUMPDEST PUSH1 0x0 PUSH2 0x211C DUP3 PUSH2 0x1AFC JUMP JUMPDEST SWAP2 POP PUSH32 0xFFFFFFFFFFFFFFFFFFFFFFFFFFFFFFFFFFFFFFFFFFFFFFFFFFFFFFFFFFFFFFFF DUP3 SUB PUSH2 0x214E JUMPI PUSH2 0x214D PUSH2 0x207F JUMP JUMPDEST JUMPDEST PUSH1 0x1 DUP3 ADD SWAP1 POP SWAP2 SWAP1 POP JUMP JUMPDEST PUSH1 0x0 DUP1 REVERT JUMPDEST DUP3 DUP2 DUP4 CALLDATACOPY POP POP POP JUMP JUMPDEST PUSH1 0x0 PUSH2 0x2173 DUP4 DUP6 PUSH2 0x1D67 JUMP JUMPDEST SWAP4 POP PUSH32 0x7FFFFFFFFFFFFFFFFFFFFFFFFFFFFFFFFFFFFFFFFFFFFFFFFFFFFFFFFFFFFFF DUP4 GT ISZERO PUSH2 0x21A6 JUMPI PUSH2 0x21A5 PUSH2 0x2159 JUMP JUMPDEST JUMPDEST PUSH1 0x20 DUP4 MUL SWAP3 POP PUSH2 0x21B7 DUP4 DUP6 DUP5 PUSH2 0x215E JUMP JUMPDEST DUP3 DUP5 ADD SWAP1 POP SWAP4 SWAP3 POP POP POP JUMP JUMPDEST PUSH1 0x0 PUSH1 0x20 DUP3 ADD SWAP1 POP DUP2 DUP2 SUB PUSH1 0x0 DUP4 ADD MSTORE PUSH2 0x21DE DUP2 DUP5 DUP7 PUSH2 0x2167 JUMP JUMPDEST SWAP1 POP SWAP4 SWAP3 POP POP POP JUMP JUMPDEST PUSH32 0x747275737465642049737375657220616C726561647920657869737473000000 PUSH1 0x0 DUP3 ADD MSTORE POP JUMP JUMPDEST PUSH1 0x0 PUSH2 0x221D PUSH1 0x1D DUP4 PUSH2 0x1E69 JUMP JUMPDEST SWAP2 POP PUSH2 0x2228 DUP3 PUSH2 0x21E7 JUMP JUMPDEST PUSH1 0x20 DUP3 ADD SWAP1 POP SWAP2 SWAP1 POP JUMP JUMPDEST PUSH1 0x0 PUSH1 0x20 DUP3 ADD SWAP1 POP DUP2 DUP2 SUB PUSH1 0x0 DUP4 ADD MSTORE PUSH2 0x224C DUP2 PUSH2 0x2210 JUMP JUMPDEST SWAP1 POP SWAP2 SWAP1 POP JUMP JUMPDEST PUSH32 0x7472757374656420636C61696D20746F706963732063616E6E6F742062652065 PUSH1 0x0 DUP3 ADD MSTORE PUSH32 0x6D70747900000000000000000000000000000000000000000000000000000000 PUSH1 0x20 DUP3 ADD MSTORE POP JUMP JUMPDEST PUSH1 0x0 PUSH2 0x22AF PUSH1 0x24 DUP4 PUSH2 0x1E69 JUMP JUMPDEST SWAP2 POP PUSH2 0x22BA DUP3 PUSH2 0x2253 JUMP JUMPDEST PUSH1 0x40 DUP3 ADD SWAP1 POP SWAP2 SWAP1 POP JUMP JUMPDEST PUSH1 0x0 PUSH1 0x20 DUP3 ADD SWAP1 POP DUP2 DUP2 SUB PUSH1 0x0 DUP4 ADD MSTORE PUSH2 0x22DE DUP2 PUSH2 0x22A2 JUMP JUMPDEST SWAP1 POP SWAP2 SWAP1 POP JUMP JUMPDEST PUSH32 0x63616E6E6F742068617665206D6F7265207468616E2035302074727573746564 PUSH1 0x0 DUP3 ADD MSTORE PUSH32 0x2069737375657273000000000000000000000000000000000000000000000000 PUSH1 0x20 DUP3 ADD MSTORE POP JUMP JUMPDEST PUSH1 0x0 PUSH2 0x2341 PUSH1 0x28 DUP4 PUSH2 0x1E69 JUMP JUMPDEST SWAP2 POP PUSH2 0x234C DUP3 PUSH2 0x22E5 JUMP JUMPDEST PUSH1 0x40 DUP3 ADD SWAP1 POP SWAP2 SWAP1 POP JUMP JUMPDEST PUSH1 0x0 PUSH1 0x20 DUP3 ADD SWAP1 POP DUP2 DUP2 SUB PUSH1 0x0 DUP4 ADD MSTORE PUSH2 0x2370 DUP2 PUSH2 0x2334 JUMP JUMPDEST SWAP1 POP SWAP2 SWAP1 POP JUMP JUMPDEST PUSH32 0x747275737465642049737375657220646F65736E277420657869737400000000 PUSH1 0x0 DUP3 ADD MSTORE POP JUMP JUMPDEST PUSH1 0x0 PUSH2 0x23AD PUSH1 0x1C DUP4 PUSH2 0x1E69 JUMP JUMPDEST SWAP2 POP PUSH2 0x23B8 DUP3 PUSH2 0x2377 JUMP JUMPDEST PUSH1 0x20 DUP3 ADD SWAP1 POP SWAP2 SWAP1 POP JUMP JUMPDEST PUSH1 0x0 PUSH1 0x20 DUP3 ADD SWAP1 POP DUP2 DUP2 SUB PUSH1 0x0 DUP4 ADD MSTORE PUSH2 0x23DC DUP2 PUSH2 0x23A0 JUMP JUMPDEST SWAP1 POP SWAP2 SWAP1 POP JUMP JUMPDEST PUSH32 0x496E697469616C697A61626C653A20636F6E747261637420697320616C726561 PUSH1 0x0 DUP3 ADD MSTORE PUSH32 0x647920696E697469616C697A6564000000000000000000000000000000000000 PUSH1 0x20 DUP3 ADD MSTORE POP JUMP JUMPDEST PUSH1 0x0 PUSH2 0x243F PUSH1 0x2E DUP4 PUSH2 0x1E69 JUMP JUMPDEST SWAP2 POP PUSH2 0x244A DUP3 PUSH2 0x23E3 JUMP JUMPDEST PUSH1 0x40 DUP3 ADD SWAP1 POP SWAP2 SWAP1 POP JUMP JUMPDEST PUSH1 0x0 PUSH1 0x20 DUP3 ADD SWAP1 POP DUP2 DUP2 SUB PUSH1 0x0 DUP4 ADD MSTORE PUSH2 0x246E DUP2 PUSH2 0x2432 JUMP JUMPDEST SWAP1 POP SWAP2 SWAP1 POP JUMP JUMPDEST PUSH1 0x0 DUP2 SWAP1 POP SWAP2 SWAP1 POP JUMP JUMPDEST PUSH1 0x0 PUSH1 0xFF DUP3 AND SWAP1 POP SWAP2 SWAP1 POP JUMP JUMPDEST PUSH1 0x0 PUSH2 0x24A7 PUSH2 0x24A2 PUSH2 0x249D DUP5 PUSH2 0x2475 JUMP JUMPDEST PUSH2 0x1C01 JUMP JUMPDEST PUSH2 0x247F JUMP JUMPDEST SWAP1 POP SWAP2 SWAP1 POP JUMP JUMPDEST PUSH2 0x24B7 DUP2 PUSH2 0x248C JUMP JUMPDEST DUP3 MSTORE POP POP JUMP JUMPDEST PUSH1 0x0 PUSH1 0x20 DUP3 ADD SWAP1 POP PUSH2 0x24D2 PUSH1 0x0 DUP4 ADD DUP5 PUSH2 0x24AE JUMP JUMPDEST SWAP3 SWAP2 POP POP JUMP JUMPDEST PUSH32 0x4F776E61626C653A206E6577206F776E657220697320746865207A65726F2061 PUSH1 0x0 DUP3 ADD MSTORE PUSH32 0x6464726573730000000000000000000000000000000000000000000000000000 PUSH1 0x20 DUP3 ADD MSTORE POP JUMP JUMPDEST PUSH1 0x0 PUSH2 0x2534 PUSH1 0x26 DUP4 PUSH2 0x1E69 JUMP JUMPDEST SWAP2 POP PUSH2 0x253F DUP3 PUSH2 0x24D8 JUMP JUMPDEST PUSH1 0x40 DUP3 ADD SWAP1 POP SWAP2 SWAP1 POP JUMP JUMPDEST PUSH1 0x0 PUSH1 0x20 DUP3 ADD SWAP1 POP DUP2 DUP2 SUB PUSH1 0x0 DUP4 ADD MSTORE PUSH2 0x2563 DUP2 PUSH2 0x2527 JUMP JUMPDEST SWAP1 POP SWAP2 SWAP1 POP JUMP JUMPDEST PUSH32 0x4F776E61626C653A2063616C6C6572206973206E6F7420746865206F776E6572 PUSH1 0x0 DUP3 ADD MSTORE POP JUMP JUMPDEST PUSH1 0x0 PUSH2 0x25A0 PUSH1 0x20 DUP4 PUSH2 0x1E69 JUMP JUMPDEST SWAP2 POP PUSH2 0x25AB DUP3 PUSH2 0x256A JUMP JUMPDEST PUSH1 0x20 DUP3 ADD SWAP1 POP SWAP2 SWAP1 POP JUMP JUMPDEST PUSH1 0x0 PUSH1 0x20 DUP3 ADD SWAP1 POP DUP2 DUP2 SUB PUSH1 0x0 DUP4 ADD MSTORE PUSH2 0x25CF DUP2 PUSH2 0x2593 JUMP JUMPDEST SWAP1 POP SWAP2 SWAP1 POP JUMP JUMPDEST PUSH32 0x496E697469616C697A61626C653A20636F6E7472616374206973206E6F742069 PUSH1 0x0 DUP3 ADD MSTORE PUSH32 0x6E697469616C697A696E67000000000000000000000000000000000000000000 PUSH1 0x20 DUP3 ADD MSTORE POP JUMP JUMPDEST PUSH1 0x0 PUSH2 0x2632 PUSH1 0x2B DUP4 PUSH2 0x1E69 JUMP JUMPDEST SWAP2 POP PUSH2 0x263D DUP3 PUSH2 0x25D6 JUMP JUMPDEST PUSH1 0x40 DUP3 ADD SWAP1 POP SWAP2 SWAP1 POP JUMP JUMPDEST PUSH1 0x0 PUSH1 0x20 DUP3 ADD SWAP1 POP DUP2 DUP2 SUB PUSH1 0x0 DUP4 ADD MSTORE PUSH2 0x2661 DUP2 PUSH2 0x2625 JUMP JUMPDEST SWAP1 POP SWAP2 SWAP1 POP JUMP INVALID LOG2 PUSH5 0x6970667358 0x22 SLT KECCAK256 MSIZE 0xA6 0xAA 0x26 0xD1 TIMESTAMP SWAP15 SHR LT RETURNDATACOPY 0xAE KECCAK256 0xD3 DUP2 SIGNEXTEND ADDRESS 0xED 0xE1 BALANCE PUSH13 0x31772B11571DAB494A07E17364 PUSH20 0x6F6C634300081100330000000000000000000000 "
				},
				"gasEstimates": {
					"creation": {
						"codeDepositCost": "1977200",
						"executionCost": "2091",
						"totalCost": "1979291"
					},
					"external": {
						"addTrustedIssuer(address,uint256[])": "infinite",
						"getTrustedIssuerClaimTopics(address)": "infinite",
						"getTrustedIssuers()": "infinite",
						"getTrustedIssuersForClaimTopic(uint256)": "infinite",
						"hasClaimTopic(address,uint256)": "infinite",
						"init()": "116193",
						"isTrustedIssuer(address)": "2980",
						"owner()": "2611",
						"removeTrustedIssuer(address)": "infinite",
						"renounceOwnership()": "30465",
						"transferOwnership(address)": "30854",
						"updateIssuerClaimTopics(address,uint256[])": "infinite"
					}
				},
				"methodIdentifiers": {
					"addTrustedIssuer(address,uint256[])": "9f63ea98",
					"getTrustedIssuerClaimTopics(address)": "c28fb278",
					"getTrustedIssuers()": "d9dd24c5",
					"getTrustedIssuersForClaimTopic(uint256)": "52c111d1",
					"hasClaimTopic(address,uint256)": "34a89987",
					"init()": "e1c7392a",
					"isTrustedIssuer(address)": "ef2ed1a4",
					"owner()": "8da5cb5b",
					"removeTrustedIssuer(address)": "b93d28eb",
					"renounceOwnership()": "715018a6",
					"transferOwnership(address)": "f2fde38b",
					"updateIssuerClaimTopics(address,uint256[])": "04bc7e84"
				}
			},
			"storageLayout": {
				"storage": [
					{
						"astId": 462,
						"contract": "ERC3643Original/contracts/registry/implementation/TrustedIssuersRegistry.sol:TrustedIssuersRegistry",
						"label": "_initialized",
						"offset": 0,
						"slot": "0",
						"type": "t_uint8"
					},
					{
						"astId": 465,
						"contract": "ERC3643Original/contracts/registry/implementation/TrustedIssuersRegistry.sol:TrustedIssuersRegistry",
						"label": "_initializing",
						"offset": 1,
						"slot": "0",
						"type": "t_bool"
					},
					{
						"astId": 995,
						"contract": "ERC3643Original/contracts/registry/implementation/TrustedIssuersRegistry.sol:TrustedIssuersRegistry",
						"label": "__gap",
						"offset": 0,
						"slot": "1",
						"type": "t_array(t_uint256)50_storage"
					},
					{
						"astId": 334,
						"contract": "ERC3643Original/contracts/registry/implementation/TrustedIssuersRegistry.sol:TrustedIssuersRegistry",
						"label": "_owner",
						"offset": 0,
						"slot": "51",
						"type": "t_address"
					},
					{
						"astId": 454,
						"contract": "ERC3643Original/contracts/registry/implementation/TrustedIssuersRegistry.sol:TrustedIssuersRegistry",
						"label": "__gap",
						"offset": 0,
						"slot": "52",
						"type": "t_array(t_uint256)49_storage"
					},
					{
						"astId": 1691,
						"contract": "ERC3643Original/contracts/registry/implementation/TrustedIssuersRegistry.sol:TrustedIssuersRegistry",
						"label": "_trustedIssuers",
						"offset": 0,
						"slot": "101",
						"type": "t_array(t_contract(IClaimIssuer)59)dyn_storage"
					},
					{
						"astId": 1696,
						"contract": "ERC3643Original/contracts/registry/implementation/TrustedIssuersRegistry.sol:TrustedIssuersRegistry",
						"label": "_trustedIssuerClaimTopics",
						"offset": 0,
						"slot": "102",
						"type": "t_mapping(t_address,t_array(t_uint256)dyn_storage)"
					},
					{
						"astId": 1702,
						"contract": "ERC3643Original/contracts/registry/implementation/TrustedIssuersRegistry.sol:TrustedIssuersRegistry",
						"label": "_claimTopicsToTrustedIssuers",
						"offset": 0,
						"slot": "103",
						"type": "t_mapping(t_uint256,t_array(t_contract(IClaimIssuer)59)dyn_storage)"
					},
					{
						"astId": 1706,
						"contract": "ERC3643Original/contracts/registry/implementation/TrustedIssuersRegistry.sol:TrustedIssuersRegistry",
						"label": "__gap",
						"offset": 0,
						"slot": "104",
						"type": "t_array(t_uint256)49_storage"
					}
				],
				"types": {
					"t_address": {
						"encoding": "inplace",
						"label": "address",
						"numberOfBytes": "20"
					},
					"t_array(t_contract(IClaimIssuer)59)dyn_storage": {
						"base": "t_contract(IClaimIssuer)59",
						"encoding": "dynamic_array",
						"label": "contract IClaimIssuer[]",
						"numberOfBytes": "32"
					},
					"t_array(t_uint256)49_storage": {
						"base": "t_uint256",
						"encoding": "inplace",
						"label": "uint256[49]",
						"numberOfBytes": "1568"
					},
					"t_array(t_uint256)50_storage": {
						"base": "t_uint256",
						"encoding": "inplace",
						"label": "uint256[50]",
						"numberOfBytes": "1600"
					},
					"t_array(t_uint256)dyn_storage": {
						"base": "t_uint256",
						"encoding": "dynamic_array",
						"label": "uint256[]",
						"numberOfBytes": "32"
					},
					"t_bool": {
						"encoding": "inplace",
						"label": "bool",
						"numberOfBytes": "1"
					},
					"t_contract(IClaimIssuer)59": {
						"encoding": "inplace",
						"label": "contract IClaimIssuer",
						"numberOfBytes": "20"
					},
					"t_mapping(t_address,t_array(t_uint256)dyn_storage)": {
						"encoding": "mapping",
						"key": "t_address",
						"label": "mapping(address => uint256[])",
						"numberOfBytes": "32",
						"value": "t_array(t_uint256)dyn_storage"
					},
					"t_mapping(t_uint256,t_array(t_contract(IClaimIssuer)59)dyn_storage)": {
						"encoding": "mapping",
						"key": "t_uint256",
						"label": "mapping(uint256 => contract IClaimIssuer[])",
						"numberOfBytes": "32",
						"value": "t_array(t_contract(IClaimIssuer)59)dyn_storage"
					},
					"t_uint256": {
						"encoding": "inplace",
						"label": "uint256",
						"numberOfBytes": "32"
					},
					"t_uint8": {
						"encoding": "inplace",
						"label": "uint8",
						"numberOfBytes": "1"
					}
				}
			},
			"userdoc": {
				"kind": "user",
				"methods": {},
				"version": 1
			}
		}
	}
}