{
	".deps/npm/@onchain-id/solidity/contracts/Identity.sol": {
		"Identity": {
			"abi": [
				{
					"inputs": [
						{
							"internalType": "address",
							"name": "initialManagementKey",
							"type": "address"
						},
						{
							"internalType": "bool",
							"name": "_isLibrary",
							"type": "bool"
						}
					],
					"stateMutability": "nonpayable",
					"type": "constructor"
				},
				{
					"anonymous": false,
					"inputs": [
						{
							"indexed": true,
							"internalType": "uint256",
							"name": "executionId",
							"type": "uint256"
						},
						{
							"indexed": false,
							"internalType": "bool",
							"name": "approved",
							"type": "bool"
						}
					],
					"name": "Approved",
					"type": "event"
				},
				{
					"anonymous": false,
					"inputs": [
						{
							"indexed": true,
							"internalType": "bytes32",
							"name": "claimId",
							"type": "bytes32"
						},
						{
							"indexed": true,
							"internalType": "uint256",
							"name": "topic",
							"type": "uint256"
						},
						{
							"indexed": false,
							"internalType": "uint256",
							"name": "scheme",
							"type": "uint256"
						},
						{
							"indexed": true,
							"internalType": "address",
							"name": "issuer",
							"type": "address"
						},
						{
							"indexed": false,
							"internalType": "bytes",
							"name": "signature",
							"type": "bytes"
						},
						{
							"indexed": false,
							"internalType": "bytes",
							"name": "data",
							"type": "bytes"
						},
						{
							"indexed": false,
							"internalType": "string",
							"name": "uri",
							"type": "string"
						}
					],
					"name": "ClaimAdded",
					"type": "event"
				},
				{
					"anonymous": false,
					"inputs": [
						{
							"indexed": true,
							"internalType": "bytes32",
							"name": "claimId",
							"type": "bytes32"
						},
						{
							"indexed": true,
							"internalType": "uint256",
							"name": "topic",
							"type": "uint256"
						},
						{
							"indexed": false,
							"internalType": "uint256",
							"name": "scheme",
							"type": "uint256"
						},
						{
							"indexed": true,
							"internalType": "address",
							"name": "issuer",
							"type": "address"
						},
						{
							"indexed": false,
							"internalType": "bytes",
							"name": "signature",
							"type": "bytes"
						},
						{
							"indexed": false,
							"internalType": "bytes",
							"name": "data",
							"type": "bytes"
						},
						{
							"indexed": false,
							"internalType": "string",
							"name": "uri",
							"type": "string"
						}
					],
					"name": "ClaimChanged",
					"type": "event"
				},
				{
					"anonymous": false,
					"inputs": [
						{
							"indexed": true,
							"internalType": "bytes32",
							"name": "claimId",
							"type": "bytes32"
						},
						{
							"indexed": true,
							"internalType": "uint256",
							"name": "topic",
							"type": "uint256"
						},
						{
							"indexed": false,
							"internalType": "uint256",
							"name": "scheme",
							"type": "uint256"
						},
						{
							"indexed": true,
							"internalType": "address",
							"name": "issuer",
							"type": "address"
						},
						{
							"indexed": false,
							"internalType": "bytes",
							"name": "signature",
							"type": "bytes"
						},
						{
							"indexed": false,
							"internalType": "bytes",
							"name": "data",
							"type": "bytes"
						},
						{
							"indexed": false,
							"internalType": "string",
							"name": "uri",
							"type": "string"
						}
					],
					"name": "ClaimRemoved",
					"type": "event"
				},
				{
					"anonymous": false,
					"inputs": [
						{
							"indexed": true,
							"internalType": "uint256",
							"name": "executionId",
							"type": "uint256"
						},
						{
							"indexed": true,
							"internalType": "address",
							"name": "to",
							"type": "address"
						},
						{
							"indexed": true,
							"internalType": "uint256",
							"name": "value",
							"type": "uint256"
						},
						{
							"indexed": false,
							"internalType": "bytes",
							"name": "data",
							"type": "bytes"
						}
					],
					"name": "Executed",
					"type": "event"
				},
				{
					"anonymous": false,
					"inputs": [
						{
							"indexed": true,
							"internalType": "uint256",
							"name": "executionId",
							"type": "uint256"
						},
						{
							"indexed": true,
							"internalType": "address",
							"name": "to",
							"type": "address"
						},
						{
							"indexed": true,
							"internalType": "uint256",
							"name": "value",
							"type": "uint256"
						},
						{
							"indexed": false,
							"internalType": "bytes",
							"name": "data",
							"type": "bytes"
						}
					],
					"name": "ExecutionFailed",
					"type": "event"
				},
				{
					"anonymous": false,
					"inputs": [
						{
							"indexed": true,
							"internalType": "uint256",
							"name": "executionId",
							"type": "uint256"
						},
						{
							"indexed": true,
							"internalType": "address",
							"name": "to",
							"type": "address"
						},
						{
							"indexed": true,
							"internalType": "uint256",
							"name": "value",
							"type": "uint256"
						},
						{
							"indexed": false,
							"internalType": "bytes",
							"name": "data",
							"type": "bytes"
						}
					],
					"name": "ExecutionRequested",
					"type": "event"
				},
				{
					"anonymous": false,
					"inputs": [
						{
							"indexed": true,
							"internalType": "bytes32",
							"name": "key",
							"type": "bytes32"
						},
						{
							"indexed": true,
							"internalType": "uint256",
							"name": "purpose",
							"type": "uint256"
						},
						{
							"indexed": true,
							"internalType": "uint256",
							"name": "keyType",
							"type": "uint256"
						}
					],
					"name": "KeyAdded",
					"type": "event"
				},
				{
					"anonymous": false,
					"inputs": [
						{
							"indexed": true,
							"internalType": "bytes32",
							"name": "key",
							"type": "bytes32"
						},
						{
							"indexed": true,
							"internalType": "uint256",
							"name": "purpose",
							"type": "uint256"
						},
						{
							"indexed": true,
							"internalType": "uint256",
							"name": "keyType",
							"type": "uint256"
						}
					],
					"name": "KeyRemoved",
					"type": "event"
				},
				{
					"inputs": [
						{
							"internalType": "uint256",
							"name": "_topic",
							"type": "uint256"
						},
						{
							"internalType": "uint256",
							"name": "_scheme",
							"type": "uint256"
						},
						{
							"internalType": "address",
							"name": "_issuer",
							"type": "address"
						},
						{
							"internalType": "bytes",
							"name": "_signature",
							"type": "bytes"
						},
						{
							"internalType": "bytes",
							"name": "_data",
							"type": "bytes"
						},
						{
							"internalType": "string",
							"name": "_uri",
							"type": "string"
						}
					],
					"name": "addClaim",
					"outputs": [
						{
							"internalType": "bytes32",
							"name": "claimRequestId",
							"type": "bytes32"
						}
					],
					"stateMutability": "nonpayable",
					"type": "function"
				},
				{
					"inputs": [
						{
							"internalType": "bytes32",
							"name": "_key",
							"type": "bytes32"
						},
						{
							"internalType": "uint256",
							"name": "_purpose",
							"type": "uint256"
						},
						{
							"internalType": "uint256",
							"name": "_type",
							"type": "uint256"
						}
					],
					"name": "addKey",
					"outputs": [
						{
							"internalType": "bool",
							"name": "success",
							"type": "bool"
						}
					],
					"stateMutability": "nonpayable",
					"type": "function"
				},
				{
					"inputs": [
						{
							"internalType": "uint256",
							"name": "_id",
							"type": "uint256"
						},
						{
							"internalType": "bool",
							"name": "_approve",
							"type": "bool"
						}
					],
					"name": "approve",
					"outputs": [
						{
							"internalType": "bool",
							"name": "success",
							"type": "bool"
						}
					],
					"stateMutability": "nonpayable",
					"type": "function"
				},
				{
					"inputs": [
						{
							"internalType": "address",
							"name": "_to",
							"type": "address"
						},
						{
							"internalType": "uint256",
							"name": "_value",
							"type": "uint256"
						},
						{
							"internalType": "bytes",
							"name": "_data",
							"type": "bytes"
						}
					],
					"name": "execute",
					"outputs": [
						{
							"internalType": "uint256",
							"name": "executionId",
							"type": "uint256"
						}
					],
					"stateMutability": "payable",
					"type": "function"
				},
				{
					"inputs": [
						{
							"internalType": "bytes32",
							"name": "_claimId",
							"type": "bytes32"
						}
					],
					"name": "getClaim",
					"outputs": [
						{
							"internalType": "uint256",
							"name": "topic",
							"type": "uint256"
						},
						{
							"internalType": "uint256",
							"name": "scheme",
							"type": "uint256"
						},
						{
							"internalType": "address",
							"name": "issuer",
							"type": "address"
						},
						{
							"internalType": "bytes",
							"name": "signature",
							"type": "bytes"
						},
						{
							"internalType": "bytes",
							"name": "data",
							"type": "bytes"
						},
						{
							"internalType": "string",
							"name": "uri",
							"type": "string"
						}
					],
					"stateMutability": "view",
					"type": "function"
				},
				{
					"inputs": [
						{
							"internalType": "uint256",
							"name": "_topic",
							"type": "uint256"
						}
					],
					"name": "getClaimIdsByTopic",
					"outputs": [
						{
							"internalType": "bytes32[]",
							"name": "claimIds",
							"type": "bytes32[]"
						}
					],
					"stateMutability": "view",
					"type": "function"
				},
				{
					"inputs": [
						{
							"internalType": "bytes32",
							"name": "_key",
							"type": "bytes32"
						}
					],
					"name": "getKey",
					"outputs": [
						{
							"internalType": "uint256[]",
							"name": "purposes",
							"type": "uint256[]"
						},
						{
							"internalType": "uint256",
							"name": "keyType",
							"type": "uint256"
						},
						{
							"internalType": "bytes32",
							"name": "key",
							"type": "bytes32"
						}
					],
					"stateMutability": "view",
					"type": "function"
				},
				{
					"inputs": [
						{
							"internalType": "bytes32",
							"name": "_key",
							"type": "bytes32"
						}
					],
					"name": "getKeyPurposes",
					"outputs": [
						{
							"internalType": "uint256[]",
							"name": "_purposes",
							"type": "uint256[]"
						}
					],
					"stateMutability": "view",
					"type": "function"
				},
				{
					"inputs": [
						{
							"internalType": "uint256",
							"name": "_purpose",
							"type": "uint256"
						}
					],
					"name": "getKeysByPurpose",
					"outputs": [
						{
							"internalType": "bytes32[]",
							"name": "keys",
							"type": "bytes32[]"
						}
					],
					"stateMutability": "view",
					"type": "function"
				},
				{
					"inputs": [
						{
							"internalType": "bytes",
							"name": "sig",
							"type": "bytes"
						},
						{
							"internalType": "bytes32",
							"name": "dataHash",
							"type": "bytes32"
						}
					],
					"name": "getRecoveredAddress",
					"outputs": [
						{
							"internalType": "address",
							"name": "addr",
							"type": "address"
						}
					],
					"stateMutability": "pure",
					"type": "function"
				},
				{
					"inputs": [
						{
							"internalType": "address",
							"name": "initialManagementKey",
							"type": "address"
						}
					],
					"name": "initialize",
					"outputs": [],
					"stateMutability": "nonpayable",
					"type": "function"
				},
				{
					"inputs": [
						{
							"internalType": "contract IIdentity",
							"name": "_identity",
							"type": "address"
						},
						{
							"internalType": "uint256",
							"name": "claimTopic",
							"type": "uint256"
						},
						{
							"internalType": "bytes",
							"name": "sig",
							"type": "bytes"
						},
						{
							"internalType": "bytes",
							"name": "data",
							"type": "bytes"
						}
					],
					"name": "isClaimValid",
					"outputs": [
						{
							"internalType": "bool",
							"name": "claimValid",
							"type": "bool"
						}
					],
					"stateMutability": "view",
					"type": "function"
				},
				{
					"inputs": [
						{
							"internalType": "bytes32",
							"name": "_key",
							"type": "bytes32"
						},
						{
							"internalType": "uint256",
							"name": "_purpose",
							"type": "uint256"
						}
					],
					"name": "keyHasPurpose",
					"outputs": [
						{
							"internalType": "bool",
							"name": "result",
							"type": "bool"
						}
					],
					"stateMutability": "view",
					"type": "function"
				},
				{
					"inputs": [
						{
							"internalType": "bytes32",
							"name": "_claimId",
							"type": "bytes32"
						}
					],
					"name": "removeClaim",
					"outputs": [
						{
							"internalType": "bool",
							"name": "success",
							"type": "bool"
						}
					],
					"stateMutability": "nonpayable",
					"type": "function"
				},
				{
					"inputs": [
						{
							"internalType": "bytes32",
							"name": "_key",
							"type": "bytes32"
						},
						{
							"internalType": "uint256",
							"name": "_purpose",
							"type": "uint256"
						}
					],
					"name": "removeKey",
					"outputs": [
						{
							"internalType": "bool",
							"name": "success",
							"type": "bool"
						}
					],
					"stateMutability": "nonpayable",
					"type": "function"
				},
				{
					"inputs": [],
					"name": "version",
					"outputs": [
						{
							"internalType": "string",
							"name": "",
							"type": "string"
						}
					],
					"stateMutability": "pure",
					"type": "function"
				}
			],
			"devdoc": {
				"details": "Implementation of the `IERC734` \"KeyHolder\" and the `IERC735` \"ClaimHolder\" interfaces into a common Identity Contract. This implementation has a separate contract were it declares all storage, allowing for it to be used as an upgradable logic contract.",
				"kind": "dev",
				"methods": {
					"addClaim(uint256,uint256,address,bytes,bytes,string)": {
						"details": "See {IERC735-addClaim}.",
						"params": {
							"_data": "The hash of the claim data, sitting in another location, a bit-mask, call data, or actual data based on the claim scheme.",
							"_issuer": "The issuers identity contract address, or the address used to sign the above signature.",
							"_scheme": "The scheme with which this claim SHOULD be verified or how it should be processed.",
							"_signature": "Signature which is the proof that the claim issuer issued a claim of topic for this identity. it MUST be a signed message of the following structure: keccak256(abi.encode(address identityHolder_address, uint256 _ topic, bytes data))",
							"_topic": "The type of claim",
							"_uri": "The location of the claim, this can be HTTP links, swarm hashes, IPFS hashes, and such."
						},
						"returns": {
							"claimRequestId": "Returns claimRequestId: COULD be send to the approve function, to approve or reject this claim. triggers ClaimAdded event."
						}
					},
					"addKey(bytes32,uint256,uint256)": {
						"params": {
							"_key": "keccak256 representation of an ethereum address",
							"_purpose": "a uint256 specifying the key type, like 1 = MANAGEMENT, 2 = ACTION, 3 = CLAIM, 4 = ENCRYPTION",
							"_type": "type of key used, which would be a uint256 for different key types. e.g. 1 = ECDSA, 2 = RSA, etc."
						},
						"returns": {
							"success": "Returns TRUE if the addition was successful and FALSE if not"
						}
					},
					"approve(uint256,bool)": {
						"details": "See {IERC734-approve}."
					},
					"constructor": {
						"params": {
							"_isLibrary": "boolean value stating if the contract is library or not calls __Identity_init if contract is not library",
							"initialManagementKey": "the address of the management key at deployment"
						}
					},
					"execute(address,uint256,bytes)": {
						"details": "See {IERC734-execute}.",
						"returns": {
							"executionId": "to use in the approve function, to approve or reject this execution."
						}
					},
					"getClaim(bytes32)": {
						"details": "See {IERC735-getClaim}.",
						"params": {
							"_claimId": "The identity of the claim i.e. keccak256(abi.encode(_issuer, _topic))"
						},
						"returns": {
							"data": "Returns all the parameters of the claim for the specified _claimId (topic, scheme, signature, issuer, data, uri) .",
							"issuer": "Returns all the parameters of the claim for the specified _claimId (topic, scheme, signature, issuer, data, uri) .",
							"scheme": "Returns all the parameters of the claim for the specified _claimId (topic, scheme, signature, issuer, data, uri) .",
							"signature": "Returns all the parameters of the claim for the specified _claimId (topic, scheme, signature, issuer, data, uri) .",
							"topic": "Returns all the parameters of the claim for the specified _claimId (topic, scheme, signature, issuer, data, uri) .",
							"uri": "Returns all the parameters of the claim for the specified _claimId (topic, scheme, signature, issuer, data, uri) ."
						}
					},
					"getClaimIdsByTopic(uint256)": {
						"details": "See {IERC735-getClaimIdsByTopic}.",
						"params": {
							"_topic": "The identity of the claim i.e. keccak256(abi.encode(_issuer, _topic))"
						},
						"returns": {
							"claimIds": "Returns an array of claim IDs by topic."
						}
					},
					"getKey(bytes32)": {
						"details": "See {IERC734-getKey}.",
						"params": {
							"_key": "The public key.  for non-hex and long keys, its the Keccak256 hash of the key"
						},
						"returns": {
							"key": "Returns the full key data, if present in the identity.",
							"keyType": "Returns the full key data, if present in the identity.",
							"purposes": "Returns the full key data, if present in the identity."
						}
					},
					"getKeyPurposes(bytes32)": {
						"details": "See {IERC734-getKeyPurposes}.",
						"params": {
							"_key": "The public key.  for non-hex and long keys, its the Keccak256 hash of the key"
						},
						"returns": {
							"_purposes": "Returns the purposes of the specified key"
						}
					},
					"getKeysByPurpose(uint256)": {
						"details": "See {IERC734-getKeysByPurpose}.",
						"params": {
							"_purpose": "a uint256[] Array of the key types, like 1 = MANAGEMENT, 2 = ACTION, 3 = CLAIM, 4 = ENCRYPTION"
						},
						"returns": {
							"keys": "Returns an array of public key bytes32 hold by this identity and having the specified purpose"
						}
					},
					"getRecoveredAddress(bytes,bytes32)": {
						"details": "returns the address that signed the given data",
						"params": {
							"dataHash": "the data that was signed returns the address that signed dataHash and created the signature sig",
							"sig": "the signature of the data"
						}
					},
					"initialize(address)": {
						"params": {
							"initialManagementKey": "The ethereum address to be set as the management key of the ONCHAINID."
						}
					},
					"isClaimValid(address,uint256,bytes,bytes)": {
						"details": "Checks if a claim is valid. Claims issued by the identity are self-attested claims. They do not have a built-in revocation mechanism and are considered valid as long as their signature is valid and they are still stored by the identity contract.",
						"params": {
							"_identity": "the identity contract related to the claim",
							"claimTopic": "the claim topic of the claim",
							"data": "the data field of the claim",
							"sig": "the signature of the claim"
						},
						"returns": {
							"claimValid": "true if the claim is valid, false otherwise"
						}
					},
					"keyHasPurpose(bytes32,uint256)": {
						"details": "See {IERC734-keyHasPurpose}."
					},
					"removeClaim(bytes32)": {
						"details": "See {IERC735-removeClaim}.",
						"params": {
							"_claimId": "The identity of the claim i.e. keccak256(abi.encode(_issuer, _topic))"
						},
						"returns": {
							"success": "Returns TRUE when the claim was removed. triggers ClaimRemoved event"
						}
					},
					"removeKey(bytes32,uint256)": {
						"details": "See {IERC734-removeKey}."
					},
					"version()": {
						"details": "Returns the string of the current version."
					}
				},
				"version": 1
			},
			"evm": {
				"assembly": "    /* \".deps/npm/@onchain-id/solidity/contracts/Identity.sol\":480:20903  contract Identity is Storage, IIdentity, Version {... */\n  mstore(0x40, 0x80)\n    /* \".deps/npm/@onchain-id/solidity/contracts/storage/Storage.sol\":757:791  bool internal _initialized = false */\n  0x06\n  dup1\n  sload\n  not(0xffff)\n    /* \".deps/npm/@onchain-id/solidity/contracts/storage/Storage.sol\":856:890  bool internal _canInteract = false */\n  and\n  swap1\n  sstore\n    /* \".deps/npm/@onchain-id/solidity/contracts/Identity.sol\":1694:1987  constructor(address initialManagementKey, bool _isLibrary) {... */\n  callvalue\n  dup1\n  iszero\n  tag_1\n  jumpi\n  0x00\n  dup1\n  revert\ntag_1:\n  pop\n  mload(0x40)\n  sub(codesize, bytecodeSize)\n  dup1\n  bytecodeSize\n  dup4\n  codecopy\n  dup2\n  add\n  0x40\n  dup2\n  swap1\n  mstore\n  tag_2\n  swap2\n  tag_3\n  jump\t// in\ntag_2:\n  sub(shl(0xa0, 0x01), 0x01)\n    /* \".deps/npm/@onchain-id/solidity/contracts/Identity.sol\":1771:1805  initialManagementKey != address(0) */\n  dup3\n  and\n    /* \".deps/npm/@onchain-id/solidity/contracts/Identity.sol\":1763:1841  require(initialManagementKey != address(0), \"invalid argument - zero address\") */\n  tag_6\n  jumpi\n  mload(0x40)\n  shl(0xe5, 0x461bcd)\n  dup2\n  mstore\n    /* \"#utility.yul\":673:675   */\n  0x20\n    /* \".deps/npm/@onchain-id/solidity/contracts/Identity.sol\":1763:1841  require(initialManagementKey != address(0), \"invalid argument - zero address\") */\n  0x04\n  dup3\n  add\n    /* \"#utility.yul\":655:676   */\n  mstore\n    /* \"#utility.yul\":712:714   */\n  0x1f\n    /* \"#utility.yul\":692:710   */\n  0x24\n  dup3\n  add\n    /* \"#utility.yul\":685:715   */\n  mstore\n    /* \"#utility.yul\":751:784   */\n  0x696e76616c696420617267756d656e74202d207a65726f206164647265737300\n    /* \"#utility.yul\":731:749   */\n  0x44\n  dup3\n  add\n    /* \"#utility.yul\":724:785   */\n  mstore\n    /* \"#utility.yul\":802:820   */\n  0x64\n  add\n    /* \".deps/npm/@onchain-id/solidity/contracts/Identity.sol\":1763:1841  require(initialManagementKey != address(0), \"invalid argument - zero address\") */\ntag_7:\n  mload(0x40)\n  dup1\n  swap2\n  sub\n  swap1\n  revert\ntag_6:\n    /* \".deps/npm/@onchain-id/solidity/contracts/Identity.sol\":1857:1867  _isLibrary */\n  dup1\n    /* \".deps/npm/@onchain-id/solidity/contracts/Identity.sol\":1852:1981  if (!_isLibrary) {... */\n  tag_9\n  jumpi\n    /* \".deps/npm/@onchain-id/solidity/contracts/Identity.sol\":1883:1920  __Identity_init(initialManagementKey) */\n  tag_10\n    /* \".deps/npm/@onchain-id/solidity/contracts/Identity.sol\":1899:1919  initialManagementKey */\n  dup3\n    /* \".deps/npm/@onchain-id/solidity/contracts/Identity.sol\":1883:1898  __Identity_init */\n  tag_11\n    /* \".deps/npm/@onchain-id/solidity/contracts/Identity.sol\":1883:1920  __Identity_init(initialManagementKey) */\n  jump\t// in\ntag_10:\n    /* \".deps/npm/@onchain-id/solidity/contracts/Identity.sol\":1852:1981  if (!_isLibrary) {... */\n  jump(tag_12)\ntag_9:\n    /* \".deps/npm/@onchain-id/solidity/contracts/Identity.sol\":1951:1963  _initialized */\n  0x06\n    /* \".deps/npm/@onchain-id/solidity/contracts/Identity.sol\":1951:1970  _initialized = true */\n  dup1\n  sload\n  not(0xff)\n  and\n    /* \".deps/npm/@onchain-id/solidity/contracts/Identity.sol\":1966:1970  true */\n  0x01\n    /* \".deps/npm/@onchain-id/solidity/contracts/Identity.sol\":1951:1970  _initialized = true */\n  or\n  swap1\n  sstore\n    /* \".deps/npm/@onchain-id/solidity/contracts/Identity.sol\":1852:1981  if (!_isLibrary) {... */\ntag_12:\n    /* \".deps/npm/@onchain-id/solidity/contracts/Identity.sol\":1694:1987  constructor(address initialManagementKey, bool _isLibrary) {... */\n  pop\n  pop\n    /* \".deps/npm/@onchain-id/solidity/contracts/Identity.sol\":480:20903  contract Identity is Storage, IIdentity, Version {... */\n  jump(tag_34)\n    /* \".deps/npm/@onchain-id/solidity/contracts/Identity.sol\":20021:20479  function __Identity_init(address initialManagementKey) internal {... */\ntag_11:\n    /* \".deps/npm/@onchain-id/solidity/contracts/Identity.sol\":20104:20116  _initialized */\n  and(0xff, sload(0x06))\n    /* \".deps/npm/@onchain-id/solidity/contracts/Identity.sol\":20103:20116  !_initialized */\n  iszero\n  dup1\n    /* \".deps/npm/@onchain-id/solidity/contracts/Identity.sol\":20103:20136  !_initialized || _isConstructor() */\n  tag_16\n  jumpi\n  pop\n    /* \".deps/npm/@onchain-id/solidity/contracts/Identity.sol\":20744:20748  this */\n  address\n    /* \".deps/npm/@onchain-id/solidity/contracts/Identity.sol\":20852:20869  extcodesize(self) */\n  extcodesize\n    /* \".deps/npm/@onchain-id/solidity/contracts/Identity.sol\":20887:20894  cs == 0 */\n  iszero\n    /* \".deps/npm/@onchain-id/solidity/contracts/Identity.sol\":20120:20136  _isConstructor() */\ntag_16:\n    /* \".deps/npm/@onchain-id/solidity/contracts/Identity.sol\":20095:20171  require(!_initialized || _isConstructor(), \"Initial key was already setup.\") */\n  tag_18\n  jumpi\n  mload(0x40)\n  shl(0xe5, 0x461bcd)\n  dup2\n  mstore\n    /* \"#utility.yul\":1033:1035   */\n  0x20\n    /* \".deps/npm/@onchain-id/solidity/contracts/Identity.sol\":20095:20171  require(!_initialized || _isConstructor(), \"Initial key was already setup.\") */\n  0x04\n  dup3\n  add\n    /* \"#utility.yul\":1015:1036   */\n  mstore\n    /* \"#utility.yul\":1072:1074   */\n  0x1e\n    /* \"#utility.yul\":1052:1070   */\n  0x24\n  dup3\n  add\n    /* \"#utility.yul\":1045:1075   */\n  mstore\n    /* \"#utility.yul\":1111:1143   */\n  0x496e697469616c206b65792077617320616c72656164792073657475702e0000\n    /* \"#utility.yul\":1091:1109   */\n  0x44\n  dup3\n  add\n    /* \"#utility.yul\":1084:1144   */\n  mstore\n    /* \"#utility.yul\":1161:1179   */\n  0x64\n  add\n    /* \".deps/npm/@onchain-id/solidity/contracts/Identity.sol\":20095:20171  require(!_initialized || _isConstructor(), \"Initial key was already setup.\") */\n  tag_7\n    /* \"#utility.yul\":831:1185   */\n  jump\n    /* \".deps/npm/@onchain-id/solidity/contracts/Identity.sol\":20095:20171  require(!_initialized || _isConstructor(), \"Initial key was already setup.\") */\ntag_18:\n    /* \".deps/npm/@onchain-id/solidity/contracts/Identity.sol\":20181:20193  _initialized */\n  0x06\n    /* \".deps/npm/@onchain-id/solidity/contracts/Identity.sol\":20181:20200  _initialized = true */\n  dup1\n  sload\n  not(0xffff)\n    /* \".deps/npm/@onchain-id/solidity/contracts/Identity.sol\":20210:20229  _canInteract = true */\n  and\n  0x0101\n  or\n  swap1\n  sstore\n    /* \".deps/npm/@onchain-id/solidity/contracts/Identity.sol\":20265:20297  abi.encode(initialManagementKey) */\n  0x40\n  dup1\n  mload\n  sub(shl(0xa0, 0x01), 0x01)\n    /* \"#utility.yul\":1354:1386   */\n  dup4\n  and\n    /* \".deps/npm/@onchain-id/solidity/contracts/Identity.sol\":20265:20297  abi.encode(initialManagementKey) */\n  0x20\n  dup3\n  add\n    /* \"#utility.yul\":1336:1387   */\n  mstore\n  0x00\n  swap2\n    /* \"#utility.yul\":1309:1327   */\n  add\n    /* \".deps/npm/@onchain-id/solidity/contracts/Identity.sol\":20265:20297  abi.encode(initialManagementKey) */\n  0x40\n  dup1\n  mload\n  not(0x1f)\n  dup2\n  dup5\n  sub\n  add\n  dup2\n  mstore\n  dup3\n  dup3\n  mstore\n    /* \".deps/npm/@onchain-id/solidity/contracts/Identity.sol\":20255:20298  keccak256(abi.encode(initialManagementKey)) */\n  dup1\n  mload\n    /* \".deps/npm/@onchain-id/solidity/contracts/Identity.sol\":20265:20297  abi.encode(initialManagementKey) */\n  0x20\n    /* \".deps/npm/@onchain-id/solidity/contracts/Identity.sol\":20255:20298  keccak256(abi.encode(initialManagementKey)) */\n  swap2\n  dup3\n  add\n  keccak256\n    /* \".deps/npm/@onchain-id/solidity/contracts/Identity.sol\":20308:20319  _keys[_key] */\n  0x00\n  dup2\n  dup2\n  mstore\n    /* \".deps/npm/@onchain-id/solidity/contracts/Identity.sol\":20308:20313  _keys */\n  0x01\n    /* \".deps/npm/@onchain-id/solidity/contracts/Identity.sol\":20308:20319  _keys[_key] */\n  dup1\n  dup5\n  mstore\n  dup5\n  dup3\n  keccak256\n    /* \".deps/npm/@onchain-id/solidity/contracts/Identity.sol\":20308:20323  _keys[_key].key */\n  0x02\n  dup2\n  add\n    /* \".deps/npm/@onchain-id/solidity/contracts/Identity.sol\":20308:20330  _keys[_key].key = _key */\n  dup5\n  swap1\n  sstore\n    /* \".deps/npm/@onchain-id/solidity/contracts/Identity.sol\":20340:20366  _keys[_key].purposes = [1] */\n  dup7\n  dup6\n  add\n  swap1\n  swap6\n  mstore\n  dup1\n  dup7\n  mstore\n    /* \".deps/npm/@onchain-id/solidity/contracts/Identity.sol\":20340:20351  _keys[_key] */\n  swap1\n  dup3\n  swap1\n  mstore\n  swap2\n  dup3\n  swap1\n  mstore\n    /* \".deps/npm/@onchain-id/solidity/contracts/Identity.sol\":20255:20298  keccak256(abi.encode(initialManagementKey)) */\n  swap4\n  pop\n    /* \".deps/npm/@onchain-id/solidity/contracts/Identity.sol\":20340:20366  _keys[_key].purposes = [1] */\n  tag_23\n  swap3\n    /* \".deps/npm/@onchain-id/solidity/contracts/Identity.sol\":20265:20297  abi.encode(initialManagementKey) */\n  swap1\n    /* \".deps/npm/@onchain-id/solidity/contracts/Identity.sol\":20340:20366  _keys[_key].purposes = [1] */\n  tag_24\n  jump\t// in\ntag_23:\n  pop\n    /* \".deps/npm/@onchain-id/solidity/contracts/Identity.sol\":20376:20387  _keys[_key] */\n  0x00\n  dup2\n  dup2\n  mstore\n    /* \".deps/npm/@onchain-id/solidity/contracts/Identity.sol\":20398:20399  1 */\n  0x01\n    /* \".deps/npm/@onchain-id/solidity/contracts/Identity.sol\":20376:20387  _keys[_key] */\n  0x20\n  dup2\n  dup2\n  mstore\n  0x40\n  dup1\n  dup5\n  keccak256\n    /* \".deps/npm/@onchain-id/solidity/contracts/Identity.sol\":20376:20395  _keys[_key].keyType */\n  dup4\n  add\n    /* \".deps/npm/@onchain-id/solidity/contracts/Identity.sol\":20376:20399  _keys[_key].keyType = 1 */\n  dup4\n  swap1\n  sstore\n    /* \".deps/npm/@onchain-id/solidity/contracts/Identity.sol\":20409:20423  _keysByPurpose */\n  0x02\n    /* \".deps/npm/@onchain-id/solidity/contracts/Identity.sol\":20409:20426  _keysByPurpose[1] */\n  swap1\n  swap2\n  mstore\n  0xe90b7bceb6e7df5418fb78d8ee546e97c83a08bbccc01a0644d599ccd2a7c2e0\n    /* \".deps/npm/@onchain-id/solidity/contracts/Identity.sol\":20409:20437  _keysByPurpose[1].push(_key) */\n  dup1\n  sload\n  dup1\n  dup5\n  add\n  dup3\n  sstore\n  swap1\n  dup5\n  mstore\n  0x7fef4bf8f63cf9dd467136c679c02b5c17fcf6322d9562512bf5eb952cf7cc53\n  add\n  dup5\n  swap1\n  sstore\n    /* \".deps/npm/@onchain-id/solidity/contracts/Identity.sol\":20452:20472  KeyAdded(_key, 1, 1) */\n  mload\n    /* \".deps/npm/@onchain-id/solidity/contracts/Identity.sol\":20398:20399  1 */\n  swap1\n  swap2\n  dup3\n  swap2\n    /* \".deps/npm/@onchain-id/solidity/contracts/Identity.sol\":20382:20386  _key */\n  dup5\n  swap2\n    /* \".deps/npm/@onchain-id/solidity/contracts/Identity.sol\":20452:20472  KeyAdded(_key, 1, 1) */\n  0x480000bb1edad8ca1470381cc334b1917fbd51c6531f3a623ea8e0ec7e38a6e9\n  swap2\n  log4\n    /* \".deps/npm/@onchain-id/solidity/contracts/Identity.sol\":20085:20479  {... */\n  pop\n    /* \".deps/npm/@onchain-id/solidity/contracts/Identity.sol\":20021:20479  function __Identity_init(address initialManagementKey) internal {... */\n  pop\n  jump\t// out\n    /* \".deps/npm/@onchain-id/solidity/contracts/Identity.sol\":480:20903  contract Identity is Storage, IIdentity, Version {... */\ntag_24:\n  dup3\n  dup1\n  sload\n  dup3\n  dup3\n  sstore\n  swap1\n  0x00\n  mstore\n  keccak256(0x00, 0x20)\n  swap1\n  dup2\n  add\n  swap3\n  dup3\n  iszero\n  tag_29\n  jumpi\n  swap2\n  0x20\n  mul\n  dup3\n  add\ntag_28:\n  dup3\n  dup2\n  gt\n  iszero\n  tag_29\n  jumpi\n  dup3\n  mload\n  dup3\n  swap1\n  0xff\n  and\n  swap1\n  sstore\n  swap2\n  0x20\n  add\n  swap2\n  swap1\n  0x01\n  add\n  swap1\n  jump(tag_28)\ntag_29:\n  pop\n  tag_30\n  swap3\n  swap2\n  pop\n  tag_31\n  jump\t// in\ntag_30:\n  pop\n  swap1\n  jump\t// out\ntag_31:\ntag_32:\n  dup1\n  dup3\n  gt\n  iszero\n  tag_30\n  jumpi\n  0x00\n  dup2\n  sstore\n  0x01\n  add\n  jump(tag_32)\n    /* \"#utility.yul\":14:466   */\ntag_3:\n    /* \"#utility.yul\":90:96   */\n  0x00\n    /* \"#utility.yul\":98:104   */\n  dup1\n    /* \"#utility.yul\":151:153   */\n  0x40\n    /* \"#utility.yul\":139:148   */\n  dup4\n    /* \"#utility.yul\":130:137   */\n  dup6\n    /* \"#utility.yul\":126:149   */\n  sub\n    /* \"#utility.yul\":122:154   */\n  slt\n    /* \"#utility.yul\":119:171   */\n  iszero\n  tag_36\n  jumpi\n    /* \"#utility.yul\":167:168   */\n  0x00\n    /* \"#utility.yul\":164:165   */\n  dup1\n    /* \"#utility.yul\":157:169   */\n  revert\n    /* \"#utility.yul\":119:171   */\ntag_36:\n    /* \"#utility.yul\":193:209   */\n  dup3\n  mload\n  sub(shl(0xa0, 0x01), 0x01)\n    /* \"#utility.yul\":238:269   */\n  dup2\n  and\n    /* \"#utility.yul\":228:270   */\n  dup2\n  eq\n    /* \"#utility.yul\":218:288   */\n  tag_37\n  jumpi\n    /* \"#utility.yul\":284:285   */\n  0x00\n    /* \"#utility.yul\":281:282   */\n  dup1\n    /* \"#utility.yul\":274:286   */\n  revert\n    /* \"#utility.yul\":218:288   */\ntag_37:\n    /* \"#utility.yul\":357:359   */\n  0x20\n    /* \"#utility.yul\":342:360   */\n  dup5\n  add\n    /* \"#utility.yul\":336:361   */\n  mload\n    /* \"#utility.yul\":307:312   */\n  swap1\n  swap3\n  pop\n    /* \"#utility.yul\":399:414   */\n  dup1\n  iszero\n    /* \"#utility.yul\":392:415   */\n  iszero\n    /* \"#utility.yul\":380:416   */\n  dup2\n  eq\n    /* \"#utility.yul\":370:434   */\n  tag_38\n  jumpi\n    /* \"#utility.yul\":430:431   */\n  0x00\n    /* \"#utility.yul\":427:428   */\n  dup1\n    /* \"#utility.yul\":420:432   */\n  revert\n    /* \"#utility.yul\":370:434   */\ntag_38:\n    /* \"#utility.yul\":453:460   */\n  dup1\n    /* \"#utility.yul\":443:460   */\n  swap2\n  pop\n  pop\n    /* \"#utility.yul\":14:466   */\n  swap3\n  pop\n  swap3\n  swap1\n  pop\n  jump\t// out\n    /* \"#utility.yul\":1190:1393   */\ntag_34:\n    /* \".deps/npm/@onchain-id/solidity/contracts/Identity.sol\":480:20903  contract Identity is Storage, IIdentity, Version {... */\n  dataSize(sub_0)\n  dup1\n  dataOffset(sub_0)\n  0x00\n  codecopy\n  0x00\n  return\nstop\n\nsub_0: assembly {\n        /* \".deps/npm/@onchain-id/solidity/contracts/Identity.sol\":480:20903  contract Identity is Storage, IIdentity, Version {... */\n      mstore(0x40, 0x80)\n      jumpi(tag_1, lt(calldatasize, 0x04))\n      shr(0xe0, calldataload(0x00))\n      dup1\n      0xb1a34e0d\n      gt\n      tag_18\n      jumpi\n      dup1\n      0xc4d66de8\n      gt\n      tag_19\n      jumpi\n      dup1\n      0xc4d66de8\n      eq\n      tag_14\n      jumpi\n      dup1\n      0xc9100bcb\n      eq\n      tag_15\n      jumpi\n      dup1\n      0xd202158d\n      eq\n      tag_16\n      jumpi\n      dup1\n      0xfb307b34\n      eq\n      tag_17\n      jumpi\n      0x00\n      dup1\n      revert\n    tag_19:\n      dup1\n      0xb1a34e0d\n      eq\n      tag_10\n      jumpi\n      dup1\n      0xb61d27f6\n      eq\n      tag_11\n      jumpi\n      dup1\n      0xc0969a6e\n      eq\n      tag_12\n      jumpi\n      dup1\n      0xc3b129e3\n      eq\n      tag_13\n      jumpi\n      0x00\n      dup1\n      revert\n    tag_18:\n      dup1\n      0x54fd4d50\n      gt\n      tag_20\n      jumpi\n      dup1\n      0x54fd4d50\n      eq\n      tag_6\n      jumpi\n      dup1\n      0x747442d3\n      eq\n      tag_7\n      jumpi\n      dup1\n      0x80e9e9e1\n      eq\n      tag_8\n      jumpi\n      dup1\n      0x9010f726\n      eq\n      tag_9\n      jumpi\n      0x00\n      dup1\n      revert\n    tag_20:\n      dup1\n      0x12aaac70\n      eq\n      tag_2\n      jumpi\n      dup1\n      0x1d381240\n      eq\n      tag_3\n      jumpi\n      dup1\n      0x4eee424a\n      eq\n      tag_4\n      jumpi\n      dup1\n      0x53d413c5\n      eq\n      tag_5\n      jumpi\n    tag_1:\n      0x00\n      dup1\n      revert\n        /* \".deps/npm/@onchain-id/solidity/contracts/Identity.sol\":4274:4496  function getKey(bytes32 _key)... */\n    tag_2:\n      callvalue\n      dup1\n      iszero\n      tag_21\n      jumpi\n      0x00\n      dup1\n      revert\n    tag_21:\n      pop\n      tag_22\n      tag_23\n      calldatasize\n      0x04\n      tag_24\n      jump\t// in\n    tag_23:\n      tag_25\n      jump\t// in\n    tag_22:\n      mload(0x40)\n      tag_26\n      swap4\n      swap3\n      swap2\n      swap1\n      tag_27\n      jump\t// in\n    tag_26:\n      mload(0x40)\n      dup1\n      swap2\n      sub\n      swap1\n      return\n        /* \".deps/npm/@onchain-id/solidity/contracts/Identity.sol\":7066:7946  function addKey(bytes32 _key, uint256 _purpose, uint256 _type)... */\n    tag_3:\n      callvalue\n      dup1\n      iszero\n      tag_28\n      jumpi\n      0x00\n      dup1\n      revert\n    tag_28:\n      pop\n      tag_29\n      tag_30\n      calldatasize\n      0x04\n      tag_31\n      jump\t// in\n    tag_30:\n      tag_32\n      jump\t// in\n    tag_29:\n      mload(0x40)\n        /* \"#utility.yul\":1533:1547   */\n      swap1\n      iszero\n        /* \"#utility.yul\":1526:1548   */\n      iszero\n        /* \"#utility.yul\":1508:1549   */\n      dup2\n      mstore\n        /* \"#utility.yul\":1496:1498   */\n      0x20\n        /* \"#utility.yul\":1481:1499   */\n      add\n        /* \".deps/npm/@onchain-id/solidity/contracts/Identity.sol\":7066:7946  function addKey(bytes32 _key, uint256 _purpose, uint256 _type)... */\n      tag_26\n        /* \"#utility.yul\":1368:1555   */\n      jump\n        /* \".deps/npm/@onchain-id/solidity/contracts/Identity.sol\":14084:15104  function removeClaim(bytes32 _claimId)... */\n    tag_4:\n      callvalue\n      dup1\n      iszero\n      tag_35\n      jumpi\n      0x00\n      dup1\n      revert\n    tag_35:\n      pop\n      tag_29\n      tag_37\n      calldatasize\n      0x04\n      tag_24\n      jump\t// in\n    tag_37:\n      tag_38\n      jump\t// in\n        /* \".deps/npm/@onchain-id/solidity/contracts/Identity.sol\":10047:11335  function removeKey(bytes32 _key, uint256 _purpose)... */\n    tag_5:\n      callvalue\n      dup1\n      iszero\n      tag_40\n      jumpi\n      0x00\n      dup1\n      revert\n    tag_40:\n      pop\n      tag_29\n      tag_42\n      calldatasize\n      0x04\n      tag_43\n      jump\t// in\n    tag_42:\n      tag_44\n      jump\t// in\n        /* \".deps/npm/@onchain-id/solidity/contracts/version/Version.sol\":253:366  function version() external pure returns (string memory) {... */\n    tag_6:\n      callvalue\n      dup1\n      iszero\n      tag_46\n      jumpi\n      0x00\n      dup1\n      revert\n    tag_46:\n      pop\n        /* \".deps/npm/@onchain-id/solidity/contracts/version/Version.sol\":345:359  return \"2.2.0\" */\n      0x40\n      dup1\n      mload\n      dup1\n      dup3\n      add\n      dup3\n      mstore\n      0x05\n      dup2\n      mstore\n      shl(0xdc, 0x0322e322e3)\n      0x20\n      dup3\n      add\n      mstore\n        /* \".deps/npm/@onchain-id/solidity/contracts/version/Version.sol\":253:366  function version() external pure returns (string memory) {... */\n      swap1\n      mload\n      tag_26\n      swap2\n        /* \".deps/npm/@onchain-id/solidity/contracts/version/Version.sol\":345:359  return \"2.2.0\" */\n      swap1\n        /* \".deps/npm/@onchain-id/solidity/contracts/version/Version.sol\":253:366  function version() external pure returns (string memory) {... */\n      tag_50\n      jump\t// in\n        /* \".deps/npm/@onchain-id/solidity/contracts/Identity.sol\":8385:9945  function approve(uint256 _id, bool _approve)... */\n    tag_7:\n      callvalue\n      dup1\n      iszero\n      tag_51\n      jumpi\n      0x00\n      dup1\n      revert\n    tag_51:\n      pop\n      tag_29\n      tag_53\n      calldatasize\n      0x04\n      tag_54\n      jump\t// in\n    tag_53:\n      tag_55\n      jump\t// in\n        /* \".deps/npm/@onchain-id/solidity/contracts/Identity.sol\":5825:5993  function getClaimIdsByTopic(uint256 _topic)... */\n    tag_8:\n      callvalue\n      dup1\n      iszero\n      tag_57\n      jumpi\n      0x00\n      dup1\n      revert\n    tag_57:\n      pop\n      tag_58\n      tag_59\n      calldatasize\n      0x04\n      tag_24\n      jump\t// in\n    tag_59:\n      tag_61\n      jump\t// in\n    tag_58:\n      mload(0x40)\n      tag_26\n      swap2\n      swap1\n      tag_63\n      jump\t// in\n        /* \".deps/npm/@onchain-id/solidity/contracts/Identity.sol\":5291:5457  function getKeysByPurpose(uint256 _purpose)... */\n    tag_9:\n      callvalue\n      dup1\n      iszero\n      tag_64\n      jumpi\n      0x00\n      dup1\n      revert\n    tag_64:\n      pop\n      tag_58\n      tag_66\n      calldatasize\n      0x04\n      tag_24\n      jump\t// in\n    tag_66:\n      tag_67\n      jump\t// in\n        /* \".deps/npm/@onchain-id/solidity/contracts/Identity.sol\":12477:13612  function addClaim(... */\n    tag_10:\n      callvalue\n      dup1\n      iszero\n      tag_69\n      jumpi\n      0x00\n      dup1\n      revert\n    tag_69:\n      pop\n      tag_70\n      tag_71\n      calldatasize\n      0x04\n      tag_72\n      jump\t// in\n    tag_71:\n      tag_73\n      jump\t// in\n    tag_70:\n      mload(0x40)\n        /* \"#utility.yul\":6146:6171   */\n      swap1\n      dup2\n      mstore\n        /* \"#utility.yul\":6134:6136   */\n      0x20\n        /* \"#utility.yul\":6119:6137   */\n      add\n        /* \".deps/npm/@onchain-id/solidity/contracts/Identity.sol\":12477:13612  function addClaim(... */\n      tag_26\n        /* \"#utility.yul\":6000:6177   */\n      jump\n        /* \".deps/npm/@onchain-id/solidity/contracts/Identity.sol\":3064:3811  function execute(address _to, uint256 _value, bytes memory _data)... */\n    tag_11:\n      tag_70\n      tag_77\n      calldatasize\n      0x04\n      tag_78\n      jump\t// in\n    tag_77:\n      tag_79\n      jump\t// in\n        /* \".deps/npm/@onchain-id/solidity/contracts/Identity.sol\":17865:18791  function isClaimValid(... */\n    tag_12:\n      callvalue\n      dup1\n      iszero\n      tag_82\n      jumpi\n      0x00\n      dup1\n      revert\n    tag_82:\n      pop\n      tag_29\n      tag_84\n      calldatasize\n      0x04\n      tag_85\n      jump\t// in\n    tag_84:\n      tag_86\n      jump\t// in\n        /* \".deps/npm/@onchain-id/solidity/contracts/Identity.sol\":19042:19761  function getRecoveredAddress(bytes memory sig, bytes32 dataHash)... */\n    tag_13:\n      callvalue\n      dup1\n      iszero\n      tag_88\n      jumpi\n      0x00\n      dup1\n      revert\n    tag_88:\n      pop\n      tag_89\n      tag_90\n      calldatasize\n      0x04\n      tag_91\n      jump\t// in\n    tag_90:\n      tag_92\n      jump\t// in\n    tag_89:\n      mload(0x40)\n      sub(shl(0xa0, 0x01), 0x01)\n        /* \"#utility.yul\":8215:8247   */\n      swap1\n      swap2\n      and\n        /* \"#utility.yul\":8197:8248   */\n      dup2\n      mstore\n        /* \"#utility.yul\":8185:8187   */\n      0x20\n        /* \"#utility.yul\":8170:8188   */\n      add\n        /* \".deps/npm/@onchain-id/solidity/contracts/Identity.sol\":19042:19761  function getRecoveredAddress(bytes memory sig, bytes32 dataHash)... */\n      tag_26\n        /* \"#utility.yul\":8051:8254   */\n      jump\n        /* \".deps/npm/@onchain-id/solidity/contracts/Identity.sol\":2239:2440  function initialize(address initialManagementKey) external {... */\n    tag_14:\n      callvalue\n      dup1\n      iszero\n      tag_95\n      jumpi\n      0x00\n      dup1\n      revert\n    tag_95:\n      pop\n      tag_96\n      tag_97\n      calldatasize\n      0x04\n      tag_98\n      jump\t// in\n    tag_97:\n      tag_99\n      jump\t// in\n    tag_96:\n      stop\n        /* \".deps/npm/@onchain-id/solidity/contracts/Identity.sol\":16194:16677  function getClaim(bytes32 _claimId)... */\n    tag_15:\n      callvalue\n      dup1\n      iszero\n      tag_100\n      jumpi\n      0x00\n      dup1\n      revert\n    tag_100:\n      pop\n      tag_101\n      tag_102\n      calldatasize\n      0x04\n      tag_24\n      jump\t// in\n    tag_102:\n      tag_103\n      jump\t// in\n    tag_101:\n      mload(0x40)\n      tag_26\n      swap7\n      swap6\n      swap5\n      swap4\n      swap3\n      swap2\n      swap1\n      tag_105\n      jump\t// in\n        /* \".deps/npm/@onchain-id/solidity/contracts/Identity.sol\":16825:17288  function keyHasPurpose(bytes32 _key, uint256 _purpose)... */\n    tag_16:\n      callvalue\n      dup1\n      iszero\n      tag_106\n      jumpi\n      0x00\n      dup1\n      revert\n    tag_106:\n      pop\n      tag_29\n      tag_108\n      calldatasize\n      0x04\n      tag_43\n      jump\t// in\n    tag_108:\n      tag_109\n      jump\t// in\n        /* \".deps/npm/@onchain-id/solidity/contracts/Identity.sol\":4761:4924  function getKeyPurposes(bytes32 _key)... */\n    tag_17:\n      callvalue\n      dup1\n      iszero\n      tag_111\n      jumpi\n      0x00\n      dup1\n      revert\n    tag_111:\n      pop\n      tag_112\n      tag_113\n      calldatasize\n      0x04\n      tag_24\n      jump\t// in\n    tag_113:\n      tag_114\n      jump\t// in\n    tag_112:\n      mload(0x40)\n      tag_26\n      swap2\n      swap1\n      tag_116\n      jump\t// in\n        /* \".deps/npm/@onchain-id/solidity/contracts/Identity.sol\":4274:4496  function getKey(bytes32 _key)... */\n    tag_25:\n        /* \".deps/npm/@onchain-id/solidity/contracts/Identity.sol\":4378:4393  uint256 keyType */\n      0x00\n        /* \".deps/npm/@onchain-id/solidity/contracts/Identity.sol\":4430:4441  _keys[_key] */\n      dup2\n      dup2\n      mstore\n        /* \".deps/npm/@onchain-id/solidity/contracts/Identity.sol\":4430:4435  _keys */\n      0x01\n        /* \".deps/npm/@onchain-id/solidity/contracts/Identity.sol\":4430:4441  _keys[_key] */\n      0x20\n      dup2\n      dup2\n      mstore\n      0x40\n      dup1\n      dup5\n      keccak256\n        /* \".deps/npm/@onchain-id/solidity/contracts/Identity.sol\":4452:4471  _keys[_key].keyType */\n      swap3\n      dup4\n      add\n      sload\n        /* \".deps/npm/@onchain-id/solidity/contracts/Identity.sol\":4473:4488  _keys[_key].key */\n      0x02\n      dup5\n      add\n      sload\n        /* \".deps/npm/@onchain-id/solidity/contracts/Identity.sol\":4422:4489  return (_keys[_key].purposes, _keys[_key].keyType, _keys[_key].key) */\n      dup5\n      sload\n      dup4\n      mload\n      dup2\n      dup7\n      mul\n      dup2\n      add\n      dup7\n      add\n      swap1\n      swap5\n      mstore\n      dup1\n      dup5\n      mstore\n        /* \".deps/npm/@onchain-id/solidity/contracts/Identity.sol\":4351:4376  uint256[] memory purposes */\n      0x60\n      swap7\n        /* \".deps/npm/@onchain-id/solidity/contracts/Identity.sol\":4378:4393  uint256 keyType */\n      swap6\n      dup7\n      swap6\n        /* \".deps/npm/@onchain-id/solidity/contracts/Identity.sol\":4430:4441  _keys[_key] */\n      swap1\n      swap5\n        /* \".deps/npm/@onchain-id/solidity/contracts/Identity.sol\":4422:4489  return (_keys[_key].purposes, _keys[_key].keyType, _keys[_key].key) */\n      swap2\n        /* \".deps/npm/@onchain-id/solidity/contracts/Identity.sol\":4430:4441  _keys[_key] */\n      dup6\n      swap2\n        /* \".deps/npm/@onchain-id/solidity/contracts/Identity.sol\":4422:4489  return (_keys[_key].purposes, _keys[_key].keyType, _keys[_key].key) */\n      dup4\n      add\n        /* \".deps/npm/@onchain-id/solidity/contracts/Identity.sol\":4430:4441  _keys[_key] */\n      dup3\n        /* \".deps/npm/@onchain-id/solidity/contracts/Identity.sol\":4422:4489  return (_keys[_key].purposes, _keys[_key].keyType, _keys[_key].key) */\n      dup3\n      dup1\n      iszero\n      tag_118\n      jumpi\n      0x20\n      mul\n      dup3\n      add\n      swap2\n      swap1\n      0x00\n      mstore\n      keccak256(0x00, 0x20)\n      swap1\n    tag_119:\n      dup2\n      sload\n      dup2\n      mstore\n      0x20\n      add\n      swap1\n      0x01\n      add\n      swap1\n      dup1\n      dup4\n      gt\n      tag_119\n      jumpi\n    tag_118:\n      pop\n      pop\n      pop\n      pop\n      pop\n      swap3\n      pop\n      swap3\n      pop\n      swap3\n      pop\n      swap3\n      pop\n        /* \".deps/npm/@onchain-id/solidity/contracts/Identity.sol\":4274:4496  function getKey(bytes32 _key)... */\n      swap2\n      swap4\n      swap1\n      swap3\n      pop\n      jump\t// out\n        /* \".deps/npm/@onchain-id/solidity/contracts/Identity.sol\":7066:7946  function addKey(bytes32 _key, uint256 _purpose, uint256 _type)... */\n    tag_32:\n        /* \".deps/npm/@onchain-id/solidity/contracts/Identity.sol\":700:712  _canInteract */\n      sload(0x06)\n        /* \".deps/npm/@onchain-id/solidity/contracts/Identity.sol\":7200:7212  bool success */\n      0x00\n      swap1\n        /* \".deps/npm/@onchain-id/solidity/contracts/Identity.sol\":700:712  _canInteract */\n      0xff\n      0x0100\n      swap1\n      swap2\n      div\n      and\n        /* \".deps/npm/@onchain-id/solidity/contracts/Identity.sol\":700:720  _canInteract == true */\n      iszero\n      iszero\n        /* \".deps/npm/@onchain-id/solidity/contracts/Identity.sol\":700:712  _canInteract */\n      0x01\n        /* \".deps/npm/@onchain-id/solidity/contracts/Identity.sol\":700:720  _canInteract == true */\n      eq\n        /* \".deps/npm/@onchain-id/solidity/contracts/Identity.sol\":692:776  require(_canInteract == true, \"Interacting with the library contract is forbidden.\") */\n      tag_121\n      jumpi\n      mload(0x40)\n      shl(0xe5, 0x461bcd)\n      dup2\n      mstore\n      0x04\n      add\n      tag_122\n      swap1\n      tag_123\n      jump\t// in\n    tag_122:\n      mload(0x40)\n      dup1\n      swap2\n      sub\n      swap1\n      revert\n    tag_121:\n        /* \".deps/npm/@onchain-id/solidity/contracts/Identity.sol\":936:946  msg.sender */\n      caller\n        /* \".deps/npm/@onchain-id/solidity/contracts/Identity.sol\":958:962  this */\n      address\n        /* \".deps/npm/@onchain-id/solidity/contracts/Identity.sol\":936:963  msg.sender == address(this) */\n      eq\n      dup1\n        /* \".deps/npm/@onchain-id/solidity/contracts/Identity.sol\":936:1018  msg.sender == address(this) || keyHasPurpose(keccak256(abi.encode(msg.sender)), 1) */\n      tag_126\n      jumpi\n      pop\n        /* \".deps/npm/@onchain-id/solidity/contracts/Identity.sol\":991:1013  abi.encode(msg.sender) */\n      0x40\n      dup1\n      mload\n        /* \".deps/npm/@onchain-id/solidity/contracts/Identity.sol\":1002:1012  msg.sender */\n      caller\n        /* \".deps/npm/@onchain-id/solidity/contracts/Identity.sol\":991:1013  abi.encode(msg.sender) */\n      0x20\n      dup3\n      add\n        /* \"#utility.yul\":8197:8248   */\n      mstore\n        /* \".deps/npm/@onchain-id/solidity/contracts/Identity.sol\":967:1018  keyHasPurpose(keccak256(abi.encode(msg.sender)), 1) */\n      tag_126\n      swap2\n        /* \"#utility.yul\":8170:8188   */\n      add\n        /* \".deps/npm/@onchain-id/solidity/contracts/Identity.sol\":991:1013  abi.encode(msg.sender) */\n    tag_127:\n      mload(0x40)\n      0x20\n      dup2\n      dup4\n      sub\n      sub\n      dup2\n      mstore\n      swap1\n      0x40\n      mstore\n        /* \".deps/npm/@onchain-id/solidity/contracts/Identity.sol\":981:1014  keccak256(abi.encode(msg.sender)) */\n      dup1\n      mload\n      swap1\n      0x20\n      add\n      keccak256\n        /* \".deps/npm/@onchain-id/solidity/contracts/Identity.sol\":1016:1017  1 */\n      0x01\n        /* \".deps/npm/@onchain-id/solidity/contracts/Identity.sol\":967:980  keyHasPurpose */\n      tag_109\n        /* \".deps/npm/@onchain-id/solidity/contracts/Identity.sol\":967:1018  keyHasPurpose(keccak256(abi.encode(msg.sender)), 1) */\n      jump\t// in\n    tag_126:\n        /* \".deps/npm/@onchain-id/solidity/contracts/Identity.sol\":928:1080  require(msg.sender == address(this) || keyHasPurpose(keccak256(abi.encode(msg.sender)), 1)... */\n      tag_128\n      jumpi\n      mload(0x40)\n      shl(0xe5, 0x461bcd)\n      dup2\n      mstore\n      0x04\n      add\n      tag_122\n      swap1\n      tag_130\n      jump\t// in\n    tag_128:\n        /* \".deps/npm/@onchain-id/solidity/contracts/Identity.sol\":7232:7243  _keys[_key] */\n      0x00\n      dup5\n      dup2\n      mstore\n        /* \".deps/npm/@onchain-id/solidity/contracts/Identity.sol\":7232:7237  _keys */\n      0x01\n        /* \".deps/npm/@onchain-id/solidity/contracts/Identity.sol\":7232:7243  _keys[_key] */\n      0x20\n      mstore\n      0x40\n      swap1\n      keccak256\n        /* \".deps/npm/@onchain-id/solidity/contracts/Identity.sol\":7232:7247  _keys[_key].key */\n      0x02\n      add\n      sload\n        /* \".deps/npm/@onchain-id/solidity/contracts/Identity.sol\":7232:7255  _keys[_key].key == _key */\n      dup5\n      swap1\n      sub\n        /* \".deps/npm/@onchain-id/solidity/contracts/Identity.sol\":7228:7825  if (_keys[_key].key == _key) {... */\n      tag_132\n      jumpi\n        /* \".deps/npm/@onchain-id/solidity/contracts/Identity.sol\":7271:7297  uint256[] memory _purposes */\n      0x00\n        /* \".deps/npm/@onchain-id/solidity/contracts/Identity.sol\":7300:7311  _keys[_key] */\n      dup5\n      dup2\n      mstore\n        /* \".deps/npm/@onchain-id/solidity/contracts/Identity.sol\":7300:7305  _keys */\n      0x01\n        /* \".deps/npm/@onchain-id/solidity/contracts/Identity.sol\":7300:7311  _keys[_key] */\n      0x20\n      swap1\n      dup2\n      mstore\n      0x40\n      dup1\n      dup4\n      keccak256\n        /* \".deps/npm/@onchain-id/solidity/contracts/Identity.sol\":7271:7320  uint256[] memory _purposes = _keys[_key].purposes */\n      dup1\n      sload\n      dup3\n      mload\n      dup2\n      dup6\n      mul\n      dup2\n      add\n      dup6\n      add\n      swap1\n      swap4\n      mstore\n      dup1\n      dup4\n      mstore\n      swap2\n      swap3\n        /* \".deps/npm/@onchain-id/solidity/contracts/Identity.sol\":7300:7311  _keys[_key] */\n      swap1\n      swap2\n        /* \".deps/npm/@onchain-id/solidity/contracts/Identity.sol\":7271:7320  uint256[] memory _purposes = _keys[_key].purposes */\n      swap1\n      dup4\n      add\n        /* \".deps/npm/@onchain-id/solidity/contracts/Identity.sol\":7300:7311  _keys[_key] */\n      dup3\n        /* \".deps/npm/@onchain-id/solidity/contracts/Identity.sol\":7271:7320  uint256[] memory _purposes = _keys[_key].purposes */\n      dup3\n      dup1\n      iszero\n      tag_133\n      jumpi\n      0x20\n      mul\n      dup3\n      add\n      swap2\n      swap1\n      0x00\n      mstore\n      keccak256(0x00, 0x20)\n      swap1\n    tag_134:\n      dup2\n      sload\n      dup2\n      mstore\n      0x20\n      add\n      swap1\n      0x01\n      add\n      swap1\n      dup1\n      dup4\n      gt\n      tag_134\n      jumpi\n    tag_133:\n      pop\n      pop\n      pop\n      pop\n      pop\n      swap1\n      pop\n        /* \".deps/npm/@onchain-id/solidity/contracts/Identity.sol\":7339:7359  uint keyPurposeIndex */\n      0x00\n        /* \".deps/npm/@onchain-id/solidity/contracts/Identity.sol\":7334:7624  for (uint keyPurposeIndex = 0; keyPurposeIndex < _purposes.length; keyPurposeIndex++) {... */\n    tag_135:\n        /* \".deps/npm/@onchain-id/solidity/contracts/Identity.sol\":7383:7392  _purposes */\n      dup2\n        /* \".deps/npm/@onchain-id/solidity/contracts/Identity.sol\":7383:7399  _purposes.length */\n      mload\n        /* \".deps/npm/@onchain-id/solidity/contracts/Identity.sol\":7365:7380  keyPurposeIndex */\n      dup2\n        /* \".deps/npm/@onchain-id/solidity/contracts/Identity.sol\":7365:7399  keyPurposeIndex < _purposes.length */\n      lt\n        /* \".deps/npm/@onchain-id/solidity/contracts/Identity.sol\":7334:7624  for (uint keyPurposeIndex = 0; keyPurposeIndex < _purposes.length; keyPurposeIndex++) {... */\n      iszero\n      tag_136\n      jumpi\n        /* \".deps/npm/@onchain-id/solidity/contracts/Identity.sol\":7438:7453  uint256 purpose */\n      0x00\n        /* \".deps/npm/@onchain-id/solidity/contracts/Identity.sol\":7456:7465  _purposes */\n      dup3\n        /* \".deps/npm/@onchain-id/solidity/contracts/Identity.sol\":7466:7481  keyPurposeIndex */\n      dup3\n        /* \".deps/npm/@onchain-id/solidity/contracts/Identity.sol\":7456:7482  _purposes[keyPurposeIndex] */\n      dup2\n      mload\n      dup2\n      lt\n      tag_139\n      jumpi\n      tag_139\n      tag_140\n      jump\t// in\n    tag_139:\n      0x20\n      mul\n      0x20\n      add\n      add\n      mload\n        /* \".deps/npm/@onchain-id/solidity/contracts/Identity.sol\":7438:7482  uint256 purpose = _purposes[keyPurposeIndex] */\n      swap1\n      pop\n        /* \".deps/npm/@onchain-id/solidity/contracts/Identity.sol\":7516:7524  _purpose */\n      dup6\n        /* \".deps/npm/@onchain-id/solidity/contracts/Identity.sol\":7505:7512  purpose */\n      dup2\n        /* \".deps/npm/@onchain-id/solidity/contracts/Identity.sol\":7505:7524  purpose == _purpose */\n      sub\n        /* \".deps/npm/@onchain-id/solidity/contracts/Identity.sol\":7501:7610  if (purpose == _purpose) {... */\n      tag_141\n      jumpi\n        /* \".deps/npm/@onchain-id/solidity/contracts/Identity.sol\":7548:7591  revert(\"Conflict: Key already has purpose\") */\n      mload(0x40)\n      shl(0xe5, 0x461bcd)\n      dup2\n      mstore\n        /* \"#utility.yul\":10738:10740   */\n      0x20\n        /* \".deps/npm/@onchain-id/solidity/contracts/Identity.sol\":7548:7591  revert(\"Conflict: Key already has purpose\") */\n      0x04\n      dup3\n      add\n        /* \"#utility.yul\":10720:10741   */\n      mstore\n        /* \"#utility.yul\":10777:10779   */\n      0x21\n        /* \"#utility.yul\":10757:10775   */\n      0x24\n      dup3\n      add\n        /* \"#utility.yul\":10750:10780   */\n      mstore\n        /* \"#utility.yul\":10816:10850   */\n      0x436f6e666c6963743a204b657920616c72656164792068617320707572706f73\n        /* \"#utility.yul\":10796:10814   */\n      0x44\n      dup3\n      add\n        /* \"#utility.yul\":10789:10851   */\n      mstore\n      shl(0xf8, 0x65)\n        /* \"#utility.yul\":10867:10885   */\n      0x64\n      dup3\n      add\n        /* \"#utility.yul\":10860:10891   */\n      mstore\n        /* \"#utility.yul\":10908:10927   */\n      0x84\n      add\n        /* \".deps/npm/@onchain-id/solidity/contracts/Identity.sol\":7548:7591  revert(\"Conflict: Key already has purpose\") */\n      tag_122\n        /* \"#utility.yul\":10536:10933   */\n      jump\n        /* \".deps/npm/@onchain-id/solidity/contracts/Identity.sol\":7501:7610  if (purpose == _purpose) {... */\n    tag_141:\n      pop\n        /* \".deps/npm/@onchain-id/solidity/contracts/Identity.sol\":7401:7418  keyPurposeIndex++ */\n      dup1\n      tag_144\n      dup2\n      tag_145\n      jump\t// in\n    tag_144:\n      swap2\n      pop\n      pop\n        /* \".deps/npm/@onchain-id/solidity/contracts/Identity.sol\":7334:7624  for (uint keyPurposeIndex = 0; keyPurposeIndex < _purposes.length; keyPurposeIndex++) {... */\n      jump(tag_135)\n    tag_136:\n      pop\n      pop\n        /* \".deps/npm/@onchain-id/solidity/contracts/Identity.sol\":7638:7649  _keys[_key] */\n      0x00\n      dup5\n      dup2\n      mstore\n        /* \".deps/npm/@onchain-id/solidity/contracts/Identity.sol\":7638:7643  _keys */\n      0x01\n        /* \".deps/npm/@onchain-id/solidity/contracts/Identity.sol\":7638:7649  _keys[_key] */\n      0x20\n      dup2\n      dup2\n      mstore\n      0x40\n      dup4\n      keccak256\n        /* \".deps/npm/@onchain-id/solidity/contracts/Identity.sol\":7638:7673  _keys[_key].purposes.push(_purpose) */\n      dup1\n      sload\n      swap3\n      dup4\n      add\n      dup2\n      sstore\n      dup4\n      mstore\n      swap1\n      swap2\n      keccak256\n      add\n      dup4\n      swap1\n      sstore\n        /* \".deps/npm/@onchain-id/solidity/contracts/Identity.sol\":7228:7825  if (_keys[_key].key == _key) {... */\n      jump(tag_147)\n    tag_132:\n        /* \".deps/npm/@onchain-id/solidity/contracts/Identity.sol\":7704:7715  _keys[_key] */\n      0x00\n      dup5\n      dup2\n      mstore\n        /* \".deps/npm/@onchain-id/solidity/contracts/Identity.sol\":7704:7709  _keys */\n      0x01\n        /* \".deps/npm/@onchain-id/solidity/contracts/Identity.sol\":7704:7715  _keys[_key] */\n      0x20\n      dup2\n      dup2\n      mstore\n      0x40\n      dup1\n      dup5\n      keccak256\n        /* \".deps/npm/@onchain-id/solidity/contracts/Identity.sol\":7704:7719  _keys[_key].key */\n      0x02\n      dup2\n      add\n        /* \".deps/npm/@onchain-id/solidity/contracts/Identity.sol\":7704:7726  _keys[_key].key = _key */\n      dup10\n      swap1\n      sstore\n        /* \".deps/npm/@onchain-id/solidity/contracts/Identity.sol\":7740:7773  _keys[_key].purposes = [_purpose] */\n      dup2\n      mload\n      dup1\n      dup5\n      add\n      swap1\n      swap3\n      mstore\n      dup8\n      dup3\n      mstore\n        /* \".deps/npm/@onchain-id/solidity/contracts/Identity.sol\":7740:7751  _keys[_key] */\n      swap4\n      dup9\n      swap1\n      mstore\n      swap1\n      dup3\n      swap1\n      mstore\n        /* \".deps/npm/@onchain-id/solidity/contracts/Identity.sol\":7740:7773  _keys[_key].purposes = [_purpose] */\n      tag_148\n      swap3\n        /* \".deps/npm/@onchain-id/solidity/contracts/Identity.sol\":7704:7715  _keys[_key] */\n      swap2\n        /* \".deps/npm/@onchain-id/solidity/contracts/Identity.sol\":7740:7773  _keys[_key].purposes = [_purpose] */\n      tag_149\n      jump\t// in\n    tag_148:\n      pop\n        /* \".deps/npm/@onchain-id/solidity/contracts/Identity.sol\":7787:7798  _keys[_key] */\n      0x00\n      dup5\n      dup2\n      mstore\n        /* \".deps/npm/@onchain-id/solidity/contracts/Identity.sol\":7787:7792  _keys */\n      0x01\n        /* \".deps/npm/@onchain-id/solidity/contracts/Identity.sol\":7787:7798  _keys[_key] */\n      0x20\n      dup2\n      swap1\n      mstore\n      0x40\n      swap1\n      swap2\n      keccak256\n        /* \".deps/npm/@onchain-id/solidity/contracts/Identity.sol\":7787:7806  _keys[_key].keyType */\n      add\n        /* \".deps/npm/@onchain-id/solidity/contracts/Identity.sol\":7787:7814  _keys[_key].keyType = _type */\n      dup3\n      swap1\n      sstore\n        /* \".deps/npm/@onchain-id/solidity/contracts/Identity.sol\":7228:7825  if (_keys[_key].key == _key) {... */\n    tag_147:\n        /* \".deps/npm/@onchain-id/solidity/contracts/Identity.sol\":7835:7859  _keysByPurpose[_purpose] */\n      0x00\n      dup4\n      dup2\n      mstore\n        /* \".deps/npm/@onchain-id/solidity/contracts/Identity.sol\":7835:7849  _keysByPurpose */\n      0x02\n        /* \".deps/npm/@onchain-id/solidity/contracts/Identity.sol\":7835:7859  _keysByPurpose[_purpose] */\n      0x20\n      swap1\n      dup2\n      mstore\n      0x40\n      dup1\n      dup4\n      keccak256\n        /* \".deps/npm/@onchain-id/solidity/contracts/Identity.sol\":7835:7870  _keysByPurpose[_purpose].push(_key) */\n      dup1\n      sload\n      0x01\n      dup2\n      add\n      dup3\n      sstore\n      swap1\n      dup5\n      mstore\n      swap2\n      dup4\n      keccak256\n      swap1\n      swap2\n      add\n      dup7\n      swap1\n      sstore\n        /* \".deps/npm/@onchain-id/solidity/contracts/Identity.sol\":7886:7917  KeyAdded(_key, _purpose, _type) */\n      mload\n        /* \".deps/npm/@onchain-id/solidity/contracts/Identity.sol\":7911:7916  _type */\n      dup4\n      swap2\n        /* \".deps/npm/@onchain-id/solidity/contracts/Identity.sol\":7850:7858  _purpose */\n      dup6\n      swap2\n        /* \".deps/npm/@onchain-id/solidity/contracts/Identity.sol\":7865:7869  _key */\n      dup8\n      swap2\n        /* \".deps/npm/@onchain-id/solidity/contracts/Identity.sol\":7886:7917  KeyAdded(_key, _purpose, _type) */\n      0x480000bb1edad8ca1470381cc334b1917fbd51c6531f3a623ea8e0ec7e38a6e9\n      swap2\n      log4\n      pop\n        /* \".deps/npm/@onchain-id/solidity/contracts/Identity.sol\":7935:7939  true */\n      0x01\n        /* \".deps/npm/@onchain-id/solidity/contracts/Identity.sol\":7066:7946  function addKey(bytes32 _key, uint256 _purpose, uint256 _type)... */\n      swap4\n      swap3\n      pop\n      pop\n      pop\n      jump\t// out\n        /* \".deps/npm/@onchain-id/solidity/contracts/Identity.sol\":14084:15104  function removeClaim(bytes32 _claimId)... */\n    tag_38:\n        /* \".deps/npm/@onchain-id/solidity/contracts/Identity.sol\":700:712  _canInteract */\n      sload(0x06)\n        /* \".deps/npm/@onchain-id/solidity/contracts/Identity.sol\":14199:14211  bool success */\n      0x00\n      swap1\n        /* \".deps/npm/@onchain-id/solidity/contracts/Identity.sol\":700:712  _canInteract */\n      0xff\n      0x0100\n      swap1\n      swap2\n      div\n      and\n        /* \".deps/npm/@onchain-id/solidity/contracts/Identity.sol\":700:720  _canInteract == true */\n      iszero\n      iszero\n        /* \".deps/npm/@onchain-id/solidity/contracts/Identity.sol\":700:712  _canInteract */\n      0x01\n        /* \".deps/npm/@onchain-id/solidity/contracts/Identity.sol\":700:720  _canInteract == true */\n      eq\n        /* \".deps/npm/@onchain-id/solidity/contracts/Identity.sol\":692:776  require(_canInteract == true, \"Interacting with the library contract is forbidden.\") */\n      tag_152\n      jumpi\n      mload(0x40)\n      shl(0xe5, 0x461bcd)\n      dup2\n      mstore\n      0x04\n      add\n      tag_122\n      swap1\n      tag_123\n      jump\t// in\n    tag_152:\n        /* \".deps/npm/@onchain-id/solidity/contracts/Identity.sol\":1236:1246  msg.sender */\n      caller\n        /* \".deps/npm/@onchain-id/solidity/contracts/Identity.sol\":1258:1262  this */\n      address\n        /* \".deps/npm/@onchain-id/solidity/contracts/Identity.sol\":1236:1263  msg.sender == address(this) */\n      eq\n      dup1\n        /* \".deps/npm/@onchain-id/solidity/contracts/Identity.sol\":1236:1318  msg.sender == address(this) || keyHasPurpose(keccak256(abi.encode(msg.sender)), 3) */\n      tag_156\n      jumpi\n      pop\n        /* \".deps/npm/@onchain-id/solidity/contracts/Identity.sol\":1291:1313  abi.encode(msg.sender) */\n      0x40\n      dup1\n      mload\n        /* \".deps/npm/@onchain-id/solidity/contracts/Identity.sol\":1302:1312  msg.sender */\n      caller\n        /* \".deps/npm/@onchain-id/solidity/contracts/Identity.sol\":1291:1313  abi.encode(msg.sender) */\n      0x20\n      dup3\n      add\n        /* \"#utility.yul\":8197:8248   */\n      mstore\n        /* \".deps/npm/@onchain-id/solidity/contracts/Identity.sol\":1267:1318  keyHasPurpose(keccak256(abi.encode(msg.sender)), 3) */\n      tag_156\n      swap2\n        /* \"#utility.yul\":8170:8188   */\n      add\n        /* \".deps/npm/@onchain-id/solidity/contracts/Identity.sol\":1291:1313  abi.encode(msg.sender) */\n    tag_157:\n      mload(0x40)\n      0x20\n      dup2\n      dup4\n      sub\n      sub\n      dup2\n      mstore\n      swap1\n      0x40\n      mstore\n        /* \".deps/npm/@onchain-id/solidity/contracts/Identity.sol\":1281:1314  keccak256(abi.encode(msg.sender)) */\n      dup1\n      mload\n      swap1\n      0x20\n      add\n      keccak256\n        /* \".deps/npm/@onchain-id/solidity/contracts/Identity.sol\":1316:1317  3 */\n      0x03\n        /* \".deps/npm/@onchain-id/solidity/contracts/Identity.sol\":1267:1280  keyHasPurpose */\n      tag_109\n        /* \".deps/npm/@onchain-id/solidity/contracts/Identity.sol\":1267:1318  keyHasPurpose(keccak256(abi.encode(msg.sender)), 3) */\n      jump\t// in\n    tag_156:\n        /* \".deps/npm/@onchain-id/solidity/contracts/Identity.sol\":1228:1382  require(msg.sender == address(this) || keyHasPurpose(keccak256(abi.encode(msg.sender)), 3)... */\n      tag_158\n      jumpi\n      mload(0x40)\n      shl(0xe5, 0x461bcd)\n      dup2\n      mstore\n      0x04\n      add\n      tag_122\n      swap1\n      tag_160\n      jump\t// in\n    tag_158:\n        /* \".deps/npm/@onchain-id/solidity/contracts/Identity.sol\":14223:14237  uint256 _topic */\n      0x00\n        /* \".deps/npm/@onchain-id/solidity/contracts/Identity.sol\":14240:14257  _claims[_claimId] */\n      dup3\n      dup2\n      mstore\n        /* \".deps/npm/@onchain-id/solidity/contracts/Identity.sol\":14240:14247  _claims */\n      0x04\n        /* \".deps/npm/@onchain-id/solidity/contracts/Identity.sol\":14240:14257  _claims[_claimId] */\n      0x20\n      mstore\n      0x40\n      dup2\n      keccak256\n        /* \".deps/npm/@onchain-id/solidity/contracts/Identity.sol\":14240:14263  _claims[_claimId].topic */\n      sload\n      swap1\n        /* \".deps/npm/@onchain-id/solidity/contracts/Identity.sol\":14277:14288  _topic == 0 */\n      dup2\n      swap1\n      sub\n        /* \".deps/npm/@onchain-id/solidity/contracts/Identity.sol\":14273:14368  if (_topic == 0) {... */\n      tag_162\n      jumpi\n        /* \".deps/npm/@onchain-id/solidity/contracts/Identity.sol\":14304:14357  revert(\"NonExisting: There is no claim with this ID\") */\n      mload(0x40)\n      shl(0xe5, 0x461bcd)\n      dup2\n      mstore\n        /* \"#utility.yul\":11831:11833   */\n      0x20\n        /* \".deps/npm/@onchain-id/solidity/contracts/Identity.sol\":14304:14357  revert(\"NonExisting: There is no claim with this ID\") */\n      0x04\n      dup3\n      add\n        /* \"#utility.yul\":11813:11834   */\n      mstore\n        /* \"#utility.yul\":11870:11872   */\n      0x2b\n        /* \"#utility.yul\":11850:11868   */\n      0x24\n      dup3\n      add\n        /* \"#utility.yul\":11843:11873   */\n      mstore\n        /* \"#utility.yul\":11909:11943   */\n      0x4e6f6e4578697374696e673a205468657265206973206e6f20636c61696d2077\n        /* \"#utility.yul\":11889:11907   */\n      0x44\n      dup3\n      add\n        /* \"#utility.yul\":11882:11944   */\n      mstore\n      shl(0xaa, 0x1a5d1a081d1a1a5cc81251)\n        /* \"#utility.yul\":11960:11978   */\n      0x64\n      dup3\n      add\n        /* \"#utility.yul\":11953:11994   */\n      mstore\n        /* \"#utility.yul\":12011:12030   */\n      0x84\n      add\n        /* \".deps/npm/@onchain-id/solidity/contracts/Identity.sol\":14304:14357  revert(\"NonExisting: There is no claim with this ID\") */\n      tag_122\n        /* \"#utility.yul\":11629:12036   */\n      jump\n        /* \".deps/npm/@onchain-id/solidity/contracts/Identity.sol\":14273:14368  if (_topic == 0) {... */\n    tag_162:\n        /* \".deps/npm/@onchain-id/solidity/contracts/Identity.sol\":14378:14393  uint claimIndex */\n      0x00\n        /* \".deps/npm/@onchain-id/solidity/contracts/Identity.sol\":14426:14448  _claimsByTopic[_topic] */\n      dup2\n      dup2\n      mstore\n        /* \".deps/npm/@onchain-id/solidity/contracts/Identity.sol\":14426:14440  _claimsByTopic */\n      0x05\n        /* \".deps/npm/@onchain-id/solidity/contracts/Identity.sol\":14426:14448  _claimsByTopic[_topic] */\n      0x20\n      mstore\n      0x40\n      dup2\n      keccak256\n        /* \".deps/npm/@onchain-id/solidity/contracts/Identity.sol\":14426:14455  _claimsByTopic[_topic].length */\n      sload\n        /* \".deps/npm/@onchain-id/solidity/contracts/Identity.sol\":14465:14640  while (_claimsByTopic[_topic][claimIndex] != _claimId) {... */\n    tag_165:\n        /* \".deps/npm/@onchain-id/solidity/contracts/Identity.sol\":14472:14494  _claimsByTopic[_topic] */\n      0x00\n      dup4\n      dup2\n      mstore\n        /* \".deps/npm/@onchain-id/solidity/contracts/Identity.sol\":14472:14486  _claimsByTopic */\n      0x05\n        /* \".deps/npm/@onchain-id/solidity/contracts/Identity.sol\":14472:14494  _claimsByTopic[_topic] */\n      0x20\n      mstore\n      0x40\n      swap1\n      keccak256\n        /* \".deps/npm/@onchain-id/solidity/contracts/Identity.sol\":14472:14506  _claimsByTopic[_topic][claimIndex] */\n      dup1\n      sload\n        /* \".deps/npm/@onchain-id/solidity/contracts/Identity.sol\":14510:14518  _claimId */\n      dup7\n      swap2\n        /* \".deps/npm/@onchain-id/solidity/contracts/Identity.sol\":14472:14494  _claimsByTopic[_topic] */\n      swap1\n        /* \".deps/npm/@onchain-id/solidity/contracts/Identity.sol\":14495:14505  claimIndex */\n      dup5\n      swap1\n        /* \".deps/npm/@onchain-id/solidity/contracts/Identity.sol\":14472:14506  _claimsByTopic[_topic][claimIndex] */\n      dup2\n      lt\n      tag_168\n      jumpi\n      tag_168\n      tag_140\n      jump\t// in\n    tag_168:\n      swap1\n      0x00\n      mstore\n      keccak256(0x00, 0x20)\n      add\n      sload\n        /* \".deps/npm/@onchain-id/solidity/contracts/Identity.sol\":14472:14518  _claimsByTopic[_topic][claimIndex] != _claimId */\n      eq\n        /* \".deps/npm/@onchain-id/solidity/contracts/Identity.sol\":14465:14640  while (_claimsByTopic[_topic][claimIndex] != _claimId) {... */\n      tag_166\n      jumpi\n        /* \".deps/npm/@onchain-id/solidity/contracts/Identity.sol\":14534:14546  claimIndex++ */\n      dup2\n      tag_170\n      dup2\n      tag_145\n      jump\t// in\n    tag_170:\n      swap3\n      pop\n      pop\n        /* \".deps/npm/@onchain-id/solidity/contracts/Identity.sol\":14579:14590  arrayLength */\n      dup1\n        /* \".deps/npm/@onchain-id/solidity/contracts/Identity.sol\":14565:14575  claimIndex */\n      dup3\n        /* \".deps/npm/@onchain-id/solidity/contracts/Identity.sol\":14565:14590  claimIndex >= arrayLength */\n      lt\n        /* \".deps/npm/@onchain-id/solidity/contracts/Identity.sol\":14465:14640  while (_claimsByTopic[_topic][claimIndex] != _claimId) {... */\n      tag_165\n        /* \".deps/npm/@onchain-id/solidity/contracts/Identity.sol\":14561:14630  if (claimIndex >= arrayLength) {... */\n      jumpi\n        /* \".deps/npm/@onchain-id/solidity/contracts/Identity.sol\":14465:14640  while (_claimsByTopic[_topic][claimIndex] != _claimId) {... */\n    tag_166:\n        /* \".deps/npm/@onchain-id/solidity/contracts/Identity.sol\":14695:14717  _claimsByTopic[_topic] */\n      0x00\n      dup4\n      dup2\n      mstore\n        /* \".deps/npm/@onchain-id/solidity/contracts/Identity.sol\":14695:14709  _claimsByTopic */\n      0x05\n        /* \".deps/npm/@onchain-id/solidity/contracts/Identity.sol\":14695:14717  _claimsByTopic[_topic] */\n      0x20\n      mstore\n      0x40\n      swap1\n      keccak256\n        /* \".deps/npm/@onchain-id/solidity/contracts/Identity.sol\":14718:14733  arrayLength - 1 */\n      tag_172\n        /* \".deps/npm/@onchain-id/solidity/contracts/Identity.sol\":14732:14733  1 */\n      0x01\n        /* \".deps/npm/@onchain-id/solidity/contracts/Identity.sol\":14718:14729  arrayLength */\n      dup4\n        /* \".deps/npm/@onchain-id/solidity/contracts/Identity.sol\":14718:14733  arrayLength - 1 */\n      tag_173\n      jump\t// in\n    tag_172:\n        /* \".deps/npm/@onchain-id/solidity/contracts/Identity.sol\":14695:14734  _claimsByTopic[_topic][arrayLength - 1] */\n      dup2\n      sload\n      dup2\n      lt\n      tag_175\n      jumpi\n      tag_175\n      tag_140\n      jump\t// in\n    tag_175:\n      swap1\n      0x00\n      mstore\n      keccak256(0x00, 0x20)\n      add\n      sload\n        /* \".deps/npm/@onchain-id/solidity/contracts/Identity.sol\":14650:14664  _claimsByTopic */\n      0x05\n        /* \".deps/npm/@onchain-id/solidity/contracts/Identity.sol\":14650:14672  _claimsByTopic[_topic] */\n      0x00\n        /* \".deps/npm/@onchain-id/solidity/contracts/Identity.sol\":14665:14671  _topic */\n      dup6\n        /* \".deps/npm/@onchain-id/solidity/contracts/Identity.sol\":14650:14672  _claimsByTopic[_topic] */\n      dup2\n      mstore\n      0x20\n      add\n      swap1\n      dup2\n      mstore\n      0x20\n      add\n      0x00\n      keccak256\n        /* \".deps/npm/@onchain-id/solidity/contracts/Identity.sol\":14673:14683  claimIndex */\n      dup4\n        /* \".deps/npm/@onchain-id/solidity/contracts/Identity.sol\":14650:14684  _claimsByTopic[_topic][claimIndex] */\n      dup2\n      sload\n      dup2\n      lt\n      tag_178\n      jumpi\n      tag_178\n      tag_140\n      jump\t// in\n    tag_178:\n      swap1\n      0x00\n      mstore\n      keccak256(0x00, 0x20)\n      add\n        /* \".deps/npm/@onchain-id/solidity/contracts/Identity.sol\":14650:14734  _claimsByTopic[_topic][claimIndex] =... */\n      dup2\n      swap1\n      sstore\n      pop\n        /* \".deps/npm/@onchain-id/solidity/contracts/Identity.sol\":14744:14758  _claimsByTopic */\n      0x05\n        /* \".deps/npm/@onchain-id/solidity/contracts/Identity.sol\":14744:14766  _claimsByTopic[_topic] */\n      0x00\n        /* \".deps/npm/@onchain-id/solidity/contracts/Identity.sol\":14759:14765  _topic */\n      dup5\n        /* \".deps/npm/@onchain-id/solidity/contracts/Identity.sol\":14744:14766  _claimsByTopic[_topic] */\n      dup2\n      mstore\n      0x20\n      add\n      swap1\n      dup2\n      mstore\n      0x20\n      add\n      0x00\n      keccak256\n        /* \".deps/npm/@onchain-id/solidity/contracts/Identity.sol\":14744:14772  _claimsByTopic[_topic].pop() */\n      dup1\n      sload\n      dup1\n      tag_181\n      jumpi\n      tag_181\n      tag_182\n      jump\t// in\n    tag_181:\n      0x00\n      dup3\n      dup2\n      mstore\n      0x20\n      dup1\n      dup3\n      keccak256\n      dup4\n      add\n      not(0x00)\n      swap1\n      dup2\n      add\n      dup4\n      swap1\n      sstore\n      swap1\n      swap3\n      add\n      swap1\n      swap3\n      sstore\n        /* \".deps/npm/@onchain-id/solidity/contracts/Identity.sol\":14894:14911  _claims[_claimId] */\n      dup7\n      dup3\n      mstore\n        /* \".deps/npm/@onchain-id/solidity/contracts/Identity.sol\":14894:14901  _claims */\n      0x04\n        /* \".deps/npm/@onchain-id/solidity/contracts/Identity.sol\":14894:14911  _claims[_claimId] */\n      swap1\n      dup2\n      swap1\n      mstore\n      0x40\n      swap2\n      dup3\n      swap1\n      keccak256\n        /* \".deps/npm/@onchain-id/solidity/contracts/Identity.sol\":14894:14918  _claims[_claimId].issuer */\n      0x02\n      dup2\n      add\n      sload\n        /* \".deps/npm/@onchain-id/solidity/contracts/Identity.sol\":14744:14772  _claimsByTopic[_topic].pop() */\n      0x01\n        /* \".deps/npm/@onchain-id/solidity/contracts/Identity.sol\":14856:14880  _claims[_claimId].scheme */\n      dup3\n      add\n      sload\n        /* \".deps/npm/@onchain-id/solidity/contracts/Identity.sol\":14788:15040  ClaimRemoved(... */\n      swap4\n      mload\n      sub(shl(0xa0, 0x01), 0x01)\n        /* \".deps/npm/@onchain-id/solidity/contracts/Identity.sol\":14894:14918  _claims[_claimId].issuer */\n      swap1\n      swap2\n      and\n      swap4\n        /* \".deps/npm/@onchain-id/solidity/contracts/Identity.sol\":14836:14842  _topic */\n      dup8\n      swap4\n        /* \".deps/npm/@onchain-id/solidity/contracts/Identity.sol\":14902:14910  _claimId */\n      dup11\n      swap4\n        /* \".deps/npm/@onchain-id/solidity/contracts/Identity.sol\":14788:15040  ClaimRemoved(... */\n      0x3cf57863a89432c61c4a27073c6ee39e8a764bff5a05aebfbcdcdc80b2e6130a\n      swap4\n      tag_184\n      swap4\n        /* \".deps/npm/@onchain-id/solidity/contracts/Identity.sol\":14856:14880  _claims[_claimId].scheme */\n      swap3\n        /* \".deps/npm/@onchain-id/solidity/contracts/Identity.sol\":14932:14959  _claims[_claimId].signature */\n      0x03\n      dup4\n      add\n      swap3\n        /* \".deps/npm/@onchain-id/solidity/contracts/Identity.sol\":14973:14995  _claims[_claimId].data */\n      swap1\n      dup2\n      add\n      swap2\n        /* \".deps/npm/@onchain-id/solidity/contracts/Identity.sol\":15009:15030  _claims[_claimId].uri */\n      0x05\n      swap1\n      swap2\n      add\n      swap1\n        /* \".deps/npm/@onchain-id/solidity/contracts/Identity.sol\":14788:15040  ClaimRemoved(... */\n      tag_185\n      jump\t// in\n    tag_184:\n      mload(0x40)\n      dup1\n      swap2\n      sub\n      swap1\n      log4\n        /* \".deps/npm/@onchain-id/solidity/contracts/Identity.sol\":15058:15075  _claims[_claimId] */\n      0x00\n      dup6\n      dup2\n      mstore\n        /* \".deps/npm/@onchain-id/solidity/contracts/Identity.sol\":15058:15065  _claims */\n      0x04\n        /* \".deps/npm/@onchain-id/solidity/contracts/Identity.sol\":15058:15075  _claims[_claimId] */\n      0x20\n      mstore\n      0x40\n      dup2\n      keccak256\n        /* \".deps/npm/@onchain-id/solidity/contracts/Identity.sol\":15051:15075  delete _claims[_claimId] */\n      dup2\n      dup2\n      sstore\n      0x01\n      dup2\n      add\n      dup3\n      swap1\n      sstore\n      0x02\n      dup2\n      add\n      dup1\n      sload\n      not(sub(shl(0xa0, 0x01), 0x01))\n      and\n      swap1\n      sstore\n        /* \".deps/npm/@onchain-id/solidity/contracts/Identity.sol\":15058:15075  _claims[_claimId] */\n      swap1\n        /* \".deps/npm/@onchain-id/solidity/contracts/Identity.sol\":15051:15075  delete _claims[_claimId] */\n      tag_186\n      0x03\n      dup4\n      add\n        /* \".deps/npm/@onchain-id/solidity/contracts/Identity.sol\":15058:15075  _claims[_claimId] */\n      dup3\n        /* \".deps/npm/@onchain-id/solidity/contracts/Identity.sol\":15051:15075  delete _claims[_claimId] */\n      tag_187\n      jump\t// in\n    tag_186:\n      tag_188\n      0x04\n      dup4\n      add\n      0x00\n      tag_187\n      jump\t// in\n    tag_188:\n      tag_189\n      0x05\n      dup4\n      add\n      0x00\n      tag_187\n      jump\t// in\n    tag_189:\n      pop\n        /* \".deps/npm/@onchain-id/solidity/contracts/Identity.sol\":15093:15097  true */\n      0x01\n      swap7\n        /* \".deps/npm/@onchain-id/solidity/contracts/Identity.sol\":14084:15104  function removeClaim(bytes32 _claimId)... */\n      swap6\n      pop\n      pop\n      pop\n      pop\n      pop\n      pop\n      jump\t// out\n        /* \".deps/npm/@onchain-id/solidity/contracts/Identity.sol\":10047:11335  function removeKey(bytes32 _key, uint256 _purpose)... */\n    tag_44:\n        /* \".deps/npm/@onchain-id/solidity/contracts/Identity.sol\":700:712  _canInteract */\n      sload(0x06)\n        /* \".deps/npm/@onchain-id/solidity/contracts/Identity.sol\":10169:10181  bool success */\n      0x00\n      swap1\n        /* \".deps/npm/@onchain-id/solidity/contracts/Identity.sol\":700:712  _canInteract */\n      0xff\n      0x0100\n      swap1\n      swap2\n      div\n      and\n        /* \".deps/npm/@onchain-id/solidity/contracts/Identity.sol\":700:720  _canInteract == true */\n      iszero\n      iszero\n        /* \".deps/npm/@onchain-id/solidity/contracts/Identity.sol\":700:712  _canInteract */\n      0x01\n        /* \".deps/npm/@onchain-id/solidity/contracts/Identity.sol\":700:720  _canInteract == true */\n      eq\n        /* \".deps/npm/@onchain-id/solidity/contracts/Identity.sol\":692:776  require(_canInteract == true, \"Interacting with the library contract is forbidden.\") */\n      tag_192\n      jumpi\n      mload(0x40)\n      shl(0xe5, 0x461bcd)\n      dup2\n      mstore\n      0x04\n      add\n      tag_122\n      swap1\n      tag_123\n      jump\t// in\n    tag_192:\n        /* \".deps/npm/@onchain-id/solidity/contracts/Identity.sol\":936:946  msg.sender */\n      caller\n        /* \".deps/npm/@onchain-id/solidity/contracts/Identity.sol\":958:962  this */\n      address\n        /* \".deps/npm/@onchain-id/solidity/contracts/Identity.sol\":936:963  msg.sender == address(this) */\n      eq\n      dup1\n        /* \".deps/npm/@onchain-id/solidity/contracts/Identity.sol\":936:1018  msg.sender == address(this) || keyHasPurpose(keccak256(abi.encode(msg.sender)), 1) */\n      tag_196\n      jumpi\n      pop\n        /* \".deps/npm/@onchain-id/solidity/contracts/Identity.sol\":991:1013  abi.encode(msg.sender) */\n      0x40\n      dup1\n      mload\n        /* \".deps/npm/@onchain-id/solidity/contracts/Identity.sol\":1002:1012  msg.sender */\n      caller\n        /* \".deps/npm/@onchain-id/solidity/contracts/Identity.sol\":991:1013  abi.encode(msg.sender) */\n      0x20\n      dup3\n      add\n        /* \"#utility.yul\":8197:8248   */\n      mstore\n        /* \".deps/npm/@onchain-id/solidity/contracts/Identity.sol\":967:1018  keyHasPurpose(keccak256(abi.encode(msg.sender)), 1) */\n      tag_196\n      swap2\n        /* \"#utility.yul\":8170:8188   */\n      add\n        /* \".deps/npm/@onchain-id/solidity/contracts/Identity.sol\":991:1013  abi.encode(msg.sender) */\n      tag_127\n        /* \"#utility.yul\":8051:8254   */\n      jump\n        /* \".deps/npm/@onchain-id/solidity/contracts/Identity.sol\":967:1018  keyHasPurpose(keccak256(abi.encode(msg.sender)), 1) */\n    tag_196:\n        /* \".deps/npm/@onchain-id/solidity/contracts/Identity.sol\":928:1080  require(msg.sender == address(this) || keyHasPurpose(keccak256(abi.encode(msg.sender)), 1)... */\n      tag_198\n      jumpi\n      mload(0x40)\n      shl(0xe5, 0x461bcd)\n      dup2\n      mstore\n      0x04\n      add\n      tag_122\n      swap1\n      tag_130\n      jump\t// in\n    tag_198:\n        /* \".deps/npm/@onchain-id/solidity/contracts/Identity.sol\":10205:10216  _keys[_key] */\n      0x00\n      dup4\n      dup2\n      mstore\n        /* \".deps/npm/@onchain-id/solidity/contracts/Identity.sol\":10205:10210  _keys */\n      0x01\n        /* \".deps/npm/@onchain-id/solidity/contracts/Identity.sol\":10205:10216  _keys[_key] */\n      0x20\n      mstore\n      0x40\n      swap1\n      keccak256\n        /* \".deps/npm/@onchain-id/solidity/contracts/Identity.sol\":10205:10220  _keys[_key].key */\n      0x02\n      add\n      sload\n        /* \".deps/npm/@onchain-id/solidity/contracts/Identity.sol\":10205:10228  _keys[_key].key == _key */\n      dup4\n      eq\n        /* \".deps/npm/@onchain-id/solidity/contracts/Identity.sol\":10197:10266  require(_keys[_key].key == _key, \"NonExisting: Key isn't registered\") */\n      tag_201\n      jumpi\n      mload(0x40)\n      shl(0xe5, 0x461bcd)\n      dup2\n      mstore\n        /* \"#utility.yul\":14426:14428   */\n      0x20\n        /* \".deps/npm/@onchain-id/solidity/contracts/Identity.sol\":10197:10266  require(_keys[_key].key == _key, \"NonExisting: Key isn't registered\") */\n      0x04\n      dup3\n      add\n        /* \"#utility.yul\":14408:14429   */\n      mstore\n        /* \"#utility.yul\":14465:14467   */\n      0x21\n        /* \"#utility.yul\":14445:14463   */\n      0x24\n      dup3\n      add\n        /* \"#utility.yul\":14438:14468   */\n      mstore\n        /* \"#utility.yul\":14504:14538   */\n      0x4e6f6e4578697374696e673a204b65792069736e277420726567697374657265\n        /* \"#utility.yul\":14484:14502   */\n      0x44\n      dup3\n      add\n        /* \"#utility.yul\":14477:14539   */\n      mstore\n      shl(0xfa, 0x19)\n        /* \"#utility.yul\":14555:14573   */\n      0x64\n      dup3\n      add\n        /* \"#utility.yul\":14548:14579   */\n      mstore\n        /* \"#utility.yul\":14596:14615   */\n      0x84\n      add\n        /* \".deps/npm/@onchain-id/solidity/contracts/Identity.sol\":10197:10266  require(_keys[_key].key == _key, \"NonExisting: Key isn't registered\") */\n      tag_122\n        /* \"#utility.yul\":14224:14621   */\n      jump\n        /* \".deps/npm/@onchain-id/solidity/contracts/Identity.sol\":10197:10266  require(_keys[_key].key == _key, \"NonExisting: Key isn't registered\") */\n    tag_201:\n        /* \".deps/npm/@onchain-id/solidity/contracts/Identity.sol\":10276:10302  uint256[] memory _purposes */\n      0x00\n        /* \".deps/npm/@onchain-id/solidity/contracts/Identity.sol\":10305:10316  _keys[_key] */\n      dup4\n      dup2\n      mstore\n        /* \".deps/npm/@onchain-id/solidity/contracts/Identity.sol\":10305:10310  _keys */\n      0x01\n        /* \".deps/npm/@onchain-id/solidity/contracts/Identity.sol\":10305:10316  _keys[_key] */\n      0x20\n      swap1\n      dup2\n      mstore\n      0x40\n      dup1\n      dup4\n      keccak256\n        /* \".deps/npm/@onchain-id/solidity/contracts/Identity.sol\":10276:10325  uint256[] memory _purposes = _keys[_key].purposes */\n      dup1\n      sload\n      dup3\n      mload\n      dup2\n      dup6\n      mul\n      dup2\n      add\n      dup6\n      add\n      swap1\n      swap4\n      mstore\n      dup1\n      dup4\n      mstore\n      swap2\n      swap3\n        /* \".deps/npm/@onchain-id/solidity/contracts/Identity.sol\":10305:10316  _keys[_key] */\n      swap1\n      swap2\n        /* \".deps/npm/@onchain-id/solidity/contracts/Identity.sol\":10276:10325  uint256[] memory _purposes = _keys[_key].purposes */\n      swap1\n      dup4\n      add\n        /* \".deps/npm/@onchain-id/solidity/contracts/Identity.sol\":10305:10316  _keys[_key] */\n      dup3\n        /* \".deps/npm/@onchain-id/solidity/contracts/Identity.sol\":10276:10325  uint256[] memory _purposes = _keys[_key].purposes */\n      dup3\n      dup1\n      iszero\n      tag_204\n      jumpi\n      0x20\n      mul\n      dup3\n      add\n      swap2\n      swap1\n      0x00\n      mstore\n      keccak256(0x00, 0x20)\n      swap1\n    tag_205:\n      dup2\n      sload\n      dup2\n      mstore\n      0x20\n      add\n      swap1\n      0x01\n      add\n      swap1\n      dup1\n      dup4\n      gt\n      tag_205\n      jumpi\n    tag_204:\n      pop\n      pop\n      pop\n      pop\n      pop\n      swap1\n      pop\n        /* \".deps/npm/@onchain-id/solidity/contracts/Identity.sol\":10336:10353  uint purposeIndex */\n      0x00\n        /* \".deps/npm/@onchain-id/solidity/contracts/Identity.sol\":10367:10587  while (_purposes[purposeIndex] != _purpose) {... */\n    tag_206:\n        /* \".deps/npm/@onchain-id/solidity/contracts/Identity.sol\":10401:10409  _purpose */\n      dup4\n        /* \".deps/npm/@onchain-id/solidity/contracts/Identity.sol\":10374:10383  _purposes */\n      dup3\n        /* \".deps/npm/@onchain-id/solidity/contracts/Identity.sol\":10384:10396  purposeIndex */\n      dup3\n        /* \".deps/npm/@onchain-id/solidity/contracts/Identity.sol\":10374:10397  _purposes[purposeIndex] */\n      dup2\n      mload\n      dup2\n      lt\n      tag_209\n      jumpi\n      tag_209\n      tag_140\n      jump\t// in\n    tag_209:\n      0x20\n      mul\n      0x20\n      add\n      add\n      mload\n        /* \".deps/npm/@onchain-id/solidity/contracts/Identity.sol\":10374:10409  _purposes[purposeIndex] != _purpose */\n      eq\n        /* \".deps/npm/@onchain-id/solidity/contracts/Identity.sol\":10367:10587  while (_purposes[purposeIndex] != _purpose) {... */\n      tag_207\n      jumpi\n        /* \".deps/npm/@onchain-id/solidity/contracts/Identity.sol\":10425:10439  purposeIndex++ */\n      dup1\n      tag_210\n      dup2\n      tag_145\n      jump\t// in\n    tag_210:\n      swap2\n      pop\n      pop\n        /* \".deps/npm/@onchain-id/solidity/contracts/Identity.sol\":10474:10483  _purposes */\n      dup2\n        /* \".deps/npm/@onchain-id/solidity/contracts/Identity.sol\":10474:10490  _purposes.length */\n      mload\n        /* \".deps/npm/@onchain-id/solidity/contracts/Identity.sol\":10458:10470  purposeIndex */\n      dup2\n        /* \".deps/npm/@onchain-id/solidity/contracts/Identity.sol\":10458:10490  purposeIndex == _purposes.length */\n      sub\n        /* \".deps/npm/@onchain-id/solidity/contracts/Identity.sol\":10454:10577  if (purposeIndex == _purposes.length) {... */\n      tag_211\n      jumpi\n        /* \".deps/npm/@onchain-id/solidity/contracts/Identity.sol\":10510:10562  revert(\"NonExisting: Key doesn't have such purpose\") */\n      mload(0x40)\n      shl(0xe5, 0x461bcd)\n      dup2\n      mstore\n        /* \"#utility.yul\":14828:14830   */\n      0x20\n        /* \".deps/npm/@onchain-id/solidity/contracts/Identity.sol\":10510:10562  revert(\"NonExisting: Key doesn't have such purpose\") */\n      0x04\n      dup3\n      add\n        /* \"#utility.yul\":14810:14831   */\n      mstore\n        /* \"#utility.yul\":14867:14869   */\n      0x2a\n        /* \"#utility.yul\":14847:14865   */\n      0x24\n      dup3\n      add\n        /* \"#utility.yul\":14840:14870   */\n      mstore\n        /* \"#utility.yul\":14906:14940   */\n      0x4e6f6e4578697374696e673a204b657920646f65736e27742068617665207375\n        /* \"#utility.yul\":14886:14904   */\n      0x44\n      dup3\n      add\n        /* \"#utility.yul\":14879:14941   */\n      mstore\n      shl(0xb0, 0x636820707572706f7365)\n        /* \"#utility.yul\":14957:14975   */\n      0x64\n      dup3\n      add\n        /* \"#utility.yul\":14950:14990   */\n      mstore\n        /* \"#utility.yul\":15007:15026   */\n      0x84\n      add\n        /* \".deps/npm/@onchain-id/solidity/contracts/Identity.sol\":10510:10562  revert(\"NonExisting: Key doesn't have such purpose\") */\n      tag_122\n        /* \"#utility.yul\":14626:15032   */\n      jump\n        /* \".deps/npm/@onchain-id/solidity/contracts/Identity.sol\":10454:10577  if (purposeIndex == _purposes.length) {... */\n    tag_211:\n        /* \".deps/npm/@onchain-id/solidity/contracts/Identity.sol\":10367:10587  while (_purposes[purposeIndex] != _purpose) {... */\n      jump(tag_206)\n    tag_207:\n        /* \".deps/npm/@onchain-id/solidity/contracts/Identity.sol\":10623:10632  _purposes */\n      dup2\n        /* \".deps/npm/@onchain-id/solidity/contracts/Identity.sol\":10652:10653  1 */\n      0x01\n        /* \".deps/npm/@onchain-id/solidity/contracts/Identity.sol\":10633:10642  _purposes */\n      dup4\n        /* \".deps/npm/@onchain-id/solidity/contracts/Identity.sol\":10633:10649  _purposes.length */\n      mload\n        /* \".deps/npm/@onchain-id/solidity/contracts/Identity.sol\":10633:10653  _purposes.length - 1 */\n      tag_214\n      swap2\n      swap1\n      tag_173\n      jump\t// in\n    tag_214:\n        /* \".deps/npm/@onchain-id/solidity/contracts/Identity.sol\":10623:10654  _purposes[_purposes.length - 1] */\n      dup2\n      mload\n      dup2\n      lt\n      tag_216\n      jumpi\n      tag_216\n      tag_140\n      jump\t// in\n    tag_216:\n      0x20\n      mul\n      0x20\n      add\n      add\n      mload\n        /* \".deps/npm/@onchain-id/solidity/contracts/Identity.sol\":10597:10606  _purposes */\n      dup3\n        /* \".deps/npm/@onchain-id/solidity/contracts/Identity.sol\":10607:10619  purposeIndex */\n      dup3\n        /* \".deps/npm/@onchain-id/solidity/contracts/Identity.sol\":10597:10620  _purposes[purposeIndex] */\n      dup2\n      mload\n      dup2\n      lt\n      tag_218\n      jumpi\n      tag_218\n      tag_140\n      jump\t// in\n    tag_218:\n      0x20\n      swap1\n      dup2\n      mul\n      swap2\n      swap1\n      swap2\n      add\n      dup2\n      add\n        /* \".deps/npm/@onchain-id/solidity/contracts/Identity.sol\":10597:10654  _purposes[purposeIndex] = _purposes[_purposes.length - 1] */\n      swap2\n      swap1\n      swap2\n      mstore\n        /* \".deps/npm/@onchain-id/solidity/contracts/Identity.sol\":10664:10675  _keys[_key] */\n      0x00\n      dup7\n      dup2\n      mstore\n        /* \".deps/npm/@onchain-id/solidity/contracts/Identity.sol\":10664:10669  _keys */\n      0x01\n        /* \".deps/npm/@onchain-id/solidity/contracts/Identity.sol\":10664:10675  _keys[_key] */\n      dup3\n      mstore\n      0x40\n      swap1\n      keccak256\n        /* \".deps/npm/@onchain-id/solidity/contracts/Identity.sol\":10664:10696  _keys[_key].purposes = _purposes */\n      dup4\n      mload\n      tag_219\n      swap3\n      dup6\n      add\n      swap1\n      tag_149\n      jump\t// in\n    tag_219:\n      pop\n        /* \".deps/npm/@onchain-id/solidity/contracts/Identity.sol\":10706:10717  _keys[_key] */\n      0x00\n      dup6\n      dup2\n      mstore\n        /* \".deps/npm/@onchain-id/solidity/contracts/Identity.sol\":10706:10711  _keys */\n      0x01\n        /* \".deps/npm/@onchain-id/solidity/contracts/Identity.sol\":10706:10717  _keys[_key] */\n      0x20\n      mstore\n      0x40\n      swap1\n      keccak256\n        /* \".deps/npm/@onchain-id/solidity/contracts/Identity.sol\":10706:10732  _keys[_key].purposes.pop() */\n      dup1\n      sload\n      dup1\n      tag_222\n      jumpi\n      tag_222\n      tag_182\n      jump\t// in\n    tag_222:\n      0x00\n      dup3\n      dup2\n      mstore\n      0x20\n      dup1\n      dup3\n      keccak256\n      dup4\n      add\n      not(0x00)\n      swap1\n      dup2\n      add\n      dup4\n      swap1\n      sstore\n      swap1\n      swap3\n      add\n      swap1\n      swap3\n      sstore\n        /* \".deps/npm/@onchain-id/solidity/contracts/Identity.sol\":10789:10813  _keysByPurpose[_purpose] */\n      dup6\n      dup3\n      mstore\n        /* \".deps/npm/@onchain-id/solidity/contracts/Identity.sol\":10789:10803  _keysByPurpose */\n      0x02\n        /* \".deps/npm/@onchain-id/solidity/contracts/Identity.sol\":10789:10813  _keysByPurpose[_purpose] */\n      swap1\n      mstore\n      0x40\n      dup2\n      keccak256\n        /* \".deps/npm/@onchain-id/solidity/contracts/Identity.sol\":10789:10820  _keysByPurpose[_purpose].length */\n      sload\n        /* \".deps/npm/@onchain-id/solidity/contracts/Identity.sol\":10831:10998  while (_keysByPurpose[_purpose][keyIndex] != _key) {... */\n    tag_224:\n        /* \".deps/npm/@onchain-id/solidity/contracts/Identity.sol\":10838:10862  _keysByPurpose[_purpose] */\n      0x00\n      dup7\n      dup2\n      mstore\n        /* \".deps/npm/@onchain-id/solidity/contracts/Identity.sol\":10838:10852  _keysByPurpose */\n      0x02\n        /* \".deps/npm/@onchain-id/solidity/contracts/Identity.sol\":10838:10862  _keysByPurpose[_purpose] */\n      0x20\n      mstore\n      0x40\n      swap1\n      keccak256\n        /* \".deps/npm/@onchain-id/solidity/contracts/Identity.sol\":10838:10872  _keysByPurpose[_purpose][keyIndex] */\n      dup1\n      sload\n        /* \".deps/npm/@onchain-id/solidity/contracts/Identity.sol\":10876:10880  _key */\n      dup9\n      swap2\n        /* \".deps/npm/@onchain-id/solidity/contracts/Identity.sol\":10838:10862  _keysByPurpose[_purpose] */\n      swap1\n        /* \".deps/npm/@onchain-id/solidity/contracts/Identity.sol\":10863:10871  keyIndex */\n      dup5\n      swap1\n        /* \".deps/npm/@onchain-id/solidity/contracts/Identity.sol\":10838:10872  _keysByPurpose[_purpose][keyIndex] */\n      dup2\n      lt\n      tag_227\n      jumpi\n      tag_227\n      tag_140\n      jump\t// in\n    tag_227:\n      swap1\n      0x00\n      mstore\n      keccak256(0x00, 0x20)\n      add\n      sload\n        /* \".deps/npm/@onchain-id/solidity/contracts/Identity.sol\":10838:10880  _keysByPurpose[_purpose][keyIndex] != _key */\n      eq\n        /* \".deps/npm/@onchain-id/solidity/contracts/Identity.sol\":10831:10998  while (_keysByPurpose[_purpose][keyIndex] != _key) {... */\n      tag_225\n      jumpi\n        /* \".deps/npm/@onchain-id/solidity/contracts/Identity.sol\":10896:10906  keyIndex++ */\n      dup2\n      tag_229\n      dup2\n      tag_145\n      jump\t// in\n    tag_229:\n      swap3\n      pop\n      pop\n        /* \".deps/npm/@onchain-id/solidity/contracts/Identity.sol\":10937:10948  arrayLength */\n      dup1\n        /* \".deps/npm/@onchain-id/solidity/contracts/Identity.sol\":10925:10933  keyIndex */\n      dup3\n        /* \".deps/npm/@onchain-id/solidity/contracts/Identity.sol\":10925:10948  keyIndex >= arrayLength */\n      lt\n        /* \".deps/npm/@onchain-id/solidity/contracts/Identity.sol\":10831:10998  while (_keysByPurpose[_purpose][keyIndex] != _key) {... */\n      tag_224\n        /* \".deps/npm/@onchain-id/solidity/contracts/Identity.sol\":10921:10988  if (keyIndex >= arrayLength) {... */\n      jumpi\n        /* \".deps/npm/@onchain-id/solidity/contracts/Identity.sol\":10831:10998  while (_keysByPurpose[_purpose][keyIndex] != _key) {... */\n    tag_225:\n        /* \".deps/npm/@onchain-id/solidity/contracts/Identity.sol\":11045:11069  _keysByPurpose[_purpose] */\n      0x00\n      dup7\n      dup2\n      mstore\n        /* \".deps/npm/@onchain-id/solidity/contracts/Identity.sol\":11045:11059  _keysByPurpose */\n      0x02\n        /* \".deps/npm/@onchain-id/solidity/contracts/Identity.sol\":11045:11069  _keysByPurpose[_purpose] */\n      0x20\n      mstore\n      0x40\n      swap1\n      keccak256\n        /* \".deps/npm/@onchain-id/solidity/contracts/Identity.sol\":11070:11085  arrayLength - 1 */\n      tag_231\n        /* \".deps/npm/@onchain-id/solidity/contracts/Identity.sol\":11084:11085  1 */\n      0x01\n        /* \".deps/npm/@onchain-id/solidity/contracts/Identity.sol\":11070:11081  arrayLength */\n      dup4\n        /* \".deps/npm/@onchain-id/solidity/contracts/Identity.sol\":11070:11085  arrayLength - 1 */\n      tag_173\n      jump\t// in\n    tag_231:\n        /* \".deps/npm/@onchain-id/solidity/contracts/Identity.sol\":11045:11086  _keysByPurpose[_purpose][arrayLength - 1] */\n      dup2\n      sload\n      dup2\n      lt\n      tag_233\n      jumpi\n      tag_233\n      tag_140\n      jump\t// in\n    tag_233:\n      swap1\n      0x00\n      mstore\n      keccak256(0x00, 0x20)\n      add\n      sload\n        /* \".deps/npm/@onchain-id/solidity/contracts/Identity.sol\":11008:11022  _keysByPurpose */\n      0x02\n        /* \".deps/npm/@onchain-id/solidity/contracts/Identity.sol\":11008:11032  _keysByPurpose[_purpose] */\n      0x00\n        /* \".deps/npm/@onchain-id/solidity/contracts/Identity.sol\":11023:11031  _purpose */\n      dup9\n        /* \".deps/npm/@onchain-id/solidity/contracts/Identity.sol\":11008:11032  _keysByPurpose[_purpose] */\n      dup2\n      mstore\n      0x20\n      add\n      swap1\n      dup2\n      mstore\n      0x20\n      add\n      0x00\n      keccak256\n        /* \".deps/npm/@onchain-id/solidity/contracts/Identity.sol\":11033:11041  keyIndex */\n      dup4\n        /* \".deps/npm/@onchain-id/solidity/contracts/Identity.sol\":11008:11042  _keysByPurpose[_purpose][keyIndex] */\n      dup2\n      sload\n      dup2\n      lt\n      tag_236\n      jumpi\n      tag_236\n      tag_140\n      jump\t// in\n    tag_236:\n      swap1\n      0x00\n      mstore\n      keccak256(0x00, 0x20)\n      add\n        /* \".deps/npm/@onchain-id/solidity/contracts/Identity.sol\":11008:11086  _keysByPurpose[_purpose][keyIndex] = _keysByPurpose[_purpose][arrayLength - 1] */\n      dup2\n      swap1\n      sstore\n      pop\n        /* \".deps/npm/@onchain-id/solidity/contracts/Identity.sol\":11096:11110  _keysByPurpose */\n      0x02\n        /* \".deps/npm/@onchain-id/solidity/contracts/Identity.sol\":11096:11120  _keysByPurpose[_purpose] */\n      0x00\n        /* \".deps/npm/@onchain-id/solidity/contracts/Identity.sol\":11111:11119  _purpose */\n      dup8\n        /* \".deps/npm/@onchain-id/solidity/contracts/Identity.sol\":11096:11120  _keysByPurpose[_purpose] */\n      dup2\n      mstore\n      0x20\n      add\n      swap1\n      dup2\n      mstore\n      0x20\n      add\n      0x00\n      keccak256\n        /* \".deps/npm/@onchain-id/solidity/contracts/Identity.sol\":11096:11126  _keysByPurpose[_purpose].pop() */\n      dup1\n      sload\n      dup1\n      tag_239\n      jumpi\n      tag_239\n      tag_182\n      jump\t// in\n    tag_239:\n      0x01\n      swap1\n      sub\n      dup2\n      dup2\n      swap1\n      0x00\n      mstore\n      keccak256(0x00, 0x20)\n      add\n      0x00\n      swap1\n      sstore\n      swap1\n      sstore\n        /* \".deps/npm/@onchain-id/solidity/contracts/Identity.sol\":11137:11149  uint keyType */\n      0x00\n        /* \".deps/npm/@onchain-id/solidity/contracts/Identity.sol\":11152:11157  _keys */\n      0x01\n        /* \".deps/npm/@onchain-id/solidity/contracts/Identity.sol\":11152:11163  _keys[_key] */\n      0x00\n        /* \".deps/npm/@onchain-id/solidity/contracts/Identity.sol\":11158:11162  _key */\n      dup10\n        /* \".deps/npm/@onchain-id/solidity/contracts/Identity.sol\":11152:11163  _keys[_key] */\n      dup2\n      mstore\n      0x20\n      add\n      swap1\n      dup2\n      mstore\n      0x20\n      add\n      0x00\n      keccak256\n        /* \".deps/npm/@onchain-id/solidity/contracts/Identity.sol\":11152:11171  _keys[_key].keyType */\n      0x01\n      add\n      sload\n        /* \".deps/npm/@onchain-id/solidity/contracts/Identity.sol\":11137:11171  uint keyType = _keys[_key].keyType */\n      swap1\n      pop\n        /* \".deps/npm/@onchain-id/solidity/contracts/Identity.sol\":11205:11206  1 */\n      0x01\n        /* \".deps/npm/@onchain-id/solidity/contracts/Identity.sol\":11186:11195  _purposes */\n      dup6\n        /* \".deps/npm/@onchain-id/solidity/contracts/Identity.sol\":11186:11202  _purposes.length */\n      mload\n        /* \".deps/npm/@onchain-id/solidity/contracts/Identity.sol\":11186:11206  _purposes.length - 1 */\n      tag_241\n      swap2\n      swap1\n      tag_173\n      jump\t// in\n    tag_241:\n        /* \".deps/npm/@onchain-id/solidity/contracts/Identity.sol\":11210:11211  0 */\n      0x00\n        /* \".deps/npm/@onchain-id/solidity/contracts/Identity.sol\":11186:11211  _purposes.length - 1 == 0 */\n      sub\n        /* \".deps/npm/@onchain-id/solidity/contracts/Identity.sol\":11182:11256  if (_purposes.length - 1 == 0) {... */\n      tag_242\n      jumpi\n        /* \".deps/npm/@onchain-id/solidity/contracts/Identity.sol\":11234:11245  _keys[_key] */\n      0x00\n      dup9\n      dup2\n      mstore\n        /* \".deps/npm/@onchain-id/solidity/contracts/Identity.sol\":11234:11239  _keys */\n      0x01\n        /* \".deps/npm/@onchain-id/solidity/contracts/Identity.sol\":11234:11245  _keys[_key] */\n      0x20\n      mstore\n      0x40\n      dup2\n      keccak256\n      swap1\n        /* \".deps/npm/@onchain-id/solidity/contracts/Identity.sol\":11227:11245  delete _keys[_key] */\n      tag_243\n        /* \".deps/npm/@onchain-id/solidity/contracts/Identity.sol\":11234:11245  _keys[_key] */\n      dup3\n      dup3\n        /* \".deps/npm/@onchain-id/solidity/contracts/Identity.sol\":11227:11245  delete _keys[_key] */\n      tag_244\n      jump\t// in\n    tag_243:\n      pop\n      0x00\n      0x01\n      dup3\n      add\n      dup2\n      swap1\n      sstore\n      0x02\n      swap1\n      swap2\n      add\n      sstore\n        /* \".deps/npm/@onchain-id/solidity/contracts/Identity.sol\":11182:11256  if (_purposes.length - 1 == 0) {... */\n    tag_242:\n        /* \".deps/npm/@onchain-id/solidity/contracts/Identity.sol\":11298:11305  keyType */\n      dup1\n        /* \".deps/npm/@onchain-id/solidity/contracts/Identity.sol\":11288:11296  _purpose */\n      dup8\n        /* \".deps/npm/@onchain-id/solidity/contracts/Identity.sol\":11282:11286  _key */\n      dup10\n        /* \".deps/npm/@onchain-id/solidity/contracts/Identity.sol\":11271:11306  KeyRemoved(_key, _purpose, keyType) */\n      0x585a4aef50f8267a92b32412b331b20f7f8b96f2245b253b9cc50dcc621d3397\n      mload(0x40)\n      mload(0x40)\n      dup1\n      swap2\n      sub\n      swap1\n      log4\n        /* \".deps/npm/@onchain-id/solidity/contracts/Identity.sol\":11324:11328  true */\n      0x01\n        /* \".deps/npm/@onchain-id/solidity/contracts/Identity.sol\":11317:11328  return true */\n      swap6\n      pop\n      pop\n      pop\n      pop\n      pop\n      pop\n        /* \".deps/npm/@onchain-id/solidity/contracts/Identity.sol\":1090:1091  _ */\n    tag_200:\n        /* \".deps/npm/@onchain-id/solidity/contracts/Identity.sol\":10047:11335  function removeKey(bytes32 _key, uint256 _purpose)... */\n      swap3\n      swap2\n      pop\n      pop\n      jump\t// out\n        /* \".deps/npm/@onchain-id/solidity/contracts/Identity.sol\":8385:9945  function approve(uint256 _id, bool _approve)... */\n    tag_55:\n        /* \".deps/npm/@onchain-id/solidity/contracts/Identity.sol\":700:712  _canInteract */\n      sload(0x06)\n        /* \".deps/npm/@onchain-id/solidity/contracts/Identity.sol\":8485:8497  bool success */\n      0x00\n      swap1\n        /* \".deps/npm/@onchain-id/solidity/contracts/Identity.sol\":700:712  _canInteract */\n      0xff\n      0x0100\n      swap1\n      swap2\n      div\n      and\n        /* \".deps/npm/@onchain-id/solidity/contracts/Identity.sol\":700:720  _canInteract == true */\n      iszero\n      iszero\n        /* \".deps/npm/@onchain-id/solidity/contracts/Identity.sol\":700:712  _canInteract */\n      0x01\n        /* \".deps/npm/@onchain-id/solidity/contracts/Identity.sol\":700:720  _canInteract == true */\n      eq\n        /* \".deps/npm/@onchain-id/solidity/contracts/Identity.sol\":692:776  require(_canInteract == true, \"Interacting with the library contract is forbidden.\") */\n      tag_247\n      jumpi\n      mload(0x40)\n      shl(0xe5, 0x461bcd)\n      dup2\n      mstore\n      0x04\n      add\n      tag_122\n      swap1\n      tag_123\n      jump\t// in\n    tag_247:\n        /* \".deps/npm/@onchain-id/solidity/contracts/Identity.sol\":8527:8542  _executionNonce */\n      sload(0x00)\n        /* \".deps/npm/@onchain-id/solidity/contracts/Identity.sol\":8521:8524  _id */\n      dup4\n        /* \".deps/npm/@onchain-id/solidity/contracts/Identity.sol\":8521:8542  _id < _executionNonce */\n      lt\n        /* \".deps/npm/@onchain-id/solidity/contracts/Identity.sol\":8513:8586  require(_id < _executionNonce, \"Cannot approve a non-existing execution\") */\n      tag_250\n      jumpi\n      mload(0x40)\n      shl(0xe5, 0x461bcd)\n      dup2\n      mstore\n        /* \"#utility.yul\":15239:15241   */\n      0x20\n        /* \".deps/npm/@onchain-id/solidity/contracts/Identity.sol\":8513:8586  require(_id < _executionNonce, \"Cannot approve a non-existing execution\") */\n      0x04\n      dup3\n      add\n        /* \"#utility.yul\":15221:15242   */\n      mstore\n        /* \"#utility.yul\":15278:15280   */\n      0x27\n        /* \"#utility.yul\":15258:15276   */\n      0x24\n      dup3\n      add\n        /* \"#utility.yul\":15251:15281   */\n      mstore\n        /* \"#utility.yul\":15317:15351   */\n      0x43616e6e6f7420617070726f76652061206e6f6e2d6578697374696e67206578\n        /* \"#utility.yul\":15297:15315   */\n      0x44\n      dup3\n      add\n        /* \"#utility.yul\":15290:15352   */\n      mstore\n      shl(0xc9, 0x32b1baba34b7b7)\n        /* \"#utility.yul\":15368:15386   */\n      0x64\n      dup3\n      add\n        /* \"#utility.yul\":15361:15398   */\n      mstore\n        /* \"#utility.yul\":15415:15434   */\n      0x84\n      add\n        /* \".deps/npm/@onchain-id/solidity/contracts/Identity.sol\":8513:8586  require(_id < _executionNonce, \"Cannot approve a non-existing execution\") */\n      tag_122\n        /* \"#utility.yul\":15037:15440   */\n      jump\n        /* \".deps/npm/@onchain-id/solidity/contracts/Identity.sol\":8513:8586  require(_id < _executionNonce, \"Cannot approve a non-existing execution\") */\n    tag_250:\n        /* \".deps/npm/@onchain-id/solidity/contracts/Identity.sol\":8605:8621  _executions[_id] */\n      0x00\n      dup4\n      dup2\n      mstore\n        /* \".deps/npm/@onchain-id/solidity/contracts/Identity.sol\":8605:8616  _executions */\n      0x03\n        /* \".deps/npm/@onchain-id/solidity/contracts/Identity.sol\":8605:8621  _executions[_id] */\n      0x20\n      dup2\n      swap1\n      mstore\n      0x40\n      swap1\n      swap2\n      keccak256\n        /* \".deps/npm/@onchain-id/solidity/contracts/Identity.sol\":8605:8630  _executions[_id].executed */\n      add\n      sload\n      0x0100\n      swap1\n      div\n      0xff\n      and\n        /* \".deps/npm/@onchain-id/solidity/contracts/Identity.sol\":8604:8630  !_executions[_id].executed */\n      iszero\n        /* \".deps/npm/@onchain-id/solidity/contracts/Identity.sol\":8596:8659  require(!_executions[_id].executed, \"Request already executed\") */\n      tag_253\n      jumpi\n      mload(0x40)\n      shl(0xe5, 0x461bcd)\n      dup2\n      mstore\n        /* \"#utility.yul\":15647:15649   */\n      0x20\n        /* \".deps/npm/@onchain-id/solidity/contracts/Identity.sol\":8596:8659  require(!_executions[_id].executed, \"Request already executed\") */\n      0x04\n      dup3\n      add\n        /* \"#utility.yul\":15629:15650   */\n      mstore\n        /* \"#utility.yul\":15686:15688   */\n      0x18\n        /* \"#utility.yul\":15666:15684   */\n      0x24\n      dup3\n      add\n        /* \"#utility.yul\":15659:15689   */\n      mstore\n        /* \"#utility.yul\":15725:15751   */\n      0x5265717565737420616c72656164792065786563757465640000000000000000\n        /* \"#utility.yul\":15705:15723   */\n      0x44\n      dup3\n      add\n        /* \"#utility.yul\":15698:15752   */\n      mstore\n        /* \"#utility.yul\":15769:15787   */\n      0x64\n      add\n        /* \".deps/npm/@onchain-id/solidity/contracts/Identity.sol\":8596:8659  require(!_executions[_id].executed, \"Request already executed\") */\n      tag_122\n        /* \"#utility.yul\":15445:15793   */\n      jump\n        /* \".deps/npm/@onchain-id/solidity/contracts/Identity.sol\":8596:8659  require(!_executions[_id].executed, \"Request already executed\") */\n    tag_253:\n        /* \".deps/npm/@onchain-id/solidity/contracts/Identity.sol\":8673:8689  _executions[_id] */\n      0x00\n      dup4\n      dup2\n      mstore\n        /* \".deps/npm/@onchain-id/solidity/contracts/Identity.sol\":8673:8684  _executions */\n      0x03\n        /* \".deps/npm/@onchain-id/solidity/contracts/Identity.sol\":8673:8689  _executions[_id] */\n      0x20\n      mstore\n      0x40\n      swap1\n      keccak256\n        /* \".deps/npm/@onchain-id/solidity/contracts/Identity.sol\":8673:8692  _executions[_id].to */\n      sload\n        /* \".deps/npm/@onchain-id/solidity/contracts/Identity.sol\":8704:8708  this */\n      address\n      sub(shl(0xa0, 0x01), 0x01)\n        /* \".deps/npm/@onchain-id/solidity/contracts/Identity.sol\":8673:8692  _executions[_id].to */\n      swap1\n      swap2\n      and\n        /* \".deps/npm/@onchain-id/solidity/contracts/Identity.sol\":8673:8709  _executions[_id].to == address(this) */\n      sub\n        /* \".deps/npm/@onchain-id/solidity/contracts/Identity.sol\":8670:8969  if(_executions[_id].to == address(this)) {... */\n      tag_256\n      jumpi\n        /* \".deps/npm/@onchain-id/solidity/contracts/Identity.sol\":8757:8779  abi.encode(msg.sender) */\n      0x40\n      dup1\n      mload\n        /* \".deps/npm/@onchain-id/solidity/contracts/Identity.sol\":8768:8778  msg.sender */\n      caller\n        /* \".deps/npm/@onchain-id/solidity/contracts/Identity.sol\":8757:8779  abi.encode(msg.sender) */\n      0x20\n      dup3\n      add\n        /* \"#utility.yul\":8197:8248   */\n      mstore\n        /* \".deps/npm/@onchain-id/solidity/contracts/Identity.sol\":8733:8784  keyHasPurpose(keccak256(abi.encode(msg.sender)), 1) */\n      tag_257\n      swap2\n        /* \"#utility.yul\":8170:8188   */\n      add\n        /* \".deps/npm/@onchain-id/solidity/contracts/Identity.sol\":8757:8779  abi.encode(msg.sender) */\n      tag_127\n        /* \"#utility.yul\":8051:8254   */\n      jump\n        /* \".deps/npm/@onchain-id/solidity/contracts/Identity.sol\":8733:8784  keyHasPurpose(keccak256(abi.encode(msg.sender)), 1) */\n    tag_257:\n        /* \".deps/npm/@onchain-id/solidity/contracts/Identity.sol\":8725:8824  require(keyHasPurpose(keccak256(abi.encode(msg.sender)), 1), \"Sender does not have management key\") */\n      tag_259\n      jumpi\n      mload(0x40)\n      shl(0xe5, 0x461bcd)\n      dup2\n      mstore\n        /* \"#utility.yul\":16000:16002   */\n      0x20\n        /* \".deps/npm/@onchain-id/solidity/contracts/Identity.sol\":8725:8824  require(keyHasPurpose(keccak256(abi.encode(msg.sender)), 1), \"Sender does not have management key\") */\n      0x04\n      dup3\n      add\n        /* \"#utility.yul\":15982:16003   */\n      mstore\n        /* \"#utility.yul\":16039:16041   */\n      0x23\n        /* \"#utility.yul\":16019:16037   */\n      0x24\n      dup3\n      add\n        /* \"#utility.yul\":16012:16042   */\n      mstore\n        /* \"#utility.yul\":16078:16112   */\n      0x53656e64657220646f6573206e6f742068617665206d616e6167656d656e7420\n        /* \"#utility.yul\":16058:16076   */\n      0x44\n      dup3\n      add\n        /* \"#utility.yul\":16051:16113   */\n      mstore\n      shl(0xe8, 0x6b6579)\n        /* \"#utility.yul\":16129:16147   */\n      0x64\n      dup3\n      add\n        /* \"#utility.yul\":16122:16155   */\n      mstore\n        /* \"#utility.yul\":16172:16191   */\n      0x84\n      add\n        /* \".deps/npm/@onchain-id/solidity/contracts/Identity.sol\":8725:8824  require(keyHasPurpose(keccak256(abi.encode(msg.sender)), 1), \"Sender does not have management key\") */\n      tag_122\n        /* \"#utility.yul\":15798:16197   */\n      jump\n        /* \".deps/npm/@onchain-id/solidity/contracts/Identity.sol\":8725:8824  require(keyHasPurpose(keccak256(abi.encode(msg.sender)), 1), \"Sender does not have management key\") */\n    tag_259:\n        /* \".deps/npm/@onchain-id/solidity/contracts/Identity.sol\":8670:8969  if(_executions[_id].to == address(this)) {... */\n      jump(tag_265)\n    tag_256:\n        /* \".deps/npm/@onchain-id/solidity/contracts/Identity.sol\":8895:8917  abi.encode(msg.sender) */\n      0x40\n      dup1\n      mload\n        /* \".deps/npm/@onchain-id/solidity/contracts/Identity.sol\":8906:8916  msg.sender */\n      caller\n        /* \".deps/npm/@onchain-id/solidity/contracts/Identity.sol\":8895:8917  abi.encode(msg.sender) */\n      0x20\n      dup3\n      add\n        /* \"#utility.yul\":8197:8248   */\n      mstore\n        /* \".deps/npm/@onchain-id/solidity/contracts/Identity.sol\":8871:8922  keyHasPurpose(keccak256(abi.encode(msg.sender)), 2) */\n      tag_263\n      swap2\n        /* \"#utility.yul\":8170:8188   */\n      add\n        /* \".deps/npm/@onchain-id/solidity/contracts/Identity.sol\":8895:8917  abi.encode(msg.sender) */\n    tag_264:\n      mload(0x40)\n      0x20\n      dup2\n      dup4\n      sub\n      sub\n      dup2\n      mstore\n      swap1\n      0x40\n      mstore\n        /* \".deps/npm/@onchain-id/solidity/contracts/Identity.sol\":8885:8918  keccak256(abi.encode(msg.sender)) */\n      dup1\n      mload\n      swap1\n      0x20\n      add\n      keccak256\n        /* \".deps/npm/@onchain-id/solidity/contracts/Identity.sol\":8920:8921  2 */\n      0x02\n        /* \".deps/npm/@onchain-id/solidity/contracts/Identity.sol\":8871:8884  keyHasPurpose */\n      tag_109\n        /* \".deps/npm/@onchain-id/solidity/contracts/Identity.sol\":8871:8922  keyHasPurpose(keccak256(abi.encode(msg.sender)), 2) */\n      jump\t// in\n    tag_263:\n        /* \".deps/npm/@onchain-id/solidity/contracts/Identity.sol\":8863:8958  require(keyHasPurpose(keccak256(abi.encode(msg.sender)), 2), \"Sender does not have action key\") */\n      tag_265\n      jumpi\n      mload(0x40)\n      shl(0xe5, 0x461bcd)\n      dup2\n      mstore\n        /* \"#utility.yul\":16404:16406   */\n      0x20\n        /* \".deps/npm/@onchain-id/solidity/contracts/Identity.sol\":8863:8958  require(keyHasPurpose(keccak256(abi.encode(msg.sender)), 2), \"Sender does not have action key\") */\n      0x04\n      dup3\n      add\n        /* \"#utility.yul\":16386:16407   */\n      mstore\n        /* \"#utility.yul\":16443:16445   */\n      0x1f\n        /* \"#utility.yul\":16423:16441   */\n      0x24\n      dup3\n      add\n        /* \"#utility.yul\":16416:16446   */\n      mstore\n        /* \"#utility.yul\":16482:16515   */\n      0x53656e64657220646f6573206e6f74206861766520616374696f6e206b657900\n        /* \"#utility.yul\":16462:16480   */\n      0x44\n      dup3\n      add\n        /* \"#utility.yul\":16455:16516   */\n      mstore\n        /* \"#utility.yul\":16533:16551   */\n      0x64\n      add\n        /* \".deps/npm/@onchain-id/solidity/contracts/Identity.sol\":8863:8958  require(keyHasPurpose(keccak256(abi.encode(msg.sender)), 2), \"Sender does not have action key\") */\n      tag_122\n        /* \"#utility.yul\":16202:16557   */\n      jump\n        /* \".deps/npm/@onchain-id/solidity/contracts/Identity.sol\":8863:8958  require(keyHasPurpose(keccak256(abi.encode(msg.sender)), 2), \"Sender does not have action key\") */\n    tag_265:\n        /* \".deps/npm/@onchain-id/solidity/contracts/Identity.sol\":8993:8996  _id */\n      dup3\n        /* \".deps/npm/@onchain-id/solidity/contracts/Identity.sol\":8984:9007  Approved(_id, _approve) */\n      0xb3932da477fe5d6c8ff2eafef050c0f3a1af18fc07121001482600f36f3715d8\n        /* \".deps/npm/@onchain-id/solidity/contracts/Identity.sol\":8998:9006  _approve */\n      dup4\n        /* \".deps/npm/@onchain-id/solidity/contracts/Identity.sol\":8984:9007  Approved(_id, _approve) */\n      mload(0x40)\n      tag_268\n      swap2\n        /* \"#utility.yul\":1533:1547   */\n      iszero\n        /* \"#utility.yul\":1526:1548   */\n      iszero\n        /* \"#utility.yul\":1508:1549   */\n      dup2\n      mstore\n        /* \"#utility.yul\":1496:1498   */\n      0x20\n        /* \"#utility.yul\":1481:1499   */\n      add\n      swap1\n        /* \"#utility.yul\":1368:1555   */\n      jump\n        /* \".deps/npm/@onchain-id/solidity/contracts/Identity.sol\":8984:9007  Approved(_id, _approve) */\n    tag_268:\n      mload(0x40)\n      dup1\n      swap2\n      sub\n      swap1\n      log2\n        /* \".deps/npm/@onchain-id/solidity/contracts/Identity.sol\":9022:9038  _approve == true */\n      dup2\n      iszero\n      iszero\n        /* \".deps/npm/@onchain-id/solidity/contracts/Identity.sol\":9034:9038  true */\n      0x01\n        /* \".deps/npm/@onchain-id/solidity/contracts/Identity.sol\":9022:9038  _approve == true */\n      sub\n        /* \".deps/npm/@onchain-id/solidity/contracts/Identity.sol\":9018:9917  if (_approve == true) {... */\n      tag_269\n      jumpi\n        /* \".deps/npm/@onchain-id/solidity/contracts/Identity.sol\":9054:9070  _executions[_id] */\n      0x00\n      dup4\n      dup2\n      mstore\n        /* \".deps/npm/@onchain-id/solidity/contracts/Identity.sol\":9054:9065  _executions */\n      0x03\n        /* \".deps/npm/@onchain-id/solidity/contracts/Identity.sol\":9054:9070  _executions[_id] */\n      0x20\n      dup2\n      swap1\n      mstore\n      0x40\n      swap2\n      dup3\n      swap1\n      keccak256\n        /* \".deps/npm/@onchain-id/solidity/contracts/Identity.sol\":9054:9079  _executions[_id].approved */\n      swap1\n      dup2\n      add\n        /* \".deps/npm/@onchain-id/solidity/contracts/Identity.sol\":9054:9086  _executions[_id].approved = true */\n      dup1\n      sload\n      not(0xff)\n      and\n        /* \".deps/npm/@onchain-id/solidity/contracts/Identity.sol\":9082:9086  true */\n      0x01\n        /* \".deps/npm/@onchain-id/solidity/contracts/Identity.sol\":9054:9086  _executions[_id].approved = true */\n      swap1\n      dup2\n      or\n      swap1\n      swap2\n      sstore\n        /* \".deps/npm/@onchain-id/solidity/contracts/Identity.sol\":9177:9196  _executions[_id].to */\n      dup2\n      sload\n        /* \".deps/npm/@onchain-id/solidity/contracts/Identity.sol\":9209:9231  _executions[_id].value */\n      swap1\n      dup3\n      add\n      sload\n        /* \".deps/npm/@onchain-id/solidity/contracts/Identity.sol\":9177:9256  _executions[_id].to.call{value:(_executions[_id].value)}(_executions[_id].data) */\n      swap3\n      mload\n      sub(shl(0xa0, 0x01), 0x01)\n        /* \".deps/npm/@onchain-id/solidity/contracts/Identity.sol\":9177:9196  _executions[_id].to */\n      swap1\n      swap2\n      and\n      swap3\n        /* \".deps/npm/@onchain-id/solidity/contracts/Identity.sol\":9209:9231  _executions[_id].value */\n      swap2\n        /* \".deps/npm/@onchain-id/solidity/contracts/Identity.sol\":9177:9256  _executions[_id].to.call{value:(_executions[_id].value)}(_executions[_id].data) */\n      tag_270\n      swap2\n        /* \".deps/npm/@onchain-id/solidity/contracts/Identity.sol\":9234:9255  _executions[_id].data */\n      0x02\n      swap1\n      swap2\n      add\n      swap1\n        /* \".deps/npm/@onchain-id/solidity/contracts/Identity.sol\":9177:9256  _executions[_id].to.call{value:(_executions[_id].value)}(_executions[_id].data) */\n      tag_271\n      jump\t// in\n    tag_270:\n      0x00\n      mload(0x40)\n      dup1\n      dup4\n      sub\n      dup2\n      dup6\n      dup8\n      gas\n      call\n      swap3\n      pop\n      pop\n      pop\n      returndatasize\n      dup1\n      0x00\n      dup2\n      eq\n      tag_274\n      jumpi\n      mload(0x40)\n      swap2\n      pop\n      and(add(returndatasize, 0x3f), not(0x1f))\n      dup3\n      add\n      0x40\n      mstore\n      returndatasize\n      dup3\n      mstore\n      returndatasize\n      0x00\n      0x20\n      dup5\n      add\n      returndatacopy\n      jump(tag_273)\n    tag_274:\n      0x60\n      swap2\n      pop\n    tag_273:\n      pop\n        /* \".deps/npm/@onchain-id/solidity/contracts/Identity.sol\":9164:9256  (success,) = _executions[_id].to.call{value:(_executions[_id].value)}(_executions[_id].data) */\n      swap1\n      swap2\n      pop\n      pop\n        /* \".deps/npm/@onchain-id/solidity/contracts/Identity.sol\":9271:9843  if (success) {... */\n      dup1\n      iszero\n      tag_275\n      jumpi\n        /* \".deps/npm/@onchain-id/solidity/contracts/Identity.sol\":9302:9318  _executions[_id] */\n      0x00\n      dup4\n      dup2\n      mstore\n        /* \".deps/npm/@onchain-id/solidity/contracts/Identity.sol\":9302:9313  _executions */\n      0x03\n        /* \".deps/npm/@onchain-id/solidity/contracts/Identity.sol\":9302:9318  _executions[_id] */\n      0x20\n      dup2\n      swap1\n      mstore\n      0x40\n      swap2\n      dup3\n      swap1\n      keccak256\n        /* \".deps/npm/@onchain-id/solidity/contracts/Identity.sol\":9302:9327  _executions[_id].executed */\n      swap1\n      dup2\n      add\n        /* \".deps/npm/@onchain-id/solidity/contracts/Identity.sol\":9302:9334  _executions[_id].executed = true */\n      dup1\n      sload\n      not(0xff00)\n      and\n      0x0100\n      or\n      swap1\n      sstore\n        /* \".deps/npm/@onchain-id/solidity/contracts/Identity.sol\":9330:9334  true */\n      0x01\n        /* \".deps/npm/@onchain-id/solidity/contracts/Identity.sol\":9454:9476  _executions[_id].value */\n      dup2\n      add\n      sload\n        /* \".deps/npm/@onchain-id/solidity/contracts/Identity.sol\":9413:9432  _executions[_id].to */\n      dup2\n      sload\n        /* \".deps/npm/@onchain-id/solidity/contracts/Identity.sol\":9358:9537  Executed(... */\n      swap3\n      mload\n        /* \".deps/npm/@onchain-id/solidity/contracts/Identity.sol\":9454:9476  _executions[_id].value */\n      swap1\n      swap3\n      sub(shl(0xa0, 0x01), 0x01)\n        /* \".deps/npm/@onchain-id/solidity/contracts/Identity.sol\":9413:9432  _executions[_id].to */\n      and\n      swap2\n        /* \".deps/npm/@onchain-id/solidity/contracts/Identity.sol\":9314:9317  _id */\n      dup7\n      swap2\n        /* \".deps/npm/@onchain-id/solidity/contracts/Identity.sol\":9358:9537  Executed(... */\n      0x1f920dbda597d7bf95035464170fa58d0a4b57f13a1c315ace6793b9f63688b8\n      swap2\n      tag_276\n      swap2\n        /* \".deps/npm/@onchain-id/solidity/contracts/Identity.sol\":9498:9519  _executions[_id].data */\n      0x02\n      swap1\n      swap2\n      add\n      swap1\n        /* \".deps/npm/@onchain-id/solidity/contracts/Identity.sol\":9358:9537  Executed(... */\n      tag_277\n      jump\t// in\n    tag_276:\n      mload(0x40)\n      dup1\n      swap2\n      sub\n      swap1\n      log4\n      pop\n        /* \".deps/npm/@onchain-id/solidity/contracts/Identity.sol\":9563:9567  true */\n      0x01\n        /* \".deps/npm/@onchain-id/solidity/contracts/Identity.sol\":9556:9567  return true */\n      jump(tag_200)\n        /* \".deps/npm/@onchain-id/solidity/contracts/Identity.sol\":9271:9843  if (success) {... */\n    tag_275:\n        /* \".deps/npm/@onchain-id/solidity/contracts/Identity.sol\":9714:9730  _executions[_id] */\n      0x00\n      dup4\n      dup2\n      mstore\n        /* \".deps/npm/@onchain-id/solidity/contracts/Identity.sol\":9714:9725  _executions */\n      0x03\n        /* \".deps/npm/@onchain-id/solidity/contracts/Identity.sol\":9714:9730  _executions[_id] */\n      0x20\n      mstore\n      0x40\n      swap1\n      dup2\n      swap1\n      keccak256\n        /* \".deps/npm/@onchain-id/solidity/contracts/Identity.sol\":9714:9736  _executions[_id].value */\n      0x01\n      dup2\n      add\n      sload\n        /* \".deps/npm/@onchain-id/solidity/contracts/Identity.sol\":9673:9692  _executions[_id].to */\n      dup2\n      sload\n        /* \".deps/npm/@onchain-id/solidity/contracts/Identity.sol\":9611:9797  ExecutionFailed(... */\n      swap3\n      mload\n        /* \".deps/npm/@onchain-id/solidity/contracts/Identity.sol\":9714:9736  _executions[_id].value */\n      swap1\n      swap3\n      sub(shl(0xa0, 0x01), 0x01)\n        /* \".deps/npm/@onchain-id/solidity/contracts/Identity.sol\":9673:9692  _executions[_id].to */\n      and\n      swap2\n        /* \".deps/npm/@onchain-id/solidity/contracts/Identity.sol\":9726:9729  _id */\n      dup7\n      swap2\n        /* \".deps/npm/@onchain-id/solidity/contracts/Identity.sol\":9611:9797  ExecutionFailed(... */\n      0xe10c49d9f7c71da23262367013434763cfdb2332267641728d25cd712c5c6a68\n      swap2\n      tag_279\n      swap2\n        /* \".deps/npm/@onchain-id/solidity/contracts/Identity.sol\":9758:9779  _executions[_id].data */\n      0x02\n      swap1\n      swap2\n      add\n      swap1\n        /* \".deps/npm/@onchain-id/solidity/contracts/Identity.sol\":9611:9797  ExecutionFailed(... */\n      tag_277\n      jump\t// in\n    tag_279:\n      mload(0x40)\n      dup1\n      swap2\n      sub\n      swap1\n      log4\n      pop\n        /* \".deps/npm/@onchain-id/solidity/contracts/Identity.sol\":9823:9828  false */\n      0x00\n        /* \".deps/npm/@onchain-id/solidity/contracts/Identity.sol\":9816:9828  return false */\n      jump(tag_200)\n        /* \".deps/npm/@onchain-id/solidity/contracts/Identity.sol\":9018:9917  if (_approve == true) {... */\n    tag_269:\n      pop\n      pop\n        /* \".deps/npm/@onchain-id/solidity/contracts/Identity.sol\":9901:9906  false */\n      0x00\n        /* \".deps/npm/@onchain-id/solidity/contracts/Identity.sol\":9873:9889  _executions[_id] */\n      swap1\n      dup2\n      mstore\n        /* \".deps/npm/@onchain-id/solidity/contracts/Identity.sol\":9873:9884  _executions */\n      0x03\n        /* \".deps/npm/@onchain-id/solidity/contracts/Identity.sol\":9873:9889  _executions[_id] */\n      0x20\n      dup2\n      swap1\n      mstore\n      0x40\n      dup3\n      keccak256\n        /* \".deps/npm/@onchain-id/solidity/contracts/Identity.sol\":9873:9898  _executions[_id].approved */\n      add\n        /* \".deps/npm/@onchain-id/solidity/contracts/Identity.sol\":9873:9906  _executions[_id].approved = false */\n      dup1\n      sload\n      not(0xff)\n      and\n      swap1\n      sstore\n        /* \".deps/npm/@onchain-id/solidity/contracts/Identity.sol\":9901:9906  false */\n      swap1\n        /* \".deps/npm/@onchain-id/solidity/contracts/Identity.sol\":8385:9945  function approve(uint256 _id, bool _approve)... */\n      jump\t// out\n        /* \".deps/npm/@onchain-id/solidity/contracts/Identity.sol\":5825:5993  function getClaimIdsByTopic(uint256 _topic)... */\n    tag_61:\n        /* \".deps/npm/@onchain-id/solidity/contracts/Identity.sol\":5964:5986  _claimsByTopic[_topic] */\n      0x00\n      dup2\n      dup2\n      mstore\n        /* \".deps/npm/@onchain-id/solidity/contracts/Identity.sol\":5964:5978  _claimsByTopic */\n      0x05\n        /* \".deps/npm/@onchain-id/solidity/contracts/Identity.sol\":5964:5986  _claimsByTopic[_topic] */\n      0x20\n      swap1\n      dup2\n      mstore\n      0x40\n      swap2\n      dup3\n      swap1\n      keccak256\n        /* \".deps/npm/@onchain-id/solidity/contracts/Identity.sol\":5957:5986  return _claimsByTopic[_topic] */\n      dup1\n      sload\n      dup4\n      mload\n      dup2\n      dup5\n      mul\n      dup2\n      add\n      dup5\n      add\n      swap1\n      swap5\n      mstore\n      dup1\n      dup5\n      mstore\n        /* \".deps/npm/@onchain-id/solidity/contracts/Identity.sol\":5916:5941  bytes32[] memory claimIds */\n      0x60\n      swap4\n        /* \".deps/npm/@onchain-id/solidity/contracts/Identity.sol\":5957:5986  return _claimsByTopic[_topic] */\n      swap3\n      dup4\n      add\n        /* \".deps/npm/@onchain-id/solidity/contracts/Identity.sol\":5964:5986  _claimsByTopic[_topic] */\n      dup3\n        /* \".deps/npm/@onchain-id/solidity/contracts/Identity.sol\":5957:5986  return _claimsByTopic[_topic] */\n      dup3\n      dup1\n      iszero\n      tag_282\n      jumpi\n      0x20\n      mul\n      dup3\n      add\n      swap2\n      swap1\n      0x00\n      mstore\n      keccak256(0x00, 0x20)\n      swap1\n    tag_283:\n      dup2\n      sload\n      dup2\n      mstore\n      0x20\n      add\n      swap1\n      0x01\n      add\n      swap1\n      dup1\n      dup4\n      gt\n      tag_283\n      jumpi\n    tag_282:\n      pop\n      pop\n      pop\n      pop\n      pop\n      swap1\n      pop\n        /* \".deps/npm/@onchain-id/solidity/contracts/Identity.sol\":5825:5993  function getClaimIdsByTopic(uint256 _topic)... */\n      swap2\n      swap1\n      pop\n      jump\t// out\n        /* \".deps/npm/@onchain-id/solidity/contracts/Identity.sol\":5291:5457  function getKeysByPurpose(uint256 _purpose)... */\n    tag_67:\n        /* \".deps/npm/@onchain-id/solidity/contracts/Identity.sol\":5426:5450  _keysByPurpose[_purpose] */\n      0x00\n      dup2\n      dup2\n      mstore\n        /* \".deps/npm/@onchain-id/solidity/contracts/Identity.sol\":5426:5440  _keysByPurpose */\n      0x02\n        /* \".deps/npm/@onchain-id/solidity/contracts/Identity.sol\":5426:5450  _keysByPurpose[_purpose] */\n      0x20\n      swap1\n      dup2\n      mstore\n      0x40\n      swap2\n      dup3\n      swap1\n      keccak256\n        /* \".deps/npm/@onchain-id/solidity/contracts/Identity.sol\":5419:5450  return _keysByPurpose[_purpose] */\n      dup1\n      sload\n      dup4\n      mload\n      dup2\n      dup5\n      mul\n      dup2\n      add\n      dup5\n      add\n      swap1\n      swap5\n      mstore\n      dup1\n      dup5\n      mstore\n        /* \".deps/npm/@onchain-id/solidity/contracts/Identity.sol\":5382:5403  bytes32[] memory keys */\n      0x60\n      swap4\n        /* \".deps/npm/@onchain-id/solidity/contracts/Identity.sol\":5419:5450  return _keysByPurpose[_purpose] */\n      swap3\n      dup4\n      add\n        /* \".deps/npm/@onchain-id/solidity/contracts/Identity.sol\":5426:5450  _keysByPurpose[_purpose] */\n      dup3\n        /* \".deps/npm/@onchain-id/solidity/contracts/Identity.sol\":5419:5450  return _keysByPurpose[_purpose] */\n      dup3\n      dup1\n      iszero\n      tag_282\n      jumpi\n      0x20\n      mul\n      dup3\n      add\n      swap2\n      swap1\n      0x00\n      mstore\n      keccak256(0x00, 0x20)\n      swap1\n      dup2\n      sload\n      dup2\n      mstore\n      0x20\n      add\n      swap1\n      0x01\n      add\n      swap1\n      dup1\n      dup4\n      gt\n      tag_283\n      jumpi\n      pop\n      pop\n      pop\n      pop\n      pop\n      swap1\n      pop\n        /* \".deps/npm/@onchain-id/solidity/contracts/Identity.sol\":5291:5457  function getKeysByPurpose(uint256 _purpose)... */\n      swap2\n      swap1\n      pop\n      jump\t// out\n        /* \".deps/npm/@onchain-id/solidity/contracts/Identity.sol\":12477:13612  function addClaim(... */\n    tag_73:\n        /* \".deps/npm/@onchain-id/solidity/contracts/Identity.sol\":700:712  _canInteract */\n      sload(0x06)\n        /* \".deps/npm/@onchain-id/solidity/contracts/Identity.sol\":12736:12758  bytes32 claimRequestId */\n      0x00\n      swap1\n        /* \".deps/npm/@onchain-id/solidity/contracts/Identity.sol\":700:712  _canInteract */\n      0xff\n      0x0100\n      swap1\n      swap2\n      div\n      and\n        /* \".deps/npm/@onchain-id/solidity/contracts/Identity.sol\":700:720  _canInteract == true */\n      iszero\n      iszero\n        /* \".deps/npm/@onchain-id/solidity/contracts/Identity.sol\":700:712  _canInteract */\n      0x01\n        /* \".deps/npm/@onchain-id/solidity/contracts/Identity.sol\":700:720  _canInteract == true */\n      eq\n        /* \".deps/npm/@onchain-id/solidity/contracts/Identity.sol\":692:776  require(_canInteract == true, \"Interacting with the library contract is forbidden.\") */\n      tag_288\n      jumpi\n      mload(0x40)\n      shl(0xe5, 0x461bcd)\n      dup2\n      mstore\n      0x04\n      add\n      tag_122\n      swap1\n      tag_123\n      jump\t// in\n    tag_288:\n        /* \".deps/npm/@onchain-id/solidity/contracts/Identity.sol\":1236:1246  msg.sender */\n      caller\n        /* \".deps/npm/@onchain-id/solidity/contracts/Identity.sol\":1258:1262  this */\n      address\n        /* \".deps/npm/@onchain-id/solidity/contracts/Identity.sol\":1236:1263  msg.sender == address(this) */\n      eq\n      dup1\n        /* \".deps/npm/@onchain-id/solidity/contracts/Identity.sol\":1236:1318  msg.sender == address(this) || keyHasPurpose(keccak256(abi.encode(msg.sender)), 3) */\n      tag_292\n      jumpi\n      pop\n        /* \".deps/npm/@onchain-id/solidity/contracts/Identity.sol\":1291:1313  abi.encode(msg.sender) */\n      0x40\n      dup1\n      mload\n        /* \".deps/npm/@onchain-id/solidity/contracts/Identity.sol\":1302:1312  msg.sender */\n      caller\n        /* \".deps/npm/@onchain-id/solidity/contracts/Identity.sol\":1291:1313  abi.encode(msg.sender) */\n      0x20\n      dup3\n      add\n        /* \"#utility.yul\":8197:8248   */\n      mstore\n        /* \".deps/npm/@onchain-id/solidity/contracts/Identity.sol\":1267:1318  keyHasPurpose(keccak256(abi.encode(msg.sender)), 3) */\n      tag_292\n      swap2\n        /* \"#utility.yul\":8170:8188   */\n      add\n        /* \".deps/npm/@onchain-id/solidity/contracts/Identity.sol\":1291:1313  abi.encode(msg.sender) */\n      tag_157\n        /* \"#utility.yul\":8051:8254   */\n      jump\n        /* \".deps/npm/@onchain-id/solidity/contracts/Identity.sol\":1267:1318  keyHasPurpose(keccak256(abi.encode(msg.sender)), 3) */\n    tag_292:\n        /* \".deps/npm/@onchain-id/solidity/contracts/Identity.sol\":1228:1382  require(msg.sender == address(this) || keyHasPurpose(keccak256(abi.encode(msg.sender)), 3)... */\n      tag_294\n      jumpi\n      mload(0x40)\n      shl(0xe5, 0x461bcd)\n      dup2\n      mstore\n      0x04\n      add\n      tag_122\n      swap1\n      tag_160\n      jump\t// in\n    tag_294:\n      sub(shl(0xa0, 0x01), 0x01)\n        /* \".deps/npm/@onchain-id/solidity/contracts/Identity.sol\":12778:12802  _issuer != address(this) */\n      dup6\n      and\n        /* \".deps/npm/@onchain-id/solidity/contracts/Identity.sol\":12797:12801  this */\n      address\n        /* \".deps/npm/@onchain-id/solidity/contracts/Identity.sol\":12778:12802  _issuer != address(this) */\n      eq\n        /* \".deps/npm/@onchain-id/solidity/contracts/Identity.sol\":12774:12942  if (_issuer != address(this)) {... */\n      tag_304\n      jumpi\n        /* \".deps/npm/@onchain-id/solidity/contracts/Identity.sol\":12826:12913  IClaimIssuer(_issuer).isClaimValid(IIdentity(address(this)), _topic, _signature, _data) */\n      mload(0x40)\n      shl(0xe1, 0x604b4d37)\n      dup2\n      mstore\n      sub(shl(0xa0, 0x01), 0x01)\n        /* \".deps/npm/@onchain-id/solidity/contracts/Identity.sol\":12826:12860  IClaimIssuer(_issuer).isClaimValid */\n      dup7\n      and\n      swap1\n      0xc0969a6e\n      swap1\n        /* \".deps/npm/@onchain-id/solidity/contracts/Identity.sol\":12826:12913  IClaimIssuer(_issuer).isClaimValid(IIdentity(address(this)), _topic, _signature, _data) */\n      tag_298\n      swap1\n        /* \".deps/npm/@onchain-id/solidity/contracts/Identity.sol\":12879:12883  this */\n      address\n      swap1\n        /* \".deps/npm/@onchain-id/solidity/contracts/Identity.sol\":12887:12893  _topic */\n      dup12\n      swap1\n        /* \".deps/npm/@onchain-id/solidity/contracts/Identity.sol\":12895:12905  _signature */\n      dup10\n      swap1\n        /* \".deps/npm/@onchain-id/solidity/contracts/Identity.sol\":12907:12912  _data */\n      dup10\n      swap1\n        /* \".deps/npm/@onchain-id/solidity/contracts/Identity.sol\":12826:12913  IClaimIssuer(_issuer).isClaimValid(IIdentity(address(this)), _topic, _signature, _data) */\n      0x04\n      add\n      tag_299\n      jump\t// in\n    tag_298:\n      0x20\n      mload(0x40)\n      dup1\n      dup4\n      sub\n      dup2\n      dup7\n      gas\n      staticcall\n      iszero\n      dup1\n      iszero\n      tag_301\n      jumpi\n      returndatasize\n      0x00\n      dup1\n      returndatacopy\n      revert(0x00, returndatasize)\n    tag_301:\n      pop\n      pop\n      pop\n      pop\n      mload(0x40)\n      returndatasize\n      not(0x1f)\n      0x1f\n      dup3\n      add\n      and\n      dup3\n      add\n      dup1\n      0x40\n      mstore\n      pop\n      dup2\n      add\n      swap1\n      tag_302\n      swap2\n      swap1\n      tag_303\n      jump\t// in\n    tag_302:\n        /* \".deps/npm/@onchain-id/solidity/contracts/Identity.sol\":12818:12931  require(IClaimIssuer(_issuer).isClaimValid(IIdentity(address(this)), _topic, _signature, _data), \"invalid claim\") */\n      tag_304\n      jumpi\n      mload(0x40)\n      shl(0xe5, 0x461bcd)\n      dup2\n      mstore\n        /* \"#utility.yul\":18658:18660   */\n      0x20\n        /* \".deps/npm/@onchain-id/solidity/contracts/Identity.sol\":12818:12931  require(IClaimIssuer(_issuer).isClaimValid(IIdentity(address(this)), _topic, _signature, _data), \"invalid claim\") */\n      0x04\n      dup3\n      add\n        /* \"#utility.yul\":18640:18661   */\n      mstore\n        /* \"#utility.yul\":18697:18699   */\n      0x0d\n        /* \"#utility.yul\":18677:18695   */\n      0x24\n      dup3\n      add\n        /* \"#utility.yul\":18670:18700   */\n      mstore\n      shl(0x98, 0x696e76616c696420636c61696d)\n        /* \"#utility.yul\":18716:18734   */\n      0x44\n      dup3\n      add\n        /* \"#utility.yul\":18709:18752   */\n      mstore\n        /* \"#utility.yul\":18769:18787   */\n      0x64\n      add\n        /* \".deps/npm/@onchain-id/solidity/contracts/Identity.sol\":12818:12931  require(IClaimIssuer(_issuer).isClaimValid(IIdentity(address(this)), _topic, _signature, _data), \"invalid claim\") */\n      tag_122\n        /* \"#utility.yul\":18456:18793   */\n      jump\n        /* \".deps/npm/@onchain-id/solidity/contracts/Identity.sol\":12818:12931  require(IClaimIssuer(_issuer).isClaimValid(IIdentity(address(this)), _topic, _signature, _data), \"invalid claim\") */\n    tag_304:\n        /* \".deps/npm/@onchain-id/solidity/contracts/Identity.sol\":12980:13007  abi.encode(_issuer, _topic) */\n      0x40\n      dup1\n      mload\n      sub(shl(0xa0, 0x01), 0x01)\n        /* \"#utility.yul\":18990:19022   */\n      dup8\n      and\n        /* \".deps/npm/@onchain-id/solidity/contracts/Identity.sol\":12980:13007  abi.encode(_issuer, _topic) */\n      0x20\n      dup3\n      add\n        /* \"#utility.yul\":18972:19023   */\n      mstore\n        /* \"#utility.yul\":19039:19057   */\n      swap1\n      dup2\n      add\n        /* \"#utility.yul\":19032:19066   */\n      dup9\n      swap1\n      mstore\n        /* \".deps/npm/@onchain-id/solidity/contracts/Identity.sol\":12952:12967  bytes32 claimId */\n      0x00\n      swap1\n        /* \"#utility.yul\":18945:18963   */\n      0x60\n      add\n        /* \".deps/npm/@onchain-id/solidity/contracts/Identity.sol\":12980:13007  abi.encode(_issuer, _topic) */\n      0x40\n      dup1\n      mload\n      not(0x1f)\n      dup2\n      dup5\n      sub\n      add\n      dup2\n      mstore\n      swap2\n      dup2\n      mstore\n        /* \".deps/npm/@onchain-id/solidity/contracts/Identity.sol\":12970:13008  keccak256(abi.encode(_issuer, _topic)) */\n      dup2\n      mload\n        /* \".deps/npm/@onchain-id/solidity/contracts/Identity.sol\":12980:13007  abi.encode(_issuer, _topic) */\n      0x20\n        /* \".deps/npm/@onchain-id/solidity/contracts/Identity.sol\":12970:13008  keccak256(abi.encode(_issuer, _topic)) */\n      swap3\n      dup4\n      add\n      keccak256\n        /* \".deps/npm/@onchain-id/solidity/contracts/Identity.sol\":13018:13034  _claims[claimId] */\n      0x00\n      dup2\n      dup2\n      mstore\n        /* \".deps/npm/@onchain-id/solidity/contracts/Identity.sol\":13018:13025  _claims */\n      0x04\n        /* \".deps/npm/@onchain-id/solidity/contracts/Identity.sol\":13018:13034  _claims[claimId] */\n      swap1\n      swap4\n      mstore\n      swap2\n      keccak256\n        /* \".deps/npm/@onchain-id/solidity/contracts/Identity.sol\":13018:13049  _claims[claimId].topic = _topic */\n      dup10\n      dup2\n      sstore\n        /* \".deps/npm/@onchain-id/solidity/contracts/Identity.sol\":13059:13082  _claims[claimId].scheme */\n      0x01\n      dup2\n      add\n        /* \".deps/npm/@onchain-id/solidity/contracts/Identity.sol\":13059:13092  _claims[claimId].scheme = _scheme */\n      dup10\n      swap1\n      sstore\n        /* \".deps/npm/@onchain-id/solidity/contracts/Identity.sol\":12970:13008  keccak256(abi.encode(_issuer, _topic)) */\n      swap1\n      swap2\n      pop\n        /* \".deps/npm/@onchain-id/solidity/contracts/Identity.sol\":13102:13128  _claims[claimId].signature */\n      0x03\n      add\n        /* \".deps/npm/@onchain-id/solidity/contracts/Identity.sol\":13102:13141  _claims[claimId].signature = _signature */\n      tag_309\n        /* \".deps/npm/@onchain-id/solidity/contracts/Identity.sol\":13131:13141  _signature */\n      dup7\n        /* \".deps/npm/@onchain-id/solidity/contracts/Identity.sol\":13102:13128  _claims[claimId].signature */\n      dup3\n        /* \".deps/npm/@onchain-id/solidity/contracts/Identity.sol\":13102:13141  _claims[claimId].signature = _signature */\n      tag_310\n      jump\t// in\n    tag_309:\n      pop\n        /* \".deps/npm/@onchain-id/solidity/contracts/Identity.sol\":13151:13167  _claims[claimId] */\n      0x00\n      dup2\n      dup2\n      mstore\n        /* \".deps/npm/@onchain-id/solidity/contracts/Identity.sol\":13151:13158  _claims */\n      0x04\n        /* \".deps/npm/@onchain-id/solidity/contracts/Identity.sol\":13151:13167  _claims[claimId] */\n      0x20\n      dup2\n      swap1\n      mstore\n      0x40\n      swap1\n      swap2\n      keccak256\n        /* \".deps/npm/@onchain-id/solidity/contracts/Identity.sol\":13151:13172  _claims[claimId].data */\n      add\n        /* \".deps/npm/@onchain-id/solidity/contracts/Identity.sol\":13151:13180  _claims[claimId].data = _data */\n      tag_311\n        /* \".deps/npm/@onchain-id/solidity/contracts/Identity.sol\":13175:13180  _data */\n      dup6\n        /* \".deps/npm/@onchain-id/solidity/contracts/Identity.sol\":13151:13172  _claims[claimId].data */\n      dup3\n        /* \".deps/npm/@onchain-id/solidity/contracts/Identity.sol\":13151:13180  _claims[claimId].data = _data */\n      tag_310\n      jump\t// in\n    tag_311:\n      pop\n        /* \".deps/npm/@onchain-id/solidity/contracts/Identity.sol\":13190:13206  _claims[claimId] */\n      0x00\n      dup2\n      dup2\n      mstore\n        /* \".deps/npm/@onchain-id/solidity/contracts/Identity.sol\":13190:13197  _claims */\n      0x04\n        /* \".deps/npm/@onchain-id/solidity/contracts/Identity.sol\":13190:13206  _claims[claimId] */\n      0x20\n      mstore\n      0x40\n      swap1\n      keccak256\n        /* \".deps/npm/@onchain-id/solidity/contracts/Identity.sol\":13190:13210  _claims[claimId].uri */\n      0x05\n      add\n        /* \".deps/npm/@onchain-id/solidity/contracts/Identity.sol\":13190:13217  _claims[claimId].uri = _uri */\n      tag_312\n        /* \".deps/npm/@onchain-id/solidity/contracts/Identity.sol\":13213:13217  _uri */\n      dup5\n        /* \".deps/npm/@onchain-id/solidity/contracts/Identity.sol\":13190:13210  _claims[claimId].uri */\n      dup3\n        /* \".deps/npm/@onchain-id/solidity/contracts/Identity.sol\":13190:13217  _claims[claimId].uri = _uri */\n      tag_310\n      jump\t// in\n    tag_312:\n      pop\n        /* \".deps/npm/@onchain-id/solidity/contracts/Identity.sol\":13232:13248  _claims[claimId] */\n      0x00\n      dup2\n      dup2\n      mstore\n        /* \".deps/npm/@onchain-id/solidity/contracts/Identity.sol\":13232:13239  _claims */\n      0x04\n        /* \".deps/npm/@onchain-id/solidity/contracts/Identity.sol\":13232:13248  _claims[claimId] */\n      0x20\n      mstore\n      0x40\n      swap1\n      keccak256\n        /* \".deps/npm/@onchain-id/solidity/contracts/Identity.sol\":13232:13255  _claims[claimId].issuer */\n      0x02\n      add\n      sload\n      sub(shl(0xa0, 0x01), 0x01)\n        /* \".deps/npm/@onchain-id/solidity/contracts/Identity.sol\":13232:13266  _claims[claimId].issuer != _issuer */\n      dup8\n      dup2\n      and\n        /* \".deps/npm/@onchain-id/solidity/contracts/Identity.sol\":13232:13255  _claims[claimId].issuer */\n      swap2\n      and\n        /* \".deps/npm/@onchain-id/solidity/contracts/Identity.sol\":13232:13266  _claims[claimId].issuer != _issuer */\n      eq\n        /* \".deps/npm/@onchain-id/solidity/contracts/Identity.sol\":13228:13582  if (_claims[claimId].issuer != _issuer) {... */\n      tag_314\n      jumpi\n        /* \".deps/npm/@onchain-id/solidity/contracts/Identity.sol\":13282:13304  _claimsByTopic[_topic] */\n      0x00\n      dup9\n      dup2\n      mstore\n        /* \".deps/npm/@onchain-id/solidity/contracts/Identity.sol\":13282:13296  _claimsByTopic */\n      0x05\n        /* \".deps/npm/@onchain-id/solidity/contracts/Identity.sol\":13282:13304  _claimsByTopic[_topic] */\n      0x20\n      swap1\n      dup2\n      mstore\n      0x40\n      dup1\n      dup4\n      keccak256\n        /* \".deps/npm/@onchain-id/solidity/contracts/Identity.sol\":13282:13318  _claimsByTopic[_topic].push(claimId) */\n      dup1\n      sload\n      0x01\n      dup2\n      add\n      dup3\n      sstore\n      swap1\n      dup5\n      mstore\n      dup3\n      dup5\n      keccak256\n      add\n      dup5\n      swap1\n      sstore\n        /* \".deps/npm/@onchain-id/solidity/contracts/Identity.sol\":13332:13348  _claims[claimId] */\n      dup4\n      dup4\n      mstore\n        /* \".deps/npm/@onchain-id/solidity/contracts/Identity.sol\":13332:13339  _claims */\n      0x04\n        /* \".deps/npm/@onchain-id/solidity/contracts/Identity.sol\":13332:13348  _claims[claimId] */\n      swap1\n      swap2\n      mstore\n      swap1\n      dup2\n      swap1\n      keccak256\n        /* \".deps/npm/@onchain-id/solidity/contracts/Identity.sol\":13332:13355  _claims[claimId].issuer */\n      0x02\n      add\n        /* \".deps/npm/@onchain-id/solidity/contracts/Identity.sol\":13332:13365  _claims[claimId].issuer = _issuer */\n      dup1\n      sload\n      not(sub(shl(0xa0, 0x01), 0x01))\n      and\n      sub(shl(0xa0, 0x01), 0x01)\n      dup10\n      and\n      swap1\n      dup2\n      or\n      swap1\n      swap2\n      sstore\n        /* \".deps/npm/@onchain-id/solidity/contracts/Identity.sol\":13385:13455  ClaimAdded(claimId, _topic, _scheme, _issuer, _signature, _data, _uri) */\n      swap1\n      mload\n        /* \".deps/npm/@onchain-id/solidity/contracts/Identity.sol\":13282:13304  _claimsByTopic[_topic] */\n      dup10\n      swap1\n        /* \".deps/npm/@onchain-id/solidity/contracts/Identity.sol\":13282:13318  _claimsByTopic[_topic].push(claimId) */\n      dup4\n      swap1\n        /* \".deps/npm/@onchain-id/solidity/contracts/Identity.sol\":13385:13455  ClaimAdded(claimId, _topic, _scheme, _issuer, _signature, _data, _uri) */\n      0x46149b18aa084502c3f12bc75e19eda8bda8d102b82cce8474677a6d0d5f43c5\n      swap1\n      tag_316\n      swap1\n        /* \".deps/npm/@onchain-id/solidity/contracts/Identity.sol\":13413:13420  _scheme */\n      dup13\n      swap1\n        /* \".deps/npm/@onchain-id/solidity/contracts/Identity.sol\":13431:13441  _signature */\n      dup12\n      swap1\n        /* \".deps/npm/@onchain-id/solidity/contracts/Identity.sol\":13443:13448  _data */\n      dup12\n      swap1\n        /* \".deps/npm/@onchain-id/solidity/contracts/Identity.sol\":13450:13454  _uri */\n      dup12\n      swap1\n        /* \".deps/npm/@onchain-id/solidity/contracts/Identity.sol\":13385:13455  ClaimAdded(claimId, _topic, _scheme, _issuer, _signature, _data, _uri) */\n      tag_317\n      jump\t// in\n    tag_316:\n      mload(0x40)\n      dup1\n      swap2\n      sub\n      swap1\n      log4\n        /* \".deps/npm/@onchain-id/solidity/contracts/Identity.sol\":13228:13582  if (_claims[claimId].issuer != _issuer) {... */\n      jump(tag_318)\n    tag_314:\n        /* \".deps/npm/@onchain-id/solidity/contracts/Identity.sol\":13538:13545  _issuer */\n      dup6\n      sub(shl(0xa0, 0x01), 0x01)\n        /* \".deps/npm/@onchain-id/solidity/contracts/Identity.sol\":13499:13571  ClaimChanged(claimId, _topic, _scheme, _issuer, _signature, _data, _uri) */\n      and\n        /* \".deps/npm/@onchain-id/solidity/contracts/Identity.sol\":13521:13527  _topic */\n      dup9\n        /* \".deps/npm/@onchain-id/solidity/contracts/Identity.sol\":13512:13519  claimId */\n      dup3\n        /* \".deps/npm/@onchain-id/solidity/contracts/Identity.sol\":13499:13571  ClaimChanged(claimId, _topic, _scheme, _issuer, _signature, _data, _uri) */\n      0x3bab293fc00db832d7619a9299914251b8747c036867ec056cbd506f60135b13\n        /* \".deps/npm/@onchain-id/solidity/contracts/Identity.sol\":13529:13536  _scheme */\n      dup11\n        /* \".deps/npm/@onchain-id/solidity/contracts/Identity.sol\":13547:13557  _signature */\n      dup10\n        /* \".deps/npm/@onchain-id/solidity/contracts/Identity.sol\":13559:13564  _data */\n      dup10\n        /* \".deps/npm/@onchain-id/solidity/contracts/Identity.sol\":13566:13570  _uri */\n      dup10\n        /* \".deps/npm/@onchain-id/solidity/contracts/Identity.sol\":13499:13571  ClaimChanged(claimId, _topic, _scheme, _issuer, _signature, _data, _uri) */\n      mload(0x40)\n      tag_319\n      swap5\n      swap4\n      swap3\n      swap2\n      swap1\n      tag_317\n      jump\t// in\n    tag_319:\n      mload(0x40)\n      dup1\n      swap2\n      sub\n      swap1\n      log4\n        /* \".deps/npm/@onchain-id/solidity/contracts/Identity.sol\":13228:13582  if (_claims[claimId].issuer != _issuer) {... */\n    tag_318:\n        /* \".deps/npm/@onchain-id/solidity/contracts/Identity.sol\":13598:13605  claimId */\n      swap8\n        /* \".deps/npm/@onchain-id/solidity/contracts/Identity.sol\":12477:13612  function addClaim(... */\n      swap7\n      pop\n      pop\n      pop\n      pop\n      pop\n      pop\n      pop\n      jump\t// out\n        /* \".deps/npm/@onchain-id/solidity/contracts/Identity.sol\":3064:3811  function execute(address _to, uint256 _value, bytes memory _data)... */\n    tag_79:\n        /* \".deps/npm/@onchain-id/solidity/contracts/Identity.sol\":700:712  _canInteract */\n      sload(0x06)\n        /* \".deps/npm/@onchain-id/solidity/contracts/Identity.sol\":3199:3218  uint256 executionId */\n      0x00\n      swap1\n        /* \".deps/npm/@onchain-id/solidity/contracts/Identity.sol\":700:712  _canInteract */\n      0xff\n      0x0100\n      swap1\n      swap2\n      div\n      and\n        /* \".deps/npm/@onchain-id/solidity/contracts/Identity.sol\":700:720  _canInteract == true */\n      iszero\n      iszero\n        /* \".deps/npm/@onchain-id/solidity/contracts/Identity.sol\":700:712  _canInteract */\n      0x01\n        /* \".deps/npm/@onchain-id/solidity/contracts/Identity.sol\":700:720  _canInteract == true */\n      eq\n        /* \".deps/npm/@onchain-id/solidity/contracts/Identity.sol\":692:776  require(_canInteract == true, \"Interacting with the library contract is forbidden.\") */\n      tag_321\n      jumpi\n      mload(0x40)\n      shl(0xe5, 0x461bcd)\n      dup2\n      mstore\n      0x04\n      add\n      tag_122\n      swap1\n      tag_123\n      jump\t// in\n    tag_321:\n        /* \".deps/npm/@onchain-id/solidity/contracts/Identity.sol\":3234:3254  uint256 _executionId */\n      0x00\n        /* \".deps/npm/@onchain-id/solidity/contracts/Identity.sol\":3257:3272  _executionNonce */\n      dup1\n      sload\n        /* \".deps/npm/@onchain-id/solidity/contracts/Identity.sol\":3282:3307  _executions[_executionId] */\n      dup1\n      dup3\n      mstore\n        /* \".deps/npm/@onchain-id/solidity/contracts/Identity.sol\":3282:3293  _executions */\n      0x03\n        /* \".deps/npm/@onchain-id/solidity/contracts/Identity.sol\":3282:3307  _executions[_executionId] */\n      0x20\n      mstore\n      0x40\n      swap1\n      swap2\n      keccak256\n        /* \".deps/npm/@onchain-id/solidity/contracts/Identity.sol\":3282:3316  _executions[_executionId].to = _to */\n      dup1\n      sload\n      not(sub(shl(0xa0, 0x01), 0x01))\n      and\n      sub(shl(0xa0, 0x01), 0x01)\n      dup8\n      and\n      or\n      dup2\n      sstore\n      0x01\n        /* \".deps/npm/@onchain-id/solidity/contracts/Identity.sol\":3326:3357  _executions[_executionId].value */\n      dup2\n      add\n        /* \".deps/npm/@onchain-id/solidity/contracts/Identity.sol\":3326:3366  _executions[_executionId].value = _value */\n      dup6\n      swap1\n      sstore\n        /* \".deps/npm/@onchain-id/solidity/contracts/Identity.sol\":3376:3406  _executions[_executionId].data */\n      0x02\n      add\n        /* \".deps/npm/@onchain-id/solidity/contracts/Identity.sol\":3376:3414  _executions[_executionId].data = _data */\n      tag_324\n        /* \".deps/npm/@onchain-id/solidity/contracts/Identity.sol\":3409:3414  _data */\n      dup5\n        /* \".deps/npm/@onchain-id/solidity/contracts/Identity.sol\":3376:3406  _executions[_executionId].data */\n      dup3\n        /* \".deps/npm/@onchain-id/solidity/contracts/Identity.sol\":3376:3414  _executions[_executionId].data = _data */\n      tag_310\n      jump\t// in\n    tag_324:\n      pop\n        /* \".deps/npm/@onchain-id/solidity/contracts/Identity.sol\":3424:3439  _executionNonce */\n      0x00\n        /* \".deps/npm/@onchain-id/solidity/contracts/Identity.sol\":3424:3441  _executionNonce++ */\n      dup1\n      sload\n      swap1\n        /* \".deps/npm/@onchain-id/solidity/contracts/Identity.sol\":3424:3439  _executionNonce */\n      dup1\n        /* \".deps/npm/@onchain-id/solidity/contracts/Identity.sol\":3424:3441  _executionNonce++ */\n      tag_325\n      dup4\n      tag_145\n      jump\t// in\n    tag_325:\n      swap2\n      swap1\n      pop\n      sstore\n      pop\n        /* \".deps/npm/@onchain-id/solidity/contracts/Identity.sol\":3495:3501  _value */\n      dup4\n        /* \".deps/npm/@onchain-id/solidity/contracts/Identity.sol\":3490:3493  _to */\n      dup6\n      sub(shl(0xa0, 0x01), 0x01)\n        /* \".deps/npm/@onchain-id/solidity/contracts/Identity.sol\":3457:3509  ExecutionRequested(_executionId, _to, _value, _data) */\n      and\n        /* \".deps/npm/@onchain-id/solidity/contracts/Identity.sol\":3476:3488  _executionId */\n      dup3\n        /* \".deps/npm/@onchain-id/solidity/contracts/Identity.sol\":3457:3509  ExecutionRequested(_executionId, _to, _value, _data) */\n      0x8afcfabcb00e47a53a8fc3e9f23ff47ee1926194bb1350dd007c50b412a6cee8\n        /* \".deps/npm/@onchain-id/solidity/contracts/Identity.sol\":3503:3508  _data */\n      dup7\n        /* \".deps/npm/@onchain-id/solidity/contracts/Identity.sol\":3457:3509  ExecutionRequested(_executionId, _to, _value, _data) */\n      mload(0x40)\n      tag_326\n      swap2\n      swap1\n      tag_50\n      jump\t// in\n    tag_326:\n      mload(0x40)\n      dup1\n      swap2\n      sub\n      swap1\n      log4\n        /* \".deps/npm/@onchain-id/solidity/contracts/Identity.sol\":3548:3570  abi.encode(msg.sender) */\n      0x40\n      dup1\n      mload\n        /* \".deps/npm/@onchain-id/solidity/contracts/Identity.sol\":3559:3569  msg.sender */\n      caller\n        /* \".deps/npm/@onchain-id/solidity/contracts/Identity.sol\":3548:3570  abi.encode(msg.sender) */\n      0x20\n      dup3\n      add\n        /* \"#utility.yul\":8197:8248   */\n      mstore\n        /* \".deps/npm/@onchain-id/solidity/contracts/Identity.sol\":3524:3575  keyHasPurpose(keccak256(abi.encode(msg.sender)), 1) */\n      tag_328\n      swap2\n        /* \"#utility.yul\":8170:8188   */\n      add\n        /* \".deps/npm/@onchain-id/solidity/contracts/Identity.sol\":3548:3570  abi.encode(msg.sender) */\n      tag_127\n        /* \"#utility.yul\":8051:8254   */\n      jump\n        /* \".deps/npm/@onchain-id/solidity/contracts/Identity.sol\":3524:3575  keyHasPurpose(keccak256(abi.encode(msg.sender)), 1) */\n    tag_328:\n        /* \".deps/npm/@onchain-id/solidity/contracts/Identity.sol\":3520:3775  if (keyHasPurpose(keccak256(abi.encode(msg.sender)), 1)) {... */\n      iszero\n      tag_330\n      jumpi\n        /* \".deps/npm/@onchain-id/solidity/contracts/Identity.sol\":3591:3618  approve(_executionId, true) */\n      tag_331\n        /* \".deps/npm/@onchain-id/solidity/contracts/Identity.sol\":3599:3611  _executionId */\n      dup2\n        /* \".deps/npm/@onchain-id/solidity/contracts/Identity.sol\":3613:3617  true */\n      0x01\n        /* \".deps/npm/@onchain-id/solidity/contracts/Identity.sol\":3591:3598  approve */\n      tag_55\n        /* \".deps/npm/@onchain-id/solidity/contracts/Identity.sol\":3591:3618  approve(_executionId, true) */\n      jump\t// in\n    tag_331:\n      pop\n        /* \".deps/npm/@onchain-id/solidity/contracts/Identity.sol\":3520:3775  if (keyHasPurpose(keccak256(abi.encode(msg.sender)), 1)) {... */\n      jump(tag_336)\n    tag_330:\n      sub(shl(0xa0, 0x01), 0x01)\n        /* \".deps/npm/@onchain-id/solidity/contracts/Identity.sol\":3647:3667  _to != address(this) */\n      dup6\n      and\n        /* \".deps/npm/@onchain-id/solidity/contracts/Identity.sol\":3662:3666  this */\n      address\n        /* \".deps/npm/@onchain-id/solidity/contracts/Identity.sol\":3647:3667  _to != address(this) */\n      eq\n      dup1\n      iszero\n      swap1\n        /* \".deps/npm/@onchain-id/solidity/contracts/Identity.sol\":3647:3722  _to != address(this) && keyHasPurpose(keccak256(abi.encode(msg.sender)), 2) */\n      tag_334\n      jumpi\n      pop\n        /* \".deps/npm/@onchain-id/solidity/contracts/Identity.sol\":3695:3717  abi.encode(msg.sender) */\n      0x40\n      dup1\n      mload\n        /* \".deps/npm/@onchain-id/solidity/contracts/Identity.sol\":3706:3716  msg.sender */\n      caller\n        /* \".deps/npm/@onchain-id/solidity/contracts/Identity.sol\":3695:3717  abi.encode(msg.sender) */\n      0x20\n      dup3\n      add\n        /* \"#utility.yul\":8197:8248   */\n      mstore\n        /* \".deps/npm/@onchain-id/solidity/contracts/Identity.sol\":3671:3722  keyHasPurpose(keccak256(abi.encode(msg.sender)), 2) */\n      tag_334\n      swap2\n        /* \"#utility.yul\":8170:8188   */\n      add\n        /* \".deps/npm/@onchain-id/solidity/contracts/Identity.sol\":3695:3717  abi.encode(msg.sender) */\n      tag_264\n        /* \"#utility.yul\":8051:8254   */\n      jump\n        /* \".deps/npm/@onchain-id/solidity/contracts/Identity.sol\":3671:3722  keyHasPurpose(keccak256(abi.encode(msg.sender)), 2) */\n    tag_334:\n        /* \".deps/npm/@onchain-id/solidity/contracts/Identity.sol\":3643:3775  if (_to != address(this) && keyHasPurpose(keccak256(abi.encode(msg.sender)), 2)){... */\n      iszero\n      tag_336\n      jumpi\n        /* \".deps/npm/@onchain-id/solidity/contracts/Identity.sol\":3737:3764  approve(_executionId, true) */\n      tag_337\n        /* \".deps/npm/@onchain-id/solidity/contracts/Identity.sol\":3745:3757  _executionId */\n      dup2\n        /* \".deps/npm/@onchain-id/solidity/contracts/Identity.sol\":3759:3763  true */\n      0x01\n        /* \".deps/npm/@onchain-id/solidity/contracts/Identity.sol\":3737:3744  approve */\n      tag_55\n        /* \".deps/npm/@onchain-id/solidity/contracts/Identity.sol\":3737:3764  approve(_executionId, true) */\n      jump\t// in\n    tag_337:\n      pop\n        /* \".deps/npm/@onchain-id/solidity/contracts/Identity.sol\":3643:3775  if (_to != address(this) && keyHasPurpose(keccak256(abi.encode(msg.sender)), 2)){... */\n    tag_336:\n        /* \".deps/npm/@onchain-id/solidity/contracts/Identity.sol\":3792:3804  _executionId */\n      swap5\n        /* \".deps/npm/@onchain-id/solidity/contracts/Identity.sol\":3064:3811  function execute(address _to, uint256 _value, bytes memory _data)... */\n      swap4\n      pop\n      pop\n      pop\n      pop\n      jump\t// out\n        /* \".deps/npm/@onchain-id/solidity/contracts/Identity.sol\":17865:18791  function isClaimValid(... */\n    tag_86:\n        /* \".deps/npm/@onchain-id/solidity/contracts/Identity.sol\":18032:18047  bool claimValid */\n      0x00\n        /* \".deps/npm/@onchain-id/solidity/contracts/Identity.sol\":18063:18079  bytes32 dataHash */\n      dup1\n        /* \".deps/npm/@onchain-id/solidity/contracts/Identity.sol\":18103:18112  _identity */\n      dup6\n        /* \".deps/npm/@onchain-id/solidity/contracts/Identity.sol\":18114:18124  claimTopic */\n      dup6\n        /* \".deps/npm/@onchain-id/solidity/contracts/Identity.sol\":18126:18130  data */\n      dup5\n        /* \".deps/npm/@onchain-id/solidity/contracts/Identity.sol\":18092:18131  abi.encode(_identity, claimTopic, data) */\n      add(0x20, mload(0x40))\n      tag_339\n      swap4\n      swap3\n      swap2\n      swap1\n      tag_340\n      jump\t// in\n    tag_339:\n      mload(0x40)\n      0x20\n      dup2\n      dup4\n      sub\n      sub\n      dup2\n      mstore\n      swap1\n      0x40\n      mstore\n        /* \".deps/npm/@onchain-id/solidity/contracts/Identity.sol\":18082:18132  keccak256(abi.encode(_identity, claimTopic, data)) */\n      dup1\n      mload\n      swap1\n      0x20\n      add\n      keccak256\n        /* \".deps/npm/@onchain-id/solidity/contracts/Identity.sol\":18063:18132  bytes32 dataHash = keccak256(abi.encode(_identity, claimTopic, data)) */\n      swap1\n      pop\n        /* \".deps/npm/@onchain-id/solidity/contracts/Identity.sol\":18233:18253  bytes32 prefixedHash */\n      0x00\n        /* \".deps/npm/@onchain-id/solidity/contracts/Identity.sol\":18319:18327  dataHash */\n      dup2\n        /* \".deps/npm/@onchain-id/solidity/contracts/Identity.sol\":18266:18328  abi.encodePacked(\"\\x19Ethereum Signed Message:\\n32\", dataHash) */\n      add(0x20, mload(0x40))\n      tag_341\n      swap2\n      swap1\n        /* \"#utility.yul\":23999:24065   */\n      0x19457468657265756d205369676e6564204d6573736167653a0a333200000000\n        /* \"#utility.yul\":23987:24066   */\n      dup2\n      mstore\n        /* \"#utility.yul\":24091:24093   */\n      0x1c\n        /* \"#utility.yul\":24082:24094   */\n      dup2\n      add\n        /* \"#utility.yul\":24075:24103   */\n      swap2\n      swap1\n      swap2\n      mstore\n        /* \"#utility.yul\":24128:24130   */\n      0x3c\n        /* \"#utility.yul\":24119:24131   */\n      add\n      swap1\n        /* \"#utility.yul\":23757:24137   */\n      jump\n        /* \".deps/npm/@onchain-id/solidity/contracts/Identity.sol\":18266:18328  abi.encodePacked(\"\\x19Ethereum Signed Message:\\n32\", dataHash) */\n    tag_341:\n      mload(0x40)\n      0x20\n      dup2\n      dup4\n      sub\n      sub\n      dup2\n      mstore\n      swap1\n      0x40\n      mstore\n        /* \".deps/npm/@onchain-id/solidity/contracts/Identity.sol\":18256:18329  keccak256(abi.encodePacked(\"\\x19Ethereum Signed Message:\\n32\", dataHash)) */\n      dup1\n      mload\n      swap1\n      0x20\n      add\n      keccak256\n        /* \".deps/npm/@onchain-id/solidity/contracts/Identity.sol\":18233:18329  bytes32 prefixedHash = keccak256(abi.encodePacked(\"\\x19Ethereum Signed Message:\\n32\", dataHash)) */\n      swap1\n      pop\n        /* \".deps/npm/@onchain-id/solidity/contracts/Identity.sol\":18382:18399  address recovered */\n      0x00\n        /* \".deps/npm/@onchain-id/solidity/contracts/Identity.sol\":18402:18440  getRecoveredAddress(sig, prefixedHash) */\n      tag_343\n        /* \".deps/npm/@onchain-id/solidity/contracts/Identity.sol\":18422:18425  sig */\n      dup7\n        /* \".deps/npm/@onchain-id/solidity/contracts/Identity.sol\":18427:18439  prefixedHash */\n      dup4\n        /* \".deps/npm/@onchain-id/solidity/contracts/Identity.sol\":18402:18421  getRecoveredAddress */\n      tag_92\n        /* \".deps/npm/@onchain-id/solidity/contracts/Identity.sol\":18402:18440  getRecoveredAddress(sig, prefixedHash) */\n      jump\t// in\n    tag_343:\n        /* \".deps/npm/@onchain-id/solidity/contracts/Identity.sol\":18524:18545  abi.encode(recovered) */\n      0x40\n      dup1\n      mload\n      sub(shl(0xa0, 0x01), 0x01)\n        /* \"#utility.yul\":8215:8247   */\n      dup4\n      and\n        /* \".deps/npm/@onchain-id/solidity/contracts/Identity.sol\":18524:18545  abi.encode(recovered) */\n      0x20\n      dup3\n      add\n        /* \"#utility.yul\":8197:8248   */\n      mstore\n        /* \".deps/npm/@onchain-id/solidity/contracts/Identity.sol\":18382:18440  address recovered = getRecoveredAddress(sig, prefixedHash) */\n      swap2\n      swap3\n      pop\n        /* \".deps/npm/@onchain-id/solidity/contracts/Identity.sol\":18493:18511  bytes32 hashedAddr */\n      0x00\n      swap2\n        /* \"#utility.yul\":8170:8188   */\n      add\n        /* \".deps/npm/@onchain-id/solidity/contracts/Identity.sol\":18524:18545  abi.encode(recovered) */\n      mload(0x40)\n      0x20\n      dup2\n      dup4\n      sub\n      sub\n      dup2\n      mstore\n      swap1\n      0x40\n      mstore\n        /* \".deps/npm/@onchain-id/solidity/contracts/Identity.sol\":18514:18546  keccak256(abi.encode(recovered)) */\n      dup1\n      mload\n      swap1\n      0x20\n      add\n      keccak256\n        /* \".deps/npm/@onchain-id/solidity/contracts/Identity.sol\":18493:18546  bytes32 hashedAddr = keccak256(abi.encode(recovered)) */\n      swap1\n      pop\n        /* \".deps/npm/@onchain-id/solidity/contracts/Identity.sol\":18696:18724  keyHasPurpose(hashedAddr, 3) */\n      tag_345\n        /* \".deps/npm/@onchain-id/solidity/contracts/Identity.sol\":18710:18720  hashedAddr */\n      dup2\n        /* \".deps/npm/@onchain-id/solidity/contracts/Identity.sol\":18722:18723  3 */\n      0x03\n        /* \".deps/npm/@onchain-id/solidity/contracts/Identity.sol\":18696:18709  keyHasPurpose */\n      tag_109\n        /* \".deps/npm/@onchain-id/solidity/contracts/Identity.sol\":18696:18724  keyHasPurpose(hashedAddr, 3) */\n      jump\t// in\n    tag_345:\n        /* \".deps/npm/@onchain-id/solidity/contracts/Identity.sol\":18692:18762  if (keyHasPurpose(hashedAddr, 3)) {... */\n      iszero\n      tag_346\n      jumpi\n        /* \".deps/npm/@onchain-id/solidity/contracts/Identity.sol\":18747:18751  true */\n      0x01\n        /* \".deps/npm/@onchain-id/solidity/contracts/Identity.sol\":18740:18751  return true */\n      swap5\n      pop\n      pop\n      pop\n      pop\n      pop\n      jump(tag_336)\n        /* \".deps/npm/@onchain-id/solidity/contracts/Identity.sol\":18692:18762  if (keyHasPurpose(hashedAddr, 3)) {... */\n    tag_346:\n      pop\n        /* \".deps/npm/@onchain-id/solidity/contracts/Identity.sol\":18779:18784  false */\n      0x00\n      swap9\n        /* \".deps/npm/@onchain-id/solidity/contracts/Identity.sol\":17865:18791  function isClaimValid(... */\n      swap8\n      pop\n      pop\n      pop\n      pop\n      pop\n      pop\n      pop\n      pop\n      jump\t// out\n        /* \".deps/npm/@onchain-id/solidity/contracts/Identity.sol\":19042:19761  function getRecoveredAddress(bytes memory sig, bytes32 dataHash)... */\n    tag_92:\n        /* \".deps/npm/@onchain-id/solidity/contracts/Identity.sol\":19140:19152  address addr */\n      0x00\n        /* \".deps/npm/@onchain-id/solidity/contracts/Identity.sol\":19168:19178  bytes32 ra */\n      dup1\n        /* \".deps/npm/@onchain-id/solidity/contracts/Identity.sol\":19188:19198  bytes32 sa */\n      0x00\n        /* \".deps/npm/@onchain-id/solidity/contracts/Identity.sol\":19208:19216  uint8 va */\n      dup1\n        /* \".deps/npm/@onchain-id/solidity/contracts/Identity.sol\":19269:19272  sig */\n      dup6\n        /* \".deps/npm/@onchain-id/solidity/contracts/Identity.sol\":19269:19279  sig.length */\n      mload\n        /* \".deps/npm/@onchain-id/solidity/contracts/Identity.sol\":19283:19285  65 */\n      0x41\n        /* \".deps/npm/@onchain-id/solidity/contracts/Identity.sol\":19269:19285  sig.length != 65 */\n      eq\n        /* \".deps/npm/@onchain-id/solidity/contracts/Identity.sol\":19265:19329  if (sig.length != 65) {... */\n      tag_348\n      jumpi\n        /* \".deps/npm/@onchain-id/solidity/contracts/Identity.sol\":19316:19317  0 */\n      0x00\n        /* \".deps/npm/@onchain-id/solidity/contracts/Identity.sol\":19301:19318  return address(0) */\n      swap4\n      pop\n      pop\n      pop\n      pop\n      jump(tag_200)\n        /* \".deps/npm/@onchain-id/solidity/contracts/Identity.sol\":19265:19329  if (sig.length != 65) {... */\n    tag_348:\n      pop\n      pop\n      pop\n        /* \".deps/npm/@onchain-id/solidity/contracts/Identity.sol\":19495:19497  32 */\n      0x20\n        /* \".deps/npm/@onchain-id/solidity/contracts/Identity.sol\":19486:19498  add(sig, 32) */\n      dup4\n      add\n        /* \".deps/npm/@onchain-id/solidity/contracts/Identity.sol\":19480:19499  mload(add(sig, 32)) */\n      mload\n        /* \".deps/npm/@onchain-id/solidity/contracts/Identity.sol\":19533:19535  64 */\n      0x40\n        /* \".deps/npm/@onchain-id/solidity/contracts/Identity.sol\":19524:19536  add(sig, 64) */\n      dup5\n      add\n        /* \".deps/npm/@onchain-id/solidity/contracts/Identity.sol\":19518:19537  mload(add(sig, 64)) */\n      mload\n        /* \".deps/npm/@onchain-id/solidity/contracts/Identity.sol\":19579:19581  96 */\n      0x60\n        /* \".deps/npm/@onchain-id/solidity/contracts/Identity.sol\":19570:19582  add(sig, 96) */\n      dup6\n      add\n        /* \".deps/npm/@onchain-id/solidity/contracts/Identity.sol\":19564:19583  mload(add(sig, 96)) */\n      mload\n        /* \".deps/npm/@onchain-id/solidity/contracts/Identity.sol\":19561:19562  0 */\n      0x00\n        /* \".deps/npm/@onchain-id/solidity/contracts/Identity.sol\":19556:19584  byte(0, mload(add(sig, 96))) */\n      byte\n        /* \".deps/npm/@onchain-id/solidity/contracts/Identity.sol\":19613:19615  27 */\n      0x1b\n        /* \".deps/npm/@onchain-id/solidity/contracts/Identity.sol\":19608:19615  va < 27 */\n      dup2\n      lt\n        /* \".deps/npm/@onchain-id/solidity/contracts/Identity.sol\":19604:19650  if (va < 27) {... */\n      iszero\n      tag_349\n      jumpi\n        /* \".deps/npm/@onchain-id/solidity/contracts/Identity.sol\":19631:19639  va += 27 */\n      tag_350\n        /* \".deps/npm/@onchain-id/solidity/contracts/Identity.sol\":19637:19639  27 */\n      0x1b\n        /* \".deps/npm/@onchain-id/solidity/contracts/Identity.sol\":19631:19639  va += 27 */\n      dup3\n      tag_351\n      jump\t// in\n    tag_350:\n      swap1\n      pop\n        /* \".deps/npm/@onchain-id/solidity/contracts/Identity.sol\":19604:19650  if (va < 27) {... */\n    tag_349:\n        /* \".deps/npm/@onchain-id/solidity/contracts/Identity.sol\":19687:19718  ecrecover(dataHash, va, ra, sa) */\n      0x40\n      dup1\n      mload\n        /* \".deps/npm/@onchain-id/solidity/contracts/Identity.sol\":19660:19684  address recoveredAddress */\n      0x00\n        /* \".deps/npm/@onchain-id/solidity/contracts/Identity.sol\":19687:19718  ecrecover(dataHash, va, ra, sa) */\n      dup1\n      dup3\n      mstore\n      0x20\n      dup3\n      add\n      dup1\n      dup5\n      mstore\n        /* \"#utility.yul\":24522:24547   */\n      dup9\n      swap1\n      mstore\n        /* \"#utility.yul\":24595:24599   */\n      0xff\n        /* \"#utility.yul\":24583:24600   */\n      dup5\n      and\n        /* \"#utility.yul\":24563:24581   */\n      swap3\n      dup3\n      add\n        /* \"#utility.yul\":24556:24601   */\n      swap3\n      swap1\n      swap3\n      mstore\n        /* \"#utility.yul\":24617:24635   */\n      0x60\n      dup2\n      add\n        /* \"#utility.yul\":24610:24644   */\n      dup6\n      swap1\n      mstore\n        /* \"#utility.yul\":24660:24678   */\n      0x80\n      dup2\n      add\n        /* \"#utility.yul\":24653:24687   */\n      dup5\n      swap1\n      mstore\n        /* \".deps/npm/@onchain-id/solidity/contracts/Identity.sol\":19687:19718  ecrecover(dataHash, va, ra, sa) */\n      0x01\n      swap1\n        /* \"#utility.yul\":24494:24513   */\n      0xa0\n      add\n        /* \".deps/npm/@onchain-id/solidity/contracts/Identity.sol\":19687:19718  ecrecover(dataHash, va, ra, sa) */\n      0x20\n      mload(0x40)\n      0x20\n      dup2\n      sub\n      swap1\n      dup1\n      dup5\n      sub\n      swap1\n      dup6\n      gas\n      staticcall\n      iszero\n      dup1\n      iszero\n      tag_355\n      jumpi\n      returndatasize\n      0x00\n      dup1\n      returndatacopy\n      revert(0x00, returndatasize)\n    tag_355:\n      pop\n      pop\n      mload(add(not(0x1f), mload(0x40)))\n      swap9\n        /* \".deps/npm/@onchain-id/solidity/contracts/Identity.sol\":19042:19761  function getRecoveredAddress(bytes memory sig, bytes32 dataHash)... */\n      swap8\n      pop\n      pop\n      pop\n      pop\n      pop\n      pop\n      pop\n      pop\n      jump\t// out\n        /* \".deps/npm/@onchain-id/solidity/contracts/Identity.sol\":2239:2440  function initialize(address initialManagementKey) external {... */\n    tag_99:\n      sub(shl(0xa0, 0x01), 0x01)\n        /* \".deps/npm/@onchain-id/solidity/contracts/Identity.sol\":2316:2350  initialManagementKey != address(0) */\n      dup2\n      and\n        /* \".deps/npm/@onchain-id/solidity/contracts/Identity.sol\":2308:2386  require(initialManagementKey != address(0), \"invalid argument - zero address\") */\n      tag_357\n      jumpi\n      mload(0x40)\n      shl(0xe5, 0x461bcd)\n      dup2\n      mstore\n        /* \"#utility.yul\":24900:24902   */\n      0x20\n        /* \".deps/npm/@onchain-id/solidity/contracts/Identity.sol\":2308:2386  require(initialManagementKey != address(0), \"invalid argument - zero address\") */\n      0x04\n      dup3\n      add\n        /* \"#utility.yul\":24882:24903   */\n      mstore\n        /* \"#utility.yul\":24939:24941   */\n      0x1f\n        /* \"#utility.yul\":24919:24937   */\n      0x24\n      dup3\n      add\n        /* \"#utility.yul\":24912:24942   */\n      mstore\n        /* \"#utility.yul\":24978:25011   */\n      0x696e76616c696420617267756d656e74202d207a65726f206164647265737300\n        /* \"#utility.yul\":24958:24976   */\n      0x44\n      dup3\n      add\n        /* \"#utility.yul\":24951:25012   */\n      mstore\n        /* \"#utility.yul\":25029:25047   */\n      0x64\n      add\n        /* \".deps/npm/@onchain-id/solidity/contracts/Identity.sol\":2308:2386  require(initialManagementKey != address(0), \"invalid argument - zero address\") */\n      tag_122\n        /* \"#utility.yul\":24698:25053   */\n      jump\n        /* \".deps/npm/@onchain-id/solidity/contracts/Identity.sol\":2308:2386  require(initialManagementKey != address(0), \"invalid argument - zero address\") */\n    tag_357:\n        /* \".deps/npm/@onchain-id/solidity/contracts/Identity.sol\":2396:2433  __Identity_init(initialManagementKey) */\n      tag_360\n        /* \".deps/npm/@onchain-id/solidity/contracts/Identity.sol\":2412:2432  initialManagementKey */\n      dup2\n        /* \".deps/npm/@onchain-id/solidity/contracts/Identity.sol\":2396:2411  __Identity_init */\n      tag_361\n        /* \".deps/npm/@onchain-id/solidity/contracts/Identity.sol\":2396:2433  __Identity_init(initialManagementKey) */\n      jump\t// in\n    tag_360:\n        /* \".deps/npm/@onchain-id/solidity/contracts/Identity.sol\":2239:2440  function initialize(address initialManagementKey) external {... */\n      pop\n      jump\t// out\n        /* \".deps/npm/@onchain-id/solidity/contracts/Identity.sol\":16194:16677  function getClaim(bytes32 _claimId)... */\n    tag_103:\n        /* \".deps/npm/@onchain-id/solidity/contracts/Identity.sol\":16284:16297  uint256 topic */\n      0x00\n        /* \".deps/npm/@onchain-id/solidity/contracts/Identity.sol\":16469:16486  _claims[_claimId] */\n      dup2\n      dup2\n      mstore\n        /* \".deps/npm/@onchain-id/solidity/contracts/Identity.sol\":16469:16476  _claims */\n      0x04\n        /* \".deps/npm/@onchain-id/solidity/contracts/Identity.sol\":16469:16486  _claims[_claimId] */\n      0x20\n      dup2\n      swap1\n      mstore\n      0x40\n      dup3\n      keccak256\n        /* \".deps/npm/@onchain-id/solidity/contracts/Identity.sol\":16469:16492  _claims[_claimId].topic */\n      dup1\n      sload\n        /* \".deps/npm/@onchain-id/solidity/contracts/Identity.sol\":16502:16526  _claims[_claimId].scheme */\n      0x01\n      dup3\n      add\n      sload\n        /* \".deps/npm/@onchain-id/solidity/contracts/Identity.sol\":16536:16560  _claims[_claimId].issuer */\n      0x02\n      dup4\n      add\n      sload\n        /* \".deps/npm/@onchain-id/solidity/contracts/Identity.sol\":16570:16597  _claims[_claimId].signature */\n      0x03\n      dup5\n      add\n        /* \".deps/npm/@onchain-id/solidity/contracts/Identity.sol\":16452:16670  return (... */\n      dup1\n      sload\n        /* \".deps/npm/@onchain-id/solidity/contracts/Identity.sol\":16284:16297  uint256 topic */\n      dup8\n      swap7\n      dup8\n      swap7\n        /* \".deps/npm/@onchain-id/solidity/contracts/Identity.sol\":16355:16377  bytes memory signature */\n      0x60\n      swap7\n      dup8\n      swap7\n      dup8\n      swap7\n        /* \".deps/npm/@onchain-id/solidity/contracts/Identity.sol\":16469:16492  _claims[_claimId].topic */\n      swap2\n      swap6\n        /* \".deps/npm/@onchain-id/solidity/contracts/Identity.sol\":16502:16526  _claims[_claimId].scheme */\n      swap1\n      swap5\n      sub(shl(0xa0, 0x01), 0x01)\n        /* \".deps/npm/@onchain-id/solidity/contracts/Identity.sol\":16536:16560  _claims[_claimId].issuer */\n      swap1\n      swap3\n      and\n      swap4\n        /* \".deps/npm/@onchain-id/solidity/contracts/Identity.sol\":16570:16597  _claims[_claimId].signature */\n      swap1\n      swap3\n        /* \".deps/npm/@onchain-id/solidity/contracts/Identity.sol\":16607:16629  _claims[_claimId].data */\n      swap1\n      dup2\n      add\n      swap2\n        /* \".deps/npm/@onchain-id/solidity/contracts/Identity.sol\":16639:16660  _claims[_claimId].uri */\n      0x05\n      swap1\n      swap2\n      add\n      swap1\n        /* \".deps/npm/@onchain-id/solidity/contracts/Identity.sol\":16570:16597  _claims[_claimId].signature */\n      dup4\n      swap1\n        /* \".deps/npm/@onchain-id/solidity/contracts/Identity.sol\":16452:16670  return (... */\n      tag_363\n      swap1\n      tag_364\n      jump\t// in\n    tag_363:\n      dup1\n      0x1f\n      add\n      0x20\n      dup1\n      swap2\n      div\n      mul\n      0x20\n      add\n      mload(0x40)\n      swap1\n      dup2\n      add\n      0x40\n      mstore\n      dup1\n      swap3\n      swap2\n      swap1\n      dup2\n      dup2\n      mstore\n      0x20\n      add\n      dup3\n      dup1\n      sload\n      tag_365\n      swap1\n      tag_364\n      jump\t// in\n    tag_365:\n      dup1\n      iszero\n      tag_366\n      jumpi\n      dup1\n      0x1f\n      lt\n      tag_367\n      jumpi\n      0x0100\n      dup1\n      dup4\n      sload\n      div\n      mul\n      dup4\n      mstore\n      swap2\n      0x20\n      add\n      swap2\n      jump(tag_366)\n    tag_367:\n      dup3\n      add\n      swap2\n      swap1\n      0x00\n      mstore\n      keccak256(0x00, 0x20)\n      swap1\n    tag_368:\n      dup2\n      sload\n      dup2\n      mstore\n      swap1\n      0x01\n      add\n      swap1\n      0x20\n      add\n      dup1\n      dup4\n      gt\n      tag_368\n      jumpi\n      dup3\n      swap1\n      sub\n      0x1f\n      and\n      dup3\n      add\n      swap2\n    tag_366:\n      pop\n      pop\n      pop\n      pop\n      pop\n      swap3\n      pop\n      dup2\n      dup1\n      sload\n      tag_369\n      swap1\n      tag_364\n      jump\t// in\n    tag_369:\n      dup1\n      0x1f\n      add\n      0x20\n      dup1\n      swap2\n      div\n      mul\n      0x20\n      add\n      mload(0x40)\n      swap1\n      dup2\n      add\n      0x40\n      mstore\n      dup1\n      swap3\n      swap2\n      swap1\n      dup2\n      dup2\n      mstore\n      0x20\n      add\n      dup3\n      dup1\n      sload\n      tag_370\n      swap1\n      tag_364\n      jump\t// in\n    tag_370:\n      dup1\n      iszero\n      tag_371\n      jumpi\n      dup1\n      0x1f\n      lt\n      tag_372\n      jumpi\n      0x0100\n      dup1\n      dup4\n      sload\n      div\n      mul\n      dup4\n      mstore\n      swap2\n      0x20\n      add\n      swap2\n      jump(tag_371)\n    tag_372:\n      dup3\n      add\n      swap2\n      swap1\n      0x00\n      mstore\n      keccak256(0x00, 0x20)\n      swap1\n    tag_373:\n      dup2\n      sload\n      dup2\n      mstore\n      swap1\n      0x01\n      add\n      swap1\n      0x20\n      add\n      dup1\n      dup4\n      gt\n      tag_373\n      jumpi\n      dup3\n      swap1\n      sub\n      0x1f\n      and\n      dup3\n      add\n      swap2\n    tag_371:\n      pop\n      pop\n      pop\n      pop\n      pop\n      swap2\n      pop\n      dup1\n      dup1\n      sload\n      tag_374\n      swap1\n      tag_364\n      jump\t// in\n    tag_374:\n      dup1\n      0x1f\n      add\n      0x20\n      dup1\n      swap2\n      div\n      mul\n      0x20\n      add\n      mload(0x40)\n      swap1\n      dup2\n      add\n      0x40\n      mstore\n      dup1\n      swap3\n      swap2\n      swap1\n      dup2\n      dup2\n      mstore\n      0x20\n      add\n      dup3\n      dup1\n      sload\n      tag_375\n      swap1\n      tag_364\n      jump\t// in\n    tag_375:\n      dup1\n      iszero\n      tag_376\n      jumpi\n      dup1\n      0x1f\n      lt\n      tag_377\n      jumpi\n      0x0100\n      dup1\n      dup4\n      sload\n      div\n      mul\n      dup4\n      mstore\n      swap2\n      0x20\n      add\n      swap2\n      jump(tag_376)\n    tag_377:\n      dup3\n      add\n      swap2\n      swap1\n      0x00\n      mstore\n      keccak256(0x00, 0x20)\n      swap1\n    tag_378:\n      dup2\n      sload\n      dup2\n      mstore\n      swap1\n      0x01\n      add\n      swap1\n      0x20\n      add\n      dup1\n      dup4\n      gt\n      tag_378\n      jumpi\n      dup3\n      swap1\n      sub\n      0x1f\n      and\n      dup3\n      add\n      swap2\n    tag_376:\n      pop\n      pop\n      pop\n      pop\n      pop\n      swap1\n      pop\n      swap6\n      pop\n      swap6\n      pop\n      swap6\n      pop\n      swap6\n      pop\n      swap6\n      pop\n      swap6\n      pop\n        /* \".deps/npm/@onchain-id/solidity/contracts/Identity.sol\":16194:16677  function getClaim(bytes32 _claimId)... */\n      swap2\n      swap4\n      swap6\n      pop\n      swap2\n      swap4\n      swap6\n      jump\t// out\n        /* \".deps/npm/@onchain-id/solidity/contracts/Identity.sol\":16825:17288  function keyHasPurpose(bytes32 _key, uint256 _purpose)... */\n    tag_109:\n        /* \".deps/npm/@onchain-id/solidity/contracts/Identity.sol\":16925:16936  bool result */\n      0x00\n        /* \".deps/npm/@onchain-id/solidity/contracts/Identity.sol\":16969:16980  _keys[_key] */\n      dup3\n      dup2\n      mstore\n        /* \".deps/npm/@onchain-id/solidity/contracts/Identity.sol\":16969:16974  _keys */\n      0x01\n        /* \".deps/npm/@onchain-id/solidity/contracts/Identity.sol\":16969:16980  _keys[_key] */\n      0x20\n      swap1\n      dup2\n      mstore\n      0x40\n      dup1\n      dup4\n      keccak256\n        /* \".deps/npm/@onchain-id/solidity/contracts/Identity.sol\":16952:16980  Key memory key = _keys[_key] */\n      dup2\n      mload\n      dup2\n      sload\n      0x80\n      swap5\n      dup2\n      mul\n      dup3\n      add\n      dup6\n      add\n      swap1\n      swap4\n      mstore\n      0x60\n      dup2\n      add\n      dup4\n      dup2\n      mstore\n        /* \".deps/npm/@onchain-id/solidity/contracts/Identity.sol\":16925:16936  bool result */\n      dup6\n      swap5\n        /* \".deps/npm/@onchain-id/solidity/contracts/Identity.sol\":16952:16980  Key memory key = _keys[_key] */\n      swap2\n      swap4\n      dup5\n      swap3\n        /* \".deps/npm/@onchain-id/solidity/contracts/Identity.sol\":16969:16980  _keys[_key] */\n      dup5\n      swap2\n        /* \".deps/npm/@onchain-id/solidity/contracts/Identity.sol\":16952:16980  Key memory key = _keys[_key] */\n      swap1\n      dup5\n      add\n        /* \".deps/npm/@onchain-id/solidity/contracts/Identity.sol\":16969:16980  _keys[_key] */\n      dup3\n        /* \".deps/npm/@onchain-id/solidity/contracts/Identity.sol\":16952:16980  Key memory key = _keys[_key] */\n      dup3\n      dup1\n      iszero\n      tag_380\n      jumpi\n      0x20\n      mul\n      dup3\n      add\n      swap2\n      swap1\n      0x00\n      mstore\n      keccak256(0x00, 0x20)\n      swap1\n    tag_381:\n      dup2\n      sload\n      dup2\n      mstore\n      0x20\n      add\n      swap1\n      0x01\n      add\n      swap1\n      dup1\n      dup4\n      gt\n      tag_381\n      jumpi\n    tag_380:\n      pop\n      pop\n      pop\n      swap2\n      dup4\n      mstore\n      pop\n      pop\n      0x01\n      dup3\n      add\n      sload\n      0x20\n      dup3\n      add\n      mstore\n      0x02\n      swap1\n      swap2\n      add\n      sload\n      0x40\n      swap2\n      dup3\n      add\n      mstore\n        /* \".deps/npm/@onchain-id/solidity/contracts/Identity.sol\":16994:17001  key.key */\n      dup2\n      add\n      mload\n        /* \".deps/npm/@onchain-id/solidity/contracts/Identity.sol\":16952:16980  Key memory key = _keys[_key] */\n      swap1\n      swap2\n      pop\n      0x00\n        /* \".deps/npm/@onchain-id/solidity/contracts/Identity.sol\":16994:17006  key.key == 0 */\n      sub\n        /* \".deps/npm/@onchain-id/solidity/contracts/Identity.sol\":16990:17020  if (key.key == 0) return false */\n      tag_382\n      jumpi\n        /* \".deps/npm/@onchain-id/solidity/contracts/Identity.sol\":17015:17020  false */\n      0x00\n        /* \".deps/npm/@onchain-id/solidity/contracts/Identity.sol\":17008:17020  return false */\n      swap2\n      pop\n      pop\n      jump(tag_200)\n        /* \".deps/npm/@onchain-id/solidity/contracts/Identity.sol\":16990:17020  if (key.key == 0) return false */\n    tag_382:\n        /* \".deps/npm/@onchain-id/solidity/contracts/Identity.sol\":17036:17056  uint keyPurposeIndex */\n      0x00\n        /* \".deps/npm/@onchain-id/solidity/contracts/Identity.sol\":17031:17259  for (uint keyPurposeIndex = 0; keyPurposeIndex < key.purposes.length; keyPurposeIndex++) {... */\n    tag_383:\n        /* \".deps/npm/@onchain-id/solidity/contracts/Identity.sol\":17080:17092  key.purposes */\n      dup2\n      mload\n        /* \".deps/npm/@onchain-id/solidity/contracts/Identity.sol\":17080:17099  key.purposes.length */\n      mload\n        /* \".deps/npm/@onchain-id/solidity/contracts/Identity.sol\":17062:17099  keyPurposeIndex < key.purposes.length */\n      dup2\n      lt\n        /* \".deps/npm/@onchain-id/solidity/contracts/Identity.sol\":17031:17259  for (uint keyPurposeIndex = 0; keyPurposeIndex < key.purposes.length; keyPurposeIndex++) {... */\n      iszero\n      tag_384\n      jumpi\n        /* \".deps/npm/@onchain-id/solidity/contracts/Identity.sol\":17134:17149  uint256 purpose */\n      0x00\n        /* \".deps/npm/@onchain-id/solidity/contracts/Identity.sol\":17152:17155  key */\n      dup3\n        /* \".deps/npm/@onchain-id/solidity/contracts/Identity.sol\":17152:17164  key.purposes */\n      0x00\n      add\n      mload\n        /* \".deps/npm/@onchain-id/solidity/contracts/Identity.sol\":17165:17180  keyPurposeIndex */\n      dup3\n        /* \".deps/npm/@onchain-id/solidity/contracts/Identity.sol\":17152:17181  key.purposes[keyPurposeIndex] */\n      dup2\n      mload\n      dup2\n      lt\n      tag_387\n      jumpi\n      tag_387\n      tag_140\n      jump\t// in\n    tag_387:\n      0x20\n      mul\n      0x20\n      add\n      add\n      mload\n        /* \".deps/npm/@onchain-id/solidity/contracts/Identity.sol\":17134:17181  uint256 purpose = key.purposes[keyPurposeIndex] */\n      swap1\n      pop\n        /* \".deps/npm/@onchain-id/solidity/contracts/Identity.sol\":17200:17207  purpose */\n      dup1\n        /* \".deps/npm/@onchain-id/solidity/contracts/Identity.sol\":17211:17212  1 */\n      0x01\n        /* \".deps/npm/@onchain-id/solidity/contracts/Identity.sol\":17200:17212  purpose == 1 */\n      eq\n        /* \".deps/npm/@onchain-id/solidity/contracts/Identity.sol\":17200:17235  purpose == 1 || purpose == _purpose */\n      dup1\n      tag_388\n      jumpi\n      pop\n        /* \".deps/npm/@onchain-id/solidity/contracts/Identity.sol\":17227:17235  _purpose */\n      dup5\n        /* \".deps/npm/@onchain-id/solidity/contracts/Identity.sol\":17216:17223  purpose */\n      dup2\n        /* \".deps/npm/@onchain-id/solidity/contracts/Identity.sol\":17216:17235  purpose == _purpose */\n      eq\n        /* \".deps/npm/@onchain-id/solidity/contracts/Identity.sol\":17200:17235  purpose == 1 || purpose == _purpose */\n    tag_388:\n        /* \".deps/npm/@onchain-id/solidity/contracts/Identity.sol\":17196:17248  if (purpose == 1 || purpose == _purpose) return true */\n      iszero\n      tag_389\n      jumpi\n        /* \".deps/npm/@onchain-id/solidity/contracts/Identity.sol\":17244:17248  true */\n      0x01\n        /* \".deps/npm/@onchain-id/solidity/contracts/Identity.sol\":17237:17248  return true */\n      swap4\n      pop\n      pop\n      pop\n      pop\n      jump(tag_200)\n        /* \".deps/npm/@onchain-id/solidity/contracts/Identity.sol\":17196:17248  if (purpose == 1 || purpose == _purpose) return true */\n    tag_389:\n      pop\n        /* \".deps/npm/@onchain-id/solidity/contracts/Identity.sol\":17101:17118  keyPurposeIndex++ */\n      dup1\n      tag_390\n      dup2\n      tag_145\n      jump\t// in\n    tag_390:\n      swap2\n      pop\n      pop\n        /* \".deps/npm/@onchain-id/solidity/contracts/Identity.sol\":17031:17259  for (uint keyPurposeIndex = 0; keyPurposeIndex < key.purposes.length; keyPurposeIndex++) {... */\n      jump(tag_383)\n    tag_384:\n      pop\n        /* \".deps/npm/@onchain-id/solidity/contracts/Identity.sol\":17276:17281  false */\n      0x00\n      swap5\n        /* \".deps/npm/@onchain-id/solidity/contracts/Identity.sol\":16825:17288  function keyHasPurpose(bytes32 _key, uint256 _purpose)... */\n      swap4\n      pop\n      pop\n      pop\n      pop\n      jump\t// out\n        /* \".deps/npm/@onchain-id/solidity/contracts/Identity.sol\":4761:4924  function getKeyPurposes(bytes32 _key)... */\n    tag_114:\n        /* \".deps/npm/@onchain-id/solidity/contracts/Identity.sol\":4896:4907  _keys[_key] */\n      0x00\n      dup2\n      dup2\n      mstore\n        /* \".deps/npm/@onchain-id/solidity/contracts/Identity.sol\":4896:4901  _keys */\n      0x01\n        /* \".deps/npm/@onchain-id/solidity/contracts/Identity.sol\":4896:4907  _keys[_key] */\n      0x20\n      swap1\n      dup2\n      mstore\n      0x40\n      swap2\n      dup3\n      swap1\n      keccak256\n        /* \".deps/npm/@onchain-id/solidity/contracts/Identity.sol\":4888:4917  return (_keys[_key].purposes) */\n      dup1\n      sload\n      dup4\n      mload\n      dup2\n      dup5\n      mul\n      dup2\n      add\n      dup5\n      add\n      swap1\n      swap5\n      mstore\n      dup1\n      dup5\n      mstore\n        /* \".deps/npm/@onchain-id/solidity/contracts/Identity.sol\":4846:4872  uint256[] memory _purposes */\n      0x60\n      swap4\n        /* \".deps/npm/@onchain-id/solidity/contracts/Identity.sol\":4888:4917  return (_keys[_key].purposes) */\n      swap3\n      dup4\n      add\n        /* \".deps/npm/@onchain-id/solidity/contracts/Identity.sol\":4896:4907  _keys[_key] */\n      dup3\n        /* \".deps/npm/@onchain-id/solidity/contracts/Identity.sol\":4888:4917  return (_keys[_key].purposes) */\n      dup3\n      dup1\n      iszero\n      tag_282\n      jumpi\n      0x20\n      mul\n      dup3\n      add\n      swap2\n      swap1\n      0x00\n      mstore\n      keccak256(0x00, 0x20)\n      swap1\n      dup2\n      sload\n      dup2\n      mstore\n      0x20\n      add\n      swap1\n      0x01\n      add\n      swap1\n      dup1\n      dup4\n      gt\n      tag_283\n      jumpi\n      pop\n      pop\n      pop\n      pop\n      pop\n      swap1\n      pop\n        /* \".deps/npm/@onchain-id/solidity/contracts/Identity.sol\":4761:4924  function getKeyPurposes(bytes32 _key)... */\n      swap2\n      swap1\n      pop\n      jump\t// out\n        /* \".deps/npm/@onchain-id/solidity/contracts/Identity.sol\":20021:20479  function __Identity_init(address initialManagementKey) internal {... */\n    tag_361:\n        /* \".deps/npm/@onchain-id/solidity/contracts/Identity.sol\":20104:20116  _initialized */\n      and(0xff, sload(0x06))\n        /* \".deps/npm/@onchain-id/solidity/contracts/Identity.sol\":20103:20116  !_initialized */\n      iszero\n      dup1\n        /* \".deps/npm/@onchain-id/solidity/contracts/Identity.sol\":20103:20136  !_initialized || _isConstructor() */\n      tag_396\n      jumpi\n      pop\n        /* \".deps/npm/@onchain-id/solidity/contracts/Identity.sol\":20744:20748  this */\n      address\n        /* \".deps/npm/@onchain-id/solidity/contracts/Identity.sol\":20852:20869  extcodesize(self) */\n      extcodesize\n        /* \".deps/npm/@onchain-id/solidity/contracts/Identity.sol\":20887:20894  cs == 0 */\n      iszero\n        /* \".deps/npm/@onchain-id/solidity/contracts/Identity.sol\":20120:20136  _isConstructor() */\n    tag_396:\n        /* \".deps/npm/@onchain-id/solidity/contracts/Identity.sol\":20095:20171  require(!_initialized || _isConstructor(), \"Initial key was already setup.\") */\n      tag_398\n      jumpi\n      mload(0x40)\n      shl(0xe5, 0x461bcd)\n      dup2\n      mstore\n        /* \"#utility.yul\":25260:25262   */\n      0x20\n        /* \".deps/npm/@onchain-id/solidity/contracts/Identity.sol\":20095:20171  require(!_initialized || _isConstructor(), \"Initial key was already setup.\") */\n      0x04\n      dup3\n      add\n        /* \"#utility.yul\":25242:25263   */\n      mstore\n        /* \"#utility.yul\":25299:25301   */\n      0x1e\n        /* \"#utility.yul\":25279:25297   */\n      0x24\n      dup3\n      add\n        /* \"#utility.yul\":25272:25302   */\n      mstore\n        /* \"#utility.yul\":25338:25370   */\n      0x496e697469616c206b65792077617320616c72656164792073657475702e0000\n        /* \"#utility.yul\":25318:25336   */\n      0x44\n      dup3\n      add\n        /* \"#utility.yul\":25311:25371   */\n      mstore\n        /* \"#utility.yul\":25388:25406   */\n      0x64\n      add\n        /* \".deps/npm/@onchain-id/solidity/contracts/Identity.sol\":20095:20171  require(!_initialized || _isConstructor(), \"Initial key was already setup.\") */\n      tag_122\n        /* \"#utility.yul\":25058:25412   */\n      jump\n        /* \".deps/npm/@onchain-id/solidity/contracts/Identity.sol\":20095:20171  require(!_initialized || _isConstructor(), \"Initial key was already setup.\") */\n    tag_398:\n        /* \".deps/npm/@onchain-id/solidity/contracts/Identity.sol\":20181:20193  _initialized */\n      0x06\n        /* \".deps/npm/@onchain-id/solidity/contracts/Identity.sol\":20181:20200  _initialized = true */\n      dup1\n      sload\n      not(0xffff)\n        /* \".deps/npm/@onchain-id/solidity/contracts/Identity.sol\":20210:20229  _canInteract = true */\n      and\n      0x0101\n      or\n      swap1\n      sstore\n        /* \".deps/npm/@onchain-id/solidity/contracts/Identity.sol\":20265:20297  abi.encode(initialManagementKey) */\n      0x40\n      dup1\n      mload\n      sub(shl(0xa0, 0x01), 0x01)\n        /* \"#utility.yul\":8215:8247   */\n      dup4\n      and\n        /* \".deps/npm/@onchain-id/solidity/contracts/Identity.sol\":20265:20297  abi.encode(initialManagementKey) */\n      0x20\n      dup3\n      add\n        /* \"#utility.yul\":8197:8248   */\n      mstore\n      0x00\n      swap2\n        /* \"#utility.yul\":8170:8188   */\n      add\n        /* \".deps/npm/@onchain-id/solidity/contracts/Identity.sol\":20265:20297  abi.encode(initialManagementKey) */\n      0x40\n      dup1\n      mload\n      not(0x1f)\n      dup2\n      dup5\n      sub\n      add\n      dup2\n      mstore\n      dup3\n      dup3\n      mstore\n        /* \".deps/npm/@onchain-id/solidity/contracts/Identity.sol\":20255:20298  keccak256(abi.encode(initialManagementKey)) */\n      dup1\n      mload\n        /* \".deps/npm/@onchain-id/solidity/contracts/Identity.sol\":20265:20297  abi.encode(initialManagementKey) */\n      0x20\n        /* \".deps/npm/@onchain-id/solidity/contracts/Identity.sol\":20255:20298  keccak256(abi.encode(initialManagementKey)) */\n      swap2\n      dup3\n      add\n      keccak256\n        /* \".deps/npm/@onchain-id/solidity/contracts/Identity.sol\":20308:20319  _keys[_key] */\n      0x00\n      dup2\n      dup2\n      mstore\n        /* \".deps/npm/@onchain-id/solidity/contracts/Identity.sol\":20308:20313  _keys */\n      0x01\n        /* \".deps/npm/@onchain-id/solidity/contracts/Identity.sol\":20308:20319  _keys[_key] */\n      dup1\n      dup5\n      mstore\n      dup5\n      dup3\n      keccak256\n        /* \".deps/npm/@onchain-id/solidity/contracts/Identity.sol\":20308:20323  _keys[_key].key */\n      0x02\n      dup2\n      add\n        /* \".deps/npm/@onchain-id/solidity/contracts/Identity.sol\":20308:20330  _keys[_key].key = _key */\n      dup5\n      swap1\n      sstore\n        /* \".deps/npm/@onchain-id/solidity/contracts/Identity.sol\":20340:20366  _keys[_key].purposes = [1] */\n      dup7\n      dup6\n      add\n      swap1\n      swap6\n      mstore\n      dup1\n      dup7\n      mstore\n        /* \".deps/npm/@onchain-id/solidity/contracts/Identity.sol\":20340:20351  _keys[_key] */\n      swap1\n      dup3\n      swap1\n      mstore\n      swap2\n      dup3\n      swap1\n      mstore\n        /* \".deps/npm/@onchain-id/solidity/contracts/Identity.sol\":20255:20298  keccak256(abi.encode(initialManagementKey)) */\n      swap4\n      pop\n        /* \".deps/npm/@onchain-id/solidity/contracts/Identity.sol\":20340:20366  _keys[_key].purposes = [1] */\n      tag_402\n      swap3\n        /* \".deps/npm/@onchain-id/solidity/contracts/Identity.sol\":20265:20297  abi.encode(initialManagementKey) */\n      swap1\n        /* \".deps/npm/@onchain-id/solidity/contracts/Identity.sol\":20340:20366  _keys[_key].purposes = [1] */\n      tag_403\n      jump\t// in\n    tag_402:\n      pop\n        /* \".deps/npm/@onchain-id/solidity/contracts/Identity.sol\":20376:20387  _keys[_key] */\n      0x00\n      dup2\n      dup2\n      mstore\n        /* \".deps/npm/@onchain-id/solidity/contracts/Identity.sol\":20398:20399  1 */\n      0x01\n        /* \".deps/npm/@onchain-id/solidity/contracts/Identity.sol\":20376:20387  _keys[_key] */\n      0x20\n      dup2\n      dup2\n      mstore\n      0x40\n      dup1\n      dup5\n      keccak256\n        /* \".deps/npm/@onchain-id/solidity/contracts/Identity.sol\":20376:20395  _keys[_key].keyType */\n      dup4\n      add\n        /* \".deps/npm/@onchain-id/solidity/contracts/Identity.sol\":20376:20399  _keys[_key].keyType = 1 */\n      dup4\n      swap1\n      sstore\n        /* \".deps/npm/@onchain-id/solidity/contracts/Identity.sol\":20409:20423  _keysByPurpose */\n      0x02\n        /* \".deps/npm/@onchain-id/solidity/contracts/Identity.sol\":20409:20426  _keysByPurpose[1] */\n      swap1\n      swap2\n      mstore\n      0xe90b7bceb6e7df5418fb78d8ee546e97c83a08bbccc01a0644d599ccd2a7c2e0\n        /* \".deps/npm/@onchain-id/solidity/contracts/Identity.sol\":20409:20437  _keysByPurpose[1].push(_key) */\n      dup1\n      sload\n      dup1\n      dup5\n      add\n      dup3\n      sstore\n      swap1\n      dup5\n      mstore\n      0x7fef4bf8f63cf9dd467136c679c02b5c17fcf6322d9562512bf5eb952cf7cc53\n      add\n      dup5\n      swap1\n      sstore\n        /* \".deps/npm/@onchain-id/solidity/contracts/Identity.sol\":20452:20472  KeyAdded(_key, 1, 1) */\n      mload\n        /* \".deps/npm/@onchain-id/solidity/contracts/Identity.sol\":20398:20399  1 */\n      swap1\n      swap2\n      dup3\n      swap2\n        /* \".deps/npm/@onchain-id/solidity/contracts/Identity.sol\":20382:20386  _key */\n      dup5\n      swap2\n        /* \".deps/npm/@onchain-id/solidity/contracts/Identity.sol\":20452:20472  KeyAdded(_key, 1, 1) */\n      0x480000bb1edad8ca1470381cc334b1917fbd51c6531f3a623ea8e0ec7e38a6e9\n      swap2\n      log4\n        /* \".deps/npm/@onchain-id/solidity/contracts/Identity.sol\":20085:20479  {... */\n      pop\n        /* \".deps/npm/@onchain-id/solidity/contracts/Identity.sol\":20021:20479  function __Identity_init(address initialManagementKey) internal {... */\n      pop\n      jump\t// out\n    tag_149:\n      dup3\n      dup1\n      sload\n      dup3\n      dup3\n      sstore\n      swap1\n      0x00\n      mstore\n      keccak256(0x00, 0x20)\n      swap1\n      dup2\n      add\n      swap3\n      dup3\n      iszero\n      tag_408\n      jumpi\n      swap2\n      0x20\n      mul\n      dup3\n      add\n    tag_407:\n      dup3\n      dup2\n      gt\n      iszero\n      tag_408\n      jumpi\n      dup3\n      mload\n      dup3\n      sstore\n      swap2\n      0x20\n      add\n      swap2\n      swap1\n      0x01\n      add\n      swap1\n      jump(tag_407)\n    tag_408:\n      pop\n      tag_409\n      swap3\n      swap2\n      pop\n      tag_410\n      jump\t// in\n    tag_409:\n      pop\n      swap1\n      jump\t// out\n    tag_187:\n      pop\n      dup1\n      sload\n      tag_411\n      swap1\n      tag_364\n      jump\t// in\n    tag_411:\n      0x00\n      dup3\n      sstore\n      dup1\n      0x1f\n      lt\n      tag_413\n      jumpi\n      pop\n      pop\n      jump\t// out\n    tag_413:\n      0x1f\n      add\n      0x20\n      swap1\n      div\n      swap1\n      0x00\n      mstore\n      keccak256(0x00, 0x20)\n      swap1\n      dup2\n      add\n      swap1\n      tag_360\n      swap2\n      swap1\n      tag_410\n      jump\t// in\n    tag_244:\n      pop\n      dup1\n      sload\n      0x00\n      dup3\n      sstore\n      swap1\n      0x00\n      mstore\n      keccak256(0x00, 0x20)\n      swap1\n      dup2\n      add\n      swap1\n      tag_360\n      swap2\n      swap1\n      tag_410\n      jump\t// in\n    tag_403:\n      dup3\n      dup1\n      sload\n      dup3\n      dup3\n      sstore\n      swap1\n      0x00\n      mstore\n      keccak256(0x00, 0x20)\n      swap1\n      dup2\n      add\n      swap3\n      dup3\n      iszero\n      tag_408\n      jumpi\n      swap2\n      0x20\n      mul\n      dup3\n      add\n    tag_426:\n      dup3\n      dup2\n      gt\n      iszero\n      tag_408\n      jumpi\n      dup3\n      mload\n      dup3\n      swap1\n      0xff\n      and\n      swap1\n      sstore\n      swap2\n      0x20\n      add\n      swap2\n      swap1\n      0x01\n      add\n      swap1\n      jump(tag_426)\n    tag_410:\n    tag_429:\n      dup1\n      dup3\n      gt\n      iszero\n      tag_409\n      jumpi\n      0x00\n      dup2\n      sstore\n      0x01\n      add\n      jump(tag_429)\n        /* \"#utility.yul\":14:194   */\n    tag_24:\n        /* \"#utility.yul\":73:79   */\n      0x00\n        /* \"#utility.yul\":126:128   */\n      0x20\n        /* \"#utility.yul\":114:123   */\n      dup3\n        /* \"#utility.yul\":105:112   */\n      dup5\n        /* \"#utility.yul\":101:124   */\n      sub\n        /* \"#utility.yul\":97:129   */\n      slt\n        /* \"#utility.yul\":94:146   */\n      iszero\n      tag_445\n      jumpi\n        /* \"#utility.yul\":142:143   */\n      0x00\n        /* \"#utility.yul\":139:140   */\n      dup1\n        /* \"#utility.yul\":132:144   */\n      revert\n        /* \"#utility.yul\":94:146   */\n    tag_445:\n      pop\n        /* \"#utility.yul\":165:188   */\n      calldataload\n      swap2\n        /* \"#utility.yul\":14:194   */\n      swap1\n      pop\n      jump\t// out\n        /* \"#utility.yul\":199:634   */\n    tag_431:\n        /* \"#utility.yul\":252:255   */\n      0x00\n        /* \"#utility.yul\":290:295   */\n      dup2\n        /* \"#utility.yul\":284:296   */\n      mload\n        /* \"#utility.yul\":317:323   */\n      dup1\n        /* \"#utility.yul\":312:315   */\n      dup5\n        /* \"#utility.yul\":305:324   */\n      mstore\n        /* \"#utility.yul\":343:347   */\n      0x20\n        /* \"#utility.yul\":372:374   */\n      dup1\n        /* \"#utility.yul\":367:370   */\n      dup6\n        /* \"#utility.yul\":363:375   */\n      add\n        /* \"#utility.yul\":356:375   */\n      swap5\n      pop\n        /* \"#utility.yul\":409:411   */\n      dup1\n        /* \"#utility.yul\":402:407   */\n      dup5\n        /* \"#utility.yul\":398:412   */\n      add\n        /* \"#utility.yul\":430:431   */\n      0x00\n        /* \"#utility.yul\":440:609   */\n    tag_447:\n        /* \"#utility.yul\":454:460   */\n      dup4\n        /* \"#utility.yul\":451:452   */\n      dup2\n        /* \"#utility.yul\":448:461   */\n      lt\n        /* \"#utility.yul\":440:609   */\n      iszero\n      tag_449\n      jumpi\n        /* \"#utility.yul\":515:528   */\n      dup2\n      mload\n        /* \"#utility.yul\":503:529   */\n      dup8\n      mstore\n        /* \"#utility.yul\":549:561   */\n      swap6\n      dup3\n      add\n      swap6\n        /* \"#utility.yul\":584:599   */\n      swap1\n      dup3\n      add\n      swap1\n        /* \"#utility.yul\":476:477   */\n      0x01\n        /* \"#utility.yul\":469:478   */\n      add\n        /* \"#utility.yul\":440:609   */\n      jump(tag_447)\n    tag_449:\n      pop\n        /* \"#utility.yul\":625:628   */\n      swap5\n      swap6\n        /* \"#utility.yul\":199:634   */\n      swap5\n      pop\n      pop\n      pop\n      pop\n      pop\n      jump\t// out\n        /* \"#utility.yul\":639:1042   */\n    tag_27:\n        /* \"#utility.yul\":874:876   */\n      0x60\n        /* \"#utility.yul\":863:872   */\n      dup2\n        /* \"#utility.yul\":856:877   */\n      mstore\n        /* \"#utility.yul\":837:841   */\n      0x00\n        /* \"#utility.yul\":894:950   */\n      tag_451\n        /* \"#utility.yul\":946:948   */\n      0x60\n        /* \"#utility.yul\":935:944   */\n      dup4\n        /* \"#utility.yul\":931:949   */\n      add\n        /* \"#utility.yul\":923:929   */\n      dup7\n        /* \"#utility.yul\":894:950   */\n      tag_431\n      jump\t// in\n    tag_451:\n        /* \"#utility.yul\":981:983   */\n      0x20\n        /* \"#utility.yul\":966:984   */\n      dup4\n      add\n        /* \"#utility.yul\":959:993   */\n      swap5\n      swap1\n      swap5\n      mstore\n      pop\n        /* \"#utility.yul\":1024:1026   */\n      0x40\n        /* \"#utility.yul\":1009:1027   */\n      add\n        /* \"#utility.yul\":1002:1036   */\n      mstore\n        /* \"#utility.yul\":886:950   */\n      swap2\n        /* \"#utility.yul\":639:1042   */\n      swap1\n      pop\n      jump\t// out\n        /* \"#utility.yul\":1047:1363   */\n    tag_31:\n        /* \"#utility.yul\":1124:1130   */\n      0x00\n        /* \"#utility.yul\":1132:1138   */\n      dup1\n        /* \"#utility.yul\":1140:1146   */\n      0x00\n        /* \"#utility.yul\":1193:1195   */\n      0x60\n        /* \"#utility.yul\":1181:1190   */\n      dup5\n        /* \"#utility.yul\":1172:1179   */\n      dup7\n        /* \"#utility.yul\":1168:1191   */\n      sub\n        /* \"#utility.yul\":1164:1196   */\n      slt\n        /* \"#utility.yul\":1161:1213   */\n      iszero\n      tag_453\n      jumpi\n        /* \"#utility.yul\":1209:1210   */\n      0x00\n        /* \"#utility.yul\":1206:1207   */\n      dup1\n        /* \"#utility.yul\":1199:1211   */\n      revert\n        /* \"#utility.yul\":1161:1213   */\n    tag_453:\n      pop\n      pop\n        /* \"#utility.yul\":1232:1255   */\n      dup2\n      calldataload\n      swap4\n        /* \"#utility.yul\":1302:1304   */\n      0x20\n        /* \"#utility.yul\":1287:1305   */\n      dup4\n      add\n        /* \"#utility.yul\":1274:1306   */\n      calldataload\n      swap4\n      pop\n        /* \"#utility.yul\":1353:1355   */\n      0x40\n        /* \"#utility.yul\":1338:1356   */\n      swap1\n      swap3\n      add\n        /* \"#utility.yul\":1325:1357   */\n      calldataload\n      swap2\n        /* \"#utility.yul\":1047:1363   */\n      swap1\n      pop\n      jump\t// out\n        /* \"#utility.yul\":1560:1808   */\n    tag_43:\n        /* \"#utility.yul\":1628:1634   */\n      0x00\n        /* \"#utility.yul\":1636:1642   */\n      dup1\n        /* \"#utility.yul\":1689:1691   */\n      0x40\n        /* \"#utility.yul\":1677:1686   */\n      dup4\n        /* \"#utility.yul\":1668:1675   */\n      dup6\n        /* \"#utility.yul\":1664:1687   */\n      sub\n        /* \"#utility.yul\":1660:1692   */\n      slt\n        /* \"#utility.yul\":1657:1709   */\n      iszero\n      tag_456\n      jumpi\n        /* \"#utility.yul\":1705:1706   */\n      0x00\n        /* \"#utility.yul\":1702:1703   */\n      dup1\n        /* \"#utility.yul\":1695:1707   */\n      revert\n        /* \"#utility.yul\":1657:1709   */\n    tag_456:\n      pop\n      pop\n        /* \"#utility.yul\":1728:1751   */\n      dup1\n      calldataload\n      swap3\n        /* \"#utility.yul\":1798:1800   */\n      0x20\n        /* \"#utility.yul\":1783:1801   */\n      swap1\n      swap2\n      add\n        /* \"#utility.yul\":1770:1802   */\n      calldataload\n      swap2\n      pop\n        /* \"#utility.yul\":1560:1808   */\n      jump\t// out\n        /* \"#utility.yul\":1813:2236   */\n    tag_432:\n        /* \"#utility.yul\":1855:1858   */\n      0x00\n        /* \"#utility.yul\":1893:1898   */\n      dup2\n        /* \"#utility.yul\":1887:1899   */\n      mload\n        /* \"#utility.yul\":1920:1926   */\n      dup1\n        /* \"#utility.yul\":1915:1918   */\n      dup5\n        /* \"#utility.yul\":1908:1927   */\n      mstore\n        /* \"#utility.yul\":1945:1946   */\n      0x00\n        /* \"#utility.yul\":1955:2117   */\n    tag_458:\n        /* \"#utility.yul\":1969:1975   */\n      dup2\n        /* \"#utility.yul\":1966:1967   */\n      dup2\n        /* \"#utility.yul\":1963:1976   */\n      lt\n        /* \"#utility.yul\":1955:2117   */\n      iszero\n      tag_460\n      jumpi\n        /* \"#utility.yul\":2031:2035   */\n      0x20\n        /* \"#utility.yul\":2087:2100   */\n      dup2\n      dup6\n      add\n        /* \"#utility.yul\":2083:2105   */\n      dup2\n      add\n        /* \"#utility.yul\":2077:2106   */\n      mload\n        /* \"#utility.yul\":2059:2070   */\n      dup7\n      dup4\n      add\n        /* \"#utility.yul\":2055:2075   */\n      dup3\n      add\n        /* \"#utility.yul\":2048:2107   */\n      mstore\n        /* \"#utility.yul\":1984:1996   */\n      add\n        /* \"#utility.yul\":1955:2117   */\n      jump(tag_458)\n    tag_460:\n        /* \"#utility.yul\":1959:1962   */\n      pop\n        /* \"#utility.yul\":2162:2163   */\n      0x00\n        /* \"#utility.yul\":2155:2159   */\n      0x20\n        /* \"#utility.yul\":2146:2152   */\n      dup3\n        /* \"#utility.yul\":2141:2144   */\n      dup7\n        /* \"#utility.yul\":2137:2153   */\n      add\n        /* \"#utility.yul\":2133:2160   */\n      add\n        /* \"#utility.yul\":2126:2164   */\n      mstore\n        /* \"#utility.yul\":2225:2229   */\n      0x20\n        /* \"#utility.yul\":2218:2220   */\n      0x1f\n        /* \"#utility.yul\":2214:2221   */\n      not\n        /* \"#utility.yul\":2209:2211   */\n      0x1f\n        /* \"#utility.yul\":2201:2207   */\n      dup4\n        /* \"#utility.yul\":2197:2212   */\n      add\n        /* \"#utility.yul\":2193:2222   */\n      and\n        /* \"#utility.yul\":2188:2191   */\n      dup6\n        /* \"#utility.yul\":2184:2223   */\n      add\n        /* \"#utility.yul\":2180:2230   */\n      add\n        /* \"#utility.yul\":2173:2230   */\n      swap2\n      pop\n      pop\n        /* \"#utility.yul\":1813:2236   */\n      swap3\n      swap2\n      pop\n      pop\n      jump\t// out\n        /* \"#utility.yul\":2241:2461   */\n    tag_50:\n        /* \"#utility.yul\":2390:2392   */\n      0x20\n        /* \"#utility.yul\":2379:2388   */\n      dup2\n        /* \"#utility.yul\":2372:2393   */\n      mstore\n        /* \"#utility.yul\":2353:2357   */\n      0x00\n        /* \"#utility.yul\":2410:2455   */\n      tag_462\n        /* \"#utility.yul\":2451:2453   */\n      0x20\n        /* \"#utility.yul\":2440:2449   */\n      dup4\n        /* \"#utility.yul\":2436:2454   */\n      add\n        /* \"#utility.yul\":2428:2434   */\n      dup5\n        /* \"#utility.yul\":2410:2455   */\n      tag_432\n      jump\t// in\n    tag_462:\n        /* \"#utility.yul\":2402:2455   */\n      swap4\n        /* \"#utility.yul\":2241:2461   */\n      swap3\n      pop\n      pop\n      pop\n      jump\t// out\n        /* \"#utility.yul\":2466:2584   */\n    tag_433:\n        /* \"#utility.yul\":2552:2557   */\n      dup1\n        /* \"#utility.yul\":2545:2558   */\n      iszero\n        /* \"#utility.yul\":2538:2559   */\n      iszero\n        /* \"#utility.yul\":2531:2536   */\n      dup2\n        /* \"#utility.yul\":2528:2560   */\n      eq\n        /* \"#utility.yul\":2518:2578   */\n      tag_360\n      jumpi\n        /* \"#utility.yul\":2574:2575   */\n      0x00\n        /* \"#utility.yul\":2571:2572   */\n      dup1\n        /* \"#utility.yul\":2564:2576   */\n      revert\n        /* \"#utility.yul\":2589:2898   */\n    tag_54:\n        /* \"#utility.yul\":2654:2660   */\n      0x00\n        /* \"#utility.yul\":2662:2668   */\n      dup1\n        /* \"#utility.yul\":2715:2717   */\n      0x40\n        /* \"#utility.yul\":2703:2712   */\n      dup4\n        /* \"#utility.yul\":2694:2701   */\n      dup6\n        /* \"#utility.yul\":2690:2713   */\n      sub\n        /* \"#utility.yul\":2686:2718   */\n      slt\n        /* \"#utility.yul\":2683:2735   */\n      iszero\n      tag_466\n      jumpi\n        /* \"#utility.yul\":2731:2732   */\n      0x00\n        /* \"#utility.yul\":2728:2729   */\n      dup1\n        /* \"#utility.yul\":2721:2733   */\n      revert\n        /* \"#utility.yul\":2683:2735   */\n    tag_466:\n        /* \"#utility.yul\":2767:2776   */\n      dup3\n        /* \"#utility.yul\":2754:2777   */\n      calldataload\n        /* \"#utility.yul\":2744:2777   */\n      swap2\n      pop\n        /* \"#utility.yul\":2827:2829   */\n      0x20\n        /* \"#utility.yul\":2816:2825   */\n      dup4\n        /* \"#utility.yul\":2812:2830   */\n      add\n        /* \"#utility.yul\":2799:2831   */\n      calldataload\n        /* \"#utility.yul\":2840:2868   */\n      tag_467\n        /* \"#utility.yul\":2862:2867   */\n      dup2\n        /* \"#utility.yul\":2840:2868   */\n      tag_433\n      jump\t// in\n    tag_467:\n        /* \"#utility.yul\":2887:2892   */\n      dup1\n        /* \"#utility.yul\":2877:2892   */\n      swap2\n      pop\n      pop\n        /* \"#utility.yul\":2589:2898   */\n      swap3\n      pop\n      swap3\n      swap1\n      pop\n      jump\t// out\n        /* \"#utility.yul\":3088:3720   */\n    tag_63:\n        /* \"#utility.yul\":3259:3261   */\n      0x20\n        /* \"#utility.yul\":3311:3332   */\n      dup1\n      dup3\n      mstore\n        /* \"#utility.yul\":3381:3394   */\n      dup3\n      mload\n        /* \"#utility.yul\":3284:3302   */\n      dup3\n      dup3\n      add\n        /* \"#utility.yul\":3403:3425   */\n      dup2\n      swap1\n      mstore\n        /* \"#utility.yul\":3230:3234   */\n      0x00\n      swap2\n        /* \"#utility.yul\":3259:3261   */\n      swap1\n        /* \"#utility.yul\":3482:3497   */\n      dup5\n      dup3\n      add\n      swap1\n        /* \"#utility.yul\":3456:3458   */\n      0x40\n        /* \"#utility.yul\":3441:3459   */\n      dup6\n      add\n      swap1\n        /* \"#utility.yul\":3230:3234   */\n      dup5\n        /* \"#utility.yul\":3525:3694   */\n    tag_471:\n        /* \"#utility.yul\":3539:3545   */\n      dup2\n        /* \"#utility.yul\":3536:3537   */\n      dup2\n        /* \"#utility.yul\":3533:3546   */\n      lt\n        /* \"#utility.yul\":3525:3694   */\n      iszero\n      tag_473\n      jumpi\n        /* \"#utility.yul\":3600:3613   */\n      dup4\n      mload\n        /* \"#utility.yul\":3588:3614   */\n      dup4\n      mstore\n        /* \"#utility.yul\":3669:3684   */\n      swap3\n      dup5\n      add\n      swap3\n        /* \"#utility.yul\":3634:3646   */\n      swap2\n      dup5\n      add\n      swap2\n        /* \"#utility.yul\":3561:3562   */\n      0x01\n        /* \"#utility.yul\":3554:3563   */\n      add\n        /* \"#utility.yul\":3525:3694   */\n      jump(tag_471)\n    tag_473:\n      pop\n        /* \"#utility.yul\":3711:3714   */\n      swap1\n      swap7\n        /* \"#utility.yul\":3088:3720   */\n      swap6\n      pop\n      pop\n      pop\n      pop\n      pop\n      pop\n      jump\t// out\n        /* \"#utility.yul\":3725:3856   */\n    tag_434:\n      sub(shl(0xa0, 0x01), 0x01)\n        /* \"#utility.yul\":3800:3831   */\n      dup2\n      and\n        /* \"#utility.yul\":3790:3832   */\n      dup2\n      eq\n        /* \"#utility.yul\":3780:3850   */\n      tag_360\n      jumpi\n        /* \"#utility.yul\":3846:3847   */\n      0x00\n        /* \"#utility.yul\":3843:3844   */\n      dup1\n        /* \"#utility.yul\":3836:3848   */\n      revert\n        /* \"#utility.yul\":3861:3988   */\n    tag_435:\n        /* \"#utility.yul\":3922:3932   */\n      0x4e487b71\n        /* \"#utility.yul\":3917:3920   */\n      0xe0\n        /* \"#utility.yul\":3913:3933   */\n      shl\n        /* \"#utility.yul\":3910:3911   */\n      0x00\n        /* \"#utility.yul\":3903:3934   */\n      mstore\n        /* \"#utility.yul\":3953:3957   */\n      0x41\n        /* \"#utility.yul\":3950:3951   */\n      0x04\n        /* \"#utility.yul\":3943:3958   */\n      mstore\n        /* \"#utility.yul\":3977:3981   */\n      0x24\n        /* \"#utility.yul\":3974:3975   */\n      0x00\n        /* \"#utility.yul\":3967:3982   */\n      revert\n        /* \"#utility.yul\":3993:4624   */\n    tag_436:\n        /* \"#utility.yul\":4057:4062   */\n      0x00\n        /* \"#utility.yul\":4087:4105   */\n      0xffffffffffffffff\n        /* \"#utility.yul\":4128:4130   */\n      dup1\n        /* \"#utility.yul\":4120:4126   */\n      dup5\n        /* \"#utility.yul\":4117:4131   */\n      gt\n        /* \"#utility.yul\":4114:4154   */\n      iszero\n      tag_479\n      jumpi\n        /* \"#utility.yul\":4134:4152   */\n      tag_479\n      tag_435\n      jump\t// in\n    tag_479:\n        /* \"#utility.yul\":4209:4211   */\n      0x40\n        /* \"#utility.yul\":4203:4212   */\n      mload\n        /* \"#utility.yul\":4177:4179   */\n      0x1f\n        /* \"#utility.yul\":4263:4278   */\n      dup6\n      add\n      not(0x1f)\n        /* \"#utility.yul\":4259:4283   */\n      swap1\n      dup2\n      and\n        /* \"#utility.yul\":4285:4287   */\n      0x3f\n        /* \"#utility.yul\":4255:4288   */\n      add\n        /* \"#utility.yul\":4251:4293   */\n      and\n        /* \"#utility.yul\":4239:4294   */\n      dup2\n      add\n      swap1\n        /* \"#utility.yul\":4309:4327   */\n      dup3\n      dup3\n      gt\n        /* \"#utility.yul\":4329:4351   */\n      dup2\n      dup4\n      lt\n        /* \"#utility.yul\":4306:4352   */\n      or\n        /* \"#utility.yul\":4303:4375   */\n      iszero\n      tag_481\n      jumpi\n        /* \"#utility.yul\":4355:4373   */\n      tag_481\n      tag_435\n      jump\t// in\n    tag_481:\n        /* \"#utility.yul\":4395:4405   */\n      dup2\n        /* \"#utility.yul\":4391:4393   */\n      0x40\n        /* \"#utility.yul\":4384:4406   */\n      mstore\n        /* \"#utility.yul\":4424:4430   */\n      dup1\n        /* \"#utility.yul\":4415:4430   */\n      swap4\n      pop\n        /* \"#utility.yul\":4454:4460   */\n      dup6\n        /* \"#utility.yul\":4446:4452   */\n      dup2\n        /* \"#utility.yul\":4439:4461   */\n      mstore\n        /* \"#utility.yul\":4494:4497   */\n      dup7\n        /* \"#utility.yul\":4485:4491   */\n      dup7\n        /* \"#utility.yul\":4480:4483   */\n      dup7\n        /* \"#utility.yul\":4476:4492   */\n      add\n        /* \"#utility.yul\":4473:4498   */\n      gt\n        /* \"#utility.yul\":4470:4515   */\n      iszero\n      tag_482\n      jumpi\n        /* \"#utility.yul\":4511:4512   */\n      0x00\n        /* \"#utility.yul\":4508:4509   */\n      dup1\n        /* \"#utility.yul\":4501:4513   */\n      revert\n        /* \"#utility.yul\":4470:4515   */\n    tag_482:\n        /* \"#utility.yul\":4561:4567   */\n      dup6\n        /* \"#utility.yul\":4556:4559   */\n      dup6\n        /* \"#utility.yul\":4549:4553   */\n      0x20\n        /* \"#utility.yul\":4541:4547   */\n      dup4\n        /* \"#utility.yul\":4537:4554   */\n      add\n        /* \"#utility.yul\":4524:4568   */\n      calldatacopy\n        /* \"#utility.yul\":4616:4617   */\n      0x00\n        /* \"#utility.yul\":4609:4613   */\n      0x20\n        /* \"#utility.yul\":4600:4606   */\n      dup8\n        /* \"#utility.yul\":4592:4598   */\n      dup4\n        /* \"#utility.yul\":4588:4607   */\n      add\n        /* \"#utility.yul\":4584:4614   */\n      add\n        /* \"#utility.yul\":4577:4618   */\n      mstore\n      pop\n      pop\n      pop\n        /* \"#utility.yul\":3993:4624   */\n      swap4\n      swap3\n      pop\n      pop\n      pop\n      jump\t// out\n        /* \"#utility.yul\":4629:4849   */\n    tag_437:\n        /* \"#utility.yul\":4671:4676   */\n      0x00\n        /* \"#utility.yul\":4724:4727   */\n      dup3\n        /* \"#utility.yul\":4717:4721   */\n      0x1f\n        /* \"#utility.yul\":4709:4715   */\n      dup4\n        /* \"#utility.yul\":4705:4722   */\n      add\n        /* \"#utility.yul\":4701:4728   */\n      slt\n        /* \"#utility.yul\":4691:4746   */\n      tag_484\n      jumpi\n        /* \"#utility.yul\":4742:4743   */\n      0x00\n        /* \"#utility.yul\":4739:4740   */\n      dup1\n        /* \"#utility.yul\":4732:4744   */\n      revert\n        /* \"#utility.yul\":4691:4746   */\n    tag_484:\n        /* \"#utility.yul\":4764:4843   */\n      tag_462\n        /* \"#utility.yul\":4839:4842   */\n      dup4\n        /* \"#utility.yul\":4830:4836   */\n      dup4\n        /* \"#utility.yul\":4817:4837   */\n      calldataload\n        /* \"#utility.yul\":4810:4814   */\n      0x20\n        /* \"#utility.yul\":4802:4808   */\n      dup6\n        /* \"#utility.yul\":4798:4815   */\n      add\n        /* \"#utility.yul\":4764:4843   */\n      tag_436\n      jump\t// in\n        /* \"#utility.yul\":4854:5995   */\n    tag_72:\n        /* \"#utility.yul\":4986:4992   */\n      0x00\n        /* \"#utility.yul\":4994:5000   */\n      dup1\n        /* \"#utility.yul\":5002:5008   */\n      0x00\n        /* \"#utility.yul\":5010:5016   */\n      dup1\n        /* \"#utility.yul\":5018:5024   */\n      0x00\n        /* \"#utility.yul\":5026:5032   */\n      dup1\n        /* \"#utility.yul\":5079:5082   */\n      0xc0\n        /* \"#utility.yul\":5067:5076   */\n      dup8\n        /* \"#utility.yul\":5058:5065   */\n      dup10\n        /* \"#utility.yul\":5054:5077   */\n      sub\n        /* \"#utility.yul\":5050:5083   */\n      slt\n        /* \"#utility.yul\":5047:5100   */\n      iszero\n      tag_487\n      jumpi\n        /* \"#utility.yul\":5096:5097   */\n      0x00\n        /* \"#utility.yul\":5093:5094   */\n      dup1\n        /* \"#utility.yul\":5086:5098   */\n      revert\n        /* \"#utility.yul\":5047:5100   */\n    tag_487:\n        /* \"#utility.yul\":5132:5141   */\n      dup7\n        /* \"#utility.yul\":5119:5142   */\n      calldataload\n        /* \"#utility.yul\":5109:5142   */\n      swap6\n      pop\n        /* \"#utility.yul\":5189:5191   */\n      0x20\n        /* \"#utility.yul\":5178:5187   */\n      dup8\n        /* \"#utility.yul\":5174:5192   */\n      add\n        /* \"#utility.yul\":5161:5193   */\n      calldataload\n        /* \"#utility.yul\":5151:5193   */\n      swap5\n      pop\n        /* \"#utility.yul\":5243:5245   */\n      0x40\n        /* \"#utility.yul\":5232:5241   */\n      dup8\n        /* \"#utility.yul\":5228:5246   */\n      add\n        /* \"#utility.yul\":5215:5247   */\n      calldataload\n        /* \"#utility.yul\":5256:5287   */\n      tag_488\n        /* \"#utility.yul\":5281:5286   */\n      dup2\n        /* \"#utility.yul\":5256:5287   */\n      tag_434\n      jump\t// in\n    tag_488:\n        /* \"#utility.yul\":5306:5311   */\n      swap4\n      pop\n        /* \"#utility.yul\":5362:5364   */\n      0x60\n        /* \"#utility.yul\":5347:5365   */\n      dup8\n      add\n        /* \"#utility.yul\":5334:5366   */\n      calldataload\n        /* \"#utility.yul\":5385:5403   */\n      0xffffffffffffffff\n        /* \"#utility.yul\":5415:5429   */\n      dup1\n      dup3\n      gt\n        /* \"#utility.yul\":5412:5446   */\n      iszero\n      tag_489\n      jumpi\n        /* \"#utility.yul\":5442:5443   */\n      0x00\n        /* \"#utility.yul\":5439:5440   */\n      dup1\n        /* \"#utility.yul\":5432:5444   */\n      revert\n        /* \"#utility.yul\":5412:5446   */\n    tag_489:\n        /* \"#utility.yul\":5465:5514   */\n      tag_490\n        /* \"#utility.yul\":5506:5513   */\n      dup11\n        /* \"#utility.yul\":5497:5503   */\n      dup4\n        /* \"#utility.yul\":5486:5495   */\n      dup12\n        /* \"#utility.yul\":5482:5504   */\n      add\n        /* \"#utility.yul\":5465:5514   */\n      tag_437\n      jump\t// in\n    tag_490:\n        /* \"#utility.yul\":5455:5514   */\n      swap5\n      pop\n        /* \"#utility.yul\":5567:5570   */\n      0x80\n        /* \"#utility.yul\":5556:5565   */\n      dup10\n        /* \"#utility.yul\":5552:5571   */\n      add\n        /* \"#utility.yul\":5539:5572   */\n      calldataload\n        /* \"#utility.yul\":5523:5572   */\n      swap2\n      pop\n        /* \"#utility.yul\":5597:5599   */\n      dup1\n        /* \"#utility.yul\":5587:5595   */\n      dup3\n        /* \"#utility.yul\":5584:5600   */\n      gt\n        /* \"#utility.yul\":5581:5617   */\n      iszero\n      tag_491\n      jumpi\n        /* \"#utility.yul\":5613:5614   */\n      0x00\n        /* \"#utility.yul\":5610:5611   */\n      dup1\n        /* \"#utility.yul\":5603:5615   */\n      revert\n        /* \"#utility.yul\":5581:5617   */\n    tag_491:\n        /* \"#utility.yul\":5636:5687   */\n      tag_492\n        /* \"#utility.yul\":5679:5686   */\n      dup11\n        /* \"#utility.yul\":5668:5676   */\n      dup4\n        /* \"#utility.yul\":5657:5666   */\n      dup12\n        /* \"#utility.yul\":5653:5677   */\n      add\n        /* \"#utility.yul\":5636:5687   */\n      tag_437\n      jump\t// in\n    tag_492:\n        /* \"#utility.yul\":5626:5687   */\n      swap4\n      pop\n        /* \"#utility.yul\":5740:5743   */\n      0xa0\n        /* \"#utility.yul\":5729:5738   */\n      dup10\n        /* \"#utility.yul\":5725:5744   */\n      add\n        /* \"#utility.yul\":5712:5745   */\n      calldataload\n        /* \"#utility.yul\":5696:5745   */\n      swap2\n      pop\n        /* \"#utility.yul\":5770:5772   */\n      dup1\n        /* \"#utility.yul\":5760:5768   */\n      dup3\n        /* \"#utility.yul\":5757:5773   */\n      gt\n        /* \"#utility.yul\":5754:5790   */\n      iszero\n      tag_493\n      jumpi\n        /* \"#utility.yul\":5786:5787   */\n      0x00\n        /* \"#utility.yul\":5783:5784   */\n      dup1\n        /* \"#utility.yul\":5776:5788   */\n      revert\n        /* \"#utility.yul\":5754:5790   */\n    tag_493:\n      pop\n        /* \"#utility.yul\":5809:5833   */\n      dup8\n      add\n        /* \"#utility.yul\":5864:5868   */\n      0x1f\n        /* \"#utility.yul\":5856:5869   */\n      dup2\n      add\n        /* \"#utility.yul\":5852:5879   */\n      dup10\n      sgt\n        /* \"#utility.yul\":5842:5897   */\n      tag_494\n      jumpi\n        /* \"#utility.yul\":5893:5894   */\n      0x00\n        /* \"#utility.yul\":5890:5891   */\n      dup1\n        /* \"#utility.yul\":5883:5895   */\n      revert\n        /* \"#utility.yul\":5842:5897   */\n    tag_494:\n        /* \"#utility.yul\":5916:5989   */\n      tag_495\n        /* \"#utility.yul\":5981:5988   */\n      dup10\n        /* \"#utility.yul\":5976:5978   */\n      dup3\n        /* \"#utility.yul\":5963:5979   */\n      calldataload\n        /* \"#utility.yul\":5958:5960   */\n      0x20\n        /* \"#utility.yul\":5954:5956   */\n      dup5\n        /* \"#utility.yul\":5950:5961   */\n      add\n        /* \"#utility.yul\":5916:5989   */\n      tag_436\n      jump\t// in\n    tag_495:\n        /* \"#utility.yul\":5906:5989   */\n      swap2\n      pop\n      pop\n        /* \"#utility.yul\":4854:5995   */\n      swap3\n      swap6\n      pop\n      swap3\n      swap6\n      pop\n      swap3\n      swap6\n      jump\t// out\n        /* \"#utility.yul\":6182:6705   */\n    tag_78:\n        /* \"#utility.yul\":6268:6274   */\n      0x00\n        /* \"#utility.yul\":6276:6282   */\n      dup1\n        /* \"#utility.yul\":6284:6290   */\n      0x00\n        /* \"#utility.yul\":6337:6339   */\n      0x60\n        /* \"#utility.yul\":6325:6334   */\n      dup5\n        /* \"#utility.yul\":6316:6323   */\n      dup7\n        /* \"#utility.yul\":6312:6335   */\n      sub\n        /* \"#utility.yul\":6308:6340   */\n      slt\n        /* \"#utility.yul\":6305:6357   */\n      iszero\n      tag_498\n      jumpi\n        /* \"#utility.yul\":6353:6354   */\n      0x00\n        /* \"#utility.yul\":6350:6351   */\n      dup1\n        /* \"#utility.yul\":6343:6355   */\n      revert\n        /* \"#utility.yul\":6305:6357   */\n    tag_498:\n        /* \"#utility.yul\":6392:6401   */\n      dup4\n        /* \"#utility.yul\":6379:6402   */\n      calldataload\n        /* \"#utility.yul\":6411:6442   */\n      tag_499\n        /* \"#utility.yul\":6436:6441   */\n      dup2\n        /* \"#utility.yul\":6411:6442   */\n      tag_434\n      jump\t// in\n    tag_499:\n        /* \"#utility.yul\":6461:6466   */\n      swap3\n      pop\n        /* \"#utility.yul\":6513:6515   */\n      0x20\n        /* \"#utility.yul\":6498:6516   */\n      dup5\n      add\n        /* \"#utility.yul\":6485:6517   */\n      calldataload\n      swap2\n      pop\n        /* \"#utility.yul\":6568:6570   */\n      0x40\n        /* \"#utility.yul\":6553:6571   */\n      dup5\n      add\n        /* \"#utility.yul\":6540:6572   */\n      calldataload\n        /* \"#utility.yul\":6595:6613   */\n      0xffffffffffffffff\n        /* \"#utility.yul\":6584:6614   */\n      dup2\n      gt\n        /* \"#utility.yul\":6581:6631   */\n      iszero\n      tag_500\n      jumpi\n        /* \"#utility.yul\":6627:6628   */\n      0x00\n        /* \"#utility.yul\":6624:6625   */\n      dup1\n        /* \"#utility.yul\":6617:6629   */\n      revert\n        /* \"#utility.yul\":6581:6631   */\n    tag_500:\n        /* \"#utility.yul\":6650:6699   */\n      tag_501\n        /* \"#utility.yul\":6691:6698   */\n      dup7\n        /* \"#utility.yul\":6682:6688   */\n      dup3\n        /* \"#utility.yul\":6671:6680   */\n      dup8\n        /* \"#utility.yul\":6667:6689   */\n      add\n        /* \"#utility.yul\":6650:6699   */\n      tag_437\n      jump\t// in\n    tag_501:\n        /* \"#utility.yul\":6640:6699   */\n      swap2\n      pop\n      pop\n        /* \"#utility.yul\":6182:6705   */\n      swap3\n      pop\n      swap3\n      pop\n      swap3\n      jump\t// out\n        /* \"#utility.yul\":6892:7653   */\n    tag_85:\n        /* \"#utility.yul\":7014:7020   */\n      0x00\n        /* \"#utility.yul\":7022:7028   */\n      dup1\n        /* \"#utility.yul\":7030:7036   */\n      0x00\n        /* \"#utility.yul\":7038:7044   */\n      dup1\n        /* \"#utility.yul\":7091:7094   */\n      0x80\n        /* \"#utility.yul\":7079:7088   */\n      dup6\n        /* \"#utility.yul\":7070:7077   */\n      dup8\n        /* \"#utility.yul\":7066:7089   */\n      sub\n        /* \"#utility.yul\":7062:7095   */\n      slt\n        /* \"#utility.yul\":7059:7112   */\n      iszero\n      tag_504\n      jumpi\n        /* \"#utility.yul\":7108:7109   */\n      0x00\n        /* \"#utility.yul\":7105:7106   */\n      dup1\n        /* \"#utility.yul\":7098:7110   */\n      revert\n        /* \"#utility.yul\":7059:7112   */\n    tag_504:\n        /* \"#utility.yul\":7147:7156   */\n      dup5\n        /* \"#utility.yul\":7134:7157   */\n      calldataload\n        /* \"#utility.yul\":7166:7197   */\n      tag_505\n        /* \"#utility.yul\":7191:7196   */\n      dup2\n        /* \"#utility.yul\":7166:7197   */\n      tag_434\n      jump\t// in\n    tag_505:\n        /* \"#utility.yul\":7216:7221   */\n      swap4\n      pop\n        /* \"#utility.yul\":7268:7270   */\n      0x20\n        /* \"#utility.yul\":7253:7271   */\n      dup6\n      add\n        /* \"#utility.yul\":7240:7272   */\n      calldataload\n      swap3\n      pop\n        /* \"#utility.yul\":7323:7325   */\n      0x40\n        /* \"#utility.yul\":7308:7326   */\n      dup6\n      add\n        /* \"#utility.yul\":7295:7327   */\n      calldataload\n        /* \"#utility.yul\":7346:7364   */\n      0xffffffffffffffff\n        /* \"#utility.yul\":7376:7390   */\n      dup1\n      dup3\n      gt\n        /* \"#utility.yul\":7373:7407   */\n      iszero\n      tag_506\n      jumpi\n        /* \"#utility.yul\":7403:7404   */\n      0x00\n        /* \"#utility.yul\":7400:7401   */\n      dup1\n        /* \"#utility.yul\":7393:7405   */\n      revert\n        /* \"#utility.yul\":7373:7407   */\n    tag_506:\n        /* \"#utility.yul\":7426:7475   */\n      tag_507\n        /* \"#utility.yul\":7467:7474   */\n      dup9\n        /* \"#utility.yul\":7458:7464   */\n      dup4\n        /* \"#utility.yul\":7447:7456   */\n      dup10\n        /* \"#utility.yul\":7443:7465   */\n      add\n        /* \"#utility.yul\":7426:7475   */\n      tag_437\n      jump\t// in\n    tag_507:\n        /* \"#utility.yul\":7416:7475   */\n      swap4\n      pop\n        /* \"#utility.yul\":7528:7530   */\n      0x60\n        /* \"#utility.yul\":7517:7526   */\n      dup8\n        /* \"#utility.yul\":7513:7531   */\n      add\n        /* \"#utility.yul\":7500:7532   */\n      calldataload\n        /* \"#utility.yul\":7484:7532   */\n      swap2\n      pop\n        /* \"#utility.yul\":7557:7559   */\n      dup1\n        /* \"#utility.yul\":7547:7555   */\n      dup3\n        /* \"#utility.yul\":7544:7560   */\n      gt\n        /* \"#utility.yul\":7541:7577   */\n      iszero\n      tag_508\n      jumpi\n        /* \"#utility.yul\":7573:7574   */\n      0x00\n        /* \"#utility.yul\":7570:7571   */\n      dup1\n        /* \"#utility.yul\":7563:7575   */\n      revert\n        /* \"#utility.yul\":7541:7577   */\n    tag_508:\n      pop\n        /* \"#utility.yul\":7596:7647   */\n      tag_509\n        /* \"#utility.yul\":7639:7646   */\n      dup8\n        /* \"#utility.yul\":7628:7636   */\n      dup3\n        /* \"#utility.yul\":7617:7626   */\n      dup9\n        /* \"#utility.yul\":7613:7637   */\n      add\n        /* \"#utility.yul\":7596:7647   */\n      tag_437\n      jump\t// in\n    tag_509:\n        /* \"#utility.yul\":7586:7647   */\n      swap2\n      pop\n      pop\n        /* \"#utility.yul\":6892:7653   */\n      swap3\n      swap6\n      swap2\n      swap5\n      pop\n      swap3\n      pop\n      jump\t// out\n        /* \"#utility.yul\":7658:8046   */\n    tag_91:\n        /* \"#utility.yul\":7735:7741   */\n      0x00\n        /* \"#utility.yul\":7743:7749   */\n      dup1\n        /* \"#utility.yul\":7796:7798   */\n      0x40\n        /* \"#utility.yul\":7784:7793   */\n      dup4\n        /* \"#utility.yul\":7775:7782   */\n      dup6\n        /* \"#utility.yul\":7771:7794   */\n      sub\n        /* \"#utility.yul\":7767:7799   */\n      slt\n        /* \"#utility.yul\":7764:7816   */\n      iszero\n      tag_511\n      jumpi\n        /* \"#utility.yul\":7812:7813   */\n      0x00\n        /* \"#utility.yul\":7809:7810   */\n      dup1\n        /* \"#utility.yul\":7802:7814   */\n      revert\n        /* \"#utility.yul\":7764:7816   */\n    tag_511:\n        /* \"#utility.yul\":7852:7861   */\n      dup3\n        /* \"#utility.yul\":7839:7862   */\n      calldataload\n        /* \"#utility.yul\":7885:7903   */\n      0xffffffffffffffff\n        /* \"#utility.yul\":7877:7883   */\n      dup2\n        /* \"#utility.yul\":7874:7904   */\n      gt\n        /* \"#utility.yul\":7871:7921   */\n      iszero\n      tag_512\n      jumpi\n        /* \"#utility.yul\":7917:7918   */\n      0x00\n        /* \"#utility.yul\":7914:7915   */\n      dup1\n        /* \"#utility.yul\":7907:7919   */\n      revert\n        /* \"#utility.yul\":7871:7921   */\n    tag_512:\n        /* \"#utility.yul\":7940:7989   */\n      tag_513\n        /* \"#utility.yul\":7981:7988   */\n      dup6\n        /* \"#utility.yul\":7972:7978   */\n      dup3\n        /* \"#utility.yul\":7961:7970   */\n      dup7\n        /* \"#utility.yul\":7957:7979   */\n      add\n        /* \"#utility.yul\":7940:7989   */\n      tag_437\n      jump\t// in\n    tag_513:\n        /* \"#utility.yul\":7930:7989   */\n      swap6\n        /* \"#utility.yul\":8036:8038   */\n      0x20\n        /* \"#utility.yul\":8021:8039   */\n      swap5\n      swap1\n      swap5\n      add\n        /* \"#utility.yul\":8008:8040   */\n      calldataload\n      swap5\n      pop\n      pop\n      pop\n      pop\n        /* \"#utility.yul\":7658:8046   */\n      jump\t// out\n        /* \"#utility.yul\":8259:8506   */\n    tag_98:\n        /* \"#utility.yul\":8318:8324   */\n      0x00\n        /* \"#utility.yul\":8371:8373   */\n      0x20\n        /* \"#utility.yul\":8359:8368   */\n      dup3\n        /* \"#utility.yul\":8350:8357   */\n      dup5\n        /* \"#utility.yul\":8346:8369   */\n      sub\n        /* \"#utility.yul\":8342:8374   */\n      slt\n        /* \"#utility.yul\":8339:8391   */\n      iszero\n      tag_516\n      jumpi\n        /* \"#utility.yul\":8387:8388   */\n      0x00\n        /* \"#utility.yul\":8384:8385   */\n      dup1\n        /* \"#utility.yul\":8377:8389   */\n      revert\n        /* \"#utility.yul\":8339:8391   */\n    tag_516:\n        /* \"#utility.yul\":8426:8435   */\n      dup2\n        /* \"#utility.yul\":8413:8436   */\n      calldataload\n        /* \"#utility.yul\":8445:8476   */\n      tag_462\n        /* \"#utility.yul\":8470:8475   */\n      dup2\n        /* \"#utility.yul\":8445:8476   */\n      tag_434\n      jump\t// in\n        /* \"#utility.yul\":8511:9296   */\n    tag_105:\n        /* \"#utility.yul\":8836:8842   */\n      dup7\n        /* \"#utility.yul\":8825:8834   */\n      dup2\n        /* \"#utility.yul\":8818:8843   */\n      mstore\n        /* \"#utility.yul\":8879:8885   */\n      dup6\n        /* \"#utility.yul\":8874:8876   */\n      0x20\n        /* \"#utility.yul\":8863:8872   */\n      dup3\n        /* \"#utility.yul\":8859:8877   */\n      add\n        /* \"#utility.yul\":8852:8886   */\n      mstore\n        /* \"#utility.yul\":8951:8952   */\n      0x01\n        /* \"#utility.yul\":8947:8948   */\n      dup1\n        /* \"#utility.yul\":8942:8945   */\n      0xa0\n        /* \"#utility.yul\":8938:8949   */\n      shl\n        /* \"#utility.yul\":8934:8953   */\n      sub\n        /* \"#utility.yul\":8926:8932   */\n      dup6\n        /* \"#utility.yul\":8922:8954   */\n      and\n        /* \"#utility.yul\":8917:8919   */\n      0x40\n        /* \"#utility.yul\":8906:8915   */\n      dup3\n        /* \"#utility.yul\":8902:8920   */\n      add\n        /* \"#utility.yul\":8895:8955   */\n      mstore\n        /* \"#utility.yul\":8991:8994   */\n      0xc0\n        /* \"#utility.yul\":8986:8988   */\n      0x60\n        /* \"#utility.yul\":8975:8984   */\n      dup3\n        /* \"#utility.yul\":8971:8989   */\n      add\n        /* \"#utility.yul\":8964:8995   */\n      mstore\n        /* \"#utility.yul\":8799:8803   */\n      0x00\n        /* \"#utility.yul\":9018:9064   */\n      tag_519\n        /* \"#utility.yul\":9059:9062   */\n      0xc0\n        /* \"#utility.yul\":9048:9057   */\n      dup4\n        /* \"#utility.yul\":9044:9063   */\n      add\n        /* \"#utility.yul\":9036:9042   */\n      dup7\n        /* \"#utility.yul\":9018:9064   */\n      tag_432\n      jump\t// in\n    tag_519:\n        /* \"#utility.yul\":9113:9122   */\n      dup3\n        /* \"#utility.yul\":9105:9111   */\n      dup2\n        /* \"#utility.yul\":9101:9123   */\n      sub\n        /* \"#utility.yul\":9095:9098   */\n      0x80\n        /* \"#utility.yul\":9084:9093   */\n      dup5\n        /* \"#utility.yul\":9080:9099   */\n      add\n        /* \"#utility.yul\":9073:9124   */\n      mstore\n        /* \"#utility.yul\":9147:9180   */\n      tag_520\n        /* \"#utility.yul\":9173:9179   */\n      dup2\n        /* \"#utility.yul\":9165:9171   */\n      dup7\n        /* \"#utility.yul\":9147:9180   */\n      tag_432\n      jump\t// in\n    tag_520:\n        /* \"#utility.yul\":9133:9180   */\n      swap1\n      pop\n        /* \"#utility.yul\":9229:9238   */\n      dup3\n        /* \"#utility.yul\":9221:9227   */\n      dup2\n        /* \"#utility.yul\":9217:9239   */\n      sub\n        /* \"#utility.yul\":9211:9214   */\n      0xa0\n        /* \"#utility.yul\":9200:9209   */\n      dup5\n        /* \"#utility.yul\":9196:9215   */\n      add\n        /* \"#utility.yul\":9189:9240   */\n      mstore\n        /* \"#utility.yul\":9257:9290   */\n      tag_521\n        /* \"#utility.yul\":9283:9289   */\n      dup2\n        /* \"#utility.yul\":9275:9281   */\n      dup6\n        /* \"#utility.yul\":9257:9290   */\n      tag_432\n      jump\t// in\n    tag_521:\n        /* \"#utility.yul\":9249:9290   */\n      swap10\n        /* \"#utility.yul\":8511:9296   */\n      swap9\n      pop\n      pop\n      pop\n      pop\n      pop\n      pop\n      pop\n      pop\n      pop\n      jump\t// out\n        /* \"#utility.yul\":9301:9562   */\n    tag_116:\n        /* \"#utility.yul\":9480:9482   */\n      0x20\n        /* \"#utility.yul\":9469:9478   */\n      dup2\n        /* \"#utility.yul\":9462:9483   */\n      mstore\n        /* \"#utility.yul\":9443:9447   */\n      0x00\n        /* \"#utility.yul\":9500:9556   */\n      tag_462\n        /* \"#utility.yul\":9552:9554   */\n      0x20\n        /* \"#utility.yul\":9541:9550   */\n      dup4\n        /* \"#utility.yul\":9537:9555   */\n      add\n        /* \"#utility.yul\":9529:9535   */\n      dup5\n        /* \"#utility.yul\":9500:9556   */\n      tag_431\n      jump\t// in\n        /* \"#utility.yul\":9567:9982   */\n    tag_123:\n        /* \"#utility.yul\":9769:9771   */\n      0x20\n        /* \"#utility.yul\":9751:9772   */\n      dup1\n      dup3\n      mstore\n        /* \"#utility.yul\":9808:9810   */\n      0x33\n        /* \"#utility.yul\":9788:9806   */\n      swap1\n      dup3\n      add\n        /* \"#utility.yul\":9781:9811   */\n      mstore\n        /* \"#utility.yul\":9847:9881   */\n      0x496e746572616374696e67207769746820746865206c69627261727920636f6e\n        /* \"#utility.yul\":9842:9844   */\n      0x40\n        /* \"#utility.yul\":9827:9845   */\n      dup3\n      add\n        /* \"#utility.yul\":9820:9882   */\n      mstore\n      shl(0x69, 0x3a3930b1ba1034b9903337b93134b23232b717)\n        /* \"#utility.yul\":9913:9915   */\n      0x60\n        /* \"#utility.yul\":9898:9916   */\n      dup3\n      add\n        /* \"#utility.yul\":9891:9940   */\n      mstore\n        /* \"#utility.yul\":9972:9975   */\n      0x80\n        /* \"#utility.yul\":9957:9976   */\n      add\n      swap1\n        /* \"#utility.yul\":9567:9982   */\n      jump\t// out\n        /* \"#utility.yul\":9987:10399   */\n    tag_130:\n        /* \"#utility.yul\":10189:10191   */\n      0x20\n        /* \"#utility.yul\":10171:10192   */\n      dup1\n      dup3\n      mstore\n        /* \"#utility.yul\":10228:10230   */\n      0x30\n        /* \"#utility.yul\":10208:10226   */\n      swap1\n      dup3\n      add\n        /* \"#utility.yul\":10201:10231   */\n      mstore\n        /* \"#utility.yul\":10267:10301   */\n      0x5065726d697373696f6e733a2053656e64657220646f6573206e6f7420686176\n        /* \"#utility.yul\":10262:10264   */\n      0x40\n        /* \"#utility.yul\":10247:10265   */\n      dup3\n      add\n        /* \"#utility.yul\":10240:10302   */\n      mstore\n      shl(0x80, 0x65206d616e6167656d656e74206b6579)\n        /* \"#utility.yul\":10333:10335   */\n      0x60\n        /* \"#utility.yul\":10318:10336   */\n      dup3\n      add\n        /* \"#utility.yul\":10311:10357   */\n      mstore\n        /* \"#utility.yul\":10389:10392   */\n      0x80\n        /* \"#utility.yul\":10374:10393   */\n      add\n      swap1\n        /* \"#utility.yul\":9987:10399   */\n      jump\t// out\n        /* \"#utility.yul\":10404:10531   */\n    tag_140:\n        /* \"#utility.yul\":10465:10475   */\n      0x4e487b71\n        /* \"#utility.yul\":10460:10463   */\n      0xe0\n        /* \"#utility.yul\":10456:10476   */\n      shl\n        /* \"#utility.yul\":10453:10454   */\n      0x00\n        /* \"#utility.yul\":10446:10477   */\n      mstore\n        /* \"#utility.yul\":10496:10500   */\n      0x32\n        /* \"#utility.yul\":10493:10494   */\n      0x04\n        /* \"#utility.yul\":10486:10501   */\n      mstore\n        /* \"#utility.yul\":10520:10524   */\n      0x24\n        /* \"#utility.yul\":10517:10518   */\n      0x00\n        /* \"#utility.yul\":10510:10525   */\n      revert\n        /* \"#utility.yul\":10938:11065   */\n    tag_438:\n        /* \"#utility.yul\":10999:11009   */\n      0x4e487b71\n        /* \"#utility.yul\":10994:10997   */\n      0xe0\n        /* \"#utility.yul\":10990:11010   */\n      shl\n        /* \"#utility.yul\":10987:10988   */\n      0x00\n        /* \"#utility.yul\":10980:11011   */\n      mstore\n        /* \"#utility.yul\":11030:11034   */\n      0x11\n        /* \"#utility.yul\":11027:11028   */\n      0x04\n        /* \"#utility.yul\":11020:11035   */\n      mstore\n        /* \"#utility.yul\":11054:11058   */\n      0x24\n        /* \"#utility.yul\":11051:11052   */\n      0x00\n        /* \"#utility.yul\":11044:11059   */\n      revert\n        /* \"#utility.yul\":11070:11205   */\n    tag_145:\n        /* \"#utility.yul\":11109:11112   */\n      0x00\n        /* \"#utility.yul\":11130:11147   */\n      0x01\n      dup3\n      add\n        /* \"#utility.yul\":11127:11170   */\n      tag_531\n      jumpi\n        /* \"#utility.yul\":11150:11168   */\n      tag_531\n      tag_438\n      jump\t// in\n    tag_531:\n      pop\n        /* \"#utility.yul\":11197:11198   */\n      0x01\n        /* \"#utility.yul\":11186:11199   */\n      add\n      swap1\n        /* \"#utility.yul\":11070:11205   */\n      jump\t// out\n        /* \"#utility.yul\":11210:11624   */\n    tag_160:\n        /* \"#utility.yul\":11412:11414   */\n      0x20\n        /* \"#utility.yul\":11394:11415   */\n      dup1\n      dup3\n      mstore\n        /* \"#utility.yul\":11451:11453   */\n      0x32\n        /* \"#utility.yul\":11431:11449   */\n      swap1\n      dup3\n      add\n        /* \"#utility.yul\":11424:11454   */\n      mstore\n        /* \"#utility.yul\":11490:11524   */\n      0x5065726d697373696f6e733a2053656e64657220646f6573206e6f7420686176\n        /* \"#utility.yul\":11485:11487   */\n      0x40\n        /* \"#utility.yul\":11470:11488   */\n      dup3\n      add\n        /* \"#utility.yul\":11463:11525   */\n      mstore\n      shl(0x70, 0x6520636c61696d207369676e6572206b6579)\n        /* \"#utility.yul\":11556:11558   */\n      0x60\n        /* \"#utility.yul\":11541:11559   */\n      dup3\n      add\n        /* \"#utility.yul\":11534:11582   */\n      mstore\n        /* \"#utility.yul\":11614:11617   */\n      0x80\n        /* \"#utility.yul\":11599:11618   */\n      add\n      swap1\n        /* \"#utility.yul\":11210:11624   */\n      jump\t// out\n        /* \"#utility.yul\":12041:12169   */\n    tag_173:\n        /* \"#utility.yul\":12108:12117   */\n      dup2\n      dup2\n      sub\n        /* \"#utility.yul\":12129:12140   */\n      dup2\n      dup2\n      gt\n        /* \"#utility.yul\":12126:12163   */\n      iszero\n      tag_200\n      jumpi\n        /* \"#utility.yul\":12143:12161   */\n      tag_200\n      tag_438\n      jump\t// in\n        /* \"#utility.yul\":12174:12301   */\n    tag_182:\n        /* \"#utility.yul\":12235:12245   */\n      0x4e487b71\n        /* \"#utility.yul\":12230:12233   */\n      0xe0\n        /* \"#utility.yul\":12226:12246   */\n      shl\n        /* \"#utility.yul\":12223:12224   */\n      0x00\n        /* \"#utility.yul\":12216:12247   */\n      mstore\n        /* \"#utility.yul\":12266:12270   */\n      0x31\n        /* \"#utility.yul\":12263:12264   */\n      0x04\n        /* \"#utility.yul\":12256:12271   */\n      mstore\n        /* \"#utility.yul\":12290:12294   */\n      0x24\n        /* \"#utility.yul\":12287:12288   */\n      0x00\n        /* \"#utility.yul\":12280:12295   */\n      revert\n        /* \"#utility.yul\":12306:12686   */\n    tag_364:\n        /* \"#utility.yul\":12385:12386   */\n      0x01\n        /* \"#utility.yul\":12381:12393   */\n      dup2\n      dup2\n      shr\n      swap1\n        /* \"#utility.yul\":12428:12440   */\n      dup3\n      and\n      dup1\n        /* \"#utility.yul\":12449:12510   */\n      tag_539\n      jumpi\n        /* \"#utility.yul\":12503:12507   */\n      0x7f\n        /* \"#utility.yul\":12495:12501   */\n      dup3\n        /* \"#utility.yul\":12491:12508   */\n      and\n        /* \"#utility.yul\":12481:12508   */\n      swap2\n      pop\n        /* \"#utility.yul\":12449:12510   */\n    tag_539:\n        /* \"#utility.yul\":12556:12558   */\n      0x20\n        /* \"#utility.yul\":12548:12554   */\n      dup3\n        /* \"#utility.yul\":12545:12559   */\n      lt\n        /* \"#utility.yul\":12525:12543   */\n      dup2\n        /* \"#utility.yul\":12522:12560   */\n      sub\n        /* \"#utility.yul\":12519:12680   */\n      tag_540\n      jumpi\n        /* \"#utility.yul\":12602:12612   */\n      0x4e487b71\n        /* \"#utility.yul\":12597:12600   */\n      0xe0\n        /* \"#utility.yul\":12593:12613   */\n      shl\n        /* \"#utility.yul\":12590:12591   */\n      0x00\n        /* \"#utility.yul\":12583:12614   */\n      mstore\n        /* \"#utility.yul\":12637:12641   */\n      0x22\n        /* \"#utility.yul\":12634:12635   */\n      0x04\n        /* \"#utility.yul\":12627:12642   */\n      mstore\n        /* \"#utility.yul\":12665:12669   */\n      0x24\n        /* \"#utility.yul\":12662:12663   */\n      0x00\n        /* \"#utility.yul\":12655:12670   */\n      revert\n        /* \"#utility.yul\":12519:12680   */\n    tag_540:\n      pop\n        /* \"#utility.yul\":12306:12686   */\n      swap2\n      swap1\n      pop\n      jump\t// out\n        /* \"#utility.yul\":12816:13587   */\n    tag_440:\n        /* \"#utility.yul\":12865:12868   */\n      0x00\n        /* \"#utility.yul\":12906:12911   */\n      dup2\n        /* \"#utility.yul\":12900:12912   */\n      sload\n        /* \"#utility.yul\":12935:12971   */\n      tag_543\n        /* \"#utility.yul\":12961:12970   */\n      dup2\n        /* \"#utility.yul\":12935:12971   */\n      tag_364\n      jump\t// in\n    tag_543:\n        /* \"#utility.yul\":12980:12999   */\n      dup1\n      dup6\n      mstore\n        /* \"#utility.yul\":13018:13022   */\n      0x20\n        /* \"#utility.yul\":13041:13042   */\n      0x01\n        /* \"#utility.yul\":13058:13076   */\n      dup4\n      dup2\n      and\n        /* \"#utility.yul\":13085:13231   */\n      dup1\n      iszero\n      tag_545\n      jumpi\n        /* \"#utility.yul\":13245:13246   */\n      0x01\n        /* \"#utility.yul\":13240:13581   */\n      dup2\n      eq\n      tag_546\n      jumpi\n        /* \"#utility.yul\":13051:13581   */\n      jump(tag_544)\n        /* \"#utility.yul\":13085:13231   */\n    tag_545:\n      not(0xff)\n        /* \"#utility.yul\":13127:13151   */\n      dup6\n      and\n        /* \"#utility.yul\":13113:13125   */\n      dup9\n      dup5\n      add\n        /* \"#utility.yul\":13106:13152   */\n      mstore\n        /* \"#utility.yul\":13199:13213   */\n      dup4\n      iszero\n        /* \"#utility.yul\":13192:13214   */\n      iszero\n        /* \"#utility.yul\":13189:13190   */\n      0x05\n        /* \"#utility.yul\":13185:13215   */\n      shl\n        /* \"#utility.yul\":13176:13216   */\n      dup9\n      add\n        /* \"#utility.yul\":13172:13221   */\n      dup4\n      add\n      swap6\n      pop\n        /* \"#utility.yul\":13085:13231   */\n      jump(tag_544)\n        /* \"#utility.yul\":13240:13581   */\n    tag_546:\n        /* \"#utility.yul\":13271:13276   */\n      dup7\n        /* \"#utility.yul\":13268:13269   */\n      0x00\n        /* \"#utility.yul\":13261:13277   */\n      mstore\n        /* \"#utility.yul\":13318:13320   */\n      dup3\n        /* \"#utility.yul\":13315:13316   */\n      0x00\n        /* \"#utility.yul\":13305:13321   */\n      keccak256\n        /* \"#utility.yul\":13343:13344   */\n      0x00\n        /* \"#utility.yul\":13357:13531   */\n    tag_547:\n        /* \"#utility.yul\":13371:13377   */\n      dup6\n        /* \"#utility.yul\":13368:13369   */\n      dup2\n        /* \"#utility.yul\":13365:13378   */\n      lt\n        /* \"#utility.yul\":13357:13531   */\n      iszero\n      tag_549\n      jumpi\n        /* \"#utility.yul\":13458:13472   */\n      dup2\n      sload\n        /* \"#utility.yul\":13440:13451   */\n      dup11\n      dup3\n      add\n        /* \"#utility.yul\":13436:13456   */\n      dup7\n      add\n        /* \"#utility.yul\":13429:13473   */\n      mstore\n        /* \"#utility.yul\":13501:13517   */\n      swap1\n      dup4\n      add\n      swap1\n        /* \"#utility.yul\":13386:13396   */\n      dup5\n      add\n        /* \"#utility.yul\":13357:13531   */\n      jump(tag_547)\n    tag_549:\n        /* \"#utility.yul\":13555:13566   */\n      dup10\n      add\n        /* \"#utility.yul\":13551:13571   */\n      dup5\n      add\n      swap7\n      pop\n      pop\n        /* \"#utility.yul\":13051:13581   */\n    tag_544:\n      pop\n      pop\n      pop\n      pop\n      pop\n        /* \"#utility.yul\":12816:13587   */\n      swap3\n      swap2\n      pop\n      pop\n      jump\t// out\n        /* \"#utility.yul\":13592:14219   */\n    tag_185:\n        /* \"#utility.yul\":13852:13858   */\n      dup5\n        /* \"#utility.yul\":13841:13850   */\n      dup2\n        /* \"#utility.yul\":13834:13859   */\n      mstore\n        /* \"#utility.yul\":13895:13898   */\n      0x80\n        /* \"#utility.yul\":13890:13892   */\n      0x20\n        /* \"#utility.yul\":13879:13888   */\n      dup3\n        /* \"#utility.yul\":13875:13893   */\n      add\n        /* \"#utility.yul\":13868:13899   */\n      mstore\n        /* \"#utility.yul\":13815:13819   */\n      0x00\n        /* \"#utility.yul\":13922:13975   */\n      tag_551\n        /* \"#utility.yul\":13970:13973   */\n      0x80\n        /* \"#utility.yul\":13959:13968   */\n      dup4\n        /* \"#utility.yul\":13955:13974   */\n      add\n        /* \"#utility.yul\":13947:13953   */\n      dup7\n        /* \"#utility.yul\":13922:13975   */\n      tag_440\n      jump\t// in\n    tag_551:\n        /* \"#utility.yul\":14023:14032   */\n      dup3\n        /* \"#utility.yul\":14015:14021   */\n      dup2\n        /* \"#utility.yul\":14011:14033   */\n      sub\n        /* \"#utility.yul\":14006:14008   */\n      0x40\n        /* \"#utility.yul\":13995:14004   */\n      dup5\n        /* \"#utility.yul\":13991:14009   */\n      add\n        /* \"#utility.yul\":13984:14034   */\n      mstore\n        /* \"#utility.yul\":14057:14097   */\n      tag_552\n        /* \"#utility.yul\":14090:14096   */\n      dup2\n        /* \"#utility.yul\":14082:14088   */\n      dup7\n        /* \"#utility.yul\":14057:14097   */\n      tag_440\n      jump\t// in\n    tag_552:\n        /* \"#utility.yul\":14043:14097   */\n      swap1\n      pop\n        /* \"#utility.yul\":14145:14154   */\n      dup3\n        /* \"#utility.yul\":14137:14143   */\n      dup2\n        /* \"#utility.yul\":14133:14155   */\n      sub\n        /* \"#utility.yul\":14128:14130   */\n      0x60\n        /* \"#utility.yul\":14117:14126   */\n      dup5\n        /* \"#utility.yul\":14113:14131   */\n      add\n        /* \"#utility.yul\":14106:14156   */\n      mstore\n        /* \"#utility.yul\":14173:14213   */\n      tag_318\n        /* \"#utility.yul\":14206:14212   */\n      dup2\n        /* \"#utility.yul\":14198:14204   */\n      dup6\n        /* \"#utility.yul\":14173:14213   */\n      tag_440\n      jump\t// in\n        /* \"#utility.yul\":16562:17402   */\n    tag_271:\n        /* \"#utility.yul\":16688:16691   */\n      0x00\n        /* \"#utility.yul\":16717:16718   */\n      dup1\n        /* \"#utility.yul\":16750:16756   */\n      dup4\n        /* \"#utility.yul\":16744:16757   */\n      sload\n        /* \"#utility.yul\":16780:16816   */\n      tag_561\n        /* \"#utility.yul\":16806:16815   */\n      dup2\n        /* \"#utility.yul\":16780:16816   */\n      tag_364\n      jump\t// in\n    tag_561:\n        /* \"#utility.yul\":16835:16836   */\n      0x01\n        /* \"#utility.yul\":16852:16870   */\n      dup3\n      dup2\n      and\n        /* \"#utility.yul\":16879:17012   */\n      dup1\n      iszero\n      tag_563\n      jumpi\n        /* \"#utility.yul\":17026:17027   */\n      0x01\n        /* \"#utility.yul\":17021:17377   */\n      dup2\n      eq\n      tag_564\n      jumpi\n        /* \"#utility.yul\":16845:17377   */\n      jump(tag_562)\n        /* \"#utility.yul\":16879:17012   */\n    tag_563:\n      not(0xff)\n        /* \"#utility.yul\":16912:16936   */\n      dup5\n      and\n        /* \"#utility.yul\":16900:16937   */\n      dup8\n      mstore\n        /* \"#utility.yul\":16985:16999   */\n      dup3\n      iszero\n        /* \"#utility.yul\":16978:17000   */\n      iszero\n        /* \"#utility.yul\":16966:17001   */\n      dup4\n      mul\n        /* \"#utility.yul\":16957:17002   */\n      dup8\n      add\n      swap5\n      pop\n        /* \"#utility.yul\":16879:17012   */\n      jump(tag_562)\n        /* \"#utility.yul\":17021:17377   */\n    tag_564:\n        /* \"#utility.yul\":17052:17058   */\n      dup8\n        /* \"#utility.yul\":17049:17050   */\n      0x00\n        /* \"#utility.yul\":17042:17059   */\n      mstore\n        /* \"#utility.yul\":17082:17086   */\n      0x20\n        /* \"#utility.yul\":17127:17129   */\n      dup1\n        /* \"#utility.yul\":17124:17125   */\n      0x00\n        /* \"#utility.yul\":17114:17130   */\n      keccak256\n        /* \"#utility.yul\":17152:17153   */\n      0x00\n        /* \"#utility.yul\":17166:17331   */\n    tag_565:\n        /* \"#utility.yul\":17180:17186   */\n      dup6\n        /* \"#utility.yul\":17177:17178   */\n      dup2\n        /* \"#utility.yul\":17174:17187   */\n      lt\n        /* \"#utility.yul\":17166:17331   */\n      iszero\n      tag_567\n      jumpi\n        /* \"#utility.yul\":17258:17272   */\n      dup2\n      sload\n        /* \"#utility.yul\":17245:17256   */\n      dup11\n      dup3\n      add\n        /* \"#utility.yul\":17238:17273   */\n      mstore\n        /* \"#utility.yul\":17301:17317   */\n      swap1\n      dup5\n      add\n      swap1\n        /* \"#utility.yul\":17195:17205   */\n      dup3\n      add\n        /* \"#utility.yul\":17166:17331   */\n      jump(tag_565)\n    tag_567:\n        /* \"#utility.yul\":17170:17173   */\n      pop\n      pop\n      pop\n        /* \"#utility.yul\":17360:17366   */\n      dup3\n        /* \"#utility.yul\":17355:17358   */\n      dup8\n        /* \"#utility.yul\":17351:17367   */\n      add\n        /* \"#utility.yul\":17344:17367   */\n      swap5\n      pop\n        /* \"#utility.yul\":16845:17377   */\n    tag_562:\n      pop\n        /* \"#utility.yul\":17393:17396   */\n      swap3\n      swap7\n        /* \"#utility.yul\":16562:17402   */\n      swap6\n      pop\n      pop\n      pop\n      pop\n      pop\n      pop\n      jump\t// out\n        /* \"#utility.yul\":17407:17629   */\n    tag_277:\n        /* \"#utility.yul\":17551:17553   */\n      0x20\n        /* \"#utility.yul\":17540:17549   */\n      dup2\n        /* \"#utility.yul\":17533:17554   */\n      mstore\n        /* \"#utility.yul\":17514:17518   */\n      0x00\n        /* \"#utility.yul\":17571:17623   */\n      tag_462\n        /* \"#utility.yul\":17619:17621   */\n      0x20\n        /* \"#utility.yul\":17608:17617   */\n      dup4\n        /* \"#utility.yul\":17604:17622   */\n      add\n        /* \"#utility.yul\":17596:17602   */\n      dup5\n        /* \"#utility.yul\":17571:17623   */\n      tag_440\n      jump\t// in\n        /* \"#utility.yul\":17634:18201   */\n    tag_299:\n        /* \"#utility.yul\":17930:17931   */\n      0x01\n        /* \"#utility.yul\":17926:17927   */\n      dup1\n        /* \"#utility.yul\":17921:17924   */\n      0xa0\n        /* \"#utility.yul\":17917:17928   */\n      shl\n        /* \"#utility.yul\":17913:17932   */\n      sub\n        /* \"#utility.yul\":17905:17911   */\n      dup6\n        /* \"#utility.yul\":17901:17933   */\n      and\n        /* \"#utility.yul\":17890:17899   */\n      dup2\n        /* \"#utility.yul\":17883:17934   */\n      mstore\n        /* \"#utility.yul\":17970:17976   */\n      dup4\n        /* \"#utility.yul\":17965:17967   */\n      0x20\n        /* \"#utility.yul\":17954:17963   */\n      dup3\n        /* \"#utility.yul\":17950:17968   */\n      add\n        /* \"#utility.yul\":17943:17977   */\n      mstore\n        /* \"#utility.yul\":18013:18016   */\n      0x80\n        /* \"#utility.yul\":18008:18010   */\n      0x40\n        /* \"#utility.yul\":17997:18006   */\n      dup3\n        /* \"#utility.yul\":17993:18011   */\n      add\n        /* \"#utility.yul\":17986:18017   */\n      mstore\n        /* \"#utility.yul\":17864:17868   */\n      0x00\n        /* \"#utility.yul\":18040:18086   */\n      tag_571\n        /* \"#utility.yul\":18081:18084   */\n      0x80\n        /* \"#utility.yul\":18070:18079   */\n      dup4\n        /* \"#utility.yul\":18066:18085   */\n      add\n        /* \"#utility.yul\":18058:18064   */\n      dup6\n        /* \"#utility.yul\":18040:18086   */\n      tag_432\n      jump\t// in\n    tag_571:\n        /* \"#utility.yul\":18134:18143   */\n      dup3\n        /* \"#utility.yul\":18126:18132   */\n      dup2\n        /* \"#utility.yul\":18122:18144   */\n      sub\n        /* \"#utility.yul\":18117:18119   */\n      0x60\n        /* \"#utility.yul\":18106:18115   */\n      dup5\n        /* \"#utility.yul\":18102:18120   */\n      add\n        /* \"#utility.yul\":18095:18145   */\n      mstore\n        /* \"#utility.yul\":18162:18195   */\n      tag_318\n        /* \"#utility.yul\":18188:18194   */\n      dup2\n        /* \"#utility.yul\":18180:18186   */\n      dup6\n        /* \"#utility.yul\":18162:18195   */\n      tag_432\n      jump\t// in\n        /* \"#utility.yul\":18206:18451   */\n    tag_303:\n        /* \"#utility.yul\":18273:18279   */\n      0x00\n        /* \"#utility.yul\":18326:18328   */\n      0x20\n        /* \"#utility.yul\":18314:18323   */\n      dup3\n        /* \"#utility.yul\":18305:18312   */\n      dup5\n        /* \"#utility.yul\":18301:18324   */\n      sub\n        /* \"#utility.yul\":18297:18329   */\n      slt\n        /* \"#utility.yul\":18294:18346   */\n      iszero\n      tag_574\n      jumpi\n        /* \"#utility.yul\":18342:18343   */\n      0x00\n        /* \"#utility.yul\":18339:18340   */\n      dup1\n        /* \"#utility.yul\":18332:18344   */\n      revert\n        /* \"#utility.yul\":18294:18346   */\n    tag_574:\n        /* \"#utility.yul\":18374:18383   */\n      dup2\n        /* \"#utility.yul\":18368:18384   */\n      mload\n        /* \"#utility.yul\":18393:18421   */\n      tag_462\n        /* \"#utility.yul\":18415:18420   */\n      dup2\n        /* \"#utility.yul\":18393:18421   */\n      tag_433\n      jump\t// in\n        /* \"#utility.yul\":19077:19621   */\n    tag_441:\n        /* \"#utility.yul\":19178:19180   */\n      0x1f\n        /* \"#utility.yul\":19173:19176   */\n      dup3\n        /* \"#utility.yul\":19170:19181   */\n      gt\n        /* \"#utility.yul\":19167:19615   */\n      iszero\n      tag_579\n      jumpi\n        /* \"#utility.yul\":19214:19215   */\n      0x00\n        /* \"#utility.yul\":19239:19244   */\n      dup2\n        /* \"#utility.yul\":19235:19237   */\n      dup2\n        /* \"#utility.yul\":19228:19245   */\n      mstore\n        /* \"#utility.yul\":19284:19288   */\n      0x20\n        /* \"#utility.yul\":19280:19282   */\n      dup2\n        /* \"#utility.yul\":19270:19289   */\n      keccak256\n        /* \"#utility.yul\":19354:19356   */\n      0x1f\n        /* \"#utility.yul\":19342:19352   */\n      dup6\n        /* \"#utility.yul\":19338:19357   */\n      add\n        /* \"#utility.yul\":19335:19336   */\n      0x05\n        /* \"#utility.yul\":19331:19358   */\n      shr\n        /* \"#utility.yul\":19325:19329   */\n      dup2\n        /* \"#utility.yul\":19321:19359   */\n      add\n        /* \"#utility.yul\":19390:19394   */\n      0x20\n        /* \"#utility.yul\":19378:19388   */\n      dup7\n        /* \"#utility.yul\":19375:19395   */\n      lt\n        /* \"#utility.yul\":19372:19419   */\n      iszero\n      tag_580\n      jumpi\n      pop\n        /* \"#utility.yul\":19413:19417   */\n      dup1\n        /* \"#utility.yul\":19372:19419   */\n    tag_580:\n        /* \"#utility.yul\":19468:19470   */\n      0x1f\n        /* \"#utility.yul\":19463:19466   */\n      dup6\n        /* \"#utility.yul\":19459:19471   */\n      add\n        /* \"#utility.yul\":19456:19457   */\n      0x05\n        /* \"#utility.yul\":19452:19472   */\n      shr\n        /* \"#utility.yul\":19446:19450   */\n      dup3\n        /* \"#utility.yul\":19442:19473   */\n      add\n        /* \"#utility.yul\":19432:19473   */\n      swap2\n      pop\n        /* \"#utility.yul\":19523:19605   */\n    tag_581:\n        /* \"#utility.yul\":19541:19543   */\n      dup2\n        /* \"#utility.yul\":19534:19539   */\n      dup2\n        /* \"#utility.yul\":19531:19544   */\n      lt\n        /* \"#utility.yul\":19523:19605   */\n      iszero\n      tag_583\n      jumpi\n        /* \"#utility.yul\":19586:19603   */\n      dup3\n      dup2\n      sstore\n        /* \"#utility.yul\":19567:19568   */\n      0x01\n        /* \"#utility.yul\":19556:19569   */\n      add\n        /* \"#utility.yul\":19523:19605   */\n      jump(tag_581)\n    tag_583:\n        /* \"#utility.yul\":19527:19530   */\n      pop\n      pop\n      pop\n        /* \"#utility.yul\":19167:19615   */\n    tag_579:\n        /* \"#utility.yul\":19077:19621   */\n      pop\n      pop\n      pop\n      jump\t// out\n        /* \"#utility.yul\":19797:21145   */\n    tag_310:\n        /* \"#utility.yul\":19921:19924   */\n      dup2\n        /* \"#utility.yul\":19915:19925   */\n      mload\n        /* \"#utility.yul\":19948:19966   */\n      0xffffffffffffffff\n        /* \"#utility.yul\":19940:19946   */\n      dup2\n        /* \"#utility.yul\":19937:19967   */\n      gt\n        /* \"#utility.yul\":19934:19990   */\n      iszero\n      tag_587\n      jumpi\n        /* \"#utility.yul\":19970:19988   */\n      tag_587\n      tag_435\n      jump\t// in\n    tag_587:\n        /* \"#utility.yul\":19999:20095   */\n      tag_588\n        /* \"#utility.yul\":20088:20094   */\n      dup2\n        /* \"#utility.yul\":20048:20086   */\n      tag_589\n        /* \"#utility.yul\":20080:20084   */\n      dup5\n        /* \"#utility.yul\":20074:20085   */\n      sload\n        /* \"#utility.yul\":20048:20086   */\n      tag_364\n      jump\t// in\n    tag_589:\n        /* \"#utility.yul\":20042:20046   */\n      dup5\n        /* \"#utility.yul\":19999:20095   */\n      tag_441\n      jump\t// in\n    tag_588:\n        /* \"#utility.yul\":20150:20154   */\n      0x20\n      dup1\n        /* \"#utility.yul\":20214:20216   */\n      0x1f\n        /* \"#utility.yul\":20203:20217   */\n      dup4\n      gt\n        /* \"#utility.yul\":20231:20232   */\n      0x01\n        /* \"#utility.yul\":20226:20888   */\n      dup2\n      eq\n      tag_591\n      jumpi\n        /* \"#utility.yul\":20932:20933   */\n      0x00\n        /* \"#utility.yul\":20949:20955   */\n      dup5\n        /* \"#utility.yul\":20946:21035   */\n      iszero\n      tag_592\n      jumpi\n      pop\n        /* \"#utility.yul\":21001:21020   */\n      dup6\n      dup4\n      add\n        /* \"#utility.yul\":20995:21021   */\n      mload\n        /* \"#utility.yul\":20946:21035   */\n    tag_592:\n      not(0x00)\n        /* \"#utility.yul\":19754:19755   */\n      0x03\n        /* \"#utility.yul\":19750:19761   */\n      dup7\n      swap1\n      shl\n        /* \"#utility.yul\":19746:19770   */\n      shr\n        /* \"#utility.yul\":19742:19771   */\n      not\n        /* \"#utility.yul\":19732:19772   */\n      and\n        /* \"#utility.yul\":19778:19779   */\n      0x01\n        /* \"#utility.yul\":19774:19785   */\n      dup6\n      swap1\n      shl\n        /* \"#utility.yul\":19729:19786   */\n      or\n        /* \"#utility.yul\":21048:21129   */\n      dup6\n      sstore\n        /* \"#utility.yul\":20196:21139   */\n      jump(tag_583)\n        /* \"#utility.yul\":20226:20888   */\n    tag_591:\n        /* \"#utility.yul\":12763:12764   */\n      0x00\n        /* \"#utility.yul\":12756:12770   */\n      dup6\n      dup2\n      mstore\n        /* \"#utility.yul\":12800:12804   */\n      0x20\n        /* \"#utility.yul\":12787:12805   */\n      dup2\n      keccak256\n      not(0x1f)\n        /* \"#utility.yul\":20262:20282   */\n      dup7\n      and\n      swap2\n        /* \"#utility.yul\":20379:20615   */\n    tag_595:\n        /* \"#utility.yul\":20393:20400   */\n      dup3\n        /* \"#utility.yul\":20390:20391   */\n      dup2\n        /* \"#utility.yul\":20387:20401   */\n      lt\n        /* \"#utility.yul\":20379:20615   */\n      iszero\n      tag_597\n      jumpi\n        /* \"#utility.yul\":20482:20501   */\n      dup9\n      dup7\n      add\n        /* \"#utility.yul\":20476:20502   */\n      mload\n        /* \"#utility.yul\":20461:20503   */\n      dup3\n      sstore\n        /* \"#utility.yul\":20574:20601   */\n      swap5\n      dup5\n      add\n      swap5\n        /* \"#utility.yul\":20542:20543   */\n      0x01\n        /* \"#utility.yul\":20530:20544   */\n      swap1\n      swap2\n      add\n      swap1\n        /* \"#utility.yul\":20409:20428   */\n      dup5\n      add\n        /* \"#utility.yul\":20379:20615   */\n      jump(tag_595)\n    tag_597:\n        /* \"#utility.yul\":20383:20386   */\n      pop\n        /* \"#utility.yul\":20643:20649   */\n      dup6\n        /* \"#utility.yul\":20634:20641   */\n      dup3\n        /* \"#utility.yul\":20631:20650   */\n      lt\n        /* \"#utility.yul\":20628:20829   */\n      iszero\n      tag_598\n      jumpi\n        /* \"#utility.yul\":20704:20723   */\n      dup8\n      dup6\n      add\n        /* \"#utility.yul\":20698:20724   */\n      mload\n      not(0x00)\n        /* \"#utility.yul\":20787:20788   */\n      0x03\n        /* \"#utility.yul\":20783:20797   */\n      dup9\n      swap1\n      shl\n        /* \"#utility.yul\":20799:20802   */\n      0xf8\n        /* \"#utility.yul\":20779:20803   */\n      and\n        /* \"#utility.yul\":20775:20812   */\n      shr\n        /* \"#utility.yul\":20771:20813   */\n      not\n        /* \"#utility.yul\":20756:20814   */\n      and\n        /* \"#utility.yul\":20741:20815   */\n      dup2\n      sstore\n        /* \"#utility.yul\":20628:20829   */\n    tag_598:\n      pop\n      pop\n      pop\n      pop\n      pop\n        /* \"#utility.yul\":20875:20876   */\n      0x01\n        /* \"#utility.yul\":20859:20873   */\n      swap1\n      dup2\n      shl\n        /* \"#utility.yul\":20855:20877   */\n      add\n        /* \"#utility.yul\":20842:20878   */\n      swap1\n      sstore\n      pop\n        /* \"#utility.yul\":19797:21145   */\n      jump\t// out\n        /* \"#utility.yul\":22505:23120   */\n    tag_317:\n        /* \"#utility.yul\":22774:22780   */\n      dup5\n        /* \"#utility.yul\":22763:22772   */\n      dup2\n        /* \"#utility.yul\":22756:22781   */\n      mstore\n        /* \"#utility.yul\":22817:22820   */\n      0x80\n        /* \"#utility.yul\":22812:22814   */\n      0x20\n        /* \"#utility.yul\":22801:22810   */\n      dup3\n        /* \"#utility.yul\":22797:22815   */\n      add\n        /* \"#utility.yul\":22790:22821   */\n      mstore\n        /* \"#utility.yul\":22737:22741   */\n      0x00\n        /* \"#utility.yul\":22844:22890   */\n      tag_614\n        /* \"#utility.yul\":22885:22888   */\n      0x80\n        /* \"#utility.yul\":22874:22883   */\n      dup4\n        /* \"#utility.yul\":22870:22889   */\n      add\n        /* \"#utility.yul\":22862:22868   */\n      dup7\n        /* \"#utility.yul\":22844:22890   */\n      tag_432\n      jump\t// in\n    tag_614:\n        /* \"#utility.yul\":22938:22947   */\n      dup3\n        /* \"#utility.yul\":22930:22936   */\n      dup2\n        /* \"#utility.yul\":22926:22948   */\n      sub\n        /* \"#utility.yul\":22921:22923   */\n      0x40\n        /* \"#utility.yul\":22910:22919   */\n      dup5\n        /* \"#utility.yul\":22906:22924   */\n      add\n        /* \"#utility.yul\":22899:22949   */\n      mstore\n        /* \"#utility.yul\":22972:23005   */\n      tag_615\n        /* \"#utility.yul\":22998:23004   */\n      dup2\n        /* \"#utility.yul\":22990:22996   */\n      dup7\n        /* \"#utility.yul\":22972:23005   */\n      tag_432\n      jump\t// in\n    tag_615:\n        /* \"#utility.yul\":22958:23005   */\n      swap1\n      pop\n        /* \"#utility.yul\":23053:23062   */\n      dup3\n        /* \"#utility.yul\":23045:23051   */\n      dup2\n        /* \"#utility.yul\":23041:23063   */\n      sub\n        /* \"#utility.yul\":23036:23038   */\n      0x60\n        /* \"#utility.yul\":23025:23034   */\n      dup5\n        /* \"#utility.yul\":23021:23039   */\n      add\n        /* \"#utility.yul\":23014:23064   */\n      mstore\n        /* \"#utility.yul\":23081:23114   */\n      tag_318\n        /* \"#utility.yul\":23107:23113   */\n      dup2\n        /* \"#utility.yul\":23099:23105   */\n      dup6\n        /* \"#utility.yul\":23081:23114   */\n      tag_432\n      jump\t// in\n        /* \"#utility.yul\":23348:23752   */\n    tag_340:\n        /* \"#utility.yul\":23598:23599   */\n      0x01\n        /* \"#utility.yul\":23594:23595   */\n      dup1\n        /* \"#utility.yul\":23589:23592   */\n      0xa0\n        /* \"#utility.yul\":23585:23596   */\n      shl\n        /* \"#utility.yul\":23581:23600   */\n      sub\n        /* \"#utility.yul\":23573:23579   */\n      dup5\n        /* \"#utility.yul\":23569:23601   */\n      and\n        /* \"#utility.yul\":23558:23567   */\n      dup2\n        /* \"#utility.yul\":23551:23602   */\n      mstore\n        /* \"#utility.yul\":23638:23644   */\n      dup3\n        /* \"#utility.yul\":23633:23635   */\n      0x20\n        /* \"#utility.yul\":23622:23631   */\n      dup3\n        /* \"#utility.yul\":23618:23636   */\n      add\n        /* \"#utility.yul\":23611:23645   */\n      mstore\n        /* \"#utility.yul\":23681:23683   */\n      0x60\n        /* \"#utility.yul\":23676:23678   */\n      0x40\n        /* \"#utility.yul\":23665:23674   */\n      dup3\n        /* \"#utility.yul\":23661:23679   */\n      add\n        /* \"#utility.yul\":23654:23684   */\n      mstore\n        /* \"#utility.yul\":23532:23536   */\n      0x00\n        /* \"#utility.yul\":23701:23746   */\n      tag_620\n        /* \"#utility.yul\":23742:23744   */\n      0x60\n        /* \"#utility.yul\":23731:23740   */\n      dup4\n        /* \"#utility.yul\":23727:23745   */\n      add\n        /* \"#utility.yul\":23719:23725   */\n      dup5\n        /* \"#utility.yul\":23701:23746   */\n      tag_432\n      jump\t// in\n    tag_620:\n        /* \"#utility.yul\":23693:23746   */\n      swap6\n        /* \"#utility.yul\":23348:23752   */\n      swap5\n      pop\n      pop\n      pop\n      pop\n      pop\n      jump\t// out\n        /* \"#utility.yul\":24142:24290   */\n    tag_351:\n        /* \"#utility.yul\":24230:24234   */\n      0xff\n        /* \"#utility.yul\":24209:24221   */\n      dup2\n      dup2\n      and\n        /* \"#utility.yul\":24223:24235   */\n      dup4\n      dup3\n      and\n        /* \"#utility.yul\":24205:24236   */\n      add\n      swap1\n        /* \"#utility.yul\":24248:24261   */\n      dup2\n      gt\n        /* \"#utility.yul\":24245:24284   */\n      iszero\n      tag_200\n      jumpi\n        /* \"#utility.yul\":24264:24282   */\n      tag_200\n      tag_438\n      jump\t// in\n\n    auxdata: 0xa2646970667358221220691c6757b9a02ee092ee4ee658ee822d7fec9527cea8050084f28fa12cc0842764736f6c63430008110033\n}\n",
				"bytecode": {
					"linkReferences": {},
					"object": "60806040526006805461ffff191690553480156200001c57600080fd5b5060405162002a4238038062002a428339810160408190526200003f916200029f565b6001600160a01b0382166200009b5760405162461bcd60e51b815260206004820152601f60248201527f696e76616c696420617267756d656e74202d207a65726f20616464726573730060448201526064015b60405180910390fd5b80620000b257620000ac82620000c8565b620000c0565b6006805460ff191660011790555b5050620002ed565b60065460ff161580620000da5750303b155b620001285760405162461bcd60e51b815260206004820152601e60248201527f496e697469616c206b65792077617320616c72656164792073657475702e0000604482015260640162000092565b6006805461ffff1916610101179055604080516001600160a01b03831660208201526000910160408051601f19818403018152828252805160209182012060008181526001808452848220600281018490558685019095528086529082905291829052935062000199929062000233565b506000818152600160208181526040808420830183905560029091527fe90b7bceb6e7df5418fb78d8ee546e97c83a08bbccc01a0644d599ccd2a7c2e0805480840182559084527f7fef4bf8f63cf9dd467136c679c02b5c17fcf6322d9562512bf5eb952cf7cc5301849055519091829184917f480000bb1edad8ca1470381cc334b1917fbd51c6531f3a623ea8e0ec7e38a6e991a45050565b82805482825590600052602060002090810192821562000276579160200282015b8281111562000276578251829060ff1690559160200191906001019062000254565b506200028492915062000288565b5090565b5b8082111562000284576000815560010162000289565b60008060408385031215620002b357600080fd5b82516001600160a01b0381168114620002cb57600080fd5b60208401519092508015158114620002e257600080fd5b809150509250929050565b61274580620002fd6000396000f3fe6080604052600436106100f35760003560e01c8063b1a34e0d1161008a578063c4d66de811610059578063c4d66de8146102da578063c9100bcb146102fc578063d202158d1461032e578063fb307b341461034e57600080fd5b8063b1a34e0d14610241578063b61d27f61461026f578063c0969a6e14610282578063c3b129e3146102a257600080fd5b806354fd4d50116100c657806354fd4d50146101a0578063747442d3146101d457806380e9e9e1146101f45780639010f7261461022157600080fd5b806312aaac70146100f85780631d381240146101305780634eee424a1461016057806353d413c514610180575b600080fd5b34801561010457600080fd5b50610118610113366004611d67565b61037b565b60405161012793929190611dbb565b60405180910390f35b34801561013c57600080fd5b5061015061014b366004611de0565b6103f4565b6040519015158152602001610127565b34801561016c57600080fd5b5061015061017b366004611d67565b610657565b34801561018c57600080fd5b5061015061019b366004611e0c565b610916565b3480156101ac57600080fd5b5060408051808201825260058152640322e322e360dc1b602082015290516101279190611e74565b3480156101e057600080fd5b506101506101ef366004611e9c565b610d06565b34801561020057600080fd5b5061021461020f366004611d67565b6110e3565b6040516101279190611ecc565b34801561022d57600080fd5b5061021461023c366004611d67565b611145565b34801561024d57600080fd5b5061026161025c366004611fd1565b6111a5565b604051908152602001610127565b61026161027d366004612092565b611471565b34801561028e57600080fd5b5061015061029d3660046120eb565b6115a3565b3480156102ae57600080fd5b506102c26102bd36600461216b565b611694565b6040516001600160a01b039091168152602001610127565b3480156102e657600080fd5b506102fa6102f53660046121b0565b611745565b005b34801561030857600080fd5b5061031c610317366004611d67565b6117a7565b604051610127969594939291906121cd565b34801561033a57600080fd5b50610150610349366004611e0c565b6119a8565b34801561035a57600080fd5b5061036e610369366004611d67565b611aa9565b604051610127919061222d565b6000818152600160208181526040808420928301546002840154845483518186028101860190945280845260609695869590949185918301828280156103e057602002820191906000526020600020905b8154815260200190600101908083116103cc575b505050505092509250925092509193909250565b60065460009060ff61010090910416151560011461042d5760405162461bcd60e51b815260040161042490612240565b60405180910390fd5b3330148061046357506040805133602082015261046391015b6040516020818303038152906040528051906020012060016119a8565b61047f5760405162461bcd60e51b815260040161042490612293565b6000848152600160205260409020600201548490036105b2576000848152600160209081526040808320805482518185028101850190935280835291929091908301828280156104ee57602002820191906000526020600020905b8154815260200190600101908083116104da575b5050505050905060005b815181101561058b576000828281518110610515576105156122e3565b602002602001015190508581036105785760405162461bcd60e51b815260206004820152602160248201527f436f6e666c6963743a204b657920616c72656164792068617320707572706f736044820152606560f81b6064820152608401610424565b50806105838161230f565b9150506104f8565b505060008481526001602081815260408320805492830181558352909120018390556105fe565b600084815260016020818152604080842060028101899055815180840190925287825293889052908290526105e79291611c6f565b506000848152600160208190526040909120018290555b60008381526002602090815260408083208054600181018255908452918320909101869055518391859187917f480000bb1edad8ca1470381cc334b1917fbd51c6531f3a623ea8e0ec7e38a6e991a45060019392505050565b60065460009060ff6101009091041615156001146106875760405162461bcd60e51b815260040161042490612240565b333014806106bd5750604080513360208201526106bd91015b6040516020818303038152906040528051906020012060036119a8565b6106d95760405162461bcd60e51b815260040161042490612328565b6000828152600460205260408120549081900361074c5760405162461bcd60e51b815260206004820152602b60248201527f4e6f6e4578697374696e673a205468657265206973206e6f20636c61696d207760448201526a1a5d1a081d1a1a5cc8125160aa1b6064820152608401610424565b6000818152600560205260408120545b600083815260056020526040902080548691908490811061077f5761077f6122e3565b9060005260206000200154146107a457816107998161230f565b92505080821061075c575b60008381526005602052604090206107bd60018361237a565b815481106107cd576107cd6122e3565b90600052602060002001546005600085815260200190815260200160002083815481106107fc576107fc6122e3565b90600052602060002001819055506005600084815260200190815260200160002080548061082c5761082c61238d565b6000828152602080822083016000199081018390559092019092558682526004908190526040918290206002810154600182015493516001600160a01b039091169387938a937f3cf57863a89432c61c4a27073c6ee39e8a764bff5a05aebfbcdcdc80b2e6130a936108ad939260038301929081019160059091019061245a565b60405180910390a46000858152600460205260408120818155600181018290556002810180546001600160a01b0319169055906108ed6003830182611cba565b6108fb600483016000611cba565b610909600583016000611cba565b5060019695505050505050565b60065460009060ff6101009091041615156001146109465760405162461bcd60e51b815260040161042490612240565b333014806109635750604080513360208201526109639101610446565b61097f5760405162461bcd60e51b815260040161042490612293565b60008381526001602052604090206002015483146109e95760405162461bcd60e51b815260206004820152602160248201527f4e6f6e4578697374696e673a204b65792069736e2774207265676973746572656044820152601960fa1b6064820152608401610424565b600083815260016020908152604080832080548251818502810185019093528083529192909190830182828015610a3f57602002820191906000526020600020905b815481526020019060010190808311610a2b575b5050505050905060005b83828281518110610a5c57610a5c6122e3565b602002602001015114610ade5780610a738161230f565b91505081518103610ad95760405162461bcd60e51b815260206004820152602a60248201527f4e6f6e4578697374696e673a204b657920646f65736e27742068617665207375604482015269636820707572706f736560b01b6064820152608401610424565b610a49565b8160018351610aed919061237a565b81518110610afd57610afd6122e3565b6020026020010151828281518110610b1757610b176122e3565b602090810291909101810191909152600086815260018252604090208351610b4192850190611c6f565b506000858152600160205260409020805480610b5f57610b5f61238d565b6000828152602080822083016000199081018390559092019092558582526002905260408120545b6000868152600260205260409020805488919084908110610baa57610baa6122e3565b906000526020600020015414610bcf5781610bc48161230f565b925050808210610b87575b6000868152600260205260409020610be860018361237a565b81548110610bf857610bf86122e3565b9060005260206000200154600260008881526020019081526020016000208381548110610c2757610c276122e3565b906000526020600020018190555060026000878152602001908152602001600020805480610c5757610c5761238d565b6001900381819060005260206000200160009055905560006001600089815260200190815260200160002060010154905060018551610c96919061237a565b600003610cc757600088815260016020526040812090610cb68282611cf4565b506000600182018190556002909101555b8087897f585a4aef50f8267a92b32412b331b20f7f8b96f2245b253b9cc50dcc621d339760405160405180910390a46001955050505050505b92915050565b60065460009060ff610100909104161515600114610d365760405162461bcd60e51b815260040161042490612240565b6000548310610d975760405162461bcd60e51b815260206004820152602760248201527f43616e6e6f7420617070726f76652061206e6f6e2d6578697374696e6720657860448201526632b1baba34b7b760c91b6064820152608401610424565b60008381526003602081905260409091200154610100900460ff1615610dff5760405162461bcd60e51b815260206004820152601860248201527f5265717565737420616c726561647920657865637574656400000000000000006044820152606401610424565b600083815260036020526040902054306001600160a01b0390911603610e905760408051336020820152610e339101610446565b610e8b5760405162461bcd60e51b815260206004820152602360248201527f53656e64657220646f6573206e6f742068617665206d616e6167656d656e74206044820152626b657960e81b6064820152608401610424565b610f09565b60408051336020820152610ebd91015b6040516020818303038152906040528051906020012060026119a8565b610f095760405162461bcd60e51b815260206004820152601f60248201527f53656e64657220646f6573206e6f74206861766520616374696f6e206b6579006044820152606401610424565b827fb3932da477fe5d6c8ff2eafef050c0f3a1af18fc07121001482600f36f3715d883604051610f3d911515815260200190565b60405180910390a28115156001036110c557600083815260036020819052604091829020908101805460ff1916600190811790915581549082015492516001600160a01b039091169291610f9691600290910190612499565b60006040518083038185875af1925050503d8060008114610fd3576040519150601f19603f3d011682016040523d82523d6000602084013e610fd8565b606091505b5090915050801561105d57600083815260036020819052604091829020908101805461ff00191661010017905560018101548154925190926001600160a01b03169186917f1f920dbda597d7bf95035464170fa58d0a4b57f13a1c315ace6793b9f63688b89161104d9160029091019061250f565b60405180910390a4506001610d00565b6000838152600360205260409081902060018101548154925190926001600160a01b03169186917fe10c49d9f7c71da23262367013434763cfdb2332267641728d25cd712c5c6a68916110b59160029091019061250f565b60405180910390a4506000610d00565b50506000908152600360208190526040822001805460ff1916905590565b60008181526005602090815260409182902080548351818402810184019094528084526060939283018282801561113957602002820191906000526020600020905b815481526020019060010190808311611125575b50505050509050919050565b60008181526002602090815260409182902080548351818402810184019094528084526060939283018282801561113957602002820191906000526020600020908154815260200190600101908083116111255750505050509050919050565b60065460009060ff6101009091041615156001146111d55760405162461bcd60e51b815260040161042490612240565b333014806111f25750604080513360208201526111f291016106a0565b61120e5760405162461bcd60e51b815260040161042490612328565b6001600160a01b03851630146112cd5760405163604b4d3760e11b81526001600160a01b0386169063c0969a6e906112509030908b9089908990600401612522565b602060405180830381865afa15801561126d573d6000803e3d6000fd5b505050506040513d601f19601f82011682018060405250810190611291919061255b565b6112cd5760405162461bcd60e51b815260206004820152600d60248201526c696e76616c696420636c61696d60981b6044820152606401610424565b604080516001600160a01b038716602082015290810188905260009060600160408051601f1981840301815291815281516020928301206000818152600490935291208981556001810189905590915060030161132a86826125c7565b5060008181526004602081905260409091200161134785826125c7565b50600081815260046020526040902060050161136384826125c7565b506000818152600460205260409020600201546001600160a01b0387811691161461141c57600088815260056020908152604080832080546001810182559084528284200184905583835260049091529081902060020180546001600160a01b0319166001600160a01b0389169081179091559051899083907f46149b18aa084502c3f12bc75e19eda8bda8d102b82cce8474677a6d0d5f43c59061140f908c908b908b908b90612687565b60405180910390a4611466565b856001600160a01b031688827f3bab293fc00db832d7619a9299914251b8747c036867ec056cbd506f60135b138a89898960405161145d9493929190612687565b60405180910390a45b979650505050505050565b60065460009060ff6101009091041615156001146114a15760405162461bcd60e51b815260040161042490612240565b600080548082526003602052604090912080546001600160a01b0319166001600160a01b038716178155600181018590556002016114df84826125c7565b506000805490806114ef8361230f565b919050555083856001600160a01b0316827f8afcfabcb00e47a53a8fc3e9f23ff47ee1926194bb1350dd007c50b412a6cee88660405161152f9190611e74565b60405180910390a46040805133602082015261154b9101610446565b156115615761155b816001610d06565b5061159b565b6001600160a01b03851630148015906115895750604080513360208201526115899101610ea0565b1561159b57611599816001610d06565b505b949350505050565b6000808585846040516020016115bb939291906126c6565b60405160208183030381529060405280519060200120905060008160405160200161161291907f19457468657265756d205369676e6564204d6573736167653a0a3332000000008152601c810191909152603c0190565b60405160208183030381529060405280519060200120905060006116368683611694565b604080516001600160a01b0383166020820152919250600091016040516020818303038152906040528051906020012090506116738160036119a8565b1561168557600194505050505061159b565b50600098975050505050505050565b60008060008085516041146116af5760009350505050610d00565b50505060208301516040840151606085015160001a601b8110156116db576116d8601b826126f6565b90505b6040805160008082526020820180845288905260ff841692820192909252606081018590526080810184905260019060a0016020604051602081039080840390855afa15801561172f573d6000803e3d6000fd5b5050604051601f19015198975050505050505050565b6001600160a01b03811661179b5760405162461bcd60e51b815260206004820152601f60248201527f696e76616c696420617267756d656e74202d207a65726f2061646472657373006044820152606401610424565b6117a481611b09565b50565b600081815260046020819052604082208054600182015460028301546003840180548796879660609687968796919590946001600160a01b039092169390929081019160059091019083906117fb906123a3565b80601f0160208091040260200160405190810160405280929190818152602001828054611827906123a3565b80156118745780601f1061184957610100808354040283529160200191611874565b820191906000526020600020905b81548152906001019060200180831161185757829003601f168201915b50505050509250818054611887906123a3565b80601f01602080910402602001604051908101604052809291908181526020018280546118b3906123a3565b80156119005780601f106118d557610100808354040283529160200191611900565b820191906000526020600020905b8154815290600101906020018083116118e357829003601f168201915b50505050509150808054611913906123a3565b80601f016020809104026020016040519081016040528092919081815260200182805461193f906123a3565b801561198c5780601f106119615761010080835404028352916020019161198c565b820191906000526020600020905b81548152906001019060200180831161196f57829003601f168201915b5050505050905095509550955095509550955091939550919395565b60008281526001602090815260408083208151815460809481028201850190935260608101838152859491938492849190840182828015611a0857602002820191906000526020600020905b8154815260200190600101908083116119f4575b505050918352505060018201546020820152600290910154604091820152810151909150600003611a3d576000915050610d00565b60005b815151811015611a9e57600082600001518281518110611a6257611a626122e3565b602002602001015190508060011480611a7a57508481145b15611a8b5760019350505050610d00565b5080611a968161230f565b915050611a40565b506000949350505050565b60008181526001602090815260409182902080548351818402810184019094528084526060939283018282801561113957602002820191906000526020600020908154815260200190600101908083116111255750505050509050919050565b60065460ff161580611b1a5750303b155b611b665760405162461bcd60e51b815260206004820152601e60248201527f496e697469616c206b65792077617320616c72656164792073657475702e00006044820152606401610424565b6006805461ffff1916610101179055604080516001600160a01b03831660208201526000910160408051601f198184030181528282528051602091820120600081815260018084528482206002810184905586850190955280865290829052918290529350611bd59290611d12565b506000818152600160208181526040808420830183905560029091527fe90b7bceb6e7df5418fb78d8ee546e97c83a08bbccc01a0644d599ccd2a7c2e0805480840182559084527f7fef4bf8f63cf9dd467136c679c02b5c17fcf6322d9562512bf5eb952cf7cc5301849055519091829184917f480000bb1edad8ca1470381cc334b1917fbd51c6531f3a623ea8e0ec7e38a6e991a45050565b828054828255906000526020600020908101928215611caa579160200282015b82811115611caa578251825591602001919060010190611c8f565b50611cb6929150611d52565b5090565b508054611cc6906123a3565b6000825580601f10611cd6575050565b601f0160209004906000526020600020908101906117a49190611d52565b50805460008255906000526020600020908101906117a49190611d52565b828054828255906000526020600020908101928215611caa579160200282015b82811115611caa578251829060ff16905591602001919060010190611d32565b5b80821115611cb65760008155600101611d53565b600060208284031215611d7957600080fd5b5035919050565b600081518084526020808501945080840160005b83811015611db057815187529582019590820190600101611d94565b509495945050505050565b606081526000611dce6060830186611d80565b60208301949094525060400152919050565b600080600060608486031215611df557600080fd5b505081359360208301359350604090920135919050565b60008060408385031215611e1f57600080fd5b50508035926020909101359150565b6000815180845260005b81811015611e5457602081850181015186830182015201611e38565b506000602082860101526020601f19601f83011685010191505092915050565b602081526000611e876020830184611e2e565b9392505050565b80151581146117a457600080fd5b60008060408385031215611eaf57600080fd5b823591506020830135611ec181611e8e565b809150509250929050565b6020808252825182820181905260009190848201906040850190845b81811015611f0457835183529284019291840191600101611ee8565b50909695505050505050565b6001600160a01b03811681146117a457600080fd5b634e487b7160e01b600052604160045260246000fd5b600067ffffffffffffffff80841115611f5657611f56611f25565b604051601f8501601f19908116603f01168101908282118183101715611f7e57611f7e611f25565b81604052809350858152868686011115611f9757600080fd5b858560208301376000602087830101525050509392505050565b600082601f830112611fc257600080fd5b611e8783833560208501611f3b565b60008060008060008060c08789031215611fea57600080fd5b8635955060208701359450604087013561200381611f10565b9350606087013567ffffffffffffffff8082111561202057600080fd5b61202c8a838b01611fb1565b9450608089013591508082111561204257600080fd5b61204e8a838b01611fb1565b935060a089013591508082111561206457600080fd5b508701601f8101891361207657600080fd5b61208589823560208401611f3b565b9150509295509295509295565b6000806000606084860312156120a757600080fd5b83356120b281611f10565b925060208401359150604084013567ffffffffffffffff8111156120d557600080fd5b6120e186828701611fb1565b9150509250925092565b6000806000806080858703121561210157600080fd5b843561210c81611f10565b935060208501359250604085013567ffffffffffffffff8082111561213057600080fd5b61213c88838901611fb1565b9350606087013591508082111561215257600080fd5b5061215f87828801611fb1565b91505092959194509250565b6000806040838503121561217e57600080fd5b823567ffffffffffffffff81111561219557600080fd5b6121a185828601611fb1565b95602094909401359450505050565b6000602082840312156121c257600080fd5b8135611e8781611f10565b86815285602082015260018060a01b038516604082015260c0606082015260006121fa60c0830186611e2e565b828103608084015261220c8186611e2e565b905082810360a08401526122208185611e2e565b9998505050505050505050565b602081526000611e876020830184611d80565b60208082526033908201527f496e746572616374696e67207769746820746865206c69627261727920636f6e6040820152723a3930b1ba1034b9903337b93134b23232b71760691b606082015260800190565b60208082526030908201527f5065726d697373696f6e733a2053656e64657220646f6573206e6f742068617660408201526f65206d616e6167656d656e74206b657960801b606082015260800190565b634e487b7160e01b600052603260045260246000fd5b634e487b7160e01b600052601160045260246000fd5b600060018201612321576123216122f9565b5060010190565b60208082526032908201527f5065726d697373696f6e733a2053656e64657220646f6573206e6f74206861766040820152716520636c61696d207369676e6572206b657960701b606082015260800190565b81810381811115610d0057610d006122f9565b634e487b7160e01b600052603160045260246000fd5b600181811c908216806123b757607f821691505b6020821081036123d757634e487b7160e01b600052602260045260246000fd5b50919050565b600081546123ea816123a3565b80855260206001838116801561240757600181146124215761244f565b60ff1985168884015283151560051b88018301955061244f565b866000528260002060005b858110156124475781548a820186015290830190840161242c565b890184019650505b505050505092915050565b84815260806020820152600061247360808301866123dd565b828103604084015261248581866123dd565b9050828103606084015261146681856123dd565b60008083546124a7816123a3565b600182811680156124bf57600181146124d457612503565b60ff1984168752821515830287019450612503565b8760005260208060002060005b858110156124fa5781548a8201529084019082016124e1565b50505082870194505b50929695505050505050565b602081526000611e8760208301846123dd565b60018060a01b03851681528360208201526080604082015260006125496080830185611e2e565b82810360608401526114668185611e2e565b60006020828403121561256d57600080fd5b8151611e8781611e8e565b601f8211156125c257600081815260208120601f850160051c8101602086101561259f5750805b601f850160051c820191505b818110156125be578281556001016125ab565b5050505b505050565b815167ffffffffffffffff8111156125e1576125e1611f25565b6125f5816125ef84546123a3565b84612578565b602080601f83116001811461262a57600084156126125750858301515b600019600386901b1c1916600185901b1785556125be565b600085815260208120601f198616915b828110156126595788860151825594840194600190910190840161263a565b50858210156126775787850151600019600388901b60f8161c191681555b5050505050600190811b01905550565b8481526080602082015260006126a06080830186611e2e565b82810360408401526126b28186611e2e565b905082810360608401526114668185611e2e565b60018060a01b03841681528260208201526060604082015260006126ed6060830184611e2e565b95945050505050565b60ff8181168382160190811115610d0057610d006122f956fea2646970667358221220691c6757b9a02ee092ee4ee658ee822d7fec9527cea8050084f28fa12cc0842764736f6c63430008110033",
					"opcodes": "PUSH1 0x80 PUSH1 0x40 MSTORE PUSH1 0x6 DUP1 SLOAD PUSH2 0xFFFF NOT AND SWAP1 SSTORE CALLVALUE DUP1 ISZERO PUSH3 0x1C JUMPI PUSH1 0x0 DUP1 REVERT JUMPDEST POP PUSH1 0x40 MLOAD PUSH3 0x2A42 CODESIZE SUB DUP1 PUSH3 0x2A42 DUP4 CODECOPY DUP2 ADD PUSH1 0x40 DUP2 SWAP1 MSTORE PUSH3 0x3F SWAP2 PUSH3 0x29F JUMP JUMPDEST PUSH1 0x1 PUSH1 0x1 PUSH1 0xA0 SHL SUB DUP3 AND PUSH3 0x9B JUMPI PUSH1 0x40 MLOAD PUSH3 0x461BCD PUSH1 0xE5 SHL DUP2 MSTORE PUSH1 0x20 PUSH1 0x4 DUP3 ADD MSTORE PUSH1 0x1F PUSH1 0x24 DUP3 ADD MSTORE PUSH32 0x696E76616C696420617267756D656E74202D207A65726F206164647265737300 PUSH1 0x44 DUP3 ADD MSTORE PUSH1 0x64 ADD JUMPDEST PUSH1 0x40 MLOAD DUP1 SWAP2 SUB SWAP1 REVERT JUMPDEST DUP1 PUSH3 0xB2 JUMPI PUSH3 0xAC DUP3 PUSH3 0xC8 JUMP JUMPDEST PUSH3 0xC0 JUMP JUMPDEST PUSH1 0x6 DUP1 SLOAD PUSH1 0xFF NOT AND PUSH1 0x1 OR SWAP1 SSTORE JUMPDEST POP POP PUSH3 0x2ED JUMP JUMPDEST PUSH1 0x6 SLOAD PUSH1 0xFF AND ISZERO DUP1 PUSH3 0xDA JUMPI POP ADDRESS EXTCODESIZE ISZERO JUMPDEST PUSH3 0x128 JUMPI PUSH1 0x40 MLOAD PUSH3 0x461BCD PUSH1 0xE5 SHL DUP2 MSTORE PUSH1 0x20 PUSH1 0x4 DUP3 ADD MSTORE PUSH1 0x1E PUSH1 0x24 DUP3 ADD MSTORE PUSH32 0x496E697469616C206B65792077617320616C72656164792073657475702E0000 PUSH1 0x44 DUP3 ADD MSTORE PUSH1 0x64 ADD PUSH3 0x92 JUMP JUMPDEST PUSH1 0x6 DUP1 SLOAD PUSH2 0xFFFF NOT AND PUSH2 0x101 OR SWAP1 SSTORE PUSH1 0x40 DUP1 MLOAD PUSH1 0x1 PUSH1 0x1 PUSH1 0xA0 SHL SUB DUP4 AND PUSH1 0x20 DUP3 ADD MSTORE PUSH1 0x0 SWAP2 ADD PUSH1 0x40 DUP1 MLOAD PUSH1 0x1F NOT DUP2 DUP5 SUB ADD DUP2 MSTORE DUP3 DUP3 MSTORE DUP1 MLOAD PUSH1 0x20 SWAP2 DUP3 ADD KECCAK256 PUSH1 0x0 DUP2 DUP2 MSTORE PUSH1 0x1 DUP1 DUP5 MSTORE DUP5 DUP3 KECCAK256 PUSH1 0x2 DUP2 ADD DUP5 SWAP1 SSTORE DUP7 DUP6 ADD SWAP1 SWAP6 MSTORE DUP1 DUP7 MSTORE SWAP1 DUP3 SWAP1 MSTORE SWAP2 DUP3 SWAP1 MSTORE SWAP4 POP PUSH3 0x199 SWAP3 SWAP1 PUSH3 0x233 JUMP JUMPDEST POP PUSH1 0x0 DUP2 DUP2 MSTORE PUSH1 0x1 PUSH1 0x20 DUP2 DUP2 MSTORE PUSH1 0x40 DUP1 DUP5 KECCAK256 DUP4 ADD DUP4 SWAP1 SSTORE PUSH1 0x2 SWAP1 SWAP2 MSTORE PUSH32 0xE90B7BCEB6E7DF5418FB78D8EE546E97C83A08BBCCC01A0644D599CCD2A7C2E0 DUP1 SLOAD DUP1 DUP5 ADD DUP3 SSTORE SWAP1 DUP5 MSTORE PUSH32 0x7FEF4BF8F63CF9DD467136C679C02B5C17FCF6322D9562512BF5EB952CF7CC53 ADD DUP5 SWAP1 SSTORE MLOAD SWAP1 SWAP2 DUP3 SWAP2 DUP5 SWAP2 PUSH32 0x480000BB1EDAD8CA1470381CC334B1917FBD51C6531F3A623EA8E0EC7E38A6E9 SWAP2 LOG4 POP POP JUMP JUMPDEST DUP3 DUP1 SLOAD DUP3 DUP3 SSTORE SWAP1 PUSH1 0x0 MSTORE PUSH1 0x20 PUSH1 0x0 KECCAK256 SWAP1 DUP2 ADD SWAP3 DUP3 ISZERO PUSH3 0x276 JUMPI SWAP2 PUSH1 0x20 MUL DUP3 ADD JUMPDEST DUP3 DUP2 GT ISZERO PUSH3 0x276 JUMPI DUP3 MLOAD DUP3 SWAP1 PUSH1 0xFF AND SWAP1 SSTORE SWAP2 PUSH1 0x20 ADD SWAP2 SWAP1 PUSH1 0x1 ADD SWAP1 PUSH3 0x254 JUMP JUMPDEST POP PUSH3 0x284 SWAP3 SWAP2 POP PUSH3 0x288 JUMP JUMPDEST POP SWAP1 JUMP JUMPDEST JUMPDEST DUP1 DUP3 GT ISZERO PUSH3 0x284 JUMPI PUSH1 0x0 DUP2 SSTORE PUSH1 0x1 ADD PUSH3 0x289 JUMP JUMPDEST PUSH1 0x0 DUP1 PUSH1 0x40 DUP4 DUP6 SUB SLT ISZERO PUSH3 0x2B3 JUMPI PUSH1 0x0 DUP1 REVERT JUMPDEST DUP3 MLOAD PUSH1 0x1 PUSH1 0x1 PUSH1 0xA0 SHL SUB DUP2 AND DUP2 EQ PUSH3 0x2CB JUMPI PUSH1 0x0 DUP1 REVERT JUMPDEST PUSH1 0x20 DUP5 ADD MLOAD SWAP1 SWAP3 POP DUP1 ISZERO ISZERO DUP2 EQ PUSH3 0x2E2 JUMPI PUSH1 0x0 DUP1 REVERT JUMPDEST DUP1 SWAP2 POP POP SWAP3 POP SWAP3 SWAP1 POP JUMP JUMPDEST PUSH2 0x2745 DUP1 PUSH3 0x2FD PUSH1 0x0 CODECOPY PUSH1 0x0 RETURN INVALID PUSH1 0x80 PUSH1 0x40 MSTORE PUSH1 0x4 CALLDATASIZE LT PUSH2 0xF3 JUMPI PUSH1 0x0 CALLDATALOAD PUSH1 0xE0 SHR DUP1 PUSH4 0xB1A34E0D GT PUSH2 0x8A JUMPI DUP1 PUSH4 0xC4D66DE8 GT PUSH2 0x59 JUMPI DUP1 PUSH4 0xC4D66DE8 EQ PUSH2 0x2DA JUMPI DUP1 PUSH4 0xC9100BCB EQ PUSH2 0x2FC JUMPI DUP1 PUSH4 0xD202158D EQ PUSH2 0x32E JUMPI DUP1 PUSH4 0xFB307B34 EQ PUSH2 0x34E JUMPI PUSH1 0x0 DUP1 REVERT JUMPDEST DUP1 PUSH4 0xB1A34E0D EQ PUSH2 0x241 JUMPI DUP1 PUSH4 0xB61D27F6 EQ PUSH2 0x26F JUMPI DUP1 PUSH4 0xC0969A6E EQ PUSH2 0x282 JUMPI DUP1 PUSH4 0xC3B129E3 EQ PUSH2 0x2A2 JUMPI PUSH1 0x0 DUP1 REVERT JUMPDEST DUP1 PUSH4 0x54FD4D50 GT PUSH2 0xC6 JUMPI DUP1 PUSH4 0x54FD4D50 EQ PUSH2 0x1A0 JUMPI DUP1 PUSH4 0x747442D3 EQ PUSH2 0x1D4 JUMPI DUP1 PUSH4 0x80E9E9E1 EQ PUSH2 0x1F4 JUMPI DUP1 PUSH4 0x9010F726 EQ PUSH2 0x221 JUMPI PUSH1 0x0 DUP1 REVERT JUMPDEST DUP1 PUSH4 0x12AAAC70 EQ PUSH2 0xF8 JUMPI DUP1 PUSH4 0x1D381240 EQ PUSH2 0x130 JUMPI DUP1 PUSH4 0x4EEE424A EQ PUSH2 0x160 JUMPI DUP1 PUSH4 0x53D413C5 EQ PUSH2 0x180 JUMPI JUMPDEST PUSH1 0x0 DUP1 REVERT JUMPDEST CALLVALUE DUP1 ISZERO PUSH2 0x104 JUMPI PUSH1 0x0 DUP1 REVERT JUMPDEST POP PUSH2 0x118 PUSH2 0x113 CALLDATASIZE PUSH1 0x4 PUSH2 0x1D67 JUMP JUMPDEST PUSH2 0x37B JUMP JUMPDEST PUSH1 0x40 MLOAD PUSH2 0x127 SWAP4 SWAP3 SWAP2 SWAP1 PUSH2 0x1DBB JUMP JUMPDEST PUSH1 0x40 MLOAD DUP1 SWAP2 SUB SWAP1 RETURN JUMPDEST CALLVALUE DUP1 ISZERO PUSH2 0x13C JUMPI PUSH1 0x0 DUP1 REVERT JUMPDEST POP PUSH2 0x150 PUSH2 0x14B CALLDATASIZE PUSH1 0x4 PUSH2 0x1DE0 JUMP JUMPDEST PUSH2 0x3F4 JUMP JUMPDEST PUSH1 0x40 MLOAD SWAP1 ISZERO ISZERO DUP2 MSTORE PUSH1 0x20 ADD PUSH2 0x127 JUMP JUMPDEST CALLVALUE DUP1 ISZERO PUSH2 0x16C JUMPI PUSH1 0x0 DUP1 REVERT JUMPDEST POP PUSH2 0x150 PUSH2 0x17B CALLDATASIZE PUSH1 0x4 PUSH2 0x1D67 JUMP JUMPDEST PUSH2 0x657 JUMP JUMPDEST CALLVALUE DUP1 ISZERO PUSH2 0x18C JUMPI PUSH1 0x0 DUP1 REVERT JUMPDEST POP PUSH2 0x150 PUSH2 0x19B CALLDATASIZE PUSH1 0x4 PUSH2 0x1E0C JUMP JUMPDEST PUSH2 0x916 JUMP JUMPDEST CALLVALUE DUP1 ISZERO PUSH2 0x1AC JUMPI PUSH1 0x0 DUP1 REVERT JUMPDEST POP PUSH1 0x40 DUP1 MLOAD DUP1 DUP3 ADD DUP3 MSTORE PUSH1 0x5 DUP2 MSTORE PUSH5 0x322E322E3 PUSH1 0xDC SHL PUSH1 0x20 DUP3 ADD MSTORE SWAP1 MLOAD PUSH2 0x127 SWAP2 SWAP1 PUSH2 0x1E74 JUMP JUMPDEST CALLVALUE DUP1 ISZERO PUSH2 0x1E0 JUMPI PUSH1 0x0 DUP1 REVERT JUMPDEST POP PUSH2 0x150 PUSH2 0x1EF CALLDATASIZE PUSH1 0x4 PUSH2 0x1E9C JUMP JUMPDEST PUSH2 0xD06 JUMP JUMPDEST CALLVALUE DUP1 ISZERO PUSH2 0x200 JUMPI PUSH1 0x0 DUP1 REVERT JUMPDEST POP PUSH2 0x214 PUSH2 0x20F CALLDATASIZE PUSH1 0x4 PUSH2 0x1D67 JUMP JUMPDEST PUSH2 0x10E3 JUMP JUMPDEST PUSH1 0x40 MLOAD PUSH2 0x127 SWAP2 SWAP1 PUSH2 0x1ECC JUMP JUMPDEST CALLVALUE DUP1 ISZERO PUSH2 0x22D JUMPI PUSH1 0x0 DUP1 REVERT JUMPDEST POP PUSH2 0x214 PUSH2 0x23C CALLDATASIZE PUSH1 0x4 PUSH2 0x1D67 JUMP JUMPDEST PUSH2 0x1145 JUMP JUMPDEST CALLVALUE DUP1 ISZERO PUSH2 0x24D JUMPI PUSH1 0x0 DUP1 REVERT JUMPDEST POP PUSH2 0x261 PUSH2 0x25C CALLDATASIZE PUSH1 0x4 PUSH2 0x1FD1 JUMP JUMPDEST PUSH2 0x11A5 JUMP JUMPDEST PUSH1 0x40 MLOAD SWAP1 DUP2 MSTORE PUSH1 0x20 ADD PUSH2 0x127 JUMP JUMPDEST PUSH2 0x261 PUSH2 0x27D CALLDATASIZE PUSH1 0x4 PUSH2 0x2092 JUMP JUMPDEST PUSH2 0x1471 JUMP JUMPDEST CALLVALUE DUP1 ISZERO PUSH2 0x28E JUMPI PUSH1 0x0 DUP1 REVERT JUMPDEST POP PUSH2 0x150 PUSH2 0x29D CALLDATASIZE PUSH1 0x4 PUSH2 0x20EB JUMP JUMPDEST PUSH2 0x15A3 JUMP JUMPDEST CALLVALUE DUP1 ISZERO PUSH2 0x2AE JUMPI PUSH1 0x0 DUP1 REVERT JUMPDEST POP PUSH2 0x2C2 PUSH2 0x2BD CALLDATASIZE PUSH1 0x4 PUSH2 0x216B JUMP JUMPDEST PUSH2 0x1694 JUMP JUMPDEST PUSH1 0x40 MLOAD PUSH1 0x1 PUSH1 0x1 PUSH1 0xA0 SHL SUB SWAP1 SWAP2 AND DUP2 MSTORE PUSH1 0x20 ADD PUSH2 0x127 JUMP JUMPDEST CALLVALUE DUP1 ISZERO PUSH2 0x2E6 JUMPI PUSH1 0x0 DUP1 REVERT JUMPDEST POP PUSH2 0x2FA PUSH2 0x2F5 CALLDATASIZE PUSH1 0x4 PUSH2 0x21B0 JUMP JUMPDEST PUSH2 0x1745 JUMP JUMPDEST STOP JUMPDEST CALLVALUE DUP1 ISZERO PUSH2 0x308 JUMPI PUSH1 0x0 DUP1 REVERT JUMPDEST POP PUSH2 0x31C PUSH2 0x317 CALLDATASIZE PUSH1 0x4 PUSH2 0x1D67 JUMP JUMPDEST PUSH2 0x17A7 JUMP JUMPDEST PUSH1 0x40 MLOAD PUSH2 0x127 SWAP7 SWAP6 SWAP5 SWAP4 SWAP3 SWAP2 SWAP1 PUSH2 0x21CD JUMP JUMPDEST CALLVALUE DUP1 ISZERO PUSH2 0x33A JUMPI PUSH1 0x0 DUP1 REVERT JUMPDEST POP PUSH2 0x150 PUSH2 0x349 CALLDATASIZE PUSH1 0x4 PUSH2 0x1E0C JUMP JUMPDEST PUSH2 0x19A8 JUMP JUMPDEST CALLVALUE DUP1 ISZERO PUSH2 0x35A JUMPI PUSH1 0x0 DUP1 REVERT JUMPDEST POP PUSH2 0x36E PUSH2 0x369 CALLDATASIZE PUSH1 0x4 PUSH2 0x1D67 JUMP JUMPDEST PUSH2 0x1AA9 JUMP JUMPDEST PUSH1 0x40 MLOAD PUSH2 0x127 SWAP2 SWAP1 PUSH2 0x222D JUMP JUMPDEST PUSH1 0x0 DUP2 DUP2 MSTORE PUSH1 0x1 PUSH1 0x20 DUP2 DUP2 MSTORE PUSH1 0x40 DUP1 DUP5 KECCAK256 SWAP3 DUP4 ADD SLOAD PUSH1 0x2 DUP5 ADD SLOAD DUP5 SLOAD DUP4 MLOAD DUP2 DUP7 MUL DUP2 ADD DUP7 ADD SWAP1 SWAP5 MSTORE DUP1 DUP5 MSTORE PUSH1 0x60 SWAP7 SWAP6 DUP7 SWAP6 SWAP1 SWAP5 SWAP2 DUP6 SWAP2 DUP4 ADD DUP3 DUP3 DUP1 ISZERO PUSH2 0x3E0 JUMPI PUSH1 0x20 MUL DUP3 ADD SWAP2 SWAP1 PUSH1 0x0 MSTORE PUSH1 0x20 PUSH1 0x0 KECCAK256 SWAP1 JUMPDEST DUP2 SLOAD DUP2 MSTORE PUSH1 0x20 ADD SWAP1 PUSH1 0x1 ADD SWAP1 DUP1 DUP4 GT PUSH2 0x3CC JUMPI JUMPDEST POP POP POP POP POP SWAP3 POP SWAP3 POP SWAP3 POP SWAP3 POP SWAP2 SWAP4 SWAP1 SWAP3 POP JUMP JUMPDEST PUSH1 0x6 SLOAD PUSH1 0x0 SWAP1 PUSH1 0xFF PUSH2 0x100 SWAP1 SWAP2 DIV AND ISZERO ISZERO PUSH1 0x1 EQ PUSH2 0x42D JUMPI PUSH1 0x40 MLOAD PUSH3 0x461BCD PUSH1 0xE5 SHL DUP2 MSTORE PUSH1 0x4 ADD PUSH2 0x424 SWAP1 PUSH2 0x2240 JUMP JUMPDEST PUSH1 0x40 MLOAD DUP1 SWAP2 SUB SWAP1 REVERT JUMPDEST CALLER ADDRESS EQ DUP1 PUSH2 0x463 JUMPI POP PUSH1 0x40 DUP1 MLOAD CALLER PUSH1 0x20 DUP3 ADD MSTORE PUSH2 0x463 SWAP2 ADD JUMPDEST PUSH1 0x40 MLOAD PUSH1 0x20 DUP2 DUP4 SUB SUB DUP2 MSTORE SWAP1 PUSH1 0x40 MSTORE DUP1 MLOAD SWAP1 PUSH1 0x20 ADD KECCAK256 PUSH1 0x1 PUSH2 0x19A8 JUMP JUMPDEST PUSH2 0x47F JUMPI PUSH1 0x40 MLOAD PUSH3 0x461BCD PUSH1 0xE5 SHL DUP2 MSTORE PUSH1 0x4 ADD PUSH2 0x424 SWAP1 PUSH2 0x2293 JUMP JUMPDEST PUSH1 0x0 DUP5 DUP2 MSTORE PUSH1 0x1 PUSH1 0x20 MSTORE PUSH1 0x40 SWAP1 KECCAK256 PUSH1 0x2 ADD SLOAD DUP5 SWAP1 SUB PUSH2 0x5B2 JUMPI PUSH1 0x0 DUP5 DUP2 MSTORE PUSH1 0x1 PUSH1 0x20 SWAP1 DUP2 MSTORE PUSH1 0x40 DUP1 DUP4 KECCAK256 DUP1 SLOAD DUP3 MLOAD DUP2 DUP6 MUL DUP2 ADD DUP6 ADD SWAP1 SWAP4 MSTORE DUP1 DUP4 MSTORE SWAP2 SWAP3 SWAP1 SWAP2 SWAP1 DUP4 ADD DUP3 DUP3 DUP1 ISZERO PUSH2 0x4EE JUMPI PUSH1 0x20 MUL DUP3 ADD SWAP2 SWAP1 PUSH1 0x0 MSTORE PUSH1 0x20 PUSH1 0x0 KECCAK256 SWAP1 JUMPDEST DUP2 SLOAD DUP2 MSTORE PUSH1 0x20 ADD SWAP1 PUSH1 0x1 ADD SWAP1 DUP1 DUP4 GT PUSH2 0x4DA JUMPI JUMPDEST POP POP POP POP POP SWAP1 POP PUSH1 0x0 JUMPDEST DUP2 MLOAD DUP2 LT ISZERO PUSH2 0x58B JUMPI PUSH1 0x0 DUP3 DUP3 DUP2 MLOAD DUP2 LT PUSH2 0x515 JUMPI PUSH2 0x515 PUSH2 0x22E3 JUMP JUMPDEST PUSH1 0x20 MUL PUSH1 0x20 ADD ADD MLOAD SWAP1 POP DUP6 DUP2 SUB PUSH2 0x578 JUMPI PUSH1 0x40 MLOAD PUSH3 0x461BCD PUSH1 0xE5 SHL DUP2 MSTORE PUSH1 0x20 PUSH1 0x4 DUP3 ADD MSTORE PUSH1 0x21 PUSH1 0x24 DUP3 ADD MSTORE PUSH32 0x436F6E666C6963743A204B657920616C72656164792068617320707572706F73 PUSH1 0x44 DUP3 ADD MSTORE PUSH1 0x65 PUSH1 0xF8 SHL PUSH1 0x64 DUP3 ADD MSTORE PUSH1 0x84 ADD PUSH2 0x424 JUMP JUMPDEST POP DUP1 PUSH2 0x583 DUP2 PUSH2 0x230F JUMP JUMPDEST SWAP2 POP POP PUSH2 0x4F8 JUMP JUMPDEST POP POP PUSH1 0x0 DUP5 DUP2 MSTORE PUSH1 0x1 PUSH1 0x20 DUP2 DUP2 MSTORE PUSH1 0x40 DUP4 KECCAK256 DUP1 SLOAD SWAP3 DUP4 ADD DUP2 SSTORE DUP4 MSTORE SWAP1 SWAP2 KECCAK256 ADD DUP4 SWAP1 SSTORE PUSH2 0x5FE JUMP JUMPDEST PUSH1 0x0 DUP5 DUP2 MSTORE PUSH1 0x1 PUSH1 0x20 DUP2 DUP2 MSTORE PUSH1 0x40 DUP1 DUP5 KECCAK256 PUSH1 0x2 DUP2 ADD DUP10 SWAP1 SSTORE DUP2 MLOAD DUP1 DUP5 ADD SWAP1 SWAP3 MSTORE DUP8 DUP3 MSTORE SWAP4 DUP9 SWAP1 MSTORE SWAP1 DUP3 SWAP1 MSTORE PUSH2 0x5E7 SWAP3 SWAP2 PUSH2 0x1C6F JUMP JUMPDEST POP PUSH1 0x0 DUP5 DUP2 MSTORE PUSH1 0x1 PUSH1 0x20 DUP2 SWAP1 MSTORE PUSH1 0x40 SWAP1 SWAP2 KECCAK256 ADD DUP3 SWAP1 SSTORE JUMPDEST PUSH1 0x0 DUP4 DUP2 MSTORE PUSH1 0x2 PUSH1 0x20 SWAP1 DUP2 MSTORE PUSH1 0x40 DUP1 DUP4 KECCAK256 DUP1 SLOAD PUSH1 0x1 DUP2 ADD DUP3 SSTORE SWAP1 DUP5 MSTORE SWAP2 DUP4 KECCAK256 SWAP1 SWAP2 ADD DUP7 SWAP1 SSTORE MLOAD DUP4 SWAP2 DUP6 SWAP2 DUP8 SWAP2 PUSH32 0x480000BB1EDAD8CA1470381CC334B1917FBD51C6531F3A623EA8E0EC7E38A6E9 SWAP2 LOG4 POP PUSH1 0x1 SWAP4 SWAP3 POP POP POP JUMP JUMPDEST PUSH1 0x6 SLOAD PUSH1 0x0 SWAP1 PUSH1 0xFF PUSH2 0x100 SWAP1 SWAP2 DIV AND ISZERO ISZERO PUSH1 0x1 EQ PUSH2 0x687 JUMPI PUSH1 0x40 MLOAD PUSH3 0x461BCD PUSH1 0xE5 SHL DUP2 MSTORE PUSH1 0x4 ADD PUSH2 0x424 SWAP1 PUSH2 0x2240 JUMP JUMPDEST CALLER ADDRESS EQ DUP1 PUSH2 0x6BD JUMPI POP PUSH1 0x40 DUP1 MLOAD CALLER PUSH1 0x20 DUP3 ADD MSTORE PUSH2 0x6BD SWAP2 ADD JUMPDEST PUSH1 0x40 MLOAD PUSH1 0x20 DUP2 DUP4 SUB SUB DUP2 MSTORE SWAP1 PUSH1 0x40 MSTORE DUP1 MLOAD SWAP1 PUSH1 0x20 ADD KECCAK256 PUSH1 0x3 PUSH2 0x19A8 JUMP JUMPDEST PUSH2 0x6D9 JUMPI PUSH1 0x40 MLOAD PUSH3 0x461BCD PUSH1 0xE5 SHL DUP2 MSTORE PUSH1 0x4 ADD PUSH2 0x424 SWAP1 PUSH2 0x2328 JUMP JUMPDEST PUSH1 0x0 DUP3 DUP2 MSTORE PUSH1 0x4 PUSH1 0x20 MSTORE PUSH1 0x40 DUP2 KECCAK256 SLOAD SWAP1 DUP2 SWAP1 SUB PUSH2 0x74C JUMPI PUSH1 0x40 MLOAD PUSH3 0x461BCD PUSH1 0xE5 SHL DUP2 MSTORE PUSH1 0x20 PUSH1 0x4 DUP3 ADD MSTORE PUSH1 0x2B PUSH1 0x24 DUP3 ADD MSTORE PUSH32 0x4E6F6E4578697374696E673A205468657265206973206E6F20636C61696D2077 PUSH1 0x44 DUP3 ADD MSTORE PUSH11 0x1A5D1A081D1A1A5CC81251 PUSH1 0xAA SHL PUSH1 0x64 DUP3 ADD MSTORE PUSH1 0x84 ADD PUSH2 0x424 JUMP JUMPDEST PUSH1 0x0 DUP2 DUP2 MSTORE PUSH1 0x5 PUSH1 0x20 MSTORE PUSH1 0x40 DUP2 KECCAK256 SLOAD JUMPDEST PUSH1 0x0 DUP4 DUP2 MSTORE PUSH1 0x5 PUSH1 0x20 MSTORE PUSH1 0x40 SWAP1 KECCAK256 DUP1 SLOAD DUP7 SWAP2 SWAP1 DUP5 SWAP1 DUP2 LT PUSH2 0x77F JUMPI PUSH2 0x77F PUSH2 0x22E3 JUMP JUMPDEST SWAP1 PUSH1 0x0 MSTORE PUSH1 0x20 PUSH1 0x0 KECCAK256 ADD SLOAD EQ PUSH2 0x7A4 JUMPI DUP2 PUSH2 0x799 DUP2 PUSH2 0x230F JUMP JUMPDEST SWAP3 POP POP DUP1 DUP3 LT PUSH2 0x75C JUMPI JUMPDEST PUSH1 0x0 DUP4 DUP2 MSTORE PUSH1 0x5 PUSH1 0x20 MSTORE PUSH1 0x40 SWAP1 KECCAK256 PUSH2 0x7BD PUSH1 0x1 DUP4 PUSH2 0x237A JUMP JUMPDEST DUP2 SLOAD DUP2 LT PUSH2 0x7CD JUMPI PUSH2 0x7CD PUSH2 0x22E3 JUMP JUMPDEST SWAP1 PUSH1 0x0 MSTORE PUSH1 0x20 PUSH1 0x0 KECCAK256 ADD SLOAD PUSH1 0x5 PUSH1 0x0 DUP6 DUP2 MSTORE PUSH1 0x20 ADD SWAP1 DUP2 MSTORE PUSH1 0x20 ADD PUSH1 0x0 KECCAK256 DUP4 DUP2 SLOAD DUP2 LT PUSH2 0x7FC JUMPI PUSH2 0x7FC PUSH2 0x22E3 JUMP JUMPDEST SWAP1 PUSH1 0x0 MSTORE PUSH1 0x20 PUSH1 0x0 KECCAK256 ADD DUP2 SWAP1 SSTORE POP PUSH1 0x5 PUSH1 0x0 DUP5 DUP2 MSTORE PUSH1 0x20 ADD SWAP1 DUP2 MSTORE PUSH1 0x20 ADD PUSH1 0x0 KECCAK256 DUP1 SLOAD DUP1 PUSH2 0x82C JUMPI PUSH2 0x82C PUSH2 0x238D JUMP JUMPDEST PUSH1 0x0 DUP3 DUP2 MSTORE PUSH1 0x20 DUP1 DUP3 KECCAK256 DUP4 ADD PUSH1 0x0 NOT SWAP1 DUP2 ADD DUP4 SWAP1 SSTORE SWAP1 SWAP3 ADD SWAP1 SWAP3 SSTORE DUP7 DUP3 MSTORE PUSH1 0x4 SWAP1 DUP2 SWAP1 MSTORE PUSH1 0x40 SWAP2 DUP3 SWAP1 KECCAK256 PUSH1 0x2 DUP2 ADD SLOAD PUSH1 0x1 DUP3 ADD SLOAD SWAP4 MLOAD PUSH1 0x1 PUSH1 0x1 PUSH1 0xA0 SHL SUB SWAP1 SWAP2 AND SWAP4 DUP8 SWAP4 DUP11 SWAP4 PUSH32 0x3CF57863A89432C61C4A27073C6EE39E8A764BFF5A05AEBFBCDCDC80B2E6130A SWAP4 PUSH2 0x8AD SWAP4 SWAP3 PUSH1 0x3 DUP4 ADD SWAP3 SWAP1 DUP2 ADD SWAP2 PUSH1 0x5 SWAP1 SWAP2 ADD SWAP1 PUSH2 0x245A JUMP JUMPDEST PUSH1 0x40 MLOAD DUP1 SWAP2 SUB SWAP1 LOG4 PUSH1 0x0 DUP6 DUP2 MSTORE PUSH1 0x4 PUSH1 0x20 MSTORE PUSH1 0x40 DUP2 KECCAK256 DUP2 DUP2 SSTORE PUSH1 0x1 DUP2 ADD DUP3 SWAP1 SSTORE PUSH1 0x2 DUP2 ADD DUP1 SLOAD PUSH1 0x1 PUSH1 0x1 PUSH1 0xA0 SHL SUB NOT AND SWAP1 SSTORE SWAP1 PUSH2 0x8ED PUSH1 0x3 DUP4 ADD DUP3 PUSH2 0x1CBA JUMP JUMPDEST PUSH2 0x8FB PUSH1 0x4 DUP4 ADD PUSH1 0x0 PUSH2 0x1CBA JUMP JUMPDEST PUSH2 0x909 PUSH1 0x5 DUP4 ADD PUSH1 0x0 PUSH2 0x1CBA JUMP JUMPDEST POP PUSH1 0x1 SWAP7 SWAP6 POP POP POP POP POP POP JUMP JUMPDEST PUSH1 0x6 SLOAD PUSH1 0x0 SWAP1 PUSH1 0xFF PUSH2 0x100 SWAP1 SWAP2 DIV AND ISZERO ISZERO PUSH1 0x1 EQ PUSH2 0x946 JUMPI PUSH1 0x40 MLOAD PUSH3 0x461BCD PUSH1 0xE5 SHL DUP2 MSTORE PUSH1 0x4 ADD PUSH2 0x424 SWAP1 PUSH2 0x2240 JUMP JUMPDEST CALLER ADDRESS EQ DUP1 PUSH2 0x963 JUMPI POP PUSH1 0x40 DUP1 MLOAD CALLER PUSH1 0x20 DUP3 ADD MSTORE PUSH2 0x963 SWAP2 ADD PUSH2 0x446 JUMP JUMPDEST PUSH2 0x97F JUMPI PUSH1 0x40 MLOAD PUSH3 0x461BCD PUSH1 0xE5 SHL DUP2 MSTORE PUSH1 0x4 ADD PUSH2 0x424 SWAP1 PUSH2 0x2293 JUMP JUMPDEST PUSH1 0x0 DUP4 DUP2 MSTORE PUSH1 0x1 PUSH1 0x20 MSTORE PUSH1 0x40 SWAP1 KECCAK256 PUSH1 0x2 ADD SLOAD DUP4 EQ PUSH2 0x9E9 JUMPI PUSH1 0x40 MLOAD PUSH3 0x461BCD PUSH1 0xE5 SHL DUP2 MSTORE PUSH1 0x20 PUSH1 0x4 DUP3 ADD MSTORE PUSH1 0x21 PUSH1 0x24 DUP3 ADD MSTORE PUSH32 0x4E6F6E4578697374696E673A204B65792069736E277420726567697374657265 PUSH1 0x44 DUP3 ADD MSTORE PUSH1 0x19 PUSH1 0xFA SHL PUSH1 0x64 DUP3 ADD MSTORE PUSH1 0x84 ADD PUSH2 0x424 JUMP JUMPDEST PUSH1 0x0 DUP4 DUP2 MSTORE PUSH1 0x1 PUSH1 0x20 SWAP1 DUP2 MSTORE PUSH1 0x40 DUP1 DUP4 KECCAK256 DUP1 SLOAD DUP3 MLOAD DUP2 DUP6 MUL DUP2 ADD DUP6 ADD SWAP1 SWAP4 MSTORE DUP1 DUP4 MSTORE SWAP2 SWAP3 SWAP1 SWAP2 SWAP1 DUP4 ADD DUP3 DUP3 DUP1 ISZERO PUSH2 0xA3F JUMPI PUSH1 0x20 MUL DUP3 ADD SWAP2 SWAP1 PUSH1 0x0 MSTORE PUSH1 0x20 PUSH1 0x0 KECCAK256 SWAP1 JUMPDEST DUP2 SLOAD DUP2 MSTORE PUSH1 0x20 ADD SWAP1 PUSH1 0x1 ADD SWAP1 DUP1 DUP4 GT PUSH2 0xA2B JUMPI JUMPDEST POP POP POP POP POP SWAP1 POP PUSH1 0x0 JUMPDEST DUP4 DUP3 DUP3 DUP2 MLOAD DUP2 LT PUSH2 0xA5C JUMPI PUSH2 0xA5C PUSH2 0x22E3 JUMP JUMPDEST PUSH1 0x20 MUL PUSH1 0x20 ADD ADD MLOAD EQ PUSH2 0xADE JUMPI DUP1 PUSH2 0xA73 DUP2 PUSH2 0x230F JUMP JUMPDEST SWAP2 POP POP DUP2 MLOAD DUP2 SUB PUSH2 0xAD9 JUMPI PUSH1 0x40 MLOAD PUSH3 0x461BCD PUSH1 0xE5 SHL DUP2 MSTORE PUSH1 0x20 PUSH1 0x4 DUP3 ADD MSTORE PUSH1 0x2A PUSH1 0x24 DUP3 ADD MSTORE PUSH32 0x4E6F6E4578697374696E673A204B657920646F65736E27742068617665207375 PUSH1 0x44 DUP3 ADD MSTORE PUSH10 0x636820707572706F7365 PUSH1 0xB0 SHL PUSH1 0x64 DUP3 ADD MSTORE PUSH1 0x84 ADD PUSH2 0x424 JUMP JUMPDEST PUSH2 0xA49 JUMP JUMPDEST DUP2 PUSH1 0x1 DUP4 MLOAD PUSH2 0xAED SWAP2 SWAP1 PUSH2 0x237A JUMP JUMPDEST DUP2 MLOAD DUP2 LT PUSH2 0xAFD JUMPI PUSH2 0xAFD PUSH2 0x22E3 JUMP JUMPDEST PUSH1 0x20 MUL PUSH1 0x20 ADD ADD MLOAD DUP3 DUP3 DUP2 MLOAD DUP2 LT PUSH2 0xB17 JUMPI PUSH2 0xB17 PUSH2 0x22E3 JUMP JUMPDEST PUSH1 0x20 SWAP1 DUP2 MUL SWAP2 SWAP1 SWAP2 ADD DUP2 ADD SWAP2 SWAP1 SWAP2 MSTORE PUSH1 0x0 DUP7 DUP2 MSTORE PUSH1 0x1 DUP3 MSTORE PUSH1 0x40 SWAP1 KECCAK256 DUP4 MLOAD PUSH2 0xB41 SWAP3 DUP6 ADD SWAP1 PUSH2 0x1C6F JUMP JUMPDEST POP PUSH1 0x0 DUP6 DUP2 MSTORE PUSH1 0x1 PUSH1 0x20 MSTORE PUSH1 0x40 SWAP1 KECCAK256 DUP1 SLOAD DUP1 PUSH2 0xB5F JUMPI PUSH2 0xB5F PUSH2 0x238D JUMP JUMPDEST PUSH1 0x0 DUP3 DUP2 MSTORE PUSH1 0x20 DUP1 DUP3 KECCAK256 DUP4 ADD PUSH1 0x0 NOT SWAP1 DUP2 ADD DUP4 SWAP1 SSTORE SWAP1 SWAP3 ADD SWAP1 SWAP3 SSTORE DUP6 DUP3 MSTORE PUSH1 0x2 SWAP1 MSTORE PUSH1 0x40 DUP2 KECCAK256 SLOAD JUMPDEST PUSH1 0x0 DUP7 DUP2 MSTORE PUSH1 0x2 PUSH1 0x20 MSTORE PUSH1 0x40 SWAP1 KECCAK256 DUP1 SLOAD DUP9 SWAP2 SWAP1 DUP5 SWAP1 DUP2 LT PUSH2 0xBAA JUMPI PUSH2 0xBAA PUSH2 0x22E3 JUMP JUMPDEST SWAP1 PUSH1 0x0 MSTORE PUSH1 0x20 PUSH1 0x0 KECCAK256 ADD SLOAD EQ PUSH2 0xBCF JUMPI DUP2 PUSH2 0xBC4 DUP2 PUSH2 0x230F JUMP JUMPDEST SWAP3 POP POP DUP1 DUP3 LT PUSH2 0xB87 JUMPI JUMPDEST PUSH1 0x0 DUP7 DUP2 MSTORE PUSH1 0x2 PUSH1 0x20 MSTORE PUSH1 0x40 SWAP1 KECCAK256 PUSH2 0xBE8 PUSH1 0x1 DUP4 PUSH2 0x237A JUMP JUMPDEST DUP2 SLOAD DUP2 LT PUSH2 0xBF8 JUMPI PUSH2 0xBF8 PUSH2 0x22E3 JUMP JUMPDEST SWAP1 PUSH1 0x0 MSTORE PUSH1 0x20 PUSH1 0x0 KECCAK256 ADD SLOAD PUSH1 0x2 PUSH1 0x0 DUP9 DUP2 MSTORE PUSH1 0x20 ADD SWAP1 DUP2 MSTORE PUSH1 0x20 ADD PUSH1 0x0 KECCAK256 DUP4 DUP2 SLOAD DUP2 LT PUSH2 0xC27 JUMPI PUSH2 0xC27 PUSH2 0x22E3 JUMP JUMPDEST SWAP1 PUSH1 0x0 MSTORE PUSH1 0x20 PUSH1 0x0 KECCAK256 ADD DUP2 SWAP1 SSTORE POP PUSH1 0x2 PUSH1 0x0 DUP8 DUP2 MSTORE PUSH1 0x20 ADD SWAP1 DUP2 MSTORE PUSH1 0x20 ADD PUSH1 0x0 KECCAK256 DUP1 SLOAD DUP1 PUSH2 0xC57 JUMPI PUSH2 0xC57 PUSH2 0x238D JUMP JUMPDEST PUSH1 0x1 SWAP1 SUB DUP2 DUP2 SWAP1 PUSH1 0x0 MSTORE PUSH1 0x20 PUSH1 0x0 KECCAK256 ADD PUSH1 0x0 SWAP1 SSTORE SWAP1 SSTORE PUSH1 0x0 PUSH1 0x1 PUSH1 0x0 DUP10 DUP2 MSTORE PUSH1 0x20 ADD SWAP1 DUP2 MSTORE PUSH1 0x20 ADD PUSH1 0x0 KECCAK256 PUSH1 0x1 ADD SLOAD SWAP1 POP PUSH1 0x1 DUP6 MLOAD PUSH2 0xC96 SWAP2 SWAP1 PUSH2 0x237A JUMP JUMPDEST PUSH1 0x0 SUB PUSH2 0xCC7 JUMPI PUSH1 0x0 DUP9 DUP2 MSTORE PUSH1 0x1 PUSH1 0x20 MSTORE PUSH1 0x40 DUP2 KECCAK256 SWAP1 PUSH2 0xCB6 DUP3 DUP3 PUSH2 0x1CF4 JUMP JUMPDEST POP PUSH1 0x0 PUSH1 0x1 DUP3 ADD DUP2 SWAP1 SSTORE PUSH1 0x2 SWAP1 SWAP2 ADD SSTORE JUMPDEST DUP1 DUP8 DUP10 PUSH32 0x585A4AEF50F8267A92B32412B331B20F7F8B96F2245B253B9CC50DCC621D3397 PUSH1 0x40 MLOAD PUSH1 0x40 MLOAD DUP1 SWAP2 SUB SWAP1 LOG4 PUSH1 0x1 SWAP6 POP POP POP POP POP POP JUMPDEST SWAP3 SWAP2 POP POP JUMP JUMPDEST PUSH1 0x6 SLOAD PUSH1 0x0 SWAP1 PUSH1 0xFF PUSH2 0x100 SWAP1 SWAP2 DIV AND ISZERO ISZERO PUSH1 0x1 EQ PUSH2 0xD36 JUMPI PUSH1 0x40 MLOAD PUSH3 0x461BCD PUSH1 0xE5 SHL DUP2 MSTORE PUSH1 0x4 ADD PUSH2 0x424 SWAP1 PUSH2 0x2240 JUMP JUMPDEST PUSH1 0x0 SLOAD DUP4 LT PUSH2 0xD97 JUMPI PUSH1 0x40 MLOAD PUSH3 0x461BCD PUSH1 0xE5 SHL DUP2 MSTORE PUSH1 0x20 PUSH1 0x4 DUP3 ADD MSTORE PUSH1 0x27 PUSH1 0x24 DUP3 ADD MSTORE PUSH32 0x43616E6E6F7420617070726F76652061206E6F6E2D6578697374696E67206578 PUSH1 0x44 DUP3 ADD MSTORE PUSH7 0x32B1BABA34B7B7 PUSH1 0xC9 SHL PUSH1 0x64 DUP3 ADD MSTORE PUSH1 0x84 ADD PUSH2 0x424 JUMP JUMPDEST PUSH1 0x0 DUP4 DUP2 MSTORE PUSH1 0x3 PUSH1 0x20 DUP2 SWAP1 MSTORE PUSH1 0x40 SWAP1 SWAP2 KECCAK256 ADD SLOAD PUSH2 0x100 SWAP1 DIV PUSH1 0xFF AND ISZERO PUSH2 0xDFF JUMPI PUSH1 0x40 MLOAD PUSH3 0x461BCD PUSH1 0xE5 SHL DUP2 MSTORE PUSH1 0x20 PUSH1 0x4 DUP3 ADD MSTORE PUSH1 0x18 PUSH1 0x24 DUP3 ADD MSTORE PUSH32 0x5265717565737420616C72656164792065786563757465640000000000000000 PUSH1 0x44 DUP3 ADD MSTORE PUSH1 0x64 ADD PUSH2 0x424 JUMP JUMPDEST PUSH1 0x0 DUP4 DUP2 MSTORE PUSH1 0x3 PUSH1 0x20 MSTORE PUSH1 0x40 SWAP1 KECCAK256 SLOAD ADDRESS PUSH1 0x1 PUSH1 0x1 PUSH1 0xA0 SHL SUB SWAP1 SWAP2 AND SUB PUSH2 0xE90 JUMPI PUSH1 0x40 DUP1 MLOAD CALLER PUSH1 0x20 DUP3 ADD MSTORE PUSH2 0xE33 SWAP2 ADD PUSH2 0x446 JUMP JUMPDEST PUSH2 0xE8B JUMPI PUSH1 0x40 MLOAD PUSH3 0x461BCD PUSH1 0xE5 SHL DUP2 MSTORE PUSH1 0x20 PUSH1 0x4 DUP3 ADD MSTORE PUSH1 0x23 PUSH1 0x24 DUP3 ADD MSTORE PUSH32 0x53656E64657220646F6573206E6F742068617665206D616E6167656D656E7420 PUSH1 0x44 DUP3 ADD MSTORE PUSH3 0x6B6579 PUSH1 0xE8 SHL PUSH1 0x64 DUP3 ADD MSTORE PUSH1 0x84 ADD PUSH2 0x424 JUMP JUMPDEST PUSH2 0xF09 JUMP JUMPDEST PUSH1 0x40 DUP1 MLOAD CALLER PUSH1 0x20 DUP3 ADD MSTORE PUSH2 0xEBD SWAP2 ADD JUMPDEST PUSH1 0x40 MLOAD PUSH1 0x20 DUP2 DUP4 SUB SUB DUP2 MSTORE SWAP1 PUSH1 0x40 MSTORE DUP1 MLOAD SWAP1 PUSH1 0x20 ADD KECCAK256 PUSH1 0x2 PUSH2 0x19A8 JUMP JUMPDEST PUSH2 0xF09 JUMPI PUSH1 0x40 MLOAD PUSH3 0x461BCD PUSH1 0xE5 SHL DUP2 MSTORE PUSH1 0x20 PUSH1 0x4 DUP3 ADD MSTORE PUSH1 0x1F PUSH1 0x24 DUP3 ADD MSTORE PUSH32 0x53656E64657220646F6573206E6F74206861766520616374696F6E206B657900 PUSH1 0x44 DUP3 ADD MSTORE PUSH1 0x64 ADD PUSH2 0x424 JUMP JUMPDEST DUP3 PUSH32 0xB3932DA477FE5D6C8FF2EAFEF050C0F3A1AF18FC07121001482600F36F3715D8 DUP4 PUSH1 0x40 MLOAD PUSH2 0xF3D SWAP2 ISZERO ISZERO DUP2 MSTORE PUSH1 0x20 ADD SWAP1 JUMP JUMPDEST PUSH1 0x40 MLOAD DUP1 SWAP2 SUB SWAP1 LOG2 DUP2 ISZERO ISZERO PUSH1 0x1 SUB PUSH2 0x10C5 JUMPI PUSH1 0x0 DUP4 DUP2 MSTORE PUSH1 0x3 PUSH1 0x20 DUP2 SWAP1 MSTORE PUSH1 0x40 SWAP2 DUP3 SWAP1 KECCAK256 SWAP1 DUP2 ADD DUP1 SLOAD PUSH1 0xFF NOT AND PUSH1 0x1 SWAP1 DUP2 OR SWAP1 SWAP2 SSTORE DUP2 SLOAD SWAP1 DUP3 ADD SLOAD SWAP3 MLOAD PUSH1 0x1 PUSH1 0x1 PUSH1 0xA0 SHL SUB SWAP1 SWAP2 AND SWAP3 SWAP2 PUSH2 0xF96 SWAP2 PUSH1 0x2 SWAP1 SWAP2 ADD SWAP1 PUSH2 0x2499 JUMP JUMPDEST PUSH1 0x0 PUSH1 0x40 MLOAD DUP1 DUP4 SUB DUP2 DUP6 DUP8 GAS CALL SWAP3 POP POP POP RETURNDATASIZE DUP1 PUSH1 0x0 DUP2 EQ PUSH2 0xFD3 JUMPI PUSH1 0x40 MLOAD SWAP2 POP PUSH1 0x1F NOT PUSH1 0x3F RETURNDATASIZE ADD AND DUP3 ADD PUSH1 0x40 MSTORE RETURNDATASIZE DUP3 MSTORE RETURNDATASIZE PUSH1 0x0 PUSH1 0x20 DUP5 ADD RETURNDATACOPY PUSH2 0xFD8 JUMP JUMPDEST PUSH1 0x60 SWAP2 POP JUMPDEST POP SWAP1 SWAP2 POP POP DUP1 ISZERO PUSH2 0x105D JUMPI PUSH1 0x0 DUP4 DUP2 MSTORE PUSH1 0x3 PUSH1 0x20 DUP2 SWAP1 MSTORE PUSH1 0x40 SWAP2 DUP3 SWAP1 KECCAK256 SWAP1 DUP2 ADD DUP1 SLOAD PUSH2 0xFF00 NOT AND PUSH2 0x100 OR SWAP1 SSTORE PUSH1 0x1 DUP2 ADD SLOAD DUP2 SLOAD SWAP3 MLOAD SWAP1 SWAP3 PUSH1 0x1 PUSH1 0x1 PUSH1 0xA0 SHL SUB AND SWAP2 DUP7 SWAP2 PUSH32 0x1F920DBDA597D7BF95035464170FA58D0A4B57F13A1C315ACE6793B9F63688B8 SWAP2 PUSH2 0x104D SWAP2 PUSH1 0x2 SWAP1 SWAP2 ADD SWAP1 PUSH2 0x250F JUMP JUMPDEST PUSH1 0x40 MLOAD DUP1 SWAP2 SUB SWAP1 LOG4 POP PUSH1 0x1 PUSH2 0xD00 JUMP JUMPDEST PUSH1 0x0 DUP4 DUP2 MSTORE PUSH1 0x3 PUSH1 0x20 MSTORE PUSH1 0x40 SWAP1 DUP2 SWAP1 KECCAK256 PUSH1 0x1 DUP2 ADD SLOAD DUP2 SLOAD SWAP3 MLOAD SWAP1 SWAP3 PUSH1 0x1 PUSH1 0x1 PUSH1 0xA0 SHL SUB AND SWAP2 DUP7 SWAP2 PUSH32 0xE10C49D9F7C71DA23262367013434763CFDB2332267641728D25CD712C5C6A68 SWAP2 PUSH2 0x10B5 SWAP2 PUSH1 0x2 SWAP1 SWAP2 ADD SWAP1 PUSH2 0x250F JUMP JUMPDEST PUSH1 0x40 MLOAD DUP1 SWAP2 SUB SWAP1 LOG4 POP PUSH1 0x0 PUSH2 0xD00 JUMP JUMPDEST POP POP PUSH1 0x0 SWAP1 DUP2 MSTORE PUSH1 0x3 PUSH1 0x20 DUP2 SWAP1 MSTORE PUSH1 0x40 DUP3 KECCAK256 ADD DUP1 SLOAD PUSH1 0xFF NOT AND SWAP1 SSTORE SWAP1 JUMP JUMPDEST PUSH1 0x0 DUP2 DUP2 MSTORE PUSH1 0x5 PUSH1 0x20 SWAP1 DUP2 MSTORE PUSH1 0x40 SWAP2 DUP3 SWAP1 KECCAK256 DUP1 SLOAD DUP4 MLOAD DUP2 DUP5 MUL DUP2 ADD DUP5 ADD SWAP1 SWAP5 MSTORE DUP1 DUP5 MSTORE PUSH1 0x60 SWAP4 SWAP3 DUP4 ADD DUP3 DUP3 DUP1 ISZERO PUSH2 0x1139 JUMPI PUSH1 0x20 MUL DUP3 ADD SWAP2 SWAP1 PUSH1 0x0 MSTORE PUSH1 0x20 PUSH1 0x0 KECCAK256 SWAP1 JUMPDEST DUP2 SLOAD DUP2 MSTORE PUSH1 0x20 ADD SWAP1 PUSH1 0x1 ADD SWAP1 DUP1 DUP4 GT PUSH2 0x1125 JUMPI JUMPDEST POP POP POP POP POP SWAP1 POP SWAP2 SWAP1 POP JUMP JUMPDEST PUSH1 0x0 DUP2 DUP2 MSTORE PUSH1 0x2 PUSH1 0x20 SWAP1 DUP2 MSTORE PUSH1 0x40 SWAP2 DUP3 SWAP1 KECCAK256 DUP1 SLOAD DUP4 MLOAD DUP2 DUP5 MUL DUP2 ADD DUP5 ADD SWAP1 SWAP5 MSTORE DUP1 DUP5 MSTORE PUSH1 0x60 SWAP4 SWAP3 DUP4 ADD DUP3 DUP3 DUP1 ISZERO PUSH2 0x1139 JUMPI PUSH1 0x20 MUL DUP3 ADD SWAP2 SWAP1 PUSH1 0x0 MSTORE PUSH1 0x20 PUSH1 0x0 KECCAK256 SWAP1 DUP2 SLOAD DUP2 MSTORE PUSH1 0x20 ADD SWAP1 PUSH1 0x1 ADD SWAP1 DUP1 DUP4 GT PUSH2 0x1125 JUMPI POP POP POP POP POP SWAP1 POP SWAP2 SWAP1 POP JUMP JUMPDEST PUSH1 0x6 SLOAD PUSH1 0x0 SWAP1 PUSH1 0xFF PUSH2 0x100 SWAP1 SWAP2 DIV AND ISZERO ISZERO PUSH1 0x1 EQ PUSH2 0x11D5 JUMPI PUSH1 0x40 MLOAD PUSH3 0x461BCD PUSH1 0xE5 SHL DUP2 MSTORE PUSH1 0x4 ADD PUSH2 0x424 SWAP1 PUSH2 0x2240 JUMP JUMPDEST CALLER ADDRESS EQ DUP1 PUSH2 0x11F2 JUMPI POP PUSH1 0x40 DUP1 MLOAD CALLER PUSH1 0x20 DUP3 ADD MSTORE PUSH2 0x11F2 SWAP2 ADD PUSH2 0x6A0 JUMP JUMPDEST PUSH2 0x120E JUMPI PUSH1 0x40 MLOAD PUSH3 0x461BCD PUSH1 0xE5 SHL DUP2 MSTORE PUSH1 0x4 ADD PUSH2 0x424 SWAP1 PUSH2 0x2328 JUMP JUMPDEST PUSH1 0x1 PUSH1 0x1 PUSH1 0xA0 SHL SUB DUP6 AND ADDRESS EQ PUSH2 0x12CD JUMPI PUSH1 0x40 MLOAD PUSH4 0x604B4D37 PUSH1 0xE1 SHL DUP2 MSTORE PUSH1 0x1 PUSH1 0x1 PUSH1 0xA0 SHL SUB DUP7 AND SWAP1 PUSH4 0xC0969A6E SWAP1 PUSH2 0x1250 SWAP1 ADDRESS SWAP1 DUP12 SWAP1 DUP10 SWAP1 DUP10 SWAP1 PUSH1 0x4 ADD PUSH2 0x2522 JUMP JUMPDEST PUSH1 0x20 PUSH1 0x40 MLOAD DUP1 DUP4 SUB DUP2 DUP7 GAS STATICCALL ISZERO DUP1 ISZERO PUSH2 0x126D JUMPI RETURNDATASIZE PUSH1 0x0 DUP1 RETURNDATACOPY RETURNDATASIZE PUSH1 0x0 REVERT JUMPDEST POP POP POP POP PUSH1 0x40 MLOAD RETURNDATASIZE PUSH1 0x1F NOT PUSH1 0x1F DUP3 ADD AND DUP3 ADD DUP1 PUSH1 0x40 MSTORE POP DUP2 ADD SWAP1 PUSH2 0x1291 SWAP2 SWAP1 PUSH2 0x255B JUMP JUMPDEST PUSH2 0x12CD JUMPI PUSH1 0x40 MLOAD PUSH3 0x461BCD PUSH1 0xE5 SHL DUP2 MSTORE PUSH1 0x20 PUSH1 0x4 DUP3 ADD MSTORE PUSH1 0xD PUSH1 0x24 DUP3 ADD MSTORE PUSH13 0x696E76616C696420636C61696D PUSH1 0x98 SHL PUSH1 0x44 DUP3 ADD MSTORE PUSH1 0x64 ADD PUSH2 0x424 JUMP JUMPDEST PUSH1 0x40 DUP1 MLOAD PUSH1 0x1 PUSH1 0x1 PUSH1 0xA0 SHL SUB DUP8 AND PUSH1 0x20 DUP3 ADD MSTORE SWAP1 DUP2 ADD DUP9 SWAP1 MSTORE PUSH1 0x0 SWAP1 PUSH1 0x60 ADD PUSH1 0x40 DUP1 MLOAD PUSH1 0x1F NOT DUP2 DUP5 SUB ADD DUP2 MSTORE SWAP2 DUP2 MSTORE DUP2 MLOAD PUSH1 0x20 SWAP3 DUP4 ADD KECCAK256 PUSH1 0x0 DUP2 DUP2 MSTORE PUSH1 0x4 SWAP1 SWAP4 MSTORE SWAP2 KECCAK256 DUP10 DUP2 SSTORE PUSH1 0x1 DUP2 ADD DUP10 SWAP1 SSTORE SWAP1 SWAP2 POP PUSH1 0x3 ADD PUSH2 0x132A DUP7 DUP3 PUSH2 0x25C7 JUMP JUMPDEST POP PUSH1 0x0 DUP2 DUP2 MSTORE PUSH1 0x4 PUSH1 0x20 DUP2 SWAP1 MSTORE PUSH1 0x40 SWAP1 SWAP2 KECCAK256 ADD PUSH2 0x1347 DUP6 DUP3 PUSH2 0x25C7 JUMP JUMPDEST POP PUSH1 0x0 DUP2 DUP2 MSTORE PUSH1 0x4 PUSH1 0x20 MSTORE PUSH1 0x40 SWAP1 KECCAK256 PUSH1 0x5 ADD PUSH2 0x1363 DUP5 DUP3 PUSH2 0x25C7 JUMP JUMPDEST POP PUSH1 0x0 DUP2 DUP2 MSTORE PUSH1 0x4 PUSH1 0x20 MSTORE PUSH1 0x40 SWAP1 KECCAK256 PUSH1 0x2 ADD SLOAD PUSH1 0x1 PUSH1 0x1 PUSH1 0xA0 SHL SUB DUP8 DUP2 AND SWAP2 AND EQ PUSH2 0x141C JUMPI PUSH1 0x0 DUP9 DUP2 MSTORE PUSH1 0x5 PUSH1 0x20 SWAP1 DUP2 MSTORE PUSH1 0x40 DUP1 DUP4 KECCAK256 DUP1 SLOAD PUSH1 0x1 DUP2 ADD DUP3 SSTORE SWAP1 DUP5 MSTORE DUP3 DUP5 KECCAK256 ADD DUP5 SWAP1 SSTORE DUP4 DUP4 MSTORE PUSH1 0x4 SWAP1 SWAP2 MSTORE SWAP1 DUP2 SWAP1 KECCAK256 PUSH1 0x2 ADD DUP1 SLOAD PUSH1 0x1 PUSH1 0x1 PUSH1 0xA0 SHL SUB NOT AND PUSH1 0x1 PUSH1 0x1 PUSH1 0xA0 SHL SUB DUP10 AND SWAP1 DUP2 OR SWAP1 SWAP2 SSTORE SWAP1 MLOAD DUP10 SWAP1 DUP4 SWAP1 PUSH32 0x46149B18AA084502C3F12BC75E19EDA8BDA8D102B82CCE8474677A6D0D5F43C5 SWAP1 PUSH2 0x140F SWAP1 DUP13 SWAP1 DUP12 SWAP1 DUP12 SWAP1 DUP12 SWAP1 PUSH2 0x2687 JUMP JUMPDEST PUSH1 0x40 MLOAD DUP1 SWAP2 SUB SWAP1 LOG4 PUSH2 0x1466 JUMP JUMPDEST DUP6 PUSH1 0x1 PUSH1 0x1 PUSH1 0xA0 SHL SUB AND DUP9 DUP3 PUSH32 0x3BAB293FC00DB832D7619A9299914251B8747C036867EC056CBD506F60135B13 DUP11 DUP10 DUP10 DUP10 PUSH1 0x40 MLOAD PUSH2 0x145D SWAP5 SWAP4 SWAP3 SWAP2 SWAP1 PUSH2 0x2687 JUMP JUMPDEST PUSH1 0x40 MLOAD DUP1 SWAP2 SUB SWAP1 LOG4 JUMPDEST SWAP8 SWAP7 POP POP POP POP POP POP POP JUMP JUMPDEST PUSH1 0x6 SLOAD PUSH1 0x0 SWAP1 PUSH1 0xFF PUSH2 0x100 SWAP1 SWAP2 DIV AND ISZERO ISZERO PUSH1 0x1 EQ PUSH2 0x14A1 JUMPI PUSH1 0x40 MLOAD PUSH3 0x461BCD PUSH1 0xE5 SHL DUP2 MSTORE PUSH1 0x4 ADD PUSH2 0x424 SWAP1 PUSH2 0x2240 JUMP JUMPDEST PUSH1 0x0 DUP1 SLOAD DUP1 DUP3 MSTORE PUSH1 0x3 PUSH1 0x20 MSTORE PUSH1 0x40 SWAP1 SWAP2 KECCAK256 DUP1 SLOAD PUSH1 0x1 PUSH1 0x1 PUSH1 0xA0 SHL SUB NOT AND PUSH1 0x1 PUSH1 0x1 PUSH1 0xA0 SHL SUB DUP8 AND OR DUP2 SSTORE PUSH1 0x1 DUP2 ADD DUP6 SWAP1 SSTORE PUSH1 0x2 ADD PUSH2 0x14DF DUP5 DUP3 PUSH2 0x25C7 JUMP JUMPDEST POP PUSH1 0x0 DUP1 SLOAD SWAP1 DUP1 PUSH2 0x14EF DUP4 PUSH2 0x230F JUMP JUMPDEST SWAP2 SWAP1 POP SSTORE POP DUP4 DUP6 PUSH1 0x1 PUSH1 0x1 PUSH1 0xA0 SHL SUB AND DUP3 PUSH32 0x8AFCFABCB00E47A53A8FC3E9F23FF47EE1926194BB1350DD007C50B412A6CEE8 DUP7 PUSH1 0x40 MLOAD PUSH2 0x152F SWAP2 SWAP1 PUSH2 0x1E74 JUMP JUMPDEST PUSH1 0x40 MLOAD DUP1 SWAP2 SUB SWAP1 LOG4 PUSH1 0x40 DUP1 MLOAD CALLER PUSH1 0x20 DUP3 ADD MSTORE PUSH2 0x154B SWAP2 ADD PUSH2 0x446 JUMP JUMPDEST ISZERO PUSH2 0x1561 JUMPI PUSH2 0x155B DUP2 PUSH1 0x1 PUSH2 0xD06 JUMP JUMPDEST POP PUSH2 0x159B JUMP JUMPDEST PUSH1 0x1 PUSH1 0x1 PUSH1 0xA0 SHL SUB DUP6 AND ADDRESS EQ DUP1 ISZERO SWAP1 PUSH2 0x1589 JUMPI POP PUSH1 0x40 DUP1 MLOAD CALLER PUSH1 0x20 DUP3 ADD MSTORE PUSH2 0x1589 SWAP2 ADD PUSH2 0xEA0 JUMP JUMPDEST ISZERO PUSH2 0x159B JUMPI PUSH2 0x1599 DUP2 PUSH1 0x1 PUSH2 0xD06 JUMP JUMPDEST POP JUMPDEST SWAP5 SWAP4 POP POP POP POP JUMP JUMPDEST PUSH1 0x0 DUP1 DUP6 DUP6 DUP5 PUSH1 0x40 MLOAD PUSH1 0x20 ADD PUSH2 0x15BB SWAP4 SWAP3 SWAP2 SWAP1 PUSH2 0x26C6 JUMP JUMPDEST PUSH1 0x40 MLOAD PUSH1 0x20 DUP2 DUP4 SUB SUB DUP2 MSTORE SWAP1 PUSH1 0x40 MSTORE DUP1 MLOAD SWAP1 PUSH1 0x20 ADD KECCAK256 SWAP1 POP PUSH1 0x0 DUP2 PUSH1 0x40 MLOAD PUSH1 0x20 ADD PUSH2 0x1612 SWAP2 SWAP1 PUSH32 0x19457468657265756D205369676E6564204D6573736167653A0A333200000000 DUP2 MSTORE PUSH1 0x1C DUP2 ADD SWAP2 SWAP1 SWAP2 MSTORE PUSH1 0x3C ADD SWAP1 JUMP JUMPDEST PUSH1 0x40 MLOAD PUSH1 0x20 DUP2 DUP4 SUB SUB DUP2 MSTORE SWAP1 PUSH1 0x40 MSTORE DUP1 MLOAD SWAP1 PUSH1 0x20 ADD KECCAK256 SWAP1 POP PUSH1 0x0 PUSH2 0x1636 DUP7 DUP4 PUSH2 0x1694 JUMP JUMPDEST PUSH1 0x40 DUP1 MLOAD PUSH1 0x1 PUSH1 0x1 PUSH1 0xA0 SHL SUB DUP4 AND PUSH1 0x20 DUP3 ADD MSTORE SWAP2 SWAP3 POP PUSH1 0x0 SWAP2 ADD PUSH1 0x40 MLOAD PUSH1 0x20 DUP2 DUP4 SUB SUB DUP2 MSTORE SWAP1 PUSH1 0x40 MSTORE DUP1 MLOAD SWAP1 PUSH1 0x20 ADD KECCAK256 SWAP1 POP PUSH2 0x1673 DUP2 PUSH1 0x3 PUSH2 0x19A8 JUMP JUMPDEST ISZERO PUSH2 0x1685 JUMPI PUSH1 0x1 SWAP5 POP POP POP POP POP PUSH2 0x159B JUMP JUMPDEST POP PUSH1 0x0 SWAP9 SWAP8 POP POP POP POP POP POP POP POP JUMP JUMPDEST PUSH1 0x0 DUP1 PUSH1 0x0 DUP1 DUP6 MLOAD PUSH1 0x41 EQ PUSH2 0x16AF JUMPI PUSH1 0x0 SWAP4 POP POP POP POP PUSH2 0xD00 JUMP JUMPDEST POP POP POP PUSH1 0x20 DUP4 ADD MLOAD PUSH1 0x40 DUP5 ADD MLOAD PUSH1 0x60 DUP6 ADD MLOAD PUSH1 0x0 BYTE PUSH1 0x1B DUP2 LT ISZERO PUSH2 0x16DB JUMPI PUSH2 0x16D8 PUSH1 0x1B DUP3 PUSH2 0x26F6 JUMP JUMPDEST SWAP1 POP JUMPDEST PUSH1 0x40 DUP1 MLOAD PUSH1 0x0 DUP1 DUP3 MSTORE PUSH1 0x20 DUP3 ADD DUP1 DUP5 MSTORE DUP9 SWAP1 MSTORE PUSH1 0xFF DUP5 AND SWAP3 DUP3 ADD SWAP3 SWAP1 SWAP3 MSTORE PUSH1 0x60 DUP2 ADD DUP6 SWAP1 MSTORE PUSH1 0x80 DUP2 ADD DUP5 SWAP1 MSTORE PUSH1 0x1 SWAP1 PUSH1 0xA0 ADD PUSH1 0x20 PUSH1 0x40 MLOAD PUSH1 0x20 DUP2 SUB SWAP1 DUP1 DUP5 SUB SWAP1 DUP6 GAS STATICCALL ISZERO DUP1 ISZERO PUSH2 0x172F JUMPI RETURNDATASIZE PUSH1 0x0 DUP1 RETURNDATACOPY RETURNDATASIZE PUSH1 0x0 REVERT JUMPDEST POP POP PUSH1 0x40 MLOAD PUSH1 0x1F NOT ADD MLOAD SWAP9 SWAP8 POP POP POP POP POP POP POP POP JUMP JUMPDEST PUSH1 0x1 PUSH1 0x1 PUSH1 0xA0 SHL SUB DUP2 AND PUSH2 0x179B JUMPI PUSH1 0x40 MLOAD PUSH3 0x461BCD PUSH1 0xE5 SHL DUP2 MSTORE PUSH1 0x20 PUSH1 0x4 DUP3 ADD MSTORE PUSH1 0x1F PUSH1 0x24 DUP3 ADD MSTORE PUSH32 0x696E76616C696420617267756D656E74202D207A65726F206164647265737300 PUSH1 0x44 DUP3 ADD MSTORE PUSH1 0x64 ADD PUSH2 0x424 JUMP JUMPDEST PUSH2 0x17A4 DUP2 PUSH2 0x1B09 JUMP JUMPDEST POP JUMP JUMPDEST PUSH1 0x0 DUP2 DUP2 MSTORE PUSH1 0x4 PUSH1 0x20 DUP2 SWAP1 MSTORE PUSH1 0x40 DUP3 KECCAK256 DUP1 SLOAD PUSH1 0x1 DUP3 ADD SLOAD PUSH1 0x2 DUP4 ADD SLOAD PUSH1 0x3 DUP5 ADD DUP1 SLOAD DUP8 SWAP7 DUP8 SWAP7 PUSH1 0x60 SWAP7 DUP8 SWAP7 DUP8 SWAP7 SWAP2 SWAP6 SWAP1 SWAP5 PUSH1 0x1 PUSH1 0x1 PUSH1 0xA0 SHL SUB SWAP1 SWAP3 AND SWAP4 SWAP1 SWAP3 SWAP1 DUP2 ADD SWAP2 PUSH1 0x5 SWAP1 SWAP2 ADD SWAP1 DUP4 SWAP1 PUSH2 0x17FB SWAP1 PUSH2 0x23A3 JUMP JUMPDEST DUP1 PUSH1 0x1F ADD PUSH1 0x20 DUP1 SWAP2 DIV MUL PUSH1 0x20 ADD PUSH1 0x40 MLOAD SWAP1 DUP2 ADD PUSH1 0x40 MSTORE DUP1 SWAP3 SWAP2 SWAP1 DUP2 DUP2 MSTORE PUSH1 0x20 ADD DUP3 DUP1 SLOAD PUSH2 0x1827 SWAP1 PUSH2 0x23A3 JUMP JUMPDEST DUP1 ISZERO PUSH2 0x1874 JUMPI DUP1 PUSH1 0x1F LT PUSH2 0x1849 JUMPI PUSH2 0x100 DUP1 DUP4 SLOAD DIV MUL DUP4 MSTORE SWAP2 PUSH1 0x20 ADD SWAP2 PUSH2 0x1874 JUMP JUMPDEST DUP3 ADD SWAP2 SWAP1 PUSH1 0x0 MSTORE PUSH1 0x20 PUSH1 0x0 KECCAK256 SWAP1 JUMPDEST DUP2 SLOAD DUP2 MSTORE SWAP1 PUSH1 0x1 ADD SWAP1 PUSH1 0x20 ADD DUP1 DUP4 GT PUSH2 0x1857 JUMPI DUP3 SWAP1 SUB PUSH1 0x1F AND DUP3 ADD SWAP2 JUMPDEST POP POP POP POP POP SWAP3 POP DUP2 DUP1 SLOAD PUSH2 0x1887 SWAP1 PUSH2 0x23A3 JUMP JUMPDEST DUP1 PUSH1 0x1F ADD PUSH1 0x20 DUP1 SWAP2 DIV MUL PUSH1 0x20 ADD PUSH1 0x40 MLOAD SWAP1 DUP2 ADD PUSH1 0x40 MSTORE DUP1 SWAP3 SWAP2 SWAP1 DUP2 DUP2 MSTORE PUSH1 0x20 ADD DUP3 DUP1 SLOAD PUSH2 0x18B3 SWAP1 PUSH2 0x23A3 JUMP JUMPDEST DUP1 ISZERO PUSH2 0x1900 JUMPI DUP1 PUSH1 0x1F LT PUSH2 0x18D5 JUMPI PUSH2 0x100 DUP1 DUP4 SLOAD DIV MUL DUP4 MSTORE SWAP2 PUSH1 0x20 ADD SWAP2 PUSH2 0x1900 JUMP JUMPDEST DUP3 ADD SWAP2 SWAP1 PUSH1 0x0 MSTORE PUSH1 0x20 PUSH1 0x0 KECCAK256 SWAP1 JUMPDEST DUP2 SLOAD DUP2 MSTORE SWAP1 PUSH1 0x1 ADD SWAP1 PUSH1 0x20 ADD DUP1 DUP4 GT PUSH2 0x18E3 JUMPI DUP3 SWAP1 SUB PUSH1 0x1F AND DUP3 ADD SWAP2 JUMPDEST POP POP POP POP POP SWAP2 POP DUP1 DUP1 SLOAD PUSH2 0x1913 SWAP1 PUSH2 0x23A3 JUMP JUMPDEST DUP1 PUSH1 0x1F ADD PUSH1 0x20 DUP1 SWAP2 DIV MUL PUSH1 0x20 ADD PUSH1 0x40 MLOAD SWAP1 DUP2 ADD PUSH1 0x40 MSTORE DUP1 SWAP3 SWAP2 SWAP1 DUP2 DUP2 MSTORE PUSH1 0x20 ADD DUP3 DUP1 SLOAD PUSH2 0x193F SWAP1 PUSH2 0x23A3 JUMP JUMPDEST DUP1 ISZERO PUSH2 0x198C JUMPI DUP1 PUSH1 0x1F LT PUSH2 0x1961 JUMPI PUSH2 0x100 DUP1 DUP4 SLOAD DIV MUL DUP4 MSTORE SWAP2 PUSH1 0x20 ADD SWAP2 PUSH2 0x198C JUMP JUMPDEST DUP3 ADD SWAP2 SWAP1 PUSH1 0x0 MSTORE PUSH1 0x20 PUSH1 0x0 KECCAK256 SWAP1 JUMPDEST DUP2 SLOAD DUP2 MSTORE SWAP1 PUSH1 0x1 ADD SWAP1 PUSH1 0x20 ADD DUP1 DUP4 GT PUSH2 0x196F JUMPI DUP3 SWAP1 SUB PUSH1 0x1F AND DUP3 ADD SWAP2 JUMPDEST POP POP POP POP POP SWAP1 POP SWAP6 POP SWAP6 POP SWAP6 POP SWAP6 POP SWAP6 POP SWAP6 POP SWAP2 SWAP4 SWAP6 POP SWAP2 SWAP4 SWAP6 JUMP JUMPDEST PUSH1 0x0 DUP3 DUP2 MSTORE PUSH1 0x1 PUSH1 0x20 SWAP1 DUP2 MSTORE PUSH1 0x40 DUP1 DUP4 KECCAK256 DUP2 MLOAD DUP2 SLOAD PUSH1 0x80 SWAP5 DUP2 MUL DUP3 ADD DUP6 ADD SWAP1 SWAP4 MSTORE PUSH1 0x60 DUP2 ADD DUP4 DUP2 MSTORE DUP6 SWAP5 SWAP2 SWAP4 DUP5 SWAP3 DUP5 SWAP2 SWAP1 DUP5 ADD DUP3 DUP3 DUP1 ISZERO PUSH2 0x1A08 JUMPI PUSH1 0x20 MUL DUP3 ADD SWAP2 SWAP1 PUSH1 0x0 MSTORE PUSH1 0x20 PUSH1 0x0 KECCAK256 SWAP1 JUMPDEST DUP2 SLOAD DUP2 MSTORE PUSH1 0x20 ADD SWAP1 PUSH1 0x1 ADD SWAP1 DUP1 DUP4 GT PUSH2 0x19F4 JUMPI JUMPDEST POP POP POP SWAP2 DUP4 MSTORE POP POP PUSH1 0x1 DUP3 ADD SLOAD PUSH1 0x20 DUP3 ADD MSTORE PUSH1 0x2 SWAP1 SWAP2 ADD SLOAD PUSH1 0x40 SWAP2 DUP3 ADD MSTORE DUP2 ADD MLOAD SWAP1 SWAP2 POP PUSH1 0x0 SUB PUSH2 0x1A3D JUMPI PUSH1 0x0 SWAP2 POP POP PUSH2 0xD00 JUMP JUMPDEST PUSH1 0x0 JUMPDEST DUP2 MLOAD MLOAD DUP2 LT ISZERO PUSH2 0x1A9E JUMPI PUSH1 0x0 DUP3 PUSH1 0x0 ADD MLOAD DUP3 DUP2 MLOAD DUP2 LT PUSH2 0x1A62 JUMPI PUSH2 0x1A62 PUSH2 0x22E3 JUMP JUMPDEST PUSH1 0x20 MUL PUSH1 0x20 ADD ADD MLOAD SWAP1 POP DUP1 PUSH1 0x1 EQ DUP1 PUSH2 0x1A7A JUMPI POP DUP5 DUP2 EQ JUMPDEST ISZERO PUSH2 0x1A8B JUMPI PUSH1 0x1 SWAP4 POP POP POP POP PUSH2 0xD00 JUMP JUMPDEST POP DUP1 PUSH2 0x1A96 DUP2 PUSH2 0x230F JUMP JUMPDEST SWAP2 POP POP PUSH2 0x1A40 JUMP JUMPDEST POP PUSH1 0x0 SWAP5 SWAP4 POP POP POP POP JUMP JUMPDEST PUSH1 0x0 DUP2 DUP2 MSTORE PUSH1 0x1 PUSH1 0x20 SWAP1 DUP2 MSTORE PUSH1 0x40 SWAP2 DUP3 SWAP1 KECCAK256 DUP1 SLOAD DUP4 MLOAD DUP2 DUP5 MUL DUP2 ADD DUP5 ADD SWAP1 SWAP5 MSTORE DUP1 DUP5 MSTORE PUSH1 0x60 SWAP4 SWAP3 DUP4 ADD DUP3 DUP3 DUP1 ISZERO PUSH2 0x1139 JUMPI PUSH1 0x20 MUL DUP3 ADD SWAP2 SWAP1 PUSH1 0x0 MSTORE PUSH1 0x20 PUSH1 0x0 KECCAK256 SWAP1 DUP2 SLOAD DUP2 MSTORE PUSH1 0x20 ADD SWAP1 PUSH1 0x1 ADD SWAP1 DUP1 DUP4 GT PUSH2 0x1125 JUMPI POP POP POP POP POP SWAP1 POP SWAP2 SWAP1 POP JUMP JUMPDEST PUSH1 0x6 SLOAD PUSH1 0xFF AND ISZERO DUP1 PUSH2 0x1B1A JUMPI POP ADDRESS EXTCODESIZE ISZERO JUMPDEST PUSH2 0x1B66 JUMPI PUSH1 0x40 MLOAD PUSH3 0x461BCD PUSH1 0xE5 SHL DUP2 MSTORE PUSH1 0x20 PUSH1 0x4 DUP3 ADD MSTORE PUSH1 0x1E PUSH1 0x24 DUP3 ADD MSTORE PUSH32 0x496E697469616C206B65792077617320616C72656164792073657475702E0000 PUSH1 0x44 DUP3 ADD MSTORE PUSH1 0x64 ADD PUSH2 0x424 JUMP JUMPDEST PUSH1 0x6 DUP1 SLOAD PUSH2 0xFFFF NOT AND PUSH2 0x101 OR SWAP1 SSTORE PUSH1 0x40 DUP1 MLOAD PUSH1 0x1 PUSH1 0x1 PUSH1 0xA0 SHL SUB DUP4 AND PUSH1 0x20 DUP3 ADD MSTORE PUSH1 0x0 SWAP2 ADD PUSH1 0x40 DUP1 MLOAD PUSH1 0x1F NOT DUP2 DUP5 SUB ADD DUP2 MSTORE DUP3 DUP3 MSTORE DUP1 MLOAD PUSH1 0x20 SWAP2 DUP3 ADD KECCAK256 PUSH1 0x0 DUP2 DUP2 MSTORE PUSH1 0x1 DUP1 DUP5 MSTORE DUP5 DUP3 KECCAK256 PUSH1 0x2 DUP2 ADD DUP5 SWAP1 SSTORE DUP7 DUP6 ADD SWAP1 SWAP6 MSTORE DUP1 DUP7 MSTORE SWAP1 DUP3 SWAP1 MSTORE SWAP2 DUP3 SWAP1 MSTORE SWAP4 POP PUSH2 0x1BD5 SWAP3 SWAP1 PUSH2 0x1D12 JUMP JUMPDEST POP PUSH1 0x0 DUP2 DUP2 MSTORE PUSH1 0x1 PUSH1 0x20 DUP2 DUP2 MSTORE PUSH1 0x40 DUP1 DUP5 KECCAK256 DUP4 ADD DUP4 SWAP1 SSTORE PUSH1 0x2 SWAP1 SWAP2 MSTORE PUSH32 0xE90B7BCEB6E7DF5418FB78D8EE546E97C83A08BBCCC01A0644D599CCD2A7C2E0 DUP1 SLOAD DUP1 DUP5 ADD DUP3 SSTORE SWAP1 DUP5 MSTORE PUSH32 0x7FEF4BF8F63CF9DD467136C679C02B5C17FCF6322D9562512BF5EB952CF7CC53 ADD DUP5 SWAP1 SSTORE MLOAD SWAP1 SWAP2 DUP3 SWAP2 DUP5 SWAP2 PUSH32 0x480000BB1EDAD8CA1470381CC334B1917FBD51C6531F3A623EA8E0EC7E38A6E9 SWAP2 LOG4 POP POP JUMP JUMPDEST DUP3 DUP1 SLOAD DUP3 DUP3 SSTORE SWAP1 PUSH1 0x0 MSTORE PUSH1 0x20 PUSH1 0x0 KECCAK256 SWAP1 DUP2 ADD SWAP3 DUP3 ISZERO PUSH2 0x1CAA JUMPI SWAP2 PUSH1 0x20 MUL DUP3 ADD JUMPDEST DUP3 DUP2 GT ISZERO PUSH2 0x1CAA JUMPI DUP3 MLOAD DUP3 SSTORE SWAP2 PUSH1 0x20 ADD SWAP2 SWAP1 PUSH1 0x1 ADD SWAP1 PUSH2 0x1C8F JUMP JUMPDEST POP PUSH2 0x1CB6 SWAP3 SWAP2 POP PUSH2 0x1D52 JUMP JUMPDEST POP SWAP1 JUMP JUMPDEST POP DUP1 SLOAD PUSH2 0x1CC6 SWAP1 PUSH2 0x23A3 JUMP JUMPDEST PUSH1 0x0 DUP3 SSTORE DUP1 PUSH1 0x1F LT PUSH2 0x1CD6 JUMPI POP POP JUMP JUMPDEST PUSH1 0x1F ADD PUSH1 0x20 SWAP1 DIV SWAP1 PUSH1 0x0 MSTORE PUSH1 0x20 PUSH1 0x0 KECCAK256 SWAP1 DUP2 ADD SWAP1 PUSH2 0x17A4 SWAP2 SWAP1 PUSH2 0x1D52 JUMP JUMPDEST POP DUP1 SLOAD PUSH1 0x0 DUP3 SSTORE SWAP1 PUSH1 0x0 MSTORE PUSH1 0x20 PUSH1 0x0 KECCAK256 SWAP1 DUP2 ADD SWAP1 PUSH2 0x17A4 SWAP2 SWAP1 PUSH2 0x1D52 JUMP JUMPDEST DUP3 DUP1 SLOAD DUP3 DUP3 SSTORE SWAP1 PUSH1 0x0 MSTORE PUSH1 0x20 PUSH1 0x0 KECCAK256 SWAP1 DUP2 ADD SWAP3 DUP3 ISZERO PUSH2 0x1CAA JUMPI SWAP2 PUSH1 0x20 MUL DUP3 ADD JUMPDEST DUP3 DUP2 GT ISZERO PUSH2 0x1CAA JUMPI DUP3 MLOAD DUP3 SWAP1 PUSH1 0xFF AND SWAP1 SSTORE SWAP2 PUSH1 0x20 ADD SWAP2 SWAP1 PUSH1 0x1 ADD SWAP1 PUSH2 0x1D32 JUMP JUMPDEST JUMPDEST DUP1 DUP3 GT ISZERO PUSH2 0x1CB6 JUMPI PUSH1 0x0 DUP2 SSTORE PUSH1 0x1 ADD PUSH2 0x1D53 JUMP JUMPDEST PUSH1 0x0 PUSH1 0x20 DUP3 DUP5 SUB SLT ISZERO PUSH2 0x1D79 JUMPI PUSH1 0x0 DUP1 REVERT JUMPDEST POP CALLDATALOAD SWAP2 SWAP1 POP JUMP JUMPDEST PUSH1 0x0 DUP2 MLOAD DUP1 DUP5 MSTORE PUSH1 0x20 DUP1 DUP6 ADD SWAP5 POP DUP1 DUP5 ADD PUSH1 0x0 JUMPDEST DUP4 DUP2 LT ISZERO PUSH2 0x1DB0 JUMPI DUP2 MLOAD DUP8 MSTORE SWAP6 DUP3 ADD SWAP6 SWAP1 DUP3 ADD SWAP1 PUSH1 0x1 ADD PUSH2 0x1D94 JUMP JUMPDEST POP SWAP5 SWAP6 SWAP5 POP POP POP POP POP JUMP JUMPDEST PUSH1 0x60 DUP2 MSTORE PUSH1 0x0 PUSH2 0x1DCE PUSH1 0x60 DUP4 ADD DUP7 PUSH2 0x1D80 JUMP JUMPDEST PUSH1 0x20 DUP4 ADD SWAP5 SWAP1 SWAP5 MSTORE POP PUSH1 0x40 ADD MSTORE SWAP2 SWAP1 POP JUMP JUMPDEST PUSH1 0x0 DUP1 PUSH1 0x0 PUSH1 0x60 DUP5 DUP7 SUB SLT ISZERO PUSH2 0x1DF5 JUMPI PUSH1 0x0 DUP1 REVERT JUMPDEST POP POP DUP2 CALLDATALOAD SWAP4 PUSH1 0x20 DUP4 ADD CALLDATALOAD SWAP4 POP PUSH1 0x40 SWAP1 SWAP3 ADD CALLDATALOAD SWAP2 SWAP1 POP JUMP JUMPDEST PUSH1 0x0 DUP1 PUSH1 0x40 DUP4 DUP6 SUB SLT ISZERO PUSH2 0x1E1F JUMPI PUSH1 0x0 DUP1 REVERT JUMPDEST POP POP DUP1 CALLDATALOAD SWAP3 PUSH1 0x20 SWAP1 SWAP2 ADD CALLDATALOAD SWAP2 POP JUMP JUMPDEST PUSH1 0x0 DUP2 MLOAD DUP1 DUP5 MSTORE PUSH1 0x0 JUMPDEST DUP2 DUP2 LT ISZERO PUSH2 0x1E54 JUMPI PUSH1 0x20 DUP2 DUP6 ADD DUP2 ADD MLOAD DUP7 DUP4 ADD DUP3 ADD MSTORE ADD PUSH2 0x1E38 JUMP JUMPDEST POP PUSH1 0x0 PUSH1 0x20 DUP3 DUP7 ADD ADD MSTORE PUSH1 0x20 PUSH1 0x1F NOT PUSH1 0x1F DUP4 ADD AND DUP6 ADD ADD SWAP2 POP POP SWAP3 SWAP2 POP POP JUMP JUMPDEST PUSH1 0x20 DUP2 MSTORE PUSH1 0x0 PUSH2 0x1E87 PUSH1 0x20 DUP4 ADD DUP5 PUSH2 0x1E2E JUMP JUMPDEST SWAP4 SWAP3 POP POP POP JUMP JUMPDEST DUP1 ISZERO ISZERO DUP2 EQ PUSH2 0x17A4 JUMPI PUSH1 0x0 DUP1 REVERT JUMPDEST PUSH1 0x0 DUP1 PUSH1 0x40 DUP4 DUP6 SUB SLT ISZERO PUSH2 0x1EAF JUMPI PUSH1 0x0 DUP1 REVERT JUMPDEST DUP3 CALLDATALOAD SWAP2 POP PUSH1 0x20 DUP4 ADD CALLDATALOAD PUSH2 0x1EC1 DUP2 PUSH2 0x1E8E JUMP JUMPDEST DUP1 SWAP2 POP POP SWAP3 POP SWAP3 SWAP1 POP JUMP JUMPDEST PUSH1 0x20 DUP1 DUP3 MSTORE DUP3 MLOAD DUP3 DUP3 ADD DUP2 SWAP1 MSTORE PUSH1 0x0 SWAP2 SWAP1 DUP5 DUP3 ADD SWAP1 PUSH1 0x40 DUP6 ADD SWAP1 DUP5 JUMPDEST DUP2 DUP2 LT ISZERO PUSH2 0x1F04 JUMPI DUP4 MLOAD DUP4 MSTORE SWAP3 DUP5 ADD SWAP3 SWAP2 DUP5 ADD SWAP2 PUSH1 0x1 ADD PUSH2 0x1EE8 JUMP JUMPDEST POP SWAP1 SWAP7 SWAP6 POP POP POP POP POP POP JUMP JUMPDEST PUSH1 0x1 PUSH1 0x1 PUSH1 0xA0 SHL SUB DUP2 AND DUP2 EQ PUSH2 0x17A4 JUMPI PUSH1 0x0 DUP1 REVERT JUMPDEST PUSH4 0x4E487B71 PUSH1 0xE0 SHL PUSH1 0x0 MSTORE PUSH1 0x41 PUSH1 0x4 MSTORE PUSH1 0x24 PUSH1 0x0 REVERT JUMPDEST PUSH1 0x0 PUSH8 0xFFFFFFFFFFFFFFFF DUP1 DUP5 GT ISZERO PUSH2 0x1F56 JUMPI PUSH2 0x1F56 PUSH2 0x1F25 JUMP JUMPDEST PUSH1 0x40 MLOAD PUSH1 0x1F DUP6 ADD PUSH1 0x1F NOT SWAP1 DUP2 AND PUSH1 0x3F ADD AND DUP2 ADD SWAP1 DUP3 DUP3 GT DUP2 DUP4 LT OR ISZERO PUSH2 0x1F7E JUMPI PUSH2 0x1F7E PUSH2 0x1F25 JUMP JUMPDEST DUP2 PUSH1 0x40 MSTORE DUP1 SWAP4 POP DUP6 DUP2 MSTORE DUP7 DUP7 DUP7 ADD GT ISZERO PUSH2 0x1F97 JUMPI PUSH1 0x0 DUP1 REVERT JUMPDEST DUP6 DUP6 PUSH1 0x20 DUP4 ADD CALLDATACOPY PUSH1 0x0 PUSH1 0x20 DUP8 DUP4 ADD ADD MSTORE POP POP POP SWAP4 SWAP3 POP POP POP JUMP JUMPDEST PUSH1 0x0 DUP3 PUSH1 0x1F DUP4 ADD SLT PUSH2 0x1FC2 JUMPI PUSH1 0x0 DUP1 REVERT JUMPDEST PUSH2 0x1E87 DUP4 DUP4 CALLDATALOAD PUSH1 0x20 DUP6 ADD PUSH2 0x1F3B JUMP JUMPDEST PUSH1 0x0 DUP1 PUSH1 0x0 DUP1 PUSH1 0x0 DUP1 PUSH1 0xC0 DUP8 DUP10 SUB SLT ISZERO PUSH2 0x1FEA JUMPI PUSH1 0x0 DUP1 REVERT JUMPDEST DUP7 CALLDATALOAD SWAP6 POP PUSH1 0x20 DUP8 ADD CALLDATALOAD SWAP5 POP PUSH1 0x40 DUP8 ADD CALLDATALOAD PUSH2 0x2003 DUP2 PUSH2 0x1F10 JUMP JUMPDEST SWAP4 POP PUSH1 0x60 DUP8 ADD CALLDATALOAD PUSH8 0xFFFFFFFFFFFFFFFF DUP1 DUP3 GT ISZERO PUSH2 0x2020 JUMPI PUSH1 0x0 DUP1 REVERT JUMPDEST PUSH2 0x202C DUP11 DUP4 DUP12 ADD PUSH2 0x1FB1 JUMP JUMPDEST SWAP5 POP PUSH1 0x80 DUP10 ADD CALLDATALOAD SWAP2 POP DUP1 DUP3 GT ISZERO PUSH2 0x2042 JUMPI PUSH1 0x0 DUP1 REVERT JUMPDEST PUSH2 0x204E DUP11 DUP4 DUP12 ADD PUSH2 0x1FB1 JUMP JUMPDEST SWAP4 POP PUSH1 0xA0 DUP10 ADD CALLDATALOAD SWAP2 POP DUP1 DUP3 GT ISZERO PUSH2 0x2064 JUMPI PUSH1 0x0 DUP1 REVERT JUMPDEST POP DUP8 ADD PUSH1 0x1F DUP2 ADD DUP10 SGT PUSH2 0x2076 JUMPI PUSH1 0x0 DUP1 REVERT JUMPDEST PUSH2 0x2085 DUP10 DUP3 CALLDATALOAD PUSH1 0x20 DUP5 ADD PUSH2 0x1F3B JUMP JUMPDEST SWAP2 POP POP SWAP3 SWAP6 POP SWAP3 SWAP6 POP SWAP3 SWAP6 JUMP JUMPDEST PUSH1 0x0 DUP1 PUSH1 0x0 PUSH1 0x60 DUP5 DUP7 SUB SLT ISZERO PUSH2 0x20A7 JUMPI PUSH1 0x0 DUP1 REVERT JUMPDEST DUP4 CALLDATALOAD PUSH2 0x20B2 DUP2 PUSH2 0x1F10 JUMP JUMPDEST SWAP3 POP PUSH1 0x20 DUP5 ADD CALLDATALOAD SWAP2 POP PUSH1 0x40 DUP5 ADD CALLDATALOAD PUSH8 0xFFFFFFFFFFFFFFFF DUP2 GT ISZERO PUSH2 0x20D5 JUMPI PUSH1 0x0 DUP1 REVERT JUMPDEST PUSH2 0x20E1 DUP7 DUP3 DUP8 ADD PUSH2 0x1FB1 JUMP JUMPDEST SWAP2 POP POP SWAP3 POP SWAP3 POP SWAP3 JUMP JUMPDEST PUSH1 0x0 DUP1 PUSH1 0x0 DUP1 PUSH1 0x80 DUP6 DUP8 SUB SLT ISZERO PUSH2 0x2101 JUMPI PUSH1 0x0 DUP1 REVERT JUMPDEST DUP5 CALLDATALOAD PUSH2 0x210C DUP2 PUSH2 0x1F10 JUMP JUMPDEST SWAP4 POP PUSH1 0x20 DUP6 ADD CALLDATALOAD SWAP3 POP PUSH1 0x40 DUP6 ADD CALLDATALOAD PUSH8 0xFFFFFFFFFFFFFFFF DUP1 DUP3 GT ISZERO PUSH2 0x2130 JUMPI PUSH1 0x0 DUP1 REVERT JUMPDEST PUSH2 0x213C DUP9 DUP4 DUP10 ADD PUSH2 0x1FB1 JUMP JUMPDEST SWAP4 POP PUSH1 0x60 DUP8 ADD CALLDATALOAD SWAP2 POP DUP1 DUP3 GT ISZERO PUSH2 0x2152 JUMPI PUSH1 0x0 DUP1 REVERT JUMPDEST POP PUSH2 0x215F DUP8 DUP3 DUP9 ADD PUSH2 0x1FB1 JUMP JUMPDEST SWAP2 POP POP SWAP3 SWAP6 SWAP2 SWAP5 POP SWAP3 POP JUMP JUMPDEST PUSH1 0x0 DUP1 PUSH1 0x40 DUP4 DUP6 SUB SLT ISZERO PUSH2 0x217E JUMPI PUSH1 0x0 DUP1 REVERT JUMPDEST DUP3 CALLDATALOAD PUSH8 0xFFFFFFFFFFFFFFFF DUP2 GT ISZERO PUSH2 0x2195 JUMPI PUSH1 0x0 DUP1 REVERT JUMPDEST PUSH2 0x21A1 DUP6 DUP3 DUP7 ADD PUSH2 0x1FB1 JUMP JUMPDEST SWAP6 PUSH1 0x20 SWAP5 SWAP1 SWAP5 ADD CALLDATALOAD SWAP5 POP POP POP POP JUMP JUMPDEST PUSH1 0x0 PUSH1 0x20 DUP3 DUP5 SUB SLT ISZERO PUSH2 0x21C2 JUMPI PUSH1 0x0 DUP1 REVERT JUMPDEST DUP2 CALLDATALOAD PUSH2 0x1E87 DUP2 PUSH2 0x1F10 JUMP JUMPDEST DUP7 DUP2 MSTORE DUP6 PUSH1 0x20 DUP3 ADD MSTORE PUSH1 0x1 DUP1 PUSH1 0xA0 SHL SUB DUP6 AND PUSH1 0x40 DUP3 ADD MSTORE PUSH1 0xC0 PUSH1 0x60 DUP3 ADD MSTORE PUSH1 0x0 PUSH2 0x21FA PUSH1 0xC0 DUP4 ADD DUP7 PUSH2 0x1E2E JUMP JUMPDEST DUP3 DUP2 SUB PUSH1 0x80 DUP5 ADD MSTORE PUSH2 0x220C DUP2 DUP7 PUSH2 0x1E2E JUMP JUMPDEST SWAP1 POP DUP3 DUP2 SUB PUSH1 0xA0 DUP5 ADD MSTORE PUSH2 0x2220 DUP2 DUP6 PUSH2 0x1E2E JUMP JUMPDEST SWAP10 SWAP9 POP POP POP POP POP POP POP POP POP JUMP JUMPDEST PUSH1 0x20 DUP2 MSTORE PUSH1 0x0 PUSH2 0x1E87 PUSH1 0x20 DUP4 ADD DUP5 PUSH2 0x1D80 JUMP JUMPDEST PUSH1 0x20 DUP1 DUP3 MSTORE PUSH1 0x33 SWAP1 DUP3 ADD MSTORE PUSH32 0x496E746572616374696E67207769746820746865206C69627261727920636F6E PUSH1 0x40 DUP3 ADD MSTORE PUSH19 0x3A3930B1BA1034B9903337B93134B23232B717 PUSH1 0x69 SHL PUSH1 0x60 DUP3 ADD MSTORE PUSH1 0x80 ADD SWAP1 JUMP JUMPDEST PUSH1 0x20 DUP1 DUP3 MSTORE PUSH1 0x30 SWAP1 DUP3 ADD MSTORE PUSH32 0x5065726D697373696F6E733A2053656E64657220646F6573206E6F7420686176 PUSH1 0x40 DUP3 ADD MSTORE PUSH16 0x65206D616E6167656D656E74206B6579 PUSH1 0x80 SHL PUSH1 0x60 DUP3 ADD MSTORE PUSH1 0x80 ADD SWAP1 JUMP JUMPDEST PUSH4 0x4E487B71 PUSH1 0xE0 SHL PUSH1 0x0 MSTORE PUSH1 0x32 PUSH1 0x4 MSTORE PUSH1 0x24 PUSH1 0x0 REVERT JUMPDEST PUSH4 0x4E487B71 PUSH1 0xE0 SHL PUSH1 0x0 MSTORE PUSH1 0x11 PUSH1 0x4 MSTORE PUSH1 0x24 PUSH1 0x0 REVERT JUMPDEST PUSH1 0x0 PUSH1 0x1 DUP3 ADD PUSH2 0x2321 JUMPI PUSH2 0x2321 PUSH2 0x22F9 JUMP JUMPDEST POP PUSH1 0x1 ADD SWAP1 JUMP JUMPDEST PUSH1 0x20 DUP1 DUP3 MSTORE PUSH1 0x32 SWAP1 DUP3 ADD MSTORE PUSH32 0x5065726D697373696F6E733A2053656E64657220646F6573206E6F7420686176 PUSH1 0x40 DUP3 ADD MSTORE PUSH18 0x6520636C61696D207369676E6572206B6579 PUSH1 0x70 SHL PUSH1 0x60 DUP3 ADD MSTORE PUSH1 0x80 ADD SWAP1 JUMP JUMPDEST DUP2 DUP2 SUB DUP2 DUP2 GT ISZERO PUSH2 0xD00 JUMPI PUSH2 0xD00 PUSH2 0x22F9 JUMP JUMPDEST PUSH4 0x4E487B71 PUSH1 0xE0 SHL PUSH1 0x0 MSTORE PUSH1 0x31 PUSH1 0x4 MSTORE PUSH1 0x24 PUSH1 0x0 REVERT JUMPDEST PUSH1 0x1 DUP2 DUP2 SHR SWAP1 DUP3 AND DUP1 PUSH2 0x23B7 JUMPI PUSH1 0x7F DUP3 AND SWAP2 POP JUMPDEST PUSH1 0x20 DUP3 LT DUP2 SUB PUSH2 0x23D7 JUMPI PUSH4 0x4E487B71 PUSH1 0xE0 SHL PUSH1 0x0 MSTORE PUSH1 0x22 PUSH1 0x4 MSTORE PUSH1 0x24 PUSH1 0x0 REVERT JUMPDEST POP SWAP2 SWAP1 POP JUMP JUMPDEST PUSH1 0x0 DUP2 SLOAD PUSH2 0x23EA DUP2 PUSH2 0x23A3 JUMP JUMPDEST DUP1 DUP6 MSTORE PUSH1 0x20 PUSH1 0x1 DUP4 DUP2 AND DUP1 ISZERO PUSH2 0x2407 JUMPI PUSH1 0x1 DUP2 EQ PUSH2 0x2421 JUMPI PUSH2 0x244F JUMP JUMPDEST PUSH1 0xFF NOT DUP6 AND DUP9 DUP5 ADD MSTORE DUP4 ISZERO ISZERO PUSH1 0x5 SHL DUP9 ADD DUP4 ADD SWAP6 POP PUSH2 0x244F JUMP JUMPDEST DUP7 PUSH1 0x0 MSTORE DUP3 PUSH1 0x0 KECCAK256 PUSH1 0x0 JUMPDEST DUP6 DUP2 LT ISZERO PUSH2 0x2447 JUMPI DUP2 SLOAD DUP11 DUP3 ADD DUP7 ADD MSTORE SWAP1 DUP4 ADD SWAP1 DUP5 ADD PUSH2 0x242C JUMP JUMPDEST DUP10 ADD DUP5 ADD SWAP7 POP POP JUMPDEST POP POP POP POP POP SWAP3 SWAP2 POP POP JUMP JUMPDEST DUP5 DUP2 MSTORE PUSH1 0x80 PUSH1 0x20 DUP3 ADD MSTORE PUSH1 0x0 PUSH2 0x2473 PUSH1 0x80 DUP4 ADD DUP7 PUSH2 0x23DD JUMP JUMPDEST DUP3 DUP2 SUB PUSH1 0x40 DUP5 ADD MSTORE PUSH2 0x2485 DUP2 DUP7 PUSH2 0x23DD JUMP JUMPDEST SWAP1 POP DUP3 DUP2 SUB PUSH1 0x60 DUP5 ADD MSTORE PUSH2 0x1466 DUP2 DUP6 PUSH2 0x23DD JUMP JUMPDEST PUSH1 0x0 DUP1 DUP4 SLOAD PUSH2 0x24A7 DUP2 PUSH2 0x23A3 JUMP JUMPDEST PUSH1 0x1 DUP3 DUP2 AND DUP1 ISZERO PUSH2 0x24BF JUMPI PUSH1 0x1 DUP2 EQ PUSH2 0x24D4 JUMPI PUSH2 0x2503 JUMP JUMPDEST PUSH1 0xFF NOT DUP5 AND DUP8 MSTORE DUP3 ISZERO ISZERO DUP4 MUL DUP8 ADD SWAP5 POP PUSH2 0x2503 JUMP JUMPDEST DUP8 PUSH1 0x0 MSTORE PUSH1 0x20 DUP1 PUSH1 0x0 KECCAK256 PUSH1 0x0 JUMPDEST DUP6 DUP2 LT ISZERO PUSH2 0x24FA JUMPI DUP2 SLOAD DUP11 DUP3 ADD MSTORE SWAP1 DUP5 ADD SWAP1 DUP3 ADD PUSH2 0x24E1 JUMP JUMPDEST POP POP POP DUP3 DUP8 ADD SWAP5 POP JUMPDEST POP SWAP3 SWAP7 SWAP6 POP POP POP POP POP POP JUMP JUMPDEST PUSH1 0x20 DUP2 MSTORE PUSH1 0x0 PUSH2 0x1E87 PUSH1 0x20 DUP4 ADD DUP5 PUSH2 0x23DD JUMP JUMPDEST PUSH1 0x1 DUP1 PUSH1 0xA0 SHL SUB DUP6 AND DUP2 MSTORE DUP4 PUSH1 0x20 DUP3 ADD MSTORE PUSH1 0x80 PUSH1 0x40 DUP3 ADD MSTORE PUSH1 0x0 PUSH2 0x2549 PUSH1 0x80 DUP4 ADD DUP6 PUSH2 0x1E2E JUMP JUMPDEST DUP3 DUP2 SUB PUSH1 0x60 DUP5 ADD MSTORE PUSH2 0x1466 DUP2 DUP6 PUSH2 0x1E2E JUMP JUMPDEST PUSH1 0x0 PUSH1 0x20 DUP3 DUP5 SUB SLT ISZERO PUSH2 0x256D JUMPI PUSH1 0x0 DUP1 REVERT JUMPDEST DUP2 MLOAD PUSH2 0x1E87 DUP2 PUSH2 0x1E8E JUMP JUMPDEST PUSH1 0x1F DUP3 GT ISZERO PUSH2 0x25C2 JUMPI PUSH1 0x0 DUP2 DUP2 MSTORE PUSH1 0x20 DUP2 KECCAK256 PUSH1 0x1F DUP6 ADD PUSH1 0x5 SHR DUP2 ADD PUSH1 0x20 DUP7 LT ISZERO PUSH2 0x259F JUMPI POP DUP1 JUMPDEST PUSH1 0x1F DUP6 ADD PUSH1 0x5 SHR DUP3 ADD SWAP2 POP JUMPDEST DUP2 DUP2 LT ISZERO PUSH2 0x25BE JUMPI DUP3 DUP2 SSTORE PUSH1 0x1 ADD PUSH2 0x25AB JUMP JUMPDEST POP POP POP JUMPDEST POP POP POP JUMP JUMPDEST DUP2 MLOAD PUSH8 0xFFFFFFFFFFFFFFFF DUP2 GT ISZERO PUSH2 0x25E1 JUMPI PUSH2 0x25E1 PUSH2 0x1F25 JUMP JUMPDEST PUSH2 0x25F5 DUP2 PUSH2 0x25EF DUP5 SLOAD PUSH2 0x23A3 JUMP JUMPDEST DUP5 PUSH2 0x2578 JUMP JUMPDEST PUSH1 0x20 DUP1 PUSH1 0x1F DUP4 GT PUSH1 0x1 DUP2 EQ PUSH2 0x262A JUMPI PUSH1 0x0 DUP5 ISZERO PUSH2 0x2612 JUMPI POP DUP6 DUP4 ADD MLOAD JUMPDEST PUSH1 0x0 NOT PUSH1 0x3 DUP7 SWAP1 SHL SHR NOT AND PUSH1 0x1 DUP6 SWAP1 SHL OR DUP6 SSTORE PUSH2 0x25BE JUMP JUMPDEST PUSH1 0x0 DUP6 DUP2 MSTORE PUSH1 0x20 DUP2 KECCAK256 PUSH1 0x1F NOT DUP7 AND SWAP2 JUMPDEST DUP3 DUP2 LT ISZERO PUSH2 0x2659 JUMPI DUP9 DUP7 ADD MLOAD DUP3 SSTORE SWAP5 DUP5 ADD SWAP5 PUSH1 0x1 SWAP1 SWAP2 ADD SWAP1 DUP5 ADD PUSH2 0x263A JUMP JUMPDEST POP DUP6 DUP3 LT ISZERO PUSH2 0x2677 JUMPI DUP8 DUP6 ADD MLOAD PUSH1 0x0 NOT PUSH1 0x3 DUP9 SWAP1 SHL PUSH1 0xF8 AND SHR NOT AND DUP2 SSTORE JUMPDEST POP POP POP POP POP PUSH1 0x1 SWAP1 DUP2 SHL ADD SWAP1 SSTORE POP JUMP JUMPDEST DUP5 DUP2 MSTORE PUSH1 0x80 PUSH1 0x20 DUP3 ADD MSTORE PUSH1 0x0 PUSH2 0x26A0 PUSH1 0x80 DUP4 ADD DUP7 PUSH2 0x1E2E JUMP JUMPDEST DUP3 DUP2 SUB PUSH1 0x40 DUP5 ADD MSTORE PUSH2 0x26B2 DUP2 DUP7 PUSH2 0x1E2E JUMP JUMPDEST SWAP1 POP DUP3 DUP2 SUB PUSH1 0x60 DUP5 ADD MSTORE PUSH2 0x1466 DUP2 DUP6 PUSH2 0x1E2E JUMP JUMPDEST PUSH1 0x1 DUP1 PUSH1 0xA0 SHL SUB DUP5 AND DUP2 MSTORE DUP3 PUSH1 0x20 DUP3 ADD MSTORE PUSH1 0x60 PUSH1 0x40 DUP3 ADD MSTORE PUSH1 0x0 PUSH2 0x26ED PUSH1 0x60 DUP4 ADD DUP5 PUSH2 0x1E2E JUMP JUMPDEST SWAP6 SWAP5 POP POP POP POP POP JUMP JUMPDEST PUSH1 0xFF DUP2 DUP2 AND DUP4 DUP3 AND ADD SWAP1 DUP2 GT ISZERO PUSH2 0xD00 JUMPI PUSH2 0xD00 PUSH2 0x22F9 JUMP INVALID LOG2 PUSH5 0x6970667358 0x22 SLT KECCAK256 PUSH10 0x1C6757B9A02EE092EE4E 0xE6 PC 0xEE DUP3 0x2D PUSH32 0xEC9527CEA8050084F28FA12CC0842764736F6C63430008110033000000000000 "
				},
				"gasEstimates": {
					"creation": {
						"codeDepositCost": "2010600",
						"executionCost": "infinite",
						"totalCost": "infinite"
					},
					"external": {
						"addClaim(uint256,uint256,address,bytes,bytes,string)": "infinite",
						"addKey(bytes32,uint256,uint256)": "infinite",
						"approve(uint256,bool)": "infinite",
						"execute(address,uint256,bytes)": "infinite",
						"getClaim(bytes32)": "infinite",
						"getClaimIdsByTopic(uint256)": "infinite",
						"getKey(bytes32)": "infinite",
						"getKeyPurposes(bytes32)": "infinite",
						"getKeysByPurpose(uint256)": "infinite",
						"getRecoveredAddress(bytes,bytes32)": "infinite",
						"initialize(address)": "infinite",
						"isClaimValid(address,uint256,bytes,bytes)": "infinite",
						"keyHasPurpose(bytes32,uint256)": "infinite",
						"removeClaim(bytes32)": "infinite",
						"removeKey(bytes32,uint256)": "infinite",
						"version()": "infinite"
					},
					"internal": {
						"__Identity_init(address)": "infinite",
						"_isConstructor()": "infinite"
					}
				},
				"methodIdentifiers": {
					"addClaim(uint256,uint256,address,bytes,bytes,string)": "b1a34e0d",
					"addKey(bytes32,uint256,uint256)": "1d381240",
					"approve(uint256,bool)": "747442d3",
					"execute(address,uint256,bytes)": "b61d27f6",
					"getClaim(bytes32)": "c9100bcb",
					"getClaimIdsByTopic(uint256)": "80e9e9e1",
					"getKey(bytes32)": "12aaac70",
					"getKeyPurposes(bytes32)": "fb307b34",
					"getKeysByPurpose(uint256)": "9010f726",
					"getRecoveredAddress(bytes,bytes32)": "c3b129e3",
					"initialize(address)": "c4d66de8",
					"isClaimValid(address,uint256,bytes,bytes)": "c0969a6e",
					"keyHasPurpose(bytes32,uint256)": "d202158d",
					"removeClaim(bytes32)": "4eee424a",
					"removeKey(bytes32,uint256)": "53d413c5",
					"version()": "54fd4d50"
				}
			},
			"storageLayout": {
				"storage": [
					{
						"astId": 1631,
						"contract": ".deps/npm/@onchain-id/solidity/contracts/Identity.sol:Identity",
						"label": "_executionNonce",
						"offset": 0,
						"slot": "0",
						"type": "t_uint256"
					},
					{
						"astId": 1636,
						"contract": ".deps/npm/@onchain-id/solidity/contracts/Identity.sol:Identity",
						"label": "_keys",
						"offset": 0,
						"slot": "1",
						"type": "t_mapping(t_bytes32,t_struct(Key)1678_storage)"
					},
					{
						"astId": 1641,
						"contract": ".deps/npm/@onchain-id/solidity/contracts/Identity.sol:Identity",
						"label": "_keysByPurpose",
						"offset": 0,
						"slot": "2",
						"type": "t_mapping(t_uint256,t_array(t_bytes32)dyn_storage)"
					},
					{
						"astId": 1646,
						"contract": ".deps/npm/@onchain-id/solidity/contracts/Identity.sol:Identity",
						"label": "_executions",
						"offset": 0,
						"slot": "3",
						"type": "t_mapping(t_uint256,t_struct(Execution)1689_storage)"
					},
					{
						"astId": 1651,
						"contract": ".deps/npm/@onchain-id/solidity/contracts/Identity.sol:Identity",
						"label": "_claims",
						"offset": 0,
						"slot": "4",
						"type": "t_mapping(t_bytes32,t_struct(Claim)1702_storage)"
					},
					{
						"astId": 1656,
						"contract": ".deps/npm/@onchain-id/solidity/contracts/Identity.sol:Identity",
						"label": "_claimsByTopic",
						"offset": 0,
						"slot": "5",
						"type": "t_mapping(t_uint256,t_array(t_bytes32)dyn_storage)"
					},
					{
						"astId": 1659,
						"contract": ".deps/npm/@onchain-id/solidity/contracts/Identity.sol:Identity",
						"label": "_initialized",
						"offset": 0,
						"slot": "6",
						"type": "t_bool"
					},
					{
						"astId": 1662,
						"contract": ".deps/npm/@onchain-id/solidity/contracts/Identity.sol:Identity",
						"label": "_canInteract",
						"offset": 1,
						"slot": "6",
						"type": "t_bool"
					},
					{
						"astId": 1667,
						"contract": ".deps/npm/@onchain-id/solidity/contracts/Identity.sol:Identity",
						"label": "__gap",
						"offset": 0,
						"slot": "7",
						"type": "t_array(t_uint256)49_storage"
					}
				],
				"types": {
					"t_address": {
						"encoding": "inplace",
						"label": "address",
						"numberOfBytes": "20"
					},
					"t_array(t_bytes32)dyn_storage": {
						"base": "t_bytes32",
						"encoding": "dynamic_array",
						"label": "bytes32[]",
						"numberOfBytes": "32"
					},
					"t_array(t_uint256)49_storage": {
						"base": "t_uint256",
						"encoding": "inplace",
						"label": "uint256[49]",
						"numberOfBytes": "1568"
					},
					"t_array(t_uint256)dyn_storage": {
						"base": "t_uint256",
						"encoding": "dynamic_array",
						"label": "uint256[]",
						"numberOfBytes": "32"
					},
					"t_bool": {
						"encoding": "inplace",
						"label": "bool",
						"numberOfBytes": "1"
					},
					"t_bytes32": {
						"encoding": "inplace",
						"label": "bytes32",
						"numberOfBytes": "32"
					},
					"t_bytes_storage": {
						"encoding": "bytes",
						"label": "bytes",
						"numberOfBytes": "32"
					},
					"t_mapping(t_bytes32,t_struct(Claim)1702_storage)": {
						"encoding": "mapping",
						"key": "t_bytes32",
						"label": "mapping(bytes32 => struct Structs.Claim)",
						"numberOfBytes": "32",
						"value": "t_struct(Claim)1702_storage"
					},
					"t_mapping(t_bytes32,t_struct(Key)1678_storage)": {
						"encoding": "mapping",
						"key": "t_bytes32",
						"label": "mapping(bytes32 => struct Structs.Key)",
						"numberOfBytes": "32",
						"value": "t_struct(Key)1678_storage"
					},
					"t_mapping(t_uint256,t_array(t_bytes32)dyn_storage)": {
						"encoding": "mapping",
						"key": "t_uint256",
						"label": "mapping(uint256 => bytes32[])",
						"numberOfBytes": "32",
						"value": "t_array(t_bytes32)dyn_storage"
					},
					"t_mapping(t_uint256,t_struct(Execution)1689_storage)": {
						"encoding": "mapping",
						"key": "t_uint256",
						"label": "mapping(uint256 => struct Structs.Execution)",
						"numberOfBytes": "32",
						"value": "t_struct(Execution)1689_storage"
					},
					"t_string_storage": {
						"encoding": "bytes",
						"label": "string",
						"numberOfBytes": "32"
					},
					"t_struct(Claim)1702_storage": {
						"encoding": "inplace",
						"label": "struct Structs.Claim",
						"members": [
							{
								"astId": 1691,
								"contract": ".deps/npm/@onchain-id/solidity/contracts/Identity.sol:Identity",
								"label": "topic",
								"offset": 0,
								"slot": "0",
								"type": "t_uint256"
							},
							{
								"astId": 1693,
								"contract": ".deps/npm/@onchain-id/solidity/contracts/Identity.sol:Identity",
								"label": "scheme",
								"offset": 0,
								"slot": "1",
								"type": "t_uint256"
							},
							{
								"astId": 1695,
								"contract": ".deps/npm/@onchain-id/solidity/contracts/Identity.sol:Identity",
								"label": "issuer",
								"offset": 0,
								"slot": "2",
								"type": "t_address"
							},
							{
								"astId": 1697,
								"contract": ".deps/npm/@onchain-id/solidity/contracts/Identity.sol:Identity",
								"label": "signature",
								"offset": 0,
								"slot": "3",
								"type": "t_bytes_storage"
							},
							{
								"astId": 1699,
								"contract": ".deps/npm/@onchain-id/solidity/contracts/Identity.sol:Identity",
								"label": "data",
								"offset": 0,
								"slot": "4",
								"type": "t_bytes_storage"
							},
							{
								"astId": 1701,
								"contract": ".deps/npm/@onchain-id/solidity/contracts/Identity.sol:Identity",
								"label": "uri",
								"offset": 0,
								"slot": "5",
								"type": "t_string_storage"
							}
						],
						"numberOfBytes": "192"
					},
					"t_struct(Execution)1689_storage": {
						"encoding": "inplace",
						"label": "struct Structs.Execution",
						"members": [
							{
								"astId": 1680,
								"contract": ".deps/npm/@onchain-id/solidity/contracts/Identity.sol:Identity",
								"label": "to",
								"offset": 0,
								"slot": "0",
								"type": "t_address"
							},
							{
								"astId": 1682,
								"contract": ".deps/npm/@onchain-id/solidity/contracts/Identity.sol:Identity",
								"label": "value",
								"offset": 0,
								"slot": "1",
								"type": "t_uint256"
							},
							{
								"astId": 1684,
								"contract": ".deps/npm/@onchain-id/solidity/contracts/Identity.sol:Identity",
								"label": "data",
								"offset": 0,
								"slot": "2",
								"type": "t_bytes_storage"
							},
							{
								"astId": 1686,
								"contract": ".deps/npm/@onchain-id/solidity/contracts/Identity.sol:Identity",
								"label": "approved",
								"offset": 0,
								"slot": "3",
								"type": "t_bool"
							},
							{
								"astId": 1688,
								"contract": ".deps/npm/@onchain-id/solidity/contracts/Identity.sol:Identity",
								"label": "executed",
								"offset": 1,
								"slot": "3",
								"type": "t_bool"
							}
						],
						"numberOfBytes": "128"
					},
					"t_struct(Key)1678_storage": {
						"encoding": "inplace",
						"label": "struct Structs.Key",
						"members": [
							{
								"astId": 1673,
								"contract": ".deps/npm/@onchain-id/solidity/contracts/Identity.sol:Identity",
								"label": "purposes",
								"offset": 0,
								"slot": "0",
								"type": "t_array(t_uint256)dyn_storage"
							},
							{
								"astId": 1675,
								"contract": ".deps/npm/@onchain-id/solidity/contracts/Identity.sol:Identity",
								"label": "keyType",
								"offset": 0,
								"slot": "1",
								"type": "t_uint256"
							},
							{
								"astId": 1677,
								"contract": ".deps/npm/@onchain-id/solidity/contracts/Identity.sol:Identity",
								"label": "key",
								"offset": 0,
								"slot": "2",
								"type": "t_bytes32"
							}
						],
						"numberOfBytes": "96"
					},
					"t_uint256": {
						"encoding": "inplace",
						"label": "uint256",
						"numberOfBytes": "32"
					}
				}
			},
			"userdoc": {
				"kind": "user",
				"methods": {
					"addClaim(uint256,uint256,address,bytes,bytes,string)": {
						"notice": "Implementation of the addClaim function from the ERC-735 standard  Require that the msg.sender has claim signer key."
					},
					"addKey(bytes32,uint256,uint256)": {
						"notice": "implementation of the addKey function of the ERC-734 standard Adds a _key to the identity. The _purpose specifies the purpose of key. Initially we propose four purposes: 1: MANAGEMENT keys, which can manage the identity 2: ACTION keys, which perform actions in this identities name (signing, logins, transactions, etc.) 3: CLAIM signer keys, used to sign claims on other identities which need to be revokable. 4: ENCRYPTION keys, used to encrypt data e.g. hold in claims. MUST only be done by keys of purpose 1, or the identity itself. If its the identity itself, the approval process will determine its approval."
					},
					"approve(uint256,bool)": {
						"notice": "Approves an execution.  If the sender is an ACTION key and the destination address is not the identity contract itself, then the  approval is authorized and the operation would be performed.  If the destination address is the identity itself, then the execution would be authorized and performed only  if the sender is a MANAGEMENT key."
					},
					"constructor": {
						"notice": "constructor of the Identity contract"
					},
					"execute(address,uint256,bytes)": {
						"notice": "Passes an execution instruction to the keymanager. If the sender is an ACTION key and the destination address is not the identity contract itself, then the execution is immediately approved and performed. If the destination address is the identity itself, then the execution would be performed immediately only if the sender is a MANAGEMENT key. Otherwise the execution request must be approved via the `approve` method."
					},
					"getClaim(bytes32)": {
						"notice": "Implementation of the getClaim function from the ERC-735 standard."
					},
					"getClaimIdsByTopic(uint256)": {
						"notice": "Implementation of the getClaimIdsByTopic function from the ERC-735 standard. used to get all the claims from the specified topic"
					},
					"getKey(bytes32)": {
						"notice": "Implementation of the getKey function from the ERC-734 standard"
					},
					"getKeyPurposes(bytes32)": {
						"notice": "gets the purposes of a key"
					},
					"getKeysByPurpose(uint256)": {
						"notice": "gets all the keys with a specific purpose from an identity"
					},
					"initialize(address)": {
						"notice": "When using this contract as an implementation for a proxy, call this initializer with a delegatecall."
					},
					"keyHasPurpose(bytes32,uint256)": {
						"notice": "Returns true if the key has MANAGEMENT purpose or the specified purpose."
					},
					"removeClaim(bytes32)": {
						"notice": "Implementation of the removeClaim function from the ERC-735 standard Require that the msg.sender has management key. Can only be removed by the claim issuer, or the claim holder itself."
					},
					"removeKey(bytes32,uint256)": {
						"notice": "Remove the purpose from a key."
					}
				},
				"version": 1
			}
		}
	}
}