{
	"data": {
		"bytecode": {
			"linkReferences": {},
			"object": "60806040526002805464ffffffffff19166471845bb00017905534801561002557600080fd5b5061043e806100356000396000f3fe608060405234801561001057600080fd5b50600436106100885760003560e01c80635be1a0911161005b5780635be1a0911461010f57806371845bb01461012c5780638da5cb5b14610134578063d09de08a1461015f57600080fd5b806306661abd1461008d5780630c55699c146100a957806346951954146100d457806352d1902d146100e9575b600080fd5b61009660015481565b6040519081526020015b60405180910390f35b6002546100bb90610100900460e01b81565b6040516001600160e01b031990911681526020016100a0565b6100e76100e2366004610398565b610167565b005b7fc5f16f0fcc639fa48a6947836d9850f504798523bf8c9a3a87d5876cf622bcf7610096565b60025461011c9060ff1681565b60405190151581526020016100a0565b6100e76101e7565b600054610147906001600160a01b031681565b6040516001600160a01b0390911681526020016100a0565b6100e761029c565b6000546001600160a01b031633146101db5760405162461bcd60e51b815260206004820152602c60248201527f4f6e6c79206f776e657220697320616c6c6f77656420746f20706572666f726d60448201526b103a3434b99030b1ba34b7b760a11b60648201526084015b60405180910390fd5b6101e4816102b3565b50565b6000546001600160a01b0316156102345760405162461bcd60e51b8152602060048201526011602482015270616c726561647920696e6974616c697a6560781b60448201526064016101d2565b60025460ff161561027b5760405162461bcd60e51b8152602060048201526011602482015270616c726561647920696e6974616c697a6560781b60448201526064016101d2565b600080546001600160a01b031916331790556002805460ff19166001179055565b600180549060006102ac836103c8565b9190505550565b806001600160a01b03166352d1902d6040518163ffffffff1660e01b8152600401602060405180830381865afa1580156102f1573d6000803e3d6000fd5b505050506040513d601f19601f8201168201806040525081019061031591906103ef565b7fc5f16f0fcc639fa48a6947836d9850f504798523bf8c9a3a87d5876cf622bcf7146103745760405162461bcd60e51b815260206004820152600e60248201526d4e6f7420636f6d70617469626c6560901b60448201526064016101d2565b7fc5f16f0fcc639fa48a6947836d9850f504798523bf8c9a3a87d5876cf622bcf755565b6000602082840312156103aa57600080fd5b81356001600160a01b03811681146103c157600080fd5b9392505050565b6000600182016103e857634e487b7160e01b600052601160045260246000fd5b5060010190565b60006020828403121561040157600080fd5b505191905056fea26469706673582212203a6b381bb7b1fed79ad1ad194a3a5adfdc5e43cbfc65cc31889192a3c6e4558364736f6c63430008110033",
			"opcodes": "PUSH1 0x80 PUSH1 0x40 MSTORE PUSH1 0x2 DUP1 SLOAD PUSH5 0xFFFFFFFFFF NOT AND PUSH5 0x71845BB000 OR SWAP1 SSTORE CALLVALUE DUP1 ISZERO PUSH2 0x25 JUMPI PUSH1 0x0 DUP1 REVERT JUMPDEST POP PUSH2 0x43E DUP1 PUSH2 0x35 PUSH1 0x0 CODECOPY PUSH1 0x0 RETURN INVALID PUSH1 0x80 PUSH1 0x40 MSTORE CALLVALUE DUP1 ISZERO PUSH2 0x10 JUMPI PUSH1 0x0 DUP1 REVERT JUMPDEST POP PUSH1 0x4 CALLDATASIZE LT PUSH2 0x88 JUMPI PUSH1 0x0 CALLDATALOAD PUSH1 0xE0 SHR DUP1 PUSH4 0x5BE1A091 GT PUSH2 0x5B JUMPI DUP1 PUSH4 0x5BE1A091 EQ PUSH2 0x10F JUMPI DUP1 PUSH4 0x71845BB0 EQ PUSH2 0x12C JUMPI DUP1 PUSH4 0x8DA5CB5B EQ PUSH2 0x134 JUMPI DUP1 PUSH4 0xD09DE08A EQ PUSH2 0x15F JUMPI PUSH1 0x0 DUP1 REVERT JUMPDEST DUP1 PUSH4 0x6661ABD EQ PUSH2 0x8D JUMPI DUP1 PUSH4 0xC55699C EQ PUSH2 0xA9 JUMPI DUP1 PUSH4 0x46951954 EQ PUSH2 0xD4 JUMPI DUP1 PUSH4 0x52D1902D EQ PUSH2 0xE9 JUMPI JUMPDEST PUSH1 0x0 DUP1 REVERT JUMPDEST PUSH2 0x96 PUSH1 0x1 SLOAD DUP2 JUMP JUMPDEST PUSH1 0x40 MLOAD SWAP1 DUP2 MSTORE PUSH1 0x20 ADD JUMPDEST PUSH1 0x40 MLOAD DUP1 SWAP2 SUB SWAP1 RETURN JUMPDEST PUSH1 0x2 SLOAD PUSH2 0xBB SWAP1 PUSH2 0x100 SWAP1 DIV PUSH1 0xE0 SHL DUP2 JUMP JUMPDEST PUSH1 0x40 MLOAD PUSH1 0x1 PUSH1 0x1 PUSH1 0xE0 SHL SUB NOT SWAP1 SWAP2 AND DUP2 MSTORE PUSH1 0x20 ADD PUSH2 0xA0 JUMP JUMPDEST PUSH2 0xE7 PUSH2 0xE2 CALLDATASIZE PUSH1 0x4 PUSH2 0x398 JUMP JUMPDEST PUSH2 0x167 JUMP JUMPDEST STOP JUMPDEST PUSH32 0xC5F16F0FCC639FA48A6947836D9850F504798523BF8C9A3A87D5876CF622BCF7 PUSH2 0x96 JUMP JUMPDEST PUSH1 0x2 SLOAD PUSH2 0x11C SWAP1 PUSH1 0xFF AND DUP2 JUMP JUMPDEST PUSH1 0x40 MLOAD SWAP1 ISZERO ISZERO DUP2 MSTORE PUSH1 0x20 ADD PUSH2 0xA0 JUMP JUMPDEST PUSH2 0xE7 PUSH2 0x1E7 JUMP JUMPDEST PUSH1 0x0 SLOAD PUSH2 0x147 SWAP1 PUSH1 0x1 PUSH1 0x1 PUSH1 0xA0 SHL SUB AND DUP2 JUMP JUMPDEST PUSH1 0x40 MLOAD PUSH1 0x1 PUSH1 0x1 PUSH1 0xA0 SHL SUB SWAP1 SWAP2 AND DUP2 MSTORE PUSH1 0x20 ADD PUSH2 0xA0 JUMP JUMPDEST PUSH2 0xE7 PUSH2 0x29C JUMP JUMPDEST PUSH1 0x0 SLOAD PUSH1 0x1 PUSH1 0x1 PUSH1 0xA0 SHL SUB AND CALLER EQ PUSH2 0x1DB JUMPI PUSH1 0x40 MLOAD PUSH3 0x461BCD PUSH1 0xE5 SHL DUP2 MSTORE PUSH1 0x20 PUSH1 0x4 DUP3 ADD MSTORE PUSH1 0x2C PUSH1 0x24 DUP3 ADD MSTORE PUSH32 0x4F6E6C79206F776E657220697320616C6C6F77656420746F20706572666F726D PUSH1 0x44 DUP3 ADD MSTORE PUSH12 0x103A3434B99030B1BA34B7B7 PUSH1 0xA1 SHL PUSH1 0x64 DUP3 ADD MSTORE PUSH1 0x84 ADD JUMPDEST PUSH1 0x40 MLOAD DUP1 SWAP2 SUB SWAP1 REVERT JUMPDEST PUSH2 0x1E4 DUP2 PUSH2 0x2B3 JUMP JUMPDEST POP JUMP JUMPDEST PUSH1 0x0 SLOAD PUSH1 0x1 PUSH1 0x1 PUSH1 0xA0 SHL SUB AND ISZERO PUSH2 0x234 JUMPI PUSH1 0x40 MLOAD PUSH3 0x461BCD PUSH1 0xE5 SHL DUP2 MSTORE PUSH1 0x20 PUSH1 0x4 DUP3 ADD MSTORE PUSH1 0x11 PUSH1 0x24 DUP3 ADD MSTORE PUSH17 0x616C726561647920696E6974616C697A65 PUSH1 0x78 SHL PUSH1 0x44 DUP3 ADD MSTORE PUSH1 0x64 ADD PUSH2 0x1D2 JUMP JUMPDEST PUSH1 0x2 SLOAD PUSH1 0xFF AND ISZERO PUSH2 0x27B JUMPI PUSH1 0x40 MLOAD PUSH3 0x461BCD PUSH1 0xE5 SHL DUP2 MSTORE PUSH1 0x20 PUSH1 0x4 DUP3 ADD MSTORE PUSH1 0x11 PUSH1 0x24 DUP3 ADD MSTORE PUSH17 0x616C726561647920696E6974616C697A65 PUSH1 0x78 SHL PUSH1 0x44 DUP3 ADD MSTORE PUSH1 0x64 ADD PUSH2 0x1D2 JUMP JUMPDEST PUSH1 0x0 DUP1 SLOAD PUSH1 0x1 PUSH1 0x1 PUSH1 0xA0 SHL SUB NOT AND CALLER OR SWAP1 SSTORE PUSH1 0x2 DUP1 SLOAD PUSH1 0xFF NOT AND PUSH1 0x1 OR SWAP1 SSTORE JUMP JUMPDEST PUSH1 0x1 DUP1 SLOAD SWAP1 PUSH1 0x0 PUSH2 0x2AC DUP4 PUSH2 0x3C8 JUMP JUMPDEST SWAP2 SWAP1 POP SSTORE POP JUMP JUMPDEST DUP1 PUSH1 0x1 PUSH1 0x1 PUSH1 0xA0 SHL SUB AND PUSH4 0x52D1902D PUSH1 0x40 MLOAD DUP2 PUSH4 0xFFFFFFFF AND PUSH1 0xE0 SHL DUP2 MSTORE PUSH1 0x4 ADD PUSH1 0x20 PUSH1 0x40 MLOAD DUP1 DUP4 SUB DUP2 DUP7 GAS STATICCALL ISZERO DUP1 ISZERO PUSH2 0x2F1 JUMPI RETURNDATASIZE PUSH1 0x0 DUP1 RETURNDATACOPY RETURNDATASIZE PUSH1 0x0 REVERT JUMPDEST POP POP POP POP PUSH1 0x40 MLOAD RETURNDATASIZE PUSH1 0x1F NOT PUSH1 0x1F DUP3 ADD AND DUP3 ADD DUP1 PUSH1 0x40 MSTORE POP DUP2 ADD SWAP1 PUSH2 0x315 SWAP2 SWAP1 PUSH2 0x3EF JUMP JUMPDEST PUSH32 0xC5F16F0FCC639FA48A6947836D9850F504798523BF8C9A3A87D5876CF622BCF7 EQ PUSH2 0x374 JUMPI PUSH1 0x40 MLOAD PUSH3 0x461BCD PUSH1 0xE5 SHL DUP2 MSTORE PUSH1 0x20 PUSH1 0x4 DUP3 ADD MSTORE PUSH1 0xE PUSH1 0x24 DUP3 ADD MSTORE PUSH14 0x4E6F7420636F6D70617469626C65 PUSH1 0x90 SHL PUSH1 0x44 DUP3 ADD MSTORE PUSH1 0x64 ADD PUSH2 0x1D2 JUMP JUMPDEST PUSH32 0xC5F16F0FCC639FA48A6947836D9850F504798523BF8C9A3A87D5876CF622BCF7 SSTORE JUMP JUMPDEST PUSH1 0x0 PUSH1 0x20 DUP3 DUP5 SUB SLT ISZERO PUSH2 0x3AA JUMPI PUSH1 0x0 DUP1 REVERT JUMPDEST DUP2 CALLDATALOAD PUSH1 0x1 PUSH1 0x1 PUSH1 0xA0 SHL SUB DUP2 AND DUP2 EQ PUSH2 0x3C1 JUMPI PUSH1 0x0 DUP1 REVERT JUMPDEST SWAP4 SWAP3 POP POP POP JUMP JUMPDEST PUSH1 0x0 PUSH1 0x1 DUP3 ADD PUSH2 0x3E8 JUMPI PUSH4 0x4E487B71 PUSH1 0xE0 SHL PUSH1 0x0 MSTORE PUSH1 0x11 PUSH1 0x4 MSTORE PUSH1 0x24 PUSH1 0x0 REVERT JUMPDEST POP PUSH1 0x1 ADD SWAP1 JUMP JUMPDEST PUSH1 0x0 PUSH1 0x20 DUP3 DUP5 SUB SLT ISZERO PUSH2 0x401 JUMPI PUSH1 0x0 DUP1 REVERT JUMPDEST POP MLOAD SWAP2 SWAP1 POP JUMP INVALID LOG2 PUSH5 0x6970667358 0x22 SLT KECCAK256 GASPRICE PUSH12 0x381BB7B1FED79AD1AD194A3A GAS 0xDF 0xDC 0x5E NUMBER 0xCB 0xFC PUSH6 0xCC31889192A3 0xC6 0xE4 SSTORE DUP4 PUSH5 0x736F6C6343 STOP ADDMOD GT STOP CALLER "
		},
		"gasEstimates": {
			"creation": {
				"codeDepositCost": "217200",
				"executionCost": "24481",
				"totalCost": "241681"
			},
			"external": {
				"count()": "2285",
				"increment()": "24496",
				"initalize()": "52889",
				"initalized()": "2310",
				"owner()": "2381",
				"proxiableUUID()": "248",
				"updateCode(address)": "infinite",
				"x()": "2362"
			}
		},
		"methodIdentifiers": {
			"count()": "06661abd",
			"increment()": "d09de08a",
			"initalize()": "71845bb0",
			"initalized()": "5be1a091",
			"owner()": "8da5cb5b",
			"proxiableUUID()": "52d1902d",
			"updateCode(address)": "46951954",
			"x()": "0c55699c"
		}
	},
	"abi": [
		{
			"inputs": [],
			"name": "count",
			"outputs": [
				{
					"internalType": "uint256",
					"name": "",
					"type": "uint256"
				}
			],
			"stateMutability": "view",
			"type": "function"
		},
		{
			"inputs": [],
			"name": "increment",
			"outputs": [],
			"stateMutability": "nonpayable",
			"type": "function"
		},
		{
			"inputs": [],
			"name": "initalize",
			"outputs": [],
			"stateMutability": "nonpayable",
			"type": "function"
		},
		{
			"inputs": [],
			"name": "initalized",
			"outputs": [
				{
					"internalType": "bool",
					"name": "",
					"type": "bool"
				}
			],
			"stateMutability": "view",
			"type": "function"
		},
		{
			"inputs": [],
			"name": "owner",
			"outputs": [
				{
					"internalType": "address",
					"name": "",
					"type": "address"
				}
			],
			"stateMutability": "view",
			"type": "function"
		},
		{
			"inputs": [],
			"name": "proxiableUUID",
			"outputs": [
				{
					"internalType": "bytes32",
					"name": "",
					"type": "bytes32"
				}
			],
			"stateMutability": "pure",
			"type": "function"
		},
		{
			"inputs": [
				{
					"internalType": "address",
					"name": "newCode",
					"type": "address"
				}
			],
			"name": "updateCode",
			"outputs": [],
			"stateMutability": "nonpayable",
			"type": "function"
		},
		{
			"inputs": [],
			"name": "x",
			"outputs": [
				{
					"internalType": "bytes4",
					"name": "",
					"type": "bytes4"
				}
			],
			"stateMutability": "view",
			"type": "function"
		}
	]
}