{
	"data": {
		"bytecode": {
			"linkReferences": {},
			"object": "60a060405230608052348015601357600080fd5b5060805161332961003d600039600081816128050152818161282e015261296f01526133296000f3fe6080604052600436106102555760003560e01c80638da5cb5b11610139578063c1560a14116100b6578063df4e05931161007a578063df4e059314610782578063e8e87389146107bf578063efdcdb45146107ec578063f2fde38b14610824578063fc0c546a14610844578063fd663da21461086457600080fd5b8063c1560a141461067c578063c211e1f914610692578063c81ffdea1461071b578063d1f3b23e14610748578063d3d9d1e41461076257600080fd5b806399131e7e116100fd57806399131e7e14610571578063a1e89aec14610591578063ad3cb1cc146105a7578063b5f522f7146105e5578063b9469e1a1461065c57600080fd5b80638da5cb5b1461050657806391152c5c1461051b57806391d8730a14610530578063940c333e14610549578063960524e31461055c57600080fd5b80634dee1dc3116101d257806363b201171161019657806363b201171461047b5780636c1909ed14610491578063715018a6146104b1578063721bc38b146104c65780637cf12b90146104dc5780637fb12001146104f157600080fd5b80634dee1dc3146103ff5780634f1ef2861461041e57806352d1902d1461043157806362a469e91461044657806362a5af3b1461046657600080fd5b80632151206e116102195780632151206e1461035a57806323cc75a8146103705780632f48ab7d146103875780633e413bee146103bf5780633feb5f2b146103df57600080fd5b806305834e67146102ac57806306e4d36f146102df578063115afc3a14610305578063117d260f14610325578063212ea2471461034557600080fd5b366102a75760405162461bcd60e51b815260206004820181905260248201527f44697265637420424e42207472616e7366657273206e6f7420616c6c6f77656460448201526064015b60405180910390fd5b600080fd5b3480156102b857600080fd5b506102cc6102c7366004612c6f565b610884565b6040519081526020015b60405180910390f35b3480156102eb57600080fd5b5060045460075410155b60405190151581526020016102d6565b34801561031157600080fd5b506102cc610320366004612c99565b610a3e565b34801561033157600080fd5b506102cc610340366004612c6f565b610ba7565b34801561035157600080fd5b506006546102cc565b34801561036657600080fd5b506102cc60045481565b34801561037c57600080fd5b50610385610d79565b005b34801561039357600080fd5b50600b546103a7906001600160a01b031681565b6040516001600160a01b0390911681526020016102d6565b3480156103cb57600080fd5b50600c546103a7906001600160a01b031681565b3480156103eb57600080fd5b506103a76103fa366004612cb4565b610ef8565b34801561040b57600080fd5b506009546102f590610100900460ff1681565b61038561042c366004612cf8565b610f22565b34801561043d57600080fd5b506102cc610f41565b34801561045257600080fd5b506001546103a7906001600160a01b031681565b34801561047257600080fd5b50610385610f5e565b34801561048757600080fd5b506102cc60085481565b34801561049d57600080fd5b506103856104ac366004612dc4565b610fc4565b3480156104bd57600080fd5b50610385611215565b3480156104d257600080fd5b506102cc60075481565b3480156104e857600080fd5b50610385611227565b3480156104fd57600080fd5b50610385611289565b34801561051257600080fd5b506103a761179e565b34801561052757600080fd5b506103856117cc565b34801561053c57600080fd5b50600554600754146102f5565b610385610557366004612c6f565b611bb0565b34801561056857600080fd5b50600a546102cc565b34801561057d57600080fd5b506000546103a7906001600160a01b031681565b34801561059d57600080fd5b506102cc60065481565b3480156105b357600080fd5b506105d8604051806040016040528060058152602001640352e302e360dc1b81525081565b6040516102d69190612e14565b3480156105f157600080fd5b50610632610600366004612cb4565b600d60205260009081526040902080546001820154600283015460038401546004909401549293919290919060ff1685565b6040805195865260208601949094529284019190915260608301521515608082015260a0016102d6565b34801561066857600080fd5b506009546102f59062010000900460ff1681565b34801561068857600080fd5b506102cc60055481565b34801561069e57600080fd5b506107066106ad366004612cb4565b506006546000908152600d6020908152604091829020825160a081018452815480825260018301549382018490526002830154948201949094526003820154606082015260049091015460ff1615156080909101529091565b604080519283526020830191909152016102d6565b34801561072757600080fd5b506102cc610736366004612e47565b600e6020526000908152604090205481565b34801561075457600080fd5b506009546102f59060ff1681565b34801561076e57600080fd5b506002546103a7906001600160a01b031681565b34801561078e57600080fd5b506107b261079d366004612e47565b60106020526000908152604090205460ff1681565b6040516102d69190612e9c565b3480156107cb57600080fd5b506102cc6107da366004612e47565b600f6020526000908152604090205481565b3480156107f857600080fd5b506102cc610807366004612eaa565b601160209081526000928352604080842090915290825290205481565b34801561083057600080fd5b5061038561083f366004612e47565b61220e565b34801561085057600080fd5b506003546103a7906001600160a01b031681565b34801561087057600080fd5b5061038561087f366004612edf565b61224c565b6000806402540be40061089685610a3e565b6108a09190612f8c565b9050600081136108e75760405162461bcd60e51b8152602060048201526012602482015271125b9d985b1a59081c1c9a58d9481999595960721b604482015260640161029e565b60006108f260065490565b6000818152600d60205260408120600281015492935091908088600281111561091d5761091d612e64565b0361094657670de0b6b3a76400006109358887612fbc565b61093f9190612fd3565b9050610a10565b600288600281111561095a5761095a612e64565b14806109775750600188600281111561097557610975612e64565b145b156109c8576006600061098b826012612ff5565b61099690600a6130ef565b6109a0908a612fbc565b9050670de0b6b3a76400006109b58289612fbc565b6109bf9190612fd3565b92505050610a10565b60405162461bcd60e51b815260206004820152601a60248201527f556e737570706f72746564207061796d656e74206d6574686f64000000000000604482015260640161029e565b600082610a25670de0b6b3a764000084612fbc565b610a2f9190612fd3565b96505050505050505b92915050565b600080826002811115610a5357610a53612e64565b03610adc5760008060009054906101000a90046001600160a01b03166001600160a01b031663feaf968c6040518163ffffffff1660e01b815260040160a060405180830381865afa158015610aac573d6000803e3d6000fd5b505050506040513d601f19601f82011682018060405250810190610ad09190613115565b50919695505050505050565b6001826002811115610af057610af0612e64565b03610b3f5760015460408051633fabe5a360e21b815290516000926001600160a01b03169163feaf968c9160048083019260a09291908290030181865afa158015610aac573d6000803e3d6000fd5b6002826002811115610b5357610b53612e64565b036109c85760025460408051633fabe5a360e21b815290516000926001600160a01b03169163feaf968c9160048083019260a09291908290030181865afa158015610aac573d6000803e3d6000fd5b919050565b6000808211610c075760405162461bcd60e51b815260206004820152602660248201527f546f6b656e20616d6f756e74206d7573742062652067726561746572207468616044820152656e207a65726f60d01b606482015260840161029e565b60006402540be400610c1885610a3e565b610c229190612f8c565b905060008113610c695760405162461bcd60e51b8152602060048201526012602482015271125b9d985b1a59081c1c9a58d9481999595960721b604482015260640161029e565b6000610c7460065490565b905080600003610cb75760405162461bcd60e51b815260206004820152600e60248201526d4e6f206163746976652073616c6560901b604482015260640161029e565b6000818152600d6020526040812060028101549091670de0b6b3a7640000610cdf8389612fbc565b610ce99190612fd3565b9050600080896002811115610d0057610d00612e64565b03610d295785610d18670de0b6b3a764000084612fbc565b610d229190612fd3565b9050610d6d565b6001896002811115610d3d57610d3d612e64565b1480610d5a57506002896002811115610d5857610d58612e64565b145b156109c85785610d1883620f4240612fbc565b98975050505050505050565b610d81612462565b610d8961249a565b60095460ff1615610dac5760405162461bcd60e51b815260040161029e90613167565b60095462010000900460ff1615610dd55760405162461bcd60e51b815260040161029e90613196565b6004546007541015610e4f5760405162461bcd60e51b815260206004820152603860248201527f43616e6e6f742066696e616c697a653a20536f667420636170206e6f7420726560448201527f6163686564206f722073616c65206973206f6e676f696e670000000000000000606482015260840161029e565b600954610100900460ff16610e9e5760405162461bcd60e51b8152602060048201526015602482015274105a5c991c9bdc081b9bdd0818dbdb5c1b195d1959605a1b604482015260640161029e565b6009805460ff19166001179055610eb36124cc565b6008546040517f9c4b134da32aab35252391880a9f2a3c13a760d7817ae8823f2b301d3522045a90600090a2610ef660016000805160206132d483398151915255565b565b600a8181548110610f0857600080fd5b6000918252602090912001546001600160a01b0316905081565b610f2a6127fa565b610f338261289f565b610f3d82826128a7565b5050565b6000610f4b612964565b506000805160206132b483398151915290565b610f6661249a565b60095462010000900460ff1615610fb15760405162461bcd60e51b815260206004820152600f60248201526e105b1c9958591e48119c99595e9959608a1b604482015260640161029e565b6009805462ff0000191662010000179055565b610fcc61249a565b60095460ff1615610fef5760405162461bcd60e51b815260040161029e90613167565b60095462010000900460ff16156110185760405162461bcd60e51b815260040161029e90613196565b42831161107c5760405162461bcd60e51b815260206004820152602c60248201527f53746172742074696d65206d7573742062652067726561746572207468616e2060448201526b63757272656e742074696d6560a01b606482015260840161029e565b8282116110dc5760405162461bcd60e51b815260206004820152602860248201527f456e642074696d65206d7573742062652067726561746572207468616e2073746044820152676172742074696d6560c01b606482015260840161029e565b6006546000908152600d602052604090206001015442116111545760405162461bcd60e51b815260206004820152602c60248201527f4e65772073616c65206d75737420737461727420616674657220746865206c6160448201526b73742073616c6520656e647360a01b606482015260840161029e565b60068054906000611164836131b7565b90915550506040805160a08101825284815260208082018581528284018581526000606080860182815260808701838152600680548552600d8852938990209751885594516001880155925160028701559151600386015591516004909401805460ff1916941515949094179093555483518781529182018690529281018490527f63b43fa153147ade1de28ed76841cdbc34e510ed94dd1ff5a88e278b0b1ad9ba910160405180910390a2505050565b61121d61249a565b610ef660006129ad565b61122f61249a565b60095462010000900460ff1661127b5760405162461bcd60e51b8152602060048201526011602482015270105b1c9958591e48155b919c99595e9959607a1b604482015260640161029e565b6009805462ff000019169055565b611291612462565b61129961249a565b60095460ff16156112bc5760405162461bcd60e51b815260040161029e90613167565b6006546000908152600d6020526040902060010154421161130e5760405162461bcd60e51b815260206004820152600c60248201526b53616c65206f6e676f696e6760a01b604482015260640161029e565b600454600754106113545760405162461bcd60e51b815260206004820152601060248201526f14dbd99d0818d85c081c995858da195960821b604482015260640161029e565b600a8054906000908211156113755761136e600b83612ff5565b9050611379565b5060005b6000611386600184612ff5565b90505b81811061176c576000600a82815481106113a5576113a56131d0565b60009182526020822001546001600160a01b031691505b60038160ff1610156117155760008160ff1660028111156113df576113df612e64565b6001600160a01b0384166000908152601160205260408120919250908183600281111561140e5761140e612e64565b600281111561141f5761141f612e64565b8152602001908152602001600020549050600081111561170b576001600160a01b03841660009081526011602052604081208184600281111561146457611464612e64565b600281111561147557611475612e64565b8152602081019190915260400160009081209190915582600281111561149d5761149d612e64565b0361153f576000846001600160a01b03168260405160006040518083038185875af1925050503d80600081146114ef576040519150601f19603f3d011682016040523d82523d6000602084013e6114f4565b606091505b50509050806115395760405162461bcd60e51b8152602060048201526011602482015270109390881c99599d5b990819985a5b1959607a1b604482015260640161029e565b506116c7565b600182600281111561155357611553612e64565b14806115705750600282600281111561156e5761156e612e64565b145b15611671576000600183600281111561158b5761158b612e64565b146115a157600c546001600160a01b03166115ae565b600b546001600160a01b03165b60405163a9059cbb60e01b81526001600160a01b038781166004830152602482018590529192509082169063a9059cbb906044016020604051808303816000875af1158015611601573d6000803e3d6000fd5b505050506040513d601f19601f8201168201806040525081019061162591906131e6565b6115395760405162461bcd60e51b815260206004820152601860248201527f537461626c65636f696e20726566756e64206661696c65640000000000000000604482015260640161029e565b60405162461bcd60e51b815260206004820152602560248201527f556e737570706f72746564207061796d656e74206d6574686f6420666f72207260448201526419599d5b9960da1b606482015260840161029e565b836001600160a01b03167f03829ab241648d7348f97e4f77d36451330f2276ea8eeb3428e462012f9699e78284604051611702929190613208565b60405180910390a25b50506001016113bc565b50600a8054806117275761172761321c565b600082815260208120820160001990810180546001600160a01b0319169055909101909155829003611759575061176c565b508061176481613232565b915050611389565b50600a54600003611785576009805460ff191660011790555b5050610ef660016000805160206132d483398151915255565b7f9016d09d72d40fdae2fd8ceac6b6234c7706214fd39c1cd1e609a0528c199300546001600160a01b031690565b6117d4612462565b6117dc61249a565b60095460ff16156117ff5760405162461bcd60e51b815260040161029e90613167565b60095462010000900460ff16156118285760405162461bcd60e51b815260040161029e90613196565b600954610100900460ff16156118805760405162461bcd60e51b815260206004820152601960248201527f41697264726f7020616c726561647920636f6d706c6574656400000000000000604482015260640161029e565b6008546003546040516370a0823160e01b81523360048201526001600160a01b03909116906370a0823190602401602060405180830381865afa1580156118cb573d6000803e3d6000fd5b505050506040513d601f19601f820116820180604052508101906118ef9190613249565b10156119325760405162461bcd60e51b8152602060048201526012602482015271496e73756666696369656e742046756e647360701b604482015260640161029e565b6006546000908152600d602052604090206001015442116119845760405162461bcd60e51b815260206004820152600c60248201526b53616c65206f6e676f696e6760a01b604482015260640161029e565b600a8054906000908211156119a55761199e600b83612ff5565b90506119a9565b5060005b60006119b6600184612ff5565b90505b818110611b7d576000600a82815481106119d5576119d56131d0565b60009182526020808320909101546001600160a01b0316808352600f9091526040909120549091508015611b59576003546000906001600160a01b03166323b872dd611a1f61179e565b6040516001600160e01b031960e084901b1681526001600160a01b0391821660048201529086166024820152604481018590526064016020604051808303816000875af1158015611a74573d6000803e3d6000fd5b505050506040513d601f19601f82011682018060405250810190611a9891906131e6565b905080611adf5760405162461bcd60e51b8152602060048201526015602482015274151bdad95b881d1c985b9cd9995c8819985a5b1959605a1b604482015260640161029e565b600a805480611af057611af061321c565b600082815260209020810160001990810180546001600160a01b03191690550190556040516001600160a01b038416907f9bdcd0cc5503fb9a8dd7311d9617e33108c4b7c8948cc544b16c1fd63c6f475b90611b4f9085815260200190565b60405180910390a2505b82600003611b68575050611b7d565b50508080611b7590613232565b9150506119b9565b50600a54600003611785576009805461ff0019166101001790555050610ef660016000805160206132d483398151915255565b60095460ff1615611bd35760405162461bcd60e51b815260040161029e90613167565b60095462010000900460ff1615611bfc5760405162461bcd60e51b815260040161029e90613196565b611c0461179e565b6001600160a01b03163303611c5b5760405162461bcd60e51b815260206004820152601760248201527f4f776e65722063616e6e6f742062757920746f6b656e73000000000000000000604482015260640161029e565b600654600003611c975760405162461bcd60e51b81526020600482015260076024820152664e6f2073616c6560c81b604482015260640161029e565b6006546000908152600d602052604090206004015460ff1615611cf55760405162461bcd60e51b815260206004820152601660248201527514d85b1948185b1c9958591e48199a5b985b1a5e995960521b604482015260640161029e565b600080836002811115611d0a57611d0a612e64565b03611dc95760003411611d5f5760405162461bcd60e51b815260206004820152601760248201527f53656e6420612076616c696420424e4220616d6f756e74000000000000000000604482015260640161029e565b611d698334610884565b336000908152601160205260408120919250349190856002811115611d9057611d90612e64565b6002811115611da157611da1612e64565b81526020019081526020016000206000828254611dbe9190613262565b90915550611fb99050565b6001836002811115611ddd57611ddd612e64565b1480611dfa57506002836002811115611df857611df8612e64565b145b156109c85760008211611e4f5760405162461bcd60e51b815260206004820152601f60248201527f456e74657220612076616c696420737461626c65636f696e20616d6f756e7400604482015260640161029e565b60006001846002811115611e6557611e65612e64565b14611e7b57600c546001600160a01b0316611e88565b600b546001600160a01b03165b6040516323b872dd60e01b8152336004820152306024820152604481018590529091506001600160a01b038216906323b872dd906064016020604051808303816000875af1158015611ede573d6000803e3d6000fd5b505050506040513d601f19601f82011682018060405250810190611f0291906131e6565b611f4e5760405162461bcd60e51b815260206004820152601a60248201527f537461626c65636f696e207472616e73666572206661696c6564000000000000604482015260640161029e565b611f588484610884565b336000908152601160205260408120919350849190866002811115611f7f57611f7f612e64565b6002811115611f9057611f90612e64565b81526020019081526020016000206000828254611fad9190613262565b90915550611fb9915050565b600081116120005760405162461bcd60e51b8152602060048201526014602482015273125b9d985b1a59081d1bdad95b88185b5bdd5b9d60621b604482015260640161029e565b6006546000908152600d6020526040812060020154670de0b6b3a7640000906120299084612fbc565b6120339190612fd3565b9050600554816007546120469190613262565b11156120875760405162461bcd60e51b815260206004820152601060248201526f12185c990818d85c081c995858da195960821b604482015260640161029e565b336000908152600e6020526040812080548392906120a6908490613262565b9250508190555080600760008282546120bf9190613262565b90915550506006546000908152600d6020526040812060030180548492906120e8908490613262565b9250508190555081600860008282546121019190613262565b9091555050336000908152600f6020526040812054900361215f57600a80546001810182556000919091527fc65a7bb8d6351c1cf70c95a316cc6a92839c986682d98bc35f958f4883f9d2a80180546001600160a01b031916331790555b336000908152600f60205260408120805484929061217e908490613262565b9091555050336000908152601060205260409020805485919060ff191660018360028111156121af576121af612e64565b02179055506006546000818152600d60205260409081902060020154905133917fdbcef474a632721725d49e3f35d9defe0257100b01d1e4b4b135b14d6fe296e89161220091879189908b90613275565b60405180910390a350505050565b61221661249a565b6001600160a01b03811661224057604051631e4fbdf760e01b81526000600482015260240161029e565b612249816129ad565b50565b7ff0c57e16840df040f15088dc2f81fe391c3923bec73e23a9662efc9c229c6a008054600160401b810460ff16159067ffffffffffffffff166000811580156122925750825b905060008267ffffffffffffffff1660011480156122af5750303b155b9050811580156122bd575080155b156122db5760405163f92ee8a960e01b815260040160405180910390fd5b845467ffffffffffffffff19166001178555831561230557845460ff60401b1916600160401b1785555b61230e33612a1e565b612316612a2f565b8c600360006101000a8154816001600160a01b0302191690836001600160a01b0316021790555089600481905550886005819055508b600b60006101000a8154816001600160a01b0302191690836001600160a01b031602179055508a600c60006101000a8154816001600160a01b0302191690836001600160a01b03160217905550876000806101000a8154816001600160a01b0302191690836001600160a01b0316021790555086600160006101000a8154816001600160a01b0302191690836001600160a01b0316021790555085600260006101000a8154816001600160a01b0302191690836001600160a01b03160217905550831561245357845460ff60401b19168555604051600181527fc7f505b2f371ae2175ee4913f4499e1f2633a7b5936321eed1cdaeb6115181d29060200160405180910390a15b50505050505050505050505050565b6000805160206132d483398151915280546001190161249457604051633ee5aeb560e01b815260040160405180910390fd5b60029055565b336124a361179e565b6001600160a01b031614610ef65760405163118cdaa760e01b815233600482015260240161029e565b4780156125715760006124dd61179e565b6001600160a01b03168260405160006040518083038185875af1925050503d8060008114612527576040519150601f19603f3d011682016040523d82523d6000602084013e61252c565b606091505b505090508061256f5760405162461bcd60e51b815260206004820152600f60248201526e151c985b9cd9995c8819985a5b1959608a1b604482015260640161029e565b505b600b546040516370a0823160e01b81523060048201526000916001600160a01b0316906370a0823190602401602060405180830381865afa1580156125ba573d6000803e3d6000fd5b505050506040513d601f19601f820116820180604052508101906125de9190613249565b905080156126b357600b546001600160a01b031663a9059cbb6125ff61179e565b6040516001600160e01b031960e084901b1681526001600160a01b039091166004820152602481018490526044016020604051808303816000875af115801561264c573d6000803e3d6000fd5b505050506040513d601f19601f8201168201806040525081019061267091906131e6565b6126b35760405162461bcd60e51b81526020600482015260146024820152731554d115081d1c985b9cd9995c8819985a5b195960621b604482015260640161029e565b600c546040516370a0823160e01b81523060048201526000916001600160a01b0316906370a0823190602401602060405180830381865afa1580156126fc573d6000803e3d6000fd5b505050506040513d601f19601f820116820180604052508101906127209190613249565b905080156127f557600c546001600160a01b031663a9059cbb61274161179e565b6040516001600160e01b031960e084901b1681526001600160a01b039091166004820152602481018490526044016020604051808303816000875af115801561278e573d6000803e3d6000fd5b505050506040513d601f19601f820116820180604052508101906127b291906131e6565b6127f55760405162461bcd60e51b81526020600482015260146024820152731554d110c81d1c985b9cd9995c8819985a5b195960621b604482015260640161029e565b505050565b306001600160a01b037f000000000000000000000000000000000000000000000000000000000000000016148061288157507f00000000000000000000000000000000000000000000000000000000000000006001600160a01b03166128756000805160206132b4833981519152546001600160a01b031690565b6001600160a01b031614155b15610ef65760405163703e46dd60e11b815260040160405180910390fd5b61224961249a565b816001600160a01b03166352d1902d6040518163ffffffff1660e01b8152600401602060405180830381865afa925050508015612901575060408051601f3d908101601f191682019092526128fe91810190613249565b60015b61292957604051634c9c8ce360e01b81526001600160a01b038316600482015260240161029e565b6000805160206132b4833981519152811461295a57604051632a87526960e21b81526004810182905260240161029e565b6127f58383612a37565b306001600160a01b037f00000000000000000000000000000000000000000000000000000000000000001614610ef65760405163703e46dd60e11b815260040160405180910390fd5b7f9016d09d72d40fdae2fd8ceac6b6234c7706214fd39c1cd1e609a0528c19930080546001600160a01b031981166001600160a01b03848116918217845560405192169182907f8be0079c531659141344cd1fd0a4f28419497f9722a3daafe3b4186f6b6457e090600090a3505050565b612a26612a8d565b61224981612ad6565b610ef6612a8d565b612a4082612ade565b6040516001600160a01b038316907fbc7cd75a20ee27fd9adebab32041f755214dbc6bffa90cc0225b39da2e5c2d3b90600090a2805115612a85576127f58282612b43565b610f3d612bb9565b7ff0c57e16840df040f15088dc2f81fe391c3923bec73e23a9662efc9c229c6a0054600160401b900460ff16610ef657604051631afcd79f60e31b815260040160405180910390fd5b612216612a8d565b806001600160a01b03163b600003612b1457604051634c9c8ce360e01b81526001600160a01b038216600482015260240161029e565b6000805160206132b483398151915280546001600160a01b0319166001600160a01b0392909216919091179055565b6060600080846001600160a01b031684604051612b609190613297565b600060405180830381855af49150503d8060008114612b9b576040519150601f19603f3d011682016040523d82523d6000602084013e612ba0565b606091505b5091509150612bb0858383612bd8565b95945050505050565b3415610ef65760405163b398979f60e01b815260040160405180910390fd5b606082612bed57612be882612c37565b612c30565b8151158015612c0457506001600160a01b0384163b155b15612c2d57604051639996b31560e01b81526001600160a01b038516600482015260240161029e565b50805b9392505050565b805115612c475780518082602001fd5b60405163d6bda27560e01b815260040160405180910390fd5b803560038110610ba257600080fd5b60008060408385031215612c8257600080fd5b612c8b83612c60565b946020939093013593505050565b600060208284031215612cab57600080fd5b612c3082612c60565b600060208284031215612cc657600080fd5b5035919050565b6001600160a01b038116811461224957600080fd5b634e487b7160e01b600052604160045260246000fd5b60008060408385031215612d0b57600080fd5b8235612d1681612ccd565b9150602083013567ffffffffffffffff811115612d3257600080fd5b8301601f81018513612d4357600080fd5b803567ffffffffffffffff811115612d5d57612d5d612ce2565b604051601f8201601f19908116603f0116810167ffffffffffffffff81118282101715612d8c57612d8c612ce2565b604052818152828201602001871015612da457600080fd5b816020840160208301376000602083830101528093505050509250929050565b600080600060608486031215612dd957600080fd5b505081359360208301359350604090920135919050565b60005b83811015612e0b578181015183820152602001612df3565b50506000910152565b6020815260008251806020840152612e33816040850160208701612df0565b601f01601f19169190910160400192915050565b600060208284031215612e5957600080fd5b8135612c3081612ccd565b634e487b7160e01b600052602160045260246000fd5b60038110612e9857634e487b7160e01b600052602160045260246000fd5b9052565b60208101610a388284612e7a565b60008060408385031215612ebd57600080fd5b8235612ec881612ccd565b9150612ed660208401612c60565b90509250929050565b600080600080600080600080610100898b031215612efc57600080fd5b8835612f0781612ccd565b97506020890135612f1781612ccd565b96506040890135612f2781612ccd565b9550606089013594506080890135935060a0890135612f4581612ccd565b925060c0890135612f5581612ccd565b915060e0890135612f6581612ccd565b809150509295985092959890939650565b634e487b7160e01b600052601160045260246000fd5b80820260008212600160ff1b84141615612fa857612fa8612f76565b8181058314821517610a3857610a38612f76565b8082028115828204841417610a3857610a38612f76565b600082612ff057634e487b7160e01b600052601260045260246000fd5b500490565b81810381811115610a3857610a38612f76565b6001815b60018411156130435780850481111561302757613027612f76565b600184161561303557908102905b60019390931c92800261300c565b935093915050565b60008261305a57506001610a38565b8161306757506000610a38565b816001811461307d5760028114613087576130a3565b6001915050610a38565b60ff84111561309857613098612f76565b50506001821b610a38565b5060208310610133831016604e8410600b84101617156130c6575081810a610a38565b6130d36000198484613008565b80600019048211156130e7576130e7612f76565b029392505050565b6000612c30838361304b565b805169ffffffffffffffffffff81168114610ba257600080fd5b600080600080600060a0868803121561312d57600080fd5b613136866130fb565b6020870151604088015160608901519297509095509350915061315b608087016130fb565b90509295509295909350565b6020808252601590820152741250d3c8185b1c9958591e48199a5b985b1a5e9959605a1b604082015260600190565b602080825260079082015266199c99595e995960ca1b604082015260600190565b6000600182016131c9576131c9612f76565b5060010190565b634e487b7160e01b600052603260045260246000fd5b6000602082840312156131f857600080fd5b81518015158114612c3057600080fd5b82815260408101612c306020830184612e7a565b634e487b7160e01b600052603160045260246000fd5b60008161324157613241612f76565b506000190190565b60006020828403121561325b57600080fd5b5051919050565b80820180821115610a3857610a38612f76565b848152602081018490526040810183905260808101612bb06060830184612e7a565b600082516132a9818460208701612df0565b919091019291505056fe360894a13ba1a3210667c828492db98dca3e2076cc3735a920a3ca505d382bbc9b779b17422d0df92223018b32b4d1fa46e071723d6817e2486d003becc55f00a264697066735822122037f47ce339c7594754232d7a3c214f93cc64be6996383974dd0f9b5df6a5b7f064736f6c634300081a0033",
			"opcodes": "PUSH1 0xA0 PUSH1 0x40 MSTORE ADDRESS PUSH1 0x80 MSTORE CALLVALUE DUP1 ISZERO PUSH1 0x13 JUMPI PUSH1 0x0 DUP1 REVERT JUMPDEST POP PUSH1 0x80 MLOAD PUSH2 0x3329 PUSH2 0x3D PUSH1 0x0 CODECOPY PUSH1 0x0 DUP2 DUP2 PUSH2 0x2805 ADD MSTORE DUP2 DUP2 PUSH2 0x282E ADD MSTORE PUSH2 0x296F ADD MSTORE PUSH2 0x3329 PUSH1 0x0 RETURN INVALID PUSH1 0x80 PUSH1 0x40 MSTORE PUSH1 0x4 CALLDATASIZE LT PUSH2 0x255 JUMPI PUSH1 0x0 CALLDATALOAD PUSH1 0xE0 SHR DUP1 PUSH4 0x8DA5CB5B GT PUSH2 0x139 JUMPI DUP1 PUSH4 0xC1560A14 GT PUSH2 0xB6 JUMPI DUP1 PUSH4 0xDF4E0593 GT PUSH2 0x7A JUMPI DUP1 PUSH4 0xDF4E0593 EQ PUSH2 0x782 JUMPI DUP1 PUSH4 0xE8E87389 EQ PUSH2 0x7BF JUMPI DUP1 PUSH4 0xEFDCDB45 EQ PUSH2 0x7EC JUMPI DUP1 PUSH4 0xF2FDE38B EQ PUSH2 0x824 JUMPI DUP1 PUSH4 0xFC0C546A EQ PUSH2 0x844 JUMPI DUP1 PUSH4 0xFD663DA2 EQ PUSH2 0x864 JUMPI PUSH1 0x0 DUP1 REVERT JUMPDEST DUP1 PUSH4 0xC1560A14 EQ PUSH2 0x67C JUMPI DUP1 PUSH4 0xC211E1F9 EQ PUSH2 0x692 JUMPI DUP1 PUSH4 0xC81FFDEA EQ PUSH2 0x71B JUMPI DUP1 PUSH4 0xD1F3B23E EQ PUSH2 0x748 JUMPI DUP1 PUSH4 0xD3D9D1E4 EQ PUSH2 0x762 JUMPI PUSH1 0x0 DUP1 REVERT JUMPDEST DUP1 PUSH4 0x99131E7E GT PUSH2 0xFD JUMPI DUP1 PUSH4 0x99131E7E EQ PUSH2 0x571 JUMPI DUP1 PUSH4 0xA1E89AEC EQ PUSH2 0x591 JUMPI DUP1 PUSH4 0xAD3CB1CC EQ PUSH2 0x5A7 JUMPI DUP1 PUSH4 0xB5F522F7 EQ PUSH2 0x5E5 JUMPI DUP1 PUSH4 0xB9469E1A EQ PUSH2 0x65C JUMPI PUSH1 0x0 DUP1 REVERT JUMPDEST DUP1 PUSH4 0x8DA5CB5B EQ PUSH2 0x506 JUMPI DUP1 PUSH4 0x91152C5C EQ PUSH2 0x51B JUMPI DUP1 PUSH4 0x91D8730A EQ PUSH2 0x530 JUMPI DUP1 PUSH4 0x940C333E EQ PUSH2 0x549 JUMPI DUP1 PUSH4 0x960524E3 EQ PUSH2 0x55C JUMPI PUSH1 0x0 DUP1 REVERT JUMPDEST DUP1 PUSH4 0x4DEE1DC3 GT PUSH2 0x1D2 JUMPI DUP1 PUSH4 0x63B20117 GT PUSH2 0x196 JUMPI DUP1 PUSH4 0x63B20117 EQ PUSH2 0x47B JUMPI DUP1 PUSH4 0x6C1909ED EQ PUSH2 0x491 JUMPI DUP1 PUSH4 0x715018A6 EQ PUSH2 0x4B1 JUMPI DUP1 PUSH4 0x721BC38B EQ PUSH2 0x4C6 JUMPI DUP1 PUSH4 0x7CF12B90 EQ PUSH2 0x4DC JUMPI DUP1 PUSH4 0x7FB12001 EQ PUSH2 0x4F1 JUMPI PUSH1 0x0 DUP1 REVERT JUMPDEST DUP1 PUSH4 0x4DEE1DC3 EQ PUSH2 0x3FF JUMPI DUP1 PUSH4 0x4F1EF286 EQ PUSH2 0x41E JUMPI DUP1 PUSH4 0x52D1902D EQ PUSH2 0x431 JUMPI DUP1 PUSH4 0x62A469E9 EQ PUSH2 0x446 JUMPI DUP1 PUSH4 0x62A5AF3B EQ PUSH2 0x466 JUMPI PUSH1 0x0 DUP1 REVERT JUMPDEST DUP1 PUSH4 0x2151206E GT PUSH2 0x219 JUMPI DUP1 PUSH4 0x2151206E EQ PUSH2 0x35A JUMPI DUP1 PUSH4 0x23CC75A8 EQ PUSH2 0x370 JUMPI DUP1 PUSH4 0x2F48AB7D EQ PUSH2 0x387 JUMPI DUP1 PUSH4 0x3E413BEE EQ PUSH2 0x3BF JUMPI DUP1 PUSH4 0x3FEB5F2B EQ PUSH2 0x3DF JUMPI PUSH1 0x0 DUP1 REVERT JUMPDEST DUP1 PUSH4 0x5834E67 EQ PUSH2 0x2AC JUMPI DUP1 PUSH4 0x6E4D36F EQ PUSH2 0x2DF JUMPI DUP1 PUSH4 0x115AFC3A EQ PUSH2 0x305 JUMPI DUP1 PUSH4 0x117D260F EQ PUSH2 0x325 JUMPI DUP1 PUSH4 0x212EA247 EQ PUSH2 0x345 JUMPI PUSH1 0x0 DUP1 REVERT JUMPDEST CALLDATASIZE PUSH2 0x2A7 JUMPI PUSH1 0x40 MLOAD PUSH3 0x461BCD PUSH1 0xE5 SHL DUP2 MSTORE PUSH1 0x20 PUSH1 0x4 DUP3 ADD DUP2 SWAP1 MSTORE PUSH1 0x24 DUP3 ADD MSTORE PUSH32 0x44697265637420424E42207472616E7366657273206E6F7420616C6C6F776564 PUSH1 0x44 DUP3 ADD MSTORE PUSH1 0x64 ADD JUMPDEST PUSH1 0x40 MLOAD DUP1 SWAP2 SUB SWAP1 REVERT JUMPDEST PUSH1 0x0 DUP1 REVERT JUMPDEST CALLVALUE DUP1 ISZERO PUSH2 0x2B8 JUMPI PUSH1 0x0 DUP1 REVERT JUMPDEST POP PUSH2 0x2CC PUSH2 0x2C7 CALLDATASIZE PUSH1 0x4 PUSH2 0x2C6F JUMP JUMPDEST PUSH2 0x884 JUMP JUMPDEST PUSH1 0x40 MLOAD SWAP1 DUP2 MSTORE PUSH1 0x20 ADD JUMPDEST PUSH1 0x40 MLOAD DUP1 SWAP2 SUB SWAP1 RETURN JUMPDEST CALLVALUE DUP1 ISZERO PUSH2 0x2EB JUMPI PUSH1 0x0 DUP1 REVERT JUMPDEST POP PUSH1 0x4 SLOAD PUSH1 0x7 SLOAD LT ISZERO JUMPDEST PUSH1 0x40 MLOAD SWAP1 ISZERO ISZERO DUP2 MSTORE PUSH1 0x20 ADD PUSH2 0x2D6 JUMP JUMPDEST CALLVALUE DUP1 ISZERO PUSH2 0x311 JUMPI PUSH1 0x0 DUP1 REVERT JUMPDEST POP PUSH2 0x2CC PUSH2 0x320 CALLDATASIZE PUSH1 0x4 PUSH2 0x2C99 JUMP JUMPDEST PUSH2 0xA3E JUMP JUMPDEST CALLVALUE DUP1 ISZERO PUSH2 0x331 JUMPI PUSH1 0x0 DUP1 REVERT JUMPDEST POP PUSH2 0x2CC PUSH2 0x340 CALLDATASIZE PUSH1 0x4 PUSH2 0x2C6F JUMP JUMPDEST PUSH2 0xBA7 JUMP JUMPDEST CALLVALUE DUP1 ISZERO PUSH2 0x351 JUMPI PUSH1 0x0 DUP1 REVERT JUMPDEST POP PUSH1 0x6 SLOAD PUSH2 0x2CC JUMP JUMPDEST CALLVALUE DUP1 ISZERO PUSH2 0x366 JUMPI PUSH1 0x0 DUP1 REVERT JUMPDEST POP PUSH2 0x2CC PUSH1 0x4 SLOAD DUP2 JUMP JUMPDEST CALLVALUE DUP1 ISZERO PUSH2 0x37C JUMPI PUSH1 0x0 DUP1 REVERT JUMPDEST POP PUSH2 0x385 PUSH2 0xD79 JUMP JUMPDEST STOP JUMPDEST CALLVALUE DUP1 ISZERO PUSH2 0x393 JUMPI PUSH1 0x0 DUP1 REVERT JUMPDEST POP PUSH1 0xB SLOAD PUSH2 0x3A7 SWAP1 PUSH1 0x1 PUSH1 0x1 PUSH1 0xA0 SHL SUB AND DUP2 JUMP JUMPDEST PUSH1 0x40 MLOAD PUSH1 0x1 PUSH1 0x1 PUSH1 0xA0 SHL SUB SWAP1 SWAP2 AND DUP2 MSTORE PUSH1 0x20 ADD PUSH2 0x2D6 JUMP JUMPDEST CALLVALUE DUP1 ISZERO PUSH2 0x3CB JUMPI PUSH1 0x0 DUP1 REVERT JUMPDEST POP PUSH1 0xC SLOAD PUSH2 0x3A7 SWAP1 PUSH1 0x1 PUSH1 0x1 PUSH1 0xA0 SHL SUB AND DUP2 JUMP JUMPDEST CALLVALUE DUP1 ISZERO PUSH2 0x3EB JUMPI PUSH1 0x0 DUP1 REVERT JUMPDEST POP PUSH2 0x3A7 PUSH2 0x3FA CALLDATASIZE PUSH1 0x4 PUSH2 0x2CB4 JUMP JUMPDEST PUSH2 0xEF8 JUMP JUMPDEST CALLVALUE DUP1 ISZERO PUSH2 0x40B JUMPI PUSH1 0x0 DUP1 REVERT JUMPDEST POP PUSH1 0x9 SLOAD PUSH2 0x2F5 SWAP1 PUSH2 0x100 SWAP1 DIV PUSH1 0xFF AND DUP2 JUMP JUMPDEST PUSH2 0x385 PUSH2 0x42C CALLDATASIZE PUSH1 0x4 PUSH2 0x2CF8 JUMP JUMPDEST PUSH2 0xF22 JUMP JUMPDEST CALLVALUE DUP1 ISZERO PUSH2 0x43D JUMPI PUSH1 0x0 DUP1 REVERT JUMPDEST POP PUSH2 0x2CC PUSH2 0xF41 JUMP JUMPDEST CALLVALUE DUP1 ISZERO PUSH2 0x452 JUMPI PUSH1 0x0 DUP1 REVERT JUMPDEST POP PUSH1 0x1 SLOAD PUSH2 0x3A7 SWAP1 PUSH1 0x1 PUSH1 0x1 PUSH1 0xA0 SHL SUB AND DUP2 JUMP JUMPDEST CALLVALUE DUP1 ISZERO PUSH2 0x472 JUMPI PUSH1 0x0 DUP1 REVERT JUMPDEST POP PUSH2 0x385 PUSH2 0xF5E JUMP JUMPDEST CALLVALUE DUP1 ISZERO PUSH2 0x487 JUMPI PUSH1 0x0 DUP1 REVERT JUMPDEST POP PUSH2 0x2CC PUSH1 0x8 SLOAD DUP2 JUMP JUMPDEST CALLVALUE DUP1 ISZERO PUSH2 0x49D JUMPI PUSH1 0x0 DUP1 REVERT JUMPDEST POP PUSH2 0x385 PUSH2 0x4AC CALLDATASIZE PUSH1 0x4 PUSH2 0x2DC4 JUMP JUMPDEST PUSH2 0xFC4 JUMP JUMPDEST CALLVALUE DUP1 ISZERO PUSH2 0x4BD JUMPI PUSH1 0x0 DUP1 REVERT JUMPDEST POP PUSH2 0x385 PUSH2 0x1215 JUMP JUMPDEST CALLVALUE DUP1 ISZERO PUSH2 0x4D2 JUMPI PUSH1 0x0 DUP1 REVERT JUMPDEST POP PUSH2 0x2CC PUSH1 0x7 SLOAD DUP2 JUMP JUMPDEST CALLVALUE DUP1 ISZERO PUSH2 0x4E8 JUMPI PUSH1 0x0 DUP1 REVERT JUMPDEST POP PUSH2 0x385 PUSH2 0x1227 JUMP JUMPDEST CALLVALUE DUP1 ISZERO PUSH2 0x4FD JUMPI PUSH1 0x0 DUP1 REVERT JUMPDEST POP PUSH2 0x385 PUSH2 0x1289 JUMP JUMPDEST CALLVALUE DUP1 ISZERO PUSH2 0x512 JUMPI PUSH1 0x0 DUP1 REVERT JUMPDEST POP PUSH2 0x3A7 PUSH2 0x179E JUMP JUMPDEST CALLVALUE DUP1 ISZERO PUSH2 0x527 JUMPI PUSH1 0x0 DUP1 REVERT JUMPDEST POP PUSH2 0x385 PUSH2 0x17CC JUMP JUMPDEST CALLVALUE DUP1 ISZERO PUSH2 0x53C JUMPI PUSH1 0x0 DUP1 REVERT JUMPDEST POP PUSH1 0x5 SLOAD PUSH1 0x7 SLOAD EQ PUSH2 0x2F5 JUMP JUMPDEST PUSH2 0x385 PUSH2 0x557 CALLDATASIZE PUSH1 0x4 PUSH2 0x2C6F JUMP JUMPDEST PUSH2 0x1BB0 JUMP JUMPDEST CALLVALUE DUP1 ISZERO PUSH2 0x568 JUMPI PUSH1 0x0 DUP1 REVERT JUMPDEST POP PUSH1 0xA SLOAD PUSH2 0x2CC JUMP JUMPDEST CALLVALUE DUP1 ISZERO PUSH2 0x57D JUMPI PUSH1 0x0 DUP1 REVERT JUMPDEST POP PUSH1 0x0 SLOAD PUSH2 0x3A7 SWAP1 PUSH1 0x1 PUSH1 0x1 PUSH1 0xA0 SHL SUB AND DUP2 JUMP JUMPDEST CALLVALUE DUP1 ISZERO PUSH2 0x59D JUMPI PUSH1 0x0 DUP1 REVERT JUMPDEST POP PUSH2 0x2CC PUSH1 0x6 SLOAD DUP2 JUMP JUMPDEST CALLVALUE DUP1 ISZERO PUSH2 0x5B3 JUMPI PUSH1 0x0 DUP1 REVERT JUMPDEST POP PUSH2 0x5D8 PUSH1 0x40 MLOAD DUP1 PUSH1 0x40 ADD PUSH1 0x40 MSTORE DUP1 PUSH1 0x5 DUP2 MSTORE PUSH1 0x20 ADD PUSH5 0x352E302E3 PUSH1 0xDC SHL DUP2 MSTORE POP DUP2 JUMP JUMPDEST PUSH1 0x40 MLOAD PUSH2 0x2D6 SWAP2 SWAP1 PUSH2 0x2E14 JUMP JUMPDEST CALLVALUE DUP1 ISZERO PUSH2 0x5F1 JUMPI PUSH1 0x0 DUP1 REVERT JUMPDEST POP PUSH2 0x632 PUSH2 0x600 CALLDATASIZE PUSH1 0x4 PUSH2 0x2CB4 JUMP JUMPDEST PUSH1 0xD PUSH1 0x20 MSTORE PUSH1 0x0 SWAP1 DUP2 MSTORE PUSH1 0x40 SWAP1 KECCAK256 DUP1 SLOAD PUSH1 0x1 DUP3 ADD SLOAD PUSH1 0x2 DUP4 ADD SLOAD PUSH1 0x3 DUP5 ADD SLOAD PUSH1 0x4 SWAP1 SWAP5 ADD SLOAD SWAP3 SWAP4 SWAP2 SWAP3 SWAP1 SWAP2 SWAP1 PUSH1 0xFF AND DUP6 JUMP JUMPDEST PUSH1 0x40 DUP1 MLOAD SWAP6 DUP7 MSTORE PUSH1 0x20 DUP7 ADD SWAP5 SWAP1 SWAP5 MSTORE SWAP3 DUP5 ADD SWAP2 SWAP1 SWAP2 MSTORE PUSH1 0x60 DUP4 ADD MSTORE ISZERO ISZERO PUSH1 0x80 DUP3 ADD MSTORE PUSH1 0xA0 ADD PUSH2 0x2D6 JUMP JUMPDEST CALLVALUE DUP1 ISZERO PUSH2 0x668 JUMPI PUSH1 0x0 DUP1 REVERT JUMPDEST POP PUSH1 0x9 SLOAD PUSH2 0x2F5 SWAP1 PUSH3 0x10000 SWAP1 DIV PUSH1 0xFF AND DUP2 JUMP JUMPDEST CALLVALUE DUP1 ISZERO PUSH2 0x688 JUMPI PUSH1 0x0 DUP1 REVERT JUMPDEST POP PUSH2 0x2CC PUSH1 0x5 SLOAD DUP2 JUMP JUMPDEST CALLVALUE DUP1 ISZERO PUSH2 0x69E JUMPI PUSH1 0x0 DUP1 REVERT JUMPDEST POP PUSH2 0x706 PUSH2 0x6AD CALLDATASIZE PUSH1 0x4 PUSH2 0x2CB4 JUMP JUMPDEST POP PUSH1 0x6 SLOAD PUSH1 0x0 SWAP1 DUP2 MSTORE PUSH1 0xD PUSH1 0x20 SWAP1 DUP2 MSTORE PUSH1 0x40 SWAP2 DUP3 SWAP1 KECCAK256 DUP3 MLOAD PUSH1 0xA0 DUP2 ADD DUP5 MSTORE DUP2 SLOAD DUP1 DUP3 MSTORE PUSH1 0x1 DUP4 ADD SLOAD SWAP4 DUP3 ADD DUP5 SWAP1 MSTORE PUSH1 0x2 DUP4 ADD SLOAD SWAP5 DUP3 ADD SWAP5 SWAP1 SWAP5 MSTORE PUSH1 0x3 DUP3 ADD SLOAD PUSH1 0x60 DUP3 ADD MSTORE PUSH1 0x4 SWAP1 SWAP2 ADD SLOAD PUSH1 0xFF AND ISZERO ISZERO PUSH1 0x80 SWAP1 SWAP2 ADD MSTORE SWAP1 SWAP2 JUMP JUMPDEST PUSH1 0x40 DUP1 MLOAD SWAP3 DUP4 MSTORE PUSH1 0x20 DUP4 ADD SWAP2 SWAP1 SWAP2 MSTORE ADD PUSH2 0x2D6 JUMP JUMPDEST CALLVALUE DUP1 ISZERO PUSH2 0x727 JUMPI PUSH1 0x0 DUP1 REVERT JUMPDEST POP PUSH2 0x2CC PUSH2 0x736 CALLDATASIZE PUSH1 0x4 PUSH2 0x2E47 JUMP JUMPDEST PUSH1 0xE PUSH1 0x20 MSTORE PUSH1 0x0 SWAP1 DUP2 MSTORE PUSH1 0x40 SWAP1 KECCAK256 SLOAD DUP2 JUMP JUMPDEST CALLVALUE DUP1 ISZERO PUSH2 0x754 JUMPI PUSH1 0x0 DUP1 REVERT JUMPDEST POP PUSH1 0x9 SLOAD PUSH2 0x2F5 SWAP1 PUSH1 0xFF AND DUP2 JUMP JUMPDEST CALLVALUE DUP1 ISZERO PUSH2 0x76E JUMPI PUSH1 0x0 DUP1 REVERT JUMPDEST POP PUSH1 0x2 SLOAD PUSH2 0x3A7 SWAP1 PUSH1 0x1 PUSH1 0x1 PUSH1 0xA0 SHL SUB AND DUP2 JUMP JUMPDEST CALLVALUE DUP1 ISZERO PUSH2 0x78E JUMPI PUSH1 0x0 DUP1 REVERT JUMPDEST POP PUSH2 0x7B2 PUSH2 0x79D CALLDATASIZE PUSH1 0x4 PUSH2 0x2E47 JUMP JUMPDEST PUSH1 0x10 PUSH1 0x20 MSTORE PUSH1 0x0 SWAP1 DUP2 MSTORE PUSH1 0x40 SWAP1 KECCAK256 SLOAD PUSH1 0xFF AND DUP2 JUMP JUMPDEST PUSH1 0x40 MLOAD PUSH2 0x2D6 SWAP2 SWAP1 PUSH2 0x2E9C JUMP JUMPDEST CALLVALUE DUP1 ISZERO PUSH2 0x7CB JUMPI PUSH1 0x0 DUP1 REVERT JUMPDEST POP PUSH2 0x2CC PUSH2 0x7DA CALLDATASIZE PUSH1 0x4 PUSH2 0x2E47 JUMP JUMPDEST PUSH1 0xF PUSH1 0x20 MSTORE PUSH1 0x0 SWAP1 DUP2 MSTORE PUSH1 0x40 SWAP1 KECCAK256 SLOAD DUP2 JUMP JUMPDEST CALLVALUE DUP1 ISZERO PUSH2 0x7F8 JUMPI PUSH1 0x0 DUP1 REVERT JUMPDEST POP PUSH2 0x2CC PUSH2 0x807 CALLDATASIZE PUSH1 0x4 PUSH2 0x2EAA JUMP JUMPDEST PUSH1 0x11 PUSH1 0x20 SWAP1 DUP2 MSTORE PUSH1 0x0 SWAP3 DUP4 MSTORE PUSH1 0x40 DUP1 DUP5 KECCAK256 SWAP1 SWAP2 MSTORE SWAP1 DUP3 MSTORE SWAP1 KECCAK256 SLOAD DUP2 JUMP JUMPDEST CALLVALUE DUP1 ISZERO PUSH2 0x830 JUMPI PUSH1 0x0 DUP1 REVERT JUMPDEST POP PUSH2 0x385 PUSH2 0x83F CALLDATASIZE PUSH1 0x4 PUSH2 0x2E47 JUMP JUMPDEST PUSH2 0x220E JUMP JUMPDEST CALLVALUE DUP1 ISZERO PUSH2 0x850 JUMPI PUSH1 0x0 DUP1 REVERT JUMPDEST POP PUSH1 0x3 SLOAD PUSH2 0x3A7 SWAP1 PUSH1 0x1 PUSH1 0x1 PUSH1 0xA0 SHL SUB AND DUP2 JUMP JUMPDEST CALLVALUE DUP1 ISZERO PUSH2 0x870 JUMPI PUSH1 0x0 DUP1 REVERT JUMPDEST POP PUSH2 0x385 PUSH2 0x87F CALLDATASIZE PUSH1 0x4 PUSH2 0x2EDF JUMP JUMPDEST PUSH2 0x224C JUMP JUMPDEST PUSH1 0x0 DUP1 PUSH5 0x2540BE400 PUSH2 0x896 DUP6 PUSH2 0xA3E JUMP JUMPDEST PUSH2 0x8A0 SWAP2 SWAP1 PUSH2 0x2F8C JUMP JUMPDEST SWAP1 POP PUSH1 0x0 DUP2 SGT PUSH2 0x8E7 JUMPI PUSH1 0x40 MLOAD PUSH3 0x461BCD PUSH1 0xE5 SHL DUP2 MSTORE PUSH1 0x20 PUSH1 0x4 DUP3 ADD MSTORE PUSH1 0x12 PUSH1 0x24 DUP3 ADD MSTORE PUSH18 0x125B9D985B1A59081C1C9A58D94819995959 PUSH1 0x72 SHL PUSH1 0x44 DUP3 ADD MSTORE PUSH1 0x64 ADD PUSH2 0x29E JUMP JUMPDEST PUSH1 0x0 PUSH2 0x8F2 PUSH1 0x6 SLOAD SWAP1 JUMP JUMPDEST PUSH1 0x0 DUP2 DUP2 MSTORE PUSH1 0xD PUSH1 0x20 MSTORE PUSH1 0x40 DUP2 KECCAK256 PUSH1 0x2 DUP2 ADD SLOAD SWAP3 SWAP4 POP SWAP2 SWAP1 DUP1 DUP9 PUSH1 0x2 DUP2 GT ISZERO PUSH2 0x91D JUMPI PUSH2 0x91D PUSH2 0x2E64 JUMP JUMPDEST SUB PUSH2 0x946 JUMPI PUSH8 0xDE0B6B3A7640000 PUSH2 0x935 DUP9 DUP8 PUSH2 0x2FBC JUMP JUMPDEST PUSH2 0x93F SWAP2 SWAP1 PUSH2 0x2FD3 JUMP JUMPDEST SWAP1 POP PUSH2 0xA10 JUMP JUMPDEST PUSH1 0x2 DUP9 PUSH1 0x2 DUP2 GT ISZERO PUSH2 0x95A JUMPI PUSH2 0x95A PUSH2 0x2E64 JUMP JUMPDEST EQ DUP1 PUSH2 0x977 JUMPI POP PUSH1 0x1 DUP9 PUSH1 0x2 DUP2 GT ISZERO PUSH2 0x975 JUMPI PUSH2 0x975 PUSH2 0x2E64 JUMP JUMPDEST EQ JUMPDEST ISZERO PUSH2 0x9C8 JUMPI PUSH1 0x6 PUSH1 0x0 PUSH2 0x98B DUP3 PUSH1 0x12 PUSH2 0x2FF5 JUMP JUMPDEST PUSH2 0x996 SWAP1 PUSH1 0xA PUSH2 0x30EF JUMP JUMPDEST PUSH2 0x9A0 SWAP1 DUP11 PUSH2 0x2FBC JUMP JUMPDEST SWAP1 POP PUSH8 0xDE0B6B3A7640000 PUSH2 0x9B5 DUP3 DUP10 PUSH2 0x2FBC JUMP JUMPDEST PUSH2 0x9BF SWAP2 SWAP1 PUSH2 0x2FD3 JUMP JUMPDEST SWAP3 POP POP POP PUSH2 0xA10 JUMP JUMPDEST PUSH1 0x40 MLOAD PUSH3 0x461BCD PUSH1 0xE5 SHL DUP2 MSTORE PUSH1 0x20 PUSH1 0x4 DUP3 ADD MSTORE PUSH1 0x1A PUSH1 0x24 DUP3 ADD MSTORE PUSH32 0x556E737570706F72746564207061796D656E74206D6574686F64000000000000 PUSH1 0x44 DUP3 ADD MSTORE PUSH1 0x64 ADD PUSH2 0x29E JUMP JUMPDEST PUSH1 0x0 DUP3 PUSH2 0xA25 PUSH8 0xDE0B6B3A7640000 DUP5 PUSH2 0x2FBC JUMP JUMPDEST PUSH2 0xA2F SWAP2 SWAP1 PUSH2 0x2FD3 JUMP JUMPDEST SWAP7 POP POP POP POP POP POP POP JUMPDEST SWAP3 SWAP2 POP POP JUMP JUMPDEST PUSH1 0x0 DUP1 DUP3 PUSH1 0x2 DUP2 GT ISZERO PUSH2 0xA53 JUMPI PUSH2 0xA53 PUSH2 0x2E64 JUMP JUMPDEST SUB PUSH2 0xADC JUMPI PUSH1 0x0 DUP1 PUSH1 0x0 SWAP1 SLOAD SWAP1 PUSH2 0x100 EXP SWAP1 DIV PUSH1 0x1 PUSH1 0x1 PUSH1 0xA0 SHL SUB AND PUSH1 0x1 PUSH1 0x1 PUSH1 0xA0 SHL SUB AND PUSH4 0xFEAF968C PUSH1 0x40 MLOAD DUP2 PUSH4 0xFFFFFFFF AND PUSH1 0xE0 SHL DUP2 MSTORE PUSH1 0x4 ADD PUSH1 0xA0 PUSH1 0x40 MLOAD DUP1 DUP4 SUB DUP2 DUP7 GAS STATICCALL ISZERO DUP1 ISZERO PUSH2 0xAAC JUMPI RETURNDATASIZE PUSH1 0x0 DUP1 RETURNDATACOPY RETURNDATASIZE PUSH1 0x0 REVERT JUMPDEST POP POP POP POP PUSH1 0x40 MLOAD RETURNDATASIZE PUSH1 0x1F NOT PUSH1 0x1F DUP3 ADD AND DUP3 ADD DUP1 PUSH1 0x40 MSTORE POP DUP2 ADD SWAP1 PUSH2 0xAD0 SWAP2 SWAP1 PUSH2 0x3115 JUMP JUMPDEST POP SWAP2 SWAP7 SWAP6 POP POP POP POP POP POP JUMP JUMPDEST PUSH1 0x1 DUP3 PUSH1 0x2 DUP2 GT ISZERO PUSH2 0xAF0 JUMPI PUSH2 0xAF0 PUSH2 0x2E64 JUMP JUMPDEST SUB PUSH2 0xB3F JUMPI PUSH1 0x1 SLOAD PUSH1 0x40 DUP1 MLOAD PUSH4 0x3FABE5A3 PUSH1 0xE2 SHL DUP2 MSTORE SWAP1 MLOAD PUSH1 0x0 SWAP3 PUSH1 0x1 PUSH1 0x1 PUSH1 0xA0 SHL SUB AND SWAP2 PUSH4 0xFEAF968C SWAP2 PUSH1 0x4 DUP1 DUP4 ADD SWAP3 PUSH1 0xA0 SWAP3 SWAP2 SWAP1 DUP3 SWAP1 SUB ADD DUP2 DUP7 GAS STATICCALL ISZERO DUP1 ISZERO PUSH2 0xAAC JUMPI RETURNDATASIZE PUSH1 0x0 DUP1 RETURNDATACOPY RETURNDATASIZE PUSH1 0x0 REVERT JUMPDEST PUSH1 0x2 DUP3 PUSH1 0x2 DUP2 GT ISZERO PUSH2 0xB53 JUMPI PUSH2 0xB53 PUSH2 0x2E64 JUMP JUMPDEST SUB PUSH2 0x9C8 JUMPI PUSH1 0x2 SLOAD PUSH1 0x40 DUP1 MLOAD PUSH4 0x3FABE5A3 PUSH1 0xE2 SHL DUP2 MSTORE SWAP1 MLOAD PUSH1 0x0 SWAP3 PUSH1 0x1 PUSH1 0x1 PUSH1 0xA0 SHL SUB AND SWAP2 PUSH4 0xFEAF968C SWAP2 PUSH1 0x4 DUP1 DUP4 ADD SWAP3 PUSH1 0xA0 SWAP3 SWAP2 SWAP1 DUP3 SWAP1 SUB ADD DUP2 DUP7 GAS STATICCALL ISZERO DUP1 ISZERO PUSH2 0xAAC JUMPI RETURNDATASIZE PUSH1 0x0 DUP1 RETURNDATACOPY RETURNDATASIZE PUSH1 0x0 REVERT JUMPDEST SWAP2 SWAP1 POP JUMP JUMPDEST PUSH1 0x0 DUP1 DUP3 GT PUSH2 0xC07 JUMPI PUSH1 0x40 MLOAD PUSH3 0x461BCD PUSH1 0xE5 SHL DUP2 MSTORE PUSH1 0x20 PUSH1 0x4 DUP3 ADD MSTORE PUSH1 0x26 PUSH1 0x24 DUP3 ADD MSTORE PUSH32 0x546F6B656E20616D6F756E74206D757374206265206772656174657220746861 PUSH1 0x44 DUP3 ADD MSTORE PUSH6 0x6E207A65726F PUSH1 0xD0 SHL PUSH1 0x64 DUP3 ADD MSTORE PUSH1 0x84 ADD PUSH2 0x29E JUMP JUMPDEST PUSH1 0x0 PUSH5 0x2540BE400 PUSH2 0xC18 DUP6 PUSH2 0xA3E JUMP JUMPDEST PUSH2 0xC22 SWAP2 SWAP1 PUSH2 0x2F8C JUMP JUMPDEST SWAP1 POP PUSH1 0x0 DUP2 SGT PUSH2 0xC69 JUMPI PUSH1 0x40 MLOAD PUSH3 0x461BCD PUSH1 0xE5 SHL DUP2 MSTORE PUSH1 0x20 PUSH1 0x4 DUP3 ADD MSTORE PUSH1 0x12 PUSH1 0x24 DUP3 ADD MSTORE PUSH18 0x125B9D985B1A59081C1C9A58D94819995959 PUSH1 0x72 SHL PUSH1 0x44 DUP3 ADD MSTORE PUSH1 0x64 ADD PUSH2 0x29E JUMP JUMPDEST PUSH1 0x0 PUSH2 0xC74 PUSH1 0x6 SLOAD SWAP1 JUMP JUMPDEST SWAP1 POP DUP1 PUSH1 0x0 SUB PUSH2 0xCB7 JUMPI PUSH1 0x40 MLOAD PUSH3 0x461BCD PUSH1 0xE5 SHL DUP2 MSTORE PUSH1 0x20 PUSH1 0x4 DUP3 ADD MSTORE PUSH1 0xE PUSH1 0x24 DUP3 ADD MSTORE PUSH14 0x4E6F206163746976652073616C65 PUSH1 0x90 SHL PUSH1 0x44 DUP3 ADD MSTORE PUSH1 0x64 ADD PUSH2 0x29E JUMP JUMPDEST PUSH1 0x0 DUP2 DUP2 MSTORE PUSH1 0xD PUSH1 0x20 MSTORE PUSH1 0x40 DUP2 KECCAK256 PUSH1 0x2 DUP2 ADD SLOAD SWAP1 SWAP2 PUSH8 0xDE0B6B3A7640000 PUSH2 0xCDF DUP4 DUP10 PUSH2 0x2FBC JUMP JUMPDEST PUSH2 0xCE9 SWAP2 SWAP1 PUSH2 0x2FD3 JUMP JUMPDEST SWAP1 POP PUSH1 0x0 DUP1 DUP10 PUSH1 0x2 DUP2 GT ISZERO PUSH2 0xD00 JUMPI PUSH2 0xD00 PUSH2 0x2E64 JUMP JUMPDEST SUB PUSH2 0xD29 JUMPI DUP6 PUSH2 0xD18 PUSH8 0xDE0B6B3A7640000 DUP5 PUSH2 0x2FBC JUMP JUMPDEST PUSH2 0xD22 SWAP2 SWAP1 PUSH2 0x2FD3 JUMP JUMPDEST SWAP1 POP PUSH2 0xD6D JUMP JUMPDEST PUSH1 0x1 DUP10 PUSH1 0x2 DUP2 GT ISZERO PUSH2 0xD3D JUMPI PUSH2 0xD3D PUSH2 0x2E64 JUMP JUMPDEST EQ DUP1 PUSH2 0xD5A JUMPI POP PUSH1 0x2 DUP10 PUSH1 0x2 DUP2 GT ISZERO PUSH2 0xD58 JUMPI PUSH2 0xD58 PUSH2 0x2E64 JUMP JUMPDEST EQ JUMPDEST ISZERO PUSH2 0x9C8 JUMPI DUP6 PUSH2 0xD18 DUP4 PUSH3 0xF4240 PUSH2 0x2FBC JUMP JUMPDEST SWAP9 SWAP8 POP POP POP POP POP POP POP POP JUMP JUMPDEST PUSH2 0xD81 PUSH2 0x2462 JUMP JUMPDEST PUSH2 0xD89 PUSH2 0x249A JUMP JUMPDEST PUSH1 0x9 SLOAD PUSH1 0xFF AND ISZERO PUSH2 0xDAC JUMPI PUSH1 0x40 MLOAD PUSH3 0x461BCD PUSH1 0xE5 SHL DUP2 MSTORE PUSH1 0x4 ADD PUSH2 0x29E SWAP1 PUSH2 0x3167 JUMP JUMPDEST PUSH1 0x9 SLOAD PUSH3 0x10000 SWAP1 DIV PUSH1 0xFF AND ISZERO PUSH2 0xDD5 JUMPI PUSH1 0x40 MLOAD PUSH3 0x461BCD PUSH1 0xE5 SHL DUP2 MSTORE PUSH1 0x4 ADD PUSH2 0x29E SWAP1 PUSH2 0x3196 JUMP JUMPDEST PUSH1 0x4 SLOAD PUSH1 0x7 SLOAD LT ISZERO PUSH2 0xE4F JUMPI PUSH1 0x40 MLOAD PUSH3 0x461BCD PUSH1 0xE5 SHL DUP2 MSTORE PUSH1 0x20 PUSH1 0x4 DUP3 ADD MSTORE PUSH1 0x38 PUSH1 0x24 DUP3 ADD MSTORE PUSH32 0x43616E6E6F742066696E616C697A653A20536F667420636170206E6F74207265 PUSH1 0x44 DUP3 ADD MSTORE PUSH32 0x6163686564206F722073616C65206973206F6E676F696E670000000000000000 PUSH1 0x64 DUP3 ADD MSTORE PUSH1 0x84 ADD PUSH2 0x29E JUMP JUMPDEST PUSH1 0x9 SLOAD PUSH2 0x100 SWAP1 DIV PUSH1 0xFF AND PUSH2 0xE9E JUMPI PUSH1 0x40 MLOAD PUSH3 0x461BCD PUSH1 0xE5 SHL DUP2 MSTORE PUSH1 0x20 PUSH1 0x4 DUP3 ADD MSTORE PUSH1 0x15 PUSH1 0x24 DUP3 ADD MSTORE PUSH21 0x105A5C991C9BDC081B9BDD0818DBDB5C1B195D1959 PUSH1 0x5A SHL PUSH1 0x44 DUP3 ADD MSTORE PUSH1 0x64 ADD PUSH2 0x29E JUMP JUMPDEST PUSH1 0x9 DUP1 SLOAD PUSH1 0xFF NOT AND PUSH1 0x1 OR SWAP1 SSTORE PUSH2 0xEB3 PUSH2 0x24CC JUMP JUMPDEST PUSH1 0x8 SLOAD PUSH1 0x40 MLOAD PUSH32 0x9C4B134DA32AAB35252391880A9F2A3C13A760D7817AE8823F2B301D3522045A SWAP1 PUSH1 0x0 SWAP1 LOG2 PUSH2 0xEF6 PUSH1 0x1 PUSH1 0x0 DUP1 MLOAD PUSH1 0x20 PUSH2 0x32D4 DUP4 CODECOPY DUP2 MLOAD SWAP2 MSTORE SSTORE JUMP JUMPDEST JUMP JUMPDEST PUSH1 0xA DUP2 DUP2 SLOAD DUP2 LT PUSH2 0xF08 JUMPI PUSH1 0x0 DUP1 REVERT JUMPDEST PUSH1 0x0 SWAP2 DUP3 MSTORE PUSH1 0x20 SWAP1 SWAP2 KECCAK256 ADD SLOAD PUSH1 0x1 PUSH1 0x1 PUSH1 0xA0 SHL SUB AND SWAP1 POP DUP2 JUMP JUMPDEST PUSH2 0xF2A PUSH2 0x27FA JUMP JUMPDEST PUSH2 0xF33 DUP3 PUSH2 0x289F JUMP JUMPDEST PUSH2 0xF3D DUP3 DUP3 PUSH2 0x28A7 JUMP JUMPDEST POP POP JUMP JUMPDEST PUSH1 0x0 PUSH2 0xF4B PUSH2 0x2964 JUMP JUMPDEST POP PUSH1 0x0 DUP1 MLOAD PUSH1 0x20 PUSH2 0x32B4 DUP4 CODECOPY DUP2 MLOAD SWAP2 MSTORE SWAP1 JUMP JUMPDEST PUSH2 0xF66 PUSH2 0x249A JUMP JUMPDEST PUSH1 0x9 SLOAD PUSH3 0x10000 SWAP1 DIV PUSH1 0xFF AND ISZERO PUSH2 0xFB1 JUMPI PUSH1 0x40 MLOAD PUSH3 0x461BCD PUSH1 0xE5 SHL DUP2 MSTORE PUSH1 0x20 PUSH1 0x4 DUP3 ADD MSTORE PUSH1 0xF PUSH1 0x24 DUP3 ADD MSTORE PUSH15 0x105B1C9958591E48119C99595E9959 PUSH1 0x8A SHL PUSH1 0x44 DUP3 ADD MSTORE PUSH1 0x64 ADD PUSH2 0x29E JUMP JUMPDEST PUSH1 0x9 DUP1 SLOAD PUSH3 0xFF0000 NOT AND PUSH3 0x10000 OR SWAP1 SSTORE JUMP JUMPDEST PUSH2 0xFCC PUSH2 0x249A JUMP JUMPDEST PUSH1 0x9 SLOAD PUSH1 0xFF AND ISZERO PUSH2 0xFEF JUMPI PUSH1 0x40 MLOAD PUSH3 0x461BCD PUSH1 0xE5 SHL DUP2 MSTORE PUSH1 0x4 ADD PUSH2 0x29E SWAP1 PUSH2 0x3167 JUMP JUMPDEST PUSH1 0x9 SLOAD PUSH3 0x10000 SWAP1 DIV PUSH1 0xFF AND ISZERO PUSH2 0x1018 JUMPI PUSH1 0x40 MLOAD PUSH3 0x461BCD PUSH1 0xE5 SHL DUP2 MSTORE PUSH1 0x4 ADD PUSH2 0x29E SWAP1 PUSH2 0x3196 JUMP JUMPDEST TIMESTAMP DUP4 GT PUSH2 0x107C JUMPI PUSH1 0x40 MLOAD PUSH3 0x461BCD PUSH1 0xE5 SHL DUP2 MSTORE PUSH1 0x20 PUSH1 0x4 DUP3 ADD MSTORE PUSH1 0x2C PUSH1 0x24 DUP3 ADD MSTORE PUSH32 0x53746172742074696D65206D7573742062652067726561746572207468616E20 PUSH1 0x44 DUP3 ADD MSTORE PUSH12 0x63757272656E742074696D65 PUSH1 0xA0 SHL PUSH1 0x64 DUP3 ADD MSTORE PUSH1 0x84 ADD PUSH2 0x29E JUMP JUMPDEST DUP3 DUP3 GT PUSH2 0x10DC JUMPI PUSH1 0x40 MLOAD PUSH3 0x461BCD PUSH1 0xE5 SHL DUP2 MSTORE PUSH1 0x20 PUSH1 0x4 DUP3 ADD MSTORE PUSH1 0x28 PUSH1 0x24 DUP3 ADD MSTORE PUSH32 0x456E642074696D65206D7573742062652067726561746572207468616E207374 PUSH1 0x44 DUP3 ADD MSTORE PUSH8 0x6172742074696D65 PUSH1 0xC0 SHL PUSH1 0x64 DUP3 ADD MSTORE PUSH1 0x84 ADD PUSH2 0x29E JUMP JUMPDEST PUSH1 0x6 SLOAD PUSH1 0x0 SWAP1 DUP2 MSTORE PUSH1 0xD PUSH1 0x20 MSTORE PUSH1 0x40 SWAP1 KECCAK256 PUSH1 0x1 ADD SLOAD TIMESTAMP GT PUSH2 0x1154 JUMPI PUSH1 0x40 MLOAD PUSH3 0x461BCD PUSH1 0xE5 SHL DUP2 MSTORE PUSH1 0x20 PUSH1 0x4 DUP3 ADD MSTORE PUSH1 0x2C PUSH1 0x24 DUP3 ADD MSTORE PUSH32 0x4E65772073616C65206D75737420737461727420616674657220746865206C61 PUSH1 0x44 DUP3 ADD MSTORE PUSH12 0x73742073616C6520656E6473 PUSH1 0xA0 SHL PUSH1 0x64 DUP3 ADD MSTORE PUSH1 0x84 ADD PUSH2 0x29E JUMP JUMPDEST PUSH1 0x6 DUP1 SLOAD SWAP1 PUSH1 0x0 PUSH2 0x1164 DUP4 PUSH2 0x31B7 JUMP JUMPDEST SWAP1 SWAP2 SSTORE POP POP PUSH1 0x40 DUP1 MLOAD PUSH1 0xA0 DUP2 ADD DUP3 MSTORE DUP5 DUP2 MSTORE PUSH1 0x20 DUP1 DUP3 ADD DUP6 DUP2 MSTORE DUP3 DUP5 ADD DUP6 DUP2 MSTORE PUSH1 0x0 PUSH1 0x60 DUP1 DUP7 ADD DUP3 DUP2 MSTORE PUSH1 0x80 DUP8 ADD DUP4 DUP2 MSTORE PUSH1 0x6 DUP1 SLOAD DUP6 MSTORE PUSH1 0xD DUP9 MSTORE SWAP4 DUP10 SWAP1 KECCAK256 SWAP8 MLOAD DUP9 SSTORE SWAP5 MLOAD PUSH1 0x1 DUP9 ADD SSTORE SWAP3 MLOAD PUSH1 0x2 DUP8 ADD SSTORE SWAP2 MLOAD PUSH1 0x3 DUP7 ADD SSTORE SWAP2 MLOAD PUSH1 0x4 SWAP1 SWAP5 ADD DUP1 SLOAD PUSH1 0xFF NOT AND SWAP5 ISZERO ISZERO SWAP5 SWAP1 SWAP5 OR SWAP1 SWAP4 SSTORE SLOAD DUP4 MLOAD DUP8 DUP2 MSTORE SWAP2 DUP3 ADD DUP7 SWAP1 MSTORE SWAP3 DUP2 ADD DUP5 SWAP1 MSTORE PUSH32 0x63B43FA153147ADE1DE28ED76841CDBC34E510ED94DD1FF5A88E278B0B1AD9BA SWAP2 ADD PUSH1 0x40 MLOAD DUP1 SWAP2 SUB SWAP1 LOG2 POP POP POP JUMP JUMPDEST PUSH2 0x121D PUSH2 0x249A JUMP JUMPDEST PUSH2 0xEF6 PUSH1 0x0 PUSH2 0x29AD JUMP JUMPDEST PUSH2 0x122F PUSH2 0x249A JUMP JUMPDEST PUSH1 0x9 SLOAD PUSH3 0x10000 SWAP1 DIV PUSH1 0xFF AND PUSH2 0x127B JUMPI PUSH1 0x40 MLOAD PUSH3 0x461BCD PUSH1 0xE5 SHL DUP2 MSTORE PUSH1 0x20 PUSH1 0x4 DUP3 ADD MSTORE PUSH1 0x11 PUSH1 0x24 DUP3 ADD MSTORE PUSH17 0x105B1C9958591E48155B919C99595E9959 PUSH1 0x7A SHL PUSH1 0x44 DUP3 ADD MSTORE PUSH1 0x64 ADD PUSH2 0x29E JUMP JUMPDEST PUSH1 0x9 DUP1 SLOAD PUSH3 0xFF0000 NOT AND SWAP1 SSTORE JUMP JUMPDEST PUSH2 0x1291 PUSH2 0x2462 JUMP JUMPDEST PUSH2 0x1299 PUSH2 0x249A JUMP JUMPDEST PUSH1 0x9 SLOAD PUSH1 0xFF AND ISZERO PUSH2 0x12BC JUMPI PUSH1 0x40 MLOAD PUSH3 0x461BCD PUSH1 0xE5 SHL DUP2 MSTORE PUSH1 0x4 ADD PUSH2 0x29E SWAP1 PUSH2 0x3167 JUMP JUMPDEST PUSH1 0x6 SLOAD PUSH1 0x0 SWAP1 DUP2 MSTORE PUSH1 0xD PUSH1 0x20 MSTORE PUSH1 0x40 SWAP1 KECCAK256 PUSH1 0x1 ADD SLOAD TIMESTAMP GT PUSH2 0x130E JUMPI PUSH1 0x40 MLOAD PUSH3 0x461BCD PUSH1 0xE5 SHL DUP2 MSTORE PUSH1 0x20 PUSH1 0x4 DUP3 ADD MSTORE PUSH1 0xC PUSH1 0x24 DUP3 ADD MSTORE PUSH12 0x53616C65206F6E676F696E67 PUSH1 0xA0 SHL PUSH1 0x44 DUP3 ADD MSTORE PUSH1 0x64 ADD PUSH2 0x29E JUMP JUMPDEST PUSH1 0x4 SLOAD PUSH1 0x7 SLOAD LT PUSH2 0x1354 JUMPI PUSH1 0x40 MLOAD PUSH3 0x461BCD PUSH1 0xE5 SHL DUP2 MSTORE PUSH1 0x20 PUSH1 0x4 DUP3 ADD MSTORE PUSH1 0x10 PUSH1 0x24 DUP3 ADD MSTORE PUSH16 0x14DBD99D0818D85C081C995858DA1959 PUSH1 0x82 SHL PUSH1 0x44 DUP3 ADD MSTORE PUSH1 0x64 ADD PUSH2 0x29E JUMP JUMPDEST PUSH1 0xA DUP1 SLOAD SWAP1 PUSH1 0x0 SWAP1 DUP3 GT ISZERO PUSH2 0x1375 JUMPI PUSH2 0x136E PUSH1 0xB DUP4 PUSH2 0x2FF5 JUMP JUMPDEST SWAP1 POP PUSH2 0x1379 JUMP JUMPDEST POP PUSH1 0x0 JUMPDEST PUSH1 0x0 PUSH2 0x1386 PUSH1 0x1 DUP5 PUSH2 0x2FF5 JUMP JUMPDEST SWAP1 POP JUMPDEST DUP2 DUP2 LT PUSH2 0x176C JUMPI PUSH1 0x0 PUSH1 0xA DUP3 DUP2 SLOAD DUP2 LT PUSH2 0x13A5 JUMPI PUSH2 0x13A5 PUSH2 0x31D0 JUMP JUMPDEST PUSH1 0x0 SWAP2 DUP3 MSTORE PUSH1 0x20 DUP3 KECCAK256 ADD SLOAD PUSH1 0x1 PUSH1 0x1 PUSH1 0xA0 SHL SUB AND SWAP2 POP JUMPDEST PUSH1 0x3 DUP2 PUSH1 0xFF AND LT ISZERO PUSH2 0x1715 JUMPI PUSH1 0x0 DUP2 PUSH1 0xFF AND PUSH1 0x2 DUP2 GT ISZERO PUSH2 0x13DF JUMPI PUSH2 0x13DF PUSH2 0x2E64 JUMP JUMPDEST PUSH1 0x1 PUSH1 0x1 PUSH1 0xA0 SHL SUB DUP5 AND PUSH1 0x0 SWAP1 DUP2 MSTORE PUSH1 0x11 PUSH1 0x20 MSTORE PUSH1 0x40 DUP2 KECCAK256 SWAP2 SWAP3 POP SWAP1 DUP2 DUP4 PUSH1 0x2 DUP2 GT ISZERO PUSH2 0x140E JUMPI PUSH2 0x140E PUSH2 0x2E64 JUMP JUMPDEST PUSH1 0x2 DUP2 GT ISZERO PUSH2 0x141F JUMPI PUSH2 0x141F PUSH2 0x2E64 JUMP JUMPDEST DUP2 MSTORE PUSH1 0x20 ADD SWAP1 DUP2 MSTORE PUSH1 0x20 ADD PUSH1 0x0 KECCAK256 SLOAD SWAP1 POP PUSH1 0x0 DUP2 GT ISZERO PUSH2 0x170B JUMPI PUSH1 0x1 PUSH1 0x1 PUSH1 0xA0 SHL SUB DUP5 AND PUSH1 0x0 SWAP1 DUP2 MSTORE PUSH1 0x11 PUSH1 0x20 MSTORE PUSH1 0x40 DUP2 KECCAK256 DUP2 DUP5 PUSH1 0x2 DUP2 GT ISZERO PUSH2 0x1464 JUMPI PUSH2 0x1464 PUSH2 0x2E64 JUMP JUMPDEST PUSH1 0x2 DUP2 GT ISZERO PUSH2 0x1475 JUMPI PUSH2 0x1475 PUSH2 0x2E64 JUMP JUMPDEST DUP2 MSTORE PUSH1 0x20 DUP2 ADD SWAP2 SWAP1 SWAP2 MSTORE PUSH1 0x40 ADD PUSH1 0x0 SWAP1 DUP2 KECCAK256 SWAP2 SWAP1 SWAP2 SSTORE DUP3 PUSH1 0x2 DUP2 GT ISZERO PUSH2 0x149D JUMPI PUSH2 0x149D PUSH2 0x2E64 JUMP JUMPDEST SUB PUSH2 0x153F JUMPI PUSH1 0x0 DUP5 PUSH1 0x1 PUSH1 0x1 PUSH1 0xA0 SHL SUB AND DUP3 PUSH1 0x40 MLOAD PUSH1 0x0 PUSH1 0x40 MLOAD DUP1 DUP4 SUB DUP2 DUP6 DUP8 GAS CALL SWAP3 POP POP POP RETURNDATASIZE DUP1 PUSH1 0x0 DUP2 EQ PUSH2 0x14EF JUMPI PUSH1 0x40 MLOAD SWAP2 POP PUSH1 0x1F NOT PUSH1 0x3F RETURNDATASIZE ADD AND DUP3 ADD PUSH1 0x40 MSTORE RETURNDATASIZE DUP3 MSTORE RETURNDATASIZE PUSH1 0x0 PUSH1 0x20 DUP5 ADD RETURNDATACOPY PUSH2 0x14F4 JUMP JUMPDEST PUSH1 0x60 SWAP2 POP JUMPDEST POP POP SWAP1 POP DUP1 PUSH2 0x1539 JUMPI PUSH1 0x40 MLOAD PUSH3 0x461BCD PUSH1 0xE5 SHL DUP2 MSTORE PUSH1 0x20 PUSH1 0x4 DUP3 ADD MSTORE PUSH1 0x11 PUSH1 0x24 DUP3 ADD MSTORE PUSH17 0x109390881C99599D5B990819985A5B1959 PUSH1 0x7A SHL PUSH1 0x44 DUP3 ADD MSTORE PUSH1 0x64 ADD PUSH2 0x29E JUMP JUMPDEST POP PUSH2 0x16C7 JUMP JUMPDEST PUSH1 0x1 DUP3 PUSH1 0x2 DUP2 GT ISZERO PUSH2 0x1553 JUMPI PUSH2 0x1553 PUSH2 0x2E64 JUMP JUMPDEST EQ DUP1 PUSH2 0x1570 JUMPI POP PUSH1 0x2 DUP3 PUSH1 0x2 DUP2 GT ISZERO PUSH2 0x156E JUMPI PUSH2 0x156E PUSH2 0x2E64 JUMP JUMPDEST EQ JUMPDEST ISZERO PUSH2 0x1671 JUMPI PUSH1 0x0 PUSH1 0x1 DUP4 PUSH1 0x2 DUP2 GT ISZERO PUSH2 0x158B JUMPI PUSH2 0x158B PUSH2 0x2E64 JUMP JUMPDEST EQ PUSH2 0x15A1 JUMPI PUSH1 0xC SLOAD PUSH1 0x1 PUSH1 0x1 PUSH1 0xA0 SHL SUB AND PUSH2 0x15AE JUMP JUMPDEST PUSH1 0xB SLOAD PUSH1 0x1 PUSH1 0x1 PUSH1 0xA0 SHL SUB AND JUMPDEST PUSH1 0x40 MLOAD PUSH4 0xA9059CBB PUSH1 0xE0 SHL DUP2 MSTORE PUSH1 0x1 PUSH1 0x1 PUSH1 0xA0 SHL SUB DUP8 DUP2 AND PUSH1 0x4 DUP4 ADD MSTORE PUSH1 0x24 DUP3 ADD DUP6 SWAP1 MSTORE SWAP2 SWAP3 POP SWAP1 DUP3 AND SWAP1 PUSH4 0xA9059CBB SWAP1 PUSH1 0x44 ADD PUSH1 0x20 PUSH1 0x40 MLOAD DUP1 DUP4 SUB DUP2 PUSH1 0x0 DUP8 GAS CALL ISZERO DUP1 ISZERO PUSH2 0x1601 JUMPI RETURNDATASIZE PUSH1 0x0 DUP1 RETURNDATACOPY RETURNDATASIZE PUSH1 0x0 REVERT JUMPDEST POP POP POP POP PUSH1 0x40 MLOAD RETURNDATASIZE PUSH1 0x1F NOT PUSH1 0x1F DUP3 ADD AND DUP3 ADD DUP1 PUSH1 0x40 MSTORE POP DUP2 ADD SWAP1 PUSH2 0x1625 SWAP2 SWAP1 PUSH2 0x31E6 JUMP JUMPDEST PUSH2 0x1539 JUMPI PUSH1 0x40 MLOAD PUSH3 0x461BCD PUSH1 0xE5 SHL DUP2 MSTORE PUSH1 0x20 PUSH1 0x4 DUP3 ADD MSTORE PUSH1 0x18 PUSH1 0x24 DUP3 ADD MSTORE PUSH32 0x537461626C65636F696E20726566756E64206661696C65640000000000000000 PUSH1 0x44 DUP3 ADD MSTORE PUSH1 0x64 ADD PUSH2 0x29E JUMP JUMPDEST PUSH1 0x40 MLOAD PUSH3 0x461BCD PUSH1 0xE5 SHL DUP2 MSTORE PUSH1 0x20 PUSH1 0x4 DUP3 ADD MSTORE PUSH1 0x25 PUSH1 0x24 DUP3 ADD MSTORE PUSH32 0x556E737570706F72746564207061796D656E74206D6574686F6420666F722072 PUSH1 0x44 DUP3 ADD MSTORE PUSH5 0x19599D5B99 PUSH1 0xDA SHL PUSH1 0x64 DUP3 ADD MSTORE PUSH1 0x84 ADD PUSH2 0x29E JUMP JUMPDEST DUP4 PUSH1 0x1 PUSH1 0x1 PUSH1 0xA0 SHL SUB AND PUSH32 0x3829AB241648D7348F97E4F77D36451330F2276EA8EEB3428E462012F9699E7 DUP3 DUP5 PUSH1 0x40 MLOAD PUSH2 0x1702 SWAP3 SWAP2 SWAP1 PUSH2 0x3208 JUMP JUMPDEST PUSH1 0x40 MLOAD DUP1 SWAP2 SUB SWAP1 LOG2 JUMPDEST POP POP PUSH1 0x1 ADD PUSH2 0x13BC JUMP JUMPDEST POP PUSH1 0xA DUP1 SLOAD DUP1 PUSH2 0x1727 JUMPI PUSH2 0x1727 PUSH2 0x321C JUMP JUMPDEST PUSH1 0x0 DUP3 DUP2 MSTORE PUSH1 0x20 DUP2 KECCAK256 DUP3 ADD PUSH1 0x0 NOT SWAP1 DUP2 ADD DUP1 SLOAD PUSH1 0x1 PUSH1 0x1 PUSH1 0xA0 SHL SUB NOT AND SWAP1 SSTORE SWAP1 SWAP2 ADD SWAP1 SWAP2 SSTORE DUP3 SWAP1 SUB PUSH2 0x1759 JUMPI POP PUSH2 0x176C JUMP JUMPDEST POP DUP1 PUSH2 0x1764 DUP2 PUSH2 0x3232 JUMP JUMPDEST SWAP2 POP POP PUSH2 0x1389 JUMP JUMPDEST POP PUSH1 0xA SLOAD PUSH1 0x0 SUB PUSH2 0x1785 JUMPI PUSH1 0x9 DUP1 SLOAD PUSH1 0xFF NOT AND PUSH1 0x1 OR SWAP1 SSTORE JUMPDEST POP POP PUSH2 0xEF6 PUSH1 0x1 PUSH1 0x0 DUP1 MLOAD PUSH1 0x20 PUSH2 0x32D4 DUP4 CODECOPY DUP2 MLOAD SWAP2 MSTORE SSTORE JUMP JUMPDEST PUSH32 0x9016D09D72D40FDAE2FD8CEAC6B6234C7706214FD39C1CD1E609A0528C199300 SLOAD PUSH1 0x1 PUSH1 0x1 PUSH1 0xA0 SHL SUB AND SWAP1 JUMP JUMPDEST PUSH2 0x17D4 PUSH2 0x2462 JUMP JUMPDEST PUSH2 0x17DC PUSH2 0x249A JUMP JUMPDEST PUSH1 0x9 SLOAD PUSH1 0xFF AND ISZERO PUSH2 0x17FF JUMPI PUSH1 0x40 MLOAD PUSH3 0x461BCD PUSH1 0xE5 SHL DUP2 MSTORE PUSH1 0x4 ADD PUSH2 0x29E SWAP1 PUSH2 0x3167 JUMP JUMPDEST PUSH1 0x9 SLOAD PUSH3 0x10000 SWAP1 DIV PUSH1 0xFF AND ISZERO PUSH2 0x1828 JUMPI PUSH1 0x40 MLOAD PUSH3 0x461BCD PUSH1 0xE5 SHL DUP2 MSTORE PUSH1 0x4 ADD PUSH2 0x29E SWAP1 PUSH2 0x3196 JUMP JUMPDEST PUSH1 0x9 SLOAD PUSH2 0x100 SWAP1 DIV PUSH1 0xFF AND ISZERO PUSH2 0x1880 JUMPI PUSH1 0x40 MLOAD PUSH3 0x461BCD PUSH1 0xE5 SHL DUP2 MSTORE PUSH1 0x20 PUSH1 0x4 DUP3 ADD MSTORE PUSH1 0x19 PUSH1 0x24 DUP3 ADD MSTORE PUSH32 0x41697264726F7020616C726561647920636F6D706C6574656400000000000000 PUSH1 0x44 DUP3 ADD MSTORE PUSH1 0x64 ADD PUSH2 0x29E JUMP JUMPDEST PUSH1 0x8 SLOAD PUSH1 0x3 SLOAD PUSH1 0x40 MLOAD PUSH4 0x70A08231 PUSH1 0xE0 SHL DUP2 MSTORE CALLER PUSH1 0x4 DUP3 ADD MSTORE PUSH1 0x1 PUSH1 0x1 PUSH1 0xA0 SHL SUB SWAP1 SWAP2 AND SWAP1 PUSH4 0x70A08231 SWAP1 PUSH1 0x24 ADD PUSH1 0x20 PUSH1 0x40 MLOAD DUP1 DUP4 SUB DUP2 DUP7 GAS STATICCALL ISZERO DUP1 ISZERO PUSH2 0x18CB JUMPI RETURNDATASIZE PUSH1 0x0 DUP1 RETURNDATACOPY RETURNDATASIZE PUSH1 0x0 REVERT JUMPDEST POP POP POP POP PUSH1 0x40 MLOAD RETURNDATASIZE PUSH1 0x1F NOT PUSH1 0x1F DUP3 ADD AND DUP3 ADD DUP1 PUSH1 0x40 MSTORE POP DUP2 ADD SWAP1 PUSH2 0x18EF SWAP2 SWAP1 PUSH2 0x3249 JUMP JUMPDEST LT ISZERO PUSH2 0x1932 JUMPI PUSH1 0x40 MLOAD PUSH3 0x461BCD PUSH1 0xE5 SHL DUP2 MSTORE PUSH1 0x20 PUSH1 0x4 DUP3 ADD MSTORE PUSH1 0x12 PUSH1 0x24 DUP3 ADD MSTORE PUSH18 0x496E73756666696369656E742046756E6473 PUSH1 0x70 SHL PUSH1 0x44 DUP3 ADD MSTORE PUSH1 0x64 ADD PUSH2 0x29E JUMP JUMPDEST PUSH1 0x6 SLOAD PUSH1 0x0 SWAP1 DUP2 MSTORE PUSH1 0xD PUSH1 0x20 MSTORE PUSH1 0x40 SWAP1 KECCAK256 PUSH1 0x1 ADD SLOAD TIMESTAMP GT PUSH2 0x1984 JUMPI PUSH1 0x40 MLOAD PUSH3 0x461BCD PUSH1 0xE5 SHL DUP2 MSTORE PUSH1 0x20 PUSH1 0x4 DUP3 ADD MSTORE PUSH1 0xC PUSH1 0x24 DUP3 ADD MSTORE PUSH12 0x53616C65206F6E676F696E67 PUSH1 0xA0 SHL PUSH1 0x44 DUP3 ADD MSTORE PUSH1 0x64 ADD PUSH2 0x29E JUMP JUMPDEST PUSH1 0xA DUP1 SLOAD SWAP1 PUSH1 0x0 SWAP1 DUP3 GT ISZERO PUSH2 0x19A5 JUMPI PUSH2 0x199E PUSH1 0xB DUP4 PUSH2 0x2FF5 JUMP JUMPDEST SWAP1 POP PUSH2 0x19A9 JUMP JUMPDEST POP PUSH1 0x0 JUMPDEST PUSH1 0x0 PUSH2 0x19B6 PUSH1 0x1 DUP5 PUSH2 0x2FF5 JUMP JUMPDEST SWAP1 POP JUMPDEST DUP2 DUP2 LT PUSH2 0x1B7D JUMPI PUSH1 0x0 PUSH1 0xA DUP3 DUP2 SLOAD DUP2 LT PUSH2 0x19D5 JUMPI PUSH2 0x19D5 PUSH2 0x31D0 JUMP JUMPDEST PUSH1 0x0 SWAP2 DUP3 MSTORE PUSH1 0x20 DUP1 DUP4 KECCAK256 SWAP1 SWAP2 ADD SLOAD PUSH1 0x1 PUSH1 0x1 PUSH1 0xA0 SHL SUB AND DUP1 DUP4 MSTORE PUSH1 0xF SWAP1 SWAP2 MSTORE PUSH1 0x40 SWAP1 SWAP2 KECCAK256 SLOAD SWAP1 SWAP2 POP DUP1 ISZERO PUSH2 0x1B59 JUMPI PUSH1 0x3 SLOAD PUSH1 0x0 SWAP1 PUSH1 0x1 PUSH1 0x1 PUSH1 0xA0 SHL SUB AND PUSH4 0x23B872DD PUSH2 0x1A1F PUSH2 0x179E JUMP JUMPDEST PUSH1 0x40 MLOAD PUSH1 0x1 PUSH1 0x1 PUSH1 0xE0 SHL SUB NOT PUSH1 0xE0 DUP5 SWAP1 SHL AND DUP2 MSTORE PUSH1 0x1 PUSH1 0x1 PUSH1 0xA0 SHL SUB SWAP2 DUP3 AND PUSH1 0x4 DUP3 ADD MSTORE SWAP1 DUP7 AND PUSH1 0x24 DUP3 ADD MSTORE PUSH1 0x44 DUP2 ADD DUP6 SWAP1 MSTORE PUSH1 0x64 ADD PUSH1 0x20 PUSH1 0x40 MLOAD DUP1 DUP4 SUB DUP2 PUSH1 0x0 DUP8 GAS CALL ISZERO DUP1 ISZERO PUSH2 0x1A74 JUMPI RETURNDATASIZE PUSH1 0x0 DUP1 RETURNDATACOPY RETURNDATASIZE PUSH1 0x0 REVERT JUMPDEST POP POP POP POP PUSH1 0x40 MLOAD RETURNDATASIZE PUSH1 0x1F NOT PUSH1 0x1F DUP3 ADD AND DUP3 ADD DUP1 PUSH1 0x40 MSTORE POP DUP2 ADD SWAP1 PUSH2 0x1A98 SWAP2 SWAP1 PUSH2 0x31E6 JUMP JUMPDEST SWAP1 POP DUP1 PUSH2 0x1ADF JUMPI PUSH1 0x40 MLOAD PUSH3 0x461BCD PUSH1 0xE5 SHL DUP2 MSTORE PUSH1 0x20 PUSH1 0x4 DUP3 ADD MSTORE PUSH1 0x15 PUSH1 0x24 DUP3 ADD MSTORE PUSH21 0x151BDAD95B881D1C985B9CD9995C8819985A5B1959 PUSH1 0x5A SHL PUSH1 0x44 DUP3 ADD MSTORE PUSH1 0x64 ADD PUSH2 0x29E JUMP JUMPDEST PUSH1 0xA DUP1 SLOAD DUP1 PUSH2 0x1AF0 JUMPI PUSH2 0x1AF0 PUSH2 0x321C JUMP JUMPDEST PUSH1 0x0 DUP3 DUP2 MSTORE PUSH1 0x20 SWAP1 KECCAK256 DUP2 ADD PUSH1 0x0 NOT SWAP1 DUP2 ADD DUP1 SLOAD PUSH1 0x1 PUSH1 0x1 PUSH1 0xA0 SHL SUB NOT AND SWAP1 SSTORE ADD SWAP1 SSTORE PUSH1 0x40 MLOAD PUSH1 0x1 PUSH1 0x1 PUSH1 0xA0 SHL SUB DUP5 AND SWAP1 PUSH32 0x9BDCD0CC5503FB9A8DD7311D9617E33108C4B7C8948CC544B16C1FD63C6F475B SWAP1 PUSH2 0x1B4F SWAP1 DUP6 DUP2 MSTORE PUSH1 0x20 ADD SWAP1 JUMP JUMPDEST PUSH1 0x40 MLOAD DUP1 SWAP2 SUB SWAP1 LOG2 POP JUMPDEST DUP3 PUSH1 0x0 SUB PUSH2 0x1B68 JUMPI POP POP PUSH2 0x1B7D JUMP JUMPDEST POP POP DUP1 DUP1 PUSH2 0x1B75 SWAP1 PUSH2 0x3232 JUMP JUMPDEST SWAP2 POP POP PUSH2 0x19B9 JUMP JUMPDEST POP PUSH1 0xA SLOAD PUSH1 0x0 SUB PUSH2 0x1785 JUMPI PUSH1 0x9 DUP1 SLOAD PUSH2 0xFF00 NOT AND PUSH2 0x100 OR SWAP1 SSTORE POP POP PUSH2 0xEF6 PUSH1 0x1 PUSH1 0x0 DUP1 MLOAD PUSH1 0x20 PUSH2 0x32D4 DUP4 CODECOPY DUP2 MLOAD SWAP2 MSTORE SSTORE JUMP JUMPDEST PUSH1 0x9 SLOAD PUSH1 0xFF AND ISZERO PUSH2 0x1BD3 JUMPI PUSH1 0x40 MLOAD PUSH3 0x461BCD PUSH1 0xE5 SHL DUP2 MSTORE PUSH1 0x4 ADD PUSH2 0x29E SWAP1 PUSH2 0x3167 JUMP JUMPDEST PUSH1 0x9 SLOAD PUSH3 0x10000 SWAP1 DIV PUSH1 0xFF AND ISZERO PUSH2 0x1BFC JUMPI PUSH1 0x40 MLOAD PUSH3 0x461BCD PUSH1 0xE5 SHL DUP2 MSTORE PUSH1 0x4 ADD PUSH2 0x29E SWAP1 PUSH2 0x3196 JUMP JUMPDEST PUSH2 0x1C04 PUSH2 0x179E JUMP JUMPDEST PUSH1 0x1 PUSH1 0x1 PUSH1 0xA0 SHL SUB AND CALLER SUB PUSH2 0x1C5B JUMPI PUSH1 0x40 MLOAD PUSH3 0x461BCD PUSH1 0xE5 SHL DUP2 MSTORE PUSH1 0x20 PUSH1 0x4 DUP3 ADD MSTORE PUSH1 0x17 PUSH1 0x24 DUP3 ADD MSTORE PUSH32 0x4F776E65722063616E6E6F742062757920746F6B656E73000000000000000000 PUSH1 0x44 DUP3 ADD MSTORE PUSH1 0x64 ADD PUSH2 0x29E JUMP JUMPDEST PUSH1 0x6 SLOAD PUSH1 0x0 SUB PUSH2 0x1C97 JUMPI PUSH1 0x40 MLOAD PUSH3 0x461BCD PUSH1 0xE5 SHL DUP2 MSTORE PUSH1 0x20 PUSH1 0x4 DUP3 ADD MSTORE PUSH1 0x7 PUSH1 0x24 DUP3 ADD MSTORE PUSH7 0x4E6F2073616C65 PUSH1 0xC8 SHL PUSH1 0x44 DUP3 ADD MSTORE PUSH1 0x64 ADD PUSH2 0x29E JUMP JUMPDEST PUSH1 0x6 SLOAD PUSH1 0x0 SWAP1 DUP2 MSTORE PUSH1 0xD PUSH1 0x20 MSTORE PUSH1 0x40 SWAP1 KECCAK256 PUSH1 0x4 ADD SLOAD PUSH1 0xFF AND ISZERO PUSH2 0x1CF5 JUMPI PUSH1 0x40 MLOAD PUSH3 0x461BCD PUSH1 0xE5 SHL DUP2 MSTORE PUSH1 0x20 PUSH1 0x4 DUP3 ADD MSTORE PUSH1 0x16 PUSH1 0x24 DUP3 ADD MSTORE PUSH22 0x14D85B1948185B1C9958591E48199A5B985B1A5E9959 PUSH1 0x52 SHL PUSH1 0x44 DUP3 ADD MSTORE PUSH1 0x64 ADD PUSH2 0x29E JUMP JUMPDEST PUSH1 0x0 DUP1 DUP4 PUSH1 0x2 DUP2 GT ISZERO PUSH2 0x1D0A JUMPI PUSH2 0x1D0A PUSH2 0x2E64 JUMP JUMPDEST SUB PUSH2 0x1DC9 JUMPI PUSH1 0x0 CALLVALUE GT PUSH2 0x1D5F JUMPI PUSH1 0x40 MLOAD PUSH3 0x461BCD PUSH1 0xE5 SHL DUP2 MSTORE PUSH1 0x20 PUSH1 0x4 DUP3 ADD MSTORE PUSH1 0x17 PUSH1 0x24 DUP3 ADD MSTORE PUSH32 0x53656E6420612076616C696420424E4220616D6F756E74000000000000000000 PUSH1 0x44 DUP3 ADD MSTORE PUSH1 0x64 ADD PUSH2 0x29E JUMP JUMPDEST PUSH2 0x1D69 DUP4 CALLVALUE PUSH2 0x884 JUMP JUMPDEST CALLER PUSH1 0x0 SWAP1 DUP2 MSTORE PUSH1 0x11 PUSH1 0x20 MSTORE PUSH1 0x40 DUP2 KECCAK256 SWAP2 SWAP3 POP CALLVALUE SWAP2 SWAP1 DUP6 PUSH1 0x2 DUP2 GT ISZERO PUSH2 0x1D90 JUMPI PUSH2 0x1D90 PUSH2 0x2E64 JUMP JUMPDEST PUSH1 0x2 DUP2 GT ISZERO PUSH2 0x1DA1 JUMPI PUSH2 0x1DA1 PUSH2 0x2E64 JUMP JUMPDEST DUP2 MSTORE PUSH1 0x20 ADD SWAP1 DUP2 MSTORE PUSH1 0x20 ADD PUSH1 0x0 KECCAK256 PUSH1 0x0 DUP3 DUP3 SLOAD PUSH2 0x1DBE SWAP2 SWAP1 PUSH2 0x3262 JUMP JUMPDEST SWAP1 SWAP2 SSTORE POP PUSH2 0x1FB9 SWAP1 POP JUMP JUMPDEST PUSH1 0x1 DUP4 PUSH1 0x2 DUP2 GT ISZERO PUSH2 0x1DDD JUMPI PUSH2 0x1DDD PUSH2 0x2E64 JUMP JUMPDEST EQ DUP1 PUSH2 0x1DFA JUMPI POP PUSH1 0x2 DUP4 PUSH1 0x2 DUP2 GT ISZERO PUSH2 0x1DF8 JUMPI PUSH2 0x1DF8 PUSH2 0x2E64 JUMP JUMPDEST EQ JUMPDEST ISZERO PUSH2 0x9C8 JUMPI PUSH1 0x0 DUP3 GT PUSH2 0x1E4F JUMPI PUSH1 0x40 MLOAD PUSH3 0x461BCD PUSH1 0xE5 SHL DUP2 MSTORE PUSH1 0x20 PUSH1 0x4 DUP3 ADD MSTORE PUSH1 0x1F PUSH1 0x24 DUP3 ADD MSTORE PUSH32 0x456E74657220612076616C696420737461626C65636F696E20616D6F756E7400 PUSH1 0x44 DUP3 ADD MSTORE PUSH1 0x64 ADD PUSH2 0x29E JUMP JUMPDEST PUSH1 0x0 PUSH1 0x1 DUP5 PUSH1 0x2 DUP2 GT ISZERO PUSH2 0x1E65 JUMPI PUSH2 0x1E65 PUSH2 0x2E64 JUMP JUMPDEST EQ PUSH2 0x1E7B JUMPI PUSH1 0xC SLOAD PUSH1 0x1 PUSH1 0x1 PUSH1 0xA0 SHL SUB AND PUSH2 0x1E88 JUMP JUMPDEST PUSH1 0xB SLOAD PUSH1 0x1 PUSH1 0x1 PUSH1 0xA0 SHL SUB AND JUMPDEST PUSH1 0x40 MLOAD PUSH4 0x23B872DD PUSH1 0xE0 SHL DUP2 MSTORE CALLER PUSH1 0x4 DUP3 ADD MSTORE ADDRESS PUSH1 0x24 DUP3 ADD MSTORE PUSH1 0x44 DUP2 ADD DUP6 SWAP1 MSTORE SWAP1 SWAP2 POP PUSH1 0x1 PUSH1 0x1 PUSH1 0xA0 SHL SUB DUP3 AND SWAP1 PUSH4 0x23B872DD SWAP1 PUSH1 0x64 ADD PUSH1 0x20 PUSH1 0x40 MLOAD DUP1 DUP4 SUB DUP2 PUSH1 0x0 DUP8 GAS CALL ISZERO DUP1 ISZERO PUSH2 0x1EDE JUMPI RETURNDATASIZE PUSH1 0x0 DUP1 RETURNDATACOPY RETURNDATASIZE PUSH1 0x0 REVERT JUMPDEST POP POP POP POP PUSH1 0x40 MLOAD RETURNDATASIZE PUSH1 0x1F NOT PUSH1 0x1F DUP3 ADD AND DUP3 ADD DUP1 PUSH1 0x40 MSTORE POP DUP2 ADD SWAP1 PUSH2 0x1F02 SWAP2 SWAP1 PUSH2 0x31E6 JUMP JUMPDEST PUSH2 0x1F4E JUMPI PUSH1 0x40 MLOAD PUSH3 0x461BCD PUSH1 0xE5 SHL DUP2 MSTORE PUSH1 0x20 PUSH1 0x4 DUP3 ADD MSTORE PUSH1 0x1A PUSH1 0x24 DUP3 ADD MSTORE PUSH32 0x537461626C65636F696E207472616E73666572206661696C6564000000000000 PUSH1 0x44 DUP3 ADD MSTORE PUSH1 0x64 ADD PUSH2 0x29E JUMP JUMPDEST PUSH2 0x1F58 DUP5 DUP5 PUSH2 0x884 JUMP JUMPDEST CALLER PUSH1 0x0 SWAP1 DUP2 MSTORE PUSH1 0x11 PUSH1 0x20 MSTORE PUSH1 0x40 DUP2 KECCAK256 SWAP2 SWAP4 POP DUP5 SWAP2 SWAP1 DUP7 PUSH1 0x2 DUP2 GT ISZERO PUSH2 0x1F7F JUMPI PUSH2 0x1F7F PUSH2 0x2E64 JUMP JUMPDEST PUSH1 0x2 DUP2 GT ISZERO PUSH2 0x1F90 JUMPI PUSH2 0x1F90 PUSH2 0x2E64 JUMP JUMPDEST DUP2 MSTORE PUSH1 0x20 ADD SWAP1 DUP2 MSTORE PUSH1 0x20 ADD PUSH1 0x0 KECCAK256 PUSH1 0x0 DUP3 DUP3 SLOAD PUSH2 0x1FAD SWAP2 SWAP1 PUSH2 0x3262 JUMP JUMPDEST SWAP1 SWAP2 SSTORE POP PUSH2 0x1FB9 SWAP2 POP POP JUMP JUMPDEST PUSH1 0x0 DUP2 GT PUSH2 0x2000 JUMPI PUSH1 0x40 MLOAD PUSH3 0x461BCD PUSH1 0xE5 SHL DUP2 MSTORE PUSH1 0x20 PUSH1 0x4 DUP3 ADD MSTORE PUSH1 0x14 PUSH1 0x24 DUP3 ADD MSTORE PUSH20 0x125B9D985B1A59081D1BDAD95B88185B5BDD5B9D PUSH1 0x62 SHL PUSH1 0x44 DUP3 ADD MSTORE PUSH1 0x64 ADD PUSH2 0x29E JUMP JUMPDEST PUSH1 0x6 SLOAD PUSH1 0x0 SWAP1 DUP2 MSTORE PUSH1 0xD PUSH1 0x20 MSTORE PUSH1 0x40 DUP2 KECCAK256 PUSH1 0x2 ADD SLOAD PUSH8 0xDE0B6B3A7640000 SWAP1 PUSH2 0x2029 SWAP1 DUP5 PUSH2 0x2FBC JUMP JUMPDEST PUSH2 0x2033 SWAP2 SWAP1 PUSH2 0x2FD3 JUMP JUMPDEST SWAP1 POP PUSH1 0x5 SLOAD DUP2 PUSH1 0x7 SLOAD PUSH2 0x2046 SWAP2 SWAP1 PUSH2 0x3262 JUMP JUMPDEST GT ISZERO PUSH2 0x2087 JUMPI PUSH1 0x40 MLOAD PUSH3 0x461BCD PUSH1 0xE5 SHL DUP2 MSTORE PUSH1 0x20 PUSH1 0x4 DUP3 ADD MSTORE PUSH1 0x10 PUSH1 0x24 DUP3 ADD MSTORE PUSH16 0x12185C990818D85C081C995858DA1959 PUSH1 0x82 SHL PUSH1 0x44 DUP3 ADD MSTORE PUSH1 0x64 ADD PUSH2 0x29E JUMP JUMPDEST CALLER PUSH1 0x0 SWAP1 DUP2 MSTORE PUSH1 0xE PUSH1 0x20 MSTORE PUSH1 0x40 DUP2 KECCAK256 DUP1 SLOAD DUP4 SWAP3 SWAP1 PUSH2 0x20A6 SWAP1 DUP5 SWAP1 PUSH2 0x3262 JUMP JUMPDEST SWAP3 POP POP DUP2 SWAP1 SSTORE POP DUP1 PUSH1 0x7 PUSH1 0x0 DUP3 DUP3 SLOAD PUSH2 0x20BF SWAP2 SWAP1 PUSH2 0x3262 JUMP JUMPDEST SWAP1 SWAP2 SSTORE POP POP PUSH1 0x6 SLOAD PUSH1 0x0 SWAP1 DUP2 MSTORE PUSH1 0xD PUSH1 0x20 MSTORE PUSH1 0x40 DUP2 KECCAK256 PUSH1 0x3 ADD DUP1 SLOAD DUP5 SWAP3 SWAP1 PUSH2 0x20E8 SWAP1 DUP5 SWAP1 PUSH2 0x3262 JUMP JUMPDEST SWAP3 POP POP DUP2 SWAP1 SSTORE POP DUP2 PUSH1 0x8 PUSH1 0x0 DUP3 DUP3 SLOAD PUSH2 0x2101 SWAP2 SWAP1 PUSH2 0x3262 JUMP JUMPDEST SWAP1 SWAP2 SSTORE POP POP CALLER PUSH1 0x0 SWAP1 DUP2 MSTORE PUSH1 0xF PUSH1 0x20 MSTORE PUSH1 0x40 DUP2 KECCAK256 SLOAD SWAP1 SUB PUSH2 0x215F JUMPI PUSH1 0xA DUP1 SLOAD PUSH1 0x1 DUP2 ADD DUP3 SSTORE PUSH1 0x0 SWAP2 SWAP1 SWAP2 MSTORE PUSH32 0xC65A7BB8D6351C1CF70C95A316CC6A92839C986682D98BC35F958F4883F9D2A8 ADD DUP1 SLOAD PUSH1 0x1 PUSH1 0x1 PUSH1 0xA0 SHL SUB NOT AND CALLER OR SWAP1 SSTORE JUMPDEST CALLER PUSH1 0x0 SWAP1 DUP2 MSTORE PUSH1 0xF PUSH1 0x20 MSTORE PUSH1 0x40 DUP2 KECCAK256 DUP1 SLOAD DUP5 SWAP3 SWAP1 PUSH2 0x217E SWAP1 DUP5 SWAP1 PUSH2 0x3262 JUMP JUMPDEST SWAP1 SWAP2 SSTORE POP POP CALLER PUSH1 0x0 SWAP1 DUP2 MSTORE PUSH1 0x10 PUSH1 0x20 MSTORE PUSH1 0x40 SWAP1 KECCAK256 DUP1 SLOAD DUP6 SWAP2 SWAP1 PUSH1 0xFF NOT AND PUSH1 0x1 DUP4 PUSH1 0x2 DUP2 GT ISZERO PUSH2 0x21AF JUMPI PUSH2 0x21AF PUSH2 0x2E64 JUMP JUMPDEST MUL OR SWAP1 SSTORE POP PUSH1 0x6 SLOAD PUSH1 0x0 DUP2 DUP2 MSTORE PUSH1 0xD PUSH1 0x20 MSTORE PUSH1 0x40 SWAP1 DUP2 SWAP1 KECCAK256 PUSH1 0x2 ADD SLOAD SWAP1 MLOAD CALLER SWAP2 PUSH32 0xDBCEF474A632721725D49E3F35D9DEFE0257100B01D1E4B4B135B14D6FE296E8 SWAP2 PUSH2 0x2200 SWAP2 DUP8 SWAP2 DUP10 SWAP1 DUP12 SWAP1 PUSH2 0x3275 JUMP JUMPDEST PUSH1 0x40 MLOAD DUP1 SWAP2 SUB SWAP1 LOG3 POP POP POP POP JUMP JUMPDEST PUSH2 0x2216 PUSH2 0x249A JUMP JUMPDEST PUSH1 0x1 PUSH1 0x1 PUSH1 0xA0 SHL SUB DUP2 AND PUSH2 0x2240 JUMPI PUSH1 0x40 MLOAD PUSH4 0x1E4FBDF7 PUSH1 0xE0 SHL DUP2 MSTORE PUSH1 0x0 PUSH1 0x4 DUP3 ADD MSTORE PUSH1 0x24 ADD PUSH2 0x29E JUMP JUMPDEST PUSH2 0x2249 DUP2 PUSH2 0x29AD JUMP JUMPDEST POP JUMP JUMPDEST PUSH32 0xF0C57E16840DF040F15088DC2F81FE391C3923BEC73E23A9662EFC9C229C6A00 DUP1 SLOAD PUSH1 0x1 PUSH1 0x40 SHL DUP2 DIV PUSH1 0xFF AND ISZERO SWAP1 PUSH8 0xFFFFFFFFFFFFFFFF AND PUSH1 0x0 DUP2 ISZERO DUP1 ISZERO PUSH2 0x2292 JUMPI POP DUP3 JUMPDEST SWAP1 POP PUSH1 0x0 DUP3 PUSH8 0xFFFFFFFFFFFFFFFF AND PUSH1 0x1 EQ DUP1 ISZERO PUSH2 0x22AF JUMPI POP ADDRESS EXTCODESIZE ISZERO JUMPDEST SWAP1 POP DUP2 ISZERO DUP1 ISZERO PUSH2 0x22BD JUMPI POP DUP1 ISZERO JUMPDEST ISZERO PUSH2 0x22DB JUMPI PUSH1 0x40 MLOAD PUSH4 0xF92EE8A9 PUSH1 0xE0 SHL DUP2 MSTORE PUSH1 0x4 ADD PUSH1 0x40 MLOAD DUP1 SWAP2 SUB SWAP1 REVERT JUMPDEST DUP5 SLOAD PUSH8 0xFFFFFFFFFFFFFFFF NOT AND PUSH1 0x1 OR DUP6 SSTORE DUP4 ISZERO PUSH2 0x2305 JUMPI DUP5 SLOAD PUSH1 0xFF PUSH1 0x40 SHL NOT AND PUSH1 0x1 PUSH1 0x40 SHL OR DUP6 SSTORE JUMPDEST PUSH2 0x230E CALLER PUSH2 0x2A1E JUMP JUMPDEST PUSH2 0x2316 PUSH2 0x2A2F JUMP JUMPDEST DUP13 PUSH1 0x3 PUSH1 0x0 PUSH2 0x100 EXP DUP2 SLOAD DUP2 PUSH1 0x1 PUSH1 0x1 PUSH1 0xA0 SHL SUB MUL NOT AND SWAP1 DUP4 PUSH1 0x1 PUSH1 0x1 PUSH1 0xA0 SHL SUB AND MUL OR SWAP1 SSTORE POP DUP10 PUSH1 0x4 DUP2 SWAP1 SSTORE POP DUP9 PUSH1 0x5 DUP2 SWAP1 SSTORE POP DUP12 PUSH1 0xB PUSH1 0x0 PUSH2 0x100 EXP DUP2 SLOAD DUP2 PUSH1 0x1 PUSH1 0x1 PUSH1 0xA0 SHL SUB MUL NOT AND SWAP1 DUP4 PUSH1 0x1 PUSH1 0x1 PUSH1 0xA0 SHL SUB AND MUL OR SWAP1 SSTORE POP DUP11 PUSH1 0xC PUSH1 0x0 PUSH2 0x100 EXP DUP2 SLOAD DUP2 PUSH1 0x1 PUSH1 0x1 PUSH1 0xA0 SHL SUB MUL NOT AND SWAP1 DUP4 PUSH1 0x1 PUSH1 0x1 PUSH1 0xA0 SHL SUB AND MUL OR SWAP1 SSTORE POP DUP8 PUSH1 0x0 DUP1 PUSH2 0x100 EXP DUP2 SLOAD DUP2 PUSH1 0x1 PUSH1 0x1 PUSH1 0xA0 SHL SUB MUL NOT AND SWAP1 DUP4 PUSH1 0x1 PUSH1 0x1 PUSH1 0xA0 SHL SUB AND MUL OR SWAP1 SSTORE POP DUP7 PUSH1 0x1 PUSH1 0x0 PUSH2 0x100 EXP DUP2 SLOAD DUP2 PUSH1 0x1 PUSH1 0x1 PUSH1 0xA0 SHL SUB MUL NOT AND SWAP1 DUP4 PUSH1 0x1 PUSH1 0x1 PUSH1 0xA0 SHL SUB AND MUL OR SWAP1 SSTORE POP DUP6 PUSH1 0x2 PUSH1 0x0 PUSH2 0x100 EXP DUP2 SLOAD DUP2 PUSH1 0x1 PUSH1 0x1 PUSH1 0xA0 SHL SUB MUL NOT AND SWAP1 DUP4 PUSH1 0x1 PUSH1 0x1 PUSH1 0xA0 SHL SUB AND MUL OR SWAP1 SSTORE POP DUP4 ISZERO PUSH2 0x2453 JUMPI DUP5 SLOAD PUSH1 0xFF PUSH1 0x40 SHL NOT AND DUP6 SSTORE PUSH1 0x40 MLOAD PUSH1 0x1 DUP2 MSTORE PUSH32 0xC7F505B2F371AE2175EE4913F4499E1F2633A7B5936321EED1CDAEB6115181D2 SWAP1 PUSH1 0x20 ADD PUSH1 0x40 MLOAD DUP1 SWAP2 SUB SWAP1 LOG1 JUMPDEST POP POP POP POP POP POP POP POP POP POP POP POP POP JUMP JUMPDEST PUSH1 0x0 DUP1 MLOAD PUSH1 0x20 PUSH2 0x32D4 DUP4 CODECOPY DUP2 MLOAD SWAP2 MSTORE DUP1 SLOAD PUSH1 0x1 NOT ADD PUSH2 0x2494 JUMPI PUSH1 0x40 MLOAD PUSH4 0x3EE5AEB5 PUSH1 0xE0 SHL DUP2 MSTORE PUSH1 0x4 ADD PUSH1 0x40 MLOAD DUP1 SWAP2 SUB SWAP1 REVERT JUMPDEST PUSH1 0x2 SWAP1 SSTORE JUMP JUMPDEST CALLER PUSH2 0x24A3 PUSH2 0x179E JUMP JUMPDEST PUSH1 0x1 PUSH1 0x1 PUSH1 0xA0 SHL SUB AND EQ PUSH2 0xEF6 JUMPI PUSH1 0x40 MLOAD PUSH4 0x118CDAA7 PUSH1 0xE0 SHL DUP2 MSTORE CALLER PUSH1 0x4 DUP3 ADD MSTORE PUSH1 0x24 ADD PUSH2 0x29E JUMP JUMPDEST SELFBALANCE DUP1 ISZERO PUSH2 0x2571 JUMPI PUSH1 0x0 PUSH2 0x24DD PUSH2 0x179E JUMP JUMPDEST PUSH1 0x1 PUSH1 0x1 PUSH1 0xA0 SHL SUB AND DUP3 PUSH1 0x40 MLOAD PUSH1 0x0 PUSH1 0x40 MLOAD DUP1 DUP4 SUB DUP2 DUP6 DUP8 GAS CALL SWAP3 POP POP POP RETURNDATASIZE DUP1 PUSH1 0x0 DUP2 EQ PUSH2 0x2527 JUMPI PUSH1 0x40 MLOAD SWAP2 POP PUSH1 0x1F NOT PUSH1 0x3F RETURNDATASIZE ADD AND DUP3 ADD PUSH1 0x40 MSTORE RETURNDATASIZE DUP3 MSTORE RETURNDATASIZE PUSH1 0x0 PUSH1 0x20 DUP5 ADD RETURNDATACOPY PUSH2 0x252C JUMP JUMPDEST PUSH1 0x60 SWAP2 POP JUMPDEST POP POP SWAP1 POP DUP1 PUSH2 0x256F JUMPI PUSH1 0x40 MLOAD PUSH3 0x461BCD PUSH1 0xE5 SHL DUP2 MSTORE PUSH1 0x20 PUSH1 0x4 DUP3 ADD MSTORE PUSH1 0xF PUSH1 0x24 DUP3 ADD MSTORE PUSH15 0x151C985B9CD9995C8819985A5B1959 PUSH1 0x8A SHL PUSH1 0x44 DUP3 ADD MSTORE PUSH1 0x64 ADD PUSH2 0x29E JUMP JUMPDEST POP JUMPDEST PUSH1 0xB SLOAD PUSH1 0x40 MLOAD PUSH4 0x70A08231 PUSH1 0xE0 SHL DUP2 MSTORE ADDRESS PUSH1 0x4 DUP3 ADD MSTORE PUSH1 0x0 SWAP2 PUSH1 0x1 PUSH1 0x1 PUSH1 0xA0 SHL SUB AND SWAP1 PUSH4 0x70A08231 SWAP1 PUSH1 0x24 ADD PUSH1 0x20 PUSH1 0x40 MLOAD DUP1 DUP4 SUB DUP2 DUP7 GAS STATICCALL ISZERO DUP1 ISZERO PUSH2 0x25BA JUMPI RETURNDATASIZE PUSH1 0x0 DUP1 RETURNDATACOPY RETURNDATASIZE PUSH1 0x0 REVERT JUMPDEST POP POP POP POP PUSH1 0x40 MLOAD RETURNDATASIZE PUSH1 0x1F NOT PUSH1 0x1F DUP3 ADD AND DUP3 ADD DUP1 PUSH1 0x40 MSTORE POP DUP2 ADD SWAP1 PUSH2 0x25DE SWAP2 SWAP1 PUSH2 0x3249 JUMP JUMPDEST SWAP1 POP DUP1 ISZERO PUSH2 0x26B3 JUMPI PUSH1 0xB SLOAD PUSH1 0x1 PUSH1 0x1 PUSH1 0xA0 SHL SUB AND PUSH4 0xA9059CBB PUSH2 0x25FF PUSH2 0x179E JUMP JUMPDEST PUSH1 0x40 MLOAD PUSH1 0x1 PUSH1 0x1 PUSH1 0xE0 SHL SUB NOT PUSH1 0xE0 DUP5 SWAP1 SHL AND DUP2 MSTORE PUSH1 0x1 PUSH1 0x1 PUSH1 0xA0 SHL SUB SWAP1 SWAP2 AND PUSH1 0x4 DUP3 ADD MSTORE PUSH1 0x24 DUP2 ADD DUP5 SWAP1 MSTORE PUSH1 0x44 ADD PUSH1 0x20 PUSH1 0x40 MLOAD DUP1 DUP4 SUB DUP2 PUSH1 0x0 DUP8 GAS CALL ISZERO DUP1 ISZERO PUSH2 0x264C JUMPI RETURNDATASIZE PUSH1 0x0 DUP1 RETURNDATACOPY RETURNDATASIZE PUSH1 0x0 REVERT JUMPDEST POP POP POP POP PUSH1 0x40 MLOAD RETURNDATASIZE PUSH1 0x1F NOT PUSH1 0x1F DUP3 ADD AND DUP3 ADD DUP1 PUSH1 0x40 MSTORE POP DUP2 ADD SWAP1 PUSH2 0x2670 SWAP2 SWAP1 PUSH2 0x31E6 JUMP JUMPDEST PUSH2 0x26B3 JUMPI PUSH1 0x40 MLOAD PUSH3 0x461BCD PUSH1 0xE5 SHL DUP2 MSTORE PUSH1 0x20 PUSH1 0x4 DUP3 ADD MSTORE PUSH1 0x14 PUSH1 0x24 DUP3 ADD MSTORE PUSH20 0x1554D115081D1C985B9CD9995C8819985A5B1959 PUSH1 0x62 SHL PUSH1 0x44 DUP3 ADD MSTORE PUSH1 0x64 ADD PUSH2 0x29E JUMP JUMPDEST PUSH1 0xC SLOAD PUSH1 0x40 MLOAD PUSH4 0x70A08231 PUSH1 0xE0 SHL DUP2 MSTORE ADDRESS PUSH1 0x4 DUP3 ADD MSTORE PUSH1 0x0 SWAP2 PUSH1 0x1 PUSH1 0x1 PUSH1 0xA0 SHL SUB AND SWAP1 PUSH4 0x70A08231 SWAP1 PUSH1 0x24 ADD PUSH1 0x20 PUSH1 0x40 MLOAD DUP1 DUP4 SUB DUP2 DUP7 GAS STATICCALL ISZERO DUP1 ISZERO PUSH2 0x26FC JUMPI RETURNDATASIZE PUSH1 0x0 DUP1 RETURNDATACOPY RETURNDATASIZE PUSH1 0x0 REVERT JUMPDEST POP POP POP POP PUSH1 0x40 MLOAD RETURNDATASIZE PUSH1 0x1F NOT PUSH1 0x1F DUP3 ADD AND DUP3 ADD DUP1 PUSH1 0x40 MSTORE POP DUP2 ADD SWAP1 PUSH2 0x2720 SWAP2 SWAP1 PUSH2 0x3249 JUMP JUMPDEST SWAP1 POP DUP1 ISZERO PUSH2 0x27F5 JUMPI PUSH1 0xC SLOAD PUSH1 0x1 PUSH1 0x1 PUSH1 0xA0 SHL SUB AND PUSH4 0xA9059CBB PUSH2 0x2741 PUSH2 0x179E JUMP JUMPDEST PUSH1 0x40 MLOAD PUSH1 0x1 PUSH1 0x1 PUSH1 0xE0 SHL SUB NOT PUSH1 0xE0 DUP5 SWAP1 SHL AND DUP2 MSTORE PUSH1 0x1 PUSH1 0x1 PUSH1 0xA0 SHL SUB SWAP1 SWAP2 AND PUSH1 0x4 DUP3 ADD MSTORE PUSH1 0x24 DUP2 ADD DUP5 SWAP1 MSTORE PUSH1 0x44 ADD PUSH1 0x20 PUSH1 0x40 MLOAD DUP1 DUP4 SUB DUP2 PUSH1 0x0 DUP8 GAS CALL ISZERO DUP1 ISZERO PUSH2 0x278E JUMPI RETURNDATASIZE PUSH1 0x0 DUP1 RETURNDATACOPY RETURNDATASIZE PUSH1 0x0 REVERT JUMPDEST POP POP POP POP PUSH1 0x40 MLOAD RETURNDATASIZE PUSH1 0x1F NOT PUSH1 0x1F DUP3 ADD AND DUP3 ADD DUP1 PUSH1 0x40 MSTORE POP DUP2 ADD SWAP1 PUSH2 0x27B2 SWAP2 SWAP1 PUSH2 0x31E6 JUMP JUMPDEST PUSH2 0x27F5 JUMPI PUSH1 0x40 MLOAD PUSH3 0x461BCD PUSH1 0xE5 SHL DUP2 MSTORE PUSH1 0x20 PUSH1 0x4 DUP3 ADD MSTORE PUSH1 0x14 PUSH1 0x24 DUP3 ADD MSTORE PUSH20 0x1554D110C81D1C985B9CD9995C8819985A5B1959 PUSH1 0x62 SHL PUSH1 0x44 DUP3 ADD MSTORE PUSH1 0x64 ADD PUSH2 0x29E JUMP JUMPDEST POP POP POP JUMP JUMPDEST ADDRESS PUSH1 0x1 PUSH1 0x1 PUSH1 0xA0 SHL SUB PUSH32 0x0 AND EQ DUP1 PUSH2 0x2881 JUMPI POP PUSH32 0x0 PUSH1 0x1 PUSH1 0x1 PUSH1 0xA0 SHL SUB AND PUSH2 0x2875 PUSH1 0x0 DUP1 MLOAD PUSH1 0x20 PUSH2 0x32B4 DUP4 CODECOPY DUP2 MLOAD SWAP2 MSTORE SLOAD PUSH1 0x1 PUSH1 0x1 PUSH1 0xA0 SHL SUB AND SWAP1 JUMP JUMPDEST PUSH1 0x1 PUSH1 0x1 PUSH1 0xA0 SHL SUB AND EQ ISZERO JUMPDEST ISZERO PUSH2 0xEF6 JUMPI PUSH1 0x40 MLOAD PUSH4 0x703E46DD PUSH1 0xE1 SHL DUP2 MSTORE PUSH1 0x4 ADD PUSH1 0x40 MLOAD DUP1 SWAP2 SUB SWAP1 REVERT JUMPDEST PUSH2 0x2249 PUSH2 0x249A JUMP JUMPDEST DUP2 PUSH1 0x1 PUSH1 0x1 PUSH1 0xA0 SHL SUB AND PUSH4 0x52D1902D PUSH1 0x40 MLOAD DUP2 PUSH4 0xFFFFFFFF AND PUSH1 0xE0 SHL DUP2 MSTORE PUSH1 0x4 ADD PUSH1 0x20 PUSH1 0x40 MLOAD DUP1 DUP4 SUB DUP2 DUP7 GAS STATICCALL SWAP3 POP POP POP DUP1 ISZERO PUSH2 0x2901 JUMPI POP PUSH1 0x40 DUP1 MLOAD PUSH1 0x1F RETURNDATASIZE SWAP1 DUP2 ADD PUSH1 0x1F NOT AND DUP3 ADD SWAP1 SWAP3 MSTORE PUSH2 0x28FE SWAP2 DUP2 ADD SWAP1 PUSH2 0x3249 JUMP JUMPDEST PUSH1 0x1 JUMPDEST PUSH2 0x2929 JUMPI PUSH1 0x40 MLOAD PUSH4 0x4C9C8CE3 PUSH1 0xE0 SHL DUP2 MSTORE PUSH1 0x1 PUSH1 0x1 PUSH1 0xA0 SHL SUB DUP4 AND PUSH1 0x4 DUP3 ADD MSTORE PUSH1 0x24 ADD PUSH2 0x29E JUMP JUMPDEST PUSH1 0x0 DUP1 MLOAD PUSH1 0x20 PUSH2 0x32B4 DUP4 CODECOPY DUP2 MLOAD SWAP2 MSTORE DUP2 EQ PUSH2 0x295A JUMPI PUSH1 0x40 MLOAD PUSH4 0x2A875269 PUSH1 0xE2 SHL DUP2 MSTORE PUSH1 0x4 DUP2 ADD DUP3 SWAP1 MSTORE PUSH1 0x24 ADD PUSH2 0x29E JUMP JUMPDEST PUSH2 0x27F5 DUP4 DUP4 PUSH2 0x2A37 JUMP JUMPDEST ADDRESS PUSH1 0x1 PUSH1 0x1 PUSH1 0xA0 SHL SUB PUSH32 0x0 AND EQ PUSH2 0xEF6 JUMPI PUSH1 0x40 MLOAD PUSH4 0x703E46DD PUSH1 0xE1 SHL DUP2 MSTORE PUSH1 0x4 ADD PUSH1 0x40 MLOAD DUP1 SWAP2 SUB SWAP1 REVERT JUMPDEST PUSH32 0x9016D09D72D40FDAE2FD8CEAC6B6234C7706214FD39C1CD1E609A0528C199300 DUP1 SLOAD PUSH1 0x1 PUSH1 0x1 PUSH1 0xA0 SHL SUB NOT DUP2 AND PUSH1 0x1 PUSH1 0x1 PUSH1 0xA0 SHL SUB DUP5 DUP2 AND SWAP2 DUP3 OR DUP5 SSTORE PUSH1 0x40 MLOAD SWAP3 AND SWAP2 DUP3 SWAP1 PUSH32 0x8BE0079C531659141344CD1FD0A4F28419497F9722A3DAAFE3B4186F6B6457E0 SWAP1 PUSH1 0x0 SWAP1 LOG3 POP POP POP JUMP JUMPDEST PUSH2 0x2A26 PUSH2 0x2A8D JUMP JUMPDEST PUSH2 0x2249 DUP2 PUSH2 0x2AD6 JUMP JUMPDEST PUSH2 0xEF6 PUSH2 0x2A8D JUMP JUMPDEST PUSH2 0x2A40 DUP3 PUSH2 0x2ADE JUMP JUMPDEST PUSH1 0x40 MLOAD PUSH1 0x1 PUSH1 0x1 PUSH1 0xA0 SHL SUB DUP4 AND SWAP1 PUSH32 0xBC7CD75A20EE27FD9ADEBAB32041F755214DBC6BFFA90CC0225B39DA2E5C2D3B SWAP1 PUSH1 0x0 SWAP1 LOG2 DUP1 MLOAD ISZERO PUSH2 0x2A85 JUMPI PUSH2 0x27F5 DUP3 DUP3 PUSH2 0x2B43 JUMP JUMPDEST PUSH2 0xF3D PUSH2 0x2BB9 JUMP JUMPDEST PUSH32 0xF0C57E16840DF040F15088DC2F81FE391C3923BEC73E23A9662EFC9C229C6A00 SLOAD PUSH1 0x1 PUSH1 0x40 SHL SWAP1 DIV PUSH1 0xFF AND PUSH2 0xEF6 JUMPI PUSH1 0x40 MLOAD PUSH4 0x1AFCD79F PUSH1 0xE3 SHL DUP2 MSTORE PUSH1 0x4 ADD PUSH1 0x40 MLOAD DUP1 SWAP2 SUB SWAP1 REVERT JUMPDEST PUSH2 0x2216 PUSH2 0x2A8D JUMP JUMPDEST DUP1 PUSH1 0x1 PUSH1 0x1 PUSH1 0xA0 SHL SUB AND EXTCODESIZE PUSH1 0x0 SUB PUSH2 0x2B14 JUMPI PUSH1 0x40 MLOAD PUSH4 0x4C9C8CE3 PUSH1 0xE0 SHL DUP2 MSTORE PUSH1 0x1 PUSH1 0x1 PUSH1 0xA0 SHL SUB DUP3 AND PUSH1 0x4 DUP3 ADD MSTORE PUSH1 0x24 ADD PUSH2 0x29E JUMP JUMPDEST PUSH1 0x0 DUP1 MLOAD PUSH1 0x20 PUSH2 0x32B4 DUP4 CODECOPY DUP2 MLOAD SWAP2 MSTORE DUP1 SLOAD PUSH1 0x1 PUSH1 0x1 PUSH1 0xA0 SHL SUB NOT AND PUSH1 0x1 PUSH1 0x1 PUSH1 0xA0 SHL SUB SWAP3 SWAP1 SWAP3 AND SWAP2 SWAP1 SWAP2 OR SWAP1 SSTORE JUMP JUMPDEST PUSH1 0x60 PUSH1 0x0 DUP1 DUP5 PUSH1 0x1 PUSH1 0x1 PUSH1 0xA0 SHL SUB AND DUP5 PUSH1 0x40 MLOAD PUSH2 0x2B60 SWAP2 SWAP1 PUSH2 0x3297 JUMP JUMPDEST PUSH1 0x0 PUSH1 0x40 MLOAD DUP1 DUP4 SUB DUP2 DUP6 GAS DELEGATECALL SWAP2 POP POP RETURNDATASIZE DUP1 PUSH1 0x0 DUP2 EQ PUSH2 0x2B9B JUMPI PUSH1 0x40 MLOAD SWAP2 POP PUSH1 0x1F NOT PUSH1 0x3F RETURNDATASIZE ADD AND DUP3 ADD PUSH1 0x40 MSTORE RETURNDATASIZE DUP3 MSTORE RETURNDATASIZE PUSH1 0x0 PUSH1 0x20 DUP5 ADD RETURNDATACOPY PUSH2 0x2BA0 JUMP JUMPDEST PUSH1 0x60 SWAP2 POP JUMPDEST POP SWAP2 POP SWAP2 POP PUSH2 0x2BB0 DUP6 DUP4 DUP4 PUSH2 0x2BD8 JUMP JUMPDEST SWAP6 SWAP5 POP POP POP POP POP JUMP JUMPDEST CALLVALUE ISZERO PUSH2 0xEF6 JUMPI PUSH1 0x40 MLOAD PUSH4 0xB398979F PUSH1 0xE0 SHL DUP2 MSTORE PUSH1 0x4 ADD PUSH1 0x40 MLOAD DUP1 SWAP2 SUB SWAP1 REVERT JUMPDEST PUSH1 0x60 DUP3 PUSH2 0x2BED JUMPI PUSH2 0x2BE8 DUP3 PUSH2 0x2C37 JUMP JUMPDEST PUSH2 0x2C30 JUMP JUMPDEST DUP2 MLOAD ISZERO DUP1 ISZERO PUSH2 0x2C04 JUMPI POP PUSH1 0x1 PUSH1 0x1 PUSH1 0xA0 SHL SUB DUP5 AND EXTCODESIZE ISZERO JUMPDEST ISZERO PUSH2 0x2C2D JUMPI PUSH1 0x40 MLOAD PUSH4 0x9996B315 PUSH1 0xE0 SHL DUP2 MSTORE PUSH1 0x1 PUSH1 0x1 PUSH1 0xA0 SHL SUB DUP6 AND PUSH1 0x4 DUP3 ADD MSTORE PUSH1 0x24 ADD PUSH2 0x29E JUMP JUMPDEST POP DUP1 JUMPDEST SWAP4 SWAP3 POP POP POP JUMP JUMPDEST DUP1 MLOAD ISZERO PUSH2 0x2C47 JUMPI DUP1 MLOAD DUP1 DUP3 PUSH1 0x20 ADD REVERT JUMPDEST PUSH1 0x40 MLOAD PUSH4 0xD6BDA275 PUSH1 0xE0 SHL DUP2 MSTORE PUSH1 0x4 ADD PUSH1 0x40 MLOAD DUP1 SWAP2 SUB SWAP1 REVERT JUMPDEST DUP1 CALLDATALOAD PUSH1 0x3 DUP2 LT PUSH2 0xBA2 JUMPI PUSH1 0x0 DUP1 REVERT JUMPDEST PUSH1 0x0 DUP1 PUSH1 0x40 DUP4 DUP6 SUB SLT ISZERO PUSH2 0x2C82 JUMPI PUSH1 0x0 DUP1 REVERT JUMPDEST PUSH2 0x2C8B DUP4 PUSH2 0x2C60 JUMP JUMPDEST SWAP5 PUSH1 0x20 SWAP4 SWAP1 SWAP4 ADD CALLDATALOAD SWAP4 POP POP POP JUMP JUMPDEST PUSH1 0x0 PUSH1 0x20 DUP3 DUP5 SUB SLT ISZERO PUSH2 0x2CAB JUMPI PUSH1 0x0 DUP1 REVERT JUMPDEST PUSH2 0x2C30 DUP3 PUSH2 0x2C60 JUMP JUMPDEST PUSH1 0x0 PUSH1 0x20 DUP3 DUP5 SUB SLT ISZERO PUSH2 0x2CC6 JUMPI PUSH1 0x0 DUP1 REVERT JUMPDEST POP CALLDATALOAD SWAP2 SWAP1 POP JUMP JUMPDEST PUSH1 0x1 PUSH1 0x1 PUSH1 0xA0 SHL SUB DUP2 AND DUP2 EQ PUSH2 0x2249 JUMPI PUSH1 0x0 DUP1 REVERT JUMPDEST PUSH4 0x4E487B71 PUSH1 0xE0 SHL PUSH1 0x0 MSTORE PUSH1 0x41 PUSH1 0x4 MSTORE PUSH1 0x24 PUSH1 0x0 REVERT JUMPDEST PUSH1 0x0 DUP1 PUSH1 0x40 DUP4 DUP6 SUB SLT ISZERO PUSH2 0x2D0B JUMPI PUSH1 0x0 DUP1 REVERT JUMPDEST DUP3 CALLDATALOAD PUSH2 0x2D16 DUP2 PUSH2 0x2CCD JUMP JUMPDEST SWAP2 POP PUSH1 0x20 DUP4 ADD CALLDATALOAD PUSH8 0xFFFFFFFFFFFFFFFF DUP2 GT ISZERO PUSH2 0x2D32 JUMPI PUSH1 0x0 DUP1 REVERT JUMPDEST DUP4 ADD PUSH1 0x1F DUP2 ADD DUP6 SGT PUSH2 0x2D43 JUMPI PUSH1 0x0 DUP1 REVERT JUMPDEST DUP1 CALLDATALOAD PUSH8 0xFFFFFFFFFFFFFFFF DUP2 GT ISZERO PUSH2 0x2D5D JUMPI PUSH2 0x2D5D PUSH2 0x2CE2 JUMP JUMPDEST PUSH1 0x40 MLOAD PUSH1 0x1F DUP3 ADD PUSH1 0x1F NOT SWAP1 DUP2 AND PUSH1 0x3F ADD AND DUP2 ADD PUSH8 0xFFFFFFFFFFFFFFFF DUP2 GT DUP3 DUP3 LT OR ISZERO PUSH2 0x2D8C JUMPI PUSH2 0x2D8C PUSH2 0x2CE2 JUMP JUMPDEST PUSH1 0x40 MSTORE DUP2 DUP2 MSTORE DUP3 DUP3 ADD PUSH1 0x20 ADD DUP8 LT ISZERO PUSH2 0x2DA4 JUMPI PUSH1 0x0 DUP1 REVERT JUMPDEST DUP2 PUSH1 0x20 DUP5 ADD PUSH1 0x20 DUP4 ADD CALLDATACOPY PUSH1 0x0 PUSH1 0x20 DUP4 DUP4 ADD ADD MSTORE DUP1 SWAP4 POP POP POP POP SWAP3 POP SWAP3 SWAP1 POP JUMP JUMPDEST PUSH1 0x0 DUP1 PUSH1 0x0 PUSH1 0x60 DUP5 DUP7 SUB SLT ISZERO PUSH2 0x2DD9 JUMPI PUSH1 0x0 DUP1 REVERT JUMPDEST POP POP DUP2 CALLDATALOAD SWAP4 PUSH1 0x20 DUP4 ADD CALLDATALOAD SWAP4 POP PUSH1 0x40 SWAP1 SWAP3 ADD CALLDATALOAD SWAP2 SWAP1 POP JUMP JUMPDEST PUSH1 0x0 JUMPDEST DUP4 DUP2 LT ISZERO PUSH2 0x2E0B JUMPI DUP2 DUP2 ADD MLOAD DUP4 DUP3 ADD MSTORE PUSH1 0x20 ADD PUSH2 0x2DF3 JUMP JUMPDEST POP POP PUSH1 0x0 SWAP2 ADD MSTORE JUMP JUMPDEST PUSH1 0x20 DUP2 MSTORE PUSH1 0x0 DUP3 MLOAD DUP1 PUSH1 0x20 DUP5 ADD MSTORE PUSH2 0x2E33 DUP2 PUSH1 0x40 DUP6 ADD PUSH1 0x20 DUP8 ADD PUSH2 0x2DF0 JUMP JUMPDEST PUSH1 0x1F ADD PUSH1 0x1F NOT AND SWAP2 SWAP1 SWAP2 ADD PUSH1 0x40 ADD SWAP3 SWAP2 POP POP JUMP JUMPDEST PUSH1 0x0 PUSH1 0x20 DUP3 DUP5 SUB SLT ISZERO PUSH2 0x2E59 JUMPI PUSH1 0x0 DUP1 REVERT JUMPDEST DUP2 CALLDATALOAD PUSH2 0x2C30 DUP2 PUSH2 0x2CCD JUMP JUMPDEST PUSH4 0x4E487B71 PUSH1 0xE0 SHL PUSH1 0x0 MSTORE PUSH1 0x21 PUSH1 0x4 MSTORE PUSH1 0x24 PUSH1 0x0 REVERT JUMPDEST PUSH1 0x3 DUP2 LT PUSH2 0x2E98 JUMPI PUSH4 0x4E487B71 PUSH1 0xE0 SHL PUSH1 0x0 MSTORE PUSH1 0x21 PUSH1 0x4 MSTORE PUSH1 0x24 PUSH1 0x0 REVERT JUMPDEST SWAP1 MSTORE JUMP JUMPDEST PUSH1 0x20 DUP2 ADD PUSH2 0xA38 DUP3 DUP5 PUSH2 0x2E7A JUMP JUMPDEST PUSH1 0x0 DUP1 PUSH1 0x40 DUP4 DUP6 SUB SLT ISZERO PUSH2 0x2EBD JUMPI PUSH1 0x0 DUP1 REVERT JUMPDEST DUP3 CALLDATALOAD PUSH2 0x2EC8 DUP2 PUSH2 0x2CCD JUMP JUMPDEST SWAP2 POP PUSH2 0x2ED6 PUSH1 0x20 DUP5 ADD PUSH2 0x2C60 JUMP JUMPDEST SWAP1 POP SWAP3 POP SWAP3 SWAP1 POP JUMP JUMPDEST PUSH1 0x0 DUP1 PUSH1 0x0 DUP1 PUSH1 0x0 DUP1 PUSH1 0x0 DUP1 PUSH2 0x100 DUP10 DUP12 SUB SLT ISZERO PUSH2 0x2EFC JUMPI PUSH1 0x0 DUP1 REVERT JUMPDEST DUP9 CALLDATALOAD PUSH2 0x2F07 DUP2 PUSH2 0x2CCD JUMP JUMPDEST SWAP8 POP PUSH1 0x20 DUP10 ADD CALLDATALOAD PUSH2 0x2F17 DUP2 PUSH2 0x2CCD JUMP JUMPDEST SWAP7 POP PUSH1 0x40 DUP10 ADD CALLDATALOAD PUSH2 0x2F27 DUP2 PUSH2 0x2CCD JUMP JUMPDEST SWAP6 POP PUSH1 0x60 DUP10 ADD CALLDATALOAD SWAP5 POP PUSH1 0x80 DUP10 ADD CALLDATALOAD SWAP4 POP PUSH1 0xA0 DUP10 ADD CALLDATALOAD PUSH2 0x2F45 DUP2 PUSH2 0x2CCD JUMP JUMPDEST SWAP3 POP PUSH1 0xC0 DUP10 ADD CALLDATALOAD PUSH2 0x2F55 DUP2 PUSH2 0x2CCD JUMP JUMPDEST SWAP2 POP PUSH1 0xE0 DUP10 ADD CALLDATALOAD PUSH2 0x2F65 DUP2 PUSH2 0x2CCD JUMP JUMPDEST DUP1 SWAP2 POP POP SWAP3 SWAP6 SWAP9 POP SWAP3 SWAP6 SWAP9 SWAP1 SWAP4 SWAP7 POP JUMP JUMPDEST PUSH4 0x4E487B71 PUSH1 0xE0 SHL PUSH1 0x0 MSTORE PUSH1 0x11 PUSH1 0x4 MSTORE PUSH1 0x24 PUSH1 0x0 REVERT JUMPDEST DUP1 DUP3 MUL PUSH1 0x0 DUP3 SLT PUSH1 0x1 PUSH1 0xFF SHL DUP5 EQ AND ISZERO PUSH2 0x2FA8 JUMPI PUSH2 0x2FA8 PUSH2 0x2F76 JUMP JUMPDEST DUP2 DUP2 SDIV DUP4 EQ DUP3 ISZERO OR PUSH2 0xA38 JUMPI PUSH2 0xA38 PUSH2 0x2F76 JUMP JUMPDEST DUP1 DUP3 MUL DUP2 ISZERO DUP3 DUP3 DIV DUP5 EQ OR PUSH2 0xA38 JUMPI PUSH2 0xA38 PUSH2 0x2F76 JUMP JUMPDEST PUSH1 0x0 DUP3 PUSH2 0x2FF0 JUMPI PUSH4 0x4E487B71 PUSH1 0xE0 SHL PUSH1 0x0 MSTORE PUSH1 0x12 PUSH1 0x4 MSTORE PUSH1 0x24 PUSH1 0x0 REVERT JUMPDEST POP DIV SWAP1 JUMP JUMPDEST DUP2 DUP2 SUB DUP2 DUP2 GT ISZERO PUSH2 0xA38 JUMPI PUSH2 0xA38 PUSH2 0x2F76 JUMP JUMPDEST PUSH1 0x1 DUP2 JUMPDEST PUSH1 0x1 DUP5 GT ISZERO PUSH2 0x3043 JUMPI DUP1 DUP6 DIV DUP2 GT ISZERO PUSH2 0x3027 JUMPI PUSH2 0x3027 PUSH2 0x2F76 JUMP JUMPDEST PUSH1 0x1 DUP5 AND ISZERO PUSH2 0x3035 JUMPI SWAP1 DUP2 MUL SWAP1 JUMPDEST PUSH1 0x1 SWAP4 SWAP1 SWAP4 SHR SWAP3 DUP1 MUL PUSH2 0x300C JUMP JUMPDEST SWAP4 POP SWAP4 SWAP2 POP POP JUMP JUMPDEST PUSH1 0x0 DUP3 PUSH2 0x305A JUMPI POP PUSH1 0x1 PUSH2 0xA38 JUMP JUMPDEST DUP2 PUSH2 0x3067 JUMPI POP PUSH1 0x0 PUSH2 0xA38 JUMP JUMPDEST DUP2 PUSH1 0x1 DUP2 EQ PUSH2 0x307D JUMPI PUSH1 0x2 DUP2 EQ PUSH2 0x3087 JUMPI PUSH2 0x30A3 JUMP JUMPDEST PUSH1 0x1 SWAP2 POP POP PUSH2 0xA38 JUMP JUMPDEST PUSH1 0xFF DUP5 GT ISZERO PUSH2 0x3098 JUMPI PUSH2 0x3098 PUSH2 0x2F76 JUMP JUMPDEST POP POP PUSH1 0x1 DUP3 SHL PUSH2 0xA38 JUMP JUMPDEST POP PUSH1 0x20 DUP4 LT PUSH2 0x133 DUP4 LT AND PUSH1 0x4E DUP5 LT PUSH1 0xB DUP5 LT AND OR ISZERO PUSH2 0x30C6 JUMPI POP DUP2 DUP2 EXP PUSH2 0xA38 JUMP JUMPDEST PUSH2 0x30D3 PUSH1 0x0 NOT DUP5 DUP5 PUSH2 0x3008 JUMP JUMPDEST DUP1 PUSH1 0x0 NOT DIV DUP3 GT ISZERO PUSH2 0x30E7 JUMPI PUSH2 0x30E7 PUSH2 0x2F76 JUMP JUMPDEST MUL SWAP4 SWAP3 POP POP POP JUMP JUMPDEST PUSH1 0x0 PUSH2 0x2C30 DUP4 DUP4 PUSH2 0x304B JUMP JUMPDEST DUP1 MLOAD PUSH10 0xFFFFFFFFFFFFFFFFFFFF DUP2 AND DUP2 EQ PUSH2 0xBA2 JUMPI PUSH1 0x0 DUP1 REVERT JUMPDEST PUSH1 0x0 DUP1 PUSH1 0x0 DUP1 PUSH1 0x0 PUSH1 0xA0 DUP7 DUP9 SUB SLT ISZERO PUSH2 0x312D JUMPI PUSH1 0x0 DUP1 REVERT JUMPDEST PUSH2 0x3136 DUP7 PUSH2 0x30FB JUMP JUMPDEST PUSH1 0x20 DUP8 ADD MLOAD PUSH1 0x40 DUP9 ADD MLOAD PUSH1 0x60 DUP10 ADD MLOAD SWAP3 SWAP8 POP SWAP1 SWAP6 POP SWAP4 POP SWAP2 POP PUSH2 0x315B PUSH1 0x80 DUP8 ADD PUSH2 0x30FB JUMP JUMPDEST SWAP1 POP SWAP3 SWAP6 POP SWAP3 SWAP6 SWAP1 SWAP4 POP JUMP JUMPDEST PUSH1 0x20 DUP1 DUP3 MSTORE PUSH1 0x15 SWAP1 DUP3 ADD MSTORE PUSH21 0x1250D3C8185B1C9958591E48199A5B985B1A5E9959 PUSH1 0x5A SHL PUSH1 0x40 DUP3 ADD MSTORE PUSH1 0x60 ADD SWAP1 JUMP JUMPDEST PUSH1 0x20 DUP1 DUP3 MSTORE PUSH1 0x7 SWAP1 DUP3 ADD MSTORE PUSH7 0x199C99595E9959 PUSH1 0xCA SHL PUSH1 0x40 DUP3 ADD MSTORE PUSH1 0x60 ADD SWAP1 JUMP JUMPDEST PUSH1 0x0 PUSH1 0x1 DUP3 ADD PUSH2 0x31C9 JUMPI PUSH2 0x31C9 PUSH2 0x2F76 JUMP JUMPDEST POP PUSH1 0x1 ADD SWAP1 JUMP JUMPDEST PUSH4 0x4E487B71 PUSH1 0xE0 SHL PUSH1 0x0 MSTORE PUSH1 0x32 PUSH1 0x4 MSTORE PUSH1 0x24 PUSH1 0x0 REVERT JUMPDEST PUSH1 0x0 PUSH1 0x20 DUP3 DUP5 SUB SLT ISZERO PUSH2 0x31F8 JUMPI PUSH1 0x0 DUP1 REVERT JUMPDEST DUP2 MLOAD DUP1 ISZERO ISZERO DUP2 EQ PUSH2 0x2C30 JUMPI PUSH1 0x0 DUP1 REVERT JUMPDEST DUP3 DUP2 MSTORE PUSH1 0x40 DUP2 ADD PUSH2 0x2C30 PUSH1 0x20 DUP4 ADD DUP5 PUSH2 0x2E7A JUMP JUMPDEST PUSH4 0x4E487B71 PUSH1 0xE0 SHL PUSH1 0x0 MSTORE PUSH1 0x31 PUSH1 0x4 MSTORE PUSH1 0x24 PUSH1 0x0 REVERT JUMPDEST PUSH1 0x0 DUP2 PUSH2 0x3241 JUMPI PUSH2 0x3241 PUSH2 0x2F76 JUMP JUMPDEST POP PUSH1 0x0 NOT ADD SWAP1 JUMP JUMPDEST PUSH1 0x0 PUSH1 0x20 DUP3 DUP5 SUB SLT ISZERO PUSH2 0x325B JUMPI PUSH1 0x0 DUP1 REVERT JUMPDEST POP MLOAD SWAP2 SWAP1 POP JUMP JUMPDEST DUP1 DUP3 ADD DUP1 DUP3 GT ISZERO PUSH2 0xA38 JUMPI PUSH2 0xA38 PUSH2 0x2F76 JUMP JUMPDEST DUP5 DUP2 MSTORE PUSH1 0x20 DUP2 ADD DUP5 SWAP1 MSTORE PUSH1 0x40 DUP2 ADD DUP4 SWAP1 MSTORE PUSH1 0x80 DUP2 ADD PUSH2 0x2BB0 PUSH1 0x60 DUP4 ADD DUP5 PUSH2 0x2E7A JUMP JUMPDEST PUSH1 0x0 DUP3 MLOAD PUSH2 0x32A9 DUP2 DUP5 PUSH1 0x20 DUP8 ADD PUSH2 0x2DF0 JUMP JUMPDEST SWAP2 SWAP1 SWAP2 ADD SWAP3 SWAP2 POP POP JUMP INVALID CALLDATASIZE ADDMOD SWAP5 LOG1 EXTCODESIZE LOG1 LOG3 0x21 MOD PUSH8 0xC828492DB98DCA3E KECCAK256 PUSH23 0xCC3735A920A3CA505D382BBC9B779B17422D0DF9222301 DUP12 ORIGIN 0xB4 0xD1 STATICCALL CHAINID 0xE0 PUSH18 0x723D6817E2486D003BECC55F00A264697066 PUSH20 0x5822122037F47CE339C7594754232D7A3C214F93 0xCC PUSH5 0xBE69963839 PUSH21 0xDD0F9B5DF6A5B7F064736F6C634300081A00330000 "
		},
		"gasEstimates": {
			"creation": {
				"codeDepositCost": "2619400",
				"executionCost": "infinite",
				"totalCost": "infinite"
			},
			"external": {
				"UPGRADE_INTERFACE_VERSION()": "infinite",
				"_getPriceFeed(uint8)": "infinite",
				"airdropTokens()": "infinite",
				"buyTokens(uint8,uint256)": "infinite",
				"calculatePaymentAmount(uint8,uint256)": "infinite",
				"calculateTokenAmount(uint8,uint256)": "infinite",
				"contributionsInUSD(address)": "2591",
				"createSale(uint256,uint256,uint256)": "137435",
				"finalizeICO()": "infinite",
				"freeze()": "28848",
				"getCurrentSaleId()": "2416",
				"getHardCapReached()": "4494",
				"getInvestorCount()": "2415",
				"getSaleStartEndTime(uint256)": "13214",
				"getSoftCapReached()": "4465",
				"hardCapInUSD()": "2329",
				"initialize(address,address,address,uint256,uint256,address,address,address)": "infinite",
				"initiateRefund()": "infinite",
				"investorPayments(address,uint8)": "2746",
				"investors(uint256)": "4748",
				"isFreezed()": "2454",
				"isICOFinalized()": "2421",
				"isTokensAirdropped()": "2367",
				"owner()": "2392",
				"paymentMethodForInvestor(address)": "2644",
				"priceFeedBNB()": "2382",
				"priceFeedUSDC()": "2470",
				"priceFeedUSDT()": "2449",
				"proxiableUUID()": "infinite",
				"renounceOwnership()": "infinite",
				"saleCount()": "2351",
				"sales(uint256)": "11105",
				"softCapInUSD()": "2330",
				"token()": "2469",
				"tokensBoughtByInvestor(address)": "2568",
				"totalFundsRaisedUSD()": "2395",
				"totalTokensSold()": "2329",
				"transferOwnership(address)": "infinite",
				"unFreeze()": "28838",
				"upgradeToAndCall(address,bytes)": "infinite",
				"usdc()": "2449",
				"usdt()": "2427"
			},
			"internal": {
				"_authorizeUpgrade(address)": "infinite",
				"_transferFundsToOwner()": "infinite",
				"getLatestSaleEndTime()": "infinite"
			}
		},
		"methodIdentifiers": {
			"UPGRADE_INTERFACE_VERSION()": "ad3cb1cc",
			"_getPriceFeed(uint8)": "115afc3a",
			"airdropTokens()": "91152c5c",
			"buyTokens(uint8,uint256)": "940c333e",
			"calculatePaymentAmount(uint8,uint256)": "117d260f",
			"calculateTokenAmount(uint8,uint256)": "05834e67",
			"contributionsInUSD(address)": "c81ffdea",
			"createSale(uint256,uint256,uint256)": "6c1909ed",
			"finalizeICO()": "23cc75a8",
			"freeze()": "62a5af3b",
			"getCurrentSaleId()": "212ea247",
			"getHardCapReached()": "91d8730a",
			"getInvestorCount()": "960524e3",
			"getSaleStartEndTime(uint256)": "c211e1f9",
			"getSoftCapReached()": "06e4d36f",
			"hardCapInUSD()": "c1560a14",
			"initialize(address,address,address,uint256,uint256,address,address,address)": "fd663da2",
			"initiateRefund()": "7fb12001",
			"investorPayments(address,uint8)": "efdcdb45",
			"investors(uint256)": "3feb5f2b",
			"isFreezed()": "b9469e1a",
			"isICOFinalized()": "d1f3b23e",
			"isTokensAirdropped()": "4dee1dc3",
			"owner()": "8da5cb5b",
			"paymentMethodForInvestor(address)": "df4e0593",
			"priceFeedBNB()": "99131e7e",
			"priceFeedUSDC()": "d3d9d1e4",
			"priceFeedUSDT()": "62a469e9",
			"proxiableUUID()": "52d1902d",
			"renounceOwnership()": "715018a6",
			"saleCount()": "a1e89aec",
			"sales(uint256)": "b5f522f7",
			"softCapInUSD()": "2151206e",
			"token()": "fc0c546a",
			"tokensBoughtByInvestor(address)": "e8e87389",
			"totalFundsRaisedUSD()": "721bc38b",
			"totalTokensSold()": "63b20117",
			"transferOwnership(address)": "f2fde38b",
			"unFreeze()": "7cf12b90",
			"upgradeToAndCall(address,bytes)": "4f1ef286",
			"usdc()": "3e413bee",
			"usdt()": "2f48ab7d"
		}
	},
	"abi": [
		{
			"inputs": [
				{
					"internalType": "address",
					"name": "target",
					"type": "address"
				}
			],
			"name": "AddressEmptyCode",
			"type": "error"
		},
		{
			"inputs": [
				{
					"internalType": "address",
					"name": "implementation",
					"type": "address"
				}
			],
			"name": "ERC1967InvalidImplementation",
			"type": "error"
		},
		{
			"inputs": [],
			"name": "ERC1967NonPayable",
			"type": "error"
		},
		{
			"inputs": [],
			"name": "FailedCall",
			"type": "error"
		},
		{
			"inputs": [],
			"name": "InvalidInitialization",
			"type": "error"
		},
		{
			"inputs": [],
			"name": "NotInitializing",
			"type": "error"
		},
		{
			"inputs": [
				{
					"internalType": "address",
					"name": "owner",
					"type": "address"
				}
			],
			"name": "OwnableInvalidOwner",
			"type": "error"
		},
		{
			"inputs": [
				{
					"internalType": "address",
					"name": "account",
					"type": "address"
				}
			],
			"name": "OwnableUnauthorizedAccount",
			"type": "error"
		},
		{
			"inputs": [],
			"name": "ReentrancyGuardReentrantCall",
			"type": "error"
		},
		{
			"inputs": [],
			"name": "UUPSUnauthorizedCallContext",
			"type": "error"
		},
		{
			"inputs": [
				{
					"internalType": "bytes32",
					"name": "slot",
					"type": "bytes32"
				}
			],
			"name": "UUPSUnsupportedProxiableUUID",
			"type": "error"
		},
		{
			"anonymous": false,
			"inputs": [
				{
					"indexed": true,
					"internalType": "uint256",
					"name": "totalTokensSold",
					"type": "uint256"
				}
			],
			"name": "ICOFinalized",
			"type": "event"
		},
		{
			"anonymous": false,
			"inputs": [
				{
					"indexed": true,
					"internalType": "uint256",
					"name": "saleId",
					"type": "uint256"
				}
			],
			"name": "ImmediateFinalization",
			"type": "event"
		},
		{
			"anonymous": false,
			"inputs": [
				{
					"indexed": false,
					"internalType": "uint64",
					"name": "version",
					"type": "uint64"
				}
			],
			"name": "Initialized",
			"type": "event"
		},
		{
			"anonymous": false,
			"inputs": [
				{
					"indexed": true,
					"internalType": "uint256",
					"name": "saleId",
					"type": "uint256"
				},
				{
					"indexed": false,
					"internalType": "uint256",
					"name": "startTime",
					"type": "uint256"
				},
				{
					"indexed": false,
					"internalType": "uint256",
					"name": "endTime",
					"type": "uint256"
				},
				{
					"indexed": false,
					"internalType": "uint256",
					"name": "tokenPriceUSD",
					"type": "uint256"
				}
			],
			"name": "NewSaleCreated",
			"type": "event"
		},
		{
			"anonymous": false,
			"inputs": [
				{
					"indexed": true,
					"internalType": "address",
					"name": "previousOwner",
					"type": "address"
				},
				{
					"indexed": true,
					"internalType": "address",
					"name": "newOwner",
					"type": "address"
				}
			],
			"name": "OwnershipTransferred",
			"type": "event"
		},
		{
			"anonymous": false,
			"inputs": [
				{
					"indexed": true,
					"internalType": "address",
					"name": "investor",
					"type": "address"
				},
				{
					"indexed": false,
					"internalType": "uint256",
					"name": "amount",
					"type": "uint256"
				},
				{
					"indexed": false,
					"internalType": "enum ENCRICO.PaymentMethod",
					"name": "paymentMethod",
					"type": "uint8"
				}
			],
			"name": "RefundInitiated",
			"type": "event"
		},
		{
			"anonymous": false,
			"inputs": [
				{
					"indexed": true,
					"internalType": "address",
					"name": "investor",
					"type": "address"
				},
				{
					"indexed": false,
					"internalType": "uint256",
					"name": "airdroppedAmount",
					"type": "uint256"
				}
			],
			"name": "TokenAirdropped",
			"type": "event"
		},
		{
			"anonymous": false,
			"inputs": [
				{
					"indexed": true,
					"internalType": "address",
					"name": "buyer",
					"type": "address"
				},
				{
					"indexed": true,
					"internalType": "uint256",
					"name": "saleId",
					"type": "uint256"
				},
				{
					"indexed": false,
					"internalType": "uint256",
					"name": "tokenPurchaseAmount",
					"type": "uint256"
				},
				{
					"indexed": false,
					"internalType": "uint256",
					"name": "tokenPriceUSD",
					"type": "uint256"
				},
				{
					"indexed": false,
					"internalType": "uint256",
					"name": "amountPaid",
					"type": "uint256"
				},
				{
					"indexed": false,
					"internalType": "enum ENCRICO.PaymentMethod",
					"name": "paymentMethod",
					"type": "uint8"
				}
			],
			"name": "TokensPurchased",
			"type": "event"
		},
		{
			"anonymous": false,
			"inputs": [
				{
					"indexed": true,
					"internalType": "address",
					"name": "implementation",
					"type": "address"
				}
			],
			"name": "Upgraded",
			"type": "event"
		},
		{
			"inputs": [],
			"name": "UPGRADE_INTERFACE_VERSION",
			"outputs": [
				{
					"internalType": "string",
					"name": "",
					"type": "string"
				}
			],
			"stateMutability": "view",
			"type": "function"
		},
		{
			"inputs": [
				{
					"internalType": "enum ENCRICO.PaymentMethod",
					"name": "paymentMethod",
					"type": "uint8"
				}
			],
			"name": "_getPriceFeed",
			"outputs": [
				{
					"internalType": "int256",
					"name": "",
					"type": "int256"
				}
			],
			"stateMutability": "view",
			"type": "function"
		},
		{
			"inputs": [],
			"name": "airdropTokens",
			"outputs": [],
			"stateMutability": "nonpayable",
			"type": "function"
		},
		{
			"inputs": [
				{
					"internalType": "enum ENCRICO.PaymentMethod",
					"name": "paymentMethod",
					"type": "uint8"
				},
				{
					"internalType": "uint256",
					"name": "paymentAmount",
					"type": "uint256"
				}
			],
			"name": "buyTokens",
			"outputs": [],
			"stateMutability": "payable",
			"type": "function"
		},
		{
			"inputs": [
				{
					"internalType": "enum ENCRICO.PaymentMethod",
					"name": "paymentMethod",
					"type": "uint8"
				},
				{
					"internalType": "uint256",
					"name": "tokenAmount",
					"type": "uint256"
				}
			],
			"name": "calculatePaymentAmount",
			"outputs": [
				{
					"internalType": "uint256",
					"name": "",
					"type": "uint256"
				}
			],
			"stateMutability": "view",
			"type": "function"
		},
		{
			"inputs": [
				{
					"internalType": "enum ENCRICO.PaymentMethod",
					"name": "paymentMethod",
					"type": "uint8"
				},
				{
					"internalType": "uint256",
					"name": "paymentAmount",
					"type": "uint256"
				}
			],
			"name": "calculateTokenAmount",
			"outputs": [
				{
					"internalType": "uint256",
					"name": "",
					"type": "uint256"
				}
			],
			"stateMutability": "view",
			"type": "function"
		},
		{
			"inputs": [
				{
					"internalType": "address",
					"name": "",
					"type": "address"
				}
			],
			"name": "contributionsInUSD",
			"outputs": [
				{
					"internalType": "uint256",
					"name": "",
					"type": "uint256"
				}
			],
			"stateMutability": "view",
			"type": "function"
		},
		{
			"inputs": [
				{
					"internalType": "uint256",
					"name": "_startTime",
					"type": "uint256"
				},
				{
					"internalType": "uint256",
					"name": "_endTime",
					"type": "uint256"
				},
				{
					"internalType": "uint256",
					"name": "_tokenPriceUSD",
					"type": "uint256"
				}
			],
			"name": "createSale",
			"outputs": [],
			"stateMutability": "nonpayable",
			"type": "function"
		},
		{
			"inputs": [],
			"name": "finalizeICO",
			"outputs": [],
			"stateMutability": "nonpayable",
			"type": "function"
		},
		{
			"inputs": [],
			"name": "freeze",
			"outputs": [],
			"stateMutability": "nonpayable",
			"type": "function"
		},
		{
			"inputs": [],
			"name": "getCurrentSaleId",
			"outputs": [
				{
					"internalType": "uint256",
					"name": "",
					"type": "uint256"
				}
			],
			"stateMutability": "view",
			"type": "function"
		},
		{
			"inputs": [],
			"name": "getHardCapReached",
			"outputs": [
				{
					"internalType": "bool",
					"name": "",
					"type": "bool"
				}
			],
			"stateMutability": "view",
			"type": "function"
		},
		{
			"inputs": [],
			"name": "getInvestorCount",
			"outputs": [
				{
					"internalType": "uint256",
					"name": "investorCount",
					"type": "uint256"
				}
			],
			"stateMutability": "view",
			"type": "function"
		},
		{
			"inputs": [
				{
					"internalType": "uint256",
					"name": "",
					"type": "uint256"
				}
			],
			"name": "getSaleStartEndTime",
			"outputs": [
				{
					"internalType": "uint256",
					"name": "_startTime",
					"type": "uint256"
				},
				{
					"internalType": "uint256",
					"name": "_endTime",
					"type": "uint256"
				}
			],
			"stateMutability": "view",
			"type": "function"
		},
		{
			"inputs": [],
			"name": "getSoftCapReached",
			"outputs": [
				{
					"internalType": "bool",
					"name": "",
					"type": "bool"
				}
			],
			"stateMutability": "view",
			"type": "function"
		},
		{
			"inputs": [],
			"name": "hardCapInUSD",
			"outputs": [
				{
					"internalType": "uint256",
					"name": "",
					"type": "uint256"
				}
			],
			"stateMutability": "view",
			"type": "function"
		},
		{
			"inputs": [
				{
					"internalType": "contract IERC20",
					"name": "_token",
					"type": "address"
				},
				{
					"internalType": "address",
					"name": "_usdt",
					"type": "address"
				},
				{
					"internalType": "address",
					"name": "_usdc",
					"type": "address"
				},
				{
					"internalType": "uint256",
					"name": "_softCapInUSD",
					"type": "uint256"
				},
				{
					"internalType": "uint256",
					"name": "_hardCapInUSD",
					"type": "uint256"
				},
				{
					"internalType": "address",
					"name": "_priceFeedBNB",
					"type": "address"
				},
				{
					"internalType": "address",
					"name": "_priceFeedUSDT",
					"type": "address"
				},
				{
					"internalType": "address",
					"name": "_priceFeedUSDC",
					"type": "address"
				}
			],
			"name": "initialize",
			"outputs": [],
			"stateMutability": "nonpayable",
			"type": "function"
		},
		{
			"inputs": [],
			"name": "initiateRefund",
			"outputs": [],
			"stateMutability": "nonpayable",
			"type": "function"
		},
		{
			"inputs": [
				{
					"internalType": "address",
					"name": "",
					"type": "address"
				},
				{
					"internalType": "enum ENCRICO.PaymentMethod",
					"name": "",
					"type": "uint8"
				}
			],
			"name": "investorPayments",
			"outputs": [
				{
					"internalType": "uint256",
					"name": "",
					"type": "uint256"
				}
			],
			"stateMutability": "view",
			"type": "function"
		},
		{
			"inputs": [
				{
					"internalType": "uint256",
					"name": "",
					"type": "uint256"
				}
			],
			"name": "investors",
			"outputs": [
				{
					"internalType": "address",
					"name": "",
					"type": "address"
				}
			],
			"stateMutability": "view",
			"type": "function"
		},
		{
			"inputs": [],
			"name": "isFreezed",
			"outputs": [
				{
					"internalType": "bool",
					"name": "",
					"type": "bool"
				}
			],
			"stateMutability": "view",
			"type": "function"
		},
		{
			"inputs": [],
			"name": "isICOFinalized",
			"outputs": [
				{
					"internalType": "bool",
					"name": "",
					"type": "bool"
				}
			],
			"stateMutability": "view",
			"type": "function"
		},
		{
			"inputs": [],
			"name": "isTokensAirdropped",
			"outputs": [
				{
					"internalType": "bool",
					"name": "",
					"type": "bool"
				}
			],
			"stateMutability": "view",
			"type": "function"
		},
		{
			"inputs": [],
			"name": "owner",
			"outputs": [
				{
					"internalType": "address",
					"name": "",
					"type": "address"
				}
			],
			"stateMutability": "view",
			"type": "function"
		},
		{
			"inputs": [
				{
					"internalType": "address",
					"name": "",
					"type": "address"
				}
			],
			"name": "paymentMethodForInvestor",
			"outputs": [
				{
					"internalType": "enum ENCRICO.PaymentMethod",
					"name": "",
					"type": "uint8"
				}
			],
			"stateMutability": "view",
			"type": "function"
		},
		{
			"inputs": [],
			"name": "priceFeedBNB",
			"outputs": [
				{
					"internalType": "contract AggregatorV3Interface",
					"name": "",
					"type": "address"
				}
			],
			"stateMutability": "view",
			"type": "function"
		},
		{
			"inputs": [],
			"name": "priceFeedUSDC",
			"outputs": [
				{
					"internalType": "contract AggregatorV3Interface",
					"name": "",
					"type": "address"
				}
			],
			"stateMutability": "view",
			"type": "function"
		},
		{
			"inputs": [],
			"name": "priceFeedUSDT",
			"outputs": [
				{
					"internalType": "contract AggregatorV3Interface",
					"name": "",
					"type": "address"
				}
			],
			"stateMutability": "view",
			"type": "function"
		},
		{
			"inputs": [],
			"name": "proxiableUUID",
			"outputs": [
				{
					"internalType": "bytes32",
					"name": "",
					"type": "bytes32"
				}
			],
			"stateMutability": "view",
			"type": "function"
		},
		{
			"inputs": [],
			"name": "renounceOwnership",
			"outputs": [],
			"stateMutability": "nonpayable",
			"type": "function"
		},
		{
			"inputs": [],
			"name": "saleCount",
			"outputs": [
				{
					"internalType": "uint256",
					"name": "",
					"type": "uint256"
				}
			],
			"stateMutability": "view",
			"type": "function"
		},
		{
			"inputs": [
				{
					"internalType": "uint256",
					"name": "",
					"type": "uint256"
				}
			],
			"name": "sales",
			"outputs": [
				{
					"internalType": "uint256",
					"name": "startTime",
					"type": "uint256"
				},
				{
					"internalType": "uint256",
					"name": "endTime",
					"type": "uint256"
				},
				{
					"internalType": "uint256",
					"name": "tokenPriceUSD",
					"type": "uint256"
				},
				{
					"internalType": "uint256",
					"name": "tokensSold",
					"type": "uint256"
				},
				{
					"internalType": "bool",
					"name": "isFinalized",
					"type": "bool"
				}
			],
			"stateMutability": "view",
			"type": "function"
		},
		{
			"inputs": [],
			"name": "softCapInUSD",
			"outputs": [
				{
					"internalType": "uint256",
					"name": "",
					"type": "uint256"
				}
			],
			"stateMutability": "view",
			"type": "function"
		},
		{
			"inputs": [],
			"name": "token",
			"outputs": [
				{
					"internalType": "contract IERC20",
					"name": "",
					"type": "address"
				}
			],
			"stateMutability": "view",
			"type": "function"
		},
		{
			"inputs": [
				{
					"internalType": "address",
					"name": "",
					"type": "address"
				}
			],
			"name": "tokensBoughtByInvestor",
			"outputs": [
				{
					"internalType": "uint256",
					"name": "",
					"type": "uint256"
				}
			],
			"stateMutability": "view",
			"type": "function"
		},
		{
			"inputs": [],
			"name": "totalFundsRaisedUSD",
			"outputs": [
				{
					"internalType": "uint256",
					"name": "",
					"type": "uint256"
				}
			],
			"stateMutability": "view",
			"type": "function"
		},
		{
			"inputs": [],
			"name": "totalTokensSold",
			"outputs": [
				{
					"internalType": "uint256",
					"name": "",
					"type": "uint256"
				}
			],
			"stateMutability": "view",
			"type": "function"
		},
		{
			"inputs": [
				{
					"internalType": "address",
					"name": "newOwner",
					"type": "address"
				}
			],
			"name": "transferOwnership",
			"outputs": [],
			"stateMutability": "nonpayable",
			"type": "function"
		},
		{
			"inputs": [],
			"name": "unFreeze",
			"outputs": [],
			"stateMutability": "nonpayable",
			"type": "function"
		},
		{
			"inputs": [
				{
					"internalType": "address",
					"name": "newImplementation",
					"type": "address"
				},
				{
					"internalType": "bytes",
					"name": "data",
					"type": "bytes"
				}
			],
			"name": "upgradeToAndCall",
			"outputs": [],
			"stateMutability": "payable",
			"type": "function"
		},
		{
			"inputs": [],
			"name": "usdc",
			"outputs": [
				{
					"internalType": "address",
					"name": "",
					"type": "address"
				}
			],
			"stateMutability": "view",
			"type": "function"
		},
		{
			"inputs": [],
			"name": "usdt",
			"outputs": [
				{
					"internalType": "address",
					"name": "",
					"type": "address"
				}
			],
			"stateMutability": "view",
			"type": "function"
		},
		{
			"stateMutability": "payable",
			"type": "receive"
		}
	]
}