{
	"data": {
		"bytecode": {
			"linkReferences": {},
			"object": "6080604052600b805461ffff1916905534801561001b57600080fd5b506040516127d63803806127d683398101604081905261003a91610155565b338061006057604051631e4fbdf760e01b81526000600482015260240160405180910390fd5b610069816100ed565b5060018055600580546001600160a01b03199081166001600160a01b039a8b1617909155600695909555600793909355600d8054851696881696909617909555600e805484169487169490941790935560028054831693861693909317909255600380548216938516939093179092556004805490921692169190911790556101f2565b600080546001600160a01b038381166001600160a01b0319831681178455604051919092169283917f8be0079c531659141344cd1fd0a4f28419497f9722a3daafe3b4186f6b6457e09190a35050565b6001600160a01b038116811461015257600080fd5b50565b600080600080600080600080610100898b03121561017257600080fd5b885161017d8161013d565b60208a015190985061018e8161013d565b60408a015190975061019f8161013d565b60608a015160808b015160a08c015192985090965094506101bf8161013d565b60c08a01519093506101d08161013d565b60e08a01519092506101e18161013d565b809150509295985092959890939650565b6125d5806102016000396000f3fe6080604052600436106102085760003560e01c80638da5cb5b11610118578063c211e1f9116100a0578063df4e05931161006f578063df4e05931461068e578063e8e87389146106cb578063efdcdb45146106f8578063f2fde38b14610730578063fc0c546a1461075057600080fd5b8063c211e1f91461059e578063c81ffdea14610627578063d1f3b23e14610654578063d3d9d1e41461066e57600080fd5b8063960524e3116100e7578063960524e3146104c657806399131e7e146104db578063a1e89aec146104fb578063b5f522f714610511578063c1560a141461058857600080fd5b80638da5cb5b1461046757806391152c5c1461048557806391d8730a1461049a578063940c333e146104b357600080fd5b80633e413bee1161019b57806363b201171161016a57806363b20117146103f15780636c1909ed14610407578063715018a614610427578063721bc38b1461043c5780637fb120011461045257600080fd5b80633e413bee146103725780633feb5f2b146103925780634dee1dc3146103b257806362a469e9146103d157600080fd5b8063212ea247116101d7578063212ea247146102f85780632151206e1461030d57806323cc75a8146103235780632f48ab7d1461033a57600080fd5b806305834e671461025f57806306e4d36f14610292578063115afc3a146102b8578063117d260f146102d857600080fd5b3661025a5760405162461bcd60e51b815260206004820181905260248201527f44697265637420424e42207472616e7366657273206e6f7420616c6c6f77656460448201526064015b60405180910390fd5b600080fd5b34801561026b57600080fd5b5061027f61027a366004612187565b610770565b6040519081526020015b60405180910390f35b34801561029e57600080fd5b5060065460095410155b6040519015158152602001610289565b3480156102c457600080fd5b5061027f6102d33660046121b1565b61092a565b3480156102e457600080fd5b5061027f6102f3366004612187565b610a8f565b34801561030457600080fd5b5060085461027f565b34801561031957600080fd5b5061027f60065481565b34801561032f57600080fd5b50610338610cc5565b005b34801561034657600080fd5b50600d5461035a906001600160a01b031681565b6040516001600160a01b039091168152602001610289565b34801561037e57600080fd5b50600e5461035a906001600160a01b031681565b34801561039e57600080fd5b5061035a6103ad3660046121d3565b610dbe565b3480156103be57600080fd5b50600b546102a890610100900460ff1681565b3480156103dd57600080fd5b5060035461035a906001600160a01b031681565b3480156103fd57600080fd5b5061027f600a5481565b34801561041357600080fd5b506103386104223660046121ec565b610de8565b34801561043357600080fd5b50610338611010565b34801561044857600080fd5b5061027f60095481565b34801561045e57600080fd5b50610338611022565b34801561047357600080fd5b506000546001600160a01b031661035a565b34801561049157600080fd5b506103386114a2565b3480156104a657600080fd5b50600754600954146102a8565b6103386104c1366004612187565b6116cd565b3480156104d257600080fd5b50600c5461027f565b3480156104e757600080fd5b5060025461035a906001600160a01b031681565b34801561050757600080fd5b5061027f60085481565b34801561051d57600080fd5b5061055e61052c3660046121d3565b600f60205260009081526040902080546001820154600283015460038401546004909401549293919290919060ff1685565b6040805195865260208601949094529284019190915260608301521515608082015260a001610289565b34801561059457600080fd5b5061027f60075481565b3480156105aa57600080fd5b506106126105b93660046121d3565b506008546000908152600f6020908152604091829020825160a081018452815480825260018301549382018490526002830154948201949094526003820154606082015260049091015460ff1615156080909101529091565b60408051928352602083019190915201610289565b34801561063357600080fd5b5061027f61064236600461222f565b60106020526000908152604090205481565b34801561066057600080fd5b50600b546102a89060ff1681565b34801561067a57600080fd5b5060045461035a906001600160a01b031681565b34801561069a57600080fd5b506106be6106a936600461222f565b60136020526000908152604090205460ff1681565b6040516102899190612282565b3480156106d757600080fd5b5061027f6106e636600461222f565b60116020526000908152604090205481565b34801561070457600080fd5b5061027f610713366004612290565b601460209081526000928352604080842090915290825290205481565b34801561073c57600080fd5b5061033861074b36600461222f565b611cfc565b34801561075c57600080fd5b5060055461035a906001600160a01b031681565b6000806402540be4006107828561092a565b61078c91906122d9565b9050600081136107d35760405162461bcd60e51b8152602060048201526012602482015271125b9d985b1a59081c1c9a58d9481999595960721b6044820152606401610251565b60006107de60085490565b6000818152600f6020526040812060028101549293509190808860028111156108095761080961224a565b0361083257670de0b6b3a76400006108218887612309565b61082b9190612320565b90506108fc565b60028860028111156108465761084661224a565b1480610863575060018860028111156108615761086161224a565b145b156108b45760066000610877826012612342565b61088290600a61243c565b61088c908a612309565b9050670de0b6b3a76400006108a18289612309565b6108ab9190612320565b925050506108fc565b60405162461bcd60e51b815260206004820152601a60248201527f556e737570706f72746564207061796d656e74206d6574686f640000000000006044820152606401610251565b600082610911670de0b6b3a764000084612309565b61091b9190612320565b96505050505050505b92915050565b60008082600281111561093f5761093f61224a565b036109be5760025460408051633fabe5a360e21b815290516000926001600160a01b03169163feaf968c9160048083019260a09291908290030181865afa15801561098e573d6000803e3d6000fd5b505050506040513d601f19601f820116820180604052508101906109b29190612462565b50919695505050505050565b60018260028111156109d2576109d261224a565b03610a215760035460408051633fabe5a360e21b815290516000926001600160a01b03169163feaf968c9160048083019260a09291908290030181865afa15801561098e573d6000803e3d6000fd5b6002826002811115610a3557610a3561224a565b036108b4576000600460009054906101000a90046001600160a01b03166001600160a01b031663feaf968c6040518163ffffffff1660e01b815260040160a060405180830381865afa15801561098e573d6000803e3d6000fd5b6000808211610aef5760405162461bcd60e51b815260206004820152602660248201527f546f6b656e20616d6f756e74206d7573742062652067726561746572207468616044820152656e207a65726f60d01b6064820152608401610251565b60006402540be400610b008561092a565b610b0a91906122d9565b905060008113610b515760405162461bcd60e51b8152602060048201526012602482015271125b9d985b1a59081c1c9a58d9481999595960721b6044820152606401610251565b6000610b5c60085490565b905080600003610b9f5760405162461bcd60e51b815260206004820152600e60248201526d4e6f206163746976652073616c6560901b6044820152606401610251565b600d546040516370a0823160e01b81523060048201526000916001600160a01b0316906370a0823190602401602060405180830381865afa158015610be8573d6000803e3d6000fd5b505050506040513d601f19601f82011682018060405250810190610c0c91906124b4565b6000838152600f6020526040812060028101549293509190670de0b6b3a7640000610c37838a612309565b610c419190612320565b90506000808a6002811115610c5857610c5861224a565b03610c815786610c70670de0b6b3a764000084612309565b610c7a9190612320565b905061091b565b60018a6002811115610c9557610c9561224a565b1480610cb2575060028a6002811115610cb057610cb061224a565b145b156108b45786610c7083620f4240612309565b610ccd611d3a565b610cd5611d64565b600b5460ff1615610cf85760405162461bcd60e51b8152600401610251906124cd565b6006546009541015610d725760405162461bcd60e51b815260206004820152603860248201527f43616e6e6f742066696e616c697a653a20536f667420636170206e6f7420726560448201527f6163686564206f722073616c65206973206f6e676f696e6700000000000000006064820152608401610251565b600b805460ff19166001179055610d87611d91565b600a546040517f9c4b134da32aab35252391880a9f2a3c13a760d7817ae8823f2b301d3522045a90600090a2610dbc60018055565b565b600c8181548110610dce57600080fd5b6000918252602090912001546001600160a01b0316905081565b610df0611d64565b600b5460ff1615610e135760405162461bcd60e51b8152600401610251906124cd565b428311610e775760405162461bcd60e51b815260206004820152602c60248201527f53746172742074696d65206d7573742062652067726561746572207468616e2060448201526b63757272656e742074696d6560a01b6064820152608401610251565b828211610ed75760405162461bcd60e51b815260206004820152602860248201527f456e642074696d65206d7573742062652067726561746572207468616e2073746044820152676172742074696d6560c01b6064820152608401610251565b6008546000908152600f60205260409020600101548311610f4f5760405162461bcd60e51b815260206004820152602c60248201527f4e65772073616c65206d75737420737461727420616674657220746865206c6160448201526b73742073616c6520656e647360a01b6064820152608401610251565b60088054906000610f5f836124fc565b90915550506040805160a08101825284815260208082018581528284018581526000606080860182815260808701838152600880548552600f8852938990209751885594516001880155925160028701559151600386015591516004909401805460ff1916941515949094179093555483518781529182018690529281018490527f63b43fa153147ade1de28ed76841cdbc34e510ed94dd1ff5a88e278b0b1ad9ba910160405180910390a2505050565b611018611d64565b610dbc6000612123565b61102a611d3a565b611032611d64565b600b5460ff16156110555760405162461bcd60e51b8152600401610251906124cd565b6008546000908152600f602052604090206001015442116110a75760405162461bcd60e51b815260206004820152600c60248201526b53616c65206f6e676f696e6760a01b6044820152606401610251565b600654600954106110ed5760405162461bcd60e51b815260206004820152601060248201526f14dbd99d0818d85c081c995858da195960821b6044820152606401610251565b600c5460005b8181101561148a576000600c828154811061111057611110612515565b60009182526020822001546001600160a01b031691505b60038160ff1610156114805760008160ff16600281111561114a5761114a61224a565b6001600160a01b038416600090815260146020526040812091925090818360028111156111795761117961224a565b600281111561118a5761118a61224a565b81526020019081526020016000205490506000811115611476576001600160a01b0384166000908152601460205260408120818460028111156111cf576111cf61224a565b60028111156111e0576111e061224a565b815260208101919091526040016000908120919091558260028111156112085761120861224a565b036112aa576000846001600160a01b03168260405160006040518083038185875af1925050503d806000811461125a576040519150601f19603f3d011682016040523d82523d6000602084013e61125f565b606091505b50509050806112a45760405162461bcd60e51b8152602060048201526011602482015270109390881c99599d5b990819985a5b1959607a1b6044820152606401610251565b50611432565b60018260028111156112be576112be61224a565b14806112db575060028260028111156112d9576112d961224a565b145b156113dc57600060018360028111156112f6576112f661224a565b1461130c57600e546001600160a01b0316611319565b600d546001600160a01b03165b60405163a9059cbb60e01b81526001600160a01b038781166004830152602482018590529192509082169063a9059cbb906044016020604051808303816000875af115801561136c573d6000803e3d6000fd5b505050506040513d601f19601f82011682018060405250810190611390919061252b565b6112a45760405162461bcd60e51b815260206004820152601860248201527f537461626c65636f696e20726566756e64206661696c656400000000000000006044820152606401610251565b60405162461bcd60e51b815260206004820152602560248201527f556e737570706f72746564207061796d656e74206d6574686f6420666f72207260448201526419599d5b9960da1b6064820152608401610251565b836001600160a01b03167f03829ab241648d7348f97e4f77d36451330f2276ea8eeb3428e462012f9699e7828460405161146d92919061254d565b60405180910390a25b5050600101611127565b50506001016110f3565b5050600b805460ff19166001179055610dbc60018055565b6114aa611d3a565b6114b2611d64565b600b5460ff16156114d55760405162461bcd60e51b8152600401610251906124cd565b600b54610100900460ff161561152d5760405162461bcd60e51b815260206004820152601960248201527f41697264726f7020616c726561647920636f6d706c65746564000000000000006044820152606401610251565b600c5460005b818110156116b3576000600c828154811061155057611550612515565b60009182526020808320909101546001600160a01b0316808352601190915260409091205490915080156116a9576005546000906001600160a01b03166323b872dd6115a46000546001600160a01b031690565b6040516001600160e01b031960e084901b1681526001600160a01b0391821660048201529086166024820152604481018590526064016020604051808303816000875af11580156115f9573d6000803e3d6000fd5b505050506040513d601f19601f8201168201806040525081019061161d919061252b565b9050806116645760405162461bcd60e51b8152602060048201526015602482015274151bdad95b881d1c985b9cd9995c8819985a5b1959605a1b6044820152606401610251565b826001600160a01b03167f9bdcd0cc5503fb9a8dd7311d9617e33108c4b7c8948cc544b16c1fd63c6f475b8360405161169f91815260200190565b60405180910390a2505b5050600101611533565b5050600b805461ff001916610100179055610dbc60018055565b600b5460ff16156116f05760405162461bcd60e51b8152600401610251906124cd565b6000546001600160a01b0316330361174a5760405162461bcd60e51b815260206004820152601760248201527f4f776e65722063616e6e6f742062757920746f6b656e730000000000000000006044820152606401610251565b6008546000036117865760405162461bcd60e51b81526020600482015260076024820152664e6f2073616c6560c81b6044820152606401610251565b6008546000908152600f602052604090206004015460ff166117e35760405162461bcd60e51b815260206004820152601660248201527514d85b1948185b1c9958591e48199a5b985b1a5e995960521b6044820152606401610251565b6000808360028111156117f8576117f861224a565b036118b7576000341161184d5760405162461bcd60e51b815260206004820152601760248201527f53656e6420612076616c696420424e4220616d6f756e740000000000000000006044820152606401610251565b6118578334610770565b33600090815260146020526040812091925034919085600281111561187e5761187e61224a565b600281111561188f5761188f61224a565b815260200190815260200160002060008282546118ac9190612561565b90915550611aa79050565b60018360028111156118cb576118cb61224a565b14806118e8575060028360028111156118e6576118e661224a565b145b156108b4576000821161193d5760405162461bcd60e51b815260206004820152601f60248201527f456e74657220612076616c696420737461626c65636f696e20616d6f756e74006044820152606401610251565b600060018460028111156119535761195361224a565b1461196957600e546001600160a01b0316611976565b600d546001600160a01b03165b6040516323b872dd60e01b8152336004820152306024820152604481018590529091506001600160a01b038216906323b872dd906064016020604051808303816000875af11580156119cc573d6000803e3d6000fd5b505050506040513d601f19601f820116820180604052508101906119f0919061252b565b611a3c5760405162461bcd60e51b815260206004820152601a60248201527f537461626c65636f696e207472616e73666572206661696c65640000000000006044820152606401610251565b611a468484610770565b336000908152601460205260408120919350849190866002811115611a6d57611a6d61224a565b6002811115611a7e57611a7e61224a565b81526020019081526020016000206000828254611a9b9190612561565b90915550611aa7915050565b60008111611aee5760405162461bcd60e51b8152602060048201526014602482015273125b9d985b1a59081d1bdad95b88185b5bdd5b9d60621b6044820152606401610251565b6008546000908152600f6020526040812060020154670de0b6b3a764000090611b179084612309565b611b219190612320565b905060075481600954611b349190612561565b1115611b755760405162461bcd60e51b815260206004820152601060248201526f12185c990818d85c081c995858da195960821b6044820152606401610251565b3360009081526010602052604081208054839290611b94908490612561565b925050819055508060096000828254611bad9190612561565b90915550506008546000908152600f602052604081206003018054849290611bd6908490612561565b9250508190555081600a6000828254611bef9190612561565b9091555050336000908152601160205260408120549003611c4d57600c80546001810182556000919091527fdf6966c971051c3d54ec59162606531493a51404a002842f56009d7e5cf4a8c70180546001600160a01b031916331790555b3360009081526011602052604081208054849290611c6c908490612561565b9091555050336000908152601360205260409020805485919060ff19166001836002811115611c9d57611c9d61224a565b02179055506008546000818152600f60205260409081902060020154905133917fdbcef474a632721725d49e3f35d9defe0257100b01d1e4b4b135b14d6fe296e891611cee91879189908b90612574565b60405180910390a350505050565b611d04611d64565b6001600160a01b038116611d2e57604051631e4fbdf760e01b815260006004820152602401610251565b611d3781612123565b50565b600260015403611d5d57604051633ee5aeb560e01b815260040160405180910390fd5b6002600155565b6000546001600160a01b03163314610dbc5760405163118cdaa760e01b8152336004820152602401610251565b600d546040516370a0823160e01b81523060048201526000916001600160a01b0316906370a0823190602401602060405180830381865afa158015611dda573d6000803e3d6000fd5b505050506040513d601f19601f82011682018060405250810190611dfe91906124b4565b600e546040516370a0823160e01b815230600482015291925047916000916001600160a01b0316906370a0823190602401602060405180830381865afa158015611e4c573d6000803e3d6000fd5b505050506040513d601f19601f82011682018060405250810190611e7091906124b4565b9050600082118015611e825750600083115b8015611e8e5750600081115b611eda5760405162461bcd60e51b815260206004820152601960248201527f62616c616e636573206d757374206e6f74206265205a65726f000000000000006044820152606401610251565b600080546040516001600160a01b039091169084908381818185875af1925050503d8060008114611f27576040519150601f19603f3d011682016040523d82523d6000602084013e611f2c565b606091505b5050905080611f6f5760405162461bcd60e51b815260206004820152600f60248201526e151c985b9cd9995c8819985a5b1959608a1b6044820152606401610251565b600d546001600160a01b031663a9059cbb611f926000546001600160a01b031690565b6040516001600160e01b031960e084901b1681526001600160a01b039091166004820152602481018790526044016020604051808303816000875af1158015611fdf573d6000803e3d6000fd5b505050506040513d601f19601f82011682018060405250810190612003919061252b565b6120465760405162461bcd60e51b81526020600482015260146024820152731554d115081d1c985b9cd9995c8819985a5b195960621b6044820152606401610251565b600e546001600160a01b031663a9059cbb6120696000546001600160a01b031690565b6040516001600160e01b031960e084901b1681526001600160a01b039091166004820152602481018590526044016020604051808303816000875af11580156120b6573d6000803e3d6000fd5b505050506040513d601f19601f820116820180604052508101906120da919061252b565b61211d5760405162461bcd60e51b81526020600482015260146024820152731554d110c81d1c985b9cd9995c8819985a5b195960621b6044820152606401610251565b50505050565b600080546001600160a01b038381166001600160a01b0319831681178455604051919092169283917f8be0079c531659141344cd1fd0a4f28419497f9722a3daafe3b4186f6b6457e09190a35050565b80356003811061218257600080fd5b919050565b6000806040838503121561219a57600080fd5b6121a383612173565b946020939093013593505050565b6000602082840312156121c357600080fd5b6121cc82612173565b9392505050565b6000602082840312156121e557600080fd5b5035919050565b60008060006060848603121561220157600080fd5b505081359360208301359350604090920135919050565b80356001600160a01b038116811461218257600080fd5b60006020828403121561224157600080fd5b6121cc82612218565b634e487b7160e01b600052602160045260246000fd5b6003811061227e57634e487b7160e01b600052602160045260246000fd5b9052565b602081016109248284612260565b600080604083850312156122a357600080fd5b6122ac83612218565b91506122ba60208401612173565b90509250929050565b634e487b7160e01b600052601160045260246000fd5b80820260008212600160ff1b841416156122f5576122f56122c3565b8181058314821517610924576109246122c3565b8082028115828204841417610924576109246122c3565b60008261233d57634e487b7160e01b600052601260045260246000fd5b500490565b81810381811115610924576109246122c3565b6001815b600184111561239057808504811115612374576123746122c3565b600184161561238257908102905b60019390931c928002612359565b935093915050565b6000826123a757506001610924565b816123b457506000610924565b81600181146123ca57600281146123d4576123f0565b6001915050610924565b60ff8411156123e5576123e56122c3565b50506001821b610924565b5060208310610133831016604e8410600b8410161715612413575081810a610924565b6124206000198484612355565b8060001904821115612434576124346122c3565b029392505050565b60006121cc8383612398565b805169ffffffffffffffffffff8116811461218257600080fd5b600080600080600060a0868803121561247a57600080fd5b61248386612448565b602087015160408801516060890151929750909550935091506124a860808701612448565b90509295509295909350565b6000602082840312156124c657600080fd5b5051919050565b6020808252601590820152741250d3c8185b1c9958591e48199a5b985b1a5e9959605a1b604082015260600190565b60006001820161250e5761250e6122c3565b5060010190565b634e487b7160e01b600052603260045260246000fd5b60006020828403121561253d57600080fd5b815180151581146121cc57600080fd5b828152604081016121cc6020830184612260565b80820180821115610924576109246122c3565b8481526020810184905260408101839052608081016125966060830184612260565b9594505050505056fea264697066735822122097fdccc1a6ae84938e4f33af1e10e8f4f1b5500b38e2900d7a9818a41fe1349164736f6c634300081a0033",
			"opcodes": "PUSH1 0x80 PUSH1 0x40 MSTORE PUSH1 0xB DUP1 SLOAD PUSH2 0xFFFF NOT AND SWAP1 SSTORE CALLVALUE DUP1 ISZERO PUSH2 0x1B JUMPI PUSH1 0x0 DUP1 REVERT JUMPDEST POP PUSH1 0x40 MLOAD PUSH2 0x27D6 CODESIZE SUB DUP1 PUSH2 0x27D6 DUP4 CODECOPY DUP2 ADD PUSH1 0x40 DUP2 SWAP1 MSTORE PUSH2 0x3A SWAP2 PUSH2 0x155 JUMP JUMPDEST CALLER DUP1 PUSH2 0x60 JUMPI PUSH1 0x40 MLOAD PUSH4 0x1E4FBDF7 PUSH1 0xE0 SHL DUP2 MSTORE PUSH1 0x0 PUSH1 0x4 DUP3 ADD MSTORE PUSH1 0x24 ADD PUSH1 0x40 MLOAD DUP1 SWAP2 SUB SWAP1 REVERT JUMPDEST PUSH2 0x69 DUP2 PUSH2 0xED JUMP JUMPDEST POP PUSH1 0x1 DUP1 SSTORE PUSH1 0x5 DUP1 SLOAD PUSH1 0x1 PUSH1 0x1 PUSH1 0xA0 SHL SUB NOT SWAP1 DUP2 AND PUSH1 0x1 PUSH1 0x1 PUSH1 0xA0 SHL SUB SWAP11 DUP12 AND OR SWAP1 SWAP2 SSTORE PUSH1 0x6 SWAP6 SWAP1 SWAP6 SSTORE PUSH1 0x7 SWAP4 SWAP1 SWAP4 SSTORE PUSH1 0xD DUP1 SLOAD DUP6 AND SWAP7 DUP9 AND SWAP7 SWAP1 SWAP7 OR SWAP1 SWAP6 SSTORE PUSH1 0xE DUP1 SLOAD DUP5 AND SWAP5 DUP8 AND SWAP5 SWAP1 SWAP5 OR SWAP1 SWAP4 SSTORE PUSH1 0x2 DUP1 SLOAD DUP4 AND SWAP4 DUP7 AND SWAP4 SWAP1 SWAP4 OR SWAP1 SWAP3 SSTORE PUSH1 0x3 DUP1 SLOAD DUP3 AND SWAP4 DUP6 AND SWAP4 SWAP1 SWAP4 OR SWAP1 SWAP3 SSTORE PUSH1 0x4 DUP1 SLOAD SWAP1 SWAP3 AND SWAP3 AND SWAP2 SWAP1 SWAP2 OR SWAP1 SSTORE PUSH2 0x1F2 JUMP JUMPDEST PUSH1 0x0 DUP1 SLOAD PUSH1 0x1 PUSH1 0x1 PUSH1 0xA0 SHL SUB DUP4 DUP2 AND PUSH1 0x1 PUSH1 0x1 PUSH1 0xA0 SHL SUB NOT DUP4 AND DUP2 OR DUP5 SSTORE PUSH1 0x40 MLOAD SWAP2 SWAP1 SWAP3 AND SWAP3 DUP4 SWAP2 PUSH32 0x8BE0079C531659141344CD1FD0A4F28419497F9722A3DAAFE3B4186F6B6457E0 SWAP2 SWAP1 LOG3 POP POP JUMP JUMPDEST PUSH1 0x1 PUSH1 0x1 PUSH1 0xA0 SHL SUB DUP2 AND DUP2 EQ PUSH2 0x152 JUMPI PUSH1 0x0 DUP1 REVERT JUMPDEST POP JUMP JUMPDEST PUSH1 0x0 DUP1 PUSH1 0x0 DUP1 PUSH1 0x0 DUP1 PUSH1 0x0 DUP1 PUSH2 0x100 DUP10 DUP12 SUB SLT ISZERO PUSH2 0x172 JUMPI PUSH1 0x0 DUP1 REVERT JUMPDEST DUP9 MLOAD PUSH2 0x17D DUP2 PUSH2 0x13D JUMP JUMPDEST PUSH1 0x20 DUP11 ADD MLOAD SWAP1 SWAP9 POP PUSH2 0x18E DUP2 PUSH2 0x13D JUMP JUMPDEST PUSH1 0x40 DUP11 ADD MLOAD SWAP1 SWAP8 POP PUSH2 0x19F DUP2 PUSH2 0x13D JUMP JUMPDEST PUSH1 0x60 DUP11 ADD MLOAD PUSH1 0x80 DUP12 ADD MLOAD PUSH1 0xA0 DUP13 ADD MLOAD SWAP3 SWAP9 POP SWAP1 SWAP7 POP SWAP5 POP PUSH2 0x1BF DUP2 PUSH2 0x13D JUMP JUMPDEST PUSH1 0xC0 DUP11 ADD MLOAD SWAP1 SWAP4 POP PUSH2 0x1D0 DUP2 PUSH2 0x13D JUMP JUMPDEST PUSH1 0xE0 DUP11 ADD MLOAD SWAP1 SWAP3 POP PUSH2 0x1E1 DUP2 PUSH2 0x13D JUMP JUMPDEST DUP1 SWAP2 POP POP SWAP3 SWAP6 SWAP9 POP SWAP3 SWAP6 SWAP9 SWAP1 SWAP4 SWAP7 POP JUMP JUMPDEST PUSH2 0x25D5 DUP1 PUSH2 0x201 PUSH1 0x0 CODECOPY PUSH1 0x0 RETURN INVALID PUSH1 0x80 PUSH1 0x40 MSTORE PUSH1 0x4 CALLDATASIZE LT PUSH2 0x208 JUMPI PUSH1 0x0 CALLDATALOAD PUSH1 0xE0 SHR DUP1 PUSH4 0x8DA5CB5B GT PUSH2 0x118 JUMPI DUP1 PUSH4 0xC211E1F9 GT PUSH2 0xA0 JUMPI DUP1 PUSH4 0xDF4E0593 GT PUSH2 0x6F JUMPI DUP1 PUSH4 0xDF4E0593 EQ PUSH2 0x68E JUMPI DUP1 PUSH4 0xE8E87389 EQ PUSH2 0x6CB JUMPI DUP1 PUSH4 0xEFDCDB45 EQ PUSH2 0x6F8 JUMPI DUP1 PUSH4 0xF2FDE38B EQ PUSH2 0x730 JUMPI DUP1 PUSH4 0xFC0C546A EQ PUSH2 0x750 JUMPI PUSH1 0x0 DUP1 REVERT JUMPDEST DUP1 PUSH4 0xC211E1F9 EQ PUSH2 0x59E JUMPI DUP1 PUSH4 0xC81FFDEA EQ PUSH2 0x627 JUMPI DUP1 PUSH4 0xD1F3B23E EQ PUSH2 0x654 JUMPI DUP1 PUSH4 0xD3D9D1E4 EQ PUSH2 0x66E JUMPI PUSH1 0x0 DUP1 REVERT JUMPDEST DUP1 PUSH4 0x960524E3 GT PUSH2 0xE7 JUMPI DUP1 PUSH4 0x960524E3 EQ PUSH2 0x4C6 JUMPI DUP1 PUSH4 0x99131E7E EQ PUSH2 0x4DB JUMPI DUP1 PUSH4 0xA1E89AEC EQ PUSH2 0x4FB JUMPI DUP1 PUSH4 0xB5F522F7 EQ PUSH2 0x511 JUMPI DUP1 PUSH4 0xC1560A14 EQ PUSH2 0x588 JUMPI PUSH1 0x0 DUP1 REVERT JUMPDEST DUP1 PUSH4 0x8DA5CB5B EQ PUSH2 0x467 JUMPI DUP1 PUSH4 0x91152C5C EQ PUSH2 0x485 JUMPI DUP1 PUSH4 0x91D8730A EQ PUSH2 0x49A JUMPI DUP1 PUSH4 0x940C333E EQ PUSH2 0x4B3 JUMPI PUSH1 0x0 DUP1 REVERT JUMPDEST DUP1 PUSH4 0x3E413BEE GT PUSH2 0x19B JUMPI DUP1 PUSH4 0x63B20117 GT PUSH2 0x16A JUMPI DUP1 PUSH4 0x63B20117 EQ PUSH2 0x3F1 JUMPI DUP1 PUSH4 0x6C1909ED EQ PUSH2 0x407 JUMPI DUP1 PUSH4 0x715018A6 EQ PUSH2 0x427 JUMPI DUP1 PUSH4 0x721BC38B EQ PUSH2 0x43C JUMPI DUP1 PUSH4 0x7FB12001 EQ PUSH2 0x452 JUMPI PUSH1 0x0 DUP1 REVERT JUMPDEST DUP1 PUSH4 0x3E413BEE EQ PUSH2 0x372 JUMPI DUP1 PUSH4 0x3FEB5F2B EQ PUSH2 0x392 JUMPI DUP1 PUSH4 0x4DEE1DC3 EQ PUSH2 0x3B2 JUMPI DUP1 PUSH4 0x62A469E9 EQ PUSH2 0x3D1 JUMPI PUSH1 0x0 DUP1 REVERT JUMPDEST DUP1 PUSH4 0x212EA247 GT PUSH2 0x1D7 JUMPI DUP1 PUSH4 0x212EA247 EQ PUSH2 0x2F8 JUMPI DUP1 PUSH4 0x2151206E EQ PUSH2 0x30D JUMPI DUP1 PUSH4 0x23CC75A8 EQ PUSH2 0x323 JUMPI DUP1 PUSH4 0x2F48AB7D EQ PUSH2 0x33A JUMPI PUSH1 0x0 DUP1 REVERT JUMPDEST DUP1 PUSH4 0x5834E67 EQ PUSH2 0x25F JUMPI DUP1 PUSH4 0x6E4D36F EQ PUSH2 0x292 JUMPI DUP1 PUSH4 0x115AFC3A EQ PUSH2 0x2B8 JUMPI DUP1 PUSH4 0x117D260F EQ PUSH2 0x2D8 JUMPI PUSH1 0x0 DUP1 REVERT JUMPDEST CALLDATASIZE PUSH2 0x25A JUMPI PUSH1 0x40 MLOAD PUSH3 0x461BCD PUSH1 0xE5 SHL DUP2 MSTORE PUSH1 0x20 PUSH1 0x4 DUP3 ADD DUP2 SWAP1 MSTORE PUSH1 0x24 DUP3 ADD MSTORE PUSH32 0x44697265637420424E42207472616E7366657273206E6F7420616C6C6F776564 PUSH1 0x44 DUP3 ADD MSTORE PUSH1 0x64 ADD JUMPDEST PUSH1 0x40 MLOAD DUP1 SWAP2 SUB SWAP1 REVERT JUMPDEST PUSH1 0x0 DUP1 REVERT JUMPDEST CALLVALUE DUP1 ISZERO PUSH2 0x26B JUMPI PUSH1 0x0 DUP1 REVERT JUMPDEST POP PUSH2 0x27F PUSH2 0x27A CALLDATASIZE PUSH1 0x4 PUSH2 0x2187 JUMP JUMPDEST PUSH2 0x770 JUMP JUMPDEST PUSH1 0x40 MLOAD SWAP1 DUP2 MSTORE PUSH1 0x20 ADD JUMPDEST PUSH1 0x40 MLOAD DUP1 SWAP2 SUB SWAP1 RETURN JUMPDEST CALLVALUE DUP1 ISZERO PUSH2 0x29E JUMPI PUSH1 0x0 DUP1 REVERT JUMPDEST POP PUSH1 0x6 SLOAD PUSH1 0x9 SLOAD LT ISZERO JUMPDEST PUSH1 0x40 MLOAD SWAP1 ISZERO ISZERO DUP2 MSTORE PUSH1 0x20 ADD PUSH2 0x289 JUMP JUMPDEST CALLVALUE DUP1 ISZERO PUSH2 0x2C4 JUMPI PUSH1 0x0 DUP1 REVERT JUMPDEST POP PUSH2 0x27F PUSH2 0x2D3 CALLDATASIZE PUSH1 0x4 PUSH2 0x21B1 JUMP JUMPDEST PUSH2 0x92A JUMP JUMPDEST CALLVALUE DUP1 ISZERO PUSH2 0x2E4 JUMPI PUSH1 0x0 DUP1 REVERT JUMPDEST POP PUSH2 0x27F PUSH2 0x2F3 CALLDATASIZE PUSH1 0x4 PUSH2 0x2187 JUMP JUMPDEST PUSH2 0xA8F JUMP JUMPDEST CALLVALUE DUP1 ISZERO PUSH2 0x304 JUMPI PUSH1 0x0 DUP1 REVERT JUMPDEST POP PUSH1 0x8 SLOAD PUSH2 0x27F JUMP JUMPDEST CALLVALUE DUP1 ISZERO PUSH2 0x319 JUMPI PUSH1 0x0 DUP1 REVERT JUMPDEST POP PUSH2 0x27F PUSH1 0x6 SLOAD DUP2 JUMP JUMPDEST CALLVALUE DUP1 ISZERO PUSH2 0x32F JUMPI PUSH1 0x0 DUP1 REVERT JUMPDEST POP PUSH2 0x338 PUSH2 0xCC5 JUMP JUMPDEST STOP JUMPDEST CALLVALUE DUP1 ISZERO PUSH2 0x346 JUMPI PUSH1 0x0 DUP1 REVERT JUMPDEST POP PUSH1 0xD SLOAD PUSH2 0x35A SWAP1 PUSH1 0x1 PUSH1 0x1 PUSH1 0xA0 SHL SUB AND DUP2 JUMP JUMPDEST PUSH1 0x40 MLOAD PUSH1 0x1 PUSH1 0x1 PUSH1 0xA0 SHL SUB SWAP1 SWAP2 AND DUP2 MSTORE PUSH1 0x20 ADD PUSH2 0x289 JUMP JUMPDEST CALLVALUE DUP1 ISZERO PUSH2 0x37E JUMPI PUSH1 0x0 DUP1 REVERT JUMPDEST POP PUSH1 0xE SLOAD PUSH2 0x35A SWAP1 PUSH1 0x1 PUSH1 0x1 PUSH1 0xA0 SHL SUB AND DUP2 JUMP JUMPDEST CALLVALUE DUP1 ISZERO PUSH2 0x39E JUMPI PUSH1 0x0 DUP1 REVERT JUMPDEST POP PUSH2 0x35A PUSH2 0x3AD CALLDATASIZE PUSH1 0x4 PUSH2 0x21D3 JUMP JUMPDEST PUSH2 0xDBE JUMP JUMPDEST CALLVALUE DUP1 ISZERO PUSH2 0x3BE JUMPI PUSH1 0x0 DUP1 REVERT JUMPDEST POP PUSH1 0xB SLOAD PUSH2 0x2A8 SWAP1 PUSH2 0x100 SWAP1 DIV PUSH1 0xFF AND DUP2 JUMP JUMPDEST CALLVALUE DUP1 ISZERO PUSH2 0x3DD JUMPI PUSH1 0x0 DUP1 REVERT JUMPDEST POP PUSH1 0x3 SLOAD PUSH2 0x35A SWAP1 PUSH1 0x1 PUSH1 0x1 PUSH1 0xA0 SHL SUB AND DUP2 JUMP JUMPDEST CALLVALUE DUP1 ISZERO PUSH2 0x3FD JUMPI PUSH1 0x0 DUP1 REVERT JUMPDEST POP PUSH2 0x27F PUSH1 0xA SLOAD DUP2 JUMP JUMPDEST CALLVALUE DUP1 ISZERO PUSH2 0x413 JUMPI PUSH1 0x0 DUP1 REVERT JUMPDEST POP PUSH2 0x338 PUSH2 0x422 CALLDATASIZE PUSH1 0x4 PUSH2 0x21EC JUMP JUMPDEST PUSH2 0xDE8 JUMP JUMPDEST CALLVALUE DUP1 ISZERO PUSH2 0x433 JUMPI PUSH1 0x0 DUP1 REVERT JUMPDEST POP PUSH2 0x338 PUSH2 0x1010 JUMP JUMPDEST CALLVALUE DUP1 ISZERO PUSH2 0x448 JUMPI PUSH1 0x0 DUP1 REVERT JUMPDEST POP PUSH2 0x27F PUSH1 0x9 SLOAD DUP2 JUMP JUMPDEST CALLVALUE DUP1 ISZERO PUSH2 0x45E JUMPI PUSH1 0x0 DUP1 REVERT JUMPDEST POP PUSH2 0x338 PUSH2 0x1022 JUMP JUMPDEST CALLVALUE DUP1 ISZERO PUSH2 0x473 JUMPI PUSH1 0x0 DUP1 REVERT JUMPDEST POP PUSH1 0x0 SLOAD PUSH1 0x1 PUSH1 0x1 PUSH1 0xA0 SHL SUB AND PUSH2 0x35A JUMP JUMPDEST CALLVALUE DUP1 ISZERO PUSH2 0x491 JUMPI PUSH1 0x0 DUP1 REVERT JUMPDEST POP PUSH2 0x338 PUSH2 0x14A2 JUMP JUMPDEST CALLVALUE DUP1 ISZERO PUSH2 0x4A6 JUMPI PUSH1 0x0 DUP1 REVERT JUMPDEST POP PUSH1 0x7 SLOAD PUSH1 0x9 SLOAD EQ PUSH2 0x2A8 JUMP JUMPDEST PUSH2 0x338 PUSH2 0x4C1 CALLDATASIZE PUSH1 0x4 PUSH2 0x2187 JUMP JUMPDEST PUSH2 0x16CD JUMP JUMPDEST CALLVALUE DUP1 ISZERO PUSH2 0x4D2 JUMPI PUSH1 0x0 DUP1 REVERT JUMPDEST POP PUSH1 0xC SLOAD PUSH2 0x27F JUMP JUMPDEST CALLVALUE DUP1 ISZERO PUSH2 0x4E7 JUMPI PUSH1 0x0 DUP1 REVERT JUMPDEST POP PUSH1 0x2 SLOAD PUSH2 0x35A SWAP1 PUSH1 0x1 PUSH1 0x1 PUSH1 0xA0 SHL SUB AND DUP2 JUMP JUMPDEST CALLVALUE DUP1 ISZERO PUSH2 0x507 JUMPI PUSH1 0x0 DUP1 REVERT JUMPDEST POP PUSH2 0x27F PUSH1 0x8 SLOAD DUP2 JUMP JUMPDEST CALLVALUE DUP1 ISZERO PUSH2 0x51D JUMPI PUSH1 0x0 DUP1 REVERT JUMPDEST POP PUSH2 0x55E PUSH2 0x52C CALLDATASIZE PUSH1 0x4 PUSH2 0x21D3 JUMP JUMPDEST PUSH1 0xF PUSH1 0x20 MSTORE PUSH1 0x0 SWAP1 DUP2 MSTORE PUSH1 0x40 SWAP1 KECCAK256 DUP1 SLOAD PUSH1 0x1 DUP3 ADD SLOAD PUSH1 0x2 DUP4 ADD SLOAD PUSH1 0x3 DUP5 ADD SLOAD PUSH1 0x4 SWAP1 SWAP5 ADD SLOAD SWAP3 SWAP4 SWAP2 SWAP3 SWAP1 SWAP2 SWAP1 PUSH1 0xFF AND DUP6 JUMP JUMPDEST PUSH1 0x40 DUP1 MLOAD SWAP6 DUP7 MSTORE PUSH1 0x20 DUP7 ADD SWAP5 SWAP1 SWAP5 MSTORE SWAP3 DUP5 ADD SWAP2 SWAP1 SWAP2 MSTORE PUSH1 0x60 DUP4 ADD MSTORE ISZERO ISZERO PUSH1 0x80 DUP3 ADD MSTORE PUSH1 0xA0 ADD PUSH2 0x289 JUMP JUMPDEST CALLVALUE DUP1 ISZERO PUSH2 0x594 JUMPI PUSH1 0x0 DUP1 REVERT JUMPDEST POP PUSH2 0x27F PUSH1 0x7 SLOAD DUP2 JUMP JUMPDEST CALLVALUE DUP1 ISZERO PUSH2 0x5AA JUMPI PUSH1 0x0 DUP1 REVERT JUMPDEST POP PUSH2 0x612 PUSH2 0x5B9 CALLDATASIZE PUSH1 0x4 PUSH2 0x21D3 JUMP JUMPDEST POP PUSH1 0x8 SLOAD PUSH1 0x0 SWAP1 DUP2 MSTORE PUSH1 0xF PUSH1 0x20 SWAP1 DUP2 MSTORE PUSH1 0x40 SWAP2 DUP3 SWAP1 KECCAK256 DUP3 MLOAD PUSH1 0xA0 DUP2 ADD DUP5 MSTORE DUP2 SLOAD DUP1 DUP3 MSTORE PUSH1 0x1 DUP4 ADD SLOAD SWAP4 DUP3 ADD DUP5 SWAP1 MSTORE PUSH1 0x2 DUP4 ADD SLOAD SWAP5 DUP3 ADD SWAP5 SWAP1 SWAP5 MSTORE PUSH1 0x3 DUP3 ADD SLOAD PUSH1 0x60 DUP3 ADD MSTORE PUSH1 0x4 SWAP1 SWAP2 ADD SLOAD PUSH1 0xFF AND ISZERO ISZERO PUSH1 0x80 SWAP1 SWAP2 ADD MSTORE SWAP1 SWAP2 JUMP JUMPDEST PUSH1 0x40 DUP1 MLOAD SWAP3 DUP4 MSTORE PUSH1 0x20 DUP4 ADD SWAP2 SWAP1 SWAP2 MSTORE ADD PUSH2 0x289 JUMP JUMPDEST CALLVALUE DUP1 ISZERO PUSH2 0x633 JUMPI PUSH1 0x0 DUP1 REVERT JUMPDEST POP PUSH2 0x27F PUSH2 0x642 CALLDATASIZE PUSH1 0x4 PUSH2 0x222F JUMP JUMPDEST PUSH1 0x10 PUSH1 0x20 MSTORE PUSH1 0x0 SWAP1 DUP2 MSTORE PUSH1 0x40 SWAP1 KECCAK256 SLOAD DUP2 JUMP JUMPDEST CALLVALUE DUP1 ISZERO PUSH2 0x660 JUMPI PUSH1 0x0 DUP1 REVERT JUMPDEST POP PUSH1 0xB SLOAD PUSH2 0x2A8 SWAP1 PUSH1 0xFF AND DUP2 JUMP JUMPDEST CALLVALUE DUP1 ISZERO PUSH2 0x67A JUMPI PUSH1 0x0 DUP1 REVERT JUMPDEST POP PUSH1 0x4 SLOAD PUSH2 0x35A SWAP1 PUSH1 0x1 PUSH1 0x1 PUSH1 0xA0 SHL SUB AND DUP2 JUMP JUMPDEST CALLVALUE DUP1 ISZERO PUSH2 0x69A JUMPI PUSH1 0x0 DUP1 REVERT JUMPDEST POP PUSH2 0x6BE PUSH2 0x6A9 CALLDATASIZE PUSH1 0x4 PUSH2 0x222F JUMP JUMPDEST PUSH1 0x13 PUSH1 0x20 MSTORE PUSH1 0x0 SWAP1 DUP2 MSTORE PUSH1 0x40 SWAP1 KECCAK256 SLOAD PUSH1 0xFF AND DUP2 JUMP JUMPDEST PUSH1 0x40 MLOAD PUSH2 0x289 SWAP2 SWAP1 PUSH2 0x2282 JUMP JUMPDEST CALLVALUE DUP1 ISZERO PUSH2 0x6D7 JUMPI PUSH1 0x0 DUP1 REVERT JUMPDEST POP PUSH2 0x27F PUSH2 0x6E6 CALLDATASIZE PUSH1 0x4 PUSH2 0x222F JUMP JUMPDEST PUSH1 0x11 PUSH1 0x20 MSTORE PUSH1 0x0 SWAP1 DUP2 MSTORE PUSH1 0x40 SWAP1 KECCAK256 SLOAD DUP2 JUMP JUMPDEST CALLVALUE DUP1 ISZERO PUSH2 0x704 JUMPI PUSH1 0x0 DUP1 REVERT JUMPDEST POP PUSH2 0x27F PUSH2 0x713 CALLDATASIZE PUSH1 0x4 PUSH2 0x2290 JUMP JUMPDEST PUSH1 0x14 PUSH1 0x20 SWAP1 DUP2 MSTORE PUSH1 0x0 SWAP3 DUP4 MSTORE PUSH1 0x40 DUP1 DUP5 KECCAK256 SWAP1 SWAP2 MSTORE SWAP1 DUP3 MSTORE SWAP1 KECCAK256 SLOAD DUP2 JUMP JUMPDEST CALLVALUE DUP1 ISZERO PUSH2 0x73C JUMPI PUSH1 0x0 DUP1 REVERT JUMPDEST POP PUSH2 0x338 PUSH2 0x74B CALLDATASIZE PUSH1 0x4 PUSH2 0x222F JUMP JUMPDEST PUSH2 0x1CFC JUMP JUMPDEST CALLVALUE DUP1 ISZERO PUSH2 0x75C JUMPI PUSH1 0x0 DUP1 REVERT JUMPDEST POP PUSH1 0x5 SLOAD PUSH2 0x35A SWAP1 PUSH1 0x1 PUSH1 0x1 PUSH1 0xA0 SHL SUB AND DUP2 JUMP JUMPDEST PUSH1 0x0 DUP1 PUSH5 0x2540BE400 PUSH2 0x782 DUP6 PUSH2 0x92A JUMP JUMPDEST PUSH2 0x78C SWAP2 SWAP1 PUSH2 0x22D9 JUMP JUMPDEST SWAP1 POP PUSH1 0x0 DUP2 SGT PUSH2 0x7D3 JUMPI PUSH1 0x40 MLOAD PUSH3 0x461BCD PUSH1 0xE5 SHL DUP2 MSTORE PUSH1 0x20 PUSH1 0x4 DUP3 ADD MSTORE PUSH1 0x12 PUSH1 0x24 DUP3 ADD MSTORE PUSH18 0x125B9D985B1A59081C1C9A58D94819995959 PUSH1 0x72 SHL PUSH1 0x44 DUP3 ADD MSTORE PUSH1 0x64 ADD PUSH2 0x251 JUMP JUMPDEST PUSH1 0x0 PUSH2 0x7DE PUSH1 0x8 SLOAD SWAP1 JUMP JUMPDEST PUSH1 0x0 DUP2 DUP2 MSTORE PUSH1 0xF PUSH1 0x20 MSTORE PUSH1 0x40 DUP2 KECCAK256 PUSH1 0x2 DUP2 ADD SLOAD SWAP3 SWAP4 POP SWAP2 SWAP1 DUP1 DUP9 PUSH1 0x2 DUP2 GT ISZERO PUSH2 0x809 JUMPI PUSH2 0x809 PUSH2 0x224A JUMP JUMPDEST SUB PUSH2 0x832 JUMPI PUSH8 0xDE0B6B3A7640000 PUSH2 0x821 DUP9 DUP8 PUSH2 0x2309 JUMP JUMPDEST PUSH2 0x82B SWAP2 SWAP1 PUSH2 0x2320 JUMP JUMPDEST SWAP1 POP PUSH2 0x8FC JUMP JUMPDEST PUSH1 0x2 DUP9 PUSH1 0x2 DUP2 GT ISZERO PUSH2 0x846 JUMPI PUSH2 0x846 PUSH2 0x224A JUMP JUMPDEST EQ DUP1 PUSH2 0x863 JUMPI POP PUSH1 0x1 DUP9 PUSH1 0x2 DUP2 GT ISZERO PUSH2 0x861 JUMPI PUSH2 0x861 PUSH2 0x224A JUMP JUMPDEST EQ JUMPDEST ISZERO PUSH2 0x8B4 JUMPI PUSH1 0x6 PUSH1 0x0 PUSH2 0x877 DUP3 PUSH1 0x12 PUSH2 0x2342 JUMP JUMPDEST PUSH2 0x882 SWAP1 PUSH1 0xA PUSH2 0x243C JUMP JUMPDEST PUSH2 0x88C SWAP1 DUP11 PUSH2 0x2309 JUMP JUMPDEST SWAP1 POP PUSH8 0xDE0B6B3A7640000 PUSH2 0x8A1 DUP3 DUP10 PUSH2 0x2309 JUMP JUMPDEST PUSH2 0x8AB SWAP2 SWAP1 PUSH2 0x2320 JUMP JUMPDEST SWAP3 POP POP POP PUSH2 0x8FC JUMP JUMPDEST PUSH1 0x40 MLOAD PUSH3 0x461BCD PUSH1 0xE5 SHL DUP2 MSTORE PUSH1 0x20 PUSH1 0x4 DUP3 ADD MSTORE PUSH1 0x1A PUSH1 0x24 DUP3 ADD MSTORE PUSH32 0x556E737570706F72746564207061796D656E74206D6574686F64000000000000 PUSH1 0x44 DUP3 ADD MSTORE PUSH1 0x64 ADD PUSH2 0x251 JUMP JUMPDEST PUSH1 0x0 DUP3 PUSH2 0x911 PUSH8 0xDE0B6B3A7640000 DUP5 PUSH2 0x2309 JUMP JUMPDEST PUSH2 0x91B SWAP2 SWAP1 PUSH2 0x2320 JUMP JUMPDEST SWAP7 POP POP POP POP POP POP POP JUMPDEST SWAP3 SWAP2 POP POP JUMP JUMPDEST PUSH1 0x0 DUP1 DUP3 PUSH1 0x2 DUP2 GT ISZERO PUSH2 0x93F JUMPI PUSH2 0x93F PUSH2 0x224A JUMP JUMPDEST SUB PUSH2 0x9BE JUMPI PUSH1 0x2 SLOAD PUSH1 0x40 DUP1 MLOAD PUSH4 0x3FABE5A3 PUSH1 0xE2 SHL DUP2 MSTORE SWAP1 MLOAD PUSH1 0x0 SWAP3 PUSH1 0x1 PUSH1 0x1 PUSH1 0xA0 SHL SUB AND SWAP2 PUSH4 0xFEAF968C SWAP2 PUSH1 0x4 DUP1 DUP4 ADD SWAP3 PUSH1 0xA0 SWAP3 SWAP2 SWAP1 DUP3 SWAP1 SUB ADD DUP2 DUP7 GAS STATICCALL ISZERO DUP1 ISZERO PUSH2 0x98E JUMPI RETURNDATASIZE PUSH1 0x0 DUP1 RETURNDATACOPY RETURNDATASIZE PUSH1 0x0 REVERT JUMPDEST POP POP POP POP PUSH1 0x40 MLOAD RETURNDATASIZE PUSH1 0x1F NOT PUSH1 0x1F DUP3 ADD AND DUP3 ADD DUP1 PUSH1 0x40 MSTORE POP DUP2 ADD SWAP1 PUSH2 0x9B2 SWAP2 SWAP1 PUSH2 0x2462 JUMP JUMPDEST POP SWAP2 SWAP7 SWAP6 POP POP POP POP POP POP JUMP JUMPDEST PUSH1 0x1 DUP3 PUSH1 0x2 DUP2 GT ISZERO PUSH2 0x9D2 JUMPI PUSH2 0x9D2 PUSH2 0x224A JUMP JUMPDEST SUB PUSH2 0xA21 JUMPI PUSH1 0x3 SLOAD PUSH1 0x40 DUP1 MLOAD PUSH4 0x3FABE5A3 PUSH1 0xE2 SHL DUP2 MSTORE SWAP1 MLOAD PUSH1 0x0 SWAP3 PUSH1 0x1 PUSH1 0x1 PUSH1 0xA0 SHL SUB AND SWAP2 PUSH4 0xFEAF968C SWAP2 PUSH1 0x4 DUP1 DUP4 ADD SWAP3 PUSH1 0xA0 SWAP3 SWAP2 SWAP1 DUP3 SWAP1 SUB ADD DUP2 DUP7 GAS STATICCALL ISZERO DUP1 ISZERO PUSH2 0x98E JUMPI RETURNDATASIZE PUSH1 0x0 DUP1 RETURNDATACOPY RETURNDATASIZE PUSH1 0x0 REVERT JUMPDEST PUSH1 0x2 DUP3 PUSH1 0x2 DUP2 GT ISZERO PUSH2 0xA35 JUMPI PUSH2 0xA35 PUSH2 0x224A JUMP JUMPDEST SUB PUSH2 0x8B4 JUMPI PUSH1 0x0 PUSH1 0x4 PUSH1 0x0 SWAP1 SLOAD SWAP1 PUSH2 0x100 EXP SWAP1 DIV PUSH1 0x1 PUSH1 0x1 PUSH1 0xA0 SHL SUB AND PUSH1 0x1 PUSH1 0x1 PUSH1 0xA0 SHL SUB AND PUSH4 0xFEAF968C PUSH1 0x40 MLOAD DUP2 PUSH4 0xFFFFFFFF AND PUSH1 0xE0 SHL DUP2 MSTORE PUSH1 0x4 ADD PUSH1 0xA0 PUSH1 0x40 MLOAD DUP1 DUP4 SUB DUP2 DUP7 GAS STATICCALL ISZERO DUP1 ISZERO PUSH2 0x98E JUMPI RETURNDATASIZE PUSH1 0x0 DUP1 RETURNDATACOPY RETURNDATASIZE PUSH1 0x0 REVERT JUMPDEST PUSH1 0x0 DUP1 DUP3 GT PUSH2 0xAEF JUMPI PUSH1 0x40 MLOAD PUSH3 0x461BCD PUSH1 0xE5 SHL DUP2 MSTORE PUSH1 0x20 PUSH1 0x4 DUP3 ADD MSTORE PUSH1 0x26 PUSH1 0x24 DUP3 ADD MSTORE PUSH32 0x546F6B656E20616D6F756E74206D757374206265206772656174657220746861 PUSH1 0x44 DUP3 ADD MSTORE PUSH6 0x6E207A65726F PUSH1 0xD0 SHL PUSH1 0x64 DUP3 ADD MSTORE PUSH1 0x84 ADD PUSH2 0x251 JUMP JUMPDEST PUSH1 0x0 PUSH5 0x2540BE400 PUSH2 0xB00 DUP6 PUSH2 0x92A JUMP JUMPDEST PUSH2 0xB0A SWAP2 SWAP1 PUSH2 0x22D9 JUMP JUMPDEST SWAP1 POP PUSH1 0x0 DUP2 SGT PUSH2 0xB51 JUMPI PUSH1 0x40 MLOAD PUSH3 0x461BCD PUSH1 0xE5 SHL DUP2 MSTORE PUSH1 0x20 PUSH1 0x4 DUP3 ADD MSTORE PUSH1 0x12 PUSH1 0x24 DUP3 ADD MSTORE PUSH18 0x125B9D985B1A59081C1C9A58D94819995959 PUSH1 0x72 SHL PUSH1 0x44 DUP3 ADD MSTORE PUSH1 0x64 ADD PUSH2 0x251 JUMP JUMPDEST PUSH1 0x0 PUSH2 0xB5C PUSH1 0x8 SLOAD SWAP1 JUMP JUMPDEST SWAP1 POP DUP1 PUSH1 0x0 SUB PUSH2 0xB9F JUMPI PUSH1 0x40 MLOAD PUSH3 0x461BCD PUSH1 0xE5 SHL DUP2 MSTORE PUSH1 0x20 PUSH1 0x4 DUP3 ADD MSTORE PUSH1 0xE PUSH1 0x24 DUP3 ADD MSTORE PUSH14 0x4E6F206163746976652073616C65 PUSH1 0x90 SHL PUSH1 0x44 DUP3 ADD MSTORE PUSH1 0x64 ADD PUSH2 0x251 JUMP JUMPDEST PUSH1 0xD SLOAD PUSH1 0x40 MLOAD PUSH4 0x70A08231 PUSH1 0xE0 SHL DUP2 MSTORE ADDRESS PUSH1 0x4 DUP3 ADD MSTORE PUSH1 0x0 SWAP2 PUSH1 0x1 PUSH1 0x1 PUSH1 0xA0 SHL SUB AND SWAP1 PUSH4 0x70A08231 SWAP1 PUSH1 0x24 ADD PUSH1 0x20 PUSH1 0x40 MLOAD DUP1 DUP4 SUB DUP2 DUP7 GAS STATICCALL ISZERO DUP1 ISZERO PUSH2 0xBE8 JUMPI RETURNDATASIZE PUSH1 0x0 DUP1 RETURNDATACOPY RETURNDATASIZE PUSH1 0x0 REVERT JUMPDEST POP POP POP POP PUSH1 0x40 MLOAD RETURNDATASIZE PUSH1 0x1F NOT PUSH1 0x1F DUP3 ADD AND DUP3 ADD DUP1 PUSH1 0x40 MSTORE POP DUP2 ADD SWAP1 PUSH2 0xC0C SWAP2 SWAP1 PUSH2 0x24B4 JUMP JUMPDEST PUSH1 0x0 DUP4 DUP2 MSTORE PUSH1 0xF PUSH1 0x20 MSTORE PUSH1 0x40 DUP2 KECCAK256 PUSH1 0x2 DUP2 ADD SLOAD SWAP3 SWAP4 POP SWAP2 SWAP1 PUSH8 0xDE0B6B3A7640000 PUSH2 0xC37 DUP4 DUP11 PUSH2 0x2309 JUMP JUMPDEST PUSH2 0xC41 SWAP2 SWAP1 PUSH2 0x2320 JUMP JUMPDEST SWAP1 POP PUSH1 0x0 DUP1 DUP11 PUSH1 0x2 DUP2 GT ISZERO PUSH2 0xC58 JUMPI PUSH2 0xC58 PUSH2 0x224A JUMP JUMPDEST SUB PUSH2 0xC81 JUMPI DUP7 PUSH2 0xC70 PUSH8 0xDE0B6B3A7640000 DUP5 PUSH2 0x2309 JUMP JUMPDEST PUSH2 0xC7A SWAP2 SWAP1 PUSH2 0x2320 JUMP JUMPDEST SWAP1 POP PUSH2 0x91B JUMP JUMPDEST PUSH1 0x1 DUP11 PUSH1 0x2 DUP2 GT ISZERO PUSH2 0xC95 JUMPI PUSH2 0xC95 PUSH2 0x224A JUMP JUMPDEST EQ DUP1 PUSH2 0xCB2 JUMPI POP PUSH1 0x2 DUP11 PUSH1 0x2 DUP2 GT ISZERO PUSH2 0xCB0 JUMPI PUSH2 0xCB0 PUSH2 0x224A JUMP JUMPDEST EQ JUMPDEST ISZERO PUSH2 0x8B4 JUMPI DUP7 PUSH2 0xC70 DUP4 PUSH3 0xF4240 PUSH2 0x2309 JUMP JUMPDEST PUSH2 0xCCD PUSH2 0x1D3A JUMP JUMPDEST PUSH2 0xCD5 PUSH2 0x1D64 JUMP JUMPDEST PUSH1 0xB SLOAD PUSH1 0xFF AND ISZERO PUSH2 0xCF8 JUMPI PUSH1 0x40 MLOAD PUSH3 0x461BCD PUSH1 0xE5 SHL DUP2 MSTORE PUSH1 0x4 ADD PUSH2 0x251 SWAP1 PUSH2 0x24CD JUMP JUMPDEST PUSH1 0x6 SLOAD PUSH1 0x9 SLOAD LT ISZERO PUSH2 0xD72 JUMPI PUSH1 0x40 MLOAD PUSH3 0x461BCD PUSH1 0xE5 SHL DUP2 MSTORE PUSH1 0x20 PUSH1 0x4 DUP3 ADD MSTORE PUSH1 0x38 PUSH1 0x24 DUP3 ADD MSTORE PUSH32 0x43616E6E6F742066696E616C697A653A20536F667420636170206E6F74207265 PUSH1 0x44 DUP3 ADD MSTORE PUSH32 0x6163686564206F722073616C65206973206F6E676F696E670000000000000000 PUSH1 0x64 DUP3 ADD MSTORE PUSH1 0x84 ADD PUSH2 0x251 JUMP JUMPDEST PUSH1 0xB DUP1 SLOAD PUSH1 0xFF NOT AND PUSH1 0x1 OR SWAP1 SSTORE PUSH2 0xD87 PUSH2 0x1D91 JUMP JUMPDEST PUSH1 0xA SLOAD PUSH1 0x40 MLOAD PUSH32 0x9C4B134DA32AAB35252391880A9F2A3C13A760D7817AE8823F2B301D3522045A SWAP1 PUSH1 0x0 SWAP1 LOG2 PUSH2 0xDBC PUSH1 0x1 DUP1 SSTORE JUMP JUMPDEST JUMP JUMPDEST PUSH1 0xC DUP2 DUP2 SLOAD DUP2 LT PUSH2 0xDCE JUMPI PUSH1 0x0 DUP1 REVERT JUMPDEST PUSH1 0x0 SWAP2 DUP3 MSTORE PUSH1 0x20 SWAP1 SWAP2 KECCAK256 ADD SLOAD PUSH1 0x1 PUSH1 0x1 PUSH1 0xA0 SHL SUB AND SWAP1 POP DUP2 JUMP JUMPDEST PUSH2 0xDF0 PUSH2 0x1D64 JUMP JUMPDEST PUSH1 0xB SLOAD PUSH1 0xFF AND ISZERO PUSH2 0xE13 JUMPI PUSH1 0x40 MLOAD PUSH3 0x461BCD PUSH1 0xE5 SHL DUP2 MSTORE PUSH1 0x4 ADD PUSH2 0x251 SWAP1 PUSH2 0x24CD JUMP JUMPDEST TIMESTAMP DUP4 GT PUSH2 0xE77 JUMPI PUSH1 0x40 MLOAD PUSH3 0x461BCD PUSH1 0xE5 SHL DUP2 MSTORE PUSH1 0x20 PUSH1 0x4 DUP3 ADD MSTORE PUSH1 0x2C PUSH1 0x24 DUP3 ADD MSTORE PUSH32 0x53746172742074696D65206D7573742062652067726561746572207468616E20 PUSH1 0x44 DUP3 ADD MSTORE PUSH12 0x63757272656E742074696D65 PUSH1 0xA0 SHL PUSH1 0x64 DUP3 ADD MSTORE PUSH1 0x84 ADD PUSH2 0x251 JUMP JUMPDEST DUP3 DUP3 GT PUSH2 0xED7 JUMPI PUSH1 0x40 MLOAD PUSH3 0x461BCD PUSH1 0xE5 SHL DUP2 MSTORE PUSH1 0x20 PUSH1 0x4 DUP3 ADD MSTORE PUSH1 0x28 PUSH1 0x24 DUP3 ADD MSTORE PUSH32 0x456E642074696D65206D7573742062652067726561746572207468616E207374 PUSH1 0x44 DUP3 ADD MSTORE PUSH8 0x6172742074696D65 PUSH1 0xC0 SHL PUSH1 0x64 DUP3 ADD MSTORE PUSH1 0x84 ADD PUSH2 0x251 JUMP JUMPDEST PUSH1 0x8 SLOAD PUSH1 0x0 SWAP1 DUP2 MSTORE PUSH1 0xF PUSH1 0x20 MSTORE PUSH1 0x40 SWAP1 KECCAK256 PUSH1 0x1 ADD SLOAD DUP4 GT PUSH2 0xF4F JUMPI PUSH1 0x40 MLOAD PUSH3 0x461BCD PUSH1 0xE5 SHL DUP2 MSTORE PUSH1 0x20 PUSH1 0x4 DUP3 ADD MSTORE PUSH1 0x2C PUSH1 0x24 DUP3 ADD MSTORE PUSH32 0x4E65772073616C65206D75737420737461727420616674657220746865206C61 PUSH1 0x44 DUP3 ADD MSTORE PUSH12 0x73742073616C6520656E6473 PUSH1 0xA0 SHL PUSH1 0x64 DUP3 ADD MSTORE PUSH1 0x84 ADD PUSH2 0x251 JUMP JUMPDEST PUSH1 0x8 DUP1 SLOAD SWAP1 PUSH1 0x0 PUSH2 0xF5F DUP4 PUSH2 0x24FC JUMP JUMPDEST SWAP1 SWAP2 SSTORE POP POP PUSH1 0x40 DUP1 MLOAD PUSH1 0xA0 DUP2 ADD DUP3 MSTORE DUP5 DUP2 MSTORE PUSH1 0x20 DUP1 DUP3 ADD DUP6 DUP2 MSTORE DUP3 DUP5 ADD DUP6 DUP2 MSTORE PUSH1 0x0 PUSH1 0x60 DUP1 DUP7 ADD DUP3 DUP2 MSTORE PUSH1 0x80 DUP8 ADD DUP4 DUP2 MSTORE PUSH1 0x8 DUP1 SLOAD DUP6 MSTORE PUSH1 0xF DUP9 MSTORE SWAP4 DUP10 SWAP1 KECCAK256 SWAP8 MLOAD DUP9 SSTORE SWAP5 MLOAD PUSH1 0x1 DUP9 ADD SSTORE SWAP3 MLOAD PUSH1 0x2 DUP8 ADD SSTORE SWAP2 MLOAD PUSH1 0x3 DUP7 ADD SSTORE SWAP2 MLOAD PUSH1 0x4 SWAP1 SWAP5 ADD DUP1 SLOAD PUSH1 0xFF NOT AND SWAP5 ISZERO ISZERO SWAP5 SWAP1 SWAP5 OR SWAP1 SWAP4 SSTORE SLOAD DUP4 MLOAD DUP8 DUP2 MSTORE SWAP2 DUP3 ADD DUP7 SWAP1 MSTORE SWAP3 DUP2 ADD DUP5 SWAP1 MSTORE PUSH32 0x63B43FA153147ADE1DE28ED76841CDBC34E510ED94DD1FF5A88E278B0B1AD9BA SWAP2 ADD PUSH1 0x40 MLOAD DUP1 SWAP2 SUB SWAP1 LOG2 POP POP POP JUMP JUMPDEST PUSH2 0x1018 PUSH2 0x1D64 JUMP JUMPDEST PUSH2 0xDBC PUSH1 0x0 PUSH2 0x2123 JUMP JUMPDEST PUSH2 0x102A PUSH2 0x1D3A JUMP JUMPDEST PUSH2 0x1032 PUSH2 0x1D64 JUMP JUMPDEST PUSH1 0xB SLOAD PUSH1 0xFF AND ISZERO PUSH2 0x1055 JUMPI PUSH1 0x40 MLOAD PUSH3 0x461BCD PUSH1 0xE5 SHL DUP2 MSTORE PUSH1 0x4 ADD PUSH2 0x251 SWAP1 PUSH2 0x24CD JUMP JUMPDEST PUSH1 0x8 SLOAD PUSH1 0x0 SWAP1 DUP2 MSTORE PUSH1 0xF PUSH1 0x20 MSTORE PUSH1 0x40 SWAP1 KECCAK256 PUSH1 0x1 ADD SLOAD TIMESTAMP GT PUSH2 0x10A7 JUMPI PUSH1 0x40 MLOAD PUSH3 0x461BCD PUSH1 0xE5 SHL DUP2 MSTORE PUSH1 0x20 PUSH1 0x4 DUP3 ADD MSTORE PUSH1 0xC PUSH1 0x24 DUP3 ADD MSTORE PUSH12 0x53616C65206F6E676F696E67 PUSH1 0xA0 SHL PUSH1 0x44 DUP3 ADD MSTORE PUSH1 0x64 ADD PUSH2 0x251 JUMP JUMPDEST PUSH1 0x6 SLOAD PUSH1 0x9 SLOAD LT PUSH2 0x10ED JUMPI PUSH1 0x40 MLOAD PUSH3 0x461BCD PUSH1 0xE5 SHL DUP2 MSTORE PUSH1 0x20 PUSH1 0x4 DUP3 ADD MSTORE PUSH1 0x10 PUSH1 0x24 DUP3 ADD MSTORE PUSH16 0x14DBD99D0818D85C081C995858DA1959 PUSH1 0x82 SHL PUSH1 0x44 DUP3 ADD MSTORE PUSH1 0x64 ADD PUSH2 0x251 JUMP JUMPDEST PUSH1 0xC SLOAD PUSH1 0x0 JUMPDEST DUP2 DUP2 LT ISZERO PUSH2 0x148A JUMPI PUSH1 0x0 PUSH1 0xC DUP3 DUP2 SLOAD DUP2 LT PUSH2 0x1110 JUMPI PUSH2 0x1110 PUSH2 0x2515 JUMP JUMPDEST PUSH1 0x0 SWAP2 DUP3 MSTORE PUSH1 0x20 DUP3 KECCAK256 ADD SLOAD PUSH1 0x1 PUSH1 0x1 PUSH1 0xA0 SHL SUB AND SWAP2 POP JUMPDEST PUSH1 0x3 DUP2 PUSH1 0xFF AND LT ISZERO PUSH2 0x1480 JUMPI PUSH1 0x0 DUP2 PUSH1 0xFF AND PUSH1 0x2 DUP2 GT ISZERO PUSH2 0x114A JUMPI PUSH2 0x114A PUSH2 0x224A JUMP JUMPDEST PUSH1 0x1 PUSH1 0x1 PUSH1 0xA0 SHL SUB DUP5 AND PUSH1 0x0 SWAP1 DUP2 MSTORE PUSH1 0x14 PUSH1 0x20 MSTORE PUSH1 0x40 DUP2 KECCAK256 SWAP2 SWAP3 POP SWAP1 DUP2 DUP4 PUSH1 0x2 DUP2 GT ISZERO PUSH2 0x1179 JUMPI PUSH2 0x1179 PUSH2 0x224A JUMP JUMPDEST PUSH1 0x2 DUP2 GT ISZERO PUSH2 0x118A JUMPI PUSH2 0x118A PUSH2 0x224A JUMP JUMPDEST DUP2 MSTORE PUSH1 0x20 ADD SWAP1 DUP2 MSTORE PUSH1 0x20 ADD PUSH1 0x0 KECCAK256 SLOAD SWAP1 POP PUSH1 0x0 DUP2 GT ISZERO PUSH2 0x1476 JUMPI PUSH1 0x1 PUSH1 0x1 PUSH1 0xA0 SHL SUB DUP5 AND PUSH1 0x0 SWAP1 DUP2 MSTORE PUSH1 0x14 PUSH1 0x20 MSTORE PUSH1 0x40 DUP2 KECCAK256 DUP2 DUP5 PUSH1 0x2 DUP2 GT ISZERO PUSH2 0x11CF JUMPI PUSH2 0x11CF PUSH2 0x224A JUMP JUMPDEST PUSH1 0x2 DUP2 GT ISZERO PUSH2 0x11E0 JUMPI PUSH2 0x11E0 PUSH2 0x224A JUMP JUMPDEST DUP2 MSTORE PUSH1 0x20 DUP2 ADD SWAP2 SWAP1 SWAP2 MSTORE PUSH1 0x40 ADD PUSH1 0x0 SWAP1 DUP2 KECCAK256 SWAP2 SWAP1 SWAP2 SSTORE DUP3 PUSH1 0x2 DUP2 GT ISZERO PUSH2 0x1208 JUMPI PUSH2 0x1208 PUSH2 0x224A JUMP JUMPDEST SUB PUSH2 0x12AA JUMPI PUSH1 0x0 DUP5 PUSH1 0x1 PUSH1 0x1 PUSH1 0xA0 SHL SUB AND DUP3 PUSH1 0x40 MLOAD PUSH1 0x0 PUSH1 0x40 MLOAD DUP1 DUP4 SUB DUP2 DUP6 DUP8 GAS CALL SWAP3 POP POP POP RETURNDATASIZE DUP1 PUSH1 0x0 DUP2 EQ PUSH2 0x125A JUMPI PUSH1 0x40 MLOAD SWAP2 POP PUSH1 0x1F NOT PUSH1 0x3F RETURNDATASIZE ADD AND DUP3 ADD PUSH1 0x40 MSTORE RETURNDATASIZE DUP3 MSTORE RETURNDATASIZE PUSH1 0x0 PUSH1 0x20 DUP5 ADD RETURNDATACOPY PUSH2 0x125F JUMP JUMPDEST PUSH1 0x60 SWAP2 POP JUMPDEST POP POP SWAP1 POP DUP1 PUSH2 0x12A4 JUMPI PUSH1 0x40 MLOAD PUSH3 0x461BCD PUSH1 0xE5 SHL DUP2 MSTORE PUSH1 0x20 PUSH1 0x4 DUP3 ADD MSTORE PUSH1 0x11 PUSH1 0x24 DUP3 ADD MSTORE PUSH17 0x109390881C99599D5B990819985A5B1959 PUSH1 0x7A SHL PUSH1 0x44 DUP3 ADD MSTORE PUSH1 0x64 ADD PUSH2 0x251 JUMP JUMPDEST POP PUSH2 0x1432 JUMP JUMPDEST PUSH1 0x1 DUP3 PUSH1 0x2 DUP2 GT ISZERO PUSH2 0x12BE JUMPI PUSH2 0x12BE PUSH2 0x224A JUMP JUMPDEST EQ DUP1 PUSH2 0x12DB JUMPI POP PUSH1 0x2 DUP3 PUSH1 0x2 DUP2 GT ISZERO PUSH2 0x12D9 JUMPI PUSH2 0x12D9 PUSH2 0x224A JUMP JUMPDEST EQ JUMPDEST ISZERO PUSH2 0x13DC JUMPI PUSH1 0x0 PUSH1 0x1 DUP4 PUSH1 0x2 DUP2 GT ISZERO PUSH2 0x12F6 JUMPI PUSH2 0x12F6 PUSH2 0x224A JUMP JUMPDEST EQ PUSH2 0x130C JUMPI PUSH1 0xE SLOAD PUSH1 0x1 PUSH1 0x1 PUSH1 0xA0 SHL SUB AND PUSH2 0x1319 JUMP JUMPDEST PUSH1 0xD SLOAD PUSH1 0x1 PUSH1 0x1 PUSH1 0xA0 SHL SUB AND JUMPDEST PUSH1 0x40 MLOAD PUSH4 0xA9059CBB PUSH1 0xE0 SHL DUP2 MSTORE PUSH1 0x1 PUSH1 0x1 PUSH1 0xA0 SHL SUB DUP8 DUP2 AND PUSH1 0x4 DUP4 ADD MSTORE PUSH1 0x24 DUP3 ADD DUP6 SWAP1 MSTORE SWAP2 SWAP3 POP SWAP1 DUP3 AND SWAP1 PUSH4 0xA9059CBB SWAP1 PUSH1 0x44 ADD PUSH1 0x20 PUSH1 0x40 MLOAD DUP1 DUP4 SUB DUP2 PUSH1 0x0 DUP8 GAS CALL ISZERO DUP1 ISZERO PUSH2 0x136C JUMPI RETURNDATASIZE PUSH1 0x0 DUP1 RETURNDATACOPY RETURNDATASIZE PUSH1 0x0 REVERT JUMPDEST POP POP POP POP PUSH1 0x40 MLOAD RETURNDATASIZE PUSH1 0x1F NOT PUSH1 0x1F DUP3 ADD AND DUP3 ADD DUP1 PUSH1 0x40 MSTORE POP DUP2 ADD SWAP1 PUSH2 0x1390 SWAP2 SWAP1 PUSH2 0x252B JUMP JUMPDEST PUSH2 0x12A4 JUMPI PUSH1 0x40 MLOAD PUSH3 0x461BCD PUSH1 0xE5 SHL DUP2 MSTORE PUSH1 0x20 PUSH1 0x4 DUP3 ADD MSTORE PUSH1 0x18 PUSH1 0x24 DUP3 ADD MSTORE PUSH32 0x537461626C65636F696E20726566756E64206661696C65640000000000000000 PUSH1 0x44 DUP3 ADD MSTORE PUSH1 0x64 ADD PUSH2 0x251 JUMP JUMPDEST PUSH1 0x40 MLOAD PUSH3 0x461BCD PUSH1 0xE5 SHL DUP2 MSTORE PUSH1 0x20 PUSH1 0x4 DUP3 ADD MSTORE PUSH1 0x25 PUSH1 0x24 DUP3 ADD MSTORE PUSH32 0x556E737570706F72746564207061796D656E74206D6574686F6420666F722072 PUSH1 0x44 DUP3 ADD MSTORE PUSH5 0x19599D5B99 PUSH1 0xDA SHL PUSH1 0x64 DUP3 ADD MSTORE PUSH1 0x84 ADD PUSH2 0x251 JUMP JUMPDEST DUP4 PUSH1 0x1 PUSH1 0x1 PUSH1 0xA0 SHL SUB AND PUSH32 0x3829AB241648D7348F97E4F77D36451330F2276EA8EEB3428E462012F9699E7 DUP3 DUP5 PUSH1 0x40 MLOAD PUSH2 0x146D SWAP3 SWAP2 SWAP1 PUSH2 0x254D JUMP JUMPDEST PUSH1 0x40 MLOAD DUP1 SWAP2 SUB SWAP1 LOG2 JUMPDEST POP POP PUSH1 0x1 ADD PUSH2 0x1127 JUMP JUMPDEST POP POP PUSH1 0x1 ADD PUSH2 0x10F3 JUMP JUMPDEST POP POP PUSH1 0xB DUP1 SLOAD PUSH1 0xFF NOT AND PUSH1 0x1 OR SWAP1 SSTORE PUSH2 0xDBC PUSH1 0x1 DUP1 SSTORE JUMP JUMPDEST PUSH2 0x14AA PUSH2 0x1D3A JUMP JUMPDEST PUSH2 0x14B2 PUSH2 0x1D64 JUMP JUMPDEST PUSH1 0xB SLOAD PUSH1 0xFF AND ISZERO PUSH2 0x14D5 JUMPI PUSH1 0x40 MLOAD PUSH3 0x461BCD PUSH1 0xE5 SHL DUP2 MSTORE PUSH1 0x4 ADD PUSH2 0x251 SWAP1 PUSH2 0x24CD JUMP JUMPDEST PUSH1 0xB SLOAD PUSH2 0x100 SWAP1 DIV PUSH1 0xFF AND ISZERO PUSH2 0x152D JUMPI PUSH1 0x40 MLOAD PUSH3 0x461BCD PUSH1 0xE5 SHL DUP2 MSTORE PUSH1 0x20 PUSH1 0x4 DUP3 ADD MSTORE PUSH1 0x19 PUSH1 0x24 DUP3 ADD MSTORE PUSH32 0x41697264726F7020616C726561647920636F6D706C6574656400000000000000 PUSH1 0x44 DUP3 ADD MSTORE PUSH1 0x64 ADD PUSH2 0x251 JUMP JUMPDEST PUSH1 0xC SLOAD PUSH1 0x0 JUMPDEST DUP2 DUP2 LT ISZERO PUSH2 0x16B3 JUMPI PUSH1 0x0 PUSH1 0xC DUP3 DUP2 SLOAD DUP2 LT PUSH2 0x1550 JUMPI PUSH2 0x1550 PUSH2 0x2515 JUMP JUMPDEST PUSH1 0x0 SWAP2 DUP3 MSTORE PUSH1 0x20 DUP1 DUP4 KECCAK256 SWAP1 SWAP2 ADD SLOAD PUSH1 0x1 PUSH1 0x1 PUSH1 0xA0 SHL SUB AND DUP1 DUP4 MSTORE PUSH1 0x11 SWAP1 SWAP2 MSTORE PUSH1 0x40 SWAP1 SWAP2 KECCAK256 SLOAD SWAP1 SWAP2 POP DUP1 ISZERO PUSH2 0x16A9 JUMPI PUSH1 0x5 SLOAD PUSH1 0x0 SWAP1 PUSH1 0x1 PUSH1 0x1 PUSH1 0xA0 SHL SUB AND PUSH4 0x23B872DD PUSH2 0x15A4 PUSH1 0x0 SLOAD PUSH1 0x1 PUSH1 0x1 PUSH1 0xA0 SHL SUB AND SWAP1 JUMP JUMPDEST PUSH1 0x40 MLOAD PUSH1 0x1 PUSH1 0x1 PUSH1 0xE0 SHL SUB NOT PUSH1 0xE0 DUP5 SWAP1 SHL AND DUP2 MSTORE PUSH1 0x1 PUSH1 0x1 PUSH1 0xA0 SHL SUB SWAP2 DUP3 AND PUSH1 0x4 DUP3 ADD MSTORE SWAP1 DUP7 AND PUSH1 0x24 DUP3 ADD MSTORE PUSH1 0x44 DUP2 ADD DUP6 SWAP1 MSTORE PUSH1 0x64 ADD PUSH1 0x20 PUSH1 0x40 MLOAD DUP1 DUP4 SUB DUP2 PUSH1 0x0 DUP8 GAS CALL ISZERO DUP1 ISZERO PUSH2 0x15F9 JUMPI RETURNDATASIZE PUSH1 0x0 DUP1 RETURNDATACOPY RETURNDATASIZE PUSH1 0x0 REVERT JUMPDEST POP POP POP POP PUSH1 0x40 MLOAD RETURNDATASIZE PUSH1 0x1F NOT PUSH1 0x1F DUP3 ADD AND DUP3 ADD DUP1 PUSH1 0x40 MSTORE POP DUP2 ADD SWAP1 PUSH2 0x161D SWAP2 SWAP1 PUSH2 0x252B JUMP JUMPDEST SWAP1 POP DUP1 PUSH2 0x1664 JUMPI PUSH1 0x40 MLOAD PUSH3 0x461BCD PUSH1 0xE5 SHL DUP2 MSTORE PUSH1 0x20 PUSH1 0x4 DUP3 ADD MSTORE PUSH1 0x15 PUSH1 0x24 DUP3 ADD MSTORE PUSH21 0x151BDAD95B881D1C985B9CD9995C8819985A5B1959 PUSH1 0x5A SHL PUSH1 0x44 DUP3 ADD MSTORE PUSH1 0x64 ADD PUSH2 0x251 JUMP JUMPDEST DUP3 PUSH1 0x1 PUSH1 0x1 PUSH1 0xA0 SHL SUB AND PUSH32 0x9BDCD0CC5503FB9A8DD7311D9617E33108C4B7C8948CC544B16C1FD63C6F475B DUP4 PUSH1 0x40 MLOAD PUSH2 0x169F SWAP2 DUP2 MSTORE PUSH1 0x20 ADD SWAP1 JUMP JUMPDEST PUSH1 0x40 MLOAD DUP1 SWAP2 SUB SWAP1 LOG2 POP JUMPDEST POP POP PUSH1 0x1 ADD PUSH2 0x1533 JUMP JUMPDEST POP POP PUSH1 0xB DUP1 SLOAD PUSH2 0xFF00 NOT AND PUSH2 0x100 OR SWAP1 SSTORE PUSH2 0xDBC PUSH1 0x1 DUP1 SSTORE JUMP JUMPDEST PUSH1 0xB SLOAD PUSH1 0xFF AND ISZERO PUSH2 0x16F0 JUMPI PUSH1 0x40 MLOAD PUSH3 0x461BCD PUSH1 0xE5 SHL DUP2 MSTORE PUSH1 0x4 ADD PUSH2 0x251 SWAP1 PUSH2 0x24CD JUMP JUMPDEST PUSH1 0x0 SLOAD PUSH1 0x1 PUSH1 0x1 PUSH1 0xA0 SHL SUB AND CALLER SUB PUSH2 0x174A JUMPI PUSH1 0x40 MLOAD PUSH3 0x461BCD PUSH1 0xE5 SHL DUP2 MSTORE PUSH1 0x20 PUSH1 0x4 DUP3 ADD MSTORE PUSH1 0x17 PUSH1 0x24 DUP3 ADD MSTORE PUSH32 0x4F776E65722063616E6E6F742062757920746F6B656E73000000000000000000 PUSH1 0x44 DUP3 ADD MSTORE PUSH1 0x64 ADD PUSH2 0x251 JUMP JUMPDEST PUSH1 0x8 SLOAD PUSH1 0x0 SUB PUSH2 0x1786 JUMPI PUSH1 0x40 MLOAD PUSH3 0x461BCD PUSH1 0xE5 SHL DUP2 MSTORE PUSH1 0x20 PUSH1 0x4 DUP3 ADD MSTORE PUSH1 0x7 PUSH1 0x24 DUP3 ADD MSTORE PUSH7 0x4E6F2073616C65 PUSH1 0xC8 SHL PUSH1 0x44 DUP3 ADD MSTORE PUSH1 0x64 ADD PUSH2 0x251 JUMP JUMPDEST PUSH1 0x8 SLOAD PUSH1 0x0 SWAP1 DUP2 MSTORE PUSH1 0xF PUSH1 0x20 MSTORE PUSH1 0x40 SWAP1 KECCAK256 PUSH1 0x4 ADD SLOAD PUSH1 0xFF AND PUSH2 0x17E3 JUMPI PUSH1 0x40 MLOAD PUSH3 0x461BCD PUSH1 0xE5 SHL DUP2 MSTORE PUSH1 0x20 PUSH1 0x4 DUP3 ADD MSTORE PUSH1 0x16 PUSH1 0x24 DUP3 ADD MSTORE PUSH22 0x14D85B1948185B1C9958591E48199A5B985B1A5E9959 PUSH1 0x52 SHL PUSH1 0x44 DUP3 ADD MSTORE PUSH1 0x64 ADD PUSH2 0x251 JUMP JUMPDEST PUSH1 0x0 DUP1 DUP4 PUSH1 0x2 DUP2 GT ISZERO PUSH2 0x17F8 JUMPI PUSH2 0x17F8 PUSH2 0x224A JUMP JUMPDEST SUB PUSH2 0x18B7 JUMPI PUSH1 0x0 CALLVALUE GT PUSH2 0x184D JUMPI PUSH1 0x40 MLOAD PUSH3 0x461BCD PUSH1 0xE5 SHL DUP2 MSTORE PUSH1 0x20 PUSH1 0x4 DUP3 ADD MSTORE PUSH1 0x17 PUSH1 0x24 DUP3 ADD MSTORE PUSH32 0x53656E6420612076616C696420424E4220616D6F756E74000000000000000000 PUSH1 0x44 DUP3 ADD MSTORE PUSH1 0x64 ADD PUSH2 0x251 JUMP JUMPDEST PUSH2 0x1857 DUP4 CALLVALUE PUSH2 0x770 JUMP JUMPDEST CALLER PUSH1 0x0 SWAP1 DUP2 MSTORE PUSH1 0x14 PUSH1 0x20 MSTORE PUSH1 0x40 DUP2 KECCAK256 SWAP2 SWAP3 POP CALLVALUE SWAP2 SWAP1 DUP6 PUSH1 0x2 DUP2 GT ISZERO PUSH2 0x187E JUMPI PUSH2 0x187E PUSH2 0x224A JUMP JUMPDEST PUSH1 0x2 DUP2 GT ISZERO PUSH2 0x188F JUMPI PUSH2 0x188F PUSH2 0x224A JUMP JUMPDEST DUP2 MSTORE PUSH1 0x20 ADD SWAP1 DUP2 MSTORE PUSH1 0x20 ADD PUSH1 0x0 KECCAK256 PUSH1 0x0 DUP3 DUP3 SLOAD PUSH2 0x18AC SWAP2 SWAP1 PUSH2 0x2561 JUMP JUMPDEST SWAP1 SWAP2 SSTORE POP PUSH2 0x1AA7 SWAP1 POP JUMP JUMPDEST PUSH1 0x1 DUP4 PUSH1 0x2 DUP2 GT ISZERO PUSH2 0x18CB JUMPI PUSH2 0x18CB PUSH2 0x224A JUMP JUMPDEST EQ DUP1 PUSH2 0x18E8 JUMPI POP PUSH1 0x2 DUP4 PUSH1 0x2 DUP2 GT ISZERO PUSH2 0x18E6 JUMPI PUSH2 0x18E6 PUSH2 0x224A JUMP JUMPDEST EQ JUMPDEST ISZERO PUSH2 0x8B4 JUMPI PUSH1 0x0 DUP3 GT PUSH2 0x193D JUMPI PUSH1 0x40 MLOAD PUSH3 0x461BCD PUSH1 0xE5 SHL DUP2 MSTORE PUSH1 0x20 PUSH1 0x4 DUP3 ADD MSTORE PUSH1 0x1F PUSH1 0x24 DUP3 ADD MSTORE PUSH32 0x456E74657220612076616C696420737461626C65636F696E20616D6F756E7400 PUSH1 0x44 DUP3 ADD MSTORE PUSH1 0x64 ADD PUSH2 0x251 JUMP JUMPDEST PUSH1 0x0 PUSH1 0x1 DUP5 PUSH1 0x2 DUP2 GT ISZERO PUSH2 0x1953 JUMPI PUSH2 0x1953 PUSH2 0x224A JUMP JUMPDEST EQ PUSH2 0x1969 JUMPI PUSH1 0xE SLOAD PUSH1 0x1 PUSH1 0x1 PUSH1 0xA0 SHL SUB AND PUSH2 0x1976 JUMP JUMPDEST PUSH1 0xD SLOAD PUSH1 0x1 PUSH1 0x1 PUSH1 0xA0 SHL SUB AND JUMPDEST PUSH1 0x40 MLOAD PUSH4 0x23B872DD PUSH1 0xE0 SHL DUP2 MSTORE CALLER PUSH1 0x4 DUP3 ADD MSTORE ADDRESS PUSH1 0x24 DUP3 ADD MSTORE PUSH1 0x44 DUP2 ADD DUP6 SWAP1 MSTORE SWAP1 SWAP2 POP PUSH1 0x1 PUSH1 0x1 PUSH1 0xA0 SHL SUB DUP3 AND SWAP1 PUSH4 0x23B872DD SWAP1 PUSH1 0x64 ADD PUSH1 0x20 PUSH1 0x40 MLOAD DUP1 DUP4 SUB DUP2 PUSH1 0x0 DUP8 GAS CALL ISZERO DUP1 ISZERO PUSH2 0x19CC JUMPI RETURNDATASIZE PUSH1 0x0 DUP1 RETURNDATACOPY RETURNDATASIZE PUSH1 0x0 REVERT JUMPDEST POP POP POP POP PUSH1 0x40 MLOAD RETURNDATASIZE PUSH1 0x1F NOT PUSH1 0x1F DUP3 ADD AND DUP3 ADD DUP1 PUSH1 0x40 MSTORE POP DUP2 ADD SWAP1 PUSH2 0x19F0 SWAP2 SWAP1 PUSH2 0x252B JUMP JUMPDEST PUSH2 0x1A3C JUMPI PUSH1 0x40 MLOAD PUSH3 0x461BCD PUSH1 0xE5 SHL DUP2 MSTORE PUSH1 0x20 PUSH1 0x4 DUP3 ADD MSTORE PUSH1 0x1A PUSH1 0x24 DUP3 ADD MSTORE PUSH32 0x537461626C65636F696E207472616E73666572206661696C6564000000000000 PUSH1 0x44 DUP3 ADD MSTORE PUSH1 0x64 ADD PUSH2 0x251 JUMP JUMPDEST PUSH2 0x1A46 DUP5 DUP5 PUSH2 0x770 JUMP JUMPDEST CALLER PUSH1 0x0 SWAP1 DUP2 MSTORE PUSH1 0x14 PUSH1 0x20 MSTORE PUSH1 0x40 DUP2 KECCAK256 SWAP2 SWAP4 POP DUP5 SWAP2 SWAP1 DUP7 PUSH1 0x2 DUP2 GT ISZERO PUSH2 0x1A6D JUMPI PUSH2 0x1A6D PUSH2 0x224A JUMP JUMPDEST PUSH1 0x2 DUP2 GT ISZERO PUSH2 0x1A7E JUMPI PUSH2 0x1A7E PUSH2 0x224A JUMP JUMPDEST DUP2 MSTORE PUSH1 0x20 ADD SWAP1 DUP2 MSTORE PUSH1 0x20 ADD PUSH1 0x0 KECCAK256 PUSH1 0x0 DUP3 DUP3 SLOAD PUSH2 0x1A9B SWAP2 SWAP1 PUSH2 0x2561 JUMP JUMPDEST SWAP1 SWAP2 SSTORE POP PUSH2 0x1AA7 SWAP2 POP POP JUMP JUMPDEST PUSH1 0x0 DUP2 GT PUSH2 0x1AEE JUMPI PUSH1 0x40 MLOAD PUSH3 0x461BCD PUSH1 0xE5 SHL DUP2 MSTORE PUSH1 0x20 PUSH1 0x4 DUP3 ADD MSTORE PUSH1 0x14 PUSH1 0x24 DUP3 ADD MSTORE PUSH20 0x125B9D985B1A59081D1BDAD95B88185B5BDD5B9D PUSH1 0x62 SHL PUSH1 0x44 DUP3 ADD MSTORE PUSH1 0x64 ADD PUSH2 0x251 JUMP JUMPDEST PUSH1 0x8 SLOAD PUSH1 0x0 SWAP1 DUP2 MSTORE PUSH1 0xF PUSH1 0x20 MSTORE PUSH1 0x40 DUP2 KECCAK256 PUSH1 0x2 ADD SLOAD PUSH8 0xDE0B6B3A7640000 SWAP1 PUSH2 0x1B17 SWAP1 DUP5 PUSH2 0x2309 JUMP JUMPDEST PUSH2 0x1B21 SWAP2 SWAP1 PUSH2 0x2320 JUMP JUMPDEST SWAP1 POP PUSH1 0x7 SLOAD DUP2 PUSH1 0x9 SLOAD PUSH2 0x1B34 SWAP2 SWAP1 PUSH2 0x2561 JUMP JUMPDEST GT ISZERO PUSH2 0x1B75 JUMPI PUSH1 0x40 MLOAD PUSH3 0x461BCD PUSH1 0xE5 SHL DUP2 MSTORE PUSH1 0x20 PUSH1 0x4 DUP3 ADD MSTORE PUSH1 0x10 PUSH1 0x24 DUP3 ADD MSTORE PUSH16 0x12185C990818D85C081C995858DA1959 PUSH1 0x82 SHL PUSH1 0x44 DUP3 ADD MSTORE PUSH1 0x64 ADD PUSH2 0x251 JUMP JUMPDEST CALLER PUSH1 0x0 SWAP1 DUP2 MSTORE PUSH1 0x10 PUSH1 0x20 MSTORE PUSH1 0x40 DUP2 KECCAK256 DUP1 SLOAD DUP4 SWAP3 SWAP1 PUSH2 0x1B94 SWAP1 DUP5 SWAP1 PUSH2 0x2561 JUMP JUMPDEST SWAP3 POP POP DUP2 SWAP1 SSTORE POP DUP1 PUSH1 0x9 PUSH1 0x0 DUP3 DUP3 SLOAD PUSH2 0x1BAD SWAP2 SWAP1 PUSH2 0x2561 JUMP JUMPDEST SWAP1 SWAP2 SSTORE POP POP PUSH1 0x8 SLOAD PUSH1 0x0 SWAP1 DUP2 MSTORE PUSH1 0xF PUSH1 0x20 MSTORE PUSH1 0x40 DUP2 KECCAK256 PUSH1 0x3 ADD DUP1 SLOAD DUP5 SWAP3 SWAP1 PUSH2 0x1BD6 SWAP1 DUP5 SWAP1 PUSH2 0x2561 JUMP JUMPDEST SWAP3 POP POP DUP2 SWAP1 SSTORE POP DUP2 PUSH1 0xA PUSH1 0x0 DUP3 DUP3 SLOAD PUSH2 0x1BEF SWAP2 SWAP1 PUSH2 0x2561 JUMP JUMPDEST SWAP1 SWAP2 SSTORE POP POP CALLER PUSH1 0x0 SWAP1 DUP2 MSTORE PUSH1 0x11 PUSH1 0x20 MSTORE PUSH1 0x40 DUP2 KECCAK256 SLOAD SWAP1 SUB PUSH2 0x1C4D JUMPI PUSH1 0xC DUP1 SLOAD PUSH1 0x1 DUP2 ADD DUP3 SSTORE PUSH1 0x0 SWAP2 SWAP1 SWAP2 MSTORE PUSH32 0xDF6966C971051C3D54EC59162606531493A51404A002842F56009D7E5CF4A8C7 ADD DUP1 SLOAD PUSH1 0x1 PUSH1 0x1 PUSH1 0xA0 SHL SUB NOT AND CALLER OR SWAP1 SSTORE JUMPDEST CALLER PUSH1 0x0 SWAP1 DUP2 MSTORE PUSH1 0x11 PUSH1 0x20 MSTORE PUSH1 0x40 DUP2 KECCAK256 DUP1 SLOAD DUP5 SWAP3 SWAP1 PUSH2 0x1C6C SWAP1 DUP5 SWAP1 PUSH2 0x2561 JUMP JUMPDEST SWAP1 SWAP2 SSTORE POP POP CALLER PUSH1 0x0 SWAP1 DUP2 MSTORE PUSH1 0x13 PUSH1 0x20 MSTORE PUSH1 0x40 SWAP1 KECCAK256 DUP1 SLOAD DUP6 SWAP2 SWAP1 PUSH1 0xFF NOT AND PUSH1 0x1 DUP4 PUSH1 0x2 DUP2 GT ISZERO PUSH2 0x1C9D JUMPI PUSH2 0x1C9D PUSH2 0x224A JUMP JUMPDEST MUL OR SWAP1 SSTORE POP PUSH1 0x8 SLOAD PUSH1 0x0 DUP2 DUP2 MSTORE PUSH1 0xF PUSH1 0x20 MSTORE PUSH1 0x40 SWAP1 DUP2 SWAP1 KECCAK256 PUSH1 0x2 ADD SLOAD SWAP1 MLOAD CALLER SWAP2 PUSH32 0xDBCEF474A632721725D49E3F35D9DEFE0257100B01D1E4B4B135B14D6FE296E8 SWAP2 PUSH2 0x1CEE SWAP2 DUP8 SWAP2 DUP10 SWAP1 DUP12 SWAP1 PUSH2 0x2574 JUMP JUMPDEST PUSH1 0x40 MLOAD DUP1 SWAP2 SUB SWAP1 LOG3 POP POP POP POP JUMP JUMPDEST PUSH2 0x1D04 PUSH2 0x1D64 JUMP JUMPDEST PUSH1 0x1 PUSH1 0x1 PUSH1 0xA0 SHL SUB DUP2 AND PUSH2 0x1D2E JUMPI PUSH1 0x40 MLOAD PUSH4 0x1E4FBDF7 PUSH1 0xE0 SHL DUP2 MSTORE PUSH1 0x0 PUSH1 0x4 DUP3 ADD MSTORE PUSH1 0x24 ADD PUSH2 0x251 JUMP JUMPDEST PUSH2 0x1D37 DUP2 PUSH2 0x2123 JUMP JUMPDEST POP JUMP JUMPDEST PUSH1 0x2 PUSH1 0x1 SLOAD SUB PUSH2 0x1D5D JUMPI PUSH1 0x40 MLOAD PUSH4 0x3EE5AEB5 PUSH1 0xE0 SHL DUP2 MSTORE PUSH1 0x4 ADD PUSH1 0x40 MLOAD DUP1 SWAP2 SUB SWAP1 REVERT JUMPDEST PUSH1 0x2 PUSH1 0x1 SSTORE JUMP JUMPDEST PUSH1 0x0 SLOAD PUSH1 0x1 PUSH1 0x1 PUSH1 0xA0 SHL SUB AND CALLER EQ PUSH2 0xDBC JUMPI PUSH1 0x40 MLOAD PUSH4 0x118CDAA7 PUSH1 0xE0 SHL DUP2 MSTORE CALLER PUSH1 0x4 DUP3 ADD MSTORE PUSH1 0x24 ADD PUSH2 0x251 JUMP JUMPDEST PUSH1 0xD SLOAD PUSH1 0x40 MLOAD PUSH4 0x70A08231 PUSH1 0xE0 SHL DUP2 MSTORE ADDRESS PUSH1 0x4 DUP3 ADD MSTORE PUSH1 0x0 SWAP2 PUSH1 0x1 PUSH1 0x1 PUSH1 0xA0 SHL SUB AND SWAP1 PUSH4 0x70A08231 SWAP1 PUSH1 0x24 ADD PUSH1 0x20 PUSH1 0x40 MLOAD DUP1 DUP4 SUB DUP2 DUP7 GAS STATICCALL ISZERO DUP1 ISZERO PUSH2 0x1DDA JUMPI RETURNDATASIZE PUSH1 0x0 DUP1 RETURNDATACOPY RETURNDATASIZE PUSH1 0x0 REVERT JUMPDEST POP POP POP POP PUSH1 0x40 MLOAD RETURNDATASIZE PUSH1 0x1F NOT PUSH1 0x1F DUP3 ADD AND DUP3 ADD DUP1 PUSH1 0x40 MSTORE POP DUP2 ADD SWAP1 PUSH2 0x1DFE SWAP2 SWAP1 PUSH2 0x24B4 JUMP JUMPDEST PUSH1 0xE SLOAD PUSH1 0x40 MLOAD PUSH4 0x70A08231 PUSH1 0xE0 SHL DUP2 MSTORE ADDRESS PUSH1 0x4 DUP3 ADD MSTORE SWAP2 SWAP3 POP SELFBALANCE SWAP2 PUSH1 0x0 SWAP2 PUSH1 0x1 PUSH1 0x1 PUSH1 0xA0 SHL SUB AND SWAP1 PUSH4 0x70A08231 SWAP1 PUSH1 0x24 ADD PUSH1 0x20 PUSH1 0x40 MLOAD DUP1 DUP4 SUB DUP2 DUP7 GAS STATICCALL ISZERO DUP1 ISZERO PUSH2 0x1E4C JUMPI RETURNDATASIZE PUSH1 0x0 DUP1 RETURNDATACOPY RETURNDATASIZE PUSH1 0x0 REVERT JUMPDEST POP POP POP POP PUSH1 0x40 MLOAD RETURNDATASIZE PUSH1 0x1F NOT PUSH1 0x1F DUP3 ADD AND DUP3 ADD DUP1 PUSH1 0x40 MSTORE POP DUP2 ADD SWAP1 PUSH2 0x1E70 SWAP2 SWAP1 PUSH2 0x24B4 JUMP JUMPDEST SWAP1 POP PUSH1 0x0 DUP3 GT DUP1 ISZERO PUSH2 0x1E82 JUMPI POP PUSH1 0x0 DUP4 GT JUMPDEST DUP1 ISZERO PUSH2 0x1E8E JUMPI POP PUSH1 0x0 DUP2 GT JUMPDEST PUSH2 0x1EDA JUMPI PUSH1 0x40 MLOAD PUSH3 0x461BCD PUSH1 0xE5 SHL DUP2 MSTORE PUSH1 0x20 PUSH1 0x4 DUP3 ADD MSTORE PUSH1 0x19 PUSH1 0x24 DUP3 ADD MSTORE PUSH32 0x62616C616E636573206D757374206E6F74206265205A65726F00000000000000 PUSH1 0x44 DUP3 ADD MSTORE PUSH1 0x64 ADD PUSH2 0x251 JUMP JUMPDEST PUSH1 0x0 DUP1 SLOAD PUSH1 0x40 MLOAD PUSH1 0x1 PUSH1 0x1 PUSH1 0xA0 SHL SUB SWAP1 SWAP2 AND SWAP1 DUP5 SWAP1 DUP4 DUP2 DUP2 DUP2 DUP6 DUP8 GAS CALL SWAP3 POP POP POP RETURNDATASIZE DUP1 PUSH1 0x0 DUP2 EQ PUSH2 0x1F27 JUMPI PUSH1 0x40 MLOAD SWAP2 POP PUSH1 0x1F NOT PUSH1 0x3F RETURNDATASIZE ADD AND DUP3 ADD PUSH1 0x40 MSTORE RETURNDATASIZE DUP3 MSTORE RETURNDATASIZE PUSH1 0x0 PUSH1 0x20 DUP5 ADD RETURNDATACOPY PUSH2 0x1F2C JUMP JUMPDEST PUSH1 0x60 SWAP2 POP JUMPDEST POP POP SWAP1 POP DUP1 PUSH2 0x1F6F JUMPI PUSH1 0x40 MLOAD PUSH3 0x461BCD PUSH1 0xE5 SHL DUP2 MSTORE PUSH1 0x20 PUSH1 0x4 DUP3 ADD MSTORE PUSH1 0xF PUSH1 0x24 DUP3 ADD MSTORE PUSH15 0x151C985B9CD9995C8819985A5B1959 PUSH1 0x8A SHL PUSH1 0x44 DUP3 ADD MSTORE PUSH1 0x64 ADD PUSH2 0x251 JUMP JUMPDEST PUSH1 0xD SLOAD PUSH1 0x1 PUSH1 0x1 PUSH1 0xA0 SHL SUB AND PUSH4 0xA9059CBB PUSH2 0x1F92 PUSH1 0x0 SLOAD PUSH1 0x1 PUSH1 0x1 PUSH1 0xA0 SHL SUB AND SWAP1 JUMP JUMPDEST PUSH1 0x40 MLOAD PUSH1 0x1 PUSH1 0x1 PUSH1 0xE0 SHL SUB NOT PUSH1 0xE0 DUP5 SWAP1 SHL AND DUP2 MSTORE PUSH1 0x1 PUSH1 0x1 PUSH1 0xA0 SHL SUB SWAP1 SWAP2 AND PUSH1 0x4 DUP3 ADD MSTORE PUSH1 0x24 DUP2 ADD DUP8 SWAP1 MSTORE PUSH1 0x44 ADD PUSH1 0x20 PUSH1 0x40 MLOAD DUP1 DUP4 SUB DUP2 PUSH1 0x0 DUP8 GAS CALL ISZERO DUP1 ISZERO PUSH2 0x1FDF JUMPI RETURNDATASIZE PUSH1 0x0 DUP1 RETURNDATACOPY RETURNDATASIZE PUSH1 0x0 REVERT JUMPDEST POP POP POP POP PUSH1 0x40 MLOAD RETURNDATASIZE PUSH1 0x1F NOT PUSH1 0x1F DUP3 ADD AND DUP3 ADD DUP1 PUSH1 0x40 MSTORE POP DUP2 ADD SWAP1 PUSH2 0x2003 SWAP2 SWAP1 PUSH2 0x252B JUMP JUMPDEST PUSH2 0x2046 JUMPI PUSH1 0x40 MLOAD PUSH3 0x461BCD PUSH1 0xE5 SHL DUP2 MSTORE PUSH1 0x20 PUSH1 0x4 DUP3 ADD MSTORE PUSH1 0x14 PUSH1 0x24 DUP3 ADD MSTORE PUSH20 0x1554D115081D1C985B9CD9995C8819985A5B1959 PUSH1 0x62 SHL PUSH1 0x44 DUP3 ADD MSTORE PUSH1 0x64 ADD PUSH2 0x251 JUMP JUMPDEST PUSH1 0xE SLOAD PUSH1 0x1 PUSH1 0x1 PUSH1 0xA0 SHL SUB AND PUSH4 0xA9059CBB PUSH2 0x2069 PUSH1 0x0 SLOAD PUSH1 0x1 PUSH1 0x1 PUSH1 0xA0 SHL SUB AND SWAP1 JUMP JUMPDEST PUSH1 0x40 MLOAD PUSH1 0x1 PUSH1 0x1 PUSH1 0xE0 SHL SUB NOT PUSH1 0xE0 DUP5 SWAP1 SHL AND DUP2 MSTORE PUSH1 0x1 PUSH1 0x1 PUSH1 0xA0 SHL SUB SWAP1 SWAP2 AND PUSH1 0x4 DUP3 ADD MSTORE PUSH1 0x24 DUP2 ADD DUP6 SWAP1 MSTORE PUSH1 0x44 ADD PUSH1 0x20 PUSH1 0x40 MLOAD DUP1 DUP4 SUB DUP2 PUSH1 0x0 DUP8 GAS CALL ISZERO DUP1 ISZERO PUSH2 0x20B6 JUMPI RETURNDATASIZE PUSH1 0x0 DUP1 RETURNDATACOPY RETURNDATASIZE PUSH1 0x0 REVERT JUMPDEST POP POP POP POP PUSH1 0x40 MLOAD RETURNDATASIZE PUSH1 0x1F NOT PUSH1 0x1F DUP3 ADD AND DUP3 ADD DUP1 PUSH1 0x40 MSTORE POP DUP2 ADD SWAP1 PUSH2 0x20DA SWAP2 SWAP1 PUSH2 0x252B JUMP JUMPDEST PUSH2 0x211D JUMPI PUSH1 0x40 MLOAD PUSH3 0x461BCD PUSH1 0xE5 SHL DUP2 MSTORE PUSH1 0x20 PUSH1 0x4 DUP3 ADD MSTORE PUSH1 0x14 PUSH1 0x24 DUP3 ADD MSTORE PUSH20 0x1554D110C81D1C985B9CD9995C8819985A5B1959 PUSH1 0x62 SHL PUSH1 0x44 DUP3 ADD MSTORE PUSH1 0x64 ADD PUSH2 0x251 JUMP JUMPDEST POP POP POP POP JUMP JUMPDEST PUSH1 0x0 DUP1 SLOAD PUSH1 0x1 PUSH1 0x1 PUSH1 0xA0 SHL SUB DUP4 DUP2 AND PUSH1 0x1 PUSH1 0x1 PUSH1 0xA0 SHL SUB NOT DUP4 AND DUP2 OR DUP5 SSTORE PUSH1 0x40 MLOAD SWAP2 SWAP1 SWAP3 AND SWAP3 DUP4 SWAP2 PUSH32 0x8BE0079C531659141344CD1FD0A4F28419497F9722A3DAAFE3B4186F6B6457E0 SWAP2 SWAP1 LOG3 POP POP JUMP JUMPDEST DUP1 CALLDATALOAD PUSH1 0x3 DUP2 LT PUSH2 0x2182 JUMPI PUSH1 0x0 DUP1 REVERT JUMPDEST SWAP2 SWAP1 POP JUMP JUMPDEST PUSH1 0x0 DUP1 PUSH1 0x40 DUP4 DUP6 SUB SLT ISZERO PUSH2 0x219A JUMPI PUSH1 0x0 DUP1 REVERT JUMPDEST PUSH2 0x21A3 DUP4 PUSH2 0x2173 JUMP JUMPDEST SWAP5 PUSH1 0x20 SWAP4 SWAP1 SWAP4 ADD CALLDATALOAD SWAP4 POP POP POP JUMP JUMPDEST PUSH1 0x0 PUSH1 0x20 DUP3 DUP5 SUB SLT ISZERO PUSH2 0x21C3 JUMPI PUSH1 0x0 DUP1 REVERT JUMPDEST PUSH2 0x21CC DUP3 PUSH2 0x2173 JUMP JUMPDEST SWAP4 SWAP3 POP POP POP JUMP JUMPDEST PUSH1 0x0 PUSH1 0x20 DUP3 DUP5 SUB SLT ISZERO PUSH2 0x21E5 JUMPI PUSH1 0x0 DUP1 REVERT JUMPDEST POP CALLDATALOAD SWAP2 SWAP1 POP JUMP JUMPDEST PUSH1 0x0 DUP1 PUSH1 0x0 PUSH1 0x60 DUP5 DUP7 SUB SLT ISZERO PUSH2 0x2201 JUMPI PUSH1 0x0 DUP1 REVERT JUMPDEST POP POP DUP2 CALLDATALOAD SWAP4 PUSH1 0x20 DUP4 ADD CALLDATALOAD SWAP4 POP PUSH1 0x40 SWAP1 SWAP3 ADD CALLDATALOAD SWAP2 SWAP1 POP JUMP JUMPDEST DUP1 CALLDATALOAD PUSH1 0x1 PUSH1 0x1 PUSH1 0xA0 SHL SUB DUP2 AND DUP2 EQ PUSH2 0x2182 JUMPI PUSH1 0x0 DUP1 REVERT JUMPDEST PUSH1 0x0 PUSH1 0x20 DUP3 DUP5 SUB SLT ISZERO PUSH2 0x2241 JUMPI PUSH1 0x0 DUP1 REVERT JUMPDEST PUSH2 0x21CC DUP3 PUSH2 0x2218 JUMP JUMPDEST PUSH4 0x4E487B71 PUSH1 0xE0 SHL PUSH1 0x0 MSTORE PUSH1 0x21 PUSH1 0x4 MSTORE PUSH1 0x24 PUSH1 0x0 REVERT JUMPDEST PUSH1 0x3 DUP2 LT PUSH2 0x227E JUMPI PUSH4 0x4E487B71 PUSH1 0xE0 SHL PUSH1 0x0 MSTORE PUSH1 0x21 PUSH1 0x4 MSTORE PUSH1 0x24 PUSH1 0x0 REVERT JUMPDEST SWAP1 MSTORE JUMP JUMPDEST PUSH1 0x20 DUP2 ADD PUSH2 0x924 DUP3 DUP5 PUSH2 0x2260 JUMP JUMPDEST PUSH1 0x0 DUP1 PUSH1 0x40 DUP4 DUP6 SUB SLT ISZERO PUSH2 0x22A3 JUMPI PUSH1 0x0 DUP1 REVERT JUMPDEST PUSH2 0x22AC DUP4 PUSH2 0x2218 JUMP JUMPDEST SWAP2 POP PUSH2 0x22BA PUSH1 0x20 DUP5 ADD PUSH2 0x2173 JUMP JUMPDEST SWAP1 POP SWAP3 POP SWAP3 SWAP1 POP JUMP JUMPDEST PUSH4 0x4E487B71 PUSH1 0xE0 SHL PUSH1 0x0 MSTORE PUSH1 0x11 PUSH1 0x4 MSTORE PUSH1 0x24 PUSH1 0x0 REVERT JUMPDEST DUP1 DUP3 MUL PUSH1 0x0 DUP3 SLT PUSH1 0x1 PUSH1 0xFF SHL DUP5 EQ AND ISZERO PUSH2 0x22F5 JUMPI PUSH2 0x22F5 PUSH2 0x22C3 JUMP JUMPDEST DUP2 DUP2 SDIV DUP4 EQ DUP3 ISZERO OR PUSH2 0x924 JUMPI PUSH2 0x924 PUSH2 0x22C3 JUMP JUMPDEST DUP1 DUP3 MUL DUP2 ISZERO DUP3 DUP3 DIV DUP5 EQ OR PUSH2 0x924 JUMPI PUSH2 0x924 PUSH2 0x22C3 JUMP JUMPDEST PUSH1 0x0 DUP3 PUSH2 0x233D JUMPI PUSH4 0x4E487B71 PUSH1 0xE0 SHL PUSH1 0x0 MSTORE PUSH1 0x12 PUSH1 0x4 MSTORE PUSH1 0x24 PUSH1 0x0 REVERT JUMPDEST POP DIV SWAP1 JUMP JUMPDEST DUP2 DUP2 SUB DUP2 DUP2 GT ISZERO PUSH2 0x924 JUMPI PUSH2 0x924 PUSH2 0x22C3 JUMP JUMPDEST PUSH1 0x1 DUP2 JUMPDEST PUSH1 0x1 DUP5 GT ISZERO PUSH2 0x2390 JUMPI DUP1 DUP6 DIV DUP2 GT ISZERO PUSH2 0x2374 JUMPI PUSH2 0x2374 PUSH2 0x22C3 JUMP JUMPDEST PUSH1 0x1 DUP5 AND ISZERO PUSH2 0x2382 JUMPI SWAP1 DUP2 MUL SWAP1 JUMPDEST PUSH1 0x1 SWAP4 SWAP1 SWAP4 SHR SWAP3 DUP1 MUL PUSH2 0x2359 JUMP JUMPDEST SWAP4 POP SWAP4 SWAP2 POP POP JUMP JUMPDEST PUSH1 0x0 DUP3 PUSH2 0x23A7 JUMPI POP PUSH1 0x1 PUSH2 0x924 JUMP JUMPDEST DUP2 PUSH2 0x23B4 JUMPI POP PUSH1 0x0 PUSH2 0x924 JUMP JUMPDEST DUP2 PUSH1 0x1 DUP2 EQ PUSH2 0x23CA JUMPI PUSH1 0x2 DUP2 EQ PUSH2 0x23D4 JUMPI PUSH2 0x23F0 JUMP JUMPDEST PUSH1 0x1 SWAP2 POP POP PUSH2 0x924 JUMP JUMPDEST PUSH1 0xFF DUP5 GT ISZERO PUSH2 0x23E5 JUMPI PUSH2 0x23E5 PUSH2 0x22C3 JUMP JUMPDEST POP POP PUSH1 0x1 DUP3 SHL PUSH2 0x924 JUMP JUMPDEST POP PUSH1 0x20 DUP4 LT PUSH2 0x133 DUP4 LT AND PUSH1 0x4E DUP5 LT PUSH1 0xB DUP5 LT AND OR ISZERO PUSH2 0x2413 JUMPI POP DUP2 DUP2 EXP PUSH2 0x924 JUMP JUMPDEST PUSH2 0x2420 PUSH1 0x0 NOT DUP5 DUP5 PUSH2 0x2355 JUMP JUMPDEST DUP1 PUSH1 0x0 NOT DIV DUP3 GT ISZERO PUSH2 0x2434 JUMPI PUSH2 0x2434 PUSH2 0x22C3 JUMP JUMPDEST MUL SWAP4 SWAP3 POP POP POP JUMP JUMPDEST PUSH1 0x0 PUSH2 0x21CC DUP4 DUP4 PUSH2 0x2398 JUMP JUMPDEST DUP1 MLOAD PUSH10 0xFFFFFFFFFFFFFFFFFFFF DUP2 AND DUP2 EQ PUSH2 0x2182 JUMPI PUSH1 0x0 DUP1 REVERT JUMPDEST PUSH1 0x0 DUP1 PUSH1 0x0 DUP1 PUSH1 0x0 PUSH1 0xA0 DUP7 DUP9 SUB SLT ISZERO PUSH2 0x247A JUMPI PUSH1 0x0 DUP1 REVERT JUMPDEST PUSH2 0x2483 DUP7 PUSH2 0x2448 JUMP JUMPDEST PUSH1 0x20 DUP8 ADD MLOAD PUSH1 0x40 DUP9 ADD MLOAD PUSH1 0x60 DUP10 ADD MLOAD SWAP3 SWAP8 POP SWAP1 SWAP6 POP SWAP4 POP SWAP2 POP PUSH2 0x24A8 PUSH1 0x80 DUP8 ADD PUSH2 0x2448 JUMP JUMPDEST SWAP1 POP SWAP3 SWAP6 POP SWAP3 SWAP6 SWAP1 SWAP4 POP JUMP JUMPDEST PUSH1 0x0 PUSH1 0x20 DUP3 DUP5 SUB SLT ISZERO PUSH2 0x24C6 JUMPI PUSH1 0x0 DUP1 REVERT JUMPDEST POP MLOAD SWAP2 SWAP1 POP JUMP JUMPDEST PUSH1 0x20 DUP1 DUP3 MSTORE PUSH1 0x15 SWAP1 DUP3 ADD MSTORE PUSH21 0x1250D3C8185B1C9958591E48199A5B985B1A5E9959 PUSH1 0x5A SHL PUSH1 0x40 DUP3 ADD MSTORE PUSH1 0x60 ADD SWAP1 JUMP JUMPDEST PUSH1 0x0 PUSH1 0x1 DUP3 ADD PUSH2 0x250E JUMPI PUSH2 0x250E PUSH2 0x22C3 JUMP JUMPDEST POP PUSH1 0x1 ADD SWAP1 JUMP JUMPDEST PUSH4 0x4E487B71 PUSH1 0xE0 SHL PUSH1 0x0 MSTORE PUSH1 0x32 PUSH1 0x4 MSTORE PUSH1 0x24 PUSH1 0x0 REVERT JUMPDEST PUSH1 0x0 PUSH1 0x20 DUP3 DUP5 SUB SLT ISZERO PUSH2 0x253D JUMPI PUSH1 0x0 DUP1 REVERT JUMPDEST DUP2 MLOAD DUP1 ISZERO ISZERO DUP2 EQ PUSH2 0x21CC JUMPI PUSH1 0x0 DUP1 REVERT JUMPDEST DUP3 DUP2 MSTORE PUSH1 0x40 DUP2 ADD PUSH2 0x21CC PUSH1 0x20 DUP4 ADD DUP5 PUSH2 0x2260 JUMP JUMPDEST DUP1 DUP3 ADD DUP1 DUP3 GT ISZERO PUSH2 0x924 JUMPI PUSH2 0x924 PUSH2 0x22C3 JUMP JUMPDEST DUP5 DUP2 MSTORE PUSH1 0x20 DUP2 ADD DUP5 SWAP1 MSTORE PUSH1 0x40 DUP2 ADD DUP4 SWAP1 MSTORE PUSH1 0x80 DUP2 ADD PUSH2 0x2596 PUSH1 0x60 DUP4 ADD DUP5 PUSH2 0x2260 JUMP JUMPDEST SWAP6 SWAP5 POP POP POP POP POP JUMP INVALID LOG2 PUSH5 0x6970667358 0x22 SLT KECCAK256 SWAP8 REVERT 0xCC 0xC1 0xA6 0xAE DUP5 SWAP4 DUP15 0x4F CALLER 0xAF 0x1E LT 0xE8 DELEGATECALL CALL 0xB5 POP SIGNEXTEND CODESIZE 0xE2 SWAP1 0xD PUSH27 0x9818A41FE1349164736F6C634300081A0033000000000000000000 "
		},
		"gasEstimates": {
			"creation": {
				"codeDepositCost": "1937000",
				"executionCost": "infinite",
				"totalCost": "infinite"
			},
			"external": {
				"_getPriceFeed(uint8)": "infinite",
				"airdropTokens()": "infinite",
				"buyTokens(uint8,uint256)": "infinite",
				"calculatePaymentAmount(uint8,uint256)": "infinite",
				"calculateTokenAmount(uint8,uint256)": "infinite",
				"contributionsInUSD(address)": "2575",
				"createSale(uint256,uint256,uint256)": "135254",
				"finalizeICO()": "infinite",
				"getCurrentSaleId()": "2327",
				"getHardCapReached()": "4494",
				"getInvestorCount()": "2326",
				"getSaleStartEndTime(uint256)": "13192",
				"getSoftCapReached()": "4465",
				"hardCapInUSD()": "2417",
				"initiateRefund()": "infinite",
				"investorPayments(address,uint8)": "infinite",
				"investors(uint256)": "4682",
				"isICOFinalized()": "2399",
				"isTokensAirdropped()": "2411",
				"owner()": "2377",
				"paymentMethodForInvestor(address)": "2650",
				"priceFeedBNB()": "2404",
				"priceFeedUSDC()": "2448",
				"priceFeedUSDT()": "2449",
				"renounceOwnership()": "infinite",
				"saleCount()": "2373",
				"sales(uint256)": "11105",
				"softCapInUSD()": "2352",
				"token()": "2469",
				"tokensBoughtByInvestor(address)": "2574",
				"totalFundsRaisedUSD()": "2395",
				"totalTokensSold()": "2329",
				"transferOwnership(address)": "28443",
				"usdc()": "2383",
				"usdt()": "2449"
			},
			"internal": {
				"_transferFundsToOwner()": "infinite",
				"getLatestSaleEndTime()": "infinite"
			}
		},
		"methodIdentifiers": {
			"_getPriceFeed(uint8)": "115afc3a",
			"airdropTokens()": "91152c5c",
			"buyTokens(uint8,uint256)": "940c333e",
			"calculatePaymentAmount(uint8,uint256)": "117d260f",
			"calculateTokenAmount(uint8,uint256)": "05834e67",
			"contributionsInUSD(address)": "c81ffdea",
			"createSale(uint256,uint256,uint256)": "6c1909ed",
			"finalizeICO()": "23cc75a8",
			"getCurrentSaleId()": "212ea247",
			"getHardCapReached()": "91d8730a",
			"getInvestorCount()": "960524e3",
			"getSaleStartEndTime(uint256)": "c211e1f9",
			"getSoftCapReached()": "06e4d36f",
			"hardCapInUSD()": "c1560a14",
			"initiateRefund()": "7fb12001",
			"investorPayments(address,uint8)": "efdcdb45",
			"investors(uint256)": "3feb5f2b",
			"isICOFinalized()": "d1f3b23e",
			"isTokensAirdropped()": "4dee1dc3",
			"owner()": "8da5cb5b",
			"paymentMethodForInvestor(address)": "df4e0593",
			"priceFeedBNB()": "99131e7e",
			"priceFeedUSDC()": "d3d9d1e4",
			"priceFeedUSDT()": "62a469e9",
			"renounceOwnership()": "715018a6",
			"saleCount()": "a1e89aec",
			"sales(uint256)": "b5f522f7",
			"softCapInUSD()": "2151206e",
			"token()": "fc0c546a",
			"tokensBoughtByInvestor(address)": "e8e87389",
			"totalFundsRaisedUSD()": "721bc38b",
			"totalTokensSold()": "63b20117",
			"transferOwnership(address)": "f2fde38b",
			"usdc()": "3e413bee",
			"usdt()": "2f48ab7d"
		}
	},
	"abi": [
		{
			"inputs": [
				{
					"internalType": "contract icotoken",
					"name": "_token",
					"type": "address"
				},
				{
					"internalType": "address",
					"name": "_usdt",
					"type": "address"
				},
				{
					"internalType": "address",
					"name": "_usdc",
					"type": "address"
				},
				{
					"internalType": "uint256",
					"name": "_softCapInUSD",
					"type": "uint256"
				},
				{
					"internalType": "uint256",
					"name": "_hardCapInUSD",
					"type": "uint256"
				},
				{
					"internalType": "address",
					"name": "_priceFeedBNB",
					"type": "address"
				},
				{
					"internalType": "address",
					"name": "_priceFeedUSDT",
					"type": "address"
				},
				{
					"internalType": "address",
					"name": "_priceFeedUSDC",
					"type": "address"
				}
			],
			"stateMutability": "nonpayable",
			"type": "constructor"
		},
		{
			"inputs": [
				{
					"internalType": "address",
					"name": "owner",
					"type": "address"
				}
			],
			"name": "OwnableInvalidOwner",
			"type": "error"
		},
		{
			"inputs": [
				{
					"internalType": "address",
					"name": "account",
					"type": "address"
				}
			],
			"name": "OwnableUnauthorizedAccount",
			"type": "error"
		},
		{
			"inputs": [],
			"name": "ReentrancyGuardReentrantCall",
			"type": "error"
		},
		{
			"anonymous": false,
			"inputs": [
				{
					"indexed": true,
					"internalType": "uint256",
					"name": "totalTokensSold",
					"type": "uint256"
				}
			],
			"name": "ICOFinalized",
			"type": "event"
		},
		{
			"anonymous": false,
			"inputs": [
				{
					"indexed": true,
					"internalType": "uint256",
					"name": "saleId",
					"type": "uint256"
				}
			],
			"name": "ImmediateFinalization",
			"type": "event"
		},
		{
			"anonymous": false,
			"inputs": [
				{
					"indexed": true,
					"internalType": "uint256",
					"name": "saleId",
					"type": "uint256"
				},
				{
					"indexed": false,
					"internalType": "uint256",
					"name": "startTime",
					"type": "uint256"
				},
				{
					"indexed": false,
					"internalType": "uint256",
					"name": "endTime",
					"type": "uint256"
				},
				{
					"indexed": false,
					"internalType": "uint256",
					"name": "tokenPriceUSD",
					"type": "uint256"
				}
			],
			"name": "NewSaleCreated",
			"type": "event"
		},
		{
			"anonymous": false,
			"inputs": [
				{
					"indexed": true,
					"internalType": "address",
					"name": "previousOwner",
					"type": "address"
				},
				{
					"indexed": true,
					"internalType": "address",
					"name": "newOwner",
					"type": "address"
				}
			],
			"name": "OwnershipTransferred",
			"type": "event"
		},
		{
			"anonymous": false,
			"inputs": [
				{
					"indexed": true,
					"internalType": "address",
					"name": "investor",
					"type": "address"
				},
				{
					"indexed": false,
					"internalType": "uint256",
					"name": "amount",
					"type": "uint256"
				},
				{
					"indexed": false,
					"internalType": "enum ICO.PaymentMethod",
					"name": "paymentMethod",
					"type": "uint8"
				}
			],
			"name": "RefundInitiated",
			"type": "event"
		},
		{
			"anonymous": false,
			"inputs": [
				{
					"indexed": true,
					"internalType": "address",
					"name": "investor",
					"type": "address"
				},
				{
					"indexed": false,
					"internalType": "uint256",
					"name": "airdroppedAmount",
					"type": "uint256"
				}
			],
			"name": "TokenAirdropped",
			"type": "event"
		},
		{
			"anonymous": false,
			"inputs": [
				{
					"indexed": true,
					"internalType": "address",
					"name": "buyer",
					"type": "address"
				},
				{
					"indexed": true,
					"internalType": "uint256",
					"name": "saleId",
					"type": "uint256"
				},
				{
					"indexed": false,
					"internalType": "uint256",
					"name": "tokenPurchaseAmount",
					"type": "uint256"
				},
				{
					"indexed": false,
					"internalType": "uint256",
					"name": "tokenPriceUSD",
					"type": "uint256"
				},
				{
					"indexed": false,
					"internalType": "uint256",
					"name": "amountPaid",
					"type": "uint256"
				},
				{
					"indexed": false,
					"internalType": "enum ICO.PaymentMethod",
					"name": "paymentMethod",
					"type": "uint8"
				}
			],
			"name": "TokensPurchased",
			"type": "event"
		},
		{
			"inputs": [
				{
					"internalType": "enum ICO.PaymentMethod",
					"name": "paymentMethod",
					"type": "uint8"
				}
			],
			"name": "_getPriceFeed",
			"outputs": [
				{
					"internalType": "int256",
					"name": "",
					"type": "int256"
				}
			],
			"stateMutability": "view",
			"type": "function"
		},
		{
			"inputs": [],
			"name": "airdropTokens",
			"outputs": [],
			"stateMutability": "nonpayable",
			"type": "function"
		},
		{
			"inputs": [
				{
					"internalType": "enum ICO.PaymentMethod",
					"name": "paymentMethod",
					"type": "uint8"
				},
				{
					"internalType": "uint256",
					"name": "paymentAmount",
					"type": "uint256"
				}
			],
			"name": "buyTokens",
			"outputs": [],
			"stateMutability": "payable",
			"type": "function"
		},
		{
			"inputs": [
				{
					"internalType": "enum ICO.PaymentMethod",
					"name": "paymentMethod",
					"type": "uint8"
				},
				{
					"internalType": "uint256",
					"name": "tokenAmount",
					"type": "uint256"
				}
			],
			"name": "calculatePaymentAmount",
			"outputs": [
				{
					"internalType": "uint256",
					"name": "",
					"type": "uint256"
				}
			],
			"stateMutability": "view",
			"type": "function"
		},
		{
			"inputs": [
				{
					"internalType": "enum ICO.PaymentMethod",
					"name": "paymentMethod",
					"type": "uint8"
				},
				{
					"internalType": "uint256",
					"name": "paymentAmount",
					"type": "uint256"
				}
			],
			"name": "calculateTokenAmount",
			"outputs": [
				{
					"internalType": "uint256",
					"name": "",
					"type": "uint256"
				}
			],
			"stateMutability": "view",
			"type": "function"
		},
		{
			"inputs": [
				{
					"internalType": "address",
					"name": "",
					"type": "address"
				}
			],
			"name": "contributionsInUSD",
			"outputs": [
				{
					"internalType": "uint256",
					"name": "",
					"type": "uint256"
				}
			],
			"stateMutability": "view",
			"type": "function"
		},
		{
			"inputs": [
				{
					"internalType": "uint256",
					"name": "_startTime",
					"type": "uint256"
				},
				{
					"internalType": "uint256",
					"name": "_endTime",
					"type": "uint256"
				},
				{
					"internalType": "uint256",
					"name": "_tokenPriceUSD",
					"type": "uint256"
				}
			],
			"name": "createSale",
			"outputs": [],
			"stateMutability": "nonpayable",
			"type": "function"
		},
		{
			"inputs": [],
			"name": "finalizeICO",
			"outputs": [],
			"stateMutability": "nonpayable",
			"type": "function"
		},
		{
			"inputs": [],
			"name": "getCurrentSaleId",
			"outputs": [
				{
					"internalType": "uint256",
					"name": "",
					"type": "uint256"
				}
			],
			"stateMutability": "view",
			"type": "function"
		},
		{
			"inputs": [],
			"name": "getHardCapReached",
			"outputs": [
				{
					"internalType": "bool",
					"name": "",
					"type": "bool"
				}
			],
			"stateMutability": "view",
			"type": "function"
		},
		{
			"inputs": [],
			"name": "getInvestorCount",
			"outputs": [
				{
					"internalType": "uint256",
					"name": "investorCount",
					"type": "uint256"
				}
			],
			"stateMutability": "view",
			"type": "function"
		},
		{
			"inputs": [
				{
					"internalType": "uint256",
					"name": "_saleId",
					"type": "uint256"
				}
			],
			"name": "getSaleStartEndTime",
			"outputs": [
				{
					"internalType": "uint256",
					"name": "_startTime",
					"type": "uint256"
				},
				{
					"internalType": "uint256",
					"name": "_endTime",
					"type": "uint256"
				}
			],
			"stateMutability": "view",
			"type": "function"
		},
		{
			"inputs": [],
			"name": "getSoftCapReached",
			"outputs": [
				{
					"internalType": "bool",
					"name": "",
					"type": "bool"
				}
			],
			"stateMutability": "view",
			"type": "function"
		},
		{
			"inputs": [],
			"name": "hardCapInUSD",
			"outputs": [
				{
					"internalType": "uint256",
					"name": "",
					"type": "uint256"
				}
			],
			"stateMutability": "view",
			"type": "function"
		},
		{
			"inputs": [],
			"name": "initiateRefund",
			"outputs": [],
			"stateMutability": "nonpayable",
			"type": "function"
		},
		{
			"inputs": [
				{
					"internalType": "address",
					"name": "",
					"type": "address"
				},
				{
					"internalType": "enum ICO.PaymentMethod",
					"name": "",
					"type": "uint8"
				}
			],
			"name": "investorPayments",
			"outputs": [
				{
					"internalType": "uint256",
					"name": "",
					"type": "uint256"
				}
			],
			"stateMutability": "view",
			"type": "function"
		},
		{
			"inputs": [
				{
					"internalType": "uint256",
					"name": "",
					"type": "uint256"
				}
			],
			"name": "investors",
			"outputs": [
				{
					"internalType": "address",
					"name": "",
					"type": "address"
				}
			],
			"stateMutability": "view",
			"type": "function"
		},
		{
			"inputs": [],
			"name": "isICOFinalized",
			"outputs": [
				{
					"internalType": "bool",
					"name": "",
					"type": "bool"
				}
			],
			"stateMutability": "view",
			"type": "function"
		},
		{
			"inputs": [],
			"name": "isTokensAirdropped",
			"outputs": [
				{
					"internalType": "bool",
					"name": "",
					"type": "bool"
				}
			],
			"stateMutability": "view",
			"type": "function"
		},
		{
			"inputs": [],
			"name": "owner",
			"outputs": [
				{
					"internalType": "address",
					"name": "",
					"type": "address"
				}
			],
			"stateMutability": "view",
			"type": "function"
		},
		{
			"inputs": [
				{
					"internalType": "address",
					"name": "",
					"type": "address"
				}
			],
			"name": "paymentMethodForInvestor",
			"outputs": [
				{
					"internalType": "enum ICO.PaymentMethod",
					"name": "",
					"type": "uint8"
				}
			],
			"stateMutability": "view",
			"type": "function"
		},
		{
			"inputs": [],
			"name": "priceFeedBNB",
			"outputs": [
				{
					"internalType": "contract AggregatorV3Interface",
					"name": "",
					"type": "address"
				}
			],
			"stateMutability": "view",
			"type": "function"
		},
		{
			"inputs": [],
			"name": "priceFeedUSDC",
			"outputs": [
				{
					"internalType": "contract AggregatorV3Interface",
					"name": "",
					"type": "address"
				}
			],
			"stateMutability": "view",
			"type": "function"
		},
		{
			"inputs": [],
			"name": "priceFeedUSDT",
			"outputs": [
				{
					"internalType": "contract AggregatorV3Interface",
					"name": "",
					"type": "address"
				}
			],
			"stateMutability": "view",
			"type": "function"
		},
		{
			"inputs": [],
			"name": "renounceOwnership",
			"outputs": [],
			"stateMutability": "nonpayable",
			"type": "function"
		},
		{
			"inputs": [],
			"name": "saleCount",
			"outputs": [
				{
					"internalType": "uint256",
					"name": "",
					"type": "uint256"
				}
			],
			"stateMutability": "view",
			"type": "function"
		},
		{
			"inputs": [
				{
					"internalType": "uint256",
					"name": "",
					"type": "uint256"
				}
			],
			"name": "sales",
			"outputs": [
				{
					"internalType": "uint256",
					"name": "startTime",
					"type": "uint256"
				},
				{
					"internalType": "uint256",
					"name": "endTime",
					"type": "uint256"
				},
				{
					"internalType": "uint256",
					"name": "tokenPriceUSD",
					"type": "uint256"
				},
				{
					"internalType": "uint256",
					"name": "tokensSold",
					"type": "uint256"
				},
				{
					"internalType": "bool",
					"name": "isFinalized",
					"type": "bool"
				}
			],
			"stateMutability": "view",
			"type": "function"
		},
		{
			"inputs": [],
			"name": "softCapInUSD",
			"outputs": [
				{
					"internalType": "uint256",
					"name": "",
					"type": "uint256"
				}
			],
			"stateMutability": "view",
			"type": "function"
		},
		{
			"inputs": [],
			"name": "token",
			"outputs": [
				{
					"internalType": "contract icotoken",
					"name": "",
					"type": "address"
				}
			],
			"stateMutability": "view",
			"type": "function"
		},
		{
			"inputs": [
				{
					"internalType": "address",
					"name": "",
					"type": "address"
				}
			],
			"name": "tokensBoughtByInvestor",
			"outputs": [
				{
					"internalType": "uint256",
					"name": "",
					"type": "uint256"
				}
			],
			"stateMutability": "view",
			"type": "function"
		},
		{
			"inputs": [],
			"name": "totalFundsRaisedUSD",
			"outputs": [
				{
					"internalType": "uint256",
					"name": "",
					"type": "uint256"
				}
			],
			"stateMutability": "view",
			"type": "function"
		},
		{
			"inputs": [],
			"name": "totalTokensSold",
			"outputs": [
				{
					"internalType": "uint256",
					"name": "",
					"type": "uint256"
				}
			],
			"stateMutability": "view",
			"type": "function"
		},
		{
			"inputs": [
				{
					"internalType": "address",
					"name": "newOwner",
					"type": "address"
				}
			],
			"name": "transferOwnership",
			"outputs": [],
			"stateMutability": "nonpayable",
			"type": "function"
		},
		{
			"inputs": [],
			"name": "usdc",
			"outputs": [
				{
					"internalType": "address",
					"name": "",
					"type": "address"
				}
			],
			"stateMutability": "view",
			"type": "function"
		},
		{
			"inputs": [],
			"name": "usdt",
			"outputs": [
				{
					"internalType": "address",
					"name": "",
					"type": "address"
				}
			],
			"stateMutability": "view",
			"type": "function"
		},
		{
			"stateMutability": "payable",
			"type": "receive"
		}
	]
}