{
	"data": {
		"bytecode": {
			"linkReferences": {},
			"object": "60806040526000600b60006101000a81548160ff0219169083151502179055506000600b60016101000a81548160ff0219169083151502179055506000600b60026101000a81548160ff02191690831515021790555034801561006157600080fd5b5060405161527838038061527883398181016040528101906100839190610449565b33600073ffffffffffffffffffffffffffffffffffffffff168173ffffffffffffffffffffffffffffffffffffffff16036100f65760006040517f1e4fbdf70000000000000000000000000000000000000000000000000000000081526004016100ed919061050e565b60405180910390fd5b610105816102ae60201b60201c565b506001808190555087600560006101000a81548173ffffffffffffffffffffffffffffffffffffffff021916908373ffffffffffffffffffffffffffffffffffffffff160217905550846006819055508360078190555086600d60006101000a81548173ffffffffffffffffffffffffffffffffffffffff021916908373ffffffffffffffffffffffffffffffffffffffff16021790555085600e60006101000a81548173ffffffffffffffffffffffffffffffffffffffff021916908373ffffffffffffffffffffffffffffffffffffffff16021790555082600260006101000a81548173ffffffffffffffffffffffffffffffffffffffff021916908373ffffffffffffffffffffffffffffffffffffffff16021790555081600360006101000a81548173ffffffffffffffffffffffffffffffffffffffff021916908373ffffffffffffffffffffffffffffffffffffffff16021790555080600460006101000a81548173ffffffffffffffffffffffffffffffffffffffff021916908373ffffffffffffffffffffffffffffffffffffffff1602179055505050505050505050610529565b60008060009054906101000a900473ffffffffffffffffffffffffffffffffffffffff169050816000806101000a81548173ffffffffffffffffffffffffffffffffffffffff021916908373ffffffffffffffffffffffffffffffffffffffff1602179055508173ffffffffffffffffffffffffffffffffffffffff168173ffffffffffffffffffffffffffffffffffffffff167f8be0079c531659141344cd1fd0a4f28419497f9722a3daafe3b4186f6b6457e060405160405180910390a35050565b600080fd5b600073ffffffffffffffffffffffffffffffffffffffff82169050919050565b60006103a282610377565b9050919050565b60006103b482610397565b9050919050565b6103c4816103a9565b81146103cf57600080fd5b50565b6000815190506103e1816103bb565b92915050565b6103f081610397565b81146103fb57600080fd5b50565b60008151905061040d816103e7565b92915050565b6000819050919050565b61042681610413565b811461043157600080fd5b50565b6000815190506104438161041d565b92915050565b600080600080600080600080610100898b03121561046a57610469610372565b5b60006104788b828c016103d2565b98505060206104898b828c016103fe565b975050604061049a8b828c016103fe565b96505060606104ab8b828c01610434565b95505060806104bc8b828c01610434565b94505060a06104cd8b828c016103fe565b93505060c06104de8b828c016103fe565b92505060e06104ef8b828c016103fe565b9150509295985092959890939650565b61050881610397565b82525050565b600060208201905061052360008301846104ff565b92915050565b614d40806105386000396000f3fe60806040526004361061024a5760003560e01c80638da5cb5b11610139578063c211e1f9116100b6578063e8e873891161007a578063e8e87389146108b2578063efdcdb45146108ef578063f2fde38b1461092c578063f621cc4814610955578063fc0c546a14610992578063fcbca456146109bd5761028a565b8063c211e1f9146107a4578063c81ffdea146107e2578063d1f3b23e1461081f578063d3d9d1e41461084a578063df4e0593146108755761028a565b806399131e7e116100fd57806399131e7e146106b7578063a1e89aec146106e2578063b1caefd81461070d578063b5f522f714610738578063c1560a14146107795761028a565b80638da5cb5b1461060357806391152c5c1461062e57806391d8730a14610645578063940c333e14610670578063960524e31461068c5761028a565b80633e413bee116101c757806363b201171161018b57806363b20117146105565780636c1909ed14610581578063715018a6146105aa578063721bc38b146105c15780637fb12001146105ec5761028a565b80633e413bee1461046f5780633feb5f2b1461049a5780634a4c560d146104d75780634dee1dc31461050057806362a469e91461052b5761028a565b8063212ea2471161020e578063212ea2471461039a5780632151206e146103c557806322c0aec7146103f057806323cc75a81461042d5780632f48ab7d146104445761028a565b806305834e671461028f57806306e4d36f146102cc578063115afc3a146102f7578063117d260f146103345780631b152ac5146103715761028a565b3661028a576040517f08c379a000000000000000000000000000000000000000000000000000000000815260040161028190613466565b60405180910390fd5b600080fd5b34801561029b57600080fd5b506102b660048036038101906102b191906134e6565b6109e6565b6040516102c39190613535565b60405180910390f35b3480156102d857600080fd5b506102e1610be5565b6040516102ee919061356b565b60405180910390f35b34801561030357600080fd5b5061031e60048036038101906103199190613586565b610bf4565b60405161032b91906135cc565b60405180910390f35b34801561034057600080fd5b5061035b600480360381019061035691906134e6565b610e9e565b6040516103689190613535565b60405180910390f35b34801561037d57600080fd5b5061039860048036038101906103939190613613565b6110ee565b005b3480156103a657600080fd5b506103af6111a8565b6040516103bc9190613535565b60405180910390f35b3480156103d157600080fd5b506103da61124c565b6040516103e79190613535565b60405180910390f35b3480156103fc57600080fd5b50610417600480360381019061041291906136b1565b611252565b604051610424919061356b565b60405180910390f35b34801561043957600080fd5b50610442611272565b005b34801561045057600080fd5b50610459611542565b60405161046691906136ed565b60405180910390f35b34801561047b57600080fd5b50610484611568565b60405161049191906136ed565b60405180910390f35b3480156104a657600080fd5b506104c160048036038101906104bc9190613708565b61158e565b6040516104ce91906136ed565b60405180910390f35b3480156104e357600080fd5b506104fe60048036038101906104f991906136b1565b6115cd565b005b34801561050c57600080fd5b506105156116e2565b604051610522919061356b565b60405180910390f35b34801561053757600080fd5b506105406116f5565b60405161054d9190613794565b60405180910390f35b34801561056257600080fd5b5061056b61171b565b6040516105789190613535565b60405180910390f35b34801561058d57600080fd5b506105a860048036038101906105a391906137af565b611721565b005b3480156105b657600080fd5b506105bf61192c565b005b3480156105cd57600080fd5b506105d6611940565b6040516105e39190613535565b60405180910390f35b3480156105f857600080fd5b50610601611946565b005b34801561060f57600080fd5b50610618611f13565b60405161062591906136ed565b60405180910390f35b34801561063a57600080fd5b50610643611f3c565b005b34801561065157600080fd5b5061065a612203565b604051610667919061356b565b60405180910390f35b61068a600480360381019061068591906134e6565b612212565b005b34801561069857600080fd5b506106a1612a75565b6040516106ae9190613535565b60405180910390f35b3480156106c357600080fd5b506106cc612a82565b6040516106d99190613794565b60405180910390f35b3480156106ee57600080fd5b506106f7612aa8565b6040516107049190613535565b60405180910390f35b34801561071957600080fd5b50610722612aae565b60405161072f919061356b565b60405180910390f35b34801561074457600080fd5b5061075f600480360381019061075a9190613708565b612ac1565b604051610770959493929190613802565b60405180910390f35b34801561078557600080fd5b5061078e612b04565b60405161079b9190613535565b60405180910390f35b3480156107b057600080fd5b506107cb60048036038101906107c69190613708565b612b0a565b6040516107d9929190613855565b60405180910390f35b3480156107ee57600080fd5b50610809600480360381019061080491906136b1565b612b86565b6040516108169190613535565b60405180910390f35b34801561082b57600080fd5b50610834612b9e565b604051610841919061356b565b60405180910390f35b34801561085657600080fd5b5061085f612bb1565b60405161086c9190613794565b60405180910390f35b34801561088157600080fd5b5061089c600480360381019061089791906136b1565b612bd7565b6040516108a991906138f5565b60405180910390f35b3480156108be57600080fd5b506108d960048036038101906108d491906136b1565b612bf7565b6040516108e69190613535565b60405180910390f35b3480156108fb57600080fd5b5061091660048036038101906109119190613910565b612c0f565b6040516109239190613535565b60405180910390f35b34801561093857600080fd5b50610953600480360381019061094e91906136b1565b612c34565b005b34801561096157600080fd5b5061097c600480360381019061097791906136b1565b612cba565b604051610989919061356b565b60405180910390f35b34801561099e57600080fd5b506109a7612cda565b6040516109b49190613971565b60405180910390f35b3480156109c957600080fd5b506109e460048036038101906109df91906136b1565b612d00565b005b6000806402540be4006109f885610bf4565b610a0291906139bb565b905060008113610a47576040517f08c379a0000000000000000000000000000000000000000000000000000000008152600401610a3e90613a7f565b60405180910390fd5b6000610a516111a8565b90506000600f600083815260200190815260200160002090506000816002015490506000806002811115610a8857610a8761387e565b5b886002811115610a9b57610a9a61387e565b5b03610ac657670de0b6b3a76400008786610ab59190613a9f565b610abf9190613b10565b9050610bb3565b600280811115610ad957610ad861387e565b5b886002811115610aec57610aeb61387e565b5b1480610b1c575060016002811115610b0757610b0661387e565b5b886002811115610b1a57610b1961387e565b5b145b15610b77576000600690506000816012610b369190613b41565b600a610b429190613ca8565b89610b4d9190613a9f565b9050670de0b6b3a76400008188610b649190613a9f565b610b6e9190613b10565b92505050610bb2565b6040517f08c379a0000000000000000000000000000000000000000000000000000000008152600401610ba990613d3f565b60405180910390fd5b5b600082670de0b6b3a764000083610bca9190613a9f565b610bd49190613b10565b905080965050505050505092915050565b60006006546009541015905090565b6000806002811115610c0957610c0861387e565b5b826002811115610c1c57610c1b61387e565b5b03610cc3576000600260009054906101000a900473ffffffffffffffffffffffffffffffffffffffff1673ffffffffffffffffffffffffffffffffffffffff1663feaf968c6040518163ffffffff1660e01b815260040160a060405180830381865afa158015610c90573d6000803e3d6000fd5b505050506040513d601f19601f82011682018060405250810190610cb49190613de2565b50505091505080915050610e99565b60016002811115610cd757610cd661387e565b5b826002811115610cea57610ce961387e565b5b03610d91576000600360009054906101000a900473ffffffffffffffffffffffffffffffffffffffff1673ffffffffffffffffffffffffffffffffffffffff1663feaf968c6040518163ffffffff1660e01b815260040160a060405180830381865afa158015610d5e573d6000803e3d6000fd5b505050506040513d601f19601f82011682018060405250810190610d829190613de2565b50505091505080915050610e99565b600280811115610da457610da361387e565b5b826002811115610db757610db661387e565b5b03610e5e576000600460009054906101000a900473ffffffffffffffffffffffffffffffffffffffff1673ffffffffffffffffffffffffffffffffffffffff1663feaf968c6040518163ffffffff1660e01b815260040160a060405180830381865afa158015610e2b573d6000803e3d6000fd5b505050506040513d601f19601f82011682018060405250810190610e4f9190613de2565b50505091505080915050610e99565b6040517f08c379a0000000000000000000000000000000000000000000000000000000008152600401610e9090613d3f565b60405180910390fd5b919050565b6000808211610ee2576040517f08c379a0000000000000000000000000000000000000000000000000000000008152600401610ed990613ecf565b60405180910390fd5b60006402540be400610ef385610bf4565b610efd91906139bb565b905060008113610f42576040517f08c379a0000000000000000000000000000000000000000000000000000000008152600401610f3990613a7f565b60405180910390fd5b6000610f4c6111a8565b905060008103610f91576040517f08c379a0000000000000000000000000000000000000000000000000000000008152600401610f8890613f3b565b60405180910390fd5b6000600f600083815260200190815260200160002090506000816002015490506000670de0b6b3a76400008288610fc89190613a9f565b610fd29190613b10565b90506000806002811115610fe957610fe861387e565b5b896002811115610ffc57610ffb61387e565b5b036110275785670de0b6b3a7640000836110169190613a9f565b6110209190613b10565b90506110df565b6001600281111561103b5761103a61387e565b5b89600281111561104e5761104d61387e565b5b148061107d57506002808111156110685761106761387e565b5b89600281111561107b5761107a61387e565b5b145b156110a35785620f4240836110929190613a9f565b61109c9190613b10565b90506110de565b6040517f08c379a00000000000000000000000000000000000000000000000000000000081526004016110d590613d3f565b60405180910390fd5b5b80965050505050505092915050565b6110f6612e15565b80600b60026101000a81548160ff0219169083151502179055506000600f600084815260200190815260200160002090504281600101819055508060010154421115801561115357508060040160009054906101000a900460ff16155b156111765760018160040160006101000a81548160ff0219169083151502179055505b827f7b1c1ad0f3e04c9ef02d69280925520638d1cf076c56c4aa5bb1d0d37a949a3d60405160405180910390a2505050565b600080600190505b600854811161124357600f60008281526020019081526020016000206000015442101580156111f55750600f6000828152602001908152602001600020600101544211155b80156112225750600f600082815260200190815260200160002060040160009054906101000a900460ff16155b156112305780915050611249565b808061123b90613f5b565b9150506111b0565b50600090505b90565b60065481565b60116020528060005260406000206000915054906101000a900460ff1681565b61127a612e9c565b611282612e15565b600b60009054906101000a900460ff16156112d2576040517f08c379a00000000000000000000000000000000000000000000000000000000081526004016112c990613fef565b60405180910390fd5b6006546009541015806112e9575060075460095410155b806112fb57506112f7612ee2565b4210155b61133a576040517f08c379a000000000000000000000000000000000000000000000000000000000815260040161133190614081565b60405180910390fd5b6000600190505b60085481116113bb576000600f600083815260200190815260200160002090508060010154421015801561138457508060040160009054906101000a900460ff16155b156113a75760018160040160006101000a81548160ff0219169083151502179055505b5080806113b390613f5b565b915050611341565b506007546009541061141e576001600b60006101000a81548160ff0219169083151502179055506113ea612f4c565b600a547f9c4b134da32aab35252391880a9f2a3c13a760d7817ae8823f2b301d3522045a60405160405180910390a2611538565b6006546009541015801561143e5750600b60029054906101000a900460ff165b1561149a576001600b60006101000a81548160ff021916908315150217905550611466612f4c565b600a547f9c4b134da32aab35252391880a9f2a3c13a760d7817ae8823f2b301d3522045a60405160405180910390a2611537565b6114a2612ee2565b4210156114e4576040517f08c379a00000000000000000000000000000000000000000000000000000000081526004016114db906140ed565b60405180910390fd5b6001600b60006101000a81548160ff021916908315150217905550611507612f4c565b600a547f9c4b134da32aab35252391880a9f2a3c13a760d7817ae8823f2b301d3522045a60405160405180910390a25b5b611540613334565b565b600d60009054906101000a900473ffffffffffffffffffffffffffffffffffffffff1681565b600e60009054906101000a900473ffffffffffffffffffffffffffffffffffffffff1681565b600c818154811061159e57600080fd5b906000526020600020016000915054906101000a900473ffffffffffffffffffffffffffffffffffffffff1681565b6115d5612e15565b600073ffffffffffffffffffffffffffffffffffffffff168173ffffffffffffffffffffffffffffffffffffffff1603611644576040517f08c379a000000000000000000000000000000000000000000000000000000000815260040161163b90614159565b60405180910390fd5b6001601060008373ffffffffffffffffffffffffffffffffffffffff1673ffffffffffffffffffffffffffffffffffffffff16815260200190815260200160002060006101000a81548160ff0219169083151502179055508073ffffffffffffffffffffffffffffffffffffffff167faab7954e9d246b167ef88aeddad35209ca2489d95a8aeb59e288d9b19fae5a5460405160405180910390a250565b600b60019054906101000a900460ff1681565b600360009054906101000a900473ffffffffffffffffffffffffffffffffffffffff1681565b600a5481565b611729612e15565b600b60009054906101000a900460ff1615611779576040517f08c379a000000000000000000000000000000000000000000000000000000000815260040161177090613fef565b60405180910390fd5b4283116117bb576040517f08c379a00000000000000000000000000000000000000000000000000000000081526004016117b2906141eb565b60405180910390fd5b8282116117fd576040517f08c379a00000000000000000000000000000000000000000000000000000000081526004016117f49061427d565b60405180910390fd5b611805612ee2565b8311611846576040517f08c379a000000000000000000000000000000000000000000000000000000000815260040161183d9061430f565b60405180910390fd5b6008600081548092919061185990613f5b565b91905055506040518060a001604052808481526020018381526020018281526020016000815260200160001515815250600f600060085481526020019081526020016000206000820151816000015560208201518160010155604082015181600201556060820151816003015560808201518160040160006101000a81548160ff0219169083151502179055509050506008547f63b43fa153147ade1de28ed76841cdbc34e510ed94dd1ff5a88e278b0b1ad9ba84848460405161191f9392919061432f565b60405180910390a2505050565b611934612e15565b61193e600061333d565b565b60095481565b61194e612e9c565b611956612e15565b600b60009054906101000a900460ff16156119a6576040517f08c379a000000000000000000000000000000000000000000000000000000000815260040161199d90613fef565b60405180910390fd5b6119ae612ee2565b4211806119c75750600b60029054906101000a900460ff165b611a06576040517f08c379a00000000000000000000000000000000000000000000000000000000081526004016119fd906143b2565b60405180910390fd5b60065460095410611a4c576040517f08c379a0000000000000000000000000000000000000000000000000000000008152600401611a439061441e565b60405180910390fd5b6000600c80549050905060005b81811015611eec576000600c8281548110611a7757611a7661443e565b5b9060005260206000200160009054906101000a900473ffffffffffffffffffffffffffffffffffffffff16905060005b60038160ff161015611edd5760008160ff166002811115611acb57611aca61387e565b5b90506000601660008573ffffffffffffffffffffffffffffffffffffffff1673ffffffffffffffffffffffffffffffffffffffff1681526020019081526020016000206000836002811115611b2357611b2261387e565b5b6002811115611b3557611b3461387e565b5b81526020019081526020016000205490506000811115611ece576000601660008673ffffffffffffffffffffffffffffffffffffffff1673ffffffffffffffffffffffffffffffffffffffff1681526020019081526020016000206000846002811115611ba557611ba461387e565b5b6002811115611bb757611bb661387e565b5b81526020019081526020016000208190555060006002811115611bdd57611bdc61387e565b5b826002811115611bf057611bef61387e565b5b03611ca75760008473ffffffffffffffffffffffffffffffffffffffff1682604051611c1b9061449e565b60006040518083038185875af1925050503d8060008114611c58576040519150601f19603f3d011682016040523d82523d6000602084013e611c5d565b606091505b5050905080611ca1576040517f08c379a0000000000000000000000000000000000000000000000000000000008152600401611c98906144ff565b60405180910390fd5b50611e7d565b60016002811115611cbb57611cba61387e565b5b826002811115611cce57611ccd61387e565b5b1480611cfd5750600280811115611ce857611ce761387e565b5b826002811115611cfb57611cfa61387e565b5b145b15611e4157600060016002811115611d1857611d1761387e565b5b836002811115611d2b57611d2a61387e565b5b14611d5857600e60009054906101000a900473ffffffffffffffffffffffffffffffffffffffff16611d7c565b600d60009054906101000a900473ffffffffffffffffffffffffffffffffffffffff165b90508073ffffffffffffffffffffffffffffffffffffffff1663a9059cbb86846040518363ffffffff1660e01b8152600401611db992919061451f565b6020604051808303816000875af1158015611dd8573d6000803e3d6000fd5b505050506040513d601f19601f82011682018060405250810190611dfc919061455d565b611e3b576040517f08c379a0000000000000000000000000000000000000000000000000000000008152600401611e32906145d6565b60405180910390fd5b50611e7c565b6040517f08c379a0000000000000000000000000000000000000000000000000000000008152600401611e7390614668565b60405180910390fd5b5b8373ffffffffffffffffffffffffffffffffffffffff167f03829ab241648d7348f97e4f77d36451330f2276ea8eeb3428e462012f9699e78284604051611ec5929190614688565b60405180910390a25b50508080600101915050611aa7565b50508080600101915050611a59565b506001600b60006101000a81548160ff02191690831515021790555050611f11613334565b565b60008060009054906101000a900473ffffffffffffffffffffffffffffffffffffffff16905090565b611f44612e9c565b611f4c612e15565b600b60019054906101000a900460ff1615611f9c576040517f08c379a0000000000000000000000000000000000000000000000000000000008152600401611f93906146fd565b60405180910390fd5b600b60009054906101000a900460ff16611feb576040517f08c379a0000000000000000000000000000000000000000000000000000000008152600401611fe290614769565b60405180910390fd5b6000600c80549050905060005b818110156121dc576000600c82815481106120165761201561443e565b5b9060005260206000200160009054906101000a900473ffffffffffffffffffffffffffffffffffffffff1690506000601360008373ffffffffffffffffffffffffffffffffffffffff1673ffffffffffffffffffffffffffffffffffffffff16815260200190815260200160002054905060008111156121cd576000600560009054906101000a900473ffffffffffffffffffffffffffffffffffffffff1673ffffffffffffffffffffffffffffffffffffffff166323b872dd6120d8611f13565b85856040518463ffffffff1660e01b81526004016120f893929190614789565b6020604051808303816000875af1158015612117573d6000803e3d6000fd5b505050506040513d601f19601f8201168201806040525081019061213b919061455d565b90508061217d576040517f08c379a00000000000000000000000000000000000000000000000000000000081526004016121749061480c565b60405180910390fd5b8273ffffffffffffffffffffffffffffffffffffffff167f9bdcd0cc5503fb9a8dd7311d9617e33108c4b7c8948cc544b16c1fd63c6f475b836040516121c39190613535565b60405180910390a2505b50508080600101915050611ff8565b506001600b60016101000a81548160ff02191690831515021790555050612201613334565b565b60006007546009541015905090565b600b60009054906101000a900460ff1615612262576040517f08c379a000000000000000000000000000000000000000000000000000000000815260040161225990613fef565b60405180910390fd5b61226a611f13565b73ffffffffffffffffffffffffffffffffffffffff163373ffffffffffffffffffffffffffffffffffffffff16036122d7576040517f08c379a00000000000000000000000000000000000000000000000000000000081526004016122ce90614878565b60405180910390fd5b60006122e16111a8565b905060008103612326576040517f08c379a000000000000000000000000000000000000000000000000000000000815260040161231d90613f3b565b60405180910390fd5b6000600f600083815260200190815260200160002090508060040160009054906101000a900460ff161561238f576040517f08c379a0000000000000000000000000000000000000000000000000000000008152600401612386906148e4565b60405180910390fd5b60008060028111156123a4576123a361387e565b5b8560028111156123b7576123b661387e565b5b0361249b57600034116123ff576040517f08c379a00000000000000000000000000000000000000000000000000000000081526004016123f690614950565b60405180910390fd5b61240985346109e6565b905034601660003373ffffffffffffffffffffffffffffffffffffffff1673ffffffffffffffffffffffffffffffffffffffff16815260200190815260200160002060008760028111156124605761245f61387e565b5b60028111156124725761247161387e565b5b8152602001908152602001600020600082825461248f9190614970565b9250508190555061274d565b600160028111156124af576124ae61387e565b5b8560028111156124c2576124c161387e565b5b14806124f157506002808111156124dc576124db61387e565b5b8560028111156124ef576124ee61387e565b5b145b156127115760008411612539576040517f08c379a0000000000000000000000000000000000000000000000000000000008152600401612530906149f0565b60405180910390fd5b60006001600281111561254f5761254e61387e565b5b8660028111156125625761256161387e565b5b1461258f57600e60009054906101000a900473ffffffffffffffffffffffffffffffffffffffff166125b3565b600d60009054906101000a900473ffffffffffffffffffffffffffffffffffffffff165b90508073ffffffffffffffffffffffffffffffffffffffff166323b872dd3330886040518463ffffffff1660e01b81526004016125f293929190614789565b6020604051808303816000875af1158015612611573d6000803e3d6000fd5b505050506040513d601f19601f82011682018060405250810190612635919061455d565b612674576040517f08c379a000000000000000000000000000000000000000000000000000000000815260040161266b90614a5c565b60405180910390fd5b61267e86866109e6565b915084601660003373ffffffffffffffffffffffffffffffffffffffff1673ffffffffffffffffffffffffffffffffffffffff16815260200190815260200160002060008860028111156126d5576126d461387e565b5b60028111156126e7576126e661387e565b5b815260200190815260200160002060008282546127049190614970565b925050819055505061274c565b6040517f08c379a000000000000000000000000000000000000000000000000000000000815260040161274390613d3f565b60405180910390fd5b5b60008111612790576040517f08c379a000000000000000000000000000000000000000000000000000000000815260040161278790614ac8565b60405180910390fd5b6000670de0b6b3a76400008360020154836127ab9190613a9f565b6127b59190613b10565b9050600754816009546127c89190614970565b1115612809576040517f08c379a000000000000000000000000000000000000000000000000000000000815260040161280090614b34565b60405180910390fd5b80601260003373ffffffffffffffffffffffffffffffffffffffff1673ffffffffffffffffffffffffffffffffffffffff16815260200190815260200160002060008282546128589190614970565b9250508190555080600960008282546128719190614970565b925050819055508183600301600082825461288c9190614970565b9250508190555081600a60008282546128a59190614970565b925050819055506000601360003373ffffffffffffffffffffffffffffffffffffffff1673ffffffffffffffffffffffffffffffffffffffff168152602001908152602001600020540361295757600c339080600181540180825580915050600190039060005260206000200160009091909190916101000a81548173ffffffffffffffffffffffffffffffffffffffff021916908373ffffffffffffffffffffffffffffffffffffffff1602179055505b81601360003373ffffffffffffffffffffffffffffffffffffffff1673ffffffffffffffffffffffffffffffffffffffff16815260200190815260200160002060008282546129a69190614970565b9250508190555085601560003373ffffffffffffffffffffffffffffffffffffffff1673ffffffffffffffffffffffffffffffffffffffff16815260200190815260200160002060006101000a81548160ff02191690836002811115612a0f57612a0e61387e565b5b0217905550833373ffffffffffffffffffffffffffffffffffffffff167fdbcef474a632721725d49e3f35d9defe0257100b01d1e4b4b135b14d6fe296e8848660020154898b604051612a659493929190614b54565b60405180910390a3505050505050565b6000600c80549050905090565b600260009054906101000a900473ffffffffffffffffffffffffffffffffffffffff1681565b60085481565b600b60029054906101000a900460ff1681565b600f6020528060005260406000206000915090508060000154908060010154908060020154908060030154908060040160009054906101000a900460ff16905085565b60075481565b6000806000600f60008581526020019081526020016000206040518060a0016040529081600082015481526020016001820154815260200160028201548152602001600382015481526020016004820160009054906101000a900460ff1615151515815250509050806000015181602001519250925050915091565b60126020528060005260406000206000915090505481565b600b60009054906101000a900460ff1681565b600460009054906101000a900473ffffffffffffffffffffffffffffffffffffffff1681565b60156020528060005260406000206000915054906101000a900460ff1681565b60136020528060005260406000206000915090505481565b6016602052816000526040600020602052806000526040600020600091509150505481565b612c3c612e15565b600073ffffffffffffffffffffffffffffffffffffffff168173ffffffffffffffffffffffffffffffffffffffff1603612cae5760006040517f1e4fbdf7000000000000000000000000000000000000000000000000000000008152600401612ca591906136ed565b60405180910390fd5b612cb78161333d565b50565b60106020528060005260406000206000915054906101000a900460ff1681565b600560009054906101000a900473ffffffffffffffffffffffffffffffffffffffff1681565b612d08612e15565b600073ffffffffffffffffffffffffffffffffffffffff168173ffffffffffffffffffffffffffffffffffffffff1603612d77576040517f08c379a0000000000000000000000000000000000000000000000000000000008152600401612d6e90614159565b60405180910390fd5b6001601160008373ffffffffffffffffffffffffffffffffffffffff1673ffffffffffffffffffffffffffffffffffffffff16815260200190815260200160002060006101000a81548160ff0219169083151502179055508073ffffffffffffffffffffffffffffffffffffffff167fffa4e6181777692565cf28528fc88fd1516ea86b56da075235fa575af6a4b85560405160405180910390a250565b612e1d613401565b73ffffffffffffffffffffffffffffffffffffffff16612e3b611f13565b73ffffffffffffffffffffffffffffffffffffffff1614612e9a57612e5e613401565b6040517f118cdaa7000000000000000000000000000000000000000000000000000000008152600401612e9191906136ed565b60405180910390fd5b565b600260015403612ed8576040517f3ee5aeb500000000000000000000000000000000000000000000000000000000815260040160405180910390fd5b6002600181905550565b600080600090506000600190505b6008548111612f445781600f6000838152602001908152602001600020600101541115612f3157600f60008281526020019081526020016000206001015491505b8080612f3c90613f5b565b915050612ef0565b508091505090565b6000479050600081111561300f576000612f64611f13565b73ffffffffffffffffffffffffffffffffffffffff1682604051612f879061449e565b60006040518083038185875af1925050503d8060008114612fc4576040519150601f19603f3d011682016040523d82523d6000602084013e612fc9565b606091505b505090508061300d576040517f08c379a000000000000000000000000000000000000000000000000000000000815260040161300490614be5565b60405180910390fd5b505b6000600d60009054906101000a900473ffffffffffffffffffffffffffffffffffffffff1673ffffffffffffffffffffffffffffffffffffffff166370a08231306040518263ffffffff1660e01b815260040161306c91906136ed565b602060405180830381865afa158015613089573d6000803e3d6000fd5b505050506040513d601f19601f820116820180604052508101906130ad9190614c05565b9050600081111561319f57600d60009054906101000a900473ffffffffffffffffffffffffffffffffffffffff1673ffffffffffffffffffffffffffffffffffffffff1663a9059cbb6130fe611f13565b836040518363ffffffff1660e01b815260040161311c92919061451f565b6020604051808303816000875af115801561313b573d6000803e3d6000fd5b505050506040513d601f19601f8201168201806040525081019061315f919061455d565b61319e576040517f08c379a000000000000000000000000000000000000000000000000000000000815260040161319590614c7e565b60405180910390fd5b5b6000600e60009054906101000a900473ffffffffffffffffffffffffffffffffffffffff1673ffffffffffffffffffffffffffffffffffffffff166370a08231306040518263ffffffff1660e01b81526004016131fc91906136ed565b602060405180830381865afa158015613219573d6000803e3d6000fd5b505050506040513d601f19601f8201168201806040525081019061323d9190614c05565b9050600081111561332f57600e60009054906101000a900473ffffffffffffffffffffffffffffffffffffffff1673ffffffffffffffffffffffffffffffffffffffff1663a9059cbb61328e611f13565b836040518363ffffffff1660e01b81526004016132ac92919061451f565b6020604051808303816000875af11580156132cb573d6000803e3d6000fd5b505050506040513d601f19601f820116820180604052508101906132ef919061455d565b61332e576040517f08c379a000000000000000000000000000000000000000000000000000000000815260040161332590614cea565b60405180910390fd5b5b505050565b60018081905550565b60008060009054906101000a900473ffffffffffffffffffffffffffffffffffffffff169050816000806101000a81548173ffffffffffffffffffffffffffffffffffffffff021916908373ffffffffffffffffffffffffffffffffffffffff1602179055508173ffffffffffffffffffffffffffffffffffffffff168173ffffffffffffffffffffffffffffffffffffffff167f8be0079c531659141344cd1fd0a4f28419497f9722a3daafe3b4186f6b6457e060405160405180910390a35050565b600033905090565b600082825260208201905092915050565b7f44697265637420424e42207472616e7366657273206e6f7420616c6c6f776564600082015250565b6000613450602083613409565b915061345b8261341a565b602082019050919050565b6000602082019050818103600083015261347f81613443565b9050919050565b600080fd5b6003811061349857600080fd5b50565b6000813590506134aa8161348b565b92915050565b6000819050919050565b6134c3816134b0565b81146134ce57600080fd5b50565b6000813590506134e0816134ba565b92915050565b600080604083850312156134fd576134fc613486565b5b600061350b8582860161349b565b925050602061351c858286016134d1565b9150509250929050565b61352f816134b0565b82525050565b600060208201905061354a6000830184613526565b92915050565b60008115159050919050565b61356581613550565b82525050565b6000602082019050613580600083018461355c565b92915050565b60006020828403121561359c5761359b613486565b5b60006135aa8482850161349b565b91505092915050565b6000819050919050565b6135c6816135b3565b82525050565b60006020820190506135e160008301846135bd565b92915050565b6135f081613550565b81146135fb57600080fd5b50565b60008135905061360d816135e7565b92915050565b6000806040838503121561362a57613629613486565b5b6000613638858286016134d1565b9250506020613649858286016135fe565b9150509250929050565b600073ffffffffffffffffffffffffffffffffffffffff82169050919050565b600061367e82613653565b9050919050565b61368e81613673565b811461369957600080fd5b50565b6000813590506136ab81613685565b92915050565b6000602082840312156136c7576136c6613486565b5b60006136d58482850161369c565b91505092915050565b6136e781613673565b82525050565b600060208201905061370260008301846136de565b92915050565b60006020828403121561371e5761371d613486565b5b600061372c848285016134d1565b91505092915050565b6000819050919050565b600061375a61375561375084613653565b613735565b613653565b9050919050565b600061376c8261373f565b9050919050565b600061377e82613761565b9050919050565b61378e81613773565b82525050565b60006020820190506137a96000830184613785565b92915050565b6000806000606084860312156137c8576137c7613486565b5b60006137d6868287016134d1565b93505060206137e7868287016134d1565b92505060406137f8868287016134d1565b9150509250925092565b600060a0820190506138176000830188613526565b6138246020830187613526565b6138316040830186613526565b61383e6060830185613526565b61384b608083018461355c565b9695505050505050565b600060408201905061386a6000830185613526565b6138776020830184613526565b9392505050565b7f4e487b7100000000000000000000000000000000000000000000000000000000600052602160045260246000fd5b600381106138be576138bd61387e565b5b50565b60008190506138cf826138ad565b919050565b60006138df826138c1565b9050919050565b6138ef816138d4565b82525050565b600060208201905061390a60008301846138e6565b92915050565b6000806040838503121561392757613926613486565b5b60006139358582860161369c565b92505060206139468582860161349b565b9150509250929050565b600061395b82613761565b9050919050565b61396b81613950565b82525050565b60006020820190506139866000830184613962565b92915050565b7f4e487b7100000000000000000000000000000000000000000000000000000000600052601160045260246000fd5b60006139c6826135b3565b91506139d1836135b3565b92508282026139df816135b3565b91507f80000000000000000000000000000000000000000000000000000000000000008414600084121615613a1757613a1661398c565b5b8282058414831517613a2c57613a2b61398c565b5b5092915050565b7f496e76616c696420707269636520666565640000000000000000000000000000600082015250565b6000613a69601283613409565b9150613a7482613a33565b602082019050919050565b60006020820190508181036000830152613a9881613a5c565b9050919050565b6000613aaa826134b0565b9150613ab5836134b0565b9250828202613ac3816134b0565b91508282048414831517613ada57613ad961398c565b5b5092915050565b7f4e487b7100000000000000000000000000000000000000000000000000000000600052601260045260246000fd5b6000613b1b826134b0565b9150613b26836134b0565b925082613b3657613b35613ae1565b5b828204905092915050565b6000613b4c826134b0565b9150613b57836134b0565b9250828203905081811115613b6f57613b6e61398c565b5b92915050565b60008160011c9050919050565b6000808291508390505b6001851115613bcc57808604811115613ba857613ba761398c565b5b6001851615613bb75780820291505b8081029050613bc585613b75565b9450613b8c565b94509492505050565b600082613be55760019050613ca1565b81613bf35760009050613ca1565b8160018114613c095760028114613c1357613c42565b6001915050613ca1565b60ff841115613c2557613c2461398c565b5b8360020a915084821115613c3c57613c3b61398c565b5b50613ca1565b5060208310610133831016604e8410600b8410161715613c775782820a905083811115613c7257613c7161398c565b5b613ca1565b613c848484846001613b82565b92509050818404811115613c9b57613c9a61398c565b5b81810290505b9392505050565b6000613cb3826134b0565b9150613cbe836134b0565b9250613ceb7fffffffffffffffffffffffffffffffffffffffffffffffffffffffffffffffff8484613bd5565b905092915050565b7f556e737570706f72746564207061796d656e74206d6574686f64000000000000600082015250565b6000613d29601a83613409565b9150613d3482613cf3565b602082019050919050565b60006020820190508181036000830152613d5881613d1c565b9050919050565b600069ffffffffffffffffffff82169050919050565b613d7e81613d5f565b8114613d8957600080fd5b50565b600081519050613d9b81613d75565b92915050565b613daa816135b3565b8114613db557600080fd5b50565b600081519050613dc781613da1565b92915050565b600081519050613ddc816134ba565b92915050565b600080600080600060a08688031215613dfe57613dfd613486565b5b6000613e0c88828901613d8c565b9550506020613e1d88828901613db8565b9450506040613e2e88828901613dcd565b9350506060613e3f88828901613dcd565b9250506080613e5088828901613d8c565b9150509295509295909350565b7f546f6b656e20616d6f756e74206d75737420626520677265617465722074686160008201527f6e207a65726f0000000000000000000000000000000000000000000000000000602082015250565b6000613eb9602683613409565b9150613ec482613e5d565b604082019050919050565b60006020820190508181036000830152613ee881613eac565b9050919050565b7f4e6f206163746976652073616c65000000000000000000000000000000000000600082015250565b6000613f25600e83613409565b9150613f3082613eef565b602082019050919050565b60006020820190508181036000830152613f5481613f18565b9050919050565b6000613f66826134b0565b91507fffffffffffffffffffffffffffffffffffffffffffffffffffffffffffffffff8203613f9857613f9761398c565b5b600182019050919050565b7f49434f20616c72656164792066696e616c697a65640000000000000000000000600082015250565b6000613fd9601583613409565b9150613fe482613fa3565b602082019050919050565b6000602082019050818103600083015261400881613fcc565b9050919050565b7f43616e6e6f742066696e616c697a653a20536f667420636170206e6f7420726560008201527f6163686564206f722073616c65206973206f6e676f696e670000000000000000602082015250565b600061406b603883613409565b91506140768261400f565b604082019050919050565b6000602082019050818103600083015261409a8161405e565b9050919050565b7f53616c65206973207374696c6c206f6e676f696e670000000000000000000000600082015250565b60006140d7601583613409565b91506140e2826140a1565b602082019050919050565b60006020820190508181036000830152614106816140ca565b9050919050565b7f496e76616c696420616464726573730000000000000000000000000000000000600082015250565b6000614143600f83613409565b915061414e8261410d565b602082019050919050565b6000602082019050818103600083015261417281614136565b9050919050565b7f53746172742074696d65206d7573742062652067726561746572207468616e2060008201527f63757272656e742074696d650000000000000000000000000000000000000000602082015250565b60006141d5602c83613409565b91506141e082614179565b604082019050919050565b60006020820190508181036000830152614204816141c8565b9050919050565b7f456e642074696d65206d7573742062652067726561746572207468616e20737460008201527f6172742074696d65000000000000000000000000000000000000000000000000602082015250565b6000614267602883613409565b91506142728261420b565b604082019050919050565b600060208201905081810360008301526142968161425a565b9050919050565b7f4e65772073616c65206d75737420737461727420616674657220746865206c6160008201527f73742073616c6520656e64730000000000000000000000000000000000000000602082015250565b60006142f9602c83613409565b91506143048261429d565b604082019050919050565b60006020820190508181036000830152614328816142ec565b9050919050565b60006060820190506143446000830186613526565b6143516020830185613526565b61435e6040830184613526565b949350505050565b7f53616c65206f6e676f696e670000000000000000000000000000000000000000600082015250565b600061439c600c83613409565b91506143a782614366565b602082019050919050565b600060208201905081810360008301526143cb8161438f565b9050919050565b7f536f667420636170207265616368656400000000000000000000000000000000600082015250565b6000614408601083613409565b9150614413826143d2565b602082019050919050565b60006020820190508181036000830152614437816143fb565b9050919050565b7f4e487b7100000000000000000000000000000000000000000000000000000000600052603260045260246000fd5b600081905092915050565b50565b600061448860008361446d565b915061449382614478565b600082019050919050565b60006144a98261447b565b9150819050919050565b7f424e4220726566756e64206661696c6564000000000000000000000000000000600082015250565b60006144e9601183613409565b91506144f4826144b3565b602082019050919050565b60006020820190508181036000830152614518816144dc565b9050919050565b600060408201905061453460008301856136de565b6145416020830184613526565b9392505050565b600081519050614557816135e7565b92915050565b60006020828403121561457357614572613486565b5b600061458184828501614548565b91505092915050565b7f537461626c65636f696e20726566756e64206661696c65640000000000000000600082015250565b60006145c0601883613409565b91506145cb8261458a565b602082019050919050565b600060208201905081810360008301526145ef816145b3565b9050919050565b7f556e737570706f72746564207061796d656e74206d6574686f6420666f72207260008201527f6566756e64000000000000000000000000000000000000000000000000000000602082015250565b6000614652602583613409565b915061465d826145f6565b604082019050919050565b6000602082019050818103600083015261468181614645565b9050919050565b600060408201905061469d6000830185613526565b6146aa60208301846138e6565b9392505050565b7f41697264726f7020616c726561647920636f6d706c6574656400000000000000600082015250565b60006146e7601983613409565b91506146f2826146b1565b602082019050919050565b60006020820190508181036000830152614716816146da565b9050919050565b7f49434f206e6f742066696e616c697a6564000000000000000000000000000000600082015250565b6000614753601183613409565b915061475e8261471d565b602082019050919050565b6000602082019050818103600083015261478281614746565b9050919050565b600060608201905061479e60008301866136de565b6147ab60208301856136de565b6147b86040830184613526565b949350505050565b7f546f6b656e207472616e73666572206661696c65640000000000000000000000600082015250565b60006147f6601583613409565b9150614801826147c0565b602082019050919050565b60006020820190508181036000830152614825816147e9565b9050919050565b7f4f776e65722063616e6e6f742062757920746f6b656e73000000000000000000600082015250565b6000614862601783613409565b915061486d8261482c565b602082019050919050565b6000602082019050818103600083015261489181614855565b9050919050565b7f53616c6520616c72656164792066696e616c697a656400000000000000000000600082015250565b60006148ce601683613409565b91506148d982614898565b602082019050919050565b600060208201905081810360008301526148fd816148c1565b9050919050565b7f53656e6420612076616c696420424e4220616d6f756e74000000000000000000600082015250565b600061493a601783613409565b915061494582614904565b602082019050919050565b600060208201905081810360008301526149698161492d565b9050919050565b600061497b826134b0565b9150614986836134b0565b925082820190508082111561499e5761499d61398c565b5b92915050565b7f456e74657220612076616c696420737461626c65636f696e20616d6f756e7400600082015250565b60006149da601f83613409565b91506149e5826149a4565b602082019050919050565b60006020820190508181036000830152614a09816149cd565b9050919050565b7f537461626c65636f696e207472616e73666572206661696c6564000000000000600082015250565b6000614a46601a83613409565b9150614a5182614a10565b602082019050919050565b60006020820190508181036000830152614a7581614a39565b9050919050565b7f496e76616c696420746f6b656e20616d6f756e74000000000000000000000000600082015250565b6000614ab2601483613409565b9150614abd82614a7c565b602082019050919050565b60006020820190508181036000830152614ae181614aa5565b9050919050565b7f4861726420636170207265616368656400000000000000000000000000000000600082015250565b6000614b1e601083613409565b9150614b2982614ae8565b602082019050919050565b60006020820190508181036000830152614b4d81614b11565b9050919050565b6000608082019050614b696000830187613526565b614b766020830186613526565b614b836040830185613526565b614b9060608301846138e6565b95945050505050565b7f5472616e73666572206661696c65640000000000000000000000000000000000600082015250565b6000614bcf600f83613409565b9150614bda82614b99565b602082019050919050565b60006020820190508181036000830152614bfe81614bc2565b9050919050565b600060208284031215614c1b57614c1a613486565b5b6000614c2984828501613dcd565b91505092915050565b7f55534454207472616e73666572206661696c6564000000000000000000000000600082015250565b6000614c68601483613409565b9150614c7382614c32565b602082019050919050565b60006020820190508181036000830152614c9781614c5b565b9050919050565b7f55534443207472616e73666572206661696c6564000000000000000000000000600082015250565b6000614cd4601483613409565b9150614cdf82614c9e565b602082019050919050565b60006020820190508181036000830152614d0381614cc7565b905091905056fea2646970667358221220b53b96e1298e99233613ec33cab4afdca8b14d8d29334709958fe71f1e868e7864736f6c634300081a0033",
			"opcodes": "PUSH1 0x80 PUSH1 0x40 MSTORE PUSH1 0x0 PUSH1 0xB PUSH1 0x0 PUSH2 0x100 EXP DUP2 SLOAD DUP2 PUSH1 0xFF MUL NOT AND SWAP1 DUP4 ISZERO ISZERO MUL OR SWAP1 SSTORE POP PUSH1 0x0 PUSH1 0xB PUSH1 0x1 PUSH2 0x100 EXP DUP2 SLOAD DUP2 PUSH1 0xFF MUL NOT AND SWAP1 DUP4 ISZERO ISZERO MUL OR SWAP1 SSTORE POP PUSH1 0x0 PUSH1 0xB PUSH1 0x2 PUSH2 0x100 EXP DUP2 SLOAD DUP2 PUSH1 0xFF MUL NOT AND SWAP1 DUP4 ISZERO ISZERO MUL OR SWAP1 SSTORE POP CALLVALUE DUP1 ISZERO PUSH2 0x61 JUMPI PUSH1 0x0 DUP1 REVERT JUMPDEST POP PUSH1 0x40 MLOAD PUSH2 0x5278 CODESIZE SUB DUP1 PUSH2 0x5278 DUP4 CODECOPY DUP2 DUP2 ADD PUSH1 0x40 MSTORE DUP2 ADD SWAP1 PUSH2 0x83 SWAP2 SWAP1 PUSH2 0x449 JUMP JUMPDEST CALLER PUSH1 0x0 PUSH20 0xFFFFFFFFFFFFFFFFFFFFFFFFFFFFFFFFFFFFFFFF AND DUP2 PUSH20 0xFFFFFFFFFFFFFFFFFFFFFFFFFFFFFFFFFFFFFFFF AND SUB PUSH2 0xF6 JUMPI PUSH1 0x0 PUSH1 0x40 MLOAD PUSH32 0x1E4FBDF700000000000000000000000000000000000000000000000000000000 DUP2 MSTORE PUSH1 0x4 ADD PUSH2 0xED SWAP2 SWAP1 PUSH2 0x50E JUMP JUMPDEST PUSH1 0x40 MLOAD DUP1 SWAP2 SUB SWAP1 REVERT JUMPDEST PUSH2 0x105 DUP2 PUSH2 0x2AE PUSH1 0x20 SHL PUSH1 0x20 SHR JUMP JUMPDEST POP PUSH1 0x1 DUP1 DUP2 SWAP1 SSTORE POP DUP8 PUSH1 0x5 PUSH1 0x0 PUSH2 0x100 EXP DUP2 SLOAD DUP2 PUSH20 0xFFFFFFFFFFFFFFFFFFFFFFFFFFFFFFFFFFFFFFFF MUL NOT AND SWAP1 DUP4 PUSH20 0xFFFFFFFFFFFFFFFFFFFFFFFFFFFFFFFFFFFFFFFF AND MUL OR SWAP1 SSTORE POP DUP5 PUSH1 0x6 DUP2 SWAP1 SSTORE POP DUP4 PUSH1 0x7 DUP2 SWAP1 SSTORE POP DUP7 PUSH1 0xD PUSH1 0x0 PUSH2 0x100 EXP DUP2 SLOAD DUP2 PUSH20 0xFFFFFFFFFFFFFFFFFFFFFFFFFFFFFFFFFFFFFFFF MUL NOT AND SWAP1 DUP4 PUSH20 0xFFFFFFFFFFFFFFFFFFFFFFFFFFFFFFFFFFFFFFFF AND MUL OR SWAP1 SSTORE POP DUP6 PUSH1 0xE PUSH1 0x0 PUSH2 0x100 EXP DUP2 SLOAD DUP2 PUSH20 0xFFFFFFFFFFFFFFFFFFFFFFFFFFFFFFFFFFFFFFFF MUL NOT AND SWAP1 DUP4 PUSH20 0xFFFFFFFFFFFFFFFFFFFFFFFFFFFFFFFFFFFFFFFF AND MUL OR SWAP1 SSTORE POP DUP3 PUSH1 0x2 PUSH1 0x0 PUSH2 0x100 EXP DUP2 SLOAD DUP2 PUSH20 0xFFFFFFFFFFFFFFFFFFFFFFFFFFFFFFFFFFFFFFFF MUL NOT AND SWAP1 DUP4 PUSH20 0xFFFFFFFFFFFFFFFFFFFFFFFFFFFFFFFFFFFFFFFF AND MUL OR SWAP1 SSTORE POP DUP2 PUSH1 0x3 PUSH1 0x0 PUSH2 0x100 EXP DUP2 SLOAD DUP2 PUSH20 0xFFFFFFFFFFFFFFFFFFFFFFFFFFFFFFFFFFFFFFFF MUL NOT AND SWAP1 DUP4 PUSH20 0xFFFFFFFFFFFFFFFFFFFFFFFFFFFFFFFFFFFFFFFF AND MUL OR SWAP1 SSTORE POP DUP1 PUSH1 0x4 PUSH1 0x0 PUSH2 0x100 EXP DUP2 SLOAD DUP2 PUSH20 0xFFFFFFFFFFFFFFFFFFFFFFFFFFFFFFFFFFFFFFFF MUL NOT AND SWAP1 DUP4 PUSH20 0xFFFFFFFFFFFFFFFFFFFFFFFFFFFFFFFFFFFFFFFF AND MUL OR SWAP1 SSTORE POP POP POP POP POP POP POP POP POP PUSH2 0x529 JUMP JUMPDEST PUSH1 0x0 DUP1 PUSH1 0x0 SWAP1 SLOAD SWAP1 PUSH2 0x100 EXP SWAP1 DIV PUSH20 0xFFFFFFFFFFFFFFFFFFFFFFFFFFFFFFFFFFFFFFFF AND SWAP1 POP DUP2 PUSH1 0x0 DUP1 PUSH2 0x100 EXP DUP2 SLOAD DUP2 PUSH20 0xFFFFFFFFFFFFFFFFFFFFFFFFFFFFFFFFFFFFFFFF MUL NOT AND SWAP1 DUP4 PUSH20 0xFFFFFFFFFFFFFFFFFFFFFFFFFFFFFFFFFFFFFFFF AND MUL OR SWAP1 SSTORE POP DUP2 PUSH20 0xFFFFFFFFFFFFFFFFFFFFFFFFFFFFFFFFFFFFFFFF AND DUP2 PUSH20 0xFFFFFFFFFFFFFFFFFFFFFFFFFFFFFFFFFFFFFFFF AND PUSH32 0x8BE0079C531659141344CD1FD0A4F28419497F9722A3DAAFE3B4186F6B6457E0 PUSH1 0x40 MLOAD PUSH1 0x40 MLOAD DUP1 SWAP2 SUB SWAP1 LOG3 POP POP JUMP JUMPDEST PUSH1 0x0 DUP1 REVERT JUMPDEST PUSH1 0x0 PUSH20 0xFFFFFFFFFFFFFFFFFFFFFFFFFFFFFFFFFFFFFFFF DUP3 AND SWAP1 POP SWAP2 SWAP1 POP JUMP JUMPDEST PUSH1 0x0 PUSH2 0x3A2 DUP3 PUSH2 0x377 JUMP JUMPDEST SWAP1 POP SWAP2 SWAP1 POP JUMP JUMPDEST PUSH1 0x0 PUSH2 0x3B4 DUP3 PUSH2 0x397 JUMP JUMPDEST SWAP1 POP SWAP2 SWAP1 POP JUMP JUMPDEST PUSH2 0x3C4 DUP2 PUSH2 0x3A9 JUMP JUMPDEST DUP2 EQ PUSH2 0x3CF JUMPI PUSH1 0x0 DUP1 REVERT JUMPDEST POP JUMP JUMPDEST PUSH1 0x0 DUP2 MLOAD SWAP1 POP PUSH2 0x3E1 DUP2 PUSH2 0x3BB JUMP JUMPDEST SWAP3 SWAP2 POP POP JUMP JUMPDEST PUSH2 0x3F0 DUP2 PUSH2 0x397 JUMP JUMPDEST DUP2 EQ PUSH2 0x3FB JUMPI PUSH1 0x0 DUP1 REVERT JUMPDEST POP JUMP JUMPDEST PUSH1 0x0 DUP2 MLOAD SWAP1 POP PUSH2 0x40D DUP2 PUSH2 0x3E7 JUMP JUMPDEST SWAP3 SWAP2 POP POP JUMP JUMPDEST PUSH1 0x0 DUP2 SWAP1 POP SWAP2 SWAP1 POP JUMP JUMPDEST PUSH2 0x426 DUP2 PUSH2 0x413 JUMP JUMPDEST DUP2 EQ PUSH2 0x431 JUMPI PUSH1 0x0 DUP1 REVERT JUMPDEST POP JUMP JUMPDEST PUSH1 0x0 DUP2 MLOAD SWAP1 POP PUSH2 0x443 DUP2 PUSH2 0x41D JUMP JUMPDEST SWAP3 SWAP2 POP POP JUMP JUMPDEST PUSH1 0x0 DUP1 PUSH1 0x0 DUP1 PUSH1 0x0 DUP1 PUSH1 0x0 DUP1 PUSH2 0x100 DUP10 DUP12 SUB SLT ISZERO PUSH2 0x46A JUMPI PUSH2 0x469 PUSH2 0x372 JUMP JUMPDEST JUMPDEST PUSH1 0x0 PUSH2 0x478 DUP12 DUP3 DUP13 ADD PUSH2 0x3D2 JUMP JUMPDEST SWAP9 POP POP PUSH1 0x20 PUSH2 0x489 DUP12 DUP3 DUP13 ADD PUSH2 0x3FE JUMP JUMPDEST SWAP8 POP POP PUSH1 0x40 PUSH2 0x49A DUP12 DUP3 DUP13 ADD PUSH2 0x3FE JUMP JUMPDEST SWAP7 POP POP PUSH1 0x60 PUSH2 0x4AB DUP12 DUP3 DUP13 ADD PUSH2 0x434 JUMP JUMPDEST SWAP6 POP POP PUSH1 0x80 PUSH2 0x4BC DUP12 DUP3 DUP13 ADD PUSH2 0x434 JUMP JUMPDEST SWAP5 POP POP PUSH1 0xA0 PUSH2 0x4CD DUP12 DUP3 DUP13 ADD PUSH2 0x3FE JUMP JUMPDEST SWAP4 POP POP PUSH1 0xC0 PUSH2 0x4DE DUP12 DUP3 DUP13 ADD PUSH2 0x3FE JUMP JUMPDEST SWAP3 POP POP PUSH1 0xE0 PUSH2 0x4EF DUP12 DUP3 DUP13 ADD PUSH2 0x3FE JUMP JUMPDEST SWAP2 POP POP SWAP3 SWAP6 SWAP9 POP SWAP3 SWAP6 SWAP9 SWAP1 SWAP4 SWAP7 POP JUMP JUMPDEST PUSH2 0x508 DUP2 PUSH2 0x397 JUMP JUMPDEST DUP3 MSTORE POP POP JUMP JUMPDEST PUSH1 0x0 PUSH1 0x20 DUP3 ADD SWAP1 POP PUSH2 0x523 PUSH1 0x0 DUP4 ADD DUP5 PUSH2 0x4FF JUMP JUMPDEST SWAP3 SWAP2 POP POP JUMP JUMPDEST PUSH2 0x4D40 DUP1 PUSH2 0x538 PUSH1 0x0 CODECOPY PUSH1 0x0 RETURN INVALID PUSH1 0x80 PUSH1 0x40 MSTORE PUSH1 0x4 CALLDATASIZE LT PUSH2 0x24A JUMPI PUSH1 0x0 CALLDATALOAD PUSH1 0xE0 SHR DUP1 PUSH4 0x8DA5CB5B GT PUSH2 0x139 JUMPI DUP1 PUSH4 0xC211E1F9 GT PUSH2 0xB6 JUMPI DUP1 PUSH4 0xE8E87389 GT PUSH2 0x7A JUMPI DUP1 PUSH4 0xE8E87389 EQ PUSH2 0x8B2 JUMPI DUP1 PUSH4 0xEFDCDB45 EQ PUSH2 0x8EF JUMPI DUP1 PUSH4 0xF2FDE38B EQ PUSH2 0x92C JUMPI DUP1 PUSH4 0xF621CC48 EQ PUSH2 0x955 JUMPI DUP1 PUSH4 0xFC0C546A EQ PUSH2 0x992 JUMPI DUP1 PUSH4 0xFCBCA456 EQ PUSH2 0x9BD JUMPI PUSH2 0x28A JUMP JUMPDEST DUP1 PUSH4 0xC211E1F9 EQ PUSH2 0x7A4 JUMPI DUP1 PUSH4 0xC81FFDEA EQ PUSH2 0x7E2 JUMPI DUP1 PUSH4 0xD1F3B23E EQ PUSH2 0x81F JUMPI DUP1 PUSH4 0xD3D9D1E4 EQ PUSH2 0x84A JUMPI DUP1 PUSH4 0xDF4E0593 EQ PUSH2 0x875 JUMPI PUSH2 0x28A JUMP JUMPDEST DUP1 PUSH4 0x99131E7E GT PUSH2 0xFD JUMPI DUP1 PUSH4 0x99131E7E EQ PUSH2 0x6B7 JUMPI DUP1 PUSH4 0xA1E89AEC EQ PUSH2 0x6E2 JUMPI DUP1 PUSH4 0xB1CAEFD8 EQ PUSH2 0x70D JUMPI DUP1 PUSH4 0xB5F522F7 EQ PUSH2 0x738 JUMPI DUP1 PUSH4 0xC1560A14 EQ PUSH2 0x779 JUMPI PUSH2 0x28A JUMP JUMPDEST DUP1 PUSH4 0x8DA5CB5B EQ PUSH2 0x603 JUMPI DUP1 PUSH4 0x91152C5C EQ PUSH2 0x62E JUMPI DUP1 PUSH4 0x91D8730A EQ PUSH2 0x645 JUMPI DUP1 PUSH4 0x940C333E EQ PUSH2 0x670 JUMPI DUP1 PUSH4 0x960524E3 EQ PUSH2 0x68C JUMPI PUSH2 0x28A JUMP JUMPDEST DUP1 PUSH4 0x3E413BEE GT PUSH2 0x1C7 JUMPI DUP1 PUSH4 0x63B20117 GT PUSH2 0x18B JUMPI DUP1 PUSH4 0x63B20117 EQ PUSH2 0x556 JUMPI DUP1 PUSH4 0x6C1909ED EQ PUSH2 0x581 JUMPI DUP1 PUSH4 0x715018A6 EQ PUSH2 0x5AA JUMPI DUP1 PUSH4 0x721BC38B EQ PUSH2 0x5C1 JUMPI DUP1 PUSH4 0x7FB12001 EQ PUSH2 0x5EC JUMPI PUSH2 0x28A JUMP JUMPDEST DUP1 PUSH4 0x3E413BEE EQ PUSH2 0x46F JUMPI DUP1 PUSH4 0x3FEB5F2B EQ PUSH2 0x49A JUMPI DUP1 PUSH4 0x4A4C560D EQ PUSH2 0x4D7 JUMPI DUP1 PUSH4 0x4DEE1DC3 EQ PUSH2 0x500 JUMPI DUP1 PUSH4 0x62A469E9 EQ PUSH2 0x52B JUMPI PUSH2 0x28A JUMP JUMPDEST DUP1 PUSH4 0x212EA247 GT PUSH2 0x20E JUMPI DUP1 PUSH4 0x212EA247 EQ PUSH2 0x39A JUMPI DUP1 PUSH4 0x2151206E EQ PUSH2 0x3C5 JUMPI DUP1 PUSH4 0x22C0AEC7 EQ PUSH2 0x3F0 JUMPI DUP1 PUSH4 0x23CC75A8 EQ PUSH2 0x42D JUMPI DUP1 PUSH4 0x2F48AB7D EQ PUSH2 0x444 JUMPI PUSH2 0x28A JUMP JUMPDEST DUP1 PUSH4 0x5834E67 EQ PUSH2 0x28F JUMPI DUP1 PUSH4 0x6E4D36F EQ PUSH2 0x2CC JUMPI DUP1 PUSH4 0x115AFC3A EQ PUSH2 0x2F7 JUMPI DUP1 PUSH4 0x117D260F EQ PUSH2 0x334 JUMPI DUP1 PUSH4 0x1B152AC5 EQ PUSH2 0x371 JUMPI PUSH2 0x28A JUMP JUMPDEST CALLDATASIZE PUSH2 0x28A JUMPI PUSH1 0x40 MLOAD PUSH32 0x8C379A000000000000000000000000000000000000000000000000000000000 DUP2 MSTORE PUSH1 0x4 ADD PUSH2 0x281 SWAP1 PUSH2 0x3466 JUMP JUMPDEST PUSH1 0x40 MLOAD DUP1 SWAP2 SUB SWAP1 REVERT JUMPDEST PUSH1 0x0 DUP1 REVERT JUMPDEST CALLVALUE DUP1 ISZERO PUSH2 0x29B JUMPI PUSH1 0x0 DUP1 REVERT JUMPDEST POP PUSH2 0x2B6 PUSH1 0x4 DUP1 CALLDATASIZE SUB DUP2 ADD SWAP1 PUSH2 0x2B1 SWAP2 SWAP1 PUSH2 0x34E6 JUMP JUMPDEST PUSH2 0x9E6 JUMP JUMPDEST PUSH1 0x40 MLOAD PUSH2 0x2C3 SWAP2 SWAP1 PUSH2 0x3535 JUMP JUMPDEST PUSH1 0x40 MLOAD DUP1 SWAP2 SUB SWAP1 RETURN JUMPDEST CALLVALUE DUP1 ISZERO PUSH2 0x2D8 JUMPI PUSH1 0x0 DUP1 REVERT JUMPDEST POP PUSH2 0x2E1 PUSH2 0xBE5 JUMP JUMPDEST PUSH1 0x40 MLOAD PUSH2 0x2EE SWAP2 SWAP1 PUSH2 0x356B JUMP JUMPDEST PUSH1 0x40 MLOAD DUP1 SWAP2 SUB SWAP1 RETURN JUMPDEST CALLVALUE DUP1 ISZERO PUSH2 0x303 JUMPI PUSH1 0x0 DUP1 REVERT JUMPDEST POP PUSH2 0x31E PUSH1 0x4 DUP1 CALLDATASIZE SUB DUP2 ADD SWAP1 PUSH2 0x319 SWAP2 SWAP1 PUSH2 0x3586 JUMP JUMPDEST PUSH2 0xBF4 JUMP JUMPDEST PUSH1 0x40 MLOAD PUSH2 0x32B SWAP2 SWAP1 PUSH2 0x35CC JUMP JUMPDEST PUSH1 0x40 MLOAD DUP1 SWAP2 SUB SWAP1 RETURN JUMPDEST CALLVALUE DUP1 ISZERO PUSH2 0x340 JUMPI PUSH1 0x0 DUP1 REVERT JUMPDEST POP PUSH2 0x35B PUSH1 0x4 DUP1 CALLDATASIZE SUB DUP2 ADD SWAP1 PUSH2 0x356 SWAP2 SWAP1 PUSH2 0x34E6 JUMP JUMPDEST PUSH2 0xE9E JUMP JUMPDEST PUSH1 0x40 MLOAD PUSH2 0x368 SWAP2 SWAP1 PUSH2 0x3535 JUMP JUMPDEST PUSH1 0x40 MLOAD DUP1 SWAP2 SUB SWAP1 RETURN JUMPDEST CALLVALUE DUP1 ISZERO PUSH2 0x37D JUMPI PUSH1 0x0 DUP1 REVERT JUMPDEST POP PUSH2 0x398 PUSH1 0x4 DUP1 CALLDATASIZE SUB DUP2 ADD SWAP1 PUSH2 0x393 SWAP2 SWAP1 PUSH2 0x3613 JUMP JUMPDEST PUSH2 0x10EE JUMP JUMPDEST STOP JUMPDEST CALLVALUE DUP1 ISZERO PUSH2 0x3A6 JUMPI PUSH1 0x0 DUP1 REVERT JUMPDEST POP PUSH2 0x3AF PUSH2 0x11A8 JUMP JUMPDEST PUSH1 0x40 MLOAD PUSH2 0x3BC SWAP2 SWAP1 PUSH2 0x3535 JUMP JUMPDEST PUSH1 0x40 MLOAD DUP1 SWAP2 SUB SWAP1 RETURN JUMPDEST CALLVALUE DUP1 ISZERO PUSH2 0x3D1 JUMPI PUSH1 0x0 DUP1 REVERT JUMPDEST POP PUSH2 0x3DA PUSH2 0x124C JUMP JUMPDEST PUSH1 0x40 MLOAD PUSH2 0x3E7 SWAP2 SWAP1 PUSH2 0x3535 JUMP JUMPDEST PUSH1 0x40 MLOAD DUP1 SWAP2 SUB SWAP1 RETURN JUMPDEST CALLVALUE DUP1 ISZERO PUSH2 0x3FC JUMPI PUSH1 0x0 DUP1 REVERT JUMPDEST POP PUSH2 0x417 PUSH1 0x4 DUP1 CALLDATASIZE SUB DUP2 ADD SWAP1 PUSH2 0x412 SWAP2 SWAP1 PUSH2 0x36B1 JUMP JUMPDEST PUSH2 0x1252 JUMP JUMPDEST PUSH1 0x40 MLOAD PUSH2 0x424 SWAP2 SWAP1 PUSH2 0x356B JUMP JUMPDEST PUSH1 0x40 MLOAD DUP1 SWAP2 SUB SWAP1 RETURN JUMPDEST CALLVALUE DUP1 ISZERO PUSH2 0x439 JUMPI PUSH1 0x0 DUP1 REVERT JUMPDEST POP PUSH2 0x442 PUSH2 0x1272 JUMP JUMPDEST STOP JUMPDEST CALLVALUE DUP1 ISZERO PUSH2 0x450 JUMPI PUSH1 0x0 DUP1 REVERT JUMPDEST POP PUSH2 0x459 PUSH2 0x1542 JUMP JUMPDEST PUSH1 0x40 MLOAD PUSH2 0x466 SWAP2 SWAP1 PUSH2 0x36ED JUMP JUMPDEST PUSH1 0x40 MLOAD DUP1 SWAP2 SUB SWAP1 RETURN JUMPDEST CALLVALUE DUP1 ISZERO PUSH2 0x47B JUMPI PUSH1 0x0 DUP1 REVERT JUMPDEST POP PUSH2 0x484 PUSH2 0x1568 JUMP JUMPDEST PUSH1 0x40 MLOAD PUSH2 0x491 SWAP2 SWAP1 PUSH2 0x36ED JUMP JUMPDEST PUSH1 0x40 MLOAD DUP1 SWAP2 SUB SWAP1 RETURN JUMPDEST CALLVALUE DUP1 ISZERO PUSH2 0x4A6 JUMPI PUSH1 0x0 DUP1 REVERT JUMPDEST POP PUSH2 0x4C1 PUSH1 0x4 DUP1 CALLDATASIZE SUB DUP2 ADD SWAP1 PUSH2 0x4BC SWAP2 SWAP1 PUSH2 0x3708 JUMP JUMPDEST PUSH2 0x158E JUMP JUMPDEST PUSH1 0x40 MLOAD PUSH2 0x4CE SWAP2 SWAP1 PUSH2 0x36ED JUMP JUMPDEST PUSH1 0x40 MLOAD DUP1 SWAP2 SUB SWAP1 RETURN JUMPDEST CALLVALUE DUP1 ISZERO PUSH2 0x4E3 JUMPI PUSH1 0x0 DUP1 REVERT JUMPDEST POP PUSH2 0x4FE PUSH1 0x4 DUP1 CALLDATASIZE SUB DUP2 ADD SWAP1 PUSH2 0x4F9 SWAP2 SWAP1 PUSH2 0x36B1 JUMP JUMPDEST PUSH2 0x15CD JUMP JUMPDEST STOP JUMPDEST CALLVALUE DUP1 ISZERO PUSH2 0x50C JUMPI PUSH1 0x0 DUP1 REVERT JUMPDEST POP PUSH2 0x515 PUSH2 0x16E2 JUMP JUMPDEST PUSH1 0x40 MLOAD PUSH2 0x522 SWAP2 SWAP1 PUSH2 0x356B JUMP JUMPDEST PUSH1 0x40 MLOAD DUP1 SWAP2 SUB SWAP1 RETURN JUMPDEST CALLVALUE DUP1 ISZERO PUSH2 0x537 JUMPI PUSH1 0x0 DUP1 REVERT JUMPDEST POP PUSH2 0x540 PUSH2 0x16F5 JUMP JUMPDEST PUSH1 0x40 MLOAD PUSH2 0x54D SWAP2 SWAP1 PUSH2 0x3794 JUMP JUMPDEST PUSH1 0x40 MLOAD DUP1 SWAP2 SUB SWAP1 RETURN JUMPDEST CALLVALUE DUP1 ISZERO PUSH2 0x562 JUMPI PUSH1 0x0 DUP1 REVERT JUMPDEST POP PUSH2 0x56B PUSH2 0x171B JUMP JUMPDEST PUSH1 0x40 MLOAD PUSH2 0x578 SWAP2 SWAP1 PUSH2 0x3535 JUMP JUMPDEST PUSH1 0x40 MLOAD DUP1 SWAP2 SUB SWAP1 RETURN JUMPDEST CALLVALUE DUP1 ISZERO PUSH2 0x58D JUMPI PUSH1 0x0 DUP1 REVERT JUMPDEST POP PUSH2 0x5A8 PUSH1 0x4 DUP1 CALLDATASIZE SUB DUP2 ADD SWAP1 PUSH2 0x5A3 SWAP2 SWAP1 PUSH2 0x37AF JUMP JUMPDEST PUSH2 0x1721 JUMP JUMPDEST STOP JUMPDEST CALLVALUE DUP1 ISZERO PUSH2 0x5B6 JUMPI PUSH1 0x0 DUP1 REVERT JUMPDEST POP PUSH2 0x5BF PUSH2 0x192C JUMP JUMPDEST STOP JUMPDEST CALLVALUE DUP1 ISZERO PUSH2 0x5CD JUMPI PUSH1 0x0 DUP1 REVERT JUMPDEST POP PUSH2 0x5D6 PUSH2 0x1940 JUMP JUMPDEST PUSH1 0x40 MLOAD PUSH2 0x5E3 SWAP2 SWAP1 PUSH2 0x3535 JUMP JUMPDEST PUSH1 0x40 MLOAD DUP1 SWAP2 SUB SWAP1 RETURN JUMPDEST CALLVALUE DUP1 ISZERO PUSH2 0x5F8 JUMPI PUSH1 0x0 DUP1 REVERT JUMPDEST POP PUSH2 0x601 PUSH2 0x1946 JUMP JUMPDEST STOP JUMPDEST CALLVALUE DUP1 ISZERO PUSH2 0x60F JUMPI PUSH1 0x0 DUP1 REVERT JUMPDEST POP PUSH2 0x618 PUSH2 0x1F13 JUMP JUMPDEST PUSH1 0x40 MLOAD PUSH2 0x625 SWAP2 SWAP1 PUSH2 0x36ED JUMP JUMPDEST PUSH1 0x40 MLOAD DUP1 SWAP2 SUB SWAP1 RETURN JUMPDEST CALLVALUE DUP1 ISZERO PUSH2 0x63A JUMPI PUSH1 0x0 DUP1 REVERT JUMPDEST POP PUSH2 0x643 PUSH2 0x1F3C JUMP JUMPDEST STOP JUMPDEST CALLVALUE DUP1 ISZERO PUSH2 0x651 JUMPI PUSH1 0x0 DUP1 REVERT JUMPDEST POP PUSH2 0x65A PUSH2 0x2203 JUMP JUMPDEST PUSH1 0x40 MLOAD PUSH2 0x667 SWAP2 SWAP1 PUSH2 0x356B JUMP JUMPDEST PUSH1 0x40 MLOAD DUP1 SWAP2 SUB SWAP1 RETURN JUMPDEST PUSH2 0x68A PUSH1 0x4 DUP1 CALLDATASIZE SUB DUP2 ADD SWAP1 PUSH2 0x685 SWAP2 SWAP1 PUSH2 0x34E6 JUMP JUMPDEST PUSH2 0x2212 JUMP JUMPDEST STOP JUMPDEST CALLVALUE DUP1 ISZERO PUSH2 0x698 JUMPI PUSH1 0x0 DUP1 REVERT JUMPDEST POP PUSH2 0x6A1 PUSH2 0x2A75 JUMP JUMPDEST PUSH1 0x40 MLOAD PUSH2 0x6AE SWAP2 SWAP1 PUSH2 0x3535 JUMP JUMPDEST PUSH1 0x40 MLOAD DUP1 SWAP2 SUB SWAP1 RETURN JUMPDEST CALLVALUE DUP1 ISZERO PUSH2 0x6C3 JUMPI PUSH1 0x0 DUP1 REVERT JUMPDEST POP PUSH2 0x6CC PUSH2 0x2A82 JUMP JUMPDEST PUSH1 0x40 MLOAD PUSH2 0x6D9 SWAP2 SWAP1 PUSH2 0x3794 JUMP JUMPDEST PUSH1 0x40 MLOAD DUP1 SWAP2 SUB SWAP1 RETURN JUMPDEST CALLVALUE DUP1 ISZERO PUSH2 0x6EE JUMPI PUSH1 0x0 DUP1 REVERT JUMPDEST POP PUSH2 0x6F7 PUSH2 0x2AA8 JUMP JUMPDEST PUSH1 0x40 MLOAD PUSH2 0x704 SWAP2 SWAP1 PUSH2 0x3535 JUMP JUMPDEST PUSH1 0x40 MLOAD DUP1 SWAP2 SUB SWAP1 RETURN JUMPDEST CALLVALUE DUP1 ISZERO PUSH2 0x719 JUMPI PUSH1 0x0 DUP1 REVERT JUMPDEST POP PUSH2 0x722 PUSH2 0x2AAE JUMP JUMPDEST PUSH1 0x40 MLOAD PUSH2 0x72F SWAP2 SWAP1 PUSH2 0x356B JUMP JUMPDEST PUSH1 0x40 MLOAD DUP1 SWAP2 SUB SWAP1 RETURN JUMPDEST CALLVALUE DUP1 ISZERO PUSH2 0x744 JUMPI PUSH1 0x0 DUP1 REVERT JUMPDEST POP PUSH2 0x75F PUSH1 0x4 DUP1 CALLDATASIZE SUB DUP2 ADD SWAP1 PUSH2 0x75A SWAP2 SWAP1 PUSH2 0x3708 JUMP JUMPDEST PUSH2 0x2AC1 JUMP JUMPDEST PUSH1 0x40 MLOAD PUSH2 0x770 SWAP6 SWAP5 SWAP4 SWAP3 SWAP2 SWAP1 PUSH2 0x3802 JUMP JUMPDEST PUSH1 0x40 MLOAD DUP1 SWAP2 SUB SWAP1 RETURN JUMPDEST CALLVALUE DUP1 ISZERO PUSH2 0x785 JUMPI PUSH1 0x0 DUP1 REVERT JUMPDEST POP PUSH2 0x78E PUSH2 0x2B04 JUMP JUMPDEST PUSH1 0x40 MLOAD PUSH2 0x79B SWAP2 SWAP1 PUSH2 0x3535 JUMP JUMPDEST PUSH1 0x40 MLOAD DUP1 SWAP2 SUB SWAP1 RETURN JUMPDEST CALLVALUE DUP1 ISZERO PUSH2 0x7B0 JUMPI PUSH1 0x0 DUP1 REVERT JUMPDEST POP PUSH2 0x7CB PUSH1 0x4 DUP1 CALLDATASIZE SUB DUP2 ADD SWAP1 PUSH2 0x7C6 SWAP2 SWAP1 PUSH2 0x3708 JUMP JUMPDEST PUSH2 0x2B0A JUMP JUMPDEST PUSH1 0x40 MLOAD PUSH2 0x7D9 SWAP3 SWAP2 SWAP1 PUSH2 0x3855 JUMP JUMPDEST PUSH1 0x40 MLOAD DUP1 SWAP2 SUB SWAP1 RETURN JUMPDEST CALLVALUE DUP1 ISZERO PUSH2 0x7EE JUMPI PUSH1 0x0 DUP1 REVERT JUMPDEST POP PUSH2 0x809 PUSH1 0x4 DUP1 CALLDATASIZE SUB DUP2 ADD SWAP1 PUSH2 0x804 SWAP2 SWAP1 PUSH2 0x36B1 JUMP JUMPDEST PUSH2 0x2B86 JUMP JUMPDEST PUSH1 0x40 MLOAD PUSH2 0x816 SWAP2 SWAP1 PUSH2 0x3535 JUMP JUMPDEST PUSH1 0x40 MLOAD DUP1 SWAP2 SUB SWAP1 RETURN JUMPDEST CALLVALUE DUP1 ISZERO PUSH2 0x82B JUMPI PUSH1 0x0 DUP1 REVERT JUMPDEST POP PUSH2 0x834 PUSH2 0x2B9E JUMP JUMPDEST PUSH1 0x40 MLOAD PUSH2 0x841 SWAP2 SWAP1 PUSH2 0x356B JUMP JUMPDEST PUSH1 0x40 MLOAD DUP1 SWAP2 SUB SWAP1 RETURN JUMPDEST CALLVALUE DUP1 ISZERO PUSH2 0x856 JUMPI PUSH1 0x0 DUP1 REVERT JUMPDEST POP PUSH2 0x85F PUSH2 0x2BB1 JUMP JUMPDEST PUSH1 0x40 MLOAD PUSH2 0x86C SWAP2 SWAP1 PUSH2 0x3794 JUMP JUMPDEST PUSH1 0x40 MLOAD DUP1 SWAP2 SUB SWAP1 RETURN JUMPDEST CALLVALUE DUP1 ISZERO PUSH2 0x881 JUMPI PUSH1 0x0 DUP1 REVERT JUMPDEST POP PUSH2 0x89C PUSH1 0x4 DUP1 CALLDATASIZE SUB DUP2 ADD SWAP1 PUSH2 0x897 SWAP2 SWAP1 PUSH2 0x36B1 JUMP JUMPDEST PUSH2 0x2BD7 JUMP JUMPDEST PUSH1 0x40 MLOAD PUSH2 0x8A9 SWAP2 SWAP1 PUSH2 0x38F5 JUMP JUMPDEST PUSH1 0x40 MLOAD DUP1 SWAP2 SUB SWAP1 RETURN JUMPDEST CALLVALUE DUP1 ISZERO PUSH2 0x8BE JUMPI PUSH1 0x0 DUP1 REVERT JUMPDEST POP PUSH2 0x8D9 PUSH1 0x4 DUP1 CALLDATASIZE SUB DUP2 ADD SWAP1 PUSH2 0x8D4 SWAP2 SWAP1 PUSH2 0x36B1 JUMP JUMPDEST PUSH2 0x2BF7 JUMP JUMPDEST PUSH1 0x40 MLOAD PUSH2 0x8E6 SWAP2 SWAP1 PUSH2 0x3535 JUMP JUMPDEST PUSH1 0x40 MLOAD DUP1 SWAP2 SUB SWAP1 RETURN JUMPDEST CALLVALUE DUP1 ISZERO PUSH2 0x8FB JUMPI PUSH1 0x0 DUP1 REVERT JUMPDEST POP PUSH2 0x916 PUSH1 0x4 DUP1 CALLDATASIZE SUB DUP2 ADD SWAP1 PUSH2 0x911 SWAP2 SWAP1 PUSH2 0x3910 JUMP JUMPDEST PUSH2 0x2C0F JUMP JUMPDEST PUSH1 0x40 MLOAD PUSH2 0x923 SWAP2 SWAP1 PUSH2 0x3535 JUMP JUMPDEST PUSH1 0x40 MLOAD DUP1 SWAP2 SUB SWAP1 RETURN JUMPDEST CALLVALUE DUP1 ISZERO PUSH2 0x938 JUMPI PUSH1 0x0 DUP1 REVERT JUMPDEST POP PUSH2 0x953 PUSH1 0x4 DUP1 CALLDATASIZE SUB DUP2 ADD SWAP1 PUSH2 0x94E SWAP2 SWAP1 PUSH2 0x36B1 JUMP JUMPDEST PUSH2 0x2C34 JUMP JUMPDEST STOP JUMPDEST CALLVALUE DUP1 ISZERO PUSH2 0x961 JUMPI PUSH1 0x0 DUP1 REVERT JUMPDEST POP PUSH2 0x97C PUSH1 0x4 DUP1 CALLDATASIZE SUB DUP2 ADD SWAP1 PUSH2 0x977 SWAP2 SWAP1 PUSH2 0x36B1 JUMP JUMPDEST PUSH2 0x2CBA JUMP JUMPDEST PUSH1 0x40 MLOAD PUSH2 0x989 SWAP2 SWAP1 PUSH2 0x356B JUMP JUMPDEST PUSH1 0x40 MLOAD DUP1 SWAP2 SUB SWAP1 RETURN JUMPDEST CALLVALUE DUP1 ISZERO PUSH2 0x99E JUMPI PUSH1 0x0 DUP1 REVERT JUMPDEST POP PUSH2 0x9A7 PUSH2 0x2CDA JUMP JUMPDEST PUSH1 0x40 MLOAD PUSH2 0x9B4 SWAP2 SWAP1 PUSH2 0x3971 JUMP JUMPDEST PUSH1 0x40 MLOAD DUP1 SWAP2 SUB SWAP1 RETURN JUMPDEST CALLVALUE DUP1 ISZERO PUSH2 0x9C9 JUMPI PUSH1 0x0 DUP1 REVERT JUMPDEST POP PUSH2 0x9E4 PUSH1 0x4 DUP1 CALLDATASIZE SUB DUP2 ADD SWAP1 PUSH2 0x9DF SWAP2 SWAP1 PUSH2 0x36B1 JUMP JUMPDEST PUSH2 0x2D00 JUMP JUMPDEST STOP JUMPDEST PUSH1 0x0 DUP1 PUSH5 0x2540BE400 PUSH2 0x9F8 DUP6 PUSH2 0xBF4 JUMP JUMPDEST PUSH2 0xA02 SWAP2 SWAP1 PUSH2 0x39BB JUMP JUMPDEST SWAP1 POP PUSH1 0x0 DUP2 SGT PUSH2 0xA47 JUMPI PUSH1 0x40 MLOAD PUSH32 0x8C379A000000000000000000000000000000000000000000000000000000000 DUP2 MSTORE PUSH1 0x4 ADD PUSH2 0xA3E SWAP1 PUSH2 0x3A7F JUMP JUMPDEST PUSH1 0x40 MLOAD DUP1 SWAP2 SUB SWAP1 REVERT JUMPDEST PUSH1 0x0 PUSH2 0xA51 PUSH2 0x11A8 JUMP JUMPDEST SWAP1 POP PUSH1 0x0 PUSH1 0xF PUSH1 0x0 DUP4 DUP2 MSTORE PUSH1 0x20 ADD SWAP1 DUP2 MSTORE PUSH1 0x20 ADD PUSH1 0x0 KECCAK256 SWAP1 POP PUSH1 0x0 DUP2 PUSH1 0x2 ADD SLOAD SWAP1 POP PUSH1 0x0 DUP1 PUSH1 0x2 DUP2 GT ISZERO PUSH2 0xA88 JUMPI PUSH2 0xA87 PUSH2 0x387E JUMP JUMPDEST JUMPDEST DUP9 PUSH1 0x2 DUP2 GT ISZERO PUSH2 0xA9B JUMPI PUSH2 0xA9A PUSH2 0x387E JUMP JUMPDEST JUMPDEST SUB PUSH2 0xAC6 JUMPI PUSH8 0xDE0B6B3A7640000 DUP8 DUP7 PUSH2 0xAB5 SWAP2 SWAP1 PUSH2 0x3A9F JUMP JUMPDEST PUSH2 0xABF SWAP2 SWAP1 PUSH2 0x3B10 JUMP JUMPDEST SWAP1 POP PUSH2 0xBB3 JUMP JUMPDEST PUSH1 0x2 DUP1 DUP2 GT ISZERO PUSH2 0xAD9 JUMPI PUSH2 0xAD8 PUSH2 0x387E JUMP JUMPDEST JUMPDEST DUP9 PUSH1 0x2 DUP2 GT ISZERO PUSH2 0xAEC JUMPI PUSH2 0xAEB PUSH2 0x387E JUMP JUMPDEST JUMPDEST EQ DUP1 PUSH2 0xB1C JUMPI POP PUSH1 0x1 PUSH1 0x2 DUP2 GT ISZERO PUSH2 0xB07 JUMPI PUSH2 0xB06 PUSH2 0x387E JUMP JUMPDEST JUMPDEST DUP9 PUSH1 0x2 DUP2 GT ISZERO PUSH2 0xB1A JUMPI PUSH2 0xB19 PUSH2 0x387E JUMP JUMPDEST JUMPDEST EQ JUMPDEST ISZERO PUSH2 0xB77 JUMPI PUSH1 0x0 PUSH1 0x6 SWAP1 POP PUSH1 0x0 DUP2 PUSH1 0x12 PUSH2 0xB36 SWAP2 SWAP1 PUSH2 0x3B41 JUMP JUMPDEST PUSH1 0xA PUSH2 0xB42 SWAP2 SWAP1 PUSH2 0x3CA8 JUMP JUMPDEST DUP10 PUSH2 0xB4D SWAP2 SWAP1 PUSH2 0x3A9F JUMP JUMPDEST SWAP1 POP PUSH8 0xDE0B6B3A7640000 DUP2 DUP9 PUSH2 0xB64 SWAP2 SWAP1 PUSH2 0x3A9F JUMP JUMPDEST PUSH2 0xB6E SWAP2 SWAP1 PUSH2 0x3B10 JUMP JUMPDEST SWAP3 POP POP POP PUSH2 0xBB2 JUMP JUMPDEST PUSH1 0x40 MLOAD PUSH32 0x8C379A000000000000000000000000000000000000000000000000000000000 DUP2 MSTORE PUSH1 0x4 ADD PUSH2 0xBA9 SWAP1 PUSH2 0x3D3F JUMP JUMPDEST PUSH1 0x40 MLOAD DUP1 SWAP2 SUB SWAP1 REVERT JUMPDEST JUMPDEST PUSH1 0x0 DUP3 PUSH8 0xDE0B6B3A7640000 DUP4 PUSH2 0xBCA SWAP2 SWAP1 PUSH2 0x3A9F JUMP JUMPDEST PUSH2 0xBD4 SWAP2 SWAP1 PUSH2 0x3B10 JUMP JUMPDEST SWAP1 POP DUP1 SWAP7 POP POP POP POP POP POP POP SWAP3 SWAP2 POP POP JUMP JUMPDEST PUSH1 0x0 PUSH1 0x6 SLOAD PUSH1 0x9 SLOAD LT ISZERO SWAP1 POP SWAP1 JUMP JUMPDEST PUSH1 0x0 DUP1 PUSH1 0x2 DUP2 GT ISZERO PUSH2 0xC09 JUMPI PUSH2 0xC08 PUSH2 0x387E JUMP JUMPDEST JUMPDEST DUP3 PUSH1 0x2 DUP2 GT ISZERO PUSH2 0xC1C JUMPI PUSH2 0xC1B PUSH2 0x387E JUMP JUMPDEST JUMPDEST SUB PUSH2 0xCC3 JUMPI PUSH1 0x0 PUSH1 0x2 PUSH1 0x0 SWAP1 SLOAD SWAP1 PUSH2 0x100 EXP SWAP1 DIV PUSH20 0xFFFFFFFFFFFFFFFFFFFFFFFFFFFFFFFFFFFFFFFF AND PUSH20 0xFFFFFFFFFFFFFFFFFFFFFFFFFFFFFFFFFFFFFFFF AND PUSH4 0xFEAF968C PUSH1 0x40 MLOAD DUP2 PUSH4 0xFFFFFFFF AND PUSH1 0xE0 SHL DUP2 MSTORE PUSH1 0x4 ADD PUSH1 0xA0 PUSH1 0x40 MLOAD DUP1 DUP4 SUB DUP2 DUP7 GAS STATICCALL ISZERO DUP1 ISZERO PUSH2 0xC90 JUMPI RETURNDATASIZE PUSH1 0x0 DUP1 RETURNDATACOPY RETURNDATASIZE PUSH1 0x0 REVERT JUMPDEST POP POP POP POP PUSH1 0x40 MLOAD RETURNDATASIZE PUSH1 0x1F NOT PUSH1 0x1F DUP3 ADD AND DUP3 ADD DUP1 PUSH1 0x40 MSTORE POP DUP2 ADD SWAP1 PUSH2 0xCB4 SWAP2 SWAP1 PUSH2 0x3DE2 JUMP JUMPDEST POP POP POP SWAP2 POP POP DUP1 SWAP2 POP POP PUSH2 0xE99 JUMP JUMPDEST PUSH1 0x1 PUSH1 0x2 DUP2 GT ISZERO PUSH2 0xCD7 JUMPI PUSH2 0xCD6 PUSH2 0x387E JUMP JUMPDEST JUMPDEST DUP3 PUSH1 0x2 DUP2 GT ISZERO PUSH2 0xCEA JUMPI PUSH2 0xCE9 PUSH2 0x387E JUMP JUMPDEST JUMPDEST SUB PUSH2 0xD91 JUMPI PUSH1 0x0 PUSH1 0x3 PUSH1 0x0 SWAP1 SLOAD SWAP1 PUSH2 0x100 EXP SWAP1 DIV PUSH20 0xFFFFFFFFFFFFFFFFFFFFFFFFFFFFFFFFFFFFFFFF AND PUSH20 0xFFFFFFFFFFFFFFFFFFFFFFFFFFFFFFFFFFFFFFFF AND PUSH4 0xFEAF968C PUSH1 0x40 MLOAD DUP2 PUSH4 0xFFFFFFFF AND PUSH1 0xE0 SHL DUP2 MSTORE PUSH1 0x4 ADD PUSH1 0xA0 PUSH1 0x40 MLOAD DUP1 DUP4 SUB DUP2 DUP7 GAS STATICCALL ISZERO DUP1 ISZERO PUSH2 0xD5E JUMPI RETURNDATASIZE PUSH1 0x0 DUP1 RETURNDATACOPY RETURNDATASIZE PUSH1 0x0 REVERT JUMPDEST POP POP POP POP PUSH1 0x40 MLOAD RETURNDATASIZE PUSH1 0x1F NOT PUSH1 0x1F DUP3 ADD AND DUP3 ADD DUP1 PUSH1 0x40 MSTORE POP DUP2 ADD SWAP1 PUSH2 0xD82 SWAP2 SWAP1 PUSH2 0x3DE2 JUMP JUMPDEST POP POP POP SWAP2 POP POP DUP1 SWAP2 POP POP PUSH2 0xE99 JUMP JUMPDEST PUSH1 0x2 DUP1 DUP2 GT ISZERO PUSH2 0xDA4 JUMPI PUSH2 0xDA3 PUSH2 0x387E JUMP JUMPDEST JUMPDEST DUP3 PUSH1 0x2 DUP2 GT ISZERO PUSH2 0xDB7 JUMPI PUSH2 0xDB6 PUSH2 0x387E JUMP JUMPDEST JUMPDEST SUB PUSH2 0xE5E JUMPI PUSH1 0x0 PUSH1 0x4 PUSH1 0x0 SWAP1 SLOAD SWAP1 PUSH2 0x100 EXP SWAP1 DIV PUSH20 0xFFFFFFFFFFFFFFFFFFFFFFFFFFFFFFFFFFFFFFFF AND PUSH20 0xFFFFFFFFFFFFFFFFFFFFFFFFFFFFFFFFFFFFFFFF AND PUSH4 0xFEAF968C PUSH1 0x40 MLOAD DUP2 PUSH4 0xFFFFFFFF AND PUSH1 0xE0 SHL DUP2 MSTORE PUSH1 0x4 ADD PUSH1 0xA0 PUSH1 0x40 MLOAD DUP1 DUP4 SUB DUP2 DUP7 GAS STATICCALL ISZERO DUP1 ISZERO PUSH2 0xE2B JUMPI RETURNDATASIZE PUSH1 0x0 DUP1 RETURNDATACOPY RETURNDATASIZE PUSH1 0x0 REVERT JUMPDEST POP POP POP POP PUSH1 0x40 MLOAD RETURNDATASIZE PUSH1 0x1F NOT PUSH1 0x1F DUP3 ADD AND DUP3 ADD DUP1 PUSH1 0x40 MSTORE POP DUP2 ADD SWAP1 PUSH2 0xE4F SWAP2 SWAP1 PUSH2 0x3DE2 JUMP JUMPDEST POP POP POP SWAP2 POP POP DUP1 SWAP2 POP POP PUSH2 0xE99 JUMP JUMPDEST PUSH1 0x40 MLOAD PUSH32 0x8C379A000000000000000000000000000000000000000000000000000000000 DUP2 MSTORE PUSH1 0x4 ADD PUSH2 0xE90 SWAP1 PUSH2 0x3D3F JUMP JUMPDEST PUSH1 0x40 MLOAD DUP1 SWAP2 SUB SWAP1 REVERT JUMPDEST SWAP2 SWAP1 POP JUMP JUMPDEST PUSH1 0x0 DUP1 DUP3 GT PUSH2 0xEE2 JUMPI PUSH1 0x40 MLOAD PUSH32 0x8C379A000000000000000000000000000000000000000000000000000000000 DUP2 MSTORE PUSH1 0x4 ADD PUSH2 0xED9 SWAP1 PUSH2 0x3ECF JUMP JUMPDEST PUSH1 0x40 MLOAD DUP1 SWAP2 SUB SWAP1 REVERT JUMPDEST PUSH1 0x0 PUSH5 0x2540BE400 PUSH2 0xEF3 DUP6 PUSH2 0xBF4 JUMP JUMPDEST PUSH2 0xEFD SWAP2 SWAP1 PUSH2 0x39BB JUMP JUMPDEST SWAP1 POP PUSH1 0x0 DUP2 SGT PUSH2 0xF42 JUMPI PUSH1 0x40 MLOAD PUSH32 0x8C379A000000000000000000000000000000000000000000000000000000000 DUP2 MSTORE PUSH1 0x4 ADD PUSH2 0xF39 SWAP1 PUSH2 0x3A7F JUMP JUMPDEST PUSH1 0x40 MLOAD DUP1 SWAP2 SUB SWAP1 REVERT JUMPDEST PUSH1 0x0 PUSH2 0xF4C PUSH2 0x11A8 JUMP JUMPDEST SWAP1 POP PUSH1 0x0 DUP2 SUB PUSH2 0xF91 JUMPI PUSH1 0x40 MLOAD PUSH32 0x8C379A000000000000000000000000000000000000000000000000000000000 DUP2 MSTORE PUSH1 0x4 ADD PUSH2 0xF88 SWAP1 PUSH2 0x3F3B JUMP JUMPDEST PUSH1 0x40 MLOAD DUP1 SWAP2 SUB SWAP1 REVERT JUMPDEST PUSH1 0x0 PUSH1 0xF PUSH1 0x0 DUP4 DUP2 MSTORE PUSH1 0x20 ADD SWAP1 DUP2 MSTORE PUSH1 0x20 ADD PUSH1 0x0 KECCAK256 SWAP1 POP PUSH1 0x0 DUP2 PUSH1 0x2 ADD SLOAD SWAP1 POP PUSH1 0x0 PUSH8 0xDE0B6B3A7640000 DUP3 DUP9 PUSH2 0xFC8 SWAP2 SWAP1 PUSH2 0x3A9F JUMP JUMPDEST PUSH2 0xFD2 SWAP2 SWAP1 PUSH2 0x3B10 JUMP JUMPDEST SWAP1 POP PUSH1 0x0 DUP1 PUSH1 0x2 DUP2 GT ISZERO PUSH2 0xFE9 JUMPI PUSH2 0xFE8 PUSH2 0x387E JUMP JUMPDEST JUMPDEST DUP10 PUSH1 0x2 DUP2 GT ISZERO PUSH2 0xFFC JUMPI PUSH2 0xFFB PUSH2 0x387E JUMP JUMPDEST JUMPDEST SUB PUSH2 0x1027 JUMPI DUP6 PUSH8 0xDE0B6B3A7640000 DUP4 PUSH2 0x1016 SWAP2 SWAP1 PUSH2 0x3A9F JUMP JUMPDEST PUSH2 0x1020 SWAP2 SWAP1 PUSH2 0x3B10 JUMP JUMPDEST SWAP1 POP PUSH2 0x10DF JUMP JUMPDEST PUSH1 0x1 PUSH1 0x2 DUP2 GT ISZERO PUSH2 0x103B JUMPI PUSH2 0x103A PUSH2 0x387E JUMP JUMPDEST JUMPDEST DUP10 PUSH1 0x2 DUP2 GT ISZERO PUSH2 0x104E JUMPI PUSH2 0x104D PUSH2 0x387E JUMP JUMPDEST JUMPDEST EQ DUP1 PUSH2 0x107D JUMPI POP PUSH1 0x2 DUP1 DUP2 GT ISZERO PUSH2 0x1068 JUMPI PUSH2 0x1067 PUSH2 0x387E JUMP JUMPDEST JUMPDEST DUP10 PUSH1 0x2 DUP2 GT ISZERO PUSH2 0x107B JUMPI PUSH2 0x107A PUSH2 0x387E JUMP JUMPDEST JUMPDEST EQ JUMPDEST ISZERO PUSH2 0x10A3 JUMPI DUP6 PUSH3 0xF4240 DUP4 PUSH2 0x1092 SWAP2 SWAP1 PUSH2 0x3A9F JUMP JUMPDEST PUSH2 0x109C SWAP2 SWAP1 PUSH2 0x3B10 JUMP JUMPDEST SWAP1 POP PUSH2 0x10DE JUMP JUMPDEST PUSH1 0x40 MLOAD PUSH32 0x8C379A000000000000000000000000000000000000000000000000000000000 DUP2 MSTORE PUSH1 0x4 ADD PUSH2 0x10D5 SWAP1 PUSH2 0x3D3F JUMP JUMPDEST PUSH1 0x40 MLOAD DUP1 SWAP2 SUB SWAP1 REVERT JUMPDEST JUMPDEST DUP1 SWAP7 POP POP POP POP POP POP POP SWAP3 SWAP2 POP POP JUMP JUMPDEST PUSH2 0x10F6 PUSH2 0x2E15 JUMP JUMPDEST DUP1 PUSH1 0xB PUSH1 0x2 PUSH2 0x100 EXP DUP2 SLOAD DUP2 PUSH1 0xFF MUL NOT AND SWAP1 DUP4 ISZERO ISZERO MUL OR SWAP1 SSTORE POP PUSH1 0x0 PUSH1 0xF PUSH1 0x0 DUP5 DUP2 MSTORE PUSH1 0x20 ADD SWAP1 DUP2 MSTORE PUSH1 0x20 ADD PUSH1 0x0 KECCAK256 SWAP1 POP TIMESTAMP DUP2 PUSH1 0x1 ADD DUP2 SWAP1 SSTORE POP DUP1 PUSH1 0x1 ADD SLOAD TIMESTAMP GT ISZERO DUP1 ISZERO PUSH2 0x1153 JUMPI POP DUP1 PUSH1 0x4 ADD PUSH1 0x0 SWAP1 SLOAD SWAP1 PUSH2 0x100 EXP SWAP1 DIV PUSH1 0xFF AND ISZERO JUMPDEST ISZERO PUSH2 0x1176 JUMPI PUSH1 0x1 DUP2 PUSH1 0x4 ADD PUSH1 0x0 PUSH2 0x100 EXP DUP2 SLOAD DUP2 PUSH1 0xFF MUL NOT AND SWAP1 DUP4 ISZERO ISZERO MUL OR SWAP1 SSTORE POP JUMPDEST DUP3 PUSH32 0x7B1C1AD0F3E04C9EF02D69280925520638D1CF076C56C4AA5BB1D0D37A949A3D PUSH1 0x40 MLOAD PUSH1 0x40 MLOAD DUP1 SWAP2 SUB SWAP1 LOG2 POP POP POP JUMP JUMPDEST PUSH1 0x0 DUP1 PUSH1 0x1 SWAP1 POP JUMPDEST PUSH1 0x8 SLOAD DUP2 GT PUSH2 0x1243 JUMPI PUSH1 0xF PUSH1 0x0 DUP3 DUP2 MSTORE PUSH1 0x20 ADD SWAP1 DUP2 MSTORE PUSH1 0x20 ADD PUSH1 0x0 KECCAK256 PUSH1 0x0 ADD SLOAD TIMESTAMP LT ISZERO DUP1 ISZERO PUSH2 0x11F5 JUMPI POP PUSH1 0xF PUSH1 0x0 DUP3 DUP2 MSTORE PUSH1 0x20 ADD SWAP1 DUP2 MSTORE PUSH1 0x20 ADD PUSH1 0x0 KECCAK256 PUSH1 0x1 ADD SLOAD TIMESTAMP GT ISZERO JUMPDEST DUP1 ISZERO PUSH2 0x1222 JUMPI POP PUSH1 0xF PUSH1 0x0 DUP3 DUP2 MSTORE PUSH1 0x20 ADD SWAP1 DUP2 MSTORE PUSH1 0x20 ADD PUSH1 0x0 KECCAK256 PUSH1 0x4 ADD PUSH1 0x0 SWAP1 SLOAD SWAP1 PUSH2 0x100 EXP SWAP1 DIV PUSH1 0xFF AND ISZERO JUMPDEST ISZERO PUSH2 0x1230 JUMPI DUP1 SWAP2 POP POP PUSH2 0x1249 JUMP JUMPDEST DUP1 DUP1 PUSH2 0x123B SWAP1 PUSH2 0x3F5B JUMP JUMPDEST SWAP2 POP POP PUSH2 0x11B0 JUMP JUMPDEST POP PUSH1 0x0 SWAP1 POP JUMPDEST SWAP1 JUMP JUMPDEST PUSH1 0x6 SLOAD DUP2 JUMP JUMPDEST PUSH1 0x11 PUSH1 0x20 MSTORE DUP1 PUSH1 0x0 MSTORE PUSH1 0x40 PUSH1 0x0 KECCAK256 PUSH1 0x0 SWAP2 POP SLOAD SWAP1 PUSH2 0x100 EXP SWAP1 DIV PUSH1 0xFF AND DUP2 JUMP JUMPDEST PUSH2 0x127A PUSH2 0x2E9C JUMP JUMPDEST PUSH2 0x1282 PUSH2 0x2E15 JUMP JUMPDEST PUSH1 0xB PUSH1 0x0 SWAP1 SLOAD SWAP1 PUSH2 0x100 EXP SWAP1 DIV PUSH1 0xFF AND ISZERO PUSH2 0x12D2 JUMPI PUSH1 0x40 MLOAD PUSH32 0x8C379A000000000000000000000000000000000000000000000000000000000 DUP2 MSTORE PUSH1 0x4 ADD PUSH2 0x12C9 SWAP1 PUSH2 0x3FEF JUMP JUMPDEST PUSH1 0x40 MLOAD DUP1 SWAP2 SUB SWAP1 REVERT JUMPDEST PUSH1 0x6 SLOAD PUSH1 0x9 SLOAD LT ISZERO DUP1 PUSH2 0x12E9 JUMPI POP PUSH1 0x7 SLOAD PUSH1 0x9 SLOAD LT ISZERO JUMPDEST DUP1 PUSH2 0x12FB JUMPI POP PUSH2 0x12F7 PUSH2 0x2EE2 JUMP JUMPDEST TIMESTAMP LT ISZERO JUMPDEST PUSH2 0x133A JUMPI PUSH1 0x40 MLOAD PUSH32 0x8C379A000000000000000000000000000000000000000000000000000000000 DUP2 MSTORE PUSH1 0x4 ADD PUSH2 0x1331 SWAP1 PUSH2 0x4081 JUMP JUMPDEST PUSH1 0x40 MLOAD DUP1 SWAP2 SUB SWAP1 REVERT JUMPDEST PUSH1 0x0 PUSH1 0x1 SWAP1 POP JUMPDEST PUSH1 0x8 SLOAD DUP2 GT PUSH2 0x13BB JUMPI PUSH1 0x0 PUSH1 0xF PUSH1 0x0 DUP4 DUP2 MSTORE PUSH1 0x20 ADD SWAP1 DUP2 MSTORE PUSH1 0x20 ADD PUSH1 0x0 KECCAK256 SWAP1 POP DUP1 PUSH1 0x1 ADD SLOAD TIMESTAMP LT ISZERO DUP1 ISZERO PUSH2 0x1384 JUMPI POP DUP1 PUSH1 0x4 ADD PUSH1 0x0 SWAP1 SLOAD SWAP1 PUSH2 0x100 EXP SWAP1 DIV PUSH1 0xFF AND ISZERO JUMPDEST ISZERO PUSH2 0x13A7 JUMPI PUSH1 0x1 DUP2 PUSH1 0x4 ADD PUSH1 0x0 PUSH2 0x100 EXP DUP2 SLOAD DUP2 PUSH1 0xFF MUL NOT AND SWAP1 DUP4 ISZERO ISZERO MUL OR SWAP1 SSTORE POP JUMPDEST POP DUP1 DUP1 PUSH2 0x13B3 SWAP1 PUSH2 0x3F5B JUMP JUMPDEST SWAP2 POP POP PUSH2 0x1341 JUMP JUMPDEST POP PUSH1 0x7 SLOAD PUSH1 0x9 SLOAD LT PUSH2 0x141E JUMPI PUSH1 0x1 PUSH1 0xB PUSH1 0x0 PUSH2 0x100 EXP DUP2 SLOAD DUP2 PUSH1 0xFF MUL NOT AND SWAP1 DUP4 ISZERO ISZERO MUL OR SWAP1 SSTORE POP PUSH2 0x13EA PUSH2 0x2F4C JUMP JUMPDEST PUSH1 0xA SLOAD PUSH32 0x9C4B134DA32AAB35252391880A9F2A3C13A760D7817AE8823F2B301D3522045A PUSH1 0x40 MLOAD PUSH1 0x40 MLOAD DUP1 SWAP2 SUB SWAP1 LOG2 PUSH2 0x1538 JUMP JUMPDEST PUSH1 0x6 SLOAD PUSH1 0x9 SLOAD LT ISZERO DUP1 ISZERO PUSH2 0x143E JUMPI POP PUSH1 0xB PUSH1 0x2 SWAP1 SLOAD SWAP1 PUSH2 0x100 EXP SWAP1 DIV PUSH1 0xFF AND JUMPDEST ISZERO PUSH2 0x149A JUMPI PUSH1 0x1 PUSH1 0xB PUSH1 0x0 PUSH2 0x100 EXP DUP2 SLOAD DUP2 PUSH1 0xFF MUL NOT AND SWAP1 DUP4 ISZERO ISZERO MUL OR SWAP1 SSTORE POP PUSH2 0x1466 PUSH2 0x2F4C JUMP JUMPDEST PUSH1 0xA SLOAD PUSH32 0x9C4B134DA32AAB35252391880A9F2A3C13A760D7817AE8823F2B301D3522045A PUSH1 0x40 MLOAD PUSH1 0x40 MLOAD DUP1 SWAP2 SUB SWAP1 LOG2 PUSH2 0x1537 JUMP JUMPDEST PUSH2 0x14A2 PUSH2 0x2EE2 JUMP JUMPDEST TIMESTAMP LT ISZERO PUSH2 0x14E4 JUMPI PUSH1 0x40 MLOAD PUSH32 0x8C379A000000000000000000000000000000000000000000000000000000000 DUP2 MSTORE PUSH1 0x4 ADD PUSH2 0x14DB SWAP1 PUSH2 0x40ED JUMP JUMPDEST PUSH1 0x40 MLOAD DUP1 SWAP2 SUB SWAP1 REVERT JUMPDEST PUSH1 0x1 PUSH1 0xB PUSH1 0x0 PUSH2 0x100 EXP DUP2 SLOAD DUP2 PUSH1 0xFF MUL NOT AND SWAP1 DUP4 ISZERO ISZERO MUL OR SWAP1 SSTORE POP PUSH2 0x1507 PUSH2 0x2F4C JUMP JUMPDEST PUSH1 0xA SLOAD PUSH32 0x9C4B134DA32AAB35252391880A9F2A3C13A760D7817AE8823F2B301D3522045A PUSH1 0x40 MLOAD PUSH1 0x40 MLOAD DUP1 SWAP2 SUB SWAP1 LOG2 JUMPDEST JUMPDEST PUSH2 0x1540 PUSH2 0x3334 JUMP JUMPDEST JUMP JUMPDEST PUSH1 0xD PUSH1 0x0 SWAP1 SLOAD SWAP1 PUSH2 0x100 EXP SWAP1 DIV PUSH20 0xFFFFFFFFFFFFFFFFFFFFFFFFFFFFFFFFFFFFFFFF AND DUP2 JUMP JUMPDEST PUSH1 0xE PUSH1 0x0 SWAP1 SLOAD SWAP1 PUSH2 0x100 EXP SWAP1 DIV PUSH20 0xFFFFFFFFFFFFFFFFFFFFFFFFFFFFFFFFFFFFFFFF AND DUP2 JUMP JUMPDEST PUSH1 0xC DUP2 DUP2 SLOAD DUP2 LT PUSH2 0x159E JUMPI PUSH1 0x0 DUP1 REVERT JUMPDEST SWAP1 PUSH1 0x0 MSTORE PUSH1 0x20 PUSH1 0x0 KECCAK256 ADD PUSH1 0x0 SWAP2 POP SLOAD SWAP1 PUSH2 0x100 EXP SWAP1 DIV PUSH20 0xFFFFFFFFFFFFFFFFFFFFFFFFFFFFFFFFFFFFFFFF AND DUP2 JUMP JUMPDEST PUSH2 0x15D5 PUSH2 0x2E15 JUMP JUMPDEST PUSH1 0x0 PUSH20 0xFFFFFFFFFFFFFFFFFFFFFFFFFFFFFFFFFFFFFFFF AND DUP2 PUSH20 0xFFFFFFFFFFFFFFFFFFFFFFFFFFFFFFFFFFFFFFFF AND SUB PUSH2 0x1644 JUMPI PUSH1 0x40 MLOAD PUSH32 0x8C379A000000000000000000000000000000000000000000000000000000000 DUP2 MSTORE PUSH1 0x4 ADD PUSH2 0x163B SWAP1 PUSH2 0x4159 JUMP JUMPDEST PUSH1 0x40 MLOAD DUP1 SWAP2 SUB SWAP1 REVERT JUMPDEST PUSH1 0x1 PUSH1 0x10 PUSH1 0x0 DUP4 PUSH20 0xFFFFFFFFFFFFFFFFFFFFFFFFFFFFFFFFFFFFFFFF AND PUSH20 0xFFFFFFFFFFFFFFFFFFFFFFFFFFFFFFFFFFFFFFFF AND DUP2 MSTORE PUSH1 0x20 ADD SWAP1 DUP2 MSTORE PUSH1 0x20 ADD PUSH1 0x0 KECCAK256 PUSH1 0x0 PUSH2 0x100 EXP DUP2 SLOAD DUP2 PUSH1 0xFF MUL NOT AND SWAP1 DUP4 ISZERO ISZERO MUL OR SWAP1 SSTORE POP DUP1 PUSH20 0xFFFFFFFFFFFFFFFFFFFFFFFFFFFFFFFFFFFFFFFF AND PUSH32 0xAAB7954E9D246B167EF88AEDDAD35209CA2489D95A8AEB59E288D9B19FAE5A54 PUSH1 0x40 MLOAD PUSH1 0x40 MLOAD DUP1 SWAP2 SUB SWAP1 LOG2 POP JUMP JUMPDEST PUSH1 0xB PUSH1 0x1 SWAP1 SLOAD SWAP1 PUSH2 0x100 EXP SWAP1 DIV PUSH1 0xFF AND DUP2 JUMP JUMPDEST PUSH1 0x3 PUSH1 0x0 SWAP1 SLOAD SWAP1 PUSH2 0x100 EXP SWAP1 DIV PUSH20 0xFFFFFFFFFFFFFFFFFFFFFFFFFFFFFFFFFFFFFFFF AND DUP2 JUMP JUMPDEST PUSH1 0xA SLOAD DUP2 JUMP JUMPDEST PUSH2 0x1729 PUSH2 0x2E15 JUMP JUMPDEST PUSH1 0xB PUSH1 0x0 SWAP1 SLOAD SWAP1 PUSH2 0x100 EXP SWAP1 DIV PUSH1 0xFF AND ISZERO PUSH2 0x1779 JUMPI PUSH1 0x40 MLOAD PUSH32 0x8C379A000000000000000000000000000000000000000000000000000000000 DUP2 MSTORE PUSH1 0x4 ADD PUSH2 0x1770 SWAP1 PUSH2 0x3FEF JUMP JUMPDEST PUSH1 0x40 MLOAD DUP1 SWAP2 SUB SWAP1 REVERT JUMPDEST TIMESTAMP DUP4 GT PUSH2 0x17BB JUMPI PUSH1 0x40 MLOAD PUSH32 0x8C379A000000000000000000000000000000000000000000000000000000000 DUP2 MSTORE PUSH1 0x4 ADD PUSH2 0x17B2 SWAP1 PUSH2 0x41EB JUMP JUMPDEST PUSH1 0x40 MLOAD DUP1 SWAP2 SUB SWAP1 REVERT JUMPDEST DUP3 DUP3 GT PUSH2 0x17FD JUMPI PUSH1 0x40 MLOAD PUSH32 0x8C379A000000000000000000000000000000000000000000000000000000000 DUP2 MSTORE PUSH1 0x4 ADD PUSH2 0x17F4 SWAP1 PUSH2 0x427D JUMP JUMPDEST PUSH1 0x40 MLOAD DUP1 SWAP2 SUB SWAP1 REVERT JUMPDEST PUSH2 0x1805 PUSH2 0x2EE2 JUMP JUMPDEST DUP4 GT PUSH2 0x1846 JUMPI PUSH1 0x40 MLOAD PUSH32 0x8C379A000000000000000000000000000000000000000000000000000000000 DUP2 MSTORE PUSH1 0x4 ADD PUSH2 0x183D SWAP1 PUSH2 0x430F JUMP JUMPDEST PUSH1 0x40 MLOAD DUP1 SWAP2 SUB SWAP1 REVERT JUMPDEST PUSH1 0x8 PUSH1 0x0 DUP2 SLOAD DUP1 SWAP3 SWAP2 SWAP1 PUSH2 0x1859 SWAP1 PUSH2 0x3F5B JUMP JUMPDEST SWAP2 SWAP1 POP SSTORE POP PUSH1 0x40 MLOAD DUP1 PUSH1 0xA0 ADD PUSH1 0x40 MSTORE DUP1 DUP5 DUP2 MSTORE PUSH1 0x20 ADD DUP4 DUP2 MSTORE PUSH1 0x20 ADD DUP3 DUP2 MSTORE PUSH1 0x20 ADD PUSH1 0x0 DUP2 MSTORE PUSH1 0x20 ADD PUSH1 0x0 ISZERO ISZERO DUP2 MSTORE POP PUSH1 0xF PUSH1 0x0 PUSH1 0x8 SLOAD DUP2 MSTORE PUSH1 0x20 ADD SWAP1 DUP2 MSTORE PUSH1 0x20 ADD PUSH1 0x0 KECCAK256 PUSH1 0x0 DUP3 ADD MLOAD DUP2 PUSH1 0x0 ADD SSTORE PUSH1 0x20 DUP3 ADD MLOAD DUP2 PUSH1 0x1 ADD SSTORE PUSH1 0x40 DUP3 ADD MLOAD DUP2 PUSH1 0x2 ADD SSTORE PUSH1 0x60 DUP3 ADD MLOAD DUP2 PUSH1 0x3 ADD SSTORE PUSH1 0x80 DUP3 ADD MLOAD DUP2 PUSH1 0x4 ADD PUSH1 0x0 PUSH2 0x100 EXP DUP2 SLOAD DUP2 PUSH1 0xFF MUL NOT AND SWAP1 DUP4 ISZERO ISZERO MUL OR SWAP1 SSTORE POP SWAP1 POP POP PUSH1 0x8 SLOAD PUSH32 0x63B43FA153147ADE1DE28ED76841CDBC34E510ED94DD1FF5A88E278B0B1AD9BA DUP5 DUP5 DUP5 PUSH1 0x40 MLOAD PUSH2 0x191F SWAP4 SWAP3 SWAP2 SWAP1 PUSH2 0x432F JUMP JUMPDEST PUSH1 0x40 MLOAD DUP1 SWAP2 SUB SWAP1 LOG2 POP POP POP JUMP JUMPDEST PUSH2 0x1934 PUSH2 0x2E15 JUMP JUMPDEST PUSH2 0x193E PUSH1 0x0 PUSH2 0x333D JUMP JUMPDEST JUMP JUMPDEST PUSH1 0x9 SLOAD DUP2 JUMP JUMPDEST PUSH2 0x194E PUSH2 0x2E9C JUMP JUMPDEST PUSH2 0x1956 PUSH2 0x2E15 JUMP JUMPDEST PUSH1 0xB PUSH1 0x0 SWAP1 SLOAD SWAP1 PUSH2 0x100 EXP SWAP1 DIV PUSH1 0xFF AND ISZERO PUSH2 0x19A6 JUMPI PUSH1 0x40 MLOAD PUSH32 0x8C379A000000000000000000000000000000000000000000000000000000000 DUP2 MSTORE PUSH1 0x4 ADD PUSH2 0x199D SWAP1 PUSH2 0x3FEF JUMP JUMPDEST PUSH1 0x40 MLOAD DUP1 SWAP2 SUB SWAP1 REVERT JUMPDEST PUSH2 0x19AE PUSH2 0x2EE2 JUMP JUMPDEST TIMESTAMP GT DUP1 PUSH2 0x19C7 JUMPI POP PUSH1 0xB PUSH1 0x2 SWAP1 SLOAD SWAP1 PUSH2 0x100 EXP SWAP1 DIV PUSH1 0xFF AND JUMPDEST PUSH2 0x1A06 JUMPI PUSH1 0x40 MLOAD PUSH32 0x8C379A000000000000000000000000000000000000000000000000000000000 DUP2 MSTORE PUSH1 0x4 ADD PUSH2 0x19FD SWAP1 PUSH2 0x43B2 JUMP JUMPDEST PUSH1 0x40 MLOAD DUP1 SWAP2 SUB SWAP1 REVERT JUMPDEST PUSH1 0x6 SLOAD PUSH1 0x9 SLOAD LT PUSH2 0x1A4C JUMPI PUSH1 0x40 MLOAD PUSH32 0x8C379A000000000000000000000000000000000000000000000000000000000 DUP2 MSTORE PUSH1 0x4 ADD PUSH2 0x1A43 SWAP1 PUSH2 0x441E JUMP JUMPDEST PUSH1 0x40 MLOAD DUP1 SWAP2 SUB SWAP1 REVERT JUMPDEST PUSH1 0x0 PUSH1 0xC DUP1 SLOAD SWAP1 POP SWAP1 POP PUSH1 0x0 JUMPDEST DUP2 DUP2 LT ISZERO PUSH2 0x1EEC JUMPI PUSH1 0x0 PUSH1 0xC DUP3 DUP2 SLOAD DUP2 LT PUSH2 0x1A77 JUMPI PUSH2 0x1A76 PUSH2 0x443E JUMP JUMPDEST JUMPDEST SWAP1 PUSH1 0x0 MSTORE PUSH1 0x20 PUSH1 0x0 KECCAK256 ADD PUSH1 0x0 SWAP1 SLOAD SWAP1 PUSH2 0x100 EXP SWAP1 DIV PUSH20 0xFFFFFFFFFFFFFFFFFFFFFFFFFFFFFFFFFFFFFFFF AND SWAP1 POP PUSH1 0x0 JUMPDEST PUSH1 0x3 DUP2 PUSH1 0xFF AND LT ISZERO PUSH2 0x1EDD JUMPI PUSH1 0x0 DUP2 PUSH1 0xFF AND PUSH1 0x2 DUP2 GT ISZERO PUSH2 0x1ACB JUMPI PUSH2 0x1ACA PUSH2 0x387E JUMP JUMPDEST JUMPDEST SWAP1 POP PUSH1 0x0 PUSH1 0x16 PUSH1 0x0 DUP6 PUSH20 0xFFFFFFFFFFFFFFFFFFFFFFFFFFFFFFFFFFFFFFFF AND PUSH20 0xFFFFFFFFFFFFFFFFFFFFFFFFFFFFFFFFFFFFFFFF AND DUP2 MSTORE PUSH1 0x20 ADD SWAP1 DUP2 MSTORE PUSH1 0x20 ADD PUSH1 0x0 KECCAK256 PUSH1 0x0 DUP4 PUSH1 0x2 DUP2 GT ISZERO PUSH2 0x1B23 JUMPI PUSH2 0x1B22 PUSH2 0x387E JUMP JUMPDEST JUMPDEST PUSH1 0x2 DUP2 GT ISZERO PUSH2 0x1B35 JUMPI PUSH2 0x1B34 PUSH2 0x387E JUMP JUMPDEST JUMPDEST DUP2 MSTORE PUSH1 0x20 ADD SWAP1 DUP2 MSTORE PUSH1 0x20 ADD PUSH1 0x0 KECCAK256 SLOAD SWAP1 POP PUSH1 0x0 DUP2 GT ISZERO PUSH2 0x1ECE JUMPI PUSH1 0x0 PUSH1 0x16 PUSH1 0x0 DUP7 PUSH20 0xFFFFFFFFFFFFFFFFFFFFFFFFFFFFFFFFFFFFFFFF AND PUSH20 0xFFFFFFFFFFFFFFFFFFFFFFFFFFFFFFFFFFFFFFFF AND DUP2 MSTORE PUSH1 0x20 ADD SWAP1 DUP2 MSTORE PUSH1 0x20 ADD PUSH1 0x0 KECCAK256 PUSH1 0x0 DUP5 PUSH1 0x2 DUP2 GT ISZERO PUSH2 0x1BA5 JUMPI PUSH2 0x1BA4 PUSH2 0x387E JUMP JUMPDEST JUMPDEST PUSH1 0x2 DUP2 GT ISZERO PUSH2 0x1BB7 JUMPI PUSH2 0x1BB6 PUSH2 0x387E JUMP JUMPDEST JUMPDEST DUP2 MSTORE PUSH1 0x20 ADD SWAP1 DUP2 MSTORE PUSH1 0x20 ADD PUSH1 0x0 KECCAK256 DUP2 SWAP1 SSTORE POP PUSH1 0x0 PUSH1 0x2 DUP2 GT ISZERO PUSH2 0x1BDD JUMPI PUSH2 0x1BDC PUSH2 0x387E JUMP JUMPDEST JUMPDEST DUP3 PUSH1 0x2 DUP2 GT ISZERO PUSH2 0x1BF0 JUMPI PUSH2 0x1BEF PUSH2 0x387E JUMP JUMPDEST JUMPDEST SUB PUSH2 0x1CA7 JUMPI PUSH1 0x0 DUP5 PUSH20 0xFFFFFFFFFFFFFFFFFFFFFFFFFFFFFFFFFFFFFFFF AND DUP3 PUSH1 0x40 MLOAD PUSH2 0x1C1B SWAP1 PUSH2 0x449E JUMP JUMPDEST PUSH1 0x0 PUSH1 0x40 MLOAD DUP1 DUP4 SUB DUP2 DUP6 DUP8 GAS CALL SWAP3 POP POP POP RETURNDATASIZE DUP1 PUSH1 0x0 DUP2 EQ PUSH2 0x1C58 JUMPI PUSH1 0x40 MLOAD SWAP2 POP PUSH1 0x1F NOT PUSH1 0x3F RETURNDATASIZE ADD AND DUP3 ADD PUSH1 0x40 MSTORE RETURNDATASIZE DUP3 MSTORE RETURNDATASIZE PUSH1 0x0 PUSH1 0x20 DUP5 ADD RETURNDATACOPY PUSH2 0x1C5D JUMP JUMPDEST PUSH1 0x60 SWAP2 POP JUMPDEST POP POP SWAP1 POP DUP1 PUSH2 0x1CA1 JUMPI PUSH1 0x40 MLOAD PUSH32 0x8C379A000000000000000000000000000000000000000000000000000000000 DUP2 MSTORE PUSH1 0x4 ADD PUSH2 0x1C98 SWAP1 PUSH2 0x44FF JUMP JUMPDEST PUSH1 0x40 MLOAD DUP1 SWAP2 SUB SWAP1 REVERT JUMPDEST POP PUSH2 0x1E7D JUMP JUMPDEST PUSH1 0x1 PUSH1 0x2 DUP2 GT ISZERO PUSH2 0x1CBB JUMPI PUSH2 0x1CBA PUSH2 0x387E JUMP JUMPDEST JUMPDEST DUP3 PUSH1 0x2 DUP2 GT ISZERO PUSH2 0x1CCE JUMPI PUSH2 0x1CCD PUSH2 0x387E JUMP JUMPDEST JUMPDEST EQ DUP1 PUSH2 0x1CFD JUMPI POP PUSH1 0x2 DUP1 DUP2 GT ISZERO PUSH2 0x1CE8 JUMPI PUSH2 0x1CE7 PUSH2 0x387E JUMP JUMPDEST JUMPDEST DUP3 PUSH1 0x2 DUP2 GT ISZERO PUSH2 0x1CFB JUMPI PUSH2 0x1CFA PUSH2 0x387E JUMP JUMPDEST JUMPDEST EQ JUMPDEST ISZERO PUSH2 0x1E41 JUMPI PUSH1 0x0 PUSH1 0x1 PUSH1 0x2 DUP2 GT ISZERO PUSH2 0x1D18 JUMPI PUSH2 0x1D17 PUSH2 0x387E JUMP JUMPDEST JUMPDEST DUP4 PUSH1 0x2 DUP2 GT ISZERO PUSH2 0x1D2B JUMPI PUSH2 0x1D2A PUSH2 0x387E JUMP JUMPDEST JUMPDEST EQ PUSH2 0x1D58 JUMPI PUSH1 0xE PUSH1 0x0 SWAP1 SLOAD SWAP1 PUSH2 0x100 EXP SWAP1 DIV PUSH20 0xFFFFFFFFFFFFFFFFFFFFFFFFFFFFFFFFFFFFFFFF AND PUSH2 0x1D7C JUMP JUMPDEST PUSH1 0xD PUSH1 0x0 SWAP1 SLOAD SWAP1 PUSH2 0x100 EXP SWAP1 DIV PUSH20 0xFFFFFFFFFFFFFFFFFFFFFFFFFFFFFFFFFFFFFFFF AND JUMPDEST SWAP1 POP DUP1 PUSH20 0xFFFFFFFFFFFFFFFFFFFFFFFFFFFFFFFFFFFFFFFF AND PUSH4 0xA9059CBB DUP7 DUP5 PUSH1 0x40 MLOAD DUP4 PUSH4 0xFFFFFFFF AND PUSH1 0xE0 SHL DUP2 MSTORE PUSH1 0x4 ADD PUSH2 0x1DB9 SWAP3 SWAP2 SWAP1 PUSH2 0x451F JUMP JUMPDEST PUSH1 0x20 PUSH1 0x40 MLOAD DUP1 DUP4 SUB DUP2 PUSH1 0x0 DUP8 GAS CALL ISZERO DUP1 ISZERO PUSH2 0x1DD8 JUMPI RETURNDATASIZE PUSH1 0x0 DUP1 RETURNDATACOPY RETURNDATASIZE PUSH1 0x0 REVERT JUMPDEST POP POP POP POP PUSH1 0x40 MLOAD RETURNDATASIZE PUSH1 0x1F NOT PUSH1 0x1F DUP3 ADD AND DUP3 ADD DUP1 PUSH1 0x40 MSTORE POP DUP2 ADD SWAP1 PUSH2 0x1DFC SWAP2 SWAP1 PUSH2 0x455D JUMP JUMPDEST PUSH2 0x1E3B JUMPI PUSH1 0x40 MLOAD PUSH32 0x8C379A000000000000000000000000000000000000000000000000000000000 DUP2 MSTORE PUSH1 0x4 ADD PUSH2 0x1E32 SWAP1 PUSH2 0x45D6 JUMP JUMPDEST PUSH1 0x40 MLOAD DUP1 SWAP2 SUB SWAP1 REVERT JUMPDEST POP PUSH2 0x1E7C JUMP JUMPDEST PUSH1 0x40 MLOAD PUSH32 0x8C379A000000000000000000000000000000000000000000000000000000000 DUP2 MSTORE PUSH1 0x4 ADD PUSH2 0x1E73 SWAP1 PUSH2 0x4668 JUMP JUMPDEST PUSH1 0x40 MLOAD DUP1 SWAP2 SUB SWAP1 REVERT JUMPDEST JUMPDEST DUP4 PUSH20 0xFFFFFFFFFFFFFFFFFFFFFFFFFFFFFFFFFFFFFFFF AND PUSH32 0x3829AB241648D7348F97E4F77D36451330F2276EA8EEB3428E462012F9699E7 DUP3 DUP5 PUSH1 0x40 MLOAD PUSH2 0x1EC5 SWAP3 SWAP2 SWAP1 PUSH2 0x4688 JUMP JUMPDEST PUSH1 0x40 MLOAD DUP1 SWAP2 SUB SWAP1 LOG2 JUMPDEST POP POP DUP1 DUP1 PUSH1 0x1 ADD SWAP2 POP POP PUSH2 0x1AA7 JUMP JUMPDEST POP POP DUP1 DUP1 PUSH1 0x1 ADD SWAP2 POP POP PUSH2 0x1A59 JUMP JUMPDEST POP PUSH1 0x1 PUSH1 0xB PUSH1 0x0 PUSH2 0x100 EXP DUP2 SLOAD DUP2 PUSH1 0xFF MUL NOT AND SWAP1 DUP4 ISZERO ISZERO MUL OR SWAP1 SSTORE POP POP PUSH2 0x1F11 PUSH2 0x3334 JUMP JUMPDEST JUMP JUMPDEST PUSH1 0x0 DUP1 PUSH1 0x0 SWAP1 SLOAD SWAP1 PUSH2 0x100 EXP SWAP1 DIV PUSH20 0xFFFFFFFFFFFFFFFFFFFFFFFFFFFFFFFFFFFFFFFF AND SWAP1 POP SWAP1 JUMP JUMPDEST PUSH2 0x1F44 PUSH2 0x2E9C JUMP JUMPDEST PUSH2 0x1F4C PUSH2 0x2E15 JUMP JUMPDEST PUSH1 0xB PUSH1 0x1 SWAP1 SLOAD SWAP1 PUSH2 0x100 EXP SWAP1 DIV PUSH1 0xFF AND ISZERO PUSH2 0x1F9C JUMPI PUSH1 0x40 MLOAD PUSH32 0x8C379A000000000000000000000000000000000000000000000000000000000 DUP2 MSTORE PUSH1 0x4 ADD PUSH2 0x1F93 SWAP1 PUSH2 0x46FD JUMP JUMPDEST PUSH1 0x40 MLOAD DUP1 SWAP2 SUB SWAP1 REVERT JUMPDEST PUSH1 0xB PUSH1 0x0 SWAP1 SLOAD SWAP1 PUSH2 0x100 EXP SWAP1 DIV PUSH1 0xFF AND PUSH2 0x1FEB JUMPI PUSH1 0x40 MLOAD PUSH32 0x8C379A000000000000000000000000000000000000000000000000000000000 DUP2 MSTORE PUSH1 0x4 ADD PUSH2 0x1FE2 SWAP1 PUSH2 0x4769 JUMP JUMPDEST PUSH1 0x40 MLOAD DUP1 SWAP2 SUB SWAP1 REVERT JUMPDEST PUSH1 0x0 PUSH1 0xC DUP1 SLOAD SWAP1 POP SWAP1 POP PUSH1 0x0 JUMPDEST DUP2 DUP2 LT ISZERO PUSH2 0x21DC JUMPI PUSH1 0x0 PUSH1 0xC DUP3 DUP2 SLOAD DUP2 LT PUSH2 0x2016 JUMPI PUSH2 0x2015 PUSH2 0x443E JUMP JUMPDEST JUMPDEST SWAP1 PUSH1 0x0 MSTORE PUSH1 0x20 PUSH1 0x0 KECCAK256 ADD PUSH1 0x0 SWAP1 SLOAD SWAP1 PUSH2 0x100 EXP SWAP1 DIV PUSH20 0xFFFFFFFFFFFFFFFFFFFFFFFFFFFFFFFFFFFFFFFF AND SWAP1 POP PUSH1 0x0 PUSH1 0x13 PUSH1 0x0 DUP4 PUSH20 0xFFFFFFFFFFFFFFFFFFFFFFFFFFFFFFFFFFFFFFFF AND PUSH20 0xFFFFFFFFFFFFFFFFFFFFFFFFFFFFFFFFFFFFFFFF AND DUP2 MSTORE PUSH1 0x20 ADD SWAP1 DUP2 MSTORE PUSH1 0x20 ADD PUSH1 0x0 KECCAK256 SLOAD SWAP1 POP PUSH1 0x0 DUP2 GT ISZERO PUSH2 0x21CD JUMPI PUSH1 0x0 PUSH1 0x5 PUSH1 0x0 SWAP1 SLOAD SWAP1 PUSH2 0x100 EXP SWAP1 DIV PUSH20 0xFFFFFFFFFFFFFFFFFFFFFFFFFFFFFFFFFFFFFFFF AND PUSH20 0xFFFFFFFFFFFFFFFFFFFFFFFFFFFFFFFFFFFFFFFF AND PUSH4 0x23B872DD PUSH2 0x20D8 PUSH2 0x1F13 JUMP JUMPDEST DUP6 DUP6 PUSH1 0x40 MLOAD DUP5 PUSH4 0xFFFFFFFF AND PUSH1 0xE0 SHL DUP2 MSTORE PUSH1 0x4 ADD PUSH2 0x20F8 SWAP4 SWAP3 SWAP2 SWAP1 PUSH2 0x4789 JUMP JUMPDEST PUSH1 0x20 PUSH1 0x40 MLOAD DUP1 DUP4 SUB DUP2 PUSH1 0x0 DUP8 GAS CALL ISZERO DUP1 ISZERO PUSH2 0x2117 JUMPI RETURNDATASIZE PUSH1 0x0 DUP1 RETURNDATACOPY RETURNDATASIZE PUSH1 0x0 REVERT JUMPDEST POP POP POP POP PUSH1 0x40 MLOAD RETURNDATASIZE PUSH1 0x1F NOT PUSH1 0x1F DUP3 ADD AND DUP3 ADD DUP1 PUSH1 0x40 MSTORE POP DUP2 ADD SWAP1 PUSH2 0x213B SWAP2 SWAP1 PUSH2 0x455D JUMP JUMPDEST SWAP1 POP DUP1 PUSH2 0x217D JUMPI PUSH1 0x40 MLOAD PUSH32 0x8C379A000000000000000000000000000000000000000000000000000000000 DUP2 MSTORE PUSH1 0x4 ADD PUSH2 0x2174 SWAP1 PUSH2 0x480C JUMP JUMPDEST PUSH1 0x40 MLOAD DUP1 SWAP2 SUB SWAP1 REVERT JUMPDEST DUP3 PUSH20 0xFFFFFFFFFFFFFFFFFFFFFFFFFFFFFFFFFFFFFFFF AND PUSH32 0x9BDCD0CC5503FB9A8DD7311D9617E33108C4B7C8948CC544B16C1FD63C6F475B DUP4 PUSH1 0x40 MLOAD PUSH2 0x21C3 SWAP2 SWAP1 PUSH2 0x3535 JUMP JUMPDEST PUSH1 0x40 MLOAD DUP1 SWAP2 SUB SWAP1 LOG2 POP JUMPDEST POP POP DUP1 DUP1 PUSH1 0x1 ADD SWAP2 POP POP PUSH2 0x1FF8 JUMP JUMPDEST POP PUSH1 0x1 PUSH1 0xB PUSH1 0x1 PUSH2 0x100 EXP DUP2 SLOAD DUP2 PUSH1 0xFF MUL NOT AND SWAP1 DUP4 ISZERO ISZERO MUL OR SWAP1 SSTORE POP POP PUSH2 0x2201 PUSH2 0x3334 JUMP JUMPDEST JUMP JUMPDEST PUSH1 0x0 PUSH1 0x7 SLOAD PUSH1 0x9 SLOAD LT ISZERO SWAP1 POP SWAP1 JUMP JUMPDEST PUSH1 0xB PUSH1 0x0 SWAP1 SLOAD SWAP1 PUSH2 0x100 EXP SWAP1 DIV PUSH1 0xFF AND ISZERO PUSH2 0x2262 JUMPI PUSH1 0x40 MLOAD PUSH32 0x8C379A000000000000000000000000000000000000000000000000000000000 DUP2 MSTORE PUSH1 0x4 ADD PUSH2 0x2259 SWAP1 PUSH2 0x3FEF JUMP JUMPDEST PUSH1 0x40 MLOAD DUP1 SWAP2 SUB SWAP1 REVERT JUMPDEST PUSH2 0x226A PUSH2 0x1F13 JUMP JUMPDEST PUSH20 0xFFFFFFFFFFFFFFFFFFFFFFFFFFFFFFFFFFFFFFFF AND CALLER PUSH20 0xFFFFFFFFFFFFFFFFFFFFFFFFFFFFFFFFFFFFFFFF AND SUB PUSH2 0x22D7 JUMPI PUSH1 0x40 MLOAD PUSH32 0x8C379A000000000000000000000000000000000000000000000000000000000 DUP2 MSTORE PUSH1 0x4 ADD PUSH2 0x22CE SWAP1 PUSH2 0x4878 JUMP JUMPDEST PUSH1 0x40 MLOAD DUP1 SWAP2 SUB SWAP1 REVERT JUMPDEST PUSH1 0x0 PUSH2 0x22E1 PUSH2 0x11A8 JUMP JUMPDEST SWAP1 POP PUSH1 0x0 DUP2 SUB PUSH2 0x2326 JUMPI PUSH1 0x40 MLOAD PUSH32 0x8C379A000000000000000000000000000000000000000000000000000000000 DUP2 MSTORE PUSH1 0x4 ADD PUSH2 0x231D SWAP1 PUSH2 0x3F3B JUMP JUMPDEST PUSH1 0x40 MLOAD DUP1 SWAP2 SUB SWAP1 REVERT JUMPDEST PUSH1 0x0 PUSH1 0xF PUSH1 0x0 DUP4 DUP2 MSTORE PUSH1 0x20 ADD SWAP1 DUP2 MSTORE PUSH1 0x20 ADD PUSH1 0x0 KECCAK256 SWAP1 POP DUP1 PUSH1 0x4 ADD PUSH1 0x0 SWAP1 SLOAD SWAP1 PUSH2 0x100 EXP SWAP1 DIV PUSH1 0xFF AND ISZERO PUSH2 0x238F JUMPI PUSH1 0x40 MLOAD PUSH32 0x8C379A000000000000000000000000000000000000000000000000000000000 DUP2 MSTORE PUSH1 0x4 ADD PUSH2 0x2386 SWAP1 PUSH2 0x48E4 JUMP JUMPDEST PUSH1 0x40 MLOAD DUP1 SWAP2 SUB SWAP1 REVERT JUMPDEST PUSH1 0x0 DUP1 PUSH1 0x2 DUP2 GT ISZERO PUSH2 0x23A4 JUMPI PUSH2 0x23A3 PUSH2 0x387E JUMP JUMPDEST JUMPDEST DUP6 PUSH1 0x2 DUP2 GT ISZERO PUSH2 0x23B7 JUMPI PUSH2 0x23B6 PUSH2 0x387E JUMP JUMPDEST JUMPDEST SUB PUSH2 0x249B JUMPI PUSH1 0x0 CALLVALUE GT PUSH2 0x23FF JUMPI PUSH1 0x40 MLOAD PUSH32 0x8C379A000000000000000000000000000000000000000000000000000000000 DUP2 MSTORE PUSH1 0x4 ADD PUSH2 0x23F6 SWAP1 PUSH2 0x4950 JUMP JUMPDEST PUSH1 0x40 MLOAD DUP1 SWAP2 SUB SWAP1 REVERT JUMPDEST PUSH2 0x2409 DUP6 CALLVALUE PUSH2 0x9E6 JUMP JUMPDEST SWAP1 POP CALLVALUE PUSH1 0x16 PUSH1 0x0 CALLER PUSH20 0xFFFFFFFFFFFFFFFFFFFFFFFFFFFFFFFFFFFFFFFF AND PUSH20 0xFFFFFFFFFFFFFFFFFFFFFFFFFFFFFFFFFFFFFFFF AND DUP2 MSTORE PUSH1 0x20 ADD SWAP1 DUP2 MSTORE PUSH1 0x20 ADD PUSH1 0x0 KECCAK256 PUSH1 0x0 DUP8 PUSH1 0x2 DUP2 GT ISZERO PUSH2 0x2460 JUMPI PUSH2 0x245F PUSH2 0x387E JUMP JUMPDEST JUMPDEST PUSH1 0x2 DUP2 GT ISZERO PUSH2 0x2472 JUMPI PUSH2 0x2471 PUSH2 0x387E JUMP JUMPDEST JUMPDEST DUP2 MSTORE PUSH1 0x20 ADD SWAP1 DUP2 MSTORE PUSH1 0x20 ADD PUSH1 0x0 KECCAK256 PUSH1 0x0 DUP3 DUP3 SLOAD PUSH2 0x248F SWAP2 SWAP1 PUSH2 0x4970 JUMP JUMPDEST SWAP3 POP POP DUP2 SWAP1 SSTORE POP PUSH2 0x274D JUMP JUMPDEST PUSH1 0x1 PUSH1 0x2 DUP2 GT ISZERO PUSH2 0x24AF JUMPI PUSH2 0x24AE PUSH2 0x387E JUMP JUMPDEST JUMPDEST DUP6 PUSH1 0x2 DUP2 GT ISZERO PUSH2 0x24C2 JUMPI PUSH2 0x24C1 PUSH2 0x387E JUMP JUMPDEST JUMPDEST EQ DUP1 PUSH2 0x24F1 JUMPI POP PUSH1 0x2 DUP1 DUP2 GT ISZERO PUSH2 0x24DC JUMPI PUSH2 0x24DB PUSH2 0x387E JUMP JUMPDEST JUMPDEST DUP6 PUSH1 0x2 DUP2 GT ISZERO PUSH2 0x24EF JUMPI PUSH2 0x24EE PUSH2 0x387E JUMP JUMPDEST JUMPDEST EQ JUMPDEST ISZERO PUSH2 0x2711 JUMPI PUSH1 0x0 DUP5 GT PUSH2 0x2539 JUMPI PUSH1 0x40 MLOAD PUSH32 0x8C379A000000000000000000000000000000000000000000000000000000000 DUP2 MSTORE PUSH1 0x4 ADD PUSH2 0x2530 SWAP1 PUSH2 0x49F0 JUMP JUMPDEST PUSH1 0x40 MLOAD DUP1 SWAP2 SUB SWAP1 REVERT JUMPDEST PUSH1 0x0 PUSH1 0x1 PUSH1 0x2 DUP2 GT ISZERO PUSH2 0x254F JUMPI PUSH2 0x254E PUSH2 0x387E JUMP JUMPDEST JUMPDEST DUP7 PUSH1 0x2 DUP2 GT ISZERO PUSH2 0x2562 JUMPI PUSH2 0x2561 PUSH2 0x387E JUMP JUMPDEST JUMPDEST EQ PUSH2 0x258F JUMPI PUSH1 0xE PUSH1 0x0 SWAP1 SLOAD SWAP1 PUSH2 0x100 EXP SWAP1 DIV PUSH20 0xFFFFFFFFFFFFFFFFFFFFFFFFFFFFFFFFFFFFFFFF AND PUSH2 0x25B3 JUMP JUMPDEST PUSH1 0xD PUSH1 0x0 SWAP1 SLOAD SWAP1 PUSH2 0x100 EXP SWAP1 DIV PUSH20 0xFFFFFFFFFFFFFFFFFFFFFFFFFFFFFFFFFFFFFFFF AND JUMPDEST SWAP1 POP DUP1 PUSH20 0xFFFFFFFFFFFFFFFFFFFFFFFFFFFFFFFFFFFFFFFF AND PUSH4 0x23B872DD CALLER ADDRESS DUP9 PUSH1 0x40 MLOAD DUP5 PUSH4 0xFFFFFFFF AND PUSH1 0xE0 SHL DUP2 MSTORE PUSH1 0x4 ADD PUSH2 0x25F2 SWAP4 SWAP3 SWAP2 SWAP1 PUSH2 0x4789 JUMP JUMPDEST PUSH1 0x20 PUSH1 0x40 MLOAD DUP1 DUP4 SUB DUP2 PUSH1 0x0 DUP8 GAS CALL ISZERO DUP1 ISZERO PUSH2 0x2611 JUMPI RETURNDATASIZE PUSH1 0x0 DUP1 RETURNDATACOPY RETURNDATASIZE PUSH1 0x0 REVERT JUMPDEST POP POP POP POP PUSH1 0x40 MLOAD RETURNDATASIZE PUSH1 0x1F NOT PUSH1 0x1F DUP3 ADD AND DUP3 ADD DUP1 PUSH1 0x40 MSTORE POP DUP2 ADD SWAP1 PUSH2 0x2635 SWAP2 SWAP1 PUSH2 0x455D JUMP JUMPDEST PUSH2 0x2674 JUMPI PUSH1 0x40 MLOAD PUSH32 0x8C379A000000000000000000000000000000000000000000000000000000000 DUP2 MSTORE PUSH1 0x4 ADD PUSH2 0x266B SWAP1 PUSH2 0x4A5C JUMP JUMPDEST PUSH1 0x40 MLOAD DUP1 SWAP2 SUB SWAP1 REVERT JUMPDEST PUSH2 0x267E DUP7 DUP7 PUSH2 0x9E6 JUMP JUMPDEST SWAP2 POP DUP5 PUSH1 0x16 PUSH1 0x0 CALLER PUSH20 0xFFFFFFFFFFFFFFFFFFFFFFFFFFFFFFFFFFFFFFFF AND PUSH20 0xFFFFFFFFFFFFFFFFFFFFFFFFFFFFFFFFFFFFFFFF AND DUP2 MSTORE PUSH1 0x20 ADD SWAP1 DUP2 MSTORE PUSH1 0x20 ADD PUSH1 0x0 KECCAK256 PUSH1 0x0 DUP9 PUSH1 0x2 DUP2 GT ISZERO PUSH2 0x26D5 JUMPI PUSH2 0x26D4 PUSH2 0x387E JUMP JUMPDEST JUMPDEST PUSH1 0x2 DUP2 GT ISZERO PUSH2 0x26E7 JUMPI PUSH2 0x26E6 PUSH2 0x387E JUMP JUMPDEST JUMPDEST DUP2 MSTORE PUSH1 0x20 ADD SWAP1 DUP2 MSTORE PUSH1 0x20 ADD PUSH1 0x0 KECCAK256 PUSH1 0x0 DUP3 DUP3 SLOAD PUSH2 0x2704 SWAP2 SWAP1 PUSH2 0x4970 JUMP JUMPDEST SWAP3 POP POP DUP2 SWAP1 SSTORE POP POP PUSH2 0x274C JUMP JUMPDEST PUSH1 0x40 MLOAD PUSH32 0x8C379A000000000000000000000000000000000000000000000000000000000 DUP2 MSTORE PUSH1 0x4 ADD PUSH2 0x2743 SWAP1 PUSH2 0x3D3F JUMP JUMPDEST PUSH1 0x40 MLOAD DUP1 SWAP2 SUB SWAP1 REVERT JUMPDEST JUMPDEST PUSH1 0x0 DUP2 GT PUSH2 0x2790 JUMPI PUSH1 0x40 MLOAD PUSH32 0x8C379A000000000000000000000000000000000000000000000000000000000 DUP2 MSTORE PUSH1 0x4 ADD PUSH2 0x2787 SWAP1 PUSH2 0x4AC8 JUMP JUMPDEST PUSH1 0x40 MLOAD DUP1 SWAP2 SUB SWAP1 REVERT JUMPDEST PUSH1 0x0 PUSH8 0xDE0B6B3A7640000 DUP4 PUSH1 0x2 ADD SLOAD DUP4 PUSH2 0x27AB SWAP2 SWAP1 PUSH2 0x3A9F JUMP JUMPDEST PUSH2 0x27B5 SWAP2 SWAP1 PUSH2 0x3B10 JUMP JUMPDEST SWAP1 POP PUSH1 0x7 SLOAD DUP2 PUSH1 0x9 SLOAD PUSH2 0x27C8 SWAP2 SWAP1 PUSH2 0x4970 JUMP JUMPDEST GT ISZERO PUSH2 0x2809 JUMPI PUSH1 0x40 MLOAD PUSH32 0x8C379A000000000000000000000000000000000000000000000000000000000 DUP2 MSTORE PUSH1 0x4 ADD PUSH2 0x2800 SWAP1 PUSH2 0x4B34 JUMP JUMPDEST PUSH1 0x40 MLOAD DUP1 SWAP2 SUB SWAP1 REVERT JUMPDEST DUP1 PUSH1 0x12 PUSH1 0x0 CALLER PUSH20 0xFFFFFFFFFFFFFFFFFFFFFFFFFFFFFFFFFFFFFFFF AND PUSH20 0xFFFFFFFFFFFFFFFFFFFFFFFFFFFFFFFFFFFFFFFF AND DUP2 MSTORE PUSH1 0x20 ADD SWAP1 DUP2 MSTORE PUSH1 0x20 ADD PUSH1 0x0 KECCAK256 PUSH1 0x0 DUP3 DUP3 SLOAD PUSH2 0x2858 SWAP2 SWAP1 PUSH2 0x4970 JUMP JUMPDEST SWAP3 POP POP DUP2 SWAP1 SSTORE POP DUP1 PUSH1 0x9 PUSH1 0x0 DUP3 DUP3 SLOAD PUSH2 0x2871 SWAP2 SWAP1 PUSH2 0x4970 JUMP JUMPDEST SWAP3 POP POP DUP2 SWAP1 SSTORE POP DUP2 DUP4 PUSH1 0x3 ADD PUSH1 0x0 DUP3 DUP3 SLOAD PUSH2 0x288C SWAP2 SWAP1 PUSH2 0x4970 JUMP JUMPDEST SWAP3 POP POP DUP2 SWAP1 SSTORE POP DUP2 PUSH1 0xA PUSH1 0x0 DUP3 DUP3 SLOAD PUSH2 0x28A5 SWAP2 SWAP1 PUSH2 0x4970 JUMP JUMPDEST SWAP3 POP POP DUP2 SWAP1 SSTORE POP PUSH1 0x0 PUSH1 0x13 PUSH1 0x0 CALLER PUSH20 0xFFFFFFFFFFFFFFFFFFFFFFFFFFFFFFFFFFFFFFFF AND PUSH20 0xFFFFFFFFFFFFFFFFFFFFFFFFFFFFFFFFFFFFFFFF AND DUP2 MSTORE PUSH1 0x20 ADD SWAP1 DUP2 MSTORE PUSH1 0x20 ADD PUSH1 0x0 KECCAK256 SLOAD SUB PUSH2 0x2957 JUMPI PUSH1 0xC CALLER SWAP1 DUP1 PUSH1 0x1 DUP2 SLOAD ADD DUP1 DUP3 SSTORE DUP1 SWAP2 POP POP PUSH1 0x1 SWAP1 SUB SWAP1 PUSH1 0x0 MSTORE PUSH1 0x20 PUSH1 0x0 KECCAK256 ADD PUSH1 0x0 SWAP1 SWAP2 SWAP1 SWAP2 SWAP1 SWAP2 PUSH2 0x100 EXP DUP2 SLOAD DUP2 PUSH20 0xFFFFFFFFFFFFFFFFFFFFFFFFFFFFFFFFFFFFFFFF MUL NOT AND SWAP1 DUP4 PUSH20 0xFFFFFFFFFFFFFFFFFFFFFFFFFFFFFFFFFFFFFFFF AND MUL OR SWAP1 SSTORE POP JUMPDEST DUP2 PUSH1 0x13 PUSH1 0x0 CALLER PUSH20 0xFFFFFFFFFFFFFFFFFFFFFFFFFFFFFFFFFFFFFFFF AND PUSH20 0xFFFFFFFFFFFFFFFFFFFFFFFFFFFFFFFFFFFFFFFF AND DUP2 MSTORE PUSH1 0x20 ADD SWAP1 DUP2 MSTORE PUSH1 0x20 ADD PUSH1 0x0 KECCAK256 PUSH1 0x0 DUP3 DUP3 SLOAD PUSH2 0x29A6 SWAP2 SWAP1 PUSH2 0x4970 JUMP JUMPDEST SWAP3 POP POP DUP2 SWAP1 SSTORE POP DUP6 PUSH1 0x15 PUSH1 0x0 CALLER PUSH20 0xFFFFFFFFFFFFFFFFFFFFFFFFFFFFFFFFFFFFFFFF AND PUSH20 0xFFFFFFFFFFFFFFFFFFFFFFFFFFFFFFFFFFFFFFFF AND DUP2 MSTORE PUSH1 0x20 ADD SWAP1 DUP2 MSTORE PUSH1 0x20 ADD PUSH1 0x0 KECCAK256 PUSH1 0x0 PUSH2 0x100 EXP DUP2 SLOAD DUP2 PUSH1 0xFF MUL NOT AND SWAP1 DUP4 PUSH1 0x2 DUP2 GT ISZERO PUSH2 0x2A0F JUMPI PUSH2 0x2A0E PUSH2 0x387E JUMP JUMPDEST JUMPDEST MUL OR SWAP1 SSTORE POP DUP4 CALLER PUSH20 0xFFFFFFFFFFFFFFFFFFFFFFFFFFFFFFFFFFFFFFFF AND PUSH32 0xDBCEF474A632721725D49E3F35D9DEFE0257100B01D1E4B4B135B14D6FE296E8 DUP5 DUP7 PUSH1 0x2 ADD SLOAD DUP10 DUP12 PUSH1 0x40 MLOAD PUSH2 0x2A65 SWAP5 SWAP4 SWAP3 SWAP2 SWAP1 PUSH2 0x4B54 JUMP JUMPDEST PUSH1 0x40 MLOAD DUP1 SWAP2 SUB SWAP1 LOG3 POP POP POP POP POP POP JUMP JUMPDEST PUSH1 0x0 PUSH1 0xC DUP1 SLOAD SWAP1 POP SWAP1 POP SWAP1 JUMP JUMPDEST PUSH1 0x2 PUSH1 0x0 SWAP1 SLOAD SWAP1 PUSH2 0x100 EXP SWAP1 DIV PUSH20 0xFFFFFFFFFFFFFFFFFFFFFFFFFFFFFFFFFFFFFFFF AND DUP2 JUMP JUMPDEST PUSH1 0x8 SLOAD DUP2 JUMP JUMPDEST PUSH1 0xB PUSH1 0x2 SWAP1 SLOAD SWAP1 PUSH2 0x100 EXP SWAP1 DIV PUSH1 0xFF AND DUP2 JUMP JUMPDEST PUSH1 0xF PUSH1 0x20 MSTORE DUP1 PUSH1 0x0 MSTORE PUSH1 0x40 PUSH1 0x0 KECCAK256 PUSH1 0x0 SWAP2 POP SWAP1 POP DUP1 PUSH1 0x0 ADD SLOAD SWAP1 DUP1 PUSH1 0x1 ADD SLOAD SWAP1 DUP1 PUSH1 0x2 ADD SLOAD SWAP1 DUP1 PUSH1 0x3 ADD SLOAD SWAP1 DUP1 PUSH1 0x4 ADD PUSH1 0x0 SWAP1 SLOAD SWAP1 PUSH2 0x100 EXP SWAP1 DIV PUSH1 0xFF AND SWAP1 POP DUP6 JUMP JUMPDEST PUSH1 0x7 SLOAD DUP2 JUMP JUMPDEST PUSH1 0x0 DUP1 PUSH1 0x0 PUSH1 0xF PUSH1 0x0 DUP6 DUP2 MSTORE PUSH1 0x20 ADD SWAP1 DUP2 MSTORE PUSH1 0x20 ADD PUSH1 0x0 KECCAK256 PUSH1 0x40 MLOAD DUP1 PUSH1 0xA0 ADD PUSH1 0x40 MSTORE SWAP1 DUP2 PUSH1 0x0 DUP3 ADD SLOAD DUP2 MSTORE PUSH1 0x20 ADD PUSH1 0x1 DUP3 ADD SLOAD DUP2 MSTORE PUSH1 0x20 ADD PUSH1 0x2 DUP3 ADD SLOAD DUP2 MSTORE PUSH1 0x20 ADD PUSH1 0x3 DUP3 ADD SLOAD DUP2 MSTORE PUSH1 0x20 ADD PUSH1 0x4 DUP3 ADD PUSH1 0x0 SWAP1 SLOAD SWAP1 PUSH2 0x100 EXP SWAP1 DIV PUSH1 0xFF AND ISZERO ISZERO ISZERO ISZERO DUP2 MSTORE POP POP SWAP1 POP DUP1 PUSH1 0x0 ADD MLOAD DUP2 PUSH1 0x20 ADD MLOAD SWAP3 POP SWAP3 POP POP SWAP2 POP SWAP2 JUMP JUMPDEST PUSH1 0x12 PUSH1 0x20 MSTORE DUP1 PUSH1 0x0 MSTORE PUSH1 0x40 PUSH1 0x0 KECCAK256 PUSH1 0x0 SWAP2 POP SWAP1 POP SLOAD DUP2 JUMP JUMPDEST PUSH1 0xB PUSH1 0x0 SWAP1 SLOAD SWAP1 PUSH2 0x100 EXP SWAP1 DIV PUSH1 0xFF AND DUP2 JUMP JUMPDEST PUSH1 0x4 PUSH1 0x0 SWAP1 SLOAD SWAP1 PUSH2 0x100 EXP SWAP1 DIV PUSH20 0xFFFFFFFFFFFFFFFFFFFFFFFFFFFFFFFFFFFFFFFF AND DUP2 JUMP JUMPDEST PUSH1 0x15 PUSH1 0x20 MSTORE DUP1 PUSH1 0x0 MSTORE PUSH1 0x40 PUSH1 0x0 KECCAK256 PUSH1 0x0 SWAP2 POP SLOAD SWAP1 PUSH2 0x100 EXP SWAP1 DIV PUSH1 0xFF AND DUP2 JUMP JUMPDEST PUSH1 0x13 PUSH1 0x20 MSTORE DUP1 PUSH1 0x0 MSTORE PUSH1 0x40 PUSH1 0x0 KECCAK256 PUSH1 0x0 SWAP2 POP SWAP1 POP SLOAD DUP2 JUMP JUMPDEST PUSH1 0x16 PUSH1 0x20 MSTORE DUP2 PUSH1 0x0 MSTORE PUSH1 0x40 PUSH1 0x0 KECCAK256 PUSH1 0x20 MSTORE DUP1 PUSH1 0x0 MSTORE PUSH1 0x40 PUSH1 0x0 KECCAK256 PUSH1 0x0 SWAP2 POP SWAP2 POP POP SLOAD DUP2 JUMP JUMPDEST PUSH2 0x2C3C PUSH2 0x2E15 JUMP JUMPDEST PUSH1 0x0 PUSH20 0xFFFFFFFFFFFFFFFFFFFFFFFFFFFFFFFFFFFFFFFF AND DUP2 PUSH20 0xFFFFFFFFFFFFFFFFFFFFFFFFFFFFFFFFFFFFFFFF AND SUB PUSH2 0x2CAE JUMPI PUSH1 0x0 PUSH1 0x40 MLOAD PUSH32 0x1E4FBDF700000000000000000000000000000000000000000000000000000000 DUP2 MSTORE PUSH1 0x4 ADD PUSH2 0x2CA5 SWAP2 SWAP1 PUSH2 0x36ED JUMP JUMPDEST PUSH1 0x40 MLOAD DUP1 SWAP2 SUB SWAP1 REVERT JUMPDEST PUSH2 0x2CB7 DUP2 PUSH2 0x333D JUMP JUMPDEST POP JUMP JUMPDEST PUSH1 0x10 PUSH1 0x20 MSTORE DUP1 PUSH1 0x0 MSTORE PUSH1 0x40 PUSH1 0x0 KECCAK256 PUSH1 0x0 SWAP2 POP SLOAD SWAP1 PUSH2 0x100 EXP SWAP1 DIV PUSH1 0xFF AND DUP2 JUMP JUMPDEST PUSH1 0x5 PUSH1 0x0 SWAP1 SLOAD SWAP1 PUSH2 0x100 EXP SWAP1 DIV PUSH20 0xFFFFFFFFFFFFFFFFFFFFFFFFFFFFFFFFFFFFFFFF AND DUP2 JUMP JUMPDEST PUSH2 0x2D08 PUSH2 0x2E15 JUMP JUMPDEST PUSH1 0x0 PUSH20 0xFFFFFFFFFFFFFFFFFFFFFFFFFFFFFFFFFFFFFFFF AND DUP2 PUSH20 0xFFFFFFFFFFFFFFFFFFFFFFFFFFFFFFFFFFFFFFFF AND SUB PUSH2 0x2D77 JUMPI PUSH1 0x40 MLOAD PUSH32 0x8C379A000000000000000000000000000000000000000000000000000000000 DUP2 MSTORE PUSH1 0x4 ADD PUSH2 0x2D6E SWAP1 PUSH2 0x4159 JUMP JUMPDEST PUSH1 0x40 MLOAD DUP1 SWAP2 SUB SWAP1 REVERT JUMPDEST PUSH1 0x1 PUSH1 0x11 PUSH1 0x0 DUP4 PUSH20 0xFFFFFFFFFFFFFFFFFFFFFFFFFFFFFFFFFFFFFFFF AND PUSH20 0xFFFFFFFFFFFFFFFFFFFFFFFFFFFFFFFFFFFFFFFF AND DUP2 MSTORE PUSH1 0x20 ADD SWAP1 DUP2 MSTORE PUSH1 0x20 ADD PUSH1 0x0 KECCAK256 PUSH1 0x0 PUSH2 0x100 EXP DUP2 SLOAD DUP2 PUSH1 0xFF MUL NOT AND SWAP1 DUP4 ISZERO ISZERO MUL OR SWAP1 SSTORE POP DUP1 PUSH20 0xFFFFFFFFFFFFFFFFFFFFFFFFFFFFFFFFFFFFFFFF AND PUSH32 0xFFA4E6181777692565CF28528FC88FD1516EA86B56DA075235FA575AF6A4B855 PUSH1 0x40 MLOAD PUSH1 0x40 MLOAD DUP1 SWAP2 SUB SWAP1 LOG2 POP JUMP JUMPDEST PUSH2 0x2E1D PUSH2 0x3401 JUMP JUMPDEST PUSH20 0xFFFFFFFFFFFFFFFFFFFFFFFFFFFFFFFFFFFFFFFF AND PUSH2 0x2E3B PUSH2 0x1F13 JUMP JUMPDEST PUSH20 0xFFFFFFFFFFFFFFFFFFFFFFFFFFFFFFFFFFFFFFFF AND EQ PUSH2 0x2E9A JUMPI PUSH2 0x2E5E PUSH2 0x3401 JUMP JUMPDEST PUSH1 0x40 MLOAD PUSH32 0x118CDAA700000000000000000000000000000000000000000000000000000000 DUP2 MSTORE PUSH1 0x4 ADD PUSH2 0x2E91 SWAP2 SWAP1 PUSH2 0x36ED JUMP JUMPDEST PUSH1 0x40 MLOAD DUP1 SWAP2 SUB SWAP1 REVERT JUMPDEST JUMP JUMPDEST PUSH1 0x2 PUSH1 0x1 SLOAD SUB PUSH2 0x2ED8 JUMPI PUSH1 0x40 MLOAD PUSH32 0x3EE5AEB500000000000000000000000000000000000000000000000000000000 DUP2 MSTORE PUSH1 0x4 ADD PUSH1 0x40 MLOAD DUP1 SWAP2 SUB SWAP1 REVERT JUMPDEST PUSH1 0x2 PUSH1 0x1 DUP2 SWAP1 SSTORE POP JUMP JUMPDEST PUSH1 0x0 DUP1 PUSH1 0x0 SWAP1 POP PUSH1 0x0 PUSH1 0x1 SWAP1 POP JUMPDEST PUSH1 0x8 SLOAD DUP2 GT PUSH2 0x2F44 JUMPI DUP2 PUSH1 0xF PUSH1 0x0 DUP4 DUP2 MSTORE PUSH1 0x20 ADD SWAP1 DUP2 MSTORE PUSH1 0x20 ADD PUSH1 0x0 KECCAK256 PUSH1 0x1 ADD SLOAD GT ISZERO PUSH2 0x2F31 JUMPI PUSH1 0xF PUSH1 0x0 DUP3 DUP2 MSTORE PUSH1 0x20 ADD SWAP1 DUP2 MSTORE PUSH1 0x20 ADD PUSH1 0x0 KECCAK256 PUSH1 0x1 ADD SLOAD SWAP2 POP JUMPDEST DUP1 DUP1 PUSH2 0x2F3C SWAP1 PUSH2 0x3F5B JUMP JUMPDEST SWAP2 POP POP PUSH2 0x2EF0 JUMP JUMPDEST POP DUP1 SWAP2 POP POP SWAP1 JUMP JUMPDEST PUSH1 0x0 SELFBALANCE SWAP1 POP PUSH1 0x0 DUP2 GT ISZERO PUSH2 0x300F JUMPI PUSH1 0x0 PUSH2 0x2F64 PUSH2 0x1F13 JUMP JUMPDEST PUSH20 0xFFFFFFFFFFFFFFFFFFFFFFFFFFFFFFFFFFFFFFFF AND DUP3 PUSH1 0x40 MLOAD PUSH2 0x2F87 SWAP1 PUSH2 0x449E JUMP JUMPDEST PUSH1 0x0 PUSH1 0x40 MLOAD DUP1 DUP4 SUB DUP2 DUP6 DUP8 GAS CALL SWAP3 POP POP POP RETURNDATASIZE DUP1 PUSH1 0x0 DUP2 EQ PUSH2 0x2FC4 JUMPI PUSH1 0x40 MLOAD SWAP2 POP PUSH1 0x1F NOT PUSH1 0x3F RETURNDATASIZE ADD AND DUP3 ADD PUSH1 0x40 MSTORE RETURNDATASIZE DUP3 MSTORE RETURNDATASIZE PUSH1 0x0 PUSH1 0x20 DUP5 ADD RETURNDATACOPY PUSH2 0x2FC9 JUMP JUMPDEST PUSH1 0x60 SWAP2 POP JUMPDEST POP POP SWAP1 POP DUP1 PUSH2 0x300D JUMPI PUSH1 0x40 MLOAD PUSH32 0x8C379A000000000000000000000000000000000000000000000000000000000 DUP2 MSTORE PUSH1 0x4 ADD PUSH2 0x3004 SWAP1 PUSH2 0x4BE5 JUMP JUMPDEST PUSH1 0x40 MLOAD DUP1 SWAP2 SUB SWAP1 REVERT JUMPDEST POP JUMPDEST PUSH1 0x0 PUSH1 0xD PUSH1 0x0 SWAP1 SLOAD SWAP1 PUSH2 0x100 EXP SWAP1 DIV PUSH20 0xFFFFFFFFFFFFFFFFFFFFFFFFFFFFFFFFFFFFFFFF AND PUSH20 0xFFFFFFFFFFFFFFFFFFFFFFFFFFFFFFFFFFFFFFFF AND PUSH4 0x70A08231 ADDRESS PUSH1 0x40 MLOAD DUP3 PUSH4 0xFFFFFFFF AND PUSH1 0xE0 SHL DUP2 MSTORE PUSH1 0x4 ADD PUSH2 0x306C SWAP2 SWAP1 PUSH2 0x36ED JUMP JUMPDEST PUSH1 0x20 PUSH1 0x40 MLOAD DUP1 DUP4 SUB DUP2 DUP7 GAS STATICCALL ISZERO DUP1 ISZERO PUSH2 0x3089 JUMPI RETURNDATASIZE PUSH1 0x0 DUP1 RETURNDATACOPY RETURNDATASIZE PUSH1 0x0 REVERT JUMPDEST POP POP POP POP PUSH1 0x40 MLOAD RETURNDATASIZE PUSH1 0x1F NOT PUSH1 0x1F DUP3 ADD AND DUP3 ADD DUP1 PUSH1 0x40 MSTORE POP DUP2 ADD SWAP1 PUSH2 0x30AD SWAP2 SWAP1 PUSH2 0x4C05 JUMP JUMPDEST SWAP1 POP PUSH1 0x0 DUP2 GT ISZERO PUSH2 0x319F JUMPI PUSH1 0xD PUSH1 0x0 SWAP1 SLOAD SWAP1 PUSH2 0x100 EXP SWAP1 DIV PUSH20 0xFFFFFFFFFFFFFFFFFFFFFFFFFFFFFFFFFFFFFFFF AND PUSH20 0xFFFFFFFFFFFFFFFFFFFFFFFFFFFFFFFFFFFFFFFF AND PUSH4 0xA9059CBB PUSH2 0x30FE PUSH2 0x1F13 JUMP JUMPDEST DUP4 PUSH1 0x40 MLOAD DUP4 PUSH4 0xFFFFFFFF AND PUSH1 0xE0 SHL DUP2 MSTORE PUSH1 0x4 ADD PUSH2 0x311C SWAP3 SWAP2 SWAP1 PUSH2 0x451F JUMP JUMPDEST PUSH1 0x20 PUSH1 0x40 MLOAD DUP1 DUP4 SUB DUP2 PUSH1 0x0 DUP8 GAS CALL ISZERO DUP1 ISZERO PUSH2 0x313B JUMPI RETURNDATASIZE PUSH1 0x0 DUP1 RETURNDATACOPY RETURNDATASIZE PUSH1 0x0 REVERT JUMPDEST POP POP POP POP PUSH1 0x40 MLOAD RETURNDATASIZE PUSH1 0x1F NOT PUSH1 0x1F DUP3 ADD AND DUP3 ADD DUP1 PUSH1 0x40 MSTORE POP DUP2 ADD SWAP1 PUSH2 0x315F SWAP2 SWAP1 PUSH2 0x455D JUMP JUMPDEST PUSH2 0x319E JUMPI PUSH1 0x40 MLOAD PUSH32 0x8C379A000000000000000000000000000000000000000000000000000000000 DUP2 MSTORE PUSH1 0x4 ADD PUSH2 0x3195 SWAP1 PUSH2 0x4C7E JUMP JUMPDEST PUSH1 0x40 MLOAD DUP1 SWAP2 SUB SWAP1 REVERT JUMPDEST JUMPDEST PUSH1 0x0 PUSH1 0xE PUSH1 0x0 SWAP1 SLOAD SWAP1 PUSH2 0x100 EXP SWAP1 DIV PUSH20 0xFFFFFFFFFFFFFFFFFFFFFFFFFFFFFFFFFFFFFFFF AND PUSH20 0xFFFFFFFFFFFFFFFFFFFFFFFFFFFFFFFFFFFFFFFF AND PUSH4 0x70A08231 ADDRESS PUSH1 0x40 MLOAD DUP3 PUSH4 0xFFFFFFFF AND PUSH1 0xE0 SHL DUP2 MSTORE PUSH1 0x4 ADD PUSH2 0x31FC SWAP2 SWAP1 PUSH2 0x36ED JUMP JUMPDEST PUSH1 0x20 PUSH1 0x40 MLOAD DUP1 DUP4 SUB DUP2 DUP7 GAS STATICCALL ISZERO DUP1 ISZERO PUSH2 0x3219 JUMPI RETURNDATASIZE PUSH1 0x0 DUP1 RETURNDATACOPY RETURNDATASIZE PUSH1 0x0 REVERT JUMPDEST POP POP POP POP PUSH1 0x40 MLOAD RETURNDATASIZE PUSH1 0x1F NOT PUSH1 0x1F DUP3 ADD AND DUP3 ADD DUP1 PUSH1 0x40 MSTORE POP DUP2 ADD SWAP1 PUSH2 0x323D SWAP2 SWAP1 PUSH2 0x4C05 JUMP JUMPDEST SWAP1 POP PUSH1 0x0 DUP2 GT ISZERO PUSH2 0x332F JUMPI PUSH1 0xE PUSH1 0x0 SWAP1 SLOAD SWAP1 PUSH2 0x100 EXP SWAP1 DIV PUSH20 0xFFFFFFFFFFFFFFFFFFFFFFFFFFFFFFFFFFFFFFFF AND PUSH20 0xFFFFFFFFFFFFFFFFFFFFFFFFFFFFFFFFFFFFFFFF AND PUSH4 0xA9059CBB PUSH2 0x328E PUSH2 0x1F13 JUMP JUMPDEST DUP4 PUSH1 0x40 MLOAD DUP4 PUSH4 0xFFFFFFFF AND PUSH1 0xE0 SHL DUP2 MSTORE PUSH1 0x4 ADD PUSH2 0x32AC SWAP3 SWAP2 SWAP1 PUSH2 0x451F JUMP JUMPDEST PUSH1 0x20 PUSH1 0x40 MLOAD DUP1 DUP4 SUB DUP2 PUSH1 0x0 DUP8 GAS CALL ISZERO DUP1 ISZERO PUSH2 0x32CB JUMPI RETURNDATASIZE PUSH1 0x0 DUP1 RETURNDATACOPY RETURNDATASIZE PUSH1 0x0 REVERT JUMPDEST POP POP POP POP PUSH1 0x40 MLOAD RETURNDATASIZE PUSH1 0x1F NOT PUSH1 0x1F DUP3 ADD AND DUP3 ADD DUP1 PUSH1 0x40 MSTORE POP DUP2 ADD SWAP1 PUSH2 0x32EF SWAP2 SWAP1 PUSH2 0x455D JUMP JUMPDEST PUSH2 0x332E JUMPI PUSH1 0x40 MLOAD PUSH32 0x8C379A000000000000000000000000000000000000000000000000000000000 DUP2 MSTORE PUSH1 0x4 ADD PUSH2 0x3325 SWAP1 PUSH2 0x4CEA JUMP JUMPDEST PUSH1 0x40 MLOAD DUP1 SWAP2 SUB SWAP1 REVERT JUMPDEST JUMPDEST POP POP POP JUMP JUMPDEST PUSH1 0x1 DUP1 DUP2 SWAP1 SSTORE POP JUMP JUMPDEST PUSH1 0x0 DUP1 PUSH1 0x0 SWAP1 SLOAD SWAP1 PUSH2 0x100 EXP SWAP1 DIV PUSH20 0xFFFFFFFFFFFFFFFFFFFFFFFFFFFFFFFFFFFFFFFF AND SWAP1 POP DUP2 PUSH1 0x0 DUP1 PUSH2 0x100 EXP DUP2 SLOAD DUP2 PUSH20 0xFFFFFFFFFFFFFFFFFFFFFFFFFFFFFFFFFFFFFFFF MUL NOT AND SWAP1 DUP4 PUSH20 0xFFFFFFFFFFFFFFFFFFFFFFFFFFFFFFFFFFFFFFFF AND MUL OR SWAP1 SSTORE POP DUP2 PUSH20 0xFFFFFFFFFFFFFFFFFFFFFFFFFFFFFFFFFFFFFFFF AND DUP2 PUSH20 0xFFFFFFFFFFFFFFFFFFFFFFFFFFFFFFFFFFFFFFFF AND PUSH32 0x8BE0079C531659141344CD1FD0A4F28419497F9722A3DAAFE3B4186F6B6457E0 PUSH1 0x40 MLOAD PUSH1 0x40 MLOAD DUP1 SWAP2 SUB SWAP1 LOG3 POP POP JUMP JUMPDEST PUSH1 0x0 CALLER SWAP1 POP SWAP1 JUMP JUMPDEST PUSH1 0x0 DUP3 DUP3 MSTORE PUSH1 0x20 DUP3 ADD SWAP1 POP SWAP3 SWAP2 POP POP JUMP JUMPDEST PUSH32 0x44697265637420424E42207472616E7366657273206E6F7420616C6C6F776564 PUSH1 0x0 DUP3 ADD MSTORE POP JUMP JUMPDEST PUSH1 0x0 PUSH2 0x3450 PUSH1 0x20 DUP4 PUSH2 0x3409 JUMP JUMPDEST SWAP2 POP PUSH2 0x345B DUP3 PUSH2 0x341A JUMP JUMPDEST PUSH1 0x20 DUP3 ADD SWAP1 POP SWAP2 SWAP1 POP JUMP JUMPDEST PUSH1 0x0 PUSH1 0x20 DUP3 ADD SWAP1 POP DUP2 DUP2 SUB PUSH1 0x0 DUP4 ADD MSTORE PUSH2 0x347F DUP2 PUSH2 0x3443 JUMP JUMPDEST SWAP1 POP SWAP2 SWAP1 POP JUMP JUMPDEST PUSH1 0x0 DUP1 REVERT JUMPDEST PUSH1 0x3 DUP2 LT PUSH2 0x3498 JUMPI PUSH1 0x0 DUP1 REVERT JUMPDEST POP JUMP JUMPDEST PUSH1 0x0 DUP2 CALLDATALOAD SWAP1 POP PUSH2 0x34AA DUP2 PUSH2 0x348B JUMP JUMPDEST SWAP3 SWAP2 POP POP JUMP JUMPDEST PUSH1 0x0 DUP2 SWAP1 POP SWAP2 SWAP1 POP JUMP JUMPDEST PUSH2 0x34C3 DUP2 PUSH2 0x34B0 JUMP JUMPDEST DUP2 EQ PUSH2 0x34CE JUMPI PUSH1 0x0 DUP1 REVERT JUMPDEST POP JUMP JUMPDEST PUSH1 0x0 DUP2 CALLDATALOAD SWAP1 POP PUSH2 0x34E0 DUP2 PUSH2 0x34BA JUMP JUMPDEST SWAP3 SWAP2 POP POP JUMP JUMPDEST PUSH1 0x0 DUP1 PUSH1 0x40 DUP4 DUP6 SUB SLT ISZERO PUSH2 0x34FD JUMPI PUSH2 0x34FC PUSH2 0x3486 JUMP JUMPDEST JUMPDEST PUSH1 0x0 PUSH2 0x350B DUP6 DUP3 DUP7 ADD PUSH2 0x349B JUMP JUMPDEST SWAP3 POP POP PUSH1 0x20 PUSH2 0x351C DUP6 DUP3 DUP7 ADD PUSH2 0x34D1 JUMP JUMPDEST SWAP2 POP POP SWAP3 POP SWAP3 SWAP1 POP JUMP JUMPDEST PUSH2 0x352F DUP2 PUSH2 0x34B0 JUMP JUMPDEST DUP3 MSTORE POP POP JUMP JUMPDEST PUSH1 0x0 PUSH1 0x20 DUP3 ADD SWAP1 POP PUSH2 0x354A PUSH1 0x0 DUP4 ADD DUP5 PUSH2 0x3526 JUMP JUMPDEST SWAP3 SWAP2 POP POP JUMP JUMPDEST PUSH1 0x0 DUP2 ISZERO ISZERO SWAP1 POP SWAP2 SWAP1 POP JUMP JUMPDEST PUSH2 0x3565 DUP2 PUSH2 0x3550 JUMP JUMPDEST DUP3 MSTORE POP POP JUMP JUMPDEST PUSH1 0x0 PUSH1 0x20 DUP3 ADD SWAP1 POP PUSH2 0x3580 PUSH1 0x0 DUP4 ADD DUP5 PUSH2 0x355C JUMP JUMPDEST SWAP3 SWAP2 POP POP JUMP JUMPDEST PUSH1 0x0 PUSH1 0x20 DUP3 DUP5 SUB SLT ISZERO PUSH2 0x359C JUMPI PUSH2 0x359B PUSH2 0x3486 JUMP JUMPDEST JUMPDEST PUSH1 0x0 PUSH2 0x35AA DUP5 DUP3 DUP6 ADD PUSH2 0x349B JUMP JUMPDEST SWAP2 POP POP SWAP3 SWAP2 POP POP JUMP JUMPDEST PUSH1 0x0 DUP2 SWAP1 POP SWAP2 SWAP1 POP JUMP JUMPDEST PUSH2 0x35C6 DUP2 PUSH2 0x35B3 JUMP JUMPDEST DUP3 MSTORE POP POP JUMP JUMPDEST PUSH1 0x0 PUSH1 0x20 DUP3 ADD SWAP1 POP PUSH2 0x35E1 PUSH1 0x0 DUP4 ADD DUP5 PUSH2 0x35BD JUMP JUMPDEST SWAP3 SWAP2 POP POP JUMP JUMPDEST PUSH2 0x35F0 DUP2 PUSH2 0x3550 JUMP JUMPDEST DUP2 EQ PUSH2 0x35FB JUMPI PUSH1 0x0 DUP1 REVERT JUMPDEST POP JUMP JUMPDEST PUSH1 0x0 DUP2 CALLDATALOAD SWAP1 POP PUSH2 0x360D DUP2 PUSH2 0x35E7 JUMP JUMPDEST SWAP3 SWAP2 POP POP JUMP JUMPDEST PUSH1 0x0 DUP1 PUSH1 0x40 DUP4 DUP6 SUB SLT ISZERO PUSH2 0x362A JUMPI PUSH2 0x3629 PUSH2 0x3486 JUMP JUMPDEST JUMPDEST PUSH1 0x0 PUSH2 0x3638 DUP6 DUP3 DUP7 ADD PUSH2 0x34D1 JUMP JUMPDEST SWAP3 POP POP PUSH1 0x20 PUSH2 0x3649 DUP6 DUP3 DUP7 ADD PUSH2 0x35FE JUMP JUMPDEST SWAP2 POP POP SWAP3 POP SWAP3 SWAP1 POP JUMP JUMPDEST PUSH1 0x0 PUSH20 0xFFFFFFFFFFFFFFFFFFFFFFFFFFFFFFFFFFFFFFFF DUP3 AND SWAP1 POP SWAP2 SWAP1 POP JUMP JUMPDEST PUSH1 0x0 PUSH2 0x367E DUP3 PUSH2 0x3653 JUMP JUMPDEST SWAP1 POP SWAP2 SWAP1 POP JUMP JUMPDEST PUSH2 0x368E DUP2 PUSH2 0x3673 JUMP JUMPDEST DUP2 EQ PUSH2 0x3699 JUMPI PUSH1 0x0 DUP1 REVERT JUMPDEST POP JUMP JUMPDEST PUSH1 0x0 DUP2 CALLDATALOAD SWAP1 POP PUSH2 0x36AB DUP2 PUSH2 0x3685 JUMP JUMPDEST SWAP3 SWAP2 POP POP JUMP JUMPDEST PUSH1 0x0 PUSH1 0x20 DUP3 DUP5 SUB SLT ISZERO PUSH2 0x36C7 JUMPI PUSH2 0x36C6 PUSH2 0x3486 JUMP JUMPDEST JUMPDEST PUSH1 0x0 PUSH2 0x36D5 DUP5 DUP3 DUP6 ADD PUSH2 0x369C JUMP JUMPDEST SWAP2 POP POP SWAP3 SWAP2 POP POP JUMP JUMPDEST PUSH2 0x36E7 DUP2 PUSH2 0x3673 JUMP JUMPDEST DUP3 MSTORE POP POP JUMP JUMPDEST PUSH1 0x0 PUSH1 0x20 DUP3 ADD SWAP1 POP PUSH2 0x3702 PUSH1 0x0 DUP4 ADD DUP5 PUSH2 0x36DE JUMP JUMPDEST SWAP3 SWAP2 POP POP JUMP JUMPDEST PUSH1 0x0 PUSH1 0x20 DUP3 DUP5 SUB SLT ISZERO PUSH2 0x371E JUMPI PUSH2 0x371D PUSH2 0x3486 JUMP JUMPDEST JUMPDEST PUSH1 0x0 PUSH2 0x372C DUP5 DUP3 DUP6 ADD PUSH2 0x34D1 JUMP JUMPDEST SWAP2 POP POP SWAP3 SWAP2 POP POP JUMP JUMPDEST PUSH1 0x0 DUP2 SWAP1 POP SWAP2 SWAP1 POP JUMP JUMPDEST PUSH1 0x0 PUSH2 0x375A PUSH2 0x3755 PUSH2 0x3750 DUP5 PUSH2 0x3653 JUMP JUMPDEST PUSH2 0x3735 JUMP JUMPDEST PUSH2 0x3653 JUMP JUMPDEST SWAP1 POP SWAP2 SWAP1 POP JUMP JUMPDEST PUSH1 0x0 PUSH2 0x376C DUP3 PUSH2 0x373F JUMP JUMPDEST SWAP1 POP SWAP2 SWAP1 POP JUMP JUMPDEST PUSH1 0x0 PUSH2 0x377E DUP3 PUSH2 0x3761 JUMP JUMPDEST SWAP1 POP SWAP2 SWAP1 POP JUMP JUMPDEST PUSH2 0x378E DUP2 PUSH2 0x3773 JUMP JUMPDEST DUP3 MSTORE POP POP JUMP JUMPDEST PUSH1 0x0 PUSH1 0x20 DUP3 ADD SWAP1 POP PUSH2 0x37A9 PUSH1 0x0 DUP4 ADD DUP5 PUSH2 0x3785 JUMP JUMPDEST SWAP3 SWAP2 POP POP JUMP JUMPDEST PUSH1 0x0 DUP1 PUSH1 0x0 PUSH1 0x60 DUP5 DUP7 SUB SLT ISZERO PUSH2 0x37C8 JUMPI PUSH2 0x37C7 PUSH2 0x3486 JUMP JUMPDEST JUMPDEST PUSH1 0x0 PUSH2 0x37D6 DUP7 DUP3 DUP8 ADD PUSH2 0x34D1 JUMP JUMPDEST SWAP4 POP POP PUSH1 0x20 PUSH2 0x37E7 DUP7 DUP3 DUP8 ADD PUSH2 0x34D1 JUMP JUMPDEST SWAP3 POP POP PUSH1 0x40 PUSH2 0x37F8 DUP7 DUP3 DUP8 ADD PUSH2 0x34D1 JUMP JUMPDEST SWAP2 POP POP SWAP3 POP SWAP3 POP SWAP3 JUMP JUMPDEST PUSH1 0x0 PUSH1 0xA0 DUP3 ADD SWAP1 POP PUSH2 0x3817 PUSH1 0x0 DUP4 ADD DUP9 PUSH2 0x3526 JUMP JUMPDEST PUSH2 0x3824 PUSH1 0x20 DUP4 ADD DUP8 PUSH2 0x3526 JUMP JUMPDEST PUSH2 0x3831 PUSH1 0x40 DUP4 ADD DUP7 PUSH2 0x3526 JUMP JUMPDEST PUSH2 0x383E PUSH1 0x60 DUP4 ADD DUP6 PUSH2 0x3526 JUMP JUMPDEST PUSH2 0x384B PUSH1 0x80 DUP4 ADD DUP5 PUSH2 0x355C JUMP JUMPDEST SWAP7 SWAP6 POP POP POP POP POP POP JUMP JUMPDEST PUSH1 0x0 PUSH1 0x40 DUP3 ADD SWAP1 POP PUSH2 0x386A PUSH1 0x0 DUP4 ADD DUP6 PUSH2 0x3526 JUMP JUMPDEST PUSH2 0x3877 PUSH1 0x20 DUP4 ADD DUP5 PUSH2 0x3526 JUMP JUMPDEST SWAP4 SWAP3 POP POP POP JUMP JUMPDEST PUSH32 0x4E487B7100000000000000000000000000000000000000000000000000000000 PUSH1 0x0 MSTORE PUSH1 0x21 PUSH1 0x4 MSTORE PUSH1 0x24 PUSH1 0x0 REVERT JUMPDEST PUSH1 0x3 DUP2 LT PUSH2 0x38BE JUMPI PUSH2 0x38BD PUSH2 0x387E JUMP JUMPDEST JUMPDEST POP JUMP JUMPDEST PUSH1 0x0 DUP2 SWAP1 POP PUSH2 0x38CF DUP3 PUSH2 0x38AD JUMP JUMPDEST SWAP2 SWAP1 POP JUMP JUMPDEST PUSH1 0x0 PUSH2 0x38DF DUP3 PUSH2 0x38C1 JUMP JUMPDEST SWAP1 POP SWAP2 SWAP1 POP JUMP JUMPDEST PUSH2 0x38EF DUP2 PUSH2 0x38D4 JUMP JUMPDEST DUP3 MSTORE POP POP JUMP JUMPDEST PUSH1 0x0 PUSH1 0x20 DUP3 ADD SWAP1 POP PUSH2 0x390A PUSH1 0x0 DUP4 ADD DUP5 PUSH2 0x38E6 JUMP JUMPDEST SWAP3 SWAP2 POP POP JUMP JUMPDEST PUSH1 0x0 DUP1 PUSH1 0x40 DUP4 DUP6 SUB SLT ISZERO PUSH2 0x3927 JUMPI PUSH2 0x3926 PUSH2 0x3486 JUMP JUMPDEST JUMPDEST PUSH1 0x0 PUSH2 0x3935 DUP6 DUP3 DUP7 ADD PUSH2 0x369C JUMP JUMPDEST SWAP3 POP POP PUSH1 0x20 PUSH2 0x3946 DUP6 DUP3 DUP7 ADD PUSH2 0x349B JUMP JUMPDEST SWAP2 POP POP SWAP3 POP SWAP3 SWAP1 POP JUMP JUMPDEST PUSH1 0x0 PUSH2 0x395B DUP3 PUSH2 0x3761 JUMP JUMPDEST SWAP1 POP SWAP2 SWAP1 POP JUMP JUMPDEST PUSH2 0x396B DUP2 PUSH2 0x3950 JUMP JUMPDEST DUP3 MSTORE POP POP JUMP JUMPDEST PUSH1 0x0 PUSH1 0x20 DUP3 ADD SWAP1 POP PUSH2 0x3986 PUSH1 0x0 DUP4 ADD DUP5 PUSH2 0x3962 JUMP JUMPDEST SWAP3 SWAP2 POP POP JUMP JUMPDEST PUSH32 0x4E487B7100000000000000000000000000000000000000000000000000000000 PUSH1 0x0 MSTORE PUSH1 0x11 PUSH1 0x4 MSTORE PUSH1 0x24 PUSH1 0x0 REVERT JUMPDEST PUSH1 0x0 PUSH2 0x39C6 DUP3 PUSH2 0x35B3 JUMP JUMPDEST SWAP2 POP PUSH2 0x39D1 DUP4 PUSH2 0x35B3 JUMP JUMPDEST SWAP3 POP DUP3 DUP3 MUL PUSH2 0x39DF DUP2 PUSH2 0x35B3 JUMP JUMPDEST SWAP2 POP PUSH32 0x8000000000000000000000000000000000000000000000000000000000000000 DUP5 EQ PUSH1 0x0 DUP5 SLT AND ISZERO PUSH2 0x3A17 JUMPI PUSH2 0x3A16 PUSH2 0x398C JUMP JUMPDEST JUMPDEST DUP3 DUP3 SDIV DUP5 EQ DUP4 ISZERO OR PUSH2 0x3A2C JUMPI PUSH2 0x3A2B PUSH2 0x398C JUMP JUMPDEST JUMPDEST POP SWAP3 SWAP2 POP POP JUMP JUMPDEST PUSH32 0x496E76616C696420707269636520666565640000000000000000000000000000 PUSH1 0x0 DUP3 ADD MSTORE POP JUMP JUMPDEST PUSH1 0x0 PUSH2 0x3A69 PUSH1 0x12 DUP4 PUSH2 0x3409 JUMP JUMPDEST SWAP2 POP PUSH2 0x3A74 DUP3 PUSH2 0x3A33 JUMP JUMPDEST PUSH1 0x20 DUP3 ADD SWAP1 POP SWAP2 SWAP1 POP JUMP JUMPDEST PUSH1 0x0 PUSH1 0x20 DUP3 ADD SWAP1 POP DUP2 DUP2 SUB PUSH1 0x0 DUP4 ADD MSTORE PUSH2 0x3A98 DUP2 PUSH2 0x3A5C JUMP JUMPDEST SWAP1 POP SWAP2 SWAP1 POP JUMP JUMPDEST PUSH1 0x0 PUSH2 0x3AAA DUP3 PUSH2 0x34B0 JUMP JUMPDEST SWAP2 POP PUSH2 0x3AB5 DUP4 PUSH2 0x34B0 JUMP JUMPDEST SWAP3 POP DUP3 DUP3 MUL PUSH2 0x3AC3 DUP2 PUSH2 0x34B0 JUMP JUMPDEST SWAP2 POP DUP3 DUP3 DIV DUP5 EQ DUP4 ISZERO OR PUSH2 0x3ADA JUMPI PUSH2 0x3AD9 PUSH2 0x398C JUMP JUMPDEST JUMPDEST POP SWAP3 SWAP2 POP POP JUMP JUMPDEST PUSH32 0x4E487B7100000000000000000000000000000000000000000000000000000000 PUSH1 0x0 MSTORE PUSH1 0x12 PUSH1 0x4 MSTORE PUSH1 0x24 PUSH1 0x0 REVERT JUMPDEST PUSH1 0x0 PUSH2 0x3B1B DUP3 PUSH2 0x34B0 JUMP JUMPDEST SWAP2 POP PUSH2 0x3B26 DUP4 PUSH2 0x34B0 JUMP JUMPDEST SWAP3 POP DUP3 PUSH2 0x3B36 JUMPI PUSH2 0x3B35 PUSH2 0x3AE1 JUMP JUMPDEST JUMPDEST DUP3 DUP3 DIV SWAP1 POP SWAP3 SWAP2 POP POP JUMP JUMPDEST PUSH1 0x0 PUSH2 0x3B4C DUP3 PUSH2 0x34B0 JUMP JUMPDEST SWAP2 POP PUSH2 0x3B57 DUP4 PUSH2 0x34B0 JUMP JUMPDEST SWAP3 POP DUP3 DUP3 SUB SWAP1 POP DUP2 DUP2 GT ISZERO PUSH2 0x3B6F JUMPI PUSH2 0x3B6E PUSH2 0x398C JUMP JUMPDEST JUMPDEST SWAP3 SWAP2 POP POP JUMP JUMPDEST PUSH1 0x0 DUP2 PUSH1 0x1 SHR SWAP1 POP SWAP2 SWAP1 POP JUMP JUMPDEST PUSH1 0x0 DUP1 DUP3 SWAP2 POP DUP4 SWAP1 POP JUMPDEST PUSH1 0x1 DUP6 GT ISZERO PUSH2 0x3BCC JUMPI DUP1 DUP7 DIV DUP2 GT ISZERO PUSH2 0x3BA8 JUMPI PUSH2 0x3BA7 PUSH2 0x398C JUMP JUMPDEST JUMPDEST PUSH1 0x1 DUP6 AND ISZERO PUSH2 0x3BB7 JUMPI DUP1 DUP3 MUL SWAP2 POP JUMPDEST DUP1 DUP2 MUL SWAP1 POP PUSH2 0x3BC5 DUP6 PUSH2 0x3B75 JUMP JUMPDEST SWAP5 POP PUSH2 0x3B8C JUMP JUMPDEST SWAP5 POP SWAP5 SWAP3 POP POP POP JUMP JUMPDEST PUSH1 0x0 DUP3 PUSH2 0x3BE5 JUMPI PUSH1 0x1 SWAP1 POP PUSH2 0x3CA1 JUMP JUMPDEST DUP2 PUSH2 0x3BF3 JUMPI PUSH1 0x0 SWAP1 POP PUSH2 0x3CA1 JUMP JUMPDEST DUP2 PUSH1 0x1 DUP2 EQ PUSH2 0x3C09 JUMPI PUSH1 0x2 DUP2 EQ PUSH2 0x3C13 JUMPI PUSH2 0x3C42 JUMP JUMPDEST PUSH1 0x1 SWAP2 POP POP PUSH2 0x3CA1 JUMP JUMPDEST PUSH1 0xFF DUP5 GT ISZERO PUSH2 0x3C25 JUMPI PUSH2 0x3C24 PUSH2 0x398C JUMP JUMPDEST JUMPDEST DUP4 PUSH1 0x2 EXP SWAP2 POP DUP5 DUP3 GT ISZERO PUSH2 0x3C3C JUMPI PUSH2 0x3C3B PUSH2 0x398C JUMP JUMPDEST JUMPDEST POP PUSH2 0x3CA1 JUMP JUMPDEST POP PUSH1 0x20 DUP4 LT PUSH2 0x133 DUP4 LT AND PUSH1 0x4E DUP5 LT PUSH1 0xB DUP5 LT AND OR ISZERO PUSH2 0x3C77 JUMPI DUP3 DUP3 EXP SWAP1 POP DUP4 DUP2 GT ISZERO PUSH2 0x3C72 JUMPI PUSH2 0x3C71 PUSH2 0x398C JUMP JUMPDEST JUMPDEST PUSH2 0x3CA1 JUMP JUMPDEST PUSH2 0x3C84 DUP5 DUP5 DUP5 PUSH1 0x1 PUSH2 0x3B82 JUMP JUMPDEST SWAP3 POP SWAP1 POP DUP2 DUP5 DIV DUP2 GT ISZERO PUSH2 0x3C9B JUMPI PUSH2 0x3C9A PUSH2 0x398C JUMP JUMPDEST JUMPDEST DUP2 DUP2 MUL SWAP1 POP JUMPDEST SWAP4 SWAP3 POP POP POP JUMP JUMPDEST PUSH1 0x0 PUSH2 0x3CB3 DUP3 PUSH2 0x34B0 JUMP JUMPDEST SWAP2 POP PUSH2 0x3CBE DUP4 PUSH2 0x34B0 JUMP JUMPDEST SWAP3 POP PUSH2 0x3CEB PUSH32 0xFFFFFFFFFFFFFFFFFFFFFFFFFFFFFFFFFFFFFFFFFFFFFFFFFFFFFFFFFFFFFFFF DUP5 DUP5 PUSH2 0x3BD5 JUMP JUMPDEST SWAP1 POP SWAP3 SWAP2 POP POP JUMP JUMPDEST PUSH32 0x556E737570706F72746564207061796D656E74206D6574686F64000000000000 PUSH1 0x0 DUP3 ADD MSTORE POP JUMP JUMPDEST PUSH1 0x0 PUSH2 0x3D29 PUSH1 0x1A DUP4 PUSH2 0x3409 JUMP JUMPDEST SWAP2 POP PUSH2 0x3D34 DUP3 PUSH2 0x3CF3 JUMP JUMPDEST PUSH1 0x20 DUP3 ADD SWAP1 POP SWAP2 SWAP1 POP JUMP JUMPDEST PUSH1 0x0 PUSH1 0x20 DUP3 ADD SWAP1 POP DUP2 DUP2 SUB PUSH1 0x0 DUP4 ADD MSTORE PUSH2 0x3D58 DUP2 PUSH2 0x3D1C JUMP JUMPDEST SWAP1 POP SWAP2 SWAP1 POP JUMP JUMPDEST PUSH1 0x0 PUSH10 0xFFFFFFFFFFFFFFFFFFFF DUP3 AND SWAP1 POP SWAP2 SWAP1 POP JUMP JUMPDEST PUSH2 0x3D7E DUP2 PUSH2 0x3D5F JUMP JUMPDEST DUP2 EQ PUSH2 0x3D89 JUMPI PUSH1 0x0 DUP1 REVERT JUMPDEST POP JUMP JUMPDEST PUSH1 0x0 DUP2 MLOAD SWAP1 POP PUSH2 0x3D9B DUP2 PUSH2 0x3D75 JUMP JUMPDEST SWAP3 SWAP2 POP POP JUMP JUMPDEST PUSH2 0x3DAA DUP2 PUSH2 0x35B3 JUMP JUMPDEST DUP2 EQ PUSH2 0x3DB5 JUMPI PUSH1 0x0 DUP1 REVERT JUMPDEST POP JUMP JUMPDEST PUSH1 0x0 DUP2 MLOAD SWAP1 POP PUSH2 0x3DC7 DUP2 PUSH2 0x3DA1 JUMP JUMPDEST SWAP3 SWAP2 POP POP JUMP JUMPDEST PUSH1 0x0 DUP2 MLOAD SWAP1 POP PUSH2 0x3DDC DUP2 PUSH2 0x34BA JUMP JUMPDEST SWAP3 SWAP2 POP POP JUMP JUMPDEST PUSH1 0x0 DUP1 PUSH1 0x0 DUP1 PUSH1 0x0 PUSH1 0xA0 DUP7 DUP9 SUB SLT ISZERO PUSH2 0x3DFE JUMPI PUSH2 0x3DFD PUSH2 0x3486 JUMP JUMPDEST JUMPDEST PUSH1 0x0 PUSH2 0x3E0C DUP9 DUP3 DUP10 ADD PUSH2 0x3D8C JUMP JUMPDEST SWAP6 POP POP PUSH1 0x20 PUSH2 0x3E1D DUP9 DUP3 DUP10 ADD PUSH2 0x3DB8 JUMP JUMPDEST SWAP5 POP POP PUSH1 0x40 PUSH2 0x3E2E DUP9 DUP3 DUP10 ADD PUSH2 0x3DCD JUMP JUMPDEST SWAP4 POP POP PUSH1 0x60 PUSH2 0x3E3F DUP9 DUP3 DUP10 ADD PUSH2 0x3DCD JUMP JUMPDEST SWAP3 POP POP PUSH1 0x80 PUSH2 0x3E50 DUP9 DUP3 DUP10 ADD PUSH2 0x3D8C JUMP JUMPDEST SWAP2 POP POP SWAP3 SWAP6 POP SWAP3 SWAP6 SWAP1 SWAP4 POP JUMP JUMPDEST PUSH32 0x546F6B656E20616D6F756E74206D757374206265206772656174657220746861 PUSH1 0x0 DUP3 ADD MSTORE PUSH32 0x6E207A65726F0000000000000000000000000000000000000000000000000000 PUSH1 0x20 DUP3 ADD MSTORE POP JUMP JUMPDEST PUSH1 0x0 PUSH2 0x3EB9 PUSH1 0x26 DUP4 PUSH2 0x3409 JUMP JUMPDEST SWAP2 POP PUSH2 0x3EC4 DUP3 PUSH2 0x3E5D JUMP JUMPDEST PUSH1 0x40 DUP3 ADD SWAP1 POP SWAP2 SWAP1 POP JUMP JUMPDEST PUSH1 0x0 PUSH1 0x20 DUP3 ADD SWAP1 POP DUP2 DUP2 SUB PUSH1 0x0 DUP4 ADD MSTORE PUSH2 0x3EE8 DUP2 PUSH2 0x3EAC JUMP JUMPDEST SWAP1 POP SWAP2 SWAP1 POP JUMP JUMPDEST PUSH32 0x4E6F206163746976652073616C65000000000000000000000000000000000000 PUSH1 0x0 DUP3 ADD MSTORE POP JUMP JUMPDEST PUSH1 0x0 PUSH2 0x3F25 PUSH1 0xE DUP4 PUSH2 0x3409 JUMP JUMPDEST SWAP2 POP PUSH2 0x3F30 DUP3 PUSH2 0x3EEF JUMP JUMPDEST PUSH1 0x20 DUP3 ADD SWAP1 POP SWAP2 SWAP1 POP JUMP JUMPDEST PUSH1 0x0 PUSH1 0x20 DUP3 ADD SWAP1 POP DUP2 DUP2 SUB PUSH1 0x0 DUP4 ADD MSTORE PUSH2 0x3F54 DUP2 PUSH2 0x3F18 JUMP JUMPDEST SWAP1 POP SWAP2 SWAP1 POP JUMP JUMPDEST PUSH1 0x0 PUSH2 0x3F66 DUP3 PUSH2 0x34B0 JUMP JUMPDEST SWAP2 POP PUSH32 0xFFFFFFFFFFFFFFFFFFFFFFFFFFFFFFFFFFFFFFFFFFFFFFFFFFFFFFFFFFFFFFFF DUP3 SUB PUSH2 0x3F98 JUMPI PUSH2 0x3F97 PUSH2 0x398C JUMP JUMPDEST JUMPDEST PUSH1 0x1 DUP3 ADD SWAP1 POP SWAP2 SWAP1 POP JUMP JUMPDEST PUSH32 0x49434F20616C72656164792066696E616C697A65640000000000000000000000 PUSH1 0x0 DUP3 ADD MSTORE POP JUMP JUMPDEST PUSH1 0x0 PUSH2 0x3FD9 PUSH1 0x15 DUP4 PUSH2 0x3409 JUMP JUMPDEST SWAP2 POP PUSH2 0x3FE4 DUP3 PUSH2 0x3FA3 JUMP JUMPDEST PUSH1 0x20 DUP3 ADD SWAP1 POP SWAP2 SWAP1 POP JUMP JUMPDEST PUSH1 0x0 PUSH1 0x20 DUP3 ADD SWAP1 POP DUP2 DUP2 SUB PUSH1 0x0 DUP4 ADD MSTORE PUSH2 0x4008 DUP2 PUSH2 0x3FCC JUMP JUMPDEST SWAP1 POP SWAP2 SWAP1 POP JUMP JUMPDEST PUSH32 0x43616E6E6F742066696E616C697A653A20536F667420636170206E6F74207265 PUSH1 0x0 DUP3 ADD MSTORE PUSH32 0x6163686564206F722073616C65206973206F6E676F696E670000000000000000 PUSH1 0x20 DUP3 ADD MSTORE POP JUMP JUMPDEST PUSH1 0x0 PUSH2 0x406B PUSH1 0x38 DUP4 PUSH2 0x3409 JUMP JUMPDEST SWAP2 POP PUSH2 0x4076 DUP3 PUSH2 0x400F JUMP JUMPDEST PUSH1 0x40 DUP3 ADD SWAP1 POP SWAP2 SWAP1 POP JUMP JUMPDEST PUSH1 0x0 PUSH1 0x20 DUP3 ADD SWAP1 POP DUP2 DUP2 SUB PUSH1 0x0 DUP4 ADD MSTORE PUSH2 0x409A DUP2 PUSH2 0x405E JUMP JUMPDEST SWAP1 POP SWAP2 SWAP1 POP JUMP JUMPDEST PUSH32 0x53616C65206973207374696C6C206F6E676F696E670000000000000000000000 PUSH1 0x0 DUP3 ADD MSTORE POP JUMP JUMPDEST PUSH1 0x0 PUSH2 0x40D7 PUSH1 0x15 DUP4 PUSH2 0x3409 JUMP JUMPDEST SWAP2 POP PUSH2 0x40E2 DUP3 PUSH2 0x40A1 JUMP JUMPDEST PUSH1 0x20 DUP3 ADD SWAP1 POP SWAP2 SWAP1 POP JUMP JUMPDEST PUSH1 0x0 PUSH1 0x20 DUP3 ADD SWAP1 POP DUP2 DUP2 SUB PUSH1 0x0 DUP4 ADD MSTORE PUSH2 0x4106 DUP2 PUSH2 0x40CA JUMP JUMPDEST SWAP1 POP SWAP2 SWAP1 POP JUMP JUMPDEST PUSH32 0x496E76616C696420616464726573730000000000000000000000000000000000 PUSH1 0x0 DUP3 ADD MSTORE POP JUMP JUMPDEST PUSH1 0x0 PUSH2 0x4143 PUSH1 0xF DUP4 PUSH2 0x3409 JUMP JUMPDEST SWAP2 POP PUSH2 0x414E DUP3 PUSH2 0x410D JUMP JUMPDEST PUSH1 0x20 DUP3 ADD SWAP1 POP SWAP2 SWAP1 POP JUMP JUMPDEST PUSH1 0x0 PUSH1 0x20 DUP3 ADD SWAP1 POP DUP2 DUP2 SUB PUSH1 0x0 DUP4 ADD MSTORE PUSH2 0x4172 DUP2 PUSH2 0x4136 JUMP JUMPDEST SWAP1 POP SWAP2 SWAP1 POP JUMP JUMPDEST PUSH32 0x53746172742074696D65206D7573742062652067726561746572207468616E20 PUSH1 0x0 DUP3 ADD MSTORE PUSH32 0x63757272656E742074696D650000000000000000000000000000000000000000 PUSH1 0x20 DUP3 ADD MSTORE POP JUMP JUMPDEST PUSH1 0x0 PUSH2 0x41D5 PUSH1 0x2C DUP4 PUSH2 0x3409 JUMP JUMPDEST SWAP2 POP PUSH2 0x41E0 DUP3 PUSH2 0x4179 JUMP JUMPDEST PUSH1 0x40 DUP3 ADD SWAP1 POP SWAP2 SWAP1 POP JUMP JUMPDEST PUSH1 0x0 PUSH1 0x20 DUP3 ADD SWAP1 POP DUP2 DUP2 SUB PUSH1 0x0 DUP4 ADD MSTORE PUSH2 0x4204 DUP2 PUSH2 0x41C8 JUMP JUMPDEST SWAP1 POP SWAP2 SWAP1 POP JUMP JUMPDEST PUSH32 0x456E642074696D65206D7573742062652067726561746572207468616E207374 PUSH1 0x0 DUP3 ADD MSTORE PUSH32 0x6172742074696D65000000000000000000000000000000000000000000000000 PUSH1 0x20 DUP3 ADD MSTORE POP JUMP JUMPDEST PUSH1 0x0 PUSH2 0x4267 PUSH1 0x28 DUP4 PUSH2 0x3409 JUMP JUMPDEST SWAP2 POP PUSH2 0x4272 DUP3 PUSH2 0x420B JUMP JUMPDEST PUSH1 0x40 DUP3 ADD SWAP1 POP SWAP2 SWAP1 POP JUMP JUMPDEST PUSH1 0x0 PUSH1 0x20 DUP3 ADD SWAP1 POP DUP2 DUP2 SUB PUSH1 0x0 DUP4 ADD MSTORE PUSH2 0x4296 DUP2 PUSH2 0x425A JUMP JUMPDEST SWAP1 POP SWAP2 SWAP1 POP JUMP JUMPDEST PUSH32 0x4E65772073616C65206D75737420737461727420616674657220746865206C61 PUSH1 0x0 DUP3 ADD MSTORE PUSH32 0x73742073616C6520656E64730000000000000000000000000000000000000000 PUSH1 0x20 DUP3 ADD MSTORE POP JUMP JUMPDEST PUSH1 0x0 PUSH2 0x42F9 PUSH1 0x2C DUP4 PUSH2 0x3409 JUMP JUMPDEST SWAP2 POP PUSH2 0x4304 DUP3 PUSH2 0x429D JUMP JUMPDEST PUSH1 0x40 DUP3 ADD SWAP1 POP SWAP2 SWAP1 POP JUMP JUMPDEST PUSH1 0x0 PUSH1 0x20 DUP3 ADD SWAP1 POP DUP2 DUP2 SUB PUSH1 0x0 DUP4 ADD MSTORE PUSH2 0x4328 DUP2 PUSH2 0x42EC JUMP JUMPDEST SWAP1 POP SWAP2 SWAP1 POP JUMP JUMPDEST PUSH1 0x0 PUSH1 0x60 DUP3 ADD SWAP1 POP PUSH2 0x4344 PUSH1 0x0 DUP4 ADD DUP7 PUSH2 0x3526 JUMP JUMPDEST PUSH2 0x4351 PUSH1 0x20 DUP4 ADD DUP6 PUSH2 0x3526 JUMP JUMPDEST PUSH2 0x435E PUSH1 0x40 DUP4 ADD DUP5 PUSH2 0x3526 JUMP JUMPDEST SWAP5 SWAP4 POP POP POP POP JUMP JUMPDEST PUSH32 0x53616C65206F6E676F696E670000000000000000000000000000000000000000 PUSH1 0x0 DUP3 ADD MSTORE POP JUMP JUMPDEST PUSH1 0x0 PUSH2 0x439C PUSH1 0xC DUP4 PUSH2 0x3409 JUMP JUMPDEST SWAP2 POP PUSH2 0x43A7 DUP3 PUSH2 0x4366 JUMP JUMPDEST PUSH1 0x20 DUP3 ADD SWAP1 POP SWAP2 SWAP1 POP JUMP JUMPDEST PUSH1 0x0 PUSH1 0x20 DUP3 ADD SWAP1 POP DUP2 DUP2 SUB PUSH1 0x0 DUP4 ADD MSTORE PUSH2 0x43CB DUP2 PUSH2 0x438F JUMP JUMPDEST SWAP1 POP SWAP2 SWAP1 POP JUMP JUMPDEST PUSH32 0x536F667420636170207265616368656400000000000000000000000000000000 PUSH1 0x0 DUP3 ADD MSTORE POP JUMP JUMPDEST PUSH1 0x0 PUSH2 0x4408 PUSH1 0x10 DUP4 PUSH2 0x3409 JUMP JUMPDEST SWAP2 POP PUSH2 0x4413 DUP3 PUSH2 0x43D2 JUMP JUMPDEST PUSH1 0x20 DUP3 ADD SWAP1 POP SWAP2 SWAP1 POP JUMP JUMPDEST PUSH1 0x0 PUSH1 0x20 DUP3 ADD SWAP1 POP DUP2 DUP2 SUB PUSH1 0x0 DUP4 ADD MSTORE PUSH2 0x4437 DUP2 PUSH2 0x43FB JUMP JUMPDEST SWAP1 POP SWAP2 SWAP1 POP JUMP JUMPDEST PUSH32 0x4E487B7100000000000000000000000000000000000000000000000000000000 PUSH1 0x0 MSTORE PUSH1 0x32 PUSH1 0x4 MSTORE PUSH1 0x24 PUSH1 0x0 REVERT JUMPDEST PUSH1 0x0 DUP2 SWAP1 POP SWAP3 SWAP2 POP POP JUMP JUMPDEST POP JUMP JUMPDEST PUSH1 0x0 PUSH2 0x4488 PUSH1 0x0 DUP4 PUSH2 0x446D JUMP JUMPDEST SWAP2 POP PUSH2 0x4493 DUP3 PUSH2 0x4478 JUMP JUMPDEST PUSH1 0x0 DUP3 ADD SWAP1 POP SWAP2 SWAP1 POP JUMP JUMPDEST PUSH1 0x0 PUSH2 0x44A9 DUP3 PUSH2 0x447B JUMP JUMPDEST SWAP2 POP DUP2 SWAP1 POP SWAP2 SWAP1 POP JUMP JUMPDEST PUSH32 0x424E4220726566756E64206661696C6564000000000000000000000000000000 PUSH1 0x0 DUP3 ADD MSTORE POP JUMP JUMPDEST PUSH1 0x0 PUSH2 0x44E9 PUSH1 0x11 DUP4 PUSH2 0x3409 JUMP JUMPDEST SWAP2 POP PUSH2 0x44F4 DUP3 PUSH2 0x44B3 JUMP JUMPDEST PUSH1 0x20 DUP3 ADD SWAP1 POP SWAP2 SWAP1 POP JUMP JUMPDEST PUSH1 0x0 PUSH1 0x20 DUP3 ADD SWAP1 POP DUP2 DUP2 SUB PUSH1 0x0 DUP4 ADD MSTORE PUSH2 0x4518 DUP2 PUSH2 0x44DC JUMP JUMPDEST SWAP1 POP SWAP2 SWAP1 POP JUMP JUMPDEST PUSH1 0x0 PUSH1 0x40 DUP3 ADD SWAP1 POP PUSH2 0x4534 PUSH1 0x0 DUP4 ADD DUP6 PUSH2 0x36DE JUMP JUMPDEST PUSH2 0x4541 PUSH1 0x20 DUP4 ADD DUP5 PUSH2 0x3526 JUMP JUMPDEST SWAP4 SWAP3 POP POP POP JUMP JUMPDEST PUSH1 0x0 DUP2 MLOAD SWAP1 POP PUSH2 0x4557 DUP2 PUSH2 0x35E7 JUMP JUMPDEST SWAP3 SWAP2 POP POP JUMP JUMPDEST PUSH1 0x0 PUSH1 0x20 DUP3 DUP5 SUB SLT ISZERO PUSH2 0x4573 JUMPI PUSH2 0x4572 PUSH2 0x3486 JUMP JUMPDEST JUMPDEST PUSH1 0x0 PUSH2 0x4581 DUP5 DUP3 DUP6 ADD PUSH2 0x4548 JUMP JUMPDEST SWAP2 POP POP SWAP3 SWAP2 POP POP JUMP JUMPDEST PUSH32 0x537461626C65636F696E20726566756E64206661696C65640000000000000000 PUSH1 0x0 DUP3 ADD MSTORE POP JUMP JUMPDEST PUSH1 0x0 PUSH2 0x45C0 PUSH1 0x18 DUP4 PUSH2 0x3409 JUMP JUMPDEST SWAP2 POP PUSH2 0x45CB DUP3 PUSH2 0x458A JUMP JUMPDEST PUSH1 0x20 DUP3 ADD SWAP1 POP SWAP2 SWAP1 POP JUMP JUMPDEST PUSH1 0x0 PUSH1 0x20 DUP3 ADD SWAP1 POP DUP2 DUP2 SUB PUSH1 0x0 DUP4 ADD MSTORE PUSH2 0x45EF DUP2 PUSH2 0x45B3 JUMP JUMPDEST SWAP1 POP SWAP2 SWAP1 POP JUMP JUMPDEST PUSH32 0x556E737570706F72746564207061796D656E74206D6574686F6420666F722072 PUSH1 0x0 DUP3 ADD MSTORE PUSH32 0x6566756E64000000000000000000000000000000000000000000000000000000 PUSH1 0x20 DUP3 ADD MSTORE POP JUMP JUMPDEST PUSH1 0x0 PUSH2 0x4652 PUSH1 0x25 DUP4 PUSH2 0x3409 JUMP JUMPDEST SWAP2 POP PUSH2 0x465D DUP3 PUSH2 0x45F6 JUMP JUMPDEST PUSH1 0x40 DUP3 ADD SWAP1 POP SWAP2 SWAP1 POP JUMP JUMPDEST PUSH1 0x0 PUSH1 0x20 DUP3 ADD SWAP1 POP DUP2 DUP2 SUB PUSH1 0x0 DUP4 ADD MSTORE PUSH2 0x4681 DUP2 PUSH2 0x4645 JUMP JUMPDEST SWAP1 POP SWAP2 SWAP1 POP JUMP JUMPDEST PUSH1 0x0 PUSH1 0x40 DUP3 ADD SWAP1 POP PUSH2 0x469D PUSH1 0x0 DUP4 ADD DUP6 PUSH2 0x3526 JUMP JUMPDEST PUSH2 0x46AA PUSH1 0x20 DUP4 ADD DUP5 PUSH2 0x38E6 JUMP JUMPDEST SWAP4 SWAP3 POP POP POP JUMP JUMPDEST PUSH32 0x41697264726F7020616C726561647920636F6D706C6574656400000000000000 PUSH1 0x0 DUP3 ADD MSTORE POP JUMP JUMPDEST PUSH1 0x0 PUSH2 0x46E7 PUSH1 0x19 DUP4 PUSH2 0x3409 JUMP JUMPDEST SWAP2 POP PUSH2 0x46F2 DUP3 PUSH2 0x46B1 JUMP JUMPDEST PUSH1 0x20 DUP3 ADD SWAP1 POP SWAP2 SWAP1 POP JUMP JUMPDEST PUSH1 0x0 PUSH1 0x20 DUP3 ADD SWAP1 POP DUP2 DUP2 SUB PUSH1 0x0 DUP4 ADD MSTORE PUSH2 0x4716 DUP2 PUSH2 0x46DA JUMP JUMPDEST SWAP1 POP SWAP2 SWAP1 POP JUMP JUMPDEST PUSH32 0x49434F206E6F742066696E616C697A6564000000000000000000000000000000 PUSH1 0x0 DUP3 ADD MSTORE POP JUMP JUMPDEST PUSH1 0x0 PUSH2 0x4753 PUSH1 0x11 DUP4 PUSH2 0x3409 JUMP JUMPDEST SWAP2 POP PUSH2 0x475E DUP3 PUSH2 0x471D JUMP JUMPDEST PUSH1 0x20 DUP3 ADD SWAP1 POP SWAP2 SWAP1 POP JUMP JUMPDEST PUSH1 0x0 PUSH1 0x20 DUP3 ADD SWAP1 POP DUP2 DUP2 SUB PUSH1 0x0 DUP4 ADD MSTORE PUSH2 0x4782 DUP2 PUSH2 0x4746 JUMP JUMPDEST SWAP1 POP SWAP2 SWAP1 POP JUMP JUMPDEST PUSH1 0x0 PUSH1 0x60 DUP3 ADD SWAP1 POP PUSH2 0x479E PUSH1 0x0 DUP4 ADD DUP7 PUSH2 0x36DE JUMP JUMPDEST PUSH2 0x47AB PUSH1 0x20 DUP4 ADD DUP6 PUSH2 0x36DE JUMP JUMPDEST PUSH2 0x47B8 PUSH1 0x40 DUP4 ADD DUP5 PUSH2 0x3526 JUMP JUMPDEST SWAP5 SWAP4 POP POP POP POP JUMP JUMPDEST PUSH32 0x546F6B656E207472616E73666572206661696C65640000000000000000000000 PUSH1 0x0 DUP3 ADD MSTORE POP JUMP JUMPDEST PUSH1 0x0 PUSH2 0x47F6 PUSH1 0x15 DUP4 PUSH2 0x3409 JUMP JUMPDEST SWAP2 POP PUSH2 0x4801 DUP3 PUSH2 0x47C0 JUMP JUMPDEST PUSH1 0x20 DUP3 ADD SWAP1 POP SWAP2 SWAP1 POP JUMP JUMPDEST PUSH1 0x0 PUSH1 0x20 DUP3 ADD SWAP1 POP DUP2 DUP2 SUB PUSH1 0x0 DUP4 ADD MSTORE PUSH2 0x4825 DUP2 PUSH2 0x47E9 JUMP JUMPDEST SWAP1 POP SWAP2 SWAP1 POP JUMP JUMPDEST PUSH32 0x4F776E65722063616E6E6F742062757920746F6B656E73000000000000000000 PUSH1 0x0 DUP3 ADD MSTORE POP JUMP JUMPDEST PUSH1 0x0 PUSH2 0x4862 PUSH1 0x17 DUP4 PUSH2 0x3409 JUMP JUMPDEST SWAP2 POP PUSH2 0x486D DUP3 PUSH2 0x482C JUMP JUMPDEST PUSH1 0x20 DUP3 ADD SWAP1 POP SWAP2 SWAP1 POP JUMP JUMPDEST PUSH1 0x0 PUSH1 0x20 DUP3 ADD SWAP1 POP DUP2 DUP2 SUB PUSH1 0x0 DUP4 ADD MSTORE PUSH2 0x4891 DUP2 PUSH2 0x4855 JUMP JUMPDEST SWAP1 POP SWAP2 SWAP1 POP JUMP JUMPDEST PUSH32 0x53616C6520616C72656164792066696E616C697A656400000000000000000000 PUSH1 0x0 DUP3 ADD MSTORE POP JUMP JUMPDEST PUSH1 0x0 PUSH2 0x48CE PUSH1 0x16 DUP4 PUSH2 0x3409 JUMP JUMPDEST SWAP2 POP PUSH2 0x48D9 DUP3 PUSH2 0x4898 JUMP JUMPDEST PUSH1 0x20 DUP3 ADD SWAP1 POP SWAP2 SWAP1 POP JUMP JUMPDEST PUSH1 0x0 PUSH1 0x20 DUP3 ADD SWAP1 POP DUP2 DUP2 SUB PUSH1 0x0 DUP4 ADD MSTORE PUSH2 0x48FD DUP2 PUSH2 0x48C1 JUMP JUMPDEST SWAP1 POP SWAP2 SWAP1 POP JUMP JUMPDEST PUSH32 0x53656E6420612076616C696420424E4220616D6F756E74000000000000000000 PUSH1 0x0 DUP3 ADD MSTORE POP JUMP JUMPDEST PUSH1 0x0 PUSH2 0x493A PUSH1 0x17 DUP4 PUSH2 0x3409 JUMP JUMPDEST SWAP2 POP PUSH2 0x4945 DUP3 PUSH2 0x4904 JUMP JUMPDEST PUSH1 0x20 DUP3 ADD SWAP1 POP SWAP2 SWAP1 POP JUMP JUMPDEST PUSH1 0x0 PUSH1 0x20 DUP3 ADD SWAP1 POP DUP2 DUP2 SUB PUSH1 0x0 DUP4 ADD MSTORE PUSH2 0x4969 DUP2 PUSH2 0x492D JUMP JUMPDEST SWAP1 POP SWAP2 SWAP1 POP JUMP JUMPDEST PUSH1 0x0 PUSH2 0x497B DUP3 PUSH2 0x34B0 JUMP JUMPDEST SWAP2 POP PUSH2 0x4986 DUP4 PUSH2 0x34B0 JUMP JUMPDEST SWAP3 POP DUP3 DUP3 ADD SWAP1 POP DUP1 DUP3 GT ISZERO PUSH2 0x499E JUMPI PUSH2 0x499D PUSH2 0x398C JUMP JUMPDEST JUMPDEST SWAP3 SWAP2 POP POP JUMP JUMPDEST PUSH32 0x456E74657220612076616C696420737461626C65636F696E20616D6F756E7400 PUSH1 0x0 DUP3 ADD MSTORE POP JUMP JUMPDEST PUSH1 0x0 PUSH2 0x49DA PUSH1 0x1F DUP4 PUSH2 0x3409 JUMP JUMPDEST SWAP2 POP PUSH2 0x49E5 DUP3 PUSH2 0x49A4 JUMP JUMPDEST PUSH1 0x20 DUP3 ADD SWAP1 POP SWAP2 SWAP1 POP JUMP JUMPDEST PUSH1 0x0 PUSH1 0x20 DUP3 ADD SWAP1 POP DUP2 DUP2 SUB PUSH1 0x0 DUP4 ADD MSTORE PUSH2 0x4A09 DUP2 PUSH2 0x49CD JUMP JUMPDEST SWAP1 POP SWAP2 SWAP1 POP JUMP JUMPDEST PUSH32 0x537461626C65636F696E207472616E73666572206661696C6564000000000000 PUSH1 0x0 DUP3 ADD MSTORE POP JUMP JUMPDEST PUSH1 0x0 PUSH2 0x4A46 PUSH1 0x1A DUP4 PUSH2 0x3409 JUMP JUMPDEST SWAP2 POP PUSH2 0x4A51 DUP3 PUSH2 0x4A10 JUMP JUMPDEST PUSH1 0x20 DUP3 ADD SWAP1 POP SWAP2 SWAP1 POP JUMP JUMPDEST PUSH1 0x0 PUSH1 0x20 DUP3 ADD SWAP1 POP DUP2 DUP2 SUB PUSH1 0x0 DUP4 ADD MSTORE PUSH2 0x4A75 DUP2 PUSH2 0x4A39 JUMP JUMPDEST SWAP1 POP SWAP2 SWAP1 POP JUMP JUMPDEST PUSH32 0x496E76616C696420746F6B656E20616D6F756E74000000000000000000000000 PUSH1 0x0 DUP3 ADD MSTORE POP JUMP JUMPDEST PUSH1 0x0 PUSH2 0x4AB2 PUSH1 0x14 DUP4 PUSH2 0x3409 JUMP JUMPDEST SWAP2 POP PUSH2 0x4ABD DUP3 PUSH2 0x4A7C JUMP JUMPDEST PUSH1 0x20 DUP3 ADD SWAP1 POP SWAP2 SWAP1 POP JUMP JUMPDEST PUSH1 0x0 PUSH1 0x20 DUP3 ADD SWAP1 POP DUP2 DUP2 SUB PUSH1 0x0 DUP4 ADD MSTORE PUSH2 0x4AE1 DUP2 PUSH2 0x4AA5 JUMP JUMPDEST SWAP1 POP SWAP2 SWAP1 POP JUMP JUMPDEST PUSH32 0x4861726420636170207265616368656400000000000000000000000000000000 PUSH1 0x0 DUP3 ADD MSTORE POP JUMP JUMPDEST PUSH1 0x0 PUSH2 0x4B1E PUSH1 0x10 DUP4 PUSH2 0x3409 JUMP JUMPDEST SWAP2 POP PUSH2 0x4B29 DUP3 PUSH2 0x4AE8 JUMP JUMPDEST PUSH1 0x20 DUP3 ADD SWAP1 POP SWAP2 SWAP1 POP JUMP JUMPDEST PUSH1 0x0 PUSH1 0x20 DUP3 ADD SWAP1 POP DUP2 DUP2 SUB PUSH1 0x0 DUP4 ADD MSTORE PUSH2 0x4B4D DUP2 PUSH2 0x4B11 JUMP JUMPDEST SWAP1 POP SWAP2 SWAP1 POP JUMP JUMPDEST PUSH1 0x0 PUSH1 0x80 DUP3 ADD SWAP1 POP PUSH2 0x4B69 PUSH1 0x0 DUP4 ADD DUP8 PUSH2 0x3526 JUMP JUMPDEST PUSH2 0x4B76 PUSH1 0x20 DUP4 ADD DUP7 PUSH2 0x3526 JUMP JUMPDEST PUSH2 0x4B83 PUSH1 0x40 DUP4 ADD DUP6 PUSH2 0x3526 JUMP JUMPDEST PUSH2 0x4B90 PUSH1 0x60 DUP4 ADD DUP5 PUSH2 0x38E6 JUMP JUMPDEST SWAP6 SWAP5 POP POP POP POP POP JUMP JUMPDEST PUSH32 0x5472616E73666572206661696C65640000000000000000000000000000000000 PUSH1 0x0 DUP3 ADD MSTORE POP JUMP JUMPDEST PUSH1 0x0 PUSH2 0x4BCF PUSH1 0xF DUP4 PUSH2 0x3409 JUMP JUMPDEST SWAP2 POP PUSH2 0x4BDA DUP3 PUSH2 0x4B99 JUMP JUMPDEST PUSH1 0x20 DUP3 ADD SWAP1 POP SWAP2 SWAP1 POP JUMP JUMPDEST PUSH1 0x0 PUSH1 0x20 DUP3 ADD SWAP1 POP DUP2 DUP2 SUB PUSH1 0x0 DUP4 ADD MSTORE PUSH2 0x4BFE DUP2 PUSH2 0x4BC2 JUMP JUMPDEST SWAP1 POP SWAP2 SWAP1 POP JUMP JUMPDEST PUSH1 0x0 PUSH1 0x20 DUP3 DUP5 SUB SLT ISZERO PUSH2 0x4C1B JUMPI PUSH2 0x4C1A PUSH2 0x3486 JUMP JUMPDEST JUMPDEST PUSH1 0x0 PUSH2 0x4C29 DUP5 DUP3 DUP6 ADD PUSH2 0x3DCD JUMP JUMPDEST SWAP2 POP POP SWAP3 SWAP2 POP POP JUMP JUMPDEST PUSH32 0x55534454207472616E73666572206661696C6564000000000000000000000000 PUSH1 0x0 DUP3 ADD MSTORE POP JUMP JUMPDEST PUSH1 0x0 PUSH2 0x4C68 PUSH1 0x14 DUP4 PUSH2 0x3409 JUMP JUMPDEST SWAP2 POP PUSH2 0x4C73 DUP3 PUSH2 0x4C32 JUMP JUMPDEST PUSH1 0x20 DUP3 ADD SWAP1 POP SWAP2 SWAP1 POP JUMP JUMPDEST PUSH1 0x0 PUSH1 0x20 DUP3 ADD SWAP1 POP DUP2 DUP2 SUB PUSH1 0x0 DUP4 ADD MSTORE PUSH2 0x4C97 DUP2 PUSH2 0x4C5B JUMP JUMPDEST SWAP1 POP SWAP2 SWAP1 POP JUMP JUMPDEST PUSH32 0x55534443207472616E73666572206661696C6564000000000000000000000000 PUSH1 0x0 DUP3 ADD MSTORE POP JUMP JUMPDEST PUSH1 0x0 PUSH2 0x4CD4 PUSH1 0x14 DUP4 PUSH2 0x3409 JUMP JUMPDEST SWAP2 POP PUSH2 0x4CDF DUP3 PUSH2 0x4C9E JUMP JUMPDEST PUSH1 0x20 DUP3 ADD SWAP1 POP SWAP2 SWAP1 POP JUMP JUMPDEST PUSH1 0x0 PUSH1 0x20 DUP3 ADD SWAP1 POP DUP2 DUP2 SUB PUSH1 0x0 DUP4 ADD MSTORE PUSH2 0x4D03 DUP2 PUSH2 0x4CC7 JUMP JUMPDEST SWAP1 POP SWAP2 SWAP1 POP JUMP INVALID LOG2 PUSH5 0x6970667358 0x22 SLT KECCAK256 0xB5 EXTCODESIZE SWAP7 0xE1 0x29 DUP15 SWAP10 0x23 CALLDATASIZE SGT 0xEC CALLER 0xCA 0xB4 0xAF 0xDC 0xA8 0xB1 0x4D DUP14 0x29 CALLER SELFBALANCE MULMOD SWAP6 DUP16 0xE7 0x1F 0x1E DUP7 DUP15 PUSH25 0x64736F6C634300081A00330000000000000000000000000000 "
		},
		"gasEstimates": {
			"creation": {
				"codeDepositCost": "3955200",
				"executionCost": "infinite",
				"totalCost": "infinite"
			},
			"external": {
				"_getPriceFeed(uint8)": "infinite",
				"airdropTokens()": "infinite",
				"allowImmediateFinalization()": "2610",
				"blacklistUser(address)": "infinite",
				"blacklistedUsers(address)": "2935",
				"buyTokens(uint8,uint256)": "infinite",
				"calculatePaymentAmount(uint8,uint256)": "infinite",
				"calculateTokenAmount(uint8,uint256)": "infinite",
				"contributionsInUSD(address)": "2881",
				"createSale(uint256,uint256,uint256)": "infinite",
				"finalizeICO()": "infinite",
				"getCurrentSaleId()": "infinite",
				"getHardCapReached()": "4642",
				"getInvestorCount()": "2579",
				"getSaleStartEndTime(uint256)": "infinite",
				"getSoftCapReached()": "4621",
				"hardCapInUSD()": "2562",
				"initiateRefund()": "infinite",
				"investorPayments(address,uint8)": "3073",
				"investors(uint256)": "5024",
				"isICOFinalized()": "2560",
				"isTokensAirdropped()": "2633",
				"owner()": "2568",
				"paymentMethodForInvestor(address)": "3067",
				"priceFeedBNB()": "infinite",
				"priceFeedUSDC()": "infinite",
				"priceFeedUSDT()": "infinite",
				"renounceOwnership()": "infinite",
				"saleCount()": "2496",
				"sales(uint256)": "infinite",
				"setAllowImmediateFinalization(uint256,bool)": "infinite",
				"softCapInUSD()": "2497",
				"token()": "infinite",
				"tokensBoughtByInvestor(address)": "2858",
				"totalFundsRaisedUSD()": "2540",
				"totalTokensSold()": "2474",
				"transferOwnership(address)": "infinite",
				"usdc()": "2560",
				"usdt()": "2648",
				"whitelistUser(address)": "infinite",
				"whitelistedUsers(address)": "2955"
			},
			"internal": {
				"_transferFundsToOwner()": "infinite",
				"getLatestSaleEndTime()": "infinite"
			}
		},
		"methodIdentifiers": {
			"_getPriceFeed(uint8)": "115afc3a",
			"airdropTokens()": "91152c5c",
			"allowImmediateFinalization()": "b1caefd8",
			"blacklistUser(address)": "fcbca456",
			"blacklistedUsers(address)": "22c0aec7",
			"buyTokens(uint8,uint256)": "940c333e",
			"calculatePaymentAmount(uint8,uint256)": "117d260f",
			"calculateTokenAmount(uint8,uint256)": "05834e67",
			"contributionsInUSD(address)": "c81ffdea",
			"createSale(uint256,uint256,uint256)": "6c1909ed",
			"finalizeICO()": "23cc75a8",
			"getCurrentSaleId()": "212ea247",
			"getHardCapReached()": "91d8730a",
			"getInvestorCount()": "960524e3",
			"getSaleStartEndTime(uint256)": "c211e1f9",
			"getSoftCapReached()": "06e4d36f",
			"hardCapInUSD()": "c1560a14",
			"initiateRefund()": "7fb12001",
			"investorPayments(address,uint8)": "efdcdb45",
			"investors(uint256)": "3feb5f2b",
			"isICOFinalized()": "d1f3b23e",
			"isTokensAirdropped()": "4dee1dc3",
			"owner()": "8da5cb5b",
			"paymentMethodForInvestor(address)": "df4e0593",
			"priceFeedBNB()": "99131e7e",
			"priceFeedUSDC()": "d3d9d1e4",
			"priceFeedUSDT()": "62a469e9",
			"renounceOwnership()": "715018a6",
			"saleCount()": "a1e89aec",
			"sales(uint256)": "b5f522f7",
			"setAllowImmediateFinalization(uint256,bool)": "1b152ac5",
			"softCapInUSD()": "2151206e",
			"token()": "fc0c546a",
			"tokensBoughtByInvestor(address)": "e8e87389",
			"totalFundsRaisedUSD()": "721bc38b",
			"totalTokensSold()": "63b20117",
			"transferOwnership(address)": "f2fde38b",
			"usdc()": "3e413bee",
			"usdt()": "2f48ab7d",
			"whitelistUser(address)": "4a4c560d",
			"whitelistedUsers(address)": "f621cc48"
		}
	},
	"abi": [
		{
			"inputs": [
				{
					"internalType": "contract icotoken",
					"name": "_token",
					"type": "address"
				},
				{
					"internalType": "address",
					"name": "_usdt",
					"type": "address"
				},
				{
					"internalType": "address",
					"name": "_usdc",
					"type": "address"
				},
				{
					"internalType": "uint256",
					"name": "_softCapInUSD",
					"type": "uint256"
				},
				{
					"internalType": "uint256",
					"name": "_hardCapInUSD",
					"type": "uint256"
				},
				{
					"internalType": "address",
					"name": "_priceFeedBNB",
					"type": "address"
				},
				{
					"internalType": "address",
					"name": "_priceFeedUSDT",
					"type": "address"
				},
				{
					"internalType": "address",
					"name": "_priceFeedUSDC",
					"type": "address"
				}
			],
			"stateMutability": "nonpayable",
			"type": "constructor"
		},
		{
			"inputs": [
				{
					"internalType": "address",
					"name": "owner",
					"type": "address"
				}
			],
			"name": "OwnableInvalidOwner",
			"type": "error"
		},
		{
			"inputs": [
				{
					"internalType": "address",
					"name": "account",
					"type": "address"
				}
			],
			"name": "OwnableUnauthorizedAccount",
			"type": "error"
		},
		{
			"inputs": [],
			"name": "ReentrancyGuardReentrantCall",
			"type": "error"
		},
		{
			"anonymous": false,
			"inputs": [
				{
					"indexed": true,
					"internalType": "address",
					"name": "account",
					"type": "address"
				}
			],
			"name": "Blacklisted",
			"type": "event"
		},
		{
			"anonymous": false,
			"inputs": [
				{
					"indexed": true,
					"internalType": "uint256",
					"name": "totalTokensSold",
					"type": "uint256"
				}
			],
			"name": "ICOFinalized",
			"type": "event"
		},
		{
			"anonymous": false,
			"inputs": [
				{
					"indexed": true,
					"internalType": "uint256",
					"name": "saleId",
					"type": "uint256"
				}
			],
			"name": "ImmediateFinalization",
			"type": "event"
		},
		{
			"anonymous": false,
			"inputs": [
				{
					"indexed": true,
					"internalType": "uint256",
					"name": "saleId",
					"type": "uint256"
				},
				{
					"indexed": false,
					"internalType": "uint256",
					"name": "startTime",
					"type": "uint256"
				},
				{
					"indexed": false,
					"internalType": "uint256",
					"name": "endTime",
					"type": "uint256"
				},
				{
					"indexed": false,
					"internalType": "uint256",
					"name": "tokenPriceUSD",
					"type": "uint256"
				}
			],
			"name": "NewSaleCreated",
			"type": "event"
		},
		{
			"anonymous": false,
			"inputs": [
				{
					"indexed": true,
					"internalType": "address",
					"name": "previousOwner",
					"type": "address"
				},
				{
					"indexed": true,
					"internalType": "address",
					"name": "newOwner",
					"type": "address"
				}
			],
			"name": "OwnershipTransferred",
			"type": "event"
		},
		{
			"anonymous": false,
			"inputs": [
				{
					"indexed": true,
					"internalType": "address",
					"name": "investor",
					"type": "address"
				},
				{
					"indexed": false,
					"internalType": "uint256",
					"name": "amount",
					"type": "uint256"
				},
				{
					"indexed": false,
					"internalType": "enum ICO.PaymentMethod",
					"name": "paymentMethod",
					"type": "uint8"
				}
			],
			"name": "RefundInitiated",
			"type": "event"
		},
		{
			"anonymous": false,
			"inputs": [
				{
					"indexed": true,
					"internalType": "address",
					"name": "investor",
					"type": "address"
				},
				{
					"indexed": false,
					"internalType": "uint256",
					"name": "airdroppedAmount",
					"type": "uint256"
				}
			],
			"name": "TokenAirdropped",
			"type": "event"
		},
		{
			"anonymous": false,
			"inputs": [
				{
					"indexed": true,
					"internalType": "address",
					"name": "buyer",
					"type": "address"
				},
				{
					"indexed": true,
					"internalType": "uint256",
					"name": "saleId",
					"type": "uint256"
				},
				{
					"indexed": false,
					"internalType": "uint256",
					"name": "tokenPurchaseAmount",
					"type": "uint256"
				},
				{
					"indexed": false,
					"internalType": "uint256",
					"name": "tokenPriceUSD",
					"type": "uint256"
				},
				{
					"indexed": false,
					"internalType": "uint256",
					"name": "amountPaid",
					"type": "uint256"
				},
				{
					"indexed": false,
					"internalType": "enum ICO.PaymentMethod",
					"name": "paymentMethod",
					"type": "uint8"
				}
			],
			"name": "TokensPurchased",
			"type": "event"
		},
		{
			"anonymous": false,
			"inputs": [
				{
					"indexed": true,
					"internalType": "address",
					"name": "account",
					"type": "address"
				}
			],
			"name": "Whitelisted",
			"type": "event"
		},
		{
			"inputs": [
				{
					"internalType": "enum ICO.PaymentMethod",
					"name": "paymentMethod",
					"type": "uint8"
				}
			],
			"name": "_getPriceFeed",
			"outputs": [
				{
					"internalType": "int256",
					"name": "",
					"type": "int256"
				}
			],
			"stateMutability": "view",
			"type": "function"
		},
		{
			"inputs": [],
			"name": "airdropTokens",
			"outputs": [],
			"stateMutability": "nonpayable",
			"type": "function"
		},
		{
			"inputs": [],
			"name": "allowImmediateFinalization",
			"outputs": [
				{
					"internalType": "bool",
					"name": "",
					"type": "bool"
				}
			],
			"stateMutability": "view",
			"type": "function"
		},
		{
			"inputs": [
				{
					"internalType": "address",
					"name": "_user",
					"type": "address"
				}
			],
			"name": "blacklistUser",
			"outputs": [],
			"stateMutability": "nonpayable",
			"type": "function"
		},
		{
			"inputs": [
				{
					"internalType": "address",
					"name": "",
					"type": "address"
				}
			],
			"name": "blacklistedUsers",
			"outputs": [
				{
					"internalType": "bool",
					"name": "",
					"type": "bool"
				}
			],
			"stateMutability": "view",
			"type": "function"
		},
		{
			"inputs": [
				{
					"internalType": "enum ICO.PaymentMethod",
					"name": "paymentMethod",
					"type": "uint8"
				},
				{
					"internalType": "uint256",
					"name": "paymentAmount",
					"type": "uint256"
				}
			],
			"name": "buyTokens",
			"outputs": [],
			"stateMutability": "payable",
			"type": "function"
		},
		{
			"inputs": [
				{
					"internalType": "enum ICO.PaymentMethod",
					"name": "paymentMethod",
					"type": "uint8"
				},
				{
					"internalType": "uint256",
					"name": "tokenAmount",
					"type": "uint256"
				}
			],
			"name": "calculatePaymentAmount",
			"outputs": [
				{
					"internalType": "uint256",
					"name": "",
					"type": "uint256"
				}
			],
			"stateMutability": "view",
			"type": "function"
		},
		{
			"inputs": [
				{
					"internalType": "enum ICO.PaymentMethod",
					"name": "paymentMethod",
					"type": "uint8"
				},
				{
					"internalType": "uint256",
					"name": "paymentAmount",
					"type": "uint256"
				}
			],
			"name": "calculateTokenAmount",
			"outputs": [
				{
					"internalType": "uint256",
					"name": "",
					"type": "uint256"
				}
			],
			"stateMutability": "view",
			"type": "function"
		},
		{
			"inputs": [
				{
					"internalType": "address",
					"name": "",
					"type": "address"
				}
			],
			"name": "contributionsInUSD",
			"outputs": [
				{
					"internalType": "uint256",
					"name": "",
					"type": "uint256"
				}
			],
			"stateMutability": "view",
			"type": "function"
		},
		{
			"inputs": [
				{
					"internalType": "uint256",
					"name": "_startTime",
					"type": "uint256"
				},
				{
					"internalType": "uint256",
					"name": "_endTime",
					"type": "uint256"
				},
				{
					"internalType": "uint256",
					"name": "_tokenPriceUSD",
					"type": "uint256"
				}
			],
			"name": "createSale",
			"outputs": [],
			"stateMutability": "nonpayable",
			"type": "function"
		},
		{
			"inputs": [],
			"name": "finalizeICO",
			"outputs": [],
			"stateMutability": "nonpayable",
			"type": "function"
		},
		{
			"inputs": [],
			"name": "getCurrentSaleId",
			"outputs": [
				{
					"internalType": "uint256",
					"name": "",
					"type": "uint256"
				}
			],
			"stateMutability": "view",
			"type": "function"
		},
		{
			"inputs": [],
			"name": "getHardCapReached",
			"outputs": [
				{
					"internalType": "bool",
					"name": "",
					"type": "bool"
				}
			],
			"stateMutability": "view",
			"type": "function"
		},
		{
			"inputs": [],
			"name": "getInvestorCount",
			"outputs": [
				{
					"internalType": "uint256",
					"name": "investorCount",
					"type": "uint256"
				}
			],
			"stateMutability": "view",
			"type": "function"
		},
		{
			"inputs": [
				{
					"internalType": "uint256",
					"name": "_saleId",
					"type": "uint256"
				}
			],
			"name": "getSaleStartEndTime",
			"outputs": [
				{
					"internalType": "uint256",
					"name": "_startTime",
					"type": "uint256"
				},
				{
					"internalType": "uint256",
					"name": "_endTime",
					"type": "uint256"
				}
			],
			"stateMutability": "view",
			"type": "function"
		},
		{
			"inputs": [],
			"name": "getSoftCapReached",
			"outputs": [
				{
					"internalType": "bool",
					"name": "",
					"type": "bool"
				}
			],
			"stateMutability": "view",
			"type": "function"
		},
		{
			"inputs": [],
			"name": "hardCapInUSD",
			"outputs": [
				{
					"internalType": "uint256",
					"name": "",
					"type": "uint256"
				}
			],
			"stateMutability": "view",
			"type": "function"
		},
		{
			"inputs": [],
			"name": "initiateRefund",
			"outputs": [],
			"stateMutability": "nonpayable",
			"type": "function"
		},
		{
			"inputs": [
				{
					"internalType": "address",
					"name": "",
					"type": "address"
				},
				{
					"internalType": "enum ICO.PaymentMethod",
					"name": "",
					"type": "uint8"
				}
			],
			"name": "investorPayments",
			"outputs": [
				{
					"internalType": "uint256",
					"name": "",
					"type": "uint256"
				}
			],
			"stateMutability": "view",
			"type": "function"
		},
		{
			"inputs": [
				{
					"internalType": "uint256",
					"name": "",
					"type": "uint256"
				}
			],
			"name": "investors",
			"outputs": [
				{
					"internalType": "address",
					"name": "",
					"type": "address"
				}
			],
			"stateMutability": "view",
			"type": "function"
		},
		{
			"inputs": [],
			"name": "isICOFinalized",
			"outputs": [
				{
					"internalType": "bool",
					"name": "",
					"type": "bool"
				}
			],
			"stateMutability": "view",
			"type": "function"
		},
		{
			"inputs": [],
			"name": "isTokensAirdropped",
			"outputs": [
				{
					"internalType": "bool",
					"name": "",
					"type": "bool"
				}
			],
			"stateMutability": "view",
			"type": "function"
		},
		{
			"inputs": [],
			"name": "owner",
			"outputs": [
				{
					"internalType": "address",
					"name": "",
					"type": "address"
				}
			],
			"stateMutability": "view",
			"type": "function"
		},
		{
			"inputs": [
				{
					"internalType": "address",
					"name": "",
					"type": "address"
				}
			],
			"name": "paymentMethodForInvestor",
			"outputs": [
				{
					"internalType": "enum ICO.PaymentMethod",
					"name": "",
					"type": "uint8"
				}
			],
			"stateMutability": "view",
			"type": "function"
		},
		{
			"inputs": [],
			"name": "priceFeedBNB",
			"outputs": [
				{
					"internalType": "contract AggregatorV3Interface",
					"name": "",
					"type": "address"
				}
			],
			"stateMutability": "view",
			"type": "function"
		},
		{
			"inputs": [],
			"name": "priceFeedUSDC",
			"outputs": [
				{
					"internalType": "contract AggregatorV3Interface",
					"name": "",
					"type": "address"
				}
			],
			"stateMutability": "view",
			"type": "function"
		},
		{
			"inputs": [],
			"name": "priceFeedUSDT",
			"outputs": [
				{
					"internalType": "contract AggregatorV3Interface",
					"name": "",
					"type": "address"
				}
			],
			"stateMutability": "view",
			"type": "function"
		},
		{
			"inputs": [],
			"name": "renounceOwnership",
			"outputs": [],
			"stateMutability": "nonpayable",
			"type": "function"
		},
		{
			"inputs": [],
			"name": "saleCount",
			"outputs": [
				{
					"internalType": "uint256",
					"name": "",
					"type": "uint256"
				}
			],
			"stateMutability": "view",
			"type": "function"
		},
		{
			"inputs": [
				{
					"internalType": "uint256",
					"name": "",
					"type": "uint256"
				}
			],
			"name": "sales",
			"outputs": [
				{
					"internalType": "uint256",
					"name": "startTime",
					"type": "uint256"
				},
				{
					"internalType": "uint256",
					"name": "endTime",
					"type": "uint256"
				},
				{
					"internalType": "uint256",
					"name": "tokenPriceUSD",
					"type": "uint256"
				},
				{
					"internalType": "uint256",
					"name": "tokensSold",
					"type": "uint256"
				},
				{
					"internalType": "bool",
					"name": "isFinalized",
					"type": "bool"
				}
			],
			"stateMutability": "view",
			"type": "function"
		},
		{
			"inputs": [
				{
					"internalType": "uint256",
					"name": "saleId",
					"type": "uint256"
				},
				{
					"internalType": "bool",
					"name": "_allow",
					"type": "bool"
				}
			],
			"name": "setAllowImmediateFinalization",
			"outputs": [],
			"stateMutability": "nonpayable",
			"type": "function"
		},
		{
			"inputs": [],
			"name": "softCapInUSD",
			"outputs": [
				{
					"internalType": "uint256",
					"name": "",
					"type": "uint256"
				}
			],
			"stateMutability": "view",
			"type": "function"
		},
		{
			"inputs": [],
			"name": "token",
			"outputs": [
				{
					"internalType": "contract icotoken",
					"name": "",
					"type": "address"
				}
			],
			"stateMutability": "view",
			"type": "function"
		},
		{
			"inputs": [
				{
					"internalType": "address",
					"name": "",
					"type": "address"
				}
			],
			"name": "tokensBoughtByInvestor",
			"outputs": [
				{
					"internalType": "uint256",
					"name": "",
					"type": "uint256"
				}
			],
			"stateMutability": "view",
			"type": "function"
		},
		{
			"inputs": [],
			"name": "totalFundsRaisedUSD",
			"outputs": [
				{
					"internalType": "uint256",
					"name": "",
					"type": "uint256"
				}
			],
			"stateMutability": "view",
			"type": "function"
		},
		{
			"inputs": [],
			"name": "totalTokensSold",
			"outputs": [
				{
					"internalType": "uint256",
					"name": "",
					"type": "uint256"
				}
			],
			"stateMutability": "view",
			"type": "function"
		},
		{
			"inputs": [
				{
					"internalType": "address",
					"name": "newOwner",
					"type": "address"
				}
			],
			"name": "transferOwnership",
			"outputs": [],
			"stateMutability": "nonpayable",
			"type": "function"
		},
		{
			"inputs": [],
			"name": "usdc",
			"outputs": [
				{
					"internalType": "address",
					"name": "",
					"type": "address"
				}
			],
			"stateMutability": "view",
			"type": "function"
		},
		{
			"inputs": [],
			"name": "usdt",
			"outputs": [
				{
					"internalType": "address",
					"name": "",
					"type": "address"
				}
			],
			"stateMutability": "view",
			"type": "function"
		},
		{
			"inputs": [
				{
					"internalType": "address",
					"name": "_user",
					"type": "address"
				}
			],
			"name": "whitelistUser",
			"outputs": [],
			"stateMutability": "nonpayable",
			"type": "function"
		},
		{
			"inputs": [
				{
					"internalType": "address",
					"name": "",
					"type": "address"
				}
			],
			"name": "whitelistedUsers",
			"outputs": [
				{
					"internalType": "bool",
					"name": "",
					"type": "bool"
				}
			],
			"stateMutability": "view",
			"type": "function"
		},
		{
			"stateMutability": "payable",
			"type": "receive"
		}
	]
}