{
	"Assignment 4 Tokens/ERC-20.sol": {
		"ERC20Basic": {
			"abi": [
				{
					"inputs": [],
					"stateMutability": "nonpayable",
					"type": "constructor"
				},
				{
					"anonymous": false,
					"inputs": [
						{
							"indexed": true,
							"internalType": "address",
							"name": "owner",
							"type": "address"
						},
						{
							"indexed": true,
							"internalType": "address",
							"name": "spender",
							"type": "address"
						},
						{
							"indexed": false,
							"internalType": "uint256",
							"name": "value",
							"type": "uint256"
						}
					],
					"name": "Approval",
					"type": "event"
				},
				{
					"anonymous": false,
					"inputs": [
						{
							"indexed": true,
							"internalType": "address",
							"name": "from",
							"type": "address"
						},
						{
							"indexed": true,
							"internalType": "address",
							"name": "to",
							"type": "address"
						},
						{
							"indexed": false,
							"internalType": "uint256",
							"name": "value",
							"type": "uint256"
						}
					],
					"name": "Transfer",
					"type": "event"
				},
				{
					"inputs": [
						{
							"internalType": "address",
							"name": "owner",
							"type": "address"
						},
						{
							"internalType": "address",
							"name": "delegate",
							"type": "address"
						}
					],
					"name": "allowance",
					"outputs": [
						{
							"internalType": "uint256",
							"name": "",
							"type": "uint256"
						}
					],
					"stateMutability": "view",
					"type": "function"
				},
				{
					"inputs": [
						{
							"internalType": "address",
							"name": "delegate",
							"type": "address"
						},
						{
							"internalType": "uint256",
							"name": "numTokens",
							"type": "uint256"
						}
					],
					"name": "approve",
					"outputs": [
						{
							"internalType": "bool",
							"name": "",
							"type": "bool"
						}
					],
					"stateMutability": "nonpayable",
					"type": "function"
				},
				{
					"inputs": [
						{
							"internalType": "address",
							"name": "tokenOwner",
							"type": "address"
						}
					],
					"name": "balanceOf",
					"outputs": [
						{
							"internalType": "uint256",
							"name": "",
							"type": "uint256"
						}
					],
					"stateMutability": "view",
					"type": "function"
				},
				{
					"inputs": [],
					"name": "decimals",
					"outputs": [
						{
							"internalType": "uint8",
							"name": "",
							"type": "uint8"
						}
					],
					"stateMutability": "view",
					"type": "function"
				},
				{
					"inputs": [],
					"name": "getcontractaddress",
					"outputs": [
						{
							"internalType": "address",
							"name": "",
							"type": "address"
						}
					],
					"stateMutability": "nonpayable",
					"type": "function"
				},
				{
					"inputs": [],
					"name": "name",
					"outputs": [
						{
							"internalType": "string",
							"name": "",
							"type": "string"
						}
					],
					"stateMutability": "view",
					"type": "function"
				},
				{
					"inputs": [],
					"name": "symbol",
					"outputs": [
						{
							"internalType": "string",
							"name": "",
							"type": "string"
						}
					],
					"stateMutability": "view",
					"type": "function"
				},
				{
					"inputs": [],
					"name": "totalSupply",
					"outputs": [
						{
							"internalType": "uint256",
							"name": "",
							"type": "uint256"
						}
					],
					"stateMutability": "view",
					"type": "function"
				},
				{
					"inputs": [
						{
							"internalType": "address",
							"name": "receiver",
							"type": "address"
						},
						{
							"internalType": "uint256",
							"name": "numTokens",
							"type": "uint256"
						}
					],
					"name": "transfer",
					"outputs": [
						{
							"internalType": "bool",
							"name": "",
							"type": "bool"
						}
					],
					"stateMutability": "nonpayable",
					"type": "function"
				},
				{
					"inputs": [
						{
							"internalType": "address",
							"name": "owner",
							"type": "address"
						},
						{
							"internalType": "address",
							"name": "buyer",
							"type": "address"
						},
						{
							"internalType": "uint256",
							"name": "numTokens",
							"type": "uint256"
						}
					],
					"name": "transferFrom",
					"outputs": [
						{
							"internalType": "bool",
							"name": "",
							"type": "bool"
						}
					],
					"stateMutability": "nonpayable",
					"type": "function"
				}
			],
			"devdoc": {
				"kind": "dev",
				"methods": {},
				"version": 1
			},
			"evm": {
				"assembly": "    /* \"Assignment 4 Tokens/ERC-20.sol\":747:2697  contract ERC20Basic is IERC20 {... */\n  mstore(0x40, 0x80)\n    /* \"Assignment 4 Tokens/ERC-20.sol\":1058:1066  10 ether */\n  0x8ac7230489e80000\n    /* \"Assignment 4 Tokens/ERC-20.sol\":1035:1066  uint256 totalSupply_ = 10 ether */\n  0x02\n  sstore\n    /* \"Assignment 4 Tokens/ERC-20.sol\":1076:1140  constructor() {... */\n  callvalue\n  dup1\n  iszero\n  tag_1\n  jumpi\n  0x00\n  dup1\n  revert\ntag_1:\n  pop\n    /* \"Assignment 4 Tokens/ERC-20.sol\":1120:1132  totalSupply_ */\n  sload(0x02)\n    /* \"Assignment 4 Tokens/ERC-20.sol\":1097:1105  balances */\n  0x00\n    /* \"Assignment 4 Tokens/ERC-20.sol\":1097:1117  balances[msg.sender] */\n  dup1\n    /* \"Assignment 4 Tokens/ERC-20.sol\":1106:1116  msg.sender */\n  caller\n    /* \"Assignment 4 Tokens/ERC-20.sol\":1097:1117  balances[msg.sender] */\n  0xffffffffffffffffffffffffffffffffffffffff\n  and\n  0xffffffffffffffffffffffffffffffffffffffff\n  and\n  dup2\n  mstore\n  0x20\n  add\n  swap1\n  dup2\n  mstore\n  0x20\n  add\n  0x00\n  keccak256\n    /* \"Assignment 4 Tokens/ERC-20.sol\":1097:1132  balances[msg.sender] = totalSupply_ */\n  dup2\n  swap1\n  sstore\n  pop\n    /* \"Assignment 4 Tokens/ERC-20.sol\":747:2697  contract ERC20Basic is IERC20 {... */\n  dataSize(sub_0)\n  dup1\n  dataOffset(sub_0)\n  0x00\n  codecopy\n  0x00\n  return\nstop\n\nsub_0: assembly {\n        /* \"Assignment 4 Tokens/ERC-20.sol\":747:2697  contract ERC20Basic is IERC20 {... */\n      mstore(0x40, 0x80)\n      callvalue\n      dup1\n      iszero\n      tag_1\n      jumpi\n      0x00\n      dup1\n      revert\n    tag_1:\n      pop\n      jumpi(tag_2, lt(calldatasize, 0x04))\n      shr(0xe0, calldataload(0x00))\n      dup1\n      0x313ce567\n      gt\n      tag_13\n      jumpi\n      dup1\n      0x313ce567\n      eq\n      tag_8\n      jumpi\n      dup1\n      0x70a08231\n      eq\n      tag_9\n      jumpi\n      dup1\n      0x95d89b41\n      eq\n      tag_10\n      jumpi\n      dup1\n      0xa9059cbb\n      eq\n      tag_11\n      jumpi\n      dup1\n      0xdd62ed3e\n      eq\n      tag_12\n      jumpi\n      jump(tag_2)\n    tag_13:\n      dup1\n      0x06fdde03\n      eq\n      tag_3\n      jumpi\n      dup1\n      0x095ea7b3\n      eq\n      tag_4\n      jumpi\n      dup1\n      0x15621373\n      eq\n      tag_5\n      jumpi\n      dup1\n      0x18160ddd\n      eq\n      tag_6\n      jumpi\n      dup1\n      0x23b872dd\n      eq\n      tag_7\n      jumpi\n    tag_2:\n      0x00\n      dup1\n      revert\n        /* \"Assignment 4 Tokens/ERC-20.sol\":786:828  string public constant name = \"ERC20Basic\" */\n    tag_3:\n      tag_14\n      tag_15\n      jump\t// in\n    tag_14:\n      mload(0x40)\n      tag_16\n      swap2\n      swap1\n      tag_17\n      jump\t// in\n    tag_16:\n      mload(0x40)\n      dup1\n      swap2\n      sub\n      swap1\n      return\n        /* \"Assignment 4 Tokens/ERC-20.sol\":1742:1966  function approve(address delegate, uint256 numTokens) public override returns (bool) {... */\n    tag_4:\n      tag_18\n      0x04\n      dup1\n      calldatasize\n      sub\n      dup2\n      add\n      swap1\n      tag_19\n      swap2\n      swap1\n      tag_20\n      jump\t// in\n    tag_19:\n      tag_21\n      jump\t// in\n    tag_18:\n      mload(0x40)\n      tag_22\n      swap2\n      swap1\n      tag_23\n      jump\t// in\n    tag_22:\n      mload(0x40)\n      dup1\n      swap2\n      sub\n      swap1\n      return\n        /* \"Assignment 4 Tokens/ERC-20.sol\":2602:2694  function getcontractaddress() public returns(address){... */\n    tag_5:\n      tag_24\n      tag_25\n      jump\t// in\n    tag_24:\n      mload(0x40)\n      tag_26\n      swap2\n      swap1\n      tag_27\n      jump\t// in\n    tag_26:\n      mload(0x40)\n      dup1\n      swap2\n      sub\n      swap1\n      return\n        /* \"Assignment 4 Tokens/ERC-20.sol\":1148:1244  function totalSupply() public override view returns (uint256) {... */\n    tag_6:\n      tag_28\n      tag_29\n      jump\t// in\n    tag_28:\n      mload(0x40)\n      tag_30\n      swap2\n      swap1\n      tag_31\n      jump\t// in\n    tag_30:\n      mload(0x40)\n      dup1\n      swap2\n      sub\n      swap1\n      return\n        /* \"Assignment 4 Tokens/ERC-20.sol\":2120:2594  function transferFrom(address owner, address buyer, uint256 numTokens) public override returns (bool) {... */\n    tag_7:\n      tag_32\n      0x04\n      dup1\n      calldatasize\n      sub\n      dup2\n      add\n      swap1\n      tag_33\n      swap2\n      swap1\n      tag_34\n      jump\t// in\n    tag_33:\n      tag_35\n      jump\t// in\n    tag_32:\n      mload(0x40)\n      tag_36\n      swap2\n      swap1\n      tag_23\n      jump\t// in\n    tag_36:\n      mload(0x40)\n      dup1\n      swap2\n      sub\n      swap1\n      return\n        /* \"Assignment 4 Tokens/ERC-20.sol\":879:914  uint8 public constant decimals = 18 */\n    tag_8:\n      tag_37\n      tag_38\n      jump\t// in\n    tag_37:\n      mload(0x40)\n      tag_39\n      swap2\n      swap1\n      tag_40\n      jump\t// in\n    tag_39:\n      mload(0x40)\n      dup1\n      swap2\n      sub\n      swap1\n      return\n        /* \"Assignment 4 Tokens/ERC-20.sol\":1252:1376  function balanceOf(address tokenOwner) public override view returns (uint256) {... */\n    tag_9:\n      tag_41\n      0x04\n      dup1\n      calldatasize\n      sub\n      dup2\n      add\n      swap1\n      tag_42\n      swap2\n      swap1\n      tag_43\n      jump\t// in\n    tag_42:\n      tag_44\n      jump\t// in\n    tag_41:\n      mload(0x40)\n      tag_45\n      swap2\n      swap1\n      tag_31\n      jump\t// in\n    tag_45:\n      mload(0x40)\n      dup1\n      swap2\n      sub\n      swap1\n      return\n        /* \"Assignment 4 Tokens/ERC-20.sol\":835:872  string public constant symbol = \"ERC\" */\n    tag_10:\n      tag_46\n      tag_47\n      jump\t// in\n    tag_46:\n      mload(0x40)\n      tag_48\n      swap2\n      swap1\n      tag_17\n      jump\t// in\n    tag_48:\n      mload(0x40)\n      dup1\n      swap2\n      sub\n      swap1\n      return\n        /* \"Assignment 4 Tokens/ERC-20.sol\":1384:1734  function transfer(address receiver, uint256 numTokens) public override returns (bool) {... */\n    tag_11:\n      tag_49\n      0x04\n      dup1\n      calldatasize\n      sub\n      dup2\n      add\n      swap1\n      tag_50\n      swap2\n      swap1\n      tag_20\n      jump\t// in\n    tag_50:\n      tag_51\n      jump\t// in\n    tag_49:\n      mload(0x40)\n      tag_52\n      swap2\n      swap1\n      tag_23\n      jump\t// in\n    tag_52:\n      mload(0x40)\n      dup1\n      swap2\n      sub\n      swap1\n      return\n        /* \"Assignment 4 Tokens/ERC-20.sol\":1974:2112  function allowance(address owner, address delegate) public override view returns (uint) {... */\n    tag_12:\n      tag_53\n      0x04\n      dup1\n      calldatasize\n      sub\n      dup2\n      add\n      swap1\n      tag_54\n      swap2\n      swap1\n      tag_55\n      jump\t// in\n    tag_54:\n      tag_56\n      jump\t// in\n    tag_53:\n      mload(0x40)\n      tag_57\n      swap2\n      swap1\n      tag_31\n      jump\t// in\n    tag_57:\n      mload(0x40)\n      dup1\n      swap2\n      sub\n      swap1\n      return\n        /* \"Assignment 4 Tokens/ERC-20.sol\":786:828  string public constant name = \"ERC20Basic\" */\n    tag_15:\n      mload(0x40)\n      dup1\n      0x40\n      add\n      0x40\n      mstore\n      dup1\n      0x0a\n      dup2\n      mstore\n      0x20\n      add\n      0x4552433230426173696300000000000000000000000000000000000000000000\n      dup2\n      mstore\n      pop\n      dup2\n      jump\t// out\n        /* \"Assignment 4 Tokens/ERC-20.sol\":1742:1966  function approve(address delegate, uint256 numTokens) public override returns (bool) {... */\n    tag_21:\n        /* \"Assignment 4 Tokens/ERC-20.sol\":1821:1825  bool */\n      0x00\n        /* \"Assignment 4 Tokens/ERC-20.sol\":1870:1879  numTokens */\n      dup2\n        /* \"Assignment 4 Tokens/ERC-20.sol\":1838:1845  allowed */\n      0x01\n        /* \"Assignment 4 Tokens/ERC-20.sol\":1838:1857  allowed[msg.sender] */\n      0x00\n        /* \"Assignment 4 Tokens/ERC-20.sol\":1846:1856  msg.sender */\n      caller\n        /* \"Assignment 4 Tokens/ERC-20.sol\":1838:1857  allowed[msg.sender] */\n      0xffffffffffffffffffffffffffffffffffffffff\n      and\n      0xffffffffffffffffffffffffffffffffffffffff\n      and\n      dup2\n      mstore\n      0x20\n      add\n      swap1\n      dup2\n      mstore\n      0x20\n      add\n      0x00\n      keccak256\n        /* \"Assignment 4 Tokens/ERC-20.sol\":1838:1867  allowed[msg.sender][delegate] */\n      0x00\n        /* \"Assignment 4 Tokens/ERC-20.sol\":1858:1866  delegate */\n      dup6\n        /* \"Assignment 4 Tokens/ERC-20.sol\":1838:1867  allowed[msg.sender][delegate] */\n      0xffffffffffffffffffffffffffffffffffffffff\n      and\n      0xffffffffffffffffffffffffffffffffffffffff\n      and\n      dup2\n      mstore\n      0x20\n      add\n      swap1\n      dup2\n      mstore\n      0x20\n      add\n      0x00\n      keccak256\n        /* \"Assignment 4 Tokens/ERC-20.sol\":1838:1879  allowed[msg.sender][delegate] = numTokens */\n      dup2\n      swap1\n      sstore\n      pop\n        /* \"Assignment 4 Tokens/ERC-20.sol\":1916:1924  delegate */\n      dup3\n        /* \"Assignment 4 Tokens/ERC-20.sol\":1895:1936  Approval(msg.sender, delegate, numTokens) */\n      0xffffffffffffffffffffffffffffffffffffffff\n      and\n        /* \"Assignment 4 Tokens/ERC-20.sol\":1904:1914  msg.sender */\n      caller\n        /* \"Assignment 4 Tokens/ERC-20.sol\":1895:1936  Approval(msg.sender, delegate, numTokens) */\n      0xffffffffffffffffffffffffffffffffffffffff\n      and\n      0x8c5be1e5ebec7d5bd14f71427d1e84f3dd0314c0f7b2291e5b200ac8c7c3b925\n        /* \"Assignment 4 Tokens/ERC-20.sol\":1926:1935  numTokens */\n      dup5\n        /* \"Assignment 4 Tokens/ERC-20.sol\":1895:1936  Approval(msg.sender, delegate, numTokens) */\n      mload(0x40)\n      tag_59\n      swap2\n      swap1\n      tag_31\n      jump\t// in\n    tag_59:\n      mload(0x40)\n      dup1\n      swap2\n      sub\n      swap1\n      log3\n        /* \"Assignment 4 Tokens/ERC-20.sol\":1954:1958  true */\n      0x01\n        /* \"Assignment 4 Tokens/ERC-20.sol\":1947:1958  return true */\n      swap1\n      pop\n        /* \"Assignment 4 Tokens/ERC-20.sol\":1742:1966  function approve(address delegate, uint256 numTokens) public override returns (bool) {... */\n      swap3\n      swap2\n      pop\n      pop\n      jump\t// out\n        /* \"Assignment 4 Tokens/ERC-20.sol\":2602:2694  function getcontractaddress() public returns(address){... */\n    tag_25:\n        /* \"Assignment 4 Tokens/ERC-20.sol\":2647:2654  address */\n      0x00\n        /* \"Assignment 4 Tokens/ERC-20.sol\":2679:2683  this */\n      address\n        /* \"Assignment 4 Tokens/ERC-20.sol\":2664:2684  return address(this) */\n      swap1\n      pop\n        /* \"Assignment 4 Tokens/ERC-20.sol\":2602:2694  function getcontractaddress() public returns(address){... */\n      swap1\n      jump\t// out\n        /* \"Assignment 4 Tokens/ERC-20.sol\":1148:1244  function totalSupply() public override view returns (uint256) {... */\n    tag_29:\n        /* \"Assignment 4 Tokens/ERC-20.sol\":1201:1208  uint256 */\n      0x00\n        /* \"Assignment 4 Tokens/ERC-20.sol\":1224:1236  totalSupply_ */\n      sload(0x02)\n        /* \"Assignment 4 Tokens/ERC-20.sol\":1217:1236  return totalSupply_ */\n      swap1\n      pop\n        /* \"Assignment 4 Tokens/ERC-20.sol\":1148:1244  function totalSupply() public override view returns (uint256) {... */\n      swap1\n      jump\t// out\n        /* \"Assignment 4 Tokens/ERC-20.sol\":2120:2594  function transferFrom(address owner, address buyer, uint256 numTokens) public override returns (bool) {... */\n    tag_35:\n        /* \"Assignment 4 Tokens/ERC-20.sol\":2216:2220  bool */\n      0x00\n        /* \"Assignment 4 Tokens/ERC-20.sol\":2254:2262  balances */\n      dup1\n        /* \"Assignment 4 Tokens/ERC-20.sol\":2254:2269  balances[owner] */\n      0x00\n        /* \"Assignment 4 Tokens/ERC-20.sol\":2263:2268  owner */\n      dup6\n        /* \"Assignment 4 Tokens/ERC-20.sol\":2254:2269  balances[owner] */\n      0xffffffffffffffffffffffffffffffffffffffff\n      and\n      0xffffffffffffffffffffffffffffffffffffffff\n      and\n      dup2\n      mstore\n      0x20\n      add\n      swap1\n      dup2\n      mstore\n      0x20\n      add\n      0x00\n      keccak256\n      sload\n        /* \"Assignment 4 Tokens/ERC-20.sol\":2241:2250  numTokens */\n      dup3\n        /* \"Assignment 4 Tokens/ERC-20.sol\":2241:2269  numTokens <= balances[owner] */\n      gt\n      iszero\n        /* \"Assignment 4 Tokens/ERC-20.sol\":2233:2270  require(numTokens <= balances[owner]) */\n      tag_63\n      jumpi\n      0x00\n      dup1\n      revert\n    tag_63:\n        /* \"Assignment 4 Tokens/ERC-20.sol\":2302:2309  allowed */\n      0x01\n        /* \"Assignment 4 Tokens/ERC-20.sol\":2302:2316  allowed[owner] */\n      0x00\n        /* \"Assignment 4 Tokens/ERC-20.sol\":2310:2315  owner */\n      dup6\n        /* \"Assignment 4 Tokens/ERC-20.sol\":2302:2316  allowed[owner] */\n      0xffffffffffffffffffffffffffffffffffffffff\n      and\n      0xffffffffffffffffffffffffffffffffffffffff\n      and\n      dup2\n      mstore\n      0x20\n      add\n      swap1\n      dup2\n      mstore\n      0x20\n      add\n      0x00\n      keccak256\n        /* \"Assignment 4 Tokens/ERC-20.sol\":2302:2328  allowed[owner][msg.sender] */\n      0x00\n        /* \"Assignment 4 Tokens/ERC-20.sol\":2317:2327  msg.sender */\n      caller\n        /* \"Assignment 4 Tokens/ERC-20.sol\":2302:2328  allowed[owner][msg.sender] */\n      0xffffffffffffffffffffffffffffffffffffffff\n      and\n      0xffffffffffffffffffffffffffffffffffffffff\n      and\n      dup2\n      mstore\n      0x20\n      add\n      swap1\n      dup2\n      mstore\n      0x20\n      add\n      0x00\n      keccak256\n      sload\n        /* \"Assignment 4 Tokens/ERC-20.sol\":2289:2298  numTokens */\n      dup3\n        /* \"Assignment 4 Tokens/ERC-20.sol\":2289:2328  numTokens <= allowed[owner][msg.sender] */\n      gt\n      iszero\n        /* \"Assignment 4 Tokens/ERC-20.sol\":2281:2329  require(numTokens <= allowed[owner][msg.sender]) */\n      tag_64\n      jumpi\n      0x00\n      dup1\n      revert\n    tag_64:\n        /* \"Assignment 4 Tokens/ERC-20.sol\":2376:2385  numTokens */\n      dup2\n        /* \"Assignment 4 Tokens/ERC-20.sol\":2360:2368  balances */\n      0x00\n        /* \"Assignment 4 Tokens/ERC-20.sol\":2360:2375  balances[owner] */\n      dup1\n        /* \"Assignment 4 Tokens/ERC-20.sol\":2369:2374  owner */\n      dup7\n        /* \"Assignment 4 Tokens/ERC-20.sol\":2360:2375  balances[owner] */\n      0xffffffffffffffffffffffffffffffffffffffff\n      and\n      0xffffffffffffffffffffffffffffffffffffffff\n      and\n      dup2\n      mstore\n      0x20\n      add\n      swap1\n      dup2\n      mstore\n      0x20\n      add\n      0x00\n      keccak256\n      sload\n        /* \"Assignment 4 Tokens/ERC-20.sol\":2360:2385  balances[owner]-numTokens */\n      tag_65\n      swap2\n      swap1\n      tag_66\n      jump\t// in\n    tag_65:\n        /* \"Assignment 4 Tokens/ERC-20.sol\":2342:2350  balances */\n      0x00\n        /* \"Assignment 4 Tokens/ERC-20.sol\":2342:2357  balances[owner] */\n      dup1\n        /* \"Assignment 4 Tokens/ERC-20.sol\":2351:2356  owner */\n      dup7\n        /* \"Assignment 4 Tokens/ERC-20.sol\":2342:2357  balances[owner] */\n      0xffffffffffffffffffffffffffffffffffffffff\n      and\n      0xffffffffffffffffffffffffffffffffffffffff\n      and\n      dup2\n      mstore\n      0x20\n      add\n      swap1\n      dup2\n      mstore\n      0x20\n      add\n      0x00\n      keccak256\n        /* \"Assignment 4 Tokens/ERC-20.sol\":2342:2385  balances[owner] = balances[owner]-numTokens */\n      dup2\n      swap1\n      sstore\n      pop\n        /* \"Assignment 4 Tokens/ERC-20.sol\":2452:2461  numTokens */\n      dup2\n        /* \"Assignment 4 Tokens/ERC-20.sol\":2425:2432  allowed */\n      0x01\n        /* \"Assignment 4 Tokens/ERC-20.sol\":2425:2439  allowed[owner] */\n      0x00\n        /* \"Assignment 4 Tokens/ERC-20.sol\":2433:2438  owner */\n      dup7\n        /* \"Assignment 4 Tokens/ERC-20.sol\":2425:2439  allowed[owner] */\n      0xffffffffffffffffffffffffffffffffffffffff\n      and\n      0xffffffffffffffffffffffffffffffffffffffff\n      and\n      dup2\n      mstore\n      0x20\n      add\n      swap1\n      dup2\n      mstore\n      0x20\n      add\n      0x00\n      keccak256\n        /* \"Assignment 4 Tokens/ERC-20.sol\":2425:2451  allowed[owner][msg.sender] */\n      0x00\n        /* \"Assignment 4 Tokens/ERC-20.sol\":2440:2450  msg.sender */\n      caller\n        /* \"Assignment 4 Tokens/ERC-20.sol\":2425:2451  allowed[owner][msg.sender] */\n      0xffffffffffffffffffffffffffffffffffffffff\n      and\n      0xffffffffffffffffffffffffffffffffffffffff\n      and\n      dup2\n      mstore\n      0x20\n      add\n      swap1\n      dup2\n      mstore\n      0x20\n      add\n      0x00\n      keccak256\n      sload\n        /* \"Assignment 4 Tokens/ERC-20.sol\":2425:2461  allowed[owner][msg.sender]-numTokens */\n      tag_67\n      swap2\n      swap1\n      tag_66\n      jump\t// in\n    tag_67:\n        /* \"Assignment 4 Tokens/ERC-20.sol\":2396:2403  allowed */\n      0x01\n        /* \"Assignment 4 Tokens/ERC-20.sol\":2396:2410  allowed[owner] */\n      0x00\n        /* \"Assignment 4 Tokens/ERC-20.sol\":2404:2409  owner */\n      dup7\n        /* \"Assignment 4 Tokens/ERC-20.sol\":2396:2410  allowed[owner] */\n      0xffffffffffffffffffffffffffffffffffffffff\n      and\n      0xffffffffffffffffffffffffffffffffffffffff\n      and\n      dup2\n      mstore\n      0x20\n      add\n      swap1\n      dup2\n      mstore\n      0x20\n      add\n      0x00\n      keccak256\n        /* \"Assignment 4 Tokens/ERC-20.sol\":2396:2422  allowed[owner][msg.sender] */\n      0x00\n        /* \"Assignment 4 Tokens/ERC-20.sol\":2411:2421  msg.sender */\n      caller\n        /* \"Assignment 4 Tokens/ERC-20.sol\":2396:2422  allowed[owner][msg.sender] */\n      0xffffffffffffffffffffffffffffffffffffffff\n      and\n      0xffffffffffffffffffffffffffffffffffffffff\n      and\n      dup2\n      mstore\n      0x20\n      add\n      swap1\n      dup2\n      mstore\n      0x20\n      add\n      0x00\n      keccak256\n        /* \"Assignment 4 Tokens/ERC-20.sol\":2396:2461  allowed[owner][msg.sender] = allowed[owner][msg.sender]-numTokens */\n      dup2\n      swap1\n      sstore\n      pop\n        /* \"Assignment 4 Tokens/ERC-20.sol\":2506:2515  numTokens */\n      dup2\n        /* \"Assignment 4 Tokens/ERC-20.sol\":2490:2498  balances */\n      0x00\n        /* \"Assignment 4 Tokens/ERC-20.sol\":2490:2505  balances[buyer] */\n      dup1\n        /* \"Assignment 4 Tokens/ERC-20.sol\":2499:2504  buyer */\n      dup6\n        /* \"Assignment 4 Tokens/ERC-20.sol\":2490:2505  balances[buyer] */\n      0xffffffffffffffffffffffffffffffffffffffff\n      and\n      0xffffffffffffffffffffffffffffffffffffffff\n      and\n      dup2\n      mstore\n      0x20\n      add\n      swap1\n      dup2\n      mstore\n      0x20\n      add\n      0x00\n      keccak256\n      sload\n        /* \"Assignment 4 Tokens/ERC-20.sol\":2490:2515  balances[buyer]+numTokens */\n      tag_68\n      swap2\n      swap1\n      tag_69\n      jump\t// in\n    tag_68:\n        /* \"Assignment 4 Tokens/ERC-20.sol\":2472:2480  balances */\n      0x00\n        /* \"Assignment 4 Tokens/ERC-20.sol\":2472:2487  balances[buyer] */\n      dup1\n        /* \"Assignment 4 Tokens/ERC-20.sol\":2481:2486  buyer */\n      dup6\n        /* \"Assignment 4 Tokens/ERC-20.sol\":2472:2487  balances[buyer] */\n      0xffffffffffffffffffffffffffffffffffffffff\n      and\n      0xffffffffffffffffffffffffffffffffffffffff\n      and\n      dup2\n      mstore\n      0x20\n      add\n      swap1\n      dup2\n      mstore\n      0x20\n      add\n      0x00\n      keccak256\n        /* \"Assignment 4 Tokens/ERC-20.sol\":2472:2515  balances[buyer] = balances[buyer]+numTokens */\n      dup2\n      swap1\n      sstore\n      pop\n        /* \"Assignment 4 Tokens/ERC-20.sol\":2547:2552  buyer */\n      dup3\n        /* \"Assignment 4 Tokens/ERC-20.sol\":2531:2564  Transfer(owner, buyer, numTokens) */\n      0xffffffffffffffffffffffffffffffffffffffff\n      and\n        /* \"Assignment 4 Tokens/ERC-20.sol\":2540:2545  owner */\n      dup5\n        /* \"Assignment 4 Tokens/ERC-20.sol\":2531:2564  Transfer(owner, buyer, numTokens) */\n      0xffffffffffffffffffffffffffffffffffffffff\n      and\n      0xddf252ad1be2c89b69c2b068fc378daa952ba7f163c4a11628f55a4df523b3ef\n        /* \"Assignment 4 Tokens/ERC-20.sol\":2554:2563  numTokens */\n      dup5\n        /* \"Assignment 4 Tokens/ERC-20.sol\":2531:2564  Transfer(owner, buyer, numTokens) */\n      mload(0x40)\n      tag_70\n      swap2\n      swap1\n      tag_31\n      jump\t// in\n    tag_70:\n      mload(0x40)\n      dup1\n      swap2\n      sub\n      swap1\n      log3\n        /* \"Assignment 4 Tokens/ERC-20.sol\":2582:2586  true */\n      0x01\n        /* \"Assignment 4 Tokens/ERC-20.sol\":2575:2586  return true */\n      swap1\n      pop\n        /* \"Assignment 4 Tokens/ERC-20.sol\":2120:2594  function transferFrom(address owner, address buyer, uint256 numTokens) public override returns (bool) {... */\n      swap4\n      swap3\n      pop\n      pop\n      pop\n      jump\t// out\n        /* \"Assignment 4 Tokens/ERC-20.sol\":879:914  uint8 public constant decimals = 18 */\n    tag_38:\n        /* \"Assignment 4 Tokens/ERC-20.sol\":912:914  18 */\n      0x12\n        /* \"Assignment 4 Tokens/ERC-20.sol\":879:914  uint8 public constant decimals = 18 */\n      dup2\n      jump\t// out\n        /* \"Assignment 4 Tokens/ERC-20.sol\":1252:1376  function balanceOf(address tokenOwner) public override view returns (uint256) {... */\n    tag_44:\n        /* \"Assignment 4 Tokens/ERC-20.sol\":1321:1328  uint256 */\n      0x00\n        /* \"Assignment 4 Tokens/ERC-20.sol\":1348:1356  balances */\n      dup1\n        /* \"Assignment 4 Tokens/ERC-20.sol\":1348:1368  balances[tokenOwner] */\n      0x00\n        /* \"Assignment 4 Tokens/ERC-20.sol\":1357:1367  tokenOwner */\n      dup4\n        /* \"Assignment 4 Tokens/ERC-20.sol\":1348:1368  balances[tokenOwner] */\n      0xffffffffffffffffffffffffffffffffffffffff\n      and\n      0xffffffffffffffffffffffffffffffffffffffff\n      and\n      dup2\n      mstore\n      0x20\n      add\n      swap1\n      dup2\n      mstore\n      0x20\n      add\n      0x00\n      keccak256\n      sload\n        /* \"Assignment 4 Tokens/ERC-20.sol\":1341:1368  return balances[tokenOwner] */\n      swap1\n      pop\n        /* \"Assignment 4 Tokens/ERC-20.sol\":1252:1376  function balanceOf(address tokenOwner) public override view returns (uint256) {... */\n      swap2\n      swap1\n      pop\n      jump\t// out\n        /* \"Assignment 4 Tokens/ERC-20.sol\":835:872  string public constant symbol = \"ERC\" */\n    tag_47:\n      mload(0x40)\n      dup1\n      0x40\n      add\n      0x40\n      mstore\n      dup1\n      0x03\n      dup2\n      mstore\n      0x20\n      add\n      0x4552430000000000000000000000000000000000000000000000000000000000\n      dup2\n      mstore\n      pop\n      dup2\n      jump\t// out\n        /* \"Assignment 4 Tokens/ERC-20.sol\":1384:1734  function transfer(address receiver, uint256 numTokens) public override returns (bool) {... */\n    tag_51:\n        /* \"Assignment 4 Tokens/ERC-20.sol\":1464:1468  bool */\n      0x00\n        /* \"Assignment 4 Tokens/ERC-20.sol\":1502:1510  balances */\n      dup1\n        /* \"Assignment 4 Tokens/ERC-20.sol\":1502:1522  balances[msg.sender] */\n      0x00\n        /* \"Assignment 4 Tokens/ERC-20.sol\":1511:1521  msg.sender */\n      caller\n        /* \"Assignment 4 Tokens/ERC-20.sol\":1502:1522  balances[msg.sender] */\n      0xffffffffffffffffffffffffffffffffffffffff\n      and\n      0xffffffffffffffffffffffffffffffffffffffff\n      and\n      dup2\n      mstore\n      0x20\n      add\n      swap1\n      dup2\n      mstore\n      0x20\n      add\n      0x00\n      keccak256\n      sload\n        /* \"Assignment 4 Tokens/ERC-20.sol\":1489:1498  numTokens */\n      dup3\n        /* \"Assignment 4 Tokens/ERC-20.sol\":1489:1522  numTokens <= balances[msg.sender] */\n      gt\n      iszero\n        /* \"Assignment 4 Tokens/ERC-20.sol\":1481:1523  require(numTokens <= balances[msg.sender]) */\n      tag_73\n      jumpi\n      0x00\n      dup1\n      revert\n    tag_73:\n        /* \"Assignment 4 Tokens/ERC-20.sol\":1578:1587  numTokens */\n      dup2\n        /* \"Assignment 4 Tokens/ERC-20.sol\":1557:1565  balances */\n      0x00\n        /* \"Assignment 4 Tokens/ERC-20.sol\":1557:1577  balances[msg.sender] */\n      dup1\n        /* \"Assignment 4 Tokens/ERC-20.sol\":1566:1576  msg.sender */\n      caller\n        /* \"Assignment 4 Tokens/ERC-20.sol\":1557:1577  balances[msg.sender] */\n      0xffffffffffffffffffffffffffffffffffffffff\n      and\n      0xffffffffffffffffffffffffffffffffffffffff\n      and\n      dup2\n      mstore\n      0x20\n      add\n      swap1\n      dup2\n      mstore\n      0x20\n      add\n      0x00\n      keccak256\n      sload\n        /* \"Assignment 4 Tokens/ERC-20.sol\":1557:1587  balances[msg.sender]-numTokens */\n      tag_74\n      swap2\n      swap1\n      tag_66\n      jump\t// in\n    tag_74:\n        /* \"Assignment 4 Tokens/ERC-20.sol\":1534:1542  balances */\n      0x00\n        /* \"Assignment 4 Tokens/ERC-20.sol\":1534:1554  balances[msg.sender] */\n      dup1\n        /* \"Assignment 4 Tokens/ERC-20.sol\":1543:1553  msg.sender */\n      caller\n        /* \"Assignment 4 Tokens/ERC-20.sol\":1534:1554  balances[msg.sender] */\n      0xffffffffffffffffffffffffffffffffffffffff\n      and\n      0xffffffffffffffffffffffffffffffffffffffff\n      and\n      dup2\n      mstore\n      0x20\n      add\n      swap1\n      dup2\n      mstore\n      0x20\n      add\n      0x00\n      keccak256\n        /* \"Assignment 4 Tokens/ERC-20.sol\":1534:1587  balances[msg.sender] = balances[msg.sender]-numTokens */\n      dup2\n      swap1\n      sstore\n      pop\n        /* \"Assignment 4 Tokens/ERC-20.sol\":1638:1647  numTokens */\n      dup2\n        /* \"Assignment 4 Tokens/ERC-20.sol\":1619:1627  balances */\n      0x00\n        /* \"Assignment 4 Tokens/ERC-20.sol\":1619:1637  balances[receiver] */\n      dup1\n        /* \"Assignment 4 Tokens/ERC-20.sol\":1628:1636  receiver */\n      dup6\n        /* \"Assignment 4 Tokens/ERC-20.sol\":1619:1637  balances[receiver] */\n      0xffffffffffffffffffffffffffffffffffffffff\n      and\n      0xffffffffffffffffffffffffffffffffffffffff\n      and\n      dup2\n      mstore\n      0x20\n      add\n      swap1\n      dup2\n      mstore\n      0x20\n      add\n      0x00\n      keccak256\n      sload\n        /* \"Assignment 4 Tokens/ERC-20.sol\":1619:1647  balances[receiver]+numTokens */\n      tag_75\n      swap2\n      swap1\n      tag_69\n      jump\t// in\n    tag_75:\n        /* \"Assignment 4 Tokens/ERC-20.sol\":1598:1606  balances */\n      0x00\n        /* \"Assignment 4 Tokens/ERC-20.sol\":1598:1616  balances[receiver] */\n      dup1\n        /* \"Assignment 4 Tokens/ERC-20.sol\":1607:1615  receiver */\n      dup6\n        /* \"Assignment 4 Tokens/ERC-20.sol\":1598:1616  balances[receiver] */\n      0xffffffffffffffffffffffffffffffffffffffff\n      and\n      0xffffffffffffffffffffffffffffffffffffffff\n      and\n      dup2\n      mstore\n      0x20\n      add\n      swap1\n      dup2\n      mstore\n      0x20\n      add\n      0x00\n      keccak256\n        /* \"Assignment 4 Tokens/ERC-20.sol\":1598:1647  balances[receiver] = balances[receiver]+numTokens */\n      dup2\n      swap1\n      sstore\n      pop\n        /* \"Assignment 4 Tokens/ERC-20.sol\":1684:1692  receiver */\n      dup3\n        /* \"Assignment 4 Tokens/ERC-20.sol\":1663:1704  Transfer(msg.sender, receiver, numTokens) */\n      0xffffffffffffffffffffffffffffffffffffffff\n      and\n        /* \"Assignment 4 Tokens/ERC-20.sol\":1672:1682  msg.sender */\n      caller\n        /* \"Assignment 4 Tokens/ERC-20.sol\":1663:1704  Transfer(msg.sender, receiver, numTokens) */\n      0xffffffffffffffffffffffffffffffffffffffff\n      and\n      0xddf252ad1be2c89b69c2b068fc378daa952ba7f163c4a11628f55a4df523b3ef\n        /* \"Assignment 4 Tokens/ERC-20.sol\":1694:1703  numTokens */\n      dup5\n        /* \"Assignment 4 Tokens/ERC-20.sol\":1663:1704  Transfer(msg.sender, receiver, numTokens) */\n      mload(0x40)\n      tag_76\n      swap2\n      swap1\n      tag_31\n      jump\t// in\n    tag_76:\n      mload(0x40)\n      dup1\n      swap2\n      sub\n      swap1\n      log3\n        /* \"Assignment 4 Tokens/ERC-20.sol\":1722:1726  true */\n      0x01\n        /* \"Assignment 4 Tokens/ERC-20.sol\":1715:1726  return true */\n      swap1\n      pop\n        /* \"Assignment 4 Tokens/ERC-20.sol\":1384:1734  function transfer(address receiver, uint256 numTokens) public override returns (bool) {... */\n      swap3\n      swap2\n      pop\n      pop\n      jump\t// out\n        /* \"Assignment 4 Tokens/ERC-20.sol\":1974:2112  function allowance(address owner, address delegate) public override view returns (uint) {... */\n    tag_56:\n        /* \"Assignment 4 Tokens/ERC-20.sol\":2056:2060  uint */\n      0x00\n        /* \"Assignment 4 Tokens/ERC-20.sol\":2080:2087  allowed */\n      0x01\n        /* \"Assignment 4 Tokens/ERC-20.sol\":2080:2094  allowed[owner] */\n      0x00\n        /* \"Assignment 4 Tokens/ERC-20.sol\":2088:2093  owner */\n      dup5\n        /* \"Assignment 4 Tokens/ERC-20.sol\":2080:2094  allowed[owner] */\n      0xffffffffffffffffffffffffffffffffffffffff\n      and\n      0xffffffffffffffffffffffffffffffffffffffff\n      and\n      dup2\n      mstore\n      0x20\n      add\n      swap1\n      dup2\n      mstore\n      0x20\n      add\n      0x00\n      keccak256\n        /* \"Assignment 4 Tokens/ERC-20.sol\":2080:2104  allowed[owner][delegate] */\n      0x00\n        /* \"Assignment 4 Tokens/ERC-20.sol\":2095:2103  delegate */\n      dup4\n        /* \"Assignment 4 Tokens/ERC-20.sol\":2080:2104  allowed[owner][delegate] */\n      0xffffffffffffffffffffffffffffffffffffffff\n      and\n      0xffffffffffffffffffffffffffffffffffffffff\n      and\n      dup2\n      mstore\n      0x20\n      add\n      swap1\n      dup2\n      mstore\n      0x20\n      add\n      0x00\n      keccak256\n      sload\n        /* \"Assignment 4 Tokens/ERC-20.sol\":2073:2104  return allowed[owner][delegate] */\n      swap1\n      pop\n        /* \"Assignment 4 Tokens/ERC-20.sol\":1974:2112  function allowance(address owner, address delegate) public override view returns (uint) {... */\n      swap3\n      swap2\n      pop\n      pop\n      jump\t// out\n        /* \"#utility.yul\":7:106   */\n    tag_78:\n        /* \"#utility.yul\":59:65   */\n      0x00\n        /* \"#utility.yul\":93:98   */\n      dup2\n        /* \"#utility.yul\":87:99   */\n      mload\n        /* \"#utility.yul\":77:99   */\n      swap1\n      pop\n        /* \"#utility.yul\":7:106   */\n      swap2\n      swap1\n      pop\n      jump\t// out\n        /* \"#utility.yul\":112:281   */\n    tag_79:\n        /* \"#utility.yul\":196:207   */\n      0x00\n        /* \"#utility.yul\":230:236   */\n      dup3\n        /* \"#utility.yul\":225:228   */\n      dup3\n        /* \"#utility.yul\":218:237   */\n      mstore\n        /* \"#utility.yul\":270:274   */\n      0x20\n        /* \"#utility.yul\":265:268   */\n      dup3\n        /* \"#utility.yul\":261:275   */\n      add\n        /* \"#utility.yul\":246:275   */\n      swap1\n      pop\n        /* \"#utility.yul\":112:281   */\n      swap3\n      swap2\n      pop\n      pop\n      jump\t// out\n        /* \"#utility.yul\":287:533   */\n    tag_80:\n        /* \"#utility.yul\":368:369   */\n      0x00\n        /* \"#utility.yul\":378:491   */\n    tag_104:\n        /* \"#utility.yul\":392:398   */\n      dup4\n        /* \"#utility.yul\":389:390   */\n      dup2\n        /* \"#utility.yul\":386:399   */\n      lt\n        /* \"#utility.yul\":378:491   */\n      iszero\n      tag_106\n      jumpi\n        /* \"#utility.yul\":477:478   */\n      dup1\n        /* \"#utility.yul\":472:475   */\n      dup3\n        /* \"#utility.yul\":468:479   */\n      add\n        /* \"#utility.yul\":462:480   */\n      mload\n        /* \"#utility.yul\":458:459   */\n      dup2\n        /* \"#utility.yul\":453:456   */\n      dup5\n        /* \"#utility.yul\":449:460   */\n      add\n        /* \"#utility.yul\":442:481   */\n      mstore\n        /* \"#utility.yul\":414:416   */\n      0x20\n        /* \"#utility.yul\":411:412   */\n      dup2\n        /* \"#utility.yul\":407:417   */\n      add\n        /* \"#utility.yul\":402:417   */\n      swap1\n      pop\n        /* \"#utility.yul\":378:491   */\n      jump(tag_104)\n    tag_106:\n        /* \"#utility.yul\":525:526   */\n      0x00\n        /* \"#utility.yul\":516:522   */\n      dup5\n        /* \"#utility.yul\":511:514   */\n      dup5\n        /* \"#utility.yul\":507:523   */\n      add\n        /* \"#utility.yul\":500:527   */\n      mstore\n        /* \"#utility.yul\":349:533   */\n      pop\n        /* \"#utility.yul\":287:533   */\n      pop\n      pop\n      pop\n      jump\t// out\n        /* \"#utility.yul\":539:641   */\n    tag_81:\n        /* \"#utility.yul\":580:586   */\n      0x00\n        /* \"#utility.yul\":631:633   */\n      0x1f\n        /* \"#utility.yul\":627:634   */\n      not\n        /* \"#utility.yul\":622:624   */\n      0x1f\n        /* \"#utility.yul\":615:620   */\n      dup4\n        /* \"#utility.yul\":611:625   */\n      add\n        /* \"#utility.yul\":607:635   */\n      and\n        /* \"#utility.yul\":597:635   */\n      swap1\n      pop\n        /* \"#utility.yul\":539:641   */\n      swap2\n      swap1\n      pop\n      jump\t// out\n        /* \"#utility.yul\":647:1024   */\n    tag_82:\n        /* \"#utility.yul\":735:738   */\n      0x00\n        /* \"#utility.yul\":763:802   */\n      tag_109\n        /* \"#utility.yul\":796:801   */\n      dup3\n        /* \"#utility.yul\":763:802   */\n      tag_78\n      jump\t// in\n    tag_109:\n        /* \"#utility.yul\":818:889   */\n      tag_110\n        /* \"#utility.yul\":882:888   */\n      dup2\n        /* \"#utility.yul\":877:880   */\n      dup6\n        /* \"#utility.yul\":818:889   */\n      tag_79\n      jump\t// in\n    tag_110:\n        /* \"#utility.yul\":811:889   */\n      swap4\n      pop\n        /* \"#utility.yul\":898:963   */\n      tag_111\n        /* \"#utility.yul\":956:962   */\n      dup2\n        /* \"#utility.yul\":951:954   */\n      dup6\n        /* \"#utility.yul\":944:948   */\n      0x20\n        /* \"#utility.yul\":937:942   */\n      dup7\n        /* \"#utility.yul\":933:949   */\n      add\n        /* \"#utility.yul\":898:963   */\n      tag_80\n      jump\t// in\n    tag_111:\n        /* \"#utility.yul\":988:1017   */\n      tag_112\n        /* \"#utility.yul\":1010:1016   */\n      dup2\n        /* \"#utility.yul\":988:1017   */\n      tag_81\n      jump\t// in\n    tag_112:\n        /* \"#utility.yul\":983:986   */\n      dup5\n        /* \"#utility.yul\":979:1018   */\n      add\n        /* \"#utility.yul\":972:1018   */\n      swap2\n      pop\n        /* \"#utility.yul\":739:1024   */\n      pop\n        /* \"#utility.yul\":647:1024   */\n      swap3\n      swap2\n      pop\n      pop\n      jump\t// out\n        /* \"#utility.yul\":1030:1343   */\n    tag_17:\n        /* \"#utility.yul\":1143:1147   */\n      0x00\n        /* \"#utility.yul\":1181:1183   */\n      0x20\n        /* \"#utility.yul\":1170:1179   */\n      dup3\n        /* \"#utility.yul\":1166:1184   */\n      add\n        /* \"#utility.yul\":1158:1184   */\n      swap1\n      pop\n        /* \"#utility.yul\":1230:1239   */\n      dup2\n        /* \"#utility.yul\":1224:1228   */\n      dup2\n        /* \"#utility.yul\":1220:1240   */\n      sub\n        /* \"#utility.yul\":1216:1217   */\n      0x00\n        /* \"#utility.yul\":1205:1214   */\n      dup4\n        /* \"#utility.yul\":1201:1218   */\n      add\n        /* \"#utility.yul\":1194:1241   */\n      mstore\n        /* \"#utility.yul\":1258:1336   */\n      tag_114\n        /* \"#utility.yul\":1331:1335   */\n      dup2\n        /* \"#utility.yul\":1322:1328   */\n      dup5\n        /* \"#utility.yul\":1258:1336   */\n      tag_82\n      jump\t// in\n    tag_114:\n        /* \"#utility.yul\":1250:1336   */\n      swap1\n      pop\n        /* \"#utility.yul\":1030:1343   */\n      swap3\n      swap2\n      pop\n      pop\n      jump\t// out\n        /* \"#utility.yul\":1430:1547   */\n    tag_84:\n        /* \"#utility.yul\":1539:1540   */\n      0x00\n        /* \"#utility.yul\":1536:1537   */\n      dup1\n        /* \"#utility.yul\":1529:1541   */\n      revert\n        /* \"#utility.yul\":1676:1802   */\n    tag_86:\n        /* \"#utility.yul\":1713:1720   */\n      0x00\n        /* \"#utility.yul\":1753:1795   */\n      0xffffffffffffffffffffffffffffffffffffffff\n        /* \"#utility.yul\":1746:1751   */\n      dup3\n        /* \"#utility.yul\":1742:1796   */\n      and\n        /* \"#utility.yul\":1731:1796   */\n      swap1\n      pop\n        /* \"#utility.yul\":1676:1802   */\n      swap2\n      swap1\n      pop\n      jump\t// out\n        /* \"#utility.yul\":1808:1904   */\n    tag_87:\n        /* \"#utility.yul\":1845:1852   */\n      0x00\n        /* \"#utility.yul\":1874:1898   */\n      tag_120\n        /* \"#utility.yul\":1892:1897   */\n      dup3\n        /* \"#utility.yul\":1874:1898   */\n      tag_86\n      jump\t// in\n    tag_120:\n        /* \"#utility.yul\":1863:1898   */\n      swap1\n      pop\n        /* \"#utility.yul\":1808:1904   */\n      swap2\n      swap1\n      pop\n      jump\t// out\n        /* \"#utility.yul\":1910:2032   */\n    tag_88:\n        /* \"#utility.yul\":1983:2007   */\n      tag_122\n        /* \"#utility.yul\":2001:2006   */\n      dup2\n        /* \"#utility.yul\":1983:2007   */\n      tag_87\n      jump\t// in\n    tag_122:\n        /* \"#utility.yul\":1976:1981   */\n      dup2\n        /* \"#utility.yul\":1973:2008   */\n      eq\n        /* \"#utility.yul\":1963:2026   */\n      tag_123\n      jumpi\n        /* \"#utility.yul\":2022:2023   */\n      0x00\n        /* \"#utility.yul\":2019:2020   */\n      dup1\n        /* \"#utility.yul\":2012:2024   */\n      revert\n        /* \"#utility.yul\":1963:2026   */\n    tag_123:\n        /* \"#utility.yul\":1910:2032   */\n      pop\n      jump\t// out\n        /* \"#utility.yul\":2038:2177   */\n    tag_89:\n        /* \"#utility.yul\":2084:2089   */\n      0x00\n        /* \"#utility.yul\":2122:2128   */\n      dup2\n        /* \"#utility.yul\":2109:2129   */\n      calldataload\n        /* \"#utility.yul\":2100:2129   */\n      swap1\n      pop\n        /* \"#utility.yul\":2138:2171   */\n      tag_125\n        /* \"#utility.yul\":2165:2170   */\n      dup2\n        /* \"#utility.yul\":2138:2171   */\n      tag_88\n      jump\t// in\n    tag_125:\n        /* \"#utility.yul\":2038:2177   */\n      swap3\n      swap2\n      pop\n      pop\n      jump\t// out\n        /* \"#utility.yul\":2183:2260   */\n    tag_90:\n        /* \"#utility.yul\":2220:2227   */\n      0x00\n        /* \"#utility.yul\":2249:2254   */\n      dup2\n        /* \"#utility.yul\":2238:2254   */\n      swap1\n      pop\n        /* \"#utility.yul\":2183:2260   */\n      swap2\n      swap1\n      pop\n      jump\t// out\n        /* \"#utility.yul\":2266:2388   */\n    tag_91:\n        /* \"#utility.yul\":2339:2363   */\n      tag_128\n        /* \"#utility.yul\":2357:2362   */\n      dup2\n        /* \"#utility.yul\":2339:2363   */\n      tag_90\n      jump\t// in\n    tag_128:\n        /* \"#utility.yul\":2332:2337   */\n      dup2\n        /* \"#utility.yul\":2329:2364   */\n      eq\n        /* \"#utility.yul\":2319:2382   */\n      tag_129\n      jumpi\n        /* \"#utility.yul\":2378:2379   */\n      0x00\n        /* \"#utility.yul\":2375:2376   */\n      dup1\n        /* \"#utility.yul\":2368:2380   */\n      revert\n        /* \"#utility.yul\":2319:2382   */\n    tag_129:\n        /* \"#utility.yul\":2266:2388   */\n      pop\n      jump\t// out\n        /* \"#utility.yul\":2394:2533   */\n    tag_92:\n        /* \"#utility.yul\":2440:2445   */\n      0x00\n        /* \"#utility.yul\":2478:2484   */\n      dup2\n        /* \"#utility.yul\":2465:2485   */\n      calldataload\n        /* \"#utility.yul\":2456:2485   */\n      swap1\n      pop\n        /* \"#utility.yul\":2494:2527   */\n      tag_131\n        /* \"#utility.yul\":2521:2526   */\n      dup2\n        /* \"#utility.yul\":2494:2527   */\n      tag_91\n      jump\t// in\n    tag_131:\n        /* \"#utility.yul\":2394:2533   */\n      swap3\n      swap2\n      pop\n      pop\n      jump\t// out\n        /* \"#utility.yul\":2539:3013   */\n    tag_20:\n        /* \"#utility.yul\":2607:2613   */\n      0x00\n        /* \"#utility.yul\":2615:2621   */\n      dup1\n        /* \"#utility.yul\":2664:2666   */\n      0x40\n        /* \"#utility.yul\":2652:2661   */\n      dup4\n        /* \"#utility.yul\":2643:2650   */\n      dup6\n        /* \"#utility.yul\":2639:2662   */\n      sub\n        /* \"#utility.yul\":2635:2667   */\n      slt\n        /* \"#utility.yul\":2632:2751   */\n      iszero\n      tag_133\n      jumpi\n        /* \"#utility.yul\":2670:2749   */\n      tag_134\n      tag_84\n      jump\t// in\n    tag_134:\n        /* \"#utility.yul\":2632:2751   */\n    tag_133:\n        /* \"#utility.yul\":2790:2791   */\n      0x00\n        /* \"#utility.yul\":2815:2868   */\n      tag_135\n        /* \"#utility.yul\":2860:2867   */\n      dup6\n        /* \"#utility.yul\":2851:2857   */\n      dup3\n        /* \"#utility.yul\":2840:2849   */\n      dup7\n        /* \"#utility.yul\":2836:2858   */\n      add\n        /* \"#utility.yul\":2815:2868   */\n      tag_89\n      jump\t// in\n    tag_135:\n        /* \"#utility.yul\":2805:2868   */\n      swap3\n      pop\n        /* \"#utility.yul\":2761:2878   */\n      pop\n        /* \"#utility.yul\":2917:2919   */\n      0x20\n        /* \"#utility.yul\":2943:2996   */\n      tag_136\n        /* \"#utility.yul\":2988:2995   */\n      dup6\n        /* \"#utility.yul\":2979:2985   */\n      dup3\n        /* \"#utility.yul\":2968:2977   */\n      dup7\n        /* \"#utility.yul\":2964:2986   */\n      add\n        /* \"#utility.yul\":2943:2996   */\n      tag_92\n      jump\t// in\n    tag_136:\n        /* \"#utility.yul\":2933:2996   */\n      swap2\n      pop\n        /* \"#utility.yul\":2888:3006   */\n      pop\n        /* \"#utility.yul\":2539:3013   */\n      swap3\n      pop\n      swap3\n      swap1\n      pop\n      jump\t// out\n        /* \"#utility.yul\":3019:3109   */\n    tag_93:\n        /* \"#utility.yul\":3053:3060   */\n      0x00\n        /* \"#utility.yul\":3096:3101   */\n      dup2\n        /* \"#utility.yul\":3089:3102   */\n      iszero\n        /* \"#utility.yul\":3082:3103   */\n      iszero\n        /* \"#utility.yul\":3071:3103   */\n      swap1\n      pop\n        /* \"#utility.yul\":3019:3109   */\n      swap2\n      swap1\n      pop\n      jump\t// out\n        /* \"#utility.yul\":3115:3224   */\n    tag_94:\n        /* \"#utility.yul\":3196:3217   */\n      tag_139\n        /* \"#utility.yul\":3211:3216   */\n      dup2\n        /* \"#utility.yul\":3196:3217   */\n      tag_93\n      jump\t// in\n    tag_139:\n        /* \"#utility.yul\":3191:3194   */\n      dup3\n        /* \"#utility.yul\":3184:3218   */\n      mstore\n        /* \"#utility.yul\":3115:3224   */\n      pop\n      pop\n      jump\t// out\n        /* \"#utility.yul\":3230:3440   */\n    tag_23:\n        /* \"#utility.yul\":3317:3321   */\n      0x00\n        /* \"#utility.yul\":3355:3357   */\n      0x20\n        /* \"#utility.yul\":3344:3353   */\n      dup3\n        /* \"#utility.yul\":3340:3358   */\n      add\n        /* \"#utility.yul\":3332:3358   */\n      swap1\n      pop\n        /* \"#utility.yul\":3368:3433   */\n      tag_141\n        /* \"#utility.yul\":3430:3431   */\n      0x00\n        /* \"#utility.yul\":3419:3428   */\n      dup4\n        /* \"#utility.yul\":3415:3432   */\n      add\n        /* \"#utility.yul\":3406:3412   */\n      dup5\n        /* \"#utility.yul\":3368:3433   */\n      tag_94\n      jump\t// in\n    tag_141:\n        /* \"#utility.yul\":3230:3440   */\n      swap3\n      swap2\n      pop\n      pop\n      jump\t// out\n        /* \"#utility.yul\":3446:3564   */\n    tag_95:\n        /* \"#utility.yul\":3533:3557   */\n      tag_143\n        /* \"#utility.yul\":3551:3556   */\n      dup2\n        /* \"#utility.yul\":3533:3557   */\n      tag_87\n      jump\t// in\n    tag_143:\n        /* \"#utility.yul\":3528:3531   */\n      dup3\n        /* \"#utility.yul\":3521:3558   */\n      mstore\n        /* \"#utility.yul\":3446:3564   */\n      pop\n      pop\n      jump\t// out\n        /* \"#utility.yul\":3570:3792   */\n    tag_27:\n        /* \"#utility.yul\":3663:3667   */\n      0x00\n        /* \"#utility.yul\":3701:3703   */\n      0x20\n        /* \"#utility.yul\":3690:3699   */\n      dup3\n        /* \"#utility.yul\":3686:3704   */\n      add\n        /* \"#utility.yul\":3678:3704   */\n      swap1\n      pop\n        /* \"#utility.yul\":3714:3785   */\n      tag_145\n        /* \"#utility.yul\":3782:3783   */\n      0x00\n        /* \"#utility.yul\":3771:3780   */\n      dup4\n        /* \"#utility.yul\":3767:3784   */\n      add\n        /* \"#utility.yul\":3758:3764   */\n      dup5\n        /* \"#utility.yul\":3714:3785   */\n      tag_95\n      jump\t// in\n    tag_145:\n        /* \"#utility.yul\":3570:3792   */\n      swap3\n      swap2\n      pop\n      pop\n      jump\t// out\n        /* \"#utility.yul\":3798:3916   */\n    tag_96:\n        /* \"#utility.yul\":3885:3909   */\n      tag_147\n        /* \"#utility.yul\":3903:3908   */\n      dup2\n        /* \"#utility.yul\":3885:3909   */\n      tag_90\n      jump\t// in\n    tag_147:\n        /* \"#utility.yul\":3880:3883   */\n      dup3\n        /* \"#utility.yul\":3873:3910   */\n      mstore\n        /* \"#utility.yul\":3798:3916   */\n      pop\n      pop\n      jump\t// out\n        /* \"#utility.yul\":3922:4144   */\n    tag_31:\n        /* \"#utility.yul\":4015:4019   */\n      0x00\n        /* \"#utility.yul\":4053:4055   */\n      0x20\n        /* \"#utility.yul\":4042:4051   */\n      dup3\n        /* \"#utility.yul\":4038:4056   */\n      add\n        /* \"#utility.yul\":4030:4056   */\n      swap1\n      pop\n        /* \"#utility.yul\":4066:4137   */\n      tag_149\n        /* \"#utility.yul\":4134:4135   */\n      0x00\n        /* \"#utility.yul\":4123:4132   */\n      dup4\n        /* \"#utility.yul\":4119:4136   */\n      add\n        /* \"#utility.yul\":4110:4116   */\n      dup5\n        /* \"#utility.yul\":4066:4137   */\n      tag_96\n      jump\t// in\n    tag_149:\n        /* \"#utility.yul\":3922:4144   */\n      swap3\n      swap2\n      pop\n      pop\n      jump\t// out\n        /* \"#utility.yul\":4150:4769   */\n    tag_34:\n        /* \"#utility.yul\":4227:4233   */\n      0x00\n        /* \"#utility.yul\":4235:4241   */\n      dup1\n        /* \"#utility.yul\":4243:4249   */\n      0x00\n        /* \"#utility.yul\":4292:4294   */\n      0x60\n        /* \"#utility.yul\":4280:4289   */\n      dup5\n        /* \"#utility.yul\":4271:4278   */\n      dup7\n        /* \"#utility.yul\":4267:4290   */\n      sub\n        /* \"#utility.yul\":4263:4295   */\n      slt\n        /* \"#utility.yul\":4260:4379   */\n      iszero\n      tag_151\n      jumpi\n        /* \"#utility.yul\":4298:4377   */\n      tag_152\n      tag_84\n      jump\t// in\n    tag_152:\n        /* \"#utility.yul\":4260:4379   */\n    tag_151:\n        /* \"#utility.yul\":4418:4419   */\n      0x00\n        /* \"#utility.yul\":4443:4496   */\n      tag_153\n        /* \"#utility.yul\":4488:4495   */\n      dup7\n        /* \"#utility.yul\":4479:4485   */\n      dup3\n        /* \"#utility.yul\":4468:4477   */\n      dup8\n        /* \"#utility.yul\":4464:4486   */\n      add\n        /* \"#utility.yul\":4443:4496   */\n      tag_89\n      jump\t// in\n    tag_153:\n        /* \"#utility.yul\":4433:4496   */\n      swap4\n      pop\n        /* \"#utility.yul\":4389:4506   */\n      pop\n        /* \"#utility.yul\":4545:4547   */\n      0x20\n        /* \"#utility.yul\":4571:4624   */\n      tag_154\n        /* \"#utility.yul\":4616:4623   */\n      dup7\n        /* \"#utility.yul\":4607:4613   */\n      dup3\n        /* \"#utility.yul\":4596:4605   */\n      dup8\n        /* \"#utility.yul\":4592:4614   */\n      add\n        /* \"#utility.yul\":4571:4624   */\n      tag_89\n      jump\t// in\n    tag_154:\n        /* \"#utility.yul\":4561:4624   */\n      swap3\n      pop\n        /* \"#utility.yul\":4516:4634   */\n      pop\n        /* \"#utility.yul\":4673:4675   */\n      0x40\n        /* \"#utility.yul\":4699:4752   */\n      tag_155\n        /* \"#utility.yul\":4744:4751   */\n      dup7\n        /* \"#utility.yul\":4735:4741   */\n      dup3\n        /* \"#utility.yul\":4724:4733   */\n      dup8\n        /* \"#utility.yul\":4720:4742   */\n      add\n        /* \"#utility.yul\":4699:4752   */\n      tag_92\n      jump\t// in\n    tag_155:\n        /* \"#utility.yul\":4689:4752   */\n      swap2\n      pop\n        /* \"#utility.yul\":4644:4762   */\n      pop\n        /* \"#utility.yul\":4150:4769   */\n      swap3\n      pop\n      swap3\n      pop\n      swap3\n      jump\t// out\n        /* \"#utility.yul\":4775:4861   */\n    tag_97:\n        /* \"#utility.yul\":4810:4817   */\n      0x00\n        /* \"#utility.yul\":4850:4854   */\n      0xff\n        /* \"#utility.yul\":4843:4848   */\n      dup3\n        /* \"#utility.yul\":4839:4855   */\n      and\n        /* \"#utility.yul\":4828:4855   */\n      swap1\n      pop\n        /* \"#utility.yul\":4775:4861   */\n      swap2\n      swap1\n      pop\n      jump\t// out\n        /* \"#utility.yul\":4867:4979   */\n    tag_98:\n        /* \"#utility.yul\":4950:4972   */\n      tag_158\n        /* \"#utility.yul\":4966:4971   */\n      dup2\n        /* \"#utility.yul\":4950:4972   */\n      tag_97\n      jump\t// in\n    tag_158:\n        /* \"#utility.yul\":4945:4948   */\n      dup3\n        /* \"#utility.yul\":4938:4973   */\n      mstore\n        /* \"#utility.yul\":4867:4979   */\n      pop\n      pop\n      jump\t// out\n        /* \"#utility.yul\":4985:5199   */\n    tag_40:\n        /* \"#utility.yul\":5074:5078   */\n      0x00\n        /* \"#utility.yul\":5112:5114   */\n      0x20\n        /* \"#utility.yul\":5101:5110   */\n      dup3\n        /* \"#utility.yul\":5097:5115   */\n      add\n        /* \"#utility.yul\":5089:5115   */\n      swap1\n      pop\n        /* \"#utility.yul\":5125:5192   */\n      tag_160\n        /* \"#utility.yul\":5189:5190   */\n      0x00\n        /* \"#utility.yul\":5178:5187   */\n      dup4\n        /* \"#utility.yul\":5174:5191   */\n      add\n        /* \"#utility.yul\":5165:5171   */\n      dup5\n        /* \"#utility.yul\":5125:5192   */\n      tag_98\n      jump\t// in\n    tag_160:\n        /* \"#utility.yul\":4985:5199   */\n      swap3\n      swap2\n      pop\n      pop\n      jump\t// out\n        /* \"#utility.yul\":5205:5534   */\n    tag_43:\n        /* \"#utility.yul\":5264:5270   */\n      0x00\n        /* \"#utility.yul\":5313:5315   */\n      0x20\n        /* \"#utility.yul\":5301:5310   */\n      dup3\n        /* \"#utility.yul\":5292:5299   */\n      dup5\n        /* \"#utility.yul\":5288:5311   */\n      sub\n        /* \"#utility.yul\":5284:5316   */\n      slt\n        /* \"#utility.yul\":5281:5400   */\n      iszero\n      tag_162\n      jumpi\n        /* \"#utility.yul\":5319:5398   */\n      tag_163\n      tag_84\n      jump\t// in\n    tag_163:\n        /* \"#utility.yul\":5281:5400   */\n    tag_162:\n        /* \"#utility.yul\":5439:5440   */\n      0x00\n        /* \"#utility.yul\":5464:5517   */\n      tag_164\n        /* \"#utility.yul\":5509:5516   */\n      dup5\n        /* \"#utility.yul\":5500:5506   */\n      dup3\n        /* \"#utility.yul\":5489:5498   */\n      dup6\n        /* \"#utility.yul\":5485:5507   */\n      add\n        /* \"#utility.yul\":5464:5517   */\n      tag_89\n      jump\t// in\n    tag_164:\n        /* \"#utility.yul\":5454:5517   */\n      swap2\n      pop\n        /* \"#utility.yul\":5410:5527   */\n      pop\n        /* \"#utility.yul\":5205:5534   */\n      swap3\n      swap2\n      pop\n      pop\n      jump\t// out\n        /* \"#utility.yul\":5540:6014   */\n    tag_55:\n        /* \"#utility.yul\":5608:5614   */\n      0x00\n        /* \"#utility.yul\":5616:5622   */\n      dup1\n        /* \"#utility.yul\":5665:5667   */\n      0x40\n        /* \"#utility.yul\":5653:5662   */\n      dup4\n        /* \"#utility.yul\":5644:5651   */\n      dup6\n        /* \"#utility.yul\":5640:5663   */\n      sub\n        /* \"#utility.yul\":5636:5668   */\n      slt\n        /* \"#utility.yul\":5633:5752   */\n      iszero\n      tag_166\n      jumpi\n        /* \"#utility.yul\":5671:5750   */\n      tag_167\n      tag_84\n      jump\t// in\n    tag_167:\n        /* \"#utility.yul\":5633:5752   */\n    tag_166:\n        /* \"#utility.yul\":5791:5792   */\n      0x00\n        /* \"#utility.yul\":5816:5869   */\n      tag_168\n        /* \"#utility.yul\":5861:5868   */\n      dup6\n        /* \"#utility.yul\":5852:5858   */\n      dup3\n        /* \"#utility.yul\":5841:5850   */\n      dup7\n        /* \"#utility.yul\":5837:5859   */\n      add\n        /* \"#utility.yul\":5816:5869   */\n      tag_89\n      jump\t// in\n    tag_168:\n        /* \"#utility.yul\":5806:5869   */\n      swap3\n      pop\n        /* \"#utility.yul\":5762:5879   */\n      pop\n        /* \"#utility.yul\":5918:5920   */\n      0x20\n        /* \"#utility.yul\":5944:5997   */\n      tag_169\n        /* \"#utility.yul\":5989:5996   */\n      dup6\n        /* \"#utility.yul\":5980:5986   */\n      dup3\n        /* \"#utility.yul\":5969:5978   */\n      dup7\n        /* \"#utility.yul\":5965:5987   */\n      add\n        /* \"#utility.yul\":5944:5997   */\n      tag_89\n      jump\t// in\n    tag_169:\n        /* \"#utility.yul\":5934:5997   */\n      swap2\n      pop\n        /* \"#utility.yul\":5889:6007   */\n      pop\n        /* \"#utility.yul\":5540:6014   */\n      swap3\n      pop\n      swap3\n      swap1\n      pop\n      jump\t// out\n        /* \"#utility.yul\":6020:6200   */\n    tag_99:\n        /* \"#utility.yul\":6068:6145   */\n      0x4e487b7100000000000000000000000000000000000000000000000000000000\n        /* \"#utility.yul\":6065:6066   */\n      0x00\n        /* \"#utility.yul\":6058:6146   */\n      mstore\n        /* \"#utility.yul\":6165:6169   */\n      0x11\n        /* \"#utility.yul\":6162:6163   */\n      0x04\n        /* \"#utility.yul\":6155:6170   */\n      mstore\n        /* \"#utility.yul\":6189:6193   */\n      0x24\n        /* \"#utility.yul\":6186:6187   */\n      0x00\n        /* \"#utility.yul\":6179:6194   */\n      revert\n        /* \"#utility.yul\":6206:6400   */\n    tag_66:\n        /* \"#utility.yul\":6246:6250   */\n      0x00\n        /* \"#utility.yul\":6266:6286   */\n      tag_172\n        /* \"#utility.yul\":6284:6285   */\n      dup3\n        /* \"#utility.yul\":6266:6286   */\n      tag_90\n      jump\t// in\n    tag_172:\n        /* \"#utility.yul\":6261:6286   */\n      swap2\n      pop\n        /* \"#utility.yul\":6300:6320   */\n      tag_173\n        /* \"#utility.yul\":6318:6319   */\n      dup4\n        /* \"#utility.yul\":6300:6320   */\n      tag_90\n      jump\t// in\n    tag_173:\n        /* \"#utility.yul\":6295:6320   */\n      swap3\n      pop\n        /* \"#utility.yul\":6344:6345   */\n      dup3\n        /* \"#utility.yul\":6341:6342   */\n      dup3\n        /* \"#utility.yul\":6337:6346   */\n      sub\n        /* \"#utility.yul\":6329:6346   */\n      swap1\n      pop\n        /* \"#utility.yul\":6368:6369   */\n      dup2\n        /* \"#utility.yul\":6362:6366   */\n      dup2\n        /* \"#utility.yul\":6359:6370   */\n      gt\n        /* \"#utility.yul\":6356:6393   */\n      iszero\n      tag_174\n      jumpi\n        /* \"#utility.yul\":6373:6391   */\n      tag_175\n      tag_99\n      jump\t// in\n    tag_175:\n        /* \"#utility.yul\":6356:6393   */\n    tag_174:\n        /* \"#utility.yul\":6206:6400   */\n      swap3\n      swap2\n      pop\n      pop\n      jump\t// out\n        /* \"#utility.yul\":6406:6597   */\n    tag_69:\n        /* \"#utility.yul\":6446:6449   */\n      0x00\n        /* \"#utility.yul\":6465:6485   */\n      tag_177\n        /* \"#utility.yul\":6483:6484   */\n      dup3\n        /* \"#utility.yul\":6465:6485   */\n      tag_90\n      jump\t// in\n    tag_177:\n        /* \"#utility.yul\":6460:6485   */\n      swap2\n      pop\n        /* \"#utility.yul\":6499:6519   */\n      tag_178\n        /* \"#utility.yul\":6517:6518   */\n      dup4\n        /* \"#utility.yul\":6499:6519   */\n      tag_90\n      jump\t// in\n    tag_178:\n        /* \"#utility.yul\":6494:6519   */\n      swap3\n      pop\n        /* \"#utility.yul\":6542:6543   */\n      dup3\n        /* \"#utility.yul\":6539:6540   */\n      dup3\n        /* \"#utility.yul\":6535:6544   */\n      add\n        /* \"#utility.yul\":6528:6544   */\n      swap1\n      pop\n        /* \"#utility.yul\":6563:6566   */\n      dup1\n        /* \"#utility.yul\":6560:6561   */\n      dup3\n        /* \"#utility.yul\":6557:6567   */\n      gt\n        /* \"#utility.yul\":6554:6590   */\n      iszero\n      tag_179\n      jumpi\n        /* \"#utility.yul\":6570:6588   */\n      tag_180\n      tag_99\n      jump\t// in\n    tag_180:\n        /* \"#utility.yul\":6554:6590   */\n    tag_179:\n        /* \"#utility.yul\":6406:6597   */\n      swap3\n      swap2\n      pop\n      pop\n      jump\t// out\n\n    auxdata: 0xa2646970667358221220b5ce5cd8dba501a0111eec2e0452cff2e4d1f9dd0f78898f77664b9255580c7664736f6c63430008120033\n}\n",
				"bytecode": {
					"linkReferences": {},
					"object": "6080604052678ac7230489e8000060025534801561001c57600080fd5b506002546000803373ffffffffffffffffffffffffffffffffffffffff1673ffffffffffffffffffffffffffffffffffffffff16815260200190815260200160002081905550610d86806100716000396000f3fe608060405234801561001057600080fd5b506004361061009e5760003560e01c8063313ce56711610066578063313ce5671461015d57806370a082311461017b57806395d89b41146101ab578063a9059cbb146101c9578063dd62ed3e146101f95761009e565b806306fdde03146100a3578063095ea7b3146100c157806315621373146100f157806318160ddd1461010f57806323b872dd1461012d575b600080fd5b6100ab610229565b6040516100b89190610a3d565b60405180910390f35b6100db60048036038101906100d69190610af8565b610262565b6040516100e89190610b53565b60405180910390f35b6100f9610354565b6040516101069190610b7d565b60405180910390f35b61011761035c565b6040516101249190610ba7565b60405180910390f35b61014760048036038101906101429190610bc2565b610366565b6040516101549190610b53565b60405180910390f35b6101656106cc565b6040516101729190610c31565b60405180910390f35b61019560048036038101906101909190610c4c565b6106d1565b6040516101a29190610ba7565b60405180910390f35b6101b3610719565b6040516101c09190610a3d565b60405180910390f35b6101e360048036038101906101de9190610af8565b610752565b6040516101f09190610b53565b60405180910390f35b610213600480360381019061020e9190610c79565b610926565b6040516102209190610ba7565b60405180910390f35b6040518060400160405280600a81526020017f455243323042617369630000000000000000000000000000000000000000000081525081565b600081600160003373ffffffffffffffffffffffffffffffffffffffff1673ffffffffffffffffffffffffffffffffffffffff16815260200190815260200160002060008573ffffffffffffffffffffffffffffffffffffffff1673ffffffffffffffffffffffffffffffffffffffff168152602001908152602001600020819055508273ffffffffffffffffffffffffffffffffffffffff163373ffffffffffffffffffffffffffffffffffffffff167f8c5be1e5ebec7d5bd14f71427d1e84f3dd0314c0f7b2291e5b200ac8c7c3b925846040516103429190610ba7565b60405180910390a36001905092915050565b600030905090565b6000600254905090565b60008060008573ffffffffffffffffffffffffffffffffffffffff1673ffffffffffffffffffffffffffffffffffffffff168152602001908152602001600020548211156103b357600080fd5b600160008573ffffffffffffffffffffffffffffffffffffffff1673ffffffffffffffffffffffffffffffffffffffff16815260200190815260200160002060003373ffffffffffffffffffffffffffffffffffffffff1673ffffffffffffffffffffffffffffffffffffffff1681526020019081526020016000205482111561043c57600080fd5b816000808673ffffffffffffffffffffffffffffffffffffffff1673ffffffffffffffffffffffffffffffffffffffff168152602001908152602001600020546104869190610ce8565b6000808673ffffffffffffffffffffffffffffffffffffffff1673ffffffffffffffffffffffffffffffffffffffff1681526020019081526020016000208190555081600160008673ffffffffffffffffffffffffffffffffffffffff1673ffffffffffffffffffffffffffffffffffffffff16815260200190815260200160002060003373ffffffffffffffffffffffffffffffffffffffff1673ffffffffffffffffffffffffffffffffffffffff168152602001908152602001600020546105509190610ce8565b600160008673ffffffffffffffffffffffffffffffffffffffff1673ffffffffffffffffffffffffffffffffffffffff16815260200190815260200160002060003373ffffffffffffffffffffffffffffffffffffffff1673ffffffffffffffffffffffffffffffffffffffff16815260200190815260200160002081905550816000808573ffffffffffffffffffffffffffffffffffffffff1673ffffffffffffffffffffffffffffffffffffffff1681526020019081526020016000205461061a9190610d1c565b6000808573ffffffffffffffffffffffffffffffffffffffff1673ffffffffffffffffffffffffffffffffffffffff168152602001908152602001600020819055508273ffffffffffffffffffffffffffffffffffffffff168473ffffffffffffffffffffffffffffffffffffffff167fddf252ad1be2c89b69c2b068fc378daa952ba7f163c4a11628f55a4df523b3ef846040516106b99190610ba7565b60405180910390a3600190509392505050565b601281565b60008060008373ffffffffffffffffffffffffffffffffffffffff1673ffffffffffffffffffffffffffffffffffffffff168152602001908152602001600020549050919050565b6040518060400160405280600381526020017f455243000000000000000000000000000000000000000000000000000000000081525081565b60008060003373ffffffffffffffffffffffffffffffffffffffff1673ffffffffffffffffffffffffffffffffffffffff1681526020019081526020016000205482111561079f57600080fd5b816000803373ffffffffffffffffffffffffffffffffffffffff1673ffffffffffffffffffffffffffffffffffffffff168152602001908152602001600020546107e99190610ce8565b6000803373ffffffffffffffffffffffffffffffffffffffff1673ffffffffffffffffffffffffffffffffffffffff16815260200190815260200160002081905550816000808573ffffffffffffffffffffffffffffffffffffffff1673ffffffffffffffffffffffffffffffffffffffff168152602001908152602001600020546108759190610d1c565b6000808573ffffffffffffffffffffffffffffffffffffffff1673ffffffffffffffffffffffffffffffffffffffff168152602001908152602001600020819055508273ffffffffffffffffffffffffffffffffffffffff163373ffffffffffffffffffffffffffffffffffffffff167fddf252ad1be2c89b69c2b068fc378daa952ba7f163c4a11628f55a4df523b3ef846040516109149190610ba7565b60405180910390a36001905092915050565b6000600160008473ffffffffffffffffffffffffffffffffffffffff1673ffffffffffffffffffffffffffffffffffffffff16815260200190815260200160002060008373ffffffffffffffffffffffffffffffffffffffff1673ffffffffffffffffffffffffffffffffffffffff16815260200190815260200160002054905092915050565b600081519050919050565b600082825260208201905092915050565b60005b838110156109e75780820151818401526020810190506109cc565b60008484015250505050565b6000601f19601f8301169050919050565b6000610a0f826109ad565b610a1981856109b8565b9350610a298185602086016109c9565b610a32816109f3565b840191505092915050565b60006020820190508181036000830152610a578184610a04565b905092915050565b600080fd5b600073ffffffffffffffffffffffffffffffffffffffff82169050919050565b6000610a8f82610a64565b9050919050565b610a9f81610a84565b8114610aaa57600080fd5b50565b600081359050610abc81610a96565b92915050565b6000819050919050565b610ad581610ac2565b8114610ae057600080fd5b50565b600081359050610af281610acc565b92915050565b60008060408385031215610b0f57610b0e610a5f565b5b6000610b1d85828601610aad565b9250506020610b2e85828601610ae3565b9150509250929050565b60008115159050919050565b610b4d81610b38565b82525050565b6000602082019050610b686000830184610b44565b92915050565b610b7781610a84565b82525050565b6000602082019050610b926000830184610b6e565b92915050565b610ba181610ac2565b82525050565b6000602082019050610bbc6000830184610b98565b92915050565b600080600060608486031215610bdb57610bda610a5f565b5b6000610be986828701610aad565b9350506020610bfa86828701610aad565b9250506040610c0b86828701610ae3565b9150509250925092565b600060ff82169050919050565b610c2b81610c15565b82525050565b6000602082019050610c466000830184610c22565b92915050565b600060208284031215610c6257610c61610a5f565b5b6000610c7084828501610aad565b91505092915050565b60008060408385031215610c9057610c8f610a5f565b5b6000610c9e85828601610aad565b9250506020610caf85828601610aad565b9150509250929050565b7f4e487b7100000000000000000000000000000000000000000000000000000000600052601160045260246000fd5b6000610cf382610ac2565b9150610cfe83610ac2565b9250828203905081811115610d1657610d15610cb9565b5b92915050565b6000610d2782610ac2565b9150610d3283610ac2565b9250828201905080821115610d4a57610d49610cb9565b5b9291505056fea2646970667358221220b5ce5cd8dba501a0111eec2e0452cff2e4d1f9dd0f78898f77664b9255580c7664736f6c63430008120033",
					"opcodes": "PUSH1 0x80 PUSH1 0x40 MSTORE PUSH8 0x8AC7230489E80000 PUSH1 0x2 SSTORE CALLVALUE DUP1 ISZERO PUSH2 0x1C JUMPI PUSH1 0x0 DUP1 REVERT JUMPDEST POP PUSH1 0x2 SLOAD PUSH1 0x0 DUP1 CALLER PUSH20 0xFFFFFFFFFFFFFFFFFFFFFFFFFFFFFFFFFFFFFFFF AND PUSH20 0xFFFFFFFFFFFFFFFFFFFFFFFFFFFFFFFFFFFFFFFF AND DUP2 MSTORE PUSH1 0x20 ADD SWAP1 DUP2 MSTORE PUSH1 0x20 ADD PUSH1 0x0 KECCAK256 DUP2 SWAP1 SSTORE POP PUSH2 0xD86 DUP1 PUSH2 0x71 PUSH1 0x0 CODECOPY PUSH1 0x0 RETURN INVALID PUSH1 0x80 PUSH1 0x40 MSTORE CALLVALUE DUP1 ISZERO PUSH2 0x10 JUMPI PUSH1 0x0 DUP1 REVERT JUMPDEST POP PUSH1 0x4 CALLDATASIZE LT PUSH2 0x9E JUMPI PUSH1 0x0 CALLDATALOAD PUSH1 0xE0 SHR DUP1 PUSH4 0x313CE567 GT PUSH2 0x66 JUMPI DUP1 PUSH4 0x313CE567 EQ PUSH2 0x15D JUMPI DUP1 PUSH4 0x70A08231 EQ PUSH2 0x17B JUMPI DUP1 PUSH4 0x95D89B41 EQ PUSH2 0x1AB JUMPI DUP1 PUSH4 0xA9059CBB EQ PUSH2 0x1C9 JUMPI DUP1 PUSH4 0xDD62ED3E EQ PUSH2 0x1F9 JUMPI PUSH2 0x9E JUMP JUMPDEST DUP1 PUSH4 0x6FDDE03 EQ PUSH2 0xA3 JUMPI DUP1 PUSH4 0x95EA7B3 EQ PUSH2 0xC1 JUMPI DUP1 PUSH4 0x15621373 EQ PUSH2 0xF1 JUMPI DUP1 PUSH4 0x18160DDD EQ PUSH2 0x10F JUMPI DUP1 PUSH4 0x23B872DD EQ PUSH2 0x12D JUMPI JUMPDEST PUSH1 0x0 DUP1 REVERT JUMPDEST PUSH2 0xAB PUSH2 0x229 JUMP JUMPDEST PUSH1 0x40 MLOAD PUSH2 0xB8 SWAP2 SWAP1 PUSH2 0xA3D JUMP JUMPDEST PUSH1 0x40 MLOAD DUP1 SWAP2 SUB SWAP1 RETURN JUMPDEST PUSH2 0xDB PUSH1 0x4 DUP1 CALLDATASIZE SUB DUP2 ADD SWAP1 PUSH2 0xD6 SWAP2 SWAP1 PUSH2 0xAF8 JUMP JUMPDEST PUSH2 0x262 JUMP JUMPDEST PUSH1 0x40 MLOAD PUSH2 0xE8 SWAP2 SWAP1 PUSH2 0xB53 JUMP JUMPDEST PUSH1 0x40 MLOAD DUP1 SWAP2 SUB SWAP1 RETURN JUMPDEST PUSH2 0xF9 PUSH2 0x354 JUMP JUMPDEST PUSH1 0x40 MLOAD PUSH2 0x106 SWAP2 SWAP1 PUSH2 0xB7D JUMP JUMPDEST PUSH1 0x40 MLOAD DUP1 SWAP2 SUB SWAP1 RETURN JUMPDEST PUSH2 0x117 PUSH2 0x35C JUMP JUMPDEST PUSH1 0x40 MLOAD PUSH2 0x124 SWAP2 SWAP1 PUSH2 0xBA7 JUMP JUMPDEST PUSH1 0x40 MLOAD DUP1 SWAP2 SUB SWAP1 RETURN JUMPDEST PUSH2 0x147 PUSH1 0x4 DUP1 CALLDATASIZE SUB DUP2 ADD SWAP1 PUSH2 0x142 SWAP2 SWAP1 PUSH2 0xBC2 JUMP JUMPDEST PUSH2 0x366 JUMP JUMPDEST PUSH1 0x40 MLOAD PUSH2 0x154 SWAP2 SWAP1 PUSH2 0xB53 JUMP JUMPDEST PUSH1 0x40 MLOAD DUP1 SWAP2 SUB SWAP1 RETURN JUMPDEST PUSH2 0x165 PUSH2 0x6CC JUMP JUMPDEST PUSH1 0x40 MLOAD PUSH2 0x172 SWAP2 SWAP1 PUSH2 0xC31 JUMP JUMPDEST PUSH1 0x40 MLOAD DUP1 SWAP2 SUB SWAP1 RETURN JUMPDEST PUSH2 0x195 PUSH1 0x4 DUP1 CALLDATASIZE SUB DUP2 ADD SWAP1 PUSH2 0x190 SWAP2 SWAP1 PUSH2 0xC4C JUMP JUMPDEST PUSH2 0x6D1 JUMP JUMPDEST PUSH1 0x40 MLOAD PUSH2 0x1A2 SWAP2 SWAP1 PUSH2 0xBA7 JUMP JUMPDEST PUSH1 0x40 MLOAD DUP1 SWAP2 SUB SWAP1 RETURN JUMPDEST PUSH2 0x1B3 PUSH2 0x719 JUMP JUMPDEST PUSH1 0x40 MLOAD PUSH2 0x1C0 SWAP2 SWAP1 PUSH2 0xA3D JUMP JUMPDEST PUSH1 0x40 MLOAD DUP1 SWAP2 SUB SWAP1 RETURN JUMPDEST PUSH2 0x1E3 PUSH1 0x4 DUP1 CALLDATASIZE SUB DUP2 ADD SWAP1 PUSH2 0x1DE SWAP2 SWAP1 PUSH2 0xAF8 JUMP JUMPDEST PUSH2 0x752 JUMP JUMPDEST PUSH1 0x40 MLOAD PUSH2 0x1F0 SWAP2 SWAP1 PUSH2 0xB53 JUMP JUMPDEST PUSH1 0x40 MLOAD DUP1 SWAP2 SUB SWAP1 RETURN JUMPDEST PUSH2 0x213 PUSH1 0x4 DUP1 CALLDATASIZE SUB DUP2 ADD SWAP1 PUSH2 0x20E SWAP2 SWAP1 PUSH2 0xC79 JUMP JUMPDEST PUSH2 0x926 JUMP JUMPDEST PUSH1 0x40 MLOAD PUSH2 0x220 SWAP2 SWAP1 PUSH2 0xBA7 JUMP JUMPDEST PUSH1 0x40 MLOAD DUP1 SWAP2 SUB SWAP1 RETURN JUMPDEST PUSH1 0x40 MLOAD DUP1 PUSH1 0x40 ADD PUSH1 0x40 MSTORE DUP1 PUSH1 0xA DUP2 MSTORE PUSH1 0x20 ADD PUSH32 0x4552433230426173696300000000000000000000000000000000000000000000 DUP2 MSTORE POP DUP2 JUMP JUMPDEST PUSH1 0x0 DUP2 PUSH1 0x1 PUSH1 0x0 CALLER PUSH20 0xFFFFFFFFFFFFFFFFFFFFFFFFFFFFFFFFFFFFFFFF AND PUSH20 0xFFFFFFFFFFFFFFFFFFFFFFFFFFFFFFFFFFFFFFFF AND DUP2 MSTORE PUSH1 0x20 ADD SWAP1 DUP2 MSTORE PUSH1 0x20 ADD PUSH1 0x0 KECCAK256 PUSH1 0x0 DUP6 PUSH20 0xFFFFFFFFFFFFFFFFFFFFFFFFFFFFFFFFFFFFFFFF AND PUSH20 0xFFFFFFFFFFFFFFFFFFFFFFFFFFFFFFFFFFFFFFFF AND DUP2 MSTORE PUSH1 0x20 ADD SWAP1 DUP2 MSTORE PUSH1 0x20 ADD PUSH1 0x0 KECCAK256 DUP2 SWAP1 SSTORE POP DUP3 PUSH20 0xFFFFFFFFFFFFFFFFFFFFFFFFFFFFFFFFFFFFFFFF AND CALLER PUSH20 0xFFFFFFFFFFFFFFFFFFFFFFFFFFFFFFFFFFFFFFFF AND PUSH32 0x8C5BE1E5EBEC7D5BD14F71427D1E84F3DD0314C0F7B2291E5B200AC8C7C3B925 DUP5 PUSH1 0x40 MLOAD PUSH2 0x342 SWAP2 SWAP1 PUSH2 0xBA7 JUMP JUMPDEST PUSH1 0x40 MLOAD DUP1 SWAP2 SUB SWAP1 LOG3 PUSH1 0x1 SWAP1 POP SWAP3 SWAP2 POP POP JUMP JUMPDEST PUSH1 0x0 ADDRESS SWAP1 POP SWAP1 JUMP JUMPDEST PUSH1 0x0 PUSH1 0x2 SLOAD SWAP1 POP SWAP1 JUMP JUMPDEST PUSH1 0x0 DUP1 PUSH1 0x0 DUP6 PUSH20 0xFFFFFFFFFFFFFFFFFFFFFFFFFFFFFFFFFFFFFFFF AND PUSH20 0xFFFFFFFFFFFFFFFFFFFFFFFFFFFFFFFFFFFFFFFF AND DUP2 MSTORE PUSH1 0x20 ADD SWAP1 DUP2 MSTORE PUSH1 0x20 ADD PUSH1 0x0 KECCAK256 SLOAD DUP3 GT ISZERO PUSH2 0x3B3 JUMPI PUSH1 0x0 DUP1 REVERT JUMPDEST PUSH1 0x1 PUSH1 0x0 DUP6 PUSH20 0xFFFFFFFFFFFFFFFFFFFFFFFFFFFFFFFFFFFFFFFF AND PUSH20 0xFFFFFFFFFFFFFFFFFFFFFFFFFFFFFFFFFFFFFFFF AND DUP2 MSTORE PUSH1 0x20 ADD SWAP1 DUP2 MSTORE PUSH1 0x20 ADD PUSH1 0x0 KECCAK256 PUSH1 0x0 CALLER PUSH20 0xFFFFFFFFFFFFFFFFFFFFFFFFFFFFFFFFFFFFFFFF AND PUSH20 0xFFFFFFFFFFFFFFFFFFFFFFFFFFFFFFFFFFFFFFFF AND DUP2 MSTORE PUSH1 0x20 ADD SWAP1 DUP2 MSTORE PUSH1 0x20 ADD PUSH1 0x0 KECCAK256 SLOAD DUP3 GT ISZERO PUSH2 0x43C JUMPI PUSH1 0x0 DUP1 REVERT JUMPDEST DUP2 PUSH1 0x0 DUP1 DUP7 PUSH20 0xFFFFFFFFFFFFFFFFFFFFFFFFFFFFFFFFFFFFFFFF AND PUSH20 0xFFFFFFFFFFFFFFFFFFFFFFFFFFFFFFFFFFFFFFFF AND DUP2 MSTORE PUSH1 0x20 ADD SWAP1 DUP2 MSTORE PUSH1 0x20 ADD PUSH1 0x0 KECCAK256 SLOAD PUSH2 0x486 SWAP2 SWAP1 PUSH2 0xCE8 JUMP JUMPDEST PUSH1 0x0 DUP1 DUP7 PUSH20 0xFFFFFFFFFFFFFFFFFFFFFFFFFFFFFFFFFFFFFFFF AND PUSH20 0xFFFFFFFFFFFFFFFFFFFFFFFFFFFFFFFFFFFFFFFF AND DUP2 MSTORE PUSH1 0x20 ADD SWAP1 DUP2 MSTORE PUSH1 0x20 ADD PUSH1 0x0 KECCAK256 DUP2 SWAP1 SSTORE POP DUP2 PUSH1 0x1 PUSH1 0x0 DUP7 PUSH20 0xFFFFFFFFFFFFFFFFFFFFFFFFFFFFFFFFFFFFFFFF AND PUSH20 0xFFFFFFFFFFFFFFFFFFFFFFFFFFFFFFFFFFFFFFFF AND DUP2 MSTORE PUSH1 0x20 ADD SWAP1 DUP2 MSTORE PUSH1 0x20 ADD PUSH1 0x0 KECCAK256 PUSH1 0x0 CALLER PUSH20 0xFFFFFFFFFFFFFFFFFFFFFFFFFFFFFFFFFFFFFFFF AND PUSH20 0xFFFFFFFFFFFFFFFFFFFFFFFFFFFFFFFFFFFFFFFF AND DUP2 MSTORE PUSH1 0x20 ADD SWAP1 DUP2 MSTORE PUSH1 0x20 ADD PUSH1 0x0 KECCAK256 SLOAD PUSH2 0x550 SWAP2 SWAP1 PUSH2 0xCE8 JUMP JUMPDEST PUSH1 0x1 PUSH1 0x0 DUP7 PUSH20 0xFFFFFFFFFFFFFFFFFFFFFFFFFFFFFFFFFFFFFFFF AND PUSH20 0xFFFFFFFFFFFFFFFFFFFFFFFFFFFFFFFFFFFFFFFF AND DUP2 MSTORE PUSH1 0x20 ADD SWAP1 DUP2 MSTORE PUSH1 0x20 ADD PUSH1 0x0 KECCAK256 PUSH1 0x0 CALLER PUSH20 0xFFFFFFFFFFFFFFFFFFFFFFFFFFFFFFFFFFFFFFFF AND PUSH20 0xFFFFFFFFFFFFFFFFFFFFFFFFFFFFFFFFFFFFFFFF AND DUP2 MSTORE PUSH1 0x20 ADD SWAP1 DUP2 MSTORE PUSH1 0x20 ADD PUSH1 0x0 KECCAK256 DUP2 SWAP1 SSTORE POP DUP2 PUSH1 0x0 DUP1 DUP6 PUSH20 0xFFFFFFFFFFFFFFFFFFFFFFFFFFFFFFFFFFFFFFFF AND PUSH20 0xFFFFFFFFFFFFFFFFFFFFFFFFFFFFFFFFFFFFFFFF AND DUP2 MSTORE PUSH1 0x20 ADD SWAP1 DUP2 MSTORE PUSH1 0x20 ADD PUSH1 0x0 KECCAK256 SLOAD PUSH2 0x61A SWAP2 SWAP1 PUSH2 0xD1C JUMP JUMPDEST PUSH1 0x0 DUP1 DUP6 PUSH20 0xFFFFFFFFFFFFFFFFFFFFFFFFFFFFFFFFFFFFFFFF AND PUSH20 0xFFFFFFFFFFFFFFFFFFFFFFFFFFFFFFFFFFFFFFFF AND DUP2 MSTORE PUSH1 0x20 ADD SWAP1 DUP2 MSTORE PUSH1 0x20 ADD PUSH1 0x0 KECCAK256 DUP2 SWAP1 SSTORE POP DUP3 PUSH20 0xFFFFFFFFFFFFFFFFFFFFFFFFFFFFFFFFFFFFFFFF AND DUP5 PUSH20 0xFFFFFFFFFFFFFFFFFFFFFFFFFFFFFFFFFFFFFFFF AND PUSH32 0xDDF252AD1BE2C89B69C2B068FC378DAA952BA7F163C4A11628F55A4DF523B3EF DUP5 PUSH1 0x40 MLOAD PUSH2 0x6B9 SWAP2 SWAP1 PUSH2 0xBA7 JUMP JUMPDEST PUSH1 0x40 MLOAD DUP1 SWAP2 SUB SWAP1 LOG3 PUSH1 0x1 SWAP1 POP SWAP4 SWAP3 POP POP POP JUMP JUMPDEST PUSH1 0x12 DUP2 JUMP JUMPDEST PUSH1 0x0 DUP1 PUSH1 0x0 DUP4 PUSH20 0xFFFFFFFFFFFFFFFFFFFFFFFFFFFFFFFFFFFFFFFF AND PUSH20 0xFFFFFFFFFFFFFFFFFFFFFFFFFFFFFFFFFFFFFFFF AND DUP2 MSTORE PUSH1 0x20 ADD SWAP1 DUP2 MSTORE PUSH1 0x20 ADD PUSH1 0x0 KECCAK256 SLOAD SWAP1 POP SWAP2 SWAP1 POP JUMP JUMPDEST PUSH1 0x40 MLOAD DUP1 PUSH1 0x40 ADD PUSH1 0x40 MSTORE DUP1 PUSH1 0x3 DUP2 MSTORE PUSH1 0x20 ADD PUSH32 0x4552430000000000000000000000000000000000000000000000000000000000 DUP2 MSTORE POP DUP2 JUMP JUMPDEST PUSH1 0x0 DUP1 PUSH1 0x0 CALLER PUSH20 0xFFFFFFFFFFFFFFFFFFFFFFFFFFFFFFFFFFFFFFFF AND PUSH20 0xFFFFFFFFFFFFFFFFFFFFFFFFFFFFFFFFFFFFFFFF AND DUP2 MSTORE PUSH1 0x20 ADD SWAP1 DUP2 MSTORE PUSH1 0x20 ADD PUSH1 0x0 KECCAK256 SLOAD DUP3 GT ISZERO PUSH2 0x79F JUMPI PUSH1 0x0 DUP1 REVERT JUMPDEST DUP2 PUSH1 0x0 DUP1 CALLER PUSH20 0xFFFFFFFFFFFFFFFFFFFFFFFFFFFFFFFFFFFFFFFF AND PUSH20 0xFFFFFFFFFFFFFFFFFFFFFFFFFFFFFFFFFFFFFFFF AND DUP2 MSTORE PUSH1 0x20 ADD SWAP1 DUP2 MSTORE PUSH1 0x20 ADD PUSH1 0x0 KECCAK256 SLOAD PUSH2 0x7E9 SWAP2 SWAP1 PUSH2 0xCE8 JUMP JUMPDEST PUSH1 0x0 DUP1 CALLER PUSH20 0xFFFFFFFFFFFFFFFFFFFFFFFFFFFFFFFFFFFFFFFF AND PUSH20 0xFFFFFFFFFFFFFFFFFFFFFFFFFFFFFFFFFFFFFFFF AND DUP2 MSTORE PUSH1 0x20 ADD SWAP1 DUP2 MSTORE PUSH1 0x20 ADD PUSH1 0x0 KECCAK256 DUP2 SWAP1 SSTORE POP DUP2 PUSH1 0x0 DUP1 DUP6 PUSH20 0xFFFFFFFFFFFFFFFFFFFFFFFFFFFFFFFFFFFFFFFF AND PUSH20 0xFFFFFFFFFFFFFFFFFFFFFFFFFFFFFFFFFFFFFFFF AND DUP2 MSTORE PUSH1 0x20 ADD SWAP1 DUP2 MSTORE PUSH1 0x20 ADD PUSH1 0x0 KECCAK256 SLOAD PUSH2 0x875 SWAP2 SWAP1 PUSH2 0xD1C JUMP JUMPDEST PUSH1 0x0 DUP1 DUP6 PUSH20 0xFFFFFFFFFFFFFFFFFFFFFFFFFFFFFFFFFFFFFFFF AND PUSH20 0xFFFFFFFFFFFFFFFFFFFFFFFFFFFFFFFFFFFFFFFF AND DUP2 MSTORE PUSH1 0x20 ADD SWAP1 DUP2 MSTORE PUSH1 0x20 ADD PUSH1 0x0 KECCAK256 DUP2 SWAP1 SSTORE POP DUP3 PUSH20 0xFFFFFFFFFFFFFFFFFFFFFFFFFFFFFFFFFFFFFFFF AND CALLER PUSH20 0xFFFFFFFFFFFFFFFFFFFFFFFFFFFFFFFFFFFFFFFF AND PUSH32 0xDDF252AD1BE2C89B69C2B068FC378DAA952BA7F163C4A11628F55A4DF523B3EF DUP5 PUSH1 0x40 MLOAD PUSH2 0x914 SWAP2 SWAP1 PUSH2 0xBA7 JUMP JUMPDEST PUSH1 0x40 MLOAD DUP1 SWAP2 SUB SWAP1 LOG3 PUSH1 0x1 SWAP1 POP SWAP3 SWAP2 POP POP JUMP JUMPDEST PUSH1 0x0 PUSH1 0x1 PUSH1 0x0 DUP5 PUSH20 0xFFFFFFFFFFFFFFFFFFFFFFFFFFFFFFFFFFFFFFFF AND PUSH20 0xFFFFFFFFFFFFFFFFFFFFFFFFFFFFFFFFFFFFFFFF AND DUP2 MSTORE PUSH1 0x20 ADD SWAP1 DUP2 MSTORE PUSH1 0x20 ADD PUSH1 0x0 KECCAK256 PUSH1 0x0 DUP4 PUSH20 0xFFFFFFFFFFFFFFFFFFFFFFFFFFFFFFFFFFFFFFFF AND PUSH20 0xFFFFFFFFFFFFFFFFFFFFFFFFFFFFFFFFFFFFFFFF AND DUP2 MSTORE PUSH1 0x20 ADD SWAP1 DUP2 MSTORE PUSH1 0x20 ADD PUSH1 0x0 KECCAK256 SLOAD SWAP1 POP SWAP3 SWAP2 POP POP JUMP JUMPDEST PUSH1 0x0 DUP2 MLOAD SWAP1 POP SWAP2 SWAP1 POP JUMP JUMPDEST PUSH1 0x0 DUP3 DUP3 MSTORE PUSH1 0x20 DUP3 ADD SWAP1 POP SWAP3 SWAP2 POP POP JUMP JUMPDEST PUSH1 0x0 JUMPDEST DUP4 DUP2 LT ISZERO PUSH2 0x9E7 JUMPI DUP1 DUP3 ADD MLOAD DUP2 DUP5 ADD MSTORE PUSH1 0x20 DUP2 ADD SWAP1 POP PUSH2 0x9CC JUMP JUMPDEST PUSH1 0x0 DUP5 DUP5 ADD MSTORE POP POP POP POP JUMP JUMPDEST PUSH1 0x0 PUSH1 0x1F NOT PUSH1 0x1F DUP4 ADD AND SWAP1 POP SWAP2 SWAP1 POP JUMP JUMPDEST PUSH1 0x0 PUSH2 0xA0F DUP3 PUSH2 0x9AD JUMP JUMPDEST PUSH2 0xA19 DUP2 DUP6 PUSH2 0x9B8 JUMP JUMPDEST SWAP4 POP PUSH2 0xA29 DUP2 DUP6 PUSH1 0x20 DUP7 ADD PUSH2 0x9C9 JUMP JUMPDEST PUSH2 0xA32 DUP2 PUSH2 0x9F3 JUMP JUMPDEST DUP5 ADD SWAP2 POP POP SWAP3 SWAP2 POP POP JUMP JUMPDEST PUSH1 0x0 PUSH1 0x20 DUP3 ADD SWAP1 POP DUP2 DUP2 SUB PUSH1 0x0 DUP4 ADD MSTORE PUSH2 0xA57 DUP2 DUP5 PUSH2 0xA04 JUMP JUMPDEST SWAP1 POP SWAP3 SWAP2 POP POP JUMP JUMPDEST PUSH1 0x0 DUP1 REVERT JUMPDEST PUSH1 0x0 PUSH20 0xFFFFFFFFFFFFFFFFFFFFFFFFFFFFFFFFFFFFFFFF DUP3 AND SWAP1 POP SWAP2 SWAP1 POP JUMP JUMPDEST PUSH1 0x0 PUSH2 0xA8F DUP3 PUSH2 0xA64 JUMP JUMPDEST SWAP1 POP SWAP2 SWAP1 POP JUMP JUMPDEST PUSH2 0xA9F DUP2 PUSH2 0xA84 JUMP JUMPDEST DUP2 EQ PUSH2 0xAAA JUMPI PUSH1 0x0 DUP1 REVERT JUMPDEST POP JUMP JUMPDEST PUSH1 0x0 DUP2 CALLDATALOAD SWAP1 POP PUSH2 0xABC DUP2 PUSH2 0xA96 JUMP JUMPDEST SWAP3 SWAP2 POP POP JUMP JUMPDEST PUSH1 0x0 DUP2 SWAP1 POP SWAP2 SWAP1 POP JUMP JUMPDEST PUSH2 0xAD5 DUP2 PUSH2 0xAC2 JUMP JUMPDEST DUP2 EQ PUSH2 0xAE0 JUMPI PUSH1 0x0 DUP1 REVERT JUMPDEST POP JUMP JUMPDEST PUSH1 0x0 DUP2 CALLDATALOAD SWAP1 POP PUSH2 0xAF2 DUP2 PUSH2 0xACC JUMP JUMPDEST SWAP3 SWAP2 POP POP JUMP JUMPDEST PUSH1 0x0 DUP1 PUSH1 0x40 DUP4 DUP6 SUB SLT ISZERO PUSH2 0xB0F JUMPI PUSH2 0xB0E PUSH2 0xA5F JUMP JUMPDEST JUMPDEST PUSH1 0x0 PUSH2 0xB1D DUP6 DUP3 DUP7 ADD PUSH2 0xAAD JUMP JUMPDEST SWAP3 POP POP PUSH1 0x20 PUSH2 0xB2E DUP6 DUP3 DUP7 ADD PUSH2 0xAE3 JUMP JUMPDEST SWAP2 POP POP SWAP3 POP SWAP3 SWAP1 POP JUMP JUMPDEST PUSH1 0x0 DUP2 ISZERO ISZERO SWAP1 POP SWAP2 SWAP1 POP JUMP JUMPDEST PUSH2 0xB4D DUP2 PUSH2 0xB38 JUMP JUMPDEST DUP3 MSTORE POP POP JUMP JUMPDEST PUSH1 0x0 PUSH1 0x20 DUP3 ADD SWAP1 POP PUSH2 0xB68 PUSH1 0x0 DUP4 ADD DUP5 PUSH2 0xB44 JUMP JUMPDEST SWAP3 SWAP2 POP POP JUMP JUMPDEST PUSH2 0xB77 DUP2 PUSH2 0xA84 JUMP JUMPDEST DUP3 MSTORE POP POP JUMP JUMPDEST PUSH1 0x0 PUSH1 0x20 DUP3 ADD SWAP1 POP PUSH2 0xB92 PUSH1 0x0 DUP4 ADD DUP5 PUSH2 0xB6E JUMP JUMPDEST SWAP3 SWAP2 POP POP JUMP JUMPDEST PUSH2 0xBA1 DUP2 PUSH2 0xAC2 JUMP JUMPDEST DUP3 MSTORE POP POP JUMP JUMPDEST PUSH1 0x0 PUSH1 0x20 DUP3 ADD SWAP1 POP PUSH2 0xBBC PUSH1 0x0 DUP4 ADD DUP5 PUSH2 0xB98 JUMP JUMPDEST SWAP3 SWAP2 POP POP JUMP JUMPDEST PUSH1 0x0 DUP1 PUSH1 0x0 PUSH1 0x60 DUP5 DUP7 SUB SLT ISZERO PUSH2 0xBDB JUMPI PUSH2 0xBDA PUSH2 0xA5F JUMP JUMPDEST JUMPDEST PUSH1 0x0 PUSH2 0xBE9 DUP7 DUP3 DUP8 ADD PUSH2 0xAAD JUMP JUMPDEST SWAP4 POP POP PUSH1 0x20 PUSH2 0xBFA DUP7 DUP3 DUP8 ADD PUSH2 0xAAD JUMP JUMPDEST SWAP3 POP POP PUSH1 0x40 PUSH2 0xC0B DUP7 DUP3 DUP8 ADD PUSH2 0xAE3 JUMP JUMPDEST SWAP2 POP POP SWAP3 POP SWAP3 POP SWAP3 JUMP JUMPDEST PUSH1 0x0 PUSH1 0xFF DUP3 AND SWAP1 POP SWAP2 SWAP1 POP JUMP JUMPDEST PUSH2 0xC2B DUP2 PUSH2 0xC15 JUMP JUMPDEST DUP3 MSTORE POP POP JUMP JUMPDEST PUSH1 0x0 PUSH1 0x20 DUP3 ADD SWAP1 POP PUSH2 0xC46 PUSH1 0x0 DUP4 ADD DUP5 PUSH2 0xC22 JUMP JUMPDEST SWAP3 SWAP2 POP POP JUMP JUMPDEST PUSH1 0x0 PUSH1 0x20 DUP3 DUP5 SUB SLT ISZERO PUSH2 0xC62 JUMPI PUSH2 0xC61 PUSH2 0xA5F JUMP JUMPDEST JUMPDEST PUSH1 0x0 PUSH2 0xC70 DUP5 DUP3 DUP6 ADD PUSH2 0xAAD JUMP JUMPDEST SWAP2 POP POP SWAP3 SWAP2 POP POP JUMP JUMPDEST PUSH1 0x0 DUP1 PUSH1 0x40 DUP4 DUP6 SUB SLT ISZERO PUSH2 0xC90 JUMPI PUSH2 0xC8F PUSH2 0xA5F JUMP JUMPDEST JUMPDEST PUSH1 0x0 PUSH2 0xC9E DUP6 DUP3 DUP7 ADD PUSH2 0xAAD JUMP JUMPDEST SWAP3 POP POP PUSH1 0x20 PUSH2 0xCAF DUP6 DUP3 DUP7 ADD PUSH2 0xAAD JUMP JUMPDEST SWAP2 POP POP SWAP3 POP SWAP3 SWAP1 POP JUMP JUMPDEST PUSH32 0x4E487B7100000000000000000000000000000000000000000000000000000000 PUSH1 0x0 MSTORE PUSH1 0x11 PUSH1 0x4 MSTORE PUSH1 0x24 PUSH1 0x0 REVERT JUMPDEST PUSH1 0x0 PUSH2 0xCF3 DUP3 PUSH2 0xAC2 JUMP JUMPDEST SWAP2 POP PUSH2 0xCFE DUP4 PUSH2 0xAC2 JUMP JUMPDEST SWAP3 POP DUP3 DUP3 SUB SWAP1 POP DUP2 DUP2 GT ISZERO PUSH2 0xD16 JUMPI PUSH2 0xD15 PUSH2 0xCB9 JUMP JUMPDEST JUMPDEST SWAP3 SWAP2 POP POP JUMP JUMPDEST PUSH1 0x0 PUSH2 0xD27 DUP3 PUSH2 0xAC2 JUMP JUMPDEST SWAP2 POP PUSH2 0xD32 DUP4 PUSH2 0xAC2 JUMP JUMPDEST SWAP3 POP DUP3 DUP3 ADD SWAP1 POP DUP1 DUP3 GT ISZERO PUSH2 0xD4A JUMPI PUSH2 0xD49 PUSH2 0xCB9 JUMP JUMPDEST JUMPDEST SWAP3 SWAP2 POP POP JUMP INVALID LOG2 PUSH5 0x6970667358 0x22 SLT KECCAK256 0xB5 0xCE 0x5C 0xD8 0xDB 0xA5 ADD LOG0 GT 0x1E 0xEC 0x2E DIV MSTORE 0xCF CALLCODE 0xE4 0xD1 0xF9 0xDD 0xF PUSH25 0x898F77664B9255580C7664736F6C6343000812003300000000 "
				},
				"gasEstimates": {
					"creation": {
						"codeDepositCost": "692400",
						"executionCost": "47137",
						"totalCost": "739537"
					},
					"external": {
						"allowance(address,address)": "infinite",
						"approve(address,uint256)": "infinite",
						"balanceOf(address)": "2863",
						"decimals()": "335",
						"getcontractaddress()": "430",
						"name()": "infinite",
						"symbol()": "infinite",
						"totalSupply()": "2504",
						"transfer(address,uint256)": "infinite",
						"transferFrom(address,address,uint256)": "infinite"
					}
				},
				"methodIdentifiers": {
					"allowance(address,address)": "dd62ed3e",
					"approve(address,uint256)": "095ea7b3",
					"balanceOf(address)": "70a08231",
					"decimals()": "313ce567",
					"getcontractaddress()": "15621373",
					"name()": "06fdde03",
					"symbol()": "95d89b41",
					"totalSupply()": "18160ddd",
					"transfer(address,uint256)": "a9059cbb",
					"transferFrom(address,address,uint256)": "23b872dd"
				}
			},
			"storageLayout": {
				"storage": [
					{
						"astId": 83,
						"contract": "Assignment 4 Tokens/ERC-20.sol:ERC20Basic",
						"label": "balances",
						"offset": 0,
						"slot": "0",
						"type": "t_mapping(t_address,t_uint256)"
					},
					{
						"astId": 89,
						"contract": "Assignment 4 Tokens/ERC-20.sol:ERC20Basic",
						"label": "allowed",
						"offset": 0,
						"slot": "1",
						"type": "t_mapping(t_address,t_mapping(t_address,t_uint256))"
					},
					{
						"astId": 92,
						"contract": "Assignment 4 Tokens/ERC-20.sol:ERC20Basic",
						"label": "totalSupply_",
						"offset": 0,
						"slot": "2",
						"type": "t_uint256"
					}
				],
				"types": {
					"t_address": {
						"encoding": "inplace",
						"label": "address",
						"numberOfBytes": "20"
					},
					"t_mapping(t_address,t_mapping(t_address,t_uint256))": {
						"encoding": "mapping",
						"key": "t_address",
						"label": "mapping(address => mapping(address => uint256))",
						"numberOfBytes": "32",
						"value": "t_mapping(t_address,t_uint256)"
					},
					"t_mapping(t_address,t_uint256)": {
						"encoding": "mapping",
						"key": "t_address",
						"label": "mapping(address => uint256)",
						"numberOfBytes": "32",
						"value": "t_uint256"
					},
					"t_uint256": {
						"encoding": "inplace",
						"label": "uint256",
						"numberOfBytes": "32"
					}
				}
			},
			"userdoc": {
				"kind": "user",
				"methods": {},
				"version": 1
			}
		}
	}
}