{
	"data": {
		"bytecode": {
			"linkReferences": {},
			"object": "6080604052601460055560016006553480156200001b57600080fd5b5060405180608001604052806057815260200162004d2860579139620000566200004a6200009360201b60201c565b6200009b60201b60201c565b62000067816200015f60201b60201c565b506200008d3360016064604051806020016040528060008152506200017460201b60201c565b62001240565b600033905090565b60008060009054906101000a900473ffffffffffffffffffffffffffffffffffffffff169050816000806101000a81548173ffffffffffffffffffffffffffffffffffffffff021916908373ffffffffffffffffffffffffffffffffffffffff1602179055508173ffffffffffffffffffffffffffffffffffffffff168173ffffffffffffffffffffffffffffffffffffffff167f8be0079c531659141344cd1fd0a4f28419497f9722a3daafe3b4186f6b6457e060405160405180910390a35050565b806003908162000170919062000a7b565b5050565b600073ffffffffffffffffffffffffffffffffffffffff168473ffffffffffffffffffffffffffffffffffffffff1603620001e6576040517f08c379a0000000000000000000000000000000000000000000000000000000008152600401620001dd9062000be9565b60405180910390fd5b6000620001f86200009360201b60201c565b905060006200020d856200035c60201b60201c565b9050600062000222856200035c60201b60201c565b90506200023b83600089858589620003dd60201b60201c565b846001600088815260200190815260200160002060008973ffffffffffffffffffffffffffffffffffffffff1673ffffffffffffffffffffffffffffffffffffffff16815260200190815260200160002060008282546200029d919062000c3a565b925050819055508673ffffffffffffffffffffffffffffffffffffffff16600073ffffffffffffffffffffffffffffffffffffffff168473ffffffffffffffffffffffffffffffffffffffff167fc3d58168c5ae7397731d063d5bbf3d657854427343f4c083240f7aacaa2d0f6289896040516200031d92919062000c86565b60405180910390a46200033c83600089858589620005d560201b60201c565b6200035383600089898989620005dd60201b60201c565b50505050505050565b60606000600167ffffffffffffffff8111156200037e576200037d6200080c565b5b604051908082528060200260200182016040528015620003ad5781602001602082028036833780820191505090505b5090508281600081518110620003c857620003c762000cb3565b5b60200260200101818152505080915050919050565b620003f8868686868686620007d660201b62000ca51760201c565b600073ffffffffffffffffffffffffffffffffffffffff168573ffffffffffffffffffffffffffffffffffffffff1603620004b65760005b8351811015620004b45782818151811062000450576200044f62000cb3565b5b60200260200101516004600086848151811062000472576200047162000cb3565b5b60200260200101518152602001908152602001600020600082825462000499919062000c3a565b9250508190555080620004ac9062000ce2565b905062000430565b505b600073ffffffffffffffffffffffffffffffffffffffff168473ffffffffffffffffffffffffffffffffffffffff1603620005cd5760005b8351811015620005cb57600084828151811062000510576200050f62000cb3565b5b60200260200101519050600084838151811062000532576200053162000cb3565b5b60200260200101519050600060046000848152602001908152602001600020549050818110156200059a576040517f08c379a0000000000000000000000000000000000000000000000000000000008152600401620005919062000da5565b60405180910390fd5b818103600460008581526020019081526020016000208190555050505080620005c39062000ce2565b9050620004ee565b505b505050505050565b505050505050565b620006098473ffffffffffffffffffffffffffffffffffffffff16620007de60201b62000cad1760201c565b15620007ce578373ffffffffffffffffffffffffffffffffffffffff1663f23a6e6187878686866040518663ffffffff1660e01b81526004016200065295949392919062000ea6565b6020604051808303816000875af19250505080156200069157506040513d601f19601f820116820180604052508101906200068e919062000f76565b60015b6200074257620006a062000fb5565b806308c379a003620007035750620006b762001010565b80620006c4575062000705565b806040517f08c379a0000000000000000000000000000000000000000000000000000000008152600401620006fa9190620010ec565b60405180910390fd5b505b6040517f08c379a0000000000000000000000000000000000000000000000000000000008152600401620007399062001186565b60405180910390fd5b63f23a6e6160e01b7bffffffffffffffffffffffffffffffffffffffffffffffffffffffff1916817bffffffffffffffffffffffffffffffffffffffffffffffffffffffff191614620007cc576040517f08c379a0000000000000000000000000000000000000000000000000000000008152600401620007c3906200121e565b60405180910390fd5b505b505050505050565b505050505050565b6000808273ffffffffffffffffffffffffffffffffffffffff163b119050919050565b600081519050919050565b7f4e487b7100000000000000000000000000000000000000000000000000000000600052604160045260246000fd5b7f4e487b7100000000000000000000000000000000000000000000000000000000600052602260045260246000fd5b600060028204905060018216806200088357607f821691505b6020821081036200089957620008986200083b565b5b50919050565b60008190508160005260206000209050919050565b60006020601f8301049050919050565b600082821b905092915050565b600060088302620009037fffffffffffffffffffffffffffffffffffffffffffffffffffffffffffffffff82620008c4565b6200090f8683620008c4565b95508019841693508086168417925050509392505050565b6000819050919050565b6000819050919050565b60006200095c62000956620009508462000927565b62000931565b62000927565b9050919050565b6000819050919050565b62000978836200093b565b62000990620009878262000963565b848454620008d1565b825550505050565b600090565b620009a762000998565b620009b48184846200096d565b505050565b5b81811015620009dc57620009d06000826200099d565b600181019050620009ba565b5050565b601f82111562000a2b57620009f5816200089f565b62000a0084620008b4565b8101602085101562000a10578190505b62000a2862000a1f85620008b4565b830182620009b9565b50505b505050565b600082821c905092915050565b600062000a506000198460080262000a30565b1980831691505092915050565b600062000a6b838362000a3d565b9150826002028217905092915050565b62000a868262000801565b67ffffffffffffffff81111562000aa25762000aa16200080c565b5b62000aae82546200086a565b62000abb828285620009e0565b600060209050601f83116001811462000af3576000841562000ade578287015190505b62000aea858262000a5d565b86555062000b5a565b601f19841662000b03866200089f565b60005b8281101562000b2d5784890151825560018201915060208501945060208101905062000b06565b8683101562000b4d578489015162000b49601f89168262000a3d565b8355505b6001600288020188555050505b505050505050565b600082825260208201905092915050565b7f455243313135353a206d696e7420746f20746865207a65726f2061646472657360008201527f7300000000000000000000000000000000000000000000000000000000000000602082015250565b600062000bd160218362000b62565b915062000bde8262000b73565b604082019050919050565b6000602082019050818103600083015262000c048162000bc2565b9050919050565b7f4e487b7100000000000000000000000000000000000000000000000000000000600052601160045260246000fd5b600062000c478262000927565b915062000c548362000927565b925082820190508082111562000c6f5762000c6e62000c0b565b5b92915050565b62000c808162000927565b82525050565b600060408201905062000c9d600083018562000c75565b62000cac602083018462000c75565b9392505050565b7f4e487b7100000000000000000000000000000000000000000000000000000000600052603260045260246000fd5b600062000cef8262000927565b91507fffffffffffffffffffffffffffffffffffffffffffffffffffffffffffffffff820362000d245762000d2362000c0b565b5b600182019050919050565b7f455243313135353a206275726e20616d6f756e74206578636565647320746f7460008201527f616c537570706c79000000000000000000000000000000000000000000000000602082015250565b600062000d8d60288362000b62565b915062000d9a8262000d2f565b604082019050919050565b6000602082019050818103600083015262000dc08162000d7e565b9050919050565b600073ffffffffffffffffffffffffffffffffffffffff82169050919050565b600062000df48262000dc7565b9050919050565b62000e068162000de7565b82525050565b600081519050919050565b600082825260208201905092915050565b60005b8381101562000e4857808201518184015260208101905062000e2b565b60008484015250505050565b6000601f19601f8301169050919050565b600062000e728262000e0c565b62000e7e818562000e17565b935062000e9081856020860162000e28565b62000e9b8162000e54565b840191505092915050565b600060a08201905062000ebd600083018862000dfb565b62000ecc602083018762000dfb565b62000edb604083018662000c75565b62000eea606083018562000c75565b818103608083015262000efe818462000e65565b90509695505050505050565b6000604051905090565b600080fd5b60007fffffffff0000000000000000000000000000000000000000000000000000000082169050919050565b62000f508162000f19565b811462000f5c57600080fd5b50565b60008151905062000f708162000f45565b92915050565b60006020828403121562000f8f5762000f8e62000f14565b5b600062000f9f8482850162000f5f565b91505092915050565b60008160e01c9050919050565b600060033d111562000fd75760046000803e62000fd460005162000fa8565b90505b90565b62000fe58262000e54565b810181811067ffffffffffffffff821117156200100757620010066200080c565b5b80604052505050565b600060443d10620010a8576200102562000f0a565b60043d036004823e80513d602482011167ffffffffffffffff821117156200104f575050620010a8565b808201805167ffffffffffffffff8111156200106f5750505050620010a8565b80602083010160043d0385018111156200108e575050505050620010a8565b6200109f8260200185018662000fda565b82955050505050505b90565b6000620010b88262000801565b620010c4818562000b62565b9350620010d681856020860162000e28565b620010e18162000e54565b840191505092915050565b60006020820190508181036000830152620011088184620010ab565b905092915050565b7f455243313135353a207472616e7366657220746f206e6f6e2d4552433131353560008201527f526563656976657220696d706c656d656e746572000000000000000000000000602082015250565b60006200116e60348362000b62565b91506200117b8262001110565b604082019050919050565b60006020820190508181036000830152620011a1816200115f565b9050919050565b7f455243313135353a204552433131353552656365697665722072656a6563746560008201527f6420746f6b656e73000000000000000000000000000000000000000000000000602082015250565b60006200120660288362000b62565b91506200121382620011a8565b604082019050919050565b600060208201905081810360008301526200123981620011f7565b9050919050565b613ad880620012506000396000f3fe6080604052600436106101285760003560e01c80634f558e79116100ab578063a22cb4651161006f578063a22cb46514610409578063bd85b03914610432578063d5abeb011461046f578063e985e9c51461049a578063f242432a146104d7578063f2fde38b1461050057610128565b80634f558e79146103225780635977e82a1461035f5780635c0656001461039c578063715018a6146103c75780638da5cb5b146103de57610128565b80630e89341c116100f25780630e89341c1461023857806315621373146102755780631b2ef1ca146102a05780632eb2c2d6146102bc5780634e1273f4146102e557610128565b8062f748671461012d578062fdd58e1461016a57806301ffc9a7146101a757806302fe5305146101e45780630673d7d01461020d575b600080fd5b34801561013957600080fd5b50610154600480360381019061014f91906120d3565b610529565b604051610161919061212e565b60405180910390f35b34801561017657600080fd5b50610191600480360381019061018c9190612149565b610540565b60405161019e9190612198565b60405180910390f35b3480156101b357600080fd5b506101ce60048036038101906101c9919061220b565b610609565b6040516101db919061212e565b60405180910390f35b3480156101f057600080fd5b5061020b6004803603810190610206919061237e565b6106eb565b005b34801561021957600080fd5b506102226106ff565b60405161022f9190612198565b60405180910390f35b34801561024457600080fd5b5061025f600480360381019061025a91906123c7565b610704565b60405161026c9190612473565b60405180910390f35b34801561028157600080fd5b5061028a610787565b60405161029791906124a4565b60405180910390f35b6102ba60048036038101906102b591906124bf565b61078f565b005b3480156102c857600080fd5b506102e360048036038101906102de9190612668565b61088b565b005b3480156102f157600080fd5b5061030c600480360381019061030791906127fa565b61092c565b6040516103199190612930565b60405180910390f35b34801561032e57600080fd5b50610349600480360381019061034491906123c7565b610a45565b604051610356919061212e565b60405180910390f35b34801561036b57600080fd5b50610386600480360381019061038191906123c7565b610a59565b6040516103939190612198565b60405180910390f35b3480156103a857600080fd5b506103b1610a71565b6040516103be9190612198565b60405180910390f35b3480156103d357600080fd5b506103dc610a77565b005b3480156103ea57600080fd5b506103f3610a8b565b60405161040091906124a4565b60405180910390f35b34801561041557600080fd5b50610430600480360381019061042b919061297e565b610ab4565b005b34801561043e57600080fd5b50610459600480360381019061045491906123c7565b610aca565b6040516104669190612198565b60405180910390f35b34801561047b57600080fd5b50610484610ae7565b6040516104919190612198565b60405180910390f35b3480156104a657600080fd5b506104c160048036038101906104bc91906129be565b610aed565b6040516104ce919061212e565b60405180910390f35b3480156104e357600080fd5b506104fe60048036038101906104f991906129fe565b610b81565b005b34801561050c57600080fd5b5061052760048036038101906105229190612a95565b610c22565b005b6000806105368385610540565b1415905092915050565b60008073ffffffffffffffffffffffffffffffffffffffff168373ffffffffffffffffffffffffffffffffffffffff16036105b0576040517f08c379a00000000000000000000000000000000000000000000000000000000081526004016105a790612b34565b60405180910390fd5b6001600083815260200190815260200160002060008473ffffffffffffffffffffffffffffffffffffffff1673ffffffffffffffffffffffffffffffffffffffff16815260200190815260200160002054905092915050565b60007fd9b67a26000000000000000000000000000000000000000000000000000000007bffffffffffffffffffffffffffffffffffffffffffffffffffffffff1916827bffffffffffffffffffffffffffffffffffffffffffffffffffffffff191614806106d457507f0e89341c000000000000000000000000000000000000000000000000000000007bffffffffffffffffffffffffffffffffffffffffffffffffffffffff1916827bffffffffffffffffffffffffffffffffffffffffffffffffffffffff1916145b806106e457506106e382610cd0565b5b9050919050565b6106f3610d3a565b6106fc81610db8565b50565b600181565b606061070f82610a45565b61074e576040517f08c379a000000000000000000000000000000000000000000000000000000000815260040161074590612ba0565b60405180910390fd5b61075782610dcb565b61076083610e5f565b604051602001610771929190612c48565b6040516020818303038152906040529050919050565b600030905090565b8060065461079d9190612ca6565b3410156107df576040517f08c379a00000000000000000000000000000000000000000000000000000000081526004016107d690612d34565b60405180910390fd5b6005548160076000858152602001908152602001600020546108019190612d54565b1115610842576040517f08c379a000000000000000000000000000000000000000000000000000000000815260040161083990612dd4565b60405180910390fd5b61085d33838360405180602001604052806000815250610f2d565b806007600084815260200190815260200160002060008282546108809190612d54565b925050819055505050565b6108936110de565b73ffffffffffffffffffffffffffffffffffffffff168573ffffffffffffffffffffffffffffffffffffffff1614806108d957506108d8856108d36110de565b610aed565b5b610918576040517f08c379a000000000000000000000000000000000000000000000000000000000815260040161090f90612e66565b60405180910390fd5b61092585858585856110e6565b5050505050565b60608151835114610972576040517f08c379a000000000000000000000000000000000000000000000000000000000815260040161096990612ef8565b60405180910390fd5b6000835167ffffffffffffffff81111561098f5761098e612253565b5b6040519080825280602002602001820160405280156109bd5781602001602082028036833780820191505090505b50905060005b8451811015610a3a57610a0a8582815181106109e2576109e1612f18565b5b60200260200101518583815181106109fd576109fc612f18565b5b6020026020010151610540565b828281518110610a1d57610a1c612f18565b5b60200260200101818152505080610a3390612f47565b90506109c3565b508091505092915050565b600080610a5183610aca565b119050919050565b60076020528060005260406000206000915090505481565b60065481565b610a7f610d3a565b610a89600061140a565b565b60008060009054906101000a900473ffffffffffffffffffffffffffffffffffffffff16905090565b610ac6610abf6110de565b83836114ce565b5050565b600060046000838152602001908152602001600020549050919050565b60055481565b6000600260008473ffffffffffffffffffffffffffffffffffffffff1673ffffffffffffffffffffffffffffffffffffffff16815260200190815260200160002060008373ffffffffffffffffffffffffffffffffffffffff1673ffffffffffffffffffffffffffffffffffffffff16815260200190815260200160002060009054906101000a900460ff16905092915050565b610b896110de565b73ffffffffffffffffffffffffffffffffffffffff168573ffffffffffffffffffffffffffffffffffffffff161480610bcf5750610bce85610bc96110de565b610aed565b5b610c0e576040517f08c379a0000000000000000000000000000000000000000000000000000000008152600401610c0590612e66565b60405180910390fd5b610c1b858585858561163a565b5050505050565b610c2a610d3a565b600073ffffffffffffffffffffffffffffffffffffffff168173ffffffffffffffffffffffffffffffffffffffff1603610c99576040517f08c379a0000000000000000000000000000000000000000000000000000000008152600401610c9090613001565b60405180910390fd5b610ca28161140a565b50565b505050505050565b6000808273ffffffffffffffffffffffffffffffffffffffff163b119050919050565b60007f01ffc9a7000000000000000000000000000000000000000000000000000000007bffffffffffffffffffffffffffffffffffffffffffffffffffffffff1916827bffffffffffffffffffffffffffffffffffffffffffffffffffffffff1916149050919050565b610d426110de565b73ffffffffffffffffffffffffffffffffffffffff16610d60610a8b565b73ffffffffffffffffffffffffffffffffffffffff1614610db6576040517f08c379a0000000000000000000000000000000000000000000000000000000008152600401610dad9061306d565b60405180910390fd5b565b8060039081610dc79190613299565b5050565b606060038054610dda906130bc565b80601f0160208091040260200160405190810160405280929190818152602001828054610e06906130bc565b8015610e535780601f10610e2857610100808354040283529160200191610e53565b820191906000526020600020905b815481529060010190602001808311610e3657829003601f168201915b50505050509050919050565b606060006001610e6e846118d8565b01905060008167ffffffffffffffff811115610e8d57610e8c612253565b5b6040519080825280601f01601f191660200182016040528015610ebf5781602001600182028036833780820191505090505b509050600082602001820190505b600115610f22578080600190039150507f3031323334353637383961626364656600000000000000000000000000000000600a86061a8153600a8581610f1657610f1561336b565b5b04945060008503610ecd575b819350505050919050565b600073ffffffffffffffffffffffffffffffffffffffff168473ffffffffffffffffffffffffffffffffffffffff1603610f9c576040517f08c379a0000000000000000000000000000000000000000000000000000000008152600401610f939061340c565b60405180910390fd5b6000610fa66110de565b90506000610fb385611a2b565b90506000610fc085611a2b565b9050610fd183600089858589611aa5565b846001600088815260200190815260200160002060008973ffffffffffffffffffffffffffffffffffffffff1673ffffffffffffffffffffffffffffffffffffffff16815260200190815260200160002060008282546110319190612d54565b925050819055508673ffffffffffffffffffffffffffffffffffffffff16600073ffffffffffffffffffffffffffffffffffffffff168473ffffffffffffffffffffffffffffffffffffffff167fc3d58168c5ae7397731d063d5bbf3d657854427343f4c083240f7aacaa2d0f6289896040516110af92919061342c565b60405180910390a46110c683600089858589611c75565b6110d583600089898989611c7d565b50505050505050565b600033905090565b815183511461112a576040517f08c379a0000000000000000000000000000000000000000000000000000000008152600401611121906134c7565b60405180910390fd5b600073ffffffffffffffffffffffffffffffffffffffff168473ffffffffffffffffffffffffffffffffffffffff1603611199576040517f08c379a000000000000000000000000000000000000000000000000000000000815260040161119090613559565b60405180910390fd5b60006111a36110de565b90506111b3818787878787611aa5565b60005b84518110156113675760008582815181106111d4576111d3612f18565b5b6020026020010151905060008583815181106111f3576111f2612f18565b5b6020026020010151905060006001600084815260200190815260200160002060008b73ffffffffffffffffffffffffffffffffffffffff1673ffffffffffffffffffffffffffffffffffffffff16815260200190815260200160002054905081811015611295576040517f08c379a000000000000000000000000000000000000000000000000000000000815260040161128c906135eb565b60405180910390fd5b8181036001600085815260200190815260200160002060008c73ffffffffffffffffffffffffffffffffffffffff1673ffffffffffffffffffffffffffffffffffffffff16815260200190815260200160002081905550816001600085815260200190815260200160002060008b73ffffffffffffffffffffffffffffffffffffffff1673ffffffffffffffffffffffffffffffffffffffff168152602001908152602001600020600082825461134c9190612d54565b925050819055505050508061136090612f47565b90506111b6565b508473ffffffffffffffffffffffffffffffffffffffff168673ffffffffffffffffffffffffffffffffffffffff168273ffffffffffffffffffffffffffffffffffffffff167f4a39dc06d4c0dbc64b70af90fd698a233a518aa5d07e595d983b8c0526c8f7fb87876040516113de92919061360b565b60405180910390a46113f4818787878787611c75565b611402818787878787611e54565b505050505050565b60008060009054906101000a900473ffffffffffffffffffffffffffffffffffffffff169050816000806101000a81548173ffffffffffffffffffffffffffffffffffffffff021916908373ffffffffffffffffffffffffffffffffffffffff1602179055508173ffffffffffffffffffffffffffffffffffffffff168173ffffffffffffffffffffffffffffffffffffffff167f8be0079c531659141344cd1fd0a4f28419497f9722a3daafe3b4186f6b6457e060405160405180910390a35050565b8173ffffffffffffffffffffffffffffffffffffffff168373ffffffffffffffffffffffffffffffffffffffff160361153c576040517f08c379a0000000000000000000000000000000000000000000000000000000008152600401611533906136b4565b60405180910390fd5b80600260008573ffffffffffffffffffffffffffffffffffffffff1673ffffffffffffffffffffffffffffffffffffffff16815260200190815260200160002060008473ffffffffffffffffffffffffffffffffffffffff1673ffffffffffffffffffffffffffffffffffffffff16815260200190815260200160002060006101000a81548160ff0219169083151502179055508173ffffffffffffffffffffffffffffffffffffffff168373ffffffffffffffffffffffffffffffffffffffff167f17307eab39ab6107e8899845ad3d59bd9653f200f220920489ca2b5937696c318360405161162d919061212e565b60405180910390a3505050565b600073ffffffffffffffffffffffffffffffffffffffff168473ffffffffffffffffffffffffffffffffffffffff16036116a9576040517f08c379a00000000000000000000000000000000000000000000000000000000081526004016116a090613559565b60405180910390fd5b60006116b36110de565b905060006116c085611a2b565b905060006116cd85611a2b565b90506116dd838989858589611aa5565b60006001600088815260200190815260200160002060008a73ffffffffffffffffffffffffffffffffffffffff1673ffffffffffffffffffffffffffffffffffffffff16815260200190815260200160002054905085811015611775576040517f08c379a000000000000000000000000000000000000000000000000000000000815260040161176c906135eb565b60405180910390fd5b8581036001600089815260200190815260200160002060008b73ffffffffffffffffffffffffffffffffffffffff1673ffffffffffffffffffffffffffffffffffffffff16815260200190815260200160002081905550856001600089815260200190815260200160002060008a73ffffffffffffffffffffffffffffffffffffffff1673ffffffffffffffffffffffffffffffffffffffff168152602001908152602001600020600082825461182c9190612d54565b925050819055508773ffffffffffffffffffffffffffffffffffffffff168973ffffffffffffffffffffffffffffffffffffffff168573ffffffffffffffffffffffffffffffffffffffff167fc3d58168c5ae7397731d063d5bbf3d657854427343f4c083240f7aacaa2d0f628a8a6040516118a992919061342c565b60405180910390a46118bf848a8a86868a611c75565b6118cd848a8a8a8a8a611c7d565b505050505050505050565b600080600090507a184f03e93ff9f4daa797ed6e38ed64bf6a1f0100000000000000008310611936577a184f03e93ff9f4daa797ed6e38ed64bf6a1f010000000000000000838161192c5761192b61336b565b5b0492506040810190505b6d04ee2d6d415b85acef81000000008310611973576d04ee2d6d415b85acef810000000083816119695761196861336b565b5b0492506020810190505b662386f26fc1000083106119a257662386f26fc1000083816119985761199761336b565b5b0492506010810190505b6305f5e10083106119cb576305f5e10083816119c1576119c061336b565b5b0492506008810190505b61271083106119f05761271083816119e6576119e561336b565b5b0492506004810190505b60648310611a135760648381611a0957611a0861336b565b5b0492506002810190505b600a8310611a22576001810190505b80915050919050565b60606000600167ffffffffffffffff811115611a4a57611a49612253565b5b604051908082528060200260200182016040528015611a785781602001602082028036833780820191505090505b5090508281600081518110611a9057611a8f612f18565b5b60200260200101818152505080915050919050565b611ab3868686868686610ca5565b600073ffffffffffffffffffffffffffffffffffffffff168573ffffffffffffffffffffffffffffffffffffffff1603611b645760005b8351811015611b6257828181518110611b0657611b05612f18565b5b602002602001015160046000868481518110611b2557611b24612f18565b5b602002602001015181526020019081526020016000206000828254611b4a9190612d54565b9250508190555080611b5b90612f47565b9050611aea565b505b600073ffffffffffffffffffffffffffffffffffffffff168473ffffffffffffffffffffffffffffffffffffffff1603611c6d5760005b8351811015611c6b576000848281518110611bb957611bb8612f18565b5b602002602001015190506000848381518110611bd857611bd7612f18565b5b6020026020010151905060006004600084815260200190815260200160002054905081811015611c3d576040517f08c379a0000000000000000000000000000000000000000000000000000000008152600401611c3490613746565b60405180910390fd5b818103600460008581526020019081526020016000208190555050505080611c6490612f47565b9050611b9b565b505b505050505050565b505050505050565b611c9c8473ffffffffffffffffffffffffffffffffffffffff16610cad565b15611e4c578373ffffffffffffffffffffffffffffffffffffffff1663f23a6e6187878686866040518663ffffffff1660e01b8152600401611ce29594939291906137bb565b6020604051808303816000875af1925050508015611d1e57506040513d601f19601f82011682018060405250810190611d1b919061382a565b60015b611dc357611d2a613864565b806308c379a003611d865750611d3e613886565b80611d495750611d88565b806040517f08c379a0000000000000000000000000000000000000000000000000000000008152600401611d7d9190612473565b60405180910390fd5b505b6040517f08c379a0000000000000000000000000000000000000000000000000000000008152600401611dba90613988565b60405180910390fd5b63f23a6e6160e01b7bffffffffffffffffffffffffffffffffffffffffffffffffffffffff1916817bffffffffffffffffffffffffffffffffffffffffffffffffffffffff191614611e4a576040517f08c379a0000000000000000000000000000000000000000000000000000000008152600401611e4190613a1a565b60405180910390fd5b505b505050505050565b611e738473ffffffffffffffffffffffffffffffffffffffff16610cad565b15612023578373ffffffffffffffffffffffffffffffffffffffff1663bc197c8187878686866040518663ffffffff1660e01b8152600401611eb9959493929190613a3a565b6020604051808303816000875af1925050508015611ef557506040513d601f19601f82011682018060405250810190611ef2919061382a565b60015b611f9a57611f01613864565b806308c379a003611f5d5750611f15613886565b80611f205750611f5f565b806040517f08c379a0000000000000000000000000000000000000000000000000000000008152600401611f549190612473565b60405180910390fd5b505b6040517f08c379a0000000000000000000000000000000000000000000000000000000008152600401611f9190613988565b60405180910390fd5b63bc197c8160e01b7bffffffffffffffffffffffffffffffffffffffffffffffffffffffff1916817bffffffffffffffffffffffffffffffffffffffffffffffffffffffff191614612021576040517f08c379a000000000000000000000000000000000000000000000000000000000815260040161201890613a1a565b60405180910390fd5b505b505050505050565b6000604051905090565b600080fd5b600080fd5b6000819050919050565b6120528161203f565b811461205d57600080fd5b50565b60008135905061206f81612049565b92915050565b600073ffffffffffffffffffffffffffffffffffffffff82169050919050565b60006120a082612075565b9050919050565b6120b081612095565b81146120bb57600080fd5b50565b6000813590506120cd816120a7565b92915050565b600080604083850312156120ea576120e9612035565b5b60006120f885828601612060565b9250506020612109858286016120be565b9150509250929050565b60008115159050919050565b61212881612113565b82525050565b6000602082019050612143600083018461211f565b92915050565b600080604083850312156121605761215f612035565b5b600061216e858286016120be565b925050602061217f85828601612060565b9150509250929050565b6121928161203f565b82525050565b60006020820190506121ad6000830184612189565b92915050565b60007fffffffff0000000000000000000000000000000000000000000000000000000082169050919050565b6121e8816121b3565b81146121f357600080fd5b50565b600081359050612205816121df565b92915050565b60006020828403121561222157612220612035565b5b600061222f848285016121f6565b91505092915050565b600080fd5b600080fd5b6000601f19601f8301169050919050565b7f4e487b7100000000000000000000000000000000000000000000000000000000600052604160045260246000fd5b61228b82612242565b810181811067ffffffffffffffff821117156122aa576122a9612253565b5b80604052505050565b60006122bd61202b565b90506122c98282612282565b919050565b600067ffffffffffffffff8211156122e9576122e8612253565b5b6122f282612242565b9050602081019050919050565b82818337600083830152505050565b600061232161231c846122ce565b6122b3565b90508281526020810184848401111561233d5761233c61223d565b5b6123488482856122ff565b509392505050565b600082601f83011261236557612364612238565b5b813561237584826020860161230e565b91505092915050565b60006020828403121561239457612393612035565b5b600082013567ffffffffffffffff8111156123b2576123b161203a565b5b6123be84828501612350565b91505092915050565b6000602082840312156123dd576123dc612035565b5b60006123eb84828501612060565b91505092915050565b600081519050919050565b600082825260208201905092915050565b60005b8381101561242e578082015181840152602081019050612413565b60008484015250505050565b6000612445826123f4565b61244f81856123ff565b935061245f818560208601612410565b61246881612242565b840191505092915050565b6000602082019050818103600083015261248d818461243a565b905092915050565b61249e81612095565b82525050565b60006020820190506124b96000830184612495565b92915050565b600080604083850312156124d6576124d5612035565b5b60006124e485828601612060565b92505060206124f585828601612060565b9150509250929050565b600067ffffffffffffffff82111561251a57612519612253565b5b602082029050602081019050919050565b600080fd5b600061254361253e846124ff565b6122b3565b905080838252602082019050602084028301858111156125665761256561252b565b5b835b8181101561258f578061257b8882612060565b845260208401935050602081019050612568565b5050509392505050565b600082601f8301126125ae576125ad612238565b5b81356125be848260208601612530565b91505092915050565b600067ffffffffffffffff8211156125e2576125e1612253565b5b6125eb82612242565b9050602081019050919050565b600061260b612606846125c7565b6122b3565b9050828152602081018484840111156126275761262661223d565b5b6126328482856122ff565b509392505050565b600082601f83011261264f5761264e612238565b5b813561265f8482602086016125f8565b91505092915050565b600080600080600060a0868803121561268457612683612035565b5b6000612692888289016120be565b95505060206126a3888289016120be565b945050604086013567ffffffffffffffff8111156126c4576126c361203a565b5b6126d088828901612599565b935050606086013567ffffffffffffffff8111156126f1576126f061203a565b5b6126fd88828901612599565b925050608086013567ffffffffffffffff81111561271e5761271d61203a565b5b61272a8882890161263a565b9150509295509295909350565b600067ffffffffffffffff82111561275257612751612253565b5b602082029050602081019050919050565b600061277661277184612737565b6122b3565b905080838252602082019050602084028301858111156127995761279861252b565b5b835b818110156127c257806127ae88826120be565b84526020840193505060208101905061279b565b5050509392505050565b600082601f8301126127e1576127e0612238565b5b81356127f1848260208601612763565b91505092915050565b6000806040838503121561281157612810612035565b5b600083013567ffffffffffffffff81111561282f5761282e61203a565b5b61283b858286016127cc565b925050602083013567ffffffffffffffff81111561285c5761285b61203a565b5b61286885828601612599565b9150509250929050565b600081519050919050565b600082825260208201905092915050565b6000819050602082019050919050565b6128a78161203f565b82525050565b60006128b9838361289e565b60208301905092915050565b6000602082019050919050565b60006128dd82612872565b6128e7818561287d565b93506128f28361288e565b8060005b8381101561292357815161290a88826128ad565b9750612915836128c5565b9250506001810190506128f6565b5085935050505092915050565b6000602082019050818103600083015261294a81846128d2565b905092915050565b61295b81612113565b811461296657600080fd5b50565b60008135905061297881612952565b92915050565b6000806040838503121561299557612994612035565b5b60006129a3858286016120be565b92505060206129b485828601612969565b9150509250929050565b600080604083850312156129d5576129d4612035565b5b60006129e3858286016120be565b92505060206129f4858286016120be565b9150509250929050565b600080600080600060a08688031215612a1a57612a19612035565b5b6000612a28888289016120be565b9550506020612a39888289016120be565b9450506040612a4a88828901612060565b9350506060612a5b88828901612060565b925050608086013567ffffffffffffffff811115612a7c57612a7b61203a565b5b612a888882890161263a565b9150509295509295909350565b600060208284031215612aab57612aaa612035565b5b6000612ab9848285016120be565b91505092915050565b7f455243313135353a2061646472657373207a65726f206973206e6f742061207660008201527f616c6964206f776e657200000000000000000000000000000000000000000000602082015250565b6000612b1e602a836123ff565b9150612b2982612ac2565b604082019050919050565b60006020820190508181036000830152612b4d81612b11565b9050919050565b7f757269206e6f742065786973747320746f6b656e000000000000000000000000600082015250565b6000612b8a6014836123ff565b9150612b9582612b54565b602082019050919050565b60006020820190508181036000830152612bb981612b7d565b9050919050565b600081905092915050565b6000612bd6826123f4565b612be08185612bc0565b9350612bf0818560208601612410565b80840191505092915050565b7f2e6a736f6e000000000000000000000000000000000000000000000000000000600082015250565b6000612c32600583612bc0565b9150612c3d82612bfc565b600582019050919050565b6000612c548285612bcb565b9150612c608284612bcb565b9150612c6b82612c25565b91508190509392505050565b7f4e487b7100000000000000000000000000000000000000000000000000000000600052601160045260246000fd5b6000612cb18261203f565b9150612cbc8361203f565b9250828202612cca8161203f565b91508282048414831517612ce157612ce0612c77565b5b5092915050565b7f6e6f7420656e6f756768206d6f6e657900000000000000000000000000000000600082015250565b6000612d1e6010836123ff565b9150612d2982612ce8565b602082019050919050565b60006020820190508181036000830152612d4d81612d11565b9050919050565b6000612d5f8261203f565b9150612d6a8361203f565b9250828201905080821115612d8257612d81612c77565b5b92915050565b7f45786365656473206d6178696d756d20737570706c7900000000000000000000600082015250565b6000612dbe6016836123ff565b9150612dc982612d88565b602082019050919050565b60006020820190508181036000830152612ded81612db1565b9050919050565b7f455243313135353a2063616c6c6572206973206e6f7420746f6b656e206f776e60008201527f6572206f7220617070726f766564000000000000000000000000000000000000602082015250565b6000612e50602e836123ff565b9150612e5b82612df4565b604082019050919050565b60006020820190508181036000830152612e7f81612e43565b9050919050565b7f455243313135353a206163636f756e747320616e6420696473206c656e67746860008201527f206d69736d617463680000000000000000000000000000000000000000000000602082015250565b6000612ee26029836123ff565b9150612eed82612e86565b604082019050919050565b60006020820190508181036000830152612f1181612ed5565b9050919050565b7f4e487b7100000000000000000000000000000000000000000000000000000000600052603260045260246000fd5b6000612f528261203f565b91507fffffffffffffffffffffffffffffffffffffffffffffffffffffffffffffffff8203612f8457612f83612c77565b5b600182019050919050565b7f4f776e61626c653a206e6577206f776e657220697320746865207a65726f206160008201527f6464726573730000000000000000000000000000000000000000000000000000602082015250565b6000612feb6026836123ff565b9150612ff682612f8f565b604082019050919050565b6000602082019050818103600083015261301a81612fde565b9050919050565b7f4f776e61626c653a2063616c6c6572206973206e6f7420746865206f776e6572600082015250565b60006130576020836123ff565b915061306282613021565b602082019050919050565b600060208201905081810360008301526130868161304a565b9050919050565b7f4e487b7100000000000000000000000000000000000000000000000000000000600052602260045260246000fd5b600060028204905060018216806130d457607f821691505b6020821081036130e7576130e661308d565b5b50919050565b60008190508160005260206000209050919050565b60006020601f8301049050919050565b600082821b905092915050565b60006008830261314f7fffffffffffffffffffffffffffffffffffffffffffffffffffffffffffffffff82613112565b6131598683613112565b95508019841693508086168417925050509392505050565b6000819050919050565b600061319661319161318c8461203f565b613171565b61203f565b9050919050565b6000819050919050565b6131b08361317b565b6131c46131bc8261319d565b84845461311f565b825550505050565b600090565b6131d96131cc565b6131e48184846131a7565b505050565b5b81811015613208576131fd6000826131d1565b6001810190506131ea565b5050565b601f82111561324d5761321e816130ed565b61322784613102565b81016020851015613236578190505b61324a61324285613102565b8301826131e9565b50505b505050565b600082821c905092915050565b600061327060001984600802613252565b1980831691505092915050565b6000613289838361325f565b9150826002028217905092915050565b6132a2826123f4565b67ffffffffffffffff8111156132bb576132ba612253565b5b6132c582546130bc565b6132d082828561320c565b600060209050601f83116001811461330357600084156132f1578287015190505b6132fb858261327d565b865550613363565b601f198416613311866130ed565b60005b8281101561333957848901518255600182019150602085019450602081019050613314565b868310156133565784890151613352601f89168261325f565b8355505b6001600288020188555050505b505050505050565b7f4e487b7100000000000000000000000000000000000000000000000000000000600052601260045260246000fd5b7f455243313135353a206d696e7420746f20746865207a65726f2061646472657360008201527f7300000000000000000000000000000000000000000000000000000000000000602082015250565b60006133f66021836123ff565b91506134018261339a565b604082019050919050565b60006020820190508181036000830152613425816133e9565b9050919050565b60006040820190506134416000830185612189565b61344e6020830184612189565b9392505050565b7f455243313135353a2069647320616e6420616d6f756e7473206c656e6774682060008201527f6d69736d61746368000000000000000000000000000000000000000000000000602082015250565b60006134b16028836123ff565b91506134bc82613455565b604082019050919050565b600060208201905081810360008301526134e0816134a4565b9050919050565b7f455243313135353a207472616e7366657220746f20746865207a65726f20616460008201527f6472657373000000000000000000000000000000000000000000000000000000602082015250565b60006135436025836123ff565b915061354e826134e7565b604082019050919050565b6000602082019050818103600083015261357281613536565b9050919050565b7f455243313135353a20696e73756666696369656e742062616c616e636520666f60008201527f72207472616e7366657200000000000000000000000000000000000000000000602082015250565b60006135d5602a836123ff565b91506135e082613579565b604082019050919050565b60006020820190508181036000830152613604816135c8565b9050919050565b6000604082019050818103600083015261362581856128d2565b9050818103602083015261363981846128d2565b90509392505050565b7f455243313135353a2073657474696e6720617070726f76616c2073746174757360008201527f20666f722073656c660000000000000000000000000000000000000000000000602082015250565b600061369e6029836123ff565b91506136a982613642565b604082019050919050565b600060208201905081810360008301526136cd81613691565b9050919050565b7f455243313135353a206275726e20616d6f756e74206578636565647320746f7460008201527f616c537570706c79000000000000000000000000000000000000000000000000602082015250565b60006137306028836123ff565b915061373b826136d4565b604082019050919050565b6000602082019050818103600083015261375f81613723565b9050919050565b600081519050919050565b600082825260208201905092915050565b600061378d82613766565b6137978185613771565b93506137a7818560208601612410565b6137b081612242565b840191505092915050565b600060a0820190506137d06000830188612495565b6137dd6020830187612495565b6137ea6040830186612189565b6137f76060830185612189565b81810360808301526138098184613782565b90509695505050505050565b600081519050613824816121df565b92915050565b6000602082840312156138405761383f612035565b5b600061384e84828501613815565b91505092915050565b60008160e01c9050919050565b600060033d11156138835760046000803e613880600051613857565b90505b90565b600060443d106139135761389861202b565b60043d036004823e80513d602482011167ffffffffffffffff821117156138c0575050613913565b808201805167ffffffffffffffff8111156138de5750505050613913565b80602083010160043d0385018111156138fb575050505050613913565b61390a82602001850186612282565b82955050505050505b90565b7f455243313135353a207472616e7366657220746f206e6f6e2d4552433131353560008201527f526563656976657220696d706c656d656e746572000000000000000000000000602082015250565b60006139726034836123ff565b915061397d82613916565b604082019050919050565b600060208201905081810360008301526139a181613965565b9050919050565b7f455243313135353a204552433131353552656365697665722072656a6563746560008201527f6420746f6b656e73000000000000000000000000000000000000000000000000602082015250565b6000613a046028836123ff565b9150613a0f826139a8565b604082019050919050565b60006020820190508181036000830152613a33816139f7565b9050919050565b600060a082019050613a4f6000830188612495565b613a5c6020830187612495565b8181036040830152613a6e81866128d2565b90508181036060830152613a8281856128d2565b90508181036080830152613a968184613782565b9050969550505050505056fea26469706673582212200c0196e4c37b65377f3516b9dc2c8929990e46e01581994fda57884fef58afbf64736f6c6343000812003368747470733a2f2f676174657761792e70696e6174612e636c6f75642f697066732f516d5a316341476869786f6a4568616d5367716264505665784376414c35544a46316953705141783944745152322f312e6a736f6e",
			"opcodes": "PUSH1 0x80 PUSH1 0x40 MSTORE PUSH1 0x14 PUSH1 0x5 SSTORE PUSH1 0x1 PUSH1 0x6 SSTORE CALLVALUE DUP1 ISZERO PUSH3 0x1B JUMPI PUSH1 0x0 DUP1 REVERT JUMPDEST POP PUSH1 0x40 MLOAD DUP1 PUSH1 0x80 ADD PUSH1 0x40 MSTORE DUP1 PUSH1 0x57 DUP2 MSTORE PUSH1 0x20 ADD PUSH3 0x4D28 PUSH1 0x57 SWAP2 CODECOPY PUSH3 0x56 PUSH3 0x4A PUSH3 0x93 PUSH1 0x20 SHL PUSH1 0x20 SHR JUMP JUMPDEST PUSH3 0x9B PUSH1 0x20 SHL PUSH1 0x20 SHR JUMP JUMPDEST PUSH3 0x67 DUP2 PUSH3 0x15F PUSH1 0x20 SHL PUSH1 0x20 SHR JUMP JUMPDEST POP PUSH3 0x8D CALLER PUSH1 0x1 PUSH1 0x64 PUSH1 0x40 MLOAD DUP1 PUSH1 0x20 ADD PUSH1 0x40 MSTORE DUP1 PUSH1 0x0 DUP2 MSTORE POP PUSH3 0x174 PUSH1 0x20 SHL PUSH1 0x20 SHR JUMP JUMPDEST PUSH3 0x1240 JUMP JUMPDEST PUSH1 0x0 CALLER SWAP1 POP SWAP1 JUMP JUMPDEST PUSH1 0x0 DUP1 PUSH1 0x0 SWAP1 SLOAD SWAP1 PUSH2 0x100 EXP SWAP1 DIV PUSH20 0xFFFFFFFFFFFFFFFFFFFFFFFFFFFFFFFFFFFFFFFF AND SWAP1 POP DUP2 PUSH1 0x0 DUP1 PUSH2 0x100 EXP DUP2 SLOAD DUP2 PUSH20 0xFFFFFFFFFFFFFFFFFFFFFFFFFFFFFFFFFFFFFFFF MUL NOT AND SWAP1 DUP4 PUSH20 0xFFFFFFFFFFFFFFFFFFFFFFFFFFFFFFFFFFFFFFFF AND MUL OR SWAP1 SSTORE POP DUP2 PUSH20 0xFFFFFFFFFFFFFFFFFFFFFFFFFFFFFFFFFFFFFFFF AND DUP2 PUSH20 0xFFFFFFFFFFFFFFFFFFFFFFFFFFFFFFFFFFFFFFFF AND PUSH32 0x8BE0079C531659141344CD1FD0A4F28419497F9722A3DAAFE3B4186F6B6457E0 PUSH1 0x40 MLOAD PUSH1 0x40 MLOAD DUP1 SWAP2 SUB SWAP1 LOG3 POP POP JUMP JUMPDEST DUP1 PUSH1 0x3 SWAP1 DUP2 PUSH3 0x170 SWAP2 SWAP1 PUSH3 0xA7B JUMP JUMPDEST POP POP JUMP JUMPDEST PUSH1 0x0 PUSH20 0xFFFFFFFFFFFFFFFFFFFFFFFFFFFFFFFFFFFFFFFF AND DUP5 PUSH20 0xFFFFFFFFFFFFFFFFFFFFFFFFFFFFFFFFFFFFFFFF AND SUB PUSH3 0x1E6 JUMPI PUSH1 0x40 MLOAD PUSH32 0x8C379A000000000000000000000000000000000000000000000000000000000 DUP2 MSTORE PUSH1 0x4 ADD PUSH3 0x1DD SWAP1 PUSH3 0xBE9 JUMP JUMPDEST PUSH1 0x40 MLOAD DUP1 SWAP2 SUB SWAP1 REVERT JUMPDEST PUSH1 0x0 PUSH3 0x1F8 PUSH3 0x93 PUSH1 0x20 SHL PUSH1 0x20 SHR JUMP JUMPDEST SWAP1 POP PUSH1 0x0 PUSH3 0x20D DUP6 PUSH3 0x35C PUSH1 0x20 SHL PUSH1 0x20 SHR JUMP JUMPDEST SWAP1 POP PUSH1 0x0 PUSH3 0x222 DUP6 PUSH3 0x35C PUSH1 0x20 SHL PUSH1 0x20 SHR JUMP JUMPDEST SWAP1 POP PUSH3 0x23B DUP4 PUSH1 0x0 DUP10 DUP6 DUP6 DUP10 PUSH3 0x3DD PUSH1 0x20 SHL PUSH1 0x20 SHR JUMP JUMPDEST DUP5 PUSH1 0x1 PUSH1 0x0 DUP9 DUP2 MSTORE PUSH1 0x20 ADD SWAP1 DUP2 MSTORE PUSH1 0x20 ADD PUSH1 0x0 KECCAK256 PUSH1 0x0 DUP10 PUSH20 0xFFFFFFFFFFFFFFFFFFFFFFFFFFFFFFFFFFFFFFFF AND PUSH20 0xFFFFFFFFFFFFFFFFFFFFFFFFFFFFFFFFFFFFFFFF AND DUP2 MSTORE PUSH1 0x20 ADD SWAP1 DUP2 MSTORE PUSH1 0x20 ADD PUSH1 0x0 KECCAK256 PUSH1 0x0 DUP3 DUP3 SLOAD PUSH3 0x29D SWAP2 SWAP1 PUSH3 0xC3A JUMP JUMPDEST SWAP3 POP POP DUP2 SWAP1 SSTORE POP DUP7 PUSH20 0xFFFFFFFFFFFFFFFFFFFFFFFFFFFFFFFFFFFFFFFF AND PUSH1 0x0 PUSH20 0xFFFFFFFFFFFFFFFFFFFFFFFFFFFFFFFFFFFFFFFF AND DUP5 PUSH20 0xFFFFFFFFFFFFFFFFFFFFFFFFFFFFFFFFFFFFFFFF AND PUSH32 0xC3D58168C5AE7397731D063D5BBF3D657854427343F4C083240F7AACAA2D0F62 DUP10 DUP10 PUSH1 0x40 MLOAD PUSH3 0x31D SWAP3 SWAP2 SWAP1 PUSH3 0xC86 JUMP JUMPDEST PUSH1 0x40 MLOAD DUP1 SWAP2 SUB SWAP1 LOG4 PUSH3 0x33C DUP4 PUSH1 0x0 DUP10 DUP6 DUP6 DUP10 PUSH3 0x5D5 PUSH1 0x20 SHL PUSH1 0x20 SHR JUMP JUMPDEST PUSH3 0x353 DUP4 PUSH1 0x0 DUP10 DUP10 DUP10 DUP10 PUSH3 0x5DD PUSH1 0x20 SHL PUSH1 0x20 SHR JUMP JUMPDEST POP POP POP POP POP POP POP JUMP JUMPDEST PUSH1 0x60 PUSH1 0x0 PUSH1 0x1 PUSH8 0xFFFFFFFFFFFFFFFF DUP2 GT ISZERO PUSH3 0x37E JUMPI PUSH3 0x37D PUSH3 0x80C JUMP JUMPDEST JUMPDEST PUSH1 0x40 MLOAD SWAP1 DUP1 DUP3 MSTORE DUP1 PUSH1 0x20 MUL PUSH1 0x20 ADD DUP3 ADD PUSH1 0x40 MSTORE DUP1 ISZERO PUSH3 0x3AD JUMPI DUP2 PUSH1 0x20 ADD PUSH1 0x20 DUP3 MUL DUP1 CALLDATASIZE DUP4 CALLDATACOPY DUP1 DUP3 ADD SWAP2 POP POP SWAP1 POP JUMPDEST POP SWAP1 POP DUP3 DUP2 PUSH1 0x0 DUP2 MLOAD DUP2 LT PUSH3 0x3C8 JUMPI PUSH3 0x3C7 PUSH3 0xCB3 JUMP JUMPDEST JUMPDEST PUSH1 0x20 MUL PUSH1 0x20 ADD ADD DUP2 DUP2 MSTORE POP POP DUP1 SWAP2 POP POP SWAP2 SWAP1 POP JUMP JUMPDEST PUSH3 0x3F8 DUP7 DUP7 DUP7 DUP7 DUP7 DUP7 PUSH3 0x7D6 PUSH1 0x20 SHL PUSH3 0xCA5 OR PUSH1 0x20 SHR JUMP JUMPDEST PUSH1 0x0 PUSH20 0xFFFFFFFFFFFFFFFFFFFFFFFFFFFFFFFFFFFFFFFF AND DUP6 PUSH20 0xFFFFFFFFFFFFFFFFFFFFFFFFFFFFFFFFFFFFFFFF AND SUB PUSH3 0x4B6 JUMPI PUSH1 0x0 JUMPDEST DUP4 MLOAD DUP2 LT ISZERO PUSH3 0x4B4 JUMPI DUP3 DUP2 DUP2 MLOAD DUP2 LT PUSH3 0x450 JUMPI PUSH3 0x44F PUSH3 0xCB3 JUMP JUMPDEST JUMPDEST PUSH1 0x20 MUL PUSH1 0x20 ADD ADD MLOAD PUSH1 0x4 PUSH1 0x0 DUP7 DUP5 DUP2 MLOAD DUP2 LT PUSH3 0x472 JUMPI PUSH3 0x471 PUSH3 0xCB3 JUMP JUMPDEST JUMPDEST PUSH1 0x20 MUL PUSH1 0x20 ADD ADD MLOAD DUP2 MSTORE PUSH1 0x20 ADD SWAP1 DUP2 MSTORE PUSH1 0x20 ADD PUSH1 0x0 KECCAK256 PUSH1 0x0 DUP3 DUP3 SLOAD PUSH3 0x499 SWAP2 SWAP1 PUSH3 0xC3A JUMP JUMPDEST SWAP3 POP POP DUP2 SWAP1 SSTORE POP DUP1 PUSH3 0x4AC SWAP1 PUSH3 0xCE2 JUMP JUMPDEST SWAP1 POP PUSH3 0x430 JUMP JUMPDEST POP JUMPDEST PUSH1 0x0 PUSH20 0xFFFFFFFFFFFFFFFFFFFFFFFFFFFFFFFFFFFFFFFF AND DUP5 PUSH20 0xFFFFFFFFFFFFFFFFFFFFFFFFFFFFFFFFFFFFFFFF AND SUB PUSH3 0x5CD JUMPI PUSH1 0x0 JUMPDEST DUP4 MLOAD DUP2 LT ISZERO PUSH3 0x5CB JUMPI PUSH1 0x0 DUP5 DUP3 DUP2 MLOAD DUP2 LT PUSH3 0x510 JUMPI PUSH3 0x50F PUSH3 0xCB3 JUMP JUMPDEST JUMPDEST PUSH1 0x20 MUL PUSH1 0x20 ADD ADD MLOAD SWAP1 POP PUSH1 0x0 DUP5 DUP4 DUP2 MLOAD DUP2 LT PUSH3 0x532 JUMPI PUSH3 0x531 PUSH3 0xCB3 JUMP JUMPDEST JUMPDEST PUSH1 0x20 MUL PUSH1 0x20 ADD ADD MLOAD SWAP1 POP PUSH1 0x0 PUSH1 0x4 PUSH1 0x0 DUP5 DUP2 MSTORE PUSH1 0x20 ADD SWAP1 DUP2 MSTORE PUSH1 0x20 ADD PUSH1 0x0 KECCAK256 SLOAD SWAP1 POP DUP2 DUP2 LT ISZERO PUSH3 0x59A JUMPI PUSH1 0x40 MLOAD PUSH32 0x8C379A000000000000000000000000000000000000000000000000000000000 DUP2 MSTORE PUSH1 0x4 ADD PUSH3 0x591 SWAP1 PUSH3 0xDA5 JUMP JUMPDEST PUSH1 0x40 MLOAD DUP1 SWAP2 SUB SWAP1 REVERT JUMPDEST DUP2 DUP2 SUB PUSH1 0x4 PUSH1 0x0 DUP6 DUP2 MSTORE PUSH1 0x20 ADD SWAP1 DUP2 MSTORE PUSH1 0x20 ADD PUSH1 0x0 KECCAK256 DUP2 SWAP1 SSTORE POP POP POP POP DUP1 PUSH3 0x5C3 SWAP1 PUSH3 0xCE2 JUMP JUMPDEST SWAP1 POP PUSH3 0x4EE JUMP JUMPDEST POP JUMPDEST POP POP POP POP POP POP JUMP JUMPDEST POP POP POP POP POP POP JUMP JUMPDEST PUSH3 0x609 DUP5 PUSH20 0xFFFFFFFFFFFFFFFFFFFFFFFFFFFFFFFFFFFFFFFF AND PUSH3 0x7DE PUSH1 0x20 SHL PUSH3 0xCAD OR PUSH1 0x20 SHR JUMP JUMPDEST ISZERO PUSH3 0x7CE JUMPI DUP4 PUSH20 0xFFFFFFFFFFFFFFFFFFFFFFFFFFFFFFFFFFFFFFFF AND PUSH4 0xF23A6E61 DUP8 DUP8 DUP7 DUP7 DUP7 PUSH1 0x40 MLOAD DUP7 PUSH4 0xFFFFFFFF AND PUSH1 0xE0 SHL DUP2 MSTORE PUSH1 0x4 ADD PUSH3 0x652 SWAP6 SWAP5 SWAP4 SWAP3 SWAP2 SWAP1 PUSH3 0xEA6 JUMP JUMPDEST PUSH1 0x20 PUSH1 0x40 MLOAD DUP1 DUP4 SUB DUP2 PUSH1 0x0 DUP8 GAS CALL SWAP3 POP POP POP DUP1 ISZERO PUSH3 0x691 JUMPI POP PUSH1 0x40 MLOAD RETURNDATASIZE PUSH1 0x1F NOT PUSH1 0x1F DUP3 ADD AND DUP3 ADD DUP1 PUSH1 0x40 MSTORE POP DUP2 ADD SWAP1 PUSH3 0x68E SWAP2 SWAP1 PUSH3 0xF76 JUMP JUMPDEST PUSH1 0x1 JUMPDEST PUSH3 0x742 JUMPI PUSH3 0x6A0 PUSH3 0xFB5 JUMP JUMPDEST DUP1 PUSH4 0x8C379A0 SUB PUSH3 0x703 JUMPI POP PUSH3 0x6B7 PUSH3 0x1010 JUMP JUMPDEST DUP1 PUSH3 0x6C4 JUMPI POP PUSH3 0x705 JUMP JUMPDEST DUP1 PUSH1 0x40 MLOAD PUSH32 0x8C379A000000000000000000000000000000000000000000000000000000000 DUP2 MSTORE PUSH1 0x4 ADD PUSH3 0x6FA SWAP2 SWAP1 PUSH3 0x10EC JUMP JUMPDEST PUSH1 0x40 MLOAD DUP1 SWAP2 SUB SWAP1 REVERT JUMPDEST POP JUMPDEST PUSH1 0x40 MLOAD PUSH32 0x8C379A000000000000000000000000000000000000000000000000000000000 DUP2 MSTORE PUSH1 0x4 ADD PUSH3 0x739 SWAP1 PUSH3 0x1186 JUMP JUMPDEST PUSH1 0x40 MLOAD DUP1 SWAP2 SUB SWAP1 REVERT JUMPDEST PUSH4 0xF23A6E61 PUSH1 0xE0 SHL PUSH28 0xFFFFFFFFFFFFFFFFFFFFFFFFFFFFFFFFFFFFFFFFFFFFFFFFFFFFFFFF NOT AND DUP2 PUSH28 0xFFFFFFFFFFFFFFFFFFFFFFFFFFFFFFFFFFFFFFFFFFFFFFFFFFFFFFFF NOT AND EQ PUSH3 0x7CC JUMPI PUSH1 0x40 MLOAD PUSH32 0x8C379A000000000000000000000000000000000000000000000000000000000 DUP2 MSTORE PUSH1 0x4 ADD PUSH3 0x7C3 SWAP1 PUSH3 0x121E JUMP JUMPDEST PUSH1 0x40 MLOAD DUP1 SWAP2 SUB SWAP1 REVERT JUMPDEST POP JUMPDEST POP POP POP POP POP POP JUMP JUMPDEST POP POP POP POP POP POP JUMP JUMPDEST PUSH1 0x0 DUP1 DUP3 PUSH20 0xFFFFFFFFFFFFFFFFFFFFFFFFFFFFFFFFFFFFFFFF AND EXTCODESIZE GT SWAP1 POP SWAP2 SWAP1 POP JUMP JUMPDEST PUSH1 0x0 DUP2 MLOAD SWAP1 POP SWAP2 SWAP1 POP JUMP JUMPDEST PUSH32 0x4E487B7100000000000000000000000000000000000000000000000000000000 PUSH1 0x0 MSTORE PUSH1 0x41 PUSH1 0x4 MSTORE PUSH1 0x24 PUSH1 0x0 REVERT JUMPDEST PUSH32 0x4E487B7100000000000000000000000000000000000000000000000000000000 PUSH1 0x0 MSTORE PUSH1 0x22 PUSH1 0x4 MSTORE PUSH1 0x24 PUSH1 0x0 REVERT JUMPDEST PUSH1 0x0 PUSH1 0x2 DUP3 DIV SWAP1 POP PUSH1 0x1 DUP3 AND DUP1 PUSH3 0x883 JUMPI PUSH1 0x7F DUP3 AND SWAP2 POP JUMPDEST PUSH1 0x20 DUP3 LT DUP2 SUB PUSH3 0x899 JUMPI PUSH3 0x898 PUSH3 0x83B JUMP JUMPDEST JUMPDEST POP SWAP2 SWAP1 POP JUMP JUMPDEST PUSH1 0x0 DUP2 SWAP1 POP DUP2 PUSH1 0x0 MSTORE PUSH1 0x20 PUSH1 0x0 KECCAK256 SWAP1 POP SWAP2 SWAP1 POP JUMP JUMPDEST PUSH1 0x0 PUSH1 0x20 PUSH1 0x1F DUP4 ADD DIV SWAP1 POP SWAP2 SWAP1 POP JUMP JUMPDEST PUSH1 0x0 DUP3 DUP3 SHL SWAP1 POP SWAP3 SWAP2 POP POP JUMP JUMPDEST PUSH1 0x0 PUSH1 0x8 DUP4 MUL PUSH3 0x903 PUSH32 0xFFFFFFFFFFFFFFFFFFFFFFFFFFFFFFFFFFFFFFFFFFFFFFFFFFFFFFFFFFFFFFFF DUP3 PUSH3 0x8C4 JUMP JUMPDEST PUSH3 0x90F DUP7 DUP4 PUSH3 0x8C4 JUMP JUMPDEST SWAP6 POP DUP1 NOT DUP5 AND SWAP4 POP DUP1 DUP7 AND DUP5 OR SWAP3 POP POP POP SWAP4 SWAP3 POP POP POP JUMP JUMPDEST PUSH1 0x0 DUP2 SWAP1 POP SWAP2 SWAP1 POP JUMP JUMPDEST PUSH1 0x0 DUP2 SWAP1 POP SWAP2 SWAP1 POP JUMP JUMPDEST PUSH1 0x0 PUSH3 0x95C PUSH3 0x956 PUSH3 0x950 DUP5 PUSH3 0x927 JUMP JUMPDEST PUSH3 0x931 JUMP JUMPDEST PUSH3 0x927 JUMP JUMPDEST SWAP1 POP SWAP2 SWAP1 POP JUMP JUMPDEST PUSH1 0x0 DUP2 SWAP1 POP SWAP2 SWAP1 POP JUMP JUMPDEST PUSH3 0x978 DUP4 PUSH3 0x93B JUMP JUMPDEST PUSH3 0x990 PUSH3 0x987 DUP3 PUSH3 0x963 JUMP JUMPDEST DUP5 DUP5 SLOAD PUSH3 0x8D1 JUMP JUMPDEST DUP3 SSTORE POP POP POP POP JUMP JUMPDEST PUSH1 0x0 SWAP1 JUMP JUMPDEST PUSH3 0x9A7 PUSH3 0x998 JUMP JUMPDEST PUSH3 0x9B4 DUP2 DUP5 DUP5 PUSH3 0x96D JUMP JUMPDEST POP POP POP JUMP JUMPDEST JUMPDEST DUP2 DUP2 LT ISZERO PUSH3 0x9DC JUMPI PUSH3 0x9D0 PUSH1 0x0 DUP3 PUSH3 0x99D JUMP JUMPDEST PUSH1 0x1 DUP2 ADD SWAP1 POP PUSH3 0x9BA JUMP JUMPDEST POP POP JUMP JUMPDEST PUSH1 0x1F DUP3 GT ISZERO PUSH3 0xA2B JUMPI PUSH3 0x9F5 DUP2 PUSH3 0x89F JUMP JUMPDEST PUSH3 0xA00 DUP5 PUSH3 0x8B4 JUMP JUMPDEST DUP2 ADD PUSH1 0x20 DUP6 LT ISZERO PUSH3 0xA10 JUMPI DUP2 SWAP1 POP JUMPDEST PUSH3 0xA28 PUSH3 0xA1F DUP6 PUSH3 0x8B4 JUMP JUMPDEST DUP4 ADD DUP3 PUSH3 0x9B9 JUMP JUMPDEST POP POP JUMPDEST POP POP POP JUMP JUMPDEST PUSH1 0x0 DUP3 DUP3 SHR SWAP1 POP SWAP3 SWAP2 POP POP JUMP JUMPDEST PUSH1 0x0 PUSH3 0xA50 PUSH1 0x0 NOT DUP5 PUSH1 0x8 MUL PUSH3 0xA30 JUMP JUMPDEST NOT DUP1 DUP4 AND SWAP2 POP POP SWAP3 SWAP2 POP POP JUMP JUMPDEST PUSH1 0x0 PUSH3 0xA6B DUP4 DUP4 PUSH3 0xA3D JUMP JUMPDEST SWAP2 POP DUP3 PUSH1 0x2 MUL DUP3 OR SWAP1 POP SWAP3 SWAP2 POP POP JUMP JUMPDEST PUSH3 0xA86 DUP3 PUSH3 0x801 JUMP JUMPDEST PUSH8 0xFFFFFFFFFFFFFFFF DUP2 GT ISZERO PUSH3 0xAA2 JUMPI PUSH3 0xAA1 PUSH3 0x80C JUMP JUMPDEST JUMPDEST PUSH3 0xAAE DUP3 SLOAD PUSH3 0x86A JUMP JUMPDEST PUSH3 0xABB DUP3 DUP3 DUP6 PUSH3 0x9E0 JUMP JUMPDEST PUSH1 0x0 PUSH1 0x20 SWAP1 POP PUSH1 0x1F DUP4 GT PUSH1 0x1 DUP2 EQ PUSH3 0xAF3 JUMPI PUSH1 0x0 DUP5 ISZERO PUSH3 0xADE JUMPI DUP3 DUP8 ADD MLOAD SWAP1 POP JUMPDEST PUSH3 0xAEA DUP6 DUP3 PUSH3 0xA5D JUMP JUMPDEST DUP7 SSTORE POP PUSH3 0xB5A JUMP JUMPDEST PUSH1 0x1F NOT DUP5 AND PUSH3 0xB03 DUP7 PUSH3 0x89F JUMP JUMPDEST PUSH1 0x0 JUMPDEST DUP3 DUP2 LT ISZERO PUSH3 0xB2D JUMPI DUP5 DUP10 ADD MLOAD DUP3 SSTORE PUSH1 0x1 DUP3 ADD SWAP2 POP PUSH1 0x20 DUP6 ADD SWAP5 POP PUSH1 0x20 DUP2 ADD SWAP1 POP PUSH3 0xB06 JUMP JUMPDEST DUP7 DUP4 LT ISZERO PUSH3 0xB4D JUMPI DUP5 DUP10 ADD MLOAD PUSH3 0xB49 PUSH1 0x1F DUP10 AND DUP3 PUSH3 0xA3D JUMP JUMPDEST DUP4 SSTORE POP JUMPDEST PUSH1 0x1 PUSH1 0x2 DUP9 MUL ADD DUP9 SSTORE POP POP POP JUMPDEST POP POP POP POP POP POP JUMP JUMPDEST PUSH1 0x0 DUP3 DUP3 MSTORE PUSH1 0x20 DUP3 ADD SWAP1 POP SWAP3 SWAP2 POP POP JUMP JUMPDEST PUSH32 0x455243313135353A206D696E7420746F20746865207A65726F20616464726573 PUSH1 0x0 DUP3 ADD MSTORE PUSH32 0x7300000000000000000000000000000000000000000000000000000000000000 PUSH1 0x20 DUP3 ADD MSTORE POP JUMP JUMPDEST PUSH1 0x0 PUSH3 0xBD1 PUSH1 0x21 DUP4 PUSH3 0xB62 JUMP JUMPDEST SWAP2 POP PUSH3 0xBDE DUP3 PUSH3 0xB73 JUMP JUMPDEST PUSH1 0x40 DUP3 ADD SWAP1 POP SWAP2 SWAP1 POP JUMP JUMPDEST PUSH1 0x0 PUSH1 0x20 DUP3 ADD SWAP1 POP DUP2 DUP2 SUB PUSH1 0x0 DUP4 ADD MSTORE PUSH3 0xC04 DUP2 PUSH3 0xBC2 JUMP JUMPDEST SWAP1 POP SWAP2 SWAP1 POP JUMP JUMPDEST PUSH32 0x4E487B7100000000000000000000000000000000000000000000000000000000 PUSH1 0x0 MSTORE PUSH1 0x11 PUSH1 0x4 MSTORE PUSH1 0x24 PUSH1 0x0 REVERT JUMPDEST PUSH1 0x0 PUSH3 0xC47 DUP3 PUSH3 0x927 JUMP JUMPDEST SWAP2 POP PUSH3 0xC54 DUP4 PUSH3 0x927 JUMP JUMPDEST SWAP3 POP DUP3 DUP3 ADD SWAP1 POP DUP1 DUP3 GT ISZERO PUSH3 0xC6F JUMPI PUSH3 0xC6E PUSH3 0xC0B JUMP JUMPDEST JUMPDEST SWAP3 SWAP2 POP POP JUMP JUMPDEST PUSH3 0xC80 DUP2 PUSH3 0x927 JUMP JUMPDEST DUP3 MSTORE POP POP JUMP JUMPDEST PUSH1 0x0 PUSH1 0x40 DUP3 ADD SWAP1 POP PUSH3 0xC9D PUSH1 0x0 DUP4 ADD DUP6 PUSH3 0xC75 JUMP JUMPDEST PUSH3 0xCAC PUSH1 0x20 DUP4 ADD DUP5 PUSH3 0xC75 JUMP JUMPDEST SWAP4 SWAP3 POP POP POP JUMP JUMPDEST PUSH32 0x4E487B7100000000000000000000000000000000000000000000000000000000 PUSH1 0x0 MSTORE PUSH1 0x32 PUSH1 0x4 MSTORE PUSH1 0x24 PUSH1 0x0 REVERT JUMPDEST PUSH1 0x0 PUSH3 0xCEF DUP3 PUSH3 0x927 JUMP JUMPDEST SWAP2 POP PUSH32 0xFFFFFFFFFFFFFFFFFFFFFFFFFFFFFFFFFFFFFFFFFFFFFFFFFFFFFFFFFFFFFFFF DUP3 SUB PUSH3 0xD24 JUMPI PUSH3 0xD23 PUSH3 0xC0B JUMP JUMPDEST JUMPDEST PUSH1 0x1 DUP3 ADD SWAP1 POP SWAP2 SWAP1 POP JUMP JUMPDEST PUSH32 0x455243313135353A206275726E20616D6F756E74206578636565647320746F74 PUSH1 0x0 DUP3 ADD MSTORE PUSH32 0x616C537570706C79000000000000000000000000000000000000000000000000 PUSH1 0x20 DUP3 ADD MSTORE POP JUMP JUMPDEST PUSH1 0x0 PUSH3 0xD8D PUSH1 0x28 DUP4 PUSH3 0xB62 JUMP JUMPDEST SWAP2 POP PUSH3 0xD9A DUP3 PUSH3 0xD2F JUMP JUMPDEST PUSH1 0x40 DUP3 ADD SWAP1 POP SWAP2 SWAP1 POP JUMP JUMPDEST PUSH1 0x0 PUSH1 0x20 DUP3 ADD SWAP1 POP DUP2 DUP2 SUB PUSH1 0x0 DUP4 ADD MSTORE PUSH3 0xDC0 DUP2 PUSH3 0xD7E JUMP JUMPDEST SWAP1 POP SWAP2 SWAP1 POP JUMP JUMPDEST PUSH1 0x0 PUSH20 0xFFFFFFFFFFFFFFFFFFFFFFFFFFFFFFFFFFFFFFFF DUP3 AND SWAP1 POP SWAP2 SWAP1 POP JUMP JUMPDEST PUSH1 0x0 PUSH3 0xDF4 DUP3 PUSH3 0xDC7 JUMP JUMPDEST SWAP1 POP SWAP2 SWAP1 POP JUMP JUMPDEST PUSH3 0xE06 DUP2 PUSH3 0xDE7 JUMP JUMPDEST DUP3 MSTORE POP POP JUMP JUMPDEST PUSH1 0x0 DUP2 MLOAD SWAP1 POP SWAP2 SWAP1 POP JUMP JUMPDEST PUSH1 0x0 DUP3 DUP3 MSTORE PUSH1 0x20 DUP3 ADD SWAP1 POP SWAP3 SWAP2 POP POP JUMP JUMPDEST PUSH1 0x0 JUMPDEST DUP4 DUP2 LT ISZERO PUSH3 0xE48 JUMPI DUP1 DUP3 ADD MLOAD DUP2 DUP5 ADD MSTORE PUSH1 0x20 DUP2 ADD SWAP1 POP PUSH3 0xE2B JUMP JUMPDEST PUSH1 0x0 DUP5 DUP5 ADD MSTORE POP POP POP POP JUMP JUMPDEST PUSH1 0x0 PUSH1 0x1F NOT PUSH1 0x1F DUP4 ADD AND SWAP1 POP SWAP2 SWAP1 POP JUMP JUMPDEST PUSH1 0x0 PUSH3 0xE72 DUP3 PUSH3 0xE0C JUMP JUMPDEST PUSH3 0xE7E DUP2 DUP6 PUSH3 0xE17 JUMP JUMPDEST SWAP4 POP PUSH3 0xE90 DUP2 DUP6 PUSH1 0x20 DUP7 ADD PUSH3 0xE28 JUMP JUMPDEST PUSH3 0xE9B DUP2 PUSH3 0xE54 JUMP JUMPDEST DUP5 ADD SWAP2 POP POP SWAP3 SWAP2 POP POP JUMP JUMPDEST PUSH1 0x0 PUSH1 0xA0 DUP3 ADD SWAP1 POP PUSH3 0xEBD PUSH1 0x0 DUP4 ADD DUP9 PUSH3 0xDFB JUMP JUMPDEST PUSH3 0xECC PUSH1 0x20 DUP4 ADD DUP8 PUSH3 0xDFB JUMP JUMPDEST PUSH3 0xEDB PUSH1 0x40 DUP4 ADD DUP7 PUSH3 0xC75 JUMP JUMPDEST PUSH3 0xEEA PUSH1 0x60 DUP4 ADD DUP6 PUSH3 0xC75 JUMP JUMPDEST DUP2 DUP2 SUB PUSH1 0x80 DUP4 ADD MSTORE PUSH3 0xEFE DUP2 DUP5 PUSH3 0xE65 JUMP JUMPDEST SWAP1 POP SWAP7 SWAP6 POP POP POP POP POP POP JUMP JUMPDEST PUSH1 0x0 PUSH1 0x40 MLOAD SWAP1 POP SWAP1 JUMP JUMPDEST PUSH1 0x0 DUP1 REVERT JUMPDEST PUSH1 0x0 PUSH32 0xFFFFFFFF00000000000000000000000000000000000000000000000000000000 DUP3 AND SWAP1 POP SWAP2 SWAP1 POP JUMP JUMPDEST PUSH3 0xF50 DUP2 PUSH3 0xF19 JUMP JUMPDEST DUP2 EQ PUSH3 0xF5C JUMPI PUSH1 0x0 DUP1 REVERT JUMPDEST POP JUMP JUMPDEST PUSH1 0x0 DUP2 MLOAD SWAP1 POP PUSH3 0xF70 DUP2 PUSH3 0xF45 JUMP JUMPDEST SWAP3 SWAP2 POP POP JUMP JUMPDEST PUSH1 0x0 PUSH1 0x20 DUP3 DUP5 SUB SLT ISZERO PUSH3 0xF8F JUMPI PUSH3 0xF8E PUSH3 0xF14 JUMP JUMPDEST JUMPDEST PUSH1 0x0 PUSH3 0xF9F DUP5 DUP3 DUP6 ADD PUSH3 0xF5F JUMP JUMPDEST SWAP2 POP POP SWAP3 SWAP2 POP POP JUMP JUMPDEST PUSH1 0x0 DUP2 PUSH1 0xE0 SHR SWAP1 POP SWAP2 SWAP1 POP JUMP JUMPDEST PUSH1 0x0 PUSH1 0x3 RETURNDATASIZE GT ISZERO PUSH3 0xFD7 JUMPI PUSH1 0x4 PUSH1 0x0 DUP1 RETURNDATACOPY PUSH3 0xFD4 PUSH1 0x0 MLOAD PUSH3 0xFA8 JUMP JUMPDEST SWAP1 POP JUMPDEST SWAP1 JUMP JUMPDEST PUSH3 0xFE5 DUP3 PUSH3 0xE54 JUMP JUMPDEST DUP2 ADD DUP2 DUP2 LT PUSH8 0xFFFFFFFFFFFFFFFF DUP3 GT OR ISZERO PUSH3 0x1007 JUMPI PUSH3 0x1006 PUSH3 0x80C JUMP JUMPDEST JUMPDEST DUP1 PUSH1 0x40 MSTORE POP POP POP JUMP JUMPDEST PUSH1 0x0 PUSH1 0x44 RETURNDATASIZE LT PUSH3 0x10A8 JUMPI PUSH3 0x1025 PUSH3 0xF0A JUMP JUMPDEST PUSH1 0x4 RETURNDATASIZE SUB PUSH1 0x4 DUP3 RETURNDATACOPY DUP1 MLOAD RETURNDATASIZE PUSH1 0x24 DUP3 ADD GT PUSH8 0xFFFFFFFFFFFFFFFF DUP3 GT OR ISZERO PUSH3 0x104F JUMPI POP POP PUSH3 0x10A8 JUMP JUMPDEST DUP1 DUP3 ADD DUP1 MLOAD PUSH8 0xFFFFFFFFFFFFFFFF DUP2 GT ISZERO PUSH3 0x106F JUMPI POP POP POP POP PUSH3 0x10A8 JUMP JUMPDEST DUP1 PUSH1 0x20 DUP4 ADD ADD PUSH1 0x4 RETURNDATASIZE SUB DUP6 ADD DUP2 GT ISZERO PUSH3 0x108E JUMPI POP POP POP POP POP PUSH3 0x10A8 JUMP JUMPDEST PUSH3 0x109F DUP3 PUSH1 0x20 ADD DUP6 ADD DUP7 PUSH3 0xFDA JUMP JUMPDEST DUP3 SWAP6 POP POP POP POP POP POP JUMPDEST SWAP1 JUMP JUMPDEST PUSH1 0x0 PUSH3 0x10B8 DUP3 PUSH3 0x801 JUMP JUMPDEST PUSH3 0x10C4 DUP2 DUP6 PUSH3 0xB62 JUMP JUMPDEST SWAP4 POP PUSH3 0x10D6 DUP2 DUP6 PUSH1 0x20 DUP7 ADD PUSH3 0xE28 JUMP JUMPDEST PUSH3 0x10E1 DUP2 PUSH3 0xE54 JUMP JUMPDEST DUP5 ADD SWAP2 POP POP SWAP3 SWAP2 POP POP JUMP JUMPDEST PUSH1 0x0 PUSH1 0x20 DUP3 ADD SWAP1 POP DUP2 DUP2 SUB PUSH1 0x0 DUP4 ADD MSTORE PUSH3 0x1108 DUP2 DUP5 PUSH3 0x10AB JUMP JUMPDEST SWAP1 POP SWAP3 SWAP2 POP POP JUMP JUMPDEST PUSH32 0x455243313135353A207472616E7366657220746F206E6F6E2D45524331313535 PUSH1 0x0 DUP3 ADD MSTORE PUSH32 0x526563656976657220696D706C656D656E746572000000000000000000000000 PUSH1 0x20 DUP3 ADD MSTORE POP JUMP JUMPDEST PUSH1 0x0 PUSH3 0x116E PUSH1 0x34 DUP4 PUSH3 0xB62 JUMP JUMPDEST SWAP2 POP PUSH3 0x117B DUP3 PUSH3 0x1110 JUMP JUMPDEST PUSH1 0x40 DUP3 ADD SWAP1 POP SWAP2 SWAP1 POP JUMP JUMPDEST PUSH1 0x0 PUSH1 0x20 DUP3 ADD SWAP1 POP DUP2 DUP2 SUB PUSH1 0x0 DUP4 ADD MSTORE PUSH3 0x11A1 DUP2 PUSH3 0x115F JUMP JUMPDEST SWAP1 POP SWAP2 SWAP1 POP JUMP JUMPDEST PUSH32 0x455243313135353A204552433131353552656365697665722072656A65637465 PUSH1 0x0 DUP3 ADD MSTORE PUSH32 0x6420746F6B656E73000000000000000000000000000000000000000000000000 PUSH1 0x20 DUP3 ADD MSTORE POP JUMP JUMPDEST PUSH1 0x0 PUSH3 0x1206 PUSH1 0x28 DUP4 PUSH3 0xB62 JUMP JUMPDEST SWAP2 POP PUSH3 0x1213 DUP3 PUSH3 0x11A8 JUMP JUMPDEST PUSH1 0x40 DUP3 ADD SWAP1 POP SWAP2 SWAP1 POP JUMP JUMPDEST PUSH1 0x0 PUSH1 0x20 DUP3 ADD SWAP1 POP DUP2 DUP2 SUB PUSH1 0x0 DUP4 ADD MSTORE PUSH3 0x1239 DUP2 PUSH3 0x11F7 JUMP JUMPDEST SWAP1 POP SWAP2 SWAP1 POP JUMP JUMPDEST PUSH2 0x3AD8 DUP1 PUSH3 0x1250 PUSH1 0x0 CODECOPY PUSH1 0x0 RETURN INVALID PUSH1 0x80 PUSH1 0x40 MSTORE PUSH1 0x4 CALLDATASIZE LT PUSH2 0x128 JUMPI PUSH1 0x0 CALLDATALOAD PUSH1 0xE0 SHR DUP1 PUSH4 0x4F558E79 GT PUSH2 0xAB JUMPI DUP1 PUSH4 0xA22CB465 GT PUSH2 0x6F JUMPI DUP1 PUSH4 0xA22CB465 EQ PUSH2 0x409 JUMPI DUP1 PUSH4 0xBD85B039 EQ PUSH2 0x432 JUMPI DUP1 PUSH4 0xD5ABEB01 EQ PUSH2 0x46F JUMPI DUP1 PUSH4 0xE985E9C5 EQ PUSH2 0x49A JUMPI DUP1 PUSH4 0xF242432A EQ PUSH2 0x4D7 JUMPI DUP1 PUSH4 0xF2FDE38B EQ PUSH2 0x500 JUMPI PUSH2 0x128 JUMP JUMPDEST DUP1 PUSH4 0x4F558E79 EQ PUSH2 0x322 JUMPI DUP1 PUSH4 0x5977E82A EQ PUSH2 0x35F JUMPI DUP1 PUSH4 0x5C065600 EQ PUSH2 0x39C JUMPI DUP1 PUSH4 0x715018A6 EQ PUSH2 0x3C7 JUMPI DUP1 PUSH4 0x8DA5CB5B EQ PUSH2 0x3DE JUMPI PUSH2 0x128 JUMP JUMPDEST DUP1 PUSH4 0xE89341C GT PUSH2 0xF2 JUMPI DUP1 PUSH4 0xE89341C EQ PUSH2 0x238 JUMPI DUP1 PUSH4 0x15621373 EQ PUSH2 0x275 JUMPI DUP1 PUSH4 0x1B2EF1CA EQ PUSH2 0x2A0 JUMPI DUP1 PUSH4 0x2EB2C2D6 EQ PUSH2 0x2BC JUMPI DUP1 PUSH4 0x4E1273F4 EQ PUSH2 0x2E5 JUMPI PUSH2 0x128 JUMP JUMPDEST DUP1 PUSH3 0xF74867 EQ PUSH2 0x12D JUMPI DUP1 PUSH3 0xFDD58E EQ PUSH2 0x16A JUMPI DUP1 PUSH4 0x1FFC9A7 EQ PUSH2 0x1A7 JUMPI DUP1 PUSH4 0x2FE5305 EQ PUSH2 0x1E4 JUMPI DUP1 PUSH4 0x673D7D0 EQ PUSH2 0x20D JUMPI JUMPDEST PUSH1 0x0 DUP1 REVERT JUMPDEST CALLVALUE DUP1 ISZERO PUSH2 0x139 JUMPI PUSH1 0x0 DUP1 REVERT JUMPDEST POP PUSH2 0x154 PUSH1 0x4 DUP1 CALLDATASIZE SUB DUP2 ADD SWAP1 PUSH2 0x14F SWAP2 SWAP1 PUSH2 0x20D3 JUMP JUMPDEST PUSH2 0x529 JUMP JUMPDEST PUSH1 0x40 MLOAD PUSH2 0x161 SWAP2 SWAP1 PUSH2 0x212E JUMP JUMPDEST PUSH1 0x40 MLOAD DUP1 SWAP2 SUB SWAP1 RETURN JUMPDEST CALLVALUE DUP1 ISZERO PUSH2 0x176 JUMPI PUSH1 0x0 DUP1 REVERT JUMPDEST POP PUSH2 0x191 PUSH1 0x4 DUP1 CALLDATASIZE SUB DUP2 ADD SWAP1 PUSH2 0x18C SWAP2 SWAP1 PUSH2 0x2149 JUMP JUMPDEST PUSH2 0x540 JUMP JUMPDEST PUSH1 0x40 MLOAD PUSH2 0x19E SWAP2 SWAP1 PUSH2 0x2198 JUMP JUMPDEST PUSH1 0x40 MLOAD DUP1 SWAP2 SUB SWAP1 RETURN JUMPDEST CALLVALUE DUP1 ISZERO PUSH2 0x1B3 JUMPI PUSH1 0x0 DUP1 REVERT JUMPDEST POP PUSH2 0x1CE PUSH1 0x4 DUP1 CALLDATASIZE SUB DUP2 ADD SWAP1 PUSH2 0x1C9 SWAP2 SWAP1 PUSH2 0x220B JUMP JUMPDEST PUSH2 0x609 JUMP JUMPDEST PUSH1 0x40 MLOAD PUSH2 0x1DB SWAP2 SWAP1 PUSH2 0x212E JUMP JUMPDEST PUSH1 0x40 MLOAD DUP1 SWAP2 SUB SWAP1 RETURN JUMPDEST CALLVALUE DUP1 ISZERO PUSH2 0x1F0 JUMPI PUSH1 0x0 DUP1 REVERT JUMPDEST POP PUSH2 0x20B PUSH1 0x4 DUP1 CALLDATASIZE SUB DUP2 ADD SWAP1 PUSH2 0x206 SWAP2 SWAP1 PUSH2 0x237E JUMP JUMPDEST PUSH2 0x6EB JUMP JUMPDEST STOP JUMPDEST CALLVALUE DUP1 ISZERO PUSH2 0x219 JUMPI PUSH1 0x0 DUP1 REVERT JUMPDEST POP PUSH2 0x222 PUSH2 0x6FF JUMP JUMPDEST PUSH1 0x40 MLOAD PUSH2 0x22F SWAP2 SWAP1 PUSH2 0x2198 JUMP JUMPDEST PUSH1 0x40 MLOAD DUP1 SWAP2 SUB SWAP1 RETURN JUMPDEST CALLVALUE DUP1 ISZERO PUSH2 0x244 JUMPI PUSH1 0x0 DUP1 REVERT JUMPDEST POP PUSH2 0x25F PUSH1 0x4 DUP1 CALLDATASIZE SUB DUP2 ADD SWAP1 PUSH2 0x25A SWAP2 SWAP1 PUSH2 0x23C7 JUMP JUMPDEST PUSH2 0x704 JUMP JUMPDEST PUSH1 0x40 MLOAD PUSH2 0x26C SWAP2 SWAP1 PUSH2 0x2473 JUMP JUMPDEST PUSH1 0x40 MLOAD DUP1 SWAP2 SUB SWAP1 RETURN JUMPDEST CALLVALUE DUP1 ISZERO PUSH2 0x281 JUMPI PUSH1 0x0 DUP1 REVERT JUMPDEST POP PUSH2 0x28A PUSH2 0x787 JUMP JUMPDEST PUSH1 0x40 MLOAD PUSH2 0x297 SWAP2 SWAP1 PUSH2 0x24A4 JUMP JUMPDEST PUSH1 0x40 MLOAD DUP1 SWAP2 SUB SWAP1 RETURN JUMPDEST PUSH2 0x2BA PUSH1 0x4 DUP1 CALLDATASIZE SUB DUP2 ADD SWAP1 PUSH2 0x2B5 SWAP2 SWAP1 PUSH2 0x24BF JUMP JUMPDEST PUSH2 0x78F JUMP JUMPDEST STOP JUMPDEST CALLVALUE DUP1 ISZERO PUSH2 0x2C8 JUMPI PUSH1 0x0 DUP1 REVERT JUMPDEST POP PUSH2 0x2E3 PUSH1 0x4 DUP1 CALLDATASIZE SUB DUP2 ADD SWAP1 PUSH2 0x2DE SWAP2 SWAP1 PUSH2 0x2668 JUMP JUMPDEST PUSH2 0x88B JUMP JUMPDEST STOP JUMPDEST CALLVALUE DUP1 ISZERO PUSH2 0x2F1 JUMPI PUSH1 0x0 DUP1 REVERT JUMPDEST POP PUSH2 0x30C PUSH1 0x4 DUP1 CALLDATASIZE SUB DUP2 ADD SWAP1 PUSH2 0x307 SWAP2 SWAP1 PUSH2 0x27FA JUMP JUMPDEST PUSH2 0x92C JUMP JUMPDEST PUSH1 0x40 MLOAD PUSH2 0x319 SWAP2 SWAP1 PUSH2 0x2930 JUMP JUMPDEST PUSH1 0x40 MLOAD DUP1 SWAP2 SUB SWAP1 RETURN JUMPDEST CALLVALUE DUP1 ISZERO PUSH2 0x32E JUMPI PUSH1 0x0 DUP1 REVERT JUMPDEST POP PUSH2 0x349 PUSH1 0x4 DUP1 CALLDATASIZE SUB DUP2 ADD SWAP1 PUSH2 0x344 SWAP2 SWAP1 PUSH2 0x23C7 JUMP JUMPDEST PUSH2 0xA45 JUMP JUMPDEST PUSH1 0x40 MLOAD PUSH2 0x356 SWAP2 SWAP1 PUSH2 0x212E JUMP JUMPDEST PUSH1 0x40 MLOAD DUP1 SWAP2 SUB SWAP1 RETURN JUMPDEST CALLVALUE DUP1 ISZERO PUSH2 0x36B JUMPI PUSH1 0x0 DUP1 REVERT JUMPDEST POP PUSH2 0x386 PUSH1 0x4 DUP1 CALLDATASIZE SUB DUP2 ADD SWAP1 PUSH2 0x381 SWAP2 SWAP1 PUSH2 0x23C7 JUMP JUMPDEST PUSH2 0xA59 JUMP JUMPDEST PUSH1 0x40 MLOAD PUSH2 0x393 SWAP2 SWAP1 PUSH2 0x2198 JUMP JUMPDEST PUSH1 0x40 MLOAD DUP1 SWAP2 SUB SWAP1 RETURN JUMPDEST CALLVALUE DUP1 ISZERO PUSH2 0x3A8 JUMPI PUSH1 0x0 DUP1 REVERT JUMPDEST POP PUSH2 0x3B1 PUSH2 0xA71 JUMP JUMPDEST PUSH1 0x40 MLOAD PUSH2 0x3BE SWAP2 SWAP1 PUSH2 0x2198 JUMP JUMPDEST PUSH1 0x40 MLOAD DUP1 SWAP2 SUB SWAP1 RETURN JUMPDEST CALLVALUE DUP1 ISZERO PUSH2 0x3D3 JUMPI PUSH1 0x0 DUP1 REVERT JUMPDEST POP PUSH2 0x3DC PUSH2 0xA77 JUMP JUMPDEST STOP JUMPDEST CALLVALUE DUP1 ISZERO PUSH2 0x3EA JUMPI PUSH1 0x0 DUP1 REVERT JUMPDEST POP PUSH2 0x3F3 PUSH2 0xA8B JUMP JUMPDEST PUSH1 0x40 MLOAD PUSH2 0x400 SWAP2 SWAP1 PUSH2 0x24A4 JUMP JUMPDEST PUSH1 0x40 MLOAD DUP1 SWAP2 SUB SWAP1 RETURN JUMPDEST CALLVALUE DUP1 ISZERO PUSH2 0x415 JUMPI PUSH1 0x0 DUP1 REVERT JUMPDEST POP PUSH2 0x430 PUSH1 0x4 DUP1 CALLDATASIZE SUB DUP2 ADD SWAP1 PUSH2 0x42B SWAP2 SWAP1 PUSH2 0x297E JUMP JUMPDEST PUSH2 0xAB4 JUMP JUMPDEST STOP JUMPDEST CALLVALUE DUP1 ISZERO PUSH2 0x43E JUMPI PUSH1 0x0 DUP1 REVERT JUMPDEST POP PUSH2 0x459 PUSH1 0x4 DUP1 CALLDATASIZE SUB DUP2 ADD SWAP1 PUSH2 0x454 SWAP2 SWAP1 PUSH2 0x23C7 JUMP JUMPDEST PUSH2 0xACA JUMP JUMPDEST PUSH1 0x40 MLOAD PUSH2 0x466 SWAP2 SWAP1 PUSH2 0x2198 JUMP JUMPDEST PUSH1 0x40 MLOAD DUP1 SWAP2 SUB SWAP1 RETURN JUMPDEST CALLVALUE DUP1 ISZERO PUSH2 0x47B JUMPI PUSH1 0x0 DUP1 REVERT JUMPDEST POP PUSH2 0x484 PUSH2 0xAE7 JUMP JUMPDEST PUSH1 0x40 MLOAD PUSH2 0x491 SWAP2 SWAP1 PUSH2 0x2198 JUMP JUMPDEST PUSH1 0x40 MLOAD DUP1 SWAP2 SUB SWAP1 RETURN JUMPDEST CALLVALUE DUP1 ISZERO PUSH2 0x4A6 JUMPI PUSH1 0x0 DUP1 REVERT JUMPDEST POP PUSH2 0x4C1 PUSH1 0x4 DUP1 CALLDATASIZE SUB DUP2 ADD SWAP1 PUSH2 0x4BC SWAP2 SWAP1 PUSH2 0x29BE JUMP JUMPDEST PUSH2 0xAED JUMP JUMPDEST PUSH1 0x40 MLOAD PUSH2 0x4CE SWAP2 SWAP1 PUSH2 0x212E JUMP JUMPDEST PUSH1 0x40 MLOAD DUP1 SWAP2 SUB SWAP1 RETURN JUMPDEST CALLVALUE DUP1 ISZERO PUSH2 0x4E3 JUMPI PUSH1 0x0 DUP1 REVERT JUMPDEST POP PUSH2 0x4FE PUSH1 0x4 DUP1 CALLDATASIZE SUB DUP2 ADD SWAP1 PUSH2 0x4F9 SWAP2 SWAP1 PUSH2 0x29FE JUMP JUMPDEST PUSH2 0xB81 JUMP JUMPDEST STOP JUMPDEST CALLVALUE DUP1 ISZERO PUSH2 0x50C JUMPI PUSH1 0x0 DUP1 REVERT JUMPDEST POP PUSH2 0x527 PUSH1 0x4 DUP1 CALLDATASIZE SUB DUP2 ADD SWAP1 PUSH2 0x522 SWAP2 SWAP1 PUSH2 0x2A95 JUMP JUMPDEST PUSH2 0xC22 JUMP JUMPDEST STOP JUMPDEST PUSH1 0x0 DUP1 PUSH2 0x536 DUP4 DUP6 PUSH2 0x540 JUMP JUMPDEST EQ ISZERO SWAP1 POP SWAP3 SWAP2 POP POP JUMP JUMPDEST PUSH1 0x0 DUP1 PUSH20 0xFFFFFFFFFFFFFFFFFFFFFFFFFFFFFFFFFFFFFFFF AND DUP4 PUSH20 0xFFFFFFFFFFFFFFFFFFFFFFFFFFFFFFFFFFFFFFFF AND SUB PUSH2 0x5B0 JUMPI PUSH1 0x40 MLOAD PUSH32 0x8C379A000000000000000000000000000000000000000000000000000000000 DUP2 MSTORE PUSH1 0x4 ADD PUSH2 0x5A7 SWAP1 PUSH2 0x2B34 JUMP JUMPDEST PUSH1 0x40 MLOAD DUP1 SWAP2 SUB SWAP1 REVERT JUMPDEST PUSH1 0x1 PUSH1 0x0 DUP4 DUP2 MSTORE PUSH1 0x20 ADD SWAP1 DUP2 MSTORE PUSH1 0x20 ADD PUSH1 0x0 KECCAK256 PUSH1 0x0 DUP5 PUSH20 0xFFFFFFFFFFFFFFFFFFFFFFFFFFFFFFFFFFFFFFFF AND PUSH20 0xFFFFFFFFFFFFFFFFFFFFFFFFFFFFFFFFFFFFFFFF AND DUP2 MSTORE PUSH1 0x20 ADD SWAP1 DUP2 MSTORE PUSH1 0x20 ADD PUSH1 0x0 KECCAK256 SLOAD SWAP1 POP SWAP3 SWAP2 POP POP JUMP JUMPDEST PUSH1 0x0 PUSH32 0xD9B67A2600000000000000000000000000000000000000000000000000000000 PUSH28 0xFFFFFFFFFFFFFFFFFFFFFFFFFFFFFFFFFFFFFFFFFFFFFFFFFFFFFFFF NOT AND DUP3 PUSH28 0xFFFFFFFFFFFFFFFFFFFFFFFFFFFFFFFFFFFFFFFFFFFFFFFFFFFFFFFF NOT AND EQ DUP1 PUSH2 0x6D4 JUMPI POP PUSH32 0xE89341C00000000000000000000000000000000000000000000000000000000 PUSH28 0xFFFFFFFFFFFFFFFFFFFFFFFFFFFFFFFFFFFFFFFFFFFFFFFFFFFFFFFF NOT AND DUP3 PUSH28 0xFFFFFFFFFFFFFFFFFFFFFFFFFFFFFFFFFFFFFFFFFFFFFFFFFFFFFFFF NOT AND EQ JUMPDEST DUP1 PUSH2 0x6E4 JUMPI POP PUSH2 0x6E3 DUP3 PUSH2 0xCD0 JUMP JUMPDEST JUMPDEST SWAP1 POP SWAP2 SWAP1 POP JUMP JUMPDEST PUSH2 0x6F3 PUSH2 0xD3A JUMP JUMPDEST PUSH2 0x6FC DUP2 PUSH2 0xDB8 JUMP JUMPDEST POP JUMP JUMPDEST PUSH1 0x1 DUP2 JUMP JUMPDEST PUSH1 0x60 PUSH2 0x70F DUP3 PUSH2 0xA45 JUMP JUMPDEST PUSH2 0x74E JUMPI PUSH1 0x40 MLOAD PUSH32 0x8C379A000000000000000000000000000000000000000000000000000000000 DUP2 MSTORE PUSH1 0x4 ADD PUSH2 0x745 SWAP1 PUSH2 0x2BA0 JUMP JUMPDEST PUSH1 0x40 MLOAD DUP1 SWAP2 SUB SWAP1 REVERT JUMPDEST PUSH2 0x757 DUP3 PUSH2 0xDCB JUMP JUMPDEST PUSH2 0x760 DUP4 PUSH2 0xE5F JUMP JUMPDEST PUSH1 0x40 MLOAD PUSH1 0x20 ADD PUSH2 0x771 SWAP3 SWAP2 SWAP1 PUSH2 0x2C48 JUMP JUMPDEST PUSH1 0x40 MLOAD PUSH1 0x20 DUP2 DUP4 SUB SUB DUP2 MSTORE SWAP1 PUSH1 0x40 MSTORE SWAP1 POP SWAP2 SWAP1 POP JUMP JUMPDEST PUSH1 0x0 ADDRESS SWAP1 POP SWAP1 JUMP JUMPDEST DUP1 PUSH1 0x6 SLOAD PUSH2 0x79D SWAP2 SWAP1 PUSH2 0x2CA6 JUMP JUMPDEST CALLVALUE LT ISZERO PUSH2 0x7DF JUMPI PUSH1 0x40 MLOAD PUSH32 0x8C379A000000000000000000000000000000000000000000000000000000000 DUP2 MSTORE PUSH1 0x4 ADD PUSH2 0x7D6 SWAP1 PUSH2 0x2D34 JUMP JUMPDEST PUSH1 0x40 MLOAD DUP1 SWAP2 SUB SWAP1 REVERT JUMPDEST PUSH1 0x5 SLOAD DUP2 PUSH1 0x7 PUSH1 0x0 DUP6 DUP2 MSTORE PUSH1 0x20 ADD SWAP1 DUP2 MSTORE PUSH1 0x20 ADD PUSH1 0x0 KECCAK256 SLOAD PUSH2 0x801 SWAP2 SWAP1 PUSH2 0x2D54 JUMP JUMPDEST GT ISZERO PUSH2 0x842 JUMPI PUSH1 0x40 MLOAD PUSH32 0x8C379A000000000000000000000000000000000000000000000000000000000 DUP2 MSTORE PUSH1 0x4 ADD PUSH2 0x839 SWAP1 PUSH2 0x2DD4 JUMP JUMPDEST PUSH1 0x40 MLOAD DUP1 SWAP2 SUB SWAP1 REVERT JUMPDEST PUSH2 0x85D CALLER DUP4 DUP4 PUSH1 0x40 MLOAD DUP1 PUSH1 0x20 ADD PUSH1 0x40 MSTORE DUP1 PUSH1 0x0 DUP2 MSTORE POP PUSH2 0xF2D JUMP JUMPDEST DUP1 PUSH1 0x7 PUSH1 0x0 DUP5 DUP2 MSTORE PUSH1 0x20 ADD SWAP1 DUP2 MSTORE PUSH1 0x20 ADD PUSH1 0x0 KECCAK256 PUSH1 0x0 DUP3 DUP3 SLOAD PUSH2 0x880 SWAP2 SWAP1 PUSH2 0x2D54 JUMP JUMPDEST SWAP3 POP POP DUP2 SWAP1 SSTORE POP POP POP JUMP JUMPDEST PUSH2 0x893 PUSH2 0x10DE JUMP JUMPDEST PUSH20 0xFFFFFFFFFFFFFFFFFFFFFFFFFFFFFFFFFFFFFFFF AND DUP6 PUSH20 0xFFFFFFFFFFFFFFFFFFFFFFFFFFFFFFFFFFFFFFFF AND EQ DUP1 PUSH2 0x8D9 JUMPI POP PUSH2 0x8D8 DUP6 PUSH2 0x8D3 PUSH2 0x10DE JUMP JUMPDEST PUSH2 0xAED JUMP JUMPDEST JUMPDEST PUSH2 0x918 JUMPI PUSH1 0x40 MLOAD PUSH32 0x8C379A000000000000000000000000000000000000000000000000000000000 DUP2 MSTORE PUSH1 0x4 ADD PUSH2 0x90F SWAP1 PUSH2 0x2E66 JUMP JUMPDEST PUSH1 0x40 MLOAD DUP1 SWAP2 SUB SWAP1 REVERT JUMPDEST PUSH2 0x925 DUP6 DUP6 DUP6 DUP6 DUP6 PUSH2 0x10E6 JUMP JUMPDEST POP POP POP POP POP JUMP JUMPDEST PUSH1 0x60 DUP2 MLOAD DUP4 MLOAD EQ PUSH2 0x972 JUMPI PUSH1 0x40 MLOAD PUSH32 0x8C379A000000000000000000000000000000000000000000000000000000000 DUP2 MSTORE PUSH1 0x4 ADD PUSH2 0x969 SWAP1 PUSH2 0x2EF8 JUMP JUMPDEST PUSH1 0x40 MLOAD DUP1 SWAP2 SUB SWAP1 REVERT JUMPDEST PUSH1 0x0 DUP4 MLOAD PUSH8 0xFFFFFFFFFFFFFFFF DUP2 GT ISZERO PUSH2 0x98F JUMPI PUSH2 0x98E PUSH2 0x2253 JUMP JUMPDEST JUMPDEST PUSH1 0x40 MLOAD SWAP1 DUP1 DUP3 MSTORE DUP1 PUSH1 0x20 MUL PUSH1 0x20 ADD DUP3 ADD PUSH1 0x40 MSTORE DUP1 ISZERO PUSH2 0x9BD JUMPI DUP2 PUSH1 0x20 ADD PUSH1 0x20 DUP3 MUL DUP1 CALLDATASIZE DUP4 CALLDATACOPY DUP1 DUP3 ADD SWAP2 POP POP SWAP1 POP JUMPDEST POP SWAP1 POP PUSH1 0x0 JUMPDEST DUP5 MLOAD DUP2 LT ISZERO PUSH2 0xA3A JUMPI PUSH2 0xA0A DUP6 DUP3 DUP2 MLOAD DUP2 LT PUSH2 0x9E2 JUMPI PUSH2 0x9E1 PUSH2 0x2F18 JUMP JUMPDEST JUMPDEST PUSH1 0x20 MUL PUSH1 0x20 ADD ADD MLOAD DUP6 DUP4 DUP2 MLOAD DUP2 LT PUSH2 0x9FD JUMPI PUSH2 0x9FC PUSH2 0x2F18 JUMP JUMPDEST JUMPDEST PUSH1 0x20 MUL PUSH1 0x20 ADD ADD MLOAD PUSH2 0x540 JUMP JUMPDEST DUP3 DUP3 DUP2 MLOAD DUP2 LT PUSH2 0xA1D JUMPI PUSH2 0xA1C PUSH2 0x2F18 JUMP JUMPDEST JUMPDEST PUSH1 0x20 MUL PUSH1 0x20 ADD ADD DUP2 DUP2 MSTORE POP POP DUP1 PUSH2 0xA33 SWAP1 PUSH2 0x2F47 JUMP JUMPDEST SWAP1 POP PUSH2 0x9C3 JUMP JUMPDEST POP DUP1 SWAP2 POP POP SWAP3 SWAP2 POP POP JUMP JUMPDEST PUSH1 0x0 DUP1 PUSH2 0xA51 DUP4 PUSH2 0xACA JUMP JUMPDEST GT SWAP1 POP SWAP2 SWAP1 POP JUMP JUMPDEST PUSH1 0x7 PUSH1 0x20 MSTORE DUP1 PUSH1 0x0 MSTORE PUSH1 0x40 PUSH1 0x0 KECCAK256 PUSH1 0x0 SWAP2 POP SWAP1 POP SLOAD DUP2 JUMP JUMPDEST PUSH1 0x6 SLOAD DUP2 JUMP JUMPDEST PUSH2 0xA7F PUSH2 0xD3A JUMP JUMPDEST PUSH2 0xA89 PUSH1 0x0 PUSH2 0x140A JUMP JUMPDEST JUMP JUMPDEST PUSH1 0x0 DUP1 PUSH1 0x0 SWAP1 SLOAD SWAP1 PUSH2 0x100 EXP SWAP1 DIV PUSH20 0xFFFFFFFFFFFFFFFFFFFFFFFFFFFFFFFFFFFFFFFF AND SWAP1 POP SWAP1 JUMP JUMPDEST PUSH2 0xAC6 PUSH2 0xABF PUSH2 0x10DE JUMP JUMPDEST DUP4 DUP4 PUSH2 0x14CE JUMP JUMPDEST POP POP JUMP JUMPDEST PUSH1 0x0 PUSH1 0x4 PUSH1 0x0 DUP4 DUP2 MSTORE PUSH1 0x20 ADD SWAP1 DUP2 MSTORE PUSH1 0x20 ADD PUSH1 0x0 KECCAK256 SLOAD SWAP1 POP SWAP2 SWAP1 POP JUMP JUMPDEST PUSH1 0x5 SLOAD DUP2 JUMP JUMPDEST PUSH1 0x0 PUSH1 0x2 PUSH1 0x0 DUP5 PUSH20 0xFFFFFFFFFFFFFFFFFFFFFFFFFFFFFFFFFFFFFFFF AND PUSH20 0xFFFFFFFFFFFFFFFFFFFFFFFFFFFFFFFFFFFFFFFF AND DUP2 MSTORE PUSH1 0x20 ADD SWAP1 DUP2 MSTORE PUSH1 0x20 ADD PUSH1 0x0 KECCAK256 PUSH1 0x0 DUP4 PUSH20 0xFFFFFFFFFFFFFFFFFFFFFFFFFFFFFFFFFFFFFFFF AND PUSH20 0xFFFFFFFFFFFFFFFFFFFFFFFFFFFFFFFFFFFFFFFF AND DUP2 MSTORE PUSH1 0x20 ADD SWAP1 DUP2 MSTORE PUSH1 0x20 ADD PUSH1 0x0 KECCAK256 PUSH1 0x0 SWAP1 SLOAD SWAP1 PUSH2 0x100 EXP SWAP1 DIV PUSH1 0xFF AND SWAP1 POP SWAP3 SWAP2 POP POP JUMP JUMPDEST PUSH2 0xB89 PUSH2 0x10DE JUMP JUMPDEST PUSH20 0xFFFFFFFFFFFFFFFFFFFFFFFFFFFFFFFFFFFFFFFF AND DUP6 PUSH20 0xFFFFFFFFFFFFFFFFFFFFFFFFFFFFFFFFFFFFFFFF AND EQ DUP1 PUSH2 0xBCF JUMPI POP PUSH2 0xBCE DUP6 PUSH2 0xBC9 PUSH2 0x10DE JUMP JUMPDEST PUSH2 0xAED JUMP JUMPDEST JUMPDEST PUSH2 0xC0E JUMPI PUSH1 0x40 MLOAD PUSH32 0x8C379A000000000000000000000000000000000000000000000000000000000 DUP2 MSTORE PUSH1 0x4 ADD PUSH2 0xC05 SWAP1 PUSH2 0x2E66 JUMP JUMPDEST PUSH1 0x40 MLOAD DUP1 SWAP2 SUB SWAP1 REVERT JUMPDEST PUSH2 0xC1B DUP6 DUP6 DUP6 DUP6 DUP6 PUSH2 0x163A JUMP JUMPDEST POP POP POP POP POP JUMP JUMPDEST PUSH2 0xC2A PUSH2 0xD3A JUMP JUMPDEST PUSH1 0x0 PUSH20 0xFFFFFFFFFFFFFFFFFFFFFFFFFFFFFFFFFFFFFFFF AND DUP2 PUSH20 0xFFFFFFFFFFFFFFFFFFFFFFFFFFFFFFFFFFFFFFFF AND SUB PUSH2 0xC99 JUMPI PUSH1 0x40 MLOAD PUSH32 0x8C379A000000000000000000000000000000000000000000000000000000000 DUP2 MSTORE PUSH1 0x4 ADD PUSH2 0xC90 SWAP1 PUSH2 0x3001 JUMP JUMPDEST PUSH1 0x40 MLOAD DUP1 SWAP2 SUB SWAP1 REVERT JUMPDEST PUSH2 0xCA2 DUP2 PUSH2 0x140A JUMP JUMPDEST POP JUMP JUMPDEST POP POP POP POP POP POP JUMP JUMPDEST PUSH1 0x0 DUP1 DUP3 PUSH20 0xFFFFFFFFFFFFFFFFFFFFFFFFFFFFFFFFFFFFFFFF AND EXTCODESIZE GT SWAP1 POP SWAP2 SWAP1 POP JUMP JUMPDEST PUSH1 0x0 PUSH32 0x1FFC9A700000000000000000000000000000000000000000000000000000000 PUSH28 0xFFFFFFFFFFFFFFFFFFFFFFFFFFFFFFFFFFFFFFFFFFFFFFFFFFFFFFFF NOT AND DUP3 PUSH28 0xFFFFFFFFFFFFFFFFFFFFFFFFFFFFFFFFFFFFFFFFFFFFFFFFFFFFFFFF NOT AND EQ SWAP1 POP SWAP2 SWAP1 POP JUMP JUMPDEST PUSH2 0xD42 PUSH2 0x10DE JUMP JUMPDEST PUSH20 0xFFFFFFFFFFFFFFFFFFFFFFFFFFFFFFFFFFFFFFFF AND PUSH2 0xD60 PUSH2 0xA8B JUMP JUMPDEST PUSH20 0xFFFFFFFFFFFFFFFFFFFFFFFFFFFFFFFFFFFFFFFF AND EQ PUSH2 0xDB6 JUMPI PUSH1 0x40 MLOAD PUSH32 0x8C379A000000000000000000000000000000000000000000000000000000000 DUP2 MSTORE PUSH1 0x4 ADD PUSH2 0xDAD SWAP1 PUSH2 0x306D JUMP JUMPDEST PUSH1 0x40 MLOAD DUP1 SWAP2 SUB SWAP1 REVERT JUMPDEST JUMP JUMPDEST DUP1 PUSH1 0x3 SWAP1 DUP2 PUSH2 0xDC7 SWAP2 SWAP1 PUSH2 0x3299 JUMP JUMPDEST POP POP JUMP JUMPDEST PUSH1 0x60 PUSH1 0x3 DUP1 SLOAD PUSH2 0xDDA SWAP1 PUSH2 0x30BC JUMP JUMPDEST DUP1 PUSH1 0x1F ADD PUSH1 0x20 DUP1 SWAP2 DIV MUL PUSH1 0x20 ADD PUSH1 0x40 MLOAD SWAP1 DUP2 ADD PUSH1 0x40 MSTORE DUP1 SWAP3 SWAP2 SWAP1 DUP2 DUP2 MSTORE PUSH1 0x20 ADD DUP3 DUP1 SLOAD PUSH2 0xE06 SWAP1 PUSH2 0x30BC JUMP JUMPDEST DUP1 ISZERO PUSH2 0xE53 JUMPI DUP1 PUSH1 0x1F LT PUSH2 0xE28 JUMPI PUSH2 0x100 DUP1 DUP4 SLOAD DIV MUL DUP4 MSTORE SWAP2 PUSH1 0x20 ADD SWAP2 PUSH2 0xE53 JUMP JUMPDEST DUP3 ADD SWAP2 SWAP1 PUSH1 0x0 MSTORE PUSH1 0x20 PUSH1 0x0 KECCAK256 SWAP1 JUMPDEST DUP2 SLOAD DUP2 MSTORE SWAP1 PUSH1 0x1 ADD SWAP1 PUSH1 0x20 ADD DUP1 DUP4 GT PUSH2 0xE36 JUMPI DUP3 SWAP1 SUB PUSH1 0x1F AND DUP3 ADD SWAP2 JUMPDEST POP POP POP POP POP SWAP1 POP SWAP2 SWAP1 POP JUMP JUMPDEST PUSH1 0x60 PUSH1 0x0 PUSH1 0x1 PUSH2 0xE6E DUP5 PUSH2 0x18D8 JUMP JUMPDEST ADD SWAP1 POP PUSH1 0x0 DUP2 PUSH8 0xFFFFFFFFFFFFFFFF DUP2 GT ISZERO PUSH2 0xE8D JUMPI PUSH2 0xE8C PUSH2 0x2253 JUMP JUMPDEST JUMPDEST PUSH1 0x40 MLOAD SWAP1 DUP1 DUP3 MSTORE DUP1 PUSH1 0x1F ADD PUSH1 0x1F NOT AND PUSH1 0x20 ADD DUP3 ADD PUSH1 0x40 MSTORE DUP1 ISZERO PUSH2 0xEBF JUMPI DUP2 PUSH1 0x20 ADD PUSH1 0x1 DUP3 MUL DUP1 CALLDATASIZE DUP4 CALLDATACOPY DUP1 DUP3 ADD SWAP2 POP POP SWAP1 POP JUMPDEST POP SWAP1 POP PUSH1 0x0 DUP3 PUSH1 0x20 ADD DUP3 ADD SWAP1 POP JUMPDEST PUSH1 0x1 ISZERO PUSH2 0xF22 JUMPI DUP1 DUP1 PUSH1 0x1 SWAP1 SUB SWAP2 POP POP PUSH32 0x3031323334353637383961626364656600000000000000000000000000000000 PUSH1 0xA DUP7 MOD BYTE DUP2 MSTORE8 PUSH1 0xA DUP6 DUP2 PUSH2 0xF16 JUMPI PUSH2 0xF15 PUSH2 0x336B JUMP JUMPDEST JUMPDEST DIV SWAP5 POP PUSH1 0x0 DUP6 SUB PUSH2 0xECD JUMPI JUMPDEST DUP2 SWAP4 POP POP POP POP SWAP2 SWAP1 POP JUMP JUMPDEST PUSH1 0x0 PUSH20 0xFFFFFFFFFFFFFFFFFFFFFFFFFFFFFFFFFFFFFFFF AND DUP5 PUSH20 0xFFFFFFFFFFFFFFFFFFFFFFFFFFFFFFFFFFFFFFFF AND SUB PUSH2 0xF9C JUMPI PUSH1 0x40 MLOAD PUSH32 0x8C379A000000000000000000000000000000000000000000000000000000000 DUP2 MSTORE PUSH1 0x4 ADD PUSH2 0xF93 SWAP1 PUSH2 0x340C JUMP JUMPDEST PUSH1 0x40 MLOAD DUP1 SWAP2 SUB SWAP1 REVERT JUMPDEST PUSH1 0x0 PUSH2 0xFA6 PUSH2 0x10DE JUMP JUMPDEST SWAP1 POP PUSH1 0x0 PUSH2 0xFB3 DUP6 PUSH2 0x1A2B JUMP JUMPDEST SWAP1 POP PUSH1 0x0 PUSH2 0xFC0 DUP6 PUSH2 0x1A2B JUMP JUMPDEST SWAP1 POP PUSH2 0xFD1 DUP4 PUSH1 0x0 DUP10 DUP6 DUP6 DUP10 PUSH2 0x1AA5 JUMP JUMPDEST DUP5 PUSH1 0x1 PUSH1 0x0 DUP9 DUP2 MSTORE PUSH1 0x20 ADD SWAP1 DUP2 MSTORE PUSH1 0x20 ADD PUSH1 0x0 KECCAK256 PUSH1 0x0 DUP10 PUSH20 0xFFFFFFFFFFFFFFFFFFFFFFFFFFFFFFFFFFFFFFFF AND PUSH20 0xFFFFFFFFFFFFFFFFFFFFFFFFFFFFFFFFFFFFFFFF AND DUP2 MSTORE PUSH1 0x20 ADD SWAP1 DUP2 MSTORE PUSH1 0x20 ADD PUSH1 0x0 KECCAK256 PUSH1 0x0 DUP3 DUP3 SLOAD PUSH2 0x1031 SWAP2 SWAP1 PUSH2 0x2D54 JUMP JUMPDEST SWAP3 POP POP DUP2 SWAP1 SSTORE POP DUP7 PUSH20 0xFFFFFFFFFFFFFFFFFFFFFFFFFFFFFFFFFFFFFFFF AND PUSH1 0x0 PUSH20 0xFFFFFFFFFFFFFFFFFFFFFFFFFFFFFFFFFFFFFFFF AND DUP5 PUSH20 0xFFFFFFFFFFFFFFFFFFFFFFFFFFFFFFFFFFFFFFFF AND PUSH32 0xC3D58168C5AE7397731D063D5BBF3D657854427343F4C083240F7AACAA2D0F62 DUP10 DUP10 PUSH1 0x40 MLOAD PUSH2 0x10AF SWAP3 SWAP2 SWAP1 PUSH2 0x342C JUMP JUMPDEST PUSH1 0x40 MLOAD DUP1 SWAP2 SUB SWAP1 LOG4 PUSH2 0x10C6 DUP4 PUSH1 0x0 DUP10 DUP6 DUP6 DUP10 PUSH2 0x1C75 JUMP JUMPDEST PUSH2 0x10D5 DUP4 PUSH1 0x0 DUP10 DUP10 DUP10 DUP10 PUSH2 0x1C7D JUMP JUMPDEST POP POP POP POP POP POP POP JUMP JUMPDEST PUSH1 0x0 CALLER SWAP1 POP SWAP1 JUMP JUMPDEST DUP2 MLOAD DUP4 MLOAD EQ PUSH2 0x112A JUMPI PUSH1 0x40 MLOAD PUSH32 0x8C379A000000000000000000000000000000000000000000000000000000000 DUP2 MSTORE PUSH1 0x4 ADD PUSH2 0x1121 SWAP1 PUSH2 0x34C7 JUMP JUMPDEST PUSH1 0x40 MLOAD DUP1 SWAP2 SUB SWAP1 REVERT JUMPDEST PUSH1 0x0 PUSH20 0xFFFFFFFFFFFFFFFFFFFFFFFFFFFFFFFFFFFFFFFF AND DUP5 PUSH20 0xFFFFFFFFFFFFFFFFFFFFFFFFFFFFFFFFFFFFFFFF AND SUB PUSH2 0x1199 JUMPI PUSH1 0x40 MLOAD PUSH32 0x8C379A000000000000000000000000000000000000000000000000000000000 DUP2 MSTORE PUSH1 0x4 ADD PUSH2 0x1190 SWAP1 PUSH2 0x3559 JUMP JUMPDEST PUSH1 0x40 MLOAD DUP1 SWAP2 SUB SWAP1 REVERT JUMPDEST PUSH1 0x0 PUSH2 0x11A3 PUSH2 0x10DE JUMP JUMPDEST SWAP1 POP PUSH2 0x11B3 DUP2 DUP8 DUP8 DUP8 DUP8 DUP8 PUSH2 0x1AA5 JUMP JUMPDEST PUSH1 0x0 JUMPDEST DUP5 MLOAD DUP2 LT ISZERO PUSH2 0x1367 JUMPI PUSH1 0x0 DUP6 DUP3 DUP2 MLOAD DUP2 LT PUSH2 0x11D4 JUMPI PUSH2 0x11D3 PUSH2 0x2F18 JUMP JUMPDEST JUMPDEST PUSH1 0x20 MUL PUSH1 0x20 ADD ADD MLOAD SWAP1 POP PUSH1 0x0 DUP6 DUP4 DUP2 MLOAD DUP2 LT PUSH2 0x11F3 JUMPI PUSH2 0x11F2 PUSH2 0x2F18 JUMP JUMPDEST JUMPDEST PUSH1 0x20 MUL PUSH1 0x20 ADD ADD MLOAD SWAP1 POP PUSH1 0x0 PUSH1 0x1 PUSH1 0x0 DUP5 DUP2 MSTORE PUSH1 0x20 ADD SWAP1 DUP2 MSTORE PUSH1 0x20 ADD PUSH1 0x0 KECCAK256 PUSH1 0x0 DUP12 PUSH20 0xFFFFFFFFFFFFFFFFFFFFFFFFFFFFFFFFFFFFFFFF AND PUSH20 0xFFFFFFFFFFFFFFFFFFFFFFFFFFFFFFFFFFFFFFFF AND DUP2 MSTORE PUSH1 0x20 ADD SWAP1 DUP2 MSTORE PUSH1 0x20 ADD PUSH1 0x0 KECCAK256 SLOAD SWAP1 POP DUP2 DUP2 LT ISZERO PUSH2 0x1295 JUMPI PUSH1 0x40 MLOAD PUSH32 0x8C379A000000000000000000000000000000000000000000000000000000000 DUP2 MSTORE PUSH1 0x4 ADD PUSH2 0x128C SWAP1 PUSH2 0x35EB JUMP JUMPDEST PUSH1 0x40 MLOAD DUP1 SWAP2 SUB SWAP1 REVERT JUMPDEST DUP2 DUP2 SUB PUSH1 0x1 PUSH1 0x0 DUP6 DUP2 MSTORE PUSH1 0x20 ADD SWAP1 DUP2 MSTORE PUSH1 0x20 ADD PUSH1 0x0 KECCAK256 PUSH1 0x0 DUP13 PUSH20 0xFFFFFFFFFFFFFFFFFFFFFFFFFFFFFFFFFFFFFFFF AND PUSH20 0xFFFFFFFFFFFFFFFFFFFFFFFFFFFFFFFFFFFFFFFF AND DUP2 MSTORE PUSH1 0x20 ADD SWAP1 DUP2 MSTORE PUSH1 0x20 ADD PUSH1 0x0 KECCAK256 DUP2 SWAP1 SSTORE POP DUP2 PUSH1 0x1 PUSH1 0x0 DUP6 DUP2 MSTORE PUSH1 0x20 ADD SWAP1 DUP2 MSTORE PUSH1 0x20 ADD PUSH1 0x0 KECCAK256 PUSH1 0x0 DUP12 PUSH20 0xFFFFFFFFFFFFFFFFFFFFFFFFFFFFFFFFFFFFFFFF AND PUSH20 0xFFFFFFFFFFFFFFFFFFFFFFFFFFFFFFFFFFFFFFFF AND DUP2 MSTORE PUSH1 0x20 ADD SWAP1 DUP2 MSTORE PUSH1 0x20 ADD PUSH1 0x0 KECCAK256 PUSH1 0x0 DUP3 DUP3 SLOAD PUSH2 0x134C SWAP2 SWAP1 PUSH2 0x2D54 JUMP JUMPDEST SWAP3 POP POP DUP2 SWAP1 SSTORE POP POP POP POP DUP1 PUSH2 0x1360 SWAP1 PUSH2 0x2F47 JUMP JUMPDEST SWAP1 POP PUSH2 0x11B6 JUMP JUMPDEST POP DUP5 PUSH20 0xFFFFFFFFFFFFFFFFFFFFFFFFFFFFFFFFFFFFFFFF AND DUP7 PUSH20 0xFFFFFFFFFFFFFFFFFFFFFFFFFFFFFFFFFFFFFFFF AND DUP3 PUSH20 0xFFFFFFFFFFFFFFFFFFFFFFFFFFFFFFFFFFFFFFFF AND PUSH32 0x4A39DC06D4C0DBC64B70AF90FD698A233A518AA5D07E595D983B8C0526C8F7FB DUP8 DUP8 PUSH1 0x40 MLOAD PUSH2 0x13DE SWAP3 SWAP2 SWAP1 PUSH2 0x360B JUMP JUMPDEST PUSH1 0x40 MLOAD DUP1 SWAP2 SUB SWAP1 LOG4 PUSH2 0x13F4 DUP2 DUP8 DUP8 DUP8 DUP8 DUP8 PUSH2 0x1C75 JUMP JUMPDEST PUSH2 0x1402 DUP2 DUP8 DUP8 DUP8 DUP8 DUP8 PUSH2 0x1E54 JUMP JUMPDEST POP POP POP POP POP POP JUMP JUMPDEST PUSH1 0x0 DUP1 PUSH1 0x0 SWAP1 SLOAD SWAP1 PUSH2 0x100 EXP SWAP1 DIV PUSH20 0xFFFFFFFFFFFFFFFFFFFFFFFFFFFFFFFFFFFFFFFF AND SWAP1 POP DUP2 PUSH1 0x0 DUP1 PUSH2 0x100 EXP DUP2 SLOAD DUP2 PUSH20 0xFFFFFFFFFFFFFFFFFFFFFFFFFFFFFFFFFFFFFFFF MUL NOT AND SWAP1 DUP4 PUSH20 0xFFFFFFFFFFFFFFFFFFFFFFFFFFFFFFFFFFFFFFFF AND MUL OR SWAP1 SSTORE POP DUP2 PUSH20 0xFFFFFFFFFFFFFFFFFFFFFFFFFFFFFFFFFFFFFFFF AND DUP2 PUSH20 0xFFFFFFFFFFFFFFFFFFFFFFFFFFFFFFFFFFFFFFFF AND PUSH32 0x8BE0079C531659141344CD1FD0A4F28419497F9722A3DAAFE3B4186F6B6457E0 PUSH1 0x40 MLOAD PUSH1 0x40 MLOAD DUP1 SWAP2 SUB SWAP1 LOG3 POP POP JUMP JUMPDEST DUP2 PUSH20 0xFFFFFFFFFFFFFFFFFFFFFFFFFFFFFFFFFFFFFFFF AND DUP4 PUSH20 0xFFFFFFFFFFFFFFFFFFFFFFFFFFFFFFFFFFFFFFFF AND SUB PUSH2 0x153C JUMPI PUSH1 0x40 MLOAD PUSH32 0x8C379A000000000000000000000000000000000000000000000000000000000 DUP2 MSTORE PUSH1 0x4 ADD PUSH2 0x1533 SWAP1 PUSH2 0x36B4 JUMP JUMPDEST PUSH1 0x40 MLOAD DUP1 SWAP2 SUB SWAP1 REVERT JUMPDEST DUP1 PUSH1 0x2 PUSH1 0x0 DUP6 PUSH20 0xFFFFFFFFFFFFFFFFFFFFFFFFFFFFFFFFFFFFFFFF AND PUSH20 0xFFFFFFFFFFFFFFFFFFFFFFFFFFFFFFFFFFFFFFFF AND DUP2 MSTORE PUSH1 0x20 ADD SWAP1 DUP2 MSTORE PUSH1 0x20 ADD PUSH1 0x0 KECCAK256 PUSH1 0x0 DUP5 PUSH20 0xFFFFFFFFFFFFFFFFFFFFFFFFFFFFFFFFFFFFFFFF AND PUSH20 0xFFFFFFFFFFFFFFFFFFFFFFFFFFFFFFFFFFFFFFFF AND DUP2 MSTORE PUSH1 0x20 ADD SWAP1 DUP2 MSTORE PUSH1 0x20 ADD PUSH1 0x0 KECCAK256 PUSH1 0x0 PUSH2 0x100 EXP DUP2 SLOAD DUP2 PUSH1 0xFF MUL NOT AND SWAP1 DUP4 ISZERO ISZERO MUL OR SWAP1 SSTORE POP DUP2 PUSH20 0xFFFFFFFFFFFFFFFFFFFFFFFFFFFFFFFFFFFFFFFF AND DUP4 PUSH20 0xFFFFFFFFFFFFFFFFFFFFFFFFFFFFFFFFFFFFFFFF AND PUSH32 0x17307EAB39AB6107E8899845AD3D59BD9653F200F220920489CA2B5937696C31 DUP4 PUSH1 0x40 MLOAD PUSH2 0x162D SWAP2 SWAP1 PUSH2 0x212E JUMP JUMPDEST PUSH1 0x40 MLOAD DUP1 SWAP2 SUB SWAP1 LOG3 POP POP POP JUMP JUMPDEST PUSH1 0x0 PUSH20 0xFFFFFFFFFFFFFFFFFFFFFFFFFFFFFFFFFFFFFFFF AND DUP5 PUSH20 0xFFFFFFFFFFFFFFFFFFFFFFFFFFFFFFFFFFFFFFFF AND SUB PUSH2 0x16A9 JUMPI PUSH1 0x40 MLOAD PUSH32 0x8C379A000000000000000000000000000000000000000000000000000000000 DUP2 MSTORE PUSH1 0x4 ADD PUSH2 0x16A0 SWAP1 PUSH2 0x3559 JUMP JUMPDEST PUSH1 0x40 MLOAD DUP1 SWAP2 SUB SWAP1 REVERT JUMPDEST PUSH1 0x0 PUSH2 0x16B3 PUSH2 0x10DE JUMP JUMPDEST SWAP1 POP PUSH1 0x0 PUSH2 0x16C0 DUP6 PUSH2 0x1A2B JUMP JUMPDEST SWAP1 POP PUSH1 0x0 PUSH2 0x16CD DUP6 PUSH2 0x1A2B JUMP JUMPDEST SWAP1 POP PUSH2 0x16DD DUP4 DUP10 DUP10 DUP6 DUP6 DUP10 PUSH2 0x1AA5 JUMP JUMPDEST PUSH1 0x0 PUSH1 0x1 PUSH1 0x0 DUP9 DUP2 MSTORE PUSH1 0x20 ADD SWAP1 DUP2 MSTORE PUSH1 0x20 ADD PUSH1 0x0 KECCAK256 PUSH1 0x0 DUP11 PUSH20 0xFFFFFFFFFFFFFFFFFFFFFFFFFFFFFFFFFFFFFFFF AND PUSH20 0xFFFFFFFFFFFFFFFFFFFFFFFFFFFFFFFFFFFFFFFF AND DUP2 MSTORE PUSH1 0x20 ADD SWAP1 DUP2 MSTORE PUSH1 0x20 ADD PUSH1 0x0 KECCAK256 SLOAD SWAP1 POP DUP6 DUP2 LT ISZERO PUSH2 0x1775 JUMPI PUSH1 0x40 MLOAD PUSH32 0x8C379A000000000000000000000000000000000000000000000000000000000 DUP2 MSTORE PUSH1 0x4 ADD PUSH2 0x176C SWAP1 PUSH2 0x35EB JUMP JUMPDEST PUSH1 0x40 MLOAD DUP1 SWAP2 SUB SWAP1 REVERT JUMPDEST DUP6 DUP2 SUB PUSH1 0x1 PUSH1 0x0 DUP10 DUP2 MSTORE PUSH1 0x20 ADD SWAP1 DUP2 MSTORE PUSH1 0x20 ADD PUSH1 0x0 KECCAK256 PUSH1 0x0 DUP12 PUSH20 0xFFFFFFFFFFFFFFFFFFFFFFFFFFFFFFFFFFFFFFFF AND PUSH20 0xFFFFFFFFFFFFFFFFFFFFFFFFFFFFFFFFFFFFFFFF AND DUP2 MSTORE PUSH1 0x20 ADD SWAP1 DUP2 MSTORE PUSH1 0x20 ADD PUSH1 0x0 KECCAK256 DUP2 SWAP1 SSTORE POP DUP6 PUSH1 0x1 PUSH1 0x0 DUP10 DUP2 MSTORE PUSH1 0x20 ADD SWAP1 DUP2 MSTORE PUSH1 0x20 ADD PUSH1 0x0 KECCAK256 PUSH1 0x0 DUP11 PUSH20 0xFFFFFFFFFFFFFFFFFFFFFFFFFFFFFFFFFFFFFFFF AND PUSH20 0xFFFFFFFFFFFFFFFFFFFFFFFFFFFFFFFFFFFFFFFF AND DUP2 MSTORE PUSH1 0x20 ADD SWAP1 DUP2 MSTORE PUSH1 0x20 ADD PUSH1 0x0 KECCAK256 PUSH1 0x0 DUP3 DUP3 SLOAD PUSH2 0x182C SWAP2 SWAP1 PUSH2 0x2D54 JUMP JUMPDEST SWAP3 POP POP DUP2 SWAP1 SSTORE POP DUP8 PUSH20 0xFFFFFFFFFFFFFFFFFFFFFFFFFFFFFFFFFFFFFFFF AND DUP10 PUSH20 0xFFFFFFFFFFFFFFFFFFFFFFFFFFFFFFFFFFFFFFFF AND DUP6 PUSH20 0xFFFFFFFFFFFFFFFFFFFFFFFFFFFFFFFFFFFFFFFF AND PUSH32 0xC3D58168C5AE7397731D063D5BBF3D657854427343F4C083240F7AACAA2D0F62 DUP11 DUP11 PUSH1 0x40 MLOAD PUSH2 0x18A9 SWAP3 SWAP2 SWAP1 PUSH2 0x342C JUMP JUMPDEST PUSH1 0x40 MLOAD DUP1 SWAP2 SUB SWAP1 LOG4 PUSH2 0x18BF DUP5 DUP11 DUP11 DUP7 DUP7 DUP11 PUSH2 0x1C75 JUMP JUMPDEST PUSH2 0x18CD DUP5 DUP11 DUP11 DUP11 DUP11 DUP11 PUSH2 0x1C7D JUMP JUMPDEST POP POP POP POP POP POP POP POP POP JUMP JUMPDEST PUSH1 0x0 DUP1 PUSH1 0x0 SWAP1 POP PUSH27 0x184F03E93FF9F4DAA797ED6E38ED64BF6A1F010000000000000000 DUP4 LT PUSH2 0x1936 JUMPI PUSH27 0x184F03E93FF9F4DAA797ED6E38ED64BF6A1F010000000000000000 DUP4 DUP2 PUSH2 0x192C JUMPI PUSH2 0x192B PUSH2 0x336B JUMP JUMPDEST JUMPDEST DIV SWAP3 POP PUSH1 0x40 DUP2 ADD SWAP1 POP JUMPDEST PUSH14 0x4EE2D6D415B85ACEF8100000000 DUP4 LT PUSH2 0x1973 JUMPI PUSH14 0x4EE2D6D415B85ACEF8100000000 DUP4 DUP2 PUSH2 0x1969 JUMPI PUSH2 0x1968 PUSH2 0x336B JUMP JUMPDEST JUMPDEST DIV SWAP3 POP PUSH1 0x20 DUP2 ADD SWAP1 POP JUMPDEST PUSH7 0x2386F26FC10000 DUP4 LT PUSH2 0x19A2 JUMPI PUSH7 0x2386F26FC10000 DUP4 DUP2 PUSH2 0x1998 JUMPI PUSH2 0x1997 PUSH2 0x336B JUMP JUMPDEST JUMPDEST DIV SWAP3 POP PUSH1 0x10 DUP2 ADD SWAP1 POP JUMPDEST PUSH4 0x5F5E100 DUP4 LT PUSH2 0x19CB JUMPI PUSH4 0x5F5E100 DUP4 DUP2 PUSH2 0x19C1 JUMPI PUSH2 0x19C0 PUSH2 0x336B JUMP JUMPDEST JUMPDEST DIV SWAP3 POP PUSH1 0x8 DUP2 ADD SWAP1 POP JUMPDEST PUSH2 0x2710 DUP4 LT PUSH2 0x19F0 JUMPI PUSH2 0x2710 DUP4 DUP2 PUSH2 0x19E6 JUMPI PUSH2 0x19E5 PUSH2 0x336B JUMP JUMPDEST JUMPDEST DIV SWAP3 POP PUSH1 0x4 DUP2 ADD SWAP1 POP JUMPDEST PUSH1 0x64 DUP4 LT PUSH2 0x1A13 JUMPI PUSH1 0x64 DUP4 DUP2 PUSH2 0x1A09 JUMPI PUSH2 0x1A08 PUSH2 0x336B JUMP JUMPDEST JUMPDEST DIV SWAP3 POP PUSH1 0x2 DUP2 ADD SWAP1 POP JUMPDEST PUSH1 0xA DUP4 LT PUSH2 0x1A22 JUMPI PUSH1 0x1 DUP2 ADD SWAP1 POP JUMPDEST DUP1 SWAP2 POP POP SWAP2 SWAP1 POP JUMP JUMPDEST PUSH1 0x60 PUSH1 0x0 PUSH1 0x1 PUSH8 0xFFFFFFFFFFFFFFFF DUP2 GT ISZERO PUSH2 0x1A4A JUMPI PUSH2 0x1A49 PUSH2 0x2253 JUMP JUMPDEST JUMPDEST PUSH1 0x40 MLOAD SWAP1 DUP1 DUP3 MSTORE DUP1 PUSH1 0x20 MUL PUSH1 0x20 ADD DUP3 ADD PUSH1 0x40 MSTORE DUP1 ISZERO PUSH2 0x1A78 JUMPI DUP2 PUSH1 0x20 ADD PUSH1 0x20 DUP3 MUL DUP1 CALLDATASIZE DUP4 CALLDATACOPY DUP1 DUP3 ADD SWAP2 POP POP SWAP1 POP JUMPDEST POP SWAP1 POP DUP3 DUP2 PUSH1 0x0 DUP2 MLOAD DUP2 LT PUSH2 0x1A90 JUMPI PUSH2 0x1A8F PUSH2 0x2F18 JUMP JUMPDEST JUMPDEST PUSH1 0x20 MUL PUSH1 0x20 ADD ADD DUP2 DUP2 MSTORE POP POP DUP1 SWAP2 POP POP SWAP2 SWAP1 POP JUMP JUMPDEST PUSH2 0x1AB3 DUP7 DUP7 DUP7 DUP7 DUP7 DUP7 PUSH2 0xCA5 JUMP JUMPDEST PUSH1 0x0 PUSH20 0xFFFFFFFFFFFFFFFFFFFFFFFFFFFFFFFFFFFFFFFF AND DUP6 PUSH20 0xFFFFFFFFFFFFFFFFFFFFFFFFFFFFFFFFFFFFFFFF AND SUB PUSH2 0x1B64 JUMPI PUSH1 0x0 JUMPDEST DUP4 MLOAD DUP2 LT ISZERO PUSH2 0x1B62 JUMPI DUP3 DUP2 DUP2 MLOAD DUP2 LT PUSH2 0x1B06 JUMPI PUSH2 0x1B05 PUSH2 0x2F18 JUMP JUMPDEST JUMPDEST PUSH1 0x20 MUL PUSH1 0x20 ADD ADD MLOAD PUSH1 0x4 PUSH1 0x0 DUP7 DUP5 DUP2 MLOAD DUP2 LT PUSH2 0x1B25 JUMPI PUSH2 0x1B24 PUSH2 0x2F18 JUMP JUMPDEST JUMPDEST PUSH1 0x20 MUL PUSH1 0x20 ADD ADD MLOAD DUP2 MSTORE PUSH1 0x20 ADD SWAP1 DUP2 MSTORE PUSH1 0x20 ADD PUSH1 0x0 KECCAK256 PUSH1 0x0 DUP3 DUP3 SLOAD PUSH2 0x1B4A SWAP2 SWAP1 PUSH2 0x2D54 JUMP JUMPDEST SWAP3 POP POP DUP2 SWAP1 SSTORE POP DUP1 PUSH2 0x1B5B SWAP1 PUSH2 0x2F47 JUMP JUMPDEST SWAP1 POP PUSH2 0x1AEA JUMP JUMPDEST POP JUMPDEST PUSH1 0x0 PUSH20 0xFFFFFFFFFFFFFFFFFFFFFFFFFFFFFFFFFFFFFFFF AND DUP5 PUSH20 0xFFFFFFFFFFFFFFFFFFFFFFFFFFFFFFFFFFFFFFFF AND SUB PUSH2 0x1C6D JUMPI PUSH1 0x0 JUMPDEST DUP4 MLOAD DUP2 LT ISZERO PUSH2 0x1C6B JUMPI PUSH1 0x0 DUP5 DUP3 DUP2 MLOAD DUP2 LT PUSH2 0x1BB9 JUMPI PUSH2 0x1BB8 PUSH2 0x2F18 JUMP JUMPDEST JUMPDEST PUSH1 0x20 MUL PUSH1 0x20 ADD ADD MLOAD SWAP1 POP PUSH1 0x0 DUP5 DUP4 DUP2 MLOAD DUP2 LT PUSH2 0x1BD8 JUMPI PUSH2 0x1BD7 PUSH2 0x2F18 JUMP JUMPDEST JUMPDEST PUSH1 0x20 MUL PUSH1 0x20 ADD ADD MLOAD SWAP1 POP PUSH1 0x0 PUSH1 0x4 PUSH1 0x0 DUP5 DUP2 MSTORE PUSH1 0x20 ADD SWAP1 DUP2 MSTORE PUSH1 0x20 ADD PUSH1 0x0 KECCAK256 SLOAD SWAP1 POP DUP2 DUP2 LT ISZERO PUSH2 0x1C3D JUMPI PUSH1 0x40 MLOAD PUSH32 0x8C379A000000000000000000000000000000000000000000000000000000000 DUP2 MSTORE PUSH1 0x4 ADD PUSH2 0x1C34 SWAP1 PUSH2 0x3746 JUMP JUMPDEST PUSH1 0x40 MLOAD DUP1 SWAP2 SUB SWAP1 REVERT JUMPDEST DUP2 DUP2 SUB PUSH1 0x4 PUSH1 0x0 DUP6 DUP2 MSTORE PUSH1 0x20 ADD SWAP1 DUP2 MSTORE PUSH1 0x20 ADD PUSH1 0x0 KECCAK256 DUP2 SWAP1 SSTORE POP POP POP POP DUP1 PUSH2 0x1C64 SWAP1 PUSH2 0x2F47 JUMP JUMPDEST SWAP1 POP PUSH2 0x1B9B JUMP JUMPDEST POP JUMPDEST POP POP POP POP POP POP JUMP JUMPDEST POP POP POP POP POP POP JUMP JUMPDEST PUSH2 0x1C9C DUP5 PUSH20 0xFFFFFFFFFFFFFFFFFFFFFFFFFFFFFFFFFFFFFFFF AND PUSH2 0xCAD JUMP JUMPDEST ISZERO PUSH2 0x1E4C JUMPI DUP4 PUSH20 0xFFFFFFFFFFFFFFFFFFFFFFFFFFFFFFFFFFFFFFFF AND PUSH4 0xF23A6E61 DUP8 DUP8 DUP7 DUP7 DUP7 PUSH1 0x40 MLOAD DUP7 PUSH4 0xFFFFFFFF AND PUSH1 0xE0 SHL DUP2 MSTORE PUSH1 0x4 ADD PUSH2 0x1CE2 SWAP6 SWAP5 SWAP4 SWAP3 SWAP2 SWAP1 PUSH2 0x37BB JUMP JUMPDEST PUSH1 0x20 PUSH1 0x40 MLOAD DUP1 DUP4 SUB DUP2 PUSH1 0x0 DUP8 GAS CALL SWAP3 POP POP POP DUP1 ISZERO PUSH2 0x1D1E JUMPI POP PUSH1 0x40 MLOAD RETURNDATASIZE PUSH1 0x1F NOT PUSH1 0x1F DUP3 ADD AND DUP3 ADD DUP1 PUSH1 0x40 MSTORE POP DUP2 ADD SWAP1 PUSH2 0x1D1B SWAP2 SWAP1 PUSH2 0x382A JUMP JUMPDEST PUSH1 0x1 JUMPDEST PUSH2 0x1DC3 JUMPI PUSH2 0x1D2A PUSH2 0x3864 JUMP JUMPDEST DUP1 PUSH4 0x8C379A0 SUB PUSH2 0x1D86 JUMPI POP PUSH2 0x1D3E PUSH2 0x3886 JUMP JUMPDEST DUP1 PUSH2 0x1D49 JUMPI POP PUSH2 0x1D88 JUMP JUMPDEST DUP1 PUSH1 0x40 MLOAD PUSH32 0x8C379A000000000000000000000000000000000000000000000000000000000 DUP2 MSTORE PUSH1 0x4 ADD PUSH2 0x1D7D SWAP2 SWAP1 PUSH2 0x2473 JUMP JUMPDEST PUSH1 0x40 MLOAD DUP1 SWAP2 SUB SWAP1 REVERT JUMPDEST POP JUMPDEST PUSH1 0x40 MLOAD PUSH32 0x8C379A000000000000000000000000000000000000000000000000000000000 DUP2 MSTORE PUSH1 0x4 ADD PUSH2 0x1DBA SWAP1 PUSH2 0x3988 JUMP JUMPDEST PUSH1 0x40 MLOAD DUP1 SWAP2 SUB SWAP1 REVERT JUMPDEST PUSH4 0xF23A6E61 PUSH1 0xE0 SHL PUSH28 0xFFFFFFFFFFFFFFFFFFFFFFFFFFFFFFFFFFFFFFFFFFFFFFFFFFFFFFFF NOT AND DUP2 PUSH28 0xFFFFFFFFFFFFFFFFFFFFFFFFFFFFFFFFFFFFFFFFFFFFFFFFFFFFFFFF NOT AND EQ PUSH2 0x1E4A JUMPI PUSH1 0x40 MLOAD PUSH32 0x8C379A000000000000000000000000000000000000000000000000000000000 DUP2 MSTORE PUSH1 0x4 ADD PUSH2 0x1E41 SWAP1 PUSH2 0x3A1A JUMP JUMPDEST PUSH1 0x40 MLOAD DUP1 SWAP2 SUB SWAP1 REVERT JUMPDEST POP JUMPDEST POP POP POP POP POP POP JUMP JUMPDEST PUSH2 0x1E73 DUP5 PUSH20 0xFFFFFFFFFFFFFFFFFFFFFFFFFFFFFFFFFFFFFFFF AND PUSH2 0xCAD JUMP JUMPDEST ISZERO PUSH2 0x2023 JUMPI DUP4 PUSH20 0xFFFFFFFFFFFFFFFFFFFFFFFFFFFFFFFFFFFFFFFF AND PUSH4 0xBC197C81 DUP8 DUP8 DUP7 DUP7 DUP7 PUSH1 0x40 MLOAD DUP7 PUSH4 0xFFFFFFFF AND PUSH1 0xE0 SHL DUP2 MSTORE PUSH1 0x4 ADD PUSH2 0x1EB9 SWAP6 SWAP5 SWAP4 SWAP3 SWAP2 SWAP1 PUSH2 0x3A3A JUMP JUMPDEST PUSH1 0x20 PUSH1 0x40 MLOAD DUP1 DUP4 SUB DUP2 PUSH1 0x0 DUP8 GAS CALL SWAP3 POP POP POP DUP1 ISZERO PUSH2 0x1EF5 JUMPI POP PUSH1 0x40 MLOAD RETURNDATASIZE PUSH1 0x1F NOT PUSH1 0x1F DUP3 ADD AND DUP3 ADD DUP1 PUSH1 0x40 MSTORE POP DUP2 ADD SWAP1 PUSH2 0x1EF2 SWAP2 SWAP1 PUSH2 0x382A JUMP JUMPDEST PUSH1 0x1 JUMPDEST PUSH2 0x1F9A JUMPI PUSH2 0x1F01 PUSH2 0x3864 JUMP JUMPDEST DUP1 PUSH4 0x8C379A0 SUB PUSH2 0x1F5D JUMPI POP PUSH2 0x1F15 PUSH2 0x3886 JUMP JUMPDEST DUP1 PUSH2 0x1F20 JUMPI POP PUSH2 0x1F5F JUMP JUMPDEST DUP1 PUSH1 0x40 MLOAD PUSH32 0x8C379A000000000000000000000000000000000000000000000000000000000 DUP2 MSTORE PUSH1 0x4 ADD PUSH2 0x1F54 SWAP2 SWAP1 PUSH2 0x2473 JUMP JUMPDEST PUSH1 0x40 MLOAD DUP1 SWAP2 SUB SWAP1 REVERT JUMPDEST POP JUMPDEST PUSH1 0x40 MLOAD PUSH32 0x8C379A000000000000000000000000000000000000000000000000000000000 DUP2 MSTORE PUSH1 0x4 ADD PUSH2 0x1F91 SWAP1 PUSH2 0x3988 JUMP JUMPDEST PUSH1 0x40 MLOAD DUP1 SWAP2 SUB SWAP1 REVERT JUMPDEST PUSH4 0xBC197C81 PUSH1 0xE0 SHL PUSH28 0xFFFFFFFFFFFFFFFFFFFFFFFFFFFFFFFFFFFFFFFFFFFFFFFFFFFFFFFF NOT AND DUP2 PUSH28 0xFFFFFFFFFFFFFFFFFFFFFFFFFFFFFFFFFFFFFFFFFFFFFFFFFFFFFFFF NOT AND EQ PUSH2 0x2021 JUMPI PUSH1 0x40 MLOAD PUSH32 0x8C379A000000000000000000000000000000000000000000000000000000000 DUP2 MSTORE PUSH1 0x4 ADD PUSH2 0x2018 SWAP1 PUSH2 0x3A1A JUMP JUMPDEST PUSH1 0x40 MLOAD DUP1 SWAP2 SUB SWAP1 REVERT JUMPDEST POP JUMPDEST POP POP POP POP POP POP JUMP JUMPDEST PUSH1 0x0 PUSH1 0x40 MLOAD SWAP1 POP SWAP1 JUMP JUMPDEST PUSH1 0x0 DUP1 REVERT JUMPDEST PUSH1 0x0 DUP1 REVERT JUMPDEST PUSH1 0x0 DUP2 SWAP1 POP SWAP2 SWAP1 POP JUMP JUMPDEST PUSH2 0x2052 DUP2 PUSH2 0x203F JUMP JUMPDEST DUP2 EQ PUSH2 0x205D JUMPI PUSH1 0x0 DUP1 REVERT JUMPDEST POP JUMP JUMPDEST PUSH1 0x0 DUP2 CALLDATALOAD SWAP1 POP PUSH2 0x206F DUP2 PUSH2 0x2049 JUMP JUMPDEST SWAP3 SWAP2 POP POP JUMP JUMPDEST PUSH1 0x0 PUSH20 0xFFFFFFFFFFFFFFFFFFFFFFFFFFFFFFFFFFFFFFFF DUP3 AND SWAP1 POP SWAP2 SWAP1 POP JUMP JUMPDEST PUSH1 0x0 PUSH2 0x20A0 DUP3 PUSH2 0x2075 JUMP JUMPDEST SWAP1 POP SWAP2 SWAP1 POP JUMP JUMPDEST PUSH2 0x20B0 DUP2 PUSH2 0x2095 JUMP JUMPDEST DUP2 EQ PUSH2 0x20BB JUMPI PUSH1 0x0 DUP1 REVERT JUMPDEST POP JUMP JUMPDEST PUSH1 0x0 DUP2 CALLDATALOAD SWAP1 POP PUSH2 0x20CD DUP2 PUSH2 0x20A7 JUMP JUMPDEST SWAP3 SWAP2 POP POP JUMP JUMPDEST PUSH1 0x0 DUP1 PUSH1 0x40 DUP4 DUP6 SUB SLT ISZERO PUSH2 0x20EA JUMPI PUSH2 0x20E9 PUSH2 0x2035 JUMP JUMPDEST JUMPDEST PUSH1 0x0 PUSH2 0x20F8 DUP6 DUP3 DUP7 ADD PUSH2 0x2060 JUMP JUMPDEST SWAP3 POP POP PUSH1 0x20 PUSH2 0x2109 DUP6 DUP3 DUP7 ADD PUSH2 0x20BE JUMP JUMPDEST SWAP2 POP POP SWAP3 POP SWAP3 SWAP1 POP JUMP JUMPDEST PUSH1 0x0 DUP2 ISZERO ISZERO SWAP1 POP SWAP2 SWAP1 POP JUMP JUMPDEST PUSH2 0x2128 DUP2 PUSH2 0x2113 JUMP JUMPDEST DUP3 MSTORE POP POP JUMP JUMPDEST PUSH1 0x0 PUSH1 0x20 DUP3 ADD SWAP1 POP PUSH2 0x2143 PUSH1 0x0 DUP4 ADD DUP5 PUSH2 0x211F JUMP JUMPDEST SWAP3 SWAP2 POP POP JUMP JUMPDEST PUSH1 0x0 DUP1 PUSH1 0x40 DUP4 DUP6 SUB SLT ISZERO PUSH2 0x2160 JUMPI PUSH2 0x215F PUSH2 0x2035 JUMP JUMPDEST JUMPDEST PUSH1 0x0 PUSH2 0x216E DUP6 DUP3 DUP7 ADD PUSH2 0x20BE JUMP JUMPDEST SWAP3 POP POP PUSH1 0x20 PUSH2 0x217F DUP6 DUP3 DUP7 ADD PUSH2 0x2060 JUMP JUMPDEST SWAP2 POP POP SWAP3 POP SWAP3 SWAP1 POP JUMP JUMPDEST PUSH2 0x2192 DUP2 PUSH2 0x203F JUMP JUMPDEST DUP3 MSTORE POP POP JUMP JUMPDEST PUSH1 0x0 PUSH1 0x20 DUP3 ADD SWAP1 POP PUSH2 0x21AD PUSH1 0x0 DUP4 ADD DUP5 PUSH2 0x2189 JUMP JUMPDEST SWAP3 SWAP2 POP POP JUMP JUMPDEST PUSH1 0x0 PUSH32 0xFFFFFFFF00000000000000000000000000000000000000000000000000000000 DUP3 AND SWAP1 POP SWAP2 SWAP1 POP JUMP JUMPDEST PUSH2 0x21E8 DUP2 PUSH2 0x21B3 JUMP JUMPDEST DUP2 EQ PUSH2 0x21F3 JUMPI PUSH1 0x0 DUP1 REVERT JUMPDEST POP JUMP JUMPDEST PUSH1 0x0 DUP2 CALLDATALOAD SWAP1 POP PUSH2 0x2205 DUP2 PUSH2 0x21DF JUMP JUMPDEST SWAP3 SWAP2 POP POP JUMP JUMPDEST PUSH1 0x0 PUSH1 0x20 DUP3 DUP5 SUB SLT ISZERO PUSH2 0x2221 JUMPI PUSH2 0x2220 PUSH2 0x2035 JUMP JUMPDEST JUMPDEST PUSH1 0x0 PUSH2 0x222F DUP5 DUP3 DUP6 ADD PUSH2 0x21F6 JUMP JUMPDEST SWAP2 POP POP SWAP3 SWAP2 POP POP JUMP JUMPDEST PUSH1 0x0 DUP1 REVERT JUMPDEST PUSH1 0x0 DUP1 REVERT JUMPDEST PUSH1 0x0 PUSH1 0x1F NOT PUSH1 0x1F DUP4 ADD AND SWAP1 POP SWAP2 SWAP1 POP JUMP JUMPDEST PUSH32 0x4E487B7100000000000000000000000000000000000000000000000000000000 PUSH1 0x0 MSTORE PUSH1 0x41 PUSH1 0x4 MSTORE PUSH1 0x24 PUSH1 0x0 REVERT JUMPDEST PUSH2 0x228B DUP3 PUSH2 0x2242 JUMP JUMPDEST DUP2 ADD DUP2 DUP2 LT PUSH8 0xFFFFFFFFFFFFFFFF DUP3 GT OR ISZERO PUSH2 0x22AA JUMPI PUSH2 0x22A9 PUSH2 0x2253 JUMP JUMPDEST JUMPDEST DUP1 PUSH1 0x40 MSTORE POP POP POP JUMP JUMPDEST PUSH1 0x0 PUSH2 0x22BD PUSH2 0x202B JUMP JUMPDEST SWAP1 POP PUSH2 0x22C9 DUP3 DUP3 PUSH2 0x2282 JUMP JUMPDEST SWAP2 SWAP1 POP JUMP JUMPDEST PUSH1 0x0 PUSH8 0xFFFFFFFFFFFFFFFF DUP3 GT ISZERO PUSH2 0x22E9 JUMPI PUSH2 0x22E8 PUSH2 0x2253 JUMP JUMPDEST JUMPDEST PUSH2 0x22F2 DUP3 PUSH2 0x2242 JUMP JUMPDEST SWAP1 POP PUSH1 0x20 DUP2 ADD SWAP1 POP SWAP2 SWAP1 POP JUMP JUMPDEST DUP3 DUP2 DUP4 CALLDATACOPY PUSH1 0x0 DUP4 DUP4 ADD MSTORE POP POP POP JUMP JUMPDEST PUSH1 0x0 PUSH2 0x2321 PUSH2 0x231C DUP5 PUSH2 0x22CE JUMP JUMPDEST PUSH2 0x22B3 JUMP JUMPDEST SWAP1 POP DUP3 DUP2 MSTORE PUSH1 0x20 DUP2 ADD DUP5 DUP5 DUP5 ADD GT ISZERO PUSH2 0x233D JUMPI PUSH2 0x233C PUSH2 0x223D JUMP JUMPDEST JUMPDEST PUSH2 0x2348 DUP5 DUP3 DUP6 PUSH2 0x22FF JUMP JUMPDEST POP SWAP4 SWAP3 POP POP POP JUMP JUMPDEST PUSH1 0x0 DUP3 PUSH1 0x1F DUP4 ADD SLT PUSH2 0x2365 JUMPI PUSH2 0x2364 PUSH2 0x2238 JUMP JUMPDEST JUMPDEST DUP2 CALLDATALOAD PUSH2 0x2375 DUP5 DUP3 PUSH1 0x20 DUP7 ADD PUSH2 0x230E JUMP JUMPDEST SWAP2 POP POP SWAP3 SWAP2 POP POP JUMP JUMPDEST PUSH1 0x0 PUSH1 0x20 DUP3 DUP5 SUB SLT ISZERO PUSH2 0x2394 JUMPI PUSH2 0x2393 PUSH2 0x2035 JUMP JUMPDEST JUMPDEST PUSH1 0x0 DUP3 ADD CALLDATALOAD PUSH8 0xFFFFFFFFFFFFFFFF DUP2 GT ISZERO PUSH2 0x23B2 JUMPI PUSH2 0x23B1 PUSH2 0x203A JUMP JUMPDEST JUMPDEST PUSH2 0x23BE DUP5 DUP3 DUP6 ADD PUSH2 0x2350 JUMP JUMPDEST SWAP2 POP POP SWAP3 SWAP2 POP POP JUMP JUMPDEST PUSH1 0x0 PUSH1 0x20 DUP3 DUP5 SUB SLT ISZERO PUSH2 0x23DD JUMPI PUSH2 0x23DC PUSH2 0x2035 JUMP JUMPDEST JUMPDEST PUSH1 0x0 PUSH2 0x23EB DUP5 DUP3 DUP6 ADD PUSH2 0x2060 JUMP JUMPDEST SWAP2 POP POP SWAP3 SWAP2 POP POP JUMP JUMPDEST PUSH1 0x0 DUP2 MLOAD SWAP1 POP SWAP2 SWAP1 POP JUMP JUMPDEST PUSH1 0x0 DUP3 DUP3 MSTORE PUSH1 0x20 DUP3 ADD SWAP1 POP SWAP3 SWAP2 POP POP JUMP JUMPDEST PUSH1 0x0 JUMPDEST DUP4 DUP2 LT ISZERO PUSH2 0x242E JUMPI DUP1 DUP3 ADD MLOAD DUP2 DUP5 ADD MSTORE PUSH1 0x20 DUP2 ADD SWAP1 POP PUSH2 0x2413 JUMP JUMPDEST PUSH1 0x0 DUP5 DUP5 ADD MSTORE POP POP POP POP JUMP JUMPDEST PUSH1 0x0 PUSH2 0x2445 DUP3 PUSH2 0x23F4 JUMP JUMPDEST PUSH2 0x244F DUP2 DUP6 PUSH2 0x23FF JUMP JUMPDEST SWAP4 POP PUSH2 0x245F DUP2 DUP6 PUSH1 0x20 DUP7 ADD PUSH2 0x2410 JUMP JUMPDEST PUSH2 0x2468 DUP2 PUSH2 0x2242 JUMP JUMPDEST DUP5 ADD SWAP2 POP POP SWAP3 SWAP2 POP POP JUMP JUMPDEST PUSH1 0x0 PUSH1 0x20 DUP3 ADD SWAP1 POP DUP2 DUP2 SUB PUSH1 0x0 DUP4 ADD MSTORE PUSH2 0x248D DUP2 DUP5 PUSH2 0x243A JUMP JUMPDEST SWAP1 POP SWAP3 SWAP2 POP POP JUMP JUMPDEST PUSH2 0x249E DUP2 PUSH2 0x2095 JUMP JUMPDEST DUP3 MSTORE POP POP JUMP JUMPDEST PUSH1 0x0 PUSH1 0x20 DUP3 ADD SWAP1 POP PUSH2 0x24B9 PUSH1 0x0 DUP4 ADD DUP5 PUSH2 0x2495 JUMP JUMPDEST SWAP3 SWAP2 POP POP JUMP JUMPDEST PUSH1 0x0 DUP1 PUSH1 0x40 DUP4 DUP6 SUB SLT ISZERO PUSH2 0x24D6 JUMPI PUSH2 0x24D5 PUSH2 0x2035 JUMP JUMPDEST JUMPDEST PUSH1 0x0 PUSH2 0x24E4 DUP6 DUP3 DUP7 ADD PUSH2 0x2060 JUMP JUMPDEST SWAP3 POP POP PUSH1 0x20 PUSH2 0x24F5 DUP6 DUP3 DUP7 ADD PUSH2 0x2060 JUMP JUMPDEST SWAP2 POP POP SWAP3 POP SWAP3 SWAP1 POP JUMP JUMPDEST PUSH1 0x0 PUSH8 0xFFFFFFFFFFFFFFFF DUP3 GT ISZERO PUSH2 0x251A JUMPI PUSH2 0x2519 PUSH2 0x2253 JUMP JUMPDEST JUMPDEST PUSH1 0x20 DUP3 MUL SWAP1 POP PUSH1 0x20 DUP2 ADD SWAP1 POP SWAP2 SWAP1 POP JUMP JUMPDEST PUSH1 0x0 DUP1 REVERT JUMPDEST PUSH1 0x0 PUSH2 0x2543 PUSH2 0x253E DUP5 PUSH2 0x24FF JUMP JUMPDEST PUSH2 0x22B3 JUMP JUMPDEST SWAP1 POP DUP1 DUP4 DUP3 MSTORE PUSH1 0x20 DUP3 ADD SWAP1 POP PUSH1 0x20 DUP5 MUL DUP4 ADD DUP6 DUP2 GT ISZERO PUSH2 0x2566 JUMPI PUSH2 0x2565 PUSH2 0x252B JUMP JUMPDEST JUMPDEST DUP4 JUMPDEST DUP2 DUP2 LT ISZERO PUSH2 0x258F JUMPI DUP1 PUSH2 0x257B DUP9 DUP3 PUSH2 0x2060 JUMP JUMPDEST DUP5 MSTORE PUSH1 0x20 DUP5 ADD SWAP4 POP POP PUSH1 0x20 DUP2 ADD SWAP1 POP PUSH2 0x2568 JUMP JUMPDEST POP POP POP SWAP4 SWAP3 POP POP POP JUMP JUMPDEST PUSH1 0x0 DUP3 PUSH1 0x1F DUP4 ADD SLT PUSH2 0x25AE JUMPI PUSH2 0x25AD PUSH2 0x2238 JUMP JUMPDEST JUMPDEST DUP2 CALLDATALOAD PUSH2 0x25BE DUP5 DUP3 PUSH1 0x20 DUP7 ADD PUSH2 0x2530 JUMP JUMPDEST SWAP2 POP POP SWAP3 SWAP2 POP POP JUMP JUMPDEST PUSH1 0x0 PUSH8 0xFFFFFFFFFFFFFFFF DUP3 GT ISZERO PUSH2 0x25E2 JUMPI PUSH2 0x25E1 PUSH2 0x2253 JUMP JUMPDEST JUMPDEST PUSH2 0x25EB DUP3 PUSH2 0x2242 JUMP JUMPDEST SWAP1 POP PUSH1 0x20 DUP2 ADD SWAP1 POP SWAP2 SWAP1 POP JUMP JUMPDEST PUSH1 0x0 PUSH2 0x260B PUSH2 0x2606 DUP5 PUSH2 0x25C7 JUMP JUMPDEST PUSH2 0x22B3 JUMP JUMPDEST SWAP1 POP DUP3 DUP2 MSTORE PUSH1 0x20 DUP2 ADD DUP5 DUP5 DUP5 ADD GT ISZERO PUSH2 0x2627 JUMPI PUSH2 0x2626 PUSH2 0x223D JUMP JUMPDEST JUMPDEST PUSH2 0x2632 DUP5 DUP3 DUP6 PUSH2 0x22FF JUMP JUMPDEST POP SWAP4 SWAP3 POP POP POP JUMP JUMPDEST PUSH1 0x0 DUP3 PUSH1 0x1F DUP4 ADD SLT PUSH2 0x264F JUMPI PUSH2 0x264E PUSH2 0x2238 JUMP JUMPDEST JUMPDEST DUP2 CALLDATALOAD PUSH2 0x265F DUP5 DUP3 PUSH1 0x20 DUP7 ADD PUSH2 0x25F8 JUMP JUMPDEST SWAP2 POP POP SWAP3 SWAP2 POP POP JUMP JUMPDEST PUSH1 0x0 DUP1 PUSH1 0x0 DUP1 PUSH1 0x0 PUSH1 0xA0 DUP7 DUP9 SUB SLT ISZERO PUSH2 0x2684 JUMPI PUSH2 0x2683 PUSH2 0x2035 JUMP JUMPDEST JUMPDEST PUSH1 0x0 PUSH2 0x2692 DUP9 DUP3 DUP10 ADD PUSH2 0x20BE JUMP JUMPDEST SWAP6 POP POP PUSH1 0x20 PUSH2 0x26A3 DUP9 DUP3 DUP10 ADD PUSH2 0x20BE JUMP JUMPDEST SWAP5 POP POP PUSH1 0x40 DUP7 ADD CALLDATALOAD PUSH8 0xFFFFFFFFFFFFFFFF DUP2 GT ISZERO PUSH2 0x26C4 JUMPI PUSH2 0x26C3 PUSH2 0x203A JUMP JUMPDEST JUMPDEST PUSH2 0x26D0 DUP9 DUP3 DUP10 ADD PUSH2 0x2599 JUMP JUMPDEST SWAP4 POP POP PUSH1 0x60 DUP7 ADD CALLDATALOAD PUSH8 0xFFFFFFFFFFFFFFFF DUP2 GT ISZERO PUSH2 0x26F1 JUMPI PUSH2 0x26F0 PUSH2 0x203A JUMP JUMPDEST JUMPDEST PUSH2 0x26FD DUP9 DUP3 DUP10 ADD PUSH2 0x2599 JUMP JUMPDEST SWAP3 POP POP PUSH1 0x80 DUP7 ADD CALLDATALOAD PUSH8 0xFFFFFFFFFFFFFFFF DUP2 GT ISZERO PUSH2 0x271E JUMPI PUSH2 0x271D PUSH2 0x203A JUMP JUMPDEST JUMPDEST PUSH2 0x272A DUP9 DUP3 DUP10 ADD PUSH2 0x263A JUMP JUMPDEST SWAP2 POP POP SWAP3 SWAP6 POP SWAP3 SWAP6 SWAP1 SWAP4 POP JUMP JUMPDEST PUSH1 0x0 PUSH8 0xFFFFFFFFFFFFFFFF DUP3 GT ISZERO PUSH2 0x2752 JUMPI PUSH2 0x2751 PUSH2 0x2253 JUMP JUMPDEST JUMPDEST PUSH1 0x20 DUP3 MUL SWAP1 POP PUSH1 0x20 DUP2 ADD SWAP1 POP SWAP2 SWAP1 POP JUMP JUMPDEST PUSH1 0x0 PUSH2 0x2776 PUSH2 0x2771 DUP5 PUSH2 0x2737 JUMP JUMPDEST PUSH2 0x22B3 JUMP JUMPDEST SWAP1 POP DUP1 DUP4 DUP3 MSTORE PUSH1 0x20 DUP3 ADD SWAP1 POP PUSH1 0x20 DUP5 MUL DUP4 ADD DUP6 DUP2 GT ISZERO PUSH2 0x2799 JUMPI PUSH2 0x2798 PUSH2 0x252B JUMP JUMPDEST JUMPDEST DUP4 JUMPDEST DUP2 DUP2 LT ISZERO PUSH2 0x27C2 JUMPI DUP1 PUSH2 0x27AE DUP9 DUP3 PUSH2 0x20BE JUMP JUMPDEST DUP5 MSTORE PUSH1 0x20 DUP5 ADD SWAP4 POP POP PUSH1 0x20 DUP2 ADD SWAP1 POP PUSH2 0x279B JUMP JUMPDEST POP POP POP SWAP4 SWAP3 POP POP POP JUMP JUMPDEST PUSH1 0x0 DUP3 PUSH1 0x1F DUP4 ADD SLT PUSH2 0x27E1 JUMPI PUSH2 0x27E0 PUSH2 0x2238 JUMP JUMPDEST JUMPDEST DUP2 CALLDATALOAD PUSH2 0x27F1 DUP5 DUP3 PUSH1 0x20 DUP7 ADD PUSH2 0x2763 JUMP JUMPDEST SWAP2 POP POP SWAP3 SWAP2 POP POP JUMP JUMPDEST PUSH1 0x0 DUP1 PUSH1 0x40 DUP4 DUP6 SUB SLT ISZERO PUSH2 0x2811 JUMPI PUSH2 0x2810 PUSH2 0x2035 JUMP JUMPDEST JUMPDEST PUSH1 0x0 DUP4 ADD CALLDATALOAD PUSH8 0xFFFFFFFFFFFFFFFF DUP2 GT ISZERO PUSH2 0x282F JUMPI PUSH2 0x282E PUSH2 0x203A JUMP JUMPDEST JUMPDEST PUSH2 0x283B DUP6 DUP3 DUP7 ADD PUSH2 0x27CC JUMP JUMPDEST SWAP3 POP POP PUSH1 0x20 DUP4 ADD CALLDATALOAD PUSH8 0xFFFFFFFFFFFFFFFF DUP2 GT ISZERO PUSH2 0x285C JUMPI PUSH2 0x285B PUSH2 0x203A JUMP JUMPDEST JUMPDEST PUSH2 0x2868 DUP6 DUP3 DUP7 ADD PUSH2 0x2599 JUMP JUMPDEST SWAP2 POP POP SWAP3 POP SWAP3 SWAP1 POP JUMP JUMPDEST PUSH1 0x0 DUP2 MLOAD SWAP1 POP SWAP2 SWAP1 POP JUMP JUMPDEST PUSH1 0x0 DUP3 DUP3 MSTORE PUSH1 0x20 DUP3 ADD SWAP1 POP SWAP3 SWAP2 POP POP JUMP JUMPDEST PUSH1 0x0 DUP2 SWAP1 POP PUSH1 0x20 DUP3 ADD SWAP1 POP SWAP2 SWAP1 POP JUMP JUMPDEST PUSH2 0x28A7 DUP2 PUSH2 0x203F JUMP JUMPDEST DUP3 MSTORE POP POP JUMP JUMPDEST PUSH1 0x0 PUSH2 0x28B9 DUP4 DUP4 PUSH2 0x289E JUMP JUMPDEST PUSH1 0x20 DUP4 ADD SWAP1 POP SWAP3 SWAP2 POP POP JUMP JUMPDEST PUSH1 0x0 PUSH1 0x20 DUP3 ADD SWAP1 POP SWAP2 SWAP1 POP JUMP JUMPDEST PUSH1 0x0 PUSH2 0x28DD DUP3 PUSH2 0x2872 JUMP JUMPDEST PUSH2 0x28E7 DUP2 DUP6 PUSH2 0x287D JUMP JUMPDEST SWAP4 POP PUSH2 0x28F2 DUP4 PUSH2 0x288E JUMP JUMPDEST DUP1 PUSH1 0x0 JUMPDEST DUP4 DUP2 LT ISZERO PUSH2 0x2923 JUMPI DUP2 MLOAD PUSH2 0x290A DUP9 DUP3 PUSH2 0x28AD JUMP JUMPDEST SWAP8 POP PUSH2 0x2915 DUP4 PUSH2 0x28C5 JUMP JUMPDEST SWAP3 POP POP PUSH1 0x1 DUP2 ADD SWAP1 POP PUSH2 0x28F6 JUMP JUMPDEST POP DUP6 SWAP4 POP POP POP POP SWAP3 SWAP2 POP POP JUMP JUMPDEST PUSH1 0x0 PUSH1 0x20 DUP3 ADD SWAP1 POP DUP2 DUP2 SUB PUSH1 0x0 DUP4 ADD MSTORE PUSH2 0x294A DUP2 DUP5 PUSH2 0x28D2 JUMP JUMPDEST SWAP1 POP SWAP3 SWAP2 POP POP JUMP JUMPDEST PUSH2 0x295B DUP2 PUSH2 0x2113 JUMP JUMPDEST DUP2 EQ PUSH2 0x2966 JUMPI PUSH1 0x0 DUP1 REVERT JUMPDEST POP JUMP JUMPDEST PUSH1 0x0 DUP2 CALLDATALOAD SWAP1 POP PUSH2 0x2978 DUP2 PUSH2 0x2952 JUMP JUMPDEST SWAP3 SWAP2 POP POP JUMP JUMPDEST PUSH1 0x0 DUP1 PUSH1 0x40 DUP4 DUP6 SUB SLT ISZERO PUSH2 0x2995 JUMPI PUSH2 0x2994 PUSH2 0x2035 JUMP JUMPDEST JUMPDEST PUSH1 0x0 PUSH2 0x29A3 DUP6 DUP3 DUP7 ADD PUSH2 0x20BE JUMP JUMPDEST SWAP3 POP POP PUSH1 0x20 PUSH2 0x29B4 DUP6 DUP3 DUP7 ADD PUSH2 0x2969 JUMP JUMPDEST SWAP2 POP POP SWAP3 POP SWAP3 SWAP1 POP JUMP JUMPDEST PUSH1 0x0 DUP1 PUSH1 0x40 DUP4 DUP6 SUB SLT ISZERO PUSH2 0x29D5 JUMPI PUSH2 0x29D4 PUSH2 0x2035 JUMP JUMPDEST JUMPDEST PUSH1 0x0 PUSH2 0x29E3 DUP6 DUP3 DUP7 ADD PUSH2 0x20BE JUMP JUMPDEST SWAP3 POP POP PUSH1 0x20 PUSH2 0x29F4 DUP6 DUP3 DUP7 ADD PUSH2 0x20BE JUMP JUMPDEST SWAP2 POP POP SWAP3 POP SWAP3 SWAP1 POP JUMP JUMPDEST PUSH1 0x0 DUP1 PUSH1 0x0 DUP1 PUSH1 0x0 PUSH1 0xA0 DUP7 DUP9 SUB SLT ISZERO PUSH2 0x2A1A JUMPI PUSH2 0x2A19 PUSH2 0x2035 JUMP JUMPDEST JUMPDEST PUSH1 0x0 PUSH2 0x2A28 DUP9 DUP3 DUP10 ADD PUSH2 0x20BE JUMP JUMPDEST SWAP6 POP POP PUSH1 0x20 PUSH2 0x2A39 DUP9 DUP3 DUP10 ADD PUSH2 0x20BE JUMP JUMPDEST SWAP5 POP POP PUSH1 0x40 PUSH2 0x2A4A DUP9 DUP3 DUP10 ADD PUSH2 0x2060 JUMP JUMPDEST SWAP4 POP POP PUSH1 0x60 PUSH2 0x2A5B DUP9 DUP3 DUP10 ADD PUSH2 0x2060 JUMP JUMPDEST SWAP3 POP POP PUSH1 0x80 DUP7 ADD CALLDATALOAD PUSH8 0xFFFFFFFFFFFFFFFF DUP2 GT ISZERO PUSH2 0x2A7C JUMPI PUSH2 0x2A7B PUSH2 0x203A JUMP JUMPDEST JUMPDEST PUSH2 0x2A88 DUP9 DUP3 DUP10 ADD PUSH2 0x263A JUMP JUMPDEST SWAP2 POP POP SWAP3 SWAP6 POP SWAP3 SWAP6 SWAP1 SWAP4 POP JUMP JUMPDEST PUSH1 0x0 PUSH1 0x20 DUP3 DUP5 SUB SLT ISZERO PUSH2 0x2AAB JUMPI PUSH2 0x2AAA PUSH2 0x2035 JUMP JUMPDEST JUMPDEST PUSH1 0x0 PUSH2 0x2AB9 DUP5 DUP3 DUP6 ADD PUSH2 0x20BE JUMP JUMPDEST SWAP2 POP POP SWAP3 SWAP2 POP POP JUMP JUMPDEST PUSH32 0x455243313135353A2061646472657373207A65726F206973206E6F7420612076 PUSH1 0x0 DUP3 ADD MSTORE PUSH32 0x616C6964206F776E657200000000000000000000000000000000000000000000 PUSH1 0x20 DUP3 ADD MSTORE POP JUMP JUMPDEST PUSH1 0x0 PUSH2 0x2B1E PUSH1 0x2A DUP4 PUSH2 0x23FF JUMP JUMPDEST SWAP2 POP PUSH2 0x2B29 DUP3 PUSH2 0x2AC2 JUMP JUMPDEST PUSH1 0x40 DUP3 ADD SWAP1 POP SWAP2 SWAP1 POP JUMP JUMPDEST PUSH1 0x0 PUSH1 0x20 DUP3 ADD SWAP1 POP DUP2 DUP2 SUB PUSH1 0x0 DUP4 ADD MSTORE PUSH2 0x2B4D DUP2 PUSH2 0x2B11 JUMP JUMPDEST SWAP1 POP SWAP2 SWAP1 POP JUMP JUMPDEST PUSH32 0x757269206E6F742065786973747320746F6B656E000000000000000000000000 PUSH1 0x0 DUP3 ADD MSTORE POP JUMP JUMPDEST PUSH1 0x0 PUSH2 0x2B8A PUSH1 0x14 DUP4 PUSH2 0x23FF JUMP JUMPDEST SWAP2 POP PUSH2 0x2B95 DUP3 PUSH2 0x2B54 JUMP JUMPDEST PUSH1 0x20 DUP3 ADD SWAP1 POP SWAP2 SWAP1 POP JUMP JUMPDEST PUSH1 0x0 PUSH1 0x20 DUP3 ADD SWAP1 POP DUP2 DUP2 SUB PUSH1 0x0 DUP4 ADD MSTORE PUSH2 0x2BB9 DUP2 PUSH2 0x2B7D JUMP JUMPDEST SWAP1 POP SWAP2 SWAP1 POP JUMP JUMPDEST PUSH1 0x0 DUP2 SWAP1 POP SWAP3 SWAP2 POP POP JUMP JUMPDEST PUSH1 0x0 PUSH2 0x2BD6 DUP3 PUSH2 0x23F4 JUMP JUMPDEST PUSH2 0x2BE0 DUP2 DUP6 PUSH2 0x2BC0 JUMP JUMPDEST SWAP4 POP PUSH2 0x2BF0 DUP2 DUP6 PUSH1 0x20 DUP7 ADD PUSH2 0x2410 JUMP JUMPDEST DUP1 DUP5 ADD SWAP2 POP POP SWAP3 SWAP2 POP POP JUMP JUMPDEST PUSH32 0x2E6A736F6E000000000000000000000000000000000000000000000000000000 PUSH1 0x0 DUP3 ADD MSTORE POP JUMP JUMPDEST PUSH1 0x0 PUSH2 0x2C32 PUSH1 0x5 DUP4 PUSH2 0x2BC0 JUMP JUMPDEST SWAP2 POP PUSH2 0x2C3D DUP3 PUSH2 0x2BFC JUMP JUMPDEST PUSH1 0x5 DUP3 ADD SWAP1 POP SWAP2 SWAP1 POP JUMP JUMPDEST PUSH1 0x0 PUSH2 0x2C54 DUP3 DUP6 PUSH2 0x2BCB JUMP JUMPDEST SWAP2 POP PUSH2 0x2C60 DUP3 DUP5 PUSH2 0x2BCB JUMP JUMPDEST SWAP2 POP PUSH2 0x2C6B DUP3 PUSH2 0x2C25 JUMP JUMPDEST SWAP2 POP DUP2 SWAP1 POP SWAP4 SWAP3 POP POP POP JUMP JUMPDEST PUSH32 0x4E487B7100000000000000000000000000000000000000000000000000000000 PUSH1 0x0 MSTORE PUSH1 0x11 PUSH1 0x4 MSTORE PUSH1 0x24 PUSH1 0x0 REVERT JUMPDEST PUSH1 0x0 PUSH2 0x2CB1 DUP3 PUSH2 0x203F JUMP JUMPDEST SWAP2 POP PUSH2 0x2CBC DUP4 PUSH2 0x203F JUMP JUMPDEST SWAP3 POP DUP3 DUP3 MUL PUSH2 0x2CCA DUP2 PUSH2 0x203F JUMP JUMPDEST SWAP2 POP DUP3 DUP3 DIV DUP5 EQ DUP4 ISZERO OR PUSH2 0x2CE1 JUMPI PUSH2 0x2CE0 PUSH2 0x2C77 JUMP JUMPDEST JUMPDEST POP SWAP3 SWAP2 POP POP JUMP JUMPDEST PUSH32 0x6E6F7420656E6F756768206D6F6E657900000000000000000000000000000000 PUSH1 0x0 DUP3 ADD MSTORE POP JUMP JUMPDEST PUSH1 0x0 PUSH2 0x2D1E PUSH1 0x10 DUP4 PUSH2 0x23FF JUMP JUMPDEST SWAP2 POP PUSH2 0x2D29 DUP3 PUSH2 0x2CE8 JUMP JUMPDEST PUSH1 0x20 DUP3 ADD SWAP1 POP SWAP2 SWAP1 POP JUMP JUMPDEST PUSH1 0x0 PUSH1 0x20 DUP3 ADD SWAP1 POP DUP2 DUP2 SUB PUSH1 0x0 DUP4 ADD MSTORE PUSH2 0x2D4D DUP2 PUSH2 0x2D11 JUMP JUMPDEST SWAP1 POP SWAP2 SWAP1 POP JUMP JUMPDEST PUSH1 0x0 PUSH2 0x2D5F DUP3 PUSH2 0x203F JUMP JUMPDEST SWAP2 POP PUSH2 0x2D6A DUP4 PUSH2 0x203F JUMP JUMPDEST SWAP3 POP DUP3 DUP3 ADD SWAP1 POP DUP1 DUP3 GT ISZERO PUSH2 0x2D82 JUMPI PUSH2 0x2D81 PUSH2 0x2C77 JUMP JUMPDEST JUMPDEST SWAP3 SWAP2 POP POP JUMP JUMPDEST PUSH32 0x45786365656473206D6178696D756D20737570706C7900000000000000000000 PUSH1 0x0 DUP3 ADD MSTORE POP JUMP JUMPDEST PUSH1 0x0 PUSH2 0x2DBE PUSH1 0x16 DUP4 PUSH2 0x23FF JUMP JUMPDEST SWAP2 POP PUSH2 0x2DC9 DUP3 PUSH2 0x2D88 JUMP JUMPDEST PUSH1 0x20 DUP3 ADD SWAP1 POP SWAP2 SWAP1 POP JUMP JUMPDEST PUSH1 0x0 PUSH1 0x20 DUP3 ADD SWAP1 POP DUP2 DUP2 SUB PUSH1 0x0 DUP4 ADD MSTORE PUSH2 0x2DED DUP2 PUSH2 0x2DB1 JUMP JUMPDEST SWAP1 POP SWAP2 SWAP1 POP JUMP JUMPDEST PUSH32 0x455243313135353A2063616C6C6572206973206E6F7420746F6B656E206F776E PUSH1 0x0 DUP3 ADD MSTORE PUSH32 0x6572206F7220617070726F766564000000000000000000000000000000000000 PUSH1 0x20 DUP3 ADD MSTORE POP JUMP JUMPDEST PUSH1 0x0 PUSH2 0x2E50 PUSH1 0x2E DUP4 PUSH2 0x23FF JUMP JUMPDEST SWAP2 POP PUSH2 0x2E5B DUP3 PUSH2 0x2DF4 JUMP JUMPDEST PUSH1 0x40 DUP3 ADD SWAP1 POP SWAP2 SWAP1 POP JUMP JUMPDEST PUSH1 0x0 PUSH1 0x20 DUP3 ADD SWAP1 POP DUP2 DUP2 SUB PUSH1 0x0 DUP4 ADD MSTORE PUSH2 0x2E7F DUP2 PUSH2 0x2E43 JUMP JUMPDEST SWAP1 POP SWAP2 SWAP1 POP JUMP JUMPDEST PUSH32 0x455243313135353A206163636F756E747320616E6420696473206C656E677468 PUSH1 0x0 DUP3 ADD MSTORE PUSH32 0x206D69736D617463680000000000000000000000000000000000000000000000 PUSH1 0x20 DUP3 ADD MSTORE POP JUMP JUMPDEST PUSH1 0x0 PUSH2 0x2EE2 PUSH1 0x29 DUP4 PUSH2 0x23FF JUMP JUMPDEST SWAP2 POP PUSH2 0x2EED DUP3 PUSH2 0x2E86 JUMP JUMPDEST PUSH1 0x40 DUP3 ADD SWAP1 POP SWAP2 SWAP1 POP JUMP JUMPDEST PUSH1 0x0 PUSH1 0x20 DUP3 ADD SWAP1 POP DUP2 DUP2 SUB PUSH1 0x0 DUP4 ADD MSTORE PUSH2 0x2F11 DUP2 PUSH2 0x2ED5 JUMP JUMPDEST SWAP1 POP SWAP2 SWAP1 POP JUMP JUMPDEST PUSH32 0x4E487B7100000000000000000000000000000000000000000000000000000000 PUSH1 0x0 MSTORE PUSH1 0x32 PUSH1 0x4 MSTORE PUSH1 0x24 PUSH1 0x0 REVERT JUMPDEST PUSH1 0x0 PUSH2 0x2F52 DUP3 PUSH2 0x203F JUMP JUMPDEST SWAP2 POP PUSH32 0xFFFFFFFFFFFFFFFFFFFFFFFFFFFFFFFFFFFFFFFFFFFFFFFFFFFFFFFFFFFFFFFF DUP3 SUB PUSH2 0x2F84 JUMPI PUSH2 0x2F83 PUSH2 0x2C77 JUMP JUMPDEST JUMPDEST PUSH1 0x1 DUP3 ADD SWAP1 POP SWAP2 SWAP1 POP JUMP JUMPDEST PUSH32 0x4F776E61626C653A206E6577206F776E657220697320746865207A65726F2061 PUSH1 0x0 DUP3 ADD MSTORE PUSH32 0x6464726573730000000000000000000000000000000000000000000000000000 PUSH1 0x20 DUP3 ADD MSTORE POP JUMP JUMPDEST PUSH1 0x0 PUSH2 0x2FEB PUSH1 0x26 DUP4 PUSH2 0x23FF JUMP JUMPDEST SWAP2 POP PUSH2 0x2FF6 DUP3 PUSH2 0x2F8F JUMP JUMPDEST PUSH1 0x40 DUP3 ADD SWAP1 POP SWAP2 SWAP1 POP JUMP JUMPDEST PUSH1 0x0 PUSH1 0x20 DUP3 ADD SWAP1 POP DUP2 DUP2 SUB PUSH1 0x0 DUP4 ADD MSTORE PUSH2 0x301A DUP2 PUSH2 0x2FDE JUMP JUMPDEST SWAP1 POP SWAP2 SWAP1 POP JUMP JUMPDEST PUSH32 0x4F776E61626C653A2063616C6C6572206973206E6F7420746865206F776E6572 PUSH1 0x0 DUP3 ADD MSTORE POP JUMP JUMPDEST PUSH1 0x0 PUSH2 0x3057 PUSH1 0x20 DUP4 PUSH2 0x23FF JUMP JUMPDEST SWAP2 POP PUSH2 0x3062 DUP3 PUSH2 0x3021 JUMP JUMPDEST PUSH1 0x20 DUP3 ADD SWAP1 POP SWAP2 SWAP1 POP JUMP JUMPDEST PUSH1 0x0 PUSH1 0x20 DUP3 ADD SWAP1 POP DUP2 DUP2 SUB PUSH1 0x0 DUP4 ADD MSTORE PUSH2 0x3086 DUP2 PUSH2 0x304A JUMP JUMPDEST SWAP1 POP SWAP2 SWAP1 POP JUMP JUMPDEST PUSH32 0x4E487B7100000000000000000000000000000000000000000000000000000000 PUSH1 0x0 MSTORE PUSH1 0x22 PUSH1 0x4 MSTORE PUSH1 0x24 PUSH1 0x0 REVERT JUMPDEST PUSH1 0x0 PUSH1 0x2 DUP3 DIV SWAP1 POP PUSH1 0x1 DUP3 AND DUP1 PUSH2 0x30D4 JUMPI PUSH1 0x7F DUP3 AND SWAP2 POP JUMPDEST PUSH1 0x20 DUP3 LT DUP2 SUB PUSH2 0x30E7 JUMPI PUSH2 0x30E6 PUSH2 0x308D JUMP JUMPDEST JUMPDEST POP SWAP2 SWAP1 POP JUMP JUMPDEST PUSH1 0x0 DUP2 SWAP1 POP DUP2 PUSH1 0x0 MSTORE PUSH1 0x20 PUSH1 0x0 KECCAK256 SWAP1 POP SWAP2 SWAP1 POP JUMP JUMPDEST PUSH1 0x0 PUSH1 0x20 PUSH1 0x1F DUP4 ADD DIV SWAP1 POP SWAP2 SWAP1 POP JUMP JUMPDEST PUSH1 0x0 DUP3 DUP3 SHL SWAP1 POP SWAP3 SWAP2 POP POP JUMP JUMPDEST PUSH1 0x0 PUSH1 0x8 DUP4 MUL PUSH2 0x314F PUSH32 0xFFFFFFFFFFFFFFFFFFFFFFFFFFFFFFFFFFFFFFFFFFFFFFFFFFFFFFFFFFFFFFFF DUP3 PUSH2 0x3112 JUMP JUMPDEST PUSH2 0x3159 DUP7 DUP4 PUSH2 0x3112 JUMP JUMPDEST SWAP6 POP DUP1 NOT DUP5 AND SWAP4 POP DUP1 DUP7 AND DUP5 OR SWAP3 POP POP POP SWAP4 SWAP3 POP POP POP JUMP JUMPDEST PUSH1 0x0 DUP2 SWAP1 POP SWAP2 SWAP1 POP JUMP JUMPDEST PUSH1 0x0 PUSH2 0x3196 PUSH2 0x3191 PUSH2 0x318C DUP5 PUSH2 0x203F JUMP JUMPDEST PUSH2 0x3171 JUMP JUMPDEST PUSH2 0x203F JUMP JUMPDEST SWAP1 POP SWAP2 SWAP1 POP JUMP JUMPDEST PUSH1 0x0 DUP2 SWAP1 POP SWAP2 SWAP1 POP JUMP JUMPDEST PUSH2 0x31B0 DUP4 PUSH2 0x317B JUMP JUMPDEST PUSH2 0x31C4 PUSH2 0x31BC DUP3 PUSH2 0x319D JUMP JUMPDEST DUP5 DUP5 SLOAD PUSH2 0x311F JUMP JUMPDEST DUP3 SSTORE POP POP POP POP JUMP JUMPDEST PUSH1 0x0 SWAP1 JUMP JUMPDEST PUSH2 0x31D9 PUSH2 0x31CC JUMP JUMPDEST PUSH2 0x31E4 DUP2 DUP5 DUP5 PUSH2 0x31A7 JUMP JUMPDEST POP POP POP JUMP JUMPDEST JUMPDEST DUP2 DUP2 LT ISZERO PUSH2 0x3208 JUMPI PUSH2 0x31FD PUSH1 0x0 DUP3 PUSH2 0x31D1 JUMP JUMPDEST PUSH1 0x1 DUP2 ADD SWAP1 POP PUSH2 0x31EA JUMP JUMPDEST POP POP JUMP JUMPDEST PUSH1 0x1F DUP3 GT ISZERO PUSH2 0x324D JUMPI PUSH2 0x321E DUP2 PUSH2 0x30ED JUMP JUMPDEST PUSH2 0x3227 DUP5 PUSH2 0x3102 JUMP JUMPDEST DUP2 ADD PUSH1 0x20 DUP6 LT ISZERO PUSH2 0x3236 JUMPI DUP2 SWAP1 POP JUMPDEST PUSH2 0x324A PUSH2 0x3242 DUP6 PUSH2 0x3102 JUMP JUMPDEST DUP4 ADD DUP3 PUSH2 0x31E9 JUMP JUMPDEST POP POP JUMPDEST POP POP POP JUMP JUMPDEST PUSH1 0x0 DUP3 DUP3 SHR SWAP1 POP SWAP3 SWAP2 POP POP JUMP JUMPDEST PUSH1 0x0 PUSH2 0x3270 PUSH1 0x0 NOT DUP5 PUSH1 0x8 MUL PUSH2 0x3252 JUMP JUMPDEST NOT DUP1 DUP4 AND SWAP2 POP POP SWAP3 SWAP2 POP POP JUMP JUMPDEST PUSH1 0x0 PUSH2 0x3289 DUP4 DUP4 PUSH2 0x325F JUMP JUMPDEST SWAP2 POP DUP3 PUSH1 0x2 MUL DUP3 OR SWAP1 POP SWAP3 SWAP2 POP POP JUMP JUMPDEST PUSH2 0x32A2 DUP3 PUSH2 0x23F4 JUMP JUMPDEST PUSH8 0xFFFFFFFFFFFFFFFF DUP2 GT ISZERO PUSH2 0x32BB JUMPI PUSH2 0x32BA PUSH2 0x2253 JUMP JUMPDEST JUMPDEST PUSH2 0x32C5 DUP3 SLOAD PUSH2 0x30BC JUMP JUMPDEST PUSH2 0x32D0 DUP3 DUP3 DUP6 PUSH2 0x320C JUMP JUMPDEST PUSH1 0x0 PUSH1 0x20 SWAP1 POP PUSH1 0x1F DUP4 GT PUSH1 0x1 DUP2 EQ PUSH2 0x3303 JUMPI PUSH1 0x0 DUP5 ISZERO PUSH2 0x32F1 JUMPI DUP3 DUP8 ADD MLOAD SWAP1 POP JUMPDEST PUSH2 0x32FB DUP6 DUP3 PUSH2 0x327D JUMP JUMPDEST DUP7 SSTORE POP PUSH2 0x3363 JUMP JUMPDEST PUSH1 0x1F NOT DUP5 AND PUSH2 0x3311 DUP7 PUSH2 0x30ED JUMP JUMPDEST PUSH1 0x0 JUMPDEST DUP3 DUP2 LT ISZERO PUSH2 0x3339 JUMPI DUP5 DUP10 ADD MLOAD DUP3 SSTORE PUSH1 0x1 DUP3 ADD SWAP2 POP PUSH1 0x20 DUP6 ADD SWAP5 POP PUSH1 0x20 DUP2 ADD SWAP1 POP PUSH2 0x3314 JUMP JUMPDEST DUP7 DUP4 LT ISZERO PUSH2 0x3356 JUMPI DUP5 DUP10 ADD MLOAD PUSH2 0x3352 PUSH1 0x1F DUP10 AND DUP3 PUSH2 0x325F JUMP JUMPDEST DUP4 SSTORE POP JUMPDEST PUSH1 0x1 PUSH1 0x2 DUP9 MUL ADD DUP9 SSTORE POP POP POP JUMPDEST POP POP POP POP POP POP JUMP JUMPDEST PUSH32 0x4E487B7100000000000000000000000000000000000000000000000000000000 PUSH1 0x0 MSTORE PUSH1 0x12 PUSH1 0x4 MSTORE PUSH1 0x24 PUSH1 0x0 REVERT JUMPDEST PUSH32 0x455243313135353A206D696E7420746F20746865207A65726F20616464726573 PUSH1 0x0 DUP3 ADD MSTORE PUSH32 0x7300000000000000000000000000000000000000000000000000000000000000 PUSH1 0x20 DUP3 ADD MSTORE POP JUMP JUMPDEST PUSH1 0x0 PUSH2 0x33F6 PUSH1 0x21 DUP4 PUSH2 0x23FF JUMP JUMPDEST SWAP2 POP PUSH2 0x3401 DUP3 PUSH2 0x339A JUMP JUMPDEST PUSH1 0x40 DUP3 ADD SWAP1 POP SWAP2 SWAP1 POP JUMP JUMPDEST PUSH1 0x0 PUSH1 0x20 DUP3 ADD SWAP1 POP DUP2 DUP2 SUB PUSH1 0x0 DUP4 ADD MSTORE PUSH2 0x3425 DUP2 PUSH2 0x33E9 JUMP JUMPDEST SWAP1 POP SWAP2 SWAP1 POP JUMP JUMPDEST PUSH1 0x0 PUSH1 0x40 DUP3 ADD SWAP1 POP PUSH2 0x3441 PUSH1 0x0 DUP4 ADD DUP6 PUSH2 0x2189 JUMP JUMPDEST PUSH2 0x344E PUSH1 0x20 DUP4 ADD DUP5 PUSH2 0x2189 JUMP JUMPDEST SWAP4 SWAP3 POP POP POP JUMP JUMPDEST PUSH32 0x455243313135353A2069647320616E6420616D6F756E7473206C656E67746820 PUSH1 0x0 DUP3 ADD MSTORE PUSH32 0x6D69736D61746368000000000000000000000000000000000000000000000000 PUSH1 0x20 DUP3 ADD MSTORE POP JUMP JUMPDEST PUSH1 0x0 PUSH2 0x34B1 PUSH1 0x28 DUP4 PUSH2 0x23FF JUMP JUMPDEST SWAP2 POP PUSH2 0x34BC DUP3 PUSH2 0x3455 JUMP JUMPDEST PUSH1 0x40 DUP3 ADD SWAP1 POP SWAP2 SWAP1 POP JUMP JUMPDEST PUSH1 0x0 PUSH1 0x20 DUP3 ADD SWAP1 POP DUP2 DUP2 SUB PUSH1 0x0 DUP4 ADD MSTORE PUSH2 0x34E0 DUP2 PUSH2 0x34A4 JUMP JUMPDEST SWAP1 POP SWAP2 SWAP1 POP JUMP JUMPDEST PUSH32 0x455243313135353A207472616E7366657220746F20746865207A65726F206164 PUSH1 0x0 DUP3 ADD MSTORE PUSH32 0x6472657373000000000000000000000000000000000000000000000000000000 PUSH1 0x20 DUP3 ADD MSTORE POP JUMP JUMPDEST PUSH1 0x0 PUSH2 0x3543 PUSH1 0x25 DUP4 PUSH2 0x23FF JUMP JUMPDEST SWAP2 POP PUSH2 0x354E DUP3 PUSH2 0x34E7 JUMP JUMPDEST PUSH1 0x40 DUP3 ADD SWAP1 POP SWAP2 SWAP1 POP JUMP JUMPDEST PUSH1 0x0 PUSH1 0x20 DUP3 ADD SWAP1 POP DUP2 DUP2 SUB PUSH1 0x0 DUP4 ADD MSTORE PUSH2 0x3572 DUP2 PUSH2 0x3536 JUMP JUMPDEST SWAP1 POP SWAP2 SWAP1 POP JUMP JUMPDEST PUSH32 0x455243313135353A20696E73756666696369656E742062616C616E636520666F PUSH1 0x0 DUP3 ADD MSTORE PUSH32 0x72207472616E7366657200000000000000000000000000000000000000000000 PUSH1 0x20 DUP3 ADD MSTORE POP JUMP JUMPDEST PUSH1 0x0 PUSH2 0x35D5 PUSH1 0x2A DUP4 PUSH2 0x23FF JUMP JUMPDEST SWAP2 POP PUSH2 0x35E0 DUP3 PUSH2 0x3579 JUMP JUMPDEST PUSH1 0x40 DUP3 ADD SWAP1 POP SWAP2 SWAP1 POP JUMP JUMPDEST PUSH1 0x0 PUSH1 0x20 DUP3 ADD SWAP1 POP DUP2 DUP2 SUB PUSH1 0x0 DUP4 ADD MSTORE PUSH2 0x3604 DUP2 PUSH2 0x35C8 JUMP JUMPDEST SWAP1 POP SWAP2 SWAP1 POP JUMP JUMPDEST PUSH1 0x0 PUSH1 0x40 DUP3 ADD SWAP1 POP DUP2 DUP2 SUB PUSH1 0x0 DUP4 ADD MSTORE PUSH2 0x3625 DUP2 DUP6 PUSH2 0x28D2 JUMP JUMPDEST SWAP1 POP DUP2 DUP2 SUB PUSH1 0x20 DUP4 ADD MSTORE PUSH2 0x3639 DUP2 DUP5 PUSH2 0x28D2 JUMP JUMPDEST SWAP1 POP SWAP4 SWAP3 POP POP POP JUMP JUMPDEST PUSH32 0x455243313135353A2073657474696E6720617070726F76616C20737461747573 PUSH1 0x0 DUP3 ADD MSTORE PUSH32 0x20666F722073656C660000000000000000000000000000000000000000000000 PUSH1 0x20 DUP3 ADD MSTORE POP JUMP JUMPDEST PUSH1 0x0 PUSH2 0x369E PUSH1 0x29 DUP4 PUSH2 0x23FF JUMP JUMPDEST SWAP2 POP PUSH2 0x36A9 DUP3 PUSH2 0x3642 JUMP JUMPDEST PUSH1 0x40 DUP3 ADD SWAP1 POP SWAP2 SWAP1 POP JUMP JUMPDEST PUSH1 0x0 PUSH1 0x20 DUP3 ADD SWAP1 POP DUP2 DUP2 SUB PUSH1 0x0 DUP4 ADD MSTORE PUSH2 0x36CD DUP2 PUSH2 0x3691 JUMP JUMPDEST SWAP1 POP SWAP2 SWAP1 POP JUMP JUMPDEST PUSH32 0x455243313135353A206275726E20616D6F756E74206578636565647320746F74 PUSH1 0x0 DUP3 ADD MSTORE PUSH32 0x616C537570706C79000000000000000000000000000000000000000000000000 PUSH1 0x20 DUP3 ADD MSTORE POP JUMP JUMPDEST PUSH1 0x0 PUSH2 0x3730 PUSH1 0x28 DUP4 PUSH2 0x23FF JUMP JUMPDEST SWAP2 POP PUSH2 0x373B DUP3 PUSH2 0x36D4 JUMP JUMPDEST PUSH1 0x40 DUP3 ADD SWAP1 POP SWAP2 SWAP1 POP JUMP JUMPDEST PUSH1 0x0 PUSH1 0x20 DUP3 ADD SWAP1 POP DUP2 DUP2 SUB PUSH1 0x0 DUP4 ADD MSTORE PUSH2 0x375F DUP2 PUSH2 0x3723 JUMP JUMPDEST SWAP1 POP SWAP2 SWAP1 POP JUMP JUMPDEST PUSH1 0x0 DUP2 MLOAD SWAP1 POP SWAP2 SWAP1 POP JUMP JUMPDEST PUSH1 0x0 DUP3 DUP3 MSTORE PUSH1 0x20 DUP3 ADD SWAP1 POP SWAP3 SWAP2 POP POP JUMP JUMPDEST PUSH1 0x0 PUSH2 0x378D DUP3 PUSH2 0x3766 JUMP JUMPDEST PUSH2 0x3797 DUP2 DUP6 PUSH2 0x3771 JUMP JUMPDEST SWAP4 POP PUSH2 0x37A7 DUP2 DUP6 PUSH1 0x20 DUP7 ADD PUSH2 0x2410 JUMP JUMPDEST PUSH2 0x37B0 DUP2 PUSH2 0x2242 JUMP JUMPDEST DUP5 ADD SWAP2 POP POP SWAP3 SWAP2 POP POP JUMP JUMPDEST PUSH1 0x0 PUSH1 0xA0 DUP3 ADD SWAP1 POP PUSH2 0x37D0 PUSH1 0x0 DUP4 ADD DUP9 PUSH2 0x2495 JUMP JUMPDEST PUSH2 0x37DD PUSH1 0x20 DUP4 ADD DUP8 PUSH2 0x2495 JUMP JUMPDEST PUSH2 0x37EA PUSH1 0x40 DUP4 ADD DUP7 PUSH2 0x2189 JUMP JUMPDEST PUSH2 0x37F7 PUSH1 0x60 DUP4 ADD DUP6 PUSH2 0x2189 JUMP JUMPDEST DUP2 DUP2 SUB PUSH1 0x80 DUP4 ADD MSTORE PUSH2 0x3809 DUP2 DUP5 PUSH2 0x3782 JUMP JUMPDEST SWAP1 POP SWAP7 SWAP6 POP POP POP POP POP POP JUMP JUMPDEST PUSH1 0x0 DUP2 MLOAD SWAP1 POP PUSH2 0x3824 DUP2 PUSH2 0x21DF JUMP JUMPDEST SWAP3 SWAP2 POP POP JUMP JUMPDEST PUSH1 0x0 PUSH1 0x20 DUP3 DUP5 SUB SLT ISZERO PUSH2 0x3840 JUMPI PUSH2 0x383F PUSH2 0x2035 JUMP JUMPDEST JUMPDEST PUSH1 0x0 PUSH2 0x384E DUP5 DUP3 DUP6 ADD PUSH2 0x3815 JUMP JUMPDEST SWAP2 POP POP SWAP3 SWAP2 POP POP JUMP JUMPDEST PUSH1 0x0 DUP2 PUSH1 0xE0 SHR SWAP1 POP SWAP2 SWAP1 POP JUMP JUMPDEST PUSH1 0x0 PUSH1 0x3 RETURNDATASIZE GT ISZERO PUSH2 0x3883 JUMPI PUSH1 0x4 PUSH1 0x0 DUP1 RETURNDATACOPY PUSH2 0x3880 PUSH1 0x0 MLOAD PUSH2 0x3857 JUMP JUMPDEST SWAP1 POP JUMPDEST SWAP1 JUMP JUMPDEST PUSH1 0x0 PUSH1 0x44 RETURNDATASIZE LT PUSH2 0x3913 JUMPI PUSH2 0x3898 PUSH2 0x202B JUMP JUMPDEST PUSH1 0x4 RETURNDATASIZE SUB PUSH1 0x4 DUP3 RETURNDATACOPY DUP1 MLOAD RETURNDATASIZE PUSH1 0x24 DUP3 ADD GT PUSH8 0xFFFFFFFFFFFFFFFF DUP3 GT OR ISZERO PUSH2 0x38C0 JUMPI POP POP PUSH2 0x3913 JUMP JUMPDEST DUP1 DUP3 ADD DUP1 MLOAD PUSH8 0xFFFFFFFFFFFFFFFF DUP2 GT ISZERO PUSH2 0x38DE JUMPI POP POP POP POP PUSH2 0x3913 JUMP JUMPDEST DUP1 PUSH1 0x20 DUP4 ADD ADD PUSH1 0x4 RETURNDATASIZE SUB DUP6 ADD DUP2 GT ISZERO PUSH2 0x38FB JUMPI POP POP POP POP POP PUSH2 0x3913 JUMP JUMPDEST PUSH2 0x390A DUP3 PUSH1 0x20 ADD DUP6 ADD DUP7 PUSH2 0x2282 JUMP JUMPDEST DUP3 SWAP6 POP POP POP POP POP POP JUMPDEST SWAP1 JUMP JUMPDEST PUSH32 0x455243313135353A207472616E7366657220746F206E6F6E2D45524331313535 PUSH1 0x0 DUP3 ADD MSTORE PUSH32 0x526563656976657220696D706C656D656E746572000000000000000000000000 PUSH1 0x20 DUP3 ADD MSTORE POP JUMP JUMPDEST PUSH1 0x0 PUSH2 0x3972 PUSH1 0x34 DUP4 PUSH2 0x23FF JUMP JUMPDEST SWAP2 POP PUSH2 0x397D DUP3 PUSH2 0x3916 JUMP JUMPDEST PUSH1 0x40 DUP3 ADD SWAP1 POP SWAP2 SWAP1 POP JUMP JUMPDEST PUSH1 0x0 PUSH1 0x20 DUP3 ADD SWAP1 POP DUP2 DUP2 SUB PUSH1 0x0 DUP4 ADD MSTORE PUSH2 0x39A1 DUP2 PUSH2 0x3965 JUMP JUMPDEST SWAP1 POP SWAP2 SWAP1 POP JUMP JUMPDEST PUSH32 0x455243313135353A204552433131353552656365697665722072656A65637465 PUSH1 0x0 DUP3 ADD MSTORE PUSH32 0x6420746F6B656E73000000000000000000000000000000000000000000000000 PUSH1 0x20 DUP3 ADD MSTORE POP JUMP JUMPDEST PUSH1 0x0 PUSH2 0x3A04 PUSH1 0x28 DUP4 PUSH2 0x23FF JUMP JUMPDEST SWAP2 POP PUSH2 0x3A0F DUP3 PUSH2 0x39A8 JUMP JUMPDEST PUSH1 0x40 DUP3 ADD SWAP1 POP SWAP2 SWAP1 POP JUMP JUMPDEST PUSH1 0x0 PUSH1 0x20 DUP3 ADD SWAP1 POP DUP2 DUP2 SUB PUSH1 0x0 DUP4 ADD MSTORE PUSH2 0x3A33 DUP2 PUSH2 0x39F7 JUMP JUMPDEST SWAP1 POP SWAP2 SWAP1 POP JUMP JUMPDEST PUSH1 0x0 PUSH1 0xA0 DUP3 ADD SWAP1 POP PUSH2 0x3A4F PUSH1 0x0 DUP4 ADD DUP9 PUSH2 0x2495 JUMP JUMPDEST PUSH2 0x3A5C PUSH1 0x20 DUP4 ADD DUP8 PUSH2 0x2495 JUMP JUMPDEST DUP2 DUP2 SUB PUSH1 0x40 DUP4 ADD MSTORE PUSH2 0x3A6E DUP2 DUP7 PUSH2 0x28D2 JUMP JUMPDEST SWAP1 POP DUP2 DUP2 SUB PUSH1 0x60 DUP4 ADD MSTORE PUSH2 0x3A82 DUP2 DUP6 PUSH2 0x28D2 JUMP JUMPDEST SWAP1 POP DUP2 DUP2 SUB PUSH1 0x80 DUP4 ADD MSTORE PUSH2 0x3A96 DUP2 DUP5 PUSH2 0x3782 JUMP JUMPDEST SWAP1 POP SWAP7 SWAP6 POP POP POP POP POP POP JUMP INVALID LOG2 PUSH5 0x6970667358 0x22 SLT KECCAK256 0xC ADD SWAP7 0xE4 0xC3 PUSH28 0x65377F3516B9DC2C8929990E46E01581994FDA57884FEF58AFBF6473 PUSH16 0x6C6343000812003368747470733A2F2F PUSH8 0x6174657761792E70 PUSH10 0x6E6174612E636C6F7564 0x2F PUSH10 0x7066732F516D5A316341 SELFBALANCE PUSH9 0x69786F6A4568616D53 PUSH8 0x7162645056657843 PUSH23 0x414C35544A46316953705141783944745152322F312E6A PUSH20 0x6F6E000000000000000000000000000000000000 "
		},
		"gasEstimates": {
			"creation": {
				"codeDepositCost": "3012800",
				"executionCost": "infinite",
				"totalCost": "infinite"
			},
			"external": {
				"PublicPrice()": "2496",
				"Token_Id()": "441",
				"_totalSupply(uint256)": "infinite",
				"balanceOf(address,uint256)": "infinite",
				"balanceOfBatch(address[],uint256[])": "infinite",
				"exists(uint256)": "2858",
				"getcontractaddress()": "430",
				"isApprovedForAll(address,address)": "infinite",
				"maxSupply()": "2495",
				"mint(uint256,uint256)": "infinite",
				"owner()": "2633",
				"ownerOf(uint256,address)": "3214",
				"renounceOwnership()": "30487",
				"safeBatchTransferFrom(address,address,uint256[],uint256[],bytes)": "infinite",
				"safeTransferFrom(address,address,uint256,uint256,bytes)": "infinite",
				"setApprovalForAll(address,bool)": "infinite",
				"setURI(string)": "infinite",
				"supportsInterface(bytes4)": "841",
				"totalSupply(uint256)": "infinite",
				"transferOwnership(address)": "30876",
				"uri(uint256)": "infinite"
			}
		},
		"methodIdentifiers": {
			"PublicPrice()": "5c065600",
			"Token_Id()": "0673d7d0",
			"_totalSupply(uint256)": "5977e82a",
			"balanceOf(address,uint256)": "00fdd58e",
			"balanceOfBatch(address[],uint256[])": "4e1273f4",
			"exists(uint256)": "4f558e79",
			"getcontractaddress()": "15621373",
			"isApprovedForAll(address,address)": "e985e9c5",
			"maxSupply()": "d5abeb01",
			"mint(uint256,uint256)": "1b2ef1ca",
			"owner()": "8da5cb5b",
			"ownerOf(uint256,address)": "00f74867",
			"renounceOwnership()": "715018a6",
			"safeBatchTransferFrom(address,address,uint256[],uint256[],bytes)": "2eb2c2d6",
			"safeTransferFrom(address,address,uint256,uint256,bytes)": "f242432a",
			"setApprovalForAll(address,bool)": "a22cb465",
			"setURI(string)": "02fe5305",
			"supportsInterface(bytes4)": "01ffc9a7",
			"totalSupply(uint256)": "bd85b039",
			"transferOwnership(address)": "f2fde38b",
			"uri(uint256)": "0e89341c"
		}
	},
	"abi": [
		{
			"inputs": [],
			"stateMutability": "nonpayable",
			"type": "constructor"
		},
		{
			"anonymous": false,
			"inputs": [
				{
					"indexed": true,
					"internalType": "address",
					"name": "account",
					"type": "address"
				},
				{
					"indexed": true,
					"internalType": "address",
					"name": "operator",
					"type": "address"
				},
				{
					"indexed": false,
					"internalType": "bool",
					"name": "approved",
					"type": "bool"
				}
			],
			"name": "ApprovalForAll",
			"type": "event"
		},
		{
			"anonymous": false,
			"inputs": [
				{
					"indexed": true,
					"internalType": "address",
					"name": "previousOwner",
					"type": "address"
				},
				{
					"indexed": true,
					"internalType": "address",
					"name": "newOwner",
					"type": "address"
				}
			],
			"name": "OwnershipTransferred",
			"type": "event"
		},
		{
			"anonymous": false,
			"inputs": [
				{
					"indexed": true,
					"internalType": "address",
					"name": "operator",
					"type": "address"
				},
				{
					"indexed": true,
					"internalType": "address",
					"name": "from",
					"type": "address"
				},
				{
					"indexed": true,
					"internalType": "address",
					"name": "to",
					"type": "address"
				},
				{
					"indexed": false,
					"internalType": "uint256[]",
					"name": "ids",
					"type": "uint256[]"
				},
				{
					"indexed": false,
					"internalType": "uint256[]",
					"name": "values",
					"type": "uint256[]"
				}
			],
			"name": "TransferBatch",
			"type": "event"
		},
		{
			"anonymous": false,
			"inputs": [
				{
					"indexed": true,
					"internalType": "address",
					"name": "operator",
					"type": "address"
				},
				{
					"indexed": true,
					"internalType": "address",
					"name": "from",
					"type": "address"
				},
				{
					"indexed": true,
					"internalType": "address",
					"name": "to",
					"type": "address"
				},
				{
					"indexed": false,
					"internalType": "uint256",
					"name": "id",
					"type": "uint256"
				},
				{
					"indexed": false,
					"internalType": "uint256",
					"name": "value",
					"type": "uint256"
				}
			],
			"name": "TransferSingle",
			"type": "event"
		},
		{
			"anonymous": false,
			"inputs": [
				{
					"indexed": false,
					"internalType": "string",
					"name": "value",
					"type": "string"
				},
				{
					"indexed": true,
					"internalType": "uint256",
					"name": "id",
					"type": "uint256"
				}
			],
			"name": "URI",
			"type": "event"
		},
		{
			"inputs": [],
			"name": "PublicPrice",
			"outputs": [
				{
					"internalType": "uint256",
					"name": "",
					"type": "uint256"
				}
			],
			"stateMutability": "view",
			"type": "function"
		},
		{
			"inputs": [],
			"name": "Token_Id",
			"outputs": [
				{
					"internalType": "uint256",
					"name": "",
					"type": "uint256"
				}
			],
			"stateMutability": "view",
			"type": "function"
		},
		{
			"inputs": [
				{
					"internalType": "uint256",
					"name": "",
					"type": "uint256"
				}
			],
			"name": "_totalSupply",
			"outputs": [
				{
					"internalType": "uint256",
					"name": "",
					"type": "uint256"
				}
			],
			"stateMutability": "view",
			"type": "function"
		},
		{
			"inputs": [
				{
					"internalType": "address",
					"name": "account",
					"type": "address"
				},
				{
					"internalType": "uint256",
					"name": "id",
					"type": "uint256"
				}
			],
			"name": "balanceOf",
			"outputs": [
				{
					"internalType": "uint256",
					"name": "",
					"type": "uint256"
				}
			],
			"stateMutability": "view",
			"type": "function"
		},
		{
			"inputs": [
				{
					"internalType": "address[]",
					"name": "accounts",
					"type": "address[]"
				},
				{
					"internalType": "uint256[]",
					"name": "ids",
					"type": "uint256[]"
				}
			],
			"name": "balanceOfBatch",
			"outputs": [
				{
					"internalType": "uint256[]",
					"name": "",
					"type": "uint256[]"
				}
			],
			"stateMutability": "view",
			"type": "function"
		},
		{
			"inputs": [
				{
					"internalType": "uint256",
					"name": "id",
					"type": "uint256"
				}
			],
			"name": "exists",
			"outputs": [
				{
					"internalType": "bool",
					"name": "",
					"type": "bool"
				}
			],
			"stateMutability": "view",
			"type": "function"
		},
		{
			"inputs": [],
			"name": "getcontractaddress",
			"outputs": [
				{
					"internalType": "address",
					"name": "",
					"type": "address"
				}
			],
			"stateMutability": "nonpayable",
			"type": "function"
		},
		{
			"inputs": [
				{
					"internalType": "address",
					"name": "account",
					"type": "address"
				},
				{
					"internalType": "address",
					"name": "operator",
					"type": "address"
				}
			],
			"name": "isApprovedForAll",
			"outputs": [
				{
					"internalType": "bool",
					"name": "",
					"type": "bool"
				}
			],
			"stateMutability": "view",
			"type": "function"
		},
		{
			"inputs": [],
			"name": "maxSupply",
			"outputs": [
				{
					"internalType": "uint256",
					"name": "",
					"type": "uint256"
				}
			],
			"stateMutability": "view",
			"type": "function"
		},
		{
			"inputs": [
				{
					"internalType": "uint256",
					"name": "_id",
					"type": "uint256"
				},
				{
					"internalType": "uint256",
					"name": "_amount",
					"type": "uint256"
				}
			],
			"name": "mint",
			"outputs": [],
			"stateMutability": "payable",
			"type": "function"
		},
		{
			"inputs": [],
			"name": "owner",
			"outputs": [
				{
					"internalType": "address",
					"name": "",
					"type": "address"
				}
			],
			"stateMutability": "view",
			"type": "function"
		},
		{
			"inputs": [
				{
					"internalType": "uint256",
					"name": "_id",
					"type": "uint256"
				},
				{
					"internalType": "address",
					"name": "owner",
					"type": "address"
				}
			],
			"name": "ownerOf",
			"outputs": [
				{
					"internalType": "bool",
					"name": "",
					"type": "bool"
				}
			],
			"stateMutability": "view",
			"type": "function"
		},
		{
			"inputs": [],
			"name": "renounceOwnership",
			"outputs": [],
			"stateMutability": "nonpayable",
			"type": "function"
		},
		{
			"inputs": [
				{
					"internalType": "address",
					"name": "from",
					"type": "address"
				},
				{
					"internalType": "address",
					"name": "to",
					"type": "address"
				},
				{
					"internalType": "uint256[]",
					"name": "ids",
					"type": "uint256[]"
				},
				{
					"internalType": "uint256[]",
					"name": "amounts",
					"type": "uint256[]"
				},
				{
					"internalType": "bytes",
					"name": "data",
					"type": "bytes"
				}
			],
			"name": "safeBatchTransferFrom",
			"outputs": [],
			"stateMutability": "nonpayable",
			"type": "function"
		},
		{
			"inputs": [
				{
					"internalType": "address",
					"name": "from",
					"type": "address"
				},
				{
					"internalType": "address",
					"name": "to",
					"type": "address"
				},
				{
					"internalType": "uint256",
					"name": "id",
					"type": "uint256"
				},
				{
					"internalType": "uint256",
					"name": "amount",
					"type": "uint256"
				},
				{
					"internalType": "bytes",
					"name": "data",
					"type": "bytes"
				}
			],
			"name": "safeTransferFrom",
			"outputs": [],
			"stateMutability": "nonpayable",
			"type": "function"
		},
		{
			"inputs": [
				{
					"internalType": "address",
					"name": "operator",
					"type": "address"
				},
				{
					"internalType": "bool",
					"name": "approved",
					"type": "bool"
				}
			],
			"name": "setApprovalForAll",
			"outputs": [],
			"stateMutability": "nonpayable",
			"type": "function"
		},
		{
			"inputs": [
				{
					"internalType": "string",
					"name": "newuri",
					"type": "string"
				}
			],
			"name": "setURI",
			"outputs": [],
			"stateMutability": "nonpayable",
			"type": "function"
		},
		{
			"inputs": [
				{
					"internalType": "bytes4",
					"name": "interfaceId",
					"type": "bytes4"
				}
			],
			"name": "supportsInterface",
			"outputs": [
				{
					"internalType": "bool",
					"name": "",
					"type": "bool"
				}
			],
			"stateMutability": "view",
			"type": "function"
		},
		{
			"inputs": [
				{
					"internalType": "uint256",
					"name": "id",
					"type": "uint256"
				}
			],
			"name": "totalSupply",
			"outputs": [
				{
					"internalType": "uint256",
					"name": "",
					"type": "uint256"
				}
			],
			"stateMutability": "view",
			"type": "function"
		},
		{
			"inputs": [
				{
					"internalType": "address",
					"name": "newOwner",
					"type": "address"
				}
			],
			"name": "transferOwnership",
			"outputs": [],
			"stateMutability": "nonpayable",
			"type": "function"
		},
		{
			"inputs": [
				{
					"internalType": "uint256",
					"name": "_id",
					"type": "uint256"
				}
			],
			"name": "uri",
			"outputs": [
				{
					"internalType": "string",
					"name": "",
					"type": "string"
				}
			],
			"stateMutability": "view",
			"type": "function"
		}
	]
}