{
	"Custom-Dex/DexNoStruct/erc-20.sol": {
		"erc20token": {
			"abi": [
				{
					"inputs": [
						{
							"internalType": "string",
							"name": "name",
							"type": "string"
						},
						{
							"internalType": "string",
							"name": "symbol",
							"type": "string"
						}
					],
					"stateMutability": "nonpayable",
					"type": "constructor"
				},
				{
					"anonymous": false,
					"inputs": [
						{
							"indexed": true,
							"internalType": "address",
							"name": "owner",
							"type": "address"
						},
						{
							"indexed": true,
							"internalType": "address",
							"name": "spender",
							"type": "address"
						},
						{
							"indexed": false,
							"internalType": "uint256",
							"name": "value",
							"type": "uint256"
						}
					],
					"name": "Approval",
					"type": "event"
				},
				{
					"anonymous": false,
					"inputs": [
						{
							"indexed": true,
							"internalType": "address",
							"name": "from",
							"type": "address"
						},
						{
							"indexed": true,
							"internalType": "address",
							"name": "to",
							"type": "address"
						},
						{
							"indexed": false,
							"internalType": "uint256",
							"name": "value",
							"type": "uint256"
						}
					],
					"name": "Transfer",
					"type": "event"
				},
				{
					"inputs": [
						{
							"internalType": "address",
							"name": "recipient",
							"type": "address"
						},
						{
							"internalType": "uint256",
							"name": "Amount",
							"type": "uint256"
						}
					],
					"name": "PublicMint",
					"outputs": [],
					"stateMutability": "nonpayable",
					"type": "function"
				},
				{
					"inputs": [
						{
							"internalType": "address",
							"name": "owner",
							"type": "address"
						},
						{
							"internalType": "address",
							"name": "spender",
							"type": "address"
						}
					],
					"name": "allowance",
					"outputs": [
						{
							"internalType": "uint256",
							"name": "",
							"type": "uint256"
						}
					],
					"stateMutability": "view",
					"type": "function"
				},
				{
					"inputs": [
						{
							"internalType": "address",
							"name": "spender",
							"type": "address"
						},
						{
							"internalType": "uint256",
							"name": "amount",
							"type": "uint256"
						}
					],
					"name": "approve",
					"outputs": [
						{
							"internalType": "bool",
							"name": "",
							"type": "bool"
						}
					],
					"stateMutability": "nonpayable",
					"type": "function"
				},
				{
					"inputs": [
						{
							"internalType": "address",
							"name": "_owner",
							"type": "address"
						},
						{
							"internalType": "address",
							"name": "spender",
							"type": "address"
						},
						{
							"internalType": "uint256",
							"name": "amount",
							"type": "uint256"
						}
					],
					"name": "approve",
					"outputs": [
						{
							"internalType": "bool",
							"name": "",
							"type": "bool"
						}
					],
					"stateMutability": "nonpayable",
					"type": "function"
				},
				{
					"inputs": [
						{
							"internalType": "address",
							"name": "account",
							"type": "address"
						}
					],
					"name": "balanceOf",
					"outputs": [
						{
							"internalType": "uint256",
							"name": "",
							"type": "uint256"
						}
					],
					"stateMutability": "view",
					"type": "function"
				},
				{
					"inputs": [],
					"name": "decimals",
					"outputs": [
						{
							"internalType": "uint8",
							"name": "",
							"type": "uint8"
						}
					],
					"stateMutability": "view",
					"type": "function"
				},
				{
					"inputs": [
						{
							"internalType": "address",
							"name": "spender",
							"type": "address"
						},
						{
							"internalType": "uint256",
							"name": "subtractedValue",
							"type": "uint256"
						}
					],
					"name": "decreaseAllowance",
					"outputs": [
						{
							"internalType": "bool",
							"name": "",
							"type": "bool"
						}
					],
					"stateMutability": "nonpayable",
					"type": "function"
				},
				{
					"inputs": [
						{
							"internalType": "address",
							"name": "spender",
							"type": "address"
						},
						{
							"internalType": "uint256",
							"name": "addedValue",
							"type": "uint256"
						}
					],
					"name": "increaseAllowance",
					"outputs": [
						{
							"internalType": "bool",
							"name": "",
							"type": "bool"
						}
					],
					"stateMutability": "nonpayable",
					"type": "function"
				},
				{
					"inputs": [],
					"name": "name",
					"outputs": [
						{
							"internalType": "string",
							"name": "",
							"type": "string"
						}
					],
					"stateMutability": "view",
					"type": "function"
				},
				{
					"inputs": [],
					"name": "symbol",
					"outputs": [
						{
							"internalType": "string",
							"name": "",
							"type": "string"
						}
					],
					"stateMutability": "view",
					"type": "function"
				},
				{
					"inputs": [],
					"name": "totalSupply",
					"outputs": [
						{
							"internalType": "uint256",
							"name": "",
							"type": "uint256"
						}
					],
					"stateMutability": "view",
					"type": "function"
				},
				{
					"inputs": [
						{
							"internalType": "address",
							"name": "to",
							"type": "address"
						},
						{
							"internalType": "uint256",
							"name": "amount",
							"type": "uint256"
						}
					],
					"name": "transfer",
					"outputs": [
						{
							"internalType": "bool",
							"name": "",
							"type": "bool"
						}
					],
					"stateMutability": "nonpayable",
					"type": "function"
				},
				{
					"inputs": [
						{
							"internalType": "address",
							"name": "from",
							"type": "address"
						},
						{
							"internalType": "address",
							"name": "to",
							"type": "address"
						},
						{
							"internalType": "uint256",
							"name": "amount",
							"type": "uint256"
						}
					],
					"name": "transferFrom",
					"outputs": [
						{
							"internalType": "bool",
							"name": "",
							"type": "bool"
						}
					],
					"stateMutability": "nonpayable",
					"type": "function"
				}
			],
			"devdoc": {
				"events": {
					"Approval(address,address,uint256)": {
						"details": "Emitted when the allowance of a `spender` for an `owner` is set by a call to {approve}. `value` is the new allowance."
					},
					"Transfer(address,address,uint256)": {
						"details": "Emitted when `value` tokens are moved from one account (`from`) to another (`to`). Note that `value` may be zero."
					}
				},
				"kind": "dev",
				"methods": {
					"allowance(address,address)": {
						"details": "See {IERC20-allowance}."
					},
					"approve(address,uint256)": {
						"details": "See {IERC20-approve}. NOTE: If `amount` is the maximum `uint256`, the allowance is not updated on `transferFrom`. This is semantically equivalent to an infinite approval. Requirements: - `spender` cannot be the zero address."
					},
					"balanceOf(address)": {
						"details": "See {IERC20-balanceOf}."
					},
					"decimals()": {
						"details": "Returns the number of decimals used to get its user representation. For example, if `decimals` equals `2`, a balance of `505` tokens should be displayed to a user as `5.05` (`505 / 10 ** 2`). Tokens usually opt for a value of 18, imitating the relationship between Ether and Wei. This is the value {ERC20} uses, unless this function is overridden; NOTE: This information is only used for _display_ purposes: it in no way affects any of the arithmetic of the contract, including {IERC20-balanceOf} and {IERC20-transfer}."
					},
					"decreaseAllowance(address,uint256)": {
						"details": "Atomically decreases the allowance granted to `spender` by the caller. This is an alternative to {approve} that can be used as a mitigation for problems described in {IERC20-approve}. Emits an {Approval} event indicating the updated allowance. Requirements: - `spender` cannot be the zero address. - `spender` must have allowance for the caller of at least `subtractedValue`."
					},
					"increaseAllowance(address,uint256)": {
						"details": "Atomically increases the allowance granted to `spender` by the caller. This is an alternative to {approve} that can be used as a mitigation for problems described in {IERC20-approve}. Emits an {Approval} event indicating the updated allowance. Requirements: - `spender` cannot be the zero address."
					},
					"name()": {
						"details": "Returns the name of the token."
					},
					"symbol()": {
						"details": "Returns the symbol of the token, usually a shorter version of the name."
					},
					"totalSupply()": {
						"details": "See {IERC20-totalSupply}."
					},
					"transfer(address,uint256)": {
						"details": "See {IERC20-transfer}. Requirements: - `to` cannot be the zero address. - the caller must have a balance of at least `amount`."
					},
					"transferFrom(address,address,uint256)": {
						"details": "See {IERC20-transferFrom}. Emits an {Approval} event indicating the updated allowance. This is not required by the EIP. See the note at the beginning of {ERC20}. NOTE: Does not update the allowance if the current allowance is the maximum `uint256`. Requirements: - `from` and `to` cannot be the zero address. - `from` must have a balance of at least `amount`. - the caller must have allowance for ``from``'s tokens of at least `amount`."
					}
				},
				"version": 1
			},
			"evm": {
				"assembly": "    /* \"Custom-Dex/DexNoStruct/erc-20.sol\":711:1191  contract erc20token is ERC20{... */\n  mstore(0x40, 0x80)\n    /* \"Custom-Dex/DexNoStruct/erc-20.sol\":745:879  constructor(string memory name, string memory symbol) ERC20(name,symbol){... */\n  callvalue\n  dup1\n  iszero\n  tag_1\n  jumpi\n  0x00\n  dup1\n  revert\ntag_1:\n  pop\n  mload(0x40)\n  sub(codesize, bytecodeSize)\n  dup1\n  bytecodeSize\n  dup4\n  codecopy\n  dup2\n  add\n  0x40\n  dup2\n  swap1\n  mstore\n  tag_2\n  swap2\n  tag_3\n  jump\t// in\ntag_2:\n    /* \"Custom-Dex/DexNoStruct/erc-20.sol\":805:809  name */\n  dup2\n    /* \"Custom-Dex/DexNoStruct/erc-20.sol\":810:816  symbol */\n  dup2\n    /* \"https://github.com/OpenZeppelin/openzeppelin-contracts/blob/v4.8.1/contracts/token/ERC20/ERC20.sol\":2042:2047  _name */\n  0x03\n    /* \"https://github.com/OpenZeppelin/openzeppelin-contracts/blob/v4.8.1/contracts/token/ERC20/ERC20.sol\":2042:2055  _name = name_ */\n  tag_7\n    /* \"Custom-Dex/DexNoStruct/erc-20.sol\":805:809  name */\n  dup4\n    /* \"https://github.com/OpenZeppelin/openzeppelin-contracts/blob/v4.8.1/contracts/token/ERC20/ERC20.sol\":2042:2047  _name */\n  dup3\n    /* \"https://github.com/OpenZeppelin/openzeppelin-contracts/blob/v4.8.1/contracts/token/ERC20/ERC20.sol\":2042:2055  _name = name_ */\n  tag_8\n  jump\t// in\ntag_7:\n  pop\n    /* \"https://github.com/OpenZeppelin/openzeppelin-contracts/blob/v4.8.1/contracts/token/ERC20/ERC20.sol\":2065:2072  _symbol */\n  0x04\n    /* \"https://github.com/OpenZeppelin/openzeppelin-contracts/blob/v4.8.1/contracts/token/ERC20/ERC20.sol\":2065:2082  _symbol = symbol_ */\n  tag_9\n    /* \"https://github.com/OpenZeppelin/openzeppelin-contracts/blob/v4.8.1/contracts/token/ERC20/ERC20.sol\":2075:2082  symbol_ */\n  dup3\n    /* \"https://github.com/OpenZeppelin/openzeppelin-contracts/blob/v4.8.1/contracts/token/ERC20/ERC20.sol\":2065:2072  _symbol */\n  dup3\n    /* \"https://github.com/OpenZeppelin/openzeppelin-contracts/blob/v4.8.1/contracts/token/ERC20/ERC20.sol\":2065:2082  _symbol = symbol_ */\n  tag_8\n  jump\t// in\ntag_9:\n  pop\n    /* \"https://github.com/OpenZeppelin/openzeppelin-contracts/blob/v4.8.1/contracts/token/ERC20/ERC20.sol\":1976:2089  constructor(string memory name_, string memory symbol_) {... */\n  pop\n  pop\n    /* \"Custom-Dex/DexNoStruct/erc-20.sol\":827:862  _mint(msg.sender, 1000000 * 10**18) */\n  tag_11\n    /* \"Custom-Dex/DexNoStruct/erc-20.sol\":833:843  msg.sender */\n  caller\n    /* \"Custom-Dex/DexNoStruct/erc-20.sol\":845:861  1000000 * 10**18 */\n  0xd3c21bcecceda1000000\n    /* \"Custom-Dex/DexNoStruct/erc-20.sol\":827:832  _mint */\n  shl(0x20, tag_12)\n    /* \"Custom-Dex/DexNoStruct/erc-20.sol\":827:862  _mint(msg.sender, 1000000 * 10**18) */\n  0x20\n  shr\n  jump\t// in\ntag_11:\n    /* \"Custom-Dex/DexNoStruct/erc-20.sol\":745:879  constructor(string memory name, string memory symbol) ERC20(name,symbol){... */\n  pop\n  pop\n    /* \"Custom-Dex/DexNoStruct/erc-20.sol\":711:1191  contract erc20token is ERC20{... */\n  jump(tag_34)\n    /* \"https://github.com/OpenZeppelin/openzeppelin-contracts/blob/v4.8.1/contracts/token/ERC20/ERC20.sol\":8567:9102  function _mint(address account, uint256 amount) internal virtual {... */\ntag_12:\n  sub(shl(0xa0, 0x01), 0x01)\n    /* \"https://github.com/OpenZeppelin/openzeppelin-contracts/blob/v4.8.1/contracts/token/ERC20/ERC20.sol\":8650:8671  account != address(0) */\n  dup3\n  and\n    /* \"https://github.com/OpenZeppelin/openzeppelin-contracts/blob/v4.8.1/contracts/token/ERC20/ERC20.sol\":8642:8707  require(account != address(0), \"ERC20: mint to the zero address\") */\n  tag_15\n  jumpi\n  mload(0x40)\n  shl(0xe5, 0x461bcd)\n  dup2\n  mstore\n    /* \"#utility.yul\":4349:4351   */\n  0x20\n    /* \"https://github.com/OpenZeppelin/openzeppelin-contracts/blob/v4.8.1/contracts/token/ERC20/ERC20.sol\":8642:8707  require(account != address(0), \"ERC20: mint to the zero address\") */\n  0x04\n  dup3\n  add\n    /* \"#utility.yul\":4331:4352   */\n  mstore\n    /* \"#utility.yul\":4388:4390   */\n  0x1f\n    /* \"#utility.yul\":4368:4386   */\n  0x24\n  dup3\n  add\n    /* \"#utility.yul\":4361:4391   */\n  mstore\n    /* \"#utility.yul\":4427:4460   */\n  0x45524332303a206d696e7420746f20746865207a65726f206164647265737300\n    /* \"#utility.yul\":4407:4425   */\n  0x44\n  dup3\n  add\n    /* \"#utility.yul\":4400:4461   */\n  mstore\n    /* \"#utility.yul\":4478:4496   */\n  0x64\n  add\n    /* \"https://github.com/OpenZeppelin/openzeppelin-contracts/blob/v4.8.1/contracts/token/ERC20/ERC20.sol\":8642:8707  require(account != address(0), \"ERC20: mint to the zero address\") */\n  mload(0x40)\n  dup1\n  swap2\n  sub\n  swap1\n  revert\ntag_15:\n    /* \"https://github.com/OpenZeppelin/openzeppelin-contracts/blob/v4.8.1/contracts/token/ERC20/ERC20.sol\":8794:8800  amount */\n  dup1\n    /* \"https://github.com/OpenZeppelin/openzeppelin-contracts/blob/v4.8.1/contracts/token/ERC20/ERC20.sol\":8778:8790  _totalSupply */\n  0x02\n  0x00\n    /* \"https://github.com/OpenZeppelin/openzeppelin-contracts/blob/v4.8.1/contracts/token/ERC20/ERC20.sol\":8778:8800  _totalSupply += amount */\n  dup3\n  dup3\n  sload\n  tag_20\n  swap2\n  swap1\n  tag_21\n  jump\t// in\ntag_20:\n  swap1\n  swap2\n  sstore\n  pop\n  pop\n  sub(shl(0xa0, 0x01), 0x01)\n    /* \"https://github.com/OpenZeppelin/openzeppelin-contracts/blob/v4.8.1/contracts/token/ERC20/ERC20.sol\":8946:8964  _balances[account] */\n  dup3\n  and\n    /* \"https://github.com/OpenZeppelin/openzeppelin-contracts/blob/v4.8.1/contracts/token/ERC20/ERC20.sol\":8946:8955  _balances */\n  0x00\n    /* \"https://github.com/OpenZeppelin/openzeppelin-contracts/blob/v4.8.1/contracts/token/ERC20/ERC20.sol\":8946:8964  _balances[account] */\n  dup2\n  dup2\n  mstore\n  0x20\n  dup2\n  dup2\n  mstore\n  0x40\n  dup1\n  dup4\n  keccak256\n    /* \"https://github.com/OpenZeppelin/openzeppelin-contracts/blob/v4.8.1/contracts/token/ERC20/ERC20.sol\":8946:8974  _balances[account] += amount */\n  dup1\n  sload\n  dup7\n  add\n  swap1\n  sstore\n    /* \"https://github.com/OpenZeppelin/openzeppelin-contracts/blob/v4.8.1/contracts/token/ERC20/ERC20.sol\":8999:9036  Transfer(address(0), account, amount) */\n  mload\n    /* \"#utility.yul\":4880:4905   */\n  dup5\n  dup2\n  mstore\n    /* \"https://github.com/OpenZeppelin/openzeppelin-contracts/blob/v4.8.1/contracts/token/ERC20/ERC20.sol\":8999:9036  Transfer(address(0), account, amount) */\n  0xddf252ad1be2c89b69c2b068fc378daa952ba7f163c4a11628f55a4df523b3ef\n  swap2\n    /* \"#utility.yul\":4853:4871   */\n  add\n    /* \"https://github.com/OpenZeppelin/openzeppelin-contracts/blob/v4.8.1/contracts/token/ERC20/ERC20.sol\":8999:9036  Transfer(address(0), account, amount) */\n  mload(0x40)\n  dup1\n  swap2\n  sub\n  swap1\n  log3\n    /* \"https://github.com/OpenZeppelin/openzeppelin-contracts/blob/v4.8.1/contracts/token/ERC20/ERC20.sol\":8567:9102  function _mint(address account, uint256 amount) internal virtual {... */\n  pop\n  pop\n  jump\t// out\n    /* \"https://github.com/OpenZeppelin/openzeppelin-contracts/blob/v4.8.1/contracts/token/ERC20/ERC20.sol\":12180:12301  function _beforeTokenTransfer(... */\ntag_19:\n  pop\n  pop\n  pop\n  jump\t// out\n    /* \"#utility.yul\":14:141   */\ntag_28:\n    /* \"#utility.yul\":75:85   */\n  0x4e487b71\n    /* \"#utility.yul\":70:73   */\n  0xe0\n    /* \"#utility.yul\":66:86   */\n  shl\n    /* \"#utility.yul\":63:64   */\n  0x00\n    /* \"#utility.yul\":56:87   */\n  mstore\n    /* \"#utility.yul\":106:110   */\n  0x41\n    /* \"#utility.yul\":103:104   */\n  0x04\n    /* \"#utility.yul\":96:111   */\n  mstore\n    /* \"#utility.yul\":130:134   */\n  0x24\n    /* \"#utility.yul\":127:128   */\n  0x00\n    /* \"#utility.yul\":120:135   */\n  revert\n    /* \"#utility.yul\":146:986   */\ntag_29:\n    /* \"#utility.yul\":200:205   */\n  0x00\n    /* \"#utility.yul\":253:256   */\n  dup3\n    /* \"#utility.yul\":246:250   */\n  0x1f\n    /* \"#utility.yul\":238:244   */\n  dup4\n    /* \"#utility.yul\":234:251   */\n  add\n    /* \"#utility.yul\":230:257   */\n  slt\n    /* \"#utility.yul\":220:275   */\n  tag_37\n  jumpi\n    /* \"#utility.yul\":271:272   */\n  0x00\n    /* \"#utility.yul\":268:269   */\n  dup1\n    /* \"#utility.yul\":261:273   */\n  revert\n    /* \"#utility.yul\":220:275   */\ntag_37:\n    /* \"#utility.yul\":294:307   */\n  dup2\n  mload\n  sub(shl(0x40, 0x01), 0x01)\n    /* \"#utility.yul\":356:366   */\n  dup1\n  dup3\n  gt\n    /* \"#utility.yul\":353:389   */\n  iszero\n  tag_39\n  jumpi\n    /* \"#utility.yul\":369:387   */\n  tag_39\n  tag_28\n  jump\t// in\ntag_39:\n    /* \"#utility.yul\":444:446   */\n  0x40\n    /* \"#utility.yul\":438:447   */\n  mload\n    /* \"#utility.yul\":412:414   */\n  0x1f\n    /* \"#utility.yul\":498:511   */\n  dup4\n  add\n  not(0x1f)\n    /* \"#utility.yul\":494:516   */\n  swap1\n  dup2\n  and\n    /* \"#utility.yul\":518:520   */\n  0x3f\n    /* \"#utility.yul\":490:521   */\n  add\n    /* \"#utility.yul\":486:526   */\n  and\n    /* \"#utility.yul\":474:527   */\n  dup2\n  add\n  swap1\n    /* \"#utility.yul\":542:560   */\n  dup3\n  dup3\n  gt\n    /* \"#utility.yul\":562:584   */\n  dup2\n  dup4\n  lt\n    /* \"#utility.yul\":539:585   */\n  or\n    /* \"#utility.yul\":536:608   */\n  iszero\n  tag_41\n  jumpi\n    /* \"#utility.yul\":588:606   */\n  tag_41\n  tag_28\n  jump\t// in\ntag_41:\n    /* \"#utility.yul\":628:638   */\n  dup2\n    /* \"#utility.yul\":624:626   */\n  0x40\n    /* \"#utility.yul\":617:639   */\n  mstore\n    /* \"#utility.yul\":663:665   */\n  dup4\n    /* \"#utility.yul\":655:661   */\n  dup2\n    /* \"#utility.yul\":648:666   */\n  mstore\n    /* \"#utility.yul\":685:689   */\n  0x20\n    /* \"#utility.yul\":675:689   */\n  swap3\n  pop\n    /* \"#utility.yul\":730:733   */\n  dup7\n    /* \"#utility.yul\":725:727   */\n  dup4\n    /* \"#utility.yul\":720:722   */\n  dup6\n    /* \"#utility.yul\":712:718   */\n  dup9\n    /* \"#utility.yul\":708:723   */\n  add\n    /* \"#utility.yul\":704:728   */\n  add\n    /* \"#utility.yul\":701:734   */\n  gt\n    /* \"#utility.yul\":698:751   */\n  iszero\n  tag_42\n  jumpi\n    /* \"#utility.yul\":747:748   */\n  0x00\n    /* \"#utility.yul\":744:745   */\n  dup1\n    /* \"#utility.yul\":737:749   */\n  revert\n    /* \"#utility.yul\":698:751   */\ntag_42:\n    /* \"#utility.yul\":769:770   */\n  0x00\n    /* \"#utility.yul\":760:770   */\n  swap2\n  pop\n    /* \"#utility.yul\":779:912   */\ntag_43:\n    /* \"#utility.yul\":793:795   */\n  dup4\n    /* \"#utility.yul\":790:791   */\n  dup3\n    /* \"#utility.yul\":787:796   */\n  lt\n    /* \"#utility.yul\":779:912   */\n  iszero\n  tag_45\n  jumpi\n    /* \"#utility.yul\":881:895   */\n  dup6\n  dup3\n  add\n    /* \"#utility.yul\":877:900   */\n  dup4\n  add\n    /* \"#utility.yul\":871:901   */\n  mload\n    /* \"#utility.yul\":850:864   */\n  dup2\n  dup4\n  add\n    /* \"#utility.yul\":846:869   */\n  dup5\n  add\n    /* \"#utility.yul\":839:902   */\n  mstore\n    /* \"#utility.yul\":804:814   */\n  swap1\n  dup3\n  add\n  swap1\n    /* \"#utility.yul\":779:912   */\n  jump(tag_43)\ntag_45:\n    /* \"#utility.yul\":954:955   */\n  0x00\n    /* \"#utility.yul\":932:947   */\n  swap4\n  dup2\n  add\n    /* \"#utility.yul\":928:952   */\n  swap1\n  swap3\n  add\n    /* \"#utility.yul\":921:956   */\n  swap3\n  swap1\n  swap3\n  mstore\n    /* \"#utility.yul\":936:942   */\n  swap5\n    /* \"#utility.yul\":146:986   */\n  swap4\n  pop\n  pop\n  pop\n  pop\n  jump\t// out\n    /* \"#utility.yul\":991:1553   */\ntag_3:\n    /* \"#utility.yul\":1090:1096   */\n  0x00\n    /* \"#utility.yul\":1098:1104   */\n  dup1\n    /* \"#utility.yul\":1151:1153   */\n  0x40\n    /* \"#utility.yul\":1139:1148   */\n  dup4\n    /* \"#utility.yul\":1130:1137   */\n  dup6\n    /* \"#utility.yul\":1126:1149   */\n  sub\n    /* \"#utility.yul\":1122:1154   */\n  slt\n    /* \"#utility.yul\":1119:1171   */\n  iszero\n  tag_47\n  jumpi\n    /* \"#utility.yul\":1167:1168   */\n  0x00\n    /* \"#utility.yul\":1164:1165   */\n  dup1\n    /* \"#utility.yul\":1157:1169   */\n  revert\n    /* \"#utility.yul\":1119:1171   */\ntag_47:\n    /* \"#utility.yul\":1194:1210   */\n  dup3\n  mload\n  sub(shl(0x40, 0x01), 0x01)\n    /* \"#utility.yul\":1259:1273   */\n  dup1\n  dup3\n  gt\n    /* \"#utility.yul\":1256:1290   */\n  iszero\n  tag_48\n  jumpi\n    /* \"#utility.yul\":1286:1287   */\n  0x00\n    /* \"#utility.yul\":1283:1284   */\n  dup1\n    /* \"#utility.yul\":1276:1288   */\n  revert\n    /* \"#utility.yul\":1256:1290   */\ntag_48:\n    /* \"#utility.yul\":1309:1370   */\n  tag_49\n    /* \"#utility.yul\":1362:1369   */\n  dup7\n    /* \"#utility.yul\":1353:1359   */\n  dup4\n    /* \"#utility.yul\":1342:1351   */\n  dup8\n    /* \"#utility.yul\":1338:1360   */\n  add\n    /* \"#utility.yul\":1309:1370   */\n  tag_29\n  jump\t// in\ntag_49:\n    /* \"#utility.yul\":1299:1370   */\n  swap4\n  pop\n    /* \"#utility.yul\":1416:1418   */\n  0x20\n    /* \"#utility.yul\":1405:1414   */\n  dup6\n    /* \"#utility.yul\":1401:1419   */\n  add\n    /* \"#utility.yul\":1395:1420   */\n  mload\n    /* \"#utility.yul\":1379:1420   */\n  swap2\n  pop\n    /* \"#utility.yul\":1445:1447   */\n  dup1\n    /* \"#utility.yul\":1435:1443   */\n  dup3\n    /* \"#utility.yul\":1432:1448   */\n  gt\n    /* \"#utility.yul\":1429:1465   */\n  iszero\n  tag_50\n  jumpi\n    /* \"#utility.yul\":1461:1462   */\n  0x00\n    /* \"#utility.yul\":1458:1459   */\n  dup1\n    /* \"#utility.yul\":1451:1463   */\n  revert\n    /* \"#utility.yul\":1429:1465   */\ntag_50:\n  pop\n    /* \"#utility.yul\":1484:1547   */\n  tag_51\n    /* \"#utility.yul\":1539:1546   */\n  dup6\n    /* \"#utility.yul\":1528:1536   */\n  dup3\n    /* \"#utility.yul\":1517:1526   */\n  dup7\n    /* \"#utility.yul\":1513:1537   */\n  add\n    /* \"#utility.yul\":1484:1547   */\n  tag_29\n  jump\t// in\ntag_51:\n    /* \"#utility.yul\":1474:1547   */\n  swap2\n  pop\n  pop\n    /* \"#utility.yul\":991:1553   */\n  swap3\n  pop\n  swap3\n  swap1\n  pop\n  jump\t// out\n    /* \"#utility.yul\":1558:1938   */\ntag_30:\n    /* \"#utility.yul\":1637:1638   */\n  0x01\n    /* \"#utility.yul\":1633:1645   */\n  dup2\n  dup2\n  shr\n  swap1\n    /* \"#utility.yul\":1680:1692   */\n  dup3\n  and\n  dup1\n    /* \"#utility.yul\":1701:1762   */\n  tag_53\n  jumpi\n    /* \"#utility.yul\":1755:1759   */\n  0x7f\n    /* \"#utility.yul\":1747:1753   */\n  dup3\n    /* \"#utility.yul\":1743:1760   */\n  and\n    /* \"#utility.yul\":1733:1760   */\n  swap2\n  pop\n    /* \"#utility.yul\":1701:1762   */\ntag_53:\n    /* \"#utility.yul\":1808:1810   */\n  0x20\n    /* \"#utility.yul\":1800:1806   */\n  dup3\n    /* \"#utility.yul\":1797:1811   */\n  lt\n    /* \"#utility.yul\":1777:1795   */\n  dup2\n    /* \"#utility.yul\":1774:1812   */\n  sub\n    /* \"#utility.yul\":1771:1932   */\n  tag_54\n  jumpi\n    /* \"#utility.yul\":1854:1864   */\n  0x4e487b71\n    /* \"#utility.yul\":1849:1852   */\n  0xe0\n    /* \"#utility.yul\":1845:1865   */\n  shl\n    /* \"#utility.yul\":1842:1843   */\n  0x00\n    /* \"#utility.yul\":1835:1866   */\n  mstore\n    /* \"#utility.yul\":1889:1893   */\n  0x22\n    /* \"#utility.yul\":1886:1887   */\n  0x04\n    /* \"#utility.yul\":1879:1894   */\n  mstore\n    /* \"#utility.yul\":1917:1921   */\n  0x24\n    /* \"#utility.yul\":1914:1915   */\n  0x00\n    /* \"#utility.yul\":1907:1922   */\n  revert\n    /* \"#utility.yul\":1771:1932   */\ntag_54:\n  pop\n    /* \"#utility.yul\":1558:1938   */\n  swap2\n  swap1\n  pop\n  jump\t// out\n    /* \"#utility.yul\":2069:2614   */\ntag_32:\n    /* \"#utility.yul\":2171:2173   */\n  0x1f\n    /* \"#utility.yul\":2166:2169   */\n  dup3\n    /* \"#utility.yul\":2163:2174   */\n  gt\n    /* \"#utility.yul\":2160:2608   */\n  iszero\n  tag_19\n  jumpi\n    /* \"#utility.yul\":2207:2208   */\n  0x00\n    /* \"#utility.yul\":2232:2237   */\n  dup2\n    /* \"#utility.yul\":2228:2230   */\n  dup2\n    /* \"#utility.yul\":2221:2238   */\n  mstore\n    /* \"#utility.yul\":2277:2281   */\n  0x20\n    /* \"#utility.yul\":2273:2275   */\n  dup2\n    /* \"#utility.yul\":2263:2282   */\n  keccak256\n    /* \"#utility.yul\":2347:2349   */\n  0x1f\n    /* \"#utility.yul\":2335:2345   */\n  dup6\n    /* \"#utility.yul\":2331:2350   */\n  add\n    /* \"#utility.yul\":2328:2329   */\n  0x05\n    /* \"#utility.yul\":2324:2351   */\n  shr\n    /* \"#utility.yul\":2318:2322   */\n  dup2\n    /* \"#utility.yul\":2314:2352   */\n  add\n    /* \"#utility.yul\":2383:2387   */\n  0x20\n    /* \"#utility.yul\":2371:2381   */\n  dup7\n    /* \"#utility.yul\":2368:2388   */\n  lt\n    /* \"#utility.yul\":2365:2412   */\n  iszero\n  tag_58\n  jumpi\n  pop\n    /* \"#utility.yul\":2406:2410   */\n  dup1\n    /* \"#utility.yul\":2365:2412   */\ntag_58:\n    /* \"#utility.yul\":2461:2463   */\n  0x1f\n    /* \"#utility.yul\":2456:2459   */\n  dup6\n    /* \"#utility.yul\":2452:2464   */\n  add\n    /* \"#utility.yul\":2449:2450   */\n  0x05\n    /* \"#utility.yul\":2445:2465   */\n  shr\n    /* \"#utility.yul\":2439:2443   */\n  dup3\n    /* \"#utility.yul\":2435:2466   */\n  add\n    /* \"#utility.yul\":2425:2466   */\n  swap2\n  pop\n    /* \"#utility.yul\":2516:2598   */\ntag_59:\n    /* \"#utility.yul\":2534:2536   */\n  dup2\n    /* \"#utility.yul\":2527:2532   */\n  dup2\n    /* \"#utility.yul\":2524:2537   */\n  lt\n    /* \"#utility.yul\":2516:2598   */\n  iszero\n  tag_61\n  jumpi\n    /* \"#utility.yul\":2579:2596   */\n  dup3\n  dup2\n  sstore\n    /* \"#utility.yul\":2560:2561   */\n  0x01\n    /* \"#utility.yul\":2549:2562   */\n  add\n    /* \"#utility.yul\":2516:2598   */\n  jump(tag_59)\ntag_61:\n    /* \"#utility.yul\":2520:2523   */\n  pop\n  pop\n  pop\n    /* \"#utility.yul\":2069:2614   */\n  pop\n  pop\n  pop\n  jump\t// out\n    /* \"#utility.yul\":2790:4142   */\ntag_8:\n    /* \"#utility.yul\":2910:2920   */\n  dup2\n  mload\n  sub(shl(0x40, 0x01), 0x01)\n    /* \"#utility.yul\":2932:2962   */\n  dup2\n  gt\n    /* \"#utility.yul\":2929:2985   */\n  iszero\n  tag_65\n  jumpi\n    /* \"#utility.yul\":2965:2983   */\n  tag_65\n  tag_28\n  jump\t// in\ntag_65:\n    /* \"#utility.yul\":2994:3091   */\n  tag_66\n    /* \"#utility.yul\":3084:3090   */\n  dup2\n    /* \"#utility.yul\":3044:3082   */\n  tag_67\n    /* \"#utility.yul\":3076:3080   */\n  dup5\n    /* \"#utility.yul\":3070:3081   */\n  sload\n    /* \"#utility.yul\":3044:3082   */\n  tag_30\n  jump\t// in\ntag_67:\n    /* \"#utility.yul\":3038:3042   */\n  dup5\n    /* \"#utility.yul\":2994:3091   */\n  tag_32\n  jump\t// in\ntag_66:\n    /* \"#utility.yul\":3146:3150   */\n  0x20\n  dup1\n    /* \"#utility.yul\":3210:3212   */\n  0x1f\n    /* \"#utility.yul\":3199:3213   */\n  dup4\n  gt\n    /* \"#utility.yul\":3227:3228   */\n  0x01\n    /* \"#utility.yul\":3222:3885   */\n  dup2\n  eq\n  tag_69\n  jumpi\n    /* \"#utility.yul\":3929:3930   */\n  0x00\n    /* \"#utility.yul\":3946:3952   */\n  dup5\n    /* \"#utility.yul\":3943:4032   */\n  iszero\n  tag_70\n  jumpi\n  pop\n    /* \"#utility.yul\":3998:4017   */\n  dup6\n  dup4\n  add\n    /* \"#utility.yul\":3992:4018   */\n  mload\n    /* \"#utility.yul\":3943:4032   */\ntag_70:\n  not(0x00)\n    /* \"#utility.yul\":2747:2748   */\n  0x03\n    /* \"#utility.yul\":2743:2754   */\n  dup7\n  swap1\n  shl\n    /* \"#utility.yul\":2739:2763   */\n  shr\n    /* \"#utility.yul\":2735:2764   */\n  not\n    /* \"#utility.yul\":2725:2765   */\n  and\n    /* \"#utility.yul\":2771:2772   */\n  0x01\n    /* \"#utility.yul\":2767:2778   */\n  dup6\n  swap1\n  shl\n    /* \"#utility.yul\":2722:2779   */\n  or\n    /* \"#utility.yul\":4045:4126   */\n  dup6\n  sstore\n    /* \"#utility.yul\":3192:4136   */\n  jump(tag_61)\n    /* \"#utility.yul\":3222:3885   */\ntag_69:\n    /* \"#utility.yul\":2016:2017   */\n  0x00\n    /* \"#utility.yul\":2009:2023   */\n  dup6\n  dup2\n  mstore\n    /* \"#utility.yul\":2053:2057   */\n  0x20\n    /* \"#utility.yul\":2040:2058   */\n  dup2\n  keccak256\n  not(0x1f)\n    /* \"#utility.yul\":3258:3278   */\n  dup7\n  and\n  swap2\n    /* \"#utility.yul\":3376:3612   */\ntag_73:\n    /* \"#utility.yul\":3390:3397   */\n  dup3\n    /* \"#utility.yul\":3387:3388   */\n  dup2\n    /* \"#utility.yul\":3384:3398   */\n  lt\n    /* \"#utility.yul\":3376:3612   */\n  iszero\n  tag_75\n  jumpi\n    /* \"#utility.yul\":3479:3498   */\n  dup9\n  dup7\n  add\n    /* \"#utility.yul\":3473:3499   */\n  mload\n    /* \"#utility.yul\":3458:3500   */\n  dup3\n  sstore\n    /* \"#utility.yul\":3571:3598   */\n  swap5\n  dup5\n  add\n  swap5\n    /* \"#utility.yul\":3539:3540   */\n  0x01\n    /* \"#utility.yul\":3527:3541   */\n  swap1\n  swap2\n  add\n  swap1\n    /* \"#utility.yul\":3406:3425   */\n  dup5\n  add\n    /* \"#utility.yul\":3376:3612   */\n  jump(tag_73)\ntag_75:\n    /* \"#utility.yul\":3380:3383   */\n  pop\n    /* \"#utility.yul\":3640:3646   */\n  dup6\n    /* \"#utility.yul\":3631:3638   */\n  dup3\n    /* \"#utility.yul\":3628:3647   */\n  lt\n    /* \"#utility.yul\":3625:3826   */\n  iszero\n  tag_76\n  jumpi\n    /* \"#utility.yul\":3701:3720   */\n  dup8\n  dup6\n  add\n    /* \"#utility.yul\":3695:3721   */\n  mload\n  not(0x00)\n    /* \"#utility.yul\":3784:3785   */\n  0x03\n    /* \"#utility.yul\":3780:3794   */\n  dup9\n  swap1\n  shl\n    /* \"#utility.yul\":3796:3799   */\n  0xf8\n    /* \"#utility.yul\":3776:3800   */\n  and\n    /* \"#utility.yul\":3772:3809   */\n  shr\n    /* \"#utility.yul\":3768:3810   */\n  not\n    /* \"#utility.yul\":3753:3811   */\n  and\n    /* \"#utility.yul\":3738:3812   */\n  dup2\n  sstore\n    /* \"#utility.yul\":3625:3826   */\ntag_76:\n  pop\n  pop\n  pop\n  pop\n  pop\n    /* \"#utility.yul\":3872:3873   */\n  0x01\n    /* \"#utility.yul\":3856:3870   */\n  swap1\n  dup2\n  shl\n    /* \"#utility.yul\":3852:3874   */\n  add\n    /* \"#utility.yul\":3839:3875   */\n  swap1\n  sstore\n  pop\n    /* \"#utility.yul\":2790:4142   */\n  jump\t// out\n    /* \"#utility.yul\":4507:4729   */\ntag_21:\n    /* \"#utility.yul\":4572:4581   */\n  dup1\n  dup3\n  add\n    /* \"#utility.yul\":4593:4603   */\n  dup1\n  dup3\n  gt\n    /* \"#utility.yul\":4590:4723   */\n  iszero\n  tag_79\n  jumpi\n    /* \"#utility.yul\":4645:4655   */\n  0x4e487b71\n    /* \"#utility.yul\":4640:4643   */\n  0xe0\n    /* \"#utility.yul\":4636:4656   */\n  shl\n    /* \"#utility.yul\":4633:4634   */\n  0x00\n    /* \"#utility.yul\":4626:4657   */\n  mstore\n    /* \"#utility.yul\":4680:4684   */\n  0x11\n    /* \"#utility.yul\":4677:4678   */\n  0x04\n    /* \"#utility.yul\":4670:4685   */\n  mstore\n    /* \"#utility.yul\":4708:4712   */\n  0x24\n    /* \"#utility.yul\":4705:4706   */\n  0x00\n    /* \"#utility.yul\":4698:4713   */\n  revert\n    /* \"#utility.yul\":4590:4723   */\ntag_79:\n    /* \"#utility.yul\":4507:4729   */\n  swap3\n  swap2\n  pop\n  pop\n  jump\t// out\n    /* \"#utility.yul\":4734:4911   */\ntag_34:\n    /* \"Custom-Dex/DexNoStruct/erc-20.sol\":711:1191  contract erc20token is ERC20{... */\n  dataSize(sub_0)\n  dup1\n  dataOffset(sub_0)\n  0x00\n  codecopy\n  0x00\n  return\nstop\n\nsub_0: assembly {\n        /* \"Custom-Dex/DexNoStruct/erc-20.sol\":711:1191  contract erc20token is ERC20{... */\n      mstore(0x40, 0x80)\n      callvalue\n      dup1\n      iszero\n      tag_1\n      jumpi\n      0x00\n      dup1\n      revert\n    tag_1:\n      pop\n      jumpi(tag_2, lt(calldatasize, 0x04))\n      shr(0xe0, calldataload(0x00))\n      dup1\n      0x70a08231\n      gt\n      tag_16\n      jumpi\n      dup1\n      0xa457c2d7\n      gt\n      tag_17\n      jumpi\n      dup1\n      0xa457c2d7\n      eq\n      tag_12\n      jumpi\n      dup1\n      0xa9059cbb\n      eq\n      tag_13\n      jumpi\n      dup1\n      0xdd62ed3e\n      eq\n      tag_14\n      jumpi\n      dup1\n      0xe1f21c67\n      eq\n      tag_15\n      jumpi\n      0x00\n      dup1\n      revert\n    tag_17:\n      dup1\n      0x70a08231\n      eq\n      tag_9\n      jumpi\n      dup1\n      0x748a2986\n      eq\n      tag_10\n      jumpi\n      dup1\n      0x95d89b41\n      eq\n      tag_11\n      jumpi\n      0x00\n      dup1\n      revert\n    tag_16:\n      dup1\n      0x06fdde03\n      eq\n      tag_3\n      jumpi\n      dup1\n      0x095ea7b3\n      eq\n      tag_4\n      jumpi\n      dup1\n      0x18160ddd\n      eq\n      tag_5\n      jumpi\n      dup1\n      0x23b872dd\n      eq\n      tag_6\n      jumpi\n      dup1\n      0x313ce567\n      eq\n      tag_7\n      jumpi\n      dup1\n      0x39509351\n      eq\n      tag_8\n      jumpi\n    tag_2:\n      0x00\n      dup1\n      revert\n        /* \"https://github.com/OpenZeppelin/openzeppelin-contracts/blob/v4.8.1/contracts/token/ERC20/ERC20.sol\":2154:2252  function name() public view virtual override returns (string memory) {... */\n    tag_3:\n      tag_18\n      tag_19\n      jump\t// in\n    tag_18:\n      mload(0x40)\n      tag_20\n      swap2\n      swap1\n      tag_21\n      jump\t// in\n    tag_20:\n      mload(0x40)\n      dup1\n      swap2\n      sub\n      swap1\n      return\n        /* \"https://github.com/OpenZeppelin/openzeppelin-contracts/blob/v4.8.1/contracts/token/ERC20/ERC20.sol\":4431:4628  function approve(address spender, uint256 amount) public virtual override returns (bool) {... */\n    tag_4:\n      tag_22\n      tag_23\n      calldatasize\n      0x04\n      tag_24\n      jump\t// in\n    tag_23:\n      tag_25\n      jump\t// in\n    tag_22:\n      mload(0x40)\n        /* \"#utility.yul\":1169:1183   */\n      swap1\n      iszero\n        /* \"#utility.yul\":1162:1184   */\n      iszero\n        /* \"#utility.yul\":1144:1185   */\n      dup2\n      mstore\n        /* \"#utility.yul\":1132:1134   */\n      0x20\n        /* \"#utility.yul\":1117:1135   */\n      add\n        /* \"https://github.com/OpenZeppelin/openzeppelin-contracts/blob/v4.8.1/contracts/token/ERC20/ERC20.sol\":4431:4628  function approve(address spender, uint256 amount) public virtual override returns (bool) {... */\n      tag_20\n        /* \"#utility.yul\":1004:1191   */\n      jump\n        /* \"https://github.com/OpenZeppelin/openzeppelin-contracts/blob/v4.8.1/contracts/token/ERC20/ERC20.sol\":3242:3348  function totalSupply() public view virtual override returns (uint256) {... */\n    tag_5:\n        /* \"https://github.com/OpenZeppelin/openzeppelin-contracts/blob/v4.8.1/contracts/token/ERC20/ERC20.sol\":3329:3341  _totalSupply */\n      sload(0x02)\n        /* \"https://github.com/OpenZeppelin/openzeppelin-contracts/blob/v4.8.1/contracts/token/ERC20/ERC20.sol\":3242:3348  function totalSupply() public view virtual override returns (uint256) {... */\n    tag_28:\n      mload(0x40)\n        /* \"#utility.yul\":1342:1367   */\n      swap1\n      dup2\n      mstore\n        /* \"#utility.yul\":1330:1332   */\n      0x20\n        /* \"#utility.yul\":1315:1333   */\n      add\n        /* \"https://github.com/OpenZeppelin/openzeppelin-contracts/blob/v4.8.1/contracts/token/ERC20/ERC20.sol\":3242:3348  function totalSupply() public view virtual override returns (uint256) {... */\n      tag_20\n        /* \"#utility.yul\":1196:1373   */\n      jump\n        /* \"https://github.com/OpenZeppelin/openzeppelin-contracts/blob/v4.8.1/contracts/token/ERC20/ERC20.sol\":5190:5476  function transferFrom(... */\n    tag_6:\n      tag_22\n      tag_33\n      calldatasize\n      0x04\n      tag_34\n      jump\t// in\n    tag_33:\n      tag_35\n      jump\t// in\n        /* \"https://github.com/OpenZeppelin/openzeppelin-contracts/blob/v4.8.1/contracts/token/ERC20/ERC20.sol\":3091:3182  function decimals() public view virtual override returns (uint8) {... */\n    tag_7:\n      mload(0x40)\n        /* \"https://github.com/OpenZeppelin/openzeppelin-contracts/blob/v4.8.1/contracts/token/ERC20/ERC20.sol\":3173:3175  18 */\n      0x12\n        /* \"#utility.yul\":1853:1889   */\n      dup2\n      mstore\n        /* \"#utility.yul\":1841:1843   */\n      0x20\n        /* \"#utility.yul\":1826:1844   */\n      add\n        /* \"https://github.com/OpenZeppelin/openzeppelin-contracts/blob/v4.8.1/contracts/token/ERC20/ERC20.sol\":3091:3182  function decimals() public view virtual override returns (uint8) {... */\n      tag_20\n        /* \"#utility.yul\":1711:1895   */\n      jump\n        /* \"https://github.com/OpenZeppelin/openzeppelin-contracts/blob/v4.8.1/contracts/token/ERC20/ERC20.sol\":5871:6105  function increaseAllowance(address spender, uint256 addedValue) public virtual returns (bool) {... */\n    tag_8:\n      tag_22\n      tag_42\n      calldatasize\n      0x04\n      tag_24\n      jump\t// in\n    tag_42:\n      tag_43\n      jump\t// in\n        /* \"https://github.com/OpenZeppelin/openzeppelin-contracts/blob/v4.8.1/contracts/token/ERC20/ERC20.sol\":3406:3531  function balanceOf(address account) public view virtual override returns (uint256) {... */\n    tag_9:\n      tag_28\n      tag_46\n      calldatasize\n      0x04\n      tag_47\n      jump\t// in\n    tag_46:\n      sub(shl(0xa0, 0x01), 0x01)\n        /* \"https://github.com/OpenZeppelin/openzeppelin-contracts/blob/v4.8.1/contracts/token/ERC20/ERC20.sol\":3506:3524  _balances[account] */\n      and\n        /* \"https://github.com/OpenZeppelin/openzeppelin-contracts/blob/v4.8.1/contracts/token/ERC20/ERC20.sol\":3480:3487  uint256 */\n      0x00\n        /* \"https://github.com/OpenZeppelin/openzeppelin-contracts/blob/v4.8.1/contracts/token/ERC20/ERC20.sol\":3506:3524  _balances[account] */\n      swap1\n      dup2\n      mstore\n      0x20\n      dup2\n      swap1\n      mstore\n      0x40\n      swap1\n      keccak256\n      sload\n      swap1\n        /* \"https://github.com/OpenZeppelin/openzeppelin-contracts/blob/v4.8.1/contracts/token/ERC20/ERC20.sol\":3406:3531  function balanceOf(address account) public view virtual override returns (uint256) {... */\n      jump\n        /* \"Custom-Dex/DexNoStruct/erc-20.sol\":885:984  function PublicMint(address recipient , uint Amount) public{... */\n    tag_10:\n      tag_50\n      tag_51\n      calldatasize\n      0x04\n      tag_24\n      jump\t// in\n    tag_51:\n      tag_52\n      jump\t// in\n    tag_50:\n      stop\n        /* \"https://github.com/OpenZeppelin/openzeppelin-contracts/blob/v4.8.1/contracts/token/ERC20/ERC20.sol\":2365:2467  function symbol() public view virtual override returns (string memory) {... */\n    tag_11:\n      tag_18\n      tag_54\n      jump\t// in\n        /* \"https://github.com/OpenZeppelin/openzeppelin-contracts/blob/v4.8.1/contracts/token/ERC20/ERC20.sol\":6592:7019  function decreaseAllowance(address spender, uint256 subtractedValue) public virtual returns (bool) {... */\n    tag_12:\n      tag_22\n      tag_57\n      calldatasize\n      0x04\n      tag_24\n      jump\t// in\n    tag_57:\n      tag_58\n      jump\t// in\n        /* \"https://github.com/OpenZeppelin/openzeppelin-contracts/blob/v4.8.1/contracts/token/ERC20/ERC20.sol\":3727:3916  function transfer(address to, uint256 amount) public virtual override returns (bool) {... */\n    tag_13:\n      tag_22\n      tag_61\n      calldatasize\n      0x04\n      tag_24\n      jump\t// in\n    tag_61:\n      tag_62\n      jump\t// in\n        /* \"https://github.com/OpenZeppelin/openzeppelin-contracts/blob/v4.8.1/contracts/token/ERC20/ERC20.sol\":3974:4123  function allowance(address owner, address spender) public view virtual override returns (uint256) {... */\n    tag_14:\n      tag_28\n      tag_65\n      calldatasize\n      0x04\n      tag_66\n      jump\t// in\n    tag_65:\n      tag_67\n      jump\t// in\n        /* \"Custom-Dex/DexNoStruct/erc-20.sol\":991:1188  function approve(address _owner,address spender, uint256 amount) public virtual returns (bool) {... */\n    tag_15:\n      tag_22\n      tag_70\n      calldatasize\n      0x04\n      tag_34\n      jump\t// in\n    tag_70:\n      tag_71\n      jump\t// in\n        /* \"https://github.com/OpenZeppelin/openzeppelin-contracts/blob/v4.8.1/contracts/token/ERC20/ERC20.sol\":2154:2252  function name() public view virtual override returns (string memory) {... */\n    tag_19:\n        /* \"https://github.com/OpenZeppelin/openzeppelin-contracts/blob/v4.8.1/contracts/token/ERC20/ERC20.sol\":2208:2221  string memory */\n      0x60\n        /* \"https://github.com/OpenZeppelin/openzeppelin-contracts/blob/v4.8.1/contracts/token/ERC20/ERC20.sol\":2240:2245  _name */\n      0x03\n        /* \"https://github.com/OpenZeppelin/openzeppelin-contracts/blob/v4.8.1/contracts/token/ERC20/ERC20.sol\":2233:2245  return _name */\n      dup1\n      sload\n      tag_74\n      swap1\n      tag_75\n      jump\t// in\n    tag_74:\n      dup1\n      0x1f\n      add\n      0x20\n      dup1\n      swap2\n      div\n      mul\n      0x20\n      add\n      mload(0x40)\n      swap1\n      dup2\n      add\n      0x40\n      mstore\n      dup1\n      swap3\n      swap2\n      swap1\n      dup2\n      dup2\n      mstore\n      0x20\n      add\n      dup3\n      dup1\n      sload\n      tag_76\n      swap1\n      tag_75\n      jump\t// in\n    tag_76:\n      dup1\n      iszero\n      tag_77\n      jumpi\n      dup1\n      0x1f\n      lt\n      tag_78\n      jumpi\n      0x0100\n      dup1\n      dup4\n      sload\n      div\n      mul\n      dup4\n      mstore\n      swap2\n      0x20\n      add\n      swap2\n      jump(tag_77)\n    tag_78:\n      dup3\n      add\n      swap2\n      swap1\n      0x00\n      mstore\n      keccak256(0x00, 0x20)\n      swap1\n    tag_79:\n      dup2\n      sload\n      dup2\n      mstore\n      swap1\n      0x01\n      add\n      swap1\n      0x20\n      add\n      dup1\n      dup4\n      gt\n      tag_79\n      jumpi\n      dup3\n      swap1\n      sub\n      0x1f\n      and\n      dup3\n      add\n      swap2\n    tag_77:\n      pop\n      pop\n      pop\n      pop\n      pop\n      swap1\n      pop\n        /* \"https://github.com/OpenZeppelin/openzeppelin-contracts/blob/v4.8.1/contracts/token/ERC20/ERC20.sol\":2154:2252  function name() public view virtual override returns (string memory) {... */\n      swap1\n      jump\t// out\n        /* \"https://github.com/OpenZeppelin/openzeppelin-contracts/blob/v4.8.1/contracts/token/ERC20/ERC20.sol\":4431:4628  function approve(address spender, uint256 amount) public virtual override returns (bool) {... */\n    tag_25:\n        /* \"https://github.com/OpenZeppelin/openzeppelin-contracts/blob/v4.8.1/contracts/token/ERC20/ERC20.sol\":4514:4518  bool */\n      0x00\n        /* \"https://github.com/OpenZeppelin/openzeppelin-contracts/blob/v4.8.1/contracts/utils/Context.sol\":719:729  msg.sender */\n      caller\n        /* \"https://github.com/OpenZeppelin/openzeppelin-contracts/blob/v4.8.1/contracts/token/ERC20/ERC20.sol\":4568:4600  _approve(owner, spender, amount) */\n      tag_83\n        /* \"https://github.com/OpenZeppelin/openzeppelin-contracts/blob/v4.8.1/contracts/utils/Context.sol\":719:729  msg.sender */\n      dup2\n        /* \"https://github.com/OpenZeppelin/openzeppelin-contracts/blob/v4.8.1/contracts/token/ERC20/ERC20.sol\":4584:4591  spender */\n      dup6\n        /* \"https://github.com/OpenZeppelin/openzeppelin-contracts/blob/v4.8.1/contracts/token/ERC20/ERC20.sol\":4593:4599  amount */\n      dup6\n        /* \"https://github.com/OpenZeppelin/openzeppelin-contracts/blob/v4.8.1/contracts/token/ERC20/ERC20.sol\":4568:4576  _approve */\n      tag_84\n        /* \"https://github.com/OpenZeppelin/openzeppelin-contracts/blob/v4.8.1/contracts/token/ERC20/ERC20.sol\":4568:4600  _approve(owner, spender, amount) */\n      jump\t// in\n    tag_83:\n        /* \"https://github.com/OpenZeppelin/openzeppelin-contracts/blob/v4.8.1/contracts/token/ERC20/ERC20.sol\":4617:4621  true */\n      0x01\n        /* \"https://github.com/OpenZeppelin/openzeppelin-contracts/blob/v4.8.1/contracts/token/ERC20/ERC20.sol\":4610:4621  return true */\n      swap2\n      pop\n      pop\n        /* \"https://github.com/OpenZeppelin/openzeppelin-contracts/blob/v4.8.1/contracts/token/ERC20/ERC20.sol\":4431:4628  function approve(address spender, uint256 amount) public virtual override returns (bool) {... */\n    tag_80:\n      swap3\n      swap2\n      pop\n      pop\n      jump\t// out\n        /* \"https://github.com/OpenZeppelin/openzeppelin-contracts/blob/v4.8.1/contracts/token/ERC20/ERC20.sol\":5190:5476  function transferFrom(... */\n    tag_35:\n        /* \"https://github.com/OpenZeppelin/openzeppelin-contracts/blob/v4.8.1/contracts/token/ERC20/ERC20.sol\":5317:5321  bool */\n      0x00\n        /* \"https://github.com/OpenZeppelin/openzeppelin-contracts/blob/v4.8.1/contracts/utils/Context.sol\":719:729  msg.sender */\n      caller\n        /* \"https://github.com/OpenZeppelin/openzeppelin-contracts/blob/v4.8.1/contracts/token/ERC20/ERC20.sol\":5373:5411  _spendAllowance(from, spender, amount) */\n      tag_88\n        /* \"https://github.com/OpenZeppelin/openzeppelin-contracts/blob/v4.8.1/contracts/token/ERC20/ERC20.sol\":5389:5393  from */\n      dup6\n        /* \"https://github.com/OpenZeppelin/openzeppelin-contracts/blob/v4.8.1/contracts/utils/Context.sol\":719:729  msg.sender */\n      dup3\n        /* \"https://github.com/OpenZeppelin/openzeppelin-contracts/blob/v4.8.1/contracts/token/ERC20/ERC20.sol\":5404:5410  amount */\n      dup6\n        /* \"https://github.com/OpenZeppelin/openzeppelin-contracts/blob/v4.8.1/contracts/token/ERC20/ERC20.sol\":5373:5388  _spendAllowance */\n      tag_89\n        /* \"https://github.com/OpenZeppelin/openzeppelin-contracts/blob/v4.8.1/contracts/token/ERC20/ERC20.sol\":5373:5411  _spendAllowance(from, spender, amount) */\n      jump\t// in\n    tag_88:\n        /* \"https://github.com/OpenZeppelin/openzeppelin-contracts/blob/v4.8.1/contracts/token/ERC20/ERC20.sol\":5421:5448  _transfer(from, to, amount) */\n      tag_90\n        /* \"https://github.com/OpenZeppelin/openzeppelin-contracts/blob/v4.8.1/contracts/token/ERC20/ERC20.sol\":5431:5435  from */\n      dup6\n        /* \"https://github.com/OpenZeppelin/openzeppelin-contracts/blob/v4.8.1/contracts/token/ERC20/ERC20.sol\":5437:5439  to */\n      dup6\n        /* \"https://github.com/OpenZeppelin/openzeppelin-contracts/blob/v4.8.1/contracts/token/ERC20/ERC20.sol\":5441:5447  amount */\n      dup6\n        /* \"https://github.com/OpenZeppelin/openzeppelin-contracts/blob/v4.8.1/contracts/token/ERC20/ERC20.sol\":5421:5430  _transfer */\n      tag_91\n        /* \"https://github.com/OpenZeppelin/openzeppelin-contracts/blob/v4.8.1/contracts/token/ERC20/ERC20.sol\":5421:5448  _transfer(from, to, amount) */\n      jump\t// in\n    tag_90:\n      pop\n        /* \"https://github.com/OpenZeppelin/openzeppelin-contracts/blob/v4.8.1/contracts/token/ERC20/ERC20.sol\":5465:5469  true */\n      0x01\n      swap5\n        /* \"https://github.com/OpenZeppelin/openzeppelin-contracts/blob/v4.8.1/contracts/token/ERC20/ERC20.sol\":5190:5476  function transferFrom(... */\n      swap4\n      pop\n      pop\n      pop\n      pop\n      jump\t// out\n        /* \"https://github.com/OpenZeppelin/openzeppelin-contracts/blob/v4.8.1/contracts/token/ERC20/ERC20.sol\":5871:6105  function increaseAllowance(address spender, uint256 addedValue) public virtual returns (bool) {... */\n    tag_43:\n        /* \"https://github.com/OpenZeppelin/openzeppelin-contracts/blob/v4.8.1/contracts/token/ERC20/ERC20.sol\":5959:5963  bool */\n      0x00\n        /* \"https://github.com/OpenZeppelin/openzeppelin-contracts/blob/v4.8.1/contracts/utils/Context.sol\":719:729  msg.sender */\n      caller\n        /* \"https://github.com/OpenZeppelin/openzeppelin-contracts/blob/v4.8.1/contracts/token/ERC20/ERC20.sol\":6013:6077  _approve(owner, spender, allowance(owner, spender) + addedValue) */\n      tag_83\n        /* \"https://github.com/OpenZeppelin/openzeppelin-contracts/blob/v4.8.1/contracts/utils/Context.sol\":719:729  msg.sender */\n      dup2\n        /* \"https://github.com/OpenZeppelin/openzeppelin-contracts/blob/v4.8.1/contracts/token/ERC20/ERC20.sol\":6029:6036  spender */\n      dup6\n        /* \"https://github.com/OpenZeppelin/openzeppelin-contracts/blob/v4.8.1/contracts/token/ERC20/ERC20.sol\":6066:6076  addedValue */\n      dup6\n        /* \"https://github.com/OpenZeppelin/openzeppelin-contracts/blob/v4.8.1/contracts/token/ERC20/ERC20.sol\":6038:6063  allowance(owner, spender) */\n      tag_96\n        /* \"https://github.com/OpenZeppelin/openzeppelin-contracts/blob/v4.8.1/contracts/utils/Context.sol\":719:729  msg.sender */\n      dup4\n        /* \"https://github.com/OpenZeppelin/openzeppelin-contracts/blob/v4.8.1/contracts/token/ERC20/ERC20.sol\":6029:6036  spender */\n      dup4\n        /* \"https://github.com/OpenZeppelin/openzeppelin-contracts/blob/v4.8.1/contracts/token/ERC20/ERC20.sol\":6038:6047  allowance */\n      tag_67\n        /* \"https://github.com/OpenZeppelin/openzeppelin-contracts/blob/v4.8.1/contracts/token/ERC20/ERC20.sol\":6038:6063  allowance(owner, spender) */\n      jump\t// in\n    tag_96:\n        /* \"https://github.com/OpenZeppelin/openzeppelin-contracts/blob/v4.8.1/contracts/token/ERC20/ERC20.sol\":6038:6076  allowance(owner, spender) + addedValue */\n      tag_97\n      swap2\n      swap1\n      tag_98\n      jump\t// in\n    tag_97:\n        /* \"https://github.com/OpenZeppelin/openzeppelin-contracts/blob/v4.8.1/contracts/token/ERC20/ERC20.sol\":6013:6021  _approve */\n      tag_84\n        /* \"https://github.com/OpenZeppelin/openzeppelin-contracts/blob/v4.8.1/contracts/token/ERC20/ERC20.sol\":6013:6077  _approve(owner, spender, allowance(owner, spender) + addedValue) */\n      jump\t// in\n        /* \"Custom-Dex/DexNoStruct/erc-20.sol\":885:984  function PublicMint(address recipient , uint Amount) public{... */\n    tag_52:\n        /* \"Custom-Dex/DexNoStruct/erc-20.sol\":954:977  _mint(recipient,Amount) */\n      tag_101\n        /* \"Custom-Dex/DexNoStruct/erc-20.sol\":960:969  recipient */\n      dup3\n        /* \"Custom-Dex/DexNoStruct/erc-20.sol\":970:976  Amount */\n      dup3\n        /* \"Custom-Dex/DexNoStruct/erc-20.sol\":954:959  _mint */\n      tag_102\n        /* \"Custom-Dex/DexNoStruct/erc-20.sol\":954:977  _mint(recipient,Amount) */\n      jump\t// in\n    tag_101:\n        /* \"Custom-Dex/DexNoStruct/erc-20.sol\":885:984  function PublicMint(address recipient , uint Amount) public{... */\n      pop\n      pop\n      jump\t// out\n        /* \"https://github.com/OpenZeppelin/openzeppelin-contracts/blob/v4.8.1/contracts/token/ERC20/ERC20.sol\":2365:2467  function symbol() public view virtual override returns (string memory) {... */\n    tag_54:\n        /* \"https://github.com/OpenZeppelin/openzeppelin-contracts/blob/v4.8.1/contracts/token/ERC20/ERC20.sol\":2421:2434  string memory */\n      0x60\n        /* \"https://github.com/OpenZeppelin/openzeppelin-contracts/blob/v4.8.1/contracts/token/ERC20/ERC20.sol\":2453:2460  _symbol */\n      0x04\n        /* \"https://github.com/OpenZeppelin/openzeppelin-contracts/blob/v4.8.1/contracts/token/ERC20/ERC20.sol\":2446:2460  return _symbol */\n      dup1\n      sload\n      tag_74\n      swap1\n      tag_75\n      jump\t// in\n        /* \"https://github.com/OpenZeppelin/openzeppelin-contracts/blob/v4.8.1/contracts/token/ERC20/ERC20.sol\":6592:7019  function decreaseAllowance(address spender, uint256 subtractedValue) public virtual returns (bool) {... */\n    tag_58:\n        /* \"https://github.com/OpenZeppelin/openzeppelin-contracts/blob/v4.8.1/contracts/token/ERC20/ERC20.sol\":6685:6689  bool */\n      0x00\n        /* \"https://github.com/OpenZeppelin/openzeppelin-contracts/blob/v4.8.1/contracts/utils/Context.sol\":719:729  msg.sender */\n      caller\n        /* \"https://github.com/OpenZeppelin/openzeppelin-contracts/blob/v4.8.1/contracts/token/ERC20/ERC20.sol\":6685:6689  bool */\n      dup2\n        /* \"https://github.com/OpenZeppelin/openzeppelin-contracts/blob/v4.8.1/contracts/token/ERC20/ERC20.sol\":6766:6791  allowance(owner, spender) */\n      tag_111\n        /* \"https://github.com/OpenZeppelin/openzeppelin-contracts/blob/v4.8.1/contracts/utils/Context.sol\":719:729  msg.sender */\n      dup3\n        /* \"https://github.com/OpenZeppelin/openzeppelin-contracts/blob/v4.8.1/contracts/token/ERC20/ERC20.sol\":6783:6790  spender */\n      dup7\n        /* \"https://github.com/OpenZeppelin/openzeppelin-contracts/blob/v4.8.1/contracts/token/ERC20/ERC20.sol\":6766:6775  allowance */\n      tag_67\n        /* \"https://github.com/OpenZeppelin/openzeppelin-contracts/blob/v4.8.1/contracts/token/ERC20/ERC20.sol\":6766:6791  allowance(owner, spender) */\n      jump\t// in\n    tag_111:\n        /* \"https://github.com/OpenZeppelin/openzeppelin-contracts/blob/v4.8.1/contracts/token/ERC20/ERC20.sol\":6739:6791  uint256 currentAllowance = allowance(owner, spender) */\n      swap1\n      pop\n        /* \"https://github.com/OpenZeppelin/openzeppelin-contracts/blob/v4.8.1/contracts/token/ERC20/ERC20.sol\":6829:6844  subtractedValue */\n      dup4\n        /* \"https://github.com/OpenZeppelin/openzeppelin-contracts/blob/v4.8.1/contracts/token/ERC20/ERC20.sol\":6809:6825  currentAllowance */\n      dup2\n        /* \"https://github.com/OpenZeppelin/openzeppelin-contracts/blob/v4.8.1/contracts/token/ERC20/ERC20.sol\":6809:6844  currentAllowance >= subtractedValue */\n      lt\n      iszero\n        /* \"https://github.com/OpenZeppelin/openzeppelin-contracts/blob/v4.8.1/contracts/token/ERC20/ERC20.sol\":6801:6886  require(currentAllowance >= subtractedValue, \"ERC20: decreased allowance below zero\") */\n      tag_112\n      jumpi\n      mload(0x40)\n      shl(0xe5, 0x461bcd)\n      dup2\n      mstore\n        /* \"#utility.yul\":3170:3172   */\n      0x20\n        /* \"https://github.com/OpenZeppelin/openzeppelin-contracts/blob/v4.8.1/contracts/token/ERC20/ERC20.sol\":6801:6886  require(currentAllowance >= subtractedValue, \"ERC20: decreased allowance below zero\") */\n      0x04\n      dup3\n      add\n        /* \"#utility.yul\":3152:3173   */\n      mstore\n        /* \"#utility.yul\":3209:3211   */\n      0x25\n        /* \"#utility.yul\":3189:3207   */\n      0x24\n      dup3\n      add\n        /* \"#utility.yul\":3182:3212   */\n      mstore\n        /* \"#utility.yul\":3248:3282   */\n      0x45524332303a2064656372656173656420616c6c6f77616e63652062656c6f77\n        /* \"#utility.yul\":3228:3246   */\n      0x44\n      dup3\n      add\n        /* \"#utility.yul\":3221:3283   */\n      mstore\n      shl(0xd8, 0x207a65726f)\n        /* \"#utility.yul\":3299:3317   */\n      0x64\n      dup3\n      add\n        /* \"#utility.yul\":3292:3327   */\n      mstore\n        /* \"#utility.yul\":3344:3363   */\n      0x84\n      add\n        /* \"https://github.com/OpenZeppelin/openzeppelin-contracts/blob/v4.8.1/contracts/token/ERC20/ERC20.sol\":6801:6886  require(currentAllowance >= subtractedValue, \"ERC20: decreased allowance below zero\") */\n    tag_113:\n      mload(0x40)\n      dup1\n      swap2\n      sub\n      swap1\n      revert\n    tag_112:\n        /* \"https://github.com/OpenZeppelin/openzeppelin-contracts/blob/v4.8.1/contracts/token/ERC20/ERC20.sol\":6920:6980  _approve(owner, spender, currentAllowance - subtractedValue) */\n      tag_90\n        /* \"https://github.com/OpenZeppelin/openzeppelin-contracts/blob/v4.8.1/contracts/token/ERC20/ERC20.sol\":6929:6934  owner */\n      dup3\n        /* \"https://github.com/OpenZeppelin/openzeppelin-contracts/blob/v4.8.1/contracts/token/ERC20/ERC20.sol\":6936:6943  spender */\n      dup7\n        /* \"https://github.com/OpenZeppelin/openzeppelin-contracts/blob/v4.8.1/contracts/token/ERC20/ERC20.sol\":6964:6979  subtractedValue */\n      dup7\n        /* \"https://github.com/OpenZeppelin/openzeppelin-contracts/blob/v4.8.1/contracts/token/ERC20/ERC20.sol\":6945:6961  currentAllowance */\n      dup5\n        /* \"https://github.com/OpenZeppelin/openzeppelin-contracts/blob/v4.8.1/contracts/token/ERC20/ERC20.sol\":6945:6979  currentAllowance - subtractedValue */\n      sub\n        /* \"https://github.com/OpenZeppelin/openzeppelin-contracts/blob/v4.8.1/contracts/token/ERC20/ERC20.sol\":6920:6928  _approve */\n      tag_84\n        /* \"https://github.com/OpenZeppelin/openzeppelin-contracts/blob/v4.8.1/contracts/token/ERC20/ERC20.sol\":6920:6980  _approve(owner, spender, currentAllowance - subtractedValue) */\n      jump\t// in\n        /* \"https://github.com/OpenZeppelin/openzeppelin-contracts/blob/v4.8.1/contracts/token/ERC20/ERC20.sol\":3727:3916  function transfer(address to, uint256 amount) public virtual override returns (bool) {... */\n    tag_62:\n        /* \"https://github.com/OpenZeppelin/openzeppelin-contracts/blob/v4.8.1/contracts/token/ERC20/ERC20.sol\":3806:3810  bool */\n      0x00\n        /* \"https://github.com/OpenZeppelin/openzeppelin-contracts/blob/v4.8.1/contracts/utils/Context.sol\":719:729  msg.sender */\n      caller\n        /* \"https://github.com/OpenZeppelin/openzeppelin-contracts/blob/v4.8.1/contracts/token/ERC20/ERC20.sol\":3860:3888  _transfer(owner, to, amount) */\n      tag_83\n        /* \"https://github.com/OpenZeppelin/openzeppelin-contracts/blob/v4.8.1/contracts/utils/Context.sol\":719:729  msg.sender */\n      dup2\n        /* \"https://github.com/OpenZeppelin/openzeppelin-contracts/blob/v4.8.1/contracts/token/ERC20/ERC20.sol\":3877:3879  to */\n      dup6\n        /* \"https://github.com/OpenZeppelin/openzeppelin-contracts/blob/v4.8.1/contracts/token/ERC20/ERC20.sol\":3881:3887  amount */\n      dup6\n        /* \"https://github.com/OpenZeppelin/openzeppelin-contracts/blob/v4.8.1/contracts/token/ERC20/ERC20.sol\":3860:3869  _transfer */\n      tag_91\n        /* \"https://github.com/OpenZeppelin/openzeppelin-contracts/blob/v4.8.1/contracts/token/ERC20/ERC20.sol\":3860:3888  _transfer(owner, to, amount) */\n      jump\t// in\n        /* \"https://github.com/OpenZeppelin/openzeppelin-contracts/blob/v4.8.1/contracts/token/ERC20/ERC20.sol\":3974:4123  function allowance(address owner, address spender) public view virtual override returns (uint256) {... */\n    tag_67:\n      sub(shl(0xa0, 0x01), 0x01)\n        /* \"https://github.com/OpenZeppelin/openzeppelin-contracts/blob/v4.8.1/contracts/token/ERC20/ERC20.sol\":4089:4107  _allowances[owner] */\n      swap2\n      dup3\n      and\n        /* \"https://github.com/OpenZeppelin/openzeppelin-contracts/blob/v4.8.1/contracts/token/ERC20/ERC20.sol\":4063:4070  uint256 */\n      0x00\n        /* \"https://github.com/OpenZeppelin/openzeppelin-contracts/blob/v4.8.1/contracts/token/ERC20/ERC20.sol\":4089:4107  _allowances[owner] */\n      swap1\n      dup2\n      mstore\n        /* \"https://github.com/OpenZeppelin/openzeppelin-contracts/blob/v4.8.1/contracts/token/ERC20/ERC20.sol\":4089:4100  _allowances */\n      0x01\n        /* \"https://github.com/OpenZeppelin/openzeppelin-contracts/blob/v4.8.1/contracts/token/ERC20/ERC20.sol\":4089:4107  _allowances[owner] */\n      0x20\n      swap1\n      dup2\n      mstore\n      0x40\n      dup1\n      dup4\n      keccak256\n        /* \"https://github.com/OpenZeppelin/openzeppelin-contracts/blob/v4.8.1/contracts/token/ERC20/ERC20.sol\":4089:4116  _allowances[owner][spender] */\n      swap4\n      swap1\n      swap5\n      and\n      dup3\n      mstore\n      swap2\n      swap1\n      swap2\n      mstore\n      keccak256\n      sload\n      swap1\n        /* \"https://github.com/OpenZeppelin/openzeppelin-contracts/blob/v4.8.1/contracts/token/ERC20/ERC20.sol\":3974:4123  function allowance(address owner, address spender) public view virtual override returns (uint256) {... */\n      jump\t// out\n        /* \"Custom-Dex/DexNoStruct/erc-20.sol\":991:1188  function approve(address _owner,address spender, uint256 amount) public virtual returns (bool) {... */\n    tag_71:\n        /* \"Custom-Dex/DexNoStruct/erc-20.sol\":1080:1084  bool */\n      0x00\n        /* \"Custom-Dex/DexNoStruct/erc-20.sol\":1112:1118  _owner */\n      dup4\n        /* \"Custom-Dex/DexNoStruct/erc-20.sol\":1128:1160  _approve(owner, spender, amount) */\n      tag_90\n        /* \"Custom-Dex/DexNoStruct/erc-20.sol\":1112:1118  _owner */\n      dup2\n        /* \"Custom-Dex/DexNoStruct/erc-20.sol\":1144:1151  spender */\n      dup6\n        /* \"Custom-Dex/DexNoStruct/erc-20.sol\":1153:1159  amount */\n      dup6\n        /* \"https://github.com/OpenZeppelin/openzeppelin-contracts/blob/v4.8.1/contracts/token/ERC20/ERC20.sol\":10504:10874  function _approve(... */\n    tag_84:\n      sub(shl(0xa0, 0x01), 0x01)\n        /* \"https://github.com/OpenZeppelin/openzeppelin-contracts/blob/v4.8.1/contracts/token/ERC20/ERC20.sol\":10635:10654  owner != address(0) */\n      dup4\n      and\n        /* \"https://github.com/OpenZeppelin/openzeppelin-contracts/blob/v4.8.1/contracts/token/ERC20/ERC20.sol\":10627:10695  require(owner != address(0), \"ERC20: approve from the zero address\") */\n      tag_124\n      jumpi\n      mload(0x40)\n      shl(0xe5, 0x461bcd)\n      dup2\n      mstore\n        /* \"#utility.yul\":3576:3578   */\n      0x20\n        /* \"https://github.com/OpenZeppelin/openzeppelin-contracts/blob/v4.8.1/contracts/token/ERC20/ERC20.sol\":10627:10695  require(owner != address(0), \"ERC20: approve from the zero address\") */\n      0x04\n      dup3\n      add\n        /* \"#utility.yul\":3558:3579   */\n      mstore\n        /* \"#utility.yul\":3615:3617   */\n      0x24\n        /* \"#utility.yul\":3595:3613   */\n      dup1\n      dup3\n      add\n        /* \"#utility.yul\":3588:3618   */\n      mstore\n        /* \"#utility.yul\":3654:3688   */\n      0x45524332303a20617070726f76652066726f6d20746865207a65726f20616464\n        /* \"#utility.yul\":3634:3652   */\n      0x44\n      dup3\n      add\n        /* \"#utility.yul\":3627:3689   */\n      mstore\n      shl(0xe0, 0x72657373)\n        /* \"#utility.yul\":3705:3723   */\n      0x64\n      dup3\n      add\n        /* \"#utility.yul\":3698:3732   */\n      mstore\n        /* \"#utility.yul\":3749:3768   */\n      0x84\n      add\n        /* \"https://github.com/OpenZeppelin/openzeppelin-contracts/blob/v4.8.1/contracts/token/ERC20/ERC20.sol\":10627:10695  require(owner != address(0), \"ERC20: approve from the zero address\") */\n      tag_113\n        /* \"#utility.yul\":3374:3774   */\n      jump\n        /* \"https://github.com/OpenZeppelin/openzeppelin-contracts/blob/v4.8.1/contracts/token/ERC20/ERC20.sol\":10627:10695  require(owner != address(0), \"ERC20: approve from the zero address\") */\n    tag_124:\n      sub(shl(0xa0, 0x01), 0x01)\n        /* \"https://github.com/OpenZeppelin/openzeppelin-contracts/blob/v4.8.1/contracts/token/ERC20/ERC20.sol\":10713:10734  spender != address(0) */\n      dup3\n      and\n        /* \"https://github.com/OpenZeppelin/openzeppelin-contracts/blob/v4.8.1/contracts/token/ERC20/ERC20.sol\":10705:10773  require(spender != address(0), \"ERC20: approve to the zero address\") */\n      tag_127\n      jumpi\n      mload(0x40)\n      shl(0xe5, 0x461bcd)\n      dup2\n      mstore\n        /* \"#utility.yul\":3981:3983   */\n      0x20\n        /* \"https://github.com/OpenZeppelin/openzeppelin-contracts/blob/v4.8.1/contracts/token/ERC20/ERC20.sol\":10705:10773  require(spender != address(0), \"ERC20: approve to the zero address\") */\n      0x04\n      dup3\n      add\n        /* \"#utility.yul\":3963:3984   */\n      mstore\n        /* \"#utility.yul\":4020:4022   */\n      0x22\n        /* \"#utility.yul\":4000:4018   */\n      0x24\n      dup3\n      add\n        /* \"#utility.yul\":3993:4023   */\n      mstore\n        /* \"#utility.yul\":4059:4093   */\n      0x45524332303a20617070726f766520746f20746865207a65726f206164647265\n        /* \"#utility.yul\":4039:4057   */\n      0x44\n      dup3\n      add\n        /* \"#utility.yul\":4032:4094   */\n      mstore\n      shl(0xf0, 0x7373)\n        /* \"#utility.yul\":4110:4128   */\n      0x64\n      dup3\n      add\n        /* \"#utility.yul\":4103:4135   */\n      mstore\n        /* \"#utility.yul\":4152:4171   */\n      0x84\n      add\n        /* \"https://github.com/OpenZeppelin/openzeppelin-contracts/blob/v4.8.1/contracts/token/ERC20/ERC20.sol\":10705:10773  require(spender != address(0), \"ERC20: approve to the zero address\") */\n      tag_113\n        /* \"#utility.yul\":3779:4177   */\n      jump\n        /* \"https://github.com/OpenZeppelin/openzeppelin-contracts/blob/v4.8.1/contracts/token/ERC20/ERC20.sol\":10705:10773  require(spender != address(0), \"ERC20: approve to the zero address\") */\n    tag_127:\n      sub(shl(0xa0, 0x01), 0x01)\n        /* \"https://github.com/OpenZeppelin/openzeppelin-contracts/blob/v4.8.1/contracts/token/ERC20/ERC20.sol\":10784:10802  _allowances[owner] */\n      dup4\n      dup2\n      and\n      0x00\n      dup2\n      dup2\n      mstore\n        /* \"https://github.com/OpenZeppelin/openzeppelin-contracts/blob/v4.8.1/contracts/token/ERC20/ERC20.sol\":10784:10795  _allowances */\n      0x01\n        /* \"https://github.com/OpenZeppelin/openzeppelin-contracts/blob/v4.8.1/contracts/token/ERC20/ERC20.sol\":10784:10802  _allowances[owner] */\n      0x20\n      swap1\n      dup2\n      mstore\n      0x40\n      dup1\n      dup4\n      keccak256\n        /* \"https://github.com/OpenZeppelin/openzeppelin-contracts/blob/v4.8.1/contracts/token/ERC20/ERC20.sol\":10784:10811  _allowances[owner][spender] */\n      swap5\n      dup8\n      and\n      dup1\n      dup5\n      mstore\n      swap5\n      dup3\n      mstore\n      swap2\n      dup3\n      swap1\n      keccak256\n        /* \"https://github.com/OpenZeppelin/openzeppelin-contracts/blob/v4.8.1/contracts/token/ERC20/ERC20.sol\":10784:10820  _allowances[owner][spender] = amount */\n      dup6\n      swap1\n      sstore\n        /* \"https://github.com/OpenZeppelin/openzeppelin-contracts/blob/v4.8.1/contracts/token/ERC20/ERC20.sol\":10835:10867  Approval(owner, spender, amount) */\n      swap1\n      mload\n        /* \"#utility.yul\":1342:1367   */\n      dup5\n      dup2\n      mstore\n        /* \"https://github.com/OpenZeppelin/openzeppelin-contracts/blob/v4.8.1/contracts/token/ERC20/ERC20.sol\":10835:10867  Approval(owner, spender, amount) */\n      0x8c5be1e5ebec7d5bd14f71427d1e84f3dd0314c0f7b2291e5b200ac8c7c3b925\n      swap2\n        /* \"#utility.yul\":1315:1333   */\n      add\n        /* \"https://github.com/OpenZeppelin/openzeppelin-contracts/blob/v4.8.1/contracts/token/ERC20/ERC20.sol\":10835:10867  Approval(owner, spender, amount) */\n      mload(0x40)\n      dup1\n      swap2\n      sub\n      swap1\n      log3\n        /* \"https://github.com/OpenZeppelin/openzeppelin-contracts/blob/v4.8.1/contracts/token/ERC20/ERC20.sol\":10504:10874  function _approve(... */\n      pop\n      pop\n      pop\n      jump\t// out\n        /* \"https://github.com/OpenZeppelin/openzeppelin-contracts/blob/v4.8.1/contracts/token/ERC20/ERC20.sol\":11155:11596  function _spendAllowance(... */\n    tag_89:\n        /* \"https://github.com/OpenZeppelin/openzeppelin-contracts/blob/v4.8.1/contracts/token/ERC20/ERC20.sol\":11285:11309  uint256 currentAllowance */\n      0x00\n        /* \"https://github.com/OpenZeppelin/openzeppelin-contracts/blob/v4.8.1/contracts/token/ERC20/ERC20.sol\":11312:11337  allowance(owner, spender) */\n      tag_132\n        /* \"https://github.com/OpenZeppelin/openzeppelin-contracts/blob/v4.8.1/contracts/token/ERC20/ERC20.sol\":11322:11327  owner */\n      dup5\n        /* \"https://github.com/OpenZeppelin/openzeppelin-contracts/blob/v4.8.1/contracts/token/ERC20/ERC20.sol\":11329:11336  spender */\n      dup5\n        /* \"https://github.com/OpenZeppelin/openzeppelin-contracts/blob/v4.8.1/contracts/token/ERC20/ERC20.sol\":11312:11321  allowance */\n      tag_67\n        /* \"https://github.com/OpenZeppelin/openzeppelin-contracts/blob/v4.8.1/contracts/token/ERC20/ERC20.sol\":11312:11337  allowance(owner, spender) */\n      jump\t// in\n    tag_132:\n        /* \"https://github.com/OpenZeppelin/openzeppelin-contracts/blob/v4.8.1/contracts/token/ERC20/ERC20.sol\":11285:11337  uint256 currentAllowance = allowance(owner, spender) */\n      swap1\n      pop\n      not(0x00)\n        /* \"https://github.com/OpenZeppelin/openzeppelin-contracts/blob/v4.8.1/contracts/token/ERC20/ERC20.sol\":11351:11367  currentAllowance */\n      dup2\n        /* \"https://github.com/OpenZeppelin/openzeppelin-contracts/blob/v4.8.1/contracts/token/ERC20/ERC20.sol\":11351:11388  currentAllowance != type(uint256).max */\n      eq\n        /* \"https://github.com/OpenZeppelin/openzeppelin-contracts/blob/v4.8.1/contracts/token/ERC20/ERC20.sol\":11347:11590  if (currentAllowance != type(uint256).max) {... */\n      tag_137\n      jumpi\n        /* \"https://github.com/OpenZeppelin/openzeppelin-contracts/blob/v4.8.1/contracts/token/ERC20/ERC20.sol\":11432:11438  amount */\n      dup2\n        /* \"https://github.com/OpenZeppelin/openzeppelin-contracts/blob/v4.8.1/contracts/token/ERC20/ERC20.sol\":11412:11428  currentAllowance */\n      dup2\n        /* \"https://github.com/OpenZeppelin/openzeppelin-contracts/blob/v4.8.1/contracts/token/ERC20/ERC20.sol\":11412:11438  currentAllowance >= amount */\n      lt\n      iszero\n        /* \"https://github.com/OpenZeppelin/openzeppelin-contracts/blob/v4.8.1/contracts/token/ERC20/ERC20.sol\":11404:11472  require(currentAllowance >= amount, \"ERC20: insufficient allowance\") */\n      tag_134\n      jumpi\n      mload(0x40)\n      shl(0xe5, 0x461bcd)\n      dup2\n      mstore\n        /* \"#utility.yul\":4384:4386   */\n      0x20\n        /* \"https://github.com/OpenZeppelin/openzeppelin-contracts/blob/v4.8.1/contracts/token/ERC20/ERC20.sol\":11404:11472  require(currentAllowance >= amount, \"ERC20: insufficient allowance\") */\n      0x04\n      dup3\n      add\n        /* \"#utility.yul\":4366:4387   */\n      mstore\n        /* \"#utility.yul\":4423:4425   */\n      0x1d\n        /* \"#utility.yul\":4403:4421   */\n      0x24\n      dup3\n      add\n        /* \"#utility.yul\":4396:4426   */\n      mstore\n        /* \"#utility.yul\":4462:4493   */\n      0x45524332303a20696e73756666696369656e7420616c6c6f77616e6365000000\n        /* \"#utility.yul\":4442:4460   */\n      0x44\n      dup3\n      add\n        /* \"#utility.yul\":4435:4494   */\n      mstore\n        /* \"#utility.yul\":4511:4529   */\n      0x64\n      add\n        /* \"https://github.com/OpenZeppelin/openzeppelin-contracts/blob/v4.8.1/contracts/token/ERC20/ERC20.sol\":11404:11472  require(currentAllowance >= amount, \"ERC20: insufficient allowance\") */\n      tag_113\n        /* \"#utility.yul\":4182:4535   */\n      jump\n        /* \"https://github.com/OpenZeppelin/openzeppelin-contracts/blob/v4.8.1/contracts/token/ERC20/ERC20.sol\":11404:11472  require(currentAllowance >= amount, \"ERC20: insufficient allowance\") */\n    tag_134:\n        /* \"https://github.com/OpenZeppelin/openzeppelin-contracts/blob/v4.8.1/contracts/token/ERC20/ERC20.sol\":11514:11565  _approve(owner, spender, currentAllowance - amount) */\n      tag_137\n        /* \"https://github.com/OpenZeppelin/openzeppelin-contracts/blob/v4.8.1/contracts/token/ERC20/ERC20.sol\":11523:11528  owner */\n      dup5\n        /* \"https://github.com/OpenZeppelin/openzeppelin-contracts/blob/v4.8.1/contracts/token/ERC20/ERC20.sol\":11530:11537  spender */\n      dup5\n        /* \"https://github.com/OpenZeppelin/openzeppelin-contracts/blob/v4.8.1/contracts/token/ERC20/ERC20.sol\":11558:11564  amount */\n      dup5\n        /* \"https://github.com/OpenZeppelin/openzeppelin-contracts/blob/v4.8.1/contracts/token/ERC20/ERC20.sol\":11539:11555  currentAllowance */\n      dup5\n        /* \"https://github.com/OpenZeppelin/openzeppelin-contracts/blob/v4.8.1/contracts/token/ERC20/ERC20.sol\":11539:11564  currentAllowance - amount */\n      sub\n        /* \"https://github.com/OpenZeppelin/openzeppelin-contracts/blob/v4.8.1/contracts/token/ERC20/ERC20.sol\":11514:11522  _approve */\n      tag_84\n        /* \"https://github.com/OpenZeppelin/openzeppelin-contracts/blob/v4.8.1/contracts/token/ERC20/ERC20.sol\":11514:11565  _approve(owner, spender, currentAllowance - amount) */\n      jump\t// in\n    tag_137:\n        /* \"https://github.com/OpenZeppelin/openzeppelin-contracts/blob/v4.8.1/contracts/token/ERC20/ERC20.sol\":11275:11596  {... */\n      pop\n        /* \"https://github.com/OpenZeppelin/openzeppelin-contracts/blob/v4.8.1/contracts/token/ERC20/ERC20.sol\":11155:11596  function _spendAllowance(... */\n      pop\n      pop\n      pop\n      jump\t// out\n        /* \"https://github.com/OpenZeppelin/openzeppelin-contracts/blob/v4.8.1/contracts/token/ERC20/ERC20.sol\":7473:8291  function _transfer(... */\n    tag_91:\n      sub(shl(0xa0, 0x01), 0x01)\n        /* \"https://github.com/OpenZeppelin/openzeppelin-contracts/blob/v4.8.1/contracts/token/ERC20/ERC20.sol\":7599:7617  from != address(0) */\n      dup4\n      and\n        /* \"https://github.com/OpenZeppelin/openzeppelin-contracts/blob/v4.8.1/contracts/token/ERC20/ERC20.sol\":7591:7659  require(from != address(0), \"ERC20: transfer from the zero address\") */\n      tag_139\n      jumpi\n      mload(0x40)\n      shl(0xe5, 0x461bcd)\n      dup2\n      mstore\n        /* \"#utility.yul\":4742:4744   */\n      0x20\n        /* \"https://github.com/OpenZeppelin/openzeppelin-contracts/blob/v4.8.1/contracts/token/ERC20/ERC20.sol\":7591:7659  require(from != address(0), \"ERC20: transfer from the zero address\") */\n      0x04\n      dup3\n      add\n        /* \"#utility.yul\":4724:4745   */\n      mstore\n        /* \"#utility.yul\":4781:4783   */\n      0x25\n        /* \"#utility.yul\":4761:4779   */\n      0x24\n      dup3\n      add\n        /* \"#utility.yul\":4754:4784   */\n      mstore\n        /* \"#utility.yul\":4820:4854   */\n      0x45524332303a207472616e736665722066726f6d20746865207a65726f206164\n        /* \"#utility.yul\":4800:4818   */\n      0x44\n      dup3\n      add\n        /* \"#utility.yul\":4793:4855   */\n      mstore\n      shl(0xd8, 0x6472657373)\n        /* \"#utility.yul\":4871:4889   */\n      0x64\n      dup3\n      add\n        /* \"#utility.yul\":4864:4899   */\n      mstore\n        /* \"#utility.yul\":4916:4935   */\n      0x84\n      add\n        /* \"https://github.com/OpenZeppelin/openzeppelin-contracts/blob/v4.8.1/contracts/token/ERC20/ERC20.sol\":7591:7659  require(from != address(0), \"ERC20: transfer from the zero address\") */\n      tag_113\n        /* \"#utility.yul\":4540:4941   */\n      jump\n        /* \"https://github.com/OpenZeppelin/openzeppelin-contracts/blob/v4.8.1/contracts/token/ERC20/ERC20.sol\":7591:7659  require(from != address(0), \"ERC20: transfer from the zero address\") */\n    tag_139:\n      sub(shl(0xa0, 0x01), 0x01)\n        /* \"https://github.com/OpenZeppelin/openzeppelin-contracts/blob/v4.8.1/contracts/token/ERC20/ERC20.sol\":7677:7693  to != address(0) */\n      dup3\n      and\n        /* \"https://github.com/OpenZeppelin/openzeppelin-contracts/blob/v4.8.1/contracts/token/ERC20/ERC20.sol\":7669:7733  require(to != address(0), \"ERC20: transfer to the zero address\") */\n      tag_142\n      jumpi\n      mload(0x40)\n      shl(0xe5, 0x461bcd)\n      dup2\n      mstore\n        /* \"#utility.yul\":5148:5150   */\n      0x20\n        /* \"https://github.com/OpenZeppelin/openzeppelin-contracts/blob/v4.8.1/contracts/token/ERC20/ERC20.sol\":7669:7733  require(to != address(0), \"ERC20: transfer to the zero address\") */\n      0x04\n      dup3\n      add\n        /* \"#utility.yul\":5130:5151   */\n      mstore\n        /* \"#utility.yul\":5187:5189   */\n      0x23\n        /* \"#utility.yul\":5167:5185   */\n      0x24\n      dup3\n      add\n        /* \"#utility.yul\":5160:5190   */\n      mstore\n        /* \"#utility.yul\":5226:5260   */\n      0x45524332303a207472616e7366657220746f20746865207a65726f2061646472\n        /* \"#utility.yul\":5206:5224   */\n      0x44\n      dup3\n      add\n        /* \"#utility.yul\":5199:5261   */\n      mstore\n      shl(0xe8, 0x657373)\n        /* \"#utility.yul\":5277:5295   */\n      0x64\n      dup3\n      add\n        /* \"#utility.yul\":5270:5303   */\n      mstore\n        /* \"#utility.yul\":5320:5339   */\n      0x84\n      add\n        /* \"https://github.com/OpenZeppelin/openzeppelin-contracts/blob/v4.8.1/contracts/token/ERC20/ERC20.sol\":7669:7733  require(to != address(0), \"ERC20: transfer to the zero address\") */\n      tag_113\n        /* \"#utility.yul\":4946:5345   */\n      jump\n        /* \"https://github.com/OpenZeppelin/openzeppelin-contracts/blob/v4.8.1/contracts/token/ERC20/ERC20.sol\":7669:7733  require(to != address(0), \"ERC20: transfer to the zero address\") */\n    tag_142:\n      sub(shl(0xa0, 0x01), 0x01)\n        /* \"https://github.com/OpenZeppelin/openzeppelin-contracts/blob/v4.8.1/contracts/token/ERC20/ERC20.sol\":7815:7830  _balances[from] */\n      dup4\n      and\n        /* \"https://github.com/OpenZeppelin/openzeppelin-contracts/blob/v4.8.1/contracts/token/ERC20/ERC20.sol\":7793:7812  uint256 fromBalance */\n      0x00\n        /* \"https://github.com/OpenZeppelin/openzeppelin-contracts/blob/v4.8.1/contracts/token/ERC20/ERC20.sol\":7815:7830  _balances[from] */\n      swap1\n      dup2\n      mstore\n      0x20\n      dup2\n      swap1\n      mstore\n      0x40\n      swap1\n      keccak256\n      sload\n        /* \"https://github.com/OpenZeppelin/openzeppelin-contracts/blob/v4.8.1/contracts/token/ERC20/ERC20.sol\":7848:7869  fromBalance >= amount */\n      dup2\n      dup2\n      lt\n      iszero\n        /* \"https://github.com/OpenZeppelin/openzeppelin-contracts/blob/v4.8.1/contracts/token/ERC20/ERC20.sol\":7840:7912  require(fromBalance >= amount, \"ERC20: transfer amount exceeds balance\") */\n      tag_147\n      jumpi\n      mload(0x40)\n      shl(0xe5, 0x461bcd)\n      dup2\n      mstore\n        /* \"#utility.yul\":5552:5554   */\n      0x20\n        /* \"https://github.com/OpenZeppelin/openzeppelin-contracts/blob/v4.8.1/contracts/token/ERC20/ERC20.sol\":7840:7912  require(fromBalance >= amount, \"ERC20: transfer amount exceeds balance\") */\n      0x04\n      dup3\n      add\n        /* \"#utility.yul\":5534:5555   */\n      mstore\n        /* \"#utility.yul\":5591:5593   */\n      0x26\n        /* \"#utility.yul\":5571:5589   */\n      0x24\n      dup3\n      add\n        /* \"#utility.yul\":5564:5594   */\n      mstore\n        /* \"#utility.yul\":5630:5664   */\n      0x45524332303a207472616e7366657220616d6f756e7420657863656564732062\n        /* \"#utility.yul\":5610:5628   */\n      0x44\n      dup3\n      add\n        /* \"#utility.yul\":5603:5665   */\n      mstore\n      shl(0xd0, 0x616c616e6365)\n        /* \"#utility.yul\":5681:5699   */\n      0x64\n      dup3\n      add\n        /* \"#utility.yul\":5674:5710   */\n      mstore\n        /* \"#utility.yul\":5727:5746   */\n      0x84\n      add\n        /* \"https://github.com/OpenZeppelin/openzeppelin-contracts/blob/v4.8.1/contracts/token/ERC20/ERC20.sol\":7840:7912  require(fromBalance >= amount, \"ERC20: transfer amount exceeds balance\") */\n      tag_113\n        /* \"#utility.yul\":5350:5752   */\n      jump\n        /* \"https://github.com/OpenZeppelin/openzeppelin-contracts/blob/v4.8.1/contracts/token/ERC20/ERC20.sol\":7840:7912  require(fromBalance >= amount, \"ERC20: transfer amount exceeds balance\") */\n    tag_147:\n      sub(shl(0xa0, 0x01), 0x01)\n        /* \"https://github.com/OpenZeppelin/openzeppelin-contracts/blob/v4.8.1/contracts/token/ERC20/ERC20.sol\":7946:7961  _balances[from] */\n      dup5\n      dup2\n      and\n        /* \"https://github.com/OpenZeppelin/openzeppelin-contracts/blob/v4.8.1/contracts/token/ERC20/ERC20.sol\":7946:7955  _balances */\n      0x00\n        /* \"https://github.com/OpenZeppelin/openzeppelin-contracts/blob/v4.8.1/contracts/token/ERC20/ERC20.sol\":7946:7961  _balances[from] */\n      dup2\n      dup2\n      mstore\n      0x20\n      dup2\n      dup2\n      mstore\n      0x40\n      dup1\n      dup4\n      keccak256\n        /* \"https://github.com/OpenZeppelin/openzeppelin-contracts/blob/v4.8.1/contracts/token/ERC20/ERC20.sol\":7964:7984  fromBalance - amount */\n      dup8\n      dup8\n      sub\n        /* \"https://github.com/OpenZeppelin/openzeppelin-contracts/blob/v4.8.1/contracts/token/ERC20/ERC20.sol\":7946:7984  _balances[from] = fromBalance - amount */\n      swap1\n      sstore\n        /* \"https://github.com/OpenZeppelin/openzeppelin-contracts/blob/v4.8.1/contracts/token/ERC20/ERC20.sol\":8161:8174  _balances[to] */\n      swap4\n      dup8\n      and\n      dup1\n      dup4\n      mstore\n      swap2\n      dup5\n      swap1\n      keccak256\n        /* \"https://github.com/OpenZeppelin/openzeppelin-contracts/blob/v4.8.1/contracts/token/ERC20/ERC20.sol\":8161:8184  _balances[to] += amount */\n      dup1\n      sload\n      dup8\n      add\n      swap1\n      sstore\n        /* \"https://github.com/OpenZeppelin/openzeppelin-contracts/blob/v4.8.1/contracts/token/ERC20/ERC20.sol\":8210:8236  Transfer(from, to, amount) */\n      swap3\n      mload\n        /* \"#utility.yul\":1342:1367   */\n      dup6\n      dup2\n      mstore\n        /* \"https://github.com/OpenZeppelin/openzeppelin-contracts/blob/v4.8.1/contracts/token/ERC20/ERC20.sol\":8161:8174  _balances[to] */\n      swap1\n      swap3\n        /* \"https://github.com/OpenZeppelin/openzeppelin-contracts/blob/v4.8.1/contracts/token/ERC20/ERC20.sol\":8210:8236  Transfer(from, to, amount) */\n      0xddf252ad1be2c89b69c2b068fc378daa952ba7f163c4a11628f55a4df523b3ef\n      swap2\n        /* \"#utility.yul\":1315:1333   */\n      add\n        /* \"https://github.com/OpenZeppelin/openzeppelin-contracts/blob/v4.8.1/contracts/token/ERC20/ERC20.sol\":8210:8236  Transfer(from, to, amount) */\n      mload(0x40)\n      dup1\n      swap2\n      sub\n      swap1\n      log3\n        /* \"https://github.com/OpenZeppelin/openzeppelin-contracts/blob/v4.8.1/contracts/token/ERC20/ERC20.sol\":8247:8284  _afterTokenTransfer(from, to, amount) */\n      tag_137\n        /* \"https://github.com/OpenZeppelin/openzeppelin-contracts/blob/v4.8.1/contracts/token/ERC20/ERC20.sol\":12180:12301  function _beforeTokenTransfer(... */\n      jump\n        /* \"https://github.com/OpenZeppelin/openzeppelin-contracts/blob/v4.8.1/contracts/token/ERC20/ERC20.sol\":8567:9102  function _mint(address account, uint256 amount) internal virtual {... */\n    tag_102:\n      sub(shl(0xa0, 0x01), 0x01)\n        /* \"https://github.com/OpenZeppelin/openzeppelin-contracts/blob/v4.8.1/contracts/token/ERC20/ERC20.sol\":8650:8671  account != address(0) */\n      dup3\n      and\n        /* \"https://github.com/OpenZeppelin/openzeppelin-contracts/blob/v4.8.1/contracts/token/ERC20/ERC20.sol\":8642:8707  require(account != address(0), \"ERC20: mint to the zero address\") */\n      tag_154\n      jumpi\n      mload(0x40)\n      shl(0xe5, 0x461bcd)\n      dup2\n      mstore\n        /* \"#utility.yul\":5959:5961   */\n      0x20\n        /* \"https://github.com/OpenZeppelin/openzeppelin-contracts/blob/v4.8.1/contracts/token/ERC20/ERC20.sol\":8642:8707  require(account != address(0), \"ERC20: mint to the zero address\") */\n      0x04\n      dup3\n      add\n        /* \"#utility.yul\":5941:5962   */\n      mstore\n        /* \"#utility.yul\":5998:6000   */\n      0x1f\n        /* \"#utility.yul\":5978:5996   */\n      0x24\n      dup3\n      add\n        /* \"#utility.yul\":5971:6001   */\n      mstore\n        /* \"#utility.yul\":6037:6070   */\n      0x45524332303a206d696e7420746f20746865207a65726f206164647265737300\n        /* \"#utility.yul\":6017:6035   */\n      0x44\n      dup3\n      add\n        /* \"#utility.yul\":6010:6071   */\n      mstore\n        /* \"#utility.yul\":6088:6106   */\n      0x64\n      add\n        /* \"https://github.com/OpenZeppelin/openzeppelin-contracts/blob/v4.8.1/contracts/token/ERC20/ERC20.sol\":8642:8707  require(account != address(0), \"ERC20: mint to the zero address\") */\n      tag_113\n        /* \"#utility.yul\":5757:6112   */\n      jump\n        /* \"https://github.com/OpenZeppelin/openzeppelin-contracts/blob/v4.8.1/contracts/token/ERC20/ERC20.sol\":8642:8707  require(account != address(0), \"ERC20: mint to the zero address\") */\n    tag_154:\n        /* \"https://github.com/OpenZeppelin/openzeppelin-contracts/blob/v4.8.1/contracts/token/ERC20/ERC20.sol\":8794:8800  amount */\n      dup1\n        /* \"https://github.com/OpenZeppelin/openzeppelin-contracts/blob/v4.8.1/contracts/token/ERC20/ERC20.sol\":8778:8790  _totalSupply */\n      0x02\n      0x00\n        /* \"https://github.com/OpenZeppelin/openzeppelin-contracts/blob/v4.8.1/contracts/token/ERC20/ERC20.sol\":8778:8800  _totalSupply += amount */\n      dup3\n      dup3\n      sload\n      tag_158\n      swap2\n      swap1\n      tag_98\n      jump\t// in\n    tag_158:\n      swap1\n      swap2\n      sstore\n      pop\n      pop\n      sub(shl(0xa0, 0x01), 0x01)\n        /* \"https://github.com/OpenZeppelin/openzeppelin-contracts/blob/v4.8.1/contracts/token/ERC20/ERC20.sol\":8946:8964  _balances[account] */\n      dup3\n      and\n        /* \"https://github.com/OpenZeppelin/openzeppelin-contracts/blob/v4.8.1/contracts/token/ERC20/ERC20.sol\":8946:8955  _balances */\n      0x00\n        /* \"https://github.com/OpenZeppelin/openzeppelin-contracts/blob/v4.8.1/contracts/token/ERC20/ERC20.sol\":8946:8964  _balances[account] */\n      dup2\n      dup2\n      mstore\n      0x20\n      dup2\n      dup2\n      mstore\n      0x40\n      dup1\n      dup4\n      keccak256\n        /* \"https://github.com/OpenZeppelin/openzeppelin-contracts/blob/v4.8.1/contracts/token/ERC20/ERC20.sol\":8946:8974  _balances[account] += amount */\n      dup1\n      sload\n      dup7\n      add\n      swap1\n      sstore\n        /* \"https://github.com/OpenZeppelin/openzeppelin-contracts/blob/v4.8.1/contracts/token/ERC20/ERC20.sol\":8999:9036  Transfer(address(0), account, amount) */\n      mload\n        /* \"#utility.yul\":1342:1367   */\n      dup5\n      dup2\n      mstore\n        /* \"https://github.com/OpenZeppelin/openzeppelin-contracts/blob/v4.8.1/contracts/token/ERC20/ERC20.sol\":8999:9036  Transfer(address(0), account, amount) */\n      0xddf252ad1be2c89b69c2b068fc378daa952ba7f163c4a11628f55a4df523b3ef\n      swap2\n        /* \"#utility.yul\":1315:1333   */\n      add\n        /* \"https://github.com/OpenZeppelin/openzeppelin-contracts/blob/v4.8.1/contracts/token/ERC20/ERC20.sol\":8999:9036  Transfer(address(0), account, amount) */\n      mload(0x40)\n      dup1\n      swap2\n      sub\n      swap1\n      log3\n        /* \"Custom-Dex/DexNoStruct/erc-20.sol\":885:984  function PublicMint(address recipient , uint Amount) public{... */\n      pop\n      pop\n      jump\t// out\n        /* \"#utility.yul\":14:562   */\n    tag_21:\n        /* \"#utility.yul\":126:130   */\n      0x00\n        /* \"#utility.yul\":155:157   */\n      0x20\n        /* \"#utility.yul\":184:186   */\n      dup1\n        /* \"#utility.yul\":173:182   */\n      dup4\n        /* \"#utility.yul\":166:187   */\n      mstore\n        /* \"#utility.yul\":216:222   */\n      dup4\n        /* \"#utility.yul\":210:223   */\n      mload\n        /* \"#utility.yul\":259:265   */\n      dup1\n        /* \"#utility.yul\":254:256   */\n      dup3\n        /* \"#utility.yul\":243:252   */\n      dup6\n        /* \"#utility.yul\":239:257   */\n      add\n        /* \"#utility.yul\":232:266   */\n      mstore\n        /* \"#utility.yul\":284:285   */\n      0x00\n        /* \"#utility.yul\":294:434   */\n    tag_166:\n        /* \"#utility.yul\":308:314   */\n      dup2\n        /* \"#utility.yul\":305:306   */\n      dup2\n        /* \"#utility.yul\":302:315   */\n      lt\n        /* \"#utility.yul\":294:434   */\n      iszero\n      tag_168\n      jumpi\n        /* \"#utility.yul\":403:417   */\n      dup6\n      dup2\n      add\n        /* \"#utility.yul\":399:422   */\n      dup4\n      add\n        /* \"#utility.yul\":393:423   */\n      mload\n        /* \"#utility.yul\":369:386   */\n      dup6\n      dup3\n      add\n        /* \"#utility.yul\":388:390   */\n      0x40\n        /* \"#utility.yul\":365:391   */\n      add\n        /* \"#utility.yul\":358:424   */\n      mstore\n        /* \"#utility.yul\":323:333   */\n      dup3\n      add\n        /* \"#utility.yul\":294:434   */\n      jump(tag_166)\n    tag_168:\n        /* \"#utility.yul\":298:301   */\n      pop\n        /* \"#utility.yul\":483:484   */\n      0x00\n        /* \"#utility.yul\":478:480   */\n      0x40\n        /* \"#utility.yul\":469:475   */\n      dup3\n        /* \"#utility.yul\":458:467   */\n      dup7\n        /* \"#utility.yul\":454:476   */\n      add\n        /* \"#utility.yul\":450:481   */\n      add\n        /* \"#utility.yul\":443:485   */\n      mstore\n        /* \"#utility.yul\":553:555   */\n      0x40\n        /* \"#utility.yul\":546:548   */\n      0x1f\n        /* \"#utility.yul\":542:549   */\n      not\n        /* \"#utility.yul\":537:539   */\n      0x1f\n        /* \"#utility.yul\":529:535   */\n      dup4\n        /* \"#utility.yul\":525:540   */\n      add\n        /* \"#utility.yul\":521:550   */\n      and\n        /* \"#utility.yul\":510:519   */\n      dup6\n        /* \"#utility.yul\":506:551   */\n      add\n        /* \"#utility.yul\":502:556   */\n      add\n        /* \"#utility.yul\":494:556   */\n      swap3\n      pop\n      pop\n      pop\n        /* \"#utility.yul\":14:562   */\n      swap3\n      swap2\n      pop\n      pop\n      jump\t// out\n        /* \"#utility.yul\":567:740   */\n    tag_163:\n        /* \"#utility.yul\":635:655   */\n      dup1\n      calldataload\n      sub(shl(0xa0, 0x01), 0x01)\n        /* \"#utility.yul\":684:715   */\n      dup2\n      and\n        /* \"#utility.yul\":674:716   */\n      dup2\n      eq\n        /* \"#utility.yul\":664:734   */\n      tag_170\n      jumpi\n        /* \"#utility.yul\":730:731   */\n      0x00\n        /* \"#utility.yul\":727:728   */\n      dup1\n        /* \"#utility.yul\":720:732   */\n      revert\n        /* \"#utility.yul\":664:734   */\n    tag_170:\n        /* \"#utility.yul\":567:740   */\n      swap2\n      swap1\n      pop\n      jump\t// out\n        /* \"#utility.yul\":745:999   */\n    tag_24:\n        /* \"#utility.yul\":813:819   */\n      0x00\n        /* \"#utility.yul\":821:827   */\n      dup1\n        /* \"#utility.yul\":874:876   */\n      0x40\n        /* \"#utility.yul\":862:871   */\n      dup4\n        /* \"#utility.yul\":853:860   */\n      dup6\n        /* \"#utility.yul\":849:872   */\n      sub\n        /* \"#utility.yul\":845:877   */\n      slt\n        /* \"#utility.yul\":842:894   */\n      iszero\n      tag_172\n      jumpi\n        /* \"#utility.yul\":890:891   */\n      0x00\n        /* \"#utility.yul\":887:888   */\n      dup1\n        /* \"#utility.yul\":880:892   */\n      revert\n        /* \"#utility.yul\":842:894   */\n    tag_172:\n        /* \"#utility.yul\":913:942   */\n      tag_173\n        /* \"#utility.yul\":932:941   */\n      dup4\n        /* \"#utility.yul\":913:942   */\n      tag_163\n      jump\t// in\n    tag_173:\n        /* \"#utility.yul\":903:942   */\n      swap5\n        /* \"#utility.yul\":989:991   */\n      0x20\n        /* \"#utility.yul\":974:992   */\n      swap4\n      swap1\n      swap4\n      add\n        /* \"#utility.yul\":961:993   */\n      calldataload\n      swap4\n      pop\n      pop\n      pop\n        /* \"#utility.yul\":745:999   */\n      jump\t// out\n        /* \"#utility.yul\":1378:1706   */\n    tag_34:\n        /* \"#utility.yul\":1455:1461   */\n      0x00\n        /* \"#utility.yul\":1463:1469   */\n      dup1\n        /* \"#utility.yul\":1471:1477   */\n      0x00\n        /* \"#utility.yul\":1524:1526   */\n      0x60\n        /* \"#utility.yul\":1512:1521   */\n      dup5\n        /* \"#utility.yul\":1503:1510   */\n      dup7\n        /* \"#utility.yul\":1499:1522   */\n      sub\n        /* \"#utility.yul\":1495:1527   */\n      slt\n        /* \"#utility.yul\":1492:1544   */\n      iszero\n      tag_177\n      jumpi\n        /* \"#utility.yul\":1540:1541   */\n      0x00\n        /* \"#utility.yul\":1537:1538   */\n      dup1\n        /* \"#utility.yul\":1530:1542   */\n      revert\n        /* \"#utility.yul\":1492:1544   */\n    tag_177:\n        /* \"#utility.yul\":1563:1592   */\n      tag_178\n        /* \"#utility.yul\":1582:1591   */\n      dup5\n        /* \"#utility.yul\":1563:1592   */\n      tag_163\n      jump\t// in\n    tag_178:\n        /* \"#utility.yul\":1553:1592   */\n      swap3\n      pop\n        /* \"#utility.yul\":1611:1649   */\n      tag_179\n        /* \"#utility.yul\":1645:1647   */\n      0x20\n        /* \"#utility.yul\":1634:1643   */\n      dup6\n        /* \"#utility.yul\":1630:1648   */\n      add\n        /* \"#utility.yul\":1611:1649   */\n      tag_163\n      jump\t// in\n    tag_179:\n        /* \"#utility.yul\":1601:1649   */\n      swap2\n      pop\n        /* \"#utility.yul\":1696:1698   */\n      0x40\n        /* \"#utility.yul\":1685:1694   */\n      dup5\n        /* \"#utility.yul\":1681:1699   */\n      add\n        /* \"#utility.yul\":1668:1700   */\n      calldataload\n        /* \"#utility.yul\":1658:1700   */\n      swap1\n      pop\n        /* \"#utility.yul\":1378:1706   */\n      swap3\n      pop\n      swap3\n      pop\n      swap3\n      jump\t// out\n        /* \"#utility.yul\":1900:2086   */\n    tag_47:\n        /* \"#utility.yul\":1959:1965   */\n      0x00\n        /* \"#utility.yul\":2012:2014   */\n      0x20\n        /* \"#utility.yul\":2000:2009   */\n      dup3\n        /* \"#utility.yul\":1991:1998   */\n      dup5\n        /* \"#utility.yul\":1987:2010   */\n      sub\n        /* \"#utility.yul\":1983:2015   */\n      slt\n        /* \"#utility.yul\":1980:2032   */\n      iszero\n      tag_182\n      jumpi\n        /* \"#utility.yul\":2028:2029   */\n      0x00\n        /* \"#utility.yul\":2025:2026   */\n      dup1\n        /* \"#utility.yul\":2018:2030   */\n      revert\n        /* \"#utility.yul\":1980:2032   */\n    tag_182:\n        /* \"#utility.yul\":2051:2080   */\n      tag_183\n        /* \"#utility.yul\":2070:2079   */\n      dup3\n        /* \"#utility.yul\":2051:2080   */\n      tag_163\n      jump\t// in\n    tag_183:\n        /* \"#utility.yul\":2041:2080   */\n      swap4\n        /* \"#utility.yul\":1900:2086   */\n      swap3\n      pop\n      pop\n      pop\n      jump\t// out\n        /* \"#utility.yul\":2091:2351   */\n    tag_66:\n        /* \"#utility.yul\":2159:2165   */\n      0x00\n        /* \"#utility.yul\":2167:2173   */\n      dup1\n        /* \"#utility.yul\":2220:2222   */\n      0x40\n        /* \"#utility.yul\":2208:2217   */\n      dup4\n        /* \"#utility.yul\":2199:2206   */\n      dup6\n        /* \"#utility.yul\":2195:2218   */\n      sub\n        /* \"#utility.yul\":2191:2223   */\n      slt\n        /* \"#utility.yul\":2188:2240   */\n      iszero\n      tag_185\n      jumpi\n        /* \"#utility.yul\":2236:2237   */\n      0x00\n        /* \"#utility.yul\":2233:2234   */\n      dup1\n        /* \"#utility.yul\":2226:2238   */\n      revert\n        /* \"#utility.yul\":2188:2240   */\n    tag_185:\n        /* \"#utility.yul\":2259:2288   */\n      tag_186\n        /* \"#utility.yul\":2278:2287   */\n      dup4\n        /* \"#utility.yul\":2259:2288   */\n      tag_163\n      jump\t// in\n    tag_186:\n        /* \"#utility.yul\":2249:2288   */\n      swap2\n      pop\n        /* \"#utility.yul\":2307:2345   */\n      tag_187\n        /* \"#utility.yul\":2341:2343   */\n      0x20\n        /* \"#utility.yul\":2330:2339   */\n      dup5\n        /* \"#utility.yul\":2326:2344   */\n      add\n        /* \"#utility.yul\":2307:2345   */\n      tag_163\n      jump\t// in\n    tag_187:\n        /* \"#utility.yul\":2297:2345   */\n      swap1\n      pop\n        /* \"#utility.yul\":2091:2351   */\n      swap3\n      pop\n      swap3\n      swap1\n      pop\n      jump\t// out\n        /* \"#utility.yul\":2356:2736   */\n    tag_75:\n        /* \"#utility.yul\":2435:2436   */\n      0x01\n        /* \"#utility.yul\":2431:2443   */\n      dup2\n      dup2\n      shr\n      swap1\n        /* \"#utility.yul\":2478:2490   */\n      dup3\n      and\n      dup1\n        /* \"#utility.yul\":2499:2560   */\n      tag_189\n      jumpi\n        /* \"#utility.yul\":2553:2557   */\n      0x7f\n        /* \"#utility.yul\":2545:2551   */\n      dup3\n        /* \"#utility.yul\":2541:2558   */\n      and\n        /* \"#utility.yul\":2531:2558   */\n      swap2\n      pop\n        /* \"#utility.yul\":2499:2560   */\n    tag_189:\n        /* \"#utility.yul\":2606:2608   */\n      0x20\n        /* \"#utility.yul\":2598:2604   */\n      dup3\n        /* \"#utility.yul\":2595:2609   */\n      lt\n        /* \"#utility.yul\":2575:2593   */\n      dup2\n        /* \"#utility.yul\":2572:2610   */\n      sub\n        /* \"#utility.yul\":2569:2730   */\n      tag_190\n      jumpi\n        /* \"#utility.yul\":2652:2662   */\n      0x4e487b71\n        /* \"#utility.yul\":2647:2650   */\n      0xe0\n        /* \"#utility.yul\":2643:2663   */\n      shl\n        /* \"#utility.yul\":2640:2641   */\n      0x00\n        /* \"#utility.yul\":2633:2664   */\n      mstore\n        /* \"#utility.yul\":2687:2691   */\n      0x22\n        /* \"#utility.yul\":2684:2685   */\n      0x04\n        /* \"#utility.yul\":2677:2692   */\n      mstore\n        /* \"#utility.yul\":2715:2719   */\n      0x24\n        /* \"#utility.yul\":2712:2713   */\n      0x00\n        /* \"#utility.yul\":2705:2720   */\n      revert\n        /* \"#utility.yul\":2569:2730   */\n    tag_190:\n      pop\n        /* \"#utility.yul\":2356:2736   */\n      swap2\n      swap1\n      pop\n      jump\t// out\n        /* \"#utility.yul\":2741:2963   */\n    tag_98:\n        /* \"#utility.yul\":2806:2815   */\n      dup1\n      dup3\n      add\n        /* \"#utility.yul\":2827:2837   */\n      dup1\n      dup3\n      gt\n        /* \"#utility.yul\":2824:2957   */\n      iszero\n      tag_80\n      jumpi\n        /* \"#utility.yul\":2879:2889   */\n      0x4e487b71\n        /* \"#utility.yul\":2874:2877   */\n      0xe0\n        /* \"#utility.yul\":2870:2890   */\n      shl\n        /* \"#utility.yul\":2867:2868   */\n      0x00\n        /* \"#utility.yul\":2860:2891   */\n      mstore\n        /* \"#utility.yul\":2914:2918   */\n      0x11\n        /* \"#utility.yul\":2911:2912   */\n      0x04\n        /* \"#utility.yul\":2904:2919   */\n      mstore\n        /* \"#utility.yul\":2942:2946   */\n      0x24\n        /* \"#utility.yul\":2939:2940   */\n      0x00\n        /* \"#utility.yul\":2932:2947   */\n      revert\n\n    auxdata: 0xa264697066735822122088a1b7e9e7ce438c428a13f8f0f0c5c3ac403c7f3eefab87c951e6d8d242b54064736f6c63430008140033\n}\n",
				"bytecode": {
					"linkReferences": {},
					"object": "60806040523480156200001157600080fd5b5060405162000d7d38038062000d7d83398101604081905262000034916200020a565b8181600362000044838262000302565b50600462000053828262000302565b505050620000723369d3c21bcecceda10000006200007a60201b60201c565b5050620003f6565b6001600160a01b038216620000d55760405162461bcd60e51b815260206004820152601f60248201527f45524332303a206d696e7420746f20746865207a65726f206164647265737300604482015260640160405180910390fd5b8060026000828254620000e99190620003ce565b90915550506001600160a01b038216600081815260208181526040808320805486019055518481527fddf252ad1be2c89b69c2b068fc378daa952ba7f163c4a11628f55a4df523b3ef910160405180910390a35050565b505050565b634e487b7160e01b600052604160045260246000fd5b600082601f8301126200016d57600080fd5b81516001600160401b03808211156200018a576200018a62000145565b604051601f8301601f19908116603f01168101908282118183101715620001b557620001b562000145565b81604052838152602092508683858801011115620001d257600080fd5b600091505b83821015620001f65785820183015181830184015290820190620001d7565b600093810190920192909252949350505050565b600080604083850312156200021e57600080fd5b82516001600160401b03808211156200023657600080fd5b62000244868387016200015b565b935060208501519150808211156200025b57600080fd5b506200026a858286016200015b565b9150509250929050565b600181811c908216806200028957607f821691505b602082108103620002aa57634e487b7160e01b600052602260045260246000fd5b50919050565b601f8211156200014057600081815260208120601f850160051c81016020861015620002d95750805b601f850160051c820191505b81811015620002fa57828155600101620002e5565b505050505050565b81516001600160401b038111156200031e576200031e62000145565b62000336816200032f845462000274565b84620002b0565b602080601f8311600181146200036e5760008415620003555750858301515b600019600386901b1c1916600185901b178555620002fa565b600085815260208120601f198616915b828110156200039f578886015182559484019460019091019084016200037e565b5085821015620003be5787850151600019600388901b60f8161c191681555b5050505050600190811b01905550565b80820180821115620003f057634e487b7160e01b600052601160045260246000fd5b92915050565b61097780620004066000396000f3fe608060405234801561001057600080fd5b50600436106100cf5760003560e01c806370a082311161008c578063a457c2d711610066578063a457c2d7146101a2578063a9059cbb146101b5578063dd62ed3e146101c8578063e1f21c67146101db57600080fd5b806370a082311461015c578063748a29861461018557806395d89b411461019a57600080fd5b806306fdde03146100d4578063095ea7b3146100f257806318160ddd1461011557806323b872dd14610127578063313ce5671461013a5780633950935114610149575b600080fd5b6100dc6101ee565b6040516100e991906107c1565b60405180910390f35b61010561010036600461082b565b610280565b60405190151581526020016100e9565b6002545b6040519081526020016100e9565b610105610135366004610855565b61029a565b604051601281526020016100e9565b61010561015736600461082b565b6102be565b61011961016a366004610891565b6001600160a01b031660009081526020819052604090205490565b61019861019336600461082b565b6102e0565b005b6100dc6102ee565b6101056101b036600461082b565b6102fd565b6101056101c336600461082b565b61037d565b6101196101d63660046108b3565b61038b565b6101056101e9366004610855565b6103b6565b6060600380546101fd906108e6565b80601f0160208091040260200160405190810160405280929190818152602001828054610229906108e6565b80156102765780601f1061024b57610100808354040283529160200191610276565b820191906000526020600020905b81548152906001019060200180831161025957829003601f168201915b5050505050905090565b60003361028e8185856103c0565b60019150505b92915050565b6000336102a88582856104e4565b6102b385858561055e565b506001949350505050565b60003361028e8185856102d1838361038b565b6102db9190610920565b6103c0565b6102ea8282610702565b5050565b6060600480546101fd906108e6565b6000338161030b828661038b565b9050838110156103705760405162461bcd60e51b815260206004820152602560248201527f45524332303a2064656372656173656420616c6c6f77616e63652062656c6f77604482015264207a65726f60d81b60648201526084015b60405180910390fd5b6102b382868684036103c0565b60003361028e81858561055e565b6001600160a01b03918216600090815260016020908152604080832093909416825291909152205490565b6000836102b38185855b6001600160a01b0383166104225760405162461bcd60e51b8152602060048201526024808201527f45524332303a20617070726f76652066726f6d20746865207a65726f206164646044820152637265737360e01b6064820152608401610367565b6001600160a01b0382166104835760405162461bcd60e51b815260206004820152602260248201527f45524332303a20617070726f766520746f20746865207a65726f206164647265604482015261737360f01b6064820152608401610367565b6001600160a01b0383811660008181526001602090815260408083209487168084529482529182902085905590518481527f8c5be1e5ebec7d5bd14f71427d1e84f3dd0314c0f7b2291e5b200ac8c7c3b925910160405180910390a3505050565b60006104f0848461038b565b90506000198114610558578181101561054b5760405162461bcd60e51b815260206004820152601d60248201527f45524332303a20696e73756666696369656e7420616c6c6f77616e63650000006044820152606401610367565b61055884848484036103c0565b50505050565b6001600160a01b0383166105c25760405162461bcd60e51b815260206004820152602560248201527f45524332303a207472616e736665722066726f6d20746865207a65726f206164604482015264647265737360d81b6064820152608401610367565b6001600160a01b0382166106245760405162461bcd60e51b815260206004820152602360248201527f45524332303a207472616e7366657220746f20746865207a65726f206164647260448201526265737360e81b6064820152608401610367565b6001600160a01b0383166000908152602081905260409020548181101561069c5760405162461bcd60e51b815260206004820152602660248201527f45524332303a207472616e7366657220616d6f756e7420657863656564732062604482015265616c616e636560d01b6064820152608401610367565b6001600160a01b03848116600081815260208181526040808320878703905593871680835291849020805487019055925185815290927fddf252ad1be2c89b69c2b068fc378daa952ba7f163c4a11628f55a4df523b3ef910160405180910390a3610558565b6001600160a01b0382166107585760405162461bcd60e51b815260206004820152601f60248201527f45524332303a206d696e7420746f20746865207a65726f2061646472657373006044820152606401610367565b806002600082825461076a9190610920565b90915550506001600160a01b038216600081815260208181526040808320805486019055518481527fddf252ad1be2c89b69c2b068fc378daa952ba7f163c4a11628f55a4df523b3ef910160405180910390a35050565b600060208083528351808285015260005b818110156107ee578581018301518582016040015282016107d2565b506000604082860101526040601f19601f8301168501019250505092915050565b80356001600160a01b038116811461082657600080fd5b919050565b6000806040838503121561083e57600080fd5b6108478361080f565b946020939093013593505050565b60008060006060848603121561086a57600080fd5b6108738461080f565b92506108816020850161080f565b9150604084013590509250925092565b6000602082840312156108a357600080fd5b6108ac8261080f565b9392505050565b600080604083850312156108c657600080fd5b6108cf8361080f565b91506108dd6020840161080f565b90509250929050565b600181811c908216806108fa57607f821691505b60208210810361091a57634e487b7160e01b600052602260045260246000fd5b50919050565b8082018082111561029457634e487b7160e01b600052601160045260246000fdfea264697066735822122088a1b7e9e7ce438c428a13f8f0f0c5c3ac403c7f3eefab87c951e6d8d242b54064736f6c63430008140033",
					"opcodes": "PUSH1 0x80 PUSH1 0x40 MSTORE CALLVALUE DUP1 ISZERO PUSH3 0x11 JUMPI PUSH1 0x0 DUP1 REVERT JUMPDEST POP PUSH1 0x40 MLOAD PUSH3 0xD7D CODESIZE SUB DUP1 PUSH3 0xD7D DUP4 CODECOPY DUP2 ADD PUSH1 0x40 DUP2 SWAP1 MSTORE PUSH3 0x34 SWAP2 PUSH3 0x20A JUMP JUMPDEST DUP2 DUP2 PUSH1 0x3 PUSH3 0x44 DUP4 DUP3 PUSH3 0x302 JUMP JUMPDEST POP PUSH1 0x4 PUSH3 0x53 DUP3 DUP3 PUSH3 0x302 JUMP JUMPDEST POP POP POP PUSH3 0x72 CALLER PUSH10 0xD3C21BCECCEDA1000000 PUSH3 0x7A PUSH1 0x20 SHL PUSH1 0x20 SHR JUMP JUMPDEST POP POP PUSH3 0x3F6 JUMP JUMPDEST PUSH1 0x1 PUSH1 0x1 PUSH1 0xA0 SHL SUB DUP3 AND PUSH3 0xD5 JUMPI PUSH1 0x40 MLOAD PUSH3 0x461BCD PUSH1 0xE5 SHL DUP2 MSTORE PUSH1 0x20 PUSH1 0x4 DUP3 ADD MSTORE PUSH1 0x1F PUSH1 0x24 DUP3 ADD MSTORE PUSH32 0x45524332303A206D696E7420746F20746865207A65726F206164647265737300 PUSH1 0x44 DUP3 ADD MSTORE PUSH1 0x64 ADD PUSH1 0x40 MLOAD DUP1 SWAP2 SUB SWAP1 REVERT JUMPDEST DUP1 PUSH1 0x2 PUSH1 0x0 DUP3 DUP3 SLOAD PUSH3 0xE9 SWAP2 SWAP1 PUSH3 0x3CE JUMP JUMPDEST SWAP1 SWAP2 SSTORE POP POP PUSH1 0x1 PUSH1 0x1 PUSH1 0xA0 SHL SUB DUP3 AND PUSH1 0x0 DUP2 DUP2 MSTORE PUSH1 0x20 DUP2 DUP2 MSTORE PUSH1 0x40 DUP1 DUP4 KECCAK256 DUP1 SLOAD DUP7 ADD SWAP1 SSTORE MLOAD DUP5 DUP2 MSTORE PUSH32 0xDDF252AD1BE2C89B69C2B068FC378DAA952BA7F163C4A11628F55A4DF523B3EF SWAP2 ADD PUSH1 0x40 MLOAD DUP1 SWAP2 SUB SWAP1 LOG3 POP POP JUMP JUMPDEST POP POP POP JUMP JUMPDEST PUSH4 0x4E487B71 PUSH1 0xE0 SHL PUSH1 0x0 MSTORE PUSH1 0x41 PUSH1 0x4 MSTORE PUSH1 0x24 PUSH1 0x0 REVERT JUMPDEST PUSH1 0x0 DUP3 PUSH1 0x1F DUP4 ADD SLT PUSH3 0x16D JUMPI PUSH1 0x0 DUP1 REVERT JUMPDEST DUP2 MLOAD PUSH1 0x1 PUSH1 0x1 PUSH1 0x40 SHL SUB DUP1 DUP3 GT ISZERO PUSH3 0x18A JUMPI PUSH3 0x18A PUSH3 0x145 JUMP JUMPDEST PUSH1 0x40 MLOAD PUSH1 0x1F DUP4 ADD PUSH1 0x1F NOT SWAP1 DUP2 AND PUSH1 0x3F ADD AND DUP2 ADD SWAP1 DUP3 DUP3 GT DUP2 DUP4 LT OR ISZERO PUSH3 0x1B5 JUMPI PUSH3 0x1B5 PUSH3 0x145 JUMP JUMPDEST DUP2 PUSH1 0x40 MSTORE DUP4 DUP2 MSTORE PUSH1 0x20 SWAP3 POP DUP7 DUP4 DUP6 DUP9 ADD ADD GT ISZERO PUSH3 0x1D2 JUMPI PUSH1 0x0 DUP1 REVERT JUMPDEST PUSH1 0x0 SWAP2 POP JUMPDEST DUP4 DUP3 LT ISZERO PUSH3 0x1F6 JUMPI DUP6 DUP3 ADD DUP4 ADD MLOAD DUP2 DUP4 ADD DUP5 ADD MSTORE SWAP1 DUP3 ADD SWAP1 PUSH3 0x1D7 JUMP JUMPDEST PUSH1 0x0 SWAP4 DUP2 ADD SWAP1 SWAP3 ADD SWAP3 SWAP1 SWAP3 MSTORE SWAP5 SWAP4 POP POP POP POP JUMP JUMPDEST PUSH1 0x0 DUP1 PUSH1 0x40 DUP4 DUP6 SUB SLT ISZERO PUSH3 0x21E JUMPI PUSH1 0x0 DUP1 REVERT JUMPDEST DUP3 MLOAD PUSH1 0x1 PUSH1 0x1 PUSH1 0x40 SHL SUB DUP1 DUP3 GT ISZERO PUSH3 0x236 JUMPI PUSH1 0x0 DUP1 REVERT JUMPDEST PUSH3 0x244 DUP7 DUP4 DUP8 ADD PUSH3 0x15B JUMP JUMPDEST SWAP4 POP PUSH1 0x20 DUP6 ADD MLOAD SWAP2 POP DUP1 DUP3 GT ISZERO PUSH3 0x25B JUMPI PUSH1 0x0 DUP1 REVERT JUMPDEST POP PUSH3 0x26A DUP6 DUP3 DUP7 ADD PUSH3 0x15B JUMP JUMPDEST SWAP2 POP POP SWAP3 POP SWAP3 SWAP1 POP JUMP JUMPDEST PUSH1 0x1 DUP2 DUP2 SHR SWAP1 DUP3 AND DUP1 PUSH3 0x289 JUMPI PUSH1 0x7F DUP3 AND SWAP2 POP JUMPDEST PUSH1 0x20 DUP3 LT DUP2 SUB PUSH3 0x2AA JUMPI PUSH4 0x4E487B71 PUSH1 0xE0 SHL PUSH1 0x0 MSTORE PUSH1 0x22 PUSH1 0x4 MSTORE PUSH1 0x24 PUSH1 0x0 REVERT JUMPDEST POP SWAP2 SWAP1 POP JUMP JUMPDEST PUSH1 0x1F DUP3 GT ISZERO PUSH3 0x140 JUMPI PUSH1 0x0 DUP2 DUP2 MSTORE PUSH1 0x20 DUP2 KECCAK256 PUSH1 0x1F DUP6 ADD PUSH1 0x5 SHR DUP2 ADD PUSH1 0x20 DUP7 LT ISZERO PUSH3 0x2D9 JUMPI POP DUP1 JUMPDEST PUSH1 0x1F DUP6 ADD PUSH1 0x5 SHR DUP3 ADD SWAP2 POP JUMPDEST DUP2 DUP2 LT ISZERO PUSH3 0x2FA JUMPI DUP3 DUP2 SSTORE PUSH1 0x1 ADD PUSH3 0x2E5 JUMP JUMPDEST POP POP POP POP POP POP JUMP JUMPDEST DUP2 MLOAD PUSH1 0x1 PUSH1 0x1 PUSH1 0x40 SHL SUB DUP2 GT ISZERO PUSH3 0x31E JUMPI PUSH3 0x31E PUSH3 0x145 JUMP JUMPDEST PUSH3 0x336 DUP2 PUSH3 0x32F DUP5 SLOAD PUSH3 0x274 JUMP JUMPDEST DUP5 PUSH3 0x2B0 JUMP JUMPDEST PUSH1 0x20 DUP1 PUSH1 0x1F DUP4 GT PUSH1 0x1 DUP2 EQ PUSH3 0x36E JUMPI PUSH1 0x0 DUP5 ISZERO PUSH3 0x355 JUMPI POP DUP6 DUP4 ADD MLOAD JUMPDEST PUSH1 0x0 NOT PUSH1 0x3 DUP7 SWAP1 SHL SHR NOT AND PUSH1 0x1 DUP6 SWAP1 SHL OR DUP6 SSTORE PUSH3 0x2FA JUMP JUMPDEST PUSH1 0x0 DUP6 DUP2 MSTORE PUSH1 0x20 DUP2 KECCAK256 PUSH1 0x1F NOT DUP7 AND SWAP2 JUMPDEST DUP3 DUP2 LT ISZERO PUSH3 0x39F JUMPI DUP9 DUP7 ADD MLOAD DUP3 SSTORE SWAP5 DUP5 ADD SWAP5 PUSH1 0x1 SWAP1 SWAP2 ADD SWAP1 DUP5 ADD PUSH3 0x37E JUMP JUMPDEST POP DUP6 DUP3 LT ISZERO PUSH3 0x3BE JUMPI DUP8 DUP6 ADD MLOAD PUSH1 0x0 NOT PUSH1 0x3 DUP9 SWAP1 SHL PUSH1 0xF8 AND SHR NOT AND DUP2 SSTORE JUMPDEST POP POP POP POP POP PUSH1 0x1 SWAP1 DUP2 SHL ADD SWAP1 SSTORE POP JUMP JUMPDEST DUP1 DUP3 ADD DUP1 DUP3 GT ISZERO PUSH3 0x3F0 JUMPI PUSH4 0x4E487B71 PUSH1 0xE0 SHL PUSH1 0x0 MSTORE PUSH1 0x11 PUSH1 0x4 MSTORE PUSH1 0x24 PUSH1 0x0 REVERT JUMPDEST SWAP3 SWAP2 POP POP JUMP JUMPDEST PUSH2 0x977 DUP1 PUSH3 0x406 PUSH1 0x0 CODECOPY PUSH1 0x0 RETURN INVALID PUSH1 0x80 PUSH1 0x40 MSTORE CALLVALUE DUP1 ISZERO PUSH2 0x10 JUMPI PUSH1 0x0 DUP1 REVERT JUMPDEST POP PUSH1 0x4 CALLDATASIZE LT PUSH2 0xCF JUMPI PUSH1 0x0 CALLDATALOAD PUSH1 0xE0 SHR DUP1 PUSH4 0x70A08231 GT PUSH2 0x8C JUMPI DUP1 PUSH4 0xA457C2D7 GT PUSH2 0x66 JUMPI DUP1 PUSH4 0xA457C2D7 EQ PUSH2 0x1A2 JUMPI DUP1 PUSH4 0xA9059CBB EQ PUSH2 0x1B5 JUMPI DUP1 PUSH4 0xDD62ED3E EQ PUSH2 0x1C8 JUMPI DUP1 PUSH4 0xE1F21C67 EQ PUSH2 0x1DB JUMPI PUSH1 0x0 DUP1 REVERT JUMPDEST DUP1 PUSH4 0x70A08231 EQ PUSH2 0x15C JUMPI DUP1 PUSH4 0x748A2986 EQ PUSH2 0x185 JUMPI DUP1 PUSH4 0x95D89B41 EQ PUSH2 0x19A JUMPI PUSH1 0x0 DUP1 REVERT JUMPDEST DUP1 PUSH4 0x6FDDE03 EQ PUSH2 0xD4 JUMPI DUP1 PUSH4 0x95EA7B3 EQ PUSH2 0xF2 JUMPI DUP1 PUSH4 0x18160DDD EQ PUSH2 0x115 JUMPI DUP1 PUSH4 0x23B872DD EQ PUSH2 0x127 JUMPI DUP1 PUSH4 0x313CE567 EQ PUSH2 0x13A JUMPI DUP1 PUSH4 0x39509351 EQ PUSH2 0x149 JUMPI JUMPDEST PUSH1 0x0 DUP1 REVERT JUMPDEST PUSH2 0xDC PUSH2 0x1EE JUMP JUMPDEST PUSH1 0x40 MLOAD PUSH2 0xE9 SWAP2 SWAP1 PUSH2 0x7C1 JUMP JUMPDEST PUSH1 0x40 MLOAD DUP1 SWAP2 SUB SWAP1 RETURN JUMPDEST PUSH2 0x105 PUSH2 0x100 CALLDATASIZE PUSH1 0x4 PUSH2 0x82B JUMP JUMPDEST PUSH2 0x280 JUMP JUMPDEST PUSH1 0x40 MLOAD SWAP1 ISZERO ISZERO DUP2 MSTORE PUSH1 0x20 ADD PUSH2 0xE9 JUMP JUMPDEST PUSH1 0x2 SLOAD JUMPDEST PUSH1 0x40 MLOAD SWAP1 DUP2 MSTORE PUSH1 0x20 ADD PUSH2 0xE9 JUMP JUMPDEST PUSH2 0x105 PUSH2 0x135 CALLDATASIZE PUSH1 0x4 PUSH2 0x855 JUMP JUMPDEST PUSH2 0x29A JUMP JUMPDEST PUSH1 0x40 MLOAD PUSH1 0x12 DUP2 MSTORE PUSH1 0x20 ADD PUSH2 0xE9 JUMP JUMPDEST PUSH2 0x105 PUSH2 0x157 CALLDATASIZE PUSH1 0x4 PUSH2 0x82B JUMP JUMPDEST PUSH2 0x2BE JUMP JUMPDEST PUSH2 0x119 PUSH2 0x16A CALLDATASIZE PUSH1 0x4 PUSH2 0x891 JUMP JUMPDEST PUSH1 0x1 PUSH1 0x1 PUSH1 0xA0 SHL SUB AND PUSH1 0x0 SWAP1 DUP2 MSTORE PUSH1 0x20 DUP2 SWAP1 MSTORE PUSH1 0x40 SWAP1 KECCAK256 SLOAD SWAP1 JUMP JUMPDEST PUSH2 0x198 PUSH2 0x193 CALLDATASIZE PUSH1 0x4 PUSH2 0x82B JUMP JUMPDEST PUSH2 0x2E0 JUMP JUMPDEST STOP JUMPDEST PUSH2 0xDC PUSH2 0x2EE JUMP JUMPDEST PUSH2 0x105 PUSH2 0x1B0 CALLDATASIZE PUSH1 0x4 PUSH2 0x82B JUMP JUMPDEST PUSH2 0x2FD JUMP JUMPDEST PUSH2 0x105 PUSH2 0x1C3 CALLDATASIZE PUSH1 0x4 PUSH2 0x82B JUMP JUMPDEST PUSH2 0x37D JUMP JUMPDEST PUSH2 0x119 PUSH2 0x1D6 CALLDATASIZE PUSH1 0x4 PUSH2 0x8B3 JUMP JUMPDEST PUSH2 0x38B JUMP JUMPDEST PUSH2 0x105 PUSH2 0x1E9 CALLDATASIZE PUSH1 0x4 PUSH2 0x855 JUMP JUMPDEST PUSH2 0x3B6 JUMP JUMPDEST PUSH1 0x60 PUSH1 0x3 DUP1 SLOAD PUSH2 0x1FD SWAP1 PUSH2 0x8E6 JUMP JUMPDEST DUP1 PUSH1 0x1F ADD PUSH1 0x20 DUP1 SWAP2 DIV MUL PUSH1 0x20 ADD PUSH1 0x40 MLOAD SWAP1 DUP2 ADD PUSH1 0x40 MSTORE DUP1 SWAP3 SWAP2 SWAP1 DUP2 DUP2 MSTORE PUSH1 0x20 ADD DUP3 DUP1 SLOAD PUSH2 0x229 SWAP1 PUSH2 0x8E6 JUMP JUMPDEST DUP1 ISZERO PUSH2 0x276 JUMPI DUP1 PUSH1 0x1F LT PUSH2 0x24B JUMPI PUSH2 0x100 DUP1 DUP4 SLOAD DIV MUL DUP4 MSTORE SWAP2 PUSH1 0x20 ADD SWAP2 PUSH2 0x276 JUMP JUMPDEST DUP3 ADD SWAP2 SWAP1 PUSH1 0x0 MSTORE PUSH1 0x20 PUSH1 0x0 KECCAK256 SWAP1 JUMPDEST DUP2 SLOAD DUP2 MSTORE SWAP1 PUSH1 0x1 ADD SWAP1 PUSH1 0x20 ADD DUP1 DUP4 GT PUSH2 0x259 JUMPI DUP3 SWAP1 SUB PUSH1 0x1F AND DUP3 ADD SWAP2 JUMPDEST POP POP POP POP POP SWAP1 POP SWAP1 JUMP JUMPDEST PUSH1 0x0 CALLER PUSH2 0x28E DUP2 DUP6 DUP6 PUSH2 0x3C0 JUMP JUMPDEST PUSH1 0x1 SWAP2 POP POP JUMPDEST SWAP3 SWAP2 POP POP JUMP JUMPDEST PUSH1 0x0 CALLER PUSH2 0x2A8 DUP6 DUP3 DUP6 PUSH2 0x4E4 JUMP JUMPDEST PUSH2 0x2B3 DUP6 DUP6 DUP6 PUSH2 0x55E JUMP JUMPDEST POP PUSH1 0x1 SWAP5 SWAP4 POP POP POP POP JUMP JUMPDEST PUSH1 0x0 CALLER PUSH2 0x28E DUP2 DUP6 DUP6 PUSH2 0x2D1 DUP4 DUP4 PUSH2 0x38B JUMP JUMPDEST PUSH2 0x2DB SWAP2 SWAP1 PUSH2 0x920 JUMP JUMPDEST PUSH2 0x3C0 JUMP JUMPDEST PUSH2 0x2EA DUP3 DUP3 PUSH2 0x702 JUMP JUMPDEST POP POP JUMP JUMPDEST PUSH1 0x60 PUSH1 0x4 DUP1 SLOAD PUSH2 0x1FD SWAP1 PUSH2 0x8E6 JUMP JUMPDEST PUSH1 0x0 CALLER DUP2 PUSH2 0x30B DUP3 DUP7 PUSH2 0x38B JUMP JUMPDEST SWAP1 POP DUP4 DUP2 LT ISZERO PUSH2 0x370 JUMPI PUSH1 0x40 MLOAD PUSH3 0x461BCD PUSH1 0xE5 SHL DUP2 MSTORE PUSH1 0x20 PUSH1 0x4 DUP3 ADD MSTORE PUSH1 0x25 PUSH1 0x24 DUP3 ADD MSTORE PUSH32 0x45524332303A2064656372656173656420616C6C6F77616E63652062656C6F77 PUSH1 0x44 DUP3 ADD MSTORE PUSH5 0x207A65726F PUSH1 0xD8 SHL PUSH1 0x64 DUP3 ADD MSTORE PUSH1 0x84 ADD JUMPDEST PUSH1 0x40 MLOAD DUP1 SWAP2 SUB SWAP1 REVERT JUMPDEST PUSH2 0x2B3 DUP3 DUP7 DUP7 DUP5 SUB PUSH2 0x3C0 JUMP JUMPDEST PUSH1 0x0 CALLER PUSH2 0x28E DUP2 DUP6 DUP6 PUSH2 0x55E JUMP JUMPDEST PUSH1 0x1 PUSH1 0x1 PUSH1 0xA0 SHL SUB SWAP2 DUP3 AND PUSH1 0x0 SWAP1 DUP2 MSTORE PUSH1 0x1 PUSH1 0x20 SWAP1 DUP2 MSTORE PUSH1 0x40 DUP1 DUP4 KECCAK256 SWAP4 SWAP1 SWAP5 AND DUP3 MSTORE SWAP2 SWAP1 SWAP2 MSTORE KECCAK256 SLOAD SWAP1 JUMP JUMPDEST PUSH1 0x0 DUP4 PUSH2 0x2B3 DUP2 DUP6 DUP6 JUMPDEST PUSH1 0x1 PUSH1 0x1 PUSH1 0xA0 SHL SUB DUP4 AND PUSH2 0x422 JUMPI PUSH1 0x40 MLOAD PUSH3 0x461BCD PUSH1 0xE5 SHL DUP2 MSTORE PUSH1 0x20 PUSH1 0x4 DUP3 ADD MSTORE PUSH1 0x24 DUP1 DUP3 ADD MSTORE PUSH32 0x45524332303A20617070726F76652066726F6D20746865207A65726F20616464 PUSH1 0x44 DUP3 ADD MSTORE PUSH4 0x72657373 PUSH1 0xE0 SHL PUSH1 0x64 DUP3 ADD MSTORE PUSH1 0x84 ADD PUSH2 0x367 JUMP JUMPDEST PUSH1 0x1 PUSH1 0x1 PUSH1 0xA0 SHL SUB DUP3 AND PUSH2 0x483 JUMPI PUSH1 0x40 MLOAD PUSH3 0x461BCD PUSH1 0xE5 SHL DUP2 MSTORE PUSH1 0x20 PUSH1 0x4 DUP3 ADD MSTORE PUSH1 0x22 PUSH1 0x24 DUP3 ADD MSTORE PUSH32 0x45524332303A20617070726F766520746F20746865207A65726F206164647265 PUSH1 0x44 DUP3 ADD MSTORE PUSH2 0x7373 PUSH1 0xF0 SHL PUSH1 0x64 DUP3 ADD MSTORE PUSH1 0x84 ADD PUSH2 0x367 JUMP JUMPDEST PUSH1 0x1 PUSH1 0x1 PUSH1 0xA0 SHL SUB DUP4 DUP2 AND PUSH1 0x0 DUP2 DUP2 MSTORE PUSH1 0x1 PUSH1 0x20 SWAP1 DUP2 MSTORE PUSH1 0x40 DUP1 DUP4 KECCAK256 SWAP5 DUP8 AND DUP1 DUP5 MSTORE SWAP5 DUP3 MSTORE SWAP2 DUP3 SWAP1 KECCAK256 DUP6 SWAP1 SSTORE SWAP1 MLOAD DUP5 DUP2 MSTORE PUSH32 0x8C5BE1E5EBEC7D5BD14F71427D1E84F3DD0314C0F7B2291E5B200AC8C7C3B925 SWAP2 ADD PUSH1 0x40 MLOAD DUP1 SWAP2 SUB SWAP1 LOG3 POP POP POP JUMP JUMPDEST PUSH1 0x0 PUSH2 0x4F0 DUP5 DUP5 PUSH2 0x38B JUMP JUMPDEST SWAP1 POP PUSH1 0x0 NOT DUP2 EQ PUSH2 0x558 JUMPI DUP2 DUP2 LT ISZERO PUSH2 0x54B JUMPI PUSH1 0x40 MLOAD PUSH3 0x461BCD PUSH1 0xE5 SHL DUP2 MSTORE PUSH1 0x20 PUSH1 0x4 DUP3 ADD MSTORE PUSH1 0x1D PUSH1 0x24 DUP3 ADD MSTORE PUSH32 0x45524332303A20696E73756666696369656E7420616C6C6F77616E6365000000 PUSH1 0x44 DUP3 ADD MSTORE PUSH1 0x64 ADD PUSH2 0x367 JUMP JUMPDEST PUSH2 0x558 DUP5 DUP5 DUP5 DUP5 SUB PUSH2 0x3C0 JUMP JUMPDEST POP POP POP POP JUMP JUMPDEST PUSH1 0x1 PUSH1 0x1 PUSH1 0xA0 SHL SUB DUP4 AND PUSH2 0x5C2 JUMPI PUSH1 0x40 MLOAD PUSH3 0x461BCD PUSH1 0xE5 SHL DUP2 MSTORE PUSH1 0x20 PUSH1 0x4 DUP3 ADD MSTORE PUSH1 0x25 PUSH1 0x24 DUP3 ADD MSTORE PUSH32 0x45524332303A207472616E736665722066726F6D20746865207A65726F206164 PUSH1 0x44 DUP3 ADD MSTORE PUSH5 0x6472657373 PUSH1 0xD8 SHL PUSH1 0x64 DUP3 ADD MSTORE PUSH1 0x84 ADD PUSH2 0x367 JUMP JUMPDEST PUSH1 0x1 PUSH1 0x1 PUSH1 0xA0 SHL SUB DUP3 AND PUSH2 0x624 JUMPI PUSH1 0x40 MLOAD PUSH3 0x461BCD PUSH1 0xE5 SHL DUP2 MSTORE PUSH1 0x20 PUSH1 0x4 DUP3 ADD MSTORE PUSH1 0x23 PUSH1 0x24 DUP3 ADD MSTORE PUSH32 0x45524332303A207472616E7366657220746F20746865207A65726F2061646472 PUSH1 0x44 DUP3 ADD MSTORE PUSH3 0x657373 PUSH1 0xE8 SHL PUSH1 0x64 DUP3 ADD MSTORE PUSH1 0x84 ADD PUSH2 0x367 JUMP JUMPDEST PUSH1 0x1 PUSH1 0x1 PUSH1 0xA0 SHL SUB DUP4 AND PUSH1 0x0 SWAP1 DUP2 MSTORE PUSH1 0x20 DUP2 SWAP1 MSTORE PUSH1 0x40 SWAP1 KECCAK256 SLOAD DUP2 DUP2 LT ISZERO PUSH2 0x69C JUMPI PUSH1 0x40 MLOAD PUSH3 0x461BCD PUSH1 0xE5 SHL DUP2 MSTORE PUSH1 0x20 PUSH1 0x4 DUP3 ADD MSTORE PUSH1 0x26 PUSH1 0x24 DUP3 ADD MSTORE PUSH32 0x45524332303A207472616E7366657220616D6F756E7420657863656564732062 PUSH1 0x44 DUP3 ADD MSTORE PUSH6 0x616C616E6365 PUSH1 0xD0 SHL PUSH1 0x64 DUP3 ADD MSTORE PUSH1 0x84 ADD PUSH2 0x367 JUMP JUMPDEST PUSH1 0x1 PUSH1 0x1 PUSH1 0xA0 SHL SUB DUP5 DUP2 AND PUSH1 0x0 DUP2 DUP2 MSTORE PUSH1 0x20 DUP2 DUP2 MSTORE PUSH1 0x40 DUP1 DUP4 KECCAK256 DUP8 DUP8 SUB SWAP1 SSTORE SWAP4 DUP8 AND DUP1 DUP4 MSTORE SWAP2 DUP5 SWAP1 KECCAK256 DUP1 SLOAD DUP8 ADD SWAP1 SSTORE SWAP3 MLOAD DUP6 DUP2 MSTORE SWAP1 SWAP3 PUSH32 0xDDF252AD1BE2C89B69C2B068FC378DAA952BA7F163C4A11628F55A4DF523B3EF SWAP2 ADD PUSH1 0x40 MLOAD DUP1 SWAP2 SUB SWAP1 LOG3 PUSH2 0x558 JUMP JUMPDEST PUSH1 0x1 PUSH1 0x1 PUSH1 0xA0 SHL SUB DUP3 AND PUSH2 0x758 JUMPI PUSH1 0x40 MLOAD PUSH3 0x461BCD PUSH1 0xE5 SHL DUP2 MSTORE PUSH1 0x20 PUSH1 0x4 DUP3 ADD MSTORE PUSH1 0x1F PUSH1 0x24 DUP3 ADD MSTORE PUSH32 0x45524332303A206D696E7420746F20746865207A65726F206164647265737300 PUSH1 0x44 DUP3 ADD MSTORE PUSH1 0x64 ADD PUSH2 0x367 JUMP JUMPDEST DUP1 PUSH1 0x2 PUSH1 0x0 DUP3 DUP3 SLOAD PUSH2 0x76A SWAP2 SWAP1 PUSH2 0x920 JUMP JUMPDEST SWAP1 SWAP2 SSTORE POP POP PUSH1 0x1 PUSH1 0x1 PUSH1 0xA0 SHL SUB DUP3 AND PUSH1 0x0 DUP2 DUP2 MSTORE PUSH1 0x20 DUP2 DUP2 MSTORE PUSH1 0x40 DUP1 DUP4 KECCAK256 DUP1 SLOAD DUP7 ADD SWAP1 SSTORE MLOAD DUP5 DUP2 MSTORE PUSH32 0xDDF252AD1BE2C89B69C2B068FC378DAA952BA7F163C4A11628F55A4DF523B3EF SWAP2 ADD PUSH1 0x40 MLOAD DUP1 SWAP2 SUB SWAP1 LOG3 POP POP JUMP JUMPDEST PUSH1 0x0 PUSH1 0x20 DUP1 DUP4 MSTORE DUP4 MLOAD DUP1 DUP3 DUP6 ADD MSTORE PUSH1 0x0 JUMPDEST DUP2 DUP2 LT ISZERO PUSH2 0x7EE JUMPI DUP6 DUP2 ADD DUP4 ADD MLOAD DUP6 DUP3 ADD PUSH1 0x40 ADD MSTORE DUP3 ADD PUSH2 0x7D2 JUMP JUMPDEST POP PUSH1 0x0 PUSH1 0x40 DUP3 DUP7 ADD ADD MSTORE PUSH1 0x40 PUSH1 0x1F NOT PUSH1 0x1F DUP4 ADD AND DUP6 ADD ADD SWAP3 POP POP POP SWAP3 SWAP2 POP POP JUMP JUMPDEST DUP1 CALLDATALOAD PUSH1 0x1 PUSH1 0x1 PUSH1 0xA0 SHL SUB DUP2 AND DUP2 EQ PUSH2 0x826 JUMPI PUSH1 0x0 DUP1 REVERT JUMPDEST SWAP2 SWAP1 POP JUMP JUMPDEST PUSH1 0x0 DUP1 PUSH1 0x40 DUP4 DUP6 SUB SLT ISZERO PUSH2 0x83E JUMPI PUSH1 0x0 DUP1 REVERT JUMPDEST PUSH2 0x847 DUP4 PUSH2 0x80F JUMP JUMPDEST SWAP5 PUSH1 0x20 SWAP4 SWAP1 SWAP4 ADD CALLDATALOAD SWAP4 POP POP POP JUMP JUMPDEST PUSH1 0x0 DUP1 PUSH1 0x0 PUSH1 0x60 DUP5 DUP7 SUB SLT ISZERO PUSH2 0x86A JUMPI PUSH1 0x0 DUP1 REVERT JUMPDEST PUSH2 0x873 DUP5 PUSH2 0x80F JUMP JUMPDEST SWAP3 POP PUSH2 0x881 PUSH1 0x20 DUP6 ADD PUSH2 0x80F JUMP JUMPDEST SWAP2 POP PUSH1 0x40 DUP5 ADD CALLDATALOAD SWAP1 POP SWAP3 POP SWAP3 POP SWAP3 JUMP JUMPDEST PUSH1 0x0 PUSH1 0x20 DUP3 DUP5 SUB SLT ISZERO PUSH2 0x8A3 JUMPI PUSH1 0x0 DUP1 REVERT JUMPDEST PUSH2 0x8AC DUP3 PUSH2 0x80F JUMP JUMPDEST SWAP4 SWAP3 POP POP POP JUMP JUMPDEST PUSH1 0x0 DUP1 PUSH1 0x40 DUP4 DUP6 SUB SLT ISZERO PUSH2 0x8C6 JUMPI PUSH1 0x0 DUP1 REVERT JUMPDEST PUSH2 0x8CF DUP4 PUSH2 0x80F JUMP JUMPDEST SWAP2 POP PUSH2 0x8DD PUSH1 0x20 DUP5 ADD PUSH2 0x80F JUMP JUMPDEST SWAP1 POP SWAP3 POP SWAP3 SWAP1 POP JUMP JUMPDEST PUSH1 0x1 DUP2 DUP2 SHR SWAP1 DUP3 AND DUP1 PUSH2 0x8FA JUMPI PUSH1 0x7F DUP3 AND SWAP2 POP JUMPDEST PUSH1 0x20 DUP3 LT DUP2 SUB PUSH2 0x91A JUMPI PUSH4 0x4E487B71 PUSH1 0xE0 SHL PUSH1 0x0 MSTORE PUSH1 0x22 PUSH1 0x4 MSTORE PUSH1 0x24 PUSH1 0x0 REVERT JUMPDEST POP SWAP2 SWAP1 POP JUMP JUMPDEST DUP1 DUP3 ADD DUP1 DUP3 GT ISZERO PUSH2 0x294 JUMPI PUSH4 0x4E487B71 PUSH1 0xE0 SHL PUSH1 0x0 MSTORE PUSH1 0x11 PUSH1 0x4 MSTORE PUSH1 0x24 PUSH1 0x0 REVERT INVALID LOG2 PUSH5 0x6970667358 0x22 SLT KECCAK256 DUP9 LOG1 0xB7 0xE9 0xE7 0xCE NUMBER DUP13 TIMESTAMP DUP11 SGT 0xF8 CREATE CREATE 0xC5 0xC3 0xAC BLOCKHASH EXTCODECOPY PUSH32 0x3EEFAB87C951E6D8D242B54064736F6C63430008140033000000000000000000 "
				},
				"gasEstimates": {
					"creation": {
						"codeDepositCost": "484600",
						"executionCost": "infinite",
						"totalCost": "infinite"
					},
					"external": {
						"PublicMint(address,uint256)": "50850",
						"allowance(address,address)": "infinite",
						"approve(address,address,uint256)": "infinite",
						"approve(address,uint256)": "24628",
						"balanceOf(address)": "2563",
						"decimals()": "266",
						"decreaseAllowance(address,uint256)": "26972",
						"increaseAllowance(address,uint256)": "infinite",
						"name()": "infinite",
						"symbol()": "infinite",
						"totalSupply()": "2326",
						"transfer(address,uint256)": "51094",
						"transferFrom(address,address,uint256)": "infinite"
					}
				},
				"methodIdentifiers": {
					"PublicMint(address,uint256)": "748a2986",
					"allowance(address,address)": "dd62ed3e",
					"approve(address,address,uint256)": "e1f21c67",
					"approve(address,uint256)": "095ea7b3",
					"balanceOf(address)": "70a08231",
					"decimals()": "313ce567",
					"decreaseAllowance(address,uint256)": "a457c2d7",
					"increaseAllowance(address,uint256)": "39509351",
					"name()": "06fdde03",
					"symbol()": "95d89b41",
					"totalSupply()": "18160ddd",
					"transfer(address,uint256)": "a9059cbb",
					"transferFrom(address,address,uint256)": "23b872dd"
				}
			},
			"storageLayout": {
				"storage": [
					{
						"astId": 80,
						"contract": "Custom-Dex/DexNoStruct/erc-20.sol:erc20token",
						"label": "_balances",
						"offset": 0,
						"slot": "0",
						"type": "t_mapping(t_address,t_uint256)"
					},
					{
						"astId": 86,
						"contract": "Custom-Dex/DexNoStruct/erc-20.sol:erc20token",
						"label": "_allowances",
						"offset": 0,
						"slot": "1",
						"type": "t_mapping(t_address,t_mapping(t_address,t_uint256))"
					},
					{
						"astId": 88,
						"contract": "Custom-Dex/DexNoStruct/erc-20.sol:erc20token",
						"label": "_totalSupply",
						"offset": 0,
						"slot": "2",
						"type": "t_uint256"
					},
					{
						"astId": 90,
						"contract": "Custom-Dex/DexNoStruct/erc-20.sol:erc20token",
						"label": "_name",
						"offset": 0,
						"slot": "3",
						"type": "t_string_storage"
					},
					{
						"astId": 92,
						"contract": "Custom-Dex/DexNoStruct/erc-20.sol:erc20token",
						"label": "_symbol",
						"offset": 0,
						"slot": "4",
						"type": "t_string_storage"
					}
				],
				"types": {
					"t_address": {
						"encoding": "inplace",
						"label": "address",
						"numberOfBytes": "20"
					},
					"t_mapping(t_address,t_mapping(t_address,t_uint256))": {
						"encoding": "mapping",
						"key": "t_address",
						"label": "mapping(address => mapping(address => uint256))",
						"numberOfBytes": "32",
						"value": "t_mapping(t_address,t_uint256)"
					},
					"t_mapping(t_address,t_uint256)": {
						"encoding": "mapping",
						"key": "t_address",
						"label": "mapping(address => uint256)",
						"numberOfBytes": "32",
						"value": "t_uint256"
					},
					"t_string_storage": {
						"encoding": "bytes",
						"label": "string",
						"numberOfBytes": "32"
					},
					"t_uint256": {
						"encoding": "inplace",
						"label": "uint256",
						"numberOfBytes": "32"
					}
				}
			},
			"userdoc": {
				"kind": "user",
				"methods": {},
				"version": 1
			}
		}
	}
}