{
	"data": {
		"bytecode": {
			"linkReferences": {},
			"object": "60a06040523073ffffffffffffffffffffffffffffffffffffffff1660809073ffffffffffffffffffffffffffffffffffffffff1681525034801561004357600080fd5b5061005261005760201b60201c565b6101c1565b600061006761015b60201b60201c565b90508060000160089054906101000a900460ff16156100b2576040517ff92ee8a900000000000000000000000000000000000000000000000000000000815260040160405180910390fd5b67ffffffffffffffff80168160000160009054906101000a900467ffffffffffffffff1667ffffffffffffffff16146101585767ffffffffffffffff8160000160006101000a81548167ffffffffffffffff021916908367ffffffffffffffff1602179055507fc7f505b2f371ae2175ee4913f4499e1f2633a7b5936321eed1cdaeb6115181d267ffffffffffffffff60405161014f91906101a6565b60405180910390a15b50565b60007ff0c57e16840df040f15088dc2f81fe391c3923bec73e23a9662efc9c229c6a00905090565b600067ffffffffffffffff82169050919050565b6101a081610183565b82525050565b60006020820190506101bb6000830184610197565b92915050565b608051613a8d6101ea60003960008181611902015281816119570152611b120152613a8d6000f3fe60806040526004361061019c5760003560e01c8063715018a6116100ec578063ad3cb1cc1161008a578063dbac26e911610064578063dbac26e914610583578063dd62ed3e146105c0578063f2fde38b146105fd578063fe575a87146106265761019c565b8063ad3cb1cc14610504578063b119490e1461052f578063c66e4095146105585761019c565b80638da5cb5b116100c65780638da5cb5b1461043457806395d89b411461045f5780639bc289f11461048a578063a9059cbb146104c75761019c565b8063715018a6146103dd5780638456cb59146103f457806388d695b21461040b5761019c565b8063313ce567116101595780634f1ef286116101335780634f1ef2861461032e57806352d1902d1461034a5780635c975abb1461037557806370a08231146103a05761019c565b8063313ce567146102c35780633e579307146102ee5780633f4ba83a146103175761019c565b806306fdde03146101a1578063095ea7b3146101cc578063153b0d1e1461020957806318160ddd1461023257806323b872dd1461025d5780632e0d2a001461029a575b600080fd5b3480156101ad57600080fd5b506101b6610663565b6040516101c3919061290e565b60405180910390f35b3480156101d857600080fd5b506101f360048036038101906101ee91906129d8565b610704565b6040516102009190612a33565b60405180910390f35b34801561021557600080fd5b50610230600480360381019061022b9190612a7a565b610727565b005b34801561023e57600080fd5b50610247610847565b6040516102549190612ac9565b60405180910390f35b34801561026957600080fd5b50610284600480360381019061027f9190612ae4565b61085f565b6040516102919190612a33565b60405180910390f35b3480156102a657600080fd5b506102c160048036038101906102bc9190612b37565b610aa6565b005b3480156102cf57600080fd5b506102d8610c02565b6040516102e59190612b80565b60405180910390f35b3480156102fa57600080fd5b50610315600480360381019061031091906129d8565b610c0b565b005b34801561032357600080fd5b5061032c610de7565b005b61034860048036038101906103439190612cd0565b610df9565b005b34801561035657600080fd5b5061035f610e18565b60405161036c9190612d45565b60405180910390f35b34801561038157600080fd5b5061038a610e4b565b6040516103979190612a33565b60405180910390f35b3480156103ac57600080fd5b506103c760048036038101906103c29190612b37565b610e61565b6040516103d49190612ac9565b60405180910390f35b3480156103e957600080fd5b506103f2610eb8565b005b34801561040057600080fd5b50610409610ecc565b005b34801561041757600080fd5b50610432600480360381019061042d9190612e16565b610ede565b005b34801561044057600080fd5b50610449611055565b6040516104569190612ea6565b60405180910390f35b34801561046b57600080fd5b5061047461108d565b604051610481919061290e565b60405180910390f35b34801561049657600080fd5b506104b160048036038101906104ac9190612b37565b61112e565b6040516104be9190612ac9565b60405180910390f35b3480156104d357600080fd5b506104ee60048036038101906104e991906129d8565b611146565b6040516104fb9190612a33565b60405180910390f35b34801561051057600080fd5b5061051961138b565b604051610526919061290e565b60405180910390f35b34801561053b57600080fd5b5061055660048036038101906105519190612f62565b6113c4565b005b34801561056457600080fd5b5061056d611582565b60405161057a9190612ea6565b60405180910390f35b34801561058f57600080fd5b506105aa60048036038101906105a59190612b37565b6115a8565b6040516105b79190612a33565b60405180910390f35b3480156105cc57600080fd5b506105e760048036038101906105e29190612fed565b6115c8565b6040516105f49190612ac9565b60405180910390f35b34801561060957600080fd5b50610624600480360381019061061f9190612b37565b61165d565b005b34801561063257600080fd5b5061064d60048036038101906106489190612b37565b6116e3565b60405161065a9190612a33565b60405180910390f35b6060600061066f611739565b90508060030180546106809061305c565b80601f01602080910402602001604051908101604052809291908181526020018280546106ac9061305c565b80156106f95780601f106106ce576101008083540402835291602001916106f9565b820191906000526020600020905b8154815290600101906020018083116106dc57829003601f168201915b505050505091505090565b60008061070f611761565b905061071c818585611769565b600191505092915050565b61072f61177b565b600073ffffffffffffffffffffffffffffffffffffffff168273ffffffffffffffffffffffffffffffffffffffff160361079e576040517f08c379a0000000000000000000000000000000000000000000000000000000008152600401610795906130d9565b60405180910390fd5b80603560008473ffffffffffffffffffffffffffffffffffffffff1673ffffffffffffffffffffffffffffffffffffffff16815260200190815260200160002060006101000a81548160ff0219169083151502179055508173ffffffffffffffffffffffffffffffffffffffff167fcf3473b85df1594d47b6958f29a32bea0abff9dd68296f7bf33443646793cfd88260405161083b9190612a33565b60405180910390a25050565b600080610852611739565b9050806002015491505090565b6000610869611802565b603560008573ffffffffffffffffffffffffffffffffffffffff1673ffffffffffffffffffffffffffffffffffffffff16815260200190815260200160002060009054906101000a900460ff16156108f6576040517f08c379a00000000000000000000000000000000000000000000000000000000081526004016108ed9061316b565b60405180910390fd5b603560008473ffffffffffffffffffffffffffffffffffffffff1673ffffffffffffffffffffffffffffffffffffffff16815260200190815260200160002060009054906101000a900460ff1615610983576040517f08c379a000000000000000000000000000000000000000000000000000000000815260040161097a906131fd565b60405180910390fd5b600082116109c6576040517f08c379a00000000000000000000000000000000000000000000000000000000081526004016109bd90613269565b60405180910390fd5b603460008573ffffffffffffffffffffffffffffffffffffffff1673ffffffffffffffffffffffffffffffffffffffff1681526020019081526020016000205442101580610a5357506000603460008673ffffffffffffffffffffffffffffffffffffffff1673ffffffffffffffffffffffffffffffffffffffff16815260200190815260200160002054145b610a92576040517f08c379a0000000000000000000000000000000000000000000000000000000008152600401610a89906132fb565b60405180910390fd5b610a9d84848461184c565b90509392505050565b610aae61177b565b600073ffffffffffffffffffffffffffffffffffffffff168173ffffffffffffffffffffffffffffffffffffffff1603610b1d576040517f08c379a0000000000000000000000000000000000000000000000000000000008152600401610b14906130d9565b60405180910390fd5b610b3c8173ffffffffffffffffffffffffffffffffffffffff1661187b565b610b7b576040517f08c379a0000000000000000000000000000000000000000000000000000000008152600401610b7290613367565b60405180910390fd5b80603260006101000a81548173ffffffffffffffffffffffffffffffffffffffff021916908373ffffffffffffffffffffffffffffffffffffffff1602179055508073ffffffffffffffffffffffffffffffffffffffff167fe7bbfbbf7e7948988eb7f8904da938aff02a23b8b28fcee206be4d4b3edd9ad860405160405180910390a250565b60006012905090565b603260009054906101000a900473ffffffffffffffffffffffffffffffffffffffff1673ffffffffffffffffffffffffffffffffffffffff163373ffffffffffffffffffffffffffffffffffffffff1614610c9b576040517f08c379a0000000000000000000000000000000000000000000000000000000008152600401610c92906133d3565b60405180910390fd5b600073ffffffffffffffffffffffffffffffffffffffff168273ffffffffffffffffffffffffffffffffffffffff1603610d0a576040517f08c379a0000000000000000000000000000000000000000000000000000000008152600401610d01906130d9565b60405180910390fd5b80603460008473ffffffffffffffffffffffffffffffffffffffff1673ffffffffffffffffffffffffffffffffffffffff1681526020019081526020016000205414610de35780603460008473ffffffffffffffffffffffffffffffffffffffff1673ffffffffffffffffffffffffffffffffffffffff168152602001908152602001600020819055508173ffffffffffffffffffffffffffffffffffffffff167f611cdbea265cb87ef40e17c595bad009182b4db741622f7848e344c15451de2f82604051610dda9190612ac9565b60405180910390a25b5050565b610def61177b565b610df761189e565b565b610e01611900565b610e0a826119e6565b610e1482826119f1565b5050565b6000610e22611b10565b7f360894a13ba1a3210667c828492db98dca3e2076cc3735a920a3ca505d382bbc60001b905090565b60008060009054906101000a900460ff16905090565b600080610e6c611739565b90508060000160008473ffffffffffffffffffffffffffffffffffffffff1673ffffffffffffffffffffffffffffffffffffffff16815260200190815260200160002054915050919050565b610ec061177b565b610eca6000611b97565b565b610ed461177b565b610edc611c6e565b565b610ee6611802565b818190508484905014610f2e576040517f08c379a0000000000000000000000000000000000000000000000000000000008152600401610f2590613465565b60405180910390fd5b600084849050905060005b8181101561104d5760356000878784818110610f5857610f57613485565b5b9050602002016020810190610f6d9190612b37565b73ffffffffffffffffffffffffffffffffffffffff1673ffffffffffffffffffffffffffffffffffffffff16815260200190815260200160002060009054906101000a900460ff1615610ff5576040517f08c379a0000000000000000000000000000000000000000000000000000000008152600401610fec90613526565b60405180910390fd5b6110403387878481811061100c5761100b613485565b5b90506020020160208101906110219190612b37565b86868581811061103457611033613485565b5b90506020020135611cd0565b8080600101915050610f39565b505050505050565b600080611060611dc4565b90508060000160009054906101000a900473ffffffffffffffffffffffffffffffffffffffff1691505090565b60606000611099611739565b90508060040180546110aa9061305c565b80601f01602080910402602001604051908101604052809291908181526020018280546110d69061305c565b80156111235780601f106110f857610100808354040283529160200191611123565b820191906000526020600020905b81548152906001019060200180831161110657829003601f168201915b505050505091505090565b60346020528060005260406000206000915090505481565b6000611150611802565b603560003373ffffffffffffffffffffffffffffffffffffffff1673ffffffffffffffffffffffffffffffffffffffff16815260200190815260200160002060009054906101000a900460ff16156111dd576040517f08c379a00000000000000000000000000000000000000000000000000000000081526004016111d49061316b565b60405180910390fd5b603560008473ffffffffffffffffffffffffffffffffffffffff1673ffffffffffffffffffffffffffffffffffffffff16815260200190815260200160002060009054906101000a900460ff161561126a576040517f08c379a0000000000000000000000000000000000000000000000000000000008152600401611261906131fd565b60405180910390fd5b600082116112ad576040517f08c379a00000000000000000000000000000000000000000000000000000000081526004016112a490613269565b60405180910390fd5b603460003373ffffffffffffffffffffffffffffffffffffffff1673ffffffffffffffffffffffffffffffffffffffff168152602001908152602001600020544210158061133a57506000603460003373ffffffffffffffffffffffffffffffffffffffff1673ffffffffffffffffffffffffffffffffffffffff16815260200190815260200160002054145b611379576040517f08c379a0000000000000000000000000000000000000000000000000000000008152600401611370906132fb565b60405180910390fd5b6113838383611dec565b905092915050565b6040518060400160405280600581526020017f352e302e3000000000000000000000000000000000000000000000000000000081525081565b60006113ce611e0f565b905060008160000160089054906101000a900460ff1615905060008260000160009054906101000a900467ffffffffffffffff1690506000808267ffffffffffffffff1614801561141c5750825b9050600060018367ffffffffffffffff16148015611451575060003073ffffffffffffffffffffffffffffffffffffffff163b145b90508115801561145f575080155b15611496576040517ff92ee8a900000000000000000000000000000000000000000000000000000000815260040160405180910390fd5b60018560000160006101000a81548167ffffffffffffffff021916908367ffffffffffffffff16021790555083156114e65760018560000160086101000a81548160ff0219169083151502179055505b6114f08888611e37565b6114f933611e4d565b611501611e61565b611509611e73565b8560338190555061151c33603354611e7d565b83156115785760008560000160086101000a81548160ff0219169083151502179055507fc7f505b2f371ae2175ee4913f4499e1f2633a7b5936321eed1cdaeb6115181d2600160405161156f919061359f565b60405180910390a15b5050505050505050565b603260009054906101000a900473ffffffffffffffffffffffffffffffffffffffff1681565b60356020528060005260406000206000915054906101000a900460ff1681565b6000806115d3611739565b90508060010160008573ffffffffffffffffffffffffffffffffffffffff1673ffffffffffffffffffffffffffffffffffffffff16815260200190815260200160002060008473ffffffffffffffffffffffffffffffffffffffff1673ffffffffffffffffffffffffffffffffffffffff1681526020019081526020016000205491505092915050565b61166561177b565b600073ffffffffffffffffffffffffffffffffffffffff168173ffffffffffffffffffffffffffffffffffffffff16036116d75760006040517f1e4fbdf70000000000000000000000000000000000000000000000000000000081526004016116ce9190612ea6565b60405180910390fd5b6116e081611b97565b50565b6000603560008373ffffffffffffffffffffffffffffffffffffffff1673ffffffffffffffffffffffffffffffffffffffff16815260200190815260200160002060009054906101000a900460ff169050919050565b60007f52c63247e1f47db19d5ce0460030c497f067ca4cebf71ba98eeadabe20bace00905090565b600033905090565b6117768383836001611eff565b505050565b611783611761565b73ffffffffffffffffffffffffffffffffffffffff166117a1611055565b73ffffffffffffffffffffffffffffffffffffffff1614611800576117c4611761565b6040517f118cdaa70000000000000000000000000000000000000000000000000000000081526004016117f79190612ea6565b60405180910390fd5b565b61180a610e4b565b1561184a576040517f08c379a000000000000000000000000000000000000000000000000000000000815260040161184190613606565b60405180910390fd5b565b600080611857611761565b90506118648582856120e5565b61186f858585611cd0565b60019150509392505050565b6000808273ffffffffffffffffffffffffffffffffffffffff163b119050919050565b6118a6612179565b60008060006101000a81548160ff0219169083151502179055507f5db9ee0a495bf2e6ff9c91a7834c1ba4fdd244a5e8aa4e537bd38aeae4b073aa6118e9611761565b6040516118f69190612ea6565b60405180910390a1565b7f000000000000000000000000000000000000000000000000000000000000000073ffffffffffffffffffffffffffffffffffffffff163073ffffffffffffffffffffffffffffffffffffffff1614806119ad57507f000000000000000000000000000000000000000000000000000000000000000073ffffffffffffffffffffffffffffffffffffffff166119946121c2565b73ffffffffffffffffffffffffffffffffffffffff1614155b156119e4576040517fe07c8dba00000000000000000000000000000000000000000000000000000000815260040160405180910390fd5b565b6119ee61177b565b50565b8173ffffffffffffffffffffffffffffffffffffffff166352d1902d6040518163ffffffff1660e01b8152600401602060405180830381865afa925050508015611a5957506040513d601f19601f82011682018060405250810190611a569190613652565b60015b611a9a57816040517f4c9c8ce3000000000000000000000000000000000000000000000000000000008152600401611a919190612ea6565b60405180910390fd5b7f360894a13ba1a3210667c828492db98dca3e2076cc3735a920a3ca505d382bbc60001b8114611b0157806040517faa1d49a4000000000000000000000000000000000000000000000000000000008152600401611af89190612d45565b60405180910390fd5b611b0b8383612219565b505050565b7f000000000000000000000000000000000000000000000000000000000000000073ffffffffffffffffffffffffffffffffffffffff163073ffffffffffffffffffffffffffffffffffffffff1614611b95576040517fe07c8dba00000000000000000000000000000000000000000000000000000000815260040160405180910390fd5b565b6000611ba1611dc4565b905060008160000160009054906101000a900473ffffffffffffffffffffffffffffffffffffffff169050828260000160006101000a81548173ffffffffffffffffffffffffffffffffffffffff021916908373ffffffffffffffffffffffffffffffffffffffff1602179055508273ffffffffffffffffffffffffffffffffffffffff168173ffffffffffffffffffffffffffffffffffffffff167f8be0079c531659141344cd1fd0a4f28419497f9722a3daafe3b4186f6b6457e060405160405180910390a3505050565b611c76611802565b60016000806101000a81548160ff0219169083151502179055507f62e78cea01bee320cd4e420270b5ea74000d11b0c9f74754ebdbfc544b05a258611cb9611761565b604051611cc69190612ea6565b60405180910390a1565b600073ffffffffffffffffffffffffffffffffffffffff168373ffffffffffffffffffffffffffffffffffffffff1603611d425760006040517f96c6fd1e000000000000000000000000000000000000000000000000000000008152600401611d399190612ea6565b60405180910390fd5b600073ffffffffffffffffffffffffffffffffffffffff168273ffffffffffffffffffffffffffffffffffffffff1603611db45760006040517fec442f05000000000000000000000000000000000000000000000000000000008152600401611dab9190612ea6565b60405180910390fd5b611dbf83838361228c565b505050565b60007f9016d09d72d40fdae2fd8ceac6b6234c7706214fd39c1cd1e609a0528c199300905090565b600080611df7611761565b9050611e04818585611cd0565b600191505092915050565b60007ff0c57e16840df040f15088dc2f81fe391c3923bec73e23a9662efc9c229c6a00905090565b611e3f6124cb565b611e49828261250b565b5050565b611e556124cb565b611e5e81612548565b50565b611e696124cb565b611e716125ce565b565b611e7b6124cb565b565b600073ffffffffffffffffffffffffffffffffffffffff168273ffffffffffffffffffffffffffffffffffffffff1603611eef5760006040517fec442f05000000000000000000000000000000000000000000000000000000008152600401611ee69190612ea6565b60405180910390fd5b611efb6000838361228c565b5050565b6000611f09611739565b9050600073ffffffffffffffffffffffffffffffffffffffff168573ffffffffffffffffffffffffffffffffffffffff1603611f7d5760006040517fe602df05000000000000000000000000000000000000000000000000000000008152600401611f749190612ea6565b60405180910390fd5b600073ffffffffffffffffffffffffffffffffffffffff168473ffffffffffffffffffffffffffffffffffffffff1603611fef5760006040517f94280d62000000000000000000000000000000000000000000000000000000008152600401611fe69190612ea6565b60405180910390fd5b828160010160008773ffffffffffffffffffffffffffffffffffffffff1673ffffffffffffffffffffffffffffffffffffffff16815260200190815260200160002060008673ffffffffffffffffffffffffffffffffffffffff1673ffffffffffffffffffffffffffffffffffffffff1681526020019081526020016000208190555081156120de578373ffffffffffffffffffffffffffffffffffffffff168573ffffffffffffffffffffffffffffffffffffffff167f8c5be1e5ebec7d5bd14f71427d1e84f3dd0314c0f7b2291e5b200ac8c7c3b925856040516120d59190612ac9565b60405180910390a35b5050505050565b60006120f184846115c8565b90507fffffffffffffffffffffffffffffffffffffffffffffffffffffffffffffffff81146121735781811015612163578281836040517ffb8f41b200000000000000000000000000000000000000000000000000000000815260040161215a9392919061367f565b60405180910390fd5b61217284848484036000611eff565b5b50505050565b612181610e4b565b6121c0576040517f08c379a00000000000000000000000000000000000000000000000000000000081526004016121b790613702565b60405180910390fd5b565b60006121f07f360894a13ba1a3210667c828492db98dca3e2076cc3735a920a3ca505d382bbc60001b6125f2565b60000160009054906101000a900473ffffffffffffffffffffffffffffffffffffffff16905090565b612222826125fc565b8173ffffffffffffffffffffffffffffffffffffffff167fbc7cd75a20ee27fd9adebab32041f755214dbc6bffa90cc0225b39da2e5c2d3b60405160405180910390a260008151111561227f5761227982826126c9565b50612288565b61228761274d565b5b5050565b6000612296611739565b9050600073ffffffffffffffffffffffffffffffffffffffff168473ffffffffffffffffffffffffffffffffffffffff16036122ec57818160020160008282546122e09190613751565b925050819055506123c5565b60008160000160008673ffffffffffffffffffffffffffffffffffffffff1673ffffffffffffffffffffffffffffffffffffffff1681526020019081526020016000205490508281101561237b578481846040517fe450d38c0000000000000000000000000000000000000000000000000000000081526004016123729392919061367f565b60405180910390fd5b8281038260000160008773ffffffffffffffffffffffffffffffffffffffff1673ffffffffffffffffffffffffffffffffffffffff16815260200190815260200160002081905550505b600073ffffffffffffffffffffffffffffffffffffffff168373ffffffffffffffffffffffffffffffffffffffff160361241057818160020160008282540392505081905550612460565b818160000160008573ffffffffffffffffffffffffffffffffffffffff1673ffffffffffffffffffffffffffffffffffffffff168152602001908152602001600020600082825401925050819055505b8273ffffffffffffffffffffffffffffffffffffffff168473ffffffffffffffffffffffffffffffffffffffff167fddf252ad1be2c89b69c2b068fc378daa952ba7f163c4a11628f55a4df523b3ef846040516124bd9190612ac9565b60405180910390a350505050565b6124d361278a565b612509576040517fd7e6bcf800000000000000000000000000000000000000000000000000000000815260040160405180910390fd5b565b6125136124cb565b600061251d611739565b9050828160030190816125309190613927565b50818160040190816125429190613927565b50505050565b6125506124cb565b600073ffffffffffffffffffffffffffffffffffffffff168173ffffffffffffffffffffffffffffffffffffffff16036125c25760006040517f1e4fbdf70000000000000000000000000000000000000000000000000000000081526004016125b99190612ea6565b60405180910390fd5b6125cb81611b97565b50565b6125d66124cb565b60008060006101000a81548160ff021916908315150217905550565b6000819050919050565b60008173ffffffffffffffffffffffffffffffffffffffff163b0361265857806040517f4c9c8ce300000000000000000000000000000000000000000000000000000000815260040161264f9190612ea6565b60405180910390fd5b806126857f360894a13ba1a3210667c828492db98dca3e2076cc3735a920a3ca505d382bbc60001b6125f2565b60000160006101000a81548173ffffffffffffffffffffffffffffffffffffffff021916908373ffffffffffffffffffffffffffffffffffffffff16021790555050565b60606000808473ffffffffffffffffffffffffffffffffffffffff16846040516126f39190613a40565b600060405180830381855af49150503d806000811461272e576040519150601f19603f3d011682016040523d82523d6000602084013e612733565b606091505b50915091506127438583836127aa565b9250505092915050565b6000341115612788576040517fb398979f00000000000000000000000000000000000000000000000000000000815260040160405180910390fd5b565b6000612794611e0f565b60000160089054906101000a900460ff16905090565b6060826127bf576127ba82612839565b612831565b600082511480156127e7575060008473ffffffffffffffffffffffffffffffffffffffff163b145b1561282957836040517f9996b3150000000000000000000000000000000000000000000000000000000081526004016128209190612ea6565b60405180910390fd5b819050612832565b5b9392505050565b60008151111561284c5780518082602001fd5b6040517fd6bda27500000000000000000000000000000000000000000000000000000000815260040160405180910390fd5b600081519050919050565b600082825260208201905092915050565b60005b838110156128b857808201518184015260208101905061289d565b60008484015250505050565b6000601f19601f8301169050919050565b60006128e08261287e565b6128ea8185612889565b93506128fa81856020860161289a565b612903816128c4565b840191505092915050565b6000602082019050818103600083015261292881846128d5565b905092915050565b6000604051905090565b600080fd5b600080fd5b600073ffffffffffffffffffffffffffffffffffffffff82169050919050565b600061296f82612944565b9050919050565b61297f81612964565b811461298a57600080fd5b50565b60008135905061299c81612976565b92915050565b6000819050919050565b6129b5816129a2565b81146129c057600080fd5b50565b6000813590506129d2816129ac565b92915050565b600080604083850312156129ef576129ee61293a565b5b60006129fd8582860161298d565b9250506020612a0e858286016129c3565b9150509250929050565b60008115159050919050565b612a2d81612a18565b82525050565b6000602082019050612a486000830184612a24565b92915050565b612a5781612a18565b8114612a6257600080fd5b50565b600081359050612a7481612a4e565b92915050565b60008060408385031215612a9157612a9061293a565b5b6000612a9f8582860161298d565b9250506020612ab085828601612a65565b9150509250929050565b612ac3816129a2565b82525050565b6000602082019050612ade6000830184612aba565b92915050565b600080600060608486031215612afd57612afc61293a565b5b6000612b0b8682870161298d565b9350506020612b1c8682870161298d565b9250506040612b2d868287016129c3565b9150509250925092565b600060208284031215612b4d57612b4c61293a565b5b6000612b5b8482850161298d565b91505092915050565b600060ff82169050919050565b612b7a81612b64565b82525050565b6000602082019050612b956000830184612b71565b92915050565b600080fd5b600080fd5b7f4e487b7100000000000000000000000000000000000000000000000000000000600052604160045260246000fd5b612bdd826128c4565b810181811067ffffffffffffffff82111715612bfc57612bfb612ba5565b5b80604052505050565b6000612c0f612930565b9050612c1b8282612bd4565b919050565b600067ffffffffffffffff821115612c3b57612c3a612ba5565b5b612c44826128c4565b9050602081019050919050565b82818337600083830152505050565b6000612c73612c6e84612c20565b612c05565b905082815260208101848484011115612c8f57612c8e612ba0565b5b612c9a848285612c51565b509392505050565b600082601f830112612cb757612cb6612b9b565b5b8135612cc7848260208601612c60565b91505092915050565b60008060408385031215612ce757612ce661293a565b5b6000612cf58582860161298d565b925050602083013567ffffffffffffffff811115612d1657612d1561293f565b5b612d2285828601612ca2565b9150509250929050565b6000819050919050565b612d3f81612d2c565b82525050565b6000602082019050612d5a6000830184612d36565b92915050565b600080fd5b600080fd5b60008083601f840112612d8057612d7f612b9b565b5b8235905067ffffffffffffffff811115612d9d57612d9c612d60565b5b602083019150836020820283011115612db957612db8612d65565b5b9250929050565b60008083601f840112612dd657612dd5612b9b565b5b8235905067ffffffffffffffff811115612df357612df2612d60565b5b602083019150836020820283011115612e0f57612e0e612d65565b5b9250929050565b60008060008060408587031215612e3057612e2f61293a565b5b600085013567ffffffffffffffff811115612e4e57612e4d61293f565b5b612e5a87828801612d6a565b9450945050602085013567ffffffffffffffff811115612e7d57612e7c61293f565b5b612e8987828801612dc0565b925092505092959194509250565b612ea081612964565b82525050565b6000602082019050612ebb6000830184612e97565b92915050565b600067ffffffffffffffff821115612edc57612edb612ba5565b5b612ee5826128c4565b9050602081019050919050565b6000612f05612f0084612ec1565b612c05565b905082815260208101848484011115612f2157612f20612ba0565b5b612f2c848285612c51565b509392505050565b600082601f830112612f4957612f48612b9b565b5b8135612f59848260208601612ef2565b91505092915050565b600080600060608486031215612f7b57612f7a61293a565b5b600084013567ffffffffffffffff811115612f9957612f9861293f565b5b612fa586828701612f34565b935050602084013567ffffffffffffffff811115612fc657612fc561293f565b5b612fd286828701612f34565b9250506040612fe3868287016129c3565b9150509250925092565b600080604083850312156130045761300361293a565b5b60006130128582860161298d565b92505060206130238582860161298d565b9150509250929050565b7f4e487b7100000000000000000000000000000000000000000000000000000000600052602260045260246000fd5b6000600282049050600182168061307457607f821691505b6020821081036130875761308661302d565b5b50919050565b7f4e756c6c20416464726573730000000000000000000000000000000000000000600082015250565b60006130c3600c83612889565b91506130ce8261308d565b602082019050919050565b600060208201905081810360008301526130f2816130b6565b9050919050565b7f5472616e73666572206661696c65643a2053656e64657220697320626c61636b60008201527f6c69737465640000000000000000000000000000000000000000000000000000602082015250565b6000613155602683612889565b9150613160826130f9565b604082019050919050565b6000602082019050818103600083015261318481613148565b9050919050565b7f5472616e73666572206661696c65643a20526563697069656e7420697320626c60008201527f61636b6c69737465640000000000000000000000000000000000000000000000602082015250565b60006131e7602983612889565b91506131f28261318b565b604082019050919050565b60006020820190508181036000830152613216816131da565b9050919050565b7f416d6f756e742073686f756c646e2774206265207a65726f0000000000000000600082015250565b6000613253601883612889565b915061325e8261321d565b602082019050919050565b6000602082019050818103600083015261328281613246565b9050919050565b7f5472616e73666572206661696c65643a20546f6b656e7320617265206c6f636b60008201527f6564000000000000000000000000000000000000000000000000000000000000602082015250565b60006132e5602283612889565b91506132f082613289565b604082019050919050565b60006020820190508181036000830152613314816132d8565b9050919050565b7f41646472657373206973206e6f74206120636f6e747261637400000000000000600082015250565b6000613351601983612889565b915061335c8261331b565b602082019050919050565b6000602082019050818103600083015261338081613344565b9050919050565b7f4e6f7420617574686f72697a6564000000000000000000000000000000000000600082015250565b60006133bd600e83612889565b91506133c882613387565b602082019050919050565b600060208201905081810360008301526133ec816133b0565b9050919050565b7f42617463685472616e73666572206661696c65643a204d69736d61746368656460008201527f2061727261797300000000000000000000000000000000000000000000000000602082015250565b600061344f602783612889565b915061345a826133f3565b604082019050919050565b6000602082019050818103600083015261347e81613442565b9050919050565b7f4e487b7100000000000000000000000000000000000000000000000000000000600052603260045260246000fd5b7f42617463685472616e73666572206661696c65643a20526563697069656e742060008201527f697320626c61636b6c6973746564000000000000000000000000000000000000602082015250565b6000613510602e83612889565b915061351b826134b4565b604082019050919050565b6000602082019050818103600083015261353f81613503565b9050919050565b6000819050919050565b600067ffffffffffffffff82169050919050565b6000819050919050565b600061358961358461357f84613546565b613564565b613550565b9050919050565b6135998161356e565b82525050565b60006020820190506135b46000830184613590565b92915050565b7f5061757361626c653a2070617573656400000000000000000000000000000000600082015250565b60006135f0601083612889565b91506135fb826135ba565b602082019050919050565b6000602082019050818103600083015261361f816135e3565b9050919050565b61362f81612d2c565b811461363a57600080fd5b50565b60008151905061364c81613626565b92915050565b6000602082840312156136685761366761293a565b5b60006136768482850161363d565b91505092915050565b60006060820190506136946000830186612e97565b6136a16020830185612aba565b6136ae6040830184612aba565b949350505050565b7f5061757361626c653a206e6f7420706175736564000000000000000000000000600082015250565b60006136ec601483612889565b91506136f7826136b6565b602082019050919050565b6000602082019050818103600083015261371b816136df565b9050919050565b7f4e487b7100000000000000000000000000000000000000000000000000000000600052601160045260246000fd5b600061375c826129a2565b9150613767836129a2565b925082820190508082111561377f5761377e613722565b5b92915050565b60008190508160005260206000209050919050565b60006020601f8301049050919050565b600082821b905092915050565b6000600883026137e77fffffffffffffffffffffffffffffffffffffffffffffffffffffffffffffffff826137aa565b6137f186836137aa565b95508019841693508086168417925050509392505050565b600061382461381f61381a846129a2565b613564565b6129a2565b9050919050565b6000819050919050565b61383e83613809565b61385261384a8261382b565b8484546137b7565b825550505050565b600090565b61386761385a565b613872818484613835565b505050565b5b818110156138965761388b60008261385f565b600181019050613878565b5050565b601f8211156138db576138ac81613785565b6138b58461379a565b810160208510156138c4578190505b6138d86138d08561379a565b830182613877565b50505b505050565b600082821c905092915050565b60006138fe600019846008026138e0565b1980831691505092915050565b600061391783836138ed565b9150826002028217905092915050565b6139308261287e565b67ffffffffffffffff81111561394957613948612ba5565b5b613953825461305c565b61395e82828561389a565b600060209050601f831160018114613991576000841561397f578287015190505b613989858261390b565b8655506139f1565b601f19841661399f86613785565b60005b828110156139c7578489015182556001820191506020850194506020810190506139a2565b868310156139e457848901516139e0601f8916826138ed565b8355505b6001600288020188555050505b505050505050565b600081519050919050565b600081905092915050565b6000613a1a826139f9565b613a248185613a04565b9350613a3481856020860161289a565b80840191505092915050565b6000613a4c8284613a0f565b91508190509291505056fea26469706673582212203ad225a9e9e1fc3e1094eba6d62ba1605e7edef8e480b9aeff9b2aedfd25481e64736f6c634300081a0033",
			"opcodes": "PUSH1 0xA0 PUSH1 0x40 MSTORE ADDRESS PUSH20 0xFFFFFFFFFFFFFFFFFFFFFFFFFFFFFFFFFFFFFFFF AND PUSH1 0x80 SWAP1 PUSH20 0xFFFFFFFFFFFFFFFFFFFFFFFFFFFFFFFFFFFFFFFF AND DUP2 MSTORE POP CALLVALUE DUP1 ISZERO PUSH2 0x43 JUMPI PUSH1 0x0 DUP1 REVERT JUMPDEST POP PUSH2 0x52 PUSH2 0x57 PUSH1 0x20 SHL PUSH1 0x20 SHR JUMP JUMPDEST PUSH2 0x1C1 JUMP JUMPDEST PUSH1 0x0 PUSH2 0x67 PUSH2 0x15B PUSH1 0x20 SHL PUSH1 0x20 SHR JUMP JUMPDEST SWAP1 POP DUP1 PUSH1 0x0 ADD PUSH1 0x8 SWAP1 SLOAD SWAP1 PUSH2 0x100 EXP SWAP1 DIV PUSH1 0xFF AND ISZERO PUSH2 0xB2 JUMPI PUSH1 0x40 MLOAD PUSH32 0xF92EE8A900000000000000000000000000000000000000000000000000000000 DUP2 MSTORE PUSH1 0x4 ADD PUSH1 0x40 MLOAD DUP1 SWAP2 SUB SWAP1 REVERT JUMPDEST PUSH8 0xFFFFFFFFFFFFFFFF DUP1 AND DUP2 PUSH1 0x0 ADD PUSH1 0x0 SWAP1 SLOAD SWAP1 PUSH2 0x100 EXP SWAP1 DIV PUSH8 0xFFFFFFFFFFFFFFFF AND PUSH8 0xFFFFFFFFFFFFFFFF AND EQ PUSH2 0x158 JUMPI PUSH8 0xFFFFFFFFFFFFFFFF DUP2 PUSH1 0x0 ADD PUSH1 0x0 PUSH2 0x100 EXP DUP2 SLOAD DUP2 PUSH8 0xFFFFFFFFFFFFFFFF MUL NOT AND SWAP1 DUP4 PUSH8 0xFFFFFFFFFFFFFFFF AND MUL OR SWAP1 SSTORE POP PUSH32 0xC7F505B2F371AE2175EE4913F4499E1F2633A7B5936321EED1CDAEB6115181D2 PUSH8 0xFFFFFFFFFFFFFFFF PUSH1 0x40 MLOAD PUSH2 0x14F SWAP2 SWAP1 PUSH2 0x1A6 JUMP JUMPDEST PUSH1 0x40 MLOAD DUP1 SWAP2 SUB SWAP1 LOG1 JUMPDEST POP JUMP JUMPDEST PUSH1 0x0 PUSH32 0xF0C57E16840DF040F15088DC2F81FE391C3923BEC73E23A9662EFC9C229C6A00 SWAP1 POP SWAP1 JUMP JUMPDEST PUSH1 0x0 PUSH8 0xFFFFFFFFFFFFFFFF DUP3 AND SWAP1 POP SWAP2 SWAP1 POP JUMP JUMPDEST PUSH2 0x1A0 DUP2 PUSH2 0x183 JUMP JUMPDEST DUP3 MSTORE POP POP JUMP JUMPDEST PUSH1 0x0 PUSH1 0x20 DUP3 ADD SWAP1 POP PUSH2 0x1BB PUSH1 0x0 DUP4 ADD DUP5 PUSH2 0x197 JUMP JUMPDEST SWAP3 SWAP2 POP POP JUMP JUMPDEST PUSH1 0x80 MLOAD PUSH2 0x3A8D PUSH2 0x1EA PUSH1 0x0 CODECOPY PUSH1 0x0 DUP2 DUP2 PUSH2 0x1902 ADD MSTORE DUP2 DUP2 PUSH2 0x1957 ADD MSTORE PUSH2 0x1B12 ADD MSTORE PUSH2 0x3A8D PUSH1 0x0 RETURN INVALID PUSH1 0x80 PUSH1 0x40 MSTORE PUSH1 0x4 CALLDATASIZE LT PUSH2 0x19C JUMPI PUSH1 0x0 CALLDATALOAD PUSH1 0xE0 SHR DUP1 PUSH4 0x715018A6 GT PUSH2 0xEC JUMPI DUP1 PUSH4 0xAD3CB1CC GT PUSH2 0x8A JUMPI DUP1 PUSH4 0xDBAC26E9 GT PUSH2 0x64 JUMPI DUP1 PUSH4 0xDBAC26E9 EQ PUSH2 0x583 JUMPI DUP1 PUSH4 0xDD62ED3E EQ PUSH2 0x5C0 JUMPI DUP1 PUSH4 0xF2FDE38B EQ PUSH2 0x5FD JUMPI DUP1 PUSH4 0xFE575A87 EQ PUSH2 0x626 JUMPI PUSH2 0x19C JUMP JUMPDEST DUP1 PUSH4 0xAD3CB1CC EQ PUSH2 0x504 JUMPI DUP1 PUSH4 0xB119490E EQ PUSH2 0x52F JUMPI DUP1 PUSH4 0xC66E4095 EQ PUSH2 0x558 JUMPI PUSH2 0x19C JUMP JUMPDEST DUP1 PUSH4 0x8DA5CB5B GT PUSH2 0xC6 JUMPI DUP1 PUSH4 0x8DA5CB5B EQ PUSH2 0x434 JUMPI DUP1 PUSH4 0x95D89B41 EQ PUSH2 0x45F JUMPI DUP1 PUSH4 0x9BC289F1 EQ PUSH2 0x48A JUMPI DUP1 PUSH4 0xA9059CBB EQ PUSH2 0x4C7 JUMPI PUSH2 0x19C JUMP JUMPDEST DUP1 PUSH4 0x715018A6 EQ PUSH2 0x3DD JUMPI DUP1 PUSH4 0x8456CB59 EQ PUSH2 0x3F4 JUMPI DUP1 PUSH4 0x88D695B2 EQ PUSH2 0x40B JUMPI PUSH2 0x19C JUMP JUMPDEST DUP1 PUSH4 0x313CE567 GT PUSH2 0x159 JUMPI DUP1 PUSH4 0x4F1EF286 GT PUSH2 0x133 JUMPI DUP1 PUSH4 0x4F1EF286 EQ PUSH2 0x32E JUMPI DUP1 PUSH4 0x52D1902D EQ PUSH2 0x34A JUMPI DUP1 PUSH4 0x5C975ABB EQ PUSH2 0x375 JUMPI DUP1 PUSH4 0x70A08231 EQ PUSH2 0x3A0 JUMPI PUSH2 0x19C JUMP JUMPDEST DUP1 PUSH4 0x313CE567 EQ PUSH2 0x2C3 JUMPI DUP1 PUSH4 0x3E579307 EQ PUSH2 0x2EE JUMPI DUP1 PUSH4 0x3F4BA83A EQ PUSH2 0x317 JUMPI PUSH2 0x19C JUMP JUMPDEST DUP1 PUSH4 0x6FDDE03 EQ PUSH2 0x1A1 JUMPI DUP1 PUSH4 0x95EA7B3 EQ PUSH2 0x1CC JUMPI DUP1 PUSH4 0x153B0D1E EQ PUSH2 0x209 JUMPI DUP1 PUSH4 0x18160DDD EQ PUSH2 0x232 JUMPI DUP1 PUSH4 0x23B872DD EQ PUSH2 0x25D JUMPI DUP1 PUSH4 0x2E0D2A00 EQ PUSH2 0x29A JUMPI JUMPDEST PUSH1 0x0 DUP1 REVERT JUMPDEST CALLVALUE DUP1 ISZERO PUSH2 0x1AD JUMPI PUSH1 0x0 DUP1 REVERT JUMPDEST POP PUSH2 0x1B6 PUSH2 0x663 JUMP JUMPDEST PUSH1 0x40 MLOAD PUSH2 0x1C3 SWAP2 SWAP1 PUSH2 0x290E JUMP JUMPDEST PUSH1 0x40 MLOAD DUP1 SWAP2 SUB SWAP1 RETURN JUMPDEST CALLVALUE DUP1 ISZERO PUSH2 0x1D8 JUMPI PUSH1 0x0 DUP1 REVERT JUMPDEST POP PUSH2 0x1F3 PUSH1 0x4 DUP1 CALLDATASIZE SUB DUP2 ADD SWAP1 PUSH2 0x1EE SWAP2 SWAP1 PUSH2 0x29D8 JUMP JUMPDEST PUSH2 0x704 JUMP JUMPDEST PUSH1 0x40 MLOAD PUSH2 0x200 SWAP2 SWAP1 PUSH2 0x2A33 JUMP JUMPDEST PUSH1 0x40 MLOAD DUP1 SWAP2 SUB SWAP1 RETURN JUMPDEST CALLVALUE DUP1 ISZERO PUSH2 0x215 JUMPI PUSH1 0x0 DUP1 REVERT JUMPDEST POP PUSH2 0x230 PUSH1 0x4 DUP1 CALLDATASIZE SUB DUP2 ADD SWAP1 PUSH2 0x22B SWAP2 SWAP1 PUSH2 0x2A7A JUMP JUMPDEST PUSH2 0x727 JUMP JUMPDEST STOP JUMPDEST CALLVALUE DUP1 ISZERO PUSH2 0x23E JUMPI PUSH1 0x0 DUP1 REVERT JUMPDEST POP PUSH2 0x247 PUSH2 0x847 JUMP JUMPDEST PUSH1 0x40 MLOAD PUSH2 0x254 SWAP2 SWAP1 PUSH2 0x2AC9 JUMP JUMPDEST PUSH1 0x40 MLOAD DUP1 SWAP2 SUB SWAP1 RETURN JUMPDEST CALLVALUE DUP1 ISZERO PUSH2 0x269 JUMPI PUSH1 0x0 DUP1 REVERT JUMPDEST POP PUSH2 0x284 PUSH1 0x4 DUP1 CALLDATASIZE SUB DUP2 ADD SWAP1 PUSH2 0x27F SWAP2 SWAP1 PUSH2 0x2AE4 JUMP JUMPDEST PUSH2 0x85F JUMP JUMPDEST PUSH1 0x40 MLOAD PUSH2 0x291 SWAP2 SWAP1 PUSH2 0x2A33 JUMP JUMPDEST PUSH1 0x40 MLOAD DUP1 SWAP2 SUB SWAP1 RETURN JUMPDEST CALLVALUE DUP1 ISZERO PUSH2 0x2A6 JUMPI PUSH1 0x0 DUP1 REVERT JUMPDEST POP PUSH2 0x2C1 PUSH1 0x4 DUP1 CALLDATASIZE SUB DUP2 ADD SWAP1 PUSH2 0x2BC SWAP2 SWAP1 PUSH2 0x2B37 JUMP JUMPDEST PUSH2 0xAA6 JUMP JUMPDEST STOP JUMPDEST CALLVALUE DUP1 ISZERO PUSH2 0x2CF JUMPI PUSH1 0x0 DUP1 REVERT JUMPDEST POP PUSH2 0x2D8 PUSH2 0xC02 JUMP JUMPDEST PUSH1 0x40 MLOAD PUSH2 0x2E5 SWAP2 SWAP1 PUSH2 0x2B80 JUMP JUMPDEST PUSH1 0x40 MLOAD DUP1 SWAP2 SUB SWAP1 RETURN JUMPDEST CALLVALUE DUP1 ISZERO PUSH2 0x2FA JUMPI PUSH1 0x0 DUP1 REVERT JUMPDEST POP PUSH2 0x315 PUSH1 0x4 DUP1 CALLDATASIZE SUB DUP2 ADD SWAP1 PUSH2 0x310 SWAP2 SWAP1 PUSH2 0x29D8 JUMP JUMPDEST PUSH2 0xC0B JUMP JUMPDEST STOP JUMPDEST CALLVALUE DUP1 ISZERO PUSH2 0x323 JUMPI PUSH1 0x0 DUP1 REVERT JUMPDEST POP PUSH2 0x32C PUSH2 0xDE7 JUMP JUMPDEST STOP JUMPDEST PUSH2 0x348 PUSH1 0x4 DUP1 CALLDATASIZE SUB DUP2 ADD SWAP1 PUSH2 0x343 SWAP2 SWAP1 PUSH2 0x2CD0 JUMP JUMPDEST PUSH2 0xDF9 JUMP JUMPDEST STOP JUMPDEST CALLVALUE DUP1 ISZERO PUSH2 0x356 JUMPI PUSH1 0x0 DUP1 REVERT JUMPDEST POP PUSH2 0x35F PUSH2 0xE18 JUMP JUMPDEST PUSH1 0x40 MLOAD PUSH2 0x36C SWAP2 SWAP1 PUSH2 0x2D45 JUMP JUMPDEST PUSH1 0x40 MLOAD DUP1 SWAP2 SUB SWAP1 RETURN JUMPDEST CALLVALUE DUP1 ISZERO PUSH2 0x381 JUMPI PUSH1 0x0 DUP1 REVERT JUMPDEST POP PUSH2 0x38A PUSH2 0xE4B JUMP JUMPDEST PUSH1 0x40 MLOAD PUSH2 0x397 SWAP2 SWAP1 PUSH2 0x2A33 JUMP JUMPDEST PUSH1 0x40 MLOAD DUP1 SWAP2 SUB SWAP1 RETURN JUMPDEST CALLVALUE DUP1 ISZERO PUSH2 0x3AC JUMPI PUSH1 0x0 DUP1 REVERT JUMPDEST POP PUSH2 0x3C7 PUSH1 0x4 DUP1 CALLDATASIZE SUB DUP2 ADD SWAP1 PUSH2 0x3C2 SWAP2 SWAP1 PUSH2 0x2B37 JUMP JUMPDEST PUSH2 0xE61 JUMP JUMPDEST PUSH1 0x40 MLOAD PUSH2 0x3D4 SWAP2 SWAP1 PUSH2 0x2AC9 JUMP JUMPDEST PUSH1 0x40 MLOAD DUP1 SWAP2 SUB SWAP1 RETURN JUMPDEST CALLVALUE DUP1 ISZERO PUSH2 0x3E9 JUMPI PUSH1 0x0 DUP1 REVERT JUMPDEST POP PUSH2 0x3F2 PUSH2 0xEB8 JUMP JUMPDEST STOP JUMPDEST CALLVALUE DUP1 ISZERO PUSH2 0x400 JUMPI PUSH1 0x0 DUP1 REVERT JUMPDEST POP PUSH2 0x409 PUSH2 0xECC JUMP JUMPDEST STOP JUMPDEST CALLVALUE DUP1 ISZERO PUSH2 0x417 JUMPI PUSH1 0x0 DUP1 REVERT JUMPDEST POP PUSH2 0x432 PUSH1 0x4 DUP1 CALLDATASIZE SUB DUP2 ADD SWAP1 PUSH2 0x42D SWAP2 SWAP1 PUSH2 0x2E16 JUMP JUMPDEST PUSH2 0xEDE JUMP JUMPDEST STOP JUMPDEST CALLVALUE DUP1 ISZERO PUSH2 0x440 JUMPI PUSH1 0x0 DUP1 REVERT JUMPDEST POP PUSH2 0x449 PUSH2 0x1055 JUMP JUMPDEST PUSH1 0x40 MLOAD PUSH2 0x456 SWAP2 SWAP1 PUSH2 0x2EA6 JUMP JUMPDEST PUSH1 0x40 MLOAD DUP1 SWAP2 SUB SWAP1 RETURN JUMPDEST CALLVALUE DUP1 ISZERO PUSH2 0x46B JUMPI PUSH1 0x0 DUP1 REVERT JUMPDEST POP PUSH2 0x474 PUSH2 0x108D JUMP JUMPDEST PUSH1 0x40 MLOAD PUSH2 0x481 SWAP2 SWAP1 PUSH2 0x290E JUMP JUMPDEST PUSH1 0x40 MLOAD DUP1 SWAP2 SUB SWAP1 RETURN JUMPDEST CALLVALUE DUP1 ISZERO PUSH2 0x496 JUMPI PUSH1 0x0 DUP1 REVERT JUMPDEST POP PUSH2 0x4B1 PUSH1 0x4 DUP1 CALLDATASIZE SUB DUP2 ADD SWAP1 PUSH2 0x4AC SWAP2 SWAP1 PUSH2 0x2B37 JUMP JUMPDEST PUSH2 0x112E JUMP JUMPDEST PUSH1 0x40 MLOAD PUSH2 0x4BE SWAP2 SWAP1 PUSH2 0x2AC9 JUMP JUMPDEST PUSH1 0x40 MLOAD DUP1 SWAP2 SUB SWAP1 RETURN JUMPDEST CALLVALUE DUP1 ISZERO PUSH2 0x4D3 JUMPI PUSH1 0x0 DUP1 REVERT JUMPDEST POP PUSH2 0x4EE PUSH1 0x4 DUP1 CALLDATASIZE SUB DUP2 ADD SWAP1 PUSH2 0x4E9 SWAP2 SWAP1 PUSH2 0x29D8 JUMP JUMPDEST PUSH2 0x1146 JUMP JUMPDEST PUSH1 0x40 MLOAD PUSH2 0x4FB SWAP2 SWAP1 PUSH2 0x2A33 JUMP JUMPDEST PUSH1 0x40 MLOAD DUP1 SWAP2 SUB SWAP1 RETURN JUMPDEST CALLVALUE DUP1 ISZERO PUSH2 0x510 JUMPI PUSH1 0x0 DUP1 REVERT JUMPDEST POP PUSH2 0x519 PUSH2 0x138B JUMP JUMPDEST PUSH1 0x40 MLOAD PUSH2 0x526 SWAP2 SWAP1 PUSH2 0x290E JUMP JUMPDEST PUSH1 0x40 MLOAD DUP1 SWAP2 SUB SWAP1 RETURN JUMPDEST CALLVALUE DUP1 ISZERO PUSH2 0x53B JUMPI PUSH1 0x0 DUP1 REVERT JUMPDEST POP PUSH2 0x556 PUSH1 0x4 DUP1 CALLDATASIZE SUB DUP2 ADD SWAP1 PUSH2 0x551 SWAP2 SWAP1 PUSH2 0x2F62 JUMP JUMPDEST PUSH2 0x13C4 JUMP JUMPDEST STOP JUMPDEST CALLVALUE DUP1 ISZERO PUSH2 0x564 JUMPI PUSH1 0x0 DUP1 REVERT JUMPDEST POP PUSH2 0x56D PUSH2 0x1582 JUMP JUMPDEST PUSH1 0x40 MLOAD PUSH2 0x57A SWAP2 SWAP1 PUSH2 0x2EA6 JUMP JUMPDEST PUSH1 0x40 MLOAD DUP1 SWAP2 SUB SWAP1 RETURN JUMPDEST CALLVALUE DUP1 ISZERO PUSH2 0x58F JUMPI PUSH1 0x0 DUP1 REVERT JUMPDEST POP PUSH2 0x5AA PUSH1 0x4 DUP1 CALLDATASIZE SUB DUP2 ADD SWAP1 PUSH2 0x5A5 SWAP2 SWAP1 PUSH2 0x2B37 JUMP JUMPDEST PUSH2 0x15A8 JUMP JUMPDEST PUSH1 0x40 MLOAD PUSH2 0x5B7 SWAP2 SWAP1 PUSH2 0x2A33 JUMP JUMPDEST PUSH1 0x40 MLOAD DUP1 SWAP2 SUB SWAP1 RETURN JUMPDEST CALLVALUE DUP1 ISZERO PUSH2 0x5CC JUMPI PUSH1 0x0 DUP1 REVERT JUMPDEST POP PUSH2 0x5E7 PUSH1 0x4 DUP1 CALLDATASIZE SUB DUP2 ADD SWAP1 PUSH2 0x5E2 SWAP2 SWAP1 PUSH2 0x2FED JUMP JUMPDEST PUSH2 0x15C8 JUMP JUMPDEST PUSH1 0x40 MLOAD PUSH2 0x5F4 SWAP2 SWAP1 PUSH2 0x2AC9 JUMP JUMPDEST PUSH1 0x40 MLOAD DUP1 SWAP2 SUB SWAP1 RETURN JUMPDEST CALLVALUE DUP1 ISZERO PUSH2 0x609 JUMPI PUSH1 0x0 DUP1 REVERT JUMPDEST POP PUSH2 0x624 PUSH1 0x4 DUP1 CALLDATASIZE SUB DUP2 ADD SWAP1 PUSH2 0x61F SWAP2 SWAP1 PUSH2 0x2B37 JUMP JUMPDEST PUSH2 0x165D JUMP JUMPDEST STOP JUMPDEST CALLVALUE DUP1 ISZERO PUSH2 0x632 JUMPI PUSH1 0x0 DUP1 REVERT JUMPDEST POP PUSH2 0x64D PUSH1 0x4 DUP1 CALLDATASIZE SUB DUP2 ADD SWAP1 PUSH2 0x648 SWAP2 SWAP1 PUSH2 0x2B37 JUMP JUMPDEST PUSH2 0x16E3 JUMP JUMPDEST PUSH1 0x40 MLOAD PUSH2 0x65A SWAP2 SWAP1 PUSH2 0x2A33 JUMP JUMPDEST PUSH1 0x40 MLOAD DUP1 SWAP2 SUB SWAP1 RETURN JUMPDEST PUSH1 0x60 PUSH1 0x0 PUSH2 0x66F PUSH2 0x1739 JUMP JUMPDEST SWAP1 POP DUP1 PUSH1 0x3 ADD DUP1 SLOAD PUSH2 0x680 SWAP1 PUSH2 0x305C JUMP JUMPDEST DUP1 PUSH1 0x1F ADD PUSH1 0x20 DUP1 SWAP2 DIV MUL PUSH1 0x20 ADD PUSH1 0x40 MLOAD SWAP1 DUP2 ADD PUSH1 0x40 MSTORE DUP1 SWAP3 SWAP2 SWAP1 DUP2 DUP2 MSTORE PUSH1 0x20 ADD DUP3 DUP1 SLOAD PUSH2 0x6AC SWAP1 PUSH2 0x305C JUMP JUMPDEST DUP1 ISZERO PUSH2 0x6F9 JUMPI DUP1 PUSH1 0x1F LT PUSH2 0x6CE JUMPI PUSH2 0x100 DUP1 DUP4 SLOAD DIV MUL DUP4 MSTORE SWAP2 PUSH1 0x20 ADD SWAP2 PUSH2 0x6F9 JUMP JUMPDEST DUP3 ADD SWAP2 SWAP1 PUSH1 0x0 MSTORE PUSH1 0x20 PUSH1 0x0 KECCAK256 SWAP1 JUMPDEST DUP2 SLOAD DUP2 MSTORE SWAP1 PUSH1 0x1 ADD SWAP1 PUSH1 0x20 ADD DUP1 DUP4 GT PUSH2 0x6DC JUMPI DUP3 SWAP1 SUB PUSH1 0x1F AND DUP3 ADD SWAP2 JUMPDEST POP POP POP POP POP SWAP2 POP POP SWAP1 JUMP JUMPDEST PUSH1 0x0 DUP1 PUSH2 0x70F PUSH2 0x1761 JUMP JUMPDEST SWAP1 POP PUSH2 0x71C DUP2 DUP6 DUP6 PUSH2 0x1769 JUMP JUMPDEST PUSH1 0x1 SWAP2 POP POP SWAP3 SWAP2 POP POP JUMP JUMPDEST PUSH2 0x72F PUSH2 0x177B JUMP JUMPDEST PUSH1 0x0 PUSH20 0xFFFFFFFFFFFFFFFFFFFFFFFFFFFFFFFFFFFFFFFF AND DUP3 PUSH20 0xFFFFFFFFFFFFFFFFFFFFFFFFFFFFFFFFFFFFFFFF AND SUB PUSH2 0x79E JUMPI PUSH1 0x40 MLOAD PUSH32 0x8C379A000000000000000000000000000000000000000000000000000000000 DUP2 MSTORE PUSH1 0x4 ADD PUSH2 0x795 SWAP1 PUSH2 0x30D9 JUMP JUMPDEST PUSH1 0x40 MLOAD DUP1 SWAP2 SUB SWAP1 REVERT JUMPDEST DUP1 PUSH1 0x35 PUSH1 0x0 DUP5 PUSH20 0xFFFFFFFFFFFFFFFFFFFFFFFFFFFFFFFFFFFFFFFF AND PUSH20 0xFFFFFFFFFFFFFFFFFFFFFFFFFFFFFFFFFFFFFFFF AND DUP2 MSTORE PUSH1 0x20 ADD SWAP1 DUP2 MSTORE PUSH1 0x20 ADD PUSH1 0x0 KECCAK256 PUSH1 0x0 PUSH2 0x100 EXP DUP2 SLOAD DUP2 PUSH1 0xFF MUL NOT AND SWAP1 DUP4 ISZERO ISZERO MUL OR SWAP1 SSTORE POP DUP2 PUSH20 0xFFFFFFFFFFFFFFFFFFFFFFFFFFFFFFFFFFFFFFFF AND PUSH32 0xCF3473B85DF1594D47B6958F29A32BEA0ABFF9DD68296F7BF33443646793CFD8 DUP3 PUSH1 0x40 MLOAD PUSH2 0x83B SWAP2 SWAP1 PUSH2 0x2A33 JUMP JUMPDEST PUSH1 0x40 MLOAD DUP1 SWAP2 SUB SWAP1 LOG2 POP POP JUMP JUMPDEST PUSH1 0x0 DUP1 PUSH2 0x852 PUSH2 0x1739 JUMP JUMPDEST SWAP1 POP DUP1 PUSH1 0x2 ADD SLOAD SWAP2 POP POP SWAP1 JUMP JUMPDEST PUSH1 0x0 PUSH2 0x869 PUSH2 0x1802 JUMP JUMPDEST PUSH1 0x35 PUSH1 0x0 DUP6 PUSH20 0xFFFFFFFFFFFFFFFFFFFFFFFFFFFFFFFFFFFFFFFF AND PUSH20 0xFFFFFFFFFFFFFFFFFFFFFFFFFFFFFFFFFFFFFFFF AND DUP2 MSTORE PUSH1 0x20 ADD SWAP1 DUP2 MSTORE PUSH1 0x20 ADD PUSH1 0x0 KECCAK256 PUSH1 0x0 SWAP1 SLOAD SWAP1 PUSH2 0x100 EXP SWAP1 DIV PUSH1 0xFF AND ISZERO PUSH2 0x8F6 JUMPI PUSH1 0x40 MLOAD PUSH32 0x8C379A000000000000000000000000000000000000000000000000000000000 DUP2 MSTORE PUSH1 0x4 ADD PUSH2 0x8ED SWAP1 PUSH2 0x316B JUMP JUMPDEST PUSH1 0x40 MLOAD DUP1 SWAP2 SUB SWAP1 REVERT JUMPDEST PUSH1 0x35 PUSH1 0x0 DUP5 PUSH20 0xFFFFFFFFFFFFFFFFFFFFFFFFFFFFFFFFFFFFFFFF AND PUSH20 0xFFFFFFFFFFFFFFFFFFFFFFFFFFFFFFFFFFFFFFFF AND DUP2 MSTORE PUSH1 0x20 ADD SWAP1 DUP2 MSTORE PUSH1 0x20 ADD PUSH1 0x0 KECCAK256 PUSH1 0x0 SWAP1 SLOAD SWAP1 PUSH2 0x100 EXP SWAP1 DIV PUSH1 0xFF AND ISZERO PUSH2 0x983 JUMPI PUSH1 0x40 MLOAD PUSH32 0x8C379A000000000000000000000000000000000000000000000000000000000 DUP2 MSTORE PUSH1 0x4 ADD PUSH2 0x97A SWAP1 PUSH2 0x31FD JUMP JUMPDEST PUSH1 0x40 MLOAD DUP1 SWAP2 SUB SWAP1 REVERT JUMPDEST PUSH1 0x0 DUP3 GT PUSH2 0x9C6 JUMPI PUSH1 0x40 MLOAD PUSH32 0x8C379A000000000000000000000000000000000000000000000000000000000 DUP2 MSTORE PUSH1 0x4 ADD PUSH2 0x9BD SWAP1 PUSH2 0x3269 JUMP JUMPDEST PUSH1 0x40 MLOAD DUP1 SWAP2 SUB SWAP1 REVERT JUMPDEST PUSH1 0x34 PUSH1 0x0 DUP6 PUSH20 0xFFFFFFFFFFFFFFFFFFFFFFFFFFFFFFFFFFFFFFFF AND PUSH20 0xFFFFFFFFFFFFFFFFFFFFFFFFFFFFFFFFFFFFFFFF AND DUP2 MSTORE PUSH1 0x20 ADD SWAP1 DUP2 MSTORE PUSH1 0x20 ADD PUSH1 0x0 KECCAK256 SLOAD TIMESTAMP LT ISZERO DUP1 PUSH2 0xA53 JUMPI POP PUSH1 0x0 PUSH1 0x34 PUSH1 0x0 DUP7 PUSH20 0xFFFFFFFFFFFFFFFFFFFFFFFFFFFFFFFFFFFFFFFF AND PUSH20 0xFFFFFFFFFFFFFFFFFFFFFFFFFFFFFFFFFFFFFFFF AND DUP2 MSTORE PUSH1 0x20 ADD SWAP1 DUP2 MSTORE PUSH1 0x20 ADD PUSH1 0x0 KECCAK256 SLOAD EQ JUMPDEST PUSH2 0xA92 JUMPI PUSH1 0x40 MLOAD PUSH32 0x8C379A000000000000000000000000000000000000000000000000000000000 DUP2 MSTORE PUSH1 0x4 ADD PUSH2 0xA89 SWAP1 PUSH2 0x32FB JUMP JUMPDEST PUSH1 0x40 MLOAD DUP1 SWAP2 SUB SWAP1 REVERT JUMPDEST PUSH2 0xA9D DUP5 DUP5 DUP5 PUSH2 0x184C JUMP JUMPDEST SWAP1 POP SWAP4 SWAP3 POP POP POP JUMP JUMPDEST PUSH2 0xAAE PUSH2 0x177B JUMP JUMPDEST PUSH1 0x0 PUSH20 0xFFFFFFFFFFFFFFFFFFFFFFFFFFFFFFFFFFFFFFFF AND DUP2 PUSH20 0xFFFFFFFFFFFFFFFFFFFFFFFFFFFFFFFFFFFFFFFF AND SUB PUSH2 0xB1D JUMPI PUSH1 0x40 MLOAD PUSH32 0x8C379A000000000000000000000000000000000000000000000000000000000 DUP2 MSTORE PUSH1 0x4 ADD PUSH2 0xB14 SWAP1 PUSH2 0x30D9 JUMP JUMPDEST PUSH1 0x40 MLOAD DUP1 SWAP2 SUB SWAP1 REVERT JUMPDEST PUSH2 0xB3C DUP2 PUSH20 0xFFFFFFFFFFFFFFFFFFFFFFFFFFFFFFFFFFFFFFFF AND PUSH2 0x187B JUMP JUMPDEST PUSH2 0xB7B JUMPI PUSH1 0x40 MLOAD PUSH32 0x8C379A000000000000000000000000000000000000000000000000000000000 DUP2 MSTORE PUSH1 0x4 ADD PUSH2 0xB72 SWAP1 PUSH2 0x3367 JUMP JUMPDEST PUSH1 0x40 MLOAD DUP1 SWAP2 SUB SWAP1 REVERT JUMPDEST DUP1 PUSH1 0x32 PUSH1 0x0 PUSH2 0x100 EXP DUP2 SLOAD DUP2 PUSH20 0xFFFFFFFFFFFFFFFFFFFFFFFFFFFFFFFFFFFFFFFF MUL NOT AND SWAP1 DUP4 PUSH20 0xFFFFFFFFFFFFFFFFFFFFFFFFFFFFFFFFFFFFFFFF AND MUL OR SWAP1 SSTORE POP DUP1 PUSH20 0xFFFFFFFFFFFFFFFFFFFFFFFFFFFFFFFFFFFFFFFF AND PUSH32 0xE7BBFBBF7E7948988EB7F8904DA938AFF02A23B8B28FCEE206BE4D4B3EDD9AD8 PUSH1 0x40 MLOAD PUSH1 0x40 MLOAD DUP1 SWAP2 SUB SWAP1 LOG2 POP JUMP JUMPDEST PUSH1 0x0 PUSH1 0x12 SWAP1 POP SWAP1 JUMP JUMPDEST PUSH1 0x32 PUSH1 0x0 SWAP1 SLOAD SWAP1 PUSH2 0x100 EXP SWAP1 DIV PUSH20 0xFFFFFFFFFFFFFFFFFFFFFFFFFFFFFFFFFFFFFFFF AND PUSH20 0xFFFFFFFFFFFFFFFFFFFFFFFFFFFFFFFFFFFFFFFF AND CALLER PUSH20 0xFFFFFFFFFFFFFFFFFFFFFFFFFFFFFFFFFFFFFFFF AND EQ PUSH2 0xC9B JUMPI PUSH1 0x40 MLOAD PUSH32 0x8C379A000000000000000000000000000000000000000000000000000000000 DUP2 MSTORE PUSH1 0x4 ADD PUSH2 0xC92 SWAP1 PUSH2 0x33D3 JUMP JUMPDEST PUSH1 0x40 MLOAD DUP1 SWAP2 SUB SWAP1 REVERT JUMPDEST PUSH1 0x0 PUSH20 0xFFFFFFFFFFFFFFFFFFFFFFFFFFFFFFFFFFFFFFFF AND DUP3 PUSH20 0xFFFFFFFFFFFFFFFFFFFFFFFFFFFFFFFFFFFFFFFF AND SUB PUSH2 0xD0A JUMPI PUSH1 0x40 MLOAD PUSH32 0x8C379A000000000000000000000000000000000000000000000000000000000 DUP2 MSTORE PUSH1 0x4 ADD PUSH2 0xD01 SWAP1 PUSH2 0x30D9 JUMP JUMPDEST PUSH1 0x40 MLOAD DUP1 SWAP2 SUB SWAP1 REVERT JUMPDEST DUP1 PUSH1 0x34 PUSH1 0x0 DUP5 PUSH20 0xFFFFFFFFFFFFFFFFFFFFFFFFFFFFFFFFFFFFFFFF AND PUSH20 0xFFFFFFFFFFFFFFFFFFFFFFFFFFFFFFFFFFFFFFFF AND DUP2 MSTORE PUSH1 0x20 ADD SWAP1 DUP2 MSTORE PUSH1 0x20 ADD PUSH1 0x0 KECCAK256 SLOAD EQ PUSH2 0xDE3 JUMPI DUP1 PUSH1 0x34 PUSH1 0x0 DUP5 PUSH20 0xFFFFFFFFFFFFFFFFFFFFFFFFFFFFFFFFFFFFFFFF AND PUSH20 0xFFFFFFFFFFFFFFFFFFFFFFFFFFFFFFFFFFFFFFFF AND DUP2 MSTORE PUSH1 0x20 ADD SWAP1 DUP2 MSTORE PUSH1 0x20 ADD PUSH1 0x0 KECCAK256 DUP2 SWAP1 SSTORE POP DUP2 PUSH20 0xFFFFFFFFFFFFFFFFFFFFFFFFFFFFFFFFFFFFFFFF AND PUSH32 0x611CDBEA265CB87EF40E17C595BAD009182B4DB741622F7848E344C15451DE2F DUP3 PUSH1 0x40 MLOAD PUSH2 0xDDA SWAP2 SWAP1 PUSH2 0x2AC9 JUMP JUMPDEST PUSH1 0x40 MLOAD DUP1 SWAP2 SUB SWAP1 LOG2 JUMPDEST POP POP JUMP JUMPDEST PUSH2 0xDEF PUSH2 0x177B JUMP JUMPDEST PUSH2 0xDF7 PUSH2 0x189E JUMP JUMPDEST JUMP JUMPDEST PUSH2 0xE01 PUSH2 0x1900 JUMP JUMPDEST PUSH2 0xE0A DUP3 PUSH2 0x19E6 JUMP JUMPDEST PUSH2 0xE14 DUP3 DUP3 PUSH2 0x19F1 JUMP JUMPDEST POP POP JUMP JUMPDEST PUSH1 0x0 PUSH2 0xE22 PUSH2 0x1B10 JUMP JUMPDEST PUSH32 0x360894A13BA1A3210667C828492DB98DCA3E2076CC3735A920A3CA505D382BBC PUSH1 0x0 SHL SWAP1 POP SWAP1 JUMP JUMPDEST PUSH1 0x0 DUP1 PUSH1 0x0 SWAP1 SLOAD SWAP1 PUSH2 0x100 EXP SWAP1 DIV PUSH1 0xFF AND SWAP1 POP SWAP1 JUMP JUMPDEST PUSH1 0x0 DUP1 PUSH2 0xE6C PUSH2 0x1739 JUMP JUMPDEST SWAP1 POP DUP1 PUSH1 0x0 ADD PUSH1 0x0 DUP5 PUSH20 0xFFFFFFFFFFFFFFFFFFFFFFFFFFFFFFFFFFFFFFFF AND PUSH20 0xFFFFFFFFFFFFFFFFFFFFFFFFFFFFFFFFFFFFFFFF AND DUP2 MSTORE PUSH1 0x20 ADD SWAP1 DUP2 MSTORE PUSH1 0x20 ADD PUSH1 0x0 KECCAK256 SLOAD SWAP2 POP POP SWAP2 SWAP1 POP JUMP JUMPDEST PUSH2 0xEC0 PUSH2 0x177B JUMP JUMPDEST PUSH2 0xECA PUSH1 0x0 PUSH2 0x1B97 JUMP JUMPDEST JUMP JUMPDEST PUSH2 0xED4 PUSH2 0x177B JUMP JUMPDEST PUSH2 0xEDC PUSH2 0x1C6E JUMP JUMPDEST JUMP JUMPDEST PUSH2 0xEE6 PUSH2 0x1802 JUMP JUMPDEST DUP2 DUP2 SWAP1 POP DUP5 DUP5 SWAP1 POP EQ PUSH2 0xF2E JUMPI PUSH1 0x40 MLOAD PUSH32 0x8C379A000000000000000000000000000000000000000000000000000000000 DUP2 MSTORE PUSH1 0x4 ADD PUSH2 0xF25 SWAP1 PUSH2 0x3465 JUMP JUMPDEST PUSH1 0x40 MLOAD DUP1 SWAP2 SUB SWAP1 REVERT JUMPDEST PUSH1 0x0 DUP5 DUP5 SWAP1 POP SWAP1 POP PUSH1 0x0 JUMPDEST DUP2 DUP2 LT ISZERO PUSH2 0x104D JUMPI PUSH1 0x35 PUSH1 0x0 DUP8 DUP8 DUP5 DUP2 DUP2 LT PUSH2 0xF58 JUMPI PUSH2 0xF57 PUSH2 0x3485 JUMP JUMPDEST JUMPDEST SWAP1 POP PUSH1 0x20 MUL ADD PUSH1 0x20 DUP2 ADD SWAP1 PUSH2 0xF6D SWAP2 SWAP1 PUSH2 0x2B37 JUMP JUMPDEST PUSH20 0xFFFFFFFFFFFFFFFFFFFFFFFFFFFFFFFFFFFFFFFF AND PUSH20 0xFFFFFFFFFFFFFFFFFFFFFFFFFFFFFFFFFFFFFFFF AND DUP2 MSTORE PUSH1 0x20 ADD SWAP1 DUP2 MSTORE PUSH1 0x20 ADD PUSH1 0x0 KECCAK256 PUSH1 0x0 SWAP1 SLOAD SWAP1 PUSH2 0x100 EXP SWAP1 DIV PUSH1 0xFF AND ISZERO PUSH2 0xFF5 JUMPI PUSH1 0x40 MLOAD PUSH32 0x8C379A000000000000000000000000000000000000000000000000000000000 DUP2 MSTORE PUSH1 0x4 ADD PUSH2 0xFEC SWAP1 PUSH2 0x3526 JUMP JUMPDEST PUSH1 0x40 MLOAD DUP1 SWAP2 SUB SWAP1 REVERT JUMPDEST PUSH2 0x1040 CALLER DUP8 DUP8 DUP5 DUP2 DUP2 LT PUSH2 0x100C JUMPI PUSH2 0x100B PUSH2 0x3485 JUMP JUMPDEST JUMPDEST SWAP1 POP PUSH1 0x20 MUL ADD PUSH1 0x20 DUP2 ADD SWAP1 PUSH2 0x1021 SWAP2 SWAP1 PUSH2 0x2B37 JUMP JUMPDEST DUP7 DUP7 DUP6 DUP2 DUP2 LT PUSH2 0x1034 JUMPI PUSH2 0x1033 PUSH2 0x3485 JUMP JUMPDEST JUMPDEST SWAP1 POP PUSH1 0x20 MUL ADD CALLDATALOAD PUSH2 0x1CD0 JUMP JUMPDEST DUP1 DUP1 PUSH1 0x1 ADD SWAP2 POP POP PUSH2 0xF39 JUMP JUMPDEST POP POP POP POP POP POP JUMP JUMPDEST PUSH1 0x0 DUP1 PUSH2 0x1060 PUSH2 0x1DC4 JUMP JUMPDEST SWAP1 POP DUP1 PUSH1 0x0 ADD PUSH1 0x0 SWAP1 SLOAD SWAP1 PUSH2 0x100 EXP SWAP1 DIV PUSH20 0xFFFFFFFFFFFFFFFFFFFFFFFFFFFFFFFFFFFFFFFF AND SWAP2 POP POP SWAP1 JUMP JUMPDEST PUSH1 0x60 PUSH1 0x0 PUSH2 0x1099 PUSH2 0x1739 JUMP JUMPDEST SWAP1 POP DUP1 PUSH1 0x4 ADD DUP1 SLOAD PUSH2 0x10AA SWAP1 PUSH2 0x305C JUMP JUMPDEST DUP1 PUSH1 0x1F ADD PUSH1 0x20 DUP1 SWAP2 DIV MUL PUSH1 0x20 ADD PUSH1 0x40 MLOAD SWAP1 DUP2 ADD PUSH1 0x40 MSTORE DUP1 SWAP3 SWAP2 SWAP1 DUP2 DUP2 MSTORE PUSH1 0x20 ADD DUP3 DUP1 SLOAD PUSH2 0x10D6 SWAP1 PUSH2 0x305C JUMP JUMPDEST DUP1 ISZERO PUSH2 0x1123 JUMPI DUP1 PUSH1 0x1F LT PUSH2 0x10F8 JUMPI PUSH2 0x100 DUP1 DUP4 SLOAD DIV MUL DUP4 MSTORE SWAP2 PUSH1 0x20 ADD SWAP2 PUSH2 0x1123 JUMP JUMPDEST DUP3 ADD SWAP2 SWAP1 PUSH1 0x0 MSTORE PUSH1 0x20 PUSH1 0x0 KECCAK256 SWAP1 JUMPDEST DUP2 SLOAD DUP2 MSTORE SWAP1 PUSH1 0x1 ADD SWAP1 PUSH1 0x20 ADD DUP1 DUP4 GT PUSH2 0x1106 JUMPI DUP3 SWAP1 SUB PUSH1 0x1F AND DUP3 ADD SWAP2 JUMPDEST POP POP POP POP POP SWAP2 POP POP SWAP1 JUMP JUMPDEST PUSH1 0x34 PUSH1 0x20 MSTORE DUP1 PUSH1 0x0 MSTORE PUSH1 0x40 PUSH1 0x0 KECCAK256 PUSH1 0x0 SWAP2 POP SWAP1 POP SLOAD DUP2 JUMP JUMPDEST PUSH1 0x0 PUSH2 0x1150 PUSH2 0x1802 JUMP JUMPDEST PUSH1 0x35 PUSH1 0x0 CALLER PUSH20 0xFFFFFFFFFFFFFFFFFFFFFFFFFFFFFFFFFFFFFFFF AND PUSH20 0xFFFFFFFFFFFFFFFFFFFFFFFFFFFFFFFFFFFFFFFF AND DUP2 MSTORE PUSH1 0x20 ADD SWAP1 DUP2 MSTORE PUSH1 0x20 ADD PUSH1 0x0 KECCAK256 PUSH1 0x0 SWAP1 SLOAD SWAP1 PUSH2 0x100 EXP SWAP1 DIV PUSH1 0xFF AND ISZERO PUSH2 0x11DD JUMPI PUSH1 0x40 MLOAD PUSH32 0x8C379A000000000000000000000000000000000000000000000000000000000 DUP2 MSTORE PUSH1 0x4 ADD PUSH2 0x11D4 SWAP1 PUSH2 0x316B JUMP JUMPDEST PUSH1 0x40 MLOAD DUP1 SWAP2 SUB SWAP1 REVERT JUMPDEST PUSH1 0x35 PUSH1 0x0 DUP5 PUSH20 0xFFFFFFFFFFFFFFFFFFFFFFFFFFFFFFFFFFFFFFFF AND PUSH20 0xFFFFFFFFFFFFFFFFFFFFFFFFFFFFFFFFFFFFFFFF AND DUP2 MSTORE PUSH1 0x20 ADD SWAP1 DUP2 MSTORE PUSH1 0x20 ADD PUSH1 0x0 KECCAK256 PUSH1 0x0 SWAP1 SLOAD SWAP1 PUSH2 0x100 EXP SWAP1 DIV PUSH1 0xFF AND ISZERO PUSH2 0x126A JUMPI PUSH1 0x40 MLOAD PUSH32 0x8C379A000000000000000000000000000000000000000000000000000000000 DUP2 MSTORE PUSH1 0x4 ADD PUSH2 0x1261 SWAP1 PUSH2 0x31FD JUMP JUMPDEST PUSH1 0x40 MLOAD DUP1 SWAP2 SUB SWAP1 REVERT JUMPDEST PUSH1 0x0 DUP3 GT PUSH2 0x12AD JUMPI PUSH1 0x40 MLOAD PUSH32 0x8C379A000000000000000000000000000000000000000000000000000000000 DUP2 MSTORE PUSH1 0x4 ADD PUSH2 0x12A4 SWAP1 PUSH2 0x3269 JUMP JUMPDEST PUSH1 0x40 MLOAD DUP1 SWAP2 SUB SWAP1 REVERT JUMPDEST PUSH1 0x34 PUSH1 0x0 CALLER PUSH20 0xFFFFFFFFFFFFFFFFFFFFFFFFFFFFFFFFFFFFFFFF AND PUSH20 0xFFFFFFFFFFFFFFFFFFFFFFFFFFFFFFFFFFFFFFFF AND DUP2 MSTORE PUSH1 0x20 ADD SWAP1 DUP2 MSTORE PUSH1 0x20 ADD PUSH1 0x0 KECCAK256 SLOAD TIMESTAMP LT ISZERO DUP1 PUSH2 0x133A JUMPI POP PUSH1 0x0 PUSH1 0x34 PUSH1 0x0 CALLER PUSH20 0xFFFFFFFFFFFFFFFFFFFFFFFFFFFFFFFFFFFFFFFF AND PUSH20 0xFFFFFFFFFFFFFFFFFFFFFFFFFFFFFFFFFFFFFFFF AND DUP2 MSTORE PUSH1 0x20 ADD SWAP1 DUP2 MSTORE PUSH1 0x20 ADD PUSH1 0x0 KECCAK256 SLOAD EQ JUMPDEST PUSH2 0x1379 JUMPI PUSH1 0x40 MLOAD PUSH32 0x8C379A000000000000000000000000000000000000000000000000000000000 DUP2 MSTORE PUSH1 0x4 ADD PUSH2 0x1370 SWAP1 PUSH2 0x32FB JUMP JUMPDEST PUSH1 0x40 MLOAD DUP1 SWAP2 SUB SWAP1 REVERT JUMPDEST PUSH2 0x1383 DUP4 DUP4 PUSH2 0x1DEC JUMP JUMPDEST SWAP1 POP SWAP3 SWAP2 POP POP JUMP JUMPDEST PUSH1 0x40 MLOAD DUP1 PUSH1 0x40 ADD PUSH1 0x40 MSTORE DUP1 PUSH1 0x5 DUP2 MSTORE PUSH1 0x20 ADD PUSH32 0x352E302E30000000000000000000000000000000000000000000000000000000 DUP2 MSTORE POP DUP2 JUMP JUMPDEST PUSH1 0x0 PUSH2 0x13CE PUSH2 0x1E0F JUMP JUMPDEST SWAP1 POP PUSH1 0x0 DUP2 PUSH1 0x0 ADD PUSH1 0x8 SWAP1 SLOAD SWAP1 PUSH2 0x100 EXP SWAP1 DIV PUSH1 0xFF AND ISZERO SWAP1 POP PUSH1 0x0 DUP3 PUSH1 0x0 ADD PUSH1 0x0 SWAP1 SLOAD SWAP1 PUSH2 0x100 EXP SWAP1 DIV PUSH8 0xFFFFFFFFFFFFFFFF AND SWAP1 POP PUSH1 0x0 DUP1 DUP3 PUSH8 0xFFFFFFFFFFFFFFFF AND EQ DUP1 ISZERO PUSH2 0x141C JUMPI POP DUP3 JUMPDEST SWAP1 POP PUSH1 0x0 PUSH1 0x1 DUP4 PUSH8 0xFFFFFFFFFFFFFFFF AND EQ DUP1 ISZERO PUSH2 0x1451 JUMPI POP PUSH1 0x0 ADDRESS PUSH20 0xFFFFFFFFFFFFFFFFFFFFFFFFFFFFFFFFFFFFFFFF AND EXTCODESIZE EQ JUMPDEST SWAP1 POP DUP2 ISZERO DUP1 ISZERO PUSH2 0x145F JUMPI POP DUP1 ISZERO JUMPDEST ISZERO PUSH2 0x1496 JUMPI PUSH1 0x40 MLOAD PUSH32 0xF92EE8A900000000000000000000000000000000000000000000000000000000 DUP2 MSTORE PUSH1 0x4 ADD PUSH1 0x40 MLOAD DUP1 SWAP2 SUB SWAP1 REVERT JUMPDEST PUSH1 0x1 DUP6 PUSH1 0x0 ADD PUSH1 0x0 PUSH2 0x100 EXP DUP2 SLOAD DUP2 PUSH8 0xFFFFFFFFFFFFFFFF MUL NOT AND SWAP1 DUP4 PUSH8 0xFFFFFFFFFFFFFFFF AND MUL OR SWAP1 SSTORE POP DUP4 ISZERO PUSH2 0x14E6 JUMPI PUSH1 0x1 DUP6 PUSH1 0x0 ADD PUSH1 0x8 PUSH2 0x100 EXP DUP2 SLOAD DUP2 PUSH1 0xFF MUL NOT AND SWAP1 DUP4 ISZERO ISZERO MUL OR SWAP1 SSTORE POP JUMPDEST PUSH2 0x14F0 DUP9 DUP9 PUSH2 0x1E37 JUMP JUMPDEST PUSH2 0x14F9 CALLER PUSH2 0x1E4D JUMP JUMPDEST PUSH2 0x1501 PUSH2 0x1E61 JUMP JUMPDEST PUSH2 0x1509 PUSH2 0x1E73 JUMP JUMPDEST DUP6 PUSH1 0x33 DUP2 SWAP1 SSTORE POP PUSH2 0x151C CALLER PUSH1 0x33 SLOAD PUSH2 0x1E7D JUMP JUMPDEST DUP4 ISZERO PUSH2 0x1578 JUMPI PUSH1 0x0 DUP6 PUSH1 0x0 ADD PUSH1 0x8 PUSH2 0x100 EXP DUP2 SLOAD DUP2 PUSH1 0xFF MUL NOT AND SWAP1 DUP4 ISZERO ISZERO MUL OR SWAP1 SSTORE POP PUSH32 0xC7F505B2F371AE2175EE4913F4499E1F2633A7B5936321EED1CDAEB6115181D2 PUSH1 0x1 PUSH1 0x40 MLOAD PUSH2 0x156F SWAP2 SWAP1 PUSH2 0x359F JUMP JUMPDEST PUSH1 0x40 MLOAD DUP1 SWAP2 SUB SWAP1 LOG1 JUMPDEST POP POP POP POP POP POP POP POP JUMP JUMPDEST PUSH1 0x32 PUSH1 0x0 SWAP1 SLOAD SWAP1 PUSH2 0x100 EXP SWAP1 DIV PUSH20 0xFFFFFFFFFFFFFFFFFFFFFFFFFFFFFFFFFFFFFFFF AND DUP2 JUMP JUMPDEST PUSH1 0x35 PUSH1 0x20 MSTORE DUP1 PUSH1 0x0 MSTORE PUSH1 0x40 PUSH1 0x0 KECCAK256 PUSH1 0x0 SWAP2 POP SLOAD SWAP1 PUSH2 0x100 EXP SWAP1 DIV PUSH1 0xFF AND DUP2 JUMP JUMPDEST PUSH1 0x0 DUP1 PUSH2 0x15D3 PUSH2 0x1739 JUMP JUMPDEST SWAP1 POP DUP1 PUSH1 0x1 ADD PUSH1 0x0 DUP6 PUSH20 0xFFFFFFFFFFFFFFFFFFFFFFFFFFFFFFFFFFFFFFFF AND PUSH20 0xFFFFFFFFFFFFFFFFFFFFFFFFFFFFFFFFFFFFFFFF AND DUP2 MSTORE PUSH1 0x20 ADD SWAP1 DUP2 MSTORE PUSH1 0x20 ADD PUSH1 0x0 KECCAK256 PUSH1 0x0 DUP5 PUSH20 0xFFFFFFFFFFFFFFFFFFFFFFFFFFFFFFFFFFFFFFFF AND PUSH20 0xFFFFFFFFFFFFFFFFFFFFFFFFFFFFFFFFFFFFFFFF AND DUP2 MSTORE PUSH1 0x20 ADD SWAP1 DUP2 MSTORE PUSH1 0x20 ADD PUSH1 0x0 KECCAK256 SLOAD SWAP2 POP POP SWAP3 SWAP2 POP POP JUMP JUMPDEST PUSH2 0x1665 PUSH2 0x177B JUMP JUMPDEST PUSH1 0x0 PUSH20 0xFFFFFFFFFFFFFFFFFFFFFFFFFFFFFFFFFFFFFFFF AND DUP2 PUSH20 0xFFFFFFFFFFFFFFFFFFFFFFFFFFFFFFFFFFFFFFFF AND SUB PUSH2 0x16D7 JUMPI PUSH1 0x0 PUSH1 0x40 MLOAD PUSH32 0x1E4FBDF700000000000000000000000000000000000000000000000000000000 DUP2 MSTORE PUSH1 0x4 ADD PUSH2 0x16CE SWAP2 SWAP1 PUSH2 0x2EA6 JUMP JUMPDEST PUSH1 0x40 MLOAD DUP1 SWAP2 SUB SWAP1 REVERT JUMPDEST PUSH2 0x16E0 DUP2 PUSH2 0x1B97 JUMP JUMPDEST POP JUMP JUMPDEST PUSH1 0x0 PUSH1 0x35 PUSH1 0x0 DUP4 PUSH20 0xFFFFFFFFFFFFFFFFFFFFFFFFFFFFFFFFFFFFFFFF AND PUSH20 0xFFFFFFFFFFFFFFFFFFFFFFFFFFFFFFFFFFFFFFFF AND DUP2 MSTORE PUSH1 0x20 ADD SWAP1 DUP2 MSTORE PUSH1 0x20 ADD PUSH1 0x0 KECCAK256 PUSH1 0x0 SWAP1 SLOAD SWAP1 PUSH2 0x100 EXP SWAP1 DIV PUSH1 0xFF AND SWAP1 POP SWAP2 SWAP1 POP JUMP JUMPDEST PUSH1 0x0 PUSH32 0x52C63247E1F47DB19D5CE0460030C497F067CA4CEBF71BA98EEADABE20BACE00 SWAP1 POP SWAP1 JUMP JUMPDEST PUSH1 0x0 CALLER SWAP1 POP SWAP1 JUMP JUMPDEST PUSH2 0x1776 DUP4 DUP4 DUP4 PUSH1 0x1 PUSH2 0x1EFF JUMP JUMPDEST POP POP POP JUMP JUMPDEST PUSH2 0x1783 PUSH2 0x1761 JUMP JUMPDEST PUSH20 0xFFFFFFFFFFFFFFFFFFFFFFFFFFFFFFFFFFFFFFFF AND PUSH2 0x17A1 PUSH2 0x1055 JUMP JUMPDEST PUSH20 0xFFFFFFFFFFFFFFFFFFFFFFFFFFFFFFFFFFFFFFFF AND EQ PUSH2 0x1800 JUMPI PUSH2 0x17C4 PUSH2 0x1761 JUMP JUMPDEST PUSH1 0x40 MLOAD PUSH32 0x118CDAA700000000000000000000000000000000000000000000000000000000 DUP2 MSTORE PUSH1 0x4 ADD PUSH2 0x17F7 SWAP2 SWAP1 PUSH2 0x2EA6 JUMP JUMPDEST PUSH1 0x40 MLOAD DUP1 SWAP2 SUB SWAP1 REVERT JUMPDEST JUMP JUMPDEST PUSH2 0x180A PUSH2 0xE4B JUMP JUMPDEST ISZERO PUSH2 0x184A JUMPI PUSH1 0x40 MLOAD PUSH32 0x8C379A000000000000000000000000000000000000000000000000000000000 DUP2 MSTORE PUSH1 0x4 ADD PUSH2 0x1841 SWAP1 PUSH2 0x3606 JUMP JUMPDEST PUSH1 0x40 MLOAD DUP1 SWAP2 SUB SWAP1 REVERT JUMPDEST JUMP JUMPDEST PUSH1 0x0 DUP1 PUSH2 0x1857 PUSH2 0x1761 JUMP JUMPDEST SWAP1 POP PUSH2 0x1864 DUP6 DUP3 DUP6 PUSH2 0x20E5 JUMP JUMPDEST PUSH2 0x186F DUP6 DUP6 DUP6 PUSH2 0x1CD0 JUMP JUMPDEST PUSH1 0x1 SWAP2 POP POP SWAP4 SWAP3 POP POP POP JUMP JUMPDEST PUSH1 0x0 DUP1 DUP3 PUSH20 0xFFFFFFFFFFFFFFFFFFFFFFFFFFFFFFFFFFFFFFFF AND EXTCODESIZE GT SWAP1 POP SWAP2 SWAP1 POP JUMP JUMPDEST PUSH2 0x18A6 PUSH2 0x2179 JUMP JUMPDEST PUSH1 0x0 DUP1 PUSH1 0x0 PUSH2 0x100 EXP DUP2 SLOAD DUP2 PUSH1 0xFF MUL NOT AND SWAP1 DUP4 ISZERO ISZERO MUL OR SWAP1 SSTORE POP PUSH32 0x5DB9EE0A495BF2E6FF9C91A7834C1BA4FDD244A5E8AA4E537BD38AEAE4B073AA PUSH2 0x18E9 PUSH2 0x1761 JUMP JUMPDEST PUSH1 0x40 MLOAD PUSH2 0x18F6 SWAP2 SWAP1 PUSH2 0x2EA6 JUMP JUMPDEST PUSH1 0x40 MLOAD DUP1 SWAP2 SUB SWAP1 LOG1 JUMP JUMPDEST PUSH32 0x0 PUSH20 0xFFFFFFFFFFFFFFFFFFFFFFFFFFFFFFFFFFFFFFFF AND ADDRESS PUSH20 0xFFFFFFFFFFFFFFFFFFFFFFFFFFFFFFFFFFFFFFFF AND EQ DUP1 PUSH2 0x19AD JUMPI POP PUSH32 0x0 PUSH20 0xFFFFFFFFFFFFFFFFFFFFFFFFFFFFFFFFFFFFFFFF AND PUSH2 0x1994 PUSH2 0x21C2 JUMP JUMPDEST PUSH20 0xFFFFFFFFFFFFFFFFFFFFFFFFFFFFFFFFFFFFFFFF AND EQ ISZERO JUMPDEST ISZERO PUSH2 0x19E4 JUMPI PUSH1 0x40 MLOAD PUSH32 0xE07C8DBA00000000000000000000000000000000000000000000000000000000 DUP2 MSTORE PUSH1 0x4 ADD PUSH1 0x40 MLOAD DUP1 SWAP2 SUB SWAP1 REVERT JUMPDEST JUMP JUMPDEST PUSH2 0x19EE PUSH2 0x177B JUMP JUMPDEST POP JUMP JUMPDEST DUP2 PUSH20 0xFFFFFFFFFFFFFFFFFFFFFFFFFFFFFFFFFFFFFFFF AND PUSH4 0x52D1902D PUSH1 0x40 MLOAD DUP2 PUSH4 0xFFFFFFFF AND PUSH1 0xE0 SHL DUP2 MSTORE PUSH1 0x4 ADD PUSH1 0x20 PUSH1 0x40 MLOAD DUP1 DUP4 SUB DUP2 DUP7 GAS STATICCALL SWAP3 POP POP POP DUP1 ISZERO PUSH2 0x1A59 JUMPI POP PUSH1 0x40 MLOAD RETURNDATASIZE PUSH1 0x1F NOT PUSH1 0x1F DUP3 ADD AND DUP3 ADD DUP1 PUSH1 0x40 MSTORE POP DUP2 ADD SWAP1 PUSH2 0x1A56 SWAP2 SWAP1 PUSH2 0x3652 JUMP JUMPDEST PUSH1 0x1 JUMPDEST PUSH2 0x1A9A JUMPI DUP2 PUSH1 0x40 MLOAD PUSH32 0x4C9C8CE300000000000000000000000000000000000000000000000000000000 DUP2 MSTORE PUSH1 0x4 ADD PUSH2 0x1A91 SWAP2 SWAP1 PUSH2 0x2EA6 JUMP JUMPDEST PUSH1 0x40 MLOAD DUP1 SWAP2 SUB SWAP1 REVERT JUMPDEST PUSH32 0x360894A13BA1A3210667C828492DB98DCA3E2076CC3735A920A3CA505D382BBC PUSH1 0x0 SHL DUP2 EQ PUSH2 0x1B01 JUMPI DUP1 PUSH1 0x40 MLOAD PUSH32 0xAA1D49A400000000000000000000000000000000000000000000000000000000 DUP2 MSTORE PUSH1 0x4 ADD PUSH2 0x1AF8 SWAP2 SWAP1 PUSH2 0x2D45 JUMP JUMPDEST PUSH1 0x40 MLOAD DUP1 SWAP2 SUB SWAP1 REVERT JUMPDEST PUSH2 0x1B0B DUP4 DUP4 PUSH2 0x2219 JUMP JUMPDEST POP POP POP JUMP JUMPDEST PUSH32 0x0 PUSH20 0xFFFFFFFFFFFFFFFFFFFFFFFFFFFFFFFFFFFFFFFF AND ADDRESS PUSH20 0xFFFFFFFFFFFFFFFFFFFFFFFFFFFFFFFFFFFFFFFF AND EQ PUSH2 0x1B95 JUMPI PUSH1 0x40 MLOAD PUSH32 0xE07C8DBA00000000000000000000000000000000000000000000000000000000 DUP2 MSTORE PUSH1 0x4 ADD PUSH1 0x40 MLOAD DUP1 SWAP2 SUB SWAP1 REVERT JUMPDEST JUMP JUMPDEST PUSH1 0x0 PUSH2 0x1BA1 PUSH2 0x1DC4 JUMP JUMPDEST SWAP1 POP PUSH1 0x0 DUP2 PUSH1 0x0 ADD PUSH1 0x0 SWAP1 SLOAD SWAP1 PUSH2 0x100 EXP SWAP1 DIV PUSH20 0xFFFFFFFFFFFFFFFFFFFFFFFFFFFFFFFFFFFFFFFF AND SWAP1 POP DUP3 DUP3 PUSH1 0x0 ADD PUSH1 0x0 PUSH2 0x100 EXP DUP2 SLOAD DUP2 PUSH20 0xFFFFFFFFFFFFFFFFFFFFFFFFFFFFFFFFFFFFFFFF MUL NOT AND SWAP1 DUP4 PUSH20 0xFFFFFFFFFFFFFFFFFFFFFFFFFFFFFFFFFFFFFFFF AND MUL OR SWAP1 SSTORE POP DUP3 PUSH20 0xFFFFFFFFFFFFFFFFFFFFFFFFFFFFFFFFFFFFFFFF AND DUP2 PUSH20 0xFFFFFFFFFFFFFFFFFFFFFFFFFFFFFFFFFFFFFFFF AND PUSH32 0x8BE0079C531659141344CD1FD0A4F28419497F9722A3DAAFE3B4186F6B6457E0 PUSH1 0x40 MLOAD PUSH1 0x40 MLOAD DUP1 SWAP2 SUB SWAP1 LOG3 POP POP POP JUMP JUMPDEST PUSH2 0x1C76 PUSH2 0x1802 JUMP JUMPDEST PUSH1 0x1 PUSH1 0x0 DUP1 PUSH2 0x100 EXP DUP2 SLOAD DUP2 PUSH1 0xFF MUL NOT AND SWAP1 DUP4 ISZERO ISZERO MUL OR SWAP1 SSTORE POP PUSH32 0x62E78CEA01BEE320CD4E420270B5EA74000D11B0C9F74754EBDBFC544B05A258 PUSH2 0x1CB9 PUSH2 0x1761 JUMP JUMPDEST PUSH1 0x40 MLOAD PUSH2 0x1CC6 SWAP2 SWAP1 PUSH2 0x2EA6 JUMP JUMPDEST PUSH1 0x40 MLOAD DUP1 SWAP2 SUB SWAP1 LOG1 JUMP JUMPDEST PUSH1 0x0 PUSH20 0xFFFFFFFFFFFFFFFFFFFFFFFFFFFFFFFFFFFFFFFF AND DUP4 PUSH20 0xFFFFFFFFFFFFFFFFFFFFFFFFFFFFFFFFFFFFFFFF AND SUB PUSH2 0x1D42 JUMPI PUSH1 0x0 PUSH1 0x40 MLOAD PUSH32 0x96C6FD1E00000000000000000000000000000000000000000000000000000000 DUP2 MSTORE PUSH1 0x4 ADD PUSH2 0x1D39 SWAP2 SWAP1 PUSH2 0x2EA6 JUMP JUMPDEST PUSH1 0x40 MLOAD DUP1 SWAP2 SUB SWAP1 REVERT JUMPDEST PUSH1 0x0 PUSH20 0xFFFFFFFFFFFFFFFFFFFFFFFFFFFFFFFFFFFFFFFF AND DUP3 PUSH20 0xFFFFFFFFFFFFFFFFFFFFFFFFFFFFFFFFFFFFFFFF AND SUB PUSH2 0x1DB4 JUMPI PUSH1 0x0 PUSH1 0x40 MLOAD PUSH32 0xEC442F0500000000000000000000000000000000000000000000000000000000 DUP2 MSTORE PUSH1 0x4 ADD PUSH2 0x1DAB SWAP2 SWAP1 PUSH2 0x2EA6 JUMP JUMPDEST PUSH1 0x40 MLOAD DUP1 SWAP2 SUB SWAP1 REVERT JUMPDEST PUSH2 0x1DBF DUP4 DUP4 DUP4 PUSH2 0x228C JUMP JUMPDEST POP POP POP JUMP JUMPDEST PUSH1 0x0 PUSH32 0x9016D09D72D40FDAE2FD8CEAC6B6234C7706214FD39C1CD1E609A0528C199300 SWAP1 POP SWAP1 JUMP JUMPDEST PUSH1 0x0 DUP1 PUSH2 0x1DF7 PUSH2 0x1761 JUMP JUMPDEST SWAP1 POP PUSH2 0x1E04 DUP2 DUP6 DUP6 PUSH2 0x1CD0 JUMP JUMPDEST PUSH1 0x1 SWAP2 POP POP SWAP3 SWAP2 POP POP JUMP JUMPDEST PUSH1 0x0 PUSH32 0xF0C57E16840DF040F15088DC2F81FE391C3923BEC73E23A9662EFC9C229C6A00 SWAP1 POP SWAP1 JUMP JUMPDEST PUSH2 0x1E3F PUSH2 0x24CB JUMP JUMPDEST PUSH2 0x1E49 DUP3 DUP3 PUSH2 0x250B JUMP JUMPDEST POP POP JUMP JUMPDEST PUSH2 0x1E55 PUSH2 0x24CB JUMP JUMPDEST PUSH2 0x1E5E DUP2 PUSH2 0x2548 JUMP JUMPDEST POP JUMP JUMPDEST PUSH2 0x1E69 PUSH2 0x24CB JUMP JUMPDEST PUSH2 0x1E71 PUSH2 0x25CE JUMP JUMPDEST JUMP JUMPDEST PUSH2 0x1E7B PUSH2 0x24CB JUMP JUMPDEST JUMP JUMPDEST PUSH1 0x0 PUSH20 0xFFFFFFFFFFFFFFFFFFFFFFFFFFFFFFFFFFFFFFFF AND DUP3 PUSH20 0xFFFFFFFFFFFFFFFFFFFFFFFFFFFFFFFFFFFFFFFF AND SUB PUSH2 0x1EEF JUMPI PUSH1 0x0 PUSH1 0x40 MLOAD PUSH32 0xEC442F0500000000000000000000000000000000000000000000000000000000 DUP2 MSTORE PUSH1 0x4 ADD PUSH2 0x1EE6 SWAP2 SWAP1 PUSH2 0x2EA6 JUMP JUMPDEST PUSH1 0x40 MLOAD DUP1 SWAP2 SUB SWAP1 REVERT JUMPDEST PUSH2 0x1EFB PUSH1 0x0 DUP4 DUP4 PUSH2 0x228C JUMP JUMPDEST POP POP JUMP JUMPDEST PUSH1 0x0 PUSH2 0x1F09 PUSH2 0x1739 JUMP JUMPDEST SWAP1 POP PUSH1 0x0 PUSH20 0xFFFFFFFFFFFFFFFFFFFFFFFFFFFFFFFFFFFFFFFF AND DUP6 PUSH20 0xFFFFFFFFFFFFFFFFFFFFFFFFFFFFFFFFFFFFFFFF AND SUB PUSH2 0x1F7D JUMPI PUSH1 0x0 PUSH1 0x40 MLOAD PUSH32 0xE602DF0500000000000000000000000000000000000000000000000000000000 DUP2 MSTORE PUSH1 0x4 ADD PUSH2 0x1F74 SWAP2 SWAP1 PUSH2 0x2EA6 JUMP JUMPDEST PUSH1 0x40 MLOAD DUP1 SWAP2 SUB SWAP1 REVERT JUMPDEST PUSH1 0x0 PUSH20 0xFFFFFFFFFFFFFFFFFFFFFFFFFFFFFFFFFFFFFFFF AND DUP5 PUSH20 0xFFFFFFFFFFFFFFFFFFFFFFFFFFFFFFFFFFFFFFFF AND SUB PUSH2 0x1FEF JUMPI PUSH1 0x0 PUSH1 0x40 MLOAD PUSH32 0x94280D6200000000000000000000000000000000000000000000000000000000 DUP2 MSTORE PUSH1 0x4 ADD PUSH2 0x1FE6 SWAP2 SWAP1 PUSH2 0x2EA6 JUMP JUMPDEST PUSH1 0x40 MLOAD DUP1 SWAP2 SUB SWAP1 REVERT JUMPDEST DUP3 DUP2 PUSH1 0x1 ADD PUSH1 0x0 DUP8 PUSH20 0xFFFFFFFFFFFFFFFFFFFFFFFFFFFFFFFFFFFFFFFF AND PUSH20 0xFFFFFFFFFFFFFFFFFFFFFFFFFFFFFFFFFFFFFFFF AND DUP2 MSTORE PUSH1 0x20 ADD SWAP1 DUP2 MSTORE PUSH1 0x20 ADD PUSH1 0x0 KECCAK256 PUSH1 0x0 DUP7 PUSH20 0xFFFFFFFFFFFFFFFFFFFFFFFFFFFFFFFFFFFFFFFF AND PUSH20 0xFFFFFFFFFFFFFFFFFFFFFFFFFFFFFFFFFFFFFFFF AND DUP2 MSTORE PUSH1 0x20 ADD SWAP1 DUP2 MSTORE PUSH1 0x20 ADD PUSH1 0x0 KECCAK256 DUP2 SWAP1 SSTORE POP DUP2 ISZERO PUSH2 0x20DE JUMPI DUP4 PUSH20 0xFFFFFFFFFFFFFFFFFFFFFFFFFFFFFFFFFFFFFFFF AND DUP6 PUSH20 0xFFFFFFFFFFFFFFFFFFFFFFFFFFFFFFFFFFFFFFFF AND PUSH32 0x8C5BE1E5EBEC7D5BD14F71427D1E84F3DD0314C0F7B2291E5B200AC8C7C3B925 DUP6 PUSH1 0x40 MLOAD PUSH2 0x20D5 SWAP2 SWAP1 PUSH2 0x2AC9 JUMP JUMPDEST PUSH1 0x40 MLOAD DUP1 SWAP2 SUB SWAP1 LOG3 JUMPDEST POP POP POP POP POP JUMP JUMPDEST PUSH1 0x0 PUSH2 0x20F1 DUP5 DUP5 PUSH2 0x15C8 JUMP JUMPDEST SWAP1 POP PUSH32 0xFFFFFFFFFFFFFFFFFFFFFFFFFFFFFFFFFFFFFFFFFFFFFFFFFFFFFFFFFFFFFFFF DUP2 EQ PUSH2 0x2173 JUMPI DUP2 DUP2 LT ISZERO PUSH2 0x2163 JUMPI DUP3 DUP2 DUP4 PUSH1 0x40 MLOAD PUSH32 0xFB8F41B200000000000000000000000000000000000000000000000000000000 DUP2 MSTORE PUSH1 0x4 ADD PUSH2 0x215A SWAP4 SWAP3 SWAP2 SWAP1 PUSH2 0x367F JUMP JUMPDEST PUSH1 0x40 MLOAD DUP1 SWAP2 SUB SWAP1 REVERT JUMPDEST PUSH2 0x2172 DUP5 DUP5 DUP5 DUP5 SUB PUSH1 0x0 PUSH2 0x1EFF JUMP JUMPDEST JUMPDEST POP POP POP POP JUMP JUMPDEST PUSH2 0x2181 PUSH2 0xE4B JUMP JUMPDEST PUSH2 0x21C0 JUMPI PUSH1 0x40 MLOAD PUSH32 0x8C379A000000000000000000000000000000000000000000000000000000000 DUP2 MSTORE PUSH1 0x4 ADD PUSH2 0x21B7 SWAP1 PUSH2 0x3702 JUMP JUMPDEST PUSH1 0x40 MLOAD DUP1 SWAP2 SUB SWAP1 REVERT JUMPDEST JUMP JUMPDEST PUSH1 0x0 PUSH2 0x21F0 PUSH32 0x360894A13BA1A3210667C828492DB98DCA3E2076CC3735A920A3CA505D382BBC PUSH1 0x0 SHL PUSH2 0x25F2 JUMP JUMPDEST PUSH1 0x0 ADD PUSH1 0x0 SWAP1 SLOAD SWAP1 PUSH2 0x100 EXP SWAP1 DIV PUSH20 0xFFFFFFFFFFFFFFFFFFFFFFFFFFFFFFFFFFFFFFFF AND SWAP1 POP SWAP1 JUMP JUMPDEST PUSH2 0x2222 DUP3 PUSH2 0x25FC JUMP JUMPDEST DUP2 PUSH20 0xFFFFFFFFFFFFFFFFFFFFFFFFFFFFFFFFFFFFFFFF AND PUSH32 0xBC7CD75A20EE27FD9ADEBAB32041F755214DBC6BFFA90CC0225B39DA2E5C2D3B PUSH1 0x40 MLOAD PUSH1 0x40 MLOAD DUP1 SWAP2 SUB SWAP1 LOG2 PUSH1 0x0 DUP2 MLOAD GT ISZERO PUSH2 0x227F JUMPI PUSH2 0x2279 DUP3 DUP3 PUSH2 0x26C9 JUMP JUMPDEST POP PUSH2 0x2288 JUMP JUMPDEST PUSH2 0x2287 PUSH2 0x274D JUMP JUMPDEST JUMPDEST POP POP JUMP JUMPDEST PUSH1 0x0 PUSH2 0x2296 PUSH2 0x1739 JUMP JUMPDEST SWAP1 POP PUSH1 0x0 PUSH20 0xFFFFFFFFFFFFFFFFFFFFFFFFFFFFFFFFFFFFFFFF AND DUP5 PUSH20 0xFFFFFFFFFFFFFFFFFFFFFFFFFFFFFFFFFFFFFFFF AND SUB PUSH2 0x22EC JUMPI DUP2 DUP2 PUSH1 0x2 ADD PUSH1 0x0 DUP3 DUP3 SLOAD PUSH2 0x22E0 SWAP2 SWAP1 PUSH2 0x3751 JUMP JUMPDEST SWAP3 POP POP DUP2 SWAP1 SSTORE POP PUSH2 0x23C5 JUMP JUMPDEST PUSH1 0x0 DUP2 PUSH1 0x0 ADD PUSH1 0x0 DUP7 PUSH20 0xFFFFFFFFFFFFFFFFFFFFFFFFFFFFFFFFFFFFFFFF AND PUSH20 0xFFFFFFFFFFFFFFFFFFFFFFFFFFFFFFFFFFFFFFFF AND DUP2 MSTORE PUSH1 0x20 ADD SWAP1 DUP2 MSTORE PUSH1 0x20 ADD PUSH1 0x0 KECCAK256 SLOAD SWAP1 POP DUP3 DUP2 LT ISZERO PUSH2 0x237B JUMPI DUP5 DUP2 DUP5 PUSH1 0x40 MLOAD PUSH32 0xE450D38C00000000000000000000000000000000000000000000000000000000 DUP2 MSTORE PUSH1 0x4 ADD PUSH2 0x2372 SWAP4 SWAP3 SWAP2 SWAP1 PUSH2 0x367F JUMP JUMPDEST PUSH1 0x40 MLOAD DUP1 SWAP2 SUB SWAP1 REVERT JUMPDEST DUP3 DUP2 SUB DUP3 PUSH1 0x0 ADD PUSH1 0x0 DUP8 PUSH20 0xFFFFFFFFFFFFFFFFFFFFFFFFFFFFFFFFFFFFFFFF AND PUSH20 0xFFFFFFFFFFFFFFFFFFFFFFFFFFFFFFFFFFFFFFFF AND DUP2 MSTORE PUSH1 0x20 ADD SWAP1 DUP2 MSTORE PUSH1 0x20 ADD PUSH1 0x0 KECCAK256 DUP2 SWAP1 SSTORE POP POP JUMPDEST PUSH1 0x0 PUSH20 0xFFFFFFFFFFFFFFFFFFFFFFFFFFFFFFFFFFFFFFFF AND DUP4 PUSH20 0xFFFFFFFFFFFFFFFFFFFFFFFFFFFFFFFFFFFFFFFF AND SUB PUSH2 0x2410 JUMPI DUP2 DUP2 PUSH1 0x2 ADD PUSH1 0x0 DUP3 DUP3 SLOAD SUB SWAP3 POP POP DUP2 SWAP1 SSTORE POP PUSH2 0x2460 JUMP JUMPDEST DUP2 DUP2 PUSH1 0x0 ADD PUSH1 0x0 DUP6 PUSH20 0xFFFFFFFFFFFFFFFFFFFFFFFFFFFFFFFFFFFFFFFF AND PUSH20 0xFFFFFFFFFFFFFFFFFFFFFFFFFFFFFFFFFFFFFFFF AND DUP2 MSTORE PUSH1 0x20 ADD SWAP1 DUP2 MSTORE PUSH1 0x20 ADD PUSH1 0x0 KECCAK256 PUSH1 0x0 DUP3 DUP3 SLOAD ADD SWAP3 POP POP DUP2 SWAP1 SSTORE POP JUMPDEST DUP3 PUSH20 0xFFFFFFFFFFFFFFFFFFFFFFFFFFFFFFFFFFFFFFFF AND DUP5 PUSH20 0xFFFFFFFFFFFFFFFFFFFFFFFFFFFFFFFFFFFFFFFF AND PUSH32 0xDDF252AD1BE2C89B69C2B068FC378DAA952BA7F163C4A11628F55A4DF523B3EF DUP5 PUSH1 0x40 MLOAD PUSH2 0x24BD SWAP2 SWAP1 PUSH2 0x2AC9 JUMP JUMPDEST PUSH1 0x40 MLOAD DUP1 SWAP2 SUB SWAP1 LOG3 POP POP POP POP JUMP JUMPDEST PUSH2 0x24D3 PUSH2 0x278A JUMP JUMPDEST PUSH2 0x2509 JUMPI PUSH1 0x40 MLOAD PUSH32 0xD7E6BCF800000000000000000000000000000000000000000000000000000000 DUP2 MSTORE PUSH1 0x4 ADD PUSH1 0x40 MLOAD DUP1 SWAP2 SUB SWAP1 REVERT JUMPDEST JUMP JUMPDEST PUSH2 0x2513 PUSH2 0x24CB JUMP JUMPDEST PUSH1 0x0 PUSH2 0x251D PUSH2 0x1739 JUMP JUMPDEST SWAP1 POP DUP3 DUP2 PUSH1 0x3 ADD SWAP1 DUP2 PUSH2 0x2530 SWAP2 SWAP1 PUSH2 0x3927 JUMP JUMPDEST POP DUP2 DUP2 PUSH1 0x4 ADD SWAP1 DUP2 PUSH2 0x2542 SWAP2 SWAP1 PUSH2 0x3927 JUMP JUMPDEST POP POP POP POP JUMP JUMPDEST PUSH2 0x2550 PUSH2 0x24CB JUMP JUMPDEST PUSH1 0x0 PUSH20 0xFFFFFFFFFFFFFFFFFFFFFFFFFFFFFFFFFFFFFFFF AND DUP2 PUSH20 0xFFFFFFFFFFFFFFFFFFFFFFFFFFFFFFFFFFFFFFFF AND SUB PUSH2 0x25C2 JUMPI PUSH1 0x0 PUSH1 0x40 MLOAD PUSH32 0x1E4FBDF700000000000000000000000000000000000000000000000000000000 DUP2 MSTORE PUSH1 0x4 ADD PUSH2 0x25B9 SWAP2 SWAP1 PUSH2 0x2EA6 JUMP JUMPDEST PUSH1 0x40 MLOAD DUP1 SWAP2 SUB SWAP1 REVERT JUMPDEST PUSH2 0x25CB DUP2 PUSH2 0x1B97 JUMP JUMPDEST POP JUMP JUMPDEST PUSH2 0x25D6 PUSH2 0x24CB JUMP JUMPDEST PUSH1 0x0 DUP1 PUSH1 0x0 PUSH2 0x100 EXP DUP2 SLOAD DUP2 PUSH1 0xFF MUL NOT AND SWAP1 DUP4 ISZERO ISZERO MUL OR SWAP1 SSTORE POP JUMP JUMPDEST PUSH1 0x0 DUP2 SWAP1 POP SWAP2 SWAP1 POP JUMP JUMPDEST PUSH1 0x0 DUP2 PUSH20 0xFFFFFFFFFFFFFFFFFFFFFFFFFFFFFFFFFFFFFFFF AND EXTCODESIZE SUB PUSH2 0x2658 JUMPI DUP1 PUSH1 0x40 MLOAD PUSH32 0x4C9C8CE300000000000000000000000000000000000000000000000000000000 DUP2 MSTORE PUSH1 0x4 ADD PUSH2 0x264F SWAP2 SWAP1 PUSH2 0x2EA6 JUMP JUMPDEST PUSH1 0x40 MLOAD DUP1 SWAP2 SUB SWAP1 REVERT JUMPDEST DUP1 PUSH2 0x2685 PUSH32 0x360894A13BA1A3210667C828492DB98DCA3E2076CC3735A920A3CA505D382BBC PUSH1 0x0 SHL PUSH2 0x25F2 JUMP JUMPDEST PUSH1 0x0 ADD PUSH1 0x0 PUSH2 0x100 EXP DUP2 SLOAD DUP2 PUSH20 0xFFFFFFFFFFFFFFFFFFFFFFFFFFFFFFFFFFFFFFFF MUL NOT AND SWAP1 DUP4 PUSH20 0xFFFFFFFFFFFFFFFFFFFFFFFFFFFFFFFFFFFFFFFF AND MUL OR SWAP1 SSTORE POP POP JUMP JUMPDEST PUSH1 0x60 PUSH1 0x0 DUP1 DUP5 PUSH20 0xFFFFFFFFFFFFFFFFFFFFFFFFFFFFFFFFFFFFFFFF AND DUP5 PUSH1 0x40 MLOAD PUSH2 0x26F3 SWAP2 SWAP1 PUSH2 0x3A40 JUMP JUMPDEST PUSH1 0x0 PUSH1 0x40 MLOAD DUP1 DUP4 SUB DUP2 DUP6 GAS DELEGATECALL SWAP2 POP POP RETURNDATASIZE DUP1 PUSH1 0x0 DUP2 EQ PUSH2 0x272E JUMPI PUSH1 0x40 MLOAD SWAP2 POP PUSH1 0x1F NOT PUSH1 0x3F RETURNDATASIZE ADD AND DUP3 ADD PUSH1 0x40 MSTORE RETURNDATASIZE DUP3 MSTORE RETURNDATASIZE PUSH1 0x0 PUSH1 0x20 DUP5 ADD RETURNDATACOPY PUSH2 0x2733 JUMP JUMPDEST PUSH1 0x60 SWAP2 POP JUMPDEST POP SWAP2 POP SWAP2 POP PUSH2 0x2743 DUP6 DUP4 DUP4 PUSH2 0x27AA JUMP JUMPDEST SWAP3 POP POP POP SWAP3 SWAP2 POP POP JUMP JUMPDEST PUSH1 0x0 CALLVALUE GT ISZERO PUSH2 0x2788 JUMPI PUSH1 0x40 MLOAD PUSH32 0xB398979F00000000000000000000000000000000000000000000000000000000 DUP2 MSTORE PUSH1 0x4 ADD PUSH1 0x40 MLOAD DUP1 SWAP2 SUB SWAP1 REVERT JUMPDEST JUMP JUMPDEST PUSH1 0x0 PUSH2 0x2794 PUSH2 0x1E0F JUMP JUMPDEST PUSH1 0x0 ADD PUSH1 0x8 SWAP1 SLOAD SWAP1 PUSH2 0x100 EXP SWAP1 DIV PUSH1 0xFF AND SWAP1 POP SWAP1 JUMP JUMPDEST PUSH1 0x60 DUP3 PUSH2 0x27BF JUMPI PUSH2 0x27BA DUP3 PUSH2 0x2839 JUMP JUMPDEST PUSH2 0x2831 JUMP JUMPDEST PUSH1 0x0 DUP3 MLOAD EQ DUP1 ISZERO PUSH2 0x27E7 JUMPI POP PUSH1 0x0 DUP5 PUSH20 0xFFFFFFFFFFFFFFFFFFFFFFFFFFFFFFFFFFFFFFFF AND EXTCODESIZE EQ JUMPDEST ISZERO PUSH2 0x2829 JUMPI DUP4 PUSH1 0x40 MLOAD PUSH32 0x9996B31500000000000000000000000000000000000000000000000000000000 DUP2 MSTORE PUSH1 0x4 ADD PUSH2 0x2820 SWAP2 SWAP1 PUSH2 0x2EA6 JUMP JUMPDEST PUSH1 0x40 MLOAD DUP1 SWAP2 SUB SWAP1 REVERT JUMPDEST DUP2 SWAP1 POP PUSH2 0x2832 JUMP JUMPDEST JUMPDEST SWAP4 SWAP3 POP POP POP JUMP JUMPDEST PUSH1 0x0 DUP2 MLOAD GT ISZERO PUSH2 0x284C JUMPI DUP1 MLOAD DUP1 DUP3 PUSH1 0x20 ADD REVERT JUMPDEST PUSH1 0x40 MLOAD PUSH32 0xD6BDA27500000000000000000000000000000000000000000000000000000000 DUP2 MSTORE PUSH1 0x4 ADD PUSH1 0x40 MLOAD DUP1 SWAP2 SUB SWAP1 REVERT JUMPDEST PUSH1 0x0 DUP2 MLOAD SWAP1 POP SWAP2 SWAP1 POP JUMP JUMPDEST PUSH1 0x0 DUP3 DUP3 MSTORE PUSH1 0x20 DUP3 ADD SWAP1 POP SWAP3 SWAP2 POP POP JUMP JUMPDEST PUSH1 0x0 JUMPDEST DUP4 DUP2 LT ISZERO PUSH2 0x28B8 JUMPI DUP1 DUP3 ADD MLOAD DUP2 DUP5 ADD MSTORE PUSH1 0x20 DUP2 ADD SWAP1 POP PUSH2 0x289D JUMP JUMPDEST PUSH1 0x0 DUP5 DUP5 ADD MSTORE POP POP POP POP JUMP JUMPDEST PUSH1 0x0 PUSH1 0x1F NOT PUSH1 0x1F DUP4 ADD AND SWAP1 POP SWAP2 SWAP1 POP JUMP JUMPDEST PUSH1 0x0 PUSH2 0x28E0 DUP3 PUSH2 0x287E JUMP JUMPDEST PUSH2 0x28EA DUP2 DUP6 PUSH2 0x2889 JUMP JUMPDEST SWAP4 POP PUSH2 0x28FA DUP2 DUP6 PUSH1 0x20 DUP7 ADD PUSH2 0x289A JUMP JUMPDEST PUSH2 0x2903 DUP2 PUSH2 0x28C4 JUMP JUMPDEST DUP5 ADD SWAP2 POP POP SWAP3 SWAP2 POP POP JUMP JUMPDEST PUSH1 0x0 PUSH1 0x20 DUP3 ADD SWAP1 POP DUP2 DUP2 SUB PUSH1 0x0 DUP4 ADD MSTORE PUSH2 0x2928 DUP2 DUP5 PUSH2 0x28D5 JUMP JUMPDEST SWAP1 POP SWAP3 SWAP2 POP POP JUMP JUMPDEST PUSH1 0x0 PUSH1 0x40 MLOAD SWAP1 POP SWAP1 JUMP JUMPDEST PUSH1 0x0 DUP1 REVERT JUMPDEST PUSH1 0x0 DUP1 REVERT JUMPDEST PUSH1 0x0 PUSH20 0xFFFFFFFFFFFFFFFFFFFFFFFFFFFFFFFFFFFFFFFF DUP3 AND SWAP1 POP SWAP2 SWAP1 POP JUMP JUMPDEST PUSH1 0x0 PUSH2 0x296F DUP3 PUSH2 0x2944 JUMP JUMPDEST SWAP1 POP SWAP2 SWAP1 POP JUMP JUMPDEST PUSH2 0x297F DUP2 PUSH2 0x2964 JUMP JUMPDEST DUP2 EQ PUSH2 0x298A JUMPI PUSH1 0x0 DUP1 REVERT JUMPDEST POP JUMP JUMPDEST PUSH1 0x0 DUP2 CALLDATALOAD SWAP1 POP PUSH2 0x299C DUP2 PUSH2 0x2976 JUMP JUMPDEST SWAP3 SWAP2 POP POP JUMP JUMPDEST PUSH1 0x0 DUP2 SWAP1 POP SWAP2 SWAP1 POP JUMP JUMPDEST PUSH2 0x29B5 DUP2 PUSH2 0x29A2 JUMP JUMPDEST DUP2 EQ PUSH2 0x29C0 JUMPI PUSH1 0x0 DUP1 REVERT JUMPDEST POP JUMP JUMPDEST PUSH1 0x0 DUP2 CALLDATALOAD SWAP1 POP PUSH2 0x29D2 DUP2 PUSH2 0x29AC JUMP JUMPDEST SWAP3 SWAP2 POP POP JUMP JUMPDEST PUSH1 0x0 DUP1 PUSH1 0x40 DUP4 DUP6 SUB SLT ISZERO PUSH2 0x29EF JUMPI PUSH2 0x29EE PUSH2 0x293A JUMP JUMPDEST JUMPDEST PUSH1 0x0 PUSH2 0x29FD DUP6 DUP3 DUP7 ADD PUSH2 0x298D JUMP JUMPDEST SWAP3 POP POP PUSH1 0x20 PUSH2 0x2A0E DUP6 DUP3 DUP7 ADD PUSH2 0x29C3 JUMP JUMPDEST SWAP2 POP POP SWAP3 POP SWAP3 SWAP1 POP JUMP JUMPDEST PUSH1 0x0 DUP2 ISZERO ISZERO SWAP1 POP SWAP2 SWAP1 POP JUMP JUMPDEST PUSH2 0x2A2D DUP2 PUSH2 0x2A18 JUMP JUMPDEST DUP3 MSTORE POP POP JUMP JUMPDEST PUSH1 0x0 PUSH1 0x20 DUP3 ADD SWAP1 POP PUSH2 0x2A48 PUSH1 0x0 DUP4 ADD DUP5 PUSH2 0x2A24 JUMP JUMPDEST SWAP3 SWAP2 POP POP JUMP JUMPDEST PUSH2 0x2A57 DUP2 PUSH2 0x2A18 JUMP JUMPDEST DUP2 EQ PUSH2 0x2A62 JUMPI PUSH1 0x0 DUP1 REVERT JUMPDEST POP JUMP JUMPDEST PUSH1 0x0 DUP2 CALLDATALOAD SWAP1 POP PUSH2 0x2A74 DUP2 PUSH2 0x2A4E JUMP JUMPDEST SWAP3 SWAP2 POP POP JUMP JUMPDEST PUSH1 0x0 DUP1 PUSH1 0x40 DUP4 DUP6 SUB SLT ISZERO PUSH2 0x2A91 JUMPI PUSH2 0x2A90 PUSH2 0x293A JUMP JUMPDEST JUMPDEST PUSH1 0x0 PUSH2 0x2A9F DUP6 DUP3 DUP7 ADD PUSH2 0x298D JUMP JUMPDEST SWAP3 POP POP PUSH1 0x20 PUSH2 0x2AB0 DUP6 DUP3 DUP7 ADD PUSH2 0x2A65 JUMP JUMPDEST SWAP2 POP POP SWAP3 POP SWAP3 SWAP1 POP JUMP JUMPDEST PUSH2 0x2AC3 DUP2 PUSH2 0x29A2 JUMP JUMPDEST DUP3 MSTORE POP POP JUMP JUMPDEST PUSH1 0x0 PUSH1 0x20 DUP3 ADD SWAP1 POP PUSH2 0x2ADE PUSH1 0x0 DUP4 ADD DUP5 PUSH2 0x2ABA JUMP JUMPDEST SWAP3 SWAP2 POP POP JUMP JUMPDEST PUSH1 0x0 DUP1 PUSH1 0x0 PUSH1 0x60 DUP5 DUP7 SUB SLT ISZERO PUSH2 0x2AFD JUMPI PUSH2 0x2AFC PUSH2 0x293A JUMP JUMPDEST JUMPDEST PUSH1 0x0 PUSH2 0x2B0B DUP7 DUP3 DUP8 ADD PUSH2 0x298D JUMP JUMPDEST SWAP4 POP POP PUSH1 0x20 PUSH2 0x2B1C DUP7 DUP3 DUP8 ADD PUSH2 0x298D JUMP JUMPDEST SWAP3 POP POP PUSH1 0x40 PUSH2 0x2B2D DUP7 DUP3 DUP8 ADD PUSH2 0x29C3 JUMP JUMPDEST SWAP2 POP POP SWAP3 POP SWAP3 POP SWAP3 JUMP JUMPDEST PUSH1 0x0 PUSH1 0x20 DUP3 DUP5 SUB SLT ISZERO PUSH2 0x2B4D JUMPI PUSH2 0x2B4C PUSH2 0x293A JUMP JUMPDEST JUMPDEST PUSH1 0x0 PUSH2 0x2B5B DUP5 DUP3 DUP6 ADD PUSH2 0x298D JUMP JUMPDEST SWAP2 POP POP SWAP3 SWAP2 POP POP JUMP JUMPDEST PUSH1 0x0 PUSH1 0xFF DUP3 AND SWAP1 POP SWAP2 SWAP1 POP JUMP JUMPDEST PUSH2 0x2B7A DUP2 PUSH2 0x2B64 JUMP JUMPDEST DUP3 MSTORE POP POP JUMP JUMPDEST PUSH1 0x0 PUSH1 0x20 DUP3 ADD SWAP1 POP PUSH2 0x2B95 PUSH1 0x0 DUP4 ADD DUP5 PUSH2 0x2B71 JUMP JUMPDEST SWAP3 SWAP2 POP POP JUMP JUMPDEST PUSH1 0x0 DUP1 REVERT JUMPDEST PUSH1 0x0 DUP1 REVERT JUMPDEST PUSH32 0x4E487B7100000000000000000000000000000000000000000000000000000000 PUSH1 0x0 MSTORE PUSH1 0x41 PUSH1 0x4 MSTORE PUSH1 0x24 PUSH1 0x0 REVERT JUMPDEST PUSH2 0x2BDD DUP3 PUSH2 0x28C4 JUMP JUMPDEST DUP2 ADD DUP2 DUP2 LT PUSH8 0xFFFFFFFFFFFFFFFF DUP3 GT OR ISZERO PUSH2 0x2BFC JUMPI PUSH2 0x2BFB PUSH2 0x2BA5 JUMP JUMPDEST JUMPDEST DUP1 PUSH1 0x40 MSTORE POP POP POP JUMP JUMPDEST PUSH1 0x0 PUSH2 0x2C0F PUSH2 0x2930 JUMP JUMPDEST SWAP1 POP PUSH2 0x2C1B DUP3 DUP3 PUSH2 0x2BD4 JUMP JUMPDEST SWAP2 SWAP1 POP JUMP JUMPDEST PUSH1 0x0 PUSH8 0xFFFFFFFFFFFFFFFF DUP3 GT ISZERO PUSH2 0x2C3B JUMPI PUSH2 0x2C3A PUSH2 0x2BA5 JUMP JUMPDEST JUMPDEST PUSH2 0x2C44 DUP3 PUSH2 0x28C4 JUMP JUMPDEST SWAP1 POP PUSH1 0x20 DUP2 ADD SWAP1 POP SWAP2 SWAP1 POP JUMP JUMPDEST DUP3 DUP2 DUP4 CALLDATACOPY PUSH1 0x0 DUP4 DUP4 ADD MSTORE POP POP POP JUMP JUMPDEST PUSH1 0x0 PUSH2 0x2C73 PUSH2 0x2C6E DUP5 PUSH2 0x2C20 JUMP JUMPDEST PUSH2 0x2C05 JUMP JUMPDEST SWAP1 POP DUP3 DUP2 MSTORE PUSH1 0x20 DUP2 ADD DUP5 DUP5 DUP5 ADD GT ISZERO PUSH2 0x2C8F JUMPI PUSH2 0x2C8E PUSH2 0x2BA0 JUMP JUMPDEST JUMPDEST PUSH2 0x2C9A DUP5 DUP3 DUP6 PUSH2 0x2C51 JUMP JUMPDEST POP SWAP4 SWAP3 POP POP POP JUMP JUMPDEST PUSH1 0x0 DUP3 PUSH1 0x1F DUP4 ADD SLT PUSH2 0x2CB7 JUMPI PUSH2 0x2CB6 PUSH2 0x2B9B JUMP JUMPDEST JUMPDEST DUP2 CALLDATALOAD PUSH2 0x2CC7 DUP5 DUP3 PUSH1 0x20 DUP7 ADD PUSH2 0x2C60 JUMP JUMPDEST SWAP2 POP POP SWAP3 SWAP2 POP POP JUMP JUMPDEST PUSH1 0x0 DUP1 PUSH1 0x40 DUP4 DUP6 SUB SLT ISZERO PUSH2 0x2CE7 JUMPI PUSH2 0x2CE6 PUSH2 0x293A JUMP JUMPDEST JUMPDEST PUSH1 0x0 PUSH2 0x2CF5 DUP6 DUP3 DUP7 ADD PUSH2 0x298D JUMP JUMPDEST SWAP3 POP POP PUSH1 0x20 DUP4 ADD CALLDATALOAD PUSH8 0xFFFFFFFFFFFFFFFF DUP2 GT ISZERO PUSH2 0x2D16 JUMPI PUSH2 0x2D15 PUSH2 0x293F JUMP JUMPDEST JUMPDEST PUSH2 0x2D22 DUP6 DUP3 DUP7 ADD PUSH2 0x2CA2 JUMP JUMPDEST SWAP2 POP POP SWAP3 POP SWAP3 SWAP1 POP JUMP JUMPDEST PUSH1 0x0 DUP2 SWAP1 POP SWAP2 SWAP1 POP JUMP JUMPDEST PUSH2 0x2D3F DUP2 PUSH2 0x2D2C JUMP JUMPDEST DUP3 MSTORE POP POP JUMP JUMPDEST PUSH1 0x0 PUSH1 0x20 DUP3 ADD SWAP1 POP PUSH2 0x2D5A PUSH1 0x0 DUP4 ADD DUP5 PUSH2 0x2D36 JUMP JUMPDEST SWAP3 SWAP2 POP POP JUMP JUMPDEST PUSH1 0x0 DUP1 REVERT JUMPDEST PUSH1 0x0 DUP1 REVERT JUMPDEST PUSH1 0x0 DUP1 DUP4 PUSH1 0x1F DUP5 ADD SLT PUSH2 0x2D80 JUMPI PUSH2 0x2D7F PUSH2 0x2B9B JUMP JUMPDEST JUMPDEST DUP3 CALLDATALOAD SWAP1 POP PUSH8 0xFFFFFFFFFFFFFFFF DUP2 GT ISZERO PUSH2 0x2D9D JUMPI PUSH2 0x2D9C PUSH2 0x2D60 JUMP JUMPDEST JUMPDEST PUSH1 0x20 DUP4 ADD SWAP2 POP DUP4 PUSH1 0x20 DUP3 MUL DUP4 ADD GT ISZERO PUSH2 0x2DB9 JUMPI PUSH2 0x2DB8 PUSH2 0x2D65 JUMP JUMPDEST JUMPDEST SWAP3 POP SWAP3 SWAP1 POP JUMP JUMPDEST PUSH1 0x0 DUP1 DUP4 PUSH1 0x1F DUP5 ADD SLT PUSH2 0x2DD6 JUMPI PUSH2 0x2DD5 PUSH2 0x2B9B JUMP JUMPDEST JUMPDEST DUP3 CALLDATALOAD SWAP1 POP PUSH8 0xFFFFFFFFFFFFFFFF DUP2 GT ISZERO PUSH2 0x2DF3 JUMPI PUSH2 0x2DF2 PUSH2 0x2D60 JUMP JUMPDEST JUMPDEST PUSH1 0x20 DUP4 ADD SWAP2 POP DUP4 PUSH1 0x20 DUP3 MUL DUP4 ADD GT ISZERO PUSH2 0x2E0F JUMPI PUSH2 0x2E0E PUSH2 0x2D65 JUMP JUMPDEST JUMPDEST SWAP3 POP SWAP3 SWAP1 POP JUMP JUMPDEST PUSH1 0x0 DUP1 PUSH1 0x0 DUP1 PUSH1 0x40 DUP6 DUP8 SUB SLT ISZERO PUSH2 0x2E30 JUMPI PUSH2 0x2E2F PUSH2 0x293A JUMP JUMPDEST JUMPDEST PUSH1 0x0 DUP6 ADD CALLDATALOAD PUSH8 0xFFFFFFFFFFFFFFFF DUP2 GT ISZERO PUSH2 0x2E4E JUMPI PUSH2 0x2E4D PUSH2 0x293F JUMP JUMPDEST JUMPDEST PUSH2 0x2E5A DUP8 DUP3 DUP9 ADD PUSH2 0x2D6A JUMP JUMPDEST SWAP5 POP SWAP5 POP POP PUSH1 0x20 DUP6 ADD CALLDATALOAD PUSH8 0xFFFFFFFFFFFFFFFF DUP2 GT ISZERO PUSH2 0x2E7D JUMPI PUSH2 0x2E7C PUSH2 0x293F JUMP JUMPDEST JUMPDEST PUSH2 0x2E89 DUP8 DUP3 DUP9 ADD PUSH2 0x2DC0 JUMP JUMPDEST SWAP3 POP SWAP3 POP POP SWAP3 SWAP6 SWAP2 SWAP5 POP SWAP3 POP JUMP JUMPDEST PUSH2 0x2EA0 DUP2 PUSH2 0x2964 JUMP JUMPDEST DUP3 MSTORE POP POP JUMP JUMPDEST PUSH1 0x0 PUSH1 0x20 DUP3 ADD SWAP1 POP PUSH2 0x2EBB PUSH1 0x0 DUP4 ADD DUP5 PUSH2 0x2E97 JUMP JUMPDEST SWAP3 SWAP2 POP POP JUMP JUMPDEST PUSH1 0x0 PUSH8 0xFFFFFFFFFFFFFFFF DUP3 GT ISZERO PUSH2 0x2EDC JUMPI PUSH2 0x2EDB PUSH2 0x2BA5 JUMP JUMPDEST JUMPDEST PUSH2 0x2EE5 DUP3 PUSH2 0x28C4 JUMP JUMPDEST SWAP1 POP PUSH1 0x20 DUP2 ADD SWAP1 POP SWAP2 SWAP1 POP JUMP JUMPDEST PUSH1 0x0 PUSH2 0x2F05 PUSH2 0x2F00 DUP5 PUSH2 0x2EC1 JUMP JUMPDEST PUSH2 0x2C05 JUMP JUMPDEST SWAP1 POP DUP3 DUP2 MSTORE PUSH1 0x20 DUP2 ADD DUP5 DUP5 DUP5 ADD GT ISZERO PUSH2 0x2F21 JUMPI PUSH2 0x2F20 PUSH2 0x2BA0 JUMP JUMPDEST JUMPDEST PUSH2 0x2F2C DUP5 DUP3 DUP6 PUSH2 0x2C51 JUMP JUMPDEST POP SWAP4 SWAP3 POP POP POP JUMP JUMPDEST PUSH1 0x0 DUP3 PUSH1 0x1F DUP4 ADD SLT PUSH2 0x2F49 JUMPI PUSH2 0x2F48 PUSH2 0x2B9B JUMP JUMPDEST JUMPDEST DUP2 CALLDATALOAD PUSH2 0x2F59 DUP5 DUP3 PUSH1 0x20 DUP7 ADD PUSH2 0x2EF2 JUMP JUMPDEST SWAP2 POP POP SWAP3 SWAP2 POP POP JUMP JUMPDEST PUSH1 0x0 DUP1 PUSH1 0x0 PUSH1 0x60 DUP5 DUP7 SUB SLT ISZERO PUSH2 0x2F7B JUMPI PUSH2 0x2F7A PUSH2 0x293A JUMP JUMPDEST JUMPDEST PUSH1 0x0 DUP5 ADD CALLDATALOAD PUSH8 0xFFFFFFFFFFFFFFFF DUP2 GT ISZERO PUSH2 0x2F99 JUMPI PUSH2 0x2F98 PUSH2 0x293F JUMP JUMPDEST JUMPDEST PUSH2 0x2FA5 DUP7 DUP3 DUP8 ADD PUSH2 0x2F34 JUMP JUMPDEST SWAP4 POP POP PUSH1 0x20 DUP5 ADD CALLDATALOAD PUSH8 0xFFFFFFFFFFFFFFFF DUP2 GT ISZERO PUSH2 0x2FC6 JUMPI PUSH2 0x2FC5 PUSH2 0x293F JUMP JUMPDEST JUMPDEST PUSH2 0x2FD2 DUP7 DUP3 DUP8 ADD PUSH2 0x2F34 JUMP JUMPDEST SWAP3 POP POP PUSH1 0x40 PUSH2 0x2FE3 DUP7 DUP3 DUP8 ADD PUSH2 0x29C3 JUMP JUMPDEST SWAP2 POP POP SWAP3 POP SWAP3 POP SWAP3 JUMP JUMPDEST PUSH1 0x0 DUP1 PUSH1 0x40 DUP4 DUP6 SUB SLT ISZERO PUSH2 0x3004 JUMPI PUSH2 0x3003 PUSH2 0x293A JUMP JUMPDEST JUMPDEST PUSH1 0x0 PUSH2 0x3012 DUP6 DUP3 DUP7 ADD PUSH2 0x298D JUMP JUMPDEST SWAP3 POP POP PUSH1 0x20 PUSH2 0x3023 DUP6 DUP3 DUP7 ADD PUSH2 0x298D JUMP JUMPDEST SWAP2 POP POP SWAP3 POP SWAP3 SWAP1 POP JUMP JUMPDEST PUSH32 0x4E487B7100000000000000000000000000000000000000000000000000000000 PUSH1 0x0 MSTORE PUSH1 0x22 PUSH1 0x4 MSTORE PUSH1 0x24 PUSH1 0x0 REVERT JUMPDEST PUSH1 0x0 PUSH1 0x2 DUP3 DIV SWAP1 POP PUSH1 0x1 DUP3 AND DUP1 PUSH2 0x3074 JUMPI PUSH1 0x7F DUP3 AND SWAP2 POP JUMPDEST PUSH1 0x20 DUP3 LT DUP2 SUB PUSH2 0x3087 JUMPI PUSH2 0x3086 PUSH2 0x302D JUMP JUMPDEST JUMPDEST POP SWAP2 SWAP1 POP JUMP JUMPDEST PUSH32 0x4E756C6C20416464726573730000000000000000000000000000000000000000 PUSH1 0x0 DUP3 ADD MSTORE POP JUMP JUMPDEST PUSH1 0x0 PUSH2 0x30C3 PUSH1 0xC DUP4 PUSH2 0x2889 JUMP JUMPDEST SWAP2 POP PUSH2 0x30CE DUP3 PUSH2 0x308D JUMP JUMPDEST PUSH1 0x20 DUP3 ADD SWAP1 POP SWAP2 SWAP1 POP JUMP JUMPDEST PUSH1 0x0 PUSH1 0x20 DUP3 ADD SWAP1 POP DUP2 DUP2 SUB PUSH1 0x0 DUP4 ADD MSTORE PUSH2 0x30F2 DUP2 PUSH2 0x30B6 JUMP JUMPDEST SWAP1 POP SWAP2 SWAP1 POP JUMP JUMPDEST PUSH32 0x5472616E73666572206661696C65643A2053656E64657220697320626C61636B PUSH1 0x0 DUP3 ADD MSTORE PUSH32 0x6C69737465640000000000000000000000000000000000000000000000000000 PUSH1 0x20 DUP3 ADD MSTORE POP JUMP JUMPDEST PUSH1 0x0 PUSH2 0x3155 PUSH1 0x26 DUP4 PUSH2 0x2889 JUMP JUMPDEST SWAP2 POP PUSH2 0x3160 DUP3 PUSH2 0x30F9 JUMP JUMPDEST PUSH1 0x40 DUP3 ADD SWAP1 POP SWAP2 SWAP1 POP JUMP JUMPDEST PUSH1 0x0 PUSH1 0x20 DUP3 ADD SWAP1 POP DUP2 DUP2 SUB PUSH1 0x0 DUP4 ADD MSTORE PUSH2 0x3184 DUP2 PUSH2 0x3148 JUMP JUMPDEST SWAP1 POP SWAP2 SWAP1 POP JUMP JUMPDEST PUSH32 0x5472616E73666572206661696C65643A20526563697069656E7420697320626C PUSH1 0x0 DUP3 ADD MSTORE PUSH32 0x61636B6C69737465640000000000000000000000000000000000000000000000 PUSH1 0x20 DUP3 ADD MSTORE POP JUMP JUMPDEST PUSH1 0x0 PUSH2 0x31E7 PUSH1 0x29 DUP4 PUSH2 0x2889 JUMP JUMPDEST SWAP2 POP PUSH2 0x31F2 DUP3 PUSH2 0x318B JUMP JUMPDEST PUSH1 0x40 DUP3 ADD SWAP1 POP SWAP2 SWAP1 POP JUMP JUMPDEST PUSH1 0x0 PUSH1 0x20 DUP3 ADD SWAP1 POP DUP2 DUP2 SUB PUSH1 0x0 DUP4 ADD MSTORE PUSH2 0x3216 DUP2 PUSH2 0x31DA JUMP JUMPDEST SWAP1 POP SWAP2 SWAP1 POP JUMP JUMPDEST PUSH32 0x416D6F756E742073686F756C646E2774206265207A65726F0000000000000000 PUSH1 0x0 DUP3 ADD MSTORE POP JUMP JUMPDEST PUSH1 0x0 PUSH2 0x3253 PUSH1 0x18 DUP4 PUSH2 0x2889 JUMP JUMPDEST SWAP2 POP PUSH2 0x325E DUP3 PUSH2 0x321D JUMP JUMPDEST PUSH1 0x20 DUP3 ADD SWAP1 POP SWAP2 SWAP1 POP JUMP JUMPDEST PUSH1 0x0 PUSH1 0x20 DUP3 ADD SWAP1 POP DUP2 DUP2 SUB PUSH1 0x0 DUP4 ADD MSTORE PUSH2 0x3282 DUP2 PUSH2 0x3246 JUMP JUMPDEST SWAP1 POP SWAP2 SWAP1 POP JUMP JUMPDEST PUSH32 0x5472616E73666572206661696C65643A20546F6B656E7320617265206C6F636B PUSH1 0x0 DUP3 ADD MSTORE PUSH32 0x6564000000000000000000000000000000000000000000000000000000000000 PUSH1 0x20 DUP3 ADD MSTORE POP JUMP JUMPDEST PUSH1 0x0 PUSH2 0x32E5 PUSH1 0x22 DUP4 PUSH2 0x2889 JUMP JUMPDEST SWAP2 POP PUSH2 0x32F0 DUP3 PUSH2 0x3289 JUMP JUMPDEST PUSH1 0x40 DUP3 ADD SWAP1 POP SWAP2 SWAP1 POP JUMP JUMPDEST PUSH1 0x0 PUSH1 0x20 DUP3 ADD SWAP1 POP DUP2 DUP2 SUB PUSH1 0x0 DUP4 ADD MSTORE PUSH2 0x3314 DUP2 PUSH2 0x32D8 JUMP JUMPDEST SWAP1 POP SWAP2 SWAP1 POP JUMP JUMPDEST PUSH32 0x41646472657373206973206E6F74206120636F6E747261637400000000000000 PUSH1 0x0 DUP3 ADD MSTORE POP JUMP JUMPDEST PUSH1 0x0 PUSH2 0x3351 PUSH1 0x19 DUP4 PUSH2 0x2889 JUMP JUMPDEST SWAP2 POP PUSH2 0x335C DUP3 PUSH2 0x331B JUMP JUMPDEST PUSH1 0x20 DUP3 ADD SWAP1 POP SWAP2 SWAP1 POP JUMP JUMPDEST PUSH1 0x0 PUSH1 0x20 DUP3 ADD SWAP1 POP DUP2 DUP2 SUB PUSH1 0x0 DUP4 ADD MSTORE PUSH2 0x3380 DUP2 PUSH2 0x3344 JUMP JUMPDEST SWAP1 POP SWAP2 SWAP1 POP JUMP JUMPDEST PUSH32 0x4E6F7420617574686F72697A6564000000000000000000000000000000000000 PUSH1 0x0 DUP3 ADD MSTORE POP JUMP JUMPDEST PUSH1 0x0 PUSH2 0x33BD PUSH1 0xE DUP4 PUSH2 0x2889 JUMP JUMPDEST SWAP2 POP PUSH2 0x33C8 DUP3 PUSH2 0x3387 JUMP JUMPDEST PUSH1 0x20 DUP3 ADD SWAP1 POP SWAP2 SWAP1 POP JUMP JUMPDEST PUSH1 0x0 PUSH1 0x20 DUP3 ADD SWAP1 POP DUP2 DUP2 SUB PUSH1 0x0 DUP4 ADD MSTORE PUSH2 0x33EC DUP2 PUSH2 0x33B0 JUMP JUMPDEST SWAP1 POP SWAP2 SWAP1 POP JUMP JUMPDEST PUSH32 0x42617463685472616E73666572206661696C65643A204D69736D617463686564 PUSH1 0x0 DUP3 ADD MSTORE PUSH32 0x2061727261797300000000000000000000000000000000000000000000000000 PUSH1 0x20 DUP3 ADD MSTORE POP JUMP JUMPDEST PUSH1 0x0 PUSH2 0x344F PUSH1 0x27 DUP4 PUSH2 0x2889 JUMP JUMPDEST SWAP2 POP PUSH2 0x345A DUP3 PUSH2 0x33F3 JUMP JUMPDEST PUSH1 0x40 DUP3 ADD SWAP1 POP SWAP2 SWAP1 POP JUMP JUMPDEST PUSH1 0x0 PUSH1 0x20 DUP3 ADD SWAP1 POP DUP2 DUP2 SUB PUSH1 0x0 DUP4 ADD MSTORE PUSH2 0x347E DUP2 PUSH2 0x3442 JUMP JUMPDEST SWAP1 POP SWAP2 SWAP1 POP JUMP JUMPDEST PUSH32 0x4E487B7100000000000000000000000000000000000000000000000000000000 PUSH1 0x0 MSTORE PUSH1 0x32 PUSH1 0x4 MSTORE PUSH1 0x24 PUSH1 0x0 REVERT JUMPDEST PUSH32 0x42617463685472616E73666572206661696C65643A20526563697069656E7420 PUSH1 0x0 DUP3 ADD MSTORE PUSH32 0x697320626C61636B6C6973746564000000000000000000000000000000000000 PUSH1 0x20 DUP3 ADD MSTORE POP JUMP JUMPDEST PUSH1 0x0 PUSH2 0x3510 PUSH1 0x2E DUP4 PUSH2 0x2889 JUMP JUMPDEST SWAP2 POP PUSH2 0x351B DUP3 PUSH2 0x34B4 JUMP JUMPDEST PUSH1 0x40 DUP3 ADD SWAP1 POP SWAP2 SWAP1 POP JUMP JUMPDEST PUSH1 0x0 PUSH1 0x20 DUP3 ADD SWAP1 POP DUP2 DUP2 SUB PUSH1 0x0 DUP4 ADD MSTORE PUSH2 0x353F DUP2 PUSH2 0x3503 JUMP JUMPDEST SWAP1 POP SWAP2 SWAP1 POP JUMP JUMPDEST PUSH1 0x0 DUP2 SWAP1 POP SWAP2 SWAP1 POP JUMP JUMPDEST PUSH1 0x0 PUSH8 0xFFFFFFFFFFFFFFFF DUP3 AND SWAP1 POP SWAP2 SWAP1 POP JUMP JUMPDEST PUSH1 0x0 DUP2 SWAP1 POP SWAP2 SWAP1 POP JUMP JUMPDEST PUSH1 0x0 PUSH2 0x3589 PUSH2 0x3584 PUSH2 0x357F DUP5 PUSH2 0x3546 JUMP JUMPDEST PUSH2 0x3564 JUMP JUMPDEST PUSH2 0x3550 JUMP JUMPDEST SWAP1 POP SWAP2 SWAP1 POP JUMP JUMPDEST PUSH2 0x3599 DUP2 PUSH2 0x356E JUMP JUMPDEST DUP3 MSTORE POP POP JUMP JUMPDEST PUSH1 0x0 PUSH1 0x20 DUP3 ADD SWAP1 POP PUSH2 0x35B4 PUSH1 0x0 DUP4 ADD DUP5 PUSH2 0x3590 JUMP JUMPDEST SWAP3 SWAP2 POP POP JUMP JUMPDEST PUSH32 0x5061757361626C653A2070617573656400000000000000000000000000000000 PUSH1 0x0 DUP3 ADD MSTORE POP JUMP JUMPDEST PUSH1 0x0 PUSH2 0x35F0 PUSH1 0x10 DUP4 PUSH2 0x2889 JUMP JUMPDEST SWAP2 POP PUSH2 0x35FB DUP3 PUSH2 0x35BA JUMP JUMPDEST PUSH1 0x20 DUP3 ADD SWAP1 POP SWAP2 SWAP1 POP JUMP JUMPDEST PUSH1 0x0 PUSH1 0x20 DUP3 ADD SWAP1 POP DUP2 DUP2 SUB PUSH1 0x0 DUP4 ADD MSTORE PUSH2 0x361F DUP2 PUSH2 0x35E3 JUMP JUMPDEST SWAP1 POP SWAP2 SWAP1 POP JUMP JUMPDEST PUSH2 0x362F DUP2 PUSH2 0x2D2C JUMP JUMPDEST DUP2 EQ PUSH2 0x363A JUMPI PUSH1 0x0 DUP1 REVERT JUMPDEST POP JUMP JUMPDEST PUSH1 0x0 DUP2 MLOAD SWAP1 POP PUSH2 0x364C DUP2 PUSH2 0x3626 JUMP JUMPDEST SWAP3 SWAP2 POP POP JUMP JUMPDEST PUSH1 0x0 PUSH1 0x20 DUP3 DUP5 SUB SLT ISZERO PUSH2 0x3668 JUMPI PUSH2 0x3667 PUSH2 0x293A JUMP JUMPDEST JUMPDEST PUSH1 0x0 PUSH2 0x3676 DUP5 DUP3 DUP6 ADD PUSH2 0x363D JUMP JUMPDEST SWAP2 POP POP SWAP3 SWAP2 POP POP JUMP JUMPDEST PUSH1 0x0 PUSH1 0x60 DUP3 ADD SWAP1 POP PUSH2 0x3694 PUSH1 0x0 DUP4 ADD DUP7 PUSH2 0x2E97 JUMP JUMPDEST PUSH2 0x36A1 PUSH1 0x20 DUP4 ADD DUP6 PUSH2 0x2ABA JUMP JUMPDEST PUSH2 0x36AE PUSH1 0x40 DUP4 ADD DUP5 PUSH2 0x2ABA JUMP JUMPDEST SWAP5 SWAP4 POP POP POP POP JUMP JUMPDEST PUSH32 0x5061757361626C653A206E6F7420706175736564000000000000000000000000 PUSH1 0x0 DUP3 ADD MSTORE POP JUMP JUMPDEST PUSH1 0x0 PUSH2 0x36EC PUSH1 0x14 DUP4 PUSH2 0x2889 JUMP JUMPDEST SWAP2 POP PUSH2 0x36F7 DUP3 PUSH2 0x36B6 JUMP JUMPDEST PUSH1 0x20 DUP3 ADD SWAP1 POP SWAP2 SWAP1 POP JUMP JUMPDEST PUSH1 0x0 PUSH1 0x20 DUP3 ADD SWAP1 POP DUP2 DUP2 SUB PUSH1 0x0 DUP4 ADD MSTORE PUSH2 0x371B DUP2 PUSH2 0x36DF JUMP JUMPDEST SWAP1 POP SWAP2 SWAP1 POP JUMP JUMPDEST PUSH32 0x4E487B7100000000000000000000000000000000000000000000000000000000 PUSH1 0x0 MSTORE PUSH1 0x11 PUSH1 0x4 MSTORE PUSH1 0x24 PUSH1 0x0 REVERT JUMPDEST PUSH1 0x0 PUSH2 0x375C DUP3 PUSH2 0x29A2 JUMP JUMPDEST SWAP2 POP PUSH2 0x3767 DUP4 PUSH2 0x29A2 JUMP JUMPDEST SWAP3 POP DUP3 DUP3 ADD SWAP1 POP DUP1 DUP3 GT ISZERO PUSH2 0x377F JUMPI PUSH2 0x377E PUSH2 0x3722 JUMP JUMPDEST JUMPDEST SWAP3 SWAP2 POP POP JUMP JUMPDEST PUSH1 0x0 DUP2 SWAP1 POP DUP2 PUSH1 0x0 MSTORE PUSH1 0x20 PUSH1 0x0 KECCAK256 SWAP1 POP SWAP2 SWAP1 POP JUMP JUMPDEST PUSH1 0x0 PUSH1 0x20 PUSH1 0x1F DUP4 ADD DIV SWAP1 POP SWAP2 SWAP1 POP JUMP JUMPDEST PUSH1 0x0 DUP3 DUP3 SHL SWAP1 POP SWAP3 SWAP2 POP POP JUMP JUMPDEST PUSH1 0x0 PUSH1 0x8 DUP4 MUL PUSH2 0x37E7 PUSH32 0xFFFFFFFFFFFFFFFFFFFFFFFFFFFFFFFFFFFFFFFFFFFFFFFFFFFFFFFFFFFFFFFF DUP3 PUSH2 0x37AA JUMP JUMPDEST PUSH2 0x37F1 DUP7 DUP4 PUSH2 0x37AA JUMP JUMPDEST SWAP6 POP DUP1 NOT DUP5 AND SWAP4 POP DUP1 DUP7 AND DUP5 OR SWAP3 POP POP POP SWAP4 SWAP3 POP POP POP JUMP JUMPDEST PUSH1 0x0 PUSH2 0x3824 PUSH2 0x381F PUSH2 0x381A DUP5 PUSH2 0x29A2 JUMP JUMPDEST PUSH2 0x3564 JUMP JUMPDEST PUSH2 0x29A2 JUMP JUMPDEST SWAP1 POP SWAP2 SWAP1 POP JUMP JUMPDEST PUSH1 0x0 DUP2 SWAP1 POP SWAP2 SWAP1 POP JUMP JUMPDEST PUSH2 0x383E DUP4 PUSH2 0x3809 JUMP JUMPDEST PUSH2 0x3852 PUSH2 0x384A DUP3 PUSH2 0x382B JUMP JUMPDEST DUP5 DUP5 SLOAD PUSH2 0x37B7 JUMP JUMPDEST DUP3 SSTORE POP POP POP POP JUMP JUMPDEST PUSH1 0x0 SWAP1 JUMP JUMPDEST PUSH2 0x3867 PUSH2 0x385A JUMP JUMPDEST PUSH2 0x3872 DUP2 DUP5 DUP5 PUSH2 0x3835 JUMP JUMPDEST POP POP POP JUMP JUMPDEST JUMPDEST DUP2 DUP2 LT ISZERO PUSH2 0x3896 JUMPI PUSH2 0x388B PUSH1 0x0 DUP3 PUSH2 0x385F JUMP JUMPDEST PUSH1 0x1 DUP2 ADD SWAP1 POP PUSH2 0x3878 JUMP JUMPDEST POP POP JUMP JUMPDEST PUSH1 0x1F DUP3 GT ISZERO PUSH2 0x38DB JUMPI PUSH2 0x38AC DUP2 PUSH2 0x3785 JUMP JUMPDEST PUSH2 0x38B5 DUP5 PUSH2 0x379A JUMP JUMPDEST DUP2 ADD PUSH1 0x20 DUP6 LT ISZERO PUSH2 0x38C4 JUMPI DUP2 SWAP1 POP JUMPDEST PUSH2 0x38D8 PUSH2 0x38D0 DUP6 PUSH2 0x379A JUMP JUMPDEST DUP4 ADD DUP3 PUSH2 0x3877 JUMP JUMPDEST POP POP JUMPDEST POP POP POP JUMP JUMPDEST PUSH1 0x0 DUP3 DUP3 SHR SWAP1 POP SWAP3 SWAP2 POP POP JUMP JUMPDEST PUSH1 0x0 PUSH2 0x38FE PUSH1 0x0 NOT DUP5 PUSH1 0x8 MUL PUSH2 0x38E0 JUMP JUMPDEST NOT DUP1 DUP4 AND SWAP2 POP POP SWAP3 SWAP2 POP POP JUMP JUMPDEST PUSH1 0x0 PUSH2 0x3917 DUP4 DUP4 PUSH2 0x38ED JUMP JUMPDEST SWAP2 POP DUP3 PUSH1 0x2 MUL DUP3 OR SWAP1 POP SWAP3 SWAP2 POP POP JUMP JUMPDEST PUSH2 0x3930 DUP3 PUSH2 0x287E JUMP JUMPDEST PUSH8 0xFFFFFFFFFFFFFFFF DUP2 GT ISZERO PUSH2 0x3949 JUMPI PUSH2 0x3948 PUSH2 0x2BA5 JUMP JUMPDEST JUMPDEST PUSH2 0x3953 DUP3 SLOAD PUSH2 0x305C JUMP JUMPDEST PUSH2 0x395E DUP3 DUP3 DUP6 PUSH2 0x389A JUMP JUMPDEST PUSH1 0x0 PUSH1 0x20 SWAP1 POP PUSH1 0x1F DUP4 GT PUSH1 0x1 DUP2 EQ PUSH2 0x3991 JUMPI PUSH1 0x0 DUP5 ISZERO PUSH2 0x397F JUMPI DUP3 DUP8 ADD MLOAD SWAP1 POP JUMPDEST PUSH2 0x3989 DUP6 DUP3 PUSH2 0x390B JUMP JUMPDEST DUP7 SSTORE POP PUSH2 0x39F1 JUMP JUMPDEST PUSH1 0x1F NOT DUP5 AND PUSH2 0x399F DUP7 PUSH2 0x3785 JUMP JUMPDEST PUSH1 0x0 JUMPDEST DUP3 DUP2 LT ISZERO PUSH2 0x39C7 JUMPI DUP5 DUP10 ADD MLOAD DUP3 SSTORE PUSH1 0x1 DUP3 ADD SWAP2 POP PUSH1 0x20 DUP6 ADD SWAP5 POP PUSH1 0x20 DUP2 ADD SWAP1 POP PUSH2 0x39A2 JUMP JUMPDEST DUP7 DUP4 LT ISZERO PUSH2 0x39E4 JUMPI DUP5 DUP10 ADD MLOAD PUSH2 0x39E0 PUSH1 0x1F DUP10 AND DUP3 PUSH2 0x38ED JUMP JUMPDEST DUP4 SSTORE POP JUMPDEST PUSH1 0x1 PUSH1 0x2 DUP9 MUL ADD DUP9 SSTORE POP POP POP JUMPDEST POP POP POP POP POP POP JUMP JUMPDEST PUSH1 0x0 DUP2 MLOAD SWAP1 POP SWAP2 SWAP1 POP JUMP JUMPDEST PUSH1 0x0 DUP2 SWAP1 POP SWAP3 SWAP2 POP POP JUMP JUMPDEST PUSH1 0x0 PUSH2 0x3A1A DUP3 PUSH2 0x39F9 JUMP JUMPDEST PUSH2 0x3A24 DUP2 DUP6 PUSH2 0x3A04 JUMP JUMPDEST SWAP4 POP PUSH2 0x3A34 DUP2 DUP6 PUSH1 0x20 DUP7 ADD PUSH2 0x289A JUMP JUMPDEST DUP1 DUP5 ADD SWAP2 POP POP SWAP3 SWAP2 POP POP JUMP JUMPDEST PUSH1 0x0 PUSH2 0x3A4C DUP3 DUP5 PUSH2 0x3A0F JUMP JUMPDEST SWAP2 POP DUP2 SWAP1 POP SWAP3 SWAP2 POP POP JUMP INVALID LOG2 PUSH5 0x6970667358 0x22 SLT KECCAK256 GASPRICE 0xD2 0x25 0xA9 0xE9 0xE1 0xFC RETURNDATACOPY LT SWAP5 0xEB 0xA6 0xD6 0x2B LOG1 PUSH1 0x5E PUSH31 0xDEF8E480B9AEFF9B2AEDFD25481E64736F6C634300081A0033000000000000 "
		},
		"gasEstimates": {
			"creation": {
				"codeDepositCost": "2997800",
				"executionCost": "infinite",
				"totalCost": "infinite"
			},
			"external": {
				"UPGRADE_INTERFACE_VERSION()": "infinite",
				"allowance(address,address)": "infinite",
				"approve(address,uint256)": "infinite",
				"balanceOf(address)": "3006",
				"batchTransfer(address[],uint256[])": "infinite",
				"blacklisted(address)": "2889",
				"decimals()": "389",
				"icoContract()": "2603",
				"initialize(string,string,uint256)": "infinite",
				"isBlacklisted(address)": "2993",
				"lockedUntil(address)": "2903",
				"name()": "infinite",
				"owner()": "2621",
				"pause()": "infinite",
				"paused()": "2568",
				"proxiableUUID()": "infinite",
				"renounceOwnership()": "infinite",
				"setBlacklist(address,bool)": "infinite",
				"setICOContract(address)": "infinite",
				"setLockup(address,uint256)": "infinite",
				"symbol()": "infinite",
				"totalSupply()": "2581",
				"transfer(address,uint256)": "infinite",
				"transferFrom(address,address,uint256)": "infinite",
				"transferOwnership(address)": "infinite",
				"unpause()": "infinite",
				"upgradeToAndCall(address,bytes)": "infinite"
			},
			"internal": {
				"_authorizeUpgrade(address)": "infinite"
			}
		},
		"methodIdentifiers": {
			"UPGRADE_INTERFACE_VERSION()": "ad3cb1cc",
			"allowance(address,address)": "dd62ed3e",
			"approve(address,uint256)": "095ea7b3",
			"balanceOf(address)": "70a08231",
			"batchTransfer(address[],uint256[])": "88d695b2",
			"blacklisted(address)": "dbac26e9",
			"decimals()": "313ce567",
			"icoContract()": "c66e4095",
			"initialize(string,string,uint256)": "b119490e",
			"isBlacklisted(address)": "fe575a87",
			"lockedUntil(address)": "9bc289f1",
			"name()": "06fdde03",
			"owner()": "8da5cb5b",
			"pause()": "8456cb59",
			"paused()": "5c975abb",
			"proxiableUUID()": "52d1902d",
			"renounceOwnership()": "715018a6",
			"setBlacklist(address,bool)": "153b0d1e",
			"setICOContract(address)": "2e0d2a00",
			"setLockup(address,uint256)": "3e579307",
			"symbol()": "95d89b41",
			"totalSupply()": "18160ddd",
			"transfer(address,uint256)": "a9059cbb",
			"transferFrom(address,address,uint256)": "23b872dd",
			"transferOwnership(address)": "f2fde38b",
			"unpause()": "3f4ba83a",
			"upgradeToAndCall(address,bytes)": "4f1ef286"
		}
	},
	"abi": [
		{
			"inputs": [],
			"stateMutability": "nonpayable",
			"type": "constructor"
		},
		{
			"inputs": [
				{
					"internalType": "address",
					"name": "target",
					"type": "address"
				}
			],
			"name": "AddressEmptyCode",
			"type": "error"
		},
		{
			"inputs": [
				{
					"internalType": "address",
					"name": "implementation",
					"type": "address"
				}
			],
			"name": "ERC1967InvalidImplementation",
			"type": "error"
		},
		{
			"inputs": [],
			"name": "ERC1967NonPayable",
			"type": "error"
		},
		{
			"inputs": [
				{
					"internalType": "address",
					"name": "spender",
					"type": "address"
				},
				{
					"internalType": "uint256",
					"name": "allowance",
					"type": "uint256"
				},
				{
					"internalType": "uint256",
					"name": "needed",
					"type": "uint256"
				}
			],
			"name": "ERC20InsufficientAllowance",
			"type": "error"
		},
		{
			"inputs": [
				{
					"internalType": "address",
					"name": "sender",
					"type": "address"
				},
				{
					"internalType": "uint256",
					"name": "balance",
					"type": "uint256"
				},
				{
					"internalType": "uint256",
					"name": "needed",
					"type": "uint256"
				}
			],
			"name": "ERC20InsufficientBalance",
			"type": "error"
		},
		{
			"inputs": [
				{
					"internalType": "address",
					"name": "approver",
					"type": "address"
				}
			],
			"name": "ERC20InvalidApprover",
			"type": "error"
		},
		{
			"inputs": [
				{
					"internalType": "address",
					"name": "receiver",
					"type": "address"
				}
			],
			"name": "ERC20InvalidReceiver",
			"type": "error"
		},
		{
			"inputs": [
				{
					"internalType": "address",
					"name": "sender",
					"type": "address"
				}
			],
			"name": "ERC20InvalidSender",
			"type": "error"
		},
		{
			"inputs": [
				{
					"internalType": "address",
					"name": "spender",
					"type": "address"
				}
			],
			"name": "ERC20InvalidSpender",
			"type": "error"
		},
		{
			"inputs": [],
			"name": "FailedCall",
			"type": "error"
		},
		{
			"inputs": [],
			"name": "InvalidInitialization",
			"type": "error"
		},
		{
			"inputs": [],
			"name": "NotInitializing",
			"type": "error"
		},
		{
			"inputs": [
				{
					"internalType": "address",
					"name": "owner",
					"type": "address"
				}
			],
			"name": "OwnableInvalidOwner",
			"type": "error"
		},
		{
			"inputs": [
				{
					"internalType": "address",
					"name": "account",
					"type": "address"
				}
			],
			"name": "OwnableUnauthorizedAccount",
			"type": "error"
		},
		{
			"inputs": [],
			"name": "UUPSUnauthorizedCallContext",
			"type": "error"
		},
		{
			"inputs": [
				{
					"internalType": "bytes32",
					"name": "slot",
					"type": "bytes32"
				}
			],
			"name": "UUPSUnsupportedProxiableUUID",
			"type": "error"
		},
		{
			"anonymous": false,
			"inputs": [
				{
					"indexed": true,
					"internalType": "address",
					"name": "owner",
					"type": "address"
				},
				{
					"indexed": true,
					"internalType": "address",
					"name": "spender",
					"type": "address"
				},
				{
					"indexed": false,
					"internalType": "uint256",
					"name": "value",
					"type": "uint256"
				}
			],
			"name": "Approval",
			"type": "event"
		},
		{
			"anonymous": false,
			"inputs": [
				{
					"indexed": true,
					"internalType": "address",
					"name": "account",
					"type": "address"
				},
				{
					"indexed": false,
					"internalType": "bool",
					"name": "isBlacklisted",
					"type": "bool"
				}
			],
			"name": "Blacklisted",
			"type": "event"
		},
		{
			"anonymous": false,
			"inputs": [
				{
					"indexed": true,
					"internalType": "address",
					"name": "token",
					"type": "address"
				},
				{
					"indexed": false,
					"internalType": "uint256",
					"name": "amount",
					"type": "uint256"
				}
			],
			"name": "EmergencyTokenRecovered",
			"type": "event"
		},
		{
			"anonymous": false,
			"inputs": [
				{
					"indexed": true,
					"internalType": "address",
					"name": "icoContract",
					"type": "address"
				}
			],
			"name": "ICOContractSet",
			"type": "event"
		},
		{
			"anonymous": false,
			"inputs": [
				{
					"indexed": false,
					"internalType": "uint64",
					"name": "version",
					"type": "uint64"
				}
			],
			"name": "Initialized",
			"type": "event"
		},
		{
			"anonymous": false,
			"inputs": [
				{
					"indexed": true,
					"internalType": "address",
					"name": "account",
					"type": "address"
				},
				{
					"indexed": false,
					"internalType": "uint256",
					"name": "lockedUntilTimestamp",
					"type": "uint256"
				}
			],
			"name": "LockupSet",
			"type": "event"
		},
		{
			"anonymous": false,
			"inputs": [
				{
					"indexed": true,
					"internalType": "address",
					"name": "previousOwner",
					"type": "address"
				},
				{
					"indexed": true,
					"internalType": "address",
					"name": "newOwner",
					"type": "address"
				}
			],
			"name": "OwnershipTransferred",
			"type": "event"
		},
		{
			"anonymous": false,
			"inputs": [
				{
					"indexed": false,
					"internalType": "address",
					"name": "account",
					"type": "address"
				}
			],
			"name": "Paused",
			"type": "event"
		},
		{
			"anonymous": false,
			"inputs": [
				{
					"indexed": true,
					"internalType": "address",
					"name": "from",
					"type": "address"
				},
				{
					"indexed": true,
					"internalType": "address",
					"name": "to",
					"type": "address"
				},
				{
					"indexed": false,
					"internalType": "uint256",
					"name": "value",
					"type": "uint256"
				}
			],
			"name": "Transfer",
			"type": "event"
		},
		{
			"anonymous": false,
			"inputs": [
				{
					"indexed": false,
					"internalType": "address",
					"name": "account",
					"type": "address"
				}
			],
			"name": "Unpaused",
			"type": "event"
		},
		{
			"anonymous": false,
			"inputs": [
				{
					"indexed": true,
					"internalType": "address",
					"name": "implementation",
					"type": "address"
				}
			],
			"name": "Upgraded",
			"type": "event"
		},
		{
			"inputs": [],
			"name": "UPGRADE_INTERFACE_VERSION",
			"outputs": [
				{
					"internalType": "string",
					"name": "",
					"type": "string"
				}
			],
			"stateMutability": "view",
			"type": "function"
		},
		{
			"inputs": [
				{
					"internalType": "address",
					"name": "owner",
					"type": "address"
				},
				{
					"internalType": "address",
					"name": "spender",
					"type": "address"
				}
			],
			"name": "allowance",
			"outputs": [
				{
					"internalType": "uint256",
					"name": "",
					"type": "uint256"
				}
			],
			"stateMutability": "view",
			"type": "function"
		},
		{
			"inputs": [
				{
					"internalType": "address",
					"name": "spender",
					"type": "address"
				},
				{
					"internalType": "uint256",
					"name": "value",
					"type": "uint256"
				}
			],
			"name": "approve",
			"outputs": [
				{
					"internalType": "bool",
					"name": "",
					"type": "bool"
				}
			],
			"stateMutability": "nonpayable",
			"type": "function"
		},
		{
			"inputs": [
				{
					"internalType": "address",
					"name": "account",
					"type": "address"
				}
			],
			"name": "balanceOf",
			"outputs": [
				{
					"internalType": "uint256",
					"name": "",
					"type": "uint256"
				}
			],
			"stateMutability": "view",
			"type": "function"
		},
		{
			"inputs": [
				{
					"internalType": "address[]",
					"name": "recipients",
					"type": "address[]"
				},
				{
					"internalType": "uint256[]",
					"name": "amounts",
					"type": "uint256[]"
				}
			],
			"name": "batchTransfer",
			"outputs": [],
			"stateMutability": "nonpayable",
			"type": "function"
		},
		{
			"inputs": [
				{
					"internalType": "address",
					"name": "",
					"type": "address"
				}
			],
			"name": "blacklisted",
			"outputs": [
				{
					"internalType": "bool",
					"name": "",
					"type": "bool"
				}
			],
			"stateMutability": "view",
			"type": "function"
		},
		{
			"inputs": [],
			"name": "decimals",
			"outputs": [
				{
					"internalType": "uint8",
					"name": "",
					"type": "uint8"
				}
			],
			"stateMutability": "view",
			"type": "function"
		},
		{
			"inputs": [],
			"name": "icoContract",
			"outputs": [
				{
					"internalType": "address",
					"name": "",
					"type": "address"
				}
			],
			"stateMutability": "view",
			"type": "function"
		},
		{
			"inputs": [
				{
					"internalType": "string",
					"name": "name",
					"type": "string"
				},
				{
					"internalType": "string",
					"name": "symbol",
					"type": "string"
				},
				{
					"internalType": "uint256",
					"name": "totalSupply_",
					"type": "uint256"
				}
			],
			"name": "initialize",
			"outputs": [],
			"stateMutability": "nonpayable",
			"type": "function"
		},
		{
			"inputs": [
				{
					"internalType": "address",
					"name": "account",
					"type": "address"
				}
			],
			"name": "isBlacklisted",
			"outputs": [
				{
					"internalType": "bool",
					"name": "",
					"type": "bool"
				}
			],
			"stateMutability": "view",
			"type": "function"
		},
		{
			"inputs": [
				{
					"internalType": "address",
					"name": "",
					"type": "address"
				}
			],
			"name": "lockedUntil",
			"outputs": [
				{
					"internalType": "uint256",
					"name": "",
					"type": "uint256"
				}
			],
			"stateMutability": "view",
			"type": "function"
		},
		{
			"inputs": [],
			"name": "name",
			"outputs": [
				{
					"internalType": "string",
					"name": "",
					"type": "string"
				}
			],
			"stateMutability": "view",
			"type": "function"
		},
		{
			"inputs": [],
			"name": "owner",
			"outputs": [
				{
					"internalType": "address",
					"name": "",
					"type": "address"
				}
			],
			"stateMutability": "view",
			"type": "function"
		},
		{
			"inputs": [],
			"name": "pause",
			"outputs": [],
			"stateMutability": "nonpayable",
			"type": "function"
		},
		{
			"inputs": [],
			"name": "paused",
			"outputs": [
				{
					"internalType": "bool",
					"name": "",
					"type": "bool"
				}
			],
			"stateMutability": "view",
			"type": "function"
		},
		{
			"inputs": [],
			"name": "proxiableUUID",
			"outputs": [
				{
					"internalType": "bytes32",
					"name": "",
					"type": "bytes32"
				}
			],
			"stateMutability": "view",
			"type": "function"
		},
		{
			"inputs": [],
			"name": "renounceOwnership",
			"outputs": [],
			"stateMutability": "nonpayable",
			"type": "function"
		},
		{
			"inputs": [
				{
					"internalType": "address",
					"name": "account",
					"type": "address"
				},
				{
					"internalType": "bool",
					"name": "status",
					"type": "bool"
				}
			],
			"name": "setBlacklist",
			"outputs": [],
			"stateMutability": "nonpayable",
			"type": "function"
		},
		{
			"inputs": [
				{
					"internalType": "address",
					"name": "_icoContract",
					"type": "address"
				}
			],
			"name": "setICOContract",
			"outputs": [],
			"stateMutability": "nonpayable",
			"type": "function"
		},
		{
			"inputs": [
				{
					"internalType": "address",
					"name": "account",
					"type": "address"
				},
				{
					"internalType": "uint256",
					"name": "timestamp",
					"type": "uint256"
				}
			],
			"name": "setLockup",
			"outputs": [],
			"stateMutability": "nonpayable",
			"type": "function"
		},
		{
			"inputs": [],
			"name": "symbol",
			"outputs": [
				{
					"internalType": "string",
					"name": "",
					"type": "string"
				}
			],
			"stateMutability": "view",
			"type": "function"
		},
		{
			"inputs": [],
			"name": "totalSupply",
			"outputs": [
				{
					"internalType": "uint256",
					"name": "",
					"type": "uint256"
				}
			],
			"stateMutability": "view",
			"type": "function"
		},
		{
			"inputs": [
				{
					"internalType": "address",
					"name": "recipient",
					"type": "address"
				},
				{
					"internalType": "uint256",
					"name": "amount",
					"type": "uint256"
				}
			],
			"name": "transfer",
			"outputs": [
				{
					"internalType": "bool",
					"name": "",
					"type": "bool"
				}
			],
			"stateMutability": "nonpayable",
			"type": "function"
		},
		{
			"inputs": [
				{
					"internalType": "address",
					"name": "sender",
					"type": "address"
				},
				{
					"internalType": "address",
					"name": "recipient",
					"type": "address"
				},
				{
					"internalType": "uint256",
					"name": "amount",
					"type": "uint256"
				}
			],
			"name": "transferFrom",
			"outputs": [
				{
					"internalType": "bool",
					"name": "",
					"type": "bool"
				}
			],
			"stateMutability": "nonpayable",
			"type": "function"
		},
		{
			"inputs": [
				{
					"internalType": "address",
					"name": "newOwner",
					"type": "address"
				}
			],
			"name": "transferOwnership",
			"outputs": [],
			"stateMutability": "nonpayable",
			"type": "function"
		},
		{
			"inputs": [],
			"name": "unpause",
			"outputs": [],
			"stateMutability": "nonpayable",
			"type": "function"
		},
		{
			"inputs": [
				{
					"internalType": "address",
					"name": "newImplementation",
					"type": "address"
				},
				{
					"internalType": "bytes",
					"name": "data",
					"type": "bytes"
				}
			],
			"name": "upgradeToAndCall",
			"outputs": [],
			"stateMutability": "payable",
			"type": "function"
		}
	]
}