{
	"data": {
		"bytecode": {
			"linkReferences": {},
			"object": "60c0604052600b805460ff19169055348015610019575f80fd5b50604051613d65380380613d658339810160408190526100389161015e565b338061005d57604051631e4fbdf760e01b81525f600482015260240160405180910390fd5b610066816100f8565b506001805560028054600580546001600160a01b03199081166001600160a01b039c8d16179091556007805482169a8c169a909a17909955600680548a16988b169890981790975594881660805292871660a0526001600160a81b0319909416610100918716919091021790915560038054841692851692909217909155600480549092169216919091179055610209565b5f80546001600160a01b038381166001600160a01b0319831681178455604051919092169283917f8be0079c531659141344cd1fd0a4f28419497f9722a3daafe3b4186f6b6457e09190a35050565b6001600160a01b038116811461015b575f80fd5b50565b5f805f805f805f80610100898b031215610176575f80fd5b885161018181610147565b60208a015190985061019281610147565b60408a01519097506101a381610147565b60608a01519096506101b481610147565b60808a01519095506101c581610147565b60a08a01519094506101d681610147565b60c08a01519093506101e781610147565b60e08a01519092506101f881610147565b809150509295985092959890939650565b60805160a051613b036102625f395f81816104a00152818161143601528181612603015281816130a2015261314101525f818161044e0152818161145c0152818161262901528181612f3f0152612fde0152613b035ff3fe608060405260043610610278575f3560e01c8063835722ad1161014a578063c211e1f9116100be578063f2fde38b11610078578063f2fde38b1461082c578063f3e765101461084b578063f621cc481461086a578063fc0c546a14610898578063fcbca456146108b7578063ff960c0e146108d6575f80fd5b8063c211e1f91461072f578063c81ffdea14610763578063d1f3b23e1461078e578063da5467a5146107a7578063df4e0593146107c6578063e8e8738914610801575f80fd5b8063a1c4b5a21161010f578063a1c4b5a214610666578063a1e89aec14610685578063a95836d11461069a578063af979f7f146106b9578063b3fdafb9146106d8578063b5f522f7146106f7575f80fd5b8063835722ad146105e55780638456cb59146106045780638da5cb5b14610618578063940c333e146106345780639fa8adb814610647575f80fd5b80633e413bee116101ec5780635c975abb116101a65780635c975abb146105525780635e6f60451461056957806363b2011714610588578063715018a61461059d578063721bc38b146105b1578063736b1906146105c6575f80fd5b80633e413bee1461048f5780633f4ba83a146104c257806346e04a2f146104d65780634a4c560d146104f55780634de33882146105145780635b7baf6414610533575f80fd5b80631b152ac51161023d5780631b152ac5146103ab578063212ea247146103cc57806322c0aec7146103e05780632593198d1461041e5780632f48ab7d1461043d57806334dd8f5e14610470575f80fd5b806305834e67146102ce578063091c2c9914610300578063115afc3a14610336578063117d260f14610355578063171600a314610374575f80fd5b366102ca5760405162461bcd60e51b815260206004820181905260248201527f44697265637420424e42207472616e7366657273206e6f7420616c6c6f77656460448201526064015b60405180910390fd5b5f80fd5b3480156102d9575f80fd5b506102ed6102e8366004613297565b610912565b6040519081526020015b60405180910390f35b34801561030b575f80fd5b506102ed61031a3660046132d3565b601360209081525f928352604080842090915290825290205481565b348015610341575f80fd5b506102ed610350366004613301565b610a8f565b348015610360575f80fd5b506102ed61036f366004613297565b610afc565b34801561037f575f80fd5b50600654610393906001600160a01b031681565b6040516001600160a01b0390911681526020016102f7565b3480156103b6575f80fd5b506103ca6103c5366004613339565b610c91565b005b3480156103d7575f80fd5b506102ed610d12565b3480156103eb575f80fd5b5061040e6103fa36600461335c565b600e6020525f908152604090205460ff1681565b60405190151581526020016102f7565b348015610429575f80fd5b506102ed610438366004613377565b610d91565b348015610448575f80fd5b506103937f000000000000000000000000000000000000000000000000000000000000000081565b34801561047b575f80fd5b506102ed61048a366004613297565b610da4565b34801561049a575f80fd5b506103937f000000000000000000000000000000000000000000000000000000000000000081565b3480156104cd575f80fd5b506103ca610e3c565b3480156104e1575f80fd5b506103ca6104f0366004613377565b610e4e565b348015610500575f80fd5b506103ca61050f36600461335c565b610eaa565b34801561051f575f80fd5b506103ca61052e3660046133a2565b610f63565b34801561053e575f80fd5b506103ca61054d366004613377565b611170565b34801561055d575f80fd5b5060025460ff1661040e565b348015610574575f80fd5b50600754610393906001600160a01b031681565b348015610593575f80fd5b506102ed600a5481565b3480156105a8575f80fd5b506103ca61163d565b3480156105bc575f80fd5b506102ed60095481565b3480156105d1575f80fd5b5061040e6105e0366004613377565b61164e565b3480156105f0575f80fd5b506102ed6105ff366004613377565b61169a565b34801561060f575f80fd5b506103ca6116aa565b348015610623575f80fd5b505f546001600160a01b0316610393565b6103ca610642366004613297565b6116ba565b348015610652575f80fd5b506102ed610661366004613377565b611a9d565b348015610671575f80fd5b506102ed610680366004613377565b611ab0565b348015610690575f80fd5b506102ed60085481565b3480156106a5575f80fd5b506103ca6106b436600461335c565b611ac0565b3480156106c4575f80fd5b506103ca6106d336600461335c565b611c33565b3480156106e3575f80fd5b506102ed6106f2366004613377565b611d1b565b348015610702575f80fd5b50610716610711366004613377565b611d2b565b6040516102f79d9c9b9a999897969594939291906134d4565b34801561073a575f80fd5b5061074e610749366004613377565b611e1d565b604080519283526020830191909152016102f7565b34801561076e575f80fd5b506102ed61077d36600461335c565b600f6020525f908152604090205481565b348015610799575f80fd5b50600b5461040e9060ff1681565b3480156107b2575f80fd5b5061074e6107c1366004613377565b611fcd565b3480156107d1575f80fd5b506107f46107e036600461335c565b60116020525f908152604090205460ff1681565b6040516102f7919061357e565b34801561080c575f80fd5b506102ed61081b36600461335c565b60106020525f908152604090205481565b348015610837575f80fd5b506103ca61084636600461335c565b612058565b348015610856575f80fd5b5061040e610865366004613377565b612092565b348015610875575f80fd5b5061040e61088436600461335c565b600d6020525f908152604090205460ff1681565b3480156108a3575f80fd5b50600554610393906001600160a01b031681565b3480156108c2575f80fd5b506103ca6108d136600461335c565b6120de565b3480156108e1575f80fd5b506102ed6108f036600461358c565b601260209081525f938452604080852082529284528284209052825290205481565b5f8061092061068085610a8f565b9050805f036109665760405162461bcd60e51b8152602060048201526012602482015271125b9d985b1a59081c1c9a58d9481999595960721b60448201526064016102c1565b5f61096f610d12565b5f818152600c6020526040812060048101549293509190808860028111156109995761099961354a565b036109b2576109ab61066188876135db565b9050610a6b565b60028860028111156109c6576109c661354a565b14806109e3575060018860028111156109e1576109e161354a565b145b15610a235760065f6109f68260126135f2565b610a0190600a6136e8565b610a0b908a6135db565b9050610a1a61066182896135db565b92505050610a6b565b60405162461bcd60e51b815260206004820152601a60248201527f556e737570706f72746564207061796d656e74206d6574686f6400000000000060448201526064016102c1565b5f82610a7683610d91565b610a8091906136f3565b96505050505050505b92915050565b5f80826002811115610aa357610aa361354a565b03610ab457506410703dbd84919050565b6001826002811115610ac857610ac861354a565b03610ad857506305f5d46a919050565b6002826002811115610aec57610aec61354a565b03610a2357506305f5d46a919050565b5f815f03610b4c5760405162461bcd60e51b815260206004820152601760248201527f416d6f756e74206d75737420626520706f73697469766500000000000000000060448201526064016102c1565b5f610b5961068085610a8f565b9050805f03610b9f5760405162461bcd60e51b8152602060048201526012602482015271125b9d985b1a59081c1c9a58d9481999595960721b60448201526064016102c1565b5f610ba8610d12565b9050805f03610bea5760405162461bcd60e51b815260206004820152600e60248201526d4e6f206163746976652073616c6560901b60448201526064016102c1565b5f818152600c6020526040812060048101549091610c0b61066183896135db565b90505f80896002811115610c2157610c2161354a565b03610c415785610c3083610d91565b610c3a91906136f3565b9050610c85565b6001896002811115610c5557610c5561354a565b1480610c7257506002896002811115610c7057610c7061354a565b145b15610a235785610c3083620f42406135db565b98975050505050505050565b610c99612197565b5f828152600c60205260409020600b8101805462ff0000191662010000841515021790819055426001830155610100900460ff16610ce357600b8101805461ff0019166101001790555b60405183907f7b1c1ad0f3e04c9ef02d69280925520638d1cf076c56c4aa5bb1d0d37a949a3d905f90a2505050565b5f60015b6008548111610d8a575f818152600c60205260409020544210801590610d4c57505f818152600c60205260409020600101544211155b8015610d6e57505f818152600c60205260409020600b0154610100900460ff16155b15610d7857919050565b80610d8281613712565b915050610d16565b505f905090565b5f610a8982670de0b6b3a76400006135db565b5f80836002811115610db857610db861354a565b03610dc4575080610a89565b6001836002811115610dd857610dd861354a565b1480610df557506002836002811115610df357610df361354a565b145b15610e3457610e24604051806060016040528060298152602001613a7760299139610e1f8461169a565b6121c3565b610e2d8261169a565b9050610a89565b505f92915050565b610e44612197565b610e4c61220c565b565b60075460405163379607f560e01b8152600481018390526001600160a01b039091169063379607f5906024015f604051808303815f87803b158015610e91575f80fd5b505af1158015610ea3573d5f803e3d5ffd5b5050505050565b610eb2612197565b6001600160a01b038116610ed85760405162461bcd60e51b81526004016102c19061372a565b6001600160a01b0381165f908152600e602052604090205460ff1615610f18576001600160a01b0381165f908152600e60205260409020805460ff191690555b6001600160a01b0381165f818152600d6020526040808220805460ff19166001179055517faab7954e9d246b167ef88aeddad35209ca2489d95a8aeb59e288d9b19fae5a549190a250565b610f6b612197565b600b5460ff1615610f8e5760405162461bcd60e51b81526004016102c190613753565b4289118015610f9c57508888115b8015610fae5750610fab61225e565b42115b610ffa5760405162461bcd60e51b815260206004820152601860248201527f496e76616c69642073746172742074696d652072616e6765000000000000000060448201526064016102c1565b845f0361103f5760405162461bcd60e51b815260206004820152601360248201527250726963652063616e2774206265207a65726f60681b60448201526064016102c1565b85871061109a5760405162461bcd60e51b815260206004820152602360248201527f536f667420636170206d757374206265206c657373207468616e20686172642060448201526206361760ec1b60648201526084016102c1565b6008546110a8906001613782565b60088181555f918252600c602052604082208b8155600181018b9055600281018a90556003810189905560048101889055600581018390556006810192909255600782018690558101849055600a81016111028482613816565b50600b8101805462ffffff191683151562ffff0019161790556008546040517f3371fdb73278ba465dc47cadcaff52b8f98c7478f86f10d680bce08f9a0cb1c29061115c908d908d908d908d908d908b908e908e906138d1565b60405180910390a250505050505050505050565b6111786122b5565b6111806122df565b801580159061119157506008548111155b6111ad5760405162461bcd60e51b81526004016102c19061391a565b5f818152600c6020526040902060018101544211806111d65750600b81015462010000900460ff165b6112115760405162461bcd60e51b815260206004820152600c60248201526b53616c65206f6e676f696e6760a01b60448201526064016102c1565b8060020154816006015411156112695760405162461bcd60e51b815260206004820152601e60248201527f536f667420636170207265616368656420666f7220746869732073616c65000060448201526064016102c1565b5f805b60038160ff1610156115df575f8160ff16600281111561128e5761128e61354a565b5f868152601260209081526040808320338452909152812091925090818360028111156112bd576112bd61354a565b60028111156112ce576112ce61354a565b81526020019081526020015f20549050805f146115d5575f8681526012602090815260408083203384529091528120818460028111156113105761131061354a565b60028111156113215761132161354a565b815260208101919091526040015f205561133b8185613782565b93505f8260028111156113505761135061354a565b036113e4576040515f90339083908381818185875af1925050503d805f8114611394576040519150601f19603f3d011682016040523d82523d5f602084013e611399565b606091505b50509050806113de5760405162461bcd60e51b8152602060048201526011602482015270109390881c99599d5b990819985a5b1959607a1b60448201526064016102c1565b5061158f565b60018260028111156113f8576113f861354a565b1480611415575060028260028111156114135761141361354a565b145b15611539575f600183600281111561142f5761142f61354a565b1461145a577f000000000000000000000000000000000000000000000000000000000000000061147c565b7f00000000000000000000000000000000000000000000000000000000000000005b60405163a9059cbb60e01b8152336004820152602481018490529091506001600160a01b0382169063a9059cbb906044016020604051808303815f875af11580156114c9573d5f803e3d5ffd5b505050506040513d601f19601f820116820180604052508101906114ed9190613943565b6113de5760405162461bcd60e51b815260206004820152601860248201527f537461626c65636f696e20726566756e64206661696c6564000000000000000060448201526064016102c1565b60405162461bcd60e51b815260206004820152602560248201527f556e737570706f72746564207061796d656e74206d6574686f6420666f72207260448201526419599d5b9960da1b60648201526084016102c1565b336001600160a01b03167f2f7dd91b1411487b2be64464150a4d8637d501759748b8e0bc5b64de2d1bc1fd8783856040516115cc9392919061395e565b60405180910390a25b505060010161126c565b50805f0361162f5760405162461bcd60e51b815260206004820181905260248201527f4e6f2066756e647320746f20726566756e6420666f7220746869732073616c6560448201526064016102c1565b505061163a60018055565b50565b611645612197565b610e4c5f612303565b5f811580159061166057506008548211155b61167c5760405162461bcd60e51b81526004016102c19061391a565b505f908152600c602052604090206002810154600690910154101590565b5f610a898264e8d4a510006135db565b6116b2612197565b610e4c612352565b6116c26122df565b600b5460ff16156116e55760405162461bcd60e51b81526004016102c190613753565b335f908152600e602052604090205460ff16156117325760405162461bcd60e51b815260206004820152600b60248201526a109b1858dadb1a5cdd195960aa1b60448201526064016102c1565b5f546001600160a01b0316330361177e5760405162461bcd60e51b815260206004820152601060248201526f13dddb995c881c995cdd1c9a58dd195960821b60448201526064016102c1565b5f611787610d12565b9050805f036117c95760405162461bcd60e51b815260206004820152600e60248201526d4e6f206163746976652073616c6560901b60448201526064016102c1565b5f818152600c60205260409020600b810154610100900460ff16156118215760405162461bcd60e51b815260206004820152600e60248201526d14d85b1948199a5b985b1a5e995960921b60448201526064016102c1565b604080518082018252600e81526d3a37b5b2b739b4b73b32b9ba37b960911b6020808301919091525f85815260138252838120338252909152919091205461186991906121c3565b5f6118748585610da4565b5f8481526013602090815260408083203384529091529020546118979190613782565b90506118d86040518060400160405280601b81526020017f3d3d3d3d3d3d3d3d3d3d75736572546f74616c50757263686173650000000000815250826121c3565b6118f9604051806060016040528060258152602001613a526025913961238f565b5f611906338787876123d2565b90506119476040518060400160405280601d81526020017f3d3d3d3d3d3d3d3d3d3d63726f7373656420746f6b656e416d6f756e74000000815250826121c3565b805f0361198d5760405162461bcd60e51b8152602060048201526014602482015273125b9d985b1a59081d1bdad95b88185b5bdd5b9d60621b60448201526064016102c1565b5f6119a184600401548361066191906135db565b90506119e26040518060400160405280601881526020017f3d3d3d3d3d3d3d3d3d3d746f74616c436f7374496e5553440000000000000000815250826121c3565b83600301548185600601546119f79190613782565b1115611a385760405162461bcd60e51b815260206004820152601060248201526f12185c990818d85c081c995858da195960821b60448201526064016102c1565b611a4433868484612910565b611a4f338684612a64565b7fdbcef474a632721725d49e3f35d9defe0257100b01d1e4b4b135b14d6fe296e83386848760040154348c604051611a8c96959493929190613979565b60405180910390a150505050505050565b5f610a89670de0b6b3a7640000836136f3565b5f610a89826402540be4006135db565b611ac86122b5565b611ad0612197565b611ad86122df565b600b5460ff1615611afb5760405162461bcd60e51b81526004016102c190613753565b6008546001908190815b818111611b98575f818152600c60205260409020600381015460068201541015611b2d575f94505b80600201548160060154101580611b475750806001015442115b15611b50575f93505b80600101544210158015611b6e5750600b810154610100900460ff16155b15611b8557600b8101805461ff0019166101001790555b5080611b9081613712565b915050611b05565b508280611ba25750815b15611bed57600b805460ff19166001179055611bbd84612e68565b600a546040517f9c4b134da32aab35252391880a9f2a3c13a760d7817ae8823f2b301d3522045a905f90a2611c27565b60405162461bcd60e51b815260206004820152600f60248201526e43616e6e6f742066696e616c697a6560881b60448201526064016102c1565b50505061163a60018055565b611c3b612197565b6001600160a01b038116611c615760405162461bcd60e51b81526004016102c19061372a565b6001600160a01b0381165f908152600d602052604090205460ff1615611ca5576001600160a01b0381165f908152600d60205260409020805460ff19169055611ce5565b6001600160a01b0381165f908152600e602052604090205460ff1615611ce5576001600160a01b0381165f908152600e60205260409020805460ff191690555b6040516001600160a01b038216907fd5326ec3722c1b91194a873ebd0875236e62c0932b88afa648564955fd47db11905f90a250565b5f610a896402540be400836136f3565b600c602052805f5260405f205f91509050805f01549080600101549080600201549080600301549080600401549080600501549080600601549080600701549080600801549080600a018054611d8090613795565b80601f0160208091040260200160405190810160405280929190818152602001828054611dac90613795565b8015611df75780601f10611dce57610100808354040283529160200191611df7565b820191905f5260205f20905b815481529060010190602001808311611dda57829003601f168201915b505050600b909301549192505060ff80821691610100810482169162010000909104168d565b5f805f600c5f8581526020019081526020015f20604051806101c00160405290815f8201548152602001600182015481526020016002820154815260200160038201548152602001600482015481526020016005820154815260200160068201548152602001600782015481526020016008820154815260200160098201805480602002602001604051908101604052809291908181526020018280548015611eed57602002820191905f5260205f20905b81546001600160a01b03168152600190910190602001808311611ecf575b50505050508152602001600a82018054611f0690613795565b80601f0160208091040260200160405190810160405280929190818152602001828054611f3290613795565b8015611f7d5780601f10611f5457610100808354040283529160200191611f7d565b820191905f5260205f20905b815481529060010190602001808311611f6057829003601f168201915b5050509183525050600b919091015460ff80821615156020808501919091526101008304821615156040850152620100009092041615156060909201919091528151910151909590945092505050565b5f808215801590611fe057506008548311155b611ffc5760405162461bcd60e51b81526004016102c19061391a565b50505f818152600c6020526040812060098101546008549092919060015b818111612050575f818152600c602052604090206009015461203c9085613782565b93508061204881613712565b91505061201a565b505050915091565b612060612197565b6001600160a01b03811661208957604051631e4fbdf760e01b81525f60048201526024016102c1565b61163a81612303565b5f81158015906120a457506008548211155b6120c05760405162461bcd60e51b81526004016102c19061391a565b505f908152600c602052604090206003810154600690910154101590565b6120e6612197565b6001600160a01b03811661210c5760405162461bcd60e51b81526004016102c19061372a565b6001600160a01b0381165f908152600d602052604090205460ff161561214c576001600160a01b0381165f908152600d60205260409020805460ff191690555b6001600160a01b0381165f818152600e6020526040808220805460ff19166001179055517fffa4e6181777692565cf28528fc88fd1516ea86b56da075235fa575af6a4b8559190a250565b5f546001600160a01b03163314610e4c5760405163118cdaa760e01b81523360048201526024016102c1565b61220882826040516024016121d99291906139bd565b60408051601f198184030181529190526020810180516001600160e01b0316632d839cb360e21b1790526131f4565b5050565b6122146131fd565b6002805460ff191690557f5db9ee0a495bf2e6ff9c91a7834c1ba4fdd244a5e8aa4e537bd38aeae4b073aa335b6040516001600160a01b03909116815260200160405180910390a1565b6008545f90819060015b8181116122ad575f818152600c602052604090206001015483101561229b575f818152600c602052604090206001015492505b806122a581613712565b915050612268565b509092915050565b6002600154036122d857604051633ee5aeb560e01b815260040160405180910390fd5b6002600155565b60025460ff1615610e4c5760405163d93c066560e01b815260040160405180910390fd5b5f80546001600160a01b038381166001600160a01b0319831681178455604051919092169283917f8be0079c531659141344cd1fd0a4f28419497f9722a3daafe3b4186f6b6457e09190a35050565b61235a6122df565b6002805460ff191660011790557f62e78cea01bee320cd4e420270b5ea74000d11b0c9f74754ebdbfc544b05a2586122413390565b61163a816040516024016123a391906139de565b60408051601f198184030181529190526020810180516001600160e01b031663104c13eb60e21b1790526131f4565b5f808460028111156123e6576123e661354a565b036124f157612421604051806040016040528060158152602001741e9e9e9e9e9e9e9e9e9eb2b73a32b932b21031373160591b81525061238f565b345f0361245e5760405162461bcd60e51b815260206004820152600b60248201526a24b73b30b634b21021272160a91b60448201526064016102c1565b5f6124698534610912565b90506124aa6040518060400160405280601981526020017f3d3d3d3d3d3d3d3d3d3d746f6b656e416d6f756e7420626e6200000000000000815250826121c3565b5f8381526012602090815260408083206001600160a01b038a1684528252808320838052909152812080543492906124e3908490613782565b909155509091506129089050565b60018460028111156125055761250561354a565b1480612522575060028460028111156125205761252061354a565b145b156128ca576125656040518060400160405280601b81526020017f3d3d3d3d3d3d3d3d3d3d656e746572656420757364632f75736474000000000081525061238f565b825f036125a95760405162461bcd60e51b815260206004820152601260248201527124b73b30b634b21039ba30b13632b1b7b4b760711b60448201526064016102c1565b6125e76040518060400160405280601a81526020017f3d3d3d3d3d3d3d3d3d3d72657175697265642063726f7373656400000000000081525061238f565b5f60018560028111156125fc576125fc61354a565b14612627577f0000000000000000000000000000000000000000000000000000000000000000612649565b7f00000000000000000000000000000000000000000000000000000000000000005b9050612680604051806040016040528060148152602001731e9e9e9e9e9e9e9e9e9eb9ba30b13632b1b7b4b760611b81525061238f565b6126b5604051806040016040528060138152602001721e9e9e9e9e9e9e9e9e9eafb4b73b32b9ba37b960691b81525087613220565b6126f46040518060400160405280601781526020017f3d3d3d3d3d3d3d3d3d3d6164647265737328746869732900000000000000000081525030613220565b6127336040518060400160405280601781526020017f3d3d3d3d3d3d3d3d3d3d7061796d656e74416d6f756e74000000000000000000815250856121c3565b6040516323b872dd60e01b81526001600160a01b038781166004830152306024830152604482018690528216906323b872dd906064016020604051808303815f875af1158015612785573d5f803e3d5ffd5b505050506040513d601f19601f820116820180604052508101906127a99190613943565b6127f55760405162461bcd60e51b815260206004820152601a60248201527f537461626c65636f696e207472616e73666572206661696c656400000000000060448201526064016102c1565b6128166040518060600160405280602e8152602001613aa0602e913961238f565b5f6128218686610912565b905061285a604051806040016040528060158152602001740f4f4f4f4f4f4f4f4f4f5d1bdad95b905b5bdd5b9d605a1b815250826121c3565b5f8481526012602090815260408083206001600160a01b038b1684529091528120869188600281111561288f5761288f61354a565b60028111156128a0576128a061354a565b81526020019081526020015f205f8282546128bb9190613782565b90915550909250612908915050565b60405162461bcd60e51b8152602060048201526013602482015272155b9cdd5c1c1bdc9d1959081c185e5b595b9d606a1b60448201526064016102c1565b949350505050565b5f838152600c602090815260408083206001600160a01b0388168452600f9092528220805491928492612944908490613782565b9250508190555081816006015f82825461295e9190613782565b925050819055508160095f8282546129769190613782565b9250508190555082816005015f8282546129909190613782565b9250508190555082600a5f8282546129a89190613782565b90915550505f8481526013602090815260408083206001600160a01b0389168452909152812080548592906129de908490613782565b90915550506001600160a01b0385165f908152601060205260408120549003612a31576009810180546001810182555f91825260209091200180546001600160a01b0319166001600160a01b0387161790555b6001600160a01b0385165f9081526010602052604081208054859290612a58908490613782565b90915550505050505050565b5f6064612a7283600a6135db565b612a7c91906136f3565b9050612abd6040518060400160405280601781526020017f3d3d3d3d3d696e697469616c52656c656173653d3d3d3d000000000000000000815250826121c3565b5f612ac882846135f2565b9050612b01604051806040016040528060158152602001743d3d3d3d3d6c6f636b6564546f6b656e733d3d3d3d60581b815250826121c3565b6005546001600160a01b031663f326f0d786612b1f4261012c613782565b6040516001600160e01b031960e085901b1681526001600160a01b0390921660048301526024820152604481018590526064015f604051808303815f87803b158015612b69575f80fd5b505af1158015612b7b573d5f803e3d5ffd5b50505050612bbd6040518060400160405280601781526020017f3d3d3d3d3d746f6b656e73206c6f636b6564643d3d3d3d00000000000000000081525061238f565b60055460405163a9059cbb60e01b81526001600160a01b038781166004830152602482018590529091169063a9059cbb906044016020604051808303815f875af1158015612c0d573d5f803e3d5ffd5b505050506040513d601f19601f82011682018060405250810190612c319190613943565b612c7d5760405162461bcd60e51b815260206004820152601760248201527f496e697469616c207472616e73666572206661696c656400000000000000000060448201526064016102c1565b612cb2604051806040016040528060148152602001733d3d3d3d3d31302520746f20757365723d3d3d3d60601b81525061238f565b60055460075460405163a9059cbb60e01b81526001600160a01b0391821660048201526024810184905291169063a9059cbb906044016020604051808303815f875af1158015612d04573d5f803e3d5ffd5b505050506040513d601f19601f82011682018060405250810190612d289190613943565b612d745760405162461bcd60e51b815260206004820152601760248201527f56657374696e67207472616e73666572206661696c656400000000000000000060448201526064016102c1565b612d95604051806060016040528060218152602001613a316021913961238f565b600754604051630dd0123f60e21b81526001600160a01b038781166004830152602482018790526044820186905260648201859052608482018490524260a483015261012c60c4830181905261070860e48401526101048301529091169063374048fc90610124015f604051808303815f87803b158015612e14575f80fd5b505af1158015612e26573d5f803e3d5ffd5b50505050610ea36040518060400160405280601b81526020017f3d3d3d3d3d76657374696e6720726567697374657265643d3d3d3d000000000081525061238f565b6001600160a01b038116612e8e5760405162461bcd60e51b81526004016102c19061372a565b478015612f28575f826001600160a01b0316826040515f6040518083038185875af1925050503d805f8114612ede576040519150601f19603f3d011682016040523d82523d5f602084013e612ee3565b606091505b5050905080612f265760405162461bcd60e51b815260206004820152600f60248201526e151c985b9cd9995c8819985a5b1959608a1b60448201526064016102c1565b505b6040516370a0823160e01b81523060048201525f907f00000000000000000000000000000000000000000000000000000000000000006001600160a01b0316906370a0823190602401602060405180830381865afa158015612f8c573d5f803e3d5ffd5b505050506040513d601f19601f82011682018060405250810190612fb091906139f0565b9050801561308b5760405163a9059cbb60e01b81526001600160a01b038481166004830152602482018390527f0000000000000000000000000000000000000000000000000000000000000000169063a9059cbb906044016020604051808303815f875af1158015613024573d5f803e3d5ffd5b505050506040513d601f19601f820116820180604052508101906130489190613943565b61308b5760405162461bcd60e51b81526020600482015260146024820152731554d115081d1c985b9cd9995c8819985a5b195960621b60448201526064016102c1565b6040516370a0823160e01b81523060048201525f907f00000000000000000000000000000000000000000000000000000000000000006001600160a01b0316906370a0823190602401602060405180830381865afa1580156130ef573d5f803e3d5ffd5b505050506040513d601f19601f8201168201806040525081019061311391906139f0565b905080156131ee5760405163a9059cbb60e01b81526001600160a01b038581166004830152602482018390527f0000000000000000000000000000000000000000000000000000000000000000169063a9059cbb906044016020604051808303815f875af1158015613187573d5f803e3d5ffd5b505050506040513d601f19601f820116820180604052508101906131ab9190613943565b6131ee5760405162461bcd60e51b81526020600482015260146024820152731554d110c81d1c985b9cd9995c8819985a5b195960621b60448201526064016102c1565b50505050565b61163a81613265565b60025460ff16610e4c57604051638dfc202b60e01b815260040160405180910390fd5b6122088282604051602401613236929190613a07565b60408051601f198184030181529190526020810180516001600160e01b031663319af33360e01b1790526131f4565b5f6a636f6e736f6c652e6c6f6790505f80835160208501845afa505050565b803560038110613292575f80fd5b919050565b5f80604083850312156132a8575f80fd5b6132b183613284565b946020939093013593505050565b6001600160a01b038116811461163a575f80fd5b5f80604083850312156132e4575f80fd5b8235915060208301356132f6816132bf565b809150509250929050565b5f60208284031215613311575f80fd5b61331a82613284565b9392505050565b801515811461163a575f80fd5b803561329281613321565b5f806040838503121561334a575f80fd5b8235915060208301356132f681613321565b5f6020828403121561336c575f80fd5b813561331a816132bf565b5f60208284031215613387575f80fd5b5035919050565b634e487b7160e01b5f52604160045260245ffd5b5f805f805f805f805f6101208a8c0312156133bb575f80fd5b8935985060208a0135975060408a0135965060608a0135955060808a0135945060a08a0135935060c08a0135925060e08a013567ffffffffffffffff811115613402575f80fd5b8a01601f81018c13613412575f80fd5b803567ffffffffffffffff81111561342c5761342c61338e565b604051601f8201601f19908116603f0116810167ffffffffffffffff8111828210171561345b5761345b61338e565b6040528181528282016020018e1015613472575f80fd5b816020840160208301375f602083830101528094505050506134976101008b0161332e565b90509295985092959850929598565b5f81518084528060208401602086015e5f602082860101526020601f19601f83011685010191505092915050565b8d81528c60208201528b60408201528a60608201528960808201528860a08201528760c08201528660e0820152856101008201526101a06101208201525f6135206101a08301876134a6565b941515610140830152509115156101608301521515610180909101529a9950505050505050505050565b634e487b7160e01b5f52602160045260245ffd5b6003811061357a57634e487b7160e01b5f52602160045260245ffd5b9052565b60208101610a89828461355e565b5f805f6060848603121561359e575f80fd5b8335925060208401356135b0816132bf565b91506135be60408501613284565b90509250925092565b634e487b7160e01b5f52601160045260245ffd5b8082028115828204841417610a8957610a896135c7565b81810381811115610a8957610a896135c7565b6001815b600184111561364057808504811115613624576136246135c7565b600184161561363257908102905b60019390931c928002613609565b935093915050565b5f8261365657506001610a89565b8161366257505f610a89565b816001811461367857600281146136825761369e565b6001915050610a89565b60ff841115613693576136936135c7565b50506001821b610a89565b5060208310610133831016604e8410600b84101617156136c1575081810a610a89565b6136cd5f198484613605565b805f19048211156136e0576136e06135c7565b029392505050565b5f61331a8383613648565b5f8261370d57634e487b7160e01b5f52601260045260245ffd5b500490565b5f60018201613723576137236135c7565b5060010190565b6020808252600f908201526e496e76616c6964206164647265737360881b604082015260600190565b6020808252601590820152741250d3c8185b1c9958591e48199a5b985b1a5e9959605a1b604082015260600190565b80820180821115610a8957610a896135c7565b600181811c908216806137a957607f821691505b6020821081036137c757634e487b7160e01b5f52602260045260245ffd5b50919050565b601f82111561381157805f5260205f20601f840160051c810160208510156137f25750805b601f840160051c820191505b81811015610ea3575f81556001016137fe565b505050565b815167ffffffffffffffff8111156138305761383061338e565b6138448161383e8454613795565b846137cd565b6020601f821160018114613876575f831561385f5750848201515b5f19600385901b1c1916600184901b178455610ea3565b5f84815260208120601f198516915b828110156138a55787850151825560209485019460019092019101613885565b50848210156138c257868401515f19600387901b60f8161c191681555b50505050600190811b01905550565b88815287602082015286604082015285606082015284608082015261010060a08201525f6139036101008301866134a6565b60c08301949094525060e001529695505050505050565b6020808252600f908201526e125b9d985b1a59081cd85b19481251608a1b604082015260600190565b5f60208284031215613953575f80fd5b815161331a81613321565b8381526020810183905260608101612908604083018461355e565b6001600160a01b03871681526020810186905260408101859052606081018490526080810183905260c081016139b260a083018461355e565b979650505050505050565b604081525f6139cf60408301856134a6565b90508260208301529392505050565b602081525f61331a60208301846134a6565b5f60208284031215613a00575f80fd5b5051919050565b604081525f613a1960408301856134a6565b905060018060a01b0383166020830152939250505056fe3d3d3d3d3d7265737420696e2076657374696e6720636f6e74726163743d3d3d3d3d3d3d3d3d3d3d3d3d3d63726f7373696e67206d617820707572636861736520636865636b3d3d3d3d3d3d3d3d3d3d707265636973696f6e5f6d756c5f3132287061796d656e74416d6f756e74293d3d3d3d3d3d3d3d3d3d7272657175697265642063726f73736564207472616e7366657220636f6d706c65746564a2646970667358221220d0cb7b409ce337dad3775c459fe4377011f5828175e191b7ec44ae59916a121764736f6c634300081a0033",
			"opcodes": "PUSH1 0xC0 PUSH1 0x40 MSTORE PUSH1 0xB DUP1 SLOAD PUSH1 0xFF NOT AND SWAP1 SSTORE CALLVALUE DUP1 ISZERO PUSH2 0x19 JUMPI PUSH0 DUP1 REVERT JUMPDEST POP PUSH1 0x40 MLOAD PUSH2 0x3D65 CODESIZE SUB DUP1 PUSH2 0x3D65 DUP4 CODECOPY DUP2 ADD PUSH1 0x40 DUP2 SWAP1 MSTORE PUSH2 0x38 SWAP2 PUSH2 0x15E JUMP JUMPDEST CALLER DUP1 PUSH2 0x5D JUMPI PUSH1 0x40 MLOAD PUSH4 0x1E4FBDF7 PUSH1 0xE0 SHL DUP2 MSTORE PUSH0 PUSH1 0x4 DUP3 ADD MSTORE PUSH1 0x24 ADD PUSH1 0x40 MLOAD DUP1 SWAP2 SUB SWAP1 REVERT JUMPDEST PUSH2 0x66 DUP2 PUSH2 0xF8 JUMP JUMPDEST POP PUSH1 0x1 DUP1 SSTORE PUSH1 0x2 DUP1 SLOAD PUSH1 0x5 DUP1 SLOAD PUSH1 0x1 PUSH1 0x1 PUSH1 0xA0 SHL SUB NOT SWAP1 DUP2 AND PUSH1 0x1 PUSH1 0x1 PUSH1 0xA0 SHL SUB SWAP13 DUP14 AND OR SWAP1 SWAP2 SSTORE PUSH1 0x7 DUP1 SLOAD DUP3 AND SWAP11 DUP13 AND SWAP11 SWAP1 SWAP11 OR SWAP1 SWAP10 SSTORE PUSH1 0x6 DUP1 SLOAD DUP11 AND SWAP9 DUP12 AND SWAP9 SWAP1 SWAP9 OR SWAP1 SWAP8 SSTORE SWAP5 DUP9 AND PUSH1 0x80 MSTORE SWAP3 DUP8 AND PUSH1 0xA0 MSTORE PUSH1 0x1 PUSH1 0x1 PUSH1 0xA8 SHL SUB NOT SWAP1 SWAP5 AND PUSH2 0x100 SWAP2 DUP8 AND SWAP2 SWAP1 SWAP2 MUL OR SWAP1 SWAP2 SSTORE PUSH1 0x3 DUP1 SLOAD DUP5 AND SWAP3 DUP6 AND SWAP3 SWAP1 SWAP3 OR SWAP1 SWAP2 SSTORE PUSH1 0x4 DUP1 SLOAD SWAP1 SWAP3 AND SWAP3 AND SWAP2 SWAP1 SWAP2 OR SWAP1 SSTORE PUSH2 0x209 JUMP JUMPDEST PUSH0 DUP1 SLOAD PUSH1 0x1 PUSH1 0x1 PUSH1 0xA0 SHL SUB DUP4 DUP2 AND PUSH1 0x1 PUSH1 0x1 PUSH1 0xA0 SHL SUB NOT DUP4 AND DUP2 OR DUP5 SSTORE PUSH1 0x40 MLOAD SWAP2 SWAP1 SWAP3 AND SWAP3 DUP4 SWAP2 PUSH32 0x8BE0079C531659141344CD1FD0A4F28419497F9722A3DAAFE3B4186F6B6457E0 SWAP2 SWAP1 LOG3 POP POP JUMP JUMPDEST PUSH1 0x1 PUSH1 0x1 PUSH1 0xA0 SHL SUB DUP2 AND DUP2 EQ PUSH2 0x15B JUMPI PUSH0 DUP1 REVERT JUMPDEST POP JUMP JUMPDEST PUSH0 DUP1 PUSH0 DUP1 PUSH0 DUP1 PUSH0 DUP1 PUSH2 0x100 DUP10 DUP12 SUB SLT ISZERO PUSH2 0x176 JUMPI PUSH0 DUP1 REVERT JUMPDEST DUP9 MLOAD PUSH2 0x181 DUP2 PUSH2 0x147 JUMP JUMPDEST PUSH1 0x20 DUP11 ADD MLOAD SWAP1 SWAP9 POP PUSH2 0x192 DUP2 PUSH2 0x147 JUMP JUMPDEST PUSH1 0x40 DUP11 ADD MLOAD SWAP1 SWAP8 POP PUSH2 0x1A3 DUP2 PUSH2 0x147 JUMP JUMPDEST PUSH1 0x60 DUP11 ADD MLOAD SWAP1 SWAP7 POP PUSH2 0x1B4 DUP2 PUSH2 0x147 JUMP JUMPDEST PUSH1 0x80 DUP11 ADD MLOAD SWAP1 SWAP6 POP PUSH2 0x1C5 DUP2 PUSH2 0x147 JUMP JUMPDEST PUSH1 0xA0 DUP11 ADD MLOAD SWAP1 SWAP5 POP PUSH2 0x1D6 DUP2 PUSH2 0x147 JUMP JUMPDEST PUSH1 0xC0 DUP11 ADD MLOAD SWAP1 SWAP4 POP PUSH2 0x1E7 DUP2 PUSH2 0x147 JUMP JUMPDEST PUSH1 0xE0 DUP11 ADD MLOAD SWAP1 SWAP3 POP PUSH2 0x1F8 DUP2 PUSH2 0x147 JUMP JUMPDEST DUP1 SWAP2 POP POP SWAP3 SWAP6 SWAP9 POP SWAP3 SWAP6 SWAP9 SWAP1 SWAP4 SWAP7 POP JUMP JUMPDEST PUSH1 0x80 MLOAD PUSH1 0xA0 MLOAD PUSH2 0x3B03 PUSH2 0x262 PUSH0 CODECOPY PUSH0 DUP2 DUP2 PUSH2 0x4A0 ADD MSTORE DUP2 DUP2 PUSH2 0x1436 ADD MSTORE DUP2 DUP2 PUSH2 0x2603 ADD MSTORE DUP2 DUP2 PUSH2 0x30A2 ADD MSTORE PUSH2 0x3141 ADD MSTORE PUSH0 DUP2 DUP2 PUSH2 0x44E ADD MSTORE DUP2 DUP2 PUSH2 0x145C ADD MSTORE DUP2 DUP2 PUSH2 0x2629 ADD MSTORE DUP2 DUP2 PUSH2 0x2F3F ADD MSTORE PUSH2 0x2FDE ADD MSTORE PUSH2 0x3B03 PUSH0 RETURN INVALID PUSH1 0x80 PUSH1 0x40 MSTORE PUSH1 0x4 CALLDATASIZE LT PUSH2 0x278 JUMPI PUSH0 CALLDATALOAD PUSH1 0xE0 SHR DUP1 PUSH4 0x835722AD GT PUSH2 0x14A JUMPI DUP1 PUSH4 0xC211E1F9 GT PUSH2 0xBE JUMPI DUP1 PUSH4 0xF2FDE38B GT PUSH2 0x78 JUMPI DUP1 PUSH4 0xF2FDE38B EQ PUSH2 0x82C JUMPI DUP1 PUSH4 0xF3E76510 EQ PUSH2 0x84B JUMPI DUP1 PUSH4 0xF621CC48 EQ PUSH2 0x86A JUMPI DUP1 PUSH4 0xFC0C546A EQ PUSH2 0x898 JUMPI DUP1 PUSH4 0xFCBCA456 EQ PUSH2 0x8B7 JUMPI DUP1 PUSH4 0xFF960C0E EQ PUSH2 0x8D6 JUMPI PUSH0 DUP1 REVERT JUMPDEST DUP1 PUSH4 0xC211E1F9 EQ PUSH2 0x72F JUMPI DUP1 PUSH4 0xC81FFDEA EQ PUSH2 0x763 JUMPI DUP1 PUSH4 0xD1F3B23E EQ PUSH2 0x78E JUMPI DUP1 PUSH4 0xDA5467A5 EQ PUSH2 0x7A7 JUMPI DUP1 PUSH4 0xDF4E0593 EQ PUSH2 0x7C6 JUMPI DUP1 PUSH4 0xE8E87389 EQ PUSH2 0x801 JUMPI PUSH0 DUP1 REVERT JUMPDEST DUP1 PUSH4 0xA1C4B5A2 GT PUSH2 0x10F JUMPI DUP1 PUSH4 0xA1C4B5A2 EQ PUSH2 0x666 JUMPI DUP1 PUSH4 0xA1E89AEC EQ PUSH2 0x685 JUMPI DUP1 PUSH4 0xA95836D1 EQ PUSH2 0x69A JUMPI DUP1 PUSH4 0xAF979F7F EQ PUSH2 0x6B9 JUMPI DUP1 PUSH4 0xB3FDAFB9 EQ PUSH2 0x6D8 JUMPI DUP1 PUSH4 0xB5F522F7 EQ PUSH2 0x6F7 JUMPI PUSH0 DUP1 REVERT JUMPDEST DUP1 PUSH4 0x835722AD EQ PUSH2 0x5E5 JUMPI DUP1 PUSH4 0x8456CB59 EQ PUSH2 0x604 JUMPI DUP1 PUSH4 0x8DA5CB5B EQ PUSH2 0x618 JUMPI DUP1 PUSH4 0x940C333E EQ PUSH2 0x634 JUMPI DUP1 PUSH4 0x9FA8ADB8 EQ PUSH2 0x647 JUMPI PUSH0 DUP1 REVERT JUMPDEST DUP1 PUSH4 0x3E413BEE GT PUSH2 0x1EC JUMPI DUP1 PUSH4 0x5C975ABB GT PUSH2 0x1A6 JUMPI DUP1 PUSH4 0x5C975ABB EQ PUSH2 0x552 JUMPI DUP1 PUSH4 0x5E6F6045 EQ PUSH2 0x569 JUMPI DUP1 PUSH4 0x63B20117 EQ PUSH2 0x588 JUMPI DUP1 PUSH4 0x715018A6 EQ PUSH2 0x59D JUMPI DUP1 PUSH4 0x721BC38B EQ PUSH2 0x5B1 JUMPI DUP1 PUSH4 0x736B1906 EQ PUSH2 0x5C6 JUMPI PUSH0 DUP1 REVERT JUMPDEST DUP1 PUSH4 0x3E413BEE EQ PUSH2 0x48F JUMPI DUP1 PUSH4 0x3F4BA83A EQ PUSH2 0x4C2 JUMPI DUP1 PUSH4 0x46E04A2F EQ PUSH2 0x4D6 JUMPI DUP1 PUSH4 0x4A4C560D EQ PUSH2 0x4F5 JUMPI DUP1 PUSH4 0x4DE33882 EQ PUSH2 0x514 JUMPI DUP1 PUSH4 0x5B7BAF64 EQ PUSH2 0x533 JUMPI PUSH0 DUP1 REVERT JUMPDEST DUP1 PUSH4 0x1B152AC5 GT PUSH2 0x23D JUMPI DUP1 PUSH4 0x1B152AC5 EQ PUSH2 0x3AB JUMPI DUP1 PUSH4 0x212EA247 EQ PUSH2 0x3CC JUMPI DUP1 PUSH4 0x22C0AEC7 EQ PUSH2 0x3E0 JUMPI DUP1 PUSH4 0x2593198D EQ PUSH2 0x41E JUMPI DUP1 PUSH4 0x2F48AB7D EQ PUSH2 0x43D JUMPI DUP1 PUSH4 0x34DD8F5E EQ PUSH2 0x470 JUMPI PUSH0 DUP1 REVERT JUMPDEST DUP1 PUSH4 0x5834E67 EQ PUSH2 0x2CE JUMPI DUP1 PUSH4 0x91C2C99 EQ PUSH2 0x300 JUMPI DUP1 PUSH4 0x115AFC3A EQ PUSH2 0x336 JUMPI DUP1 PUSH4 0x117D260F EQ PUSH2 0x355 JUMPI DUP1 PUSH4 0x171600A3 EQ PUSH2 0x374 JUMPI PUSH0 DUP1 REVERT JUMPDEST CALLDATASIZE PUSH2 0x2CA JUMPI PUSH1 0x40 MLOAD PUSH3 0x461BCD PUSH1 0xE5 SHL DUP2 MSTORE PUSH1 0x20 PUSH1 0x4 DUP3 ADD DUP2 SWAP1 MSTORE PUSH1 0x24 DUP3 ADD MSTORE PUSH32 0x44697265637420424E42207472616E7366657273206E6F7420616C6C6F776564 PUSH1 0x44 DUP3 ADD MSTORE PUSH1 0x64 ADD JUMPDEST PUSH1 0x40 MLOAD DUP1 SWAP2 SUB SWAP1 REVERT JUMPDEST PUSH0 DUP1 REVERT JUMPDEST CALLVALUE DUP1 ISZERO PUSH2 0x2D9 JUMPI PUSH0 DUP1 REVERT JUMPDEST POP PUSH2 0x2ED PUSH2 0x2E8 CALLDATASIZE PUSH1 0x4 PUSH2 0x3297 JUMP JUMPDEST PUSH2 0x912 JUMP JUMPDEST PUSH1 0x40 MLOAD SWAP1 DUP2 MSTORE PUSH1 0x20 ADD JUMPDEST PUSH1 0x40 MLOAD DUP1 SWAP2 SUB SWAP1 RETURN JUMPDEST CALLVALUE DUP1 ISZERO PUSH2 0x30B JUMPI PUSH0 DUP1 REVERT JUMPDEST POP PUSH2 0x2ED PUSH2 0x31A CALLDATASIZE PUSH1 0x4 PUSH2 0x32D3 JUMP JUMPDEST PUSH1 0x13 PUSH1 0x20 SWAP1 DUP2 MSTORE PUSH0 SWAP3 DUP4 MSTORE PUSH1 0x40 DUP1 DUP5 KECCAK256 SWAP1 SWAP2 MSTORE SWAP1 DUP3 MSTORE SWAP1 KECCAK256 SLOAD DUP2 JUMP JUMPDEST CALLVALUE DUP1 ISZERO PUSH2 0x341 JUMPI PUSH0 DUP1 REVERT JUMPDEST POP PUSH2 0x2ED PUSH2 0x350 CALLDATASIZE PUSH1 0x4 PUSH2 0x3301 JUMP JUMPDEST PUSH2 0xA8F JUMP JUMPDEST CALLVALUE DUP1 ISZERO PUSH2 0x360 JUMPI PUSH0 DUP1 REVERT JUMPDEST POP PUSH2 0x2ED PUSH2 0x36F CALLDATASIZE PUSH1 0x4 PUSH2 0x3297 JUMP JUMPDEST PUSH2 0xAFC JUMP JUMPDEST CALLVALUE DUP1 ISZERO PUSH2 0x37F JUMPI PUSH0 DUP1 REVERT JUMPDEST POP PUSH1 0x6 SLOAD PUSH2 0x393 SWAP1 PUSH1 0x1 PUSH1 0x1 PUSH1 0xA0 SHL SUB AND DUP2 JUMP JUMPDEST PUSH1 0x40 MLOAD PUSH1 0x1 PUSH1 0x1 PUSH1 0xA0 SHL SUB SWAP1 SWAP2 AND DUP2 MSTORE PUSH1 0x20 ADD PUSH2 0x2F7 JUMP JUMPDEST CALLVALUE DUP1 ISZERO PUSH2 0x3B6 JUMPI PUSH0 DUP1 REVERT JUMPDEST POP PUSH2 0x3CA PUSH2 0x3C5 CALLDATASIZE PUSH1 0x4 PUSH2 0x3339 JUMP JUMPDEST PUSH2 0xC91 JUMP JUMPDEST STOP JUMPDEST CALLVALUE DUP1 ISZERO PUSH2 0x3D7 JUMPI PUSH0 DUP1 REVERT JUMPDEST POP PUSH2 0x2ED PUSH2 0xD12 JUMP JUMPDEST CALLVALUE DUP1 ISZERO PUSH2 0x3EB JUMPI PUSH0 DUP1 REVERT JUMPDEST POP PUSH2 0x40E PUSH2 0x3FA CALLDATASIZE PUSH1 0x4 PUSH2 0x335C JUMP JUMPDEST PUSH1 0xE PUSH1 0x20 MSTORE PUSH0 SWAP1 DUP2 MSTORE PUSH1 0x40 SWAP1 KECCAK256 SLOAD PUSH1 0xFF AND DUP2 JUMP JUMPDEST PUSH1 0x40 MLOAD SWAP1 ISZERO ISZERO DUP2 MSTORE PUSH1 0x20 ADD PUSH2 0x2F7 JUMP JUMPDEST CALLVALUE DUP1 ISZERO PUSH2 0x429 JUMPI PUSH0 DUP1 REVERT JUMPDEST POP PUSH2 0x2ED PUSH2 0x438 CALLDATASIZE PUSH1 0x4 PUSH2 0x3377 JUMP JUMPDEST PUSH2 0xD91 JUMP JUMPDEST CALLVALUE DUP1 ISZERO PUSH2 0x448 JUMPI PUSH0 DUP1 REVERT JUMPDEST POP PUSH2 0x393 PUSH32 0x0 DUP2 JUMP JUMPDEST CALLVALUE DUP1 ISZERO PUSH2 0x47B JUMPI PUSH0 DUP1 REVERT JUMPDEST POP PUSH2 0x2ED PUSH2 0x48A CALLDATASIZE PUSH1 0x4 PUSH2 0x3297 JUMP JUMPDEST PUSH2 0xDA4 JUMP JUMPDEST CALLVALUE DUP1 ISZERO PUSH2 0x49A JUMPI PUSH0 DUP1 REVERT JUMPDEST POP PUSH2 0x393 PUSH32 0x0 DUP2 JUMP JUMPDEST CALLVALUE DUP1 ISZERO PUSH2 0x4CD JUMPI PUSH0 DUP1 REVERT JUMPDEST POP PUSH2 0x3CA PUSH2 0xE3C JUMP JUMPDEST CALLVALUE DUP1 ISZERO PUSH2 0x4E1 JUMPI PUSH0 DUP1 REVERT JUMPDEST POP PUSH2 0x3CA PUSH2 0x4F0 CALLDATASIZE PUSH1 0x4 PUSH2 0x3377 JUMP JUMPDEST PUSH2 0xE4E JUMP JUMPDEST CALLVALUE DUP1 ISZERO PUSH2 0x500 JUMPI PUSH0 DUP1 REVERT JUMPDEST POP PUSH2 0x3CA PUSH2 0x50F CALLDATASIZE PUSH1 0x4 PUSH2 0x335C JUMP JUMPDEST PUSH2 0xEAA JUMP JUMPDEST CALLVALUE DUP1 ISZERO PUSH2 0x51F JUMPI PUSH0 DUP1 REVERT JUMPDEST POP PUSH2 0x3CA PUSH2 0x52E CALLDATASIZE PUSH1 0x4 PUSH2 0x33A2 JUMP JUMPDEST PUSH2 0xF63 JUMP JUMPDEST CALLVALUE DUP1 ISZERO PUSH2 0x53E JUMPI PUSH0 DUP1 REVERT JUMPDEST POP PUSH2 0x3CA PUSH2 0x54D CALLDATASIZE PUSH1 0x4 PUSH2 0x3377 JUMP JUMPDEST PUSH2 0x1170 JUMP JUMPDEST CALLVALUE DUP1 ISZERO PUSH2 0x55D JUMPI PUSH0 DUP1 REVERT JUMPDEST POP PUSH1 0x2 SLOAD PUSH1 0xFF AND PUSH2 0x40E JUMP JUMPDEST CALLVALUE DUP1 ISZERO PUSH2 0x574 JUMPI PUSH0 DUP1 REVERT JUMPDEST POP PUSH1 0x7 SLOAD PUSH2 0x393 SWAP1 PUSH1 0x1 PUSH1 0x1 PUSH1 0xA0 SHL SUB AND DUP2 JUMP JUMPDEST CALLVALUE DUP1 ISZERO PUSH2 0x593 JUMPI PUSH0 DUP1 REVERT JUMPDEST POP PUSH2 0x2ED PUSH1 0xA SLOAD DUP2 JUMP JUMPDEST CALLVALUE DUP1 ISZERO PUSH2 0x5A8 JUMPI PUSH0 DUP1 REVERT JUMPDEST POP PUSH2 0x3CA PUSH2 0x163D JUMP JUMPDEST CALLVALUE DUP1 ISZERO PUSH2 0x5BC JUMPI PUSH0 DUP1 REVERT JUMPDEST POP PUSH2 0x2ED PUSH1 0x9 SLOAD DUP2 JUMP JUMPDEST CALLVALUE DUP1 ISZERO PUSH2 0x5D1 JUMPI PUSH0 DUP1 REVERT JUMPDEST POP PUSH2 0x40E PUSH2 0x5E0 CALLDATASIZE PUSH1 0x4 PUSH2 0x3377 JUMP JUMPDEST PUSH2 0x164E JUMP JUMPDEST CALLVALUE DUP1 ISZERO PUSH2 0x5F0 JUMPI PUSH0 DUP1 REVERT JUMPDEST POP PUSH2 0x2ED PUSH2 0x5FF CALLDATASIZE PUSH1 0x4 PUSH2 0x3377 JUMP JUMPDEST PUSH2 0x169A JUMP JUMPDEST CALLVALUE DUP1 ISZERO PUSH2 0x60F JUMPI PUSH0 DUP1 REVERT JUMPDEST POP PUSH2 0x3CA PUSH2 0x16AA JUMP JUMPDEST CALLVALUE DUP1 ISZERO PUSH2 0x623 JUMPI PUSH0 DUP1 REVERT JUMPDEST POP PUSH0 SLOAD PUSH1 0x1 PUSH1 0x1 PUSH1 0xA0 SHL SUB AND PUSH2 0x393 JUMP JUMPDEST PUSH2 0x3CA PUSH2 0x642 CALLDATASIZE PUSH1 0x4 PUSH2 0x3297 JUMP JUMPDEST PUSH2 0x16BA JUMP JUMPDEST CALLVALUE DUP1 ISZERO PUSH2 0x652 JUMPI PUSH0 DUP1 REVERT JUMPDEST POP PUSH2 0x2ED PUSH2 0x661 CALLDATASIZE PUSH1 0x4 PUSH2 0x3377 JUMP JUMPDEST PUSH2 0x1A9D JUMP JUMPDEST CALLVALUE DUP1 ISZERO PUSH2 0x671 JUMPI PUSH0 DUP1 REVERT JUMPDEST POP PUSH2 0x2ED PUSH2 0x680 CALLDATASIZE PUSH1 0x4 PUSH2 0x3377 JUMP JUMPDEST PUSH2 0x1AB0 JUMP JUMPDEST CALLVALUE DUP1 ISZERO PUSH2 0x690 JUMPI PUSH0 DUP1 REVERT JUMPDEST POP PUSH2 0x2ED PUSH1 0x8 SLOAD DUP2 JUMP JUMPDEST CALLVALUE DUP1 ISZERO PUSH2 0x6A5 JUMPI PUSH0 DUP1 REVERT JUMPDEST POP PUSH2 0x3CA PUSH2 0x6B4 CALLDATASIZE PUSH1 0x4 PUSH2 0x335C JUMP JUMPDEST PUSH2 0x1AC0 JUMP JUMPDEST CALLVALUE DUP1 ISZERO PUSH2 0x6C4 JUMPI PUSH0 DUP1 REVERT JUMPDEST POP PUSH2 0x3CA PUSH2 0x6D3 CALLDATASIZE PUSH1 0x4 PUSH2 0x335C JUMP JUMPDEST PUSH2 0x1C33 JUMP JUMPDEST CALLVALUE DUP1 ISZERO PUSH2 0x6E3 JUMPI PUSH0 DUP1 REVERT JUMPDEST POP PUSH2 0x2ED PUSH2 0x6F2 CALLDATASIZE PUSH1 0x4 PUSH2 0x3377 JUMP JUMPDEST PUSH2 0x1D1B JUMP JUMPDEST CALLVALUE DUP1 ISZERO PUSH2 0x702 JUMPI PUSH0 DUP1 REVERT JUMPDEST POP PUSH2 0x716 PUSH2 0x711 CALLDATASIZE PUSH1 0x4 PUSH2 0x3377 JUMP JUMPDEST PUSH2 0x1D2B JUMP JUMPDEST PUSH1 0x40 MLOAD PUSH2 0x2F7 SWAP14 SWAP13 SWAP12 SWAP11 SWAP10 SWAP9 SWAP8 SWAP7 SWAP6 SWAP5 SWAP4 SWAP3 SWAP2 SWAP1 PUSH2 0x34D4 JUMP JUMPDEST CALLVALUE DUP1 ISZERO PUSH2 0x73A JUMPI PUSH0 DUP1 REVERT JUMPDEST POP PUSH2 0x74E PUSH2 0x749 CALLDATASIZE PUSH1 0x4 PUSH2 0x3377 JUMP JUMPDEST PUSH2 0x1E1D JUMP JUMPDEST PUSH1 0x40 DUP1 MLOAD SWAP3 DUP4 MSTORE PUSH1 0x20 DUP4 ADD SWAP2 SWAP1 SWAP2 MSTORE ADD PUSH2 0x2F7 JUMP JUMPDEST CALLVALUE DUP1 ISZERO PUSH2 0x76E JUMPI PUSH0 DUP1 REVERT JUMPDEST POP PUSH2 0x2ED PUSH2 0x77D CALLDATASIZE PUSH1 0x4 PUSH2 0x335C JUMP JUMPDEST PUSH1 0xF PUSH1 0x20 MSTORE PUSH0 SWAP1 DUP2 MSTORE PUSH1 0x40 SWAP1 KECCAK256 SLOAD DUP2 JUMP JUMPDEST CALLVALUE DUP1 ISZERO PUSH2 0x799 JUMPI PUSH0 DUP1 REVERT JUMPDEST POP PUSH1 0xB SLOAD PUSH2 0x40E SWAP1 PUSH1 0xFF AND DUP2 JUMP JUMPDEST CALLVALUE DUP1 ISZERO PUSH2 0x7B2 JUMPI PUSH0 DUP1 REVERT JUMPDEST POP PUSH2 0x74E PUSH2 0x7C1 CALLDATASIZE PUSH1 0x4 PUSH2 0x3377 JUMP JUMPDEST PUSH2 0x1FCD JUMP JUMPDEST CALLVALUE DUP1 ISZERO PUSH2 0x7D1 JUMPI PUSH0 DUP1 REVERT JUMPDEST POP PUSH2 0x7F4 PUSH2 0x7E0 CALLDATASIZE PUSH1 0x4 PUSH2 0x335C JUMP JUMPDEST PUSH1 0x11 PUSH1 0x20 MSTORE PUSH0 SWAP1 DUP2 MSTORE PUSH1 0x40 SWAP1 KECCAK256 SLOAD PUSH1 0xFF AND DUP2 JUMP JUMPDEST PUSH1 0x40 MLOAD PUSH2 0x2F7 SWAP2 SWAP1 PUSH2 0x357E JUMP JUMPDEST CALLVALUE DUP1 ISZERO PUSH2 0x80C JUMPI PUSH0 DUP1 REVERT JUMPDEST POP PUSH2 0x2ED PUSH2 0x81B CALLDATASIZE PUSH1 0x4 PUSH2 0x335C JUMP JUMPDEST PUSH1 0x10 PUSH1 0x20 MSTORE PUSH0 SWAP1 DUP2 MSTORE PUSH1 0x40 SWAP1 KECCAK256 SLOAD DUP2 JUMP JUMPDEST CALLVALUE DUP1 ISZERO PUSH2 0x837 JUMPI PUSH0 DUP1 REVERT JUMPDEST POP PUSH2 0x3CA PUSH2 0x846 CALLDATASIZE PUSH1 0x4 PUSH2 0x335C JUMP JUMPDEST PUSH2 0x2058 JUMP JUMPDEST CALLVALUE DUP1 ISZERO PUSH2 0x856 JUMPI PUSH0 DUP1 REVERT JUMPDEST POP PUSH2 0x40E PUSH2 0x865 CALLDATASIZE PUSH1 0x4 PUSH2 0x3377 JUMP JUMPDEST PUSH2 0x2092 JUMP JUMPDEST CALLVALUE DUP1 ISZERO PUSH2 0x875 JUMPI PUSH0 DUP1 REVERT JUMPDEST POP PUSH2 0x40E PUSH2 0x884 CALLDATASIZE PUSH1 0x4 PUSH2 0x335C JUMP JUMPDEST PUSH1 0xD PUSH1 0x20 MSTORE PUSH0 SWAP1 DUP2 MSTORE PUSH1 0x40 SWAP1 KECCAK256 SLOAD PUSH1 0xFF AND DUP2 JUMP JUMPDEST CALLVALUE DUP1 ISZERO PUSH2 0x8A3 JUMPI PUSH0 DUP1 REVERT JUMPDEST POP PUSH1 0x5 SLOAD PUSH2 0x393 SWAP1 PUSH1 0x1 PUSH1 0x1 PUSH1 0xA0 SHL SUB AND DUP2 JUMP JUMPDEST CALLVALUE DUP1 ISZERO PUSH2 0x8C2 JUMPI PUSH0 DUP1 REVERT JUMPDEST POP PUSH2 0x3CA PUSH2 0x8D1 CALLDATASIZE PUSH1 0x4 PUSH2 0x335C JUMP JUMPDEST PUSH2 0x20DE JUMP JUMPDEST CALLVALUE DUP1 ISZERO PUSH2 0x8E1 JUMPI PUSH0 DUP1 REVERT JUMPDEST POP PUSH2 0x2ED PUSH2 0x8F0 CALLDATASIZE PUSH1 0x4 PUSH2 0x358C JUMP JUMPDEST PUSH1 0x12 PUSH1 0x20 SWAP1 DUP2 MSTORE PUSH0 SWAP4 DUP5 MSTORE PUSH1 0x40 DUP1 DUP6 KECCAK256 DUP3 MSTORE SWAP3 DUP5 MSTORE DUP3 DUP5 KECCAK256 SWAP1 MSTORE DUP3 MSTORE SWAP1 KECCAK256 SLOAD DUP2 JUMP JUMPDEST PUSH0 DUP1 PUSH2 0x920 PUSH2 0x680 DUP6 PUSH2 0xA8F JUMP JUMPDEST SWAP1 POP DUP1 PUSH0 SUB PUSH2 0x966 JUMPI PUSH1 0x40 MLOAD PUSH3 0x461BCD PUSH1 0xE5 SHL DUP2 MSTORE PUSH1 0x20 PUSH1 0x4 DUP3 ADD MSTORE PUSH1 0x12 PUSH1 0x24 DUP3 ADD MSTORE PUSH18 0x125B9D985B1A59081C1C9A58D94819995959 PUSH1 0x72 SHL PUSH1 0x44 DUP3 ADD MSTORE PUSH1 0x64 ADD PUSH2 0x2C1 JUMP JUMPDEST PUSH0 PUSH2 0x96F PUSH2 0xD12 JUMP JUMPDEST PUSH0 DUP2 DUP2 MSTORE PUSH1 0xC PUSH1 0x20 MSTORE PUSH1 0x40 DUP2 KECCAK256 PUSH1 0x4 DUP2 ADD SLOAD SWAP3 SWAP4 POP SWAP2 SWAP1 DUP1 DUP9 PUSH1 0x2 DUP2 GT ISZERO PUSH2 0x999 JUMPI PUSH2 0x999 PUSH2 0x354A JUMP JUMPDEST SUB PUSH2 0x9B2 JUMPI PUSH2 0x9AB PUSH2 0x661 DUP9 DUP8 PUSH2 0x35DB JUMP JUMPDEST SWAP1 POP PUSH2 0xA6B JUMP JUMPDEST PUSH1 0x2 DUP9 PUSH1 0x2 DUP2 GT ISZERO PUSH2 0x9C6 JUMPI PUSH2 0x9C6 PUSH2 0x354A JUMP JUMPDEST EQ DUP1 PUSH2 0x9E3 JUMPI POP PUSH1 0x1 DUP9 PUSH1 0x2 DUP2 GT ISZERO PUSH2 0x9E1 JUMPI PUSH2 0x9E1 PUSH2 0x354A JUMP JUMPDEST EQ JUMPDEST ISZERO PUSH2 0xA23 JUMPI PUSH1 0x6 PUSH0 PUSH2 0x9F6 DUP3 PUSH1 0x12 PUSH2 0x35F2 JUMP JUMPDEST PUSH2 0xA01 SWAP1 PUSH1 0xA PUSH2 0x36E8 JUMP JUMPDEST PUSH2 0xA0B SWAP1 DUP11 PUSH2 0x35DB JUMP JUMPDEST SWAP1 POP PUSH2 0xA1A PUSH2 0x661 DUP3 DUP10 PUSH2 0x35DB JUMP JUMPDEST SWAP3 POP POP POP PUSH2 0xA6B JUMP JUMPDEST PUSH1 0x40 MLOAD PUSH3 0x461BCD PUSH1 0xE5 SHL DUP2 MSTORE PUSH1 0x20 PUSH1 0x4 DUP3 ADD MSTORE PUSH1 0x1A PUSH1 0x24 DUP3 ADD MSTORE PUSH32 0x556E737570706F72746564207061796D656E74206D6574686F64000000000000 PUSH1 0x44 DUP3 ADD MSTORE PUSH1 0x64 ADD PUSH2 0x2C1 JUMP JUMPDEST PUSH0 DUP3 PUSH2 0xA76 DUP4 PUSH2 0xD91 JUMP JUMPDEST PUSH2 0xA80 SWAP2 SWAP1 PUSH2 0x36F3 JUMP JUMPDEST SWAP7 POP POP POP POP POP POP POP JUMPDEST SWAP3 SWAP2 POP POP JUMP JUMPDEST PUSH0 DUP1 DUP3 PUSH1 0x2 DUP2 GT ISZERO PUSH2 0xAA3 JUMPI PUSH2 0xAA3 PUSH2 0x354A JUMP JUMPDEST SUB PUSH2 0xAB4 JUMPI POP PUSH5 0x10703DBD84 SWAP2 SWAP1 POP JUMP JUMPDEST PUSH1 0x1 DUP3 PUSH1 0x2 DUP2 GT ISZERO PUSH2 0xAC8 JUMPI PUSH2 0xAC8 PUSH2 0x354A JUMP JUMPDEST SUB PUSH2 0xAD8 JUMPI POP PUSH4 0x5F5D46A SWAP2 SWAP1 POP JUMP JUMPDEST PUSH1 0x2 DUP3 PUSH1 0x2 DUP2 GT ISZERO PUSH2 0xAEC JUMPI PUSH2 0xAEC PUSH2 0x354A JUMP JUMPDEST SUB PUSH2 0xA23 JUMPI POP PUSH4 0x5F5D46A SWAP2 SWAP1 POP JUMP JUMPDEST PUSH0 DUP2 PUSH0 SUB PUSH2 0xB4C JUMPI PUSH1 0x40 MLOAD PUSH3 0x461BCD PUSH1 0xE5 SHL DUP2 MSTORE PUSH1 0x20 PUSH1 0x4 DUP3 ADD MSTORE PUSH1 0x17 PUSH1 0x24 DUP3 ADD MSTORE PUSH32 0x416D6F756E74206D75737420626520706F736974697665000000000000000000 PUSH1 0x44 DUP3 ADD MSTORE PUSH1 0x64 ADD PUSH2 0x2C1 JUMP JUMPDEST PUSH0 PUSH2 0xB59 PUSH2 0x680 DUP6 PUSH2 0xA8F JUMP JUMPDEST SWAP1 POP DUP1 PUSH0 SUB PUSH2 0xB9F JUMPI PUSH1 0x40 MLOAD PUSH3 0x461BCD PUSH1 0xE5 SHL DUP2 MSTORE PUSH1 0x20 PUSH1 0x4 DUP3 ADD MSTORE PUSH1 0x12 PUSH1 0x24 DUP3 ADD MSTORE PUSH18 0x125B9D985B1A59081C1C9A58D94819995959 PUSH1 0x72 SHL PUSH1 0x44 DUP3 ADD MSTORE PUSH1 0x64 ADD PUSH2 0x2C1 JUMP JUMPDEST PUSH0 PUSH2 0xBA8 PUSH2 0xD12 JUMP JUMPDEST SWAP1 POP DUP1 PUSH0 SUB PUSH2 0xBEA JUMPI PUSH1 0x40 MLOAD PUSH3 0x461BCD PUSH1 0xE5 SHL DUP2 MSTORE PUSH1 0x20 PUSH1 0x4 DUP3 ADD MSTORE PUSH1 0xE PUSH1 0x24 DUP3 ADD MSTORE PUSH14 0x4E6F206163746976652073616C65 PUSH1 0x90 SHL PUSH1 0x44 DUP3 ADD MSTORE PUSH1 0x64 ADD PUSH2 0x2C1 JUMP JUMPDEST PUSH0 DUP2 DUP2 MSTORE PUSH1 0xC PUSH1 0x20 MSTORE PUSH1 0x40 DUP2 KECCAK256 PUSH1 0x4 DUP2 ADD SLOAD SWAP1 SWAP2 PUSH2 0xC0B PUSH2 0x661 DUP4 DUP10 PUSH2 0x35DB JUMP JUMPDEST SWAP1 POP PUSH0 DUP1 DUP10 PUSH1 0x2 DUP2 GT ISZERO PUSH2 0xC21 JUMPI PUSH2 0xC21 PUSH2 0x354A JUMP JUMPDEST SUB PUSH2 0xC41 JUMPI DUP6 PUSH2 0xC30 DUP4 PUSH2 0xD91 JUMP JUMPDEST PUSH2 0xC3A SWAP2 SWAP1 PUSH2 0x36F3 JUMP JUMPDEST SWAP1 POP PUSH2 0xC85 JUMP JUMPDEST PUSH1 0x1 DUP10 PUSH1 0x2 DUP2 GT ISZERO PUSH2 0xC55 JUMPI PUSH2 0xC55 PUSH2 0x354A JUMP JUMPDEST EQ DUP1 PUSH2 0xC72 JUMPI POP PUSH1 0x2 DUP10 PUSH1 0x2 DUP2 GT ISZERO PUSH2 0xC70 JUMPI PUSH2 0xC70 PUSH2 0x354A JUMP JUMPDEST EQ JUMPDEST ISZERO PUSH2 0xA23 JUMPI DUP6 PUSH2 0xC30 DUP4 PUSH3 0xF4240 PUSH2 0x35DB JUMP JUMPDEST SWAP9 SWAP8 POP POP POP POP POP POP POP POP JUMP JUMPDEST PUSH2 0xC99 PUSH2 0x2197 JUMP JUMPDEST PUSH0 DUP3 DUP2 MSTORE PUSH1 0xC PUSH1 0x20 MSTORE PUSH1 0x40 SWAP1 KECCAK256 PUSH1 0xB DUP2 ADD DUP1 SLOAD PUSH3 0xFF0000 NOT AND PUSH3 0x10000 DUP5 ISZERO ISZERO MUL OR SWAP1 DUP2 SWAP1 SSTORE TIMESTAMP PUSH1 0x1 DUP4 ADD SSTORE PUSH2 0x100 SWAP1 DIV PUSH1 0xFF AND PUSH2 0xCE3 JUMPI PUSH1 0xB DUP2 ADD DUP1 SLOAD PUSH2 0xFF00 NOT AND PUSH2 0x100 OR SWAP1 SSTORE JUMPDEST PUSH1 0x40 MLOAD DUP4 SWAP1 PUSH32 0x7B1C1AD0F3E04C9EF02D69280925520638D1CF076C56C4AA5BB1D0D37A949A3D SWAP1 PUSH0 SWAP1 LOG2 POP POP POP JUMP JUMPDEST PUSH0 PUSH1 0x1 JUMPDEST PUSH1 0x8 SLOAD DUP2 GT PUSH2 0xD8A JUMPI PUSH0 DUP2 DUP2 MSTORE PUSH1 0xC PUSH1 0x20 MSTORE PUSH1 0x40 SWAP1 KECCAK256 SLOAD TIMESTAMP LT DUP1 ISZERO SWAP1 PUSH2 0xD4C JUMPI POP PUSH0 DUP2 DUP2 MSTORE PUSH1 0xC PUSH1 0x20 MSTORE PUSH1 0x40 SWAP1 KECCAK256 PUSH1 0x1 ADD SLOAD TIMESTAMP GT ISZERO JUMPDEST DUP1 ISZERO PUSH2 0xD6E JUMPI POP PUSH0 DUP2 DUP2 MSTORE PUSH1 0xC PUSH1 0x20 MSTORE PUSH1 0x40 SWAP1 KECCAK256 PUSH1 0xB ADD SLOAD PUSH2 0x100 SWAP1 DIV PUSH1 0xFF AND ISZERO JUMPDEST ISZERO PUSH2 0xD78 JUMPI SWAP2 SWAP1 POP JUMP JUMPDEST DUP1 PUSH2 0xD82 DUP2 PUSH2 0x3712 JUMP JUMPDEST SWAP2 POP POP PUSH2 0xD16 JUMP JUMPDEST POP PUSH0 SWAP1 POP SWAP1 JUMP JUMPDEST PUSH0 PUSH2 0xA89 DUP3 PUSH8 0xDE0B6B3A7640000 PUSH2 0x35DB JUMP JUMPDEST PUSH0 DUP1 DUP4 PUSH1 0x2 DUP2 GT ISZERO PUSH2 0xDB8 JUMPI PUSH2 0xDB8 PUSH2 0x354A JUMP JUMPDEST SUB PUSH2 0xDC4 JUMPI POP DUP1 PUSH2 0xA89 JUMP JUMPDEST PUSH1 0x1 DUP4 PUSH1 0x2 DUP2 GT ISZERO PUSH2 0xDD8 JUMPI PUSH2 0xDD8 PUSH2 0x354A JUMP JUMPDEST EQ DUP1 PUSH2 0xDF5 JUMPI POP PUSH1 0x2 DUP4 PUSH1 0x2 DUP2 GT ISZERO PUSH2 0xDF3 JUMPI PUSH2 0xDF3 PUSH2 0x354A JUMP JUMPDEST EQ JUMPDEST ISZERO PUSH2 0xE34 JUMPI PUSH2 0xE24 PUSH1 0x40 MLOAD DUP1 PUSH1 0x60 ADD PUSH1 0x40 MSTORE DUP1 PUSH1 0x29 DUP2 MSTORE PUSH1 0x20 ADD PUSH2 0x3A77 PUSH1 0x29 SWAP2 CODECOPY PUSH2 0xE1F DUP5 PUSH2 0x169A JUMP JUMPDEST PUSH2 0x21C3 JUMP JUMPDEST PUSH2 0xE2D DUP3 PUSH2 0x169A JUMP JUMPDEST SWAP1 POP PUSH2 0xA89 JUMP JUMPDEST POP PUSH0 SWAP3 SWAP2 POP POP JUMP JUMPDEST PUSH2 0xE44 PUSH2 0x2197 JUMP JUMPDEST PUSH2 0xE4C PUSH2 0x220C JUMP JUMPDEST JUMP JUMPDEST PUSH1 0x7 SLOAD PUSH1 0x40 MLOAD PUSH4 0x379607F5 PUSH1 0xE0 SHL DUP2 MSTORE PUSH1 0x4 DUP2 ADD DUP4 SWAP1 MSTORE PUSH1 0x1 PUSH1 0x1 PUSH1 0xA0 SHL SUB SWAP1 SWAP2 AND SWAP1 PUSH4 0x379607F5 SWAP1 PUSH1 0x24 ADD PUSH0 PUSH1 0x40 MLOAD DUP1 DUP4 SUB DUP2 PUSH0 DUP8 DUP1 EXTCODESIZE ISZERO DUP1 ISZERO PUSH2 0xE91 JUMPI PUSH0 DUP1 REVERT JUMPDEST POP GAS CALL ISZERO DUP1 ISZERO PUSH2 0xEA3 JUMPI RETURNDATASIZE PUSH0 DUP1 RETURNDATACOPY RETURNDATASIZE PUSH0 REVERT JUMPDEST POP POP POP POP POP JUMP JUMPDEST PUSH2 0xEB2 PUSH2 0x2197 JUMP JUMPDEST PUSH1 0x1 PUSH1 0x1 PUSH1 0xA0 SHL SUB DUP2 AND PUSH2 0xED8 JUMPI PUSH1 0x40 MLOAD PUSH3 0x461BCD PUSH1 0xE5 SHL DUP2 MSTORE PUSH1 0x4 ADD PUSH2 0x2C1 SWAP1 PUSH2 0x372A JUMP JUMPDEST PUSH1 0x1 PUSH1 0x1 PUSH1 0xA0 SHL SUB DUP2 AND PUSH0 SWAP1 DUP2 MSTORE PUSH1 0xE PUSH1 0x20 MSTORE PUSH1 0x40 SWAP1 KECCAK256 SLOAD PUSH1 0xFF AND ISZERO PUSH2 0xF18 JUMPI PUSH1 0x1 PUSH1 0x1 PUSH1 0xA0 SHL SUB DUP2 AND PUSH0 SWAP1 DUP2 MSTORE PUSH1 0xE PUSH1 0x20 MSTORE PUSH1 0x40 SWAP1 KECCAK256 DUP1 SLOAD PUSH1 0xFF NOT AND SWAP1 SSTORE JUMPDEST PUSH1 0x1 PUSH1 0x1 PUSH1 0xA0 SHL SUB DUP2 AND PUSH0 DUP2 DUP2 MSTORE PUSH1 0xD PUSH1 0x20 MSTORE PUSH1 0x40 DUP1 DUP3 KECCAK256 DUP1 SLOAD PUSH1 0xFF NOT AND PUSH1 0x1 OR SWAP1 SSTORE MLOAD PUSH32 0xAAB7954E9D246B167EF88AEDDAD35209CA2489D95A8AEB59E288D9B19FAE5A54 SWAP2 SWAP1 LOG2 POP JUMP JUMPDEST PUSH2 0xF6B PUSH2 0x2197 JUMP JUMPDEST PUSH1 0xB SLOAD PUSH1 0xFF AND ISZERO PUSH2 0xF8E JUMPI PUSH1 0x40 MLOAD PUSH3 0x461BCD PUSH1 0xE5 SHL DUP2 MSTORE PUSH1 0x4 ADD PUSH2 0x2C1 SWAP1 PUSH2 0x3753 JUMP JUMPDEST TIMESTAMP DUP10 GT DUP1 ISZERO PUSH2 0xF9C JUMPI POP DUP9 DUP9 GT JUMPDEST DUP1 ISZERO PUSH2 0xFAE JUMPI POP PUSH2 0xFAB PUSH2 0x225E JUMP JUMPDEST TIMESTAMP GT JUMPDEST PUSH2 0xFFA JUMPI PUSH1 0x40 MLOAD PUSH3 0x461BCD PUSH1 0xE5 SHL DUP2 MSTORE PUSH1 0x20 PUSH1 0x4 DUP3 ADD MSTORE PUSH1 0x18 PUSH1 0x24 DUP3 ADD MSTORE PUSH32 0x496E76616C69642073746172742074696D652072616E67650000000000000000 PUSH1 0x44 DUP3 ADD MSTORE PUSH1 0x64 ADD PUSH2 0x2C1 JUMP JUMPDEST DUP5 PUSH0 SUB PUSH2 0x103F JUMPI PUSH1 0x40 MLOAD PUSH3 0x461BCD PUSH1 0xE5 SHL DUP2 MSTORE PUSH1 0x20 PUSH1 0x4 DUP3 ADD MSTORE PUSH1 0x13 PUSH1 0x24 DUP3 ADD MSTORE PUSH19 0x50726963652063616E2774206265207A65726F PUSH1 0x68 SHL PUSH1 0x44 DUP3 ADD MSTORE PUSH1 0x64 ADD PUSH2 0x2C1 JUMP JUMPDEST DUP6 DUP8 LT PUSH2 0x109A JUMPI PUSH1 0x40 MLOAD PUSH3 0x461BCD PUSH1 0xE5 SHL DUP2 MSTORE PUSH1 0x20 PUSH1 0x4 DUP3 ADD MSTORE PUSH1 0x23 PUSH1 0x24 DUP3 ADD MSTORE PUSH32 0x536F667420636170206D757374206265206C657373207468616E206861726420 PUSH1 0x44 DUP3 ADD MSTORE PUSH3 0x63617 PUSH1 0xEC SHL PUSH1 0x64 DUP3 ADD MSTORE PUSH1 0x84 ADD PUSH2 0x2C1 JUMP JUMPDEST PUSH1 0x8 SLOAD PUSH2 0x10A8 SWAP1 PUSH1 0x1 PUSH2 0x3782 JUMP JUMPDEST PUSH1 0x8 DUP2 DUP2 SSTORE PUSH0 SWAP2 DUP3 MSTORE PUSH1 0xC PUSH1 0x20 MSTORE PUSH1 0x40 DUP3 KECCAK256 DUP12 DUP2 SSTORE PUSH1 0x1 DUP2 ADD DUP12 SWAP1 SSTORE PUSH1 0x2 DUP2 ADD DUP11 SWAP1 SSTORE PUSH1 0x3 DUP2 ADD DUP10 SWAP1 SSTORE PUSH1 0x4 DUP2 ADD DUP9 SWAP1 SSTORE PUSH1 0x5 DUP2 ADD DUP4 SWAP1 SSTORE PUSH1 0x6 DUP2 ADD SWAP3 SWAP1 SWAP3 SSTORE PUSH1 0x7 DUP3 ADD DUP7 SWAP1 SSTORE DUP2 ADD DUP5 SWAP1 SSTORE PUSH1 0xA DUP2 ADD PUSH2 0x1102 DUP5 DUP3 PUSH2 0x3816 JUMP JUMPDEST POP PUSH1 0xB DUP2 ADD DUP1 SLOAD PUSH3 0xFFFFFF NOT AND DUP4 ISZERO ISZERO PUSH3 0xFFFF00 NOT AND OR SWAP1 SSTORE PUSH1 0x8 SLOAD PUSH1 0x40 MLOAD PUSH32 0x3371FDB73278BA465DC47CADCAFF52B8F98C7478F86F10D680BCE08F9A0CB1C2 SWAP1 PUSH2 0x115C SWAP1 DUP14 SWAP1 DUP14 SWAP1 DUP14 SWAP1 DUP14 SWAP1 DUP14 SWAP1 DUP12 SWAP1 DUP15 SWAP1 DUP15 SWAP1 PUSH2 0x38D1 JUMP JUMPDEST PUSH1 0x40 MLOAD DUP1 SWAP2 SUB SWAP1 LOG2 POP POP POP POP POP POP POP POP POP POP JUMP JUMPDEST PUSH2 0x1178 PUSH2 0x22B5 JUMP JUMPDEST PUSH2 0x1180 PUSH2 0x22DF JUMP JUMPDEST DUP1 ISZERO DUP1 ISZERO SWAP1 PUSH2 0x1191 JUMPI POP PUSH1 0x8 SLOAD DUP2 GT ISZERO JUMPDEST PUSH2 0x11AD JUMPI PUSH1 0x40 MLOAD PUSH3 0x461BCD PUSH1 0xE5 SHL DUP2 MSTORE PUSH1 0x4 ADD PUSH2 0x2C1 SWAP1 PUSH2 0x391A JUMP JUMPDEST PUSH0 DUP2 DUP2 MSTORE PUSH1 0xC PUSH1 0x20 MSTORE PUSH1 0x40 SWAP1 KECCAK256 PUSH1 0x1 DUP2 ADD SLOAD TIMESTAMP GT DUP1 PUSH2 0x11D6 JUMPI POP PUSH1 0xB DUP2 ADD SLOAD PUSH3 0x10000 SWAP1 DIV PUSH1 0xFF AND JUMPDEST PUSH2 0x1211 JUMPI PUSH1 0x40 MLOAD PUSH3 0x461BCD PUSH1 0xE5 SHL DUP2 MSTORE PUSH1 0x20 PUSH1 0x4 DUP3 ADD MSTORE PUSH1 0xC PUSH1 0x24 DUP3 ADD MSTORE PUSH12 0x53616C65206F6E676F696E67 PUSH1 0xA0 SHL PUSH1 0x44 DUP3 ADD MSTORE PUSH1 0x64 ADD PUSH2 0x2C1 JUMP JUMPDEST DUP1 PUSH1 0x2 ADD SLOAD DUP2 PUSH1 0x6 ADD SLOAD GT ISZERO PUSH2 0x1269 JUMPI PUSH1 0x40 MLOAD PUSH3 0x461BCD PUSH1 0xE5 SHL DUP2 MSTORE PUSH1 0x20 PUSH1 0x4 DUP3 ADD MSTORE PUSH1 0x1E PUSH1 0x24 DUP3 ADD MSTORE PUSH32 0x536F667420636170207265616368656420666F7220746869732073616C650000 PUSH1 0x44 DUP3 ADD MSTORE PUSH1 0x64 ADD PUSH2 0x2C1 JUMP JUMPDEST PUSH0 DUP1 JUMPDEST PUSH1 0x3 DUP2 PUSH1 0xFF AND LT ISZERO PUSH2 0x15DF JUMPI PUSH0 DUP2 PUSH1 0xFF AND PUSH1 0x2 DUP2 GT ISZERO PUSH2 0x128E JUMPI PUSH2 0x128E PUSH2 0x354A JUMP JUMPDEST PUSH0 DUP7 DUP2 MSTORE PUSH1 0x12 PUSH1 0x20 SWAP1 DUP2 MSTORE PUSH1 0x40 DUP1 DUP4 KECCAK256 CALLER DUP5 MSTORE SWAP1 SWAP2 MSTORE DUP2 KECCAK256 SWAP2 SWAP3 POP SWAP1 DUP2 DUP4 PUSH1 0x2 DUP2 GT ISZERO PUSH2 0x12BD JUMPI PUSH2 0x12BD PUSH2 0x354A JUMP JUMPDEST PUSH1 0x2 DUP2 GT ISZERO PUSH2 0x12CE JUMPI PUSH2 0x12CE PUSH2 0x354A JUMP JUMPDEST DUP2 MSTORE PUSH1 0x20 ADD SWAP1 DUP2 MSTORE PUSH1 0x20 ADD PUSH0 KECCAK256 SLOAD SWAP1 POP DUP1 PUSH0 EQ PUSH2 0x15D5 JUMPI PUSH0 DUP7 DUP2 MSTORE PUSH1 0x12 PUSH1 0x20 SWAP1 DUP2 MSTORE PUSH1 0x40 DUP1 DUP4 KECCAK256 CALLER DUP5 MSTORE SWAP1 SWAP2 MSTORE DUP2 KECCAK256 DUP2 DUP5 PUSH1 0x2 DUP2 GT ISZERO PUSH2 0x1310 JUMPI PUSH2 0x1310 PUSH2 0x354A JUMP JUMPDEST PUSH1 0x2 DUP2 GT ISZERO PUSH2 0x1321 JUMPI PUSH2 0x1321 PUSH2 0x354A JUMP JUMPDEST DUP2 MSTORE PUSH1 0x20 DUP2 ADD SWAP2 SWAP1 SWAP2 MSTORE PUSH1 0x40 ADD PUSH0 KECCAK256 SSTORE PUSH2 0x133B DUP2 DUP6 PUSH2 0x3782 JUMP JUMPDEST SWAP4 POP PUSH0 DUP3 PUSH1 0x2 DUP2 GT ISZERO PUSH2 0x1350 JUMPI PUSH2 0x1350 PUSH2 0x354A JUMP JUMPDEST SUB PUSH2 0x13E4 JUMPI PUSH1 0x40 MLOAD PUSH0 SWAP1 CALLER SWAP1 DUP4 SWAP1 DUP4 DUP2 DUP2 DUP2 DUP6 DUP8 GAS CALL SWAP3 POP POP POP RETURNDATASIZE DUP1 PUSH0 DUP2 EQ PUSH2 0x1394 JUMPI PUSH1 0x40 MLOAD SWAP2 POP PUSH1 0x1F NOT PUSH1 0x3F RETURNDATASIZE ADD AND DUP3 ADD PUSH1 0x40 MSTORE RETURNDATASIZE DUP3 MSTORE RETURNDATASIZE PUSH0 PUSH1 0x20 DUP5 ADD RETURNDATACOPY PUSH2 0x1399 JUMP JUMPDEST PUSH1 0x60 SWAP2 POP JUMPDEST POP POP SWAP1 POP DUP1 PUSH2 0x13DE JUMPI PUSH1 0x40 MLOAD PUSH3 0x461BCD PUSH1 0xE5 SHL DUP2 MSTORE PUSH1 0x20 PUSH1 0x4 DUP3 ADD MSTORE PUSH1 0x11 PUSH1 0x24 DUP3 ADD MSTORE PUSH17 0x109390881C99599D5B990819985A5B1959 PUSH1 0x7A SHL PUSH1 0x44 DUP3 ADD MSTORE PUSH1 0x64 ADD PUSH2 0x2C1 JUMP JUMPDEST POP PUSH2 0x158F JUMP JUMPDEST PUSH1 0x1 DUP3 PUSH1 0x2 DUP2 GT ISZERO PUSH2 0x13F8 JUMPI PUSH2 0x13F8 PUSH2 0x354A JUMP JUMPDEST EQ DUP1 PUSH2 0x1415 JUMPI POP PUSH1 0x2 DUP3 PUSH1 0x2 DUP2 GT ISZERO PUSH2 0x1413 JUMPI PUSH2 0x1413 PUSH2 0x354A JUMP JUMPDEST EQ JUMPDEST ISZERO PUSH2 0x1539 JUMPI PUSH0 PUSH1 0x1 DUP4 PUSH1 0x2 DUP2 GT ISZERO PUSH2 0x142F JUMPI PUSH2 0x142F PUSH2 0x354A JUMP JUMPDEST EQ PUSH2 0x145A JUMPI PUSH32 0x0 PUSH2 0x147C JUMP JUMPDEST PUSH32 0x0 JUMPDEST PUSH1 0x40 MLOAD PUSH4 0xA9059CBB PUSH1 0xE0 SHL DUP2 MSTORE CALLER PUSH1 0x4 DUP3 ADD MSTORE PUSH1 0x24 DUP2 ADD DUP5 SWAP1 MSTORE SWAP1 SWAP2 POP PUSH1 0x1 PUSH1 0x1 PUSH1 0xA0 SHL SUB DUP3 AND SWAP1 PUSH4 0xA9059CBB SWAP1 PUSH1 0x44 ADD PUSH1 0x20 PUSH1 0x40 MLOAD DUP1 DUP4 SUB DUP2 PUSH0 DUP8 GAS CALL ISZERO DUP1 ISZERO PUSH2 0x14C9 JUMPI RETURNDATASIZE PUSH0 DUP1 RETURNDATACOPY RETURNDATASIZE PUSH0 REVERT JUMPDEST POP POP POP POP PUSH1 0x40 MLOAD RETURNDATASIZE PUSH1 0x1F NOT PUSH1 0x1F DUP3 ADD AND DUP3 ADD DUP1 PUSH1 0x40 MSTORE POP DUP2 ADD SWAP1 PUSH2 0x14ED SWAP2 SWAP1 PUSH2 0x3943 JUMP JUMPDEST PUSH2 0x13DE JUMPI PUSH1 0x40 MLOAD PUSH3 0x461BCD PUSH1 0xE5 SHL DUP2 MSTORE PUSH1 0x20 PUSH1 0x4 DUP3 ADD MSTORE PUSH1 0x18 PUSH1 0x24 DUP3 ADD MSTORE PUSH32 0x537461626C65636F696E20726566756E64206661696C65640000000000000000 PUSH1 0x44 DUP3 ADD MSTORE PUSH1 0x64 ADD PUSH2 0x2C1 JUMP JUMPDEST PUSH1 0x40 MLOAD PUSH3 0x461BCD PUSH1 0xE5 SHL DUP2 MSTORE PUSH1 0x20 PUSH1 0x4 DUP3 ADD MSTORE PUSH1 0x25 PUSH1 0x24 DUP3 ADD MSTORE PUSH32 0x556E737570706F72746564207061796D656E74206D6574686F6420666F722072 PUSH1 0x44 DUP3 ADD MSTORE PUSH5 0x19599D5B99 PUSH1 0xDA SHL PUSH1 0x64 DUP3 ADD MSTORE PUSH1 0x84 ADD PUSH2 0x2C1 JUMP JUMPDEST CALLER PUSH1 0x1 PUSH1 0x1 PUSH1 0xA0 SHL SUB AND PUSH32 0x2F7DD91B1411487B2BE64464150A4D8637D501759748B8E0BC5B64DE2D1BC1FD DUP8 DUP4 DUP6 PUSH1 0x40 MLOAD PUSH2 0x15CC SWAP4 SWAP3 SWAP2 SWAP1 PUSH2 0x395E JUMP JUMPDEST PUSH1 0x40 MLOAD DUP1 SWAP2 SUB SWAP1 LOG2 JUMPDEST POP POP PUSH1 0x1 ADD PUSH2 0x126C JUMP JUMPDEST POP DUP1 PUSH0 SUB PUSH2 0x162F JUMPI PUSH1 0x40 MLOAD PUSH3 0x461BCD PUSH1 0xE5 SHL DUP2 MSTORE PUSH1 0x20 PUSH1 0x4 DUP3 ADD DUP2 SWAP1 MSTORE PUSH1 0x24 DUP3 ADD MSTORE PUSH32 0x4E6F2066756E647320746F20726566756E6420666F7220746869732073616C65 PUSH1 0x44 DUP3 ADD MSTORE PUSH1 0x64 ADD PUSH2 0x2C1 JUMP JUMPDEST POP POP PUSH2 0x163A PUSH1 0x1 DUP1 SSTORE JUMP JUMPDEST POP JUMP JUMPDEST PUSH2 0x1645 PUSH2 0x2197 JUMP JUMPDEST PUSH2 0xE4C PUSH0 PUSH2 0x2303 JUMP JUMPDEST PUSH0 DUP2 ISZERO DUP1 ISZERO SWAP1 PUSH2 0x1660 JUMPI POP PUSH1 0x8 SLOAD DUP3 GT ISZERO JUMPDEST PUSH2 0x167C JUMPI PUSH1 0x40 MLOAD PUSH3 0x461BCD PUSH1 0xE5 SHL DUP2 MSTORE PUSH1 0x4 ADD PUSH2 0x2C1 SWAP1 PUSH2 0x391A JUMP JUMPDEST POP PUSH0 SWAP1 DUP2 MSTORE PUSH1 0xC PUSH1 0x20 MSTORE PUSH1 0x40 SWAP1 KECCAK256 PUSH1 0x2 DUP2 ADD SLOAD PUSH1 0x6 SWAP1 SWAP2 ADD SLOAD LT ISZERO SWAP1 JUMP JUMPDEST PUSH0 PUSH2 0xA89 DUP3 PUSH5 0xE8D4A51000 PUSH2 0x35DB JUMP JUMPDEST PUSH2 0x16B2 PUSH2 0x2197 JUMP JUMPDEST PUSH2 0xE4C PUSH2 0x2352 JUMP JUMPDEST PUSH2 0x16C2 PUSH2 0x22DF JUMP JUMPDEST PUSH1 0xB SLOAD PUSH1 0xFF AND ISZERO PUSH2 0x16E5 JUMPI PUSH1 0x40 MLOAD PUSH3 0x461BCD PUSH1 0xE5 SHL DUP2 MSTORE PUSH1 0x4 ADD PUSH2 0x2C1 SWAP1 PUSH2 0x3753 JUMP JUMPDEST CALLER PUSH0 SWAP1 DUP2 MSTORE PUSH1 0xE PUSH1 0x20 MSTORE PUSH1 0x40 SWAP1 KECCAK256 SLOAD PUSH1 0xFF AND ISZERO PUSH2 0x1732 JUMPI PUSH1 0x40 MLOAD PUSH3 0x461BCD PUSH1 0xE5 SHL DUP2 MSTORE PUSH1 0x20 PUSH1 0x4 DUP3 ADD MSTORE PUSH1 0xB PUSH1 0x24 DUP3 ADD MSTORE PUSH11 0x109B1858DADB1A5CDD1959 PUSH1 0xAA SHL PUSH1 0x44 DUP3 ADD MSTORE PUSH1 0x64 ADD PUSH2 0x2C1 JUMP JUMPDEST PUSH0 SLOAD PUSH1 0x1 PUSH1 0x1 PUSH1 0xA0 SHL SUB AND CALLER SUB PUSH2 0x177E JUMPI PUSH1 0x40 MLOAD PUSH3 0x461BCD PUSH1 0xE5 SHL DUP2 MSTORE PUSH1 0x20 PUSH1 0x4 DUP3 ADD MSTORE PUSH1 0x10 PUSH1 0x24 DUP3 ADD MSTORE PUSH16 0x13DDDB995C881C995CDD1C9A58DD1959 PUSH1 0x82 SHL PUSH1 0x44 DUP3 ADD MSTORE PUSH1 0x64 ADD PUSH2 0x2C1 JUMP JUMPDEST PUSH0 PUSH2 0x1787 PUSH2 0xD12 JUMP JUMPDEST SWAP1 POP DUP1 PUSH0 SUB PUSH2 0x17C9 JUMPI PUSH1 0x40 MLOAD PUSH3 0x461BCD PUSH1 0xE5 SHL DUP2 MSTORE PUSH1 0x20 PUSH1 0x4 DUP3 ADD MSTORE PUSH1 0xE PUSH1 0x24 DUP3 ADD MSTORE PUSH14 0x4E6F206163746976652073616C65 PUSH1 0x90 SHL PUSH1 0x44 DUP3 ADD MSTORE PUSH1 0x64 ADD PUSH2 0x2C1 JUMP JUMPDEST PUSH0 DUP2 DUP2 MSTORE PUSH1 0xC PUSH1 0x20 MSTORE PUSH1 0x40 SWAP1 KECCAK256 PUSH1 0xB DUP2 ADD SLOAD PUSH2 0x100 SWAP1 DIV PUSH1 0xFF AND ISZERO PUSH2 0x1821 JUMPI PUSH1 0x40 MLOAD PUSH3 0x461BCD PUSH1 0xE5 SHL DUP2 MSTORE PUSH1 0x20 PUSH1 0x4 DUP3 ADD MSTORE PUSH1 0xE PUSH1 0x24 DUP3 ADD MSTORE PUSH14 0x14D85B1948199A5B985B1A5E9959 PUSH1 0x92 SHL PUSH1 0x44 DUP3 ADD MSTORE PUSH1 0x64 ADD PUSH2 0x2C1 JUMP JUMPDEST PUSH1 0x40 DUP1 MLOAD DUP1 DUP3 ADD DUP3 MSTORE PUSH1 0xE DUP2 MSTORE PUSH14 0x3A37B5B2B739B4B73B32B9BA37B9 PUSH1 0x91 SHL PUSH1 0x20 DUP1 DUP4 ADD SWAP2 SWAP1 SWAP2 MSTORE PUSH0 DUP6 DUP2 MSTORE PUSH1 0x13 DUP3 MSTORE DUP4 DUP2 KECCAK256 CALLER DUP3 MSTORE SWAP1 SWAP2 MSTORE SWAP2 SWAP1 SWAP2 KECCAK256 SLOAD PUSH2 0x1869 SWAP2 SWAP1 PUSH2 0x21C3 JUMP JUMPDEST PUSH0 PUSH2 0x1874 DUP6 DUP6 PUSH2 0xDA4 JUMP JUMPDEST PUSH0 DUP5 DUP2 MSTORE PUSH1 0x13 PUSH1 0x20 SWAP1 DUP2 MSTORE PUSH1 0x40 DUP1 DUP4 KECCAK256 CALLER DUP5 MSTORE SWAP1 SWAP2 MSTORE SWAP1 KECCAK256 SLOAD PUSH2 0x1897 SWAP2 SWAP1 PUSH2 0x3782 JUMP JUMPDEST SWAP1 POP PUSH2 0x18D8 PUSH1 0x40 MLOAD DUP1 PUSH1 0x40 ADD PUSH1 0x40 MSTORE DUP1 PUSH1 0x1B DUP2 MSTORE PUSH1 0x20 ADD PUSH32 0x3D3D3D3D3D3D3D3D3D3D75736572546F74616C50757263686173650000000000 DUP2 MSTORE POP DUP3 PUSH2 0x21C3 JUMP JUMPDEST PUSH2 0x18F9 PUSH1 0x40 MLOAD DUP1 PUSH1 0x60 ADD PUSH1 0x40 MSTORE DUP1 PUSH1 0x25 DUP2 MSTORE PUSH1 0x20 ADD PUSH2 0x3A52 PUSH1 0x25 SWAP2 CODECOPY PUSH2 0x238F JUMP JUMPDEST PUSH0 PUSH2 0x1906 CALLER DUP8 DUP8 DUP8 PUSH2 0x23D2 JUMP JUMPDEST SWAP1 POP PUSH2 0x1947 PUSH1 0x40 MLOAD DUP1 PUSH1 0x40 ADD PUSH1 0x40 MSTORE DUP1 PUSH1 0x1D DUP2 MSTORE PUSH1 0x20 ADD PUSH32 0x3D3D3D3D3D3D3D3D3D3D63726F7373656420746F6B656E416D6F756E74000000 DUP2 MSTORE POP DUP3 PUSH2 0x21C3 JUMP JUMPDEST DUP1 PUSH0 SUB PUSH2 0x198D JUMPI PUSH1 0x40 MLOAD PUSH3 0x461BCD PUSH1 0xE5 SHL DUP2 MSTORE PUSH1 0x20 PUSH1 0x4 DUP3 ADD MSTORE PUSH1 0x14 PUSH1 0x24 DUP3 ADD MSTORE PUSH20 0x125B9D985B1A59081D1BDAD95B88185B5BDD5B9D PUSH1 0x62 SHL PUSH1 0x44 DUP3 ADD MSTORE PUSH1 0x64 ADD PUSH2 0x2C1 JUMP JUMPDEST PUSH0 PUSH2 0x19A1 DUP5 PUSH1 0x4 ADD SLOAD DUP4 PUSH2 0x661 SWAP2 SWAP1 PUSH2 0x35DB JUMP JUMPDEST SWAP1 POP PUSH2 0x19E2 PUSH1 0x40 MLOAD DUP1 PUSH1 0x40 ADD PUSH1 0x40 MSTORE DUP1 PUSH1 0x18 DUP2 MSTORE PUSH1 0x20 ADD PUSH32 0x3D3D3D3D3D3D3D3D3D3D746F74616C436F7374496E5553440000000000000000 DUP2 MSTORE POP DUP3 PUSH2 0x21C3 JUMP JUMPDEST DUP4 PUSH1 0x3 ADD SLOAD DUP2 DUP6 PUSH1 0x6 ADD SLOAD PUSH2 0x19F7 SWAP2 SWAP1 PUSH2 0x3782 JUMP JUMPDEST GT ISZERO PUSH2 0x1A38 JUMPI PUSH1 0x40 MLOAD PUSH3 0x461BCD PUSH1 0xE5 SHL DUP2 MSTORE PUSH1 0x20 PUSH1 0x4 DUP3 ADD MSTORE PUSH1 0x10 PUSH1 0x24 DUP3 ADD MSTORE PUSH16 0x12185C990818D85C081C995858DA1959 PUSH1 0x82 SHL PUSH1 0x44 DUP3 ADD MSTORE PUSH1 0x64 ADD PUSH2 0x2C1 JUMP JUMPDEST PUSH2 0x1A44 CALLER DUP7 DUP5 DUP5 PUSH2 0x2910 JUMP JUMPDEST PUSH2 0x1A4F CALLER DUP7 DUP5 PUSH2 0x2A64 JUMP JUMPDEST PUSH32 0xDBCEF474A632721725D49E3F35D9DEFE0257100B01D1E4B4B135B14D6FE296E8 CALLER DUP7 DUP5 DUP8 PUSH1 0x4 ADD SLOAD CALLVALUE DUP13 PUSH1 0x40 MLOAD PUSH2 0x1A8C SWAP7 SWAP6 SWAP5 SWAP4 SWAP3 SWAP2 SWAP1 PUSH2 0x3979 JUMP JUMPDEST PUSH1 0x40 MLOAD DUP1 SWAP2 SUB SWAP1 LOG1 POP POP POP POP POP POP POP JUMP JUMPDEST PUSH0 PUSH2 0xA89 PUSH8 0xDE0B6B3A7640000 DUP4 PUSH2 0x36F3 JUMP JUMPDEST PUSH0 PUSH2 0xA89 DUP3 PUSH5 0x2540BE400 PUSH2 0x35DB JUMP JUMPDEST PUSH2 0x1AC8 PUSH2 0x22B5 JUMP JUMPDEST PUSH2 0x1AD0 PUSH2 0x2197 JUMP JUMPDEST PUSH2 0x1AD8 PUSH2 0x22DF JUMP JUMPDEST PUSH1 0xB SLOAD PUSH1 0xFF AND ISZERO PUSH2 0x1AFB JUMPI PUSH1 0x40 MLOAD PUSH3 0x461BCD PUSH1 0xE5 SHL DUP2 MSTORE PUSH1 0x4 ADD PUSH2 0x2C1 SWAP1 PUSH2 0x3753 JUMP JUMPDEST PUSH1 0x8 SLOAD PUSH1 0x1 SWAP1 DUP2 SWAP1 DUP2 JUMPDEST DUP2 DUP2 GT PUSH2 0x1B98 JUMPI PUSH0 DUP2 DUP2 MSTORE PUSH1 0xC PUSH1 0x20 MSTORE PUSH1 0x40 SWAP1 KECCAK256 PUSH1 0x3 DUP2 ADD SLOAD PUSH1 0x6 DUP3 ADD SLOAD LT ISZERO PUSH2 0x1B2D JUMPI PUSH0 SWAP5 POP JUMPDEST DUP1 PUSH1 0x2 ADD SLOAD DUP2 PUSH1 0x6 ADD SLOAD LT ISZERO DUP1 PUSH2 0x1B47 JUMPI POP DUP1 PUSH1 0x1 ADD SLOAD TIMESTAMP GT JUMPDEST ISZERO PUSH2 0x1B50 JUMPI PUSH0 SWAP4 POP JUMPDEST DUP1 PUSH1 0x1 ADD SLOAD TIMESTAMP LT ISZERO DUP1 ISZERO PUSH2 0x1B6E JUMPI POP PUSH1 0xB DUP2 ADD SLOAD PUSH2 0x100 SWAP1 DIV PUSH1 0xFF AND ISZERO JUMPDEST ISZERO PUSH2 0x1B85 JUMPI PUSH1 0xB DUP2 ADD DUP1 SLOAD PUSH2 0xFF00 NOT AND PUSH2 0x100 OR SWAP1 SSTORE JUMPDEST POP DUP1 PUSH2 0x1B90 DUP2 PUSH2 0x3712 JUMP JUMPDEST SWAP2 POP POP PUSH2 0x1B05 JUMP JUMPDEST POP DUP3 DUP1 PUSH2 0x1BA2 JUMPI POP DUP2 JUMPDEST ISZERO PUSH2 0x1BED JUMPI PUSH1 0xB DUP1 SLOAD PUSH1 0xFF NOT AND PUSH1 0x1 OR SWAP1 SSTORE PUSH2 0x1BBD DUP5 PUSH2 0x2E68 JUMP JUMPDEST PUSH1 0xA SLOAD PUSH1 0x40 MLOAD PUSH32 0x9C4B134DA32AAB35252391880A9F2A3C13A760D7817AE8823F2B301D3522045A SWAP1 PUSH0 SWAP1 LOG2 PUSH2 0x1C27 JUMP JUMPDEST PUSH1 0x40 MLOAD PUSH3 0x461BCD PUSH1 0xE5 SHL DUP2 MSTORE PUSH1 0x20 PUSH1 0x4 DUP3 ADD MSTORE PUSH1 0xF PUSH1 0x24 DUP3 ADD MSTORE PUSH15 0x43616E6E6F742066696E616C697A65 PUSH1 0x88 SHL PUSH1 0x44 DUP3 ADD MSTORE PUSH1 0x64 ADD PUSH2 0x2C1 JUMP JUMPDEST POP POP POP PUSH2 0x163A PUSH1 0x1 DUP1 SSTORE JUMP JUMPDEST PUSH2 0x1C3B PUSH2 0x2197 JUMP JUMPDEST PUSH1 0x1 PUSH1 0x1 PUSH1 0xA0 SHL SUB DUP2 AND PUSH2 0x1C61 JUMPI PUSH1 0x40 MLOAD PUSH3 0x461BCD PUSH1 0xE5 SHL DUP2 MSTORE PUSH1 0x4 ADD PUSH2 0x2C1 SWAP1 PUSH2 0x372A JUMP JUMPDEST PUSH1 0x1 PUSH1 0x1 PUSH1 0xA0 SHL SUB DUP2 AND PUSH0 SWAP1 DUP2 MSTORE PUSH1 0xD PUSH1 0x20 MSTORE PUSH1 0x40 SWAP1 KECCAK256 SLOAD PUSH1 0xFF AND ISZERO PUSH2 0x1CA5 JUMPI PUSH1 0x1 PUSH1 0x1 PUSH1 0xA0 SHL SUB DUP2 AND PUSH0 SWAP1 DUP2 MSTORE PUSH1 0xD PUSH1 0x20 MSTORE PUSH1 0x40 SWAP1 KECCAK256 DUP1 SLOAD PUSH1 0xFF NOT AND SWAP1 SSTORE PUSH2 0x1CE5 JUMP JUMPDEST PUSH1 0x1 PUSH1 0x1 PUSH1 0xA0 SHL SUB DUP2 AND PUSH0 SWAP1 DUP2 MSTORE PUSH1 0xE PUSH1 0x20 MSTORE PUSH1 0x40 SWAP1 KECCAK256 SLOAD PUSH1 0xFF AND ISZERO PUSH2 0x1CE5 JUMPI PUSH1 0x1 PUSH1 0x1 PUSH1 0xA0 SHL SUB DUP2 AND PUSH0 SWAP1 DUP2 MSTORE PUSH1 0xE PUSH1 0x20 MSTORE PUSH1 0x40 SWAP1 KECCAK256 DUP1 SLOAD PUSH1 0xFF NOT AND SWAP1 SSTORE JUMPDEST PUSH1 0x40 MLOAD PUSH1 0x1 PUSH1 0x1 PUSH1 0xA0 SHL SUB DUP3 AND SWAP1 PUSH32 0xD5326EC3722C1B91194A873EBD0875236E62C0932B88AFA648564955FD47DB11 SWAP1 PUSH0 SWAP1 LOG2 POP JUMP JUMPDEST PUSH0 PUSH2 0xA89 PUSH5 0x2540BE400 DUP4 PUSH2 0x36F3 JUMP JUMPDEST PUSH1 0xC PUSH1 0x20 MSTORE DUP1 PUSH0 MSTORE PUSH1 0x40 PUSH0 KECCAK256 PUSH0 SWAP2 POP SWAP1 POP DUP1 PUSH0 ADD SLOAD SWAP1 DUP1 PUSH1 0x1 ADD SLOAD SWAP1 DUP1 PUSH1 0x2 ADD SLOAD SWAP1 DUP1 PUSH1 0x3 ADD SLOAD SWAP1 DUP1 PUSH1 0x4 ADD SLOAD SWAP1 DUP1 PUSH1 0x5 ADD SLOAD SWAP1 DUP1 PUSH1 0x6 ADD SLOAD SWAP1 DUP1 PUSH1 0x7 ADD SLOAD SWAP1 DUP1 PUSH1 0x8 ADD SLOAD SWAP1 DUP1 PUSH1 0xA ADD DUP1 SLOAD PUSH2 0x1D80 SWAP1 PUSH2 0x3795 JUMP JUMPDEST DUP1 PUSH1 0x1F ADD PUSH1 0x20 DUP1 SWAP2 DIV MUL PUSH1 0x20 ADD PUSH1 0x40 MLOAD SWAP1 DUP2 ADD PUSH1 0x40 MSTORE DUP1 SWAP3 SWAP2 SWAP1 DUP2 DUP2 MSTORE PUSH1 0x20 ADD DUP3 DUP1 SLOAD PUSH2 0x1DAC SWAP1 PUSH2 0x3795 JUMP JUMPDEST DUP1 ISZERO PUSH2 0x1DF7 JUMPI DUP1 PUSH1 0x1F LT PUSH2 0x1DCE JUMPI PUSH2 0x100 DUP1 DUP4 SLOAD DIV MUL DUP4 MSTORE SWAP2 PUSH1 0x20 ADD SWAP2 PUSH2 0x1DF7 JUMP JUMPDEST DUP3 ADD SWAP2 SWAP1 PUSH0 MSTORE PUSH1 0x20 PUSH0 KECCAK256 SWAP1 JUMPDEST DUP2 SLOAD DUP2 MSTORE SWAP1 PUSH1 0x1 ADD SWAP1 PUSH1 0x20 ADD DUP1 DUP4 GT PUSH2 0x1DDA JUMPI DUP3 SWAP1 SUB PUSH1 0x1F AND DUP3 ADD SWAP2 JUMPDEST POP POP POP PUSH1 0xB SWAP1 SWAP4 ADD SLOAD SWAP2 SWAP3 POP POP PUSH1 0xFF DUP1 DUP3 AND SWAP2 PUSH2 0x100 DUP2 DIV DUP3 AND SWAP2 PUSH3 0x10000 SWAP1 SWAP2 DIV AND DUP14 JUMP JUMPDEST PUSH0 DUP1 PUSH0 PUSH1 0xC PUSH0 DUP6 DUP2 MSTORE PUSH1 0x20 ADD SWAP1 DUP2 MSTORE PUSH1 0x20 ADD PUSH0 KECCAK256 PUSH1 0x40 MLOAD DUP1 PUSH2 0x1C0 ADD PUSH1 0x40 MSTORE SWAP1 DUP2 PUSH0 DUP3 ADD SLOAD DUP2 MSTORE PUSH1 0x20 ADD PUSH1 0x1 DUP3 ADD SLOAD DUP2 MSTORE PUSH1 0x20 ADD PUSH1 0x2 DUP3 ADD SLOAD DUP2 MSTORE PUSH1 0x20 ADD PUSH1 0x3 DUP3 ADD SLOAD DUP2 MSTORE PUSH1 0x20 ADD PUSH1 0x4 DUP3 ADD SLOAD DUP2 MSTORE PUSH1 0x20 ADD PUSH1 0x5 DUP3 ADD SLOAD DUP2 MSTORE PUSH1 0x20 ADD PUSH1 0x6 DUP3 ADD SLOAD DUP2 MSTORE PUSH1 0x20 ADD PUSH1 0x7 DUP3 ADD SLOAD DUP2 MSTORE PUSH1 0x20 ADD PUSH1 0x8 DUP3 ADD SLOAD DUP2 MSTORE PUSH1 0x20 ADD PUSH1 0x9 DUP3 ADD DUP1 SLOAD DUP1 PUSH1 0x20 MUL PUSH1 0x20 ADD PUSH1 0x40 MLOAD SWAP1 DUP2 ADD PUSH1 0x40 MSTORE DUP1 SWAP3 SWAP2 SWAP1 DUP2 DUP2 MSTORE PUSH1 0x20 ADD DUP3 DUP1 SLOAD DUP1 ISZERO PUSH2 0x1EED JUMPI PUSH1 0x20 MUL DUP3 ADD SWAP2 SWAP1 PUSH0 MSTORE PUSH1 0x20 PUSH0 KECCAK256 SWAP1 JUMPDEST DUP2 SLOAD PUSH1 0x1 PUSH1 0x1 PUSH1 0xA0 SHL SUB AND DUP2 MSTORE PUSH1 0x1 SWAP1 SWAP2 ADD SWAP1 PUSH1 0x20 ADD DUP1 DUP4 GT PUSH2 0x1ECF JUMPI JUMPDEST POP POP POP POP POP DUP2 MSTORE PUSH1 0x20 ADD PUSH1 0xA DUP3 ADD DUP1 SLOAD PUSH2 0x1F06 SWAP1 PUSH2 0x3795 JUMP JUMPDEST DUP1 PUSH1 0x1F ADD PUSH1 0x20 DUP1 SWAP2 DIV MUL PUSH1 0x20 ADD PUSH1 0x40 MLOAD SWAP1 DUP2 ADD PUSH1 0x40 MSTORE DUP1 SWAP3 SWAP2 SWAP1 DUP2 DUP2 MSTORE PUSH1 0x20 ADD DUP3 DUP1 SLOAD PUSH2 0x1F32 SWAP1 PUSH2 0x3795 JUMP JUMPDEST DUP1 ISZERO PUSH2 0x1F7D JUMPI DUP1 PUSH1 0x1F LT PUSH2 0x1F54 JUMPI PUSH2 0x100 DUP1 DUP4 SLOAD DIV MUL DUP4 MSTORE SWAP2 PUSH1 0x20 ADD SWAP2 PUSH2 0x1F7D JUMP JUMPDEST DUP3 ADD SWAP2 SWAP1 PUSH0 MSTORE PUSH1 0x20 PUSH0 KECCAK256 SWAP1 JUMPDEST DUP2 SLOAD DUP2 MSTORE SWAP1 PUSH1 0x1 ADD SWAP1 PUSH1 0x20 ADD DUP1 DUP4 GT PUSH2 0x1F60 JUMPI DUP3 SWAP1 SUB PUSH1 0x1F AND DUP3 ADD SWAP2 JUMPDEST POP POP POP SWAP2 DUP4 MSTORE POP POP PUSH1 0xB SWAP2 SWAP1 SWAP2 ADD SLOAD PUSH1 0xFF DUP1 DUP3 AND ISZERO ISZERO PUSH1 0x20 DUP1 DUP6 ADD SWAP2 SWAP1 SWAP2 MSTORE PUSH2 0x100 DUP4 DIV DUP3 AND ISZERO ISZERO PUSH1 0x40 DUP6 ADD MSTORE PUSH3 0x10000 SWAP1 SWAP3 DIV AND ISZERO ISZERO PUSH1 0x60 SWAP1 SWAP3 ADD SWAP2 SWAP1 SWAP2 MSTORE DUP2 MLOAD SWAP2 ADD MLOAD SWAP1 SWAP6 SWAP1 SWAP5 POP SWAP3 POP POP POP JUMP JUMPDEST PUSH0 DUP1 DUP3 ISZERO DUP1 ISZERO SWAP1 PUSH2 0x1FE0 JUMPI POP PUSH1 0x8 SLOAD DUP4 GT ISZERO JUMPDEST PUSH2 0x1FFC JUMPI PUSH1 0x40 MLOAD PUSH3 0x461BCD PUSH1 0xE5 SHL DUP2 MSTORE PUSH1 0x4 ADD PUSH2 0x2C1 SWAP1 PUSH2 0x391A JUMP JUMPDEST POP POP PUSH0 DUP2 DUP2 MSTORE PUSH1 0xC PUSH1 0x20 MSTORE PUSH1 0x40 DUP2 KECCAK256 PUSH1 0x9 DUP2 ADD SLOAD PUSH1 0x8 SLOAD SWAP1 SWAP3 SWAP2 SWAP1 PUSH1 0x1 JUMPDEST DUP2 DUP2 GT PUSH2 0x2050 JUMPI PUSH0 DUP2 DUP2 MSTORE PUSH1 0xC PUSH1 0x20 MSTORE PUSH1 0x40 SWAP1 KECCAK256 PUSH1 0x9 ADD SLOAD PUSH2 0x203C SWAP1 DUP6 PUSH2 0x3782 JUMP JUMPDEST SWAP4 POP DUP1 PUSH2 0x2048 DUP2 PUSH2 0x3712 JUMP JUMPDEST SWAP2 POP POP PUSH2 0x201A JUMP JUMPDEST POP POP POP SWAP2 POP SWAP2 JUMP JUMPDEST PUSH2 0x2060 PUSH2 0x2197 JUMP JUMPDEST PUSH1 0x1 PUSH1 0x1 PUSH1 0xA0 SHL SUB DUP2 AND PUSH2 0x2089 JUMPI PUSH1 0x40 MLOAD PUSH4 0x1E4FBDF7 PUSH1 0xE0 SHL DUP2 MSTORE PUSH0 PUSH1 0x4 DUP3 ADD MSTORE PUSH1 0x24 ADD PUSH2 0x2C1 JUMP JUMPDEST PUSH2 0x163A DUP2 PUSH2 0x2303 JUMP JUMPDEST PUSH0 DUP2 ISZERO DUP1 ISZERO SWAP1 PUSH2 0x20A4 JUMPI POP PUSH1 0x8 SLOAD DUP3 GT ISZERO JUMPDEST PUSH2 0x20C0 JUMPI PUSH1 0x40 MLOAD PUSH3 0x461BCD PUSH1 0xE5 SHL DUP2 MSTORE PUSH1 0x4 ADD PUSH2 0x2C1 SWAP1 PUSH2 0x391A JUMP JUMPDEST POP PUSH0 SWAP1 DUP2 MSTORE PUSH1 0xC PUSH1 0x20 MSTORE PUSH1 0x40 SWAP1 KECCAK256 PUSH1 0x3 DUP2 ADD SLOAD PUSH1 0x6 SWAP1 SWAP2 ADD SLOAD LT ISZERO SWAP1 JUMP JUMPDEST PUSH2 0x20E6 PUSH2 0x2197 JUMP JUMPDEST PUSH1 0x1 PUSH1 0x1 PUSH1 0xA0 SHL SUB DUP2 AND PUSH2 0x210C JUMPI PUSH1 0x40 MLOAD PUSH3 0x461BCD PUSH1 0xE5 SHL DUP2 MSTORE PUSH1 0x4 ADD PUSH2 0x2C1 SWAP1 PUSH2 0x372A JUMP JUMPDEST PUSH1 0x1 PUSH1 0x1 PUSH1 0xA0 SHL SUB DUP2 AND PUSH0 SWAP1 DUP2 MSTORE PUSH1 0xD PUSH1 0x20 MSTORE PUSH1 0x40 SWAP1 KECCAK256 SLOAD PUSH1 0xFF AND ISZERO PUSH2 0x214C JUMPI PUSH1 0x1 PUSH1 0x1 PUSH1 0xA0 SHL SUB DUP2 AND PUSH0 SWAP1 DUP2 MSTORE PUSH1 0xD PUSH1 0x20 MSTORE PUSH1 0x40 SWAP1 KECCAK256 DUP1 SLOAD PUSH1 0xFF NOT AND SWAP1 SSTORE JUMPDEST PUSH1 0x1 PUSH1 0x1 PUSH1 0xA0 SHL SUB DUP2 AND PUSH0 DUP2 DUP2 MSTORE PUSH1 0xE PUSH1 0x20 MSTORE PUSH1 0x40 DUP1 DUP3 KECCAK256 DUP1 SLOAD PUSH1 0xFF NOT AND PUSH1 0x1 OR SWAP1 SSTORE MLOAD PUSH32 0xFFA4E6181777692565CF28528FC88FD1516EA86B56DA075235FA575AF6A4B855 SWAP2 SWAP1 LOG2 POP JUMP JUMPDEST PUSH0 SLOAD PUSH1 0x1 PUSH1 0x1 PUSH1 0xA0 SHL SUB AND CALLER EQ PUSH2 0xE4C JUMPI PUSH1 0x40 MLOAD PUSH4 0x118CDAA7 PUSH1 0xE0 SHL DUP2 MSTORE CALLER PUSH1 0x4 DUP3 ADD MSTORE PUSH1 0x24 ADD PUSH2 0x2C1 JUMP JUMPDEST PUSH2 0x2208 DUP3 DUP3 PUSH1 0x40 MLOAD PUSH1 0x24 ADD PUSH2 0x21D9 SWAP3 SWAP2 SWAP1 PUSH2 0x39BD JUMP JUMPDEST PUSH1 0x40 DUP1 MLOAD PUSH1 0x1F NOT DUP2 DUP5 SUB ADD DUP2 MSTORE SWAP2 SWAP1 MSTORE PUSH1 0x20 DUP2 ADD DUP1 MLOAD PUSH1 0x1 PUSH1 0x1 PUSH1 0xE0 SHL SUB AND PUSH4 0x2D839CB3 PUSH1 0xE2 SHL OR SWAP1 MSTORE PUSH2 0x31F4 JUMP JUMPDEST POP POP JUMP JUMPDEST PUSH2 0x2214 PUSH2 0x31FD JUMP JUMPDEST PUSH1 0x2 DUP1 SLOAD PUSH1 0xFF NOT AND SWAP1 SSTORE PUSH32 0x5DB9EE0A495BF2E6FF9C91A7834C1BA4FDD244A5E8AA4E537BD38AEAE4B073AA CALLER JUMPDEST PUSH1 0x40 MLOAD PUSH1 0x1 PUSH1 0x1 PUSH1 0xA0 SHL SUB SWAP1 SWAP2 AND DUP2 MSTORE PUSH1 0x20 ADD PUSH1 0x40 MLOAD DUP1 SWAP2 SUB SWAP1 LOG1 JUMP JUMPDEST PUSH1 0x8 SLOAD PUSH0 SWAP1 DUP2 SWAP1 PUSH1 0x1 JUMPDEST DUP2 DUP2 GT PUSH2 0x22AD JUMPI PUSH0 DUP2 DUP2 MSTORE PUSH1 0xC PUSH1 0x20 MSTORE PUSH1 0x40 SWAP1 KECCAK256 PUSH1 0x1 ADD SLOAD DUP4 LT ISZERO PUSH2 0x229B JUMPI PUSH0 DUP2 DUP2 MSTORE PUSH1 0xC PUSH1 0x20 MSTORE PUSH1 0x40 SWAP1 KECCAK256 PUSH1 0x1 ADD SLOAD SWAP3 POP JUMPDEST DUP1 PUSH2 0x22A5 DUP2 PUSH2 0x3712 JUMP JUMPDEST SWAP2 POP POP PUSH2 0x2268 JUMP JUMPDEST POP SWAP1 SWAP3 SWAP2 POP POP JUMP JUMPDEST PUSH1 0x2 PUSH1 0x1 SLOAD SUB PUSH2 0x22D8 JUMPI PUSH1 0x40 MLOAD PUSH4 0x3EE5AEB5 PUSH1 0xE0 SHL DUP2 MSTORE PUSH1 0x4 ADD PUSH1 0x40 MLOAD DUP1 SWAP2 SUB SWAP1 REVERT JUMPDEST PUSH1 0x2 PUSH1 0x1 SSTORE JUMP JUMPDEST PUSH1 0x2 SLOAD PUSH1 0xFF AND ISZERO PUSH2 0xE4C JUMPI PUSH1 0x40 MLOAD PUSH4 0xD93C0665 PUSH1 0xE0 SHL DUP2 MSTORE PUSH1 0x4 ADD PUSH1 0x40 MLOAD DUP1 SWAP2 SUB SWAP1 REVERT JUMPDEST PUSH0 DUP1 SLOAD PUSH1 0x1 PUSH1 0x1 PUSH1 0xA0 SHL SUB DUP4 DUP2 AND PUSH1 0x1 PUSH1 0x1 PUSH1 0xA0 SHL SUB NOT DUP4 AND DUP2 OR DUP5 SSTORE PUSH1 0x40 MLOAD SWAP2 SWAP1 SWAP3 AND SWAP3 DUP4 SWAP2 PUSH32 0x8BE0079C531659141344CD1FD0A4F28419497F9722A3DAAFE3B4186F6B6457E0 SWAP2 SWAP1 LOG3 POP POP JUMP JUMPDEST PUSH2 0x235A PUSH2 0x22DF JUMP JUMPDEST PUSH1 0x2 DUP1 SLOAD PUSH1 0xFF NOT AND PUSH1 0x1 OR SWAP1 SSTORE PUSH32 0x62E78CEA01BEE320CD4E420270B5EA74000D11B0C9F74754EBDBFC544B05A258 PUSH2 0x2241 CALLER SWAP1 JUMP JUMPDEST PUSH2 0x163A DUP2 PUSH1 0x40 MLOAD PUSH1 0x24 ADD PUSH2 0x23A3 SWAP2 SWAP1 PUSH2 0x39DE JUMP JUMPDEST PUSH1 0x40 DUP1 MLOAD PUSH1 0x1F NOT DUP2 DUP5 SUB ADD DUP2 MSTORE SWAP2 SWAP1 MSTORE PUSH1 0x20 DUP2 ADD DUP1 MLOAD PUSH1 0x1 PUSH1 0x1 PUSH1 0xE0 SHL SUB AND PUSH4 0x104C13EB PUSH1 0xE2 SHL OR SWAP1 MSTORE PUSH2 0x31F4 JUMP JUMPDEST PUSH0 DUP1 DUP5 PUSH1 0x2 DUP2 GT ISZERO PUSH2 0x23E6 JUMPI PUSH2 0x23E6 PUSH2 0x354A JUMP JUMPDEST SUB PUSH2 0x24F1 JUMPI PUSH2 0x2421 PUSH1 0x40 MLOAD DUP1 PUSH1 0x40 ADD PUSH1 0x40 MSTORE DUP1 PUSH1 0x15 DUP2 MSTORE PUSH1 0x20 ADD PUSH21 0x1E9E9E9E9E9E9E9E9E9EB2B73A32B932B210313731 PUSH1 0x59 SHL DUP2 MSTORE POP PUSH2 0x238F JUMP JUMPDEST CALLVALUE PUSH0 SUB PUSH2 0x245E JUMPI PUSH1 0x40 MLOAD PUSH3 0x461BCD PUSH1 0xE5 SHL DUP2 MSTORE PUSH1 0x20 PUSH1 0x4 DUP3 ADD MSTORE PUSH1 0xB PUSH1 0x24 DUP3 ADD MSTORE PUSH11 0x24B73B30B634B210212721 PUSH1 0xA9 SHL PUSH1 0x44 DUP3 ADD MSTORE PUSH1 0x64 ADD PUSH2 0x2C1 JUMP JUMPDEST PUSH0 PUSH2 0x2469 DUP6 CALLVALUE PUSH2 0x912 JUMP JUMPDEST SWAP1 POP PUSH2 0x24AA PUSH1 0x40 MLOAD DUP1 PUSH1 0x40 ADD PUSH1 0x40 MSTORE DUP1 PUSH1 0x19 DUP2 MSTORE PUSH1 0x20 ADD PUSH32 0x3D3D3D3D3D3D3D3D3D3D746F6B656E416D6F756E7420626E6200000000000000 DUP2 MSTORE POP DUP3 PUSH2 0x21C3 JUMP JUMPDEST PUSH0 DUP4 DUP2 MSTORE PUSH1 0x12 PUSH1 0x20 SWAP1 DUP2 MSTORE PUSH1 0x40 DUP1 DUP4 KECCAK256 PUSH1 0x1 PUSH1 0x1 PUSH1 0xA0 SHL SUB DUP11 AND DUP5 MSTORE DUP3 MSTORE DUP1 DUP4 KECCAK256 DUP4 DUP1 MSTORE SWAP1 SWAP2 MSTORE DUP2 KECCAK256 DUP1 SLOAD CALLVALUE SWAP3 SWAP1 PUSH2 0x24E3 SWAP1 DUP5 SWAP1 PUSH2 0x3782 JUMP JUMPDEST SWAP1 SWAP2 SSTORE POP SWAP1 SWAP2 POP PUSH2 0x2908 SWAP1 POP JUMP JUMPDEST PUSH1 0x1 DUP5 PUSH1 0x2 DUP2 GT ISZERO PUSH2 0x2505 JUMPI PUSH2 0x2505 PUSH2 0x354A JUMP JUMPDEST EQ DUP1 PUSH2 0x2522 JUMPI POP PUSH1 0x2 DUP5 PUSH1 0x2 DUP2 GT ISZERO PUSH2 0x2520 JUMPI PUSH2 0x2520 PUSH2 0x354A JUMP JUMPDEST EQ JUMPDEST ISZERO PUSH2 0x28CA JUMPI PUSH2 0x2565 PUSH1 0x40 MLOAD DUP1 PUSH1 0x40 ADD PUSH1 0x40 MSTORE DUP1 PUSH1 0x1B DUP2 MSTORE PUSH1 0x20 ADD PUSH32 0x3D3D3D3D3D3D3D3D3D3D656E746572656420757364632F757364740000000000 DUP2 MSTORE POP PUSH2 0x238F JUMP JUMPDEST DUP3 PUSH0 SUB PUSH2 0x25A9 JUMPI PUSH1 0x40 MLOAD PUSH3 0x461BCD PUSH1 0xE5 SHL DUP2 MSTORE PUSH1 0x20 PUSH1 0x4 DUP3 ADD MSTORE PUSH1 0x12 PUSH1 0x24 DUP3 ADD MSTORE PUSH18 0x24B73B30B634B21039BA30B13632B1B7B4B7 PUSH1 0x71 SHL PUSH1 0x44 DUP3 ADD MSTORE PUSH1 0x64 ADD PUSH2 0x2C1 JUMP JUMPDEST PUSH2 0x25E7 PUSH1 0x40 MLOAD DUP1 PUSH1 0x40 ADD PUSH1 0x40 MSTORE DUP1 PUSH1 0x1A DUP2 MSTORE PUSH1 0x20 ADD PUSH32 0x3D3D3D3D3D3D3D3D3D3D72657175697265642063726F73736564000000000000 DUP2 MSTORE POP PUSH2 0x238F JUMP JUMPDEST PUSH0 PUSH1 0x1 DUP6 PUSH1 0x2 DUP2 GT ISZERO PUSH2 0x25FC JUMPI PUSH2 0x25FC PUSH2 0x354A JUMP JUMPDEST EQ PUSH2 0x2627 JUMPI PUSH32 0x0 PUSH2 0x2649 JUMP JUMPDEST PUSH32 0x0 JUMPDEST SWAP1 POP PUSH2 0x2680 PUSH1 0x40 MLOAD DUP1 PUSH1 0x40 ADD PUSH1 0x40 MSTORE DUP1 PUSH1 0x14 DUP2 MSTORE PUSH1 0x20 ADD PUSH20 0x1E9E9E9E9E9E9E9E9E9EB9BA30B13632B1B7B4B7 PUSH1 0x61 SHL DUP2 MSTORE POP PUSH2 0x238F JUMP JUMPDEST PUSH2 0x26B5 PUSH1 0x40 MLOAD DUP1 PUSH1 0x40 ADD PUSH1 0x40 MSTORE DUP1 PUSH1 0x13 DUP2 MSTORE PUSH1 0x20 ADD PUSH19 0x1E9E9E9E9E9E9E9E9E9EAFB4B73B32B9BA37B9 PUSH1 0x69 SHL DUP2 MSTORE POP DUP8 PUSH2 0x3220 JUMP JUMPDEST PUSH2 0x26F4 PUSH1 0x40 MLOAD DUP1 PUSH1 0x40 ADD PUSH1 0x40 MSTORE DUP1 PUSH1 0x17 DUP2 MSTORE PUSH1 0x20 ADD PUSH32 0x3D3D3D3D3D3D3D3D3D3D61646472657373287468697329000000000000000000 DUP2 MSTORE POP ADDRESS PUSH2 0x3220 JUMP JUMPDEST PUSH2 0x2733 PUSH1 0x40 MLOAD DUP1 PUSH1 0x40 ADD PUSH1 0x40 MSTORE DUP1 PUSH1 0x17 DUP2 MSTORE PUSH1 0x20 ADD PUSH32 0x3D3D3D3D3D3D3D3D3D3D7061796D656E74416D6F756E74000000000000000000 DUP2 MSTORE POP DUP6 PUSH2 0x21C3 JUMP JUMPDEST PUSH1 0x40 MLOAD PUSH4 0x23B872DD PUSH1 0xE0 SHL DUP2 MSTORE PUSH1 0x1 PUSH1 0x1 PUSH1 0xA0 SHL SUB DUP8 DUP2 AND PUSH1 0x4 DUP4 ADD MSTORE ADDRESS PUSH1 0x24 DUP4 ADD MSTORE PUSH1 0x44 DUP3 ADD DUP7 SWAP1 MSTORE DUP3 AND SWAP1 PUSH4 0x23B872DD SWAP1 PUSH1 0x64 ADD PUSH1 0x20 PUSH1 0x40 MLOAD DUP1 DUP4 SUB DUP2 PUSH0 DUP8 GAS CALL ISZERO DUP1 ISZERO PUSH2 0x2785 JUMPI RETURNDATASIZE PUSH0 DUP1 RETURNDATACOPY RETURNDATASIZE PUSH0 REVERT JUMPDEST POP POP POP POP PUSH1 0x40 MLOAD RETURNDATASIZE PUSH1 0x1F NOT PUSH1 0x1F DUP3 ADD AND DUP3 ADD DUP1 PUSH1 0x40 MSTORE POP DUP2 ADD SWAP1 PUSH2 0x27A9 SWAP2 SWAP1 PUSH2 0x3943 JUMP JUMPDEST PUSH2 0x27F5 JUMPI PUSH1 0x40 MLOAD PUSH3 0x461BCD PUSH1 0xE5 SHL DUP2 MSTORE PUSH1 0x20 PUSH1 0x4 DUP3 ADD MSTORE PUSH1 0x1A PUSH1 0x24 DUP3 ADD MSTORE PUSH32 0x537461626C65636F696E207472616E73666572206661696C6564000000000000 PUSH1 0x44 DUP3 ADD MSTORE PUSH1 0x64 ADD PUSH2 0x2C1 JUMP JUMPDEST PUSH2 0x2816 PUSH1 0x40 MLOAD DUP1 PUSH1 0x60 ADD PUSH1 0x40 MSTORE DUP1 PUSH1 0x2E DUP2 MSTORE PUSH1 0x20 ADD PUSH2 0x3AA0 PUSH1 0x2E SWAP2 CODECOPY PUSH2 0x238F JUMP JUMPDEST PUSH0 PUSH2 0x2821 DUP7 DUP7 PUSH2 0x912 JUMP JUMPDEST SWAP1 POP PUSH2 0x285A PUSH1 0x40 MLOAD DUP1 PUSH1 0x40 ADD PUSH1 0x40 MSTORE DUP1 PUSH1 0x15 DUP2 MSTORE PUSH1 0x20 ADD PUSH21 0xF4F4F4F4F4F4F4F4F4F5D1BDAD95B905B5BDD5B9D PUSH1 0x5A SHL DUP2 MSTORE POP DUP3 PUSH2 0x21C3 JUMP JUMPDEST PUSH0 DUP5 DUP2 MSTORE PUSH1 0x12 PUSH1 0x20 SWAP1 DUP2 MSTORE PUSH1 0x40 DUP1 DUP4 KECCAK256 PUSH1 0x1 PUSH1 0x1 PUSH1 0xA0 SHL SUB DUP12 AND DUP5 MSTORE SWAP1 SWAP2 MSTORE DUP2 KECCAK256 DUP7 SWAP2 DUP9 PUSH1 0x2 DUP2 GT ISZERO PUSH2 0x288F JUMPI PUSH2 0x288F PUSH2 0x354A JUMP JUMPDEST PUSH1 0x2 DUP2 GT ISZERO PUSH2 0x28A0 JUMPI PUSH2 0x28A0 PUSH2 0x354A JUMP JUMPDEST DUP2 MSTORE PUSH1 0x20 ADD SWAP1 DUP2 MSTORE PUSH1 0x20 ADD PUSH0 KECCAK256 PUSH0 DUP3 DUP3 SLOAD PUSH2 0x28BB SWAP2 SWAP1 PUSH2 0x3782 JUMP JUMPDEST SWAP1 SWAP2 SSTORE POP SWAP1 SWAP3 POP PUSH2 0x2908 SWAP2 POP POP JUMP JUMPDEST PUSH1 0x40 MLOAD PUSH3 0x461BCD PUSH1 0xE5 SHL DUP2 MSTORE PUSH1 0x20 PUSH1 0x4 DUP3 ADD MSTORE PUSH1 0x13 PUSH1 0x24 DUP3 ADD MSTORE PUSH19 0x155B9CDD5C1C1BDC9D1959081C185E5B595B9D PUSH1 0x6A SHL PUSH1 0x44 DUP3 ADD MSTORE PUSH1 0x64 ADD PUSH2 0x2C1 JUMP JUMPDEST SWAP5 SWAP4 POP POP POP POP JUMP JUMPDEST PUSH0 DUP4 DUP2 MSTORE PUSH1 0xC PUSH1 0x20 SWAP1 DUP2 MSTORE PUSH1 0x40 DUP1 DUP4 KECCAK256 PUSH1 0x1 PUSH1 0x1 PUSH1 0xA0 SHL SUB DUP9 AND DUP5 MSTORE PUSH1 0xF SWAP1 SWAP3 MSTORE DUP3 KECCAK256 DUP1 SLOAD SWAP2 SWAP3 DUP5 SWAP3 PUSH2 0x2944 SWAP1 DUP5 SWAP1 PUSH2 0x3782 JUMP JUMPDEST SWAP3 POP POP DUP2 SWAP1 SSTORE POP DUP2 DUP2 PUSH1 0x6 ADD PUSH0 DUP3 DUP3 SLOAD PUSH2 0x295E SWAP2 SWAP1 PUSH2 0x3782 JUMP JUMPDEST SWAP3 POP POP DUP2 SWAP1 SSTORE POP DUP2 PUSH1 0x9 PUSH0 DUP3 DUP3 SLOAD PUSH2 0x2976 SWAP2 SWAP1 PUSH2 0x3782 JUMP JUMPDEST SWAP3 POP POP DUP2 SWAP1 SSTORE POP DUP3 DUP2 PUSH1 0x5 ADD PUSH0 DUP3 DUP3 SLOAD PUSH2 0x2990 SWAP2 SWAP1 PUSH2 0x3782 JUMP JUMPDEST SWAP3 POP POP DUP2 SWAP1 SSTORE POP DUP3 PUSH1 0xA PUSH0 DUP3 DUP3 SLOAD PUSH2 0x29A8 SWAP2 SWAP1 PUSH2 0x3782 JUMP JUMPDEST SWAP1 SWAP2 SSTORE POP POP PUSH0 DUP5 DUP2 MSTORE PUSH1 0x13 PUSH1 0x20 SWAP1 DUP2 MSTORE PUSH1 0x40 DUP1 DUP4 KECCAK256 PUSH1 0x1 PUSH1 0x1 PUSH1 0xA0 SHL SUB DUP10 AND DUP5 MSTORE SWAP1 SWAP2 MSTORE DUP2 KECCAK256 DUP1 SLOAD DUP6 SWAP3 SWAP1 PUSH2 0x29DE SWAP1 DUP5 SWAP1 PUSH2 0x3782 JUMP JUMPDEST SWAP1 SWAP2 SSTORE POP POP PUSH1 0x1 PUSH1 0x1 PUSH1 0xA0 SHL SUB DUP6 AND PUSH0 SWAP1 DUP2 MSTORE PUSH1 0x10 PUSH1 0x20 MSTORE PUSH1 0x40 DUP2 KECCAK256 SLOAD SWAP1 SUB PUSH2 0x2A31 JUMPI PUSH1 0x9 DUP2 ADD DUP1 SLOAD PUSH1 0x1 DUP2 ADD DUP3 SSTORE PUSH0 SWAP2 DUP3 MSTORE PUSH1 0x20 SWAP1 SWAP2 KECCAK256 ADD DUP1 SLOAD PUSH1 0x1 PUSH1 0x1 PUSH1 0xA0 SHL SUB NOT AND PUSH1 0x1 PUSH1 0x1 PUSH1 0xA0 SHL SUB DUP8 AND OR SWAP1 SSTORE JUMPDEST PUSH1 0x1 PUSH1 0x1 PUSH1 0xA0 SHL SUB DUP6 AND PUSH0 SWAP1 DUP2 MSTORE PUSH1 0x10 PUSH1 0x20 MSTORE PUSH1 0x40 DUP2 KECCAK256 DUP1 SLOAD DUP6 SWAP3 SWAP1 PUSH2 0x2A58 SWAP1 DUP5 SWAP1 PUSH2 0x3782 JUMP JUMPDEST SWAP1 SWAP2 SSTORE POP POP POP POP POP POP POP JUMP JUMPDEST PUSH0 PUSH1 0x64 PUSH2 0x2A72 DUP4 PUSH1 0xA PUSH2 0x35DB JUMP JUMPDEST PUSH2 0x2A7C SWAP2 SWAP1 PUSH2 0x36F3 JUMP JUMPDEST SWAP1 POP PUSH2 0x2ABD PUSH1 0x40 MLOAD DUP1 PUSH1 0x40 ADD PUSH1 0x40 MSTORE DUP1 PUSH1 0x17 DUP2 MSTORE PUSH1 0x20 ADD PUSH32 0x3D3D3D3D3D696E697469616C52656C656173653D3D3D3D000000000000000000 DUP2 MSTORE POP DUP3 PUSH2 0x21C3 JUMP JUMPDEST PUSH0 PUSH2 0x2AC8 DUP3 DUP5 PUSH2 0x35F2 JUMP JUMPDEST SWAP1 POP PUSH2 0x2B01 PUSH1 0x40 MLOAD DUP1 PUSH1 0x40 ADD PUSH1 0x40 MSTORE DUP1 PUSH1 0x15 DUP2 MSTORE PUSH1 0x20 ADD PUSH21 0x3D3D3D3D3D6C6F636B6564546F6B656E733D3D3D3D PUSH1 0x58 SHL DUP2 MSTORE POP DUP3 PUSH2 0x21C3 JUMP JUMPDEST PUSH1 0x5 SLOAD PUSH1 0x1 PUSH1 0x1 PUSH1 0xA0 SHL SUB AND PUSH4 0xF326F0D7 DUP7 PUSH2 0x2B1F TIMESTAMP PUSH2 0x12C PUSH2 0x3782 JUMP JUMPDEST PUSH1 0x40 MLOAD PUSH1 0x1 PUSH1 0x1 PUSH1 0xE0 SHL SUB NOT PUSH1 0xE0 DUP6 SWAP1 SHL AND DUP2 MSTORE PUSH1 0x1 PUSH1 0x1 PUSH1 0xA0 SHL SUB SWAP1 SWAP3 AND PUSH1 0x4 DUP4 ADD MSTORE PUSH1 0x24 DUP3 ADD MSTORE PUSH1 0x44 DUP2 ADD DUP6 SWAP1 MSTORE PUSH1 0x64 ADD PUSH0 PUSH1 0x40 MLOAD DUP1 DUP4 SUB DUP2 PUSH0 DUP8 DUP1 EXTCODESIZE ISZERO DUP1 ISZERO PUSH2 0x2B69 JUMPI PUSH0 DUP1 REVERT JUMPDEST POP GAS CALL ISZERO DUP1 ISZERO PUSH2 0x2B7B JUMPI RETURNDATASIZE PUSH0 DUP1 RETURNDATACOPY RETURNDATASIZE PUSH0 REVERT JUMPDEST POP POP POP POP PUSH2 0x2BBD PUSH1 0x40 MLOAD DUP1 PUSH1 0x40 ADD PUSH1 0x40 MSTORE DUP1 PUSH1 0x17 DUP2 MSTORE PUSH1 0x20 ADD PUSH32 0x3D3D3D3D3D746F6B656E73206C6F636B6564643D3D3D3D000000000000000000 DUP2 MSTORE POP PUSH2 0x238F JUMP JUMPDEST PUSH1 0x5 SLOAD PUSH1 0x40 MLOAD PUSH4 0xA9059CBB PUSH1 0xE0 SHL DUP2 MSTORE PUSH1 0x1 PUSH1 0x1 PUSH1 0xA0 SHL SUB DUP8 DUP2 AND PUSH1 0x4 DUP4 ADD MSTORE PUSH1 0x24 DUP3 ADD DUP6 SWAP1 MSTORE SWAP1 SWAP2 AND SWAP1 PUSH4 0xA9059CBB SWAP1 PUSH1 0x44 ADD PUSH1 0x20 PUSH1 0x40 MLOAD DUP1 DUP4 SUB DUP2 PUSH0 DUP8 GAS CALL ISZERO DUP1 ISZERO PUSH2 0x2C0D JUMPI RETURNDATASIZE PUSH0 DUP1 RETURNDATACOPY RETURNDATASIZE PUSH0 REVERT JUMPDEST POP POP POP POP PUSH1 0x40 MLOAD RETURNDATASIZE PUSH1 0x1F NOT PUSH1 0x1F DUP3 ADD AND DUP3 ADD DUP1 PUSH1 0x40 MSTORE POP DUP2 ADD SWAP1 PUSH2 0x2C31 SWAP2 SWAP1 PUSH2 0x3943 JUMP JUMPDEST PUSH2 0x2C7D JUMPI PUSH1 0x40 MLOAD PUSH3 0x461BCD PUSH1 0xE5 SHL DUP2 MSTORE PUSH1 0x20 PUSH1 0x4 DUP3 ADD MSTORE PUSH1 0x17 PUSH1 0x24 DUP3 ADD MSTORE PUSH32 0x496E697469616C207472616E73666572206661696C6564000000000000000000 PUSH1 0x44 DUP3 ADD MSTORE PUSH1 0x64 ADD PUSH2 0x2C1 JUMP JUMPDEST PUSH2 0x2CB2 PUSH1 0x40 MLOAD DUP1 PUSH1 0x40 ADD PUSH1 0x40 MSTORE DUP1 PUSH1 0x14 DUP2 MSTORE PUSH1 0x20 ADD PUSH20 0x3D3D3D3D3D31302520746F20757365723D3D3D3D PUSH1 0x60 SHL DUP2 MSTORE POP PUSH2 0x238F JUMP JUMPDEST PUSH1 0x5 SLOAD PUSH1 0x7 SLOAD PUSH1 0x40 MLOAD PUSH4 0xA9059CBB PUSH1 0xE0 SHL DUP2 MSTORE PUSH1 0x1 PUSH1 0x1 PUSH1 0xA0 SHL SUB SWAP2 DUP3 AND PUSH1 0x4 DUP3 ADD MSTORE PUSH1 0x24 DUP2 ADD DUP5 SWAP1 MSTORE SWAP2 AND SWAP1 PUSH4 0xA9059CBB SWAP1 PUSH1 0x44 ADD PUSH1 0x20 PUSH1 0x40 MLOAD DUP1 DUP4 SUB DUP2 PUSH0 DUP8 GAS CALL ISZERO DUP1 ISZERO PUSH2 0x2D04 JUMPI RETURNDATASIZE PUSH0 DUP1 RETURNDATACOPY RETURNDATASIZE PUSH0 REVERT JUMPDEST POP POP POP POP PUSH1 0x40 MLOAD RETURNDATASIZE PUSH1 0x1F NOT PUSH1 0x1F DUP3 ADD AND DUP3 ADD DUP1 PUSH1 0x40 MSTORE POP DUP2 ADD SWAP1 PUSH2 0x2D28 SWAP2 SWAP1 PUSH2 0x3943 JUMP JUMPDEST PUSH2 0x2D74 JUMPI PUSH1 0x40 MLOAD PUSH3 0x461BCD PUSH1 0xE5 SHL DUP2 MSTORE PUSH1 0x20 PUSH1 0x4 DUP3 ADD MSTORE PUSH1 0x17 PUSH1 0x24 DUP3 ADD MSTORE PUSH32 0x56657374696E67207472616E73666572206661696C6564000000000000000000 PUSH1 0x44 DUP3 ADD MSTORE PUSH1 0x64 ADD PUSH2 0x2C1 JUMP JUMPDEST PUSH2 0x2D95 PUSH1 0x40 MLOAD DUP1 PUSH1 0x60 ADD PUSH1 0x40 MSTORE DUP1 PUSH1 0x21 DUP2 MSTORE PUSH1 0x20 ADD PUSH2 0x3A31 PUSH1 0x21 SWAP2 CODECOPY PUSH2 0x238F JUMP JUMPDEST PUSH1 0x7 SLOAD PUSH1 0x40 MLOAD PUSH4 0xDD0123F PUSH1 0xE2 SHL DUP2 MSTORE PUSH1 0x1 PUSH1 0x1 PUSH1 0xA0 SHL SUB DUP8 DUP2 AND PUSH1 0x4 DUP4 ADD MSTORE PUSH1 0x24 DUP3 ADD DUP8 SWAP1 MSTORE PUSH1 0x44 DUP3 ADD DUP7 SWAP1 MSTORE PUSH1 0x64 DUP3 ADD DUP6 SWAP1 MSTORE PUSH1 0x84 DUP3 ADD DUP5 SWAP1 MSTORE TIMESTAMP PUSH1 0xA4 DUP4 ADD MSTORE PUSH2 0x12C PUSH1 0xC4 DUP4 ADD DUP2 SWAP1 MSTORE PUSH2 0x708 PUSH1 0xE4 DUP5 ADD MSTORE PUSH2 0x104 DUP4 ADD MSTORE SWAP1 SWAP2 AND SWAP1 PUSH4 0x374048FC SWAP1 PUSH2 0x124 ADD PUSH0 PUSH1 0x40 MLOAD DUP1 DUP4 SUB DUP2 PUSH0 DUP8 DUP1 EXTCODESIZE ISZERO DUP1 ISZERO PUSH2 0x2E14 JUMPI PUSH0 DUP1 REVERT JUMPDEST POP GAS CALL ISZERO DUP1 ISZERO PUSH2 0x2E26 JUMPI RETURNDATASIZE PUSH0 DUP1 RETURNDATACOPY RETURNDATASIZE PUSH0 REVERT JUMPDEST POP POP POP POP PUSH2 0xEA3 PUSH1 0x40 MLOAD DUP1 PUSH1 0x40 ADD PUSH1 0x40 MSTORE DUP1 PUSH1 0x1B DUP2 MSTORE PUSH1 0x20 ADD PUSH32 0x3D3D3D3D3D76657374696E6720726567697374657265643D3D3D3D0000000000 DUP2 MSTORE POP PUSH2 0x238F JUMP JUMPDEST PUSH1 0x1 PUSH1 0x1 PUSH1 0xA0 SHL SUB DUP2 AND PUSH2 0x2E8E JUMPI PUSH1 0x40 MLOAD PUSH3 0x461BCD PUSH1 0xE5 SHL DUP2 MSTORE PUSH1 0x4 ADD PUSH2 0x2C1 SWAP1 PUSH2 0x372A JUMP JUMPDEST SELFBALANCE DUP1 ISZERO PUSH2 0x2F28 JUMPI PUSH0 DUP3 PUSH1 0x1 PUSH1 0x1 PUSH1 0xA0 SHL SUB AND DUP3 PUSH1 0x40 MLOAD PUSH0 PUSH1 0x40 MLOAD DUP1 DUP4 SUB DUP2 DUP6 DUP8 GAS CALL SWAP3 POP POP POP RETURNDATASIZE DUP1 PUSH0 DUP2 EQ PUSH2 0x2EDE JUMPI PUSH1 0x40 MLOAD SWAP2 POP PUSH1 0x1F NOT PUSH1 0x3F RETURNDATASIZE ADD AND DUP3 ADD PUSH1 0x40 MSTORE RETURNDATASIZE DUP3 MSTORE RETURNDATASIZE PUSH0 PUSH1 0x20 DUP5 ADD RETURNDATACOPY PUSH2 0x2EE3 JUMP JUMPDEST PUSH1 0x60 SWAP2 POP JUMPDEST POP POP SWAP1 POP DUP1 PUSH2 0x2F26 JUMPI PUSH1 0x40 MLOAD PUSH3 0x461BCD PUSH1 0xE5 SHL DUP2 MSTORE PUSH1 0x20 PUSH1 0x4 DUP3 ADD MSTORE PUSH1 0xF PUSH1 0x24 DUP3 ADD MSTORE PUSH15 0x151C985B9CD9995C8819985A5B1959 PUSH1 0x8A SHL PUSH1 0x44 DUP3 ADD MSTORE PUSH1 0x64 ADD PUSH2 0x2C1 JUMP JUMPDEST POP JUMPDEST PUSH1 0x40 MLOAD PUSH4 0x70A08231 PUSH1 0xE0 SHL DUP2 MSTORE ADDRESS PUSH1 0x4 DUP3 ADD MSTORE PUSH0 SWAP1 PUSH32 0x0 PUSH1 0x1 PUSH1 0x1 PUSH1 0xA0 SHL SUB AND SWAP1 PUSH4 0x70A08231 SWAP1 PUSH1 0x24 ADD PUSH1 0x20 PUSH1 0x40 MLOAD DUP1 DUP4 SUB DUP2 DUP7 GAS STATICCALL ISZERO DUP1 ISZERO PUSH2 0x2F8C JUMPI RETURNDATASIZE PUSH0 DUP1 RETURNDATACOPY RETURNDATASIZE PUSH0 REVERT JUMPDEST POP POP POP POP PUSH1 0x40 MLOAD RETURNDATASIZE PUSH1 0x1F NOT PUSH1 0x1F DUP3 ADD AND DUP3 ADD DUP1 PUSH1 0x40 MSTORE POP DUP2 ADD SWAP1 PUSH2 0x2FB0 SWAP2 SWAP1 PUSH2 0x39F0 JUMP JUMPDEST SWAP1 POP DUP1 ISZERO PUSH2 0x308B JUMPI PUSH1 0x40 MLOAD PUSH4 0xA9059CBB PUSH1 0xE0 SHL DUP2 MSTORE PUSH1 0x1 PUSH1 0x1 PUSH1 0xA0 SHL SUB DUP5 DUP2 AND PUSH1 0x4 DUP4 ADD MSTORE PUSH1 0x24 DUP3 ADD DUP4 SWAP1 MSTORE PUSH32 0x0 AND SWAP1 PUSH4 0xA9059CBB SWAP1 PUSH1 0x44 ADD PUSH1 0x20 PUSH1 0x40 MLOAD DUP1 DUP4 SUB DUP2 PUSH0 DUP8 GAS CALL ISZERO DUP1 ISZERO PUSH2 0x3024 JUMPI RETURNDATASIZE PUSH0 DUP1 RETURNDATACOPY RETURNDATASIZE PUSH0 REVERT JUMPDEST POP POP POP POP PUSH1 0x40 MLOAD RETURNDATASIZE PUSH1 0x1F NOT PUSH1 0x1F DUP3 ADD AND DUP3 ADD DUP1 PUSH1 0x40 MSTORE POP DUP2 ADD SWAP1 PUSH2 0x3048 SWAP2 SWAP1 PUSH2 0x3943 JUMP JUMPDEST PUSH2 0x308B JUMPI PUSH1 0x40 MLOAD PUSH3 0x461BCD PUSH1 0xE5 SHL DUP2 MSTORE PUSH1 0x20 PUSH1 0x4 DUP3 ADD MSTORE PUSH1 0x14 PUSH1 0x24 DUP3 ADD MSTORE PUSH20 0x1554D115081D1C985B9CD9995C8819985A5B1959 PUSH1 0x62 SHL PUSH1 0x44 DUP3 ADD MSTORE PUSH1 0x64 ADD PUSH2 0x2C1 JUMP JUMPDEST PUSH1 0x40 MLOAD PUSH4 0x70A08231 PUSH1 0xE0 SHL DUP2 MSTORE ADDRESS PUSH1 0x4 DUP3 ADD MSTORE PUSH0 SWAP1 PUSH32 0x0 PUSH1 0x1 PUSH1 0x1 PUSH1 0xA0 SHL SUB AND SWAP1 PUSH4 0x70A08231 SWAP1 PUSH1 0x24 ADD PUSH1 0x20 PUSH1 0x40 MLOAD DUP1 DUP4 SUB DUP2 DUP7 GAS STATICCALL ISZERO DUP1 ISZERO PUSH2 0x30EF JUMPI RETURNDATASIZE PUSH0 DUP1 RETURNDATACOPY RETURNDATASIZE PUSH0 REVERT JUMPDEST POP POP POP POP PUSH1 0x40 MLOAD RETURNDATASIZE PUSH1 0x1F NOT PUSH1 0x1F DUP3 ADD AND DUP3 ADD DUP1 PUSH1 0x40 MSTORE POP DUP2 ADD SWAP1 PUSH2 0x3113 SWAP2 SWAP1 PUSH2 0x39F0 JUMP JUMPDEST SWAP1 POP DUP1 ISZERO PUSH2 0x31EE JUMPI PUSH1 0x40 MLOAD PUSH4 0xA9059CBB PUSH1 0xE0 SHL DUP2 MSTORE PUSH1 0x1 PUSH1 0x1 PUSH1 0xA0 SHL SUB DUP6 DUP2 AND PUSH1 0x4 DUP4 ADD MSTORE PUSH1 0x24 DUP3 ADD DUP4 SWAP1 MSTORE PUSH32 0x0 AND SWAP1 PUSH4 0xA9059CBB SWAP1 PUSH1 0x44 ADD PUSH1 0x20 PUSH1 0x40 MLOAD DUP1 DUP4 SUB DUP2 PUSH0 DUP8 GAS CALL ISZERO DUP1 ISZERO PUSH2 0x3187 JUMPI RETURNDATASIZE PUSH0 DUP1 RETURNDATACOPY RETURNDATASIZE PUSH0 REVERT JUMPDEST POP POP POP POP PUSH1 0x40 MLOAD RETURNDATASIZE PUSH1 0x1F NOT PUSH1 0x1F DUP3 ADD AND DUP3 ADD DUP1 PUSH1 0x40 MSTORE POP DUP2 ADD SWAP1 PUSH2 0x31AB SWAP2 SWAP1 PUSH2 0x3943 JUMP JUMPDEST PUSH2 0x31EE JUMPI PUSH1 0x40 MLOAD PUSH3 0x461BCD PUSH1 0xE5 SHL DUP2 MSTORE PUSH1 0x20 PUSH1 0x4 DUP3 ADD MSTORE PUSH1 0x14 PUSH1 0x24 DUP3 ADD MSTORE PUSH20 0x1554D110C81D1C985B9CD9995C8819985A5B1959 PUSH1 0x62 SHL PUSH1 0x44 DUP3 ADD MSTORE PUSH1 0x64 ADD PUSH2 0x2C1 JUMP JUMPDEST POP POP POP POP JUMP JUMPDEST PUSH2 0x163A DUP2 PUSH2 0x3265 JUMP JUMPDEST PUSH1 0x2 SLOAD PUSH1 0xFF AND PUSH2 0xE4C JUMPI PUSH1 0x40 MLOAD PUSH4 0x8DFC202B PUSH1 0xE0 SHL DUP2 MSTORE PUSH1 0x4 ADD PUSH1 0x40 MLOAD DUP1 SWAP2 SUB SWAP1 REVERT JUMPDEST PUSH2 0x2208 DUP3 DUP3 PUSH1 0x40 MLOAD PUSH1 0x24 ADD PUSH2 0x3236 SWAP3 SWAP2 SWAP1 PUSH2 0x3A07 JUMP JUMPDEST PUSH1 0x40 DUP1 MLOAD PUSH1 0x1F NOT DUP2 DUP5 SUB ADD DUP2 MSTORE SWAP2 SWAP1 MSTORE PUSH1 0x20 DUP2 ADD DUP1 MLOAD PUSH1 0x1 PUSH1 0x1 PUSH1 0xE0 SHL SUB AND PUSH4 0x319AF333 PUSH1 0xE0 SHL OR SWAP1 MSTORE PUSH2 0x31F4 JUMP JUMPDEST PUSH0 PUSH11 0x636F6E736F6C652E6C6F67 SWAP1 POP PUSH0 DUP1 DUP4 MLOAD PUSH1 0x20 DUP6 ADD DUP5 GAS STATICCALL POP POP POP JUMP JUMPDEST DUP1 CALLDATALOAD PUSH1 0x3 DUP2 LT PUSH2 0x3292 JUMPI PUSH0 DUP1 REVERT JUMPDEST SWAP2 SWAP1 POP JUMP JUMPDEST PUSH0 DUP1 PUSH1 0x40 DUP4 DUP6 SUB SLT ISZERO PUSH2 0x32A8 JUMPI PUSH0 DUP1 REVERT JUMPDEST PUSH2 0x32B1 DUP4 PUSH2 0x3284 JUMP JUMPDEST SWAP5 PUSH1 0x20 SWAP4 SWAP1 SWAP4 ADD CALLDATALOAD SWAP4 POP POP POP JUMP JUMPDEST PUSH1 0x1 PUSH1 0x1 PUSH1 0xA0 SHL SUB DUP2 AND DUP2 EQ PUSH2 0x163A JUMPI PUSH0 DUP1 REVERT JUMPDEST PUSH0 DUP1 PUSH1 0x40 DUP4 DUP6 SUB SLT ISZERO PUSH2 0x32E4 JUMPI PUSH0 DUP1 REVERT JUMPDEST DUP3 CALLDATALOAD SWAP2 POP PUSH1 0x20 DUP4 ADD CALLDATALOAD PUSH2 0x32F6 DUP2 PUSH2 0x32BF JUMP JUMPDEST DUP1 SWAP2 POP POP SWAP3 POP SWAP3 SWAP1 POP JUMP JUMPDEST PUSH0 PUSH1 0x20 DUP3 DUP5 SUB SLT ISZERO PUSH2 0x3311 JUMPI PUSH0 DUP1 REVERT JUMPDEST PUSH2 0x331A DUP3 PUSH2 0x3284 JUMP JUMPDEST SWAP4 SWAP3 POP POP POP JUMP JUMPDEST DUP1 ISZERO ISZERO DUP2 EQ PUSH2 0x163A JUMPI PUSH0 DUP1 REVERT JUMPDEST DUP1 CALLDATALOAD PUSH2 0x3292 DUP2 PUSH2 0x3321 JUMP JUMPDEST PUSH0 DUP1 PUSH1 0x40 DUP4 DUP6 SUB SLT ISZERO PUSH2 0x334A JUMPI PUSH0 DUP1 REVERT JUMPDEST DUP3 CALLDATALOAD SWAP2 POP PUSH1 0x20 DUP4 ADD CALLDATALOAD PUSH2 0x32F6 DUP2 PUSH2 0x3321 JUMP JUMPDEST PUSH0 PUSH1 0x20 DUP3 DUP5 SUB SLT ISZERO PUSH2 0x336C JUMPI PUSH0 DUP1 REVERT JUMPDEST DUP2 CALLDATALOAD PUSH2 0x331A DUP2 PUSH2 0x32BF JUMP JUMPDEST PUSH0 PUSH1 0x20 DUP3 DUP5 SUB SLT ISZERO PUSH2 0x3387 JUMPI PUSH0 DUP1 REVERT JUMPDEST POP CALLDATALOAD SWAP2 SWAP1 POP JUMP JUMPDEST PUSH4 0x4E487B71 PUSH1 0xE0 SHL PUSH0 MSTORE PUSH1 0x41 PUSH1 0x4 MSTORE PUSH1 0x24 PUSH0 REVERT JUMPDEST PUSH0 DUP1 PUSH0 DUP1 PUSH0 DUP1 PUSH0 DUP1 PUSH0 PUSH2 0x120 DUP11 DUP13 SUB SLT ISZERO PUSH2 0x33BB JUMPI PUSH0 DUP1 REVERT JUMPDEST DUP10 CALLDATALOAD SWAP9 POP PUSH1 0x20 DUP11 ADD CALLDATALOAD SWAP8 POP PUSH1 0x40 DUP11 ADD CALLDATALOAD SWAP7 POP PUSH1 0x60 DUP11 ADD CALLDATALOAD SWAP6 POP PUSH1 0x80 DUP11 ADD CALLDATALOAD SWAP5 POP PUSH1 0xA0 DUP11 ADD CALLDATALOAD SWAP4 POP PUSH1 0xC0 DUP11 ADD CALLDATALOAD SWAP3 POP PUSH1 0xE0 DUP11 ADD CALLDATALOAD PUSH8 0xFFFFFFFFFFFFFFFF DUP2 GT ISZERO PUSH2 0x3402 JUMPI PUSH0 DUP1 REVERT JUMPDEST DUP11 ADD PUSH1 0x1F DUP2 ADD DUP13 SGT PUSH2 0x3412 JUMPI PUSH0 DUP1 REVERT JUMPDEST DUP1 CALLDATALOAD PUSH8 0xFFFFFFFFFFFFFFFF DUP2 GT ISZERO PUSH2 0x342C JUMPI PUSH2 0x342C PUSH2 0x338E JUMP JUMPDEST PUSH1 0x40 MLOAD PUSH1 0x1F DUP3 ADD PUSH1 0x1F NOT SWAP1 DUP2 AND PUSH1 0x3F ADD AND DUP2 ADD PUSH8 0xFFFFFFFFFFFFFFFF DUP2 GT DUP3 DUP3 LT OR ISZERO PUSH2 0x345B JUMPI PUSH2 0x345B PUSH2 0x338E JUMP JUMPDEST PUSH1 0x40 MSTORE DUP2 DUP2 MSTORE DUP3 DUP3 ADD PUSH1 0x20 ADD DUP15 LT ISZERO PUSH2 0x3472 JUMPI PUSH0 DUP1 REVERT JUMPDEST DUP2 PUSH1 0x20 DUP5 ADD PUSH1 0x20 DUP4 ADD CALLDATACOPY PUSH0 PUSH1 0x20 DUP4 DUP4 ADD ADD MSTORE DUP1 SWAP5 POP POP POP POP PUSH2 0x3497 PUSH2 0x100 DUP12 ADD PUSH2 0x332E JUMP JUMPDEST SWAP1 POP SWAP3 SWAP6 SWAP9 POP SWAP3 SWAP6 SWAP9 POP SWAP3 SWAP6 SWAP9 JUMP JUMPDEST PUSH0 DUP2 MLOAD DUP1 DUP5 MSTORE DUP1 PUSH1 0x20 DUP5 ADD PUSH1 0x20 DUP7 ADD MCOPY PUSH0 PUSH1 0x20 DUP3 DUP7 ADD ADD MSTORE PUSH1 0x20 PUSH1 0x1F NOT PUSH1 0x1F DUP4 ADD AND DUP6 ADD ADD SWAP2 POP POP SWAP3 SWAP2 POP POP JUMP JUMPDEST DUP14 DUP2 MSTORE DUP13 PUSH1 0x20 DUP3 ADD MSTORE DUP12 PUSH1 0x40 DUP3 ADD MSTORE DUP11 PUSH1 0x60 DUP3 ADD MSTORE DUP10 PUSH1 0x80 DUP3 ADD MSTORE DUP9 PUSH1 0xA0 DUP3 ADD MSTORE DUP8 PUSH1 0xC0 DUP3 ADD MSTORE DUP7 PUSH1 0xE0 DUP3 ADD MSTORE DUP6 PUSH2 0x100 DUP3 ADD MSTORE PUSH2 0x1A0 PUSH2 0x120 DUP3 ADD MSTORE PUSH0 PUSH2 0x3520 PUSH2 0x1A0 DUP4 ADD DUP8 PUSH2 0x34A6 JUMP JUMPDEST SWAP5 ISZERO ISZERO PUSH2 0x140 DUP4 ADD MSTORE POP SWAP2 ISZERO ISZERO PUSH2 0x160 DUP4 ADD MSTORE ISZERO ISZERO PUSH2 0x180 SWAP1 SWAP2 ADD MSTORE SWAP11 SWAP10 POP POP POP POP POP POP POP POP POP POP JUMP JUMPDEST PUSH4 0x4E487B71 PUSH1 0xE0 SHL PUSH0 MSTORE PUSH1 0x21 PUSH1 0x4 MSTORE PUSH1 0x24 PUSH0 REVERT JUMPDEST PUSH1 0x3 DUP2 LT PUSH2 0x357A JUMPI PUSH4 0x4E487B71 PUSH1 0xE0 SHL PUSH0 MSTORE PUSH1 0x21 PUSH1 0x4 MSTORE PUSH1 0x24 PUSH0 REVERT JUMPDEST SWAP1 MSTORE JUMP JUMPDEST PUSH1 0x20 DUP2 ADD PUSH2 0xA89 DUP3 DUP5 PUSH2 0x355E JUMP JUMPDEST PUSH0 DUP1 PUSH0 PUSH1 0x60 DUP5 DUP7 SUB SLT ISZERO PUSH2 0x359E JUMPI PUSH0 DUP1 REVERT JUMPDEST DUP4 CALLDATALOAD SWAP3 POP PUSH1 0x20 DUP5 ADD CALLDATALOAD PUSH2 0x35B0 DUP2 PUSH2 0x32BF JUMP JUMPDEST SWAP2 POP PUSH2 0x35BE PUSH1 0x40 DUP6 ADD PUSH2 0x3284 JUMP JUMPDEST SWAP1 POP SWAP3 POP SWAP3 POP SWAP3 JUMP JUMPDEST PUSH4 0x4E487B71 PUSH1 0xE0 SHL PUSH0 MSTORE PUSH1 0x11 PUSH1 0x4 MSTORE PUSH1 0x24 PUSH0 REVERT JUMPDEST DUP1 DUP3 MUL DUP2 ISZERO DUP3 DUP3 DIV DUP5 EQ OR PUSH2 0xA89 JUMPI PUSH2 0xA89 PUSH2 0x35C7 JUMP JUMPDEST DUP2 DUP2 SUB DUP2 DUP2 GT ISZERO PUSH2 0xA89 JUMPI PUSH2 0xA89 PUSH2 0x35C7 JUMP JUMPDEST PUSH1 0x1 DUP2 JUMPDEST PUSH1 0x1 DUP5 GT ISZERO PUSH2 0x3640 JUMPI DUP1 DUP6 DIV DUP2 GT ISZERO PUSH2 0x3624 JUMPI PUSH2 0x3624 PUSH2 0x35C7 JUMP JUMPDEST PUSH1 0x1 DUP5 AND ISZERO PUSH2 0x3632 JUMPI SWAP1 DUP2 MUL SWAP1 JUMPDEST PUSH1 0x1 SWAP4 SWAP1 SWAP4 SHR SWAP3 DUP1 MUL PUSH2 0x3609 JUMP JUMPDEST SWAP4 POP SWAP4 SWAP2 POP POP JUMP JUMPDEST PUSH0 DUP3 PUSH2 0x3656 JUMPI POP PUSH1 0x1 PUSH2 0xA89 JUMP JUMPDEST DUP2 PUSH2 0x3662 JUMPI POP PUSH0 PUSH2 0xA89 JUMP JUMPDEST DUP2 PUSH1 0x1 DUP2 EQ PUSH2 0x3678 JUMPI PUSH1 0x2 DUP2 EQ PUSH2 0x3682 JUMPI PUSH2 0x369E JUMP JUMPDEST PUSH1 0x1 SWAP2 POP POP PUSH2 0xA89 JUMP JUMPDEST PUSH1 0xFF DUP5 GT ISZERO PUSH2 0x3693 JUMPI PUSH2 0x3693 PUSH2 0x35C7 JUMP JUMPDEST POP POP PUSH1 0x1 DUP3 SHL PUSH2 0xA89 JUMP JUMPDEST POP PUSH1 0x20 DUP4 LT PUSH2 0x133 DUP4 LT AND PUSH1 0x4E DUP5 LT PUSH1 0xB DUP5 LT AND OR ISZERO PUSH2 0x36C1 JUMPI POP DUP2 DUP2 EXP PUSH2 0xA89 JUMP JUMPDEST PUSH2 0x36CD PUSH0 NOT DUP5 DUP5 PUSH2 0x3605 JUMP JUMPDEST DUP1 PUSH0 NOT DIV DUP3 GT ISZERO PUSH2 0x36E0 JUMPI PUSH2 0x36E0 PUSH2 0x35C7 JUMP JUMPDEST MUL SWAP4 SWAP3 POP POP POP JUMP JUMPDEST PUSH0 PUSH2 0x331A DUP4 DUP4 PUSH2 0x3648 JUMP JUMPDEST PUSH0 DUP3 PUSH2 0x370D JUMPI PUSH4 0x4E487B71 PUSH1 0xE0 SHL PUSH0 MSTORE PUSH1 0x12 PUSH1 0x4 MSTORE PUSH1 0x24 PUSH0 REVERT JUMPDEST POP DIV SWAP1 JUMP JUMPDEST PUSH0 PUSH1 0x1 DUP3 ADD PUSH2 0x3723 JUMPI PUSH2 0x3723 PUSH2 0x35C7 JUMP JUMPDEST POP PUSH1 0x1 ADD SWAP1 JUMP JUMPDEST PUSH1 0x20 DUP1 DUP3 MSTORE PUSH1 0xF SWAP1 DUP3 ADD MSTORE PUSH15 0x496E76616C69642061646472657373 PUSH1 0x88 SHL PUSH1 0x40 DUP3 ADD MSTORE PUSH1 0x60 ADD SWAP1 JUMP JUMPDEST PUSH1 0x20 DUP1 DUP3 MSTORE PUSH1 0x15 SWAP1 DUP3 ADD MSTORE PUSH21 0x1250D3C8185B1C9958591E48199A5B985B1A5E9959 PUSH1 0x5A SHL PUSH1 0x40 DUP3 ADD MSTORE PUSH1 0x60 ADD SWAP1 JUMP JUMPDEST DUP1 DUP3 ADD DUP1 DUP3 GT ISZERO PUSH2 0xA89 JUMPI PUSH2 0xA89 PUSH2 0x35C7 JUMP JUMPDEST PUSH1 0x1 DUP2 DUP2 SHR SWAP1 DUP3 AND DUP1 PUSH2 0x37A9 JUMPI PUSH1 0x7F DUP3 AND SWAP2 POP JUMPDEST PUSH1 0x20 DUP3 LT DUP2 SUB PUSH2 0x37C7 JUMPI PUSH4 0x4E487B71 PUSH1 0xE0 SHL PUSH0 MSTORE PUSH1 0x22 PUSH1 0x4 MSTORE PUSH1 0x24 PUSH0 REVERT JUMPDEST POP SWAP2 SWAP1 POP JUMP JUMPDEST PUSH1 0x1F DUP3 GT ISZERO PUSH2 0x3811 JUMPI DUP1 PUSH0 MSTORE PUSH1 0x20 PUSH0 KECCAK256 PUSH1 0x1F DUP5 ADD PUSH1 0x5 SHR DUP2 ADD PUSH1 0x20 DUP6 LT ISZERO PUSH2 0x37F2 JUMPI POP DUP1 JUMPDEST PUSH1 0x1F DUP5 ADD PUSH1 0x5 SHR DUP3 ADD SWAP2 POP JUMPDEST DUP2 DUP2 LT ISZERO PUSH2 0xEA3 JUMPI PUSH0 DUP2 SSTORE PUSH1 0x1 ADD PUSH2 0x37FE JUMP JUMPDEST POP POP POP JUMP JUMPDEST DUP2 MLOAD PUSH8 0xFFFFFFFFFFFFFFFF DUP2 GT ISZERO PUSH2 0x3830 JUMPI PUSH2 0x3830 PUSH2 0x338E JUMP JUMPDEST PUSH2 0x3844 DUP2 PUSH2 0x383E DUP5 SLOAD PUSH2 0x3795 JUMP JUMPDEST DUP5 PUSH2 0x37CD JUMP JUMPDEST PUSH1 0x20 PUSH1 0x1F DUP3 GT PUSH1 0x1 DUP2 EQ PUSH2 0x3876 JUMPI PUSH0 DUP4 ISZERO PUSH2 0x385F JUMPI POP DUP5 DUP3 ADD MLOAD JUMPDEST PUSH0 NOT PUSH1 0x3 DUP6 SWAP1 SHL SHR NOT AND PUSH1 0x1 DUP5 SWAP1 SHL OR DUP5 SSTORE PUSH2 0xEA3 JUMP JUMPDEST PUSH0 DUP5 DUP2 MSTORE PUSH1 0x20 DUP2 KECCAK256 PUSH1 0x1F NOT DUP6 AND SWAP2 JUMPDEST DUP3 DUP2 LT ISZERO PUSH2 0x38A5 JUMPI DUP8 DUP6 ADD MLOAD DUP3 SSTORE PUSH1 0x20 SWAP5 DUP6 ADD SWAP5 PUSH1 0x1 SWAP1 SWAP3 ADD SWAP2 ADD PUSH2 0x3885 JUMP JUMPDEST POP DUP5 DUP3 LT ISZERO PUSH2 0x38C2 JUMPI DUP7 DUP5 ADD MLOAD PUSH0 NOT PUSH1 0x3 DUP8 SWAP1 SHL PUSH1 0xF8 AND SHR NOT AND DUP2 SSTORE JUMPDEST POP POP POP POP PUSH1 0x1 SWAP1 DUP2 SHL ADD SWAP1 SSTORE POP JUMP JUMPDEST DUP9 DUP2 MSTORE DUP8 PUSH1 0x20 DUP3 ADD MSTORE DUP7 PUSH1 0x40 DUP3 ADD MSTORE DUP6 PUSH1 0x60 DUP3 ADD MSTORE DUP5 PUSH1 0x80 DUP3 ADD MSTORE PUSH2 0x100 PUSH1 0xA0 DUP3 ADD MSTORE PUSH0 PUSH2 0x3903 PUSH2 0x100 DUP4 ADD DUP7 PUSH2 0x34A6 JUMP JUMPDEST PUSH1 0xC0 DUP4 ADD SWAP5 SWAP1 SWAP5 MSTORE POP PUSH1 0xE0 ADD MSTORE SWAP7 SWAP6 POP POP POP POP POP POP JUMP JUMPDEST PUSH1 0x20 DUP1 DUP3 MSTORE PUSH1 0xF SWAP1 DUP3 ADD MSTORE PUSH15 0x125B9D985B1A59081CD85B19481251 PUSH1 0x8A SHL PUSH1 0x40 DUP3 ADD MSTORE PUSH1 0x60 ADD SWAP1 JUMP JUMPDEST PUSH0 PUSH1 0x20 DUP3 DUP5 SUB SLT ISZERO PUSH2 0x3953 JUMPI PUSH0 DUP1 REVERT JUMPDEST DUP2 MLOAD PUSH2 0x331A DUP2 PUSH2 0x3321 JUMP JUMPDEST DUP4 DUP2 MSTORE PUSH1 0x20 DUP2 ADD DUP4 SWAP1 MSTORE PUSH1 0x60 DUP2 ADD PUSH2 0x2908 PUSH1 0x40 DUP4 ADD DUP5 PUSH2 0x355E JUMP JUMPDEST PUSH1 0x1 PUSH1 0x1 PUSH1 0xA0 SHL SUB DUP8 AND DUP2 MSTORE PUSH1 0x20 DUP2 ADD DUP7 SWAP1 MSTORE PUSH1 0x40 DUP2 ADD DUP6 SWAP1 MSTORE PUSH1 0x60 DUP2 ADD DUP5 SWAP1 MSTORE PUSH1 0x80 DUP2 ADD DUP4 SWAP1 MSTORE PUSH1 0xC0 DUP2 ADD PUSH2 0x39B2 PUSH1 0xA0 DUP4 ADD DUP5 PUSH2 0x355E JUMP JUMPDEST SWAP8 SWAP7 POP POP POP POP POP POP POP JUMP JUMPDEST PUSH1 0x40 DUP2 MSTORE PUSH0 PUSH2 0x39CF PUSH1 0x40 DUP4 ADD DUP6 PUSH2 0x34A6 JUMP JUMPDEST SWAP1 POP DUP3 PUSH1 0x20 DUP4 ADD MSTORE SWAP4 SWAP3 POP POP POP JUMP JUMPDEST PUSH1 0x20 DUP2 MSTORE PUSH0 PUSH2 0x331A PUSH1 0x20 DUP4 ADD DUP5 PUSH2 0x34A6 JUMP JUMPDEST PUSH0 PUSH1 0x20 DUP3 DUP5 SUB SLT ISZERO PUSH2 0x3A00 JUMPI PUSH0 DUP1 REVERT JUMPDEST POP MLOAD SWAP2 SWAP1 POP JUMP JUMPDEST PUSH1 0x40 DUP2 MSTORE PUSH0 PUSH2 0x3A19 PUSH1 0x40 DUP4 ADD DUP6 PUSH2 0x34A6 JUMP JUMPDEST SWAP1 POP PUSH1 0x1 DUP1 PUSH1 0xA0 SHL SUB DUP4 AND PUSH1 0x20 DUP4 ADD MSTORE SWAP4 SWAP3 POP POP POP JUMP INVALID RETURNDATASIZE RETURNDATASIZE RETURNDATASIZE RETURNDATASIZE RETURNDATASIZE PUSH19 0x65737420696E2076657374696E6720636F6E74 PUSH19 0x6163743D3D3D3D3D3D3D3D3D3D3D3D3D3D6372 PUSH16 0x7373696E67206D617820707572636861 PUSH20 0x6520636865636B3D3D3D3D3D3D3D3D3D3D707265 PUSH4 0x6973696F PUSH15 0x5F6D756C5F3132287061796D656E74 COINBASE PUSH14 0x6F756E74293D3D3D3D3D3D3D3D3D RETURNDATASIZE PUSH19 0x72657175697265642063726F73736564207472 PUSH2 0x6E73 PUSH7 0x657220636F6D70 PUSH13 0x65746564A26469706673582212 KECCAK256 0xD0 0xCB PUSH28 0x409CE337DAD3775C459FE4377011F5828175E191B7EC44AE59916A12 OR PUSH5 0x736F6C6343 STOP ADDMOD BYTE STOP CALLER "
		},
		"gasEstimates": {
			"creation": {
				"codeDepositCost": "3021400",
				"executionCost": "infinite",
				"totalCost": "infinite"
			},
			"external": {
				"IdentityContract()": "2471",
				"_getPriceFeed(uint8)": "630",
				"blacklistUser(address)": "54592",
				"blacklistedUsers(address)": "2612",
				"buyTokens(uint8,uint256)": "infinite",
				"calculatePaymentAmount(uint8,uint256)": "infinite",
				"calculateTokenAmount(uint8,uint256)": "infinite",
				"claimRefund(uint256)": "infinite",
				"claimTokens(uint256)": "infinite",
				"contributionsInUSD(address)": "2566",
				"createSale(uint256,uint256,uint256,uint256,uint256,uint256,uint256,string,bool)": "infinite",
				"finalizeICO(address)": "infinite",
				"getCurrentSaleId()": "infinite",
				"getHardCapReached(uint256)": "6807",
				"getInvestorCount(uint256)": "infinite",
				"getSaleStartEndTime(uint256)": "infinite",
				"getSoftCapReached(uint256)": "6896",
				"investorPayments(uint256,address,uint8)": "2885",
				"isICOFinalized()": "2398",
				"maxMinNormalize(uint8,uint256)": "infinite",
				"normalizeUser(address)": "32499",
				"owner()": "2419",
				"pause()": "infinite",
				"paused()": "2348",
				"paymentMethodForInvestor(address)": "2730",
				"precision_div_10(uint256)": "469",
				"precision_div_18(uint256)": "470",
				"precision_mul_10(uint256)": "infinite",
				"precision_mul_12(uint256)": "infinite",
				"precision_mul_18(uint256)": "infinite",
				"renounceOwnership()": "infinite",
				"saleCount()": "2350",
				"sales(uint256)": "infinite",
				"setAllowImmediateFinalization(uint256,bool)": "74366",
				"token()": "2446",
				"tokensBoughtByInvestor(address)": "2654",
				"tokensBoughtByInvestorForSale(uint256,address)": "2671",
				"totalFundsRaisedUSD()": "2416",
				"totalTokensSold()": "2372",
				"transferOwnership(address)": "infinite",
				"unpause()": "infinite",
				"usdc()": "infinite",
				"usdt()": "infinite",
				"vestingContract()": "2403",
				"whitelistUser(address)": "54572",
				"whitelistedUsers(address)": "2610"
			},
			"internal": {
				"_transferFunds(address payable)": "infinite",
				"distributeTokens(address,uint256,uint256)": "infinite",
				"getLatestSaleEndTime()": "infinite",
				"isRestrictedSale(uint256,address)": "infinite",
				"processPayment(address,enum ICO.PaymentMethod,uint256,uint256)": "infinite",
				"updateInvestorData(address,uint256,uint256,uint256)": "infinite"
			}
		},
		"methodIdentifiers": {
			"IdentityContract()": "171600a3",
			"_getPriceFeed(uint8)": "115afc3a",
			"blacklistUser(address)": "fcbca456",
			"blacklistedUsers(address)": "22c0aec7",
			"buyTokens(uint8,uint256)": "940c333e",
			"calculatePaymentAmount(uint8,uint256)": "117d260f",
			"calculateTokenAmount(uint8,uint256)": "05834e67",
			"claimRefund(uint256)": "5b7baf64",
			"claimTokens(uint256)": "46e04a2f",
			"contributionsInUSD(address)": "c81ffdea",
			"createSale(uint256,uint256,uint256,uint256,uint256,uint256,uint256,string,bool)": "4de33882",
			"finalizeICO(address)": "a95836d1",
			"getCurrentSaleId()": "212ea247",
			"getHardCapReached(uint256)": "f3e76510",
			"getInvestorCount(uint256)": "da5467a5",
			"getSaleStartEndTime(uint256)": "c211e1f9",
			"getSoftCapReached(uint256)": "736b1906",
			"investorPayments(uint256,address,uint8)": "ff960c0e",
			"isICOFinalized()": "d1f3b23e",
			"maxMinNormalize(uint8,uint256)": "34dd8f5e",
			"normalizeUser(address)": "af979f7f",
			"owner()": "8da5cb5b",
			"pause()": "8456cb59",
			"paused()": "5c975abb",
			"paymentMethodForInvestor(address)": "df4e0593",
			"precision_div_10(uint256)": "b3fdafb9",
			"precision_div_18(uint256)": "9fa8adb8",
			"precision_mul_10(uint256)": "a1c4b5a2",
			"precision_mul_12(uint256)": "835722ad",
			"precision_mul_18(uint256)": "2593198d",
			"renounceOwnership()": "715018a6",
			"saleCount()": "a1e89aec",
			"sales(uint256)": "b5f522f7",
			"setAllowImmediateFinalization(uint256,bool)": "1b152ac5",
			"token()": "fc0c546a",
			"tokensBoughtByInvestor(address)": "e8e87389",
			"tokensBoughtByInvestorForSale(uint256,address)": "091c2c99",
			"totalFundsRaisedUSD()": "721bc38b",
			"totalTokensSold()": "63b20117",
			"transferOwnership(address)": "f2fde38b",
			"unpause()": "3f4ba83a",
			"usdc()": "3e413bee",
			"usdt()": "2f48ab7d",
			"vestingContract()": "5e6f6045",
			"whitelistUser(address)": "4a4c560d",
			"whitelistedUsers(address)": "f621cc48"
		}
	},
	"abi": [
		{
			"inputs": [
				{
					"internalType": "contract ERC20Token",
					"name": "_token",
					"type": "address"
				},
				{
					"internalType": "contract TokenVesting",
					"name": "_vestingContract",
					"type": "address"
				},
				{
					"internalType": "contract IDfactory",
					"name": "_identityContract",
					"type": "address"
				},
				{
					"internalType": "address",
					"name": "_usdt",
					"type": "address"
				},
				{
					"internalType": "address",
					"name": "_usdc",
					"type": "address"
				},
				{
					"internalType": "address",
					"name": "_priceFeedBNB",
					"type": "address"
				},
				{
					"internalType": "address",
					"name": "_priceFeedUSDT",
					"type": "address"
				},
				{
					"internalType": "address",
					"name": "_priceFeedUSDC",
					"type": "address"
				}
			],
			"stateMutability": "nonpayable",
			"type": "constructor"
		},
		{
			"inputs": [],
			"name": "EnforcedPause",
			"type": "error"
		},
		{
			"inputs": [],
			"name": "ExpectedPause",
			"type": "error"
		},
		{
			"inputs": [
				{
					"internalType": "address",
					"name": "owner",
					"type": "address"
				}
			],
			"name": "OwnableInvalidOwner",
			"type": "error"
		},
		{
			"inputs": [
				{
					"internalType": "address",
					"name": "account",
					"type": "address"
				}
			],
			"name": "OwnableUnauthorizedAccount",
			"type": "error"
		},
		{
			"inputs": [],
			"name": "ReentrancyGuardReentrantCall",
			"type": "error"
		},
		{
			"anonymous": false,
			"inputs": [
				{
					"indexed": true,
					"internalType": "address",
					"name": "account",
					"type": "address"
				}
			],
			"name": "Blacklisted",
			"type": "event"
		},
		{
			"anonymous": false,
			"inputs": [
				{
					"indexed": true,
					"internalType": "uint256",
					"name": "totalTokensSold",
					"type": "uint256"
				}
			],
			"name": "ICOFinalized",
			"type": "event"
		},
		{
			"anonymous": false,
			"inputs": [
				{
					"indexed": true,
					"internalType": "uint256",
					"name": "saleId",
					"type": "uint256"
				}
			],
			"name": "ImmediateFinalization",
			"type": "event"
		},
		{
			"anonymous": false,
			"inputs": [
				{
					"indexed": true,
					"internalType": "uint256",
					"name": "saleId",
					"type": "uint256"
				},
				{
					"indexed": false,
					"internalType": "uint256",
					"name": "startTime",
					"type": "uint256"
				},
				{
					"indexed": false,
					"internalType": "uint256",
					"name": "endTime",
					"type": "uint256"
				},
				{
					"indexed": false,
					"internalType": "uint256",
					"name": "softCap",
					"type": "uint256"
				},
				{
					"indexed": false,
					"internalType": "uint256",
					"name": "hardcap",
					"type": "uint256"
				},
				{
					"indexed": false,
					"internalType": "uint256",
					"name": "tokenPriceUSD",
					"type": "uint256"
				},
				{
					"indexed": false,
					"internalType": "string",
					"name": "saleName",
					"type": "string"
				},
				{
					"indexed": false,
					"internalType": "uint256",
					"name": "minPurchaseAmount",
					"type": "uint256"
				},
				{
					"indexed": false,
					"internalType": "uint256",
					"name": "maxPurchaseAmount",
					"type": "uint256"
				}
			],
			"name": "NewSaleCreated",
			"type": "event"
		},
		{
			"anonymous": false,
			"inputs": [
				{
					"indexed": true,
					"internalType": "address",
					"name": "account",
					"type": "address"
				}
			],
			"name": "Normalized",
			"type": "event"
		},
		{
			"anonymous": false,
			"inputs": [
				{
					"indexed": true,
					"internalType": "address",
					"name": "previousOwner",
					"type": "address"
				},
				{
					"indexed": true,
					"internalType": "address",
					"name": "newOwner",
					"type": "address"
				}
			],
			"name": "OwnershipTransferred",
			"type": "event"
		},
		{
			"anonymous": false,
			"inputs": [
				{
					"indexed": false,
					"internalType": "address",
					"name": "account",
					"type": "address"
				}
			],
			"name": "Paused",
			"type": "event"
		},
		{
			"anonymous": false,
			"inputs": [
				{
					"indexed": true,
					"internalType": "address",
					"name": "investor",
					"type": "address"
				},
				{
					"indexed": false,
					"internalType": "uint256",
					"name": "saleId",
					"type": "uint256"
				},
				{
					"indexed": false,
					"internalType": "uint256",
					"name": "amount",
					"type": "uint256"
				},
				{
					"indexed": false,
					"internalType": "enum ICO.PaymentMethod",
					"name": "paymentMethod",
					"type": "uint8"
				}
			],
			"name": "RefundClaimed",
			"type": "event"
		},
		{
			"anonymous": false,
			"inputs": [
				{
					"indexed": false,
					"internalType": "address",
					"name": "buyer",
					"type": "address"
				},
				{
					"indexed": false,
					"internalType": "uint256",
					"name": "saleId",
					"type": "uint256"
				},
				{
					"indexed": false,
					"internalType": "uint256",
					"name": "tokenPurchaseAmount",
					"type": "uint256"
				},
				{
					"indexed": false,
					"internalType": "uint256",
					"name": "tokenPriceUSD",
					"type": "uint256"
				},
				{
					"indexed": false,
					"internalType": "uint256",
					"name": "amountPaid",
					"type": "uint256"
				},
				{
					"indexed": false,
					"internalType": "enum ICO.PaymentMethod",
					"name": "paymentMethod",
					"type": "uint8"
				}
			],
			"name": "TokensPurchased",
			"type": "event"
		},
		{
			"anonymous": false,
			"inputs": [
				{
					"indexed": false,
					"internalType": "address",
					"name": "account",
					"type": "address"
				}
			],
			"name": "Unpaused",
			"type": "event"
		},
		{
			"anonymous": false,
			"inputs": [
				{
					"indexed": true,
					"internalType": "address",
					"name": "account",
					"type": "address"
				}
			],
			"name": "Whitelisted",
			"type": "event"
		},
		{
			"inputs": [],
			"name": "IdentityContract",
			"outputs": [
				{
					"internalType": "contract IDfactory",
					"name": "",
					"type": "address"
				}
			],
			"stateMutability": "view",
			"type": "function"
		},
		{
			"inputs": [
				{
					"internalType": "enum ICO.PaymentMethod",
					"name": "paymentMethod",
					"type": "uint8"
				}
			],
			"name": "_getPriceFeed",
			"outputs": [
				{
					"internalType": "int256",
					"name": "",
					"type": "int256"
				}
			],
			"stateMutability": "view",
			"type": "function"
		},
		{
			"inputs": [
				{
					"internalType": "address",
					"name": "_user",
					"type": "address"
				}
			],
			"name": "blacklistUser",
			"outputs": [],
			"stateMutability": "nonpayable",
			"type": "function"
		},
		{
			"inputs": [
				{
					"internalType": "address",
					"name": "",
					"type": "address"
				}
			],
			"name": "blacklistedUsers",
			"outputs": [
				{
					"internalType": "bool",
					"name": "",
					"type": "bool"
				}
			],
			"stateMutability": "view",
			"type": "function"
		},
		{
			"inputs": [
				{
					"internalType": "enum ICO.PaymentMethod",
					"name": "paymentMethod",
					"type": "uint8"
				},
				{
					"internalType": "uint256",
					"name": "paymentAmount",
					"type": "uint256"
				}
			],
			"name": "buyTokens",
			"outputs": [],
			"stateMutability": "payable",
			"type": "function"
		},
		{
			"inputs": [
				{
					"internalType": "enum ICO.PaymentMethod",
					"name": "paymentMethod",
					"type": "uint8"
				},
				{
					"internalType": "uint256",
					"name": "tokenAmount",
					"type": "uint256"
				}
			],
			"name": "calculatePaymentAmount",
			"outputs": [
				{
					"internalType": "uint256",
					"name": "",
					"type": "uint256"
				}
			],
			"stateMutability": "view",
			"type": "function"
		},
		{
			"inputs": [
				{
					"internalType": "enum ICO.PaymentMethod",
					"name": "paymentMethod",
					"type": "uint8"
				},
				{
					"internalType": "uint256",
					"name": "paymentAmount",
					"type": "uint256"
				}
			],
			"name": "calculateTokenAmount",
			"outputs": [
				{
					"internalType": "uint256",
					"name": "",
					"type": "uint256"
				}
			],
			"stateMutability": "view",
			"type": "function"
		},
		{
			"inputs": [
				{
					"internalType": "uint256",
					"name": "saleId",
					"type": "uint256"
				}
			],
			"name": "claimRefund",
			"outputs": [],
			"stateMutability": "nonpayable",
			"type": "function"
		},
		{
			"inputs": [
				{
					"internalType": "uint256",
					"name": "saleId",
					"type": "uint256"
				}
			],
			"name": "claimTokens",
			"outputs": [],
			"stateMutability": "nonpayable",
			"type": "function"
		},
		{
			"inputs": [
				{
					"internalType": "address",
					"name": "",
					"type": "address"
				}
			],
			"name": "contributionsInUSD",
			"outputs": [
				{
					"internalType": "uint256",
					"name": "",
					"type": "uint256"
				}
			],
			"stateMutability": "view",
			"type": "function"
		},
		{
			"inputs": [
				{
					"internalType": "uint256",
					"name": "_startTime",
					"type": "uint256"
				},
				{
					"internalType": "uint256",
					"name": "_endTime",
					"type": "uint256"
				},
				{
					"internalType": "uint256",
					"name": "_softCap",
					"type": "uint256"
				},
				{
					"internalType": "uint256",
					"name": "_hardCap",
					"type": "uint256"
				},
				{
					"internalType": "uint256",
					"name": "_tokenPriceUSD",
					"type": "uint256"
				},
				{
					"internalType": "uint256",
					"name": "_minPurchaseAmount",
					"type": "uint256"
				},
				{
					"internalType": "uint256",
					"name": "_maxPurchaseAmount",
					"type": "uint256"
				},
				{
					"internalType": "string",
					"name": "_saleName",
					"type": "string"
				},
				{
					"internalType": "bool",
					"name": "_isPrivate",
					"type": "bool"
				}
			],
			"name": "createSale",
			"outputs": [],
			"stateMutability": "nonpayable",
			"type": "function"
		},
		{
			"inputs": [
				{
					"internalType": "address payable",
					"name": "withdrawalAddress",
					"type": "address"
				}
			],
			"name": "finalizeICO",
			"outputs": [],
			"stateMutability": "nonpayable",
			"type": "function"
		},
		{
			"inputs": [],
			"name": "getCurrentSaleId",
			"outputs": [
				{
					"internalType": "uint256",
					"name": "",
					"type": "uint256"
				}
			],
			"stateMutability": "view",
			"type": "function"
		},
		{
			"inputs": [
				{
					"internalType": "uint256",
					"name": "saleId",
					"type": "uint256"
				}
			],
			"name": "getHardCapReached",
			"outputs": [
				{
					"internalType": "bool",
					"name": "",
					"type": "bool"
				}
			],
			"stateMutability": "view",
			"type": "function"
		},
		{
			"inputs": [
				{
					"internalType": "uint256",
					"name": "saleId",
					"type": "uint256"
				}
			],
			"name": "getInvestorCount",
			"outputs": [
				{
					"internalType": "uint256",
					"name": "saleInvestorCount",
					"type": "uint256"
				},
				{
					"internalType": "uint256",
					"name": "overallInvestorCount",
					"type": "uint256"
				}
			],
			"stateMutability": "view",
			"type": "function"
		},
		{
			"inputs": [
				{
					"internalType": "uint256",
					"name": "_saleId",
					"type": "uint256"
				}
			],
			"name": "getSaleStartEndTime",
			"outputs": [
				{
					"internalType": "uint256",
					"name": "_startTime",
					"type": "uint256"
				},
				{
					"internalType": "uint256",
					"name": "_endTime",
					"type": "uint256"
				}
			],
			"stateMutability": "view",
			"type": "function"
		},
		{
			"inputs": [
				{
					"internalType": "uint256",
					"name": "saleId",
					"type": "uint256"
				}
			],
			"name": "getSoftCapReached",
			"outputs": [
				{
					"internalType": "bool",
					"name": "",
					"type": "bool"
				}
			],
			"stateMutability": "view",
			"type": "function"
		},
		{
			"inputs": [
				{
					"internalType": "uint256",
					"name": "",
					"type": "uint256"
				},
				{
					"internalType": "address",
					"name": "",
					"type": "address"
				},
				{
					"internalType": "enum ICO.PaymentMethod",
					"name": "",
					"type": "uint8"
				}
			],
			"name": "investorPayments",
			"outputs": [
				{
					"internalType": "uint256",
					"name": "",
					"type": "uint256"
				}
			],
			"stateMutability": "view",
			"type": "function"
		},
		{
			"inputs": [],
			"name": "isICOFinalized",
			"outputs": [
				{
					"internalType": "bool",
					"name": "",
					"type": "bool"
				}
			],
			"stateMutability": "view",
			"type": "function"
		},
		{
			"inputs": [
				{
					"internalType": "enum ICO.PaymentMethod",
					"name": "paymentMethod",
					"type": "uint8"
				},
				{
					"internalType": "uint256",
					"name": "paymentAmount",
					"type": "uint256"
				}
			],
			"name": "maxMinNormalize",
			"outputs": [
				{
					"internalType": "uint256",
					"name": "",
					"type": "uint256"
				}
			],
			"stateMutability": "pure",
			"type": "function"
		},
		{
			"inputs": [
				{
					"internalType": "address",
					"name": "_user",
					"type": "address"
				}
			],
			"name": "normalizeUser",
			"outputs": [],
			"stateMutability": "nonpayable",
			"type": "function"
		},
		{
			"inputs": [],
			"name": "owner",
			"outputs": [
				{
					"internalType": "address",
					"name": "",
					"type": "address"
				}
			],
			"stateMutability": "view",
			"type": "function"
		},
		{
			"inputs": [],
			"name": "pause",
			"outputs": [],
			"stateMutability": "nonpayable",
			"type": "function"
		},
		{
			"inputs": [],
			"name": "paused",
			"outputs": [
				{
					"internalType": "bool",
					"name": "",
					"type": "bool"
				}
			],
			"stateMutability": "view",
			"type": "function"
		},
		{
			"inputs": [
				{
					"internalType": "address",
					"name": "",
					"type": "address"
				}
			],
			"name": "paymentMethodForInvestor",
			"outputs": [
				{
					"internalType": "enum ICO.PaymentMethod",
					"name": "",
					"type": "uint8"
				}
			],
			"stateMutability": "view",
			"type": "function"
		},
		{
			"inputs": [
				{
					"internalType": "uint256",
					"name": "val",
					"type": "uint256"
				}
			],
			"name": "precision_div_10",
			"outputs": [
				{
					"internalType": "uint256",
					"name": "",
					"type": "uint256"
				}
			],
			"stateMutability": "pure",
			"type": "function"
		},
		{
			"inputs": [
				{
					"internalType": "uint256",
					"name": "val",
					"type": "uint256"
				}
			],
			"name": "precision_div_18",
			"outputs": [
				{
					"internalType": "uint256",
					"name": "",
					"type": "uint256"
				}
			],
			"stateMutability": "pure",
			"type": "function"
		},
		{
			"inputs": [
				{
					"internalType": "uint256",
					"name": "val",
					"type": "uint256"
				}
			],
			"name": "precision_mul_10",
			"outputs": [
				{
					"internalType": "uint256",
					"name": "",
					"type": "uint256"
				}
			],
			"stateMutability": "pure",
			"type": "function"
		},
		{
			"inputs": [
				{
					"internalType": "uint256",
					"name": "val",
					"type": "uint256"
				}
			],
			"name": "precision_mul_12",
			"outputs": [
				{
					"internalType": "uint256",
					"name": "",
					"type": "uint256"
				}
			],
			"stateMutability": "pure",
			"type": "function"
		},
		{
			"inputs": [
				{
					"internalType": "uint256",
					"name": "val",
					"type": "uint256"
				}
			],
			"name": "precision_mul_18",
			"outputs": [
				{
					"internalType": "uint256",
					"name": "",
					"type": "uint256"
				}
			],
			"stateMutability": "pure",
			"type": "function"
		},
		{
			"inputs": [],
			"name": "renounceOwnership",
			"outputs": [],
			"stateMutability": "nonpayable",
			"type": "function"
		},
		{
			"inputs": [],
			"name": "saleCount",
			"outputs": [
				{
					"internalType": "uint256",
					"name": "",
					"type": "uint256"
				}
			],
			"stateMutability": "view",
			"type": "function"
		},
		{
			"inputs": [
				{
					"internalType": "uint256",
					"name": "",
					"type": "uint256"
				}
			],
			"name": "sales",
			"outputs": [
				{
					"internalType": "uint256",
					"name": "startTime",
					"type": "uint256"
				},
				{
					"internalType": "uint256",
					"name": "endTime",
					"type": "uint256"
				},
				{
					"internalType": "uint256",
					"name": "softCap",
					"type": "uint256"
				},
				{
					"internalType": "uint256",
					"name": "hardCap",
					"type": "uint256"
				},
				{
					"internalType": "uint256",
					"name": "tokenPrice",
					"type": "uint256"
				},
				{
					"internalType": "uint256",
					"name": "tokensSold",
					"type": "uint256"
				},
				{
					"internalType": "uint256",
					"name": "fundRaised",
					"type": "uint256"
				},
				{
					"internalType": "uint256",
					"name": "minPurchaseAmount",
					"type": "uint256"
				},
				{
					"internalType": "uint256",
					"name": "maxPurchaseAmount",
					"type": "uint256"
				},
				{
					"internalType": "string",
					"name": "name",
					"type": "string"
				},
				{
					"internalType": "bool",
					"name": "isPrivate",
					"type": "bool"
				},
				{
					"internalType": "bool",
					"name": "isFinalized",
					"type": "bool"
				},
				{
					"internalType": "bool",
					"name": "immediateFinalizeSale",
					"type": "bool"
				}
			],
			"stateMutability": "view",
			"type": "function"
		},
		{
			"inputs": [
				{
					"internalType": "uint256",
					"name": "saleId",
					"type": "uint256"
				},
				{
					"internalType": "bool",
					"name": "_allow",
					"type": "bool"
				}
			],
			"name": "setAllowImmediateFinalization",
			"outputs": [],
			"stateMutability": "nonpayable",
			"type": "function"
		},
		{
			"inputs": [],
			"name": "token",
			"outputs": [
				{
					"internalType": "contract ERC20Token",
					"name": "",
					"type": "address"
				}
			],
			"stateMutability": "view",
			"type": "function"
		},
		{
			"inputs": [
				{
					"internalType": "address",
					"name": "",
					"type": "address"
				}
			],
			"name": "tokensBoughtByInvestor",
			"outputs": [
				{
					"internalType": "uint256",
					"name": "",
					"type": "uint256"
				}
			],
			"stateMutability": "view",
			"type": "function"
		},
		{
			"inputs": [
				{
					"internalType": "uint256",
					"name": "",
					"type": "uint256"
				},
				{
					"internalType": "address",
					"name": "",
					"type": "address"
				}
			],
			"name": "tokensBoughtByInvestorForSale",
			"outputs": [
				{
					"internalType": "uint256",
					"name": "",
					"type": "uint256"
				}
			],
			"stateMutability": "view",
			"type": "function"
		},
		{
			"inputs": [],
			"name": "totalFundsRaisedUSD",
			"outputs": [
				{
					"internalType": "uint256",
					"name": "",
					"type": "uint256"
				}
			],
			"stateMutability": "view",
			"type": "function"
		},
		{
			"inputs": [],
			"name": "totalTokensSold",
			"outputs": [
				{
					"internalType": "uint256",
					"name": "",
					"type": "uint256"
				}
			],
			"stateMutability": "view",
			"type": "function"
		},
		{
			"inputs": [
				{
					"internalType": "address",
					"name": "newOwner",
					"type": "address"
				}
			],
			"name": "transferOwnership",
			"outputs": [],
			"stateMutability": "nonpayable",
			"type": "function"
		},
		{
			"inputs": [],
			"name": "unpause",
			"outputs": [],
			"stateMutability": "nonpayable",
			"type": "function"
		},
		{
			"inputs": [],
			"name": "usdc",
			"outputs": [
				{
					"internalType": "address",
					"name": "",
					"type": "address"
				}
			],
			"stateMutability": "view",
			"type": "function"
		},
		{
			"inputs": [],
			"name": "usdt",
			"outputs": [
				{
					"internalType": "address",
					"name": "",
					"type": "address"
				}
			],
			"stateMutability": "view",
			"type": "function"
		},
		{
			"inputs": [],
			"name": "vestingContract",
			"outputs": [
				{
					"internalType": "contract TokenVesting",
					"name": "",
					"type": "address"
				}
			],
			"stateMutability": "view",
			"type": "function"
		},
		{
			"inputs": [
				{
					"internalType": "address",
					"name": "_user",
					"type": "address"
				}
			],
			"name": "whitelistUser",
			"outputs": [],
			"stateMutability": "nonpayable",
			"type": "function"
		},
		{
			"inputs": [
				{
					"internalType": "address",
					"name": "",
					"type": "address"
				}
			],
			"name": "whitelistedUsers",
			"outputs": [
				{
					"internalType": "bool",
					"name": "",
					"type": "bool"
				}
			],
			"stateMutability": "view",
			"type": "function"
		},
		{
			"stateMutability": "payable",
			"type": "receive"
		}
	]
}