{
	"data": {
		"bytecode": {
			"linkReferences": {},
			"object": "60c0604052600b805460ff19169055348015610019575f80fd5b50604051613a9c380380613a9c8339810160408190526100389161015e565b338061005d57604051631e4fbdf760e01b81525f600482015260240160405180910390fd5b610066816100f8565b506001805560028054600580546001600160a01b03199081166001600160a01b039c8d16179091556007805482169a8c169a909a17909955600680548a16988b169890981790975594881660805292871660a0526001600160a81b0319909416610100918716919091021790915560038054841692851692909217909155600480549092169216919091179055610209565b5f80546001600160a01b038381166001600160a01b0319831681178455604051919092169283917f8be0079c531659141344cd1fd0a4f28419497f9722a3daafe3b4186f6b6457e09190a35050565b6001600160a01b038116811461015b575f80fd5b50565b5f805f805f805f80610100898b031215610176575f80fd5b885161018181610147565b60208a015190985061019281610147565b60408a01519097506101a381610147565b60608a01519096506101b481610147565b60808a01519095506101c581610147565b60a08a01519094506101d681610147565b60c08a01519093506101e781610147565b60e08a01519092506101f881610147565b809150509295985092959890939650565b60805160a05161383a6102625f395f818161049501528181611505015281816125d601528181612e620152612f0101525f81816104430152818161152b015281816125fc01528181612cff0152612d9e015261383a5ff3fe60806040526004361061026d575f3560e01c8063835722ad1161014a578063c211e1f9116100be578063f2fde38b11610078578063f2fde38b14610802578063f3e7651014610821578063f621cc4814610840578063fc0c546a1461086e578063fcbca4561461088d578063ff960c0e146108ac575f80fd5b8063c211e1f914610705578063c81ffdea14610739578063d1f3b23e14610764578063da5467a51461077d578063df4e05931461079c578063e8e87389146107d7575f80fd5b8063a1c4b5a21161010f578063a1c4b5a21461063c578063a1e89aec1461065b578063a95836d114610670578063af979f7f1461068f578063b3fdafb9146106ae578063b5f522f7146106cd575f80fd5b8063835722ad146105bb5780638456cb59146105da5780638da5cb5b146105ee578063940c333e1461060a5780639fa8adb81461061d575f80fd5b80633e413bee116101e15780635c975abb116101a65780635c975abb146105285780635e6f60451461053f57806363b201171461055e578063715018a614610573578063721bc38b14610587578063736b19061461059c575f80fd5b80633e413bee146104845780633f4ba83a146104b75780634a4c560d146104cb5780634de33882146104ea5780635b7baf6414610509575f80fd5b80631b152ac5116102325780631b152ac5146103a0578063212ea247146103c157806322c0aec7146103d55780632593198d146104135780632f48ab7d1461043257806334dd8f5e14610465575f80fd5b806305834e67146102c3578063091c2c99146102f5578063115afc3a1461032b578063117d260f1461034a578063171600a314610369575f80fd5b366102bf5760405162461bcd60e51b815260206004820181905260248201527f44697265637420424e42207472616e7366657273206e6f7420616c6c6f77656460448201526064015b60405180910390fd5b5f80fd5b3480156102ce575f80fd5b506102e26102dd366004613012565b6108e8565b6040519081526020015b60405180910390f35b348015610300575f80fd5b506102e261030f36600461304e565b601360209081525f928352604080842090915290825290205481565b348015610336575f80fd5b506102e261034536600461307c565b610a65565b348015610355575f80fd5b506102e2610364366004613012565b610bca565b348015610374575f80fd5b50600654610388906001600160a01b031681565b6040516001600160a01b0390911681526020016102ec565b3480156103ab575f80fd5b506103bf6103ba3660046130ad565b610d5f565b005b3480156103cc575f80fd5b506102e2610de0565b3480156103e0575f80fd5b506104036103ef3660046130d0565b600e6020525f908152604090205460ff1681565b60405190151581526020016102ec565b34801561041e575f80fd5b506102e261042d3660046130eb565b610e5f565b34801561043d575f80fd5b506103887f000000000000000000000000000000000000000000000000000000000000000081565b348015610470575f80fd5b506102e261047f366004613012565b610e72565b34801561048f575f80fd5b506103887f000000000000000000000000000000000000000000000000000000000000000081565b3480156104c2575f80fd5b506103bf610f0a565b3480156104d6575f80fd5b506103bf6104e53660046130d0565b610f1c565b3480156104f5575f80fd5b506103bf610504366004613116565b610fd5565b348015610514575f80fd5b506103bf6105233660046130eb565b61123f565b348015610533575f80fd5b5060025460ff16610403565b34801561054a575f80fd5b50600754610388906001600160a01b031681565b348015610569575f80fd5b506102e2600a5481565b34801561057e575f80fd5b506103bf61170c565b348015610592575f80fd5b506102e260095481565b3480156105a7575f80fd5b506104036105b63660046130eb565b61171d565b3480156105c6575f80fd5b506102e26105d53660046130eb565b611769565b3480156105e5575f80fd5b506103bf611779565b3480156105f9575f80fd5b505f546001600160a01b0316610388565b6103bf610618366004613012565b611789565b348015610628575f80fd5b506102e26106373660046130eb565b611ace565b348015610647575f80fd5b506102e26106563660046130eb565b611ae1565b348015610666575f80fd5b506102e260085481565b34801561067b575f80fd5b506103bf61068a3660046130d0565b611af1565b34801561069a575f80fd5b506103bf6106a93660046130d0565b611c64565b3480156106b9575f80fd5b506102e26106c83660046130eb565b611d4c565b3480156106d8575f80fd5b506106ec6106e73660046130eb565b611d5c565b6040516102ec9d9c9b9a99989796959493929190613248565b348015610710575f80fd5b5061072461071f3660046130eb565b611e4e565b604080519283526020830191909152016102ec565b348015610744575f80fd5b506102e26107533660046130d0565b600f6020525f908152604090205481565b34801561076f575f80fd5b50600b546104039060ff1681565b348015610788575f80fd5b506107246107973660046130eb565b611ffe565b3480156107a7575f80fd5b506107ca6107b63660046130d0565b60116020525f908152604090205460ff1681565b6040516102ec91906132f2565b3480156107e2575f80fd5b506102e26107f13660046130d0565b60106020525f908152604090205481565b34801561080d575f80fd5b506103bf61081c3660046130d0565b612089565b34801561082c575f80fd5b5061040361083b3660046130eb565b6120c3565b34801561084b575f80fd5b5061040361085a3660046130d0565b600d6020525f908152604090205460ff1681565b348015610879575f80fd5b50600554610388906001600160a01b031681565b348015610898575f80fd5b506103bf6108a73660046130d0565b61210f565b3480156108b7575f80fd5b506102e26108c6366004613300565b601260209081525f938452604080852082529284528284209052825290205481565b5f806108f661065685610a65565b9050805f0361093c5760405162461bcd60e51b8152602060048201526012602482015271125b9d985b1a59081c1c9a58d9481999595960721b60448201526064016102b6565b5f610945610de0565b5f818152600c60205260408120600481015492935091908088600281111561096f5761096f6132be565b0361098857610981610637888761334f565b9050610a41565b600288600281111561099c5761099c6132be565b14806109b9575060018860028111156109b7576109b76132be565b145b156109f95760065f6109cc826012613366565b6109d790600a61345c565b6109e1908a61334f565b90506109f0610637828961334f565b92505050610a41565b60405162461bcd60e51b815260206004820152601a60248201527f556e737570706f72746564207061796d656e74206d6574686f6400000000000060448201526064016102b6565b5f82610a4c83610e5f565b610a569190613467565b96505050505050505b92915050565b5f80826002811115610a7957610a796132be565b03610b00575f600260019054906101000a90046001600160a01b03166001600160a01b031663feaf968c6040518163ffffffff1660e01b815260040160a060405180830381865afa158015610ad0573d5f803e3d5ffd5b505050506040513d601f19601f82011682018060405250810190610af4919061349f565b50919695505050505050565b6001826002811115610b1457610b146132be565b03610b605760035460408051633fabe5a360e21b815290515f926001600160a01b03169163feaf968c9160048083019260a09291908290030181865afa158015610ad0573d5f803e3d5ffd5b6002826002811115610b7457610b746132be565b036109f9575f60045f9054906101000a90046001600160a01b03166001600160a01b031663feaf968c6040518163ffffffff1660e01b815260040160a060405180830381865afa158015610ad0573d5f803e3d5ffd5b5f815f03610c1a5760405162461bcd60e51b815260206004820152601760248201527f416d6f756e74206d75737420626520706f73697469766500000000000000000060448201526064016102b6565b5f610c2761065685610a65565b9050805f03610c6d5760405162461bcd60e51b8152602060048201526012602482015271125b9d985b1a59081c1c9a58d9481999595960721b60448201526064016102b6565b5f610c76610de0565b9050805f03610cb85760405162461bcd60e51b815260206004820152600e60248201526d4e6f206163746976652073616c6560901b60448201526064016102b6565b5f818152600c6020526040812060048101549091610cd9610637838961334f565b90505f80896002811115610cef57610cef6132be565b03610d0f5785610cfe83610e5f565b610d089190613467565b9050610d53565b6001896002811115610d2357610d236132be565b1480610d4057506002896002811115610d3e57610d3e6132be565b145b156109f95785610cfe83620f424061334f565b98975050505050505050565b610d676121c8565b5f828152600c60205260409020600b8101805462ff0000191662010000841515021790819055426001830155610100900460ff16610db157600b8101805461ff0019166101001790555b60405183907f7b1c1ad0f3e04c9ef02d69280925520638d1cf076c56c4aa5bb1d0d37a949a3d905f90a2505050565b5f60015b6008548111610e58575f818152600c60205260409020544210801590610e1a57505f818152600c60205260409020600101544211155b8015610e3c57505f818152600c60205260409020600b0154610100900460ff16155b15610e4657919050565b80610e50816134ed565b915050610de4565b505f905090565b5f610a5f82670de0b6b3a764000061334f565b5f80836002811115610e8657610e866132be565b03610e92575080610a5f565b6001836002811115610ea657610ea66132be565b1480610ec357506002836002811115610ec157610ec16132be565b145b15610f0257610ef26040518060600160405280602981526020016137dc60299139610eed84611769565b6121f4565b610efb82611769565b9050610a5f565b505f92915050565b610f126121c8565b610f1a61223d565b565b610f246121c8565b6001600160a01b038116610f4a5760405162461bcd60e51b81526004016102b690613505565b6001600160a01b0381165f908152600e602052604090205460ff1615610f8a576001600160a01b0381165f908152600e60205260409020805460ff191690555b6001600160a01b0381165f818152600d6020526040808220805460ff19166001179055517faab7954e9d246b167ef88aeddad35209ca2489d95a8aeb59e288d9b19fae5a549190a250565b610fdd6121c8565b600b5460ff16156110005760405162461bcd60e51b81526004016102b69061352e565b428911801561100e57508888115b8015611020575061101d61228f565b42115b61106c5760405162461bcd60e51b815260206004820152601860248201527f496e76616c69642073746172742074696d652072616e6765000000000000000060448201526064016102b6565b845f036110b15760405162461bcd60e51b815260206004820152601360248201527250726963652063616e2774206265207a65726f60681b60448201526064016102b6565b858711156111195760405162461bcd60e51b815260206004820152602f60248201527f536f667420636170206d757374206265206c657373207468616e206f7220657160448201526e075616c20746f20686172642063617608c1b60648201526084016102b6565b81515f036111695760405162461bcd60e51b815260206004820152601960248201527f53616c65206e616d652063616e6e6f7420626520656d7074790000000000000060448201526064016102b6565b60085461117790600161355d565b60088181555f918252600c602052604082208b8155600181018b9055600281018a90556003810189905560048101889055600581018390556006810192909255600782018690558101849055600a81016111d184826135f4565b50600b8101805462ffffff191683151562ffff0019161790556008546040517f3371fdb73278ba465dc47cadcaff52b8f98c7478f86f10d680bce08f9a0cb1c29061122b908d908d908d908d908d908b908e908e906136af565b60405180910390a250505050505050505050565b6112476122e6565b61124f612310565b801580159061126057506008548111155b61127c5760405162461bcd60e51b81526004016102b6906136f8565b5f818152600c6020526040902060018101544211806112a55750600b81015462010000900460ff165b6112e05760405162461bcd60e51b815260206004820152600c60248201526b53616c65206f6e676f696e6760a01b60448201526064016102b6565b8060020154816006015411156113385760405162461bcd60e51b815260206004820152601e60248201527f536f667420636170207265616368656420666f7220746869732073616c65000060448201526064016102b6565b5f805b60038160ff1610156116ae575f8160ff16600281111561135d5761135d6132be565b5f8681526012602090815260408083203384529091528120919250908183600281111561138c5761138c6132be565b600281111561139d5761139d6132be565b81526020019081526020015f20549050805f146116a4575f8681526012602090815260408083203384529091528120818460028111156113df576113df6132be565b60028111156113f0576113f06132be565b815260208101919091526040015f205561140a818561355d565b93505f82600281111561141f5761141f6132be565b036114b3576040515f90339083908381818185875af1925050503d805f8114611463576040519150601f19603f3d011682016040523d82523d5f602084013e611468565b606091505b50509050806114ad5760405162461bcd60e51b8152602060048201526011602482015270109390881c99599d5b990819985a5b1959607a1b60448201526064016102b6565b5061165e565b60018260028111156114c7576114c76132be565b14806114e4575060028260028111156114e2576114e26132be565b145b15611608575f60018360028111156114fe576114fe6132be565b14611529577f000000000000000000000000000000000000000000000000000000000000000061154b565b7f00000000000000000000000000000000000000000000000000000000000000005b60405163a9059cbb60e01b8152336004820152602481018490529091506001600160a01b0382169063a9059cbb906044016020604051808303815f875af1158015611598573d5f803e3d5ffd5b505050506040513d601f19601f820116820180604052508101906115bc9190613721565b6114ad5760405162461bcd60e51b815260206004820152601860248201527f537461626c65636f696e20726566756e64206661696c6564000000000000000060448201526064016102b6565b60405162461bcd60e51b815260206004820152602560248201527f556e737570706f72746564207061796d656e74206d6574686f6420666f72207260448201526419599d5b9960da1b60648201526084016102b6565b336001600160a01b03167f2f7dd91b1411487b2be64464150a4d8637d501759748b8e0bc5b64de2d1bc1fd87838560405161169b9392919061373c565b60405180910390a25b505060010161133b565b50805f036116fe5760405162461bcd60e51b815260206004820181905260248201527f4e6f2066756e647320746f20726566756e6420666f7220746869732073616c6560448201526064016102b6565b505061170960018055565b50565b6117146121c8565b610f1a5f612334565b5f811580159061172f57506008548211155b61174b5760405162461bcd60e51b81526004016102b6906136f8565b505f908152600c602052604090206002810154600690910154101590565b5f610a5f8264e8d4a5100061334f565b6117816121c8565b610f1a612383565b611791612310565b600b5460ff16156117b45760405162461bcd60e51b81526004016102b69061352e565b335f908152600e602052604090205460ff16156118015760405162461bcd60e51b815260206004820152600b60248201526a109b1858dadb1a5cdd195960aa1b60448201526064016102b6565b5f546001600160a01b0316330361184d5760405162461bcd60e51b815260206004820152601060248201526f13dddb995c881c995cdd1c9a58dd195960821b60448201526064016102b6565b5f611856610de0565b9050805f036118985760405162461bcd60e51b815260206004820152600e60248201526d4e6f206163746976652073616c6560901b60448201526064016102b6565b5f818152600c60205260409020600b810154610100900460ff16156118f05760405162461bcd60e51b815260206004820152600e60248201526d14d85b1948199a5b985b1a5e995960921b60448201526064016102b6565b6118fa82336123c0565b505f6119068585610e72565b5f848152601360209081526040808320338452909152902054611929919061355d565b905061196a6040518060400160405280601b81526020017f3d3d3d3d3d3d3d3d3d3d75736572546f74616c50757263686173650000000000815250826121f4565b5f61197686868661249c565b9050805f036119be5760405162461bcd60e51b8152602060048201526014602482015273125b9d985b1a59081d1bdad95b88185b5bdd5b9d60621b60448201526064016102b6565b5f6119d2846004015483610637919061334f565b9050611a136040518060400160405280601881526020017f3d3d3d3d3d3d3d3d3d3d746f74616c436f7374496e5553440000000000000000815250826121f4565b8360030154818560060154611a28919061355d565b1115611a695760405162461bcd60e51b815260206004820152601060248201526f12185c990818d85c081c995858da195960821b60448201526064016102b6565b611a753386848461279a565b611a803386846128ee565b7fdbcef474a632721725d49e3f35d9defe0257100b01d1e4b4b135b14d6fe296e83386848760040154348c604051611abd9695949392919061375f565b60405180910390a150505050505050565b5f610a5f670de0b6b3a764000083613467565b5f610a5f826402540be40061334f565b611af96122e6565b611b016121c8565b611b09612310565b600b5460ff1615611b2c5760405162461bcd60e51b81526004016102b69061352e565b6008546001908190815b818111611bc9575f818152600c60205260409020600381015460068201541015611b5e575f94505b80600201548160060154101580611b785750806001015442115b15611b81575f93505b80600101544210158015611b9f5750600b810154610100900460ff16155b15611bb657600b8101805461ff0019166101001790555b5080611bc1816134ed565b915050611b36565b508280611bd35750815b15611c1e57600b805460ff19166001179055611bee84612c28565b600a546040517f9c4b134da32aab35252391880a9f2a3c13a760d7817ae8823f2b301d3522045a905f90a2611c58565b60405162461bcd60e51b815260206004820152600f60248201526e43616e6e6f742066696e616c697a6560881b60448201526064016102b6565b50505061170960018055565b611c6c6121c8565b6001600160a01b038116611c925760405162461bcd60e51b81526004016102b690613505565b6001600160a01b0381165f908152600d602052604090205460ff1615611cd6576001600160a01b0381165f908152600d60205260409020805460ff19169055611d16565b6001600160a01b0381165f908152600e602052604090205460ff1615611d16576001600160a01b0381165f908152600e60205260409020805460ff191690555b6040516001600160a01b038216907fd5326ec3722c1b91194a873ebd0875236e62c0932b88afa648564955fd47db11905f90a250565b5f610a5f6402540be40083613467565b600c602052805f5260405f205f91509050805f01549080600101549080600201549080600301549080600401549080600501549080600601549080600701549080600801549080600a018054611db190613570565b80601f0160208091040260200160405190810160405280929190818152602001828054611ddd90613570565b8015611e285780601f10611dff57610100808354040283529160200191611e28565b820191905f5260205f20905b815481529060010190602001808311611e0b57829003601f168201915b505050600b909301549192505060ff80821691610100810482169162010000909104168d565b5f805f600c5f8581526020019081526020015f20604051806101c00160405290815f8201548152602001600182015481526020016002820154815260200160038201548152602001600482015481526020016005820154815260200160068201548152602001600782015481526020016008820154815260200160098201805480602002602001604051908101604052809291908181526020018280548015611f1e57602002820191905f5260205f20905b81546001600160a01b03168152600190910190602001808311611f00575b50505050508152602001600a82018054611f3790613570565b80601f0160208091040260200160405190810160405280929190818152602001828054611f6390613570565b8015611fae5780601f10611f8557610100808354040283529160200191611fae565b820191905f5260205f20905b815481529060010190602001808311611f9157829003601f168201915b5050509183525050600b919091015460ff80821615156020808501919091526101008304821615156040850152620100009092041615156060909201919091528151910151909590945092505050565b5f80821580159061201157506008548311155b61202d5760405162461bcd60e51b81526004016102b6906136f8565b50505f818152600c6020526040812060098101546008549092919060015b818111612081575f818152600c602052604090206009015461206d908561355d565b935080612079816134ed565b91505061204b565b505050915091565b6120916121c8565b6001600160a01b0381166120ba57604051631e4fbdf760e01b81525f60048201526024016102b6565b61170981612334565b5f81158015906120d557506008548211155b6120f15760405162461bcd60e51b81526004016102b6906136f8565b505f908152600c602052604090206003810154600690910154101590565b6121176121c8565b6001600160a01b03811661213d5760405162461bcd60e51b81526004016102b690613505565b6001600160a01b0381165f908152600d602052604090205460ff161561217d576001600160a01b0381165f908152600d60205260409020805460ff191690555b6001600160a01b0381165f818152600e6020526040808220805460ff19166001179055517fffa4e6181777692565cf28528fc88fd1516ea86b56da075235fa575af6a4b8559190a250565b5f546001600160a01b03163314610f1a5760405163118cdaa760e01b81523360048201526024016102b6565b612239828260405160240161220a9291906137a3565b60408051601f198184030181529190526020810180516001600160e01b0316632d839cb360e21b179052612fb4565b5050565b612245612fbd565b6002805460ff191690557f5db9ee0a495bf2e6ff9c91a7834c1ba4fdd244a5e8aa4e537bd38aeae4b073aa335b6040516001600160a01b03909116815260200160405180910390a1565b6008545f90819060015b8181116122de575f818152600c60205260409020600101548310156122cc575f818152600c602052604090206001015492505b806122d6816134ed565b915050612299565b509092915050565b60026001540361230957604051633ee5aeb560e01b815260040160405180910390fd5b6002600155565b60025460ff1615610f1a5760405163d93c066560e01b815260040160405180910390fd5b5f80546001600160a01b038381166001600160a01b0319831681178455604051919092169283917f8be0079c531659141344cd1fd0a4f28419497f9722a3daafe3b4186f6b6457e09190a35050565b61238b612310565b6002805460ff191660011790557f62e78cea01bee320cd4e420270b5ea74000d11b0c9f74754ebdbfc544b05a2586122723390565b5f82158015906123d257506008548311155b6123ee5760405162461bcd60e51b81526004016102b6906136f8565b5f838152600c60205260409020600b81015460ff1661247b5760065460405163237f1a2160e01b81526001600160a01b0385811660048301529091169063237f1a2190602401602060405180830381865afa15801561244f573d5f803e3d5ffd5b505050506040513d601f19601f820116820180604052508101906124739190613721565b915050610a5f565b50506001600160a01b03165f908152600d602052604090205460ff16919050565b5f808460028111156124b0576124b06132be565b0361254057345f036124f25760405162461bcd60e51b815260206004820152600b60248201526a24b73b30b634b21021272160a91b60448201526064016102b6565b5f6124fd85346108e8565b5f848152601260209081526040808320338452825280832083805290915281208054929350349290919061253290849061355d565b909155509091506127939050565b6001846002811115612554576125546132be565b14806125715750600284600281111561256f5761256f6132be565b145b1561275557825f036125ba5760405162461bcd60e51b815260206004820152601260248201527124b73b30b634b21039ba30b13632b1b7b4b760711b60448201526064016102b6565b5f60018560028111156125cf576125cf6132be565b146125fa577f000000000000000000000000000000000000000000000000000000000000000061261c565b7f00000000000000000000000000000000000000000000000000000000000000005b6040516323b872dd60e01b8152336004820152306024820152604481018690529091506001600160a01b038216906323b872dd906064016020604051808303815f875af115801561266f573d5f803e3d5ffd5b505050506040513d601f19601f820116820180604052508101906126939190613721565b6126df5760405162461bcd60e51b815260206004820152601a60248201527f537461626c65636f696e207472616e73666572206661696c656400000000000060448201526064016102b6565b5f6126ea86866108e8565b5f858152601260209081526040808320338452909152812091925086919088600281111561271a5761271a6132be565b600281111561272b5761272b6132be565b81526020019081526020015f205f828254612746919061355d565b90915550909250612793915050565b60405162461bcd60e51b8152602060048201526013602482015272155b9cdd5c1c1bdc9d1959081c185e5b595b9d606a1b60448201526064016102b6565b9392505050565b5f838152600c602090815260408083206001600160a01b0388168452600f90925282208054919284926127ce90849061355d565b9250508190555081816006015f8282546127e8919061355d565b925050819055508160095f828254612800919061355d565b9250508190555082816005015f82825461281a919061355d565b9250508190555082600a5f828254612832919061355d565b90915550505f8481526013602090815260408083206001600160a01b03891684529091528120805485929061286890849061355d565b90915550506001600160a01b0385165f9081526010602052604081205490036128bb576009810180546001810182555f91825260209091200180546001600160a01b0319166001600160a01b0387161790555b6001600160a01b0385165f90815260106020526040812080548592906128e290849061355d565b90915550505050505050565b5f60646128fc83600a61334f565b6129069190613467565b90506129476040518060400160405280601781526020017f3d3d3d3d3d696e697469616c52656c656173653d3d3d3d000000000000000000815250826121f4565b5f6129528284613366565b905061298b604051806040016040528060158152602001743d3d3d3d3d6c6f636b6564546f6b656e733d3d3d3d60581b815250826121f4565b6005546001600160a01b031663f326f0d7866129aa4262f099c061355d565b6040516001600160e01b031960e085901b1681526001600160a01b0390921660048301526024820152604481018590526064015f604051808303815f87803b1580156129f4575f80fd5b505af1158015612a06573d5f803e3d5ffd5b505060055460405163a9059cbb60e01b81526001600160a01b03898116600483015260248201879052909116925063a9059cbb91506044016020604051808303815f875af1158015612a5a573d5f803e3d5ffd5b505050506040513d601f19601f82011682018060405250810190612a7e9190613721565b612aca5760405162461bcd60e51b815260206004820152601760248201527f496e697469616c207472616e73666572206661696c656400000000000000000060448201526064016102b6565b60055460075460405163a9059cbb60e01b81526001600160a01b0391821660048201526024810184905291169063a9059cbb906044016020604051808303815f875af1158015612b1c573d5f803e3d5ffd5b505050506040513d601f19601f82011682018060405250810190612b409190613721565b612b8c5760405162461bcd60e51b815260206004820152601760248201527f56657374696e67207472616e73666572206661696c656400000000000000000060448201526064016102b6565b600754604051630dd0123f60e21b81526001600160a01b038781166004830152602482018790526044820186905260648201859052608482018490524260a483015261012c60c4830181905261070860e48401526101048301529091169063374048fc90610124015f604051808303815f87803b158015612c0b575f80fd5b505af1158015612c1d573d5f803e3d5ffd5b505050505050505050565b6001600160a01b038116612c4e5760405162461bcd60e51b81526004016102b690613505565b478015612ce8575f826001600160a01b0316826040515f6040518083038185875af1925050503d805f8114612c9e576040519150601f19603f3d011682016040523d82523d5f602084013e612ca3565b606091505b5050905080612ce65760405162461bcd60e51b815260206004820152600f60248201526e151c985b9cd9995c8819985a5b1959608a1b60448201526064016102b6565b505b6040516370a0823160e01b81523060048201525f907f00000000000000000000000000000000000000000000000000000000000000006001600160a01b0316906370a0823190602401602060405180830381865afa158015612d4c573d5f803e3d5ffd5b505050506040513d601f19601f82011682018060405250810190612d7091906137c4565b90508015612e4b5760405163a9059cbb60e01b81526001600160a01b038481166004830152602482018390527f0000000000000000000000000000000000000000000000000000000000000000169063a9059cbb906044016020604051808303815f875af1158015612de4573d5f803e3d5ffd5b505050506040513d601f19601f82011682018060405250810190612e089190613721565b612e4b5760405162461bcd60e51b81526020600482015260146024820152731554d115081d1c985b9cd9995c8819985a5b195960621b60448201526064016102b6565b6040516370a0823160e01b81523060048201525f907f00000000000000000000000000000000000000000000000000000000000000006001600160a01b0316906370a0823190602401602060405180830381865afa158015612eaf573d5f803e3d5ffd5b505050506040513d601f19601f82011682018060405250810190612ed391906137c4565b90508015612fae5760405163a9059cbb60e01b81526001600160a01b038581166004830152602482018390527f0000000000000000000000000000000000000000000000000000000000000000169063a9059cbb906044016020604051808303815f875af1158015612f47573d5f803e3d5ffd5b505050506040513d601f19601f82011682018060405250810190612f6b9190613721565b612fae5760405162461bcd60e51b81526020600482015260146024820152731554d110c81d1c985b9cd9995c8819985a5b195960621b60448201526064016102b6565b50505050565b61170981612fe0565b60025460ff16610f1a57604051638dfc202b60e01b815260040160405180910390fd5b5f6a636f6e736f6c652e6c6f6790505f80835160208501845afa505050565b80356003811061300d575f80fd5b919050565b5f8060408385031215613023575f80fd5b61302c83612fff565b946020939093013593505050565b6001600160a01b0381168114611709575f80fd5b5f806040838503121561305f575f80fd5b8235915060208301356130718161303a565b809150509250929050565b5f6020828403121561308c575f80fd5b61279382612fff565b8015158114611709575f80fd5b803561300d81613095565b5f80604083850312156130be575f80fd5b82359150602083013561307181613095565b5f602082840312156130e0575f80fd5b81356127938161303a565b5f602082840312156130fb575f80fd5b5035919050565b634e487b7160e01b5f52604160045260245ffd5b5f805f805f805f805f6101208a8c03121561312f575f80fd5b8935985060208a0135975060408a0135965060608a0135955060808a0135945060a08a0135935060c08a0135925060e08a013567ffffffffffffffff811115613176575f80fd5b8a01601f81018c13613186575f80fd5b803567ffffffffffffffff8111156131a0576131a0613102565b604051601f8201601f19908116603f0116810167ffffffffffffffff811182821017156131cf576131cf613102565b6040528181528282016020018e10156131e6575f80fd5b816020840160208301375f6020838301015280945050505061320b6101008b016130a2565b90509295985092959850929598565b5f81518084528060208401602086015e5f602082860101526020601f19601f83011685010191505092915050565b8d81528c60208201528b60408201528a60608201528960808201528860a08201528760c08201528660e0820152856101008201526101a06101208201525f6132946101a083018761321a565b941515610140830152509115156101608301521515610180909101529a9950505050505050505050565b634e487b7160e01b5f52602160045260245ffd5b600381106132ee57634e487b7160e01b5f52602160045260245ffd5b9052565b60208101610a5f82846132d2565b5f805f60608486031215613312575f80fd5b8335925060208401356133248161303a565b915061333260408501612fff565b90509250925092565b634e487b7160e01b5f52601160045260245ffd5b8082028115828204841417610a5f57610a5f61333b565b81810381811115610a5f57610a5f61333b565b6001815b60018411156133b4578085048111156133985761339861333b565b60018416156133a657908102905b60019390931c92800261337d565b935093915050565b5f826133ca57506001610a5f565b816133d657505f610a5f565b81600181146133ec57600281146133f657613412565b6001915050610a5f565b60ff8411156134075761340761333b565b50506001821b610a5f565b5060208310610133831016604e8410600b8410161715613435575081810a610a5f565b6134415f198484613379565b805f19048211156134545761345461333b565b029392505050565b5f61279383836133bc565b5f8261348157634e487b7160e01b5f52601260045260245ffd5b500490565b805169ffffffffffffffffffff8116811461300d575f80fd5b5f805f805f60a086880312156134b3575f80fd5b6134bc86613486565b602087015160408801516060890151929750909550935091506134e160808701613486565b90509295509295909350565b5f600182016134fe576134fe61333b565b5060010190565b6020808252600f908201526e496e76616c6964206164647265737360881b604082015260600190565b6020808252601590820152741250d3c8185b1c9958591e48199a5b985b1a5e9959605a1b604082015260600190565b80820180821115610a5f57610a5f61333b565b600181811c9082168061358457607f821691505b6020821081036135a257634e487b7160e01b5f52602260045260245ffd5b50919050565b601f8211156135ef57805f5260205f20601f840160051c810160208510156135cd5750805b601f840160051c820191505b818110156135ec575f81556001016135d9565b50505b505050565b815167ffffffffffffffff81111561360e5761360e613102565b6136228161361c8454613570565b846135a8565b6020601f821160018114613654575f831561363d5750848201515b5f19600385901b1c1916600184901b1784556135ec565b5f84815260208120601f198516915b828110156136835787850151825560209485019460019092019101613663565b50848210156136a057868401515f19600387901b60f8161c191681555b50505050600190811b01905550565b88815287602082015286604082015285606082015284608082015261010060a08201525f6136e161010083018661321a565b60c08301949094525060e001529695505050505050565b6020808252600f908201526e125b9d985b1a59081cd85b19481251608a1b604082015260600190565b5f60208284031215613731575f80fd5b815161279381613095565b838152602081018390526060810161375760408301846132d2565b949350505050565b6001600160a01b03871681526020810186905260408101859052606081018490526080810183905260c0810161379860a08301846132d2565b979650505050505050565b604081525f6137b5604083018561321a565b90508260208301529392505050565b5f602082840312156137d4575f80fd5b505191905056fe3d3d3d3d3d3d3d3d3d3d707265636973696f6e5f6d756c5f3132287061796d656e74416d6f756e7429a26469706673582212206836418d49f4aa2297795f1c2b6484e5de4c77ecc192c8108110d15edb810d8d64736f6c634300081a0033",
			"opcodes": "PUSH1 0xC0 PUSH1 0x40 MSTORE PUSH1 0xB DUP1 SLOAD PUSH1 0xFF NOT AND SWAP1 SSTORE CALLVALUE DUP1 ISZERO PUSH2 0x19 JUMPI PUSH0 DUP1 REVERT JUMPDEST POP PUSH1 0x40 MLOAD PUSH2 0x3A9C CODESIZE SUB DUP1 PUSH2 0x3A9C DUP4 CODECOPY DUP2 ADD PUSH1 0x40 DUP2 SWAP1 MSTORE PUSH2 0x38 SWAP2 PUSH2 0x15E JUMP JUMPDEST CALLER DUP1 PUSH2 0x5D JUMPI PUSH1 0x40 MLOAD PUSH4 0x1E4FBDF7 PUSH1 0xE0 SHL DUP2 MSTORE PUSH0 PUSH1 0x4 DUP3 ADD MSTORE PUSH1 0x24 ADD PUSH1 0x40 MLOAD DUP1 SWAP2 SUB SWAP1 REVERT JUMPDEST PUSH2 0x66 DUP2 PUSH2 0xF8 JUMP JUMPDEST POP PUSH1 0x1 DUP1 SSTORE PUSH1 0x2 DUP1 SLOAD PUSH1 0x5 DUP1 SLOAD PUSH1 0x1 PUSH1 0x1 PUSH1 0xA0 SHL SUB NOT SWAP1 DUP2 AND PUSH1 0x1 PUSH1 0x1 PUSH1 0xA0 SHL SUB SWAP13 DUP14 AND OR SWAP1 SWAP2 SSTORE PUSH1 0x7 DUP1 SLOAD DUP3 AND SWAP11 DUP13 AND SWAP11 SWAP1 SWAP11 OR SWAP1 SWAP10 SSTORE PUSH1 0x6 DUP1 SLOAD DUP11 AND SWAP9 DUP12 AND SWAP9 SWAP1 SWAP9 OR SWAP1 SWAP8 SSTORE SWAP5 DUP9 AND PUSH1 0x80 MSTORE SWAP3 DUP8 AND PUSH1 0xA0 MSTORE PUSH1 0x1 PUSH1 0x1 PUSH1 0xA8 SHL SUB NOT SWAP1 SWAP5 AND PUSH2 0x100 SWAP2 DUP8 AND SWAP2 SWAP1 SWAP2 MUL OR SWAP1 SWAP2 SSTORE PUSH1 0x3 DUP1 SLOAD DUP5 AND SWAP3 DUP6 AND SWAP3 SWAP1 SWAP3 OR SWAP1 SWAP2 SSTORE PUSH1 0x4 DUP1 SLOAD SWAP1 SWAP3 AND SWAP3 AND SWAP2 SWAP1 SWAP2 OR SWAP1 SSTORE PUSH2 0x209 JUMP JUMPDEST PUSH0 DUP1 SLOAD PUSH1 0x1 PUSH1 0x1 PUSH1 0xA0 SHL SUB DUP4 DUP2 AND PUSH1 0x1 PUSH1 0x1 PUSH1 0xA0 SHL SUB NOT DUP4 AND DUP2 OR DUP5 SSTORE PUSH1 0x40 MLOAD SWAP2 SWAP1 SWAP3 AND SWAP3 DUP4 SWAP2 PUSH32 0x8BE0079C531659141344CD1FD0A4F28419497F9722A3DAAFE3B4186F6B6457E0 SWAP2 SWAP1 LOG3 POP POP JUMP JUMPDEST PUSH1 0x1 PUSH1 0x1 PUSH1 0xA0 SHL SUB DUP2 AND DUP2 EQ PUSH2 0x15B JUMPI PUSH0 DUP1 REVERT JUMPDEST POP JUMP JUMPDEST PUSH0 DUP1 PUSH0 DUP1 PUSH0 DUP1 PUSH0 DUP1 PUSH2 0x100 DUP10 DUP12 SUB SLT ISZERO PUSH2 0x176 JUMPI PUSH0 DUP1 REVERT JUMPDEST DUP9 MLOAD PUSH2 0x181 DUP2 PUSH2 0x147 JUMP JUMPDEST PUSH1 0x20 DUP11 ADD MLOAD SWAP1 SWAP9 POP PUSH2 0x192 DUP2 PUSH2 0x147 JUMP JUMPDEST PUSH1 0x40 DUP11 ADD MLOAD SWAP1 SWAP8 POP PUSH2 0x1A3 DUP2 PUSH2 0x147 JUMP JUMPDEST PUSH1 0x60 DUP11 ADD MLOAD SWAP1 SWAP7 POP PUSH2 0x1B4 DUP2 PUSH2 0x147 JUMP JUMPDEST PUSH1 0x80 DUP11 ADD MLOAD SWAP1 SWAP6 POP PUSH2 0x1C5 DUP2 PUSH2 0x147 JUMP JUMPDEST PUSH1 0xA0 DUP11 ADD MLOAD SWAP1 SWAP5 POP PUSH2 0x1D6 DUP2 PUSH2 0x147 JUMP JUMPDEST PUSH1 0xC0 DUP11 ADD MLOAD SWAP1 SWAP4 POP PUSH2 0x1E7 DUP2 PUSH2 0x147 JUMP JUMPDEST PUSH1 0xE0 DUP11 ADD MLOAD SWAP1 SWAP3 POP PUSH2 0x1F8 DUP2 PUSH2 0x147 JUMP JUMPDEST DUP1 SWAP2 POP POP SWAP3 SWAP6 SWAP9 POP SWAP3 SWAP6 SWAP9 SWAP1 SWAP4 SWAP7 POP JUMP JUMPDEST PUSH1 0x80 MLOAD PUSH1 0xA0 MLOAD PUSH2 0x383A PUSH2 0x262 PUSH0 CODECOPY PUSH0 DUP2 DUP2 PUSH2 0x495 ADD MSTORE DUP2 DUP2 PUSH2 0x1505 ADD MSTORE DUP2 DUP2 PUSH2 0x25D6 ADD MSTORE DUP2 DUP2 PUSH2 0x2E62 ADD MSTORE PUSH2 0x2F01 ADD MSTORE PUSH0 DUP2 DUP2 PUSH2 0x443 ADD MSTORE DUP2 DUP2 PUSH2 0x152B ADD MSTORE DUP2 DUP2 PUSH2 0x25FC ADD MSTORE DUP2 DUP2 PUSH2 0x2CFF ADD MSTORE PUSH2 0x2D9E ADD MSTORE PUSH2 0x383A PUSH0 RETURN INVALID PUSH1 0x80 PUSH1 0x40 MSTORE PUSH1 0x4 CALLDATASIZE LT PUSH2 0x26D JUMPI PUSH0 CALLDATALOAD PUSH1 0xE0 SHR DUP1 PUSH4 0x835722AD GT PUSH2 0x14A JUMPI DUP1 PUSH4 0xC211E1F9 GT PUSH2 0xBE JUMPI DUP1 PUSH4 0xF2FDE38B GT PUSH2 0x78 JUMPI DUP1 PUSH4 0xF2FDE38B EQ PUSH2 0x802 JUMPI DUP1 PUSH4 0xF3E76510 EQ PUSH2 0x821 JUMPI DUP1 PUSH4 0xF621CC48 EQ PUSH2 0x840 JUMPI DUP1 PUSH4 0xFC0C546A EQ PUSH2 0x86E JUMPI DUP1 PUSH4 0xFCBCA456 EQ PUSH2 0x88D JUMPI DUP1 PUSH4 0xFF960C0E EQ PUSH2 0x8AC JUMPI PUSH0 DUP1 REVERT JUMPDEST DUP1 PUSH4 0xC211E1F9 EQ PUSH2 0x705 JUMPI DUP1 PUSH4 0xC81FFDEA EQ PUSH2 0x739 JUMPI DUP1 PUSH4 0xD1F3B23E EQ PUSH2 0x764 JUMPI DUP1 PUSH4 0xDA5467A5 EQ PUSH2 0x77D JUMPI DUP1 PUSH4 0xDF4E0593 EQ PUSH2 0x79C JUMPI DUP1 PUSH4 0xE8E87389 EQ PUSH2 0x7D7 JUMPI PUSH0 DUP1 REVERT JUMPDEST DUP1 PUSH4 0xA1C4B5A2 GT PUSH2 0x10F JUMPI DUP1 PUSH4 0xA1C4B5A2 EQ PUSH2 0x63C JUMPI DUP1 PUSH4 0xA1E89AEC EQ PUSH2 0x65B JUMPI DUP1 PUSH4 0xA95836D1 EQ PUSH2 0x670 JUMPI DUP1 PUSH4 0xAF979F7F EQ PUSH2 0x68F JUMPI DUP1 PUSH4 0xB3FDAFB9 EQ PUSH2 0x6AE JUMPI DUP1 PUSH4 0xB5F522F7 EQ PUSH2 0x6CD JUMPI PUSH0 DUP1 REVERT JUMPDEST DUP1 PUSH4 0x835722AD EQ PUSH2 0x5BB JUMPI DUP1 PUSH4 0x8456CB59 EQ PUSH2 0x5DA JUMPI DUP1 PUSH4 0x8DA5CB5B EQ PUSH2 0x5EE JUMPI DUP1 PUSH4 0x940C333E EQ PUSH2 0x60A JUMPI DUP1 PUSH4 0x9FA8ADB8 EQ PUSH2 0x61D JUMPI PUSH0 DUP1 REVERT JUMPDEST DUP1 PUSH4 0x3E413BEE GT PUSH2 0x1E1 JUMPI DUP1 PUSH4 0x5C975ABB GT PUSH2 0x1A6 JUMPI DUP1 PUSH4 0x5C975ABB EQ PUSH2 0x528 JUMPI DUP1 PUSH4 0x5E6F6045 EQ PUSH2 0x53F JUMPI DUP1 PUSH4 0x63B20117 EQ PUSH2 0x55E JUMPI DUP1 PUSH4 0x715018A6 EQ PUSH2 0x573 JUMPI DUP1 PUSH4 0x721BC38B EQ PUSH2 0x587 JUMPI DUP1 PUSH4 0x736B1906 EQ PUSH2 0x59C JUMPI PUSH0 DUP1 REVERT JUMPDEST DUP1 PUSH4 0x3E413BEE EQ PUSH2 0x484 JUMPI DUP1 PUSH4 0x3F4BA83A EQ PUSH2 0x4B7 JUMPI DUP1 PUSH4 0x4A4C560D EQ PUSH2 0x4CB JUMPI DUP1 PUSH4 0x4DE33882 EQ PUSH2 0x4EA JUMPI DUP1 PUSH4 0x5B7BAF64 EQ PUSH2 0x509 JUMPI PUSH0 DUP1 REVERT JUMPDEST DUP1 PUSH4 0x1B152AC5 GT PUSH2 0x232 JUMPI DUP1 PUSH4 0x1B152AC5 EQ PUSH2 0x3A0 JUMPI DUP1 PUSH4 0x212EA247 EQ PUSH2 0x3C1 JUMPI DUP1 PUSH4 0x22C0AEC7 EQ PUSH2 0x3D5 JUMPI DUP1 PUSH4 0x2593198D EQ PUSH2 0x413 JUMPI DUP1 PUSH4 0x2F48AB7D EQ PUSH2 0x432 JUMPI DUP1 PUSH4 0x34DD8F5E EQ PUSH2 0x465 JUMPI PUSH0 DUP1 REVERT JUMPDEST DUP1 PUSH4 0x5834E67 EQ PUSH2 0x2C3 JUMPI DUP1 PUSH4 0x91C2C99 EQ PUSH2 0x2F5 JUMPI DUP1 PUSH4 0x115AFC3A EQ PUSH2 0x32B JUMPI DUP1 PUSH4 0x117D260F EQ PUSH2 0x34A JUMPI DUP1 PUSH4 0x171600A3 EQ PUSH2 0x369 JUMPI PUSH0 DUP1 REVERT JUMPDEST CALLDATASIZE PUSH2 0x2BF JUMPI PUSH1 0x40 MLOAD PUSH3 0x461BCD PUSH1 0xE5 SHL DUP2 MSTORE PUSH1 0x20 PUSH1 0x4 DUP3 ADD DUP2 SWAP1 MSTORE PUSH1 0x24 DUP3 ADD MSTORE PUSH32 0x44697265637420424E42207472616E7366657273206E6F7420616C6C6F776564 PUSH1 0x44 DUP3 ADD MSTORE PUSH1 0x64 ADD JUMPDEST PUSH1 0x40 MLOAD DUP1 SWAP2 SUB SWAP1 REVERT JUMPDEST PUSH0 DUP1 REVERT JUMPDEST CALLVALUE DUP1 ISZERO PUSH2 0x2CE JUMPI PUSH0 DUP1 REVERT JUMPDEST POP PUSH2 0x2E2 PUSH2 0x2DD CALLDATASIZE PUSH1 0x4 PUSH2 0x3012 JUMP JUMPDEST PUSH2 0x8E8 JUMP JUMPDEST PUSH1 0x40 MLOAD SWAP1 DUP2 MSTORE PUSH1 0x20 ADD JUMPDEST PUSH1 0x40 MLOAD DUP1 SWAP2 SUB SWAP1 RETURN JUMPDEST CALLVALUE DUP1 ISZERO PUSH2 0x300 JUMPI PUSH0 DUP1 REVERT JUMPDEST POP PUSH2 0x2E2 PUSH2 0x30F CALLDATASIZE PUSH1 0x4 PUSH2 0x304E JUMP JUMPDEST PUSH1 0x13 PUSH1 0x20 SWAP1 DUP2 MSTORE PUSH0 SWAP3 DUP4 MSTORE PUSH1 0x40 DUP1 DUP5 KECCAK256 SWAP1 SWAP2 MSTORE SWAP1 DUP3 MSTORE SWAP1 KECCAK256 SLOAD DUP2 JUMP JUMPDEST CALLVALUE DUP1 ISZERO PUSH2 0x336 JUMPI PUSH0 DUP1 REVERT JUMPDEST POP PUSH2 0x2E2 PUSH2 0x345 CALLDATASIZE PUSH1 0x4 PUSH2 0x307C JUMP JUMPDEST PUSH2 0xA65 JUMP JUMPDEST CALLVALUE DUP1 ISZERO PUSH2 0x355 JUMPI PUSH0 DUP1 REVERT JUMPDEST POP PUSH2 0x2E2 PUSH2 0x364 CALLDATASIZE PUSH1 0x4 PUSH2 0x3012 JUMP JUMPDEST PUSH2 0xBCA JUMP JUMPDEST CALLVALUE DUP1 ISZERO PUSH2 0x374 JUMPI PUSH0 DUP1 REVERT JUMPDEST POP PUSH1 0x6 SLOAD PUSH2 0x388 SWAP1 PUSH1 0x1 PUSH1 0x1 PUSH1 0xA0 SHL SUB AND DUP2 JUMP JUMPDEST PUSH1 0x40 MLOAD PUSH1 0x1 PUSH1 0x1 PUSH1 0xA0 SHL SUB SWAP1 SWAP2 AND DUP2 MSTORE PUSH1 0x20 ADD PUSH2 0x2EC JUMP JUMPDEST CALLVALUE DUP1 ISZERO PUSH2 0x3AB JUMPI PUSH0 DUP1 REVERT JUMPDEST POP PUSH2 0x3BF PUSH2 0x3BA CALLDATASIZE PUSH1 0x4 PUSH2 0x30AD JUMP JUMPDEST PUSH2 0xD5F JUMP JUMPDEST STOP JUMPDEST CALLVALUE DUP1 ISZERO PUSH2 0x3CC JUMPI PUSH0 DUP1 REVERT JUMPDEST POP PUSH2 0x2E2 PUSH2 0xDE0 JUMP JUMPDEST CALLVALUE DUP1 ISZERO PUSH2 0x3E0 JUMPI PUSH0 DUP1 REVERT JUMPDEST POP PUSH2 0x403 PUSH2 0x3EF CALLDATASIZE PUSH1 0x4 PUSH2 0x30D0 JUMP JUMPDEST PUSH1 0xE PUSH1 0x20 MSTORE PUSH0 SWAP1 DUP2 MSTORE PUSH1 0x40 SWAP1 KECCAK256 SLOAD PUSH1 0xFF AND DUP2 JUMP JUMPDEST PUSH1 0x40 MLOAD SWAP1 ISZERO ISZERO DUP2 MSTORE PUSH1 0x20 ADD PUSH2 0x2EC JUMP JUMPDEST CALLVALUE DUP1 ISZERO PUSH2 0x41E JUMPI PUSH0 DUP1 REVERT JUMPDEST POP PUSH2 0x2E2 PUSH2 0x42D CALLDATASIZE PUSH1 0x4 PUSH2 0x30EB JUMP JUMPDEST PUSH2 0xE5F JUMP JUMPDEST CALLVALUE DUP1 ISZERO PUSH2 0x43D JUMPI PUSH0 DUP1 REVERT JUMPDEST POP PUSH2 0x388 PUSH32 0x0 DUP2 JUMP JUMPDEST CALLVALUE DUP1 ISZERO PUSH2 0x470 JUMPI PUSH0 DUP1 REVERT JUMPDEST POP PUSH2 0x2E2 PUSH2 0x47F CALLDATASIZE PUSH1 0x4 PUSH2 0x3012 JUMP JUMPDEST PUSH2 0xE72 JUMP JUMPDEST CALLVALUE DUP1 ISZERO PUSH2 0x48F JUMPI PUSH0 DUP1 REVERT JUMPDEST POP PUSH2 0x388 PUSH32 0x0 DUP2 JUMP JUMPDEST CALLVALUE DUP1 ISZERO PUSH2 0x4C2 JUMPI PUSH0 DUP1 REVERT JUMPDEST POP PUSH2 0x3BF PUSH2 0xF0A JUMP JUMPDEST CALLVALUE DUP1 ISZERO PUSH2 0x4D6 JUMPI PUSH0 DUP1 REVERT JUMPDEST POP PUSH2 0x3BF PUSH2 0x4E5 CALLDATASIZE PUSH1 0x4 PUSH2 0x30D0 JUMP JUMPDEST PUSH2 0xF1C JUMP JUMPDEST CALLVALUE DUP1 ISZERO PUSH2 0x4F5 JUMPI PUSH0 DUP1 REVERT JUMPDEST POP PUSH2 0x3BF PUSH2 0x504 CALLDATASIZE PUSH1 0x4 PUSH2 0x3116 JUMP JUMPDEST PUSH2 0xFD5 JUMP JUMPDEST CALLVALUE DUP1 ISZERO PUSH2 0x514 JUMPI PUSH0 DUP1 REVERT JUMPDEST POP PUSH2 0x3BF PUSH2 0x523 CALLDATASIZE PUSH1 0x4 PUSH2 0x30EB JUMP JUMPDEST PUSH2 0x123F JUMP JUMPDEST CALLVALUE DUP1 ISZERO PUSH2 0x533 JUMPI PUSH0 DUP1 REVERT JUMPDEST POP PUSH1 0x2 SLOAD PUSH1 0xFF AND PUSH2 0x403 JUMP JUMPDEST CALLVALUE DUP1 ISZERO PUSH2 0x54A JUMPI PUSH0 DUP1 REVERT JUMPDEST POP PUSH1 0x7 SLOAD PUSH2 0x388 SWAP1 PUSH1 0x1 PUSH1 0x1 PUSH1 0xA0 SHL SUB AND DUP2 JUMP JUMPDEST CALLVALUE DUP1 ISZERO PUSH2 0x569 JUMPI PUSH0 DUP1 REVERT JUMPDEST POP PUSH2 0x2E2 PUSH1 0xA SLOAD DUP2 JUMP JUMPDEST CALLVALUE DUP1 ISZERO PUSH2 0x57E JUMPI PUSH0 DUP1 REVERT JUMPDEST POP PUSH2 0x3BF PUSH2 0x170C JUMP JUMPDEST CALLVALUE DUP1 ISZERO PUSH2 0x592 JUMPI PUSH0 DUP1 REVERT JUMPDEST POP PUSH2 0x2E2 PUSH1 0x9 SLOAD DUP2 JUMP JUMPDEST CALLVALUE DUP1 ISZERO PUSH2 0x5A7 JUMPI PUSH0 DUP1 REVERT JUMPDEST POP PUSH2 0x403 PUSH2 0x5B6 CALLDATASIZE PUSH1 0x4 PUSH2 0x30EB JUMP JUMPDEST PUSH2 0x171D JUMP JUMPDEST CALLVALUE DUP1 ISZERO PUSH2 0x5C6 JUMPI PUSH0 DUP1 REVERT JUMPDEST POP PUSH2 0x2E2 PUSH2 0x5D5 CALLDATASIZE PUSH1 0x4 PUSH2 0x30EB JUMP JUMPDEST PUSH2 0x1769 JUMP JUMPDEST CALLVALUE DUP1 ISZERO PUSH2 0x5E5 JUMPI PUSH0 DUP1 REVERT JUMPDEST POP PUSH2 0x3BF PUSH2 0x1779 JUMP JUMPDEST CALLVALUE DUP1 ISZERO PUSH2 0x5F9 JUMPI PUSH0 DUP1 REVERT JUMPDEST POP PUSH0 SLOAD PUSH1 0x1 PUSH1 0x1 PUSH1 0xA0 SHL SUB AND PUSH2 0x388 JUMP JUMPDEST PUSH2 0x3BF PUSH2 0x618 CALLDATASIZE PUSH1 0x4 PUSH2 0x3012 JUMP JUMPDEST PUSH2 0x1789 JUMP JUMPDEST CALLVALUE DUP1 ISZERO PUSH2 0x628 JUMPI PUSH0 DUP1 REVERT JUMPDEST POP PUSH2 0x2E2 PUSH2 0x637 CALLDATASIZE PUSH1 0x4 PUSH2 0x30EB JUMP JUMPDEST PUSH2 0x1ACE JUMP JUMPDEST CALLVALUE DUP1 ISZERO PUSH2 0x647 JUMPI PUSH0 DUP1 REVERT JUMPDEST POP PUSH2 0x2E2 PUSH2 0x656 CALLDATASIZE PUSH1 0x4 PUSH2 0x30EB JUMP JUMPDEST PUSH2 0x1AE1 JUMP JUMPDEST CALLVALUE DUP1 ISZERO PUSH2 0x666 JUMPI PUSH0 DUP1 REVERT JUMPDEST POP PUSH2 0x2E2 PUSH1 0x8 SLOAD DUP2 JUMP JUMPDEST CALLVALUE DUP1 ISZERO PUSH2 0x67B JUMPI PUSH0 DUP1 REVERT JUMPDEST POP PUSH2 0x3BF PUSH2 0x68A CALLDATASIZE PUSH1 0x4 PUSH2 0x30D0 JUMP JUMPDEST PUSH2 0x1AF1 JUMP JUMPDEST CALLVALUE DUP1 ISZERO PUSH2 0x69A JUMPI PUSH0 DUP1 REVERT JUMPDEST POP PUSH2 0x3BF PUSH2 0x6A9 CALLDATASIZE PUSH1 0x4 PUSH2 0x30D0 JUMP JUMPDEST PUSH2 0x1C64 JUMP JUMPDEST CALLVALUE DUP1 ISZERO PUSH2 0x6B9 JUMPI PUSH0 DUP1 REVERT JUMPDEST POP PUSH2 0x2E2 PUSH2 0x6C8 CALLDATASIZE PUSH1 0x4 PUSH2 0x30EB JUMP JUMPDEST PUSH2 0x1D4C JUMP JUMPDEST CALLVALUE DUP1 ISZERO PUSH2 0x6D8 JUMPI PUSH0 DUP1 REVERT JUMPDEST POP PUSH2 0x6EC PUSH2 0x6E7 CALLDATASIZE PUSH1 0x4 PUSH2 0x30EB JUMP JUMPDEST PUSH2 0x1D5C JUMP JUMPDEST PUSH1 0x40 MLOAD PUSH2 0x2EC SWAP14 SWAP13 SWAP12 SWAP11 SWAP10 SWAP9 SWAP8 SWAP7 SWAP6 SWAP5 SWAP4 SWAP3 SWAP2 SWAP1 PUSH2 0x3248 JUMP JUMPDEST CALLVALUE DUP1 ISZERO PUSH2 0x710 JUMPI PUSH0 DUP1 REVERT JUMPDEST POP PUSH2 0x724 PUSH2 0x71F CALLDATASIZE PUSH1 0x4 PUSH2 0x30EB JUMP JUMPDEST PUSH2 0x1E4E JUMP JUMPDEST PUSH1 0x40 DUP1 MLOAD SWAP3 DUP4 MSTORE PUSH1 0x20 DUP4 ADD SWAP2 SWAP1 SWAP2 MSTORE ADD PUSH2 0x2EC JUMP JUMPDEST CALLVALUE DUP1 ISZERO PUSH2 0x744 JUMPI PUSH0 DUP1 REVERT JUMPDEST POP PUSH2 0x2E2 PUSH2 0x753 CALLDATASIZE PUSH1 0x4 PUSH2 0x30D0 JUMP JUMPDEST PUSH1 0xF PUSH1 0x20 MSTORE PUSH0 SWAP1 DUP2 MSTORE PUSH1 0x40 SWAP1 KECCAK256 SLOAD DUP2 JUMP JUMPDEST CALLVALUE DUP1 ISZERO PUSH2 0x76F JUMPI PUSH0 DUP1 REVERT JUMPDEST POP PUSH1 0xB SLOAD PUSH2 0x403 SWAP1 PUSH1 0xFF AND DUP2 JUMP JUMPDEST CALLVALUE DUP1 ISZERO PUSH2 0x788 JUMPI PUSH0 DUP1 REVERT JUMPDEST POP PUSH2 0x724 PUSH2 0x797 CALLDATASIZE PUSH1 0x4 PUSH2 0x30EB JUMP JUMPDEST PUSH2 0x1FFE JUMP JUMPDEST CALLVALUE DUP1 ISZERO PUSH2 0x7A7 JUMPI PUSH0 DUP1 REVERT JUMPDEST POP PUSH2 0x7CA PUSH2 0x7B6 CALLDATASIZE PUSH1 0x4 PUSH2 0x30D0 JUMP JUMPDEST PUSH1 0x11 PUSH1 0x20 MSTORE PUSH0 SWAP1 DUP2 MSTORE PUSH1 0x40 SWAP1 KECCAK256 SLOAD PUSH1 0xFF AND DUP2 JUMP JUMPDEST PUSH1 0x40 MLOAD PUSH2 0x2EC SWAP2 SWAP1 PUSH2 0x32F2 JUMP JUMPDEST CALLVALUE DUP1 ISZERO PUSH2 0x7E2 JUMPI PUSH0 DUP1 REVERT JUMPDEST POP PUSH2 0x2E2 PUSH2 0x7F1 CALLDATASIZE PUSH1 0x4 PUSH2 0x30D0 JUMP JUMPDEST PUSH1 0x10 PUSH1 0x20 MSTORE PUSH0 SWAP1 DUP2 MSTORE PUSH1 0x40 SWAP1 KECCAK256 SLOAD DUP2 JUMP JUMPDEST CALLVALUE DUP1 ISZERO PUSH2 0x80D JUMPI PUSH0 DUP1 REVERT JUMPDEST POP PUSH2 0x3BF PUSH2 0x81C CALLDATASIZE PUSH1 0x4 PUSH2 0x30D0 JUMP JUMPDEST PUSH2 0x2089 JUMP JUMPDEST CALLVALUE DUP1 ISZERO PUSH2 0x82C JUMPI PUSH0 DUP1 REVERT JUMPDEST POP PUSH2 0x403 PUSH2 0x83B CALLDATASIZE PUSH1 0x4 PUSH2 0x30EB JUMP JUMPDEST PUSH2 0x20C3 JUMP JUMPDEST CALLVALUE DUP1 ISZERO PUSH2 0x84B JUMPI PUSH0 DUP1 REVERT JUMPDEST POP PUSH2 0x403 PUSH2 0x85A CALLDATASIZE PUSH1 0x4 PUSH2 0x30D0 JUMP JUMPDEST PUSH1 0xD PUSH1 0x20 MSTORE PUSH0 SWAP1 DUP2 MSTORE PUSH1 0x40 SWAP1 KECCAK256 SLOAD PUSH1 0xFF AND DUP2 JUMP JUMPDEST CALLVALUE DUP1 ISZERO PUSH2 0x879 JUMPI PUSH0 DUP1 REVERT JUMPDEST POP PUSH1 0x5 SLOAD PUSH2 0x388 SWAP1 PUSH1 0x1 PUSH1 0x1 PUSH1 0xA0 SHL SUB AND DUP2 JUMP JUMPDEST CALLVALUE DUP1 ISZERO PUSH2 0x898 JUMPI PUSH0 DUP1 REVERT JUMPDEST POP PUSH2 0x3BF PUSH2 0x8A7 CALLDATASIZE PUSH1 0x4 PUSH2 0x30D0 JUMP JUMPDEST PUSH2 0x210F JUMP JUMPDEST CALLVALUE DUP1 ISZERO PUSH2 0x8B7 JUMPI PUSH0 DUP1 REVERT JUMPDEST POP PUSH2 0x2E2 PUSH2 0x8C6 CALLDATASIZE PUSH1 0x4 PUSH2 0x3300 JUMP JUMPDEST PUSH1 0x12 PUSH1 0x20 SWAP1 DUP2 MSTORE PUSH0 SWAP4 DUP5 MSTORE PUSH1 0x40 DUP1 DUP6 KECCAK256 DUP3 MSTORE SWAP3 DUP5 MSTORE DUP3 DUP5 KECCAK256 SWAP1 MSTORE DUP3 MSTORE SWAP1 KECCAK256 SLOAD DUP2 JUMP JUMPDEST PUSH0 DUP1 PUSH2 0x8F6 PUSH2 0x656 DUP6 PUSH2 0xA65 JUMP JUMPDEST SWAP1 POP DUP1 PUSH0 SUB PUSH2 0x93C JUMPI PUSH1 0x40 MLOAD PUSH3 0x461BCD PUSH1 0xE5 SHL DUP2 MSTORE PUSH1 0x20 PUSH1 0x4 DUP3 ADD MSTORE PUSH1 0x12 PUSH1 0x24 DUP3 ADD MSTORE PUSH18 0x125B9D985B1A59081C1C9A58D94819995959 PUSH1 0x72 SHL PUSH1 0x44 DUP3 ADD MSTORE PUSH1 0x64 ADD PUSH2 0x2B6 JUMP JUMPDEST PUSH0 PUSH2 0x945 PUSH2 0xDE0 JUMP JUMPDEST PUSH0 DUP2 DUP2 MSTORE PUSH1 0xC PUSH1 0x20 MSTORE PUSH1 0x40 DUP2 KECCAK256 PUSH1 0x4 DUP2 ADD SLOAD SWAP3 SWAP4 POP SWAP2 SWAP1 DUP1 DUP9 PUSH1 0x2 DUP2 GT ISZERO PUSH2 0x96F JUMPI PUSH2 0x96F PUSH2 0x32BE JUMP JUMPDEST SUB PUSH2 0x988 JUMPI PUSH2 0x981 PUSH2 0x637 DUP9 DUP8 PUSH2 0x334F JUMP JUMPDEST SWAP1 POP PUSH2 0xA41 JUMP JUMPDEST PUSH1 0x2 DUP9 PUSH1 0x2 DUP2 GT ISZERO PUSH2 0x99C JUMPI PUSH2 0x99C PUSH2 0x32BE JUMP JUMPDEST EQ DUP1 PUSH2 0x9B9 JUMPI POP PUSH1 0x1 DUP9 PUSH1 0x2 DUP2 GT ISZERO PUSH2 0x9B7 JUMPI PUSH2 0x9B7 PUSH2 0x32BE JUMP JUMPDEST EQ JUMPDEST ISZERO PUSH2 0x9F9 JUMPI PUSH1 0x6 PUSH0 PUSH2 0x9CC DUP3 PUSH1 0x12 PUSH2 0x3366 JUMP JUMPDEST PUSH2 0x9D7 SWAP1 PUSH1 0xA PUSH2 0x345C JUMP JUMPDEST PUSH2 0x9E1 SWAP1 DUP11 PUSH2 0x334F JUMP JUMPDEST SWAP1 POP PUSH2 0x9F0 PUSH2 0x637 DUP3 DUP10 PUSH2 0x334F JUMP JUMPDEST SWAP3 POP POP POP PUSH2 0xA41 JUMP JUMPDEST PUSH1 0x40 MLOAD PUSH3 0x461BCD PUSH1 0xE5 SHL DUP2 MSTORE PUSH1 0x20 PUSH1 0x4 DUP3 ADD MSTORE PUSH1 0x1A PUSH1 0x24 DUP3 ADD MSTORE PUSH32 0x556E737570706F72746564207061796D656E74206D6574686F64000000000000 PUSH1 0x44 DUP3 ADD MSTORE PUSH1 0x64 ADD PUSH2 0x2B6 JUMP JUMPDEST PUSH0 DUP3 PUSH2 0xA4C DUP4 PUSH2 0xE5F JUMP JUMPDEST PUSH2 0xA56 SWAP2 SWAP1 PUSH2 0x3467 JUMP JUMPDEST SWAP7 POP POP POP POP POP POP POP JUMPDEST SWAP3 SWAP2 POP POP JUMP JUMPDEST PUSH0 DUP1 DUP3 PUSH1 0x2 DUP2 GT ISZERO PUSH2 0xA79 JUMPI PUSH2 0xA79 PUSH2 0x32BE JUMP JUMPDEST SUB PUSH2 0xB00 JUMPI PUSH0 PUSH1 0x2 PUSH1 0x1 SWAP1 SLOAD SWAP1 PUSH2 0x100 EXP SWAP1 DIV PUSH1 0x1 PUSH1 0x1 PUSH1 0xA0 SHL SUB AND PUSH1 0x1 PUSH1 0x1 PUSH1 0xA0 SHL SUB AND PUSH4 0xFEAF968C PUSH1 0x40 MLOAD DUP2 PUSH4 0xFFFFFFFF AND PUSH1 0xE0 SHL DUP2 MSTORE PUSH1 0x4 ADD PUSH1 0xA0 PUSH1 0x40 MLOAD DUP1 DUP4 SUB DUP2 DUP7 GAS STATICCALL ISZERO DUP1 ISZERO PUSH2 0xAD0 JUMPI RETURNDATASIZE PUSH0 DUP1 RETURNDATACOPY RETURNDATASIZE PUSH0 REVERT JUMPDEST POP POP POP POP PUSH1 0x40 MLOAD RETURNDATASIZE PUSH1 0x1F NOT PUSH1 0x1F DUP3 ADD AND DUP3 ADD DUP1 PUSH1 0x40 MSTORE POP DUP2 ADD SWAP1 PUSH2 0xAF4 SWAP2 SWAP1 PUSH2 0x349F JUMP JUMPDEST POP SWAP2 SWAP7 SWAP6 POP POP POP POP POP POP JUMP JUMPDEST PUSH1 0x1 DUP3 PUSH1 0x2 DUP2 GT ISZERO PUSH2 0xB14 JUMPI PUSH2 0xB14 PUSH2 0x32BE JUMP JUMPDEST SUB PUSH2 0xB60 JUMPI PUSH1 0x3 SLOAD PUSH1 0x40 DUP1 MLOAD PUSH4 0x3FABE5A3 PUSH1 0xE2 SHL DUP2 MSTORE SWAP1 MLOAD PUSH0 SWAP3 PUSH1 0x1 PUSH1 0x1 PUSH1 0xA0 SHL SUB AND SWAP2 PUSH4 0xFEAF968C SWAP2 PUSH1 0x4 DUP1 DUP4 ADD SWAP3 PUSH1 0xA0 SWAP3 SWAP2 SWAP1 DUP3 SWAP1 SUB ADD DUP2 DUP7 GAS STATICCALL ISZERO DUP1 ISZERO PUSH2 0xAD0 JUMPI RETURNDATASIZE PUSH0 DUP1 RETURNDATACOPY RETURNDATASIZE PUSH0 REVERT JUMPDEST PUSH1 0x2 DUP3 PUSH1 0x2 DUP2 GT ISZERO PUSH2 0xB74 JUMPI PUSH2 0xB74 PUSH2 0x32BE JUMP JUMPDEST SUB PUSH2 0x9F9 JUMPI PUSH0 PUSH1 0x4 PUSH0 SWAP1 SLOAD SWAP1 PUSH2 0x100 EXP SWAP1 DIV PUSH1 0x1 PUSH1 0x1 PUSH1 0xA0 SHL SUB AND PUSH1 0x1 PUSH1 0x1 PUSH1 0xA0 SHL SUB AND PUSH4 0xFEAF968C PUSH1 0x40 MLOAD DUP2 PUSH4 0xFFFFFFFF AND PUSH1 0xE0 SHL DUP2 MSTORE PUSH1 0x4 ADD PUSH1 0xA0 PUSH1 0x40 MLOAD DUP1 DUP4 SUB DUP2 DUP7 GAS STATICCALL ISZERO DUP1 ISZERO PUSH2 0xAD0 JUMPI RETURNDATASIZE PUSH0 DUP1 RETURNDATACOPY RETURNDATASIZE PUSH0 REVERT JUMPDEST PUSH0 DUP2 PUSH0 SUB PUSH2 0xC1A JUMPI PUSH1 0x40 MLOAD PUSH3 0x461BCD PUSH1 0xE5 SHL DUP2 MSTORE PUSH1 0x20 PUSH1 0x4 DUP3 ADD MSTORE PUSH1 0x17 PUSH1 0x24 DUP3 ADD MSTORE PUSH32 0x416D6F756E74206D75737420626520706F736974697665000000000000000000 PUSH1 0x44 DUP3 ADD MSTORE PUSH1 0x64 ADD PUSH2 0x2B6 JUMP JUMPDEST PUSH0 PUSH2 0xC27 PUSH2 0x656 DUP6 PUSH2 0xA65 JUMP JUMPDEST SWAP1 POP DUP1 PUSH0 SUB PUSH2 0xC6D JUMPI PUSH1 0x40 MLOAD PUSH3 0x461BCD PUSH1 0xE5 SHL DUP2 MSTORE PUSH1 0x20 PUSH1 0x4 DUP3 ADD MSTORE PUSH1 0x12 PUSH1 0x24 DUP3 ADD MSTORE PUSH18 0x125B9D985B1A59081C1C9A58D94819995959 PUSH1 0x72 SHL PUSH1 0x44 DUP3 ADD MSTORE PUSH1 0x64 ADD PUSH2 0x2B6 JUMP JUMPDEST PUSH0 PUSH2 0xC76 PUSH2 0xDE0 JUMP JUMPDEST SWAP1 POP DUP1 PUSH0 SUB PUSH2 0xCB8 JUMPI PUSH1 0x40 MLOAD PUSH3 0x461BCD PUSH1 0xE5 SHL DUP2 MSTORE PUSH1 0x20 PUSH1 0x4 DUP3 ADD MSTORE PUSH1 0xE PUSH1 0x24 DUP3 ADD MSTORE PUSH14 0x4E6F206163746976652073616C65 PUSH1 0x90 SHL PUSH1 0x44 DUP3 ADD MSTORE PUSH1 0x64 ADD PUSH2 0x2B6 JUMP JUMPDEST PUSH0 DUP2 DUP2 MSTORE PUSH1 0xC PUSH1 0x20 MSTORE PUSH1 0x40 DUP2 KECCAK256 PUSH1 0x4 DUP2 ADD SLOAD SWAP1 SWAP2 PUSH2 0xCD9 PUSH2 0x637 DUP4 DUP10 PUSH2 0x334F JUMP JUMPDEST SWAP1 POP PUSH0 DUP1 DUP10 PUSH1 0x2 DUP2 GT ISZERO PUSH2 0xCEF JUMPI PUSH2 0xCEF PUSH2 0x32BE JUMP JUMPDEST SUB PUSH2 0xD0F JUMPI DUP6 PUSH2 0xCFE DUP4 PUSH2 0xE5F JUMP JUMPDEST PUSH2 0xD08 SWAP2 SWAP1 PUSH2 0x3467 JUMP JUMPDEST SWAP1 POP PUSH2 0xD53 JUMP JUMPDEST PUSH1 0x1 DUP10 PUSH1 0x2 DUP2 GT ISZERO PUSH2 0xD23 JUMPI PUSH2 0xD23 PUSH2 0x32BE JUMP JUMPDEST EQ DUP1 PUSH2 0xD40 JUMPI POP PUSH1 0x2 DUP10 PUSH1 0x2 DUP2 GT ISZERO PUSH2 0xD3E JUMPI PUSH2 0xD3E PUSH2 0x32BE JUMP JUMPDEST EQ JUMPDEST ISZERO PUSH2 0x9F9 JUMPI DUP6 PUSH2 0xCFE DUP4 PUSH3 0xF4240 PUSH2 0x334F JUMP JUMPDEST SWAP9 SWAP8 POP POP POP POP POP POP POP POP JUMP JUMPDEST PUSH2 0xD67 PUSH2 0x21C8 JUMP JUMPDEST PUSH0 DUP3 DUP2 MSTORE PUSH1 0xC PUSH1 0x20 MSTORE PUSH1 0x40 SWAP1 KECCAK256 PUSH1 0xB DUP2 ADD DUP1 SLOAD PUSH3 0xFF0000 NOT AND PUSH3 0x10000 DUP5 ISZERO ISZERO MUL OR SWAP1 DUP2 SWAP1 SSTORE TIMESTAMP PUSH1 0x1 DUP4 ADD SSTORE PUSH2 0x100 SWAP1 DIV PUSH1 0xFF AND PUSH2 0xDB1 JUMPI PUSH1 0xB DUP2 ADD DUP1 SLOAD PUSH2 0xFF00 NOT AND PUSH2 0x100 OR SWAP1 SSTORE JUMPDEST PUSH1 0x40 MLOAD DUP4 SWAP1 PUSH32 0x7B1C1AD0F3E04C9EF02D69280925520638D1CF076C56C4AA5BB1D0D37A949A3D SWAP1 PUSH0 SWAP1 LOG2 POP POP POP JUMP JUMPDEST PUSH0 PUSH1 0x1 JUMPDEST PUSH1 0x8 SLOAD DUP2 GT PUSH2 0xE58 JUMPI PUSH0 DUP2 DUP2 MSTORE PUSH1 0xC PUSH1 0x20 MSTORE PUSH1 0x40 SWAP1 KECCAK256 SLOAD TIMESTAMP LT DUP1 ISZERO SWAP1 PUSH2 0xE1A JUMPI POP PUSH0 DUP2 DUP2 MSTORE PUSH1 0xC PUSH1 0x20 MSTORE PUSH1 0x40 SWAP1 KECCAK256 PUSH1 0x1 ADD SLOAD TIMESTAMP GT ISZERO JUMPDEST DUP1 ISZERO PUSH2 0xE3C JUMPI POP PUSH0 DUP2 DUP2 MSTORE PUSH1 0xC PUSH1 0x20 MSTORE PUSH1 0x40 SWAP1 KECCAK256 PUSH1 0xB ADD SLOAD PUSH2 0x100 SWAP1 DIV PUSH1 0xFF AND ISZERO JUMPDEST ISZERO PUSH2 0xE46 JUMPI SWAP2 SWAP1 POP JUMP JUMPDEST DUP1 PUSH2 0xE50 DUP2 PUSH2 0x34ED JUMP JUMPDEST SWAP2 POP POP PUSH2 0xDE4 JUMP JUMPDEST POP PUSH0 SWAP1 POP SWAP1 JUMP JUMPDEST PUSH0 PUSH2 0xA5F DUP3 PUSH8 0xDE0B6B3A7640000 PUSH2 0x334F JUMP JUMPDEST PUSH0 DUP1 DUP4 PUSH1 0x2 DUP2 GT ISZERO PUSH2 0xE86 JUMPI PUSH2 0xE86 PUSH2 0x32BE JUMP JUMPDEST SUB PUSH2 0xE92 JUMPI POP DUP1 PUSH2 0xA5F JUMP JUMPDEST PUSH1 0x1 DUP4 PUSH1 0x2 DUP2 GT ISZERO PUSH2 0xEA6 JUMPI PUSH2 0xEA6 PUSH2 0x32BE JUMP JUMPDEST EQ DUP1 PUSH2 0xEC3 JUMPI POP PUSH1 0x2 DUP4 PUSH1 0x2 DUP2 GT ISZERO PUSH2 0xEC1 JUMPI PUSH2 0xEC1 PUSH2 0x32BE JUMP JUMPDEST EQ JUMPDEST ISZERO PUSH2 0xF02 JUMPI PUSH2 0xEF2 PUSH1 0x40 MLOAD DUP1 PUSH1 0x60 ADD PUSH1 0x40 MSTORE DUP1 PUSH1 0x29 DUP2 MSTORE PUSH1 0x20 ADD PUSH2 0x37DC PUSH1 0x29 SWAP2 CODECOPY PUSH2 0xEED DUP5 PUSH2 0x1769 JUMP JUMPDEST PUSH2 0x21F4 JUMP JUMPDEST PUSH2 0xEFB DUP3 PUSH2 0x1769 JUMP JUMPDEST SWAP1 POP PUSH2 0xA5F JUMP JUMPDEST POP PUSH0 SWAP3 SWAP2 POP POP JUMP JUMPDEST PUSH2 0xF12 PUSH2 0x21C8 JUMP JUMPDEST PUSH2 0xF1A PUSH2 0x223D JUMP JUMPDEST JUMP JUMPDEST PUSH2 0xF24 PUSH2 0x21C8 JUMP JUMPDEST PUSH1 0x1 PUSH1 0x1 PUSH1 0xA0 SHL SUB DUP2 AND PUSH2 0xF4A JUMPI PUSH1 0x40 MLOAD PUSH3 0x461BCD PUSH1 0xE5 SHL DUP2 MSTORE PUSH1 0x4 ADD PUSH2 0x2B6 SWAP1 PUSH2 0x3505 JUMP JUMPDEST PUSH1 0x1 PUSH1 0x1 PUSH1 0xA0 SHL SUB DUP2 AND PUSH0 SWAP1 DUP2 MSTORE PUSH1 0xE PUSH1 0x20 MSTORE PUSH1 0x40 SWAP1 KECCAK256 SLOAD PUSH1 0xFF AND ISZERO PUSH2 0xF8A JUMPI PUSH1 0x1 PUSH1 0x1 PUSH1 0xA0 SHL SUB DUP2 AND PUSH0 SWAP1 DUP2 MSTORE PUSH1 0xE PUSH1 0x20 MSTORE PUSH1 0x40 SWAP1 KECCAK256 DUP1 SLOAD PUSH1 0xFF NOT AND SWAP1 SSTORE JUMPDEST PUSH1 0x1 PUSH1 0x1 PUSH1 0xA0 SHL SUB DUP2 AND PUSH0 DUP2 DUP2 MSTORE PUSH1 0xD PUSH1 0x20 MSTORE PUSH1 0x40 DUP1 DUP3 KECCAK256 DUP1 SLOAD PUSH1 0xFF NOT AND PUSH1 0x1 OR SWAP1 SSTORE MLOAD PUSH32 0xAAB7954E9D246B167EF88AEDDAD35209CA2489D95A8AEB59E288D9B19FAE5A54 SWAP2 SWAP1 LOG2 POP JUMP JUMPDEST PUSH2 0xFDD PUSH2 0x21C8 JUMP JUMPDEST PUSH1 0xB SLOAD PUSH1 0xFF AND ISZERO PUSH2 0x1000 JUMPI PUSH1 0x40 MLOAD PUSH3 0x461BCD PUSH1 0xE5 SHL DUP2 MSTORE PUSH1 0x4 ADD PUSH2 0x2B6 SWAP1 PUSH2 0x352E JUMP JUMPDEST TIMESTAMP DUP10 GT DUP1 ISZERO PUSH2 0x100E JUMPI POP DUP9 DUP9 GT JUMPDEST DUP1 ISZERO PUSH2 0x1020 JUMPI POP PUSH2 0x101D PUSH2 0x228F JUMP JUMPDEST TIMESTAMP GT JUMPDEST PUSH2 0x106C JUMPI PUSH1 0x40 MLOAD PUSH3 0x461BCD PUSH1 0xE5 SHL DUP2 MSTORE PUSH1 0x20 PUSH1 0x4 DUP3 ADD MSTORE PUSH1 0x18 PUSH1 0x24 DUP3 ADD MSTORE PUSH32 0x496E76616C69642073746172742074696D652072616E67650000000000000000 PUSH1 0x44 DUP3 ADD MSTORE PUSH1 0x64 ADD PUSH2 0x2B6 JUMP JUMPDEST DUP5 PUSH0 SUB PUSH2 0x10B1 JUMPI PUSH1 0x40 MLOAD PUSH3 0x461BCD PUSH1 0xE5 SHL DUP2 MSTORE PUSH1 0x20 PUSH1 0x4 DUP3 ADD MSTORE PUSH1 0x13 PUSH1 0x24 DUP3 ADD MSTORE PUSH19 0x50726963652063616E2774206265207A65726F PUSH1 0x68 SHL PUSH1 0x44 DUP3 ADD MSTORE PUSH1 0x64 ADD PUSH2 0x2B6 JUMP JUMPDEST DUP6 DUP8 GT ISZERO PUSH2 0x1119 JUMPI PUSH1 0x40 MLOAD PUSH3 0x461BCD PUSH1 0xE5 SHL DUP2 MSTORE PUSH1 0x20 PUSH1 0x4 DUP3 ADD MSTORE PUSH1 0x2F PUSH1 0x24 DUP3 ADD MSTORE PUSH32 0x536F667420636170206D757374206265206C657373207468616E206F72206571 PUSH1 0x44 DUP3 ADD MSTORE PUSH15 0x75616C20746F20686172642063617 PUSH1 0x8C SHL PUSH1 0x64 DUP3 ADD MSTORE PUSH1 0x84 ADD PUSH2 0x2B6 JUMP JUMPDEST DUP2 MLOAD PUSH0 SUB PUSH2 0x1169 JUMPI PUSH1 0x40 MLOAD PUSH3 0x461BCD PUSH1 0xE5 SHL DUP2 MSTORE PUSH1 0x20 PUSH1 0x4 DUP3 ADD MSTORE PUSH1 0x19 PUSH1 0x24 DUP3 ADD MSTORE PUSH32 0x53616C65206E616D652063616E6E6F7420626520656D70747900000000000000 PUSH1 0x44 DUP3 ADD MSTORE PUSH1 0x64 ADD PUSH2 0x2B6 JUMP JUMPDEST PUSH1 0x8 SLOAD PUSH2 0x1177 SWAP1 PUSH1 0x1 PUSH2 0x355D JUMP JUMPDEST PUSH1 0x8 DUP2 DUP2 SSTORE PUSH0 SWAP2 DUP3 MSTORE PUSH1 0xC PUSH1 0x20 MSTORE PUSH1 0x40 DUP3 KECCAK256 DUP12 DUP2 SSTORE PUSH1 0x1 DUP2 ADD DUP12 SWAP1 SSTORE PUSH1 0x2 DUP2 ADD DUP11 SWAP1 SSTORE PUSH1 0x3 DUP2 ADD DUP10 SWAP1 SSTORE PUSH1 0x4 DUP2 ADD DUP9 SWAP1 SSTORE PUSH1 0x5 DUP2 ADD DUP4 SWAP1 SSTORE PUSH1 0x6 DUP2 ADD SWAP3 SWAP1 SWAP3 SSTORE PUSH1 0x7 DUP3 ADD DUP7 SWAP1 SSTORE DUP2 ADD DUP5 SWAP1 SSTORE PUSH1 0xA DUP2 ADD PUSH2 0x11D1 DUP5 DUP3 PUSH2 0x35F4 JUMP JUMPDEST POP PUSH1 0xB DUP2 ADD DUP1 SLOAD PUSH3 0xFFFFFF NOT AND DUP4 ISZERO ISZERO PUSH3 0xFFFF00 NOT AND OR SWAP1 SSTORE PUSH1 0x8 SLOAD PUSH1 0x40 MLOAD PUSH32 0x3371FDB73278BA465DC47CADCAFF52B8F98C7478F86F10D680BCE08F9A0CB1C2 SWAP1 PUSH2 0x122B SWAP1 DUP14 SWAP1 DUP14 SWAP1 DUP14 SWAP1 DUP14 SWAP1 DUP14 SWAP1 DUP12 SWAP1 DUP15 SWAP1 DUP15 SWAP1 PUSH2 0x36AF JUMP JUMPDEST PUSH1 0x40 MLOAD DUP1 SWAP2 SUB SWAP1 LOG2 POP POP POP POP POP POP POP POP POP POP JUMP JUMPDEST PUSH2 0x1247 PUSH2 0x22E6 JUMP JUMPDEST PUSH2 0x124F PUSH2 0x2310 JUMP JUMPDEST DUP1 ISZERO DUP1 ISZERO SWAP1 PUSH2 0x1260 JUMPI POP PUSH1 0x8 SLOAD DUP2 GT ISZERO JUMPDEST PUSH2 0x127C JUMPI PUSH1 0x40 MLOAD PUSH3 0x461BCD PUSH1 0xE5 SHL DUP2 MSTORE PUSH1 0x4 ADD PUSH2 0x2B6 SWAP1 PUSH2 0x36F8 JUMP JUMPDEST PUSH0 DUP2 DUP2 MSTORE PUSH1 0xC PUSH1 0x20 MSTORE PUSH1 0x40 SWAP1 KECCAK256 PUSH1 0x1 DUP2 ADD SLOAD TIMESTAMP GT DUP1 PUSH2 0x12A5 JUMPI POP PUSH1 0xB DUP2 ADD SLOAD PUSH3 0x10000 SWAP1 DIV PUSH1 0xFF AND JUMPDEST PUSH2 0x12E0 JUMPI PUSH1 0x40 MLOAD PUSH3 0x461BCD PUSH1 0xE5 SHL DUP2 MSTORE PUSH1 0x20 PUSH1 0x4 DUP3 ADD MSTORE PUSH1 0xC PUSH1 0x24 DUP3 ADD MSTORE PUSH12 0x53616C65206F6E676F696E67 PUSH1 0xA0 SHL PUSH1 0x44 DUP3 ADD MSTORE PUSH1 0x64 ADD PUSH2 0x2B6 JUMP JUMPDEST DUP1 PUSH1 0x2 ADD SLOAD DUP2 PUSH1 0x6 ADD SLOAD GT ISZERO PUSH2 0x1338 JUMPI PUSH1 0x40 MLOAD PUSH3 0x461BCD PUSH1 0xE5 SHL DUP2 MSTORE PUSH1 0x20 PUSH1 0x4 DUP3 ADD MSTORE PUSH1 0x1E PUSH1 0x24 DUP3 ADD MSTORE PUSH32 0x536F667420636170207265616368656420666F7220746869732073616C650000 PUSH1 0x44 DUP3 ADD MSTORE PUSH1 0x64 ADD PUSH2 0x2B6 JUMP JUMPDEST PUSH0 DUP1 JUMPDEST PUSH1 0x3 DUP2 PUSH1 0xFF AND LT ISZERO PUSH2 0x16AE JUMPI PUSH0 DUP2 PUSH1 0xFF AND PUSH1 0x2 DUP2 GT ISZERO PUSH2 0x135D JUMPI PUSH2 0x135D PUSH2 0x32BE JUMP JUMPDEST PUSH0 DUP7 DUP2 MSTORE PUSH1 0x12 PUSH1 0x20 SWAP1 DUP2 MSTORE PUSH1 0x40 DUP1 DUP4 KECCAK256 CALLER DUP5 MSTORE SWAP1 SWAP2 MSTORE DUP2 KECCAK256 SWAP2 SWAP3 POP SWAP1 DUP2 DUP4 PUSH1 0x2 DUP2 GT ISZERO PUSH2 0x138C JUMPI PUSH2 0x138C PUSH2 0x32BE JUMP JUMPDEST PUSH1 0x2 DUP2 GT ISZERO PUSH2 0x139D JUMPI PUSH2 0x139D PUSH2 0x32BE JUMP JUMPDEST DUP2 MSTORE PUSH1 0x20 ADD SWAP1 DUP2 MSTORE PUSH1 0x20 ADD PUSH0 KECCAK256 SLOAD SWAP1 POP DUP1 PUSH0 EQ PUSH2 0x16A4 JUMPI PUSH0 DUP7 DUP2 MSTORE PUSH1 0x12 PUSH1 0x20 SWAP1 DUP2 MSTORE PUSH1 0x40 DUP1 DUP4 KECCAK256 CALLER DUP5 MSTORE SWAP1 SWAP2 MSTORE DUP2 KECCAK256 DUP2 DUP5 PUSH1 0x2 DUP2 GT ISZERO PUSH2 0x13DF JUMPI PUSH2 0x13DF PUSH2 0x32BE JUMP JUMPDEST PUSH1 0x2 DUP2 GT ISZERO PUSH2 0x13F0 JUMPI PUSH2 0x13F0 PUSH2 0x32BE JUMP JUMPDEST DUP2 MSTORE PUSH1 0x20 DUP2 ADD SWAP2 SWAP1 SWAP2 MSTORE PUSH1 0x40 ADD PUSH0 KECCAK256 SSTORE PUSH2 0x140A DUP2 DUP6 PUSH2 0x355D JUMP JUMPDEST SWAP4 POP PUSH0 DUP3 PUSH1 0x2 DUP2 GT ISZERO PUSH2 0x141F JUMPI PUSH2 0x141F PUSH2 0x32BE JUMP JUMPDEST SUB PUSH2 0x14B3 JUMPI PUSH1 0x40 MLOAD PUSH0 SWAP1 CALLER SWAP1 DUP4 SWAP1 DUP4 DUP2 DUP2 DUP2 DUP6 DUP8 GAS CALL SWAP3 POP POP POP RETURNDATASIZE DUP1 PUSH0 DUP2 EQ PUSH2 0x1463 JUMPI PUSH1 0x40 MLOAD SWAP2 POP PUSH1 0x1F NOT PUSH1 0x3F RETURNDATASIZE ADD AND DUP3 ADD PUSH1 0x40 MSTORE RETURNDATASIZE DUP3 MSTORE RETURNDATASIZE PUSH0 PUSH1 0x20 DUP5 ADD RETURNDATACOPY PUSH2 0x1468 JUMP JUMPDEST PUSH1 0x60 SWAP2 POP JUMPDEST POP POP SWAP1 POP DUP1 PUSH2 0x14AD JUMPI PUSH1 0x40 MLOAD PUSH3 0x461BCD PUSH1 0xE5 SHL DUP2 MSTORE PUSH1 0x20 PUSH1 0x4 DUP3 ADD MSTORE PUSH1 0x11 PUSH1 0x24 DUP3 ADD MSTORE PUSH17 0x109390881C99599D5B990819985A5B1959 PUSH1 0x7A SHL PUSH1 0x44 DUP3 ADD MSTORE PUSH1 0x64 ADD PUSH2 0x2B6 JUMP JUMPDEST POP PUSH2 0x165E JUMP JUMPDEST PUSH1 0x1 DUP3 PUSH1 0x2 DUP2 GT ISZERO PUSH2 0x14C7 JUMPI PUSH2 0x14C7 PUSH2 0x32BE JUMP JUMPDEST EQ DUP1 PUSH2 0x14E4 JUMPI POP PUSH1 0x2 DUP3 PUSH1 0x2 DUP2 GT ISZERO PUSH2 0x14E2 JUMPI PUSH2 0x14E2 PUSH2 0x32BE JUMP JUMPDEST EQ JUMPDEST ISZERO PUSH2 0x1608 JUMPI PUSH0 PUSH1 0x1 DUP4 PUSH1 0x2 DUP2 GT ISZERO PUSH2 0x14FE JUMPI PUSH2 0x14FE PUSH2 0x32BE JUMP JUMPDEST EQ PUSH2 0x1529 JUMPI PUSH32 0x0 PUSH2 0x154B JUMP JUMPDEST PUSH32 0x0 JUMPDEST PUSH1 0x40 MLOAD PUSH4 0xA9059CBB PUSH1 0xE0 SHL DUP2 MSTORE CALLER PUSH1 0x4 DUP3 ADD MSTORE PUSH1 0x24 DUP2 ADD DUP5 SWAP1 MSTORE SWAP1 SWAP2 POP PUSH1 0x1 PUSH1 0x1 PUSH1 0xA0 SHL SUB DUP3 AND SWAP1 PUSH4 0xA9059CBB SWAP1 PUSH1 0x44 ADD PUSH1 0x20 PUSH1 0x40 MLOAD DUP1 DUP4 SUB DUP2 PUSH0 DUP8 GAS CALL ISZERO DUP1 ISZERO PUSH2 0x1598 JUMPI RETURNDATASIZE PUSH0 DUP1 RETURNDATACOPY RETURNDATASIZE PUSH0 REVERT JUMPDEST POP POP POP POP PUSH1 0x40 MLOAD RETURNDATASIZE PUSH1 0x1F NOT PUSH1 0x1F DUP3 ADD AND DUP3 ADD DUP1 PUSH1 0x40 MSTORE POP DUP2 ADD SWAP1 PUSH2 0x15BC SWAP2 SWAP1 PUSH2 0x3721 JUMP JUMPDEST PUSH2 0x14AD JUMPI PUSH1 0x40 MLOAD PUSH3 0x461BCD PUSH1 0xE5 SHL DUP2 MSTORE PUSH1 0x20 PUSH1 0x4 DUP3 ADD MSTORE PUSH1 0x18 PUSH1 0x24 DUP3 ADD MSTORE PUSH32 0x537461626C65636F696E20726566756E64206661696C65640000000000000000 PUSH1 0x44 DUP3 ADD MSTORE PUSH1 0x64 ADD PUSH2 0x2B6 JUMP JUMPDEST PUSH1 0x40 MLOAD PUSH3 0x461BCD PUSH1 0xE5 SHL DUP2 MSTORE PUSH1 0x20 PUSH1 0x4 DUP3 ADD MSTORE PUSH1 0x25 PUSH1 0x24 DUP3 ADD MSTORE PUSH32 0x556E737570706F72746564207061796D656E74206D6574686F6420666F722072 PUSH1 0x44 DUP3 ADD MSTORE PUSH5 0x19599D5B99 PUSH1 0xDA SHL PUSH1 0x64 DUP3 ADD MSTORE PUSH1 0x84 ADD PUSH2 0x2B6 JUMP JUMPDEST CALLER PUSH1 0x1 PUSH1 0x1 PUSH1 0xA0 SHL SUB AND PUSH32 0x2F7DD91B1411487B2BE64464150A4D8637D501759748B8E0BC5B64DE2D1BC1FD DUP8 DUP4 DUP6 PUSH1 0x40 MLOAD PUSH2 0x169B SWAP4 SWAP3 SWAP2 SWAP1 PUSH2 0x373C JUMP JUMPDEST PUSH1 0x40 MLOAD DUP1 SWAP2 SUB SWAP1 LOG2 JUMPDEST POP POP PUSH1 0x1 ADD PUSH2 0x133B JUMP JUMPDEST POP DUP1 PUSH0 SUB PUSH2 0x16FE JUMPI PUSH1 0x40 MLOAD PUSH3 0x461BCD PUSH1 0xE5 SHL DUP2 MSTORE PUSH1 0x20 PUSH1 0x4 DUP3 ADD DUP2 SWAP1 MSTORE PUSH1 0x24 DUP3 ADD MSTORE PUSH32 0x4E6F2066756E647320746F20726566756E6420666F7220746869732073616C65 PUSH1 0x44 DUP3 ADD MSTORE PUSH1 0x64 ADD PUSH2 0x2B6 JUMP JUMPDEST POP POP PUSH2 0x1709 PUSH1 0x1 DUP1 SSTORE JUMP JUMPDEST POP JUMP JUMPDEST PUSH2 0x1714 PUSH2 0x21C8 JUMP JUMPDEST PUSH2 0xF1A PUSH0 PUSH2 0x2334 JUMP JUMPDEST PUSH0 DUP2 ISZERO DUP1 ISZERO SWAP1 PUSH2 0x172F JUMPI POP PUSH1 0x8 SLOAD DUP3 GT ISZERO JUMPDEST PUSH2 0x174B JUMPI PUSH1 0x40 MLOAD PUSH3 0x461BCD PUSH1 0xE5 SHL DUP2 MSTORE PUSH1 0x4 ADD PUSH2 0x2B6 SWAP1 PUSH2 0x36F8 JUMP JUMPDEST POP PUSH0 SWAP1 DUP2 MSTORE PUSH1 0xC PUSH1 0x20 MSTORE PUSH1 0x40 SWAP1 KECCAK256 PUSH1 0x2 DUP2 ADD SLOAD PUSH1 0x6 SWAP1 SWAP2 ADD SLOAD LT ISZERO SWAP1 JUMP JUMPDEST PUSH0 PUSH2 0xA5F DUP3 PUSH5 0xE8D4A51000 PUSH2 0x334F JUMP JUMPDEST PUSH2 0x1781 PUSH2 0x21C8 JUMP JUMPDEST PUSH2 0xF1A PUSH2 0x2383 JUMP JUMPDEST PUSH2 0x1791 PUSH2 0x2310 JUMP JUMPDEST PUSH1 0xB SLOAD PUSH1 0xFF AND ISZERO PUSH2 0x17B4 JUMPI PUSH1 0x40 MLOAD PUSH3 0x461BCD PUSH1 0xE5 SHL DUP2 MSTORE PUSH1 0x4 ADD PUSH2 0x2B6 SWAP1 PUSH2 0x352E JUMP JUMPDEST CALLER PUSH0 SWAP1 DUP2 MSTORE PUSH1 0xE PUSH1 0x20 MSTORE PUSH1 0x40 SWAP1 KECCAK256 SLOAD PUSH1 0xFF AND ISZERO PUSH2 0x1801 JUMPI PUSH1 0x40 MLOAD PUSH3 0x461BCD PUSH1 0xE5 SHL DUP2 MSTORE PUSH1 0x20 PUSH1 0x4 DUP3 ADD MSTORE PUSH1 0xB PUSH1 0x24 DUP3 ADD MSTORE PUSH11 0x109B1858DADB1A5CDD1959 PUSH1 0xAA SHL PUSH1 0x44 DUP3 ADD MSTORE PUSH1 0x64 ADD PUSH2 0x2B6 JUMP JUMPDEST PUSH0 SLOAD PUSH1 0x1 PUSH1 0x1 PUSH1 0xA0 SHL SUB AND CALLER SUB PUSH2 0x184D JUMPI PUSH1 0x40 MLOAD PUSH3 0x461BCD PUSH1 0xE5 SHL DUP2 MSTORE PUSH1 0x20 PUSH1 0x4 DUP3 ADD MSTORE PUSH1 0x10 PUSH1 0x24 DUP3 ADD MSTORE PUSH16 0x13DDDB995C881C995CDD1C9A58DD1959 PUSH1 0x82 SHL PUSH1 0x44 DUP3 ADD MSTORE PUSH1 0x64 ADD PUSH2 0x2B6 JUMP JUMPDEST PUSH0 PUSH2 0x1856 PUSH2 0xDE0 JUMP JUMPDEST SWAP1 POP DUP1 PUSH0 SUB PUSH2 0x1898 JUMPI PUSH1 0x40 MLOAD PUSH3 0x461BCD PUSH1 0xE5 SHL DUP2 MSTORE PUSH1 0x20 PUSH1 0x4 DUP3 ADD MSTORE PUSH1 0xE PUSH1 0x24 DUP3 ADD MSTORE PUSH14 0x4E6F206163746976652073616C65 PUSH1 0x90 SHL PUSH1 0x44 DUP3 ADD MSTORE PUSH1 0x64 ADD PUSH2 0x2B6 JUMP JUMPDEST PUSH0 DUP2 DUP2 MSTORE PUSH1 0xC PUSH1 0x20 MSTORE PUSH1 0x40 SWAP1 KECCAK256 PUSH1 0xB DUP2 ADD SLOAD PUSH2 0x100 SWAP1 DIV PUSH1 0xFF AND ISZERO PUSH2 0x18F0 JUMPI PUSH1 0x40 MLOAD PUSH3 0x461BCD PUSH1 0xE5 SHL DUP2 MSTORE PUSH1 0x20 PUSH1 0x4 DUP3 ADD MSTORE PUSH1 0xE PUSH1 0x24 DUP3 ADD MSTORE PUSH14 0x14D85B1948199A5B985B1A5E9959 PUSH1 0x92 SHL PUSH1 0x44 DUP3 ADD MSTORE PUSH1 0x64 ADD PUSH2 0x2B6 JUMP JUMPDEST PUSH2 0x18FA DUP3 CALLER PUSH2 0x23C0 JUMP JUMPDEST POP PUSH0 PUSH2 0x1906 DUP6 DUP6 PUSH2 0xE72 JUMP JUMPDEST PUSH0 DUP5 DUP2 MSTORE PUSH1 0x13 PUSH1 0x20 SWAP1 DUP2 MSTORE PUSH1 0x40 DUP1 DUP4 KECCAK256 CALLER DUP5 MSTORE SWAP1 SWAP2 MSTORE SWAP1 KECCAK256 SLOAD PUSH2 0x1929 SWAP2 SWAP1 PUSH2 0x355D JUMP JUMPDEST SWAP1 POP PUSH2 0x196A PUSH1 0x40 MLOAD DUP1 PUSH1 0x40 ADD PUSH1 0x40 MSTORE DUP1 PUSH1 0x1B DUP2 MSTORE PUSH1 0x20 ADD PUSH32 0x3D3D3D3D3D3D3D3D3D3D75736572546F74616C50757263686173650000000000 DUP2 MSTORE POP DUP3 PUSH2 0x21F4 JUMP JUMPDEST PUSH0 PUSH2 0x1976 DUP7 DUP7 DUP7 PUSH2 0x249C JUMP JUMPDEST SWAP1 POP DUP1 PUSH0 SUB PUSH2 0x19BE JUMPI PUSH1 0x40 MLOAD PUSH3 0x461BCD PUSH1 0xE5 SHL DUP2 MSTORE PUSH1 0x20 PUSH1 0x4 DUP3 ADD MSTORE PUSH1 0x14 PUSH1 0x24 DUP3 ADD MSTORE PUSH20 0x125B9D985B1A59081D1BDAD95B88185B5BDD5B9D PUSH1 0x62 SHL PUSH1 0x44 DUP3 ADD MSTORE PUSH1 0x64 ADD PUSH2 0x2B6 JUMP JUMPDEST PUSH0 PUSH2 0x19D2 DUP5 PUSH1 0x4 ADD SLOAD DUP4 PUSH2 0x637 SWAP2 SWAP1 PUSH2 0x334F JUMP JUMPDEST SWAP1 POP PUSH2 0x1A13 PUSH1 0x40 MLOAD DUP1 PUSH1 0x40 ADD PUSH1 0x40 MSTORE DUP1 PUSH1 0x18 DUP2 MSTORE PUSH1 0x20 ADD PUSH32 0x3D3D3D3D3D3D3D3D3D3D746F74616C436F7374496E5553440000000000000000 DUP2 MSTORE POP DUP3 PUSH2 0x21F4 JUMP JUMPDEST DUP4 PUSH1 0x3 ADD SLOAD DUP2 DUP6 PUSH1 0x6 ADD SLOAD PUSH2 0x1A28 SWAP2 SWAP1 PUSH2 0x355D JUMP JUMPDEST GT ISZERO PUSH2 0x1A69 JUMPI PUSH1 0x40 MLOAD PUSH3 0x461BCD PUSH1 0xE5 SHL DUP2 MSTORE PUSH1 0x20 PUSH1 0x4 DUP3 ADD MSTORE PUSH1 0x10 PUSH1 0x24 DUP3 ADD MSTORE PUSH16 0x12185C990818D85C081C995858DA1959 PUSH1 0x82 SHL PUSH1 0x44 DUP3 ADD MSTORE PUSH1 0x64 ADD PUSH2 0x2B6 JUMP JUMPDEST PUSH2 0x1A75 CALLER DUP7 DUP5 DUP5 PUSH2 0x279A JUMP JUMPDEST PUSH2 0x1A80 CALLER DUP7 DUP5 PUSH2 0x28EE JUMP JUMPDEST PUSH32 0xDBCEF474A632721725D49E3F35D9DEFE0257100B01D1E4B4B135B14D6FE296E8 CALLER DUP7 DUP5 DUP8 PUSH1 0x4 ADD SLOAD CALLVALUE DUP13 PUSH1 0x40 MLOAD PUSH2 0x1ABD SWAP7 SWAP6 SWAP5 SWAP4 SWAP3 SWAP2 SWAP1 PUSH2 0x375F JUMP JUMPDEST PUSH1 0x40 MLOAD DUP1 SWAP2 SUB SWAP1 LOG1 POP POP POP POP POP POP POP JUMP JUMPDEST PUSH0 PUSH2 0xA5F PUSH8 0xDE0B6B3A7640000 DUP4 PUSH2 0x3467 JUMP JUMPDEST PUSH0 PUSH2 0xA5F DUP3 PUSH5 0x2540BE400 PUSH2 0x334F JUMP JUMPDEST PUSH2 0x1AF9 PUSH2 0x22E6 JUMP JUMPDEST PUSH2 0x1B01 PUSH2 0x21C8 JUMP JUMPDEST PUSH2 0x1B09 PUSH2 0x2310 JUMP JUMPDEST PUSH1 0xB SLOAD PUSH1 0xFF AND ISZERO PUSH2 0x1B2C JUMPI PUSH1 0x40 MLOAD PUSH3 0x461BCD PUSH1 0xE5 SHL DUP2 MSTORE PUSH1 0x4 ADD PUSH2 0x2B6 SWAP1 PUSH2 0x352E JUMP JUMPDEST PUSH1 0x8 SLOAD PUSH1 0x1 SWAP1 DUP2 SWAP1 DUP2 JUMPDEST DUP2 DUP2 GT PUSH2 0x1BC9 JUMPI PUSH0 DUP2 DUP2 MSTORE PUSH1 0xC PUSH1 0x20 MSTORE PUSH1 0x40 SWAP1 KECCAK256 PUSH1 0x3 DUP2 ADD SLOAD PUSH1 0x6 DUP3 ADD SLOAD LT ISZERO PUSH2 0x1B5E JUMPI PUSH0 SWAP5 POP JUMPDEST DUP1 PUSH1 0x2 ADD SLOAD DUP2 PUSH1 0x6 ADD SLOAD LT ISZERO DUP1 PUSH2 0x1B78 JUMPI POP DUP1 PUSH1 0x1 ADD SLOAD TIMESTAMP GT JUMPDEST ISZERO PUSH2 0x1B81 JUMPI PUSH0 SWAP4 POP JUMPDEST DUP1 PUSH1 0x1 ADD SLOAD TIMESTAMP LT ISZERO DUP1 ISZERO PUSH2 0x1B9F JUMPI POP PUSH1 0xB DUP2 ADD SLOAD PUSH2 0x100 SWAP1 DIV PUSH1 0xFF AND ISZERO JUMPDEST ISZERO PUSH2 0x1BB6 JUMPI PUSH1 0xB DUP2 ADD DUP1 SLOAD PUSH2 0xFF00 NOT AND PUSH2 0x100 OR SWAP1 SSTORE JUMPDEST POP DUP1 PUSH2 0x1BC1 DUP2 PUSH2 0x34ED JUMP JUMPDEST SWAP2 POP POP PUSH2 0x1B36 JUMP JUMPDEST POP DUP3 DUP1 PUSH2 0x1BD3 JUMPI POP DUP2 JUMPDEST ISZERO PUSH2 0x1C1E JUMPI PUSH1 0xB DUP1 SLOAD PUSH1 0xFF NOT AND PUSH1 0x1 OR SWAP1 SSTORE PUSH2 0x1BEE DUP5 PUSH2 0x2C28 JUMP JUMPDEST PUSH1 0xA SLOAD PUSH1 0x40 MLOAD PUSH32 0x9C4B134DA32AAB35252391880A9F2A3C13A760D7817AE8823F2B301D3522045A SWAP1 PUSH0 SWAP1 LOG2 PUSH2 0x1C58 JUMP JUMPDEST PUSH1 0x40 MLOAD PUSH3 0x461BCD PUSH1 0xE5 SHL DUP2 MSTORE PUSH1 0x20 PUSH1 0x4 DUP3 ADD MSTORE PUSH1 0xF PUSH1 0x24 DUP3 ADD MSTORE PUSH15 0x43616E6E6F742066696E616C697A65 PUSH1 0x88 SHL PUSH1 0x44 DUP3 ADD MSTORE PUSH1 0x64 ADD PUSH2 0x2B6 JUMP JUMPDEST POP POP POP PUSH2 0x1709 PUSH1 0x1 DUP1 SSTORE JUMP JUMPDEST PUSH2 0x1C6C PUSH2 0x21C8 JUMP JUMPDEST PUSH1 0x1 PUSH1 0x1 PUSH1 0xA0 SHL SUB DUP2 AND PUSH2 0x1C92 JUMPI PUSH1 0x40 MLOAD PUSH3 0x461BCD PUSH1 0xE5 SHL DUP2 MSTORE PUSH1 0x4 ADD PUSH2 0x2B6 SWAP1 PUSH2 0x3505 JUMP JUMPDEST PUSH1 0x1 PUSH1 0x1 PUSH1 0xA0 SHL SUB DUP2 AND PUSH0 SWAP1 DUP2 MSTORE PUSH1 0xD PUSH1 0x20 MSTORE PUSH1 0x40 SWAP1 KECCAK256 SLOAD PUSH1 0xFF AND ISZERO PUSH2 0x1CD6 JUMPI PUSH1 0x1 PUSH1 0x1 PUSH1 0xA0 SHL SUB DUP2 AND PUSH0 SWAP1 DUP2 MSTORE PUSH1 0xD PUSH1 0x20 MSTORE PUSH1 0x40 SWAP1 KECCAK256 DUP1 SLOAD PUSH1 0xFF NOT AND SWAP1 SSTORE PUSH2 0x1D16 JUMP JUMPDEST PUSH1 0x1 PUSH1 0x1 PUSH1 0xA0 SHL SUB DUP2 AND PUSH0 SWAP1 DUP2 MSTORE PUSH1 0xE PUSH1 0x20 MSTORE PUSH1 0x40 SWAP1 KECCAK256 SLOAD PUSH1 0xFF AND ISZERO PUSH2 0x1D16 JUMPI PUSH1 0x1 PUSH1 0x1 PUSH1 0xA0 SHL SUB DUP2 AND PUSH0 SWAP1 DUP2 MSTORE PUSH1 0xE PUSH1 0x20 MSTORE PUSH1 0x40 SWAP1 KECCAK256 DUP1 SLOAD PUSH1 0xFF NOT AND SWAP1 SSTORE JUMPDEST PUSH1 0x40 MLOAD PUSH1 0x1 PUSH1 0x1 PUSH1 0xA0 SHL SUB DUP3 AND SWAP1 PUSH32 0xD5326EC3722C1B91194A873EBD0875236E62C0932B88AFA648564955FD47DB11 SWAP1 PUSH0 SWAP1 LOG2 POP JUMP JUMPDEST PUSH0 PUSH2 0xA5F PUSH5 0x2540BE400 DUP4 PUSH2 0x3467 JUMP JUMPDEST PUSH1 0xC PUSH1 0x20 MSTORE DUP1 PUSH0 MSTORE PUSH1 0x40 PUSH0 KECCAK256 PUSH0 SWAP2 POP SWAP1 POP DUP1 PUSH0 ADD SLOAD SWAP1 DUP1 PUSH1 0x1 ADD SLOAD SWAP1 DUP1 PUSH1 0x2 ADD SLOAD SWAP1 DUP1 PUSH1 0x3 ADD SLOAD SWAP1 DUP1 PUSH1 0x4 ADD SLOAD SWAP1 DUP1 PUSH1 0x5 ADD SLOAD SWAP1 DUP1 PUSH1 0x6 ADD SLOAD SWAP1 DUP1 PUSH1 0x7 ADD SLOAD SWAP1 DUP1 PUSH1 0x8 ADD SLOAD SWAP1 DUP1 PUSH1 0xA ADD DUP1 SLOAD PUSH2 0x1DB1 SWAP1 PUSH2 0x3570 JUMP JUMPDEST DUP1 PUSH1 0x1F ADD PUSH1 0x20 DUP1 SWAP2 DIV MUL PUSH1 0x20 ADD PUSH1 0x40 MLOAD SWAP1 DUP2 ADD PUSH1 0x40 MSTORE DUP1 SWAP3 SWAP2 SWAP1 DUP2 DUP2 MSTORE PUSH1 0x20 ADD DUP3 DUP1 SLOAD PUSH2 0x1DDD SWAP1 PUSH2 0x3570 JUMP JUMPDEST DUP1 ISZERO PUSH2 0x1E28 JUMPI DUP1 PUSH1 0x1F LT PUSH2 0x1DFF JUMPI PUSH2 0x100 DUP1 DUP4 SLOAD DIV MUL DUP4 MSTORE SWAP2 PUSH1 0x20 ADD SWAP2 PUSH2 0x1E28 JUMP JUMPDEST DUP3 ADD SWAP2 SWAP1 PUSH0 MSTORE PUSH1 0x20 PUSH0 KECCAK256 SWAP1 JUMPDEST DUP2 SLOAD DUP2 MSTORE SWAP1 PUSH1 0x1 ADD SWAP1 PUSH1 0x20 ADD DUP1 DUP4 GT PUSH2 0x1E0B JUMPI DUP3 SWAP1 SUB PUSH1 0x1F AND DUP3 ADD SWAP2 JUMPDEST POP POP POP PUSH1 0xB SWAP1 SWAP4 ADD SLOAD SWAP2 SWAP3 POP POP PUSH1 0xFF DUP1 DUP3 AND SWAP2 PUSH2 0x100 DUP2 DIV DUP3 AND SWAP2 PUSH3 0x10000 SWAP1 SWAP2 DIV AND DUP14 JUMP JUMPDEST PUSH0 DUP1 PUSH0 PUSH1 0xC PUSH0 DUP6 DUP2 MSTORE PUSH1 0x20 ADD SWAP1 DUP2 MSTORE PUSH1 0x20 ADD PUSH0 KECCAK256 PUSH1 0x40 MLOAD DUP1 PUSH2 0x1C0 ADD PUSH1 0x40 MSTORE SWAP1 DUP2 PUSH0 DUP3 ADD SLOAD DUP2 MSTORE PUSH1 0x20 ADD PUSH1 0x1 DUP3 ADD SLOAD DUP2 MSTORE PUSH1 0x20 ADD PUSH1 0x2 DUP3 ADD SLOAD DUP2 MSTORE PUSH1 0x20 ADD PUSH1 0x3 DUP3 ADD SLOAD DUP2 MSTORE PUSH1 0x20 ADD PUSH1 0x4 DUP3 ADD SLOAD DUP2 MSTORE PUSH1 0x20 ADD PUSH1 0x5 DUP3 ADD SLOAD DUP2 MSTORE PUSH1 0x20 ADD PUSH1 0x6 DUP3 ADD SLOAD DUP2 MSTORE PUSH1 0x20 ADD PUSH1 0x7 DUP3 ADD SLOAD DUP2 MSTORE PUSH1 0x20 ADD PUSH1 0x8 DUP3 ADD SLOAD DUP2 MSTORE PUSH1 0x20 ADD PUSH1 0x9 DUP3 ADD DUP1 SLOAD DUP1 PUSH1 0x20 MUL PUSH1 0x20 ADD PUSH1 0x40 MLOAD SWAP1 DUP2 ADD PUSH1 0x40 MSTORE DUP1 SWAP3 SWAP2 SWAP1 DUP2 DUP2 MSTORE PUSH1 0x20 ADD DUP3 DUP1 SLOAD DUP1 ISZERO PUSH2 0x1F1E JUMPI PUSH1 0x20 MUL DUP3 ADD SWAP2 SWAP1 PUSH0 MSTORE PUSH1 0x20 PUSH0 KECCAK256 SWAP1 JUMPDEST DUP2 SLOAD PUSH1 0x1 PUSH1 0x1 PUSH1 0xA0 SHL SUB AND DUP2 MSTORE PUSH1 0x1 SWAP1 SWAP2 ADD SWAP1 PUSH1 0x20 ADD DUP1 DUP4 GT PUSH2 0x1F00 JUMPI JUMPDEST POP POP POP POP POP DUP2 MSTORE PUSH1 0x20 ADD PUSH1 0xA DUP3 ADD DUP1 SLOAD PUSH2 0x1F37 SWAP1 PUSH2 0x3570 JUMP JUMPDEST DUP1 PUSH1 0x1F ADD PUSH1 0x20 DUP1 SWAP2 DIV MUL PUSH1 0x20 ADD PUSH1 0x40 MLOAD SWAP1 DUP2 ADD PUSH1 0x40 MSTORE DUP1 SWAP3 SWAP2 SWAP1 DUP2 DUP2 MSTORE PUSH1 0x20 ADD DUP3 DUP1 SLOAD PUSH2 0x1F63 SWAP1 PUSH2 0x3570 JUMP JUMPDEST DUP1 ISZERO PUSH2 0x1FAE JUMPI DUP1 PUSH1 0x1F LT PUSH2 0x1F85 JUMPI PUSH2 0x100 DUP1 DUP4 SLOAD DIV MUL DUP4 MSTORE SWAP2 PUSH1 0x20 ADD SWAP2 PUSH2 0x1FAE JUMP JUMPDEST DUP3 ADD SWAP2 SWAP1 PUSH0 MSTORE PUSH1 0x20 PUSH0 KECCAK256 SWAP1 JUMPDEST DUP2 SLOAD DUP2 MSTORE SWAP1 PUSH1 0x1 ADD SWAP1 PUSH1 0x20 ADD DUP1 DUP4 GT PUSH2 0x1F91 JUMPI DUP3 SWAP1 SUB PUSH1 0x1F AND DUP3 ADD SWAP2 JUMPDEST POP POP POP SWAP2 DUP4 MSTORE POP POP PUSH1 0xB SWAP2 SWAP1 SWAP2 ADD SLOAD PUSH1 0xFF DUP1 DUP3 AND ISZERO ISZERO PUSH1 0x20 DUP1 DUP6 ADD SWAP2 SWAP1 SWAP2 MSTORE PUSH2 0x100 DUP4 DIV DUP3 AND ISZERO ISZERO PUSH1 0x40 DUP6 ADD MSTORE PUSH3 0x10000 SWAP1 SWAP3 DIV AND ISZERO ISZERO PUSH1 0x60 SWAP1 SWAP3 ADD SWAP2 SWAP1 SWAP2 MSTORE DUP2 MLOAD SWAP2 ADD MLOAD SWAP1 SWAP6 SWAP1 SWAP5 POP SWAP3 POP POP POP JUMP JUMPDEST PUSH0 DUP1 DUP3 ISZERO DUP1 ISZERO SWAP1 PUSH2 0x2011 JUMPI POP PUSH1 0x8 SLOAD DUP4 GT ISZERO JUMPDEST PUSH2 0x202D JUMPI PUSH1 0x40 MLOAD PUSH3 0x461BCD PUSH1 0xE5 SHL DUP2 MSTORE PUSH1 0x4 ADD PUSH2 0x2B6 SWAP1 PUSH2 0x36F8 JUMP JUMPDEST POP POP PUSH0 DUP2 DUP2 MSTORE PUSH1 0xC PUSH1 0x20 MSTORE PUSH1 0x40 DUP2 KECCAK256 PUSH1 0x9 DUP2 ADD SLOAD PUSH1 0x8 SLOAD SWAP1 SWAP3 SWAP2 SWAP1 PUSH1 0x1 JUMPDEST DUP2 DUP2 GT PUSH2 0x2081 JUMPI PUSH0 DUP2 DUP2 MSTORE PUSH1 0xC PUSH1 0x20 MSTORE PUSH1 0x40 SWAP1 KECCAK256 PUSH1 0x9 ADD SLOAD PUSH2 0x206D SWAP1 DUP6 PUSH2 0x355D JUMP JUMPDEST SWAP4 POP DUP1 PUSH2 0x2079 DUP2 PUSH2 0x34ED JUMP JUMPDEST SWAP2 POP POP PUSH2 0x204B JUMP JUMPDEST POP POP POP SWAP2 POP SWAP2 JUMP JUMPDEST PUSH2 0x2091 PUSH2 0x21C8 JUMP JUMPDEST PUSH1 0x1 PUSH1 0x1 PUSH1 0xA0 SHL SUB DUP2 AND PUSH2 0x20BA JUMPI PUSH1 0x40 MLOAD PUSH4 0x1E4FBDF7 PUSH1 0xE0 SHL DUP2 MSTORE PUSH0 PUSH1 0x4 DUP3 ADD MSTORE PUSH1 0x24 ADD PUSH2 0x2B6 JUMP JUMPDEST PUSH2 0x1709 DUP2 PUSH2 0x2334 JUMP JUMPDEST PUSH0 DUP2 ISZERO DUP1 ISZERO SWAP1 PUSH2 0x20D5 JUMPI POP PUSH1 0x8 SLOAD DUP3 GT ISZERO JUMPDEST PUSH2 0x20F1 JUMPI PUSH1 0x40 MLOAD PUSH3 0x461BCD PUSH1 0xE5 SHL DUP2 MSTORE PUSH1 0x4 ADD PUSH2 0x2B6 SWAP1 PUSH2 0x36F8 JUMP JUMPDEST POP PUSH0 SWAP1 DUP2 MSTORE PUSH1 0xC PUSH1 0x20 MSTORE PUSH1 0x40 SWAP1 KECCAK256 PUSH1 0x3 DUP2 ADD SLOAD PUSH1 0x6 SWAP1 SWAP2 ADD SLOAD LT ISZERO SWAP1 JUMP JUMPDEST PUSH2 0x2117 PUSH2 0x21C8 JUMP JUMPDEST PUSH1 0x1 PUSH1 0x1 PUSH1 0xA0 SHL SUB DUP2 AND PUSH2 0x213D JUMPI PUSH1 0x40 MLOAD PUSH3 0x461BCD PUSH1 0xE5 SHL DUP2 MSTORE PUSH1 0x4 ADD PUSH2 0x2B6 SWAP1 PUSH2 0x3505 JUMP JUMPDEST PUSH1 0x1 PUSH1 0x1 PUSH1 0xA0 SHL SUB DUP2 AND PUSH0 SWAP1 DUP2 MSTORE PUSH1 0xD PUSH1 0x20 MSTORE PUSH1 0x40 SWAP1 KECCAK256 SLOAD PUSH1 0xFF AND ISZERO PUSH2 0x217D JUMPI PUSH1 0x1 PUSH1 0x1 PUSH1 0xA0 SHL SUB DUP2 AND PUSH0 SWAP1 DUP2 MSTORE PUSH1 0xD PUSH1 0x20 MSTORE PUSH1 0x40 SWAP1 KECCAK256 DUP1 SLOAD PUSH1 0xFF NOT AND SWAP1 SSTORE JUMPDEST PUSH1 0x1 PUSH1 0x1 PUSH1 0xA0 SHL SUB DUP2 AND PUSH0 DUP2 DUP2 MSTORE PUSH1 0xE PUSH1 0x20 MSTORE PUSH1 0x40 DUP1 DUP3 KECCAK256 DUP1 SLOAD PUSH1 0xFF NOT AND PUSH1 0x1 OR SWAP1 SSTORE MLOAD PUSH32 0xFFA4E6181777692565CF28528FC88FD1516EA86B56DA075235FA575AF6A4B855 SWAP2 SWAP1 LOG2 POP JUMP JUMPDEST PUSH0 SLOAD PUSH1 0x1 PUSH1 0x1 PUSH1 0xA0 SHL SUB AND CALLER EQ PUSH2 0xF1A JUMPI PUSH1 0x40 MLOAD PUSH4 0x118CDAA7 PUSH1 0xE0 SHL DUP2 MSTORE CALLER PUSH1 0x4 DUP3 ADD MSTORE PUSH1 0x24 ADD PUSH2 0x2B6 JUMP JUMPDEST PUSH2 0x2239 DUP3 DUP3 PUSH1 0x40 MLOAD PUSH1 0x24 ADD PUSH2 0x220A SWAP3 SWAP2 SWAP1 PUSH2 0x37A3 JUMP JUMPDEST PUSH1 0x40 DUP1 MLOAD PUSH1 0x1F NOT DUP2 DUP5 SUB ADD DUP2 MSTORE SWAP2 SWAP1 MSTORE PUSH1 0x20 DUP2 ADD DUP1 MLOAD PUSH1 0x1 PUSH1 0x1 PUSH1 0xE0 SHL SUB AND PUSH4 0x2D839CB3 PUSH1 0xE2 SHL OR SWAP1 MSTORE PUSH2 0x2FB4 JUMP JUMPDEST POP POP JUMP JUMPDEST PUSH2 0x2245 PUSH2 0x2FBD JUMP JUMPDEST PUSH1 0x2 DUP1 SLOAD PUSH1 0xFF NOT AND SWAP1 SSTORE PUSH32 0x5DB9EE0A495BF2E6FF9C91A7834C1BA4FDD244A5E8AA4E537BD38AEAE4B073AA CALLER JUMPDEST PUSH1 0x40 MLOAD PUSH1 0x1 PUSH1 0x1 PUSH1 0xA0 SHL SUB SWAP1 SWAP2 AND DUP2 MSTORE PUSH1 0x20 ADD PUSH1 0x40 MLOAD DUP1 SWAP2 SUB SWAP1 LOG1 JUMP JUMPDEST PUSH1 0x8 SLOAD PUSH0 SWAP1 DUP2 SWAP1 PUSH1 0x1 JUMPDEST DUP2 DUP2 GT PUSH2 0x22DE JUMPI PUSH0 DUP2 DUP2 MSTORE PUSH1 0xC PUSH1 0x20 MSTORE PUSH1 0x40 SWAP1 KECCAK256 PUSH1 0x1 ADD SLOAD DUP4 LT ISZERO PUSH2 0x22CC JUMPI PUSH0 DUP2 DUP2 MSTORE PUSH1 0xC PUSH1 0x20 MSTORE PUSH1 0x40 SWAP1 KECCAK256 PUSH1 0x1 ADD SLOAD SWAP3 POP JUMPDEST DUP1 PUSH2 0x22D6 DUP2 PUSH2 0x34ED JUMP JUMPDEST SWAP2 POP POP PUSH2 0x2299 JUMP JUMPDEST POP SWAP1 SWAP3 SWAP2 POP POP JUMP JUMPDEST PUSH1 0x2 PUSH1 0x1 SLOAD SUB PUSH2 0x2309 JUMPI PUSH1 0x40 MLOAD PUSH4 0x3EE5AEB5 PUSH1 0xE0 SHL DUP2 MSTORE PUSH1 0x4 ADD PUSH1 0x40 MLOAD DUP1 SWAP2 SUB SWAP1 REVERT JUMPDEST PUSH1 0x2 PUSH1 0x1 SSTORE JUMP JUMPDEST PUSH1 0x2 SLOAD PUSH1 0xFF AND ISZERO PUSH2 0xF1A JUMPI PUSH1 0x40 MLOAD PUSH4 0xD93C0665 PUSH1 0xE0 SHL DUP2 MSTORE PUSH1 0x4 ADD PUSH1 0x40 MLOAD DUP1 SWAP2 SUB SWAP1 REVERT JUMPDEST PUSH0 DUP1 SLOAD PUSH1 0x1 PUSH1 0x1 PUSH1 0xA0 SHL SUB DUP4 DUP2 AND PUSH1 0x1 PUSH1 0x1 PUSH1 0xA0 SHL SUB NOT DUP4 AND DUP2 OR DUP5 SSTORE PUSH1 0x40 MLOAD SWAP2 SWAP1 SWAP3 AND SWAP3 DUP4 SWAP2 PUSH32 0x8BE0079C531659141344CD1FD0A4F28419497F9722A3DAAFE3B4186F6B6457E0 SWAP2 SWAP1 LOG3 POP POP JUMP JUMPDEST PUSH2 0x238B PUSH2 0x2310 JUMP JUMPDEST PUSH1 0x2 DUP1 SLOAD PUSH1 0xFF NOT AND PUSH1 0x1 OR SWAP1 SSTORE PUSH32 0x62E78CEA01BEE320CD4E420270B5EA74000D11B0C9F74754EBDBFC544B05A258 PUSH2 0x2272 CALLER SWAP1 JUMP JUMPDEST PUSH0 DUP3 ISZERO DUP1 ISZERO SWAP1 PUSH2 0x23D2 JUMPI POP PUSH1 0x8 SLOAD DUP4 GT ISZERO JUMPDEST PUSH2 0x23EE JUMPI PUSH1 0x40 MLOAD PUSH3 0x461BCD PUSH1 0xE5 SHL DUP2 MSTORE PUSH1 0x4 ADD PUSH2 0x2B6 SWAP1 PUSH2 0x36F8 JUMP JUMPDEST PUSH0 DUP4 DUP2 MSTORE PUSH1 0xC PUSH1 0x20 MSTORE PUSH1 0x40 SWAP1 KECCAK256 PUSH1 0xB DUP2 ADD SLOAD PUSH1 0xFF AND PUSH2 0x247B JUMPI PUSH1 0x6 SLOAD PUSH1 0x40 MLOAD PUSH4 0x237F1A21 PUSH1 0xE0 SHL DUP2 MSTORE PUSH1 0x1 PUSH1 0x1 PUSH1 0xA0 SHL SUB DUP6 DUP2 AND PUSH1 0x4 DUP4 ADD MSTORE SWAP1 SWAP2 AND SWAP1 PUSH4 0x237F1A21 SWAP1 PUSH1 0x24 ADD PUSH1 0x20 PUSH1 0x40 MLOAD DUP1 DUP4 SUB DUP2 DUP7 GAS STATICCALL ISZERO DUP1 ISZERO PUSH2 0x244F JUMPI RETURNDATASIZE PUSH0 DUP1 RETURNDATACOPY RETURNDATASIZE PUSH0 REVERT JUMPDEST POP POP POP POP PUSH1 0x40 MLOAD RETURNDATASIZE PUSH1 0x1F NOT PUSH1 0x1F DUP3 ADD AND DUP3 ADD DUP1 PUSH1 0x40 MSTORE POP DUP2 ADD SWAP1 PUSH2 0x2473 SWAP2 SWAP1 PUSH2 0x3721 JUMP JUMPDEST SWAP2 POP POP PUSH2 0xA5F JUMP JUMPDEST POP POP PUSH1 0x1 PUSH1 0x1 PUSH1 0xA0 SHL SUB AND PUSH0 SWAP1 DUP2 MSTORE PUSH1 0xD PUSH1 0x20 MSTORE PUSH1 0x40 SWAP1 KECCAK256 SLOAD PUSH1 0xFF AND SWAP2 SWAP1 POP JUMP JUMPDEST PUSH0 DUP1 DUP5 PUSH1 0x2 DUP2 GT ISZERO PUSH2 0x24B0 JUMPI PUSH2 0x24B0 PUSH2 0x32BE JUMP JUMPDEST SUB PUSH2 0x2540 JUMPI CALLVALUE PUSH0 SUB PUSH2 0x24F2 JUMPI PUSH1 0x40 MLOAD PUSH3 0x461BCD PUSH1 0xE5 SHL DUP2 MSTORE PUSH1 0x20 PUSH1 0x4 DUP3 ADD MSTORE PUSH1 0xB PUSH1 0x24 DUP3 ADD MSTORE PUSH11 0x24B73B30B634B210212721 PUSH1 0xA9 SHL PUSH1 0x44 DUP3 ADD MSTORE PUSH1 0x64 ADD PUSH2 0x2B6 JUMP JUMPDEST PUSH0 PUSH2 0x24FD DUP6 CALLVALUE PUSH2 0x8E8 JUMP JUMPDEST PUSH0 DUP5 DUP2 MSTORE PUSH1 0x12 PUSH1 0x20 SWAP1 DUP2 MSTORE PUSH1 0x40 DUP1 DUP4 KECCAK256 CALLER DUP5 MSTORE DUP3 MSTORE DUP1 DUP4 KECCAK256 DUP4 DUP1 MSTORE SWAP1 SWAP2 MSTORE DUP2 KECCAK256 DUP1 SLOAD SWAP3 SWAP4 POP CALLVALUE SWAP3 SWAP1 SWAP2 SWAP1 PUSH2 0x2532 SWAP1 DUP5 SWAP1 PUSH2 0x355D JUMP JUMPDEST SWAP1 SWAP2 SSTORE POP SWAP1 SWAP2 POP PUSH2 0x2793 SWAP1 POP JUMP JUMPDEST PUSH1 0x1 DUP5 PUSH1 0x2 DUP2 GT ISZERO PUSH2 0x2554 JUMPI PUSH2 0x2554 PUSH2 0x32BE JUMP JUMPDEST EQ DUP1 PUSH2 0x2571 JUMPI POP PUSH1 0x2 DUP5 PUSH1 0x2 DUP2 GT ISZERO PUSH2 0x256F JUMPI PUSH2 0x256F PUSH2 0x32BE JUMP JUMPDEST EQ JUMPDEST ISZERO PUSH2 0x2755 JUMPI DUP3 PUSH0 SUB PUSH2 0x25BA JUMPI PUSH1 0x40 MLOAD PUSH3 0x461BCD PUSH1 0xE5 SHL DUP2 MSTORE PUSH1 0x20 PUSH1 0x4 DUP3 ADD MSTORE PUSH1 0x12 PUSH1 0x24 DUP3 ADD MSTORE PUSH18 0x24B73B30B634B21039BA30B13632B1B7B4B7 PUSH1 0x71 SHL PUSH1 0x44 DUP3 ADD MSTORE PUSH1 0x64 ADD PUSH2 0x2B6 JUMP JUMPDEST PUSH0 PUSH1 0x1 DUP6 PUSH1 0x2 DUP2 GT ISZERO PUSH2 0x25CF JUMPI PUSH2 0x25CF PUSH2 0x32BE JUMP JUMPDEST EQ PUSH2 0x25FA JUMPI PUSH32 0x0 PUSH2 0x261C JUMP JUMPDEST PUSH32 0x0 JUMPDEST PUSH1 0x40 MLOAD PUSH4 0x23B872DD PUSH1 0xE0 SHL DUP2 MSTORE CALLER PUSH1 0x4 DUP3 ADD MSTORE ADDRESS PUSH1 0x24 DUP3 ADD MSTORE PUSH1 0x44 DUP2 ADD DUP7 SWAP1 MSTORE SWAP1 SWAP2 POP PUSH1 0x1 PUSH1 0x1 PUSH1 0xA0 SHL SUB DUP3 AND SWAP1 PUSH4 0x23B872DD SWAP1 PUSH1 0x64 ADD PUSH1 0x20 PUSH1 0x40 MLOAD DUP1 DUP4 SUB DUP2 PUSH0 DUP8 GAS CALL ISZERO DUP1 ISZERO PUSH2 0x266F JUMPI RETURNDATASIZE PUSH0 DUP1 RETURNDATACOPY RETURNDATASIZE PUSH0 REVERT JUMPDEST POP POP POP POP PUSH1 0x40 MLOAD RETURNDATASIZE PUSH1 0x1F NOT PUSH1 0x1F DUP3 ADD AND DUP3 ADD DUP1 PUSH1 0x40 MSTORE POP DUP2 ADD SWAP1 PUSH2 0x2693 SWAP2 SWAP1 PUSH2 0x3721 JUMP JUMPDEST PUSH2 0x26DF JUMPI PUSH1 0x40 MLOAD PUSH3 0x461BCD PUSH1 0xE5 SHL DUP2 MSTORE PUSH1 0x20 PUSH1 0x4 DUP3 ADD MSTORE PUSH1 0x1A PUSH1 0x24 DUP3 ADD MSTORE PUSH32 0x537461626C65636F696E207472616E73666572206661696C6564000000000000 PUSH1 0x44 DUP3 ADD MSTORE PUSH1 0x64 ADD PUSH2 0x2B6 JUMP JUMPDEST PUSH0 PUSH2 0x26EA DUP7 DUP7 PUSH2 0x8E8 JUMP JUMPDEST PUSH0 DUP6 DUP2 MSTORE PUSH1 0x12 PUSH1 0x20 SWAP1 DUP2 MSTORE PUSH1 0x40 DUP1 DUP4 KECCAK256 CALLER DUP5 MSTORE SWAP1 SWAP2 MSTORE DUP2 KECCAK256 SWAP2 SWAP3 POP DUP7 SWAP2 SWAP1 DUP9 PUSH1 0x2 DUP2 GT ISZERO PUSH2 0x271A JUMPI PUSH2 0x271A PUSH2 0x32BE JUMP JUMPDEST PUSH1 0x2 DUP2 GT ISZERO PUSH2 0x272B JUMPI PUSH2 0x272B PUSH2 0x32BE JUMP JUMPDEST DUP2 MSTORE PUSH1 0x20 ADD SWAP1 DUP2 MSTORE PUSH1 0x20 ADD PUSH0 KECCAK256 PUSH0 DUP3 DUP3 SLOAD PUSH2 0x2746 SWAP2 SWAP1 PUSH2 0x355D JUMP JUMPDEST SWAP1 SWAP2 SSTORE POP SWAP1 SWAP3 POP PUSH2 0x2793 SWAP2 POP POP JUMP JUMPDEST PUSH1 0x40 MLOAD PUSH3 0x461BCD PUSH1 0xE5 SHL DUP2 MSTORE PUSH1 0x20 PUSH1 0x4 DUP3 ADD MSTORE PUSH1 0x13 PUSH1 0x24 DUP3 ADD MSTORE PUSH19 0x155B9CDD5C1C1BDC9D1959081C185E5B595B9D PUSH1 0x6A SHL PUSH1 0x44 DUP3 ADD MSTORE PUSH1 0x64 ADD PUSH2 0x2B6 JUMP JUMPDEST SWAP4 SWAP3 POP POP POP JUMP JUMPDEST PUSH0 DUP4 DUP2 MSTORE PUSH1 0xC PUSH1 0x20 SWAP1 DUP2 MSTORE PUSH1 0x40 DUP1 DUP4 KECCAK256 PUSH1 0x1 PUSH1 0x1 PUSH1 0xA0 SHL SUB DUP9 AND DUP5 MSTORE PUSH1 0xF SWAP1 SWAP3 MSTORE DUP3 KECCAK256 DUP1 SLOAD SWAP2 SWAP3 DUP5 SWAP3 PUSH2 0x27CE SWAP1 DUP5 SWAP1 PUSH2 0x355D JUMP JUMPDEST SWAP3 POP POP DUP2 SWAP1 SSTORE POP DUP2 DUP2 PUSH1 0x6 ADD PUSH0 DUP3 DUP3 SLOAD PUSH2 0x27E8 SWAP2 SWAP1 PUSH2 0x355D JUMP JUMPDEST SWAP3 POP POP DUP2 SWAP1 SSTORE POP DUP2 PUSH1 0x9 PUSH0 DUP3 DUP3 SLOAD PUSH2 0x2800 SWAP2 SWAP1 PUSH2 0x355D JUMP JUMPDEST SWAP3 POP POP DUP2 SWAP1 SSTORE POP DUP3 DUP2 PUSH1 0x5 ADD PUSH0 DUP3 DUP3 SLOAD PUSH2 0x281A SWAP2 SWAP1 PUSH2 0x355D JUMP JUMPDEST SWAP3 POP POP DUP2 SWAP1 SSTORE POP DUP3 PUSH1 0xA PUSH0 DUP3 DUP3 SLOAD PUSH2 0x2832 SWAP2 SWAP1 PUSH2 0x355D JUMP JUMPDEST SWAP1 SWAP2 SSTORE POP POP PUSH0 DUP5 DUP2 MSTORE PUSH1 0x13 PUSH1 0x20 SWAP1 DUP2 MSTORE PUSH1 0x40 DUP1 DUP4 KECCAK256 PUSH1 0x1 PUSH1 0x1 PUSH1 0xA0 SHL SUB DUP10 AND DUP5 MSTORE SWAP1 SWAP2 MSTORE DUP2 KECCAK256 DUP1 SLOAD DUP6 SWAP3 SWAP1 PUSH2 0x2868 SWAP1 DUP5 SWAP1 PUSH2 0x355D JUMP JUMPDEST SWAP1 SWAP2 SSTORE POP POP PUSH1 0x1 PUSH1 0x1 PUSH1 0xA0 SHL SUB DUP6 AND PUSH0 SWAP1 DUP2 MSTORE PUSH1 0x10 PUSH1 0x20 MSTORE PUSH1 0x40 DUP2 KECCAK256 SLOAD SWAP1 SUB PUSH2 0x28BB JUMPI PUSH1 0x9 DUP2 ADD DUP1 SLOAD PUSH1 0x1 DUP2 ADD DUP3 SSTORE PUSH0 SWAP2 DUP3 MSTORE PUSH1 0x20 SWAP1 SWAP2 KECCAK256 ADD DUP1 SLOAD PUSH1 0x1 PUSH1 0x1 PUSH1 0xA0 SHL SUB NOT AND PUSH1 0x1 PUSH1 0x1 PUSH1 0xA0 SHL SUB DUP8 AND OR SWAP1 SSTORE JUMPDEST PUSH1 0x1 PUSH1 0x1 PUSH1 0xA0 SHL SUB DUP6 AND PUSH0 SWAP1 DUP2 MSTORE PUSH1 0x10 PUSH1 0x20 MSTORE PUSH1 0x40 DUP2 KECCAK256 DUP1 SLOAD DUP6 SWAP3 SWAP1 PUSH2 0x28E2 SWAP1 DUP5 SWAP1 PUSH2 0x355D JUMP JUMPDEST SWAP1 SWAP2 SSTORE POP POP POP POP POP POP POP JUMP JUMPDEST PUSH0 PUSH1 0x64 PUSH2 0x28FC DUP4 PUSH1 0xA PUSH2 0x334F JUMP JUMPDEST PUSH2 0x2906 SWAP2 SWAP1 PUSH2 0x3467 JUMP JUMPDEST SWAP1 POP PUSH2 0x2947 PUSH1 0x40 MLOAD DUP1 PUSH1 0x40 ADD PUSH1 0x40 MSTORE DUP1 PUSH1 0x17 DUP2 MSTORE PUSH1 0x20 ADD PUSH32 0x3D3D3D3D3D696E697469616C52656C656173653D3D3D3D000000000000000000 DUP2 MSTORE POP DUP3 PUSH2 0x21F4 JUMP JUMPDEST PUSH0 PUSH2 0x2952 DUP3 DUP5 PUSH2 0x3366 JUMP JUMPDEST SWAP1 POP PUSH2 0x298B PUSH1 0x40 MLOAD DUP1 PUSH1 0x40 ADD PUSH1 0x40 MSTORE DUP1 PUSH1 0x15 DUP2 MSTORE PUSH1 0x20 ADD PUSH21 0x3D3D3D3D3D6C6F636B6564546F6B656E733D3D3D3D PUSH1 0x58 SHL DUP2 MSTORE POP DUP3 PUSH2 0x21F4 JUMP JUMPDEST PUSH1 0x5 SLOAD PUSH1 0x1 PUSH1 0x1 PUSH1 0xA0 SHL SUB AND PUSH4 0xF326F0D7 DUP7 PUSH2 0x29AA TIMESTAMP PUSH3 0xF099C0 PUSH2 0x355D JUMP JUMPDEST PUSH1 0x40 MLOAD PUSH1 0x1 PUSH1 0x1 PUSH1 0xE0 SHL SUB NOT PUSH1 0xE0 DUP6 SWAP1 SHL AND DUP2 MSTORE PUSH1 0x1 PUSH1 0x1 PUSH1 0xA0 SHL SUB SWAP1 SWAP3 AND PUSH1 0x4 DUP4 ADD MSTORE PUSH1 0x24 DUP3 ADD MSTORE PUSH1 0x44 DUP2 ADD DUP6 SWAP1 MSTORE PUSH1 0x64 ADD PUSH0 PUSH1 0x40 MLOAD DUP1 DUP4 SUB DUP2 PUSH0 DUP8 DUP1 EXTCODESIZE ISZERO DUP1 ISZERO PUSH2 0x29F4 JUMPI PUSH0 DUP1 REVERT JUMPDEST POP GAS CALL ISZERO DUP1 ISZERO PUSH2 0x2A06 JUMPI RETURNDATASIZE PUSH0 DUP1 RETURNDATACOPY RETURNDATASIZE PUSH0 REVERT JUMPDEST POP POP PUSH1 0x5 SLOAD PUSH1 0x40 MLOAD PUSH4 0xA9059CBB PUSH1 0xE0 SHL DUP2 MSTORE PUSH1 0x1 PUSH1 0x1 PUSH1 0xA0 SHL SUB DUP10 DUP2 AND PUSH1 0x4 DUP4 ADD MSTORE PUSH1 0x24 DUP3 ADD DUP8 SWAP1 MSTORE SWAP1 SWAP2 AND SWAP3 POP PUSH4 0xA9059CBB SWAP2 POP PUSH1 0x44 ADD PUSH1 0x20 PUSH1 0x40 MLOAD DUP1 DUP4 SUB DUP2 PUSH0 DUP8 GAS CALL ISZERO DUP1 ISZERO PUSH2 0x2A5A JUMPI RETURNDATASIZE PUSH0 DUP1 RETURNDATACOPY RETURNDATASIZE PUSH0 REVERT JUMPDEST POP POP POP POP PUSH1 0x40 MLOAD RETURNDATASIZE PUSH1 0x1F NOT PUSH1 0x1F DUP3 ADD AND DUP3 ADD DUP1 PUSH1 0x40 MSTORE POP DUP2 ADD SWAP1 PUSH2 0x2A7E SWAP2 SWAP1 PUSH2 0x3721 JUMP JUMPDEST PUSH2 0x2ACA JUMPI PUSH1 0x40 MLOAD PUSH3 0x461BCD PUSH1 0xE5 SHL DUP2 MSTORE PUSH1 0x20 PUSH1 0x4 DUP3 ADD MSTORE PUSH1 0x17 PUSH1 0x24 DUP3 ADD MSTORE PUSH32 0x496E697469616C207472616E73666572206661696C6564000000000000000000 PUSH1 0x44 DUP3 ADD MSTORE PUSH1 0x64 ADD PUSH2 0x2B6 JUMP JUMPDEST PUSH1 0x5 SLOAD PUSH1 0x7 SLOAD PUSH1 0x40 MLOAD PUSH4 0xA9059CBB PUSH1 0xE0 SHL DUP2 MSTORE PUSH1 0x1 PUSH1 0x1 PUSH1 0xA0 SHL SUB SWAP2 DUP3 AND PUSH1 0x4 DUP3 ADD MSTORE PUSH1 0x24 DUP2 ADD DUP5 SWAP1 MSTORE SWAP2 AND SWAP1 PUSH4 0xA9059CBB SWAP1 PUSH1 0x44 ADD PUSH1 0x20 PUSH1 0x40 MLOAD DUP1 DUP4 SUB DUP2 PUSH0 DUP8 GAS CALL ISZERO DUP1 ISZERO PUSH2 0x2B1C JUMPI RETURNDATASIZE PUSH0 DUP1 RETURNDATACOPY RETURNDATASIZE PUSH0 REVERT JUMPDEST POP POP POP POP PUSH1 0x40 MLOAD RETURNDATASIZE PUSH1 0x1F NOT PUSH1 0x1F DUP3 ADD AND DUP3 ADD DUP1 PUSH1 0x40 MSTORE POP DUP2 ADD SWAP1 PUSH2 0x2B40 SWAP2 SWAP1 PUSH2 0x3721 JUMP JUMPDEST PUSH2 0x2B8C JUMPI PUSH1 0x40 MLOAD PUSH3 0x461BCD PUSH1 0xE5 SHL DUP2 MSTORE PUSH1 0x20 PUSH1 0x4 DUP3 ADD MSTORE PUSH1 0x17 PUSH1 0x24 DUP3 ADD MSTORE PUSH32 0x56657374696E67207472616E73666572206661696C6564000000000000000000 PUSH1 0x44 DUP3 ADD MSTORE PUSH1 0x64 ADD PUSH2 0x2B6 JUMP JUMPDEST PUSH1 0x7 SLOAD PUSH1 0x40 MLOAD PUSH4 0xDD0123F PUSH1 0xE2 SHL DUP2 MSTORE PUSH1 0x1 PUSH1 0x1 PUSH1 0xA0 SHL SUB DUP8 DUP2 AND PUSH1 0x4 DUP4 ADD MSTORE PUSH1 0x24 DUP3 ADD DUP8 SWAP1 MSTORE PUSH1 0x44 DUP3 ADD DUP7 SWAP1 MSTORE PUSH1 0x64 DUP3 ADD DUP6 SWAP1 MSTORE PUSH1 0x84 DUP3 ADD DUP5 SWAP1 MSTORE TIMESTAMP PUSH1 0xA4 DUP4 ADD MSTORE PUSH2 0x12C PUSH1 0xC4 DUP4 ADD DUP2 SWAP1 MSTORE PUSH2 0x708 PUSH1 0xE4 DUP5 ADD MSTORE PUSH2 0x104 DUP4 ADD MSTORE SWAP1 SWAP2 AND SWAP1 PUSH4 0x374048FC SWAP1 PUSH2 0x124 ADD PUSH0 PUSH1 0x40 MLOAD DUP1 DUP4 SUB DUP2 PUSH0 DUP8 DUP1 EXTCODESIZE ISZERO DUP1 ISZERO PUSH2 0x2C0B JUMPI PUSH0 DUP1 REVERT JUMPDEST POP GAS CALL ISZERO DUP1 ISZERO PUSH2 0x2C1D JUMPI RETURNDATASIZE PUSH0 DUP1 RETURNDATACOPY RETURNDATASIZE PUSH0 REVERT JUMPDEST POP POP POP POP POP POP POP POP POP JUMP JUMPDEST PUSH1 0x1 PUSH1 0x1 PUSH1 0xA0 SHL SUB DUP2 AND PUSH2 0x2C4E JUMPI PUSH1 0x40 MLOAD PUSH3 0x461BCD PUSH1 0xE5 SHL DUP2 MSTORE PUSH1 0x4 ADD PUSH2 0x2B6 SWAP1 PUSH2 0x3505 JUMP JUMPDEST SELFBALANCE DUP1 ISZERO PUSH2 0x2CE8 JUMPI PUSH0 DUP3 PUSH1 0x1 PUSH1 0x1 PUSH1 0xA0 SHL SUB AND DUP3 PUSH1 0x40 MLOAD PUSH0 PUSH1 0x40 MLOAD DUP1 DUP4 SUB DUP2 DUP6 DUP8 GAS CALL SWAP3 POP POP POP RETURNDATASIZE DUP1 PUSH0 DUP2 EQ PUSH2 0x2C9E JUMPI PUSH1 0x40 MLOAD SWAP2 POP PUSH1 0x1F NOT PUSH1 0x3F RETURNDATASIZE ADD AND DUP3 ADD PUSH1 0x40 MSTORE RETURNDATASIZE DUP3 MSTORE RETURNDATASIZE PUSH0 PUSH1 0x20 DUP5 ADD RETURNDATACOPY PUSH2 0x2CA3 JUMP JUMPDEST PUSH1 0x60 SWAP2 POP JUMPDEST POP POP SWAP1 POP DUP1 PUSH2 0x2CE6 JUMPI PUSH1 0x40 MLOAD PUSH3 0x461BCD PUSH1 0xE5 SHL DUP2 MSTORE PUSH1 0x20 PUSH1 0x4 DUP3 ADD MSTORE PUSH1 0xF PUSH1 0x24 DUP3 ADD MSTORE PUSH15 0x151C985B9CD9995C8819985A5B1959 PUSH1 0x8A SHL PUSH1 0x44 DUP3 ADD MSTORE PUSH1 0x64 ADD PUSH2 0x2B6 JUMP JUMPDEST POP JUMPDEST PUSH1 0x40 MLOAD PUSH4 0x70A08231 PUSH1 0xE0 SHL DUP2 MSTORE ADDRESS PUSH1 0x4 DUP3 ADD MSTORE PUSH0 SWAP1 PUSH32 0x0 PUSH1 0x1 PUSH1 0x1 PUSH1 0xA0 SHL SUB AND SWAP1 PUSH4 0x70A08231 SWAP1 PUSH1 0x24 ADD PUSH1 0x20 PUSH1 0x40 MLOAD DUP1 DUP4 SUB DUP2 DUP7 GAS STATICCALL ISZERO DUP1 ISZERO PUSH2 0x2D4C JUMPI RETURNDATASIZE PUSH0 DUP1 RETURNDATACOPY RETURNDATASIZE PUSH0 REVERT JUMPDEST POP POP POP POP PUSH1 0x40 MLOAD RETURNDATASIZE PUSH1 0x1F NOT PUSH1 0x1F DUP3 ADD AND DUP3 ADD DUP1 PUSH1 0x40 MSTORE POP DUP2 ADD SWAP1 PUSH2 0x2D70 SWAP2 SWAP1 PUSH2 0x37C4 JUMP JUMPDEST SWAP1 POP DUP1 ISZERO PUSH2 0x2E4B JUMPI PUSH1 0x40 MLOAD PUSH4 0xA9059CBB PUSH1 0xE0 SHL DUP2 MSTORE PUSH1 0x1 PUSH1 0x1 PUSH1 0xA0 SHL SUB DUP5 DUP2 AND PUSH1 0x4 DUP4 ADD MSTORE PUSH1 0x24 DUP3 ADD DUP4 SWAP1 MSTORE PUSH32 0x0 AND SWAP1 PUSH4 0xA9059CBB SWAP1 PUSH1 0x44 ADD PUSH1 0x20 PUSH1 0x40 MLOAD DUP1 DUP4 SUB DUP2 PUSH0 DUP8 GAS CALL ISZERO DUP1 ISZERO PUSH2 0x2DE4 JUMPI RETURNDATASIZE PUSH0 DUP1 RETURNDATACOPY RETURNDATASIZE PUSH0 REVERT JUMPDEST POP POP POP POP PUSH1 0x40 MLOAD RETURNDATASIZE PUSH1 0x1F NOT PUSH1 0x1F DUP3 ADD AND DUP3 ADD DUP1 PUSH1 0x40 MSTORE POP DUP2 ADD SWAP1 PUSH2 0x2E08 SWAP2 SWAP1 PUSH2 0x3721 JUMP JUMPDEST PUSH2 0x2E4B JUMPI PUSH1 0x40 MLOAD PUSH3 0x461BCD PUSH1 0xE5 SHL DUP2 MSTORE PUSH1 0x20 PUSH1 0x4 DUP3 ADD MSTORE PUSH1 0x14 PUSH1 0x24 DUP3 ADD MSTORE PUSH20 0x1554D115081D1C985B9CD9995C8819985A5B1959 PUSH1 0x62 SHL PUSH1 0x44 DUP3 ADD MSTORE PUSH1 0x64 ADD PUSH2 0x2B6 JUMP JUMPDEST PUSH1 0x40 MLOAD PUSH4 0x70A08231 PUSH1 0xE0 SHL DUP2 MSTORE ADDRESS PUSH1 0x4 DUP3 ADD MSTORE PUSH0 SWAP1 PUSH32 0x0 PUSH1 0x1 PUSH1 0x1 PUSH1 0xA0 SHL SUB AND SWAP1 PUSH4 0x70A08231 SWAP1 PUSH1 0x24 ADD PUSH1 0x20 PUSH1 0x40 MLOAD DUP1 DUP4 SUB DUP2 DUP7 GAS STATICCALL ISZERO DUP1 ISZERO PUSH2 0x2EAF JUMPI RETURNDATASIZE PUSH0 DUP1 RETURNDATACOPY RETURNDATASIZE PUSH0 REVERT JUMPDEST POP POP POP POP PUSH1 0x40 MLOAD RETURNDATASIZE PUSH1 0x1F NOT PUSH1 0x1F DUP3 ADD AND DUP3 ADD DUP1 PUSH1 0x40 MSTORE POP DUP2 ADD SWAP1 PUSH2 0x2ED3 SWAP2 SWAP1 PUSH2 0x37C4 JUMP JUMPDEST SWAP1 POP DUP1 ISZERO PUSH2 0x2FAE JUMPI PUSH1 0x40 MLOAD PUSH4 0xA9059CBB PUSH1 0xE0 SHL DUP2 MSTORE PUSH1 0x1 PUSH1 0x1 PUSH1 0xA0 SHL SUB DUP6 DUP2 AND PUSH1 0x4 DUP4 ADD MSTORE PUSH1 0x24 DUP3 ADD DUP4 SWAP1 MSTORE PUSH32 0x0 AND SWAP1 PUSH4 0xA9059CBB SWAP1 PUSH1 0x44 ADD PUSH1 0x20 PUSH1 0x40 MLOAD DUP1 DUP4 SUB DUP2 PUSH0 DUP8 GAS CALL ISZERO DUP1 ISZERO PUSH2 0x2F47 JUMPI RETURNDATASIZE PUSH0 DUP1 RETURNDATACOPY RETURNDATASIZE PUSH0 REVERT JUMPDEST POP POP POP POP PUSH1 0x40 MLOAD RETURNDATASIZE PUSH1 0x1F NOT PUSH1 0x1F DUP3 ADD AND DUP3 ADD DUP1 PUSH1 0x40 MSTORE POP DUP2 ADD SWAP1 PUSH2 0x2F6B SWAP2 SWAP1 PUSH2 0x3721 JUMP JUMPDEST PUSH2 0x2FAE JUMPI PUSH1 0x40 MLOAD PUSH3 0x461BCD PUSH1 0xE5 SHL DUP2 MSTORE PUSH1 0x20 PUSH1 0x4 DUP3 ADD MSTORE PUSH1 0x14 PUSH1 0x24 DUP3 ADD MSTORE PUSH20 0x1554D110C81D1C985B9CD9995C8819985A5B1959 PUSH1 0x62 SHL PUSH1 0x44 DUP3 ADD MSTORE PUSH1 0x64 ADD PUSH2 0x2B6 JUMP JUMPDEST POP POP POP POP JUMP JUMPDEST PUSH2 0x1709 DUP2 PUSH2 0x2FE0 JUMP JUMPDEST PUSH1 0x2 SLOAD PUSH1 0xFF AND PUSH2 0xF1A JUMPI PUSH1 0x40 MLOAD PUSH4 0x8DFC202B PUSH1 0xE0 SHL DUP2 MSTORE PUSH1 0x4 ADD PUSH1 0x40 MLOAD DUP1 SWAP2 SUB SWAP1 REVERT JUMPDEST PUSH0 PUSH11 0x636F6E736F6C652E6C6F67 SWAP1 POP PUSH0 DUP1 DUP4 MLOAD PUSH1 0x20 DUP6 ADD DUP5 GAS STATICCALL POP POP POP JUMP JUMPDEST DUP1 CALLDATALOAD PUSH1 0x3 DUP2 LT PUSH2 0x300D JUMPI PUSH0 DUP1 REVERT JUMPDEST SWAP2 SWAP1 POP JUMP JUMPDEST PUSH0 DUP1 PUSH1 0x40 DUP4 DUP6 SUB SLT ISZERO PUSH2 0x3023 JUMPI PUSH0 DUP1 REVERT JUMPDEST PUSH2 0x302C DUP4 PUSH2 0x2FFF JUMP JUMPDEST SWAP5 PUSH1 0x20 SWAP4 SWAP1 SWAP4 ADD CALLDATALOAD SWAP4 POP POP POP JUMP JUMPDEST PUSH1 0x1 PUSH1 0x1 PUSH1 0xA0 SHL SUB DUP2 AND DUP2 EQ PUSH2 0x1709 JUMPI PUSH0 DUP1 REVERT JUMPDEST PUSH0 DUP1 PUSH1 0x40 DUP4 DUP6 SUB SLT ISZERO PUSH2 0x305F JUMPI PUSH0 DUP1 REVERT JUMPDEST DUP3 CALLDATALOAD SWAP2 POP PUSH1 0x20 DUP4 ADD CALLDATALOAD PUSH2 0x3071 DUP2 PUSH2 0x303A JUMP JUMPDEST DUP1 SWAP2 POP POP SWAP3 POP SWAP3 SWAP1 POP JUMP JUMPDEST PUSH0 PUSH1 0x20 DUP3 DUP5 SUB SLT ISZERO PUSH2 0x308C JUMPI PUSH0 DUP1 REVERT JUMPDEST PUSH2 0x2793 DUP3 PUSH2 0x2FFF JUMP JUMPDEST DUP1 ISZERO ISZERO DUP2 EQ PUSH2 0x1709 JUMPI PUSH0 DUP1 REVERT JUMPDEST DUP1 CALLDATALOAD PUSH2 0x300D DUP2 PUSH2 0x3095 JUMP JUMPDEST PUSH0 DUP1 PUSH1 0x40 DUP4 DUP6 SUB SLT ISZERO PUSH2 0x30BE JUMPI PUSH0 DUP1 REVERT JUMPDEST DUP3 CALLDATALOAD SWAP2 POP PUSH1 0x20 DUP4 ADD CALLDATALOAD PUSH2 0x3071 DUP2 PUSH2 0x3095 JUMP JUMPDEST PUSH0 PUSH1 0x20 DUP3 DUP5 SUB SLT ISZERO PUSH2 0x30E0 JUMPI PUSH0 DUP1 REVERT JUMPDEST DUP2 CALLDATALOAD PUSH2 0x2793 DUP2 PUSH2 0x303A JUMP JUMPDEST PUSH0 PUSH1 0x20 DUP3 DUP5 SUB SLT ISZERO PUSH2 0x30FB JUMPI PUSH0 DUP1 REVERT JUMPDEST POP CALLDATALOAD SWAP2 SWAP1 POP JUMP JUMPDEST PUSH4 0x4E487B71 PUSH1 0xE0 SHL PUSH0 MSTORE PUSH1 0x41 PUSH1 0x4 MSTORE PUSH1 0x24 PUSH0 REVERT JUMPDEST PUSH0 DUP1 PUSH0 DUP1 PUSH0 DUP1 PUSH0 DUP1 PUSH0 PUSH2 0x120 DUP11 DUP13 SUB SLT ISZERO PUSH2 0x312F JUMPI PUSH0 DUP1 REVERT JUMPDEST DUP10 CALLDATALOAD SWAP9 POP PUSH1 0x20 DUP11 ADD CALLDATALOAD SWAP8 POP PUSH1 0x40 DUP11 ADD CALLDATALOAD SWAP7 POP PUSH1 0x60 DUP11 ADD CALLDATALOAD SWAP6 POP PUSH1 0x80 DUP11 ADD CALLDATALOAD SWAP5 POP PUSH1 0xA0 DUP11 ADD CALLDATALOAD SWAP4 POP PUSH1 0xC0 DUP11 ADD CALLDATALOAD SWAP3 POP PUSH1 0xE0 DUP11 ADD CALLDATALOAD PUSH8 0xFFFFFFFFFFFFFFFF DUP2 GT ISZERO PUSH2 0x3176 JUMPI PUSH0 DUP1 REVERT JUMPDEST DUP11 ADD PUSH1 0x1F DUP2 ADD DUP13 SGT PUSH2 0x3186 JUMPI PUSH0 DUP1 REVERT JUMPDEST DUP1 CALLDATALOAD PUSH8 0xFFFFFFFFFFFFFFFF DUP2 GT ISZERO PUSH2 0x31A0 JUMPI PUSH2 0x31A0 PUSH2 0x3102 JUMP JUMPDEST PUSH1 0x40 MLOAD PUSH1 0x1F DUP3 ADD PUSH1 0x1F NOT SWAP1 DUP2 AND PUSH1 0x3F ADD AND DUP2 ADD PUSH8 0xFFFFFFFFFFFFFFFF DUP2 GT DUP3 DUP3 LT OR ISZERO PUSH2 0x31CF JUMPI PUSH2 0x31CF PUSH2 0x3102 JUMP JUMPDEST PUSH1 0x40 MSTORE DUP2 DUP2 MSTORE DUP3 DUP3 ADD PUSH1 0x20 ADD DUP15 LT ISZERO PUSH2 0x31E6 JUMPI PUSH0 DUP1 REVERT JUMPDEST DUP2 PUSH1 0x20 DUP5 ADD PUSH1 0x20 DUP4 ADD CALLDATACOPY PUSH0 PUSH1 0x20 DUP4 DUP4 ADD ADD MSTORE DUP1 SWAP5 POP POP POP POP PUSH2 0x320B PUSH2 0x100 DUP12 ADD PUSH2 0x30A2 JUMP JUMPDEST SWAP1 POP SWAP3 SWAP6 SWAP9 POP SWAP3 SWAP6 SWAP9 POP SWAP3 SWAP6 SWAP9 JUMP JUMPDEST PUSH0 DUP2 MLOAD DUP1 DUP5 MSTORE DUP1 PUSH1 0x20 DUP5 ADD PUSH1 0x20 DUP7 ADD MCOPY PUSH0 PUSH1 0x20 DUP3 DUP7 ADD ADD MSTORE PUSH1 0x20 PUSH1 0x1F NOT PUSH1 0x1F DUP4 ADD AND DUP6 ADD ADD SWAP2 POP POP SWAP3 SWAP2 POP POP JUMP JUMPDEST DUP14 DUP2 MSTORE DUP13 PUSH1 0x20 DUP3 ADD MSTORE DUP12 PUSH1 0x40 DUP3 ADD MSTORE DUP11 PUSH1 0x60 DUP3 ADD MSTORE DUP10 PUSH1 0x80 DUP3 ADD MSTORE DUP9 PUSH1 0xA0 DUP3 ADD MSTORE DUP8 PUSH1 0xC0 DUP3 ADD MSTORE DUP7 PUSH1 0xE0 DUP3 ADD MSTORE DUP6 PUSH2 0x100 DUP3 ADD MSTORE PUSH2 0x1A0 PUSH2 0x120 DUP3 ADD MSTORE PUSH0 PUSH2 0x3294 PUSH2 0x1A0 DUP4 ADD DUP8 PUSH2 0x321A JUMP JUMPDEST SWAP5 ISZERO ISZERO PUSH2 0x140 DUP4 ADD MSTORE POP SWAP2 ISZERO ISZERO PUSH2 0x160 DUP4 ADD MSTORE ISZERO ISZERO PUSH2 0x180 SWAP1 SWAP2 ADD MSTORE SWAP11 SWAP10 POP POP POP POP POP POP POP POP POP POP JUMP JUMPDEST PUSH4 0x4E487B71 PUSH1 0xE0 SHL PUSH0 MSTORE PUSH1 0x21 PUSH1 0x4 MSTORE PUSH1 0x24 PUSH0 REVERT JUMPDEST PUSH1 0x3 DUP2 LT PUSH2 0x32EE JUMPI PUSH4 0x4E487B71 PUSH1 0xE0 SHL PUSH0 MSTORE PUSH1 0x21 PUSH1 0x4 MSTORE PUSH1 0x24 PUSH0 REVERT JUMPDEST SWAP1 MSTORE JUMP JUMPDEST PUSH1 0x20 DUP2 ADD PUSH2 0xA5F DUP3 DUP5 PUSH2 0x32D2 JUMP JUMPDEST PUSH0 DUP1 PUSH0 PUSH1 0x60 DUP5 DUP7 SUB SLT ISZERO PUSH2 0x3312 JUMPI PUSH0 DUP1 REVERT JUMPDEST DUP4 CALLDATALOAD SWAP3 POP PUSH1 0x20 DUP5 ADD CALLDATALOAD PUSH2 0x3324 DUP2 PUSH2 0x303A JUMP JUMPDEST SWAP2 POP PUSH2 0x3332 PUSH1 0x40 DUP6 ADD PUSH2 0x2FFF JUMP JUMPDEST SWAP1 POP SWAP3 POP SWAP3 POP SWAP3 JUMP JUMPDEST PUSH4 0x4E487B71 PUSH1 0xE0 SHL PUSH0 MSTORE PUSH1 0x11 PUSH1 0x4 MSTORE PUSH1 0x24 PUSH0 REVERT JUMPDEST DUP1 DUP3 MUL DUP2 ISZERO DUP3 DUP3 DIV DUP5 EQ OR PUSH2 0xA5F JUMPI PUSH2 0xA5F PUSH2 0x333B JUMP JUMPDEST DUP2 DUP2 SUB DUP2 DUP2 GT ISZERO PUSH2 0xA5F JUMPI PUSH2 0xA5F PUSH2 0x333B JUMP JUMPDEST PUSH1 0x1 DUP2 JUMPDEST PUSH1 0x1 DUP5 GT ISZERO PUSH2 0x33B4 JUMPI DUP1 DUP6 DIV DUP2 GT ISZERO PUSH2 0x3398 JUMPI PUSH2 0x3398 PUSH2 0x333B JUMP JUMPDEST PUSH1 0x1 DUP5 AND ISZERO PUSH2 0x33A6 JUMPI SWAP1 DUP2 MUL SWAP1 JUMPDEST PUSH1 0x1 SWAP4 SWAP1 SWAP4 SHR SWAP3 DUP1 MUL PUSH2 0x337D JUMP JUMPDEST SWAP4 POP SWAP4 SWAP2 POP POP JUMP JUMPDEST PUSH0 DUP3 PUSH2 0x33CA JUMPI POP PUSH1 0x1 PUSH2 0xA5F JUMP JUMPDEST DUP2 PUSH2 0x33D6 JUMPI POP PUSH0 PUSH2 0xA5F JUMP JUMPDEST DUP2 PUSH1 0x1 DUP2 EQ PUSH2 0x33EC JUMPI PUSH1 0x2 DUP2 EQ PUSH2 0x33F6 JUMPI PUSH2 0x3412 JUMP JUMPDEST PUSH1 0x1 SWAP2 POP POP PUSH2 0xA5F JUMP JUMPDEST PUSH1 0xFF DUP5 GT ISZERO PUSH2 0x3407 JUMPI PUSH2 0x3407 PUSH2 0x333B JUMP JUMPDEST POP POP PUSH1 0x1 DUP3 SHL PUSH2 0xA5F JUMP JUMPDEST POP PUSH1 0x20 DUP4 LT PUSH2 0x133 DUP4 LT AND PUSH1 0x4E DUP5 LT PUSH1 0xB DUP5 LT AND OR ISZERO PUSH2 0x3435 JUMPI POP DUP2 DUP2 EXP PUSH2 0xA5F JUMP JUMPDEST PUSH2 0x3441 PUSH0 NOT DUP5 DUP5 PUSH2 0x3379 JUMP JUMPDEST DUP1 PUSH0 NOT DIV DUP3 GT ISZERO PUSH2 0x3454 JUMPI PUSH2 0x3454 PUSH2 0x333B JUMP JUMPDEST MUL SWAP4 SWAP3 POP POP POP JUMP JUMPDEST PUSH0 PUSH2 0x2793 DUP4 DUP4 PUSH2 0x33BC JUMP JUMPDEST PUSH0 DUP3 PUSH2 0x3481 JUMPI PUSH4 0x4E487B71 PUSH1 0xE0 SHL PUSH0 MSTORE PUSH1 0x12 PUSH1 0x4 MSTORE PUSH1 0x24 PUSH0 REVERT JUMPDEST POP DIV SWAP1 JUMP JUMPDEST DUP1 MLOAD PUSH10 0xFFFFFFFFFFFFFFFFFFFF DUP2 AND DUP2 EQ PUSH2 0x300D JUMPI PUSH0 DUP1 REVERT JUMPDEST PUSH0 DUP1 PUSH0 DUP1 PUSH0 PUSH1 0xA0 DUP7 DUP9 SUB SLT ISZERO PUSH2 0x34B3 JUMPI PUSH0 DUP1 REVERT JUMPDEST PUSH2 0x34BC DUP7 PUSH2 0x3486 JUMP JUMPDEST PUSH1 0x20 DUP8 ADD MLOAD PUSH1 0x40 DUP9 ADD MLOAD PUSH1 0x60 DUP10 ADD MLOAD SWAP3 SWAP8 POP SWAP1 SWAP6 POP SWAP4 POP SWAP2 POP PUSH2 0x34E1 PUSH1 0x80 DUP8 ADD PUSH2 0x3486 JUMP JUMPDEST SWAP1 POP SWAP3 SWAP6 POP SWAP3 SWAP6 SWAP1 SWAP4 POP JUMP JUMPDEST PUSH0 PUSH1 0x1 DUP3 ADD PUSH2 0x34FE JUMPI PUSH2 0x34FE PUSH2 0x333B JUMP JUMPDEST POP PUSH1 0x1 ADD SWAP1 JUMP JUMPDEST PUSH1 0x20 DUP1 DUP3 MSTORE PUSH1 0xF SWAP1 DUP3 ADD MSTORE PUSH15 0x496E76616C69642061646472657373 PUSH1 0x88 SHL PUSH1 0x40 DUP3 ADD MSTORE PUSH1 0x60 ADD SWAP1 JUMP JUMPDEST PUSH1 0x20 DUP1 DUP3 MSTORE PUSH1 0x15 SWAP1 DUP3 ADD MSTORE PUSH21 0x1250D3C8185B1C9958591E48199A5B985B1A5E9959 PUSH1 0x5A SHL PUSH1 0x40 DUP3 ADD MSTORE PUSH1 0x60 ADD SWAP1 JUMP JUMPDEST DUP1 DUP3 ADD DUP1 DUP3 GT ISZERO PUSH2 0xA5F JUMPI PUSH2 0xA5F PUSH2 0x333B JUMP JUMPDEST PUSH1 0x1 DUP2 DUP2 SHR SWAP1 DUP3 AND DUP1 PUSH2 0x3584 JUMPI PUSH1 0x7F DUP3 AND SWAP2 POP JUMPDEST PUSH1 0x20 DUP3 LT DUP2 SUB PUSH2 0x35A2 JUMPI PUSH4 0x4E487B71 PUSH1 0xE0 SHL PUSH0 MSTORE PUSH1 0x22 PUSH1 0x4 MSTORE PUSH1 0x24 PUSH0 REVERT JUMPDEST POP SWAP2 SWAP1 POP JUMP JUMPDEST PUSH1 0x1F DUP3 GT ISZERO PUSH2 0x35EF JUMPI DUP1 PUSH0 MSTORE PUSH1 0x20 PUSH0 KECCAK256 PUSH1 0x1F DUP5 ADD PUSH1 0x5 SHR DUP2 ADD PUSH1 0x20 DUP6 LT ISZERO PUSH2 0x35CD JUMPI POP DUP1 JUMPDEST PUSH1 0x1F DUP5 ADD PUSH1 0x5 SHR DUP3 ADD SWAP2 POP JUMPDEST DUP2 DUP2 LT ISZERO PUSH2 0x35EC JUMPI PUSH0 DUP2 SSTORE PUSH1 0x1 ADD PUSH2 0x35D9 JUMP JUMPDEST POP POP JUMPDEST POP POP POP JUMP JUMPDEST DUP2 MLOAD PUSH8 0xFFFFFFFFFFFFFFFF DUP2 GT ISZERO PUSH2 0x360E JUMPI PUSH2 0x360E PUSH2 0x3102 JUMP JUMPDEST PUSH2 0x3622 DUP2 PUSH2 0x361C DUP5 SLOAD PUSH2 0x3570 JUMP JUMPDEST DUP5 PUSH2 0x35A8 JUMP JUMPDEST PUSH1 0x20 PUSH1 0x1F DUP3 GT PUSH1 0x1 DUP2 EQ PUSH2 0x3654 JUMPI PUSH0 DUP4 ISZERO PUSH2 0x363D JUMPI POP DUP5 DUP3 ADD MLOAD JUMPDEST PUSH0 NOT PUSH1 0x3 DUP6 SWAP1 SHL SHR NOT AND PUSH1 0x1 DUP5 SWAP1 SHL OR DUP5 SSTORE PUSH2 0x35EC JUMP JUMPDEST PUSH0 DUP5 DUP2 MSTORE PUSH1 0x20 DUP2 KECCAK256 PUSH1 0x1F NOT DUP6 AND SWAP2 JUMPDEST DUP3 DUP2 LT ISZERO PUSH2 0x3683 JUMPI DUP8 DUP6 ADD MLOAD DUP3 SSTORE PUSH1 0x20 SWAP5 DUP6 ADD SWAP5 PUSH1 0x1 SWAP1 SWAP3 ADD SWAP2 ADD PUSH2 0x3663 JUMP JUMPDEST POP DUP5 DUP3 LT ISZERO PUSH2 0x36A0 JUMPI DUP7 DUP5 ADD MLOAD PUSH0 NOT PUSH1 0x3 DUP8 SWAP1 SHL PUSH1 0xF8 AND SHR NOT AND DUP2 SSTORE JUMPDEST POP POP POP POP PUSH1 0x1 SWAP1 DUP2 SHL ADD SWAP1 SSTORE POP JUMP JUMPDEST DUP9 DUP2 MSTORE DUP8 PUSH1 0x20 DUP3 ADD MSTORE DUP7 PUSH1 0x40 DUP3 ADD MSTORE DUP6 PUSH1 0x60 DUP3 ADD MSTORE DUP5 PUSH1 0x80 DUP3 ADD MSTORE PUSH2 0x100 PUSH1 0xA0 DUP3 ADD MSTORE PUSH0 PUSH2 0x36E1 PUSH2 0x100 DUP4 ADD DUP7 PUSH2 0x321A JUMP JUMPDEST PUSH1 0xC0 DUP4 ADD SWAP5 SWAP1 SWAP5 MSTORE POP PUSH1 0xE0 ADD MSTORE SWAP7 SWAP6 POP POP POP POP POP POP JUMP JUMPDEST PUSH1 0x20 DUP1 DUP3 MSTORE PUSH1 0xF SWAP1 DUP3 ADD MSTORE PUSH15 0x125B9D985B1A59081CD85B19481251 PUSH1 0x8A SHL PUSH1 0x40 DUP3 ADD MSTORE PUSH1 0x60 ADD SWAP1 JUMP JUMPDEST PUSH0 PUSH1 0x20 DUP3 DUP5 SUB SLT ISZERO PUSH2 0x3731 JUMPI PUSH0 DUP1 REVERT JUMPDEST DUP2 MLOAD PUSH2 0x2793 DUP2 PUSH2 0x3095 JUMP JUMPDEST DUP4 DUP2 MSTORE PUSH1 0x20 DUP2 ADD DUP4 SWAP1 MSTORE PUSH1 0x60 DUP2 ADD PUSH2 0x3757 PUSH1 0x40 DUP4 ADD DUP5 PUSH2 0x32D2 JUMP JUMPDEST SWAP5 SWAP4 POP POP POP POP JUMP JUMPDEST PUSH1 0x1 PUSH1 0x1 PUSH1 0xA0 SHL SUB DUP8 AND DUP2 MSTORE PUSH1 0x20 DUP2 ADD DUP7 SWAP1 MSTORE PUSH1 0x40 DUP2 ADD DUP6 SWAP1 MSTORE PUSH1 0x60 DUP2 ADD DUP5 SWAP1 MSTORE PUSH1 0x80 DUP2 ADD DUP4 SWAP1 MSTORE PUSH1 0xC0 DUP2 ADD PUSH2 0x3798 PUSH1 0xA0 DUP4 ADD DUP5 PUSH2 0x32D2 JUMP JUMPDEST SWAP8 SWAP7 POP POP POP POP POP POP POP JUMP JUMPDEST PUSH1 0x40 DUP2 MSTORE PUSH0 PUSH2 0x37B5 PUSH1 0x40 DUP4 ADD DUP6 PUSH2 0x321A JUMP JUMPDEST SWAP1 POP DUP3 PUSH1 0x20 DUP4 ADD MSTORE SWAP4 SWAP3 POP POP POP JUMP JUMPDEST PUSH0 PUSH1 0x20 DUP3 DUP5 SUB SLT ISZERO PUSH2 0x37D4 JUMPI PUSH0 DUP1 REVERT JUMPDEST POP MLOAD SWAP2 SWAP1 POP JUMP INVALID RETURNDATASIZE RETURNDATASIZE RETURNDATASIZE RETURNDATASIZE RETURNDATASIZE RETURNDATASIZE RETURNDATASIZE RETURNDATASIZE RETURNDATASIZE RETURNDATASIZE PUSH17 0x7265636973696F6E5F6D756C5F31322870 PUSH2 0x796D PUSH6 0x6E74416D6F75 PUSH15 0x7429A2646970667358221220683641 DUP14 BLOBHASH DELEGATECALL 0xAA 0x22 SWAP8 PUSH26 0x5F1C2B6484E5DE4C77ECC192C8108110D15EDB810D8D64736F6C PUSH4 0x4300081A STOP CALLER "
		},
		"gasEstimates": {
			"creation": {
				"codeDepositCost": "2878800",
				"executionCost": "infinite",
				"totalCost": "infinite"
			},
			"external": {
				"IdentityContract()": "2471",
				"_getPriceFeed(uint8)": "infinite",
				"blacklistUser(address)": "54592",
				"blacklistedUsers(address)": "2612",
				"buyTokens(uint8,uint256)": "infinite",
				"calculatePaymentAmount(uint8,uint256)": "infinite",
				"calculateTokenAmount(uint8,uint256)": "infinite",
				"claimRefund(uint256)": "infinite",
				"contributionsInUSD(address)": "2566",
				"createSale(uint256,uint256,uint256,uint256,uint256,uint256,uint256,string,bool)": "infinite",
				"finalizeICO(address)": "infinite",
				"getCurrentSaleId()": "infinite",
				"getHardCapReached(uint256)": "6807",
				"getInvestorCount(uint256)": "infinite",
				"getSaleStartEndTime(uint256)": "infinite",
				"getSoftCapReached(uint256)": "6896",
				"investorPayments(uint256,address,uint8)": "2885",
				"isICOFinalized()": "2398",
				"maxMinNormalize(uint8,uint256)": "infinite",
				"normalizeUser(address)": "32499",
				"owner()": "2419",
				"pause()": "infinite",
				"paused()": "2348",
				"paymentMethodForInvestor(address)": "2730",
				"precision_div_10(uint256)": "469",
				"precision_div_18(uint256)": "470",
				"precision_mul_10(uint256)": "infinite",
				"precision_mul_12(uint256)": "infinite",
				"precision_mul_18(uint256)": "infinite",
				"renounceOwnership()": "infinite",
				"saleCount()": "2350",
				"sales(uint256)": "infinite",
				"setAllowImmediateFinalization(uint256,bool)": "74366",
				"token()": "2446",
				"tokensBoughtByInvestor(address)": "2654",
				"tokensBoughtByInvestorForSale(uint256,address)": "2671",
				"totalFundsRaisedUSD()": "2416",
				"totalTokensSold()": "2372",
				"transferOwnership(address)": "infinite",
				"unpause()": "infinite",
				"usdc()": "infinite",
				"usdt()": "infinite",
				"vestingContract()": "2403",
				"whitelistUser(address)": "54550",
				"whitelistedUsers(address)": "2610"
			},
			"internal": {
				"_transferFunds(address payable)": "infinite",
				"distributeTokens(address,uint256,uint256)": "infinite",
				"getLatestSaleEndTime()": "infinite",
				"isRestrictedSale(uint256,address)": "infinite",
				"processPayment(enum ICO.PaymentMethod,uint256,uint256)": "infinite",
				"updateInvestorData(address,uint256,uint256,uint256)": "infinite"
			}
		},
		"methodIdentifiers": {
			"IdentityContract()": "171600a3",
			"_getPriceFeed(uint8)": "115afc3a",
			"blacklistUser(address)": "fcbca456",
			"blacklistedUsers(address)": "22c0aec7",
			"buyTokens(uint8,uint256)": "940c333e",
			"calculatePaymentAmount(uint8,uint256)": "117d260f",
			"calculateTokenAmount(uint8,uint256)": "05834e67",
			"claimRefund(uint256)": "5b7baf64",
			"contributionsInUSD(address)": "c81ffdea",
			"createSale(uint256,uint256,uint256,uint256,uint256,uint256,uint256,string,bool)": "4de33882",
			"finalizeICO(address)": "a95836d1",
			"getCurrentSaleId()": "212ea247",
			"getHardCapReached(uint256)": "f3e76510",
			"getInvestorCount(uint256)": "da5467a5",
			"getSaleStartEndTime(uint256)": "c211e1f9",
			"getSoftCapReached(uint256)": "736b1906",
			"investorPayments(uint256,address,uint8)": "ff960c0e",
			"isICOFinalized()": "d1f3b23e",
			"maxMinNormalize(uint8,uint256)": "34dd8f5e",
			"normalizeUser(address)": "af979f7f",
			"owner()": "8da5cb5b",
			"pause()": "8456cb59",
			"paused()": "5c975abb",
			"paymentMethodForInvestor(address)": "df4e0593",
			"precision_div_10(uint256)": "b3fdafb9",
			"precision_div_18(uint256)": "9fa8adb8",
			"precision_mul_10(uint256)": "a1c4b5a2",
			"precision_mul_12(uint256)": "835722ad",
			"precision_mul_18(uint256)": "2593198d",
			"renounceOwnership()": "715018a6",
			"saleCount()": "a1e89aec",
			"sales(uint256)": "b5f522f7",
			"setAllowImmediateFinalization(uint256,bool)": "1b152ac5",
			"token()": "fc0c546a",
			"tokensBoughtByInvestor(address)": "e8e87389",
			"tokensBoughtByInvestorForSale(uint256,address)": "091c2c99",
			"totalFundsRaisedUSD()": "721bc38b",
			"totalTokensSold()": "63b20117",
			"transferOwnership(address)": "f2fde38b",
			"unpause()": "3f4ba83a",
			"usdc()": "3e413bee",
			"usdt()": "2f48ab7d",
			"vestingContract()": "5e6f6045",
			"whitelistUser(address)": "4a4c560d",
			"whitelistedUsers(address)": "f621cc48"
		}
	},
	"abi": [
		{
			"inputs": [
				{
					"internalType": "contract ERC20Token",
					"name": "_token",
					"type": "address"
				},
				{
					"internalType": "contract TokenVesting",
					"name": "_vestingContract",
					"type": "address"
				},
				{
					"internalType": "contract IDfactory",
					"name": "_identityContract",
					"type": "address"
				},
				{
					"internalType": "address",
					"name": "_usdt",
					"type": "address"
				},
				{
					"internalType": "address",
					"name": "_usdc",
					"type": "address"
				},
				{
					"internalType": "address",
					"name": "_priceFeedBNB",
					"type": "address"
				},
				{
					"internalType": "address",
					"name": "_priceFeedUSDT",
					"type": "address"
				},
				{
					"internalType": "address",
					"name": "_priceFeedUSDC",
					"type": "address"
				}
			],
			"stateMutability": "nonpayable",
			"type": "constructor"
		},
		{
			"inputs": [],
			"name": "EnforcedPause",
			"type": "error"
		},
		{
			"inputs": [],
			"name": "ExpectedPause",
			"type": "error"
		},
		{
			"inputs": [
				{
					"internalType": "address",
					"name": "owner",
					"type": "address"
				}
			],
			"name": "OwnableInvalidOwner",
			"type": "error"
		},
		{
			"inputs": [
				{
					"internalType": "address",
					"name": "account",
					"type": "address"
				}
			],
			"name": "OwnableUnauthorizedAccount",
			"type": "error"
		},
		{
			"inputs": [],
			"name": "ReentrancyGuardReentrantCall",
			"type": "error"
		},
		{
			"anonymous": false,
			"inputs": [
				{
					"indexed": true,
					"internalType": "address",
					"name": "account",
					"type": "address"
				}
			],
			"name": "Blacklisted",
			"type": "event"
		},
		{
			"anonymous": false,
			"inputs": [
				{
					"indexed": true,
					"internalType": "uint256",
					"name": "totalTokensSold",
					"type": "uint256"
				}
			],
			"name": "ICOFinalized",
			"type": "event"
		},
		{
			"anonymous": false,
			"inputs": [
				{
					"indexed": true,
					"internalType": "uint256",
					"name": "saleId",
					"type": "uint256"
				}
			],
			"name": "ImmediateFinalization",
			"type": "event"
		},
		{
			"anonymous": false,
			"inputs": [
				{
					"indexed": true,
					"internalType": "uint256",
					"name": "saleId",
					"type": "uint256"
				},
				{
					"indexed": false,
					"internalType": "uint256",
					"name": "startTime",
					"type": "uint256"
				},
				{
					"indexed": false,
					"internalType": "uint256",
					"name": "endTime",
					"type": "uint256"
				},
				{
					"indexed": false,
					"internalType": "uint256",
					"name": "softCap",
					"type": "uint256"
				},
				{
					"indexed": false,
					"internalType": "uint256",
					"name": "hardcap",
					"type": "uint256"
				},
				{
					"indexed": false,
					"internalType": "uint256",
					"name": "tokenPriceUSD",
					"type": "uint256"
				},
				{
					"indexed": false,
					"internalType": "string",
					"name": "saleName",
					"type": "string"
				},
				{
					"indexed": false,
					"internalType": "uint256",
					"name": "minPurchaseAmount",
					"type": "uint256"
				},
				{
					"indexed": false,
					"internalType": "uint256",
					"name": "maxPurchaseAmount",
					"type": "uint256"
				}
			],
			"name": "NewSaleCreated",
			"type": "event"
		},
		{
			"anonymous": false,
			"inputs": [
				{
					"indexed": true,
					"internalType": "address",
					"name": "account",
					"type": "address"
				}
			],
			"name": "Normalized",
			"type": "event"
		},
		{
			"anonymous": false,
			"inputs": [
				{
					"indexed": true,
					"internalType": "address",
					"name": "previousOwner",
					"type": "address"
				},
				{
					"indexed": true,
					"internalType": "address",
					"name": "newOwner",
					"type": "address"
				}
			],
			"name": "OwnershipTransferred",
			"type": "event"
		},
		{
			"anonymous": false,
			"inputs": [
				{
					"indexed": false,
					"internalType": "address",
					"name": "account",
					"type": "address"
				}
			],
			"name": "Paused",
			"type": "event"
		},
		{
			"anonymous": false,
			"inputs": [
				{
					"indexed": true,
					"internalType": "address",
					"name": "investor",
					"type": "address"
				},
				{
					"indexed": false,
					"internalType": "uint256",
					"name": "saleId",
					"type": "uint256"
				},
				{
					"indexed": false,
					"internalType": "uint256",
					"name": "amount",
					"type": "uint256"
				},
				{
					"indexed": false,
					"internalType": "enum ICO.PaymentMethod",
					"name": "paymentMethod",
					"type": "uint8"
				}
			],
			"name": "RefundClaimed",
			"type": "event"
		},
		{
			"anonymous": false,
			"inputs": [
				{
					"indexed": false,
					"internalType": "address",
					"name": "buyer",
					"type": "address"
				},
				{
					"indexed": false,
					"internalType": "uint256",
					"name": "saleId",
					"type": "uint256"
				},
				{
					"indexed": false,
					"internalType": "uint256",
					"name": "tokenPurchaseAmount",
					"type": "uint256"
				},
				{
					"indexed": false,
					"internalType": "uint256",
					"name": "tokenPriceUSD",
					"type": "uint256"
				},
				{
					"indexed": false,
					"internalType": "uint256",
					"name": "amountPaid",
					"type": "uint256"
				},
				{
					"indexed": false,
					"internalType": "enum ICO.PaymentMethod",
					"name": "paymentMethod",
					"type": "uint8"
				}
			],
			"name": "TokensPurchased",
			"type": "event"
		},
		{
			"anonymous": false,
			"inputs": [
				{
					"indexed": false,
					"internalType": "address",
					"name": "account",
					"type": "address"
				}
			],
			"name": "Unpaused",
			"type": "event"
		},
		{
			"anonymous": false,
			"inputs": [
				{
					"indexed": true,
					"internalType": "address",
					"name": "account",
					"type": "address"
				}
			],
			"name": "Whitelisted",
			"type": "event"
		},
		{
			"inputs": [],
			"name": "IdentityContract",
			"outputs": [
				{
					"internalType": "contract IDfactory",
					"name": "",
					"type": "address"
				}
			],
			"stateMutability": "view",
			"type": "function"
		},
		{
			"inputs": [
				{
					"internalType": "enum ICO.PaymentMethod",
					"name": "paymentMethod",
					"type": "uint8"
				}
			],
			"name": "_getPriceFeed",
			"outputs": [
				{
					"internalType": "int256",
					"name": "",
					"type": "int256"
				}
			],
			"stateMutability": "view",
			"type": "function"
		},
		{
			"inputs": [
				{
					"internalType": "address",
					"name": "_user",
					"type": "address"
				}
			],
			"name": "blacklistUser",
			"outputs": [],
			"stateMutability": "nonpayable",
			"type": "function"
		},
		{
			"inputs": [
				{
					"internalType": "address",
					"name": "",
					"type": "address"
				}
			],
			"name": "blacklistedUsers",
			"outputs": [
				{
					"internalType": "bool",
					"name": "",
					"type": "bool"
				}
			],
			"stateMutability": "view",
			"type": "function"
		},
		{
			"inputs": [
				{
					"internalType": "enum ICO.PaymentMethod",
					"name": "paymentMethod",
					"type": "uint8"
				},
				{
					"internalType": "uint256",
					"name": "paymentAmount",
					"type": "uint256"
				}
			],
			"name": "buyTokens",
			"outputs": [],
			"stateMutability": "payable",
			"type": "function"
		},
		{
			"inputs": [
				{
					"internalType": "enum ICO.PaymentMethod",
					"name": "paymentMethod",
					"type": "uint8"
				},
				{
					"internalType": "uint256",
					"name": "tokenAmount",
					"type": "uint256"
				}
			],
			"name": "calculatePaymentAmount",
			"outputs": [
				{
					"internalType": "uint256",
					"name": "",
					"type": "uint256"
				}
			],
			"stateMutability": "view",
			"type": "function"
		},
		{
			"inputs": [
				{
					"internalType": "enum ICO.PaymentMethod",
					"name": "paymentMethod",
					"type": "uint8"
				},
				{
					"internalType": "uint256",
					"name": "paymentAmount",
					"type": "uint256"
				}
			],
			"name": "calculateTokenAmount",
			"outputs": [
				{
					"internalType": "uint256",
					"name": "",
					"type": "uint256"
				}
			],
			"stateMutability": "view",
			"type": "function"
		},
		{
			"inputs": [
				{
					"internalType": "uint256",
					"name": "saleId",
					"type": "uint256"
				}
			],
			"name": "claimRefund",
			"outputs": [],
			"stateMutability": "nonpayable",
			"type": "function"
		},
		{
			"inputs": [
				{
					"internalType": "address",
					"name": "",
					"type": "address"
				}
			],
			"name": "contributionsInUSD",
			"outputs": [
				{
					"internalType": "uint256",
					"name": "",
					"type": "uint256"
				}
			],
			"stateMutability": "view",
			"type": "function"
		},
		{
			"inputs": [
				{
					"internalType": "uint256",
					"name": "_startTime",
					"type": "uint256"
				},
				{
					"internalType": "uint256",
					"name": "_endTime",
					"type": "uint256"
				},
				{
					"internalType": "uint256",
					"name": "_softCap",
					"type": "uint256"
				},
				{
					"internalType": "uint256",
					"name": "_hardCap",
					"type": "uint256"
				},
				{
					"internalType": "uint256",
					"name": "_tokenPriceUSD",
					"type": "uint256"
				},
				{
					"internalType": "uint256",
					"name": "_minPurchaseAmount",
					"type": "uint256"
				},
				{
					"internalType": "uint256",
					"name": "_maxPurchaseAmount",
					"type": "uint256"
				},
				{
					"internalType": "string",
					"name": "_saleName",
					"type": "string"
				},
				{
					"internalType": "bool",
					"name": "_isPrivate",
					"type": "bool"
				}
			],
			"name": "createSale",
			"outputs": [],
			"stateMutability": "nonpayable",
			"type": "function"
		},
		{
			"inputs": [
				{
					"internalType": "address payable",
					"name": "withdrawalAddress",
					"type": "address"
				}
			],
			"name": "finalizeICO",
			"outputs": [],
			"stateMutability": "nonpayable",
			"type": "function"
		},
		{
			"inputs": [],
			"name": "getCurrentSaleId",
			"outputs": [
				{
					"internalType": "uint256",
					"name": "",
					"type": "uint256"
				}
			],
			"stateMutability": "view",
			"type": "function"
		},
		{
			"inputs": [
				{
					"internalType": "uint256",
					"name": "saleId",
					"type": "uint256"
				}
			],
			"name": "getHardCapReached",
			"outputs": [
				{
					"internalType": "bool",
					"name": "",
					"type": "bool"
				}
			],
			"stateMutability": "view",
			"type": "function"
		},
		{
			"inputs": [
				{
					"internalType": "uint256",
					"name": "saleId",
					"type": "uint256"
				}
			],
			"name": "getInvestorCount",
			"outputs": [
				{
					"internalType": "uint256",
					"name": "saleInvestorCount",
					"type": "uint256"
				},
				{
					"internalType": "uint256",
					"name": "overallInvestorCount",
					"type": "uint256"
				}
			],
			"stateMutability": "view",
			"type": "function"
		},
		{
			"inputs": [
				{
					"internalType": "uint256",
					"name": "_saleId",
					"type": "uint256"
				}
			],
			"name": "getSaleStartEndTime",
			"outputs": [
				{
					"internalType": "uint256",
					"name": "_startTime",
					"type": "uint256"
				},
				{
					"internalType": "uint256",
					"name": "_endTime",
					"type": "uint256"
				}
			],
			"stateMutability": "view",
			"type": "function"
		},
		{
			"inputs": [
				{
					"internalType": "uint256",
					"name": "saleId",
					"type": "uint256"
				}
			],
			"name": "getSoftCapReached",
			"outputs": [
				{
					"internalType": "bool",
					"name": "",
					"type": "bool"
				}
			],
			"stateMutability": "view",
			"type": "function"
		},
		{
			"inputs": [
				{
					"internalType": "uint256",
					"name": "",
					"type": "uint256"
				},
				{
					"internalType": "address",
					"name": "",
					"type": "address"
				},
				{
					"internalType": "enum ICO.PaymentMethod",
					"name": "",
					"type": "uint8"
				}
			],
			"name": "investorPayments",
			"outputs": [
				{
					"internalType": "uint256",
					"name": "",
					"type": "uint256"
				}
			],
			"stateMutability": "view",
			"type": "function"
		},
		{
			"inputs": [],
			"name": "isICOFinalized",
			"outputs": [
				{
					"internalType": "bool",
					"name": "",
					"type": "bool"
				}
			],
			"stateMutability": "view",
			"type": "function"
		},
		{
			"inputs": [
				{
					"internalType": "enum ICO.PaymentMethod",
					"name": "paymentMethod",
					"type": "uint8"
				},
				{
					"internalType": "uint256",
					"name": "paymentAmount",
					"type": "uint256"
				}
			],
			"name": "maxMinNormalize",
			"outputs": [
				{
					"internalType": "uint256",
					"name": "",
					"type": "uint256"
				}
			],
			"stateMutability": "pure",
			"type": "function"
		},
		{
			"inputs": [
				{
					"internalType": "address",
					"name": "_user",
					"type": "address"
				}
			],
			"name": "normalizeUser",
			"outputs": [],
			"stateMutability": "nonpayable",
			"type": "function"
		},
		{
			"inputs": [],
			"name": "owner",
			"outputs": [
				{
					"internalType": "address",
					"name": "",
					"type": "address"
				}
			],
			"stateMutability": "view",
			"type": "function"
		},
		{
			"inputs": [],
			"name": "pause",
			"outputs": [],
			"stateMutability": "nonpayable",
			"type": "function"
		},
		{
			"inputs": [],
			"name": "paused",
			"outputs": [
				{
					"internalType": "bool",
					"name": "",
					"type": "bool"
				}
			],
			"stateMutability": "view",
			"type": "function"
		},
		{
			"inputs": [
				{
					"internalType": "address",
					"name": "",
					"type": "address"
				}
			],
			"name": "paymentMethodForInvestor",
			"outputs": [
				{
					"internalType": "enum ICO.PaymentMethod",
					"name": "",
					"type": "uint8"
				}
			],
			"stateMutability": "view",
			"type": "function"
		},
		{
			"inputs": [
				{
					"internalType": "uint256",
					"name": "val",
					"type": "uint256"
				}
			],
			"name": "precision_div_10",
			"outputs": [
				{
					"internalType": "uint256",
					"name": "",
					"type": "uint256"
				}
			],
			"stateMutability": "pure",
			"type": "function"
		},
		{
			"inputs": [
				{
					"internalType": "uint256",
					"name": "val",
					"type": "uint256"
				}
			],
			"name": "precision_div_18",
			"outputs": [
				{
					"internalType": "uint256",
					"name": "",
					"type": "uint256"
				}
			],
			"stateMutability": "pure",
			"type": "function"
		},
		{
			"inputs": [
				{
					"internalType": "uint256",
					"name": "val",
					"type": "uint256"
				}
			],
			"name": "precision_mul_10",
			"outputs": [
				{
					"internalType": "uint256",
					"name": "",
					"type": "uint256"
				}
			],
			"stateMutability": "pure",
			"type": "function"
		},
		{
			"inputs": [
				{
					"internalType": "uint256",
					"name": "val",
					"type": "uint256"
				}
			],
			"name": "precision_mul_12",
			"outputs": [
				{
					"internalType": "uint256",
					"name": "",
					"type": "uint256"
				}
			],
			"stateMutability": "pure",
			"type": "function"
		},
		{
			"inputs": [
				{
					"internalType": "uint256",
					"name": "val",
					"type": "uint256"
				}
			],
			"name": "precision_mul_18",
			"outputs": [
				{
					"internalType": "uint256",
					"name": "",
					"type": "uint256"
				}
			],
			"stateMutability": "pure",
			"type": "function"
		},
		{
			"inputs": [],
			"name": "renounceOwnership",
			"outputs": [],
			"stateMutability": "nonpayable",
			"type": "function"
		},
		{
			"inputs": [],
			"name": "saleCount",
			"outputs": [
				{
					"internalType": "uint256",
					"name": "",
					"type": "uint256"
				}
			],
			"stateMutability": "view",
			"type": "function"
		},
		{
			"inputs": [
				{
					"internalType": "uint256",
					"name": "",
					"type": "uint256"
				}
			],
			"name": "sales",
			"outputs": [
				{
					"internalType": "uint256",
					"name": "startTime",
					"type": "uint256"
				},
				{
					"internalType": "uint256",
					"name": "endTime",
					"type": "uint256"
				},
				{
					"internalType": "uint256",
					"name": "softCap",
					"type": "uint256"
				},
				{
					"internalType": "uint256",
					"name": "hardCap",
					"type": "uint256"
				},
				{
					"internalType": "uint256",
					"name": "tokenPrice",
					"type": "uint256"
				},
				{
					"internalType": "uint256",
					"name": "tokensSold",
					"type": "uint256"
				},
				{
					"internalType": "uint256",
					"name": "fundRaised",
					"type": "uint256"
				},
				{
					"internalType": "uint256",
					"name": "minPurchaseAmount",
					"type": "uint256"
				},
				{
					"internalType": "uint256",
					"name": "maxPurchaseAmount",
					"type": "uint256"
				},
				{
					"internalType": "string",
					"name": "name",
					"type": "string"
				},
				{
					"internalType": "bool",
					"name": "isPrivate",
					"type": "bool"
				},
				{
					"internalType": "bool",
					"name": "isFinalized",
					"type": "bool"
				},
				{
					"internalType": "bool",
					"name": "immediateFinalizeSale",
					"type": "bool"
				}
			],
			"stateMutability": "view",
			"type": "function"
		},
		{
			"inputs": [
				{
					"internalType": "uint256",
					"name": "saleId",
					"type": "uint256"
				},
				{
					"internalType": "bool",
					"name": "_allow",
					"type": "bool"
				}
			],
			"name": "setAllowImmediateFinalization",
			"outputs": [],
			"stateMutability": "nonpayable",
			"type": "function"
		},
		{
			"inputs": [],
			"name": "token",
			"outputs": [
				{
					"internalType": "contract ERC20Token",
					"name": "",
					"type": "address"
				}
			],
			"stateMutability": "view",
			"type": "function"
		},
		{
			"inputs": [
				{
					"internalType": "address",
					"name": "",
					"type": "address"
				}
			],
			"name": "tokensBoughtByInvestor",
			"outputs": [
				{
					"internalType": "uint256",
					"name": "",
					"type": "uint256"
				}
			],
			"stateMutability": "view",
			"type": "function"
		},
		{
			"inputs": [
				{
					"internalType": "uint256",
					"name": "",
					"type": "uint256"
				},
				{
					"internalType": "address",
					"name": "",
					"type": "address"
				}
			],
			"name": "tokensBoughtByInvestorForSale",
			"outputs": [
				{
					"internalType": "uint256",
					"name": "",
					"type": "uint256"
				}
			],
			"stateMutability": "view",
			"type": "function"
		},
		{
			"inputs": [],
			"name": "totalFundsRaisedUSD",
			"outputs": [
				{
					"internalType": "uint256",
					"name": "",
					"type": "uint256"
				}
			],
			"stateMutability": "view",
			"type": "function"
		},
		{
			"inputs": [],
			"name": "totalTokensSold",
			"outputs": [
				{
					"internalType": "uint256",
					"name": "",
					"type": "uint256"
				}
			],
			"stateMutability": "view",
			"type": "function"
		},
		{
			"inputs": [
				{
					"internalType": "address",
					"name": "newOwner",
					"type": "address"
				}
			],
			"name": "transferOwnership",
			"outputs": [],
			"stateMutability": "nonpayable",
			"type": "function"
		},
		{
			"inputs": [],
			"name": "unpause",
			"outputs": [],
			"stateMutability": "nonpayable",
			"type": "function"
		},
		{
			"inputs": [],
			"name": "usdc",
			"outputs": [
				{
					"internalType": "address",
					"name": "",
					"type": "address"
				}
			],
			"stateMutability": "view",
			"type": "function"
		},
		{
			"inputs": [],
			"name": "usdt",
			"outputs": [
				{
					"internalType": "address",
					"name": "",
					"type": "address"
				}
			],
			"stateMutability": "view",
			"type": "function"
		},
		{
			"inputs": [],
			"name": "vestingContract",
			"outputs": [
				{
					"internalType": "contract TokenVesting",
					"name": "",
					"type": "address"
				}
			],
			"stateMutability": "view",
			"type": "function"
		},
		{
			"inputs": [
				{
					"internalType": "address",
					"name": "_user",
					"type": "address"
				}
			],
			"name": "whitelistUser",
			"outputs": [],
			"stateMutability": "nonpayable",
			"type": "function"
		},
		{
			"inputs": [
				{
					"internalType": "address",
					"name": "",
					"type": "address"
				}
			],
			"name": "whitelistedUsers",
			"outputs": [
				{
					"internalType": "bool",
					"name": "",
					"type": "bool"
				}
			],
			"stateMutability": "view",
			"type": "function"
		},
		{
			"stateMutability": "payable",
			"type": "receive"
		}
	]
}