{
	"data": {
		"bytecode": {
			"linkReferences": {},
			"object": "608060405234801561000f575f80fd5b50604051610ed7380380610ed783398101604081905261002e916100d1565b338061005357604051631e4fbdf760e01b81525f600482015260240160405180910390fd5b61005c81610082565b50600180546001600160a01b0319166001600160a01b03929092169190911790556100fe565b5f80546001600160a01b038381166001600160a01b0319831681178455604051919092169283917f8be0079c531659141344cd1fd0a4f28419497f9722a3daafe3b4186f6b6457e09190a35050565b5f602082840312156100e1575f80fd5b81516001600160a01b03811681146100f7575f80fd5b9392505050565b610dcc8061010b5f395ff3fe608060405234801561000f575f80fd5b5060043610610090575f3560e01c806387a0683c1161006357806387a0683c146100f45780638da5cb5b1461018c578063c66e40951461019c578063e09678fd146101af578063f2fde38b146101c2575f80fd5b8063260c2cec14610094578063374048fc146100c4578063379607f5146100d9578063715018a6146100ec575b5f80fd5b6001546100a7906001600160a01b031681565b6040516001600160a01b0390911681526020015b60405180910390f35b6100d76100d2366004610bbb565b6101d5565b005b6100d76100e7366004610c1b565b610447565b6100d76109b7565b610151610102366004610c32565b6003602052815f5260405f20602052805f5260405f205f9150915050805f0154908060010154908060020154908060030154908060040154908060050154908060060154908060070154905088565b604080519889526020890197909752958701949094526060860192909252608085015260a084015260c083015260e0820152610100016100bb565b5f546001600160a01b03166100a7565b6002546100a7906001600160a01b031681565b6100d76101bd366004610c5c565b6109ca565b6100d76101d0366004610c5c565b610a39565b6002546001600160a01b031633146102435760405162461bcd60e51b815260206004820152602660248201527f4f6e6c792049434f20636f6e74726163742063616e2072656769737465722076604482015265657374696e6760d01b60648201526084015b60405180910390fd5b6001600160a01b0389166102915760405162461bcd60e51b81526020600482015260156024820152744e756c6c20496e766573746f72206164647265737360581b604482015260640161023a565b821580159061029f57508115155b80156102aa57508015155b80156102b557508615155b6102f75760405162461bcd60e51b8152602060048201526013602482015272125b9d985b1a590819185d18481c185cdcd959606a1b604482015260640161023a565b604051806101000160405280898152602001888152602001878152602001868152602001858152602001848661032d9190610c90565b81526020018361033d8688610c90565b6103479190610c90565b8152602001826103578688610c90565b6103619190610c90565b90525f8981526003602081815260408084206001600160a01b038f16808652908352938190208551815591850151600183015584015160028201556060840151918101919091556080830151600482015560a0830151600582015560c0830151600682015560e0909201516007909201919091557fc29e1b2ff8ecfe1d0d33530f78ee6bd83616ee585b0dfb881b69e357fbfd749a886104018688610c90565b8561040c888a610c90565b6104169190610c90565b60408051938452602084019290925290820152606081018490526080015b60405180910390a2505050505050505050565b5f818152600360209081526040808320338452825291829020825180840190935260128352710f4f4f4f5cd8da19591d5b1948199bdd5b9960721b918301919091529061049390610a76565b80600501545f036104e65760405162461bcd60e51b815260206004820152601960248201527f4e6f2076657374696e67207363686564756c6520666f756e6400000000000000604482015260640161023a565b6105246040518060400160405280601a81526020017f3d3d3d3d76657374696e67207363686564756c6520666f756e64000000000000815250610a76565b6040805180820190915260138152723d3d3d3d3d3d3d3d63757272656e7454696d6560681b6020820152429061055a9082610ab9565b81600501548110156105ae5760405162461bcd60e51b815260206004820152601760248201527f4c6f636b757020706572696f64206e6f7420656e646564000000000000000000604482015260640161023a565b6105ec6040518060400160405280601b81526020017f3d3d3d3d3d3d3d3d6c6f636b757020706572696f6420636865636b0000000000815250610a76565b5f8260050154826105fd9190610ca9565b9050610634604051806040016040528060138152602001723d3d3d3d3d3d3d3d656c617073656454696d6560681b81525082610ab9565b5f83600701548460050154856006015461064e9190610ca9565b6106589190610cbc565b9050610692604051806040016040528060168152602001753d3d3d3d3d3d3d3d746f74616c496e74657276616c7360501b81525082610ab9565b5f8185600301546106a39190610cbc565b90506106e46040518060400160405280601981526020017f3d3d3d3d3d3d3d3d746f6b656e73506572496e74657276616c0000000000000081525082610ab9565b5f8560070154846106f59190610cbc565b90506107366040518060400160405280601881526020017f3d3d3d3d3d3d3d3d696e74657276616c73456c6170736564000000000000000081525082610ab9565b5f6107418383610cdb565b905061077b604051806040016040528060168152602001753d3d3d3d3d3d3d3d746f74616c436c61696d61626c6560501b81525082610ab9565b866002015481116107ce5760405162461bcd60e51b815260206004820152601c60248201527f4e6f20746f6b656e7320617661696c61626c6520746f20636c61696d00000000604482015260640161023a565b61080c6040518060400160405280601f81526020017f3d3d3d3d3d3d3d3d63726f7373656420436c61696d61626c6520636865636b00815250610a76565b5f87600201548261081d9190610ca9565b9050610856604051806040016040528060158152602001743d3d3d3d3d3d3d3d746f6b656e73546f436c61696d60581b81525082610ab9565b8088600201546108669190610c90565b600289015560408051808201909152601d81527f3d3d3d3d3d3d3d3d636c61696d656420746f6b656e207570646174656400000060208201526108a890610a76565b60015460405163a9059cbb60e01b8152336004820152602481018390526001600160a01b039091169063a9059cbb906044016020604051808303815f875af11580156108f6573d5f803e3d5ffd5b505050506040513d601f19601f8201168201806040525081019061091a9190610cf2565b61095e5760405162461bcd60e51b8152602060048201526015602482015274151bdad95b881d1c985b9cd9995c8819985a5b1959605a1b604482015260640161023a565b61097f604051806060016040528060248152602001610d7360249139610a76565b604080518a81526020810183905233917f9923b4306c6c030f2bdfbf156517d5983b87e15b96176da122cd4f2effa4ba7b9101610434565b6109bf610b02565b6109c85f610b2e565b565b6109d2610b02565b6001600160a01b038116610a175760405162461bcd60e51b815260206004820152600c60248201526b4e756c6c204164647265737360a01b604482015260640161023a565b600280546001600160a01b0319166001600160a01b0392909216919091179055565b610a41610b02565b6001600160a01b038116610a6a57604051631e4fbdf760e01b81525f600482015260240161023a565b610a7381610b2e565b50565b610a7381604051602401610a8a9190610d3f565b60408051601f198184030181529190526020810180516001600160e01b031663104c13eb60e21b179052610b7d565b610afe8282604051602401610acf929190610d51565b60408051601f198184030181529190526020810180516001600160e01b0316632d839cb360e21b179052610b7d565b5050565b5f546001600160a01b031633146109c85760405163118cdaa760e01b815233600482015260240161023a565b5f80546001600160a01b038381166001600160a01b0319831681178455604051919092169283917f8be0079c531659141344cd1fd0a4f28419497f9722a3daafe3b4186f6b6457e09190a35050565b610a73815f6a636f6e736f6c652e6c6f6790505f80835160208501845afa505050565b80356001600160a01b0381168114610bb6575f80fd5b919050565b5f805f805f805f805f6101208a8c031215610bd4575f80fd5b610bdd8a610ba0565b9b60208b01359b5060408b01359a60608101359a506080810135995060a0810135985060c0810135975060e081013596506101000135945092505050565b5f60208284031215610c2b575f80fd5b5035919050565b5f8060408385031215610c43575f80fd5b82359150610c5360208401610ba0565b90509250929050565b5f60208284031215610c6c575f80fd5b610c7582610ba0565b9392505050565b634e487b7160e01b5f52601160045260245ffd5b80820180821115610ca357610ca3610c7c565b92915050565b81810381811115610ca357610ca3610c7c565b5f82610cd657634e487b7160e01b5f52601260045260245ffd5b500490565b8082028115828204841417610ca357610ca3610c7c565b5f60208284031215610d02575f80fd5b81518015158114610c75575f80fd5b5f81518084528060208401602086015e5f602082860101526020601f19601f83011685010191505092915050565b602081525f610c756020830184610d11565b604081525f610d636040830185610d11565b9050826020830152939250505056fe3d3d3d3d3d3d3d3d746f6b656e207472616e73666572656420746f20696e766573746f72a2646970667358221220b6961777a0ed364bfaa35f01bd8e86817a09f89d10e18269ba6a4bf66b712bbd64736f6c634300081a0033",
			"opcodes": "PUSH1 0x80 PUSH1 0x40 MSTORE CALLVALUE DUP1 ISZERO PUSH2 0xF JUMPI PUSH0 DUP1 REVERT JUMPDEST POP PUSH1 0x40 MLOAD PUSH2 0xED7 CODESIZE SUB DUP1 PUSH2 0xED7 DUP4 CODECOPY DUP2 ADD PUSH1 0x40 DUP2 SWAP1 MSTORE PUSH2 0x2E SWAP2 PUSH2 0xD1 JUMP JUMPDEST CALLER DUP1 PUSH2 0x53 JUMPI PUSH1 0x40 MLOAD PUSH4 0x1E4FBDF7 PUSH1 0xE0 SHL DUP2 MSTORE PUSH0 PUSH1 0x4 DUP3 ADD MSTORE PUSH1 0x24 ADD PUSH1 0x40 MLOAD DUP1 SWAP2 SUB SWAP1 REVERT JUMPDEST PUSH2 0x5C DUP2 PUSH2 0x82 JUMP JUMPDEST POP PUSH1 0x1 DUP1 SLOAD PUSH1 0x1 PUSH1 0x1 PUSH1 0xA0 SHL SUB NOT AND PUSH1 0x1 PUSH1 0x1 PUSH1 0xA0 SHL SUB SWAP3 SWAP1 SWAP3 AND SWAP2 SWAP1 SWAP2 OR SWAP1 SSTORE PUSH2 0xFE JUMP JUMPDEST PUSH0 DUP1 SLOAD PUSH1 0x1 PUSH1 0x1 PUSH1 0xA0 SHL SUB DUP4 DUP2 AND PUSH1 0x1 PUSH1 0x1 PUSH1 0xA0 SHL SUB NOT DUP4 AND DUP2 OR DUP5 SSTORE PUSH1 0x40 MLOAD SWAP2 SWAP1 SWAP3 AND SWAP3 DUP4 SWAP2 PUSH32 0x8BE0079C531659141344CD1FD0A4F28419497F9722A3DAAFE3B4186F6B6457E0 SWAP2 SWAP1 LOG3 POP POP JUMP JUMPDEST PUSH0 PUSH1 0x20 DUP3 DUP5 SUB SLT ISZERO PUSH2 0xE1 JUMPI PUSH0 DUP1 REVERT JUMPDEST DUP2 MLOAD PUSH1 0x1 PUSH1 0x1 PUSH1 0xA0 SHL SUB DUP2 AND DUP2 EQ PUSH2 0xF7 JUMPI PUSH0 DUP1 REVERT JUMPDEST SWAP4 SWAP3 POP POP POP JUMP JUMPDEST PUSH2 0xDCC DUP1 PUSH2 0x10B PUSH0 CODECOPY PUSH0 RETURN INVALID PUSH1 0x80 PUSH1 0x40 MSTORE CALLVALUE DUP1 ISZERO PUSH2 0xF JUMPI PUSH0 DUP1 REVERT JUMPDEST POP PUSH1 0x4 CALLDATASIZE LT PUSH2 0x90 JUMPI PUSH0 CALLDATALOAD PUSH1 0xE0 SHR DUP1 PUSH4 0x87A0683C GT PUSH2 0x63 JUMPI DUP1 PUSH4 0x87A0683C EQ PUSH2 0xF4 JUMPI DUP1 PUSH4 0x8DA5CB5B EQ PUSH2 0x18C JUMPI DUP1 PUSH4 0xC66E4095 EQ PUSH2 0x19C JUMPI DUP1 PUSH4 0xE09678FD EQ PUSH2 0x1AF JUMPI DUP1 PUSH4 0xF2FDE38B EQ PUSH2 0x1C2 JUMPI PUSH0 DUP1 REVERT JUMPDEST DUP1 PUSH4 0x260C2CEC EQ PUSH2 0x94 JUMPI DUP1 PUSH4 0x374048FC EQ PUSH2 0xC4 JUMPI DUP1 PUSH4 0x379607F5 EQ PUSH2 0xD9 JUMPI DUP1 PUSH4 0x715018A6 EQ PUSH2 0xEC JUMPI JUMPDEST PUSH0 DUP1 REVERT JUMPDEST PUSH1 0x1 SLOAD PUSH2 0xA7 SWAP1 PUSH1 0x1 PUSH1 0x1 PUSH1 0xA0 SHL SUB AND DUP2 JUMP JUMPDEST PUSH1 0x40 MLOAD PUSH1 0x1 PUSH1 0x1 PUSH1 0xA0 SHL SUB SWAP1 SWAP2 AND DUP2 MSTORE PUSH1 0x20 ADD JUMPDEST PUSH1 0x40 MLOAD DUP1 SWAP2 SUB SWAP1 RETURN JUMPDEST PUSH2 0xD7 PUSH2 0xD2 CALLDATASIZE PUSH1 0x4 PUSH2 0xBBB JUMP JUMPDEST PUSH2 0x1D5 JUMP JUMPDEST STOP JUMPDEST PUSH2 0xD7 PUSH2 0xE7 CALLDATASIZE PUSH1 0x4 PUSH2 0xC1B JUMP JUMPDEST PUSH2 0x447 JUMP JUMPDEST PUSH2 0xD7 PUSH2 0x9B7 JUMP JUMPDEST PUSH2 0x151 PUSH2 0x102 CALLDATASIZE PUSH1 0x4 PUSH2 0xC32 JUMP JUMPDEST PUSH1 0x3 PUSH1 0x20 MSTORE DUP2 PUSH0 MSTORE PUSH1 0x40 PUSH0 KECCAK256 PUSH1 0x20 MSTORE DUP1 PUSH0 MSTORE PUSH1 0x40 PUSH0 KECCAK256 PUSH0 SWAP2 POP SWAP2 POP POP DUP1 PUSH0 ADD SLOAD SWAP1 DUP1 PUSH1 0x1 ADD SLOAD SWAP1 DUP1 PUSH1 0x2 ADD SLOAD SWAP1 DUP1 PUSH1 0x3 ADD SLOAD SWAP1 DUP1 PUSH1 0x4 ADD SLOAD SWAP1 DUP1 PUSH1 0x5 ADD SLOAD SWAP1 DUP1 PUSH1 0x6 ADD SLOAD SWAP1 DUP1 PUSH1 0x7 ADD SLOAD SWAP1 POP DUP9 JUMP JUMPDEST PUSH1 0x40 DUP1 MLOAD SWAP9 DUP10 MSTORE PUSH1 0x20 DUP10 ADD SWAP8 SWAP1 SWAP8 MSTORE SWAP6 DUP8 ADD SWAP5 SWAP1 SWAP5 MSTORE PUSH1 0x60 DUP7 ADD SWAP3 SWAP1 SWAP3 MSTORE PUSH1 0x80 DUP6 ADD MSTORE PUSH1 0xA0 DUP5 ADD MSTORE PUSH1 0xC0 DUP4 ADD MSTORE PUSH1 0xE0 DUP3 ADD MSTORE PUSH2 0x100 ADD PUSH2 0xBB JUMP JUMPDEST PUSH0 SLOAD PUSH1 0x1 PUSH1 0x1 PUSH1 0xA0 SHL SUB AND PUSH2 0xA7 JUMP JUMPDEST PUSH1 0x2 SLOAD PUSH2 0xA7 SWAP1 PUSH1 0x1 PUSH1 0x1 PUSH1 0xA0 SHL SUB AND DUP2 JUMP JUMPDEST PUSH2 0xD7 PUSH2 0x1BD CALLDATASIZE PUSH1 0x4 PUSH2 0xC5C JUMP JUMPDEST PUSH2 0x9CA JUMP JUMPDEST PUSH2 0xD7 PUSH2 0x1D0 CALLDATASIZE PUSH1 0x4 PUSH2 0xC5C JUMP JUMPDEST PUSH2 0xA39 JUMP JUMPDEST PUSH1 0x2 SLOAD PUSH1 0x1 PUSH1 0x1 PUSH1 0xA0 SHL SUB AND CALLER EQ PUSH2 0x243 JUMPI PUSH1 0x40 MLOAD PUSH3 0x461BCD PUSH1 0xE5 SHL DUP2 MSTORE PUSH1 0x20 PUSH1 0x4 DUP3 ADD MSTORE PUSH1 0x26 PUSH1 0x24 DUP3 ADD MSTORE PUSH32 0x4F6E6C792049434F20636F6E74726163742063616E2072656769737465722076 PUSH1 0x44 DUP3 ADD MSTORE PUSH6 0x657374696E67 PUSH1 0xD0 SHL PUSH1 0x64 DUP3 ADD MSTORE PUSH1 0x84 ADD JUMPDEST PUSH1 0x40 MLOAD DUP1 SWAP2 SUB SWAP1 REVERT JUMPDEST PUSH1 0x1 PUSH1 0x1 PUSH1 0xA0 SHL SUB DUP10 AND PUSH2 0x291 JUMPI PUSH1 0x40 MLOAD PUSH3 0x461BCD PUSH1 0xE5 SHL DUP2 MSTORE PUSH1 0x20 PUSH1 0x4 DUP3 ADD MSTORE PUSH1 0x15 PUSH1 0x24 DUP3 ADD MSTORE PUSH21 0x4E756C6C20496E766573746F722061646472657373 PUSH1 0x58 SHL PUSH1 0x44 DUP3 ADD MSTORE PUSH1 0x64 ADD PUSH2 0x23A JUMP JUMPDEST DUP3 ISZERO DUP1 ISZERO SWAP1 PUSH2 0x29F JUMPI POP DUP2 ISZERO ISZERO JUMPDEST DUP1 ISZERO PUSH2 0x2AA JUMPI POP DUP1 ISZERO ISZERO JUMPDEST DUP1 ISZERO PUSH2 0x2B5 JUMPI POP DUP7 ISZERO ISZERO JUMPDEST PUSH2 0x2F7 JUMPI PUSH1 0x40 MLOAD PUSH3 0x461BCD PUSH1 0xE5 SHL DUP2 MSTORE PUSH1 0x20 PUSH1 0x4 DUP3 ADD MSTORE PUSH1 0x13 PUSH1 0x24 DUP3 ADD MSTORE PUSH19 0x125B9D985B1A590819185D18481C185CDCD959 PUSH1 0x6A SHL PUSH1 0x44 DUP3 ADD MSTORE PUSH1 0x64 ADD PUSH2 0x23A JUMP JUMPDEST PUSH1 0x40 MLOAD DUP1 PUSH2 0x100 ADD PUSH1 0x40 MSTORE DUP1 DUP10 DUP2 MSTORE PUSH1 0x20 ADD DUP9 DUP2 MSTORE PUSH1 0x20 ADD DUP8 DUP2 MSTORE PUSH1 0x20 ADD DUP7 DUP2 MSTORE PUSH1 0x20 ADD DUP6 DUP2 MSTORE PUSH1 0x20 ADD DUP5 DUP7 PUSH2 0x32D SWAP2 SWAP1 PUSH2 0xC90 JUMP JUMPDEST DUP2 MSTORE PUSH1 0x20 ADD DUP4 PUSH2 0x33D DUP7 DUP9 PUSH2 0xC90 JUMP JUMPDEST PUSH2 0x347 SWAP2 SWAP1 PUSH2 0xC90 JUMP JUMPDEST DUP2 MSTORE PUSH1 0x20 ADD DUP3 PUSH2 0x357 DUP7 DUP9 PUSH2 0xC90 JUMP JUMPDEST PUSH2 0x361 SWAP2 SWAP1 PUSH2 0xC90 JUMP JUMPDEST SWAP1 MSTORE PUSH0 DUP10 DUP2 MSTORE PUSH1 0x3 PUSH1 0x20 DUP2 DUP2 MSTORE PUSH1 0x40 DUP1 DUP5 KECCAK256 PUSH1 0x1 PUSH1 0x1 PUSH1 0xA0 SHL SUB DUP16 AND DUP1 DUP7 MSTORE SWAP1 DUP4 MSTORE SWAP4 DUP2 SWAP1 KECCAK256 DUP6 MLOAD DUP2 SSTORE SWAP2 DUP6 ADD MLOAD PUSH1 0x1 DUP4 ADD SSTORE DUP5 ADD MLOAD PUSH1 0x2 DUP3 ADD SSTORE PUSH1 0x60 DUP5 ADD MLOAD SWAP2 DUP2 ADD SWAP2 SWAP1 SWAP2 SSTORE PUSH1 0x80 DUP4 ADD MLOAD PUSH1 0x4 DUP3 ADD SSTORE PUSH1 0xA0 DUP4 ADD MLOAD PUSH1 0x5 DUP3 ADD SSTORE PUSH1 0xC0 DUP4 ADD MLOAD PUSH1 0x6 DUP3 ADD SSTORE PUSH1 0xE0 SWAP1 SWAP3 ADD MLOAD PUSH1 0x7 SWAP1 SWAP3 ADD SWAP2 SWAP1 SWAP2 SSTORE PUSH32 0xC29E1B2FF8ECFE1D0D33530F78EE6BD83616EE585B0DFB881B69E357FBFD749A DUP9 PUSH2 0x401 DUP7 DUP9 PUSH2 0xC90 JUMP JUMPDEST DUP6 PUSH2 0x40C DUP9 DUP11 PUSH2 0xC90 JUMP JUMPDEST PUSH2 0x416 SWAP2 SWAP1 PUSH2 0xC90 JUMP JUMPDEST PUSH1 0x40 DUP1 MLOAD SWAP4 DUP5 MSTORE PUSH1 0x20 DUP5 ADD SWAP3 SWAP1 SWAP3 MSTORE SWAP1 DUP3 ADD MSTORE PUSH1 0x60 DUP2 ADD DUP5 SWAP1 MSTORE PUSH1 0x80 ADD JUMPDEST PUSH1 0x40 MLOAD DUP1 SWAP2 SUB SWAP1 LOG2 POP POP POP POP POP POP POP POP POP JUMP JUMPDEST PUSH0 DUP2 DUP2 MSTORE PUSH1 0x3 PUSH1 0x20 SWAP1 DUP2 MSTORE PUSH1 0x40 DUP1 DUP4 KECCAK256 CALLER DUP5 MSTORE DUP3 MSTORE SWAP2 DUP3 SWAP1 KECCAK256 DUP3 MLOAD DUP1 DUP5 ADD SWAP1 SWAP4 MSTORE PUSH1 0x12 DUP4 MSTORE PUSH18 0xF4F4F4F5CD8DA19591D5B1948199BDD5B99 PUSH1 0x72 SHL SWAP2 DUP4 ADD SWAP2 SWAP1 SWAP2 MSTORE SWAP1 PUSH2 0x493 SWAP1 PUSH2 0xA76 JUMP JUMPDEST DUP1 PUSH1 0x5 ADD SLOAD PUSH0 SUB PUSH2 0x4E6 JUMPI PUSH1 0x40 MLOAD PUSH3 0x461BCD PUSH1 0xE5 SHL DUP2 MSTORE PUSH1 0x20 PUSH1 0x4 DUP3 ADD MSTORE PUSH1 0x19 PUSH1 0x24 DUP3 ADD MSTORE PUSH32 0x4E6F2076657374696E67207363686564756C6520666F756E6400000000000000 PUSH1 0x44 DUP3 ADD MSTORE PUSH1 0x64 ADD PUSH2 0x23A JUMP JUMPDEST PUSH2 0x524 PUSH1 0x40 MLOAD DUP1 PUSH1 0x40 ADD PUSH1 0x40 MSTORE DUP1 PUSH1 0x1A DUP2 MSTORE PUSH1 0x20 ADD PUSH32 0x3D3D3D3D76657374696E67207363686564756C6520666F756E64000000000000 DUP2 MSTORE POP PUSH2 0xA76 JUMP JUMPDEST PUSH1 0x40 DUP1 MLOAD DUP1 DUP3 ADD SWAP1 SWAP2 MSTORE PUSH1 0x13 DUP2 MSTORE PUSH19 0x3D3D3D3D3D3D3D3D63757272656E7454696D65 PUSH1 0x68 SHL PUSH1 0x20 DUP3 ADD MSTORE TIMESTAMP SWAP1 PUSH2 0x55A SWAP1 DUP3 PUSH2 0xAB9 JUMP JUMPDEST DUP2 PUSH1 0x5 ADD SLOAD DUP2 LT ISZERO PUSH2 0x5AE JUMPI PUSH1 0x40 MLOAD PUSH3 0x461BCD PUSH1 0xE5 SHL DUP2 MSTORE PUSH1 0x20 PUSH1 0x4 DUP3 ADD MSTORE PUSH1 0x17 PUSH1 0x24 DUP3 ADD MSTORE PUSH32 0x4C6F636B757020706572696F64206E6F7420656E646564000000000000000000 PUSH1 0x44 DUP3 ADD MSTORE PUSH1 0x64 ADD PUSH2 0x23A JUMP JUMPDEST PUSH2 0x5EC PUSH1 0x40 MLOAD DUP1 PUSH1 0x40 ADD PUSH1 0x40 MSTORE DUP1 PUSH1 0x1B DUP2 MSTORE PUSH1 0x20 ADD PUSH32 0x3D3D3D3D3D3D3D3D6C6F636B757020706572696F6420636865636B0000000000 DUP2 MSTORE POP PUSH2 0xA76 JUMP JUMPDEST PUSH0 DUP3 PUSH1 0x5 ADD SLOAD DUP3 PUSH2 0x5FD SWAP2 SWAP1 PUSH2 0xCA9 JUMP JUMPDEST SWAP1 POP PUSH2 0x634 PUSH1 0x40 MLOAD DUP1 PUSH1 0x40 ADD PUSH1 0x40 MSTORE DUP1 PUSH1 0x13 DUP2 MSTORE PUSH1 0x20 ADD PUSH19 0x3D3D3D3D3D3D3D3D656C617073656454696D65 PUSH1 0x68 SHL DUP2 MSTORE POP DUP3 PUSH2 0xAB9 JUMP JUMPDEST PUSH0 DUP4 PUSH1 0x7 ADD SLOAD DUP5 PUSH1 0x5 ADD SLOAD DUP6 PUSH1 0x6 ADD SLOAD PUSH2 0x64E SWAP2 SWAP1 PUSH2 0xCA9 JUMP JUMPDEST PUSH2 0x658 SWAP2 SWAP1 PUSH2 0xCBC JUMP JUMPDEST SWAP1 POP PUSH2 0x692 PUSH1 0x40 MLOAD DUP1 PUSH1 0x40 ADD PUSH1 0x40 MSTORE DUP1 PUSH1 0x16 DUP2 MSTORE PUSH1 0x20 ADD PUSH22 0x3D3D3D3D3D3D3D3D746F74616C496E74657276616C73 PUSH1 0x50 SHL DUP2 MSTORE POP DUP3 PUSH2 0xAB9 JUMP JUMPDEST PUSH0 DUP2 DUP6 PUSH1 0x3 ADD SLOAD PUSH2 0x6A3 SWAP2 SWAP1 PUSH2 0xCBC JUMP JUMPDEST SWAP1 POP PUSH2 0x6E4 PUSH1 0x40 MLOAD DUP1 PUSH1 0x40 ADD PUSH1 0x40 MSTORE DUP1 PUSH1 0x19 DUP2 MSTORE PUSH1 0x20 ADD PUSH32 0x3D3D3D3D3D3D3D3D746F6B656E73506572496E74657276616C00000000000000 DUP2 MSTORE POP DUP3 PUSH2 0xAB9 JUMP JUMPDEST PUSH0 DUP6 PUSH1 0x7 ADD SLOAD DUP5 PUSH2 0x6F5 SWAP2 SWAP1 PUSH2 0xCBC JUMP JUMPDEST SWAP1 POP PUSH2 0x736 PUSH1 0x40 MLOAD DUP1 PUSH1 0x40 ADD PUSH1 0x40 MSTORE DUP1 PUSH1 0x18 DUP2 MSTORE PUSH1 0x20 ADD PUSH32 0x3D3D3D3D3D3D3D3D696E74657276616C73456C61707365640000000000000000 DUP2 MSTORE POP DUP3 PUSH2 0xAB9 JUMP JUMPDEST PUSH0 PUSH2 0x741 DUP4 DUP4 PUSH2 0xCDB JUMP JUMPDEST SWAP1 POP PUSH2 0x77B PUSH1 0x40 MLOAD DUP1 PUSH1 0x40 ADD PUSH1 0x40 MSTORE DUP1 PUSH1 0x16 DUP2 MSTORE PUSH1 0x20 ADD PUSH22 0x3D3D3D3D3D3D3D3D746F74616C436C61696D61626C65 PUSH1 0x50 SHL DUP2 MSTORE POP DUP3 PUSH2 0xAB9 JUMP JUMPDEST DUP7 PUSH1 0x2 ADD SLOAD DUP2 GT PUSH2 0x7CE JUMPI PUSH1 0x40 MLOAD PUSH3 0x461BCD PUSH1 0xE5 SHL DUP2 MSTORE PUSH1 0x20 PUSH1 0x4 DUP3 ADD MSTORE PUSH1 0x1C PUSH1 0x24 DUP3 ADD MSTORE PUSH32 0x4E6F20746F6B656E7320617661696C61626C6520746F20636C61696D00000000 PUSH1 0x44 DUP3 ADD MSTORE PUSH1 0x64 ADD PUSH2 0x23A JUMP JUMPDEST PUSH2 0x80C PUSH1 0x40 MLOAD DUP1 PUSH1 0x40 ADD PUSH1 0x40 MSTORE DUP1 PUSH1 0x1F DUP2 MSTORE PUSH1 0x20 ADD PUSH32 0x3D3D3D3D3D3D3D3D63726F7373656420436C61696D61626C6520636865636B00 DUP2 MSTORE POP PUSH2 0xA76 JUMP JUMPDEST PUSH0 DUP8 PUSH1 0x2 ADD SLOAD DUP3 PUSH2 0x81D SWAP2 SWAP1 PUSH2 0xCA9 JUMP JUMPDEST SWAP1 POP PUSH2 0x856 PUSH1 0x40 MLOAD DUP1 PUSH1 0x40 ADD PUSH1 0x40 MSTORE DUP1 PUSH1 0x15 DUP2 MSTORE PUSH1 0x20 ADD PUSH21 0x3D3D3D3D3D3D3D3D746F6B656E73546F436C61696D PUSH1 0x58 SHL DUP2 MSTORE POP DUP3 PUSH2 0xAB9 JUMP JUMPDEST DUP1 DUP9 PUSH1 0x2 ADD SLOAD PUSH2 0x866 SWAP2 SWAP1 PUSH2 0xC90 JUMP JUMPDEST PUSH1 0x2 DUP10 ADD SSTORE PUSH1 0x40 DUP1 MLOAD DUP1 DUP3 ADD SWAP1 SWAP2 MSTORE PUSH1 0x1D DUP2 MSTORE PUSH32 0x3D3D3D3D3D3D3D3D636C61696D656420746F6B656E2075706461746564000000 PUSH1 0x20 DUP3 ADD MSTORE PUSH2 0x8A8 SWAP1 PUSH2 0xA76 JUMP JUMPDEST PUSH1 0x1 SLOAD PUSH1 0x40 MLOAD PUSH4 0xA9059CBB PUSH1 0xE0 SHL DUP2 MSTORE CALLER PUSH1 0x4 DUP3 ADD MSTORE PUSH1 0x24 DUP2 ADD DUP4 SWAP1 MSTORE PUSH1 0x1 PUSH1 0x1 PUSH1 0xA0 SHL SUB SWAP1 SWAP2 AND SWAP1 PUSH4 0xA9059CBB SWAP1 PUSH1 0x44 ADD PUSH1 0x20 PUSH1 0x40 MLOAD DUP1 DUP4 SUB DUP2 PUSH0 DUP8 GAS CALL ISZERO DUP1 ISZERO PUSH2 0x8F6 JUMPI RETURNDATASIZE PUSH0 DUP1 RETURNDATACOPY RETURNDATASIZE PUSH0 REVERT JUMPDEST POP POP POP POP PUSH1 0x40 MLOAD RETURNDATASIZE PUSH1 0x1F NOT PUSH1 0x1F DUP3 ADD AND DUP3 ADD DUP1 PUSH1 0x40 MSTORE POP DUP2 ADD SWAP1 PUSH2 0x91A SWAP2 SWAP1 PUSH2 0xCF2 JUMP JUMPDEST PUSH2 0x95E JUMPI PUSH1 0x40 MLOAD PUSH3 0x461BCD PUSH1 0xE5 SHL DUP2 MSTORE PUSH1 0x20 PUSH1 0x4 DUP3 ADD MSTORE PUSH1 0x15 PUSH1 0x24 DUP3 ADD MSTORE PUSH21 0x151BDAD95B881D1C985B9CD9995C8819985A5B1959 PUSH1 0x5A SHL PUSH1 0x44 DUP3 ADD MSTORE PUSH1 0x64 ADD PUSH2 0x23A JUMP JUMPDEST PUSH2 0x97F PUSH1 0x40 MLOAD DUP1 PUSH1 0x60 ADD PUSH1 0x40 MSTORE DUP1 PUSH1 0x24 DUP2 MSTORE PUSH1 0x20 ADD PUSH2 0xD73 PUSH1 0x24 SWAP2 CODECOPY PUSH2 0xA76 JUMP JUMPDEST PUSH1 0x40 DUP1 MLOAD DUP11 DUP2 MSTORE PUSH1 0x20 DUP2 ADD DUP4 SWAP1 MSTORE CALLER SWAP2 PUSH32 0x9923B4306C6C030F2BDFBF156517D5983B87E15B96176DA122CD4F2EFFA4BA7B SWAP2 ADD PUSH2 0x434 JUMP JUMPDEST PUSH2 0x9BF PUSH2 0xB02 JUMP JUMPDEST PUSH2 0x9C8 PUSH0 PUSH2 0xB2E JUMP JUMPDEST JUMP JUMPDEST PUSH2 0x9D2 PUSH2 0xB02 JUMP JUMPDEST PUSH1 0x1 PUSH1 0x1 PUSH1 0xA0 SHL SUB DUP2 AND PUSH2 0xA17 JUMPI PUSH1 0x40 MLOAD PUSH3 0x461BCD PUSH1 0xE5 SHL DUP2 MSTORE PUSH1 0x20 PUSH1 0x4 DUP3 ADD MSTORE PUSH1 0xC PUSH1 0x24 DUP3 ADD MSTORE PUSH12 0x4E756C6C2041646472657373 PUSH1 0xA0 SHL PUSH1 0x44 DUP3 ADD MSTORE PUSH1 0x64 ADD PUSH2 0x23A JUMP JUMPDEST PUSH1 0x2 DUP1 SLOAD PUSH1 0x1 PUSH1 0x1 PUSH1 0xA0 SHL SUB NOT AND PUSH1 0x1 PUSH1 0x1 PUSH1 0xA0 SHL SUB SWAP3 SWAP1 SWAP3 AND SWAP2 SWAP1 SWAP2 OR SWAP1 SSTORE JUMP JUMPDEST PUSH2 0xA41 PUSH2 0xB02 JUMP JUMPDEST PUSH1 0x1 PUSH1 0x1 PUSH1 0xA0 SHL SUB DUP2 AND PUSH2 0xA6A JUMPI PUSH1 0x40 MLOAD PUSH4 0x1E4FBDF7 PUSH1 0xE0 SHL DUP2 MSTORE PUSH0 PUSH1 0x4 DUP3 ADD MSTORE PUSH1 0x24 ADD PUSH2 0x23A JUMP JUMPDEST PUSH2 0xA73 DUP2 PUSH2 0xB2E JUMP JUMPDEST POP JUMP JUMPDEST PUSH2 0xA73 DUP2 PUSH1 0x40 MLOAD PUSH1 0x24 ADD PUSH2 0xA8A SWAP2 SWAP1 PUSH2 0xD3F JUMP JUMPDEST PUSH1 0x40 DUP1 MLOAD PUSH1 0x1F NOT DUP2 DUP5 SUB ADD DUP2 MSTORE SWAP2 SWAP1 MSTORE PUSH1 0x20 DUP2 ADD DUP1 MLOAD PUSH1 0x1 PUSH1 0x1 PUSH1 0xE0 SHL SUB AND PUSH4 0x104C13EB PUSH1 0xE2 SHL OR SWAP1 MSTORE PUSH2 0xB7D JUMP JUMPDEST PUSH2 0xAFE DUP3 DUP3 PUSH1 0x40 MLOAD PUSH1 0x24 ADD PUSH2 0xACF SWAP3 SWAP2 SWAP1 PUSH2 0xD51 JUMP JUMPDEST PUSH1 0x40 DUP1 MLOAD PUSH1 0x1F NOT DUP2 DUP5 SUB ADD DUP2 MSTORE SWAP2 SWAP1 MSTORE PUSH1 0x20 DUP2 ADD DUP1 MLOAD PUSH1 0x1 PUSH1 0x1 PUSH1 0xE0 SHL SUB AND PUSH4 0x2D839CB3 PUSH1 0xE2 SHL OR SWAP1 MSTORE PUSH2 0xB7D JUMP JUMPDEST POP POP JUMP JUMPDEST PUSH0 SLOAD PUSH1 0x1 PUSH1 0x1 PUSH1 0xA0 SHL SUB AND CALLER EQ PUSH2 0x9C8 JUMPI PUSH1 0x40 MLOAD PUSH4 0x118CDAA7 PUSH1 0xE0 SHL DUP2 MSTORE CALLER PUSH1 0x4 DUP3 ADD MSTORE PUSH1 0x24 ADD PUSH2 0x23A JUMP JUMPDEST PUSH0 DUP1 SLOAD PUSH1 0x1 PUSH1 0x1 PUSH1 0xA0 SHL SUB DUP4 DUP2 AND PUSH1 0x1 PUSH1 0x1 PUSH1 0xA0 SHL SUB NOT DUP4 AND DUP2 OR DUP5 SSTORE PUSH1 0x40 MLOAD SWAP2 SWAP1 SWAP3 AND SWAP3 DUP4 SWAP2 PUSH32 0x8BE0079C531659141344CD1FD0A4F28419497F9722A3DAAFE3B4186F6B6457E0 SWAP2 SWAP1 LOG3 POP POP JUMP JUMPDEST PUSH2 0xA73 DUP2 PUSH0 PUSH11 0x636F6E736F6C652E6C6F67 SWAP1 POP PUSH0 DUP1 DUP4 MLOAD PUSH1 0x20 DUP6 ADD DUP5 GAS STATICCALL POP POP POP JUMP JUMPDEST DUP1 CALLDATALOAD PUSH1 0x1 PUSH1 0x1 PUSH1 0xA0 SHL SUB DUP2 AND DUP2 EQ PUSH2 0xBB6 JUMPI PUSH0 DUP1 REVERT JUMPDEST SWAP2 SWAP1 POP JUMP JUMPDEST PUSH0 DUP1 PUSH0 DUP1 PUSH0 DUP1 PUSH0 DUP1 PUSH0 PUSH2 0x120 DUP11 DUP13 SUB SLT ISZERO PUSH2 0xBD4 JUMPI PUSH0 DUP1 REVERT JUMPDEST PUSH2 0xBDD DUP11 PUSH2 0xBA0 JUMP JUMPDEST SWAP12 PUSH1 0x20 DUP12 ADD CALLDATALOAD SWAP12 POP PUSH1 0x40 DUP12 ADD CALLDATALOAD SWAP11 PUSH1 0x60 DUP2 ADD CALLDATALOAD SWAP11 POP PUSH1 0x80 DUP2 ADD CALLDATALOAD SWAP10 POP PUSH1 0xA0 DUP2 ADD CALLDATALOAD SWAP9 POP PUSH1 0xC0 DUP2 ADD CALLDATALOAD SWAP8 POP PUSH1 0xE0 DUP2 ADD CALLDATALOAD SWAP7 POP PUSH2 0x100 ADD CALLDATALOAD SWAP5 POP SWAP3 POP POP POP JUMP JUMPDEST PUSH0 PUSH1 0x20 DUP3 DUP5 SUB SLT ISZERO PUSH2 0xC2B JUMPI PUSH0 DUP1 REVERT JUMPDEST POP CALLDATALOAD SWAP2 SWAP1 POP JUMP JUMPDEST PUSH0 DUP1 PUSH1 0x40 DUP4 DUP6 SUB SLT ISZERO PUSH2 0xC43 JUMPI PUSH0 DUP1 REVERT JUMPDEST DUP3 CALLDATALOAD SWAP2 POP PUSH2 0xC53 PUSH1 0x20 DUP5 ADD PUSH2 0xBA0 JUMP JUMPDEST SWAP1 POP SWAP3 POP SWAP3 SWAP1 POP JUMP JUMPDEST PUSH0 PUSH1 0x20 DUP3 DUP5 SUB SLT ISZERO PUSH2 0xC6C JUMPI PUSH0 DUP1 REVERT JUMPDEST PUSH2 0xC75 DUP3 PUSH2 0xBA0 JUMP JUMPDEST SWAP4 SWAP3 POP POP POP JUMP JUMPDEST PUSH4 0x4E487B71 PUSH1 0xE0 SHL PUSH0 MSTORE PUSH1 0x11 PUSH1 0x4 MSTORE PUSH1 0x24 PUSH0 REVERT JUMPDEST DUP1 DUP3 ADD DUP1 DUP3 GT ISZERO PUSH2 0xCA3 JUMPI PUSH2 0xCA3 PUSH2 0xC7C JUMP JUMPDEST SWAP3 SWAP2 POP POP JUMP JUMPDEST DUP2 DUP2 SUB DUP2 DUP2 GT ISZERO PUSH2 0xCA3 JUMPI PUSH2 0xCA3 PUSH2 0xC7C JUMP JUMPDEST PUSH0 DUP3 PUSH2 0xCD6 JUMPI PUSH4 0x4E487B71 PUSH1 0xE0 SHL PUSH0 MSTORE PUSH1 0x12 PUSH1 0x4 MSTORE PUSH1 0x24 PUSH0 REVERT JUMPDEST POP DIV SWAP1 JUMP JUMPDEST DUP1 DUP3 MUL DUP2 ISZERO DUP3 DUP3 DIV DUP5 EQ OR PUSH2 0xCA3 JUMPI PUSH2 0xCA3 PUSH2 0xC7C JUMP JUMPDEST PUSH0 PUSH1 0x20 DUP3 DUP5 SUB SLT ISZERO PUSH2 0xD02 JUMPI PUSH0 DUP1 REVERT JUMPDEST DUP2 MLOAD DUP1 ISZERO ISZERO DUP2 EQ PUSH2 0xC75 JUMPI PUSH0 DUP1 REVERT JUMPDEST PUSH0 DUP2 MLOAD DUP1 DUP5 MSTORE DUP1 PUSH1 0x20 DUP5 ADD PUSH1 0x20 DUP7 ADD MCOPY PUSH0 PUSH1 0x20 DUP3 DUP7 ADD ADD MSTORE PUSH1 0x20 PUSH1 0x1F NOT PUSH1 0x1F DUP4 ADD AND DUP6 ADD ADD SWAP2 POP POP SWAP3 SWAP2 POP POP JUMP JUMPDEST PUSH1 0x20 DUP2 MSTORE PUSH0 PUSH2 0xC75 PUSH1 0x20 DUP4 ADD DUP5 PUSH2 0xD11 JUMP JUMPDEST PUSH1 0x40 DUP2 MSTORE PUSH0 PUSH2 0xD63 PUSH1 0x40 DUP4 ADD DUP6 PUSH2 0xD11 JUMP JUMPDEST SWAP1 POP DUP3 PUSH1 0x20 DUP4 ADD MSTORE SWAP4 SWAP3 POP POP POP JUMP INVALID RETURNDATASIZE RETURNDATASIZE RETURNDATASIZE RETURNDATASIZE RETURNDATASIZE RETURNDATASIZE RETURNDATASIZE RETURNDATASIZE PUSH21 0x6F6B656E207472616E73666572656420746F20696E PUSH23 0x6573746F72A2646970667358221220B6961777A0ED364B STATICCALL LOG3 PUSH0 ADD 0xBD DUP15 DUP7 DUP2 PUSH27 0x9F89D10E18269BA6A4BF66B712BBD64736F6C634300081A003300 "
		},
		"gasEstimates": {
			"creation": {
				"codeDepositCost": "706400",
				"executionCost": "infinite",
				"totalCost": "infinite"
			},
			"external": {
				"claim(uint256)": "infinite",
				"icoContract()": "2369",
				"icoToken()": "2326",
				"owner()": "2340",
				"registerVesting(address,uint256,uint256,uint256,uint256,uint256,uint256,uint256,uint256)": "infinite",
				"renounceOwnership()": "infinite",
				"setIcoContract(address)": "26833",
				"transferOwnership(address)": "28417",
				"vestingSchedules(uint256,address)": "17545"
			}
		},
		"methodIdentifiers": {
			"claim(uint256)": "379607f5",
			"icoContract()": "c66e4095",
			"icoToken()": "260c2cec",
			"owner()": "8da5cb5b",
			"registerVesting(address,uint256,uint256,uint256,uint256,uint256,uint256,uint256,uint256)": "374048fc",
			"renounceOwnership()": "715018a6",
			"setIcoContract(address)": "e09678fd",
			"transferOwnership(address)": "f2fde38b",
			"vestingSchedules(uint256,address)": "87a0683c"
		}
	},
	"abi": [
		{
			"inputs": [
				{
					"internalType": "address",
					"name": "_tokenAddress",
					"type": "address"
				}
			],
			"stateMutability": "nonpayable",
			"type": "constructor"
		},
		{
			"inputs": [
				{
					"internalType": "address",
					"name": "owner",
					"type": "address"
				}
			],
			"name": "OwnableInvalidOwner",
			"type": "error"
		},
		{
			"inputs": [
				{
					"internalType": "address",
					"name": "account",
					"type": "address"
				}
			],
			"name": "OwnableUnauthorizedAccount",
			"type": "error"
		},
		{
			"anonymous": false,
			"inputs": [
				{
					"indexed": true,
					"internalType": "address",
					"name": "previousOwner",
					"type": "address"
				},
				{
					"indexed": true,
					"internalType": "address",
					"name": "newOwner",
					"type": "address"
				}
			],
			"name": "OwnershipTransferred",
			"type": "event"
		},
		{
			"anonymous": false,
			"inputs": [
				{
					"indexed": true,
					"internalType": "address",
					"name": "beneficiary",
					"type": "address"
				},
				{
					"indexed": false,
					"internalType": "uint256",
					"name": "saleId",
					"type": "uint256"
				},
				{
					"indexed": false,
					"internalType": "uint256",
					"name": "amount",
					"type": "uint256"
				}
			],
			"name": "TokensClaimed",
			"type": "event"
		},
		{
			"anonymous": false,
			"inputs": [
				{
					"indexed": true,
					"internalType": "address",
					"name": "beneficiary",
					"type": "address"
				},
				{
					"indexed": false,
					"internalType": "uint256",
					"name": "totalAmount",
					"type": "uint256"
				},
				{
					"indexed": false,
					"internalType": "uint256",
					"name": "lockUpEndTime",
					"type": "uint256"
				},
				{
					"indexed": false,
					"internalType": "uint256",
					"name": "vestingEndTime",
					"type": "uint256"
				},
				{
					"indexed": false,
					"internalType": "uint256",
					"name": "vestingInterval",
					"type": "uint256"
				}
			],
			"name": "VestingAllocated",
			"type": "event"
		},
		{
			"inputs": [
				{
					"internalType": "uint256",
					"name": "saleId",
					"type": "uint256"
				}
			],
			"name": "claim",
			"outputs": [],
			"stateMutability": "nonpayable",
			"type": "function"
		},
		{
			"inputs": [],
			"name": "icoContract",
			"outputs": [
				{
					"internalType": "address",
					"name": "",
					"type": "address"
				}
			],
			"stateMutability": "view",
			"type": "function"
		},
		{
			"inputs": [],
			"name": "icoToken",
			"outputs": [
				{
					"internalType": "contract ERC20Token",
					"name": "",
					"type": "address"
				}
			],
			"stateMutability": "view",
			"type": "function"
		},
		{
			"inputs": [],
			"name": "owner",
			"outputs": [
				{
					"internalType": "address",
					"name": "",
					"type": "address"
				}
			],
			"stateMutability": "view",
			"type": "function"
		},
		{
			"inputs": [
				{
					"internalType": "address",
					"name": "_investor",
					"type": "address"
				},
				{
					"internalType": "uint256",
					"name": "_saleId",
					"type": "uint256"
				},
				{
					"internalType": "uint256",
					"name": "_tokenAmount",
					"type": "uint256"
				},
				{
					"internalType": "uint256",
					"name": "_claimedTokens",
					"type": "uint256"
				},
				{
					"internalType": "uint256",
					"name": "_lockedTokens",
					"type": "uint256"
				},
				{
					"internalType": "uint256",
					"name": "_startTime",
					"type": "uint256"
				},
				{
					"internalType": "uint256",
					"name": "_lockUpPeriod",
					"type": "uint256"
				},
				{
					"internalType": "uint256",
					"name": "_vestingPeriod",
					"type": "uint256"
				},
				{
					"internalType": "uint256",
					"name": "_vestingInterval",
					"type": "uint256"
				}
			],
			"name": "registerVesting",
			"outputs": [],
			"stateMutability": "nonpayable",
			"type": "function"
		},
		{
			"inputs": [],
			"name": "renounceOwnership",
			"outputs": [],
			"stateMutability": "nonpayable",
			"type": "function"
		},
		{
			"inputs": [
				{
					"internalType": "address",
					"name": "_icoContract",
					"type": "address"
				}
			],
			"name": "setIcoContract",
			"outputs": [],
			"stateMutability": "nonpayable",
			"type": "function"
		},
		{
			"inputs": [
				{
					"internalType": "address",
					"name": "newOwner",
					"type": "address"
				}
			],
			"name": "transferOwnership",
			"outputs": [],
			"stateMutability": "nonpayable",
			"type": "function"
		},
		{
			"inputs": [
				{
					"internalType": "uint256",
					"name": "",
					"type": "uint256"
				},
				{
					"internalType": "address",
					"name": "",
					"type": "address"
				}
			],
			"name": "vestingSchedules",
			"outputs": [
				{
					"internalType": "uint256",
					"name": "saleId",
					"type": "uint256"
				},
				{
					"internalType": "uint256",
					"name": "totalTokens",
					"type": "uint256"
				},
				{
					"internalType": "uint256",
					"name": "claimedTokens",
					"type": "uint256"
				},
				{
					"internalType": "uint256",
					"name": "lockedTokens",
					"type": "uint256"
				},
				{
					"internalType": "uint256",
					"name": "startTime",
					"type": "uint256"
				},
				{
					"internalType": "uint256",
					"name": "lockUpEndTime",
					"type": "uint256"
				},
				{
					"internalType": "uint256",
					"name": "vestingEndTime",
					"type": "uint256"
				},
				{
					"internalType": "uint256",
					"name": "vestingInterval",
					"type": "uint256"
				}
			],
			"stateMutability": "view",
			"type": "function"
		}
	]
}