{
	"Custom-Dex/Pair.sol": {
		"Pair": {
			"abi": [
				{
					"inputs": [
						{
							"internalType": "string",
							"name": "_token0Name",
							"type": "string"
						},
						{
							"internalType": "string",
							"name": "_token0symbol",
							"type": "string"
						},
						{
							"internalType": "uint256",
							"name": "_token0totalSupply",
							"type": "uint256"
						},
						{
							"internalType": "string",
							"name": "_token1Name",
							"type": "string"
						},
						{
							"internalType": "string",
							"name": "_token1symbol",
							"type": "string"
						},
						{
							"internalType": "uint256",
							"name": "_token1totalSupply",
							"type": "uint256"
						}
					],
					"name": "createPair",
					"outputs": [
						{
							"components": [
								{
									"internalType": "contract erc20",
									"name": "token0",
									"type": "address"
								},
								{
									"internalType": "contract erc20",
									"name": "token1",
									"type": "address"
								},
								{
									"internalType": "string",
									"name": "token0Name",
									"type": "string"
								},
								{
									"internalType": "string",
									"name": "token1Name",
									"type": "string"
								},
								{
									"internalType": "uint256",
									"name": "reserve0",
									"type": "uint256"
								},
								{
									"internalType": "uint256",
									"name": "reserve1",
									"type": "uint256"
								},
								{
									"internalType": "uint256",
									"name": "Timestamp",
									"type": "uint256"
								},
								{
									"components": [
										{
											"internalType": "uint256",
											"name": "token0Amount",
											"type": "uint256"
										},
										{
											"internalType": "uint256",
											"name": "token1Amount",
											"type": "uint256"
										},
										{
											"internalType": "address",
											"name": "liquidityProviderAddress",
											"type": "address"
										}
									],
									"internalType": "struct Pair.Liquidity[]",
									"name": "liquidity",
									"type": "tuple[]"
								}
							],
							"internalType": "struct Pair.pairdata",
							"name": "",
							"type": "tuple"
						}
					],
					"stateMutability": "nonpayable",
					"type": "function"
				},
				{
					"inputs": [
						{
							"internalType": "uint256",
							"name": "_token0Amount",
							"type": "uint256"
						},
						{
							"internalType": "uint256",
							"name": "_token1Amount",
							"type": "uint256"
						},
						{
							"internalType": "uint256",
							"name": "_pairId",
							"type": "uint256"
						}
					],
					"name": "depositLiquidity",
					"outputs": [],
					"stateMutability": "nonpayable",
					"type": "function"
				},
				{
					"inputs": [
						{
							"internalType": "address",
							"name": "",
							"type": "address"
						},
						{
							"internalType": "uint256",
							"name": "",
							"type": "uint256"
						}
					],
					"name": "liquidityProviders",
					"outputs": [
						{
							"internalType": "uint256",
							"name": "token0Amount",
							"type": "uint256"
						},
						{
							"internalType": "uint256",
							"name": "token1Amount",
							"type": "uint256"
						},
						{
							"internalType": "address",
							"name": "liquidityProviderAddress",
							"type": "address"
						}
					],
					"stateMutability": "view",
					"type": "function"
				},
				{
					"inputs": [
						{
							"internalType": "uint256",
							"name": "",
							"type": "uint256"
						}
					],
					"name": "pairDetails",
					"outputs": [
						{
							"internalType": "contract erc20",
							"name": "token0",
							"type": "address"
						},
						{
							"internalType": "contract erc20",
							"name": "token1",
							"type": "address"
						},
						{
							"internalType": "string",
							"name": "token0Name",
							"type": "string"
						},
						{
							"internalType": "string",
							"name": "token1Name",
							"type": "string"
						},
						{
							"internalType": "uint256",
							"name": "reserve0",
							"type": "uint256"
						},
						{
							"internalType": "uint256",
							"name": "reserve1",
							"type": "uint256"
						},
						{
							"internalType": "uint256",
							"name": "Timestamp",
							"type": "uint256"
						}
					],
					"stateMutability": "view",
					"type": "function"
				}
			],
			"devdoc": {
				"kind": "dev",
				"methods": {},
				"version": 1
			},
			"evm": {
				"assembly": "    /* \"Custom-Dex/Pair.sol\":81:2855  contract Pair {... */\n  mstore(0x40, 0x80)\n  callvalue\n  dup1\n  iszero\n  tag_1\n  jumpi\n  0x00\n  dup1\n  revert\ntag_1:\n  pop\n  dataSize(sub_0)\n  dup1\n  dataOffset(sub_0)\n  0x00\n  codecopy\n  0x00\n  return\nstop\n\nsub_0: assembly {\n        /* \"Custom-Dex/Pair.sol\":81:2855  contract Pair {... */\n      mstore(0x40, 0x80)\n      callvalue\n      dup1\n      iszero\n      tag_1\n      jumpi\n      0x00\n      dup1\n      revert\n    tag_1:\n      pop\n      jumpi(tag_2, lt(calldatasize, 0x04))\n      shr(0xe0, calldataload(0x00))\n      dup1\n      0x4fba4607\n      eq\n      tag_3\n      jumpi\n      dup1\n      0x5b3a7232\n      eq\n      tag_4\n      jumpi\n      dup1\n      0xc5cb3604\n      eq\n      tag_5\n      jumpi\n      dup1\n      0xf9c8b956\n      eq\n      tag_6\n      jumpi\n    tag_2:\n      0x00\n      dup1\n      revert\n        /* \"Custom-Dex/Pair.sol\":741:1893  function createPair(string memory _token0Name, string memory _token0symbol, uint _token0totalSupply,string memory _token1Name, string memory _token1symbol, uint _token1totalSupply)public returns( pairdata memory ){... */\n    tag_3:\n      tag_7\n      tag_8\n      calldatasize\n      0x04\n      tag_9\n      jump\t// in\n    tag_8:\n      tag_10\n      jump\t// in\n    tag_7:\n      mload(0x40)\n      tag_11\n      swap2\n      swap1\n      tag_12\n      jump\t// in\n    tag_11:\n      mload(0x40)\n      dup1\n      swap2\n      sub\n      swap1\n      return\n        /* \"Custom-Dex/Pair.sol\":544:589  mapping(uint256=>pairdata) public pairDetails */\n    tag_4:\n      tag_13\n      tag_14\n      calldatasize\n      0x04\n      tag_15\n      jump\t// in\n    tag_14:\n      tag_16\n      jump\t// in\n    tag_13:\n      mload(0x40)\n      tag_11\n      swap8\n      swap7\n      swap6\n      swap5\n      swap4\n      swap3\n      swap2\n      swap1\n      tag_18\n      jump\t// in\n        /* \"Custom-Dex/Pair.sol\":595:668  mapping(address => mapping(uint256=>Liquidity)) public liquidityProviders */\n    tag_5:\n      tag_19\n      tag_20\n      calldatasize\n      0x04\n      tag_21\n      jump\t// in\n    tag_20:\n      0x05\n      0x20\n      swap1\n      dup2\n      mstore\n      0x00\n      swap3\n      dup4\n      mstore\n      0x40\n      dup1\n      dup5\n      keccak256\n      swap1\n      swap2\n      mstore\n      swap1\n      dup3\n      mstore\n      swap1\n      keccak256\n      dup1\n      sload\n      0x01\n      dup3\n      add\n      sload\n      0x02\n      swap1\n      swap3\n      add\n      sload\n      swap1\n      swap2\n      swap1\n      sub(shl(0xa0, 0x01), 0x01)\n      and\n      dup4\n      jump\n    tag_19:\n      0x40\n      dup1\n      mload\n        /* \"#utility.yul\":5889:5914   */\n      swap4\n      dup5\n      mstore\n        /* \"#utility.yul\":5945:5947   */\n      0x20\n        /* \"#utility.yul\":5930:5948   */\n      dup5\n      add\n        /* \"#utility.yul\":5923:5957   */\n      swap3\n      swap1\n      swap3\n      mstore\n      sub(shl(0xa0, 0x01), 0x01)\n        /* \"#utility.yul\":5993:6025   */\n      and\n        /* \"#utility.yul\":5973:5991   */\n      swap1\n      dup3\n      add\n        /* \"#utility.yul\":5966:6026   */\n      mstore\n        /* \"#utility.yul\":5877:5879   */\n      0x60\n        /* \"#utility.yul\":5862:5880   */\n      add\n        /* \"Custom-Dex/Pair.sol\":595:668  mapping(address => mapping(uint256=>Liquidity)) public liquidityProviders */\n      tag_11\n        /* \"#utility.yul\":5687:6032   */\n      jump\n        /* \"Custom-Dex/Pair.sol\":1899:2756  function depositLiquidity(uint _token0Amount, uint _token1Amount, uint _pairId)public {... */\n    tag_6:\n      tag_25\n      tag_26\n      calldatasize\n      0x04\n      tag_27\n      jump\t// in\n    tag_26:\n      tag_28\n      jump\t// in\n    tag_25:\n      stop\n        /* \"Custom-Dex/Pair.sol\":741:1893  function createPair(string memory _token0Name, string memory _token0symbol, uint _token0totalSupply,string memory _token1Name, string memory _token1symbol, uint _token1totalSupply)public returns( pairdata memory ){... */\n    tag_10:\n        /* \"Custom-Dex/Pair.sol\":937:952  pairdata memory */\n      tag_29\n      mload(0x40)\n      dup1\n      0x0100\n      add\n      0x40\n      mstore\n      dup1\n      and(sub(shl(0xa0, 0x01), 0x01), 0x00)\n      dup2\n      mstore\n      0x20\n      add\n      and(sub(shl(0xa0, 0x01), 0x01), 0x00)\n      dup2\n      mstore\n      0x20\n      add\n      0x60\n      dup2\n      mstore\n      0x20\n      add\n      0x60\n      dup2\n      mstore\n      0x20\n      add\n      0x00\n      dup2\n      mstore\n      0x20\n      add\n      0x00\n      dup2\n      mstore\n      0x20\n      add\n      0x00\n      dup2\n      mstore\n      0x20\n      add\n      0x60\n      dup2\n      mstore\n      pop\n      swap1\n      jump\n    tag_29:\n        /* \"Custom-Dex/Pair.sol\":989:1000  _token0Name */\n      dup7\n        /* \"Custom-Dex/Pair.sol\":1001:1014  _token0symbol */\n      dup7\n        /* \"Custom-Dex/Pair.sol\":1015:1033  _token0totalSupply */\n      dup7\n        /* \"Custom-Dex/Pair.sol\":979:1034  new erc20(_token0Name,_token0symbol,_token0totalSupply) */\n      mload(0x40)\n      tag_32\n      swap1\n      tag_33\n      jump\t// in\n    tag_32:\n      tag_34\n      swap4\n      swap3\n      swap2\n      swap1\n      tag_35\n      jump\t// in\n    tag_34:\n      mload(0x40)\n      dup1\n      swap2\n      sub\n      swap1\n      0x00\n      create\n      dup1\n      iszero\n      dup1\n      iszero\n      tag_36\n      jumpi\n      returndatasize\n      0x00\n      dup1\n      returndatacopy\n      revert(0x00, returndatasize)\n    tag_36:\n      pop\n        /* \"Custom-Dex/Pair.sol\":964:977  token0Address */\n      0x02\n      0x00\n        /* \"Custom-Dex/Pair.sol\":964:1034  token0Address= new erc20(_token0Name,_token0symbol,_token0totalSupply) */\n      0x0100\n      exp\n      dup2\n      sload\n      dup2\n      sub(shl(0xa0, 0x01), 0x01)\n      mul\n      not\n      and\n      swap1\n      dup4\n      sub(shl(0xa0, 0x01), 0x01)\n      and\n      mul\n      or\n      swap1\n      sstore\n      pop\n        /* \"Custom-Dex/Pair.sol\":1070:1081  _token1Name */\n      dup4\n        /* \"Custom-Dex/Pair.sol\":1082:1095  _token1symbol */\n      dup4\n        /* \"Custom-Dex/Pair.sol\":1096:1114  _token1totalSupply */\n      dup4\n        /* \"Custom-Dex/Pair.sol\":1060:1115  new erc20(_token1Name,_token1symbol,_token1totalSupply) */\n      mload(0x40)\n      tag_37\n      swap1\n      tag_33\n      jump\t// in\n    tag_37:\n      tag_38\n      swap4\n      swap3\n      swap2\n      swap1\n      tag_35\n      jump\t// in\n    tag_38:\n      mload(0x40)\n      dup1\n      swap2\n      sub\n      swap1\n      0x00\n      create\n      dup1\n      iszero\n      dup1\n      iszero\n      tag_39\n      jumpi\n      returndatasize\n      0x00\n      dup1\n      returndatacopy\n      revert(0x00, returndatasize)\n    tag_39:\n      pop\n        /* \"Custom-Dex/Pair.sol\":1044:1057  token1Address */\n      0x03\n        /* \"Custom-Dex/Pair.sol\":1044:1115  token1Address = new erc20(_token1Name,_token1symbol,_token1totalSupply) */\n      dup1\n      sload\n      not(sub(shl(0xa0, 0x01), 0x01))\n      and\n      sub(shl(0xa0, 0x01), 0x01)\n      swap3\n      swap1\n      swap3\n      and\n      swap2\n      swap1\n      swap2\n      or\n      swap1\n      sstore\n      0x01\n        /* \"Custom-Dex/Pair.sol\":1205:1213  pairId++ */\n      dup1\n      sload\n      swap1\n      0x00\n      tag_40\n      dup4\n      tag_41\n      jump\t// in\n    tag_40:\n      swap1\n      swap2\n      sstore\n      pop\n      pop\n        /* \"Custom-Dex/Pair.sol\":1251:1264  token0Address */\n      0x02\n      dup1\n      sload\n      0x01\n        /* \"Custom-Dex/Pair.sol\":1235:1241  pairId */\n      dup1\n      sload\n        /* \"Custom-Dex/Pair.sol\":1251:1264  token0Address */\n      0x00\n        /* \"Custom-Dex/Pair.sol\":1223:1242  pairDetails[pairId] */\n      swap1\n      dup2\n      mstore\n        /* \"Custom-Dex/Pair.sol\":1223:1234  pairDetails */\n      0x04\n        /* \"Custom-Dex/Pair.sol\":1223:1242  pairDetails[pairId] */\n      0x20\n      mstore\n      0x40\n      dup1\n      dup3\n      keccak256\n        /* \"Custom-Dex/Pair.sol\":1223:1264  pairDetails[pairId].token0= token0Address */\n      dup1\n      sload\n      sub(shl(0xa0, 0x01), 0x01)\n        /* \"Custom-Dex/Pair.sol\":1251:1264  token0Address */\n      swap6\n      dup7\n      and\n      not(sub(shl(0xa0, 0x01), 0x01))\n        /* \"Custom-Dex/Pair.sol\":1223:1264  pairDetails[pairId].token0= token0Address */\n      swap2\n      dup3\n      and\n      or\n      swap1\n      swap2\n      sstore\n        /* \"Custom-Dex/Pair.sol\":1302:1315  token1Address */\n      sload(0x03)\n        /* \"Custom-Dex/Pair.sol\":1286:1292  pairId */\n      dup5\n      sload\n        /* \"Custom-Dex/Pair.sol\":1274:1293  pairDetails[pairId] */\n      dup5\n      mstore\n      dup3\n      dup5\n      keccak256\n        /* \"Custom-Dex/Pair.sol\":1274:1300  pairDetails[pairId].token1 */\n      dup6\n      add\n        /* \"Custom-Dex/Pair.sol\":1274:1315  pairDetails[pairId].token1= token1Address */\n      dup1\n      sload\n        /* \"Custom-Dex/Pair.sol\":1302:1315  token1Address */\n      swap2\n      swap1\n      swap7\n      and\n        /* \"Custom-Dex/Pair.sol\":1274:1315  pairDetails[pairId].token1= token1Address */\n      swap2\n      and\n      or\n      swap1\n      swap4\n      sstore\n        /* \"Custom-Dex/Pair.sol\":1337:1343  pairId */\n      swap1\n      sload\n        /* \"Custom-Dex/Pair.sol\":1325:1344  pairDetails[pairId] */\n      dup2\n      mstore\n      keccak256\n        /* \"Custom-Dex/Pair.sol\":1325:1355  pairDetails[pairId].token0Name */\n      add\n        /* \"Custom-Dex/Pair.sol\":1325:1368  pairDetails[pairId].token0Name= _token0Name */\n      tag_42\n        /* \"Custom-Dex/Pair.sol\":1357:1368  _token0Name */\n      dup9\n        /* \"Custom-Dex/Pair.sol\":1325:1355  pairDetails[pairId].token0Name */\n      dup3\n        /* \"Custom-Dex/Pair.sol\":1325:1368  pairDetails[pairId].token0Name= _token0Name */\n      tag_43\n      jump\t// in\n    tag_42:\n      pop\n        /* \"Custom-Dex/Pair.sol\":1390:1396  pairId */\n      sload(0x01)\n        /* \"Custom-Dex/Pair.sol\":1378:1397  pairDetails[pairId] */\n      0x00\n      swap1\n      dup2\n      mstore\n        /* \"Custom-Dex/Pair.sol\":1378:1389  pairDetails */\n      0x04\n        /* \"Custom-Dex/Pair.sol\":1378:1397  pairDetails[pairId] */\n      0x20\n      mstore\n      0x40\n      swap1\n      keccak256\n        /* \"Custom-Dex/Pair.sol\":1378:1408  pairDetails[pairId].token1Name */\n      0x03\n      add\n        /* \"Custom-Dex/Pair.sol\":1378:1421  pairDetails[pairId].token1Name= _token1Name */\n      tag_44\n        /* \"Custom-Dex/Pair.sol\":1410:1421  _token1Name */\n      dup6\n        /* \"Custom-Dex/Pair.sol\":1378:1408  pairDetails[pairId].token1Name */\n      dup3\n        /* \"Custom-Dex/Pair.sol\":1378:1421  pairDetails[pairId].token1Name= _token1Name */\n      tag_43\n      jump\t// in\n    tag_44:\n      pop\n        /* \"Custom-Dex/Pair.sol\":1443:1449  pairId */\n      sload(0x01)\n        /* \"Custom-Dex/Pair.sol\":1431:1450  pairDetails[pairId] */\n      0x00\n      swap1\n      dup2\n      mstore\n        /* \"Custom-Dex/Pair.sol\":1431:1442  pairDetails */\n      0x04\n        /* \"Custom-Dex/Pair.sol\":1431:1450  pairDetails[pairId] */\n      0x20\n      dup2\n      swap1\n      mstore\n      0x40\n      swap2\n      dup3\n      swap1\n      keccak256\n        /* \"Custom-Dex/Pair.sol\":1462:1477  block.timestamp */\n      timestamp\n        /* \"Custom-Dex/Pair.sol\":1431:1460  pairDetails[pairId].Timestamp */\n      0x06\n      swap1\n      swap2\n      add\n        /* \"Custom-Dex/Pair.sol\":1431:1477  pairDetails[pairId].Timestamp= block.timestamp */\n      sstore\n        /* \"Custom-Dex/Pair.sol\":1517:1530  token0Address */\n      sload(0x02)\n        /* \"Custom-Dex/Pair.sol\":1517:1555  token0Address.balanceOf(address(this)) */\n      swap2\n      mload\n      shl(0xe0, 0x70a08231)\n      dup2\n      mstore\n        /* \"Custom-Dex/Pair.sol\":1549:1553  this */\n      address\n        /* \"Custom-Dex/Pair.sol\":1517:1555  token0Address.balanceOf(address(this)) */\n      swap2\n      dup2\n      add\n        /* \"#utility.yul\":9824:9875   */\n      swap2\n      swap1\n      swap2\n      mstore\n      sub(shl(0xa0, 0x01), 0x01)\n        /* \"Custom-Dex/Pair.sol\":1517:1530  token0Address */\n      swap1\n      swap2\n      and\n      swap1\n        /* \"Custom-Dex/Pair.sol\":1517:1540  token0Address.balanceOf */\n      0x70a08231\n      swap1\n        /* \"#utility.yul\":9797:9815   */\n      0x24\n      add\n        /* \"Custom-Dex/Pair.sol\":1517:1555  token0Address.balanceOf(address(this)) */\n      0x20\n      mload(0x40)\n      dup1\n      dup4\n      sub\n      dup2\n      dup7\n      gas\n      staticcall\n      iszero\n      dup1\n      iszero\n      tag_48\n      jumpi\n      returndatasize\n      0x00\n      dup1\n      returndatacopy\n      revert(0x00, returndatasize)\n    tag_48:\n      pop\n      pop\n      pop\n      pop\n      mload(0x40)\n      returndatasize\n      not(0x1f)\n      0x1f\n      dup3\n      add\n      and\n      dup3\n      add\n      dup1\n      0x40\n      mstore\n      pop\n      dup2\n      add\n      swap1\n      tag_49\n      swap2\n      swap1\n      tag_50\n      jump\t// in\n    tag_49:\n        /* \"Custom-Dex/Pair.sol\":1499:1505  pairId */\n      sload(0x01)\n        /* \"Custom-Dex/Pair.sol\":1487:1506  pairDetails[pairId] */\n      0x00\n      swap1\n      dup2\n      mstore\n        /* \"Custom-Dex/Pair.sol\":1487:1498  pairDetails */\n      0x04\n        /* \"Custom-Dex/Pair.sol\":1487:1506  pairDetails[pairId] */\n      0x20\n      dup2\n      swap1\n      mstore\n      0x40\n      swap2\n      dup3\n      swap1\n      keccak256\n        /* \"Custom-Dex/Pair.sol\":1487:1515  pairDetails[pairId].reserve0 */\n      dup2\n      add\n        /* \"Custom-Dex/Pair.sol\":1487:1555  pairDetails[pairId].reserve0= token0Address.balanceOf(address(this)) */\n      swap3\n      swap1\n      swap3\n      sstore\n        /* \"Custom-Dex/Pair.sol\":1595:1608  token1Address */\n      sload(0x03)\n        /* \"Custom-Dex/Pair.sol\":1595:1633  token1Address.balanceOf(address(this)) */\n      swap1\n      mload\n      shl(0xe0, 0x70a08231)\n      dup2\n      mstore\n        /* \"Custom-Dex/Pair.sol\":1627:1631  this */\n      address\n        /* \"Custom-Dex/Pair.sol\":1595:1633  token1Address.balanceOf(address(this)) */\n      swap3\n      dup2\n      add\n        /* \"#utility.yul\":9824:9875   */\n      swap3\n      swap1\n      swap3\n      mstore\n      sub(shl(0xa0, 0x01), 0x01)\n        /* \"Custom-Dex/Pair.sol\":1595:1608  token1Address */\n      and\n      swap1\n        /* \"Custom-Dex/Pair.sol\":1595:1618  token1Address.balanceOf */\n      0x70a08231\n      swap1\n        /* \"#utility.yul\":9797:9815   */\n      0x24\n      add\n        /* \"Custom-Dex/Pair.sol\":1595:1633  token1Address.balanceOf(address(this)) */\n      0x20\n      mload(0x40)\n      dup1\n      dup4\n      sub\n      dup2\n      dup7\n      gas\n      staticcall\n      iszero\n      dup1\n      iszero\n      tag_53\n      jumpi\n      returndatasize\n      0x00\n      dup1\n      returndatacopy\n      revert(0x00, returndatasize)\n    tag_53:\n      pop\n      pop\n      pop\n      pop\n      mload(0x40)\n      returndatasize\n      not(0x1f)\n      0x1f\n      dup3\n      add\n      and\n      dup3\n      add\n      dup1\n      0x40\n      mstore\n      pop\n      dup2\n      add\n      swap1\n      tag_54\n      swap2\n      swap1\n      tag_50\n      jump\t// in\n    tag_54:\n        /* \"Custom-Dex/Pair.sol\":1577:1583  pairId */\n      0x01\n      dup1\n      sload\n        /* \"Custom-Dex/Pair.sol\":1565:1584  pairDetails[pairId] */\n      0x00\n      swap1\n      dup2\n      mstore\n        /* \"Custom-Dex/Pair.sol\":1565:1576  pairDetails */\n      0x04\n        /* \"Custom-Dex/Pair.sol\":1565:1584  pairDetails[pairId] */\n      0x20\n      swap1\n      dup2\n      mstore\n      0x40\n      dup1\n      dup4\n      keccak256\n        /* \"Custom-Dex/Pair.sol\":1565:1593  pairDetails[pairId].reserve1 */\n      0x05\n      swap1\n      dup2\n      add\n        /* \"Custom-Dex/Pair.sol\":1565:1633  pairDetails[pairId].reserve1= token1Address.balanceOf(address(this)) */\n      swap6\n      swap1\n      swap6\n      sstore\n        /* \"Custom-Dex/Pair.sol\":1662:1672  msg.sender */\n      caller\n        /* \"Custom-Dex/Pair.sol\":1643:1673  liquidityProviders[msg.sender] */\n      dup1\n      dup5\n      mstore\n      swap5\n      dup3\n      mstore\n      dup1\n      dup4\n      keccak256\n        /* \"Custom-Dex/Pair.sol\":1674:1680  pairId */\n      dup5\n      sload\n        /* \"Custom-Dex/Pair.sol\":1643:1681  liquidityProviders[msg.sender][pairId] */\n      dup5\n      mstore\n      swap1\n      swap2\n      mstore\n      dup1\n      dup3\n      keccak256\n        /* \"Custom-Dex/Pair.sol\":1643:1714  liquidityProviders[msg.sender][pairId].token0Amount= _token0totalSupply */\n      swap9\n      swap1\n      swap9\n      sstore\n        /* \"Custom-Dex/Pair.sol\":1756:1762  pairId */\n      dup2\n      sload\n        /* \"Custom-Dex/Pair.sol\":1725:1763  liquidityProviders[msg.sender][pairId] */\n      dup2\n      mstore\n      dup8\n      dup2\n      keccak256\n        /* \"Custom-Dex/Pair.sol\":1725:1776  liquidityProviders[msg.sender][pairId].token1Amount */\n      dup3\n      add\n        /* \"Custom-Dex/Pair.sol\":1725:1796  liquidityProviders[msg.sender][pairId].token1Amount= _token1totalSupply */\n      swap5\n      swap1\n      swap5\n      sstore\n        /* \"Custom-Dex/Pair.sol\":1838:1844  pairId */\n      sload\n        /* \"Custom-Dex/Pair.sol\":1807:1845  liquidityProviders[msg.sender][pairId] */\n      dup4\n      mstore\n      swap5\n      swap1\n      swap2\n      keccak256\n        /* \"Custom-Dex/Pair.sol\":1807:1870  liquidityProviders[msg.sender][pairId].liquidityProviderAddress */\n      0x02\n      add\n        /* \"Custom-Dex/Pair.sol\":1807:1882  liquidityProviders[msg.sender][pairId].liquidityProviderAddress= msg.sender */\n      dup1\n      sload\n      not(sub(shl(0xa0, 0x01), 0x01))\n      and\n      swap1\n      swap5\n      or\n      swap1\n      swap4\n      sstore\n      pop\n        /* \"Custom-Dex/Pair.sol\":1807:1845  liquidityProviders[msg.sender][pairId] */\n      swap1\n      swap4\n        /* \"Custom-Dex/Pair.sol\":741:1893  function createPair(string memory _token0Name, string memory _token0symbol, uint _token0totalSupply,string memory _token1Name, string memory _token1symbol, uint _token1totalSupply)public returns( pairdata memory ){... */\n      swap3\n      pop\n      pop\n      pop\n      jump\t// out\n        /* \"Custom-Dex/Pair.sol\":544:589  mapping(uint256=>pairdata) public pairDetails */\n    tag_16:\n      mstore(0x20, 0x04)\n      0x00\n      swap1\n      dup2\n      mstore\n      0x40\n      swap1\n      keccak256\n      dup1\n      sload\n      0x01\n      dup3\n      add\n      sload\n      0x02\n      dup4\n      add\n      dup1\n      sload\n      sub(shl(0xa0, 0x01), 0x01)\n      swap4\n      dup5\n      and\n      swap5\n      swap3\n      swap1\n      swap4\n      and\n      swap3\n      tag_55\n      swap1\n      tag_56\n      jump\t// in\n    tag_55:\n      dup1\n      0x1f\n      add\n      0x20\n      dup1\n      swap2\n      div\n      mul\n      0x20\n      add\n      mload(0x40)\n      swap1\n      dup2\n      add\n      0x40\n      mstore\n      dup1\n      swap3\n      swap2\n      swap1\n      dup2\n      dup2\n      mstore\n      0x20\n      add\n      dup3\n      dup1\n      sload\n      tag_57\n      swap1\n      tag_56\n      jump\t// in\n    tag_57:\n      dup1\n      iszero\n      tag_58\n      jumpi\n      dup1\n      0x1f\n      lt\n      tag_59\n      jumpi\n      0x0100\n      dup1\n      dup4\n      sload\n      div\n      mul\n      dup4\n      mstore\n      swap2\n      0x20\n      add\n      swap2\n      jump(tag_58)\n    tag_59:\n      dup3\n      add\n      swap2\n      swap1\n      0x00\n      mstore\n      keccak256(0x00, 0x20)\n      swap1\n    tag_60:\n      dup2\n      sload\n      dup2\n      mstore\n      swap1\n      0x01\n      add\n      swap1\n      0x20\n      add\n      dup1\n      dup4\n      gt\n      tag_60\n      jumpi\n      dup3\n      swap1\n      sub\n      0x1f\n      and\n      dup3\n      add\n      swap2\n    tag_58:\n      pop\n      pop\n      pop\n      pop\n      pop\n      swap1\n      dup1\n      0x03\n      add\n      dup1\n      sload\n      tag_61\n      swap1\n      tag_56\n      jump\t// in\n    tag_61:\n      dup1\n      0x1f\n      add\n      0x20\n      dup1\n      swap2\n      div\n      mul\n      0x20\n      add\n      mload(0x40)\n      swap1\n      dup2\n      add\n      0x40\n      mstore\n      dup1\n      swap3\n      swap2\n      swap1\n      dup2\n      dup2\n      mstore\n      0x20\n      add\n      dup3\n      dup1\n      sload\n      tag_62\n      swap1\n      tag_56\n      jump\t// in\n    tag_62:\n      dup1\n      iszero\n      tag_63\n      jumpi\n      dup1\n      0x1f\n      lt\n      tag_64\n      jumpi\n      0x0100\n      dup1\n      dup4\n      sload\n      div\n      mul\n      dup4\n      mstore\n      swap2\n      0x20\n      add\n      swap2\n      jump(tag_63)\n    tag_64:\n      dup3\n      add\n      swap2\n      swap1\n      0x00\n      mstore\n      keccak256(0x00, 0x20)\n      swap1\n    tag_65:\n      dup2\n      sload\n      dup2\n      mstore\n      swap1\n      0x01\n      add\n      swap1\n      0x20\n      add\n      dup1\n      dup4\n      gt\n      tag_65\n      jumpi\n      dup3\n      swap1\n      sub\n      0x1f\n      and\n      dup3\n      add\n      swap2\n    tag_63:\n      pop\n      pop\n      pop\n      pop\n      pop\n      swap1\n      dup1\n      0x04\n      add\n      sload\n      swap1\n      dup1\n      0x05\n      add\n      sload\n      swap1\n      dup1\n      0x06\n      add\n      sload\n      swap1\n      pop\n      dup8\n      jump\t// out\n        /* \"Custom-Dex/Pair.sol\":1899:2756  function depositLiquidity(uint _token0Amount, uint _token1Amount, uint _pairId)public {... */\n    tag_28:\n        /* \"Custom-Dex/Pair.sol\":2102:2115  token0Address */\n      sload(0x02)\n        /* \"Custom-Dex/Pair.sol\":2102:2164  token0Address.approve(msg.sender,address(this), _token0Amount) */\n      mload(0x40)\n      shl(0xe0, 0xe1f21c67)\n      dup2\n      mstore\n      sub(shl(0xa0, 0x01), 0x01)\n        /* \"Custom-Dex/Pair.sol\":2102:2115  token0Address */\n      swap1\n      swap2\n      and\n      swap1\n        /* \"Custom-Dex/Pair.sol\":2102:2123  token0Address.approve */\n      0xe1f21c67\n      swap1\n        /* \"Custom-Dex/Pair.sol\":2102:2164  token0Address.approve(msg.sender,address(this), _token0Amount) */\n      tag_67\n      swap1\n        /* \"Custom-Dex/Pair.sol\":2124:2134  msg.sender */\n      caller\n      swap1\n        /* \"Custom-Dex/Pair.sol\":2143:2147  this */\n      address\n      swap1\n        /* \"Custom-Dex/Pair.sol\":2150:2163  _token0Amount */\n      dup9\n      swap1\n        /* \"Custom-Dex/Pair.sol\":2102:2164  token0Address.approve(msg.sender,address(this), _token0Amount) */\n      0x04\n      add\n      tag_68\n      jump\t// in\n    tag_67:\n      0x20\n      mload(0x40)\n      dup1\n      dup4\n      sub\n      dup2\n      0x00\n      dup8\n      gas\n      call\n      iszero\n      dup1\n      iszero\n      tag_70\n      jumpi\n      returndatasize\n      0x00\n      dup1\n      returndatacopy\n      revert(0x00, returndatasize)\n    tag_70:\n      pop\n      pop\n      pop\n      pop\n      mload(0x40)\n      returndatasize\n      not(0x1f)\n      0x1f\n      dup3\n      add\n      and\n      dup3\n      add\n      dup1\n      0x40\n      mstore\n      pop\n      dup2\n      add\n      swap1\n      tag_71\n      swap2\n      swap1\n      tag_72\n      jump\t// in\n    tag_71:\n      pop\n        /* \"Custom-Dex/Pair.sol\":2174:2187  token0Address */\n      sload(0x02)\n        /* \"Custom-Dex/Pair.sol\":2174:2242  token0Address.transferFrom(msg.sender, address(this), _token0Amount) */\n      mload(0x40)\n      shl(0xe0, 0x23b872dd)\n      dup2\n      mstore\n      sub(shl(0xa0, 0x01), 0x01)\n        /* \"Custom-Dex/Pair.sol\":2174:2187  token0Address */\n      swap1\n      swap2\n      and\n      swap1\n        /* \"Custom-Dex/Pair.sol\":2174:2200  token0Address.transferFrom */\n      0x23b872dd\n      swap1\n        /* \"Custom-Dex/Pair.sol\":2174:2242  token0Address.transferFrom(msg.sender, address(this), _token0Amount) */\n      tag_73\n      swap1\n        /* \"Custom-Dex/Pair.sol\":2201:2211  msg.sender */\n      caller\n      swap1\n        /* \"Custom-Dex/Pair.sol\":2221:2225  this */\n      address\n      swap1\n        /* \"Custom-Dex/Pair.sol\":2228:2241  _token0Amount */\n      dup9\n      swap1\n        /* \"Custom-Dex/Pair.sol\":2174:2242  token0Address.transferFrom(msg.sender, address(this), _token0Amount) */\n      0x04\n      add\n      tag_68\n      jump\t// in\n    tag_73:\n      0x20\n      mload(0x40)\n      dup1\n      dup4\n      sub\n      dup2\n      0x00\n      dup8\n      gas\n      call\n      iszero\n      dup1\n      iszero\n      tag_75\n      jumpi\n      returndatasize\n      0x00\n      dup1\n      returndatacopy\n      revert(0x00, returndatasize)\n    tag_75:\n      pop\n      pop\n      pop\n      pop\n      mload(0x40)\n      returndatasize\n      not(0x1f)\n      0x1f\n      dup3\n      add\n      and\n      dup3\n      add\n      dup1\n      0x40\n      mstore\n      pop\n      dup2\n      add\n      swap1\n      tag_76\n      swap2\n      swap1\n      tag_72\n      jump\t// in\n    tag_76:\n      pop\n        /* \"Custom-Dex/Pair.sol\":2271:2281  msg.sender */\n      caller\n        /* \"Custom-Dex/Pair.sol\":2252:2282  liquidityProviders[msg.sender] */\n      0x00\n      swap1\n      dup2\n      mstore\n        /* \"Custom-Dex/Pair.sol\":2252:2270  liquidityProviders */\n      0x05\n        /* \"Custom-Dex/Pair.sol\":2252:2282  liquidityProviders[msg.sender] */\n      0x20\n      swap1\n      dup2\n      mstore\n      0x40\n      dup1\n      dup4\n      keccak256\n        /* \"Custom-Dex/Pair.sol\":2252:2291  liquidityProviders[msg.sender][_pairId] */\n      dup5\n      dup5\n      mstore\n      dup3\n      mstore\n      dup1\n      dup4\n      keccak256\n        /* \"Custom-Dex/Pair.sol\":2252:2319  liquidityProviders[msg.sender][_pairId].token0Amount= _token0Amount */\n      dup7\n      swap1\n      sstore\n        /* \"Custom-Dex/Pair.sol\":2342:2348  pairId */\n      sload(0x01)\n        /* \"Custom-Dex/Pair.sol\":2330:2349  pairDetails[pairId] */\n      dup4\n      mstore\n        /* \"Custom-Dex/Pair.sol\":2330:2341  pairDetails */\n      0x04\n        /* \"Custom-Dex/Pair.sol\":2330:2349  pairDetails[pairId] */\n      swap2\n      dup3\n      swap1\n      mstore\n      dup3\n      keccak256\n        /* \"Custom-Dex/Pair.sol\":2330:2358  pairDetails[pairId].reserve0 */\n      add\n        /* \"Custom-Dex/Pair.sol\":2330:2375  pairDetails[pairId].reserve0 += _token0Amount */\n      dup1\n      sload\n        /* \"Custom-Dex/Pair.sol\":2306:2319  _token0Amount */\n      dup6\n      swap3\n        /* \"Custom-Dex/Pair.sol\":2252:2282  liquidityProviders[msg.sender] */\n      swap1\n        /* \"Custom-Dex/Pair.sol\":2330:2375  pairDetails[pairId].reserve0 += _token0Amount */\n      tag_77\n      swap1\n        /* \"Custom-Dex/Pair.sol\":2306:2319  _token0Amount */\n      dup5\n      swap1\n        /* \"Custom-Dex/Pair.sol\":2330:2375  pairDetails[pairId].reserve0 += _token0Amount */\n      tag_78\n      jump\t// in\n    tag_77:\n      swap1\n      swap2\n      sstore\n      pop\n      pop\n        /* \"Custom-Dex/Pair.sol\":2385:2398  token0Address */\n      sload(0x02)\n        /* \"Custom-Dex/Pair.sol\":2385:2447  token0Address.approve(msg.sender,address(this), _token1Amount) */\n      mload(0x40)\n      shl(0xe0, 0xe1f21c67)\n      dup2\n      mstore\n      sub(shl(0xa0, 0x01), 0x01)\n        /* \"Custom-Dex/Pair.sol\":2385:2398  token0Address */\n      swap1\n      swap2\n      and\n      swap1\n        /* \"Custom-Dex/Pair.sol\":2385:2406  token0Address.approve */\n      0xe1f21c67\n      swap1\n        /* \"Custom-Dex/Pair.sol\":2385:2447  token0Address.approve(msg.sender,address(this), _token1Amount) */\n      tag_79\n      swap1\n        /* \"Custom-Dex/Pair.sol\":2407:2417  msg.sender */\n      caller\n      swap1\n        /* \"Custom-Dex/Pair.sol\":2426:2430  this */\n      address\n      swap1\n        /* \"Custom-Dex/Pair.sol\":2433:2446  _token1Amount */\n      dup8\n      swap1\n        /* \"Custom-Dex/Pair.sol\":2385:2447  token0Address.approve(msg.sender,address(this), _token1Amount) */\n      0x04\n      add\n      tag_68\n      jump\t// in\n    tag_79:\n      0x20\n      mload(0x40)\n      dup1\n      dup4\n      sub\n      dup2\n      0x00\n      dup8\n      gas\n      call\n      iszero\n      dup1\n      iszero\n      tag_81\n      jumpi\n      returndatasize\n      0x00\n      dup1\n      returndatacopy\n      revert(0x00, returndatasize)\n    tag_81:\n      pop\n      pop\n      pop\n      pop\n      mload(0x40)\n      returndatasize\n      not(0x1f)\n      0x1f\n      dup3\n      add\n      and\n      dup3\n      add\n      dup1\n      0x40\n      mstore\n      pop\n      dup2\n      add\n      swap1\n      tag_82\n      swap2\n      swap1\n      tag_72\n      jump\t// in\n    tag_82:\n      pop\n        /* \"Custom-Dex/Pair.sol\":2457:2470  token0Address */\n      sload(0x02)\n        /* \"Custom-Dex/Pair.sol\":2457:2525  token0Address.transferFrom(msg.sender, address(this), _token1Amount) */\n      mload(0x40)\n      shl(0xe0, 0x23b872dd)\n      dup2\n      mstore\n      sub(shl(0xa0, 0x01), 0x01)\n        /* \"Custom-Dex/Pair.sol\":2457:2470  token0Address */\n      swap1\n      swap2\n      and\n      swap1\n        /* \"Custom-Dex/Pair.sol\":2457:2483  token0Address.transferFrom */\n      0x23b872dd\n      swap1\n        /* \"Custom-Dex/Pair.sol\":2457:2525  token0Address.transferFrom(msg.sender, address(this), _token1Amount) */\n      tag_83\n      swap1\n        /* \"Custom-Dex/Pair.sol\":2484:2494  msg.sender */\n      caller\n      swap1\n        /* \"Custom-Dex/Pair.sol\":2504:2508  this */\n      address\n      swap1\n        /* \"Custom-Dex/Pair.sol\":2511:2524  _token1Amount */\n      dup8\n      swap1\n        /* \"Custom-Dex/Pair.sol\":2457:2525  token0Address.transferFrom(msg.sender, address(this), _token1Amount) */\n      0x04\n      add\n      tag_68\n      jump\t// in\n    tag_83:\n      0x20\n      mload(0x40)\n      dup1\n      dup4\n      sub\n      dup2\n      0x00\n      dup8\n      gas\n      call\n      iszero\n      dup1\n      iszero\n      tag_85\n      jumpi\n      returndatasize\n      0x00\n      dup1\n      returndatacopy\n      revert(0x00, returndatasize)\n    tag_85:\n      pop\n      pop\n      pop\n      pop\n      mload(0x40)\n      returndatasize\n      not(0x1f)\n      0x1f\n      dup3\n      add\n      and\n      dup3\n      add\n      dup1\n      0x40\n      mstore\n      pop\n      dup2\n      add\n      swap1\n      tag_86\n      swap2\n      swap1\n      tag_72\n      jump\t// in\n    tag_86:\n      pop\n        /* \"Custom-Dex/Pair.sol\":2554:2564  msg.sender */\n      caller\n        /* \"Custom-Dex/Pair.sol\":2535:2565  liquidityProviders[msg.sender] */\n      0x00\n      swap1\n      dup2\n      mstore\n        /* \"Custom-Dex/Pair.sol\":2535:2553  liquidityProviders */\n      0x05\n        /* \"Custom-Dex/Pair.sol\":2535:2565  liquidityProviders[msg.sender] */\n      0x20\n      dup2\n      dup2\n      mstore\n      0x40\n      dup1\n      dup5\n      keccak256\n        /* \"Custom-Dex/Pair.sol\":2535:2574  liquidityProviders[msg.sender][_pairId] */\n      dup6\n      dup6\n      mstore\n      dup3\n      mstore\n      dup1\n      dup5\n      keccak256\n        /* \"Custom-Dex/Pair.sol\":2535:2587  liquidityProviders[msg.sender][_pairId].token1Amount */\n      0x01\n      swap1\n      dup2\n      add\n        /* \"Custom-Dex/Pair.sol\":2535:2602  liquidityProviders[msg.sender][_pairId].token1Amount= _token1Amount */\n      dup8\n      swap1\n      sstore\n        /* \"Custom-Dex/Pair.sol\":2625:2631  pairId */\n      sload\n        /* \"Custom-Dex/Pair.sol\":2613:2632  pairDetails[pairId] */\n      dup5\n      mstore\n        /* \"Custom-Dex/Pair.sol\":2613:2624  pairDetails */\n      0x04\n        /* \"Custom-Dex/Pair.sol\":2613:2632  pairDetails[pairId] */\n      swap1\n      swap2\n      mstore\n      dup3\n      keccak256\n        /* \"Custom-Dex/Pair.sol\":2613:2641  pairDetails[pairId].reserve1 */\n      add\n        /* \"Custom-Dex/Pair.sol\":2613:2658  pairDetails[pairId].reserve1 += _token1Amount */\n      dup1\n      sload\n        /* \"Custom-Dex/Pair.sol\":2589:2602  _token1Amount */\n      dup5\n      swap3\n        /* \"Custom-Dex/Pair.sol\":2535:2565  liquidityProviders[msg.sender] */\n      swap1\n        /* \"Custom-Dex/Pair.sol\":2613:2658  pairDetails[pairId].reserve1 += _token1Amount */\n      tag_87\n      swap1\n        /* \"Custom-Dex/Pair.sol\":2589:2602  _token1Amount */\n      dup5\n      swap1\n        /* \"Custom-Dex/Pair.sol\":2613:2658  pairDetails[pairId].reserve1 += _token1Amount */\n      tag_78\n      jump\t// in\n    tag_87:\n      swap1\n      swap2\n      sstore\n      pop\n      pop\n        /* \"Custom-Dex/Pair.sol\":2735:2745  msg.sender */\n      caller\n        /* \"Custom-Dex/Pair.sol\":2668:2698  liquidityProviders[msg.sender] */\n      0x00\n      dup2\n      dup2\n      mstore\n        /* \"Custom-Dex/Pair.sol\":2668:2686  liquidityProviders */\n      0x05\n        /* \"Custom-Dex/Pair.sol\":2668:2698  liquidityProviders[msg.sender] */\n      0x20\n      swap1\n      dup2\n      mstore\n      0x40\n      dup1\n      dup4\n      keccak256\n        /* \"Custom-Dex/Pair.sol\":2668:2707  liquidityProviders[msg.sender][_pairId] */\n      swap5\n      dup4\n      mstore\n      swap4\n      swap1\n      mstore\n      swap2\n      swap1\n      swap2\n      keccak256\n        /* \"Custom-Dex/Pair.sol\":2668:2732  liquidityProviders[msg.sender][_pairId].liquidityProviderAddress */\n      0x02\n      add\n        /* \"Custom-Dex/Pair.sol\":2668:2745  liquidityProviders[msg.sender][_pairId].liquidityProviderAddress = msg.sender */\n      dup1\n      sload\n      not(sub(shl(0xa0, 0x01), 0x01))\n      and\n      swap1\n      swap2\n      or\n      swap1\n      sstore\n      pop\n      pop\n        /* \"Custom-Dex/Pair.sol\":1899:2756  function depositLiquidity(uint _token0Amount, uint _token1Amount, uint _pairId)public {... */\n      jump\t// out\n    tag_33:\n      dataSize(sub_0)\n      dup1\n      dataOffset(sub_0)\n      dup4\n      codecopy\n      add\n      swap1\n      jump\t// out\n        /* \"#utility.yul\":14:141   */\n    tag_88:\n        /* \"#utility.yul\":75:85   */\n      0x4e487b71\n        /* \"#utility.yul\":70:73   */\n      0xe0\n        /* \"#utility.yul\":66:86   */\n      shl\n        /* \"#utility.yul\":63:64   */\n      0x00\n        /* \"#utility.yul\":56:87   */\n      mstore\n        /* \"#utility.yul\":106:110   */\n      0x41\n        /* \"#utility.yul\":103:104   */\n      0x04\n        /* \"#utility.yul\":96:111   */\n      mstore\n        /* \"#utility.yul\":130:134   */\n      0x24\n        /* \"#utility.yul\":127:128   */\n      0x00\n        /* \"#utility.yul\":120:135   */\n      revert\n        /* \"#utility.yul\":146:865   */\n    tag_89:\n        /* \"#utility.yul\":189:194   */\n      0x00\n        /* \"#utility.yul\":242:245   */\n      dup3\n        /* \"#utility.yul\":235:239   */\n      0x1f\n        /* \"#utility.yul\":227:233   */\n      dup4\n        /* \"#utility.yul\":223:240   */\n      add\n        /* \"#utility.yul\":219:246   */\n      slt\n        /* \"#utility.yul\":209:264   */\n      tag_100\n      jumpi\n        /* \"#utility.yul\":260:261   */\n      0x00\n        /* \"#utility.yul\":257:258   */\n      dup1\n        /* \"#utility.yul\":250:262   */\n      revert\n        /* \"#utility.yul\":209:264   */\n    tag_100:\n        /* \"#utility.yul\":296:302   */\n      dup2\n        /* \"#utility.yul\":283:303   */\n      calldataload\n        /* \"#utility.yul\":322:340   */\n      0xffffffffffffffff\n        /* \"#utility.yul\":359:361   */\n      dup1\n        /* \"#utility.yul\":355:357   */\n      dup3\n        /* \"#utility.yul\":352:362   */\n      gt\n        /* \"#utility.yul\":349:385   */\n      iszero\n      tag_102\n      jumpi\n        /* \"#utility.yul\":365:383   */\n      tag_102\n      tag_88\n      jump\t// in\n    tag_102:\n        /* \"#utility.yul\":440:442   */\n      0x40\n        /* \"#utility.yul\":434:443   */\n      mload\n        /* \"#utility.yul\":408:410   */\n      0x1f\n        /* \"#utility.yul\":494:507   */\n      dup4\n      add\n      not(0x1f)\n        /* \"#utility.yul\":490:512   */\n      swap1\n      dup2\n      and\n        /* \"#utility.yul\":514:516   */\n      0x3f\n        /* \"#utility.yul\":486:517   */\n      add\n        /* \"#utility.yul\":482:522   */\n      and\n        /* \"#utility.yul\":470:523   */\n      dup2\n      add\n      swap1\n        /* \"#utility.yul\":538:556   */\n      dup3\n      dup3\n      gt\n        /* \"#utility.yul\":558:580   */\n      dup2\n      dup4\n      lt\n        /* \"#utility.yul\":535:581   */\n      or\n        /* \"#utility.yul\":532:604   */\n      iszero\n      tag_104\n      jumpi\n        /* \"#utility.yul\":584:602   */\n      tag_104\n      tag_88\n      jump\t// in\n    tag_104:\n        /* \"#utility.yul\":624:634   */\n      dup2\n        /* \"#utility.yul\":620:622   */\n      0x40\n        /* \"#utility.yul\":613:635   */\n      mstore\n        /* \"#utility.yul\":659:661   */\n      dup4\n        /* \"#utility.yul\":651:657   */\n      dup2\n        /* \"#utility.yul\":644:662   */\n      mstore\n        /* \"#utility.yul\":705:708   */\n      dup7\n        /* \"#utility.yul\":698:702   */\n      0x20\n        /* \"#utility.yul\":693:695   */\n      dup6\n        /* \"#utility.yul\":685:691   */\n      dup9\n        /* \"#utility.yul\":681:696   */\n      add\n        /* \"#utility.yul\":677:703   */\n      add\n        /* \"#utility.yul\":674:709   */\n      gt\n        /* \"#utility.yul\":671:726   */\n      iszero\n      tag_105\n      jumpi\n        /* \"#utility.yul\":722:723   */\n      0x00\n        /* \"#utility.yul\":719:720   */\n      dup1\n        /* \"#utility.yul\":712:724   */\n      revert\n        /* \"#utility.yul\":671:726   */\n    tag_105:\n        /* \"#utility.yul\":786:788   */\n      dup4\n        /* \"#utility.yul\":779:783   */\n      0x20\n        /* \"#utility.yul\":771:777   */\n      dup8\n        /* \"#utility.yul\":767:784   */\n      add\n        /* \"#utility.yul\":760:764   */\n      0x20\n        /* \"#utility.yul\":752:758   */\n      dup4\n        /* \"#utility.yul\":748:765   */\n      add\n        /* \"#utility.yul\":735:789   */\n      calldatacopy\n        /* \"#utility.yul\":833:834   */\n      0x00\n        /* \"#utility.yul\":826:830   */\n      0x20\n        /* \"#utility.yul\":821:823   */\n      dup6\n        /* \"#utility.yul\":813:819   */\n      dup4\n        /* \"#utility.yul\":809:824   */\n      add\n        /* \"#utility.yul\":805:831   */\n      add\n        /* \"#utility.yul\":798:835   */\n      mstore\n        /* \"#utility.yul\":853:859   */\n      dup1\n        /* \"#utility.yul\":844:859   */\n      swap5\n      pop\n      pop\n      pop\n      pop\n      pop\n        /* \"#utility.yul\":146:865   */\n      swap3\n      swap2\n      pop\n      pop\n      jump\t// out\n        /* \"#utility.yul\":870:1952   */\n    tag_9:\n        /* \"#utility.yul\":1014:1020   */\n      0x00\n        /* \"#utility.yul\":1022:1028   */\n      dup1\n        /* \"#utility.yul\":1030:1036   */\n      0x00\n        /* \"#utility.yul\":1038:1044   */\n      dup1\n        /* \"#utility.yul\":1046:1052   */\n      0x00\n        /* \"#utility.yul\":1054:1060   */\n      dup1\n        /* \"#utility.yul\":1107:1110   */\n      0xc0\n        /* \"#utility.yul\":1095:1104   */\n      dup8\n        /* \"#utility.yul\":1086:1093   */\n      dup10\n        /* \"#utility.yul\":1082:1105   */\n      sub\n        /* \"#utility.yul\":1078:1111   */\n      slt\n        /* \"#utility.yul\":1075:1128   */\n      iszero\n      tag_107\n      jumpi\n        /* \"#utility.yul\":1124:1125   */\n      0x00\n        /* \"#utility.yul\":1121:1122   */\n      dup1\n        /* \"#utility.yul\":1114:1126   */\n      revert\n        /* \"#utility.yul\":1075:1128   */\n    tag_107:\n        /* \"#utility.yul\":1164:1173   */\n      dup7\n        /* \"#utility.yul\":1151:1174   */\n      calldataload\n        /* \"#utility.yul\":1193:1211   */\n      0xffffffffffffffff\n        /* \"#utility.yul\":1234:1236   */\n      dup1\n        /* \"#utility.yul\":1226:1232   */\n      dup3\n        /* \"#utility.yul\":1223:1237   */\n      gt\n        /* \"#utility.yul\":1220:1254   */\n      iszero\n      tag_108\n      jumpi\n        /* \"#utility.yul\":1250:1251   */\n      0x00\n        /* \"#utility.yul\":1247:1248   */\n      dup1\n        /* \"#utility.yul\":1240:1252   */\n      revert\n        /* \"#utility.yul\":1220:1254   */\n    tag_108:\n        /* \"#utility.yul\":1273:1323   */\n      tag_109\n        /* \"#utility.yul\":1315:1322   */\n      dup11\n        /* \"#utility.yul\":1306:1312   */\n      dup4\n        /* \"#utility.yul\":1295:1304   */\n      dup12\n        /* \"#utility.yul\":1291:1313   */\n      add\n        /* \"#utility.yul\":1273:1323   */\n      tag_89\n      jump\t// in\n    tag_109:\n        /* \"#utility.yul\":1263:1323   */\n      swap8\n      pop\n        /* \"#utility.yul\":1376:1378   */\n      0x20\n        /* \"#utility.yul\":1365:1374   */\n      dup10\n        /* \"#utility.yul\":1361:1379   */\n      add\n        /* \"#utility.yul\":1348:1380   */\n      calldataload\n        /* \"#utility.yul\":1332:1380   */\n      swap2\n      pop\n        /* \"#utility.yul\":1405:1407   */\n      dup1\n        /* \"#utility.yul\":1395:1403   */\n      dup3\n        /* \"#utility.yul\":1392:1408   */\n      gt\n        /* \"#utility.yul\":1389:1425   */\n      iszero\n      tag_110\n      jumpi\n        /* \"#utility.yul\":1421:1422   */\n      0x00\n        /* \"#utility.yul\":1418:1419   */\n      dup1\n        /* \"#utility.yul\":1411:1423   */\n      revert\n        /* \"#utility.yul\":1389:1425   */\n    tag_110:\n        /* \"#utility.yul\":1444:1496   */\n      tag_111\n        /* \"#utility.yul\":1488:1495   */\n      dup11\n        /* \"#utility.yul\":1477:1485   */\n      dup4\n        /* \"#utility.yul\":1466:1475   */\n      dup12\n        /* \"#utility.yul\":1462:1486   */\n      add\n        /* \"#utility.yul\":1444:1496   */\n      tag_89\n      jump\t// in\n    tag_111:\n        /* \"#utility.yul\":1434:1496   */\n      swap7\n      pop\n        /* \"#utility.yul\":1543:1545   */\n      0x40\n        /* \"#utility.yul\":1532:1541   */\n      dup10\n        /* \"#utility.yul\":1528:1546   */\n      add\n        /* \"#utility.yul\":1515:1547   */\n      calldataload\n        /* \"#utility.yul\":1505:1547   */\n      swap6\n      pop\n        /* \"#utility.yul\":1600:1602   */\n      0x60\n        /* \"#utility.yul\":1589:1598   */\n      dup10\n        /* \"#utility.yul\":1585:1603   */\n      add\n        /* \"#utility.yul\":1572:1604   */\n      calldataload\n        /* \"#utility.yul\":1556:1604   */\n      swap2\n      pop\n        /* \"#utility.yul\":1629:1631   */\n      dup1\n        /* \"#utility.yul\":1619:1627   */\n      dup3\n        /* \"#utility.yul\":1616:1632   */\n      gt\n        /* \"#utility.yul\":1613:1649   */\n      iszero\n      tag_112\n      jumpi\n        /* \"#utility.yul\":1645:1646   */\n      0x00\n        /* \"#utility.yul\":1642:1643   */\n      dup1\n        /* \"#utility.yul\":1635:1647   */\n      revert\n        /* \"#utility.yul\":1613:1649   */\n    tag_112:\n        /* \"#utility.yul\":1668:1720   */\n      tag_113\n        /* \"#utility.yul\":1712:1719   */\n      dup11\n        /* \"#utility.yul\":1701:1709   */\n      dup4\n        /* \"#utility.yul\":1690:1699   */\n      dup12\n        /* \"#utility.yul\":1686:1710   */\n      add\n        /* \"#utility.yul\":1668:1720   */\n      tag_89\n      jump\t// in\n    tag_113:\n        /* \"#utility.yul\":1658:1720   */\n      swap5\n      pop\n        /* \"#utility.yul\":1773:1776   */\n      0x80\n        /* \"#utility.yul\":1762:1771   */\n      dup10\n        /* \"#utility.yul\":1758:1777   */\n      add\n        /* \"#utility.yul\":1745:1778   */\n      calldataload\n        /* \"#utility.yul\":1729:1778   */\n      swap2\n      pop\n        /* \"#utility.yul\":1803:1805   */\n      dup1\n        /* \"#utility.yul\":1793:1801   */\n      dup3\n        /* \"#utility.yul\":1790:1806   */\n      gt\n        /* \"#utility.yul\":1787:1823   */\n      iszero\n      tag_114\n      jumpi\n        /* \"#utility.yul\":1819:1820   */\n      0x00\n        /* \"#utility.yul\":1816:1817   */\n      dup1\n        /* \"#utility.yul\":1809:1821   */\n      revert\n        /* \"#utility.yul\":1787:1823   */\n    tag_114:\n      pop\n        /* \"#utility.yul\":1842:1894   */\n      tag_115\n        /* \"#utility.yul\":1886:1893   */\n      dup10\n        /* \"#utility.yul\":1875:1883   */\n      dup3\n        /* \"#utility.yul\":1864:1873   */\n      dup11\n        /* \"#utility.yul\":1860:1884   */\n      add\n        /* \"#utility.yul\":1842:1894   */\n      tag_89\n      jump\t// in\n    tag_115:\n        /* \"#utility.yul\":1832:1894   */\n      swap3\n      pop\n      pop\n        /* \"#utility.yul\":1941:1944   */\n      0xa0\n        /* \"#utility.yul\":1930:1939   */\n      dup8\n        /* \"#utility.yul\":1926:1945   */\n      add\n        /* \"#utility.yul\":1913:1946   */\n      calldataload\n        /* \"#utility.yul\":1903:1946   */\n      swap1\n      pop\n        /* \"#utility.yul\":870:1952   */\n      swap3\n      swap6\n      pop\n      swap3\n      swap6\n      pop\n      swap3\n      swap6\n      jump\t// out\n        /* \"#utility.yul\":2073:2496   */\n    tag_91:\n        /* \"#utility.yul\":2115:2118   */\n      0x00\n        /* \"#utility.yul\":2153:2158   */\n      dup2\n        /* \"#utility.yul\":2147:2159   */\n      mload\n        /* \"#utility.yul\":2180:2186   */\n      dup1\n        /* \"#utility.yul\":2175:2178   */\n      dup5\n        /* \"#utility.yul\":2168:2187   */\n      mstore\n        /* \"#utility.yul\":2205:2206   */\n      0x00\n        /* \"#utility.yul\":2215:2377   */\n    tag_118:\n        /* \"#utility.yul\":2229:2235   */\n      dup2\n        /* \"#utility.yul\":2226:2227   */\n      dup2\n        /* \"#utility.yul\":2223:2236   */\n      lt\n        /* \"#utility.yul\":2215:2377   */\n      iszero\n      tag_120\n      jumpi\n        /* \"#utility.yul\":2291:2295   */\n      0x20\n        /* \"#utility.yul\":2347:2360   */\n      dup2\n      dup6\n      add\n        /* \"#utility.yul\":2343:2365   */\n      dup2\n      add\n        /* \"#utility.yul\":2337:2366   */\n      mload\n        /* \"#utility.yul\":2319:2330   */\n      dup7\n      dup4\n      add\n        /* \"#utility.yul\":2315:2335   */\n      dup3\n      add\n        /* \"#utility.yul\":2308:2367   */\n      mstore\n        /* \"#utility.yul\":2244:2256   */\n      add\n        /* \"#utility.yul\":2215:2377   */\n      jump(tag_118)\n    tag_120:\n        /* \"#utility.yul\":2219:2222   */\n      pop\n        /* \"#utility.yul\":2422:2423   */\n      0x00\n        /* \"#utility.yul\":2415:2419   */\n      0x20\n        /* \"#utility.yul\":2406:2412   */\n      dup3\n        /* \"#utility.yul\":2401:2404   */\n      dup7\n        /* \"#utility.yul\":2397:2413   */\n      add\n        /* \"#utility.yul\":2393:2420   */\n      add\n        /* \"#utility.yul\":2386:2424   */\n      mstore\n        /* \"#utility.yul\":2485:2489   */\n      0x20\n        /* \"#utility.yul\":2478:2480   */\n      0x1f\n        /* \"#utility.yul\":2474:2481   */\n      not\n        /* \"#utility.yul\":2469:2471   */\n      0x1f\n        /* \"#utility.yul\":2461:2467   */\n      dup4\n        /* \"#utility.yul\":2457:2472   */\n      add\n        /* \"#utility.yul\":2453:2482   */\n      and\n        /* \"#utility.yul\":2448:2451   */\n      dup6\n        /* \"#utility.yul\":2444:2483   */\n      add\n        /* \"#utility.yul\":2440:2490   */\n      add\n        /* \"#utility.yul\":2433:2490   */\n      swap2\n      pop\n      pop\n        /* \"#utility.yul\":2073:2496   */\n      swap3\n      swap2\n      pop\n      pop\n      jump\t// out\n        /* \"#utility.yul\":2501:3138   */\n    tag_92:\n        /* \"#utility.yul\":2563:2566   */\n      0x00\n        /* \"#utility.yul\":2601:2606   */\n      dup2\n        /* \"#utility.yul\":2595:2607   */\n      mload\n        /* \"#utility.yul\":2628:2634   */\n      dup1\n        /* \"#utility.yul\":2623:2626   */\n      dup5\n        /* \"#utility.yul\":2616:2635   */\n      mstore\n        /* \"#utility.yul\":2654:2658   */\n      0x20\n        /* \"#utility.yul\":2683:2685   */\n      dup1\n        /* \"#utility.yul\":2678:2681   */\n      dup6\n        /* \"#utility.yul\":2674:2686   */\n      add\n        /* \"#utility.yul\":2667:2686   */\n      swap5\n      pop\n        /* \"#utility.yul\":2720:2722   */\n      dup1\n        /* \"#utility.yul\":2713:2718   */\n      dup5\n        /* \"#utility.yul\":2709:2723   */\n      add\n        /* \"#utility.yul\":2741:2742   */\n      0x00\n        /* \"#utility.yul\":2751:3113   */\n    tag_122:\n        /* \"#utility.yul\":2765:2771   */\n      dup4\n        /* \"#utility.yul\":2762:2763   */\n      dup2\n        /* \"#utility.yul\":2759:2772   */\n      lt\n        /* \"#utility.yul\":2751:3113   */\n      iszero\n      tag_124\n      jumpi\n        /* \"#utility.yul\":2824:2837   */\n      dup2\n      mload\n        /* \"#utility.yul\":2862:2871   */\n      dup1\n      mload\n        /* \"#utility.yul\":2850:2872   */\n      dup9\n      mstore\n        /* \"#utility.yul\":2912:2923   */\n      dup4\n      dup2\n      add\n        /* \"#utility.yul\":2906:2924   */\n      mload\n        /* \"#utility.yul\":2892:2904   */\n      dup5\n      dup10\n      add\n        /* \"#utility.yul\":2885:2925   */\n      mstore\n        /* \"#utility.yul\":2948:2952   */\n      0x40\n        /* \"#utility.yul\":2996:3007   */\n      swap1\n      dup2\n      add\n        /* \"#utility.yul\":2990:3008   */\n      mload\n      sub(shl(0xa0, 0x01), 0x01)\n        /* \"#utility.yul\":2986:3030   */\n      and\n        /* \"#utility.yul\":2972:2984   */\n      swap1\n      dup9\n      add\n        /* \"#utility.yul\":2965:3031   */\n      mstore\n        /* \"#utility.yul\":3060:3064   */\n      0x60\n        /* \"#utility.yul\":3051:3065   */\n      swap1\n      swap7\n      add\n      swap6\n        /* \"#utility.yul\":3088:3103   */\n      swap1\n      dup3\n      add\n      swap1\n        /* \"#utility.yul\":3027:3028   */\n      0x01\n        /* \"#utility.yul\":2780:2789   */\n      add\n        /* \"#utility.yul\":2751:3113   */\n      jump(tag_122)\n    tag_124:\n      pop\n        /* \"#utility.yul\":3129:3132   */\n      swap5\n      swap6\n        /* \"#utility.yul\":2501:3138   */\n      swap5\n      pop\n      pop\n      pop\n      pop\n      pop\n      jump\t// out\n        /* \"#utility.yul\":3143:4308   */\n    tag_12:\n        /* \"#utility.yul\":3322:3324   */\n      0x20\n        /* \"#utility.yul\":3311:3320   */\n      dup2\n        /* \"#utility.yul\":3304:3325   */\n      mstore\n        /* \"#utility.yul\":3334:3394   */\n      tag_126\n        /* \"#utility.yul\":3390:3392   */\n      0x20\n        /* \"#utility.yul\":3379:3388   */\n      dup3\n        /* \"#utility.yul\":3375:3393   */\n      add\n        /* \"#utility.yul\":3366:3372   */\n      dup4\n        /* \"#utility.yul\":3360:3373   */\n      mload\n      sub(shl(0xa0, 0x01), 0x01)\n        /* \"#utility.yul\":2030:2061   */\n      and\n        /* \"#utility.yul\":2018:2062   */\n      swap1\n      mstore\n        /* \"#utility.yul\":1957:2068   */\n      jump\n        /* \"#utility.yul\":3334:3394   */\n    tag_126:\n        /* \"#utility.yul\":3285:3289   */\n      0x00\n        /* \"#utility.yul\":3441:3443   */\n      0x20\n        /* \"#utility.yul\":3433:3439   */\n      dup4\n        /* \"#utility.yul\":3429:3444   */\n      add\n        /* \"#utility.yul\":3423:3445   */\n      mload\n        /* \"#utility.yul\":3454:3513   */\n      tag_127\n        /* \"#utility.yul\":3509:3511   */\n      0x40\n        /* \"#utility.yul\":3498:3507   */\n      dup5\n        /* \"#utility.yul\":3494:3512   */\n      add\n        /* \"#utility.yul\":3480:3492   */\n      dup3\n      sub(shl(0xa0, 0x01), 0x01)\n        /* \"#utility.yul\":2030:2061   */\n      and\n        /* \"#utility.yul\":2018:2062   */\n      swap1\n      mstore\n        /* \"#utility.yul\":1957:2068   */\n      jump\n        /* \"#utility.yul\":3454:3513   */\n    tag_127:\n      pop\n        /* \"#utility.yul\":3562:3564   */\n      0x40\n        /* \"#utility.yul\":3554:3560   */\n      dup4\n        /* \"#utility.yul\":3550:3565   */\n      add\n        /* \"#utility.yul\":3544:3566   */\n      mload\n        /* \"#utility.yul\":3585:3591   */\n      0x0100\n        /* \"#utility.yul\":3627:3629   */\n      dup1\n        /* \"#utility.yul\":3622:3624   */\n      0x60\n        /* \"#utility.yul\":3611:3620   */\n      dup6\n        /* \"#utility.yul\":3607:3625   */\n      add\n        /* \"#utility.yul\":3600:3630   */\n      mstore\n        /* \"#utility.yul\":3653:3707   */\n      tag_128\n        /* \"#utility.yul\":3702:3705   */\n      0x0120\n        /* \"#utility.yul\":3691:3700   */\n      dup6\n        /* \"#utility.yul\":3687:3706   */\n      add\n        /* \"#utility.yul\":3671:3685   */\n      dup4\n        /* \"#utility.yul\":3653:3707   */\n      tag_91\n      jump\t// in\n    tag_128:\n        /* \"#utility.yul\":3639:3707   */\n      swap2\n      pop\n        /* \"#utility.yul\":3756:3758   */\n      0x60\n        /* \"#utility.yul\":3748:3754   */\n      dup6\n        /* \"#utility.yul\":3744:3759   */\n      add\n        /* \"#utility.yul\":3738:3760   */\n      mload\n        /* \"#utility.yul\":3783:3785   */\n      0x1f\n        /* \"#utility.yul\":3779:3786   */\n      not\n        /* \"#utility.yul\":3851:3853   */\n      dup1\n        /* \"#utility.yul\":3839:3848   */\n      dup7\n        /* \"#utility.yul\":3831:3837   */\n      dup6\n        /* \"#utility.yul\":3827:3849   */\n      sub\n        /* \"#utility.yul\":3823:3854   */\n      add\n        /* \"#utility.yul\":3817:3820   */\n      0x80\n        /* \"#utility.yul\":3806:3815   */\n      dup8\n        /* \"#utility.yul\":3802:3821   */\n      add\n        /* \"#utility.yul\":3795:3855   */\n      mstore\n        /* \"#utility.yul\":3878:3919   */\n      tag_129\n        /* \"#utility.yul\":3912:3918   */\n      dup5\n        /* \"#utility.yul\":3896:3910   */\n      dup4\n        /* \"#utility.yul\":3878:3919   */\n      tag_91\n      jump\t// in\n    tag_129:\n        /* \"#utility.yul\":3864:3919   */\n      swap4\n      pop\n        /* \"#utility.yul\":3974:3977   */\n      0x80\n        /* \"#utility.yul\":3966:3972   */\n      dup8\n        /* \"#utility.yul\":3962:3978   */\n      add\n        /* \"#utility.yul\":3956:3979   */\n      mload\n        /* \"#utility.yul\":3950:3953   */\n      0xa0\n        /* \"#utility.yul\":3939:3948   */\n      dup8\n        /* \"#utility.yul\":3935:3954   */\n      add\n        /* \"#utility.yul\":3928:3980   */\n      mstore\n        /* \"#utility.yul\":4035:4038   */\n      0xa0\n        /* \"#utility.yul\":4027:4033   */\n      dup8\n        /* \"#utility.yul\":4023:4039   */\n      add\n        /* \"#utility.yul\":4017:4040   */\n      mload\n        /* \"#utility.yul\":4011:4014   */\n      0xc0\n        /* \"#utility.yul\":4000:4009   */\n      dup8\n        /* \"#utility.yul\":3996:4015   */\n      add\n        /* \"#utility.yul\":3989:4041   */\n      mstore\n        /* \"#utility.yul\":4096:4099   */\n      0xc0\n        /* \"#utility.yul\":4088:4094   */\n      dup8\n        /* \"#utility.yul\":4084:4100   */\n      add\n        /* \"#utility.yul\":4078:4101   */\n      mload\n        /* \"#utility.yul\":4072:4075   */\n      0xe0\n        /* \"#utility.yul\":4061:4070   */\n      dup8\n        /* \"#utility.yul\":4057:4076   */\n      add\n        /* \"#utility.yul\":4050:4102   */\n      mstore\n        /* \"#utility.yul\":4151:4154   */\n      0xe0\n        /* \"#utility.yul\":4143:4149   */\n      dup8\n        /* \"#utility.yul\":4139:4155   */\n      add\n        /* \"#utility.yul\":4133:4156   */\n      mload\n        /* \"#utility.yul\":4111:4156   */\n      swap2\n      pop\n        /* \"#utility.yul\":4220:4222   */\n      dup1\n        /* \"#utility.yul\":4208:4217   */\n      dup7\n        /* \"#utility.yul\":4200:4206   */\n      dup6\n        /* \"#utility.yul\":4196:4218   */\n      sub\n        /* \"#utility.yul\":4192:4223   */\n      add\n        /* \"#utility.yul\":4187:4189   */\n      dup4\n        /* \"#utility.yul\":4176:4185   */\n      dup8\n        /* \"#utility.yul\":4172:4190   */\n      add\n        /* \"#utility.yul\":4165:4224   */\n      mstore\n      pop\n        /* \"#utility.yul\":4241:4302   */\n      tag_130\n        /* \"#utility.yul\":4295:4301   */\n      dup4\n        /* \"#utility.yul\":4279:4293   */\n      dup3\n        /* \"#utility.yul\":4241:4302   */\n      tag_92\n      jump\t// in\n    tag_130:\n        /* \"#utility.yul\":4233:4302   */\n      swap7\n        /* \"#utility.yul\":3143:4308   */\n      swap6\n      pop\n      pop\n      pop\n      pop\n      pop\n      pop\n      jump\t// out\n        /* \"#utility.yul\":4313:4493   */\n    tag_15:\n        /* \"#utility.yul\":4372:4378   */\n      0x00\n        /* \"#utility.yul\":4425:4427   */\n      0x20\n        /* \"#utility.yul\":4413:4422   */\n      dup3\n        /* \"#utility.yul\":4404:4411   */\n      dup5\n        /* \"#utility.yul\":4400:4423   */\n      sub\n        /* \"#utility.yul\":4396:4428   */\n      slt\n        /* \"#utility.yul\":4393:4445   */\n      iszero\n      tag_132\n      jumpi\n        /* \"#utility.yul\":4441:4442   */\n      0x00\n        /* \"#utility.yul\":4438:4439   */\n      dup1\n        /* \"#utility.yul\":4431:4443   */\n      revert\n        /* \"#utility.yul\":4393:4445   */\n    tag_132:\n      pop\n        /* \"#utility.yul\":4464:4487   */\n      calldataload\n      swap2\n        /* \"#utility.yul\":4313:4493   */\n      swap1\n      pop\n      jump\t// out\n        /* \"#utility.yul\":4498:5323   */\n    tag_18:\n      sub(shl(0xa0, 0x01), 0x01)\n        /* \"#utility.yul\":4899:4914   */\n      dup9\n      dup2\n      and\n        /* \"#utility.yul\":4881:4915   */\n      dup3\n      mstore\n        /* \"#utility.yul\":4951:4966   */\n      dup8\n      and\n        /* \"#utility.yul\":4946:4948   */\n      0x20\n        /* \"#utility.yul\":4931:4949   */\n      dup3\n      add\n        /* \"#utility.yul\":4924:4967   */\n      mstore\n        /* \"#utility.yul\":5003:5006   */\n      0xe0\n        /* \"#utility.yul\":4998:5000   */\n      0x40\n        /* \"#utility.yul\":4983:5001   */\n      dup3\n      add\n        /* \"#utility.yul\":4976:5007   */\n      dup2\n      swap1\n      mstore\n        /* \"#utility.yul\":4824:4828   */\n      0x00\n      swap1\n        /* \"#utility.yul\":5030:5076   */\n      tag_134\n      swap1\n        /* \"#utility.yul\":5056:5075   */\n      dup4\n      add\n        /* \"#utility.yul\":5048:5054   */\n      dup9\n        /* \"#utility.yul\":5030:5076   */\n      tag_91\n      jump\t// in\n    tag_134:\n        /* \"#utility.yul\":5124:5133   */\n      dup3\n        /* \"#utility.yul\":5116:5122   */\n      dup2\n        /* \"#utility.yul\":5112:5134   */\n      sub\n        /* \"#utility.yul\":5107:5109   */\n      0x60\n        /* \"#utility.yul\":5096:5105   */\n      dup5\n        /* \"#utility.yul\":5092:5110   */\n      add\n        /* \"#utility.yul\":5085:5135   */\n      mstore\n        /* \"#utility.yul\":5152:5185   */\n      tag_135\n        /* \"#utility.yul\":5178:5184   */\n      dup2\n        /* \"#utility.yul\":5170:5176   */\n      dup9\n        /* \"#utility.yul\":5152:5185   */\n      tag_91\n      jump\t// in\n    tag_135:\n        /* \"#utility.yul\":5216:5219   */\n      0x80\n        /* \"#utility.yul\":5201:5220   */\n      dup5\n      add\n        /* \"#utility.yul\":5194:5229   */\n      swap7\n      swap1\n      swap7\n      mstore\n      pop\n      pop\n        /* \"#utility.yul\":5260:5263   */\n      0xa0\n        /* \"#utility.yul\":5245:5264   */\n      dup2\n      add\n        /* \"#utility.yul\":5238:5273   */\n      swap3\n      swap1\n      swap3\n      mstore\n        /* \"#utility.yul\":5304:5307   */\n      0xc0\n        /* \"#utility.yul\":5289:5308   */\n      swap1\n      swap2\n      add\n        /* \"#utility.yul\":5282:5317   */\n      mstore\n        /* \"#utility.yul\":5144:5185   */\n      swap5\n        /* \"#utility.yul\":4498:5323   */\n      swap4\n      pop\n      pop\n      pop\n      pop\n      jump\t// out\n        /* \"#utility.yul\":5328:5682   */\n    tag_21:\n        /* \"#utility.yul\":5396:5402   */\n      0x00\n        /* \"#utility.yul\":5404:5410   */\n      dup1\n        /* \"#utility.yul\":5457:5459   */\n      0x40\n        /* \"#utility.yul\":5445:5454   */\n      dup4\n        /* \"#utility.yul\":5436:5443   */\n      dup6\n        /* \"#utility.yul\":5432:5455   */\n      sub\n        /* \"#utility.yul\":5428:5460   */\n      slt\n        /* \"#utility.yul\":5425:5477   */\n      iszero\n      tag_137\n      jumpi\n        /* \"#utility.yul\":5473:5474   */\n      0x00\n        /* \"#utility.yul\":5470:5471   */\n      dup1\n        /* \"#utility.yul\":5463:5475   */\n      revert\n        /* \"#utility.yul\":5425:5477   */\n    tag_137:\n        /* \"#utility.yul\":5499:5522   */\n      dup3\n      calldataload\n      sub(shl(0xa0, 0x01), 0x01)\n        /* \"#utility.yul\":5551:5582   */\n      dup2\n      and\n        /* \"#utility.yul\":5541:5583   */\n      dup2\n      eq\n        /* \"#utility.yul\":5531:5601   */\n      tag_138\n      jumpi\n        /* \"#utility.yul\":5597:5598   */\n      0x00\n        /* \"#utility.yul\":5594:5595   */\n      dup1\n        /* \"#utility.yul\":5587:5599   */\n      revert\n        /* \"#utility.yul\":5531:5601   */\n    tag_138:\n        /* \"#utility.yul\":5620:5625   */\n      swap5\n        /* \"#utility.yul\":5672:5674   */\n      0x20\n        /* \"#utility.yul\":5657:5675   */\n      swap4\n      swap1\n      swap4\n      add\n        /* \"#utility.yul\":5644:5676   */\n      calldataload\n      swap4\n      pop\n      pop\n      pop\n        /* \"#utility.yul\":5328:5682   */\n      jump\t// out\n        /* \"#utility.yul\":6037:6353   */\n    tag_27:\n        /* \"#utility.yul\":6114:6120   */\n      0x00\n        /* \"#utility.yul\":6122:6128   */\n      dup1\n        /* \"#utility.yul\":6130:6136   */\n      0x00\n        /* \"#utility.yul\":6183:6185   */\n      0x60\n        /* \"#utility.yul\":6171:6180   */\n      dup5\n        /* \"#utility.yul\":6162:6169   */\n      dup7\n        /* \"#utility.yul\":6158:6181   */\n      sub\n        /* \"#utility.yul\":6154:6186   */\n      slt\n        /* \"#utility.yul\":6151:6203   */\n      iszero\n      tag_141\n      jumpi\n        /* \"#utility.yul\":6199:6200   */\n      0x00\n        /* \"#utility.yul\":6196:6197   */\n      dup1\n        /* \"#utility.yul\":6189:6201   */\n      revert\n        /* \"#utility.yul\":6151:6203   */\n    tag_141:\n      pop\n      pop\n        /* \"#utility.yul\":6222:6245   */\n      dup2\n      calldataload\n      swap4\n        /* \"#utility.yul\":6292:6294   */\n      0x20\n        /* \"#utility.yul\":6277:6295   */\n      dup4\n      add\n        /* \"#utility.yul\":6264:6296   */\n      calldataload\n      swap4\n      pop\n        /* \"#utility.yul\":6343:6345   */\n      0x40\n        /* \"#utility.yul\":6328:6346   */\n      swap1\n      swap3\n      add\n        /* \"#utility.yul\":6315:6347   */\n      calldataload\n      swap2\n        /* \"#utility.yul\":6037:6353   */\n      swap1\n      pop\n      jump\t// out\n        /* \"#utility.yul\":6358:6812   */\n    tag_35:\n        /* \"#utility.yul\":6583:6585   */\n      0x60\n        /* \"#utility.yul\":6572:6581   */\n      dup2\n        /* \"#utility.yul\":6565:6586   */\n      mstore\n        /* \"#utility.yul\":6546:6550   */\n      0x00\n        /* \"#utility.yul\":6609:6654   */\n      tag_143\n        /* \"#utility.yul\":6650:6652   */\n      0x60\n        /* \"#utility.yul\":6639:6648   */\n      dup4\n        /* \"#utility.yul\":6635:6653   */\n      add\n        /* \"#utility.yul\":6627:6633   */\n      dup7\n        /* \"#utility.yul\":6609:6654   */\n      tag_91\n      jump\t// in\n    tag_143:\n        /* \"#utility.yul\":6702:6711   */\n      dup3\n        /* \"#utility.yul\":6694:6700   */\n      dup2\n        /* \"#utility.yul\":6690:6712   */\n      sub\n        /* \"#utility.yul\":6685:6687   */\n      0x20\n        /* \"#utility.yul\":6674:6683   */\n      dup5\n        /* \"#utility.yul\":6670:6688   */\n      add\n        /* \"#utility.yul\":6663:6713   */\n      mstore\n        /* \"#utility.yul\":6730:6763   */\n      tag_144\n        /* \"#utility.yul\":6756:6762   */\n      dup2\n        /* \"#utility.yul\":6748:6754   */\n      dup7\n        /* \"#utility.yul\":6730:6763   */\n      tag_91\n      jump\t// in\n    tag_144:\n        /* \"#utility.yul\":6722:6763   */\n      swap2\n      pop\n      pop\n        /* \"#utility.yul\":6799:6805   */\n      dup3\n        /* \"#utility.yul\":6794:6796   */\n      0x40\n        /* \"#utility.yul\":6783:6792   */\n      dup4\n        /* \"#utility.yul\":6779:6797   */\n      add\n        /* \"#utility.yul\":6772:6806   */\n      mstore\n        /* \"#utility.yul\":6358:6812   */\n      swap5\n      swap4\n      pop\n      pop\n      pop\n      pop\n      jump\t// out\n        /* \"#utility.yul\":6817:6944   */\n    tag_93:\n        /* \"#utility.yul\":6878:6888   */\n      0x4e487b71\n        /* \"#utility.yul\":6873:6876   */\n      0xe0\n        /* \"#utility.yul\":6869:6889   */\n      shl\n        /* \"#utility.yul\":6866:6867   */\n      0x00\n        /* \"#utility.yul\":6859:6890   */\n      mstore\n        /* \"#utility.yul\":6909:6913   */\n      0x11\n        /* \"#utility.yul\":6906:6907   */\n      0x04\n        /* \"#utility.yul\":6899:6914   */\n      mstore\n        /* \"#utility.yul\":6933:6937   */\n      0x24\n        /* \"#utility.yul\":6930:6931   */\n      0x00\n        /* \"#utility.yul\":6923:6938   */\n      revert\n        /* \"#utility.yul\":6949:7084   */\n    tag_41:\n        /* \"#utility.yul\":6988:6991   */\n      0x00\n        /* \"#utility.yul\":7009:7026   */\n      0x01\n      dup3\n      add\n        /* \"#utility.yul\":7006:7049   */\n      tag_148\n      jumpi\n        /* \"#utility.yul\":7029:7047   */\n      tag_148\n      tag_93\n      jump\t// in\n    tag_148:\n      pop\n        /* \"#utility.yul\":7076:7077   */\n      0x01\n        /* \"#utility.yul\":7065:7078   */\n      add\n      swap1\n        /* \"#utility.yul\":6949:7084   */\n      jump\t// out\n        /* \"#utility.yul\":7089:7469   */\n    tag_56:\n        /* \"#utility.yul\":7168:7169   */\n      0x01\n        /* \"#utility.yul\":7164:7176   */\n      dup2\n      dup2\n      shr\n      swap1\n        /* \"#utility.yul\":7211:7223   */\n      dup3\n      and\n      dup1\n        /* \"#utility.yul\":7232:7293   */\n      tag_150\n      jumpi\n        /* \"#utility.yul\":7286:7290   */\n      0x7f\n        /* \"#utility.yul\":7278:7284   */\n      dup3\n        /* \"#utility.yul\":7274:7291   */\n      and\n        /* \"#utility.yul\":7264:7291   */\n      swap2\n      pop\n        /* \"#utility.yul\":7232:7293   */\n    tag_150:\n        /* \"#utility.yul\":7339:7341   */\n      0x20\n        /* \"#utility.yul\":7331:7337   */\n      dup3\n        /* \"#utility.yul\":7328:7342   */\n      lt\n        /* \"#utility.yul\":7308:7326   */\n      dup2\n        /* \"#utility.yul\":7305:7343   */\n      sub\n        /* \"#utility.yul\":7302:7463   */\n      tag_151\n      jumpi\n        /* \"#utility.yul\":7385:7395   */\n      0x4e487b71\n        /* \"#utility.yul\":7380:7383   */\n      0xe0\n        /* \"#utility.yul\":7376:7396   */\n      shl\n        /* \"#utility.yul\":7373:7374   */\n      0x00\n        /* \"#utility.yul\":7366:7397   */\n      mstore\n        /* \"#utility.yul\":7420:7424   */\n      0x22\n        /* \"#utility.yul\":7417:7418   */\n      0x04\n        /* \"#utility.yul\":7410:7425   */\n      mstore\n        /* \"#utility.yul\":7448:7452   */\n      0x24\n        /* \"#utility.yul\":7445:7446   */\n      0x00\n        /* \"#utility.yul\":7438:7453   */\n      revert\n        /* \"#utility.yul\":7302:7463   */\n    tag_151:\n      pop\n        /* \"#utility.yul\":7089:7469   */\n      swap2\n      swap1\n      pop\n      jump\t// out\n        /* \"#utility.yul\":7600:8145   */\n    tag_95:\n        /* \"#utility.yul\":7702:7704   */\n      0x1f\n        /* \"#utility.yul\":7697:7700   */\n      dup3\n        /* \"#utility.yul\":7694:7705   */\n      gt\n        /* \"#utility.yul\":7691:8139   */\n      iszero\n      tag_154\n      jumpi\n        /* \"#utility.yul\":7738:7739   */\n      0x00\n        /* \"#utility.yul\":7763:7768   */\n      dup2\n        /* \"#utility.yul\":7759:7761   */\n      dup2\n        /* \"#utility.yul\":7752:7769   */\n      mstore\n        /* \"#utility.yul\":7808:7812   */\n      0x20\n        /* \"#utility.yul\":7804:7806   */\n      dup2\n        /* \"#utility.yul\":7794:7813   */\n      keccak256\n        /* \"#utility.yul\":7878:7880   */\n      0x1f\n        /* \"#utility.yul\":7866:7876   */\n      dup6\n        /* \"#utility.yul\":7862:7881   */\n      add\n        /* \"#utility.yul\":7859:7860   */\n      0x05\n        /* \"#utility.yul\":7855:7882   */\n      shr\n        /* \"#utility.yul\":7849:7853   */\n      dup2\n        /* \"#utility.yul\":7845:7883   */\n      add\n        /* \"#utility.yul\":7914:7918   */\n      0x20\n        /* \"#utility.yul\":7902:7912   */\n      dup7\n        /* \"#utility.yul\":7899:7919   */\n      lt\n        /* \"#utility.yul\":7896:7943   */\n      iszero\n      tag_155\n      jumpi\n      pop\n        /* \"#utility.yul\":7937:7941   */\n      dup1\n        /* \"#utility.yul\":7896:7943   */\n    tag_155:\n        /* \"#utility.yul\":7992:7994   */\n      0x1f\n        /* \"#utility.yul\":7987:7990   */\n      dup6\n        /* \"#utility.yul\":7983:7995   */\n      add\n        /* \"#utility.yul\":7980:7981   */\n      0x05\n        /* \"#utility.yul\":7976:7996   */\n      shr\n        /* \"#utility.yul\":7970:7974   */\n      dup3\n        /* \"#utility.yul\":7966:7997   */\n      add\n        /* \"#utility.yul\":7956:7997   */\n      swap2\n      pop\n        /* \"#utility.yul\":8047:8129   */\n    tag_156:\n        /* \"#utility.yul\":8065:8067   */\n      dup2\n        /* \"#utility.yul\":8058:8063   */\n      dup2\n        /* \"#utility.yul\":8055:8068   */\n      lt\n        /* \"#utility.yul\":8047:8129   */\n      iszero\n      tag_158\n      jumpi\n        /* \"#utility.yul\":8110:8127   */\n      dup3\n      dup2\n      sstore\n        /* \"#utility.yul\":8091:8092   */\n      0x01\n        /* \"#utility.yul\":8080:8093   */\n      add\n        /* \"#utility.yul\":8047:8129   */\n      jump(tag_156)\n    tag_158:\n        /* \"#utility.yul\":8051:8054   */\n      pop\n      pop\n      pop\n        /* \"#utility.yul\":7691:8139   */\n    tag_154:\n        /* \"#utility.yul\":7600:8145   */\n      pop\n      pop\n      pop\n      jump\t// out\n        /* \"#utility.yul\":8321:9673   */\n    tag_43:\n        /* \"#utility.yul\":8447:8450   */\n      dup2\n        /* \"#utility.yul\":8441:8451   */\n      mload\n        /* \"#utility.yul\":8474:8492   */\n      0xffffffffffffffff\n        /* \"#utility.yul\":8466:8472   */\n      dup2\n        /* \"#utility.yul\":8463:8493   */\n      gt\n        /* \"#utility.yul\":8460:8516   */\n      iszero\n      tag_162\n      jumpi\n        /* \"#utility.yul\":8496:8514   */\n      tag_162\n      tag_88\n      jump\t// in\n    tag_162:\n        /* \"#utility.yul\":8525:8622   */\n      tag_163\n        /* \"#utility.yul\":8615:8621   */\n      dup2\n        /* \"#utility.yul\":8575:8613   */\n      tag_164\n        /* \"#utility.yul\":8607:8611   */\n      dup5\n        /* \"#utility.yul\":8601:8612   */\n      sload\n        /* \"#utility.yul\":8575:8613   */\n      tag_56\n      jump\t// in\n    tag_164:\n        /* \"#utility.yul\":8569:8573   */\n      dup5\n        /* \"#utility.yul\":8525:8622   */\n      tag_95\n      jump\t// in\n    tag_163:\n        /* \"#utility.yul\":8677:8681   */\n      0x20\n      dup1\n        /* \"#utility.yul\":8741:8743   */\n      0x1f\n        /* \"#utility.yul\":8730:8744   */\n      dup4\n      gt\n        /* \"#utility.yul\":8758:8759   */\n      0x01\n        /* \"#utility.yul\":8753:9416   */\n      dup2\n      eq\n      tag_166\n      jumpi\n        /* \"#utility.yul\":9460:9461   */\n      0x00\n        /* \"#utility.yul\":9477:9483   */\n      dup5\n        /* \"#utility.yul\":9474:9563   */\n      iszero\n      tag_167\n      jumpi\n      pop\n        /* \"#utility.yul\":9529:9548   */\n      dup6\n      dup4\n      add\n        /* \"#utility.yul\":9523:9549   */\n      mload\n        /* \"#utility.yul\":9474:9563   */\n    tag_167:\n      not(0x00)\n        /* \"#utility.yul\":8278:8279   */\n      0x03\n        /* \"#utility.yul\":8274:8285   */\n      dup7\n      swap1\n      shl\n        /* \"#utility.yul\":8270:8294   */\n      shr\n        /* \"#utility.yul\":8266:8295   */\n      not\n        /* \"#utility.yul\":8256:8296   */\n      and\n        /* \"#utility.yul\":8302:8303   */\n      0x01\n        /* \"#utility.yul\":8298:8309   */\n      dup6\n      swap1\n      shl\n        /* \"#utility.yul\":8253:8310   */\n      or\n        /* \"#utility.yul\":9576:9657   */\n      dup6\n      sstore\n        /* \"#utility.yul\":8723:9667   */\n      jump(tag_158)\n        /* \"#utility.yul\":8753:9416   */\n    tag_166:\n        /* \"#utility.yul\":7547:7548   */\n      0x00\n        /* \"#utility.yul\":7540:7554   */\n      dup6\n      dup2\n      mstore\n        /* \"#utility.yul\":7584:7588   */\n      0x20\n        /* \"#utility.yul\":7571:7589   */\n      dup2\n      keccak256\n      not(0x1f)\n        /* \"#utility.yul\":8789:8809   */\n      dup7\n      and\n      swap2\n        /* \"#utility.yul\":8907:9143   */\n    tag_170:\n        /* \"#utility.yul\":8921:8928   */\n      dup3\n        /* \"#utility.yul\":8918:8919   */\n      dup2\n        /* \"#utility.yul\":8915:8929   */\n      lt\n        /* \"#utility.yul\":8907:9143   */\n      iszero\n      tag_172\n      jumpi\n        /* \"#utility.yul\":9010:9029   */\n      dup9\n      dup7\n      add\n        /* \"#utility.yul\":9004:9030   */\n      mload\n        /* \"#utility.yul\":8989:9031   */\n      dup3\n      sstore\n        /* \"#utility.yul\":9102:9129   */\n      swap5\n      dup5\n      add\n      swap5\n        /* \"#utility.yul\":9070:9071   */\n      0x01\n        /* \"#utility.yul\":9058:9072   */\n      swap1\n      swap2\n      add\n      swap1\n        /* \"#utility.yul\":8937:8956   */\n      dup5\n      add\n        /* \"#utility.yul\":8907:9143   */\n      jump(tag_170)\n    tag_172:\n        /* \"#utility.yul\":8911:8914   */\n      pop\n        /* \"#utility.yul\":9171:9177   */\n      dup6\n        /* \"#utility.yul\":9162:9169   */\n      dup3\n        /* \"#utility.yul\":9159:9178   */\n      lt\n        /* \"#utility.yul\":9156:9357   */\n      iszero\n      tag_173\n      jumpi\n        /* \"#utility.yul\":9232:9251   */\n      dup8\n      dup6\n      add\n        /* \"#utility.yul\":9226:9252   */\n      mload\n      not(0x00)\n        /* \"#utility.yul\":9315:9316   */\n      0x03\n        /* \"#utility.yul\":9311:9325   */\n      dup9\n      swap1\n      shl\n        /* \"#utility.yul\":9327:9330   */\n      0xf8\n        /* \"#utility.yul\":9307:9331   */\n      and\n        /* \"#utility.yul\":9303:9340   */\n      shr\n        /* \"#utility.yul\":9299:9341   */\n      not\n        /* \"#utility.yul\":9284:9342   */\n      and\n        /* \"#utility.yul\":9269:9343   */\n      dup2\n      sstore\n        /* \"#utility.yul\":9156:9357   */\n    tag_173:\n      pop\n      pop\n      pop\n      pop\n      pop\n        /* \"#utility.yul\":9403:9404   */\n      0x01\n        /* \"#utility.yul\":9387:9401   */\n      swap1\n      dup2\n      shl\n        /* \"#utility.yul\":9383:9405   */\n      add\n        /* \"#utility.yul\":9370:9406   */\n      swap1\n      sstore\n      pop\n        /* \"#utility.yul\":8321:9673   */\n      jump\t// out\n        /* \"#utility.yul\":9886:10070   */\n    tag_50:\n        /* \"#utility.yul\":9956:9962   */\n      0x00\n        /* \"#utility.yul\":10009:10011   */\n      0x20\n        /* \"#utility.yul\":9997:10006   */\n      dup3\n        /* \"#utility.yul\":9988:9995   */\n      dup5\n        /* \"#utility.yul\":9984:10007   */\n      sub\n        /* \"#utility.yul\":9980:10012   */\n      slt\n        /* \"#utility.yul\":9977:10029   */\n      iszero\n      tag_176\n      jumpi\n        /* \"#utility.yul\":10025:10026   */\n      0x00\n        /* \"#utility.yul\":10022:10023   */\n      dup1\n        /* \"#utility.yul\":10015:10027   */\n      revert\n        /* \"#utility.yul\":9977:10029   */\n    tag_176:\n      pop\n        /* \"#utility.yul\":10048:10064   */\n      mload\n      swap2\n        /* \"#utility.yul\":9886:10070   */\n      swap1\n      pop\n      jump\t// out\n        /* \"#utility.yul\":10075:10450   */\n    tag_68:\n      sub(shl(0xa0, 0x01), 0x01)\n        /* \"#utility.yul\":10333:10348   */\n      swap4\n      dup5\n      and\n        /* \"#utility.yul\":10315:10349   */\n      dup2\n      mstore\n        /* \"#utility.yul\":10385:10400   */\n      swap2\n      swap1\n      swap3\n      and\n        /* \"#utility.yul\":10380:10382   */\n      0x20\n        /* \"#utility.yul\":10365:10383   */\n      dup3\n      add\n        /* \"#utility.yul\":10358:10401   */\n      mstore\n        /* \"#utility.yul\":10432:10434   */\n      0x40\n        /* \"#utility.yul\":10417:10435   */\n      dup2\n      add\n        /* \"#utility.yul\":10410:10444   */\n      swap2\n      swap1\n      swap2\n      mstore\n        /* \"#utility.yul\":10265:10267   */\n      0x60\n        /* \"#utility.yul\":10250:10268   */\n      add\n      swap1\n        /* \"#utility.yul\":10075:10450   */\n      jump\t// out\n        /* \"#utility.yul\":10455:10732   */\n    tag_72:\n        /* \"#utility.yul\":10522:10528   */\n      0x00\n        /* \"#utility.yul\":10575:10577   */\n      0x20\n        /* \"#utility.yul\":10563:10572   */\n      dup3\n        /* \"#utility.yul\":10554:10561   */\n      dup5\n        /* \"#utility.yul\":10550:10573   */\n      sub\n        /* \"#utility.yul\":10546:10578   */\n      slt\n        /* \"#utility.yul\":10543:10595   */\n      iszero\n      tag_179\n      jumpi\n        /* \"#utility.yul\":10591:10592   */\n      0x00\n        /* \"#utility.yul\":10588:10589   */\n      dup1\n        /* \"#utility.yul\":10581:10593   */\n      revert\n        /* \"#utility.yul\":10543:10595   */\n    tag_179:\n        /* \"#utility.yul\":10623:10632   */\n      dup2\n        /* \"#utility.yul\":10617:10633   */\n      mload\n        /* \"#utility.yul\":10676:10681   */\n      dup1\n        /* \"#utility.yul\":10669:10682   */\n      iszero\n        /* \"#utility.yul\":10662:10683   */\n      iszero\n        /* \"#utility.yul\":10655:10660   */\n      dup2\n        /* \"#utility.yul\":10652:10684   */\n      eq\n        /* \"#utility.yul\":10642:10702   */\n      tag_180\n      jumpi\n        /* \"#utility.yul\":10698:10699   */\n      0x00\n        /* \"#utility.yul\":10695:10696   */\n      dup1\n        /* \"#utility.yul\":10688:10700   */\n      revert\n        /* \"#utility.yul\":10642:10702   */\n    tag_180:\n        /* \"#utility.yul\":10721:10726   */\n      swap4\n        /* \"#utility.yul\":10455:10732   */\n      swap3\n      pop\n      pop\n      pop\n      jump\t// out\n        /* \"#utility.yul\":10737:10862   */\n    tag_78:\n        /* \"#utility.yul\":10802:10811   */\n      dup1\n      dup3\n      add\n        /* \"#utility.yul\":10823:10833   */\n      dup1\n      dup3\n      gt\n        /* \"#utility.yul\":10820:10856   */\n      iszero\n      tag_183\n      jumpi\n        /* \"#utility.yul\":10836:10854   */\n      tag_183\n      tag_93\n      jump\t// in\n    tag_183:\n        /* \"#utility.yul\":10737:10862   */\n      swap3\n      swap2\n      pop\n      pop\n      jump\t// out\n    stop\n\n    sub_0: assembly {\n            /* \"Custom-Dex/Erc-20.sol\":362:2686  contract erc20 is IERC20{... */\n          mstore(0x40, 0x80)\n            /* \"Custom-Dex/Erc-20.sol\":466:468  18 */\n          0x12\n            /* \"Custom-Dex/Erc-20.sol\":443:468  uint public  decimals =18 */\n          0x02\n          sstore\n            /* \"Custom-Dex/Erc-20.sol\":700:939  constructor(string memory name_, string memory symbol_, uint _totalSupply)  {... */\n          callvalue\n          dup1\n          iszero\n          tag_1\n          jumpi\n          0x00\n          dup1\n          revert\n        tag_1:\n          pop\n          mload(0x40)\n          sub(codesize, bytecodeSize)\n          dup1\n          bytecodeSize\n          dup4\n          codecopy\n          dup2\n          add\n          0x40\n          dup2\n          swap1\n          mstore\n          tag_2\n          swap2\n          tag_3\n          jump\t// in\n        tag_2:\n            /* \"Custom-Dex/Erc-20.sol\":787:791  name */\n          0x00\n            /* \"Custom-Dex/Erc-20.sol\":787:797  name=name_ */\n          tag_6\n            /* \"Custom-Dex/Erc-20.sol\":792:797  name_ */\n          dup5\n            /* \"Custom-Dex/Erc-20.sol\":787:791  name */\n          dup3\n            /* \"Custom-Dex/Erc-20.sol\":787:797  name=name_ */\n          tag_7\n          jump\t// in\n        tag_6:\n          pop\n            /* \"Custom-Dex/Erc-20.sol\":808:814  symbol */\n          0x01\n            /* \"Custom-Dex/Erc-20.sol\":808:822  symbol=symbol_ */\n          tag_8\n            /* \"Custom-Dex/Erc-20.sol\":815:822  symbol_ */\n          dup4\n            /* \"Custom-Dex/Erc-20.sol\":808:814  symbol */\n          dup3\n            /* \"Custom-Dex/Erc-20.sol\":808:822  symbol=symbol_ */\n          tag_7\n          jump\t// in\n        tag_8:\n          pop\n            /* \"Custom-Dex/Erc-20.sol\":833:845  totalSupply_ */\n          0x03\n            /* \"Custom-Dex/Erc-20.sol\":833:858  totalSupply_=_totalSupply */\n          dup2\n          swap1\n          sstore\n            /* \"Custom-Dex/Erc-20.sol\":878:888  msg.sender */\n          caller\n            /* \"Custom-Dex/Erc-20.sol\":869:889  balances[msg.sender] */\n          0x00\n          dup2\n          dup2\n          mstore\n            /* \"Custom-Dex/Erc-20.sol\":869:877  balances */\n          0x05\n            /* \"Custom-Dex/Erc-20.sol\":869:889  balances[msg.sender] */\n          0x20\n          mstore\n          0x40\n          swap1\n          keccak256\n            /* \"Custom-Dex/Erc-20.sol\":869:903  balances[msg.sender]= totalSupply_ */\n          swap2\n          swap1\n          swap2\n          sstore\n            /* \"Custom-Dex/Erc-20.sol\":914:919  admin */\n          0x04\n            /* \"Custom-Dex/Erc-20.sol\":914:932  admin = msg.sender */\n          dup1\n          sload\n          not(sub(shl(0xa0, 0x01), 0x01))\n          and\n          swap1\n          swap2\n          or\n          swap1\n          sstore\n          pop\n            /* \"Custom-Dex/Erc-20.sol\":362:2686  contract erc20 is IERC20{... */\n          tag_16\n          swap1\n          pop\n          jump\n            /* \"#utility.yul\":14:141   */\n        tag_10:\n            /* \"#utility.yul\":75:85   */\n          0x4e487b71\n            /* \"#utility.yul\":70:73   */\n          0xe0\n            /* \"#utility.yul\":66:86   */\n          shl\n            /* \"#utility.yul\":63:64   */\n          0x00\n            /* \"#utility.yul\":56:87   */\n          mstore\n            /* \"#utility.yul\":106:110   */\n          0x41\n            /* \"#utility.yul\":103:104   */\n          0x04\n            /* \"#utility.yul\":96:111   */\n          mstore\n            /* \"#utility.yul\":130:134   */\n          0x24\n            /* \"#utility.yul\":127:128   */\n          0x00\n            /* \"#utility.yul\":120:135   */\n          revert\n            /* \"#utility.yul\":146:986   */\n        tag_11:\n            /* \"#utility.yul\":200:205   */\n          0x00\n            /* \"#utility.yul\":253:256   */\n          dup3\n            /* \"#utility.yul\":246:250   */\n          0x1f\n            /* \"#utility.yul\":238:244   */\n          dup4\n            /* \"#utility.yul\":234:251   */\n          add\n            /* \"#utility.yul\":230:257   */\n          slt\n            /* \"#utility.yul\":220:275   */\n          tag_19\n          jumpi\n            /* \"#utility.yul\":271:272   */\n          0x00\n            /* \"#utility.yul\":268:269   */\n          dup1\n            /* \"#utility.yul\":261:273   */\n          revert\n            /* \"#utility.yul\":220:275   */\n        tag_19:\n            /* \"#utility.yul\":294:307   */\n          dup2\n          mload\n          sub(shl(0x40, 0x01), 0x01)\n            /* \"#utility.yul\":356:366   */\n          dup1\n          dup3\n          gt\n            /* \"#utility.yul\":353:389   */\n          iszero\n          tag_21\n          jumpi\n            /* \"#utility.yul\":369:387   */\n          tag_21\n          tag_10\n          jump\t// in\n        tag_21:\n            /* \"#utility.yul\":444:446   */\n          0x40\n            /* \"#utility.yul\":438:447   */\n          mload\n            /* \"#utility.yul\":412:414   */\n          0x1f\n            /* \"#utility.yul\":498:511   */\n          dup4\n          add\n          not(0x1f)\n            /* \"#utility.yul\":494:516   */\n          swap1\n          dup2\n          and\n            /* \"#utility.yul\":518:520   */\n          0x3f\n            /* \"#utility.yul\":490:521   */\n          add\n            /* \"#utility.yul\":486:526   */\n          and\n            /* \"#utility.yul\":474:527   */\n          dup2\n          add\n          swap1\n            /* \"#utility.yul\":542:560   */\n          dup3\n          dup3\n          gt\n            /* \"#utility.yul\":562:584   */\n          dup2\n          dup4\n          lt\n            /* \"#utility.yul\":539:585   */\n          or\n            /* \"#utility.yul\":536:608   */\n          iszero\n          tag_23\n          jumpi\n            /* \"#utility.yul\":588:606   */\n          tag_23\n          tag_10\n          jump\t// in\n        tag_23:\n            /* \"#utility.yul\":628:638   */\n          dup2\n            /* \"#utility.yul\":624:626   */\n          0x40\n            /* \"#utility.yul\":617:639   */\n          mstore\n            /* \"#utility.yul\":663:665   */\n          dup4\n            /* \"#utility.yul\":655:661   */\n          dup2\n            /* \"#utility.yul\":648:666   */\n          mstore\n            /* \"#utility.yul\":685:689   */\n          0x20\n            /* \"#utility.yul\":675:689   */\n          swap3\n          pop\n            /* \"#utility.yul\":730:733   */\n          dup7\n            /* \"#utility.yul\":725:727   */\n          dup4\n            /* \"#utility.yul\":720:722   */\n          dup6\n            /* \"#utility.yul\":712:718   */\n          dup9\n            /* \"#utility.yul\":708:723   */\n          add\n            /* \"#utility.yul\":704:728   */\n          add\n            /* \"#utility.yul\":701:734   */\n          gt\n            /* \"#utility.yul\":698:751   */\n          iszero\n          tag_24\n          jumpi\n            /* \"#utility.yul\":747:748   */\n          0x00\n            /* \"#utility.yul\":744:745   */\n          dup1\n            /* \"#utility.yul\":737:749   */\n          revert\n            /* \"#utility.yul\":698:751   */\n        tag_24:\n            /* \"#utility.yul\":769:770   */\n          0x00\n            /* \"#utility.yul\":760:770   */\n          swap2\n          pop\n            /* \"#utility.yul\":779:912   */\n        tag_25:\n            /* \"#utility.yul\":793:795   */\n          dup4\n            /* \"#utility.yul\":790:791   */\n          dup3\n            /* \"#utility.yul\":787:796   */\n          lt\n            /* \"#utility.yul\":779:912   */\n          iszero\n          tag_27\n          jumpi\n            /* \"#utility.yul\":881:895   */\n          dup6\n          dup3\n          add\n            /* \"#utility.yul\":877:900   */\n          dup4\n          add\n            /* \"#utility.yul\":871:901   */\n          mload\n            /* \"#utility.yul\":850:864   */\n          dup2\n          dup4\n          add\n            /* \"#utility.yul\":846:869   */\n          dup5\n          add\n            /* \"#utility.yul\":839:902   */\n          mstore\n            /* \"#utility.yul\":804:814   */\n          swap1\n          dup3\n          add\n          swap1\n            /* \"#utility.yul\":779:912   */\n          jump(tag_25)\n        tag_27:\n            /* \"#utility.yul\":954:955   */\n          0x00\n            /* \"#utility.yul\":932:947   */\n          swap4\n          dup2\n          add\n            /* \"#utility.yul\":928:952   */\n          swap1\n          swap3\n          add\n            /* \"#utility.yul\":921:956   */\n          swap3\n          swap1\n          swap3\n          mstore\n            /* \"#utility.yul\":936:942   */\n          swap5\n            /* \"#utility.yul\":146:986   */\n          swap4\n          pop\n          pop\n          pop\n          pop\n          jump\t// out\n            /* \"#utility.yul\":991:1614   */\n        tag_3:\n            /* \"#utility.yul\":1099:1105   */\n          0x00\n            /* \"#utility.yul\":1107:1113   */\n          dup1\n            /* \"#utility.yul\":1115:1121   */\n          0x00\n            /* \"#utility.yul\":1168:1170   */\n          0x60\n            /* \"#utility.yul\":1156:1165   */\n          dup5\n            /* \"#utility.yul\":1147:1154   */\n          dup7\n            /* \"#utility.yul\":1143:1166   */\n          sub\n            /* \"#utility.yul\":1139:1171   */\n          slt\n            /* \"#utility.yul\":1136:1188   */\n          iszero\n          tag_29\n          jumpi\n            /* \"#utility.yul\":1184:1185   */\n          0x00\n            /* \"#utility.yul\":1181:1182   */\n          dup1\n            /* \"#utility.yul\":1174:1186   */\n          revert\n            /* \"#utility.yul\":1136:1188   */\n        tag_29:\n            /* \"#utility.yul\":1211:1227   */\n          dup4\n          mload\n          sub(shl(0x40, 0x01), 0x01)\n            /* \"#utility.yul\":1276:1290   */\n          dup1\n          dup3\n          gt\n            /* \"#utility.yul\":1273:1307   */\n          iszero\n          tag_30\n          jumpi\n            /* \"#utility.yul\":1303:1304   */\n          0x00\n            /* \"#utility.yul\":1300:1301   */\n          dup1\n            /* \"#utility.yul\":1293:1305   */\n          revert\n            /* \"#utility.yul\":1273:1307   */\n        tag_30:\n            /* \"#utility.yul\":1326:1387   */\n          tag_31\n            /* \"#utility.yul\":1379:1386   */\n          dup8\n            /* \"#utility.yul\":1370:1376   */\n          dup4\n            /* \"#utility.yul\":1359:1368   */\n          dup9\n            /* \"#utility.yul\":1355:1377   */\n          add\n            /* \"#utility.yul\":1326:1387   */\n          tag_11\n          jump\t// in\n        tag_31:\n            /* \"#utility.yul\":1316:1387   */\n          swap5\n          pop\n            /* \"#utility.yul\":1433:1435   */\n          0x20\n            /* \"#utility.yul\":1422:1431   */\n          dup7\n            /* \"#utility.yul\":1418:1436   */\n          add\n            /* \"#utility.yul\":1412:1437   */\n          mload\n            /* \"#utility.yul\":1396:1437   */\n          swap2\n          pop\n            /* \"#utility.yul\":1462:1464   */\n          dup1\n            /* \"#utility.yul\":1452:1460   */\n          dup3\n            /* \"#utility.yul\":1449:1465   */\n          gt\n            /* \"#utility.yul\":1446:1482   */\n          iszero\n          tag_32\n          jumpi\n            /* \"#utility.yul\":1478:1479   */\n          0x00\n            /* \"#utility.yul\":1475:1476   */\n          dup1\n            /* \"#utility.yul\":1468:1480   */\n          revert\n            /* \"#utility.yul\":1446:1482   */\n        tag_32:\n          pop\n            /* \"#utility.yul\":1501:1564   */\n          tag_33\n            /* \"#utility.yul\":1556:1563   */\n          dup7\n            /* \"#utility.yul\":1545:1553   */\n          dup3\n            /* \"#utility.yul\":1534:1543   */\n          dup8\n            /* \"#utility.yul\":1530:1554   */\n          add\n            /* \"#utility.yul\":1501:1564   */\n          tag_11\n          jump\t// in\n        tag_33:\n            /* \"#utility.yul\":1491:1564   */\n          swap3\n          pop\n          pop\n            /* \"#utility.yul\":1604:1606   */\n          0x40\n            /* \"#utility.yul\":1593:1602   */\n          dup5\n            /* \"#utility.yul\":1589:1607   */\n          add\n            /* \"#utility.yul\":1583:1608   */\n          mload\n            /* \"#utility.yul\":1573:1608   */\n          swap1\n          pop\n            /* \"#utility.yul\":991:1614   */\n          swap3\n          pop\n          swap3\n          pop\n          swap3\n          jump\t// out\n            /* \"#utility.yul\":1619:1999   */\n        tag_12:\n            /* \"#utility.yul\":1698:1699   */\n          0x01\n            /* \"#utility.yul\":1694:1706   */\n          dup2\n          dup2\n          shr\n          swap1\n            /* \"#utility.yul\":1741:1753   */\n          dup3\n          and\n          dup1\n            /* \"#utility.yul\":1762:1823   */\n          tag_35\n          jumpi\n            /* \"#utility.yul\":1816:1820   */\n          0x7f\n            /* \"#utility.yul\":1808:1814   */\n          dup3\n            /* \"#utility.yul\":1804:1821   */\n          and\n            /* \"#utility.yul\":1794:1821   */\n          swap2\n          pop\n            /* \"#utility.yul\":1762:1823   */\n        tag_35:\n            /* \"#utility.yul\":1869:1871   */\n          0x20\n            /* \"#utility.yul\":1861:1867   */\n          dup3\n            /* \"#utility.yul\":1858:1872   */\n          lt\n            /* \"#utility.yul\":1838:1856   */\n          dup2\n            /* \"#utility.yul\":1835:1873   */\n          sub\n            /* \"#utility.yul\":1832:1993   */\n          tag_36\n          jumpi\n            /* \"#utility.yul\":1915:1925   */\n          0x4e487b71\n            /* \"#utility.yul\":1910:1913   */\n          0xe0\n            /* \"#utility.yul\":1906:1926   */\n          shl\n            /* \"#utility.yul\":1903:1904   */\n          0x00\n            /* \"#utility.yul\":1896:1927   */\n          mstore\n            /* \"#utility.yul\":1950:1954   */\n          0x22\n            /* \"#utility.yul\":1947:1948   */\n          0x04\n            /* \"#utility.yul\":1940:1955   */\n          mstore\n            /* \"#utility.yul\":1978:1982   */\n          0x24\n            /* \"#utility.yul\":1975:1976   */\n          0x00\n            /* \"#utility.yul\":1968:1983   */\n          revert\n            /* \"#utility.yul\":1832:1993   */\n        tag_36:\n          pop\n            /* \"#utility.yul\":1619:1999   */\n          swap2\n          swap1\n          pop\n          jump\t// out\n            /* \"#utility.yul\":2130:2675   */\n        tag_14:\n            /* \"#utility.yul\":2232:2234   */\n          0x1f\n            /* \"#utility.yul\":2227:2230   */\n          dup3\n            /* \"#utility.yul\":2224:2235   */\n          gt\n            /* \"#utility.yul\":2221:2669   */\n          iszero\n          tag_39\n          jumpi\n            /* \"#utility.yul\":2268:2269   */\n          0x00\n            /* \"#utility.yul\":2293:2298   */\n          dup2\n            /* \"#utility.yul\":2289:2291   */\n          dup2\n            /* \"#utility.yul\":2282:2299   */\n          mstore\n            /* \"#utility.yul\":2338:2342   */\n          0x20\n            /* \"#utility.yul\":2334:2336   */\n          dup2\n            /* \"#utility.yul\":2324:2343   */\n          keccak256\n            /* \"#utility.yul\":2408:2410   */\n          0x1f\n            /* \"#utility.yul\":2396:2406   */\n          dup6\n            /* \"#utility.yul\":2392:2411   */\n          add\n            /* \"#utility.yul\":2389:2390   */\n          0x05\n            /* \"#utility.yul\":2385:2412   */\n          shr\n            /* \"#utility.yul\":2379:2383   */\n          dup2\n            /* \"#utility.yul\":2375:2413   */\n          add\n            /* \"#utility.yul\":2444:2448   */\n          0x20\n            /* \"#utility.yul\":2432:2442   */\n          dup7\n            /* \"#utility.yul\":2429:2449   */\n          lt\n            /* \"#utility.yul\":2426:2473   */\n          iszero\n          tag_40\n          jumpi\n          pop\n            /* \"#utility.yul\":2467:2471   */\n          dup1\n            /* \"#utility.yul\":2426:2473   */\n        tag_40:\n            /* \"#utility.yul\":2522:2524   */\n          0x1f\n            /* \"#utility.yul\":2517:2520   */\n          dup6\n            /* \"#utility.yul\":2513:2525   */\n          add\n            /* \"#utility.yul\":2510:2511   */\n          0x05\n            /* \"#utility.yul\":2506:2526   */\n          shr\n            /* \"#utility.yul\":2500:2504   */\n          dup3\n            /* \"#utility.yul\":2496:2527   */\n          add\n            /* \"#utility.yul\":2486:2527   */\n          swap2\n          pop\n            /* \"#utility.yul\":2577:2659   */\n        tag_41:\n            /* \"#utility.yul\":2595:2597   */\n          dup2\n            /* \"#utility.yul\":2588:2593   */\n          dup2\n            /* \"#utility.yul\":2585:2598   */\n          lt\n            /* \"#utility.yul\":2577:2659   */\n          iszero\n          tag_43\n          jumpi\n            /* \"#utility.yul\":2640:2657   */\n          dup3\n          dup2\n          sstore\n            /* \"#utility.yul\":2621:2622   */\n          0x01\n            /* \"#utility.yul\":2610:2623   */\n          add\n            /* \"#utility.yul\":2577:2659   */\n          jump(tag_41)\n        tag_43:\n            /* \"#utility.yul\":2581:2584   */\n          pop\n          pop\n          pop\n            /* \"#utility.yul\":2221:2669   */\n        tag_39:\n            /* \"#utility.yul\":2130:2675   */\n          pop\n          pop\n          pop\n          jump\t// out\n            /* \"#utility.yul\":2851:4203   */\n        tag_7:\n            /* \"#utility.yul\":2971:2981   */\n          dup2\n          mload\n          sub(shl(0x40, 0x01), 0x01)\n            /* \"#utility.yul\":2993:3023   */\n          dup2\n          gt\n            /* \"#utility.yul\":2990:3046   */\n          iszero\n          tag_47\n          jumpi\n            /* \"#utility.yul\":3026:3044   */\n          tag_47\n          tag_10\n          jump\t// in\n        tag_47:\n            /* \"#utility.yul\":3055:3152   */\n          tag_48\n            /* \"#utility.yul\":3145:3151   */\n          dup2\n            /* \"#utility.yul\":3105:3143   */\n          tag_49\n            /* \"#utility.yul\":3137:3141   */\n          dup5\n            /* \"#utility.yul\":3131:3142   */\n          sload\n            /* \"#utility.yul\":3105:3143   */\n          tag_12\n          jump\t// in\n        tag_49:\n            /* \"#utility.yul\":3099:3103   */\n          dup5\n            /* \"#utility.yul\":3055:3152   */\n          tag_14\n          jump\t// in\n        tag_48:\n            /* \"#utility.yul\":3207:3211   */\n          0x20\n          dup1\n            /* \"#utility.yul\":3271:3273   */\n          0x1f\n            /* \"#utility.yul\":3260:3274   */\n          dup4\n          gt\n            /* \"#utility.yul\":3288:3289   */\n          0x01\n            /* \"#utility.yul\":3283:3946   */\n          dup2\n          eq\n          tag_51\n          jumpi\n            /* \"#utility.yul\":3990:3991   */\n          0x00\n            /* \"#utility.yul\":4007:4013   */\n          dup5\n            /* \"#utility.yul\":4004:4093   */\n          iszero\n          tag_52\n          jumpi\n          pop\n            /* \"#utility.yul\":4059:4078   */\n          dup6\n          dup4\n          add\n            /* \"#utility.yul\":4053:4079   */\n          mload\n            /* \"#utility.yul\":4004:4093   */\n        tag_52:\n          not(0x00)\n            /* \"#utility.yul\":2808:2809   */\n          0x03\n            /* \"#utility.yul\":2804:2815   */\n          dup7\n          swap1\n          shl\n            /* \"#utility.yul\":2800:2824   */\n          shr\n            /* \"#utility.yul\":2796:2825   */\n          not\n            /* \"#utility.yul\":2786:2826   */\n          and\n            /* \"#utility.yul\":2832:2833   */\n          0x01\n            /* \"#utility.yul\":2828:2839   */\n          dup6\n          swap1\n          shl\n            /* \"#utility.yul\":2783:2840   */\n          or\n            /* \"#utility.yul\":4106:4187   */\n          dup6\n          sstore\n            /* \"#utility.yul\":3253:4197   */\n          jump(tag_43)\n            /* \"#utility.yul\":3283:3946   */\n        tag_51:\n            /* \"#utility.yul\":2077:2078   */\n          0x00\n            /* \"#utility.yul\":2070:2084   */\n          dup6\n          dup2\n          mstore\n            /* \"#utility.yul\":2114:2118   */\n          0x20\n            /* \"#utility.yul\":2101:2119   */\n          dup2\n          keccak256\n          not(0x1f)\n            /* \"#utility.yul\":3319:3339   */\n          dup7\n          and\n          swap2\n            /* \"#utility.yul\":3437:3673   */\n        tag_55:\n            /* \"#utility.yul\":3451:3458   */\n          dup3\n            /* \"#utility.yul\":3448:3449   */\n          dup2\n            /* \"#utility.yul\":3445:3459   */\n          lt\n            /* \"#utility.yul\":3437:3673   */\n          iszero\n          tag_57\n          jumpi\n            /* \"#utility.yul\":3540:3559   */\n          dup9\n          dup7\n          add\n            /* \"#utility.yul\":3534:3560   */\n          mload\n            /* \"#utility.yul\":3519:3561   */\n          dup3\n          sstore\n            /* \"#utility.yul\":3632:3659   */\n          swap5\n          dup5\n          add\n          swap5\n            /* \"#utility.yul\":3600:3601   */\n          0x01\n            /* \"#utility.yul\":3588:3602   */\n          swap1\n          swap2\n          add\n          swap1\n            /* \"#utility.yul\":3467:3486   */\n          dup5\n          add\n            /* \"#utility.yul\":3437:3673   */\n          jump(tag_55)\n        tag_57:\n            /* \"#utility.yul\":3441:3444   */\n          pop\n            /* \"#utility.yul\":3701:3707   */\n          dup6\n            /* \"#utility.yul\":3692:3699   */\n          dup3\n            /* \"#utility.yul\":3689:3708   */\n          lt\n            /* \"#utility.yul\":3686:3887   */\n          iszero\n          tag_58\n          jumpi\n            /* \"#utility.yul\":3762:3781   */\n          dup8\n          dup6\n          add\n            /* \"#utility.yul\":3756:3782   */\n          mload\n          not(0x00)\n            /* \"#utility.yul\":3845:3846   */\n          0x03\n            /* \"#utility.yul\":3841:3855   */\n          dup9\n          swap1\n          shl\n            /* \"#utility.yul\":3857:3860   */\n          0xf8\n            /* \"#utility.yul\":3837:3861   */\n          and\n            /* \"#utility.yul\":3833:3870   */\n          shr\n            /* \"#utility.yul\":3829:3871   */\n          not\n            /* \"#utility.yul\":3814:3872   */\n          and\n            /* \"#utility.yul\":3799:3873   */\n          dup2\n          sstore\n            /* \"#utility.yul\":3686:3887   */\n        tag_58:\n          pop\n          pop\n          pop\n          pop\n          pop\n            /* \"#utility.yul\":3933:3934   */\n          0x01\n            /* \"#utility.yul\":3917:3931   */\n          swap1\n          dup2\n          shl\n            /* \"#utility.yul\":3913:3935   */\n          add\n            /* \"#utility.yul\":3900:3936   */\n          swap1\n          sstore\n          pop\n            /* \"#utility.yul\":2851:4203   */\n          jump\t// out\n        tag_16:\n            /* \"Custom-Dex/Erc-20.sol\":362:2686  contract erc20 is IERC20{... */\n          dataSize(sub_0)\n          dup1\n          dataOffset(sub_0)\n          0x00\n          codecopy\n          0x00\n          return\n        stop\n\n        sub_0: assembly {\n                /* \"Custom-Dex/Erc-20.sol\":362:2686  contract erc20 is IERC20{... */\n              mstore(0x40, 0x80)\n              callvalue\n              dup1\n              iszero\n              tag_1\n              jumpi\n              0x00\n              dup1\n              revert\n            tag_1:\n              pop\n              jumpi(tag_2, lt(calldatasize, 0x04))\n              shr(0xe0, calldataload(0x00))\n              dup1\n              0x70a08231\n              gt\n              tag_14\n              jumpi\n              dup1\n              0x70a08231\n              eq\n              tag_8\n              jumpi\n              dup1\n              0x95d89b41\n              eq\n              tag_9\n              jumpi\n              dup1\n              0xa0712d68\n              eq\n              tag_10\n              jumpi\n              dup1\n              0xa9059cbb\n              eq\n              tag_11\n              jumpi\n              dup1\n              0xdd62ed3e\n              eq\n              tag_12\n              jumpi\n              dup1\n              0xe1f21c67\n              eq\n              tag_13\n              jumpi\n              0x00\n              dup1\n              revert\n            tag_14:\n              dup1\n              0x06fdde03\n              eq\n              tag_3\n              jumpi\n              dup1\n              0x18160ddd\n              eq\n              tag_4\n              jumpi\n              dup1\n              0x23b872dd\n              eq\n              tag_5\n              jumpi\n              dup1\n              0x313ce567\n              eq\n              tag_6\n              jumpi\n              dup1\n              0x42966c68\n              eq\n              tag_7\n              jumpi\n            tag_2:\n              0x00\n              dup1\n              revert\n                /* \"Custom-Dex/Erc-20.sol\":392:411  string public  name */\n            tag_3:\n              tag_15\n              tag_16\n              jump\t// in\n            tag_15:\n              mload(0x40)\n              tag_17\n              swap2\n              swap1\n              tag_18\n              jump\t// in\n            tag_17:\n              mload(0x40)\n              dup1\n              swap2\n              sub\n              swap1\n              return\n                /* \"Custom-Dex/Erc-20.sol\":945:1038  function totalSupply() public override view returns(uint){... */\n            tag_4:\n                /* \"Custom-Dex/Erc-20.sol\":1019:1031  totalSupply_ */\n              sload(0x03)\n                /* \"Custom-Dex/Erc-20.sol\":945:1038  function totalSupply() public override view returns(uint){... */\n            tag_19:\n              mload(0x40)\n                /* \"#utility.yul\":713:738   */\n              swap1\n              dup2\n              mstore\n                /* \"#utility.yul\":701:703   */\n              0x20\n                /* \"#utility.yul\":686:704   */\n              add\n                /* \"Custom-Dex/Erc-20.sol\":945:1038  function totalSupply() public override view returns(uint){... */\n              tag_17\n                /* \"#utility.yul\":567:744   */\n              jump\n                /* \"Custom-Dex/Erc-20.sol\":2309:2684  function transferFrom(address _from,address _to,uint _value) public returns (bool){... */\n            tag_5:\n              tag_23\n              tag_24\n              calldatasize\n              0x04\n              tag_25\n              jump\t// in\n            tag_24:\n              tag_26\n              jump\t// in\n            tag_23:\n              mload(0x40)\n                /* \"#utility.yul\":1425:1439   */\n              swap1\n              iszero\n                /* \"#utility.yul\":1418:1440   */\n              iszero\n                /* \"#utility.yul\":1400:1441   */\n              dup2\n              mstore\n                /* \"#utility.yul\":1388:1390   */\n              0x20\n                /* \"#utility.yul\":1373:1391   */\n              add\n                /* \"Custom-Dex/Erc-20.sol\":2309:2684  function transferFrom(address _from,address _to,uint _value) public returns (bool){... */\n              tag_17\n                /* \"#utility.yul\":1260:1447   */\n              jump\n                /* \"Custom-Dex/Erc-20.sol\":443:468  uint public  decimals =18 */\n            tag_6:\n              tag_19\n              sload(0x02)\n              dup2\n              jump\n                /* \"Custom-Dex/Erc-20.sol\":1753:1914  function burn(uint _qty) public  onlyAdmin returns(uint){... */\n            tag_7:\n              tag_19\n              tag_33\n              calldatasize\n              0x04\n              tag_34\n              jump\t// in\n            tag_33:\n              tag_35\n              jump\t// in\n                /* \"Custom-Dex/Erc-20.sol\":1044:1161  function balanceOf(address tokenOwner) public override view returns(uint){... */\n            tag_8:\n              tag_19\n              tag_38\n              calldatasize\n              0x04\n              tag_39\n              jump\t// in\n            tag_38:\n              sub(shl(0xa0, 0x01), 0x01)\n                /* \"Custom-Dex/Erc-20.sol\":1134:1154  balances[tokenOwner] */\n              and\n                /* \"Custom-Dex/Erc-20.sol\":1112:1116  uint */\n              0x00\n                /* \"Custom-Dex/Erc-20.sol\":1134:1154  balances[tokenOwner] */\n              swap1\n              dup2\n              mstore\n                /* \"Custom-Dex/Erc-20.sol\":1134:1142  balances */\n              0x05\n                /* \"Custom-Dex/Erc-20.sol\":1134:1154  balances[tokenOwner] */\n              0x20\n              mstore\n              0x40\n              swap1\n              keccak256\n              sload\n              swap1\n                /* \"Custom-Dex/Erc-20.sol\":1044:1161  function balanceOf(address tokenOwner) public override view returns(uint){... */\n              jump\n                /* \"Custom-Dex/Erc-20.sol\":417:437  string public symbol */\n            tag_9:\n              tag_15\n              tag_43\n              jump\t// in\n                /* \"Custom-Dex/Erc-20.sol\":1587:1747  function mint(uint _qty) public  onlyAdmin returns(uint){... */\n            tag_10:\n              tag_19\n              tag_46\n              calldatasize\n              0x04\n              tag_34\n              jump\t// in\n            tag_46:\n              tag_47\n              jump\t// in\n                /* \"Custom-Dex/Erc-20.sol\":1167:1464  function transfer(address receiver,uint numTokens) public override returns(bool){... */\n            tag_11:\n              tag_23\n              tag_50\n              calldatasize\n              0x04\n              tag_51\n              jump\t// in\n            tag_50:\n              tag_52\n              jump\t// in\n                /* \"Custom-Dex/Erc-20.sol\":1920:2046  function allowance(address _owner,address _spender) public view returns(uint){... */\n            tag_12:\n              tag_19\n              tag_55\n              calldatasize\n              0x04\n              tag_56\n              jump\t// in\n            tag_55:\n              sub(shl(0xa0, 0x01), 0x01)\n                /* \"Custom-Dex/Erc-20.sol\":2014:2029  allowed[_owner] */\n              swap2\n              dup3\n              and\n                /* \"Custom-Dex/Erc-20.sol\":1992:1996  uint */\n              0x00\n                /* \"Custom-Dex/Erc-20.sol\":2014:2029  allowed[_owner] */\n              swap1\n              dup2\n              mstore\n                /* \"Custom-Dex/Erc-20.sol\":2014:2021  allowed */\n              0x06\n                /* \"Custom-Dex/Erc-20.sol\":2014:2029  allowed[_owner] */\n              0x20\n              swap1\n              dup2\n              mstore\n              0x40\n              dup1\n              dup4\n              keccak256\n                /* \"Custom-Dex/Erc-20.sol\":2014:2039  allowed[_owner][_spender] */\n              swap4\n              swap1\n              swap5\n              and\n              dup3\n              mstore\n              swap2\n              swap1\n              swap2\n              mstore\n              keccak256\n              sload\n              swap1\n                /* \"Custom-Dex/Erc-20.sol\":1920:2046  function allowance(address _owner,address _spender) public view returns(uint){... */\n              jump\n                /* \"Custom-Dex/Erc-20.sol\":2052:2253  function approve(address _owner, address _spender,uint _value) public returns(bool){... */\n            tag_13:\n              tag_23\n              tag_60\n              calldatasize\n              0x04\n              tag_25\n              jump\t// in\n            tag_60:\n              tag_61\n              jump\t// in\n                /* \"Custom-Dex/Erc-20.sol\":392:411  string public  name */\n            tag_16:\n              0x00\n              dup1\n              sload\n              tag_63\n              swap1\n              tag_64\n              jump\t// in\n            tag_63:\n              dup1\n              0x1f\n              add\n              0x20\n              dup1\n              swap2\n              div\n              mul\n              0x20\n              add\n              mload(0x40)\n              swap1\n              dup2\n              add\n              0x40\n              mstore\n              dup1\n              swap3\n              swap2\n              swap1\n              dup2\n              dup2\n              mstore\n              0x20\n              add\n              dup3\n              dup1\n              sload\n              tag_65\n              swap1\n              tag_64\n              jump\t// in\n            tag_65:\n              dup1\n              iszero\n              tag_66\n              jumpi\n              dup1\n              0x1f\n              lt\n              tag_67\n              jumpi\n              0x0100\n              dup1\n              dup4\n              sload\n              div\n              mul\n              dup4\n              mstore\n              swap2\n              0x20\n              add\n              swap2\n              jump(tag_66)\n            tag_67:\n              dup3\n              add\n              swap2\n              swap1\n              0x00\n              mstore\n              keccak256(0x00, 0x20)\n              swap1\n            tag_68:\n              dup2\n              sload\n              dup2\n              mstore\n              swap1\n              0x01\n              add\n              swap1\n              0x20\n              add\n              dup1\n              dup4\n              gt\n              tag_68\n              jumpi\n              dup3\n              swap1\n              sub\n              0x1f\n              and\n              dup3\n              add\n              swap2\n            tag_66:\n              pop\n              pop\n              pop\n              pop\n              pop\n              dup2\n              jump\t// out\n                /* \"Custom-Dex/Erc-20.sol\":2309:2684  function transferFrom(address _from,address _to,uint _value) public returns (bool){... */\n            tag_26:\n              sub(shl(0xa0, 0x01), 0x01)\n                /* \"Custom-Dex/Erc-20.sol\":2414:2428  allowed[_from] */\n              dup4\n              and\n                /* \"Custom-Dex/Erc-20.sol\":2386:2390  bool */\n              0x00\n                /* \"Custom-Dex/Erc-20.sol\":2414:2428  allowed[_from] */\n              dup2\n              dup2\n              mstore\n                /* \"Custom-Dex/Erc-20.sol\":2414:2421  allowed */\n              0x06\n                /* \"Custom-Dex/Erc-20.sol\":2414:2428  allowed[_from] */\n              0x20\n              swap1\n              dup2\n              mstore\n              0x40\n              dup1\n              dup4\n              keccak256\n                /* \"Custom-Dex/Erc-20.sol\":2429:2439  msg.sender */\n              caller\n                /* \"Custom-Dex/Erc-20.sol\":2414:2440  allowed[_from][msg.sender] */\n              dup5\n              mstore\n              dup3\n              mstore\n              dup1\n              dup4\n              keccak256\n              sload\n                /* \"Custom-Dex/Erc-20.sol\":2458:2473  balances[_from] */\n              swap4\n              dup4\n              mstore\n                /* \"Custom-Dex/Erc-20.sol\":2458:2466  balances */\n              0x05\n                /* \"Custom-Dex/Erc-20.sol\":2458:2473  balances[_from] */\n              swap1\n              swap2\n              mstore\n              dup2\n              keccak256\n              sload\n                /* \"Custom-Dex/Erc-20.sol\":2386:2390  bool */\n              swap1\n              swap2\n                /* \"Custom-Dex/Erc-20.sol\":2414:2440  allowed[_from][msg.sender] */\n              swap1\n                /* \"Custom-Dex/Erc-20.sol\":2458:2481  balances[_from]>=_value */\n              dup4\n              gt\n              dup1\n              iszero\n              swap1\n                /* \"Custom-Dex/Erc-20.sol\":2458:2498  balances[_from]>=_value && allow>=_value */\n              tag_71\n              jumpi\n              pop\n                /* \"Custom-Dex/Erc-20.sol\":2492:2498  _value */\n              dup3\n                /* \"Custom-Dex/Erc-20.sol\":2485:2490  allow */\n              dup2\n                /* \"Custom-Dex/Erc-20.sol\":2485:2498  allow>=_value */\n              lt\n              iszero\n                /* \"Custom-Dex/Erc-20.sol\":2458:2498  balances[_from]>=_value && allow>=_value */\n            tag_71:\n                /* \"Custom-Dex/Erc-20.sol\":2450:2499  require(balances[_from]>=_value && allow>=_value) */\n              tag_72\n              jumpi\n              0x00\n              dup1\n              revert\n            tag_72:\n              sub(shl(0xa0, 0x01), 0x01)\n                /* \"Custom-Dex/Erc-20.sol\":2509:2522  balances[_to] */\n              dup5\n              and\n              0x00\n              swap1\n              dup2\n              mstore\n                /* \"Custom-Dex/Erc-20.sol\":2509:2517  balances */\n              0x05\n                /* \"Custom-Dex/Erc-20.sol\":2509:2522  balances[_to] */\n              0x20\n              mstore\n              0x40\n              dup2\n              keccak256\n                /* \"Custom-Dex/Erc-20.sol\":2509:2532  balances[_to] += _value */\n              dup1\n              sload\n                /* \"Custom-Dex/Erc-20.sol\":2526:2532  _value */\n              dup6\n              swap3\n                /* \"Custom-Dex/Erc-20.sol\":2509:2522  balances[_to] */\n              swap1\n                /* \"Custom-Dex/Erc-20.sol\":2509:2532  balances[_to] += _value */\n              tag_73\n              swap1\n                /* \"Custom-Dex/Erc-20.sol\":2526:2532  _value */\n              dup5\n              swap1\n                /* \"Custom-Dex/Erc-20.sol\":2509:2532  balances[_to] += _value */\n              tag_74\n              jump\t// in\n            tag_73:\n              swap1\n              swap2\n              sstore\n              pop\n              pop\n              sub(shl(0xa0, 0x01), 0x01)\n                /* \"Custom-Dex/Erc-20.sol\":2542:2557  balances[_from] */\n              dup6\n              and\n              0x00\n              swap1\n              dup2\n              mstore\n                /* \"Custom-Dex/Erc-20.sol\":2542:2550  balances */\n              0x05\n                /* \"Custom-Dex/Erc-20.sol\":2542:2557  balances[_from] */\n              0x20\n              mstore\n              0x40\n              dup2\n              keccak256\n                /* \"Custom-Dex/Erc-20.sol\":2542:2567  balances[_from] -= _value */\n              dup1\n              sload\n                /* \"Custom-Dex/Erc-20.sol\":2561:2567  _value */\n              dup6\n              swap3\n                /* \"Custom-Dex/Erc-20.sol\":2542:2557  balances[_from] */\n              swap1\n                /* \"Custom-Dex/Erc-20.sol\":2542:2567  balances[_from] -= _value */\n              tag_75\n              swap1\n                /* \"Custom-Dex/Erc-20.sol\":2561:2567  _value */\n              dup5\n              swap1\n                /* \"Custom-Dex/Erc-20.sol\":2542:2567  balances[_from] -= _value */\n              tag_76\n              jump\t// in\n            tag_75:\n              swap1\n              swap2\n              sstore\n              pop\n              pop\n              sub(shl(0xa0, 0x01), 0x01)\n                /* \"Custom-Dex/Erc-20.sol\":2577:2591  allowed[_from] */\n              dup6\n              and\n              0x00\n              swap1\n              dup2\n              mstore\n                /* \"Custom-Dex/Erc-20.sol\":2577:2584  allowed */\n              0x06\n                /* \"Custom-Dex/Erc-20.sol\":2577:2591  allowed[_from] */\n              0x20\n              swap1\n              dup2\n              mstore\n              0x40\n              dup1\n              dup4\n              keccak256\n                /* \"Custom-Dex/Erc-20.sol\":2592:2602  msg.sender */\n              caller\n                /* \"Custom-Dex/Erc-20.sol\":2577:2603  allowed[_from][msg.sender] */\n              dup5\n              mstore\n              swap1\n              swap2\n              mstore\n              dup2\n              keccak256\n                /* \"Custom-Dex/Erc-20.sol\":2577:2612  allowed[_from][msg.sender] -=_value */\n              dup1\n              sload\n                /* \"Custom-Dex/Erc-20.sol\":2606:2612  _value */\n              dup6\n              swap3\n                /* \"Custom-Dex/Erc-20.sol\":2577:2591  allowed[_from] */\n              swap1\n                /* \"Custom-Dex/Erc-20.sol\":2577:2612  allowed[_from][msg.sender] -=_value */\n              tag_77\n              swap1\n                /* \"Custom-Dex/Erc-20.sol\":2606:2612  _value */\n              dup5\n              swap1\n                /* \"Custom-Dex/Erc-20.sol\":2577:2612  allowed[_from][msg.sender] -=_value */\n              tag_76\n              jump\t// in\n            tag_77:\n              swap3\n              pop\n              pop\n              dup2\n              swap1\n              sstore\n              pop\n                /* \"Custom-Dex/Erc-20.sol\":2644:2647  _to */\n              dup4\n              sub(shl(0xa0, 0x01), 0x01)\n                /* \"Custom-Dex/Erc-20.sol\":2629:2655  Transfer(_from,_to,_value) */\n              and\n                /* \"Custom-Dex/Erc-20.sol\":2638:2643  _from */\n              dup6\n              sub(shl(0xa0, 0x01), 0x01)\n                /* \"Custom-Dex/Erc-20.sol\":2629:2655  Transfer(_from,_to,_value) */\n              and\n              0xddf252ad1be2c89b69c2b068fc378daa952ba7f163c4a11628f55a4df523b3ef\n                /* \"Custom-Dex/Erc-20.sol\":2648:2654  _value */\n              dup6\n                /* \"Custom-Dex/Erc-20.sol\":2629:2655  Transfer(_from,_to,_value) */\n              mload(0x40)\n              tag_78\n              swap2\n                /* \"#utility.yul\":713:738   */\n              dup2\n              mstore\n                /* \"#utility.yul\":701:703   */\n              0x20\n                /* \"#utility.yul\":686:704   */\n              add\n              swap1\n                /* \"#utility.yul\":567:744   */\n              jump\n                /* \"Custom-Dex/Erc-20.sol\":2629:2655  Transfer(_from,_to,_value) */\n            tag_78:\n              mload(0x40)\n              dup1\n              swap2\n              sub\n              swap1\n              log3\n              pop\n                /* \"Custom-Dex/Erc-20.sol\":2673:2677  true */\n              0x01\n              swap5\n                /* \"Custom-Dex/Erc-20.sol\":2309:2684  function transferFrom(address _from,address _to,uint _value) public returns (bool){... */\n              swap4\n              pop\n              pop\n              pop\n              pop\n              jump\t// out\n                /* \"Custom-Dex/Erc-20.sol\":1753:1914  function burn(uint _qty) public  onlyAdmin returns(uint){... */\n            tag_35:\n                /* \"Custom-Dex/Erc-20.sol\":1520:1525  admin */\n              sload(0x04)\n                /* \"Custom-Dex/Erc-20.sol\":1804:1808  uint */\n              0x00\n              swap1\n              sub(shl(0xa0, 0x01), 0x01)\n                /* \"Custom-Dex/Erc-20.sol\":1520:1525  admin */\n              and\n                /* \"Custom-Dex/Erc-20.sol\":1506:1516  msg.sender */\n              caller\n                /* \"Custom-Dex/Erc-20.sol\":1506:1525  msg.sender == admin */\n              eq\n                /* \"Custom-Dex/Erc-20.sol\":1498:1563  require(msg.sender == admin , \"only admin can run this function\") */\n              tag_80\n              jumpi\n              mload(0x40)\n              shl(0xe5, 0x461bcd)\n              dup2\n              mstore\n                /* \"#utility.yul\":3334:3336   */\n              0x20\n                /* \"Custom-Dex/Erc-20.sol\":1498:1563  require(msg.sender == admin , \"only admin can run this function\") */\n              0x04\n              dup3\n              add\n                /* \"#utility.yul\":3316:3337   */\n              dup2\n              swap1\n              mstore\n                /* \"#utility.yul\":3353:3371   */\n              0x24\n              dup3\n              add\n                /* \"#utility.yul\":3346:3376   */\n              mstore\n                /* \"#utility.yul\":3412:3446   */\n              0x6f6e6c792061646d696e2063616e2072756e20746869732066756e6374696f6e\n                /* \"#utility.yul\":3392:3410   */\n              0x44\n              dup3\n              add\n                /* \"#utility.yul\":3385:3447   */\n              mstore\n                /* \"#utility.yul\":3464:3482   */\n              0x64\n              add\n                /* \"Custom-Dex/Erc-20.sol\":1498:1563  require(msg.sender == admin , \"only admin can run this function\") */\n            tag_81:\n              mload(0x40)\n              dup1\n              swap2\n              sub\n              swap1\n              revert\n            tag_80:\n                /* \"Custom-Dex/Erc-20.sol\":1835:1839  _qty */\n              dup2\n                /* \"Custom-Dex/Erc-20.sol\":1819:1831  totalSupply_ */\n              0x03\n              0x00\n                /* \"Custom-Dex/Erc-20.sol\":1819:1839  totalSupply_ -= _qty */\n              dup3\n              dup3\n              sload\n              tag_84\n              swap2\n              swap1\n              tag_76\n              jump\t// in\n            tag_84:\n              swap1\n              swap2\n              sstore\n              pop\n              pop\n                /* \"Custom-Dex/Erc-20.sol\":1858:1868  msg.sender */\n              caller\n                /* \"Custom-Dex/Erc-20.sol\":1849:1869  balances[msg.sender] */\n              0x00\n              swap1\n              dup2\n              mstore\n                /* \"Custom-Dex/Erc-20.sol\":1849:1857  balances */\n              0x05\n                /* \"Custom-Dex/Erc-20.sol\":1849:1869  balances[msg.sender] */\n              0x20\n              mstore\n              0x40\n              dup2\n              keccak256\n                /* \"Custom-Dex/Erc-20.sol\":1849:1877  balances[msg.sender] -= _qty */\n              dup1\n              sload\n                /* \"Custom-Dex/Erc-20.sol\":1873:1877  _qty */\n              dup5\n              swap3\n                /* \"Custom-Dex/Erc-20.sol\":1849:1869  balances[msg.sender] */\n              swap1\n                /* \"Custom-Dex/Erc-20.sol\":1849:1877  balances[msg.sender] -= _qty */\n              tag_85\n              swap1\n                /* \"Custom-Dex/Erc-20.sol\":1873:1877  _qty */\n              dup5\n              swap1\n                /* \"Custom-Dex/Erc-20.sol\":1849:1877  balances[msg.sender] -= _qty */\n              tag_76\n              jump\t// in\n            tag_85:\n              swap1\n              swap2\n              sstore\n              pop\n              pop\n                /* \"Custom-Dex/Erc-20.sol\":1894:1906  totalSupply_ */\n              sload(0x03)\n              swap1\n              pop\n                /* \"Custom-Dex/Erc-20.sol\":1573:1574  _ */\n            tag_83:\n                /* \"Custom-Dex/Erc-20.sol\":1753:1914  function burn(uint _qty) public  onlyAdmin returns(uint){... */\n              swap2\n              swap1\n              pop\n              jump\t// out\n                /* \"Custom-Dex/Erc-20.sol\":417:437  string public symbol */\n            tag_43:\n              0x01\n              dup1\n              sload\n              tag_63\n              swap1\n              tag_64\n              jump\t// in\n                /* \"Custom-Dex/Erc-20.sol\":1587:1747  function mint(uint _qty) public  onlyAdmin returns(uint){... */\n            tag_47:\n                /* \"Custom-Dex/Erc-20.sol\":1520:1525  admin */\n              sload(0x04)\n                /* \"Custom-Dex/Erc-20.sol\":1638:1642  uint */\n              0x00\n              swap1\n              sub(shl(0xa0, 0x01), 0x01)\n                /* \"Custom-Dex/Erc-20.sol\":1520:1525  admin */\n              and\n                /* \"Custom-Dex/Erc-20.sol\":1506:1516  msg.sender */\n              caller\n                /* \"Custom-Dex/Erc-20.sol\":1506:1525  msg.sender == admin */\n              eq\n                /* \"Custom-Dex/Erc-20.sol\":1498:1563  require(msg.sender == admin , \"only admin can run this function\") */\n              tag_93\n              jumpi\n              mload(0x40)\n              shl(0xe5, 0x461bcd)\n              dup2\n              mstore\n                /* \"#utility.yul\":3334:3336   */\n              0x20\n                /* \"Custom-Dex/Erc-20.sol\":1498:1563  require(msg.sender == admin , \"only admin can run this function\") */\n              0x04\n              dup3\n              add\n                /* \"#utility.yul\":3316:3337   */\n              dup2\n              swap1\n              mstore\n                /* \"#utility.yul\":3353:3371   */\n              0x24\n              dup3\n              add\n                /* \"#utility.yul\":3346:3376   */\n              mstore\n                /* \"#utility.yul\":3412:3446   */\n              0x6f6e6c792061646d696e2063616e2072756e20746869732066756e6374696f6e\n                /* \"#utility.yul\":3392:3410   */\n              0x44\n              dup3\n              add\n                /* \"#utility.yul\":3385:3447   */\n              mstore\n                /* \"#utility.yul\":3464:3482   */\n              0x64\n              add\n                /* \"Custom-Dex/Erc-20.sol\":1498:1563  require(msg.sender == admin , \"only admin can run this function\") */\n              tag_81\n                /* \"#utility.yul\":3132:3488   */\n              jump\n                /* \"Custom-Dex/Erc-20.sol\":1498:1563  require(msg.sender == admin , \"only admin can run this function\") */\n            tag_93:\n                /* \"Custom-Dex/Erc-20.sol\":1669:1673  _qty */\n              dup2\n                /* \"Custom-Dex/Erc-20.sol\":1653:1665  totalSupply_ */\n              0x03\n              0x00\n                /* \"Custom-Dex/Erc-20.sol\":1653:1673  totalSupply_ += _qty */\n              dup3\n              dup3\n              sload\n              tag_96\n              swap2\n              swap1\n              tag_74\n              jump\t// in\n            tag_96:\n              swap1\n              swap2\n              sstore\n              pop\n              pop\n                /* \"Custom-Dex/Erc-20.sol\":1692:1702  msg.sender */\n              caller\n                /* \"Custom-Dex/Erc-20.sol\":1683:1703  balances[msg.sender] */\n              0x00\n              swap1\n              dup2\n              mstore\n                /* \"Custom-Dex/Erc-20.sol\":1683:1691  balances */\n              0x05\n                /* \"Custom-Dex/Erc-20.sol\":1683:1703  balances[msg.sender] */\n              0x20\n              mstore\n              0x40\n              dup2\n              keccak256\n                /* \"Custom-Dex/Erc-20.sol\":1683:1711  balances[msg.sender] += _qty */\n              dup1\n              sload\n                /* \"Custom-Dex/Erc-20.sol\":1707:1711  _qty */\n              dup5\n              swap3\n                /* \"Custom-Dex/Erc-20.sol\":1683:1703  balances[msg.sender] */\n              swap1\n                /* \"Custom-Dex/Erc-20.sol\":1683:1711  balances[msg.sender] += _qty */\n              tag_85\n              swap1\n                /* \"Custom-Dex/Erc-20.sol\":1707:1711  _qty */\n              dup5\n              swap1\n                /* \"Custom-Dex/Erc-20.sol\":1683:1711  balances[msg.sender] += _qty */\n              tag_74\n              jump\t// in\n                /* \"Custom-Dex/Erc-20.sol\":1167:1464  function transfer(address receiver,uint numTokens) public override returns(bool){... */\n            tag_52:\n                /* \"Custom-Dex/Erc-20.sol\":1287:1297  msg.sender */\n              caller\n                /* \"Custom-Dex/Erc-20.sol\":1242:1246  bool */\n              0x00\n                /* \"Custom-Dex/Erc-20.sol\":1278:1298  balances[msg.sender] */\n              swap1\n              dup2\n              mstore\n                /* \"Custom-Dex/Erc-20.sol\":1278:1286  balances */\n              0x05\n                /* \"Custom-Dex/Erc-20.sol\":1278:1298  balances[msg.sender] */\n              0x20\n              mstore\n              0x40\n              dup2\n              keccak256\n              sload\n                /* \"Custom-Dex/Erc-20.sol\":1265:1298  numTokens <= balances[msg.sender] */\n              dup3\n              gt\n              iszero\n                /* \"Custom-Dex/Erc-20.sol\":1257:1299  require(numTokens <= balances[msg.sender]) */\n              tag_99\n              jumpi\n              0x00\n              dup1\n              revert\n            tag_99:\n                /* \"Custom-Dex/Erc-20.sol\":1318:1328  msg.sender */\n              caller\n                /* \"Custom-Dex/Erc-20.sol\":1309:1329  balances[msg.sender] */\n              0x00\n              swap1\n              dup2\n              mstore\n                /* \"Custom-Dex/Erc-20.sol\":1309:1317  balances */\n              0x05\n                /* \"Custom-Dex/Erc-20.sol\":1309:1329  balances[msg.sender] */\n              0x20\n              mstore\n              0x40\n              dup2\n              keccak256\n                /* \"Custom-Dex/Erc-20.sol\":1309:1341  balances[msg.sender] -=numTokens */\n              dup1\n              sload\n                /* \"Custom-Dex/Erc-20.sol\":1332:1341  numTokens */\n              dup5\n              swap3\n                /* \"Custom-Dex/Erc-20.sol\":1309:1329  balances[msg.sender] */\n              swap1\n                /* \"Custom-Dex/Erc-20.sol\":1309:1341  balances[msg.sender] -=numTokens */\n              tag_100\n              swap1\n                /* \"Custom-Dex/Erc-20.sol\":1332:1341  numTokens */\n              dup5\n              swap1\n                /* \"Custom-Dex/Erc-20.sol\":1309:1341  balances[msg.sender] -=numTokens */\n              tag_76\n              jump\t// in\n            tag_100:\n              swap1\n              swap2\n              sstore\n              pop\n              pop\n              sub(shl(0xa0, 0x01), 0x01)\n                /* \"Custom-Dex/Erc-20.sol\":1351:1369  balances[receiver] */\n              dup4\n              and\n              0x00\n              swap1\n              dup2\n              mstore\n                /* \"Custom-Dex/Erc-20.sol\":1351:1359  balances */\n              0x05\n                /* \"Custom-Dex/Erc-20.sol\":1351:1369  balances[receiver] */\n              0x20\n              mstore\n              0x40\n              dup2\n              keccak256\n                /* \"Custom-Dex/Erc-20.sol\":1351:1382  balances[receiver] += numTokens */\n              dup1\n              sload\n                /* \"Custom-Dex/Erc-20.sol\":1373:1382  numTokens */\n              dup5\n              swap3\n                /* \"Custom-Dex/Erc-20.sol\":1351:1369  balances[receiver] */\n              swap1\n                /* \"Custom-Dex/Erc-20.sol\":1351:1382  balances[receiver] += numTokens */\n              tag_101\n              swap1\n                /* \"Custom-Dex/Erc-20.sol\":1373:1382  numTokens */\n              dup5\n              swap1\n                /* \"Custom-Dex/Erc-20.sol\":1351:1382  balances[receiver] += numTokens */\n              tag_74\n              jump\t// in\n            tag_101:\n              swap1\n              swap2\n              sstore\n              pop\n              pop\n                /* \"Custom-Dex/Erc-20.sol\":1397:1436  Transfer(msg.sender,receiver,numTokens) */\n              mload(0x40)\n                /* \"#utility.yul\":713:738   */\n              dup3\n              dup2\n              mstore\n              sub(shl(0xa0, 0x01), 0x01)\n                /* \"Custom-Dex/Erc-20.sol\":1397:1436  Transfer(msg.sender,receiver,numTokens) */\n              dup5\n              and\n              swap1\n                /* \"Custom-Dex/Erc-20.sol\":1406:1416  msg.sender */\n              caller\n              swap1\n                /* \"Custom-Dex/Erc-20.sol\":1397:1436  Transfer(msg.sender,receiver,numTokens) */\n              0xddf252ad1be2c89b69c2b068fc378daa952ba7f163c4a11628f55a4df523b3ef\n              swap1\n                /* \"#utility.yul\":701:703   */\n              0x20\n                /* \"#utility.yul\":686:704   */\n              add\n                /* \"Custom-Dex/Erc-20.sol\":1397:1436  Transfer(msg.sender,receiver,numTokens) */\n              mload(0x40)\n              dup1\n              swap2\n              sub\n              swap1\n              log3\n              pop\n                /* \"Custom-Dex/Erc-20.sol\":1453:1457  true */\n              0x01\n                /* \"Custom-Dex/Erc-20.sol\":1167:1464  function transfer(address receiver,uint numTokens) public override returns(bool){... */\n            tag_98:\n              swap3\n              swap2\n              pop\n              pop\n              jump\t// out\n                /* \"Custom-Dex/Erc-20.sol\":2052:2253  function approve(address _owner, address _spender,uint _value) public returns(bool){... */\n            tag_61:\n              sub(shl(0xa0, 0x01), 0x01)\n                /* \"Custom-Dex/Erc-20.sol\":2145:2160  allowed[_owner] */\n              dup4\n              dup2\n              and\n                /* \"Custom-Dex/Erc-20.sol\":2130:2134  bool */\n              0x00\n                /* \"Custom-Dex/Erc-20.sol\":2145:2160  allowed[_owner] */\n              dup2\n              dup2\n              mstore\n                /* \"Custom-Dex/Erc-20.sol\":2145:2152  allowed */\n              0x06\n                /* \"Custom-Dex/Erc-20.sol\":2145:2160  allowed[_owner] */\n              0x20\n              swap1\n              dup2\n              mstore\n              0x40\n              dup1\n              dup4\n              keccak256\n                /* \"Custom-Dex/Erc-20.sol\":2145:2170  allowed[_owner][_spender] */\n              swap5\n              dup8\n              and\n              dup1\n              dup5\n              mstore\n              swap5\n              dup3\n              mstore\n              dup1\n              dup4\n              keccak256\n                /* \"Custom-Dex/Erc-20.sol\":2145:2178  allowed[_owner][_spender] =_value */\n              dup7\n              swap1\n              sstore\n                /* \"Custom-Dex/Erc-20.sol\":2193:2225  Approval(_owner,_spender,_value) */\n              mload\n                /* \"#utility.yul\":713:738   */\n              dup6\n              dup2\n              mstore\n                /* \"Custom-Dex/Erc-20.sol\":2130:2134  bool */\n              swap2\n              swap4\n                /* \"Custom-Dex/Erc-20.sol\":2145:2170  allowed[_owner][_spender] */\n              swap3\n                /* \"Custom-Dex/Erc-20.sol\":2145:2160  allowed[_owner] */\n              swap2\n                /* \"Custom-Dex/Erc-20.sol\":2193:2225  Approval(_owner,_spender,_value) */\n              0x8c5be1e5ebec7d5bd14f71427d1e84f3dd0314c0f7b2291e5b200ac8c7c3b925\n              swap2\n                /* \"#utility.yul\":686:704   */\n              add\n                /* \"Custom-Dex/Erc-20.sol\":2193:2225  Approval(_owner,_spender,_value) */\n              mload(0x40)\n              dup1\n              swap2\n              sub\n              swap1\n              log3\n              pop\n                /* \"Custom-Dex/Erc-20.sol\":2242:2246  true */\n              0x01\n                /* \"Custom-Dex/Erc-20.sol\":2052:2253  function approve(address _owner, address _spender,uint _value) public returns(bool){... */\n              swap4\n              swap3\n              pop\n              pop\n              pop\n              jump\t// out\n                /* \"#utility.yul\":14:562   */\n            tag_18:\n                /* \"#utility.yul\":126:130   */\n              0x00\n                /* \"#utility.yul\":155:157   */\n              0x20\n                /* \"#utility.yul\":184:186   */\n              dup1\n                /* \"#utility.yul\":173:182   */\n              dup4\n                /* \"#utility.yul\":166:187   */\n              mstore\n                /* \"#utility.yul\":216:222   */\n              dup4\n                /* \"#utility.yul\":210:223   */\n              mload\n                /* \"#utility.yul\":259:265   */\n              dup1\n                /* \"#utility.yul\":254:256   */\n              dup3\n                /* \"#utility.yul\":243:252   */\n              dup6\n                /* \"#utility.yul\":239:257   */\n              add\n                /* \"#utility.yul\":232:266   */\n              mstore\n                /* \"#utility.yul\":284:285   */\n              0x00\n                /* \"#utility.yul\":294:434   */\n            tag_110:\n                /* \"#utility.yul\":308:314   */\n              dup2\n                /* \"#utility.yul\":305:306   */\n              dup2\n                /* \"#utility.yul\":302:315   */\n              lt\n                /* \"#utility.yul\":294:434   */\n              iszero\n              tag_112\n              jumpi\n                /* \"#utility.yul\":403:417   */\n              dup6\n              dup2\n              add\n                /* \"#utility.yul\":399:422   */\n              dup4\n              add\n                /* \"#utility.yul\":393:423   */\n              mload\n                /* \"#utility.yul\":369:386   */\n              dup6\n              dup3\n              add\n                /* \"#utility.yul\":388:390   */\n              0x40\n                /* \"#utility.yul\":365:391   */\n              add\n                /* \"#utility.yul\":358:424   */\n              mstore\n                /* \"#utility.yul\":323:333   */\n              dup3\n              add\n                /* \"#utility.yul\":294:434   */\n              jump(tag_110)\n            tag_112:\n                /* \"#utility.yul\":298:301   */\n              pop\n                /* \"#utility.yul\":483:484   */\n              0x00\n                /* \"#utility.yul\":478:480   */\n              0x40\n                /* \"#utility.yul\":469:475   */\n              dup3\n                /* \"#utility.yul\":458:467   */\n              dup7\n                /* \"#utility.yul\":454:476   */\n              add\n                /* \"#utility.yul\":450:481   */\n              add\n                /* \"#utility.yul\":443:485   */\n              mstore\n                /* \"#utility.yul\":553:555   */\n              0x40\n                /* \"#utility.yul\":546:548   */\n              0x1f\n                /* \"#utility.yul\":542:549   */\n              not\n                /* \"#utility.yul\":537:539   */\n              0x1f\n                /* \"#utility.yul\":529:535   */\n              dup4\n                /* \"#utility.yul\":525:540   */\n              add\n                /* \"#utility.yul\":521:550   */\n              and\n                /* \"#utility.yul\":510:519   */\n              dup6\n                /* \"#utility.yul\":506:551   */\n              add\n                /* \"#utility.yul\":502:556   */\n              add\n                /* \"#utility.yul\":494:556   */\n              swap3\n              pop\n              pop\n              pop\n                /* \"#utility.yul\":14:562   */\n              swap3\n              swap2\n              pop\n              pop\n              jump\t// out\n                /* \"#utility.yul\":749:922   */\n            tag_106:\n                /* \"#utility.yul\":817:837   */\n              dup1\n              calldataload\n              sub(shl(0xa0, 0x01), 0x01)\n                /* \"#utility.yul\":866:897   */\n              dup2\n              and\n                /* \"#utility.yul\":856:898   */\n              dup2\n              eq\n                /* \"#utility.yul\":846:916   */\n              tag_83\n              jumpi\n                /* \"#utility.yul\":912:913   */\n              0x00\n                /* \"#utility.yul\":909:910   */\n              dup1\n                /* \"#utility.yul\":902:914   */\n              revert\n                /* \"#utility.yul\":927:1255   */\n            tag_25:\n                /* \"#utility.yul\":1004:1010   */\n              0x00\n                /* \"#utility.yul\":1012:1018   */\n              dup1\n                /* \"#utility.yul\":1020:1026   */\n              0x00\n                /* \"#utility.yul\":1073:1075   */\n              0x60\n                /* \"#utility.yul\":1061:1070   */\n              dup5\n                /* \"#utility.yul\":1052:1059   */\n              dup7\n                /* \"#utility.yul\":1048:1071   */\n              sub\n                /* \"#utility.yul\":1044:1076   */\n              slt\n                /* \"#utility.yul\":1041:1093   */\n              iszero\n              tag_117\n              jumpi\n                /* \"#utility.yul\":1089:1090   */\n              0x00\n                /* \"#utility.yul\":1086:1087   */\n              dup1\n                /* \"#utility.yul\":1079:1091   */\n              revert\n                /* \"#utility.yul\":1041:1093   */\n            tag_117:\n                /* \"#utility.yul\":1112:1141   */\n              tag_118\n                /* \"#utility.yul\":1131:1140   */\n              dup5\n                /* \"#utility.yul\":1112:1141   */\n              tag_106\n              jump\t// in\n            tag_118:\n                /* \"#utility.yul\":1102:1141   */\n              swap3\n              pop\n                /* \"#utility.yul\":1160:1198   */\n              tag_119\n                /* \"#utility.yul\":1194:1196   */\n              0x20\n                /* \"#utility.yul\":1183:1192   */\n              dup6\n                /* \"#utility.yul\":1179:1197   */\n              add\n                /* \"#utility.yul\":1160:1198   */\n              tag_106\n              jump\t// in\n            tag_119:\n                /* \"#utility.yul\":1150:1198   */\n              swap2\n              pop\n                /* \"#utility.yul\":1245:1247   */\n              0x40\n                /* \"#utility.yul\":1234:1243   */\n              dup5\n                /* \"#utility.yul\":1230:1248   */\n              add\n                /* \"#utility.yul\":1217:1249   */\n              calldataload\n                /* \"#utility.yul\":1207:1249   */\n              swap1\n              pop\n                /* \"#utility.yul\":927:1255   */\n              swap3\n              pop\n              swap3\n              pop\n              swap3\n              jump\t// out\n                /* \"#utility.yul\":1452:1632   */\n            tag_34:\n                /* \"#utility.yul\":1511:1517   */\n              0x00\n                /* \"#utility.yul\":1564:1566   */\n              0x20\n                /* \"#utility.yul\":1552:1561   */\n              dup3\n                /* \"#utility.yul\":1543:1550   */\n              dup5\n                /* \"#utility.yul\":1539:1562   */\n              sub\n                /* \"#utility.yul\":1535:1567   */\n              slt\n                /* \"#utility.yul\":1532:1584   */\n              iszero\n              tag_122\n              jumpi\n                /* \"#utility.yul\":1580:1581   */\n              0x00\n                /* \"#utility.yul\":1577:1578   */\n              dup1\n                /* \"#utility.yul\":1570:1582   */\n              revert\n                /* \"#utility.yul\":1532:1584   */\n            tag_122:\n              pop\n                /* \"#utility.yul\":1603:1626   */\n              calldataload\n              swap2\n                /* \"#utility.yul\":1452:1632   */\n              swap1\n              pop\n              jump\t// out\n                /* \"#utility.yul\":1637:1823   */\n            tag_39:\n                /* \"#utility.yul\":1696:1702   */\n              0x00\n                /* \"#utility.yul\":1749:1751   */\n              0x20\n                /* \"#utility.yul\":1737:1746   */\n              dup3\n                /* \"#utility.yul\":1728:1735   */\n              dup5\n                /* \"#utility.yul\":1724:1747   */\n              sub\n                /* \"#utility.yul\":1720:1752   */\n              slt\n                /* \"#utility.yul\":1717:1769   */\n              iszero\n              tag_124\n              jumpi\n                /* \"#utility.yul\":1765:1766   */\n              0x00\n                /* \"#utility.yul\":1762:1763   */\n              dup1\n                /* \"#utility.yul\":1755:1767   */\n              revert\n                /* \"#utility.yul\":1717:1769   */\n            tag_124:\n                /* \"#utility.yul\":1788:1817   */\n              tag_125\n                /* \"#utility.yul\":1807:1816   */\n              dup3\n                /* \"#utility.yul\":1788:1817   */\n              tag_106\n              jump\t// in\n            tag_125:\n                /* \"#utility.yul\":1778:1817   */\n              swap4\n                /* \"#utility.yul\":1637:1823   */\n              swap3\n              pop\n              pop\n              pop\n              jump\t// out\n                /* \"#utility.yul\":1828:2082   */\n            tag_51:\n                /* \"#utility.yul\":1896:1902   */\n              0x00\n                /* \"#utility.yul\":1904:1910   */\n              dup1\n                /* \"#utility.yul\":1957:1959   */\n              0x40\n                /* \"#utility.yul\":1945:1954   */\n              dup4\n                /* \"#utility.yul\":1936:1943   */\n              dup6\n                /* \"#utility.yul\":1932:1955   */\n              sub\n                /* \"#utility.yul\":1928:1960   */\n              slt\n                /* \"#utility.yul\":1925:1977   */\n              iszero\n              tag_127\n              jumpi\n                /* \"#utility.yul\":1973:1974   */\n              0x00\n                /* \"#utility.yul\":1970:1971   */\n              dup1\n                /* \"#utility.yul\":1963:1975   */\n              revert\n                /* \"#utility.yul\":1925:1977   */\n            tag_127:\n                /* \"#utility.yul\":1996:2025   */\n              tag_128\n                /* \"#utility.yul\":2015:2024   */\n              dup4\n                /* \"#utility.yul\":1996:2025   */\n              tag_106\n              jump\t// in\n            tag_128:\n                /* \"#utility.yul\":1986:2025   */\n              swap5\n                /* \"#utility.yul\":2072:2074   */\n              0x20\n                /* \"#utility.yul\":2057:2075   */\n              swap4\n              swap1\n              swap4\n              add\n                /* \"#utility.yul\":2044:2076   */\n              calldataload\n              swap4\n              pop\n              pop\n              pop\n                /* \"#utility.yul\":1828:2082   */\n              jump\t// out\n                /* \"#utility.yul\":2087:2347   */\n            tag_56:\n                /* \"#utility.yul\":2155:2161   */\n              0x00\n                /* \"#utility.yul\":2163:2169   */\n              dup1\n                /* \"#utility.yul\":2216:2218   */\n              0x40\n                /* \"#utility.yul\":2204:2213   */\n              dup4\n                /* \"#utility.yul\":2195:2202   */\n              dup6\n                /* \"#utility.yul\":2191:2214   */\n              sub\n                /* \"#utility.yul\":2187:2219   */\n              slt\n                /* \"#utility.yul\":2184:2236   */\n              iszero\n              tag_130\n              jumpi\n                /* \"#utility.yul\":2232:2233   */\n              0x00\n                /* \"#utility.yul\":2229:2230   */\n              dup1\n                /* \"#utility.yul\":2222:2234   */\n              revert\n                /* \"#utility.yul\":2184:2236   */\n            tag_130:\n                /* \"#utility.yul\":2255:2284   */\n              tag_131\n                /* \"#utility.yul\":2274:2283   */\n              dup4\n                /* \"#utility.yul\":2255:2284   */\n              tag_106\n              jump\t// in\n            tag_131:\n                /* \"#utility.yul\":2245:2284   */\n              swap2\n              pop\n                /* \"#utility.yul\":2303:2341   */\n              tag_132\n                /* \"#utility.yul\":2337:2339   */\n              0x20\n                /* \"#utility.yul\":2326:2335   */\n              dup5\n                /* \"#utility.yul\":2322:2340   */\n              add\n                /* \"#utility.yul\":2303:2341   */\n              tag_106\n              jump\t// in\n            tag_132:\n                /* \"#utility.yul\":2293:2341   */\n              swap1\n              pop\n                /* \"#utility.yul\":2087:2347   */\n              swap3\n              pop\n              swap3\n              swap1\n              pop\n              jump\t// out\n                /* \"#utility.yul\":2352:2732   */\n            tag_64:\n                /* \"#utility.yul\":2431:2432   */\n              0x01\n                /* \"#utility.yul\":2427:2439   */\n              dup2\n              dup2\n              shr\n              swap1\n                /* \"#utility.yul\":2474:2486   */\n              dup3\n              and\n              dup1\n                /* \"#utility.yul\":2495:2556   */\n              tag_134\n              jumpi\n                /* \"#utility.yul\":2549:2553   */\n              0x7f\n                /* \"#utility.yul\":2541:2547   */\n              dup3\n                /* \"#utility.yul\":2537:2554   */\n              and\n                /* \"#utility.yul\":2527:2554   */\n              swap2\n              pop\n                /* \"#utility.yul\":2495:2556   */\n            tag_134:\n                /* \"#utility.yul\":2602:2604   */\n              0x20\n                /* \"#utility.yul\":2594:2600   */\n              dup3\n                /* \"#utility.yul\":2591:2605   */\n              lt\n                /* \"#utility.yul\":2571:2589   */\n              dup2\n                /* \"#utility.yul\":2568:2606   */\n              sub\n                /* \"#utility.yul\":2565:2726   */\n              tag_135\n              jumpi\n                /* \"#utility.yul\":2648:2658   */\n              0x4e487b71\n                /* \"#utility.yul\":2643:2646   */\n              0xe0\n                /* \"#utility.yul\":2639:2659   */\n              shl\n                /* \"#utility.yul\":2636:2637   */\n              0x00\n                /* \"#utility.yul\":2629:2660   */\n              mstore\n                /* \"#utility.yul\":2683:2687   */\n              0x22\n                /* \"#utility.yul\":2680:2681   */\n              0x04\n                /* \"#utility.yul\":2673:2688   */\n              mstore\n                /* \"#utility.yul\":2711:2715   */\n              0x24\n                /* \"#utility.yul\":2708:2709   */\n              0x00\n                /* \"#utility.yul\":2701:2716   */\n              revert\n                /* \"#utility.yul\":2565:2726   */\n            tag_135:\n              pop\n                /* \"#utility.yul\":2352:2732   */\n              swap2\n              swap1\n              pop\n              jump\t// out\n                /* \"#utility.yul\":2737:2864   */\n            tag_107:\n                /* \"#utility.yul\":2798:2808   */\n              0x4e487b71\n                /* \"#utility.yul\":2793:2796   */\n              0xe0\n                /* \"#utility.yul\":2789:2809   */\n              shl\n                /* \"#utility.yul\":2786:2787   */\n              0x00\n                /* \"#utility.yul\":2779:2810   */\n              mstore\n                /* \"#utility.yul\":2829:2833   */\n              0x11\n                /* \"#utility.yul\":2826:2827   */\n              0x04\n                /* \"#utility.yul\":2819:2834   */\n              mstore\n                /* \"#utility.yul\":2853:2857   */\n              0x24\n                /* \"#utility.yul\":2850:2851   */\n              0x00\n                /* \"#utility.yul\":2843:2858   */\n              revert\n                /* \"#utility.yul\":2869:2994   */\n            tag_74:\n                /* \"#utility.yul\":2934:2943   */\n              dup1\n              dup3\n              add\n                /* \"#utility.yul\":2955:2965   */\n              dup1\n              dup3\n              gt\n                /* \"#utility.yul\":2952:2988   */\n              iszero\n              tag_98\n              jumpi\n                /* \"#utility.yul\":2968:2986   */\n              tag_98\n              tag_107\n              jump\t// in\n                /* \"#utility.yul\":2999:3127   */\n            tag_76:\n                /* \"#utility.yul\":3066:3075   */\n              dup2\n              dup2\n              sub\n                /* \"#utility.yul\":3087:3098   */\n              dup2\n              dup2\n              gt\n                /* \"#utility.yul\":3084:3121   */\n              iszero\n              tag_98\n              jumpi\n                /* \"#utility.yul\":3101:3119   */\n              tag_98\n              tag_107\n              jump\t// in\n\n            auxdata: 0xa264697066735822122001c2812a2f2de2714e50cca46f0bbc5e166977b671cf60e8fd762b9111c9068764736f6c63430008140033\n        }\n    }\n\n    auxdata: 0xa26469706673582212201495c9268afd610a9f10707ae26a2c58d768fb5f4b76b267a723eec84390387964736f6c63430008140033\n}\n",
				"bytecode": {
					"linkReferences": {},
					"object": "608060405234801561001057600080fd5b506119c6806100206000396000f3fe60806040523480156200001157600080fd5b5060043610620000525760003560e01c80634fba460714620000575780635b3a72321462000086578063c5cb360414620000b2578063f9c8b956146200011d575b600080fd5b6200006e6200006836600462000934565b62000136565b6040516200007d919062000aa4565b60405180910390f35b6200009d6200009736600462000b62565b62000465565b6040516200007d979695949392919062000b7c565b620000f8620000c336600462000bde565b60056020908152600092835260408084209091529082529020805460018201546002909201549091906001600160a01b031683565b6040805193845260208401929092526001600160a01b0316908201526060016200007d565b620001346200012e36600462000c18565b620005cd565b005b6200019160405180610100016040528060006001600160a01b0316815260200160006001600160a01b031681526020016060815260200160608152602001600081526020016000815260200160008152602001606081525090565b868686604051620001a2906200087b565b620001b09392919062000c45565b604051809103906000f080158015620001cd573d6000803e3d6000fd5b50600260006101000a8154816001600160a01b0302191690836001600160a01b0316021790555083838360405162000205906200087b565b620002139392919062000c45565b604051809103906000f08015801562000230573d6000803e3d6000fd5b50600380546001600160a01b0319166001600160a01b039290921691909117905560018054906000620002638362000c95565b9091555050600280546001805460009081526004602052604080822080546001600160a01b039586166001600160a01b031991821617909155600354845484528284208501805491909616911617909355905481522001620002c6888262000d40565b506001546000908152600460205260409020600301620002e7858262000d40565b506001546000908152600460208190526040918290204260069091015560025491516370a0823160e01b815230918101919091526001600160a01b03909116906370a0823190602401602060405180830381865afa1580156200034e573d6000803e3d6000fd5b505050506040513d601f19601f8201168201806040525081019062000374919062000e0d565b60015460009081526004602081905260409182902081019290925560035490516370a0823160e01b815230928101929092526001600160a01b0316906370a0823190602401602060405180830381865afa158015620003d7573d6000803e3d6000fd5b505050506040513d601f19601f82011682018060405250810190620003fd919062000e0d565b600180546000908152600460209081526040808320600590810195909555338084529482528083208454845290915280822098909855815481528781208201949094555483529490912060020180546001600160a01b03191690941790935550909392505050565b6004602052600090815260409020805460018201546002830180546001600160a01b039384169492909316926200049c9062000cb1565b80601f0160208091040260200160405190810160405280929190818152602001828054620004ca9062000cb1565b80156200051b5780601f10620004ef576101008083540402835291602001916200051b565b820191906000526020600020905b815481529060010190602001808311620004fd57829003601f168201915b505050505090806003018054620005329062000cb1565b80601f0160208091040260200160405190810160405280929190818152602001828054620005609062000cb1565b8015620005b15780601f106200058557610100808354040283529160200191620005b1565b820191906000526020600020905b8154815290600101906020018083116200059357829003601f168201915b5050505050908060040154908060050154908060060154905087565b60025460405163e1f21c6760e01b81526001600160a01b039091169063e1f21c6790620006039033903090889060040162000e27565b6020604051808303816000875af115801562000623573d6000803e3d6000fd5b505050506040513d601f19601f8201168201806040525081019062000649919062000e4b565b506002546040516323b872dd60e01b81526001600160a01b03909116906323b872dd90620006809033903090889060040162000e27565b6020604051808303816000875af1158015620006a0573d6000803e3d6000fd5b505050506040513d601f19601f82011682018060405250810190620006c6919062000e4b565b503360009081526005602090815260408083208484528252808320869055600154835260049182905282200180548592906200070490849062000e76565b909155505060025460405163e1f21c6760e01b81526001600160a01b039091169063e1f21c67906200073f9033903090879060040162000e27565b6020604051808303816000875af11580156200075f573d6000803e3d6000fd5b505050506040513d601f19601f8201168201806040525081019062000785919062000e4b565b506002546040516323b872dd60e01b81526001600160a01b03909116906323b872dd90620007bc9033903090879060040162000e27565b6020604051808303816000875af1158015620007dc573d6000803e3d6000fd5b505050506040513d601f19601f8201168201806040525081019062000802919062000e4b565b5033600090815260056020818152604080842085855282528084206001908101879055548452600490915282200180548492906200084290849062000e76565b90915550503360008181526005602090815260408083209483529390529190912060020180546001600160a01b03191690911790555050565b610afe8062000e9383390190565b634e487b7160e01b600052604160045260246000fd5b600082601f830112620008b157600080fd5b813567ffffffffffffffff80821115620008cf57620008cf62000889565b604051601f8301601f19908116603f01168101908282118183101715620008fa57620008fa62000889565b816040528381528660208588010111156200091457600080fd5b836020870160208301376000602085830101528094505050505092915050565b60008060008060008060c087890312156200094e57600080fd5b863567ffffffffffffffff808211156200096757600080fd5b620009758a838b016200089f565b975060208901359150808211156200098c57600080fd5b6200099a8a838b016200089f565b9650604089013595506060890135915080821115620009b857600080fd5b620009c68a838b016200089f565b94506080890135915080821115620009dd57600080fd5b50620009ec89828a016200089f565b92505060a087013590509295509295509295565b6000815180845260005b8181101562000a285760208185018101518683018201520162000a0a565b506000602082860101526020601f19601f83011685010191505092915050565b600081518084526020808501945080840160005b8381101562000a995781518051885283810151848901526040908101516001600160a01b0316908801526060909601959082019060010162000a5c565b509495945050505050565b6020815262000abf6020820183516001600160a01b03169052565b6000602083015162000adc60408401826001600160a01b03169052565b50604083015161010080606085015262000afb61012085018362000a00565b91506060850151601f198086850301608087015262000b1b848362000a00565b9350608087015160a087015260a087015160c087015260c087015160e087015260e087015191508086850301838701525062000b58838262000a48565b9695505050505050565b60006020828403121562000b7557600080fd5b5035919050565b6001600160a01b0388811682528716602082015260e06040820181905260009062000baa9083018862000a00565b828103606084015262000bbe818862000a00565b6080840196909652505060a081019290925260c090910152949350505050565b6000806040838503121562000bf257600080fd5b82356001600160a01b038116811462000c0a57600080fd5b946020939093013593505050565b60008060006060848603121562000c2e57600080fd5b505081359360208301359350604090920135919050565b60608152600062000c5a606083018662000a00565b828103602084015262000c6e818662000a00565b915050826040830152949350505050565b634e487b7160e01b600052601160045260246000fd5b60006001820162000caa5762000caa62000c7f565b5060010190565b600181811c9082168062000cc657607f821691505b60208210810362000ce757634e487b7160e01b600052602260045260246000fd5b50919050565b601f82111562000d3b57600081815260208120601f850160051c8101602086101562000d165750805b601f850160051c820191505b8181101562000d375782815560010162000d22565b5050505b505050565b815167ffffffffffffffff81111562000d5d5762000d5d62000889565b62000d758162000d6e845462000cb1565b8462000ced565b602080601f83116001811462000dad576000841562000d945750858301515b600019600386901b1c1916600185901b17855562000d37565b600085815260208120601f198616915b8281101562000dde5788860151825594840194600190910190840162000dbd565b508582101562000dfd5787850151600019600388901b60f8161c191681555b5050505050600190811b01905550565b60006020828403121562000e2057600080fd5b5051919050565b6001600160a01b039384168152919092166020820152604081019190915260600190565b60006020828403121562000e5e57600080fd5b8151801515811462000e6f57600080fd5b9392505050565b8082018082111562000e8c5762000e8c62000c7f565b9291505056fe608060405260126002553480156200001657600080fd5b5060405162000afe38038062000afe833981016040819052620000399162000150565b600062000047848262000252565b50600162000056838262000252565b50600381905533600081815260056020526040902091909155600480546001600160a01b0319169091179055506200031e9050565b634e487b7160e01b600052604160045260246000fd5b600082601f830112620000b357600080fd5b81516001600160401b0380821115620000d057620000d06200008b565b604051601f8301601f19908116603f01168101908282118183101715620000fb57620000fb6200008b565b816040528381526020925086838588010111156200011857600080fd5b600091505b838210156200013c57858201830151818301840152908201906200011d565b600093810190920192909252949350505050565b6000806000606084860312156200016657600080fd5b83516001600160401b03808211156200017e57600080fd5b6200018c87838801620000a1565b94506020860151915080821115620001a357600080fd5b50620001b286828701620000a1565b925050604084015190509250925092565b600181811c90821680620001d857607f821691505b602082108103620001f957634e487b7160e01b600052602260045260246000fd5b50919050565b601f8211156200024d57600081815260208120601f850160051c81016020861015620002285750805b601f850160051c820191505b81811015620002495782815560010162000234565b5050505b505050565b81516001600160401b038111156200026e576200026e6200008b565b62000286816200027f8454620001c3565b84620001ff565b602080601f831160018114620002be5760008415620002a55750858301515b600019600386901b1c1916600185901b17855562000249565b600085815260208120601f198616915b82811015620002ef57888601518255948401946001909101908401620002ce565b50858210156200030e5787850151600019600388901b60f8161c191681555b5050505050600190811b01905550565b6107d0806200032e6000396000f3fe608060405234801561001057600080fd5b50600436106100a95760003560e01c806370a082311161007157806370a082311461011d57806395d89b4114610146578063a0712d681461014e578063a9059cbb14610161578063dd62ed3e14610174578063e1f21c67146101ad57600080fd5b806306fdde03146100ae57806318160ddd146100cc57806323b872dd146100de578063313ce5671461010157806342966c681461010a575b600080fd5b6100b66101c0565b6040516100c391906105eb565b60405180910390f35b6003545b6040519081526020016100c3565b6100f16100ec366004610650565b61024e565b60405190151581526020016100c3565b6100d060025481565b6100d061011836600461068c565b610384565b6100d061012b3660046106a5565b6001600160a01b031660009081526005602052604090205490565b6100b661042c565b6100d061015c36600461068c565b610439565b6100f161016f3660046106c7565b6104cc565b6100d06101823660046106f1565b6001600160a01b03918216600090815260066020908152604080832093909416825291909152205490565b6100f16101bb366004610650565b610583565b600080546101cd90610724565b80601f01602080910402602001604051908101604052809291908181526020018280546101f990610724565b80156102465780601f1061021b57610100808354040283529160200191610246565b820191906000526020600020905b81548152906001019060200180831161022957829003601f168201915b505050505081565b6001600160a01b03831660008181526006602090815260408083203384528252808320549383526005909152812054909190831180159061028f5750828110155b61029857600080fd5b6001600160a01b038416600090815260056020526040812080548592906102c0908490610774565b90915550506001600160a01b038516600090815260056020526040812080548592906102ed908490610787565b90915550506001600160a01b038516600090815260066020908152604080832033845290915281208054859290610325908490610787565b92505081905550836001600160a01b0316856001600160a01b03167fddf252ad1be2c89b69c2b068fc378daa952ba7f163c4a11628f55a4df523b3ef8560405161037191815260200190565b60405180910390a3506001949350505050565b6004546000906001600160a01b031633146103e65760405162461bcd60e51b815260206004820181905260248201527f6f6e6c792061646d696e2063616e2072756e20746869732066756e6374696f6e60448201526064015b60405180910390fd5b81600360008282546103f89190610787565b9091555050336000908152600560205260408120805484929061041c908490610787565b909155505060035490505b919050565b600180546101cd90610724565b6004546000906001600160a01b031633146104965760405162461bcd60e51b815260206004820181905260248201527f6f6e6c792061646d696e2063616e2072756e20746869732066756e6374696f6e60448201526064016103dd565b81600360008282546104a89190610774565b9091555050336000908152600560205260408120805484929061041c908490610774565b336000908152600560205260408120548211156104e857600080fd5b3360009081526005602052604081208054849290610507908490610787565b90915550506001600160a01b03831660009081526005602052604081208054849290610534908490610774565b90915550506040518281526001600160a01b0384169033907fddf252ad1be2c89b69c2b068fc378daa952ba7f163c4a11628f55a4df523b3ef9060200160405180910390a35060015b92915050565b6001600160a01b03838116600081815260066020908152604080832094871680845294825280832086905551858152919392917f8c5be1e5ebec7d5bd14f71427d1e84f3dd0314c0f7b2291e5b200ac8c7c3b925910160405180910390a35060019392505050565b600060208083528351808285015260005b81811015610618578581018301518582016040015282016105fc565b506000604082860101526040601f19601f8301168501019250505092915050565b80356001600160a01b038116811461042757600080fd5b60008060006060848603121561066557600080fd5b61066e84610639565b925061067c60208501610639565b9150604084013590509250925092565b60006020828403121561069e57600080fd5b5035919050565b6000602082840312156106b757600080fd5b6106c082610639565b9392505050565b600080604083850312156106da57600080fd5b6106e383610639565b946020939093013593505050565b6000806040838503121561070457600080fd5b61070d83610639565b915061071b60208401610639565b90509250929050565b600181811c9082168061073857607f821691505b60208210810361075857634e487b7160e01b600052602260045260246000fd5b50919050565b634e487b7160e01b600052601160045260246000fd5b8082018082111561057d5761057d61075e565b8181038181111561057d5761057d61075e56fea264697066735822122001c2812a2f2de2714e50cca46f0bbc5e166977b671cf60e8fd762b9111c9068764736f6c63430008140033a26469706673582212201495c9268afd610a9f10707ae26a2c58d768fb5f4b76b267a723eec84390387964736f6c63430008140033",
					"opcodes": "PUSH1 0x80 PUSH1 0x40 MSTORE CALLVALUE DUP1 ISZERO PUSH2 0x10 JUMPI PUSH1 0x0 DUP1 REVERT JUMPDEST POP PUSH2 0x19C6 DUP1 PUSH2 0x20 PUSH1 0x0 CODECOPY PUSH1 0x0 RETURN INVALID PUSH1 0x80 PUSH1 0x40 MSTORE CALLVALUE DUP1 ISZERO PUSH3 0x11 JUMPI PUSH1 0x0 DUP1 REVERT JUMPDEST POP PUSH1 0x4 CALLDATASIZE LT PUSH3 0x52 JUMPI PUSH1 0x0 CALLDATALOAD PUSH1 0xE0 SHR DUP1 PUSH4 0x4FBA4607 EQ PUSH3 0x57 JUMPI DUP1 PUSH4 0x5B3A7232 EQ PUSH3 0x86 JUMPI DUP1 PUSH4 0xC5CB3604 EQ PUSH3 0xB2 JUMPI DUP1 PUSH4 0xF9C8B956 EQ PUSH3 0x11D JUMPI JUMPDEST PUSH1 0x0 DUP1 REVERT JUMPDEST PUSH3 0x6E PUSH3 0x68 CALLDATASIZE PUSH1 0x4 PUSH3 0x934 JUMP JUMPDEST PUSH3 0x136 JUMP JUMPDEST PUSH1 0x40 MLOAD PUSH3 0x7D SWAP2 SWAP1 PUSH3 0xAA4 JUMP JUMPDEST PUSH1 0x40 MLOAD DUP1 SWAP2 SUB SWAP1 RETURN JUMPDEST PUSH3 0x9D PUSH3 0x97 CALLDATASIZE PUSH1 0x4 PUSH3 0xB62 JUMP JUMPDEST PUSH3 0x465 JUMP JUMPDEST PUSH1 0x40 MLOAD PUSH3 0x7D SWAP8 SWAP7 SWAP6 SWAP5 SWAP4 SWAP3 SWAP2 SWAP1 PUSH3 0xB7C JUMP JUMPDEST PUSH3 0xF8 PUSH3 0xC3 CALLDATASIZE PUSH1 0x4 PUSH3 0xBDE JUMP JUMPDEST PUSH1 0x5 PUSH1 0x20 SWAP1 DUP2 MSTORE PUSH1 0x0 SWAP3 DUP4 MSTORE PUSH1 0x40 DUP1 DUP5 KECCAK256 SWAP1 SWAP2 MSTORE SWAP1 DUP3 MSTORE SWAP1 KECCAK256 DUP1 SLOAD PUSH1 0x1 DUP3 ADD SLOAD PUSH1 0x2 SWAP1 SWAP3 ADD SLOAD SWAP1 SWAP2 SWAP1 PUSH1 0x1 PUSH1 0x1 PUSH1 0xA0 SHL SUB AND DUP4 JUMP JUMPDEST PUSH1 0x40 DUP1 MLOAD SWAP4 DUP5 MSTORE PUSH1 0x20 DUP5 ADD SWAP3 SWAP1 SWAP3 MSTORE PUSH1 0x1 PUSH1 0x1 PUSH1 0xA0 SHL SUB AND SWAP1 DUP3 ADD MSTORE PUSH1 0x60 ADD PUSH3 0x7D JUMP JUMPDEST PUSH3 0x134 PUSH3 0x12E CALLDATASIZE PUSH1 0x4 PUSH3 0xC18 JUMP JUMPDEST PUSH3 0x5CD JUMP JUMPDEST STOP JUMPDEST PUSH3 0x191 PUSH1 0x40 MLOAD DUP1 PUSH2 0x100 ADD PUSH1 0x40 MSTORE DUP1 PUSH1 0x0 PUSH1 0x1 PUSH1 0x1 PUSH1 0xA0 SHL SUB AND DUP2 MSTORE PUSH1 0x20 ADD PUSH1 0x0 PUSH1 0x1 PUSH1 0x1 PUSH1 0xA0 SHL SUB AND DUP2 MSTORE PUSH1 0x20 ADD PUSH1 0x60 DUP2 MSTORE PUSH1 0x20 ADD PUSH1 0x60 DUP2 MSTORE PUSH1 0x20 ADD PUSH1 0x0 DUP2 MSTORE PUSH1 0x20 ADD PUSH1 0x0 DUP2 MSTORE PUSH1 0x20 ADD PUSH1 0x0 DUP2 MSTORE PUSH1 0x20 ADD PUSH1 0x60 DUP2 MSTORE POP SWAP1 JUMP JUMPDEST DUP7 DUP7 DUP7 PUSH1 0x40 MLOAD PUSH3 0x1A2 SWAP1 PUSH3 0x87B JUMP JUMPDEST PUSH3 0x1B0 SWAP4 SWAP3 SWAP2 SWAP1 PUSH3 0xC45 JUMP JUMPDEST PUSH1 0x40 MLOAD DUP1 SWAP2 SUB SWAP1 PUSH1 0x0 CREATE DUP1 ISZERO DUP1 ISZERO PUSH3 0x1CD JUMPI RETURNDATASIZE PUSH1 0x0 DUP1 RETURNDATACOPY RETURNDATASIZE PUSH1 0x0 REVERT JUMPDEST POP PUSH1 0x2 PUSH1 0x0 PUSH2 0x100 EXP DUP2 SLOAD DUP2 PUSH1 0x1 PUSH1 0x1 PUSH1 0xA0 SHL SUB MUL NOT AND SWAP1 DUP4 PUSH1 0x1 PUSH1 0x1 PUSH1 0xA0 SHL SUB AND MUL OR SWAP1 SSTORE POP DUP4 DUP4 DUP4 PUSH1 0x40 MLOAD PUSH3 0x205 SWAP1 PUSH3 0x87B JUMP JUMPDEST PUSH3 0x213 SWAP4 SWAP3 SWAP2 SWAP1 PUSH3 0xC45 JUMP JUMPDEST PUSH1 0x40 MLOAD DUP1 SWAP2 SUB SWAP1 PUSH1 0x0 CREATE DUP1 ISZERO DUP1 ISZERO PUSH3 0x230 JUMPI RETURNDATASIZE PUSH1 0x0 DUP1 RETURNDATACOPY RETURNDATASIZE PUSH1 0x0 REVERT JUMPDEST POP PUSH1 0x3 DUP1 SLOAD PUSH1 0x1 PUSH1 0x1 PUSH1 0xA0 SHL SUB NOT AND PUSH1 0x1 PUSH1 0x1 PUSH1 0xA0 SHL SUB SWAP3 SWAP1 SWAP3 AND SWAP2 SWAP1 SWAP2 OR SWAP1 SSTORE PUSH1 0x1 DUP1 SLOAD SWAP1 PUSH1 0x0 PUSH3 0x263 DUP4 PUSH3 0xC95 JUMP JUMPDEST SWAP1 SWAP2 SSTORE POP POP PUSH1 0x2 DUP1 SLOAD PUSH1 0x1 DUP1 SLOAD PUSH1 0x0 SWAP1 DUP2 MSTORE PUSH1 0x4 PUSH1 0x20 MSTORE PUSH1 0x40 DUP1 DUP3 KECCAK256 DUP1 SLOAD PUSH1 0x1 PUSH1 0x1 PUSH1 0xA0 SHL SUB SWAP6 DUP7 AND PUSH1 0x1 PUSH1 0x1 PUSH1 0xA0 SHL SUB NOT SWAP2 DUP3 AND OR SWAP1 SWAP2 SSTORE PUSH1 0x3 SLOAD DUP5 SLOAD DUP5 MSTORE DUP3 DUP5 KECCAK256 DUP6 ADD DUP1 SLOAD SWAP2 SWAP1 SWAP7 AND SWAP2 AND OR SWAP1 SWAP4 SSTORE SWAP1 SLOAD DUP2 MSTORE KECCAK256 ADD PUSH3 0x2C6 DUP9 DUP3 PUSH3 0xD40 JUMP JUMPDEST POP PUSH1 0x1 SLOAD PUSH1 0x0 SWAP1 DUP2 MSTORE PUSH1 0x4 PUSH1 0x20 MSTORE PUSH1 0x40 SWAP1 KECCAK256 PUSH1 0x3 ADD PUSH3 0x2E7 DUP6 DUP3 PUSH3 0xD40 JUMP JUMPDEST POP PUSH1 0x1 SLOAD PUSH1 0x0 SWAP1 DUP2 MSTORE PUSH1 0x4 PUSH1 0x20 DUP2 SWAP1 MSTORE PUSH1 0x40 SWAP2 DUP3 SWAP1 KECCAK256 TIMESTAMP PUSH1 0x6 SWAP1 SWAP2 ADD SSTORE PUSH1 0x2 SLOAD SWAP2 MLOAD PUSH4 0x70A08231 PUSH1 0xE0 SHL DUP2 MSTORE ADDRESS SWAP2 DUP2 ADD SWAP2 SWAP1 SWAP2 MSTORE PUSH1 0x1 PUSH1 0x1 PUSH1 0xA0 SHL SUB SWAP1 SWAP2 AND SWAP1 PUSH4 0x70A08231 SWAP1 PUSH1 0x24 ADD PUSH1 0x20 PUSH1 0x40 MLOAD DUP1 DUP4 SUB DUP2 DUP7 GAS STATICCALL ISZERO DUP1 ISZERO PUSH3 0x34E JUMPI RETURNDATASIZE PUSH1 0x0 DUP1 RETURNDATACOPY RETURNDATASIZE PUSH1 0x0 REVERT JUMPDEST POP POP POP POP PUSH1 0x40 MLOAD RETURNDATASIZE PUSH1 0x1F NOT PUSH1 0x1F DUP3 ADD AND DUP3 ADD DUP1 PUSH1 0x40 MSTORE POP DUP2 ADD SWAP1 PUSH3 0x374 SWAP2 SWAP1 PUSH3 0xE0D JUMP JUMPDEST PUSH1 0x1 SLOAD PUSH1 0x0 SWAP1 DUP2 MSTORE PUSH1 0x4 PUSH1 0x20 DUP2 SWAP1 MSTORE PUSH1 0x40 SWAP2 DUP3 SWAP1 KECCAK256 DUP2 ADD SWAP3 SWAP1 SWAP3 SSTORE PUSH1 0x3 SLOAD SWAP1 MLOAD PUSH4 0x70A08231 PUSH1 0xE0 SHL DUP2 MSTORE ADDRESS SWAP3 DUP2 ADD SWAP3 SWAP1 SWAP3 MSTORE PUSH1 0x1 PUSH1 0x1 PUSH1 0xA0 SHL SUB AND SWAP1 PUSH4 0x70A08231 SWAP1 PUSH1 0x24 ADD PUSH1 0x20 PUSH1 0x40 MLOAD DUP1 DUP4 SUB DUP2 DUP7 GAS STATICCALL ISZERO DUP1 ISZERO PUSH3 0x3D7 JUMPI RETURNDATASIZE PUSH1 0x0 DUP1 RETURNDATACOPY RETURNDATASIZE PUSH1 0x0 REVERT JUMPDEST POP POP POP POP PUSH1 0x40 MLOAD RETURNDATASIZE PUSH1 0x1F NOT PUSH1 0x1F DUP3 ADD AND DUP3 ADD DUP1 PUSH1 0x40 MSTORE POP DUP2 ADD SWAP1 PUSH3 0x3FD SWAP2 SWAP1 PUSH3 0xE0D JUMP JUMPDEST PUSH1 0x1 DUP1 SLOAD PUSH1 0x0 SWAP1 DUP2 MSTORE PUSH1 0x4 PUSH1 0x20 SWAP1 DUP2 MSTORE PUSH1 0x40 DUP1 DUP4 KECCAK256 PUSH1 0x5 SWAP1 DUP2 ADD SWAP6 SWAP1 SWAP6 SSTORE CALLER DUP1 DUP5 MSTORE SWAP5 DUP3 MSTORE DUP1 DUP4 KECCAK256 DUP5 SLOAD DUP5 MSTORE SWAP1 SWAP2 MSTORE DUP1 DUP3 KECCAK256 SWAP9 SWAP1 SWAP9 SSTORE DUP2 SLOAD DUP2 MSTORE DUP8 DUP2 KECCAK256 DUP3 ADD SWAP5 SWAP1 SWAP5 SSTORE SLOAD DUP4 MSTORE SWAP5 SWAP1 SWAP2 KECCAK256 PUSH1 0x2 ADD DUP1 SLOAD PUSH1 0x1 PUSH1 0x1 PUSH1 0xA0 SHL SUB NOT AND SWAP1 SWAP5 OR SWAP1 SWAP4 SSTORE POP SWAP1 SWAP4 SWAP3 POP POP POP JUMP JUMPDEST PUSH1 0x4 PUSH1 0x20 MSTORE PUSH1 0x0 SWAP1 DUP2 MSTORE PUSH1 0x40 SWAP1 KECCAK256 DUP1 SLOAD PUSH1 0x1 DUP3 ADD SLOAD PUSH1 0x2 DUP4 ADD DUP1 SLOAD PUSH1 0x1 PUSH1 0x1 PUSH1 0xA0 SHL SUB SWAP4 DUP5 AND SWAP5 SWAP3 SWAP1 SWAP4 AND SWAP3 PUSH3 0x49C SWAP1 PUSH3 0xCB1 JUMP JUMPDEST DUP1 PUSH1 0x1F ADD PUSH1 0x20 DUP1 SWAP2 DIV MUL PUSH1 0x20 ADD PUSH1 0x40 MLOAD SWAP1 DUP2 ADD PUSH1 0x40 MSTORE DUP1 SWAP3 SWAP2 SWAP1 DUP2 DUP2 MSTORE PUSH1 0x20 ADD DUP3 DUP1 SLOAD PUSH3 0x4CA SWAP1 PUSH3 0xCB1 JUMP JUMPDEST DUP1 ISZERO PUSH3 0x51B JUMPI DUP1 PUSH1 0x1F LT PUSH3 0x4EF JUMPI PUSH2 0x100 DUP1 DUP4 SLOAD DIV MUL DUP4 MSTORE SWAP2 PUSH1 0x20 ADD SWAP2 PUSH3 0x51B JUMP JUMPDEST DUP3 ADD SWAP2 SWAP1 PUSH1 0x0 MSTORE PUSH1 0x20 PUSH1 0x0 KECCAK256 SWAP1 JUMPDEST DUP2 SLOAD DUP2 MSTORE SWAP1 PUSH1 0x1 ADD SWAP1 PUSH1 0x20 ADD DUP1 DUP4 GT PUSH3 0x4FD JUMPI DUP3 SWAP1 SUB PUSH1 0x1F AND DUP3 ADD SWAP2 JUMPDEST POP POP POP POP POP SWAP1 DUP1 PUSH1 0x3 ADD DUP1 SLOAD PUSH3 0x532 SWAP1 PUSH3 0xCB1 JUMP JUMPDEST DUP1 PUSH1 0x1F ADD PUSH1 0x20 DUP1 SWAP2 DIV MUL PUSH1 0x20 ADD PUSH1 0x40 MLOAD SWAP1 DUP2 ADD PUSH1 0x40 MSTORE DUP1 SWAP3 SWAP2 SWAP1 DUP2 DUP2 MSTORE PUSH1 0x20 ADD DUP3 DUP1 SLOAD PUSH3 0x560 SWAP1 PUSH3 0xCB1 JUMP JUMPDEST DUP1 ISZERO PUSH3 0x5B1 JUMPI DUP1 PUSH1 0x1F LT PUSH3 0x585 JUMPI PUSH2 0x100 DUP1 DUP4 SLOAD DIV MUL DUP4 MSTORE SWAP2 PUSH1 0x20 ADD SWAP2 PUSH3 0x5B1 JUMP JUMPDEST DUP3 ADD SWAP2 SWAP1 PUSH1 0x0 MSTORE PUSH1 0x20 PUSH1 0x0 KECCAK256 SWAP1 JUMPDEST DUP2 SLOAD DUP2 MSTORE SWAP1 PUSH1 0x1 ADD SWAP1 PUSH1 0x20 ADD DUP1 DUP4 GT PUSH3 0x593 JUMPI DUP3 SWAP1 SUB PUSH1 0x1F AND DUP3 ADD SWAP2 JUMPDEST POP POP POP POP POP SWAP1 DUP1 PUSH1 0x4 ADD SLOAD SWAP1 DUP1 PUSH1 0x5 ADD SLOAD SWAP1 DUP1 PUSH1 0x6 ADD SLOAD SWAP1 POP DUP8 JUMP JUMPDEST PUSH1 0x2 SLOAD PUSH1 0x40 MLOAD PUSH4 0xE1F21C67 PUSH1 0xE0 SHL DUP2 MSTORE PUSH1 0x1 PUSH1 0x1 PUSH1 0xA0 SHL SUB SWAP1 SWAP2 AND SWAP1 PUSH4 0xE1F21C67 SWAP1 PUSH3 0x603 SWAP1 CALLER SWAP1 ADDRESS SWAP1 DUP9 SWAP1 PUSH1 0x4 ADD PUSH3 0xE27 JUMP JUMPDEST PUSH1 0x20 PUSH1 0x40 MLOAD DUP1 DUP4 SUB DUP2 PUSH1 0x0 DUP8 GAS CALL ISZERO DUP1 ISZERO PUSH3 0x623 JUMPI RETURNDATASIZE PUSH1 0x0 DUP1 RETURNDATACOPY RETURNDATASIZE PUSH1 0x0 REVERT JUMPDEST POP POP POP POP PUSH1 0x40 MLOAD RETURNDATASIZE PUSH1 0x1F NOT PUSH1 0x1F DUP3 ADD AND DUP3 ADD DUP1 PUSH1 0x40 MSTORE POP DUP2 ADD SWAP1 PUSH3 0x649 SWAP2 SWAP1 PUSH3 0xE4B JUMP JUMPDEST POP PUSH1 0x2 SLOAD PUSH1 0x40 MLOAD PUSH4 0x23B872DD PUSH1 0xE0 SHL DUP2 MSTORE PUSH1 0x1 PUSH1 0x1 PUSH1 0xA0 SHL SUB SWAP1 SWAP2 AND SWAP1 PUSH4 0x23B872DD SWAP1 PUSH3 0x680 SWAP1 CALLER SWAP1 ADDRESS SWAP1 DUP9 SWAP1 PUSH1 0x4 ADD PUSH3 0xE27 JUMP JUMPDEST PUSH1 0x20 PUSH1 0x40 MLOAD DUP1 DUP4 SUB DUP2 PUSH1 0x0 DUP8 GAS CALL ISZERO DUP1 ISZERO PUSH3 0x6A0 JUMPI RETURNDATASIZE PUSH1 0x0 DUP1 RETURNDATACOPY RETURNDATASIZE PUSH1 0x0 REVERT JUMPDEST POP POP POP POP PUSH1 0x40 MLOAD RETURNDATASIZE PUSH1 0x1F NOT PUSH1 0x1F DUP3 ADD AND DUP3 ADD DUP1 PUSH1 0x40 MSTORE POP DUP2 ADD SWAP1 PUSH3 0x6C6 SWAP2 SWAP1 PUSH3 0xE4B JUMP JUMPDEST POP CALLER PUSH1 0x0 SWAP1 DUP2 MSTORE PUSH1 0x5 PUSH1 0x20 SWAP1 DUP2 MSTORE PUSH1 0x40 DUP1 DUP4 KECCAK256 DUP5 DUP5 MSTORE DUP3 MSTORE DUP1 DUP4 KECCAK256 DUP7 SWAP1 SSTORE PUSH1 0x1 SLOAD DUP4 MSTORE PUSH1 0x4 SWAP2 DUP3 SWAP1 MSTORE DUP3 KECCAK256 ADD DUP1 SLOAD DUP6 SWAP3 SWAP1 PUSH3 0x704 SWAP1 DUP5 SWAP1 PUSH3 0xE76 JUMP JUMPDEST SWAP1 SWAP2 SSTORE POP POP PUSH1 0x2 SLOAD PUSH1 0x40 MLOAD PUSH4 0xE1F21C67 PUSH1 0xE0 SHL DUP2 MSTORE PUSH1 0x1 PUSH1 0x1 PUSH1 0xA0 SHL SUB SWAP1 SWAP2 AND SWAP1 PUSH4 0xE1F21C67 SWAP1 PUSH3 0x73F SWAP1 CALLER SWAP1 ADDRESS SWAP1 DUP8 SWAP1 PUSH1 0x4 ADD PUSH3 0xE27 JUMP JUMPDEST PUSH1 0x20 PUSH1 0x40 MLOAD DUP1 DUP4 SUB DUP2 PUSH1 0x0 DUP8 GAS CALL ISZERO DUP1 ISZERO PUSH3 0x75F JUMPI RETURNDATASIZE PUSH1 0x0 DUP1 RETURNDATACOPY RETURNDATASIZE PUSH1 0x0 REVERT JUMPDEST POP POP POP POP PUSH1 0x40 MLOAD RETURNDATASIZE PUSH1 0x1F NOT PUSH1 0x1F DUP3 ADD AND DUP3 ADD DUP1 PUSH1 0x40 MSTORE POP DUP2 ADD SWAP1 PUSH3 0x785 SWAP2 SWAP1 PUSH3 0xE4B JUMP JUMPDEST POP PUSH1 0x2 SLOAD PUSH1 0x40 MLOAD PUSH4 0x23B872DD PUSH1 0xE0 SHL DUP2 MSTORE PUSH1 0x1 PUSH1 0x1 PUSH1 0xA0 SHL SUB SWAP1 SWAP2 AND SWAP1 PUSH4 0x23B872DD SWAP1 PUSH3 0x7BC SWAP1 CALLER SWAP1 ADDRESS SWAP1 DUP8 SWAP1 PUSH1 0x4 ADD PUSH3 0xE27 JUMP JUMPDEST PUSH1 0x20 PUSH1 0x40 MLOAD DUP1 DUP4 SUB DUP2 PUSH1 0x0 DUP8 GAS CALL ISZERO DUP1 ISZERO PUSH3 0x7DC JUMPI RETURNDATASIZE PUSH1 0x0 DUP1 RETURNDATACOPY RETURNDATASIZE PUSH1 0x0 REVERT JUMPDEST POP POP POP POP PUSH1 0x40 MLOAD RETURNDATASIZE PUSH1 0x1F NOT PUSH1 0x1F DUP3 ADD AND DUP3 ADD DUP1 PUSH1 0x40 MSTORE POP DUP2 ADD SWAP1 PUSH3 0x802 SWAP2 SWAP1 PUSH3 0xE4B JUMP JUMPDEST POP CALLER PUSH1 0x0 SWAP1 DUP2 MSTORE PUSH1 0x5 PUSH1 0x20 DUP2 DUP2 MSTORE PUSH1 0x40 DUP1 DUP5 KECCAK256 DUP6 DUP6 MSTORE DUP3 MSTORE DUP1 DUP5 KECCAK256 PUSH1 0x1 SWAP1 DUP2 ADD DUP8 SWAP1 SSTORE SLOAD DUP5 MSTORE PUSH1 0x4 SWAP1 SWAP2 MSTORE DUP3 KECCAK256 ADD DUP1 SLOAD DUP5 SWAP3 SWAP1 PUSH3 0x842 SWAP1 DUP5 SWAP1 PUSH3 0xE76 JUMP JUMPDEST SWAP1 SWAP2 SSTORE POP POP CALLER PUSH1 0x0 DUP2 DUP2 MSTORE PUSH1 0x5 PUSH1 0x20 SWAP1 DUP2 MSTORE PUSH1 0x40 DUP1 DUP4 KECCAK256 SWAP5 DUP4 MSTORE SWAP4 SWAP1 MSTORE SWAP2 SWAP1 SWAP2 KECCAK256 PUSH1 0x2 ADD DUP1 SLOAD PUSH1 0x1 PUSH1 0x1 PUSH1 0xA0 SHL SUB NOT AND SWAP1 SWAP2 OR SWAP1 SSTORE POP POP JUMP JUMPDEST PUSH2 0xAFE DUP1 PUSH3 0xE93 DUP4 CODECOPY ADD SWAP1 JUMP JUMPDEST PUSH4 0x4E487B71 PUSH1 0xE0 SHL PUSH1 0x0 MSTORE PUSH1 0x41 PUSH1 0x4 MSTORE PUSH1 0x24 PUSH1 0x0 REVERT JUMPDEST PUSH1 0x0 DUP3 PUSH1 0x1F DUP4 ADD SLT PUSH3 0x8B1 JUMPI PUSH1 0x0 DUP1 REVERT JUMPDEST DUP2 CALLDATALOAD PUSH8 0xFFFFFFFFFFFFFFFF DUP1 DUP3 GT ISZERO PUSH3 0x8CF JUMPI PUSH3 0x8CF PUSH3 0x889 JUMP JUMPDEST PUSH1 0x40 MLOAD PUSH1 0x1F DUP4 ADD PUSH1 0x1F NOT SWAP1 DUP2 AND PUSH1 0x3F ADD AND DUP2 ADD SWAP1 DUP3 DUP3 GT DUP2 DUP4 LT OR ISZERO PUSH3 0x8FA JUMPI PUSH3 0x8FA PUSH3 0x889 JUMP JUMPDEST DUP2 PUSH1 0x40 MSTORE DUP4 DUP2 MSTORE DUP7 PUSH1 0x20 DUP6 DUP9 ADD ADD GT ISZERO PUSH3 0x914 JUMPI PUSH1 0x0 DUP1 REVERT JUMPDEST DUP4 PUSH1 0x20 DUP8 ADD PUSH1 0x20 DUP4 ADD CALLDATACOPY PUSH1 0x0 PUSH1 0x20 DUP6 DUP4 ADD ADD MSTORE DUP1 SWAP5 POP POP POP POP POP SWAP3 SWAP2 POP POP JUMP JUMPDEST PUSH1 0x0 DUP1 PUSH1 0x0 DUP1 PUSH1 0x0 DUP1 PUSH1 0xC0 DUP8 DUP10 SUB SLT ISZERO PUSH3 0x94E JUMPI PUSH1 0x0 DUP1 REVERT JUMPDEST DUP7 CALLDATALOAD PUSH8 0xFFFFFFFFFFFFFFFF DUP1 DUP3 GT ISZERO PUSH3 0x967 JUMPI PUSH1 0x0 DUP1 REVERT JUMPDEST PUSH3 0x975 DUP11 DUP4 DUP12 ADD PUSH3 0x89F JUMP JUMPDEST SWAP8 POP PUSH1 0x20 DUP10 ADD CALLDATALOAD SWAP2 POP DUP1 DUP3 GT ISZERO PUSH3 0x98C JUMPI PUSH1 0x0 DUP1 REVERT JUMPDEST PUSH3 0x99A DUP11 DUP4 DUP12 ADD PUSH3 0x89F JUMP JUMPDEST SWAP7 POP PUSH1 0x40 DUP10 ADD CALLDATALOAD SWAP6 POP PUSH1 0x60 DUP10 ADD CALLDATALOAD SWAP2 POP DUP1 DUP3 GT ISZERO PUSH3 0x9B8 JUMPI PUSH1 0x0 DUP1 REVERT JUMPDEST PUSH3 0x9C6 DUP11 DUP4 DUP12 ADD PUSH3 0x89F JUMP JUMPDEST SWAP5 POP PUSH1 0x80 DUP10 ADD CALLDATALOAD SWAP2 POP DUP1 DUP3 GT ISZERO PUSH3 0x9DD JUMPI PUSH1 0x0 DUP1 REVERT JUMPDEST POP PUSH3 0x9EC DUP10 DUP3 DUP11 ADD PUSH3 0x89F JUMP JUMPDEST SWAP3 POP POP PUSH1 0xA0 DUP8 ADD CALLDATALOAD SWAP1 POP SWAP3 SWAP6 POP SWAP3 SWAP6 POP SWAP3 SWAP6 JUMP JUMPDEST PUSH1 0x0 DUP2 MLOAD DUP1 DUP5 MSTORE PUSH1 0x0 JUMPDEST DUP2 DUP2 LT ISZERO PUSH3 0xA28 JUMPI PUSH1 0x20 DUP2 DUP6 ADD DUP2 ADD MLOAD DUP7 DUP4 ADD DUP3 ADD MSTORE ADD PUSH3 0xA0A JUMP JUMPDEST POP PUSH1 0x0 PUSH1 0x20 DUP3 DUP7 ADD ADD MSTORE PUSH1 0x20 PUSH1 0x1F NOT PUSH1 0x1F DUP4 ADD AND DUP6 ADD ADD SWAP2 POP POP SWAP3 SWAP2 POP POP JUMP JUMPDEST PUSH1 0x0 DUP2 MLOAD DUP1 DUP5 MSTORE PUSH1 0x20 DUP1 DUP6 ADD SWAP5 POP DUP1 DUP5 ADD PUSH1 0x0 JUMPDEST DUP4 DUP2 LT ISZERO PUSH3 0xA99 JUMPI DUP2 MLOAD DUP1 MLOAD DUP9 MSTORE DUP4 DUP2 ADD MLOAD DUP5 DUP10 ADD MSTORE PUSH1 0x40 SWAP1 DUP2 ADD MLOAD PUSH1 0x1 PUSH1 0x1 PUSH1 0xA0 SHL SUB AND SWAP1 DUP9 ADD MSTORE PUSH1 0x60 SWAP1 SWAP7 ADD SWAP6 SWAP1 DUP3 ADD SWAP1 PUSH1 0x1 ADD PUSH3 0xA5C JUMP JUMPDEST POP SWAP5 SWAP6 SWAP5 POP POP POP POP POP JUMP JUMPDEST PUSH1 0x20 DUP2 MSTORE PUSH3 0xABF PUSH1 0x20 DUP3 ADD DUP4 MLOAD PUSH1 0x1 PUSH1 0x1 PUSH1 0xA0 SHL SUB AND SWAP1 MSTORE JUMP JUMPDEST PUSH1 0x0 PUSH1 0x20 DUP4 ADD MLOAD PUSH3 0xADC PUSH1 0x40 DUP5 ADD DUP3 PUSH1 0x1 PUSH1 0x1 PUSH1 0xA0 SHL SUB AND SWAP1 MSTORE JUMP JUMPDEST POP PUSH1 0x40 DUP4 ADD MLOAD PUSH2 0x100 DUP1 PUSH1 0x60 DUP6 ADD MSTORE PUSH3 0xAFB PUSH2 0x120 DUP6 ADD DUP4 PUSH3 0xA00 JUMP JUMPDEST SWAP2 POP PUSH1 0x60 DUP6 ADD MLOAD PUSH1 0x1F NOT DUP1 DUP7 DUP6 SUB ADD PUSH1 0x80 DUP8 ADD MSTORE PUSH3 0xB1B DUP5 DUP4 PUSH3 0xA00 JUMP JUMPDEST SWAP4 POP PUSH1 0x80 DUP8 ADD MLOAD PUSH1 0xA0 DUP8 ADD MSTORE PUSH1 0xA0 DUP8 ADD MLOAD PUSH1 0xC0 DUP8 ADD MSTORE PUSH1 0xC0 DUP8 ADD MLOAD PUSH1 0xE0 DUP8 ADD MSTORE PUSH1 0xE0 DUP8 ADD MLOAD SWAP2 POP DUP1 DUP7 DUP6 SUB ADD DUP4 DUP8 ADD MSTORE POP PUSH3 0xB58 DUP4 DUP3 PUSH3 0xA48 JUMP JUMPDEST SWAP7 SWAP6 POP POP POP POP POP POP JUMP JUMPDEST PUSH1 0x0 PUSH1 0x20 DUP3 DUP5 SUB SLT ISZERO PUSH3 0xB75 JUMPI PUSH1 0x0 DUP1 REVERT JUMPDEST POP CALLDATALOAD SWAP2 SWAP1 POP JUMP JUMPDEST PUSH1 0x1 PUSH1 0x1 PUSH1 0xA0 SHL SUB DUP9 DUP2 AND DUP3 MSTORE DUP8 AND PUSH1 0x20 DUP3 ADD MSTORE PUSH1 0xE0 PUSH1 0x40 DUP3 ADD DUP2 SWAP1 MSTORE PUSH1 0x0 SWAP1 PUSH3 0xBAA SWAP1 DUP4 ADD DUP9 PUSH3 0xA00 JUMP JUMPDEST DUP3 DUP2 SUB PUSH1 0x60 DUP5 ADD MSTORE PUSH3 0xBBE DUP2 DUP9 PUSH3 0xA00 JUMP JUMPDEST PUSH1 0x80 DUP5 ADD SWAP7 SWAP1 SWAP7 MSTORE POP POP PUSH1 0xA0 DUP2 ADD SWAP3 SWAP1 SWAP3 MSTORE PUSH1 0xC0 SWAP1 SWAP2 ADD MSTORE SWAP5 SWAP4 POP POP POP POP JUMP JUMPDEST PUSH1 0x0 DUP1 PUSH1 0x40 DUP4 DUP6 SUB SLT ISZERO PUSH3 0xBF2 JUMPI PUSH1 0x0 DUP1 REVERT JUMPDEST DUP3 CALLDATALOAD PUSH1 0x1 PUSH1 0x1 PUSH1 0xA0 SHL SUB DUP2 AND DUP2 EQ PUSH3 0xC0A JUMPI PUSH1 0x0 DUP1 REVERT JUMPDEST SWAP5 PUSH1 0x20 SWAP4 SWAP1 SWAP4 ADD CALLDATALOAD SWAP4 POP POP POP JUMP JUMPDEST PUSH1 0x0 DUP1 PUSH1 0x0 PUSH1 0x60 DUP5 DUP7 SUB SLT ISZERO PUSH3 0xC2E JUMPI PUSH1 0x0 DUP1 REVERT JUMPDEST POP POP DUP2 CALLDATALOAD SWAP4 PUSH1 0x20 DUP4 ADD CALLDATALOAD SWAP4 POP PUSH1 0x40 SWAP1 SWAP3 ADD CALLDATALOAD SWAP2 SWAP1 POP JUMP JUMPDEST PUSH1 0x60 DUP2 MSTORE PUSH1 0x0 PUSH3 0xC5A PUSH1 0x60 DUP4 ADD DUP7 PUSH3 0xA00 JUMP JUMPDEST DUP3 DUP2 SUB PUSH1 0x20 DUP5 ADD MSTORE PUSH3 0xC6E DUP2 DUP7 PUSH3 0xA00 JUMP JUMPDEST SWAP2 POP POP DUP3 PUSH1 0x40 DUP4 ADD MSTORE SWAP5 SWAP4 POP POP POP POP JUMP JUMPDEST PUSH4 0x4E487B71 PUSH1 0xE0 SHL PUSH1 0x0 MSTORE PUSH1 0x11 PUSH1 0x4 MSTORE PUSH1 0x24 PUSH1 0x0 REVERT JUMPDEST PUSH1 0x0 PUSH1 0x1 DUP3 ADD PUSH3 0xCAA JUMPI PUSH3 0xCAA PUSH3 0xC7F JUMP JUMPDEST POP PUSH1 0x1 ADD SWAP1 JUMP JUMPDEST PUSH1 0x1 DUP2 DUP2 SHR SWAP1 DUP3 AND DUP1 PUSH3 0xCC6 JUMPI PUSH1 0x7F DUP3 AND SWAP2 POP JUMPDEST PUSH1 0x20 DUP3 LT DUP2 SUB PUSH3 0xCE7 JUMPI PUSH4 0x4E487B71 PUSH1 0xE0 SHL PUSH1 0x0 MSTORE PUSH1 0x22 PUSH1 0x4 MSTORE PUSH1 0x24 PUSH1 0x0 REVERT JUMPDEST POP SWAP2 SWAP1 POP JUMP JUMPDEST PUSH1 0x1F DUP3 GT ISZERO PUSH3 0xD3B JUMPI PUSH1 0x0 DUP2 DUP2 MSTORE PUSH1 0x20 DUP2 KECCAK256 PUSH1 0x1F DUP6 ADD PUSH1 0x5 SHR DUP2 ADD PUSH1 0x20 DUP7 LT ISZERO PUSH3 0xD16 JUMPI POP DUP1 JUMPDEST PUSH1 0x1F DUP6 ADD PUSH1 0x5 SHR DUP3 ADD SWAP2 POP JUMPDEST DUP2 DUP2 LT ISZERO PUSH3 0xD37 JUMPI DUP3 DUP2 SSTORE PUSH1 0x1 ADD PUSH3 0xD22 JUMP JUMPDEST POP POP POP JUMPDEST POP POP POP JUMP JUMPDEST DUP2 MLOAD PUSH8 0xFFFFFFFFFFFFFFFF DUP2 GT ISZERO PUSH3 0xD5D JUMPI PUSH3 0xD5D PUSH3 0x889 JUMP JUMPDEST PUSH3 0xD75 DUP2 PUSH3 0xD6E DUP5 SLOAD PUSH3 0xCB1 JUMP JUMPDEST DUP5 PUSH3 0xCED JUMP JUMPDEST PUSH1 0x20 DUP1 PUSH1 0x1F DUP4 GT PUSH1 0x1 DUP2 EQ PUSH3 0xDAD JUMPI PUSH1 0x0 DUP5 ISZERO PUSH3 0xD94 JUMPI POP DUP6 DUP4 ADD MLOAD JUMPDEST PUSH1 0x0 NOT PUSH1 0x3 DUP7 SWAP1 SHL SHR NOT AND PUSH1 0x1 DUP6 SWAP1 SHL OR DUP6 SSTORE PUSH3 0xD37 JUMP JUMPDEST PUSH1 0x0 DUP6 DUP2 MSTORE PUSH1 0x20 DUP2 KECCAK256 PUSH1 0x1F NOT DUP7 AND SWAP2 JUMPDEST DUP3 DUP2 LT ISZERO PUSH3 0xDDE JUMPI DUP9 DUP7 ADD MLOAD DUP3 SSTORE SWAP5 DUP5 ADD SWAP5 PUSH1 0x1 SWAP1 SWAP2 ADD SWAP1 DUP5 ADD PUSH3 0xDBD JUMP JUMPDEST POP DUP6 DUP3 LT ISZERO PUSH3 0xDFD JUMPI DUP8 DUP6 ADD MLOAD PUSH1 0x0 NOT PUSH1 0x3 DUP9 SWAP1 SHL PUSH1 0xF8 AND SHR NOT AND DUP2 SSTORE JUMPDEST POP POP POP POP POP PUSH1 0x1 SWAP1 DUP2 SHL ADD SWAP1 SSTORE POP JUMP JUMPDEST PUSH1 0x0 PUSH1 0x20 DUP3 DUP5 SUB SLT ISZERO PUSH3 0xE20 JUMPI PUSH1 0x0 DUP1 REVERT JUMPDEST POP MLOAD SWAP2 SWAP1 POP JUMP JUMPDEST PUSH1 0x1 PUSH1 0x1 PUSH1 0xA0 SHL SUB SWAP4 DUP5 AND DUP2 MSTORE SWAP2 SWAP1 SWAP3 AND PUSH1 0x20 DUP3 ADD MSTORE PUSH1 0x40 DUP2 ADD SWAP2 SWAP1 SWAP2 MSTORE PUSH1 0x60 ADD SWAP1 JUMP JUMPDEST PUSH1 0x0 PUSH1 0x20 DUP3 DUP5 SUB SLT ISZERO PUSH3 0xE5E JUMPI PUSH1 0x0 DUP1 REVERT JUMPDEST DUP2 MLOAD DUP1 ISZERO ISZERO DUP2 EQ PUSH3 0xE6F JUMPI PUSH1 0x0 DUP1 REVERT JUMPDEST SWAP4 SWAP3 POP POP POP JUMP JUMPDEST DUP1 DUP3 ADD DUP1 DUP3 GT ISZERO PUSH3 0xE8C JUMPI PUSH3 0xE8C PUSH3 0xC7F JUMP JUMPDEST SWAP3 SWAP2 POP POP JUMP INVALID PUSH1 0x80 PUSH1 0x40 MSTORE PUSH1 0x12 PUSH1 0x2 SSTORE CALLVALUE DUP1 ISZERO PUSH3 0x16 JUMPI PUSH1 0x0 DUP1 REVERT JUMPDEST POP PUSH1 0x40 MLOAD PUSH3 0xAFE CODESIZE SUB DUP1 PUSH3 0xAFE DUP4 CODECOPY DUP2 ADD PUSH1 0x40 DUP2 SWAP1 MSTORE PUSH3 0x39 SWAP2 PUSH3 0x150 JUMP JUMPDEST PUSH1 0x0 PUSH3 0x47 DUP5 DUP3 PUSH3 0x252 JUMP JUMPDEST POP PUSH1 0x1 PUSH3 0x56 DUP4 DUP3 PUSH3 0x252 JUMP JUMPDEST POP PUSH1 0x3 DUP2 SWAP1 SSTORE CALLER PUSH1 0x0 DUP2 DUP2 MSTORE PUSH1 0x5 PUSH1 0x20 MSTORE PUSH1 0x40 SWAP1 KECCAK256 SWAP2 SWAP1 SWAP2 SSTORE PUSH1 0x4 DUP1 SLOAD PUSH1 0x1 PUSH1 0x1 PUSH1 0xA0 SHL SUB NOT AND SWAP1 SWAP2 OR SWAP1 SSTORE POP PUSH3 0x31E SWAP1 POP JUMP JUMPDEST PUSH4 0x4E487B71 PUSH1 0xE0 SHL PUSH1 0x0 MSTORE PUSH1 0x41 PUSH1 0x4 MSTORE PUSH1 0x24 PUSH1 0x0 REVERT JUMPDEST PUSH1 0x0 DUP3 PUSH1 0x1F DUP4 ADD SLT PUSH3 0xB3 JUMPI PUSH1 0x0 DUP1 REVERT JUMPDEST DUP2 MLOAD PUSH1 0x1 PUSH1 0x1 PUSH1 0x40 SHL SUB DUP1 DUP3 GT ISZERO PUSH3 0xD0 JUMPI PUSH3 0xD0 PUSH3 0x8B JUMP JUMPDEST PUSH1 0x40 MLOAD PUSH1 0x1F DUP4 ADD PUSH1 0x1F NOT SWAP1 DUP2 AND PUSH1 0x3F ADD AND DUP2 ADD SWAP1 DUP3 DUP3 GT DUP2 DUP4 LT OR ISZERO PUSH3 0xFB JUMPI PUSH3 0xFB PUSH3 0x8B JUMP JUMPDEST DUP2 PUSH1 0x40 MSTORE DUP4 DUP2 MSTORE PUSH1 0x20 SWAP3 POP DUP7 DUP4 DUP6 DUP9 ADD ADD GT ISZERO PUSH3 0x118 JUMPI PUSH1 0x0 DUP1 REVERT JUMPDEST PUSH1 0x0 SWAP2 POP JUMPDEST DUP4 DUP3 LT ISZERO PUSH3 0x13C JUMPI DUP6 DUP3 ADD DUP4 ADD MLOAD DUP2 DUP4 ADD DUP5 ADD MSTORE SWAP1 DUP3 ADD SWAP1 PUSH3 0x11D JUMP JUMPDEST PUSH1 0x0 SWAP4 DUP2 ADD SWAP1 SWAP3 ADD SWAP3 SWAP1 SWAP3 MSTORE SWAP5 SWAP4 POP POP POP POP JUMP JUMPDEST PUSH1 0x0 DUP1 PUSH1 0x0 PUSH1 0x60 DUP5 DUP7 SUB SLT ISZERO PUSH3 0x166 JUMPI PUSH1 0x0 DUP1 REVERT JUMPDEST DUP4 MLOAD PUSH1 0x1 PUSH1 0x1 PUSH1 0x40 SHL SUB DUP1 DUP3 GT ISZERO PUSH3 0x17E JUMPI PUSH1 0x0 DUP1 REVERT JUMPDEST PUSH3 0x18C DUP8 DUP4 DUP9 ADD PUSH3 0xA1 JUMP JUMPDEST SWAP5 POP PUSH1 0x20 DUP7 ADD MLOAD SWAP2 POP DUP1 DUP3 GT ISZERO PUSH3 0x1A3 JUMPI PUSH1 0x0 DUP1 REVERT JUMPDEST POP PUSH3 0x1B2 DUP7 DUP3 DUP8 ADD PUSH3 0xA1 JUMP JUMPDEST SWAP3 POP POP PUSH1 0x40 DUP5 ADD MLOAD SWAP1 POP SWAP3 POP SWAP3 POP SWAP3 JUMP JUMPDEST PUSH1 0x1 DUP2 DUP2 SHR SWAP1 DUP3 AND DUP1 PUSH3 0x1D8 JUMPI PUSH1 0x7F DUP3 AND SWAP2 POP JUMPDEST PUSH1 0x20 DUP3 LT DUP2 SUB PUSH3 0x1F9 JUMPI PUSH4 0x4E487B71 PUSH1 0xE0 SHL PUSH1 0x0 MSTORE PUSH1 0x22 PUSH1 0x4 MSTORE PUSH1 0x24 PUSH1 0x0 REVERT JUMPDEST POP SWAP2 SWAP1 POP JUMP JUMPDEST PUSH1 0x1F DUP3 GT ISZERO PUSH3 0x24D JUMPI PUSH1 0x0 DUP2 DUP2 MSTORE PUSH1 0x20 DUP2 KECCAK256 PUSH1 0x1F DUP6 ADD PUSH1 0x5 SHR DUP2 ADD PUSH1 0x20 DUP7 LT ISZERO PUSH3 0x228 JUMPI POP DUP1 JUMPDEST PUSH1 0x1F DUP6 ADD PUSH1 0x5 SHR DUP3 ADD SWAP2 POP JUMPDEST DUP2 DUP2 LT ISZERO PUSH3 0x249 JUMPI DUP3 DUP2 SSTORE PUSH1 0x1 ADD PUSH3 0x234 JUMP JUMPDEST POP POP POP JUMPDEST POP POP POP JUMP JUMPDEST DUP2 MLOAD PUSH1 0x1 PUSH1 0x1 PUSH1 0x40 SHL SUB DUP2 GT ISZERO PUSH3 0x26E JUMPI PUSH3 0x26E PUSH3 0x8B JUMP JUMPDEST PUSH3 0x286 DUP2 PUSH3 0x27F DUP5 SLOAD PUSH3 0x1C3 JUMP JUMPDEST DUP5 PUSH3 0x1FF JUMP JUMPDEST PUSH1 0x20 DUP1 PUSH1 0x1F DUP4 GT PUSH1 0x1 DUP2 EQ PUSH3 0x2BE JUMPI PUSH1 0x0 DUP5 ISZERO PUSH3 0x2A5 JUMPI POP DUP6 DUP4 ADD MLOAD JUMPDEST PUSH1 0x0 NOT PUSH1 0x3 DUP7 SWAP1 SHL SHR NOT AND PUSH1 0x1 DUP6 SWAP1 SHL OR DUP6 SSTORE PUSH3 0x249 JUMP JUMPDEST PUSH1 0x0 DUP6 DUP2 MSTORE PUSH1 0x20 DUP2 KECCAK256 PUSH1 0x1F NOT DUP7 AND SWAP2 JUMPDEST DUP3 DUP2 LT ISZERO PUSH3 0x2EF JUMPI DUP9 DUP7 ADD MLOAD DUP3 SSTORE SWAP5 DUP5 ADD SWAP5 PUSH1 0x1 SWAP1 SWAP2 ADD SWAP1 DUP5 ADD PUSH3 0x2CE JUMP JUMPDEST POP DUP6 DUP3 LT ISZERO PUSH3 0x30E JUMPI DUP8 DUP6 ADD MLOAD PUSH1 0x0 NOT PUSH1 0x3 DUP9 SWAP1 SHL PUSH1 0xF8 AND SHR NOT AND DUP2 SSTORE JUMPDEST POP POP POP POP POP PUSH1 0x1 SWAP1 DUP2 SHL ADD SWAP1 SSTORE POP JUMP JUMPDEST PUSH2 0x7D0 DUP1 PUSH3 0x32E PUSH1 0x0 CODECOPY PUSH1 0x0 RETURN INVALID PUSH1 0x80 PUSH1 0x40 MSTORE CALLVALUE DUP1 ISZERO PUSH2 0x10 JUMPI PUSH1 0x0 DUP1 REVERT JUMPDEST POP PUSH1 0x4 CALLDATASIZE LT PUSH2 0xA9 JUMPI PUSH1 0x0 CALLDATALOAD PUSH1 0xE0 SHR DUP1 PUSH4 0x70A08231 GT PUSH2 0x71 JUMPI DUP1 PUSH4 0x70A08231 EQ PUSH2 0x11D JUMPI DUP1 PUSH4 0x95D89B41 EQ PUSH2 0x146 JUMPI DUP1 PUSH4 0xA0712D68 EQ PUSH2 0x14E JUMPI DUP1 PUSH4 0xA9059CBB EQ PUSH2 0x161 JUMPI DUP1 PUSH4 0xDD62ED3E EQ PUSH2 0x174 JUMPI DUP1 PUSH4 0xE1F21C67 EQ PUSH2 0x1AD JUMPI PUSH1 0x0 DUP1 REVERT JUMPDEST DUP1 PUSH4 0x6FDDE03 EQ PUSH2 0xAE JUMPI DUP1 PUSH4 0x18160DDD EQ PUSH2 0xCC JUMPI DUP1 PUSH4 0x23B872DD EQ PUSH2 0xDE JUMPI DUP1 PUSH4 0x313CE567 EQ PUSH2 0x101 JUMPI DUP1 PUSH4 0x42966C68 EQ PUSH2 0x10A JUMPI JUMPDEST PUSH1 0x0 DUP1 REVERT JUMPDEST PUSH2 0xB6 PUSH2 0x1C0 JUMP JUMPDEST PUSH1 0x40 MLOAD PUSH2 0xC3 SWAP2 SWAP1 PUSH2 0x5EB JUMP JUMPDEST PUSH1 0x40 MLOAD DUP1 SWAP2 SUB SWAP1 RETURN JUMPDEST PUSH1 0x3 SLOAD JUMPDEST PUSH1 0x40 MLOAD SWAP1 DUP2 MSTORE PUSH1 0x20 ADD PUSH2 0xC3 JUMP JUMPDEST PUSH2 0xF1 PUSH2 0xEC CALLDATASIZE PUSH1 0x4 PUSH2 0x650 JUMP JUMPDEST PUSH2 0x24E JUMP JUMPDEST PUSH1 0x40 MLOAD SWAP1 ISZERO ISZERO DUP2 MSTORE PUSH1 0x20 ADD PUSH2 0xC3 JUMP JUMPDEST PUSH2 0xD0 PUSH1 0x2 SLOAD DUP2 JUMP JUMPDEST PUSH2 0xD0 PUSH2 0x118 CALLDATASIZE PUSH1 0x4 PUSH2 0x68C JUMP JUMPDEST PUSH2 0x384 JUMP JUMPDEST PUSH2 0xD0 PUSH2 0x12B CALLDATASIZE PUSH1 0x4 PUSH2 0x6A5 JUMP JUMPDEST PUSH1 0x1 PUSH1 0x1 PUSH1 0xA0 SHL SUB AND PUSH1 0x0 SWAP1 DUP2 MSTORE PUSH1 0x5 PUSH1 0x20 MSTORE PUSH1 0x40 SWAP1 KECCAK256 SLOAD SWAP1 JUMP JUMPDEST PUSH2 0xB6 PUSH2 0x42C JUMP JUMPDEST PUSH2 0xD0 PUSH2 0x15C CALLDATASIZE PUSH1 0x4 PUSH2 0x68C JUMP JUMPDEST PUSH2 0x439 JUMP JUMPDEST PUSH2 0xF1 PUSH2 0x16F CALLDATASIZE PUSH1 0x4 PUSH2 0x6C7 JUMP JUMPDEST PUSH2 0x4CC JUMP JUMPDEST PUSH2 0xD0 PUSH2 0x182 CALLDATASIZE PUSH1 0x4 PUSH2 0x6F1 JUMP JUMPDEST PUSH1 0x1 PUSH1 0x1 PUSH1 0xA0 SHL SUB SWAP2 DUP3 AND PUSH1 0x0 SWAP1 DUP2 MSTORE PUSH1 0x6 PUSH1 0x20 SWAP1 DUP2 MSTORE PUSH1 0x40 DUP1 DUP4 KECCAK256 SWAP4 SWAP1 SWAP5 AND DUP3 MSTORE SWAP2 SWAP1 SWAP2 MSTORE KECCAK256 SLOAD SWAP1 JUMP JUMPDEST PUSH2 0xF1 PUSH2 0x1BB CALLDATASIZE PUSH1 0x4 PUSH2 0x650 JUMP JUMPDEST PUSH2 0x583 JUMP JUMPDEST PUSH1 0x0 DUP1 SLOAD PUSH2 0x1CD SWAP1 PUSH2 0x724 JUMP JUMPDEST DUP1 PUSH1 0x1F ADD PUSH1 0x20 DUP1 SWAP2 DIV MUL PUSH1 0x20 ADD PUSH1 0x40 MLOAD SWAP1 DUP2 ADD PUSH1 0x40 MSTORE DUP1 SWAP3 SWAP2 SWAP1 DUP2 DUP2 MSTORE PUSH1 0x20 ADD DUP3 DUP1 SLOAD PUSH2 0x1F9 SWAP1 PUSH2 0x724 JUMP JUMPDEST DUP1 ISZERO PUSH2 0x246 JUMPI DUP1 PUSH1 0x1F LT PUSH2 0x21B JUMPI PUSH2 0x100 DUP1 DUP4 SLOAD DIV MUL DUP4 MSTORE SWAP2 PUSH1 0x20 ADD SWAP2 PUSH2 0x246 JUMP JUMPDEST DUP3 ADD SWAP2 SWAP1 PUSH1 0x0 MSTORE PUSH1 0x20 PUSH1 0x0 KECCAK256 SWAP1 JUMPDEST DUP2 SLOAD DUP2 MSTORE SWAP1 PUSH1 0x1 ADD SWAP1 PUSH1 0x20 ADD DUP1 DUP4 GT PUSH2 0x229 JUMPI DUP3 SWAP1 SUB PUSH1 0x1F AND DUP3 ADD SWAP2 JUMPDEST POP POP POP POP POP DUP2 JUMP JUMPDEST PUSH1 0x1 PUSH1 0x1 PUSH1 0xA0 SHL SUB DUP4 AND PUSH1 0x0 DUP2 DUP2 MSTORE PUSH1 0x6 PUSH1 0x20 SWAP1 DUP2 MSTORE PUSH1 0x40 DUP1 DUP4 KECCAK256 CALLER DUP5 MSTORE DUP3 MSTORE DUP1 DUP4 KECCAK256 SLOAD SWAP4 DUP4 MSTORE PUSH1 0x5 SWAP1 SWAP2 MSTORE DUP2 KECCAK256 SLOAD SWAP1 SWAP2 SWAP1 DUP4 GT DUP1 ISZERO SWAP1 PUSH2 0x28F JUMPI POP DUP3 DUP2 LT ISZERO JUMPDEST PUSH2 0x298 JUMPI PUSH1 0x0 DUP1 REVERT JUMPDEST PUSH1 0x1 PUSH1 0x1 PUSH1 0xA0 SHL SUB DUP5 AND PUSH1 0x0 SWAP1 DUP2 MSTORE PUSH1 0x5 PUSH1 0x20 MSTORE PUSH1 0x40 DUP2 KECCAK256 DUP1 SLOAD DUP6 SWAP3 SWAP1 PUSH2 0x2C0 SWAP1 DUP5 SWAP1 PUSH2 0x774 JUMP JUMPDEST SWAP1 SWAP2 SSTORE POP POP PUSH1 0x1 PUSH1 0x1 PUSH1 0xA0 SHL SUB DUP6 AND PUSH1 0x0 SWAP1 DUP2 MSTORE PUSH1 0x5 PUSH1 0x20 MSTORE PUSH1 0x40 DUP2 KECCAK256 DUP1 SLOAD DUP6 SWAP3 SWAP1 PUSH2 0x2ED SWAP1 DUP5 SWAP1 PUSH2 0x787 JUMP JUMPDEST SWAP1 SWAP2 SSTORE POP POP PUSH1 0x1 PUSH1 0x1 PUSH1 0xA0 SHL SUB DUP6 AND PUSH1 0x0 SWAP1 DUP2 MSTORE PUSH1 0x6 PUSH1 0x20 SWAP1 DUP2 MSTORE PUSH1 0x40 DUP1 DUP4 KECCAK256 CALLER DUP5 MSTORE SWAP1 SWAP2 MSTORE DUP2 KECCAK256 DUP1 SLOAD DUP6 SWAP3 SWAP1 PUSH2 0x325 SWAP1 DUP5 SWAP1 PUSH2 0x787 JUMP JUMPDEST SWAP3 POP POP DUP2 SWAP1 SSTORE POP DUP4 PUSH1 0x1 PUSH1 0x1 PUSH1 0xA0 SHL SUB AND DUP6 PUSH1 0x1 PUSH1 0x1 PUSH1 0xA0 SHL SUB AND PUSH32 0xDDF252AD1BE2C89B69C2B068FC378DAA952BA7F163C4A11628F55A4DF523B3EF DUP6 PUSH1 0x40 MLOAD PUSH2 0x371 SWAP2 DUP2 MSTORE PUSH1 0x20 ADD SWAP1 JUMP JUMPDEST PUSH1 0x40 MLOAD DUP1 SWAP2 SUB SWAP1 LOG3 POP PUSH1 0x1 SWAP5 SWAP4 POP POP POP POP JUMP JUMPDEST PUSH1 0x4 SLOAD PUSH1 0x0 SWAP1 PUSH1 0x1 PUSH1 0x1 PUSH1 0xA0 SHL SUB AND CALLER EQ PUSH2 0x3E6 JUMPI PUSH1 0x40 MLOAD PUSH3 0x461BCD PUSH1 0xE5 SHL DUP2 MSTORE PUSH1 0x20 PUSH1 0x4 DUP3 ADD DUP2 SWAP1 MSTORE PUSH1 0x24 DUP3 ADD MSTORE PUSH32 0x6F6E6C792061646D696E2063616E2072756E20746869732066756E6374696F6E PUSH1 0x44 DUP3 ADD MSTORE PUSH1 0x64 ADD JUMPDEST PUSH1 0x40 MLOAD DUP1 SWAP2 SUB SWAP1 REVERT JUMPDEST DUP2 PUSH1 0x3 PUSH1 0x0 DUP3 DUP3 SLOAD PUSH2 0x3F8 SWAP2 SWAP1 PUSH2 0x787 JUMP JUMPDEST SWAP1 SWAP2 SSTORE POP POP CALLER PUSH1 0x0 SWAP1 DUP2 MSTORE PUSH1 0x5 PUSH1 0x20 MSTORE PUSH1 0x40 DUP2 KECCAK256 DUP1 SLOAD DUP5 SWAP3 SWAP1 PUSH2 0x41C SWAP1 DUP5 SWAP1 PUSH2 0x787 JUMP JUMPDEST SWAP1 SWAP2 SSTORE POP POP PUSH1 0x3 SLOAD SWAP1 POP JUMPDEST SWAP2 SWAP1 POP JUMP JUMPDEST PUSH1 0x1 DUP1 SLOAD PUSH2 0x1CD SWAP1 PUSH2 0x724 JUMP JUMPDEST PUSH1 0x4 SLOAD PUSH1 0x0 SWAP1 PUSH1 0x1 PUSH1 0x1 PUSH1 0xA0 SHL SUB AND CALLER EQ PUSH2 0x496 JUMPI PUSH1 0x40 MLOAD PUSH3 0x461BCD PUSH1 0xE5 SHL DUP2 MSTORE PUSH1 0x20 PUSH1 0x4 DUP3 ADD DUP2 SWAP1 MSTORE PUSH1 0x24 DUP3 ADD MSTORE PUSH32 0x6F6E6C792061646D696E2063616E2072756E20746869732066756E6374696F6E PUSH1 0x44 DUP3 ADD MSTORE PUSH1 0x64 ADD PUSH2 0x3DD JUMP JUMPDEST DUP2 PUSH1 0x3 PUSH1 0x0 DUP3 DUP3 SLOAD PUSH2 0x4A8 SWAP2 SWAP1 PUSH2 0x774 JUMP JUMPDEST SWAP1 SWAP2 SSTORE POP POP CALLER PUSH1 0x0 SWAP1 DUP2 MSTORE PUSH1 0x5 PUSH1 0x20 MSTORE PUSH1 0x40 DUP2 KECCAK256 DUP1 SLOAD DUP5 SWAP3 SWAP1 PUSH2 0x41C SWAP1 DUP5 SWAP1 PUSH2 0x774 JUMP JUMPDEST CALLER PUSH1 0x0 SWAP1 DUP2 MSTORE PUSH1 0x5 PUSH1 0x20 MSTORE PUSH1 0x40 DUP2 KECCAK256 SLOAD DUP3 GT ISZERO PUSH2 0x4E8 JUMPI PUSH1 0x0 DUP1 REVERT JUMPDEST CALLER PUSH1 0x0 SWAP1 DUP2 MSTORE PUSH1 0x5 PUSH1 0x20 MSTORE PUSH1 0x40 DUP2 KECCAK256 DUP1 SLOAD DUP5 SWAP3 SWAP1 PUSH2 0x507 SWAP1 DUP5 SWAP1 PUSH2 0x787 JUMP JUMPDEST SWAP1 SWAP2 SSTORE POP POP PUSH1 0x1 PUSH1 0x1 PUSH1 0xA0 SHL SUB DUP4 AND PUSH1 0x0 SWAP1 DUP2 MSTORE PUSH1 0x5 PUSH1 0x20 MSTORE PUSH1 0x40 DUP2 KECCAK256 DUP1 SLOAD DUP5 SWAP3 SWAP1 PUSH2 0x534 SWAP1 DUP5 SWAP1 PUSH2 0x774 JUMP JUMPDEST SWAP1 SWAP2 SSTORE POP POP PUSH1 0x40 MLOAD DUP3 DUP2 MSTORE PUSH1 0x1 PUSH1 0x1 PUSH1 0xA0 SHL SUB DUP5 AND SWAP1 CALLER SWAP1 PUSH32 0xDDF252AD1BE2C89B69C2B068FC378DAA952BA7F163C4A11628F55A4DF523B3EF SWAP1 PUSH1 0x20 ADD PUSH1 0x40 MLOAD DUP1 SWAP2 SUB SWAP1 LOG3 POP PUSH1 0x1 JUMPDEST SWAP3 SWAP2 POP POP JUMP JUMPDEST PUSH1 0x1 PUSH1 0x1 PUSH1 0xA0 SHL SUB DUP4 DUP2 AND PUSH1 0x0 DUP2 DUP2 MSTORE PUSH1 0x6 PUSH1 0x20 SWAP1 DUP2 MSTORE PUSH1 0x40 DUP1 DUP4 KECCAK256 SWAP5 DUP8 AND DUP1 DUP5 MSTORE SWAP5 DUP3 MSTORE DUP1 DUP4 KECCAK256 DUP7 SWAP1 SSTORE MLOAD DUP6 DUP2 MSTORE SWAP2 SWAP4 SWAP3 SWAP2 PUSH32 0x8C5BE1E5EBEC7D5BD14F71427D1E84F3DD0314C0F7B2291E5B200AC8C7C3B925 SWAP2 ADD PUSH1 0x40 MLOAD DUP1 SWAP2 SUB SWAP1 LOG3 POP PUSH1 0x1 SWAP4 SWAP3 POP POP POP JUMP JUMPDEST PUSH1 0x0 PUSH1 0x20 DUP1 DUP4 MSTORE DUP4 MLOAD DUP1 DUP3 DUP6 ADD MSTORE PUSH1 0x0 JUMPDEST DUP2 DUP2 LT ISZERO PUSH2 0x618 JUMPI DUP6 DUP2 ADD DUP4 ADD MLOAD DUP6 DUP3 ADD PUSH1 0x40 ADD MSTORE DUP3 ADD PUSH2 0x5FC JUMP JUMPDEST POP PUSH1 0x0 PUSH1 0x40 DUP3 DUP7 ADD ADD MSTORE PUSH1 0x40 PUSH1 0x1F NOT PUSH1 0x1F DUP4 ADD AND DUP6 ADD ADD SWAP3 POP POP POP SWAP3 SWAP2 POP POP JUMP JUMPDEST DUP1 CALLDATALOAD PUSH1 0x1 PUSH1 0x1 PUSH1 0xA0 SHL SUB DUP2 AND DUP2 EQ PUSH2 0x427 JUMPI PUSH1 0x0 DUP1 REVERT JUMPDEST PUSH1 0x0 DUP1 PUSH1 0x0 PUSH1 0x60 DUP5 DUP7 SUB SLT ISZERO PUSH2 0x665 JUMPI PUSH1 0x0 DUP1 REVERT JUMPDEST PUSH2 0x66E DUP5 PUSH2 0x639 JUMP JUMPDEST SWAP3 POP PUSH2 0x67C PUSH1 0x20 DUP6 ADD PUSH2 0x639 JUMP JUMPDEST SWAP2 POP PUSH1 0x40 DUP5 ADD CALLDATALOAD SWAP1 POP SWAP3 POP SWAP3 POP SWAP3 JUMP JUMPDEST PUSH1 0x0 PUSH1 0x20 DUP3 DUP5 SUB SLT ISZERO PUSH2 0x69E JUMPI PUSH1 0x0 DUP1 REVERT JUMPDEST POP CALLDATALOAD SWAP2 SWAP1 POP JUMP JUMPDEST PUSH1 0x0 PUSH1 0x20 DUP3 DUP5 SUB SLT ISZERO PUSH2 0x6B7 JUMPI PUSH1 0x0 DUP1 REVERT JUMPDEST PUSH2 0x6C0 DUP3 PUSH2 0x639 JUMP JUMPDEST SWAP4 SWAP3 POP POP POP JUMP JUMPDEST PUSH1 0x0 DUP1 PUSH1 0x40 DUP4 DUP6 SUB SLT ISZERO PUSH2 0x6DA JUMPI PUSH1 0x0 DUP1 REVERT JUMPDEST PUSH2 0x6E3 DUP4 PUSH2 0x639 JUMP JUMPDEST SWAP5 PUSH1 0x20 SWAP4 SWAP1 SWAP4 ADD CALLDATALOAD SWAP4 POP POP POP JUMP JUMPDEST PUSH1 0x0 DUP1 PUSH1 0x40 DUP4 DUP6 SUB SLT ISZERO PUSH2 0x704 JUMPI PUSH1 0x0 DUP1 REVERT JUMPDEST PUSH2 0x70D DUP4 PUSH2 0x639 JUMP JUMPDEST SWAP2 POP PUSH2 0x71B PUSH1 0x20 DUP5 ADD PUSH2 0x639 JUMP JUMPDEST SWAP1 POP SWAP3 POP SWAP3 SWAP1 POP JUMP JUMPDEST PUSH1 0x1 DUP2 DUP2 SHR SWAP1 DUP3 AND DUP1 PUSH2 0x738 JUMPI PUSH1 0x7F DUP3 AND SWAP2 POP JUMPDEST PUSH1 0x20 DUP3 LT DUP2 SUB PUSH2 0x758 JUMPI PUSH4 0x4E487B71 PUSH1 0xE0 SHL PUSH1 0x0 MSTORE PUSH1 0x22 PUSH1 0x4 MSTORE PUSH1 0x24 PUSH1 0x0 REVERT JUMPDEST POP SWAP2 SWAP1 POP JUMP JUMPDEST PUSH4 0x4E487B71 PUSH1 0xE0 SHL PUSH1 0x0 MSTORE PUSH1 0x11 PUSH1 0x4 MSTORE PUSH1 0x24 PUSH1 0x0 REVERT JUMPDEST DUP1 DUP3 ADD DUP1 DUP3 GT ISZERO PUSH2 0x57D JUMPI PUSH2 0x57D PUSH2 0x75E JUMP JUMPDEST DUP2 DUP2 SUB DUP2 DUP2 GT ISZERO PUSH2 0x57D JUMPI PUSH2 0x57D PUSH2 0x75E JUMP INVALID LOG2 PUSH5 0x6970667358 0x22 SLT KECCAK256 ADD 0xC2 DUP2 0x2A 0x2F 0x2D 0xE2 PUSH18 0x4E50CCA46F0BBC5E166977B671CF60E8FD76 0x2B SWAP2 GT 0xC9 MOD DUP8 PUSH5 0x736F6C6343 STOP ADDMOD EQ STOP CALLER LOG2 PUSH5 0x6970667358 0x22 SLT KECCAK256 EQ SWAP6 0xC9 0x26 DUP11 REVERT PUSH2 0xA9F LT PUSH17 0x7AE26A2C58D768FB5F4B76B267A723EEC8 NUMBER SWAP1 CODESIZE PUSH26 0x64736F6C63430008140033000000000000000000000000000000 "
				},
				"gasEstimates": {
					"creation": {
						"codeDepositCost": "1319600",
						"executionCost": "1376",
						"totalCost": "1320976"
					},
					"external": {
						"createPair(string,string,uint256,string,string,uint256)": "infinite",
						"depositLiquidity(uint256,uint256,uint256)": "infinite",
						"liquidityProviders(address,uint256)": "6910",
						"pairDetails(uint256)": "infinite"
					}
				},
				"methodIdentifiers": {
					"createPair(string,string,uint256,string,string,uint256)": "4fba4607",
					"depositLiquidity(uint256,uint256,uint256)": "f9c8b956",
					"liquidityProviders(address,uint256)": "c5cb3604",
					"pairDetails(uint256)": "5b3a7232"
				}
			},
			"storageLayout": {
				"storage": [
					{
						"astId": 330,
						"contract": "Custom-Dex/Pair.sol:Pair",
						"label": "owner",
						"offset": 0,
						"slot": "0",
						"type": "t_address"
					},
					{
						"astId": 332,
						"contract": "Custom-Dex/Pair.sol:Pair",
						"label": "pairId",
						"offset": 0,
						"slot": "1",
						"type": "t_uint256"
					},
					{
						"astId": 335,
						"contract": "Custom-Dex/Pair.sol:Pair",
						"label": "token0Address",
						"offset": 0,
						"slot": "2",
						"type": "t_contract(erc20)325"
					},
					{
						"astId": 338,
						"contract": "Custom-Dex/Pair.sol:Pair",
						"label": "token1Address",
						"offset": 0,
						"slot": "3",
						"type": "t_contract(erc20)325"
					},
					{
						"astId": 371,
						"contract": "Custom-Dex/Pair.sol:Pair",
						"label": "pairDetails",
						"offset": 0,
						"slot": "4",
						"type": "t_mapping(t_uint256,t_struct(pairdata)359_storage)"
					},
					{
						"astId": 378,
						"contract": "Custom-Dex/Pair.sol:Pair",
						"label": "liquidityProviders",
						"offset": 0,
						"slot": "5",
						"type": "t_mapping(t_address,t_mapping(t_uint256,t_struct(Liquidity)366_storage))"
					}
				],
				"types": {
					"t_address": {
						"encoding": "inplace",
						"label": "address",
						"numberOfBytes": "20"
					},
					"t_array(t_struct(Liquidity)366_storage)dyn_storage": {
						"base": "t_struct(Liquidity)366_storage",
						"encoding": "dynamic_array",
						"label": "struct Pair.Liquidity[]",
						"numberOfBytes": "32"
					},
					"t_contract(erc20)325": {
						"encoding": "inplace",
						"label": "contract erc20",
						"numberOfBytes": "20"
					},
					"t_mapping(t_address,t_mapping(t_uint256,t_struct(Liquidity)366_storage))": {
						"encoding": "mapping",
						"key": "t_address",
						"label": "mapping(address => mapping(uint256 => struct Pair.Liquidity))",
						"numberOfBytes": "32",
						"value": "t_mapping(t_uint256,t_struct(Liquidity)366_storage)"
					},
					"t_mapping(t_uint256,t_struct(Liquidity)366_storage)": {
						"encoding": "mapping",
						"key": "t_uint256",
						"label": "mapping(uint256 => struct Pair.Liquidity)",
						"numberOfBytes": "32",
						"value": "t_struct(Liquidity)366_storage"
					},
					"t_mapping(t_uint256,t_struct(pairdata)359_storage)": {
						"encoding": "mapping",
						"key": "t_uint256",
						"label": "mapping(uint256 => struct Pair.pairdata)",
						"numberOfBytes": "32",
						"value": "t_struct(pairdata)359_storage"
					},
					"t_string_storage": {
						"encoding": "bytes",
						"label": "string",
						"numberOfBytes": "32"
					},
					"t_struct(Liquidity)366_storage": {
						"encoding": "inplace",
						"label": "struct Pair.Liquidity",
						"members": [
							{
								"astId": 361,
								"contract": "Custom-Dex/Pair.sol:Pair",
								"label": "token0Amount",
								"offset": 0,
								"slot": "0",
								"type": "t_uint256"
							},
							{
								"astId": 363,
								"contract": "Custom-Dex/Pair.sol:Pair",
								"label": "token1Amount",
								"offset": 0,
								"slot": "1",
								"type": "t_uint256"
							},
							{
								"astId": 365,
								"contract": "Custom-Dex/Pair.sol:Pair",
								"label": "liquidityProviderAddress",
								"offset": 0,
								"slot": "2",
								"type": "t_address"
							}
						],
						"numberOfBytes": "96"
					},
					"t_struct(pairdata)359_storage": {
						"encoding": "inplace",
						"label": "struct Pair.pairdata",
						"members": [
							{
								"astId": 341,
								"contract": "Custom-Dex/Pair.sol:Pair",
								"label": "token0",
								"offset": 0,
								"slot": "0",
								"type": "t_contract(erc20)325"
							},
							{
								"astId": 344,
								"contract": "Custom-Dex/Pair.sol:Pair",
								"label": "token1",
								"offset": 0,
								"slot": "1",
								"type": "t_contract(erc20)325"
							},
							{
								"astId": 346,
								"contract": "Custom-Dex/Pair.sol:Pair",
								"label": "token0Name",
								"offset": 0,
								"slot": "2",
								"type": "t_string_storage"
							},
							{
								"astId": 348,
								"contract": "Custom-Dex/Pair.sol:Pair",
								"label": "token1Name",
								"offset": 0,
								"slot": "3",
								"type": "t_string_storage"
							},
							{
								"astId": 350,
								"contract": "Custom-Dex/Pair.sol:Pair",
								"label": "reserve0",
								"offset": 0,
								"slot": "4",
								"type": "t_uint256"
							},
							{
								"astId": 352,
								"contract": "Custom-Dex/Pair.sol:Pair",
								"label": "reserve1",
								"offset": 0,
								"slot": "5",
								"type": "t_uint256"
							},
							{
								"astId": 354,
								"contract": "Custom-Dex/Pair.sol:Pair",
								"label": "Timestamp",
								"offset": 0,
								"slot": "6",
								"type": "t_uint256"
							},
							{
								"astId": 358,
								"contract": "Custom-Dex/Pair.sol:Pair",
								"label": "liquidity",
								"offset": 0,
								"slot": "7",
								"type": "t_array(t_struct(Liquidity)366_storage)dyn_storage"
							}
						],
						"numberOfBytes": "256"
					},
					"t_uint256": {
						"encoding": "inplace",
						"label": "uint256",
						"numberOfBytes": "32"
					}
				}
			},
			"userdoc": {
				"kind": "user",
				"methods": {},
				"version": 1
			}
		}
	}
}