{
	"Custom-Dex/Erc-20.sol": {
		"erc20": {
			"abi": [
				{
					"inputs": [
						{
							"internalType": "string",
							"name": "name_",
							"type": "string"
						},
						{
							"internalType": "string",
							"name": "symbol_",
							"type": "string"
						},
						{
							"internalType": "uint256",
							"name": "_totalSupply",
							"type": "uint256"
						}
					],
					"stateMutability": "nonpayable",
					"type": "constructor"
				},
				{
					"anonymous": false,
					"inputs": [
						{
							"indexed": true,
							"internalType": "address",
							"name": "tokenOwner",
							"type": "address"
						},
						{
							"indexed": true,
							"internalType": "address",
							"name": "spender",
							"type": "address"
						},
						{
							"indexed": false,
							"internalType": "uint256",
							"name": "tokens",
							"type": "uint256"
						}
					],
					"name": "Approval",
					"type": "event"
				},
				{
					"anonymous": false,
					"inputs": [
						{
							"indexed": true,
							"internalType": "address",
							"name": "from",
							"type": "address"
						},
						{
							"indexed": true,
							"internalType": "address",
							"name": "to",
							"type": "address"
						},
						{
							"indexed": false,
							"internalType": "uint256",
							"name": "value",
							"type": "uint256"
						}
					],
					"name": "Transfer",
					"type": "event"
				},
				{
					"inputs": [
						{
							"internalType": "address",
							"name": "_owner",
							"type": "address"
						},
						{
							"internalType": "address",
							"name": "_spender",
							"type": "address"
						}
					],
					"name": "allowance",
					"outputs": [
						{
							"internalType": "uint256",
							"name": "",
							"type": "uint256"
						}
					],
					"stateMutability": "view",
					"type": "function"
				},
				{
					"inputs": [
						{
							"internalType": "address",
							"name": "_owner",
							"type": "address"
						},
						{
							"internalType": "address",
							"name": "_spender",
							"type": "address"
						},
						{
							"internalType": "uint256",
							"name": "_value",
							"type": "uint256"
						}
					],
					"name": "approve",
					"outputs": [
						{
							"internalType": "bool",
							"name": "",
							"type": "bool"
						}
					],
					"stateMutability": "nonpayable",
					"type": "function"
				},
				{
					"inputs": [
						{
							"internalType": "address",
							"name": "tokenOwner",
							"type": "address"
						}
					],
					"name": "balanceOf",
					"outputs": [
						{
							"internalType": "uint256",
							"name": "",
							"type": "uint256"
						}
					],
					"stateMutability": "view",
					"type": "function"
				},
				{
					"inputs": [
						{
							"internalType": "uint256",
							"name": "_qty",
							"type": "uint256"
						}
					],
					"name": "burn",
					"outputs": [
						{
							"internalType": "uint256",
							"name": "",
							"type": "uint256"
						}
					],
					"stateMutability": "nonpayable",
					"type": "function"
				},
				{
					"inputs": [],
					"name": "decimals",
					"outputs": [
						{
							"internalType": "uint256",
							"name": "",
							"type": "uint256"
						}
					],
					"stateMutability": "view",
					"type": "function"
				},
				{
					"inputs": [
						{
							"internalType": "uint256",
							"name": "_qty",
							"type": "uint256"
						}
					],
					"name": "mint",
					"outputs": [
						{
							"internalType": "uint256",
							"name": "",
							"type": "uint256"
						}
					],
					"stateMutability": "nonpayable",
					"type": "function"
				},
				{
					"inputs": [],
					"name": "name",
					"outputs": [
						{
							"internalType": "string",
							"name": "",
							"type": "string"
						}
					],
					"stateMutability": "view",
					"type": "function"
				},
				{
					"inputs": [],
					"name": "symbol",
					"outputs": [
						{
							"internalType": "string",
							"name": "",
							"type": "string"
						}
					],
					"stateMutability": "view",
					"type": "function"
				},
				{
					"inputs": [],
					"name": "totalSupply",
					"outputs": [
						{
							"internalType": "uint256",
							"name": "",
							"type": "uint256"
						}
					],
					"stateMutability": "view",
					"type": "function"
				},
				{
					"inputs": [
						{
							"internalType": "address",
							"name": "receiver",
							"type": "address"
						},
						{
							"internalType": "uint256",
							"name": "numTokens",
							"type": "uint256"
						}
					],
					"name": "transfer",
					"outputs": [
						{
							"internalType": "bool",
							"name": "",
							"type": "bool"
						}
					],
					"stateMutability": "nonpayable",
					"type": "function"
				},
				{
					"inputs": [
						{
							"internalType": "address",
							"name": "_from",
							"type": "address"
						},
						{
							"internalType": "address",
							"name": "_to",
							"type": "address"
						},
						{
							"internalType": "uint256",
							"name": "_value",
							"type": "uint256"
						}
					],
					"name": "transferFrom",
					"outputs": [
						{
							"internalType": "bool",
							"name": "",
							"type": "bool"
						}
					],
					"stateMutability": "nonpayable",
					"type": "function"
				}
			],
			"devdoc": {
				"kind": "dev",
				"methods": {},
				"version": 1
			},
			"evm": {
				"assembly": "    /* \"Custom-Dex/Erc-20.sol\":362:2686  contract erc20 is IERC20{... */\n  mstore(0x40, 0x80)\n    /* \"Custom-Dex/Erc-20.sol\":466:468  18 */\n  0x12\n    /* \"Custom-Dex/Erc-20.sol\":443:468  uint public  decimals =18 */\n  0x02\n  sstore\n    /* \"Custom-Dex/Erc-20.sol\":700:939  constructor(string memory name_, string memory symbol_, uint _totalSupply)  {... */\n  callvalue\n  dup1\n  iszero\n  tag_1\n  jumpi\n  0x00\n  dup1\n  revert\ntag_1:\n  pop\n  mload(0x40)\n  sub(codesize, bytecodeSize)\n  dup1\n  bytecodeSize\n  dup4\n  codecopy\n  dup2\n  add\n  0x40\n  dup2\n  swap1\n  mstore\n  tag_2\n  swap2\n  tag_3\n  jump\t// in\ntag_2:\n    /* \"Custom-Dex/Erc-20.sol\":787:791  name */\n  0x00\n    /* \"Custom-Dex/Erc-20.sol\":787:797  name=name_ */\n  tag_6\n    /* \"Custom-Dex/Erc-20.sol\":792:797  name_ */\n  dup5\n    /* \"Custom-Dex/Erc-20.sol\":787:791  name */\n  dup3\n    /* \"Custom-Dex/Erc-20.sol\":787:797  name=name_ */\n  tag_7\n  jump\t// in\ntag_6:\n  pop\n    /* \"Custom-Dex/Erc-20.sol\":808:814  symbol */\n  0x01\n    /* \"Custom-Dex/Erc-20.sol\":808:822  symbol=symbol_ */\n  tag_8\n    /* \"Custom-Dex/Erc-20.sol\":815:822  symbol_ */\n  dup4\n    /* \"Custom-Dex/Erc-20.sol\":808:814  symbol */\n  dup3\n    /* \"Custom-Dex/Erc-20.sol\":808:822  symbol=symbol_ */\n  tag_7\n  jump\t// in\ntag_8:\n  pop\n    /* \"Custom-Dex/Erc-20.sol\":833:845  totalSupply_ */\n  0x03\n    /* \"Custom-Dex/Erc-20.sol\":833:858  totalSupply_=_totalSupply */\n  dup2\n  swap1\n  sstore\n    /* \"Custom-Dex/Erc-20.sol\":878:888  msg.sender */\n  caller\n    /* \"Custom-Dex/Erc-20.sol\":869:889  balances[msg.sender] */\n  0x00\n  dup2\n  dup2\n  mstore\n    /* \"Custom-Dex/Erc-20.sol\":869:877  balances */\n  0x05\n    /* \"Custom-Dex/Erc-20.sol\":869:889  balances[msg.sender] */\n  0x20\n  mstore\n  0x40\n  swap1\n  keccak256\n    /* \"Custom-Dex/Erc-20.sol\":869:903  balances[msg.sender]= totalSupply_ */\n  swap2\n  swap1\n  swap2\n  sstore\n    /* \"Custom-Dex/Erc-20.sol\":914:919  admin */\n  0x04\n    /* \"Custom-Dex/Erc-20.sol\":914:932  admin = msg.sender */\n  dup1\n  sload\n  not(sub(shl(0xa0, 0x01), 0x01))\n  and\n  swap1\n  swap2\n  or\n  swap1\n  sstore\n  pop\n    /* \"Custom-Dex/Erc-20.sol\":362:2686  contract erc20 is IERC20{... */\n  tag_16\n  swap1\n  pop\n  jump\n    /* \"#utility.yul\":14:141   */\ntag_10:\n    /* \"#utility.yul\":75:85   */\n  0x4e487b71\n    /* \"#utility.yul\":70:73   */\n  0xe0\n    /* \"#utility.yul\":66:86   */\n  shl\n    /* \"#utility.yul\":63:64   */\n  0x00\n    /* \"#utility.yul\":56:87   */\n  mstore\n    /* \"#utility.yul\":106:110   */\n  0x41\n    /* \"#utility.yul\":103:104   */\n  0x04\n    /* \"#utility.yul\":96:111   */\n  mstore\n    /* \"#utility.yul\":130:134   */\n  0x24\n    /* \"#utility.yul\":127:128   */\n  0x00\n    /* \"#utility.yul\":120:135   */\n  revert\n    /* \"#utility.yul\":146:986   */\ntag_11:\n    /* \"#utility.yul\":200:205   */\n  0x00\n    /* \"#utility.yul\":253:256   */\n  dup3\n    /* \"#utility.yul\":246:250   */\n  0x1f\n    /* \"#utility.yul\":238:244   */\n  dup4\n    /* \"#utility.yul\":234:251   */\n  add\n    /* \"#utility.yul\":230:257   */\n  slt\n    /* \"#utility.yul\":220:275   */\n  tag_19\n  jumpi\n    /* \"#utility.yul\":271:272   */\n  0x00\n    /* \"#utility.yul\":268:269   */\n  dup1\n    /* \"#utility.yul\":261:273   */\n  revert\n    /* \"#utility.yul\":220:275   */\ntag_19:\n    /* \"#utility.yul\":294:307   */\n  dup2\n  mload\n  sub(shl(0x40, 0x01), 0x01)\n    /* \"#utility.yul\":356:366   */\n  dup1\n  dup3\n  gt\n    /* \"#utility.yul\":353:389   */\n  iszero\n  tag_21\n  jumpi\n    /* \"#utility.yul\":369:387   */\n  tag_21\n  tag_10\n  jump\t// in\ntag_21:\n    /* \"#utility.yul\":444:446   */\n  0x40\n    /* \"#utility.yul\":438:447   */\n  mload\n    /* \"#utility.yul\":412:414   */\n  0x1f\n    /* \"#utility.yul\":498:511   */\n  dup4\n  add\n  not(0x1f)\n    /* \"#utility.yul\":494:516   */\n  swap1\n  dup2\n  and\n    /* \"#utility.yul\":518:520   */\n  0x3f\n    /* \"#utility.yul\":490:521   */\n  add\n    /* \"#utility.yul\":486:526   */\n  and\n    /* \"#utility.yul\":474:527   */\n  dup2\n  add\n  swap1\n    /* \"#utility.yul\":542:560   */\n  dup3\n  dup3\n  gt\n    /* \"#utility.yul\":562:584   */\n  dup2\n  dup4\n  lt\n    /* \"#utility.yul\":539:585   */\n  or\n    /* \"#utility.yul\":536:608   */\n  iszero\n  tag_23\n  jumpi\n    /* \"#utility.yul\":588:606   */\n  tag_23\n  tag_10\n  jump\t// in\ntag_23:\n    /* \"#utility.yul\":628:638   */\n  dup2\n    /* \"#utility.yul\":624:626   */\n  0x40\n    /* \"#utility.yul\":617:639   */\n  mstore\n    /* \"#utility.yul\":663:665   */\n  dup4\n    /* \"#utility.yul\":655:661   */\n  dup2\n    /* \"#utility.yul\":648:666   */\n  mstore\n    /* \"#utility.yul\":685:689   */\n  0x20\n    /* \"#utility.yul\":675:689   */\n  swap3\n  pop\n    /* \"#utility.yul\":730:733   */\n  dup7\n    /* \"#utility.yul\":725:727   */\n  dup4\n    /* \"#utility.yul\":720:722   */\n  dup6\n    /* \"#utility.yul\":712:718   */\n  dup9\n    /* \"#utility.yul\":708:723   */\n  add\n    /* \"#utility.yul\":704:728   */\n  add\n    /* \"#utility.yul\":701:734   */\n  gt\n    /* \"#utility.yul\":698:751   */\n  iszero\n  tag_24\n  jumpi\n    /* \"#utility.yul\":747:748   */\n  0x00\n    /* \"#utility.yul\":744:745   */\n  dup1\n    /* \"#utility.yul\":737:749   */\n  revert\n    /* \"#utility.yul\":698:751   */\ntag_24:\n    /* \"#utility.yul\":769:770   */\n  0x00\n    /* \"#utility.yul\":760:770   */\n  swap2\n  pop\n    /* \"#utility.yul\":779:912   */\ntag_25:\n    /* \"#utility.yul\":793:795   */\n  dup4\n    /* \"#utility.yul\":790:791   */\n  dup3\n    /* \"#utility.yul\":787:796   */\n  lt\n    /* \"#utility.yul\":779:912   */\n  iszero\n  tag_27\n  jumpi\n    /* \"#utility.yul\":881:895   */\n  dup6\n  dup3\n  add\n    /* \"#utility.yul\":877:900   */\n  dup4\n  add\n    /* \"#utility.yul\":871:901   */\n  mload\n    /* \"#utility.yul\":850:864   */\n  dup2\n  dup4\n  add\n    /* \"#utility.yul\":846:869   */\n  dup5\n  add\n    /* \"#utility.yul\":839:902   */\n  mstore\n    /* \"#utility.yul\":804:814   */\n  swap1\n  dup3\n  add\n  swap1\n    /* \"#utility.yul\":779:912   */\n  jump(tag_25)\ntag_27:\n    /* \"#utility.yul\":954:955   */\n  0x00\n    /* \"#utility.yul\":932:947   */\n  swap4\n  dup2\n  add\n    /* \"#utility.yul\":928:952   */\n  swap1\n  swap3\n  add\n    /* \"#utility.yul\":921:956   */\n  swap3\n  swap1\n  swap3\n  mstore\n    /* \"#utility.yul\":936:942   */\n  swap5\n    /* \"#utility.yul\":146:986   */\n  swap4\n  pop\n  pop\n  pop\n  pop\n  jump\t// out\n    /* \"#utility.yul\":991:1614   */\ntag_3:\n    /* \"#utility.yul\":1099:1105   */\n  0x00\n    /* \"#utility.yul\":1107:1113   */\n  dup1\n    /* \"#utility.yul\":1115:1121   */\n  0x00\n    /* \"#utility.yul\":1168:1170   */\n  0x60\n    /* \"#utility.yul\":1156:1165   */\n  dup5\n    /* \"#utility.yul\":1147:1154   */\n  dup7\n    /* \"#utility.yul\":1143:1166   */\n  sub\n    /* \"#utility.yul\":1139:1171   */\n  slt\n    /* \"#utility.yul\":1136:1188   */\n  iszero\n  tag_29\n  jumpi\n    /* \"#utility.yul\":1184:1185   */\n  0x00\n    /* \"#utility.yul\":1181:1182   */\n  dup1\n    /* \"#utility.yul\":1174:1186   */\n  revert\n    /* \"#utility.yul\":1136:1188   */\ntag_29:\n    /* \"#utility.yul\":1211:1227   */\n  dup4\n  mload\n  sub(shl(0x40, 0x01), 0x01)\n    /* \"#utility.yul\":1276:1290   */\n  dup1\n  dup3\n  gt\n    /* \"#utility.yul\":1273:1307   */\n  iszero\n  tag_30\n  jumpi\n    /* \"#utility.yul\":1303:1304   */\n  0x00\n    /* \"#utility.yul\":1300:1301   */\n  dup1\n    /* \"#utility.yul\":1293:1305   */\n  revert\n    /* \"#utility.yul\":1273:1307   */\ntag_30:\n    /* \"#utility.yul\":1326:1387   */\n  tag_31\n    /* \"#utility.yul\":1379:1386   */\n  dup8\n    /* \"#utility.yul\":1370:1376   */\n  dup4\n    /* \"#utility.yul\":1359:1368   */\n  dup9\n    /* \"#utility.yul\":1355:1377   */\n  add\n    /* \"#utility.yul\":1326:1387   */\n  tag_11\n  jump\t// in\ntag_31:\n    /* \"#utility.yul\":1316:1387   */\n  swap5\n  pop\n    /* \"#utility.yul\":1433:1435   */\n  0x20\n    /* \"#utility.yul\":1422:1431   */\n  dup7\n    /* \"#utility.yul\":1418:1436   */\n  add\n    /* \"#utility.yul\":1412:1437   */\n  mload\n    /* \"#utility.yul\":1396:1437   */\n  swap2\n  pop\n    /* \"#utility.yul\":1462:1464   */\n  dup1\n    /* \"#utility.yul\":1452:1460   */\n  dup3\n    /* \"#utility.yul\":1449:1465   */\n  gt\n    /* \"#utility.yul\":1446:1482   */\n  iszero\n  tag_32\n  jumpi\n    /* \"#utility.yul\":1478:1479   */\n  0x00\n    /* \"#utility.yul\":1475:1476   */\n  dup1\n    /* \"#utility.yul\":1468:1480   */\n  revert\n    /* \"#utility.yul\":1446:1482   */\ntag_32:\n  pop\n    /* \"#utility.yul\":1501:1564   */\n  tag_33\n    /* \"#utility.yul\":1556:1563   */\n  dup7\n    /* \"#utility.yul\":1545:1553   */\n  dup3\n    /* \"#utility.yul\":1534:1543   */\n  dup8\n    /* \"#utility.yul\":1530:1554   */\n  add\n    /* \"#utility.yul\":1501:1564   */\n  tag_11\n  jump\t// in\ntag_33:\n    /* \"#utility.yul\":1491:1564   */\n  swap3\n  pop\n  pop\n    /* \"#utility.yul\":1604:1606   */\n  0x40\n    /* \"#utility.yul\":1593:1602   */\n  dup5\n    /* \"#utility.yul\":1589:1607   */\n  add\n    /* \"#utility.yul\":1583:1608   */\n  mload\n    /* \"#utility.yul\":1573:1608   */\n  swap1\n  pop\n    /* \"#utility.yul\":991:1614   */\n  swap3\n  pop\n  swap3\n  pop\n  swap3\n  jump\t// out\n    /* \"#utility.yul\":1619:1999   */\ntag_12:\n    /* \"#utility.yul\":1698:1699   */\n  0x01\n    /* \"#utility.yul\":1694:1706   */\n  dup2\n  dup2\n  shr\n  swap1\n    /* \"#utility.yul\":1741:1753   */\n  dup3\n  and\n  dup1\n    /* \"#utility.yul\":1762:1823   */\n  tag_35\n  jumpi\n    /* \"#utility.yul\":1816:1820   */\n  0x7f\n    /* \"#utility.yul\":1808:1814   */\n  dup3\n    /* \"#utility.yul\":1804:1821   */\n  and\n    /* \"#utility.yul\":1794:1821   */\n  swap2\n  pop\n    /* \"#utility.yul\":1762:1823   */\ntag_35:\n    /* \"#utility.yul\":1869:1871   */\n  0x20\n    /* \"#utility.yul\":1861:1867   */\n  dup3\n    /* \"#utility.yul\":1858:1872   */\n  lt\n    /* \"#utility.yul\":1838:1856   */\n  dup2\n    /* \"#utility.yul\":1835:1873   */\n  sub\n    /* \"#utility.yul\":1832:1993   */\n  tag_36\n  jumpi\n    /* \"#utility.yul\":1915:1925   */\n  0x4e487b71\n    /* \"#utility.yul\":1910:1913   */\n  0xe0\n    /* \"#utility.yul\":1906:1926   */\n  shl\n    /* \"#utility.yul\":1903:1904   */\n  0x00\n    /* \"#utility.yul\":1896:1927   */\n  mstore\n    /* \"#utility.yul\":1950:1954   */\n  0x22\n    /* \"#utility.yul\":1947:1948   */\n  0x04\n    /* \"#utility.yul\":1940:1955   */\n  mstore\n    /* \"#utility.yul\":1978:1982   */\n  0x24\n    /* \"#utility.yul\":1975:1976   */\n  0x00\n    /* \"#utility.yul\":1968:1983   */\n  revert\n    /* \"#utility.yul\":1832:1993   */\ntag_36:\n  pop\n    /* \"#utility.yul\":1619:1999   */\n  swap2\n  swap1\n  pop\n  jump\t// out\n    /* \"#utility.yul\":2130:2675   */\ntag_14:\n    /* \"#utility.yul\":2232:2234   */\n  0x1f\n    /* \"#utility.yul\":2227:2230   */\n  dup3\n    /* \"#utility.yul\":2224:2235   */\n  gt\n    /* \"#utility.yul\":2221:2669   */\n  iszero\n  tag_39\n  jumpi\n    /* \"#utility.yul\":2268:2269   */\n  0x00\n    /* \"#utility.yul\":2293:2298   */\n  dup2\n    /* \"#utility.yul\":2289:2291   */\n  dup2\n    /* \"#utility.yul\":2282:2299   */\n  mstore\n    /* \"#utility.yul\":2338:2342   */\n  0x20\n    /* \"#utility.yul\":2334:2336   */\n  dup2\n    /* \"#utility.yul\":2324:2343   */\n  keccak256\n    /* \"#utility.yul\":2408:2410   */\n  0x1f\n    /* \"#utility.yul\":2396:2406   */\n  dup6\n    /* \"#utility.yul\":2392:2411   */\n  add\n    /* \"#utility.yul\":2389:2390   */\n  0x05\n    /* \"#utility.yul\":2385:2412   */\n  shr\n    /* \"#utility.yul\":2379:2383   */\n  dup2\n    /* \"#utility.yul\":2375:2413   */\n  add\n    /* \"#utility.yul\":2444:2448   */\n  0x20\n    /* \"#utility.yul\":2432:2442   */\n  dup7\n    /* \"#utility.yul\":2429:2449   */\n  lt\n    /* \"#utility.yul\":2426:2473   */\n  iszero\n  tag_40\n  jumpi\n  pop\n    /* \"#utility.yul\":2467:2471   */\n  dup1\n    /* \"#utility.yul\":2426:2473   */\ntag_40:\n    /* \"#utility.yul\":2522:2524   */\n  0x1f\n    /* \"#utility.yul\":2517:2520   */\n  dup6\n    /* \"#utility.yul\":2513:2525   */\n  add\n    /* \"#utility.yul\":2510:2511   */\n  0x05\n    /* \"#utility.yul\":2506:2526   */\n  shr\n    /* \"#utility.yul\":2500:2504   */\n  dup3\n    /* \"#utility.yul\":2496:2527   */\n  add\n    /* \"#utility.yul\":2486:2527   */\n  swap2\n  pop\n    /* \"#utility.yul\":2577:2659   */\ntag_41:\n    /* \"#utility.yul\":2595:2597   */\n  dup2\n    /* \"#utility.yul\":2588:2593   */\n  dup2\n    /* \"#utility.yul\":2585:2598   */\n  lt\n    /* \"#utility.yul\":2577:2659   */\n  iszero\n  tag_43\n  jumpi\n    /* \"#utility.yul\":2640:2657   */\n  dup3\n  dup2\n  sstore\n    /* \"#utility.yul\":2621:2622   */\n  0x01\n    /* \"#utility.yul\":2610:2623   */\n  add\n    /* \"#utility.yul\":2577:2659   */\n  jump(tag_41)\ntag_43:\n    /* \"#utility.yul\":2581:2584   */\n  pop\n  pop\n  pop\n    /* \"#utility.yul\":2221:2669   */\ntag_39:\n    /* \"#utility.yul\":2130:2675   */\n  pop\n  pop\n  pop\n  jump\t// out\n    /* \"#utility.yul\":2851:4203   */\ntag_7:\n    /* \"#utility.yul\":2971:2981   */\n  dup2\n  mload\n  sub(shl(0x40, 0x01), 0x01)\n    /* \"#utility.yul\":2993:3023   */\n  dup2\n  gt\n    /* \"#utility.yul\":2990:3046   */\n  iszero\n  tag_47\n  jumpi\n    /* \"#utility.yul\":3026:3044   */\n  tag_47\n  tag_10\n  jump\t// in\ntag_47:\n    /* \"#utility.yul\":3055:3152   */\n  tag_48\n    /* \"#utility.yul\":3145:3151   */\n  dup2\n    /* \"#utility.yul\":3105:3143   */\n  tag_49\n    /* \"#utility.yul\":3137:3141   */\n  dup5\n    /* \"#utility.yul\":3131:3142   */\n  sload\n    /* \"#utility.yul\":3105:3143   */\n  tag_12\n  jump\t// in\ntag_49:\n    /* \"#utility.yul\":3099:3103   */\n  dup5\n    /* \"#utility.yul\":3055:3152   */\n  tag_14\n  jump\t// in\ntag_48:\n    /* \"#utility.yul\":3207:3211   */\n  0x20\n  dup1\n    /* \"#utility.yul\":3271:3273   */\n  0x1f\n    /* \"#utility.yul\":3260:3274   */\n  dup4\n  gt\n    /* \"#utility.yul\":3288:3289   */\n  0x01\n    /* \"#utility.yul\":3283:3946   */\n  dup2\n  eq\n  tag_51\n  jumpi\n    /* \"#utility.yul\":3990:3991   */\n  0x00\n    /* \"#utility.yul\":4007:4013   */\n  dup5\n    /* \"#utility.yul\":4004:4093   */\n  iszero\n  tag_52\n  jumpi\n  pop\n    /* \"#utility.yul\":4059:4078   */\n  dup6\n  dup4\n  add\n    /* \"#utility.yul\":4053:4079   */\n  mload\n    /* \"#utility.yul\":4004:4093   */\ntag_52:\n  not(0x00)\n    /* \"#utility.yul\":2808:2809   */\n  0x03\n    /* \"#utility.yul\":2804:2815   */\n  dup7\n  swap1\n  shl\n    /* \"#utility.yul\":2800:2824   */\n  shr\n    /* \"#utility.yul\":2796:2825   */\n  not\n    /* \"#utility.yul\":2786:2826   */\n  and\n    /* \"#utility.yul\":2832:2833   */\n  0x01\n    /* \"#utility.yul\":2828:2839   */\n  dup6\n  swap1\n  shl\n    /* \"#utility.yul\":2783:2840   */\n  or\n    /* \"#utility.yul\":4106:4187   */\n  dup6\n  sstore\n    /* \"#utility.yul\":3253:4197   */\n  jump(tag_43)\n    /* \"#utility.yul\":3283:3946   */\ntag_51:\n    /* \"#utility.yul\":2077:2078   */\n  0x00\n    /* \"#utility.yul\":2070:2084   */\n  dup6\n  dup2\n  mstore\n    /* \"#utility.yul\":2114:2118   */\n  0x20\n    /* \"#utility.yul\":2101:2119   */\n  dup2\n  keccak256\n  not(0x1f)\n    /* \"#utility.yul\":3319:3339   */\n  dup7\n  and\n  swap2\n    /* \"#utility.yul\":3437:3673   */\ntag_55:\n    /* \"#utility.yul\":3451:3458   */\n  dup3\n    /* \"#utility.yul\":3448:3449   */\n  dup2\n    /* \"#utility.yul\":3445:3459   */\n  lt\n    /* \"#utility.yul\":3437:3673   */\n  iszero\n  tag_57\n  jumpi\n    /* \"#utility.yul\":3540:3559   */\n  dup9\n  dup7\n  add\n    /* \"#utility.yul\":3534:3560   */\n  mload\n    /* \"#utility.yul\":3519:3561   */\n  dup3\n  sstore\n    /* \"#utility.yul\":3632:3659   */\n  swap5\n  dup5\n  add\n  swap5\n    /* \"#utility.yul\":3600:3601   */\n  0x01\n    /* \"#utility.yul\":3588:3602   */\n  swap1\n  swap2\n  add\n  swap1\n    /* \"#utility.yul\":3467:3486   */\n  dup5\n  add\n    /* \"#utility.yul\":3437:3673   */\n  jump(tag_55)\ntag_57:\n    /* \"#utility.yul\":3441:3444   */\n  pop\n    /* \"#utility.yul\":3701:3707   */\n  dup6\n    /* \"#utility.yul\":3692:3699   */\n  dup3\n    /* \"#utility.yul\":3689:3708   */\n  lt\n    /* \"#utility.yul\":3686:3887   */\n  iszero\n  tag_58\n  jumpi\n    /* \"#utility.yul\":3762:3781   */\n  dup8\n  dup6\n  add\n    /* \"#utility.yul\":3756:3782   */\n  mload\n  not(0x00)\n    /* \"#utility.yul\":3845:3846   */\n  0x03\n    /* \"#utility.yul\":3841:3855   */\n  dup9\n  swap1\n  shl\n    /* \"#utility.yul\":3857:3860   */\n  0xf8\n    /* \"#utility.yul\":3837:3861   */\n  and\n    /* \"#utility.yul\":3833:3870   */\n  shr\n    /* \"#utility.yul\":3829:3871   */\n  not\n    /* \"#utility.yul\":3814:3872   */\n  and\n    /* \"#utility.yul\":3799:3873   */\n  dup2\n  sstore\n    /* \"#utility.yul\":3686:3887   */\ntag_58:\n  pop\n  pop\n  pop\n  pop\n  pop\n    /* \"#utility.yul\":3933:3934   */\n  0x01\n    /* \"#utility.yul\":3917:3931   */\n  swap1\n  dup2\n  shl\n    /* \"#utility.yul\":3913:3935   */\n  add\n    /* \"#utility.yul\":3900:3936   */\n  swap1\n  sstore\n  pop\n    /* \"#utility.yul\":2851:4203   */\n  jump\t// out\ntag_16:\n    /* \"Custom-Dex/Erc-20.sol\":362:2686  contract erc20 is IERC20{... */\n  dataSize(sub_0)\n  dup1\n  dataOffset(sub_0)\n  0x00\n  codecopy\n  0x00\n  return\nstop\n\nsub_0: assembly {\n        /* \"Custom-Dex/Erc-20.sol\":362:2686  contract erc20 is IERC20{... */\n      mstore(0x40, 0x80)\n      callvalue\n      dup1\n      iszero\n      tag_1\n      jumpi\n      0x00\n      dup1\n      revert\n    tag_1:\n      pop\n      jumpi(tag_2, lt(calldatasize, 0x04))\n      shr(0xe0, calldataload(0x00))\n      dup1\n      0x70a08231\n      gt\n      tag_14\n      jumpi\n      dup1\n      0x70a08231\n      eq\n      tag_8\n      jumpi\n      dup1\n      0x95d89b41\n      eq\n      tag_9\n      jumpi\n      dup1\n      0xa0712d68\n      eq\n      tag_10\n      jumpi\n      dup1\n      0xa9059cbb\n      eq\n      tag_11\n      jumpi\n      dup1\n      0xdd62ed3e\n      eq\n      tag_12\n      jumpi\n      dup1\n      0xe1f21c67\n      eq\n      tag_13\n      jumpi\n      0x00\n      dup1\n      revert\n    tag_14:\n      dup1\n      0x06fdde03\n      eq\n      tag_3\n      jumpi\n      dup1\n      0x18160ddd\n      eq\n      tag_4\n      jumpi\n      dup1\n      0x23b872dd\n      eq\n      tag_5\n      jumpi\n      dup1\n      0x313ce567\n      eq\n      tag_6\n      jumpi\n      dup1\n      0x42966c68\n      eq\n      tag_7\n      jumpi\n    tag_2:\n      0x00\n      dup1\n      revert\n        /* \"Custom-Dex/Erc-20.sol\":392:411  string public  name */\n    tag_3:\n      tag_15\n      tag_16\n      jump\t// in\n    tag_15:\n      mload(0x40)\n      tag_17\n      swap2\n      swap1\n      tag_18\n      jump\t// in\n    tag_17:\n      mload(0x40)\n      dup1\n      swap2\n      sub\n      swap1\n      return\n        /* \"Custom-Dex/Erc-20.sol\":945:1038  function totalSupply() public override view returns(uint){... */\n    tag_4:\n        /* \"Custom-Dex/Erc-20.sol\":1019:1031  totalSupply_ */\n      sload(0x03)\n        /* \"Custom-Dex/Erc-20.sol\":945:1038  function totalSupply() public override view returns(uint){... */\n    tag_19:\n      mload(0x40)\n        /* \"#utility.yul\":713:738   */\n      swap1\n      dup2\n      mstore\n        /* \"#utility.yul\":701:703   */\n      0x20\n        /* \"#utility.yul\":686:704   */\n      add\n        /* \"Custom-Dex/Erc-20.sol\":945:1038  function totalSupply() public override view returns(uint){... */\n      tag_17\n        /* \"#utility.yul\":567:744   */\n      jump\n        /* \"Custom-Dex/Erc-20.sol\":2309:2684  function transferFrom(address _from,address _to,uint _value) public returns (bool){... */\n    tag_5:\n      tag_23\n      tag_24\n      calldatasize\n      0x04\n      tag_25\n      jump\t// in\n    tag_24:\n      tag_26\n      jump\t// in\n    tag_23:\n      mload(0x40)\n        /* \"#utility.yul\":1425:1439   */\n      swap1\n      iszero\n        /* \"#utility.yul\":1418:1440   */\n      iszero\n        /* \"#utility.yul\":1400:1441   */\n      dup2\n      mstore\n        /* \"#utility.yul\":1388:1390   */\n      0x20\n        /* \"#utility.yul\":1373:1391   */\n      add\n        /* \"Custom-Dex/Erc-20.sol\":2309:2684  function transferFrom(address _from,address _to,uint _value) public returns (bool){... */\n      tag_17\n        /* \"#utility.yul\":1260:1447   */\n      jump\n        /* \"Custom-Dex/Erc-20.sol\":443:468  uint public  decimals =18 */\n    tag_6:\n      tag_19\n      sload(0x02)\n      dup2\n      jump\n        /* \"Custom-Dex/Erc-20.sol\":1753:1914  function burn(uint _qty) public  onlyAdmin returns(uint){... */\n    tag_7:\n      tag_19\n      tag_33\n      calldatasize\n      0x04\n      tag_34\n      jump\t// in\n    tag_33:\n      tag_35\n      jump\t// in\n        /* \"Custom-Dex/Erc-20.sol\":1044:1161  function balanceOf(address tokenOwner) public override view returns(uint){... */\n    tag_8:\n      tag_19\n      tag_38\n      calldatasize\n      0x04\n      tag_39\n      jump\t// in\n    tag_38:\n      sub(shl(0xa0, 0x01), 0x01)\n        /* \"Custom-Dex/Erc-20.sol\":1134:1154  balances[tokenOwner] */\n      and\n        /* \"Custom-Dex/Erc-20.sol\":1112:1116  uint */\n      0x00\n        /* \"Custom-Dex/Erc-20.sol\":1134:1154  balances[tokenOwner] */\n      swap1\n      dup2\n      mstore\n        /* \"Custom-Dex/Erc-20.sol\":1134:1142  balances */\n      0x05\n        /* \"Custom-Dex/Erc-20.sol\":1134:1154  balances[tokenOwner] */\n      0x20\n      mstore\n      0x40\n      swap1\n      keccak256\n      sload\n      swap1\n        /* \"Custom-Dex/Erc-20.sol\":1044:1161  function balanceOf(address tokenOwner) public override view returns(uint){... */\n      jump\n        /* \"Custom-Dex/Erc-20.sol\":417:437  string public symbol */\n    tag_9:\n      tag_15\n      tag_43\n      jump\t// in\n        /* \"Custom-Dex/Erc-20.sol\":1587:1747  function mint(uint _qty) public  onlyAdmin returns(uint){... */\n    tag_10:\n      tag_19\n      tag_46\n      calldatasize\n      0x04\n      tag_34\n      jump\t// in\n    tag_46:\n      tag_47\n      jump\t// in\n        /* \"Custom-Dex/Erc-20.sol\":1167:1464  function transfer(address receiver,uint numTokens) public override returns(bool){... */\n    tag_11:\n      tag_23\n      tag_50\n      calldatasize\n      0x04\n      tag_51\n      jump\t// in\n    tag_50:\n      tag_52\n      jump\t// in\n        /* \"Custom-Dex/Erc-20.sol\":1920:2046  function allowance(address _owner,address _spender) public view returns(uint){... */\n    tag_12:\n      tag_19\n      tag_55\n      calldatasize\n      0x04\n      tag_56\n      jump\t// in\n    tag_55:\n      sub(shl(0xa0, 0x01), 0x01)\n        /* \"Custom-Dex/Erc-20.sol\":2014:2029  allowed[_owner] */\n      swap2\n      dup3\n      and\n        /* \"Custom-Dex/Erc-20.sol\":1992:1996  uint */\n      0x00\n        /* \"Custom-Dex/Erc-20.sol\":2014:2029  allowed[_owner] */\n      swap1\n      dup2\n      mstore\n        /* \"Custom-Dex/Erc-20.sol\":2014:2021  allowed */\n      0x06\n        /* \"Custom-Dex/Erc-20.sol\":2014:2029  allowed[_owner] */\n      0x20\n      swap1\n      dup2\n      mstore\n      0x40\n      dup1\n      dup4\n      keccak256\n        /* \"Custom-Dex/Erc-20.sol\":2014:2039  allowed[_owner][_spender] */\n      swap4\n      swap1\n      swap5\n      and\n      dup3\n      mstore\n      swap2\n      swap1\n      swap2\n      mstore\n      keccak256\n      sload\n      swap1\n        /* \"Custom-Dex/Erc-20.sol\":1920:2046  function allowance(address _owner,address _spender) public view returns(uint){... */\n      jump\n        /* \"Custom-Dex/Erc-20.sol\":2052:2253  function approve(address _owner, address _spender,uint _value) public returns(bool){... */\n    tag_13:\n      tag_23\n      tag_60\n      calldatasize\n      0x04\n      tag_25\n      jump\t// in\n    tag_60:\n      tag_61\n      jump\t// in\n        /* \"Custom-Dex/Erc-20.sol\":392:411  string public  name */\n    tag_16:\n      0x00\n      dup1\n      sload\n      tag_63\n      swap1\n      tag_64\n      jump\t// in\n    tag_63:\n      dup1\n      0x1f\n      add\n      0x20\n      dup1\n      swap2\n      div\n      mul\n      0x20\n      add\n      mload(0x40)\n      swap1\n      dup2\n      add\n      0x40\n      mstore\n      dup1\n      swap3\n      swap2\n      swap1\n      dup2\n      dup2\n      mstore\n      0x20\n      add\n      dup3\n      dup1\n      sload\n      tag_65\n      swap1\n      tag_64\n      jump\t// in\n    tag_65:\n      dup1\n      iszero\n      tag_66\n      jumpi\n      dup1\n      0x1f\n      lt\n      tag_67\n      jumpi\n      0x0100\n      dup1\n      dup4\n      sload\n      div\n      mul\n      dup4\n      mstore\n      swap2\n      0x20\n      add\n      swap2\n      jump(tag_66)\n    tag_67:\n      dup3\n      add\n      swap2\n      swap1\n      0x00\n      mstore\n      keccak256(0x00, 0x20)\n      swap1\n    tag_68:\n      dup2\n      sload\n      dup2\n      mstore\n      swap1\n      0x01\n      add\n      swap1\n      0x20\n      add\n      dup1\n      dup4\n      gt\n      tag_68\n      jumpi\n      dup3\n      swap1\n      sub\n      0x1f\n      and\n      dup3\n      add\n      swap2\n    tag_66:\n      pop\n      pop\n      pop\n      pop\n      pop\n      dup2\n      jump\t// out\n        /* \"Custom-Dex/Erc-20.sol\":2309:2684  function transferFrom(address _from,address _to,uint _value) public returns (bool){... */\n    tag_26:\n      sub(shl(0xa0, 0x01), 0x01)\n        /* \"Custom-Dex/Erc-20.sol\":2414:2428  allowed[_from] */\n      dup4\n      and\n        /* \"Custom-Dex/Erc-20.sol\":2386:2390  bool */\n      0x00\n        /* \"Custom-Dex/Erc-20.sol\":2414:2428  allowed[_from] */\n      dup2\n      dup2\n      mstore\n        /* \"Custom-Dex/Erc-20.sol\":2414:2421  allowed */\n      0x06\n        /* \"Custom-Dex/Erc-20.sol\":2414:2428  allowed[_from] */\n      0x20\n      swap1\n      dup2\n      mstore\n      0x40\n      dup1\n      dup4\n      keccak256\n        /* \"Custom-Dex/Erc-20.sol\":2429:2439  msg.sender */\n      caller\n        /* \"Custom-Dex/Erc-20.sol\":2414:2440  allowed[_from][msg.sender] */\n      dup5\n      mstore\n      dup3\n      mstore\n      dup1\n      dup4\n      keccak256\n      sload\n        /* \"Custom-Dex/Erc-20.sol\":2458:2473  balances[_from] */\n      swap4\n      dup4\n      mstore\n        /* \"Custom-Dex/Erc-20.sol\":2458:2466  balances */\n      0x05\n        /* \"Custom-Dex/Erc-20.sol\":2458:2473  balances[_from] */\n      swap1\n      swap2\n      mstore\n      dup2\n      keccak256\n      sload\n        /* \"Custom-Dex/Erc-20.sol\":2386:2390  bool */\n      swap1\n      swap2\n        /* \"Custom-Dex/Erc-20.sol\":2414:2440  allowed[_from][msg.sender] */\n      swap1\n        /* \"Custom-Dex/Erc-20.sol\":2458:2481  balances[_from]>=_value */\n      dup4\n      gt\n      dup1\n      iszero\n      swap1\n        /* \"Custom-Dex/Erc-20.sol\":2458:2498  balances[_from]>=_value && allow>=_value */\n      tag_71\n      jumpi\n      pop\n        /* \"Custom-Dex/Erc-20.sol\":2492:2498  _value */\n      dup3\n        /* \"Custom-Dex/Erc-20.sol\":2485:2490  allow */\n      dup2\n        /* \"Custom-Dex/Erc-20.sol\":2485:2498  allow>=_value */\n      lt\n      iszero\n        /* \"Custom-Dex/Erc-20.sol\":2458:2498  balances[_from]>=_value && allow>=_value */\n    tag_71:\n        /* \"Custom-Dex/Erc-20.sol\":2450:2499  require(balances[_from]>=_value && allow>=_value) */\n      tag_72\n      jumpi\n      0x00\n      dup1\n      revert\n    tag_72:\n      sub(shl(0xa0, 0x01), 0x01)\n        /* \"Custom-Dex/Erc-20.sol\":2509:2522  balances[_to] */\n      dup5\n      and\n      0x00\n      swap1\n      dup2\n      mstore\n        /* \"Custom-Dex/Erc-20.sol\":2509:2517  balances */\n      0x05\n        /* \"Custom-Dex/Erc-20.sol\":2509:2522  balances[_to] */\n      0x20\n      mstore\n      0x40\n      dup2\n      keccak256\n        /* \"Custom-Dex/Erc-20.sol\":2509:2532  balances[_to] += _value */\n      dup1\n      sload\n        /* \"Custom-Dex/Erc-20.sol\":2526:2532  _value */\n      dup6\n      swap3\n        /* \"Custom-Dex/Erc-20.sol\":2509:2522  balances[_to] */\n      swap1\n        /* \"Custom-Dex/Erc-20.sol\":2509:2532  balances[_to] += _value */\n      tag_73\n      swap1\n        /* \"Custom-Dex/Erc-20.sol\":2526:2532  _value */\n      dup5\n      swap1\n        /* \"Custom-Dex/Erc-20.sol\":2509:2532  balances[_to] += _value */\n      tag_74\n      jump\t// in\n    tag_73:\n      swap1\n      swap2\n      sstore\n      pop\n      pop\n      sub(shl(0xa0, 0x01), 0x01)\n        /* \"Custom-Dex/Erc-20.sol\":2542:2557  balances[_from] */\n      dup6\n      and\n      0x00\n      swap1\n      dup2\n      mstore\n        /* \"Custom-Dex/Erc-20.sol\":2542:2550  balances */\n      0x05\n        /* \"Custom-Dex/Erc-20.sol\":2542:2557  balances[_from] */\n      0x20\n      mstore\n      0x40\n      dup2\n      keccak256\n        /* \"Custom-Dex/Erc-20.sol\":2542:2567  balances[_from] -= _value */\n      dup1\n      sload\n        /* \"Custom-Dex/Erc-20.sol\":2561:2567  _value */\n      dup6\n      swap3\n        /* \"Custom-Dex/Erc-20.sol\":2542:2557  balances[_from] */\n      swap1\n        /* \"Custom-Dex/Erc-20.sol\":2542:2567  balances[_from] -= _value */\n      tag_75\n      swap1\n        /* \"Custom-Dex/Erc-20.sol\":2561:2567  _value */\n      dup5\n      swap1\n        /* \"Custom-Dex/Erc-20.sol\":2542:2567  balances[_from] -= _value */\n      tag_76\n      jump\t// in\n    tag_75:\n      swap1\n      swap2\n      sstore\n      pop\n      pop\n      sub(shl(0xa0, 0x01), 0x01)\n        /* \"Custom-Dex/Erc-20.sol\":2577:2591  allowed[_from] */\n      dup6\n      and\n      0x00\n      swap1\n      dup2\n      mstore\n        /* \"Custom-Dex/Erc-20.sol\":2577:2584  allowed */\n      0x06\n        /* \"Custom-Dex/Erc-20.sol\":2577:2591  allowed[_from] */\n      0x20\n      swap1\n      dup2\n      mstore\n      0x40\n      dup1\n      dup4\n      keccak256\n        /* \"Custom-Dex/Erc-20.sol\":2592:2602  msg.sender */\n      caller\n        /* \"Custom-Dex/Erc-20.sol\":2577:2603  allowed[_from][msg.sender] */\n      dup5\n      mstore\n      swap1\n      swap2\n      mstore\n      dup2\n      keccak256\n        /* \"Custom-Dex/Erc-20.sol\":2577:2612  allowed[_from][msg.sender] -=_value */\n      dup1\n      sload\n        /* \"Custom-Dex/Erc-20.sol\":2606:2612  _value */\n      dup6\n      swap3\n        /* \"Custom-Dex/Erc-20.sol\":2577:2591  allowed[_from] */\n      swap1\n        /* \"Custom-Dex/Erc-20.sol\":2577:2612  allowed[_from][msg.sender] -=_value */\n      tag_77\n      swap1\n        /* \"Custom-Dex/Erc-20.sol\":2606:2612  _value */\n      dup5\n      swap1\n        /* \"Custom-Dex/Erc-20.sol\":2577:2612  allowed[_from][msg.sender] -=_value */\n      tag_76\n      jump\t// in\n    tag_77:\n      swap3\n      pop\n      pop\n      dup2\n      swap1\n      sstore\n      pop\n        /* \"Custom-Dex/Erc-20.sol\":2644:2647  _to */\n      dup4\n      sub(shl(0xa0, 0x01), 0x01)\n        /* \"Custom-Dex/Erc-20.sol\":2629:2655  Transfer(_from,_to,_value) */\n      and\n        /* \"Custom-Dex/Erc-20.sol\":2638:2643  _from */\n      dup6\n      sub(shl(0xa0, 0x01), 0x01)\n        /* \"Custom-Dex/Erc-20.sol\":2629:2655  Transfer(_from,_to,_value) */\n      and\n      0xddf252ad1be2c89b69c2b068fc378daa952ba7f163c4a11628f55a4df523b3ef\n        /* \"Custom-Dex/Erc-20.sol\":2648:2654  _value */\n      dup6\n        /* \"Custom-Dex/Erc-20.sol\":2629:2655  Transfer(_from,_to,_value) */\n      mload(0x40)\n      tag_78\n      swap2\n        /* \"#utility.yul\":713:738   */\n      dup2\n      mstore\n        /* \"#utility.yul\":701:703   */\n      0x20\n        /* \"#utility.yul\":686:704   */\n      add\n      swap1\n        /* \"#utility.yul\":567:744   */\n      jump\n        /* \"Custom-Dex/Erc-20.sol\":2629:2655  Transfer(_from,_to,_value) */\n    tag_78:\n      mload(0x40)\n      dup1\n      swap2\n      sub\n      swap1\n      log3\n      pop\n        /* \"Custom-Dex/Erc-20.sol\":2673:2677  true */\n      0x01\n      swap5\n        /* \"Custom-Dex/Erc-20.sol\":2309:2684  function transferFrom(address _from,address _to,uint _value) public returns (bool){... */\n      swap4\n      pop\n      pop\n      pop\n      pop\n      jump\t// out\n        /* \"Custom-Dex/Erc-20.sol\":1753:1914  function burn(uint _qty) public  onlyAdmin returns(uint){... */\n    tag_35:\n        /* \"Custom-Dex/Erc-20.sol\":1520:1525  admin */\n      sload(0x04)\n        /* \"Custom-Dex/Erc-20.sol\":1804:1808  uint */\n      0x00\n      swap1\n      sub(shl(0xa0, 0x01), 0x01)\n        /* \"Custom-Dex/Erc-20.sol\":1520:1525  admin */\n      and\n        /* \"Custom-Dex/Erc-20.sol\":1506:1516  msg.sender */\n      caller\n        /* \"Custom-Dex/Erc-20.sol\":1506:1525  msg.sender == admin */\n      eq\n        /* \"Custom-Dex/Erc-20.sol\":1498:1563  require(msg.sender == admin , \"only admin can run this function\") */\n      tag_80\n      jumpi\n      mload(0x40)\n      shl(0xe5, 0x461bcd)\n      dup2\n      mstore\n        /* \"#utility.yul\":3334:3336   */\n      0x20\n        /* \"Custom-Dex/Erc-20.sol\":1498:1563  require(msg.sender == admin , \"only admin can run this function\") */\n      0x04\n      dup3\n      add\n        /* \"#utility.yul\":3316:3337   */\n      dup2\n      swap1\n      mstore\n        /* \"#utility.yul\":3353:3371   */\n      0x24\n      dup3\n      add\n        /* \"#utility.yul\":3346:3376   */\n      mstore\n        /* \"#utility.yul\":3412:3446   */\n      0x6f6e6c792061646d696e2063616e2072756e20746869732066756e6374696f6e\n        /* \"#utility.yul\":3392:3410   */\n      0x44\n      dup3\n      add\n        /* \"#utility.yul\":3385:3447   */\n      mstore\n        /* \"#utility.yul\":3464:3482   */\n      0x64\n      add\n        /* \"Custom-Dex/Erc-20.sol\":1498:1563  require(msg.sender == admin , \"only admin can run this function\") */\n    tag_81:\n      mload(0x40)\n      dup1\n      swap2\n      sub\n      swap1\n      revert\n    tag_80:\n        /* \"Custom-Dex/Erc-20.sol\":1835:1839  _qty */\n      dup2\n        /* \"Custom-Dex/Erc-20.sol\":1819:1831  totalSupply_ */\n      0x03\n      0x00\n        /* \"Custom-Dex/Erc-20.sol\":1819:1839  totalSupply_ -= _qty */\n      dup3\n      dup3\n      sload\n      tag_84\n      swap2\n      swap1\n      tag_76\n      jump\t// in\n    tag_84:\n      swap1\n      swap2\n      sstore\n      pop\n      pop\n        /* \"Custom-Dex/Erc-20.sol\":1858:1868  msg.sender */\n      caller\n        /* \"Custom-Dex/Erc-20.sol\":1849:1869  balances[msg.sender] */\n      0x00\n      swap1\n      dup2\n      mstore\n        /* \"Custom-Dex/Erc-20.sol\":1849:1857  balances */\n      0x05\n        /* \"Custom-Dex/Erc-20.sol\":1849:1869  balances[msg.sender] */\n      0x20\n      mstore\n      0x40\n      dup2\n      keccak256\n        /* \"Custom-Dex/Erc-20.sol\":1849:1877  balances[msg.sender] -= _qty */\n      dup1\n      sload\n        /* \"Custom-Dex/Erc-20.sol\":1873:1877  _qty */\n      dup5\n      swap3\n        /* \"Custom-Dex/Erc-20.sol\":1849:1869  balances[msg.sender] */\n      swap1\n        /* \"Custom-Dex/Erc-20.sol\":1849:1877  balances[msg.sender] -= _qty */\n      tag_85\n      swap1\n        /* \"Custom-Dex/Erc-20.sol\":1873:1877  _qty */\n      dup5\n      swap1\n        /* \"Custom-Dex/Erc-20.sol\":1849:1877  balances[msg.sender] -= _qty */\n      tag_76\n      jump\t// in\n    tag_85:\n      swap1\n      swap2\n      sstore\n      pop\n      pop\n        /* \"Custom-Dex/Erc-20.sol\":1894:1906  totalSupply_ */\n      sload(0x03)\n      swap1\n      pop\n        /* \"Custom-Dex/Erc-20.sol\":1573:1574  _ */\n    tag_83:\n        /* \"Custom-Dex/Erc-20.sol\":1753:1914  function burn(uint _qty) public  onlyAdmin returns(uint){... */\n      swap2\n      swap1\n      pop\n      jump\t// out\n        /* \"Custom-Dex/Erc-20.sol\":417:437  string public symbol */\n    tag_43:\n      0x01\n      dup1\n      sload\n      tag_63\n      swap1\n      tag_64\n      jump\t// in\n        /* \"Custom-Dex/Erc-20.sol\":1587:1747  function mint(uint _qty) public  onlyAdmin returns(uint){... */\n    tag_47:\n        /* \"Custom-Dex/Erc-20.sol\":1520:1525  admin */\n      sload(0x04)\n        /* \"Custom-Dex/Erc-20.sol\":1638:1642  uint */\n      0x00\n      swap1\n      sub(shl(0xa0, 0x01), 0x01)\n        /* \"Custom-Dex/Erc-20.sol\":1520:1525  admin */\n      and\n        /* \"Custom-Dex/Erc-20.sol\":1506:1516  msg.sender */\n      caller\n        /* \"Custom-Dex/Erc-20.sol\":1506:1525  msg.sender == admin */\n      eq\n        /* \"Custom-Dex/Erc-20.sol\":1498:1563  require(msg.sender == admin , \"only admin can run this function\") */\n      tag_93\n      jumpi\n      mload(0x40)\n      shl(0xe5, 0x461bcd)\n      dup2\n      mstore\n        /* \"#utility.yul\":3334:3336   */\n      0x20\n        /* \"Custom-Dex/Erc-20.sol\":1498:1563  require(msg.sender == admin , \"only admin can run this function\") */\n      0x04\n      dup3\n      add\n        /* \"#utility.yul\":3316:3337   */\n      dup2\n      swap1\n      mstore\n        /* \"#utility.yul\":3353:3371   */\n      0x24\n      dup3\n      add\n        /* \"#utility.yul\":3346:3376   */\n      mstore\n        /* \"#utility.yul\":3412:3446   */\n      0x6f6e6c792061646d696e2063616e2072756e20746869732066756e6374696f6e\n        /* \"#utility.yul\":3392:3410   */\n      0x44\n      dup3\n      add\n        /* \"#utility.yul\":3385:3447   */\n      mstore\n        /* \"#utility.yul\":3464:3482   */\n      0x64\n      add\n        /* \"Custom-Dex/Erc-20.sol\":1498:1563  require(msg.sender == admin , \"only admin can run this function\") */\n      tag_81\n        /* \"#utility.yul\":3132:3488   */\n      jump\n        /* \"Custom-Dex/Erc-20.sol\":1498:1563  require(msg.sender == admin , \"only admin can run this function\") */\n    tag_93:\n        /* \"Custom-Dex/Erc-20.sol\":1669:1673  _qty */\n      dup2\n        /* \"Custom-Dex/Erc-20.sol\":1653:1665  totalSupply_ */\n      0x03\n      0x00\n        /* \"Custom-Dex/Erc-20.sol\":1653:1673  totalSupply_ += _qty */\n      dup3\n      dup3\n      sload\n      tag_96\n      swap2\n      swap1\n      tag_74\n      jump\t// in\n    tag_96:\n      swap1\n      swap2\n      sstore\n      pop\n      pop\n        /* \"Custom-Dex/Erc-20.sol\":1692:1702  msg.sender */\n      caller\n        /* \"Custom-Dex/Erc-20.sol\":1683:1703  balances[msg.sender] */\n      0x00\n      swap1\n      dup2\n      mstore\n        /* \"Custom-Dex/Erc-20.sol\":1683:1691  balances */\n      0x05\n        /* \"Custom-Dex/Erc-20.sol\":1683:1703  balances[msg.sender] */\n      0x20\n      mstore\n      0x40\n      dup2\n      keccak256\n        /* \"Custom-Dex/Erc-20.sol\":1683:1711  balances[msg.sender] += _qty */\n      dup1\n      sload\n        /* \"Custom-Dex/Erc-20.sol\":1707:1711  _qty */\n      dup5\n      swap3\n        /* \"Custom-Dex/Erc-20.sol\":1683:1703  balances[msg.sender] */\n      swap1\n        /* \"Custom-Dex/Erc-20.sol\":1683:1711  balances[msg.sender] += _qty */\n      tag_85\n      swap1\n        /* \"Custom-Dex/Erc-20.sol\":1707:1711  _qty */\n      dup5\n      swap1\n        /* \"Custom-Dex/Erc-20.sol\":1683:1711  balances[msg.sender] += _qty */\n      tag_74\n      jump\t// in\n        /* \"Custom-Dex/Erc-20.sol\":1167:1464  function transfer(address receiver,uint numTokens) public override returns(bool){... */\n    tag_52:\n        /* \"Custom-Dex/Erc-20.sol\":1287:1297  msg.sender */\n      caller\n        /* \"Custom-Dex/Erc-20.sol\":1242:1246  bool */\n      0x00\n        /* \"Custom-Dex/Erc-20.sol\":1278:1298  balances[msg.sender] */\n      swap1\n      dup2\n      mstore\n        /* \"Custom-Dex/Erc-20.sol\":1278:1286  balances */\n      0x05\n        /* \"Custom-Dex/Erc-20.sol\":1278:1298  balances[msg.sender] */\n      0x20\n      mstore\n      0x40\n      dup2\n      keccak256\n      sload\n        /* \"Custom-Dex/Erc-20.sol\":1265:1298  numTokens <= balances[msg.sender] */\n      dup3\n      gt\n      iszero\n        /* \"Custom-Dex/Erc-20.sol\":1257:1299  require(numTokens <= balances[msg.sender]) */\n      tag_99\n      jumpi\n      0x00\n      dup1\n      revert\n    tag_99:\n        /* \"Custom-Dex/Erc-20.sol\":1318:1328  msg.sender */\n      caller\n        /* \"Custom-Dex/Erc-20.sol\":1309:1329  balances[msg.sender] */\n      0x00\n      swap1\n      dup2\n      mstore\n        /* \"Custom-Dex/Erc-20.sol\":1309:1317  balances */\n      0x05\n        /* \"Custom-Dex/Erc-20.sol\":1309:1329  balances[msg.sender] */\n      0x20\n      mstore\n      0x40\n      dup2\n      keccak256\n        /* \"Custom-Dex/Erc-20.sol\":1309:1341  balances[msg.sender] -=numTokens */\n      dup1\n      sload\n        /* \"Custom-Dex/Erc-20.sol\":1332:1341  numTokens */\n      dup5\n      swap3\n        /* \"Custom-Dex/Erc-20.sol\":1309:1329  balances[msg.sender] */\n      swap1\n        /* \"Custom-Dex/Erc-20.sol\":1309:1341  balances[msg.sender] -=numTokens */\n      tag_100\n      swap1\n        /* \"Custom-Dex/Erc-20.sol\":1332:1341  numTokens */\n      dup5\n      swap1\n        /* \"Custom-Dex/Erc-20.sol\":1309:1341  balances[msg.sender] -=numTokens */\n      tag_76\n      jump\t// in\n    tag_100:\n      swap1\n      swap2\n      sstore\n      pop\n      pop\n      sub(shl(0xa0, 0x01), 0x01)\n        /* \"Custom-Dex/Erc-20.sol\":1351:1369  balances[receiver] */\n      dup4\n      and\n      0x00\n      swap1\n      dup2\n      mstore\n        /* \"Custom-Dex/Erc-20.sol\":1351:1359  balances */\n      0x05\n        /* \"Custom-Dex/Erc-20.sol\":1351:1369  balances[receiver] */\n      0x20\n      mstore\n      0x40\n      dup2\n      keccak256\n        /* \"Custom-Dex/Erc-20.sol\":1351:1382  balances[receiver] += numTokens */\n      dup1\n      sload\n        /* \"Custom-Dex/Erc-20.sol\":1373:1382  numTokens */\n      dup5\n      swap3\n        /* \"Custom-Dex/Erc-20.sol\":1351:1369  balances[receiver] */\n      swap1\n        /* \"Custom-Dex/Erc-20.sol\":1351:1382  balances[receiver] += numTokens */\n      tag_101\n      swap1\n        /* \"Custom-Dex/Erc-20.sol\":1373:1382  numTokens */\n      dup5\n      swap1\n        /* \"Custom-Dex/Erc-20.sol\":1351:1382  balances[receiver] += numTokens */\n      tag_74\n      jump\t// in\n    tag_101:\n      swap1\n      swap2\n      sstore\n      pop\n      pop\n        /* \"Custom-Dex/Erc-20.sol\":1397:1436  Transfer(msg.sender,receiver,numTokens) */\n      mload(0x40)\n        /* \"#utility.yul\":713:738   */\n      dup3\n      dup2\n      mstore\n      sub(shl(0xa0, 0x01), 0x01)\n        /* \"Custom-Dex/Erc-20.sol\":1397:1436  Transfer(msg.sender,receiver,numTokens) */\n      dup5\n      and\n      swap1\n        /* \"Custom-Dex/Erc-20.sol\":1406:1416  msg.sender */\n      caller\n      swap1\n        /* \"Custom-Dex/Erc-20.sol\":1397:1436  Transfer(msg.sender,receiver,numTokens) */\n      0xddf252ad1be2c89b69c2b068fc378daa952ba7f163c4a11628f55a4df523b3ef\n      swap1\n        /* \"#utility.yul\":701:703   */\n      0x20\n        /* \"#utility.yul\":686:704   */\n      add\n        /* \"Custom-Dex/Erc-20.sol\":1397:1436  Transfer(msg.sender,receiver,numTokens) */\n      mload(0x40)\n      dup1\n      swap2\n      sub\n      swap1\n      log3\n      pop\n        /* \"Custom-Dex/Erc-20.sol\":1453:1457  true */\n      0x01\n        /* \"Custom-Dex/Erc-20.sol\":1167:1464  function transfer(address receiver,uint numTokens) public override returns(bool){... */\n    tag_98:\n      swap3\n      swap2\n      pop\n      pop\n      jump\t// out\n        /* \"Custom-Dex/Erc-20.sol\":2052:2253  function approve(address _owner, address _spender,uint _value) public returns(bool){... */\n    tag_61:\n      sub(shl(0xa0, 0x01), 0x01)\n        /* \"Custom-Dex/Erc-20.sol\":2145:2160  allowed[_owner] */\n      dup4\n      dup2\n      and\n        /* \"Custom-Dex/Erc-20.sol\":2130:2134  bool */\n      0x00\n        /* \"Custom-Dex/Erc-20.sol\":2145:2160  allowed[_owner] */\n      dup2\n      dup2\n      mstore\n        /* \"Custom-Dex/Erc-20.sol\":2145:2152  allowed */\n      0x06\n        /* \"Custom-Dex/Erc-20.sol\":2145:2160  allowed[_owner] */\n      0x20\n      swap1\n      dup2\n      mstore\n      0x40\n      dup1\n      dup4\n      keccak256\n        /* \"Custom-Dex/Erc-20.sol\":2145:2170  allowed[_owner][_spender] */\n      swap5\n      dup8\n      and\n      dup1\n      dup5\n      mstore\n      swap5\n      dup3\n      mstore\n      dup1\n      dup4\n      keccak256\n        /* \"Custom-Dex/Erc-20.sol\":2145:2178  allowed[_owner][_spender] =_value */\n      dup7\n      swap1\n      sstore\n        /* \"Custom-Dex/Erc-20.sol\":2193:2225  Approval(_owner,_spender,_value) */\n      mload\n        /* \"#utility.yul\":713:738   */\n      dup6\n      dup2\n      mstore\n        /* \"Custom-Dex/Erc-20.sol\":2130:2134  bool */\n      swap2\n      swap4\n        /* \"Custom-Dex/Erc-20.sol\":2145:2170  allowed[_owner][_spender] */\n      swap3\n        /* \"Custom-Dex/Erc-20.sol\":2145:2160  allowed[_owner] */\n      swap2\n        /* \"Custom-Dex/Erc-20.sol\":2193:2225  Approval(_owner,_spender,_value) */\n      0x8c5be1e5ebec7d5bd14f71427d1e84f3dd0314c0f7b2291e5b200ac8c7c3b925\n      swap2\n        /* \"#utility.yul\":686:704   */\n      add\n        /* \"Custom-Dex/Erc-20.sol\":2193:2225  Approval(_owner,_spender,_value) */\n      mload(0x40)\n      dup1\n      swap2\n      sub\n      swap1\n      log3\n      pop\n        /* \"Custom-Dex/Erc-20.sol\":2242:2246  true */\n      0x01\n        /* \"Custom-Dex/Erc-20.sol\":2052:2253  function approve(address _owner, address _spender,uint _value) public returns(bool){... */\n      swap4\n      swap3\n      pop\n      pop\n      pop\n      jump\t// out\n        /* \"#utility.yul\":14:562   */\n    tag_18:\n        /* \"#utility.yul\":126:130   */\n      0x00\n        /* \"#utility.yul\":155:157   */\n      0x20\n        /* \"#utility.yul\":184:186   */\n      dup1\n        /* \"#utility.yul\":173:182   */\n      dup4\n        /* \"#utility.yul\":166:187   */\n      mstore\n        /* \"#utility.yul\":216:222   */\n      dup4\n        /* \"#utility.yul\":210:223   */\n      mload\n        /* \"#utility.yul\":259:265   */\n      dup1\n        /* \"#utility.yul\":254:256   */\n      dup3\n        /* \"#utility.yul\":243:252   */\n      dup6\n        /* \"#utility.yul\":239:257   */\n      add\n        /* \"#utility.yul\":232:266   */\n      mstore\n        /* \"#utility.yul\":284:285   */\n      0x00\n        /* \"#utility.yul\":294:434   */\n    tag_110:\n        /* \"#utility.yul\":308:314   */\n      dup2\n        /* \"#utility.yul\":305:306   */\n      dup2\n        /* \"#utility.yul\":302:315   */\n      lt\n        /* \"#utility.yul\":294:434   */\n      iszero\n      tag_112\n      jumpi\n        /* \"#utility.yul\":403:417   */\n      dup6\n      dup2\n      add\n        /* \"#utility.yul\":399:422   */\n      dup4\n      add\n        /* \"#utility.yul\":393:423   */\n      mload\n        /* \"#utility.yul\":369:386   */\n      dup6\n      dup3\n      add\n        /* \"#utility.yul\":388:390   */\n      0x40\n        /* \"#utility.yul\":365:391   */\n      add\n        /* \"#utility.yul\":358:424   */\n      mstore\n        /* \"#utility.yul\":323:333   */\n      dup3\n      add\n        /* \"#utility.yul\":294:434   */\n      jump(tag_110)\n    tag_112:\n        /* \"#utility.yul\":298:301   */\n      pop\n        /* \"#utility.yul\":483:484   */\n      0x00\n        /* \"#utility.yul\":478:480   */\n      0x40\n        /* \"#utility.yul\":469:475   */\n      dup3\n        /* \"#utility.yul\":458:467   */\n      dup7\n        /* \"#utility.yul\":454:476   */\n      add\n        /* \"#utility.yul\":450:481   */\n      add\n        /* \"#utility.yul\":443:485   */\n      mstore\n        /* \"#utility.yul\":553:555   */\n      0x40\n        /* \"#utility.yul\":546:548   */\n      0x1f\n        /* \"#utility.yul\":542:549   */\n      not\n        /* \"#utility.yul\":537:539   */\n      0x1f\n        /* \"#utility.yul\":529:535   */\n      dup4\n        /* \"#utility.yul\":525:540   */\n      add\n        /* \"#utility.yul\":521:550   */\n      and\n        /* \"#utility.yul\":510:519   */\n      dup6\n        /* \"#utility.yul\":506:551   */\n      add\n        /* \"#utility.yul\":502:556   */\n      add\n        /* \"#utility.yul\":494:556   */\n      swap3\n      pop\n      pop\n      pop\n        /* \"#utility.yul\":14:562   */\n      swap3\n      swap2\n      pop\n      pop\n      jump\t// out\n        /* \"#utility.yul\":749:922   */\n    tag_106:\n        /* \"#utility.yul\":817:837   */\n      dup1\n      calldataload\n      sub(shl(0xa0, 0x01), 0x01)\n        /* \"#utility.yul\":866:897   */\n      dup2\n      and\n        /* \"#utility.yul\":856:898   */\n      dup2\n      eq\n        /* \"#utility.yul\":846:916   */\n      tag_83\n      jumpi\n        /* \"#utility.yul\":912:913   */\n      0x00\n        /* \"#utility.yul\":909:910   */\n      dup1\n        /* \"#utility.yul\":902:914   */\n      revert\n        /* \"#utility.yul\":927:1255   */\n    tag_25:\n        /* \"#utility.yul\":1004:1010   */\n      0x00\n        /* \"#utility.yul\":1012:1018   */\n      dup1\n        /* \"#utility.yul\":1020:1026   */\n      0x00\n        /* \"#utility.yul\":1073:1075   */\n      0x60\n        /* \"#utility.yul\":1061:1070   */\n      dup5\n        /* \"#utility.yul\":1052:1059   */\n      dup7\n        /* \"#utility.yul\":1048:1071   */\n      sub\n        /* \"#utility.yul\":1044:1076   */\n      slt\n        /* \"#utility.yul\":1041:1093   */\n      iszero\n      tag_117\n      jumpi\n        /* \"#utility.yul\":1089:1090   */\n      0x00\n        /* \"#utility.yul\":1086:1087   */\n      dup1\n        /* \"#utility.yul\":1079:1091   */\n      revert\n        /* \"#utility.yul\":1041:1093   */\n    tag_117:\n        /* \"#utility.yul\":1112:1141   */\n      tag_118\n        /* \"#utility.yul\":1131:1140   */\n      dup5\n        /* \"#utility.yul\":1112:1141   */\n      tag_106\n      jump\t// in\n    tag_118:\n        /* \"#utility.yul\":1102:1141   */\n      swap3\n      pop\n        /* \"#utility.yul\":1160:1198   */\n      tag_119\n        /* \"#utility.yul\":1194:1196   */\n      0x20\n        /* \"#utility.yul\":1183:1192   */\n      dup6\n        /* \"#utility.yul\":1179:1197   */\n      add\n        /* \"#utility.yul\":1160:1198   */\n      tag_106\n      jump\t// in\n    tag_119:\n        /* \"#utility.yul\":1150:1198   */\n      swap2\n      pop\n        /* \"#utility.yul\":1245:1247   */\n      0x40\n        /* \"#utility.yul\":1234:1243   */\n      dup5\n        /* \"#utility.yul\":1230:1248   */\n      add\n        /* \"#utility.yul\":1217:1249   */\n      calldataload\n        /* \"#utility.yul\":1207:1249   */\n      swap1\n      pop\n        /* \"#utility.yul\":927:1255   */\n      swap3\n      pop\n      swap3\n      pop\n      swap3\n      jump\t// out\n        /* \"#utility.yul\":1452:1632   */\n    tag_34:\n        /* \"#utility.yul\":1511:1517   */\n      0x00\n        /* \"#utility.yul\":1564:1566   */\n      0x20\n        /* \"#utility.yul\":1552:1561   */\n      dup3\n        /* \"#utility.yul\":1543:1550   */\n      dup5\n        /* \"#utility.yul\":1539:1562   */\n      sub\n        /* \"#utility.yul\":1535:1567   */\n      slt\n        /* \"#utility.yul\":1532:1584   */\n      iszero\n      tag_122\n      jumpi\n        /* \"#utility.yul\":1580:1581   */\n      0x00\n        /* \"#utility.yul\":1577:1578   */\n      dup1\n        /* \"#utility.yul\":1570:1582   */\n      revert\n        /* \"#utility.yul\":1532:1584   */\n    tag_122:\n      pop\n        /* \"#utility.yul\":1603:1626   */\n      calldataload\n      swap2\n        /* \"#utility.yul\":1452:1632   */\n      swap1\n      pop\n      jump\t// out\n        /* \"#utility.yul\":1637:1823   */\n    tag_39:\n        /* \"#utility.yul\":1696:1702   */\n      0x00\n        /* \"#utility.yul\":1749:1751   */\n      0x20\n        /* \"#utility.yul\":1737:1746   */\n      dup3\n        /* \"#utility.yul\":1728:1735   */\n      dup5\n        /* \"#utility.yul\":1724:1747   */\n      sub\n        /* \"#utility.yul\":1720:1752   */\n      slt\n        /* \"#utility.yul\":1717:1769   */\n      iszero\n      tag_124\n      jumpi\n        /* \"#utility.yul\":1765:1766   */\n      0x00\n        /* \"#utility.yul\":1762:1763   */\n      dup1\n        /* \"#utility.yul\":1755:1767   */\n      revert\n        /* \"#utility.yul\":1717:1769   */\n    tag_124:\n        /* \"#utility.yul\":1788:1817   */\n      tag_125\n        /* \"#utility.yul\":1807:1816   */\n      dup3\n        /* \"#utility.yul\":1788:1817   */\n      tag_106\n      jump\t// in\n    tag_125:\n        /* \"#utility.yul\":1778:1817   */\n      swap4\n        /* \"#utility.yul\":1637:1823   */\n      swap3\n      pop\n      pop\n      pop\n      jump\t// out\n        /* \"#utility.yul\":1828:2082   */\n    tag_51:\n        /* \"#utility.yul\":1896:1902   */\n      0x00\n        /* \"#utility.yul\":1904:1910   */\n      dup1\n        /* \"#utility.yul\":1957:1959   */\n      0x40\n        /* \"#utility.yul\":1945:1954   */\n      dup4\n        /* \"#utility.yul\":1936:1943   */\n      dup6\n        /* \"#utility.yul\":1932:1955   */\n      sub\n        /* \"#utility.yul\":1928:1960   */\n      slt\n        /* \"#utility.yul\":1925:1977   */\n      iszero\n      tag_127\n      jumpi\n        /* \"#utility.yul\":1973:1974   */\n      0x00\n        /* \"#utility.yul\":1970:1971   */\n      dup1\n        /* \"#utility.yul\":1963:1975   */\n      revert\n        /* \"#utility.yul\":1925:1977   */\n    tag_127:\n        /* \"#utility.yul\":1996:2025   */\n      tag_128\n        /* \"#utility.yul\":2015:2024   */\n      dup4\n        /* \"#utility.yul\":1996:2025   */\n      tag_106\n      jump\t// in\n    tag_128:\n        /* \"#utility.yul\":1986:2025   */\n      swap5\n        /* \"#utility.yul\":2072:2074   */\n      0x20\n        /* \"#utility.yul\":2057:2075   */\n      swap4\n      swap1\n      swap4\n      add\n        /* \"#utility.yul\":2044:2076   */\n      calldataload\n      swap4\n      pop\n      pop\n      pop\n        /* \"#utility.yul\":1828:2082   */\n      jump\t// out\n        /* \"#utility.yul\":2087:2347   */\n    tag_56:\n        /* \"#utility.yul\":2155:2161   */\n      0x00\n        /* \"#utility.yul\":2163:2169   */\n      dup1\n        /* \"#utility.yul\":2216:2218   */\n      0x40\n        /* \"#utility.yul\":2204:2213   */\n      dup4\n        /* \"#utility.yul\":2195:2202   */\n      dup6\n        /* \"#utility.yul\":2191:2214   */\n      sub\n        /* \"#utility.yul\":2187:2219   */\n      slt\n        /* \"#utility.yul\":2184:2236   */\n      iszero\n      tag_130\n      jumpi\n        /* \"#utility.yul\":2232:2233   */\n      0x00\n        /* \"#utility.yul\":2229:2230   */\n      dup1\n        /* \"#utility.yul\":2222:2234   */\n      revert\n        /* \"#utility.yul\":2184:2236   */\n    tag_130:\n        /* \"#utility.yul\":2255:2284   */\n      tag_131\n        /* \"#utility.yul\":2274:2283   */\n      dup4\n        /* \"#utility.yul\":2255:2284   */\n      tag_106\n      jump\t// in\n    tag_131:\n        /* \"#utility.yul\":2245:2284   */\n      swap2\n      pop\n        /* \"#utility.yul\":2303:2341   */\n      tag_132\n        /* \"#utility.yul\":2337:2339   */\n      0x20\n        /* \"#utility.yul\":2326:2335   */\n      dup5\n        /* \"#utility.yul\":2322:2340   */\n      add\n        /* \"#utility.yul\":2303:2341   */\n      tag_106\n      jump\t// in\n    tag_132:\n        /* \"#utility.yul\":2293:2341   */\n      swap1\n      pop\n        /* \"#utility.yul\":2087:2347   */\n      swap3\n      pop\n      swap3\n      swap1\n      pop\n      jump\t// out\n        /* \"#utility.yul\":2352:2732   */\n    tag_64:\n        /* \"#utility.yul\":2431:2432   */\n      0x01\n        /* \"#utility.yul\":2427:2439   */\n      dup2\n      dup2\n      shr\n      swap1\n        /* \"#utility.yul\":2474:2486   */\n      dup3\n      and\n      dup1\n        /* \"#utility.yul\":2495:2556   */\n      tag_134\n      jumpi\n        /* \"#utility.yul\":2549:2553   */\n      0x7f\n        /* \"#utility.yul\":2541:2547   */\n      dup3\n        /* \"#utility.yul\":2537:2554   */\n      and\n        /* \"#utility.yul\":2527:2554   */\n      swap2\n      pop\n        /* \"#utility.yul\":2495:2556   */\n    tag_134:\n        /* \"#utility.yul\":2602:2604   */\n      0x20\n        /* \"#utility.yul\":2594:2600   */\n      dup3\n        /* \"#utility.yul\":2591:2605   */\n      lt\n        /* \"#utility.yul\":2571:2589   */\n      dup2\n        /* \"#utility.yul\":2568:2606   */\n      sub\n        /* \"#utility.yul\":2565:2726   */\n      tag_135\n      jumpi\n        /* \"#utility.yul\":2648:2658   */\n      0x4e487b71\n        /* \"#utility.yul\":2643:2646   */\n      0xe0\n        /* \"#utility.yul\":2639:2659   */\n      shl\n        /* \"#utility.yul\":2636:2637   */\n      0x00\n        /* \"#utility.yul\":2629:2660   */\n      mstore\n        /* \"#utility.yul\":2683:2687   */\n      0x22\n        /* \"#utility.yul\":2680:2681   */\n      0x04\n        /* \"#utility.yul\":2673:2688   */\n      mstore\n        /* \"#utility.yul\":2711:2715   */\n      0x24\n        /* \"#utility.yul\":2708:2709   */\n      0x00\n        /* \"#utility.yul\":2701:2716   */\n      revert\n        /* \"#utility.yul\":2565:2726   */\n    tag_135:\n      pop\n        /* \"#utility.yul\":2352:2732   */\n      swap2\n      swap1\n      pop\n      jump\t// out\n        /* \"#utility.yul\":2737:2864   */\n    tag_107:\n        /* \"#utility.yul\":2798:2808   */\n      0x4e487b71\n        /* \"#utility.yul\":2793:2796   */\n      0xe0\n        /* \"#utility.yul\":2789:2809   */\n      shl\n        /* \"#utility.yul\":2786:2787   */\n      0x00\n        /* \"#utility.yul\":2779:2810   */\n      mstore\n        /* \"#utility.yul\":2829:2833   */\n      0x11\n        /* \"#utility.yul\":2826:2827   */\n      0x04\n        /* \"#utility.yul\":2819:2834   */\n      mstore\n        /* \"#utility.yul\":2853:2857   */\n      0x24\n        /* \"#utility.yul\":2850:2851   */\n      0x00\n        /* \"#utility.yul\":2843:2858   */\n      revert\n        /* \"#utility.yul\":2869:2994   */\n    tag_74:\n        /* \"#utility.yul\":2934:2943   */\n      dup1\n      dup3\n      add\n        /* \"#utility.yul\":2955:2965   */\n      dup1\n      dup3\n      gt\n        /* \"#utility.yul\":2952:2988   */\n      iszero\n      tag_98\n      jumpi\n        /* \"#utility.yul\":2968:2986   */\n      tag_98\n      tag_107\n      jump\t// in\n        /* \"#utility.yul\":2999:3127   */\n    tag_76:\n        /* \"#utility.yul\":3066:3075   */\n      dup2\n      dup2\n      sub\n        /* \"#utility.yul\":3087:3098   */\n      dup2\n      dup2\n      gt\n        /* \"#utility.yul\":3084:3121   */\n      iszero\n      tag_98\n      jumpi\n        /* \"#utility.yul\":3101:3119   */\n      tag_98\n      tag_107\n      jump\t// in\n\n    auxdata: 0xa264697066735822122001c2812a2f2de2714e50cca46f0bbc5e166977b671cf60e8fd762b9111c9068764736f6c63430008140033\n}\n",
				"bytecode": {
					"linkReferences": {},
					"object": "608060405260126002553480156200001657600080fd5b5060405162000afe38038062000afe833981016040819052620000399162000150565b600062000047848262000252565b50600162000056838262000252565b50600381905533600081815260056020526040902091909155600480546001600160a01b0319169091179055506200031e9050565b634e487b7160e01b600052604160045260246000fd5b600082601f830112620000b357600080fd5b81516001600160401b0380821115620000d057620000d06200008b565b604051601f8301601f19908116603f01168101908282118183101715620000fb57620000fb6200008b565b816040528381526020925086838588010111156200011857600080fd5b600091505b838210156200013c57858201830151818301840152908201906200011d565b600093810190920192909252949350505050565b6000806000606084860312156200016657600080fd5b83516001600160401b03808211156200017e57600080fd5b6200018c87838801620000a1565b94506020860151915080821115620001a357600080fd5b50620001b286828701620000a1565b925050604084015190509250925092565b600181811c90821680620001d857607f821691505b602082108103620001f957634e487b7160e01b600052602260045260246000fd5b50919050565b601f8211156200024d57600081815260208120601f850160051c81016020861015620002285750805b601f850160051c820191505b81811015620002495782815560010162000234565b5050505b505050565b81516001600160401b038111156200026e576200026e6200008b565b62000286816200027f8454620001c3565b84620001ff565b602080601f831160018114620002be5760008415620002a55750858301515b600019600386901b1c1916600185901b17855562000249565b600085815260208120601f198616915b82811015620002ef57888601518255948401946001909101908401620002ce565b50858210156200030e5787850151600019600388901b60f8161c191681555b5050505050600190811b01905550565b6107d0806200032e6000396000f3fe608060405234801561001057600080fd5b50600436106100a95760003560e01c806370a082311161007157806370a082311461011d57806395d89b4114610146578063a0712d681461014e578063a9059cbb14610161578063dd62ed3e14610174578063e1f21c67146101ad57600080fd5b806306fdde03146100ae57806318160ddd146100cc57806323b872dd146100de578063313ce5671461010157806342966c681461010a575b600080fd5b6100b66101c0565b6040516100c391906105eb565b60405180910390f35b6003545b6040519081526020016100c3565b6100f16100ec366004610650565b61024e565b60405190151581526020016100c3565b6100d060025481565b6100d061011836600461068c565b610384565b6100d061012b3660046106a5565b6001600160a01b031660009081526005602052604090205490565b6100b661042c565b6100d061015c36600461068c565b610439565b6100f161016f3660046106c7565b6104cc565b6100d06101823660046106f1565b6001600160a01b03918216600090815260066020908152604080832093909416825291909152205490565b6100f16101bb366004610650565b610583565b600080546101cd90610724565b80601f01602080910402602001604051908101604052809291908181526020018280546101f990610724565b80156102465780601f1061021b57610100808354040283529160200191610246565b820191906000526020600020905b81548152906001019060200180831161022957829003601f168201915b505050505081565b6001600160a01b03831660008181526006602090815260408083203384528252808320549383526005909152812054909190831180159061028f5750828110155b61029857600080fd5b6001600160a01b038416600090815260056020526040812080548592906102c0908490610774565b90915550506001600160a01b038516600090815260056020526040812080548592906102ed908490610787565b90915550506001600160a01b038516600090815260066020908152604080832033845290915281208054859290610325908490610787565b92505081905550836001600160a01b0316856001600160a01b03167fddf252ad1be2c89b69c2b068fc378daa952ba7f163c4a11628f55a4df523b3ef8560405161037191815260200190565b60405180910390a3506001949350505050565b6004546000906001600160a01b031633146103e65760405162461bcd60e51b815260206004820181905260248201527f6f6e6c792061646d696e2063616e2072756e20746869732066756e6374696f6e60448201526064015b60405180910390fd5b81600360008282546103f89190610787565b9091555050336000908152600560205260408120805484929061041c908490610787565b909155505060035490505b919050565b600180546101cd90610724565b6004546000906001600160a01b031633146104965760405162461bcd60e51b815260206004820181905260248201527f6f6e6c792061646d696e2063616e2072756e20746869732066756e6374696f6e60448201526064016103dd565b81600360008282546104a89190610774565b9091555050336000908152600560205260408120805484929061041c908490610774565b336000908152600560205260408120548211156104e857600080fd5b3360009081526005602052604081208054849290610507908490610787565b90915550506001600160a01b03831660009081526005602052604081208054849290610534908490610774565b90915550506040518281526001600160a01b0384169033907fddf252ad1be2c89b69c2b068fc378daa952ba7f163c4a11628f55a4df523b3ef9060200160405180910390a35060015b92915050565b6001600160a01b03838116600081815260066020908152604080832094871680845294825280832086905551858152919392917f8c5be1e5ebec7d5bd14f71427d1e84f3dd0314c0f7b2291e5b200ac8c7c3b925910160405180910390a35060019392505050565b600060208083528351808285015260005b81811015610618578581018301518582016040015282016105fc565b506000604082860101526040601f19601f8301168501019250505092915050565b80356001600160a01b038116811461042757600080fd5b60008060006060848603121561066557600080fd5b61066e84610639565b925061067c60208501610639565b9150604084013590509250925092565b60006020828403121561069e57600080fd5b5035919050565b6000602082840312156106b757600080fd5b6106c082610639565b9392505050565b600080604083850312156106da57600080fd5b6106e383610639565b946020939093013593505050565b6000806040838503121561070457600080fd5b61070d83610639565b915061071b60208401610639565b90509250929050565b600181811c9082168061073857607f821691505b60208210810361075857634e487b7160e01b600052602260045260246000fd5b50919050565b634e487b7160e01b600052601160045260246000fd5b8082018082111561057d5761057d61075e565b8181038181111561057d5761057d61075e56fea264697066735822122001c2812a2f2de2714e50cca46f0bbc5e166977b671cf60e8fd762b9111c9068764736f6c63430008140033",
					"opcodes": "PUSH1 0x80 PUSH1 0x40 MSTORE PUSH1 0x12 PUSH1 0x2 SSTORE CALLVALUE DUP1 ISZERO PUSH3 0x16 JUMPI PUSH1 0x0 DUP1 REVERT JUMPDEST POP PUSH1 0x40 MLOAD PUSH3 0xAFE CODESIZE SUB DUP1 PUSH3 0xAFE DUP4 CODECOPY DUP2 ADD PUSH1 0x40 DUP2 SWAP1 MSTORE PUSH3 0x39 SWAP2 PUSH3 0x150 JUMP JUMPDEST PUSH1 0x0 PUSH3 0x47 DUP5 DUP3 PUSH3 0x252 JUMP JUMPDEST POP PUSH1 0x1 PUSH3 0x56 DUP4 DUP3 PUSH3 0x252 JUMP JUMPDEST POP PUSH1 0x3 DUP2 SWAP1 SSTORE CALLER PUSH1 0x0 DUP2 DUP2 MSTORE PUSH1 0x5 PUSH1 0x20 MSTORE PUSH1 0x40 SWAP1 KECCAK256 SWAP2 SWAP1 SWAP2 SSTORE PUSH1 0x4 DUP1 SLOAD PUSH1 0x1 PUSH1 0x1 PUSH1 0xA0 SHL SUB NOT AND SWAP1 SWAP2 OR SWAP1 SSTORE POP PUSH3 0x31E SWAP1 POP JUMP JUMPDEST PUSH4 0x4E487B71 PUSH1 0xE0 SHL PUSH1 0x0 MSTORE PUSH1 0x41 PUSH1 0x4 MSTORE PUSH1 0x24 PUSH1 0x0 REVERT JUMPDEST PUSH1 0x0 DUP3 PUSH1 0x1F DUP4 ADD SLT PUSH3 0xB3 JUMPI PUSH1 0x0 DUP1 REVERT JUMPDEST DUP2 MLOAD PUSH1 0x1 PUSH1 0x1 PUSH1 0x40 SHL SUB DUP1 DUP3 GT ISZERO PUSH3 0xD0 JUMPI PUSH3 0xD0 PUSH3 0x8B JUMP JUMPDEST PUSH1 0x40 MLOAD PUSH1 0x1F DUP4 ADD PUSH1 0x1F NOT SWAP1 DUP2 AND PUSH1 0x3F ADD AND DUP2 ADD SWAP1 DUP3 DUP3 GT DUP2 DUP4 LT OR ISZERO PUSH3 0xFB JUMPI PUSH3 0xFB PUSH3 0x8B JUMP JUMPDEST DUP2 PUSH1 0x40 MSTORE DUP4 DUP2 MSTORE PUSH1 0x20 SWAP3 POP DUP7 DUP4 DUP6 DUP9 ADD ADD GT ISZERO PUSH3 0x118 JUMPI PUSH1 0x0 DUP1 REVERT JUMPDEST PUSH1 0x0 SWAP2 POP JUMPDEST DUP4 DUP3 LT ISZERO PUSH3 0x13C JUMPI DUP6 DUP3 ADD DUP4 ADD MLOAD DUP2 DUP4 ADD DUP5 ADD MSTORE SWAP1 DUP3 ADD SWAP1 PUSH3 0x11D JUMP JUMPDEST PUSH1 0x0 SWAP4 DUP2 ADD SWAP1 SWAP3 ADD SWAP3 SWAP1 SWAP3 MSTORE SWAP5 SWAP4 POP POP POP POP JUMP JUMPDEST PUSH1 0x0 DUP1 PUSH1 0x0 PUSH1 0x60 DUP5 DUP7 SUB SLT ISZERO PUSH3 0x166 JUMPI PUSH1 0x0 DUP1 REVERT JUMPDEST DUP4 MLOAD PUSH1 0x1 PUSH1 0x1 PUSH1 0x40 SHL SUB DUP1 DUP3 GT ISZERO PUSH3 0x17E JUMPI PUSH1 0x0 DUP1 REVERT JUMPDEST PUSH3 0x18C DUP8 DUP4 DUP9 ADD PUSH3 0xA1 JUMP JUMPDEST SWAP5 POP PUSH1 0x20 DUP7 ADD MLOAD SWAP2 POP DUP1 DUP3 GT ISZERO PUSH3 0x1A3 JUMPI PUSH1 0x0 DUP1 REVERT JUMPDEST POP PUSH3 0x1B2 DUP7 DUP3 DUP8 ADD PUSH3 0xA1 JUMP JUMPDEST SWAP3 POP POP PUSH1 0x40 DUP5 ADD MLOAD SWAP1 POP SWAP3 POP SWAP3 POP SWAP3 JUMP JUMPDEST PUSH1 0x1 DUP2 DUP2 SHR SWAP1 DUP3 AND DUP1 PUSH3 0x1D8 JUMPI PUSH1 0x7F DUP3 AND SWAP2 POP JUMPDEST PUSH1 0x20 DUP3 LT DUP2 SUB PUSH3 0x1F9 JUMPI PUSH4 0x4E487B71 PUSH1 0xE0 SHL PUSH1 0x0 MSTORE PUSH1 0x22 PUSH1 0x4 MSTORE PUSH1 0x24 PUSH1 0x0 REVERT JUMPDEST POP SWAP2 SWAP1 POP JUMP JUMPDEST PUSH1 0x1F DUP3 GT ISZERO PUSH3 0x24D JUMPI PUSH1 0x0 DUP2 DUP2 MSTORE PUSH1 0x20 DUP2 KECCAK256 PUSH1 0x1F DUP6 ADD PUSH1 0x5 SHR DUP2 ADD PUSH1 0x20 DUP7 LT ISZERO PUSH3 0x228 JUMPI POP DUP1 JUMPDEST PUSH1 0x1F DUP6 ADD PUSH1 0x5 SHR DUP3 ADD SWAP2 POP JUMPDEST DUP2 DUP2 LT ISZERO PUSH3 0x249 JUMPI DUP3 DUP2 SSTORE PUSH1 0x1 ADD PUSH3 0x234 JUMP JUMPDEST POP POP POP JUMPDEST POP POP POP JUMP JUMPDEST DUP2 MLOAD PUSH1 0x1 PUSH1 0x1 PUSH1 0x40 SHL SUB DUP2 GT ISZERO PUSH3 0x26E JUMPI PUSH3 0x26E PUSH3 0x8B JUMP JUMPDEST PUSH3 0x286 DUP2 PUSH3 0x27F DUP5 SLOAD PUSH3 0x1C3 JUMP JUMPDEST DUP5 PUSH3 0x1FF JUMP JUMPDEST PUSH1 0x20 DUP1 PUSH1 0x1F DUP4 GT PUSH1 0x1 DUP2 EQ PUSH3 0x2BE JUMPI PUSH1 0x0 DUP5 ISZERO PUSH3 0x2A5 JUMPI POP DUP6 DUP4 ADD MLOAD JUMPDEST PUSH1 0x0 NOT PUSH1 0x3 DUP7 SWAP1 SHL SHR NOT AND PUSH1 0x1 DUP6 SWAP1 SHL OR DUP6 SSTORE PUSH3 0x249 JUMP JUMPDEST PUSH1 0x0 DUP6 DUP2 MSTORE PUSH1 0x20 DUP2 KECCAK256 PUSH1 0x1F NOT DUP7 AND SWAP2 JUMPDEST DUP3 DUP2 LT ISZERO PUSH3 0x2EF JUMPI DUP9 DUP7 ADD MLOAD DUP3 SSTORE SWAP5 DUP5 ADD SWAP5 PUSH1 0x1 SWAP1 SWAP2 ADD SWAP1 DUP5 ADD PUSH3 0x2CE JUMP JUMPDEST POP DUP6 DUP3 LT ISZERO PUSH3 0x30E JUMPI DUP8 DUP6 ADD MLOAD PUSH1 0x0 NOT PUSH1 0x3 DUP9 SWAP1 SHL PUSH1 0xF8 AND SHR NOT AND DUP2 SSTORE JUMPDEST POP POP POP POP POP PUSH1 0x1 SWAP1 DUP2 SHL ADD SWAP1 SSTORE POP JUMP JUMPDEST PUSH2 0x7D0 DUP1 PUSH3 0x32E PUSH1 0x0 CODECOPY PUSH1 0x0 RETURN INVALID PUSH1 0x80 PUSH1 0x40 MSTORE CALLVALUE DUP1 ISZERO PUSH2 0x10 JUMPI PUSH1 0x0 DUP1 REVERT JUMPDEST POP PUSH1 0x4 CALLDATASIZE LT PUSH2 0xA9 JUMPI PUSH1 0x0 CALLDATALOAD PUSH1 0xE0 SHR DUP1 PUSH4 0x70A08231 GT PUSH2 0x71 JUMPI DUP1 PUSH4 0x70A08231 EQ PUSH2 0x11D JUMPI DUP1 PUSH4 0x95D89B41 EQ PUSH2 0x146 JUMPI DUP1 PUSH4 0xA0712D68 EQ PUSH2 0x14E JUMPI DUP1 PUSH4 0xA9059CBB EQ PUSH2 0x161 JUMPI DUP1 PUSH4 0xDD62ED3E EQ PUSH2 0x174 JUMPI DUP1 PUSH4 0xE1F21C67 EQ PUSH2 0x1AD JUMPI PUSH1 0x0 DUP1 REVERT JUMPDEST DUP1 PUSH4 0x6FDDE03 EQ PUSH2 0xAE JUMPI DUP1 PUSH4 0x18160DDD EQ PUSH2 0xCC JUMPI DUP1 PUSH4 0x23B872DD EQ PUSH2 0xDE JUMPI DUP1 PUSH4 0x313CE567 EQ PUSH2 0x101 JUMPI DUP1 PUSH4 0x42966C68 EQ PUSH2 0x10A JUMPI JUMPDEST PUSH1 0x0 DUP1 REVERT JUMPDEST PUSH2 0xB6 PUSH2 0x1C0 JUMP JUMPDEST PUSH1 0x40 MLOAD PUSH2 0xC3 SWAP2 SWAP1 PUSH2 0x5EB JUMP JUMPDEST PUSH1 0x40 MLOAD DUP1 SWAP2 SUB SWAP1 RETURN JUMPDEST PUSH1 0x3 SLOAD JUMPDEST PUSH1 0x40 MLOAD SWAP1 DUP2 MSTORE PUSH1 0x20 ADD PUSH2 0xC3 JUMP JUMPDEST PUSH2 0xF1 PUSH2 0xEC CALLDATASIZE PUSH1 0x4 PUSH2 0x650 JUMP JUMPDEST PUSH2 0x24E JUMP JUMPDEST PUSH1 0x40 MLOAD SWAP1 ISZERO ISZERO DUP2 MSTORE PUSH1 0x20 ADD PUSH2 0xC3 JUMP JUMPDEST PUSH2 0xD0 PUSH1 0x2 SLOAD DUP2 JUMP JUMPDEST PUSH2 0xD0 PUSH2 0x118 CALLDATASIZE PUSH1 0x4 PUSH2 0x68C JUMP JUMPDEST PUSH2 0x384 JUMP JUMPDEST PUSH2 0xD0 PUSH2 0x12B CALLDATASIZE PUSH1 0x4 PUSH2 0x6A5 JUMP JUMPDEST PUSH1 0x1 PUSH1 0x1 PUSH1 0xA0 SHL SUB AND PUSH1 0x0 SWAP1 DUP2 MSTORE PUSH1 0x5 PUSH1 0x20 MSTORE PUSH1 0x40 SWAP1 KECCAK256 SLOAD SWAP1 JUMP JUMPDEST PUSH2 0xB6 PUSH2 0x42C JUMP JUMPDEST PUSH2 0xD0 PUSH2 0x15C CALLDATASIZE PUSH1 0x4 PUSH2 0x68C JUMP JUMPDEST PUSH2 0x439 JUMP JUMPDEST PUSH2 0xF1 PUSH2 0x16F CALLDATASIZE PUSH1 0x4 PUSH2 0x6C7 JUMP JUMPDEST PUSH2 0x4CC JUMP JUMPDEST PUSH2 0xD0 PUSH2 0x182 CALLDATASIZE PUSH1 0x4 PUSH2 0x6F1 JUMP JUMPDEST PUSH1 0x1 PUSH1 0x1 PUSH1 0xA0 SHL SUB SWAP2 DUP3 AND PUSH1 0x0 SWAP1 DUP2 MSTORE PUSH1 0x6 PUSH1 0x20 SWAP1 DUP2 MSTORE PUSH1 0x40 DUP1 DUP4 KECCAK256 SWAP4 SWAP1 SWAP5 AND DUP3 MSTORE SWAP2 SWAP1 SWAP2 MSTORE KECCAK256 SLOAD SWAP1 JUMP JUMPDEST PUSH2 0xF1 PUSH2 0x1BB CALLDATASIZE PUSH1 0x4 PUSH2 0x650 JUMP JUMPDEST PUSH2 0x583 JUMP JUMPDEST PUSH1 0x0 DUP1 SLOAD PUSH2 0x1CD SWAP1 PUSH2 0x724 JUMP JUMPDEST DUP1 PUSH1 0x1F ADD PUSH1 0x20 DUP1 SWAP2 DIV MUL PUSH1 0x20 ADD PUSH1 0x40 MLOAD SWAP1 DUP2 ADD PUSH1 0x40 MSTORE DUP1 SWAP3 SWAP2 SWAP1 DUP2 DUP2 MSTORE PUSH1 0x20 ADD DUP3 DUP1 SLOAD PUSH2 0x1F9 SWAP1 PUSH2 0x724 JUMP JUMPDEST DUP1 ISZERO PUSH2 0x246 JUMPI DUP1 PUSH1 0x1F LT PUSH2 0x21B JUMPI PUSH2 0x100 DUP1 DUP4 SLOAD DIV MUL DUP4 MSTORE SWAP2 PUSH1 0x20 ADD SWAP2 PUSH2 0x246 JUMP JUMPDEST DUP3 ADD SWAP2 SWAP1 PUSH1 0x0 MSTORE PUSH1 0x20 PUSH1 0x0 KECCAK256 SWAP1 JUMPDEST DUP2 SLOAD DUP2 MSTORE SWAP1 PUSH1 0x1 ADD SWAP1 PUSH1 0x20 ADD DUP1 DUP4 GT PUSH2 0x229 JUMPI DUP3 SWAP1 SUB PUSH1 0x1F AND DUP3 ADD SWAP2 JUMPDEST POP POP POP POP POP DUP2 JUMP JUMPDEST PUSH1 0x1 PUSH1 0x1 PUSH1 0xA0 SHL SUB DUP4 AND PUSH1 0x0 DUP2 DUP2 MSTORE PUSH1 0x6 PUSH1 0x20 SWAP1 DUP2 MSTORE PUSH1 0x40 DUP1 DUP4 KECCAK256 CALLER DUP5 MSTORE DUP3 MSTORE DUP1 DUP4 KECCAK256 SLOAD SWAP4 DUP4 MSTORE PUSH1 0x5 SWAP1 SWAP2 MSTORE DUP2 KECCAK256 SLOAD SWAP1 SWAP2 SWAP1 DUP4 GT DUP1 ISZERO SWAP1 PUSH2 0x28F JUMPI POP DUP3 DUP2 LT ISZERO JUMPDEST PUSH2 0x298 JUMPI PUSH1 0x0 DUP1 REVERT JUMPDEST PUSH1 0x1 PUSH1 0x1 PUSH1 0xA0 SHL SUB DUP5 AND PUSH1 0x0 SWAP1 DUP2 MSTORE PUSH1 0x5 PUSH1 0x20 MSTORE PUSH1 0x40 DUP2 KECCAK256 DUP1 SLOAD DUP6 SWAP3 SWAP1 PUSH2 0x2C0 SWAP1 DUP5 SWAP1 PUSH2 0x774 JUMP JUMPDEST SWAP1 SWAP2 SSTORE POP POP PUSH1 0x1 PUSH1 0x1 PUSH1 0xA0 SHL SUB DUP6 AND PUSH1 0x0 SWAP1 DUP2 MSTORE PUSH1 0x5 PUSH1 0x20 MSTORE PUSH1 0x40 DUP2 KECCAK256 DUP1 SLOAD DUP6 SWAP3 SWAP1 PUSH2 0x2ED SWAP1 DUP5 SWAP1 PUSH2 0x787 JUMP JUMPDEST SWAP1 SWAP2 SSTORE POP POP PUSH1 0x1 PUSH1 0x1 PUSH1 0xA0 SHL SUB DUP6 AND PUSH1 0x0 SWAP1 DUP2 MSTORE PUSH1 0x6 PUSH1 0x20 SWAP1 DUP2 MSTORE PUSH1 0x40 DUP1 DUP4 KECCAK256 CALLER DUP5 MSTORE SWAP1 SWAP2 MSTORE DUP2 KECCAK256 DUP1 SLOAD DUP6 SWAP3 SWAP1 PUSH2 0x325 SWAP1 DUP5 SWAP1 PUSH2 0x787 JUMP JUMPDEST SWAP3 POP POP DUP2 SWAP1 SSTORE POP DUP4 PUSH1 0x1 PUSH1 0x1 PUSH1 0xA0 SHL SUB AND DUP6 PUSH1 0x1 PUSH1 0x1 PUSH1 0xA0 SHL SUB AND PUSH32 0xDDF252AD1BE2C89B69C2B068FC378DAA952BA7F163C4A11628F55A4DF523B3EF DUP6 PUSH1 0x40 MLOAD PUSH2 0x371 SWAP2 DUP2 MSTORE PUSH1 0x20 ADD SWAP1 JUMP JUMPDEST PUSH1 0x40 MLOAD DUP1 SWAP2 SUB SWAP1 LOG3 POP PUSH1 0x1 SWAP5 SWAP4 POP POP POP POP JUMP JUMPDEST PUSH1 0x4 SLOAD PUSH1 0x0 SWAP1 PUSH1 0x1 PUSH1 0x1 PUSH1 0xA0 SHL SUB AND CALLER EQ PUSH2 0x3E6 JUMPI PUSH1 0x40 MLOAD PUSH3 0x461BCD PUSH1 0xE5 SHL DUP2 MSTORE PUSH1 0x20 PUSH1 0x4 DUP3 ADD DUP2 SWAP1 MSTORE PUSH1 0x24 DUP3 ADD MSTORE PUSH32 0x6F6E6C792061646D696E2063616E2072756E20746869732066756E6374696F6E PUSH1 0x44 DUP3 ADD MSTORE PUSH1 0x64 ADD JUMPDEST PUSH1 0x40 MLOAD DUP1 SWAP2 SUB SWAP1 REVERT JUMPDEST DUP2 PUSH1 0x3 PUSH1 0x0 DUP3 DUP3 SLOAD PUSH2 0x3F8 SWAP2 SWAP1 PUSH2 0x787 JUMP JUMPDEST SWAP1 SWAP2 SSTORE POP POP CALLER PUSH1 0x0 SWAP1 DUP2 MSTORE PUSH1 0x5 PUSH1 0x20 MSTORE PUSH1 0x40 DUP2 KECCAK256 DUP1 SLOAD DUP5 SWAP3 SWAP1 PUSH2 0x41C SWAP1 DUP5 SWAP1 PUSH2 0x787 JUMP JUMPDEST SWAP1 SWAP2 SSTORE POP POP PUSH1 0x3 SLOAD SWAP1 POP JUMPDEST SWAP2 SWAP1 POP JUMP JUMPDEST PUSH1 0x1 DUP1 SLOAD PUSH2 0x1CD SWAP1 PUSH2 0x724 JUMP JUMPDEST PUSH1 0x4 SLOAD PUSH1 0x0 SWAP1 PUSH1 0x1 PUSH1 0x1 PUSH1 0xA0 SHL SUB AND CALLER EQ PUSH2 0x496 JUMPI PUSH1 0x40 MLOAD PUSH3 0x461BCD PUSH1 0xE5 SHL DUP2 MSTORE PUSH1 0x20 PUSH1 0x4 DUP3 ADD DUP2 SWAP1 MSTORE PUSH1 0x24 DUP3 ADD MSTORE PUSH32 0x6F6E6C792061646D696E2063616E2072756E20746869732066756E6374696F6E PUSH1 0x44 DUP3 ADD MSTORE PUSH1 0x64 ADD PUSH2 0x3DD JUMP JUMPDEST DUP2 PUSH1 0x3 PUSH1 0x0 DUP3 DUP3 SLOAD PUSH2 0x4A8 SWAP2 SWAP1 PUSH2 0x774 JUMP JUMPDEST SWAP1 SWAP2 SSTORE POP POP CALLER PUSH1 0x0 SWAP1 DUP2 MSTORE PUSH1 0x5 PUSH1 0x20 MSTORE PUSH1 0x40 DUP2 KECCAK256 DUP1 SLOAD DUP5 SWAP3 SWAP1 PUSH2 0x41C SWAP1 DUP5 SWAP1 PUSH2 0x774 JUMP JUMPDEST CALLER PUSH1 0x0 SWAP1 DUP2 MSTORE PUSH1 0x5 PUSH1 0x20 MSTORE PUSH1 0x40 DUP2 KECCAK256 SLOAD DUP3 GT ISZERO PUSH2 0x4E8 JUMPI PUSH1 0x0 DUP1 REVERT JUMPDEST CALLER PUSH1 0x0 SWAP1 DUP2 MSTORE PUSH1 0x5 PUSH1 0x20 MSTORE PUSH1 0x40 DUP2 KECCAK256 DUP1 SLOAD DUP5 SWAP3 SWAP1 PUSH2 0x507 SWAP1 DUP5 SWAP1 PUSH2 0x787 JUMP JUMPDEST SWAP1 SWAP2 SSTORE POP POP PUSH1 0x1 PUSH1 0x1 PUSH1 0xA0 SHL SUB DUP4 AND PUSH1 0x0 SWAP1 DUP2 MSTORE PUSH1 0x5 PUSH1 0x20 MSTORE PUSH1 0x40 DUP2 KECCAK256 DUP1 SLOAD DUP5 SWAP3 SWAP1 PUSH2 0x534 SWAP1 DUP5 SWAP1 PUSH2 0x774 JUMP JUMPDEST SWAP1 SWAP2 SSTORE POP POP PUSH1 0x40 MLOAD DUP3 DUP2 MSTORE PUSH1 0x1 PUSH1 0x1 PUSH1 0xA0 SHL SUB DUP5 AND SWAP1 CALLER SWAP1 PUSH32 0xDDF252AD1BE2C89B69C2B068FC378DAA952BA7F163C4A11628F55A4DF523B3EF SWAP1 PUSH1 0x20 ADD PUSH1 0x40 MLOAD DUP1 SWAP2 SUB SWAP1 LOG3 POP PUSH1 0x1 JUMPDEST SWAP3 SWAP2 POP POP JUMP JUMPDEST PUSH1 0x1 PUSH1 0x1 PUSH1 0xA0 SHL SUB DUP4 DUP2 AND PUSH1 0x0 DUP2 DUP2 MSTORE PUSH1 0x6 PUSH1 0x20 SWAP1 DUP2 MSTORE PUSH1 0x40 DUP1 DUP4 KECCAK256 SWAP5 DUP8 AND DUP1 DUP5 MSTORE SWAP5 DUP3 MSTORE DUP1 DUP4 KECCAK256 DUP7 SWAP1 SSTORE MLOAD DUP6 DUP2 MSTORE SWAP2 SWAP4 SWAP3 SWAP2 PUSH32 0x8C5BE1E5EBEC7D5BD14F71427D1E84F3DD0314C0F7B2291E5B200AC8C7C3B925 SWAP2 ADD PUSH1 0x40 MLOAD DUP1 SWAP2 SUB SWAP1 LOG3 POP PUSH1 0x1 SWAP4 SWAP3 POP POP POP JUMP JUMPDEST PUSH1 0x0 PUSH1 0x20 DUP1 DUP4 MSTORE DUP4 MLOAD DUP1 DUP3 DUP6 ADD MSTORE PUSH1 0x0 JUMPDEST DUP2 DUP2 LT ISZERO PUSH2 0x618 JUMPI DUP6 DUP2 ADD DUP4 ADD MLOAD DUP6 DUP3 ADD PUSH1 0x40 ADD MSTORE DUP3 ADD PUSH2 0x5FC JUMP JUMPDEST POP PUSH1 0x0 PUSH1 0x40 DUP3 DUP7 ADD ADD MSTORE PUSH1 0x40 PUSH1 0x1F NOT PUSH1 0x1F DUP4 ADD AND DUP6 ADD ADD SWAP3 POP POP POP SWAP3 SWAP2 POP POP JUMP JUMPDEST DUP1 CALLDATALOAD PUSH1 0x1 PUSH1 0x1 PUSH1 0xA0 SHL SUB DUP2 AND DUP2 EQ PUSH2 0x427 JUMPI PUSH1 0x0 DUP1 REVERT JUMPDEST PUSH1 0x0 DUP1 PUSH1 0x0 PUSH1 0x60 DUP5 DUP7 SUB SLT ISZERO PUSH2 0x665 JUMPI PUSH1 0x0 DUP1 REVERT JUMPDEST PUSH2 0x66E DUP5 PUSH2 0x639 JUMP JUMPDEST SWAP3 POP PUSH2 0x67C PUSH1 0x20 DUP6 ADD PUSH2 0x639 JUMP JUMPDEST SWAP2 POP PUSH1 0x40 DUP5 ADD CALLDATALOAD SWAP1 POP SWAP3 POP SWAP3 POP SWAP3 JUMP JUMPDEST PUSH1 0x0 PUSH1 0x20 DUP3 DUP5 SUB SLT ISZERO PUSH2 0x69E JUMPI PUSH1 0x0 DUP1 REVERT JUMPDEST POP CALLDATALOAD SWAP2 SWAP1 POP JUMP JUMPDEST PUSH1 0x0 PUSH1 0x20 DUP3 DUP5 SUB SLT ISZERO PUSH2 0x6B7 JUMPI PUSH1 0x0 DUP1 REVERT JUMPDEST PUSH2 0x6C0 DUP3 PUSH2 0x639 JUMP JUMPDEST SWAP4 SWAP3 POP POP POP JUMP JUMPDEST PUSH1 0x0 DUP1 PUSH1 0x40 DUP4 DUP6 SUB SLT ISZERO PUSH2 0x6DA JUMPI PUSH1 0x0 DUP1 REVERT JUMPDEST PUSH2 0x6E3 DUP4 PUSH2 0x639 JUMP JUMPDEST SWAP5 PUSH1 0x20 SWAP4 SWAP1 SWAP4 ADD CALLDATALOAD SWAP4 POP POP POP JUMP JUMPDEST PUSH1 0x0 DUP1 PUSH1 0x40 DUP4 DUP6 SUB SLT ISZERO PUSH2 0x704 JUMPI PUSH1 0x0 DUP1 REVERT JUMPDEST PUSH2 0x70D DUP4 PUSH2 0x639 JUMP JUMPDEST SWAP2 POP PUSH2 0x71B PUSH1 0x20 DUP5 ADD PUSH2 0x639 JUMP JUMPDEST SWAP1 POP SWAP3 POP SWAP3 SWAP1 POP JUMP JUMPDEST PUSH1 0x1 DUP2 DUP2 SHR SWAP1 DUP3 AND DUP1 PUSH2 0x738 JUMPI PUSH1 0x7F DUP3 AND SWAP2 POP JUMPDEST PUSH1 0x20 DUP3 LT DUP2 SUB PUSH2 0x758 JUMPI PUSH4 0x4E487B71 PUSH1 0xE0 SHL PUSH1 0x0 MSTORE PUSH1 0x22 PUSH1 0x4 MSTORE PUSH1 0x24 PUSH1 0x0 REVERT JUMPDEST POP SWAP2 SWAP1 POP JUMP JUMPDEST PUSH4 0x4E487B71 PUSH1 0xE0 SHL PUSH1 0x0 MSTORE PUSH1 0x11 PUSH1 0x4 MSTORE PUSH1 0x24 PUSH1 0x0 REVERT JUMPDEST DUP1 DUP3 ADD DUP1 DUP3 GT ISZERO PUSH2 0x57D JUMPI PUSH2 0x57D PUSH2 0x75E JUMP JUMPDEST DUP2 DUP2 SUB DUP2 DUP2 GT ISZERO PUSH2 0x57D JUMPI PUSH2 0x57D PUSH2 0x75E JUMP INVALID LOG2 PUSH5 0x6970667358 0x22 SLT KECCAK256 ADD 0xC2 DUP2 0x2A 0x2F 0x2D 0xE2 PUSH18 0x4E50CCA46F0BBC5E166977B671CF60E8FD76 0x2B SWAP2 GT 0xC9 MOD DUP8 PUSH5 0x736F6C6343 STOP ADDMOD EQ STOP CALLER "
				},
				"gasEstimates": {
					"creation": {
						"codeDepositCost": "400000",
						"executionCost": "infinite",
						"totalCost": "infinite"
					},
					"external": {
						"allowance(address,address)": "infinite",
						"approve(address,address,uint256)": "infinite",
						"balanceOf(address)": "2537",
						"burn(uint256)": "infinite",
						"decimals()": "2362",
						"mint(uint256)": "infinite",
						"name()": "infinite",
						"symbol()": "infinite",
						"totalSupply()": "2304",
						"transfer(address,uint256)": "infinite",
						"transferFrom(address,address,uint256)": "infinite"
					}
				},
				"methodIdentifiers": {
					"allowance(address,address)": "dd62ed3e",
					"approve(address,address,uint256)": "e1f21c67",
					"balanceOf(address)": "70a08231",
					"burn(uint256)": "42966c68",
					"decimals()": "313ce567",
					"mint(uint256)": "a0712d68",
					"name()": "06fdde03",
					"symbol()": "95d89b41",
					"totalSupply()": "18160ddd",
					"transfer(address,uint256)": "a9059cbb",
					"transferFrom(address,address,uint256)": "23b872dd"
				}
			},
			"storageLayout": {
				"storage": [
					{
						"astId": 35,
						"contract": "Custom-Dex/Erc-20.sol:erc20",
						"label": "name",
						"offset": 0,
						"slot": "0",
						"type": "t_string_storage"
					},
					{
						"astId": 37,
						"contract": "Custom-Dex/Erc-20.sol:erc20",
						"label": "symbol",
						"offset": 0,
						"slot": "1",
						"type": "t_string_storage"
					},
					{
						"astId": 40,
						"contract": "Custom-Dex/Erc-20.sol:erc20",
						"label": "decimals",
						"offset": 0,
						"slot": "2",
						"type": "t_uint256"
					},
					{
						"astId": 42,
						"contract": "Custom-Dex/Erc-20.sol:erc20",
						"label": "totalSupply_",
						"offset": 0,
						"slot": "3",
						"type": "t_uint256"
					},
					{
						"astId": 44,
						"contract": "Custom-Dex/Erc-20.sol:erc20",
						"label": "admin",
						"offset": 0,
						"slot": "4",
						"type": "t_address"
					},
					{
						"astId": 56,
						"contract": "Custom-Dex/Erc-20.sol:erc20",
						"label": "balances",
						"offset": 0,
						"slot": "5",
						"type": "t_mapping(t_address,t_uint256)"
					},
					{
						"astId": 62,
						"contract": "Custom-Dex/Erc-20.sol:erc20",
						"label": "allowed",
						"offset": 0,
						"slot": "6",
						"type": "t_mapping(t_address,t_mapping(t_address,t_uint256))"
					}
				],
				"types": {
					"t_address": {
						"encoding": "inplace",
						"label": "address",
						"numberOfBytes": "20"
					},
					"t_mapping(t_address,t_mapping(t_address,t_uint256))": {
						"encoding": "mapping",
						"key": "t_address",
						"label": "mapping(address => mapping(address => uint256))",
						"numberOfBytes": "32",
						"value": "t_mapping(t_address,t_uint256)"
					},
					"t_mapping(t_address,t_uint256)": {
						"encoding": "mapping",
						"key": "t_address",
						"label": "mapping(address => uint256)",
						"numberOfBytes": "32",
						"value": "t_uint256"
					},
					"t_string_storage": {
						"encoding": "bytes",
						"label": "string",
						"numberOfBytes": "32"
					},
					"t_uint256": {
						"encoding": "inplace",
						"label": "uint256",
						"numberOfBytes": "32"
					}
				}
			},
			"userdoc": {
				"kind": "user",
				"methods": {},
				"version": 1
			}
		}
	}
}