{
	"Custom-Dex/Erc-20.sol": {
		"ERC_20": {
			"abi": [
				{
					"inputs": [
						{
							"internalType": "string",
							"name": "name_",
							"type": "string"
						},
						{
							"internalType": "string",
							"name": "symbol_",
							"type": "string"
						},
						{
							"internalType": "uint256",
							"name": "totalSupply_",
							"type": "uint256"
						}
					],
					"stateMutability": "nonpayable",
					"type": "constructor"
				},
				{
					"anonymous": false,
					"inputs": [
						{
							"indexed": true,
							"internalType": "address",
							"name": "owner",
							"type": "address"
						},
						{
							"indexed": true,
							"internalType": "address",
							"name": "spender",
							"type": "address"
						},
						{
							"indexed": false,
							"internalType": "uint256",
							"name": "value",
							"type": "uint256"
						}
					],
					"name": "Approval",
					"type": "event"
				},
				{
					"anonymous": false,
					"inputs": [
						{
							"indexed": true,
							"internalType": "address",
							"name": "from",
							"type": "address"
						},
						{
							"indexed": true,
							"internalType": "address",
							"name": "to",
							"type": "address"
						},
						{
							"indexed": false,
							"internalType": "uint256",
							"name": "value",
							"type": "uint256"
						}
					],
					"name": "Transfer",
					"type": "event"
				},
				{
					"inputs": [
						{
							"internalType": "address",
							"name": "",
							"type": "address"
						},
						{
							"internalType": "address",
							"name": "",
							"type": "address"
						}
					],
					"name": "allowance",
					"outputs": [
						{
							"internalType": "uint256",
							"name": "",
							"type": "uint256"
						}
					],
					"stateMutability": "view",
					"type": "function"
				},
				{
					"inputs": [
						{
							"internalType": "address",
							"name": "spender",
							"type": "address"
						},
						{
							"internalType": "uint256",
							"name": "amount",
							"type": "uint256"
						}
					],
					"name": "approve",
					"outputs": [
						{
							"internalType": "bool",
							"name": "",
							"type": "bool"
						}
					],
					"stateMutability": "nonpayable",
					"type": "function"
				},
				{
					"inputs": [
						{
							"internalType": "address",
							"name": "",
							"type": "address"
						}
					],
					"name": "balanceOf",
					"outputs": [
						{
							"internalType": "uint256",
							"name": "",
							"type": "uint256"
						}
					],
					"stateMutability": "view",
					"type": "function"
				},
				{
					"inputs": [
						{
							"internalType": "uint256",
							"name": "amount",
							"type": "uint256"
						}
					],
					"name": "burn",
					"outputs": [],
					"stateMutability": "nonpayable",
					"type": "function"
				},
				{
					"inputs": [],
					"name": "decimals",
					"outputs": [
						{
							"internalType": "uint8",
							"name": "",
							"type": "uint8"
						}
					],
					"stateMutability": "view",
					"type": "function"
				},
				{
					"inputs": [
						{
							"internalType": "uint256",
							"name": "amount",
							"type": "uint256"
						}
					],
					"name": "mint",
					"outputs": [],
					"stateMutability": "nonpayable",
					"type": "function"
				},
				{
					"inputs": [],
					"name": "name",
					"outputs": [
						{
							"internalType": "string",
							"name": "",
							"type": "string"
						}
					],
					"stateMutability": "view",
					"type": "function"
				},
				{
					"inputs": [],
					"name": "symbol",
					"outputs": [
						{
							"internalType": "string",
							"name": "",
							"type": "string"
						}
					],
					"stateMutability": "view",
					"type": "function"
				},
				{
					"inputs": [],
					"name": "totalSupply",
					"outputs": [
						{
							"internalType": "uint256",
							"name": "",
							"type": "uint256"
						}
					],
					"stateMutability": "view",
					"type": "function"
				},
				{
					"inputs": [
						{
							"internalType": "address",
							"name": "recipient",
							"type": "address"
						},
						{
							"internalType": "uint256",
							"name": "amount",
							"type": "uint256"
						}
					],
					"name": "transfer",
					"outputs": [
						{
							"internalType": "bool",
							"name": "",
							"type": "bool"
						}
					],
					"stateMutability": "nonpayable",
					"type": "function"
				},
				{
					"inputs": [
						{
							"internalType": "address",
							"name": "sender",
							"type": "address"
						},
						{
							"internalType": "address",
							"name": "recipient",
							"type": "address"
						},
						{
							"internalType": "uint256",
							"name": "amount",
							"type": "uint256"
						}
					],
					"name": "transferFrom",
					"outputs": [
						{
							"internalType": "bool",
							"name": "",
							"type": "bool"
						}
					],
					"stateMutability": "nonpayable",
					"type": "function"
				}
			],
			"devdoc": {
				"events": {
					"Approval(address,address,uint256)": {
						"details": "Emitted when the allowance of a `spender` for an `owner` is set by a call to {approve}. `value` is the new allowance."
					},
					"Transfer(address,address,uint256)": {
						"details": "Emitted when `value` tokens are moved from one account (`from`) to another (`to`). Note that `value` may be zero."
					}
				},
				"kind": "dev",
				"methods": {},
				"stateVariables": {
					"allowance": {
						"details": "Returns the remaining number of tokens that `spender` will be allowed to spend on behalf of `owner` through {transferFrom}. This is zero by default. This value changes when {approve} or {transferFrom} are called."
					},
					"balanceOf": {
						"details": "Returns the value of tokens owned by `account`."
					},
					"totalSupply": {
						"details": "Returns the value of tokens in existence."
					}
				},
				"version": 1
			},
			"evm": {
				"assembly": "    /* \"Custom-Dex/Erc-20.sol\":169:1726  contract ERC_20 is IERC20 {... */\n  mstore(0x40, 0x80)\n    /* \"Custom-Dex/Erc-20.sol\":251:277  uint8 public decimals = 18 */\n  0x02\n  dup1\n  sload\n  not(0xff)\n  and\n    /* \"Custom-Dex/Erc-20.sol\":275:277  18 */\n  0x12\n    /* \"Custom-Dex/Erc-20.sol\":251:277  uint8 public decimals = 18 */\n  or\n  swap1\n  sstore\n    /* \"Custom-Dex/Erc-20.sol\":427:589  constructor(string memory name_, string memory symbol_ , uint totalSupply_){... */\n  callvalue\n  dup1\n  iszero\n  tag_1\n  jumpi\n  0x00\n  dup1\n  revert\ntag_1:\n  pop\n  mload(0x40)\n  sub(codesize, bytecodeSize)\n  dup1\n  bytecodeSize\n  dup4\n  codecopy\n  dup2\n  add\n  0x40\n  dup2\n  swap1\n  mstore\n  tag_2\n  swap2\n  tag_3\n  jump\t// in\ntag_2:\n    /* \"Custom-Dex/Erc-20.sol\":512:516  name */\n  0x00\n    /* \"Custom-Dex/Erc-20.sol\":512:524  name = name_ */\n  tag_6\n    /* \"Custom-Dex/Erc-20.sol\":519:524  name_ */\n  dup5\n    /* \"Custom-Dex/Erc-20.sol\":512:516  name */\n  dup3\n    /* \"Custom-Dex/Erc-20.sol\":512:524  name = name_ */\n  tag_7\n  jump\t// in\ntag_6:\n  pop\n    /* \"Custom-Dex/Erc-20.sol\":534:540  symbol */\n  0x01\n    /* \"Custom-Dex/Erc-20.sol\":534:548  symbol=symbol_ */\n  tag_8\n    /* \"Custom-Dex/Erc-20.sol\":541:548  symbol_ */\n  dup4\n    /* \"Custom-Dex/Erc-20.sol\":534:540  symbol */\n  dup3\n    /* \"Custom-Dex/Erc-20.sol\":534:548  symbol=symbol_ */\n  tag_7\n  jump\t// in\ntag_8:\n  pop\n    /* \"Custom-Dex/Erc-20.sol\":558:569  totalSupply */\n  0x03\n    /* \"Custom-Dex/Erc-20.sol\":558:582  totalSupply=totalSupply_ */\n  sstore\n  pop\n    /* \"Custom-Dex/Erc-20.sol\":169:1726  contract ERC_20 is IERC20 {... */\n  tag_16\n  swap1\n  pop\n  jump\n    /* \"#utility.yul\":14:141   */\ntag_10:\n    /* \"#utility.yul\":75:85   */\n  0x4e487b71\n    /* \"#utility.yul\":70:73   */\n  0xe0\n    /* \"#utility.yul\":66:86   */\n  shl\n    /* \"#utility.yul\":63:64   */\n  0x00\n    /* \"#utility.yul\":56:87   */\n  mstore\n    /* \"#utility.yul\":106:110   */\n  0x41\n    /* \"#utility.yul\":103:104   */\n  0x04\n    /* \"#utility.yul\":96:111   */\n  mstore\n    /* \"#utility.yul\":130:134   */\n  0x24\n    /* \"#utility.yul\":127:128   */\n  0x00\n    /* \"#utility.yul\":120:135   */\n  revert\n    /* \"#utility.yul\":146:986   */\ntag_11:\n    /* \"#utility.yul\":200:205   */\n  0x00\n    /* \"#utility.yul\":253:256   */\n  dup3\n    /* \"#utility.yul\":246:250   */\n  0x1f\n    /* \"#utility.yul\":238:244   */\n  dup4\n    /* \"#utility.yul\":234:251   */\n  add\n    /* \"#utility.yul\":230:257   */\n  slt\n    /* \"#utility.yul\":220:275   */\n  tag_19\n  jumpi\n    /* \"#utility.yul\":271:272   */\n  0x00\n    /* \"#utility.yul\":268:269   */\n  dup1\n    /* \"#utility.yul\":261:273   */\n  revert\n    /* \"#utility.yul\":220:275   */\ntag_19:\n    /* \"#utility.yul\":294:307   */\n  dup2\n  mload\n  sub(shl(0x40, 0x01), 0x01)\n    /* \"#utility.yul\":356:366   */\n  dup1\n  dup3\n  gt\n    /* \"#utility.yul\":353:389   */\n  iszero\n  tag_21\n  jumpi\n    /* \"#utility.yul\":369:387   */\n  tag_21\n  tag_10\n  jump\t// in\ntag_21:\n    /* \"#utility.yul\":444:446   */\n  0x40\n    /* \"#utility.yul\":438:447   */\n  mload\n    /* \"#utility.yul\":412:414   */\n  0x1f\n    /* \"#utility.yul\":498:511   */\n  dup4\n  add\n  not(0x1f)\n    /* \"#utility.yul\":494:516   */\n  swap1\n  dup2\n  and\n    /* \"#utility.yul\":518:520   */\n  0x3f\n    /* \"#utility.yul\":490:521   */\n  add\n    /* \"#utility.yul\":486:526   */\n  and\n    /* \"#utility.yul\":474:527   */\n  dup2\n  add\n  swap1\n    /* \"#utility.yul\":542:560   */\n  dup3\n  dup3\n  gt\n    /* \"#utility.yul\":562:584   */\n  dup2\n  dup4\n  lt\n    /* \"#utility.yul\":539:585   */\n  or\n    /* \"#utility.yul\":536:608   */\n  iszero\n  tag_23\n  jumpi\n    /* \"#utility.yul\":588:606   */\n  tag_23\n  tag_10\n  jump\t// in\ntag_23:\n    /* \"#utility.yul\":628:638   */\n  dup2\n    /* \"#utility.yul\":624:626   */\n  0x40\n    /* \"#utility.yul\":617:639   */\n  mstore\n    /* \"#utility.yul\":663:665   */\n  dup4\n    /* \"#utility.yul\":655:661   */\n  dup2\n    /* \"#utility.yul\":648:666   */\n  mstore\n    /* \"#utility.yul\":685:689   */\n  0x20\n    /* \"#utility.yul\":675:689   */\n  swap3\n  pop\n    /* \"#utility.yul\":730:733   */\n  dup7\n    /* \"#utility.yul\":725:727   */\n  dup4\n    /* \"#utility.yul\":720:722   */\n  dup6\n    /* \"#utility.yul\":712:718   */\n  dup9\n    /* \"#utility.yul\":708:723   */\n  add\n    /* \"#utility.yul\":704:728   */\n  add\n    /* \"#utility.yul\":701:734   */\n  gt\n    /* \"#utility.yul\":698:751   */\n  iszero\n  tag_24\n  jumpi\n    /* \"#utility.yul\":747:748   */\n  0x00\n    /* \"#utility.yul\":744:745   */\n  dup1\n    /* \"#utility.yul\":737:749   */\n  revert\n    /* \"#utility.yul\":698:751   */\ntag_24:\n    /* \"#utility.yul\":769:770   */\n  0x00\n    /* \"#utility.yul\":760:770   */\n  swap2\n  pop\n    /* \"#utility.yul\":779:912   */\ntag_25:\n    /* \"#utility.yul\":793:795   */\n  dup4\n    /* \"#utility.yul\":790:791   */\n  dup3\n    /* \"#utility.yul\":787:796   */\n  lt\n    /* \"#utility.yul\":779:912   */\n  iszero\n  tag_27\n  jumpi\n    /* \"#utility.yul\":881:895   */\n  dup6\n  dup3\n  add\n    /* \"#utility.yul\":877:900   */\n  dup4\n  add\n    /* \"#utility.yul\":871:901   */\n  mload\n    /* \"#utility.yul\":850:864   */\n  dup2\n  dup4\n  add\n    /* \"#utility.yul\":846:869   */\n  dup5\n  add\n    /* \"#utility.yul\":839:902   */\n  mstore\n    /* \"#utility.yul\":804:814   */\n  swap1\n  dup3\n  add\n  swap1\n    /* \"#utility.yul\":779:912   */\n  jump(tag_25)\ntag_27:\n    /* \"#utility.yul\":954:955   */\n  0x00\n    /* \"#utility.yul\":932:947   */\n  swap4\n  dup2\n  add\n    /* \"#utility.yul\":928:952   */\n  swap1\n  swap3\n  add\n    /* \"#utility.yul\":921:956   */\n  swap3\n  swap1\n  swap3\n  mstore\n    /* \"#utility.yul\":936:942   */\n  swap5\n    /* \"#utility.yul\":146:986   */\n  swap4\n  pop\n  pop\n  pop\n  pop\n  jump\t// out\n    /* \"#utility.yul\":991:1614   */\ntag_3:\n    /* \"#utility.yul\":1099:1105   */\n  0x00\n    /* \"#utility.yul\":1107:1113   */\n  dup1\n    /* \"#utility.yul\":1115:1121   */\n  0x00\n    /* \"#utility.yul\":1168:1170   */\n  0x60\n    /* \"#utility.yul\":1156:1165   */\n  dup5\n    /* \"#utility.yul\":1147:1154   */\n  dup7\n    /* \"#utility.yul\":1143:1166   */\n  sub\n    /* \"#utility.yul\":1139:1171   */\n  slt\n    /* \"#utility.yul\":1136:1188   */\n  iszero\n  tag_29\n  jumpi\n    /* \"#utility.yul\":1184:1185   */\n  0x00\n    /* \"#utility.yul\":1181:1182   */\n  dup1\n    /* \"#utility.yul\":1174:1186   */\n  revert\n    /* \"#utility.yul\":1136:1188   */\ntag_29:\n    /* \"#utility.yul\":1211:1227   */\n  dup4\n  mload\n  sub(shl(0x40, 0x01), 0x01)\n    /* \"#utility.yul\":1276:1290   */\n  dup1\n  dup3\n  gt\n    /* \"#utility.yul\":1273:1307   */\n  iszero\n  tag_30\n  jumpi\n    /* \"#utility.yul\":1303:1304   */\n  0x00\n    /* \"#utility.yul\":1300:1301   */\n  dup1\n    /* \"#utility.yul\":1293:1305   */\n  revert\n    /* \"#utility.yul\":1273:1307   */\ntag_30:\n    /* \"#utility.yul\":1326:1387   */\n  tag_31\n    /* \"#utility.yul\":1379:1386   */\n  dup8\n    /* \"#utility.yul\":1370:1376   */\n  dup4\n    /* \"#utility.yul\":1359:1368   */\n  dup9\n    /* \"#utility.yul\":1355:1377   */\n  add\n    /* \"#utility.yul\":1326:1387   */\n  tag_11\n  jump\t// in\ntag_31:\n    /* \"#utility.yul\":1316:1387   */\n  swap5\n  pop\n    /* \"#utility.yul\":1433:1435   */\n  0x20\n    /* \"#utility.yul\":1422:1431   */\n  dup7\n    /* \"#utility.yul\":1418:1436   */\n  add\n    /* \"#utility.yul\":1412:1437   */\n  mload\n    /* \"#utility.yul\":1396:1437   */\n  swap2\n  pop\n    /* \"#utility.yul\":1462:1464   */\n  dup1\n    /* \"#utility.yul\":1452:1460   */\n  dup3\n    /* \"#utility.yul\":1449:1465   */\n  gt\n    /* \"#utility.yul\":1446:1482   */\n  iszero\n  tag_32\n  jumpi\n    /* \"#utility.yul\":1478:1479   */\n  0x00\n    /* \"#utility.yul\":1475:1476   */\n  dup1\n    /* \"#utility.yul\":1468:1480   */\n  revert\n    /* \"#utility.yul\":1446:1482   */\ntag_32:\n  pop\n    /* \"#utility.yul\":1501:1564   */\n  tag_33\n    /* \"#utility.yul\":1556:1563   */\n  dup7\n    /* \"#utility.yul\":1545:1553   */\n  dup3\n    /* \"#utility.yul\":1534:1543   */\n  dup8\n    /* \"#utility.yul\":1530:1554   */\n  add\n    /* \"#utility.yul\":1501:1564   */\n  tag_11\n  jump\t// in\ntag_33:\n    /* \"#utility.yul\":1491:1564   */\n  swap3\n  pop\n  pop\n    /* \"#utility.yul\":1604:1606   */\n  0x40\n    /* \"#utility.yul\":1593:1602   */\n  dup5\n    /* \"#utility.yul\":1589:1607   */\n  add\n    /* \"#utility.yul\":1583:1608   */\n  mload\n    /* \"#utility.yul\":1573:1608   */\n  swap1\n  pop\n    /* \"#utility.yul\":991:1614   */\n  swap3\n  pop\n  swap3\n  pop\n  swap3\n  jump\t// out\n    /* \"#utility.yul\":1619:1999   */\ntag_12:\n    /* \"#utility.yul\":1698:1699   */\n  0x01\n    /* \"#utility.yul\":1694:1706   */\n  dup2\n  dup2\n  shr\n  swap1\n    /* \"#utility.yul\":1741:1753   */\n  dup3\n  and\n  dup1\n    /* \"#utility.yul\":1762:1823   */\n  tag_35\n  jumpi\n    /* \"#utility.yul\":1816:1820   */\n  0x7f\n    /* \"#utility.yul\":1808:1814   */\n  dup3\n    /* \"#utility.yul\":1804:1821   */\n  and\n    /* \"#utility.yul\":1794:1821   */\n  swap2\n  pop\n    /* \"#utility.yul\":1762:1823   */\ntag_35:\n    /* \"#utility.yul\":1869:1871   */\n  0x20\n    /* \"#utility.yul\":1861:1867   */\n  dup3\n    /* \"#utility.yul\":1858:1872   */\n  lt\n    /* \"#utility.yul\":1838:1856   */\n  dup2\n    /* \"#utility.yul\":1835:1873   */\n  sub\n    /* \"#utility.yul\":1832:1993   */\n  tag_36\n  jumpi\n    /* \"#utility.yul\":1915:1925   */\n  0x4e487b71\n    /* \"#utility.yul\":1910:1913   */\n  0xe0\n    /* \"#utility.yul\":1906:1926   */\n  shl\n    /* \"#utility.yul\":1903:1904   */\n  0x00\n    /* \"#utility.yul\":1896:1927   */\n  mstore\n    /* \"#utility.yul\":1950:1954   */\n  0x22\n    /* \"#utility.yul\":1947:1948   */\n  0x04\n    /* \"#utility.yul\":1940:1955   */\n  mstore\n    /* \"#utility.yul\":1978:1982   */\n  0x24\n    /* \"#utility.yul\":1975:1976   */\n  0x00\n    /* \"#utility.yul\":1968:1983   */\n  revert\n    /* \"#utility.yul\":1832:1993   */\ntag_36:\n  pop\n    /* \"#utility.yul\":1619:1999   */\n  swap2\n  swap1\n  pop\n  jump\t// out\n    /* \"#utility.yul\":2130:2675   */\ntag_14:\n    /* \"#utility.yul\":2232:2234   */\n  0x1f\n    /* \"#utility.yul\":2227:2230   */\n  dup3\n    /* \"#utility.yul\":2224:2235   */\n  gt\n    /* \"#utility.yul\":2221:2669   */\n  iszero\n  tag_39\n  jumpi\n    /* \"#utility.yul\":2268:2269   */\n  0x00\n    /* \"#utility.yul\":2293:2298   */\n  dup2\n    /* \"#utility.yul\":2289:2291   */\n  dup2\n    /* \"#utility.yul\":2282:2299   */\n  mstore\n    /* \"#utility.yul\":2338:2342   */\n  0x20\n    /* \"#utility.yul\":2334:2336   */\n  dup2\n    /* \"#utility.yul\":2324:2343   */\n  keccak256\n    /* \"#utility.yul\":2408:2410   */\n  0x1f\n    /* \"#utility.yul\":2396:2406   */\n  dup6\n    /* \"#utility.yul\":2392:2411   */\n  add\n    /* \"#utility.yul\":2389:2390   */\n  0x05\n    /* \"#utility.yul\":2385:2412   */\n  shr\n    /* \"#utility.yul\":2379:2383   */\n  dup2\n    /* \"#utility.yul\":2375:2413   */\n  add\n    /* \"#utility.yul\":2444:2448   */\n  0x20\n    /* \"#utility.yul\":2432:2442   */\n  dup7\n    /* \"#utility.yul\":2429:2449   */\n  lt\n    /* \"#utility.yul\":2426:2473   */\n  iszero\n  tag_40\n  jumpi\n  pop\n    /* \"#utility.yul\":2467:2471   */\n  dup1\n    /* \"#utility.yul\":2426:2473   */\ntag_40:\n    /* \"#utility.yul\":2522:2524   */\n  0x1f\n    /* \"#utility.yul\":2517:2520   */\n  dup6\n    /* \"#utility.yul\":2513:2525   */\n  add\n    /* \"#utility.yul\":2510:2511   */\n  0x05\n    /* \"#utility.yul\":2506:2526   */\n  shr\n    /* \"#utility.yul\":2500:2504   */\n  dup3\n    /* \"#utility.yul\":2496:2527   */\n  add\n    /* \"#utility.yul\":2486:2527   */\n  swap2\n  pop\n    /* \"#utility.yul\":2577:2659   */\ntag_41:\n    /* \"#utility.yul\":2595:2597   */\n  dup2\n    /* \"#utility.yul\":2588:2593   */\n  dup2\n    /* \"#utility.yul\":2585:2598   */\n  lt\n    /* \"#utility.yul\":2577:2659   */\n  iszero\n  tag_43\n  jumpi\n    /* \"#utility.yul\":2640:2657   */\n  dup3\n  dup2\n  sstore\n    /* \"#utility.yul\":2621:2622   */\n  0x01\n    /* \"#utility.yul\":2610:2623   */\n  add\n    /* \"#utility.yul\":2577:2659   */\n  jump(tag_41)\ntag_43:\n    /* \"#utility.yul\":2581:2584   */\n  pop\n  pop\n  pop\n    /* \"#utility.yul\":2221:2669   */\ntag_39:\n    /* \"#utility.yul\":2130:2675   */\n  pop\n  pop\n  pop\n  jump\t// out\n    /* \"#utility.yul\":2851:4203   */\ntag_7:\n    /* \"#utility.yul\":2971:2981   */\n  dup2\n  mload\n  sub(shl(0x40, 0x01), 0x01)\n    /* \"#utility.yul\":2993:3023   */\n  dup2\n  gt\n    /* \"#utility.yul\":2990:3046   */\n  iszero\n  tag_47\n  jumpi\n    /* \"#utility.yul\":3026:3044   */\n  tag_47\n  tag_10\n  jump\t// in\ntag_47:\n    /* \"#utility.yul\":3055:3152   */\n  tag_48\n    /* \"#utility.yul\":3145:3151   */\n  dup2\n    /* \"#utility.yul\":3105:3143   */\n  tag_49\n    /* \"#utility.yul\":3137:3141   */\n  dup5\n    /* \"#utility.yul\":3131:3142   */\n  sload\n    /* \"#utility.yul\":3105:3143   */\n  tag_12\n  jump\t// in\ntag_49:\n    /* \"#utility.yul\":3099:3103   */\n  dup5\n    /* \"#utility.yul\":3055:3152   */\n  tag_14\n  jump\t// in\ntag_48:\n    /* \"#utility.yul\":3207:3211   */\n  0x20\n  dup1\n    /* \"#utility.yul\":3271:3273   */\n  0x1f\n    /* \"#utility.yul\":3260:3274   */\n  dup4\n  gt\n    /* \"#utility.yul\":3288:3289   */\n  0x01\n    /* \"#utility.yul\":3283:3946   */\n  dup2\n  eq\n  tag_51\n  jumpi\n    /* \"#utility.yul\":3990:3991   */\n  0x00\n    /* \"#utility.yul\":4007:4013   */\n  dup5\n    /* \"#utility.yul\":4004:4093   */\n  iszero\n  tag_52\n  jumpi\n  pop\n    /* \"#utility.yul\":4059:4078   */\n  dup6\n  dup4\n  add\n    /* \"#utility.yul\":4053:4079   */\n  mload\n    /* \"#utility.yul\":4004:4093   */\ntag_52:\n  not(0x00)\n    /* \"#utility.yul\":2808:2809   */\n  0x03\n    /* \"#utility.yul\":2804:2815   */\n  dup7\n  swap1\n  shl\n    /* \"#utility.yul\":2800:2824   */\n  shr\n    /* \"#utility.yul\":2796:2825   */\n  not\n    /* \"#utility.yul\":2786:2826   */\n  and\n    /* \"#utility.yul\":2832:2833   */\n  0x01\n    /* \"#utility.yul\":2828:2839   */\n  dup6\n  swap1\n  shl\n    /* \"#utility.yul\":2783:2840   */\n  or\n    /* \"#utility.yul\":4106:4187   */\n  dup6\n  sstore\n    /* \"#utility.yul\":3253:4197   */\n  jump(tag_43)\n    /* \"#utility.yul\":3283:3946   */\ntag_51:\n    /* \"#utility.yul\":2077:2078   */\n  0x00\n    /* \"#utility.yul\":2070:2084   */\n  dup6\n  dup2\n  mstore\n    /* \"#utility.yul\":2114:2118   */\n  0x20\n    /* \"#utility.yul\":2101:2119   */\n  dup2\n  keccak256\n  not(0x1f)\n    /* \"#utility.yul\":3319:3339   */\n  dup7\n  and\n  swap2\n    /* \"#utility.yul\":3437:3673   */\ntag_55:\n    /* \"#utility.yul\":3451:3458   */\n  dup3\n    /* \"#utility.yul\":3448:3449   */\n  dup2\n    /* \"#utility.yul\":3445:3459   */\n  lt\n    /* \"#utility.yul\":3437:3673   */\n  iszero\n  tag_57\n  jumpi\n    /* \"#utility.yul\":3540:3559   */\n  dup9\n  dup7\n  add\n    /* \"#utility.yul\":3534:3560   */\n  mload\n    /* \"#utility.yul\":3519:3561   */\n  dup3\n  sstore\n    /* \"#utility.yul\":3632:3659   */\n  swap5\n  dup5\n  add\n  swap5\n    /* \"#utility.yul\":3600:3601   */\n  0x01\n    /* \"#utility.yul\":3588:3602   */\n  swap1\n  swap2\n  add\n  swap1\n    /* \"#utility.yul\":3467:3486   */\n  dup5\n  add\n    /* \"#utility.yul\":3437:3673   */\n  jump(tag_55)\ntag_57:\n    /* \"#utility.yul\":3441:3444   */\n  pop\n    /* \"#utility.yul\":3701:3707   */\n  dup6\n    /* \"#utility.yul\":3692:3699   */\n  dup3\n    /* \"#utility.yul\":3689:3708   */\n  lt\n    /* \"#utility.yul\":3686:3887   */\n  iszero\n  tag_58\n  jumpi\n    /* \"#utility.yul\":3762:3781   */\n  dup8\n  dup6\n  add\n    /* \"#utility.yul\":3756:3782   */\n  mload\n  not(0x00)\n    /* \"#utility.yul\":3845:3846   */\n  0x03\n    /* \"#utility.yul\":3841:3855   */\n  dup9\n  swap1\n  shl\n    /* \"#utility.yul\":3857:3860   */\n  0xf8\n    /* \"#utility.yul\":3837:3861   */\n  and\n    /* \"#utility.yul\":3833:3870   */\n  shr\n    /* \"#utility.yul\":3829:3871   */\n  not\n    /* \"#utility.yul\":3814:3872   */\n  and\n    /* \"#utility.yul\":3799:3873   */\n  dup2\n  sstore\n    /* \"#utility.yul\":3686:3887   */\ntag_58:\n  pop\n  pop\n  pop\n  pop\n  pop\n    /* \"#utility.yul\":3933:3934   */\n  0x01\n    /* \"#utility.yul\":3917:3931   */\n  swap1\n  dup2\n  shl\n    /* \"#utility.yul\":3913:3935   */\n  add\n    /* \"#utility.yul\":3900:3936   */\n  swap1\n  sstore\n  pop\n    /* \"#utility.yul\":2851:4203   */\n  jump\t// out\ntag_16:\n    /* \"Custom-Dex/Erc-20.sol\":169:1726  contract ERC_20 is IERC20 {... */\n  dataSize(sub_0)\n  dup1\n  dataOffset(sub_0)\n  0x00\n  codecopy\n  0x00\n  return\nstop\n\nsub_0: assembly {\n        /* \"Custom-Dex/Erc-20.sol\":169:1726  contract ERC_20 is IERC20 {... */\n      mstore(0x40, 0x80)\n      callvalue\n      dup1\n      iszero\n      tag_1\n      jumpi\n      0x00\n      dup1\n      revert\n    tag_1:\n      pop\n      jumpi(tag_2, lt(calldatasize, 0x04))\n      shr(0xe0, calldataload(0x00))\n      dup1\n      0x42966c68\n      gt\n      tag_14\n      jumpi\n      dup1\n      0x42966c68\n      eq\n      tag_8\n      jumpi\n      dup1\n      0x70a08231\n      eq\n      tag_9\n      jumpi\n      dup1\n      0x95d89b41\n      eq\n      tag_10\n      jumpi\n      dup1\n      0xa0712d68\n      eq\n      tag_11\n      jumpi\n      dup1\n      0xa9059cbb\n      eq\n      tag_12\n      jumpi\n      dup1\n      0xdd62ed3e\n      eq\n      tag_13\n      jumpi\n      0x00\n      dup1\n      revert\n    tag_14:\n      dup1\n      0x06fdde03\n      eq\n      tag_3\n      jumpi\n      dup1\n      0x095ea7b3\n      eq\n      tag_4\n      jumpi\n      dup1\n      0x18160ddd\n      eq\n      tag_5\n      jumpi\n      dup1\n      0x23b872dd\n      eq\n      tag_6\n      jumpi\n      dup1\n      0x313ce567\n      eq\n      tag_7\n      jumpi\n    tag_2:\n      0x00\n      dup1\n      revert\n        /* \"Custom-Dex/Erc-20.sol\":201:219  string public name */\n    tag_3:\n      tag_15\n      tag_16\n      jump\t// in\n    tag_15:\n      mload(0x40)\n      tag_17\n      swap2\n      swap1\n      tag_18\n      jump\t// in\n    tag_17:\n      mload(0x40)\n      dup1\n      swap2\n      sub\n      swap1\n      return\n        /* \"Custom-Dex/Erc-20.sol\":838:1038  function approve(address spender, uint amount) external returns (bool) {... */\n    tag_4:\n      tag_19\n      tag_20\n      calldatasize\n      0x04\n      tag_21\n      jump\t// in\n    tag_20:\n      tag_22\n      jump\t// in\n    tag_19:\n      mload(0x40)\n        /* \"#utility.yul\":1169:1183   */\n      swap1\n      iszero\n        /* \"#utility.yul\":1162:1184   */\n      iszero\n        /* \"#utility.yul\":1144:1185   */\n      dup2\n      mstore\n        /* \"#utility.yul\":1132:1134   */\n      0x20\n        /* \"#utility.yul\":1117:1135   */\n      add\n        /* \"Custom-Dex/Erc-20.sol\":838:1038  function approve(address spender, uint amount) external returns (bool) {... */\n      tag_17\n        /* \"#utility.yul\":1004:1191   */\n      jump\n        /* \"Custom-Dex/Erc-20.sol\":283:306  uint public totalSupply */\n    tag_5:\n      tag_25\n      sload(0x03)\n      dup2\n      jump\n    tag_25:\n      mload(0x40)\n        /* \"#utility.yul\":1342:1367   */\n      swap1\n      dup2\n      mstore\n        /* \"#utility.yul\":1330:1332   */\n      0x20\n        /* \"#utility.yul\":1315:1333   */\n      add\n        /* \"Custom-Dex/Erc-20.sol\":283:306  uint public totalSupply */\n      tag_17\n        /* \"#utility.yul\":1196:1373   */\n      jump\n        /* \"Custom-Dex/Erc-20.sol\":1044:1372  function transferFrom(... */\n    tag_6:\n      tag_19\n      tag_30\n      calldatasize\n      0x04\n      tag_31\n      jump\t// in\n    tag_30:\n      tag_32\n      jump\t// in\n        /* \"Custom-Dex/Erc-20.sol\":251:277  uint8 public decimals = 18 */\n    tag_7:\n      sload(0x02)\n      tag_34\n      swap1\n      0xff\n      and\n      dup2\n      jump\n    tag_34:\n      mload(0x40)\n        /* \"#utility.yul\":1883:1887   */\n      0xff\n        /* \"#utility.yul\":1871:1888   */\n      swap1\n      swap2\n      and\n        /* \"#utility.yul\":1853:1889   */\n      dup2\n      mstore\n        /* \"#utility.yul\":1841:1843   */\n      0x20\n        /* \"#utility.yul\":1826:1844   */\n      add\n        /* \"Custom-Dex/Erc-20.sol\":251:277  uint8 public decimals = 18 */\n      tag_17\n        /* \"#utility.yul\":1711:1895   */\n      jump\n        /* \"Custom-Dex/Erc-20.sol\":1554:1724  function burn(uint amount) external {... */\n    tag_8:\n      tag_38\n      tag_39\n      calldatasize\n      0x04\n      tag_40\n      jump\t// in\n    tag_39:\n      tag_41\n      jump\t// in\n    tag_38:\n      stop\n        /* \"Custom-Dex/Erc-20.sol\":312:353  mapping(address => uint) public balanceOf */\n    tag_9:\n      tag_25\n      tag_43\n      calldatasize\n      0x04\n      tag_44\n      jump\t// in\n    tag_43:\n      mstore(0x20, 0x04)\n      0x00\n      swap1\n      dup2\n      mstore\n      0x40\n      swap1\n      keccak256\n      sload\n      dup2\n      jump\n        /* \"Custom-Dex/Erc-20.sol\":225:245  string public symbol */\n    tag_10:\n      tag_15\n      tag_48\n      jump\t// in\n        /* \"Custom-Dex/Erc-20.sol\":1378:1548  function mint(uint amount) external {... */\n    tag_11:\n      tag_38\n      tag_51\n      calldatasize\n      0x04\n      tag_40\n      jump\t// in\n    tag_51:\n      tag_52\n      jump\t// in\n        /* \"Custom-Dex/Erc-20.sol\":595:832  function transfer(address recipient, uint amount) external returns (bool) {... */\n    tag_12:\n      tag_19\n      tag_54\n      calldatasize\n      0x04\n      tag_21\n      jump\t// in\n    tag_54:\n      tag_55\n      jump\t// in\n        /* \"Custom-Dex/Erc-20.sol\":359:420  mapping(address => mapping(address => uint)) public allowance */\n    tag_13:\n      tag_25\n      tag_58\n      calldatasize\n      0x04\n      tag_59\n      jump\t// in\n    tag_58:\n      0x05\n      0x20\n      swap1\n      dup2\n      mstore\n      0x00\n      swap3\n      dup4\n      mstore\n      0x40\n      dup1\n      dup5\n      keccak256\n      swap1\n      swap2\n      mstore\n      swap1\n      dup3\n      mstore\n      swap1\n      keccak256\n      sload\n      dup2\n      jump\n        /* \"Custom-Dex/Erc-20.sol\":201:219  string public name */\n    tag_16:\n      0x00\n      dup1\n      sload\n      tag_62\n      swap1\n      tag_63\n      jump\t// in\n    tag_62:\n      dup1\n      0x1f\n      add\n      0x20\n      dup1\n      swap2\n      div\n      mul\n      0x20\n      add\n      mload(0x40)\n      swap1\n      dup2\n      add\n      0x40\n      mstore\n      dup1\n      swap3\n      swap2\n      swap1\n      dup2\n      dup2\n      mstore\n      0x20\n      add\n      dup3\n      dup1\n      sload\n      tag_64\n      swap1\n      tag_63\n      jump\t// in\n    tag_64:\n      dup1\n      iszero\n      tag_65\n      jumpi\n      dup1\n      0x1f\n      lt\n      tag_66\n      jumpi\n      0x0100\n      dup1\n      dup4\n      sload\n      div\n      mul\n      dup4\n      mstore\n      swap2\n      0x20\n      add\n      swap2\n      jump(tag_65)\n    tag_66:\n      dup3\n      add\n      swap2\n      swap1\n      0x00\n      mstore\n      keccak256(0x00, 0x20)\n      swap1\n    tag_67:\n      dup2\n      sload\n      dup2\n      mstore\n      swap1\n      0x01\n      add\n      swap1\n      0x20\n      add\n      dup1\n      dup4\n      gt\n      tag_67\n      jumpi\n      dup3\n      swap1\n      sub\n      0x1f\n      and\n      dup3\n      add\n      swap2\n    tag_65:\n      pop\n      pop\n      pop\n      pop\n      pop\n      dup2\n      jump\t// out\n        /* \"Custom-Dex/Erc-20.sol\":838:1038  function approve(address spender, uint amount) external returns (bool) {... */\n    tag_22:\n        /* \"Custom-Dex/Erc-20.sol\":929:939  msg.sender */\n      caller\n        /* \"Custom-Dex/Erc-20.sol\":903:907  bool */\n      0x00\n        /* \"Custom-Dex/Erc-20.sol\":919:940  allowance[msg.sender] */\n      dup2\n      dup2\n      mstore\n        /* \"Custom-Dex/Erc-20.sol\":919:928  allowance */\n      0x05\n        /* \"Custom-Dex/Erc-20.sol\":919:940  allowance[msg.sender] */\n      0x20\n      swap1\n      dup2\n      mstore\n      0x40\n      dup1\n      dup4\n      keccak256\n      sub(shl(0xa0, 0x01), 0x01)\n        /* \"Custom-Dex/Erc-20.sol\":919:949  allowance[msg.sender][spender] */\n      dup8\n      and\n      dup1\n      dup6\n      mstore\n      swap3\n      mstore\n      dup1\n      dup4\n      keccak256\n        /* \"Custom-Dex/Erc-20.sol\":919:958  allowance[msg.sender][spender] = amount */\n      dup6\n      swap1\n      sstore\n        /* \"Custom-Dex/Erc-20.sol\":973:1010  Approval(msg.sender, spender, amount) */\n      mload\n        /* \"Custom-Dex/Erc-20.sol\":903:907  bool */\n      swap2\n      swap3\n        /* \"Custom-Dex/Erc-20.sol\":919:949  allowance[msg.sender][spender] */\n      swap1\n      swap2\n        /* \"Custom-Dex/Erc-20.sol\":973:1010  Approval(msg.sender, spender, amount) */\n      0x8c5be1e5ebec7d5bd14f71427d1e84f3dd0314c0f7b2291e5b200ac8c7c3b925\n      swap1\n      tag_69\n      swap1\n        /* \"Custom-Dex/Erc-20.sol\":952:958  amount */\n      dup7\n        /* \"#utility.yul\":1342:1367   */\n      dup2\n      mstore\n        /* \"#utility.yul\":1330:1332   */\n      0x20\n        /* \"#utility.yul\":1315:1333   */\n      add\n      swap1\n        /* \"#utility.yul\":1196:1373   */\n      jump\n        /* \"Custom-Dex/Erc-20.sol\":973:1010  Approval(msg.sender, spender, amount) */\n    tag_69:\n      mload(0x40)\n      dup1\n      swap2\n      sub\n      swap1\n      log3\n      pop\n        /* \"Custom-Dex/Erc-20.sol\":1027:1031  true */\n      0x01\n        /* \"Custom-Dex/Erc-20.sol\":838:1038  function approve(address spender, uint amount) external returns (bool) {... */\n    tag_68:\n      swap3\n      swap2\n      pop\n      pop\n      jump\t// out\n        /* \"Custom-Dex/Erc-20.sol\":1044:1372  function transferFrom(... */\n    tag_32:\n      sub(shl(0xa0, 0x01), 0x01)\n        /* \"Custom-Dex/Erc-20.sol\":1178:1195  allowance[sender] */\n      dup4\n      and\n        /* \"Custom-Dex/Erc-20.sol\":1162:1166  bool */\n      0x00\n        /* \"Custom-Dex/Erc-20.sol\":1178:1195  allowance[sender] */\n      swap1\n      dup2\n      mstore\n        /* \"Custom-Dex/Erc-20.sol\":1178:1187  allowance */\n      0x05\n        /* \"Custom-Dex/Erc-20.sol\":1178:1195  allowance[sender] */\n      0x20\n      swap1\n      dup2\n      mstore\n      0x40\n      dup1\n      dup4\n      keccak256\n        /* \"Custom-Dex/Erc-20.sol\":1196:1206  msg.sender */\n      caller\n        /* \"Custom-Dex/Erc-20.sol\":1178:1207  allowance[sender][msg.sender] */\n      dup5\n      mstore\n      swap1\n      swap2\n      mstore\n      dup2\n      keccak256\n        /* \"Custom-Dex/Erc-20.sol\":1178:1217  allowance[sender][msg.sender] -= amount */\n      dup1\n      sload\n        /* \"Custom-Dex/Erc-20.sol\":1211:1217  amount */\n      dup4\n      swap2\n        /* \"Custom-Dex/Erc-20.sol\":1178:1207  allowance[sender][msg.sender] */\n      swap1\n        /* \"Custom-Dex/Erc-20.sol\":1162:1166  bool */\n      dup4\n      swap1\n        /* \"Custom-Dex/Erc-20.sol\":1178:1217  allowance[sender][msg.sender] -= amount */\n      tag_71\n      swap1\n        /* \"Custom-Dex/Erc-20.sol\":1211:1217  amount */\n      dup5\n      swap1\n        /* \"Custom-Dex/Erc-20.sol\":1178:1217  allowance[sender][msg.sender] -= amount */\n      tag_72\n      jump\t// in\n    tag_71:\n      swap1\n      swap2\n      sstore\n      pop\n      pop\n      sub(shl(0xa0, 0x01), 0x01)\n        /* \"Custom-Dex/Erc-20.sol\":1227:1244  balanceOf[sender] */\n      dup5\n      and\n      0x00\n      swap1\n      dup2\n      mstore\n        /* \"Custom-Dex/Erc-20.sol\":1227:1236  balanceOf */\n      0x04\n        /* \"Custom-Dex/Erc-20.sol\":1227:1244  balanceOf[sender] */\n      0x20\n      mstore\n      0x40\n      dup2\n      keccak256\n        /* \"Custom-Dex/Erc-20.sol\":1227:1254  balanceOf[sender] -= amount */\n      dup1\n      sload\n        /* \"Custom-Dex/Erc-20.sol\":1248:1254  amount */\n      dup5\n      swap3\n        /* \"Custom-Dex/Erc-20.sol\":1227:1244  balanceOf[sender] */\n      swap1\n        /* \"Custom-Dex/Erc-20.sol\":1227:1254  balanceOf[sender] -= amount */\n      tag_73\n      swap1\n        /* \"Custom-Dex/Erc-20.sol\":1248:1254  amount */\n      dup5\n      swap1\n        /* \"Custom-Dex/Erc-20.sol\":1227:1254  balanceOf[sender] -= amount */\n      tag_72\n      jump\t// in\n    tag_73:\n      swap1\n      swap2\n      sstore\n      pop\n      pop\n      sub(shl(0xa0, 0x01), 0x01)\n        /* \"Custom-Dex/Erc-20.sol\":1264:1284  balanceOf[recipient] */\n      dup4\n      and\n      0x00\n      swap1\n      dup2\n      mstore\n        /* \"Custom-Dex/Erc-20.sol\":1264:1273  balanceOf */\n      0x04\n        /* \"Custom-Dex/Erc-20.sol\":1264:1284  balanceOf[recipient] */\n      0x20\n      mstore\n      0x40\n      dup2\n      keccak256\n        /* \"Custom-Dex/Erc-20.sol\":1264:1294  balanceOf[recipient] += amount */\n      dup1\n      sload\n        /* \"Custom-Dex/Erc-20.sol\":1288:1294  amount */\n      dup5\n      swap3\n        /* \"Custom-Dex/Erc-20.sol\":1264:1284  balanceOf[recipient] */\n      swap1\n        /* \"Custom-Dex/Erc-20.sol\":1264:1294  balanceOf[recipient] += amount */\n      tag_74\n      swap1\n        /* \"Custom-Dex/Erc-20.sol\":1288:1294  amount */\n      dup5\n      swap1\n        /* \"Custom-Dex/Erc-20.sol\":1264:1294  balanceOf[recipient] += amount */\n      tag_75\n      jump\t// in\n    tag_74:\n      swap3\n      pop\n      pop\n      dup2\n      swap1\n      sstore\n      pop\n        /* \"Custom-Dex/Erc-20.sol\":1326:1335  recipient */\n      dup3\n      sub(shl(0xa0, 0x01), 0x01)\n        /* \"Custom-Dex/Erc-20.sol\":1309:1344  Transfer(sender, recipient, amount) */\n      and\n        /* \"Custom-Dex/Erc-20.sol\":1318:1324  sender */\n      dup5\n      sub(shl(0xa0, 0x01), 0x01)\n        /* \"Custom-Dex/Erc-20.sol\":1309:1344  Transfer(sender, recipient, amount) */\n      and\n      0x00\n      dup1\n      mload\n      0x20\n      data_ada389e1fc24a8587c776340efb91b36e675792ab631816100d55df0b5cf3cbc\n      dup4\n      codecopy\n      dup2\n      mload\n      swap2\n      mstore\n        /* \"Custom-Dex/Erc-20.sol\":1337:1343  amount */\n      dup5\n        /* \"Custom-Dex/Erc-20.sol\":1309:1344  Transfer(sender, recipient, amount) */\n      mload(0x40)\n      tag_76\n      swap2\n        /* \"#utility.yul\":1342:1367   */\n      dup2\n      mstore\n        /* \"#utility.yul\":1330:1332   */\n      0x20\n        /* \"#utility.yul\":1315:1333   */\n      add\n      swap1\n        /* \"#utility.yul\":1196:1373   */\n      jump\n        /* \"Custom-Dex/Erc-20.sol\":1309:1344  Transfer(sender, recipient, amount) */\n    tag_76:\n      mload(0x40)\n      dup1\n      swap2\n      sub\n      swap1\n      log3\n      pop\n        /* \"Custom-Dex/Erc-20.sol\":1361:1365  true */\n      0x01\n        /* \"Custom-Dex/Erc-20.sol\":1044:1372  function transferFrom(... */\n      swap4\n      swap3\n      pop\n      pop\n      pop\n      jump\t// out\n        /* \"Custom-Dex/Erc-20.sol\":1554:1724  function burn(uint amount) external {... */\n    tag_41:\n        /* \"Custom-Dex/Erc-20.sol\":1610:1620  msg.sender */\n      caller\n        /* \"Custom-Dex/Erc-20.sol\":1600:1621  balanceOf[msg.sender] */\n      0x00\n      swap1\n      dup2\n      mstore\n        /* \"Custom-Dex/Erc-20.sol\":1600:1609  balanceOf */\n      0x04\n        /* \"Custom-Dex/Erc-20.sol\":1600:1621  balanceOf[msg.sender] */\n      0x20\n      mstore\n      0x40\n      dup2\n      keccak256\n        /* \"Custom-Dex/Erc-20.sol\":1600:1631  balanceOf[msg.sender] -= amount */\n      dup1\n      sload\n        /* \"Custom-Dex/Erc-20.sol\":1625:1631  amount */\n      dup4\n      swap3\n        /* \"Custom-Dex/Erc-20.sol\":1600:1621  balanceOf[msg.sender] */\n      swap1\n        /* \"Custom-Dex/Erc-20.sol\":1600:1631  balanceOf[msg.sender] -= amount */\n      tag_78\n      swap1\n        /* \"Custom-Dex/Erc-20.sol\":1625:1631  amount */\n      dup5\n      swap1\n        /* \"Custom-Dex/Erc-20.sol\":1600:1631  balanceOf[msg.sender] -= amount */\n      tag_72\n      jump\t// in\n    tag_78:\n      swap3\n      pop\n      pop\n      dup2\n      swap1\n      sstore\n      pop\n        /* \"Custom-Dex/Erc-20.sol\":1656:1662  amount */\n      dup1\n        /* \"Custom-Dex/Erc-20.sol\":1641:1652  totalSupply */\n      0x03\n      0x00\n        /* \"Custom-Dex/Erc-20.sol\":1641:1662  totalSupply -= amount */\n      dup3\n      dup3\n      sload\n      tag_79\n      swap2\n      swap1\n      tag_72\n      jump\t// in\n    tag_79:\n      swap1\n      swap2\n      sstore\n      pop\n      pop\n        /* \"Custom-Dex/Erc-20.sol\":1677:1717  Transfer(msg.sender, address(0), amount) */\n      mload(0x40)\n        /* \"#utility.yul\":1342:1367   */\n      dup2\n      dup2\n      mstore\n        /* \"Custom-Dex/Erc-20.sol\":1706:1707  0 */\n      0x00\n      swap1\n        /* \"Custom-Dex/Erc-20.sol\":1686:1696  msg.sender */\n      caller\n      swap1\n      0x00\n      dup1\n      mload\n      0x20\n      data_ada389e1fc24a8587c776340efb91b36e675792ab631816100d55df0b5cf3cbc\n      dup4\n      codecopy\n      dup2\n      mload\n      swap2\n      mstore\n        /* \"Custom-Dex/Erc-20.sol\":1677:1717  Transfer(msg.sender, address(0), amount) */\n      swap1\n        /* \"#utility.yul\":1330:1332   */\n      0x20\n        /* \"#utility.yul\":1315:1333   */\n      add\n        /* \"Custom-Dex/Erc-20.sol\":1677:1717  Transfer(msg.sender, address(0), amount) */\n    tag_80:\n      mload(0x40)\n      dup1\n      swap2\n      sub\n      swap1\n      log3\n        /* \"Custom-Dex/Erc-20.sol\":1554:1724  function burn(uint amount) external {... */\n      pop\n      jump\t// out\n        /* \"Custom-Dex/Erc-20.sol\":225:245  string public symbol */\n    tag_48:\n      0x01\n      dup1\n      sload\n      tag_62\n      swap1\n      tag_63\n      jump\t// in\n        /* \"Custom-Dex/Erc-20.sol\":1378:1548  function mint(uint amount) external {... */\n    tag_52:\n        /* \"Custom-Dex/Erc-20.sol\":1434:1444  msg.sender */\n      caller\n        /* \"Custom-Dex/Erc-20.sol\":1424:1445  balanceOf[msg.sender] */\n      0x00\n      swap1\n      dup2\n      mstore\n        /* \"Custom-Dex/Erc-20.sol\":1424:1433  balanceOf */\n      0x04\n        /* \"Custom-Dex/Erc-20.sol\":1424:1445  balanceOf[msg.sender] */\n      0x20\n      mstore\n      0x40\n      dup2\n      keccak256\n        /* \"Custom-Dex/Erc-20.sol\":1424:1455  balanceOf[msg.sender] += amount */\n      dup1\n      sload\n        /* \"Custom-Dex/Erc-20.sol\":1449:1455  amount */\n      dup4\n      swap3\n        /* \"Custom-Dex/Erc-20.sol\":1424:1445  balanceOf[msg.sender] */\n      swap1\n        /* \"Custom-Dex/Erc-20.sol\":1424:1455  balanceOf[msg.sender] += amount */\n      tag_87\n      swap1\n        /* \"Custom-Dex/Erc-20.sol\":1449:1455  amount */\n      dup5\n      swap1\n        /* \"Custom-Dex/Erc-20.sol\":1424:1455  balanceOf[msg.sender] += amount */\n      tag_75\n      jump\t// in\n    tag_87:\n      swap3\n      pop\n      pop\n      dup2\n      swap1\n      sstore\n      pop\n        /* \"Custom-Dex/Erc-20.sol\":1480:1486  amount */\n      dup1\n        /* \"Custom-Dex/Erc-20.sol\":1465:1476  totalSupply */\n      0x03\n      0x00\n        /* \"Custom-Dex/Erc-20.sol\":1465:1486  totalSupply += amount */\n      dup3\n      dup3\n      sload\n      tag_88\n      swap2\n      swap1\n      tag_75\n      jump\t// in\n    tag_88:\n      swap1\n      swap2\n      sstore\n      pop\n      pop\n        /* \"Custom-Dex/Erc-20.sol\":1501:1541  Transfer(address(0), msg.sender, amount) */\n      mload(0x40)\n        /* \"#utility.yul\":1342:1367   */\n      dup2\n      dup2\n      mstore\n        /* \"Custom-Dex/Erc-20.sol\":1522:1532  msg.sender */\n      caller\n      swap1\n        /* \"Custom-Dex/Erc-20.sol\":1518:1519  0 */\n      0x00\n      swap1\n      0x00\n      dup1\n      mload\n      0x20\n      data_ada389e1fc24a8587c776340efb91b36e675792ab631816100d55df0b5cf3cbc\n      dup4\n      codecopy\n      dup2\n      mload\n      swap2\n      mstore\n        /* \"Custom-Dex/Erc-20.sol\":1501:1541  Transfer(address(0), msg.sender, amount) */\n      swap1\n        /* \"#utility.yul\":1330:1332   */\n      0x20\n        /* \"#utility.yul\":1315:1333   */\n      add\n        /* \"Custom-Dex/Erc-20.sol\":1501:1541  Transfer(address(0), msg.sender, amount) */\n      tag_80\n        /* \"#utility.yul\":1196:1373   */\n      jump\n        /* \"Custom-Dex/Erc-20.sol\":595:832  function transfer(address recipient, uint amount) external returns (bool) {... */\n    tag_55:\n        /* \"Custom-Dex/Erc-20.sol\":689:699  msg.sender */\n      caller\n        /* \"Custom-Dex/Erc-20.sol\":663:667  bool */\n      0x00\n        /* \"Custom-Dex/Erc-20.sol\":679:700  balanceOf[msg.sender] */\n      swap1\n      dup2\n      mstore\n        /* \"Custom-Dex/Erc-20.sol\":679:688  balanceOf */\n      0x04\n        /* \"Custom-Dex/Erc-20.sol\":679:700  balanceOf[msg.sender] */\n      0x20\n      mstore\n      0x40\n      dup2\n      keccak256\n        /* \"Custom-Dex/Erc-20.sol\":679:710  balanceOf[msg.sender] -= amount */\n      dup1\n      sload\n        /* \"Custom-Dex/Erc-20.sol\":704:710  amount */\n      dup4\n      swap2\n        /* \"Custom-Dex/Erc-20.sol\":679:700  balanceOf[msg.sender] */\n      swap1\n        /* \"Custom-Dex/Erc-20.sol\":663:667  bool */\n      dup4\n      swap1\n        /* \"Custom-Dex/Erc-20.sol\":679:710  balanceOf[msg.sender] -= amount */\n      tag_91\n      swap1\n        /* \"Custom-Dex/Erc-20.sol\":704:710  amount */\n      dup5\n      swap1\n        /* \"Custom-Dex/Erc-20.sol\":679:710  balanceOf[msg.sender] -= amount */\n      tag_72\n      jump\t// in\n    tag_91:\n      swap1\n      swap2\n      sstore\n      pop\n      pop\n      sub(shl(0xa0, 0x01), 0x01)\n        /* \"Custom-Dex/Erc-20.sol\":720:740  balanceOf[recipient] */\n      dup4\n      and\n      0x00\n      swap1\n      dup2\n      mstore\n        /* \"Custom-Dex/Erc-20.sol\":720:729  balanceOf */\n      0x04\n        /* \"Custom-Dex/Erc-20.sol\":720:740  balanceOf[recipient] */\n      0x20\n      mstore\n      0x40\n      dup2\n      keccak256\n        /* \"Custom-Dex/Erc-20.sol\":720:750  balanceOf[recipient] += amount */\n      dup1\n      sload\n        /* \"Custom-Dex/Erc-20.sol\":744:750  amount */\n      dup5\n      swap3\n        /* \"Custom-Dex/Erc-20.sol\":720:740  balanceOf[recipient] */\n      swap1\n        /* \"Custom-Dex/Erc-20.sol\":720:750  balanceOf[recipient] += amount */\n      tag_92\n      swap1\n        /* \"Custom-Dex/Erc-20.sol\":744:750  amount */\n      dup5\n      swap1\n        /* \"Custom-Dex/Erc-20.sol\":720:750  balanceOf[recipient] += amount */\n      tag_75\n      jump\t// in\n    tag_92:\n      swap1\n      swap2\n      sstore\n      pop\n      pop\n        /* \"Custom-Dex/Erc-20.sol\":765:804  Transfer(msg.sender, recipient, amount) */\n      mload(0x40)\n        /* \"#utility.yul\":1342:1367   */\n      dup3\n      dup2\n      mstore\n      sub(shl(0xa0, 0x01), 0x01)\n        /* \"Custom-Dex/Erc-20.sol\":765:804  Transfer(msg.sender, recipient, amount) */\n      dup5\n      and\n      swap1\n        /* \"Custom-Dex/Erc-20.sol\":774:784  msg.sender */\n      caller\n      swap1\n      0x00\n      dup1\n      mload\n      0x20\n      data_ada389e1fc24a8587c776340efb91b36e675792ab631816100d55df0b5cf3cbc\n      dup4\n      codecopy\n      dup2\n      mload\n      swap2\n      mstore\n        /* \"Custom-Dex/Erc-20.sol\":765:804  Transfer(msg.sender, recipient, amount) */\n      swap1\n        /* \"#utility.yul\":1330:1332   */\n      0x20\n        /* \"#utility.yul\":1315:1333   */\n      add\n        /* \"Custom-Dex/Erc-20.sol\":765:804  Transfer(msg.sender, recipient, amount) */\n      tag_69\n        /* \"#utility.yul\":1196:1373   */\n      jump\n        /* \"#utility.yul\":14:562   */\n    tag_18:\n        /* \"#utility.yul\":126:130   */\n      0x00\n        /* \"#utility.yul\":155:157   */\n      0x20\n        /* \"#utility.yul\":184:186   */\n      dup1\n        /* \"#utility.yul\":173:182   */\n      dup4\n        /* \"#utility.yul\":166:187   */\n      mstore\n        /* \"#utility.yul\":216:222   */\n      dup4\n        /* \"#utility.yul\":210:223   */\n      mload\n        /* \"#utility.yul\":259:265   */\n      dup1\n        /* \"#utility.yul\":254:256   */\n      dup3\n        /* \"#utility.yul\":243:252   */\n      dup6\n        /* \"#utility.yul\":239:257   */\n      add\n        /* \"#utility.yul\":232:266   */\n      mstore\n        /* \"#utility.yul\":284:285   */\n      0x00\n        /* \"#utility.yul\":294:434   */\n    tag_98:\n        /* \"#utility.yul\":308:314   */\n      dup2\n        /* \"#utility.yul\":305:306   */\n      dup2\n        /* \"#utility.yul\":302:315   */\n      lt\n        /* \"#utility.yul\":294:434   */\n      iszero\n      tag_100\n      jumpi\n        /* \"#utility.yul\":403:417   */\n      dup6\n      dup2\n      add\n        /* \"#utility.yul\":399:422   */\n      dup4\n      add\n        /* \"#utility.yul\":393:423   */\n      mload\n        /* \"#utility.yul\":369:386   */\n      dup6\n      dup3\n      add\n        /* \"#utility.yul\":388:390   */\n      0x40\n        /* \"#utility.yul\":365:391   */\n      add\n        /* \"#utility.yul\":358:424   */\n      mstore\n        /* \"#utility.yul\":323:333   */\n      dup3\n      add\n        /* \"#utility.yul\":294:434   */\n      jump(tag_98)\n    tag_100:\n        /* \"#utility.yul\":298:301   */\n      pop\n        /* \"#utility.yul\":483:484   */\n      0x00\n        /* \"#utility.yul\":478:480   */\n      0x40\n        /* \"#utility.yul\":469:475   */\n      dup3\n        /* \"#utility.yul\":458:467   */\n      dup7\n        /* \"#utility.yul\":454:476   */\n      add\n        /* \"#utility.yul\":450:481   */\n      add\n        /* \"#utility.yul\":443:485   */\n      mstore\n        /* \"#utility.yul\":553:555   */\n      0x40\n        /* \"#utility.yul\":546:548   */\n      0x1f\n        /* \"#utility.yul\":542:549   */\n      not\n        /* \"#utility.yul\":537:539   */\n      0x1f\n        /* \"#utility.yul\":529:535   */\n      dup4\n        /* \"#utility.yul\":525:540   */\n      add\n        /* \"#utility.yul\":521:550   */\n      and\n        /* \"#utility.yul\":510:519   */\n      dup6\n        /* \"#utility.yul\":506:551   */\n      add\n        /* \"#utility.yul\":502:556   */\n      add\n        /* \"#utility.yul\":494:556   */\n      swap3\n      pop\n      pop\n      pop\n        /* \"#utility.yul\":14:562   */\n      swap3\n      swap2\n      pop\n      pop\n      jump\t// out\n        /* \"#utility.yul\":567:740   */\n    tag_94:\n        /* \"#utility.yul\":635:655   */\n      dup1\n      calldataload\n      sub(shl(0xa0, 0x01), 0x01)\n        /* \"#utility.yul\":684:715   */\n      dup2\n      and\n        /* \"#utility.yul\":674:716   */\n      dup2\n      eq\n        /* \"#utility.yul\":664:734   */\n      tag_102\n      jumpi\n        /* \"#utility.yul\":730:731   */\n      0x00\n        /* \"#utility.yul\":727:728   */\n      dup1\n        /* \"#utility.yul\":720:732   */\n      revert\n        /* \"#utility.yul\":664:734   */\n    tag_102:\n        /* \"#utility.yul\":567:740   */\n      swap2\n      swap1\n      pop\n      jump\t// out\n        /* \"#utility.yul\":745:999   */\n    tag_21:\n        /* \"#utility.yul\":813:819   */\n      0x00\n        /* \"#utility.yul\":821:827   */\n      dup1\n        /* \"#utility.yul\":874:876   */\n      0x40\n        /* \"#utility.yul\":862:871   */\n      dup4\n        /* \"#utility.yul\":853:860   */\n      dup6\n        /* \"#utility.yul\":849:872   */\n      sub\n        /* \"#utility.yul\":845:877   */\n      slt\n        /* \"#utility.yul\":842:894   */\n      iszero\n      tag_104\n      jumpi\n        /* \"#utility.yul\":890:891   */\n      0x00\n        /* \"#utility.yul\":887:888   */\n      dup1\n        /* \"#utility.yul\":880:892   */\n      revert\n        /* \"#utility.yul\":842:894   */\n    tag_104:\n        /* \"#utility.yul\":913:942   */\n      tag_105\n        /* \"#utility.yul\":932:941   */\n      dup4\n        /* \"#utility.yul\":913:942   */\n      tag_94\n      jump\t// in\n    tag_105:\n        /* \"#utility.yul\":903:942   */\n      swap5\n        /* \"#utility.yul\":989:991   */\n      0x20\n        /* \"#utility.yul\":974:992   */\n      swap4\n      swap1\n      swap4\n      add\n        /* \"#utility.yul\":961:993   */\n      calldataload\n      swap4\n      pop\n      pop\n      pop\n        /* \"#utility.yul\":745:999   */\n      jump\t// out\n        /* \"#utility.yul\":1378:1706   */\n    tag_31:\n        /* \"#utility.yul\":1455:1461   */\n      0x00\n        /* \"#utility.yul\":1463:1469   */\n      dup1\n        /* \"#utility.yul\":1471:1477   */\n      0x00\n        /* \"#utility.yul\":1524:1526   */\n      0x60\n        /* \"#utility.yul\":1512:1521   */\n      dup5\n        /* \"#utility.yul\":1503:1510   */\n      dup7\n        /* \"#utility.yul\":1499:1522   */\n      sub\n        /* \"#utility.yul\":1495:1527   */\n      slt\n        /* \"#utility.yul\":1492:1544   */\n      iszero\n      tag_109\n      jumpi\n        /* \"#utility.yul\":1540:1541   */\n      0x00\n        /* \"#utility.yul\":1537:1538   */\n      dup1\n        /* \"#utility.yul\":1530:1542   */\n      revert\n        /* \"#utility.yul\":1492:1544   */\n    tag_109:\n        /* \"#utility.yul\":1563:1592   */\n      tag_110\n        /* \"#utility.yul\":1582:1591   */\n      dup5\n        /* \"#utility.yul\":1563:1592   */\n      tag_94\n      jump\t// in\n    tag_110:\n        /* \"#utility.yul\":1553:1592   */\n      swap3\n      pop\n        /* \"#utility.yul\":1611:1649   */\n      tag_111\n        /* \"#utility.yul\":1645:1647   */\n      0x20\n        /* \"#utility.yul\":1634:1643   */\n      dup6\n        /* \"#utility.yul\":1630:1648   */\n      add\n        /* \"#utility.yul\":1611:1649   */\n      tag_94\n      jump\t// in\n    tag_111:\n        /* \"#utility.yul\":1601:1649   */\n      swap2\n      pop\n        /* \"#utility.yul\":1696:1698   */\n      0x40\n        /* \"#utility.yul\":1685:1694   */\n      dup5\n        /* \"#utility.yul\":1681:1699   */\n      add\n        /* \"#utility.yul\":1668:1700   */\n      calldataload\n        /* \"#utility.yul\":1658:1700   */\n      swap1\n      pop\n        /* \"#utility.yul\":1378:1706   */\n      swap3\n      pop\n      swap3\n      pop\n      swap3\n      jump\t// out\n        /* \"#utility.yul\":1900:2080   */\n    tag_40:\n        /* \"#utility.yul\":1959:1965   */\n      0x00\n        /* \"#utility.yul\":2012:2014   */\n      0x20\n        /* \"#utility.yul\":2000:2009   */\n      dup3\n        /* \"#utility.yul\":1991:1998   */\n      dup5\n        /* \"#utility.yul\":1987:2010   */\n      sub\n        /* \"#utility.yul\":1983:2015   */\n      slt\n        /* \"#utility.yul\":1980:2032   */\n      iszero\n      tag_114\n      jumpi\n        /* \"#utility.yul\":2028:2029   */\n      0x00\n        /* \"#utility.yul\":2025:2026   */\n      dup1\n        /* \"#utility.yul\":2018:2030   */\n      revert\n        /* \"#utility.yul\":1980:2032   */\n    tag_114:\n      pop\n        /* \"#utility.yul\":2051:2074   */\n      calldataload\n      swap2\n        /* \"#utility.yul\":1900:2080   */\n      swap1\n      pop\n      jump\t// out\n        /* \"#utility.yul\":2085:2271   */\n    tag_44:\n        /* \"#utility.yul\":2144:2150   */\n      0x00\n        /* \"#utility.yul\":2197:2199   */\n      0x20\n        /* \"#utility.yul\":2185:2194   */\n      dup3\n        /* \"#utility.yul\":2176:2183   */\n      dup5\n        /* \"#utility.yul\":2172:2195   */\n      sub\n        /* \"#utility.yul\":2168:2200   */\n      slt\n        /* \"#utility.yul\":2165:2217   */\n      iszero\n      tag_116\n      jumpi\n        /* \"#utility.yul\":2213:2214   */\n      0x00\n        /* \"#utility.yul\":2210:2211   */\n      dup1\n        /* \"#utility.yul\":2203:2215   */\n      revert\n        /* \"#utility.yul\":2165:2217   */\n    tag_116:\n        /* \"#utility.yul\":2236:2265   */\n      tag_117\n        /* \"#utility.yul\":2255:2264   */\n      dup3\n        /* \"#utility.yul\":2236:2265   */\n      tag_94\n      jump\t// in\n    tag_117:\n        /* \"#utility.yul\":2226:2265   */\n      swap4\n        /* \"#utility.yul\":2085:2271   */\n      swap3\n      pop\n      pop\n      pop\n      jump\t// out\n        /* \"#utility.yul\":2276:2536   */\n    tag_59:\n        /* \"#utility.yul\":2344:2350   */\n      0x00\n        /* \"#utility.yul\":2352:2358   */\n      dup1\n        /* \"#utility.yul\":2405:2407   */\n      0x40\n        /* \"#utility.yul\":2393:2402   */\n      dup4\n        /* \"#utility.yul\":2384:2391   */\n      dup6\n        /* \"#utility.yul\":2380:2403   */\n      sub\n        /* \"#utility.yul\":2376:2408   */\n      slt\n        /* \"#utility.yul\":2373:2425   */\n      iszero\n      tag_119\n      jumpi\n        /* \"#utility.yul\":2421:2422   */\n      0x00\n        /* \"#utility.yul\":2418:2419   */\n      dup1\n        /* \"#utility.yul\":2411:2423   */\n      revert\n        /* \"#utility.yul\":2373:2425   */\n    tag_119:\n        /* \"#utility.yul\":2444:2473   */\n      tag_120\n        /* \"#utility.yul\":2463:2472   */\n      dup4\n        /* \"#utility.yul\":2444:2473   */\n      tag_94\n      jump\t// in\n    tag_120:\n        /* \"#utility.yul\":2434:2473   */\n      swap2\n      pop\n        /* \"#utility.yul\":2492:2530   */\n      tag_121\n        /* \"#utility.yul\":2526:2528   */\n      0x20\n        /* \"#utility.yul\":2515:2524   */\n      dup5\n        /* \"#utility.yul\":2511:2529   */\n      add\n        /* \"#utility.yul\":2492:2530   */\n      tag_94\n      jump\t// in\n    tag_121:\n        /* \"#utility.yul\":2482:2530   */\n      swap1\n      pop\n        /* \"#utility.yul\":2276:2536   */\n      swap3\n      pop\n      swap3\n      swap1\n      pop\n      jump\t// out\n        /* \"#utility.yul\":2541:2921   */\n    tag_63:\n        /* \"#utility.yul\":2620:2621   */\n      0x01\n        /* \"#utility.yul\":2616:2628   */\n      dup2\n      dup2\n      shr\n      swap1\n        /* \"#utility.yul\":2663:2675   */\n      dup3\n      and\n      dup1\n        /* \"#utility.yul\":2684:2745   */\n      tag_123\n      jumpi\n        /* \"#utility.yul\":2738:2742   */\n      0x7f\n        /* \"#utility.yul\":2730:2736   */\n      dup3\n        /* \"#utility.yul\":2726:2743   */\n      and\n        /* \"#utility.yul\":2716:2743   */\n      swap2\n      pop\n        /* \"#utility.yul\":2684:2745   */\n    tag_123:\n        /* \"#utility.yul\":2791:2793   */\n      0x20\n        /* \"#utility.yul\":2783:2789   */\n      dup3\n        /* \"#utility.yul\":2780:2794   */\n      lt\n        /* \"#utility.yul\":2760:2778   */\n      dup2\n        /* \"#utility.yul\":2757:2795   */\n      sub\n        /* \"#utility.yul\":2754:2915   */\n      tag_124\n      jumpi\n        /* \"#utility.yul\":2837:2847   */\n      0x4e487b71\n        /* \"#utility.yul\":2832:2835   */\n      0xe0\n        /* \"#utility.yul\":2828:2848   */\n      shl\n        /* \"#utility.yul\":2825:2826   */\n      0x00\n        /* \"#utility.yul\":2818:2849   */\n      mstore\n        /* \"#utility.yul\":2872:2876   */\n      0x22\n        /* \"#utility.yul\":2869:2870   */\n      0x04\n        /* \"#utility.yul\":2862:2877   */\n      mstore\n        /* \"#utility.yul\":2900:2904   */\n      0x24\n        /* \"#utility.yul\":2897:2898   */\n      0x00\n        /* \"#utility.yul\":2890:2905   */\n      revert\n        /* \"#utility.yul\":2754:2915   */\n    tag_124:\n      pop\n        /* \"#utility.yul\":2541:2921   */\n      swap2\n      swap1\n      pop\n      jump\t// out\n        /* \"#utility.yul\":2926:3053   */\n    tag_95:\n        /* \"#utility.yul\":2987:2997   */\n      0x4e487b71\n        /* \"#utility.yul\":2982:2985   */\n      0xe0\n        /* \"#utility.yul\":2978:2998   */\n      shl\n        /* \"#utility.yul\":2975:2976   */\n      0x00\n        /* \"#utility.yul\":2968:2999   */\n      mstore\n        /* \"#utility.yul\":3018:3022   */\n      0x11\n        /* \"#utility.yul\":3015:3016   */\n      0x04\n        /* \"#utility.yul\":3008:3023   */\n      mstore\n        /* \"#utility.yul\":3042:3046   */\n      0x24\n        /* \"#utility.yul\":3039:3040   */\n      0x00\n        /* \"#utility.yul\":3032:3047   */\n      revert\n        /* \"#utility.yul\":3058:3186   */\n    tag_72:\n        /* \"#utility.yul\":3125:3134   */\n      dup2\n      dup2\n      sub\n        /* \"#utility.yul\":3146:3157   */\n      dup2\n      dup2\n      gt\n        /* \"#utility.yul\":3143:3180   */\n      iszero\n      tag_68\n      jumpi\n        /* \"#utility.yul\":3160:3178   */\n      tag_68\n      tag_95\n      jump\t// in\n        /* \"#utility.yul\":3191:3316   */\n    tag_75:\n        /* \"#utility.yul\":3256:3265   */\n      dup1\n      dup3\n      add\n        /* \"#utility.yul\":3277:3287   */\n      dup1\n      dup3\n      gt\n        /* \"#utility.yul\":3274:3310   */\n      iszero\n      tag_68\n      jumpi\n        /* \"#utility.yul\":3290:3308   */\n      tag_68\n      tag_95\n      jump\t// in\n    stop\n    data_ada389e1fc24a8587c776340efb91b36e675792ab631816100d55df0b5cf3cbc ddf252ad1be2c89b69c2b068fc378daa952ba7f163c4a11628f55a4df523b3ef\n\n    auxdata: 0xa2646970667358221220302d9860284ffb5f44ea49291de56357816c80732e6b1fdb453c008694962dd664736f6c63430008140033\n}\n",
				"bytecode": {
					"linkReferences": {},
					"object": "60806040526002805460ff191660121790553480156200001e57600080fd5b5060405162000a0638038062000a06833981016040819052620000419162000130565b60006200004f848262000232565b5060016200005e838262000232565b5060035550620002fe9050565b634e487b7160e01b600052604160045260246000fd5b600082601f8301126200009357600080fd5b81516001600160401b0380821115620000b057620000b06200006b565b604051601f8301601f19908116603f01168101908282118183101715620000db57620000db6200006b565b81604052838152602092508683858801011115620000f857600080fd5b600091505b838210156200011c5785820183015181830184015290820190620000fd565b600093810190920192909252949350505050565b6000806000606084860312156200014657600080fd5b83516001600160401b03808211156200015e57600080fd5b6200016c8783880162000081565b945060208601519150808211156200018357600080fd5b50620001928682870162000081565b925050604084015190509250925092565b600181811c90821680620001b857607f821691505b602082108103620001d957634e487b7160e01b600052602260045260246000fd5b50919050565b601f8211156200022d57600081815260208120601f850160051c81016020861015620002085750805b601f850160051c820191505b81811015620002295782815560010162000214565b5050505b505050565b81516001600160401b038111156200024e576200024e6200006b565b62000266816200025f8454620001a3565b84620001df565b602080601f8311600181146200029e5760008415620002855750858301515b600019600386901b1c1916600185901b17855562000229565b600085815260208120601f198616915b82811015620002cf57888601518255948401946001909101908401620002ae565b5085821015620002ee5787850151600019600388901b60f8161c191681555b5050505050600190811b01905550565b6106f8806200030e6000396000f3fe608060405234801561001057600080fd5b50600436106100a95760003560e01c806342966c681161007157806342966c681461013857806370a082311461014d57806395d89b411461016d578063a0712d6814610175578063a9059cbb14610188578063dd62ed3e1461019b57600080fd5b806306fdde03146100ae578063095ea7b3146100cc57806318160ddd146100ef57806323b872dd14610106578063313ce56714610119575b600080fd5b6100b66101c6565b6040516100c391906104ee565b60405180910390f35b6100df6100da366004610558565b610254565b60405190151581526020016100c3565b6100f860035481565b6040519081526020016100c3565b6100df610114366004610582565b6102c1565b6002546101269060ff1681565b60405160ff90911681526020016100c3565b61014b6101463660046105be565b61039c565b005b6100f861015b3660046105d7565b60046020526000908152604090205481565b6100b6610403565b61014b6101833660046105be565b610410565b6100df610196366004610558565b610470565b6100f86101a93660046105f9565b600560209081526000928352604080842090915290825290205481565b600080546101d39061062c565b80601f01602080910402602001604051908101604052809291908181526020018280546101ff9061062c565b801561024c5780601f106102215761010080835404028352916020019161024c565b820191906000526020600020905b81548152906001019060200180831161022f57829003601f168201915b505050505081565b3360008181526005602090815260408083206001600160a01b038716808552925280832085905551919290917f8c5be1e5ebec7d5bd14f71427d1e84f3dd0314c0f7b2291e5b200ac8c7c3b925906102af9086815260200190565b60405180910390a35060015b92915050565b6001600160a01b03831660009081526005602090815260408083203384529091528120805483919083906102f690849061067c565b90915550506001600160a01b0384166000908152600460205260408120805484929061032390849061067c565b90915550506001600160a01b0383166000908152600460205260408120805484929061035090849061068f565b92505081905550826001600160a01b0316846001600160a01b03166000805160206106a38339815191528460405161038a91815260200190565b60405180910390a35060019392505050565b33600090815260046020526040812080548392906103bb90849061067c565b9250508190555080600360008282546103d4919061067c565b909155505060405181815260009033906000805160206106a3833981519152906020015b60405180910390a350565b600180546101d39061062c565b336000908152600460205260408120805483929061042f90849061068f565b925050819055508060036000828254610448919061068f565b909155505060405181815233906000906000805160206106a3833981519152906020016103f8565b3360009081526004602052604081208054839190839061049190849061067c565b90915550506001600160a01b038316600090815260046020526040812080548492906104be90849061068f565b90915550506040518281526001600160a01b0384169033906000805160206106a3833981519152906020016102af565b600060208083528351808285015260005b8181101561051b578581018301518582016040015282016104ff565b506000604082860101526040601f19601f8301168501019250505092915050565b80356001600160a01b038116811461055357600080fd5b919050565b6000806040838503121561056b57600080fd5b6105748361053c565b946020939093013593505050565b60008060006060848603121561059757600080fd5b6105a08461053c565b92506105ae6020850161053c565b9150604084013590509250925092565b6000602082840312156105d057600080fd5b5035919050565b6000602082840312156105e957600080fd5b6105f28261053c565b9392505050565b6000806040838503121561060c57600080fd5b6106158361053c565b91506106236020840161053c565b90509250929050565b600181811c9082168061064057607f821691505b60208210810361066057634e487b7160e01b600052602260045260246000fd5b50919050565b634e487b7160e01b600052601160045260246000fd5b818103818111156102bb576102bb610666565b808201808211156102bb576102bb61066656feddf252ad1be2c89b69c2b068fc378daa952ba7f163c4a11628f55a4df523b3efa2646970667358221220302d9860284ffb5f44ea49291de56357816c80732e6b1fdb453c008694962dd664736f6c63430008140033",
					"opcodes": "PUSH1 0x80 PUSH1 0x40 MSTORE PUSH1 0x2 DUP1 SLOAD PUSH1 0xFF NOT AND PUSH1 0x12 OR SWAP1 SSTORE CALLVALUE DUP1 ISZERO PUSH3 0x1E JUMPI PUSH1 0x0 DUP1 REVERT JUMPDEST POP PUSH1 0x40 MLOAD PUSH3 0xA06 CODESIZE SUB DUP1 PUSH3 0xA06 DUP4 CODECOPY DUP2 ADD PUSH1 0x40 DUP2 SWAP1 MSTORE PUSH3 0x41 SWAP2 PUSH3 0x130 JUMP JUMPDEST PUSH1 0x0 PUSH3 0x4F DUP5 DUP3 PUSH3 0x232 JUMP JUMPDEST POP PUSH1 0x1 PUSH3 0x5E DUP4 DUP3 PUSH3 0x232 JUMP JUMPDEST POP PUSH1 0x3 SSTORE POP PUSH3 0x2FE SWAP1 POP JUMP JUMPDEST PUSH4 0x4E487B71 PUSH1 0xE0 SHL PUSH1 0x0 MSTORE PUSH1 0x41 PUSH1 0x4 MSTORE PUSH1 0x24 PUSH1 0x0 REVERT JUMPDEST PUSH1 0x0 DUP3 PUSH1 0x1F DUP4 ADD SLT PUSH3 0x93 JUMPI PUSH1 0x0 DUP1 REVERT JUMPDEST DUP2 MLOAD PUSH1 0x1 PUSH1 0x1 PUSH1 0x40 SHL SUB DUP1 DUP3 GT ISZERO PUSH3 0xB0 JUMPI PUSH3 0xB0 PUSH3 0x6B JUMP JUMPDEST PUSH1 0x40 MLOAD PUSH1 0x1F DUP4 ADD PUSH1 0x1F NOT SWAP1 DUP2 AND PUSH1 0x3F ADD AND DUP2 ADD SWAP1 DUP3 DUP3 GT DUP2 DUP4 LT OR ISZERO PUSH3 0xDB JUMPI PUSH3 0xDB PUSH3 0x6B JUMP JUMPDEST DUP2 PUSH1 0x40 MSTORE DUP4 DUP2 MSTORE PUSH1 0x20 SWAP3 POP DUP7 DUP4 DUP6 DUP9 ADD ADD GT ISZERO PUSH3 0xF8 JUMPI PUSH1 0x0 DUP1 REVERT JUMPDEST PUSH1 0x0 SWAP2 POP JUMPDEST DUP4 DUP3 LT ISZERO PUSH3 0x11C JUMPI DUP6 DUP3 ADD DUP4 ADD MLOAD DUP2 DUP4 ADD DUP5 ADD MSTORE SWAP1 DUP3 ADD SWAP1 PUSH3 0xFD JUMP JUMPDEST PUSH1 0x0 SWAP4 DUP2 ADD SWAP1 SWAP3 ADD SWAP3 SWAP1 SWAP3 MSTORE SWAP5 SWAP4 POP POP POP POP JUMP JUMPDEST PUSH1 0x0 DUP1 PUSH1 0x0 PUSH1 0x60 DUP5 DUP7 SUB SLT ISZERO PUSH3 0x146 JUMPI PUSH1 0x0 DUP1 REVERT JUMPDEST DUP4 MLOAD PUSH1 0x1 PUSH1 0x1 PUSH1 0x40 SHL SUB DUP1 DUP3 GT ISZERO PUSH3 0x15E JUMPI PUSH1 0x0 DUP1 REVERT JUMPDEST PUSH3 0x16C DUP8 DUP4 DUP9 ADD PUSH3 0x81 JUMP JUMPDEST SWAP5 POP PUSH1 0x20 DUP7 ADD MLOAD SWAP2 POP DUP1 DUP3 GT ISZERO PUSH3 0x183 JUMPI PUSH1 0x0 DUP1 REVERT JUMPDEST POP PUSH3 0x192 DUP7 DUP3 DUP8 ADD PUSH3 0x81 JUMP JUMPDEST SWAP3 POP POP PUSH1 0x40 DUP5 ADD MLOAD SWAP1 POP SWAP3 POP SWAP3 POP SWAP3 JUMP JUMPDEST PUSH1 0x1 DUP2 DUP2 SHR SWAP1 DUP3 AND DUP1 PUSH3 0x1B8 JUMPI PUSH1 0x7F DUP3 AND SWAP2 POP JUMPDEST PUSH1 0x20 DUP3 LT DUP2 SUB PUSH3 0x1D9 JUMPI PUSH4 0x4E487B71 PUSH1 0xE0 SHL PUSH1 0x0 MSTORE PUSH1 0x22 PUSH1 0x4 MSTORE PUSH1 0x24 PUSH1 0x0 REVERT JUMPDEST POP SWAP2 SWAP1 POP JUMP JUMPDEST PUSH1 0x1F DUP3 GT ISZERO PUSH3 0x22D JUMPI PUSH1 0x0 DUP2 DUP2 MSTORE PUSH1 0x20 DUP2 KECCAK256 PUSH1 0x1F DUP6 ADD PUSH1 0x5 SHR DUP2 ADD PUSH1 0x20 DUP7 LT ISZERO PUSH3 0x208 JUMPI POP DUP1 JUMPDEST PUSH1 0x1F DUP6 ADD PUSH1 0x5 SHR DUP3 ADD SWAP2 POP JUMPDEST DUP2 DUP2 LT ISZERO PUSH3 0x229 JUMPI DUP3 DUP2 SSTORE PUSH1 0x1 ADD PUSH3 0x214 JUMP JUMPDEST POP POP POP JUMPDEST POP POP POP JUMP JUMPDEST DUP2 MLOAD PUSH1 0x1 PUSH1 0x1 PUSH1 0x40 SHL SUB DUP2 GT ISZERO PUSH3 0x24E JUMPI PUSH3 0x24E PUSH3 0x6B JUMP JUMPDEST PUSH3 0x266 DUP2 PUSH3 0x25F DUP5 SLOAD PUSH3 0x1A3 JUMP JUMPDEST DUP5 PUSH3 0x1DF JUMP JUMPDEST PUSH1 0x20 DUP1 PUSH1 0x1F DUP4 GT PUSH1 0x1 DUP2 EQ PUSH3 0x29E JUMPI PUSH1 0x0 DUP5 ISZERO PUSH3 0x285 JUMPI POP DUP6 DUP4 ADD MLOAD JUMPDEST PUSH1 0x0 NOT PUSH1 0x3 DUP7 SWAP1 SHL SHR NOT AND PUSH1 0x1 DUP6 SWAP1 SHL OR DUP6 SSTORE PUSH3 0x229 JUMP JUMPDEST PUSH1 0x0 DUP6 DUP2 MSTORE PUSH1 0x20 DUP2 KECCAK256 PUSH1 0x1F NOT DUP7 AND SWAP2 JUMPDEST DUP3 DUP2 LT ISZERO PUSH3 0x2CF JUMPI DUP9 DUP7 ADD MLOAD DUP3 SSTORE SWAP5 DUP5 ADD SWAP5 PUSH1 0x1 SWAP1 SWAP2 ADD SWAP1 DUP5 ADD PUSH3 0x2AE JUMP JUMPDEST POP DUP6 DUP3 LT ISZERO PUSH3 0x2EE JUMPI DUP8 DUP6 ADD MLOAD PUSH1 0x0 NOT PUSH1 0x3 DUP9 SWAP1 SHL PUSH1 0xF8 AND SHR NOT AND DUP2 SSTORE JUMPDEST POP POP POP POP POP PUSH1 0x1 SWAP1 DUP2 SHL ADD SWAP1 SSTORE POP JUMP JUMPDEST PUSH2 0x6F8 DUP1 PUSH3 0x30E PUSH1 0x0 CODECOPY PUSH1 0x0 RETURN INVALID PUSH1 0x80 PUSH1 0x40 MSTORE CALLVALUE DUP1 ISZERO PUSH2 0x10 JUMPI PUSH1 0x0 DUP1 REVERT JUMPDEST POP PUSH1 0x4 CALLDATASIZE LT PUSH2 0xA9 JUMPI PUSH1 0x0 CALLDATALOAD PUSH1 0xE0 SHR DUP1 PUSH4 0x42966C68 GT PUSH2 0x71 JUMPI DUP1 PUSH4 0x42966C68 EQ PUSH2 0x138 JUMPI DUP1 PUSH4 0x70A08231 EQ PUSH2 0x14D JUMPI DUP1 PUSH4 0x95D89B41 EQ PUSH2 0x16D JUMPI DUP1 PUSH4 0xA0712D68 EQ PUSH2 0x175 JUMPI DUP1 PUSH4 0xA9059CBB EQ PUSH2 0x188 JUMPI DUP1 PUSH4 0xDD62ED3E EQ PUSH2 0x19B JUMPI PUSH1 0x0 DUP1 REVERT JUMPDEST DUP1 PUSH4 0x6FDDE03 EQ PUSH2 0xAE JUMPI DUP1 PUSH4 0x95EA7B3 EQ PUSH2 0xCC JUMPI DUP1 PUSH4 0x18160DDD EQ PUSH2 0xEF JUMPI DUP1 PUSH4 0x23B872DD EQ PUSH2 0x106 JUMPI DUP1 PUSH4 0x313CE567 EQ PUSH2 0x119 JUMPI JUMPDEST PUSH1 0x0 DUP1 REVERT JUMPDEST PUSH2 0xB6 PUSH2 0x1C6 JUMP JUMPDEST PUSH1 0x40 MLOAD PUSH2 0xC3 SWAP2 SWAP1 PUSH2 0x4EE JUMP JUMPDEST PUSH1 0x40 MLOAD DUP1 SWAP2 SUB SWAP1 RETURN JUMPDEST PUSH2 0xDF PUSH2 0xDA CALLDATASIZE PUSH1 0x4 PUSH2 0x558 JUMP JUMPDEST PUSH2 0x254 JUMP JUMPDEST PUSH1 0x40 MLOAD SWAP1 ISZERO ISZERO DUP2 MSTORE PUSH1 0x20 ADD PUSH2 0xC3 JUMP JUMPDEST PUSH2 0xF8 PUSH1 0x3 SLOAD DUP2 JUMP JUMPDEST PUSH1 0x40 MLOAD SWAP1 DUP2 MSTORE PUSH1 0x20 ADD PUSH2 0xC3 JUMP JUMPDEST PUSH2 0xDF PUSH2 0x114 CALLDATASIZE PUSH1 0x4 PUSH2 0x582 JUMP JUMPDEST PUSH2 0x2C1 JUMP JUMPDEST PUSH1 0x2 SLOAD PUSH2 0x126 SWAP1 PUSH1 0xFF AND DUP2 JUMP JUMPDEST PUSH1 0x40 MLOAD PUSH1 0xFF SWAP1 SWAP2 AND DUP2 MSTORE PUSH1 0x20 ADD PUSH2 0xC3 JUMP JUMPDEST PUSH2 0x14B PUSH2 0x146 CALLDATASIZE PUSH1 0x4 PUSH2 0x5BE JUMP JUMPDEST PUSH2 0x39C JUMP JUMPDEST STOP JUMPDEST PUSH2 0xF8 PUSH2 0x15B CALLDATASIZE PUSH1 0x4 PUSH2 0x5D7 JUMP JUMPDEST PUSH1 0x4 PUSH1 0x20 MSTORE PUSH1 0x0 SWAP1 DUP2 MSTORE PUSH1 0x40 SWAP1 KECCAK256 SLOAD DUP2 JUMP JUMPDEST PUSH2 0xB6 PUSH2 0x403 JUMP JUMPDEST PUSH2 0x14B PUSH2 0x183 CALLDATASIZE PUSH1 0x4 PUSH2 0x5BE JUMP JUMPDEST PUSH2 0x410 JUMP JUMPDEST PUSH2 0xDF PUSH2 0x196 CALLDATASIZE PUSH1 0x4 PUSH2 0x558 JUMP JUMPDEST PUSH2 0x470 JUMP JUMPDEST PUSH2 0xF8 PUSH2 0x1A9 CALLDATASIZE PUSH1 0x4 PUSH2 0x5F9 JUMP JUMPDEST PUSH1 0x5 PUSH1 0x20 SWAP1 DUP2 MSTORE PUSH1 0x0 SWAP3 DUP4 MSTORE PUSH1 0x40 DUP1 DUP5 KECCAK256 SWAP1 SWAP2 MSTORE SWAP1 DUP3 MSTORE SWAP1 KECCAK256 SLOAD DUP2 JUMP JUMPDEST PUSH1 0x0 DUP1 SLOAD PUSH2 0x1D3 SWAP1 PUSH2 0x62C JUMP JUMPDEST DUP1 PUSH1 0x1F ADD PUSH1 0x20 DUP1 SWAP2 DIV MUL PUSH1 0x20 ADD PUSH1 0x40 MLOAD SWAP1 DUP2 ADD PUSH1 0x40 MSTORE DUP1 SWAP3 SWAP2 SWAP1 DUP2 DUP2 MSTORE PUSH1 0x20 ADD DUP3 DUP1 SLOAD PUSH2 0x1FF SWAP1 PUSH2 0x62C JUMP JUMPDEST DUP1 ISZERO PUSH2 0x24C JUMPI DUP1 PUSH1 0x1F LT PUSH2 0x221 JUMPI PUSH2 0x100 DUP1 DUP4 SLOAD DIV MUL DUP4 MSTORE SWAP2 PUSH1 0x20 ADD SWAP2 PUSH2 0x24C JUMP JUMPDEST DUP3 ADD SWAP2 SWAP1 PUSH1 0x0 MSTORE PUSH1 0x20 PUSH1 0x0 KECCAK256 SWAP1 JUMPDEST DUP2 SLOAD DUP2 MSTORE SWAP1 PUSH1 0x1 ADD SWAP1 PUSH1 0x20 ADD DUP1 DUP4 GT PUSH2 0x22F JUMPI DUP3 SWAP1 SUB PUSH1 0x1F AND DUP3 ADD SWAP2 JUMPDEST POP POP POP POP POP DUP2 JUMP JUMPDEST CALLER PUSH1 0x0 DUP2 DUP2 MSTORE PUSH1 0x5 PUSH1 0x20 SWAP1 DUP2 MSTORE PUSH1 0x40 DUP1 DUP4 KECCAK256 PUSH1 0x1 PUSH1 0x1 PUSH1 0xA0 SHL SUB DUP8 AND DUP1 DUP6 MSTORE SWAP3 MSTORE DUP1 DUP4 KECCAK256 DUP6 SWAP1 SSTORE MLOAD SWAP2 SWAP3 SWAP1 SWAP2 PUSH32 0x8C5BE1E5EBEC7D5BD14F71427D1E84F3DD0314C0F7B2291E5B200AC8C7C3B925 SWAP1 PUSH2 0x2AF SWAP1 DUP7 DUP2 MSTORE PUSH1 0x20 ADD SWAP1 JUMP JUMPDEST PUSH1 0x40 MLOAD DUP1 SWAP2 SUB SWAP1 LOG3 POP PUSH1 0x1 JUMPDEST SWAP3 SWAP2 POP POP JUMP JUMPDEST PUSH1 0x1 PUSH1 0x1 PUSH1 0xA0 SHL SUB DUP4 AND PUSH1 0x0 SWAP1 DUP2 MSTORE PUSH1 0x5 PUSH1 0x20 SWAP1 DUP2 MSTORE PUSH1 0x40 DUP1 DUP4 KECCAK256 CALLER DUP5 MSTORE SWAP1 SWAP2 MSTORE DUP2 KECCAK256 DUP1 SLOAD DUP4 SWAP2 SWAP1 DUP4 SWAP1 PUSH2 0x2F6 SWAP1 DUP5 SWAP1 PUSH2 0x67C JUMP JUMPDEST SWAP1 SWAP2 SSTORE POP POP PUSH1 0x1 PUSH1 0x1 PUSH1 0xA0 SHL SUB DUP5 AND PUSH1 0x0 SWAP1 DUP2 MSTORE PUSH1 0x4 PUSH1 0x20 MSTORE PUSH1 0x40 DUP2 KECCAK256 DUP1 SLOAD DUP5 SWAP3 SWAP1 PUSH2 0x323 SWAP1 DUP5 SWAP1 PUSH2 0x67C JUMP JUMPDEST SWAP1 SWAP2 SSTORE POP POP PUSH1 0x1 PUSH1 0x1 PUSH1 0xA0 SHL SUB DUP4 AND PUSH1 0x0 SWAP1 DUP2 MSTORE PUSH1 0x4 PUSH1 0x20 MSTORE PUSH1 0x40 DUP2 KECCAK256 DUP1 SLOAD DUP5 SWAP3 SWAP1 PUSH2 0x350 SWAP1 DUP5 SWAP1 PUSH2 0x68F JUMP JUMPDEST SWAP3 POP POP DUP2 SWAP1 SSTORE POP DUP3 PUSH1 0x1 PUSH1 0x1 PUSH1 0xA0 SHL SUB AND DUP5 PUSH1 0x1 PUSH1 0x1 PUSH1 0xA0 SHL SUB AND PUSH1 0x0 DUP1 MLOAD PUSH1 0x20 PUSH2 0x6A3 DUP4 CODECOPY DUP2 MLOAD SWAP2 MSTORE DUP5 PUSH1 0x40 MLOAD PUSH2 0x38A SWAP2 DUP2 MSTORE PUSH1 0x20 ADD SWAP1 JUMP JUMPDEST PUSH1 0x40 MLOAD DUP1 SWAP2 SUB SWAP1 LOG3 POP PUSH1 0x1 SWAP4 SWAP3 POP POP POP JUMP JUMPDEST CALLER PUSH1 0x0 SWAP1 DUP2 MSTORE PUSH1 0x4 PUSH1 0x20 MSTORE PUSH1 0x40 DUP2 KECCAK256 DUP1 SLOAD DUP4 SWAP3 SWAP1 PUSH2 0x3BB SWAP1 DUP5 SWAP1 PUSH2 0x67C JUMP JUMPDEST SWAP3 POP POP DUP2 SWAP1 SSTORE POP DUP1 PUSH1 0x3 PUSH1 0x0 DUP3 DUP3 SLOAD PUSH2 0x3D4 SWAP2 SWAP1 PUSH2 0x67C JUMP JUMPDEST SWAP1 SWAP2 SSTORE POP POP PUSH1 0x40 MLOAD DUP2 DUP2 MSTORE PUSH1 0x0 SWAP1 CALLER SWAP1 PUSH1 0x0 DUP1 MLOAD PUSH1 0x20 PUSH2 0x6A3 DUP4 CODECOPY DUP2 MLOAD SWAP2 MSTORE SWAP1 PUSH1 0x20 ADD JUMPDEST PUSH1 0x40 MLOAD DUP1 SWAP2 SUB SWAP1 LOG3 POP JUMP JUMPDEST PUSH1 0x1 DUP1 SLOAD PUSH2 0x1D3 SWAP1 PUSH2 0x62C JUMP JUMPDEST CALLER PUSH1 0x0 SWAP1 DUP2 MSTORE PUSH1 0x4 PUSH1 0x20 MSTORE PUSH1 0x40 DUP2 KECCAK256 DUP1 SLOAD DUP4 SWAP3 SWAP1 PUSH2 0x42F SWAP1 DUP5 SWAP1 PUSH2 0x68F JUMP JUMPDEST SWAP3 POP POP DUP2 SWAP1 SSTORE POP DUP1 PUSH1 0x3 PUSH1 0x0 DUP3 DUP3 SLOAD PUSH2 0x448 SWAP2 SWAP1 PUSH2 0x68F JUMP JUMPDEST SWAP1 SWAP2 SSTORE POP POP PUSH1 0x40 MLOAD DUP2 DUP2 MSTORE CALLER SWAP1 PUSH1 0x0 SWAP1 PUSH1 0x0 DUP1 MLOAD PUSH1 0x20 PUSH2 0x6A3 DUP4 CODECOPY DUP2 MLOAD SWAP2 MSTORE SWAP1 PUSH1 0x20 ADD PUSH2 0x3F8 JUMP JUMPDEST CALLER PUSH1 0x0 SWAP1 DUP2 MSTORE PUSH1 0x4 PUSH1 0x20 MSTORE PUSH1 0x40 DUP2 KECCAK256 DUP1 SLOAD DUP4 SWAP2 SWAP1 DUP4 SWAP1 PUSH2 0x491 SWAP1 DUP5 SWAP1 PUSH2 0x67C JUMP JUMPDEST SWAP1 SWAP2 SSTORE POP POP PUSH1 0x1 PUSH1 0x1 PUSH1 0xA0 SHL SUB DUP4 AND PUSH1 0x0 SWAP1 DUP2 MSTORE PUSH1 0x4 PUSH1 0x20 MSTORE PUSH1 0x40 DUP2 KECCAK256 DUP1 SLOAD DUP5 SWAP3 SWAP1 PUSH2 0x4BE SWAP1 DUP5 SWAP1 PUSH2 0x68F JUMP JUMPDEST SWAP1 SWAP2 SSTORE POP POP PUSH1 0x40 MLOAD DUP3 DUP2 MSTORE PUSH1 0x1 PUSH1 0x1 PUSH1 0xA0 SHL SUB DUP5 AND SWAP1 CALLER SWAP1 PUSH1 0x0 DUP1 MLOAD PUSH1 0x20 PUSH2 0x6A3 DUP4 CODECOPY DUP2 MLOAD SWAP2 MSTORE SWAP1 PUSH1 0x20 ADD PUSH2 0x2AF JUMP JUMPDEST PUSH1 0x0 PUSH1 0x20 DUP1 DUP4 MSTORE DUP4 MLOAD DUP1 DUP3 DUP6 ADD MSTORE PUSH1 0x0 JUMPDEST DUP2 DUP2 LT ISZERO PUSH2 0x51B JUMPI DUP6 DUP2 ADD DUP4 ADD MLOAD DUP6 DUP3 ADD PUSH1 0x40 ADD MSTORE DUP3 ADD PUSH2 0x4FF JUMP JUMPDEST POP PUSH1 0x0 PUSH1 0x40 DUP3 DUP7 ADD ADD MSTORE PUSH1 0x40 PUSH1 0x1F NOT PUSH1 0x1F DUP4 ADD AND DUP6 ADD ADD SWAP3 POP POP POP SWAP3 SWAP2 POP POP JUMP JUMPDEST DUP1 CALLDATALOAD PUSH1 0x1 PUSH1 0x1 PUSH1 0xA0 SHL SUB DUP2 AND DUP2 EQ PUSH2 0x553 JUMPI PUSH1 0x0 DUP1 REVERT JUMPDEST SWAP2 SWAP1 POP JUMP JUMPDEST PUSH1 0x0 DUP1 PUSH1 0x40 DUP4 DUP6 SUB SLT ISZERO PUSH2 0x56B JUMPI PUSH1 0x0 DUP1 REVERT JUMPDEST PUSH2 0x574 DUP4 PUSH2 0x53C JUMP JUMPDEST SWAP5 PUSH1 0x20 SWAP4 SWAP1 SWAP4 ADD CALLDATALOAD SWAP4 POP POP POP JUMP JUMPDEST PUSH1 0x0 DUP1 PUSH1 0x0 PUSH1 0x60 DUP5 DUP7 SUB SLT ISZERO PUSH2 0x597 JUMPI PUSH1 0x0 DUP1 REVERT JUMPDEST PUSH2 0x5A0 DUP5 PUSH2 0x53C JUMP JUMPDEST SWAP3 POP PUSH2 0x5AE PUSH1 0x20 DUP6 ADD PUSH2 0x53C JUMP JUMPDEST SWAP2 POP PUSH1 0x40 DUP5 ADD CALLDATALOAD SWAP1 POP SWAP3 POP SWAP3 POP SWAP3 JUMP JUMPDEST PUSH1 0x0 PUSH1 0x20 DUP3 DUP5 SUB SLT ISZERO PUSH2 0x5D0 JUMPI PUSH1 0x0 DUP1 REVERT JUMPDEST POP CALLDATALOAD SWAP2 SWAP1 POP JUMP JUMPDEST PUSH1 0x0 PUSH1 0x20 DUP3 DUP5 SUB SLT ISZERO PUSH2 0x5E9 JUMPI PUSH1 0x0 DUP1 REVERT JUMPDEST PUSH2 0x5F2 DUP3 PUSH2 0x53C JUMP JUMPDEST SWAP4 SWAP3 POP POP POP JUMP JUMPDEST PUSH1 0x0 DUP1 PUSH1 0x40 DUP4 DUP6 SUB SLT ISZERO PUSH2 0x60C JUMPI PUSH1 0x0 DUP1 REVERT JUMPDEST PUSH2 0x615 DUP4 PUSH2 0x53C JUMP JUMPDEST SWAP2 POP PUSH2 0x623 PUSH1 0x20 DUP5 ADD PUSH2 0x53C JUMP JUMPDEST SWAP1 POP SWAP3 POP SWAP3 SWAP1 POP JUMP JUMPDEST PUSH1 0x1 DUP2 DUP2 SHR SWAP1 DUP3 AND DUP1 PUSH2 0x640 JUMPI PUSH1 0x7F DUP3 AND SWAP2 POP JUMPDEST PUSH1 0x20 DUP3 LT DUP2 SUB PUSH2 0x660 JUMPI PUSH4 0x4E487B71 PUSH1 0xE0 SHL PUSH1 0x0 MSTORE PUSH1 0x22 PUSH1 0x4 MSTORE PUSH1 0x24 PUSH1 0x0 REVERT JUMPDEST POP SWAP2 SWAP1 POP JUMP JUMPDEST PUSH4 0x4E487B71 PUSH1 0xE0 SHL PUSH1 0x0 MSTORE PUSH1 0x11 PUSH1 0x4 MSTORE PUSH1 0x24 PUSH1 0x0 REVERT JUMPDEST DUP2 DUP2 SUB DUP2 DUP2 GT ISZERO PUSH2 0x2BB JUMPI PUSH2 0x2BB PUSH2 0x666 JUMP JUMPDEST DUP1 DUP3 ADD DUP1 DUP3 GT ISZERO PUSH2 0x2BB JUMPI PUSH2 0x2BB PUSH2 0x666 JUMP INVALID 0xDD CALLCODE MSTORE 0xAD SHL 0xE2 0xC8 SWAP12 PUSH10 0xC2B068FC378DAA952BA7 CALL PUSH4 0xC4A11628 CREATE2 GAS 0x4D CREATE2 0x23 0xB3 0xEF LOG2 PUSH5 0x6970667358 0x22 SLT KECCAK256 ADDRESS 0x2D SWAP9 PUSH1 0x28 0x4F 0xFB PUSH0 DIFFICULTY 0xEA 0x49 0x29 SAR 0xE5 PUSH4 0x57816C80 PUSH20 0x2E6B1FDB453C008694962DD664736F6C63430008 EQ STOP CALLER "
				},
				"gasEstimates": {
					"creation": {
						"codeDepositCost": "356800",
						"executionCost": "infinite",
						"totalCost": "infinite"
					},
					"external": {
						"allowance(address,address)": "infinite",
						"approve(address,uint256)": "24523",
						"balanceOf(address)": "2541",
						"burn(uint256)": "infinite",
						"decimals()": "2402",
						"mint(uint256)": "infinite",
						"name()": "infinite",
						"symbol()": "infinite",
						"totalSupply()": "2340",
						"transfer(address,uint256)": "infinite",
						"transferFrom(address,address,uint256)": "infinite"
					}
				},
				"methodIdentifiers": {
					"allowance(address,address)": "dd62ed3e",
					"approve(address,uint256)": "095ea7b3",
					"balanceOf(address)": "70a08231",
					"burn(uint256)": "42966c68",
					"decimals()": "313ce567",
					"mint(uint256)": "a0712d68",
					"name()": "06fdde03",
					"symbol()": "95d89b41",
					"totalSupply()": "18160ddd",
					"transfer(address,uint256)": "a9059cbb",
					"transferFrom(address,address,uint256)": "23b872dd"
				}
			},
			"storageLayout": {
				"storage": [
					{
						"astId": 6,
						"contract": "Custom-Dex/Erc-20.sol:ERC_20",
						"label": "name",
						"offset": 0,
						"slot": "0",
						"type": "t_string_storage"
					},
					{
						"astId": 8,
						"contract": "Custom-Dex/Erc-20.sol:ERC_20",
						"label": "symbol",
						"offset": 0,
						"slot": "1",
						"type": "t_string_storage"
					},
					{
						"astId": 11,
						"contract": "Custom-Dex/Erc-20.sol:ERC_20",
						"label": "decimals",
						"offset": 0,
						"slot": "2",
						"type": "t_uint8"
					},
					{
						"astId": 13,
						"contract": "Custom-Dex/Erc-20.sol:ERC_20",
						"label": "totalSupply",
						"offset": 0,
						"slot": "3",
						"type": "t_uint256"
					},
					{
						"astId": 17,
						"contract": "Custom-Dex/Erc-20.sol:ERC_20",
						"label": "balanceOf",
						"offset": 0,
						"slot": "4",
						"type": "t_mapping(t_address,t_uint256)"
					},
					{
						"astId": 23,
						"contract": "Custom-Dex/Erc-20.sol:ERC_20",
						"label": "allowance",
						"offset": 0,
						"slot": "5",
						"type": "t_mapping(t_address,t_mapping(t_address,t_uint256))"
					}
				],
				"types": {
					"t_address": {
						"encoding": "inplace",
						"label": "address",
						"numberOfBytes": "20"
					},
					"t_mapping(t_address,t_mapping(t_address,t_uint256))": {
						"encoding": "mapping",
						"key": "t_address",
						"label": "mapping(address => mapping(address => uint256))",
						"numberOfBytes": "32",
						"value": "t_mapping(t_address,t_uint256)"
					},
					"t_mapping(t_address,t_uint256)": {
						"encoding": "mapping",
						"key": "t_address",
						"label": "mapping(address => uint256)",
						"numberOfBytes": "32",
						"value": "t_uint256"
					},
					"t_string_storage": {
						"encoding": "bytes",
						"label": "string",
						"numberOfBytes": "32"
					},
					"t_uint256": {
						"encoding": "inplace",
						"label": "uint256",
						"numberOfBytes": "32"
					},
					"t_uint8": {
						"encoding": "inplace",
						"label": "uint8",
						"numberOfBytes": "1"
					}
				}
			},
			"userdoc": {
				"kind": "user",
				"methods": {},
				"version": 1
			}
		}
	}
}