{
	"Practice tokens/vulnerable.sol": {
		"Vulnerable": {
			"abi": [
				{
					"inputs": [
						{
							"internalType": "address",
							"name": "",
							"type": "address"
						}
					],
					"name": "balances",
					"outputs": [
						{
							"internalType": "uint256",
							"name": "",
							"type": "uint256"
						}
					],
					"stateMutability": "view",
					"type": "function"
				},
				{
					"inputs": [],
					"name": "deposit",
					"outputs": [],
					"stateMutability": "payable",
					"type": "function"
				},
				{
					"inputs": [],
					"name": "withdraw",
					"outputs": [],
					"stateMutability": "nonpayable",
					"type": "function"
				}
			],
			"devdoc": {
				"kind": "dev",
				"methods": {},
				"version": 1
			},
			"evm": {
				"assembly": "    /* \"Practice tokens/vulnerable.sol\":57:463  contract Vulnerable{... */\n  mstore(0x40, 0x80)\n  callvalue\n  dup1\n  iszero\n  tag_1\n  jumpi\n  0x00\n  dup1\n  revert\ntag_1:\n  pop\n  dataSize(sub_0)\n  dup1\n  dataOffset(sub_0)\n  0x00\n  codecopy\n  0x00\n  return\nstop\n\nsub_0: assembly {\n        /* \"Practice tokens/vulnerable.sol\":57:463  contract Vulnerable{... */\n      mstore(0x40, 0x80)\n      jumpi(tag_1, lt(calldatasize, 0x04))\n      shr(0xe0, calldataload(0x00))\n      dup1\n      0x27e235e3\n      eq\n      tag_2\n      jumpi\n      dup1\n      0x3ccfd60b\n      eq\n      tag_3\n      jumpi\n      dup1\n      0xd0e30db0\n      eq\n      tag_4\n      jumpi\n    tag_1:\n      0x00\n      dup1\n      revert\n        /* \"Practice tokens/vulnerable.sol\":82:122  mapping(address => uint) public balances */\n    tag_2:\n      callvalue\n      dup1\n      iszero\n      tag_5\n      jumpi\n      0x00\n      dup1\n      revert\n    tag_5:\n      pop\n      tag_6\n      0x04\n      dup1\n      calldatasize\n      sub\n      dup2\n      add\n      swap1\n      tag_7\n      swap2\n      swap1\n      tag_8\n      jump\t// in\n    tag_7:\n      tag_9\n      jump\t// in\n    tag_6:\n      mload(0x40)\n      tag_10\n      swap2\n      swap1\n      tag_11\n      jump\t// in\n    tag_10:\n      mload(0x40)\n      dup1\n      swap2\n      sub\n      swap1\n      return\n        /* \"Practice tokens/vulnerable.sol\":218:461  function withdraw() public {... */\n    tag_3:\n      callvalue\n      dup1\n      iszero\n      tag_12\n      jumpi\n      0x00\n      dup1\n      revert\n    tag_12:\n      pop\n      tag_13\n      tag_14\n      jump\t// in\n    tag_13:\n      stop\n        /* \"Practice tokens/vulnerable.sol\":129:212  function deposit() public payable{... */\n    tag_4:\n      tag_15\n      tag_16\n      jump\t// in\n    tag_15:\n      stop\n        /* \"Practice tokens/vulnerable.sol\":82:122  mapping(address => uint) public balances */\n    tag_9:\n      mstore(0x20, 0x00)\n      dup1\n      0x00\n      mstore\n      keccak256(0x00, 0x40)\n      0x00\n      swap2\n      pop\n      swap1\n      pop\n      sload\n      dup2\n      jump\t// out\n        /* \"Practice tokens/vulnerable.sol\":218:461  function withdraw() public {... */\n    tag_14:\n        /* \"Practice tokens/vulnerable.sol\":255:263  uint bal */\n      0x00\n        /* \"Practice tokens/vulnerable.sol\":266:274  balances */\n      dup1\n        /* \"Practice tokens/vulnerable.sol\":266:286  balances[msg.sender] */\n      0x00\n        /* \"Practice tokens/vulnerable.sol\":275:285  msg.sender */\n      caller\n        /* \"Practice tokens/vulnerable.sol\":266:286  balances[msg.sender] */\n      0xffffffffffffffffffffffffffffffffffffffff\n      and\n      0xffffffffffffffffffffffffffffffffffffffff\n      and\n      dup2\n      mstore\n      0x20\n      add\n      swap1\n      dup2\n      mstore\n      0x20\n      add\n      0x00\n      keccak256\n      sload\n        /* \"Practice tokens/vulnerable.sol\":255:286  uint bal = balances[msg.sender] */\n      swap1\n      pop\n        /* \"Practice tokens/vulnerable.sol\":308:309  0 */\n      0x00\n        /* \"Practice tokens/vulnerable.sol\":304:307  bal */\n      dup2\n        /* \"Practice tokens/vulnerable.sol\":304:309  bal>0 */\n      gt\n        /* \"Practice tokens/vulnerable.sol\":296:310  require(bal>0) */\n      tag_18\n      jumpi\n      0x00\n      dup1\n      revert\n    tag_18:\n        /* \"Practice tokens/vulnerable.sol\":321:330  bool sent */\n      0x00\n        /* \"Practice tokens/vulnerable.sol\":334:344  msg.sender */\n      caller\n        /* \"Practice tokens/vulnerable.sol\":334:349  msg.sender.call */\n      0xffffffffffffffffffffffffffffffffffffffff\n      and\n        /* \"Practice tokens/vulnerable.sol\":356:359  bal */\n      dup3\n        /* \"Practice tokens/vulnerable.sol\":334:364  msg.sender.call{value:bal}(\"\") */\n      mload(0x40)\n      tag_19\n      swap1\n      tag_20\n      jump\t// in\n    tag_19:\n      0x00\n      mload(0x40)\n      dup1\n      dup4\n      sub\n      dup2\n      dup6\n      dup8\n      gas\n      call\n      swap3\n      pop\n      pop\n      pop\n      returndatasize\n      dup1\n      0x00\n      dup2\n      eq\n      tag_23\n      jumpi\n      mload(0x40)\n      swap2\n      pop\n      and(add(returndatasize, 0x3f), not(0x1f))\n      dup3\n      add\n      0x40\n      mstore\n      returndatasize\n      dup3\n      mstore\n      returndatasize\n      0x00\n      0x20\n      dup5\n      add\n      returndatacopy\n      jump(tag_22)\n    tag_23:\n      0x60\n      swap2\n      pop\n    tag_22:\n      pop\n        /* \"Practice tokens/vulnerable.sol\":320:364  (bool sent, )=msg.sender.call{value:bal}(\"\") */\n      pop\n      swap1\n      pop\n        /* \"Practice tokens/vulnerable.sol\":382:386  sent */\n      dup1\n        /* \"Practice tokens/vulnerable.sol\":374:411  require(sent, \"failed to send ether\") */\n      tag_24\n      jumpi\n      mload(0x40)\n      0x08c379a000000000000000000000000000000000000000000000000000000000\n      dup2\n      mstore\n      0x04\n      add\n      tag_25\n      swap1\n      tag_26\n      jump\t// in\n    tag_25:\n      mload(0x40)\n      dup1\n      swap2\n      sub\n      swap1\n      revert\n    tag_24:\n        /* \"Practice tokens/vulnerable.sol\":453:454  0 */\n      0x00\n        /* \"Practice tokens/vulnerable.sol\":430:438  balances */\n      dup1\n        /* \"Practice tokens/vulnerable.sol\":430:450  balances[msg.sender] */\n      0x00\n        /* \"Practice tokens/vulnerable.sol\":439:449  msg.sender */\n      caller\n        /* \"Practice tokens/vulnerable.sol\":430:450  balances[msg.sender] */\n      0xffffffffffffffffffffffffffffffffffffffff\n      and\n      0xffffffffffffffffffffffffffffffffffffffff\n      and\n      dup2\n      mstore\n      0x20\n      add\n      swap1\n      dup2\n      mstore\n      0x20\n      add\n      0x00\n      keccak256\n        /* \"Practice tokens/vulnerable.sol\":430:454  balances[msg.sender] = 0 */\n      dup2\n      swap1\n      sstore\n      pop\n        /* \"Practice tokens/vulnerable.sol\":245:461  {... */\n      pop\n      pop\n        /* \"Practice tokens/vulnerable.sol\":218:461  function withdraw() public {... */\n      jump\t// out\n        /* \"Practice tokens/vulnerable.sol\":129:212  function deposit() public payable{... */\n    tag_16:\n        /* \"Practice tokens/vulnerable.sol\":196:205  msg.value */\n      callvalue\n        /* \"Practice tokens/vulnerable.sol\":172:180  balances */\n      0x00\n        /* \"Practice tokens/vulnerable.sol\":172:192  balances[msg.sender] */\n      dup1\n        /* \"Practice tokens/vulnerable.sol\":181:191  msg.sender */\n      caller\n        /* \"Practice tokens/vulnerable.sol\":172:192  balances[msg.sender] */\n      0xffffffffffffffffffffffffffffffffffffffff\n      and\n      0xffffffffffffffffffffffffffffffffffffffff\n      and\n      dup2\n      mstore\n      0x20\n      add\n      swap1\n      dup2\n      mstore\n      0x20\n      add\n      0x00\n      keccak256\n      0x00\n        /* \"Practice tokens/vulnerable.sol\":172:205  balances[msg.sender] += msg.value */\n      dup3\n      dup3\n      sload\n      tag_28\n      swap2\n      swap1\n      tag_29\n      jump\t// in\n    tag_28:\n      swap3\n      pop\n      pop\n      dup2\n      swap1\n      sstore\n      pop\n        /* \"Practice tokens/vulnerable.sol\":129:212  function deposit() public payable{... */\n      jump\t// out\n        /* \"#utility.yul\":88:205   */\n    tag_31:\n        /* \"#utility.yul\":197:198   */\n      0x00\n        /* \"#utility.yul\":194:195   */\n      dup1\n        /* \"#utility.yul\":187:199   */\n      revert\n        /* \"#utility.yul\":334:460   */\n    tag_33:\n        /* \"#utility.yul\":371:378   */\n      0x00\n        /* \"#utility.yul\":411:453   */\n      0xffffffffffffffffffffffffffffffffffffffff\n        /* \"#utility.yul\":404:409   */\n      dup3\n        /* \"#utility.yul\":400:454   */\n      and\n        /* \"#utility.yul\":389:454   */\n      swap1\n      pop\n        /* \"#utility.yul\":334:460   */\n      swap2\n      swap1\n      pop\n      jump\t// out\n        /* \"#utility.yul\":466:562   */\n    tag_34:\n        /* \"#utility.yul\":503:510   */\n      0x00\n        /* \"#utility.yul\":532:556   */\n      tag_52\n        /* \"#utility.yul\":550:555   */\n      dup3\n        /* \"#utility.yul\":532:556   */\n      tag_33\n      jump\t// in\n    tag_52:\n        /* \"#utility.yul\":521:556   */\n      swap1\n      pop\n        /* \"#utility.yul\":466:562   */\n      swap2\n      swap1\n      pop\n      jump\t// out\n        /* \"#utility.yul\":568:690   */\n    tag_35:\n        /* \"#utility.yul\":641:665   */\n      tag_54\n        /* \"#utility.yul\":659:664   */\n      dup2\n        /* \"#utility.yul\":641:665   */\n      tag_34\n      jump\t// in\n    tag_54:\n        /* \"#utility.yul\":634:639   */\n      dup2\n        /* \"#utility.yul\":631:666   */\n      eq\n        /* \"#utility.yul\":621:684   */\n      tag_55\n      jumpi\n        /* \"#utility.yul\":680:681   */\n      0x00\n        /* \"#utility.yul\":677:678   */\n      dup1\n        /* \"#utility.yul\":670:682   */\n      revert\n        /* \"#utility.yul\":621:684   */\n    tag_55:\n        /* \"#utility.yul\":568:690   */\n      pop\n      jump\t// out\n        /* \"#utility.yul\":696:835   */\n    tag_36:\n        /* \"#utility.yul\":742:747   */\n      0x00\n        /* \"#utility.yul\":780:786   */\n      dup2\n        /* \"#utility.yul\":767:787   */\n      calldataload\n        /* \"#utility.yul\":758:787   */\n      swap1\n      pop\n        /* \"#utility.yul\":796:829   */\n      tag_57\n        /* \"#utility.yul\":823:828   */\n      dup2\n        /* \"#utility.yul\":796:829   */\n      tag_35\n      jump\t// in\n    tag_57:\n        /* \"#utility.yul\":696:835   */\n      swap3\n      swap2\n      pop\n      pop\n      jump\t// out\n        /* \"#utility.yul\":841:1170   */\n    tag_8:\n        /* \"#utility.yul\":900:906   */\n      0x00\n        /* \"#utility.yul\":949:951   */\n      0x20\n        /* \"#utility.yul\":937:946   */\n      dup3\n        /* \"#utility.yul\":928:935   */\n      dup5\n        /* \"#utility.yul\":924:947   */\n      sub\n        /* \"#utility.yul\":920:952   */\n      slt\n        /* \"#utility.yul\":917:1036   */\n      iszero\n      tag_59\n      jumpi\n        /* \"#utility.yul\":955:1034   */\n      tag_60\n      tag_31\n      jump\t// in\n    tag_60:\n        /* \"#utility.yul\":917:1036   */\n    tag_59:\n        /* \"#utility.yul\":1075:1076   */\n      0x00\n        /* \"#utility.yul\":1100:1153   */\n      tag_61\n        /* \"#utility.yul\":1145:1152   */\n      dup5\n        /* \"#utility.yul\":1136:1142   */\n      dup3\n        /* \"#utility.yul\":1125:1134   */\n      dup6\n        /* \"#utility.yul\":1121:1143   */\n      add\n        /* \"#utility.yul\":1100:1153   */\n      tag_36\n      jump\t// in\n    tag_61:\n        /* \"#utility.yul\":1090:1153   */\n      swap2\n      pop\n        /* \"#utility.yul\":1046:1163   */\n      pop\n        /* \"#utility.yul\":841:1170   */\n      swap3\n      swap2\n      pop\n      pop\n      jump\t// out\n        /* \"#utility.yul\":1176:1253   */\n    tag_37:\n        /* \"#utility.yul\":1213:1220   */\n      0x00\n        /* \"#utility.yul\":1242:1247   */\n      dup2\n        /* \"#utility.yul\":1231:1247   */\n      swap1\n      pop\n        /* \"#utility.yul\":1176:1253   */\n      swap2\n      swap1\n      pop\n      jump\t// out\n        /* \"#utility.yul\":1259:1377   */\n    tag_38:\n        /* \"#utility.yul\":1346:1370   */\n      tag_64\n        /* \"#utility.yul\":1364:1369   */\n      dup2\n        /* \"#utility.yul\":1346:1370   */\n      tag_37\n      jump\t// in\n    tag_64:\n        /* \"#utility.yul\":1341:1344   */\n      dup3\n        /* \"#utility.yul\":1334:1371   */\n      mstore\n        /* \"#utility.yul\":1259:1377   */\n      pop\n      pop\n      jump\t// out\n        /* \"#utility.yul\":1383:1605   */\n    tag_11:\n        /* \"#utility.yul\":1476:1480   */\n      0x00\n        /* \"#utility.yul\":1514:1516   */\n      0x20\n        /* \"#utility.yul\":1503:1512   */\n      dup3\n        /* \"#utility.yul\":1499:1517   */\n      add\n        /* \"#utility.yul\":1491:1517   */\n      swap1\n      pop\n        /* \"#utility.yul\":1527:1598   */\n      tag_66\n        /* \"#utility.yul\":1595:1596   */\n      0x00\n        /* \"#utility.yul\":1584:1593   */\n      dup4\n        /* \"#utility.yul\":1580:1597   */\n      add\n        /* \"#utility.yul\":1571:1577   */\n      dup5\n        /* \"#utility.yul\":1527:1598   */\n      tag_38\n      jump\t// in\n    tag_66:\n        /* \"#utility.yul\":1383:1605   */\n      swap3\n      swap2\n      pop\n      pop\n      jump\t// out\n        /* \"#utility.yul\":1611:1758   */\n    tag_39:\n        /* \"#utility.yul\":1712:1723   */\n      0x00\n        /* \"#utility.yul\":1749:1752   */\n      dup2\n        /* \"#utility.yul\":1734:1752   */\n      swap1\n      pop\n        /* \"#utility.yul\":1611:1758   */\n      swap3\n      swap2\n      pop\n      pop\n      jump\t// out\n        /* \"#utility.yul\":1764:1878   */\n    tag_40:\n      pop\n      jump\t// out\n        /* \"#utility.yul\":1884:2282   */\n    tag_41:\n        /* \"#utility.yul\":2043:2046   */\n      0x00\n        /* \"#utility.yul\":2064:2147   */\n      tag_70\n        /* \"#utility.yul\":2145:2146   */\n      0x00\n        /* \"#utility.yul\":2140:2143   */\n      dup4\n        /* \"#utility.yul\":2064:2147   */\n      tag_39\n      jump\t// in\n    tag_70:\n        /* \"#utility.yul\":2057:2147   */\n      swap2\n      pop\n        /* \"#utility.yul\":2156:2249   */\n      tag_71\n        /* \"#utility.yul\":2245:2248   */\n      dup3\n        /* \"#utility.yul\":2156:2249   */\n      tag_40\n      jump\t// in\n    tag_71:\n        /* \"#utility.yul\":2274:2275   */\n      0x00\n        /* \"#utility.yul\":2269:2272   */\n      dup3\n        /* \"#utility.yul\":2265:2276   */\n      add\n        /* \"#utility.yul\":2258:2276   */\n      swap1\n      pop\n        /* \"#utility.yul\":1884:2282   */\n      swap2\n      swap1\n      pop\n      jump\t// out\n        /* \"#utility.yul\":2288:2667   */\n    tag_20:\n        /* \"#utility.yul\":2472:2475   */\n      0x00\n        /* \"#utility.yul\":2494:2641   */\n      tag_73\n        /* \"#utility.yul\":2637:2640   */\n      dup3\n        /* \"#utility.yul\":2494:2641   */\n      tag_41\n      jump\t// in\n    tag_73:\n        /* \"#utility.yul\":2487:2641   */\n      swap2\n      pop\n        /* \"#utility.yul\":2658:2661   */\n      dup2\n        /* \"#utility.yul\":2651:2661   */\n      swap1\n      pop\n        /* \"#utility.yul\":2288:2667   */\n      swap2\n      swap1\n      pop\n      jump\t// out\n        /* \"#utility.yul\":2673:2842   */\n    tag_42:\n        /* \"#utility.yul\":2757:2768   */\n      0x00\n        /* \"#utility.yul\":2791:2797   */\n      dup3\n        /* \"#utility.yul\":2786:2789   */\n      dup3\n        /* \"#utility.yul\":2779:2798   */\n      mstore\n        /* \"#utility.yul\":2831:2835   */\n      0x20\n        /* \"#utility.yul\":2826:2829   */\n      dup3\n        /* \"#utility.yul\":2822:2836   */\n      add\n        /* \"#utility.yul\":2807:2836   */\n      swap1\n      pop\n        /* \"#utility.yul\":2673:2842   */\n      swap3\n      swap2\n      pop\n      pop\n      jump\t// out\n        /* \"#utility.yul\":2848:3018   */\n    tag_43:\n        /* \"#utility.yul\":2988:3010   */\n      0x6661696c656420746f2073656e64206574686572000000000000000000000000\n        /* \"#utility.yul\":2984:2985   */\n      0x00\n        /* \"#utility.yul\":2976:2982   */\n      dup3\n        /* \"#utility.yul\":2972:2986   */\n      add\n        /* \"#utility.yul\":2965:3011   */\n      mstore\n        /* \"#utility.yul\":2848:3018   */\n      pop\n      jump\t// out\n        /* \"#utility.yul\":3024:3390   */\n    tag_44:\n        /* \"#utility.yul\":3166:3169   */\n      0x00\n        /* \"#utility.yul\":3187:3254   */\n      tag_77\n        /* \"#utility.yul\":3251:3253   */\n      0x14\n        /* \"#utility.yul\":3246:3249   */\n      dup4\n        /* \"#utility.yul\":3187:3254   */\n      tag_42\n      jump\t// in\n    tag_77:\n        /* \"#utility.yul\":3180:3254   */\n      swap2\n      pop\n        /* \"#utility.yul\":3263:3356   */\n      tag_78\n        /* \"#utility.yul\":3352:3355   */\n      dup3\n        /* \"#utility.yul\":3263:3356   */\n      tag_43\n      jump\t// in\n    tag_78:\n        /* \"#utility.yul\":3381:3383   */\n      0x20\n        /* \"#utility.yul\":3376:3379   */\n      dup3\n        /* \"#utility.yul\":3372:3384   */\n      add\n        /* \"#utility.yul\":3365:3384   */\n      swap1\n      pop\n        /* \"#utility.yul\":3024:3390   */\n      swap2\n      swap1\n      pop\n      jump\t// out\n        /* \"#utility.yul\":3396:3815   */\n    tag_26:\n        /* \"#utility.yul\":3562:3566   */\n      0x00\n        /* \"#utility.yul\":3600:3602   */\n      0x20\n        /* \"#utility.yul\":3589:3598   */\n      dup3\n        /* \"#utility.yul\":3585:3603   */\n      add\n        /* \"#utility.yul\":3577:3603   */\n      swap1\n      pop\n        /* \"#utility.yul\":3649:3658   */\n      dup2\n        /* \"#utility.yul\":3643:3647   */\n      dup2\n        /* \"#utility.yul\":3639:3659   */\n      sub\n        /* \"#utility.yul\":3635:3636   */\n      0x00\n        /* \"#utility.yul\":3624:3633   */\n      dup4\n        /* \"#utility.yul\":3620:3637   */\n      add\n        /* \"#utility.yul\":3613:3660   */\n      mstore\n        /* \"#utility.yul\":3677:3808   */\n      tag_80\n        /* \"#utility.yul\":3803:3807   */\n      dup2\n        /* \"#utility.yul\":3677:3808   */\n      tag_44\n      jump\t// in\n    tag_80:\n        /* \"#utility.yul\":3669:3808   */\n      swap1\n      pop\n        /* \"#utility.yul\":3396:3815   */\n      swap2\n      swap1\n      pop\n      jump\t// out\n        /* \"#utility.yul\":3821:4001   */\n    tag_45:\n        /* \"#utility.yul\":3869:3946   */\n      0x4e487b7100000000000000000000000000000000000000000000000000000000\n        /* \"#utility.yul\":3866:3867   */\n      0x00\n        /* \"#utility.yul\":3859:3947   */\n      mstore\n        /* \"#utility.yul\":3966:3970   */\n      0x11\n        /* \"#utility.yul\":3963:3964   */\n      0x04\n        /* \"#utility.yul\":3956:3971   */\n      mstore\n        /* \"#utility.yul\":3990:3994   */\n      0x24\n        /* \"#utility.yul\":3987:3988   */\n      0x00\n        /* \"#utility.yul\":3980:3995   */\n      revert\n        /* \"#utility.yul\":4007:4312   */\n    tag_29:\n        /* \"#utility.yul\":4047:4050   */\n      0x00\n        /* \"#utility.yul\":4066:4086   */\n      tag_83\n        /* \"#utility.yul\":4084:4085   */\n      dup3\n        /* \"#utility.yul\":4066:4086   */\n      tag_37\n      jump\t// in\n    tag_83:\n        /* \"#utility.yul\":4061:4086   */\n      swap2\n      pop\n        /* \"#utility.yul\":4100:4120   */\n      tag_84\n        /* \"#utility.yul\":4118:4119   */\n      dup4\n        /* \"#utility.yul\":4100:4120   */\n      tag_37\n      jump\t// in\n    tag_84:\n        /* \"#utility.yul\":4095:4120   */\n      swap3\n      pop\n        /* \"#utility.yul\":4254:4255   */\n      dup3\n        /* \"#utility.yul\":4186:4252   */\n      0xffffffffffffffffffffffffffffffffffffffffffffffffffffffffffffffff\n        /* \"#utility.yul\":4182:4256   */\n      sub\n        /* \"#utility.yul\":4179:4180   */\n      dup3\n        /* \"#utility.yul\":4176:4257   */\n      gt\n        /* \"#utility.yul\":4173:4280   */\n      iszero\n      tag_85\n      jumpi\n        /* \"#utility.yul\":4260:4278   */\n      tag_86\n      tag_45\n      jump\t// in\n    tag_86:\n        /* \"#utility.yul\":4173:4280   */\n    tag_85:\n        /* \"#utility.yul\":4304:4305   */\n      dup3\n        /* \"#utility.yul\":4301:4302   */\n      dup3\n        /* \"#utility.yul\":4297:4306   */\n      add\n        /* \"#utility.yul\":4290:4306   */\n      swap1\n      pop\n        /* \"#utility.yul\":4007:4312   */\n      swap3\n      swap2\n      pop\n      pop\n      jump\t// out\n\n    auxdata: 0xa2646970667358221220f468978f908eec0a1fa8e723e1a8141e9c9341c9a6d486d12f5b6593bfda567464736f6c634300080f0033\n}\n",
				"bytecode": {
					"linkReferences": {},
					"object": "608060405234801561001057600080fd5b5061048c806100206000396000f3fe6080604052600436106100345760003560e01c806327e235e3146100395780633ccfd60b14610076578063d0e30db01461008d575b600080fd5b34801561004557600080fd5b50610060600480360381019061005b91906102ad565b610097565b60405161006d91906102f3565b60405180910390f35b34801561008257600080fd5b5061008b6100af565b005b6100956101f3565b005b60006020528060005260406000206000915090505481565b60008060003373ffffffffffffffffffffffffffffffffffffffff1673ffffffffffffffffffffffffffffffffffffffff168152602001908152602001600020549050600081116100ff57600080fd5b60003373ffffffffffffffffffffffffffffffffffffffff16826040516101259061033f565b60006040518083038185875af1925050503d8060008114610162576040519150601f19603f3d011682016040523d82523d6000602084013e610167565b606091505b50509050806101ab576040517f08c379a00000000000000000000000000000000000000000000000000000000081526004016101a2906103b1565b60405180910390fd5b60008060003373ffffffffffffffffffffffffffffffffffffffff1673ffffffffffffffffffffffffffffffffffffffff168152602001908152602001600020819055505050565b346000803373ffffffffffffffffffffffffffffffffffffffff1673ffffffffffffffffffffffffffffffffffffffff16815260200190815260200160002060008282546102419190610400565b92505081905550565b600080fd5b600073ffffffffffffffffffffffffffffffffffffffff82169050919050565b600061027a8261024f565b9050919050565b61028a8161026f565b811461029557600080fd5b50565b6000813590506102a781610281565b92915050565b6000602082840312156102c3576102c261024a565b5b60006102d184828501610298565b91505092915050565b6000819050919050565b6102ed816102da565b82525050565b600060208201905061030860008301846102e4565b92915050565b600081905092915050565b50565b600061032960008361030e565b915061033482610319565b600082019050919050565b600061034a8261031c565b9150819050919050565b600082825260208201905092915050565b7f6661696c656420746f2073656e64206574686572000000000000000000000000600082015250565b600061039b601483610354565b91506103a682610365565b602082019050919050565b600060208201905081810360008301526103ca8161038e565b9050919050565b7f4e487b7100000000000000000000000000000000000000000000000000000000600052601160045260246000fd5b600061040b826102da565b9150610416836102da565b9250827fffffffffffffffffffffffffffffffffffffffffffffffffffffffffffffffff0382111561044b5761044a6103d1565b5b82820190509291505056fea2646970667358221220f468978f908eec0a1fa8e723e1a8141e9c9341c9a6d486d12f5b6593bfda567464736f6c634300080f0033",
					"opcodes": "PUSH1 0x80 PUSH1 0x40 MSTORE CALLVALUE DUP1 ISZERO PUSH2 0x10 JUMPI PUSH1 0x0 DUP1 REVERT JUMPDEST POP PUSH2 0x48C DUP1 PUSH2 0x20 PUSH1 0x0 CODECOPY PUSH1 0x0 RETURN INVALID PUSH1 0x80 PUSH1 0x40 MSTORE PUSH1 0x4 CALLDATASIZE LT PUSH2 0x34 JUMPI PUSH1 0x0 CALLDATALOAD PUSH1 0xE0 SHR DUP1 PUSH4 0x27E235E3 EQ PUSH2 0x39 JUMPI DUP1 PUSH4 0x3CCFD60B EQ PUSH2 0x76 JUMPI DUP1 PUSH4 0xD0E30DB0 EQ PUSH2 0x8D JUMPI JUMPDEST PUSH1 0x0 DUP1 REVERT JUMPDEST CALLVALUE DUP1 ISZERO PUSH2 0x45 JUMPI PUSH1 0x0 DUP1 REVERT JUMPDEST POP PUSH2 0x60 PUSH1 0x4 DUP1 CALLDATASIZE SUB DUP2 ADD SWAP1 PUSH2 0x5B SWAP2 SWAP1 PUSH2 0x2AD JUMP JUMPDEST PUSH2 0x97 JUMP JUMPDEST PUSH1 0x40 MLOAD PUSH2 0x6D SWAP2 SWAP1 PUSH2 0x2F3 JUMP JUMPDEST PUSH1 0x40 MLOAD DUP1 SWAP2 SUB SWAP1 RETURN JUMPDEST CALLVALUE DUP1 ISZERO PUSH2 0x82 JUMPI PUSH1 0x0 DUP1 REVERT JUMPDEST POP PUSH2 0x8B PUSH2 0xAF JUMP JUMPDEST STOP JUMPDEST PUSH2 0x95 PUSH2 0x1F3 JUMP JUMPDEST STOP JUMPDEST PUSH1 0x0 PUSH1 0x20 MSTORE DUP1 PUSH1 0x0 MSTORE PUSH1 0x40 PUSH1 0x0 KECCAK256 PUSH1 0x0 SWAP2 POP SWAP1 POP SLOAD DUP2 JUMP JUMPDEST PUSH1 0x0 DUP1 PUSH1 0x0 CALLER PUSH20 0xFFFFFFFFFFFFFFFFFFFFFFFFFFFFFFFFFFFFFFFF AND PUSH20 0xFFFFFFFFFFFFFFFFFFFFFFFFFFFFFFFFFFFFFFFF AND DUP2 MSTORE PUSH1 0x20 ADD SWAP1 DUP2 MSTORE PUSH1 0x20 ADD PUSH1 0x0 KECCAK256 SLOAD SWAP1 POP PUSH1 0x0 DUP2 GT PUSH2 0xFF JUMPI PUSH1 0x0 DUP1 REVERT JUMPDEST PUSH1 0x0 CALLER PUSH20 0xFFFFFFFFFFFFFFFFFFFFFFFFFFFFFFFFFFFFFFFF AND DUP3 PUSH1 0x40 MLOAD PUSH2 0x125 SWAP1 PUSH2 0x33F JUMP JUMPDEST PUSH1 0x0 PUSH1 0x40 MLOAD DUP1 DUP4 SUB DUP2 DUP6 DUP8 GAS CALL SWAP3 POP POP POP RETURNDATASIZE DUP1 PUSH1 0x0 DUP2 EQ PUSH2 0x162 JUMPI PUSH1 0x40 MLOAD SWAP2 POP PUSH1 0x1F NOT PUSH1 0x3F RETURNDATASIZE ADD AND DUP3 ADD PUSH1 0x40 MSTORE RETURNDATASIZE DUP3 MSTORE RETURNDATASIZE PUSH1 0x0 PUSH1 0x20 DUP5 ADD RETURNDATACOPY PUSH2 0x167 JUMP JUMPDEST PUSH1 0x60 SWAP2 POP JUMPDEST POP POP SWAP1 POP DUP1 PUSH2 0x1AB JUMPI PUSH1 0x40 MLOAD PUSH32 0x8C379A000000000000000000000000000000000000000000000000000000000 DUP2 MSTORE PUSH1 0x4 ADD PUSH2 0x1A2 SWAP1 PUSH2 0x3B1 JUMP JUMPDEST PUSH1 0x40 MLOAD DUP1 SWAP2 SUB SWAP1 REVERT JUMPDEST PUSH1 0x0 DUP1 PUSH1 0x0 CALLER PUSH20 0xFFFFFFFFFFFFFFFFFFFFFFFFFFFFFFFFFFFFFFFF AND PUSH20 0xFFFFFFFFFFFFFFFFFFFFFFFFFFFFFFFFFFFFFFFF AND DUP2 MSTORE PUSH1 0x20 ADD SWAP1 DUP2 MSTORE PUSH1 0x20 ADD PUSH1 0x0 KECCAK256 DUP2 SWAP1 SSTORE POP POP POP JUMP JUMPDEST CALLVALUE PUSH1 0x0 DUP1 CALLER PUSH20 0xFFFFFFFFFFFFFFFFFFFFFFFFFFFFFFFFFFFFFFFF AND PUSH20 0xFFFFFFFFFFFFFFFFFFFFFFFFFFFFFFFFFFFFFFFF AND DUP2 MSTORE PUSH1 0x20 ADD SWAP1 DUP2 MSTORE PUSH1 0x20 ADD PUSH1 0x0 KECCAK256 PUSH1 0x0 DUP3 DUP3 SLOAD PUSH2 0x241 SWAP2 SWAP1 PUSH2 0x400 JUMP JUMPDEST SWAP3 POP POP DUP2 SWAP1 SSTORE POP JUMP JUMPDEST PUSH1 0x0 DUP1 REVERT JUMPDEST PUSH1 0x0 PUSH20 0xFFFFFFFFFFFFFFFFFFFFFFFFFFFFFFFFFFFFFFFF DUP3 AND SWAP1 POP SWAP2 SWAP1 POP JUMP JUMPDEST PUSH1 0x0 PUSH2 0x27A DUP3 PUSH2 0x24F JUMP JUMPDEST SWAP1 POP SWAP2 SWAP1 POP JUMP JUMPDEST PUSH2 0x28A DUP2 PUSH2 0x26F JUMP JUMPDEST DUP2 EQ PUSH2 0x295 JUMPI PUSH1 0x0 DUP1 REVERT JUMPDEST POP JUMP JUMPDEST PUSH1 0x0 DUP2 CALLDATALOAD SWAP1 POP PUSH2 0x2A7 DUP2 PUSH2 0x281 JUMP JUMPDEST SWAP3 SWAP2 POP POP JUMP JUMPDEST PUSH1 0x0 PUSH1 0x20 DUP3 DUP5 SUB SLT ISZERO PUSH2 0x2C3 JUMPI PUSH2 0x2C2 PUSH2 0x24A JUMP JUMPDEST JUMPDEST PUSH1 0x0 PUSH2 0x2D1 DUP5 DUP3 DUP6 ADD PUSH2 0x298 JUMP JUMPDEST SWAP2 POP POP SWAP3 SWAP2 POP POP JUMP JUMPDEST PUSH1 0x0 DUP2 SWAP1 POP SWAP2 SWAP1 POP JUMP JUMPDEST PUSH2 0x2ED DUP2 PUSH2 0x2DA JUMP JUMPDEST DUP3 MSTORE POP POP JUMP JUMPDEST PUSH1 0x0 PUSH1 0x20 DUP3 ADD SWAP1 POP PUSH2 0x308 PUSH1 0x0 DUP4 ADD DUP5 PUSH2 0x2E4 JUMP JUMPDEST SWAP3 SWAP2 POP POP JUMP JUMPDEST PUSH1 0x0 DUP2 SWAP1 POP SWAP3 SWAP2 POP POP JUMP JUMPDEST POP JUMP JUMPDEST PUSH1 0x0 PUSH2 0x329 PUSH1 0x0 DUP4 PUSH2 0x30E JUMP JUMPDEST SWAP2 POP PUSH2 0x334 DUP3 PUSH2 0x319 JUMP JUMPDEST PUSH1 0x0 DUP3 ADD SWAP1 POP SWAP2 SWAP1 POP JUMP JUMPDEST PUSH1 0x0 PUSH2 0x34A DUP3 PUSH2 0x31C JUMP JUMPDEST SWAP2 POP DUP2 SWAP1 POP SWAP2 SWAP1 POP JUMP JUMPDEST PUSH1 0x0 DUP3 DUP3 MSTORE PUSH1 0x20 DUP3 ADD SWAP1 POP SWAP3 SWAP2 POP POP JUMP JUMPDEST PUSH32 0x6661696C656420746F2073656E64206574686572000000000000000000000000 PUSH1 0x0 DUP3 ADD MSTORE POP JUMP JUMPDEST PUSH1 0x0 PUSH2 0x39B PUSH1 0x14 DUP4 PUSH2 0x354 JUMP JUMPDEST SWAP2 POP PUSH2 0x3A6 DUP3 PUSH2 0x365 JUMP JUMPDEST PUSH1 0x20 DUP3 ADD SWAP1 POP SWAP2 SWAP1 POP JUMP JUMPDEST PUSH1 0x0 PUSH1 0x20 DUP3 ADD SWAP1 POP DUP2 DUP2 SUB PUSH1 0x0 DUP4 ADD MSTORE PUSH2 0x3CA DUP2 PUSH2 0x38E JUMP JUMPDEST SWAP1 POP SWAP2 SWAP1 POP JUMP JUMPDEST PUSH32 0x4E487B7100000000000000000000000000000000000000000000000000000000 PUSH1 0x0 MSTORE PUSH1 0x11 PUSH1 0x4 MSTORE PUSH1 0x24 PUSH1 0x0 REVERT JUMPDEST PUSH1 0x0 PUSH2 0x40B DUP3 PUSH2 0x2DA JUMP JUMPDEST SWAP2 POP PUSH2 0x416 DUP4 PUSH2 0x2DA JUMP JUMPDEST SWAP3 POP DUP3 PUSH32 0xFFFFFFFFFFFFFFFFFFFFFFFFFFFFFFFFFFFFFFFFFFFFFFFFFFFFFFFFFFFFFFFF SUB DUP3 GT ISZERO PUSH2 0x44B JUMPI PUSH2 0x44A PUSH2 0x3D1 JUMP JUMPDEST JUMPDEST DUP3 DUP3 ADD SWAP1 POP SWAP3 SWAP2 POP POP JUMP INVALID LOG2 PUSH5 0x6970667358 0x22 SLT KECCAK256 DELEGATECALL PUSH9 0x978F908EEC0A1FA8E7 0x23 0xE1 0xA8 EQ 0x1E SWAP13 SWAP4 COINBASE 0xC9 0xA6 0xD4 DUP7 0xD1 0x2F JUMPDEST PUSH6 0x93BFDA567464 PUSH20 0x6F6C634300080F00330000000000000000000000 "
				},
				"gasEstimates": {
					"creation": {
						"codeDepositCost": "232800",
						"executionCost": "275",
						"totalCost": "233075"
					},
					"external": {
						"balances(address)": "2792",
						"deposit()": "infinite",
						"withdraw()": "infinite"
					}
				},
				"methodIdentifiers": {
					"balances(address)": "27e235e3",
					"deposit()": "d0e30db0",
					"withdraw()": "3ccfd60b"
				}
			},
			"storageLayout": {
				"storage": [
					{
						"astId": 5,
						"contract": "Practice tokens/vulnerable.sol:Vulnerable",
						"label": "balances",
						"offset": 0,
						"slot": "0",
						"type": "t_mapping(t_address,t_uint256)"
					}
				],
				"types": {
					"t_address": {
						"encoding": "inplace",
						"label": "address",
						"numberOfBytes": "20"
					},
					"t_mapping(t_address,t_uint256)": {
						"encoding": "mapping",
						"key": "t_address",
						"label": "mapping(address => uint256)",
						"numberOfBytes": "32",
						"value": "t_uint256"
					},
					"t_uint256": {
						"encoding": "inplace",
						"label": "uint256",
						"numberOfBytes": "32"
					}
				}
			},
			"userdoc": {
				"kind": "user",
				"methods": {},
				"version": 1
			}
		}
	}
}