{
	"Practice tokens/ERC - 20.sol": {
		"ERC_20": {
			"abi": [
				{
					"inputs": [
						{
							"internalType": "string",
							"name": "_name",
							"type": "string"
						},
						{
							"internalType": "string",
							"name": "_symbol",
							"type": "string"
						},
						{
							"internalType": "uint256",
							"name": "_totalSupply",
							"type": "uint256"
						}
					],
					"stateMutability": "nonpayable",
					"type": "constructor"
				},
				{
					"anonymous": false,
					"inputs": [
						{
							"indexed": true,
							"internalType": "address",
							"name": "_owner",
							"type": "address"
						},
						{
							"indexed": true,
							"internalType": "address",
							"name": "_spender",
							"type": "address"
						},
						{
							"indexed": false,
							"internalType": "uint256",
							"name": "_value",
							"type": "uint256"
						}
					],
					"name": "Approval",
					"type": "event"
				},
				{
					"anonymous": false,
					"inputs": [
						{
							"indexed": true,
							"internalType": "address",
							"name": "_from",
							"type": "address"
						},
						{
							"indexed": true,
							"internalType": "address",
							"name": "_to",
							"type": "address"
						},
						{
							"indexed": false,
							"internalType": "uint256",
							"name": "_value",
							"type": "uint256"
						}
					],
					"name": "Transfer",
					"type": "event"
				},
				{
					"inputs": [
						{
							"internalType": "address",
							"name": "_owner",
							"type": "address"
						}
					],
					"name": "balanceO",
					"outputs": [
						{
							"internalType": "uint256",
							"name": "",
							"type": "uint256"
						}
					],
					"stateMutability": "view",
					"type": "function"
				},
				{
					"inputs": [
						{
							"internalType": "address",
							"name": "_owner",
							"type": "address"
						}
					],
					"name": "balanceOf",
					"outputs": [
						{
							"internalType": "uint256",
							"name": "",
							"type": "uint256"
						}
					],
					"stateMutability": "view",
					"type": "function"
				},
				{
					"inputs": [],
					"name": "decimals",
					"outputs": [
						{
							"internalType": "uint8",
							"name": "",
							"type": "uint8"
						}
					],
					"stateMutability": "view",
					"type": "function"
				},
				{
					"inputs": [],
					"name": "name",
					"outputs": [
						{
							"internalType": "string",
							"name": "",
							"type": "string"
						}
					],
					"stateMutability": "view",
					"type": "function"
				},
				{
					"inputs": [],
					"name": "symbol",
					"outputs": [
						{
							"internalType": "string",
							"name": "",
							"type": "string"
						}
					],
					"stateMutability": "view",
					"type": "function"
				},
				{
					"inputs": [],
					"name": "totalSupply",
					"outputs": [
						{
							"internalType": "uint256",
							"name": "",
							"type": "uint256"
						}
					],
					"stateMutability": "view",
					"type": "function"
				}
			],
			"devdoc": {
				"kind": "dev",
				"methods": {},
				"version": 1
			},
			"evm": {
				"assembly": "    /* \"Practice tokens/ERC - 20.sol\":175:1207  contract ERC_20{... */\n  mstore(0x40, 0x80)\n    /* \"Practice tokens/ERC - 20.sol\":623:863  constructor(string memory _name, string memory _symbol, uint256 _totalSupply){... */\n  callvalue\n  dup1\n  iszero\n  tag_1\n  jumpi\n  0x00\n  dup1\n  revert\ntag_1:\n  pop\n  mload(0x40)\n  sub(codesize, bytecodeSize)\n  dup1\n  bytecodeSize\n  dup4\n  codecopy\n  dup2\n  add\n  0x40\n  dup2\n  swap1\n  mstore\n  tag_2\n  swap2\n  tag_3\n  jump\t// in\ntag_2:\n    /* \"Practice tokens/ERC - 20.sol\":711:715  name */\n  0x00\n    /* \"Practice tokens/ERC - 20.sol\":711:721  name=_name */\n  tag_6\n    /* \"Practice tokens/ERC - 20.sol\":716:721  _name */\n  dup5\n    /* \"Practice tokens/ERC - 20.sol\":711:715  name */\n  dup3\n    /* \"Practice tokens/ERC - 20.sol\":711:721  name=_name */\n  tag_7\n  jump\t// in\ntag_6:\n  pop\n    /* \"Practice tokens/ERC - 20.sol\":732:738  symbol */\n  0x01\n    /* \"Practice tokens/ERC - 20.sol\":732:748  symbol = _symbol */\n  tag_8\n    /* \"Practice tokens/ERC - 20.sol\":741:748  _symbol */\n  dup4\n    /* \"Practice tokens/ERC - 20.sol\":732:738  symbol */\n  dup3\n    /* \"Practice tokens/ERC - 20.sol\":732:748  symbol = _symbol */\n  tag_7\n  jump\t// in\ntag_8:\n  pop\n    /* \"Practice tokens/ERC - 20.sol\":759:767  decimals */\n  0x02\n    /* \"Practice tokens/ERC - 20.sol\":759:772  decimals = 18 */\n  dup1\n  sload\n  not(0xff)\n  and\n    /* \"Practice tokens/ERC - 20.sol\":770:772  18 */\n  0x12\n    /* \"Practice tokens/ERC - 20.sol\":759:772  decimals = 18 */\n  or\n  swap1\n  sstore\n    /* \"Practice tokens/ERC - 20.sol\":783:794  totalSupply */\n  0x03\n    /* \"Practice tokens/ERC - 20.sol\":783:809  totalSupply = _totalSupply */\n  dup2\n  swap1\n  sstore\n    /* \"Practice tokens/ERC - 20.sol\":829:839  msg.sender */\n  caller\n    /* \"Practice tokens/ERC - 20.sol\":759:767  decimals */\n  0x00\n    /* \"Practice tokens/ERC - 20.sol\":820:840  balances[msg.sender] */\n  swap1\n  dup2\n  mstore\n    /* \"Practice tokens/ERC - 20.sol\":820:828  balances */\n  0x04\n    /* \"Practice tokens/ERC - 20.sol\":820:840  balances[msg.sender] */\n  0x20\n  mstore\n  0x40\n  swap1\n  keccak256\n    /* \"Practice tokens/ERC - 20.sol\":820:855  balances[msg.sender] = _totalSupply */\n  sstore\n  pop\n    /* \"Practice tokens/ERC - 20.sol\":175:1207  contract ERC_20{... */\n  tag_16\n  swap1\n  pop\n  jump\n    /* \"#utility.yul\":14:141   */\ntag_10:\n    /* \"#utility.yul\":75:85   */\n  0x4e487b71\n    /* \"#utility.yul\":70:73   */\n  0xe0\n    /* \"#utility.yul\":66:86   */\n  shl\n    /* \"#utility.yul\":63:64   */\n  0x00\n    /* \"#utility.yul\":56:87   */\n  mstore\n    /* \"#utility.yul\":106:110   */\n  0x41\n    /* \"#utility.yul\":103:104   */\n  0x04\n    /* \"#utility.yul\":96:111   */\n  mstore\n    /* \"#utility.yul\":130:134   */\n  0x24\n    /* \"#utility.yul\":127:128   */\n  0x00\n    /* \"#utility.yul\":120:135   */\n  revert\n    /* \"#utility.yul\":146:986   */\ntag_11:\n    /* \"#utility.yul\":200:205   */\n  0x00\n    /* \"#utility.yul\":253:256   */\n  dup3\n    /* \"#utility.yul\":246:250   */\n  0x1f\n    /* \"#utility.yul\":238:244   */\n  dup4\n    /* \"#utility.yul\":234:251   */\n  add\n    /* \"#utility.yul\":230:257   */\n  slt\n    /* \"#utility.yul\":220:275   */\n  tag_19\n  jumpi\n    /* \"#utility.yul\":271:272   */\n  0x00\n    /* \"#utility.yul\":268:269   */\n  dup1\n    /* \"#utility.yul\":261:273   */\n  revert\n    /* \"#utility.yul\":220:275   */\ntag_19:\n    /* \"#utility.yul\":294:307   */\n  dup2\n  mload\n  sub(shl(0x40, 0x01), 0x01)\n    /* \"#utility.yul\":356:366   */\n  dup1\n  dup3\n  gt\n    /* \"#utility.yul\":353:389   */\n  iszero\n  tag_21\n  jumpi\n    /* \"#utility.yul\":369:387   */\n  tag_21\n  tag_10\n  jump\t// in\ntag_21:\n    /* \"#utility.yul\":444:446   */\n  0x40\n    /* \"#utility.yul\":438:447   */\n  mload\n    /* \"#utility.yul\":412:414   */\n  0x1f\n    /* \"#utility.yul\":498:511   */\n  dup4\n  add\n  not(0x1f)\n    /* \"#utility.yul\":494:516   */\n  swap1\n  dup2\n  and\n    /* \"#utility.yul\":518:520   */\n  0x3f\n    /* \"#utility.yul\":490:521   */\n  add\n    /* \"#utility.yul\":486:526   */\n  and\n    /* \"#utility.yul\":474:527   */\n  dup2\n  add\n  swap1\n    /* \"#utility.yul\":542:560   */\n  dup3\n  dup3\n  gt\n    /* \"#utility.yul\":562:584   */\n  dup2\n  dup4\n  lt\n    /* \"#utility.yul\":539:585   */\n  or\n    /* \"#utility.yul\":536:608   */\n  iszero\n  tag_23\n  jumpi\n    /* \"#utility.yul\":588:606   */\n  tag_23\n  tag_10\n  jump\t// in\ntag_23:\n    /* \"#utility.yul\":628:638   */\n  dup2\n    /* \"#utility.yul\":624:626   */\n  0x40\n    /* \"#utility.yul\":617:639   */\n  mstore\n    /* \"#utility.yul\":663:665   */\n  dup4\n    /* \"#utility.yul\":655:661   */\n  dup2\n    /* \"#utility.yul\":648:666   */\n  mstore\n    /* \"#utility.yul\":685:689   */\n  0x20\n    /* \"#utility.yul\":675:689   */\n  swap3\n  pop\n    /* \"#utility.yul\":730:733   */\n  dup7\n    /* \"#utility.yul\":725:727   */\n  dup4\n    /* \"#utility.yul\":720:722   */\n  dup6\n    /* \"#utility.yul\":712:718   */\n  dup9\n    /* \"#utility.yul\":708:723   */\n  add\n    /* \"#utility.yul\":704:728   */\n  add\n    /* \"#utility.yul\":701:734   */\n  gt\n    /* \"#utility.yul\":698:751   */\n  iszero\n  tag_24\n  jumpi\n    /* \"#utility.yul\":747:748   */\n  0x00\n    /* \"#utility.yul\":744:745   */\n  dup1\n    /* \"#utility.yul\":737:749   */\n  revert\n    /* \"#utility.yul\":698:751   */\ntag_24:\n    /* \"#utility.yul\":769:770   */\n  0x00\n    /* \"#utility.yul\":760:770   */\n  swap2\n  pop\n    /* \"#utility.yul\":779:912   */\ntag_25:\n    /* \"#utility.yul\":793:795   */\n  dup4\n    /* \"#utility.yul\":790:791   */\n  dup3\n    /* \"#utility.yul\":787:796   */\n  lt\n    /* \"#utility.yul\":779:912   */\n  iszero\n  tag_27\n  jumpi\n    /* \"#utility.yul\":881:895   */\n  dup6\n  dup3\n  add\n    /* \"#utility.yul\":877:900   */\n  dup4\n  add\n    /* \"#utility.yul\":871:901   */\n  mload\n    /* \"#utility.yul\":850:864   */\n  dup2\n  dup4\n  add\n    /* \"#utility.yul\":846:869   */\n  dup5\n  add\n    /* \"#utility.yul\":839:902   */\n  mstore\n    /* \"#utility.yul\":804:814   */\n  swap1\n  dup3\n  add\n  swap1\n    /* \"#utility.yul\":779:912   */\n  jump(tag_25)\ntag_27:\n    /* \"#utility.yul\":954:955   */\n  0x00\n    /* \"#utility.yul\":932:947   */\n  swap4\n  dup2\n  add\n    /* \"#utility.yul\":928:952   */\n  swap1\n  swap3\n  add\n    /* \"#utility.yul\":921:956   */\n  swap3\n  swap1\n  swap3\n  mstore\n    /* \"#utility.yul\":936:942   */\n  swap5\n    /* \"#utility.yul\":146:986   */\n  swap4\n  pop\n  pop\n  pop\n  pop\n  jump\t// out\n    /* \"#utility.yul\":991:1614   */\ntag_3:\n    /* \"#utility.yul\":1099:1105   */\n  0x00\n    /* \"#utility.yul\":1107:1113   */\n  dup1\n    /* \"#utility.yul\":1115:1121   */\n  0x00\n    /* \"#utility.yul\":1168:1170   */\n  0x60\n    /* \"#utility.yul\":1156:1165   */\n  dup5\n    /* \"#utility.yul\":1147:1154   */\n  dup7\n    /* \"#utility.yul\":1143:1166   */\n  sub\n    /* \"#utility.yul\":1139:1171   */\n  slt\n    /* \"#utility.yul\":1136:1188   */\n  iszero\n  tag_29\n  jumpi\n    /* \"#utility.yul\":1184:1185   */\n  0x00\n    /* \"#utility.yul\":1181:1182   */\n  dup1\n    /* \"#utility.yul\":1174:1186   */\n  revert\n    /* \"#utility.yul\":1136:1188   */\ntag_29:\n    /* \"#utility.yul\":1211:1227   */\n  dup4\n  mload\n  sub(shl(0x40, 0x01), 0x01)\n    /* \"#utility.yul\":1276:1290   */\n  dup1\n  dup3\n  gt\n    /* \"#utility.yul\":1273:1307   */\n  iszero\n  tag_30\n  jumpi\n    /* \"#utility.yul\":1303:1304   */\n  0x00\n    /* \"#utility.yul\":1300:1301   */\n  dup1\n    /* \"#utility.yul\":1293:1305   */\n  revert\n    /* \"#utility.yul\":1273:1307   */\ntag_30:\n    /* \"#utility.yul\":1326:1387   */\n  tag_31\n    /* \"#utility.yul\":1379:1386   */\n  dup8\n    /* \"#utility.yul\":1370:1376   */\n  dup4\n    /* \"#utility.yul\":1359:1368   */\n  dup9\n    /* \"#utility.yul\":1355:1377   */\n  add\n    /* \"#utility.yul\":1326:1387   */\n  tag_11\n  jump\t// in\ntag_31:\n    /* \"#utility.yul\":1316:1387   */\n  swap5\n  pop\n    /* \"#utility.yul\":1433:1435   */\n  0x20\n    /* \"#utility.yul\":1422:1431   */\n  dup7\n    /* \"#utility.yul\":1418:1436   */\n  add\n    /* \"#utility.yul\":1412:1437   */\n  mload\n    /* \"#utility.yul\":1396:1437   */\n  swap2\n  pop\n    /* \"#utility.yul\":1462:1464   */\n  dup1\n    /* \"#utility.yul\":1452:1460   */\n  dup3\n    /* \"#utility.yul\":1449:1465   */\n  gt\n    /* \"#utility.yul\":1446:1482   */\n  iszero\n  tag_32\n  jumpi\n    /* \"#utility.yul\":1478:1479   */\n  0x00\n    /* \"#utility.yul\":1475:1476   */\n  dup1\n    /* \"#utility.yul\":1468:1480   */\n  revert\n    /* \"#utility.yul\":1446:1482   */\ntag_32:\n  pop\n    /* \"#utility.yul\":1501:1564   */\n  tag_33\n    /* \"#utility.yul\":1556:1563   */\n  dup7\n    /* \"#utility.yul\":1545:1553   */\n  dup3\n    /* \"#utility.yul\":1534:1543   */\n  dup8\n    /* \"#utility.yul\":1530:1554   */\n  add\n    /* \"#utility.yul\":1501:1564   */\n  tag_11\n  jump\t// in\ntag_33:\n    /* \"#utility.yul\":1491:1564   */\n  swap3\n  pop\n  pop\n    /* \"#utility.yul\":1604:1606   */\n  0x40\n    /* \"#utility.yul\":1593:1602   */\n  dup5\n    /* \"#utility.yul\":1589:1607   */\n  add\n    /* \"#utility.yul\":1583:1608   */\n  mload\n    /* \"#utility.yul\":1573:1608   */\n  swap1\n  pop\n    /* \"#utility.yul\":991:1614   */\n  swap3\n  pop\n  swap3\n  pop\n  swap3\n  jump\t// out\n    /* \"#utility.yul\":1619:1999   */\ntag_12:\n    /* \"#utility.yul\":1698:1699   */\n  0x01\n    /* \"#utility.yul\":1694:1706   */\n  dup2\n  dup2\n  shr\n  swap1\n    /* \"#utility.yul\":1741:1753   */\n  dup3\n  and\n  dup1\n    /* \"#utility.yul\":1762:1823   */\n  tag_35\n  jumpi\n    /* \"#utility.yul\":1816:1820   */\n  0x7f\n    /* \"#utility.yul\":1808:1814   */\n  dup3\n    /* \"#utility.yul\":1804:1821   */\n  and\n    /* \"#utility.yul\":1794:1821   */\n  swap2\n  pop\n    /* \"#utility.yul\":1762:1823   */\ntag_35:\n    /* \"#utility.yul\":1869:1871   */\n  0x20\n    /* \"#utility.yul\":1861:1867   */\n  dup3\n    /* \"#utility.yul\":1858:1872   */\n  lt\n    /* \"#utility.yul\":1838:1856   */\n  dup2\n    /* \"#utility.yul\":1835:1873   */\n  sub\n    /* \"#utility.yul\":1832:1993   */\n  tag_36\n  jumpi\n    /* \"#utility.yul\":1915:1925   */\n  0x4e487b71\n    /* \"#utility.yul\":1910:1913   */\n  0xe0\n    /* \"#utility.yul\":1906:1926   */\n  shl\n    /* \"#utility.yul\":1903:1904   */\n  0x00\n    /* \"#utility.yul\":1896:1927   */\n  mstore\n    /* \"#utility.yul\":1950:1954   */\n  0x22\n    /* \"#utility.yul\":1947:1948   */\n  0x04\n    /* \"#utility.yul\":1940:1955   */\n  mstore\n    /* \"#utility.yul\":1978:1982   */\n  0x24\n    /* \"#utility.yul\":1975:1976   */\n  0x00\n    /* \"#utility.yul\":1968:1983   */\n  revert\n    /* \"#utility.yul\":1832:1993   */\ntag_36:\n  pop\n    /* \"#utility.yul\":1619:1999   */\n  swap2\n  swap1\n  pop\n  jump\t// out\n    /* \"#utility.yul\":2130:2675   */\ntag_14:\n    /* \"#utility.yul\":2232:2234   */\n  0x1f\n    /* \"#utility.yul\":2227:2230   */\n  dup3\n    /* \"#utility.yul\":2224:2235   */\n  gt\n    /* \"#utility.yul\":2221:2669   */\n  iszero\n  tag_39\n  jumpi\n    /* \"#utility.yul\":2268:2269   */\n  0x00\n    /* \"#utility.yul\":2293:2298   */\n  dup2\n    /* \"#utility.yul\":2289:2291   */\n  dup2\n    /* \"#utility.yul\":2282:2299   */\n  mstore\n    /* \"#utility.yul\":2338:2342   */\n  0x20\n    /* \"#utility.yul\":2334:2336   */\n  dup2\n    /* \"#utility.yul\":2324:2343   */\n  keccak256\n    /* \"#utility.yul\":2408:2410   */\n  0x1f\n    /* \"#utility.yul\":2396:2406   */\n  dup6\n    /* \"#utility.yul\":2392:2411   */\n  add\n    /* \"#utility.yul\":2389:2390   */\n  0x05\n    /* \"#utility.yul\":2385:2412   */\n  shr\n    /* \"#utility.yul\":2379:2383   */\n  dup2\n    /* \"#utility.yul\":2375:2413   */\n  add\n    /* \"#utility.yul\":2444:2448   */\n  0x20\n    /* \"#utility.yul\":2432:2442   */\n  dup7\n    /* \"#utility.yul\":2429:2449   */\n  lt\n    /* \"#utility.yul\":2426:2473   */\n  iszero\n  tag_40\n  jumpi\n  pop\n    /* \"#utility.yul\":2467:2471   */\n  dup1\n    /* \"#utility.yul\":2426:2473   */\ntag_40:\n    /* \"#utility.yul\":2522:2524   */\n  0x1f\n    /* \"#utility.yul\":2517:2520   */\n  dup6\n    /* \"#utility.yul\":2513:2525   */\n  add\n    /* \"#utility.yul\":2510:2511   */\n  0x05\n    /* \"#utility.yul\":2506:2526   */\n  shr\n    /* \"#utility.yul\":2500:2504   */\n  dup3\n    /* \"#utility.yul\":2496:2527   */\n  add\n    /* \"#utility.yul\":2486:2527   */\n  swap2\n  pop\n    /* \"#utility.yul\":2577:2659   */\ntag_41:\n    /* \"#utility.yul\":2595:2597   */\n  dup2\n    /* \"#utility.yul\":2588:2593   */\n  dup2\n    /* \"#utility.yul\":2585:2598   */\n  lt\n    /* \"#utility.yul\":2577:2659   */\n  iszero\n  tag_43\n  jumpi\n    /* \"#utility.yul\":2640:2657   */\n  dup3\n  dup2\n  sstore\n    /* \"#utility.yul\":2621:2622   */\n  0x01\n    /* \"#utility.yul\":2610:2623   */\n  add\n    /* \"#utility.yul\":2577:2659   */\n  jump(tag_41)\ntag_43:\n    /* \"#utility.yul\":2581:2584   */\n  pop\n  pop\n  pop\n    /* \"#utility.yul\":2221:2669   */\ntag_39:\n    /* \"#utility.yul\":2130:2675   */\n  pop\n  pop\n  pop\n  jump\t// out\n    /* \"#utility.yul\":2851:4203   */\ntag_7:\n    /* \"#utility.yul\":2971:2981   */\n  dup2\n  mload\n  sub(shl(0x40, 0x01), 0x01)\n    /* \"#utility.yul\":2993:3023   */\n  dup2\n  gt\n    /* \"#utility.yul\":2990:3046   */\n  iszero\n  tag_47\n  jumpi\n    /* \"#utility.yul\":3026:3044   */\n  tag_47\n  tag_10\n  jump\t// in\ntag_47:\n    /* \"#utility.yul\":3055:3152   */\n  tag_48\n    /* \"#utility.yul\":3145:3151   */\n  dup2\n    /* \"#utility.yul\":3105:3143   */\n  tag_49\n    /* \"#utility.yul\":3137:3141   */\n  dup5\n    /* \"#utility.yul\":3131:3142   */\n  sload\n    /* \"#utility.yul\":3105:3143   */\n  tag_12\n  jump\t// in\ntag_49:\n    /* \"#utility.yul\":3099:3103   */\n  dup5\n    /* \"#utility.yul\":3055:3152   */\n  tag_14\n  jump\t// in\ntag_48:\n    /* \"#utility.yul\":3207:3211   */\n  0x20\n  dup1\n    /* \"#utility.yul\":3271:3273   */\n  0x1f\n    /* \"#utility.yul\":3260:3274   */\n  dup4\n  gt\n    /* \"#utility.yul\":3288:3289   */\n  0x01\n    /* \"#utility.yul\":3283:3946   */\n  dup2\n  eq\n  tag_51\n  jumpi\n    /* \"#utility.yul\":3990:3991   */\n  0x00\n    /* \"#utility.yul\":4007:4013   */\n  dup5\n    /* \"#utility.yul\":4004:4093   */\n  iszero\n  tag_52\n  jumpi\n  pop\n    /* \"#utility.yul\":4059:4078   */\n  dup6\n  dup4\n  add\n    /* \"#utility.yul\":4053:4079   */\n  mload\n    /* \"#utility.yul\":4004:4093   */\ntag_52:\n  not(0x00)\n    /* \"#utility.yul\":2808:2809   */\n  0x03\n    /* \"#utility.yul\":2804:2815   */\n  dup7\n  swap1\n  shl\n    /* \"#utility.yul\":2800:2824   */\n  shr\n    /* \"#utility.yul\":2796:2825   */\n  not\n    /* \"#utility.yul\":2786:2826   */\n  and\n    /* \"#utility.yul\":2832:2833   */\n  0x01\n    /* \"#utility.yul\":2828:2839   */\n  dup6\n  swap1\n  shl\n    /* \"#utility.yul\":2783:2840   */\n  or\n    /* \"#utility.yul\":4106:4187   */\n  dup6\n  sstore\n    /* \"#utility.yul\":3253:4197   */\n  jump(tag_43)\n    /* \"#utility.yul\":3283:3946   */\ntag_51:\n    /* \"#utility.yul\":2077:2078   */\n  0x00\n    /* \"#utility.yul\":2070:2084   */\n  dup6\n  dup2\n  mstore\n    /* \"#utility.yul\":2114:2118   */\n  0x20\n    /* \"#utility.yul\":2101:2119   */\n  dup2\n  keccak256\n  not(0x1f)\n    /* \"#utility.yul\":3319:3339   */\n  dup7\n  and\n  swap2\n    /* \"#utility.yul\":3437:3673   */\ntag_55:\n    /* \"#utility.yul\":3451:3458   */\n  dup3\n    /* \"#utility.yul\":3448:3449   */\n  dup2\n    /* \"#utility.yul\":3445:3459   */\n  lt\n    /* \"#utility.yul\":3437:3673   */\n  iszero\n  tag_57\n  jumpi\n    /* \"#utility.yul\":3540:3559   */\n  dup9\n  dup7\n  add\n    /* \"#utility.yul\":3534:3560   */\n  mload\n    /* \"#utility.yul\":3519:3561   */\n  dup3\n  sstore\n    /* \"#utility.yul\":3632:3659   */\n  swap5\n  dup5\n  add\n  swap5\n    /* \"#utility.yul\":3600:3601   */\n  0x01\n    /* \"#utility.yul\":3588:3602   */\n  swap1\n  swap2\n  add\n  swap1\n    /* \"#utility.yul\":3467:3486   */\n  dup5\n  add\n    /* \"#utility.yul\":3437:3673   */\n  jump(tag_55)\ntag_57:\n    /* \"#utility.yul\":3441:3444   */\n  pop\n    /* \"#utility.yul\":3701:3707   */\n  dup6\n    /* \"#utility.yul\":3692:3699   */\n  dup3\n    /* \"#utility.yul\":3689:3708   */\n  lt\n    /* \"#utility.yul\":3686:3887   */\n  iszero\n  tag_58\n  jumpi\n    /* \"#utility.yul\":3762:3781   */\n  dup8\n  dup6\n  add\n    /* \"#utility.yul\":3756:3782   */\n  mload\n  not(0x00)\n    /* \"#utility.yul\":3845:3846   */\n  0x03\n    /* \"#utility.yul\":3841:3855   */\n  dup9\n  swap1\n  shl\n    /* \"#utility.yul\":3857:3860   */\n  0xf8\n    /* \"#utility.yul\":3837:3861   */\n  and\n    /* \"#utility.yul\":3833:3870   */\n  shr\n    /* \"#utility.yul\":3829:3871   */\n  not\n    /* \"#utility.yul\":3814:3872   */\n  and\n    /* \"#utility.yul\":3799:3873   */\n  dup2\n  sstore\n    /* \"#utility.yul\":3686:3887   */\ntag_58:\n  pop\n  pop\n  pop\n  pop\n  pop\n    /* \"#utility.yul\":3933:3934   */\n  0x01\n    /* \"#utility.yul\":3917:3931   */\n  swap1\n  dup2\n  shl\n    /* \"#utility.yul\":3913:3935   */\n  add\n    /* \"#utility.yul\":3900:3936   */\n  swap1\n  sstore\n  pop\n    /* \"#utility.yul\":2851:4203   */\n  jump\t// out\ntag_16:\n    /* \"Practice tokens/ERC - 20.sol\":175:1207  contract ERC_20{... */\n  dataSize(sub_0)\n  dup1\n  dataOffset(sub_0)\n  0x00\n  codecopy\n  0x00\n  return\nstop\n\nsub_0: assembly {\n        /* \"Practice tokens/ERC - 20.sol\":175:1207  contract ERC_20{... */\n      mstore(0x40, 0x80)\n      callvalue\n      dup1\n      iszero\n      tag_1\n      jumpi\n      0x00\n      dup1\n      revert\n    tag_1:\n      pop\n      jumpi(tag_2, lt(calldatasize, 0x04))\n      shr(0xe0, calldataload(0x00))\n      dup1\n      0x06fdde03\n      eq\n      tag_3\n      jumpi\n      dup1\n      0x12a2f685\n      eq\n      tag_4\n      jumpi\n      dup1\n      0x18160ddd\n      eq\n      tag_5\n      jumpi\n      dup1\n      0x313ce567\n      eq\n      tag_6\n      jumpi\n      dup1\n      0x70a08231\n      eq\n      tag_4\n      jumpi\n      dup1\n      0x95d89b41\n      eq\n      tag_8\n      jumpi\n    tag_2:\n      0x00\n      dup1\n      revert\n        /* \"Practice tokens/ERC - 20.sol\":197:216  string public  name */\n    tag_3:\n      tag_9\n      tag_10\n      jump\t// in\n    tag_9:\n      mload(0x40)\n      tag_11\n      swap2\n      swap1\n      tag_12\n      jump\t// in\n    tag_11:\n      mload(0x40)\n      dup1\n      swap2\n      sub\n      swap1\n      return\n        /* \"Practice tokens/ERC - 20.sol\":1041:1202  function balanceO(address _owner) public view returns(uint256){... */\n    tag_4:\n      tag_13\n      tag_14\n      calldatasize\n      0x04\n      tag_15\n      jump\t// in\n    tag_14:\n      tag_16\n      jump\t// in\n    tag_13:\n      mload(0x40)\n        /* \"#utility.yul\":1004:1029   */\n      swap1\n      dup2\n      mstore\n        /* \"#utility.yul\":992:994   */\n      0x20\n        /* \"#utility.yul\":977:995   */\n      add\n        /* \"Practice tokens/ERC - 20.sol\":1041:1202  function balanceO(address _owner) public view returns(uint256){... */\n      tag_11\n        /* \"#utility.yul\":858:1035   */\n      jump\n        /* \"Practice tokens/ERC - 20.sol\":280:306  uint256 public totalSupply */\n    tag_5:\n      tag_13\n      sload(0x03)\n      dup2\n      jump\n        /* \"Practice tokens/ERC - 20.sol\":251:273  uint8 public  decimals */\n    tag_6:\n      sload(0x02)\n      tag_22\n      swap1\n      0xff\n      and\n      dup2\n      jump\n    tag_22:\n      mload(0x40)\n        /* \"#utility.yul\":1212:1216   */\n      0xff\n        /* \"#utility.yul\":1200:1217   */\n      swap1\n      swap2\n      and\n        /* \"#utility.yul\":1182:1218   */\n      dup2\n      mstore\n        /* \"#utility.yul\":1170:1172   */\n      0x20\n        /* \"#utility.yul\":1155:1173   */\n      add\n        /* \"Practice tokens/ERC - 20.sol\":251:273  uint8 public  decimals */\n      tag_11\n        /* \"#utility.yul\":1040:1224   */\n      jump\n        /* \"Practice tokens/ERC - 20.sol\":223:244  string public  symbol */\n    tag_8:\n      tag_9\n      tag_31\n      jump\t// in\n        /* \"Practice tokens/ERC - 20.sol\":197:216  string public  name */\n    tag_10:\n      0x00\n      dup1\n      sload\n      tag_33\n      swap1\n      tag_34\n      jump\t// in\n    tag_33:\n      dup1\n      0x1f\n      add\n      0x20\n      dup1\n      swap2\n      div\n      mul\n      0x20\n      add\n      mload(0x40)\n      swap1\n      dup2\n      add\n      0x40\n      mstore\n      dup1\n      swap3\n      swap2\n      swap1\n      dup2\n      dup2\n      mstore\n      0x20\n      add\n      dup3\n      dup1\n      sload\n      tag_35\n      swap1\n      tag_34\n      jump\t// in\n    tag_35:\n      dup1\n      iszero\n      tag_36\n      jumpi\n      dup1\n      0x1f\n      lt\n      tag_37\n      jumpi\n      0x0100\n      dup1\n      dup4\n      sload\n      div\n      mul\n      dup4\n      mstore\n      swap2\n      0x20\n      add\n      swap2\n      jump(tag_36)\n    tag_37:\n      dup3\n      add\n      swap2\n      swap1\n      0x00\n      mstore\n      keccak256(0x00, 0x20)\n      swap1\n    tag_38:\n      dup2\n      sload\n      dup2\n      mstore\n      swap1\n      0x01\n      add\n      swap1\n      0x20\n      add\n      dup1\n      dup4\n      gt\n      tag_38\n      jumpi\n      dup3\n      swap1\n      sub\n      0x1f\n      and\n      dup3\n      add\n      swap2\n    tag_36:\n      pop\n      pop\n      pop\n      pop\n      pop\n      dup2\n      jump\t// out\n        /* \"Practice tokens/ERC - 20.sol\":1041:1202  function balanceO(address _owner) public view returns(uint256){... */\n    tag_16:\n        /* \"Practice tokens/ERC - 20.sol\":1095:1102  uint256 */\n      0x00\n      sub(shl(0xa0, 0x01), 0x01)\n        /* \"Practice tokens/ERC - 20.sol\":1122:1142  _owner != address(0) */\n      dup3\n      and\n        /* \"Practice tokens/ERC - 20.sol\":1114:1160  require(_owner != address(0),\" Not the owner\") */\n      tag_40\n      jumpi\n      mload(0x40)\n      shl(0xe5, 0x461bcd)\n      dup2\n      mstore\n        /* \"#utility.yul\":1816:1818   */\n      0x20\n        /* \"Practice tokens/ERC - 20.sol\":1114:1160  require(_owner != address(0),\" Not the owner\") */\n      0x04\n      dup3\n      add\n        /* \"#utility.yul\":1798:1819   */\n      mstore\n        /* \"#utility.yul\":1855:1857   */\n      0x0e\n        /* \"#utility.yul\":1835:1853   */\n      0x24\n      dup3\n      add\n        /* \"#utility.yul\":1828:1858   */\n      mstore\n      shl(0x91, 0x102737ba103a34329037bbb732b9)\n        /* \"#utility.yul\":1874:1892   */\n      0x44\n      dup3\n      add\n        /* \"#utility.yul\":1867:1911   */\n      mstore\n        /* \"#utility.yul\":1928:1946   */\n      0x64\n      add\n        /* \"Practice tokens/ERC - 20.sol\":1114:1160  require(_owner != address(0),\" Not the owner\") */\n      mload(0x40)\n      dup1\n      swap2\n      sub\n      swap1\n      revert\n    tag_40:\n      pop\n      sub(shl(0xa0, 0x01), 0x01)\n        /* \"Practice tokens/ERC - 20.sol\":1178:1194  balances[_owner] */\n      and\n      0x00\n      swap1\n      dup2\n      mstore\n        /* \"Practice tokens/ERC - 20.sol\":1178:1186  balances */\n      0x04\n        /* \"Practice tokens/ERC - 20.sol\":1178:1194  balances[_owner] */\n      0x20\n      mstore\n      0x40\n      swap1\n      keccak256\n      sload\n      swap1\n        /* \"Practice tokens/ERC - 20.sol\":1041:1202  function balanceO(address _owner) public view returns(uint256){... */\n      jump\t// out\n        /* \"Practice tokens/ERC - 20.sol\":223:244  string public  symbol */\n    tag_31:\n      0x01\n      dup1\n      sload\n      tag_33\n      swap1\n      tag_34\n      jump\t// in\n        /* \"#utility.yul\":14:562   */\n    tag_12:\n        /* \"#utility.yul\":126:130   */\n      0x00\n        /* \"#utility.yul\":155:157   */\n      0x20\n        /* \"#utility.yul\":184:186   */\n      dup1\n        /* \"#utility.yul\":173:182   */\n      dup4\n        /* \"#utility.yul\":166:187   */\n      mstore\n        /* \"#utility.yul\":216:222   */\n      dup4\n        /* \"#utility.yul\":210:223   */\n      mload\n        /* \"#utility.yul\":259:265   */\n      dup1\n        /* \"#utility.yul\":254:256   */\n      dup3\n        /* \"#utility.yul\":243:252   */\n      dup6\n        /* \"#utility.yul\":239:257   */\n      add\n        /* \"#utility.yul\":232:266   */\n      mstore\n        /* \"#utility.yul\":284:285   */\n      0x00\n        /* \"#utility.yul\":294:434   */\n    tag_53:\n        /* \"#utility.yul\":308:314   */\n      dup2\n        /* \"#utility.yul\":305:306   */\n      dup2\n        /* \"#utility.yul\":302:315   */\n      lt\n        /* \"#utility.yul\":294:434   */\n      iszero\n      tag_55\n      jumpi\n        /* \"#utility.yul\":403:417   */\n      dup6\n      dup2\n      add\n        /* \"#utility.yul\":399:422   */\n      dup4\n      add\n        /* \"#utility.yul\":393:423   */\n      mload\n        /* \"#utility.yul\":369:386   */\n      dup6\n      dup3\n      add\n        /* \"#utility.yul\":388:390   */\n      0x40\n        /* \"#utility.yul\":365:391   */\n      add\n        /* \"#utility.yul\":358:424   */\n      mstore\n        /* \"#utility.yul\":323:333   */\n      dup3\n      add\n        /* \"#utility.yul\":294:434   */\n      jump(tag_53)\n    tag_55:\n        /* \"#utility.yul\":298:301   */\n      pop\n        /* \"#utility.yul\":483:484   */\n      0x00\n        /* \"#utility.yul\":478:480   */\n      0x40\n        /* \"#utility.yul\":469:475   */\n      dup3\n        /* \"#utility.yul\":458:467   */\n      dup7\n        /* \"#utility.yul\":454:476   */\n      add\n        /* \"#utility.yul\":450:481   */\n      add\n        /* \"#utility.yul\":443:485   */\n      mstore\n        /* \"#utility.yul\":553:555   */\n      0x40\n        /* \"#utility.yul\":546:548   */\n      0x1f\n        /* \"#utility.yul\":542:549   */\n      not\n        /* \"#utility.yul\":537:539   */\n      0x1f\n        /* \"#utility.yul\":529:535   */\n      dup4\n        /* \"#utility.yul\":525:540   */\n      add\n        /* \"#utility.yul\":521:550   */\n      and\n        /* \"#utility.yul\":510:519   */\n      dup6\n        /* \"#utility.yul\":506:551   */\n      add\n        /* \"#utility.yul\":502:556   */\n      add\n        /* \"#utility.yul\":494:556   */\n      swap3\n      pop\n      pop\n      pop\n        /* \"#utility.yul\":14:562   */\n      swap3\n      swap2\n      pop\n      pop\n      jump\t// out\n        /* \"#utility.yul\":567:853   */\n    tag_15:\n        /* \"#utility.yul\":626:632   */\n      0x00\n        /* \"#utility.yul\":679:681   */\n      0x20\n        /* \"#utility.yul\":667:676   */\n      dup3\n        /* \"#utility.yul\":658:665   */\n      dup5\n        /* \"#utility.yul\":654:677   */\n      sub\n        /* \"#utility.yul\":650:682   */\n      slt\n        /* \"#utility.yul\":647:699   */\n      iszero\n      tag_57\n      jumpi\n        /* \"#utility.yul\":695:696   */\n      0x00\n        /* \"#utility.yul\":692:693   */\n      dup1\n        /* \"#utility.yul\":685:697   */\n      revert\n        /* \"#utility.yul\":647:699   */\n    tag_57:\n        /* \"#utility.yul\":721:744   */\n      dup2\n      calldataload\n      sub(shl(0xa0, 0x01), 0x01)\n        /* \"#utility.yul\":773:804   */\n      dup2\n      and\n        /* \"#utility.yul\":763:805   */\n      dup2\n      eq\n        /* \"#utility.yul\":753:823   */\n      tag_58\n      jumpi\n        /* \"#utility.yul\":819:820   */\n      0x00\n        /* \"#utility.yul\":816:817   */\n      dup1\n        /* \"#utility.yul\":809:821   */\n      revert\n        /* \"#utility.yul\":753:823   */\n    tag_58:\n        /* \"#utility.yul\":842:847   */\n      swap4\n        /* \"#utility.yul\":567:853   */\n      swap3\n      pop\n      pop\n      pop\n      jump\t// out\n        /* \"#utility.yul\":1229:1609   */\n    tag_34:\n        /* \"#utility.yul\":1308:1309   */\n      0x01\n        /* \"#utility.yul\":1304:1316   */\n      dup2\n      dup2\n      shr\n      swap1\n        /* \"#utility.yul\":1351:1363   */\n      dup3\n      and\n      dup1\n        /* \"#utility.yul\":1372:1433   */\n      tag_62\n      jumpi\n        /* \"#utility.yul\":1426:1430   */\n      0x7f\n        /* \"#utility.yul\":1418:1424   */\n      dup3\n        /* \"#utility.yul\":1414:1431   */\n      and\n        /* \"#utility.yul\":1404:1431   */\n      swap2\n      pop\n        /* \"#utility.yul\":1372:1433   */\n    tag_62:\n        /* \"#utility.yul\":1479:1481   */\n      0x20\n        /* \"#utility.yul\":1471:1477   */\n      dup3\n        /* \"#utility.yul\":1468:1482   */\n      lt\n        /* \"#utility.yul\":1448:1466   */\n      dup2\n        /* \"#utility.yul\":1445:1483   */\n      sub\n        /* \"#utility.yul\":1442:1603   */\n      tag_63\n      jumpi\n        /* \"#utility.yul\":1525:1535   */\n      0x4e487b71\n        /* \"#utility.yul\":1520:1523   */\n      0xe0\n        /* \"#utility.yul\":1516:1536   */\n      shl\n        /* \"#utility.yul\":1513:1514   */\n      0x00\n        /* \"#utility.yul\":1506:1537   */\n      mstore\n        /* \"#utility.yul\":1560:1564   */\n      0x22\n        /* \"#utility.yul\":1557:1558   */\n      0x04\n        /* \"#utility.yul\":1550:1565   */\n      mstore\n        /* \"#utility.yul\":1588:1592   */\n      0x24\n        /* \"#utility.yul\":1585:1586   */\n      0x00\n        /* \"#utility.yul\":1578:1593   */\n      revert\n        /* \"#utility.yul\":1442:1603   */\n    tag_63:\n      pop\n        /* \"#utility.yul\":1229:1609   */\n      swap2\n      swap1\n      pop\n      jump\t// out\n\n    auxdata: 0xa264697066735822122086e1a2fbf1d51471128a597ee7c585a0a90a1ec7c851419dbf7858319a3a350a64736f6c63430008140033\n}\n",
				"bytecode": {
					"linkReferences": {},
					"object": "608060405234801561001057600080fd5b506040516105b93803806105b983398101604081905261002f9161012e565b600061003b8482610223565b5060016100488382610223565b506002805460ff19166012179055600381905533600090815260046020526040902055506102e29050565b634e487b7160e01b600052604160045260246000fd5b600082601f83011261009a57600080fd5b81516001600160401b03808211156100b4576100b4610073565b604051601f8301601f19908116603f011681019082821181831017156100dc576100dc610073565b816040528381526020925086838588010111156100f857600080fd5b600091505b8382101561011a57858201830151818301840152908201906100fd565b600093810190920192909252949350505050565b60008060006060848603121561014357600080fd5b83516001600160401b038082111561015a57600080fd5b61016687838801610089565b9450602086015191508082111561017c57600080fd5b5061018986828701610089565b925050604084015190509250925092565b600181811c908216806101ae57607f821691505b6020821081036101ce57634e487b7160e01b600052602260045260246000fd5b50919050565b601f82111561021e57600081815260208120601f850160051c810160208610156101fb5750805b601f850160051c820191505b8181101561021a57828155600101610207565b5050505b505050565b81516001600160401b0381111561023c5761023c610073565b6102508161024a845461019a565b846101d4565b602080601f831160018114610285576000841561026d5750858301515b600019600386901b1c1916600185901b17855561021a565b600085815260208120601f198616915b828110156102b457888601518255948401946001909101908401610295565b50858210156102d25787850151600019600388901b60f8161c191681555b5050505050600190811b01905550565b6102c8806102f16000396000f3fe608060405234801561001057600080fd5b50600436106100625760003560e01c806306fdde031461006757806312a2f6851461008557806318160ddd146100a6578063313ce567146100af57806370a082311461008557806395d89b41146100ce575b600080fd5b61006f6100d6565b60405161007c91906101da565b60405180910390f35b610098610093366004610228565b610164565b60405190815260200161007c565b61009860035481565b6002546100bc9060ff1681565b60405160ff909116815260200161007c565b61006f6101cd565b600080546100e390610258565b80601f016020809104026020016040519081016040528092919081815260200182805461010f90610258565b801561015c5780601f106101315761010080835404028352916020019161015c565b820191906000526020600020905b81548152906001019060200180831161013f57829003601f168201915b505050505081565b60006001600160a01b0382166101b15760405162461bcd60e51b815260206004820152600e60248201526d102737ba103a34329037bbb732b960911b604482015260640160405180910390fd5b506001600160a01b031660009081526004602052604090205490565b600180546100e390610258565b600060208083528351808285015260005b81811015610207578581018301518582016040015282016101eb565b506000604082860101526040601f19601f8301168501019250505092915050565b60006020828403121561023a57600080fd5b81356001600160a01b038116811461025157600080fd5b9392505050565b600181811c9082168061026c57607f821691505b60208210810361028c57634e487b7160e01b600052602260045260246000fd5b5091905056fea264697066735822122086e1a2fbf1d51471128a597ee7c585a0a90a1ec7c851419dbf7858319a3a350a64736f6c63430008140033",
					"opcodes": "PUSH1 0x80 PUSH1 0x40 MSTORE CALLVALUE DUP1 ISZERO PUSH2 0x10 JUMPI PUSH1 0x0 DUP1 REVERT JUMPDEST POP PUSH1 0x40 MLOAD PUSH2 0x5B9 CODESIZE SUB DUP1 PUSH2 0x5B9 DUP4 CODECOPY DUP2 ADD PUSH1 0x40 DUP2 SWAP1 MSTORE PUSH2 0x2F SWAP2 PUSH2 0x12E JUMP JUMPDEST PUSH1 0x0 PUSH2 0x3B DUP5 DUP3 PUSH2 0x223 JUMP JUMPDEST POP PUSH1 0x1 PUSH2 0x48 DUP4 DUP3 PUSH2 0x223 JUMP JUMPDEST POP PUSH1 0x2 DUP1 SLOAD PUSH1 0xFF NOT AND PUSH1 0x12 OR SWAP1 SSTORE PUSH1 0x3 DUP2 SWAP1 SSTORE CALLER PUSH1 0x0 SWAP1 DUP2 MSTORE PUSH1 0x4 PUSH1 0x20 MSTORE PUSH1 0x40 SWAP1 KECCAK256 SSTORE POP PUSH2 0x2E2 SWAP1 POP JUMP JUMPDEST PUSH4 0x4E487B71 PUSH1 0xE0 SHL PUSH1 0x0 MSTORE PUSH1 0x41 PUSH1 0x4 MSTORE PUSH1 0x24 PUSH1 0x0 REVERT JUMPDEST PUSH1 0x0 DUP3 PUSH1 0x1F DUP4 ADD SLT PUSH2 0x9A JUMPI PUSH1 0x0 DUP1 REVERT JUMPDEST DUP2 MLOAD PUSH1 0x1 PUSH1 0x1 PUSH1 0x40 SHL SUB DUP1 DUP3 GT ISZERO PUSH2 0xB4 JUMPI PUSH2 0xB4 PUSH2 0x73 JUMP JUMPDEST PUSH1 0x40 MLOAD PUSH1 0x1F DUP4 ADD PUSH1 0x1F NOT SWAP1 DUP2 AND PUSH1 0x3F ADD AND DUP2 ADD SWAP1 DUP3 DUP3 GT DUP2 DUP4 LT OR ISZERO PUSH2 0xDC JUMPI PUSH2 0xDC PUSH2 0x73 JUMP JUMPDEST DUP2 PUSH1 0x40 MSTORE DUP4 DUP2 MSTORE PUSH1 0x20 SWAP3 POP DUP7 DUP4 DUP6 DUP9 ADD ADD GT ISZERO PUSH2 0xF8 JUMPI PUSH1 0x0 DUP1 REVERT JUMPDEST PUSH1 0x0 SWAP2 POP JUMPDEST DUP4 DUP3 LT ISZERO PUSH2 0x11A JUMPI DUP6 DUP3 ADD DUP4 ADD MLOAD DUP2 DUP4 ADD DUP5 ADD MSTORE SWAP1 DUP3 ADD SWAP1 PUSH2 0xFD JUMP JUMPDEST PUSH1 0x0 SWAP4 DUP2 ADD SWAP1 SWAP3 ADD SWAP3 SWAP1 SWAP3 MSTORE SWAP5 SWAP4 POP POP POP POP JUMP JUMPDEST PUSH1 0x0 DUP1 PUSH1 0x0 PUSH1 0x60 DUP5 DUP7 SUB SLT ISZERO PUSH2 0x143 JUMPI PUSH1 0x0 DUP1 REVERT JUMPDEST DUP4 MLOAD PUSH1 0x1 PUSH1 0x1 PUSH1 0x40 SHL SUB DUP1 DUP3 GT ISZERO PUSH2 0x15A JUMPI PUSH1 0x0 DUP1 REVERT JUMPDEST PUSH2 0x166 DUP8 DUP4 DUP9 ADD PUSH2 0x89 JUMP JUMPDEST SWAP5 POP PUSH1 0x20 DUP7 ADD MLOAD SWAP2 POP DUP1 DUP3 GT ISZERO PUSH2 0x17C JUMPI PUSH1 0x0 DUP1 REVERT JUMPDEST POP PUSH2 0x189 DUP7 DUP3 DUP8 ADD PUSH2 0x89 JUMP JUMPDEST SWAP3 POP POP PUSH1 0x40 DUP5 ADD MLOAD SWAP1 POP SWAP3 POP SWAP3 POP SWAP3 JUMP JUMPDEST PUSH1 0x1 DUP2 DUP2 SHR SWAP1 DUP3 AND DUP1 PUSH2 0x1AE JUMPI PUSH1 0x7F DUP3 AND SWAP2 POP JUMPDEST PUSH1 0x20 DUP3 LT DUP2 SUB PUSH2 0x1CE JUMPI PUSH4 0x4E487B71 PUSH1 0xE0 SHL PUSH1 0x0 MSTORE PUSH1 0x22 PUSH1 0x4 MSTORE PUSH1 0x24 PUSH1 0x0 REVERT JUMPDEST POP SWAP2 SWAP1 POP JUMP JUMPDEST PUSH1 0x1F DUP3 GT ISZERO PUSH2 0x21E JUMPI PUSH1 0x0 DUP2 DUP2 MSTORE PUSH1 0x20 DUP2 KECCAK256 PUSH1 0x1F DUP6 ADD PUSH1 0x5 SHR DUP2 ADD PUSH1 0x20 DUP7 LT ISZERO PUSH2 0x1FB JUMPI POP DUP1 JUMPDEST PUSH1 0x1F DUP6 ADD PUSH1 0x5 SHR DUP3 ADD SWAP2 POP JUMPDEST DUP2 DUP2 LT ISZERO PUSH2 0x21A JUMPI DUP3 DUP2 SSTORE PUSH1 0x1 ADD PUSH2 0x207 JUMP JUMPDEST POP POP POP JUMPDEST POP POP POP JUMP JUMPDEST DUP2 MLOAD PUSH1 0x1 PUSH1 0x1 PUSH1 0x40 SHL SUB DUP2 GT ISZERO PUSH2 0x23C JUMPI PUSH2 0x23C PUSH2 0x73 JUMP JUMPDEST PUSH2 0x250 DUP2 PUSH2 0x24A DUP5 SLOAD PUSH2 0x19A JUMP JUMPDEST DUP5 PUSH2 0x1D4 JUMP JUMPDEST PUSH1 0x20 DUP1 PUSH1 0x1F DUP4 GT PUSH1 0x1 DUP2 EQ PUSH2 0x285 JUMPI PUSH1 0x0 DUP5 ISZERO PUSH2 0x26D JUMPI POP DUP6 DUP4 ADD MLOAD JUMPDEST PUSH1 0x0 NOT PUSH1 0x3 DUP7 SWAP1 SHL SHR NOT AND PUSH1 0x1 DUP6 SWAP1 SHL OR DUP6 SSTORE PUSH2 0x21A JUMP JUMPDEST PUSH1 0x0 DUP6 DUP2 MSTORE PUSH1 0x20 DUP2 KECCAK256 PUSH1 0x1F NOT DUP7 AND SWAP2 JUMPDEST DUP3 DUP2 LT ISZERO PUSH2 0x2B4 JUMPI DUP9 DUP7 ADD MLOAD DUP3 SSTORE SWAP5 DUP5 ADD SWAP5 PUSH1 0x1 SWAP1 SWAP2 ADD SWAP1 DUP5 ADD PUSH2 0x295 JUMP JUMPDEST POP DUP6 DUP3 LT ISZERO PUSH2 0x2D2 JUMPI DUP8 DUP6 ADD MLOAD PUSH1 0x0 NOT PUSH1 0x3 DUP9 SWAP1 SHL PUSH1 0xF8 AND SHR NOT AND DUP2 SSTORE JUMPDEST POP POP POP POP POP PUSH1 0x1 SWAP1 DUP2 SHL ADD SWAP1 SSTORE POP JUMP JUMPDEST PUSH2 0x2C8 DUP1 PUSH2 0x2F1 PUSH1 0x0 CODECOPY PUSH1 0x0 RETURN INVALID PUSH1 0x80 PUSH1 0x40 MSTORE CALLVALUE DUP1 ISZERO PUSH2 0x10 JUMPI PUSH1 0x0 DUP1 REVERT JUMPDEST POP PUSH1 0x4 CALLDATASIZE LT PUSH2 0x62 JUMPI PUSH1 0x0 CALLDATALOAD PUSH1 0xE0 SHR DUP1 PUSH4 0x6FDDE03 EQ PUSH2 0x67 JUMPI DUP1 PUSH4 0x12A2F685 EQ PUSH2 0x85 JUMPI DUP1 PUSH4 0x18160DDD EQ PUSH2 0xA6 JUMPI DUP1 PUSH4 0x313CE567 EQ PUSH2 0xAF JUMPI DUP1 PUSH4 0x70A08231 EQ PUSH2 0x85 JUMPI DUP1 PUSH4 0x95D89B41 EQ PUSH2 0xCE JUMPI JUMPDEST PUSH1 0x0 DUP1 REVERT JUMPDEST PUSH2 0x6F PUSH2 0xD6 JUMP JUMPDEST PUSH1 0x40 MLOAD PUSH2 0x7C SWAP2 SWAP1 PUSH2 0x1DA JUMP JUMPDEST PUSH1 0x40 MLOAD DUP1 SWAP2 SUB SWAP1 RETURN JUMPDEST PUSH2 0x98 PUSH2 0x93 CALLDATASIZE PUSH1 0x4 PUSH2 0x228 JUMP JUMPDEST PUSH2 0x164 JUMP JUMPDEST PUSH1 0x40 MLOAD SWAP1 DUP2 MSTORE PUSH1 0x20 ADD PUSH2 0x7C JUMP JUMPDEST PUSH2 0x98 PUSH1 0x3 SLOAD DUP2 JUMP JUMPDEST PUSH1 0x2 SLOAD PUSH2 0xBC SWAP1 PUSH1 0xFF AND DUP2 JUMP JUMPDEST PUSH1 0x40 MLOAD PUSH1 0xFF SWAP1 SWAP2 AND DUP2 MSTORE PUSH1 0x20 ADD PUSH2 0x7C JUMP JUMPDEST PUSH2 0x6F PUSH2 0x1CD JUMP JUMPDEST PUSH1 0x0 DUP1 SLOAD PUSH2 0xE3 SWAP1 PUSH2 0x258 JUMP JUMPDEST DUP1 PUSH1 0x1F ADD PUSH1 0x20 DUP1 SWAP2 DIV MUL PUSH1 0x20 ADD PUSH1 0x40 MLOAD SWAP1 DUP2 ADD PUSH1 0x40 MSTORE DUP1 SWAP3 SWAP2 SWAP1 DUP2 DUP2 MSTORE PUSH1 0x20 ADD DUP3 DUP1 SLOAD PUSH2 0x10F SWAP1 PUSH2 0x258 JUMP JUMPDEST DUP1 ISZERO PUSH2 0x15C JUMPI DUP1 PUSH1 0x1F LT PUSH2 0x131 JUMPI PUSH2 0x100 DUP1 DUP4 SLOAD DIV MUL DUP4 MSTORE SWAP2 PUSH1 0x20 ADD SWAP2 PUSH2 0x15C JUMP JUMPDEST DUP3 ADD SWAP2 SWAP1 PUSH1 0x0 MSTORE PUSH1 0x20 PUSH1 0x0 KECCAK256 SWAP1 JUMPDEST DUP2 SLOAD DUP2 MSTORE SWAP1 PUSH1 0x1 ADD SWAP1 PUSH1 0x20 ADD DUP1 DUP4 GT PUSH2 0x13F JUMPI DUP3 SWAP1 SUB PUSH1 0x1F AND DUP3 ADD SWAP2 JUMPDEST POP POP POP POP POP DUP2 JUMP JUMPDEST PUSH1 0x0 PUSH1 0x1 PUSH1 0x1 PUSH1 0xA0 SHL SUB DUP3 AND PUSH2 0x1B1 JUMPI PUSH1 0x40 MLOAD PUSH3 0x461BCD PUSH1 0xE5 SHL DUP2 MSTORE PUSH1 0x20 PUSH1 0x4 DUP3 ADD MSTORE PUSH1 0xE PUSH1 0x24 DUP3 ADD MSTORE PUSH14 0x102737BA103A34329037BBB732B9 PUSH1 0x91 SHL PUSH1 0x44 DUP3 ADD MSTORE PUSH1 0x64 ADD PUSH1 0x40 MLOAD DUP1 SWAP2 SUB SWAP1 REVERT JUMPDEST POP PUSH1 0x1 PUSH1 0x1 PUSH1 0xA0 SHL SUB AND PUSH1 0x0 SWAP1 DUP2 MSTORE PUSH1 0x4 PUSH1 0x20 MSTORE PUSH1 0x40 SWAP1 KECCAK256 SLOAD SWAP1 JUMP JUMPDEST PUSH1 0x1 DUP1 SLOAD PUSH2 0xE3 SWAP1 PUSH2 0x258 JUMP JUMPDEST PUSH1 0x0 PUSH1 0x20 DUP1 DUP4 MSTORE DUP4 MLOAD DUP1 DUP3 DUP6 ADD MSTORE PUSH1 0x0 JUMPDEST DUP2 DUP2 LT ISZERO PUSH2 0x207 JUMPI DUP6 DUP2 ADD DUP4 ADD MLOAD DUP6 DUP3 ADD PUSH1 0x40 ADD MSTORE DUP3 ADD PUSH2 0x1EB JUMP JUMPDEST POP PUSH1 0x0 PUSH1 0x40 DUP3 DUP7 ADD ADD MSTORE PUSH1 0x40 PUSH1 0x1F NOT PUSH1 0x1F DUP4 ADD AND DUP6 ADD ADD SWAP3 POP POP POP SWAP3 SWAP2 POP POP JUMP JUMPDEST PUSH1 0x0 PUSH1 0x20 DUP3 DUP5 SUB SLT ISZERO PUSH2 0x23A JUMPI PUSH1 0x0 DUP1 REVERT JUMPDEST DUP2 CALLDATALOAD PUSH1 0x1 PUSH1 0x1 PUSH1 0xA0 SHL SUB DUP2 AND DUP2 EQ PUSH2 0x251 JUMPI PUSH1 0x0 DUP1 REVERT JUMPDEST SWAP4 SWAP3 POP POP POP JUMP JUMPDEST PUSH1 0x1 DUP2 DUP2 SHR SWAP1 DUP3 AND DUP1 PUSH2 0x26C JUMPI PUSH1 0x7F DUP3 AND SWAP2 POP JUMPDEST PUSH1 0x20 DUP3 LT DUP2 SUB PUSH2 0x28C JUMPI PUSH4 0x4E487B71 PUSH1 0xE0 SHL PUSH1 0x0 MSTORE PUSH1 0x22 PUSH1 0x4 MSTORE PUSH1 0x24 PUSH1 0x0 REVERT JUMPDEST POP SWAP2 SWAP1 POP JUMP INVALID LOG2 PUSH5 0x6970667358 0x22 SLT KECCAK256 DUP7 0xE1 LOG2 0xFB CALL 0xD5 EQ PUSH18 0x128A597EE7C585A0A90A1EC7C851419DBF78 PC BALANCE SWAP11 GASPRICE CALLDATALOAD EXP PUSH5 0x736F6C6343 STOP ADDMOD EQ STOP CALLER "
				},
				"gasEstimates": {
					"creation": {
						"codeDepositCost": "142400",
						"executionCost": "infinite",
						"totalCost": "infinite"
					},
					"external": {
						"balanceO(address)": "2554",
						"balanceOf(address)": "2620",
						"decimals()": "2357",
						"name()": "infinite",
						"symbol()": "infinite",
						"totalSupply()": "2317"
					}
				},
				"methodIdentifiers": {
					"balanceO(address)": "12a2f685",
					"balanceOf(address)": "70a08231",
					"decimals()": "313ce567",
					"name()": "06fdde03",
					"symbol()": "95d89b41",
					"totalSupply()": "18160ddd"
				}
			},
			"storageLayout": {
				"storage": [
					{
						"astId": 4,
						"contract": "Practice tokens/ERC - 20.sol:ERC_20",
						"label": "name",
						"offset": 0,
						"slot": "0",
						"type": "t_string_storage"
					},
					{
						"astId": 6,
						"contract": "Practice tokens/ERC - 20.sol:ERC_20",
						"label": "symbol",
						"offset": 0,
						"slot": "1",
						"type": "t_string_storage"
					},
					{
						"astId": 8,
						"contract": "Practice tokens/ERC - 20.sol:ERC_20",
						"label": "decimals",
						"offset": 0,
						"slot": "2",
						"type": "t_uint8"
					},
					{
						"astId": 10,
						"contract": "Practice tokens/ERC - 20.sol:ERC_20",
						"label": "totalSupply",
						"offset": 0,
						"slot": "3",
						"type": "t_uint256"
					},
					{
						"astId": 14,
						"contract": "Practice tokens/ERC - 20.sol:ERC_20",
						"label": "balances",
						"offset": 0,
						"slot": "4",
						"type": "t_mapping(t_address,t_uint256)"
					},
					{
						"astId": 20,
						"contract": "Practice tokens/ERC - 20.sol:ERC_20",
						"label": "allowance",
						"offset": 0,
						"slot": "5",
						"type": "t_mapping(t_address,t_mapping(t_address,t_uint256))"
					}
				],
				"types": {
					"t_address": {
						"encoding": "inplace",
						"label": "address",
						"numberOfBytes": "20"
					},
					"t_mapping(t_address,t_mapping(t_address,t_uint256))": {
						"encoding": "mapping",
						"key": "t_address",
						"label": "mapping(address => mapping(address => uint256))",
						"numberOfBytes": "32",
						"value": "t_mapping(t_address,t_uint256)"
					},
					"t_mapping(t_address,t_uint256)": {
						"encoding": "mapping",
						"key": "t_address",
						"label": "mapping(address => uint256)",
						"numberOfBytes": "32",
						"value": "t_uint256"
					},
					"t_string_storage": {
						"encoding": "bytes",
						"label": "string",
						"numberOfBytes": "32"
					},
					"t_uint256": {
						"encoding": "inplace",
						"label": "uint256",
						"numberOfBytes": "32"
					},
					"t_uint8": {
						"encoding": "inplace",
						"label": "uint8",
						"numberOfBytes": "1"
					}
				}
			},
			"userdoc": {
				"kind": "user",
				"methods": {},
				"version": 1
			}
		}
	}
}