{
	"Practice tokens/Auction.sol": {
		"finaL": {
			"abi": [
				{
					"anonymous": false,
					"inputs": [
						{
							"indexed": false,
							"internalType": "address",
							"name": "_address",
							"type": "address"
						},
						{
							"indexed": false,
							"internalType": "uint256",
							"name": "_bidamount",
							"type": "uint256"
						}
					],
					"name": "Bid",
					"type": "event"
				},
				{
					"anonymous": false,
					"inputs": [
						{
							"indexed": false,
							"internalType": "address",
							"name": "owner",
							"type": "address"
						},
						{
							"indexed": false,
							"internalType": "uint256",
							"name": "id",
							"type": "uint256"
						},
						{
							"indexed": false,
							"internalType": "string",
							"name": "name",
							"type": "string"
						}
					],
					"name": "createItem",
					"type": "event"
				},
				{
					"anonymous": false,
					"inputs": [
						{
							"indexed": false,
							"internalType": "address",
							"name": "_from",
							"type": "address"
						},
						{
							"indexed": false,
							"internalType": "address",
							"name": "_to",
							"type": "address"
						},
						{
							"components": [
								{
									"internalType": "string",
									"name": "name",
									"type": "string"
								},
								{
									"internalType": "address",
									"name": "owner",
									"type": "address"
								},
								{
									"internalType": "uint256",
									"name": "lastBid",
									"type": "uint256"
								},
								{
									"internalType": "uint256",
									"name": "highestBid",
									"type": "uint256"
								},
								{
									"internalType": "address",
									"name": "highestBider",
									"type": "address"
								},
								{
									"internalType": "uint256",
									"name": "auction_time",
									"type": "uint256"
								},
								{
									"internalType": "address",
									"name": "lastHighestBider",
									"type": "address"
								}
							],
							"indexed": false,
							"internalType": "struct finaL.itemD",
							"name": "_item",
							"type": "tuple"
						}
					],
					"name": "transfer",
					"type": "event"
				},
				{
					"inputs": [
						{
							"internalType": "string",
							"name": "_name",
							"type": "string"
						}
					],
					"name": "CreateItem",
					"outputs": [],
					"stateMutability": "nonpayable",
					"type": "function"
				},
				{
					"inputs": [
						{
							"internalType": "uint256",
							"name": "id",
							"type": "uint256"
						}
					],
					"name": "auctionEnd",
					"outputs": [],
					"stateMutability": "payable",
					"type": "function"
				},
				{
					"inputs": [
						{
							"internalType": "uint256",
							"name": "id",
							"type": "uint256"
						}
					],
					"name": "cancelAuction",
					"outputs": [],
					"stateMutability": "nonpayable",
					"type": "function"
				},
				{
					"inputs": [],
					"name": "contractAddress",
					"outputs": [
						{
							"internalType": "address",
							"name": "",
							"type": "address"
						}
					],
					"stateMutability": "view",
					"type": "function"
				},
				{
					"inputs": [
						{
							"internalType": "uint256",
							"name": "id",
							"type": "uint256"
						}
					],
					"name": "getHighestBid",
					"outputs": [
						{
							"internalType": "uint256",
							"name": "",
							"type": "uint256"
						}
					],
					"stateMutability": "view",
					"type": "function"
				},
				{
					"inputs": [
						{
							"internalType": "uint256",
							"name": "id",
							"type": "uint256"
						}
					],
					"name": "getWinningBidder",
					"outputs": [
						{
							"internalType": "address",
							"name": "",
							"type": "address"
						}
					],
					"stateMutability": "view",
					"type": "function"
				},
				{
					"inputs": [
						{
							"internalType": "uint256",
							"name": "",
							"type": "uint256"
						}
					],
					"name": "itemDetails",
					"outputs": [
						{
							"internalType": "string",
							"name": "name",
							"type": "string"
						},
						{
							"internalType": "address",
							"name": "owner",
							"type": "address"
						},
						{
							"internalType": "uint256",
							"name": "lastBid",
							"type": "uint256"
						},
						{
							"internalType": "uint256",
							"name": "highestBid",
							"type": "uint256"
						},
						{
							"internalType": "address",
							"name": "highestBider",
							"type": "address"
						},
						{
							"internalType": "uint256",
							"name": "auction_time",
							"type": "uint256"
						},
						{
							"internalType": "address",
							"name": "lastHighestBider",
							"type": "address"
						}
					],
					"stateMutability": "view",
					"type": "function"
				},
				{
					"inputs": [
						{
							"internalType": "uint256",
							"name": "id",
							"type": "uint256"
						}
					],
					"name": "placeBid",
					"outputs": [],
					"stateMutability": "payable",
					"type": "function"
				}
			],
			"devdoc": {
				"kind": "dev",
				"methods": {},
				"version": 1
			},
			"evm": {
				"assembly": "    /* \"Practice tokens/Auction.sol\":62:2857  contract finaL  {... */\n  mstore(0x40, 0x80)\n    /* \"Practice tokens/Auction.sol\":328:329  1 */\n  0x01\n    /* \"Practice tokens/Auction.sol\":315:329  uint itemID =1 */\n  0x00\n  sstore\n    /* \"Practice tokens/Auction.sol\":62:2857  contract finaL  {... */\n  callvalue\n  dup1\n  iszero\n  tag_1\n  jumpi\n  0x00\n  dup1\n  revert\ntag_1:\n  pop\n  dataSize(sub_0)\n  dup1\n  dataOffset(sub_0)\n  0x00\n  codecopy\n  0x00\n  return\nstop\n\nsub_0: assembly {\n        /* \"Practice tokens/Auction.sol\":62:2857  contract finaL  {... */\n      mstore(0x40, 0x80)\n      jumpi(tag_1, lt(calldatasize, 0x04))\n      shr(0xe0, calldataload(0x00))\n      dup1\n      0x8f288644\n      gt\n      tag_10\n      jumpi\n      dup1\n      0x8f288644\n      eq\n      tag_6\n      jumpi\n      dup1\n      0x96b5a755\n      eq\n      tag_7\n      jumpi\n      dup1\n      0x9979ef45\n      eq\n      tag_8\n      jumpi\n      dup1\n      0xf6b4dfb4\n      eq\n      tag_9\n      jumpi\n      jump(tag_1)\n    tag_10:\n      dup1\n      0x1fb4e3f0\n      eq\n      tag_2\n      jumpi\n      dup1\n      0x2fa23689\n      eq\n      tag_3\n      jumpi\n      dup1\n      0x32246e9f\n      eq\n      tag_4\n      jumpi\n      dup1\n      0x6c7be44b\n      eq\n      tag_5\n      jumpi\n    tag_1:\n      0x00\n      dup1\n      revert\n        /* \"Practice tokens/Auction.sol\":362:403  mapping(uint => itemD) public itemDetails */\n    tag_2:\n      callvalue\n      dup1\n      iszero\n      tag_11\n      jumpi\n      0x00\n      dup1\n      revert\n    tag_11:\n      pop\n      tag_12\n      0x04\n      dup1\n      calldatasize\n      sub\n      dup2\n      add\n      swap1\n      tag_13\n      swap2\n      swap1\n      tag_14\n      jump\t// in\n    tag_13:\n      tag_15\n      jump\t// in\n    tag_12:\n      mload(0x40)\n      tag_16\n      swap8\n      swap7\n      swap6\n      swap5\n      swap4\n      swap3\n      swap2\n      swap1\n      tag_17\n      jump\t// in\n    tag_16:\n      mload(0x40)\n      dup1\n      swap2\n      sub\n      swap1\n      return\n        /* \"Practice tokens/Auction.sol\":1954:2074  function getWinningBidder(uint256 id) public view returns(address){... */\n    tag_3:\n      callvalue\n      dup1\n      iszero\n      tag_18\n      jumpi\n      0x00\n      dup1\n      revert\n    tag_18:\n      pop\n      tag_19\n      0x04\n      dup1\n      calldatasize\n      sub\n      dup2\n      add\n      swap1\n      tag_20\n      swap2\n      swap1\n      tag_14\n      jump\t// in\n    tag_20:\n      tag_21\n      jump\t// in\n    tag_19:\n      mload(0x40)\n      tag_22\n      swap2\n      swap1\n      tag_23\n      jump\t// in\n    tag_22:\n      mload(0x40)\n      dup1\n      swap2\n      sub\n      swap1\n      return\n        /* \"Practice tokens/Auction.sol\":2355:2747  function auctionEnd(uint256 id) public payable {... */\n    tag_4:\n      tag_24\n      0x04\n      dup1\n      calldatasize\n      sub\n      dup2\n      add\n      swap1\n      tag_25\n      swap2\n      swap1\n      tag_14\n      jump\t// in\n    tag_25:\n      tag_26\n      jump\t// in\n    tag_24:\n      stop\n        /* \"Practice tokens/Auction.sol\":624:1162  function CreateItem( string memory _name) public {... */\n    tag_5:\n      callvalue\n      dup1\n      iszero\n      tag_27\n      jumpi\n      0x00\n      dup1\n      revert\n    tag_27:\n      pop\n      tag_28\n      0x04\n      dup1\n      calldatasize\n      sub\n      dup2\n      add\n      swap1\n      tag_29\n      swap2\n      swap1\n      tag_30\n      jump\t// in\n    tag_29:\n      tag_31\n      jump\t// in\n    tag_28:\n      stop\n        /* \"Practice tokens/Auction.sol\":1829:1946  function getHighestBid( uint256 id) public view returns(uint256) {... */\n    tag_6:\n      callvalue\n      dup1\n      iszero\n      tag_32\n      jumpi\n      0x00\n      dup1\n      revert\n    tag_32:\n      pop\n      tag_33\n      0x04\n      dup1\n      calldatasize\n      sub\n      dup2\n      add\n      swap1\n      tag_34\n      swap2\n      swap1\n      tag_14\n      jump\t// in\n    tag_34:\n      tag_35\n      jump\t// in\n    tag_33:\n      mload(0x40)\n      tag_36\n      swap2\n      swap1\n      tag_37\n      jump\t// in\n    tag_36:\n      mload(0x40)\n      dup1\n      swap2\n      sub\n      swap1\n      return\n        /* \"Practice tokens/Auction.sol\":2082:2347  function cancelAuction( uint256 id) public  {... */\n    tag_7:\n      callvalue\n      dup1\n      iszero\n      tag_38\n      jumpi\n      0x00\n      dup1\n      revert\n    tag_38:\n      pop\n      tag_39\n      0x04\n      dup1\n      calldatasize\n      sub\n      dup2\n      add\n      swap1\n      tag_40\n      swap2\n      swap1\n      tag_14\n      jump\t// in\n    tag_40:\n      tag_41\n      jump\t// in\n    tag_39:\n      stop\n        /* \"Practice tokens/Auction.sol\":1170:1821  function placeBid(uint256 id) public payable  {... */\n    tag_8:\n      tag_42\n      0x04\n      dup1\n      calldatasize\n      sub\n      dup2\n      add\n      swap1\n      tag_43\n      swap2\n      swap1\n      tag_14\n      jump\t// in\n    tag_43:\n      tag_44\n      jump\t// in\n    tag_42:\n      stop\n        /* \"Practice tokens/Auction.sol\":2756:2852  function contractAddress() external view returns(address){... */\n    tag_9:\n      callvalue\n      dup1\n      iszero\n      tag_45\n      jumpi\n      0x00\n      dup1\n      revert\n    tag_45:\n      pop\n      tag_46\n      tag_47\n      jump\t// in\n    tag_46:\n      mload(0x40)\n      tag_48\n      swap2\n      swap1\n      tag_23\n      jump\t// in\n    tag_48:\n      mload(0x40)\n      dup1\n      swap2\n      sub\n      swap1\n      return\n        /* \"Practice tokens/Auction.sol\":362:403  mapping(uint => itemD) public itemDetails */\n    tag_15:\n      mstore(0x20, 0x01)\n      dup1\n      0x00\n      mstore\n      keccak256(0x00, 0x40)\n      0x00\n      swap2\n      pop\n      swap1\n      pop\n      dup1\n      0x00\n      add\n      dup1\n      sload\n      tag_49\n      swap1\n      tag_50\n      jump\t// in\n    tag_49:\n      dup1\n      0x1f\n      add\n      0x20\n      dup1\n      swap2\n      div\n      mul\n      0x20\n      add\n      mload(0x40)\n      swap1\n      dup2\n      add\n      0x40\n      mstore\n      dup1\n      swap3\n      swap2\n      swap1\n      dup2\n      dup2\n      mstore\n      0x20\n      add\n      dup3\n      dup1\n      sload\n      tag_51\n      swap1\n      tag_50\n      jump\t// in\n    tag_51:\n      dup1\n      iszero\n      tag_52\n      jumpi\n      dup1\n      0x1f\n      lt\n      tag_53\n      jumpi\n      0x0100\n      dup1\n      dup4\n      sload\n      div\n      mul\n      dup4\n      mstore\n      swap2\n      0x20\n      add\n      swap2\n      jump(tag_52)\n    tag_53:\n      dup3\n      add\n      swap2\n      swap1\n      0x00\n      mstore\n      keccak256(0x00, 0x20)\n      swap1\n    tag_54:\n      dup2\n      sload\n      dup2\n      mstore\n      swap1\n      0x01\n      add\n      swap1\n      0x20\n      add\n      dup1\n      dup4\n      gt\n      tag_54\n      jumpi\n      dup3\n      swap1\n      sub\n      0x1f\n      and\n      dup3\n      add\n      swap2\n    tag_52:\n      pop\n      pop\n      pop\n      pop\n      pop\n      swap1\n      dup1\n      0x01\n      add\n      0x00\n      swap1\n      sload\n      swap1\n      0x0100\n      exp\n      swap1\n      div\n      0xffffffffffffffffffffffffffffffffffffffff\n      and\n      swap1\n      dup1\n      0x02\n      add\n      sload\n      swap1\n      dup1\n      0x03\n      add\n      sload\n      swap1\n      dup1\n      0x04\n      add\n      0x00\n      swap1\n      sload\n      swap1\n      0x0100\n      exp\n      swap1\n      div\n      0xffffffffffffffffffffffffffffffffffffffff\n      and\n      swap1\n      dup1\n      0x05\n      add\n      sload\n      swap1\n      dup1\n      0x06\n      add\n      0x00\n      swap1\n      sload\n      swap1\n      0x0100\n      exp\n      swap1\n      div\n      0xffffffffffffffffffffffffffffffffffffffff\n      and\n      swap1\n      pop\n      dup8\n      jump\t// out\n        /* \"Practice tokens/Auction.sol\":1954:2074  function getWinningBidder(uint256 id) public view returns(address){... */\n    tag_21:\n        /* \"Practice tokens/Auction.sol\":2012:2019  address */\n      0x00\n        /* \"Practice tokens/Auction.sol\":2038:2049  itemDetails */\n      0x01\n        /* \"Practice tokens/Auction.sol\":2038:2053  itemDetails[id] */\n      0x00\n        /* \"Practice tokens/Auction.sol\":2050:2052  id */\n      dup4\n        /* \"Practice tokens/Auction.sol\":2038:2053  itemDetails[id] */\n      dup2\n      mstore\n      0x20\n      add\n      swap1\n      dup2\n      mstore\n      0x20\n      add\n      0x00\n      keccak256\n        /* \"Practice tokens/Auction.sol\":2038:2066  itemDetails[id].highestBider */\n      0x04\n      add\n      0x00\n      swap1\n      sload\n      swap1\n      0x0100\n      exp\n      swap1\n      div\n      0xffffffffffffffffffffffffffffffffffffffff\n      and\n        /* \"Practice tokens/Auction.sol\":2031:2066  return itemDetails[id].highestBider */\n      swap1\n      pop\n        /* \"Practice tokens/Auction.sol\":1954:2074  function getWinningBidder(uint256 id) public view returns(address){... */\n      swap2\n      swap1\n      pop\n      jump\t// out\n        /* \"Practice tokens/Auction.sol\":2355:2747  function auctionEnd(uint256 id) public payable {... */\n    tag_26:\n        /* \"Practice tokens/Auction.sol\":2439:2450  itemDetails */\n      0x01\n        /* \"Practice tokens/Auction.sol\":2439:2454  itemDetails[id] */\n      0x00\n        /* \"Practice tokens/Auction.sol\":2451:2453  id */\n      dup3\n        /* \"Practice tokens/Auction.sol\":2439:2454  itemDetails[id] */\n      dup2\n      mstore\n      0x20\n      add\n      swap1\n      dup2\n      mstore\n      0x20\n      add\n      0x00\n      keccak256\n        /* \"Practice tokens/Auction.sol\":2439:2467  itemDetails[id].auction_time */\n      0x05\n      add\n      sload\n        /* \"Practice tokens/Auction.sol\":2421:2436  block.timestamp */\n      timestamp\n        /* \"Practice tokens/Auction.sol\":2421:2467  block.timestamp > itemDetails[id].auction_time */\n      gt\n        /* \"Practice tokens/Auction.sol\":2413:2468  require(block.timestamp > itemDetails[id].auction_time) */\n      tag_57\n      jumpi\n      0x00\n      dup1\n      revert\n    tag_57:\n        /* \"Practice tokens/Auction.sol\":2501:2512  itemDetails */\n      0x01\n        /* \"Practice tokens/Auction.sol\":2501:2516  itemDetails[id] */\n      0x00\n        /* \"Practice tokens/Auction.sol\":2513:2515  id */\n      dup3\n        /* \"Practice tokens/Auction.sol\":2501:2516  itemDetails[id] */\n      dup2\n      mstore\n      0x20\n      add\n      swap1\n      dup2\n      mstore\n      0x20\n      add\n      0x00\n      keccak256\n        /* \"Practice tokens/Auction.sol\":2501:2522  itemDetails[id].owner */\n      0x01\n      add\n      0x00\n      swap1\n      sload\n      swap1\n      0x0100\n      exp\n      swap1\n      div\n      0xffffffffffffffffffffffffffffffffffffffff\n      and\n        /* \"Practice tokens/Auction.sol\":2487:2522  msg.sender == itemDetails[id].owner */\n      0xffffffffffffffffffffffffffffffffffffffff\n      and\n        /* \"Practice tokens/Auction.sol\":2487:2497  msg.sender */\n      caller\n        /* \"Practice tokens/Auction.sol\":2487:2522  msg.sender == itemDetails[id].owner */\n      0xffffffffffffffffffffffffffffffffffffffff\n      and\n      eq\n        /* \"Practice tokens/Auction.sol\":2479:2566  require(msg.sender == itemDetails[id].owner, \" Onle The owner of the Item can access.\") */\n      tag_58\n      jumpi\n      mload(0x40)\n      0x08c379a000000000000000000000000000000000000000000000000000000000\n      dup2\n      mstore\n      0x04\n      add\n      tag_59\n      swap1\n      tag_60\n      jump\t// in\n    tag_59:\n      mload(0x40)\n      dup1\n      swap2\n      sub\n      swap1\n      revert\n    tag_58:\n        /* \"Practice tokens/Auction.sol\":2585:2596  itemDetails */\n      0x01\n        /* \"Practice tokens/Auction.sol\":2585:2600  itemDetails[id] */\n      0x00\n        /* \"Practice tokens/Auction.sol\":2597:2599  id */\n      dup3\n        /* \"Practice tokens/Auction.sol\":2585:2600  itemDetails[id] */\n      dup2\n      mstore\n      0x20\n      add\n      swap1\n      dup2\n      mstore\n      0x20\n      add\n      0x00\n      keccak256\n        /* \"Practice tokens/Auction.sol\":2585:2606  itemDetails[id].owner */\n      0x01\n      add\n      0x00\n      swap1\n      sload\n      swap1\n      0x0100\n      exp\n      swap1\n      div\n      0xffffffffffffffffffffffffffffffffffffffff\n      and\n        /* \"Practice tokens/Auction.sol\":2577:2616  payable(itemDetails[id].owner).transfer */\n      0xffffffffffffffffffffffffffffffffffffffff\n      and\n        /* \"Practice tokens/Auction.sol\":2577:2644  payable(itemDetails[id].owner).transfer(itemDetails[id].highestBid) */\n      0x08fc\n        /* \"Practice tokens/Auction.sol\":2617:2628  itemDetails */\n      0x01\n        /* \"Practice tokens/Auction.sol\":2617:2632  itemDetails[id] */\n      0x00\n        /* \"Practice tokens/Auction.sol\":2629:2631  id */\n      dup5\n        /* \"Practice tokens/Auction.sol\":2617:2632  itemDetails[id] */\n      dup2\n      mstore\n      0x20\n      add\n      swap1\n      dup2\n      mstore\n      0x20\n      add\n      0x00\n      keccak256\n        /* \"Practice tokens/Auction.sol\":2617:2643  itemDetails[id].highestBid */\n      0x03\n      add\n      sload\n        /* \"Practice tokens/Auction.sol\":2577:2644  payable(itemDetails[id].owner).transfer(itemDetails[id].highestBid) */\n      swap1\n      dup2\n      iszero\n      mul\n      swap1\n      mload(0x40)\n      0x00\n      mload(0x40)\n      dup1\n      dup4\n      sub\n      dup2\n      dup6\n      dup9\n      dup9\n      call\n      swap4\n      pop\n      pop\n      pop\n      pop\n      iszero\n      dup1\n      iszero\n      tag_62\n      jumpi\n      returndatasize\n      0x00\n      dup1\n      returndatacopy\n      revert(0x00, returndatasize)\n    tag_62:\n      pop\n        /* \"Practice tokens/Auction.sol\":2678:2689  itemDetails */\n      0x01\n        /* \"Practice tokens/Auction.sol\":2678:2693  itemDetails[id] */\n      0x00\n        /* \"Practice tokens/Auction.sol\":2690:2692  id */\n      dup3\n        /* \"Practice tokens/Auction.sol\":2678:2693  itemDetails[id] */\n      dup2\n      mstore\n      0x20\n      add\n      swap1\n      dup2\n      mstore\n      0x20\n      add\n      0x00\n      keccak256\n        /* \"Practice tokens/Auction.sol\":2678:2706  itemDetails[id].highestBider */\n      0x04\n      add\n      0x00\n      swap1\n      sload\n      swap1\n      0x0100\n      exp\n      swap1\n      div\n      0xffffffffffffffffffffffffffffffffffffffff\n      and\n        /* \"Practice tokens/Auction.sol\":2655:2666  itemDetails */\n      0x01\n        /* \"Practice tokens/Auction.sol\":2655:2670  itemDetails[id] */\n      0x00\n        /* \"Practice tokens/Auction.sol\":2667:2669  id */\n      dup4\n        /* \"Practice tokens/Auction.sol\":2655:2670  itemDetails[id] */\n      dup2\n      mstore\n      0x20\n      add\n      swap1\n      dup2\n      mstore\n      0x20\n      add\n      0x00\n      keccak256\n        /* \"Practice tokens/Auction.sol\":2655:2676  itemDetails[id].owner */\n      0x01\n      add\n      0x00\n        /* \"Practice tokens/Auction.sol\":2655:2706  itemDetails[id].owner= itemDetails[id].highestBider */\n      0x0100\n      exp\n      dup2\n      sload\n      dup2\n      0xffffffffffffffffffffffffffffffffffffffff\n      mul\n      not\n      and\n      swap1\n      dup4\n      0xffffffffffffffffffffffffffffffffffffffff\n      and\n      mul\n      or\n      swap1\n      sstore\n      pop\n        /* \"Practice tokens/Auction.sol\":2724:2735  itemDetails */\n      0x01\n        /* \"Practice tokens/Auction.sol\":2724:2739  itemDetails[id] */\n      0x00\n        /* \"Practice tokens/Auction.sol\":2736:2738  id */\n      dup3\n        /* \"Practice tokens/Auction.sol\":2724:2739  itemDetails[id] */\n      dup2\n      mstore\n      0x20\n      add\n      swap1\n      dup2\n      mstore\n      0x20\n      add\n      0x00\n      keccak256\n      0x00\n        /* \"Practice tokens/Auction.sol\":2717:2739  delete itemDetails[id] */\n      dup1\n      dup3\n      add\n      0x00\n      tag_63\n      swap2\n      swap1\n      tag_64\n      jump\t// in\n    tag_63:\n      0x01\n      dup3\n      add\n      exp(0x0100, 0x00)\n      dup2\n      sload\n      swap1\n      0xffffffffffffffffffffffffffffffffffffffff\n      mul\n      not\n      and\n      swap1\n      sstore\n      0x02\n      dup3\n      add\n      0x00\n      swap1\n      sstore\n      0x03\n      dup3\n      add\n      0x00\n      swap1\n      sstore\n      0x04\n      dup3\n      add\n      exp(0x0100, 0x00)\n      dup2\n      sload\n      swap1\n      0xffffffffffffffffffffffffffffffffffffffff\n      mul\n      not\n      and\n      swap1\n      sstore\n      0x05\n      dup3\n      add\n      0x00\n      swap1\n      sstore\n      0x06\n      dup3\n      add\n      exp(0x0100, 0x00)\n      dup2\n      sload\n      swap1\n      0xffffffffffffffffffffffffffffffffffffffff\n      mul\n      not\n      and\n      swap1\n      sstore\n      pop\n      pop\n        /* \"Practice tokens/Auction.sol\":2355:2747  function auctionEnd(uint256 id) public payable {... */\n      pop\n      jump\t// out\n        /* \"Practice tokens/Auction.sol\":624:1162  function CreateItem( string memory _name) public {... */\n    tag_31:\n        /* \"Practice tokens/Auction.sol\":714:715  0 */\n      0x00\n        /* \"Practice tokens/Auction.sol\":692:716  msg.sender != address(0) */\n      0xffffffffffffffffffffffffffffffffffffffff\n      and\n        /* \"Practice tokens/Auction.sol\":692:702  msg.sender */\n      caller\n        /* \"Practice tokens/Auction.sol\":692:716  msg.sender != address(0) */\n      0xffffffffffffffffffffffffffffffffffffffff\n      and\n      sub\n        /* \"Practice tokens/Auction.sol\":684:730  require(msg.sender != address(0) ,\"Not Valid\") */\n      tag_66\n      jumpi\n      mload(0x40)\n      0x08c379a000000000000000000000000000000000000000000000000000000000\n      dup2\n      mstore\n      0x04\n      add\n      tag_67\n      swap1\n      tag_68\n      jump\t// in\n    tag_67:\n      mload(0x40)\n      dup1\n      swap2\n      sub\n      swap1\n      revert\n    tag_66:\n        /* \"Practice tokens/Auction.sol\":766:771  _name */\n      dup1\n        /* \"Practice tokens/Auction.sol\":741:752  itemDetails */\n      0x01\n        /* \"Practice tokens/Auction.sol\":741:760  itemDetails[itemID] */\n      0x00\n        /* \"Practice tokens/Auction.sol\":753:759  itemID */\n      dup1\n      sload\n        /* \"Practice tokens/Auction.sol\":741:760  itemDetails[itemID] */\n      dup2\n      mstore\n      0x20\n      add\n      swap1\n      dup2\n      mstore\n      0x20\n      add\n      0x00\n      keccak256\n        /* \"Practice tokens/Auction.sol\":741:765  itemDetails[itemID].name */\n      0x00\n      add\n        /* \"Practice tokens/Auction.sol\":741:771  itemDetails[itemID].name=_name */\n      swap1\n      dup2\n      tag_69\n      swap2\n      swap1\n      tag_70\n      jump\t// in\n    tag_69:\n      pop\n        /* \"Practice tokens/Auction.sol\":808:818  msg.sender */\n      caller\n        /* \"Practice tokens/Auction.sol\":782:793  itemDetails */\n      0x01\n        /* \"Practice tokens/Auction.sol\":782:801  itemDetails[itemID] */\n      0x00\n        /* \"Practice tokens/Auction.sol\":794:800  itemID */\n      dup1\n      sload\n        /* \"Practice tokens/Auction.sol\":782:801  itemDetails[itemID] */\n      dup2\n      mstore\n      0x20\n      add\n      swap1\n      dup2\n      mstore\n      0x20\n      add\n      0x00\n      keccak256\n        /* \"Practice tokens/Auction.sol\":782:807  itemDetails[itemID].owner */\n      0x01\n      add\n      0x00\n        /* \"Practice tokens/Auction.sol\":782:818  itemDetails[itemID].owner=msg.sender */\n      0x0100\n      exp\n      dup2\n      sload\n      dup2\n      0xffffffffffffffffffffffffffffffffffffffff\n      mul\n      not\n      and\n      swap1\n      dup4\n      0xffffffffffffffffffffffffffffffffffffffff\n      and\n      mul\n      or\n      swap1\n      sstore\n      pop\n        /* \"Practice tokens/Auction.sol\":857:858  0 */\n      0x00\n        /* \"Practice tokens/Auction.sol\":829:840  itemDetails */\n      0x01\n        /* \"Practice tokens/Auction.sol\":829:848  itemDetails[itemID] */\n      0x00\n        /* \"Practice tokens/Auction.sol\":841:847  itemID */\n      dup1\n      sload\n        /* \"Practice tokens/Auction.sol\":829:848  itemDetails[itemID] */\n      dup2\n      mstore\n      0x20\n      add\n      swap1\n      dup2\n      mstore\n      0x20\n      add\n      0x00\n      keccak256\n        /* \"Practice tokens/Auction.sol\":829:856  itemDetails[itemID].lastBid */\n      0x02\n      add\n        /* \"Practice tokens/Auction.sol\":829:858  itemDetails[itemID].lastBid=0 */\n      dup2\n      swap1\n      sstore\n      pop\n        /* \"Practice tokens/Auction.sol\":900:901  0 */\n      0x00\n        /* \"Practice tokens/Auction.sol\":869:880  itemDetails */\n      0x01\n        /* \"Practice tokens/Auction.sol\":869:888  itemDetails[itemID] */\n      0x00\n        /* \"Practice tokens/Auction.sol\":881:887  itemID */\n      dup1\n      sload\n        /* \"Practice tokens/Auction.sol\":869:888  itemDetails[itemID] */\n      dup2\n      mstore\n      0x20\n      add\n      swap1\n      dup2\n      mstore\n      0x20\n      add\n      0x00\n      keccak256\n        /* \"Practice tokens/Auction.sol\":869:899  itemDetails[itemID].highestBid */\n      0x03\n      add\n        /* \"Practice tokens/Auction.sol\":869:901  itemDetails[itemID].highestBid=0 */\n      dup2\n      swap1\n      sstore\n      pop\n        /* \"Practice tokens/Auction.sol\":953:954  0 */\n      0x00\n        /* \"Practice tokens/Auction.sol\":912:923  itemDetails */\n      0x01\n        /* \"Practice tokens/Auction.sol\":912:931  itemDetails[itemID] */\n      0x00\n        /* \"Practice tokens/Auction.sol\":924:930  itemID */\n      dup1\n      sload\n        /* \"Practice tokens/Auction.sol\":912:931  itemDetails[itemID] */\n      dup2\n      mstore\n      0x20\n      add\n      swap1\n      dup2\n      mstore\n      0x20\n      add\n      0x00\n      keccak256\n        /* \"Practice tokens/Auction.sol\":912:944  itemDetails[itemID].highestBider */\n      0x04\n      add\n      0x00\n        /* \"Practice tokens/Auction.sol\":912:955  itemDetails[itemID].highestBider=address(0) */\n      0x0100\n      exp\n      dup2\n      sload\n      dup2\n      0xffffffffffffffffffffffffffffffffffffffff\n      mul\n      not\n      and\n      swap1\n      dup4\n      0xffffffffffffffffffffffffffffffffffffffff\n      and\n      mul\n      or\n      swap1\n      sstore\n      pop\n        /* \"Practice tokens/Auction.sol\":1012:1013  0 */\n      0x00\n        /* \"Practice tokens/Auction.sol\":966:977  itemDetails */\n      0x01\n        /* \"Practice tokens/Auction.sol\":966:985  itemDetails[itemID] */\n      0x00\n        /* \"Practice tokens/Auction.sol\":978:984  itemID */\n      dup1\n      sload\n        /* \"Practice tokens/Auction.sol\":966:985  itemDetails[itemID] */\n      dup2\n      mstore\n      0x20\n      add\n      swap1\n      dup2\n      mstore\n      0x20\n      add\n      0x00\n      keccak256\n        /* \"Practice tokens/Auction.sol\":966:1002  itemDetails[itemID].lastHighestBider */\n      0x06\n      add\n      0x00\n        /* \"Practice tokens/Auction.sol\":966:1014  itemDetails[itemID].lastHighestBider=address (0) */\n      0x0100\n      exp\n      dup2\n      sload\n      dup2\n      0xffffffffffffffffffffffffffffffffffffffff\n      mul\n      not\n      and\n      swap1\n      dup4\n      0xffffffffffffffffffffffffffffffffffffffff\n      and\n      mul\n      or\n      swap1\n      sstore\n      pop\n        /* \"Practice tokens/Auction.sol\":1076:1080  3600 */\n      0x0e10\n        /* \"Practice tokens/Auction.sol\":1058:1073  block.timestamp */\n      timestamp\n        /* \"Practice tokens/Auction.sol\":1058:1080  block.timestamp + 3600 */\n      tag_71\n      swap2\n      swap1\n      tag_72\n      jump\t// in\n    tag_71:\n        /* \"Practice tokens/Auction.sol\":1025:1036  itemDetails */\n      0x01\n        /* \"Practice tokens/Auction.sol\":1025:1044  itemDetails[itemID] */\n      0x00\n        /* \"Practice tokens/Auction.sol\":1037:1043  itemID */\n      dup1\n      sload\n        /* \"Practice tokens/Auction.sol\":1025:1044  itemDetails[itemID] */\n      dup2\n      mstore\n      0x20\n      add\n      swap1\n      dup2\n      mstore\n      0x20\n      add\n      0x00\n      keccak256\n        /* \"Practice tokens/Auction.sol\":1025:1057  itemDetails[itemID].auction_time */\n      0x05\n      add\n        /* \"Practice tokens/Auction.sol\":1025:1080  itemDetails[itemID].auction_time=block.timestamp + 3600 */\n      dup2\n      swap1\n      sstore\n      pop\n        /* \"Practice tokens/Auction.sol\":1096:1134  createItem(msg.sender, itemID , _name) */\n      0xa7806320b37116843ec008da1594a383d57d02cf004956b72c34754bf6395070\n        /* \"Practice tokens/Auction.sol\":1107:1117  msg.sender */\n      caller\n        /* \"Practice tokens/Auction.sol\":1119:1125  itemID */\n      sload(0x00)\n        /* \"Practice tokens/Auction.sol\":1128:1133  _name */\n      dup4\n        /* \"Practice tokens/Auction.sol\":1096:1134  createItem(msg.sender, itemID , _name) */\n      mload(0x40)\n      tag_73\n      swap4\n      swap3\n      swap2\n      swap1\n      tag_74\n      jump\t// in\n    tag_73:\n      mload(0x40)\n      dup1\n      swap2\n      sub\n      swap1\n      log1\n        /* \"Practice tokens/Auction.sol\":1153:1154  1 */\n      0x01\n        /* \"Practice tokens/Auction.sol\":1145:1151  itemID */\n      0x00\n      dup1\n        /* \"Practice tokens/Auction.sol\":1145:1154  itemID+=1 */\n      dup3\n      dup3\n      sload\n      tag_75\n      swap2\n      swap1\n      tag_72\n      jump\t// in\n    tag_75:\n      swap3\n      pop\n      pop\n      dup2\n      swap1\n      sstore\n      pop\n        /* \"Practice tokens/Auction.sol\":624:1162  function CreateItem( string memory _name) public {... */\n      pop\n      jump\t// out\n        /* \"Practice tokens/Auction.sol\":1829:1946  function getHighestBid( uint256 id) public view returns(uint256) {... */\n    tag_35:\n        /* \"Practice tokens/Auction.sol\":1885:1892  uint256 */\n      0x00\n        /* \"Practice tokens/Auction.sol\":1912:1923  itemDetails */\n      0x01\n        /* \"Practice tokens/Auction.sol\":1912:1927  itemDetails[id] */\n      0x00\n        /* \"Practice tokens/Auction.sol\":1924:1926  id */\n      dup4\n        /* \"Practice tokens/Auction.sol\":1912:1927  itemDetails[id] */\n      dup2\n      mstore\n      0x20\n      add\n      swap1\n      dup2\n      mstore\n      0x20\n      add\n      0x00\n      keccak256\n        /* \"Practice tokens/Auction.sol\":1912:1938  itemDetails[id].highestBid */\n      0x03\n      add\n      sload\n        /* \"Practice tokens/Auction.sol\":1905:1938  return itemDetails[id].highestBid */\n      swap1\n      pop\n        /* \"Practice tokens/Auction.sol\":1829:1946  function getHighestBid( uint256 id) public view returns(uint256) {... */\n      swap2\n      swap1\n      pop\n      jump\t// out\n        /* \"Practice tokens/Auction.sol\":2082:2347  function cancelAuction( uint256 id) public  {... */\n    tag_41:\n        /* \"Practice tokens/Auction.sol\":2159:2170  itemDetails */\n      0x01\n        /* \"Practice tokens/Auction.sol\":2159:2174  itemDetails[id] */\n      0x00\n        /* \"Practice tokens/Auction.sol\":2171:2173  id */\n      dup3\n        /* \"Practice tokens/Auction.sol\":2159:2174  itemDetails[id] */\n      dup2\n      mstore\n      0x20\n      add\n      swap1\n      dup2\n      mstore\n      0x20\n      add\n      0x00\n      keccak256\n        /* \"Practice tokens/Auction.sol\":2159:2180  itemDetails[id].owner */\n      0x01\n      add\n      0x00\n      swap1\n      sload\n      swap1\n      0x0100\n      exp\n      swap1\n      div\n      0xffffffffffffffffffffffffffffffffffffffff\n      and\n        /* \"Practice tokens/Auction.sol\":2145:2180  msg.sender == itemDetails[id].owner */\n      0xffffffffffffffffffffffffffffffffffffffff\n      and\n        /* \"Practice tokens/Auction.sol\":2145:2155  msg.sender */\n      caller\n        /* \"Practice tokens/Auction.sol\":2145:2180  msg.sender == itemDetails[id].owner */\n      0xffffffffffffffffffffffffffffffffffffffff\n      and\n      eq\n        /* \"Practice tokens/Auction.sol\":2137:2218  require(msg.sender == itemDetails[id].owner,\" Only Owner can cancel the Auction\") */\n      tag_78\n      jumpi\n      mload(0x40)\n      0x08c379a000000000000000000000000000000000000000000000000000000000\n      dup2\n      mstore\n      0x04\n      add\n      tag_79\n      swap1\n      tag_80\n      jump\t// in\n    tag_79:\n      mload(0x40)\n      dup1\n      swap2\n      sub\n      swap1\n      revert\n    tag_78:\n        /* \"Practice tokens/Auction.sol\":2238:2249  itemDetails */\n      0x01\n        /* \"Practice tokens/Auction.sol\":2238:2253  itemDetails[id] */\n      0x00\n        /* \"Practice tokens/Auction.sol\":2250:2252  id */\n      dup3\n        /* \"Practice tokens/Auction.sol\":2238:2253  itemDetails[id] */\n      dup2\n      mstore\n      0x20\n      add\n      swap1\n      dup2\n      mstore\n      0x20\n      add\n      0x00\n      keccak256\n        /* \"Practice tokens/Auction.sol\":2238:2266  itemDetails[id].highestBider */\n      0x04\n      add\n      0x00\n      swap1\n      sload\n      swap1\n      0x0100\n      exp\n      swap1\n      div\n      0xffffffffffffffffffffffffffffffffffffffff\n      and\n        /* \"Practice tokens/Auction.sol\":2229:2276  payable (itemDetails[id].highestBider).transfer */\n      0xffffffffffffffffffffffffffffffffffffffff\n      and\n        /* \"Practice tokens/Auction.sol\":2229:2304  payable (itemDetails[id].highestBider).transfer(itemDetails[id].highestBid) */\n      0x08fc\n        /* \"Practice tokens/Auction.sol\":2277:2288  itemDetails */\n      0x01\n        /* \"Practice tokens/Auction.sol\":2277:2292  itemDetails[id] */\n      0x00\n        /* \"Practice tokens/Auction.sol\":2289:2291  id */\n      dup5\n        /* \"Practice tokens/Auction.sol\":2277:2292  itemDetails[id] */\n      dup2\n      mstore\n      0x20\n      add\n      swap1\n      dup2\n      mstore\n      0x20\n      add\n      0x00\n      keccak256\n        /* \"Practice tokens/Auction.sol\":2277:2303  itemDetails[id].highestBid */\n      0x03\n      add\n      sload\n        /* \"Practice tokens/Auction.sol\":2229:2304  payable (itemDetails[id].highestBider).transfer(itemDetails[id].highestBid) */\n      swap1\n      dup2\n      iszero\n      mul\n      swap1\n      mload(0x40)\n      0x00\n      mload(0x40)\n      dup1\n      dup4\n      sub\n      dup2\n      dup6\n      dup9\n      dup9\n      call\n      swap4\n      pop\n      pop\n      pop\n      pop\n      iszero\n      dup1\n      iszero\n      tag_82\n      jumpi\n      returndatasize\n      0x00\n      dup1\n      returndatacopy\n      revert(0x00, returndatasize)\n    tag_82:\n      pop\n        /* \"Practice tokens/Auction.sol\":2322:2333  itemDetails */\n      0x01\n        /* \"Practice tokens/Auction.sol\":2322:2337  itemDetails[id] */\n      0x00\n        /* \"Practice tokens/Auction.sol\":2334:2336  id */\n      dup3\n        /* \"Practice tokens/Auction.sol\":2322:2337  itemDetails[id] */\n      dup2\n      mstore\n      0x20\n      add\n      swap1\n      dup2\n      mstore\n      0x20\n      add\n      0x00\n      keccak256\n      0x00\n        /* \"Practice tokens/Auction.sol\":2315:2337  delete itemDetails[id] */\n      dup1\n      dup3\n      add\n      0x00\n      tag_83\n      swap2\n      swap1\n      tag_64\n      jump\t// in\n    tag_83:\n      0x01\n      dup3\n      add\n      exp(0x0100, 0x00)\n      dup2\n      sload\n      swap1\n      0xffffffffffffffffffffffffffffffffffffffff\n      mul\n      not\n      and\n      swap1\n      sstore\n      0x02\n      dup3\n      add\n      0x00\n      swap1\n      sstore\n      0x03\n      dup3\n      add\n      0x00\n      swap1\n      sstore\n      0x04\n      dup3\n      add\n      exp(0x0100, 0x00)\n      dup2\n      sload\n      swap1\n      0xffffffffffffffffffffffffffffffffffffffff\n      mul\n      not\n      and\n      swap1\n      sstore\n      0x05\n      dup3\n      add\n      0x00\n      swap1\n      sstore\n      0x06\n      dup3\n      add\n      exp(0x0100, 0x00)\n      dup2\n      sload\n      swap1\n      0xffffffffffffffffffffffffffffffffffffffff\n      mul\n      not\n      and\n      swap1\n      sstore\n      pop\n      pop\n        /* \"Practice tokens/Auction.sol\":2082:2347  function cancelAuction( uint256 id) public  {... */\n      pop\n      jump\t// out\n        /* \"Practice tokens/Auction.sol\":1170:1821  function placeBid(uint256 id) public payable  {... */\n    tag_44:\n        /* \"Practice tokens/Auction.sol\":1260:1270  msg.sender */\n      caller\n        /* \"Practice tokens/Auction.sol\":1235:1270  itemDetails[id].owner != msg.sender */\n      0xffffffffffffffffffffffffffffffffffffffff\n      and\n        /* \"Practice tokens/Auction.sol\":1235:1246  itemDetails */\n      0x01\n        /* \"Practice tokens/Auction.sol\":1235:1250  itemDetails[id] */\n      0x00\n        /* \"Practice tokens/Auction.sol\":1247:1249  id */\n      dup4\n        /* \"Practice tokens/Auction.sol\":1235:1250  itemDetails[id] */\n      dup2\n      mstore\n      0x20\n      add\n      swap1\n      dup2\n      mstore\n      0x20\n      add\n      0x00\n      keccak256\n        /* \"Practice tokens/Auction.sol\":1235:1256  itemDetails[id].owner */\n      0x01\n      add\n      0x00\n      swap1\n      sload\n      swap1\n      0x0100\n      exp\n      swap1\n      div\n      0xffffffffffffffffffffffffffffffffffffffff\n      and\n        /* \"Practice tokens/Auction.sol\":1235:1270  itemDetails[id].owner != msg.sender */\n      0xffffffffffffffffffffffffffffffffffffffff\n      and\n      sub\n        /* \"Practice tokens/Auction.sol\":1227:1290  require(itemDetails[id].owner != msg.sender,\" owner can't bid\") */\n      tag_85\n      jumpi\n      mload(0x40)\n      0x08c379a000000000000000000000000000000000000000000000000000000000\n      dup2\n      mstore\n      0x04\n      add\n      tag_86\n      swap1\n      tag_87\n      jump\t// in\n    tag_86:\n      mload(0x40)\n      dup1\n      swap2\n      sub\n      swap1\n      revert\n    tag_85:\n        /* \"Practice tokens/Auction.sol\":1340:1355  block.timestamp */\n      timestamp\n        /* \"Practice tokens/Auction.sol\":1309:1320  itemDetails */\n      0x01\n        /* \"Practice tokens/Auction.sol\":1309:1324  itemDetails[id] */\n      0x00\n        /* \"Practice tokens/Auction.sol\":1321:1323  id */\n      dup4\n        /* \"Practice tokens/Auction.sol\":1309:1324  itemDetails[id] */\n      dup2\n      mstore\n      0x20\n      add\n      swap1\n      dup2\n      mstore\n      0x20\n      add\n      0x00\n      keccak256\n        /* \"Practice tokens/Auction.sol\":1309:1337  itemDetails[id].auction_time */\n      0x05\n      add\n      sload\n        /* \"Practice tokens/Auction.sol\":1309:1355  itemDetails[id].auction_time > block.timestamp */\n      gt\n        /* \"Practice tokens/Auction.sol\":1301:1374  require(itemDetails[id].auction_time > block.timestamp,\"not started yet\") */\n      tag_88\n      jumpi\n      mload(0x40)\n      0x08c379a000000000000000000000000000000000000000000000000000000000\n      dup2\n      mstore\n      0x04\n      add\n      tag_89\n      swap1\n      tag_90\n      jump\t// in\n    tag_89:\n      mload(0x40)\n      dup1\n      swap2\n      sub\n      swap1\n      revert\n    tag_88:\n        /* \"Practice tokens/Auction.sol\":1406:1417  itemDetails */\n      0x01\n        /* \"Practice tokens/Auction.sol\":1406:1421  itemDetails[id] */\n      0x00\n        /* \"Practice tokens/Auction.sol\":1418:1420  id */\n      dup3\n        /* \"Practice tokens/Auction.sol\":1406:1421  itemDetails[id] */\n      dup2\n      mstore\n      0x20\n      add\n      swap1\n      dup2\n      mstore\n      0x20\n      add\n      0x00\n      keccak256\n        /* \"Practice tokens/Auction.sol\":1406:1429  itemDetails[id].lastBid */\n      0x02\n      add\n      sload\n        /* \"Practice tokens/Auction.sol\":1393:1402  msg.value */\n      callvalue\n        /* \"Practice tokens/Auction.sol\":1393:1429  msg.value >= itemDetails[id].lastBid */\n      lt\n      iszero\n        /* \"Practice tokens/Auction.sol\":1385:1453  require(msg.value >= itemDetails[id].lastBid, \"Increase the Amount\") */\n      tag_91\n      jumpi\n      mload(0x40)\n      0x08c379a000000000000000000000000000000000000000000000000000000000\n      dup2\n      mstore\n      0x04\n      add\n      tag_92\n      swap1\n      tag_93\n      jump\t// in\n    tag_92:\n      mload(0x40)\n      dup1\n      swap2\n      sub\n      swap1\n      revert\n    tag_91:\n        /* \"Practice tokens/Auction.sol\":1488:1499  itemDetails */\n      0x01\n        /* \"Practice tokens/Auction.sol\":1488:1503  itemDetails[id] */\n      0x00\n        /* \"Practice tokens/Auction.sol\":1500:1502  id */\n      dup3\n        /* \"Practice tokens/Auction.sol\":1488:1503  itemDetails[id] */\n      dup2\n      mstore\n      0x20\n      add\n      swap1\n      dup2\n      mstore\n      0x20\n      add\n      0x00\n      keccak256\n        /* \"Practice tokens/Auction.sol\":1488:1514  itemDetails[id].highestBid */\n      0x03\n      add\n      sload\n        /* \"Practice tokens/Auction.sol\":1464:1475  itemDetails */\n      0x01\n        /* \"Practice tokens/Auction.sol\":1464:1479  itemDetails[id] */\n      0x00\n        /* \"Practice tokens/Auction.sol\":1476:1478  id */\n      dup4\n        /* \"Practice tokens/Auction.sol\":1464:1479  itemDetails[id] */\n      dup2\n      mstore\n      0x20\n      add\n      swap1\n      dup2\n      mstore\n      0x20\n      add\n      0x00\n      keccak256\n        /* \"Practice tokens/Auction.sol\":1464:1487  itemDetails[id].lastBid */\n      0x02\n      add\n        /* \"Practice tokens/Auction.sol\":1464:1514  itemDetails[id].lastBid=itemDetails[id].highestBid */\n      dup2\n      swap1\n      sstore\n      pop\n        /* \"Practice tokens/Auction.sol\":1558:1569  itemDetails */\n      0x01\n        /* \"Practice tokens/Auction.sol\":1558:1573  itemDetails[id] */\n      0x00\n        /* \"Practice tokens/Auction.sol\":1570:1572  id */\n      dup3\n        /* \"Practice tokens/Auction.sol\":1558:1573  itemDetails[id] */\n      dup2\n      mstore\n      0x20\n      add\n      swap1\n      dup2\n      mstore\n      0x20\n      add\n      0x00\n      keccak256\n        /* \"Practice tokens/Auction.sol\":1558:1586  itemDetails[id].highestBider */\n      0x04\n      add\n      0x00\n      swap1\n      sload\n      swap1\n      0x0100\n      exp\n      swap1\n      div\n      0xffffffffffffffffffffffffffffffffffffffff\n      and\n        /* \"Practice tokens/Auction.sol\":1525:1536  itemDetails */\n      0x01\n        /* \"Practice tokens/Auction.sol\":1525:1540  itemDetails[id] */\n      0x00\n        /* \"Practice tokens/Auction.sol\":1537:1539  id */\n      dup4\n        /* \"Practice tokens/Auction.sol\":1525:1540  itemDetails[id] */\n      dup2\n      mstore\n      0x20\n      add\n      swap1\n      dup2\n      mstore\n      0x20\n      add\n      0x00\n      keccak256\n        /* \"Practice tokens/Auction.sol\":1525:1557  itemDetails[id].lastHighestBider */\n      0x06\n      add\n      0x00\n        /* \"Practice tokens/Auction.sol\":1525:1586  itemDetails[id].lastHighestBider=itemDetails[id].highestBider */\n      0x0100\n      exp\n      dup2\n      sload\n      dup2\n      0xffffffffffffffffffffffffffffffffffffffff\n      mul\n      not\n      and\n      swap1\n      dup4\n      0xffffffffffffffffffffffffffffffffffffffff\n      and\n      mul\n      or\n      swap1\n      sstore\n      pop\n        /* \"Practice tokens/Auction.sol\":1624:1633  msg.value */\n      callvalue\n        /* \"Practice tokens/Auction.sol\":1597:1608  itemDetails */\n      0x01\n        /* \"Practice tokens/Auction.sol\":1597:1612  itemDetails[id] */\n      0x00\n        /* \"Practice tokens/Auction.sol\":1609:1611  id */\n      dup4\n        /* \"Practice tokens/Auction.sol\":1597:1612  itemDetails[id] */\n      dup2\n      mstore\n      0x20\n      add\n      swap1\n      dup2\n      mstore\n      0x20\n      add\n      0x00\n      keccak256\n        /* \"Practice tokens/Auction.sol\":1597:1623  itemDetails[id].highestBid */\n      0x03\n      add\n        /* \"Practice tokens/Auction.sol\":1597:1633  itemDetails[id].highestBid=msg.value */\n      dup2\n      swap1\n      sstore\n      pop\n        /* \"Practice tokens/Auction.sol\":1673:1683  msg.sender */\n      caller\n        /* \"Practice tokens/Auction.sol\":1644:1655  itemDetails */\n      0x01\n        /* \"Practice tokens/Auction.sol\":1644:1659  itemDetails[id] */\n      0x00\n        /* \"Practice tokens/Auction.sol\":1656:1658  id */\n      dup4\n        /* \"Practice tokens/Auction.sol\":1644:1659  itemDetails[id] */\n      dup2\n      mstore\n      0x20\n      add\n      swap1\n      dup2\n      mstore\n      0x20\n      add\n      0x00\n      keccak256\n        /* \"Practice tokens/Auction.sol\":1644:1672  itemDetails[id].highestBider */\n      0x04\n      add\n      0x00\n        /* \"Practice tokens/Auction.sol\":1644:1683  itemDetails[id].highestBider=msg.sender */\n      0x0100\n      exp\n      dup2\n      sload\n      dup2\n      0xffffffffffffffffffffffffffffffffffffffff\n      mul\n      not\n      and\n      swap1\n      dup4\n      0xffffffffffffffffffffffffffffffffffffffff\n      and\n      mul\n      or\n      swap1\n      sstore\n      pop\n        /* \"Practice tokens/Auction.sol\":1702:1713  itemDetails */\n      0x01\n        /* \"Practice tokens/Auction.sol\":1702:1717  itemDetails[id] */\n      0x00\n        /* \"Practice tokens/Auction.sol\":1714:1716  id */\n      dup3\n        /* \"Practice tokens/Auction.sol\":1702:1717  itemDetails[id] */\n      dup2\n      mstore\n      0x20\n      add\n      swap1\n      dup2\n      mstore\n      0x20\n      add\n      0x00\n      keccak256\n        /* \"Practice tokens/Auction.sol\":1702:1734  itemDetails[id].lastHighestBider */\n      0x06\n      add\n      0x00\n      swap1\n      sload\n      swap1\n      0x0100\n      exp\n      swap1\n      div\n      0xffffffffffffffffffffffffffffffffffffffff\n      and\n        /* \"Practice tokens/Auction.sol\":1694:1744  payable(itemDetails[id].lastHighestBider).transfer */\n      0xffffffffffffffffffffffffffffffffffffffff\n      and\n        /* \"Practice tokens/Auction.sol\":1694:1769  payable(itemDetails[id].lastHighestBider).transfer(itemDetails[id].lastBid) */\n      0x08fc\n        /* \"Practice tokens/Auction.sol\":1745:1756  itemDetails */\n      0x01\n        /* \"Practice tokens/Auction.sol\":1745:1760  itemDetails[id] */\n      0x00\n        /* \"Practice tokens/Auction.sol\":1757:1759  id */\n      dup5\n        /* \"Practice tokens/Auction.sol\":1745:1760  itemDetails[id] */\n      dup2\n      mstore\n      0x20\n      add\n      swap1\n      dup2\n      mstore\n      0x20\n      add\n      0x00\n      keccak256\n        /* \"Practice tokens/Auction.sol\":1745:1768  itemDetails[id].lastBid */\n      0x02\n      add\n      sload\n        /* \"Practice tokens/Auction.sol\":1694:1769  payable(itemDetails[id].lastHighestBider).transfer(itemDetails[id].lastBid) */\n      swap1\n      dup2\n      iszero\n      mul\n      swap1\n      mload(0x40)\n      0x00\n      mload(0x40)\n      dup1\n      dup4\n      sub\n      dup2\n      dup6\n      dup9\n      dup9\n      call\n      swap4\n      pop\n      pop\n      pop\n      pop\n      iszero\n      dup1\n      iszero\n      tag_95\n      jumpi\n      returndatasize\n      0x00\n      dup1\n      returndatacopy\n      revert(0x00, returndatasize)\n    tag_95:\n      pop\n        /* \"Practice tokens/Auction.sol\":1785:1811  Bid(msg.sender, msg.value) */\n      0xe684a55f31b79eca403df938249029212a5925ec6be8012e099b45bc1019e5d2\n        /* \"Practice tokens/Auction.sol\":1789:1799  msg.sender */\n      caller\n        /* \"Practice tokens/Auction.sol\":1801:1810  msg.value */\n      callvalue\n        /* \"Practice tokens/Auction.sol\":1785:1811  Bid(msg.sender, msg.value) */\n      mload(0x40)\n      tag_96\n      swap3\n      swap2\n      swap1\n      tag_97\n      jump\t// in\n    tag_96:\n      mload(0x40)\n      dup1\n      swap2\n      sub\n      swap1\n      log1\n        /* \"Practice tokens/Auction.sol\":1170:1821  function placeBid(uint256 id) public payable  {... */\n      pop\n      jump\t// out\n        /* \"Practice tokens/Auction.sol\":2756:2852  function contractAddress() external view returns(address){... */\n    tag_47:\n        /* \"Practice tokens/Auction.sol\":2805:2812  address */\n      0x00\n        /* \"Practice tokens/Auction.sol\":2839:2843  this */\n      address\n        /* \"Practice tokens/Auction.sol\":2824:2844  return address(this) */\n      swap1\n      pop\n        /* \"Practice tokens/Auction.sol\":2756:2852  function contractAddress() external view returns(address){... */\n      swap1\n      jump\t// out\n    tag_64:\n      pop\n      dup1\n      sload\n      tag_99\n      swap1\n      tag_50\n      jump\t// in\n    tag_99:\n      0x00\n      dup3\n      sstore\n      dup1\n      0x1f\n      lt\n      tag_101\n      jumpi\n      pop\n      jump(tag_100)\n    tag_101:\n      0x1f\n      add\n      0x20\n      swap1\n      div\n      swap1\n      0x00\n      mstore\n      keccak256(0x00, 0x20)\n      swap1\n      dup2\n      add\n      swap1\n      tag_102\n      swap2\n      swap1\n      tag_103\n      jump\t// in\n    tag_102:\n    tag_100:\n      pop\n      jump\t// out\n    tag_103:\n    tag_104:\n      dup1\n      dup3\n      gt\n      iszero\n      tag_105\n      jumpi\n      0x00\n      dup2\n      0x00\n      swap1\n      sstore\n      pop\n      0x01\n      add\n      jump(tag_104)\n    tag_105:\n      pop\n      swap1\n      jump\t// out\n        /* \"#utility.yul\":7:82   */\n    tag_106:\n        /* \"#utility.yul\":40:46   */\n      0x00\n        /* \"#utility.yul\":73:75   */\n      0x40\n        /* \"#utility.yul\":67:76   */\n      mload\n        /* \"#utility.yul\":57:76   */\n      swap1\n      pop\n        /* \"#utility.yul\":7:82   */\n      swap1\n      jump\t// out\n        /* \"#utility.yul\":88:205   */\n    tag_107:\n        /* \"#utility.yul\":197:198   */\n      0x00\n        /* \"#utility.yul\":194:195   */\n      dup1\n        /* \"#utility.yul\":187:199   */\n      revert\n        /* \"#utility.yul\":211:328   */\n    tag_108:\n        /* \"#utility.yul\":320:321   */\n      0x00\n        /* \"#utility.yul\":317:318   */\n      dup1\n        /* \"#utility.yul\":310:322   */\n      revert\n        /* \"#utility.yul\":334:411   */\n    tag_109:\n        /* \"#utility.yul\":371:378   */\n      0x00\n        /* \"#utility.yul\":400:405   */\n      dup2\n        /* \"#utility.yul\":389:405   */\n      swap1\n      pop\n        /* \"#utility.yul\":334:411   */\n      swap2\n      swap1\n      pop\n      jump\t// out\n        /* \"#utility.yul\":417:539   */\n    tag_110:\n        /* \"#utility.yul\":490:514   */\n      tag_165\n        /* \"#utility.yul\":508:513   */\n      dup2\n        /* \"#utility.yul\":490:514   */\n      tag_109\n      jump\t// in\n    tag_165:\n        /* \"#utility.yul\":483:488   */\n      dup2\n        /* \"#utility.yul\":480:515   */\n      eq\n        /* \"#utility.yul\":470:533   */\n      tag_166\n      jumpi\n        /* \"#utility.yul\":529:530   */\n      0x00\n        /* \"#utility.yul\":526:527   */\n      dup1\n        /* \"#utility.yul\":519:531   */\n      revert\n        /* \"#utility.yul\":470:533   */\n    tag_166:\n        /* \"#utility.yul\":417:539   */\n      pop\n      jump\t// out\n        /* \"#utility.yul\":545:684   */\n    tag_111:\n        /* \"#utility.yul\":591:596   */\n      0x00\n        /* \"#utility.yul\":629:635   */\n      dup2\n        /* \"#utility.yul\":616:636   */\n      calldataload\n        /* \"#utility.yul\":607:636   */\n      swap1\n      pop\n        /* \"#utility.yul\":645:678   */\n      tag_168\n        /* \"#utility.yul\":672:677   */\n      dup2\n        /* \"#utility.yul\":645:678   */\n      tag_110\n      jump\t// in\n    tag_168:\n        /* \"#utility.yul\":545:684   */\n      swap3\n      swap2\n      pop\n      pop\n      jump\t// out\n        /* \"#utility.yul\":690:1019   */\n    tag_14:\n        /* \"#utility.yul\":749:755   */\n      0x00\n        /* \"#utility.yul\":798:800   */\n      0x20\n        /* \"#utility.yul\":786:795   */\n      dup3\n        /* \"#utility.yul\":777:784   */\n      dup5\n        /* \"#utility.yul\":773:796   */\n      sub\n        /* \"#utility.yul\":769:801   */\n      slt\n        /* \"#utility.yul\":766:885   */\n      iszero\n      tag_170\n      jumpi\n        /* \"#utility.yul\":804:883   */\n      tag_171\n      tag_107\n      jump\t// in\n    tag_171:\n        /* \"#utility.yul\":766:885   */\n    tag_170:\n        /* \"#utility.yul\":924:925   */\n      0x00\n        /* \"#utility.yul\":949:1002   */\n      tag_172\n        /* \"#utility.yul\":994:1001   */\n      dup5\n        /* \"#utility.yul\":985:991   */\n      dup3\n        /* \"#utility.yul\":974:983   */\n      dup6\n        /* \"#utility.yul\":970:992   */\n      add\n        /* \"#utility.yul\":949:1002   */\n      tag_111\n      jump\t// in\n    tag_172:\n        /* \"#utility.yul\":939:1002   */\n      swap2\n      pop\n        /* \"#utility.yul\":895:1012   */\n      pop\n        /* \"#utility.yul\":690:1019   */\n      swap3\n      swap2\n      pop\n      pop\n      jump\t// out\n        /* \"#utility.yul\":1025:1124   */\n    tag_112:\n        /* \"#utility.yul\":1077:1083   */\n      0x00\n        /* \"#utility.yul\":1111:1116   */\n      dup2\n        /* \"#utility.yul\":1105:1117   */\n      mload\n        /* \"#utility.yul\":1095:1117   */\n      swap1\n      pop\n        /* \"#utility.yul\":1025:1124   */\n      swap2\n      swap1\n      pop\n      jump\t// out\n        /* \"#utility.yul\":1130:1299   */\n    tag_113:\n        /* \"#utility.yul\":1214:1225   */\n      0x00\n        /* \"#utility.yul\":1248:1254   */\n      dup3\n        /* \"#utility.yul\":1243:1246   */\n      dup3\n        /* \"#utility.yul\":1236:1255   */\n      mstore\n        /* \"#utility.yul\":1288:1292   */\n      0x20\n        /* \"#utility.yul\":1283:1286   */\n      dup3\n        /* \"#utility.yul\":1279:1293   */\n      add\n        /* \"#utility.yul\":1264:1293   */\n      swap1\n      pop\n        /* \"#utility.yul\":1130:1299   */\n      swap3\n      swap2\n      pop\n      pop\n      jump\t// out\n        /* \"#utility.yul\":1305:1551   */\n    tag_114:\n        /* \"#utility.yul\":1386:1387   */\n      0x00\n        /* \"#utility.yul\":1396:1509   */\n    tag_176:\n        /* \"#utility.yul\":1410:1416   */\n      dup4\n        /* \"#utility.yul\":1407:1408   */\n      dup2\n        /* \"#utility.yul\":1404:1417   */\n      lt\n        /* \"#utility.yul\":1396:1509   */\n      iszero\n      tag_178\n      jumpi\n        /* \"#utility.yul\":1495:1496   */\n      dup1\n        /* \"#utility.yul\":1490:1493   */\n      dup3\n        /* \"#utility.yul\":1486:1497   */\n      add\n        /* \"#utility.yul\":1480:1498   */\n      mload\n        /* \"#utility.yul\":1476:1477   */\n      dup2\n        /* \"#utility.yul\":1471:1474   */\n      dup5\n        /* \"#utility.yul\":1467:1478   */\n      add\n        /* \"#utility.yul\":1460:1499   */\n      mstore\n        /* \"#utility.yul\":1432:1434   */\n      0x20\n        /* \"#utility.yul\":1429:1430   */\n      dup2\n        /* \"#utility.yul\":1425:1435   */\n      add\n        /* \"#utility.yul\":1420:1435   */\n      swap1\n      pop\n        /* \"#utility.yul\":1396:1509   */\n      jump(tag_176)\n    tag_178:\n        /* \"#utility.yul\":1543:1544   */\n      0x00\n        /* \"#utility.yul\":1534:1540   */\n      dup5\n        /* \"#utility.yul\":1529:1532   */\n      dup5\n        /* \"#utility.yul\":1525:1541   */\n      add\n        /* \"#utility.yul\":1518:1545   */\n      mstore\n        /* \"#utility.yul\":1367:1551   */\n      pop\n        /* \"#utility.yul\":1305:1551   */\n      pop\n      pop\n      pop\n      jump\t// out\n        /* \"#utility.yul\":1557:1659   */\n    tag_115:\n        /* \"#utility.yul\":1598:1604   */\n      0x00\n        /* \"#utility.yul\":1649:1651   */\n      0x1f\n        /* \"#utility.yul\":1645:1652   */\n      not\n        /* \"#utility.yul\":1640:1642   */\n      0x1f\n        /* \"#utility.yul\":1633:1638   */\n      dup4\n        /* \"#utility.yul\":1629:1643   */\n      add\n        /* \"#utility.yul\":1625:1653   */\n      and\n        /* \"#utility.yul\":1615:1653   */\n      swap1\n      pop\n        /* \"#utility.yul\":1557:1659   */\n      swap2\n      swap1\n      pop\n      jump\t// out\n        /* \"#utility.yul\":1665:2042   */\n    tag_116:\n        /* \"#utility.yul\":1753:1756   */\n      0x00\n        /* \"#utility.yul\":1781:1820   */\n      tag_181\n        /* \"#utility.yul\":1814:1819   */\n      dup3\n        /* \"#utility.yul\":1781:1820   */\n      tag_112\n      jump\t// in\n    tag_181:\n        /* \"#utility.yul\":1836:1907   */\n      tag_182\n        /* \"#utility.yul\":1900:1906   */\n      dup2\n        /* \"#utility.yul\":1895:1898   */\n      dup6\n        /* \"#utility.yul\":1836:1907   */\n      tag_113\n      jump\t// in\n    tag_182:\n        /* \"#utility.yul\":1829:1907   */\n      swap4\n      pop\n        /* \"#utility.yul\":1916:1981   */\n      tag_183\n        /* \"#utility.yul\":1974:1980   */\n      dup2\n        /* \"#utility.yul\":1969:1972   */\n      dup6\n        /* \"#utility.yul\":1962:1966   */\n      0x20\n        /* \"#utility.yul\":1955:1960   */\n      dup7\n        /* \"#utility.yul\":1951:1967   */\n      add\n        /* \"#utility.yul\":1916:1981   */\n      tag_114\n      jump\t// in\n    tag_183:\n        /* \"#utility.yul\":2006:2035   */\n      tag_184\n        /* \"#utility.yul\":2028:2034   */\n      dup2\n        /* \"#utility.yul\":2006:2035   */\n      tag_115\n      jump\t// in\n    tag_184:\n        /* \"#utility.yul\":2001:2004   */\n      dup5\n        /* \"#utility.yul\":1997:2036   */\n      add\n        /* \"#utility.yul\":1990:2036   */\n      swap2\n      pop\n        /* \"#utility.yul\":1757:2042   */\n      pop\n        /* \"#utility.yul\":1665:2042   */\n      swap3\n      swap2\n      pop\n      pop\n      jump\t// out\n        /* \"#utility.yul\":2048:2174   */\n    tag_117:\n        /* \"#utility.yul\":2085:2092   */\n      0x00\n        /* \"#utility.yul\":2125:2167   */\n      0xffffffffffffffffffffffffffffffffffffffff\n        /* \"#utility.yul\":2118:2123   */\n      dup3\n        /* \"#utility.yul\":2114:2168   */\n      and\n        /* \"#utility.yul\":2103:2168   */\n      swap1\n      pop\n        /* \"#utility.yul\":2048:2174   */\n      swap2\n      swap1\n      pop\n      jump\t// out\n        /* \"#utility.yul\":2180:2276   */\n    tag_118:\n        /* \"#utility.yul\":2217:2224   */\n      0x00\n        /* \"#utility.yul\":2246:2270   */\n      tag_187\n        /* \"#utility.yul\":2264:2269   */\n      dup3\n        /* \"#utility.yul\":2246:2270   */\n      tag_117\n      jump\t// in\n    tag_187:\n        /* \"#utility.yul\":2235:2270   */\n      swap1\n      pop\n        /* \"#utility.yul\":2180:2276   */\n      swap2\n      swap1\n      pop\n      jump\t// out\n        /* \"#utility.yul\":2282:2400   */\n    tag_119:\n        /* \"#utility.yul\":2369:2393   */\n      tag_189\n        /* \"#utility.yul\":2387:2392   */\n      dup2\n        /* \"#utility.yul\":2369:2393   */\n      tag_118\n      jump\t// in\n    tag_189:\n        /* \"#utility.yul\":2364:2367   */\n      dup3\n        /* \"#utility.yul\":2357:2394   */\n      mstore\n        /* \"#utility.yul\":2282:2400   */\n      pop\n      pop\n      jump\t// out\n        /* \"#utility.yul\":2406:2524   */\n    tag_120:\n        /* \"#utility.yul\":2493:2517   */\n      tag_191\n        /* \"#utility.yul\":2511:2516   */\n      dup2\n        /* \"#utility.yul\":2493:2517   */\n      tag_109\n      jump\t// in\n    tag_191:\n        /* \"#utility.yul\":2488:2491   */\n      dup3\n        /* \"#utility.yul\":2481:2518   */\n      mstore\n        /* \"#utility.yul\":2406:2524   */\n      pop\n      pop\n      jump\t// out\n        /* \"#utility.yul\":2530:3507   */\n    tag_17:\n        /* \"#utility.yul\":2811:2815   */\n      0x00\n        /* \"#utility.yul\":2849:2852   */\n      0xe0\n        /* \"#utility.yul\":2838:2847   */\n      dup3\n        /* \"#utility.yul\":2834:2853   */\n      add\n        /* \"#utility.yul\":2826:2853   */\n      swap1\n      pop\n        /* \"#utility.yul\":2899:2908   */\n      dup2\n        /* \"#utility.yul\":2893:2897   */\n      dup2\n        /* \"#utility.yul\":2889:2909   */\n      sub\n        /* \"#utility.yul\":2885:2886   */\n      0x00\n        /* \"#utility.yul\":2874:2883   */\n      dup4\n        /* \"#utility.yul\":2870:2887   */\n      add\n        /* \"#utility.yul\":2863:2910   */\n      mstore\n        /* \"#utility.yul\":2927:3005   */\n      tag_193\n        /* \"#utility.yul\":3000:3004   */\n      dup2\n        /* \"#utility.yul\":2991:2997   */\n      dup11\n        /* \"#utility.yul\":2927:3005   */\n      tag_116\n      jump\t// in\n    tag_193:\n        /* \"#utility.yul\":2919:3005   */\n      swap1\n      pop\n        /* \"#utility.yul\":3015:3087   */\n      tag_194\n        /* \"#utility.yul\":3083:3085   */\n      0x20\n        /* \"#utility.yul\":3072:3081   */\n      dup4\n        /* \"#utility.yul\":3068:3086   */\n      add\n        /* \"#utility.yul\":3059:3065   */\n      dup10\n        /* \"#utility.yul\":3015:3087   */\n      tag_119\n      jump\t// in\n    tag_194:\n        /* \"#utility.yul\":3097:3169   */\n      tag_195\n        /* \"#utility.yul\":3165:3167   */\n      0x40\n        /* \"#utility.yul\":3154:3163   */\n      dup4\n        /* \"#utility.yul\":3150:3168   */\n      add\n        /* \"#utility.yul\":3141:3147   */\n      dup9\n        /* \"#utility.yul\":3097:3169   */\n      tag_120\n      jump\t// in\n    tag_195:\n        /* \"#utility.yul\":3179:3251   */\n      tag_196\n        /* \"#utility.yul\":3247:3249   */\n      0x60\n        /* \"#utility.yul\":3236:3245   */\n      dup4\n        /* \"#utility.yul\":3232:3250   */\n      add\n        /* \"#utility.yul\":3223:3229   */\n      dup8\n        /* \"#utility.yul\":3179:3251   */\n      tag_120\n      jump\t// in\n    tag_196:\n        /* \"#utility.yul\":3261:3334   */\n      tag_197\n        /* \"#utility.yul\":3329:3332   */\n      0x80\n        /* \"#utility.yul\":3318:3327   */\n      dup4\n        /* \"#utility.yul\":3314:3333   */\n      add\n        /* \"#utility.yul\":3305:3311   */\n      dup7\n        /* \"#utility.yul\":3261:3334   */\n      tag_119\n      jump\t// in\n    tag_197:\n        /* \"#utility.yul\":3344:3417   */\n      tag_198\n        /* \"#utility.yul\":3412:3415   */\n      0xa0\n        /* \"#utility.yul\":3401:3410   */\n      dup4\n        /* \"#utility.yul\":3397:3416   */\n      add\n        /* \"#utility.yul\":3388:3394   */\n      dup6\n        /* \"#utility.yul\":3344:3417   */\n      tag_120\n      jump\t// in\n    tag_198:\n        /* \"#utility.yul\":3427:3500   */\n      tag_199\n        /* \"#utility.yul\":3495:3498   */\n      0xc0\n        /* \"#utility.yul\":3484:3493   */\n      dup4\n        /* \"#utility.yul\":3480:3499   */\n      add\n        /* \"#utility.yul\":3471:3477   */\n      dup5\n        /* \"#utility.yul\":3427:3500   */\n      tag_119\n      jump\t// in\n    tag_199:\n        /* \"#utility.yul\":2530:3507   */\n      swap9\n      swap8\n      pop\n      pop\n      pop\n      pop\n      pop\n      pop\n      pop\n      pop\n      jump\t// out\n        /* \"#utility.yul\":3513:3735   */\n    tag_23:\n        /* \"#utility.yul\":3606:3610   */\n      0x00\n        /* \"#utility.yul\":3644:3646   */\n      0x20\n        /* \"#utility.yul\":3633:3642   */\n      dup3\n        /* \"#utility.yul\":3629:3647   */\n      add\n        /* \"#utility.yul\":3621:3647   */\n      swap1\n      pop\n        /* \"#utility.yul\":3657:3728   */\n      tag_201\n        /* \"#utility.yul\":3725:3726   */\n      0x00\n        /* \"#utility.yul\":3714:3723   */\n      dup4\n        /* \"#utility.yul\":3710:3727   */\n      add\n        /* \"#utility.yul\":3701:3707   */\n      dup5\n        /* \"#utility.yul\":3657:3728   */\n      tag_119\n      jump\t// in\n    tag_201:\n        /* \"#utility.yul\":3513:3735   */\n      swap3\n      swap2\n      pop\n      pop\n      jump\t// out\n        /* \"#utility.yul\":3741:3858   */\n    tag_121:\n        /* \"#utility.yul\":3850:3851   */\n      0x00\n        /* \"#utility.yul\":3847:3848   */\n      dup1\n        /* \"#utility.yul\":3840:3852   */\n      revert\n        /* \"#utility.yul\":3864:3981   */\n    tag_122:\n        /* \"#utility.yul\":3973:3974   */\n      0x00\n        /* \"#utility.yul\":3970:3971   */\n      dup1\n        /* \"#utility.yul\":3963:3975   */\n      revert\n        /* \"#utility.yul\":3987:4167   */\n    tag_123:\n        /* \"#utility.yul\":4035:4112   */\n      0x4e487b7100000000000000000000000000000000000000000000000000000000\n        /* \"#utility.yul\":4032:4033   */\n      0x00\n        /* \"#utility.yul\":4025:4113   */\n      mstore\n        /* \"#utility.yul\":4132:4136   */\n      0x41\n        /* \"#utility.yul\":4129:4130   */\n      0x04\n        /* \"#utility.yul\":4122:4137   */\n      mstore\n        /* \"#utility.yul\":4156:4160   */\n      0x24\n        /* \"#utility.yul\":4153:4154   */\n      0x00\n        /* \"#utility.yul\":4146:4161   */\n      revert\n        /* \"#utility.yul\":4173:4454   */\n    tag_124:\n        /* \"#utility.yul\":4256:4283   */\n      tag_206\n        /* \"#utility.yul\":4278:4282   */\n      dup3\n        /* \"#utility.yul\":4256:4283   */\n      tag_115\n      jump\t// in\n    tag_206:\n        /* \"#utility.yul\":4248:4254   */\n      dup2\n        /* \"#utility.yul\":4244:4284   */\n      add\n        /* \"#utility.yul\":4386:4392   */\n      dup2\n        /* \"#utility.yul\":4374:4384   */\n      dup2\n        /* \"#utility.yul\":4371:4393   */\n      lt\n        /* \"#utility.yul\":4350:4368   */\n      0xffffffffffffffff\n        /* \"#utility.yul\":4338:4348   */\n      dup3\n        /* \"#utility.yul\":4335:4369   */\n      gt\n        /* \"#utility.yul\":4332:4394   */\n      or\n        /* \"#utility.yul\":4329:4417   */\n      iszero\n      tag_207\n      jumpi\n        /* \"#utility.yul\":4397:4415   */\n      tag_208\n      tag_123\n      jump\t// in\n    tag_208:\n        /* \"#utility.yul\":4329:4417   */\n    tag_207:\n        /* \"#utility.yul\":4437:4447   */\n      dup1\n        /* \"#utility.yul\":4433:4435   */\n      0x40\n        /* \"#utility.yul\":4426:4448   */\n      mstore\n        /* \"#utility.yul\":4216:4454   */\n      pop\n        /* \"#utility.yul\":4173:4454   */\n      pop\n      pop\n      jump\t// out\n        /* \"#utility.yul\":4460:4589   */\n    tag_125:\n        /* \"#utility.yul\":4494:4500   */\n      0x00\n        /* \"#utility.yul\":4521:4541   */\n      tag_210\n      tag_106\n      jump\t// in\n    tag_210:\n        /* \"#utility.yul\":4511:4541   */\n      swap1\n      pop\n        /* \"#utility.yul\":4550:4583   */\n      tag_211\n        /* \"#utility.yul\":4578:4582   */\n      dup3\n        /* \"#utility.yul\":4570:4576   */\n      dup3\n        /* \"#utility.yul\":4550:4583   */\n      tag_124\n      jump\t// in\n    tag_211:\n        /* \"#utility.yul\":4460:4589   */\n      swap2\n      swap1\n      pop\n      jump\t// out\n        /* \"#utility.yul\":4595:4903   */\n    tag_126:\n        /* \"#utility.yul\":4657:4661   */\n      0x00\n        /* \"#utility.yul\":4747:4765   */\n      0xffffffffffffffff\n        /* \"#utility.yul\":4739:4745   */\n      dup3\n        /* \"#utility.yul\":4736:4766   */\n      gt\n        /* \"#utility.yul\":4733:4789   */\n      iszero\n      tag_213\n      jumpi\n        /* \"#utility.yul\":4769:4787   */\n      tag_214\n      tag_123\n      jump\t// in\n    tag_214:\n        /* \"#utility.yul\":4733:4789   */\n    tag_213:\n        /* \"#utility.yul\":4807:4836   */\n      tag_215\n        /* \"#utility.yul\":4829:4835   */\n      dup3\n        /* \"#utility.yul\":4807:4836   */\n      tag_115\n      jump\t// in\n    tag_215:\n        /* \"#utility.yul\":4799:4836   */\n      swap1\n      pop\n        /* \"#utility.yul\":4891:4895   */\n      0x20\n        /* \"#utility.yul\":4885:4889   */\n      dup2\n        /* \"#utility.yul\":4881:4896   */\n      add\n        /* \"#utility.yul\":4873:4896   */\n      swap1\n      pop\n        /* \"#utility.yul\":4595:4903   */\n      swap2\n      swap1\n      pop\n      jump\t// out\n        /* \"#utility.yul\":4909:5055   */\n    tag_127:\n        /* \"#utility.yul\":5006:5012   */\n      dup3\n        /* \"#utility.yul\":5001:5004   */\n      dup2\n        /* \"#utility.yul\":4996:4999   */\n      dup4\n        /* \"#utility.yul\":4983:5013   */\n      calldatacopy\n        /* \"#utility.yul\":5047:5048   */\n      0x00\n        /* \"#utility.yul\":5038:5044   */\n      dup4\n        /* \"#utility.yul\":5033:5036   */\n      dup4\n        /* \"#utility.yul\":5029:5045   */\n      add\n        /* \"#utility.yul\":5022:5049   */\n      mstore\n        /* \"#utility.yul\":4909:5055   */\n      pop\n      pop\n      pop\n      jump\t// out\n        /* \"#utility.yul\":5061:5486   */\n    tag_128:\n        /* \"#utility.yul\":5139:5144   */\n      0x00\n        /* \"#utility.yul\":5164:5230   */\n      tag_218\n        /* \"#utility.yul\":5180:5229   */\n      tag_219\n        /* \"#utility.yul\":5222:5228   */\n      dup5\n        /* \"#utility.yul\":5180:5229   */\n      tag_126\n      jump\t// in\n    tag_219:\n        /* \"#utility.yul\":5164:5230   */\n      tag_125\n      jump\t// in\n    tag_218:\n        /* \"#utility.yul\":5155:5230   */\n      swap1\n      pop\n        /* \"#utility.yul\":5253:5259   */\n      dup3\n        /* \"#utility.yul\":5246:5251   */\n      dup2\n        /* \"#utility.yul\":5239:5260   */\n      mstore\n        /* \"#utility.yul\":5291:5295   */\n      0x20\n        /* \"#utility.yul\":5284:5289   */\n      dup2\n        /* \"#utility.yul\":5280:5296   */\n      add\n        /* \"#utility.yul\":5329:5332   */\n      dup5\n        /* \"#utility.yul\":5320:5326   */\n      dup5\n        /* \"#utility.yul\":5315:5318   */\n      dup5\n        /* \"#utility.yul\":5311:5327   */\n      add\n        /* \"#utility.yul\":5308:5333   */\n      gt\n        /* \"#utility.yul\":5305:5417   */\n      iszero\n      tag_220\n      jumpi\n        /* \"#utility.yul\":5336:5415   */\n      tag_221\n      tag_122\n      jump\t// in\n    tag_221:\n        /* \"#utility.yul\":5305:5417   */\n    tag_220:\n        /* \"#utility.yul\":5426:5480   */\n      tag_222\n        /* \"#utility.yul\":5473:5479   */\n      dup5\n        /* \"#utility.yul\":5468:5471   */\n      dup3\n        /* \"#utility.yul\":5463:5466   */\n      dup6\n        /* \"#utility.yul\":5426:5480   */\n      tag_127\n      jump\t// in\n    tag_222:\n        /* \"#utility.yul\":5145:5486   */\n      pop\n        /* \"#utility.yul\":5061:5486   */\n      swap4\n      swap3\n      pop\n      pop\n      pop\n      jump\t// out\n        /* \"#utility.yul\":5506:5846   */\n    tag_129:\n        /* \"#utility.yul\":5562:5567   */\n      0x00\n        /* \"#utility.yul\":5611:5614   */\n      dup3\n        /* \"#utility.yul\":5604:5608   */\n      0x1f\n        /* \"#utility.yul\":5596:5602   */\n      dup4\n        /* \"#utility.yul\":5592:5609   */\n      add\n        /* \"#utility.yul\":5588:5615   */\n      slt\n        /* \"#utility.yul\":5578:5700   */\n      tag_224\n      jumpi\n        /* \"#utility.yul\":5619:5698   */\n      tag_225\n      tag_121\n      jump\t// in\n    tag_225:\n        /* \"#utility.yul\":5578:5700   */\n    tag_224:\n        /* \"#utility.yul\":5736:5742   */\n      dup2\n        /* \"#utility.yul\":5723:5743   */\n      calldataload\n        /* \"#utility.yul\":5761:5840   */\n      tag_226\n        /* \"#utility.yul\":5836:5839   */\n      dup5\n        /* \"#utility.yul\":5828:5834   */\n      dup3\n        /* \"#utility.yul\":5821:5825   */\n      0x20\n        /* \"#utility.yul\":5813:5819   */\n      dup7\n        /* \"#utility.yul\":5809:5826   */\n      add\n        /* \"#utility.yul\":5761:5840   */\n      tag_128\n      jump\t// in\n    tag_226:\n        /* \"#utility.yul\":5752:5840   */\n      swap2\n      pop\n        /* \"#utility.yul\":5568:5846   */\n      pop\n        /* \"#utility.yul\":5506:5846   */\n      swap3\n      swap2\n      pop\n      pop\n      jump\t// out\n        /* \"#utility.yul\":5852:6361   */\n    tag_30:\n        /* \"#utility.yul\":5921:5927   */\n      0x00\n        /* \"#utility.yul\":5970:5972   */\n      0x20\n        /* \"#utility.yul\":5958:5967   */\n      dup3\n        /* \"#utility.yul\":5949:5956   */\n      dup5\n        /* \"#utility.yul\":5945:5968   */\n      sub\n        /* \"#utility.yul\":5941:5973   */\n      slt\n        /* \"#utility.yul\":5938:6057   */\n      iszero\n      tag_228\n      jumpi\n        /* \"#utility.yul\":5976:6055   */\n      tag_229\n      tag_107\n      jump\t// in\n    tag_229:\n        /* \"#utility.yul\":5938:6057   */\n    tag_228:\n        /* \"#utility.yul\":6124:6125   */\n      0x00\n        /* \"#utility.yul\":6113:6122   */\n      dup3\n        /* \"#utility.yul\":6109:6126   */\n      add\n        /* \"#utility.yul\":6096:6127   */\n      calldataload\n        /* \"#utility.yul\":6154:6172   */\n      0xffffffffffffffff\n        /* \"#utility.yul\":6146:6152   */\n      dup2\n        /* \"#utility.yul\":6143:6173   */\n      gt\n        /* \"#utility.yul\":6140:6257   */\n      iszero\n      tag_230\n      jumpi\n        /* \"#utility.yul\":6176:6255   */\n      tag_231\n      tag_108\n      jump\t// in\n    tag_231:\n        /* \"#utility.yul\":6140:6257   */\n    tag_230:\n        /* \"#utility.yul\":6281:6344   */\n      tag_232\n        /* \"#utility.yul\":6336:6343   */\n      dup5\n        /* \"#utility.yul\":6327:6333   */\n      dup3\n        /* \"#utility.yul\":6316:6325   */\n      dup6\n        /* \"#utility.yul\":6312:6334   */\n      add\n        /* \"#utility.yul\":6281:6344   */\n      tag_129\n      jump\t// in\n    tag_232:\n        /* \"#utility.yul\":6271:6344   */\n      swap2\n      pop\n        /* \"#utility.yul\":6067:6354   */\n      pop\n        /* \"#utility.yul\":5852:6361   */\n      swap3\n      swap2\n      pop\n      pop\n      jump\t// out\n        /* \"#utility.yul\":6367:6589   */\n    tag_37:\n        /* \"#utility.yul\":6460:6464   */\n      0x00\n        /* \"#utility.yul\":6498:6500   */\n      0x20\n        /* \"#utility.yul\":6487:6496   */\n      dup3\n        /* \"#utility.yul\":6483:6501   */\n      add\n        /* \"#utility.yul\":6475:6501   */\n      swap1\n      pop\n        /* \"#utility.yul\":6511:6582   */\n      tag_234\n        /* \"#utility.yul\":6579:6580   */\n      0x00\n        /* \"#utility.yul\":6568:6577   */\n      dup4\n        /* \"#utility.yul\":6564:6581   */\n      add\n        /* \"#utility.yul\":6555:6561   */\n      dup5\n        /* \"#utility.yul\":6511:6582   */\n      tag_120\n      jump\t// in\n    tag_234:\n        /* \"#utility.yul\":6367:6589   */\n      swap3\n      swap2\n      pop\n      pop\n      jump\t// out\n        /* \"#utility.yul\":6595:6775   */\n    tag_130:\n        /* \"#utility.yul\":6643:6720   */\n      0x4e487b7100000000000000000000000000000000000000000000000000000000\n        /* \"#utility.yul\":6640:6641   */\n      0x00\n        /* \"#utility.yul\":6633:6721   */\n      mstore\n        /* \"#utility.yul\":6740:6744   */\n      0x22\n        /* \"#utility.yul\":6737:6738   */\n      0x04\n        /* \"#utility.yul\":6730:6745   */\n      mstore\n        /* \"#utility.yul\":6764:6768   */\n      0x24\n        /* \"#utility.yul\":6761:6762   */\n      0x00\n        /* \"#utility.yul\":6754:6769   */\n      revert\n        /* \"#utility.yul\":6781:7101   */\n    tag_50:\n        /* \"#utility.yul\":6825:6831   */\n      0x00\n        /* \"#utility.yul\":6862:6863   */\n      0x02\n        /* \"#utility.yul\":6856:6860   */\n      dup3\n        /* \"#utility.yul\":6852:6864   */\n      div\n        /* \"#utility.yul\":6842:6864   */\n      swap1\n      pop\n        /* \"#utility.yul\":6909:6910   */\n      0x01\n        /* \"#utility.yul\":6903:6907   */\n      dup3\n        /* \"#utility.yul\":6899:6911   */\n      and\n        /* \"#utility.yul\":6930:6948   */\n      dup1\n        /* \"#utility.yul\":6920:7001   */\n      tag_237\n      jumpi\n        /* \"#utility.yul\":6986:6990   */\n      0x7f\n        /* \"#utility.yul\":6978:6984   */\n      dup3\n        /* \"#utility.yul\":6974:6991   */\n      and\n        /* \"#utility.yul\":6964:6991   */\n      swap2\n      pop\n        /* \"#utility.yul\":6920:7001   */\n    tag_237:\n        /* \"#utility.yul\":7048:7050   */\n      0x20\n        /* \"#utility.yul\":7040:7046   */\n      dup3\n        /* \"#utility.yul\":7037:7051   */\n      lt\n        /* \"#utility.yul\":7017:7035   */\n      dup2\n        /* \"#utility.yul\":7014:7052   */\n      sub\n        /* \"#utility.yul\":7011:7095   */\n      tag_238\n      jumpi\n        /* \"#utility.yul\":7067:7085   */\n      tag_239\n      tag_130\n      jump\t// in\n    tag_239:\n        /* \"#utility.yul\":7011:7095   */\n    tag_238:\n        /* \"#utility.yul\":6832:7101   */\n      pop\n        /* \"#utility.yul\":6781:7101   */\n      swap2\n      swap1\n      pop\n      jump\t// out\n        /* \"#utility.yul\":7107:7333   */\n    tag_131:\n        /* \"#utility.yul\":7247:7281   */\n      0x204f6e6c6520546865206f776e6572206f6620746865204974656d2063616e20\n        /* \"#utility.yul\":7243:7244   */\n      0x00\n        /* \"#utility.yul\":7235:7241   */\n      dup3\n        /* \"#utility.yul\":7231:7245   */\n      add\n        /* \"#utility.yul\":7224:7282   */\n      mstore\n        /* \"#utility.yul\":7316:7325   */\n      0x6163636573732e00000000000000000000000000000000000000000000000000\n        /* \"#utility.yul\":7311:7313   */\n      0x20\n        /* \"#utility.yul\":7303:7309   */\n      dup3\n        /* \"#utility.yul\":7299:7314   */\n      add\n        /* \"#utility.yul\":7292:7326   */\n      mstore\n        /* \"#utility.yul\":7107:7333   */\n      pop\n      jump\t// out\n        /* \"#utility.yul\":7339:7705   */\n    tag_132:\n        /* \"#utility.yul\":7481:7484   */\n      0x00\n        /* \"#utility.yul\":7502:7569   */\n      tag_242\n        /* \"#utility.yul\":7566:7568   */\n      0x27\n        /* \"#utility.yul\":7561:7564   */\n      dup4\n        /* \"#utility.yul\":7502:7569   */\n      tag_113\n      jump\t// in\n    tag_242:\n        /* \"#utility.yul\":7495:7569   */\n      swap2\n      pop\n        /* \"#utility.yul\":7578:7671   */\n      tag_243\n        /* \"#utility.yul\":7667:7670   */\n      dup3\n        /* \"#utility.yul\":7578:7671   */\n      tag_131\n      jump\t// in\n    tag_243:\n        /* \"#utility.yul\":7696:7698   */\n      0x40\n        /* \"#utility.yul\":7691:7694   */\n      dup3\n        /* \"#utility.yul\":7687:7699   */\n      add\n        /* \"#utility.yul\":7680:7699   */\n      swap1\n      pop\n        /* \"#utility.yul\":7339:7705   */\n      swap2\n      swap1\n      pop\n      jump\t// out\n        /* \"#utility.yul\":7711:8130   */\n    tag_60:\n        /* \"#utility.yul\":7877:7881   */\n      0x00\n        /* \"#utility.yul\":7915:7917   */\n      0x20\n        /* \"#utility.yul\":7904:7913   */\n      dup3\n        /* \"#utility.yul\":7900:7918   */\n      add\n        /* \"#utility.yul\":7892:7918   */\n      swap1\n      pop\n        /* \"#utility.yul\":7964:7973   */\n      dup2\n        /* \"#utility.yul\":7958:7962   */\n      dup2\n        /* \"#utility.yul\":7954:7974   */\n      sub\n        /* \"#utility.yul\":7950:7951   */\n      0x00\n        /* \"#utility.yul\":7939:7948   */\n      dup4\n        /* \"#utility.yul\":7935:7952   */\n      add\n        /* \"#utility.yul\":7928:7975   */\n      mstore\n        /* \"#utility.yul\":7992:8123   */\n      tag_245\n        /* \"#utility.yul\":8118:8122   */\n      dup2\n        /* \"#utility.yul\":7992:8123   */\n      tag_132\n      jump\t// in\n    tag_245:\n        /* \"#utility.yul\":7984:8123   */\n      swap1\n      pop\n        /* \"#utility.yul\":7711:8130   */\n      swap2\n      swap1\n      pop\n      jump\t// out\n        /* \"#utility.yul\":8136:8295   */\n    tag_133:\n        /* \"#utility.yul\":8276:8287   */\n      0x4e6f742056616c69640000000000000000000000000000000000000000000000\n        /* \"#utility.yul\":8272:8273   */\n      0x00\n        /* \"#utility.yul\":8264:8270   */\n      dup3\n        /* \"#utility.yul\":8260:8274   */\n      add\n        /* \"#utility.yul\":8253:8288   */\n      mstore\n        /* \"#utility.yul\":8136:8295   */\n      pop\n      jump\t// out\n        /* \"#utility.yul\":8301:8666   */\n    tag_134:\n        /* \"#utility.yul\":8443:8446   */\n      0x00\n        /* \"#utility.yul\":8464:8530   */\n      tag_248\n        /* \"#utility.yul\":8528:8529   */\n      0x09\n        /* \"#utility.yul\":8523:8526   */\n      dup4\n        /* \"#utility.yul\":8464:8530   */\n      tag_113\n      jump\t// in\n    tag_248:\n        /* \"#utility.yul\":8457:8530   */\n      swap2\n      pop\n        /* \"#utility.yul\":8539:8632   */\n      tag_249\n        /* \"#utility.yul\":8628:8631   */\n      dup3\n        /* \"#utility.yul\":8539:8632   */\n      tag_133\n      jump\t// in\n    tag_249:\n        /* \"#utility.yul\":8657:8659   */\n      0x20\n        /* \"#utility.yul\":8652:8655   */\n      dup3\n        /* \"#utility.yul\":8648:8660   */\n      add\n        /* \"#utility.yul\":8641:8660   */\n      swap1\n      pop\n        /* \"#utility.yul\":8301:8666   */\n      swap2\n      swap1\n      pop\n      jump\t// out\n        /* \"#utility.yul\":8672:9091   */\n    tag_68:\n        /* \"#utility.yul\":8838:8842   */\n      0x00\n        /* \"#utility.yul\":8876:8878   */\n      0x20\n        /* \"#utility.yul\":8865:8874   */\n      dup3\n        /* \"#utility.yul\":8861:8879   */\n      add\n        /* \"#utility.yul\":8853:8879   */\n      swap1\n      pop\n        /* \"#utility.yul\":8925:8934   */\n      dup2\n        /* \"#utility.yul\":8919:8923   */\n      dup2\n        /* \"#utility.yul\":8915:8935   */\n      sub\n        /* \"#utility.yul\":8911:8912   */\n      0x00\n        /* \"#utility.yul\":8900:8909   */\n      dup4\n        /* \"#utility.yul\":8896:8913   */\n      add\n        /* \"#utility.yul\":8889:8936   */\n      mstore\n        /* \"#utility.yul\":8953:9084   */\n      tag_251\n        /* \"#utility.yul\":9079:9083   */\n      dup2\n        /* \"#utility.yul\":8953:9084   */\n      tag_134\n      jump\t// in\n    tag_251:\n        /* \"#utility.yul\":8945:9084   */\n      swap1\n      pop\n        /* \"#utility.yul\":8672:9091   */\n      swap2\n      swap1\n      pop\n      jump\t// out\n        /* \"#utility.yul\":9097:9238   */\n    tag_135:\n        /* \"#utility.yul\":9146:9150   */\n      0x00\n        /* \"#utility.yul\":9169:9172   */\n      dup2\n        /* \"#utility.yul\":9161:9172   */\n      swap1\n      pop\n        /* \"#utility.yul\":9192:9195   */\n      dup2\n        /* \"#utility.yul\":9189:9190   */\n      0x00\n        /* \"#utility.yul\":9182:9196   */\n      mstore\n        /* \"#utility.yul\":9226:9230   */\n      0x20\n        /* \"#utility.yul\":9223:9224   */\n      0x00\n        /* \"#utility.yul\":9213:9231   */\n      keccak256\n        /* \"#utility.yul\":9205:9231   */\n      swap1\n      pop\n        /* \"#utility.yul\":9097:9238   */\n      swap2\n      swap1\n      pop\n      jump\t// out\n        /* \"#utility.yul\":9244:9337   */\n    tag_136:\n        /* \"#utility.yul\":9281:9287   */\n      0x00\n        /* \"#utility.yul\":9328:9330   */\n      0x20\n        /* \"#utility.yul\":9323:9325   */\n      0x1f\n        /* \"#utility.yul\":9316:9321   */\n      dup4\n        /* \"#utility.yul\":9312:9326   */\n      add\n        /* \"#utility.yul\":9308:9331   */\n      div\n        /* \"#utility.yul\":9298:9331   */\n      swap1\n      pop\n        /* \"#utility.yul\":9244:9337   */\n      swap2\n      swap1\n      pop\n      jump\t// out\n        /* \"#utility.yul\":9343:9450   */\n    tag_137:\n        /* \"#utility.yul\":9387:9395   */\n      0x00\n        /* \"#utility.yul\":9437:9442   */\n      dup3\n        /* \"#utility.yul\":9431:9435   */\n      dup3\n        /* \"#utility.yul\":9427:9443   */\n      shl\n        /* \"#utility.yul\":9406:9443   */\n      swap1\n      pop\n        /* \"#utility.yul\":9343:9450   */\n      swap3\n      swap2\n      pop\n      pop\n      jump\t// out\n        /* \"#utility.yul\":9456:9849   */\n    tag_138:\n        /* \"#utility.yul\":9525:9531   */\n      0x00\n        /* \"#utility.yul\":9575:9576   */\n      0x08\n        /* \"#utility.yul\":9563:9573   */\n      dup4\n        /* \"#utility.yul\":9559:9577   */\n      mul\n        /* \"#utility.yul\":9598:9695   */\n      tag_256\n        /* \"#utility.yul\":9628:9694   */\n      0xffffffffffffffffffffffffffffffffffffffffffffffffffffffffffffffff\n        /* \"#utility.yul\":9617:9626   */\n      dup3\n        /* \"#utility.yul\":9598:9695   */\n      tag_137\n      jump\t// in\n    tag_256:\n        /* \"#utility.yul\":9716:9755   */\n      tag_257\n        /* \"#utility.yul\":9746:9754   */\n      dup7\n        /* \"#utility.yul\":9735:9744   */\n      dup4\n        /* \"#utility.yul\":9716:9755   */\n      tag_137\n      jump\t// in\n    tag_257:\n        /* \"#utility.yul\":9704:9755   */\n      swap6\n      pop\n        /* \"#utility.yul\":9788:9792   */\n      dup1\n        /* \"#utility.yul\":9784:9793   */\n      not\n        /* \"#utility.yul\":9777:9782   */\n      dup5\n        /* \"#utility.yul\":9773:9794   */\n      and\n        /* \"#utility.yul\":9764:9794   */\n      swap4\n      pop\n        /* \"#utility.yul\":9837:9841   */\n      dup1\n        /* \"#utility.yul\":9827:9835   */\n      dup7\n        /* \"#utility.yul\":9823:9842   */\n      and\n        /* \"#utility.yul\":9816:9821   */\n      dup5\n        /* \"#utility.yul\":9813:9843   */\n      or\n        /* \"#utility.yul\":9803:9843   */\n      swap3\n      pop\n        /* \"#utility.yul\":9532:9849   */\n      pop\n      pop\n        /* \"#utility.yul\":9456:9849   */\n      swap4\n      swap3\n      pop\n      pop\n      pop\n      jump\t// out\n        /* \"#utility.yul\":9855:9915   */\n    tag_139:\n        /* \"#utility.yul\":9883:9886   */\n      0x00\n        /* \"#utility.yul\":9904:9909   */\n      dup2\n        /* \"#utility.yul\":9897:9909   */\n      swap1\n      pop\n        /* \"#utility.yul\":9855:9915   */\n      swap2\n      swap1\n      pop\n      jump\t// out\n        /* \"#utility.yul\":9921:10063   */\n    tag_140:\n        /* \"#utility.yul\":9971:9980   */\n      0x00\n        /* \"#utility.yul\":10004:10057   */\n      tag_260\n        /* \"#utility.yul\":10022:10056   */\n      tag_261\n        /* \"#utility.yul\":10031:10055   */\n      tag_262\n        /* \"#utility.yul\":10049:10054   */\n      dup5\n        /* \"#utility.yul\":10031:10055   */\n      tag_109\n      jump\t// in\n    tag_262:\n        /* \"#utility.yul\":10022:10056   */\n      tag_139\n      jump\t// in\n    tag_261:\n        /* \"#utility.yul\":10004:10057   */\n      tag_109\n      jump\t// in\n    tag_260:\n        /* \"#utility.yul\":9991:10057   */\n      swap1\n      pop\n        /* \"#utility.yul\":9921:10063   */\n      swap2\n      swap1\n      pop\n      jump\t// out\n        /* \"#utility.yul\":10069:10144   */\n    tag_141:\n        /* \"#utility.yul\":10112:10115   */\n      0x00\n        /* \"#utility.yul\":10133:10138   */\n      dup2\n        /* \"#utility.yul\":10126:10138   */\n      swap1\n      pop\n        /* \"#utility.yul\":10069:10144   */\n      swap2\n      swap1\n      pop\n      jump\t// out\n        /* \"#utility.yul\":10150:10419   */\n    tag_142:\n        /* \"#utility.yul\":10260:10299   */\n      tag_265\n        /* \"#utility.yul\":10291:10298   */\n      dup4\n        /* \"#utility.yul\":10260:10299   */\n      tag_140\n      jump\t// in\n    tag_265:\n        /* \"#utility.yul\":10321:10412   */\n      tag_266\n        /* \"#utility.yul\":10370:10411   */\n      tag_267\n        /* \"#utility.yul\":10394:10410   */\n      dup3\n        /* \"#utility.yul\":10370:10411   */\n      tag_141\n      jump\t// in\n    tag_267:\n        /* \"#utility.yul\":10362:10368   */\n      dup5\n        /* \"#utility.yul\":10355:10359   */\n      dup5\n        /* \"#utility.yul\":10349:10360   */\n      sload\n        /* \"#utility.yul\":10321:10412   */\n      tag_138\n      jump\t// in\n    tag_266:\n        /* \"#utility.yul\":10315:10319   */\n      dup3\n        /* \"#utility.yul\":10308:10413   */\n      sstore\n        /* \"#utility.yul\":10226:10419   */\n      pop\n        /* \"#utility.yul\":10150:10419   */\n      pop\n      pop\n      pop\n      jump\t// out\n        /* \"#utility.yul\":10425:10498   */\n    tag_143:\n        /* \"#utility.yul\":10470:10473   */\n      0x00\n        /* \"#utility.yul\":10425:10498   */\n      swap1\n      jump\t// out\n        /* \"#utility.yul\":10504:10693   */\n    tag_144:\n        /* \"#utility.yul\":10581:10613   */\n      tag_270\n      tag_143\n      jump\t// in\n    tag_270:\n        /* \"#utility.yul\":10622:10687   */\n      tag_271\n        /* \"#utility.yul\":10680:10686   */\n      dup2\n        /* \"#utility.yul\":10672:10678   */\n      dup5\n        /* \"#utility.yul\":10666:10670   */\n      dup5\n        /* \"#utility.yul\":10622:10687   */\n      tag_142\n      jump\t// in\n    tag_271:\n        /* \"#utility.yul\":10557:10693   */\n      pop\n        /* \"#utility.yul\":10504:10693   */\n      pop\n      pop\n      jump\t// out\n        /* \"#utility.yul\":10699:10885   */\n    tag_145:\n        /* \"#utility.yul\":10759:10879   */\n    tag_273:\n        /* \"#utility.yul\":10776:10779   */\n      dup2\n        /* \"#utility.yul\":10769:10774   */\n      dup2\n        /* \"#utility.yul\":10766:10780   */\n      lt\n        /* \"#utility.yul\":10759:10879   */\n      iszero\n      tag_275\n      jumpi\n        /* \"#utility.yul\":10830:10869   */\n      tag_276\n        /* \"#utility.yul\":10867:10868   */\n      0x00\n        /* \"#utility.yul\":10860:10865   */\n      dup3\n        /* \"#utility.yul\":10830:10869   */\n      tag_144\n      jump\t// in\n    tag_276:\n        /* \"#utility.yul\":10803:10804   */\n      0x01\n        /* \"#utility.yul\":10796:10801   */\n      dup2\n        /* \"#utility.yul\":10792:10805   */\n      add\n        /* \"#utility.yul\":10783:10805   */\n      swap1\n      pop\n        /* \"#utility.yul\":10759:10879   */\n      jump(tag_273)\n    tag_275:\n        /* \"#utility.yul\":10699:10885   */\n      pop\n      pop\n      jump\t// out\n        /* \"#utility.yul\":10891:11434   */\n    tag_146:\n        /* \"#utility.yul\":10992:10994   */\n      0x1f\n        /* \"#utility.yul\":10987:10990   */\n      dup3\n        /* \"#utility.yul\":10984:10995   */\n      gt\n        /* \"#utility.yul\":10981:11427   */\n      iszero\n      tag_278\n      jumpi\n        /* \"#utility.yul\":11026:11064   */\n      tag_279\n        /* \"#utility.yul\":11058:11063   */\n      dup2\n        /* \"#utility.yul\":11026:11064   */\n      tag_135\n      jump\t// in\n    tag_279:\n        /* \"#utility.yul\":11110:11139   */\n      tag_280\n        /* \"#utility.yul\":11128:11138   */\n      dup5\n        /* \"#utility.yul\":11110:11139   */\n      tag_136\n      jump\t// in\n    tag_280:\n        /* \"#utility.yul\":11100:11108   */\n      dup2\n        /* \"#utility.yul\":11096:11140   */\n      add\n        /* \"#utility.yul\":11293:11295   */\n      0x20\n        /* \"#utility.yul\":11281:11291   */\n      dup6\n        /* \"#utility.yul\":11278:11296   */\n      lt\n        /* \"#utility.yul\":11275:11324   */\n      iszero\n      tag_281\n      jumpi\n        /* \"#utility.yul\":11314:11322   */\n      dup2\n        /* \"#utility.yul\":11299:11322   */\n      swap1\n      pop\n        /* \"#utility.yul\":11275:11324   */\n    tag_281:\n        /* \"#utility.yul\":11337:11417   */\n      tag_282\n        /* \"#utility.yul\":11393:11415   */\n      tag_283\n        /* \"#utility.yul\":11411:11414   */\n      dup6\n        /* \"#utility.yul\":11393:11415   */\n      tag_136\n      jump\t// in\n    tag_283:\n        /* \"#utility.yul\":11383:11391   */\n      dup4\n        /* \"#utility.yul\":11379:11416   */\n      add\n        /* \"#utility.yul\":11366:11377   */\n      dup3\n        /* \"#utility.yul\":11337:11417   */\n      tag_145\n      jump\t// in\n    tag_282:\n        /* \"#utility.yul\":10996:11427   */\n      pop\n      pop\n        /* \"#utility.yul\":10981:11427   */\n    tag_278:\n        /* \"#utility.yul\":10891:11434   */\n      pop\n      pop\n      pop\n      jump\t// out\n        /* \"#utility.yul\":11440:11557   */\n    tag_147:\n        /* \"#utility.yul\":11494:11502   */\n      0x00\n        /* \"#utility.yul\":11544:11549   */\n      dup3\n        /* \"#utility.yul\":11538:11542   */\n      dup3\n        /* \"#utility.yul\":11534:11550   */\n      shr\n        /* \"#utility.yul\":11513:11550   */\n      swap1\n      pop\n        /* \"#utility.yul\":11440:11557   */\n      swap3\n      swap2\n      pop\n      pop\n      jump\t// out\n        /* \"#utility.yul\":11563:11732   */\n    tag_148:\n        /* \"#utility.yul\":11607:11613   */\n      0x00\n        /* \"#utility.yul\":11640:11691   */\n      tag_286\n        /* \"#utility.yul\":11688:11689   */\n      0x00\n        /* \"#utility.yul\":11684:11690   */\n      not\n        /* \"#utility.yul\":11676:11681   */\n      dup5\n        /* \"#utility.yul\":11673:11674   */\n      0x08\n        /* \"#utility.yul\":11669:11682   */\n      mul\n        /* \"#utility.yul\":11640:11691   */\n      tag_147\n      jump\t// in\n    tag_286:\n        /* \"#utility.yul\":11636:11692   */\n      not\n        /* \"#utility.yul\":11721:11725   */\n      dup1\n        /* \"#utility.yul\":11715:11719   */\n      dup4\n        /* \"#utility.yul\":11711:11726   */\n      and\n        /* \"#utility.yul\":11701:11726   */\n      swap2\n      pop\n        /* \"#utility.yul\":11614:11732   */\n      pop\n        /* \"#utility.yul\":11563:11732   */\n      swap3\n      swap2\n      pop\n      pop\n      jump\t// out\n        /* \"#utility.yul\":11737:12032   */\n    tag_149:\n        /* \"#utility.yul\":11813:11817   */\n      0x00\n        /* \"#utility.yul\":11959:11988   */\n      tag_288\n        /* \"#utility.yul\":11984:11987   */\n      dup4\n        /* \"#utility.yul\":11978:11982   */\n      dup4\n        /* \"#utility.yul\":11959:11988   */\n      tag_148\n      jump\t// in\n    tag_288:\n        /* \"#utility.yul\":11951:11988   */\n      swap2\n      pop\n        /* \"#utility.yul\":12021:12024   */\n      dup3\n        /* \"#utility.yul\":12018:12019   */\n      0x02\n        /* \"#utility.yul\":12014:12025   */\n      mul\n        /* \"#utility.yul\":12008:12012   */\n      dup3\n        /* \"#utility.yul\":12005:12026   */\n      or\n        /* \"#utility.yul\":11997:12026   */\n      swap1\n      pop\n        /* \"#utility.yul\":11737:12032   */\n      swap3\n      swap2\n      pop\n      pop\n      jump\t// out\n        /* \"#utility.yul\":12037:13432   */\n    tag_70:\n        /* \"#utility.yul\":12154:12191   */\n      tag_290\n        /* \"#utility.yul\":12187:12190   */\n      dup3\n        /* \"#utility.yul\":12154:12191   */\n      tag_112\n      jump\t// in\n    tag_290:\n        /* \"#utility.yul\":12256:12274   */\n      0xffffffffffffffff\n        /* \"#utility.yul\":12248:12254   */\n      dup2\n        /* \"#utility.yul\":12245:12275   */\n      gt\n        /* \"#utility.yul\":12242:12298   */\n      iszero\n      tag_291\n      jumpi\n        /* \"#utility.yul\":12278:12296   */\n      tag_292\n      tag_123\n      jump\t// in\n    tag_292:\n        /* \"#utility.yul\":12242:12298   */\n    tag_291:\n        /* \"#utility.yul\":12322:12360   */\n      tag_293\n        /* \"#utility.yul\":12354:12358   */\n      dup3\n        /* \"#utility.yul\":12348:12359   */\n      sload\n        /* \"#utility.yul\":12322:12360   */\n      tag_50\n      jump\t// in\n    tag_293:\n        /* \"#utility.yul\":12407:12474   */\n      tag_294\n        /* \"#utility.yul\":12467:12473   */\n      dup3\n        /* \"#utility.yul\":12459:12465   */\n      dup3\n        /* \"#utility.yul\":12453:12457   */\n      dup6\n        /* \"#utility.yul\":12407:12474   */\n      tag_146\n      jump\t// in\n    tag_294:\n        /* \"#utility.yul\":12501:12502   */\n      0x00\n        /* \"#utility.yul\":12525:12529   */\n      0x20\n        /* \"#utility.yul\":12512:12529   */\n      swap1\n      pop\n        /* \"#utility.yul\":12557:12559   */\n      0x1f\n        /* \"#utility.yul\":12549:12555   */\n      dup4\n        /* \"#utility.yul\":12546:12560   */\n      gt\n        /* \"#utility.yul\":12574:12575   */\n      0x01\n        /* \"#utility.yul\":12569:13187   */\n      dup2\n      eq\n      tag_296\n      jumpi\n        /* \"#utility.yul\":13231:13232   */\n      0x00\n        /* \"#utility.yul\":13248:13254   */\n      dup5\n        /* \"#utility.yul\":13245:13322   */\n      iszero\n      tag_297\n      jumpi\n        /* \"#utility.yul\":13297:13306   */\n      dup3\n        /* \"#utility.yul\":13292:13295   */\n      dup8\n        /* \"#utility.yul\":13288:13307   */\n      add\n        /* \"#utility.yul\":13282:13308   */\n      mload\n        /* \"#utility.yul\":13273:13308   */\n      swap1\n      pop\n        /* \"#utility.yul\":13245:13322   */\n    tag_297:\n        /* \"#utility.yul\":13348:13415   */\n      tag_298\n        /* \"#utility.yul\":13408:13414   */\n      dup6\n        /* \"#utility.yul\":13401:13406   */\n      dup3\n        /* \"#utility.yul\":13348:13415   */\n      tag_149\n      jump\t// in\n    tag_298:\n        /* \"#utility.yul\":13342:13346   */\n      dup7\n        /* \"#utility.yul\":13335:13416   */\n      sstore\n        /* \"#utility.yul\":13204:13426   */\n      pop\n        /* \"#utility.yul\":12539:13426   */\n      jump(tag_295)\n        /* \"#utility.yul\":12569:13187   */\n    tag_296:\n        /* \"#utility.yul\":12621:12625   */\n      0x1f\n        /* \"#utility.yul\":12617:12626   */\n      not\n        /* \"#utility.yul\":12609:12615   */\n      dup5\n        /* \"#utility.yul\":12605:12627   */\n      and\n        /* \"#utility.yul\":12655:12692   */\n      tag_299\n        /* \"#utility.yul\":12687:12691   */\n      dup7\n        /* \"#utility.yul\":12655:12692   */\n      tag_135\n      jump\t// in\n    tag_299:\n        /* \"#utility.yul\":12714:12715   */\n      0x00\n        /* \"#utility.yul\":12728:12936   */\n    tag_300:\n        /* \"#utility.yul\":12742:12749   */\n      dup3\n        /* \"#utility.yul\":12739:12740   */\n      dup2\n        /* \"#utility.yul\":12736:12750   */\n      lt\n        /* \"#utility.yul\":12728:12936   */\n      iszero\n      tag_302\n      jumpi\n        /* \"#utility.yul\":12821:12830   */\n      dup5\n        /* \"#utility.yul\":12816:12819   */\n      dup10\n        /* \"#utility.yul\":12812:12831   */\n      add\n        /* \"#utility.yul\":12806:12832   */\n      mload\n        /* \"#utility.yul\":12798:12804   */\n      dup3\n        /* \"#utility.yul\":12791:12833   */\n      sstore\n        /* \"#utility.yul\":12872:12873   */\n      0x01\n        /* \"#utility.yul\":12864:12870   */\n      dup3\n        /* \"#utility.yul\":12860:12874   */\n      add\n        /* \"#utility.yul\":12850:12874   */\n      swap2\n      pop\n        /* \"#utility.yul\":12919:12921   */\n      0x20\n        /* \"#utility.yul\":12908:12917   */\n      dup6\n        /* \"#utility.yul\":12904:12922   */\n      add\n        /* \"#utility.yul\":12891:12922   */\n      swap5\n      pop\n        /* \"#utility.yul\":12765:12769   */\n      0x20\n        /* \"#utility.yul\":12762:12763   */\n      dup2\n        /* \"#utility.yul\":12758:12770   */\n      add\n        /* \"#utility.yul\":12753:12770   */\n      swap1\n      pop\n        /* \"#utility.yul\":12728:12936   */\n      jump(tag_300)\n    tag_302:\n        /* \"#utility.yul\":12964:12970   */\n      dup7\n        /* \"#utility.yul\":12955:12962   */\n      dup4\n        /* \"#utility.yul\":12952:12971   */\n      lt\n        /* \"#utility.yul\":12949:13128   */\n      iszero\n      tag_303\n      jumpi\n        /* \"#utility.yul\":13022:13031   */\n      dup5\n        /* \"#utility.yul\":13017:13020   */\n      dup10\n        /* \"#utility.yul\":13013:13032   */\n      add\n        /* \"#utility.yul\":13007:13033   */\n      mload\n        /* \"#utility.yul\":13065:13113   */\n      tag_304\n        /* \"#utility.yul\":13107:13111   */\n      0x1f\n        /* \"#utility.yul\":13099:13105   */\n      dup10\n        /* \"#utility.yul\":13095:13112   */\n      and\n        /* \"#utility.yul\":13084:13093   */\n      dup3\n        /* \"#utility.yul\":13065:13113   */\n      tag_148\n      jump\t// in\n    tag_304:\n        /* \"#utility.yul\":13057:13063   */\n      dup4\n        /* \"#utility.yul\":13050:13114   */\n      sstore\n        /* \"#utility.yul\":12972:13128   */\n      pop\n        /* \"#utility.yul\":12949:13128   */\n    tag_303:\n        /* \"#utility.yul\":13174:13175   */\n      0x01\n        /* \"#utility.yul\":13170:13171   */\n      0x02\n        /* \"#utility.yul\":13162:13168   */\n      dup9\n        /* \"#utility.yul\":13158:13172   */\n      mul\n        /* \"#utility.yul\":13154:13176   */\n      add\n        /* \"#utility.yul\":13148:13152   */\n      dup9\n        /* \"#utility.yul\":13141:13177   */\n      sstore\n        /* \"#utility.yul\":12576:13187   */\n      pop\n      pop\n      pop\n        /* \"#utility.yul\":12539:13426   */\n    tag_295:\n      pop\n        /* \"#utility.yul\":12129:13432   */\n      pop\n      pop\n      pop\n        /* \"#utility.yul\":12037:13432   */\n      pop\n      pop\n      jump\t// out\n        /* \"#utility.yul\":13438:13618   */\n    tag_150:\n        /* \"#utility.yul\":13486:13563   */\n      0x4e487b7100000000000000000000000000000000000000000000000000000000\n        /* \"#utility.yul\":13483:13484   */\n      0x00\n        /* \"#utility.yul\":13476:13564   */\n      mstore\n        /* \"#utility.yul\":13583:13587   */\n      0x11\n        /* \"#utility.yul\":13580:13581   */\n      0x04\n        /* \"#utility.yul\":13573:13588   */\n      mstore\n        /* \"#utility.yul\":13607:13611   */\n      0x24\n        /* \"#utility.yul\":13604:13605   */\n      0x00\n        /* \"#utility.yul\":13597:13612   */\n      revert\n        /* \"#utility.yul\":13624:13815   */\n    tag_72:\n        /* \"#utility.yul\":13664:13667   */\n      0x00\n        /* \"#utility.yul\":13683:13703   */\n      tag_307\n        /* \"#utility.yul\":13701:13702   */\n      dup3\n        /* \"#utility.yul\":13683:13703   */\n      tag_109\n      jump\t// in\n    tag_307:\n        /* \"#utility.yul\":13678:13703   */\n      swap2\n      pop\n        /* \"#utility.yul\":13717:13737   */\n      tag_308\n        /* \"#utility.yul\":13735:13736   */\n      dup4\n        /* \"#utility.yul\":13717:13737   */\n      tag_109\n      jump\t// in\n    tag_308:\n        /* \"#utility.yul\":13712:13737   */\n      swap3\n      pop\n        /* \"#utility.yul\":13760:13761   */\n      dup3\n        /* \"#utility.yul\":13757:13758   */\n      dup3\n        /* \"#utility.yul\":13753:13762   */\n      add\n        /* \"#utility.yul\":13746:13762   */\n      swap1\n      pop\n        /* \"#utility.yul\":13781:13784   */\n      dup1\n        /* \"#utility.yul\":13778:13779   */\n      dup3\n        /* \"#utility.yul\":13775:13785   */\n      gt\n        /* \"#utility.yul\":13772:13808   */\n      iszero\n      tag_309\n      jumpi\n        /* \"#utility.yul\":13788:13806   */\n      tag_310\n      tag_150\n      jump\t// in\n    tag_310:\n        /* \"#utility.yul\":13772:13808   */\n    tag_309:\n        /* \"#utility.yul\":13624:13815   */\n      swap3\n      swap2\n      pop\n      pop\n      jump\t// out\n        /* \"#utility.yul\":13821:14354   */\n    tag_74:\n        /* \"#utility.yul\":13990:13994   */\n      0x00\n        /* \"#utility.yul\":14028:14030   */\n      0x60\n        /* \"#utility.yul\":14017:14026   */\n      dup3\n        /* \"#utility.yul\":14013:14031   */\n      add\n        /* \"#utility.yul\":14005:14031   */\n      swap1\n      pop\n        /* \"#utility.yul\":14041:14112   */\n      tag_312\n        /* \"#utility.yul\":14109:14110   */\n      0x00\n        /* \"#utility.yul\":14098:14107   */\n      dup4\n        /* \"#utility.yul\":14094:14111   */\n      add\n        /* \"#utility.yul\":14085:14091   */\n      dup7\n        /* \"#utility.yul\":14041:14112   */\n      tag_119\n      jump\t// in\n    tag_312:\n        /* \"#utility.yul\":14122:14194   */\n      tag_313\n        /* \"#utility.yul\":14190:14192   */\n      0x20\n        /* \"#utility.yul\":14179:14188   */\n      dup4\n        /* \"#utility.yul\":14175:14193   */\n      add\n        /* \"#utility.yul\":14166:14172   */\n      dup6\n        /* \"#utility.yul\":14122:14194   */\n      tag_120\n      jump\t// in\n    tag_313:\n        /* \"#utility.yul\":14241:14250   */\n      dup2\n        /* \"#utility.yul\":14235:14239   */\n      dup2\n        /* \"#utility.yul\":14231:14251   */\n      sub\n        /* \"#utility.yul\":14226:14228   */\n      0x40\n        /* \"#utility.yul\":14215:14224   */\n      dup4\n        /* \"#utility.yul\":14211:14229   */\n      add\n        /* \"#utility.yul\":14204:14252   */\n      mstore\n        /* \"#utility.yul\":14269:14347   */\n      tag_314\n        /* \"#utility.yul\":14342:14346   */\n      dup2\n        /* \"#utility.yul\":14333:14339   */\n      dup5\n        /* \"#utility.yul\":14269:14347   */\n      tag_116\n      jump\t// in\n    tag_314:\n        /* \"#utility.yul\":14261:14347   */\n      swap1\n      pop\n        /* \"#utility.yul\":13821:14354   */\n      swap5\n      swap4\n      pop\n      pop\n      pop\n      pop\n      jump\t// out\n        /* \"#utility.yul\":14360:14581   */\n    tag_151:\n        /* \"#utility.yul\":14500:14534   */\n      0x204f6e6c79204f776e65722063616e2063616e63656c20746865204175637469\n        /* \"#utility.yul\":14496:14497   */\n      0x00\n        /* \"#utility.yul\":14488:14494   */\n      dup3\n        /* \"#utility.yul\":14484:14498   */\n      add\n        /* \"#utility.yul\":14477:14535   */\n      mstore\n        /* \"#utility.yul\":14569:14573   */\n      0x6f6e000000000000000000000000000000000000000000000000000000000000\n        /* \"#utility.yul\":14564:14566   */\n      0x20\n        /* \"#utility.yul\":14556:14562   */\n      dup3\n        /* \"#utility.yul\":14552:14567   */\n      add\n        /* \"#utility.yul\":14545:14574   */\n      mstore\n        /* \"#utility.yul\":14360:14581   */\n      pop\n      jump\t// out\n        /* \"#utility.yul\":14587:14953   */\n    tag_152:\n        /* \"#utility.yul\":14729:14732   */\n      0x00\n        /* \"#utility.yul\":14750:14817   */\n      tag_317\n        /* \"#utility.yul\":14814:14816   */\n      0x22\n        /* \"#utility.yul\":14809:14812   */\n      dup4\n        /* \"#utility.yul\":14750:14817   */\n      tag_113\n      jump\t// in\n    tag_317:\n        /* \"#utility.yul\":14743:14817   */\n      swap2\n      pop\n        /* \"#utility.yul\":14826:14919   */\n      tag_318\n        /* \"#utility.yul\":14915:14918   */\n      dup3\n        /* \"#utility.yul\":14826:14919   */\n      tag_151\n      jump\t// in\n    tag_318:\n        /* \"#utility.yul\":14944:14946   */\n      0x40\n        /* \"#utility.yul\":14939:14942   */\n      dup3\n        /* \"#utility.yul\":14935:14947   */\n      add\n        /* \"#utility.yul\":14928:14947   */\n      swap1\n      pop\n        /* \"#utility.yul\":14587:14953   */\n      swap2\n      swap1\n      pop\n      jump\t// out\n        /* \"#utility.yul\":14959:15378   */\n    tag_80:\n        /* \"#utility.yul\":15125:15129   */\n      0x00\n        /* \"#utility.yul\":15163:15165   */\n      0x20\n        /* \"#utility.yul\":15152:15161   */\n      dup3\n        /* \"#utility.yul\":15148:15166   */\n      add\n        /* \"#utility.yul\":15140:15166   */\n      swap1\n      pop\n        /* \"#utility.yul\":15212:15221   */\n      dup2\n        /* \"#utility.yul\":15206:15210   */\n      dup2\n        /* \"#utility.yul\":15202:15222   */\n      sub\n        /* \"#utility.yul\":15198:15199   */\n      0x00\n        /* \"#utility.yul\":15187:15196   */\n      dup4\n        /* \"#utility.yul\":15183:15200   */\n      add\n        /* \"#utility.yul\":15176:15223   */\n      mstore\n        /* \"#utility.yul\":15240:15371   */\n      tag_320\n        /* \"#utility.yul\":15366:15370   */\n      dup2\n        /* \"#utility.yul\":15240:15371   */\n      tag_152\n      jump\t// in\n    tag_320:\n        /* \"#utility.yul\":15232:15371   */\n      swap1\n      pop\n        /* \"#utility.yul\":14959:15378   */\n      swap2\n      swap1\n      pop\n      jump\t// out\n        /* \"#utility.yul\":15384:15550   */\n    tag_153:\n        /* \"#utility.yul\":15524:15542   */\n      0x206f776e65722063616e27742062696400000000000000000000000000000000\n        /* \"#utility.yul\":15520:15521   */\n      0x00\n        /* \"#utility.yul\":15512:15518   */\n      dup3\n        /* \"#utility.yul\":15508:15522   */\n      add\n        /* \"#utility.yul\":15501:15543   */\n      mstore\n        /* \"#utility.yul\":15384:15550   */\n      pop\n      jump\t// out\n        /* \"#utility.yul\":15556:15922   */\n    tag_154:\n        /* \"#utility.yul\":15698:15701   */\n      0x00\n        /* \"#utility.yul\":15719:15786   */\n      tag_323\n        /* \"#utility.yul\":15783:15785   */\n      0x10\n        /* \"#utility.yul\":15778:15781   */\n      dup4\n        /* \"#utility.yul\":15719:15786   */\n      tag_113\n      jump\t// in\n    tag_323:\n        /* \"#utility.yul\":15712:15786   */\n      swap2\n      pop\n        /* \"#utility.yul\":15795:15888   */\n      tag_324\n        /* \"#utility.yul\":15884:15887   */\n      dup3\n        /* \"#utility.yul\":15795:15888   */\n      tag_153\n      jump\t// in\n    tag_324:\n        /* \"#utility.yul\":15913:15915   */\n      0x20\n        /* \"#utility.yul\":15908:15911   */\n      dup3\n        /* \"#utility.yul\":15904:15916   */\n      add\n        /* \"#utility.yul\":15897:15916   */\n      swap1\n      pop\n        /* \"#utility.yul\":15556:15922   */\n      swap2\n      swap1\n      pop\n      jump\t// out\n        /* \"#utility.yul\":15928:16347   */\n    tag_87:\n        /* \"#utility.yul\":16094:16098   */\n      0x00\n        /* \"#utility.yul\":16132:16134   */\n      0x20\n        /* \"#utility.yul\":16121:16130   */\n      dup3\n        /* \"#utility.yul\":16117:16135   */\n      add\n        /* \"#utility.yul\":16109:16135   */\n      swap1\n      pop\n        /* \"#utility.yul\":16181:16190   */\n      dup2\n        /* \"#utility.yul\":16175:16179   */\n      dup2\n        /* \"#utility.yul\":16171:16191   */\n      sub\n        /* \"#utility.yul\":16167:16168   */\n      0x00\n        /* \"#utility.yul\":16156:16165   */\n      dup4\n        /* \"#utility.yul\":16152:16169   */\n      add\n        /* \"#utility.yul\":16145:16192   */\n      mstore\n        /* \"#utility.yul\":16209:16340   */\n      tag_326\n        /* \"#utility.yul\":16335:16339   */\n      dup2\n        /* \"#utility.yul\":16209:16340   */\n      tag_154\n      jump\t// in\n    tag_326:\n        /* \"#utility.yul\":16201:16340   */\n      swap1\n      pop\n        /* \"#utility.yul\":15928:16347   */\n      swap2\n      swap1\n      pop\n      jump\t// out\n        /* \"#utility.yul\":16353:16518   */\n    tag_155:\n        /* \"#utility.yul\":16493:16510   */\n      0x6e6f742073746172746564207965740000000000000000000000000000000000\n        /* \"#utility.yul\":16489:16490   */\n      0x00\n        /* \"#utility.yul\":16481:16487   */\n      dup3\n        /* \"#utility.yul\":16477:16491   */\n      add\n        /* \"#utility.yul\":16470:16511   */\n      mstore\n        /* \"#utility.yul\":16353:16518   */\n      pop\n      jump\t// out\n        /* \"#utility.yul\":16524:16890   */\n    tag_156:\n        /* \"#utility.yul\":16666:16669   */\n      0x00\n        /* \"#utility.yul\":16687:16754   */\n      tag_329\n        /* \"#utility.yul\":16751:16753   */\n      0x0f\n        /* \"#utility.yul\":16746:16749   */\n      dup4\n        /* \"#utility.yul\":16687:16754   */\n      tag_113\n      jump\t// in\n    tag_329:\n        /* \"#utility.yul\":16680:16754   */\n      swap2\n      pop\n        /* \"#utility.yul\":16763:16856   */\n      tag_330\n        /* \"#utility.yul\":16852:16855   */\n      dup3\n        /* \"#utility.yul\":16763:16856   */\n      tag_155\n      jump\t// in\n    tag_330:\n        /* \"#utility.yul\":16881:16883   */\n      0x20\n        /* \"#utility.yul\":16876:16879   */\n      dup3\n        /* \"#utility.yul\":16872:16884   */\n      add\n        /* \"#utility.yul\":16865:16884   */\n      swap1\n      pop\n        /* \"#utility.yul\":16524:16890   */\n      swap2\n      swap1\n      pop\n      jump\t// out\n        /* \"#utility.yul\":16896:17315   */\n    tag_90:\n        /* \"#utility.yul\":17062:17066   */\n      0x00\n        /* \"#utility.yul\":17100:17102   */\n      0x20\n        /* \"#utility.yul\":17089:17098   */\n      dup3\n        /* \"#utility.yul\":17085:17103   */\n      add\n        /* \"#utility.yul\":17077:17103   */\n      swap1\n      pop\n        /* \"#utility.yul\":17149:17158   */\n      dup2\n        /* \"#utility.yul\":17143:17147   */\n      dup2\n        /* \"#utility.yul\":17139:17159   */\n      sub\n        /* \"#utility.yul\":17135:17136   */\n      0x00\n        /* \"#utility.yul\":17124:17133   */\n      dup4\n        /* \"#utility.yul\":17120:17137   */\n      add\n        /* \"#utility.yul\":17113:17160   */\n      mstore\n        /* \"#utility.yul\":17177:17308   */\n      tag_332\n        /* \"#utility.yul\":17303:17307   */\n      dup2\n        /* \"#utility.yul\":17177:17308   */\n      tag_156\n      jump\t// in\n    tag_332:\n        /* \"#utility.yul\":17169:17308   */\n      swap1\n      pop\n        /* \"#utility.yul\":16896:17315   */\n      swap2\n      swap1\n      pop\n      jump\t// out\n        /* \"#utility.yul\":17321:17490   */\n    tag_157:\n        /* \"#utility.yul\":17461:17482   */\n      0x496e6372656173652074686520416d6f756e7400000000000000000000000000\n        /* \"#utility.yul\":17457:17458   */\n      0x00\n        /* \"#utility.yul\":17449:17455   */\n      dup3\n        /* \"#utility.yul\":17445:17459   */\n      add\n        /* \"#utility.yul\":17438:17483   */\n      mstore\n        /* \"#utility.yul\":17321:17490   */\n      pop\n      jump\t// out\n        /* \"#utility.yul\":17496:17862   */\n    tag_158:\n        /* \"#utility.yul\":17638:17641   */\n      0x00\n        /* \"#utility.yul\":17659:17726   */\n      tag_335\n        /* \"#utility.yul\":17723:17725   */\n      0x13\n        /* \"#utility.yul\":17718:17721   */\n      dup4\n        /* \"#utility.yul\":17659:17726   */\n      tag_113\n      jump\t// in\n    tag_335:\n        /* \"#utility.yul\":17652:17726   */\n      swap2\n      pop\n        /* \"#utility.yul\":17735:17828   */\n      tag_336\n        /* \"#utility.yul\":17824:17827   */\n      dup3\n        /* \"#utility.yul\":17735:17828   */\n      tag_157\n      jump\t// in\n    tag_336:\n        /* \"#utility.yul\":17853:17855   */\n      0x20\n        /* \"#utility.yul\":17848:17851   */\n      dup3\n        /* \"#utility.yul\":17844:17856   */\n      add\n        /* \"#utility.yul\":17837:17856   */\n      swap1\n      pop\n        /* \"#utility.yul\":17496:17862   */\n      swap2\n      swap1\n      pop\n      jump\t// out\n        /* \"#utility.yul\":17868:18287   */\n    tag_93:\n        /* \"#utility.yul\":18034:18038   */\n      0x00\n        /* \"#utility.yul\":18072:18074   */\n      0x20\n        /* \"#utility.yul\":18061:18070   */\n      dup3\n        /* \"#utility.yul\":18057:18075   */\n      add\n        /* \"#utility.yul\":18049:18075   */\n      swap1\n      pop\n        /* \"#utility.yul\":18121:18130   */\n      dup2\n        /* \"#utility.yul\":18115:18119   */\n      dup2\n        /* \"#utility.yul\":18111:18131   */\n      sub\n        /* \"#utility.yul\":18107:18108   */\n      0x00\n        /* \"#utility.yul\":18096:18105   */\n      dup4\n        /* \"#utility.yul\":18092:18109   */\n      add\n        /* \"#utility.yul\":18085:18132   */\n      mstore\n        /* \"#utility.yul\":18149:18280   */\n      tag_338\n        /* \"#utility.yul\":18275:18279   */\n      dup2\n        /* \"#utility.yul\":18149:18280   */\n      tag_158\n      jump\t// in\n    tag_338:\n        /* \"#utility.yul\":18141:18280   */\n      swap1\n      pop\n        /* \"#utility.yul\":17868:18287   */\n      swap2\n      swap1\n      pop\n      jump\t// out\n        /* \"#utility.yul\":18293:18625   */\n    tag_97:\n        /* \"#utility.yul\":18414:18418   */\n      0x00\n        /* \"#utility.yul\":18452:18454   */\n      0x40\n        /* \"#utility.yul\":18441:18450   */\n      dup3\n        /* \"#utility.yul\":18437:18455   */\n      add\n        /* \"#utility.yul\":18429:18455   */\n      swap1\n      pop\n        /* \"#utility.yul\":18465:18536   */\n      tag_340\n        /* \"#utility.yul\":18533:18534   */\n      0x00\n        /* \"#utility.yul\":18522:18531   */\n      dup4\n        /* \"#utility.yul\":18518:18535   */\n      add\n        /* \"#utility.yul\":18509:18515   */\n      dup6\n        /* \"#utility.yul\":18465:18536   */\n      tag_119\n      jump\t// in\n    tag_340:\n        /* \"#utility.yul\":18546:18618   */\n      tag_341\n        /* \"#utility.yul\":18614:18616   */\n      0x20\n        /* \"#utility.yul\":18603:18612   */\n      dup4\n        /* \"#utility.yul\":18599:18617   */\n      add\n        /* \"#utility.yul\":18590:18596   */\n      dup5\n        /* \"#utility.yul\":18546:18618   */\n      tag_120\n      jump\t// in\n    tag_341:\n        /* \"#utility.yul\":18293:18625   */\n      swap4\n      swap3\n      pop\n      pop\n      pop\n      jump\t// out\n\n    auxdata: 0xa2646970667358221220cdb0d30f7e745899730199766dbf34a5e3a577fad5293cca3d26af8a61f13b3f64736f6c63430008120033\n}\n",
				"bytecode": {
					"linkReferences": {},
					"object": "6080604052600160005534801561001557600080fd5b5061183f806100256000396000f3fe60806040526004361061007b5760003560e01c80638f2886441161004e5780638f2886441461014557806396b5a755146101825780639979ef45146101ab578063f6b4dfb4146101c75761007b565b80631fb4e3f0146100805780632fa23689146100c357806332246e9f146101005780636c7be44b1461011c575b600080fd5b34801561008c57600080fd5b506100a760048036038101906100a29190610e56565b6101f2565b6040516100ba9796959493929190610f63565b60405180910390f35b3480156100cf57600080fd5b506100ea60048036038101906100e59190610e56565b61031c565b6040516100f79190610fd9565b60405180910390f35b61011a60048036038101906101159190610e56565b61035c565b005b34801561012857600080fd5b50610143600480360381019061013e9190611129565b6105f6565b005b34801561015157600080fd5b5061016c60048036038101906101679190610e56565b61084a565b6040516101799190611172565b60405180910390f35b34801561018e57600080fd5b506101a960048036038101906101a49190610e56565b61086a565b005b6101c560048036038101906101c09190610e56565b610a57565b005b3480156101d357600080fd5b506101dc610da7565b6040516101e99190610fd9565b60405180910390f35b6001602052806000526040600020600091509050806000018054610215906111bc565b80601f0160208091040260200160405190810160405280929190818152602001828054610241906111bc565b801561028e5780601f106102635761010080835404028352916020019161028e565b820191906000526020600020905b81548152906001019060200180831161027157829003601f168201915b5050505050908060010160009054906101000a900473ffffffffffffffffffffffffffffffffffffffff16908060020154908060030154908060040160009054906101000a900473ffffffffffffffffffffffffffffffffffffffff16908060050154908060060160009054906101000a900473ffffffffffffffffffffffffffffffffffffffff16905087565b60006001600083815260200190815260200160002060040160009054906101000a900473ffffffffffffffffffffffffffffffffffffffff169050919050565b6001600082815260200190815260200160002060050154421161037e57600080fd5b6001600082815260200190815260200160002060010160009054906101000a900473ffffffffffffffffffffffffffffffffffffffff1673ffffffffffffffffffffffffffffffffffffffff163373ffffffffffffffffffffffffffffffffffffffff1614610422576040517f08c379a00000000000000000000000000000000000000000000000000000000081526004016104199061125f565b60405180910390fd5b6001600082815260200190815260200160002060010160009054906101000a900473ffffffffffffffffffffffffffffffffffffffff1673ffffffffffffffffffffffffffffffffffffffff166108fc60016000848152602001908152602001600020600301549081150290604051600060405180830381858888f193505050501580156104b4573d6000803e3d6000fd5b506001600082815260200190815260200160002060040160009054906101000a900473ffffffffffffffffffffffffffffffffffffffff166001600083815260200190815260200160002060010160006101000a81548173ffffffffffffffffffffffffffffffffffffffff021916908373ffffffffffffffffffffffffffffffffffffffff16021790555060016000828152602001908152602001600020600080820160006105649190610daf565b6001820160006101000a81549073ffffffffffffffffffffffffffffffffffffffff0219169055600282016000905560038201600090556004820160006101000a81549073ffffffffffffffffffffffffffffffffffffffff021916905560058201600090556006820160006101000a81549073ffffffffffffffffffffffffffffffffffffffff0219169055505050565b600073ffffffffffffffffffffffffffffffffffffffff163373ffffffffffffffffffffffffffffffffffffffff1603610665576040517f08c379a000000000000000000000000000000000000000000000000000000000815260040161065c906112cb565b60405180910390fd5b80600160008054815260200190815260200160002060000190816106899190611497565b5033600160008054815260200190815260200160002060010160006101000a81548173ffffffffffffffffffffffffffffffffffffffff021916908373ffffffffffffffffffffffffffffffffffffffff160217905550600060016000805481526020019081526020016000206002018190555060006001600080548152602001908152602001600020600301819055506000600160008054815260200190815260200160002060040160006101000a81548173ffffffffffffffffffffffffffffffffffffffff021916908373ffffffffffffffffffffffffffffffffffffffff1602179055506000600160008054815260200190815260200160002060060160006101000a81548173ffffffffffffffffffffffffffffffffffffffff021916908373ffffffffffffffffffffffffffffffffffffffff160217905550610e10426107d69190611598565b6001600080548152602001908152602001600020600501819055507fa7806320b37116843ec008da1594a383d57d02cf004956b72c34754bf63950703360005483604051610826939291906115cc565b60405180910390a160016000808282546108409190611598565b9250508190555050565b600060016000838152602001908152602001600020600301549050919050565b6001600082815260200190815260200160002060010160009054906101000a900473ffffffffffffffffffffffffffffffffffffffff1673ffffffffffffffffffffffffffffffffffffffff163373ffffffffffffffffffffffffffffffffffffffff161461090e576040517f08c379a00000000000000000000000000000000000000000000000000000000081526004016109059061167c565b60405180910390fd5b6001600082815260200190815260200160002060040160009054906101000a900473ffffffffffffffffffffffffffffffffffffffff1673ffffffffffffffffffffffffffffffffffffffff166108fc60016000848152602001908152602001600020600301549081150290604051600060405180830381858888f193505050501580156109a0573d6000803e3d6000fd5b5060016000828152602001908152602001600020600080820160006109c59190610daf565b6001820160006101000a81549073ffffffffffffffffffffffffffffffffffffffff0219169055600282016000905560038201600090556004820160006101000a81549073ffffffffffffffffffffffffffffffffffffffff021916905560058201600090556006820160006101000a81549073ffffffffffffffffffffffffffffffffffffffff0219169055505050565b3373ffffffffffffffffffffffffffffffffffffffff166001600083815260200190815260200160002060010160009054906101000a900473ffffffffffffffffffffffffffffffffffffffff1673ffffffffffffffffffffffffffffffffffffffff1603610afb576040517f08c379a0000000000000000000000000000000000000000000000000000000008152600401610af2906116e8565b60405180910390fd5b42600160008381526020019081526020016000206005015411610b53576040517f08c379a0000000000000000000000000000000000000000000000000000000008152600401610b4a90611754565b60405180910390fd5b6001600082815260200190815260200160002060020154341015610bac576040517f08c379a0000000000000000000000000000000000000000000000000000000008152600401610ba3906117c0565b60405180910390fd5b600160008281526020019081526020016000206003015460016000838152602001908152602001600020600201819055506001600082815260200190815260200160002060040160009054906101000a900473ffffffffffffffffffffffffffffffffffffffff166001600083815260200190815260200160002060060160006101000a81548173ffffffffffffffffffffffffffffffffffffffff021916908373ffffffffffffffffffffffffffffffffffffffff160217905550346001600083815260200190815260200160002060030181905550336001600083815260200190815260200160002060040160006101000a81548173ffffffffffffffffffffffffffffffffffffffff021916908373ffffffffffffffffffffffffffffffffffffffff1602179055506001600082815260200190815260200160002060060160009054906101000a900473ffffffffffffffffffffffffffffffffffffffff1673ffffffffffffffffffffffffffffffffffffffff166108fc60016000848152602001908152602001600020600201549081150290604051600060405180830381858888f19350505050158015610d6a573d6000803e3d6000fd5b507fe684a55f31b79eca403df938249029212a5925ec6be8012e099b45bc1019e5d23334604051610d9c9291906117e0565b60405180910390a150565b600030905090565b508054610dbb906111bc565b6000825580601f10610dcd5750610dec565b601f016020900490600052602060002090810190610deb9190610def565b5b50565b5b80821115610e08576000816000905550600101610df0565b5090565b6000604051905090565b600080fd5b600080fd5b6000819050919050565b610e3381610e20565b8114610e3e57600080fd5b50565b600081359050610e5081610e2a565b92915050565b600060208284031215610e6c57610e6b610e16565b5b6000610e7a84828501610e41565b91505092915050565b600081519050919050565b600082825260208201905092915050565b60005b83811015610ebd578082015181840152602081019050610ea2565b60008484015250505050565b6000601f19601f8301169050919050565b6000610ee582610e83565b610eef8185610e8e565b9350610eff818560208601610e9f565b610f0881610ec9565b840191505092915050565b600073ffffffffffffffffffffffffffffffffffffffff82169050919050565b6000610f3e82610f13565b9050919050565b610f4e81610f33565b82525050565b610f5d81610e20565b82525050565b600060e0820190508181036000830152610f7d818a610eda565b9050610f8c6020830189610f45565b610f996040830188610f54565b610fa66060830187610f54565b610fb36080830186610f45565b610fc060a0830185610f54565b610fcd60c0830184610f45565b98975050505050505050565b6000602082019050610fee6000830184610f45565b92915050565b600080fd5b600080fd5b7f4e487b7100000000000000000000000000000000000000000000000000000000600052604160045260246000fd5b61103682610ec9565b810181811067ffffffffffffffff8211171561105557611054610ffe565b5b80604052505050565b6000611068610e0c565b9050611074828261102d565b919050565b600067ffffffffffffffff82111561109457611093610ffe565b5b61109d82610ec9565b9050602081019050919050565b82818337600083830152505050565b60006110cc6110c784611079565b61105e565b9050828152602081018484840111156110e8576110e7610ff9565b5b6110f38482856110aa565b509392505050565b600082601f8301126111105761110f610ff4565b5b81356111208482602086016110b9565b91505092915050565b60006020828403121561113f5761113e610e16565b5b600082013567ffffffffffffffff81111561115d5761115c610e1b565b5b611169848285016110fb565b91505092915050565b60006020820190506111876000830184610f54565b92915050565b7f4e487b7100000000000000000000000000000000000000000000000000000000600052602260045260246000fd5b600060028204905060018216806111d457607f821691505b6020821081036111e7576111e661118d565b5b50919050565b7f204f6e6c6520546865206f776e6572206f6620746865204974656d2063616e2060008201527f6163636573732e00000000000000000000000000000000000000000000000000602082015250565b6000611249602783610e8e565b9150611254826111ed565b604082019050919050565b600060208201905081810360008301526112788161123c565b9050919050565b7f4e6f742056616c69640000000000000000000000000000000000000000000000600082015250565b60006112b5600983610e8e565b91506112c08261127f565b602082019050919050565b600060208201905081810360008301526112e4816112a8565b9050919050565b60008190508160005260206000209050919050565b60006020601f8301049050919050565b600082821b905092915050565b60006008830261134d7fffffffffffffffffffffffffffffffffffffffffffffffffffffffffffffffff82611310565b6113578683611310565b95508019841693508086168417925050509392505050565b6000819050919050565b600061139461138f61138a84610e20565b61136f565b610e20565b9050919050565b6000819050919050565b6113ae83611379565b6113c26113ba8261139b565b84845461131d565b825550505050565b600090565b6113d76113ca565b6113e28184846113a5565b505050565b5b81811015611406576113fb6000826113cf565b6001810190506113e8565b5050565b601f82111561144b5761141c816112eb565b61142584611300565b81016020851015611434578190505b61144861144085611300565b8301826113e7565b50505b505050565b600082821c905092915050565b600061146e60001984600802611450565b1980831691505092915050565b6000611487838361145d565b9150826002028217905092915050565b6114a082610e83565b67ffffffffffffffff8111156114b9576114b8610ffe565b5b6114c382546111bc565b6114ce82828561140a565b600060209050601f83116001811461150157600084156114ef578287015190505b6114f9858261147b565b865550611561565b601f19841661150f866112eb565b60005b8281101561153757848901518255600182019150602085019450602081019050611512565b868310156115545784890151611550601f89168261145d565b8355505b6001600288020188555050505b505050505050565b7f4e487b7100000000000000000000000000000000000000000000000000000000600052601160045260246000fd5b60006115a382610e20565b91506115ae83610e20565b92508282019050808211156115c6576115c5611569565b5b92915050565b60006060820190506115e16000830186610f45565b6115ee6020830185610f54565b81810360408301526116008184610eda565b9050949350505050565b7f204f6e6c79204f776e65722063616e2063616e63656c2074686520417563746960008201527f6f6e000000000000000000000000000000000000000000000000000000000000602082015250565b6000611666602283610e8e565b91506116718261160a565b604082019050919050565b6000602082019050818103600083015261169581611659565b9050919050565b7f206f776e65722063616e27742062696400000000000000000000000000000000600082015250565b60006116d2601083610e8e565b91506116dd8261169c565b602082019050919050565b60006020820190508181036000830152611701816116c5565b9050919050565b7f6e6f742073746172746564207965740000000000000000000000000000000000600082015250565b600061173e600f83610e8e565b915061174982611708565b602082019050919050565b6000602082019050818103600083015261176d81611731565b9050919050565b7f496e6372656173652074686520416d6f756e7400000000000000000000000000600082015250565b60006117aa601383610e8e565b91506117b582611774565b602082019050919050565b600060208201905081810360008301526117d98161179d565b9050919050565b60006040820190506117f56000830185610f45565b6118026020830184610f54565b939250505056fea2646970667358221220cdb0d30f7e745899730199766dbf34a5e3a577fad5293cca3d26af8a61f13b3f64736f6c63430008120033",
					"opcodes": "PUSH1 0x80 PUSH1 0x40 MSTORE PUSH1 0x1 PUSH1 0x0 SSTORE CALLVALUE DUP1 ISZERO PUSH2 0x15 JUMPI PUSH1 0x0 DUP1 REVERT JUMPDEST POP PUSH2 0x183F DUP1 PUSH2 0x25 PUSH1 0x0 CODECOPY PUSH1 0x0 RETURN INVALID PUSH1 0x80 PUSH1 0x40 MSTORE PUSH1 0x4 CALLDATASIZE LT PUSH2 0x7B JUMPI PUSH1 0x0 CALLDATALOAD PUSH1 0xE0 SHR DUP1 PUSH4 0x8F288644 GT PUSH2 0x4E JUMPI DUP1 PUSH4 0x8F288644 EQ PUSH2 0x145 JUMPI DUP1 PUSH4 0x96B5A755 EQ PUSH2 0x182 JUMPI DUP1 PUSH4 0x9979EF45 EQ PUSH2 0x1AB JUMPI DUP1 PUSH4 0xF6B4DFB4 EQ PUSH2 0x1C7 JUMPI PUSH2 0x7B JUMP JUMPDEST DUP1 PUSH4 0x1FB4E3F0 EQ PUSH2 0x80 JUMPI DUP1 PUSH4 0x2FA23689 EQ PUSH2 0xC3 JUMPI DUP1 PUSH4 0x32246E9F EQ PUSH2 0x100 JUMPI DUP1 PUSH4 0x6C7BE44B EQ PUSH2 0x11C JUMPI JUMPDEST PUSH1 0x0 DUP1 REVERT JUMPDEST CALLVALUE DUP1 ISZERO PUSH2 0x8C JUMPI PUSH1 0x0 DUP1 REVERT JUMPDEST POP PUSH2 0xA7 PUSH1 0x4 DUP1 CALLDATASIZE SUB DUP2 ADD SWAP1 PUSH2 0xA2 SWAP2 SWAP1 PUSH2 0xE56 JUMP JUMPDEST PUSH2 0x1F2 JUMP JUMPDEST PUSH1 0x40 MLOAD PUSH2 0xBA SWAP8 SWAP7 SWAP6 SWAP5 SWAP4 SWAP3 SWAP2 SWAP1 PUSH2 0xF63 JUMP JUMPDEST PUSH1 0x40 MLOAD DUP1 SWAP2 SUB SWAP1 RETURN JUMPDEST CALLVALUE DUP1 ISZERO PUSH2 0xCF JUMPI PUSH1 0x0 DUP1 REVERT JUMPDEST POP PUSH2 0xEA PUSH1 0x4 DUP1 CALLDATASIZE SUB DUP2 ADD SWAP1 PUSH2 0xE5 SWAP2 SWAP1 PUSH2 0xE56 JUMP JUMPDEST PUSH2 0x31C JUMP JUMPDEST PUSH1 0x40 MLOAD PUSH2 0xF7 SWAP2 SWAP1 PUSH2 0xFD9 JUMP JUMPDEST PUSH1 0x40 MLOAD DUP1 SWAP2 SUB SWAP1 RETURN JUMPDEST PUSH2 0x11A PUSH1 0x4 DUP1 CALLDATASIZE SUB DUP2 ADD SWAP1 PUSH2 0x115 SWAP2 SWAP1 PUSH2 0xE56 JUMP JUMPDEST PUSH2 0x35C JUMP JUMPDEST STOP JUMPDEST CALLVALUE DUP1 ISZERO PUSH2 0x128 JUMPI PUSH1 0x0 DUP1 REVERT JUMPDEST POP PUSH2 0x143 PUSH1 0x4 DUP1 CALLDATASIZE SUB DUP2 ADD SWAP1 PUSH2 0x13E SWAP2 SWAP1 PUSH2 0x1129 JUMP JUMPDEST PUSH2 0x5F6 JUMP JUMPDEST STOP JUMPDEST CALLVALUE DUP1 ISZERO PUSH2 0x151 JUMPI PUSH1 0x0 DUP1 REVERT JUMPDEST POP PUSH2 0x16C PUSH1 0x4 DUP1 CALLDATASIZE SUB DUP2 ADD SWAP1 PUSH2 0x167 SWAP2 SWAP1 PUSH2 0xE56 JUMP JUMPDEST PUSH2 0x84A JUMP JUMPDEST PUSH1 0x40 MLOAD PUSH2 0x179 SWAP2 SWAP1 PUSH2 0x1172 JUMP JUMPDEST PUSH1 0x40 MLOAD DUP1 SWAP2 SUB SWAP1 RETURN JUMPDEST CALLVALUE DUP1 ISZERO PUSH2 0x18E JUMPI PUSH1 0x0 DUP1 REVERT JUMPDEST POP PUSH2 0x1A9 PUSH1 0x4 DUP1 CALLDATASIZE SUB DUP2 ADD SWAP1 PUSH2 0x1A4 SWAP2 SWAP1 PUSH2 0xE56 JUMP JUMPDEST PUSH2 0x86A JUMP JUMPDEST STOP JUMPDEST PUSH2 0x1C5 PUSH1 0x4 DUP1 CALLDATASIZE SUB DUP2 ADD SWAP1 PUSH2 0x1C0 SWAP2 SWAP1 PUSH2 0xE56 JUMP JUMPDEST PUSH2 0xA57 JUMP JUMPDEST STOP JUMPDEST CALLVALUE DUP1 ISZERO PUSH2 0x1D3 JUMPI PUSH1 0x0 DUP1 REVERT JUMPDEST POP PUSH2 0x1DC PUSH2 0xDA7 JUMP JUMPDEST PUSH1 0x40 MLOAD PUSH2 0x1E9 SWAP2 SWAP1 PUSH2 0xFD9 JUMP JUMPDEST PUSH1 0x40 MLOAD DUP1 SWAP2 SUB SWAP1 RETURN JUMPDEST PUSH1 0x1 PUSH1 0x20 MSTORE DUP1 PUSH1 0x0 MSTORE PUSH1 0x40 PUSH1 0x0 KECCAK256 PUSH1 0x0 SWAP2 POP SWAP1 POP DUP1 PUSH1 0x0 ADD DUP1 SLOAD PUSH2 0x215 SWAP1 PUSH2 0x11BC JUMP JUMPDEST DUP1 PUSH1 0x1F ADD PUSH1 0x20 DUP1 SWAP2 DIV MUL PUSH1 0x20 ADD PUSH1 0x40 MLOAD SWAP1 DUP2 ADD PUSH1 0x40 MSTORE DUP1 SWAP3 SWAP2 SWAP1 DUP2 DUP2 MSTORE PUSH1 0x20 ADD DUP3 DUP1 SLOAD PUSH2 0x241 SWAP1 PUSH2 0x11BC JUMP JUMPDEST DUP1 ISZERO PUSH2 0x28E JUMPI DUP1 PUSH1 0x1F LT PUSH2 0x263 JUMPI PUSH2 0x100 DUP1 DUP4 SLOAD DIV MUL DUP4 MSTORE SWAP2 PUSH1 0x20 ADD SWAP2 PUSH2 0x28E JUMP JUMPDEST DUP3 ADD SWAP2 SWAP1 PUSH1 0x0 MSTORE PUSH1 0x20 PUSH1 0x0 KECCAK256 SWAP1 JUMPDEST DUP2 SLOAD DUP2 MSTORE SWAP1 PUSH1 0x1 ADD SWAP1 PUSH1 0x20 ADD DUP1 DUP4 GT PUSH2 0x271 JUMPI DUP3 SWAP1 SUB PUSH1 0x1F AND DUP3 ADD SWAP2 JUMPDEST POP POP POP POP POP SWAP1 DUP1 PUSH1 0x1 ADD PUSH1 0x0 SWAP1 SLOAD SWAP1 PUSH2 0x100 EXP SWAP1 DIV PUSH20 0xFFFFFFFFFFFFFFFFFFFFFFFFFFFFFFFFFFFFFFFF AND SWAP1 DUP1 PUSH1 0x2 ADD SLOAD SWAP1 DUP1 PUSH1 0x3 ADD SLOAD SWAP1 DUP1 PUSH1 0x4 ADD PUSH1 0x0 SWAP1 SLOAD SWAP1 PUSH2 0x100 EXP SWAP1 DIV PUSH20 0xFFFFFFFFFFFFFFFFFFFFFFFFFFFFFFFFFFFFFFFF AND SWAP1 DUP1 PUSH1 0x5 ADD SLOAD SWAP1 DUP1 PUSH1 0x6 ADD PUSH1 0x0 SWAP1 SLOAD SWAP1 PUSH2 0x100 EXP SWAP1 DIV PUSH20 0xFFFFFFFFFFFFFFFFFFFFFFFFFFFFFFFFFFFFFFFF AND SWAP1 POP DUP8 JUMP JUMPDEST PUSH1 0x0 PUSH1 0x1 PUSH1 0x0 DUP4 DUP2 MSTORE PUSH1 0x20 ADD SWAP1 DUP2 MSTORE PUSH1 0x20 ADD PUSH1 0x0 KECCAK256 PUSH1 0x4 ADD PUSH1 0x0 SWAP1 SLOAD SWAP1 PUSH2 0x100 EXP SWAP1 DIV PUSH20 0xFFFFFFFFFFFFFFFFFFFFFFFFFFFFFFFFFFFFFFFF AND SWAP1 POP SWAP2 SWAP1 POP JUMP JUMPDEST PUSH1 0x1 PUSH1 0x0 DUP3 DUP2 MSTORE PUSH1 0x20 ADD SWAP1 DUP2 MSTORE PUSH1 0x20 ADD PUSH1 0x0 KECCAK256 PUSH1 0x5 ADD SLOAD TIMESTAMP GT PUSH2 0x37E JUMPI PUSH1 0x0 DUP1 REVERT JUMPDEST PUSH1 0x1 PUSH1 0x0 DUP3 DUP2 MSTORE PUSH1 0x20 ADD SWAP1 DUP2 MSTORE PUSH1 0x20 ADD PUSH1 0x0 KECCAK256 PUSH1 0x1 ADD PUSH1 0x0 SWAP1 SLOAD SWAP1 PUSH2 0x100 EXP SWAP1 DIV PUSH20 0xFFFFFFFFFFFFFFFFFFFFFFFFFFFFFFFFFFFFFFFF AND PUSH20 0xFFFFFFFFFFFFFFFFFFFFFFFFFFFFFFFFFFFFFFFF AND CALLER PUSH20 0xFFFFFFFFFFFFFFFFFFFFFFFFFFFFFFFFFFFFFFFF AND EQ PUSH2 0x422 JUMPI PUSH1 0x40 MLOAD PUSH32 0x8C379A000000000000000000000000000000000000000000000000000000000 DUP2 MSTORE PUSH1 0x4 ADD PUSH2 0x419 SWAP1 PUSH2 0x125F JUMP JUMPDEST PUSH1 0x40 MLOAD DUP1 SWAP2 SUB SWAP1 REVERT JUMPDEST PUSH1 0x1 PUSH1 0x0 DUP3 DUP2 MSTORE PUSH1 0x20 ADD SWAP1 DUP2 MSTORE PUSH1 0x20 ADD PUSH1 0x0 KECCAK256 PUSH1 0x1 ADD PUSH1 0x0 SWAP1 SLOAD SWAP1 PUSH2 0x100 EXP SWAP1 DIV PUSH20 0xFFFFFFFFFFFFFFFFFFFFFFFFFFFFFFFFFFFFFFFF AND PUSH20 0xFFFFFFFFFFFFFFFFFFFFFFFFFFFFFFFFFFFFFFFF AND PUSH2 0x8FC PUSH1 0x1 PUSH1 0x0 DUP5 DUP2 MSTORE PUSH1 0x20 ADD SWAP1 DUP2 MSTORE PUSH1 0x20 ADD PUSH1 0x0 KECCAK256 PUSH1 0x3 ADD SLOAD SWAP1 DUP2 ISZERO MUL SWAP1 PUSH1 0x40 MLOAD PUSH1 0x0 PUSH1 0x40 MLOAD DUP1 DUP4 SUB DUP2 DUP6 DUP9 DUP9 CALL SWAP4 POP POP POP POP ISZERO DUP1 ISZERO PUSH2 0x4B4 JUMPI RETURNDATASIZE PUSH1 0x0 DUP1 RETURNDATACOPY RETURNDATASIZE PUSH1 0x0 REVERT JUMPDEST POP PUSH1 0x1 PUSH1 0x0 DUP3 DUP2 MSTORE PUSH1 0x20 ADD SWAP1 DUP2 MSTORE PUSH1 0x20 ADD PUSH1 0x0 KECCAK256 PUSH1 0x4 ADD PUSH1 0x0 SWAP1 SLOAD SWAP1 PUSH2 0x100 EXP SWAP1 DIV PUSH20 0xFFFFFFFFFFFFFFFFFFFFFFFFFFFFFFFFFFFFFFFF AND PUSH1 0x1 PUSH1 0x0 DUP4 DUP2 MSTORE PUSH1 0x20 ADD SWAP1 DUP2 MSTORE PUSH1 0x20 ADD PUSH1 0x0 KECCAK256 PUSH1 0x1 ADD PUSH1 0x0 PUSH2 0x100 EXP DUP2 SLOAD DUP2 PUSH20 0xFFFFFFFFFFFFFFFFFFFFFFFFFFFFFFFFFFFFFFFF MUL NOT AND SWAP1 DUP4 PUSH20 0xFFFFFFFFFFFFFFFFFFFFFFFFFFFFFFFFFFFFFFFF AND MUL OR SWAP1 SSTORE POP PUSH1 0x1 PUSH1 0x0 DUP3 DUP2 MSTORE PUSH1 0x20 ADD SWAP1 DUP2 MSTORE PUSH1 0x20 ADD PUSH1 0x0 KECCAK256 PUSH1 0x0 DUP1 DUP3 ADD PUSH1 0x0 PUSH2 0x564 SWAP2 SWAP1 PUSH2 0xDAF JUMP JUMPDEST PUSH1 0x1 DUP3 ADD PUSH1 0x0 PUSH2 0x100 EXP DUP2 SLOAD SWAP1 PUSH20 0xFFFFFFFFFFFFFFFFFFFFFFFFFFFFFFFFFFFFFFFF MUL NOT AND SWAP1 SSTORE PUSH1 0x2 DUP3 ADD PUSH1 0x0 SWAP1 SSTORE PUSH1 0x3 DUP3 ADD PUSH1 0x0 SWAP1 SSTORE PUSH1 0x4 DUP3 ADD PUSH1 0x0 PUSH2 0x100 EXP DUP2 SLOAD SWAP1 PUSH20 0xFFFFFFFFFFFFFFFFFFFFFFFFFFFFFFFFFFFFFFFF MUL NOT AND SWAP1 SSTORE PUSH1 0x5 DUP3 ADD PUSH1 0x0 SWAP1 SSTORE PUSH1 0x6 DUP3 ADD PUSH1 0x0 PUSH2 0x100 EXP DUP2 SLOAD SWAP1 PUSH20 0xFFFFFFFFFFFFFFFFFFFFFFFFFFFFFFFFFFFFFFFF MUL NOT AND SWAP1 SSTORE POP POP POP JUMP JUMPDEST PUSH1 0x0 PUSH20 0xFFFFFFFFFFFFFFFFFFFFFFFFFFFFFFFFFFFFFFFF AND CALLER PUSH20 0xFFFFFFFFFFFFFFFFFFFFFFFFFFFFFFFFFFFFFFFF AND SUB PUSH2 0x665 JUMPI PUSH1 0x40 MLOAD PUSH32 0x8C379A000000000000000000000000000000000000000000000000000000000 DUP2 MSTORE PUSH1 0x4 ADD PUSH2 0x65C SWAP1 PUSH2 0x12CB JUMP JUMPDEST PUSH1 0x40 MLOAD DUP1 SWAP2 SUB SWAP1 REVERT JUMPDEST DUP1 PUSH1 0x1 PUSH1 0x0 DUP1 SLOAD DUP2 MSTORE PUSH1 0x20 ADD SWAP1 DUP2 MSTORE PUSH1 0x20 ADD PUSH1 0x0 KECCAK256 PUSH1 0x0 ADD SWAP1 DUP2 PUSH2 0x689 SWAP2 SWAP1 PUSH2 0x1497 JUMP JUMPDEST POP CALLER PUSH1 0x1 PUSH1 0x0 DUP1 SLOAD DUP2 MSTORE PUSH1 0x20 ADD SWAP1 DUP2 MSTORE PUSH1 0x20 ADD PUSH1 0x0 KECCAK256 PUSH1 0x1 ADD PUSH1 0x0 PUSH2 0x100 EXP DUP2 SLOAD DUP2 PUSH20 0xFFFFFFFFFFFFFFFFFFFFFFFFFFFFFFFFFFFFFFFF MUL NOT AND SWAP1 DUP4 PUSH20 0xFFFFFFFFFFFFFFFFFFFFFFFFFFFFFFFFFFFFFFFF AND MUL OR SWAP1 SSTORE POP PUSH1 0x0 PUSH1 0x1 PUSH1 0x0 DUP1 SLOAD DUP2 MSTORE PUSH1 0x20 ADD SWAP1 DUP2 MSTORE PUSH1 0x20 ADD PUSH1 0x0 KECCAK256 PUSH1 0x2 ADD DUP2 SWAP1 SSTORE POP PUSH1 0x0 PUSH1 0x1 PUSH1 0x0 DUP1 SLOAD DUP2 MSTORE PUSH1 0x20 ADD SWAP1 DUP2 MSTORE PUSH1 0x20 ADD PUSH1 0x0 KECCAK256 PUSH1 0x3 ADD DUP2 SWAP1 SSTORE POP PUSH1 0x0 PUSH1 0x1 PUSH1 0x0 DUP1 SLOAD DUP2 MSTORE PUSH1 0x20 ADD SWAP1 DUP2 MSTORE PUSH1 0x20 ADD PUSH1 0x0 KECCAK256 PUSH1 0x4 ADD PUSH1 0x0 PUSH2 0x100 EXP DUP2 SLOAD DUP2 PUSH20 0xFFFFFFFFFFFFFFFFFFFFFFFFFFFFFFFFFFFFFFFF MUL NOT AND SWAP1 DUP4 PUSH20 0xFFFFFFFFFFFFFFFFFFFFFFFFFFFFFFFFFFFFFFFF AND MUL OR SWAP1 SSTORE POP PUSH1 0x0 PUSH1 0x1 PUSH1 0x0 DUP1 SLOAD DUP2 MSTORE PUSH1 0x20 ADD SWAP1 DUP2 MSTORE PUSH1 0x20 ADD PUSH1 0x0 KECCAK256 PUSH1 0x6 ADD PUSH1 0x0 PUSH2 0x100 EXP DUP2 SLOAD DUP2 PUSH20 0xFFFFFFFFFFFFFFFFFFFFFFFFFFFFFFFFFFFFFFFF MUL NOT AND SWAP1 DUP4 PUSH20 0xFFFFFFFFFFFFFFFFFFFFFFFFFFFFFFFFFFFFFFFF AND MUL OR SWAP1 SSTORE POP PUSH2 0xE10 TIMESTAMP PUSH2 0x7D6 SWAP2 SWAP1 PUSH2 0x1598 JUMP JUMPDEST PUSH1 0x1 PUSH1 0x0 DUP1 SLOAD DUP2 MSTORE PUSH1 0x20 ADD SWAP1 DUP2 MSTORE PUSH1 0x20 ADD PUSH1 0x0 KECCAK256 PUSH1 0x5 ADD DUP2 SWAP1 SSTORE POP PUSH32 0xA7806320B37116843EC008DA1594A383D57D02CF004956B72C34754BF6395070 CALLER PUSH1 0x0 SLOAD DUP4 PUSH1 0x40 MLOAD PUSH2 0x826 SWAP4 SWAP3 SWAP2 SWAP1 PUSH2 0x15CC JUMP JUMPDEST PUSH1 0x40 MLOAD DUP1 SWAP2 SUB SWAP1 LOG1 PUSH1 0x1 PUSH1 0x0 DUP1 DUP3 DUP3 SLOAD PUSH2 0x840 SWAP2 SWAP1 PUSH2 0x1598 JUMP JUMPDEST SWAP3 POP POP DUP2 SWAP1 SSTORE POP POP JUMP JUMPDEST PUSH1 0x0 PUSH1 0x1 PUSH1 0x0 DUP4 DUP2 MSTORE PUSH1 0x20 ADD SWAP1 DUP2 MSTORE PUSH1 0x20 ADD PUSH1 0x0 KECCAK256 PUSH1 0x3 ADD SLOAD SWAP1 POP SWAP2 SWAP1 POP JUMP JUMPDEST PUSH1 0x1 PUSH1 0x0 DUP3 DUP2 MSTORE PUSH1 0x20 ADD SWAP1 DUP2 MSTORE PUSH1 0x20 ADD PUSH1 0x0 KECCAK256 PUSH1 0x1 ADD PUSH1 0x0 SWAP1 SLOAD SWAP1 PUSH2 0x100 EXP SWAP1 DIV PUSH20 0xFFFFFFFFFFFFFFFFFFFFFFFFFFFFFFFFFFFFFFFF AND PUSH20 0xFFFFFFFFFFFFFFFFFFFFFFFFFFFFFFFFFFFFFFFF AND CALLER PUSH20 0xFFFFFFFFFFFFFFFFFFFFFFFFFFFFFFFFFFFFFFFF AND EQ PUSH2 0x90E JUMPI PUSH1 0x40 MLOAD PUSH32 0x8C379A000000000000000000000000000000000000000000000000000000000 DUP2 MSTORE PUSH1 0x4 ADD PUSH2 0x905 SWAP1 PUSH2 0x167C JUMP JUMPDEST PUSH1 0x40 MLOAD DUP1 SWAP2 SUB SWAP1 REVERT JUMPDEST PUSH1 0x1 PUSH1 0x0 DUP3 DUP2 MSTORE PUSH1 0x20 ADD SWAP1 DUP2 MSTORE PUSH1 0x20 ADD PUSH1 0x0 KECCAK256 PUSH1 0x4 ADD PUSH1 0x0 SWAP1 SLOAD SWAP1 PUSH2 0x100 EXP SWAP1 DIV PUSH20 0xFFFFFFFFFFFFFFFFFFFFFFFFFFFFFFFFFFFFFFFF AND PUSH20 0xFFFFFFFFFFFFFFFFFFFFFFFFFFFFFFFFFFFFFFFF AND PUSH2 0x8FC PUSH1 0x1 PUSH1 0x0 DUP5 DUP2 MSTORE PUSH1 0x20 ADD SWAP1 DUP2 MSTORE PUSH1 0x20 ADD PUSH1 0x0 KECCAK256 PUSH1 0x3 ADD SLOAD SWAP1 DUP2 ISZERO MUL SWAP1 PUSH1 0x40 MLOAD PUSH1 0x0 PUSH1 0x40 MLOAD DUP1 DUP4 SUB DUP2 DUP6 DUP9 DUP9 CALL SWAP4 POP POP POP POP ISZERO DUP1 ISZERO PUSH2 0x9A0 JUMPI RETURNDATASIZE PUSH1 0x0 DUP1 RETURNDATACOPY RETURNDATASIZE PUSH1 0x0 REVERT JUMPDEST POP PUSH1 0x1 PUSH1 0x0 DUP3 DUP2 MSTORE PUSH1 0x20 ADD SWAP1 DUP2 MSTORE PUSH1 0x20 ADD PUSH1 0x0 KECCAK256 PUSH1 0x0 DUP1 DUP3 ADD PUSH1 0x0 PUSH2 0x9C5 SWAP2 SWAP1 PUSH2 0xDAF JUMP JUMPDEST PUSH1 0x1 DUP3 ADD PUSH1 0x0 PUSH2 0x100 EXP DUP2 SLOAD SWAP1 PUSH20 0xFFFFFFFFFFFFFFFFFFFFFFFFFFFFFFFFFFFFFFFF MUL NOT AND SWAP1 SSTORE PUSH1 0x2 DUP3 ADD PUSH1 0x0 SWAP1 SSTORE PUSH1 0x3 DUP3 ADD PUSH1 0x0 SWAP1 SSTORE PUSH1 0x4 DUP3 ADD PUSH1 0x0 PUSH2 0x100 EXP DUP2 SLOAD SWAP1 PUSH20 0xFFFFFFFFFFFFFFFFFFFFFFFFFFFFFFFFFFFFFFFF MUL NOT AND SWAP1 SSTORE PUSH1 0x5 DUP3 ADD PUSH1 0x0 SWAP1 SSTORE PUSH1 0x6 DUP3 ADD PUSH1 0x0 PUSH2 0x100 EXP DUP2 SLOAD SWAP1 PUSH20 0xFFFFFFFFFFFFFFFFFFFFFFFFFFFFFFFFFFFFFFFF MUL NOT AND SWAP1 SSTORE POP POP POP JUMP JUMPDEST CALLER PUSH20 0xFFFFFFFFFFFFFFFFFFFFFFFFFFFFFFFFFFFFFFFF AND PUSH1 0x1 PUSH1 0x0 DUP4 DUP2 MSTORE PUSH1 0x20 ADD SWAP1 DUP2 MSTORE PUSH1 0x20 ADD PUSH1 0x0 KECCAK256 PUSH1 0x1 ADD PUSH1 0x0 SWAP1 SLOAD SWAP1 PUSH2 0x100 EXP SWAP1 DIV PUSH20 0xFFFFFFFFFFFFFFFFFFFFFFFFFFFFFFFFFFFFFFFF AND PUSH20 0xFFFFFFFFFFFFFFFFFFFFFFFFFFFFFFFFFFFFFFFF AND SUB PUSH2 0xAFB JUMPI PUSH1 0x40 MLOAD PUSH32 0x8C379A000000000000000000000000000000000000000000000000000000000 DUP2 MSTORE PUSH1 0x4 ADD PUSH2 0xAF2 SWAP1 PUSH2 0x16E8 JUMP JUMPDEST PUSH1 0x40 MLOAD DUP1 SWAP2 SUB SWAP1 REVERT JUMPDEST TIMESTAMP PUSH1 0x1 PUSH1 0x0 DUP4 DUP2 MSTORE PUSH1 0x20 ADD SWAP1 DUP2 MSTORE PUSH1 0x20 ADD PUSH1 0x0 KECCAK256 PUSH1 0x5 ADD SLOAD GT PUSH2 0xB53 JUMPI PUSH1 0x40 MLOAD PUSH32 0x8C379A000000000000000000000000000000000000000000000000000000000 DUP2 MSTORE PUSH1 0x4 ADD PUSH2 0xB4A SWAP1 PUSH2 0x1754 JUMP JUMPDEST PUSH1 0x40 MLOAD DUP1 SWAP2 SUB SWAP1 REVERT JUMPDEST PUSH1 0x1 PUSH1 0x0 DUP3 DUP2 MSTORE PUSH1 0x20 ADD SWAP1 DUP2 MSTORE PUSH1 0x20 ADD PUSH1 0x0 KECCAK256 PUSH1 0x2 ADD SLOAD CALLVALUE LT ISZERO PUSH2 0xBAC JUMPI PUSH1 0x40 MLOAD PUSH32 0x8C379A000000000000000000000000000000000000000000000000000000000 DUP2 MSTORE PUSH1 0x4 ADD PUSH2 0xBA3 SWAP1 PUSH2 0x17C0 JUMP JUMPDEST PUSH1 0x40 MLOAD DUP1 SWAP2 SUB SWAP1 REVERT JUMPDEST PUSH1 0x1 PUSH1 0x0 DUP3 DUP2 MSTORE PUSH1 0x20 ADD SWAP1 DUP2 MSTORE PUSH1 0x20 ADD PUSH1 0x0 KECCAK256 PUSH1 0x3 ADD SLOAD PUSH1 0x1 PUSH1 0x0 DUP4 DUP2 MSTORE PUSH1 0x20 ADD SWAP1 DUP2 MSTORE PUSH1 0x20 ADD PUSH1 0x0 KECCAK256 PUSH1 0x2 ADD DUP2 SWAP1 SSTORE POP PUSH1 0x1 PUSH1 0x0 DUP3 DUP2 MSTORE PUSH1 0x20 ADD SWAP1 DUP2 MSTORE PUSH1 0x20 ADD PUSH1 0x0 KECCAK256 PUSH1 0x4 ADD PUSH1 0x0 SWAP1 SLOAD SWAP1 PUSH2 0x100 EXP SWAP1 DIV PUSH20 0xFFFFFFFFFFFFFFFFFFFFFFFFFFFFFFFFFFFFFFFF AND PUSH1 0x1 PUSH1 0x0 DUP4 DUP2 MSTORE PUSH1 0x20 ADD SWAP1 DUP2 MSTORE PUSH1 0x20 ADD PUSH1 0x0 KECCAK256 PUSH1 0x6 ADD PUSH1 0x0 PUSH2 0x100 EXP DUP2 SLOAD DUP2 PUSH20 0xFFFFFFFFFFFFFFFFFFFFFFFFFFFFFFFFFFFFFFFF MUL NOT AND SWAP1 DUP4 PUSH20 0xFFFFFFFFFFFFFFFFFFFFFFFFFFFFFFFFFFFFFFFF AND MUL OR SWAP1 SSTORE POP CALLVALUE PUSH1 0x1 PUSH1 0x0 DUP4 DUP2 MSTORE PUSH1 0x20 ADD SWAP1 DUP2 MSTORE PUSH1 0x20 ADD PUSH1 0x0 KECCAK256 PUSH1 0x3 ADD DUP2 SWAP1 SSTORE POP CALLER PUSH1 0x1 PUSH1 0x0 DUP4 DUP2 MSTORE PUSH1 0x20 ADD SWAP1 DUP2 MSTORE PUSH1 0x20 ADD PUSH1 0x0 KECCAK256 PUSH1 0x4 ADD PUSH1 0x0 PUSH2 0x100 EXP DUP2 SLOAD DUP2 PUSH20 0xFFFFFFFFFFFFFFFFFFFFFFFFFFFFFFFFFFFFFFFF MUL NOT AND SWAP1 DUP4 PUSH20 0xFFFFFFFFFFFFFFFFFFFFFFFFFFFFFFFFFFFFFFFF AND MUL OR SWAP1 SSTORE POP PUSH1 0x1 PUSH1 0x0 DUP3 DUP2 MSTORE PUSH1 0x20 ADD SWAP1 DUP2 MSTORE PUSH1 0x20 ADD PUSH1 0x0 KECCAK256 PUSH1 0x6 ADD PUSH1 0x0 SWAP1 SLOAD SWAP1 PUSH2 0x100 EXP SWAP1 DIV PUSH20 0xFFFFFFFFFFFFFFFFFFFFFFFFFFFFFFFFFFFFFFFF AND PUSH20 0xFFFFFFFFFFFFFFFFFFFFFFFFFFFFFFFFFFFFFFFF AND PUSH2 0x8FC PUSH1 0x1 PUSH1 0x0 DUP5 DUP2 MSTORE PUSH1 0x20 ADD SWAP1 DUP2 MSTORE PUSH1 0x20 ADD PUSH1 0x0 KECCAK256 PUSH1 0x2 ADD SLOAD SWAP1 DUP2 ISZERO MUL SWAP1 PUSH1 0x40 MLOAD PUSH1 0x0 PUSH1 0x40 MLOAD DUP1 DUP4 SUB DUP2 DUP6 DUP9 DUP9 CALL SWAP4 POP POP POP POP ISZERO DUP1 ISZERO PUSH2 0xD6A JUMPI RETURNDATASIZE PUSH1 0x0 DUP1 RETURNDATACOPY RETURNDATASIZE PUSH1 0x0 REVERT JUMPDEST POP PUSH32 0xE684A55F31B79ECA403DF938249029212A5925EC6BE8012E099B45BC1019E5D2 CALLER CALLVALUE PUSH1 0x40 MLOAD PUSH2 0xD9C SWAP3 SWAP2 SWAP1 PUSH2 0x17E0 JUMP JUMPDEST PUSH1 0x40 MLOAD DUP1 SWAP2 SUB SWAP1 LOG1 POP JUMP JUMPDEST PUSH1 0x0 ADDRESS SWAP1 POP SWAP1 JUMP JUMPDEST POP DUP1 SLOAD PUSH2 0xDBB SWAP1 PUSH2 0x11BC JUMP JUMPDEST PUSH1 0x0 DUP3 SSTORE DUP1 PUSH1 0x1F LT PUSH2 0xDCD JUMPI POP PUSH2 0xDEC JUMP JUMPDEST PUSH1 0x1F ADD PUSH1 0x20 SWAP1 DIV SWAP1 PUSH1 0x0 MSTORE PUSH1 0x20 PUSH1 0x0 KECCAK256 SWAP1 DUP2 ADD SWAP1 PUSH2 0xDEB SWAP2 SWAP1 PUSH2 0xDEF JUMP JUMPDEST JUMPDEST POP JUMP JUMPDEST JUMPDEST DUP1 DUP3 GT ISZERO PUSH2 0xE08 JUMPI PUSH1 0x0 DUP2 PUSH1 0x0 SWAP1 SSTORE POP PUSH1 0x1 ADD PUSH2 0xDF0 JUMP JUMPDEST POP SWAP1 JUMP JUMPDEST PUSH1 0x0 PUSH1 0x40 MLOAD SWAP1 POP SWAP1 JUMP JUMPDEST PUSH1 0x0 DUP1 REVERT JUMPDEST PUSH1 0x0 DUP1 REVERT JUMPDEST PUSH1 0x0 DUP2 SWAP1 POP SWAP2 SWAP1 POP JUMP JUMPDEST PUSH2 0xE33 DUP2 PUSH2 0xE20 JUMP JUMPDEST DUP2 EQ PUSH2 0xE3E JUMPI PUSH1 0x0 DUP1 REVERT JUMPDEST POP JUMP JUMPDEST PUSH1 0x0 DUP2 CALLDATALOAD SWAP1 POP PUSH2 0xE50 DUP2 PUSH2 0xE2A JUMP JUMPDEST SWAP3 SWAP2 POP POP JUMP JUMPDEST PUSH1 0x0 PUSH1 0x20 DUP3 DUP5 SUB SLT ISZERO PUSH2 0xE6C JUMPI PUSH2 0xE6B PUSH2 0xE16 JUMP JUMPDEST JUMPDEST PUSH1 0x0 PUSH2 0xE7A DUP5 DUP3 DUP6 ADD PUSH2 0xE41 JUMP JUMPDEST SWAP2 POP POP SWAP3 SWAP2 POP POP JUMP JUMPDEST PUSH1 0x0 DUP2 MLOAD SWAP1 POP SWAP2 SWAP1 POP JUMP JUMPDEST PUSH1 0x0 DUP3 DUP3 MSTORE PUSH1 0x20 DUP3 ADD SWAP1 POP SWAP3 SWAP2 POP POP JUMP JUMPDEST PUSH1 0x0 JUMPDEST DUP4 DUP2 LT ISZERO PUSH2 0xEBD JUMPI DUP1 DUP3 ADD MLOAD DUP2 DUP5 ADD MSTORE PUSH1 0x20 DUP2 ADD SWAP1 POP PUSH2 0xEA2 JUMP JUMPDEST PUSH1 0x0 DUP5 DUP5 ADD MSTORE POP POP POP POP JUMP JUMPDEST PUSH1 0x0 PUSH1 0x1F NOT PUSH1 0x1F DUP4 ADD AND SWAP1 POP SWAP2 SWAP1 POP JUMP JUMPDEST PUSH1 0x0 PUSH2 0xEE5 DUP3 PUSH2 0xE83 JUMP JUMPDEST PUSH2 0xEEF DUP2 DUP6 PUSH2 0xE8E JUMP JUMPDEST SWAP4 POP PUSH2 0xEFF DUP2 DUP6 PUSH1 0x20 DUP7 ADD PUSH2 0xE9F JUMP JUMPDEST PUSH2 0xF08 DUP2 PUSH2 0xEC9 JUMP JUMPDEST DUP5 ADD SWAP2 POP POP SWAP3 SWAP2 POP POP JUMP JUMPDEST PUSH1 0x0 PUSH20 0xFFFFFFFFFFFFFFFFFFFFFFFFFFFFFFFFFFFFFFFF DUP3 AND SWAP1 POP SWAP2 SWAP1 POP JUMP JUMPDEST PUSH1 0x0 PUSH2 0xF3E DUP3 PUSH2 0xF13 JUMP JUMPDEST SWAP1 POP SWAP2 SWAP1 POP JUMP JUMPDEST PUSH2 0xF4E DUP2 PUSH2 0xF33 JUMP JUMPDEST DUP3 MSTORE POP POP JUMP JUMPDEST PUSH2 0xF5D DUP2 PUSH2 0xE20 JUMP JUMPDEST DUP3 MSTORE POP POP JUMP JUMPDEST PUSH1 0x0 PUSH1 0xE0 DUP3 ADD SWAP1 POP DUP2 DUP2 SUB PUSH1 0x0 DUP4 ADD MSTORE PUSH2 0xF7D DUP2 DUP11 PUSH2 0xEDA JUMP JUMPDEST SWAP1 POP PUSH2 0xF8C PUSH1 0x20 DUP4 ADD DUP10 PUSH2 0xF45 JUMP JUMPDEST PUSH2 0xF99 PUSH1 0x40 DUP4 ADD DUP9 PUSH2 0xF54 JUMP JUMPDEST PUSH2 0xFA6 PUSH1 0x60 DUP4 ADD DUP8 PUSH2 0xF54 JUMP JUMPDEST PUSH2 0xFB3 PUSH1 0x80 DUP4 ADD DUP7 PUSH2 0xF45 JUMP JUMPDEST PUSH2 0xFC0 PUSH1 0xA0 DUP4 ADD DUP6 PUSH2 0xF54 JUMP JUMPDEST PUSH2 0xFCD PUSH1 0xC0 DUP4 ADD DUP5 PUSH2 0xF45 JUMP JUMPDEST SWAP9 SWAP8 POP POP POP POP POP POP POP POP JUMP JUMPDEST PUSH1 0x0 PUSH1 0x20 DUP3 ADD SWAP1 POP PUSH2 0xFEE PUSH1 0x0 DUP4 ADD DUP5 PUSH2 0xF45 JUMP JUMPDEST SWAP3 SWAP2 POP POP JUMP JUMPDEST PUSH1 0x0 DUP1 REVERT JUMPDEST PUSH1 0x0 DUP1 REVERT JUMPDEST PUSH32 0x4E487B7100000000000000000000000000000000000000000000000000000000 PUSH1 0x0 MSTORE PUSH1 0x41 PUSH1 0x4 MSTORE PUSH1 0x24 PUSH1 0x0 REVERT JUMPDEST PUSH2 0x1036 DUP3 PUSH2 0xEC9 JUMP JUMPDEST DUP2 ADD DUP2 DUP2 LT PUSH8 0xFFFFFFFFFFFFFFFF DUP3 GT OR ISZERO PUSH2 0x1055 JUMPI PUSH2 0x1054 PUSH2 0xFFE JUMP JUMPDEST JUMPDEST DUP1 PUSH1 0x40 MSTORE POP POP POP JUMP JUMPDEST PUSH1 0x0 PUSH2 0x1068 PUSH2 0xE0C JUMP JUMPDEST SWAP1 POP PUSH2 0x1074 DUP3 DUP3 PUSH2 0x102D JUMP JUMPDEST SWAP2 SWAP1 POP JUMP JUMPDEST PUSH1 0x0 PUSH8 0xFFFFFFFFFFFFFFFF DUP3 GT ISZERO PUSH2 0x1094 JUMPI PUSH2 0x1093 PUSH2 0xFFE JUMP JUMPDEST JUMPDEST PUSH2 0x109D DUP3 PUSH2 0xEC9 JUMP JUMPDEST SWAP1 POP PUSH1 0x20 DUP2 ADD SWAP1 POP SWAP2 SWAP1 POP JUMP JUMPDEST DUP3 DUP2 DUP4 CALLDATACOPY PUSH1 0x0 DUP4 DUP4 ADD MSTORE POP POP POP JUMP JUMPDEST PUSH1 0x0 PUSH2 0x10CC PUSH2 0x10C7 DUP5 PUSH2 0x1079 JUMP JUMPDEST PUSH2 0x105E JUMP JUMPDEST SWAP1 POP DUP3 DUP2 MSTORE PUSH1 0x20 DUP2 ADD DUP5 DUP5 DUP5 ADD GT ISZERO PUSH2 0x10E8 JUMPI PUSH2 0x10E7 PUSH2 0xFF9 JUMP JUMPDEST JUMPDEST PUSH2 0x10F3 DUP5 DUP3 DUP6 PUSH2 0x10AA JUMP JUMPDEST POP SWAP4 SWAP3 POP POP POP JUMP JUMPDEST PUSH1 0x0 DUP3 PUSH1 0x1F DUP4 ADD SLT PUSH2 0x1110 JUMPI PUSH2 0x110F PUSH2 0xFF4 JUMP JUMPDEST JUMPDEST DUP2 CALLDATALOAD PUSH2 0x1120 DUP5 DUP3 PUSH1 0x20 DUP7 ADD PUSH2 0x10B9 JUMP JUMPDEST SWAP2 POP POP SWAP3 SWAP2 POP POP JUMP JUMPDEST PUSH1 0x0 PUSH1 0x20 DUP3 DUP5 SUB SLT ISZERO PUSH2 0x113F JUMPI PUSH2 0x113E PUSH2 0xE16 JUMP JUMPDEST JUMPDEST PUSH1 0x0 DUP3 ADD CALLDATALOAD PUSH8 0xFFFFFFFFFFFFFFFF DUP2 GT ISZERO PUSH2 0x115D JUMPI PUSH2 0x115C PUSH2 0xE1B JUMP JUMPDEST JUMPDEST PUSH2 0x1169 DUP5 DUP3 DUP6 ADD PUSH2 0x10FB JUMP JUMPDEST SWAP2 POP POP SWAP3 SWAP2 POP POP JUMP JUMPDEST PUSH1 0x0 PUSH1 0x20 DUP3 ADD SWAP1 POP PUSH2 0x1187 PUSH1 0x0 DUP4 ADD DUP5 PUSH2 0xF54 JUMP JUMPDEST SWAP3 SWAP2 POP POP JUMP JUMPDEST PUSH32 0x4E487B7100000000000000000000000000000000000000000000000000000000 PUSH1 0x0 MSTORE PUSH1 0x22 PUSH1 0x4 MSTORE PUSH1 0x24 PUSH1 0x0 REVERT JUMPDEST PUSH1 0x0 PUSH1 0x2 DUP3 DIV SWAP1 POP PUSH1 0x1 DUP3 AND DUP1 PUSH2 0x11D4 JUMPI PUSH1 0x7F DUP3 AND SWAP2 POP JUMPDEST PUSH1 0x20 DUP3 LT DUP2 SUB PUSH2 0x11E7 JUMPI PUSH2 0x11E6 PUSH2 0x118D JUMP JUMPDEST JUMPDEST POP SWAP2 SWAP1 POP JUMP JUMPDEST PUSH32 0x204F6E6C6520546865206F776E6572206F6620746865204974656D2063616E20 PUSH1 0x0 DUP3 ADD MSTORE PUSH32 0x6163636573732E00000000000000000000000000000000000000000000000000 PUSH1 0x20 DUP3 ADD MSTORE POP JUMP JUMPDEST PUSH1 0x0 PUSH2 0x1249 PUSH1 0x27 DUP4 PUSH2 0xE8E JUMP JUMPDEST SWAP2 POP PUSH2 0x1254 DUP3 PUSH2 0x11ED JUMP JUMPDEST PUSH1 0x40 DUP3 ADD SWAP1 POP SWAP2 SWAP1 POP JUMP JUMPDEST PUSH1 0x0 PUSH1 0x20 DUP3 ADD SWAP1 POP DUP2 DUP2 SUB PUSH1 0x0 DUP4 ADD MSTORE PUSH2 0x1278 DUP2 PUSH2 0x123C JUMP JUMPDEST SWAP1 POP SWAP2 SWAP1 POP JUMP JUMPDEST PUSH32 0x4E6F742056616C69640000000000000000000000000000000000000000000000 PUSH1 0x0 DUP3 ADD MSTORE POP JUMP JUMPDEST PUSH1 0x0 PUSH2 0x12B5 PUSH1 0x9 DUP4 PUSH2 0xE8E JUMP JUMPDEST SWAP2 POP PUSH2 0x12C0 DUP3 PUSH2 0x127F JUMP JUMPDEST PUSH1 0x20 DUP3 ADD SWAP1 POP SWAP2 SWAP1 POP JUMP JUMPDEST PUSH1 0x0 PUSH1 0x20 DUP3 ADD SWAP1 POP DUP2 DUP2 SUB PUSH1 0x0 DUP4 ADD MSTORE PUSH2 0x12E4 DUP2 PUSH2 0x12A8 JUMP JUMPDEST SWAP1 POP SWAP2 SWAP1 POP JUMP JUMPDEST PUSH1 0x0 DUP2 SWAP1 POP DUP2 PUSH1 0x0 MSTORE PUSH1 0x20 PUSH1 0x0 KECCAK256 SWAP1 POP SWAP2 SWAP1 POP JUMP JUMPDEST PUSH1 0x0 PUSH1 0x20 PUSH1 0x1F DUP4 ADD DIV SWAP1 POP SWAP2 SWAP1 POP JUMP JUMPDEST PUSH1 0x0 DUP3 DUP3 SHL SWAP1 POP SWAP3 SWAP2 POP POP JUMP JUMPDEST PUSH1 0x0 PUSH1 0x8 DUP4 MUL PUSH2 0x134D PUSH32 0xFFFFFFFFFFFFFFFFFFFFFFFFFFFFFFFFFFFFFFFFFFFFFFFFFFFFFFFFFFFFFFFF DUP3 PUSH2 0x1310 JUMP JUMPDEST PUSH2 0x1357 DUP7 DUP4 PUSH2 0x1310 JUMP JUMPDEST SWAP6 POP DUP1 NOT DUP5 AND SWAP4 POP DUP1 DUP7 AND DUP5 OR SWAP3 POP POP POP SWAP4 SWAP3 POP POP POP JUMP JUMPDEST PUSH1 0x0 DUP2 SWAP1 POP SWAP2 SWAP1 POP JUMP JUMPDEST PUSH1 0x0 PUSH2 0x1394 PUSH2 0x138F PUSH2 0x138A DUP5 PUSH2 0xE20 JUMP JUMPDEST PUSH2 0x136F JUMP JUMPDEST PUSH2 0xE20 JUMP JUMPDEST SWAP1 POP SWAP2 SWAP1 POP JUMP JUMPDEST PUSH1 0x0 DUP2 SWAP1 POP SWAP2 SWAP1 POP JUMP JUMPDEST PUSH2 0x13AE DUP4 PUSH2 0x1379 JUMP JUMPDEST PUSH2 0x13C2 PUSH2 0x13BA DUP3 PUSH2 0x139B JUMP JUMPDEST DUP5 DUP5 SLOAD PUSH2 0x131D JUMP JUMPDEST DUP3 SSTORE POP POP POP POP JUMP JUMPDEST PUSH1 0x0 SWAP1 JUMP JUMPDEST PUSH2 0x13D7 PUSH2 0x13CA JUMP JUMPDEST PUSH2 0x13E2 DUP2 DUP5 DUP5 PUSH2 0x13A5 JUMP JUMPDEST POP POP POP JUMP JUMPDEST JUMPDEST DUP2 DUP2 LT ISZERO PUSH2 0x1406 JUMPI PUSH2 0x13FB PUSH1 0x0 DUP3 PUSH2 0x13CF JUMP JUMPDEST PUSH1 0x1 DUP2 ADD SWAP1 POP PUSH2 0x13E8 JUMP JUMPDEST POP POP JUMP JUMPDEST PUSH1 0x1F DUP3 GT ISZERO PUSH2 0x144B JUMPI PUSH2 0x141C DUP2 PUSH2 0x12EB JUMP JUMPDEST PUSH2 0x1425 DUP5 PUSH2 0x1300 JUMP JUMPDEST DUP2 ADD PUSH1 0x20 DUP6 LT ISZERO PUSH2 0x1434 JUMPI DUP2 SWAP1 POP JUMPDEST PUSH2 0x1448 PUSH2 0x1440 DUP6 PUSH2 0x1300 JUMP JUMPDEST DUP4 ADD DUP3 PUSH2 0x13E7 JUMP JUMPDEST POP POP JUMPDEST POP POP POP JUMP JUMPDEST PUSH1 0x0 DUP3 DUP3 SHR SWAP1 POP SWAP3 SWAP2 POP POP JUMP JUMPDEST PUSH1 0x0 PUSH2 0x146E PUSH1 0x0 NOT DUP5 PUSH1 0x8 MUL PUSH2 0x1450 JUMP JUMPDEST NOT DUP1 DUP4 AND SWAP2 POP POP SWAP3 SWAP2 POP POP JUMP JUMPDEST PUSH1 0x0 PUSH2 0x1487 DUP4 DUP4 PUSH2 0x145D JUMP JUMPDEST SWAP2 POP DUP3 PUSH1 0x2 MUL DUP3 OR SWAP1 POP SWAP3 SWAP2 POP POP JUMP JUMPDEST PUSH2 0x14A0 DUP3 PUSH2 0xE83 JUMP JUMPDEST PUSH8 0xFFFFFFFFFFFFFFFF DUP2 GT ISZERO PUSH2 0x14B9 JUMPI PUSH2 0x14B8 PUSH2 0xFFE JUMP JUMPDEST JUMPDEST PUSH2 0x14C3 DUP3 SLOAD PUSH2 0x11BC JUMP JUMPDEST PUSH2 0x14CE DUP3 DUP3 DUP6 PUSH2 0x140A JUMP JUMPDEST PUSH1 0x0 PUSH1 0x20 SWAP1 POP PUSH1 0x1F DUP4 GT PUSH1 0x1 DUP2 EQ PUSH2 0x1501 JUMPI PUSH1 0x0 DUP5 ISZERO PUSH2 0x14EF JUMPI DUP3 DUP8 ADD MLOAD SWAP1 POP JUMPDEST PUSH2 0x14F9 DUP6 DUP3 PUSH2 0x147B JUMP JUMPDEST DUP7 SSTORE POP PUSH2 0x1561 JUMP JUMPDEST PUSH1 0x1F NOT DUP5 AND PUSH2 0x150F DUP7 PUSH2 0x12EB JUMP JUMPDEST PUSH1 0x0 JUMPDEST DUP3 DUP2 LT ISZERO PUSH2 0x1537 JUMPI DUP5 DUP10 ADD MLOAD DUP3 SSTORE PUSH1 0x1 DUP3 ADD SWAP2 POP PUSH1 0x20 DUP6 ADD SWAP5 POP PUSH1 0x20 DUP2 ADD SWAP1 POP PUSH2 0x1512 JUMP JUMPDEST DUP7 DUP4 LT ISZERO PUSH2 0x1554 JUMPI DUP5 DUP10 ADD MLOAD PUSH2 0x1550 PUSH1 0x1F DUP10 AND DUP3 PUSH2 0x145D JUMP JUMPDEST DUP4 SSTORE POP JUMPDEST PUSH1 0x1 PUSH1 0x2 DUP9 MUL ADD DUP9 SSTORE POP POP POP JUMPDEST POP POP POP POP POP POP JUMP JUMPDEST PUSH32 0x4E487B7100000000000000000000000000000000000000000000000000000000 PUSH1 0x0 MSTORE PUSH1 0x11 PUSH1 0x4 MSTORE PUSH1 0x24 PUSH1 0x0 REVERT JUMPDEST PUSH1 0x0 PUSH2 0x15A3 DUP3 PUSH2 0xE20 JUMP JUMPDEST SWAP2 POP PUSH2 0x15AE DUP4 PUSH2 0xE20 JUMP JUMPDEST SWAP3 POP DUP3 DUP3 ADD SWAP1 POP DUP1 DUP3 GT ISZERO PUSH2 0x15C6 JUMPI PUSH2 0x15C5 PUSH2 0x1569 JUMP JUMPDEST JUMPDEST SWAP3 SWAP2 POP POP JUMP JUMPDEST PUSH1 0x0 PUSH1 0x60 DUP3 ADD SWAP1 POP PUSH2 0x15E1 PUSH1 0x0 DUP4 ADD DUP7 PUSH2 0xF45 JUMP JUMPDEST PUSH2 0x15EE PUSH1 0x20 DUP4 ADD DUP6 PUSH2 0xF54 JUMP JUMPDEST DUP2 DUP2 SUB PUSH1 0x40 DUP4 ADD MSTORE PUSH2 0x1600 DUP2 DUP5 PUSH2 0xEDA JUMP JUMPDEST SWAP1 POP SWAP5 SWAP4 POP POP POP POP JUMP JUMPDEST PUSH32 0x204F6E6C79204F776E65722063616E2063616E63656C20746865204175637469 PUSH1 0x0 DUP3 ADD MSTORE PUSH32 0x6F6E000000000000000000000000000000000000000000000000000000000000 PUSH1 0x20 DUP3 ADD MSTORE POP JUMP JUMPDEST PUSH1 0x0 PUSH2 0x1666 PUSH1 0x22 DUP4 PUSH2 0xE8E JUMP JUMPDEST SWAP2 POP PUSH2 0x1671 DUP3 PUSH2 0x160A JUMP JUMPDEST PUSH1 0x40 DUP3 ADD SWAP1 POP SWAP2 SWAP1 POP JUMP JUMPDEST PUSH1 0x0 PUSH1 0x20 DUP3 ADD SWAP1 POP DUP2 DUP2 SUB PUSH1 0x0 DUP4 ADD MSTORE PUSH2 0x1695 DUP2 PUSH2 0x1659 JUMP JUMPDEST SWAP1 POP SWAP2 SWAP1 POP JUMP JUMPDEST PUSH32 0x206F776E65722063616E27742062696400000000000000000000000000000000 PUSH1 0x0 DUP3 ADD MSTORE POP JUMP JUMPDEST PUSH1 0x0 PUSH2 0x16D2 PUSH1 0x10 DUP4 PUSH2 0xE8E JUMP JUMPDEST SWAP2 POP PUSH2 0x16DD DUP3 PUSH2 0x169C JUMP JUMPDEST PUSH1 0x20 DUP3 ADD SWAP1 POP SWAP2 SWAP1 POP JUMP JUMPDEST PUSH1 0x0 PUSH1 0x20 DUP3 ADD SWAP1 POP DUP2 DUP2 SUB PUSH1 0x0 DUP4 ADD MSTORE PUSH2 0x1701 DUP2 PUSH2 0x16C5 JUMP JUMPDEST SWAP1 POP SWAP2 SWAP1 POP JUMP JUMPDEST PUSH32 0x6E6F742073746172746564207965740000000000000000000000000000000000 PUSH1 0x0 DUP3 ADD MSTORE POP JUMP JUMPDEST PUSH1 0x0 PUSH2 0x173E PUSH1 0xF DUP4 PUSH2 0xE8E JUMP JUMPDEST SWAP2 POP PUSH2 0x1749 DUP3 PUSH2 0x1708 JUMP JUMPDEST PUSH1 0x20 DUP3 ADD SWAP1 POP SWAP2 SWAP1 POP JUMP JUMPDEST PUSH1 0x0 PUSH1 0x20 DUP3 ADD SWAP1 POP DUP2 DUP2 SUB PUSH1 0x0 DUP4 ADD MSTORE PUSH2 0x176D DUP2 PUSH2 0x1731 JUMP JUMPDEST SWAP1 POP SWAP2 SWAP1 POP JUMP JUMPDEST PUSH32 0x496E6372656173652074686520416D6F756E7400000000000000000000000000 PUSH1 0x0 DUP3 ADD MSTORE POP JUMP JUMPDEST PUSH1 0x0 PUSH2 0x17AA PUSH1 0x13 DUP4 PUSH2 0xE8E JUMP JUMPDEST SWAP2 POP PUSH2 0x17B5 DUP3 PUSH2 0x1774 JUMP JUMPDEST PUSH1 0x20 DUP3 ADD SWAP1 POP SWAP2 SWAP1 POP JUMP JUMPDEST PUSH1 0x0 PUSH1 0x20 DUP3 ADD SWAP1 POP DUP2 DUP2 SUB PUSH1 0x0 DUP4 ADD MSTORE PUSH2 0x17D9 DUP2 PUSH2 0x179D JUMP JUMPDEST SWAP1 POP SWAP2 SWAP1 POP JUMP JUMPDEST PUSH1 0x0 PUSH1 0x40 DUP3 ADD SWAP1 POP PUSH2 0x17F5 PUSH1 0x0 DUP4 ADD DUP6 PUSH2 0xF45 JUMP JUMPDEST PUSH2 0x1802 PUSH1 0x20 DUP4 ADD DUP5 PUSH2 0xF54 JUMP JUMPDEST SWAP4 SWAP3 POP POP POP JUMP INVALID LOG2 PUSH5 0x6970667358 0x22 SLT KECCAK256 0xCD 0xB0 0xD3 0xF PUSH31 0x745899730199766DBF34A5E3A577FAD5293CCA3D26AF8A61F13B3F64736F6C PUSH4 0x43000812 STOP CALLER "
				},
				"gasEstimates": {
					"creation": {
						"codeDepositCost": "1241400",
						"executionCost": "23394",
						"totalCost": "1264794"
					},
					"external": {
						"CreateItem(string)": "infinite",
						"auctionEnd(uint256)": "infinite",
						"cancelAuction(uint256)": "infinite",
						"contractAddress()": "451",
						"getHighestBid(uint256)": "infinite",
						"getWinningBidder(uint256)": "2894",
						"itemDetails(uint256)": "infinite",
						"placeBid(uint256)": "infinite"
					}
				},
				"methodIdentifiers": {
					"CreateItem(string)": "6c7be44b",
					"auctionEnd(uint256)": "32246e9f",
					"cancelAuction(uint256)": "96b5a755",
					"contractAddress()": "f6b4dfb4",
					"getHighestBid(uint256)": "8f288644",
					"getWinningBidder(uint256)": "2fa23689",
					"itemDetails(uint256)": "1fb4e3f0",
					"placeBid(uint256)": "9979ef45"
				}
			},
			"storageLayout": {
				"storage": [
					{
						"astId": 19,
						"contract": "Practice tokens/Auction.sol:finaL",
						"label": "itemID",
						"offset": 0,
						"slot": "0",
						"type": "t_uint256"
					},
					{
						"astId": 24,
						"contract": "Practice tokens/Auction.sol:finaL",
						"label": "itemDetails",
						"offset": 0,
						"slot": "1",
						"type": "t_mapping(t_uint256,t_struct(itemD)16_storage)"
					}
				],
				"types": {
					"t_address": {
						"encoding": "inplace",
						"label": "address",
						"numberOfBytes": "20"
					},
					"t_mapping(t_uint256,t_struct(itemD)16_storage)": {
						"encoding": "mapping",
						"key": "t_uint256",
						"label": "mapping(uint256 => struct finaL.itemD)",
						"numberOfBytes": "32",
						"value": "t_struct(itemD)16_storage"
					},
					"t_string_storage": {
						"encoding": "bytes",
						"label": "string",
						"numberOfBytes": "32"
					},
					"t_struct(itemD)16_storage": {
						"encoding": "inplace",
						"label": "struct finaL.itemD",
						"members": [
							{
								"astId": 3,
								"contract": "Practice tokens/Auction.sol:finaL",
								"label": "name",
								"offset": 0,
								"slot": "0",
								"type": "t_string_storage"
							},
							{
								"astId": 5,
								"contract": "Practice tokens/Auction.sol:finaL",
								"label": "owner",
								"offset": 0,
								"slot": "1",
								"type": "t_address"
							},
							{
								"astId": 7,
								"contract": "Practice tokens/Auction.sol:finaL",
								"label": "lastBid",
								"offset": 0,
								"slot": "2",
								"type": "t_uint256"
							},
							{
								"astId": 9,
								"contract": "Practice tokens/Auction.sol:finaL",
								"label": "highestBid",
								"offset": 0,
								"slot": "3",
								"type": "t_uint256"
							},
							{
								"astId": 11,
								"contract": "Practice tokens/Auction.sol:finaL",
								"label": "highestBider",
								"offset": 0,
								"slot": "4",
								"type": "t_address"
							},
							{
								"astId": 13,
								"contract": "Practice tokens/Auction.sol:finaL",
								"label": "auction_time",
								"offset": 0,
								"slot": "5",
								"type": "t_uint256"
							},
							{
								"astId": 15,
								"contract": "Practice tokens/Auction.sol:finaL",
								"label": "lastHighestBider",
								"offset": 0,
								"slot": "6",
								"type": "t_address"
							}
						],
						"numberOfBytes": "224"
					},
					"t_uint256": {
						"encoding": "inplace",
						"label": "uint256",
						"numberOfBytes": "32"
					}
				}
			},
			"userdoc": {
				"kind": "user",
				"methods": {},
				"version": 1
			}
		}
	}
}