{
	"data": {
		"bytecode": {
			"linkReferences": {},
			"object": "608060405234801561001057600080fd5b506143e4806100206000396000f3fe60806040523480156200001157600080fd5b50600436106200005e5760003560e01c806307432f3a14620000635780630da2bc2a146200012057806385936228146200014657806388473ed21462000170578063baef00cc14620001a0575b600080fd5b620000d962000074366004620013cb565b60026020818152600093845260409093208251808401850180519281529085019390940192909220919092528054600182015492820154600383015460048401546005909401546001600160a01b039384169584169492841693918216928216911686565b604080516001600160a01b03978816815295871660208701529386169385019390935290841660608401528316608083015290911660a082015260c0015b60405180910390f35b62000137620001313660046200141f565b620001d5565b604051620001179190620014ac565b6200015d620001573660046200141f565b62000447565b604051620001179594939291906200152f565b620001876200018136600462001591565b6200063b565b6040516001600160a01b03909116815260200162000117565b620001d3620001b13660046200165b565b600180546001600160a01b0319166001600160a01b0392909216919091179055565b005b620002116040518060a0016040528060006001600160a01b03168152602001606081526020016000815260200160608152602001606081525090565b600360048360405162000225919062001680565b9081526040519081900360200181206200023f91620016da565b90815260408051918290036020908101832060a0840190925281546001600160a01b03168352600182018054918401916200027a906200169e565b80601f0160208091040260200160405190810160405280929190818152602001828054620002a8906200169e565b8015620002f95780601f10620002cd57610100808354040283529160200191620002f9565b820191906000526020600020905b815481529060010190602001808311620002db57829003601f168201915b50505050508152602001600282015481526020016003820180546200031e906200169e565b80601f01602080910402602001604051908101604052809291908181526020018280546200034c906200169e565b80156200039d5780601f1062000371576101008083540402835291602001916200039d565b820191906000526020600020905b8154815290600101906020018083116200037f57829003601f168201915b50505050508152602001600482018054620003b8906200169e565b80601f0160208091040260200160405190810160405280929190818152602001828054620003e6906200169e565b8015620004375780601f106200040b5761010080835404028352916020019162000437565b820191906000526020600020905b8154815290600101906020018083116200041957829003601f168201915b5050505050815250509050919050565b8051602081830181018051600382529282019190930120915280546001820180546001600160a01b03909216929162000480906200169e565b80601f0160208091040260200160405190810160405280929190818152602001828054620004ae906200169e565b8015620004ff5780601f10620004d357610100808354040283529160200191620004ff565b820191906000526020600020905b815481529060010190602001808311620004e157829003601f168201915b5050505050908060020154908060030180546200051c906200169e565b80601f01602080910402602001604051908101604052809291908181526020018280546200054a906200169e565b80156200059b5780601f106200056f576101008083540402835291602001916200059b565b820191906000526020600020905b8154815290600101906020018083116200057d57829003601f168201915b505050505090806004018054620005b2906200169e565b80601f0160208091040260200160405190810160405280929190818152602001828054620005e0906200169e565b8015620006315780601f10620006055761010080835404028352916020019162000631565b820191906000526020600020905b8154815290600101906020018083116200061357829003601f168201915b5050505050905085565b60006005866040516200064f919062001680565b9081526040519081900360200190205460ff1615620006b45760405162461bcd60e51b815260206004820152601860248201527f6173736573746e616d6520616c72656164792065786973740000000000000000604482015260640160405180910390fd5b600080549080620006c58362001758565b909155505060008054600154620006e691906001600160a01b031662000c38565b6000805460015492935090916200070791906001600160a01b031662000cc7565b6000805460015492935090916200072891906001600160a01b031662000cdc565b6000805460015492935090916200074991906001600160a01b031662000cf1565b6000805460015492935090916200076d91906001600160a01b031687878662000d06565b6000805460015492935090916200079591906001600160a01b031684878e8e60128f62000dad565b9050600660008e6001600160a01b03166001600160a01b031681526020019081526020016000206040518060a001604052808f6001600160a01b031681526020018e81526020018d81526020018c81526020018b815250908060018154018082558091505060019003906000526020600020906005020160009091909190915060008201518160000160006101000a8154816001600160a01b0302191690836001600160a01b031602179055506020820151816001019081620008599190620017d3565b5060408201516002820155606082015160038201906200087a9082620017d3565b5060808201516004820190620008919082620017d3565b505050620008a68d8d838588888b8d62000e4e565b600160058d604051620008ba919062001680565b908152602001604051809103902060006101000a81548160ff0219169083151502179055506040518060a001604052808e6001600160a01b031681526020018d81526020018c81526020018b81526020018a81525060038d60405162000921919062001680565b90815260405160209181900382019020825181546001600160a01b0319166001600160a01b03909116178155908201516001820190620009629082620017d3565b506040820151600282015560608201516003820190620009839082620017d3565b50608082015160048201906200099a9082620017d3565b509050508b60048b604051620009b1919062001680565b90815260200160405180910390209081620009cd9190620017d3565b5060405163690a49f960e01b81526001600160a01b03838116600483015284169063690a49f990602401600060405180830381600087803b15801562000a1257600080fd5b505af115801562000a27573d6000803e3d6000fd5b50505050806001600160a01b031663f2fde38b8e6040518263ffffffff1660e01b815260040162000a6791906001600160a01b0391909116815260200190565b600060405180830381600087803b15801562000a8257600080fd5b505af115801562000a97573d6000803e3d6000fd5b50505050856001600160a01b031663f2fde38b8e6040518263ffffffff1660e01b815260040162000ad791906001600160a01b0391909116815260200190565b600060405180830381600087803b15801562000af257600080fd5b505af115801562000b07573d6000803e3d6000fd5b50505050846001600160a01b031663f2fde38b8e6040518263ffffffff1660e01b815260040162000b4791906001600160a01b0391909116815260200190565b600060405180830381600087803b15801562000b6257600080fd5b505af115801562000b77573d6000803e3d6000fd5b50505050836001600160a01b031663f2fde38b8e6040518263ffffffff1660e01b815260040162000bb791906001600160a01b0391909116815260200190565b600060405180830381600087803b15801562000bd257600080fd5b505af115801562000be7573d6000803e3d6000fd5b50506040516001600160a01b03841681527f47da22c0331e51a69591b5e2172f95386c96f1c78b7668baeb4feaad35a177a99250602001905060405180910390a19c9b505050505050505050505050565b6000806040518060200162000c4d90620012af565b601f1982820381018352601f9091011660408181526001600160a01b03861660208301529192506000910160405160208183030381529060405290506000828260405160200162000ca0929190620018a0565b604051602081830303815290604052905062000cbd86826200125a565b9695505050505050565b6000806040518060200162000c4d90620012bd565b6000806040518060200162000c4d90620012cb565b6000806040518060200162000c4d90620012d9565b6000806040518060200162000d1b90620012e7565b601f1982820381018352601f9091011660408181526001600160a01b03898116602084015288811682840152878116606084015286166080808401919091528151808403909101815260a0830190915291925060009062000d83908490849060c001620018a0565b604051602081830303815290604052905062000da089826200125a565b9998505050505050505050565b6000806040518060200162000dc290620012f5565b6020820181038252601f19601f82011660405250905060008989898989898960405160200162000df99796959493929190620018d3565b60405160208183030381529060405290506000828260405160200162000e21929190620018a0565b604051602081830303815290604052905062000e3e8c826200125a565b9c9b505050505050505050505050565b6040518060c00160405280876001600160a01b03168152602001866001600160a01b03168152602001856001600160a01b03168152602001846001600160a01b03168152602001836001600160a01b03168152602001826001600160a01b0316815250600260008a6001600160a01b03166001600160a01b031681526020019081526020016000208860405162000ee6919062001680565b9081526040805160209281900383018120845181546001600160a01b03199081166001600160a01b039283161783559486015160018301805487169183169190911790559285015160028201805486169185169190911790556060850151600382018054861691851691909117905560808501516004808301805487169286169290921790915560a0909501516005909101805490941690831617909255632f2ff15d60e01b8252600092820192909252898216602482015290871690632f2ff15d90604401600060405180830381600087803b15801562000fc757600080fd5b505af115801562000fdc573d6000803e3d6000fd5b5050604051632f2ff15d60e01b81527fb19546dff01e856fb3f010c267a7b1c60363cf8a4664e21cc89c26224620214e60048201526001600160a01b038b8116602483015289169250632f2ff15d9150604401600060405180830381600087803b1580156200104a57600080fd5b505af11580156200105f573d6000803e3d6000fd5b5050604051632f2ff15d60e01b81527fcab5a0bfe0b79d2c4b1c2e02599fa044d115b7511f9659307cb427695096770960048201526001600160a01b038b8116602483015289169250632f2ff15d9150604401600060405180830381600087803b158015620010cd57600080fd5b505af1158015620010e2573d6000803e3d6000fd5b5050604051632f2ff15d60e01b8152600060048201526001600160a01b038b8116602483015288169250632f2ff15d9150604401600060405180830381600087803b1580156200113157600080fd5b505af115801562001146573d6000803e3d6000fd5b5050604051632f2ff15d60e01b81527fb19546dff01e856fb3f010c267a7b1c60363cf8a4664e21cc89c26224620214e60048201526001600160a01b038b8116602483015288169250632f2ff15d9150604401600060405180830381600087803b158015620011b457600080fd5b505af1158015620011c9573d6000803e3d6000fd5b5050604051632f2ff15d60e01b81527fcab5a0bfe0b79d2c4b1c2e02599fa044d115b7511f9659307cb427695096770960048201526001600160a01b038b8116602483015288169250632f2ff15d9150604401600060405180830381600087803b1580156200123757600080fd5b505af11580156200124c573d6000803e3d6000fd5b505050505050505050505050565b600080836040516020016200127191815260200190565b60405160208183030381529060405280519060200120905060008360200184518381836000f592505050803b620012a757600080fd5b949350505050565b61062b806200194083390190565b61062b8062001f6b83390190565b61062b806200259683390190565b61062b8062002bc183390190565b6106ee80620031ec83390190565b610ad580620038da83390190565b80356001600160a01b03811681146200131b57600080fd5b919050565b634e487b7160e01b600052604160045260246000fd5b600082601f8301126200134857600080fd5b813567ffffffffffffffff8082111562001366576200136662001320565b604051601f8301601f19908116603f0116810190828211818310171562001391576200139162001320565b81604052838152866020858801011115620013ab57600080fd5b836020870160208301376000602085830101528094505050505092915050565b60008060408385031215620013df57600080fd5b620013ea8362001303565b9150602083013567ffffffffffffffff8111156200140757600080fd5b620014158582860162001336565b9150509250929050565b6000602082840312156200143257600080fd5b813567ffffffffffffffff8111156200144a57600080fd5b620012a78482850162001336565b60005b83811015620014755781810151838201526020016200145b565b50506000910152565b600081518084526200149881602086016020860162001458565b601f01601f19169290920160200192915050565b602080825282516001600160a01b03168282015282015160a06040830152600090620014dc60c08401826200147e565b9050604084015160608401526060840151601f19808584030160808601526200150683836200147e565b925060808601519150808584030160a0860152506200152682826200147e565b95945050505050565b6001600160a01b038616815260a06020820181905260009062001555908301876200147e565b85604084015282810360608401526200156f81866200147e565b905082810360808401526200158581856200147e565b98975050505050505050565b60008060008060008060c08789031215620015ab57600080fd5b620015b68762001303565b9550602087013567ffffffffffffffff80821115620015d457600080fd5b620015e28a838b0162001336565b96506040890135955060608901359150808211156200160057600080fd5b6200160e8a838b0162001336565b945060808901359150808211156200162557600080fd5b506200163489828a0162001336565b92505060a087013561ffff811681146200164d57600080fd5b809150509295509295509295565b6000602082840312156200166e57600080fd5b620016798262001303565b9392505050565b600082516200169481846020870162001458565b9190910192915050565b600181811c90821680620016b357607f821691505b602082108103620016d457634e487b7160e01b600052602260045260246000fd5b50919050565b6000808354620016ea816200169e565b600182811680156200170557600181146200171b576200174c565b60ff19841687528215158302870194506200174c565b8760005260208060002060005b85811015620017435781548a82015290840190820162001728565b50505082870194505b50929695505050505050565b6000600182016200177957634e487b7160e01b600052601160045260246000fd5b5060010190565b601f821115620017ce57600081815260208120601f850160051c81016020861015620017a95750805b601f850160051c820191505b81811015620017ca57828155600101620017b5565b5050505b505050565b815167ffffffffffffffff811115620017f057620017f062001320565b62001808816200180184546200169e565b8462001780565b602080601f831160018114620018405760008415620018275750858301515b600019600386901b1c1916600185901b178555620017ca565b600085815260208120601f198616915b82811015620018715788860151825594840194600190910190840162001850565b5085821015620018905787850151600019600388901b60f8161c191681555b5050505050600190811b01905550565b60008351620018b481846020880162001458565b835190830190620018ca81836020880162001458565b01949350505050565b6001600160a01b03888116825287811660208301528616604082015260e06060820181905260009062001909908301876200147e565b82810360808401526200191d81876200147e565b91505060ff841660a083015261ffff831660c08301529897505050505050505056fe608060405234801561001057600080fd5b5060405161062b38038061062b83398101604081905261002f9161022a565b6001600160a01b03811661008a5760405162461bcd60e51b815260206004820152601f60248201527f696e76616c696420617267756d656e74202d207a65726f20616464726573730060448201526064015b60405180910390fd5b6100a08160008051602061060b83398151915255565b6040516001600160a01b038216907f3b1074392ed8e8424715d0dda2197eede67080b377fc8370e26f3e882207f6b890600090a260006100ec60008051602061060b8339815191525490565b6001600160a01b031663fedcc0526040518163ffffffff1660e01b8152600401602060405180830381865afa158015610129573d6000803e3d6000fd5b505050506040513d601f19601f8201168201806040525081019061014d919061022a565b60408051600481526024810182526020810180516001600160e01b03166370e39c9560e11b17905290519192506000916001600160a01b038416916101919161025a565b600060405180830381855af49150503d80600081146101cc576040519150601f19603f3d011682016040523d82523d6000602084013e6101d1565b606091505b50509050806102225760405162461bcd60e51b815260206004820152601660248201527f496e697469616c697a6174696f6e206661696c65642e000000000000000000006044820152606401610081565b505050610289565b60006020828403121561023c57600080fd5b81516001600160a01b038116811461025357600080fd5b9392505050565b6000825160005b8181101561027b5760208186018101518583015201610261565b506000920191825250919050565b610373806102986000396000f3fe608060405234801561001057600080fd5b50600436106100415760003560e01c806324173669146100e75780632d5f11871461010257806392dd9d651461012a575b600061005960008051602061031e8339815191525490565b6001600160a01b031663fedcc0526040518163ffffffff1660e01b8152600401602060405180830381865afa158015610096573d6000803e3d6000fd5b505050506040513d601f19601f820116820180604052508101906100ba91906102b5565b90503660008037600080366000846127105a03f43d806000803e8180156100e057816000f35b816000fd5b005b6100ef61013d565b6040519081526020015b60405180910390f35b60008051602061031e833981519152546040516001600160a01b0390911681526020016100f9565b6100e56101383660046102d9565b61016f565b600061016a60017f4cd9b827ca535ceb0880425d70eff88561ecdf04dc32fcf7ff3b15c587f8a8716102f6565b919050565b60008051602061031e833981519152546001600160a01b0316336001600160a01b0316146101fa5760405162461bcd60e51b815260206004820152602d60248201527f6f6e6c792063757272656e7420696d706c656d656e746174696f6e417574686f60448201526c1c9a5d1e4818d85b8818d85b1b609a1b60648201526084015b60405180910390fd5b6001600160a01b0381166102505760405162461bcd60e51b815260206004820152601f60248201527f696e76616c696420617267756d656e74202d207a65726f20616464726573730060448201526064016101f1565b6102668160008051602061031e83398151915255565b6040516001600160a01b038216907f3b1074392ed8e8424715d0dda2197eede67080b377fc8370e26f3e882207f6b890600090a250565b6001600160a01b03811681146102b257600080fd5b50565b6000602082840312156102c757600080fd5b81516102d28161029d565b9392505050565b6000602082840312156102eb57600080fd5b81356102d28161029d565b8181038181111561031757634e487b7160e01b600052601160045260246000fd5b9291505056fec5f16f0fcc639fa48a6947836d9850f504798523bf8c9a3a87d5876cf622bcf7a26469706673582212207924737063577fefa72fd5f2380acb84c5456c8aeedcf990d80ff3e9f283339f64736f6c63430008110033c5f16f0fcc639fa48a6947836d9850f504798523bf8c9a3a87d5876cf622bcf7608060405234801561001057600080fd5b5060405161062b38038061062b83398101604081905261002f9161022a565b6001600160a01b03811661008a5760405162461bcd60e51b815260206004820152601f60248201527f696e76616c696420617267756d656e74202d207a65726f20616464726573730060448201526064015b60405180910390fd5b6100a08160008051602061060b83398151915255565b6040516001600160a01b038216907f3b1074392ed8e8424715d0dda2197eede67080b377fc8370e26f3e882207f6b890600090a260006100ec60008051602061060b8339815191525490565b6001600160a01b0316636ff6e83f6040518163ffffffff1660e01b8152600401602060405180830381865afa158015610129573d6000803e3d6000fd5b505050506040513d601f19601f8201168201806040525081019061014d919061022a565b60408051600481526024810182526020810180516001600160e01b03166370e39c9560e11b17905290519192506000916001600160a01b038416916101919161025a565b600060405180830381855af49150503d80600081146101cc576040519150601f19603f3d011682016040523d82523d6000602084013e6101d1565b606091505b50509050806102225760405162461bcd60e51b815260206004820152601660248201527f496e697469616c697a6174696f6e206661696c65642e000000000000000000006044820152606401610081565b505050610289565b60006020828403121561023c57600080fd5b81516001600160a01b038116811461025357600080fd5b9392505050565b6000825160005b8181101561027b5760208186018101518583015201610261565b506000920191825250919050565b610373806102986000396000f3fe608060405234801561001057600080fd5b50600436106100415760003560e01c806324173669146100e75780632d5f11871461010257806392dd9d651461012a575b600061005960008051602061031e8339815191525490565b6001600160a01b0316636ff6e83f6040518163ffffffff1660e01b8152600401602060405180830381865afa158015610096573d6000803e3d6000fd5b505050506040513d601f19601f820116820180604052508101906100ba91906102b5565b90503660008037600080366000846127105a03f43d806000803e8180156100e057816000f35b816000fd5b005b6100ef61013d565b6040519081526020015b60405180910390f35b60008051602061031e833981519152546040516001600160a01b0390911681526020016100f9565b6100e56101383660046102d9565b61016f565b600061016a60017f4cd9b827ca535ceb0880425d70eff88561ecdf04dc32fcf7ff3b15c587f8a8716102f6565b919050565b60008051602061031e833981519152546001600160a01b0316336001600160a01b0316146101fa5760405162461bcd60e51b815260206004820152602d60248201527f6f6e6c792063757272656e7420696d706c656d656e746174696f6e417574686f60448201526c1c9a5d1e4818d85b8818d85b1b609a1b60648201526084015b60405180910390fd5b6001600160a01b0381166102505760405162461bcd60e51b815260206004820152601f60248201527f696e76616c696420617267756d656e74202d207a65726f20616464726573730060448201526064016101f1565b6102668160008051602061031e83398151915255565b6040516001600160a01b038216907f3b1074392ed8e8424715d0dda2197eede67080b377fc8370e26f3e882207f6b890600090a250565b6001600160a01b03811681146102b257600080fd5b50565b6000602082840312156102c757600080fd5b81516102d28161029d565b9392505050565b6000602082840312156102eb57600080fd5b81356102d28161029d565b8181038181111561031757634e487b7160e01b600052601160045260246000fd5b9291505056fec5f16f0fcc639fa48a6947836d9850f504798523bf8c9a3a87d5876cf622bcf7a26469706673582212207b89d93e11da0ff301ab67825d3d21d84ac88b3256357bd7cd23e1925bdd383464736f6c63430008110033c5f16f0fcc639fa48a6947836d9850f504798523bf8c9a3a87d5876cf622bcf7608060405234801561001057600080fd5b5060405161062b38038061062b83398101604081905261002f9161022a565b6001600160a01b03811661008a5760405162461bcd60e51b815260206004820152601f60248201527f696e76616c696420617267756d656e74202d207a65726f20616464726573730060448201526064015b60405180910390fd5b6100a08160008051602061060b83398151915255565b6040516001600160a01b038216907f3b1074392ed8e8424715d0dda2197eede67080b377fc8370e26f3e882207f6b890600090a260006100ec60008051602061060b8339815191525490565b6001600160a01b03166361f898256040518163ffffffff1660e01b8152600401602060405180830381865afa158015610129573d6000803e3d6000fd5b505050506040513d601f19601f8201168201806040525081019061014d919061022a565b60408051600481526024810182526020810180516001600160e01b03166370e39c9560e11b17905290519192506000916001600160a01b038416916101919161025a565b600060405180830381855af49150503d80600081146101cc576040519150601f19603f3d011682016040523d82523d6000602084013e6101d1565b606091505b50509050806102225760405162461bcd60e51b815260206004820152601660248201527f496e697469616c697a6174696f6e206661696c65642e000000000000000000006044820152606401610081565b505050610289565b60006020828403121561023c57600080fd5b81516001600160a01b038116811461025357600080fd5b9392505050565b6000825160005b8181101561027b5760208186018101518583015201610261565b506000920191825250919050565b610373806102986000396000f3fe608060405234801561001057600080fd5b50600436106100415760003560e01c806324173669146100e75780632d5f11871461010257806392dd9d651461012a575b600061005960008051602061031e8339815191525490565b6001600160a01b03166361f898256040518163ffffffff1660e01b8152600401602060405180830381865afa158015610096573d6000803e3d6000fd5b505050506040513d601f19601f820116820180604052508101906100ba91906102b5565b90503660008037600080366000846127105a03f43d806000803e8180156100e057816000f35b816000fd5b005b6100ef61013d565b6040519081526020015b60405180910390f35b60008051602061031e833981519152546040516001600160a01b0390911681526020016100f9565b6100e56101383660046102d9565b61016f565b600061016a60017f4cd9b827ca535ceb0880425d70eff88561ecdf04dc32fcf7ff3b15c587f8a8716102f6565b919050565b60008051602061031e833981519152546001600160a01b0316336001600160a01b0316146101fa5760405162461bcd60e51b815260206004820152602d60248201527f6f6e6c792063757272656e7420696d706c656d656e746174696f6e417574686f60448201526c1c9a5d1e4818d85b8818d85b1b609a1b60648201526084015b60405180910390fd5b6001600160a01b0381166102505760405162461bcd60e51b815260206004820152601f60248201527f696e76616c696420617267756d656e74202d207a65726f20616464726573730060448201526064016101f1565b6102668160008051602061031e83398151915255565b6040516001600160a01b038216907f3b1074392ed8e8424715d0dda2197eede67080b377fc8370e26f3e882207f6b890600090a250565b6001600160a01b03811681146102b257600080fd5b50565b6000602082840312156102c757600080fd5b81516102d28161029d565b9392505050565b6000602082840312156102eb57600080fd5b81356102d28161029d565b8181038181111561031757634e487b7160e01b600052601160045260246000fd5b9291505056fec5f16f0fcc639fa48a6947836d9850f504798523bf8c9a3a87d5876cf622bcf7a264697066735822122047d3ef638bda2c39484164d30dd1526f73b8816e8e7a715014c1be66250c1b7964736f6c63430008110033c5f16f0fcc639fa48a6947836d9850f504798523bf8c9a3a87d5876cf622bcf7608060405234801561001057600080fd5b5060405161062b38038061062b83398101604081905261002f9161022a565b6001600160a01b03811661008a5760405162461bcd60e51b815260206004820152601f60248201527f696e76616c696420617267756d656e74202d207a65726f20616464726573730060448201526064015b60405180910390fd5b6100a08160008051602061060b83398151915255565b6040516001600160a01b038216907f3b1074392ed8e8424715d0dda2197eede67080b377fc8370e26f3e882207f6b890600090a260006100ec60008051602061060b8339815191525490565b6001600160a01b0316639e3e7bb96040518163ffffffff1660e01b8152600401602060405180830381865afa158015610129573d6000803e3d6000fd5b505050506040513d601f19601f8201168201806040525081019061014d919061022a565b60408051600481526024810182526020810180516001600160e01b03166370e39c9560e11b17905290519192506000916001600160a01b038416916101919161025a565b600060405180830381855af49150503d80600081146101cc576040519150601f19603f3d011682016040523d82523d6000602084013e6101d1565b606091505b50509050806102225760405162461bcd60e51b815260206004820152601660248201527f496e697469616c697a6174696f6e206661696c65642e000000000000000000006044820152606401610081565b505050610289565b60006020828403121561023c57600080fd5b81516001600160a01b038116811461025357600080fd5b9392505050565b6000825160005b8181101561027b5760208186018101518583015201610261565b506000920191825250919050565b610373806102986000396000f3fe608060405234801561001057600080fd5b50600436106100415760003560e01c806324173669146100e75780632d5f11871461010257806392dd9d651461012a575b600061005960008051602061031e8339815191525490565b6001600160a01b0316639e3e7bb96040518163ffffffff1660e01b8152600401602060405180830381865afa158015610096573d6000803e3d6000fd5b505050506040513d601f19601f820116820180604052508101906100ba91906102b5565b90503660008037600080366000846127105a03f43d806000803e8180156100e057816000f35b816000fd5b005b6100ef61013d565b6040519081526020015b60405180910390f35b60008051602061031e833981519152546040516001600160a01b0390911681526020016100f9565b6100e56101383660046102d9565b61016f565b600061016a60017f4cd9b827ca535ceb0880425d70eff88561ecdf04dc32fcf7ff3b15c587f8a8716102f6565b919050565b60008051602061031e833981519152546001600160a01b0316336001600160a01b0316146101fa5760405162461bcd60e51b815260206004820152602d60248201527f6f6e6c792063757272656e7420696d706c656d656e746174696f6e417574686f60448201526c1c9a5d1e4818d85b8818d85b1b609a1b60648201526084015b60405180910390fd5b6001600160a01b0381166102505760405162461bcd60e51b815260206004820152601f60248201527f696e76616c696420617267756d656e74202d207a65726f20616464726573730060448201526064016101f1565b6102668160008051602061031e83398151915255565b6040516001600160a01b038216907f3b1074392ed8e8424715d0dda2197eede67080b377fc8370e26f3e882207f6b890600090a250565b6001600160a01b03811681146102b257600080fd5b50565b6000602082840312156102c757600080fd5b81516102d28161029d565b9392505050565b6000602082840312156102eb57600080fd5b81356102d28161029d565b8181038181111561031757634e487b7160e01b600052601160045260246000fd5b9291505056fec5f16f0fcc639fa48a6947836d9850f504798523bf8c9a3a87d5876cf622bcf7a2646970667358221220a0e2a614c3c6162015dc64d559c086cee9cdcf07c9b32666dd870002e8e369e564736f6c63430008110033c5f16f0fcc639fa48a6947836d9850f504798523bf8c9a3a87d5876cf622bcf7608060405234801561001057600080fd5b506040516106ee3803806106ee83398101604081905261002f916102a7565b6001600160a01b0384161580159061004f57506001600160a01b03831615155b801561006357506001600160a01b03821615155b801561007757506001600160a01b03811615155b6100c85760405162461bcd60e51b815260206004820152601f60248201527f696e76616c696420617267756d656e74202d207a65726f20616464726573730060448201526064015b60405180910390fd5b6100de846000805160206106ce83398151915255565b6040516001600160a01b038516907f3b1074392ed8e8424715d0dda2197eede67080b377fc8370e26f3e882207f6b890600090a2600061012a6000805160206106ce8339815191525490565b6001600160a01b0316631ee9ce8b6040518163ffffffff1660e01b8152600401602060405180830381865afa158015610167573d6000803e3d6000fd5b505050506040513d601f19601f8201168201806040525081019061018b91906102fb565b6040516001600160a01b0386811660248301528581166044830152848116606483015291925060009183169060840160408051601f198184030181529181526020820180516001600160e01b031663184b955960e01b179052516101ef919061031d565b600060405180830381855af49150503d806000811461022a576040519150601f19603f3d011682016040523d82523d6000602084013e61022f565b606091505b50509050806102805760405162461bcd60e51b815260206004820152601660248201527f496e697469616c697a6174696f6e206661696c65642e0000000000000000000060448201526064016100bf565b50505050505061034c565b80516001600160a01b03811681146102a257600080fd5b919050565b600080600080608085870312156102bd57600080fd5b6102c68561028b565b93506102d46020860161028b565b92506102e26040860161028b565b91506102f06060860161028b565b905092959194509250565b60006020828403121561030d57600080fd5b6103168261028b565b9392505050565b6000825160005b8181101561033e5760208186018101518583015201610324565b506000920191825250919050565b6103738061035b6000396000f3fe608060405234801561001057600080fd5b50600436106100415760003560e01c806324173669146100e75780632d5f11871461010257806392dd9d651461012a575b600061005960008051602061031e8339815191525490565b6001600160a01b0316631ee9ce8b6040518163ffffffff1660e01b8152600401602060405180830381865afa158015610096573d6000803e3d6000fd5b505050506040513d601f19601f820116820180604052508101906100ba91906102b5565b90503660008037600080366000846127105a03f43d806000803e8180156100e057816000f35b816000fd5b005b6100ef61013d565b6040519081526020015b60405180910390f35b60008051602061031e833981519152546040516001600160a01b0390911681526020016100f9565b6100e56101383660046102d9565b61016f565b600061016a60017f4cd9b827ca535ceb0880425d70eff88561ecdf04dc32fcf7ff3b15c587f8a8716102f6565b919050565b60008051602061031e833981519152546001600160a01b0316336001600160a01b0316146101fa5760405162461bcd60e51b815260206004820152602d60248201527f6f6e6c792063757272656e7420696d706c656d656e746174696f6e417574686f60448201526c1c9a5d1e4818d85b8818d85b1b609a1b60648201526084015b60405180910390fd5b6001600160a01b0381166102505760405162461bcd60e51b815260206004820152601f60248201527f696e76616c696420617267756d656e74202d207a65726f20616464726573730060448201526064016101f1565b6102668160008051602061031e83398151915255565b6040516001600160a01b038216907f3b1074392ed8e8424715d0dda2197eede67080b377fc8370e26f3e882207f6b890600090a250565b6001600160a01b03811681146102b257600080fd5b50565b6000602082840312156102c757600080fd5b81516102d28161029d565b9392505050565b6000602082840312156102eb57600080fd5b81356102d28161029d565b8181038181111561031757634e487b7160e01b600052601160045260246000fd5b9291505056fec5f16f0fcc639fa48a6947836d9850f504798523bf8c9a3a87d5876cf622bcf7a2646970667358221220668ed32c215075d8cdf90131080c01bd27dd0f6ecb91923a6832228a2a519b9264736f6c63430008110033c5f16f0fcc639fa48a6947836d9850f504798523bf8c9a3a87d5876cf622bcf760806040523480156200001157600080fd5b5060405162000ad538038062000ad58339810160408190526200003491620004dd565b6001600160a01b038716158015906200005557506001600160a01b03861615155b80156200006a57506001600160a01b03851615155b620000bc5760405162461bcd60e51b815260206004820152601f60248201527f696e76616c696420617267756d656e74202d207a65726f20616464726573730060448201526064015b60405180910390fd5b604051602001620000d890602080825260009082015260400190565b6040516020818303038152906040528051906020012084604051602001620001019190620005e5565b60405160208183030381529060405280519060200120141580156200017f57506040516020016200013d90602080825260009082015260400190565b6040516020818303038152906040528051906020012083604051602001620001669190620005e5565b6040516020818303038152906040528051906020012014155b620001cd5760405162461bcd60e51b815260206004820152601f60248201527f696e76616c696420617267756d656e74202d20656d70747920737472696e67006044820152606401620000b3565b60128260ff161115620002235760405162461bcd60e51b815260206004820152601960248201527f646563696d616c73206265747765656e203020616e64203138000000000000006044820152606401620000b3565b6200023b8760008051602062000ab583398151915255565b6040516001600160a01b038816907f3b1074392ed8e8424715d0dda2197eede67080b377fc8370e26f3e882207f6b890600090a260006200028960008051602062000ab58339815191525490565b6001600160a01b031663709bc7f36040518163ffffffff1660e01b8152600401602060405180830381865afa158015620002c7573d6000803e3d6000fd5b505050506040513d601f19601f82011682018060405250810190620002ed919062000601565b90506000816001600160a01b031688888888888860405160240162000318969594939291906200061f565b60408051601f198184030181529181526020820180516001600160e01b03166341aef41360e01b179052516200034f919062000682565b600060405180830381855af49150503d80600081146200038c576040519150601f19603f3d011682016040523d82523d6000602084013e62000391565b606091505b5050905080620003e45760405162461bcd60e51b815260206004820152601660248201527f496e697469616c697a6174696f6e206661696c65642e000000000000000000006044820152606401620000b3565b505050505050505050620006a0565b80516001600160a01b03811681146200040b57600080fd5b919050565b634e487b7160e01b600052604160045260246000fd5b60005b838110156200044357818101518382015260200162000429565b50506000910152565b600082601f8301126200045e57600080fd5b81516001600160401b03808211156200047b576200047b62000410565b604051601f8301601f19908116603f01168101908282118183101715620004a657620004a662000410565b81604052838152866020858801011115620004c057600080fd5b620004d384602083016020890162000426565b9695505050505050565b600080600080600080600060e0888a031215620004f957600080fd5b6200050488620003f3565b96506200051460208901620003f3565b95506200052460408901620003f3565b60608901519095506001600160401b03808211156200054257600080fd5b620005508b838c016200044c565b955060808a01519150808211156200056757600080fd5b50620005768a828b016200044c565b93505060a088015160ff811681146200058e57600080fd5b60c089015190925061ffff81168114620005a757600080fd5b8091505092959891949750929550565b60008151808452620005d181602086016020860162000426565b601f01601f19169290920160200192915050565b602081526000620005fa6020830184620005b7565b9392505050565b6000602082840312156200061457600080fd5b620005fa82620003f3565b6001600160a01b0387811682528616602082015260c0604082018190526000906200064d90830187620005b7565b8281036060840152620006618187620005b7565b91505060ff8416608083015261ffff831660a0830152979650505050505050565b600082516200069681846020870162000426565b9190910192915050565b61040580620006b06000396000f3fe608060405234801561001057600080fd5b506004361061004c5760003560e01c806324173669146100f25780632d5f11871461010d5780636d4ce63c1461013657806392dd9d651461013e575b60006100646000805160206103b08339815191525490565b6001600160a01b031663709bc7f36040518163ffffffff1660e01b8152600401602060405180830381865afa1580156100a1573d6000803e3d6000fd5b505050506040513d601f19601f820116820180604052508101906100c59190610347565b90503660008037600080366000846127105a03f43d806000803e8180156100eb57816000f35b816000fd5b005b6100fa610151565b6040519081526020015b60405180910390f35b6000805160206103b0833981519152545b6040516001600160a01b039091168152602001610104565b61011e610183565b6100f061014c36600461036b565b610201565b600061017e60017f4cd9b827ca535ceb0880425d70eff88561ecdf04dc32fcf7ff3b15c587f8a871610388565b919050565b600061019b6000805160206103b08339815191525490565b6001600160a01b031663709bc7f36040518163ffffffff1660e01b8152600401602060405180830381865afa1580156101d8573d6000803e3d6000fd5b505050506040513d601f19601f820116820180604052508101906101fc9190610347565b905090565b6000805160206103b0833981519152546001600160a01b0316336001600160a01b03161461028c5760405162461bcd60e51b815260206004820152602d60248201527f6f6e6c792063757272656e7420696d706c656d656e746174696f6e417574686f60448201526c1c9a5d1e4818d85b8818d85b1b609a1b60648201526084015b60405180910390fd5b6001600160a01b0381166102e25760405162461bcd60e51b815260206004820152601f60248201527f696e76616c696420617267756d656e74202d207a65726f2061646472657373006044820152606401610283565b6102f8816000805160206103b083398151915255565b6040516001600160a01b038216907f3b1074392ed8e8424715d0dda2197eede67080b377fc8370e26f3e882207f6b890600090a250565b6001600160a01b038116811461034457600080fd5b50565b60006020828403121561035957600080fd5b81516103648161032f565b9392505050565b60006020828403121561037d57600080fd5b81356103648161032f565b818103818111156103a957634e487b7160e01b600052601160045260246000fd5b9291505056fec5f16f0fcc639fa48a6947836d9850f504798523bf8c9a3a87d5876cf622bcf7a2646970667358221220f17c21689e733ac5a84c7edfa85acda3fe717341a5169cfdfb1e2ea1836938bb64736f6c63430008110033c5f16f0fcc639fa48a6947836d9850f504798523bf8c9a3a87d5876cf622bcf7a2646970667358221220f4f25dc6b2c3c8e68e4604b9d9b50d411c5131c5a95d437ce6e4e7a28c2f1f8164736f6c63430008110033",
			"opcodes": "PUSH1 0x80 PUSH1 0x40 MSTORE CALLVALUE DUP1 ISZERO PUSH2 0x10 JUMPI PUSH1 0x0 DUP1 REVERT JUMPDEST POP PUSH2 0x43E4 DUP1 PUSH2 0x20 PUSH1 0x0 CODECOPY PUSH1 0x0 RETURN INVALID PUSH1 0x80 PUSH1 0x40 MSTORE CALLVALUE DUP1 ISZERO PUSH3 0x11 JUMPI PUSH1 0x0 DUP1 REVERT JUMPDEST POP PUSH1 0x4 CALLDATASIZE LT PUSH3 0x5E JUMPI PUSH1 0x0 CALLDATALOAD PUSH1 0xE0 SHR DUP1 PUSH4 0x7432F3A EQ PUSH3 0x63 JUMPI DUP1 PUSH4 0xDA2BC2A EQ PUSH3 0x120 JUMPI DUP1 PUSH4 0x85936228 EQ PUSH3 0x146 JUMPI DUP1 PUSH4 0x88473ED2 EQ PUSH3 0x170 JUMPI DUP1 PUSH4 0xBAEF00CC EQ PUSH3 0x1A0 JUMPI JUMPDEST PUSH1 0x0 DUP1 REVERT JUMPDEST PUSH3 0xD9 PUSH3 0x74 CALLDATASIZE PUSH1 0x4 PUSH3 0x13CB JUMP JUMPDEST PUSH1 0x2 PUSH1 0x20 DUP2 DUP2 MSTORE PUSH1 0x0 SWAP4 DUP5 MSTORE PUSH1 0x40 SWAP1 SWAP4 KECCAK256 DUP3 MLOAD DUP1 DUP5 ADD DUP6 ADD DUP1 MLOAD SWAP3 DUP2 MSTORE SWAP1 DUP6 ADD SWAP4 SWAP1 SWAP5 ADD SWAP3 SWAP1 SWAP3 KECCAK256 SWAP2 SWAP1 SWAP3 MSTORE DUP1 SLOAD PUSH1 0x1 DUP3 ADD SLOAD SWAP3 DUP3 ADD SLOAD PUSH1 0x3 DUP4 ADD SLOAD PUSH1 0x4 DUP5 ADD SLOAD PUSH1 0x5 SWAP1 SWAP5 ADD SLOAD PUSH1 0x1 PUSH1 0x1 PUSH1 0xA0 SHL SUB SWAP4 DUP5 AND SWAP6 DUP5 AND SWAP5 SWAP3 DUP5 AND SWAP4 SWAP2 DUP3 AND SWAP3 DUP3 AND SWAP2 AND DUP7 JUMP JUMPDEST PUSH1 0x40 DUP1 MLOAD PUSH1 0x1 PUSH1 0x1 PUSH1 0xA0 SHL SUB SWAP8 DUP9 AND DUP2 MSTORE SWAP6 DUP8 AND PUSH1 0x20 DUP8 ADD MSTORE SWAP4 DUP7 AND SWAP4 DUP6 ADD SWAP4 SWAP1 SWAP4 MSTORE SWAP1 DUP5 AND PUSH1 0x60 DUP5 ADD MSTORE DUP4 AND PUSH1 0x80 DUP4 ADD MSTORE SWAP1 SWAP2 AND PUSH1 0xA0 DUP3 ADD MSTORE PUSH1 0xC0 ADD JUMPDEST PUSH1 0x40 MLOAD DUP1 SWAP2 SUB SWAP1 RETURN JUMPDEST PUSH3 0x137 PUSH3 0x131 CALLDATASIZE PUSH1 0x4 PUSH3 0x141F JUMP JUMPDEST PUSH3 0x1D5 JUMP JUMPDEST PUSH1 0x40 MLOAD PUSH3 0x117 SWAP2 SWAP1 PUSH3 0x14AC JUMP JUMPDEST PUSH3 0x15D PUSH3 0x157 CALLDATASIZE PUSH1 0x4 PUSH3 0x141F JUMP JUMPDEST PUSH3 0x447 JUMP JUMPDEST PUSH1 0x40 MLOAD PUSH3 0x117 SWAP6 SWAP5 SWAP4 SWAP3 SWAP2 SWAP1 PUSH3 0x152F JUMP JUMPDEST PUSH3 0x187 PUSH3 0x181 CALLDATASIZE PUSH1 0x4 PUSH3 0x1591 JUMP JUMPDEST PUSH3 0x63B JUMP JUMPDEST PUSH1 0x40 MLOAD PUSH1 0x1 PUSH1 0x1 PUSH1 0xA0 SHL SUB SWAP1 SWAP2 AND DUP2 MSTORE PUSH1 0x20 ADD PUSH3 0x117 JUMP JUMPDEST PUSH3 0x1D3 PUSH3 0x1B1 CALLDATASIZE PUSH1 0x4 PUSH3 0x165B JUMP JUMPDEST PUSH1 0x1 DUP1 SLOAD PUSH1 0x1 PUSH1 0x1 PUSH1 0xA0 SHL SUB NOT AND PUSH1 0x1 PUSH1 0x1 PUSH1 0xA0 SHL SUB SWAP3 SWAP1 SWAP3 AND SWAP2 SWAP1 SWAP2 OR SWAP1 SSTORE JUMP JUMPDEST STOP JUMPDEST PUSH3 0x211 PUSH1 0x40 MLOAD DUP1 PUSH1 0xA0 ADD PUSH1 0x40 MSTORE DUP1 PUSH1 0x0 PUSH1 0x1 PUSH1 0x1 PUSH1 0xA0 SHL SUB AND DUP2 MSTORE PUSH1 0x20 ADD PUSH1 0x60 DUP2 MSTORE PUSH1 0x20 ADD PUSH1 0x0 DUP2 MSTORE PUSH1 0x20 ADD PUSH1 0x60 DUP2 MSTORE PUSH1 0x20 ADD PUSH1 0x60 DUP2 MSTORE POP SWAP1 JUMP JUMPDEST PUSH1 0x3 PUSH1 0x4 DUP4 PUSH1 0x40 MLOAD PUSH3 0x225 SWAP2 SWAP1 PUSH3 0x1680 JUMP JUMPDEST SWAP1 DUP2 MSTORE PUSH1 0x40 MLOAD SWAP1 DUP2 SWAP1 SUB PUSH1 0x20 ADD DUP2 KECCAK256 PUSH3 0x23F SWAP2 PUSH3 0x16DA JUMP JUMPDEST SWAP1 DUP2 MSTORE PUSH1 0x40 DUP1 MLOAD SWAP2 DUP3 SWAP1 SUB PUSH1 0x20 SWAP1 DUP2 ADD DUP4 KECCAK256 PUSH1 0xA0 DUP5 ADD SWAP1 SWAP3 MSTORE DUP2 SLOAD PUSH1 0x1 PUSH1 0x1 PUSH1 0xA0 SHL SUB AND DUP4 MSTORE PUSH1 0x1 DUP3 ADD DUP1 SLOAD SWAP2 DUP5 ADD SWAP2 PUSH3 0x27A SWAP1 PUSH3 0x169E JUMP JUMPDEST DUP1 PUSH1 0x1F ADD PUSH1 0x20 DUP1 SWAP2 DIV MUL PUSH1 0x20 ADD PUSH1 0x40 MLOAD SWAP1 DUP2 ADD PUSH1 0x40 MSTORE DUP1 SWAP3 SWAP2 SWAP1 DUP2 DUP2 MSTORE PUSH1 0x20 ADD DUP3 DUP1 SLOAD PUSH3 0x2A8 SWAP1 PUSH3 0x169E JUMP JUMPDEST DUP1 ISZERO PUSH3 0x2F9 JUMPI DUP1 PUSH1 0x1F LT PUSH3 0x2CD JUMPI PUSH2 0x100 DUP1 DUP4 SLOAD DIV MUL DUP4 MSTORE SWAP2 PUSH1 0x20 ADD SWAP2 PUSH3 0x2F9 JUMP JUMPDEST DUP3 ADD SWAP2 SWAP1 PUSH1 0x0 MSTORE PUSH1 0x20 PUSH1 0x0 KECCAK256 SWAP1 JUMPDEST DUP2 SLOAD DUP2 MSTORE SWAP1 PUSH1 0x1 ADD SWAP1 PUSH1 0x20 ADD DUP1 DUP4 GT PUSH3 0x2DB JUMPI DUP3 SWAP1 SUB PUSH1 0x1F AND DUP3 ADD SWAP2 JUMPDEST POP POP POP POP POP DUP2 MSTORE PUSH1 0x20 ADD PUSH1 0x2 DUP3 ADD SLOAD DUP2 MSTORE PUSH1 0x20 ADD PUSH1 0x3 DUP3 ADD DUP1 SLOAD PUSH3 0x31E SWAP1 PUSH3 0x169E JUMP JUMPDEST DUP1 PUSH1 0x1F ADD PUSH1 0x20 DUP1 SWAP2 DIV MUL PUSH1 0x20 ADD PUSH1 0x40 MLOAD SWAP1 DUP2 ADD PUSH1 0x40 MSTORE DUP1 SWAP3 SWAP2 SWAP1 DUP2 DUP2 MSTORE PUSH1 0x20 ADD DUP3 DUP1 SLOAD PUSH3 0x34C SWAP1 PUSH3 0x169E JUMP JUMPDEST DUP1 ISZERO PUSH3 0x39D JUMPI DUP1 PUSH1 0x1F LT PUSH3 0x371 JUMPI PUSH2 0x100 DUP1 DUP4 SLOAD DIV MUL DUP4 MSTORE SWAP2 PUSH1 0x20 ADD SWAP2 PUSH3 0x39D JUMP JUMPDEST DUP3 ADD SWAP2 SWAP1 PUSH1 0x0 MSTORE PUSH1 0x20 PUSH1 0x0 KECCAK256 SWAP1 JUMPDEST DUP2 SLOAD DUP2 MSTORE SWAP1 PUSH1 0x1 ADD SWAP1 PUSH1 0x20 ADD DUP1 DUP4 GT PUSH3 0x37F JUMPI DUP3 SWAP1 SUB PUSH1 0x1F AND DUP3 ADD SWAP2 JUMPDEST POP POP POP POP POP DUP2 MSTORE PUSH1 0x20 ADD PUSH1 0x4 DUP3 ADD DUP1 SLOAD PUSH3 0x3B8 SWAP1 PUSH3 0x169E JUMP JUMPDEST DUP1 PUSH1 0x1F ADD PUSH1 0x20 DUP1 SWAP2 DIV MUL PUSH1 0x20 ADD PUSH1 0x40 MLOAD SWAP1 DUP2 ADD PUSH1 0x40 MSTORE DUP1 SWAP3 SWAP2 SWAP1 DUP2 DUP2 MSTORE PUSH1 0x20 ADD DUP3 DUP1 SLOAD PUSH3 0x3E6 SWAP1 PUSH3 0x169E JUMP JUMPDEST DUP1 ISZERO PUSH3 0x437 JUMPI DUP1 PUSH1 0x1F LT PUSH3 0x40B JUMPI PUSH2 0x100 DUP1 DUP4 SLOAD DIV MUL DUP4 MSTORE SWAP2 PUSH1 0x20 ADD SWAP2 PUSH3 0x437 JUMP JUMPDEST DUP3 ADD SWAP2 SWAP1 PUSH1 0x0 MSTORE PUSH1 0x20 PUSH1 0x0 KECCAK256 SWAP1 JUMPDEST DUP2 SLOAD DUP2 MSTORE SWAP1 PUSH1 0x1 ADD SWAP1 PUSH1 0x20 ADD DUP1 DUP4 GT PUSH3 0x419 JUMPI DUP3 SWAP1 SUB PUSH1 0x1F AND DUP3 ADD SWAP2 JUMPDEST POP POP POP POP POP DUP2 MSTORE POP POP SWAP1 POP SWAP2 SWAP1 POP JUMP JUMPDEST DUP1 MLOAD PUSH1 0x20 DUP2 DUP4 ADD DUP2 ADD DUP1 MLOAD PUSH1 0x3 DUP3 MSTORE SWAP3 DUP3 ADD SWAP2 SWAP1 SWAP4 ADD KECCAK256 SWAP2 MSTORE DUP1 SLOAD PUSH1 0x1 DUP3 ADD DUP1 SLOAD PUSH1 0x1 PUSH1 0x1 PUSH1 0xA0 SHL SUB SWAP1 SWAP3 AND SWAP3 SWAP2 PUSH3 0x480 SWAP1 PUSH3 0x169E JUMP JUMPDEST DUP1 PUSH1 0x1F ADD PUSH1 0x20 DUP1 SWAP2 DIV MUL PUSH1 0x20 ADD PUSH1 0x40 MLOAD SWAP1 DUP2 ADD PUSH1 0x40 MSTORE DUP1 SWAP3 SWAP2 SWAP1 DUP2 DUP2 MSTORE PUSH1 0x20 ADD DUP3 DUP1 SLOAD PUSH3 0x4AE SWAP1 PUSH3 0x169E JUMP JUMPDEST DUP1 ISZERO PUSH3 0x4FF JUMPI DUP1 PUSH1 0x1F LT PUSH3 0x4D3 JUMPI PUSH2 0x100 DUP1 DUP4 SLOAD DIV MUL DUP4 MSTORE SWAP2 PUSH1 0x20 ADD SWAP2 PUSH3 0x4FF JUMP JUMPDEST DUP3 ADD SWAP2 SWAP1 PUSH1 0x0 MSTORE PUSH1 0x20 PUSH1 0x0 KECCAK256 SWAP1 JUMPDEST DUP2 SLOAD DUP2 MSTORE SWAP1 PUSH1 0x1 ADD SWAP1 PUSH1 0x20 ADD DUP1 DUP4 GT PUSH3 0x4E1 JUMPI DUP3 SWAP1 SUB PUSH1 0x1F AND DUP3 ADD SWAP2 JUMPDEST POP POP POP POP POP SWAP1 DUP1 PUSH1 0x2 ADD SLOAD SWAP1 DUP1 PUSH1 0x3 ADD DUP1 SLOAD PUSH3 0x51C SWAP1 PUSH3 0x169E JUMP JUMPDEST DUP1 PUSH1 0x1F ADD PUSH1 0x20 DUP1 SWAP2 DIV MUL PUSH1 0x20 ADD PUSH1 0x40 MLOAD SWAP1 DUP2 ADD PUSH1 0x40 MSTORE DUP1 SWAP3 SWAP2 SWAP1 DUP2 DUP2 MSTORE PUSH1 0x20 ADD DUP3 DUP1 SLOAD PUSH3 0x54A SWAP1 PUSH3 0x169E JUMP JUMPDEST DUP1 ISZERO PUSH3 0x59B JUMPI DUP1 PUSH1 0x1F LT PUSH3 0x56F JUMPI PUSH2 0x100 DUP1 DUP4 SLOAD DIV MUL DUP4 MSTORE SWAP2 PUSH1 0x20 ADD SWAP2 PUSH3 0x59B JUMP JUMPDEST DUP3 ADD SWAP2 SWAP1 PUSH1 0x0 MSTORE PUSH1 0x20 PUSH1 0x0 KECCAK256 SWAP1 JUMPDEST DUP2 SLOAD DUP2 MSTORE SWAP1 PUSH1 0x1 ADD SWAP1 PUSH1 0x20 ADD DUP1 DUP4 GT PUSH3 0x57D JUMPI DUP3 SWAP1 SUB PUSH1 0x1F AND DUP3 ADD SWAP2 JUMPDEST POP POP POP POP POP SWAP1 DUP1 PUSH1 0x4 ADD DUP1 SLOAD PUSH3 0x5B2 SWAP1 PUSH3 0x169E JUMP JUMPDEST DUP1 PUSH1 0x1F ADD PUSH1 0x20 DUP1 SWAP2 DIV MUL PUSH1 0x20 ADD PUSH1 0x40 MLOAD SWAP1 DUP2 ADD PUSH1 0x40 MSTORE DUP1 SWAP3 SWAP2 SWAP1 DUP2 DUP2 MSTORE PUSH1 0x20 ADD DUP3 DUP1 SLOAD PUSH3 0x5E0 SWAP1 PUSH3 0x169E JUMP JUMPDEST DUP1 ISZERO PUSH3 0x631 JUMPI DUP1 PUSH1 0x1F LT PUSH3 0x605 JUMPI PUSH2 0x100 DUP1 DUP4 SLOAD DIV MUL DUP4 MSTORE SWAP2 PUSH1 0x20 ADD SWAP2 PUSH3 0x631 JUMP JUMPDEST DUP3 ADD SWAP2 SWAP1 PUSH1 0x0 MSTORE PUSH1 0x20 PUSH1 0x0 KECCAK256 SWAP1 JUMPDEST DUP2 SLOAD DUP2 MSTORE SWAP1 PUSH1 0x1 ADD SWAP1 PUSH1 0x20 ADD DUP1 DUP4 GT PUSH3 0x613 JUMPI DUP3 SWAP1 SUB PUSH1 0x1F AND DUP3 ADD SWAP2 JUMPDEST POP POP POP POP POP SWAP1 POP DUP6 JUMP JUMPDEST PUSH1 0x0 PUSH1 0x5 DUP7 PUSH1 0x40 MLOAD PUSH3 0x64F SWAP2 SWAP1 PUSH3 0x1680 JUMP JUMPDEST SWAP1 DUP2 MSTORE PUSH1 0x40 MLOAD SWAP1 DUP2 SWAP1 SUB PUSH1 0x20 ADD SWAP1 KECCAK256 SLOAD PUSH1 0xFF AND ISZERO PUSH3 0x6B4 JUMPI PUSH1 0x40 MLOAD PUSH3 0x461BCD PUSH1 0xE5 SHL DUP2 MSTORE PUSH1 0x20 PUSH1 0x4 DUP3 ADD MSTORE PUSH1 0x18 PUSH1 0x24 DUP3 ADD MSTORE PUSH32 0x6173736573746E616D6520616C72656164792065786973740000000000000000 PUSH1 0x44 DUP3 ADD MSTORE PUSH1 0x64 ADD PUSH1 0x40 MLOAD DUP1 SWAP2 SUB SWAP1 REVERT JUMPDEST PUSH1 0x0 DUP1 SLOAD SWAP1 DUP1 PUSH3 0x6C5 DUP4 PUSH3 0x1758 JUMP JUMPDEST SWAP1 SWAP2 SSTORE POP POP PUSH1 0x0 DUP1 SLOAD PUSH1 0x1 SLOAD PUSH3 0x6E6 SWAP2 SWAP1 PUSH1 0x1 PUSH1 0x1 PUSH1 0xA0 SHL SUB AND PUSH3 0xC38 JUMP JUMPDEST PUSH1 0x0 DUP1 SLOAD PUSH1 0x1 SLOAD SWAP3 SWAP4 POP SWAP1 SWAP2 PUSH3 0x707 SWAP2 SWAP1 PUSH1 0x1 PUSH1 0x1 PUSH1 0xA0 SHL SUB AND PUSH3 0xCC7 JUMP JUMPDEST PUSH1 0x0 DUP1 SLOAD PUSH1 0x1 SLOAD SWAP3 SWAP4 POP SWAP1 SWAP2 PUSH3 0x728 SWAP2 SWAP1 PUSH1 0x1 PUSH1 0x1 PUSH1 0xA0 SHL SUB AND PUSH3 0xCDC JUMP JUMPDEST PUSH1 0x0 DUP1 SLOAD PUSH1 0x1 SLOAD SWAP3 SWAP4 POP SWAP1 SWAP2 PUSH3 0x749 SWAP2 SWAP1 PUSH1 0x1 PUSH1 0x1 PUSH1 0xA0 SHL SUB AND PUSH3 0xCF1 JUMP JUMPDEST PUSH1 0x0 DUP1 SLOAD PUSH1 0x1 SLOAD SWAP3 SWAP4 POP SWAP1 SWAP2 PUSH3 0x76D SWAP2 SWAP1 PUSH1 0x1 PUSH1 0x1 PUSH1 0xA0 SHL SUB AND DUP8 DUP8 DUP7 PUSH3 0xD06 JUMP JUMPDEST PUSH1 0x0 DUP1 SLOAD PUSH1 0x1 SLOAD SWAP3 SWAP4 POP SWAP1 SWAP2 PUSH3 0x795 SWAP2 SWAP1 PUSH1 0x1 PUSH1 0x1 PUSH1 0xA0 SHL SUB AND DUP5 DUP8 DUP15 DUP15 PUSH1 0x12 DUP16 PUSH3 0xDAD JUMP JUMPDEST SWAP1 POP PUSH1 0x6 PUSH1 0x0 DUP15 PUSH1 0x1 PUSH1 0x1 PUSH1 0xA0 SHL SUB AND PUSH1 0x1 PUSH1 0x1 PUSH1 0xA0 SHL SUB AND DUP2 MSTORE PUSH1 0x20 ADD SWAP1 DUP2 MSTORE PUSH1 0x20 ADD PUSH1 0x0 KECCAK256 PUSH1 0x40 MLOAD DUP1 PUSH1 0xA0 ADD PUSH1 0x40 MSTORE DUP1 DUP16 PUSH1 0x1 PUSH1 0x1 PUSH1 0xA0 SHL SUB AND DUP2 MSTORE PUSH1 0x20 ADD DUP15 DUP2 MSTORE PUSH1 0x20 ADD DUP14 DUP2 MSTORE PUSH1 0x20 ADD DUP13 DUP2 MSTORE PUSH1 0x20 ADD DUP12 DUP2 MSTORE POP SWAP1 DUP1 PUSH1 0x1 DUP2 SLOAD ADD DUP1 DUP3 SSTORE DUP1 SWAP2 POP POP PUSH1 0x1 SWAP1 SUB SWAP1 PUSH1 0x0 MSTORE PUSH1 0x20 PUSH1 0x0 KECCAK256 SWAP1 PUSH1 0x5 MUL ADD PUSH1 0x0 SWAP1 SWAP2 SWAP1 SWAP2 SWAP1 SWAP2 POP PUSH1 0x0 DUP3 ADD MLOAD DUP2 PUSH1 0x0 ADD PUSH1 0x0 PUSH2 0x100 EXP DUP2 SLOAD DUP2 PUSH1 0x1 PUSH1 0x1 PUSH1 0xA0 SHL SUB MUL NOT AND SWAP1 DUP4 PUSH1 0x1 PUSH1 0x1 PUSH1 0xA0 SHL SUB AND MUL OR SWAP1 SSTORE POP PUSH1 0x20 DUP3 ADD MLOAD DUP2 PUSH1 0x1 ADD SWAP1 DUP2 PUSH3 0x859 SWAP2 SWAP1 PUSH3 0x17D3 JUMP JUMPDEST POP PUSH1 0x40 DUP3 ADD MLOAD PUSH1 0x2 DUP3 ADD SSTORE PUSH1 0x60 DUP3 ADD MLOAD PUSH1 0x3 DUP3 ADD SWAP1 PUSH3 0x87A SWAP1 DUP3 PUSH3 0x17D3 JUMP JUMPDEST POP PUSH1 0x80 DUP3 ADD MLOAD PUSH1 0x4 DUP3 ADD SWAP1 PUSH3 0x891 SWAP1 DUP3 PUSH3 0x17D3 JUMP JUMPDEST POP POP POP PUSH3 0x8A6 DUP14 DUP14 DUP4 DUP6 DUP9 DUP9 DUP12 DUP14 PUSH3 0xE4E JUMP JUMPDEST PUSH1 0x1 PUSH1 0x5 DUP14 PUSH1 0x40 MLOAD PUSH3 0x8BA SWAP2 SWAP1 PUSH3 0x1680 JUMP JUMPDEST SWAP1 DUP2 MSTORE PUSH1 0x20 ADD PUSH1 0x40 MLOAD DUP1 SWAP2 SUB SWAP1 KECCAK256 PUSH1 0x0 PUSH2 0x100 EXP DUP2 SLOAD DUP2 PUSH1 0xFF MUL NOT AND SWAP1 DUP4 ISZERO ISZERO MUL OR SWAP1 SSTORE POP PUSH1 0x40 MLOAD DUP1 PUSH1 0xA0 ADD PUSH1 0x40 MSTORE DUP1 DUP15 PUSH1 0x1 PUSH1 0x1 PUSH1 0xA0 SHL SUB AND DUP2 MSTORE PUSH1 0x20 ADD DUP14 DUP2 MSTORE PUSH1 0x20 ADD DUP13 DUP2 MSTORE PUSH1 0x20 ADD DUP12 DUP2 MSTORE PUSH1 0x20 ADD DUP11 DUP2 MSTORE POP PUSH1 0x3 DUP14 PUSH1 0x40 MLOAD PUSH3 0x921 SWAP2 SWAP1 PUSH3 0x1680 JUMP JUMPDEST SWAP1 DUP2 MSTORE PUSH1 0x40 MLOAD PUSH1 0x20 SWAP2 DUP2 SWAP1 SUB DUP3 ADD SWAP1 KECCAK256 DUP3 MLOAD DUP2 SLOAD PUSH1 0x1 PUSH1 0x1 PUSH1 0xA0 SHL SUB NOT AND PUSH1 0x1 PUSH1 0x1 PUSH1 0xA0 SHL SUB SWAP1 SWAP2 AND OR DUP2 SSTORE SWAP1 DUP3 ADD MLOAD PUSH1 0x1 DUP3 ADD SWAP1 PUSH3 0x962 SWAP1 DUP3 PUSH3 0x17D3 JUMP JUMPDEST POP PUSH1 0x40 DUP3 ADD MLOAD PUSH1 0x2 DUP3 ADD SSTORE PUSH1 0x60 DUP3 ADD MLOAD PUSH1 0x3 DUP3 ADD SWAP1 PUSH3 0x983 SWAP1 DUP3 PUSH3 0x17D3 JUMP JUMPDEST POP PUSH1 0x80 DUP3 ADD MLOAD PUSH1 0x4 DUP3 ADD SWAP1 PUSH3 0x99A SWAP1 DUP3 PUSH3 0x17D3 JUMP JUMPDEST POP SWAP1 POP POP DUP12 PUSH1 0x4 DUP12 PUSH1 0x40 MLOAD PUSH3 0x9B1 SWAP2 SWAP1 PUSH3 0x1680 JUMP JUMPDEST SWAP1 DUP2 MSTORE PUSH1 0x20 ADD PUSH1 0x40 MLOAD DUP1 SWAP2 SUB SWAP1 KECCAK256 SWAP1 DUP2 PUSH3 0x9CD SWAP2 SWAP1 PUSH3 0x17D3 JUMP JUMPDEST POP PUSH1 0x40 MLOAD PUSH4 0x690A49F9 PUSH1 0xE0 SHL DUP2 MSTORE PUSH1 0x1 PUSH1 0x1 PUSH1 0xA0 SHL SUB DUP4 DUP2 AND PUSH1 0x4 DUP4 ADD MSTORE DUP5 AND SWAP1 PUSH4 0x690A49F9 SWAP1 PUSH1 0x24 ADD PUSH1 0x0 PUSH1 0x40 MLOAD DUP1 DUP4 SUB DUP2 PUSH1 0x0 DUP8 DUP1 EXTCODESIZE ISZERO DUP1 ISZERO PUSH3 0xA12 JUMPI PUSH1 0x0 DUP1 REVERT JUMPDEST POP GAS CALL ISZERO DUP1 ISZERO PUSH3 0xA27 JUMPI RETURNDATASIZE PUSH1 0x0 DUP1 RETURNDATACOPY RETURNDATASIZE PUSH1 0x0 REVERT JUMPDEST POP POP POP POP DUP1 PUSH1 0x1 PUSH1 0x1 PUSH1 0xA0 SHL SUB AND PUSH4 0xF2FDE38B DUP15 PUSH1 0x40 MLOAD DUP3 PUSH4 0xFFFFFFFF AND PUSH1 0xE0 SHL DUP2 MSTORE PUSH1 0x4 ADD PUSH3 0xA67 SWAP2 SWAP1 PUSH1 0x1 PUSH1 0x1 PUSH1 0xA0 SHL SUB SWAP2 SWAP1 SWAP2 AND DUP2 MSTORE PUSH1 0x20 ADD SWAP1 JUMP JUMPDEST PUSH1 0x0 PUSH1 0x40 MLOAD DUP1 DUP4 SUB DUP2 PUSH1 0x0 DUP8 DUP1 EXTCODESIZE ISZERO DUP1 ISZERO PUSH3 0xA82 JUMPI PUSH1 0x0 DUP1 REVERT JUMPDEST POP GAS CALL ISZERO DUP1 ISZERO PUSH3 0xA97 JUMPI RETURNDATASIZE PUSH1 0x0 DUP1 RETURNDATACOPY RETURNDATASIZE PUSH1 0x0 REVERT JUMPDEST POP POP POP POP DUP6 PUSH1 0x1 PUSH1 0x1 PUSH1 0xA0 SHL SUB AND PUSH4 0xF2FDE38B DUP15 PUSH1 0x40 MLOAD DUP3 PUSH4 0xFFFFFFFF AND PUSH1 0xE0 SHL DUP2 MSTORE PUSH1 0x4 ADD PUSH3 0xAD7 SWAP2 SWAP1 PUSH1 0x1 PUSH1 0x1 PUSH1 0xA0 SHL SUB SWAP2 SWAP1 SWAP2 AND DUP2 MSTORE PUSH1 0x20 ADD SWAP1 JUMP JUMPDEST PUSH1 0x0 PUSH1 0x40 MLOAD DUP1 DUP4 SUB DUP2 PUSH1 0x0 DUP8 DUP1 EXTCODESIZE ISZERO DUP1 ISZERO PUSH3 0xAF2 JUMPI PUSH1 0x0 DUP1 REVERT JUMPDEST POP GAS CALL ISZERO DUP1 ISZERO PUSH3 0xB07 JUMPI RETURNDATASIZE PUSH1 0x0 DUP1 RETURNDATACOPY RETURNDATASIZE PUSH1 0x0 REVERT JUMPDEST POP POP POP POP DUP5 PUSH1 0x1 PUSH1 0x1 PUSH1 0xA0 SHL SUB AND PUSH4 0xF2FDE38B DUP15 PUSH1 0x40 MLOAD DUP3 PUSH4 0xFFFFFFFF AND PUSH1 0xE0 SHL DUP2 MSTORE PUSH1 0x4 ADD PUSH3 0xB47 SWAP2 SWAP1 PUSH1 0x1 PUSH1 0x1 PUSH1 0xA0 SHL SUB SWAP2 SWAP1 SWAP2 AND DUP2 MSTORE PUSH1 0x20 ADD SWAP1 JUMP JUMPDEST PUSH1 0x0 PUSH1 0x40 MLOAD DUP1 DUP4 SUB DUP2 PUSH1 0x0 DUP8 DUP1 EXTCODESIZE ISZERO DUP1 ISZERO PUSH3 0xB62 JUMPI PUSH1 0x0 DUP1 REVERT JUMPDEST POP GAS CALL ISZERO DUP1 ISZERO PUSH3 0xB77 JUMPI RETURNDATASIZE PUSH1 0x0 DUP1 RETURNDATACOPY RETURNDATASIZE PUSH1 0x0 REVERT JUMPDEST POP POP POP POP DUP4 PUSH1 0x1 PUSH1 0x1 PUSH1 0xA0 SHL SUB AND PUSH4 0xF2FDE38B DUP15 PUSH1 0x40 MLOAD DUP3 PUSH4 0xFFFFFFFF AND PUSH1 0xE0 SHL DUP2 MSTORE PUSH1 0x4 ADD PUSH3 0xBB7 SWAP2 SWAP1 PUSH1 0x1 PUSH1 0x1 PUSH1 0xA0 SHL SUB SWAP2 SWAP1 SWAP2 AND DUP2 MSTORE PUSH1 0x20 ADD SWAP1 JUMP JUMPDEST PUSH1 0x0 PUSH1 0x40 MLOAD DUP1 DUP4 SUB DUP2 PUSH1 0x0 DUP8 DUP1 EXTCODESIZE ISZERO DUP1 ISZERO PUSH3 0xBD2 JUMPI PUSH1 0x0 DUP1 REVERT JUMPDEST POP GAS CALL ISZERO DUP1 ISZERO PUSH3 0xBE7 JUMPI RETURNDATASIZE PUSH1 0x0 DUP1 RETURNDATACOPY RETURNDATASIZE PUSH1 0x0 REVERT JUMPDEST POP POP PUSH1 0x40 MLOAD PUSH1 0x1 PUSH1 0x1 PUSH1 0xA0 SHL SUB DUP5 AND DUP2 MSTORE PUSH32 0x47DA22C0331E51A69591B5E2172F95386C96F1C78B7668BAEB4FEAAD35A177A9 SWAP3 POP PUSH1 0x20 ADD SWAP1 POP PUSH1 0x40 MLOAD DUP1 SWAP2 SUB SWAP1 LOG1 SWAP13 SWAP12 POP POP POP POP POP POP POP POP POP POP POP POP JUMP JUMPDEST PUSH1 0x0 DUP1 PUSH1 0x40 MLOAD DUP1 PUSH1 0x20 ADD PUSH3 0xC4D SWAP1 PUSH3 0x12AF JUMP JUMPDEST PUSH1 0x1F NOT DUP3 DUP3 SUB DUP2 ADD DUP4 MSTORE PUSH1 0x1F SWAP1 SWAP2 ADD AND PUSH1 0x40 DUP2 DUP2 MSTORE PUSH1 0x1 PUSH1 0x1 PUSH1 0xA0 SHL SUB DUP7 AND PUSH1 0x20 DUP4 ADD MSTORE SWAP2 SWAP3 POP PUSH1 0x0 SWAP2 ADD PUSH1 0x40 MLOAD PUSH1 0x20 DUP2 DUP4 SUB SUB DUP2 MSTORE SWAP1 PUSH1 0x40 MSTORE SWAP1 POP PUSH1 0x0 DUP3 DUP3 PUSH1 0x40 MLOAD PUSH1 0x20 ADD PUSH3 0xCA0 SWAP3 SWAP2 SWAP1 PUSH3 0x18A0 JUMP JUMPDEST PUSH1 0x40 MLOAD PUSH1 0x20 DUP2 DUP4 SUB SUB DUP2 MSTORE SWAP1 PUSH1 0x40 MSTORE SWAP1 POP PUSH3 0xCBD DUP7 DUP3 PUSH3 0x125A JUMP JUMPDEST SWAP7 SWAP6 POP POP POP POP POP POP JUMP JUMPDEST PUSH1 0x0 DUP1 PUSH1 0x40 MLOAD DUP1 PUSH1 0x20 ADD PUSH3 0xC4D SWAP1 PUSH3 0x12BD JUMP JUMPDEST PUSH1 0x0 DUP1 PUSH1 0x40 MLOAD DUP1 PUSH1 0x20 ADD PUSH3 0xC4D SWAP1 PUSH3 0x12CB JUMP JUMPDEST PUSH1 0x0 DUP1 PUSH1 0x40 MLOAD DUP1 PUSH1 0x20 ADD PUSH3 0xC4D SWAP1 PUSH3 0x12D9 JUMP JUMPDEST PUSH1 0x0 DUP1 PUSH1 0x40 MLOAD DUP1 PUSH1 0x20 ADD PUSH3 0xD1B SWAP1 PUSH3 0x12E7 JUMP JUMPDEST PUSH1 0x1F NOT DUP3 DUP3 SUB DUP2 ADD DUP4 MSTORE PUSH1 0x1F SWAP1 SWAP2 ADD AND PUSH1 0x40 DUP2 DUP2 MSTORE PUSH1 0x1 PUSH1 0x1 PUSH1 0xA0 SHL SUB DUP10 DUP2 AND PUSH1 0x20 DUP5 ADD MSTORE DUP9 DUP2 AND DUP3 DUP5 ADD MSTORE DUP8 DUP2 AND PUSH1 0x60 DUP5 ADD MSTORE DUP7 AND PUSH1 0x80 DUP1 DUP5 ADD SWAP2 SWAP1 SWAP2 MSTORE DUP2 MLOAD DUP1 DUP5 SUB SWAP1 SWAP2 ADD DUP2 MSTORE PUSH1 0xA0 DUP4 ADD SWAP1 SWAP2 MSTORE SWAP2 SWAP3 POP PUSH1 0x0 SWAP1 PUSH3 0xD83 SWAP1 DUP5 SWAP1 DUP5 SWAP1 PUSH1 0xC0 ADD PUSH3 0x18A0 JUMP JUMPDEST PUSH1 0x40 MLOAD PUSH1 0x20 DUP2 DUP4 SUB SUB DUP2 MSTORE SWAP1 PUSH1 0x40 MSTORE SWAP1 POP PUSH3 0xDA0 DUP10 DUP3 PUSH3 0x125A JUMP JUMPDEST SWAP10 SWAP9 POP POP POP POP POP POP POP POP POP JUMP JUMPDEST PUSH1 0x0 DUP1 PUSH1 0x40 MLOAD DUP1 PUSH1 0x20 ADD PUSH3 0xDC2 SWAP1 PUSH3 0x12F5 JUMP JUMPDEST PUSH1 0x20 DUP3 ADD DUP2 SUB DUP3 MSTORE PUSH1 0x1F NOT PUSH1 0x1F DUP3 ADD AND PUSH1 0x40 MSTORE POP SWAP1 POP PUSH1 0x0 DUP10 DUP10 DUP10 DUP10 DUP10 DUP10 DUP10 PUSH1 0x40 MLOAD PUSH1 0x20 ADD PUSH3 0xDF9 SWAP8 SWAP7 SWAP6 SWAP5 SWAP4 SWAP3 SWAP2 SWAP1 PUSH3 0x18D3 JUMP JUMPDEST PUSH1 0x40 MLOAD PUSH1 0x20 DUP2 DUP4 SUB SUB DUP2 MSTORE SWAP1 PUSH1 0x40 MSTORE SWAP1 POP PUSH1 0x0 DUP3 DUP3 PUSH1 0x40 MLOAD PUSH1 0x20 ADD PUSH3 0xE21 SWAP3 SWAP2 SWAP1 PUSH3 0x18A0 JUMP JUMPDEST PUSH1 0x40 MLOAD PUSH1 0x20 DUP2 DUP4 SUB SUB DUP2 MSTORE SWAP1 PUSH1 0x40 MSTORE SWAP1 POP PUSH3 0xE3E DUP13 DUP3 PUSH3 0x125A JUMP JUMPDEST SWAP13 SWAP12 POP POP POP POP POP POP POP POP POP POP POP POP JUMP JUMPDEST PUSH1 0x40 MLOAD DUP1 PUSH1 0xC0 ADD PUSH1 0x40 MSTORE DUP1 DUP8 PUSH1 0x1 PUSH1 0x1 PUSH1 0xA0 SHL SUB AND DUP2 MSTORE PUSH1 0x20 ADD DUP7 PUSH1 0x1 PUSH1 0x1 PUSH1 0xA0 SHL SUB AND DUP2 MSTORE PUSH1 0x20 ADD DUP6 PUSH1 0x1 PUSH1 0x1 PUSH1 0xA0 SHL SUB AND DUP2 MSTORE PUSH1 0x20 ADD DUP5 PUSH1 0x1 PUSH1 0x1 PUSH1 0xA0 SHL SUB AND DUP2 MSTORE PUSH1 0x20 ADD DUP4 PUSH1 0x1 PUSH1 0x1 PUSH1 0xA0 SHL SUB AND DUP2 MSTORE PUSH1 0x20 ADD DUP3 PUSH1 0x1 PUSH1 0x1 PUSH1 0xA0 SHL SUB AND DUP2 MSTORE POP PUSH1 0x2 PUSH1 0x0 DUP11 PUSH1 0x1 PUSH1 0x1 PUSH1 0xA0 SHL SUB AND PUSH1 0x1 PUSH1 0x1 PUSH1 0xA0 SHL SUB AND DUP2 MSTORE PUSH1 0x20 ADD SWAP1 DUP2 MSTORE PUSH1 0x20 ADD PUSH1 0x0 KECCAK256 DUP9 PUSH1 0x40 MLOAD PUSH3 0xEE6 SWAP2 SWAP1 PUSH3 0x1680 JUMP JUMPDEST SWAP1 DUP2 MSTORE PUSH1 0x40 DUP1 MLOAD PUSH1 0x20 SWAP3 DUP2 SWAP1 SUB DUP4 ADD DUP2 KECCAK256 DUP5 MLOAD DUP2 SLOAD PUSH1 0x1 PUSH1 0x1 PUSH1 0xA0 SHL SUB NOT SWAP1 DUP2 AND PUSH1 0x1 PUSH1 0x1 PUSH1 0xA0 SHL SUB SWAP3 DUP4 AND OR DUP4 SSTORE SWAP5 DUP7 ADD MLOAD PUSH1 0x1 DUP4 ADD DUP1 SLOAD DUP8 AND SWAP2 DUP4 AND SWAP2 SWAP1 SWAP2 OR SWAP1 SSTORE SWAP3 DUP6 ADD MLOAD PUSH1 0x2 DUP3 ADD DUP1 SLOAD DUP7 AND SWAP2 DUP6 AND SWAP2 SWAP1 SWAP2 OR SWAP1 SSTORE PUSH1 0x60 DUP6 ADD MLOAD PUSH1 0x3 DUP3 ADD DUP1 SLOAD DUP7 AND SWAP2 DUP6 AND SWAP2 SWAP1 SWAP2 OR SWAP1 SSTORE PUSH1 0x80 DUP6 ADD MLOAD PUSH1 0x4 DUP1 DUP4 ADD DUP1 SLOAD DUP8 AND SWAP3 DUP7 AND SWAP3 SWAP1 SWAP3 OR SWAP1 SWAP2 SSTORE PUSH1 0xA0 SWAP1 SWAP6 ADD MLOAD PUSH1 0x5 SWAP1 SWAP2 ADD DUP1 SLOAD SWAP1 SWAP5 AND SWAP1 DUP4 AND OR SWAP1 SWAP3 SSTORE PUSH4 0x2F2FF15D PUSH1 0xE0 SHL DUP3 MSTORE PUSH1 0x0 SWAP3 DUP3 ADD SWAP3 SWAP1 SWAP3 MSTORE DUP10 DUP3 AND PUSH1 0x24 DUP3 ADD MSTORE SWAP1 DUP8 AND SWAP1 PUSH4 0x2F2FF15D SWAP1 PUSH1 0x44 ADD PUSH1 0x0 PUSH1 0x40 MLOAD DUP1 DUP4 SUB DUP2 PUSH1 0x0 DUP8 DUP1 EXTCODESIZE ISZERO DUP1 ISZERO PUSH3 0xFC7 JUMPI PUSH1 0x0 DUP1 REVERT JUMPDEST POP GAS CALL ISZERO DUP1 ISZERO PUSH3 0xFDC JUMPI RETURNDATASIZE PUSH1 0x0 DUP1 RETURNDATACOPY RETURNDATASIZE PUSH1 0x0 REVERT JUMPDEST POP POP PUSH1 0x40 MLOAD PUSH4 0x2F2FF15D PUSH1 0xE0 SHL DUP2 MSTORE PUSH32 0xB19546DFF01E856FB3F010C267A7B1C60363CF8A4664E21CC89C26224620214E PUSH1 0x4 DUP3 ADD MSTORE PUSH1 0x1 PUSH1 0x1 PUSH1 0xA0 SHL SUB DUP12 DUP2 AND PUSH1 0x24 DUP4 ADD MSTORE DUP10 AND SWAP3 POP PUSH4 0x2F2FF15D SWAP2 POP PUSH1 0x44 ADD PUSH1 0x0 PUSH1 0x40 MLOAD DUP1 DUP4 SUB DUP2 PUSH1 0x0 DUP8 DUP1 EXTCODESIZE ISZERO DUP1 ISZERO PUSH3 0x104A JUMPI PUSH1 0x0 DUP1 REVERT JUMPDEST POP GAS CALL ISZERO DUP1 ISZERO PUSH3 0x105F JUMPI RETURNDATASIZE PUSH1 0x0 DUP1 RETURNDATACOPY RETURNDATASIZE PUSH1 0x0 REVERT JUMPDEST POP POP PUSH1 0x40 MLOAD PUSH4 0x2F2FF15D PUSH1 0xE0 SHL DUP2 MSTORE PUSH32 0xCAB5A0BFE0B79D2C4B1C2E02599FA044D115B7511F9659307CB4276950967709 PUSH1 0x4 DUP3 ADD MSTORE PUSH1 0x1 PUSH1 0x1 PUSH1 0xA0 SHL SUB DUP12 DUP2 AND PUSH1 0x24 DUP4 ADD MSTORE DUP10 AND SWAP3 POP PUSH4 0x2F2FF15D SWAP2 POP PUSH1 0x44 ADD PUSH1 0x0 PUSH1 0x40 MLOAD DUP1 DUP4 SUB DUP2 PUSH1 0x0 DUP8 DUP1 EXTCODESIZE ISZERO DUP1 ISZERO PUSH3 0x10CD JUMPI PUSH1 0x0 DUP1 REVERT JUMPDEST POP GAS CALL ISZERO DUP1 ISZERO PUSH3 0x10E2 JUMPI RETURNDATASIZE PUSH1 0x0 DUP1 RETURNDATACOPY RETURNDATASIZE PUSH1 0x0 REVERT JUMPDEST POP POP PUSH1 0x40 MLOAD PUSH4 0x2F2FF15D PUSH1 0xE0 SHL DUP2 MSTORE PUSH1 0x0 PUSH1 0x4 DUP3 ADD MSTORE PUSH1 0x1 PUSH1 0x1 PUSH1 0xA0 SHL SUB DUP12 DUP2 AND PUSH1 0x24 DUP4 ADD MSTORE DUP9 AND SWAP3 POP PUSH4 0x2F2FF15D SWAP2 POP PUSH1 0x44 ADD PUSH1 0x0 PUSH1 0x40 MLOAD DUP1 DUP4 SUB DUP2 PUSH1 0x0 DUP8 DUP1 EXTCODESIZE ISZERO DUP1 ISZERO PUSH3 0x1131 JUMPI PUSH1 0x0 DUP1 REVERT JUMPDEST POP GAS CALL ISZERO DUP1 ISZERO PUSH3 0x1146 JUMPI RETURNDATASIZE PUSH1 0x0 DUP1 RETURNDATACOPY RETURNDATASIZE PUSH1 0x0 REVERT JUMPDEST POP POP PUSH1 0x40 MLOAD PUSH4 0x2F2FF15D PUSH1 0xE0 SHL DUP2 MSTORE PUSH32 0xB19546DFF01E856FB3F010C267A7B1C60363CF8A4664E21CC89C26224620214E PUSH1 0x4 DUP3 ADD MSTORE PUSH1 0x1 PUSH1 0x1 PUSH1 0xA0 SHL SUB DUP12 DUP2 AND PUSH1 0x24 DUP4 ADD MSTORE DUP9 AND SWAP3 POP PUSH4 0x2F2FF15D SWAP2 POP PUSH1 0x44 ADD PUSH1 0x0 PUSH1 0x40 MLOAD DUP1 DUP4 SUB DUP2 PUSH1 0x0 DUP8 DUP1 EXTCODESIZE ISZERO DUP1 ISZERO PUSH3 0x11B4 JUMPI PUSH1 0x0 DUP1 REVERT JUMPDEST POP GAS CALL ISZERO DUP1 ISZERO PUSH3 0x11C9 JUMPI RETURNDATASIZE PUSH1 0x0 DUP1 RETURNDATACOPY RETURNDATASIZE PUSH1 0x0 REVERT JUMPDEST POP POP PUSH1 0x40 MLOAD PUSH4 0x2F2FF15D PUSH1 0xE0 SHL DUP2 MSTORE PUSH32 0xCAB5A0BFE0B79D2C4B1C2E02599FA044D115B7511F9659307CB4276950967709 PUSH1 0x4 DUP3 ADD MSTORE PUSH1 0x1 PUSH1 0x1 PUSH1 0xA0 SHL SUB DUP12 DUP2 AND PUSH1 0x24 DUP4 ADD MSTORE DUP9 AND SWAP3 POP PUSH4 0x2F2FF15D SWAP2 POP PUSH1 0x44 ADD PUSH1 0x0 PUSH1 0x40 MLOAD DUP1 DUP4 SUB DUP2 PUSH1 0x0 DUP8 DUP1 EXTCODESIZE ISZERO DUP1 ISZERO PUSH3 0x1237 JUMPI PUSH1 0x0 DUP1 REVERT JUMPDEST POP GAS CALL ISZERO DUP1 ISZERO PUSH3 0x124C JUMPI RETURNDATASIZE PUSH1 0x0 DUP1 RETURNDATACOPY RETURNDATASIZE PUSH1 0x0 REVERT JUMPDEST POP POP POP POP POP POP POP POP POP POP POP POP JUMP JUMPDEST PUSH1 0x0 DUP1 DUP4 PUSH1 0x40 MLOAD PUSH1 0x20 ADD PUSH3 0x1271 SWAP2 DUP2 MSTORE PUSH1 0x20 ADD SWAP1 JUMP JUMPDEST PUSH1 0x40 MLOAD PUSH1 0x20 DUP2 DUP4 SUB SUB DUP2 MSTORE SWAP1 PUSH1 0x40 MSTORE DUP1 MLOAD SWAP1 PUSH1 0x20 ADD KECCAK256 SWAP1 POP PUSH1 0x0 DUP4 PUSH1 0x20 ADD DUP5 MLOAD DUP4 DUP2 DUP4 PUSH1 0x0 CREATE2 SWAP3 POP POP POP DUP1 EXTCODESIZE PUSH3 0x12A7 JUMPI PUSH1 0x0 DUP1 REVERT JUMPDEST SWAP5 SWAP4 POP POP POP POP JUMP JUMPDEST PUSH2 0x62B DUP1 PUSH3 0x1940 DUP4 CODECOPY ADD SWAP1 JUMP JUMPDEST PUSH2 0x62B DUP1 PUSH3 0x1F6B DUP4 CODECOPY ADD SWAP1 JUMP JUMPDEST PUSH2 0x62B DUP1 PUSH3 0x2596 DUP4 CODECOPY ADD SWAP1 JUMP JUMPDEST PUSH2 0x62B DUP1 PUSH3 0x2BC1 DUP4 CODECOPY ADD SWAP1 JUMP JUMPDEST PUSH2 0x6EE DUP1 PUSH3 0x31EC DUP4 CODECOPY ADD SWAP1 JUMP JUMPDEST PUSH2 0xAD5 DUP1 PUSH3 0x38DA DUP4 CODECOPY ADD SWAP1 JUMP JUMPDEST DUP1 CALLDATALOAD PUSH1 0x1 PUSH1 0x1 PUSH1 0xA0 SHL SUB DUP2 AND DUP2 EQ PUSH3 0x131B JUMPI PUSH1 0x0 DUP1 REVERT JUMPDEST SWAP2 SWAP1 POP JUMP JUMPDEST PUSH4 0x4E487B71 PUSH1 0xE0 SHL PUSH1 0x0 MSTORE PUSH1 0x41 PUSH1 0x4 MSTORE PUSH1 0x24 PUSH1 0x0 REVERT JUMPDEST PUSH1 0x0 DUP3 PUSH1 0x1F DUP4 ADD SLT PUSH3 0x1348 JUMPI PUSH1 0x0 DUP1 REVERT JUMPDEST DUP2 CALLDATALOAD PUSH8 0xFFFFFFFFFFFFFFFF DUP1 DUP3 GT ISZERO PUSH3 0x1366 JUMPI PUSH3 0x1366 PUSH3 0x1320 JUMP JUMPDEST PUSH1 0x40 MLOAD PUSH1 0x1F DUP4 ADD PUSH1 0x1F NOT SWAP1 DUP2 AND PUSH1 0x3F ADD AND DUP2 ADD SWAP1 DUP3 DUP3 GT DUP2 DUP4 LT OR ISZERO PUSH3 0x1391 JUMPI PUSH3 0x1391 PUSH3 0x1320 JUMP JUMPDEST DUP2 PUSH1 0x40 MSTORE DUP4 DUP2 MSTORE DUP7 PUSH1 0x20 DUP6 DUP9 ADD ADD GT ISZERO PUSH3 0x13AB JUMPI PUSH1 0x0 DUP1 REVERT JUMPDEST DUP4 PUSH1 0x20 DUP8 ADD PUSH1 0x20 DUP4 ADD CALLDATACOPY PUSH1 0x0 PUSH1 0x20 DUP6 DUP4 ADD ADD MSTORE DUP1 SWAP5 POP POP POP POP POP SWAP3 SWAP2 POP POP JUMP JUMPDEST PUSH1 0x0 DUP1 PUSH1 0x40 DUP4 DUP6 SUB SLT ISZERO PUSH3 0x13DF JUMPI PUSH1 0x0 DUP1 REVERT JUMPDEST PUSH3 0x13EA DUP4 PUSH3 0x1303 JUMP JUMPDEST SWAP2 POP PUSH1 0x20 DUP4 ADD CALLDATALOAD PUSH8 0xFFFFFFFFFFFFFFFF DUP2 GT ISZERO PUSH3 0x1407 JUMPI PUSH1 0x0 DUP1 REVERT JUMPDEST PUSH3 0x1415 DUP6 DUP3 DUP7 ADD PUSH3 0x1336 JUMP JUMPDEST SWAP2 POP POP SWAP3 POP SWAP3 SWAP1 POP JUMP JUMPDEST PUSH1 0x0 PUSH1 0x20 DUP3 DUP5 SUB SLT ISZERO PUSH3 0x1432 JUMPI PUSH1 0x0 DUP1 REVERT JUMPDEST DUP2 CALLDATALOAD PUSH8 0xFFFFFFFFFFFFFFFF DUP2 GT ISZERO PUSH3 0x144A JUMPI PUSH1 0x0 DUP1 REVERT JUMPDEST PUSH3 0x12A7 DUP5 DUP3 DUP6 ADD PUSH3 0x1336 JUMP JUMPDEST PUSH1 0x0 JUMPDEST DUP4 DUP2 LT ISZERO PUSH3 0x1475 JUMPI DUP2 DUP2 ADD MLOAD DUP4 DUP3 ADD MSTORE PUSH1 0x20 ADD PUSH3 0x145B JUMP JUMPDEST POP POP PUSH1 0x0 SWAP2 ADD MSTORE JUMP JUMPDEST PUSH1 0x0 DUP2 MLOAD DUP1 DUP5 MSTORE PUSH3 0x1498 DUP2 PUSH1 0x20 DUP7 ADD PUSH1 0x20 DUP7 ADD PUSH3 0x1458 JUMP JUMPDEST PUSH1 0x1F ADD PUSH1 0x1F NOT AND SWAP3 SWAP1 SWAP3 ADD PUSH1 0x20 ADD SWAP3 SWAP2 POP POP JUMP JUMPDEST PUSH1 0x20 DUP1 DUP3 MSTORE DUP3 MLOAD PUSH1 0x1 PUSH1 0x1 PUSH1 0xA0 SHL SUB AND DUP3 DUP3 ADD MSTORE DUP3 ADD MLOAD PUSH1 0xA0 PUSH1 0x40 DUP4 ADD MSTORE PUSH1 0x0 SWAP1 PUSH3 0x14DC PUSH1 0xC0 DUP5 ADD DUP3 PUSH3 0x147E JUMP JUMPDEST SWAP1 POP PUSH1 0x40 DUP5 ADD MLOAD PUSH1 0x60 DUP5 ADD MSTORE PUSH1 0x60 DUP5 ADD MLOAD PUSH1 0x1F NOT DUP1 DUP6 DUP5 SUB ADD PUSH1 0x80 DUP7 ADD MSTORE PUSH3 0x1506 DUP4 DUP4 PUSH3 0x147E JUMP JUMPDEST SWAP3 POP PUSH1 0x80 DUP7 ADD MLOAD SWAP2 POP DUP1 DUP6 DUP5 SUB ADD PUSH1 0xA0 DUP7 ADD MSTORE POP PUSH3 0x1526 DUP3 DUP3 PUSH3 0x147E JUMP JUMPDEST SWAP6 SWAP5 POP POP POP POP POP JUMP JUMPDEST PUSH1 0x1 PUSH1 0x1 PUSH1 0xA0 SHL SUB DUP7 AND DUP2 MSTORE PUSH1 0xA0 PUSH1 0x20 DUP3 ADD DUP2 SWAP1 MSTORE PUSH1 0x0 SWAP1 PUSH3 0x1555 SWAP1 DUP4 ADD DUP8 PUSH3 0x147E JUMP JUMPDEST DUP6 PUSH1 0x40 DUP5 ADD MSTORE DUP3 DUP2 SUB PUSH1 0x60 DUP5 ADD MSTORE PUSH3 0x156F DUP2 DUP7 PUSH3 0x147E JUMP JUMPDEST SWAP1 POP DUP3 DUP2 SUB PUSH1 0x80 DUP5 ADD MSTORE PUSH3 0x1585 DUP2 DUP6 PUSH3 0x147E JUMP JUMPDEST SWAP9 SWAP8 POP POP POP POP POP POP POP POP JUMP JUMPDEST PUSH1 0x0 DUP1 PUSH1 0x0 DUP1 PUSH1 0x0 DUP1 PUSH1 0xC0 DUP8 DUP10 SUB SLT ISZERO PUSH3 0x15AB JUMPI PUSH1 0x0 DUP1 REVERT JUMPDEST PUSH3 0x15B6 DUP8 PUSH3 0x1303 JUMP JUMPDEST SWAP6 POP PUSH1 0x20 DUP8 ADD CALLDATALOAD PUSH8 0xFFFFFFFFFFFFFFFF DUP1 DUP3 GT ISZERO PUSH3 0x15D4 JUMPI PUSH1 0x0 DUP1 REVERT JUMPDEST PUSH3 0x15E2 DUP11 DUP4 DUP12 ADD PUSH3 0x1336 JUMP JUMPDEST SWAP7 POP PUSH1 0x40 DUP10 ADD CALLDATALOAD SWAP6 POP PUSH1 0x60 DUP10 ADD CALLDATALOAD SWAP2 POP DUP1 DUP3 GT ISZERO PUSH3 0x1600 JUMPI PUSH1 0x0 DUP1 REVERT JUMPDEST PUSH3 0x160E DUP11 DUP4 DUP12 ADD PUSH3 0x1336 JUMP JUMPDEST SWAP5 POP PUSH1 0x80 DUP10 ADD CALLDATALOAD SWAP2 POP DUP1 DUP3 GT ISZERO PUSH3 0x1625 JUMPI PUSH1 0x0 DUP1 REVERT JUMPDEST POP PUSH3 0x1634 DUP10 DUP3 DUP11 ADD PUSH3 0x1336 JUMP JUMPDEST SWAP3 POP POP PUSH1 0xA0 DUP8 ADD CALLDATALOAD PUSH2 0xFFFF DUP2 AND DUP2 EQ PUSH3 0x164D JUMPI PUSH1 0x0 DUP1 REVERT JUMPDEST DUP1 SWAP2 POP POP SWAP3 SWAP6 POP SWAP3 SWAP6 POP SWAP3 SWAP6 JUMP JUMPDEST PUSH1 0x0 PUSH1 0x20 DUP3 DUP5 SUB SLT ISZERO PUSH3 0x166E JUMPI PUSH1 0x0 DUP1 REVERT JUMPDEST PUSH3 0x1679 DUP3 PUSH3 0x1303 JUMP JUMPDEST SWAP4 SWAP3 POP POP POP JUMP JUMPDEST PUSH1 0x0 DUP3 MLOAD PUSH3 0x1694 DUP2 DUP5 PUSH1 0x20 DUP8 ADD PUSH3 0x1458 JUMP JUMPDEST SWAP2 SWAP1 SWAP2 ADD SWAP3 SWAP2 POP POP JUMP JUMPDEST PUSH1 0x1 DUP2 DUP2 SHR SWAP1 DUP3 AND DUP1 PUSH3 0x16B3 JUMPI PUSH1 0x7F DUP3 AND SWAP2 POP JUMPDEST PUSH1 0x20 DUP3 LT DUP2 SUB PUSH3 0x16D4 JUMPI PUSH4 0x4E487B71 PUSH1 0xE0 SHL PUSH1 0x0 MSTORE PUSH1 0x22 PUSH1 0x4 MSTORE PUSH1 0x24 PUSH1 0x0 REVERT JUMPDEST POP SWAP2 SWAP1 POP JUMP JUMPDEST PUSH1 0x0 DUP1 DUP4 SLOAD PUSH3 0x16EA DUP2 PUSH3 0x169E JUMP JUMPDEST PUSH1 0x1 DUP3 DUP2 AND DUP1 ISZERO PUSH3 0x1705 JUMPI PUSH1 0x1 DUP2 EQ PUSH3 0x171B JUMPI PUSH3 0x174C JUMP JUMPDEST PUSH1 0xFF NOT DUP5 AND DUP8 MSTORE DUP3 ISZERO ISZERO DUP4 MUL DUP8 ADD SWAP5 POP PUSH3 0x174C JUMP JUMPDEST DUP8 PUSH1 0x0 MSTORE PUSH1 0x20 DUP1 PUSH1 0x0 KECCAK256 PUSH1 0x0 JUMPDEST DUP6 DUP2 LT ISZERO PUSH3 0x1743 JUMPI DUP2 SLOAD DUP11 DUP3 ADD MSTORE SWAP1 DUP5 ADD SWAP1 DUP3 ADD PUSH3 0x1728 JUMP JUMPDEST POP POP POP DUP3 DUP8 ADD SWAP5 POP JUMPDEST POP SWAP3 SWAP7 SWAP6 POP POP POP POP POP POP JUMP JUMPDEST PUSH1 0x0 PUSH1 0x1 DUP3 ADD PUSH3 0x1779 JUMPI PUSH4 0x4E487B71 PUSH1 0xE0 SHL PUSH1 0x0 MSTORE PUSH1 0x11 PUSH1 0x4 MSTORE PUSH1 0x24 PUSH1 0x0 REVERT JUMPDEST POP PUSH1 0x1 ADD SWAP1 JUMP JUMPDEST PUSH1 0x1F DUP3 GT ISZERO PUSH3 0x17CE JUMPI PUSH1 0x0 DUP2 DUP2 MSTORE PUSH1 0x20 DUP2 KECCAK256 PUSH1 0x1F DUP6 ADD PUSH1 0x5 SHR DUP2 ADD PUSH1 0x20 DUP7 LT ISZERO PUSH3 0x17A9 JUMPI POP DUP1 JUMPDEST PUSH1 0x1F DUP6 ADD PUSH1 0x5 SHR DUP3 ADD SWAP2 POP JUMPDEST DUP2 DUP2 LT ISZERO PUSH3 0x17CA JUMPI DUP3 DUP2 SSTORE PUSH1 0x1 ADD PUSH3 0x17B5 JUMP JUMPDEST POP POP POP JUMPDEST POP POP POP JUMP JUMPDEST DUP2 MLOAD PUSH8 0xFFFFFFFFFFFFFFFF DUP2 GT ISZERO PUSH3 0x17F0 JUMPI PUSH3 0x17F0 PUSH3 0x1320 JUMP JUMPDEST PUSH3 0x1808 DUP2 PUSH3 0x1801 DUP5 SLOAD PUSH3 0x169E JUMP JUMPDEST DUP5 PUSH3 0x1780 JUMP JUMPDEST PUSH1 0x20 DUP1 PUSH1 0x1F DUP4 GT PUSH1 0x1 DUP2 EQ PUSH3 0x1840 JUMPI PUSH1 0x0 DUP5 ISZERO PUSH3 0x1827 JUMPI POP DUP6 DUP4 ADD MLOAD JUMPDEST PUSH1 0x0 NOT PUSH1 0x3 DUP7 SWAP1 SHL SHR NOT AND PUSH1 0x1 DUP6 SWAP1 SHL OR DUP6 SSTORE PUSH3 0x17CA JUMP JUMPDEST PUSH1 0x0 DUP6 DUP2 MSTORE PUSH1 0x20 DUP2 KECCAK256 PUSH1 0x1F NOT DUP7 AND SWAP2 JUMPDEST DUP3 DUP2 LT ISZERO PUSH3 0x1871 JUMPI DUP9 DUP7 ADD MLOAD DUP3 SSTORE SWAP5 DUP5 ADD SWAP5 PUSH1 0x1 SWAP1 SWAP2 ADD SWAP1 DUP5 ADD PUSH3 0x1850 JUMP JUMPDEST POP DUP6 DUP3 LT ISZERO PUSH3 0x1890 JUMPI DUP8 DUP6 ADD MLOAD PUSH1 0x0 NOT PUSH1 0x3 DUP9 SWAP1 SHL PUSH1 0xF8 AND SHR NOT AND DUP2 SSTORE JUMPDEST POP POP POP POP POP PUSH1 0x1 SWAP1 DUP2 SHL ADD SWAP1 SSTORE POP JUMP JUMPDEST PUSH1 0x0 DUP4 MLOAD PUSH3 0x18B4 DUP2 DUP5 PUSH1 0x20 DUP9 ADD PUSH3 0x1458 JUMP JUMPDEST DUP4 MLOAD SWAP1 DUP4 ADD SWAP1 PUSH3 0x18CA DUP2 DUP4 PUSH1 0x20 DUP9 ADD PUSH3 0x1458 JUMP JUMPDEST ADD SWAP5 SWAP4 POP POP POP POP JUMP JUMPDEST PUSH1 0x1 PUSH1 0x1 PUSH1 0xA0 SHL SUB DUP9 DUP2 AND DUP3 MSTORE DUP8 DUP2 AND PUSH1 0x20 DUP4 ADD MSTORE DUP7 AND PUSH1 0x40 DUP3 ADD MSTORE PUSH1 0xE0 PUSH1 0x60 DUP3 ADD DUP2 SWAP1 MSTORE PUSH1 0x0 SWAP1 PUSH3 0x1909 SWAP1 DUP4 ADD DUP8 PUSH3 0x147E JUMP JUMPDEST DUP3 DUP2 SUB PUSH1 0x80 DUP5 ADD MSTORE PUSH3 0x191D DUP2 DUP8 PUSH3 0x147E JUMP JUMPDEST SWAP2 POP POP PUSH1 0xFF DUP5 AND PUSH1 0xA0 DUP4 ADD MSTORE PUSH2 0xFFFF DUP4 AND PUSH1 0xC0 DUP4 ADD MSTORE SWAP9 SWAP8 POP POP POP POP POP POP POP POP JUMP INVALID PUSH1 0x80 PUSH1 0x40 MSTORE CALLVALUE DUP1 ISZERO PUSH2 0x10 JUMPI PUSH1 0x0 DUP1 REVERT JUMPDEST POP PUSH1 0x40 MLOAD PUSH2 0x62B CODESIZE SUB DUP1 PUSH2 0x62B DUP4 CODECOPY DUP2 ADD PUSH1 0x40 DUP2 SWAP1 MSTORE PUSH2 0x2F SWAP2 PUSH2 0x22A JUMP JUMPDEST PUSH1 0x1 PUSH1 0x1 PUSH1 0xA0 SHL SUB DUP2 AND PUSH2 0x8A JUMPI PUSH1 0x40 MLOAD PUSH3 0x461BCD PUSH1 0xE5 SHL DUP2 MSTORE PUSH1 0x20 PUSH1 0x4 DUP3 ADD MSTORE PUSH1 0x1F PUSH1 0x24 DUP3 ADD MSTORE PUSH32 0x696E76616C696420617267756D656E74202D207A65726F206164647265737300 PUSH1 0x44 DUP3 ADD MSTORE PUSH1 0x64 ADD JUMPDEST PUSH1 0x40 MLOAD DUP1 SWAP2 SUB SWAP1 REVERT JUMPDEST PUSH2 0xA0 DUP2 PUSH1 0x0 DUP1 MLOAD PUSH1 0x20 PUSH2 0x60B DUP4 CODECOPY DUP2 MLOAD SWAP2 MSTORE SSTORE JUMP JUMPDEST PUSH1 0x40 MLOAD PUSH1 0x1 PUSH1 0x1 PUSH1 0xA0 SHL SUB DUP3 AND SWAP1 PUSH32 0x3B1074392ED8E8424715D0DDA2197EEDE67080B377FC8370E26F3E882207F6B8 SWAP1 PUSH1 0x0 SWAP1 LOG2 PUSH1 0x0 PUSH2 0xEC PUSH1 0x0 DUP1 MLOAD PUSH1 0x20 PUSH2 0x60B DUP4 CODECOPY DUP2 MLOAD SWAP2 MSTORE SLOAD SWAP1 JUMP JUMPDEST PUSH1 0x1 PUSH1 0x1 PUSH1 0xA0 SHL SUB AND PUSH4 0xFEDCC052 PUSH1 0x40 MLOAD DUP2 PUSH4 0xFFFFFFFF AND PUSH1 0xE0 SHL DUP2 MSTORE PUSH1 0x4 ADD PUSH1 0x20 PUSH1 0x40 MLOAD DUP1 DUP4 SUB DUP2 DUP7 GAS STATICCALL ISZERO DUP1 ISZERO PUSH2 0x129 JUMPI RETURNDATASIZE PUSH1 0x0 DUP1 RETURNDATACOPY RETURNDATASIZE PUSH1 0x0 REVERT JUMPDEST POP POP POP POP PUSH1 0x40 MLOAD RETURNDATASIZE PUSH1 0x1F NOT PUSH1 0x1F DUP3 ADD AND DUP3 ADD DUP1 PUSH1 0x40 MSTORE POP DUP2 ADD SWAP1 PUSH2 0x14D SWAP2 SWAP1 PUSH2 0x22A JUMP JUMPDEST PUSH1 0x40 DUP1 MLOAD PUSH1 0x4 DUP2 MSTORE PUSH1 0x24 DUP2 ADD DUP3 MSTORE PUSH1 0x20 DUP2 ADD DUP1 MLOAD PUSH1 0x1 PUSH1 0x1 PUSH1 0xE0 SHL SUB AND PUSH4 0x70E39C95 PUSH1 0xE1 SHL OR SWAP1 MSTORE SWAP1 MLOAD SWAP2 SWAP3 POP PUSH1 0x0 SWAP2 PUSH1 0x1 PUSH1 0x1 PUSH1 0xA0 SHL SUB DUP5 AND SWAP2 PUSH2 0x191 SWAP2 PUSH2 0x25A JUMP JUMPDEST PUSH1 0x0 PUSH1 0x40 MLOAD DUP1 DUP4 SUB DUP2 DUP6 GAS DELEGATECALL SWAP2 POP POP RETURNDATASIZE DUP1 PUSH1 0x0 DUP2 EQ PUSH2 0x1CC JUMPI PUSH1 0x40 MLOAD SWAP2 POP PUSH1 0x1F NOT PUSH1 0x3F RETURNDATASIZE ADD AND DUP3 ADD PUSH1 0x40 MSTORE RETURNDATASIZE DUP3 MSTORE RETURNDATASIZE PUSH1 0x0 PUSH1 0x20 DUP5 ADD RETURNDATACOPY PUSH2 0x1D1 JUMP JUMPDEST PUSH1 0x60 SWAP2 POP JUMPDEST POP POP SWAP1 POP DUP1 PUSH2 0x222 JUMPI PUSH1 0x40 MLOAD PUSH3 0x461BCD PUSH1 0xE5 SHL DUP2 MSTORE PUSH1 0x20 PUSH1 0x4 DUP3 ADD MSTORE PUSH1 0x16 PUSH1 0x24 DUP3 ADD MSTORE PUSH32 0x496E697469616C697A6174696F6E206661696C65642E00000000000000000000 PUSH1 0x44 DUP3 ADD MSTORE PUSH1 0x64 ADD PUSH2 0x81 JUMP JUMPDEST POP POP POP PUSH2 0x289 JUMP JUMPDEST PUSH1 0x0 PUSH1 0x20 DUP3 DUP5 SUB SLT ISZERO PUSH2 0x23C JUMPI PUSH1 0x0 DUP1 REVERT JUMPDEST DUP2 MLOAD PUSH1 0x1 PUSH1 0x1 PUSH1 0xA0 SHL SUB DUP2 AND DUP2 EQ PUSH2 0x253 JUMPI PUSH1 0x0 DUP1 REVERT JUMPDEST SWAP4 SWAP3 POP POP POP JUMP JUMPDEST PUSH1 0x0 DUP3 MLOAD PUSH1 0x0 JUMPDEST DUP2 DUP2 LT ISZERO PUSH2 0x27B JUMPI PUSH1 0x20 DUP2 DUP7 ADD DUP2 ADD MLOAD DUP6 DUP4 ADD MSTORE ADD PUSH2 0x261 JUMP JUMPDEST POP PUSH1 0x0 SWAP3 ADD SWAP2 DUP3 MSTORE POP SWAP2 SWAP1 POP JUMP JUMPDEST PUSH2 0x373 DUP1 PUSH2 0x298 PUSH1 0x0 CODECOPY PUSH1 0x0 RETURN INVALID PUSH1 0x80 PUSH1 0x40 MSTORE CALLVALUE DUP1 ISZERO PUSH2 0x10 JUMPI PUSH1 0x0 DUP1 REVERT JUMPDEST POP PUSH1 0x4 CALLDATASIZE LT PUSH2 0x41 JUMPI PUSH1 0x0 CALLDATALOAD PUSH1 0xE0 SHR DUP1 PUSH4 0x24173669 EQ PUSH2 0xE7 JUMPI DUP1 PUSH4 0x2D5F1187 EQ PUSH2 0x102 JUMPI DUP1 PUSH4 0x92DD9D65 EQ PUSH2 0x12A JUMPI JUMPDEST PUSH1 0x0 PUSH2 0x59 PUSH1 0x0 DUP1 MLOAD PUSH1 0x20 PUSH2 0x31E DUP4 CODECOPY DUP2 MLOAD SWAP2 MSTORE SLOAD SWAP1 JUMP JUMPDEST PUSH1 0x1 PUSH1 0x1 PUSH1 0xA0 SHL SUB AND PUSH4 0xFEDCC052 PUSH1 0x40 MLOAD DUP2 PUSH4 0xFFFFFFFF AND PUSH1 0xE0 SHL DUP2 MSTORE PUSH1 0x4 ADD PUSH1 0x20 PUSH1 0x40 MLOAD DUP1 DUP4 SUB DUP2 DUP7 GAS STATICCALL ISZERO DUP1 ISZERO PUSH2 0x96 JUMPI RETURNDATASIZE PUSH1 0x0 DUP1 RETURNDATACOPY RETURNDATASIZE PUSH1 0x0 REVERT JUMPDEST POP POP POP POP PUSH1 0x40 MLOAD RETURNDATASIZE PUSH1 0x1F NOT PUSH1 0x1F DUP3 ADD AND DUP3 ADD DUP1 PUSH1 0x40 MSTORE POP DUP2 ADD SWAP1 PUSH2 0xBA SWAP2 SWAP1 PUSH2 0x2B5 JUMP JUMPDEST SWAP1 POP CALLDATASIZE PUSH1 0x0 DUP1 CALLDATACOPY PUSH1 0x0 DUP1 CALLDATASIZE PUSH1 0x0 DUP5 PUSH2 0x2710 GAS SUB DELEGATECALL RETURNDATASIZE DUP1 PUSH1 0x0 DUP1 RETURNDATACOPY DUP2 DUP1 ISZERO PUSH2 0xE0 JUMPI DUP2 PUSH1 0x0 RETURN JUMPDEST DUP2 PUSH1 0x0 REVERT JUMPDEST STOP JUMPDEST PUSH2 0xEF PUSH2 0x13D JUMP JUMPDEST PUSH1 0x40 MLOAD SWAP1 DUP2 MSTORE PUSH1 0x20 ADD JUMPDEST PUSH1 0x40 MLOAD DUP1 SWAP2 SUB SWAP1 RETURN JUMPDEST PUSH1 0x0 DUP1 MLOAD PUSH1 0x20 PUSH2 0x31E DUP4 CODECOPY DUP2 MLOAD SWAP2 MSTORE SLOAD PUSH1 0x40 MLOAD PUSH1 0x1 PUSH1 0x1 PUSH1 0xA0 SHL SUB SWAP1 SWAP2 AND DUP2 MSTORE PUSH1 0x20 ADD PUSH2 0xF9 JUMP JUMPDEST PUSH2 0xE5 PUSH2 0x138 CALLDATASIZE PUSH1 0x4 PUSH2 0x2D9 JUMP JUMPDEST PUSH2 0x16F JUMP JUMPDEST PUSH1 0x0 PUSH2 0x16A PUSH1 0x1 PUSH32 0x4CD9B827CA535CEB0880425D70EFF88561ECDF04DC32FCF7FF3B15C587F8A871 PUSH2 0x2F6 JUMP JUMPDEST SWAP2 SWAP1 POP JUMP JUMPDEST PUSH1 0x0 DUP1 MLOAD PUSH1 0x20 PUSH2 0x31E DUP4 CODECOPY DUP2 MLOAD SWAP2 MSTORE SLOAD PUSH1 0x1 PUSH1 0x1 PUSH1 0xA0 SHL SUB AND CALLER PUSH1 0x1 PUSH1 0x1 PUSH1 0xA0 SHL SUB AND EQ PUSH2 0x1FA JUMPI PUSH1 0x40 MLOAD PUSH3 0x461BCD PUSH1 0xE5 SHL DUP2 MSTORE PUSH1 0x20 PUSH1 0x4 DUP3 ADD MSTORE PUSH1 0x2D PUSH1 0x24 DUP3 ADD MSTORE PUSH32 0x6F6E6C792063757272656E7420696D706C656D656E746174696F6E417574686F PUSH1 0x44 DUP3 ADD MSTORE PUSH13 0x1C9A5D1E4818D85B8818D85B1B PUSH1 0x9A SHL PUSH1 0x64 DUP3 ADD MSTORE PUSH1 0x84 ADD JUMPDEST PUSH1 0x40 MLOAD DUP1 SWAP2 SUB SWAP1 REVERT JUMPDEST PUSH1 0x1 PUSH1 0x1 PUSH1 0xA0 SHL SUB DUP2 AND PUSH2 0x250 JUMPI PUSH1 0x40 MLOAD PUSH3 0x461BCD PUSH1 0xE5 SHL DUP2 MSTORE PUSH1 0x20 PUSH1 0x4 DUP3 ADD MSTORE PUSH1 0x1F PUSH1 0x24 DUP3 ADD MSTORE PUSH32 0x696E76616C696420617267756D656E74202D207A65726F206164647265737300 PUSH1 0x44 DUP3 ADD MSTORE PUSH1 0x64 ADD PUSH2 0x1F1 JUMP JUMPDEST PUSH2 0x266 DUP2 PUSH1 0x0 DUP1 MLOAD PUSH1 0x20 PUSH2 0x31E DUP4 CODECOPY DUP2 MLOAD SWAP2 MSTORE SSTORE JUMP JUMPDEST PUSH1 0x40 MLOAD PUSH1 0x1 PUSH1 0x1 PUSH1 0xA0 SHL SUB DUP3 AND SWAP1 PUSH32 0x3B1074392ED8E8424715D0DDA2197EEDE67080B377FC8370E26F3E882207F6B8 SWAP1 PUSH1 0x0 SWAP1 LOG2 POP JUMP JUMPDEST PUSH1 0x1 PUSH1 0x1 PUSH1 0xA0 SHL SUB DUP2 AND DUP2 EQ PUSH2 0x2B2 JUMPI PUSH1 0x0 DUP1 REVERT JUMPDEST POP JUMP JUMPDEST PUSH1 0x0 PUSH1 0x20 DUP3 DUP5 SUB SLT ISZERO PUSH2 0x2C7 JUMPI PUSH1 0x0 DUP1 REVERT JUMPDEST DUP2 MLOAD PUSH2 0x2D2 DUP2 PUSH2 0x29D JUMP JUMPDEST SWAP4 SWAP3 POP POP POP JUMP JUMPDEST PUSH1 0x0 PUSH1 0x20 DUP3 DUP5 SUB SLT ISZERO PUSH2 0x2EB JUMPI PUSH1 0x0 DUP1 REVERT JUMPDEST DUP2 CALLDATALOAD PUSH2 0x2D2 DUP2 PUSH2 0x29D JUMP JUMPDEST DUP2 DUP2 SUB DUP2 DUP2 GT ISZERO PUSH2 0x317 JUMPI PUSH4 0x4E487B71 PUSH1 0xE0 SHL PUSH1 0x0 MSTORE PUSH1 0x11 PUSH1 0x4 MSTORE PUSH1 0x24 PUSH1 0x0 REVERT JUMPDEST SWAP3 SWAP2 POP POP JUMP INVALID 0xC5 CALL PUSH16 0xFCC639FA48A6947836D9850F5047985 0x23 0xBF DUP13 SWAP11 GASPRICE DUP8 0xD5 DUP8 PUSH13 0xF622BCF7A26469706673582212 KECCAK256 PUSH26 0x24737063577FEFA72FD5F2380ACB84C5456C8AEEDCF990D80FF3 0xE9 CALLCODE DUP4 CALLER SWAP16 PUSH5 0x736F6C6343 STOP ADDMOD GT STOP CALLER 0xC5 CALL PUSH16 0xFCC639FA48A6947836D9850F5047985 0x23 0xBF DUP13 SWAP11 GASPRICE DUP8 0xD5 DUP8 PUSH13 0xF622BCF7608060405234801561 STOP LT JUMPI PUSH1 0x0 DUP1 REVERT JUMPDEST POP PUSH1 0x40 MLOAD PUSH2 0x62B CODESIZE SUB DUP1 PUSH2 0x62B DUP4 CODECOPY DUP2 ADD PUSH1 0x40 DUP2 SWAP1 MSTORE PUSH2 0x2F SWAP2 PUSH2 0x22A JUMP JUMPDEST PUSH1 0x1 PUSH1 0x1 PUSH1 0xA0 SHL SUB DUP2 AND PUSH2 0x8A JUMPI PUSH1 0x40 MLOAD PUSH3 0x461BCD PUSH1 0xE5 SHL DUP2 MSTORE PUSH1 0x20 PUSH1 0x4 DUP3 ADD MSTORE PUSH1 0x1F PUSH1 0x24 DUP3 ADD MSTORE PUSH32 0x696E76616C696420617267756D656E74202D207A65726F206164647265737300 PUSH1 0x44 DUP3 ADD MSTORE PUSH1 0x64 ADD JUMPDEST PUSH1 0x40 MLOAD DUP1 SWAP2 SUB SWAP1 REVERT JUMPDEST PUSH2 0xA0 DUP2 PUSH1 0x0 DUP1 MLOAD PUSH1 0x20 PUSH2 0x60B DUP4 CODECOPY DUP2 MLOAD SWAP2 MSTORE SSTORE JUMP JUMPDEST PUSH1 0x40 MLOAD PUSH1 0x1 PUSH1 0x1 PUSH1 0xA0 SHL SUB DUP3 AND SWAP1 PUSH32 0x3B1074392ED8E8424715D0DDA2197EEDE67080B377FC8370E26F3E882207F6B8 SWAP1 PUSH1 0x0 SWAP1 LOG2 PUSH1 0x0 PUSH2 0xEC PUSH1 0x0 DUP1 MLOAD PUSH1 0x20 PUSH2 0x60B DUP4 CODECOPY DUP2 MLOAD SWAP2 MSTORE SLOAD SWAP1 JUMP JUMPDEST PUSH1 0x1 PUSH1 0x1 PUSH1 0xA0 SHL SUB AND PUSH4 0x6FF6E83F PUSH1 0x40 MLOAD DUP2 PUSH4 0xFFFFFFFF AND PUSH1 0xE0 SHL DUP2 MSTORE PUSH1 0x4 ADD PUSH1 0x20 PUSH1 0x40 MLOAD DUP1 DUP4 SUB DUP2 DUP7 GAS STATICCALL ISZERO DUP1 ISZERO PUSH2 0x129 JUMPI RETURNDATASIZE PUSH1 0x0 DUP1 RETURNDATACOPY RETURNDATASIZE PUSH1 0x0 REVERT JUMPDEST POP POP POP POP PUSH1 0x40 MLOAD RETURNDATASIZE PUSH1 0x1F NOT PUSH1 0x1F DUP3 ADD AND DUP3 ADD DUP1 PUSH1 0x40 MSTORE POP DUP2 ADD SWAP1 PUSH2 0x14D SWAP2 SWAP1 PUSH2 0x22A JUMP JUMPDEST PUSH1 0x40 DUP1 MLOAD PUSH1 0x4 DUP2 MSTORE PUSH1 0x24 DUP2 ADD DUP3 MSTORE PUSH1 0x20 DUP2 ADD DUP1 MLOAD PUSH1 0x1 PUSH1 0x1 PUSH1 0xE0 SHL SUB AND PUSH4 0x70E39C95 PUSH1 0xE1 SHL OR SWAP1 MSTORE SWAP1 MLOAD SWAP2 SWAP3 POP PUSH1 0x0 SWAP2 PUSH1 0x1 PUSH1 0x1 PUSH1 0xA0 SHL SUB DUP5 AND SWAP2 PUSH2 0x191 SWAP2 PUSH2 0x25A JUMP JUMPDEST PUSH1 0x0 PUSH1 0x40 MLOAD DUP1 DUP4 SUB DUP2 DUP6 GAS DELEGATECALL SWAP2 POP POP RETURNDATASIZE DUP1 PUSH1 0x0 DUP2 EQ PUSH2 0x1CC JUMPI PUSH1 0x40 MLOAD SWAP2 POP PUSH1 0x1F NOT PUSH1 0x3F RETURNDATASIZE ADD AND DUP3 ADD PUSH1 0x40 MSTORE RETURNDATASIZE DUP3 MSTORE RETURNDATASIZE PUSH1 0x0 PUSH1 0x20 DUP5 ADD RETURNDATACOPY PUSH2 0x1D1 JUMP JUMPDEST PUSH1 0x60 SWAP2 POP JUMPDEST POP POP SWAP1 POP DUP1 PUSH2 0x222 JUMPI PUSH1 0x40 MLOAD PUSH3 0x461BCD PUSH1 0xE5 SHL DUP2 MSTORE PUSH1 0x20 PUSH1 0x4 DUP3 ADD MSTORE PUSH1 0x16 PUSH1 0x24 DUP3 ADD MSTORE PUSH32 0x496E697469616C697A6174696F6E206661696C65642E00000000000000000000 PUSH1 0x44 DUP3 ADD MSTORE PUSH1 0x64 ADD PUSH2 0x81 JUMP JUMPDEST POP POP POP PUSH2 0x289 JUMP JUMPDEST PUSH1 0x0 PUSH1 0x20 DUP3 DUP5 SUB SLT ISZERO PUSH2 0x23C JUMPI PUSH1 0x0 DUP1 REVERT JUMPDEST DUP2 MLOAD PUSH1 0x1 PUSH1 0x1 PUSH1 0xA0 SHL SUB DUP2 AND DUP2 EQ PUSH2 0x253 JUMPI PUSH1 0x0 DUP1 REVERT JUMPDEST SWAP4 SWAP3 POP POP POP JUMP JUMPDEST PUSH1 0x0 DUP3 MLOAD PUSH1 0x0 JUMPDEST DUP2 DUP2 LT ISZERO PUSH2 0x27B JUMPI PUSH1 0x20 DUP2 DUP7 ADD DUP2 ADD MLOAD DUP6 DUP4 ADD MSTORE ADD PUSH2 0x261 JUMP JUMPDEST POP PUSH1 0x0 SWAP3 ADD SWAP2 DUP3 MSTORE POP SWAP2 SWAP1 POP JUMP JUMPDEST PUSH2 0x373 DUP1 PUSH2 0x298 PUSH1 0x0 CODECOPY PUSH1 0x0 RETURN INVALID PUSH1 0x80 PUSH1 0x40 MSTORE CALLVALUE DUP1 ISZERO PUSH2 0x10 JUMPI PUSH1 0x0 DUP1 REVERT JUMPDEST POP PUSH1 0x4 CALLDATASIZE LT PUSH2 0x41 JUMPI PUSH1 0x0 CALLDATALOAD PUSH1 0xE0 SHR DUP1 PUSH4 0x24173669 EQ PUSH2 0xE7 JUMPI DUP1 PUSH4 0x2D5F1187 EQ PUSH2 0x102 JUMPI DUP1 PUSH4 0x92DD9D65 EQ PUSH2 0x12A JUMPI JUMPDEST PUSH1 0x0 PUSH2 0x59 PUSH1 0x0 DUP1 MLOAD PUSH1 0x20 PUSH2 0x31E DUP4 CODECOPY DUP2 MLOAD SWAP2 MSTORE SLOAD SWAP1 JUMP JUMPDEST PUSH1 0x1 PUSH1 0x1 PUSH1 0xA0 SHL SUB AND PUSH4 0x6FF6E83F PUSH1 0x40 MLOAD DUP2 PUSH4 0xFFFFFFFF AND PUSH1 0xE0 SHL DUP2 MSTORE PUSH1 0x4 ADD PUSH1 0x20 PUSH1 0x40 MLOAD DUP1 DUP4 SUB DUP2 DUP7 GAS STATICCALL ISZERO DUP1 ISZERO PUSH2 0x96 JUMPI RETURNDATASIZE PUSH1 0x0 DUP1 RETURNDATACOPY RETURNDATASIZE PUSH1 0x0 REVERT JUMPDEST POP POP POP POP PUSH1 0x40 MLOAD RETURNDATASIZE PUSH1 0x1F NOT PUSH1 0x1F DUP3 ADD AND DUP3 ADD DUP1 PUSH1 0x40 MSTORE POP DUP2 ADD SWAP1 PUSH2 0xBA SWAP2 SWAP1 PUSH2 0x2B5 JUMP JUMPDEST SWAP1 POP CALLDATASIZE PUSH1 0x0 DUP1 CALLDATACOPY PUSH1 0x0 DUP1 CALLDATASIZE PUSH1 0x0 DUP5 PUSH2 0x2710 GAS SUB DELEGATECALL RETURNDATASIZE DUP1 PUSH1 0x0 DUP1 RETURNDATACOPY DUP2 DUP1 ISZERO PUSH2 0xE0 JUMPI DUP2 PUSH1 0x0 RETURN JUMPDEST DUP2 PUSH1 0x0 REVERT JUMPDEST STOP JUMPDEST PUSH2 0xEF PUSH2 0x13D JUMP JUMPDEST PUSH1 0x40 MLOAD SWAP1 DUP2 MSTORE PUSH1 0x20 ADD JUMPDEST PUSH1 0x40 MLOAD DUP1 SWAP2 SUB SWAP1 RETURN JUMPDEST PUSH1 0x0 DUP1 MLOAD PUSH1 0x20 PUSH2 0x31E DUP4 CODECOPY DUP2 MLOAD SWAP2 MSTORE SLOAD PUSH1 0x40 MLOAD PUSH1 0x1 PUSH1 0x1 PUSH1 0xA0 SHL SUB SWAP1 SWAP2 AND DUP2 MSTORE PUSH1 0x20 ADD PUSH2 0xF9 JUMP JUMPDEST PUSH2 0xE5 PUSH2 0x138 CALLDATASIZE PUSH1 0x4 PUSH2 0x2D9 JUMP JUMPDEST PUSH2 0x16F JUMP JUMPDEST PUSH1 0x0 PUSH2 0x16A PUSH1 0x1 PUSH32 0x4CD9B827CA535CEB0880425D70EFF88561ECDF04DC32FCF7FF3B15C587F8A871 PUSH2 0x2F6 JUMP JUMPDEST SWAP2 SWAP1 POP JUMP JUMPDEST PUSH1 0x0 DUP1 MLOAD PUSH1 0x20 PUSH2 0x31E DUP4 CODECOPY DUP2 MLOAD SWAP2 MSTORE SLOAD PUSH1 0x1 PUSH1 0x1 PUSH1 0xA0 SHL SUB AND CALLER PUSH1 0x1 PUSH1 0x1 PUSH1 0xA0 SHL SUB AND EQ PUSH2 0x1FA JUMPI PUSH1 0x40 MLOAD PUSH3 0x461BCD PUSH1 0xE5 SHL DUP2 MSTORE PUSH1 0x20 PUSH1 0x4 DUP3 ADD MSTORE PUSH1 0x2D PUSH1 0x24 DUP3 ADD MSTORE PUSH32 0x6F6E6C792063757272656E7420696D706C656D656E746174696F6E417574686F PUSH1 0x44 DUP3 ADD MSTORE PUSH13 0x1C9A5D1E4818D85B8818D85B1B PUSH1 0x9A SHL PUSH1 0x64 DUP3 ADD MSTORE PUSH1 0x84 ADD JUMPDEST PUSH1 0x40 MLOAD DUP1 SWAP2 SUB SWAP1 REVERT JUMPDEST PUSH1 0x1 PUSH1 0x1 PUSH1 0xA0 SHL SUB DUP2 AND PUSH2 0x250 JUMPI PUSH1 0x40 MLOAD PUSH3 0x461BCD PUSH1 0xE5 SHL DUP2 MSTORE PUSH1 0x20 PUSH1 0x4 DUP3 ADD MSTORE PUSH1 0x1F PUSH1 0x24 DUP3 ADD MSTORE PUSH32 0x696E76616C696420617267756D656E74202D207A65726F206164647265737300 PUSH1 0x44 DUP3 ADD MSTORE PUSH1 0x64 ADD PUSH2 0x1F1 JUMP JUMPDEST PUSH2 0x266 DUP2 PUSH1 0x0 DUP1 MLOAD PUSH1 0x20 PUSH2 0x31E DUP4 CODECOPY DUP2 MLOAD SWAP2 MSTORE SSTORE JUMP JUMPDEST PUSH1 0x40 MLOAD PUSH1 0x1 PUSH1 0x1 PUSH1 0xA0 SHL SUB DUP3 AND SWAP1 PUSH32 0x3B1074392ED8E8424715D0DDA2197EEDE67080B377FC8370E26F3E882207F6B8 SWAP1 PUSH1 0x0 SWAP1 LOG2 POP JUMP JUMPDEST PUSH1 0x1 PUSH1 0x1 PUSH1 0xA0 SHL SUB DUP2 AND DUP2 EQ PUSH2 0x2B2 JUMPI PUSH1 0x0 DUP1 REVERT JUMPDEST POP JUMP JUMPDEST PUSH1 0x0 PUSH1 0x20 DUP3 DUP5 SUB SLT ISZERO PUSH2 0x2C7 JUMPI PUSH1 0x0 DUP1 REVERT JUMPDEST DUP2 MLOAD PUSH2 0x2D2 DUP2 PUSH2 0x29D JUMP JUMPDEST SWAP4 SWAP3 POP POP POP JUMP JUMPDEST PUSH1 0x0 PUSH1 0x20 DUP3 DUP5 SUB SLT ISZERO PUSH2 0x2EB JUMPI PUSH1 0x0 DUP1 REVERT JUMPDEST DUP2 CALLDATALOAD PUSH2 0x2D2 DUP2 PUSH2 0x29D JUMP JUMPDEST DUP2 DUP2 SUB DUP2 DUP2 GT ISZERO PUSH2 0x317 JUMPI PUSH4 0x4E487B71 PUSH1 0xE0 SHL PUSH1 0x0 MSTORE PUSH1 0x11 PUSH1 0x4 MSTORE PUSH1 0x24 PUSH1 0x0 REVERT JUMPDEST SWAP3 SWAP2 POP POP JUMP INVALID 0xC5 CALL PUSH16 0xFCC639FA48A6947836D9850F5047985 0x23 0xBF DUP13 SWAP11 GASPRICE DUP8 0xD5 DUP8 PUSH13 0xF622BCF7A26469706673582212 KECCAK256 PUSH28 0x89D93E11DA0FF301AB67825D3D21D84AC88B3256357BD7CD23E1925B 0xDD CODESIZE CALLVALUE PUSH5 0x736F6C6343 STOP ADDMOD GT STOP CALLER 0xC5 CALL PUSH16 0xFCC639FA48A6947836D9850F5047985 0x23 0xBF DUP13 SWAP11 GASPRICE DUP8 0xD5 DUP8 PUSH13 0xF622BCF7608060405234801561 STOP LT JUMPI PUSH1 0x0 DUP1 REVERT JUMPDEST POP PUSH1 0x40 MLOAD PUSH2 0x62B CODESIZE SUB DUP1 PUSH2 0x62B DUP4 CODECOPY DUP2 ADD PUSH1 0x40 DUP2 SWAP1 MSTORE PUSH2 0x2F SWAP2 PUSH2 0x22A JUMP JUMPDEST PUSH1 0x1 PUSH1 0x1 PUSH1 0xA0 SHL SUB DUP2 AND PUSH2 0x8A JUMPI PUSH1 0x40 MLOAD PUSH3 0x461BCD PUSH1 0xE5 SHL DUP2 MSTORE PUSH1 0x20 PUSH1 0x4 DUP3 ADD MSTORE PUSH1 0x1F PUSH1 0x24 DUP3 ADD MSTORE PUSH32 0x696E76616C696420617267756D656E74202D207A65726F206164647265737300 PUSH1 0x44 DUP3 ADD MSTORE PUSH1 0x64 ADD JUMPDEST PUSH1 0x40 MLOAD DUP1 SWAP2 SUB SWAP1 REVERT JUMPDEST PUSH2 0xA0 DUP2 PUSH1 0x0 DUP1 MLOAD PUSH1 0x20 PUSH2 0x60B DUP4 CODECOPY DUP2 MLOAD SWAP2 MSTORE SSTORE JUMP JUMPDEST PUSH1 0x40 MLOAD PUSH1 0x1 PUSH1 0x1 PUSH1 0xA0 SHL SUB DUP3 AND SWAP1 PUSH32 0x3B1074392ED8E8424715D0DDA2197EEDE67080B377FC8370E26F3E882207F6B8 SWAP1 PUSH1 0x0 SWAP1 LOG2 PUSH1 0x0 PUSH2 0xEC PUSH1 0x0 DUP1 MLOAD PUSH1 0x20 PUSH2 0x60B DUP4 CODECOPY DUP2 MLOAD SWAP2 MSTORE SLOAD SWAP1 JUMP JUMPDEST PUSH1 0x1 PUSH1 0x1 PUSH1 0xA0 SHL SUB AND PUSH4 0x61F89825 PUSH1 0x40 MLOAD DUP2 PUSH4 0xFFFFFFFF AND PUSH1 0xE0 SHL DUP2 MSTORE PUSH1 0x4 ADD PUSH1 0x20 PUSH1 0x40 MLOAD DUP1 DUP4 SUB DUP2 DUP7 GAS STATICCALL ISZERO DUP1 ISZERO PUSH2 0x129 JUMPI RETURNDATASIZE PUSH1 0x0 DUP1 RETURNDATACOPY RETURNDATASIZE PUSH1 0x0 REVERT JUMPDEST POP POP POP POP PUSH1 0x40 MLOAD RETURNDATASIZE PUSH1 0x1F NOT PUSH1 0x1F DUP3 ADD AND DUP3 ADD DUP1 PUSH1 0x40 MSTORE POP DUP2 ADD SWAP1 PUSH2 0x14D SWAP2 SWAP1 PUSH2 0x22A JUMP JUMPDEST PUSH1 0x40 DUP1 MLOAD PUSH1 0x4 DUP2 MSTORE PUSH1 0x24 DUP2 ADD DUP3 MSTORE PUSH1 0x20 DUP2 ADD DUP1 MLOAD PUSH1 0x1 PUSH1 0x1 PUSH1 0xE0 SHL SUB AND PUSH4 0x70E39C95 PUSH1 0xE1 SHL OR SWAP1 MSTORE SWAP1 MLOAD SWAP2 SWAP3 POP PUSH1 0x0 SWAP2 PUSH1 0x1 PUSH1 0x1 PUSH1 0xA0 SHL SUB DUP5 AND SWAP2 PUSH2 0x191 SWAP2 PUSH2 0x25A JUMP JUMPDEST PUSH1 0x0 PUSH1 0x40 MLOAD DUP1 DUP4 SUB DUP2 DUP6 GAS DELEGATECALL SWAP2 POP POP RETURNDATASIZE DUP1 PUSH1 0x0 DUP2 EQ PUSH2 0x1CC JUMPI PUSH1 0x40 MLOAD SWAP2 POP PUSH1 0x1F NOT PUSH1 0x3F RETURNDATASIZE ADD AND DUP3 ADD PUSH1 0x40 MSTORE RETURNDATASIZE DUP3 MSTORE RETURNDATASIZE PUSH1 0x0 PUSH1 0x20 DUP5 ADD RETURNDATACOPY PUSH2 0x1D1 JUMP JUMPDEST PUSH1 0x60 SWAP2 POP JUMPDEST POP POP SWAP1 POP DUP1 PUSH2 0x222 JUMPI PUSH1 0x40 MLOAD PUSH3 0x461BCD PUSH1 0xE5 SHL DUP2 MSTORE PUSH1 0x20 PUSH1 0x4 DUP3 ADD MSTORE PUSH1 0x16 PUSH1 0x24 DUP3 ADD MSTORE PUSH32 0x496E697469616C697A6174696F6E206661696C65642E00000000000000000000 PUSH1 0x44 DUP3 ADD MSTORE PUSH1 0x64 ADD PUSH2 0x81 JUMP JUMPDEST POP POP POP PUSH2 0x289 JUMP JUMPDEST PUSH1 0x0 PUSH1 0x20 DUP3 DUP5 SUB SLT ISZERO PUSH2 0x23C JUMPI PUSH1 0x0 DUP1 REVERT JUMPDEST DUP2 MLOAD PUSH1 0x1 PUSH1 0x1 PUSH1 0xA0 SHL SUB DUP2 AND DUP2 EQ PUSH2 0x253 JUMPI PUSH1 0x0 DUP1 REVERT JUMPDEST SWAP4 SWAP3 POP POP POP JUMP JUMPDEST PUSH1 0x0 DUP3 MLOAD PUSH1 0x0 JUMPDEST DUP2 DUP2 LT ISZERO PUSH2 0x27B JUMPI PUSH1 0x20 DUP2 DUP7 ADD DUP2 ADD MLOAD DUP6 DUP4 ADD MSTORE ADD PUSH2 0x261 JUMP JUMPDEST POP PUSH1 0x0 SWAP3 ADD SWAP2 DUP3 MSTORE POP SWAP2 SWAP1 POP JUMP JUMPDEST PUSH2 0x373 DUP1 PUSH2 0x298 PUSH1 0x0 CODECOPY PUSH1 0x0 RETURN INVALID PUSH1 0x80 PUSH1 0x40 MSTORE CALLVALUE DUP1 ISZERO PUSH2 0x10 JUMPI PUSH1 0x0 DUP1 REVERT JUMPDEST POP PUSH1 0x4 CALLDATASIZE LT PUSH2 0x41 JUMPI PUSH1 0x0 CALLDATALOAD PUSH1 0xE0 SHR DUP1 PUSH4 0x24173669 EQ PUSH2 0xE7 JUMPI DUP1 PUSH4 0x2D5F1187 EQ PUSH2 0x102 JUMPI DUP1 PUSH4 0x92DD9D65 EQ PUSH2 0x12A JUMPI JUMPDEST PUSH1 0x0 PUSH2 0x59 PUSH1 0x0 DUP1 MLOAD PUSH1 0x20 PUSH2 0x31E DUP4 CODECOPY DUP2 MLOAD SWAP2 MSTORE SLOAD SWAP1 JUMP JUMPDEST PUSH1 0x1 PUSH1 0x1 PUSH1 0xA0 SHL SUB AND PUSH4 0x61F89825 PUSH1 0x40 MLOAD DUP2 PUSH4 0xFFFFFFFF AND PUSH1 0xE0 SHL DUP2 MSTORE PUSH1 0x4 ADD PUSH1 0x20 PUSH1 0x40 MLOAD DUP1 DUP4 SUB DUP2 DUP7 GAS STATICCALL ISZERO DUP1 ISZERO PUSH2 0x96 JUMPI RETURNDATASIZE PUSH1 0x0 DUP1 RETURNDATACOPY RETURNDATASIZE PUSH1 0x0 REVERT JUMPDEST POP POP POP POP PUSH1 0x40 MLOAD RETURNDATASIZE PUSH1 0x1F NOT PUSH1 0x1F DUP3 ADD AND DUP3 ADD DUP1 PUSH1 0x40 MSTORE POP DUP2 ADD SWAP1 PUSH2 0xBA SWAP2 SWAP1 PUSH2 0x2B5 JUMP JUMPDEST SWAP1 POP CALLDATASIZE PUSH1 0x0 DUP1 CALLDATACOPY PUSH1 0x0 DUP1 CALLDATASIZE PUSH1 0x0 DUP5 PUSH2 0x2710 GAS SUB DELEGATECALL RETURNDATASIZE DUP1 PUSH1 0x0 DUP1 RETURNDATACOPY DUP2 DUP1 ISZERO PUSH2 0xE0 JUMPI DUP2 PUSH1 0x0 RETURN JUMPDEST DUP2 PUSH1 0x0 REVERT JUMPDEST STOP JUMPDEST PUSH2 0xEF PUSH2 0x13D JUMP JUMPDEST PUSH1 0x40 MLOAD SWAP1 DUP2 MSTORE PUSH1 0x20 ADD JUMPDEST PUSH1 0x40 MLOAD DUP1 SWAP2 SUB SWAP1 RETURN JUMPDEST PUSH1 0x0 DUP1 MLOAD PUSH1 0x20 PUSH2 0x31E DUP4 CODECOPY DUP2 MLOAD SWAP2 MSTORE SLOAD PUSH1 0x40 MLOAD PUSH1 0x1 PUSH1 0x1 PUSH1 0xA0 SHL SUB SWAP1 SWAP2 AND DUP2 MSTORE PUSH1 0x20 ADD PUSH2 0xF9 JUMP JUMPDEST PUSH2 0xE5 PUSH2 0x138 CALLDATASIZE PUSH1 0x4 PUSH2 0x2D9 JUMP JUMPDEST PUSH2 0x16F JUMP JUMPDEST PUSH1 0x0 PUSH2 0x16A PUSH1 0x1 PUSH32 0x4CD9B827CA535CEB0880425D70EFF88561ECDF04DC32FCF7FF3B15C587F8A871 PUSH2 0x2F6 JUMP JUMPDEST SWAP2 SWAP1 POP JUMP JUMPDEST PUSH1 0x0 DUP1 MLOAD PUSH1 0x20 PUSH2 0x31E DUP4 CODECOPY DUP2 MLOAD SWAP2 MSTORE SLOAD PUSH1 0x1 PUSH1 0x1 PUSH1 0xA0 SHL SUB AND CALLER PUSH1 0x1 PUSH1 0x1 PUSH1 0xA0 SHL SUB AND EQ PUSH2 0x1FA JUMPI PUSH1 0x40 MLOAD PUSH3 0x461BCD PUSH1 0xE5 SHL DUP2 MSTORE PUSH1 0x20 PUSH1 0x4 DUP3 ADD MSTORE PUSH1 0x2D PUSH1 0x24 DUP3 ADD MSTORE PUSH32 0x6F6E6C792063757272656E7420696D706C656D656E746174696F6E417574686F PUSH1 0x44 DUP3 ADD MSTORE PUSH13 0x1C9A5D1E4818D85B8818D85B1B PUSH1 0x9A SHL PUSH1 0x64 DUP3 ADD MSTORE PUSH1 0x84 ADD JUMPDEST PUSH1 0x40 MLOAD DUP1 SWAP2 SUB SWAP1 REVERT JUMPDEST PUSH1 0x1 PUSH1 0x1 PUSH1 0xA0 SHL SUB DUP2 AND PUSH2 0x250 JUMPI PUSH1 0x40 MLOAD PUSH3 0x461BCD PUSH1 0xE5 SHL DUP2 MSTORE PUSH1 0x20 PUSH1 0x4 DUP3 ADD MSTORE PUSH1 0x1F PUSH1 0x24 DUP3 ADD MSTORE PUSH32 0x696E76616C696420617267756D656E74202D207A65726F206164647265737300 PUSH1 0x44 DUP3 ADD MSTORE PUSH1 0x64 ADD PUSH2 0x1F1 JUMP JUMPDEST PUSH2 0x266 DUP2 PUSH1 0x0 DUP1 MLOAD PUSH1 0x20 PUSH2 0x31E DUP4 CODECOPY DUP2 MLOAD SWAP2 MSTORE SSTORE JUMP JUMPDEST PUSH1 0x40 MLOAD PUSH1 0x1 PUSH1 0x1 PUSH1 0xA0 SHL SUB DUP3 AND SWAP1 PUSH32 0x3B1074392ED8E8424715D0DDA2197EEDE67080B377FC8370E26F3E882207F6B8 SWAP1 PUSH1 0x0 SWAP1 LOG2 POP JUMP JUMPDEST PUSH1 0x1 PUSH1 0x1 PUSH1 0xA0 SHL SUB DUP2 AND DUP2 EQ PUSH2 0x2B2 JUMPI PUSH1 0x0 DUP1 REVERT JUMPDEST POP JUMP JUMPDEST PUSH1 0x0 PUSH1 0x20 DUP3 DUP5 SUB SLT ISZERO PUSH2 0x2C7 JUMPI PUSH1 0x0 DUP1 REVERT JUMPDEST DUP2 MLOAD PUSH2 0x2D2 DUP2 PUSH2 0x29D JUMP JUMPDEST SWAP4 SWAP3 POP POP POP JUMP JUMPDEST PUSH1 0x0 PUSH1 0x20 DUP3 DUP5 SUB SLT ISZERO PUSH2 0x2EB JUMPI PUSH1 0x0 DUP1 REVERT JUMPDEST DUP2 CALLDATALOAD PUSH2 0x2D2 DUP2 PUSH2 0x29D JUMP JUMPDEST DUP2 DUP2 SUB DUP2 DUP2 GT ISZERO PUSH2 0x317 JUMPI PUSH4 0x4E487B71 PUSH1 0xE0 SHL PUSH1 0x0 MSTORE PUSH1 0x11 PUSH1 0x4 MSTORE PUSH1 0x24 PUSH1 0x0 REVERT JUMPDEST SWAP3 SWAP2 POP POP JUMP INVALID 0xC5 CALL PUSH16 0xFCC639FA48A6947836D9850F5047985 0x23 0xBF DUP13 SWAP11 GASPRICE DUP8 0xD5 DUP8 PUSH13 0xF622BCF7A26469706673582212 KECCAK256 SELFBALANCE 0xD3 0xEF PUSH4 0x8BDA2C39 BASEFEE COINBASE PUSH5 0xD30DD1526F PUSH20 0xB8816E8E7A715014C1BE66250C1B7964736F6C63 NUMBER STOP ADDMOD GT STOP CALLER 0xC5 CALL PUSH16 0xFCC639FA48A6947836D9850F5047985 0x23 0xBF DUP13 SWAP11 GASPRICE DUP8 0xD5 DUP8 PUSH13 0xF622BCF7608060405234801561 STOP LT JUMPI PUSH1 0x0 DUP1 REVERT JUMPDEST POP PUSH1 0x40 MLOAD PUSH2 0x62B CODESIZE SUB DUP1 PUSH2 0x62B DUP4 CODECOPY DUP2 ADD PUSH1 0x40 DUP2 SWAP1 MSTORE PUSH2 0x2F SWAP2 PUSH2 0x22A JUMP JUMPDEST PUSH1 0x1 PUSH1 0x1 PUSH1 0xA0 SHL SUB DUP2 AND PUSH2 0x8A JUMPI PUSH1 0x40 MLOAD PUSH3 0x461BCD PUSH1 0xE5 SHL DUP2 MSTORE PUSH1 0x20 PUSH1 0x4 DUP3 ADD MSTORE PUSH1 0x1F PUSH1 0x24 DUP3 ADD MSTORE PUSH32 0x696E76616C696420617267756D656E74202D207A65726F206164647265737300 PUSH1 0x44 DUP3 ADD MSTORE PUSH1 0x64 ADD JUMPDEST PUSH1 0x40 MLOAD DUP1 SWAP2 SUB SWAP1 REVERT JUMPDEST PUSH2 0xA0 DUP2 PUSH1 0x0 DUP1 MLOAD PUSH1 0x20 PUSH2 0x60B DUP4 CODECOPY DUP2 MLOAD SWAP2 MSTORE SSTORE JUMP JUMPDEST PUSH1 0x40 MLOAD PUSH1 0x1 PUSH1 0x1 PUSH1 0xA0 SHL SUB DUP3 AND SWAP1 PUSH32 0x3B1074392ED8E8424715D0DDA2197EEDE67080B377FC8370E26F3E882207F6B8 SWAP1 PUSH1 0x0 SWAP1 LOG2 PUSH1 0x0 PUSH2 0xEC PUSH1 0x0 DUP1 MLOAD PUSH1 0x20 PUSH2 0x60B DUP4 CODECOPY DUP2 MLOAD SWAP2 MSTORE SLOAD SWAP1 JUMP JUMPDEST PUSH1 0x1 PUSH1 0x1 PUSH1 0xA0 SHL SUB AND PUSH4 0x9E3E7BB9 PUSH1 0x40 MLOAD DUP2 PUSH4 0xFFFFFFFF AND PUSH1 0xE0 SHL DUP2 MSTORE PUSH1 0x4 ADD PUSH1 0x20 PUSH1 0x40 MLOAD DUP1 DUP4 SUB DUP2 DUP7 GAS STATICCALL ISZERO DUP1 ISZERO PUSH2 0x129 JUMPI RETURNDATASIZE PUSH1 0x0 DUP1 RETURNDATACOPY RETURNDATASIZE PUSH1 0x0 REVERT JUMPDEST POP POP POP POP PUSH1 0x40 MLOAD RETURNDATASIZE PUSH1 0x1F NOT PUSH1 0x1F DUP3 ADD AND DUP3 ADD DUP1 PUSH1 0x40 MSTORE POP DUP2 ADD SWAP1 PUSH2 0x14D SWAP2 SWAP1 PUSH2 0x22A JUMP JUMPDEST PUSH1 0x40 DUP1 MLOAD PUSH1 0x4 DUP2 MSTORE PUSH1 0x24 DUP2 ADD DUP3 MSTORE PUSH1 0x20 DUP2 ADD DUP1 MLOAD PUSH1 0x1 PUSH1 0x1 PUSH1 0xE0 SHL SUB AND PUSH4 0x70E39C95 PUSH1 0xE1 SHL OR SWAP1 MSTORE SWAP1 MLOAD SWAP2 SWAP3 POP PUSH1 0x0 SWAP2 PUSH1 0x1 PUSH1 0x1 PUSH1 0xA0 SHL SUB DUP5 AND SWAP2 PUSH2 0x191 SWAP2 PUSH2 0x25A JUMP JUMPDEST PUSH1 0x0 PUSH1 0x40 MLOAD DUP1 DUP4 SUB DUP2 DUP6 GAS DELEGATECALL SWAP2 POP POP RETURNDATASIZE DUP1 PUSH1 0x0 DUP2 EQ PUSH2 0x1CC JUMPI PUSH1 0x40 MLOAD SWAP2 POP PUSH1 0x1F NOT PUSH1 0x3F RETURNDATASIZE ADD AND DUP3 ADD PUSH1 0x40 MSTORE RETURNDATASIZE DUP3 MSTORE RETURNDATASIZE PUSH1 0x0 PUSH1 0x20 DUP5 ADD RETURNDATACOPY PUSH2 0x1D1 JUMP JUMPDEST PUSH1 0x60 SWAP2 POP JUMPDEST POP POP SWAP1 POP DUP1 PUSH2 0x222 JUMPI PUSH1 0x40 MLOAD PUSH3 0x461BCD PUSH1 0xE5 SHL DUP2 MSTORE PUSH1 0x20 PUSH1 0x4 DUP3 ADD MSTORE PUSH1 0x16 PUSH1 0x24 DUP3 ADD MSTORE PUSH32 0x496E697469616C697A6174696F6E206661696C65642E00000000000000000000 PUSH1 0x44 DUP3 ADD MSTORE PUSH1 0x64 ADD PUSH2 0x81 JUMP JUMPDEST POP POP POP PUSH2 0x289 JUMP JUMPDEST PUSH1 0x0 PUSH1 0x20 DUP3 DUP5 SUB SLT ISZERO PUSH2 0x23C JUMPI PUSH1 0x0 DUP1 REVERT JUMPDEST DUP2 MLOAD PUSH1 0x1 PUSH1 0x1 PUSH1 0xA0 SHL SUB DUP2 AND DUP2 EQ PUSH2 0x253 JUMPI PUSH1 0x0 DUP1 REVERT JUMPDEST SWAP4 SWAP3 POP POP POP JUMP JUMPDEST PUSH1 0x0 DUP3 MLOAD PUSH1 0x0 JUMPDEST DUP2 DUP2 LT ISZERO PUSH2 0x27B JUMPI PUSH1 0x20 DUP2 DUP7 ADD DUP2 ADD MLOAD DUP6 DUP4 ADD MSTORE ADD PUSH2 0x261 JUMP JUMPDEST POP PUSH1 0x0 SWAP3 ADD SWAP2 DUP3 MSTORE POP SWAP2 SWAP1 POP JUMP JUMPDEST PUSH2 0x373 DUP1 PUSH2 0x298 PUSH1 0x0 CODECOPY PUSH1 0x0 RETURN INVALID PUSH1 0x80 PUSH1 0x40 MSTORE CALLVALUE DUP1 ISZERO PUSH2 0x10 JUMPI PUSH1 0x0 DUP1 REVERT JUMPDEST POP PUSH1 0x4 CALLDATASIZE LT PUSH2 0x41 JUMPI PUSH1 0x0 CALLDATALOAD PUSH1 0xE0 SHR DUP1 PUSH4 0x24173669 EQ PUSH2 0xE7 JUMPI DUP1 PUSH4 0x2D5F1187 EQ PUSH2 0x102 JUMPI DUP1 PUSH4 0x92DD9D65 EQ PUSH2 0x12A JUMPI JUMPDEST PUSH1 0x0 PUSH2 0x59 PUSH1 0x0 DUP1 MLOAD PUSH1 0x20 PUSH2 0x31E DUP4 CODECOPY DUP2 MLOAD SWAP2 MSTORE SLOAD SWAP1 JUMP JUMPDEST PUSH1 0x1 PUSH1 0x1 PUSH1 0xA0 SHL SUB AND PUSH4 0x9E3E7BB9 PUSH1 0x40 MLOAD DUP2 PUSH4 0xFFFFFFFF AND PUSH1 0xE0 SHL DUP2 MSTORE PUSH1 0x4 ADD PUSH1 0x20 PUSH1 0x40 MLOAD DUP1 DUP4 SUB DUP2 DUP7 GAS STATICCALL ISZERO DUP1 ISZERO PUSH2 0x96 JUMPI RETURNDATASIZE PUSH1 0x0 DUP1 RETURNDATACOPY RETURNDATASIZE PUSH1 0x0 REVERT JUMPDEST POP POP POP POP PUSH1 0x40 MLOAD RETURNDATASIZE PUSH1 0x1F NOT PUSH1 0x1F DUP3 ADD AND DUP3 ADD DUP1 PUSH1 0x40 MSTORE POP DUP2 ADD SWAP1 PUSH2 0xBA SWAP2 SWAP1 PUSH2 0x2B5 JUMP JUMPDEST SWAP1 POP CALLDATASIZE PUSH1 0x0 DUP1 CALLDATACOPY PUSH1 0x0 DUP1 CALLDATASIZE PUSH1 0x0 DUP5 PUSH2 0x2710 GAS SUB DELEGATECALL RETURNDATASIZE DUP1 PUSH1 0x0 DUP1 RETURNDATACOPY DUP2 DUP1 ISZERO PUSH2 0xE0 JUMPI DUP2 PUSH1 0x0 RETURN JUMPDEST DUP2 PUSH1 0x0 REVERT JUMPDEST STOP JUMPDEST PUSH2 0xEF PUSH2 0x13D JUMP JUMPDEST PUSH1 0x40 MLOAD SWAP1 DUP2 MSTORE PUSH1 0x20 ADD JUMPDEST PUSH1 0x40 MLOAD DUP1 SWAP2 SUB SWAP1 RETURN JUMPDEST PUSH1 0x0 DUP1 MLOAD PUSH1 0x20 PUSH2 0x31E DUP4 CODECOPY DUP2 MLOAD SWAP2 MSTORE SLOAD PUSH1 0x40 MLOAD PUSH1 0x1 PUSH1 0x1 PUSH1 0xA0 SHL SUB SWAP1 SWAP2 AND DUP2 MSTORE PUSH1 0x20 ADD PUSH2 0xF9 JUMP JUMPDEST PUSH2 0xE5 PUSH2 0x138 CALLDATASIZE PUSH1 0x4 PUSH2 0x2D9 JUMP JUMPDEST PUSH2 0x16F JUMP JUMPDEST PUSH1 0x0 PUSH2 0x16A PUSH1 0x1 PUSH32 0x4CD9B827CA535CEB0880425D70EFF88561ECDF04DC32FCF7FF3B15C587F8A871 PUSH2 0x2F6 JUMP JUMPDEST SWAP2 SWAP1 POP JUMP JUMPDEST PUSH1 0x0 DUP1 MLOAD PUSH1 0x20 PUSH2 0x31E DUP4 CODECOPY DUP2 MLOAD SWAP2 MSTORE SLOAD PUSH1 0x1 PUSH1 0x1 PUSH1 0xA0 SHL SUB AND CALLER PUSH1 0x1 PUSH1 0x1 PUSH1 0xA0 SHL SUB AND EQ PUSH2 0x1FA JUMPI PUSH1 0x40 MLOAD PUSH3 0x461BCD PUSH1 0xE5 SHL DUP2 MSTORE PUSH1 0x20 PUSH1 0x4 DUP3 ADD MSTORE PUSH1 0x2D PUSH1 0x24 DUP3 ADD MSTORE PUSH32 0x6F6E6C792063757272656E7420696D706C656D656E746174696F6E417574686F PUSH1 0x44 DUP3 ADD MSTORE PUSH13 0x1C9A5D1E4818D85B8818D85B1B PUSH1 0x9A SHL PUSH1 0x64 DUP3 ADD MSTORE PUSH1 0x84 ADD JUMPDEST PUSH1 0x40 MLOAD DUP1 SWAP2 SUB SWAP1 REVERT JUMPDEST PUSH1 0x1 PUSH1 0x1 PUSH1 0xA0 SHL SUB DUP2 AND PUSH2 0x250 JUMPI PUSH1 0x40 MLOAD PUSH3 0x461BCD PUSH1 0xE5 SHL DUP2 MSTORE PUSH1 0x20 PUSH1 0x4 DUP3 ADD MSTORE PUSH1 0x1F PUSH1 0x24 DUP3 ADD MSTORE PUSH32 0x696E76616C696420617267756D656E74202D207A65726F206164647265737300 PUSH1 0x44 DUP3 ADD MSTORE PUSH1 0x64 ADD PUSH2 0x1F1 JUMP JUMPDEST PUSH2 0x266 DUP2 PUSH1 0x0 DUP1 MLOAD PUSH1 0x20 PUSH2 0x31E DUP4 CODECOPY DUP2 MLOAD SWAP2 MSTORE SSTORE JUMP JUMPDEST PUSH1 0x40 MLOAD PUSH1 0x1 PUSH1 0x1 PUSH1 0xA0 SHL SUB DUP3 AND SWAP1 PUSH32 0x3B1074392ED8E8424715D0DDA2197EEDE67080B377FC8370E26F3E882207F6B8 SWAP1 PUSH1 0x0 SWAP1 LOG2 POP JUMP JUMPDEST PUSH1 0x1 PUSH1 0x1 PUSH1 0xA0 SHL SUB DUP2 AND DUP2 EQ PUSH2 0x2B2 JUMPI PUSH1 0x0 DUP1 REVERT JUMPDEST POP JUMP JUMPDEST PUSH1 0x0 PUSH1 0x20 DUP3 DUP5 SUB SLT ISZERO PUSH2 0x2C7 JUMPI PUSH1 0x0 DUP1 REVERT JUMPDEST DUP2 MLOAD PUSH2 0x2D2 DUP2 PUSH2 0x29D JUMP JUMPDEST SWAP4 SWAP3 POP POP POP JUMP JUMPDEST PUSH1 0x0 PUSH1 0x20 DUP3 DUP5 SUB SLT ISZERO PUSH2 0x2EB JUMPI PUSH1 0x0 DUP1 REVERT JUMPDEST DUP2 CALLDATALOAD PUSH2 0x2D2 DUP2 PUSH2 0x29D JUMP JUMPDEST DUP2 DUP2 SUB DUP2 DUP2 GT ISZERO PUSH2 0x317 JUMPI PUSH4 0x4E487B71 PUSH1 0xE0 SHL PUSH1 0x0 MSTORE PUSH1 0x11 PUSH1 0x4 MSTORE PUSH1 0x24 PUSH1 0x0 REVERT JUMPDEST SWAP3 SWAP2 POP POP JUMP INVALID 0xC5 CALL PUSH16 0xFCC639FA48A6947836D9850F5047985 0x23 0xBF DUP13 SWAP11 GASPRICE DUP8 0xD5 DUP8 PUSH13 0xF622BCF7A26469706673582212 KECCAK256 LOG0 0xE2 0xA6 EQ 0xC3 0xC6 AND KECCAK256 ISZERO 0xDC PUSH5 0xD559C086CE 0xE9 0xCD 0xCF SMOD 0xC9 0xB3 0x26 PUSH7 0xDD870002E8E369 0xE5 PUSH5 0x736F6C6343 STOP ADDMOD GT STOP CALLER 0xC5 CALL PUSH16 0xFCC639FA48A6947836D9850F5047985 0x23 0xBF DUP13 SWAP11 GASPRICE DUP8 0xD5 DUP8 PUSH13 0xF622BCF7608060405234801561 STOP LT JUMPI PUSH1 0x0 DUP1 REVERT JUMPDEST POP PUSH1 0x40 MLOAD PUSH2 0x6EE CODESIZE SUB DUP1 PUSH2 0x6EE DUP4 CODECOPY DUP2 ADD PUSH1 0x40 DUP2 SWAP1 MSTORE PUSH2 0x2F SWAP2 PUSH2 0x2A7 JUMP JUMPDEST PUSH1 0x1 PUSH1 0x1 PUSH1 0xA0 SHL SUB DUP5 AND ISZERO DUP1 ISZERO SWAP1 PUSH2 0x4F JUMPI POP PUSH1 0x1 PUSH1 0x1 PUSH1 0xA0 SHL SUB DUP4 AND ISZERO ISZERO JUMPDEST DUP1 ISZERO PUSH2 0x63 JUMPI POP PUSH1 0x1 PUSH1 0x1 PUSH1 0xA0 SHL SUB DUP3 AND ISZERO ISZERO JUMPDEST DUP1 ISZERO PUSH2 0x77 JUMPI POP PUSH1 0x1 PUSH1 0x1 PUSH1 0xA0 SHL SUB DUP2 AND ISZERO ISZERO JUMPDEST PUSH2 0xC8 JUMPI PUSH1 0x40 MLOAD PUSH3 0x461BCD PUSH1 0xE5 SHL DUP2 MSTORE PUSH1 0x20 PUSH1 0x4 DUP3 ADD MSTORE PUSH1 0x1F PUSH1 0x24 DUP3 ADD MSTORE PUSH32 0x696E76616C696420617267756D656E74202D207A65726F206164647265737300 PUSH1 0x44 DUP3 ADD MSTORE PUSH1 0x64 ADD JUMPDEST PUSH1 0x40 MLOAD DUP1 SWAP2 SUB SWAP1 REVERT JUMPDEST PUSH2 0xDE DUP5 PUSH1 0x0 DUP1 MLOAD PUSH1 0x20 PUSH2 0x6CE DUP4 CODECOPY DUP2 MLOAD SWAP2 MSTORE SSTORE JUMP JUMPDEST PUSH1 0x40 MLOAD PUSH1 0x1 PUSH1 0x1 PUSH1 0xA0 SHL SUB DUP6 AND SWAP1 PUSH32 0x3B1074392ED8E8424715D0DDA2197EEDE67080B377FC8370E26F3E882207F6B8 SWAP1 PUSH1 0x0 SWAP1 LOG2 PUSH1 0x0 PUSH2 0x12A PUSH1 0x0 DUP1 MLOAD PUSH1 0x20 PUSH2 0x6CE DUP4 CODECOPY DUP2 MLOAD SWAP2 MSTORE SLOAD SWAP1 JUMP JUMPDEST PUSH1 0x1 PUSH1 0x1 PUSH1 0xA0 SHL SUB AND PUSH4 0x1EE9CE8B PUSH1 0x40 MLOAD DUP2 PUSH4 0xFFFFFFFF AND PUSH1 0xE0 SHL DUP2 MSTORE PUSH1 0x4 ADD PUSH1 0x20 PUSH1 0x40 MLOAD DUP1 DUP4 SUB DUP2 DUP7 GAS STATICCALL ISZERO DUP1 ISZERO PUSH2 0x167 JUMPI RETURNDATASIZE PUSH1 0x0 DUP1 RETURNDATACOPY RETURNDATASIZE PUSH1 0x0 REVERT JUMPDEST POP POP POP POP PUSH1 0x40 MLOAD RETURNDATASIZE PUSH1 0x1F NOT PUSH1 0x1F DUP3 ADD AND DUP3 ADD DUP1 PUSH1 0x40 MSTORE POP DUP2 ADD SWAP1 PUSH2 0x18B SWAP2 SWAP1 PUSH2 0x2FB JUMP JUMPDEST PUSH1 0x40 MLOAD PUSH1 0x1 PUSH1 0x1 PUSH1 0xA0 SHL SUB DUP7 DUP2 AND PUSH1 0x24 DUP4 ADD MSTORE DUP6 DUP2 AND PUSH1 0x44 DUP4 ADD MSTORE DUP5 DUP2 AND PUSH1 0x64 DUP4 ADD MSTORE SWAP2 SWAP3 POP PUSH1 0x0 SWAP2 DUP4 AND SWAP1 PUSH1 0x84 ADD PUSH1 0x40 DUP1 MLOAD PUSH1 0x1F NOT DUP2 DUP5 SUB ADD DUP2 MSTORE SWAP2 DUP2 MSTORE PUSH1 0x20 DUP3 ADD DUP1 MLOAD PUSH1 0x1 PUSH1 0x1 PUSH1 0xE0 SHL SUB AND PUSH4 0x184B9559 PUSH1 0xE0 SHL OR SWAP1 MSTORE MLOAD PUSH2 0x1EF SWAP2 SWAP1 PUSH2 0x31D JUMP JUMPDEST PUSH1 0x0 PUSH1 0x40 MLOAD DUP1 DUP4 SUB DUP2 DUP6 GAS DELEGATECALL SWAP2 POP POP RETURNDATASIZE DUP1 PUSH1 0x0 DUP2 EQ PUSH2 0x22A JUMPI PUSH1 0x40 MLOAD SWAP2 POP PUSH1 0x1F NOT PUSH1 0x3F RETURNDATASIZE ADD AND DUP3 ADD PUSH1 0x40 MSTORE RETURNDATASIZE DUP3 MSTORE RETURNDATASIZE PUSH1 0x0 PUSH1 0x20 DUP5 ADD RETURNDATACOPY PUSH2 0x22F JUMP JUMPDEST PUSH1 0x60 SWAP2 POP JUMPDEST POP POP SWAP1 POP DUP1 PUSH2 0x280 JUMPI PUSH1 0x40 MLOAD PUSH3 0x461BCD PUSH1 0xE5 SHL DUP2 MSTORE PUSH1 0x20 PUSH1 0x4 DUP3 ADD MSTORE PUSH1 0x16 PUSH1 0x24 DUP3 ADD MSTORE PUSH32 0x496E697469616C697A6174696F6E206661696C65642E00000000000000000000 PUSH1 0x44 DUP3 ADD MSTORE PUSH1 0x64 ADD PUSH2 0xBF JUMP JUMPDEST POP POP POP POP POP POP PUSH2 0x34C JUMP JUMPDEST DUP1 MLOAD PUSH1 0x1 PUSH1 0x1 PUSH1 0xA0 SHL SUB DUP2 AND DUP2 EQ PUSH2 0x2A2 JUMPI PUSH1 0x0 DUP1 REVERT JUMPDEST SWAP2 SWAP1 POP JUMP JUMPDEST PUSH1 0x0 DUP1 PUSH1 0x0 DUP1 PUSH1 0x80 DUP6 DUP8 SUB SLT ISZERO PUSH2 0x2BD JUMPI PUSH1 0x0 DUP1 REVERT JUMPDEST PUSH2 0x2C6 DUP6 PUSH2 0x28B JUMP JUMPDEST SWAP4 POP PUSH2 0x2D4 PUSH1 0x20 DUP7 ADD PUSH2 0x28B JUMP JUMPDEST SWAP3 POP PUSH2 0x2E2 PUSH1 0x40 DUP7 ADD PUSH2 0x28B JUMP JUMPDEST SWAP2 POP PUSH2 0x2F0 PUSH1 0x60 DUP7 ADD PUSH2 0x28B JUMP JUMPDEST SWAP1 POP SWAP3 SWAP6 SWAP2 SWAP5 POP SWAP3 POP JUMP JUMPDEST PUSH1 0x0 PUSH1 0x20 DUP3 DUP5 SUB SLT ISZERO PUSH2 0x30D JUMPI PUSH1 0x0 DUP1 REVERT JUMPDEST PUSH2 0x316 DUP3 PUSH2 0x28B JUMP JUMPDEST SWAP4 SWAP3 POP POP POP JUMP JUMPDEST PUSH1 0x0 DUP3 MLOAD PUSH1 0x0 JUMPDEST DUP2 DUP2 LT ISZERO PUSH2 0x33E JUMPI PUSH1 0x20 DUP2 DUP7 ADD DUP2 ADD MLOAD DUP6 DUP4 ADD MSTORE ADD PUSH2 0x324 JUMP JUMPDEST POP PUSH1 0x0 SWAP3 ADD SWAP2 DUP3 MSTORE POP SWAP2 SWAP1 POP JUMP JUMPDEST PUSH2 0x373 DUP1 PUSH2 0x35B PUSH1 0x0 CODECOPY PUSH1 0x0 RETURN INVALID PUSH1 0x80 PUSH1 0x40 MSTORE CALLVALUE DUP1 ISZERO PUSH2 0x10 JUMPI PUSH1 0x0 DUP1 REVERT JUMPDEST POP PUSH1 0x4 CALLDATASIZE LT PUSH2 0x41 JUMPI PUSH1 0x0 CALLDATALOAD PUSH1 0xE0 SHR DUP1 PUSH4 0x24173669 EQ PUSH2 0xE7 JUMPI DUP1 PUSH4 0x2D5F1187 EQ PUSH2 0x102 JUMPI DUP1 PUSH4 0x92DD9D65 EQ PUSH2 0x12A JUMPI JUMPDEST PUSH1 0x0 PUSH2 0x59 PUSH1 0x0 DUP1 MLOAD PUSH1 0x20 PUSH2 0x31E DUP4 CODECOPY DUP2 MLOAD SWAP2 MSTORE SLOAD SWAP1 JUMP JUMPDEST PUSH1 0x1 PUSH1 0x1 PUSH1 0xA0 SHL SUB AND PUSH4 0x1EE9CE8B PUSH1 0x40 MLOAD DUP2 PUSH4 0xFFFFFFFF AND PUSH1 0xE0 SHL DUP2 MSTORE PUSH1 0x4 ADD PUSH1 0x20 PUSH1 0x40 MLOAD DUP1 DUP4 SUB DUP2 DUP7 GAS STATICCALL ISZERO DUP1 ISZERO PUSH2 0x96 JUMPI RETURNDATASIZE PUSH1 0x0 DUP1 RETURNDATACOPY RETURNDATASIZE PUSH1 0x0 REVERT JUMPDEST POP POP POP POP PUSH1 0x40 MLOAD RETURNDATASIZE PUSH1 0x1F NOT PUSH1 0x1F DUP3 ADD AND DUP3 ADD DUP1 PUSH1 0x40 MSTORE POP DUP2 ADD SWAP1 PUSH2 0xBA SWAP2 SWAP1 PUSH2 0x2B5 JUMP JUMPDEST SWAP1 POP CALLDATASIZE PUSH1 0x0 DUP1 CALLDATACOPY PUSH1 0x0 DUP1 CALLDATASIZE PUSH1 0x0 DUP5 PUSH2 0x2710 GAS SUB DELEGATECALL RETURNDATASIZE DUP1 PUSH1 0x0 DUP1 RETURNDATACOPY DUP2 DUP1 ISZERO PUSH2 0xE0 JUMPI DUP2 PUSH1 0x0 RETURN JUMPDEST DUP2 PUSH1 0x0 REVERT JUMPDEST STOP JUMPDEST PUSH2 0xEF PUSH2 0x13D JUMP JUMPDEST PUSH1 0x40 MLOAD SWAP1 DUP2 MSTORE PUSH1 0x20 ADD JUMPDEST PUSH1 0x40 MLOAD DUP1 SWAP2 SUB SWAP1 RETURN JUMPDEST PUSH1 0x0 DUP1 MLOAD PUSH1 0x20 PUSH2 0x31E DUP4 CODECOPY DUP2 MLOAD SWAP2 MSTORE SLOAD PUSH1 0x40 MLOAD PUSH1 0x1 PUSH1 0x1 PUSH1 0xA0 SHL SUB SWAP1 SWAP2 AND DUP2 MSTORE PUSH1 0x20 ADD PUSH2 0xF9 JUMP JUMPDEST PUSH2 0xE5 PUSH2 0x138 CALLDATASIZE PUSH1 0x4 PUSH2 0x2D9 JUMP JUMPDEST PUSH2 0x16F JUMP JUMPDEST PUSH1 0x0 PUSH2 0x16A PUSH1 0x1 PUSH32 0x4CD9B827CA535CEB0880425D70EFF88561ECDF04DC32FCF7FF3B15C587F8A871 PUSH2 0x2F6 JUMP JUMPDEST SWAP2 SWAP1 POP JUMP JUMPDEST PUSH1 0x0 DUP1 MLOAD PUSH1 0x20 PUSH2 0x31E DUP4 CODECOPY DUP2 MLOAD SWAP2 MSTORE SLOAD PUSH1 0x1 PUSH1 0x1 PUSH1 0xA0 SHL SUB AND CALLER PUSH1 0x1 PUSH1 0x1 PUSH1 0xA0 SHL SUB AND EQ PUSH2 0x1FA JUMPI PUSH1 0x40 MLOAD PUSH3 0x461BCD PUSH1 0xE5 SHL DUP2 MSTORE PUSH1 0x20 PUSH1 0x4 DUP3 ADD MSTORE PUSH1 0x2D PUSH1 0x24 DUP3 ADD MSTORE PUSH32 0x6F6E6C792063757272656E7420696D706C656D656E746174696F6E417574686F PUSH1 0x44 DUP3 ADD MSTORE PUSH13 0x1C9A5D1E4818D85B8818D85B1B PUSH1 0x9A SHL PUSH1 0x64 DUP3 ADD MSTORE PUSH1 0x84 ADD JUMPDEST PUSH1 0x40 MLOAD DUP1 SWAP2 SUB SWAP1 REVERT JUMPDEST PUSH1 0x1 PUSH1 0x1 PUSH1 0xA0 SHL SUB DUP2 AND PUSH2 0x250 JUMPI PUSH1 0x40 MLOAD PUSH3 0x461BCD PUSH1 0xE5 SHL DUP2 MSTORE PUSH1 0x20 PUSH1 0x4 DUP3 ADD MSTORE PUSH1 0x1F PUSH1 0x24 DUP3 ADD MSTORE PUSH32 0x696E76616C696420617267756D656E74202D207A65726F206164647265737300 PUSH1 0x44 DUP3 ADD MSTORE PUSH1 0x64 ADD PUSH2 0x1F1 JUMP JUMPDEST PUSH2 0x266 DUP2 PUSH1 0x0 DUP1 MLOAD PUSH1 0x20 PUSH2 0x31E DUP4 CODECOPY DUP2 MLOAD SWAP2 MSTORE SSTORE JUMP JUMPDEST PUSH1 0x40 MLOAD PUSH1 0x1 PUSH1 0x1 PUSH1 0xA0 SHL SUB DUP3 AND SWAP1 PUSH32 0x3B1074392ED8E8424715D0DDA2197EEDE67080B377FC8370E26F3E882207F6B8 SWAP1 PUSH1 0x0 SWAP1 LOG2 POP JUMP JUMPDEST PUSH1 0x1 PUSH1 0x1 PUSH1 0xA0 SHL SUB DUP2 AND DUP2 EQ PUSH2 0x2B2 JUMPI PUSH1 0x0 DUP1 REVERT JUMPDEST POP JUMP JUMPDEST PUSH1 0x0 PUSH1 0x20 DUP3 DUP5 SUB SLT ISZERO PUSH2 0x2C7 JUMPI PUSH1 0x0 DUP1 REVERT JUMPDEST DUP2 MLOAD PUSH2 0x2D2 DUP2 PUSH2 0x29D JUMP JUMPDEST SWAP4 SWAP3 POP POP POP JUMP JUMPDEST PUSH1 0x0 PUSH1 0x20 DUP3 DUP5 SUB SLT ISZERO PUSH2 0x2EB JUMPI PUSH1 0x0 DUP1 REVERT JUMPDEST DUP2 CALLDATALOAD PUSH2 0x2D2 DUP2 PUSH2 0x29D JUMP JUMPDEST DUP2 DUP2 SUB DUP2 DUP2 GT ISZERO PUSH2 0x317 JUMPI PUSH4 0x4E487B71 PUSH1 0xE0 SHL PUSH1 0x0 MSTORE PUSH1 0x11 PUSH1 0x4 MSTORE PUSH1 0x24 PUSH1 0x0 REVERT JUMPDEST SWAP3 SWAP2 POP POP JUMP INVALID 0xC5 CALL PUSH16 0xFCC639FA48A6947836D9850F5047985 0x23 0xBF DUP13 SWAP11 GASPRICE DUP8 0xD5 DUP8 PUSH13 0xF622BCF7A26469706673582212 KECCAK256 PUSH7 0x8ED32C215075D8 0xCD 0xF9 ADD BALANCE ADDMOD 0xC ADD 0xBD 0x27 0xDD 0xF PUSH15 0xCB91923A6832228A2A519B9264736F PUSH13 0x63430008110033C5F16F0FCC63 SWAP16 LOG4 DUP11 PUSH10 0x47836D9850F504798523 0xBF DUP13 SWAP11 GASPRICE DUP8 0xD5 DUP8 PUSH13 0xF622BCF7608060405234801562 STOP STOP GT JUMPI PUSH1 0x0 DUP1 REVERT JUMPDEST POP PUSH1 0x40 MLOAD PUSH3 0xAD5 CODESIZE SUB DUP1 PUSH3 0xAD5 DUP4 CODECOPY DUP2 ADD PUSH1 0x40 DUP2 SWAP1 MSTORE PUSH3 0x34 SWAP2 PUSH3 0x4DD JUMP JUMPDEST PUSH1 0x1 PUSH1 0x1 PUSH1 0xA0 SHL SUB DUP8 AND ISZERO DUP1 ISZERO SWAP1 PUSH3 0x55 JUMPI POP PUSH1 0x1 PUSH1 0x1 PUSH1 0xA0 SHL SUB DUP7 AND ISZERO ISZERO JUMPDEST DUP1 ISZERO PUSH3 0x6A JUMPI POP PUSH1 0x1 PUSH1 0x1 PUSH1 0xA0 SHL SUB DUP6 AND ISZERO ISZERO JUMPDEST PUSH3 0xBC JUMPI PUSH1 0x40 MLOAD PUSH3 0x461BCD PUSH1 0xE5 SHL DUP2 MSTORE PUSH1 0x20 PUSH1 0x4 DUP3 ADD MSTORE PUSH1 0x1F PUSH1 0x24 DUP3 ADD MSTORE PUSH32 0x696E76616C696420617267756D656E74202D207A65726F206164647265737300 PUSH1 0x44 DUP3 ADD MSTORE PUSH1 0x64 ADD JUMPDEST PUSH1 0x40 MLOAD DUP1 SWAP2 SUB SWAP1 REVERT JUMPDEST PUSH1 0x40 MLOAD PUSH1 0x20 ADD PUSH3 0xD8 SWAP1 PUSH1 0x20 DUP1 DUP3 MSTORE PUSH1 0x0 SWAP1 DUP3 ADD MSTORE PUSH1 0x40 ADD SWAP1 JUMP JUMPDEST PUSH1 0x40 MLOAD PUSH1 0x20 DUP2 DUP4 SUB SUB DUP2 MSTORE SWAP1 PUSH1 0x40 MSTORE DUP1 MLOAD SWAP1 PUSH1 0x20 ADD KECCAK256 DUP5 PUSH1 0x40 MLOAD PUSH1 0x20 ADD PUSH3 0x101 SWAP2 SWAP1 PUSH3 0x5E5 JUMP JUMPDEST PUSH1 0x40 MLOAD PUSH1 0x20 DUP2 DUP4 SUB SUB DUP2 MSTORE SWAP1 PUSH1 0x40 MSTORE DUP1 MLOAD SWAP1 PUSH1 0x20 ADD KECCAK256 EQ ISZERO DUP1 ISZERO PUSH3 0x17F JUMPI POP PUSH1 0x40 MLOAD PUSH1 0x20 ADD PUSH3 0x13D SWAP1 PUSH1 0x20 DUP1 DUP3 MSTORE PUSH1 0x0 SWAP1 DUP3 ADD MSTORE PUSH1 0x40 ADD SWAP1 JUMP JUMPDEST PUSH1 0x40 MLOAD PUSH1 0x20 DUP2 DUP4 SUB SUB DUP2 MSTORE SWAP1 PUSH1 0x40 MSTORE DUP1 MLOAD SWAP1 PUSH1 0x20 ADD KECCAK256 DUP4 PUSH1 0x40 MLOAD PUSH1 0x20 ADD PUSH3 0x166 SWAP2 SWAP1 PUSH3 0x5E5 JUMP JUMPDEST PUSH1 0x40 MLOAD PUSH1 0x20 DUP2 DUP4 SUB SUB DUP2 MSTORE SWAP1 PUSH1 0x40 MSTORE DUP1 MLOAD SWAP1 PUSH1 0x20 ADD KECCAK256 EQ ISZERO JUMPDEST PUSH3 0x1CD JUMPI PUSH1 0x40 MLOAD PUSH3 0x461BCD PUSH1 0xE5 SHL DUP2 MSTORE PUSH1 0x20 PUSH1 0x4 DUP3 ADD MSTORE PUSH1 0x1F PUSH1 0x24 DUP3 ADD MSTORE PUSH32 0x696E76616C696420617267756D656E74202D20656D70747920737472696E6700 PUSH1 0x44 DUP3 ADD MSTORE PUSH1 0x64 ADD PUSH3 0xB3 JUMP JUMPDEST PUSH1 0x12 DUP3 PUSH1 0xFF AND GT ISZERO PUSH3 0x223 JUMPI PUSH1 0x40 MLOAD PUSH3 0x461BCD PUSH1 0xE5 SHL DUP2 MSTORE PUSH1 0x20 PUSH1 0x4 DUP3 ADD MSTORE PUSH1 0x19 PUSH1 0x24 DUP3 ADD MSTORE PUSH32 0x646563696D616C73206265747765656E203020616E6420313800000000000000 PUSH1 0x44 DUP3 ADD MSTORE PUSH1 0x64 ADD PUSH3 0xB3 JUMP JUMPDEST PUSH3 0x23B DUP8 PUSH1 0x0 DUP1 MLOAD PUSH1 0x20 PUSH3 0xAB5 DUP4 CODECOPY DUP2 MLOAD SWAP2 MSTORE SSTORE JUMP JUMPDEST PUSH1 0x40 MLOAD PUSH1 0x1 PUSH1 0x1 PUSH1 0xA0 SHL SUB DUP9 AND SWAP1 PUSH32 0x3B1074392ED8E8424715D0DDA2197EEDE67080B377FC8370E26F3E882207F6B8 SWAP1 PUSH1 0x0 SWAP1 LOG2 PUSH1 0x0 PUSH3 0x289 PUSH1 0x0 DUP1 MLOAD PUSH1 0x20 PUSH3 0xAB5 DUP4 CODECOPY DUP2 MLOAD SWAP2 MSTORE SLOAD SWAP1 JUMP JUMPDEST PUSH1 0x1 PUSH1 0x1 PUSH1 0xA0 SHL SUB AND PUSH4 0x709BC7F3 PUSH1 0x40 MLOAD DUP2 PUSH4 0xFFFFFFFF AND PUSH1 0xE0 SHL DUP2 MSTORE PUSH1 0x4 ADD PUSH1 0x20 PUSH1 0x40 MLOAD DUP1 DUP4 SUB DUP2 DUP7 GAS STATICCALL ISZERO DUP1 ISZERO PUSH3 0x2C7 JUMPI RETURNDATASIZE PUSH1 0x0 DUP1 RETURNDATACOPY RETURNDATASIZE PUSH1 0x0 REVERT JUMPDEST POP POP POP POP PUSH1 0x40 MLOAD RETURNDATASIZE PUSH1 0x1F NOT PUSH1 0x1F DUP3 ADD AND DUP3 ADD DUP1 PUSH1 0x40 MSTORE POP DUP2 ADD SWAP1 PUSH3 0x2ED SWAP2 SWAP1 PUSH3 0x601 JUMP JUMPDEST SWAP1 POP PUSH1 0x0 DUP2 PUSH1 0x1 PUSH1 0x1 PUSH1 0xA0 SHL SUB AND DUP9 DUP9 DUP9 DUP9 DUP9 DUP9 PUSH1 0x40 MLOAD PUSH1 0x24 ADD PUSH3 0x318 SWAP7 SWAP6 SWAP5 SWAP4 SWAP3 SWAP2 SWAP1 PUSH3 0x61F JUMP JUMPDEST PUSH1 0x40 DUP1 MLOAD PUSH1 0x1F NOT DUP2 DUP5 SUB ADD DUP2 MSTORE SWAP2 DUP2 MSTORE PUSH1 0x20 DUP3 ADD DUP1 MLOAD PUSH1 0x1 PUSH1 0x1 PUSH1 0xE0 SHL SUB AND PUSH4 0x41AEF413 PUSH1 0xE0 SHL OR SWAP1 MSTORE MLOAD PUSH3 0x34F SWAP2 SWAP1 PUSH3 0x682 JUMP JUMPDEST PUSH1 0x0 PUSH1 0x40 MLOAD DUP1 DUP4 SUB DUP2 DUP6 GAS DELEGATECALL SWAP2 POP POP RETURNDATASIZE DUP1 PUSH1 0x0 DUP2 EQ PUSH3 0x38C JUMPI PUSH1 0x40 MLOAD SWAP2 POP PUSH1 0x1F NOT PUSH1 0x3F RETURNDATASIZE ADD AND DUP3 ADD PUSH1 0x40 MSTORE RETURNDATASIZE DUP3 MSTORE RETURNDATASIZE PUSH1 0x0 PUSH1 0x20 DUP5 ADD RETURNDATACOPY PUSH3 0x391 JUMP JUMPDEST PUSH1 0x60 SWAP2 POP JUMPDEST POP POP SWAP1 POP DUP1 PUSH3 0x3E4 JUMPI PUSH1 0x40 MLOAD PUSH3 0x461BCD PUSH1 0xE5 SHL DUP2 MSTORE PUSH1 0x20 PUSH1 0x4 DUP3 ADD MSTORE PUSH1 0x16 PUSH1 0x24 DUP3 ADD MSTORE PUSH32 0x496E697469616C697A6174696F6E206661696C65642E00000000000000000000 PUSH1 0x44 DUP3 ADD MSTORE PUSH1 0x64 ADD PUSH3 0xB3 JUMP JUMPDEST POP POP POP POP POP POP POP POP POP PUSH3 0x6A0 JUMP JUMPDEST DUP1 MLOAD PUSH1 0x1 PUSH1 0x1 PUSH1 0xA0 SHL SUB DUP2 AND DUP2 EQ PUSH3 0x40B JUMPI PUSH1 0x0 DUP1 REVERT JUMPDEST SWAP2 SWAP1 POP JUMP JUMPDEST PUSH4 0x4E487B71 PUSH1 0xE0 SHL PUSH1 0x0 MSTORE PUSH1 0x41 PUSH1 0x4 MSTORE PUSH1 0x24 PUSH1 0x0 REVERT JUMPDEST PUSH1 0x0 JUMPDEST DUP4 DUP2 LT ISZERO PUSH3 0x443 JUMPI DUP2 DUP2 ADD MLOAD DUP4 DUP3 ADD MSTORE PUSH1 0x20 ADD PUSH3 0x429 JUMP JUMPDEST POP POP PUSH1 0x0 SWAP2 ADD MSTORE JUMP JUMPDEST PUSH1 0x0 DUP3 PUSH1 0x1F DUP4 ADD SLT PUSH3 0x45E JUMPI PUSH1 0x0 DUP1 REVERT JUMPDEST DUP2 MLOAD PUSH1 0x1 PUSH1 0x1 PUSH1 0x40 SHL SUB DUP1 DUP3 GT ISZERO PUSH3 0x47B JUMPI PUSH3 0x47B PUSH3 0x410 JUMP JUMPDEST PUSH1 0x40 MLOAD PUSH1 0x1F DUP4 ADD PUSH1 0x1F NOT SWAP1 DUP2 AND PUSH1 0x3F ADD AND DUP2 ADD SWAP1 DUP3 DUP3 GT DUP2 DUP4 LT OR ISZERO PUSH3 0x4A6 JUMPI PUSH3 0x4A6 PUSH3 0x410 JUMP JUMPDEST DUP2 PUSH1 0x40 MSTORE DUP4 DUP2 MSTORE DUP7 PUSH1 0x20 DUP6 DUP9 ADD ADD GT ISZERO PUSH3 0x4C0 JUMPI PUSH1 0x0 DUP1 REVERT JUMPDEST PUSH3 0x4D3 DUP5 PUSH1 0x20 DUP4 ADD PUSH1 0x20 DUP10 ADD PUSH3 0x426 JUMP JUMPDEST SWAP7 SWAP6 POP POP POP POP POP POP JUMP JUMPDEST PUSH1 0x0 DUP1 PUSH1 0x0 DUP1 PUSH1 0x0 DUP1 PUSH1 0x0 PUSH1 0xE0 DUP9 DUP11 SUB SLT ISZERO PUSH3 0x4F9 JUMPI PUSH1 0x0 DUP1 REVERT JUMPDEST PUSH3 0x504 DUP9 PUSH3 0x3F3 JUMP JUMPDEST SWAP7 POP PUSH3 0x514 PUSH1 0x20 DUP10 ADD PUSH3 0x3F3 JUMP JUMPDEST SWAP6 POP PUSH3 0x524 PUSH1 0x40 DUP10 ADD PUSH3 0x3F3 JUMP JUMPDEST PUSH1 0x60 DUP10 ADD MLOAD SWAP1 SWAP6 POP PUSH1 0x1 PUSH1 0x1 PUSH1 0x40 SHL SUB DUP1 DUP3 GT ISZERO PUSH3 0x542 JUMPI PUSH1 0x0 DUP1 REVERT JUMPDEST PUSH3 0x550 DUP12 DUP4 DUP13 ADD PUSH3 0x44C JUMP JUMPDEST SWAP6 POP PUSH1 0x80 DUP11 ADD MLOAD SWAP2 POP DUP1 DUP3 GT ISZERO PUSH3 0x567 JUMPI PUSH1 0x0 DUP1 REVERT JUMPDEST POP PUSH3 0x576 DUP11 DUP3 DUP12 ADD PUSH3 0x44C JUMP JUMPDEST SWAP4 POP POP PUSH1 0xA0 DUP9 ADD MLOAD PUSH1 0xFF DUP2 AND DUP2 EQ PUSH3 0x58E JUMPI PUSH1 0x0 DUP1 REVERT JUMPDEST PUSH1 0xC0 DUP10 ADD MLOAD SWAP1 SWAP3 POP PUSH2 0xFFFF DUP2 AND DUP2 EQ PUSH3 0x5A7 JUMPI PUSH1 0x0 DUP1 REVERT JUMPDEST DUP1 SWAP2 POP POP SWAP3 SWAP6 SWAP9 SWAP2 SWAP5 SWAP8 POP SWAP3 SWAP6 POP JUMP JUMPDEST PUSH1 0x0 DUP2 MLOAD DUP1 DUP5 MSTORE PUSH3 0x5D1 DUP2 PUSH1 0x20 DUP7 ADD PUSH1 0x20 DUP7 ADD PUSH3 0x426 JUMP JUMPDEST PUSH1 0x1F ADD PUSH1 0x1F NOT AND SWAP3 SWAP1 SWAP3 ADD PUSH1 0x20 ADD SWAP3 SWAP2 POP POP JUMP JUMPDEST PUSH1 0x20 DUP2 MSTORE PUSH1 0x0 PUSH3 0x5FA PUSH1 0x20 DUP4 ADD DUP5 PUSH3 0x5B7 JUMP JUMPDEST SWAP4 SWAP3 POP POP POP JUMP JUMPDEST PUSH1 0x0 PUSH1 0x20 DUP3 DUP5 SUB SLT ISZERO PUSH3 0x614 JUMPI PUSH1 0x0 DUP1 REVERT JUMPDEST PUSH3 0x5FA DUP3 PUSH3 0x3F3 JUMP JUMPDEST PUSH1 0x1 PUSH1 0x1 PUSH1 0xA0 SHL SUB DUP8 DUP2 AND DUP3 MSTORE DUP7 AND PUSH1 0x20 DUP3 ADD MSTORE PUSH1 0xC0 PUSH1 0x40 DUP3 ADD DUP2 SWAP1 MSTORE PUSH1 0x0 SWAP1 PUSH3 0x64D SWAP1 DUP4 ADD DUP8 PUSH3 0x5B7 JUMP JUMPDEST DUP3 DUP2 SUB PUSH1 0x60 DUP5 ADD MSTORE PUSH3 0x661 DUP2 DUP8 PUSH3 0x5B7 JUMP JUMPDEST SWAP2 POP POP PUSH1 0xFF DUP5 AND PUSH1 0x80 DUP4 ADD MSTORE PUSH2 0xFFFF DUP4 AND PUSH1 0xA0 DUP4 ADD MSTORE SWAP8 SWAP7 POP POP POP POP POP POP POP JUMP JUMPDEST PUSH1 0x0 DUP3 MLOAD PUSH3 0x696 DUP2 DUP5 PUSH1 0x20 DUP8 ADD PUSH3 0x426 JUMP JUMPDEST SWAP2 SWAP1 SWAP2 ADD SWAP3 SWAP2 POP POP JUMP JUMPDEST PUSH2 0x405 DUP1 PUSH3 0x6B0 PUSH1 0x0 CODECOPY PUSH1 0x0 RETURN INVALID PUSH1 0x80 PUSH1 0x40 MSTORE CALLVALUE DUP1 ISZERO PUSH2 0x10 JUMPI PUSH1 0x0 DUP1 REVERT JUMPDEST POP PUSH1 0x4 CALLDATASIZE LT PUSH2 0x4C JUMPI PUSH1 0x0 CALLDATALOAD PUSH1 0xE0 SHR DUP1 PUSH4 0x24173669 EQ PUSH2 0xF2 JUMPI DUP1 PUSH4 0x2D5F1187 EQ PUSH2 0x10D JUMPI DUP1 PUSH4 0x6D4CE63C EQ PUSH2 0x136 JUMPI DUP1 PUSH4 0x92DD9D65 EQ PUSH2 0x13E JUMPI JUMPDEST PUSH1 0x0 PUSH2 0x64 PUSH1 0x0 DUP1 MLOAD PUSH1 0x20 PUSH2 0x3B0 DUP4 CODECOPY DUP2 MLOAD SWAP2 MSTORE SLOAD SWAP1 JUMP JUMPDEST PUSH1 0x1 PUSH1 0x1 PUSH1 0xA0 SHL SUB AND PUSH4 0x709BC7F3 PUSH1 0x40 MLOAD DUP2 PUSH4 0xFFFFFFFF AND PUSH1 0xE0 SHL DUP2 MSTORE PUSH1 0x4 ADD PUSH1 0x20 PUSH1 0x40 MLOAD DUP1 DUP4 SUB DUP2 DUP7 GAS STATICCALL ISZERO DUP1 ISZERO PUSH2 0xA1 JUMPI RETURNDATASIZE PUSH1 0x0 DUP1 RETURNDATACOPY RETURNDATASIZE PUSH1 0x0 REVERT JUMPDEST POP POP POP POP PUSH1 0x40 MLOAD RETURNDATASIZE PUSH1 0x1F NOT PUSH1 0x1F DUP3 ADD AND DUP3 ADD DUP1 PUSH1 0x40 MSTORE POP DUP2 ADD SWAP1 PUSH2 0xC5 SWAP2 SWAP1 PUSH2 0x347 JUMP JUMPDEST SWAP1 POP CALLDATASIZE PUSH1 0x0 DUP1 CALLDATACOPY PUSH1 0x0 DUP1 CALLDATASIZE PUSH1 0x0 DUP5 PUSH2 0x2710 GAS SUB DELEGATECALL RETURNDATASIZE DUP1 PUSH1 0x0 DUP1 RETURNDATACOPY DUP2 DUP1 ISZERO PUSH2 0xEB JUMPI DUP2 PUSH1 0x0 RETURN JUMPDEST DUP2 PUSH1 0x0 REVERT JUMPDEST STOP JUMPDEST PUSH2 0xFA PUSH2 0x151 JUMP JUMPDEST PUSH1 0x40 MLOAD SWAP1 DUP2 MSTORE PUSH1 0x20 ADD JUMPDEST PUSH1 0x40 MLOAD DUP1 SWAP2 SUB SWAP1 RETURN JUMPDEST PUSH1 0x0 DUP1 MLOAD PUSH1 0x20 PUSH2 0x3B0 DUP4 CODECOPY DUP2 MLOAD SWAP2 MSTORE SLOAD JUMPDEST PUSH1 0x40 MLOAD PUSH1 0x1 PUSH1 0x1 PUSH1 0xA0 SHL SUB SWAP1 SWAP2 AND DUP2 MSTORE PUSH1 0x20 ADD PUSH2 0x104 JUMP JUMPDEST PUSH2 0x11E PUSH2 0x183 JUMP JUMPDEST PUSH2 0xF0 PUSH2 0x14C CALLDATASIZE PUSH1 0x4 PUSH2 0x36B JUMP JUMPDEST PUSH2 0x201 JUMP JUMPDEST PUSH1 0x0 PUSH2 0x17E PUSH1 0x1 PUSH32 0x4CD9B827CA535CEB0880425D70EFF88561ECDF04DC32FCF7FF3B15C587F8A871 PUSH2 0x388 JUMP JUMPDEST SWAP2 SWAP1 POP JUMP JUMPDEST PUSH1 0x0 PUSH2 0x19B PUSH1 0x0 DUP1 MLOAD PUSH1 0x20 PUSH2 0x3B0 DUP4 CODECOPY DUP2 MLOAD SWAP2 MSTORE SLOAD SWAP1 JUMP JUMPDEST PUSH1 0x1 PUSH1 0x1 PUSH1 0xA0 SHL SUB AND PUSH4 0x709BC7F3 PUSH1 0x40 MLOAD DUP2 PUSH4 0xFFFFFFFF AND PUSH1 0xE0 SHL DUP2 MSTORE PUSH1 0x4 ADD PUSH1 0x20 PUSH1 0x40 MLOAD DUP1 DUP4 SUB DUP2 DUP7 GAS STATICCALL ISZERO DUP1 ISZERO PUSH2 0x1D8 JUMPI RETURNDATASIZE PUSH1 0x0 DUP1 RETURNDATACOPY RETURNDATASIZE PUSH1 0x0 REVERT JUMPDEST POP POP POP POP PUSH1 0x40 MLOAD RETURNDATASIZE PUSH1 0x1F NOT PUSH1 0x1F DUP3 ADD AND DUP3 ADD DUP1 PUSH1 0x40 MSTORE POP DUP2 ADD SWAP1 PUSH2 0x1FC SWAP2 SWAP1 PUSH2 0x347 JUMP JUMPDEST SWAP1 POP SWAP1 JUMP JUMPDEST PUSH1 0x0 DUP1 MLOAD PUSH1 0x20 PUSH2 0x3B0 DUP4 CODECOPY DUP2 MLOAD SWAP2 MSTORE SLOAD PUSH1 0x1 PUSH1 0x1 PUSH1 0xA0 SHL SUB AND CALLER PUSH1 0x1 PUSH1 0x1 PUSH1 0xA0 SHL SUB AND EQ PUSH2 0x28C JUMPI PUSH1 0x40 MLOAD PUSH3 0x461BCD PUSH1 0xE5 SHL DUP2 MSTORE PUSH1 0x20 PUSH1 0x4 DUP3 ADD MSTORE PUSH1 0x2D PUSH1 0x24 DUP3 ADD MSTORE PUSH32 0x6F6E6C792063757272656E7420696D706C656D656E746174696F6E417574686F PUSH1 0x44 DUP3 ADD MSTORE PUSH13 0x1C9A5D1E4818D85B8818D85B1B PUSH1 0x9A SHL PUSH1 0x64 DUP3 ADD MSTORE PUSH1 0x84 ADD JUMPDEST PUSH1 0x40 MLOAD DUP1 SWAP2 SUB SWAP1 REVERT JUMPDEST PUSH1 0x1 PUSH1 0x1 PUSH1 0xA0 SHL SUB DUP2 AND PUSH2 0x2E2 JUMPI PUSH1 0x40 MLOAD PUSH3 0x461BCD PUSH1 0xE5 SHL DUP2 MSTORE PUSH1 0x20 PUSH1 0x4 DUP3 ADD MSTORE PUSH1 0x1F PUSH1 0x24 DUP3 ADD MSTORE PUSH32 0x696E76616C696420617267756D656E74202D207A65726F206164647265737300 PUSH1 0x44 DUP3 ADD MSTORE PUSH1 0x64 ADD PUSH2 0x283 JUMP JUMPDEST PUSH2 0x2F8 DUP2 PUSH1 0x0 DUP1 MLOAD PUSH1 0x20 PUSH2 0x3B0 DUP4 CODECOPY DUP2 MLOAD SWAP2 MSTORE SSTORE JUMP JUMPDEST PUSH1 0x40 MLOAD PUSH1 0x1 PUSH1 0x1 PUSH1 0xA0 SHL SUB DUP3 AND SWAP1 PUSH32 0x3B1074392ED8E8424715D0DDA2197EEDE67080B377FC8370E26F3E882207F6B8 SWAP1 PUSH1 0x0 SWAP1 LOG2 POP JUMP JUMPDEST PUSH1 0x1 PUSH1 0x1 PUSH1 0xA0 SHL SUB DUP2 AND DUP2 EQ PUSH2 0x344 JUMPI PUSH1 0x0 DUP1 REVERT JUMPDEST POP JUMP JUMPDEST PUSH1 0x0 PUSH1 0x20 DUP3 DUP5 SUB SLT ISZERO PUSH2 0x359 JUMPI PUSH1 0x0 DUP1 REVERT JUMPDEST DUP2 MLOAD PUSH2 0x364 DUP2 PUSH2 0x32F JUMP JUMPDEST SWAP4 SWAP3 POP POP POP JUMP JUMPDEST PUSH1 0x0 PUSH1 0x20 DUP3 DUP5 SUB SLT ISZERO PUSH2 0x37D JUMPI PUSH1 0x0 DUP1 REVERT JUMPDEST DUP2 CALLDATALOAD PUSH2 0x364 DUP2 PUSH2 0x32F JUMP JUMPDEST DUP2 DUP2 SUB DUP2 DUP2 GT ISZERO PUSH2 0x3A9 JUMPI PUSH4 0x4E487B71 PUSH1 0xE0 SHL PUSH1 0x0 MSTORE PUSH1 0x11 PUSH1 0x4 MSTORE PUSH1 0x24 PUSH1 0x0 REVERT JUMPDEST SWAP3 SWAP2 POP POP JUMP INVALID 0xC5 CALL PUSH16 0xFCC639FA48A6947836D9850F5047985 0x23 0xBF DUP13 SWAP11 GASPRICE DUP8 0xD5 DUP8 PUSH13 0xF622BCF7A26469706673582212 KECCAK256 CALL PUSH29 0x21689E733AC5A84C7EDFA85ACDA3FE717341A5169CFDFB1E2EA1836938 0xBB PUSH5 0x736F6C6343 STOP ADDMOD GT STOP CALLER 0xC5 CALL PUSH16 0xFCC639FA48A6947836D9850F5047985 0x23 0xBF DUP13 SWAP11 GASPRICE DUP8 0xD5 DUP8 PUSH13 0xF622BCF7A26469706673582212 KECCAK256 DELEGATECALL CALLCODE 0x5D 0xC6 0xB2 0xC3 0xC8 0xE6 DUP15 CHAINID DIV 0xB9 0xD9 0xB5 0xD COINBASE SHR MLOAD BALANCE 0xC5 0xA9 0x5D NUMBER PUSH29 0xE6E4E7A28C2F1F8164736F6C6343000811003300000000000000000000 "
		},
		"gasEstimates": {
			"creation": {
				"codeDepositCost": "3476000",
				"executionCost": "3893",
				"totalCost": "3479893"
			},
			"external": {
				"_alldata(address,string)": "infinite",
				"assets(string)": "infinite",
				"deployall(address,string,uint256,string,string,uint16)": "infinite",
				"setimplementationAuthority(address)": "24625",
				"tokendetail(string)": "infinite"
			},
			"internal": {
				"_deploy(uint256,bytes memory)": "infinite",
				"_deployCTR(uint256,address)": "infinite",
				"_deployIR(uint256,address,address,address,address)": "infinite",
				"_deployIRS(uint256,address)": "infinite",
				"_deployMC(uint256,address)": "infinite",
				"_deployTIR(uint256,address)": "infinite",
				"_deployToken(uint256,address,address,address,string memory,string memory,uint8,uint16)": "infinite",
				"holddata(address,string memory,address,address,address,address,address,address)": "infinite"
			}
		},
		"methodIdentifiers": {
			"_alldata(address,string)": "07432f3a",
			"assets(string)": "85936228",
			"deployall(address,string,uint256,string,string,uint16)": "88473ed2",
			"setimplementationAuthority(address)": "baef00cc",
			"tokendetail(string)": "0da2bc2a"
		}
	},
	"abi": [
		{
			"anonymous": false,
			"inputs": [
				{
					"indexed": false,
					"internalType": "address",
					"name": "_contractaddress",
					"type": "address"
				}
			],
			"name": "tokenaddress",
			"type": "event"
		},
		{
			"inputs": [
				{
					"internalType": "address",
					"name": "",
					"type": "address"
				},
				{
					"internalType": "string",
					"name": "",
					"type": "string"
				}
			],
			"name": "_alldata",
			"outputs": [
				{
					"internalType": "address",
					"name": "tokenImplementation",
					"type": "address"
				},
				{
					"internalType": "address",
					"name": "irImplementation",
					"type": "address"
				},
				{
					"internalType": "address",
					"name": "mcImplementation",
					"type": "address"
				},
				{
					"internalType": "address",
					"name": "irsImplementation",
					"type": "address"
				},
				{
					"internalType": "address",
					"name": "ctrImplementation",
					"type": "address"
				},
				{
					"internalType": "address",
					"name": "tirImplementation",
					"type": "address"
				}
			],
			"stateMutability": "view",
			"type": "function"
		},
		{
			"inputs": [
				{
					"internalType": "string",
					"name": "",
					"type": "string"
				}
			],
			"name": "assets",
			"outputs": [
				{
					"internalType": "address",
					"name": "owner",
					"type": "address"
				},
				{
					"internalType": "string",
					"name": "assetname",
					"type": "string"
				},
				{
					"internalType": "uint256",
					"name": "assetprice",
					"type": "uint256"
				},
				{
					"internalType": "string",
					"name": "token_name",
					"type": "string"
				},
				{
					"internalType": "string",
					"name": "token_symbol",
					"type": "string"
				}
			],
			"stateMutability": "view",
			"type": "function"
		},
		{
			"inputs": [
				{
					"internalType": "address",
					"name": "owner",
					"type": "address"
				},
				{
					"internalType": "string",
					"name": "assetname",
					"type": "string"
				},
				{
					"internalType": "uint256",
					"name": "assetprice",
					"type": "uint256"
				},
				{
					"internalType": "string",
					"name": "name",
					"type": "string"
				},
				{
					"internalType": "string",
					"name": "symbol",
					"type": "string"
				},
				{
					"internalType": "uint16",
					"name": "maxsupply",
					"type": "uint16"
				}
			],
			"name": "deployall",
			"outputs": [
				{
					"internalType": "address",
					"name": "",
					"type": "address"
				}
			],
			"stateMutability": "nonpayable",
			"type": "function"
		},
		{
			"inputs": [
				{
					"internalType": "address",
					"name": "_implementationauthority",
					"type": "address"
				}
			],
			"name": "setimplementationAuthority",
			"outputs": [],
			"stateMutability": "nonpayable",
			"type": "function"
		},
		{
			"inputs": [
				{
					"internalType": "string",
					"name": "_tokenname",
					"type": "string"
				}
			],
			"name": "tokendetail",
			"outputs": [
				{
					"components": [
						{
							"internalType": "address",
							"name": "owner",
							"type": "address"
						},
						{
							"internalType": "string",
							"name": "assetname",
							"type": "string"
						},
						{
							"internalType": "uint256",
							"name": "assetprice",
							"type": "uint256"
						},
						{
							"internalType": "string",
							"name": "token_name",
							"type": "string"
						},
						{
							"internalType": "string",
							"name": "token_symbol",
							"type": "string"
						}
					],
					"internalType": "struct proxyfactory.asset",
					"name": "",
					"type": "tuple"
				}
			],
			"stateMutability": "view",
			"type": "function"
		}
	]
}