{
	"data": {
		"bytecode": {
			"linkReferences": {},
			"object": "608060405234801561001057600080fd5b506150f9806100206000396000f3fe608060405234801561001057600080fd5b50600436106100365760003560e01c806352487a071461003b578063daf9175e1461006b575b600080fd5b61005560048036038101906100509190610318565b61009b565b6040516100629190610354565b60405180910390f35b61008560048036038101906100809190610318565b610103565b6040516100929190610354565b60405180910390f35b60008060008373ffffffffffffffffffffffffffffffffffffffff1673ffffffffffffffffffffffffffffffffffffffff16815260200190815260200160002060009054906101000a900473ffffffffffffffffffffffffffffffffffffffff169050919050565b6000600160008373ffffffffffffffffffffffffffffffffffffffff1673ffffffffffffffffffffffffffffffffffffffff16815260200190815260200160002060009054906101000a900460ff1615610192576040517f08c379a0000000000000000000000000000000000000000000000000000000008152600401610189906103cc565b60405180910390fd5b6000826040516101a1906102a7565b6101ab9190610354565b604051809103906000f0801580156101c7573d6000803e3d6000fd5b509050806000808573ffffffffffffffffffffffffffffffffffffffff1673ffffffffffffffffffffffffffffffffffffffff16815260200190815260200160002060006101000a81548173ffffffffffffffffffffffffffffffffffffffff021916908373ffffffffffffffffffffffffffffffffffffffff16021790555060018060008573ffffffffffffffffffffffffffffffffffffffff1673ffffffffffffffffffffffffffffffffffffffff16815260200190815260200160002060006101000a81548160ff02191690831515021790555080915050919050565b614cd780620003ed83390190565b600080fd5b600073ffffffffffffffffffffffffffffffffffffffff82169050919050565b60006102e5826102ba565b9050919050565b6102f5816102da565b811461030057600080fd5b50565b600081359050610312816102ec565b92915050565b60006020828403121561032e5761032d6102b5565b5b600061033c84828501610303565b91505092915050565b61034e816102da565b82525050565b60006020820190506103696000830184610345565b92915050565b600082825260208201905092915050565b7f796f752061726520616c72656164792072656769737465726564000000000000600082015250565b60006103b6601a8361036f565b91506103c182610380565b602082019050919050565b600060208201905081810360008301526103e5816103a9565b905091905056fe60806040526000600660006101000a81548160ff0219169083151502179055506000600660016101000a81548160ff0219169083151502179055503480156200004757600080fd5b5060405162004cd738038062004cd783398181016040528101906200006d9190620003c7565b8060008073ffffffffffffffffffffffffffffffffffffffff168273ffffffffffffffffffffffffffffffffffffffff1603620000e1576040517f08c379a0000000000000000000000000000000000000000000000000000000008152600401620000d8906200045a565b60405180910390fd5b80620000fe57620000f8826200012360201b60201c565b6200011a565b6001600660006101000a81548160ff0219169083151502179055505b5050506200051c565b600660009054906101000a900460ff1615806200014c57506200014b620002d060201b60201c565b5b6200018e576040517f08c379a00000000000000000000000000000000000000000000000000000000081526004016200018590620004cc565b60405180910390fd5b6001600660006101000a81548160ff0219169083151502179055506001600660016101000a81548160ff021916908315150217905550600081604051602001620001d99190620004ff565b6040516020818303038152906040528051906020012090508060016000838152602001908152602001600020600201819055506040518060200160405280600160ff168152506001600083815260200190815260200160002060000190600162000245929190620002e7565b506001806000838152602001908152602001600020600101819055506002600060018152602001908152602001600020819080600181540180825580915050600190039060005260206000200160009091909190915055600180827f480000bb1edad8ca1470381cc334b1917fbd51c6531f3a623ea8e0ec7e38a6e960405160405180910390a45050565b6000803090506000813b9050600081149250505090565b8280548282559060005260206000209081019282156200032b579160200282015b828111156200032a578251829060ff1690559160200191906001019062000308565b5b5090506200033a91906200033e565b5090565b5b80821115620003595760008160009055506001016200033f565b5090565b600080fd5b600073ffffffffffffffffffffffffffffffffffffffff82169050919050565b60006200038f8262000362565b9050919050565b620003a18162000382565b8114620003ad57600080fd5b50565b600081519050620003c18162000396565b92915050565b600060208284031215620003e057620003df6200035d565b5b6000620003f084828501620003b0565b91505092915050565b600082825260208201905092915050565b7f696e76616c696420617267756d656e74202d207a65726f206164647265737300600082015250565b600062000442601f83620003f9565b91506200044f826200040a565b602082019050919050565b60006020820190508181036000830152620004758162000433565b9050919050565b7f496e697469616c206b65792077617320616c72656164792073657475702e0000600082015250565b6000620004b4601e83620003f9565b9150620004c1826200047c565b602082019050919050565b60006020820190508181036000830152620004e781620004a5565b9050919050565b620004f98162000382565b82525050565b6000602082019050620005166000830184620004ee565b92915050565b6147ab806200052c6000396000f3fe60806040526004361061011f5760003560e01c8063a192b909116100a0578063c4d66de811610064578063c4d66de814610488578063c9100bcb146104b1578063cf3c6feb146104f3578063d202158d14610530578063fb307b341461056d5761011f565b8063a192b90914610364578063b1a34e0d146103a1578063b61d27f6146103de578063c0969a6e1461040e578063c3b129e31461044b5761011f565b806353d413c5116100e757806353d413c51461024557806354fd4d5014610282578063747442d3146102ad57806380e9e9e1146102ea5780639010f726146103275761011f565b806312aaac70146101245780631d38124014610163578063360b429a146101a05780634226d55a146101cb5780634eee424a14610208575b600080fd5b34801561013057600080fd5b5061014b60048036038101906101469190612971565b6105aa565b60405161015a93929190612a84565b60405180910390f35b34801561016f57600080fd5b5061018a60048036038101906101859190612aee565b610652565b6040516101979190612b5c565b60405180910390f35b3480156101ac57600080fd5b506101b561097a565b6040516101c29190612bb2565b60405180910390f35b3480156101d757600080fd5b506101f260048036038101906101ed9190612c90565b6109be565b6040516101ff9190612d04565b60405180910390f35b34801561021457600080fd5b5061022f600480360381019061022a9190612971565b6109f7565b60405161023c9190612b5c565b60405180910390f35b34801561025157600080fd5b5061026c60048036038101906102679190612d1f565b610dce565b6040516102799190612b5c565b60405180910390f35b34801561028e57600080fd5b5061029761126b565b6040516102a49190612def565b60405180910390f35b3480156102b957600080fd5b506102d460048036038101906102cf9190612e3d565b6112a8565b6040516102e19190612b5c565b60405180910390f35b3480156102f657600080fd5b50610311600480360381019061030c9190612e7d565b61181c565b60405161031e9190612f68565b60405180910390f35b34801561033357600080fd5b5061034e60048036038101906103499190612e7d565b611887565b60405161035b9190612f68565b60405180910390f35b34801561037057600080fd5b5061038b60048036038101906103869190612f8a565b6118f2565b6040516103989190612d04565b60405180910390f35b3480156103ad57600080fd5b506103c860048036038101906103c39190613188565b611922565b6040516103d59190612d04565b60405180910390f35b6103f860048036038101906103f39190613269565b611d9a565b60405161040591906132d8565b60405180910390f35b34801561041a57600080fd5b5061043560048036038101906104309190613331565b611fc1565b6040516104429190612b5c565b60405180910390f35b34801561045757600080fd5b50610472600480360381019061046d91906133d0565b612083565b60405161047f919061343b565b60405180910390f35b34801561049457600080fd5b506104af60048036038101906104aa9190612f8a565b612133565b005b3480156104bd57600080fd5b506104d860048036038101906104d39190612971565b6121ae565b6040516104ea969594939291906134ab565b60405180910390f35b3480156104ff57600080fd5b5061051a60048036038101906105159190613521565b612418565b604051610527919061356a565b60405180910390f35b34801561053c57600080fd5b5061055760048036038101906105529190612d1f565b612441565b6040516105649190612b5c565b60405180910390f35b34801561057957600080fd5b50610594600480360381019061058f9190612971565b61255b565b6040516105a1919061358c565b60405180910390f35b606060008060016000858152602001908152602001600020600001600160008681526020019081526020016000206001015460016000878152602001908152602001600020600201548280548060200260200160405190810160405280929190818152602001828054801561063e57602002820191906000526020600020905b81548152602001906001019080831161062a575b505050505092509250925092509193909250565b600060011515600660019054906101000a900460ff161515146106aa576040517f08c379a00000000000000000000000000000000000000000000000000000000081526004016106a190613620565b60405180910390fd5b3073ffffffffffffffffffffffffffffffffffffffff163373ffffffffffffffffffffffffffffffffffffffff1614806107115750610710336040516020016106f3919061343b565b604051602081830303815290604052805190602001206001612441565b5b610750576040517f08c379a0000000000000000000000000000000000000000000000000000000008152600401610747906136b2565b60405180910390fd5b8360016000868152602001908152602001600020600201540361089b576000600160008681526020019081526020016000206000018054806020026020016040519081016040528092919081815260200182805480156107cf57602002820191906000526020600020905b8154815260200190600101908083116107bb575b5050505050905060005b81518110156108575760008282815181106107f7576107f66136d2565b5b60200260200101519050858103610843576040517f08c379a000000000000000000000000000000000000000000000000000000000815260040161083a90613773565b60405180910390fd5b50808061084f906137c2565b9150506107d9565b506001600086815260200190815260200160002060000184908060018154018082558091505060019003906000526020600020016000909190919091505550610906565b836001600086815260200190815260200160002060020181905550604051806020016040528084815250600160008681526020019081526020016000206000019060016108e992919061277d565b508160016000868152602001908152602001600020600101819055505b600260008481526020019081526020016000208490806001815401808255809150506001900390600052602060002001600090919091909150558183857f480000bb1edad8ca1470381cc334b1917fbd51c6531f3a623ea8e0ec7e38a6e960405160405180910390a4600190509392505050565b60006040518060400160405280601181526020017f62797465736461746128737472696e672900000000000000000000000000000081525080519060200120905090565b6000848484846040516020016109d79493929190613837565b604051602081830303815290604052805190602001209050949350505050565b600060011515600660019054906101000a900460ff16151514610a4f576040517f08c379a0000000000000000000000000000000000000000000000000000000008152600401610a4690613620565b60405180910390fd5b3073ffffffffffffffffffffffffffffffffffffffff163373ffffffffffffffffffffffffffffffffffffffff161480610ab65750610ab533604051602001610a98919061343b565b604051602081830303815290604052805190602001206003612441565b5b610af5576040517f08c379a0000000000000000000000000000000000000000000000000000000008152600401610aec906138e9565b60405180910390fd5b60006004600084815260200190815260200160002060000154905060008103610b53576040517f08c379a0000000000000000000000000000000000000000000000000000000008152600401610b4a9061397b565b60405180910390fd5b600080600560008481526020019081526020016000208054905090505b84600560008581526020019081526020016000208381548110610b9657610b956136d2565b5b906000526020600020015414610bbc578180610bb1906137c2565b925050808210610b70575b60056000848152602001908152602001600020600182610bdc919061399b565b81548110610bed57610bec6136d2565b5b9060005260206000200154600560008581526020019081526020016000208381548110610c1d57610c1c6136d2565b5b906000526020600020018190555060056000848152602001908152602001600020805480610c4e57610c4d6139cf565b5b600190038181906000526020600020016000905590556004600086815260200190815260200160002060020160009054906101000a900473ffffffffffffffffffffffffffffffffffffffff1673ffffffffffffffffffffffffffffffffffffffff1683867f3cf57863a89432c61c4a27073c6ee39e8a764bff5a05aebfbcdcdc80b2e6130a600460008a815260200190815260200160002060010154600460008b8152602001908152602001600020600301600460008c8152602001908152602001600020600401600460008d8152602001908152602001600020600501604051610d3d9493929190613b90565b60405180910390a46004600086815260200190815260200160002060008082016000905560018201600090556002820160006101000a81549073ffffffffffffffffffffffffffffffffffffffff0219169055600382016000610da091906127ca565b600482016000610db091906127ca565b600582016000610dc0919061280a565b505060019350505050919050565b600060011515600660019054906101000a900460ff16151514610e26576040517f08c379a0000000000000000000000000000000000000000000000000000000008152600401610e1d90613620565b60405180910390fd5b3073ffffffffffffffffffffffffffffffffffffffff163373ffffffffffffffffffffffffffffffffffffffff161480610e8d5750610e8c33604051602001610e6f919061343b565b604051602081830303815290604052805190602001206001612441565b5b610ecc576040517f08c379a0000000000000000000000000000000000000000000000000000000008152600401610ec3906136b2565b60405180910390fd5b82600160008581526020019081526020016000206002015414610f24576040517f08c379a0000000000000000000000000000000000000000000000000000000008152600401610f1b90613c5c565b60405180910390fd5b600060016000858152602001908152602001600020600001805480602002602001604051908101604052809291908181526020018280548015610f8657602002820191906000526020600020905b815481526020019060010190808311610f72575b5050505050905060005b83828281518110610fa457610fa36136d2565b5b602002602001015114611007578080610fbc906137c2565b91505081518103611002576040517f08c379a0000000000000000000000000000000000000000000000000000000008152600401610ff990613cee565b60405180910390fd5b610f90565b8160018351611016919061399b565b81518110611027576110266136d2565b5b6020026020010151828281518110611042576110416136d2565b5b6020026020010181815250508160016000878152602001908152602001600020600001908051906020019061107892919061284a565b506001600086815260200190815260200160002060000180548061109f5761109e6139cf565b5b60019003818190600052602060002001600090559055600080600260008781526020019081526020016000208054905090505b866002600088815260200190815260200160002083815481106110f8576110f76136d2565b5b90600052602060002001541461111e578180611113906137c2565b9250508082106110d2575b6002600087815260200190815260200160002060018261113e919061399b565b8154811061114f5761114e6136d2565b5b906000526020600020015460026000888152602001908152602001600020838154811061117f5761117e6136d2565b5b9060005260206000200181905550600260008781526020019081526020016000208054806111b0576111af6139cf565b5b600190038181906000526020600020016000905590556000600160008981526020019081526020016000206001015490506000600186516111f1919061399b565b0361122d57600160008981526020019081526020016000206000808201600061121a9190612897565b6001820160009055600282016000905550505b8087897f585a4aef50f8267a92b32412b331b20f7f8b96f2245b253b9cc50dcc621d339760405160405180910390a460019550505050505092915050565b60606040518060400160405280600581526020017f322e322e31000000000000000000000000000000000000000000000000000000815250905090565b600060011515600660019054906101000a900460ff16151514611300576040517f08c379a00000000000000000000000000000000000000000000000000000000081526004016112f790613620565b60405180910390fd5b6000548310611344576040517f08c379a000000000000000000000000000000000000000000000000000000000815260040161133b90613d80565b60405180910390fd5b6003600084815260200190815260200160002060030160019054906101000a900460ff16156113a8576040517f08c379a000000000000000000000000000000000000000000000000000000000815260040161139f90613dec565b60405180910390fd5b3073ffffffffffffffffffffffffffffffffffffffff166003600085815260200190815260200160002060000160009054906101000a900473ffffffffffffffffffffffffffffffffffffffff1673ffffffffffffffffffffffffffffffffffffffff16036114865761144233604051602001611425919061343b565b604051602081830303815290604052805190602001206001612441565b611481576040517f08c379a000000000000000000000000000000000000000000000000000000000815260040161147890613e7e565b60405180910390fd5b6114f7565b6114b73360405160200161149a919061343b565b604051602081830303815290604052805190602001206002612441565b6114f6576040517f08c379a00000000000000000000000000000000000000000000000000000000081526004016114ed90613eea565b60405180910390fd5b5b827fb3932da477fe5d6c8ff2eafef050c0f3a1af18fc07121001482600f36f3715d8836040516115279190612b5c565b60405180910390a260011515821515036117e25760016003600085815260200190815260200160002060030160006101000a81548160ff0219169083151502179055506003600084815260200190815260200160002060000160009054906101000a900473ffffffffffffffffffffffffffffffffffffffff1673ffffffffffffffffffffffffffffffffffffffff166003600085815260200190815260200160002060010154600360008681526020019081526020016000206002016040516115f19190613f98565b60006040518083038185875af1925050503d806000811461162e576040519150601f19603f3d011682016040523d82523d6000602084013e611633565b606091505b50508091505080156117285760016003600085815260200190815260200160002060030160016101000a81548160ff02191690831515021790555060036000848152602001908152602001600020600101546003600085815260200190815260200160002060000160009054906101000a900473ffffffffffffffffffffffffffffffffffffffff1673ffffffffffffffffffffffffffffffffffffffff16847f1f920dbda597d7bf95035464170fa58d0a4b57f13a1c315ace6793b9f63688b8600360008881526020019081526020016000206002016040516117179190613faf565b60405180910390a460019050611816565b60036000848152602001908152602001600020600101546003600085815260200190815260200160002060000160009054906101000a900473ffffffffffffffffffffffffffffffffffffffff1673ffffffffffffffffffffffffffffffffffffffff16847fe10c49d9f7c71da23262367013434763cfdb2332267641728d25cd712c5c6a68600360008881526020019081526020016000206002016040516117d19190613faf565b60405180910390a460009050611816565b60006003600085815260200190815260200160002060030160006101000a81548160ff021916908315150217905550600090505b92915050565b60606005600083815260200190815260200160002080548060200260200160405190810160405280929190818152602001828054801561187b57602002820191906000526020600020905b815481526020019060010190808311611867575b50505050509050919050565b6060600260008381526020019081526020016000208054806020026020016040519081016040528092919081815260200182805480156118e657602002820191906000526020600020905b8154815260200190600101908083116118d2575b50505050509050919050565b600081604051602001611905919061343b565b604051602081830303815290604052805190602001209050919050565b600060011515600660019054906101000a900460ff1615151461197a576040517f08c379a000000000000000000000000000000000000000000000000000000000815260040161197190613620565b60405180910390fd5b3073ffffffffffffffffffffffffffffffffffffffff163373ffffffffffffffffffffffffffffffffffffffff1614806119e157506119e0336040516020016119c3919061343b565b604051602081830303815290604052805190602001206003612441565b5b611a20576040517f08c379a0000000000000000000000000000000000000000000000000000000008152600401611a17906138e9565b60405180910390fd5b3073ffffffffffffffffffffffffffffffffffffffff168573ffffffffffffffffffffffffffffffffffffffff1614611b13578473ffffffffffffffffffffffffffffffffffffffff1663c0969a6e308987876040518563ffffffff1660e01b8152600401611a929493929190614030565b602060405180830381865afa158015611aaf573d6000803e3d6000fd5b505050506040513d601f19601f82011682018060405250810190611ad39190614098565b611b12576040517f08c379a0000000000000000000000000000000000000000000000000000000008152600401611b0990614111565b60405180910390fd5b5b60008588604051602001611b28929190614131565b60405160208183030381529060405280519060200120905087600460008381526020019081526020016000206000018190555086600460008381526020019081526020016000206001018190555084600460008381526020019081526020016000206003019081611b9991906142e7565b5083600460008381526020019081526020016000206004019081611bbd91906142e7565b5082600460008381526020019081526020016000206005019081611be191906143ff565b508573ffffffffffffffffffffffffffffffffffffffff166004600083815260200190815260200160002060020160009054906101000a900473ffffffffffffffffffffffffffffffffffffffff1673ffffffffffffffffffffffffffffffffffffffff1614611d355760056000898152602001908152602001600020819080600181540180825580915050600190039060005260206000200160009091909190915055856004600083815260200190815260200160002060020160006101000a81548173ffffffffffffffffffffffffffffffffffffffff021916908373ffffffffffffffffffffffffffffffffffffffff1602179055508573ffffffffffffffffffffffffffffffffffffffff1688827f46149b18aa084502c3f12bc75e19eda8bda8d102b82cce8474677a6d0d5f43c58a898989604051611d2894939291906144d1565b60405180910390a4611d8c565b8573ffffffffffffffffffffffffffffffffffffffff1688827f3bab293fc00db832d7619a9299914251b8747c036867ec056cbd506f60135b138a898989604051611d8394939291906144d1565b60405180910390a45b809150509695505050505050565b600060011515600660019054906101000a900460ff16151514611df2576040517f08c379a0000000000000000000000000000000000000000000000000000000008152600401611de990613620565b60405180910390fd5b600080549050846003600083815260200190815260200160002060000160006101000a81548173ffffffffffffffffffffffffffffffffffffffff021916908373ffffffffffffffffffffffffffffffffffffffff16021790555083600360008381526020019081526020016000206001018190555082600360008381526020019081526020016000206002019081611e8b91906142e7565b50600080815480929190611e9e906137c2565b9190505550838573ffffffffffffffffffffffffffffffffffffffff16827f8afcfabcb00e47a53a8fc3e9f23ff47ee1926194bb1350dd007c50b412a6cee886604051611eeb919061356a565b60405180910390a4611f2433604051602001611f07919061343b565b604051602081830303815290604052805190602001206001612441565b15611f3a57611f348160016112a8565b50611fb6565b3073ffffffffffffffffffffffffffffffffffffffff168573ffffffffffffffffffffffffffffffffffffffff1614158015611fa35750611fa233604051602001611f85919061343b565b604051602081830303815290604052805190602001206002612441565b5b15611fb557611fb38160016112a8565b505b5b809150509392505050565b600080858584604051602001611fd99392919061452b565b60405160208183030381529060405280519060200120905060008160405160200161200491906145e1565b60405160208183030381529060405280519060200120905060006120288683612083565b905060008160405160200161203d919061343b565b604051602081830303815290604052805190602001209050612060816003612441565b1561207257600194505050505061207b565b60009450505050505b949350505050565b600080600080604186511461209e576000935050505061212d565b6020860151925060408601519150606086015160001a9050601b8160ff1610156120d257601b816120cf9190614614565b90505b6000600186838686604051600081526020016040526040516120f79493929190614658565b6020604051602081039080840390855afa158015612119573d6000803e3d6000fd5b505050602060405103519050809450505050505b92915050565b600073ffffffffffffffffffffffffffffffffffffffff168173ffffffffffffffffffffffffffffffffffffffff16036121a2576040517f08c379a0000000000000000000000000000000000000000000000000000000008152600401612199906146e9565b60405180910390fd5b6121ab816125c9565b50565b6000806000606080606060046000888152602001908152602001600020600001546004600089815260200190815260200160002060010154600460008a815260200190815260200160002060020160009054906101000a900473ffffffffffffffffffffffffffffffffffffffff16600460008b8152602001908152602001600020600301600460008c8152602001908152602001600020600401600460008d815260200190815260200160002060050182805461226b90613a2d565b80601f016020809104026020016040519081016040528092919081815260200182805461229790613a2d565b80156122e45780601f106122b9576101008083540402835291602001916122e4565b820191906000526020600020905b8154815290600101906020018083116122c757829003601f168201915b505050505092508180546122f790613a2d565b80601f016020809104026020016040519081016040528092919081815260200182805461232390613a2d565b80156123705780601f1061234557610100808354040283529160200191612370565b820191906000526020600020905b81548152906001019060200180831161235357829003601f168201915b5050505050915080805461238390613a2d565b80601f01602080910402602001604051908101604052809291908181526020018280546123af90613a2d565b80156123fc5780601f106123d1576101008083540402835291602001916123fc565b820191906000526020600020905b8154815290600101906020018083116123df57829003601f168201915b5050505050905095509550955095509550955091939550919395565b60608160405160200161242b9190612def565b6040516020818303038152906040529050919050565b60008060016000858152602001908152602001600020604051806060016040529081600082018054806020026020016040519081016040528092919081815260200182805480156124b157602002820191906000526020600020905b81548152602001906001019080831161249d575b505050505081526020016001820154815260200160028201548152505090506000801b8160400151036124e8576000915050612555565b60005b81600001515181101561254e57600082600001518281518110612511576125106136d2565b5b60200260200101519050600181148061252957508481145b1561253a5760019350505050612555565b508080612546906137c2565b9150506124eb565b5060009150505b92915050565b6060600160008381526020019081526020016000206000018054806020026020016040519081016040528092919081815260200182805480156125bd57602002820191906000526020600020905b8154815260200190600101908083116125a9575b50505050509050919050565b600660009054906101000a900460ff1615806125e957506125e8612766565b5b612628576040517f08c379a000000000000000000000000000000000000000000000000000000000815260040161261f90614755565b60405180910390fd5b6001600660006101000a81548160ff0219169083151502179055506001600660016101000a81548160ff021916908315150217905550600081604051602001612671919061343b565b6040516020818303038152906040528051906020012090508060016000838152602001908152602001600020600201819055506040518060200160405280600160ff16815250600160008381526020019081526020016000206000019060016126db9291906128b8565b506001806000838152602001908152602001600020600101819055506002600060018152602001908152602001600020819080600181540180825580915050600190039060005260206000200160009091909190915055600180827f480000bb1edad8ca1470381cc334b1917fbd51c6531f3a623ea8e0ec7e38a6e960405160405180910390a45050565b6000803090506000813b9050600081149250505090565b8280548282559060005260206000209081019282156127b9579160200282015b828111156127b857825182559160200191906001019061279d565b5b5090506127c6919061290a565b5090565b5080546127d690613a2d565b6000825580601f106127e85750612807565b601f016020900490600052602060002090810190612806919061290a565b5b50565b50805461281690613a2d565b6000825580601f106128285750612847565b601f016020900490600052602060002090810190612846919061290a565b5b50565b828054828255906000526020600020908101928215612886579160200282015b8281111561288557825182559160200191906001019061286a565b5b509050612893919061290a565b5090565b50805460008255906000526020600020908101906128b5919061290a565b50565b8280548282559060005260206000209081019282156128f9579160200282015b828111156128f8578251829060ff169055916020019190600101906128d8565b5b509050612906919061290a565b5090565b5b8082111561292357600081600090555060010161290b565b5090565b6000604051905090565b600080fd5b600080fd5b6000819050919050565b61294e8161293b565b811461295957600080fd5b50565b60008135905061296b81612945565b92915050565b60006020828403121561298757612986612931565b5b60006129958482850161295c565b91505092915050565b600081519050919050565b600082825260208201905092915050565b6000819050602082019050919050565b6000819050919050565b6129dd816129ca565b82525050565b60006129ef83836129d4565b60208301905092915050565b6000602082019050919050565b6000612a138261299e565b612a1d81856129a9565b9350612a28836129ba565b8060005b83811015612a59578151612a4088826129e3565b9750612a4b836129fb565b925050600181019050612a2c565b5085935050505092915050565b612a6f816129ca565b82525050565b612a7e8161293b565b82525050565b60006060820190508181036000830152612a9e8186612a08565b9050612aad6020830185612a66565b612aba6040830184612a75565b949350505050565b612acb816129ca565b8114612ad657600080fd5b50565b600081359050612ae881612ac2565b92915050565b600080600060608486031215612b0757612b06612931565b5b6000612b158682870161295c565b9350506020612b2686828701612ad9565b9250506040612b3786828701612ad9565b9150509250925092565b60008115159050919050565b612b5681612b41565b82525050565b6000602082019050612b716000830184612b4d565b92915050565b60007fffffffff0000000000000000000000000000000000000000000000000000000082169050919050565b612bac81612b77565b82525050565b6000602082019050612bc76000830184612ba3565b92915050565b600073ffffffffffffffffffffffffffffffffffffffff82169050919050565b6000612bf882612bcd565b9050919050565b612c0881612bed565b8114612c1357600080fd5b50565b600081359050612c2581612bff565b92915050565b600080fd5b600080fd5b600080fd5b60008083601f840112612c5057612c4f612c2b565b5b8235905067ffffffffffffffff811115612c6d57612c6c612c30565b5b602083019150836001820283011115612c8957612c88612c35565b5b9250929050565b60008060008060608587031215612caa57612ca9612931565b5b6000612cb887828801612c16565b9450506020612cc987828801612ad9565b935050604085013567ffffffffffffffff811115612cea57612ce9612936565b5b612cf687828801612c3a565b925092505092959194509250565b6000602082019050612d196000830184612a75565b92915050565b60008060408385031215612d3657612d35612931565b5b6000612d448582860161295c565b9250506020612d5585828601612ad9565b9150509250929050565b600081519050919050565b600082825260208201905092915050565b60005b83811015612d99578082015181840152602081019050612d7e565b60008484015250505050565b6000601f19601f8301169050919050565b6000612dc182612d5f565b612dcb8185612d6a565b9350612ddb818560208601612d7b565b612de481612da5565b840191505092915050565b60006020820190508181036000830152612e098184612db6565b905092915050565b612e1a81612b41565b8114612e2557600080fd5b50565b600081359050612e3781612e11565b92915050565b60008060408385031215612e5457612e53612931565b5b6000612e6285828601612ad9565b9250506020612e7385828601612e28565b9150509250929050565b600060208284031215612e9357612e92612931565b5b6000612ea184828501612ad9565b91505092915050565b600081519050919050565b600082825260208201905092915050565b6000819050602082019050919050565b612edf8161293b565b82525050565b6000612ef18383612ed6565b60208301905092915050565b6000602082019050919050565b6000612f1582612eaa565b612f1f8185612eb5565b9350612f2a83612ec6565b8060005b83811015612f5b578151612f428882612ee5565b9750612f4d83612efd565b925050600181019050612f2e565b5085935050505092915050565b60006020820190508181036000830152612f828184612f0a565b905092915050565b600060208284031215612fa057612f9f612931565b5b6000612fae84828501612c16565b91505092915050565b600080fd5b7f4e487b7100000000000000000000000000000000000000000000000000000000600052604160045260246000fd5b612ff482612da5565b810181811067ffffffffffffffff8211171561301357613012612fbc565b5b80604052505050565b6000613026612927565b90506130328282612feb565b919050565b600067ffffffffffffffff82111561305257613051612fbc565b5b61305b82612da5565b9050602081019050919050565b82818337600083830152505050565b600061308a61308584613037565b61301c565b9050828152602081018484840111156130a6576130a5612fb7565b5b6130b1848285613068565b509392505050565b600082601f8301126130ce576130cd612c2b565b5b81356130de848260208601613077565b91505092915050565b600067ffffffffffffffff82111561310257613101612fbc565b5b61310b82612da5565b9050602081019050919050565b600061312b613126846130e7565b61301c565b90508281526020810184848401111561314757613146612fb7565b5b613152848285613068565b509392505050565b600082601f83011261316f5761316e612c2b565b5b813561317f848260208601613118565b91505092915050565b60008060008060008060c087890312156131a5576131a4612931565b5b60006131b389828a01612ad9565b96505060206131c489828a01612ad9565b95505060406131d589828a01612c16565b945050606087013567ffffffffffffffff8111156131f6576131f5612936565b5b61320289828a016130b9565b935050608087013567ffffffffffffffff81111561322357613222612936565b5b61322f89828a016130b9565b92505060a087013567ffffffffffffffff8111156132505761324f612936565b5b61325c89828a0161315a565b9150509295509295509295565b60008060006060848603121561328257613281612931565b5b600061329086828701612c16565b93505060206132a186828701612ad9565b925050604084013567ffffffffffffffff8111156132c2576132c1612936565b5b6132ce868287016130b9565b9150509250925092565b60006020820190506132ed6000830184612a66565b92915050565b60006132fe82612bed565b9050919050565b61330e816132f3565b811461331957600080fd5b50565b60008135905061332b81613305565b92915050565b6000806000806080858703121561334b5761334a612931565b5b60006133598782880161331c565b945050602061336a87828801612ad9565b935050604085013567ffffffffffffffff81111561338b5761338a612936565b5b613397878288016130b9565b925050606085013567ffffffffffffffff8111156133b8576133b7612936565b5b6133c4878288016130b9565b91505092959194509250565b600080604083850312156133e7576133e6612931565b5b600083013567ffffffffffffffff81111561340557613404612936565b5b613411858286016130b9565b92505060206134228582860161295c565b9150509250929050565b61343581612bed565b82525050565b6000602082019050613450600083018461342c565b92915050565b600081519050919050565b600082825260208201905092915050565b600061347d82613456565b6134878185613461565b9350613497818560208601612d7b565b6134a081612da5565b840191505092915050565b600060c0820190506134c06000830189612a66565b6134cd6020830188612a66565b6134da604083018761342c565b81810360608301526134ec8186613472565b905081810360808301526135008185613472565b905081810360a08301526135148184612db6565b9050979650505050505050565b60006020828403121561353757613536612931565b5b600082013567ffffffffffffffff81111561355557613554612936565b5b6135618482850161315a565b91505092915050565b600060208201905081810360008301526135848184613472565b905092915050565b600060208201905081810360008301526135a68184612a08565b905092915050565b7f496e746572616374696e67207769746820746865206c69627261727920636f6e60008201527f747261637420697320666f7262696464656e2e00000000000000000000000000602082015250565b600061360a603383612d6a565b9150613615826135ae565b604082019050919050565b60006020820190508181036000830152613639816135fd565b9050919050565b7f5065726d697373696f6e733a2053656e64657220646f6573206e6f742068617660008201527f65206d616e6167656d656e74206b657900000000000000000000000000000000602082015250565b600061369c603083612d6a565b91506136a782613640565b604082019050919050565b600060208201905081810360008301526136cb8161368f565b9050919050565b7f4e487b7100000000000000000000000000000000000000000000000000000000600052603260045260246000fd5b7f436f6e666c6963743a204b657920616c72656164792068617320707572706f7360008201527f6500000000000000000000000000000000000000000000000000000000000000602082015250565b600061375d602183612d6a565b915061376882613701565b604082019050919050565b6000602082019050818103600083015261378c81613750565b9050919050565b7f4e487b7100000000000000000000000000000000000000000000000000000000600052601160045260246000fd5b60006137cd826129ca565b91507fffffffffffffffffffffffffffffffffffffffffffffffffffffffffffffffff82036137ff576137fe613793565b5b600182019050919050565b60006138168385613461565b9350613823838584613068565b61382c83612da5565b840190509392505050565b600060608201905061384c600083018761342c565b6138596020830186612a66565b818103604083015261386c81848661380a565b905095945050505050565b7f5065726d697373696f6e733a2053656e64657220646f6573206e6f742068617660008201527f6520636c61696d207369676e6572206b65790000000000000000000000000000602082015250565b60006138d3603283612d6a565b91506138de82613877565b604082019050919050565b60006020820190508181036000830152613902816138c6565b9050919050565b7f4e6f6e4578697374696e673a205468657265206973206e6f20636c61696d207760008201527f6974682074686973204944000000000000000000000000000000000000000000602082015250565b6000613965602b83612d6a565b915061397082613909565b604082019050919050565b6000602082019050818103600083015261399481613958565b9050919050565b60006139a6826129ca565b91506139b1836129ca565b92508282039050818111156139c9576139c8613793565b5b92915050565b7f4e487b7100000000000000000000000000000000000000000000000000000000600052603160045260246000fd5b7f4e487b7100000000000000000000000000000000000000000000000000000000600052602260045260246000fd5b60006002820490506001821680613a4557607f821691505b602082108103613a5857613a576139fe565b5b50919050565b60008190508160005260206000209050919050565b60008154613a8081613a2d565b613a8a8186613461565b94506001821660008114613aa55760018114613abb57613aee565b60ff198316865281151560200286019350613aee565b613ac485613a5e565b60005b83811015613ae657815481890152600182019150602081019050613ac7565b808801955050505b50505092915050565b60008190508160005260206000209050919050565b60008154613b1981613a2d565b613b238186612d6a565b94506001821660008114613b3e5760018114613b5457613b87565b60ff198316865281151560200286019350613b87565b613b5d85613af7565b60005b83811015613b7f57815481890152600182019150602081019050613b60565b808801955050505b50505092915050565b6000608082019050613ba56000830187612a66565b8181036020830152613bb78186613a73565b90508181036040830152613bcb8185613a73565b90508181036060830152613bdf8184613b0c565b905095945050505050565b7f4e6f6e4578697374696e673a204b65792069736e27742072656769737465726560008201527f6400000000000000000000000000000000000000000000000000000000000000602082015250565b6000613c46602183612d6a565b9150613c5182613bea565b604082019050919050565b60006020820190508181036000830152613c7581613c39565b9050919050565b7f4e6f6e4578697374696e673a204b657920646f65736e2774206861766520737560008201527f636820707572706f736500000000000000000000000000000000000000000000602082015250565b6000613cd8602a83612d6a565b9150613ce382613c7c565b604082019050919050565b60006020820190508181036000830152613d0781613ccb565b9050919050565b7f43616e6e6f7420617070726f76652061206e6f6e2d6578697374696e6720657860008201527f65637574696f6e00000000000000000000000000000000000000000000000000602082015250565b6000613d6a602783612d6a565b9150613d7582613d0e565b604082019050919050565b60006020820190508181036000830152613d9981613d5d565b9050919050565b7f5265717565737420616c72656164792065786563757465640000000000000000600082015250565b6000613dd6601883612d6a565b9150613de182613da0565b602082019050919050565b60006020820190508181036000830152613e0581613dc9565b9050919050565b7f53656e64657220646f6573206e6f742068617665206d616e6167656d656e742060008201527f6b65790000000000000000000000000000000000000000000000000000000000602082015250565b6000613e68602383612d6a565b9150613e7382613e0c565b604082019050919050565b60006020820190508181036000830152613e9781613e5b565b9050919050565b7f53656e64657220646f6573206e6f74206861766520616374696f6e206b657900600082015250565b6000613ed4601f83612d6a565b9150613edf82613e9e565b602082019050919050565b60006020820190508181036000830152613f0381613ec7565b9050919050565b600081905092915050565b60008154613f2281613a2d565b613f2c8186613f0a565b94506001821660008114613f475760018114613f5c57613f8f565b60ff1983168652811515820286019350613f8f565b613f6585613a5e565b60005b83811015613f8757815481890152600182019150602081019050613f68565b838801955050505b50505092915050565b6000613fa48284613f15565b915081905092915050565b60006020820190508181036000830152613fc98184613a73565b905092915050565b6000819050919050565b6000613ff6613ff1613fec84612bcd565b613fd1565b612bcd565b9050919050565b600061400882613fdb565b9050919050565b600061401a82613ffd565b9050919050565b61402a8161400f565b82525050565b60006080820190506140456000830187614021565b6140526020830186612a66565b81810360408301526140648185613472565b905081810360608301526140788184613472565b905095945050505050565b60008151905061409281612e11565b92915050565b6000602082840312156140ae576140ad612931565b5b60006140bc84828501614083565b91505092915050565b7f696e76616c696420636c61696d00000000000000000000000000000000000000600082015250565b60006140fb600d83612d6a565b9150614106826140c5565b602082019050919050565b6000602082019050818103600083015261412a816140ee565b9050919050565b6000604082019050614146600083018561342c565b6141536020830184612a66565b9392505050565b60006020601f8301049050919050565b600082821b905092915050565b6000600883026141a77fffffffffffffffffffffffffffffffffffffffffffffffffffffffffffffffff8261416a565b6141b1868361416a565b95508019841693508086168417925050509392505050565b60006141e46141df6141da846129ca565b613fd1565b6129ca565b9050919050565b6000819050919050565b6141fe836141c9565b61421261420a826141eb565b848454614177565b825550505050565b600090565b61422761421a565b6142328184846141f5565b505050565b5b818110156142565761424b60008261421f565b600181019050614238565b5050565b601f82111561429b5761426c81613a5e565b6142758461415a565b81016020851015614284578190505b6142986142908561415a565b830182614237565b50505b505050565b600082821c905092915050565b60006142be600019846008026142a0565b1980831691505092915050565b60006142d783836142ad565b9150826002028217905092915050565b6142f082613456565b67ffffffffffffffff81111561430957614308612fbc565b5b6143138254613a2d565b61431e82828561425a565b600060209050601f831160018114614351576000841561433f578287015190505b61434985826142cb565b8655506143b1565b601f19841661435f86613a5e565b60005b8281101561438757848901518255600182019150602085019450602081019050614362565b868310156143a457848901516143a0601f8916826142ad565b8355505b6001600288020188555050505b505050505050565b601f8211156143fa576143cb81613af7565b6143d48461415a565b810160208510156143e3578190505b6143f76143ef8561415a565b830182614237565b50505b505050565b61440882612d5f565b67ffffffffffffffff81111561442157614420612fbc565b5b61442b8254613a2d565b6144368282856143b9565b600060209050601f8311600181146144695760008415614457578287015190505b61446185826142cb565b8655506144c9565b601f19841661447786613af7565b60005b8281101561449f5784890151825560018201915060208501945060208101905061447a565b868310156144bc57848901516144b8601f8916826142ad565b8355505b6001600288020188555050505b505050505050565b60006080820190506144e66000830187612a66565b81810360208301526144f88186613472565b9050818103604083015261450c8185613472565b905081810360608301526145208184612db6565b905095945050505050565b60006060820190506145406000830186614021565b61454d6020830185612a66565b818103604083015261455f8184613472565b9050949350505050565b600081905092915050565b7f19457468657265756d205369676e6564204d6573736167653a0a333200000000600082015250565b60006145aa601c83614569565b91506145b582614574565b601c82019050919050565b6000819050919050565b6145db6145d68261293b565b6145c0565b82525050565b60006145ec8261459d565b91506145f882846145ca565b60208201915081905092915050565b600060ff82169050919050565b600061461f82614607565b915061462a83614607565b9250828201905060ff81111561464357614642613793565b5b92915050565b61465281614607565b82525050565b600060808201905061466d6000830187612a75565b61467a6020830186614649565b6146876040830185612a75565b6146946060830184612a75565b95945050505050565b7f696e76616c696420617267756d656e74202d207a65726f206164647265737300600082015250565b60006146d3601f83612d6a565b91506146de8261469d565b602082019050919050565b60006020820190508181036000830152614702816146c6565b9050919050565b7f496e697469616c206b65792077617320616c72656164792073657475702e0000600082015250565b600061473f601e83612d6a565b915061474a82614709565b602082019050919050565b6000602082019050818103600083015261476e81614732565b905091905056fea2646970667358221220ea7f24ae9829a417b9f2a9e0b063cdd3467f2b5adc44b0be4c4109b9679ea69864736f6c63430008110033a26469706673582212206b887c1150f06b8f70866d721025bde4d6de275774f9f8280ef1107d286de37064736f6c63430008110033",
			"opcodes": "PUSH1 0x80 PUSH1 0x40 MSTORE CALLVALUE DUP1 ISZERO PUSH2 0x10 JUMPI PUSH1 0x0 DUP1 REVERT JUMPDEST POP PUSH2 0x50F9 DUP1 PUSH2 0x20 PUSH1 0x0 CODECOPY PUSH1 0x0 RETURN INVALID PUSH1 0x80 PUSH1 0x40 MSTORE CALLVALUE DUP1 ISZERO PUSH2 0x10 JUMPI PUSH1 0x0 DUP1 REVERT JUMPDEST POP PUSH1 0x4 CALLDATASIZE LT PUSH2 0x36 JUMPI PUSH1 0x0 CALLDATALOAD PUSH1 0xE0 SHR DUP1 PUSH4 0x52487A07 EQ PUSH2 0x3B JUMPI DUP1 PUSH4 0xDAF9175E EQ PUSH2 0x6B JUMPI JUMPDEST PUSH1 0x0 DUP1 REVERT JUMPDEST PUSH2 0x55 PUSH1 0x4 DUP1 CALLDATASIZE SUB DUP2 ADD SWAP1 PUSH2 0x50 SWAP2 SWAP1 PUSH2 0x318 JUMP JUMPDEST PUSH2 0x9B JUMP JUMPDEST PUSH1 0x40 MLOAD PUSH2 0x62 SWAP2 SWAP1 PUSH2 0x354 JUMP JUMPDEST PUSH1 0x40 MLOAD DUP1 SWAP2 SUB SWAP1 RETURN JUMPDEST PUSH2 0x85 PUSH1 0x4 DUP1 CALLDATASIZE SUB DUP2 ADD SWAP1 PUSH2 0x80 SWAP2 SWAP1 PUSH2 0x318 JUMP JUMPDEST PUSH2 0x103 JUMP JUMPDEST PUSH1 0x40 MLOAD PUSH2 0x92 SWAP2 SWAP1 PUSH2 0x354 JUMP JUMPDEST PUSH1 0x40 MLOAD DUP1 SWAP2 SUB SWAP1 RETURN JUMPDEST PUSH1 0x0 DUP1 PUSH1 0x0 DUP4 PUSH20 0xFFFFFFFFFFFFFFFFFFFFFFFFFFFFFFFFFFFFFFFF AND PUSH20 0xFFFFFFFFFFFFFFFFFFFFFFFFFFFFFFFFFFFFFFFF AND DUP2 MSTORE PUSH1 0x20 ADD SWAP1 DUP2 MSTORE PUSH1 0x20 ADD PUSH1 0x0 KECCAK256 PUSH1 0x0 SWAP1 SLOAD SWAP1 PUSH2 0x100 EXP SWAP1 DIV PUSH20 0xFFFFFFFFFFFFFFFFFFFFFFFFFFFFFFFFFFFFFFFF AND SWAP1 POP SWAP2 SWAP1 POP JUMP JUMPDEST PUSH1 0x0 PUSH1 0x1 PUSH1 0x0 DUP4 PUSH20 0xFFFFFFFFFFFFFFFFFFFFFFFFFFFFFFFFFFFFFFFF AND PUSH20 0xFFFFFFFFFFFFFFFFFFFFFFFFFFFFFFFFFFFFFFFF AND DUP2 MSTORE PUSH1 0x20 ADD SWAP1 DUP2 MSTORE PUSH1 0x20 ADD PUSH1 0x0 KECCAK256 PUSH1 0x0 SWAP1 SLOAD SWAP1 PUSH2 0x100 EXP SWAP1 DIV PUSH1 0xFF AND ISZERO PUSH2 0x192 JUMPI PUSH1 0x40 MLOAD PUSH32 0x8C379A000000000000000000000000000000000000000000000000000000000 DUP2 MSTORE PUSH1 0x4 ADD PUSH2 0x189 SWAP1 PUSH2 0x3CC JUMP JUMPDEST PUSH1 0x40 MLOAD DUP1 SWAP2 SUB SWAP1 REVERT JUMPDEST PUSH1 0x0 DUP3 PUSH1 0x40 MLOAD PUSH2 0x1A1 SWAP1 PUSH2 0x2A7 JUMP JUMPDEST PUSH2 0x1AB SWAP2 SWAP1 PUSH2 0x354 JUMP JUMPDEST PUSH1 0x40 MLOAD DUP1 SWAP2 SUB SWAP1 PUSH1 0x0 CREATE DUP1 ISZERO DUP1 ISZERO PUSH2 0x1C7 JUMPI RETURNDATASIZE PUSH1 0x0 DUP1 RETURNDATACOPY RETURNDATASIZE PUSH1 0x0 REVERT JUMPDEST POP SWAP1 POP DUP1 PUSH1 0x0 DUP1 DUP6 PUSH20 0xFFFFFFFFFFFFFFFFFFFFFFFFFFFFFFFFFFFFFFFF AND PUSH20 0xFFFFFFFFFFFFFFFFFFFFFFFFFFFFFFFFFFFFFFFF AND DUP2 MSTORE PUSH1 0x20 ADD SWAP1 DUP2 MSTORE PUSH1 0x20 ADD PUSH1 0x0 KECCAK256 PUSH1 0x0 PUSH2 0x100 EXP DUP2 SLOAD DUP2 PUSH20 0xFFFFFFFFFFFFFFFFFFFFFFFFFFFFFFFFFFFFFFFF MUL NOT AND SWAP1 DUP4 PUSH20 0xFFFFFFFFFFFFFFFFFFFFFFFFFFFFFFFFFFFFFFFF AND MUL OR SWAP1 SSTORE POP PUSH1 0x1 DUP1 PUSH1 0x0 DUP6 PUSH20 0xFFFFFFFFFFFFFFFFFFFFFFFFFFFFFFFFFFFFFFFF AND PUSH20 0xFFFFFFFFFFFFFFFFFFFFFFFFFFFFFFFFFFFFFFFF AND DUP2 MSTORE PUSH1 0x20 ADD SWAP1 DUP2 MSTORE PUSH1 0x20 ADD PUSH1 0x0 KECCAK256 PUSH1 0x0 PUSH2 0x100 EXP DUP2 SLOAD DUP2 PUSH1 0xFF MUL NOT AND SWAP1 DUP4 ISZERO ISZERO MUL OR SWAP1 SSTORE POP DUP1 SWAP2 POP POP SWAP2 SWAP1 POP JUMP JUMPDEST PUSH2 0x4CD7 DUP1 PUSH3 0x3ED DUP4 CODECOPY ADD SWAP1 JUMP JUMPDEST PUSH1 0x0 DUP1 REVERT JUMPDEST PUSH1 0x0 PUSH20 0xFFFFFFFFFFFFFFFFFFFFFFFFFFFFFFFFFFFFFFFF DUP3 AND SWAP1 POP SWAP2 SWAP1 POP JUMP JUMPDEST PUSH1 0x0 PUSH2 0x2E5 DUP3 PUSH2 0x2BA JUMP JUMPDEST SWAP1 POP SWAP2 SWAP1 POP JUMP JUMPDEST PUSH2 0x2F5 DUP2 PUSH2 0x2DA JUMP JUMPDEST DUP2 EQ PUSH2 0x300 JUMPI PUSH1 0x0 DUP1 REVERT JUMPDEST POP JUMP JUMPDEST PUSH1 0x0 DUP2 CALLDATALOAD SWAP1 POP PUSH2 0x312 DUP2 PUSH2 0x2EC JUMP JUMPDEST SWAP3 SWAP2 POP POP JUMP JUMPDEST PUSH1 0x0 PUSH1 0x20 DUP3 DUP5 SUB SLT ISZERO PUSH2 0x32E JUMPI PUSH2 0x32D PUSH2 0x2B5 JUMP JUMPDEST JUMPDEST PUSH1 0x0 PUSH2 0x33C DUP5 DUP3 DUP6 ADD PUSH2 0x303 JUMP JUMPDEST SWAP2 POP POP SWAP3 SWAP2 POP POP JUMP JUMPDEST PUSH2 0x34E DUP2 PUSH2 0x2DA JUMP JUMPDEST DUP3 MSTORE POP POP JUMP JUMPDEST PUSH1 0x0 PUSH1 0x20 DUP3 ADD SWAP1 POP PUSH2 0x369 PUSH1 0x0 DUP4 ADD DUP5 PUSH2 0x345 JUMP JUMPDEST SWAP3 SWAP2 POP POP JUMP JUMPDEST PUSH1 0x0 DUP3 DUP3 MSTORE PUSH1 0x20 DUP3 ADD SWAP1 POP SWAP3 SWAP2 POP POP JUMP JUMPDEST PUSH32 0x796F752061726520616C72656164792072656769737465726564000000000000 PUSH1 0x0 DUP3 ADD MSTORE POP JUMP JUMPDEST PUSH1 0x0 PUSH2 0x3B6 PUSH1 0x1A DUP4 PUSH2 0x36F JUMP JUMPDEST SWAP2 POP PUSH2 0x3C1 DUP3 PUSH2 0x380 JUMP JUMPDEST PUSH1 0x20 DUP3 ADD SWAP1 POP SWAP2 SWAP1 POP JUMP JUMPDEST PUSH1 0x0 PUSH1 0x20 DUP3 ADD SWAP1 POP DUP2 DUP2 SUB PUSH1 0x0 DUP4 ADD MSTORE PUSH2 0x3E5 DUP2 PUSH2 0x3A9 JUMP JUMPDEST SWAP1 POP SWAP2 SWAP1 POP JUMP INVALID PUSH1 0x80 PUSH1 0x40 MSTORE PUSH1 0x0 PUSH1 0x6 PUSH1 0x0 PUSH2 0x100 EXP DUP2 SLOAD DUP2 PUSH1 0xFF MUL NOT AND SWAP1 DUP4 ISZERO ISZERO MUL OR SWAP1 SSTORE POP PUSH1 0x0 PUSH1 0x6 PUSH1 0x1 PUSH2 0x100 EXP DUP2 SLOAD DUP2 PUSH1 0xFF MUL NOT AND SWAP1 DUP4 ISZERO ISZERO MUL OR SWAP1 SSTORE POP CALLVALUE DUP1 ISZERO PUSH3 0x47 JUMPI PUSH1 0x0 DUP1 REVERT JUMPDEST POP PUSH1 0x40 MLOAD PUSH3 0x4CD7 CODESIZE SUB DUP1 PUSH3 0x4CD7 DUP4 CODECOPY DUP2 DUP2 ADD PUSH1 0x40 MSTORE DUP2 ADD SWAP1 PUSH3 0x6D SWAP2 SWAP1 PUSH3 0x3C7 JUMP JUMPDEST DUP1 PUSH1 0x0 DUP1 PUSH20 0xFFFFFFFFFFFFFFFFFFFFFFFFFFFFFFFFFFFFFFFF AND DUP3 PUSH20 0xFFFFFFFFFFFFFFFFFFFFFFFFFFFFFFFFFFFFFFFF AND SUB PUSH3 0xE1 JUMPI PUSH1 0x40 MLOAD PUSH32 0x8C379A000000000000000000000000000000000000000000000000000000000 DUP2 MSTORE PUSH1 0x4 ADD PUSH3 0xD8 SWAP1 PUSH3 0x45A JUMP JUMPDEST PUSH1 0x40 MLOAD DUP1 SWAP2 SUB SWAP1 REVERT JUMPDEST DUP1 PUSH3 0xFE JUMPI PUSH3 0xF8 DUP3 PUSH3 0x123 PUSH1 0x20 SHL PUSH1 0x20 SHR JUMP JUMPDEST PUSH3 0x11A JUMP JUMPDEST PUSH1 0x1 PUSH1 0x6 PUSH1 0x0 PUSH2 0x100 EXP DUP2 SLOAD DUP2 PUSH1 0xFF MUL NOT AND SWAP1 DUP4 ISZERO ISZERO MUL OR SWAP1 SSTORE POP JUMPDEST POP POP POP PUSH3 0x51C JUMP JUMPDEST PUSH1 0x6 PUSH1 0x0 SWAP1 SLOAD SWAP1 PUSH2 0x100 EXP SWAP1 DIV PUSH1 0xFF AND ISZERO DUP1 PUSH3 0x14C JUMPI POP PUSH3 0x14B PUSH3 0x2D0 PUSH1 0x20 SHL PUSH1 0x20 SHR JUMP JUMPDEST JUMPDEST PUSH3 0x18E JUMPI PUSH1 0x40 MLOAD PUSH32 0x8C379A000000000000000000000000000000000000000000000000000000000 DUP2 MSTORE PUSH1 0x4 ADD PUSH3 0x185 SWAP1 PUSH3 0x4CC JUMP JUMPDEST PUSH1 0x40 MLOAD DUP1 SWAP2 SUB SWAP1 REVERT JUMPDEST PUSH1 0x1 PUSH1 0x6 PUSH1 0x0 PUSH2 0x100 EXP DUP2 SLOAD DUP2 PUSH1 0xFF MUL NOT AND SWAP1 DUP4 ISZERO ISZERO MUL OR SWAP1 SSTORE POP PUSH1 0x1 PUSH1 0x6 PUSH1 0x1 PUSH2 0x100 EXP DUP2 SLOAD DUP2 PUSH1 0xFF MUL NOT AND SWAP1 DUP4 ISZERO ISZERO MUL OR SWAP1 SSTORE POP PUSH1 0x0 DUP2 PUSH1 0x40 MLOAD PUSH1 0x20 ADD PUSH3 0x1D9 SWAP2 SWAP1 PUSH3 0x4FF JUMP JUMPDEST PUSH1 0x40 MLOAD PUSH1 0x20 DUP2 DUP4 SUB SUB DUP2 MSTORE SWAP1 PUSH1 0x40 MSTORE DUP1 MLOAD SWAP1 PUSH1 0x20 ADD KECCAK256 SWAP1 POP DUP1 PUSH1 0x1 PUSH1 0x0 DUP4 DUP2 MSTORE PUSH1 0x20 ADD SWAP1 DUP2 MSTORE PUSH1 0x20 ADD PUSH1 0x0 KECCAK256 PUSH1 0x2 ADD DUP2 SWAP1 SSTORE POP PUSH1 0x40 MLOAD DUP1 PUSH1 0x20 ADD PUSH1 0x40 MSTORE DUP1 PUSH1 0x1 PUSH1 0xFF AND DUP2 MSTORE POP PUSH1 0x1 PUSH1 0x0 DUP4 DUP2 MSTORE PUSH1 0x20 ADD SWAP1 DUP2 MSTORE PUSH1 0x20 ADD PUSH1 0x0 KECCAK256 PUSH1 0x0 ADD SWAP1 PUSH1 0x1 PUSH3 0x245 SWAP3 SWAP2 SWAP1 PUSH3 0x2E7 JUMP JUMPDEST POP PUSH1 0x1 DUP1 PUSH1 0x0 DUP4 DUP2 MSTORE PUSH1 0x20 ADD SWAP1 DUP2 MSTORE PUSH1 0x20 ADD PUSH1 0x0 KECCAK256 PUSH1 0x1 ADD DUP2 SWAP1 SSTORE POP PUSH1 0x2 PUSH1 0x0 PUSH1 0x1 DUP2 MSTORE PUSH1 0x20 ADD SWAP1 DUP2 MSTORE PUSH1 0x20 ADD PUSH1 0x0 KECCAK256 DUP2 SWAP1 DUP1 PUSH1 0x1 DUP2 SLOAD ADD DUP1 DUP3 SSTORE DUP1 SWAP2 POP POP PUSH1 0x1 SWAP1 SUB SWAP1 PUSH1 0x0 MSTORE PUSH1 0x20 PUSH1 0x0 KECCAK256 ADD PUSH1 0x0 SWAP1 SWAP2 SWAP1 SWAP2 SWAP1 SWAP2 POP SSTORE PUSH1 0x1 DUP1 DUP3 PUSH32 0x480000BB1EDAD8CA1470381CC334B1917FBD51C6531F3A623EA8E0EC7E38A6E9 PUSH1 0x40 MLOAD PUSH1 0x40 MLOAD DUP1 SWAP2 SUB SWAP1 LOG4 POP POP JUMP JUMPDEST PUSH1 0x0 DUP1 ADDRESS SWAP1 POP PUSH1 0x0 DUP2 EXTCODESIZE SWAP1 POP PUSH1 0x0 DUP2 EQ SWAP3 POP POP POP SWAP1 JUMP JUMPDEST DUP3 DUP1 SLOAD DUP3 DUP3 SSTORE SWAP1 PUSH1 0x0 MSTORE PUSH1 0x20 PUSH1 0x0 KECCAK256 SWAP1 DUP2 ADD SWAP3 DUP3 ISZERO PUSH3 0x32B JUMPI SWAP2 PUSH1 0x20 MUL DUP3 ADD JUMPDEST DUP3 DUP2 GT ISZERO PUSH3 0x32A JUMPI DUP3 MLOAD DUP3 SWAP1 PUSH1 0xFF AND SWAP1 SSTORE SWAP2 PUSH1 0x20 ADD SWAP2 SWAP1 PUSH1 0x1 ADD SWAP1 PUSH3 0x308 JUMP JUMPDEST JUMPDEST POP SWAP1 POP PUSH3 0x33A SWAP2 SWAP1 PUSH3 0x33E JUMP JUMPDEST POP SWAP1 JUMP JUMPDEST JUMPDEST DUP1 DUP3 GT ISZERO PUSH3 0x359 JUMPI PUSH1 0x0 DUP2 PUSH1 0x0 SWAP1 SSTORE POP PUSH1 0x1 ADD PUSH3 0x33F JUMP JUMPDEST POP SWAP1 JUMP JUMPDEST PUSH1 0x0 DUP1 REVERT JUMPDEST PUSH1 0x0 PUSH20 0xFFFFFFFFFFFFFFFFFFFFFFFFFFFFFFFFFFFFFFFF DUP3 AND SWAP1 POP SWAP2 SWAP1 POP JUMP JUMPDEST PUSH1 0x0 PUSH3 0x38F DUP3 PUSH3 0x362 JUMP JUMPDEST SWAP1 POP SWAP2 SWAP1 POP JUMP JUMPDEST PUSH3 0x3A1 DUP2 PUSH3 0x382 JUMP JUMPDEST DUP2 EQ PUSH3 0x3AD JUMPI PUSH1 0x0 DUP1 REVERT JUMPDEST POP JUMP JUMPDEST PUSH1 0x0 DUP2 MLOAD SWAP1 POP PUSH3 0x3C1 DUP2 PUSH3 0x396 JUMP JUMPDEST SWAP3 SWAP2 POP POP JUMP JUMPDEST PUSH1 0x0 PUSH1 0x20 DUP3 DUP5 SUB SLT ISZERO PUSH3 0x3E0 JUMPI PUSH3 0x3DF PUSH3 0x35D JUMP JUMPDEST JUMPDEST PUSH1 0x0 PUSH3 0x3F0 DUP5 DUP3 DUP6 ADD PUSH3 0x3B0 JUMP JUMPDEST SWAP2 POP POP SWAP3 SWAP2 POP POP JUMP JUMPDEST PUSH1 0x0 DUP3 DUP3 MSTORE PUSH1 0x20 DUP3 ADD SWAP1 POP SWAP3 SWAP2 POP POP JUMP JUMPDEST PUSH32 0x696E76616C696420617267756D656E74202D207A65726F206164647265737300 PUSH1 0x0 DUP3 ADD MSTORE POP JUMP JUMPDEST PUSH1 0x0 PUSH3 0x442 PUSH1 0x1F DUP4 PUSH3 0x3F9 JUMP JUMPDEST SWAP2 POP PUSH3 0x44F DUP3 PUSH3 0x40A JUMP JUMPDEST PUSH1 0x20 DUP3 ADD SWAP1 POP SWAP2 SWAP1 POP JUMP JUMPDEST PUSH1 0x0 PUSH1 0x20 DUP3 ADD SWAP1 POP DUP2 DUP2 SUB PUSH1 0x0 DUP4 ADD MSTORE PUSH3 0x475 DUP2 PUSH3 0x433 JUMP JUMPDEST SWAP1 POP SWAP2 SWAP1 POP JUMP JUMPDEST PUSH32 0x496E697469616C206B65792077617320616C72656164792073657475702E0000 PUSH1 0x0 DUP3 ADD MSTORE POP JUMP JUMPDEST PUSH1 0x0 PUSH3 0x4B4 PUSH1 0x1E DUP4 PUSH3 0x3F9 JUMP JUMPDEST SWAP2 POP PUSH3 0x4C1 DUP3 PUSH3 0x47C JUMP JUMPDEST PUSH1 0x20 DUP3 ADD SWAP1 POP SWAP2 SWAP1 POP JUMP JUMPDEST PUSH1 0x0 PUSH1 0x20 DUP3 ADD SWAP1 POP DUP2 DUP2 SUB PUSH1 0x0 DUP4 ADD MSTORE PUSH3 0x4E7 DUP2 PUSH3 0x4A5 JUMP JUMPDEST SWAP1 POP SWAP2 SWAP1 POP JUMP JUMPDEST PUSH3 0x4F9 DUP2 PUSH3 0x382 JUMP JUMPDEST DUP3 MSTORE POP POP JUMP JUMPDEST PUSH1 0x0 PUSH1 0x20 DUP3 ADD SWAP1 POP PUSH3 0x516 PUSH1 0x0 DUP4 ADD DUP5 PUSH3 0x4EE JUMP JUMPDEST SWAP3 SWAP2 POP POP JUMP JUMPDEST PUSH2 0x47AB DUP1 PUSH3 0x52C PUSH1 0x0 CODECOPY PUSH1 0x0 RETURN INVALID PUSH1 0x80 PUSH1 0x40 MSTORE PUSH1 0x4 CALLDATASIZE LT PUSH2 0x11F JUMPI PUSH1 0x0 CALLDATALOAD PUSH1 0xE0 SHR DUP1 PUSH4 0xA192B909 GT PUSH2 0xA0 JUMPI DUP1 PUSH4 0xC4D66DE8 GT PUSH2 0x64 JUMPI DUP1 PUSH4 0xC4D66DE8 EQ PUSH2 0x488 JUMPI DUP1 PUSH4 0xC9100BCB EQ PUSH2 0x4B1 JUMPI DUP1 PUSH4 0xCF3C6FEB EQ PUSH2 0x4F3 JUMPI DUP1 PUSH4 0xD202158D EQ PUSH2 0x530 JUMPI DUP1 PUSH4 0xFB307B34 EQ PUSH2 0x56D JUMPI PUSH2 0x11F JUMP JUMPDEST DUP1 PUSH4 0xA192B909 EQ PUSH2 0x364 JUMPI DUP1 PUSH4 0xB1A34E0D EQ PUSH2 0x3A1 JUMPI DUP1 PUSH4 0xB61D27F6 EQ PUSH2 0x3DE JUMPI DUP1 PUSH4 0xC0969A6E EQ PUSH2 0x40E JUMPI DUP1 PUSH4 0xC3B129E3 EQ PUSH2 0x44B JUMPI PUSH2 0x11F JUMP JUMPDEST DUP1 PUSH4 0x53D413C5 GT PUSH2 0xE7 JUMPI DUP1 PUSH4 0x53D413C5 EQ PUSH2 0x245 JUMPI DUP1 PUSH4 0x54FD4D50 EQ PUSH2 0x282 JUMPI DUP1 PUSH4 0x747442D3 EQ PUSH2 0x2AD JUMPI DUP1 PUSH4 0x80E9E9E1 EQ PUSH2 0x2EA JUMPI DUP1 PUSH4 0x9010F726 EQ PUSH2 0x327 JUMPI PUSH2 0x11F JUMP JUMPDEST DUP1 PUSH4 0x12AAAC70 EQ PUSH2 0x124 JUMPI DUP1 PUSH4 0x1D381240 EQ PUSH2 0x163 JUMPI DUP1 PUSH4 0x360B429A EQ PUSH2 0x1A0 JUMPI DUP1 PUSH4 0x4226D55A EQ PUSH2 0x1CB JUMPI DUP1 PUSH4 0x4EEE424A EQ PUSH2 0x208 JUMPI JUMPDEST PUSH1 0x0 DUP1 REVERT JUMPDEST CALLVALUE DUP1 ISZERO PUSH2 0x130 JUMPI PUSH1 0x0 DUP1 REVERT JUMPDEST POP PUSH2 0x14B PUSH1 0x4 DUP1 CALLDATASIZE SUB DUP2 ADD SWAP1 PUSH2 0x146 SWAP2 SWAP1 PUSH2 0x2971 JUMP JUMPDEST PUSH2 0x5AA JUMP JUMPDEST PUSH1 0x40 MLOAD PUSH2 0x15A SWAP4 SWAP3 SWAP2 SWAP1 PUSH2 0x2A84 JUMP JUMPDEST PUSH1 0x40 MLOAD DUP1 SWAP2 SUB SWAP1 RETURN JUMPDEST CALLVALUE DUP1 ISZERO PUSH2 0x16F JUMPI PUSH1 0x0 DUP1 REVERT JUMPDEST POP PUSH2 0x18A PUSH1 0x4 DUP1 CALLDATASIZE SUB DUP2 ADD SWAP1 PUSH2 0x185 SWAP2 SWAP1 PUSH2 0x2AEE JUMP JUMPDEST PUSH2 0x652 JUMP JUMPDEST PUSH1 0x40 MLOAD PUSH2 0x197 SWAP2 SWAP1 PUSH2 0x2B5C JUMP JUMPDEST PUSH1 0x40 MLOAD DUP1 SWAP2 SUB SWAP1 RETURN JUMPDEST CALLVALUE DUP1 ISZERO PUSH2 0x1AC JUMPI PUSH1 0x0 DUP1 REVERT JUMPDEST POP PUSH2 0x1B5 PUSH2 0x97A JUMP JUMPDEST PUSH1 0x40 MLOAD PUSH2 0x1C2 SWAP2 SWAP1 PUSH2 0x2BB2 JUMP JUMPDEST PUSH1 0x40 MLOAD DUP1 SWAP2 SUB SWAP1 RETURN JUMPDEST CALLVALUE DUP1 ISZERO PUSH2 0x1D7 JUMPI PUSH1 0x0 DUP1 REVERT JUMPDEST POP PUSH2 0x1F2 PUSH1 0x4 DUP1 CALLDATASIZE SUB DUP2 ADD SWAP1 PUSH2 0x1ED SWAP2 SWAP1 PUSH2 0x2C90 JUMP JUMPDEST PUSH2 0x9BE JUMP JUMPDEST PUSH1 0x40 MLOAD PUSH2 0x1FF SWAP2 SWAP1 PUSH2 0x2D04 JUMP JUMPDEST PUSH1 0x40 MLOAD DUP1 SWAP2 SUB SWAP1 RETURN JUMPDEST CALLVALUE DUP1 ISZERO PUSH2 0x214 JUMPI PUSH1 0x0 DUP1 REVERT JUMPDEST POP PUSH2 0x22F PUSH1 0x4 DUP1 CALLDATASIZE SUB DUP2 ADD SWAP1 PUSH2 0x22A SWAP2 SWAP1 PUSH2 0x2971 JUMP JUMPDEST PUSH2 0x9F7 JUMP JUMPDEST PUSH1 0x40 MLOAD PUSH2 0x23C SWAP2 SWAP1 PUSH2 0x2B5C JUMP JUMPDEST PUSH1 0x40 MLOAD DUP1 SWAP2 SUB SWAP1 RETURN JUMPDEST CALLVALUE DUP1 ISZERO PUSH2 0x251 JUMPI PUSH1 0x0 DUP1 REVERT JUMPDEST POP PUSH2 0x26C PUSH1 0x4 DUP1 CALLDATASIZE SUB DUP2 ADD SWAP1 PUSH2 0x267 SWAP2 SWAP1 PUSH2 0x2D1F JUMP JUMPDEST PUSH2 0xDCE JUMP JUMPDEST PUSH1 0x40 MLOAD PUSH2 0x279 SWAP2 SWAP1 PUSH2 0x2B5C JUMP JUMPDEST PUSH1 0x40 MLOAD DUP1 SWAP2 SUB SWAP1 RETURN JUMPDEST CALLVALUE DUP1 ISZERO PUSH2 0x28E JUMPI PUSH1 0x0 DUP1 REVERT JUMPDEST POP PUSH2 0x297 PUSH2 0x126B JUMP JUMPDEST PUSH1 0x40 MLOAD PUSH2 0x2A4 SWAP2 SWAP1 PUSH2 0x2DEF JUMP JUMPDEST PUSH1 0x40 MLOAD DUP1 SWAP2 SUB SWAP1 RETURN JUMPDEST CALLVALUE DUP1 ISZERO PUSH2 0x2B9 JUMPI PUSH1 0x0 DUP1 REVERT JUMPDEST POP PUSH2 0x2D4 PUSH1 0x4 DUP1 CALLDATASIZE SUB DUP2 ADD SWAP1 PUSH2 0x2CF SWAP2 SWAP1 PUSH2 0x2E3D JUMP JUMPDEST PUSH2 0x12A8 JUMP JUMPDEST PUSH1 0x40 MLOAD PUSH2 0x2E1 SWAP2 SWAP1 PUSH2 0x2B5C JUMP JUMPDEST PUSH1 0x40 MLOAD DUP1 SWAP2 SUB SWAP1 RETURN JUMPDEST CALLVALUE DUP1 ISZERO PUSH2 0x2F6 JUMPI PUSH1 0x0 DUP1 REVERT JUMPDEST POP PUSH2 0x311 PUSH1 0x4 DUP1 CALLDATASIZE SUB DUP2 ADD SWAP1 PUSH2 0x30C SWAP2 SWAP1 PUSH2 0x2E7D JUMP JUMPDEST PUSH2 0x181C JUMP JUMPDEST PUSH1 0x40 MLOAD PUSH2 0x31E SWAP2 SWAP1 PUSH2 0x2F68 JUMP JUMPDEST PUSH1 0x40 MLOAD DUP1 SWAP2 SUB SWAP1 RETURN JUMPDEST CALLVALUE DUP1 ISZERO PUSH2 0x333 JUMPI PUSH1 0x0 DUP1 REVERT JUMPDEST POP PUSH2 0x34E PUSH1 0x4 DUP1 CALLDATASIZE SUB DUP2 ADD SWAP1 PUSH2 0x349 SWAP2 SWAP1 PUSH2 0x2E7D JUMP JUMPDEST PUSH2 0x1887 JUMP JUMPDEST PUSH1 0x40 MLOAD PUSH2 0x35B SWAP2 SWAP1 PUSH2 0x2F68 JUMP JUMPDEST PUSH1 0x40 MLOAD DUP1 SWAP2 SUB SWAP1 RETURN JUMPDEST CALLVALUE DUP1 ISZERO PUSH2 0x370 JUMPI PUSH1 0x0 DUP1 REVERT JUMPDEST POP PUSH2 0x38B PUSH1 0x4 DUP1 CALLDATASIZE SUB DUP2 ADD SWAP1 PUSH2 0x386 SWAP2 SWAP1 PUSH2 0x2F8A JUMP JUMPDEST PUSH2 0x18F2 JUMP JUMPDEST PUSH1 0x40 MLOAD PUSH2 0x398 SWAP2 SWAP1 PUSH2 0x2D04 JUMP JUMPDEST PUSH1 0x40 MLOAD DUP1 SWAP2 SUB SWAP1 RETURN JUMPDEST CALLVALUE DUP1 ISZERO PUSH2 0x3AD JUMPI PUSH1 0x0 DUP1 REVERT JUMPDEST POP PUSH2 0x3C8 PUSH1 0x4 DUP1 CALLDATASIZE SUB DUP2 ADD SWAP1 PUSH2 0x3C3 SWAP2 SWAP1 PUSH2 0x3188 JUMP JUMPDEST PUSH2 0x1922 JUMP JUMPDEST PUSH1 0x40 MLOAD PUSH2 0x3D5 SWAP2 SWAP1 PUSH2 0x2D04 JUMP JUMPDEST PUSH1 0x40 MLOAD DUP1 SWAP2 SUB SWAP1 RETURN JUMPDEST PUSH2 0x3F8 PUSH1 0x4 DUP1 CALLDATASIZE SUB DUP2 ADD SWAP1 PUSH2 0x3F3 SWAP2 SWAP1 PUSH2 0x3269 JUMP JUMPDEST PUSH2 0x1D9A JUMP JUMPDEST PUSH1 0x40 MLOAD PUSH2 0x405 SWAP2 SWAP1 PUSH2 0x32D8 JUMP JUMPDEST PUSH1 0x40 MLOAD DUP1 SWAP2 SUB SWAP1 RETURN JUMPDEST CALLVALUE DUP1 ISZERO PUSH2 0x41A JUMPI PUSH1 0x0 DUP1 REVERT JUMPDEST POP PUSH2 0x435 PUSH1 0x4 DUP1 CALLDATASIZE SUB DUP2 ADD SWAP1 PUSH2 0x430 SWAP2 SWAP1 PUSH2 0x3331 JUMP JUMPDEST PUSH2 0x1FC1 JUMP JUMPDEST PUSH1 0x40 MLOAD PUSH2 0x442 SWAP2 SWAP1 PUSH2 0x2B5C JUMP JUMPDEST PUSH1 0x40 MLOAD DUP1 SWAP2 SUB SWAP1 RETURN JUMPDEST CALLVALUE DUP1 ISZERO PUSH2 0x457 JUMPI PUSH1 0x0 DUP1 REVERT JUMPDEST POP PUSH2 0x472 PUSH1 0x4 DUP1 CALLDATASIZE SUB DUP2 ADD SWAP1 PUSH2 0x46D SWAP2 SWAP1 PUSH2 0x33D0 JUMP JUMPDEST PUSH2 0x2083 JUMP JUMPDEST PUSH1 0x40 MLOAD PUSH2 0x47F SWAP2 SWAP1 PUSH2 0x343B JUMP JUMPDEST PUSH1 0x40 MLOAD DUP1 SWAP2 SUB SWAP1 RETURN JUMPDEST CALLVALUE DUP1 ISZERO PUSH2 0x494 JUMPI PUSH1 0x0 DUP1 REVERT JUMPDEST POP PUSH2 0x4AF PUSH1 0x4 DUP1 CALLDATASIZE SUB DUP2 ADD SWAP1 PUSH2 0x4AA SWAP2 SWAP1 PUSH2 0x2F8A JUMP JUMPDEST PUSH2 0x2133 JUMP JUMPDEST STOP JUMPDEST CALLVALUE DUP1 ISZERO PUSH2 0x4BD JUMPI PUSH1 0x0 DUP1 REVERT JUMPDEST POP PUSH2 0x4D8 PUSH1 0x4 DUP1 CALLDATASIZE SUB DUP2 ADD SWAP1 PUSH2 0x4D3 SWAP2 SWAP1 PUSH2 0x2971 JUMP JUMPDEST PUSH2 0x21AE JUMP JUMPDEST PUSH1 0x40 MLOAD PUSH2 0x4EA SWAP7 SWAP6 SWAP5 SWAP4 SWAP3 SWAP2 SWAP1 PUSH2 0x34AB JUMP JUMPDEST PUSH1 0x40 MLOAD DUP1 SWAP2 SUB SWAP1 RETURN JUMPDEST CALLVALUE DUP1 ISZERO PUSH2 0x4FF JUMPI PUSH1 0x0 DUP1 REVERT JUMPDEST POP PUSH2 0x51A PUSH1 0x4 DUP1 CALLDATASIZE SUB DUP2 ADD SWAP1 PUSH2 0x515 SWAP2 SWAP1 PUSH2 0x3521 JUMP JUMPDEST PUSH2 0x2418 JUMP JUMPDEST PUSH1 0x40 MLOAD PUSH2 0x527 SWAP2 SWAP1 PUSH2 0x356A JUMP JUMPDEST PUSH1 0x40 MLOAD DUP1 SWAP2 SUB SWAP1 RETURN JUMPDEST CALLVALUE DUP1 ISZERO PUSH2 0x53C JUMPI PUSH1 0x0 DUP1 REVERT JUMPDEST POP PUSH2 0x557 PUSH1 0x4 DUP1 CALLDATASIZE SUB DUP2 ADD SWAP1 PUSH2 0x552 SWAP2 SWAP1 PUSH2 0x2D1F JUMP JUMPDEST PUSH2 0x2441 JUMP JUMPDEST PUSH1 0x40 MLOAD PUSH2 0x564 SWAP2 SWAP1 PUSH2 0x2B5C JUMP JUMPDEST PUSH1 0x40 MLOAD DUP1 SWAP2 SUB SWAP1 RETURN JUMPDEST CALLVALUE DUP1 ISZERO PUSH2 0x579 JUMPI PUSH1 0x0 DUP1 REVERT JUMPDEST POP PUSH2 0x594 PUSH1 0x4 DUP1 CALLDATASIZE SUB DUP2 ADD SWAP1 PUSH2 0x58F SWAP2 SWAP1 PUSH2 0x2971 JUMP JUMPDEST PUSH2 0x255B JUMP JUMPDEST PUSH1 0x40 MLOAD PUSH2 0x5A1 SWAP2 SWAP1 PUSH2 0x358C JUMP JUMPDEST PUSH1 0x40 MLOAD DUP1 SWAP2 SUB SWAP1 RETURN JUMPDEST PUSH1 0x60 PUSH1 0x0 DUP1 PUSH1 0x1 PUSH1 0x0 DUP6 DUP2 MSTORE PUSH1 0x20 ADD SWAP1 DUP2 MSTORE PUSH1 0x20 ADD PUSH1 0x0 KECCAK256 PUSH1 0x0 ADD PUSH1 0x1 PUSH1 0x0 DUP7 DUP2 MSTORE PUSH1 0x20 ADD SWAP1 DUP2 MSTORE PUSH1 0x20 ADD PUSH1 0x0 KECCAK256 PUSH1 0x1 ADD SLOAD PUSH1 0x1 PUSH1 0x0 DUP8 DUP2 MSTORE PUSH1 0x20 ADD SWAP1 DUP2 MSTORE PUSH1 0x20 ADD PUSH1 0x0 KECCAK256 PUSH1 0x2 ADD SLOAD DUP3 DUP1 SLOAD DUP1 PUSH1 0x20 MUL PUSH1 0x20 ADD PUSH1 0x40 MLOAD SWAP1 DUP2 ADD PUSH1 0x40 MSTORE DUP1 SWAP3 SWAP2 SWAP1 DUP2 DUP2 MSTORE PUSH1 0x20 ADD DUP3 DUP1 SLOAD DUP1 ISZERO PUSH2 0x63E JUMPI PUSH1 0x20 MUL DUP3 ADD SWAP2 SWAP1 PUSH1 0x0 MSTORE PUSH1 0x20 PUSH1 0x0 KECCAK256 SWAP1 JUMPDEST DUP2 SLOAD DUP2 MSTORE PUSH1 0x20 ADD SWAP1 PUSH1 0x1 ADD SWAP1 DUP1 DUP4 GT PUSH2 0x62A JUMPI JUMPDEST POP POP POP POP POP SWAP3 POP SWAP3 POP SWAP3 POP SWAP3 POP SWAP2 SWAP4 SWAP1 SWAP3 POP JUMP JUMPDEST PUSH1 0x0 PUSH1 0x1 ISZERO ISZERO PUSH1 0x6 PUSH1 0x1 SWAP1 SLOAD SWAP1 PUSH2 0x100 EXP SWAP1 DIV PUSH1 0xFF AND ISZERO ISZERO EQ PUSH2 0x6AA JUMPI PUSH1 0x40 MLOAD PUSH32 0x8C379A000000000000000000000000000000000000000000000000000000000 DUP2 MSTORE PUSH1 0x4 ADD PUSH2 0x6A1 SWAP1 PUSH2 0x3620 JUMP JUMPDEST PUSH1 0x40 MLOAD DUP1 SWAP2 SUB SWAP1 REVERT JUMPDEST ADDRESS PUSH20 0xFFFFFFFFFFFFFFFFFFFFFFFFFFFFFFFFFFFFFFFF AND CALLER PUSH20 0xFFFFFFFFFFFFFFFFFFFFFFFFFFFFFFFFFFFFFFFF AND EQ DUP1 PUSH2 0x711 JUMPI POP PUSH2 0x710 CALLER PUSH1 0x40 MLOAD PUSH1 0x20 ADD PUSH2 0x6F3 SWAP2 SWAP1 PUSH2 0x343B JUMP JUMPDEST PUSH1 0x40 MLOAD PUSH1 0x20 DUP2 DUP4 SUB SUB DUP2 MSTORE SWAP1 PUSH1 0x40 MSTORE DUP1 MLOAD SWAP1 PUSH1 0x20 ADD KECCAK256 PUSH1 0x1 PUSH2 0x2441 JUMP JUMPDEST JUMPDEST PUSH2 0x750 JUMPI PUSH1 0x40 MLOAD PUSH32 0x8C379A000000000000000000000000000000000000000000000000000000000 DUP2 MSTORE PUSH1 0x4 ADD PUSH2 0x747 SWAP1 PUSH2 0x36B2 JUMP JUMPDEST PUSH1 0x40 MLOAD DUP1 SWAP2 SUB SWAP1 REVERT JUMPDEST DUP4 PUSH1 0x1 PUSH1 0x0 DUP7 DUP2 MSTORE PUSH1 0x20 ADD SWAP1 DUP2 MSTORE PUSH1 0x20 ADD PUSH1 0x0 KECCAK256 PUSH1 0x2 ADD SLOAD SUB PUSH2 0x89B JUMPI PUSH1 0x0 PUSH1 0x1 PUSH1 0x0 DUP7 DUP2 MSTORE PUSH1 0x20 ADD SWAP1 DUP2 MSTORE PUSH1 0x20 ADD PUSH1 0x0 KECCAK256 PUSH1 0x0 ADD DUP1 SLOAD DUP1 PUSH1 0x20 MUL PUSH1 0x20 ADD PUSH1 0x40 MLOAD SWAP1 DUP2 ADD PUSH1 0x40 MSTORE DUP1 SWAP3 SWAP2 SWAP1 DUP2 DUP2 MSTORE PUSH1 0x20 ADD DUP3 DUP1 SLOAD DUP1 ISZERO PUSH2 0x7CF JUMPI PUSH1 0x20 MUL DUP3 ADD SWAP2 SWAP1 PUSH1 0x0 MSTORE PUSH1 0x20 PUSH1 0x0 KECCAK256 SWAP1 JUMPDEST DUP2 SLOAD DUP2 MSTORE PUSH1 0x20 ADD SWAP1 PUSH1 0x1 ADD SWAP1 DUP1 DUP4 GT PUSH2 0x7BB JUMPI JUMPDEST POP POP POP POP POP SWAP1 POP PUSH1 0x0 JUMPDEST DUP2 MLOAD DUP2 LT ISZERO PUSH2 0x857 JUMPI PUSH1 0x0 DUP3 DUP3 DUP2 MLOAD DUP2 LT PUSH2 0x7F7 JUMPI PUSH2 0x7F6 PUSH2 0x36D2 JUMP JUMPDEST JUMPDEST PUSH1 0x20 MUL PUSH1 0x20 ADD ADD MLOAD SWAP1 POP DUP6 DUP2 SUB PUSH2 0x843 JUMPI PUSH1 0x40 MLOAD PUSH32 0x8C379A000000000000000000000000000000000000000000000000000000000 DUP2 MSTORE PUSH1 0x4 ADD PUSH2 0x83A SWAP1 PUSH2 0x3773 JUMP JUMPDEST PUSH1 0x40 MLOAD DUP1 SWAP2 SUB SWAP1 REVERT JUMPDEST POP DUP1 DUP1 PUSH2 0x84F SWAP1 PUSH2 0x37C2 JUMP JUMPDEST SWAP2 POP POP PUSH2 0x7D9 JUMP JUMPDEST POP PUSH1 0x1 PUSH1 0x0 DUP7 DUP2 MSTORE PUSH1 0x20 ADD SWAP1 DUP2 MSTORE PUSH1 0x20 ADD PUSH1 0x0 KECCAK256 PUSH1 0x0 ADD DUP5 SWAP1 DUP1 PUSH1 0x1 DUP2 SLOAD ADD DUP1 DUP3 SSTORE DUP1 SWAP2 POP POP PUSH1 0x1 SWAP1 SUB SWAP1 PUSH1 0x0 MSTORE PUSH1 0x20 PUSH1 0x0 KECCAK256 ADD PUSH1 0x0 SWAP1 SWAP2 SWAP1 SWAP2 SWAP1 SWAP2 POP SSTORE POP PUSH2 0x906 JUMP JUMPDEST DUP4 PUSH1 0x1 PUSH1 0x0 DUP7 DUP2 MSTORE PUSH1 0x20 ADD SWAP1 DUP2 MSTORE PUSH1 0x20 ADD PUSH1 0x0 KECCAK256 PUSH1 0x2 ADD DUP2 SWAP1 SSTORE POP PUSH1 0x40 MLOAD DUP1 PUSH1 0x20 ADD PUSH1 0x40 MSTORE DUP1 DUP5 DUP2 MSTORE POP PUSH1 0x1 PUSH1 0x0 DUP7 DUP2 MSTORE PUSH1 0x20 ADD SWAP1 DUP2 MSTORE PUSH1 0x20 ADD PUSH1 0x0 KECCAK256 PUSH1 0x0 ADD SWAP1 PUSH1 0x1 PUSH2 0x8E9 SWAP3 SWAP2 SWAP1 PUSH2 0x277D JUMP JUMPDEST POP DUP2 PUSH1 0x1 PUSH1 0x0 DUP7 DUP2 MSTORE PUSH1 0x20 ADD SWAP1 DUP2 MSTORE PUSH1 0x20 ADD PUSH1 0x0 KECCAK256 PUSH1 0x1 ADD DUP2 SWAP1 SSTORE POP JUMPDEST PUSH1 0x2 PUSH1 0x0 DUP5 DUP2 MSTORE PUSH1 0x20 ADD SWAP1 DUP2 MSTORE PUSH1 0x20 ADD PUSH1 0x0 KECCAK256 DUP5 SWAP1 DUP1 PUSH1 0x1 DUP2 SLOAD ADD DUP1 DUP3 SSTORE DUP1 SWAP2 POP POP PUSH1 0x1 SWAP1 SUB SWAP1 PUSH1 0x0 MSTORE PUSH1 0x20 PUSH1 0x0 KECCAK256 ADD PUSH1 0x0 SWAP1 SWAP2 SWAP1 SWAP2 SWAP1 SWAP2 POP SSTORE DUP2 DUP4 DUP6 PUSH32 0x480000BB1EDAD8CA1470381CC334B1917FBD51C6531F3A623EA8E0EC7E38A6E9 PUSH1 0x40 MLOAD PUSH1 0x40 MLOAD DUP1 SWAP2 SUB SWAP1 LOG4 PUSH1 0x1 SWAP1 POP SWAP4 SWAP3 POP POP POP JUMP JUMPDEST PUSH1 0x0 PUSH1 0x40 MLOAD DUP1 PUSH1 0x40 ADD PUSH1 0x40 MSTORE DUP1 PUSH1 0x11 DUP2 MSTORE PUSH1 0x20 ADD PUSH32 0x62797465736461746128737472696E6729000000000000000000000000000000 DUP2 MSTORE POP DUP1 MLOAD SWAP1 PUSH1 0x20 ADD KECCAK256 SWAP1 POP SWAP1 JUMP JUMPDEST PUSH1 0x0 DUP5 DUP5 DUP5 DUP5 PUSH1 0x40 MLOAD PUSH1 0x20 ADD PUSH2 0x9D7 SWAP5 SWAP4 SWAP3 SWAP2 SWAP1 PUSH2 0x3837 JUMP JUMPDEST PUSH1 0x40 MLOAD PUSH1 0x20 DUP2 DUP4 SUB SUB DUP2 MSTORE SWAP1 PUSH1 0x40 MSTORE DUP1 MLOAD SWAP1 PUSH1 0x20 ADD KECCAK256 SWAP1 POP SWAP5 SWAP4 POP POP POP POP JUMP JUMPDEST PUSH1 0x0 PUSH1 0x1 ISZERO ISZERO PUSH1 0x6 PUSH1 0x1 SWAP1 SLOAD SWAP1 PUSH2 0x100 EXP SWAP1 DIV PUSH1 0xFF AND ISZERO ISZERO EQ PUSH2 0xA4F JUMPI PUSH1 0x40 MLOAD PUSH32 0x8C379A000000000000000000000000000000000000000000000000000000000 DUP2 MSTORE PUSH1 0x4 ADD PUSH2 0xA46 SWAP1 PUSH2 0x3620 JUMP JUMPDEST PUSH1 0x40 MLOAD DUP1 SWAP2 SUB SWAP1 REVERT JUMPDEST ADDRESS PUSH20 0xFFFFFFFFFFFFFFFFFFFFFFFFFFFFFFFFFFFFFFFF AND CALLER PUSH20 0xFFFFFFFFFFFFFFFFFFFFFFFFFFFFFFFFFFFFFFFF AND EQ DUP1 PUSH2 0xAB6 JUMPI POP PUSH2 0xAB5 CALLER PUSH1 0x40 MLOAD PUSH1 0x20 ADD PUSH2 0xA98 SWAP2 SWAP1 PUSH2 0x343B JUMP JUMPDEST PUSH1 0x40 MLOAD PUSH1 0x20 DUP2 DUP4 SUB SUB DUP2 MSTORE SWAP1 PUSH1 0x40 MSTORE DUP1 MLOAD SWAP1 PUSH1 0x20 ADD KECCAK256 PUSH1 0x3 PUSH2 0x2441 JUMP JUMPDEST JUMPDEST PUSH2 0xAF5 JUMPI PUSH1 0x40 MLOAD PUSH32 0x8C379A000000000000000000000000000000000000000000000000000000000 DUP2 MSTORE PUSH1 0x4 ADD PUSH2 0xAEC SWAP1 PUSH2 0x38E9 JUMP JUMPDEST PUSH1 0x40 MLOAD DUP1 SWAP2 SUB SWAP1 REVERT JUMPDEST PUSH1 0x0 PUSH1 0x4 PUSH1 0x0 DUP5 DUP2 MSTORE PUSH1 0x20 ADD SWAP1 DUP2 MSTORE PUSH1 0x20 ADD PUSH1 0x0 KECCAK256 PUSH1 0x0 ADD SLOAD SWAP1 POP PUSH1 0x0 DUP2 SUB PUSH2 0xB53 JUMPI PUSH1 0x40 MLOAD PUSH32 0x8C379A000000000000000000000000000000000000000000000000000000000 DUP2 MSTORE PUSH1 0x4 ADD PUSH2 0xB4A SWAP1 PUSH2 0x397B JUMP JUMPDEST PUSH1 0x40 MLOAD DUP1 SWAP2 SUB SWAP1 REVERT JUMPDEST PUSH1 0x0 DUP1 PUSH1 0x5 PUSH1 0x0 DUP5 DUP2 MSTORE PUSH1 0x20 ADD SWAP1 DUP2 MSTORE PUSH1 0x20 ADD PUSH1 0x0 KECCAK256 DUP1 SLOAD SWAP1 POP SWAP1 POP JUMPDEST DUP5 PUSH1 0x5 PUSH1 0x0 DUP6 DUP2 MSTORE PUSH1 0x20 ADD SWAP1 DUP2 MSTORE PUSH1 0x20 ADD PUSH1 0x0 KECCAK256 DUP4 DUP2 SLOAD DUP2 LT PUSH2 0xB96 JUMPI PUSH2 0xB95 PUSH2 0x36D2 JUMP JUMPDEST JUMPDEST SWAP1 PUSH1 0x0 MSTORE PUSH1 0x20 PUSH1 0x0 KECCAK256 ADD SLOAD EQ PUSH2 0xBBC JUMPI DUP2 DUP1 PUSH2 0xBB1 SWAP1 PUSH2 0x37C2 JUMP JUMPDEST SWAP3 POP POP DUP1 DUP3 LT PUSH2 0xB70 JUMPI JUMPDEST PUSH1 0x5 PUSH1 0x0 DUP5 DUP2 MSTORE PUSH1 0x20 ADD SWAP1 DUP2 MSTORE PUSH1 0x20 ADD PUSH1 0x0 KECCAK256 PUSH1 0x1 DUP3 PUSH2 0xBDC SWAP2 SWAP1 PUSH2 0x399B JUMP JUMPDEST DUP2 SLOAD DUP2 LT PUSH2 0xBED JUMPI PUSH2 0xBEC PUSH2 0x36D2 JUMP JUMPDEST JUMPDEST SWAP1 PUSH1 0x0 MSTORE PUSH1 0x20 PUSH1 0x0 KECCAK256 ADD SLOAD PUSH1 0x5 PUSH1 0x0 DUP6 DUP2 MSTORE PUSH1 0x20 ADD SWAP1 DUP2 MSTORE PUSH1 0x20 ADD PUSH1 0x0 KECCAK256 DUP4 DUP2 SLOAD DUP2 LT PUSH2 0xC1D JUMPI PUSH2 0xC1C PUSH2 0x36D2 JUMP JUMPDEST JUMPDEST SWAP1 PUSH1 0x0 MSTORE PUSH1 0x20 PUSH1 0x0 KECCAK256 ADD DUP2 SWAP1 SSTORE POP PUSH1 0x5 PUSH1 0x0 DUP5 DUP2 MSTORE PUSH1 0x20 ADD SWAP1 DUP2 MSTORE PUSH1 0x20 ADD PUSH1 0x0 KECCAK256 DUP1 SLOAD DUP1 PUSH2 0xC4E JUMPI PUSH2 0xC4D PUSH2 0x39CF JUMP JUMPDEST JUMPDEST PUSH1 0x1 SWAP1 SUB DUP2 DUP2 SWAP1 PUSH1 0x0 MSTORE PUSH1 0x20 PUSH1 0x0 KECCAK256 ADD PUSH1 0x0 SWAP1 SSTORE SWAP1 SSTORE PUSH1 0x4 PUSH1 0x0 DUP7 DUP2 MSTORE PUSH1 0x20 ADD SWAP1 DUP2 MSTORE PUSH1 0x20 ADD PUSH1 0x0 KECCAK256 PUSH1 0x2 ADD PUSH1 0x0 SWAP1 SLOAD SWAP1 PUSH2 0x100 EXP SWAP1 DIV PUSH20 0xFFFFFFFFFFFFFFFFFFFFFFFFFFFFFFFFFFFFFFFF AND PUSH20 0xFFFFFFFFFFFFFFFFFFFFFFFFFFFFFFFFFFFFFFFF AND DUP4 DUP7 PUSH32 0x3CF57863A89432C61C4A27073C6EE39E8A764BFF5A05AEBFBCDCDC80B2E6130A PUSH1 0x4 PUSH1 0x0 DUP11 DUP2 MSTORE PUSH1 0x20 ADD SWAP1 DUP2 MSTORE PUSH1 0x20 ADD PUSH1 0x0 KECCAK256 PUSH1 0x1 ADD SLOAD PUSH1 0x4 PUSH1 0x0 DUP12 DUP2 MSTORE PUSH1 0x20 ADD SWAP1 DUP2 MSTORE PUSH1 0x20 ADD PUSH1 0x0 KECCAK256 PUSH1 0x3 ADD PUSH1 0x4 PUSH1 0x0 DUP13 DUP2 MSTORE PUSH1 0x20 ADD SWAP1 DUP2 MSTORE PUSH1 0x20 ADD PUSH1 0x0 KECCAK256 PUSH1 0x4 ADD PUSH1 0x4 PUSH1 0x0 DUP14 DUP2 MSTORE PUSH1 0x20 ADD SWAP1 DUP2 MSTORE PUSH1 0x20 ADD PUSH1 0x0 KECCAK256 PUSH1 0x5 ADD PUSH1 0x40 MLOAD PUSH2 0xD3D SWAP5 SWAP4 SWAP3 SWAP2 SWAP1 PUSH2 0x3B90 JUMP JUMPDEST PUSH1 0x40 MLOAD DUP1 SWAP2 SUB SWAP1 LOG4 PUSH1 0x4 PUSH1 0x0 DUP7 DUP2 MSTORE PUSH1 0x20 ADD SWAP1 DUP2 MSTORE PUSH1 0x20 ADD PUSH1 0x0 KECCAK256 PUSH1 0x0 DUP1 DUP3 ADD PUSH1 0x0 SWAP1 SSTORE PUSH1 0x1 DUP3 ADD PUSH1 0x0 SWAP1 SSTORE PUSH1 0x2 DUP3 ADD PUSH1 0x0 PUSH2 0x100 EXP DUP2 SLOAD SWAP1 PUSH20 0xFFFFFFFFFFFFFFFFFFFFFFFFFFFFFFFFFFFFFFFF MUL NOT AND SWAP1 SSTORE PUSH1 0x3 DUP3 ADD PUSH1 0x0 PUSH2 0xDA0 SWAP2 SWAP1 PUSH2 0x27CA JUMP JUMPDEST PUSH1 0x4 DUP3 ADD PUSH1 0x0 PUSH2 0xDB0 SWAP2 SWAP1 PUSH2 0x27CA JUMP JUMPDEST PUSH1 0x5 DUP3 ADD PUSH1 0x0 PUSH2 0xDC0 SWAP2 SWAP1 PUSH2 0x280A JUMP JUMPDEST POP POP PUSH1 0x1 SWAP4 POP POP POP POP SWAP2 SWAP1 POP JUMP JUMPDEST PUSH1 0x0 PUSH1 0x1 ISZERO ISZERO PUSH1 0x6 PUSH1 0x1 SWAP1 SLOAD SWAP1 PUSH2 0x100 EXP SWAP1 DIV PUSH1 0xFF AND ISZERO ISZERO EQ PUSH2 0xE26 JUMPI PUSH1 0x40 MLOAD PUSH32 0x8C379A000000000000000000000000000000000000000000000000000000000 DUP2 MSTORE PUSH1 0x4 ADD PUSH2 0xE1D SWAP1 PUSH2 0x3620 JUMP JUMPDEST PUSH1 0x40 MLOAD DUP1 SWAP2 SUB SWAP1 REVERT JUMPDEST ADDRESS PUSH20 0xFFFFFFFFFFFFFFFFFFFFFFFFFFFFFFFFFFFFFFFF AND CALLER PUSH20 0xFFFFFFFFFFFFFFFFFFFFFFFFFFFFFFFFFFFFFFFF AND EQ DUP1 PUSH2 0xE8D JUMPI POP PUSH2 0xE8C CALLER PUSH1 0x40 MLOAD PUSH1 0x20 ADD PUSH2 0xE6F SWAP2 SWAP1 PUSH2 0x343B JUMP JUMPDEST PUSH1 0x40 MLOAD PUSH1 0x20 DUP2 DUP4 SUB SUB DUP2 MSTORE SWAP1 PUSH1 0x40 MSTORE DUP1 MLOAD SWAP1 PUSH1 0x20 ADD KECCAK256 PUSH1 0x1 PUSH2 0x2441 JUMP JUMPDEST JUMPDEST PUSH2 0xECC JUMPI PUSH1 0x40 MLOAD PUSH32 0x8C379A000000000000000000000000000000000000000000000000000000000 DUP2 MSTORE PUSH1 0x4 ADD PUSH2 0xEC3 SWAP1 PUSH2 0x36B2 JUMP JUMPDEST PUSH1 0x40 MLOAD DUP1 SWAP2 SUB SWAP1 REVERT JUMPDEST DUP3 PUSH1 0x1 PUSH1 0x0 DUP6 DUP2 MSTORE PUSH1 0x20 ADD SWAP1 DUP2 MSTORE PUSH1 0x20 ADD PUSH1 0x0 KECCAK256 PUSH1 0x2 ADD SLOAD EQ PUSH2 0xF24 JUMPI PUSH1 0x40 MLOAD PUSH32 0x8C379A000000000000000000000000000000000000000000000000000000000 DUP2 MSTORE PUSH1 0x4 ADD PUSH2 0xF1B SWAP1 PUSH2 0x3C5C JUMP JUMPDEST PUSH1 0x40 MLOAD DUP1 SWAP2 SUB SWAP1 REVERT JUMPDEST PUSH1 0x0 PUSH1 0x1 PUSH1 0x0 DUP6 DUP2 MSTORE PUSH1 0x20 ADD SWAP1 DUP2 MSTORE PUSH1 0x20 ADD PUSH1 0x0 KECCAK256 PUSH1 0x0 ADD DUP1 SLOAD DUP1 PUSH1 0x20 MUL PUSH1 0x20 ADD PUSH1 0x40 MLOAD SWAP1 DUP2 ADD PUSH1 0x40 MSTORE DUP1 SWAP3 SWAP2 SWAP1 DUP2 DUP2 MSTORE PUSH1 0x20 ADD DUP3 DUP1 SLOAD DUP1 ISZERO PUSH2 0xF86 JUMPI PUSH1 0x20 MUL DUP3 ADD SWAP2 SWAP1 PUSH1 0x0 MSTORE PUSH1 0x20 PUSH1 0x0 KECCAK256 SWAP1 JUMPDEST DUP2 SLOAD DUP2 MSTORE PUSH1 0x20 ADD SWAP1 PUSH1 0x1 ADD SWAP1 DUP1 DUP4 GT PUSH2 0xF72 JUMPI JUMPDEST POP POP POP POP POP SWAP1 POP PUSH1 0x0 JUMPDEST DUP4 DUP3 DUP3 DUP2 MLOAD DUP2 LT PUSH2 0xFA4 JUMPI PUSH2 0xFA3 PUSH2 0x36D2 JUMP JUMPDEST JUMPDEST PUSH1 0x20 MUL PUSH1 0x20 ADD ADD MLOAD EQ PUSH2 0x1007 JUMPI DUP1 DUP1 PUSH2 0xFBC SWAP1 PUSH2 0x37C2 JUMP JUMPDEST SWAP2 POP POP DUP2 MLOAD DUP2 SUB PUSH2 0x1002 JUMPI PUSH1 0x40 MLOAD PUSH32 0x8C379A000000000000000000000000000000000000000000000000000000000 DUP2 MSTORE PUSH1 0x4 ADD PUSH2 0xFF9 SWAP1 PUSH2 0x3CEE JUMP JUMPDEST PUSH1 0x40 MLOAD DUP1 SWAP2 SUB SWAP1 REVERT JUMPDEST PUSH2 0xF90 JUMP JUMPDEST DUP2 PUSH1 0x1 DUP4 MLOAD PUSH2 0x1016 SWAP2 SWAP1 PUSH2 0x399B JUMP JUMPDEST DUP2 MLOAD DUP2 LT PUSH2 0x1027 JUMPI PUSH2 0x1026 PUSH2 0x36D2 JUMP JUMPDEST JUMPDEST PUSH1 0x20 MUL PUSH1 0x20 ADD ADD MLOAD DUP3 DUP3 DUP2 MLOAD DUP2 LT PUSH2 0x1042 JUMPI PUSH2 0x1041 PUSH2 0x36D2 JUMP JUMPDEST JUMPDEST PUSH1 0x20 MUL PUSH1 0x20 ADD ADD DUP2 DUP2 MSTORE POP POP DUP2 PUSH1 0x1 PUSH1 0x0 DUP8 DUP2 MSTORE PUSH1 0x20 ADD SWAP1 DUP2 MSTORE PUSH1 0x20 ADD PUSH1 0x0 KECCAK256 PUSH1 0x0 ADD SWAP1 DUP1 MLOAD SWAP1 PUSH1 0x20 ADD SWAP1 PUSH2 0x1078 SWAP3 SWAP2 SWAP1 PUSH2 0x284A JUMP JUMPDEST POP PUSH1 0x1 PUSH1 0x0 DUP7 DUP2 MSTORE PUSH1 0x20 ADD SWAP1 DUP2 MSTORE PUSH1 0x20 ADD PUSH1 0x0 KECCAK256 PUSH1 0x0 ADD DUP1 SLOAD DUP1 PUSH2 0x109F JUMPI PUSH2 0x109E PUSH2 0x39CF JUMP JUMPDEST JUMPDEST PUSH1 0x1 SWAP1 SUB DUP2 DUP2 SWAP1 PUSH1 0x0 MSTORE PUSH1 0x20 PUSH1 0x0 KECCAK256 ADD PUSH1 0x0 SWAP1 SSTORE SWAP1 SSTORE PUSH1 0x0 DUP1 PUSH1 0x2 PUSH1 0x0 DUP8 DUP2 MSTORE PUSH1 0x20 ADD SWAP1 DUP2 MSTORE PUSH1 0x20 ADD PUSH1 0x0 KECCAK256 DUP1 SLOAD SWAP1 POP SWAP1 POP JUMPDEST DUP7 PUSH1 0x2 PUSH1 0x0 DUP9 DUP2 MSTORE PUSH1 0x20 ADD SWAP1 DUP2 MSTORE PUSH1 0x20 ADD PUSH1 0x0 KECCAK256 DUP4 DUP2 SLOAD DUP2 LT PUSH2 0x10F8 JUMPI PUSH2 0x10F7 PUSH2 0x36D2 JUMP JUMPDEST JUMPDEST SWAP1 PUSH1 0x0 MSTORE PUSH1 0x20 PUSH1 0x0 KECCAK256 ADD SLOAD EQ PUSH2 0x111E JUMPI DUP2 DUP1 PUSH2 0x1113 SWAP1 PUSH2 0x37C2 JUMP JUMPDEST SWAP3 POP POP DUP1 DUP3 LT PUSH2 0x10D2 JUMPI JUMPDEST PUSH1 0x2 PUSH1 0x0 DUP8 DUP2 MSTORE PUSH1 0x20 ADD SWAP1 DUP2 MSTORE PUSH1 0x20 ADD PUSH1 0x0 KECCAK256 PUSH1 0x1 DUP3 PUSH2 0x113E SWAP2 SWAP1 PUSH2 0x399B JUMP JUMPDEST DUP2 SLOAD DUP2 LT PUSH2 0x114F JUMPI PUSH2 0x114E PUSH2 0x36D2 JUMP JUMPDEST JUMPDEST SWAP1 PUSH1 0x0 MSTORE PUSH1 0x20 PUSH1 0x0 KECCAK256 ADD SLOAD PUSH1 0x2 PUSH1 0x0 DUP9 DUP2 MSTORE PUSH1 0x20 ADD SWAP1 DUP2 MSTORE PUSH1 0x20 ADD PUSH1 0x0 KECCAK256 DUP4 DUP2 SLOAD DUP2 LT PUSH2 0x117F JUMPI PUSH2 0x117E PUSH2 0x36D2 JUMP JUMPDEST JUMPDEST SWAP1 PUSH1 0x0 MSTORE PUSH1 0x20 PUSH1 0x0 KECCAK256 ADD DUP2 SWAP1 SSTORE POP PUSH1 0x2 PUSH1 0x0 DUP8 DUP2 MSTORE PUSH1 0x20 ADD SWAP1 DUP2 MSTORE PUSH1 0x20 ADD PUSH1 0x0 KECCAK256 DUP1 SLOAD DUP1 PUSH2 0x11B0 JUMPI PUSH2 0x11AF PUSH2 0x39CF JUMP JUMPDEST JUMPDEST PUSH1 0x1 SWAP1 SUB DUP2 DUP2 SWAP1 PUSH1 0x0 MSTORE PUSH1 0x20 PUSH1 0x0 KECCAK256 ADD PUSH1 0x0 SWAP1 SSTORE SWAP1 SSTORE PUSH1 0x0 PUSH1 0x1 PUSH1 0x0 DUP10 DUP2 MSTORE PUSH1 0x20 ADD SWAP1 DUP2 MSTORE PUSH1 0x20 ADD PUSH1 0x0 KECCAK256 PUSH1 0x1 ADD SLOAD SWAP1 POP PUSH1 0x0 PUSH1 0x1 DUP7 MLOAD PUSH2 0x11F1 SWAP2 SWAP1 PUSH2 0x399B JUMP JUMPDEST SUB PUSH2 0x122D JUMPI PUSH1 0x1 PUSH1 0x0 DUP10 DUP2 MSTORE PUSH1 0x20 ADD SWAP1 DUP2 MSTORE PUSH1 0x20 ADD PUSH1 0x0 KECCAK256 PUSH1 0x0 DUP1 DUP3 ADD PUSH1 0x0 PUSH2 0x121A SWAP2 SWAP1 PUSH2 0x2897 JUMP JUMPDEST PUSH1 0x1 DUP3 ADD PUSH1 0x0 SWAP1 SSTORE PUSH1 0x2 DUP3 ADD PUSH1 0x0 SWAP1 SSTORE POP POP JUMPDEST DUP1 DUP8 DUP10 PUSH32 0x585A4AEF50F8267A92B32412B331B20F7F8B96F2245B253B9CC50DCC621D3397 PUSH1 0x40 MLOAD PUSH1 0x40 MLOAD DUP1 SWAP2 SUB SWAP1 LOG4 PUSH1 0x1 SWAP6 POP POP POP POP POP POP SWAP3 SWAP2 POP POP JUMP JUMPDEST PUSH1 0x60 PUSH1 0x40 MLOAD DUP1 PUSH1 0x40 ADD PUSH1 0x40 MSTORE DUP1 PUSH1 0x5 DUP2 MSTORE PUSH1 0x20 ADD PUSH32 0x322E322E31000000000000000000000000000000000000000000000000000000 DUP2 MSTORE POP SWAP1 POP SWAP1 JUMP JUMPDEST PUSH1 0x0 PUSH1 0x1 ISZERO ISZERO PUSH1 0x6 PUSH1 0x1 SWAP1 SLOAD SWAP1 PUSH2 0x100 EXP SWAP1 DIV PUSH1 0xFF AND ISZERO ISZERO EQ PUSH2 0x1300 JUMPI PUSH1 0x40 MLOAD PUSH32 0x8C379A000000000000000000000000000000000000000000000000000000000 DUP2 MSTORE PUSH1 0x4 ADD PUSH2 0x12F7 SWAP1 PUSH2 0x3620 JUMP JUMPDEST PUSH1 0x40 MLOAD DUP1 SWAP2 SUB SWAP1 REVERT JUMPDEST PUSH1 0x0 SLOAD DUP4 LT PUSH2 0x1344 JUMPI PUSH1 0x40 MLOAD PUSH32 0x8C379A000000000000000000000000000000000000000000000000000000000 DUP2 MSTORE PUSH1 0x4 ADD PUSH2 0x133B SWAP1 PUSH2 0x3D80 JUMP JUMPDEST PUSH1 0x40 MLOAD DUP1 SWAP2 SUB SWAP1 REVERT JUMPDEST PUSH1 0x3 PUSH1 0x0 DUP5 DUP2 MSTORE PUSH1 0x20 ADD SWAP1 DUP2 MSTORE PUSH1 0x20 ADD PUSH1 0x0 KECCAK256 PUSH1 0x3 ADD PUSH1 0x1 SWAP1 SLOAD SWAP1 PUSH2 0x100 EXP SWAP1 DIV PUSH1 0xFF AND ISZERO PUSH2 0x13A8 JUMPI PUSH1 0x40 MLOAD PUSH32 0x8C379A000000000000000000000000000000000000000000000000000000000 DUP2 MSTORE PUSH1 0x4 ADD PUSH2 0x139F SWAP1 PUSH2 0x3DEC JUMP JUMPDEST PUSH1 0x40 MLOAD DUP1 SWAP2 SUB SWAP1 REVERT JUMPDEST ADDRESS PUSH20 0xFFFFFFFFFFFFFFFFFFFFFFFFFFFFFFFFFFFFFFFF AND PUSH1 0x3 PUSH1 0x0 DUP6 DUP2 MSTORE PUSH1 0x20 ADD SWAP1 DUP2 MSTORE PUSH1 0x20 ADD PUSH1 0x0 KECCAK256 PUSH1 0x0 ADD PUSH1 0x0 SWAP1 SLOAD SWAP1 PUSH2 0x100 EXP SWAP1 DIV PUSH20 0xFFFFFFFFFFFFFFFFFFFFFFFFFFFFFFFFFFFFFFFF AND PUSH20 0xFFFFFFFFFFFFFFFFFFFFFFFFFFFFFFFFFFFFFFFF AND SUB PUSH2 0x1486 JUMPI PUSH2 0x1442 CALLER PUSH1 0x40 MLOAD PUSH1 0x20 ADD PUSH2 0x1425 SWAP2 SWAP1 PUSH2 0x343B JUMP JUMPDEST PUSH1 0x40 MLOAD PUSH1 0x20 DUP2 DUP4 SUB SUB DUP2 MSTORE SWAP1 PUSH1 0x40 MSTORE DUP1 MLOAD SWAP1 PUSH1 0x20 ADD KECCAK256 PUSH1 0x1 PUSH2 0x2441 JUMP JUMPDEST PUSH2 0x1481 JUMPI PUSH1 0x40 MLOAD PUSH32 0x8C379A000000000000000000000000000000000000000000000000000000000 DUP2 MSTORE PUSH1 0x4 ADD PUSH2 0x1478 SWAP1 PUSH2 0x3E7E JUMP JUMPDEST PUSH1 0x40 MLOAD DUP1 SWAP2 SUB SWAP1 REVERT JUMPDEST PUSH2 0x14F7 JUMP JUMPDEST PUSH2 0x14B7 CALLER PUSH1 0x40 MLOAD PUSH1 0x20 ADD PUSH2 0x149A SWAP2 SWAP1 PUSH2 0x343B JUMP JUMPDEST PUSH1 0x40 MLOAD PUSH1 0x20 DUP2 DUP4 SUB SUB DUP2 MSTORE SWAP1 PUSH1 0x40 MSTORE DUP1 MLOAD SWAP1 PUSH1 0x20 ADD KECCAK256 PUSH1 0x2 PUSH2 0x2441 JUMP JUMPDEST PUSH2 0x14F6 JUMPI PUSH1 0x40 MLOAD PUSH32 0x8C379A000000000000000000000000000000000000000000000000000000000 DUP2 MSTORE PUSH1 0x4 ADD PUSH2 0x14ED SWAP1 PUSH2 0x3EEA JUMP JUMPDEST PUSH1 0x40 MLOAD DUP1 SWAP2 SUB SWAP1 REVERT JUMPDEST JUMPDEST DUP3 PUSH32 0xB3932DA477FE5D6C8FF2EAFEF050C0F3A1AF18FC07121001482600F36F3715D8 DUP4 PUSH1 0x40 MLOAD PUSH2 0x1527 SWAP2 SWAP1 PUSH2 0x2B5C JUMP JUMPDEST PUSH1 0x40 MLOAD DUP1 SWAP2 SUB SWAP1 LOG2 PUSH1 0x1 ISZERO ISZERO DUP3 ISZERO ISZERO SUB PUSH2 0x17E2 JUMPI PUSH1 0x1 PUSH1 0x3 PUSH1 0x0 DUP6 DUP2 MSTORE PUSH1 0x20 ADD SWAP1 DUP2 MSTORE PUSH1 0x20 ADD PUSH1 0x0 KECCAK256 PUSH1 0x3 ADD PUSH1 0x0 PUSH2 0x100 EXP DUP2 SLOAD DUP2 PUSH1 0xFF MUL NOT AND SWAP1 DUP4 ISZERO ISZERO MUL OR SWAP1 SSTORE POP PUSH1 0x3 PUSH1 0x0 DUP5 DUP2 MSTORE PUSH1 0x20 ADD SWAP1 DUP2 MSTORE PUSH1 0x20 ADD PUSH1 0x0 KECCAK256 PUSH1 0x0 ADD PUSH1 0x0 SWAP1 SLOAD SWAP1 PUSH2 0x100 EXP SWAP1 DIV PUSH20 0xFFFFFFFFFFFFFFFFFFFFFFFFFFFFFFFFFFFFFFFF AND PUSH20 0xFFFFFFFFFFFFFFFFFFFFFFFFFFFFFFFFFFFFFFFF AND PUSH1 0x3 PUSH1 0x0 DUP6 DUP2 MSTORE PUSH1 0x20 ADD SWAP1 DUP2 MSTORE PUSH1 0x20 ADD PUSH1 0x0 KECCAK256 PUSH1 0x1 ADD SLOAD PUSH1 0x3 PUSH1 0x0 DUP7 DUP2 MSTORE PUSH1 0x20 ADD SWAP1 DUP2 MSTORE PUSH1 0x20 ADD PUSH1 0x0 KECCAK256 PUSH1 0x2 ADD PUSH1 0x40 MLOAD PUSH2 0x15F1 SWAP2 SWAP1 PUSH2 0x3F98 JUMP JUMPDEST PUSH1 0x0 PUSH1 0x40 MLOAD DUP1 DUP4 SUB DUP2 DUP6 DUP8 GAS CALL SWAP3 POP POP POP RETURNDATASIZE DUP1 PUSH1 0x0 DUP2 EQ PUSH2 0x162E JUMPI PUSH1 0x40 MLOAD SWAP2 POP PUSH1 0x1F NOT PUSH1 0x3F RETURNDATASIZE ADD AND DUP3 ADD PUSH1 0x40 MSTORE RETURNDATASIZE DUP3 MSTORE RETURNDATASIZE PUSH1 0x0 PUSH1 0x20 DUP5 ADD RETURNDATACOPY PUSH2 0x1633 JUMP JUMPDEST PUSH1 0x60 SWAP2 POP JUMPDEST POP POP DUP1 SWAP2 POP POP DUP1 ISZERO PUSH2 0x1728 JUMPI PUSH1 0x1 PUSH1 0x3 PUSH1 0x0 DUP6 DUP2 MSTORE PUSH1 0x20 ADD SWAP1 DUP2 MSTORE PUSH1 0x20 ADD PUSH1 0x0 KECCAK256 PUSH1 0x3 ADD PUSH1 0x1 PUSH2 0x100 EXP DUP2 SLOAD DUP2 PUSH1 0xFF MUL NOT AND SWAP1 DUP4 ISZERO ISZERO MUL OR SWAP1 SSTORE POP PUSH1 0x3 PUSH1 0x0 DUP5 DUP2 MSTORE PUSH1 0x20 ADD SWAP1 DUP2 MSTORE PUSH1 0x20 ADD PUSH1 0x0 KECCAK256 PUSH1 0x1 ADD SLOAD PUSH1 0x3 PUSH1 0x0 DUP6 DUP2 MSTORE PUSH1 0x20 ADD SWAP1 DUP2 MSTORE PUSH1 0x20 ADD PUSH1 0x0 KECCAK256 PUSH1 0x0 ADD PUSH1 0x0 SWAP1 SLOAD SWAP1 PUSH2 0x100 EXP SWAP1 DIV PUSH20 0xFFFFFFFFFFFFFFFFFFFFFFFFFFFFFFFFFFFFFFFF AND PUSH20 0xFFFFFFFFFFFFFFFFFFFFFFFFFFFFFFFFFFFFFFFF AND DUP5 PUSH32 0x1F920DBDA597D7BF95035464170FA58D0A4B57F13A1C315ACE6793B9F63688B8 PUSH1 0x3 PUSH1 0x0 DUP9 DUP2 MSTORE PUSH1 0x20 ADD SWAP1 DUP2 MSTORE PUSH1 0x20 ADD PUSH1 0x0 KECCAK256 PUSH1 0x2 ADD PUSH1 0x40 MLOAD PUSH2 0x1717 SWAP2 SWAP1 PUSH2 0x3FAF JUMP JUMPDEST PUSH1 0x40 MLOAD DUP1 SWAP2 SUB SWAP1 LOG4 PUSH1 0x1 SWAP1 POP PUSH2 0x1816 JUMP JUMPDEST PUSH1 0x3 PUSH1 0x0 DUP5 DUP2 MSTORE PUSH1 0x20 ADD SWAP1 DUP2 MSTORE PUSH1 0x20 ADD PUSH1 0x0 KECCAK256 PUSH1 0x1 ADD SLOAD PUSH1 0x3 PUSH1 0x0 DUP6 DUP2 MSTORE PUSH1 0x20 ADD SWAP1 DUP2 MSTORE PUSH1 0x20 ADD PUSH1 0x0 KECCAK256 PUSH1 0x0 ADD PUSH1 0x0 SWAP1 SLOAD SWAP1 PUSH2 0x100 EXP SWAP1 DIV PUSH20 0xFFFFFFFFFFFFFFFFFFFFFFFFFFFFFFFFFFFFFFFF AND PUSH20 0xFFFFFFFFFFFFFFFFFFFFFFFFFFFFFFFFFFFFFFFF AND DUP5 PUSH32 0xE10C49D9F7C71DA23262367013434763CFDB2332267641728D25CD712C5C6A68 PUSH1 0x3 PUSH1 0x0 DUP9 DUP2 MSTORE PUSH1 0x20 ADD SWAP1 DUP2 MSTORE PUSH1 0x20 ADD PUSH1 0x0 KECCAK256 PUSH1 0x2 ADD PUSH1 0x40 MLOAD PUSH2 0x17D1 SWAP2 SWAP1 PUSH2 0x3FAF JUMP JUMPDEST PUSH1 0x40 MLOAD DUP1 SWAP2 SUB SWAP1 LOG4 PUSH1 0x0 SWAP1 POP PUSH2 0x1816 JUMP JUMPDEST PUSH1 0x0 PUSH1 0x3 PUSH1 0x0 DUP6 DUP2 MSTORE PUSH1 0x20 ADD SWAP1 DUP2 MSTORE PUSH1 0x20 ADD PUSH1 0x0 KECCAK256 PUSH1 0x3 ADD PUSH1 0x0 PUSH2 0x100 EXP DUP2 SLOAD DUP2 PUSH1 0xFF MUL NOT AND SWAP1 DUP4 ISZERO ISZERO MUL OR SWAP1 SSTORE POP PUSH1 0x0 SWAP1 POP JUMPDEST SWAP3 SWAP2 POP POP JUMP JUMPDEST PUSH1 0x60 PUSH1 0x5 PUSH1 0x0 DUP4 DUP2 MSTORE PUSH1 0x20 ADD SWAP1 DUP2 MSTORE PUSH1 0x20 ADD PUSH1 0x0 KECCAK256 DUP1 SLOAD DUP1 PUSH1 0x20 MUL PUSH1 0x20 ADD PUSH1 0x40 MLOAD SWAP1 DUP2 ADD PUSH1 0x40 MSTORE DUP1 SWAP3 SWAP2 SWAP1 DUP2 DUP2 MSTORE PUSH1 0x20 ADD DUP3 DUP1 SLOAD DUP1 ISZERO PUSH2 0x187B JUMPI PUSH1 0x20 MUL DUP3 ADD SWAP2 SWAP1 PUSH1 0x0 MSTORE PUSH1 0x20 PUSH1 0x0 KECCAK256 SWAP1 JUMPDEST DUP2 SLOAD DUP2 MSTORE PUSH1 0x20 ADD SWAP1 PUSH1 0x1 ADD SWAP1 DUP1 DUP4 GT PUSH2 0x1867 JUMPI JUMPDEST POP POP POP POP POP SWAP1 POP SWAP2 SWAP1 POP JUMP JUMPDEST PUSH1 0x60 PUSH1 0x2 PUSH1 0x0 DUP4 DUP2 MSTORE PUSH1 0x20 ADD SWAP1 DUP2 MSTORE PUSH1 0x20 ADD PUSH1 0x0 KECCAK256 DUP1 SLOAD DUP1 PUSH1 0x20 MUL PUSH1 0x20 ADD PUSH1 0x40 MLOAD SWAP1 DUP2 ADD PUSH1 0x40 MSTORE DUP1 SWAP3 SWAP2 SWAP1 DUP2 DUP2 MSTORE PUSH1 0x20 ADD DUP3 DUP1 SLOAD DUP1 ISZERO PUSH2 0x18E6 JUMPI PUSH1 0x20 MUL DUP3 ADD SWAP2 SWAP1 PUSH1 0x0 MSTORE PUSH1 0x20 PUSH1 0x0 KECCAK256 SWAP1 JUMPDEST DUP2 SLOAD DUP2 MSTORE PUSH1 0x20 ADD SWAP1 PUSH1 0x1 ADD SWAP1 DUP1 DUP4 GT PUSH2 0x18D2 JUMPI JUMPDEST POP POP POP POP POP SWAP1 POP SWAP2 SWAP1 POP JUMP JUMPDEST PUSH1 0x0 DUP2 PUSH1 0x40 MLOAD PUSH1 0x20 ADD PUSH2 0x1905 SWAP2 SWAP1 PUSH2 0x343B JUMP JUMPDEST PUSH1 0x40 MLOAD PUSH1 0x20 DUP2 DUP4 SUB SUB DUP2 MSTORE SWAP1 PUSH1 0x40 MSTORE DUP1 MLOAD SWAP1 PUSH1 0x20 ADD KECCAK256 SWAP1 POP SWAP2 SWAP1 POP JUMP JUMPDEST PUSH1 0x0 PUSH1 0x1 ISZERO ISZERO PUSH1 0x6 PUSH1 0x1 SWAP1 SLOAD SWAP1 PUSH2 0x100 EXP SWAP1 DIV PUSH1 0xFF AND ISZERO ISZERO EQ PUSH2 0x197A JUMPI PUSH1 0x40 MLOAD PUSH32 0x8C379A000000000000000000000000000000000000000000000000000000000 DUP2 MSTORE PUSH1 0x4 ADD PUSH2 0x1971 SWAP1 PUSH2 0x3620 JUMP JUMPDEST PUSH1 0x40 MLOAD DUP1 SWAP2 SUB SWAP1 REVERT JUMPDEST ADDRESS PUSH20 0xFFFFFFFFFFFFFFFFFFFFFFFFFFFFFFFFFFFFFFFF AND CALLER PUSH20 0xFFFFFFFFFFFFFFFFFFFFFFFFFFFFFFFFFFFFFFFF AND EQ DUP1 PUSH2 0x19E1 JUMPI POP PUSH2 0x19E0 CALLER PUSH1 0x40 MLOAD PUSH1 0x20 ADD PUSH2 0x19C3 SWAP2 SWAP1 PUSH2 0x343B JUMP JUMPDEST PUSH1 0x40 MLOAD PUSH1 0x20 DUP2 DUP4 SUB SUB DUP2 MSTORE SWAP1 PUSH1 0x40 MSTORE DUP1 MLOAD SWAP1 PUSH1 0x20 ADD KECCAK256 PUSH1 0x3 PUSH2 0x2441 JUMP JUMPDEST JUMPDEST PUSH2 0x1A20 JUMPI PUSH1 0x40 MLOAD PUSH32 0x8C379A000000000000000000000000000000000000000000000000000000000 DUP2 MSTORE PUSH1 0x4 ADD PUSH2 0x1A17 SWAP1 PUSH2 0x38E9 JUMP JUMPDEST PUSH1 0x40 MLOAD DUP1 SWAP2 SUB SWAP1 REVERT JUMPDEST ADDRESS PUSH20 0xFFFFFFFFFFFFFFFFFFFFFFFFFFFFFFFFFFFFFFFF AND DUP6 PUSH20 0xFFFFFFFFFFFFFFFFFFFFFFFFFFFFFFFFFFFFFFFF AND EQ PUSH2 0x1B13 JUMPI DUP5 PUSH20 0xFFFFFFFFFFFFFFFFFFFFFFFFFFFFFFFFFFFFFFFF AND PUSH4 0xC0969A6E ADDRESS DUP10 DUP8 DUP8 PUSH1 0x40 MLOAD DUP6 PUSH4 0xFFFFFFFF AND PUSH1 0xE0 SHL DUP2 MSTORE PUSH1 0x4 ADD PUSH2 0x1A92 SWAP5 SWAP4 SWAP3 SWAP2 SWAP1 PUSH2 0x4030 JUMP JUMPDEST PUSH1 0x20 PUSH1 0x40 MLOAD DUP1 DUP4 SUB DUP2 DUP7 GAS STATICCALL ISZERO DUP1 ISZERO PUSH2 0x1AAF JUMPI RETURNDATASIZE PUSH1 0x0 DUP1 RETURNDATACOPY RETURNDATASIZE PUSH1 0x0 REVERT JUMPDEST POP POP POP POP PUSH1 0x40 MLOAD RETURNDATASIZE PUSH1 0x1F NOT PUSH1 0x1F DUP3 ADD AND DUP3 ADD DUP1 PUSH1 0x40 MSTORE POP DUP2 ADD SWAP1 PUSH2 0x1AD3 SWAP2 SWAP1 PUSH2 0x4098 JUMP JUMPDEST PUSH2 0x1B12 JUMPI PUSH1 0x40 MLOAD PUSH32 0x8C379A000000000000000000000000000000000000000000000000000000000 DUP2 MSTORE PUSH1 0x4 ADD PUSH2 0x1B09 SWAP1 PUSH2 0x4111 JUMP JUMPDEST PUSH1 0x40 MLOAD DUP1 SWAP2 SUB SWAP1 REVERT JUMPDEST JUMPDEST PUSH1 0x0 DUP6 DUP9 PUSH1 0x40 MLOAD PUSH1 0x20 ADD PUSH2 0x1B28 SWAP3 SWAP2 SWAP1 PUSH2 0x4131 JUMP JUMPDEST PUSH1 0x40 MLOAD PUSH1 0x20 DUP2 DUP4 SUB SUB DUP2 MSTORE SWAP1 PUSH1 0x40 MSTORE DUP1 MLOAD SWAP1 PUSH1 0x20 ADD KECCAK256 SWAP1 POP DUP8 PUSH1 0x4 PUSH1 0x0 DUP4 DUP2 MSTORE PUSH1 0x20 ADD SWAP1 DUP2 MSTORE PUSH1 0x20 ADD PUSH1 0x0 KECCAK256 PUSH1 0x0 ADD DUP2 SWAP1 SSTORE POP DUP7 PUSH1 0x4 PUSH1 0x0 DUP4 DUP2 MSTORE PUSH1 0x20 ADD SWAP1 DUP2 MSTORE PUSH1 0x20 ADD PUSH1 0x0 KECCAK256 PUSH1 0x1 ADD DUP2 SWAP1 SSTORE POP DUP5 PUSH1 0x4 PUSH1 0x0 DUP4 DUP2 MSTORE PUSH1 0x20 ADD SWAP1 DUP2 MSTORE PUSH1 0x20 ADD PUSH1 0x0 KECCAK256 PUSH1 0x3 ADD SWAP1 DUP2 PUSH2 0x1B99 SWAP2 SWAP1 PUSH2 0x42E7 JUMP JUMPDEST POP DUP4 PUSH1 0x4 PUSH1 0x0 DUP4 DUP2 MSTORE PUSH1 0x20 ADD SWAP1 DUP2 MSTORE PUSH1 0x20 ADD PUSH1 0x0 KECCAK256 PUSH1 0x4 ADD SWAP1 DUP2 PUSH2 0x1BBD SWAP2 SWAP1 PUSH2 0x42E7 JUMP JUMPDEST POP DUP3 PUSH1 0x4 PUSH1 0x0 DUP4 DUP2 MSTORE PUSH1 0x20 ADD SWAP1 DUP2 MSTORE PUSH1 0x20 ADD PUSH1 0x0 KECCAK256 PUSH1 0x5 ADD SWAP1 DUP2 PUSH2 0x1BE1 SWAP2 SWAP1 PUSH2 0x43FF JUMP JUMPDEST POP DUP6 PUSH20 0xFFFFFFFFFFFFFFFFFFFFFFFFFFFFFFFFFFFFFFFF AND PUSH1 0x4 PUSH1 0x0 DUP4 DUP2 MSTORE PUSH1 0x20 ADD SWAP1 DUP2 MSTORE PUSH1 0x20 ADD PUSH1 0x0 KECCAK256 PUSH1 0x2 ADD PUSH1 0x0 SWAP1 SLOAD SWAP1 PUSH2 0x100 EXP SWAP1 DIV PUSH20 0xFFFFFFFFFFFFFFFFFFFFFFFFFFFFFFFFFFFFFFFF AND PUSH20 0xFFFFFFFFFFFFFFFFFFFFFFFFFFFFFFFFFFFFFFFF AND EQ PUSH2 0x1D35 JUMPI PUSH1 0x5 PUSH1 0x0 DUP10 DUP2 MSTORE PUSH1 0x20 ADD SWAP1 DUP2 MSTORE PUSH1 0x20 ADD PUSH1 0x0 KECCAK256 DUP2 SWAP1 DUP1 PUSH1 0x1 DUP2 SLOAD ADD DUP1 DUP3 SSTORE DUP1 SWAP2 POP POP PUSH1 0x1 SWAP1 SUB SWAP1 PUSH1 0x0 MSTORE PUSH1 0x20 PUSH1 0x0 KECCAK256 ADD PUSH1 0x0 SWAP1 SWAP2 SWAP1 SWAP2 SWAP1 SWAP2 POP SSTORE DUP6 PUSH1 0x4 PUSH1 0x0 DUP4 DUP2 MSTORE PUSH1 0x20 ADD SWAP1 DUP2 MSTORE PUSH1 0x20 ADD PUSH1 0x0 KECCAK256 PUSH1 0x2 ADD PUSH1 0x0 PUSH2 0x100 EXP DUP2 SLOAD DUP2 PUSH20 0xFFFFFFFFFFFFFFFFFFFFFFFFFFFFFFFFFFFFFFFF MUL NOT AND SWAP1 DUP4 PUSH20 0xFFFFFFFFFFFFFFFFFFFFFFFFFFFFFFFFFFFFFFFF AND MUL OR SWAP1 SSTORE POP DUP6 PUSH20 0xFFFFFFFFFFFFFFFFFFFFFFFFFFFFFFFFFFFFFFFF AND DUP9 DUP3 PUSH32 0x46149B18AA084502C3F12BC75E19EDA8BDA8D102B82CCE8474677A6D0D5F43C5 DUP11 DUP10 DUP10 DUP10 PUSH1 0x40 MLOAD PUSH2 0x1D28 SWAP5 SWAP4 SWAP3 SWAP2 SWAP1 PUSH2 0x44D1 JUMP JUMPDEST PUSH1 0x40 MLOAD DUP1 SWAP2 SUB SWAP1 LOG4 PUSH2 0x1D8C JUMP JUMPDEST DUP6 PUSH20 0xFFFFFFFFFFFFFFFFFFFFFFFFFFFFFFFFFFFFFFFF AND DUP9 DUP3 PUSH32 0x3BAB293FC00DB832D7619A9299914251B8747C036867EC056CBD506F60135B13 DUP11 DUP10 DUP10 DUP10 PUSH1 0x40 MLOAD PUSH2 0x1D83 SWAP5 SWAP4 SWAP3 SWAP2 SWAP1 PUSH2 0x44D1 JUMP JUMPDEST PUSH1 0x40 MLOAD DUP1 SWAP2 SUB SWAP1 LOG4 JUMPDEST DUP1 SWAP2 POP POP SWAP7 SWAP6 POP POP POP POP POP POP JUMP JUMPDEST PUSH1 0x0 PUSH1 0x1 ISZERO ISZERO PUSH1 0x6 PUSH1 0x1 SWAP1 SLOAD SWAP1 PUSH2 0x100 EXP SWAP1 DIV PUSH1 0xFF AND ISZERO ISZERO EQ PUSH2 0x1DF2 JUMPI PUSH1 0x40 MLOAD PUSH32 0x8C379A000000000000000000000000000000000000000000000000000000000 DUP2 MSTORE PUSH1 0x4 ADD PUSH2 0x1DE9 SWAP1 PUSH2 0x3620 JUMP JUMPDEST PUSH1 0x40 MLOAD DUP1 SWAP2 SUB SWAP1 REVERT JUMPDEST PUSH1 0x0 DUP1 SLOAD SWAP1 POP DUP5 PUSH1 0x3 PUSH1 0x0 DUP4 DUP2 MSTORE PUSH1 0x20 ADD SWAP1 DUP2 MSTORE PUSH1 0x20 ADD PUSH1 0x0 KECCAK256 PUSH1 0x0 ADD PUSH1 0x0 PUSH2 0x100 EXP DUP2 SLOAD DUP2 PUSH20 0xFFFFFFFFFFFFFFFFFFFFFFFFFFFFFFFFFFFFFFFF MUL NOT AND SWAP1 DUP4 PUSH20 0xFFFFFFFFFFFFFFFFFFFFFFFFFFFFFFFFFFFFFFFF AND MUL OR SWAP1 SSTORE POP DUP4 PUSH1 0x3 PUSH1 0x0 DUP4 DUP2 MSTORE PUSH1 0x20 ADD SWAP1 DUP2 MSTORE PUSH1 0x20 ADD PUSH1 0x0 KECCAK256 PUSH1 0x1 ADD DUP2 SWAP1 SSTORE POP DUP3 PUSH1 0x3 PUSH1 0x0 DUP4 DUP2 MSTORE PUSH1 0x20 ADD SWAP1 DUP2 MSTORE PUSH1 0x20 ADD PUSH1 0x0 KECCAK256 PUSH1 0x2 ADD SWAP1 DUP2 PUSH2 0x1E8B SWAP2 SWAP1 PUSH2 0x42E7 JUMP JUMPDEST POP PUSH1 0x0 DUP1 DUP2 SLOAD DUP1 SWAP3 SWAP2 SWAP1 PUSH2 0x1E9E SWAP1 PUSH2 0x37C2 JUMP JUMPDEST SWAP2 SWAP1 POP SSTORE POP DUP4 DUP6 PUSH20 0xFFFFFFFFFFFFFFFFFFFFFFFFFFFFFFFFFFFFFFFF AND DUP3 PUSH32 0x8AFCFABCB00E47A53A8FC3E9F23FF47EE1926194BB1350DD007C50B412A6CEE8 DUP7 PUSH1 0x40 MLOAD PUSH2 0x1EEB SWAP2 SWAP1 PUSH2 0x356A JUMP JUMPDEST PUSH1 0x40 MLOAD DUP1 SWAP2 SUB SWAP1 LOG4 PUSH2 0x1F24 CALLER PUSH1 0x40 MLOAD PUSH1 0x20 ADD PUSH2 0x1F07 SWAP2 SWAP1 PUSH2 0x343B JUMP JUMPDEST PUSH1 0x40 MLOAD PUSH1 0x20 DUP2 DUP4 SUB SUB DUP2 MSTORE SWAP1 PUSH1 0x40 MSTORE DUP1 MLOAD SWAP1 PUSH1 0x20 ADD KECCAK256 PUSH1 0x1 PUSH2 0x2441 JUMP JUMPDEST ISZERO PUSH2 0x1F3A JUMPI PUSH2 0x1F34 DUP2 PUSH1 0x1 PUSH2 0x12A8 JUMP JUMPDEST POP PUSH2 0x1FB6 JUMP JUMPDEST ADDRESS PUSH20 0xFFFFFFFFFFFFFFFFFFFFFFFFFFFFFFFFFFFFFFFF AND DUP6 PUSH20 0xFFFFFFFFFFFFFFFFFFFFFFFFFFFFFFFFFFFFFFFF AND EQ ISZERO DUP1 ISZERO PUSH2 0x1FA3 JUMPI POP PUSH2 0x1FA2 CALLER PUSH1 0x40 MLOAD PUSH1 0x20 ADD PUSH2 0x1F85 SWAP2 SWAP1 PUSH2 0x343B JUMP JUMPDEST PUSH1 0x40 MLOAD PUSH1 0x20 DUP2 DUP4 SUB SUB DUP2 MSTORE SWAP1 PUSH1 0x40 MSTORE DUP1 MLOAD SWAP1 PUSH1 0x20 ADD KECCAK256 PUSH1 0x2 PUSH2 0x2441 JUMP JUMPDEST JUMPDEST ISZERO PUSH2 0x1FB5 JUMPI PUSH2 0x1FB3 DUP2 PUSH1 0x1 PUSH2 0x12A8 JUMP JUMPDEST POP JUMPDEST JUMPDEST DUP1 SWAP2 POP POP SWAP4 SWAP3 POP POP POP JUMP JUMPDEST PUSH1 0x0 DUP1 DUP6 DUP6 DUP5 PUSH1 0x40 MLOAD PUSH1 0x20 ADD PUSH2 0x1FD9 SWAP4 SWAP3 SWAP2 SWAP1 PUSH2 0x452B JUMP JUMPDEST PUSH1 0x40 MLOAD PUSH1 0x20 DUP2 DUP4 SUB SUB DUP2 MSTORE SWAP1 PUSH1 0x40 MSTORE DUP1 MLOAD SWAP1 PUSH1 0x20 ADD KECCAK256 SWAP1 POP PUSH1 0x0 DUP2 PUSH1 0x40 MLOAD PUSH1 0x20 ADD PUSH2 0x2004 SWAP2 SWAP1 PUSH2 0x45E1 JUMP JUMPDEST PUSH1 0x40 MLOAD PUSH1 0x20 DUP2 DUP4 SUB SUB DUP2 MSTORE SWAP1 PUSH1 0x40 MSTORE DUP1 MLOAD SWAP1 PUSH1 0x20 ADD KECCAK256 SWAP1 POP PUSH1 0x0 PUSH2 0x2028 DUP7 DUP4 PUSH2 0x2083 JUMP JUMPDEST SWAP1 POP PUSH1 0x0 DUP2 PUSH1 0x40 MLOAD PUSH1 0x20 ADD PUSH2 0x203D SWAP2 SWAP1 PUSH2 0x343B JUMP JUMPDEST PUSH1 0x40 MLOAD PUSH1 0x20 DUP2 DUP4 SUB SUB DUP2 MSTORE SWAP1 PUSH1 0x40 MSTORE DUP1 MLOAD SWAP1 PUSH1 0x20 ADD KECCAK256 SWAP1 POP PUSH2 0x2060 DUP2 PUSH1 0x3 PUSH2 0x2441 JUMP JUMPDEST ISZERO PUSH2 0x2072 JUMPI PUSH1 0x1 SWAP5 POP POP POP POP POP PUSH2 0x207B JUMP JUMPDEST PUSH1 0x0 SWAP5 POP POP POP POP POP JUMPDEST SWAP5 SWAP4 POP POP POP POP JUMP JUMPDEST PUSH1 0x0 DUP1 PUSH1 0x0 DUP1 PUSH1 0x41 DUP7 MLOAD EQ PUSH2 0x209E JUMPI PUSH1 0x0 SWAP4 POP POP POP POP PUSH2 0x212D JUMP JUMPDEST PUSH1 0x20 DUP7 ADD MLOAD SWAP3 POP PUSH1 0x40 DUP7 ADD MLOAD SWAP2 POP PUSH1 0x60 DUP7 ADD MLOAD PUSH1 0x0 BYTE SWAP1 POP PUSH1 0x1B DUP2 PUSH1 0xFF AND LT ISZERO PUSH2 0x20D2 JUMPI PUSH1 0x1B DUP2 PUSH2 0x20CF SWAP2 SWAP1 PUSH2 0x4614 JUMP JUMPDEST SWAP1 POP JUMPDEST PUSH1 0x0 PUSH1 0x1 DUP7 DUP4 DUP7 DUP7 PUSH1 0x40 MLOAD PUSH1 0x0 DUP2 MSTORE PUSH1 0x20 ADD PUSH1 0x40 MSTORE PUSH1 0x40 MLOAD PUSH2 0x20F7 SWAP5 SWAP4 SWAP3 SWAP2 SWAP1 PUSH2 0x4658 JUMP JUMPDEST PUSH1 0x20 PUSH1 0x40 MLOAD PUSH1 0x20 DUP2 SUB SWAP1 DUP1 DUP5 SUB SWAP1 DUP6 GAS STATICCALL ISZERO DUP1 ISZERO PUSH2 0x2119 JUMPI RETURNDATASIZE PUSH1 0x0 DUP1 RETURNDATACOPY RETURNDATASIZE PUSH1 0x0 REVERT JUMPDEST POP POP POP PUSH1 0x20 PUSH1 0x40 MLOAD SUB MLOAD SWAP1 POP DUP1 SWAP5 POP POP POP POP POP JUMPDEST SWAP3 SWAP2 POP POP JUMP JUMPDEST PUSH1 0x0 PUSH20 0xFFFFFFFFFFFFFFFFFFFFFFFFFFFFFFFFFFFFFFFF AND DUP2 PUSH20 0xFFFFFFFFFFFFFFFFFFFFFFFFFFFFFFFFFFFFFFFF AND SUB PUSH2 0x21A2 JUMPI PUSH1 0x40 MLOAD PUSH32 0x8C379A000000000000000000000000000000000000000000000000000000000 DUP2 MSTORE PUSH1 0x4 ADD PUSH2 0x2199 SWAP1 PUSH2 0x46E9 JUMP JUMPDEST PUSH1 0x40 MLOAD DUP1 SWAP2 SUB SWAP1 REVERT JUMPDEST PUSH2 0x21AB DUP2 PUSH2 0x25C9 JUMP JUMPDEST POP JUMP JUMPDEST PUSH1 0x0 DUP1 PUSH1 0x0 PUSH1 0x60 DUP1 PUSH1 0x60 PUSH1 0x4 PUSH1 0x0 DUP9 DUP2 MSTORE PUSH1 0x20 ADD SWAP1 DUP2 MSTORE PUSH1 0x20 ADD PUSH1 0x0 KECCAK256 PUSH1 0x0 ADD SLOAD PUSH1 0x4 PUSH1 0x0 DUP10 DUP2 MSTORE PUSH1 0x20 ADD SWAP1 DUP2 MSTORE PUSH1 0x20 ADD PUSH1 0x0 KECCAK256 PUSH1 0x1 ADD SLOAD PUSH1 0x4 PUSH1 0x0 DUP11 DUP2 MSTORE PUSH1 0x20 ADD SWAP1 DUP2 MSTORE PUSH1 0x20 ADD PUSH1 0x0 KECCAK256 PUSH1 0x2 ADD PUSH1 0x0 SWAP1 SLOAD SWAP1 PUSH2 0x100 EXP SWAP1 DIV PUSH20 0xFFFFFFFFFFFFFFFFFFFFFFFFFFFFFFFFFFFFFFFF AND PUSH1 0x4 PUSH1 0x0 DUP12 DUP2 MSTORE PUSH1 0x20 ADD SWAP1 DUP2 MSTORE PUSH1 0x20 ADD PUSH1 0x0 KECCAK256 PUSH1 0x3 ADD PUSH1 0x4 PUSH1 0x0 DUP13 DUP2 MSTORE PUSH1 0x20 ADD SWAP1 DUP2 MSTORE PUSH1 0x20 ADD PUSH1 0x0 KECCAK256 PUSH1 0x4 ADD PUSH1 0x4 PUSH1 0x0 DUP14 DUP2 MSTORE PUSH1 0x20 ADD SWAP1 DUP2 MSTORE PUSH1 0x20 ADD PUSH1 0x0 KECCAK256 PUSH1 0x5 ADD DUP3 DUP1 SLOAD PUSH2 0x226B SWAP1 PUSH2 0x3A2D JUMP JUMPDEST DUP1 PUSH1 0x1F ADD PUSH1 0x20 DUP1 SWAP2 DIV MUL PUSH1 0x20 ADD PUSH1 0x40 MLOAD SWAP1 DUP2 ADD PUSH1 0x40 MSTORE DUP1 SWAP3 SWAP2 SWAP1 DUP2 DUP2 MSTORE PUSH1 0x20 ADD DUP3 DUP1 SLOAD PUSH2 0x2297 SWAP1 PUSH2 0x3A2D JUMP JUMPDEST DUP1 ISZERO PUSH2 0x22E4 JUMPI DUP1 PUSH1 0x1F LT PUSH2 0x22B9 JUMPI PUSH2 0x100 DUP1 DUP4 SLOAD DIV MUL DUP4 MSTORE SWAP2 PUSH1 0x20 ADD SWAP2 PUSH2 0x22E4 JUMP JUMPDEST DUP3 ADD SWAP2 SWAP1 PUSH1 0x0 MSTORE PUSH1 0x20 PUSH1 0x0 KECCAK256 SWAP1 JUMPDEST DUP2 SLOAD DUP2 MSTORE SWAP1 PUSH1 0x1 ADD SWAP1 PUSH1 0x20 ADD DUP1 DUP4 GT PUSH2 0x22C7 JUMPI DUP3 SWAP1 SUB PUSH1 0x1F AND DUP3 ADD SWAP2 JUMPDEST POP POP POP POP POP SWAP3 POP DUP2 DUP1 SLOAD PUSH2 0x22F7 SWAP1 PUSH2 0x3A2D JUMP JUMPDEST DUP1 PUSH1 0x1F ADD PUSH1 0x20 DUP1 SWAP2 DIV MUL PUSH1 0x20 ADD PUSH1 0x40 MLOAD SWAP1 DUP2 ADD PUSH1 0x40 MSTORE DUP1 SWAP3 SWAP2 SWAP1 DUP2 DUP2 MSTORE PUSH1 0x20 ADD DUP3 DUP1 SLOAD PUSH2 0x2323 SWAP1 PUSH2 0x3A2D JUMP JUMPDEST DUP1 ISZERO PUSH2 0x2370 JUMPI DUP1 PUSH1 0x1F LT PUSH2 0x2345 JUMPI PUSH2 0x100 DUP1 DUP4 SLOAD DIV MUL DUP4 MSTORE SWAP2 PUSH1 0x20 ADD SWAP2 PUSH2 0x2370 JUMP JUMPDEST DUP3 ADD SWAP2 SWAP1 PUSH1 0x0 MSTORE PUSH1 0x20 PUSH1 0x0 KECCAK256 SWAP1 JUMPDEST DUP2 SLOAD DUP2 MSTORE SWAP1 PUSH1 0x1 ADD SWAP1 PUSH1 0x20 ADD DUP1 DUP4 GT PUSH2 0x2353 JUMPI DUP3 SWAP1 SUB PUSH1 0x1F AND DUP3 ADD SWAP2 JUMPDEST POP POP POP POP POP SWAP2 POP DUP1 DUP1 SLOAD PUSH2 0x2383 SWAP1 PUSH2 0x3A2D JUMP JUMPDEST DUP1 PUSH1 0x1F ADD PUSH1 0x20 DUP1 SWAP2 DIV MUL PUSH1 0x20 ADD PUSH1 0x40 MLOAD SWAP1 DUP2 ADD PUSH1 0x40 MSTORE DUP1 SWAP3 SWAP2 SWAP1 DUP2 DUP2 MSTORE PUSH1 0x20 ADD DUP3 DUP1 SLOAD PUSH2 0x23AF SWAP1 PUSH2 0x3A2D JUMP JUMPDEST DUP1 ISZERO PUSH2 0x23FC JUMPI DUP1 PUSH1 0x1F LT PUSH2 0x23D1 JUMPI PUSH2 0x100 DUP1 DUP4 SLOAD DIV MUL DUP4 MSTORE SWAP2 PUSH1 0x20 ADD SWAP2 PUSH2 0x23FC JUMP JUMPDEST DUP3 ADD SWAP2 SWAP1 PUSH1 0x0 MSTORE PUSH1 0x20 PUSH1 0x0 KECCAK256 SWAP1 JUMPDEST DUP2 SLOAD DUP2 MSTORE SWAP1 PUSH1 0x1 ADD SWAP1 PUSH1 0x20 ADD DUP1 DUP4 GT PUSH2 0x23DF JUMPI DUP3 SWAP1 SUB PUSH1 0x1F AND DUP3 ADD SWAP2 JUMPDEST POP POP POP POP POP SWAP1 POP SWAP6 POP SWAP6 POP SWAP6 POP SWAP6 POP SWAP6 POP SWAP6 POP SWAP2 SWAP4 SWAP6 POP SWAP2 SWAP4 SWAP6 JUMP JUMPDEST PUSH1 0x60 DUP2 PUSH1 0x40 MLOAD PUSH1 0x20 ADD PUSH2 0x242B SWAP2 SWAP1 PUSH2 0x2DEF JUMP JUMPDEST PUSH1 0x40 MLOAD PUSH1 0x20 DUP2 DUP4 SUB SUB DUP2 MSTORE SWAP1 PUSH1 0x40 MSTORE SWAP1 POP SWAP2 SWAP1 POP JUMP JUMPDEST PUSH1 0x0 DUP1 PUSH1 0x1 PUSH1 0x0 DUP6 DUP2 MSTORE PUSH1 0x20 ADD SWAP1 DUP2 MSTORE PUSH1 0x20 ADD PUSH1 0x0 KECCAK256 PUSH1 0x40 MLOAD DUP1 PUSH1 0x60 ADD PUSH1 0x40 MSTORE SWAP1 DUP2 PUSH1 0x0 DUP3 ADD DUP1 SLOAD DUP1 PUSH1 0x20 MUL PUSH1 0x20 ADD PUSH1 0x40 MLOAD SWAP1 DUP2 ADD PUSH1 0x40 MSTORE DUP1 SWAP3 SWAP2 SWAP1 DUP2 DUP2 MSTORE PUSH1 0x20 ADD DUP3 DUP1 SLOAD DUP1 ISZERO PUSH2 0x24B1 JUMPI PUSH1 0x20 MUL DUP3 ADD SWAP2 SWAP1 PUSH1 0x0 MSTORE PUSH1 0x20 PUSH1 0x0 KECCAK256 SWAP1 JUMPDEST DUP2 SLOAD DUP2 MSTORE PUSH1 0x20 ADD SWAP1 PUSH1 0x1 ADD SWAP1 DUP1 DUP4 GT PUSH2 0x249D JUMPI JUMPDEST POP POP POP POP POP DUP2 MSTORE PUSH1 0x20 ADD PUSH1 0x1 DUP3 ADD SLOAD DUP2 MSTORE PUSH1 0x20 ADD PUSH1 0x2 DUP3 ADD SLOAD DUP2 MSTORE POP POP SWAP1 POP PUSH1 0x0 DUP1 SHL DUP2 PUSH1 0x40 ADD MLOAD SUB PUSH2 0x24E8 JUMPI PUSH1 0x0 SWAP2 POP POP PUSH2 0x2555 JUMP JUMPDEST PUSH1 0x0 JUMPDEST DUP2 PUSH1 0x0 ADD MLOAD MLOAD DUP2 LT ISZERO PUSH2 0x254E JUMPI PUSH1 0x0 DUP3 PUSH1 0x0 ADD MLOAD DUP3 DUP2 MLOAD DUP2 LT PUSH2 0x2511 JUMPI PUSH2 0x2510 PUSH2 0x36D2 JUMP JUMPDEST JUMPDEST PUSH1 0x20 MUL PUSH1 0x20 ADD ADD MLOAD SWAP1 POP PUSH1 0x1 DUP2 EQ DUP1 PUSH2 0x2529 JUMPI POP DUP5 DUP2 EQ JUMPDEST ISZERO PUSH2 0x253A JUMPI PUSH1 0x1 SWAP4 POP POP POP POP PUSH2 0x2555 JUMP JUMPDEST POP DUP1 DUP1 PUSH2 0x2546 SWAP1 PUSH2 0x37C2 JUMP JUMPDEST SWAP2 POP POP PUSH2 0x24EB JUMP JUMPDEST POP PUSH1 0x0 SWAP2 POP POP JUMPDEST SWAP3 SWAP2 POP POP JUMP JUMPDEST PUSH1 0x60 PUSH1 0x1 PUSH1 0x0 DUP4 DUP2 MSTORE PUSH1 0x20 ADD SWAP1 DUP2 MSTORE PUSH1 0x20 ADD PUSH1 0x0 KECCAK256 PUSH1 0x0 ADD DUP1 SLOAD DUP1 PUSH1 0x20 MUL PUSH1 0x20 ADD PUSH1 0x40 MLOAD SWAP1 DUP2 ADD PUSH1 0x40 MSTORE DUP1 SWAP3 SWAP2 SWAP1 DUP2 DUP2 MSTORE PUSH1 0x20 ADD DUP3 DUP1 SLOAD DUP1 ISZERO PUSH2 0x25BD JUMPI PUSH1 0x20 MUL DUP3 ADD SWAP2 SWAP1 PUSH1 0x0 MSTORE PUSH1 0x20 PUSH1 0x0 KECCAK256 SWAP1 JUMPDEST DUP2 SLOAD DUP2 MSTORE PUSH1 0x20 ADD SWAP1 PUSH1 0x1 ADD SWAP1 DUP1 DUP4 GT PUSH2 0x25A9 JUMPI JUMPDEST POP POP POP POP POP SWAP1 POP SWAP2 SWAP1 POP JUMP JUMPDEST PUSH1 0x6 PUSH1 0x0 SWAP1 SLOAD SWAP1 PUSH2 0x100 EXP SWAP1 DIV PUSH1 0xFF AND ISZERO DUP1 PUSH2 0x25E9 JUMPI POP PUSH2 0x25E8 PUSH2 0x2766 JUMP JUMPDEST JUMPDEST PUSH2 0x2628 JUMPI PUSH1 0x40 MLOAD PUSH32 0x8C379A000000000000000000000000000000000000000000000000000000000 DUP2 MSTORE PUSH1 0x4 ADD PUSH2 0x261F SWAP1 PUSH2 0x4755 JUMP JUMPDEST PUSH1 0x40 MLOAD DUP1 SWAP2 SUB SWAP1 REVERT JUMPDEST PUSH1 0x1 PUSH1 0x6 PUSH1 0x0 PUSH2 0x100 EXP DUP2 SLOAD DUP2 PUSH1 0xFF MUL NOT AND SWAP1 DUP4 ISZERO ISZERO MUL OR SWAP1 SSTORE POP PUSH1 0x1 PUSH1 0x6 PUSH1 0x1 PUSH2 0x100 EXP DUP2 SLOAD DUP2 PUSH1 0xFF MUL NOT AND SWAP1 DUP4 ISZERO ISZERO MUL OR SWAP1 SSTORE POP PUSH1 0x0 DUP2 PUSH1 0x40 MLOAD PUSH1 0x20 ADD PUSH2 0x2671 SWAP2 SWAP1 PUSH2 0x343B JUMP JUMPDEST PUSH1 0x40 MLOAD PUSH1 0x20 DUP2 DUP4 SUB SUB DUP2 MSTORE SWAP1 PUSH1 0x40 MSTORE DUP1 MLOAD SWAP1 PUSH1 0x20 ADD KECCAK256 SWAP1 POP DUP1 PUSH1 0x1 PUSH1 0x0 DUP4 DUP2 MSTORE PUSH1 0x20 ADD SWAP1 DUP2 MSTORE PUSH1 0x20 ADD PUSH1 0x0 KECCAK256 PUSH1 0x2 ADD DUP2 SWAP1 SSTORE POP PUSH1 0x40 MLOAD DUP1 PUSH1 0x20 ADD PUSH1 0x40 MSTORE DUP1 PUSH1 0x1 PUSH1 0xFF AND DUP2 MSTORE POP PUSH1 0x1 PUSH1 0x0 DUP4 DUP2 MSTORE PUSH1 0x20 ADD SWAP1 DUP2 MSTORE PUSH1 0x20 ADD PUSH1 0x0 KECCAK256 PUSH1 0x0 ADD SWAP1 PUSH1 0x1 PUSH2 0x26DB SWAP3 SWAP2 SWAP1 PUSH2 0x28B8 JUMP JUMPDEST POP PUSH1 0x1 DUP1 PUSH1 0x0 DUP4 DUP2 MSTORE PUSH1 0x20 ADD SWAP1 DUP2 MSTORE PUSH1 0x20 ADD PUSH1 0x0 KECCAK256 PUSH1 0x1 ADD DUP2 SWAP1 SSTORE POP PUSH1 0x2 PUSH1 0x0 PUSH1 0x1 DUP2 MSTORE PUSH1 0x20 ADD SWAP1 DUP2 MSTORE PUSH1 0x20 ADD PUSH1 0x0 KECCAK256 DUP2 SWAP1 DUP1 PUSH1 0x1 DUP2 SLOAD ADD DUP1 DUP3 SSTORE DUP1 SWAP2 POP POP PUSH1 0x1 SWAP1 SUB SWAP1 PUSH1 0x0 MSTORE PUSH1 0x20 PUSH1 0x0 KECCAK256 ADD PUSH1 0x0 SWAP1 SWAP2 SWAP1 SWAP2 SWAP1 SWAP2 POP SSTORE PUSH1 0x1 DUP1 DUP3 PUSH32 0x480000BB1EDAD8CA1470381CC334B1917FBD51C6531F3A623EA8E0EC7E38A6E9 PUSH1 0x40 MLOAD PUSH1 0x40 MLOAD DUP1 SWAP2 SUB SWAP1 LOG4 POP POP JUMP JUMPDEST PUSH1 0x0 DUP1 ADDRESS SWAP1 POP PUSH1 0x0 DUP2 EXTCODESIZE SWAP1 POP PUSH1 0x0 DUP2 EQ SWAP3 POP POP POP SWAP1 JUMP JUMPDEST DUP3 DUP1 SLOAD DUP3 DUP3 SSTORE SWAP1 PUSH1 0x0 MSTORE PUSH1 0x20 PUSH1 0x0 KECCAK256 SWAP1 DUP2 ADD SWAP3 DUP3 ISZERO PUSH2 0x27B9 JUMPI SWAP2 PUSH1 0x20 MUL DUP3 ADD JUMPDEST DUP3 DUP2 GT ISZERO PUSH2 0x27B8 JUMPI DUP3 MLOAD DUP3 SSTORE SWAP2 PUSH1 0x20 ADD SWAP2 SWAP1 PUSH1 0x1 ADD SWAP1 PUSH2 0x279D JUMP JUMPDEST JUMPDEST POP SWAP1 POP PUSH2 0x27C6 SWAP2 SWAP1 PUSH2 0x290A JUMP JUMPDEST POP SWAP1 JUMP JUMPDEST POP DUP1 SLOAD PUSH2 0x27D6 SWAP1 PUSH2 0x3A2D JUMP JUMPDEST PUSH1 0x0 DUP3 SSTORE DUP1 PUSH1 0x1F LT PUSH2 0x27E8 JUMPI POP PUSH2 0x2807 JUMP JUMPDEST PUSH1 0x1F ADD PUSH1 0x20 SWAP1 DIV SWAP1 PUSH1 0x0 MSTORE PUSH1 0x20 PUSH1 0x0 KECCAK256 SWAP1 DUP2 ADD SWAP1 PUSH2 0x2806 SWAP2 SWAP1 PUSH2 0x290A JUMP JUMPDEST JUMPDEST POP JUMP JUMPDEST POP DUP1 SLOAD PUSH2 0x2816 SWAP1 PUSH2 0x3A2D JUMP JUMPDEST PUSH1 0x0 DUP3 SSTORE DUP1 PUSH1 0x1F LT PUSH2 0x2828 JUMPI POP PUSH2 0x2847 JUMP JUMPDEST PUSH1 0x1F ADD PUSH1 0x20 SWAP1 DIV SWAP1 PUSH1 0x0 MSTORE PUSH1 0x20 PUSH1 0x0 KECCAK256 SWAP1 DUP2 ADD SWAP1 PUSH2 0x2846 SWAP2 SWAP1 PUSH2 0x290A JUMP JUMPDEST JUMPDEST POP JUMP JUMPDEST DUP3 DUP1 SLOAD DUP3 DUP3 SSTORE SWAP1 PUSH1 0x0 MSTORE PUSH1 0x20 PUSH1 0x0 KECCAK256 SWAP1 DUP2 ADD SWAP3 DUP3 ISZERO PUSH2 0x2886 JUMPI SWAP2 PUSH1 0x20 MUL DUP3 ADD JUMPDEST DUP3 DUP2 GT ISZERO PUSH2 0x2885 JUMPI DUP3 MLOAD DUP3 SSTORE SWAP2 PUSH1 0x20 ADD SWAP2 SWAP1 PUSH1 0x1 ADD SWAP1 PUSH2 0x286A JUMP JUMPDEST JUMPDEST POP SWAP1 POP PUSH2 0x2893 SWAP2 SWAP1 PUSH2 0x290A JUMP JUMPDEST POP SWAP1 JUMP JUMPDEST POP DUP1 SLOAD PUSH1 0x0 DUP3 SSTORE SWAP1 PUSH1 0x0 MSTORE PUSH1 0x20 PUSH1 0x0 KECCAK256 SWAP1 DUP2 ADD SWAP1 PUSH2 0x28B5 SWAP2 SWAP1 PUSH2 0x290A JUMP JUMPDEST POP JUMP JUMPDEST DUP3 DUP1 SLOAD DUP3 DUP3 SSTORE SWAP1 PUSH1 0x0 MSTORE PUSH1 0x20 PUSH1 0x0 KECCAK256 SWAP1 DUP2 ADD SWAP3 DUP3 ISZERO PUSH2 0x28F9 JUMPI SWAP2 PUSH1 0x20 MUL DUP3 ADD JUMPDEST DUP3 DUP2 GT ISZERO PUSH2 0x28F8 JUMPI DUP3 MLOAD DUP3 SWAP1 PUSH1 0xFF AND SWAP1 SSTORE SWAP2 PUSH1 0x20 ADD SWAP2 SWAP1 PUSH1 0x1 ADD SWAP1 PUSH2 0x28D8 JUMP JUMPDEST JUMPDEST POP SWAP1 POP PUSH2 0x2906 SWAP2 SWAP1 PUSH2 0x290A JUMP JUMPDEST POP SWAP1 JUMP JUMPDEST JUMPDEST DUP1 DUP3 GT ISZERO PUSH2 0x2923 JUMPI PUSH1 0x0 DUP2 PUSH1 0x0 SWAP1 SSTORE POP PUSH1 0x1 ADD PUSH2 0x290B JUMP JUMPDEST POP SWAP1 JUMP JUMPDEST PUSH1 0x0 PUSH1 0x40 MLOAD SWAP1 POP SWAP1 JUMP JUMPDEST PUSH1 0x0 DUP1 REVERT JUMPDEST PUSH1 0x0 DUP1 REVERT JUMPDEST PUSH1 0x0 DUP2 SWAP1 POP SWAP2 SWAP1 POP JUMP JUMPDEST PUSH2 0x294E DUP2 PUSH2 0x293B JUMP JUMPDEST DUP2 EQ PUSH2 0x2959 JUMPI PUSH1 0x0 DUP1 REVERT JUMPDEST POP JUMP JUMPDEST PUSH1 0x0 DUP2 CALLDATALOAD SWAP1 POP PUSH2 0x296B DUP2 PUSH2 0x2945 JUMP JUMPDEST SWAP3 SWAP2 POP POP JUMP JUMPDEST PUSH1 0x0 PUSH1 0x20 DUP3 DUP5 SUB SLT ISZERO PUSH2 0x2987 JUMPI PUSH2 0x2986 PUSH2 0x2931 JUMP JUMPDEST JUMPDEST PUSH1 0x0 PUSH2 0x2995 DUP5 DUP3 DUP6 ADD PUSH2 0x295C JUMP JUMPDEST SWAP2 POP POP SWAP3 SWAP2 POP POP JUMP JUMPDEST PUSH1 0x0 DUP2 MLOAD SWAP1 POP SWAP2 SWAP1 POP JUMP JUMPDEST PUSH1 0x0 DUP3 DUP3 MSTORE PUSH1 0x20 DUP3 ADD SWAP1 POP SWAP3 SWAP2 POP POP JUMP JUMPDEST PUSH1 0x0 DUP2 SWAP1 POP PUSH1 0x20 DUP3 ADD SWAP1 POP SWAP2 SWAP1 POP JUMP JUMPDEST PUSH1 0x0 DUP2 SWAP1 POP SWAP2 SWAP1 POP JUMP JUMPDEST PUSH2 0x29DD DUP2 PUSH2 0x29CA JUMP JUMPDEST DUP3 MSTORE POP POP JUMP JUMPDEST PUSH1 0x0 PUSH2 0x29EF DUP4 DUP4 PUSH2 0x29D4 JUMP JUMPDEST PUSH1 0x20 DUP4 ADD SWAP1 POP SWAP3 SWAP2 POP POP JUMP JUMPDEST PUSH1 0x0 PUSH1 0x20 DUP3 ADD SWAP1 POP SWAP2 SWAP1 POP JUMP JUMPDEST PUSH1 0x0 PUSH2 0x2A13 DUP3 PUSH2 0x299E JUMP JUMPDEST PUSH2 0x2A1D DUP2 DUP6 PUSH2 0x29A9 JUMP JUMPDEST SWAP4 POP PUSH2 0x2A28 DUP4 PUSH2 0x29BA JUMP JUMPDEST DUP1 PUSH1 0x0 JUMPDEST DUP4 DUP2 LT ISZERO PUSH2 0x2A59 JUMPI DUP2 MLOAD PUSH2 0x2A40 DUP9 DUP3 PUSH2 0x29E3 JUMP JUMPDEST SWAP8 POP PUSH2 0x2A4B DUP4 PUSH2 0x29FB JUMP JUMPDEST SWAP3 POP POP PUSH1 0x1 DUP2 ADD SWAP1 POP PUSH2 0x2A2C JUMP JUMPDEST POP DUP6 SWAP4 POP POP POP POP SWAP3 SWAP2 POP POP JUMP JUMPDEST PUSH2 0x2A6F DUP2 PUSH2 0x29CA JUMP JUMPDEST DUP3 MSTORE POP POP JUMP JUMPDEST PUSH2 0x2A7E DUP2 PUSH2 0x293B JUMP JUMPDEST DUP3 MSTORE POP POP JUMP JUMPDEST PUSH1 0x0 PUSH1 0x60 DUP3 ADD SWAP1 POP DUP2 DUP2 SUB PUSH1 0x0 DUP4 ADD MSTORE PUSH2 0x2A9E DUP2 DUP7 PUSH2 0x2A08 JUMP JUMPDEST SWAP1 POP PUSH2 0x2AAD PUSH1 0x20 DUP4 ADD DUP6 PUSH2 0x2A66 JUMP JUMPDEST PUSH2 0x2ABA PUSH1 0x40 DUP4 ADD DUP5 PUSH2 0x2A75 JUMP JUMPDEST SWAP5 SWAP4 POP POP POP POP JUMP JUMPDEST PUSH2 0x2ACB DUP2 PUSH2 0x29CA JUMP JUMPDEST DUP2 EQ PUSH2 0x2AD6 JUMPI PUSH1 0x0 DUP1 REVERT JUMPDEST POP JUMP JUMPDEST PUSH1 0x0 DUP2 CALLDATALOAD SWAP1 POP PUSH2 0x2AE8 DUP2 PUSH2 0x2AC2 JUMP JUMPDEST SWAP3 SWAP2 POP POP JUMP JUMPDEST PUSH1 0x0 DUP1 PUSH1 0x0 PUSH1 0x60 DUP5 DUP7 SUB SLT ISZERO PUSH2 0x2B07 JUMPI PUSH2 0x2B06 PUSH2 0x2931 JUMP JUMPDEST JUMPDEST PUSH1 0x0 PUSH2 0x2B15 DUP7 DUP3 DUP8 ADD PUSH2 0x295C JUMP JUMPDEST SWAP4 POP POP PUSH1 0x20 PUSH2 0x2B26 DUP7 DUP3 DUP8 ADD PUSH2 0x2AD9 JUMP JUMPDEST SWAP3 POP POP PUSH1 0x40 PUSH2 0x2B37 DUP7 DUP3 DUP8 ADD PUSH2 0x2AD9 JUMP JUMPDEST SWAP2 POP POP SWAP3 POP SWAP3 POP SWAP3 JUMP JUMPDEST PUSH1 0x0 DUP2 ISZERO ISZERO SWAP1 POP SWAP2 SWAP1 POP JUMP JUMPDEST PUSH2 0x2B56 DUP2 PUSH2 0x2B41 JUMP JUMPDEST DUP3 MSTORE POP POP JUMP JUMPDEST PUSH1 0x0 PUSH1 0x20 DUP3 ADD SWAP1 POP PUSH2 0x2B71 PUSH1 0x0 DUP4 ADD DUP5 PUSH2 0x2B4D JUMP JUMPDEST SWAP3 SWAP2 POP POP JUMP JUMPDEST PUSH1 0x0 PUSH32 0xFFFFFFFF00000000000000000000000000000000000000000000000000000000 DUP3 AND SWAP1 POP SWAP2 SWAP1 POP JUMP JUMPDEST PUSH2 0x2BAC DUP2 PUSH2 0x2B77 JUMP JUMPDEST DUP3 MSTORE POP POP JUMP JUMPDEST PUSH1 0x0 PUSH1 0x20 DUP3 ADD SWAP1 POP PUSH2 0x2BC7 PUSH1 0x0 DUP4 ADD DUP5 PUSH2 0x2BA3 JUMP JUMPDEST SWAP3 SWAP2 POP POP JUMP JUMPDEST PUSH1 0x0 PUSH20 0xFFFFFFFFFFFFFFFFFFFFFFFFFFFFFFFFFFFFFFFF DUP3 AND SWAP1 POP SWAP2 SWAP1 POP JUMP JUMPDEST PUSH1 0x0 PUSH2 0x2BF8 DUP3 PUSH2 0x2BCD JUMP JUMPDEST SWAP1 POP SWAP2 SWAP1 POP JUMP JUMPDEST PUSH2 0x2C08 DUP2 PUSH2 0x2BED JUMP JUMPDEST DUP2 EQ PUSH2 0x2C13 JUMPI PUSH1 0x0 DUP1 REVERT JUMPDEST POP JUMP JUMPDEST PUSH1 0x0 DUP2 CALLDATALOAD SWAP1 POP PUSH2 0x2C25 DUP2 PUSH2 0x2BFF JUMP JUMPDEST SWAP3 SWAP2 POP POP JUMP JUMPDEST PUSH1 0x0 DUP1 REVERT JUMPDEST PUSH1 0x0 DUP1 REVERT JUMPDEST PUSH1 0x0 DUP1 REVERT JUMPDEST PUSH1 0x0 DUP1 DUP4 PUSH1 0x1F DUP5 ADD SLT PUSH2 0x2C50 JUMPI PUSH2 0x2C4F PUSH2 0x2C2B JUMP JUMPDEST JUMPDEST DUP3 CALLDATALOAD SWAP1 POP PUSH8 0xFFFFFFFFFFFFFFFF DUP2 GT ISZERO PUSH2 0x2C6D JUMPI PUSH2 0x2C6C PUSH2 0x2C30 JUMP JUMPDEST JUMPDEST PUSH1 0x20 DUP4 ADD SWAP2 POP DUP4 PUSH1 0x1 DUP3 MUL DUP4 ADD GT ISZERO PUSH2 0x2C89 JUMPI PUSH2 0x2C88 PUSH2 0x2C35 JUMP JUMPDEST JUMPDEST SWAP3 POP SWAP3 SWAP1 POP JUMP JUMPDEST PUSH1 0x0 DUP1 PUSH1 0x0 DUP1 PUSH1 0x60 DUP6 DUP8 SUB SLT ISZERO PUSH2 0x2CAA JUMPI PUSH2 0x2CA9 PUSH2 0x2931 JUMP JUMPDEST JUMPDEST PUSH1 0x0 PUSH2 0x2CB8 DUP8 DUP3 DUP9 ADD PUSH2 0x2C16 JUMP JUMPDEST SWAP5 POP POP PUSH1 0x20 PUSH2 0x2CC9 DUP8 DUP3 DUP9 ADD PUSH2 0x2AD9 JUMP JUMPDEST SWAP4 POP POP PUSH1 0x40 DUP6 ADD CALLDATALOAD PUSH8 0xFFFFFFFFFFFFFFFF DUP2 GT ISZERO PUSH2 0x2CEA JUMPI PUSH2 0x2CE9 PUSH2 0x2936 JUMP JUMPDEST JUMPDEST PUSH2 0x2CF6 DUP8 DUP3 DUP9 ADD PUSH2 0x2C3A JUMP JUMPDEST SWAP3 POP SWAP3 POP POP SWAP3 SWAP6 SWAP2 SWAP5 POP SWAP3 POP JUMP JUMPDEST PUSH1 0x0 PUSH1 0x20 DUP3 ADD SWAP1 POP PUSH2 0x2D19 PUSH1 0x0 DUP4 ADD DUP5 PUSH2 0x2A75 JUMP JUMPDEST SWAP3 SWAP2 POP POP JUMP JUMPDEST PUSH1 0x0 DUP1 PUSH1 0x40 DUP4 DUP6 SUB SLT ISZERO PUSH2 0x2D36 JUMPI PUSH2 0x2D35 PUSH2 0x2931 JUMP JUMPDEST JUMPDEST PUSH1 0x0 PUSH2 0x2D44 DUP6 DUP3 DUP7 ADD PUSH2 0x295C JUMP JUMPDEST SWAP3 POP POP PUSH1 0x20 PUSH2 0x2D55 DUP6 DUP3 DUP7 ADD PUSH2 0x2AD9 JUMP JUMPDEST SWAP2 POP POP SWAP3 POP SWAP3 SWAP1 POP JUMP JUMPDEST PUSH1 0x0 DUP2 MLOAD SWAP1 POP SWAP2 SWAP1 POP JUMP JUMPDEST PUSH1 0x0 DUP3 DUP3 MSTORE PUSH1 0x20 DUP3 ADD SWAP1 POP SWAP3 SWAP2 POP POP JUMP JUMPDEST PUSH1 0x0 JUMPDEST DUP4 DUP2 LT ISZERO PUSH2 0x2D99 JUMPI DUP1 DUP3 ADD MLOAD DUP2 DUP5 ADD MSTORE PUSH1 0x20 DUP2 ADD SWAP1 POP PUSH2 0x2D7E JUMP JUMPDEST PUSH1 0x0 DUP5 DUP5 ADD MSTORE POP POP POP POP JUMP JUMPDEST PUSH1 0x0 PUSH1 0x1F NOT PUSH1 0x1F DUP4 ADD AND SWAP1 POP SWAP2 SWAP1 POP JUMP JUMPDEST PUSH1 0x0 PUSH2 0x2DC1 DUP3 PUSH2 0x2D5F JUMP JUMPDEST PUSH2 0x2DCB DUP2 DUP6 PUSH2 0x2D6A JUMP JUMPDEST SWAP4 POP PUSH2 0x2DDB DUP2 DUP6 PUSH1 0x20 DUP7 ADD PUSH2 0x2D7B JUMP JUMPDEST PUSH2 0x2DE4 DUP2 PUSH2 0x2DA5 JUMP JUMPDEST DUP5 ADD SWAP2 POP POP SWAP3 SWAP2 POP POP JUMP JUMPDEST PUSH1 0x0 PUSH1 0x20 DUP3 ADD SWAP1 POP DUP2 DUP2 SUB PUSH1 0x0 DUP4 ADD MSTORE PUSH2 0x2E09 DUP2 DUP5 PUSH2 0x2DB6 JUMP JUMPDEST SWAP1 POP SWAP3 SWAP2 POP POP JUMP JUMPDEST PUSH2 0x2E1A DUP2 PUSH2 0x2B41 JUMP JUMPDEST DUP2 EQ PUSH2 0x2E25 JUMPI PUSH1 0x0 DUP1 REVERT JUMPDEST POP JUMP JUMPDEST PUSH1 0x0 DUP2 CALLDATALOAD SWAP1 POP PUSH2 0x2E37 DUP2 PUSH2 0x2E11 JUMP JUMPDEST SWAP3 SWAP2 POP POP JUMP JUMPDEST PUSH1 0x0 DUP1 PUSH1 0x40 DUP4 DUP6 SUB SLT ISZERO PUSH2 0x2E54 JUMPI PUSH2 0x2E53 PUSH2 0x2931 JUMP JUMPDEST JUMPDEST PUSH1 0x0 PUSH2 0x2E62 DUP6 DUP3 DUP7 ADD PUSH2 0x2AD9 JUMP JUMPDEST SWAP3 POP POP PUSH1 0x20 PUSH2 0x2E73 DUP6 DUP3 DUP7 ADD PUSH2 0x2E28 JUMP JUMPDEST SWAP2 POP POP SWAP3 POP SWAP3 SWAP1 POP JUMP JUMPDEST PUSH1 0x0 PUSH1 0x20 DUP3 DUP5 SUB SLT ISZERO PUSH2 0x2E93 JUMPI PUSH2 0x2E92 PUSH2 0x2931 JUMP JUMPDEST JUMPDEST PUSH1 0x0 PUSH2 0x2EA1 DUP5 DUP3 DUP6 ADD PUSH2 0x2AD9 JUMP JUMPDEST SWAP2 POP POP SWAP3 SWAP2 POP POP JUMP JUMPDEST PUSH1 0x0 DUP2 MLOAD SWAP1 POP SWAP2 SWAP1 POP JUMP JUMPDEST PUSH1 0x0 DUP3 DUP3 MSTORE PUSH1 0x20 DUP3 ADD SWAP1 POP SWAP3 SWAP2 POP POP JUMP JUMPDEST PUSH1 0x0 DUP2 SWAP1 POP PUSH1 0x20 DUP3 ADD SWAP1 POP SWAP2 SWAP1 POP JUMP JUMPDEST PUSH2 0x2EDF DUP2 PUSH2 0x293B JUMP JUMPDEST DUP3 MSTORE POP POP JUMP JUMPDEST PUSH1 0x0 PUSH2 0x2EF1 DUP4 DUP4 PUSH2 0x2ED6 JUMP JUMPDEST PUSH1 0x20 DUP4 ADD SWAP1 POP SWAP3 SWAP2 POP POP JUMP JUMPDEST PUSH1 0x0 PUSH1 0x20 DUP3 ADD SWAP1 POP SWAP2 SWAP1 POP JUMP JUMPDEST PUSH1 0x0 PUSH2 0x2F15 DUP3 PUSH2 0x2EAA JUMP JUMPDEST PUSH2 0x2F1F DUP2 DUP6 PUSH2 0x2EB5 JUMP JUMPDEST SWAP4 POP PUSH2 0x2F2A DUP4 PUSH2 0x2EC6 JUMP JUMPDEST DUP1 PUSH1 0x0 JUMPDEST DUP4 DUP2 LT ISZERO PUSH2 0x2F5B JUMPI DUP2 MLOAD PUSH2 0x2F42 DUP9 DUP3 PUSH2 0x2EE5 JUMP JUMPDEST SWAP8 POP PUSH2 0x2F4D DUP4 PUSH2 0x2EFD JUMP JUMPDEST SWAP3 POP POP PUSH1 0x1 DUP2 ADD SWAP1 POP PUSH2 0x2F2E JUMP JUMPDEST POP DUP6 SWAP4 POP POP POP POP SWAP3 SWAP2 POP POP JUMP JUMPDEST PUSH1 0x0 PUSH1 0x20 DUP3 ADD SWAP1 POP DUP2 DUP2 SUB PUSH1 0x0 DUP4 ADD MSTORE PUSH2 0x2F82 DUP2 DUP5 PUSH2 0x2F0A JUMP JUMPDEST SWAP1 POP SWAP3 SWAP2 POP POP JUMP JUMPDEST PUSH1 0x0 PUSH1 0x20 DUP3 DUP5 SUB SLT ISZERO PUSH2 0x2FA0 JUMPI PUSH2 0x2F9F PUSH2 0x2931 JUMP JUMPDEST JUMPDEST PUSH1 0x0 PUSH2 0x2FAE DUP5 DUP3 DUP6 ADD PUSH2 0x2C16 JUMP JUMPDEST SWAP2 POP POP SWAP3 SWAP2 POP POP JUMP JUMPDEST PUSH1 0x0 DUP1 REVERT JUMPDEST PUSH32 0x4E487B7100000000000000000000000000000000000000000000000000000000 PUSH1 0x0 MSTORE PUSH1 0x41 PUSH1 0x4 MSTORE PUSH1 0x24 PUSH1 0x0 REVERT JUMPDEST PUSH2 0x2FF4 DUP3 PUSH2 0x2DA5 JUMP JUMPDEST DUP2 ADD DUP2 DUP2 LT PUSH8 0xFFFFFFFFFFFFFFFF DUP3 GT OR ISZERO PUSH2 0x3013 JUMPI PUSH2 0x3012 PUSH2 0x2FBC JUMP JUMPDEST JUMPDEST DUP1 PUSH1 0x40 MSTORE POP POP POP JUMP JUMPDEST PUSH1 0x0 PUSH2 0x3026 PUSH2 0x2927 JUMP JUMPDEST SWAP1 POP PUSH2 0x3032 DUP3 DUP3 PUSH2 0x2FEB JUMP JUMPDEST SWAP2 SWAP1 POP JUMP JUMPDEST PUSH1 0x0 PUSH8 0xFFFFFFFFFFFFFFFF DUP3 GT ISZERO PUSH2 0x3052 JUMPI PUSH2 0x3051 PUSH2 0x2FBC JUMP JUMPDEST JUMPDEST PUSH2 0x305B DUP3 PUSH2 0x2DA5 JUMP JUMPDEST SWAP1 POP PUSH1 0x20 DUP2 ADD SWAP1 POP SWAP2 SWAP1 POP JUMP JUMPDEST DUP3 DUP2 DUP4 CALLDATACOPY PUSH1 0x0 DUP4 DUP4 ADD MSTORE POP POP POP JUMP JUMPDEST PUSH1 0x0 PUSH2 0x308A PUSH2 0x3085 DUP5 PUSH2 0x3037 JUMP JUMPDEST PUSH2 0x301C JUMP JUMPDEST SWAP1 POP DUP3 DUP2 MSTORE PUSH1 0x20 DUP2 ADD DUP5 DUP5 DUP5 ADD GT ISZERO PUSH2 0x30A6 JUMPI PUSH2 0x30A5 PUSH2 0x2FB7 JUMP JUMPDEST JUMPDEST PUSH2 0x30B1 DUP5 DUP3 DUP6 PUSH2 0x3068 JUMP JUMPDEST POP SWAP4 SWAP3 POP POP POP JUMP JUMPDEST PUSH1 0x0 DUP3 PUSH1 0x1F DUP4 ADD SLT PUSH2 0x30CE JUMPI PUSH2 0x30CD PUSH2 0x2C2B JUMP JUMPDEST JUMPDEST DUP2 CALLDATALOAD PUSH2 0x30DE DUP5 DUP3 PUSH1 0x20 DUP7 ADD PUSH2 0x3077 JUMP JUMPDEST SWAP2 POP POP SWAP3 SWAP2 POP POP JUMP JUMPDEST PUSH1 0x0 PUSH8 0xFFFFFFFFFFFFFFFF DUP3 GT ISZERO PUSH2 0x3102 JUMPI PUSH2 0x3101 PUSH2 0x2FBC JUMP JUMPDEST JUMPDEST PUSH2 0x310B DUP3 PUSH2 0x2DA5 JUMP JUMPDEST SWAP1 POP PUSH1 0x20 DUP2 ADD SWAP1 POP SWAP2 SWAP1 POP JUMP JUMPDEST PUSH1 0x0 PUSH2 0x312B PUSH2 0x3126 DUP5 PUSH2 0x30E7 JUMP JUMPDEST PUSH2 0x301C JUMP JUMPDEST SWAP1 POP DUP3 DUP2 MSTORE PUSH1 0x20 DUP2 ADD DUP5 DUP5 DUP5 ADD GT ISZERO PUSH2 0x3147 JUMPI PUSH2 0x3146 PUSH2 0x2FB7 JUMP JUMPDEST JUMPDEST PUSH2 0x3152 DUP5 DUP3 DUP6 PUSH2 0x3068 JUMP JUMPDEST POP SWAP4 SWAP3 POP POP POP JUMP JUMPDEST PUSH1 0x0 DUP3 PUSH1 0x1F DUP4 ADD SLT PUSH2 0x316F JUMPI PUSH2 0x316E PUSH2 0x2C2B JUMP JUMPDEST JUMPDEST DUP2 CALLDATALOAD PUSH2 0x317F DUP5 DUP3 PUSH1 0x20 DUP7 ADD PUSH2 0x3118 JUMP JUMPDEST SWAP2 POP POP SWAP3 SWAP2 POP POP JUMP JUMPDEST PUSH1 0x0 DUP1 PUSH1 0x0 DUP1 PUSH1 0x0 DUP1 PUSH1 0xC0 DUP8 DUP10 SUB SLT ISZERO PUSH2 0x31A5 JUMPI PUSH2 0x31A4 PUSH2 0x2931 JUMP JUMPDEST JUMPDEST PUSH1 0x0 PUSH2 0x31B3 DUP10 DUP3 DUP11 ADD PUSH2 0x2AD9 JUMP JUMPDEST SWAP7 POP POP PUSH1 0x20 PUSH2 0x31C4 DUP10 DUP3 DUP11 ADD PUSH2 0x2AD9 JUMP JUMPDEST SWAP6 POP POP PUSH1 0x40 PUSH2 0x31D5 DUP10 DUP3 DUP11 ADD PUSH2 0x2C16 JUMP JUMPDEST SWAP5 POP POP PUSH1 0x60 DUP8 ADD CALLDATALOAD PUSH8 0xFFFFFFFFFFFFFFFF DUP2 GT ISZERO PUSH2 0x31F6 JUMPI PUSH2 0x31F5 PUSH2 0x2936 JUMP JUMPDEST JUMPDEST PUSH2 0x3202 DUP10 DUP3 DUP11 ADD PUSH2 0x30B9 JUMP JUMPDEST SWAP4 POP POP PUSH1 0x80 DUP8 ADD CALLDATALOAD PUSH8 0xFFFFFFFFFFFFFFFF DUP2 GT ISZERO PUSH2 0x3223 JUMPI PUSH2 0x3222 PUSH2 0x2936 JUMP JUMPDEST JUMPDEST PUSH2 0x322F DUP10 DUP3 DUP11 ADD PUSH2 0x30B9 JUMP JUMPDEST SWAP3 POP POP PUSH1 0xA0 DUP8 ADD CALLDATALOAD PUSH8 0xFFFFFFFFFFFFFFFF DUP2 GT ISZERO PUSH2 0x3250 JUMPI PUSH2 0x324F PUSH2 0x2936 JUMP JUMPDEST JUMPDEST PUSH2 0x325C DUP10 DUP3 DUP11 ADD PUSH2 0x315A JUMP JUMPDEST SWAP2 POP POP SWAP3 SWAP6 POP SWAP3 SWAP6 POP SWAP3 SWAP6 JUMP JUMPDEST PUSH1 0x0 DUP1 PUSH1 0x0 PUSH1 0x60 DUP5 DUP7 SUB SLT ISZERO PUSH2 0x3282 JUMPI PUSH2 0x3281 PUSH2 0x2931 JUMP JUMPDEST JUMPDEST PUSH1 0x0 PUSH2 0x3290 DUP7 DUP3 DUP8 ADD PUSH2 0x2C16 JUMP JUMPDEST SWAP4 POP POP PUSH1 0x20 PUSH2 0x32A1 DUP7 DUP3 DUP8 ADD PUSH2 0x2AD9 JUMP JUMPDEST SWAP3 POP POP PUSH1 0x40 DUP5 ADD CALLDATALOAD PUSH8 0xFFFFFFFFFFFFFFFF DUP2 GT ISZERO PUSH2 0x32C2 JUMPI PUSH2 0x32C1 PUSH2 0x2936 JUMP JUMPDEST JUMPDEST PUSH2 0x32CE DUP7 DUP3 DUP8 ADD PUSH2 0x30B9 JUMP JUMPDEST SWAP2 POP POP SWAP3 POP SWAP3 POP SWAP3 JUMP JUMPDEST PUSH1 0x0 PUSH1 0x20 DUP3 ADD SWAP1 POP PUSH2 0x32ED PUSH1 0x0 DUP4 ADD DUP5 PUSH2 0x2A66 JUMP JUMPDEST SWAP3 SWAP2 POP POP JUMP JUMPDEST PUSH1 0x0 PUSH2 0x32FE DUP3 PUSH2 0x2BED JUMP JUMPDEST SWAP1 POP SWAP2 SWAP1 POP JUMP JUMPDEST PUSH2 0x330E DUP2 PUSH2 0x32F3 JUMP JUMPDEST DUP2 EQ PUSH2 0x3319 JUMPI PUSH1 0x0 DUP1 REVERT JUMPDEST POP JUMP JUMPDEST PUSH1 0x0 DUP2 CALLDATALOAD SWAP1 POP PUSH2 0x332B DUP2 PUSH2 0x3305 JUMP JUMPDEST SWAP3 SWAP2 POP POP JUMP JUMPDEST PUSH1 0x0 DUP1 PUSH1 0x0 DUP1 PUSH1 0x80 DUP6 DUP8 SUB SLT ISZERO PUSH2 0x334B JUMPI PUSH2 0x334A PUSH2 0x2931 JUMP JUMPDEST JUMPDEST PUSH1 0x0 PUSH2 0x3359 DUP8 DUP3 DUP9 ADD PUSH2 0x331C JUMP JUMPDEST SWAP5 POP POP PUSH1 0x20 PUSH2 0x336A DUP8 DUP3 DUP9 ADD PUSH2 0x2AD9 JUMP JUMPDEST SWAP4 POP POP PUSH1 0x40 DUP6 ADD CALLDATALOAD PUSH8 0xFFFFFFFFFFFFFFFF DUP2 GT ISZERO PUSH2 0x338B JUMPI PUSH2 0x338A PUSH2 0x2936 JUMP JUMPDEST JUMPDEST PUSH2 0x3397 DUP8 DUP3 DUP9 ADD PUSH2 0x30B9 JUMP JUMPDEST SWAP3 POP POP PUSH1 0x60 DUP6 ADD CALLDATALOAD PUSH8 0xFFFFFFFFFFFFFFFF DUP2 GT ISZERO PUSH2 0x33B8 JUMPI PUSH2 0x33B7 PUSH2 0x2936 JUMP JUMPDEST JUMPDEST PUSH2 0x33C4 DUP8 DUP3 DUP9 ADD PUSH2 0x30B9 JUMP JUMPDEST SWAP2 POP POP SWAP3 SWAP6 SWAP2 SWAP5 POP SWAP3 POP JUMP JUMPDEST PUSH1 0x0 DUP1 PUSH1 0x40 DUP4 DUP6 SUB SLT ISZERO PUSH2 0x33E7 JUMPI PUSH2 0x33E6 PUSH2 0x2931 JUMP JUMPDEST JUMPDEST PUSH1 0x0 DUP4 ADD CALLDATALOAD PUSH8 0xFFFFFFFFFFFFFFFF DUP2 GT ISZERO PUSH2 0x3405 JUMPI PUSH2 0x3404 PUSH2 0x2936 JUMP JUMPDEST JUMPDEST PUSH2 0x3411 DUP6 DUP3 DUP7 ADD PUSH2 0x30B9 JUMP JUMPDEST SWAP3 POP POP PUSH1 0x20 PUSH2 0x3422 DUP6 DUP3 DUP7 ADD PUSH2 0x295C JUMP JUMPDEST SWAP2 POP POP SWAP3 POP SWAP3 SWAP1 POP JUMP JUMPDEST PUSH2 0x3435 DUP2 PUSH2 0x2BED JUMP JUMPDEST DUP3 MSTORE POP POP JUMP JUMPDEST PUSH1 0x0 PUSH1 0x20 DUP3 ADD SWAP1 POP PUSH2 0x3450 PUSH1 0x0 DUP4 ADD DUP5 PUSH2 0x342C JUMP JUMPDEST SWAP3 SWAP2 POP POP JUMP JUMPDEST PUSH1 0x0 DUP2 MLOAD SWAP1 POP SWAP2 SWAP1 POP JUMP JUMPDEST PUSH1 0x0 DUP3 DUP3 MSTORE PUSH1 0x20 DUP3 ADD SWAP1 POP SWAP3 SWAP2 POP POP JUMP JUMPDEST PUSH1 0x0 PUSH2 0x347D DUP3 PUSH2 0x3456 JUMP JUMPDEST PUSH2 0x3487 DUP2 DUP6 PUSH2 0x3461 JUMP JUMPDEST SWAP4 POP PUSH2 0x3497 DUP2 DUP6 PUSH1 0x20 DUP7 ADD PUSH2 0x2D7B JUMP JUMPDEST PUSH2 0x34A0 DUP2 PUSH2 0x2DA5 JUMP JUMPDEST DUP5 ADD SWAP2 POP POP SWAP3 SWAP2 POP POP JUMP JUMPDEST PUSH1 0x0 PUSH1 0xC0 DUP3 ADD SWAP1 POP PUSH2 0x34C0 PUSH1 0x0 DUP4 ADD DUP10 PUSH2 0x2A66 JUMP JUMPDEST PUSH2 0x34CD PUSH1 0x20 DUP4 ADD DUP9 PUSH2 0x2A66 JUMP JUMPDEST PUSH2 0x34DA PUSH1 0x40 DUP4 ADD DUP8 PUSH2 0x342C JUMP JUMPDEST DUP2 DUP2 SUB PUSH1 0x60 DUP4 ADD MSTORE PUSH2 0x34EC DUP2 DUP7 PUSH2 0x3472 JUMP JUMPDEST SWAP1 POP DUP2 DUP2 SUB PUSH1 0x80 DUP4 ADD MSTORE PUSH2 0x3500 DUP2 DUP6 PUSH2 0x3472 JUMP JUMPDEST SWAP1 POP DUP2 DUP2 SUB PUSH1 0xA0 DUP4 ADD MSTORE PUSH2 0x3514 DUP2 DUP5 PUSH2 0x2DB6 JUMP JUMPDEST SWAP1 POP SWAP8 SWAP7 POP POP POP POP POP POP POP JUMP JUMPDEST PUSH1 0x0 PUSH1 0x20 DUP3 DUP5 SUB SLT ISZERO PUSH2 0x3537 JUMPI PUSH2 0x3536 PUSH2 0x2931 JUMP JUMPDEST JUMPDEST PUSH1 0x0 DUP3 ADD CALLDATALOAD PUSH8 0xFFFFFFFFFFFFFFFF DUP2 GT ISZERO PUSH2 0x3555 JUMPI PUSH2 0x3554 PUSH2 0x2936 JUMP JUMPDEST JUMPDEST PUSH2 0x3561 DUP5 DUP3 DUP6 ADD PUSH2 0x315A JUMP JUMPDEST SWAP2 POP POP SWAP3 SWAP2 POP POP JUMP JUMPDEST PUSH1 0x0 PUSH1 0x20 DUP3 ADD SWAP1 POP DUP2 DUP2 SUB PUSH1 0x0 DUP4 ADD MSTORE PUSH2 0x3584 DUP2 DUP5 PUSH2 0x3472 JUMP JUMPDEST SWAP1 POP SWAP3 SWAP2 POP POP JUMP JUMPDEST PUSH1 0x0 PUSH1 0x20 DUP3 ADD SWAP1 POP DUP2 DUP2 SUB PUSH1 0x0 DUP4 ADD MSTORE PUSH2 0x35A6 DUP2 DUP5 PUSH2 0x2A08 JUMP JUMPDEST SWAP1 POP SWAP3 SWAP2 POP POP JUMP JUMPDEST PUSH32 0x496E746572616374696E67207769746820746865206C69627261727920636F6E PUSH1 0x0 DUP3 ADD MSTORE PUSH32 0x747261637420697320666F7262696464656E2E00000000000000000000000000 PUSH1 0x20 DUP3 ADD MSTORE POP JUMP JUMPDEST PUSH1 0x0 PUSH2 0x360A PUSH1 0x33 DUP4 PUSH2 0x2D6A JUMP JUMPDEST SWAP2 POP PUSH2 0x3615 DUP3 PUSH2 0x35AE JUMP JUMPDEST PUSH1 0x40 DUP3 ADD SWAP1 POP SWAP2 SWAP1 POP JUMP JUMPDEST PUSH1 0x0 PUSH1 0x20 DUP3 ADD SWAP1 POP DUP2 DUP2 SUB PUSH1 0x0 DUP4 ADD MSTORE PUSH2 0x3639 DUP2 PUSH2 0x35FD JUMP JUMPDEST SWAP1 POP SWAP2 SWAP1 POP JUMP JUMPDEST PUSH32 0x5065726D697373696F6E733A2053656E64657220646F6573206E6F7420686176 PUSH1 0x0 DUP3 ADD MSTORE PUSH32 0x65206D616E6167656D656E74206B657900000000000000000000000000000000 PUSH1 0x20 DUP3 ADD MSTORE POP JUMP JUMPDEST PUSH1 0x0 PUSH2 0x369C PUSH1 0x30 DUP4 PUSH2 0x2D6A JUMP JUMPDEST SWAP2 POP PUSH2 0x36A7 DUP3 PUSH2 0x3640 JUMP JUMPDEST PUSH1 0x40 DUP3 ADD SWAP1 POP SWAP2 SWAP1 POP JUMP JUMPDEST PUSH1 0x0 PUSH1 0x20 DUP3 ADD SWAP1 POP DUP2 DUP2 SUB PUSH1 0x0 DUP4 ADD MSTORE PUSH2 0x36CB DUP2 PUSH2 0x368F JUMP JUMPDEST SWAP1 POP SWAP2 SWAP1 POP JUMP JUMPDEST PUSH32 0x4E487B7100000000000000000000000000000000000000000000000000000000 PUSH1 0x0 MSTORE PUSH1 0x32 PUSH1 0x4 MSTORE PUSH1 0x24 PUSH1 0x0 REVERT JUMPDEST PUSH32 0x436F6E666C6963743A204B657920616C72656164792068617320707572706F73 PUSH1 0x0 DUP3 ADD MSTORE PUSH32 0x6500000000000000000000000000000000000000000000000000000000000000 PUSH1 0x20 DUP3 ADD MSTORE POP JUMP JUMPDEST PUSH1 0x0 PUSH2 0x375D PUSH1 0x21 DUP4 PUSH2 0x2D6A JUMP JUMPDEST SWAP2 POP PUSH2 0x3768 DUP3 PUSH2 0x3701 JUMP JUMPDEST PUSH1 0x40 DUP3 ADD SWAP1 POP SWAP2 SWAP1 POP JUMP JUMPDEST PUSH1 0x0 PUSH1 0x20 DUP3 ADD SWAP1 POP DUP2 DUP2 SUB PUSH1 0x0 DUP4 ADD MSTORE PUSH2 0x378C DUP2 PUSH2 0x3750 JUMP JUMPDEST SWAP1 POP SWAP2 SWAP1 POP JUMP JUMPDEST PUSH32 0x4E487B7100000000000000000000000000000000000000000000000000000000 PUSH1 0x0 MSTORE PUSH1 0x11 PUSH1 0x4 MSTORE PUSH1 0x24 PUSH1 0x0 REVERT JUMPDEST PUSH1 0x0 PUSH2 0x37CD DUP3 PUSH2 0x29CA JUMP JUMPDEST SWAP2 POP PUSH32 0xFFFFFFFFFFFFFFFFFFFFFFFFFFFFFFFFFFFFFFFFFFFFFFFFFFFFFFFFFFFFFFFF DUP3 SUB PUSH2 0x37FF JUMPI PUSH2 0x37FE PUSH2 0x3793 JUMP JUMPDEST JUMPDEST PUSH1 0x1 DUP3 ADD SWAP1 POP SWAP2 SWAP1 POP JUMP JUMPDEST PUSH1 0x0 PUSH2 0x3816 DUP4 DUP6 PUSH2 0x3461 JUMP JUMPDEST SWAP4 POP PUSH2 0x3823 DUP4 DUP6 DUP5 PUSH2 0x3068 JUMP JUMPDEST PUSH2 0x382C DUP4 PUSH2 0x2DA5 JUMP JUMPDEST DUP5 ADD SWAP1 POP SWAP4 SWAP3 POP POP POP JUMP JUMPDEST PUSH1 0x0 PUSH1 0x60 DUP3 ADD SWAP1 POP PUSH2 0x384C PUSH1 0x0 DUP4 ADD DUP8 PUSH2 0x342C JUMP JUMPDEST PUSH2 0x3859 PUSH1 0x20 DUP4 ADD DUP7 PUSH2 0x2A66 JUMP JUMPDEST DUP2 DUP2 SUB PUSH1 0x40 DUP4 ADD MSTORE PUSH2 0x386C DUP2 DUP5 DUP7 PUSH2 0x380A JUMP JUMPDEST SWAP1 POP SWAP6 SWAP5 POP POP POP POP POP JUMP JUMPDEST PUSH32 0x5065726D697373696F6E733A2053656E64657220646F6573206E6F7420686176 PUSH1 0x0 DUP3 ADD MSTORE PUSH32 0x6520636C61696D207369676E6572206B65790000000000000000000000000000 PUSH1 0x20 DUP3 ADD MSTORE POP JUMP JUMPDEST PUSH1 0x0 PUSH2 0x38D3 PUSH1 0x32 DUP4 PUSH2 0x2D6A JUMP JUMPDEST SWAP2 POP PUSH2 0x38DE DUP3 PUSH2 0x3877 JUMP JUMPDEST PUSH1 0x40 DUP3 ADD SWAP1 POP SWAP2 SWAP1 POP JUMP JUMPDEST PUSH1 0x0 PUSH1 0x20 DUP3 ADD SWAP1 POP DUP2 DUP2 SUB PUSH1 0x0 DUP4 ADD MSTORE PUSH2 0x3902 DUP2 PUSH2 0x38C6 JUMP JUMPDEST SWAP1 POP SWAP2 SWAP1 POP JUMP JUMPDEST PUSH32 0x4E6F6E4578697374696E673A205468657265206973206E6F20636C61696D2077 PUSH1 0x0 DUP3 ADD MSTORE PUSH32 0x6974682074686973204944000000000000000000000000000000000000000000 PUSH1 0x20 DUP3 ADD MSTORE POP JUMP JUMPDEST PUSH1 0x0 PUSH2 0x3965 PUSH1 0x2B DUP4 PUSH2 0x2D6A JUMP JUMPDEST SWAP2 POP PUSH2 0x3970 DUP3 PUSH2 0x3909 JUMP JUMPDEST PUSH1 0x40 DUP3 ADD SWAP1 POP SWAP2 SWAP1 POP JUMP JUMPDEST PUSH1 0x0 PUSH1 0x20 DUP3 ADD SWAP1 POP DUP2 DUP2 SUB PUSH1 0x0 DUP4 ADD MSTORE PUSH2 0x3994 DUP2 PUSH2 0x3958 JUMP JUMPDEST SWAP1 POP SWAP2 SWAP1 POP JUMP JUMPDEST PUSH1 0x0 PUSH2 0x39A6 DUP3 PUSH2 0x29CA JUMP JUMPDEST SWAP2 POP PUSH2 0x39B1 DUP4 PUSH2 0x29CA JUMP JUMPDEST SWAP3 POP DUP3 DUP3 SUB SWAP1 POP DUP2 DUP2 GT ISZERO PUSH2 0x39C9 JUMPI PUSH2 0x39C8 PUSH2 0x3793 JUMP JUMPDEST JUMPDEST SWAP3 SWAP2 POP POP JUMP JUMPDEST PUSH32 0x4E487B7100000000000000000000000000000000000000000000000000000000 PUSH1 0x0 MSTORE PUSH1 0x31 PUSH1 0x4 MSTORE PUSH1 0x24 PUSH1 0x0 REVERT JUMPDEST PUSH32 0x4E487B7100000000000000000000000000000000000000000000000000000000 PUSH1 0x0 MSTORE PUSH1 0x22 PUSH1 0x4 MSTORE PUSH1 0x24 PUSH1 0x0 REVERT JUMPDEST PUSH1 0x0 PUSH1 0x2 DUP3 DIV SWAP1 POP PUSH1 0x1 DUP3 AND DUP1 PUSH2 0x3A45 JUMPI PUSH1 0x7F DUP3 AND SWAP2 POP JUMPDEST PUSH1 0x20 DUP3 LT DUP2 SUB PUSH2 0x3A58 JUMPI PUSH2 0x3A57 PUSH2 0x39FE JUMP JUMPDEST JUMPDEST POP SWAP2 SWAP1 POP JUMP JUMPDEST PUSH1 0x0 DUP2 SWAP1 POP DUP2 PUSH1 0x0 MSTORE PUSH1 0x20 PUSH1 0x0 KECCAK256 SWAP1 POP SWAP2 SWAP1 POP JUMP JUMPDEST PUSH1 0x0 DUP2 SLOAD PUSH2 0x3A80 DUP2 PUSH2 0x3A2D JUMP JUMPDEST PUSH2 0x3A8A DUP2 DUP7 PUSH2 0x3461 JUMP JUMPDEST SWAP5 POP PUSH1 0x1 DUP3 AND PUSH1 0x0 DUP2 EQ PUSH2 0x3AA5 JUMPI PUSH1 0x1 DUP2 EQ PUSH2 0x3ABB JUMPI PUSH2 0x3AEE JUMP JUMPDEST PUSH1 0xFF NOT DUP4 AND DUP7 MSTORE DUP2 ISZERO ISZERO PUSH1 0x20 MUL DUP7 ADD SWAP4 POP PUSH2 0x3AEE JUMP JUMPDEST PUSH2 0x3AC4 DUP6 PUSH2 0x3A5E JUMP JUMPDEST PUSH1 0x0 JUMPDEST DUP4 DUP2 LT ISZERO PUSH2 0x3AE6 JUMPI DUP2 SLOAD DUP2 DUP10 ADD MSTORE PUSH1 0x1 DUP3 ADD SWAP2 POP PUSH1 0x20 DUP2 ADD SWAP1 POP PUSH2 0x3AC7 JUMP JUMPDEST DUP1 DUP9 ADD SWAP6 POP POP POP JUMPDEST POP POP POP SWAP3 SWAP2 POP POP JUMP JUMPDEST PUSH1 0x0 DUP2 SWAP1 POP DUP2 PUSH1 0x0 MSTORE PUSH1 0x20 PUSH1 0x0 KECCAK256 SWAP1 POP SWAP2 SWAP1 POP JUMP JUMPDEST PUSH1 0x0 DUP2 SLOAD PUSH2 0x3B19 DUP2 PUSH2 0x3A2D JUMP JUMPDEST PUSH2 0x3B23 DUP2 DUP7 PUSH2 0x2D6A JUMP JUMPDEST SWAP5 POP PUSH1 0x1 DUP3 AND PUSH1 0x0 DUP2 EQ PUSH2 0x3B3E JUMPI PUSH1 0x1 DUP2 EQ PUSH2 0x3B54 JUMPI PUSH2 0x3B87 JUMP JUMPDEST PUSH1 0xFF NOT DUP4 AND DUP7 MSTORE DUP2 ISZERO ISZERO PUSH1 0x20 MUL DUP7 ADD SWAP4 POP PUSH2 0x3B87 JUMP JUMPDEST PUSH2 0x3B5D DUP6 PUSH2 0x3AF7 JUMP JUMPDEST PUSH1 0x0 JUMPDEST DUP4 DUP2 LT ISZERO PUSH2 0x3B7F JUMPI DUP2 SLOAD DUP2 DUP10 ADD MSTORE PUSH1 0x1 DUP3 ADD SWAP2 POP PUSH1 0x20 DUP2 ADD SWAP1 POP PUSH2 0x3B60 JUMP JUMPDEST DUP1 DUP9 ADD SWAP6 POP POP POP JUMPDEST POP POP POP SWAP3 SWAP2 POP POP JUMP JUMPDEST PUSH1 0x0 PUSH1 0x80 DUP3 ADD SWAP1 POP PUSH2 0x3BA5 PUSH1 0x0 DUP4 ADD DUP8 PUSH2 0x2A66 JUMP JUMPDEST DUP2 DUP2 SUB PUSH1 0x20 DUP4 ADD MSTORE PUSH2 0x3BB7 DUP2 DUP7 PUSH2 0x3A73 JUMP JUMPDEST SWAP1 POP DUP2 DUP2 SUB PUSH1 0x40 DUP4 ADD MSTORE PUSH2 0x3BCB DUP2 DUP6 PUSH2 0x3A73 JUMP JUMPDEST SWAP1 POP DUP2 DUP2 SUB PUSH1 0x60 DUP4 ADD MSTORE PUSH2 0x3BDF DUP2 DUP5 PUSH2 0x3B0C JUMP JUMPDEST SWAP1 POP SWAP6 SWAP5 POP POP POP POP POP JUMP JUMPDEST PUSH32 0x4E6F6E4578697374696E673A204B65792069736E277420726567697374657265 PUSH1 0x0 DUP3 ADD MSTORE PUSH32 0x6400000000000000000000000000000000000000000000000000000000000000 PUSH1 0x20 DUP3 ADD MSTORE POP JUMP JUMPDEST PUSH1 0x0 PUSH2 0x3C46 PUSH1 0x21 DUP4 PUSH2 0x2D6A JUMP JUMPDEST SWAP2 POP PUSH2 0x3C51 DUP3 PUSH2 0x3BEA JUMP JUMPDEST PUSH1 0x40 DUP3 ADD SWAP1 POP SWAP2 SWAP1 POP JUMP JUMPDEST PUSH1 0x0 PUSH1 0x20 DUP3 ADD SWAP1 POP DUP2 DUP2 SUB PUSH1 0x0 DUP4 ADD MSTORE PUSH2 0x3C75 DUP2 PUSH2 0x3C39 JUMP JUMPDEST SWAP1 POP SWAP2 SWAP1 POP JUMP JUMPDEST PUSH32 0x4E6F6E4578697374696E673A204B657920646F65736E27742068617665207375 PUSH1 0x0 DUP3 ADD MSTORE PUSH32 0x636820707572706F736500000000000000000000000000000000000000000000 PUSH1 0x20 DUP3 ADD MSTORE POP JUMP JUMPDEST PUSH1 0x0 PUSH2 0x3CD8 PUSH1 0x2A DUP4 PUSH2 0x2D6A JUMP JUMPDEST SWAP2 POP PUSH2 0x3CE3 DUP3 PUSH2 0x3C7C JUMP JUMPDEST PUSH1 0x40 DUP3 ADD SWAP1 POP SWAP2 SWAP1 POP JUMP JUMPDEST PUSH1 0x0 PUSH1 0x20 DUP3 ADD SWAP1 POP DUP2 DUP2 SUB PUSH1 0x0 DUP4 ADD MSTORE PUSH2 0x3D07 DUP2 PUSH2 0x3CCB JUMP JUMPDEST SWAP1 POP SWAP2 SWAP1 POP JUMP JUMPDEST PUSH32 0x43616E6E6F7420617070726F76652061206E6F6E2D6578697374696E67206578 PUSH1 0x0 DUP3 ADD MSTORE PUSH32 0x65637574696F6E00000000000000000000000000000000000000000000000000 PUSH1 0x20 DUP3 ADD MSTORE POP JUMP JUMPDEST PUSH1 0x0 PUSH2 0x3D6A PUSH1 0x27 DUP4 PUSH2 0x2D6A JUMP JUMPDEST SWAP2 POP PUSH2 0x3D75 DUP3 PUSH2 0x3D0E JUMP JUMPDEST PUSH1 0x40 DUP3 ADD SWAP1 POP SWAP2 SWAP1 POP JUMP JUMPDEST PUSH1 0x0 PUSH1 0x20 DUP3 ADD SWAP1 POP DUP2 DUP2 SUB PUSH1 0x0 DUP4 ADD MSTORE PUSH2 0x3D99 DUP2 PUSH2 0x3D5D JUMP JUMPDEST SWAP1 POP SWAP2 SWAP1 POP JUMP JUMPDEST PUSH32 0x5265717565737420616C72656164792065786563757465640000000000000000 PUSH1 0x0 DUP3 ADD MSTORE POP JUMP JUMPDEST PUSH1 0x0 PUSH2 0x3DD6 PUSH1 0x18 DUP4 PUSH2 0x2D6A JUMP JUMPDEST SWAP2 POP PUSH2 0x3DE1 DUP3 PUSH2 0x3DA0 JUMP JUMPDEST PUSH1 0x20 DUP3 ADD SWAP1 POP SWAP2 SWAP1 POP JUMP JUMPDEST PUSH1 0x0 PUSH1 0x20 DUP3 ADD SWAP1 POP DUP2 DUP2 SUB PUSH1 0x0 DUP4 ADD MSTORE PUSH2 0x3E05 DUP2 PUSH2 0x3DC9 JUMP JUMPDEST SWAP1 POP SWAP2 SWAP1 POP JUMP JUMPDEST PUSH32 0x53656E64657220646F6573206E6F742068617665206D616E6167656D656E7420 PUSH1 0x0 DUP3 ADD MSTORE PUSH32 0x6B65790000000000000000000000000000000000000000000000000000000000 PUSH1 0x20 DUP3 ADD MSTORE POP JUMP JUMPDEST PUSH1 0x0 PUSH2 0x3E68 PUSH1 0x23 DUP4 PUSH2 0x2D6A JUMP JUMPDEST SWAP2 POP PUSH2 0x3E73 DUP3 PUSH2 0x3E0C JUMP JUMPDEST PUSH1 0x40 DUP3 ADD SWAP1 POP SWAP2 SWAP1 POP JUMP JUMPDEST PUSH1 0x0 PUSH1 0x20 DUP3 ADD SWAP1 POP DUP2 DUP2 SUB PUSH1 0x0 DUP4 ADD MSTORE PUSH2 0x3E97 DUP2 PUSH2 0x3E5B JUMP JUMPDEST SWAP1 POP SWAP2 SWAP1 POP JUMP JUMPDEST PUSH32 0x53656E64657220646F6573206E6F74206861766520616374696F6E206B657900 PUSH1 0x0 DUP3 ADD MSTORE POP JUMP JUMPDEST PUSH1 0x0 PUSH2 0x3ED4 PUSH1 0x1F DUP4 PUSH2 0x2D6A JUMP JUMPDEST SWAP2 POP PUSH2 0x3EDF DUP3 PUSH2 0x3E9E JUMP JUMPDEST PUSH1 0x20 DUP3 ADD SWAP1 POP SWAP2 SWAP1 POP JUMP JUMPDEST PUSH1 0x0 PUSH1 0x20 DUP3 ADD SWAP1 POP DUP2 DUP2 SUB PUSH1 0x0 DUP4 ADD MSTORE PUSH2 0x3F03 DUP2 PUSH2 0x3EC7 JUMP JUMPDEST SWAP1 POP SWAP2 SWAP1 POP JUMP JUMPDEST PUSH1 0x0 DUP2 SWAP1 POP SWAP3 SWAP2 POP POP JUMP JUMPDEST PUSH1 0x0 DUP2 SLOAD PUSH2 0x3F22 DUP2 PUSH2 0x3A2D JUMP JUMPDEST PUSH2 0x3F2C DUP2 DUP7 PUSH2 0x3F0A JUMP JUMPDEST SWAP5 POP PUSH1 0x1 DUP3 AND PUSH1 0x0 DUP2 EQ PUSH2 0x3F47 JUMPI PUSH1 0x1 DUP2 EQ PUSH2 0x3F5C JUMPI PUSH2 0x3F8F JUMP JUMPDEST PUSH1 0xFF NOT DUP4 AND DUP7 MSTORE DUP2 ISZERO ISZERO DUP3 MUL DUP7 ADD SWAP4 POP PUSH2 0x3F8F JUMP JUMPDEST PUSH2 0x3F65 DUP6 PUSH2 0x3A5E JUMP JUMPDEST PUSH1 0x0 JUMPDEST DUP4 DUP2 LT ISZERO PUSH2 0x3F87 JUMPI DUP2 SLOAD DUP2 DUP10 ADD MSTORE PUSH1 0x1 DUP3 ADD SWAP2 POP PUSH1 0x20 DUP2 ADD SWAP1 POP PUSH2 0x3F68 JUMP JUMPDEST DUP4 DUP9 ADD SWAP6 POP POP POP JUMPDEST POP POP POP SWAP3 SWAP2 POP POP JUMP JUMPDEST PUSH1 0x0 PUSH2 0x3FA4 DUP3 DUP5 PUSH2 0x3F15 JUMP JUMPDEST SWAP2 POP DUP2 SWAP1 POP SWAP3 SWAP2 POP POP JUMP JUMPDEST PUSH1 0x0 PUSH1 0x20 DUP3 ADD SWAP1 POP DUP2 DUP2 SUB PUSH1 0x0 DUP4 ADD MSTORE PUSH2 0x3FC9 DUP2 DUP5 PUSH2 0x3A73 JUMP JUMPDEST SWAP1 POP SWAP3 SWAP2 POP POP JUMP JUMPDEST PUSH1 0x0 DUP2 SWAP1 POP SWAP2 SWAP1 POP JUMP JUMPDEST PUSH1 0x0 PUSH2 0x3FF6 PUSH2 0x3FF1 PUSH2 0x3FEC DUP5 PUSH2 0x2BCD JUMP JUMPDEST PUSH2 0x3FD1 JUMP JUMPDEST PUSH2 0x2BCD JUMP JUMPDEST SWAP1 POP SWAP2 SWAP1 POP JUMP JUMPDEST PUSH1 0x0 PUSH2 0x4008 DUP3 PUSH2 0x3FDB JUMP JUMPDEST SWAP1 POP SWAP2 SWAP1 POP JUMP JUMPDEST PUSH1 0x0 PUSH2 0x401A DUP3 PUSH2 0x3FFD JUMP JUMPDEST SWAP1 POP SWAP2 SWAP1 POP JUMP JUMPDEST PUSH2 0x402A DUP2 PUSH2 0x400F JUMP JUMPDEST DUP3 MSTORE POP POP JUMP JUMPDEST PUSH1 0x0 PUSH1 0x80 DUP3 ADD SWAP1 POP PUSH2 0x4045 PUSH1 0x0 DUP4 ADD DUP8 PUSH2 0x4021 JUMP JUMPDEST PUSH2 0x4052 PUSH1 0x20 DUP4 ADD DUP7 PUSH2 0x2A66 JUMP JUMPDEST DUP2 DUP2 SUB PUSH1 0x40 DUP4 ADD MSTORE PUSH2 0x4064 DUP2 DUP6 PUSH2 0x3472 JUMP JUMPDEST SWAP1 POP DUP2 DUP2 SUB PUSH1 0x60 DUP4 ADD MSTORE PUSH2 0x4078 DUP2 DUP5 PUSH2 0x3472 JUMP JUMPDEST SWAP1 POP SWAP6 SWAP5 POP POP POP POP POP JUMP JUMPDEST PUSH1 0x0 DUP2 MLOAD SWAP1 POP PUSH2 0x4092 DUP2 PUSH2 0x2E11 JUMP JUMPDEST SWAP3 SWAP2 POP POP JUMP JUMPDEST PUSH1 0x0 PUSH1 0x20 DUP3 DUP5 SUB SLT ISZERO PUSH2 0x40AE JUMPI PUSH2 0x40AD PUSH2 0x2931 JUMP JUMPDEST JUMPDEST PUSH1 0x0 PUSH2 0x40BC DUP5 DUP3 DUP6 ADD PUSH2 0x4083 JUMP JUMPDEST SWAP2 POP POP SWAP3 SWAP2 POP POP JUMP JUMPDEST PUSH32 0x696E76616C696420636C61696D00000000000000000000000000000000000000 PUSH1 0x0 DUP3 ADD MSTORE POP JUMP JUMPDEST PUSH1 0x0 PUSH2 0x40FB PUSH1 0xD DUP4 PUSH2 0x2D6A JUMP JUMPDEST SWAP2 POP PUSH2 0x4106 DUP3 PUSH2 0x40C5 JUMP JUMPDEST PUSH1 0x20 DUP3 ADD SWAP1 POP SWAP2 SWAP1 POP JUMP JUMPDEST PUSH1 0x0 PUSH1 0x20 DUP3 ADD SWAP1 POP DUP2 DUP2 SUB PUSH1 0x0 DUP4 ADD MSTORE PUSH2 0x412A DUP2 PUSH2 0x40EE JUMP JUMPDEST SWAP1 POP SWAP2 SWAP1 POP JUMP JUMPDEST PUSH1 0x0 PUSH1 0x40 DUP3 ADD SWAP1 POP PUSH2 0x4146 PUSH1 0x0 DUP4 ADD DUP6 PUSH2 0x342C JUMP JUMPDEST PUSH2 0x4153 PUSH1 0x20 DUP4 ADD DUP5 PUSH2 0x2A66 JUMP JUMPDEST SWAP4 SWAP3 POP POP POP JUMP JUMPDEST PUSH1 0x0 PUSH1 0x20 PUSH1 0x1F DUP4 ADD DIV SWAP1 POP SWAP2 SWAP1 POP JUMP JUMPDEST PUSH1 0x0 DUP3 DUP3 SHL SWAP1 POP SWAP3 SWAP2 POP POP JUMP JUMPDEST PUSH1 0x0 PUSH1 0x8 DUP4 MUL PUSH2 0x41A7 PUSH32 0xFFFFFFFFFFFFFFFFFFFFFFFFFFFFFFFFFFFFFFFFFFFFFFFFFFFFFFFFFFFFFFFF DUP3 PUSH2 0x416A JUMP JUMPDEST PUSH2 0x41B1 DUP7 DUP4 PUSH2 0x416A JUMP JUMPDEST SWAP6 POP DUP1 NOT DUP5 AND SWAP4 POP DUP1 DUP7 AND DUP5 OR SWAP3 POP POP POP SWAP4 SWAP3 POP POP POP JUMP JUMPDEST PUSH1 0x0 PUSH2 0x41E4 PUSH2 0x41DF PUSH2 0x41DA DUP5 PUSH2 0x29CA JUMP JUMPDEST PUSH2 0x3FD1 JUMP JUMPDEST PUSH2 0x29CA JUMP JUMPDEST SWAP1 POP SWAP2 SWAP1 POP JUMP JUMPDEST PUSH1 0x0 DUP2 SWAP1 POP SWAP2 SWAP1 POP JUMP JUMPDEST PUSH2 0x41FE DUP4 PUSH2 0x41C9 JUMP JUMPDEST PUSH2 0x4212 PUSH2 0x420A DUP3 PUSH2 0x41EB JUMP JUMPDEST DUP5 DUP5 SLOAD PUSH2 0x4177 JUMP JUMPDEST DUP3 SSTORE POP POP POP POP JUMP JUMPDEST PUSH1 0x0 SWAP1 JUMP JUMPDEST PUSH2 0x4227 PUSH2 0x421A JUMP JUMPDEST PUSH2 0x4232 DUP2 DUP5 DUP5 PUSH2 0x41F5 JUMP JUMPDEST POP POP POP JUMP JUMPDEST JUMPDEST DUP2 DUP2 LT ISZERO PUSH2 0x4256 JUMPI PUSH2 0x424B PUSH1 0x0 DUP3 PUSH2 0x421F JUMP JUMPDEST PUSH1 0x1 DUP2 ADD SWAP1 POP PUSH2 0x4238 JUMP JUMPDEST POP POP JUMP JUMPDEST PUSH1 0x1F DUP3 GT ISZERO PUSH2 0x429B JUMPI PUSH2 0x426C DUP2 PUSH2 0x3A5E JUMP JUMPDEST PUSH2 0x4275 DUP5 PUSH2 0x415A JUMP JUMPDEST DUP2 ADD PUSH1 0x20 DUP6 LT ISZERO PUSH2 0x4284 JUMPI DUP2 SWAP1 POP JUMPDEST PUSH2 0x4298 PUSH2 0x4290 DUP6 PUSH2 0x415A JUMP JUMPDEST DUP4 ADD DUP3 PUSH2 0x4237 JUMP JUMPDEST POP POP JUMPDEST POP POP POP JUMP JUMPDEST PUSH1 0x0 DUP3 DUP3 SHR SWAP1 POP SWAP3 SWAP2 POP POP JUMP JUMPDEST PUSH1 0x0 PUSH2 0x42BE PUSH1 0x0 NOT DUP5 PUSH1 0x8 MUL PUSH2 0x42A0 JUMP JUMPDEST NOT DUP1 DUP4 AND SWAP2 POP POP SWAP3 SWAP2 POP POP JUMP JUMPDEST PUSH1 0x0 PUSH2 0x42D7 DUP4 DUP4 PUSH2 0x42AD JUMP JUMPDEST SWAP2 POP DUP3 PUSH1 0x2 MUL DUP3 OR SWAP1 POP SWAP3 SWAP2 POP POP JUMP JUMPDEST PUSH2 0x42F0 DUP3 PUSH2 0x3456 JUMP JUMPDEST PUSH8 0xFFFFFFFFFFFFFFFF DUP2 GT ISZERO PUSH2 0x4309 JUMPI PUSH2 0x4308 PUSH2 0x2FBC JUMP JUMPDEST JUMPDEST PUSH2 0x4313 DUP3 SLOAD PUSH2 0x3A2D JUMP JUMPDEST PUSH2 0x431E DUP3 DUP3 DUP6 PUSH2 0x425A JUMP JUMPDEST PUSH1 0x0 PUSH1 0x20 SWAP1 POP PUSH1 0x1F DUP4 GT PUSH1 0x1 DUP2 EQ PUSH2 0x4351 JUMPI PUSH1 0x0 DUP5 ISZERO PUSH2 0x433F JUMPI DUP3 DUP8 ADD MLOAD SWAP1 POP JUMPDEST PUSH2 0x4349 DUP6 DUP3 PUSH2 0x42CB JUMP JUMPDEST DUP7 SSTORE POP PUSH2 0x43B1 JUMP JUMPDEST PUSH1 0x1F NOT DUP5 AND PUSH2 0x435F DUP7 PUSH2 0x3A5E JUMP JUMPDEST PUSH1 0x0 JUMPDEST DUP3 DUP2 LT ISZERO PUSH2 0x4387 JUMPI DUP5 DUP10 ADD MLOAD DUP3 SSTORE PUSH1 0x1 DUP3 ADD SWAP2 POP PUSH1 0x20 DUP6 ADD SWAP5 POP PUSH1 0x20 DUP2 ADD SWAP1 POP PUSH2 0x4362 JUMP JUMPDEST DUP7 DUP4 LT ISZERO PUSH2 0x43A4 JUMPI DUP5 DUP10 ADD MLOAD PUSH2 0x43A0 PUSH1 0x1F DUP10 AND DUP3 PUSH2 0x42AD JUMP JUMPDEST DUP4 SSTORE POP JUMPDEST PUSH1 0x1 PUSH1 0x2 DUP9 MUL ADD DUP9 SSTORE POP POP POP JUMPDEST POP POP POP POP POP POP JUMP JUMPDEST PUSH1 0x1F DUP3 GT ISZERO PUSH2 0x43FA JUMPI PUSH2 0x43CB DUP2 PUSH2 0x3AF7 JUMP JUMPDEST PUSH2 0x43D4 DUP5 PUSH2 0x415A JUMP JUMPDEST DUP2 ADD PUSH1 0x20 DUP6 LT ISZERO PUSH2 0x43E3 JUMPI DUP2 SWAP1 POP JUMPDEST PUSH2 0x43F7 PUSH2 0x43EF DUP6 PUSH2 0x415A JUMP JUMPDEST DUP4 ADD DUP3 PUSH2 0x4237 JUMP JUMPDEST POP POP JUMPDEST POP POP POP JUMP JUMPDEST PUSH2 0x4408 DUP3 PUSH2 0x2D5F JUMP JUMPDEST PUSH8 0xFFFFFFFFFFFFFFFF DUP2 GT ISZERO PUSH2 0x4421 JUMPI PUSH2 0x4420 PUSH2 0x2FBC JUMP JUMPDEST JUMPDEST PUSH2 0x442B DUP3 SLOAD PUSH2 0x3A2D JUMP JUMPDEST PUSH2 0x4436 DUP3 DUP3 DUP6 PUSH2 0x43B9 JUMP JUMPDEST PUSH1 0x0 PUSH1 0x20 SWAP1 POP PUSH1 0x1F DUP4 GT PUSH1 0x1 DUP2 EQ PUSH2 0x4469 JUMPI PUSH1 0x0 DUP5 ISZERO PUSH2 0x4457 JUMPI DUP3 DUP8 ADD MLOAD SWAP1 POP JUMPDEST PUSH2 0x4461 DUP6 DUP3 PUSH2 0x42CB JUMP JUMPDEST DUP7 SSTORE POP PUSH2 0x44C9 JUMP JUMPDEST PUSH1 0x1F NOT DUP5 AND PUSH2 0x4477 DUP7 PUSH2 0x3AF7 JUMP JUMPDEST PUSH1 0x0 JUMPDEST DUP3 DUP2 LT ISZERO PUSH2 0x449F JUMPI DUP5 DUP10 ADD MLOAD DUP3 SSTORE PUSH1 0x1 DUP3 ADD SWAP2 POP PUSH1 0x20 DUP6 ADD SWAP5 POP PUSH1 0x20 DUP2 ADD SWAP1 POP PUSH2 0x447A JUMP JUMPDEST DUP7 DUP4 LT ISZERO PUSH2 0x44BC JUMPI DUP5 DUP10 ADD MLOAD PUSH2 0x44B8 PUSH1 0x1F DUP10 AND DUP3 PUSH2 0x42AD JUMP JUMPDEST DUP4 SSTORE POP JUMPDEST PUSH1 0x1 PUSH1 0x2 DUP9 MUL ADD DUP9 SSTORE POP POP POP JUMPDEST POP POP POP POP POP POP JUMP JUMPDEST PUSH1 0x0 PUSH1 0x80 DUP3 ADD SWAP1 POP PUSH2 0x44E6 PUSH1 0x0 DUP4 ADD DUP8 PUSH2 0x2A66 JUMP JUMPDEST DUP2 DUP2 SUB PUSH1 0x20 DUP4 ADD MSTORE PUSH2 0x44F8 DUP2 DUP7 PUSH2 0x3472 JUMP JUMPDEST SWAP1 POP DUP2 DUP2 SUB PUSH1 0x40 DUP4 ADD MSTORE PUSH2 0x450C DUP2 DUP6 PUSH2 0x3472 JUMP JUMPDEST SWAP1 POP DUP2 DUP2 SUB PUSH1 0x60 DUP4 ADD MSTORE PUSH2 0x4520 DUP2 DUP5 PUSH2 0x2DB6 JUMP JUMPDEST SWAP1 POP SWAP6 SWAP5 POP POP POP POP POP JUMP JUMPDEST PUSH1 0x0 PUSH1 0x60 DUP3 ADD SWAP1 POP PUSH2 0x4540 PUSH1 0x0 DUP4 ADD DUP7 PUSH2 0x4021 JUMP JUMPDEST PUSH2 0x454D PUSH1 0x20 DUP4 ADD DUP6 PUSH2 0x2A66 JUMP JUMPDEST DUP2 DUP2 SUB PUSH1 0x40 DUP4 ADD MSTORE PUSH2 0x455F DUP2 DUP5 PUSH2 0x3472 JUMP JUMPDEST SWAP1 POP SWAP5 SWAP4 POP POP POP POP JUMP JUMPDEST PUSH1 0x0 DUP2 SWAP1 POP SWAP3 SWAP2 POP POP JUMP JUMPDEST PUSH32 0x19457468657265756D205369676E6564204D6573736167653A0A333200000000 PUSH1 0x0 DUP3 ADD MSTORE POP JUMP JUMPDEST PUSH1 0x0 PUSH2 0x45AA PUSH1 0x1C DUP4 PUSH2 0x4569 JUMP JUMPDEST SWAP2 POP PUSH2 0x45B5 DUP3 PUSH2 0x4574 JUMP JUMPDEST PUSH1 0x1C DUP3 ADD SWAP1 POP SWAP2 SWAP1 POP JUMP JUMPDEST PUSH1 0x0 DUP2 SWAP1 POP SWAP2 SWAP1 POP JUMP JUMPDEST PUSH2 0x45DB PUSH2 0x45D6 DUP3 PUSH2 0x293B JUMP JUMPDEST PUSH2 0x45C0 JUMP JUMPDEST DUP3 MSTORE POP POP JUMP JUMPDEST PUSH1 0x0 PUSH2 0x45EC DUP3 PUSH2 0x459D JUMP JUMPDEST SWAP2 POP PUSH2 0x45F8 DUP3 DUP5 PUSH2 0x45CA JUMP JUMPDEST PUSH1 0x20 DUP3 ADD SWAP2 POP DUP2 SWAP1 POP SWAP3 SWAP2 POP POP JUMP JUMPDEST PUSH1 0x0 PUSH1 0xFF DUP3 AND SWAP1 POP SWAP2 SWAP1 POP JUMP JUMPDEST PUSH1 0x0 PUSH2 0x461F DUP3 PUSH2 0x4607 JUMP JUMPDEST SWAP2 POP PUSH2 0x462A DUP4 PUSH2 0x4607 JUMP JUMPDEST SWAP3 POP DUP3 DUP3 ADD SWAP1 POP PUSH1 0xFF DUP2 GT ISZERO PUSH2 0x4643 JUMPI PUSH2 0x4642 PUSH2 0x3793 JUMP JUMPDEST JUMPDEST SWAP3 SWAP2 POP POP JUMP JUMPDEST PUSH2 0x4652 DUP2 PUSH2 0x4607 JUMP JUMPDEST DUP3 MSTORE POP POP JUMP JUMPDEST PUSH1 0x0 PUSH1 0x80 DUP3 ADD SWAP1 POP PUSH2 0x466D PUSH1 0x0 DUP4 ADD DUP8 PUSH2 0x2A75 JUMP JUMPDEST PUSH2 0x467A PUSH1 0x20 DUP4 ADD DUP7 PUSH2 0x4649 JUMP JUMPDEST PUSH2 0x4687 PUSH1 0x40 DUP4 ADD DUP6 PUSH2 0x2A75 JUMP JUMPDEST PUSH2 0x4694 PUSH1 0x60 DUP4 ADD DUP5 PUSH2 0x2A75 JUMP JUMPDEST SWAP6 SWAP5 POP POP POP POP POP JUMP JUMPDEST PUSH32 0x696E76616C696420617267756D656E74202D207A65726F206164647265737300 PUSH1 0x0 DUP3 ADD MSTORE POP JUMP JUMPDEST PUSH1 0x0 PUSH2 0x46D3 PUSH1 0x1F DUP4 PUSH2 0x2D6A JUMP JUMPDEST SWAP2 POP PUSH2 0x46DE DUP3 PUSH2 0x469D JUMP JUMPDEST PUSH1 0x20 DUP3 ADD SWAP1 POP SWAP2 SWAP1 POP JUMP JUMPDEST PUSH1 0x0 PUSH1 0x20 DUP3 ADD SWAP1 POP DUP2 DUP2 SUB PUSH1 0x0 DUP4 ADD MSTORE PUSH2 0x4702 DUP2 PUSH2 0x46C6 JUMP JUMPDEST SWAP1 POP SWAP2 SWAP1 POP JUMP JUMPDEST PUSH32 0x496E697469616C206B65792077617320616C72656164792073657475702E0000 PUSH1 0x0 DUP3 ADD MSTORE POP JUMP JUMPDEST PUSH1 0x0 PUSH2 0x473F PUSH1 0x1E DUP4 PUSH2 0x2D6A JUMP JUMPDEST SWAP2 POP PUSH2 0x474A DUP3 PUSH2 0x4709 JUMP JUMPDEST PUSH1 0x20 DUP3 ADD SWAP1 POP SWAP2 SWAP1 POP JUMP JUMPDEST PUSH1 0x0 PUSH1 0x20 DUP3 ADD SWAP1 POP DUP2 DUP2 SUB PUSH1 0x0 DUP4 ADD MSTORE PUSH2 0x476E DUP2 PUSH2 0x4732 JUMP JUMPDEST SWAP1 POP SWAP2 SWAP1 POP JUMP INVALID LOG2 PUSH5 0x6970667358 0x22 SLT KECCAK256 0xEA PUSH32 0x24AE9829A417B9F2A9E0B063CDD3467F2B5ADC44B0BE4C4109B9679EA6986473 PUSH16 0x6C63430008110033A264697066735822 SLT KECCAK256 PUSH12 0x887C1150F06B8F70866D7210 0x25 0xBD 0xE4 0xD6 0xDE 0x27 JUMPI PUSH21 0xF9F8280EF1107D286DE37064736F6C634300081100 CALLER "
		},
		"gasEstimates": {
			"creation": {
				"codeDepositCost": "4145800",
				"executionCost": "4759",
				"totalCost": "4150559"
			},
			"external": {
				"createidentity(address)": "infinite",
				"getidentity(address)": "infinite"
			}
		},
		"methodIdentifiers": {
			"createidentity(address)": "daf9175e",
			"getidentity(address)": "52487a07"
		}
	},
	"abi": [
		{
			"inputs": [
				{
					"internalType": "address",
					"name": "_useraddress",
					"type": "address"
				}
			],
			"name": "createidentity",
			"outputs": [
				{
					"internalType": "address",
					"name": "",
					"type": "address"
				}
			],
			"stateMutability": "nonpayable",
			"type": "function"
		},
		{
			"inputs": [
				{
					"internalType": "address",
					"name": "_useraddress",
					"type": "address"
				}
			],
			"name": "getidentity",
			"outputs": [
				{
					"internalType": "address",
					"name": "",
					"type": "address"
				}
			],
			"stateMutability": "view",
			"type": "function"
		}
	]
}