{
	"data": {
		"bytecode": {
			"linkReferences": {},
			"object": "608060405234801561001057600080fd5b506159c580620000216000396000f3fe608060405234801561001057600080fd5b50600436106101f05760003560e01c8063736bbd5e1161010f578063b882c4b5116100a2578063d5ab92fd11610071578063d5ab92fd146105c6578063e56f2fe4146105e2578063e985e9c5146105fe578063f851a4401461062e576101f0565b8063b882c4b514610542578063b88d4fde1461055e578063bb96e0821461057a578063c87b56dd14610596576101f0565b806395d89b41116100de57806395d89b41146104bc578063a22cb465146104da578063aaf6c5a4146104f6578063b52ec4fe14610526576101f0565b8063736bbd5e146104345780638da5cb5b1461045057806393e7caae1461046e57806395d5a9a31461049e576101f0565b806342842e0e11610187578063646aae5611610156578063646aae561461039b57806364dd6d01146103b75780636817031b146103e857806370a0823114610404576101f0565b806342842e0e14610315578063430bf08a146103315780635c57ba6f1461034f5780636352211e1461036b576101f0565b80630b71d256116101c35780630b71d2561461028f5780631f22dac8146102ab57806323b872dd146102c95780633da1c0c3146102e5576101f0565b806301ffc9a7146101f557806306fdde0314610225578063081812fc14610243578063095ea7b314610273575b600080fd5b61020f600480360381019061020a91906138bd565b61064c565b60405161021c9190613905565b60405180910390f35b61022d6106ad565b60405161023a91906139b0565b60405180910390f35b61025d60048036038101906102589190613a08565b61073f565b60405161026a9190613a76565b60405180910390f35b61028d60048036038101906102889190613abd565b610785565b005b6102a960048036038101906102a49190613a08565b61089c565b005b6102b36109d9565b6040516102c09190613b0c565b60405180910390f35b6102e360048036038101906102de9190613b27565b6109df565b005b6102ff60048036038101906102fa9190613b7a565b610a3f565b60405161030c9190613905565b60405180910390f35b61032f600480360381019061032a9190613b27565b610b19565b005b610339610b39565b6040516103469190613a76565b60405180910390f35b61036960048036038101906103649190613c0c565b610b5f565b005b61038560048036038101906103809190613a08565b610bef565b6040516103929190613a76565b60405180910390f35b6103b560048036038101906103b09190613d89565b610c75565b005b6103d160048036038101906103cc9190613a08565b610e2a565b6040516103df929190613ebf565b60405180910390f35b61040260048036038101906103fd9190613b7a565b61100e565b005b61041e60048036038101906104199190613b7a565b6110e3565b60405161042b9190613b0c565b60405180910390f35b61044e60048036038101906104499190614093565b61119a565b005b61045861128c565b6040516104659190613a76565b60405180910390f35b61048860048036038101906104839190613b7a565b6112b2565b6040516104959190613905565b60405180910390f35b6104a6611367565b6040516104b3919061416a565b60405180910390f35b6104c461138d565b6040516104d191906139b0565b60405180910390f35b6104f460048036038101906104ef91906141b1565b61141f565b005b610510600480360381019061050b9190613a08565b611435565b60405161051d9190613905565b60405180910390f35b610540600480360381019061053b91906141f1565b611519565b005b61055c60048036038101906105579190613a08565b6117a0565b005b61057860048036038101906105739190614301565b611978565b005b610594600480360381019061058f9190613d89565b611aca565b005b6105b060048036038101906105ab9190613a08565b611d2d565b6040516105bd91906139b0565b60405180910390f35b6105e060048036038101906105db9190613b7a565b611e3f565b005b6105fc60048036038101906105f79190614384565b612402565b005b61061860048036038101906106139190614449565b61264c565b6040516106259190613905565b60405180910390f35b6106366126e0565b6040516106439190613a76565b60405180910390f35b6000634906490660e01b7bffffffffffffffffffffffffffffffffffffffffffffffffffffffff1916827bffffffffffffffffffffffffffffffffffffffffffffffffffffffff191614806106a657506106a582612706565b5b9050919050565b6060606580546106bc906144b8565b80601f01602080910402602001604051908101604052809291908181526020018280546106e8906144b8565b80156107355780601f1061070a57610100808354040283529160200191610735565b820191906000526020600020905b81548152906001019060200180831161071857829003601f168201915b5050505050905090565b600061074a826127e8565b6069600083815260200190815260200160002060009054906101000a900473ffffffffffffffffffffffffffffffffffffffff169050919050565b600061079082610bef565b90508073ffffffffffffffffffffffffffffffffffffffff168373ffffffffffffffffffffffffffffffffffffffff1603610800576040517f08c379a00000000000000000000000000000000000000000000000000000000081526004016107f79061455b565b60405180910390fd5b8073ffffffffffffffffffffffffffffffffffffffff1661081f612833565b73ffffffffffffffffffffffffffffffffffffffff16148061084e575061084d81610848612833565b61264c565b5b61088d576040517f08c379a0000000000000000000000000000000000000000000000000000000008152600401610884906145ed565b60405180910390fd5b610897838361283b565b505050565b60cb60009054906101000a900473ffffffffffffffffffffffffffffffffffffffff1673ffffffffffffffffffffffffffffffffffffffff163373ffffffffffffffffffffffffffffffffffffffff161480610945575060ce60009054906101000a900473ffffffffffffffffffffffffffffffffffffffff1673ffffffffffffffffffffffffffffffffffffffff163373ffffffffffffffffffffffffffffffffffffffff16145b610984576040517f08c379a000000000000000000000000000000000000000000000000000000000815260040161097b90614659565b60405180910390fd5b8060ca600082825461099691906146a8565b925050819055507f6ee69294aead3b7c6da4434941f39bf77e660ff3f6cde8c88bb0e6db9e8b88ed30826040516109ce9291906146dc565b60405180910390a150565b60ca5481565b6109f06109ea612833565b826128f4565b610a2f576040517f08c379a0000000000000000000000000000000000000000000000000000000008152600401610a2690614777565b60405180910390fd5b610a3a838383612989565b505050565b60008060cf60009054906101000a900473ffffffffffffffffffffffffffffffffffffffff1673ffffffffffffffffffffffffffffffffffffffff166352487a07846040518263ffffffff1660e01b8152600401610a9d9190613a76565b602060405180830381865afa158015610aba573d6000803e3d6000fd5b505050506040513d601f19601f82011682018060405250810190610ade91906147ac565b9050600073ffffffffffffffffffffffffffffffffffffffff168173ffffffffffffffffffffffffffffffffffffffff161415915050919050565b610b3483838360405180602001604052806000815250611978565b505050565b60cd60009054906101000a900473ffffffffffffffffffffffffffffffffffffffff1681565b610b68336112b2565b610ba7576040517f08c379a0000000000000000000000000000000000000000000000000000000008152600401610b9e90614825565b60405180910390fd5b60005b82829050811015610bea57610bd7838383818110610bcb57610bca614845565b5b905060200201356117a0565b8080610be290614874565b915050610baa565b505050565b600080610bfb83612c82565b9050600073ffffffffffffffffffffffffffffffffffffffff168173ffffffffffffffffffffffffffffffffffffffff1603610c6c576040517f08c379a0000000000000000000000000000000000000000000000000000000008152600401610c6390614908565b60405180910390fd5b80915050919050565b60cb60009054906101000a900473ffffffffffffffffffffffffffffffffffffffff1673ffffffffffffffffffffffffffffffffffffffff163373ffffffffffffffffffffffffffffffffffffffff1614610d05576040517f08c379a0000000000000000000000000000000000000000000000000000000008152600401610cfc90614974565b60405180910390fd5b610d0e82611435565b610d4d576040517f08c379a0000000000000000000000000000000000000000000000000000000008152600401610d44906149e0565b60405180910390fd5b610d578282612cbf565b60005b60d0805490508160ff161015610e255760d16000848152602001908152602001600020600060d08360ff1681548110610d9657610d95614845565b5b906000526020600020906003020160000160009054906101000a900473ffffffffffffffffffffffffffffffffffffffff1673ffffffffffffffffffffffffffffffffffffffff1673ffffffffffffffffffffffffffffffffffffffff16815260200190815260200160002060006101000a81549060ff02191690558080610e1d90614a00565b915050610d5a565b505050565b6060600080600060d08054905067ffffffffffffffff811115610e5057610e4f613c5e565b5b604051908082528060200260200182016040528015610e7e5781602001602082028036833780820191505090505b50905060005b60d0805490508160ff161015611000576001151560d16000888152602001908152602001600020600060d08460ff1681548110610ec457610ec3614845565b5b906000526020600020906003020160000160009054906101000a900473ffffffffffffffffffffffffffffffffffffffff1673ffffffffffffffffffffffffffffffffffffffff1673ffffffffffffffffffffffffffffffffffffffff16815260200190815260200160002060009054906101000a900460ff16151503610fed5760d08160ff1681548110610f5c57610f5b614845565b5b906000526020600020906003020160000160009054906101000a900473ffffffffffffffffffffffffffffffffffffffff16828460ff1681518110610fa457610fa3614845565b5b602002602001019073ffffffffffffffffffffffffffffffffffffffff16908173ffffffffffffffffffffffffffffffffffffffff16815250508280610fe990614a00565b9350505b8080610ff890614a00565b915050610e84565b508082935093505050915091565b600073ffffffffffffffffffffffffffffffffffffffff1660cd60009054906101000a900473ffffffffffffffffffffffffffffffffffffffff1673ffffffffffffffffffffffffffffffffffffffff161461109f576040517f08c379a000000000000000000000000000000000000000000000000000000000815260040161109690614a75565b60405180910390fd5b8060cd60006101000a81548173ffffffffffffffffffffffffffffffffffffffff021916908373ffffffffffffffffffffffffffffffffffffffff16021790555050565b60008073ffffffffffffffffffffffffffffffffffffffff168273ffffffffffffffffffffffffffffffffffffffff1603611153576040517f08c379a000000000000000000000000000000000000000000000000000000000815260040161114a90614b07565b60405180910390fd5b606860008373ffffffffffffffffffffffffffffffffffffffff1673ffffffffffffffffffffffffffffffffffffffff168152602001908152602001600020549050919050565b60cb60009054906101000a900473ffffffffffffffffffffffffffffffffffffffff1673ffffffffffffffffffffffffffffffffffffffff163373ffffffffffffffffffffffffffffffffffffffff161461122a576040517f08c379a000000000000000000000000000000000000000000000000000000000815260040161122190614974565b60405180910390fd5b60005b82518110156112875761127483828151811061124c5761124b614845565b5b602002602001015183838151811061126757611266614845565b5b6020026020010151611aca565b808061127f90614874565b91505061122d565b505050565b60cc60009054906101000a900473ffffffffffffffffffffffffffffffffffffffff1681565b600080600090505b60d08054905081101561135c578273ffffffffffffffffffffffffffffffffffffffff1660d082815481106112f2576112f1614845565b5b906000526020600020906003020160000160009054906101000a900473ffffffffffffffffffffffffffffffffffffffff1673ffffffffffffffffffffffffffffffffffffffff1603611349576001915050611362565b808061135490614874565b9150506112ba565b50600090505b919050565b60cf60009054906101000a900473ffffffffffffffffffffffffffffffffffffffff1681565b60606066805461139c906144b8565b80601f01602080910402602001604051908101604052809291908181526020018280546113c8906144b8565b80156114155780601f106113ea57610100808354040283529160200191611415565b820191906000526020600020905b8154815290600101906020018083116113f857829003601f168201915b5050505050905090565b61143161142a612833565b8383612d63565b5050565b6000806001905060005b60d08054905081101561150f5760d16000858152602001908152602001600020600060d0838154811061147557611474614845565b5b906000526020600020906003020160000160009054906101000a900473ffffffffffffffffffffffffffffffffffffffff1673ffffffffffffffffffffffffffffffffffffffff1673ffffffffffffffffffffffffffffffffffffffff16815260200190815260200160002060009054906101000a900460ff166114fc576000915061150f565b808061150790614874565b91505061143f565b5080915050919050565b611522836112b2565b15611562576040517f08c379a000000000000000000000000000000000000000000000000000000000815260040161155990614b73565b60405180910390fd5b60cb60009054906101000a900473ffffffffffffffffffffffffffffffffffffffff1673ffffffffffffffffffffffffffffffffffffffff163373ffffffffffffffffffffffffffffffffffffffff16148061160b575060ce60009054906101000a900473ffffffffffffffffffffffffffffffffffffffff1673ffffffffffffffffffffffffffffffffffffffff163373ffffffffffffffffffffffffffffffffffffffff16145b61164a576040517f08c379a000000000000000000000000000000000000000000000000000000000815260040161164190614659565b60405180910390fd5b60d060405180606001604052808573ffffffffffffffffffffffffffffffffffffffff1681526020018473ffffffffffffffffffffffffffffffffffffffff16815260200183815250908060018154018082558091505060019003906000526020600020906003020160009091909190915060008201518160000160006101000a81548173ffffffffffffffffffffffffffffffffffffffff021916908373ffffffffffffffffffffffffffffffffffffffff16021790555060208201518160010160006101000a81548173ffffffffffffffffffffffffffffffffffffffff021916908373ffffffffffffffffffffffffffffffffffffffff160217905550604082015181600201908161175f9190614d35565b5050507fc852d167bcddab4a31abcb5f5b72b6f60359f4e9e1aebd1ad62fa9e3d931594f3084604051611793929190614e07565b60405180910390a1505050565b6117a9336112b2565b6117e8576040517f08c379a00000000000000000000000000000000000000000000000000000000081526004016117df90614825565b60405180910390fd5b6001151560d1600083815260200190815260200160002060003373ffffffffffffffffffffffffffffffffffffffff1673ffffffffffffffffffffffffffffffffffffffff16815260200190815260200160002060009054906101000a900460ff1615150361188c576040517f08c379a000000000000000000000000000000000000000000000000000000000815260040161188390614e7c565b60405180910390fd5b8060ca5410156118d1576040517f08c379a00000000000000000000000000000000000000000000000000000000081526004016118c890614f0e565b60405180910390fd5b600160d1600083815260200190815260200160002060003373ffffffffffffffffffffffffffffffffffffffff1673ffffffffffffffffffffffffffffffffffffffff16815260200190815260200160002060006101000a81548160ff0219169083151502179055507fbce4564ae8f7a5dd3d3d58d052e9cf9791f941153d5eae9ff86943dc3072331030823360405161196d93929190614f2e565b60405180910390a150565b60cd60009054906101000a900473ffffffffffffffffffffffffffffffffffffffff1673ffffffffffffffffffffffffffffffffffffffff168373ffffffffffffffffffffffffffffffffffffffff1614806119d957506119d883610a3f565b5b611a18576040517f08c379a0000000000000000000000000000000000000000000000000000000008152600401611a0f90614fb1565b60405180910390fd5b611a2184610a3f565b80611a79575060cd60009054906101000a900473ffffffffffffffffffffffffffffffffffffffff1673ffffffffffffffffffffffffffffffffffffffff168473ffffffffffffffffffffffffffffffffffffffff16145b611ab8576040517f08c379a0000000000000000000000000000000000000000000000000000000008152600401611aaf9061501d565b60405180910390fd5b611ac484848484612ecf565b50505050565b60cb60009054906101000a900473ffffffffffffffffffffffffffffffffffffffff1673ffffffffffffffffffffffffffffffffffffffff163373ffffffffffffffffffffffffffffffffffffffff1614611b5a576040517f08c379a0000000000000000000000000000000000000000000000000000000008152600401611b5190614974565b60405180910390fd5b611b8560cc60009054906101000a900473ffffffffffffffffffffffffffffffffffffffff16610a3f565b611bc4576040517f08c379a0000000000000000000000000000000000000000000000000000000008152600401611bbb90615089565b60405180910390fd5b611bcd82611435565b611c0c576040517f08c379a0000000000000000000000000000000000000000000000000000000008152600401611c03906149e0565b60405180910390fd5b60c96000815480929190611c1f90614874565b9190505550611c5060cc60009054906101000a900473ffffffffffffffffffffffffffffffffffffffff1683612f31565b611c5a8282612cbf565b60005b60d0805490508160ff161015611d285760d16000848152602001908152602001600020600060d08360ff1681548110611c9957611c98614845565b5b906000526020600020906003020160000160009054906101000a900473ffffffffffffffffffffffffffffffffffffffff1673ffffffffffffffffffffffffffffffffffffffff1673ffffffffffffffffffffffffffffffffffffffff16815260200190815260200160002060006101000a81549060ff02191690558080611d2090614a00565b915050611c5d565b505050565b6060611d38826127e8565b6000609760008481526020019081526020016000208054611d58906144b8565b80601f0160208091040260200160405190810160405280929190818152602001828054611d84906144b8565b8015611dd15780601f10611da657610100808354040283529160200191611dd1565b820191906000526020600020905b815481529060010190602001808311611db457829003601f168201915b505050505090506000611de2612f4f565b90506000815103611df7578192505050611e3a565b600082511115611e2c578082604051602001611e149291906150e5565b60405160208183030381529060405292505050611e3a565b611e3584612f66565b925050505b919050565b60cb60009054906101000a900473ffffffffffffffffffffffffffffffffffffffff1673ffffffffffffffffffffffffffffffffffffffff163373ffffffffffffffffffffffffffffffffffffffff1614611ecf576040517f08c379a0000000000000000000000000000000000000000000000000000000008152600401611ec690614974565b60405180910390fd5b611ed8816112b2565b611f17576040517f08c379a0000000000000000000000000000000000000000000000000000000008152600401611f0e90615155565b60405180910390fd5b60cc60009054906101000a900473ffffffffffffffffffffffffffffffffffffffff1673ffffffffffffffffffffffffffffffffffffffff168173ffffffffffffffffffffffffffffffffffffffff1603611fa7576040517f08c379a0000000000000000000000000000000000000000000000000000000008152600401611f9e906151c1565b60405180910390fd5b60005b60d0805490508160ff1610156122ce578173ffffffffffffffffffffffffffffffffffffffff1660d08260ff1681548110611fe857611fe7614845565b5b906000526020600020906003020160000160009054906101000a900473ffffffffffffffffffffffffffffffffffffffff1673ffffffffffffffffffffffffffffffffffffffff16036122bb5760d08160ff168154811061204c5761204b614845565b5b9060005260206000209060030201600080820160006101000a81549073ffffffffffffffffffffffffffffffffffffffff02191690556001820160006101000a81549073ffffffffffffffffffffffffffffffffffffffff02191690556002820160006120b991906137f4565b505060008190505b600160d0805490506120d391906151e1565b8160ff16101561222c5760d06001836120ec9190615215565b60ff1681548110612100576120ff614845565b5b906000526020600020906003020160d08360ff168154811061212557612124614845565b5b90600052602060002090600302016000820160009054906101000a900473ffffffffffffffffffffffffffffffffffffffff168160000160006101000a81548173ffffffffffffffffffffffffffffffffffffffff021916908373ffffffffffffffffffffffffffffffffffffffff1602179055506001820160009054906101000a900473ffffffffffffffffffffffffffffffffffffffff168160010160006101000a81548173ffffffffffffffffffffffffffffffffffffffff021916908373ffffffffffffffffffffffffffffffffffffffff160217905550600282018160020190816122159190615260565b50905050808061222490614a00565b9150506120c1565b5060d080548061223f5761223e615348565b5b6001900381819060005260206000209060030201600080820160006101000a81549073ffffffffffffffffffffffffffffffffffffffff02191690556001820160006101000a81549073ffffffffffffffffffffffffffffffffffffffff02191690556002820160006122b291906137f4565b505090556122ce565b80806122c690614a00565b915050611faa565b506000600190505b60ca5481116123c5576001151560d1600083815260200190815260200160002060008473ffffffffffffffffffffffffffffffffffffffff1673ffffffffffffffffffffffffffffffffffffffff16815260200190815260200160002060009054906101000a900460ff161515036123b257600060d1600083815260200190815260200160002060008473ffffffffffffffffffffffffffffffffffffffff1673ffffffffffffffffffffffffffffffffffffffff16815260200190815260200160002060006101000a81548160ff0219169083151502179055505b80806123bd90614874565b9150506122d6565b507ffeda919499bc609f05b7c9c33db8fe0b509f93ca5f69ccd2858500d2d68f3ff130826040516123f7929190614e07565b60405180910390a150565b60008060019054906101000a900460ff161590508080156124335750600160008054906101000a900460ff1660ff16105b80612460575061244230612fce565b15801561245f5750600160008054906101000a900460ff1660ff16145b5b61249f576040517f08c379a0000000000000000000000000000000000000000000000000000000008152600401612496906153e9565b60405180910390fd5b60016000806101000a81548160ff021916908360ff16021790555080156124dc576001600060016101000a81548160ff0219169083151502179055505b6124e68787612ff1565b8460cf60006101000a81548173ffffffffffffffffffffffffffffffffffffffff021916908373ffffffffffffffffffffffffffffffffffffffff1602179055508360cb60006101000a81548173ffffffffffffffffffffffffffffffffffffffff021916908373ffffffffffffffffffffffffffffffffffffffff1602179055508260cc60006101000a81548173ffffffffffffffffffffffffffffffffffffffff021916908373ffffffffffffffffffffffffffffffffffffffff1602179055508160ce60006101000a81548173ffffffffffffffffffffffffffffffffffffffff021916908373ffffffffffffffffffffffffffffffffffffffff16021790555080156126435760008060016101000a81548160ff0219169083151502179055507f7f26b83ff96e1f2b6a682f133852f6798a09c465da95921460cefb3847402498600160405161263a9190615444565b60405180910390a15b50505050505050565b6000606a60008473ffffffffffffffffffffffffffffffffffffffff1673ffffffffffffffffffffffffffffffffffffffff16815260200190815260200160002060008373ffffffffffffffffffffffffffffffffffffffff1673ffffffffffffffffffffffffffffffffffffffff16815260200190815260200160002060009054906101000a900460ff16905092915050565b60cb60009054906101000a900473ffffffffffffffffffffffffffffffffffffffff1681565b60007f80ac58cd000000000000000000000000000000000000000000000000000000007bffffffffffffffffffffffffffffffffffffffffffffffffffffffff1916827bffffffffffffffffffffffffffffffffffffffffffffffffffffffff191614806127d157507f5b5e139f000000000000000000000000000000000000000000000000000000007bffffffffffffffffffffffffffffffffffffffffffffffffffffffff1916827bffffffffffffffffffffffffffffffffffffffffffffffffffffffff1916145b806127e157506127e08261304e565b5b9050919050565b6127f1816130b8565b612830576040517f08c379a000000000000000000000000000000000000000000000000000000000815260040161282790614908565b60405180910390fd5b50565b600033905090565b816069600083815260200190815260200160002060006101000a81548173ffffffffffffffffffffffffffffffffffffffff021916908373ffffffffffffffffffffffffffffffffffffffff160217905550808273ffffffffffffffffffffffffffffffffffffffff166128ae83610bef565b73ffffffffffffffffffffffffffffffffffffffff167f8c5be1e5ebec7d5bd14f71427d1e84f3dd0314c0f7b2291e5b200ac8c7c3b92560405160405180910390a45050565b60008061290083610bef565b90508073ffffffffffffffffffffffffffffffffffffffff168473ffffffffffffffffffffffffffffffffffffffff1614806129425750612941818561264c565b5b8061298057508373ffffffffffffffffffffffffffffffffffffffff166129688461073f565b73ffffffffffffffffffffffffffffffffffffffff16145b91505092915050565b8273ffffffffffffffffffffffffffffffffffffffff166129a982610bef565b73ffffffffffffffffffffffffffffffffffffffff16146129ff576040517f08c379a00000000000000000000000000000000000000000000000000000000081526004016129f6906154d1565b60405180910390fd5b600073ffffffffffffffffffffffffffffffffffffffff168273ffffffffffffffffffffffffffffffffffffffff1603612a6e576040517f08c379a0000000000000000000000000000000000000000000000000000000008152600401612a6590615563565b60405180910390fd5b612a7b83838360016130f9565b8273ffffffffffffffffffffffffffffffffffffffff16612a9b82610bef565b73ffffffffffffffffffffffffffffffffffffffff1614612af1576040517f08c379a0000000000000000000000000000000000000000000000000000000008152600401612ae8906154d1565b60405180910390fd5b6069600082815260200190815260200160002060006101000a81549073ffffffffffffffffffffffffffffffffffffffff02191690556001606860008573ffffffffffffffffffffffffffffffffffffffff1673ffffffffffffffffffffffffffffffffffffffff168152602001908152602001600020600082825403925050819055506001606860008473ffffffffffffffffffffffffffffffffffffffff1673ffffffffffffffffffffffffffffffffffffffff16815260200190815260200160002060008282540192505081905550816067600083815260200190815260200160002060006101000a81548173ffffffffffffffffffffffffffffffffffffffff021916908373ffffffffffffffffffffffffffffffffffffffff160217905550808273ffffffffffffffffffffffffffffffffffffffff168473ffffffffffffffffffffffffffffffffffffffff167fddf252ad1be2c89b69c2b068fc378daa952ba7f163c4a11628f55a4df523b3ef60405160405180910390a4612c7d83838360016130ff565b505050565b60006067600083815260200190815260200160002060009054906101000a900473ffffffffffffffffffffffffffffffffffffffff169050919050565b612cc8826130b8565b612d07576040517f08c379a0000000000000000000000000000000000000000000000000000000008152600401612cfe906155f5565b60405180910390fd5b80609760008481526020019081526020016000209081612d279190614d35565b507ff8e1a15aba9398e019f0b49df1a4fde98ee17ae345cb5f6b5e2c27f5033e8ce782604051612d579190613b0c565b60405180910390a15050565b8173ffffffffffffffffffffffffffffffffffffffff168373ffffffffffffffffffffffffffffffffffffffff1603612dd1576040517f08c379a0000000000000000000000000000000000000000000000000000000008152600401612dc890615661565b60405180910390fd5b80606a60008573ffffffffffffffffffffffffffffffffffffffff1673ffffffffffffffffffffffffffffffffffffffff16815260200190815260200160002060008473ffffffffffffffffffffffffffffffffffffffff1673ffffffffffffffffffffffffffffffffffffffff16815260200190815260200160002060006101000a81548160ff0219169083151502179055508173ffffffffffffffffffffffffffffffffffffffff168373ffffffffffffffffffffffffffffffffffffffff167f17307eab39ab6107e8899845ad3d59bd9653f200f220920489ca2b5937696c3183604051612ec29190613905565b60405180910390a3505050565b612ee0612eda612833565b836128f4565b612f1f576040517f08c379a0000000000000000000000000000000000000000000000000000000008152600401612f1690614777565b60405180910390fd5b612f2b84848484613105565b50505050565b612f4b828260405180602001604052806000815250613161565b5050565b606060405180602001604052806000815250905090565b6060612f71826127e8565b6000612f7b612f4f565b90506000815111612f9b5760405180602001604052806000815250612fc6565b80612fa5846131bc565b604051602001612fb69291906150e5565b6040516020818303038152906040525b915050919050565b6000808273ffffffffffffffffffffffffffffffffffffffff163b119050919050565b600060019054906101000a900460ff16613040576040517f08c379a0000000000000000000000000000000000000000000000000000000008152600401613037906156f3565b60405180910390fd5b61304a828261328a565b5050565b60007f01ffc9a7000000000000000000000000000000000000000000000000000000007bffffffffffffffffffffffffffffffffffffffffffffffffffffffff1916827bffffffffffffffffffffffffffffffffffffffffffffffffffffffff1916149050919050565b60008073ffffffffffffffffffffffffffffffffffffffff166130da83612c82565b73ffffffffffffffffffffffffffffffffffffffff1614159050919050565b50505050565b50505050565b613110848484612989565b61311c848484846132fd565b61315b576040517f08c379a000000000000000000000000000000000000000000000000000000000815260040161315290615785565b60405180910390fd5b50505050565b61316b8383613484565b61317860008484846132fd565b6131b7576040517f08c379a00000000000000000000000000000000000000000000000000000000081526004016131ae90615785565b60405180910390fd5b505050565b6060600060016131cb846136a1565b01905060008167ffffffffffffffff8111156131ea576131e9613c5e565b5b6040519080825280601f01601f19166020018201604052801561321c5781602001600182028036833780820191505090505b509050600082602001820190505b60011561327f578080600190039150507f3031323334353637383961626364656600000000000000000000000000000000600a86061a8153600a8581613273576132726157a5565b5b0494506000850361322a575b819350505050919050565b600060019054906101000a900460ff166132d9576040517f08c379a00000000000000000000000000000000000000000000000000000000081526004016132d0906156f3565b60405180910390fd5b81606590816132e89190614d35565b5080606690816132f89190614d35565b505050565b600061331e8473ffffffffffffffffffffffffffffffffffffffff16612fce565b15613477578373ffffffffffffffffffffffffffffffffffffffff1663150b7a02613347612833565b8786866040518563ffffffff1660e01b81526004016133699493929190615829565b6020604051808303816000875af19250505080156133a557506040513d601f19601f820116820180604052508101906133a2919061588a565b60015b613427573d80600081146133d5576040519150601f19603f3d011682016040523d82523d6000602084013e6133da565b606091505b50600081510361341f576040517f08c379a000000000000000000000000000000000000000000000000000000000815260040161341690615785565b60405180910390fd5b805181602001fd5b63150b7a0260e01b7bffffffffffffffffffffffffffffffffffffffffffffffffffffffff1916817bffffffffffffffffffffffffffffffffffffffffffffffffffffffff19161491505061347c565b600190505b949350505050565b600073ffffffffffffffffffffffffffffffffffffffff168273ffffffffffffffffffffffffffffffffffffffff16036134f3576040517f08c379a00000000000000000000000000000000000000000000000000000000081526004016134ea90615903565b60405180910390fd5b6134fc816130b8565b1561353c576040517f08c379a00000000000000000000000000000000000000000000000000000000081526004016135339061596f565b60405180910390fd5b61354a6000838360016130f9565b613553816130b8565b15613593576040517f08c379a000000000000000000000000000000000000000000000000000000000815260040161358a9061596f565b60405180910390fd5b6001606860008473ffffffffffffffffffffffffffffffffffffffff1673ffffffffffffffffffffffffffffffffffffffff16815260200190815260200160002060008282540192505081905550816067600083815260200190815260200160002060006101000a81548173ffffffffffffffffffffffffffffffffffffffff021916908373ffffffffffffffffffffffffffffffffffffffff160217905550808273ffffffffffffffffffffffffffffffffffffffff16600073ffffffffffffffffffffffffffffffffffffffff167fddf252ad1be2c89b69c2b068fc378daa952ba7f163c4a11628f55a4df523b3ef60405160405180910390a461369d6000838360016130ff565b5050565b600080600090507a184f03e93ff9f4daa797ed6e38ed64bf6a1f01000000000000000083106136ff577a184f03e93ff9f4daa797ed6e38ed64bf6a1f01000000000000000083816136f5576136f46157a5565b5b0492506040810190505b6d04ee2d6d415b85acef8100000000831061373c576d04ee2d6d415b85acef81000000008381613732576137316157a5565b5b0492506020810190505b662386f26fc10000831061376b57662386f26fc100008381613761576137606157a5565b5b0492506010810190505b6305f5e1008310613794576305f5e100838161378a576137896157a5565b5b0492506008810190505b61271083106137b95761271083816137af576137ae6157a5565b5b0492506004810190505b606483106137dc57606483816137d2576137d16157a5565b5b0492506002810190505b600a83106137eb576001810190505b80915050919050565b508054613800906144b8565b6000825580601f106138125750613831565b601f0160209004906000526020600020908101906138309190613834565b5b50565b5b8082111561384d576000816000905550600101613835565b5090565b6000604051905090565b600080fd5b600080fd5b60007fffffffff0000000000000000000000000000000000000000000000000000000082169050919050565b61389a81613865565b81146138a557600080fd5b50565b6000813590506138b781613891565b92915050565b6000602082840312156138d3576138d261385b565b5b60006138e1848285016138a8565b91505092915050565b60008115159050919050565b6138ff816138ea565b82525050565b600060208201905061391a60008301846138f6565b92915050565b600081519050919050565b600082825260208201905092915050565b60005b8381101561395a57808201518184015260208101905061393f565b60008484015250505050565b6000601f19601f8301169050919050565b600061398282613920565b61398c818561392b565b935061399c81856020860161393c565b6139a581613966565b840191505092915050565b600060208201905081810360008301526139ca8184613977565b905092915050565b6000819050919050565b6139e5816139d2565b81146139f057600080fd5b50565b600081359050613a02816139dc565b92915050565b600060208284031215613a1e57613a1d61385b565b5b6000613a2c848285016139f3565b91505092915050565b600073ffffffffffffffffffffffffffffffffffffffff82169050919050565b6000613a6082613a35565b9050919050565b613a7081613a55565b82525050565b6000602082019050613a8b6000830184613a67565b92915050565b613a9a81613a55565b8114613aa557600080fd5b50565b600081359050613ab781613a91565b92915050565b60008060408385031215613ad457613ad361385b565b5b6000613ae285828601613aa8565b9250506020613af3858286016139f3565b9150509250929050565b613b06816139d2565b82525050565b6000602082019050613b216000830184613afd565b92915050565b600080600060608486031215613b4057613b3f61385b565b5b6000613b4e86828701613aa8565b9350506020613b5f86828701613aa8565b9250506040613b70868287016139f3565b9150509250925092565b600060208284031215613b9057613b8f61385b565b5b6000613b9e84828501613aa8565b91505092915050565b600080fd5b600080fd5b600080fd5b60008083601f840112613bcc57613bcb613ba7565b5b8235905067ffffffffffffffff811115613be957613be8613bac565b5b602083019150836020820283011115613c0557613c04613bb1565b5b9250929050565b60008060208385031215613c2357613c2261385b565b5b600083013567ffffffffffffffff811115613c4157613c40613860565b5b613c4d85828601613bb6565b92509250509250929050565b600080fd5b7f4e487b7100000000000000000000000000000000000000000000000000000000600052604160045260246000fd5b613c9682613966565b810181811067ffffffffffffffff82111715613cb557613cb4613c5e565b5b80604052505050565b6000613cc8613851565b9050613cd48282613c8d565b919050565b600067ffffffffffffffff821115613cf457613cf3613c5e565b5b613cfd82613966565b9050602081019050919050565b82818337600083830152505050565b6000613d2c613d2784613cd9565b613cbe565b905082815260208101848484011115613d4857613d47613c59565b5b613d53848285613d0a565b509392505050565b600082601f830112613d7057613d6f613ba7565b5b8135613d80848260208601613d19565b91505092915050565b60008060408385031215613da057613d9f61385b565b5b6000613dae858286016139f3565b925050602083013567ffffffffffffffff811115613dcf57613dce613860565b5b613ddb85828601613d5b565b9150509250929050565b600081519050919050565b600082825260208201905092915050565b6000819050602082019050919050565b613e1a81613a55565b82525050565b6000613e2c8383613e11565b60208301905092915050565b6000602082019050919050565b6000613e5082613de5565b613e5a8185613df0565b9350613e6583613e01565b8060005b83811015613e96578151613e7d8882613e20565b9750613e8883613e38565b925050600181019050613e69565b5085935050505092915050565b600060ff82169050919050565b613eb981613ea3565b82525050565b60006040820190508181036000830152613ed98185613e45565b9050613ee86020830184613eb0565b9392505050565b600067ffffffffffffffff821115613f0a57613f09613c5e565b5b602082029050602081019050919050565b6000613f2e613f2984613eef565b613cbe565b90508083825260208201905060208402830185811115613f5157613f50613bb1565b5b835b81811015613f7a5780613f6688826139f3565b845260208401935050602081019050613f53565b5050509392505050565b600082601f830112613f9957613f98613ba7565b5b8135613fa9848260208601613f1b565b91505092915050565b600067ffffffffffffffff821115613fcd57613fcc613c5e565b5b602082029050602081019050919050565b6000613ff1613fec84613fb2565b613cbe565b9050808382526020820190506020840283018581111561401457614013613bb1565b5b835b8181101561405b57803567ffffffffffffffff81111561403957614038613ba7565b5b8086016140468982613d5b565b85526020850194505050602081019050614016565b5050509392505050565b600082601f83011261407a57614079613ba7565b5b813561408a848260208601613fde565b91505092915050565b600080604083850312156140aa576140a961385b565b5b600083013567ffffffffffffffff8111156140c8576140c7613860565b5b6140d485828601613f84565b925050602083013567ffffffffffffffff8111156140f5576140f4613860565b5b61410185828601614065565b9150509250929050565b6000819050919050565b600061413061412b61412684613a35565b61410b565b613a35565b9050919050565b600061414282614115565b9050919050565b600061415482614137565b9050919050565b61416481614149565b82525050565b600060208201905061417f600083018461415b565b92915050565b61418e816138ea565b811461419957600080fd5b50565b6000813590506141ab81614185565b92915050565b600080604083850312156141c8576141c761385b565b5b60006141d685828601613aa8565b92505060206141e78582860161419c565b9150509250929050565b60008060006060848603121561420a5761420961385b565b5b600061421886828701613aa8565b935050602061422986828701613aa8565b925050604084013567ffffffffffffffff81111561424a57614249613860565b5b61425686828701613d5b565b9150509250925092565b600067ffffffffffffffff82111561427b5761427a613c5e565b5b61428482613966565b9050602081019050919050565b60006142a461429f84614260565b613cbe565b9050828152602081018484840111156142c0576142bf613c59565b5b6142cb848285613d0a565b509392505050565b600082601f8301126142e8576142e7613ba7565b5b81356142f8848260208601614291565b91505092915050565b6000806000806080858703121561431b5761431a61385b565b5b600061432987828801613aa8565b945050602061433a87828801613aa8565b935050604061434b878288016139f3565b925050606085013567ffffffffffffffff81111561436c5761436b613860565b5b614378878288016142d3565b91505092959194509250565b60008060008060008060c087890312156143a1576143a061385b565b5b600087013567ffffffffffffffff8111156143bf576143be613860565b5b6143cb89828a01613d5b565b965050602087013567ffffffffffffffff8111156143ec576143eb613860565b5b6143f889828a01613d5b565b955050604061440989828a01613aa8565b945050606061441a89828a01613aa8565b935050608061442b89828a01613aa8565b92505060a061443c89828a01613aa8565b9150509295509295509295565b600080604083850312156144605761445f61385b565b5b600061446e85828601613aa8565b925050602061447f85828601613aa8565b9150509250929050565b7f4e487b7100000000000000000000000000000000000000000000000000000000600052602260045260246000fd5b600060028204905060018216806144d057607f821691505b6020821081036144e3576144e2614489565b5b50919050565b7f4552433732313a20617070726f76616c20746f2063757272656e74206f776e6560008201527f7200000000000000000000000000000000000000000000000000000000000000602082015250565b600061454560218361392b565b9150614550826144e9565b604082019050919050565b6000602082019050818103600083015261457481614538565b9050919050565b7f4552433732313a20617070726f76652063616c6c6572206973206e6f7420746f60008201527f6b656e206f776e6572206f7220617070726f76656420666f7220616c6c000000602082015250565b60006145d7603d8361392b565b91506145e28261457b565b604082019050919050565b60006020820190508181036000830152614606816145ca565b9050919050565b7f6e6f7420617574686f7269736564000000000000000000000000000000000000600082015250565b6000614643600e8361392b565b915061464e8261460d565b602082019050919050565b6000602082019050818103600083015261467281614636565b9050919050565b7f4e487b7100000000000000000000000000000000000000000000000000000000600052601160045260246000fd5b60006146b3826139d2565b91506146be836139d2565b92508282019050808211156146d6576146d5614679565b5b92915050565b60006040820190506146f16000830185613a67565b6146fe6020830184613afd565b9392505050565b7f4552433732313a2063616c6c6572206973206e6f7420746f6b656e206f776e6560008201527f72206f7220617070726f76656400000000000000000000000000000000000000602082015250565b6000614761602d8361392b565b915061476c82614705565b604082019050919050565b6000602082019050818103600083015261479081614754565b9050919050565b6000815190506147a681613a91565b92915050565b6000602082840312156147c2576147c161385b565b5b60006147d084828501614797565b91505092915050565b7f43616c6c6572206d7573742062652061205369676e61746f7279000000000000600082015250565b600061480f601a8361392b565b915061481a826147d9565b602082019050919050565b6000602082019050818103600083015261483e81614802565b9050919050565b7f4e487b7100000000000000000000000000000000000000000000000000000000600052603260045260246000fd5b600061487f826139d2565b91507fffffffffffffffffffffffffffffffffffffffffffffffffffffffffffffffff82036148b1576148b0614679565b5b600182019050919050565b7f4552433732313a20696e76616c696420746f6b656e2049440000000000000000600082015250565b60006148f260188361392b565b91506148fd826148bc565b602082019050919050565b60006020820190508181036000830152614921816148e5565b9050919050565b7f43616c6c6572206d7573742062652061646d696e000000000000000000000000600082015250565b600061495e60148361392b565b915061496982614928565b602082019050919050565b6000602082019050818103600083015261498d81614951565b9050919050565b7f6e6f7420617070726f7665642062792076657269666965720000000000000000600082015250565b60006149ca60188361392b565b91506149d582614994565b602082019050919050565b600060208201905081810360008301526149f9816149bd565b9050919050565b6000614a0b82613ea3565b915060ff8203614a1e57614a1d614679565b5b600182019050919050565b7f616c726561647920696e697469616c6973656400000000000000000000000000600082015250565b6000614a5f60138361392b565b9150614a6a82614a29565b602082019050919050565b60006020820190508181036000830152614a8e81614a52565b9050919050565b7f4552433732313a2061646472657373207a65726f206973206e6f74206120766160008201527f6c6964206f776e65720000000000000000000000000000000000000000000000602082015250565b6000614af160298361392b565b9150614afc82614a95565b604082019050919050565b60006020820190508181036000830152614b2081614ae4565b9050919050565b7f416c72656164792061205369676e61746f727900000000000000000000000000600082015250565b6000614b5d60138361392b565b9150614b6882614b27565b602082019050919050565b60006020820190508181036000830152614b8c81614b50565b9050919050565b60008190508160005260206000209050919050565b60006020601f8301049050919050565b600082821b905092915050565b600060088302614bf57fffffffffffffffffffffffffffffffffffffffffffffffffffffffffffffffff82614bb8565b614bff8683614bb8565b95508019841693508086168417925050509392505050565b6000614c32614c2d614c28846139d2565b61410b565b6139d2565b9050919050565b6000819050919050565b614c4c83614c17565b614c60614c5882614c39565b848454614bc5565b825550505050565b600090565b614c75614c68565b614c80818484614c43565b505050565b5b81811015614ca457614c99600082614c6d565b600181019050614c86565b5050565b601f821115614ce957614cba81614b93565b614cc384614ba8565b81016020851015614cd2578190505b614ce6614cde85614ba8565b830182614c85565b50505b505050565b600082821c905092915050565b6000614d0c60001984600802614cee565b1980831691505092915050565b6000614d258383614cfb565b9150826002028217905092915050565b614d3e82613920565b67ffffffffffffffff811115614d5757614d56613c5e565b5b614d6182546144b8565b614d6c828285614ca8565b600060209050601f831160018114614d9f5760008415614d8d578287015190505b614d978582614d19565b865550614dff565b601f198416614dad86614b93565b60005b82811015614dd557848901518255600182019150602085019450602081019050614db0565b86831015614df25784890151614dee601f891682614cfb565b8355505b6001600288020188555050505b505050505050565b6000604082019050614e1c6000830185613a67565b614e296020830184613a67565b9392505050565b7f416c726561647920617070726f76656400000000000000000000000000000000600082015250565b6000614e6660108361392b565b9150614e7182614e30565b602082019050919050565b60006020820190508181036000830152614e9581614e59565b9050919050565b7f6e65656420766572696669636174696f6e206f662061646d696e20666972737460008201527f6c79000000000000000000000000000000000000000000000000000000000000602082015250565b6000614ef860228361392b565b9150614f0382614e9c565b604082019050919050565b60006020820190508181036000830152614f2781614eeb565b9050919050565b6000606082019050614f436000830186613a67565b614f506020830185613afd565b614f5d6040830184613a67565b949350505050565b7f4e6f742061207665726966696564207265636569766572200000000000000000600082015250565b6000614f9b60188361392b565b9150614fa682614f65565b602082019050919050565b60006020820190508181036000830152614fca81614f8e565b9050919050565b7f4e6f7420612076657269666965642073656e6465722000000000000000000000600082015250565b600061500760168361392b565b915061501282614fd1565b602082019050919050565b6000602082019050818103600083015261503681614ffa565b9050919050565b7f4e6f742061207665726966696564205573657200000000000000000000000000600082015250565b600061507360138361392b565b915061507e8261503d565b602082019050919050565b600060208201905081810360008301526150a281615066565b9050919050565b600081905092915050565b60006150bf82613920565b6150c981856150a9565b93506150d981856020860161393c565b80840191505092915050565b60006150f182856150b4565b91506150fd82846150b4565b91508190509392505050565b7f6e6f742061205369676e61746f72790000000000000000000000000000000000600082015250565b600061513f600f8361392b565b915061514a82615109565b602082019050919050565b6000602082019050818103600083015261516e81615132565b9050919050565b7f43616e27742072656d6f7665204f776e65720000000000000000000000000000600082015250565b60006151ab60128361392b565b91506151b682615175565b602082019050919050565b600060208201905081810360008301526151da8161519e565b9050919050565b60006151ec826139d2565b91506151f7836139d2565b925082820390508181111561520f5761520e614679565b5b92915050565b600061522082613ea3565b915061522b83613ea3565b9250828201905060ff81111561524457615243614679565b5b92915050565b600081549050615259816144b8565b9050919050565b81810361526e575050615346565b6152778261524a565b67ffffffffffffffff8111156152905761528f613c5e565b5b61529a82546144b8565b6152a5828285614ca8565b6000601f8311600181146152d457600084156152c2578287015490505b6152cc8582614d19565b86555061533f565b601f1984166152e287614b93565b96506152ed86614b93565b60005b82811015615315578489015482556001820191506001850194506020810190506152f0565b86831015615332578489015461532e601f891682614cfb565b8355505b6001600288020188555050505b5050505050505b565b7f4e487b7100000000000000000000000000000000000000000000000000000000600052603160045260246000fd5b7f496e697469616c697a61626c653a20636f6e747261637420697320616c72656160008201527f647920696e697469616c697a6564000000000000000000000000000000000000602082015250565b60006153d3602e8361392b565b91506153de82615377565b604082019050919050565b60006020820190508181036000830152615402816153c6565b9050919050565b6000819050919050565b600061542e61542961542484615409565b61410b565b613ea3565b9050919050565b61543e81615413565b82525050565b60006020820190506154596000830184615435565b92915050565b7f4552433732313a207472616e736665722066726f6d20696e636f72726563742060008201527f6f776e6572000000000000000000000000000000000000000000000000000000602082015250565b60006154bb60258361392b565b91506154c68261545f565b604082019050919050565b600060208201905081810360008301526154ea816154ae565b9050919050565b7f4552433732313a207472616e7366657220746f20746865207a65726f2061646460008201527f7265737300000000000000000000000000000000000000000000000000000000602082015250565b600061554d60248361392b565b9150615558826154f1565b604082019050919050565b6000602082019050818103600083015261557c81615540565b9050919050565b7f45524337323155524953746f726167653a2055524920736574206f66206e6f6e60008201527f6578697374656e7420746f6b656e000000000000000000000000000000000000602082015250565b60006155df602e8361392b565b91506155ea82615583565b604082019050919050565b6000602082019050818103600083015261560e816155d2565b9050919050565b7f4552433732313a20617070726f766520746f2063616c6c657200000000000000600082015250565b600061564b60198361392b565b915061565682615615565b602082019050919050565b6000602082019050818103600083015261567a8161563e565b9050919050565b7f496e697469616c697a61626c653a20636f6e7472616374206973206e6f74206960008201527f6e697469616c697a696e67000000000000000000000000000000000000000000602082015250565b60006156dd602b8361392b565b91506156e882615681565b604082019050919050565b6000602082019050818103600083015261570c816156d0565b9050919050565b7f4552433732313a207472616e7366657220746f206e6f6e20455243373231526560008201527f63656976657220696d706c656d656e7465720000000000000000000000000000602082015250565b600061576f60328361392b565b915061577a82615713565b604082019050919050565b6000602082019050818103600083015261579e81615762565b9050919050565b7f4e487b7100000000000000000000000000000000000000000000000000000000600052601260045260246000fd5b600081519050919050565b600082825260208201905092915050565b60006157fb826157d4565b61580581856157df565b935061581581856020860161393c565b61581e81613966565b840191505092915050565b600060808201905061583e6000830187613a67565b61584b6020830186613a67565b6158586040830185613afd565b818103606083015261586a81846157f0565b905095945050505050565b60008151905061588481613891565b92915050565b6000602082840312156158a05761589f61385b565b5b60006158ae84828501615875565b91505092915050565b7f4552433732313a206d696e7420746f20746865207a65726f2061646472657373600082015250565b60006158ed60208361392b565b91506158f8826158b7565b602082019050919050565b6000602082019050818103600083015261591c816158e0565b9050919050565b7f4552433732313a20746f6b656e20616c7265616479206d696e74656400000000600082015250565b6000615959601c8361392b565b915061596482615923565b602082019050919050565b600060208201905081810360008301526159888161594c565b905091905056fea2646970667358221220878643880f2483a626788f6f94ce5ba978a7a383d1e157300270662ec5ae6aa064736f6c63430008110033",
			"opcodes": "PUSH1 0x80 PUSH1 0x40 MSTORE CALLVALUE DUP1 ISZERO PUSH2 0x10 JUMPI PUSH1 0x0 DUP1 REVERT JUMPDEST POP PUSH2 0x59C5 DUP1 PUSH3 0x21 PUSH1 0x0 CODECOPY PUSH1 0x0 RETURN INVALID PUSH1 0x80 PUSH1 0x40 MSTORE CALLVALUE DUP1 ISZERO PUSH2 0x10 JUMPI PUSH1 0x0 DUP1 REVERT JUMPDEST POP PUSH1 0x4 CALLDATASIZE LT PUSH2 0x1F0 JUMPI PUSH1 0x0 CALLDATALOAD PUSH1 0xE0 SHR DUP1 PUSH4 0x736BBD5E GT PUSH2 0x10F JUMPI DUP1 PUSH4 0xB882C4B5 GT PUSH2 0xA2 JUMPI DUP1 PUSH4 0xD5AB92FD GT PUSH2 0x71 JUMPI DUP1 PUSH4 0xD5AB92FD EQ PUSH2 0x5C6 JUMPI DUP1 PUSH4 0xE56F2FE4 EQ PUSH2 0x5E2 JUMPI DUP1 PUSH4 0xE985E9C5 EQ PUSH2 0x5FE JUMPI DUP1 PUSH4 0xF851A440 EQ PUSH2 0x62E JUMPI PUSH2 0x1F0 JUMP JUMPDEST DUP1 PUSH4 0xB882C4B5 EQ PUSH2 0x542 JUMPI DUP1 PUSH4 0xB88D4FDE EQ PUSH2 0x55E JUMPI DUP1 PUSH4 0xBB96E082 EQ PUSH2 0x57A JUMPI DUP1 PUSH4 0xC87B56DD EQ PUSH2 0x596 JUMPI PUSH2 0x1F0 JUMP JUMPDEST DUP1 PUSH4 0x95D89B41 GT PUSH2 0xDE JUMPI DUP1 PUSH4 0x95D89B41 EQ PUSH2 0x4BC JUMPI DUP1 PUSH4 0xA22CB465 EQ PUSH2 0x4DA JUMPI DUP1 PUSH4 0xAAF6C5A4 EQ PUSH2 0x4F6 JUMPI DUP1 PUSH4 0xB52EC4FE EQ PUSH2 0x526 JUMPI PUSH2 0x1F0 JUMP JUMPDEST DUP1 PUSH4 0x736BBD5E EQ PUSH2 0x434 JUMPI DUP1 PUSH4 0x8DA5CB5B EQ PUSH2 0x450 JUMPI DUP1 PUSH4 0x93E7CAAE EQ PUSH2 0x46E JUMPI DUP1 PUSH4 0x95D5A9A3 EQ PUSH2 0x49E JUMPI PUSH2 0x1F0 JUMP JUMPDEST DUP1 PUSH4 0x42842E0E GT PUSH2 0x187 JUMPI DUP1 PUSH4 0x646AAE56 GT PUSH2 0x156 JUMPI DUP1 PUSH4 0x646AAE56 EQ PUSH2 0x39B JUMPI DUP1 PUSH4 0x64DD6D01 EQ PUSH2 0x3B7 JUMPI DUP1 PUSH4 0x6817031B EQ PUSH2 0x3E8 JUMPI DUP1 PUSH4 0x70A08231 EQ PUSH2 0x404 JUMPI PUSH2 0x1F0 JUMP JUMPDEST DUP1 PUSH4 0x42842E0E EQ PUSH2 0x315 JUMPI DUP1 PUSH4 0x430BF08A EQ PUSH2 0x331 JUMPI DUP1 PUSH4 0x5C57BA6F EQ PUSH2 0x34F JUMPI DUP1 PUSH4 0x6352211E EQ PUSH2 0x36B JUMPI PUSH2 0x1F0 JUMP JUMPDEST DUP1 PUSH4 0xB71D256 GT PUSH2 0x1C3 JUMPI DUP1 PUSH4 0xB71D256 EQ PUSH2 0x28F JUMPI DUP1 PUSH4 0x1F22DAC8 EQ PUSH2 0x2AB JUMPI DUP1 PUSH4 0x23B872DD EQ PUSH2 0x2C9 JUMPI DUP1 PUSH4 0x3DA1C0C3 EQ PUSH2 0x2E5 JUMPI PUSH2 0x1F0 JUMP JUMPDEST DUP1 PUSH4 0x1FFC9A7 EQ PUSH2 0x1F5 JUMPI DUP1 PUSH4 0x6FDDE03 EQ PUSH2 0x225 JUMPI DUP1 PUSH4 0x81812FC EQ PUSH2 0x243 JUMPI DUP1 PUSH4 0x95EA7B3 EQ PUSH2 0x273 JUMPI JUMPDEST PUSH1 0x0 DUP1 REVERT JUMPDEST PUSH2 0x20F PUSH1 0x4 DUP1 CALLDATASIZE SUB DUP2 ADD SWAP1 PUSH2 0x20A SWAP2 SWAP1 PUSH2 0x38BD JUMP JUMPDEST PUSH2 0x64C JUMP JUMPDEST PUSH1 0x40 MLOAD PUSH2 0x21C SWAP2 SWAP1 PUSH2 0x3905 JUMP JUMPDEST PUSH1 0x40 MLOAD DUP1 SWAP2 SUB SWAP1 RETURN JUMPDEST PUSH2 0x22D PUSH2 0x6AD JUMP JUMPDEST PUSH1 0x40 MLOAD PUSH2 0x23A SWAP2 SWAP1 PUSH2 0x39B0 JUMP JUMPDEST PUSH1 0x40 MLOAD DUP1 SWAP2 SUB SWAP1 RETURN JUMPDEST PUSH2 0x25D PUSH1 0x4 DUP1 CALLDATASIZE SUB DUP2 ADD SWAP1 PUSH2 0x258 SWAP2 SWAP1 PUSH2 0x3A08 JUMP JUMPDEST PUSH2 0x73F JUMP JUMPDEST PUSH1 0x40 MLOAD PUSH2 0x26A SWAP2 SWAP1 PUSH2 0x3A76 JUMP JUMPDEST PUSH1 0x40 MLOAD DUP1 SWAP2 SUB SWAP1 RETURN JUMPDEST PUSH2 0x28D PUSH1 0x4 DUP1 CALLDATASIZE SUB DUP2 ADD SWAP1 PUSH2 0x288 SWAP2 SWAP1 PUSH2 0x3ABD JUMP JUMPDEST PUSH2 0x785 JUMP JUMPDEST STOP JUMPDEST PUSH2 0x2A9 PUSH1 0x4 DUP1 CALLDATASIZE SUB DUP2 ADD SWAP1 PUSH2 0x2A4 SWAP2 SWAP1 PUSH2 0x3A08 JUMP JUMPDEST PUSH2 0x89C JUMP JUMPDEST STOP JUMPDEST PUSH2 0x2B3 PUSH2 0x9D9 JUMP JUMPDEST PUSH1 0x40 MLOAD PUSH2 0x2C0 SWAP2 SWAP1 PUSH2 0x3B0C JUMP JUMPDEST PUSH1 0x40 MLOAD DUP1 SWAP2 SUB SWAP1 RETURN JUMPDEST PUSH2 0x2E3 PUSH1 0x4 DUP1 CALLDATASIZE SUB DUP2 ADD SWAP1 PUSH2 0x2DE SWAP2 SWAP1 PUSH2 0x3B27 JUMP JUMPDEST PUSH2 0x9DF JUMP JUMPDEST STOP JUMPDEST PUSH2 0x2FF PUSH1 0x4 DUP1 CALLDATASIZE SUB DUP2 ADD SWAP1 PUSH2 0x2FA SWAP2 SWAP1 PUSH2 0x3B7A JUMP JUMPDEST PUSH2 0xA3F JUMP JUMPDEST PUSH1 0x40 MLOAD PUSH2 0x30C SWAP2 SWAP1 PUSH2 0x3905 JUMP JUMPDEST PUSH1 0x40 MLOAD DUP1 SWAP2 SUB SWAP1 RETURN JUMPDEST PUSH2 0x32F PUSH1 0x4 DUP1 CALLDATASIZE SUB DUP2 ADD SWAP1 PUSH2 0x32A SWAP2 SWAP1 PUSH2 0x3B27 JUMP JUMPDEST PUSH2 0xB19 JUMP JUMPDEST STOP JUMPDEST PUSH2 0x339 PUSH2 0xB39 JUMP JUMPDEST PUSH1 0x40 MLOAD PUSH2 0x346 SWAP2 SWAP1 PUSH2 0x3A76 JUMP JUMPDEST PUSH1 0x40 MLOAD DUP1 SWAP2 SUB SWAP1 RETURN JUMPDEST PUSH2 0x369 PUSH1 0x4 DUP1 CALLDATASIZE SUB DUP2 ADD SWAP1 PUSH2 0x364 SWAP2 SWAP1 PUSH2 0x3C0C JUMP JUMPDEST PUSH2 0xB5F JUMP JUMPDEST STOP JUMPDEST PUSH2 0x385 PUSH1 0x4 DUP1 CALLDATASIZE SUB DUP2 ADD SWAP1 PUSH2 0x380 SWAP2 SWAP1 PUSH2 0x3A08 JUMP JUMPDEST PUSH2 0xBEF JUMP JUMPDEST PUSH1 0x40 MLOAD PUSH2 0x392 SWAP2 SWAP1 PUSH2 0x3A76 JUMP JUMPDEST PUSH1 0x40 MLOAD DUP1 SWAP2 SUB SWAP1 RETURN JUMPDEST PUSH2 0x3B5 PUSH1 0x4 DUP1 CALLDATASIZE SUB DUP2 ADD SWAP1 PUSH2 0x3B0 SWAP2 SWAP1 PUSH2 0x3D89 JUMP JUMPDEST PUSH2 0xC75 JUMP JUMPDEST STOP JUMPDEST PUSH2 0x3D1 PUSH1 0x4 DUP1 CALLDATASIZE SUB DUP2 ADD SWAP1 PUSH2 0x3CC SWAP2 SWAP1 PUSH2 0x3A08 JUMP JUMPDEST PUSH2 0xE2A JUMP JUMPDEST PUSH1 0x40 MLOAD PUSH2 0x3DF SWAP3 SWAP2 SWAP1 PUSH2 0x3EBF JUMP JUMPDEST PUSH1 0x40 MLOAD DUP1 SWAP2 SUB SWAP1 RETURN JUMPDEST PUSH2 0x402 PUSH1 0x4 DUP1 CALLDATASIZE SUB DUP2 ADD SWAP1 PUSH2 0x3FD SWAP2 SWAP1 PUSH2 0x3B7A JUMP JUMPDEST PUSH2 0x100E JUMP JUMPDEST STOP JUMPDEST PUSH2 0x41E PUSH1 0x4 DUP1 CALLDATASIZE SUB DUP2 ADD SWAP1 PUSH2 0x419 SWAP2 SWAP1 PUSH2 0x3B7A JUMP JUMPDEST PUSH2 0x10E3 JUMP JUMPDEST PUSH1 0x40 MLOAD PUSH2 0x42B SWAP2 SWAP1 PUSH2 0x3B0C JUMP JUMPDEST PUSH1 0x40 MLOAD DUP1 SWAP2 SUB SWAP1 RETURN JUMPDEST PUSH2 0x44E PUSH1 0x4 DUP1 CALLDATASIZE SUB DUP2 ADD SWAP1 PUSH2 0x449 SWAP2 SWAP1 PUSH2 0x4093 JUMP JUMPDEST PUSH2 0x119A JUMP JUMPDEST STOP JUMPDEST PUSH2 0x458 PUSH2 0x128C JUMP JUMPDEST PUSH1 0x40 MLOAD PUSH2 0x465 SWAP2 SWAP1 PUSH2 0x3A76 JUMP JUMPDEST PUSH1 0x40 MLOAD DUP1 SWAP2 SUB SWAP1 RETURN JUMPDEST PUSH2 0x488 PUSH1 0x4 DUP1 CALLDATASIZE SUB DUP2 ADD SWAP1 PUSH2 0x483 SWAP2 SWAP1 PUSH2 0x3B7A JUMP JUMPDEST PUSH2 0x12B2 JUMP JUMPDEST PUSH1 0x40 MLOAD PUSH2 0x495 SWAP2 SWAP1 PUSH2 0x3905 JUMP JUMPDEST PUSH1 0x40 MLOAD DUP1 SWAP2 SUB SWAP1 RETURN JUMPDEST PUSH2 0x4A6 PUSH2 0x1367 JUMP JUMPDEST PUSH1 0x40 MLOAD PUSH2 0x4B3 SWAP2 SWAP1 PUSH2 0x416A JUMP JUMPDEST PUSH1 0x40 MLOAD DUP1 SWAP2 SUB SWAP1 RETURN JUMPDEST PUSH2 0x4C4 PUSH2 0x138D JUMP JUMPDEST PUSH1 0x40 MLOAD PUSH2 0x4D1 SWAP2 SWAP1 PUSH2 0x39B0 JUMP JUMPDEST PUSH1 0x40 MLOAD DUP1 SWAP2 SUB SWAP1 RETURN JUMPDEST PUSH2 0x4F4 PUSH1 0x4 DUP1 CALLDATASIZE SUB DUP2 ADD SWAP1 PUSH2 0x4EF SWAP2 SWAP1 PUSH2 0x41B1 JUMP JUMPDEST PUSH2 0x141F JUMP JUMPDEST STOP JUMPDEST PUSH2 0x510 PUSH1 0x4 DUP1 CALLDATASIZE SUB DUP2 ADD SWAP1 PUSH2 0x50B SWAP2 SWAP1 PUSH2 0x3A08 JUMP JUMPDEST PUSH2 0x1435 JUMP JUMPDEST PUSH1 0x40 MLOAD PUSH2 0x51D SWAP2 SWAP1 PUSH2 0x3905 JUMP JUMPDEST PUSH1 0x40 MLOAD DUP1 SWAP2 SUB SWAP1 RETURN JUMPDEST PUSH2 0x540 PUSH1 0x4 DUP1 CALLDATASIZE SUB DUP2 ADD SWAP1 PUSH2 0x53B SWAP2 SWAP1 PUSH2 0x41F1 JUMP JUMPDEST PUSH2 0x1519 JUMP JUMPDEST STOP JUMPDEST PUSH2 0x55C PUSH1 0x4 DUP1 CALLDATASIZE SUB DUP2 ADD SWAP1 PUSH2 0x557 SWAP2 SWAP1 PUSH2 0x3A08 JUMP JUMPDEST PUSH2 0x17A0 JUMP JUMPDEST STOP JUMPDEST PUSH2 0x578 PUSH1 0x4 DUP1 CALLDATASIZE SUB DUP2 ADD SWAP1 PUSH2 0x573 SWAP2 SWAP1 PUSH2 0x4301 JUMP JUMPDEST PUSH2 0x1978 JUMP JUMPDEST STOP JUMPDEST PUSH2 0x594 PUSH1 0x4 DUP1 CALLDATASIZE SUB DUP2 ADD SWAP1 PUSH2 0x58F SWAP2 SWAP1 PUSH2 0x3D89 JUMP JUMPDEST PUSH2 0x1ACA JUMP JUMPDEST STOP JUMPDEST PUSH2 0x5B0 PUSH1 0x4 DUP1 CALLDATASIZE SUB DUP2 ADD SWAP1 PUSH2 0x5AB SWAP2 SWAP1 PUSH2 0x3A08 JUMP JUMPDEST PUSH2 0x1D2D JUMP JUMPDEST PUSH1 0x40 MLOAD PUSH2 0x5BD SWAP2 SWAP1 PUSH2 0x39B0 JUMP JUMPDEST PUSH1 0x40 MLOAD DUP1 SWAP2 SUB SWAP1 RETURN JUMPDEST PUSH2 0x5E0 PUSH1 0x4 DUP1 CALLDATASIZE SUB DUP2 ADD SWAP1 PUSH2 0x5DB SWAP2 SWAP1 PUSH2 0x3B7A JUMP JUMPDEST PUSH2 0x1E3F JUMP JUMPDEST STOP JUMPDEST PUSH2 0x5FC PUSH1 0x4 DUP1 CALLDATASIZE SUB DUP2 ADD SWAP1 PUSH2 0x5F7 SWAP2 SWAP1 PUSH2 0x4384 JUMP JUMPDEST PUSH2 0x2402 JUMP JUMPDEST STOP JUMPDEST PUSH2 0x618 PUSH1 0x4 DUP1 CALLDATASIZE SUB DUP2 ADD SWAP1 PUSH2 0x613 SWAP2 SWAP1 PUSH2 0x4449 JUMP JUMPDEST PUSH2 0x264C JUMP JUMPDEST PUSH1 0x40 MLOAD PUSH2 0x625 SWAP2 SWAP1 PUSH2 0x3905 JUMP JUMPDEST PUSH1 0x40 MLOAD DUP1 SWAP2 SUB SWAP1 RETURN JUMPDEST PUSH2 0x636 PUSH2 0x26E0 JUMP JUMPDEST PUSH1 0x40 MLOAD PUSH2 0x643 SWAP2 SWAP1 PUSH2 0x3A76 JUMP JUMPDEST PUSH1 0x40 MLOAD DUP1 SWAP2 SUB SWAP1 RETURN JUMPDEST PUSH1 0x0 PUSH4 0x49064906 PUSH1 0xE0 SHL PUSH28 0xFFFFFFFFFFFFFFFFFFFFFFFFFFFFFFFFFFFFFFFFFFFFFFFFFFFFFFFF NOT AND DUP3 PUSH28 0xFFFFFFFFFFFFFFFFFFFFFFFFFFFFFFFFFFFFFFFFFFFFFFFFFFFFFFFF NOT AND EQ DUP1 PUSH2 0x6A6 JUMPI POP PUSH2 0x6A5 DUP3 PUSH2 0x2706 JUMP JUMPDEST JUMPDEST SWAP1 POP SWAP2 SWAP1 POP JUMP JUMPDEST PUSH1 0x60 PUSH1 0x65 DUP1 SLOAD PUSH2 0x6BC SWAP1 PUSH2 0x44B8 JUMP JUMPDEST DUP1 PUSH1 0x1F ADD PUSH1 0x20 DUP1 SWAP2 DIV MUL PUSH1 0x20 ADD PUSH1 0x40 MLOAD SWAP1 DUP2 ADD PUSH1 0x40 MSTORE DUP1 SWAP3 SWAP2 SWAP1 DUP2 DUP2 MSTORE PUSH1 0x20 ADD DUP3 DUP1 SLOAD PUSH2 0x6E8 SWAP1 PUSH2 0x44B8 JUMP JUMPDEST DUP1 ISZERO PUSH2 0x735 JUMPI DUP1 PUSH1 0x1F LT PUSH2 0x70A JUMPI PUSH2 0x100 DUP1 DUP4 SLOAD DIV MUL DUP4 MSTORE SWAP2 PUSH1 0x20 ADD SWAP2 PUSH2 0x735 JUMP JUMPDEST DUP3 ADD SWAP2 SWAP1 PUSH1 0x0 MSTORE PUSH1 0x20 PUSH1 0x0 KECCAK256 SWAP1 JUMPDEST DUP2 SLOAD DUP2 MSTORE SWAP1 PUSH1 0x1 ADD SWAP1 PUSH1 0x20 ADD DUP1 DUP4 GT PUSH2 0x718 JUMPI DUP3 SWAP1 SUB PUSH1 0x1F AND DUP3 ADD SWAP2 JUMPDEST POP POP POP POP POP SWAP1 POP SWAP1 JUMP JUMPDEST PUSH1 0x0 PUSH2 0x74A DUP3 PUSH2 0x27E8 JUMP JUMPDEST PUSH1 0x69 PUSH1 0x0 DUP4 DUP2 MSTORE PUSH1 0x20 ADD SWAP1 DUP2 MSTORE PUSH1 0x20 ADD PUSH1 0x0 KECCAK256 PUSH1 0x0 SWAP1 SLOAD SWAP1 PUSH2 0x100 EXP SWAP1 DIV PUSH20 0xFFFFFFFFFFFFFFFFFFFFFFFFFFFFFFFFFFFFFFFF AND SWAP1 POP SWAP2 SWAP1 POP JUMP JUMPDEST PUSH1 0x0 PUSH2 0x790 DUP3 PUSH2 0xBEF JUMP JUMPDEST SWAP1 POP DUP1 PUSH20 0xFFFFFFFFFFFFFFFFFFFFFFFFFFFFFFFFFFFFFFFF AND DUP4 PUSH20 0xFFFFFFFFFFFFFFFFFFFFFFFFFFFFFFFFFFFFFFFF AND SUB PUSH2 0x800 JUMPI PUSH1 0x40 MLOAD PUSH32 0x8C379A000000000000000000000000000000000000000000000000000000000 DUP2 MSTORE PUSH1 0x4 ADD PUSH2 0x7F7 SWAP1 PUSH2 0x455B JUMP JUMPDEST PUSH1 0x40 MLOAD DUP1 SWAP2 SUB SWAP1 REVERT JUMPDEST DUP1 PUSH20 0xFFFFFFFFFFFFFFFFFFFFFFFFFFFFFFFFFFFFFFFF AND PUSH2 0x81F PUSH2 0x2833 JUMP JUMPDEST PUSH20 0xFFFFFFFFFFFFFFFFFFFFFFFFFFFFFFFFFFFFFFFF AND EQ DUP1 PUSH2 0x84E JUMPI POP PUSH2 0x84D DUP2 PUSH2 0x848 PUSH2 0x2833 JUMP JUMPDEST PUSH2 0x264C JUMP JUMPDEST JUMPDEST PUSH2 0x88D JUMPI PUSH1 0x40 MLOAD PUSH32 0x8C379A000000000000000000000000000000000000000000000000000000000 DUP2 MSTORE PUSH1 0x4 ADD PUSH2 0x884 SWAP1 PUSH2 0x45ED JUMP JUMPDEST PUSH1 0x40 MLOAD DUP1 SWAP2 SUB SWAP1 REVERT JUMPDEST PUSH2 0x897 DUP4 DUP4 PUSH2 0x283B JUMP JUMPDEST POP POP POP JUMP JUMPDEST PUSH1 0xCB PUSH1 0x0 SWAP1 SLOAD SWAP1 PUSH2 0x100 EXP SWAP1 DIV PUSH20 0xFFFFFFFFFFFFFFFFFFFFFFFFFFFFFFFFFFFFFFFF AND PUSH20 0xFFFFFFFFFFFFFFFFFFFFFFFFFFFFFFFFFFFFFFFF AND CALLER PUSH20 0xFFFFFFFFFFFFFFFFFFFFFFFFFFFFFFFFFFFFFFFF AND EQ DUP1 PUSH2 0x945 JUMPI POP PUSH1 0xCE PUSH1 0x0 SWAP1 SLOAD SWAP1 PUSH2 0x100 EXP SWAP1 DIV PUSH20 0xFFFFFFFFFFFFFFFFFFFFFFFFFFFFFFFFFFFFFFFF AND PUSH20 0xFFFFFFFFFFFFFFFFFFFFFFFFFFFFFFFFFFFFFFFF AND CALLER PUSH20 0xFFFFFFFFFFFFFFFFFFFFFFFFFFFFFFFFFFFFFFFF AND EQ JUMPDEST PUSH2 0x984 JUMPI PUSH1 0x40 MLOAD PUSH32 0x8C379A000000000000000000000000000000000000000000000000000000000 DUP2 MSTORE PUSH1 0x4 ADD PUSH2 0x97B SWAP1 PUSH2 0x4659 JUMP JUMPDEST PUSH1 0x40 MLOAD DUP1 SWAP2 SUB SWAP1 REVERT JUMPDEST DUP1 PUSH1 0xCA PUSH1 0x0 DUP3 DUP3 SLOAD PUSH2 0x996 SWAP2 SWAP1 PUSH2 0x46A8 JUMP JUMPDEST SWAP3 POP POP DUP2 SWAP1 SSTORE POP PUSH32 0x6EE69294AEAD3B7C6DA4434941F39BF77E660FF3F6CDE8C88BB0E6DB9E8B88ED ADDRESS DUP3 PUSH1 0x40 MLOAD PUSH2 0x9CE SWAP3 SWAP2 SWAP1 PUSH2 0x46DC JUMP JUMPDEST PUSH1 0x40 MLOAD DUP1 SWAP2 SUB SWAP1 LOG1 POP JUMP JUMPDEST PUSH1 0xCA SLOAD DUP2 JUMP JUMPDEST PUSH2 0x9F0 PUSH2 0x9EA PUSH2 0x2833 JUMP JUMPDEST DUP3 PUSH2 0x28F4 JUMP JUMPDEST PUSH2 0xA2F JUMPI PUSH1 0x40 MLOAD PUSH32 0x8C379A000000000000000000000000000000000000000000000000000000000 DUP2 MSTORE PUSH1 0x4 ADD PUSH2 0xA26 SWAP1 PUSH2 0x4777 JUMP JUMPDEST PUSH1 0x40 MLOAD DUP1 SWAP2 SUB SWAP1 REVERT JUMPDEST PUSH2 0xA3A DUP4 DUP4 DUP4 PUSH2 0x2989 JUMP JUMPDEST POP POP POP JUMP JUMPDEST PUSH1 0x0 DUP1 PUSH1 0xCF PUSH1 0x0 SWAP1 SLOAD SWAP1 PUSH2 0x100 EXP SWAP1 DIV PUSH20 0xFFFFFFFFFFFFFFFFFFFFFFFFFFFFFFFFFFFFFFFF AND PUSH20 0xFFFFFFFFFFFFFFFFFFFFFFFFFFFFFFFFFFFFFFFF AND PUSH4 0x52487A07 DUP5 PUSH1 0x40 MLOAD DUP3 PUSH4 0xFFFFFFFF AND PUSH1 0xE0 SHL DUP2 MSTORE PUSH1 0x4 ADD PUSH2 0xA9D SWAP2 SWAP1 PUSH2 0x3A76 JUMP JUMPDEST PUSH1 0x20 PUSH1 0x40 MLOAD DUP1 DUP4 SUB DUP2 DUP7 GAS STATICCALL ISZERO DUP1 ISZERO PUSH2 0xABA JUMPI RETURNDATASIZE PUSH1 0x0 DUP1 RETURNDATACOPY RETURNDATASIZE PUSH1 0x0 REVERT JUMPDEST POP POP POP POP PUSH1 0x40 MLOAD RETURNDATASIZE PUSH1 0x1F NOT PUSH1 0x1F DUP3 ADD AND DUP3 ADD DUP1 PUSH1 0x40 MSTORE POP DUP2 ADD SWAP1 PUSH2 0xADE SWAP2 SWAP1 PUSH2 0x47AC JUMP JUMPDEST SWAP1 POP PUSH1 0x0 PUSH20 0xFFFFFFFFFFFFFFFFFFFFFFFFFFFFFFFFFFFFFFFF AND DUP2 PUSH20 0xFFFFFFFFFFFFFFFFFFFFFFFFFFFFFFFFFFFFFFFF AND EQ ISZERO SWAP2 POP POP SWAP2 SWAP1 POP JUMP JUMPDEST PUSH2 0xB34 DUP4 DUP4 DUP4 PUSH1 0x40 MLOAD DUP1 PUSH1 0x20 ADD PUSH1 0x40 MSTORE DUP1 PUSH1 0x0 DUP2 MSTORE POP PUSH2 0x1978 JUMP JUMPDEST POP POP POP JUMP JUMPDEST PUSH1 0xCD PUSH1 0x0 SWAP1 SLOAD SWAP1 PUSH2 0x100 EXP SWAP1 DIV PUSH20 0xFFFFFFFFFFFFFFFFFFFFFFFFFFFFFFFFFFFFFFFF AND DUP2 JUMP JUMPDEST PUSH2 0xB68 CALLER PUSH2 0x12B2 JUMP JUMPDEST PUSH2 0xBA7 JUMPI PUSH1 0x40 MLOAD PUSH32 0x8C379A000000000000000000000000000000000000000000000000000000000 DUP2 MSTORE PUSH1 0x4 ADD PUSH2 0xB9E SWAP1 PUSH2 0x4825 JUMP JUMPDEST PUSH1 0x40 MLOAD DUP1 SWAP2 SUB SWAP1 REVERT JUMPDEST PUSH1 0x0 JUMPDEST DUP3 DUP3 SWAP1 POP DUP2 LT ISZERO PUSH2 0xBEA JUMPI PUSH2 0xBD7 DUP4 DUP4 DUP4 DUP2 DUP2 LT PUSH2 0xBCB JUMPI PUSH2 0xBCA PUSH2 0x4845 JUMP JUMPDEST JUMPDEST SWAP1 POP PUSH1 0x20 MUL ADD CALLDATALOAD PUSH2 0x17A0 JUMP JUMPDEST DUP1 DUP1 PUSH2 0xBE2 SWAP1 PUSH2 0x4874 JUMP JUMPDEST SWAP2 POP POP PUSH2 0xBAA JUMP JUMPDEST POP POP POP JUMP JUMPDEST PUSH1 0x0 DUP1 PUSH2 0xBFB DUP4 PUSH2 0x2C82 JUMP JUMPDEST SWAP1 POP PUSH1 0x0 PUSH20 0xFFFFFFFFFFFFFFFFFFFFFFFFFFFFFFFFFFFFFFFF AND DUP2 PUSH20 0xFFFFFFFFFFFFFFFFFFFFFFFFFFFFFFFFFFFFFFFF AND SUB PUSH2 0xC6C JUMPI PUSH1 0x40 MLOAD PUSH32 0x8C379A000000000000000000000000000000000000000000000000000000000 DUP2 MSTORE PUSH1 0x4 ADD PUSH2 0xC63 SWAP1 PUSH2 0x4908 JUMP JUMPDEST PUSH1 0x40 MLOAD DUP1 SWAP2 SUB SWAP1 REVERT JUMPDEST DUP1 SWAP2 POP POP SWAP2 SWAP1 POP JUMP JUMPDEST PUSH1 0xCB PUSH1 0x0 SWAP1 SLOAD SWAP1 PUSH2 0x100 EXP SWAP1 DIV PUSH20 0xFFFFFFFFFFFFFFFFFFFFFFFFFFFFFFFFFFFFFFFF AND PUSH20 0xFFFFFFFFFFFFFFFFFFFFFFFFFFFFFFFFFFFFFFFF AND CALLER PUSH20 0xFFFFFFFFFFFFFFFFFFFFFFFFFFFFFFFFFFFFFFFF AND EQ PUSH2 0xD05 JUMPI PUSH1 0x40 MLOAD PUSH32 0x8C379A000000000000000000000000000000000000000000000000000000000 DUP2 MSTORE PUSH1 0x4 ADD PUSH2 0xCFC SWAP1 PUSH2 0x4974 JUMP JUMPDEST PUSH1 0x40 MLOAD DUP1 SWAP2 SUB SWAP1 REVERT JUMPDEST PUSH2 0xD0E DUP3 PUSH2 0x1435 JUMP JUMPDEST PUSH2 0xD4D JUMPI PUSH1 0x40 MLOAD PUSH32 0x8C379A000000000000000000000000000000000000000000000000000000000 DUP2 MSTORE PUSH1 0x4 ADD PUSH2 0xD44 SWAP1 PUSH2 0x49E0 JUMP JUMPDEST PUSH1 0x40 MLOAD DUP1 SWAP2 SUB SWAP1 REVERT JUMPDEST PUSH2 0xD57 DUP3 DUP3 PUSH2 0x2CBF JUMP JUMPDEST PUSH1 0x0 JUMPDEST PUSH1 0xD0 DUP1 SLOAD SWAP1 POP DUP2 PUSH1 0xFF AND LT ISZERO PUSH2 0xE25 JUMPI PUSH1 0xD1 PUSH1 0x0 DUP5 DUP2 MSTORE PUSH1 0x20 ADD SWAP1 DUP2 MSTORE PUSH1 0x20 ADD PUSH1 0x0 KECCAK256 PUSH1 0x0 PUSH1 0xD0 DUP4 PUSH1 0xFF AND DUP2 SLOAD DUP2 LT PUSH2 0xD96 JUMPI PUSH2 0xD95 PUSH2 0x4845 JUMP JUMPDEST JUMPDEST SWAP1 PUSH1 0x0 MSTORE PUSH1 0x20 PUSH1 0x0 KECCAK256 SWAP1 PUSH1 0x3 MUL ADD PUSH1 0x0 ADD PUSH1 0x0 SWAP1 SLOAD SWAP1 PUSH2 0x100 EXP SWAP1 DIV PUSH20 0xFFFFFFFFFFFFFFFFFFFFFFFFFFFFFFFFFFFFFFFF AND PUSH20 0xFFFFFFFFFFFFFFFFFFFFFFFFFFFFFFFFFFFFFFFF AND PUSH20 0xFFFFFFFFFFFFFFFFFFFFFFFFFFFFFFFFFFFFFFFF AND DUP2 MSTORE PUSH1 0x20 ADD SWAP1 DUP2 MSTORE PUSH1 0x20 ADD PUSH1 0x0 KECCAK256 PUSH1 0x0 PUSH2 0x100 EXP DUP2 SLOAD SWAP1 PUSH1 0xFF MUL NOT AND SWAP1 SSTORE DUP1 DUP1 PUSH2 0xE1D SWAP1 PUSH2 0x4A00 JUMP JUMPDEST SWAP2 POP POP PUSH2 0xD5A JUMP JUMPDEST POP POP POP JUMP JUMPDEST PUSH1 0x60 PUSH1 0x0 DUP1 PUSH1 0x0 PUSH1 0xD0 DUP1 SLOAD SWAP1 POP PUSH8 0xFFFFFFFFFFFFFFFF DUP2 GT ISZERO PUSH2 0xE50 JUMPI PUSH2 0xE4F PUSH2 0x3C5E JUMP JUMPDEST JUMPDEST PUSH1 0x40 MLOAD SWAP1 DUP1 DUP3 MSTORE DUP1 PUSH1 0x20 MUL PUSH1 0x20 ADD DUP3 ADD PUSH1 0x40 MSTORE DUP1 ISZERO PUSH2 0xE7E JUMPI DUP2 PUSH1 0x20 ADD PUSH1 0x20 DUP3 MUL DUP1 CALLDATASIZE DUP4 CALLDATACOPY DUP1 DUP3 ADD SWAP2 POP POP SWAP1 POP JUMPDEST POP SWAP1 POP PUSH1 0x0 JUMPDEST PUSH1 0xD0 DUP1 SLOAD SWAP1 POP DUP2 PUSH1 0xFF AND LT ISZERO PUSH2 0x1000 JUMPI PUSH1 0x1 ISZERO ISZERO PUSH1 0xD1 PUSH1 0x0 DUP9 DUP2 MSTORE PUSH1 0x20 ADD SWAP1 DUP2 MSTORE PUSH1 0x20 ADD PUSH1 0x0 KECCAK256 PUSH1 0x0 PUSH1 0xD0 DUP5 PUSH1 0xFF AND DUP2 SLOAD DUP2 LT PUSH2 0xEC4 JUMPI PUSH2 0xEC3 PUSH2 0x4845 JUMP JUMPDEST JUMPDEST SWAP1 PUSH1 0x0 MSTORE PUSH1 0x20 PUSH1 0x0 KECCAK256 SWAP1 PUSH1 0x3 MUL ADD PUSH1 0x0 ADD PUSH1 0x0 SWAP1 SLOAD SWAP1 PUSH2 0x100 EXP SWAP1 DIV PUSH20 0xFFFFFFFFFFFFFFFFFFFFFFFFFFFFFFFFFFFFFFFF AND PUSH20 0xFFFFFFFFFFFFFFFFFFFFFFFFFFFFFFFFFFFFFFFF AND PUSH20 0xFFFFFFFFFFFFFFFFFFFFFFFFFFFFFFFFFFFFFFFF AND DUP2 MSTORE PUSH1 0x20 ADD SWAP1 DUP2 MSTORE PUSH1 0x20 ADD PUSH1 0x0 KECCAK256 PUSH1 0x0 SWAP1 SLOAD SWAP1 PUSH2 0x100 EXP SWAP1 DIV PUSH1 0xFF AND ISZERO ISZERO SUB PUSH2 0xFED JUMPI PUSH1 0xD0 DUP2 PUSH1 0xFF AND DUP2 SLOAD DUP2 LT PUSH2 0xF5C JUMPI PUSH2 0xF5B PUSH2 0x4845 JUMP JUMPDEST JUMPDEST SWAP1 PUSH1 0x0 MSTORE PUSH1 0x20 PUSH1 0x0 KECCAK256 SWAP1 PUSH1 0x3 MUL ADD PUSH1 0x0 ADD PUSH1 0x0 SWAP1 SLOAD SWAP1 PUSH2 0x100 EXP SWAP1 DIV PUSH20 0xFFFFFFFFFFFFFFFFFFFFFFFFFFFFFFFFFFFFFFFF AND DUP3 DUP5 PUSH1 0xFF AND DUP2 MLOAD DUP2 LT PUSH2 0xFA4 JUMPI PUSH2 0xFA3 PUSH2 0x4845 JUMP JUMPDEST JUMPDEST PUSH1 0x20 MUL PUSH1 0x20 ADD ADD SWAP1 PUSH20 0xFFFFFFFFFFFFFFFFFFFFFFFFFFFFFFFFFFFFFFFF AND SWAP1 DUP2 PUSH20 0xFFFFFFFFFFFFFFFFFFFFFFFFFFFFFFFFFFFFFFFF AND DUP2 MSTORE POP POP DUP3 DUP1 PUSH2 0xFE9 SWAP1 PUSH2 0x4A00 JUMP JUMPDEST SWAP4 POP POP JUMPDEST DUP1 DUP1 PUSH2 0xFF8 SWAP1 PUSH2 0x4A00 JUMP JUMPDEST SWAP2 POP POP PUSH2 0xE84 JUMP JUMPDEST POP DUP1 DUP3 SWAP4 POP SWAP4 POP POP POP SWAP2 POP SWAP2 JUMP JUMPDEST PUSH1 0x0 PUSH20 0xFFFFFFFFFFFFFFFFFFFFFFFFFFFFFFFFFFFFFFFF AND PUSH1 0xCD PUSH1 0x0 SWAP1 SLOAD SWAP1 PUSH2 0x100 EXP SWAP1 DIV PUSH20 0xFFFFFFFFFFFFFFFFFFFFFFFFFFFFFFFFFFFFFFFF AND PUSH20 0xFFFFFFFFFFFFFFFFFFFFFFFFFFFFFFFFFFFFFFFF AND EQ PUSH2 0x109F JUMPI PUSH1 0x40 MLOAD PUSH32 0x8C379A000000000000000000000000000000000000000000000000000000000 DUP2 MSTORE PUSH1 0x4 ADD PUSH2 0x1096 SWAP1 PUSH2 0x4A75 JUMP JUMPDEST PUSH1 0x40 MLOAD DUP1 SWAP2 SUB SWAP1 REVERT JUMPDEST DUP1 PUSH1 0xCD PUSH1 0x0 PUSH2 0x100 EXP DUP2 SLOAD DUP2 PUSH20 0xFFFFFFFFFFFFFFFFFFFFFFFFFFFFFFFFFFFFFFFF MUL NOT AND SWAP1 DUP4 PUSH20 0xFFFFFFFFFFFFFFFFFFFFFFFFFFFFFFFFFFFFFFFF AND MUL OR SWAP1 SSTORE POP POP JUMP JUMPDEST PUSH1 0x0 DUP1 PUSH20 0xFFFFFFFFFFFFFFFFFFFFFFFFFFFFFFFFFFFFFFFF AND DUP3 PUSH20 0xFFFFFFFFFFFFFFFFFFFFFFFFFFFFFFFFFFFFFFFF AND SUB PUSH2 0x1153 JUMPI PUSH1 0x40 MLOAD PUSH32 0x8C379A000000000000000000000000000000000000000000000000000000000 DUP2 MSTORE PUSH1 0x4 ADD PUSH2 0x114A SWAP1 PUSH2 0x4B07 JUMP JUMPDEST PUSH1 0x40 MLOAD DUP1 SWAP2 SUB SWAP1 REVERT JUMPDEST PUSH1 0x68 PUSH1 0x0 DUP4 PUSH20 0xFFFFFFFFFFFFFFFFFFFFFFFFFFFFFFFFFFFFFFFF AND PUSH20 0xFFFFFFFFFFFFFFFFFFFFFFFFFFFFFFFFFFFFFFFF AND DUP2 MSTORE PUSH1 0x20 ADD SWAP1 DUP2 MSTORE PUSH1 0x20 ADD PUSH1 0x0 KECCAK256 SLOAD SWAP1 POP SWAP2 SWAP1 POP JUMP JUMPDEST PUSH1 0xCB PUSH1 0x0 SWAP1 SLOAD SWAP1 PUSH2 0x100 EXP SWAP1 DIV PUSH20 0xFFFFFFFFFFFFFFFFFFFFFFFFFFFFFFFFFFFFFFFF AND PUSH20 0xFFFFFFFFFFFFFFFFFFFFFFFFFFFFFFFFFFFFFFFF AND CALLER PUSH20 0xFFFFFFFFFFFFFFFFFFFFFFFFFFFFFFFFFFFFFFFF AND EQ PUSH2 0x122A JUMPI PUSH1 0x40 MLOAD PUSH32 0x8C379A000000000000000000000000000000000000000000000000000000000 DUP2 MSTORE PUSH1 0x4 ADD PUSH2 0x1221 SWAP1 PUSH2 0x4974 JUMP JUMPDEST PUSH1 0x40 MLOAD DUP1 SWAP2 SUB SWAP1 REVERT JUMPDEST PUSH1 0x0 JUMPDEST DUP3 MLOAD DUP2 LT ISZERO PUSH2 0x1287 JUMPI PUSH2 0x1274 DUP4 DUP3 DUP2 MLOAD DUP2 LT PUSH2 0x124C JUMPI PUSH2 0x124B PUSH2 0x4845 JUMP JUMPDEST JUMPDEST PUSH1 0x20 MUL PUSH1 0x20 ADD ADD MLOAD DUP4 DUP4 DUP2 MLOAD DUP2 LT PUSH2 0x1267 JUMPI PUSH2 0x1266 PUSH2 0x4845 JUMP JUMPDEST JUMPDEST PUSH1 0x20 MUL PUSH1 0x20 ADD ADD MLOAD PUSH2 0x1ACA JUMP JUMPDEST DUP1 DUP1 PUSH2 0x127F SWAP1 PUSH2 0x4874 JUMP JUMPDEST SWAP2 POP POP PUSH2 0x122D JUMP JUMPDEST POP POP POP JUMP JUMPDEST PUSH1 0xCC PUSH1 0x0 SWAP1 SLOAD SWAP1 PUSH2 0x100 EXP SWAP1 DIV PUSH20 0xFFFFFFFFFFFFFFFFFFFFFFFFFFFFFFFFFFFFFFFF AND DUP2 JUMP JUMPDEST PUSH1 0x0 DUP1 PUSH1 0x0 SWAP1 POP JUMPDEST PUSH1 0xD0 DUP1 SLOAD SWAP1 POP DUP2 LT ISZERO PUSH2 0x135C JUMPI DUP3 PUSH20 0xFFFFFFFFFFFFFFFFFFFFFFFFFFFFFFFFFFFFFFFF AND PUSH1 0xD0 DUP3 DUP2 SLOAD DUP2 LT PUSH2 0x12F2 JUMPI PUSH2 0x12F1 PUSH2 0x4845 JUMP JUMPDEST JUMPDEST SWAP1 PUSH1 0x0 MSTORE PUSH1 0x20 PUSH1 0x0 KECCAK256 SWAP1 PUSH1 0x3 MUL ADD PUSH1 0x0 ADD PUSH1 0x0 SWAP1 SLOAD SWAP1 PUSH2 0x100 EXP SWAP1 DIV PUSH20 0xFFFFFFFFFFFFFFFFFFFFFFFFFFFFFFFFFFFFFFFF AND PUSH20 0xFFFFFFFFFFFFFFFFFFFFFFFFFFFFFFFFFFFFFFFF AND SUB PUSH2 0x1349 JUMPI PUSH1 0x1 SWAP2 POP POP PUSH2 0x1362 JUMP JUMPDEST DUP1 DUP1 PUSH2 0x1354 SWAP1 PUSH2 0x4874 JUMP JUMPDEST SWAP2 POP POP PUSH2 0x12BA JUMP JUMPDEST POP PUSH1 0x0 SWAP1 POP JUMPDEST SWAP2 SWAP1 POP JUMP JUMPDEST PUSH1 0xCF PUSH1 0x0 SWAP1 SLOAD SWAP1 PUSH2 0x100 EXP SWAP1 DIV PUSH20 0xFFFFFFFFFFFFFFFFFFFFFFFFFFFFFFFFFFFFFFFF AND DUP2 JUMP JUMPDEST PUSH1 0x60 PUSH1 0x66 DUP1 SLOAD PUSH2 0x139C SWAP1 PUSH2 0x44B8 JUMP JUMPDEST DUP1 PUSH1 0x1F ADD PUSH1 0x20 DUP1 SWAP2 DIV MUL PUSH1 0x20 ADD PUSH1 0x40 MLOAD SWAP1 DUP2 ADD PUSH1 0x40 MSTORE DUP1 SWAP3 SWAP2 SWAP1 DUP2 DUP2 MSTORE PUSH1 0x20 ADD DUP3 DUP1 SLOAD PUSH2 0x13C8 SWAP1 PUSH2 0x44B8 JUMP JUMPDEST DUP1 ISZERO PUSH2 0x1415 JUMPI DUP1 PUSH1 0x1F LT PUSH2 0x13EA JUMPI PUSH2 0x100 DUP1 DUP4 SLOAD DIV MUL DUP4 MSTORE SWAP2 PUSH1 0x20 ADD SWAP2 PUSH2 0x1415 JUMP JUMPDEST DUP3 ADD SWAP2 SWAP1 PUSH1 0x0 MSTORE PUSH1 0x20 PUSH1 0x0 KECCAK256 SWAP1 JUMPDEST DUP2 SLOAD DUP2 MSTORE SWAP1 PUSH1 0x1 ADD SWAP1 PUSH1 0x20 ADD DUP1 DUP4 GT PUSH2 0x13F8 JUMPI DUP3 SWAP1 SUB PUSH1 0x1F AND DUP3 ADD SWAP2 JUMPDEST POP POP POP POP POP SWAP1 POP SWAP1 JUMP JUMPDEST PUSH2 0x1431 PUSH2 0x142A PUSH2 0x2833 JUMP JUMPDEST DUP4 DUP4 PUSH2 0x2D63 JUMP JUMPDEST POP POP JUMP JUMPDEST PUSH1 0x0 DUP1 PUSH1 0x1 SWAP1 POP PUSH1 0x0 JUMPDEST PUSH1 0xD0 DUP1 SLOAD SWAP1 POP DUP2 LT ISZERO PUSH2 0x150F JUMPI PUSH1 0xD1 PUSH1 0x0 DUP6 DUP2 MSTORE PUSH1 0x20 ADD SWAP1 DUP2 MSTORE PUSH1 0x20 ADD PUSH1 0x0 KECCAK256 PUSH1 0x0 PUSH1 0xD0 DUP4 DUP2 SLOAD DUP2 LT PUSH2 0x1475 JUMPI PUSH2 0x1474 PUSH2 0x4845 JUMP JUMPDEST JUMPDEST SWAP1 PUSH1 0x0 MSTORE PUSH1 0x20 PUSH1 0x0 KECCAK256 SWAP1 PUSH1 0x3 MUL ADD PUSH1 0x0 ADD PUSH1 0x0 SWAP1 SLOAD SWAP1 PUSH2 0x100 EXP SWAP1 DIV PUSH20 0xFFFFFFFFFFFFFFFFFFFFFFFFFFFFFFFFFFFFFFFF AND PUSH20 0xFFFFFFFFFFFFFFFFFFFFFFFFFFFFFFFFFFFFFFFF AND PUSH20 0xFFFFFFFFFFFFFFFFFFFFFFFFFFFFFFFFFFFFFFFF AND DUP2 MSTORE PUSH1 0x20 ADD SWAP1 DUP2 MSTORE PUSH1 0x20 ADD PUSH1 0x0 KECCAK256 PUSH1 0x0 SWAP1 SLOAD SWAP1 PUSH2 0x100 EXP SWAP1 DIV PUSH1 0xFF AND PUSH2 0x14FC JUMPI PUSH1 0x0 SWAP2 POP PUSH2 0x150F JUMP JUMPDEST DUP1 DUP1 PUSH2 0x1507 SWAP1 PUSH2 0x4874 JUMP JUMPDEST SWAP2 POP POP PUSH2 0x143F JUMP JUMPDEST POP DUP1 SWAP2 POP POP SWAP2 SWAP1 POP JUMP JUMPDEST PUSH2 0x1522 DUP4 PUSH2 0x12B2 JUMP JUMPDEST ISZERO PUSH2 0x1562 JUMPI PUSH1 0x40 MLOAD PUSH32 0x8C379A000000000000000000000000000000000000000000000000000000000 DUP2 MSTORE PUSH1 0x4 ADD PUSH2 0x1559 SWAP1 PUSH2 0x4B73 JUMP JUMPDEST PUSH1 0x40 MLOAD DUP1 SWAP2 SUB SWAP1 REVERT JUMPDEST PUSH1 0xCB PUSH1 0x0 SWAP1 SLOAD SWAP1 PUSH2 0x100 EXP SWAP1 DIV PUSH20 0xFFFFFFFFFFFFFFFFFFFFFFFFFFFFFFFFFFFFFFFF AND PUSH20 0xFFFFFFFFFFFFFFFFFFFFFFFFFFFFFFFFFFFFFFFF AND CALLER PUSH20 0xFFFFFFFFFFFFFFFFFFFFFFFFFFFFFFFFFFFFFFFF AND EQ DUP1 PUSH2 0x160B JUMPI POP PUSH1 0xCE PUSH1 0x0 SWAP1 SLOAD SWAP1 PUSH2 0x100 EXP SWAP1 DIV PUSH20 0xFFFFFFFFFFFFFFFFFFFFFFFFFFFFFFFFFFFFFFFF AND PUSH20 0xFFFFFFFFFFFFFFFFFFFFFFFFFFFFFFFFFFFFFFFF AND CALLER PUSH20 0xFFFFFFFFFFFFFFFFFFFFFFFFFFFFFFFFFFFFFFFF AND EQ JUMPDEST PUSH2 0x164A JUMPI PUSH1 0x40 MLOAD PUSH32 0x8C379A000000000000000000000000000000000000000000000000000000000 DUP2 MSTORE PUSH1 0x4 ADD PUSH2 0x1641 SWAP1 PUSH2 0x4659 JUMP JUMPDEST PUSH1 0x40 MLOAD DUP1 SWAP2 SUB SWAP1 REVERT JUMPDEST PUSH1 0xD0 PUSH1 0x40 MLOAD DUP1 PUSH1 0x60 ADD PUSH1 0x40 MSTORE DUP1 DUP6 PUSH20 0xFFFFFFFFFFFFFFFFFFFFFFFFFFFFFFFFFFFFFFFF AND DUP2 MSTORE PUSH1 0x20 ADD DUP5 PUSH20 0xFFFFFFFFFFFFFFFFFFFFFFFFFFFFFFFFFFFFFFFF AND DUP2 MSTORE PUSH1 0x20 ADD DUP4 DUP2 MSTORE POP SWAP1 DUP1 PUSH1 0x1 DUP2 SLOAD ADD DUP1 DUP3 SSTORE DUP1 SWAP2 POP POP PUSH1 0x1 SWAP1 SUB SWAP1 PUSH1 0x0 MSTORE PUSH1 0x20 PUSH1 0x0 KECCAK256 SWAP1 PUSH1 0x3 MUL ADD PUSH1 0x0 SWAP1 SWAP2 SWAP1 SWAP2 SWAP1 SWAP2 POP PUSH1 0x0 DUP3 ADD MLOAD DUP2 PUSH1 0x0 ADD PUSH1 0x0 PUSH2 0x100 EXP DUP2 SLOAD DUP2 PUSH20 0xFFFFFFFFFFFFFFFFFFFFFFFFFFFFFFFFFFFFFFFF MUL NOT AND SWAP1 DUP4 PUSH20 0xFFFFFFFFFFFFFFFFFFFFFFFFFFFFFFFFFFFFFFFF AND MUL OR SWAP1 SSTORE POP PUSH1 0x20 DUP3 ADD MLOAD DUP2 PUSH1 0x1 ADD PUSH1 0x0 PUSH2 0x100 EXP DUP2 SLOAD DUP2 PUSH20 0xFFFFFFFFFFFFFFFFFFFFFFFFFFFFFFFFFFFFFFFF MUL NOT AND SWAP1 DUP4 PUSH20 0xFFFFFFFFFFFFFFFFFFFFFFFFFFFFFFFFFFFFFFFF AND MUL OR SWAP1 SSTORE POP PUSH1 0x40 DUP3 ADD MLOAD DUP2 PUSH1 0x2 ADD SWAP1 DUP2 PUSH2 0x175F SWAP2 SWAP1 PUSH2 0x4D35 JUMP JUMPDEST POP POP POP PUSH32 0xC852D167BCDDAB4A31ABCB5F5B72B6F60359F4E9E1AEBD1AD62FA9E3D931594F ADDRESS DUP5 PUSH1 0x40 MLOAD PUSH2 0x1793 SWAP3 SWAP2 SWAP1 PUSH2 0x4E07 JUMP JUMPDEST PUSH1 0x40 MLOAD DUP1 SWAP2 SUB SWAP1 LOG1 POP POP POP JUMP JUMPDEST PUSH2 0x17A9 CALLER PUSH2 0x12B2 JUMP JUMPDEST PUSH2 0x17E8 JUMPI PUSH1 0x40 MLOAD PUSH32 0x8C379A000000000000000000000000000000000000000000000000000000000 DUP2 MSTORE PUSH1 0x4 ADD PUSH2 0x17DF SWAP1 PUSH2 0x4825 JUMP JUMPDEST PUSH1 0x40 MLOAD DUP1 SWAP2 SUB SWAP1 REVERT JUMPDEST PUSH1 0x1 ISZERO ISZERO PUSH1 0xD1 PUSH1 0x0 DUP4 DUP2 MSTORE PUSH1 0x20 ADD SWAP1 DUP2 MSTORE PUSH1 0x20 ADD PUSH1 0x0 KECCAK256 PUSH1 0x0 CALLER PUSH20 0xFFFFFFFFFFFFFFFFFFFFFFFFFFFFFFFFFFFFFFFF AND PUSH20 0xFFFFFFFFFFFFFFFFFFFFFFFFFFFFFFFFFFFFFFFF AND DUP2 MSTORE PUSH1 0x20 ADD SWAP1 DUP2 MSTORE PUSH1 0x20 ADD PUSH1 0x0 KECCAK256 PUSH1 0x0 SWAP1 SLOAD SWAP1 PUSH2 0x100 EXP SWAP1 DIV PUSH1 0xFF AND ISZERO ISZERO SUB PUSH2 0x188C JUMPI PUSH1 0x40 MLOAD PUSH32 0x8C379A000000000000000000000000000000000000000000000000000000000 DUP2 MSTORE PUSH1 0x4 ADD PUSH2 0x1883 SWAP1 PUSH2 0x4E7C JUMP JUMPDEST PUSH1 0x40 MLOAD DUP1 SWAP2 SUB SWAP1 REVERT JUMPDEST DUP1 PUSH1 0xCA SLOAD LT ISZERO PUSH2 0x18D1 JUMPI PUSH1 0x40 MLOAD PUSH32 0x8C379A000000000000000000000000000000000000000000000000000000000 DUP2 MSTORE PUSH1 0x4 ADD PUSH2 0x18C8 SWAP1 PUSH2 0x4F0E JUMP JUMPDEST PUSH1 0x40 MLOAD DUP1 SWAP2 SUB SWAP1 REVERT JUMPDEST PUSH1 0x1 PUSH1 0xD1 PUSH1 0x0 DUP4 DUP2 MSTORE PUSH1 0x20 ADD SWAP1 DUP2 MSTORE PUSH1 0x20 ADD PUSH1 0x0 KECCAK256 PUSH1 0x0 CALLER PUSH20 0xFFFFFFFFFFFFFFFFFFFFFFFFFFFFFFFFFFFFFFFF AND PUSH20 0xFFFFFFFFFFFFFFFFFFFFFFFFFFFFFFFFFFFFFFFF AND DUP2 MSTORE PUSH1 0x20 ADD SWAP1 DUP2 MSTORE PUSH1 0x20 ADD PUSH1 0x0 KECCAK256 PUSH1 0x0 PUSH2 0x100 EXP DUP2 SLOAD DUP2 PUSH1 0xFF MUL NOT AND SWAP1 DUP4 ISZERO ISZERO MUL OR SWAP1 SSTORE POP PUSH32 0xBCE4564AE8F7A5DD3D3D58D052E9CF9791F941153D5EAE9FF86943DC30723310 ADDRESS DUP3 CALLER PUSH1 0x40 MLOAD PUSH2 0x196D SWAP4 SWAP3 SWAP2 SWAP1 PUSH2 0x4F2E JUMP JUMPDEST PUSH1 0x40 MLOAD DUP1 SWAP2 SUB SWAP1 LOG1 POP JUMP JUMPDEST PUSH1 0xCD PUSH1 0x0 SWAP1 SLOAD SWAP1 PUSH2 0x100 EXP SWAP1 DIV PUSH20 0xFFFFFFFFFFFFFFFFFFFFFFFFFFFFFFFFFFFFFFFF AND PUSH20 0xFFFFFFFFFFFFFFFFFFFFFFFFFFFFFFFFFFFFFFFF AND DUP4 PUSH20 0xFFFFFFFFFFFFFFFFFFFFFFFFFFFFFFFFFFFFFFFF AND EQ DUP1 PUSH2 0x19D9 JUMPI POP PUSH2 0x19D8 DUP4 PUSH2 0xA3F JUMP JUMPDEST JUMPDEST PUSH2 0x1A18 JUMPI PUSH1 0x40 MLOAD PUSH32 0x8C379A000000000000000000000000000000000000000000000000000000000 DUP2 MSTORE PUSH1 0x4 ADD PUSH2 0x1A0F SWAP1 PUSH2 0x4FB1 JUMP JUMPDEST PUSH1 0x40 MLOAD DUP1 SWAP2 SUB SWAP1 REVERT JUMPDEST PUSH2 0x1A21 DUP5 PUSH2 0xA3F JUMP JUMPDEST DUP1 PUSH2 0x1A79 JUMPI POP PUSH1 0xCD PUSH1 0x0 SWAP1 SLOAD SWAP1 PUSH2 0x100 EXP SWAP1 DIV PUSH20 0xFFFFFFFFFFFFFFFFFFFFFFFFFFFFFFFFFFFFFFFF AND PUSH20 0xFFFFFFFFFFFFFFFFFFFFFFFFFFFFFFFFFFFFFFFF AND DUP5 PUSH20 0xFFFFFFFFFFFFFFFFFFFFFFFFFFFFFFFFFFFFFFFF AND EQ JUMPDEST PUSH2 0x1AB8 JUMPI PUSH1 0x40 MLOAD PUSH32 0x8C379A000000000000000000000000000000000000000000000000000000000 DUP2 MSTORE PUSH1 0x4 ADD PUSH2 0x1AAF SWAP1 PUSH2 0x501D JUMP JUMPDEST PUSH1 0x40 MLOAD DUP1 SWAP2 SUB SWAP1 REVERT JUMPDEST PUSH2 0x1AC4 DUP5 DUP5 DUP5 DUP5 PUSH2 0x2ECF JUMP JUMPDEST POP POP POP POP JUMP JUMPDEST PUSH1 0xCB PUSH1 0x0 SWAP1 SLOAD SWAP1 PUSH2 0x100 EXP SWAP1 DIV PUSH20 0xFFFFFFFFFFFFFFFFFFFFFFFFFFFFFFFFFFFFFFFF AND PUSH20 0xFFFFFFFFFFFFFFFFFFFFFFFFFFFFFFFFFFFFFFFF AND CALLER PUSH20 0xFFFFFFFFFFFFFFFFFFFFFFFFFFFFFFFFFFFFFFFF AND EQ PUSH2 0x1B5A JUMPI PUSH1 0x40 MLOAD PUSH32 0x8C379A000000000000000000000000000000000000000000000000000000000 DUP2 MSTORE PUSH1 0x4 ADD PUSH2 0x1B51 SWAP1 PUSH2 0x4974 JUMP JUMPDEST PUSH1 0x40 MLOAD DUP1 SWAP2 SUB SWAP1 REVERT JUMPDEST PUSH2 0x1B85 PUSH1 0xCC PUSH1 0x0 SWAP1 SLOAD SWAP1 PUSH2 0x100 EXP SWAP1 DIV PUSH20 0xFFFFFFFFFFFFFFFFFFFFFFFFFFFFFFFFFFFFFFFF AND PUSH2 0xA3F JUMP JUMPDEST PUSH2 0x1BC4 JUMPI PUSH1 0x40 MLOAD PUSH32 0x8C379A000000000000000000000000000000000000000000000000000000000 DUP2 MSTORE PUSH1 0x4 ADD PUSH2 0x1BBB SWAP1 PUSH2 0x5089 JUMP JUMPDEST PUSH1 0x40 MLOAD DUP1 SWAP2 SUB SWAP1 REVERT JUMPDEST PUSH2 0x1BCD DUP3 PUSH2 0x1435 JUMP JUMPDEST PUSH2 0x1C0C JUMPI PUSH1 0x40 MLOAD PUSH32 0x8C379A000000000000000000000000000000000000000000000000000000000 DUP2 MSTORE PUSH1 0x4 ADD PUSH2 0x1C03 SWAP1 PUSH2 0x49E0 JUMP JUMPDEST PUSH1 0x40 MLOAD DUP1 SWAP2 SUB SWAP1 REVERT JUMPDEST PUSH1 0xC9 PUSH1 0x0 DUP2 SLOAD DUP1 SWAP3 SWAP2 SWAP1 PUSH2 0x1C1F SWAP1 PUSH2 0x4874 JUMP JUMPDEST SWAP2 SWAP1 POP SSTORE POP PUSH2 0x1C50 PUSH1 0xCC PUSH1 0x0 SWAP1 SLOAD SWAP1 PUSH2 0x100 EXP SWAP1 DIV PUSH20 0xFFFFFFFFFFFFFFFFFFFFFFFFFFFFFFFFFFFFFFFF AND DUP4 PUSH2 0x2F31 JUMP JUMPDEST PUSH2 0x1C5A DUP3 DUP3 PUSH2 0x2CBF JUMP JUMPDEST PUSH1 0x0 JUMPDEST PUSH1 0xD0 DUP1 SLOAD SWAP1 POP DUP2 PUSH1 0xFF AND LT ISZERO PUSH2 0x1D28 JUMPI PUSH1 0xD1 PUSH1 0x0 DUP5 DUP2 MSTORE PUSH1 0x20 ADD SWAP1 DUP2 MSTORE PUSH1 0x20 ADD PUSH1 0x0 KECCAK256 PUSH1 0x0 PUSH1 0xD0 DUP4 PUSH1 0xFF AND DUP2 SLOAD DUP2 LT PUSH2 0x1C99 JUMPI PUSH2 0x1C98 PUSH2 0x4845 JUMP JUMPDEST JUMPDEST SWAP1 PUSH1 0x0 MSTORE PUSH1 0x20 PUSH1 0x0 KECCAK256 SWAP1 PUSH1 0x3 MUL ADD PUSH1 0x0 ADD PUSH1 0x0 SWAP1 SLOAD SWAP1 PUSH2 0x100 EXP SWAP1 DIV PUSH20 0xFFFFFFFFFFFFFFFFFFFFFFFFFFFFFFFFFFFFFFFF AND PUSH20 0xFFFFFFFFFFFFFFFFFFFFFFFFFFFFFFFFFFFFFFFF AND PUSH20 0xFFFFFFFFFFFFFFFFFFFFFFFFFFFFFFFFFFFFFFFF AND DUP2 MSTORE PUSH1 0x20 ADD SWAP1 DUP2 MSTORE PUSH1 0x20 ADD PUSH1 0x0 KECCAK256 PUSH1 0x0 PUSH2 0x100 EXP DUP2 SLOAD SWAP1 PUSH1 0xFF MUL NOT AND SWAP1 SSTORE DUP1 DUP1 PUSH2 0x1D20 SWAP1 PUSH2 0x4A00 JUMP JUMPDEST SWAP2 POP POP PUSH2 0x1C5D JUMP JUMPDEST POP POP POP JUMP JUMPDEST PUSH1 0x60 PUSH2 0x1D38 DUP3 PUSH2 0x27E8 JUMP JUMPDEST PUSH1 0x0 PUSH1 0x97 PUSH1 0x0 DUP5 DUP2 MSTORE PUSH1 0x20 ADD SWAP1 DUP2 MSTORE PUSH1 0x20 ADD PUSH1 0x0 KECCAK256 DUP1 SLOAD PUSH2 0x1D58 SWAP1 PUSH2 0x44B8 JUMP JUMPDEST DUP1 PUSH1 0x1F ADD PUSH1 0x20 DUP1 SWAP2 DIV MUL PUSH1 0x20 ADD PUSH1 0x40 MLOAD SWAP1 DUP2 ADD PUSH1 0x40 MSTORE DUP1 SWAP3 SWAP2 SWAP1 DUP2 DUP2 MSTORE PUSH1 0x20 ADD DUP3 DUP1 SLOAD PUSH2 0x1D84 SWAP1 PUSH2 0x44B8 JUMP JUMPDEST DUP1 ISZERO PUSH2 0x1DD1 JUMPI DUP1 PUSH1 0x1F LT PUSH2 0x1DA6 JUMPI PUSH2 0x100 DUP1 DUP4 SLOAD DIV MUL DUP4 MSTORE SWAP2 PUSH1 0x20 ADD SWAP2 PUSH2 0x1DD1 JUMP JUMPDEST DUP3 ADD SWAP2 SWAP1 PUSH1 0x0 MSTORE PUSH1 0x20 PUSH1 0x0 KECCAK256 SWAP1 JUMPDEST DUP2 SLOAD DUP2 MSTORE SWAP1 PUSH1 0x1 ADD SWAP1 PUSH1 0x20 ADD DUP1 DUP4 GT PUSH2 0x1DB4 JUMPI DUP3 SWAP1 SUB PUSH1 0x1F AND DUP3 ADD SWAP2 JUMPDEST POP POP POP POP POP SWAP1 POP PUSH1 0x0 PUSH2 0x1DE2 PUSH2 0x2F4F JUMP JUMPDEST SWAP1 POP PUSH1 0x0 DUP2 MLOAD SUB PUSH2 0x1DF7 JUMPI DUP2 SWAP3 POP POP POP PUSH2 0x1E3A JUMP JUMPDEST PUSH1 0x0 DUP3 MLOAD GT ISZERO PUSH2 0x1E2C JUMPI DUP1 DUP3 PUSH1 0x40 MLOAD PUSH1 0x20 ADD PUSH2 0x1E14 SWAP3 SWAP2 SWAP1 PUSH2 0x50E5 JUMP JUMPDEST PUSH1 0x40 MLOAD PUSH1 0x20 DUP2 DUP4 SUB SUB DUP2 MSTORE SWAP1 PUSH1 0x40 MSTORE SWAP3 POP POP POP PUSH2 0x1E3A JUMP JUMPDEST PUSH2 0x1E35 DUP5 PUSH2 0x2F66 JUMP JUMPDEST SWAP3 POP POP POP JUMPDEST SWAP2 SWAP1 POP JUMP JUMPDEST PUSH1 0xCB PUSH1 0x0 SWAP1 SLOAD SWAP1 PUSH2 0x100 EXP SWAP1 DIV PUSH20 0xFFFFFFFFFFFFFFFFFFFFFFFFFFFFFFFFFFFFFFFF AND PUSH20 0xFFFFFFFFFFFFFFFFFFFFFFFFFFFFFFFFFFFFFFFF AND CALLER PUSH20 0xFFFFFFFFFFFFFFFFFFFFFFFFFFFFFFFFFFFFFFFF AND EQ PUSH2 0x1ECF JUMPI PUSH1 0x40 MLOAD PUSH32 0x8C379A000000000000000000000000000000000000000000000000000000000 DUP2 MSTORE PUSH1 0x4 ADD PUSH2 0x1EC6 SWAP1 PUSH2 0x4974 JUMP JUMPDEST PUSH1 0x40 MLOAD DUP1 SWAP2 SUB SWAP1 REVERT JUMPDEST PUSH2 0x1ED8 DUP2 PUSH2 0x12B2 JUMP JUMPDEST PUSH2 0x1F17 JUMPI PUSH1 0x40 MLOAD PUSH32 0x8C379A000000000000000000000000000000000000000000000000000000000 DUP2 MSTORE PUSH1 0x4 ADD PUSH2 0x1F0E SWAP1 PUSH2 0x5155 JUMP JUMPDEST PUSH1 0x40 MLOAD DUP1 SWAP2 SUB SWAP1 REVERT JUMPDEST PUSH1 0xCC PUSH1 0x0 SWAP1 SLOAD SWAP1 PUSH2 0x100 EXP SWAP1 DIV PUSH20 0xFFFFFFFFFFFFFFFFFFFFFFFFFFFFFFFFFFFFFFFF AND PUSH20 0xFFFFFFFFFFFFFFFFFFFFFFFFFFFFFFFFFFFFFFFF AND DUP2 PUSH20 0xFFFFFFFFFFFFFFFFFFFFFFFFFFFFFFFFFFFFFFFF AND SUB PUSH2 0x1FA7 JUMPI PUSH1 0x40 MLOAD PUSH32 0x8C379A000000000000000000000000000000000000000000000000000000000 DUP2 MSTORE PUSH1 0x4 ADD PUSH2 0x1F9E SWAP1 PUSH2 0x51C1 JUMP JUMPDEST PUSH1 0x40 MLOAD DUP1 SWAP2 SUB SWAP1 REVERT JUMPDEST PUSH1 0x0 JUMPDEST PUSH1 0xD0 DUP1 SLOAD SWAP1 POP DUP2 PUSH1 0xFF AND LT ISZERO PUSH2 0x22CE JUMPI DUP2 PUSH20 0xFFFFFFFFFFFFFFFFFFFFFFFFFFFFFFFFFFFFFFFF AND PUSH1 0xD0 DUP3 PUSH1 0xFF AND DUP2 SLOAD DUP2 LT PUSH2 0x1FE8 JUMPI PUSH2 0x1FE7 PUSH2 0x4845 JUMP JUMPDEST JUMPDEST SWAP1 PUSH1 0x0 MSTORE PUSH1 0x20 PUSH1 0x0 KECCAK256 SWAP1 PUSH1 0x3 MUL ADD PUSH1 0x0 ADD PUSH1 0x0 SWAP1 SLOAD SWAP1 PUSH2 0x100 EXP SWAP1 DIV PUSH20 0xFFFFFFFFFFFFFFFFFFFFFFFFFFFFFFFFFFFFFFFF AND PUSH20 0xFFFFFFFFFFFFFFFFFFFFFFFFFFFFFFFFFFFFFFFF AND SUB PUSH2 0x22BB JUMPI PUSH1 0xD0 DUP2 PUSH1 0xFF AND DUP2 SLOAD DUP2 LT PUSH2 0x204C JUMPI PUSH2 0x204B PUSH2 0x4845 JUMP JUMPDEST JUMPDEST SWAP1 PUSH1 0x0 MSTORE PUSH1 0x20 PUSH1 0x0 KECCAK256 SWAP1 PUSH1 0x3 MUL ADD PUSH1 0x0 DUP1 DUP3 ADD PUSH1 0x0 PUSH2 0x100 EXP DUP2 SLOAD SWAP1 PUSH20 0xFFFFFFFFFFFFFFFFFFFFFFFFFFFFFFFFFFFFFFFF MUL NOT AND SWAP1 SSTORE PUSH1 0x1 DUP3 ADD PUSH1 0x0 PUSH2 0x100 EXP DUP2 SLOAD SWAP1 PUSH20 0xFFFFFFFFFFFFFFFFFFFFFFFFFFFFFFFFFFFFFFFF MUL NOT AND SWAP1 SSTORE PUSH1 0x2 DUP3 ADD PUSH1 0x0 PUSH2 0x20B9 SWAP2 SWAP1 PUSH2 0x37F4 JUMP JUMPDEST POP POP PUSH1 0x0 DUP2 SWAP1 POP JUMPDEST PUSH1 0x1 PUSH1 0xD0 DUP1 SLOAD SWAP1 POP PUSH2 0x20D3 SWAP2 SWAP1 PUSH2 0x51E1 JUMP JUMPDEST DUP2 PUSH1 0xFF AND LT ISZERO PUSH2 0x222C JUMPI PUSH1 0xD0 PUSH1 0x1 DUP4 PUSH2 0x20EC SWAP2 SWAP1 PUSH2 0x5215 JUMP JUMPDEST PUSH1 0xFF AND DUP2 SLOAD DUP2 LT PUSH2 0x2100 JUMPI PUSH2 0x20FF PUSH2 0x4845 JUMP JUMPDEST JUMPDEST SWAP1 PUSH1 0x0 MSTORE PUSH1 0x20 PUSH1 0x0 KECCAK256 SWAP1 PUSH1 0x3 MUL ADD PUSH1 0xD0 DUP4 PUSH1 0xFF AND DUP2 SLOAD DUP2 LT PUSH2 0x2125 JUMPI PUSH2 0x2124 PUSH2 0x4845 JUMP JUMPDEST JUMPDEST SWAP1 PUSH1 0x0 MSTORE PUSH1 0x20 PUSH1 0x0 KECCAK256 SWAP1 PUSH1 0x3 MUL ADD PUSH1 0x0 DUP3 ADD PUSH1 0x0 SWAP1 SLOAD SWAP1 PUSH2 0x100 EXP SWAP1 DIV PUSH20 0xFFFFFFFFFFFFFFFFFFFFFFFFFFFFFFFFFFFFFFFF AND DUP2 PUSH1 0x0 ADD PUSH1 0x0 PUSH2 0x100 EXP DUP2 SLOAD DUP2 PUSH20 0xFFFFFFFFFFFFFFFFFFFFFFFFFFFFFFFFFFFFFFFF MUL NOT AND SWAP1 DUP4 PUSH20 0xFFFFFFFFFFFFFFFFFFFFFFFFFFFFFFFFFFFFFFFF AND MUL OR SWAP1 SSTORE POP PUSH1 0x1 DUP3 ADD PUSH1 0x0 SWAP1 SLOAD SWAP1 PUSH2 0x100 EXP SWAP1 DIV PUSH20 0xFFFFFFFFFFFFFFFFFFFFFFFFFFFFFFFFFFFFFFFF AND DUP2 PUSH1 0x1 ADD PUSH1 0x0 PUSH2 0x100 EXP DUP2 SLOAD DUP2 PUSH20 0xFFFFFFFFFFFFFFFFFFFFFFFFFFFFFFFFFFFFFFFF MUL NOT AND SWAP1 DUP4 PUSH20 0xFFFFFFFFFFFFFFFFFFFFFFFFFFFFFFFFFFFFFFFF AND MUL OR SWAP1 SSTORE POP PUSH1 0x2 DUP3 ADD DUP2 PUSH1 0x2 ADD SWAP1 DUP2 PUSH2 0x2215 SWAP2 SWAP1 PUSH2 0x5260 JUMP JUMPDEST POP SWAP1 POP POP DUP1 DUP1 PUSH2 0x2224 SWAP1 PUSH2 0x4A00 JUMP JUMPDEST SWAP2 POP POP PUSH2 0x20C1 JUMP JUMPDEST POP PUSH1 0xD0 DUP1 SLOAD DUP1 PUSH2 0x223F JUMPI PUSH2 0x223E PUSH2 0x5348 JUMP JUMPDEST JUMPDEST PUSH1 0x1 SWAP1 SUB DUP2 DUP2 SWAP1 PUSH1 0x0 MSTORE PUSH1 0x20 PUSH1 0x0 KECCAK256 SWAP1 PUSH1 0x3 MUL ADD PUSH1 0x0 DUP1 DUP3 ADD PUSH1 0x0 PUSH2 0x100 EXP DUP2 SLOAD SWAP1 PUSH20 0xFFFFFFFFFFFFFFFFFFFFFFFFFFFFFFFFFFFFFFFF MUL NOT AND SWAP1 SSTORE PUSH1 0x1 DUP3 ADD PUSH1 0x0 PUSH2 0x100 EXP DUP2 SLOAD SWAP1 PUSH20 0xFFFFFFFFFFFFFFFFFFFFFFFFFFFFFFFFFFFFFFFF MUL NOT AND SWAP1 SSTORE PUSH1 0x2 DUP3 ADD PUSH1 0x0 PUSH2 0x22B2 SWAP2 SWAP1 PUSH2 0x37F4 JUMP JUMPDEST POP POP SWAP1 SSTORE PUSH2 0x22CE JUMP JUMPDEST DUP1 DUP1 PUSH2 0x22C6 SWAP1 PUSH2 0x4A00 JUMP JUMPDEST SWAP2 POP POP PUSH2 0x1FAA JUMP JUMPDEST POP PUSH1 0x0 PUSH1 0x1 SWAP1 POP JUMPDEST PUSH1 0xCA SLOAD DUP2 GT PUSH2 0x23C5 JUMPI PUSH1 0x1 ISZERO ISZERO PUSH1 0xD1 PUSH1 0x0 DUP4 DUP2 MSTORE PUSH1 0x20 ADD SWAP1 DUP2 MSTORE PUSH1 0x20 ADD PUSH1 0x0 KECCAK256 PUSH1 0x0 DUP5 PUSH20 0xFFFFFFFFFFFFFFFFFFFFFFFFFFFFFFFFFFFFFFFF AND PUSH20 0xFFFFFFFFFFFFFFFFFFFFFFFFFFFFFFFFFFFFFFFF AND DUP2 MSTORE PUSH1 0x20 ADD SWAP1 DUP2 MSTORE PUSH1 0x20 ADD PUSH1 0x0 KECCAK256 PUSH1 0x0 SWAP1 SLOAD SWAP1 PUSH2 0x100 EXP SWAP1 DIV PUSH1 0xFF AND ISZERO ISZERO SUB PUSH2 0x23B2 JUMPI PUSH1 0x0 PUSH1 0xD1 PUSH1 0x0 DUP4 DUP2 MSTORE PUSH1 0x20 ADD SWAP1 DUP2 MSTORE PUSH1 0x20 ADD PUSH1 0x0 KECCAK256 PUSH1 0x0 DUP5 PUSH20 0xFFFFFFFFFFFFFFFFFFFFFFFFFFFFFFFFFFFFFFFF AND PUSH20 0xFFFFFFFFFFFFFFFFFFFFFFFFFFFFFFFFFFFFFFFF AND DUP2 MSTORE PUSH1 0x20 ADD SWAP1 DUP2 MSTORE PUSH1 0x20 ADD PUSH1 0x0 KECCAK256 PUSH1 0x0 PUSH2 0x100 EXP DUP2 SLOAD DUP2 PUSH1 0xFF MUL NOT AND SWAP1 DUP4 ISZERO ISZERO MUL OR SWAP1 SSTORE POP JUMPDEST DUP1 DUP1 PUSH2 0x23BD SWAP1 PUSH2 0x4874 JUMP JUMPDEST SWAP2 POP POP PUSH2 0x22D6 JUMP JUMPDEST POP PUSH32 0xFEDA919499BC609F05B7C9C33DB8FE0B509F93CA5F69CCD2858500D2D68F3FF1 ADDRESS DUP3 PUSH1 0x40 MLOAD PUSH2 0x23F7 SWAP3 SWAP2 SWAP1 PUSH2 0x4E07 JUMP JUMPDEST PUSH1 0x40 MLOAD DUP1 SWAP2 SUB SWAP1 LOG1 POP JUMP JUMPDEST PUSH1 0x0 DUP1 PUSH1 0x1 SWAP1 SLOAD SWAP1 PUSH2 0x100 EXP SWAP1 DIV PUSH1 0xFF AND ISZERO SWAP1 POP DUP1 DUP1 ISZERO PUSH2 0x2433 JUMPI POP PUSH1 0x1 PUSH1 0x0 DUP1 SLOAD SWAP1 PUSH2 0x100 EXP SWAP1 DIV PUSH1 0xFF AND PUSH1 0xFF AND LT JUMPDEST DUP1 PUSH2 0x2460 JUMPI POP PUSH2 0x2442 ADDRESS PUSH2 0x2FCE JUMP JUMPDEST ISZERO DUP1 ISZERO PUSH2 0x245F JUMPI POP PUSH1 0x1 PUSH1 0x0 DUP1 SLOAD SWAP1 PUSH2 0x100 EXP SWAP1 DIV PUSH1 0xFF AND PUSH1 0xFF AND EQ JUMPDEST JUMPDEST PUSH2 0x249F JUMPI PUSH1 0x40 MLOAD PUSH32 0x8C379A000000000000000000000000000000000000000000000000000000000 DUP2 MSTORE PUSH1 0x4 ADD PUSH2 0x2496 SWAP1 PUSH2 0x53E9 JUMP JUMPDEST PUSH1 0x40 MLOAD DUP1 SWAP2 SUB SWAP1 REVERT JUMPDEST PUSH1 0x1 PUSH1 0x0 DUP1 PUSH2 0x100 EXP DUP2 SLOAD DUP2 PUSH1 0xFF MUL NOT AND SWAP1 DUP4 PUSH1 0xFF AND MUL OR SWAP1 SSTORE POP DUP1 ISZERO PUSH2 0x24DC JUMPI PUSH1 0x1 PUSH1 0x0 PUSH1 0x1 PUSH2 0x100 EXP DUP2 SLOAD DUP2 PUSH1 0xFF MUL NOT AND SWAP1 DUP4 ISZERO ISZERO MUL OR SWAP1 SSTORE POP JUMPDEST PUSH2 0x24E6 DUP8 DUP8 PUSH2 0x2FF1 JUMP JUMPDEST DUP5 PUSH1 0xCF PUSH1 0x0 PUSH2 0x100 EXP DUP2 SLOAD DUP2 PUSH20 0xFFFFFFFFFFFFFFFFFFFFFFFFFFFFFFFFFFFFFFFF MUL NOT AND SWAP1 DUP4 PUSH20 0xFFFFFFFFFFFFFFFFFFFFFFFFFFFFFFFFFFFFFFFF AND MUL OR SWAP1 SSTORE POP DUP4 PUSH1 0xCB PUSH1 0x0 PUSH2 0x100 EXP DUP2 SLOAD DUP2 PUSH20 0xFFFFFFFFFFFFFFFFFFFFFFFFFFFFFFFFFFFFFFFF MUL NOT AND SWAP1 DUP4 PUSH20 0xFFFFFFFFFFFFFFFFFFFFFFFFFFFFFFFFFFFFFFFF AND MUL OR SWAP1 SSTORE POP DUP3 PUSH1 0xCC PUSH1 0x0 PUSH2 0x100 EXP DUP2 SLOAD DUP2 PUSH20 0xFFFFFFFFFFFFFFFFFFFFFFFFFFFFFFFFFFFFFFFF MUL NOT AND SWAP1 DUP4 PUSH20 0xFFFFFFFFFFFFFFFFFFFFFFFFFFFFFFFFFFFFFFFF AND MUL OR SWAP1 SSTORE POP DUP2 PUSH1 0xCE PUSH1 0x0 PUSH2 0x100 EXP DUP2 SLOAD DUP2 PUSH20 0xFFFFFFFFFFFFFFFFFFFFFFFFFFFFFFFFFFFFFFFF MUL NOT AND SWAP1 DUP4 PUSH20 0xFFFFFFFFFFFFFFFFFFFFFFFFFFFFFFFFFFFFFFFF AND MUL OR SWAP1 SSTORE POP DUP1 ISZERO PUSH2 0x2643 JUMPI PUSH1 0x0 DUP1 PUSH1 0x1 PUSH2 0x100 EXP DUP2 SLOAD DUP2 PUSH1 0xFF MUL NOT AND SWAP1 DUP4 ISZERO ISZERO MUL OR SWAP1 SSTORE POP PUSH32 0x7F26B83FF96E1F2B6A682F133852F6798A09C465DA95921460CEFB3847402498 PUSH1 0x1 PUSH1 0x40 MLOAD PUSH2 0x263A SWAP2 SWAP1 PUSH2 0x5444 JUMP JUMPDEST PUSH1 0x40 MLOAD DUP1 SWAP2 SUB SWAP1 LOG1 JUMPDEST POP POP POP POP POP POP POP JUMP JUMPDEST PUSH1 0x0 PUSH1 0x6A PUSH1 0x0 DUP5 PUSH20 0xFFFFFFFFFFFFFFFFFFFFFFFFFFFFFFFFFFFFFFFF AND PUSH20 0xFFFFFFFFFFFFFFFFFFFFFFFFFFFFFFFFFFFFFFFF AND DUP2 MSTORE PUSH1 0x20 ADD SWAP1 DUP2 MSTORE PUSH1 0x20 ADD PUSH1 0x0 KECCAK256 PUSH1 0x0 DUP4 PUSH20 0xFFFFFFFFFFFFFFFFFFFFFFFFFFFFFFFFFFFFFFFF AND PUSH20 0xFFFFFFFFFFFFFFFFFFFFFFFFFFFFFFFFFFFFFFFF AND DUP2 MSTORE PUSH1 0x20 ADD SWAP1 DUP2 MSTORE PUSH1 0x20 ADD PUSH1 0x0 KECCAK256 PUSH1 0x0 SWAP1 SLOAD SWAP1 PUSH2 0x100 EXP SWAP1 DIV PUSH1 0xFF AND SWAP1 POP SWAP3 SWAP2 POP POP JUMP JUMPDEST PUSH1 0xCB PUSH1 0x0 SWAP1 SLOAD SWAP1 PUSH2 0x100 EXP SWAP1 DIV PUSH20 0xFFFFFFFFFFFFFFFFFFFFFFFFFFFFFFFFFFFFFFFF AND DUP2 JUMP JUMPDEST PUSH1 0x0 PUSH32 0x80AC58CD00000000000000000000000000000000000000000000000000000000 PUSH28 0xFFFFFFFFFFFFFFFFFFFFFFFFFFFFFFFFFFFFFFFFFFFFFFFFFFFFFFFF NOT AND DUP3 PUSH28 0xFFFFFFFFFFFFFFFFFFFFFFFFFFFFFFFFFFFFFFFFFFFFFFFFFFFFFFFF NOT AND EQ DUP1 PUSH2 0x27D1 JUMPI POP PUSH32 0x5B5E139F00000000000000000000000000000000000000000000000000000000 PUSH28 0xFFFFFFFFFFFFFFFFFFFFFFFFFFFFFFFFFFFFFFFFFFFFFFFFFFFFFFFF NOT AND DUP3 PUSH28 0xFFFFFFFFFFFFFFFFFFFFFFFFFFFFFFFFFFFFFFFFFFFFFFFFFFFFFFFF NOT AND EQ JUMPDEST DUP1 PUSH2 0x27E1 JUMPI POP PUSH2 0x27E0 DUP3 PUSH2 0x304E JUMP JUMPDEST JUMPDEST SWAP1 POP SWAP2 SWAP1 POP JUMP JUMPDEST PUSH2 0x27F1 DUP2 PUSH2 0x30B8 JUMP JUMPDEST PUSH2 0x2830 JUMPI PUSH1 0x40 MLOAD PUSH32 0x8C379A000000000000000000000000000000000000000000000000000000000 DUP2 MSTORE PUSH1 0x4 ADD PUSH2 0x2827 SWAP1 PUSH2 0x4908 JUMP JUMPDEST PUSH1 0x40 MLOAD DUP1 SWAP2 SUB SWAP1 REVERT JUMPDEST POP JUMP JUMPDEST PUSH1 0x0 CALLER SWAP1 POP SWAP1 JUMP JUMPDEST DUP2 PUSH1 0x69 PUSH1 0x0 DUP4 DUP2 MSTORE PUSH1 0x20 ADD SWAP1 DUP2 MSTORE PUSH1 0x20 ADD PUSH1 0x0 KECCAK256 PUSH1 0x0 PUSH2 0x100 EXP DUP2 SLOAD DUP2 PUSH20 0xFFFFFFFFFFFFFFFFFFFFFFFFFFFFFFFFFFFFFFFF MUL NOT AND SWAP1 DUP4 PUSH20 0xFFFFFFFFFFFFFFFFFFFFFFFFFFFFFFFFFFFFFFFF AND MUL OR SWAP1 SSTORE POP DUP1 DUP3 PUSH20 0xFFFFFFFFFFFFFFFFFFFFFFFFFFFFFFFFFFFFFFFF AND PUSH2 0x28AE DUP4 PUSH2 0xBEF JUMP JUMPDEST PUSH20 0xFFFFFFFFFFFFFFFFFFFFFFFFFFFFFFFFFFFFFFFF AND PUSH32 0x8C5BE1E5EBEC7D5BD14F71427D1E84F3DD0314C0F7B2291E5B200AC8C7C3B925 PUSH1 0x40 MLOAD PUSH1 0x40 MLOAD DUP1 SWAP2 SUB SWAP1 LOG4 POP POP JUMP JUMPDEST PUSH1 0x0 DUP1 PUSH2 0x2900 DUP4 PUSH2 0xBEF JUMP JUMPDEST SWAP1 POP DUP1 PUSH20 0xFFFFFFFFFFFFFFFFFFFFFFFFFFFFFFFFFFFFFFFF AND DUP5 PUSH20 0xFFFFFFFFFFFFFFFFFFFFFFFFFFFFFFFFFFFFFFFF AND EQ DUP1 PUSH2 0x2942 JUMPI POP PUSH2 0x2941 DUP2 DUP6 PUSH2 0x264C JUMP JUMPDEST JUMPDEST DUP1 PUSH2 0x2980 JUMPI POP DUP4 PUSH20 0xFFFFFFFFFFFFFFFFFFFFFFFFFFFFFFFFFFFFFFFF AND PUSH2 0x2968 DUP5 PUSH2 0x73F JUMP JUMPDEST PUSH20 0xFFFFFFFFFFFFFFFFFFFFFFFFFFFFFFFFFFFFFFFF AND EQ JUMPDEST SWAP2 POP POP SWAP3 SWAP2 POP POP JUMP JUMPDEST DUP3 PUSH20 0xFFFFFFFFFFFFFFFFFFFFFFFFFFFFFFFFFFFFFFFF AND PUSH2 0x29A9 DUP3 PUSH2 0xBEF JUMP JUMPDEST PUSH20 0xFFFFFFFFFFFFFFFFFFFFFFFFFFFFFFFFFFFFFFFF AND EQ PUSH2 0x29FF JUMPI PUSH1 0x40 MLOAD PUSH32 0x8C379A000000000000000000000000000000000000000000000000000000000 DUP2 MSTORE PUSH1 0x4 ADD PUSH2 0x29F6 SWAP1 PUSH2 0x54D1 JUMP JUMPDEST PUSH1 0x40 MLOAD DUP1 SWAP2 SUB SWAP1 REVERT JUMPDEST PUSH1 0x0 PUSH20 0xFFFFFFFFFFFFFFFFFFFFFFFFFFFFFFFFFFFFFFFF AND DUP3 PUSH20 0xFFFFFFFFFFFFFFFFFFFFFFFFFFFFFFFFFFFFFFFF AND SUB PUSH2 0x2A6E JUMPI PUSH1 0x40 MLOAD PUSH32 0x8C379A000000000000000000000000000000000000000000000000000000000 DUP2 MSTORE PUSH1 0x4 ADD PUSH2 0x2A65 SWAP1 PUSH2 0x5563 JUMP JUMPDEST PUSH1 0x40 MLOAD DUP1 SWAP2 SUB SWAP1 REVERT JUMPDEST PUSH2 0x2A7B DUP4 DUP4 DUP4 PUSH1 0x1 PUSH2 0x30F9 JUMP JUMPDEST DUP3 PUSH20 0xFFFFFFFFFFFFFFFFFFFFFFFFFFFFFFFFFFFFFFFF AND PUSH2 0x2A9B DUP3 PUSH2 0xBEF JUMP JUMPDEST PUSH20 0xFFFFFFFFFFFFFFFFFFFFFFFFFFFFFFFFFFFFFFFF AND EQ PUSH2 0x2AF1 JUMPI PUSH1 0x40 MLOAD PUSH32 0x8C379A000000000000000000000000000000000000000000000000000000000 DUP2 MSTORE PUSH1 0x4 ADD PUSH2 0x2AE8 SWAP1 PUSH2 0x54D1 JUMP JUMPDEST PUSH1 0x40 MLOAD DUP1 SWAP2 SUB SWAP1 REVERT JUMPDEST PUSH1 0x69 PUSH1 0x0 DUP3 DUP2 MSTORE PUSH1 0x20 ADD SWAP1 DUP2 MSTORE PUSH1 0x20 ADD PUSH1 0x0 KECCAK256 PUSH1 0x0 PUSH2 0x100 EXP DUP2 SLOAD SWAP1 PUSH20 0xFFFFFFFFFFFFFFFFFFFFFFFFFFFFFFFFFFFFFFFF MUL NOT AND SWAP1 SSTORE PUSH1 0x1 PUSH1 0x68 PUSH1 0x0 DUP6 PUSH20 0xFFFFFFFFFFFFFFFFFFFFFFFFFFFFFFFFFFFFFFFF AND PUSH20 0xFFFFFFFFFFFFFFFFFFFFFFFFFFFFFFFFFFFFFFFF AND DUP2 MSTORE PUSH1 0x20 ADD SWAP1 DUP2 MSTORE PUSH1 0x20 ADD PUSH1 0x0 KECCAK256 PUSH1 0x0 DUP3 DUP3 SLOAD SUB SWAP3 POP POP DUP2 SWAP1 SSTORE POP PUSH1 0x1 PUSH1 0x68 PUSH1 0x0 DUP5 PUSH20 0xFFFFFFFFFFFFFFFFFFFFFFFFFFFFFFFFFFFFFFFF AND PUSH20 0xFFFFFFFFFFFFFFFFFFFFFFFFFFFFFFFFFFFFFFFF AND DUP2 MSTORE PUSH1 0x20 ADD SWAP1 DUP2 MSTORE PUSH1 0x20 ADD PUSH1 0x0 KECCAK256 PUSH1 0x0 DUP3 DUP3 SLOAD ADD SWAP3 POP POP DUP2 SWAP1 SSTORE POP DUP2 PUSH1 0x67 PUSH1 0x0 DUP4 DUP2 MSTORE PUSH1 0x20 ADD SWAP1 DUP2 MSTORE PUSH1 0x20 ADD PUSH1 0x0 KECCAK256 PUSH1 0x0 PUSH2 0x100 EXP DUP2 SLOAD DUP2 PUSH20 0xFFFFFFFFFFFFFFFFFFFFFFFFFFFFFFFFFFFFFFFF MUL NOT AND SWAP1 DUP4 PUSH20 0xFFFFFFFFFFFFFFFFFFFFFFFFFFFFFFFFFFFFFFFF AND MUL OR SWAP1 SSTORE POP DUP1 DUP3 PUSH20 0xFFFFFFFFFFFFFFFFFFFFFFFFFFFFFFFFFFFFFFFF AND DUP5 PUSH20 0xFFFFFFFFFFFFFFFFFFFFFFFFFFFFFFFFFFFFFFFF AND PUSH32 0xDDF252AD1BE2C89B69C2B068FC378DAA952BA7F163C4A11628F55A4DF523B3EF PUSH1 0x40 MLOAD PUSH1 0x40 MLOAD DUP1 SWAP2 SUB SWAP1 LOG4 PUSH2 0x2C7D DUP4 DUP4 DUP4 PUSH1 0x1 PUSH2 0x30FF JUMP JUMPDEST POP POP POP JUMP JUMPDEST PUSH1 0x0 PUSH1 0x67 PUSH1 0x0 DUP4 DUP2 MSTORE PUSH1 0x20 ADD SWAP1 DUP2 MSTORE PUSH1 0x20 ADD PUSH1 0x0 KECCAK256 PUSH1 0x0 SWAP1 SLOAD SWAP1 PUSH2 0x100 EXP SWAP1 DIV PUSH20 0xFFFFFFFFFFFFFFFFFFFFFFFFFFFFFFFFFFFFFFFF AND SWAP1 POP SWAP2 SWAP1 POP JUMP JUMPDEST PUSH2 0x2CC8 DUP3 PUSH2 0x30B8 JUMP JUMPDEST PUSH2 0x2D07 JUMPI PUSH1 0x40 MLOAD PUSH32 0x8C379A000000000000000000000000000000000000000000000000000000000 DUP2 MSTORE PUSH1 0x4 ADD PUSH2 0x2CFE SWAP1 PUSH2 0x55F5 JUMP JUMPDEST PUSH1 0x40 MLOAD DUP1 SWAP2 SUB SWAP1 REVERT JUMPDEST DUP1 PUSH1 0x97 PUSH1 0x0 DUP5 DUP2 MSTORE PUSH1 0x20 ADD SWAP1 DUP2 MSTORE PUSH1 0x20 ADD PUSH1 0x0 KECCAK256 SWAP1 DUP2 PUSH2 0x2D27 SWAP2 SWAP1 PUSH2 0x4D35 JUMP JUMPDEST POP PUSH32 0xF8E1A15ABA9398E019F0B49DF1A4FDE98EE17AE345CB5F6B5E2C27F5033E8CE7 DUP3 PUSH1 0x40 MLOAD PUSH2 0x2D57 SWAP2 SWAP1 PUSH2 0x3B0C JUMP JUMPDEST PUSH1 0x40 MLOAD DUP1 SWAP2 SUB SWAP1 LOG1 POP POP JUMP JUMPDEST DUP2 PUSH20 0xFFFFFFFFFFFFFFFFFFFFFFFFFFFFFFFFFFFFFFFF AND DUP4 PUSH20 0xFFFFFFFFFFFFFFFFFFFFFFFFFFFFFFFFFFFFFFFF AND SUB PUSH2 0x2DD1 JUMPI PUSH1 0x40 MLOAD PUSH32 0x8C379A000000000000000000000000000000000000000000000000000000000 DUP2 MSTORE PUSH1 0x4 ADD PUSH2 0x2DC8 SWAP1 PUSH2 0x5661 JUMP JUMPDEST PUSH1 0x40 MLOAD DUP1 SWAP2 SUB SWAP1 REVERT JUMPDEST DUP1 PUSH1 0x6A PUSH1 0x0 DUP6 PUSH20 0xFFFFFFFFFFFFFFFFFFFFFFFFFFFFFFFFFFFFFFFF AND PUSH20 0xFFFFFFFFFFFFFFFFFFFFFFFFFFFFFFFFFFFFFFFF AND DUP2 MSTORE PUSH1 0x20 ADD SWAP1 DUP2 MSTORE PUSH1 0x20 ADD PUSH1 0x0 KECCAK256 PUSH1 0x0 DUP5 PUSH20 0xFFFFFFFFFFFFFFFFFFFFFFFFFFFFFFFFFFFFFFFF AND PUSH20 0xFFFFFFFFFFFFFFFFFFFFFFFFFFFFFFFFFFFFFFFF AND DUP2 MSTORE PUSH1 0x20 ADD SWAP1 DUP2 MSTORE PUSH1 0x20 ADD PUSH1 0x0 KECCAK256 PUSH1 0x0 PUSH2 0x100 EXP DUP2 SLOAD DUP2 PUSH1 0xFF MUL NOT AND SWAP1 DUP4 ISZERO ISZERO MUL OR SWAP1 SSTORE POP DUP2 PUSH20 0xFFFFFFFFFFFFFFFFFFFFFFFFFFFFFFFFFFFFFFFF AND DUP4 PUSH20 0xFFFFFFFFFFFFFFFFFFFFFFFFFFFFFFFFFFFFFFFF AND PUSH32 0x17307EAB39AB6107E8899845AD3D59BD9653F200F220920489CA2B5937696C31 DUP4 PUSH1 0x40 MLOAD PUSH2 0x2EC2 SWAP2 SWAP1 PUSH2 0x3905 JUMP JUMPDEST PUSH1 0x40 MLOAD DUP1 SWAP2 SUB SWAP1 LOG3 POP POP POP JUMP JUMPDEST PUSH2 0x2EE0 PUSH2 0x2EDA PUSH2 0x2833 JUMP JUMPDEST DUP4 PUSH2 0x28F4 JUMP JUMPDEST PUSH2 0x2F1F JUMPI PUSH1 0x40 MLOAD PUSH32 0x8C379A000000000000000000000000000000000000000000000000000000000 DUP2 MSTORE PUSH1 0x4 ADD PUSH2 0x2F16 SWAP1 PUSH2 0x4777 JUMP JUMPDEST PUSH1 0x40 MLOAD DUP1 SWAP2 SUB SWAP1 REVERT JUMPDEST PUSH2 0x2F2B DUP5 DUP5 DUP5 DUP5 PUSH2 0x3105 JUMP JUMPDEST POP POP POP POP JUMP JUMPDEST PUSH2 0x2F4B DUP3 DUP3 PUSH1 0x40 MLOAD DUP1 PUSH1 0x20 ADD PUSH1 0x40 MSTORE DUP1 PUSH1 0x0 DUP2 MSTORE POP PUSH2 0x3161 JUMP JUMPDEST POP POP JUMP JUMPDEST PUSH1 0x60 PUSH1 0x40 MLOAD DUP1 PUSH1 0x20 ADD PUSH1 0x40 MSTORE DUP1 PUSH1 0x0 DUP2 MSTORE POP SWAP1 POP SWAP1 JUMP JUMPDEST PUSH1 0x60 PUSH2 0x2F71 DUP3 PUSH2 0x27E8 JUMP JUMPDEST PUSH1 0x0 PUSH2 0x2F7B PUSH2 0x2F4F JUMP JUMPDEST SWAP1 POP PUSH1 0x0 DUP2 MLOAD GT PUSH2 0x2F9B JUMPI PUSH1 0x40 MLOAD DUP1 PUSH1 0x20 ADD PUSH1 0x40 MSTORE DUP1 PUSH1 0x0 DUP2 MSTORE POP PUSH2 0x2FC6 JUMP JUMPDEST DUP1 PUSH2 0x2FA5 DUP5 PUSH2 0x31BC JUMP JUMPDEST PUSH1 0x40 MLOAD PUSH1 0x20 ADD PUSH2 0x2FB6 SWAP3 SWAP2 SWAP1 PUSH2 0x50E5 JUMP JUMPDEST PUSH1 0x40 MLOAD PUSH1 0x20 DUP2 DUP4 SUB SUB DUP2 MSTORE SWAP1 PUSH1 0x40 MSTORE JUMPDEST SWAP2 POP POP SWAP2 SWAP1 POP JUMP JUMPDEST PUSH1 0x0 DUP1 DUP3 PUSH20 0xFFFFFFFFFFFFFFFFFFFFFFFFFFFFFFFFFFFFFFFF AND EXTCODESIZE GT SWAP1 POP SWAP2 SWAP1 POP JUMP JUMPDEST PUSH1 0x0 PUSH1 0x1 SWAP1 SLOAD SWAP1 PUSH2 0x100 EXP SWAP1 DIV PUSH1 0xFF AND PUSH2 0x3040 JUMPI PUSH1 0x40 MLOAD PUSH32 0x8C379A000000000000000000000000000000000000000000000000000000000 DUP2 MSTORE PUSH1 0x4 ADD PUSH2 0x3037 SWAP1 PUSH2 0x56F3 JUMP JUMPDEST PUSH1 0x40 MLOAD DUP1 SWAP2 SUB SWAP1 REVERT JUMPDEST PUSH2 0x304A DUP3 DUP3 PUSH2 0x328A JUMP JUMPDEST POP POP JUMP JUMPDEST PUSH1 0x0 PUSH32 0x1FFC9A700000000000000000000000000000000000000000000000000000000 PUSH28 0xFFFFFFFFFFFFFFFFFFFFFFFFFFFFFFFFFFFFFFFFFFFFFFFFFFFFFFFF NOT AND DUP3 PUSH28 0xFFFFFFFFFFFFFFFFFFFFFFFFFFFFFFFFFFFFFFFFFFFFFFFFFFFFFFFF NOT AND EQ SWAP1 POP SWAP2 SWAP1 POP JUMP JUMPDEST PUSH1 0x0 DUP1 PUSH20 0xFFFFFFFFFFFFFFFFFFFFFFFFFFFFFFFFFFFFFFFF AND PUSH2 0x30DA DUP4 PUSH2 0x2C82 JUMP JUMPDEST PUSH20 0xFFFFFFFFFFFFFFFFFFFFFFFFFFFFFFFFFFFFFFFF AND EQ ISZERO SWAP1 POP SWAP2 SWAP1 POP JUMP JUMPDEST POP POP POP POP JUMP JUMPDEST POP POP POP POP JUMP JUMPDEST PUSH2 0x3110 DUP5 DUP5 DUP5 PUSH2 0x2989 JUMP JUMPDEST PUSH2 0x311C DUP5 DUP5 DUP5 DUP5 PUSH2 0x32FD JUMP JUMPDEST PUSH2 0x315B JUMPI PUSH1 0x40 MLOAD PUSH32 0x8C379A000000000000000000000000000000000000000000000000000000000 DUP2 MSTORE PUSH1 0x4 ADD PUSH2 0x3152 SWAP1 PUSH2 0x5785 JUMP JUMPDEST PUSH1 0x40 MLOAD DUP1 SWAP2 SUB SWAP1 REVERT JUMPDEST POP POP POP POP JUMP JUMPDEST PUSH2 0x316B DUP4 DUP4 PUSH2 0x3484 JUMP JUMPDEST PUSH2 0x3178 PUSH1 0x0 DUP5 DUP5 DUP5 PUSH2 0x32FD JUMP JUMPDEST PUSH2 0x31B7 JUMPI PUSH1 0x40 MLOAD PUSH32 0x8C379A000000000000000000000000000000000000000000000000000000000 DUP2 MSTORE PUSH1 0x4 ADD PUSH2 0x31AE SWAP1 PUSH2 0x5785 JUMP JUMPDEST PUSH1 0x40 MLOAD DUP1 SWAP2 SUB SWAP1 REVERT JUMPDEST POP POP POP JUMP JUMPDEST PUSH1 0x60 PUSH1 0x0 PUSH1 0x1 PUSH2 0x31CB DUP5 PUSH2 0x36A1 JUMP JUMPDEST ADD SWAP1 POP PUSH1 0x0 DUP2 PUSH8 0xFFFFFFFFFFFFFFFF DUP2 GT ISZERO PUSH2 0x31EA JUMPI PUSH2 0x31E9 PUSH2 0x3C5E JUMP JUMPDEST JUMPDEST PUSH1 0x40 MLOAD SWAP1 DUP1 DUP3 MSTORE DUP1 PUSH1 0x1F ADD PUSH1 0x1F NOT AND PUSH1 0x20 ADD DUP3 ADD PUSH1 0x40 MSTORE DUP1 ISZERO PUSH2 0x321C JUMPI DUP2 PUSH1 0x20 ADD PUSH1 0x1 DUP3 MUL DUP1 CALLDATASIZE DUP4 CALLDATACOPY DUP1 DUP3 ADD SWAP2 POP POP SWAP1 POP JUMPDEST POP SWAP1 POP PUSH1 0x0 DUP3 PUSH1 0x20 ADD DUP3 ADD SWAP1 POP JUMPDEST PUSH1 0x1 ISZERO PUSH2 0x327F JUMPI DUP1 DUP1 PUSH1 0x1 SWAP1 SUB SWAP2 POP POP PUSH32 0x3031323334353637383961626364656600000000000000000000000000000000 PUSH1 0xA DUP7 MOD BYTE DUP2 MSTORE8 PUSH1 0xA DUP6 DUP2 PUSH2 0x3273 JUMPI PUSH2 0x3272 PUSH2 0x57A5 JUMP JUMPDEST JUMPDEST DIV SWAP5 POP PUSH1 0x0 DUP6 SUB PUSH2 0x322A JUMPI JUMPDEST DUP2 SWAP4 POP POP POP POP SWAP2 SWAP1 POP JUMP JUMPDEST PUSH1 0x0 PUSH1 0x1 SWAP1 SLOAD SWAP1 PUSH2 0x100 EXP SWAP1 DIV PUSH1 0xFF AND PUSH2 0x32D9 JUMPI PUSH1 0x40 MLOAD PUSH32 0x8C379A000000000000000000000000000000000000000000000000000000000 DUP2 MSTORE PUSH1 0x4 ADD PUSH2 0x32D0 SWAP1 PUSH2 0x56F3 JUMP JUMPDEST PUSH1 0x40 MLOAD DUP1 SWAP2 SUB SWAP1 REVERT JUMPDEST DUP2 PUSH1 0x65 SWAP1 DUP2 PUSH2 0x32E8 SWAP2 SWAP1 PUSH2 0x4D35 JUMP JUMPDEST POP DUP1 PUSH1 0x66 SWAP1 DUP2 PUSH2 0x32F8 SWAP2 SWAP1 PUSH2 0x4D35 JUMP JUMPDEST POP POP POP JUMP JUMPDEST PUSH1 0x0 PUSH2 0x331E DUP5 PUSH20 0xFFFFFFFFFFFFFFFFFFFFFFFFFFFFFFFFFFFFFFFF AND PUSH2 0x2FCE JUMP JUMPDEST ISZERO PUSH2 0x3477 JUMPI DUP4 PUSH20 0xFFFFFFFFFFFFFFFFFFFFFFFFFFFFFFFFFFFFFFFF AND PUSH4 0x150B7A02 PUSH2 0x3347 PUSH2 0x2833 JUMP JUMPDEST DUP8 DUP7 DUP7 PUSH1 0x40 MLOAD DUP6 PUSH4 0xFFFFFFFF AND PUSH1 0xE0 SHL DUP2 MSTORE PUSH1 0x4 ADD PUSH2 0x3369 SWAP5 SWAP4 SWAP3 SWAP2 SWAP1 PUSH2 0x5829 JUMP JUMPDEST PUSH1 0x20 PUSH1 0x40 MLOAD DUP1 DUP4 SUB DUP2 PUSH1 0x0 DUP8 GAS CALL SWAP3 POP POP POP DUP1 ISZERO PUSH2 0x33A5 JUMPI POP PUSH1 0x40 MLOAD RETURNDATASIZE PUSH1 0x1F NOT PUSH1 0x1F DUP3 ADD AND DUP3 ADD DUP1 PUSH1 0x40 MSTORE POP DUP2 ADD SWAP1 PUSH2 0x33A2 SWAP2 SWAP1 PUSH2 0x588A JUMP JUMPDEST PUSH1 0x1 JUMPDEST PUSH2 0x3427 JUMPI RETURNDATASIZE DUP1 PUSH1 0x0 DUP2 EQ PUSH2 0x33D5 JUMPI PUSH1 0x40 MLOAD SWAP2 POP PUSH1 0x1F NOT PUSH1 0x3F RETURNDATASIZE ADD AND DUP3 ADD PUSH1 0x40 MSTORE RETURNDATASIZE DUP3 MSTORE RETURNDATASIZE PUSH1 0x0 PUSH1 0x20 DUP5 ADD RETURNDATACOPY PUSH2 0x33DA JUMP JUMPDEST PUSH1 0x60 SWAP2 POP JUMPDEST POP PUSH1 0x0 DUP2 MLOAD SUB PUSH2 0x341F JUMPI PUSH1 0x40 MLOAD PUSH32 0x8C379A000000000000000000000000000000000000000000000000000000000 DUP2 MSTORE PUSH1 0x4 ADD PUSH2 0x3416 SWAP1 PUSH2 0x5785 JUMP JUMPDEST PUSH1 0x40 MLOAD DUP1 SWAP2 SUB SWAP1 REVERT JUMPDEST DUP1 MLOAD DUP2 PUSH1 0x20 ADD REVERT JUMPDEST PUSH4 0x150B7A02 PUSH1 0xE0 SHL PUSH28 0xFFFFFFFFFFFFFFFFFFFFFFFFFFFFFFFFFFFFFFFFFFFFFFFFFFFFFFFF NOT AND DUP2 PUSH28 0xFFFFFFFFFFFFFFFFFFFFFFFFFFFFFFFFFFFFFFFFFFFFFFFFFFFFFFFF NOT AND EQ SWAP2 POP POP PUSH2 0x347C JUMP JUMPDEST PUSH1 0x1 SWAP1 POP JUMPDEST SWAP5 SWAP4 POP POP POP POP JUMP JUMPDEST PUSH1 0x0 PUSH20 0xFFFFFFFFFFFFFFFFFFFFFFFFFFFFFFFFFFFFFFFF AND DUP3 PUSH20 0xFFFFFFFFFFFFFFFFFFFFFFFFFFFFFFFFFFFFFFFF AND SUB PUSH2 0x34F3 JUMPI PUSH1 0x40 MLOAD PUSH32 0x8C379A000000000000000000000000000000000000000000000000000000000 DUP2 MSTORE PUSH1 0x4 ADD PUSH2 0x34EA SWAP1 PUSH2 0x5903 JUMP JUMPDEST PUSH1 0x40 MLOAD DUP1 SWAP2 SUB SWAP1 REVERT JUMPDEST PUSH2 0x34FC DUP2 PUSH2 0x30B8 JUMP JUMPDEST ISZERO PUSH2 0x353C JUMPI PUSH1 0x40 MLOAD PUSH32 0x8C379A000000000000000000000000000000000000000000000000000000000 DUP2 MSTORE PUSH1 0x4 ADD PUSH2 0x3533 SWAP1 PUSH2 0x596F JUMP JUMPDEST PUSH1 0x40 MLOAD DUP1 SWAP2 SUB SWAP1 REVERT JUMPDEST PUSH2 0x354A PUSH1 0x0 DUP4 DUP4 PUSH1 0x1 PUSH2 0x30F9 JUMP JUMPDEST PUSH2 0x3553 DUP2 PUSH2 0x30B8 JUMP JUMPDEST ISZERO PUSH2 0x3593 JUMPI PUSH1 0x40 MLOAD PUSH32 0x8C379A000000000000000000000000000000000000000000000000000000000 DUP2 MSTORE PUSH1 0x4 ADD PUSH2 0x358A SWAP1 PUSH2 0x596F JUMP JUMPDEST PUSH1 0x40 MLOAD DUP1 SWAP2 SUB SWAP1 REVERT JUMPDEST PUSH1 0x1 PUSH1 0x68 PUSH1 0x0 DUP5 PUSH20 0xFFFFFFFFFFFFFFFFFFFFFFFFFFFFFFFFFFFFFFFF AND PUSH20 0xFFFFFFFFFFFFFFFFFFFFFFFFFFFFFFFFFFFFFFFF AND DUP2 MSTORE PUSH1 0x20 ADD SWAP1 DUP2 MSTORE PUSH1 0x20 ADD PUSH1 0x0 KECCAK256 PUSH1 0x0 DUP3 DUP3 SLOAD ADD SWAP3 POP POP DUP2 SWAP1 SSTORE POP DUP2 PUSH1 0x67 PUSH1 0x0 DUP4 DUP2 MSTORE PUSH1 0x20 ADD SWAP1 DUP2 MSTORE PUSH1 0x20 ADD PUSH1 0x0 KECCAK256 PUSH1 0x0 PUSH2 0x100 EXP DUP2 SLOAD DUP2 PUSH20 0xFFFFFFFFFFFFFFFFFFFFFFFFFFFFFFFFFFFFFFFF MUL NOT AND SWAP1 DUP4 PUSH20 0xFFFFFFFFFFFFFFFFFFFFFFFFFFFFFFFFFFFFFFFF AND MUL OR SWAP1 SSTORE POP DUP1 DUP3 PUSH20 0xFFFFFFFFFFFFFFFFFFFFFFFFFFFFFFFFFFFFFFFF AND PUSH1 0x0 PUSH20 0xFFFFFFFFFFFFFFFFFFFFFFFFFFFFFFFFFFFFFFFF AND PUSH32 0xDDF252AD1BE2C89B69C2B068FC378DAA952BA7F163C4A11628F55A4DF523B3EF PUSH1 0x40 MLOAD PUSH1 0x40 MLOAD DUP1 SWAP2 SUB SWAP1 LOG4 PUSH2 0x369D PUSH1 0x0 DUP4 DUP4 PUSH1 0x1 PUSH2 0x30FF JUMP JUMPDEST POP POP JUMP JUMPDEST PUSH1 0x0 DUP1 PUSH1 0x0 SWAP1 POP PUSH27 0x184F03E93FF9F4DAA797ED6E38ED64BF6A1F010000000000000000 DUP4 LT PUSH2 0x36FF JUMPI PUSH27 0x184F03E93FF9F4DAA797ED6E38ED64BF6A1F010000000000000000 DUP4 DUP2 PUSH2 0x36F5 JUMPI PUSH2 0x36F4 PUSH2 0x57A5 JUMP JUMPDEST JUMPDEST DIV SWAP3 POP PUSH1 0x40 DUP2 ADD SWAP1 POP JUMPDEST PUSH14 0x4EE2D6D415B85ACEF8100000000 DUP4 LT PUSH2 0x373C JUMPI PUSH14 0x4EE2D6D415B85ACEF8100000000 DUP4 DUP2 PUSH2 0x3732 JUMPI PUSH2 0x3731 PUSH2 0x57A5 JUMP JUMPDEST JUMPDEST DIV SWAP3 POP PUSH1 0x20 DUP2 ADD SWAP1 POP JUMPDEST PUSH7 0x2386F26FC10000 DUP4 LT PUSH2 0x376B JUMPI PUSH7 0x2386F26FC10000 DUP4 DUP2 PUSH2 0x3761 JUMPI PUSH2 0x3760 PUSH2 0x57A5 JUMP JUMPDEST JUMPDEST DIV SWAP3 POP PUSH1 0x10 DUP2 ADD SWAP1 POP JUMPDEST PUSH4 0x5F5E100 DUP4 LT PUSH2 0x3794 JUMPI PUSH4 0x5F5E100 DUP4 DUP2 PUSH2 0x378A JUMPI PUSH2 0x3789 PUSH2 0x57A5 JUMP JUMPDEST JUMPDEST DIV SWAP3 POP PUSH1 0x8 DUP2 ADD SWAP1 POP JUMPDEST PUSH2 0x2710 DUP4 LT PUSH2 0x37B9 JUMPI PUSH2 0x2710 DUP4 DUP2 PUSH2 0x37AF JUMPI PUSH2 0x37AE PUSH2 0x57A5 JUMP JUMPDEST JUMPDEST DIV SWAP3 POP PUSH1 0x4 DUP2 ADD SWAP1 POP JUMPDEST PUSH1 0x64 DUP4 LT PUSH2 0x37DC JUMPI PUSH1 0x64 DUP4 DUP2 PUSH2 0x37D2 JUMPI PUSH2 0x37D1 PUSH2 0x57A5 JUMP JUMPDEST JUMPDEST DIV SWAP3 POP PUSH1 0x2 DUP2 ADD SWAP1 POP JUMPDEST PUSH1 0xA DUP4 LT PUSH2 0x37EB JUMPI PUSH1 0x1 DUP2 ADD SWAP1 POP JUMPDEST DUP1 SWAP2 POP POP SWAP2 SWAP1 POP JUMP JUMPDEST POP DUP1 SLOAD PUSH2 0x3800 SWAP1 PUSH2 0x44B8 JUMP JUMPDEST PUSH1 0x0 DUP3 SSTORE DUP1 PUSH1 0x1F LT PUSH2 0x3812 JUMPI POP PUSH2 0x3831 JUMP JUMPDEST PUSH1 0x1F ADD PUSH1 0x20 SWAP1 DIV SWAP1 PUSH1 0x0 MSTORE PUSH1 0x20 PUSH1 0x0 KECCAK256 SWAP1 DUP2 ADD SWAP1 PUSH2 0x3830 SWAP2 SWAP1 PUSH2 0x3834 JUMP JUMPDEST JUMPDEST POP JUMP JUMPDEST JUMPDEST DUP1 DUP3 GT ISZERO PUSH2 0x384D JUMPI PUSH1 0x0 DUP2 PUSH1 0x0 SWAP1 SSTORE POP PUSH1 0x1 ADD PUSH2 0x3835 JUMP JUMPDEST POP SWAP1 JUMP JUMPDEST PUSH1 0x0 PUSH1 0x40 MLOAD SWAP1 POP SWAP1 JUMP JUMPDEST PUSH1 0x0 DUP1 REVERT JUMPDEST PUSH1 0x0 DUP1 REVERT JUMPDEST PUSH1 0x0 PUSH32 0xFFFFFFFF00000000000000000000000000000000000000000000000000000000 DUP3 AND SWAP1 POP SWAP2 SWAP1 POP JUMP JUMPDEST PUSH2 0x389A DUP2 PUSH2 0x3865 JUMP JUMPDEST DUP2 EQ PUSH2 0x38A5 JUMPI PUSH1 0x0 DUP1 REVERT JUMPDEST POP JUMP JUMPDEST PUSH1 0x0 DUP2 CALLDATALOAD SWAP1 POP PUSH2 0x38B7 DUP2 PUSH2 0x3891 JUMP JUMPDEST SWAP3 SWAP2 POP POP JUMP JUMPDEST PUSH1 0x0 PUSH1 0x20 DUP3 DUP5 SUB SLT ISZERO PUSH2 0x38D3 JUMPI PUSH2 0x38D2 PUSH2 0x385B JUMP JUMPDEST JUMPDEST PUSH1 0x0 PUSH2 0x38E1 DUP5 DUP3 DUP6 ADD PUSH2 0x38A8 JUMP JUMPDEST SWAP2 POP POP SWAP3 SWAP2 POP POP JUMP JUMPDEST PUSH1 0x0 DUP2 ISZERO ISZERO SWAP1 POP SWAP2 SWAP1 POP JUMP JUMPDEST PUSH2 0x38FF DUP2 PUSH2 0x38EA JUMP JUMPDEST DUP3 MSTORE POP POP JUMP JUMPDEST PUSH1 0x0 PUSH1 0x20 DUP3 ADD SWAP1 POP PUSH2 0x391A PUSH1 0x0 DUP4 ADD DUP5 PUSH2 0x38F6 JUMP JUMPDEST SWAP3 SWAP2 POP POP JUMP JUMPDEST PUSH1 0x0 DUP2 MLOAD SWAP1 POP SWAP2 SWAP1 POP JUMP JUMPDEST PUSH1 0x0 DUP3 DUP3 MSTORE PUSH1 0x20 DUP3 ADD SWAP1 POP SWAP3 SWAP2 POP POP JUMP JUMPDEST PUSH1 0x0 JUMPDEST DUP4 DUP2 LT ISZERO PUSH2 0x395A JUMPI DUP1 DUP3 ADD MLOAD DUP2 DUP5 ADD MSTORE PUSH1 0x20 DUP2 ADD SWAP1 POP PUSH2 0x393F JUMP JUMPDEST PUSH1 0x0 DUP5 DUP5 ADD MSTORE POP POP POP POP JUMP JUMPDEST PUSH1 0x0 PUSH1 0x1F NOT PUSH1 0x1F DUP4 ADD AND SWAP1 POP SWAP2 SWAP1 POP JUMP JUMPDEST PUSH1 0x0 PUSH2 0x3982 DUP3 PUSH2 0x3920 JUMP JUMPDEST PUSH2 0x398C DUP2 DUP6 PUSH2 0x392B JUMP JUMPDEST SWAP4 POP PUSH2 0x399C DUP2 DUP6 PUSH1 0x20 DUP7 ADD PUSH2 0x393C JUMP JUMPDEST PUSH2 0x39A5 DUP2 PUSH2 0x3966 JUMP JUMPDEST DUP5 ADD SWAP2 POP POP SWAP3 SWAP2 POP POP JUMP JUMPDEST PUSH1 0x0 PUSH1 0x20 DUP3 ADD SWAP1 POP DUP2 DUP2 SUB PUSH1 0x0 DUP4 ADD MSTORE PUSH2 0x39CA DUP2 DUP5 PUSH2 0x3977 JUMP JUMPDEST SWAP1 POP SWAP3 SWAP2 POP POP JUMP JUMPDEST PUSH1 0x0 DUP2 SWAP1 POP SWAP2 SWAP1 POP JUMP JUMPDEST PUSH2 0x39E5 DUP2 PUSH2 0x39D2 JUMP JUMPDEST DUP2 EQ PUSH2 0x39F0 JUMPI PUSH1 0x0 DUP1 REVERT JUMPDEST POP JUMP JUMPDEST PUSH1 0x0 DUP2 CALLDATALOAD SWAP1 POP PUSH2 0x3A02 DUP2 PUSH2 0x39DC JUMP JUMPDEST SWAP3 SWAP2 POP POP JUMP JUMPDEST PUSH1 0x0 PUSH1 0x20 DUP3 DUP5 SUB SLT ISZERO PUSH2 0x3A1E JUMPI PUSH2 0x3A1D PUSH2 0x385B JUMP JUMPDEST JUMPDEST PUSH1 0x0 PUSH2 0x3A2C DUP5 DUP3 DUP6 ADD PUSH2 0x39F3 JUMP JUMPDEST SWAP2 POP POP SWAP3 SWAP2 POP POP JUMP JUMPDEST PUSH1 0x0 PUSH20 0xFFFFFFFFFFFFFFFFFFFFFFFFFFFFFFFFFFFFFFFF DUP3 AND SWAP1 POP SWAP2 SWAP1 POP JUMP JUMPDEST PUSH1 0x0 PUSH2 0x3A60 DUP3 PUSH2 0x3A35 JUMP JUMPDEST SWAP1 POP SWAP2 SWAP1 POP JUMP JUMPDEST PUSH2 0x3A70 DUP2 PUSH2 0x3A55 JUMP JUMPDEST DUP3 MSTORE POP POP JUMP JUMPDEST PUSH1 0x0 PUSH1 0x20 DUP3 ADD SWAP1 POP PUSH2 0x3A8B PUSH1 0x0 DUP4 ADD DUP5 PUSH2 0x3A67 JUMP JUMPDEST SWAP3 SWAP2 POP POP JUMP JUMPDEST PUSH2 0x3A9A DUP2 PUSH2 0x3A55 JUMP JUMPDEST DUP2 EQ PUSH2 0x3AA5 JUMPI PUSH1 0x0 DUP1 REVERT JUMPDEST POP JUMP JUMPDEST PUSH1 0x0 DUP2 CALLDATALOAD SWAP1 POP PUSH2 0x3AB7 DUP2 PUSH2 0x3A91 JUMP JUMPDEST SWAP3 SWAP2 POP POP JUMP JUMPDEST PUSH1 0x0 DUP1 PUSH1 0x40 DUP4 DUP6 SUB SLT ISZERO PUSH2 0x3AD4 JUMPI PUSH2 0x3AD3 PUSH2 0x385B JUMP JUMPDEST JUMPDEST PUSH1 0x0 PUSH2 0x3AE2 DUP6 DUP3 DUP7 ADD PUSH2 0x3AA8 JUMP JUMPDEST SWAP3 POP POP PUSH1 0x20 PUSH2 0x3AF3 DUP6 DUP3 DUP7 ADD PUSH2 0x39F3 JUMP JUMPDEST SWAP2 POP POP SWAP3 POP SWAP3 SWAP1 POP JUMP JUMPDEST PUSH2 0x3B06 DUP2 PUSH2 0x39D2 JUMP JUMPDEST DUP3 MSTORE POP POP JUMP JUMPDEST PUSH1 0x0 PUSH1 0x20 DUP3 ADD SWAP1 POP PUSH2 0x3B21 PUSH1 0x0 DUP4 ADD DUP5 PUSH2 0x3AFD JUMP JUMPDEST SWAP3 SWAP2 POP POP JUMP JUMPDEST PUSH1 0x0 DUP1 PUSH1 0x0 PUSH1 0x60 DUP5 DUP7 SUB SLT ISZERO PUSH2 0x3B40 JUMPI PUSH2 0x3B3F PUSH2 0x385B JUMP JUMPDEST JUMPDEST PUSH1 0x0 PUSH2 0x3B4E DUP7 DUP3 DUP8 ADD PUSH2 0x3AA8 JUMP JUMPDEST SWAP4 POP POP PUSH1 0x20 PUSH2 0x3B5F DUP7 DUP3 DUP8 ADD PUSH2 0x3AA8 JUMP JUMPDEST SWAP3 POP POP PUSH1 0x40 PUSH2 0x3B70 DUP7 DUP3 DUP8 ADD PUSH2 0x39F3 JUMP JUMPDEST SWAP2 POP POP SWAP3 POP SWAP3 POP SWAP3 JUMP JUMPDEST PUSH1 0x0 PUSH1 0x20 DUP3 DUP5 SUB SLT ISZERO PUSH2 0x3B90 JUMPI PUSH2 0x3B8F PUSH2 0x385B JUMP JUMPDEST JUMPDEST PUSH1 0x0 PUSH2 0x3B9E DUP5 DUP3 DUP6 ADD PUSH2 0x3AA8 JUMP JUMPDEST SWAP2 POP POP SWAP3 SWAP2 POP POP JUMP JUMPDEST PUSH1 0x0 DUP1 REVERT JUMPDEST PUSH1 0x0 DUP1 REVERT JUMPDEST PUSH1 0x0 DUP1 REVERT JUMPDEST PUSH1 0x0 DUP1 DUP4 PUSH1 0x1F DUP5 ADD SLT PUSH2 0x3BCC JUMPI PUSH2 0x3BCB PUSH2 0x3BA7 JUMP JUMPDEST JUMPDEST DUP3 CALLDATALOAD SWAP1 POP PUSH8 0xFFFFFFFFFFFFFFFF DUP2 GT ISZERO PUSH2 0x3BE9 JUMPI PUSH2 0x3BE8 PUSH2 0x3BAC JUMP JUMPDEST JUMPDEST PUSH1 0x20 DUP4 ADD SWAP2 POP DUP4 PUSH1 0x20 DUP3 MUL DUP4 ADD GT ISZERO PUSH2 0x3C05 JUMPI PUSH2 0x3C04 PUSH2 0x3BB1 JUMP JUMPDEST JUMPDEST SWAP3 POP SWAP3 SWAP1 POP JUMP JUMPDEST PUSH1 0x0 DUP1 PUSH1 0x20 DUP4 DUP6 SUB SLT ISZERO PUSH2 0x3C23 JUMPI PUSH2 0x3C22 PUSH2 0x385B JUMP JUMPDEST JUMPDEST PUSH1 0x0 DUP4 ADD CALLDATALOAD PUSH8 0xFFFFFFFFFFFFFFFF DUP2 GT ISZERO PUSH2 0x3C41 JUMPI PUSH2 0x3C40 PUSH2 0x3860 JUMP JUMPDEST JUMPDEST PUSH2 0x3C4D DUP6 DUP3 DUP7 ADD PUSH2 0x3BB6 JUMP JUMPDEST SWAP3 POP SWAP3 POP POP SWAP3 POP SWAP3 SWAP1 POP JUMP JUMPDEST PUSH1 0x0 DUP1 REVERT JUMPDEST PUSH32 0x4E487B7100000000000000000000000000000000000000000000000000000000 PUSH1 0x0 MSTORE PUSH1 0x41 PUSH1 0x4 MSTORE PUSH1 0x24 PUSH1 0x0 REVERT JUMPDEST PUSH2 0x3C96 DUP3 PUSH2 0x3966 JUMP JUMPDEST DUP2 ADD DUP2 DUP2 LT PUSH8 0xFFFFFFFFFFFFFFFF DUP3 GT OR ISZERO PUSH2 0x3CB5 JUMPI PUSH2 0x3CB4 PUSH2 0x3C5E JUMP JUMPDEST JUMPDEST DUP1 PUSH1 0x40 MSTORE POP POP POP JUMP JUMPDEST PUSH1 0x0 PUSH2 0x3CC8 PUSH2 0x3851 JUMP JUMPDEST SWAP1 POP PUSH2 0x3CD4 DUP3 DUP3 PUSH2 0x3C8D JUMP JUMPDEST SWAP2 SWAP1 POP JUMP JUMPDEST PUSH1 0x0 PUSH8 0xFFFFFFFFFFFFFFFF DUP3 GT ISZERO PUSH2 0x3CF4 JUMPI PUSH2 0x3CF3 PUSH2 0x3C5E JUMP JUMPDEST JUMPDEST PUSH2 0x3CFD DUP3 PUSH2 0x3966 JUMP JUMPDEST SWAP1 POP PUSH1 0x20 DUP2 ADD SWAP1 POP SWAP2 SWAP1 POP JUMP JUMPDEST DUP3 DUP2 DUP4 CALLDATACOPY PUSH1 0x0 DUP4 DUP4 ADD MSTORE POP POP POP JUMP JUMPDEST PUSH1 0x0 PUSH2 0x3D2C PUSH2 0x3D27 DUP5 PUSH2 0x3CD9 JUMP JUMPDEST PUSH2 0x3CBE JUMP JUMPDEST SWAP1 POP DUP3 DUP2 MSTORE PUSH1 0x20 DUP2 ADD DUP5 DUP5 DUP5 ADD GT ISZERO PUSH2 0x3D48 JUMPI PUSH2 0x3D47 PUSH2 0x3C59 JUMP JUMPDEST JUMPDEST PUSH2 0x3D53 DUP5 DUP3 DUP6 PUSH2 0x3D0A JUMP JUMPDEST POP SWAP4 SWAP3 POP POP POP JUMP JUMPDEST PUSH1 0x0 DUP3 PUSH1 0x1F DUP4 ADD SLT PUSH2 0x3D70 JUMPI PUSH2 0x3D6F PUSH2 0x3BA7 JUMP JUMPDEST JUMPDEST DUP2 CALLDATALOAD PUSH2 0x3D80 DUP5 DUP3 PUSH1 0x20 DUP7 ADD PUSH2 0x3D19 JUMP JUMPDEST SWAP2 POP POP SWAP3 SWAP2 POP POP JUMP JUMPDEST PUSH1 0x0 DUP1 PUSH1 0x40 DUP4 DUP6 SUB SLT ISZERO PUSH2 0x3DA0 JUMPI PUSH2 0x3D9F PUSH2 0x385B JUMP JUMPDEST JUMPDEST PUSH1 0x0 PUSH2 0x3DAE DUP6 DUP3 DUP7 ADD PUSH2 0x39F3 JUMP JUMPDEST SWAP3 POP POP PUSH1 0x20 DUP4 ADD CALLDATALOAD PUSH8 0xFFFFFFFFFFFFFFFF DUP2 GT ISZERO PUSH2 0x3DCF JUMPI PUSH2 0x3DCE PUSH2 0x3860 JUMP JUMPDEST JUMPDEST PUSH2 0x3DDB DUP6 DUP3 DUP7 ADD PUSH2 0x3D5B JUMP JUMPDEST SWAP2 POP POP SWAP3 POP SWAP3 SWAP1 POP JUMP JUMPDEST PUSH1 0x0 DUP2 MLOAD SWAP1 POP SWAP2 SWAP1 POP JUMP JUMPDEST PUSH1 0x0 DUP3 DUP3 MSTORE PUSH1 0x20 DUP3 ADD SWAP1 POP SWAP3 SWAP2 POP POP JUMP JUMPDEST PUSH1 0x0 DUP2 SWAP1 POP PUSH1 0x20 DUP3 ADD SWAP1 POP SWAP2 SWAP1 POP JUMP JUMPDEST PUSH2 0x3E1A DUP2 PUSH2 0x3A55 JUMP JUMPDEST DUP3 MSTORE POP POP JUMP JUMPDEST PUSH1 0x0 PUSH2 0x3E2C DUP4 DUP4 PUSH2 0x3E11 JUMP JUMPDEST PUSH1 0x20 DUP4 ADD SWAP1 POP SWAP3 SWAP2 POP POP JUMP JUMPDEST PUSH1 0x0 PUSH1 0x20 DUP3 ADD SWAP1 POP SWAP2 SWAP1 POP JUMP JUMPDEST PUSH1 0x0 PUSH2 0x3E50 DUP3 PUSH2 0x3DE5 JUMP JUMPDEST PUSH2 0x3E5A DUP2 DUP6 PUSH2 0x3DF0 JUMP JUMPDEST SWAP4 POP PUSH2 0x3E65 DUP4 PUSH2 0x3E01 JUMP JUMPDEST DUP1 PUSH1 0x0 JUMPDEST DUP4 DUP2 LT ISZERO PUSH2 0x3E96 JUMPI DUP2 MLOAD PUSH2 0x3E7D DUP9 DUP3 PUSH2 0x3E20 JUMP JUMPDEST SWAP8 POP PUSH2 0x3E88 DUP4 PUSH2 0x3E38 JUMP JUMPDEST SWAP3 POP POP PUSH1 0x1 DUP2 ADD SWAP1 POP PUSH2 0x3E69 JUMP JUMPDEST POP DUP6 SWAP4 POP POP POP POP SWAP3 SWAP2 POP POP JUMP JUMPDEST PUSH1 0x0 PUSH1 0xFF DUP3 AND SWAP1 POP SWAP2 SWAP1 POP JUMP JUMPDEST PUSH2 0x3EB9 DUP2 PUSH2 0x3EA3 JUMP JUMPDEST DUP3 MSTORE POP POP JUMP JUMPDEST PUSH1 0x0 PUSH1 0x40 DUP3 ADD SWAP1 POP DUP2 DUP2 SUB PUSH1 0x0 DUP4 ADD MSTORE PUSH2 0x3ED9 DUP2 DUP6 PUSH2 0x3E45 JUMP JUMPDEST SWAP1 POP PUSH2 0x3EE8 PUSH1 0x20 DUP4 ADD DUP5 PUSH2 0x3EB0 JUMP JUMPDEST SWAP4 SWAP3 POP POP POP JUMP JUMPDEST PUSH1 0x0 PUSH8 0xFFFFFFFFFFFFFFFF DUP3 GT ISZERO PUSH2 0x3F0A JUMPI PUSH2 0x3F09 PUSH2 0x3C5E JUMP JUMPDEST JUMPDEST PUSH1 0x20 DUP3 MUL SWAP1 POP PUSH1 0x20 DUP2 ADD SWAP1 POP SWAP2 SWAP1 POP JUMP JUMPDEST PUSH1 0x0 PUSH2 0x3F2E PUSH2 0x3F29 DUP5 PUSH2 0x3EEF JUMP JUMPDEST PUSH2 0x3CBE JUMP JUMPDEST SWAP1 POP DUP1 DUP4 DUP3 MSTORE PUSH1 0x20 DUP3 ADD SWAP1 POP PUSH1 0x20 DUP5 MUL DUP4 ADD DUP6 DUP2 GT ISZERO PUSH2 0x3F51 JUMPI PUSH2 0x3F50 PUSH2 0x3BB1 JUMP JUMPDEST JUMPDEST DUP4 JUMPDEST DUP2 DUP2 LT ISZERO PUSH2 0x3F7A JUMPI DUP1 PUSH2 0x3F66 DUP9 DUP3 PUSH2 0x39F3 JUMP JUMPDEST DUP5 MSTORE PUSH1 0x20 DUP5 ADD SWAP4 POP POP PUSH1 0x20 DUP2 ADD SWAP1 POP PUSH2 0x3F53 JUMP JUMPDEST POP POP POP SWAP4 SWAP3 POP POP POP JUMP JUMPDEST PUSH1 0x0 DUP3 PUSH1 0x1F DUP4 ADD SLT PUSH2 0x3F99 JUMPI PUSH2 0x3F98 PUSH2 0x3BA7 JUMP JUMPDEST JUMPDEST DUP2 CALLDATALOAD PUSH2 0x3FA9 DUP5 DUP3 PUSH1 0x20 DUP7 ADD PUSH2 0x3F1B JUMP JUMPDEST SWAP2 POP POP SWAP3 SWAP2 POP POP JUMP JUMPDEST PUSH1 0x0 PUSH8 0xFFFFFFFFFFFFFFFF DUP3 GT ISZERO PUSH2 0x3FCD JUMPI PUSH2 0x3FCC PUSH2 0x3C5E JUMP JUMPDEST JUMPDEST PUSH1 0x20 DUP3 MUL SWAP1 POP PUSH1 0x20 DUP2 ADD SWAP1 POP SWAP2 SWAP1 POP JUMP JUMPDEST PUSH1 0x0 PUSH2 0x3FF1 PUSH2 0x3FEC DUP5 PUSH2 0x3FB2 JUMP JUMPDEST PUSH2 0x3CBE JUMP JUMPDEST SWAP1 POP DUP1 DUP4 DUP3 MSTORE PUSH1 0x20 DUP3 ADD SWAP1 POP PUSH1 0x20 DUP5 MUL DUP4 ADD DUP6 DUP2 GT ISZERO PUSH2 0x4014 JUMPI PUSH2 0x4013 PUSH2 0x3BB1 JUMP JUMPDEST JUMPDEST DUP4 JUMPDEST DUP2 DUP2 LT ISZERO PUSH2 0x405B JUMPI DUP1 CALLDATALOAD PUSH8 0xFFFFFFFFFFFFFFFF DUP2 GT ISZERO PUSH2 0x4039 JUMPI PUSH2 0x4038 PUSH2 0x3BA7 JUMP JUMPDEST JUMPDEST DUP1 DUP7 ADD PUSH2 0x4046 DUP10 DUP3 PUSH2 0x3D5B JUMP JUMPDEST DUP6 MSTORE PUSH1 0x20 DUP6 ADD SWAP5 POP POP POP PUSH1 0x20 DUP2 ADD SWAP1 POP PUSH2 0x4016 JUMP JUMPDEST POP POP POP SWAP4 SWAP3 POP POP POP JUMP JUMPDEST PUSH1 0x0 DUP3 PUSH1 0x1F DUP4 ADD SLT PUSH2 0x407A JUMPI PUSH2 0x4079 PUSH2 0x3BA7 JUMP JUMPDEST JUMPDEST DUP2 CALLDATALOAD PUSH2 0x408A DUP5 DUP3 PUSH1 0x20 DUP7 ADD PUSH2 0x3FDE JUMP JUMPDEST SWAP2 POP POP SWAP3 SWAP2 POP POP JUMP JUMPDEST PUSH1 0x0 DUP1 PUSH1 0x40 DUP4 DUP6 SUB SLT ISZERO PUSH2 0x40AA JUMPI PUSH2 0x40A9 PUSH2 0x385B JUMP JUMPDEST JUMPDEST PUSH1 0x0 DUP4 ADD CALLDATALOAD PUSH8 0xFFFFFFFFFFFFFFFF DUP2 GT ISZERO PUSH2 0x40C8 JUMPI PUSH2 0x40C7 PUSH2 0x3860 JUMP JUMPDEST JUMPDEST PUSH2 0x40D4 DUP6 DUP3 DUP7 ADD PUSH2 0x3F84 JUMP JUMPDEST SWAP3 POP POP PUSH1 0x20 DUP4 ADD CALLDATALOAD PUSH8 0xFFFFFFFFFFFFFFFF DUP2 GT ISZERO PUSH2 0x40F5 JUMPI PUSH2 0x40F4 PUSH2 0x3860 JUMP JUMPDEST JUMPDEST PUSH2 0x4101 DUP6 DUP3 DUP7 ADD PUSH2 0x4065 JUMP JUMPDEST SWAP2 POP POP SWAP3 POP SWAP3 SWAP1 POP JUMP JUMPDEST PUSH1 0x0 DUP2 SWAP1 POP SWAP2 SWAP1 POP JUMP JUMPDEST PUSH1 0x0 PUSH2 0x4130 PUSH2 0x412B PUSH2 0x4126 DUP5 PUSH2 0x3A35 JUMP JUMPDEST PUSH2 0x410B JUMP JUMPDEST PUSH2 0x3A35 JUMP JUMPDEST SWAP1 POP SWAP2 SWAP1 POP JUMP JUMPDEST PUSH1 0x0 PUSH2 0x4142 DUP3 PUSH2 0x4115 JUMP JUMPDEST SWAP1 POP SWAP2 SWAP1 POP JUMP JUMPDEST PUSH1 0x0 PUSH2 0x4154 DUP3 PUSH2 0x4137 JUMP JUMPDEST SWAP1 POP SWAP2 SWAP1 POP JUMP JUMPDEST PUSH2 0x4164 DUP2 PUSH2 0x4149 JUMP JUMPDEST DUP3 MSTORE POP POP JUMP JUMPDEST PUSH1 0x0 PUSH1 0x20 DUP3 ADD SWAP1 POP PUSH2 0x417F PUSH1 0x0 DUP4 ADD DUP5 PUSH2 0x415B JUMP JUMPDEST SWAP3 SWAP2 POP POP JUMP JUMPDEST PUSH2 0x418E DUP2 PUSH2 0x38EA JUMP JUMPDEST DUP2 EQ PUSH2 0x4199 JUMPI PUSH1 0x0 DUP1 REVERT JUMPDEST POP JUMP JUMPDEST PUSH1 0x0 DUP2 CALLDATALOAD SWAP1 POP PUSH2 0x41AB DUP2 PUSH2 0x4185 JUMP JUMPDEST SWAP3 SWAP2 POP POP JUMP JUMPDEST PUSH1 0x0 DUP1 PUSH1 0x40 DUP4 DUP6 SUB SLT ISZERO PUSH2 0x41C8 JUMPI PUSH2 0x41C7 PUSH2 0x385B JUMP JUMPDEST JUMPDEST PUSH1 0x0 PUSH2 0x41D6 DUP6 DUP3 DUP7 ADD PUSH2 0x3AA8 JUMP JUMPDEST SWAP3 POP POP PUSH1 0x20 PUSH2 0x41E7 DUP6 DUP3 DUP7 ADD PUSH2 0x419C JUMP JUMPDEST SWAP2 POP POP SWAP3 POP SWAP3 SWAP1 POP JUMP JUMPDEST PUSH1 0x0 DUP1 PUSH1 0x0 PUSH1 0x60 DUP5 DUP7 SUB SLT ISZERO PUSH2 0x420A JUMPI PUSH2 0x4209 PUSH2 0x385B JUMP JUMPDEST JUMPDEST PUSH1 0x0 PUSH2 0x4218 DUP7 DUP3 DUP8 ADD PUSH2 0x3AA8 JUMP JUMPDEST SWAP4 POP POP PUSH1 0x20 PUSH2 0x4229 DUP7 DUP3 DUP8 ADD PUSH2 0x3AA8 JUMP JUMPDEST SWAP3 POP POP PUSH1 0x40 DUP5 ADD CALLDATALOAD PUSH8 0xFFFFFFFFFFFFFFFF DUP2 GT ISZERO PUSH2 0x424A JUMPI PUSH2 0x4249 PUSH2 0x3860 JUMP JUMPDEST JUMPDEST PUSH2 0x4256 DUP7 DUP3 DUP8 ADD PUSH2 0x3D5B JUMP JUMPDEST SWAP2 POP POP SWAP3 POP SWAP3 POP SWAP3 JUMP JUMPDEST PUSH1 0x0 PUSH8 0xFFFFFFFFFFFFFFFF DUP3 GT ISZERO PUSH2 0x427B JUMPI PUSH2 0x427A PUSH2 0x3C5E JUMP JUMPDEST JUMPDEST PUSH2 0x4284 DUP3 PUSH2 0x3966 JUMP JUMPDEST SWAP1 POP PUSH1 0x20 DUP2 ADD SWAP1 POP SWAP2 SWAP1 POP JUMP JUMPDEST PUSH1 0x0 PUSH2 0x42A4 PUSH2 0x429F DUP5 PUSH2 0x4260 JUMP JUMPDEST PUSH2 0x3CBE JUMP JUMPDEST SWAP1 POP DUP3 DUP2 MSTORE PUSH1 0x20 DUP2 ADD DUP5 DUP5 DUP5 ADD GT ISZERO PUSH2 0x42C0 JUMPI PUSH2 0x42BF PUSH2 0x3C59 JUMP JUMPDEST JUMPDEST PUSH2 0x42CB DUP5 DUP3 DUP6 PUSH2 0x3D0A JUMP JUMPDEST POP SWAP4 SWAP3 POP POP POP JUMP JUMPDEST PUSH1 0x0 DUP3 PUSH1 0x1F DUP4 ADD SLT PUSH2 0x42E8 JUMPI PUSH2 0x42E7 PUSH2 0x3BA7 JUMP JUMPDEST JUMPDEST DUP2 CALLDATALOAD PUSH2 0x42F8 DUP5 DUP3 PUSH1 0x20 DUP7 ADD PUSH2 0x4291 JUMP JUMPDEST SWAP2 POP POP SWAP3 SWAP2 POP POP JUMP JUMPDEST PUSH1 0x0 DUP1 PUSH1 0x0 DUP1 PUSH1 0x80 DUP6 DUP8 SUB SLT ISZERO PUSH2 0x431B JUMPI PUSH2 0x431A PUSH2 0x385B JUMP JUMPDEST JUMPDEST PUSH1 0x0 PUSH2 0x4329 DUP8 DUP3 DUP9 ADD PUSH2 0x3AA8 JUMP JUMPDEST SWAP5 POP POP PUSH1 0x20 PUSH2 0x433A DUP8 DUP3 DUP9 ADD PUSH2 0x3AA8 JUMP JUMPDEST SWAP4 POP POP PUSH1 0x40 PUSH2 0x434B DUP8 DUP3 DUP9 ADD PUSH2 0x39F3 JUMP JUMPDEST SWAP3 POP POP PUSH1 0x60 DUP6 ADD CALLDATALOAD PUSH8 0xFFFFFFFFFFFFFFFF DUP2 GT ISZERO PUSH2 0x436C JUMPI PUSH2 0x436B PUSH2 0x3860 JUMP JUMPDEST JUMPDEST PUSH2 0x4378 DUP8 DUP3 DUP9 ADD PUSH2 0x42D3 JUMP JUMPDEST SWAP2 POP POP SWAP3 SWAP6 SWAP2 SWAP5 POP SWAP3 POP JUMP JUMPDEST PUSH1 0x0 DUP1 PUSH1 0x0 DUP1 PUSH1 0x0 DUP1 PUSH1 0xC0 DUP8 DUP10 SUB SLT ISZERO PUSH2 0x43A1 JUMPI PUSH2 0x43A0 PUSH2 0x385B JUMP JUMPDEST JUMPDEST PUSH1 0x0 DUP8 ADD CALLDATALOAD PUSH8 0xFFFFFFFFFFFFFFFF DUP2 GT ISZERO PUSH2 0x43BF JUMPI PUSH2 0x43BE PUSH2 0x3860 JUMP JUMPDEST JUMPDEST PUSH2 0x43CB DUP10 DUP3 DUP11 ADD PUSH2 0x3D5B JUMP JUMPDEST SWAP7 POP POP PUSH1 0x20 DUP8 ADD CALLDATALOAD PUSH8 0xFFFFFFFFFFFFFFFF DUP2 GT ISZERO PUSH2 0x43EC JUMPI PUSH2 0x43EB PUSH2 0x3860 JUMP JUMPDEST JUMPDEST PUSH2 0x43F8 DUP10 DUP3 DUP11 ADD PUSH2 0x3D5B JUMP JUMPDEST SWAP6 POP POP PUSH1 0x40 PUSH2 0x4409 DUP10 DUP3 DUP11 ADD PUSH2 0x3AA8 JUMP JUMPDEST SWAP5 POP POP PUSH1 0x60 PUSH2 0x441A DUP10 DUP3 DUP11 ADD PUSH2 0x3AA8 JUMP JUMPDEST SWAP4 POP POP PUSH1 0x80 PUSH2 0x442B DUP10 DUP3 DUP11 ADD PUSH2 0x3AA8 JUMP JUMPDEST SWAP3 POP POP PUSH1 0xA0 PUSH2 0x443C DUP10 DUP3 DUP11 ADD PUSH2 0x3AA8 JUMP JUMPDEST SWAP2 POP POP SWAP3 SWAP6 POP SWAP3 SWAP6 POP SWAP3 SWAP6 JUMP JUMPDEST PUSH1 0x0 DUP1 PUSH1 0x40 DUP4 DUP6 SUB SLT ISZERO PUSH2 0x4460 JUMPI PUSH2 0x445F PUSH2 0x385B JUMP JUMPDEST JUMPDEST PUSH1 0x0 PUSH2 0x446E DUP6 DUP3 DUP7 ADD PUSH2 0x3AA8 JUMP JUMPDEST SWAP3 POP POP PUSH1 0x20 PUSH2 0x447F DUP6 DUP3 DUP7 ADD PUSH2 0x3AA8 JUMP JUMPDEST SWAP2 POP POP SWAP3 POP SWAP3 SWAP1 POP JUMP JUMPDEST PUSH32 0x4E487B7100000000000000000000000000000000000000000000000000000000 PUSH1 0x0 MSTORE PUSH1 0x22 PUSH1 0x4 MSTORE PUSH1 0x24 PUSH1 0x0 REVERT JUMPDEST PUSH1 0x0 PUSH1 0x2 DUP3 DIV SWAP1 POP PUSH1 0x1 DUP3 AND DUP1 PUSH2 0x44D0 JUMPI PUSH1 0x7F DUP3 AND SWAP2 POP JUMPDEST PUSH1 0x20 DUP3 LT DUP2 SUB PUSH2 0x44E3 JUMPI PUSH2 0x44E2 PUSH2 0x4489 JUMP JUMPDEST JUMPDEST POP SWAP2 SWAP1 POP JUMP JUMPDEST PUSH32 0x4552433732313A20617070726F76616C20746F2063757272656E74206F776E65 PUSH1 0x0 DUP3 ADD MSTORE PUSH32 0x7200000000000000000000000000000000000000000000000000000000000000 PUSH1 0x20 DUP3 ADD MSTORE POP JUMP JUMPDEST PUSH1 0x0 PUSH2 0x4545 PUSH1 0x21 DUP4 PUSH2 0x392B JUMP JUMPDEST SWAP2 POP PUSH2 0x4550 DUP3 PUSH2 0x44E9 JUMP JUMPDEST PUSH1 0x40 DUP3 ADD SWAP1 POP SWAP2 SWAP1 POP JUMP JUMPDEST PUSH1 0x0 PUSH1 0x20 DUP3 ADD SWAP1 POP DUP2 DUP2 SUB PUSH1 0x0 DUP4 ADD MSTORE PUSH2 0x4574 DUP2 PUSH2 0x4538 JUMP JUMPDEST SWAP1 POP SWAP2 SWAP1 POP JUMP JUMPDEST PUSH32 0x4552433732313A20617070726F76652063616C6C6572206973206E6F7420746F PUSH1 0x0 DUP3 ADD MSTORE PUSH32 0x6B656E206F776E6572206F7220617070726F76656420666F7220616C6C000000 PUSH1 0x20 DUP3 ADD MSTORE POP JUMP JUMPDEST PUSH1 0x0 PUSH2 0x45D7 PUSH1 0x3D DUP4 PUSH2 0x392B JUMP JUMPDEST SWAP2 POP PUSH2 0x45E2 DUP3 PUSH2 0x457B JUMP JUMPDEST PUSH1 0x40 DUP3 ADD SWAP1 POP SWAP2 SWAP1 POP JUMP JUMPDEST PUSH1 0x0 PUSH1 0x20 DUP3 ADD SWAP1 POP DUP2 DUP2 SUB PUSH1 0x0 DUP4 ADD MSTORE PUSH2 0x4606 DUP2 PUSH2 0x45CA JUMP JUMPDEST SWAP1 POP SWAP2 SWAP1 POP JUMP JUMPDEST PUSH32 0x6E6F7420617574686F7269736564000000000000000000000000000000000000 PUSH1 0x0 DUP3 ADD MSTORE POP JUMP JUMPDEST PUSH1 0x0 PUSH2 0x4643 PUSH1 0xE DUP4 PUSH2 0x392B JUMP JUMPDEST SWAP2 POP PUSH2 0x464E DUP3 PUSH2 0x460D JUMP JUMPDEST PUSH1 0x20 DUP3 ADD SWAP1 POP SWAP2 SWAP1 POP JUMP JUMPDEST PUSH1 0x0 PUSH1 0x20 DUP3 ADD SWAP1 POP DUP2 DUP2 SUB PUSH1 0x0 DUP4 ADD MSTORE PUSH2 0x4672 DUP2 PUSH2 0x4636 JUMP JUMPDEST SWAP1 POP SWAP2 SWAP1 POP JUMP JUMPDEST PUSH32 0x4E487B7100000000000000000000000000000000000000000000000000000000 PUSH1 0x0 MSTORE PUSH1 0x11 PUSH1 0x4 MSTORE PUSH1 0x24 PUSH1 0x0 REVERT JUMPDEST PUSH1 0x0 PUSH2 0x46B3 DUP3 PUSH2 0x39D2 JUMP JUMPDEST SWAP2 POP PUSH2 0x46BE DUP4 PUSH2 0x39D2 JUMP JUMPDEST SWAP3 POP DUP3 DUP3 ADD SWAP1 POP DUP1 DUP3 GT ISZERO PUSH2 0x46D6 JUMPI PUSH2 0x46D5 PUSH2 0x4679 JUMP JUMPDEST JUMPDEST SWAP3 SWAP2 POP POP JUMP JUMPDEST PUSH1 0x0 PUSH1 0x40 DUP3 ADD SWAP1 POP PUSH2 0x46F1 PUSH1 0x0 DUP4 ADD DUP6 PUSH2 0x3A67 JUMP JUMPDEST PUSH2 0x46FE PUSH1 0x20 DUP4 ADD DUP5 PUSH2 0x3AFD JUMP JUMPDEST SWAP4 SWAP3 POP POP POP JUMP JUMPDEST PUSH32 0x4552433732313A2063616C6C6572206973206E6F7420746F6B656E206F776E65 PUSH1 0x0 DUP3 ADD MSTORE PUSH32 0x72206F7220617070726F76656400000000000000000000000000000000000000 PUSH1 0x20 DUP3 ADD MSTORE POP JUMP JUMPDEST PUSH1 0x0 PUSH2 0x4761 PUSH1 0x2D DUP4 PUSH2 0x392B JUMP JUMPDEST SWAP2 POP PUSH2 0x476C DUP3 PUSH2 0x4705 JUMP JUMPDEST PUSH1 0x40 DUP3 ADD SWAP1 POP SWAP2 SWAP1 POP JUMP JUMPDEST PUSH1 0x0 PUSH1 0x20 DUP3 ADD SWAP1 POP DUP2 DUP2 SUB PUSH1 0x0 DUP4 ADD MSTORE PUSH2 0x4790 DUP2 PUSH2 0x4754 JUMP JUMPDEST SWAP1 POP SWAP2 SWAP1 POP JUMP JUMPDEST PUSH1 0x0 DUP2 MLOAD SWAP1 POP PUSH2 0x47A6 DUP2 PUSH2 0x3A91 JUMP JUMPDEST SWAP3 SWAP2 POP POP JUMP JUMPDEST PUSH1 0x0 PUSH1 0x20 DUP3 DUP5 SUB SLT ISZERO PUSH2 0x47C2 JUMPI PUSH2 0x47C1 PUSH2 0x385B JUMP JUMPDEST JUMPDEST PUSH1 0x0 PUSH2 0x47D0 DUP5 DUP3 DUP6 ADD PUSH2 0x4797 JUMP JUMPDEST SWAP2 POP POP SWAP3 SWAP2 POP POP JUMP JUMPDEST PUSH32 0x43616C6C6572206D7573742062652061205369676E61746F7279000000000000 PUSH1 0x0 DUP3 ADD MSTORE POP JUMP JUMPDEST PUSH1 0x0 PUSH2 0x480F PUSH1 0x1A DUP4 PUSH2 0x392B JUMP JUMPDEST SWAP2 POP PUSH2 0x481A DUP3 PUSH2 0x47D9 JUMP JUMPDEST PUSH1 0x20 DUP3 ADD SWAP1 POP SWAP2 SWAP1 POP JUMP JUMPDEST PUSH1 0x0 PUSH1 0x20 DUP3 ADD SWAP1 POP DUP2 DUP2 SUB PUSH1 0x0 DUP4 ADD MSTORE PUSH2 0x483E DUP2 PUSH2 0x4802 JUMP JUMPDEST SWAP1 POP SWAP2 SWAP1 POP JUMP JUMPDEST PUSH32 0x4E487B7100000000000000000000000000000000000000000000000000000000 PUSH1 0x0 MSTORE PUSH1 0x32 PUSH1 0x4 MSTORE PUSH1 0x24 PUSH1 0x0 REVERT JUMPDEST PUSH1 0x0 PUSH2 0x487F DUP3 PUSH2 0x39D2 JUMP JUMPDEST SWAP2 POP PUSH32 0xFFFFFFFFFFFFFFFFFFFFFFFFFFFFFFFFFFFFFFFFFFFFFFFFFFFFFFFFFFFFFFFF DUP3 SUB PUSH2 0x48B1 JUMPI PUSH2 0x48B0 PUSH2 0x4679 JUMP JUMPDEST JUMPDEST PUSH1 0x1 DUP3 ADD SWAP1 POP SWAP2 SWAP1 POP JUMP JUMPDEST PUSH32 0x4552433732313A20696E76616C696420746F6B656E2049440000000000000000 PUSH1 0x0 DUP3 ADD MSTORE POP JUMP JUMPDEST PUSH1 0x0 PUSH2 0x48F2 PUSH1 0x18 DUP4 PUSH2 0x392B JUMP JUMPDEST SWAP2 POP PUSH2 0x48FD DUP3 PUSH2 0x48BC JUMP JUMPDEST PUSH1 0x20 DUP3 ADD SWAP1 POP SWAP2 SWAP1 POP JUMP JUMPDEST PUSH1 0x0 PUSH1 0x20 DUP3 ADD SWAP1 POP DUP2 DUP2 SUB PUSH1 0x0 DUP4 ADD MSTORE PUSH2 0x4921 DUP2 PUSH2 0x48E5 JUMP JUMPDEST SWAP1 POP SWAP2 SWAP1 POP JUMP JUMPDEST PUSH32 0x43616C6C6572206D7573742062652061646D696E000000000000000000000000 PUSH1 0x0 DUP3 ADD MSTORE POP JUMP JUMPDEST PUSH1 0x0 PUSH2 0x495E PUSH1 0x14 DUP4 PUSH2 0x392B JUMP JUMPDEST SWAP2 POP PUSH2 0x4969 DUP3 PUSH2 0x4928 JUMP JUMPDEST PUSH1 0x20 DUP3 ADD SWAP1 POP SWAP2 SWAP1 POP JUMP JUMPDEST PUSH1 0x0 PUSH1 0x20 DUP3 ADD SWAP1 POP DUP2 DUP2 SUB PUSH1 0x0 DUP4 ADD MSTORE PUSH2 0x498D DUP2 PUSH2 0x4951 JUMP JUMPDEST SWAP1 POP SWAP2 SWAP1 POP JUMP JUMPDEST PUSH32 0x6E6F7420617070726F7665642062792076657269666965720000000000000000 PUSH1 0x0 DUP3 ADD MSTORE POP JUMP JUMPDEST PUSH1 0x0 PUSH2 0x49CA PUSH1 0x18 DUP4 PUSH2 0x392B JUMP JUMPDEST SWAP2 POP PUSH2 0x49D5 DUP3 PUSH2 0x4994 JUMP JUMPDEST PUSH1 0x20 DUP3 ADD SWAP1 POP SWAP2 SWAP1 POP JUMP JUMPDEST PUSH1 0x0 PUSH1 0x20 DUP3 ADD SWAP1 POP DUP2 DUP2 SUB PUSH1 0x0 DUP4 ADD MSTORE PUSH2 0x49F9 DUP2 PUSH2 0x49BD JUMP JUMPDEST SWAP1 POP SWAP2 SWAP1 POP JUMP JUMPDEST PUSH1 0x0 PUSH2 0x4A0B DUP3 PUSH2 0x3EA3 JUMP JUMPDEST SWAP2 POP PUSH1 0xFF DUP3 SUB PUSH2 0x4A1E JUMPI PUSH2 0x4A1D PUSH2 0x4679 JUMP JUMPDEST JUMPDEST PUSH1 0x1 DUP3 ADD SWAP1 POP SWAP2 SWAP1 POP JUMP JUMPDEST PUSH32 0x616C726561647920696E697469616C6973656400000000000000000000000000 PUSH1 0x0 DUP3 ADD MSTORE POP JUMP JUMPDEST PUSH1 0x0 PUSH2 0x4A5F PUSH1 0x13 DUP4 PUSH2 0x392B JUMP JUMPDEST SWAP2 POP PUSH2 0x4A6A DUP3 PUSH2 0x4A29 JUMP JUMPDEST PUSH1 0x20 DUP3 ADD SWAP1 POP SWAP2 SWAP1 POP JUMP JUMPDEST PUSH1 0x0 PUSH1 0x20 DUP3 ADD SWAP1 POP DUP2 DUP2 SUB PUSH1 0x0 DUP4 ADD MSTORE PUSH2 0x4A8E DUP2 PUSH2 0x4A52 JUMP JUMPDEST SWAP1 POP SWAP2 SWAP1 POP JUMP JUMPDEST PUSH32 0x4552433732313A2061646472657373207A65726F206973206E6F742061207661 PUSH1 0x0 DUP3 ADD MSTORE PUSH32 0x6C6964206F776E65720000000000000000000000000000000000000000000000 PUSH1 0x20 DUP3 ADD MSTORE POP JUMP JUMPDEST PUSH1 0x0 PUSH2 0x4AF1 PUSH1 0x29 DUP4 PUSH2 0x392B JUMP JUMPDEST SWAP2 POP PUSH2 0x4AFC DUP3 PUSH2 0x4A95 JUMP JUMPDEST PUSH1 0x40 DUP3 ADD SWAP1 POP SWAP2 SWAP1 POP JUMP JUMPDEST PUSH1 0x0 PUSH1 0x20 DUP3 ADD SWAP1 POP DUP2 DUP2 SUB PUSH1 0x0 DUP4 ADD MSTORE PUSH2 0x4B20 DUP2 PUSH2 0x4AE4 JUMP JUMPDEST SWAP1 POP SWAP2 SWAP1 POP JUMP JUMPDEST PUSH32 0x416C72656164792061205369676E61746F727900000000000000000000000000 PUSH1 0x0 DUP3 ADD MSTORE POP JUMP JUMPDEST PUSH1 0x0 PUSH2 0x4B5D PUSH1 0x13 DUP4 PUSH2 0x392B JUMP JUMPDEST SWAP2 POP PUSH2 0x4B68 DUP3 PUSH2 0x4B27 JUMP JUMPDEST PUSH1 0x20 DUP3 ADD SWAP1 POP SWAP2 SWAP1 POP JUMP JUMPDEST PUSH1 0x0 PUSH1 0x20 DUP3 ADD SWAP1 POP DUP2 DUP2 SUB PUSH1 0x0 DUP4 ADD MSTORE PUSH2 0x4B8C DUP2 PUSH2 0x4B50 JUMP JUMPDEST SWAP1 POP SWAP2 SWAP1 POP JUMP JUMPDEST PUSH1 0x0 DUP2 SWAP1 POP DUP2 PUSH1 0x0 MSTORE PUSH1 0x20 PUSH1 0x0 KECCAK256 SWAP1 POP SWAP2 SWAP1 POP JUMP JUMPDEST PUSH1 0x0 PUSH1 0x20 PUSH1 0x1F DUP4 ADD DIV SWAP1 POP SWAP2 SWAP1 POP JUMP JUMPDEST PUSH1 0x0 DUP3 DUP3 SHL SWAP1 POP SWAP3 SWAP2 POP POP JUMP JUMPDEST PUSH1 0x0 PUSH1 0x8 DUP4 MUL PUSH2 0x4BF5 PUSH32 0xFFFFFFFFFFFFFFFFFFFFFFFFFFFFFFFFFFFFFFFFFFFFFFFFFFFFFFFFFFFFFFFF DUP3 PUSH2 0x4BB8 JUMP JUMPDEST PUSH2 0x4BFF DUP7 DUP4 PUSH2 0x4BB8 JUMP JUMPDEST SWAP6 POP DUP1 NOT DUP5 AND SWAP4 POP DUP1 DUP7 AND DUP5 OR SWAP3 POP POP POP SWAP4 SWAP3 POP POP POP JUMP JUMPDEST PUSH1 0x0 PUSH2 0x4C32 PUSH2 0x4C2D PUSH2 0x4C28 DUP5 PUSH2 0x39D2 JUMP JUMPDEST PUSH2 0x410B JUMP JUMPDEST PUSH2 0x39D2 JUMP JUMPDEST SWAP1 POP SWAP2 SWAP1 POP JUMP JUMPDEST PUSH1 0x0 DUP2 SWAP1 POP SWAP2 SWAP1 POP JUMP JUMPDEST PUSH2 0x4C4C DUP4 PUSH2 0x4C17 JUMP JUMPDEST PUSH2 0x4C60 PUSH2 0x4C58 DUP3 PUSH2 0x4C39 JUMP JUMPDEST DUP5 DUP5 SLOAD PUSH2 0x4BC5 JUMP JUMPDEST DUP3 SSTORE POP POP POP POP JUMP JUMPDEST PUSH1 0x0 SWAP1 JUMP JUMPDEST PUSH2 0x4C75 PUSH2 0x4C68 JUMP JUMPDEST PUSH2 0x4C80 DUP2 DUP5 DUP5 PUSH2 0x4C43 JUMP JUMPDEST POP POP POP JUMP JUMPDEST JUMPDEST DUP2 DUP2 LT ISZERO PUSH2 0x4CA4 JUMPI PUSH2 0x4C99 PUSH1 0x0 DUP3 PUSH2 0x4C6D JUMP JUMPDEST PUSH1 0x1 DUP2 ADD SWAP1 POP PUSH2 0x4C86 JUMP JUMPDEST POP POP JUMP JUMPDEST PUSH1 0x1F DUP3 GT ISZERO PUSH2 0x4CE9 JUMPI PUSH2 0x4CBA DUP2 PUSH2 0x4B93 JUMP JUMPDEST PUSH2 0x4CC3 DUP5 PUSH2 0x4BA8 JUMP JUMPDEST DUP2 ADD PUSH1 0x20 DUP6 LT ISZERO PUSH2 0x4CD2 JUMPI DUP2 SWAP1 POP JUMPDEST PUSH2 0x4CE6 PUSH2 0x4CDE DUP6 PUSH2 0x4BA8 JUMP JUMPDEST DUP4 ADD DUP3 PUSH2 0x4C85 JUMP JUMPDEST POP POP JUMPDEST POP POP POP JUMP JUMPDEST PUSH1 0x0 DUP3 DUP3 SHR SWAP1 POP SWAP3 SWAP2 POP POP JUMP JUMPDEST PUSH1 0x0 PUSH2 0x4D0C PUSH1 0x0 NOT DUP5 PUSH1 0x8 MUL PUSH2 0x4CEE JUMP JUMPDEST NOT DUP1 DUP4 AND SWAP2 POP POP SWAP3 SWAP2 POP POP JUMP JUMPDEST PUSH1 0x0 PUSH2 0x4D25 DUP4 DUP4 PUSH2 0x4CFB JUMP JUMPDEST SWAP2 POP DUP3 PUSH1 0x2 MUL DUP3 OR SWAP1 POP SWAP3 SWAP2 POP POP JUMP JUMPDEST PUSH2 0x4D3E DUP3 PUSH2 0x3920 JUMP JUMPDEST PUSH8 0xFFFFFFFFFFFFFFFF DUP2 GT ISZERO PUSH2 0x4D57 JUMPI PUSH2 0x4D56 PUSH2 0x3C5E JUMP JUMPDEST JUMPDEST PUSH2 0x4D61 DUP3 SLOAD PUSH2 0x44B8 JUMP JUMPDEST PUSH2 0x4D6C DUP3 DUP3 DUP6 PUSH2 0x4CA8 JUMP JUMPDEST PUSH1 0x0 PUSH1 0x20 SWAP1 POP PUSH1 0x1F DUP4 GT PUSH1 0x1 DUP2 EQ PUSH2 0x4D9F JUMPI PUSH1 0x0 DUP5 ISZERO PUSH2 0x4D8D JUMPI DUP3 DUP8 ADD MLOAD SWAP1 POP JUMPDEST PUSH2 0x4D97 DUP6 DUP3 PUSH2 0x4D19 JUMP JUMPDEST DUP7 SSTORE POP PUSH2 0x4DFF JUMP JUMPDEST PUSH1 0x1F NOT DUP5 AND PUSH2 0x4DAD DUP7 PUSH2 0x4B93 JUMP JUMPDEST PUSH1 0x0 JUMPDEST DUP3 DUP2 LT ISZERO PUSH2 0x4DD5 JUMPI DUP5 DUP10 ADD MLOAD DUP3 SSTORE PUSH1 0x1 DUP3 ADD SWAP2 POP PUSH1 0x20 DUP6 ADD SWAP5 POP PUSH1 0x20 DUP2 ADD SWAP1 POP PUSH2 0x4DB0 JUMP JUMPDEST DUP7 DUP4 LT ISZERO PUSH2 0x4DF2 JUMPI DUP5 DUP10 ADD MLOAD PUSH2 0x4DEE PUSH1 0x1F DUP10 AND DUP3 PUSH2 0x4CFB JUMP JUMPDEST DUP4 SSTORE POP JUMPDEST PUSH1 0x1 PUSH1 0x2 DUP9 MUL ADD DUP9 SSTORE POP POP POP JUMPDEST POP POP POP POP POP POP JUMP JUMPDEST PUSH1 0x0 PUSH1 0x40 DUP3 ADD SWAP1 POP PUSH2 0x4E1C PUSH1 0x0 DUP4 ADD DUP6 PUSH2 0x3A67 JUMP JUMPDEST PUSH2 0x4E29 PUSH1 0x20 DUP4 ADD DUP5 PUSH2 0x3A67 JUMP JUMPDEST SWAP4 SWAP3 POP POP POP JUMP JUMPDEST PUSH32 0x416C726561647920617070726F76656400000000000000000000000000000000 PUSH1 0x0 DUP3 ADD MSTORE POP JUMP JUMPDEST PUSH1 0x0 PUSH2 0x4E66 PUSH1 0x10 DUP4 PUSH2 0x392B JUMP JUMPDEST SWAP2 POP PUSH2 0x4E71 DUP3 PUSH2 0x4E30 JUMP JUMPDEST PUSH1 0x20 DUP3 ADD SWAP1 POP SWAP2 SWAP1 POP JUMP JUMPDEST PUSH1 0x0 PUSH1 0x20 DUP3 ADD SWAP1 POP DUP2 DUP2 SUB PUSH1 0x0 DUP4 ADD MSTORE PUSH2 0x4E95 DUP2 PUSH2 0x4E59 JUMP JUMPDEST SWAP1 POP SWAP2 SWAP1 POP JUMP JUMPDEST PUSH32 0x6E65656420766572696669636174696F6E206F662061646D696E206669727374 PUSH1 0x0 DUP3 ADD MSTORE PUSH32 0x6C79000000000000000000000000000000000000000000000000000000000000 PUSH1 0x20 DUP3 ADD MSTORE POP JUMP JUMPDEST PUSH1 0x0 PUSH2 0x4EF8 PUSH1 0x22 DUP4 PUSH2 0x392B JUMP JUMPDEST SWAP2 POP PUSH2 0x4F03 DUP3 PUSH2 0x4E9C JUMP JUMPDEST PUSH1 0x40 DUP3 ADD SWAP1 POP SWAP2 SWAP1 POP JUMP JUMPDEST PUSH1 0x0 PUSH1 0x20 DUP3 ADD SWAP1 POP DUP2 DUP2 SUB PUSH1 0x0 DUP4 ADD MSTORE PUSH2 0x4F27 DUP2 PUSH2 0x4EEB JUMP JUMPDEST SWAP1 POP SWAP2 SWAP1 POP JUMP JUMPDEST PUSH1 0x0 PUSH1 0x60 DUP3 ADD SWAP1 POP PUSH2 0x4F43 PUSH1 0x0 DUP4 ADD DUP7 PUSH2 0x3A67 JUMP JUMPDEST PUSH2 0x4F50 PUSH1 0x20 DUP4 ADD DUP6 PUSH2 0x3AFD JUMP JUMPDEST PUSH2 0x4F5D PUSH1 0x40 DUP4 ADD DUP5 PUSH2 0x3A67 JUMP JUMPDEST SWAP5 SWAP4 POP POP POP POP JUMP JUMPDEST PUSH32 0x4E6F742061207665726966696564207265636569766572200000000000000000 PUSH1 0x0 DUP3 ADD MSTORE POP JUMP JUMPDEST PUSH1 0x0 PUSH2 0x4F9B PUSH1 0x18 DUP4 PUSH2 0x392B JUMP JUMPDEST SWAP2 POP PUSH2 0x4FA6 DUP3 PUSH2 0x4F65 JUMP JUMPDEST PUSH1 0x20 DUP3 ADD SWAP1 POP SWAP2 SWAP1 POP JUMP JUMPDEST PUSH1 0x0 PUSH1 0x20 DUP3 ADD SWAP1 POP DUP2 DUP2 SUB PUSH1 0x0 DUP4 ADD MSTORE PUSH2 0x4FCA DUP2 PUSH2 0x4F8E JUMP JUMPDEST SWAP1 POP SWAP2 SWAP1 POP JUMP JUMPDEST PUSH32 0x4E6F7420612076657269666965642073656E6465722000000000000000000000 PUSH1 0x0 DUP3 ADD MSTORE POP JUMP JUMPDEST PUSH1 0x0 PUSH2 0x5007 PUSH1 0x16 DUP4 PUSH2 0x392B JUMP JUMPDEST SWAP2 POP PUSH2 0x5012 DUP3 PUSH2 0x4FD1 JUMP JUMPDEST PUSH1 0x20 DUP3 ADD SWAP1 POP SWAP2 SWAP1 POP JUMP JUMPDEST PUSH1 0x0 PUSH1 0x20 DUP3 ADD SWAP1 POP DUP2 DUP2 SUB PUSH1 0x0 DUP4 ADD MSTORE PUSH2 0x5036 DUP2 PUSH2 0x4FFA JUMP JUMPDEST SWAP1 POP SWAP2 SWAP1 POP JUMP JUMPDEST PUSH32 0x4E6F742061207665726966696564205573657200000000000000000000000000 PUSH1 0x0 DUP3 ADD MSTORE POP JUMP JUMPDEST PUSH1 0x0 PUSH2 0x5073 PUSH1 0x13 DUP4 PUSH2 0x392B JUMP JUMPDEST SWAP2 POP PUSH2 0x507E DUP3 PUSH2 0x503D JUMP JUMPDEST PUSH1 0x20 DUP3 ADD SWAP1 POP SWAP2 SWAP1 POP JUMP JUMPDEST PUSH1 0x0 PUSH1 0x20 DUP3 ADD SWAP1 POP DUP2 DUP2 SUB PUSH1 0x0 DUP4 ADD MSTORE PUSH2 0x50A2 DUP2 PUSH2 0x5066 JUMP JUMPDEST SWAP1 POP SWAP2 SWAP1 POP JUMP JUMPDEST PUSH1 0x0 DUP2 SWAP1 POP SWAP3 SWAP2 POP POP JUMP JUMPDEST PUSH1 0x0 PUSH2 0x50BF DUP3 PUSH2 0x3920 JUMP JUMPDEST PUSH2 0x50C9 DUP2 DUP6 PUSH2 0x50A9 JUMP JUMPDEST SWAP4 POP PUSH2 0x50D9 DUP2 DUP6 PUSH1 0x20 DUP7 ADD PUSH2 0x393C JUMP JUMPDEST DUP1 DUP5 ADD SWAP2 POP POP SWAP3 SWAP2 POP POP JUMP JUMPDEST PUSH1 0x0 PUSH2 0x50F1 DUP3 DUP6 PUSH2 0x50B4 JUMP JUMPDEST SWAP2 POP PUSH2 0x50FD DUP3 DUP5 PUSH2 0x50B4 JUMP JUMPDEST SWAP2 POP DUP2 SWAP1 POP SWAP4 SWAP3 POP POP POP JUMP JUMPDEST PUSH32 0x6E6F742061205369676E61746F72790000000000000000000000000000000000 PUSH1 0x0 DUP3 ADD MSTORE POP JUMP JUMPDEST PUSH1 0x0 PUSH2 0x513F PUSH1 0xF DUP4 PUSH2 0x392B JUMP JUMPDEST SWAP2 POP PUSH2 0x514A DUP3 PUSH2 0x5109 JUMP JUMPDEST PUSH1 0x20 DUP3 ADD SWAP1 POP SWAP2 SWAP1 POP JUMP JUMPDEST PUSH1 0x0 PUSH1 0x20 DUP3 ADD SWAP1 POP DUP2 DUP2 SUB PUSH1 0x0 DUP4 ADD MSTORE PUSH2 0x516E DUP2 PUSH2 0x5132 JUMP JUMPDEST SWAP1 POP SWAP2 SWAP1 POP JUMP JUMPDEST PUSH32 0x43616E27742072656D6F7665204F776E65720000000000000000000000000000 PUSH1 0x0 DUP3 ADD MSTORE POP JUMP JUMPDEST PUSH1 0x0 PUSH2 0x51AB PUSH1 0x12 DUP4 PUSH2 0x392B JUMP JUMPDEST SWAP2 POP PUSH2 0x51B6 DUP3 PUSH2 0x5175 JUMP JUMPDEST PUSH1 0x20 DUP3 ADD SWAP1 POP SWAP2 SWAP1 POP JUMP JUMPDEST PUSH1 0x0 PUSH1 0x20 DUP3 ADD SWAP1 POP DUP2 DUP2 SUB PUSH1 0x0 DUP4 ADD MSTORE PUSH2 0x51DA DUP2 PUSH2 0x519E JUMP JUMPDEST SWAP1 POP SWAP2 SWAP1 POP JUMP JUMPDEST PUSH1 0x0 PUSH2 0x51EC DUP3 PUSH2 0x39D2 JUMP JUMPDEST SWAP2 POP PUSH2 0x51F7 DUP4 PUSH2 0x39D2 JUMP JUMPDEST SWAP3 POP DUP3 DUP3 SUB SWAP1 POP DUP2 DUP2 GT ISZERO PUSH2 0x520F JUMPI PUSH2 0x520E PUSH2 0x4679 JUMP JUMPDEST JUMPDEST SWAP3 SWAP2 POP POP JUMP JUMPDEST PUSH1 0x0 PUSH2 0x5220 DUP3 PUSH2 0x3EA3 JUMP JUMPDEST SWAP2 POP PUSH2 0x522B DUP4 PUSH2 0x3EA3 JUMP JUMPDEST SWAP3 POP DUP3 DUP3 ADD SWAP1 POP PUSH1 0xFF DUP2 GT ISZERO PUSH2 0x5244 JUMPI PUSH2 0x5243 PUSH2 0x4679 JUMP JUMPDEST JUMPDEST SWAP3 SWAP2 POP POP JUMP JUMPDEST PUSH1 0x0 DUP2 SLOAD SWAP1 POP PUSH2 0x5259 DUP2 PUSH2 0x44B8 JUMP JUMPDEST SWAP1 POP SWAP2 SWAP1 POP JUMP JUMPDEST DUP2 DUP2 SUB PUSH2 0x526E JUMPI POP POP PUSH2 0x5346 JUMP JUMPDEST PUSH2 0x5277 DUP3 PUSH2 0x524A JUMP JUMPDEST PUSH8 0xFFFFFFFFFFFFFFFF DUP2 GT ISZERO PUSH2 0x5290 JUMPI PUSH2 0x528F PUSH2 0x3C5E JUMP JUMPDEST JUMPDEST PUSH2 0x529A DUP3 SLOAD PUSH2 0x44B8 JUMP JUMPDEST PUSH2 0x52A5 DUP3 DUP3 DUP6 PUSH2 0x4CA8 JUMP JUMPDEST PUSH1 0x0 PUSH1 0x1F DUP4 GT PUSH1 0x1 DUP2 EQ PUSH2 0x52D4 JUMPI PUSH1 0x0 DUP5 ISZERO PUSH2 0x52C2 JUMPI DUP3 DUP8 ADD SLOAD SWAP1 POP JUMPDEST PUSH2 0x52CC DUP6 DUP3 PUSH2 0x4D19 JUMP JUMPDEST DUP7 SSTORE POP PUSH2 0x533F JUMP JUMPDEST PUSH1 0x1F NOT DUP5 AND PUSH2 0x52E2 DUP8 PUSH2 0x4B93 JUMP JUMPDEST SWAP7 POP PUSH2 0x52ED DUP7 PUSH2 0x4B93 JUMP JUMPDEST PUSH1 0x0 JUMPDEST DUP3 DUP2 LT ISZERO PUSH2 0x5315 JUMPI DUP5 DUP10 ADD SLOAD DUP3 SSTORE PUSH1 0x1 DUP3 ADD SWAP2 POP PUSH1 0x1 DUP6 ADD SWAP5 POP PUSH1 0x20 DUP2 ADD SWAP1 POP PUSH2 0x52F0 JUMP JUMPDEST DUP7 DUP4 LT ISZERO PUSH2 0x5332 JUMPI DUP5 DUP10 ADD SLOAD PUSH2 0x532E PUSH1 0x1F DUP10 AND DUP3 PUSH2 0x4CFB JUMP JUMPDEST DUP4 SSTORE POP JUMPDEST PUSH1 0x1 PUSH1 0x2 DUP9 MUL ADD DUP9 SSTORE POP POP POP JUMPDEST POP POP POP POP POP POP JUMPDEST JUMP JUMPDEST PUSH32 0x4E487B7100000000000000000000000000000000000000000000000000000000 PUSH1 0x0 MSTORE PUSH1 0x31 PUSH1 0x4 MSTORE PUSH1 0x24 PUSH1 0x0 REVERT JUMPDEST PUSH32 0x496E697469616C697A61626C653A20636F6E747261637420697320616C726561 PUSH1 0x0 DUP3 ADD MSTORE PUSH32 0x647920696E697469616C697A6564000000000000000000000000000000000000 PUSH1 0x20 DUP3 ADD MSTORE POP JUMP JUMPDEST PUSH1 0x0 PUSH2 0x53D3 PUSH1 0x2E DUP4 PUSH2 0x392B JUMP JUMPDEST SWAP2 POP PUSH2 0x53DE DUP3 PUSH2 0x5377 JUMP JUMPDEST PUSH1 0x40 DUP3 ADD SWAP1 POP SWAP2 SWAP1 POP JUMP JUMPDEST PUSH1 0x0 PUSH1 0x20 DUP3 ADD SWAP1 POP DUP2 DUP2 SUB PUSH1 0x0 DUP4 ADD MSTORE PUSH2 0x5402 DUP2 PUSH2 0x53C6 JUMP JUMPDEST SWAP1 POP SWAP2 SWAP1 POP JUMP JUMPDEST PUSH1 0x0 DUP2 SWAP1 POP SWAP2 SWAP1 POP JUMP JUMPDEST PUSH1 0x0 PUSH2 0x542E PUSH2 0x5429 PUSH2 0x5424 DUP5 PUSH2 0x5409 JUMP JUMPDEST PUSH2 0x410B JUMP JUMPDEST PUSH2 0x3EA3 JUMP JUMPDEST SWAP1 POP SWAP2 SWAP1 POP JUMP JUMPDEST PUSH2 0x543E DUP2 PUSH2 0x5413 JUMP JUMPDEST DUP3 MSTORE POP POP JUMP JUMPDEST PUSH1 0x0 PUSH1 0x20 DUP3 ADD SWAP1 POP PUSH2 0x5459 PUSH1 0x0 DUP4 ADD DUP5 PUSH2 0x5435 JUMP JUMPDEST SWAP3 SWAP2 POP POP JUMP JUMPDEST PUSH32 0x4552433732313A207472616E736665722066726F6D20696E636F727265637420 PUSH1 0x0 DUP3 ADD MSTORE PUSH32 0x6F776E6572000000000000000000000000000000000000000000000000000000 PUSH1 0x20 DUP3 ADD MSTORE POP JUMP JUMPDEST PUSH1 0x0 PUSH2 0x54BB PUSH1 0x25 DUP4 PUSH2 0x392B JUMP JUMPDEST SWAP2 POP PUSH2 0x54C6 DUP3 PUSH2 0x545F JUMP JUMPDEST PUSH1 0x40 DUP3 ADD SWAP1 POP SWAP2 SWAP1 POP JUMP JUMPDEST PUSH1 0x0 PUSH1 0x20 DUP3 ADD SWAP1 POP DUP2 DUP2 SUB PUSH1 0x0 DUP4 ADD MSTORE PUSH2 0x54EA DUP2 PUSH2 0x54AE JUMP JUMPDEST SWAP1 POP SWAP2 SWAP1 POP JUMP JUMPDEST PUSH32 0x4552433732313A207472616E7366657220746F20746865207A65726F20616464 PUSH1 0x0 DUP3 ADD MSTORE PUSH32 0x7265737300000000000000000000000000000000000000000000000000000000 PUSH1 0x20 DUP3 ADD MSTORE POP JUMP JUMPDEST PUSH1 0x0 PUSH2 0x554D PUSH1 0x24 DUP4 PUSH2 0x392B JUMP JUMPDEST SWAP2 POP PUSH2 0x5558 DUP3 PUSH2 0x54F1 JUMP JUMPDEST PUSH1 0x40 DUP3 ADD SWAP1 POP SWAP2 SWAP1 POP JUMP JUMPDEST PUSH1 0x0 PUSH1 0x20 DUP3 ADD SWAP1 POP DUP2 DUP2 SUB PUSH1 0x0 DUP4 ADD MSTORE PUSH2 0x557C DUP2 PUSH2 0x5540 JUMP JUMPDEST SWAP1 POP SWAP2 SWAP1 POP JUMP JUMPDEST PUSH32 0x45524337323155524953746F726167653A2055524920736574206F66206E6F6E PUSH1 0x0 DUP3 ADD MSTORE PUSH32 0x6578697374656E7420746F6B656E000000000000000000000000000000000000 PUSH1 0x20 DUP3 ADD MSTORE POP JUMP JUMPDEST PUSH1 0x0 PUSH2 0x55DF PUSH1 0x2E DUP4 PUSH2 0x392B JUMP JUMPDEST SWAP2 POP PUSH2 0x55EA DUP3 PUSH2 0x5583 JUMP JUMPDEST PUSH1 0x40 DUP3 ADD SWAP1 POP SWAP2 SWAP1 POP JUMP JUMPDEST PUSH1 0x0 PUSH1 0x20 DUP3 ADD SWAP1 POP DUP2 DUP2 SUB PUSH1 0x0 DUP4 ADD MSTORE PUSH2 0x560E DUP2 PUSH2 0x55D2 JUMP JUMPDEST SWAP1 POP SWAP2 SWAP1 POP JUMP JUMPDEST PUSH32 0x4552433732313A20617070726F766520746F2063616C6C657200000000000000 PUSH1 0x0 DUP3 ADD MSTORE POP JUMP JUMPDEST PUSH1 0x0 PUSH2 0x564B PUSH1 0x19 DUP4 PUSH2 0x392B JUMP JUMPDEST SWAP2 POP PUSH2 0x5656 DUP3 PUSH2 0x5615 JUMP JUMPDEST PUSH1 0x20 DUP3 ADD SWAP1 POP SWAP2 SWAP1 POP JUMP JUMPDEST PUSH1 0x0 PUSH1 0x20 DUP3 ADD SWAP1 POP DUP2 DUP2 SUB PUSH1 0x0 DUP4 ADD MSTORE PUSH2 0x567A DUP2 PUSH2 0x563E JUMP JUMPDEST SWAP1 POP SWAP2 SWAP1 POP JUMP JUMPDEST PUSH32 0x496E697469616C697A61626C653A20636F6E7472616374206973206E6F742069 PUSH1 0x0 DUP3 ADD MSTORE PUSH32 0x6E697469616C697A696E67000000000000000000000000000000000000000000 PUSH1 0x20 DUP3 ADD MSTORE POP JUMP JUMPDEST PUSH1 0x0 PUSH2 0x56DD PUSH1 0x2B DUP4 PUSH2 0x392B JUMP JUMPDEST SWAP2 POP PUSH2 0x56E8 DUP3 PUSH2 0x5681 JUMP JUMPDEST PUSH1 0x40 DUP3 ADD SWAP1 POP SWAP2 SWAP1 POP JUMP JUMPDEST PUSH1 0x0 PUSH1 0x20 DUP3 ADD SWAP1 POP DUP2 DUP2 SUB PUSH1 0x0 DUP4 ADD MSTORE PUSH2 0x570C DUP2 PUSH2 0x56D0 JUMP JUMPDEST SWAP1 POP SWAP2 SWAP1 POP JUMP JUMPDEST PUSH32 0x4552433732313A207472616E7366657220746F206E6F6E204552433732315265 PUSH1 0x0 DUP3 ADD MSTORE PUSH32 0x63656976657220696D706C656D656E7465720000000000000000000000000000 PUSH1 0x20 DUP3 ADD MSTORE POP JUMP JUMPDEST PUSH1 0x0 PUSH2 0x576F PUSH1 0x32 DUP4 PUSH2 0x392B JUMP JUMPDEST SWAP2 POP PUSH2 0x577A DUP3 PUSH2 0x5713 JUMP JUMPDEST PUSH1 0x40 DUP3 ADD SWAP1 POP SWAP2 SWAP1 POP JUMP JUMPDEST PUSH1 0x0 PUSH1 0x20 DUP3 ADD SWAP1 POP DUP2 DUP2 SUB PUSH1 0x0 DUP4 ADD MSTORE PUSH2 0x579E DUP2 PUSH2 0x5762 JUMP JUMPDEST SWAP1 POP SWAP2 SWAP1 POP JUMP JUMPDEST PUSH32 0x4E487B7100000000000000000000000000000000000000000000000000000000 PUSH1 0x0 MSTORE PUSH1 0x12 PUSH1 0x4 MSTORE PUSH1 0x24 PUSH1 0x0 REVERT JUMPDEST PUSH1 0x0 DUP2 MLOAD SWAP1 POP SWAP2 SWAP1 POP JUMP JUMPDEST PUSH1 0x0 DUP3 DUP3 MSTORE PUSH1 0x20 DUP3 ADD SWAP1 POP SWAP3 SWAP2 POP POP JUMP JUMPDEST PUSH1 0x0 PUSH2 0x57FB DUP3 PUSH2 0x57D4 JUMP JUMPDEST PUSH2 0x5805 DUP2 DUP6 PUSH2 0x57DF JUMP JUMPDEST SWAP4 POP PUSH2 0x5815 DUP2 DUP6 PUSH1 0x20 DUP7 ADD PUSH2 0x393C JUMP JUMPDEST PUSH2 0x581E DUP2 PUSH2 0x3966 JUMP JUMPDEST DUP5 ADD SWAP2 POP POP SWAP3 SWAP2 POP POP JUMP JUMPDEST PUSH1 0x0 PUSH1 0x80 DUP3 ADD SWAP1 POP PUSH2 0x583E PUSH1 0x0 DUP4 ADD DUP8 PUSH2 0x3A67 JUMP JUMPDEST PUSH2 0x584B PUSH1 0x20 DUP4 ADD DUP7 PUSH2 0x3A67 JUMP JUMPDEST PUSH2 0x5858 PUSH1 0x40 DUP4 ADD DUP6 PUSH2 0x3AFD JUMP JUMPDEST DUP2 DUP2 SUB PUSH1 0x60 DUP4 ADD MSTORE PUSH2 0x586A DUP2 DUP5 PUSH2 0x57F0 JUMP JUMPDEST SWAP1 POP SWAP6 SWAP5 POP POP POP POP POP JUMP JUMPDEST PUSH1 0x0 DUP2 MLOAD SWAP1 POP PUSH2 0x5884 DUP2 PUSH2 0x3891 JUMP JUMPDEST SWAP3 SWAP2 POP POP JUMP JUMPDEST PUSH1 0x0 PUSH1 0x20 DUP3 DUP5 SUB SLT ISZERO PUSH2 0x58A0 JUMPI PUSH2 0x589F PUSH2 0x385B JUMP JUMPDEST JUMPDEST PUSH1 0x0 PUSH2 0x58AE DUP5 DUP3 DUP6 ADD PUSH2 0x5875 JUMP JUMPDEST SWAP2 POP POP SWAP3 SWAP2 POP POP JUMP JUMPDEST PUSH32 0x4552433732313A206D696E7420746F20746865207A65726F2061646472657373 PUSH1 0x0 DUP3 ADD MSTORE POP JUMP JUMPDEST PUSH1 0x0 PUSH2 0x58ED PUSH1 0x20 DUP4 PUSH2 0x392B JUMP JUMPDEST SWAP2 POP PUSH2 0x58F8 DUP3 PUSH2 0x58B7 JUMP JUMPDEST PUSH1 0x20 DUP3 ADD SWAP1 POP SWAP2 SWAP1 POP JUMP JUMPDEST PUSH1 0x0 PUSH1 0x20 DUP3 ADD SWAP1 POP DUP2 DUP2 SUB PUSH1 0x0 DUP4 ADD MSTORE PUSH2 0x591C DUP2 PUSH2 0x58E0 JUMP JUMPDEST SWAP1 POP SWAP2 SWAP1 POP JUMP JUMPDEST PUSH32 0x4552433732313A20746F6B656E20616C7265616479206D696E74656400000000 PUSH1 0x0 DUP3 ADD MSTORE POP JUMP JUMPDEST PUSH1 0x0 PUSH2 0x5959 PUSH1 0x1C DUP4 PUSH2 0x392B JUMP JUMPDEST SWAP2 POP PUSH2 0x5964 DUP3 PUSH2 0x5923 JUMP JUMPDEST PUSH1 0x20 DUP3 ADD SWAP1 POP SWAP2 SWAP1 POP JUMP JUMPDEST PUSH1 0x0 PUSH1 0x20 DUP3 ADD SWAP1 POP DUP2 DUP2 SUB PUSH1 0x0 DUP4 ADD MSTORE PUSH2 0x5988 DUP2 PUSH2 0x594C JUMP JUMPDEST SWAP1 POP SWAP2 SWAP1 POP JUMP INVALID LOG2 PUSH5 0x6970667358 0x22 SLT KECCAK256 DUP8 DUP7 NUMBER DUP9 0xF 0x24 DUP4 0xA6 0x26 PUSH25 0x8F6F94CE5BA978A7A383D1E157300270662EC5AE6AA064736F PUSH13 0x63430008110033000000000000 "
		},
		"gasEstimates": {
			"creation": {
				"codeDepositCost": "4596200",
				"executionCost": "5374",
				"totalCost": "4601574"
			},
			"external": {
				"AssetCount()": "2497",
				"BatchMint(uint256[],string[])": "infinite",
				"ID_FactoryAddress()": "infinite",
				"SetSignatory(address,address,string)": "infinite",
				"addAsset(uint256)": "infinite",
				"admin()": "2624",
				"approvalPerAsset(uint256)": "infinite",
				"approve(address,uint256)": "infinite",
				"approveNftByVerifier(uint256)": "infinite",
				"balanceOf(address)": "2987",
				"batchApproveByVerifier(uint256[])": "infinite",
				"getApproved(uint256)": "5323",
				"initialize(string,string,address,address,address,address)": "infinite",
				"isApprovedForAll(address,address)": "infinite",
				"isNftApprovedByAllVerifier(uint256)": "infinite",
				"isSignatoryExists(address)": "infinite",
				"isVerifiedUser(address)": "infinite",
				"name()": "infinite",
				"owner()": "2582",
				"ownerOf(uint256)": "3111",
				"removeSignatory(address)": "infinite",
				"safeMint(uint256,string)": "infinite",
				"safeTransferFrom(address,address,uint256)": "infinite",
				"safeTransferFrom(address,address,uint256,bytes)": "infinite",
				"setApprovalForAll(address,bool)": "infinite",
				"setVault(address)": "26982",
				"supportsInterface(bytes4)": "915",
				"symbol()": "infinite",
				"tokenURI(uint256)": "infinite",
				"transferFrom(address,address,uint256)": "infinite",
				"updateNftMetadata(uint256,string)": "infinite",
				"vaultAddress()": "2582"
			}
		},
		"methodIdentifiers": {
			"AssetCount()": "1f22dac8",
			"BatchMint(uint256[],string[])": "736bbd5e",
			"ID_FactoryAddress()": "95d5a9a3",
			"SetSignatory(address,address,string)": "b52ec4fe",
			"addAsset(uint256)": "0b71d256",
			"admin()": "f851a440",
			"approvalPerAsset(uint256)": "64dd6d01",
			"approve(address,uint256)": "095ea7b3",
			"approveNftByVerifier(uint256)": "b882c4b5",
			"balanceOf(address)": "70a08231",
			"batchApproveByVerifier(uint256[])": "5c57ba6f",
			"getApproved(uint256)": "081812fc",
			"initialize(string,string,address,address,address,address)": "e56f2fe4",
			"isApprovedForAll(address,address)": "e985e9c5",
			"isNftApprovedByAllVerifier(uint256)": "aaf6c5a4",
			"isSignatoryExists(address)": "93e7caae",
			"isVerifiedUser(address)": "3da1c0c3",
			"name()": "06fdde03",
			"owner()": "8da5cb5b",
			"ownerOf(uint256)": "6352211e",
			"removeSignatory(address)": "d5ab92fd",
			"safeMint(uint256,string)": "bb96e082",
			"safeTransferFrom(address,address,uint256)": "42842e0e",
			"safeTransferFrom(address,address,uint256,bytes)": "b88d4fde",
			"setApprovalForAll(address,bool)": "a22cb465",
			"setVault(address)": "6817031b",
			"supportsInterface(bytes4)": "01ffc9a7",
			"symbol()": "95d89b41",
			"tokenURI(uint256)": "c87b56dd",
			"transferFrom(address,address,uint256)": "23b872dd",
			"updateNftMetadata(uint256,string)": "646aae56",
			"vaultAddress()": "430bf08a"
		}
	},
	"abi": [
		{
			"anonymous": false,
			"inputs": [
				{
					"indexed": true,
					"internalType": "address",
					"name": "owner",
					"type": "address"
				},
				{
					"indexed": true,
					"internalType": "address",
					"name": "approved",
					"type": "address"
				},
				{
					"indexed": true,
					"internalType": "uint256",
					"name": "tokenId",
					"type": "uint256"
				}
			],
			"name": "Approval",
			"type": "event"
		},
		{
			"anonymous": false,
			"inputs": [
				{
					"indexed": true,
					"internalType": "address",
					"name": "owner",
					"type": "address"
				},
				{
					"indexed": true,
					"internalType": "address",
					"name": "operator",
					"type": "address"
				},
				{
					"indexed": false,
					"internalType": "bool",
					"name": "approved",
					"type": "bool"
				}
			],
			"name": "ApprovalForAll",
			"type": "event"
		},
		{
			"anonymous": false,
			"inputs": [
				{
					"indexed": false,
					"internalType": "uint256",
					"name": "_fromTokenId",
					"type": "uint256"
				},
				{
					"indexed": false,
					"internalType": "uint256",
					"name": "_toTokenId",
					"type": "uint256"
				}
			],
			"name": "BatchMetadataUpdate",
			"type": "event"
		},
		{
			"anonymous": false,
			"inputs": [
				{
					"indexed": false,
					"internalType": "uint8",
					"name": "version",
					"type": "uint8"
				}
			],
			"name": "Initialized",
			"type": "event"
		},
		{
			"anonymous": false,
			"inputs": [
				{
					"indexed": false,
					"internalType": "uint256",
					"name": "_tokenId",
					"type": "uint256"
				}
			],
			"name": "MetadataUpdate",
			"type": "event"
		},
		{
			"anonymous": false,
			"inputs": [
				{
					"indexed": false,
					"internalType": "address",
					"name": "NftAddress",
					"type": "address"
				},
				{
					"indexed": false,
					"internalType": "address",
					"name": "signatory",
					"type": "address"
				}
			],
			"name": "SignatoryAdded",
			"type": "event"
		},
		{
			"anonymous": false,
			"inputs": [
				{
					"indexed": true,
					"internalType": "address",
					"name": "from",
					"type": "address"
				},
				{
					"indexed": true,
					"internalType": "address",
					"name": "to",
					"type": "address"
				},
				{
					"indexed": true,
					"internalType": "uint256",
					"name": "tokenId",
					"type": "uint256"
				}
			],
			"name": "Transfer",
			"type": "event"
		},
		{
			"anonymous": false,
			"inputs": [
				{
					"indexed": false,
					"internalType": "address",
					"name": "nftAddress",
					"type": "address"
				},
				{
					"indexed": false,
					"internalType": "uint256",
					"name": "AssetCount",
					"type": "uint256"
				}
			],
			"name": "assetAdded",
			"type": "event"
		},
		{
			"anonymous": false,
			"inputs": [
				{
					"indexed": false,
					"internalType": "address",
					"name": "nftAddress",
					"type": "address"
				},
				{
					"indexed": false,
					"internalType": "uint256",
					"name": "AssetId",
					"type": "uint256"
				},
				{
					"indexed": false,
					"internalType": "address",
					"name": "signatoryAddress",
					"type": "address"
				}
			],
			"name": "assetApprovalBySignatory",
			"type": "event"
		},
		{
			"anonymous": false,
			"inputs": [
				{
					"indexed": false,
					"internalType": "address",
					"name": "NftAddress",
					"type": "address"
				},
				{
					"indexed": false,
					"internalType": "address",
					"name": "signatory",
					"type": "address"
				}
			],
			"name": "removedSignatory",
			"type": "event"
		},
		{
			"inputs": [],
			"name": "AssetCount",
			"outputs": [
				{
					"internalType": "uint256",
					"name": "",
					"type": "uint256"
				}
			],
			"stateMutability": "view",
			"type": "function"
		},
		{
			"inputs": [
				{
					"internalType": "uint256[]",
					"name": "ArrayOfTokenIDs",
					"type": "uint256[]"
				},
				{
					"internalType": "string[]",
					"name": "URIs",
					"type": "string[]"
				}
			],
			"name": "BatchMint",
			"outputs": [],
			"stateMutability": "nonpayable",
			"type": "function"
		},
		{
			"inputs": [],
			"name": "ID_FactoryAddress",
			"outputs": [
				{
					"internalType": "contract IDfactory",
					"name": "",
					"type": "address"
				}
			],
			"stateMutability": "view",
			"type": "function"
		},
		{
			"inputs": [
				{
					"internalType": "address",
					"name": "_Signatory",
					"type": "address"
				},
				{
					"internalType": "address",
					"name": "_certfierID",
					"type": "address"
				},
				{
					"internalType": "string",
					"name": "role",
					"type": "string"
				}
			],
			"name": "SetSignatory",
			"outputs": [],
			"stateMutability": "nonpayable",
			"type": "function"
		},
		{
			"inputs": [
				{
					"internalType": "uint256",
					"name": "AddAssetsCount",
					"type": "uint256"
				}
			],
			"name": "addAsset",
			"outputs": [],
			"stateMutability": "nonpayable",
			"type": "function"
		},
		{
			"inputs": [],
			"name": "admin",
			"outputs": [
				{
					"internalType": "address",
					"name": "",
					"type": "address"
				}
			],
			"stateMutability": "view",
			"type": "function"
		},
		{
			"inputs": [
				{
					"internalType": "uint256",
					"name": "assetId",
					"type": "uint256"
				}
			],
			"name": "approvalPerAsset",
			"outputs": [
				{
					"internalType": "address[]",
					"name": "",
					"type": "address[]"
				},
				{
					"internalType": "uint8",
					"name": "",
					"type": "uint8"
				}
			],
			"stateMutability": "view",
			"type": "function"
		},
		{
			"inputs": [
				{
					"internalType": "address",
					"name": "to",
					"type": "address"
				},
				{
					"internalType": "uint256",
					"name": "tokenId",
					"type": "uint256"
				}
			],
			"name": "approve",
			"outputs": [],
			"stateMutability": "nonpayable",
			"type": "function"
		},
		{
			"inputs": [
				{
					"internalType": "uint256",
					"name": "assetid",
					"type": "uint256"
				}
			],
			"name": "approveNftByVerifier",
			"outputs": [],
			"stateMutability": "nonpayable",
			"type": "function"
		},
		{
			"inputs": [
				{
					"internalType": "address",
					"name": "owner",
					"type": "address"
				}
			],
			"name": "balanceOf",
			"outputs": [
				{
					"internalType": "uint256",
					"name": "",
					"type": "uint256"
				}
			],
			"stateMutability": "view",
			"type": "function"
		},
		{
			"inputs": [
				{
					"internalType": "uint256[]",
					"name": "assetIds",
					"type": "uint256[]"
				}
			],
			"name": "batchApproveByVerifier",
			"outputs": [],
			"stateMutability": "nonpayable",
			"type": "function"
		},
		{
			"inputs": [
				{
					"internalType": "uint256",
					"name": "tokenId",
					"type": "uint256"
				}
			],
			"name": "getApproved",
			"outputs": [
				{
					"internalType": "address",
					"name": "",
					"type": "address"
				}
			],
			"stateMutability": "view",
			"type": "function"
		},
		{
			"inputs": [
				{
					"internalType": "string",
					"name": "name",
					"type": "string"
				},
				{
					"internalType": "string",
					"name": "symbol",
					"type": "string"
				},
				{
					"internalType": "address",
					"name": "IDFactoryAddress",
					"type": "address"
				},
				{
					"internalType": "address",
					"name": "_Admin",
					"type": "address"
				},
				{
					"internalType": "address",
					"name": "_Owner",
					"type": "address"
				},
				{
					"internalType": "address",
					"name": "_nftfactoryaddress",
					"type": "address"
				}
			],
			"name": "initialize",
			"outputs": [],
			"stateMutability": "nonpayable",
			"type": "function"
		},
		{
			"inputs": [
				{
					"internalType": "address",
					"name": "owner",
					"type": "address"
				},
				{
					"internalType": "address",
					"name": "operator",
					"type": "address"
				}
			],
			"name": "isApprovedForAll",
			"outputs": [
				{
					"internalType": "bool",
					"name": "",
					"type": "bool"
				}
			],
			"stateMutability": "view",
			"type": "function"
		},
		{
			"inputs": [
				{
					"internalType": "uint256",
					"name": "assetid",
					"type": "uint256"
				}
			],
			"name": "isNftApprovedByAllVerifier",
			"outputs": [
				{
					"internalType": "bool",
					"name": "",
					"type": "bool"
				}
			],
			"stateMutability": "view",
			"type": "function"
		},
		{
			"inputs": [
				{
					"internalType": "address",
					"name": "_Signatory",
					"type": "address"
				}
			],
			"name": "isSignatoryExists",
			"outputs": [
				{
					"internalType": "bool",
					"name": "",
					"type": "bool"
				}
			],
			"stateMutability": "view",
			"type": "function"
		},
		{
			"inputs": [
				{
					"internalType": "address",
					"name": "userWallet",
					"type": "address"
				}
			],
			"name": "isVerifiedUser",
			"outputs": [
				{
					"internalType": "bool",
					"name": "",
					"type": "bool"
				}
			],
			"stateMutability": "view",
			"type": "function"
		},
		{
			"inputs": [],
			"name": "name",
			"outputs": [
				{
					"internalType": "string",
					"name": "",
					"type": "string"
				}
			],
			"stateMutability": "view",
			"type": "function"
		},
		{
			"inputs": [],
			"name": "owner",
			"outputs": [
				{
					"internalType": "address",
					"name": "",
					"type": "address"
				}
			],
			"stateMutability": "view",
			"type": "function"
		},
		{
			"inputs": [
				{
					"internalType": "uint256",
					"name": "tokenId",
					"type": "uint256"
				}
			],
			"name": "ownerOf",
			"outputs": [
				{
					"internalType": "address",
					"name": "",
					"type": "address"
				}
			],
			"stateMutability": "view",
			"type": "function"
		},
		{
			"inputs": [
				{
					"internalType": "address",
					"name": "_Signatory",
					"type": "address"
				}
			],
			"name": "removeSignatory",
			"outputs": [],
			"stateMutability": "nonpayable",
			"type": "function"
		},
		{
			"inputs": [
				{
					"internalType": "uint256",
					"name": "assetid",
					"type": "uint256"
				},
				{
					"internalType": "string",
					"name": "uri",
					"type": "string"
				}
			],
			"name": "safeMint",
			"outputs": [],
			"stateMutability": "nonpayable",
			"type": "function"
		},
		{
			"inputs": [
				{
					"internalType": "address",
					"name": "from",
					"type": "address"
				},
				{
					"internalType": "address",
					"name": "to",
					"type": "address"
				},
				{
					"internalType": "uint256",
					"name": "tokenId",
					"type": "uint256"
				}
			],
			"name": "safeTransferFrom",
			"outputs": [],
			"stateMutability": "nonpayable",
			"type": "function"
		},
		{
			"inputs": [
				{
					"internalType": "address",
					"name": "from",
					"type": "address"
				},
				{
					"internalType": "address",
					"name": "to",
					"type": "address"
				},
				{
					"internalType": "uint256",
					"name": "nftId",
					"type": "uint256"
				},
				{
					"internalType": "bytes",
					"name": "data",
					"type": "bytes"
				}
			],
			"name": "safeTransferFrom",
			"outputs": [],
			"stateMutability": "nonpayable",
			"type": "function"
		},
		{
			"inputs": [
				{
					"internalType": "address",
					"name": "operator",
					"type": "address"
				},
				{
					"internalType": "bool",
					"name": "approved",
					"type": "bool"
				}
			],
			"name": "setApprovalForAll",
			"outputs": [],
			"stateMutability": "nonpayable",
			"type": "function"
		},
		{
			"inputs": [
				{
					"internalType": "address",
					"name": "_vaultAddress",
					"type": "address"
				}
			],
			"name": "setVault",
			"outputs": [],
			"stateMutability": "nonpayable",
			"type": "function"
		},
		{
			"inputs": [
				{
					"internalType": "bytes4",
					"name": "interfaceId",
					"type": "bytes4"
				}
			],
			"name": "supportsInterface",
			"outputs": [
				{
					"internalType": "bool",
					"name": "",
					"type": "bool"
				}
			],
			"stateMutability": "view",
			"type": "function"
		},
		{
			"inputs": [],
			"name": "symbol",
			"outputs": [
				{
					"internalType": "string",
					"name": "",
					"type": "string"
				}
			],
			"stateMutability": "view",
			"type": "function"
		},
		{
			"inputs": [
				{
					"internalType": "uint256",
					"name": "tokenId",
					"type": "uint256"
				}
			],
			"name": "tokenURI",
			"outputs": [
				{
					"internalType": "string",
					"name": "",
					"type": "string"
				}
			],
			"stateMutability": "view",
			"type": "function"
		},
		{
			"inputs": [
				{
					"internalType": "address",
					"name": "from",
					"type": "address"
				},
				{
					"internalType": "address",
					"name": "to",
					"type": "address"
				},
				{
					"internalType": "uint256",
					"name": "tokenId",
					"type": "uint256"
				}
			],
			"name": "transferFrom",
			"outputs": [],
			"stateMutability": "nonpayable",
			"type": "function"
		},
		{
			"inputs": [
				{
					"internalType": "uint256",
					"name": "nftID",
					"type": "uint256"
				},
				{
					"internalType": "string",
					"name": "metadataLink",
					"type": "string"
				}
			],
			"name": "updateNftMetadata",
			"outputs": [],
			"stateMutability": "nonpayable",
			"type": "function"
		},
		{
			"inputs": [],
			"name": "vaultAddress",
			"outputs": [
				{
					"internalType": "address",
					"name": "",
					"type": "address"
				}
			],
			"stateMutability": "view",
			"type": "function"
		}
	]
}