{
	"data": {
		"bytecode": {
			"linkReferences": {},
			"object": "608060405234801561001057600080fd5b5061162a806100206000396000f3fe60806040523480156200001157600080fd5b5060043610620000525760003560e01c806334a860e414620000575780634fba460714620000815780635b3a723214620000a75780636cae9e3b14620000d3575b600080fd5b6200006e6200006836600462000598565b6200013e565b6040519081526020015b60405180910390f35b620000986200009236600462000666565b62000180565b604051620000789190620007d6565b620000be620000b836600462000894565b62000420565b604051620000789796959493929190620008ae565b62000119620000e436600462000598565b60036020908152600092835260408084209091529082529020805460018201546002909201549091906001600160a01b031683565b6040805193845260208401929092526001600160a01b03169082015260600162000078565b6001546000818152600260205260408120600701805491928592811062000169576200016962000910565b600091825260209091206003909102015592915050565b620001db60405180610100016040528060006001600160a01b0316815260200160006001600160a01b031681526020016060815260200160608152602001600081526020016000815260200160008152602001606081525090565b6000878787604051620001ee906200058a565b620001fc9392919062000926565b604051809103906000f08015801562000219573d6000803e3d6000fd5b50905060008585856040516200022f906200058a565b6200023d9392919062000926565b604051809103906000f0801580156200025a573d6000803e3d6000fd5b506001805491925060006200026f8362000960565b909155505060018054600090815260026020819052604080832080546001600160a01b038089166001600160a01b0319928316179092558554855282852086018054928816929091169190911790559254825291902001620002d28a8262000a17565b506001546000908152600260205260409020600301620002f3878262000a17565b506001546000908152600260205260409081902042600690910155516370a0823160e01b81523060048201526001600160a01b038316906370a0823190602401602060405180830381865afa15801562000351573d6000803e3d6000fd5b505050506040513d601f19601f8201168201806040525081019062000377919062000ae4565b60015460009081526002602052604090819020600490810192909255516370a0823160e01b815230918101919091526001600160a01b038216906370a0823190602401602060405180830381865afa158015620003d8573d6000803e3d6000fd5b505050506040513d601f19601f82011682018060405250810190620003fe919062000ae4565b6001546000908152600260205260409020600501555090979650505050505050565b60026020819052600091825260409091208054600182015492820180546001600160a01b03928316949092169291620004599062000988565b80601f0160208091040260200160405190810160405280929190818152602001828054620004879062000988565b8015620004d85780601f10620004ac57610100808354040283529160200191620004d8565b820191906000526020600020905b815481529060010190602001808311620004ba57829003601f168201915b505050505090806003018054620004ef9062000988565b80601f01602080910402602001604051908101604052809291908181526020018280546200051d9062000988565b80156200056e5780601f1062000542576101008083540402835291602001916200056e565b820191906000526020600020905b8154815290600101906020018083116200055057829003601f168201915b5050505050908060040154908060050154908060060154905087565b610af68062000aff83390190565b60008060408385031215620005ac57600080fd5b50508035926020909101359150565b634e487b7160e01b600052604160045260246000fd5b600082601f830112620005e357600080fd5b813567ffffffffffffffff80821115620006015762000601620005bb565b604051601f8301601f19908116603f011681019082821181831017156200062c576200062c620005bb565b816040528381528660208588010111156200064657600080fd5b836020870160208301376000602085830101528094505050505092915050565b60008060008060008060c087890312156200068057600080fd5b863567ffffffffffffffff808211156200069957600080fd5b620006a78a838b01620005d1565b97506020890135915080821115620006be57600080fd5b620006cc8a838b01620005d1565b9650604089013595506060890135915080821115620006ea57600080fd5b620006f88a838b01620005d1565b945060808901359150808211156200070f57600080fd5b506200071e89828a01620005d1565b92505060a087013590509295509295509295565b6000815180845260005b818110156200075a576020818501810151868301820152016200073c565b506000602082860101526020601f19601f83011685010191505092915050565b600081518084526020808501945080840160005b83811015620007cb5781518051885283810151848901526040908101516001600160a01b031690880152606090960195908201906001016200078e565b509495945050505050565b60208152620007f16020820183516001600160a01b03169052565b600060208301516200080e60408401826001600160a01b03169052565b5060408301516101008060608501526200082d61012085018362000732565b91506060850151601f19808685030160808701526200084d848362000732565b9350608087015160a087015260a087015160c087015260c087015160e087015260e08701519150808685030183870152506200088a83826200077a565b9695505050505050565b600060208284031215620008a757600080fd5b5035919050565b6001600160a01b0388811682528716602082015260e060408201819052600090620008dc9083018862000732565b8281036060840152620008f0818862000732565b6080840196909652505060a081019290925260c090910152949350505050565b634e487b7160e01b600052603260045260246000fd5b6060815260006200093b606083018662000732565b82810360208401526200094f818662000732565b915050826040830152949350505050565b6000600182016200098157634e487b7160e01b600052601160045260246000fd5b5060010190565b600181811c908216806200099d57607f821691505b602082108103620009be57634e487b7160e01b600052602260045260246000fd5b50919050565b601f82111562000a1257600081815260208120601f850160051c81016020861015620009ed5750805b601f850160051c820191505b8181101562000a0e57828155600101620009f9565b5050505b505050565b815167ffffffffffffffff81111562000a345762000a34620005bb565b62000a4c8162000a45845462000988565b84620009c4565b602080601f83116001811462000a84576000841562000a6b5750858301515b600019600386901b1c1916600185901b17855562000a0e565b600085815260208120601f198616915b8281101562000ab55788860151825594840194600190910190840162000a94565b508582101562000ad45787850151600019600388901b60f8161c191681555b5050505050600190811b01905550565b60006020828403121562000af757600080fd5b505191905056fe608060405260126002553480156200001657600080fd5b5060405162000af638038062000af6833981016040819052620000399162000150565b600062000047848262000252565b50600162000056838262000252565b50600381905533600081815260056020526040902091909155600480546001600160a01b0319169091179055506200031e9050565b634e487b7160e01b600052604160045260246000fd5b600082601f830112620000b357600080fd5b81516001600160401b0380821115620000d057620000d06200008b565b604051601f8301601f19908116603f01168101908282118183101715620000fb57620000fb6200008b565b816040528381526020925086838588010111156200011857600080fd5b600091505b838210156200013c57858201830151818301840152908201906200011d565b600093810190920192909252949350505050565b6000806000606084860312156200016657600080fd5b83516001600160401b03808211156200017e57600080fd5b6200018c87838801620000a1565b94506020860151915080821115620001a357600080fd5b50620001b286828701620000a1565b925050604084015190509250925092565b600181811c90821680620001d857607f821691505b602082108103620001f957634e487b7160e01b600052602260045260246000fd5b50919050565b601f8211156200024d57600081815260208120601f850160051c81016020861015620002285750805b601f850160051c820191505b81811015620002495782815560010162000234565b5050505b505050565b81516001600160401b038111156200026e576200026e6200008b565b62000286816200027f8454620001c3565b84620001ff565b602080601f831160018114620002be5760008415620002a55750858301515b600019600386901b1c1916600185901b17855562000249565b600085815260208120601f198616915b82811015620002ef57888601518255948401946001909101908401620002ce565b50858210156200030e5787850151600019600388901b60f8161c191681555b5050505050600190811b01905550565b6107c8806200032e6000396000f3fe608060405234801561001057600080fd5b50600436106100a95760003560e01c806342966c681161007157806342966c681461011d57806370a082311461013057806395d89b4114610159578063a0712d6814610161578063a9059cbb14610174578063dd62ed3e1461018757600080fd5b806306fdde03146100ae578063095ea7b3146100cc57806318160ddd146100ef57806323b872dd14610101578063313ce56714610114575b600080fd5b6100b66101c0565b6040516100c391906105e3565b60405180910390f35b6100df6100da366004610648565b61024e565b60405190151581526020016100c3565b6003545b6040519081526020016100c3565b6100df61010f366004610672565b6102bb565b6100f360025481565b6100f361012b3660046106ae565b6103f1565b6100f361013e3660046106c7565b6001600160a01b031660009081526005602052604090205490565b6100b6610499565b6100f361016f3660046106ae565b6104a6565b6100df610182366004610648565b610539565b6100f36101953660046106e9565b6001600160a01b03918216600090815260066020908152604080832093909416825291909152205490565b600080546101cd9061071c565b80601f01602080910402602001604051908101604052809291908181526020018280546101f99061071c565b80156102465780601f1061021b57610100808354040283529160200191610246565b820191906000526020600020905b81548152906001019060200180831161022957829003601f168201915b505050505081565b3360008181526006602090815260408083206001600160a01b038716808552925280832085905551919290917f8c5be1e5ebec7d5bd14f71427d1e84f3dd0314c0f7b2291e5b200ac8c7c3b925906102a99086815260200190565b60405180910390a35060015b92915050565b6001600160a01b0383166000818152600660209081526040808320338452825280832054938352600590915281205490919083118015906102fc5750828110155b61030557600080fd5b6001600160a01b0384166000908152600560205260408120805485929061032d90849061076c565b90915550506001600160a01b0385166000908152600560205260408120805485929061035a90849061077f565b90915550506001600160a01b03851660009081526006602090815260408083203384529091528120805485929061039290849061077f565b92505081905550836001600160a01b0316856001600160a01b03167fddf252ad1be2c89b69c2b068fc378daa952ba7f163c4a11628f55a4df523b3ef856040516103de91815260200190565b60405180910390a3506001949350505050565b6004546000906001600160a01b031633146104535760405162461bcd60e51b815260206004820181905260248201527f6f6e6c792061646d696e2063616e2072756e20746869732066756e6374696f6e60448201526064015b60405180910390fd5b8160036000828254610465919061077f565b9091555050336000908152600560205260408120805484929061048990849061077f565b909155505060035490505b919050565b600180546101cd9061071c565b6004546000906001600160a01b031633146105035760405162461bcd60e51b815260206004820181905260248201527f6f6e6c792061646d696e2063616e2072756e20746869732066756e6374696f6e604482015260640161044a565b8160036000828254610515919061076c565b9091555050336000908152600560205260408120805484929061048990849061076c565b3360009081526005602052604081205482111561055557600080fd5b336000908152600560205260408120805484929061057490849061077f565b90915550506001600160a01b038316600090815260056020526040812080548492906105a190849061076c565b90915550506040518281526001600160a01b0384169033907fddf252ad1be2c89b69c2b068fc378daa952ba7f163c4a11628f55a4df523b3ef906020016102a9565b600060208083528351808285015260005b81811015610610578581018301518582016040015282016105f4565b506000604082860101526040601f19601f8301168501019250505092915050565b80356001600160a01b038116811461049457600080fd5b6000806040838503121561065b57600080fd5b61066483610631565b946020939093013593505050565b60008060006060848603121561068757600080fd5b61069084610631565b925061069e60208501610631565b9150604084013590509250925092565b6000602082840312156106c057600080fd5b5035919050565b6000602082840312156106d957600080fd5b6106e282610631565b9392505050565b600080604083850312156106fc57600080fd5b61070583610631565b915061071360208401610631565b90509250929050565b600181811c9082168061073057607f821691505b60208210810361075057634e487b7160e01b600052602260045260246000fd5b50919050565b634e487b7160e01b600052601160045260246000fd5b808201808211156102b5576102b5610756565b818103818111156102b5576102b561075656fea26469706673582212202e277d023a514228f7e064db7c98a4100e6b4282a75af3e12316c8636770936164736f6c63430008140033a26469706673582212207cb9e9343b6d24f4b06fa742f4e7650c9e623080a687b58cbbf920e7d456f42264736f6c63430008140033",
			"opcodes": "PUSH1 0x80 PUSH1 0x40 MSTORE CALLVALUE DUP1 ISZERO PUSH2 0x10 JUMPI PUSH1 0x0 DUP1 REVERT JUMPDEST POP PUSH2 0x162A DUP1 PUSH2 0x20 PUSH1 0x0 CODECOPY PUSH1 0x0 RETURN INVALID PUSH1 0x80 PUSH1 0x40 MSTORE CALLVALUE DUP1 ISZERO PUSH3 0x11 JUMPI PUSH1 0x0 DUP1 REVERT JUMPDEST POP PUSH1 0x4 CALLDATASIZE LT PUSH3 0x52 JUMPI PUSH1 0x0 CALLDATALOAD PUSH1 0xE0 SHR DUP1 PUSH4 0x34A860E4 EQ PUSH3 0x57 JUMPI DUP1 PUSH4 0x4FBA4607 EQ PUSH3 0x81 JUMPI DUP1 PUSH4 0x5B3A7232 EQ PUSH3 0xA7 JUMPI DUP1 PUSH4 0x6CAE9E3B EQ PUSH3 0xD3 JUMPI JUMPDEST PUSH1 0x0 DUP1 REVERT JUMPDEST PUSH3 0x6E PUSH3 0x68 CALLDATASIZE PUSH1 0x4 PUSH3 0x598 JUMP JUMPDEST PUSH3 0x13E JUMP JUMPDEST PUSH1 0x40 MLOAD SWAP1 DUP2 MSTORE PUSH1 0x20 ADD JUMPDEST PUSH1 0x40 MLOAD DUP1 SWAP2 SUB SWAP1 RETURN JUMPDEST PUSH3 0x98 PUSH3 0x92 CALLDATASIZE PUSH1 0x4 PUSH3 0x666 JUMP JUMPDEST PUSH3 0x180 JUMP JUMPDEST PUSH1 0x40 MLOAD PUSH3 0x78 SWAP2 SWAP1 PUSH3 0x7D6 JUMP JUMPDEST PUSH3 0xBE PUSH3 0xB8 CALLDATASIZE PUSH1 0x4 PUSH3 0x894 JUMP JUMPDEST PUSH3 0x420 JUMP JUMPDEST PUSH1 0x40 MLOAD PUSH3 0x78 SWAP8 SWAP7 SWAP6 SWAP5 SWAP4 SWAP3 SWAP2 SWAP1 PUSH3 0x8AE JUMP JUMPDEST PUSH3 0x119 PUSH3 0xE4 CALLDATASIZE PUSH1 0x4 PUSH3 0x598 JUMP JUMPDEST PUSH1 0x3 PUSH1 0x20 SWAP1 DUP2 MSTORE PUSH1 0x0 SWAP3 DUP4 MSTORE PUSH1 0x40 DUP1 DUP5 KECCAK256 SWAP1 SWAP2 MSTORE SWAP1 DUP3 MSTORE SWAP1 KECCAK256 DUP1 SLOAD PUSH1 0x1 DUP3 ADD SLOAD PUSH1 0x2 SWAP1 SWAP3 ADD SLOAD SWAP1 SWAP2 SWAP1 PUSH1 0x1 PUSH1 0x1 PUSH1 0xA0 SHL SUB AND DUP4 JUMP JUMPDEST PUSH1 0x40 DUP1 MLOAD SWAP4 DUP5 MSTORE PUSH1 0x20 DUP5 ADD SWAP3 SWAP1 SWAP3 MSTORE PUSH1 0x1 PUSH1 0x1 PUSH1 0xA0 SHL SUB AND SWAP1 DUP3 ADD MSTORE PUSH1 0x60 ADD PUSH3 0x78 JUMP JUMPDEST PUSH1 0x1 SLOAD PUSH1 0x0 DUP2 DUP2 MSTORE PUSH1 0x2 PUSH1 0x20 MSTORE PUSH1 0x40 DUP2 KECCAK256 PUSH1 0x7 ADD DUP1 SLOAD SWAP2 SWAP3 DUP6 SWAP3 DUP2 LT PUSH3 0x169 JUMPI PUSH3 0x169 PUSH3 0x910 JUMP JUMPDEST PUSH1 0x0 SWAP2 DUP3 MSTORE PUSH1 0x20 SWAP1 SWAP2 KECCAK256 PUSH1 0x3 SWAP1 SWAP2 MUL ADD SSTORE SWAP3 SWAP2 POP POP JUMP JUMPDEST PUSH3 0x1DB PUSH1 0x40 MLOAD DUP1 PUSH2 0x100 ADD PUSH1 0x40 MSTORE DUP1 PUSH1 0x0 PUSH1 0x1 PUSH1 0x1 PUSH1 0xA0 SHL SUB AND DUP2 MSTORE PUSH1 0x20 ADD PUSH1 0x0 PUSH1 0x1 PUSH1 0x1 PUSH1 0xA0 SHL SUB AND DUP2 MSTORE PUSH1 0x20 ADD PUSH1 0x60 DUP2 MSTORE PUSH1 0x20 ADD PUSH1 0x60 DUP2 MSTORE PUSH1 0x20 ADD PUSH1 0x0 DUP2 MSTORE PUSH1 0x20 ADD PUSH1 0x0 DUP2 MSTORE PUSH1 0x20 ADD PUSH1 0x0 DUP2 MSTORE PUSH1 0x20 ADD PUSH1 0x60 DUP2 MSTORE POP SWAP1 JUMP JUMPDEST PUSH1 0x0 DUP8 DUP8 DUP8 PUSH1 0x40 MLOAD PUSH3 0x1EE SWAP1 PUSH3 0x58A JUMP JUMPDEST PUSH3 0x1FC SWAP4 SWAP3 SWAP2 SWAP1 PUSH3 0x926 JUMP JUMPDEST PUSH1 0x40 MLOAD DUP1 SWAP2 SUB SWAP1 PUSH1 0x0 CREATE DUP1 ISZERO DUP1 ISZERO PUSH3 0x219 JUMPI RETURNDATASIZE PUSH1 0x0 DUP1 RETURNDATACOPY RETURNDATASIZE PUSH1 0x0 REVERT JUMPDEST POP SWAP1 POP PUSH1 0x0 DUP6 DUP6 DUP6 PUSH1 0x40 MLOAD PUSH3 0x22F SWAP1 PUSH3 0x58A JUMP JUMPDEST PUSH3 0x23D SWAP4 SWAP3 SWAP2 SWAP1 PUSH3 0x926 JUMP JUMPDEST PUSH1 0x40 MLOAD DUP1 SWAP2 SUB SWAP1 PUSH1 0x0 CREATE DUP1 ISZERO DUP1 ISZERO PUSH3 0x25A JUMPI RETURNDATASIZE PUSH1 0x0 DUP1 RETURNDATACOPY RETURNDATASIZE PUSH1 0x0 REVERT JUMPDEST POP PUSH1 0x1 DUP1 SLOAD SWAP2 SWAP3 POP PUSH1 0x0 PUSH3 0x26F DUP4 PUSH3 0x960 JUMP JUMPDEST SWAP1 SWAP2 SSTORE POP POP PUSH1 0x1 DUP1 SLOAD PUSH1 0x0 SWAP1 DUP2 MSTORE PUSH1 0x2 PUSH1 0x20 DUP2 SWAP1 MSTORE PUSH1 0x40 DUP1 DUP4 KECCAK256 DUP1 SLOAD PUSH1 0x1 PUSH1 0x1 PUSH1 0xA0 SHL SUB DUP1 DUP10 AND PUSH1 0x1 PUSH1 0x1 PUSH1 0xA0 SHL SUB NOT SWAP3 DUP4 AND OR SWAP1 SWAP3 SSTORE DUP6 SLOAD DUP6 MSTORE DUP3 DUP6 KECCAK256 DUP7 ADD DUP1 SLOAD SWAP3 DUP9 AND SWAP3 SWAP1 SWAP2 AND SWAP2 SWAP1 SWAP2 OR SWAP1 SSTORE SWAP3 SLOAD DUP3 MSTORE SWAP2 SWAP1 KECCAK256 ADD PUSH3 0x2D2 DUP11 DUP3 PUSH3 0xA17 JUMP JUMPDEST POP PUSH1 0x1 SLOAD PUSH1 0x0 SWAP1 DUP2 MSTORE PUSH1 0x2 PUSH1 0x20 MSTORE PUSH1 0x40 SWAP1 KECCAK256 PUSH1 0x3 ADD PUSH3 0x2F3 DUP8 DUP3 PUSH3 0xA17 JUMP JUMPDEST POP PUSH1 0x1 SLOAD PUSH1 0x0 SWAP1 DUP2 MSTORE PUSH1 0x2 PUSH1 0x20 MSTORE PUSH1 0x40 SWAP1 DUP2 SWAP1 KECCAK256 TIMESTAMP PUSH1 0x6 SWAP1 SWAP2 ADD SSTORE MLOAD PUSH4 0x70A08231 PUSH1 0xE0 SHL DUP2 MSTORE ADDRESS PUSH1 0x4 DUP3 ADD MSTORE PUSH1 0x1 PUSH1 0x1 PUSH1 0xA0 SHL SUB DUP4 AND SWAP1 PUSH4 0x70A08231 SWAP1 PUSH1 0x24 ADD PUSH1 0x20 PUSH1 0x40 MLOAD DUP1 DUP4 SUB DUP2 DUP7 GAS STATICCALL ISZERO DUP1 ISZERO PUSH3 0x351 JUMPI RETURNDATASIZE PUSH1 0x0 DUP1 RETURNDATACOPY RETURNDATASIZE PUSH1 0x0 REVERT JUMPDEST POP POP POP POP PUSH1 0x40 MLOAD RETURNDATASIZE PUSH1 0x1F NOT PUSH1 0x1F DUP3 ADD AND DUP3 ADD DUP1 PUSH1 0x40 MSTORE POP DUP2 ADD SWAP1 PUSH3 0x377 SWAP2 SWAP1 PUSH3 0xAE4 JUMP JUMPDEST PUSH1 0x1 SLOAD PUSH1 0x0 SWAP1 DUP2 MSTORE PUSH1 0x2 PUSH1 0x20 MSTORE PUSH1 0x40 SWAP1 DUP2 SWAP1 KECCAK256 PUSH1 0x4 SWAP1 DUP2 ADD SWAP3 SWAP1 SWAP3 SSTORE MLOAD PUSH4 0x70A08231 PUSH1 0xE0 SHL DUP2 MSTORE ADDRESS SWAP2 DUP2 ADD SWAP2 SWAP1 SWAP2 MSTORE PUSH1 0x1 PUSH1 0x1 PUSH1 0xA0 SHL SUB DUP3 AND SWAP1 PUSH4 0x70A08231 SWAP1 PUSH1 0x24 ADD PUSH1 0x20 PUSH1 0x40 MLOAD DUP1 DUP4 SUB DUP2 DUP7 GAS STATICCALL ISZERO DUP1 ISZERO PUSH3 0x3D8 JUMPI RETURNDATASIZE PUSH1 0x0 DUP1 RETURNDATACOPY RETURNDATASIZE PUSH1 0x0 REVERT JUMPDEST POP POP POP POP PUSH1 0x40 MLOAD RETURNDATASIZE PUSH1 0x1F NOT PUSH1 0x1F DUP3 ADD AND DUP3 ADD DUP1 PUSH1 0x40 MSTORE POP DUP2 ADD SWAP1 PUSH3 0x3FE SWAP2 SWAP1 PUSH3 0xAE4 JUMP JUMPDEST PUSH1 0x1 SLOAD PUSH1 0x0 SWAP1 DUP2 MSTORE PUSH1 0x2 PUSH1 0x20 MSTORE PUSH1 0x40 SWAP1 KECCAK256 PUSH1 0x5 ADD SSTORE POP SWAP1 SWAP8 SWAP7 POP POP POP POP POP POP POP JUMP JUMPDEST PUSH1 0x2 PUSH1 0x20 DUP2 SWAP1 MSTORE PUSH1 0x0 SWAP2 DUP3 MSTORE PUSH1 0x40 SWAP1 SWAP2 KECCAK256 DUP1 SLOAD PUSH1 0x1 DUP3 ADD SLOAD SWAP3 DUP3 ADD DUP1 SLOAD PUSH1 0x1 PUSH1 0x1 PUSH1 0xA0 SHL SUB SWAP3 DUP4 AND SWAP5 SWAP1 SWAP3 AND SWAP3 SWAP2 PUSH3 0x459 SWAP1 PUSH3 0x988 JUMP JUMPDEST DUP1 PUSH1 0x1F ADD PUSH1 0x20 DUP1 SWAP2 DIV MUL PUSH1 0x20 ADD PUSH1 0x40 MLOAD SWAP1 DUP2 ADD PUSH1 0x40 MSTORE DUP1 SWAP3 SWAP2 SWAP1 DUP2 DUP2 MSTORE PUSH1 0x20 ADD DUP3 DUP1 SLOAD PUSH3 0x487 SWAP1 PUSH3 0x988 JUMP JUMPDEST DUP1 ISZERO PUSH3 0x4D8 JUMPI DUP1 PUSH1 0x1F LT PUSH3 0x4AC JUMPI PUSH2 0x100 DUP1 DUP4 SLOAD DIV MUL DUP4 MSTORE SWAP2 PUSH1 0x20 ADD SWAP2 PUSH3 0x4D8 JUMP JUMPDEST DUP3 ADD SWAP2 SWAP1 PUSH1 0x0 MSTORE PUSH1 0x20 PUSH1 0x0 KECCAK256 SWAP1 JUMPDEST DUP2 SLOAD DUP2 MSTORE SWAP1 PUSH1 0x1 ADD SWAP1 PUSH1 0x20 ADD DUP1 DUP4 GT PUSH3 0x4BA JUMPI DUP3 SWAP1 SUB PUSH1 0x1F AND DUP3 ADD SWAP2 JUMPDEST POP POP POP POP POP SWAP1 DUP1 PUSH1 0x3 ADD DUP1 SLOAD PUSH3 0x4EF SWAP1 PUSH3 0x988 JUMP JUMPDEST DUP1 PUSH1 0x1F ADD PUSH1 0x20 DUP1 SWAP2 DIV MUL PUSH1 0x20 ADD PUSH1 0x40 MLOAD SWAP1 DUP2 ADD PUSH1 0x40 MSTORE DUP1 SWAP3 SWAP2 SWAP1 DUP2 DUP2 MSTORE PUSH1 0x20 ADD DUP3 DUP1 SLOAD PUSH3 0x51D SWAP1 PUSH3 0x988 JUMP JUMPDEST DUP1 ISZERO PUSH3 0x56E JUMPI DUP1 PUSH1 0x1F LT PUSH3 0x542 JUMPI PUSH2 0x100 DUP1 DUP4 SLOAD DIV MUL DUP4 MSTORE SWAP2 PUSH1 0x20 ADD SWAP2 PUSH3 0x56E JUMP JUMPDEST DUP3 ADD SWAP2 SWAP1 PUSH1 0x0 MSTORE PUSH1 0x20 PUSH1 0x0 KECCAK256 SWAP1 JUMPDEST DUP2 SLOAD DUP2 MSTORE SWAP1 PUSH1 0x1 ADD SWAP1 PUSH1 0x20 ADD DUP1 DUP4 GT PUSH3 0x550 JUMPI DUP3 SWAP1 SUB PUSH1 0x1F AND DUP3 ADD SWAP2 JUMPDEST POP POP POP POP POP SWAP1 DUP1 PUSH1 0x4 ADD SLOAD SWAP1 DUP1 PUSH1 0x5 ADD SLOAD SWAP1 DUP1 PUSH1 0x6 ADD SLOAD SWAP1 POP DUP8 JUMP JUMPDEST PUSH2 0xAF6 DUP1 PUSH3 0xAFF DUP4 CODECOPY ADD SWAP1 JUMP JUMPDEST PUSH1 0x0 DUP1 PUSH1 0x40 DUP4 DUP6 SUB SLT ISZERO PUSH3 0x5AC JUMPI PUSH1 0x0 DUP1 REVERT JUMPDEST POP POP DUP1 CALLDATALOAD SWAP3 PUSH1 0x20 SWAP1 SWAP2 ADD CALLDATALOAD SWAP2 POP JUMP JUMPDEST PUSH4 0x4E487B71 PUSH1 0xE0 SHL PUSH1 0x0 MSTORE PUSH1 0x41 PUSH1 0x4 MSTORE PUSH1 0x24 PUSH1 0x0 REVERT JUMPDEST PUSH1 0x0 DUP3 PUSH1 0x1F DUP4 ADD SLT PUSH3 0x5E3 JUMPI PUSH1 0x0 DUP1 REVERT JUMPDEST DUP2 CALLDATALOAD PUSH8 0xFFFFFFFFFFFFFFFF DUP1 DUP3 GT ISZERO PUSH3 0x601 JUMPI PUSH3 0x601 PUSH3 0x5BB JUMP JUMPDEST PUSH1 0x40 MLOAD PUSH1 0x1F DUP4 ADD PUSH1 0x1F NOT SWAP1 DUP2 AND PUSH1 0x3F ADD AND DUP2 ADD SWAP1 DUP3 DUP3 GT DUP2 DUP4 LT OR ISZERO PUSH3 0x62C JUMPI PUSH3 0x62C PUSH3 0x5BB JUMP JUMPDEST DUP2 PUSH1 0x40 MSTORE DUP4 DUP2 MSTORE DUP7 PUSH1 0x20 DUP6 DUP9 ADD ADD GT ISZERO PUSH3 0x646 JUMPI PUSH1 0x0 DUP1 REVERT JUMPDEST DUP4 PUSH1 0x20 DUP8 ADD PUSH1 0x20 DUP4 ADD CALLDATACOPY PUSH1 0x0 PUSH1 0x20 DUP6 DUP4 ADD ADD MSTORE DUP1 SWAP5 POP POP POP POP POP SWAP3 SWAP2 POP POP JUMP JUMPDEST PUSH1 0x0 DUP1 PUSH1 0x0 DUP1 PUSH1 0x0 DUP1 PUSH1 0xC0 DUP8 DUP10 SUB SLT ISZERO PUSH3 0x680 JUMPI PUSH1 0x0 DUP1 REVERT JUMPDEST DUP7 CALLDATALOAD PUSH8 0xFFFFFFFFFFFFFFFF DUP1 DUP3 GT ISZERO PUSH3 0x699 JUMPI PUSH1 0x0 DUP1 REVERT JUMPDEST PUSH3 0x6A7 DUP11 DUP4 DUP12 ADD PUSH3 0x5D1 JUMP JUMPDEST SWAP8 POP PUSH1 0x20 DUP10 ADD CALLDATALOAD SWAP2 POP DUP1 DUP3 GT ISZERO PUSH3 0x6BE JUMPI PUSH1 0x0 DUP1 REVERT JUMPDEST PUSH3 0x6CC DUP11 DUP4 DUP12 ADD PUSH3 0x5D1 JUMP JUMPDEST SWAP7 POP PUSH1 0x40 DUP10 ADD CALLDATALOAD SWAP6 POP PUSH1 0x60 DUP10 ADD CALLDATALOAD SWAP2 POP DUP1 DUP3 GT ISZERO PUSH3 0x6EA JUMPI PUSH1 0x0 DUP1 REVERT JUMPDEST PUSH3 0x6F8 DUP11 DUP4 DUP12 ADD PUSH3 0x5D1 JUMP JUMPDEST SWAP5 POP PUSH1 0x80 DUP10 ADD CALLDATALOAD SWAP2 POP DUP1 DUP3 GT ISZERO PUSH3 0x70F JUMPI PUSH1 0x0 DUP1 REVERT JUMPDEST POP PUSH3 0x71E DUP10 DUP3 DUP11 ADD PUSH3 0x5D1 JUMP JUMPDEST SWAP3 POP POP PUSH1 0xA0 DUP8 ADD CALLDATALOAD SWAP1 POP SWAP3 SWAP6 POP SWAP3 SWAP6 POP SWAP3 SWAP6 JUMP JUMPDEST PUSH1 0x0 DUP2 MLOAD DUP1 DUP5 MSTORE PUSH1 0x0 JUMPDEST DUP2 DUP2 LT ISZERO PUSH3 0x75A JUMPI PUSH1 0x20 DUP2 DUP6 ADD DUP2 ADD MLOAD DUP7 DUP4 ADD DUP3 ADD MSTORE ADD PUSH3 0x73C JUMP JUMPDEST POP PUSH1 0x0 PUSH1 0x20 DUP3 DUP7 ADD ADD MSTORE PUSH1 0x20 PUSH1 0x1F NOT PUSH1 0x1F DUP4 ADD AND DUP6 ADD ADD SWAP2 POP POP SWAP3 SWAP2 POP POP JUMP JUMPDEST PUSH1 0x0 DUP2 MLOAD DUP1 DUP5 MSTORE PUSH1 0x20 DUP1 DUP6 ADD SWAP5 POP DUP1 DUP5 ADD PUSH1 0x0 JUMPDEST DUP4 DUP2 LT ISZERO PUSH3 0x7CB JUMPI DUP2 MLOAD DUP1 MLOAD DUP9 MSTORE DUP4 DUP2 ADD MLOAD DUP5 DUP10 ADD MSTORE PUSH1 0x40 SWAP1 DUP2 ADD MLOAD PUSH1 0x1 PUSH1 0x1 PUSH1 0xA0 SHL SUB AND SWAP1 DUP9 ADD MSTORE PUSH1 0x60 SWAP1 SWAP7 ADD SWAP6 SWAP1 DUP3 ADD SWAP1 PUSH1 0x1 ADD PUSH3 0x78E JUMP JUMPDEST POP SWAP5 SWAP6 SWAP5 POP POP POP POP POP JUMP JUMPDEST PUSH1 0x20 DUP2 MSTORE PUSH3 0x7F1 PUSH1 0x20 DUP3 ADD DUP4 MLOAD PUSH1 0x1 PUSH1 0x1 PUSH1 0xA0 SHL SUB AND SWAP1 MSTORE JUMP JUMPDEST PUSH1 0x0 PUSH1 0x20 DUP4 ADD MLOAD PUSH3 0x80E PUSH1 0x40 DUP5 ADD DUP3 PUSH1 0x1 PUSH1 0x1 PUSH1 0xA0 SHL SUB AND SWAP1 MSTORE JUMP JUMPDEST POP PUSH1 0x40 DUP4 ADD MLOAD PUSH2 0x100 DUP1 PUSH1 0x60 DUP6 ADD MSTORE PUSH3 0x82D PUSH2 0x120 DUP6 ADD DUP4 PUSH3 0x732 JUMP JUMPDEST SWAP2 POP PUSH1 0x60 DUP6 ADD MLOAD PUSH1 0x1F NOT DUP1 DUP7 DUP6 SUB ADD PUSH1 0x80 DUP8 ADD MSTORE PUSH3 0x84D DUP5 DUP4 PUSH3 0x732 JUMP JUMPDEST SWAP4 POP PUSH1 0x80 DUP8 ADD MLOAD PUSH1 0xA0 DUP8 ADD MSTORE PUSH1 0xA0 DUP8 ADD MLOAD PUSH1 0xC0 DUP8 ADD MSTORE PUSH1 0xC0 DUP8 ADD MLOAD PUSH1 0xE0 DUP8 ADD MSTORE PUSH1 0xE0 DUP8 ADD MLOAD SWAP2 POP DUP1 DUP7 DUP6 SUB ADD DUP4 DUP8 ADD MSTORE POP PUSH3 0x88A DUP4 DUP3 PUSH3 0x77A JUMP JUMPDEST SWAP7 SWAP6 POP POP POP POP POP POP JUMP JUMPDEST PUSH1 0x0 PUSH1 0x20 DUP3 DUP5 SUB SLT ISZERO PUSH3 0x8A7 JUMPI PUSH1 0x0 DUP1 REVERT JUMPDEST POP CALLDATALOAD SWAP2 SWAP1 POP JUMP JUMPDEST PUSH1 0x1 PUSH1 0x1 PUSH1 0xA0 SHL SUB DUP9 DUP2 AND DUP3 MSTORE DUP8 AND PUSH1 0x20 DUP3 ADD MSTORE PUSH1 0xE0 PUSH1 0x40 DUP3 ADD DUP2 SWAP1 MSTORE PUSH1 0x0 SWAP1 PUSH3 0x8DC SWAP1 DUP4 ADD DUP9 PUSH3 0x732 JUMP JUMPDEST DUP3 DUP2 SUB PUSH1 0x60 DUP5 ADD MSTORE PUSH3 0x8F0 DUP2 DUP9 PUSH3 0x732 JUMP JUMPDEST PUSH1 0x80 DUP5 ADD SWAP7 SWAP1 SWAP7 MSTORE POP POP PUSH1 0xA0 DUP2 ADD SWAP3 SWAP1 SWAP3 MSTORE PUSH1 0xC0 SWAP1 SWAP2 ADD MSTORE SWAP5 SWAP4 POP POP POP POP JUMP JUMPDEST PUSH4 0x4E487B71 PUSH1 0xE0 SHL PUSH1 0x0 MSTORE PUSH1 0x32 PUSH1 0x4 MSTORE PUSH1 0x24 PUSH1 0x0 REVERT JUMPDEST PUSH1 0x60 DUP2 MSTORE PUSH1 0x0 PUSH3 0x93B PUSH1 0x60 DUP4 ADD DUP7 PUSH3 0x732 JUMP JUMPDEST DUP3 DUP2 SUB PUSH1 0x20 DUP5 ADD MSTORE PUSH3 0x94F DUP2 DUP7 PUSH3 0x732 JUMP JUMPDEST SWAP2 POP POP DUP3 PUSH1 0x40 DUP4 ADD MSTORE SWAP5 SWAP4 POP POP POP POP JUMP JUMPDEST PUSH1 0x0 PUSH1 0x1 DUP3 ADD PUSH3 0x981 JUMPI PUSH4 0x4E487B71 PUSH1 0xE0 SHL PUSH1 0x0 MSTORE PUSH1 0x11 PUSH1 0x4 MSTORE PUSH1 0x24 PUSH1 0x0 REVERT JUMPDEST POP PUSH1 0x1 ADD SWAP1 JUMP JUMPDEST PUSH1 0x1 DUP2 DUP2 SHR SWAP1 DUP3 AND DUP1 PUSH3 0x99D JUMPI PUSH1 0x7F DUP3 AND SWAP2 POP JUMPDEST PUSH1 0x20 DUP3 LT DUP2 SUB PUSH3 0x9BE JUMPI PUSH4 0x4E487B71 PUSH1 0xE0 SHL PUSH1 0x0 MSTORE PUSH1 0x22 PUSH1 0x4 MSTORE PUSH1 0x24 PUSH1 0x0 REVERT JUMPDEST POP SWAP2 SWAP1 POP JUMP JUMPDEST PUSH1 0x1F DUP3 GT ISZERO PUSH3 0xA12 JUMPI PUSH1 0x0 DUP2 DUP2 MSTORE PUSH1 0x20 DUP2 KECCAK256 PUSH1 0x1F DUP6 ADD PUSH1 0x5 SHR DUP2 ADD PUSH1 0x20 DUP7 LT ISZERO PUSH3 0x9ED JUMPI POP DUP1 JUMPDEST PUSH1 0x1F DUP6 ADD PUSH1 0x5 SHR DUP3 ADD SWAP2 POP JUMPDEST DUP2 DUP2 LT ISZERO PUSH3 0xA0E JUMPI DUP3 DUP2 SSTORE PUSH1 0x1 ADD PUSH3 0x9F9 JUMP JUMPDEST POP POP POP JUMPDEST POP POP POP JUMP JUMPDEST DUP2 MLOAD PUSH8 0xFFFFFFFFFFFFFFFF DUP2 GT ISZERO PUSH3 0xA34 JUMPI PUSH3 0xA34 PUSH3 0x5BB JUMP JUMPDEST PUSH3 0xA4C DUP2 PUSH3 0xA45 DUP5 SLOAD PUSH3 0x988 JUMP JUMPDEST DUP5 PUSH3 0x9C4 JUMP JUMPDEST PUSH1 0x20 DUP1 PUSH1 0x1F DUP4 GT PUSH1 0x1 DUP2 EQ PUSH3 0xA84 JUMPI PUSH1 0x0 DUP5 ISZERO PUSH3 0xA6B JUMPI POP DUP6 DUP4 ADD MLOAD JUMPDEST PUSH1 0x0 NOT PUSH1 0x3 DUP7 SWAP1 SHL SHR NOT AND PUSH1 0x1 DUP6 SWAP1 SHL OR DUP6 SSTORE PUSH3 0xA0E JUMP JUMPDEST PUSH1 0x0 DUP6 DUP2 MSTORE PUSH1 0x20 DUP2 KECCAK256 PUSH1 0x1F NOT DUP7 AND SWAP2 JUMPDEST DUP3 DUP2 LT ISZERO PUSH3 0xAB5 JUMPI DUP9 DUP7 ADD MLOAD DUP3 SSTORE SWAP5 DUP5 ADD SWAP5 PUSH1 0x1 SWAP1 SWAP2 ADD SWAP1 DUP5 ADD PUSH3 0xA94 JUMP JUMPDEST POP DUP6 DUP3 LT ISZERO PUSH3 0xAD4 JUMPI DUP8 DUP6 ADD MLOAD PUSH1 0x0 NOT PUSH1 0x3 DUP9 SWAP1 SHL PUSH1 0xF8 AND SHR NOT AND DUP2 SSTORE JUMPDEST POP POP POP POP POP PUSH1 0x1 SWAP1 DUP2 SHL ADD SWAP1 SSTORE POP JUMP JUMPDEST PUSH1 0x0 PUSH1 0x20 DUP3 DUP5 SUB SLT ISZERO PUSH3 0xAF7 JUMPI PUSH1 0x0 DUP1 REVERT JUMPDEST POP MLOAD SWAP2 SWAP1 POP JUMP INVALID PUSH1 0x80 PUSH1 0x40 MSTORE PUSH1 0x12 PUSH1 0x2 SSTORE CALLVALUE DUP1 ISZERO PUSH3 0x16 JUMPI PUSH1 0x0 DUP1 REVERT JUMPDEST POP PUSH1 0x40 MLOAD PUSH3 0xAF6 CODESIZE SUB DUP1 PUSH3 0xAF6 DUP4 CODECOPY DUP2 ADD PUSH1 0x40 DUP2 SWAP1 MSTORE PUSH3 0x39 SWAP2 PUSH3 0x150 JUMP JUMPDEST PUSH1 0x0 PUSH3 0x47 DUP5 DUP3 PUSH3 0x252 JUMP JUMPDEST POP PUSH1 0x1 PUSH3 0x56 DUP4 DUP3 PUSH3 0x252 JUMP JUMPDEST POP PUSH1 0x3 DUP2 SWAP1 SSTORE CALLER PUSH1 0x0 DUP2 DUP2 MSTORE PUSH1 0x5 PUSH1 0x20 MSTORE PUSH1 0x40 SWAP1 KECCAK256 SWAP2 SWAP1 SWAP2 SSTORE PUSH1 0x4 DUP1 SLOAD PUSH1 0x1 PUSH1 0x1 PUSH1 0xA0 SHL SUB NOT AND SWAP1 SWAP2 OR SWAP1 SSTORE POP PUSH3 0x31E SWAP1 POP JUMP JUMPDEST PUSH4 0x4E487B71 PUSH1 0xE0 SHL PUSH1 0x0 MSTORE PUSH1 0x41 PUSH1 0x4 MSTORE PUSH1 0x24 PUSH1 0x0 REVERT JUMPDEST PUSH1 0x0 DUP3 PUSH1 0x1F DUP4 ADD SLT PUSH3 0xB3 JUMPI PUSH1 0x0 DUP1 REVERT JUMPDEST DUP2 MLOAD PUSH1 0x1 PUSH1 0x1 PUSH1 0x40 SHL SUB DUP1 DUP3 GT ISZERO PUSH3 0xD0 JUMPI PUSH3 0xD0 PUSH3 0x8B JUMP JUMPDEST PUSH1 0x40 MLOAD PUSH1 0x1F DUP4 ADD PUSH1 0x1F NOT SWAP1 DUP2 AND PUSH1 0x3F ADD AND DUP2 ADD SWAP1 DUP3 DUP3 GT DUP2 DUP4 LT OR ISZERO PUSH3 0xFB JUMPI PUSH3 0xFB PUSH3 0x8B JUMP JUMPDEST DUP2 PUSH1 0x40 MSTORE DUP4 DUP2 MSTORE PUSH1 0x20 SWAP3 POP DUP7 DUP4 DUP6 DUP9 ADD ADD GT ISZERO PUSH3 0x118 JUMPI PUSH1 0x0 DUP1 REVERT JUMPDEST PUSH1 0x0 SWAP2 POP JUMPDEST DUP4 DUP3 LT ISZERO PUSH3 0x13C JUMPI DUP6 DUP3 ADD DUP4 ADD MLOAD DUP2 DUP4 ADD DUP5 ADD MSTORE SWAP1 DUP3 ADD SWAP1 PUSH3 0x11D JUMP JUMPDEST PUSH1 0x0 SWAP4 DUP2 ADD SWAP1 SWAP3 ADD SWAP3 SWAP1 SWAP3 MSTORE SWAP5 SWAP4 POP POP POP POP JUMP JUMPDEST PUSH1 0x0 DUP1 PUSH1 0x0 PUSH1 0x60 DUP5 DUP7 SUB SLT ISZERO PUSH3 0x166 JUMPI PUSH1 0x0 DUP1 REVERT JUMPDEST DUP4 MLOAD PUSH1 0x1 PUSH1 0x1 PUSH1 0x40 SHL SUB DUP1 DUP3 GT ISZERO PUSH3 0x17E JUMPI PUSH1 0x0 DUP1 REVERT JUMPDEST PUSH3 0x18C DUP8 DUP4 DUP9 ADD PUSH3 0xA1 JUMP JUMPDEST SWAP5 POP PUSH1 0x20 DUP7 ADD MLOAD SWAP2 POP DUP1 DUP3 GT ISZERO PUSH3 0x1A3 JUMPI PUSH1 0x0 DUP1 REVERT JUMPDEST POP PUSH3 0x1B2 DUP7 DUP3 DUP8 ADD PUSH3 0xA1 JUMP JUMPDEST SWAP3 POP POP PUSH1 0x40 DUP5 ADD MLOAD SWAP1 POP SWAP3 POP SWAP3 POP SWAP3 JUMP JUMPDEST PUSH1 0x1 DUP2 DUP2 SHR SWAP1 DUP3 AND DUP1 PUSH3 0x1D8 JUMPI PUSH1 0x7F DUP3 AND SWAP2 POP JUMPDEST PUSH1 0x20 DUP3 LT DUP2 SUB PUSH3 0x1F9 JUMPI PUSH4 0x4E487B71 PUSH1 0xE0 SHL PUSH1 0x0 MSTORE PUSH1 0x22 PUSH1 0x4 MSTORE PUSH1 0x24 PUSH1 0x0 REVERT JUMPDEST POP SWAP2 SWAP1 POP JUMP JUMPDEST PUSH1 0x1F DUP3 GT ISZERO PUSH3 0x24D JUMPI PUSH1 0x0 DUP2 DUP2 MSTORE PUSH1 0x20 DUP2 KECCAK256 PUSH1 0x1F DUP6 ADD PUSH1 0x5 SHR DUP2 ADD PUSH1 0x20 DUP7 LT ISZERO PUSH3 0x228 JUMPI POP DUP1 JUMPDEST PUSH1 0x1F DUP6 ADD PUSH1 0x5 SHR DUP3 ADD SWAP2 POP JUMPDEST DUP2 DUP2 LT ISZERO PUSH3 0x249 JUMPI DUP3 DUP2 SSTORE PUSH1 0x1 ADD PUSH3 0x234 JUMP JUMPDEST POP POP POP JUMPDEST POP POP POP JUMP JUMPDEST DUP2 MLOAD PUSH1 0x1 PUSH1 0x1 PUSH1 0x40 SHL SUB DUP2 GT ISZERO PUSH3 0x26E JUMPI PUSH3 0x26E PUSH3 0x8B JUMP JUMPDEST PUSH3 0x286 DUP2 PUSH3 0x27F DUP5 SLOAD PUSH3 0x1C3 JUMP JUMPDEST DUP5 PUSH3 0x1FF JUMP JUMPDEST PUSH1 0x20 DUP1 PUSH1 0x1F DUP4 GT PUSH1 0x1 DUP2 EQ PUSH3 0x2BE JUMPI PUSH1 0x0 DUP5 ISZERO PUSH3 0x2A5 JUMPI POP DUP6 DUP4 ADD MLOAD JUMPDEST PUSH1 0x0 NOT PUSH1 0x3 DUP7 SWAP1 SHL SHR NOT AND PUSH1 0x1 DUP6 SWAP1 SHL OR DUP6 SSTORE PUSH3 0x249 JUMP JUMPDEST PUSH1 0x0 DUP6 DUP2 MSTORE PUSH1 0x20 DUP2 KECCAK256 PUSH1 0x1F NOT DUP7 AND SWAP2 JUMPDEST DUP3 DUP2 LT ISZERO PUSH3 0x2EF JUMPI DUP9 DUP7 ADD MLOAD DUP3 SSTORE SWAP5 DUP5 ADD SWAP5 PUSH1 0x1 SWAP1 SWAP2 ADD SWAP1 DUP5 ADD PUSH3 0x2CE JUMP JUMPDEST POP DUP6 DUP3 LT ISZERO PUSH3 0x30E JUMPI DUP8 DUP6 ADD MLOAD PUSH1 0x0 NOT PUSH1 0x3 DUP9 SWAP1 SHL PUSH1 0xF8 AND SHR NOT AND DUP2 SSTORE JUMPDEST POP POP POP POP POP PUSH1 0x1 SWAP1 DUP2 SHL ADD SWAP1 SSTORE POP JUMP JUMPDEST PUSH2 0x7C8 DUP1 PUSH3 0x32E PUSH1 0x0 CODECOPY PUSH1 0x0 RETURN INVALID PUSH1 0x80 PUSH1 0x40 MSTORE CALLVALUE DUP1 ISZERO PUSH2 0x10 JUMPI PUSH1 0x0 DUP1 REVERT JUMPDEST POP PUSH1 0x4 CALLDATASIZE LT PUSH2 0xA9 JUMPI PUSH1 0x0 CALLDATALOAD PUSH1 0xE0 SHR DUP1 PUSH4 0x42966C68 GT PUSH2 0x71 JUMPI DUP1 PUSH4 0x42966C68 EQ PUSH2 0x11D JUMPI DUP1 PUSH4 0x70A08231 EQ PUSH2 0x130 JUMPI DUP1 PUSH4 0x95D89B41 EQ PUSH2 0x159 JUMPI DUP1 PUSH4 0xA0712D68 EQ PUSH2 0x161 JUMPI DUP1 PUSH4 0xA9059CBB EQ PUSH2 0x174 JUMPI DUP1 PUSH4 0xDD62ED3E EQ PUSH2 0x187 JUMPI PUSH1 0x0 DUP1 REVERT JUMPDEST DUP1 PUSH4 0x6FDDE03 EQ PUSH2 0xAE JUMPI DUP1 PUSH4 0x95EA7B3 EQ PUSH2 0xCC JUMPI DUP1 PUSH4 0x18160DDD EQ PUSH2 0xEF JUMPI DUP1 PUSH4 0x23B872DD EQ PUSH2 0x101 JUMPI DUP1 PUSH4 0x313CE567 EQ PUSH2 0x114 JUMPI JUMPDEST PUSH1 0x0 DUP1 REVERT JUMPDEST PUSH2 0xB6 PUSH2 0x1C0 JUMP JUMPDEST PUSH1 0x40 MLOAD PUSH2 0xC3 SWAP2 SWAP1 PUSH2 0x5E3 JUMP JUMPDEST PUSH1 0x40 MLOAD DUP1 SWAP2 SUB SWAP1 RETURN JUMPDEST PUSH2 0xDF PUSH2 0xDA CALLDATASIZE PUSH1 0x4 PUSH2 0x648 JUMP JUMPDEST PUSH2 0x24E JUMP JUMPDEST PUSH1 0x40 MLOAD SWAP1 ISZERO ISZERO DUP2 MSTORE PUSH1 0x20 ADD PUSH2 0xC3 JUMP JUMPDEST PUSH1 0x3 SLOAD JUMPDEST PUSH1 0x40 MLOAD SWAP1 DUP2 MSTORE PUSH1 0x20 ADD PUSH2 0xC3 JUMP JUMPDEST PUSH2 0xDF PUSH2 0x10F CALLDATASIZE PUSH1 0x4 PUSH2 0x672 JUMP JUMPDEST PUSH2 0x2BB JUMP JUMPDEST PUSH2 0xF3 PUSH1 0x2 SLOAD DUP2 JUMP JUMPDEST PUSH2 0xF3 PUSH2 0x12B CALLDATASIZE PUSH1 0x4 PUSH2 0x6AE JUMP JUMPDEST PUSH2 0x3F1 JUMP JUMPDEST PUSH2 0xF3 PUSH2 0x13E CALLDATASIZE PUSH1 0x4 PUSH2 0x6C7 JUMP JUMPDEST PUSH1 0x1 PUSH1 0x1 PUSH1 0xA0 SHL SUB AND PUSH1 0x0 SWAP1 DUP2 MSTORE PUSH1 0x5 PUSH1 0x20 MSTORE PUSH1 0x40 SWAP1 KECCAK256 SLOAD SWAP1 JUMP JUMPDEST PUSH2 0xB6 PUSH2 0x499 JUMP JUMPDEST PUSH2 0xF3 PUSH2 0x16F CALLDATASIZE PUSH1 0x4 PUSH2 0x6AE JUMP JUMPDEST PUSH2 0x4A6 JUMP JUMPDEST PUSH2 0xDF PUSH2 0x182 CALLDATASIZE PUSH1 0x4 PUSH2 0x648 JUMP JUMPDEST PUSH2 0x539 JUMP JUMPDEST PUSH2 0xF3 PUSH2 0x195 CALLDATASIZE PUSH1 0x4 PUSH2 0x6E9 JUMP JUMPDEST PUSH1 0x1 PUSH1 0x1 PUSH1 0xA0 SHL SUB SWAP2 DUP3 AND PUSH1 0x0 SWAP1 DUP2 MSTORE PUSH1 0x6 PUSH1 0x20 SWAP1 DUP2 MSTORE PUSH1 0x40 DUP1 DUP4 KECCAK256 SWAP4 SWAP1 SWAP5 AND DUP3 MSTORE SWAP2 SWAP1 SWAP2 MSTORE KECCAK256 SLOAD SWAP1 JUMP JUMPDEST PUSH1 0x0 DUP1 SLOAD PUSH2 0x1CD SWAP1 PUSH2 0x71C JUMP JUMPDEST DUP1 PUSH1 0x1F ADD PUSH1 0x20 DUP1 SWAP2 DIV MUL PUSH1 0x20 ADD PUSH1 0x40 MLOAD SWAP1 DUP2 ADD PUSH1 0x40 MSTORE DUP1 SWAP3 SWAP2 SWAP1 DUP2 DUP2 MSTORE PUSH1 0x20 ADD DUP3 DUP1 SLOAD PUSH2 0x1F9 SWAP1 PUSH2 0x71C JUMP JUMPDEST DUP1 ISZERO PUSH2 0x246 JUMPI DUP1 PUSH1 0x1F LT PUSH2 0x21B JUMPI PUSH2 0x100 DUP1 DUP4 SLOAD DIV MUL DUP4 MSTORE SWAP2 PUSH1 0x20 ADD SWAP2 PUSH2 0x246 JUMP JUMPDEST DUP3 ADD SWAP2 SWAP1 PUSH1 0x0 MSTORE PUSH1 0x20 PUSH1 0x0 KECCAK256 SWAP1 JUMPDEST DUP2 SLOAD DUP2 MSTORE SWAP1 PUSH1 0x1 ADD SWAP1 PUSH1 0x20 ADD DUP1 DUP4 GT PUSH2 0x229 JUMPI DUP3 SWAP1 SUB PUSH1 0x1F AND DUP3 ADD SWAP2 JUMPDEST POP POP POP POP POP DUP2 JUMP JUMPDEST CALLER PUSH1 0x0 DUP2 DUP2 MSTORE PUSH1 0x6 PUSH1 0x20 SWAP1 DUP2 MSTORE PUSH1 0x40 DUP1 DUP4 KECCAK256 PUSH1 0x1 PUSH1 0x1 PUSH1 0xA0 SHL SUB DUP8 AND DUP1 DUP6 MSTORE SWAP3 MSTORE DUP1 DUP4 KECCAK256 DUP6 SWAP1 SSTORE MLOAD SWAP2 SWAP3 SWAP1 SWAP2 PUSH32 0x8C5BE1E5EBEC7D5BD14F71427D1E84F3DD0314C0F7B2291E5B200AC8C7C3B925 SWAP1 PUSH2 0x2A9 SWAP1 DUP7 DUP2 MSTORE PUSH1 0x20 ADD SWAP1 JUMP JUMPDEST PUSH1 0x40 MLOAD DUP1 SWAP2 SUB SWAP1 LOG3 POP PUSH1 0x1 JUMPDEST SWAP3 SWAP2 POP POP JUMP JUMPDEST PUSH1 0x1 PUSH1 0x1 PUSH1 0xA0 SHL SUB DUP4 AND PUSH1 0x0 DUP2 DUP2 MSTORE PUSH1 0x6 PUSH1 0x20 SWAP1 DUP2 MSTORE PUSH1 0x40 DUP1 DUP4 KECCAK256 CALLER DUP5 MSTORE DUP3 MSTORE DUP1 DUP4 KECCAK256 SLOAD SWAP4 DUP4 MSTORE PUSH1 0x5 SWAP1 SWAP2 MSTORE DUP2 KECCAK256 SLOAD SWAP1 SWAP2 SWAP1 DUP4 GT DUP1 ISZERO SWAP1 PUSH2 0x2FC JUMPI POP DUP3 DUP2 LT ISZERO JUMPDEST PUSH2 0x305 JUMPI PUSH1 0x0 DUP1 REVERT JUMPDEST PUSH1 0x1 PUSH1 0x1 PUSH1 0xA0 SHL SUB DUP5 AND PUSH1 0x0 SWAP1 DUP2 MSTORE PUSH1 0x5 PUSH1 0x20 MSTORE PUSH1 0x40 DUP2 KECCAK256 DUP1 SLOAD DUP6 SWAP3 SWAP1 PUSH2 0x32D SWAP1 DUP5 SWAP1 PUSH2 0x76C JUMP JUMPDEST SWAP1 SWAP2 SSTORE POP POP PUSH1 0x1 PUSH1 0x1 PUSH1 0xA0 SHL SUB DUP6 AND PUSH1 0x0 SWAP1 DUP2 MSTORE PUSH1 0x5 PUSH1 0x20 MSTORE PUSH1 0x40 DUP2 KECCAK256 DUP1 SLOAD DUP6 SWAP3 SWAP1 PUSH2 0x35A SWAP1 DUP5 SWAP1 PUSH2 0x77F JUMP JUMPDEST SWAP1 SWAP2 SSTORE POP POP PUSH1 0x1 PUSH1 0x1 PUSH1 0xA0 SHL SUB DUP6 AND PUSH1 0x0 SWAP1 DUP2 MSTORE PUSH1 0x6 PUSH1 0x20 SWAP1 DUP2 MSTORE PUSH1 0x40 DUP1 DUP4 KECCAK256 CALLER DUP5 MSTORE SWAP1 SWAP2 MSTORE DUP2 KECCAK256 DUP1 SLOAD DUP6 SWAP3 SWAP1 PUSH2 0x392 SWAP1 DUP5 SWAP1 PUSH2 0x77F JUMP JUMPDEST SWAP3 POP POP DUP2 SWAP1 SSTORE POP DUP4 PUSH1 0x1 PUSH1 0x1 PUSH1 0xA0 SHL SUB AND DUP6 PUSH1 0x1 PUSH1 0x1 PUSH1 0xA0 SHL SUB AND PUSH32 0xDDF252AD1BE2C89B69C2B068FC378DAA952BA7F163C4A11628F55A4DF523B3EF DUP6 PUSH1 0x40 MLOAD PUSH2 0x3DE SWAP2 DUP2 MSTORE PUSH1 0x20 ADD SWAP1 JUMP JUMPDEST PUSH1 0x40 MLOAD DUP1 SWAP2 SUB SWAP1 LOG3 POP PUSH1 0x1 SWAP5 SWAP4 POP POP POP POP JUMP JUMPDEST PUSH1 0x4 SLOAD PUSH1 0x0 SWAP1 PUSH1 0x1 PUSH1 0x1 PUSH1 0xA0 SHL SUB AND CALLER EQ PUSH2 0x453 JUMPI PUSH1 0x40 MLOAD PUSH3 0x461BCD PUSH1 0xE5 SHL DUP2 MSTORE PUSH1 0x20 PUSH1 0x4 DUP3 ADD DUP2 SWAP1 MSTORE PUSH1 0x24 DUP3 ADD MSTORE PUSH32 0x6F6E6C792061646D696E2063616E2072756E20746869732066756E6374696F6E PUSH1 0x44 DUP3 ADD MSTORE PUSH1 0x64 ADD JUMPDEST PUSH1 0x40 MLOAD DUP1 SWAP2 SUB SWAP1 REVERT JUMPDEST DUP2 PUSH1 0x3 PUSH1 0x0 DUP3 DUP3 SLOAD PUSH2 0x465 SWAP2 SWAP1 PUSH2 0x77F JUMP JUMPDEST SWAP1 SWAP2 SSTORE POP POP CALLER PUSH1 0x0 SWAP1 DUP2 MSTORE PUSH1 0x5 PUSH1 0x20 MSTORE PUSH1 0x40 DUP2 KECCAK256 DUP1 SLOAD DUP5 SWAP3 SWAP1 PUSH2 0x489 SWAP1 DUP5 SWAP1 PUSH2 0x77F JUMP JUMPDEST SWAP1 SWAP2 SSTORE POP POP PUSH1 0x3 SLOAD SWAP1 POP JUMPDEST SWAP2 SWAP1 POP JUMP JUMPDEST PUSH1 0x1 DUP1 SLOAD PUSH2 0x1CD SWAP1 PUSH2 0x71C JUMP JUMPDEST PUSH1 0x4 SLOAD PUSH1 0x0 SWAP1 PUSH1 0x1 PUSH1 0x1 PUSH1 0xA0 SHL SUB AND CALLER EQ PUSH2 0x503 JUMPI PUSH1 0x40 MLOAD PUSH3 0x461BCD PUSH1 0xE5 SHL DUP2 MSTORE PUSH1 0x20 PUSH1 0x4 DUP3 ADD DUP2 SWAP1 MSTORE PUSH1 0x24 DUP3 ADD MSTORE PUSH32 0x6F6E6C792061646D696E2063616E2072756E20746869732066756E6374696F6E PUSH1 0x44 DUP3 ADD MSTORE PUSH1 0x64 ADD PUSH2 0x44A JUMP JUMPDEST DUP2 PUSH1 0x3 PUSH1 0x0 DUP3 DUP3 SLOAD PUSH2 0x515 SWAP2 SWAP1 PUSH2 0x76C JUMP JUMPDEST SWAP1 SWAP2 SSTORE POP POP CALLER PUSH1 0x0 SWAP1 DUP2 MSTORE PUSH1 0x5 PUSH1 0x20 MSTORE PUSH1 0x40 DUP2 KECCAK256 DUP1 SLOAD DUP5 SWAP3 SWAP1 PUSH2 0x489 SWAP1 DUP5 SWAP1 PUSH2 0x76C JUMP JUMPDEST CALLER PUSH1 0x0 SWAP1 DUP2 MSTORE PUSH1 0x5 PUSH1 0x20 MSTORE PUSH1 0x40 DUP2 KECCAK256 SLOAD DUP3 GT ISZERO PUSH2 0x555 JUMPI PUSH1 0x0 DUP1 REVERT JUMPDEST CALLER PUSH1 0x0 SWAP1 DUP2 MSTORE PUSH1 0x5 PUSH1 0x20 MSTORE PUSH1 0x40 DUP2 KECCAK256 DUP1 SLOAD DUP5 SWAP3 SWAP1 PUSH2 0x574 SWAP1 DUP5 SWAP1 PUSH2 0x77F JUMP JUMPDEST SWAP1 SWAP2 SSTORE POP POP PUSH1 0x1 PUSH1 0x1 PUSH1 0xA0 SHL SUB DUP4 AND PUSH1 0x0 SWAP1 DUP2 MSTORE PUSH1 0x5 PUSH1 0x20 MSTORE PUSH1 0x40 DUP2 KECCAK256 DUP1 SLOAD DUP5 SWAP3 SWAP1 PUSH2 0x5A1 SWAP1 DUP5 SWAP1 PUSH2 0x76C JUMP JUMPDEST SWAP1 SWAP2 SSTORE POP POP PUSH1 0x40 MLOAD DUP3 DUP2 MSTORE PUSH1 0x1 PUSH1 0x1 PUSH1 0xA0 SHL SUB DUP5 AND SWAP1 CALLER SWAP1 PUSH32 0xDDF252AD1BE2C89B69C2B068FC378DAA952BA7F163C4A11628F55A4DF523B3EF SWAP1 PUSH1 0x20 ADD PUSH2 0x2A9 JUMP JUMPDEST PUSH1 0x0 PUSH1 0x20 DUP1 DUP4 MSTORE DUP4 MLOAD DUP1 DUP3 DUP6 ADD MSTORE PUSH1 0x0 JUMPDEST DUP2 DUP2 LT ISZERO PUSH2 0x610 JUMPI DUP6 DUP2 ADD DUP4 ADD MLOAD DUP6 DUP3 ADD PUSH1 0x40 ADD MSTORE DUP3 ADD PUSH2 0x5F4 JUMP JUMPDEST POP PUSH1 0x0 PUSH1 0x40 DUP3 DUP7 ADD ADD MSTORE PUSH1 0x40 PUSH1 0x1F NOT PUSH1 0x1F DUP4 ADD AND DUP6 ADD ADD SWAP3 POP POP POP SWAP3 SWAP2 POP POP JUMP JUMPDEST DUP1 CALLDATALOAD PUSH1 0x1 PUSH1 0x1 PUSH1 0xA0 SHL SUB DUP2 AND DUP2 EQ PUSH2 0x494 JUMPI PUSH1 0x0 DUP1 REVERT JUMPDEST PUSH1 0x0 DUP1 PUSH1 0x40 DUP4 DUP6 SUB SLT ISZERO PUSH2 0x65B JUMPI PUSH1 0x0 DUP1 REVERT JUMPDEST PUSH2 0x664 DUP4 PUSH2 0x631 JUMP JUMPDEST SWAP5 PUSH1 0x20 SWAP4 SWAP1 SWAP4 ADD CALLDATALOAD SWAP4 POP POP POP JUMP JUMPDEST PUSH1 0x0 DUP1 PUSH1 0x0 PUSH1 0x60 DUP5 DUP7 SUB SLT ISZERO PUSH2 0x687 JUMPI PUSH1 0x0 DUP1 REVERT JUMPDEST PUSH2 0x690 DUP5 PUSH2 0x631 JUMP JUMPDEST SWAP3 POP PUSH2 0x69E PUSH1 0x20 DUP6 ADD PUSH2 0x631 JUMP JUMPDEST SWAP2 POP PUSH1 0x40 DUP5 ADD CALLDATALOAD SWAP1 POP SWAP3 POP SWAP3 POP SWAP3 JUMP JUMPDEST PUSH1 0x0 PUSH1 0x20 DUP3 DUP5 SUB SLT ISZERO PUSH2 0x6C0 JUMPI PUSH1 0x0 DUP1 REVERT JUMPDEST POP CALLDATALOAD SWAP2 SWAP1 POP JUMP JUMPDEST PUSH1 0x0 PUSH1 0x20 DUP3 DUP5 SUB SLT ISZERO PUSH2 0x6D9 JUMPI PUSH1 0x0 DUP1 REVERT JUMPDEST PUSH2 0x6E2 DUP3 PUSH2 0x631 JUMP JUMPDEST SWAP4 SWAP3 POP POP POP JUMP JUMPDEST PUSH1 0x0 DUP1 PUSH1 0x40 DUP4 DUP6 SUB SLT ISZERO PUSH2 0x6FC JUMPI PUSH1 0x0 DUP1 REVERT JUMPDEST PUSH2 0x705 DUP4 PUSH2 0x631 JUMP JUMPDEST SWAP2 POP PUSH2 0x713 PUSH1 0x20 DUP5 ADD PUSH2 0x631 JUMP JUMPDEST SWAP1 POP SWAP3 POP SWAP3 SWAP1 POP JUMP JUMPDEST PUSH1 0x1 DUP2 DUP2 SHR SWAP1 DUP3 AND DUP1 PUSH2 0x730 JUMPI PUSH1 0x7F DUP3 AND SWAP2 POP JUMPDEST PUSH1 0x20 DUP3 LT DUP2 SUB PUSH2 0x750 JUMPI PUSH4 0x4E487B71 PUSH1 0xE0 SHL PUSH1 0x0 MSTORE PUSH1 0x22 PUSH1 0x4 MSTORE PUSH1 0x24 PUSH1 0x0 REVERT JUMPDEST POP SWAP2 SWAP1 POP JUMP JUMPDEST PUSH4 0x4E487B71 PUSH1 0xE0 SHL PUSH1 0x0 MSTORE PUSH1 0x11 PUSH1 0x4 MSTORE PUSH1 0x24 PUSH1 0x0 REVERT JUMPDEST DUP1 DUP3 ADD DUP1 DUP3 GT ISZERO PUSH2 0x2B5 JUMPI PUSH2 0x2B5 PUSH2 0x756 JUMP JUMPDEST DUP2 DUP2 SUB DUP2 DUP2 GT ISZERO PUSH2 0x2B5 JUMPI PUSH2 0x2B5 PUSH2 0x756 JUMP INVALID LOG2 PUSH5 0x6970667358 0x22 SLT KECCAK256 0x2E 0x27 PUSH30 0x23A514228F7E064DB7C98A4100E6B4282A75AF3E12316C8636770936164 PUSH20 0x6F6C63430008140033A26469706673582212207C 0xB9 0xE9 CALLVALUE EXTCODESIZE PUSH14 0x24F4B06FA742F4E7650C9E623080 0xA6 DUP8 0xB5 DUP13 0xBB 0xF9 KECCAK256 0xE7 0xD4 JUMP DELEGATECALL 0x22 PUSH5 0x736F6C6343 STOP ADDMOD EQ STOP CALLER "
		},
		"gasEstimates": {
			"creation": {
				"codeDepositCost": "1134800",
				"executionCost": "1180",
				"totalCost": "1135980"
			},
			"external": {
				"createPair(string,string,uint256,string,string,uint256)": "infinite",
				"depositLiquidity(uint256,uint256)": "26765",
				"liquidityProviders(uint256,uint256)": "6888",
				"pairDetails(uint256)": "infinite"
			}
		},
		"methodIdentifiers": {
			"createPair(string,string,uint256,string,string,uint256)": "4fba4607",
			"depositLiquidity(uint256,uint256)": "34a860e4",
			"liquidityProviders(uint256,uint256)": "6cae9e3b",
			"pairDetails(uint256)": "5b3a7232"
		}
	},
	"abi": [
		{
			"inputs": [
				{
					"internalType": "string",
					"name": "_token0Name",
					"type": "string"
				},
				{
					"internalType": "string",
					"name": "_token0symbol",
					"type": "string"
				},
				{
					"internalType": "uint256",
					"name": "_token0totalSupply",
					"type": "uint256"
				},
				{
					"internalType": "string",
					"name": "_token1Name",
					"type": "string"
				},
				{
					"internalType": "string",
					"name": "_token1symbol",
					"type": "string"
				},
				{
					"internalType": "uint256",
					"name": "_token1totalSupply",
					"type": "uint256"
				}
			],
			"name": "createPair",
			"outputs": [
				{
					"components": [
						{
							"internalType": "contract erc20",
							"name": "token0",
							"type": "address"
						},
						{
							"internalType": "contract erc20",
							"name": "token1",
							"type": "address"
						},
						{
							"internalType": "string",
							"name": "token0Name",
							"type": "string"
						},
						{
							"internalType": "string",
							"name": "token1Name",
							"type": "string"
						},
						{
							"internalType": "uint256",
							"name": "reserve0",
							"type": "uint256"
						},
						{
							"internalType": "uint256",
							"name": "reserve1",
							"type": "uint256"
						},
						{
							"internalType": "uint256",
							"name": "Timestamp",
							"type": "uint256"
						},
						{
							"components": [
								{
									"internalType": "uint256",
									"name": "token0Amount",
									"type": "uint256"
								},
								{
									"internalType": "uint256",
									"name": "token1Amount",
									"type": "uint256"
								},
								{
									"internalType": "address",
									"name": "liquidityProviderAddress",
									"type": "address"
								}
							],
							"internalType": "struct Pair.Liquidity[]",
							"name": "liquidity",
							"type": "tuple[]"
						}
					],
					"internalType": "struct Pair.pairdata",
					"name": "",
					"type": "tuple"
				}
			],
			"stateMutability": "nonpayable",
			"type": "function"
		},
		{
			"inputs": [
				{
					"internalType": "uint256",
					"name": "_token0Amount",
					"type": "uint256"
				},
				{
					"internalType": "uint256",
					"name": "_token1Amount",
					"type": "uint256"
				}
			],
			"name": "depositLiquidity",
			"outputs": [
				{
					"internalType": "uint256",
					"name": "",
					"type": "uint256"
				}
			],
			"stateMutability": "nonpayable",
			"type": "function"
		},
		{
			"inputs": [
				{
					"internalType": "uint256",
					"name": "",
					"type": "uint256"
				},
				{
					"internalType": "uint256",
					"name": "",
					"type": "uint256"
				}
			],
			"name": "liquidityProviders",
			"outputs": [
				{
					"internalType": "uint256",
					"name": "token0Amount",
					"type": "uint256"
				},
				{
					"internalType": "uint256",
					"name": "token1Amount",
					"type": "uint256"
				},
				{
					"internalType": "address",
					"name": "liquidityProviderAddress",
					"type": "address"
				}
			],
			"stateMutability": "view",
			"type": "function"
		},
		{
			"inputs": [
				{
					"internalType": "uint256",
					"name": "",
					"type": "uint256"
				}
			],
			"name": "pairDetails",
			"outputs": [
				{
					"internalType": "contract erc20",
					"name": "token0",
					"type": "address"
				},
				{
					"internalType": "contract erc20",
					"name": "token1",
					"type": "address"
				},
				{
					"internalType": "string",
					"name": "token0Name",
					"type": "string"
				},
				{
					"internalType": "string",
					"name": "token1Name",
					"type": "string"
				},
				{
					"internalType": "uint256",
					"name": "reserve0",
					"type": "uint256"
				},
				{
					"internalType": "uint256",
					"name": "reserve1",
					"type": "uint256"
				},
				{
					"internalType": "uint256",
					"name": "Timestamp",
					"type": "uint256"
				}
			],
			"stateMutability": "view",
			"type": "function"
		}
	]
}