{
	"data": {
		"bytecode": {
			"linkReferences": {},
			"object": "608060405234801561001057600080fd5b50611e74806100206000396000f3fe60806040523480156200001157600080fd5b50600436106200005e5760003560e01c80630a861f2a14620000635780634fba4607146200007c5780635b3a723214620000ab578063c5cb360414620000d7578063f9c8b9561462000142575b600080fd5b6200007a6200007436600462000d08565b62000159565b005b620000936200008d36600462000dcd565b62000391565b604051620000a2919062000f3d565b60405180910390f35b620000c2620000bc36600462000d08565b620006c0565b604051620000a2979695949392919062000ffb565b6200011d620000e83660046200105d565b60056020908152600092835260408084209091529082529020805460018201546002909201549091906001600160a01b031683565b6040805193845260208401929092526001600160a01b031690820152606001620000a2565b6200007a6200015336600462001097565b62000828565b33600090815260056020908152604080832084845290915290206001810154905416620001d75760405162461bcd60e51b815260206004820152602160248201527f596f75206861766527742070726f766964656420746865206c697175696469746044820152607960f81b60648201526084015b60405180910390fd5b600254336000818152600560209081526040808320868452909152908190205490516323b872dd60e01b81526001600160a01b03909316926323b872dd9262000225923092600401620010c4565b6020604051808303816000875af115801562000245573d6000803e3d6000fd5b505050506040513d601f19601f820116820180604052508101906200026b9190620010e8565b50600354336000818152600560209081526040808320868452909152908190206001015490516323b872dd60e01b81526001600160a01b03909316926323b872dd92620002bd923092600401620010c4565b6020604051808303816000875af1158015620002dd573d6000803e3d6000fd5b505050506040513d601f19601f82011682018060405250810190620003039190620010e8565b5033600090815260056020908152604080832084845282528083205460015484526004928390529083209091018054919290916200034390849062001129565b9091555050336000908152600560208181526040808420858552825280842060019081015490548552600490925283209091018054919290916200038990849062001129565b909155505050565b620003ec60405180610100016040528060006001600160a01b0316815260200160006001600160a01b031681526020016060815260200160608152602001600081526020016000815260200160008152602001606081525090565b868686604051620003fd9062000cfa565b6200040b9392919062001145565b604051809103906000f08015801562000428573d6000803e3d6000fd5b50600260006101000a8154816001600160a01b0302191690836001600160a01b03160217905550838383604051620004609062000cfa565b6200046e9392919062001145565b604051809103906000f0801580156200048b573d6000803e3d6000fd5b50600380546001600160a01b0319166001600160a01b039290921691909117905560018054906000620004be836200117f565b9091555050600280546001805460009081526004602052604080822080546001600160a01b039586166001600160a01b0319918216179091556003548454845282842085018054919096169116179093559054815220016200052188826200122a565b5060015460009081526004602052604090206003016200054285826200122a565b506001546000908152600460208190526040918290204260069091015560025491516370a0823160e01b815230918101919091526001600160a01b03909116906370a0823190602401602060405180830381865afa158015620005a9573d6000803e3d6000fd5b505050506040513d601f19601f82011682018060405250810190620005cf9190620012f7565b60015460009081526004602081905260409182902081019290925560035490516370a0823160e01b815230928101929092526001600160a01b0316906370a0823190602401602060405180830381865afa15801562000632573d6000803e3d6000fd5b505050506040513d601f19601f82011682018060405250810190620006589190620012f7565b600180546000908152600460209081526040808320600590810195909555338084529482528083208454845290915280822098909855815481528781208201949094555483529490912060020180546001600160a01b03191690941790935550909392505050565b6004602052600090815260409020805460018201546002830180546001600160a01b03938416949290931692620006f7906200119b565b80601f016020809104026020016040519081016040528092919081815260200182805462000725906200119b565b8015620007765780601f106200074a5761010080835404028352916020019162000776565b820191906000526020600020905b8154815290600101906020018083116200075857829003601f168201915b5050505050908060030180546200078d906200119b565b80601f0160208091040260200160405190810160405280929190818152602001828054620007bb906200119b565b80156200080c5780601f10620007e0576101008083540402835291602001916200080c565b820191906000526020600020905b815481529060010190602001808311620007ee57829003601f168201915b5050505050908060040154908060050154908060060154905087565b6002546040516340c10f1960e01b8152336004820152602481018590526001600160a01b03909116906340c10f19906044016020604051808303816000875af11580156200087a573d6000803e3d6000fd5b505050506040513d601f19601f82011682018060405250810190620008a09190620012f7565b506003546040516340c10f1960e01b8152336004820152602481018490526001600160a01b03909116906340c10f19906044016020604051808303816000875af1158015620008f3573d6000803e3d6000fd5b505050506040513d601f19601f82011682018060405250810190620009199190620012f7565b506000831180156200092b5750600082115b6200098d5760405162461bcd60e51b815260206004820152602b60248201527f4465706f736974656420616d6f756e7473206d7573742062652067726561746560448201526a72207468616e207a65726f60a81b6064820152608401620001ce565b6002546040516370a0823160e01b81523360048201526000916001600160a01b0316906370a0823190602401602060405180830381865afa158015620009d7573d6000803e3d6000fd5b505050506040513d601f19601f82011682018060405250810190620009fd9190620012f7565b1162000a4c5760405162461bcd60e51b815260206004820181905260248201527f42616c616e63652073686f756c642062652067726561746572207468616e20306044820152606401620001ce565b60025460405163e1f21c6760e01b81526001600160a01b039091169063e1f21c679062000a8290339030908890600401620010c4565b6020604051808303816000875af115801562000aa2573d6000803e3d6000fd5b505050506040513d601f19601f8201168201806040525081019062000ac89190620010e8565b506002546040516323b872dd60e01b81526001600160a01b03909116906323b872dd9062000aff90339030908890600401620010c4565b6020604051808303816000875af115801562000b1f573d6000803e3d6000fd5b505050506040513d601f19601f8201168201806040525081019062000b459190620010e8565b5033600090815260056020908152604080832084845282528083208690556001548352600491829052822001805485929062000b8390849062001311565b909155505060035460405163e1f21c6760e01b81526001600160a01b039091169063e1f21c679062000bbe90339030908790600401620010c4565b6020604051808303816000875af115801562000bde573d6000803e3d6000fd5b505050506040513d601f19601f8201168201806040525081019062000c049190620010e8565b506003546040516323b872dd60e01b81526001600160a01b03909116906323b872dd9062000c3b90339030908790600401620010c4565b6020604051808303816000875af115801562000c5b573d6000803e3d6000fd5b505050506040513d601f19601f8201168201806040525081019062000c819190620010e8565b50336000908152600560208181526040808420858552825280842060019081018790555484526004909152822001805484929062000cc190849062001311565b90915550503360008181526005602090815260408083209483529390529190912060020180546001600160a01b03191690911790555050565b610b17806200132883390190565b60006020828403121562000d1b57600080fd5b5035919050565b634e487b7160e01b600052604160045260246000fd5b600082601f83011262000d4a57600080fd5b813567ffffffffffffffff8082111562000d685762000d6862000d22565b604051601f8301601f19908116603f0116810190828211818310171562000d935762000d9362000d22565b8160405283815286602085880101111562000dad57600080fd5b836020870160208301376000602085830101528094505050505092915050565b60008060008060008060c0878903121562000de757600080fd5b863567ffffffffffffffff8082111562000e0057600080fd5b62000e0e8a838b0162000d38565b9750602089013591508082111562000e2557600080fd5b62000e338a838b0162000d38565b965060408901359550606089013591508082111562000e5157600080fd5b62000e5f8a838b0162000d38565b9450608089013591508082111562000e7657600080fd5b5062000e8589828a0162000d38565b92505060a087013590509295509295509295565b6000815180845260005b8181101562000ec15760208185018101518683018201520162000ea3565b506000602082860101526020601f19601f83011685010191505092915050565b600081518084526020808501945080840160005b8381101562000f325781518051885283810151848901526040908101516001600160a01b0316908801526060909601959082019060010162000ef5565b509495945050505050565b6020815262000f586020820183516001600160a01b03169052565b6000602083015162000f7560408401826001600160a01b03169052565b50604083015161010080606085015262000f9461012085018362000e99565b91506060850151601f198086850301608087015262000fb4848362000e99565b9350608087015160a087015260a087015160c087015260c087015160e087015260e087015191508086850301838701525062000ff1838262000ee1565b9695505050505050565b6001600160a01b0388811682528716602082015260e060408201819052600090620010299083018862000e99565b82810360608401526200103d818862000e99565b6080840196909652505060a081019290925260c090910152949350505050565b600080604083850312156200107157600080fd5b82356001600160a01b03811681146200108957600080fd5b946020939093013593505050565b600080600060608486031215620010ad57600080fd5b505081359360208301359350604090920135919050565b6001600160a01b039384168152919092166020820152604081019190915260600190565b600060208284031215620010fb57600080fd5b815180151581146200110c57600080fd5b9392505050565b634e487b7160e01b600052601160045260246000fd5b818103818111156200113f576200113f62001113565b92915050565b6060815260006200115a606083018662000e99565b82810360208401526200116e818662000e99565b915050826040830152949350505050565b60006001820162001194576200119462001113565b5060010190565b600181811c90821680620011b057607f821691505b602082108103620011d157634e487b7160e01b600052602260045260246000fd5b50919050565b601f8211156200122557600081815260208120601f850160051c81016020861015620012005750805b601f850160051c820191505b8181101562001221578281556001016200120c565b5050505b505050565b815167ffffffffffffffff81111562001247576200124762000d22565b6200125f816200125884546200119b565b84620011d7565b602080601f8311600181146200129757600084156200127e5750858301515b600019600386901b1c1916600185901b17855562001221565b600085815260208120601f198616915b82811015620012c857888601518255948401946001909101908401620012a7565b5085821015620012e75787850151600019600388901b60f8161c191681555b5050505050600190811b01905550565b6000602082840312156200130a57600080fd5b5051919050565b808201808211156200113f576200113f6200111356fe608060405260126002553480156200001657600080fd5b5060405162000b1738038062000b17833981016040819052620000399162000150565b600062000047848262000252565b50600162000056838262000252565b50600381905533600081815260056020526040902091909155600480546001600160a01b0319169091179055506200031e9050565b634e487b7160e01b600052604160045260246000fd5b600082601f830112620000b357600080fd5b81516001600160401b0380821115620000d057620000d06200008b565b604051601f8301601f19908116603f01168101908282118183101715620000fb57620000fb6200008b565b816040528381526020925086838588010111156200011857600080fd5b600091505b838210156200013c57858201830151818301840152908201906200011d565b600093810190920192909252949350505050565b6000806000606084860312156200016657600080fd5b83516001600160401b03808211156200017e57600080fd5b6200018c87838801620000a1565b94506020860151915080821115620001a357600080fd5b50620001b286828701620000a1565b925050604084015190509250925092565b600181811c90821680620001d857607f821691505b602082108103620001f957634e487b7160e01b600052602260045260246000fd5b50919050565b601f8211156200024d57600081815260208120601f850160051c81016020861015620002285750805b601f850160051c820191505b81811015620002495782815560010162000234565b5050505b505050565b81516001600160401b038111156200026e576200026e6200008b565b62000286816200027f8454620001c3565b84620001ff565b602080601f831160018114620002be5760008415620002a55750858301515b600019600386901b1c1916600185901b17855562000249565b600085815260208120601f198616915b82811015620002ef57888601518255948401946001909101908401620002ce565b50858210156200030e5787850151600019600388901b60f8161c191681555b5050505050600190811b01905550565b6107e9806200032e6000396000f3fe608060405234801561001057600080fd5b50600436106100a95760003560e01c806342966c681161007157806342966c681461011d57806370a082311461013057806395d89b4114610159578063a9059cbb14610161578063dd62ed3e14610174578063e1f21c67146101ad57600080fd5b806306fdde03146100ae57806318160ddd146100cc57806323b872dd146100de578063313ce5671461010157806340c10f191461010a575b600080fd5b6100b66101c0565b6040516100c39190610604565b60405180910390f35b6003545b6040519081526020016100c3565b6100f16100ec366004610669565b61024e565b60405190151581526020016100c3565b6100d060025481565b6100d06101183660046106a5565b610384565b6100d061012b3660046106cf565b610436565b6100d061013e3660046106e8565b6001600160a01b031660009081526005602052604090205490565b6100b66104d9565b6100f161016f3660046106a5565b6104e6565b6100d061018236600461070a565b6001600160a01b03918216600090815260066020908152604080832093909416825291909152205490565b6100f16101bb366004610669565b61059c565b600080546101cd9061073d565b80601f01602080910402602001604051908101604052809291908181526020018280546101f99061073d565b80156102465780601f1061021b57610100808354040283529160200191610246565b820191906000526020600020905b81548152906001019060200180831161022957829003601f168201915b505050505081565b6001600160a01b03831660008181526006602090815260408083203384528252808320549383526005909152812054909190831180159061028f5750828110155b61029857600080fd5b6001600160a01b038416600090815260056020526040812080548592906102c090849061078d565b90915550506001600160a01b038516600090815260056020526040812080548592906102ed9084906107a0565b90915550506001600160a01b0385166000908152600660209081526040808320338452909152812080548592906103259084906107a0565b92505081905550836001600160a01b0316856001600160a01b03167fddf252ad1be2c89b69c2b068fc378daa952ba7f163c4a11628f55a4df523b3ef8560405161037191815260200190565b60405180910390a3506001949350505050565b6004546000906001600160a01b031633146103e65760405162461bcd60e51b815260206004820181905260248201527f6f6e6c792061646d696e2063616e2072756e20746869732066756e6374696f6e60448201526064015b60405180910390fd5b81600360008282546103f8919061078d565b90915550506001600160a01b0383166000908152600560205260408120805484929061042590849061078d565b909155505060035490505b92915050565b6004546000906001600160a01b031633146104935760405162461bcd60e51b815260206004820181905260248201527f6f6e6c792061646d696e2063616e2072756e20746869732066756e6374696f6e60448201526064016103dd565b81600360008282546104a591906107a0565b909155505033600090815260056020526040812080548492906104c99084906107a0565b909155505060035490505b919050565b600180546101cd9061073d565b3360009081526005602052604081205482111561050257600080fd5b33600090815260056020526040812080548492906105219084906107a0565b90915550506001600160a01b0383166000908152600560205260408120805484929061054e90849061078d565b90915550506040518281526001600160a01b0384169033907fddf252ad1be2c89b69c2b068fc378daa952ba7f163c4a11628f55a4df523b3ef9060200160405180910390a350600192915050565b6001600160a01b03838116600081815260066020908152604080832094871680845294825280832086905551858152919392917f8c5be1e5ebec7d5bd14f71427d1e84f3dd0314c0f7b2291e5b200ac8c7c3b925910160405180910390a35060019392505050565b600060208083528351808285015260005b8181101561063157858101830151858201604001528201610615565b506000604082860101526040601f19601f8301168501019250505092915050565b80356001600160a01b03811681146104d457600080fd5b60008060006060848603121561067e57600080fd5b61068784610652565b925061069560208501610652565b9150604084013590509250925092565b600080604083850312156106b857600080fd5b6106c183610652565b946020939093013593505050565b6000602082840312156106e157600080fd5b5035919050565b6000602082840312156106fa57600080fd5b61070382610652565b9392505050565b6000806040838503121561071d57600080fd5b61072683610652565b915061073460208401610652565b90509250929050565b600181811c9082168061075157607f821691505b60208210810361077157634e487b7160e01b600052602260045260246000fd5b50919050565b634e487b7160e01b600052601160045260246000fd5b8082018082111561043057610430610777565b818103818111156104305761043061077756fea2646970667358221220d892ff620a294bf84b74c31550c451861f06f0bcfee98bf2cf13aa0d4dd6f1fc64736f6c63430008140033a2646970667358221220a4a1545134d4a0c414f6db015479b90be8e8b88b9f5c5601836aaca9d8e341cc64736f6c63430008140033",
			"opcodes": "PUSH1 0x80 PUSH1 0x40 MSTORE CALLVALUE DUP1 ISZERO PUSH2 0x10 JUMPI PUSH1 0x0 DUP1 REVERT JUMPDEST POP PUSH2 0x1E74 DUP1 PUSH2 0x20 PUSH1 0x0 CODECOPY PUSH1 0x0 RETURN INVALID PUSH1 0x80 PUSH1 0x40 MSTORE CALLVALUE DUP1 ISZERO PUSH3 0x11 JUMPI PUSH1 0x0 DUP1 REVERT JUMPDEST POP PUSH1 0x4 CALLDATASIZE LT PUSH3 0x5E JUMPI PUSH1 0x0 CALLDATALOAD PUSH1 0xE0 SHR DUP1 PUSH4 0xA861F2A EQ PUSH3 0x63 JUMPI DUP1 PUSH4 0x4FBA4607 EQ PUSH3 0x7C JUMPI DUP1 PUSH4 0x5B3A7232 EQ PUSH3 0xAB JUMPI DUP1 PUSH4 0xC5CB3604 EQ PUSH3 0xD7 JUMPI DUP1 PUSH4 0xF9C8B956 EQ PUSH3 0x142 JUMPI JUMPDEST PUSH1 0x0 DUP1 REVERT JUMPDEST PUSH3 0x7A PUSH3 0x74 CALLDATASIZE PUSH1 0x4 PUSH3 0xD08 JUMP JUMPDEST PUSH3 0x159 JUMP JUMPDEST STOP JUMPDEST PUSH3 0x93 PUSH3 0x8D CALLDATASIZE PUSH1 0x4 PUSH3 0xDCD JUMP JUMPDEST PUSH3 0x391 JUMP JUMPDEST PUSH1 0x40 MLOAD PUSH3 0xA2 SWAP2 SWAP1 PUSH3 0xF3D JUMP JUMPDEST PUSH1 0x40 MLOAD DUP1 SWAP2 SUB SWAP1 RETURN JUMPDEST PUSH3 0xC2 PUSH3 0xBC CALLDATASIZE PUSH1 0x4 PUSH3 0xD08 JUMP JUMPDEST PUSH3 0x6C0 JUMP JUMPDEST PUSH1 0x40 MLOAD PUSH3 0xA2 SWAP8 SWAP7 SWAP6 SWAP5 SWAP4 SWAP3 SWAP2 SWAP1 PUSH3 0xFFB JUMP JUMPDEST PUSH3 0x11D PUSH3 0xE8 CALLDATASIZE PUSH1 0x4 PUSH3 0x105D JUMP JUMPDEST PUSH1 0x5 PUSH1 0x20 SWAP1 DUP2 MSTORE PUSH1 0x0 SWAP3 DUP4 MSTORE PUSH1 0x40 DUP1 DUP5 KECCAK256 SWAP1 SWAP2 MSTORE SWAP1 DUP3 MSTORE SWAP1 KECCAK256 DUP1 SLOAD PUSH1 0x1 DUP3 ADD SLOAD PUSH1 0x2 SWAP1 SWAP3 ADD SLOAD SWAP1 SWAP2 SWAP1 PUSH1 0x1 PUSH1 0x1 PUSH1 0xA0 SHL SUB AND DUP4 JUMP JUMPDEST PUSH1 0x40 DUP1 MLOAD SWAP4 DUP5 MSTORE PUSH1 0x20 DUP5 ADD SWAP3 SWAP1 SWAP3 MSTORE PUSH1 0x1 PUSH1 0x1 PUSH1 0xA0 SHL SUB AND SWAP1 DUP3 ADD MSTORE PUSH1 0x60 ADD PUSH3 0xA2 JUMP JUMPDEST PUSH3 0x7A PUSH3 0x153 CALLDATASIZE PUSH1 0x4 PUSH3 0x1097 JUMP JUMPDEST PUSH3 0x828 JUMP JUMPDEST CALLER PUSH1 0x0 SWAP1 DUP2 MSTORE PUSH1 0x5 PUSH1 0x20 SWAP1 DUP2 MSTORE PUSH1 0x40 DUP1 DUP4 KECCAK256 DUP5 DUP5 MSTORE SWAP1 SWAP2 MSTORE SWAP1 KECCAK256 PUSH1 0x1 DUP2 ADD SLOAD SWAP1 SLOAD AND PUSH3 0x1D7 JUMPI PUSH1 0x40 MLOAD PUSH3 0x461BCD PUSH1 0xE5 SHL DUP2 MSTORE PUSH1 0x20 PUSH1 0x4 DUP3 ADD MSTORE PUSH1 0x21 PUSH1 0x24 DUP3 ADD MSTORE PUSH32 0x596F75206861766527742070726F766964656420746865206C69717569646974 PUSH1 0x44 DUP3 ADD MSTORE PUSH1 0x79 PUSH1 0xF8 SHL PUSH1 0x64 DUP3 ADD MSTORE PUSH1 0x84 ADD JUMPDEST PUSH1 0x40 MLOAD DUP1 SWAP2 SUB SWAP1 REVERT JUMPDEST PUSH1 0x2 SLOAD CALLER PUSH1 0x0 DUP2 DUP2 MSTORE PUSH1 0x5 PUSH1 0x20 SWAP1 DUP2 MSTORE PUSH1 0x40 DUP1 DUP4 KECCAK256 DUP7 DUP5 MSTORE SWAP1 SWAP2 MSTORE SWAP1 DUP2 SWAP1 KECCAK256 SLOAD SWAP1 MLOAD PUSH4 0x23B872DD PUSH1 0xE0 SHL DUP2 MSTORE PUSH1 0x1 PUSH1 0x1 PUSH1 0xA0 SHL SUB SWAP1 SWAP4 AND SWAP3 PUSH4 0x23B872DD SWAP3 PUSH3 0x225 SWAP3 ADDRESS SWAP3 PUSH1 0x4 ADD PUSH3 0x10C4 JUMP JUMPDEST PUSH1 0x20 PUSH1 0x40 MLOAD DUP1 DUP4 SUB DUP2 PUSH1 0x0 DUP8 GAS CALL ISZERO DUP1 ISZERO PUSH3 0x245 JUMPI RETURNDATASIZE PUSH1 0x0 DUP1 RETURNDATACOPY RETURNDATASIZE PUSH1 0x0 REVERT JUMPDEST POP POP POP POP PUSH1 0x40 MLOAD RETURNDATASIZE PUSH1 0x1F NOT PUSH1 0x1F DUP3 ADD AND DUP3 ADD DUP1 PUSH1 0x40 MSTORE POP DUP2 ADD SWAP1 PUSH3 0x26B SWAP2 SWAP1 PUSH3 0x10E8 JUMP JUMPDEST POP PUSH1 0x3 SLOAD CALLER PUSH1 0x0 DUP2 DUP2 MSTORE PUSH1 0x5 PUSH1 0x20 SWAP1 DUP2 MSTORE PUSH1 0x40 DUP1 DUP4 KECCAK256 DUP7 DUP5 MSTORE SWAP1 SWAP2 MSTORE SWAP1 DUP2 SWAP1 KECCAK256 PUSH1 0x1 ADD SLOAD SWAP1 MLOAD PUSH4 0x23B872DD PUSH1 0xE0 SHL DUP2 MSTORE PUSH1 0x1 PUSH1 0x1 PUSH1 0xA0 SHL SUB SWAP1 SWAP4 AND SWAP3 PUSH4 0x23B872DD SWAP3 PUSH3 0x2BD SWAP3 ADDRESS SWAP3 PUSH1 0x4 ADD PUSH3 0x10C4 JUMP JUMPDEST PUSH1 0x20 PUSH1 0x40 MLOAD DUP1 DUP4 SUB DUP2 PUSH1 0x0 DUP8 GAS CALL ISZERO DUP1 ISZERO PUSH3 0x2DD JUMPI RETURNDATASIZE PUSH1 0x0 DUP1 RETURNDATACOPY RETURNDATASIZE PUSH1 0x0 REVERT JUMPDEST POP POP POP POP PUSH1 0x40 MLOAD RETURNDATASIZE PUSH1 0x1F NOT PUSH1 0x1F DUP3 ADD AND DUP3 ADD DUP1 PUSH1 0x40 MSTORE POP DUP2 ADD SWAP1 PUSH3 0x303 SWAP2 SWAP1 PUSH3 0x10E8 JUMP JUMPDEST POP CALLER PUSH1 0x0 SWAP1 DUP2 MSTORE PUSH1 0x5 PUSH1 0x20 SWAP1 DUP2 MSTORE PUSH1 0x40 DUP1 DUP4 KECCAK256 DUP5 DUP5 MSTORE DUP3 MSTORE DUP1 DUP4 KECCAK256 SLOAD PUSH1 0x1 SLOAD DUP5 MSTORE PUSH1 0x4 SWAP3 DUP4 SWAP1 MSTORE SWAP1 DUP4 KECCAK256 SWAP1 SWAP2 ADD DUP1 SLOAD SWAP2 SWAP3 SWAP1 SWAP2 PUSH3 0x343 SWAP1 DUP5 SWAP1 PUSH3 0x1129 JUMP JUMPDEST SWAP1 SWAP2 SSTORE POP POP CALLER PUSH1 0x0 SWAP1 DUP2 MSTORE PUSH1 0x5 PUSH1 0x20 DUP2 DUP2 MSTORE PUSH1 0x40 DUP1 DUP5 KECCAK256 DUP6 DUP6 MSTORE DUP3 MSTORE DUP1 DUP5 KECCAK256 PUSH1 0x1 SWAP1 DUP2 ADD SLOAD SWAP1 SLOAD DUP6 MSTORE PUSH1 0x4 SWAP1 SWAP3 MSTORE DUP4 KECCAK256 SWAP1 SWAP2 ADD DUP1 SLOAD SWAP2 SWAP3 SWAP1 SWAP2 PUSH3 0x389 SWAP1 DUP5 SWAP1 PUSH3 0x1129 JUMP JUMPDEST SWAP1 SWAP2 SSTORE POP POP POP JUMP JUMPDEST PUSH3 0x3EC PUSH1 0x40 MLOAD DUP1 PUSH2 0x100 ADD PUSH1 0x40 MSTORE DUP1 PUSH1 0x0 PUSH1 0x1 PUSH1 0x1 PUSH1 0xA0 SHL SUB AND DUP2 MSTORE PUSH1 0x20 ADD PUSH1 0x0 PUSH1 0x1 PUSH1 0x1 PUSH1 0xA0 SHL SUB AND DUP2 MSTORE PUSH1 0x20 ADD PUSH1 0x60 DUP2 MSTORE PUSH1 0x20 ADD PUSH1 0x60 DUP2 MSTORE PUSH1 0x20 ADD PUSH1 0x0 DUP2 MSTORE PUSH1 0x20 ADD PUSH1 0x0 DUP2 MSTORE PUSH1 0x20 ADD PUSH1 0x0 DUP2 MSTORE PUSH1 0x20 ADD PUSH1 0x60 DUP2 MSTORE POP SWAP1 JUMP JUMPDEST DUP7 DUP7 DUP7 PUSH1 0x40 MLOAD PUSH3 0x3FD SWAP1 PUSH3 0xCFA JUMP JUMPDEST PUSH3 0x40B SWAP4 SWAP3 SWAP2 SWAP1 PUSH3 0x1145 JUMP JUMPDEST PUSH1 0x40 MLOAD DUP1 SWAP2 SUB SWAP1 PUSH1 0x0 CREATE DUP1 ISZERO DUP1 ISZERO PUSH3 0x428 JUMPI RETURNDATASIZE PUSH1 0x0 DUP1 RETURNDATACOPY RETURNDATASIZE PUSH1 0x0 REVERT JUMPDEST POP PUSH1 0x2 PUSH1 0x0 PUSH2 0x100 EXP DUP2 SLOAD DUP2 PUSH1 0x1 PUSH1 0x1 PUSH1 0xA0 SHL SUB MUL NOT AND SWAP1 DUP4 PUSH1 0x1 PUSH1 0x1 PUSH1 0xA0 SHL SUB AND MUL OR SWAP1 SSTORE POP DUP4 DUP4 DUP4 PUSH1 0x40 MLOAD PUSH3 0x460 SWAP1 PUSH3 0xCFA JUMP JUMPDEST PUSH3 0x46E SWAP4 SWAP3 SWAP2 SWAP1 PUSH3 0x1145 JUMP JUMPDEST PUSH1 0x40 MLOAD DUP1 SWAP2 SUB SWAP1 PUSH1 0x0 CREATE DUP1 ISZERO DUP1 ISZERO PUSH3 0x48B JUMPI RETURNDATASIZE PUSH1 0x0 DUP1 RETURNDATACOPY RETURNDATASIZE PUSH1 0x0 REVERT JUMPDEST POP PUSH1 0x3 DUP1 SLOAD PUSH1 0x1 PUSH1 0x1 PUSH1 0xA0 SHL SUB NOT AND PUSH1 0x1 PUSH1 0x1 PUSH1 0xA0 SHL SUB SWAP3 SWAP1 SWAP3 AND SWAP2 SWAP1 SWAP2 OR SWAP1 SSTORE PUSH1 0x1 DUP1 SLOAD SWAP1 PUSH1 0x0 PUSH3 0x4BE DUP4 PUSH3 0x117F JUMP JUMPDEST SWAP1 SWAP2 SSTORE POP POP PUSH1 0x2 DUP1 SLOAD PUSH1 0x1 DUP1 SLOAD PUSH1 0x0 SWAP1 DUP2 MSTORE PUSH1 0x4 PUSH1 0x20 MSTORE PUSH1 0x40 DUP1 DUP3 KECCAK256 DUP1 SLOAD PUSH1 0x1 PUSH1 0x1 PUSH1 0xA0 SHL SUB SWAP6 DUP7 AND PUSH1 0x1 PUSH1 0x1 PUSH1 0xA0 SHL SUB NOT SWAP2 DUP3 AND OR SWAP1 SWAP2 SSTORE PUSH1 0x3 SLOAD DUP5 SLOAD DUP5 MSTORE DUP3 DUP5 KECCAK256 DUP6 ADD DUP1 SLOAD SWAP2 SWAP1 SWAP7 AND SWAP2 AND OR SWAP1 SWAP4 SSTORE SWAP1 SLOAD DUP2 MSTORE KECCAK256 ADD PUSH3 0x521 DUP9 DUP3 PUSH3 0x122A JUMP JUMPDEST POP PUSH1 0x1 SLOAD PUSH1 0x0 SWAP1 DUP2 MSTORE PUSH1 0x4 PUSH1 0x20 MSTORE PUSH1 0x40 SWAP1 KECCAK256 PUSH1 0x3 ADD PUSH3 0x542 DUP6 DUP3 PUSH3 0x122A JUMP JUMPDEST POP PUSH1 0x1 SLOAD PUSH1 0x0 SWAP1 DUP2 MSTORE PUSH1 0x4 PUSH1 0x20 DUP2 SWAP1 MSTORE PUSH1 0x40 SWAP2 DUP3 SWAP1 KECCAK256 TIMESTAMP PUSH1 0x6 SWAP1 SWAP2 ADD SSTORE PUSH1 0x2 SLOAD SWAP2 MLOAD PUSH4 0x70A08231 PUSH1 0xE0 SHL DUP2 MSTORE ADDRESS SWAP2 DUP2 ADD SWAP2 SWAP1 SWAP2 MSTORE PUSH1 0x1 PUSH1 0x1 PUSH1 0xA0 SHL SUB SWAP1 SWAP2 AND SWAP1 PUSH4 0x70A08231 SWAP1 PUSH1 0x24 ADD PUSH1 0x20 PUSH1 0x40 MLOAD DUP1 DUP4 SUB DUP2 DUP7 GAS STATICCALL ISZERO DUP1 ISZERO PUSH3 0x5A9 JUMPI RETURNDATASIZE PUSH1 0x0 DUP1 RETURNDATACOPY RETURNDATASIZE PUSH1 0x0 REVERT JUMPDEST POP POP POP POP PUSH1 0x40 MLOAD RETURNDATASIZE PUSH1 0x1F NOT PUSH1 0x1F DUP3 ADD AND DUP3 ADD DUP1 PUSH1 0x40 MSTORE POP DUP2 ADD SWAP1 PUSH3 0x5CF SWAP2 SWAP1 PUSH3 0x12F7 JUMP JUMPDEST PUSH1 0x1 SLOAD PUSH1 0x0 SWAP1 DUP2 MSTORE PUSH1 0x4 PUSH1 0x20 DUP2 SWAP1 MSTORE PUSH1 0x40 SWAP2 DUP3 SWAP1 KECCAK256 DUP2 ADD SWAP3 SWAP1 SWAP3 SSTORE PUSH1 0x3 SLOAD SWAP1 MLOAD PUSH4 0x70A08231 PUSH1 0xE0 SHL DUP2 MSTORE ADDRESS SWAP3 DUP2 ADD SWAP3 SWAP1 SWAP3 MSTORE PUSH1 0x1 PUSH1 0x1 PUSH1 0xA0 SHL SUB AND SWAP1 PUSH4 0x70A08231 SWAP1 PUSH1 0x24 ADD PUSH1 0x20 PUSH1 0x40 MLOAD DUP1 DUP4 SUB DUP2 DUP7 GAS STATICCALL ISZERO DUP1 ISZERO PUSH3 0x632 JUMPI RETURNDATASIZE PUSH1 0x0 DUP1 RETURNDATACOPY RETURNDATASIZE PUSH1 0x0 REVERT JUMPDEST POP POP POP POP PUSH1 0x40 MLOAD RETURNDATASIZE PUSH1 0x1F NOT PUSH1 0x1F DUP3 ADD AND DUP3 ADD DUP1 PUSH1 0x40 MSTORE POP DUP2 ADD SWAP1 PUSH3 0x658 SWAP2 SWAP1 PUSH3 0x12F7 JUMP JUMPDEST PUSH1 0x1 DUP1 SLOAD PUSH1 0x0 SWAP1 DUP2 MSTORE PUSH1 0x4 PUSH1 0x20 SWAP1 DUP2 MSTORE PUSH1 0x40 DUP1 DUP4 KECCAK256 PUSH1 0x5 SWAP1 DUP2 ADD SWAP6 SWAP1 SWAP6 SSTORE CALLER DUP1 DUP5 MSTORE SWAP5 DUP3 MSTORE DUP1 DUP4 KECCAK256 DUP5 SLOAD DUP5 MSTORE SWAP1 SWAP2 MSTORE DUP1 DUP3 KECCAK256 SWAP9 SWAP1 SWAP9 SSTORE DUP2 SLOAD DUP2 MSTORE DUP8 DUP2 KECCAK256 DUP3 ADD SWAP5 SWAP1 SWAP5 SSTORE SLOAD DUP4 MSTORE SWAP5 SWAP1 SWAP2 KECCAK256 PUSH1 0x2 ADD DUP1 SLOAD PUSH1 0x1 PUSH1 0x1 PUSH1 0xA0 SHL SUB NOT AND SWAP1 SWAP5 OR SWAP1 SWAP4 SSTORE POP SWAP1 SWAP4 SWAP3 POP POP POP JUMP JUMPDEST PUSH1 0x4 PUSH1 0x20 MSTORE PUSH1 0x0 SWAP1 DUP2 MSTORE PUSH1 0x40 SWAP1 KECCAK256 DUP1 SLOAD PUSH1 0x1 DUP3 ADD SLOAD PUSH1 0x2 DUP4 ADD DUP1 SLOAD PUSH1 0x1 PUSH1 0x1 PUSH1 0xA0 SHL SUB SWAP4 DUP5 AND SWAP5 SWAP3 SWAP1 SWAP4 AND SWAP3 PUSH3 0x6F7 SWAP1 PUSH3 0x119B JUMP JUMPDEST DUP1 PUSH1 0x1F ADD PUSH1 0x20 DUP1 SWAP2 DIV MUL PUSH1 0x20 ADD PUSH1 0x40 MLOAD SWAP1 DUP2 ADD PUSH1 0x40 MSTORE DUP1 SWAP3 SWAP2 SWAP1 DUP2 DUP2 MSTORE PUSH1 0x20 ADD DUP3 DUP1 SLOAD PUSH3 0x725 SWAP1 PUSH3 0x119B JUMP JUMPDEST DUP1 ISZERO PUSH3 0x776 JUMPI DUP1 PUSH1 0x1F LT PUSH3 0x74A JUMPI PUSH2 0x100 DUP1 DUP4 SLOAD DIV MUL DUP4 MSTORE SWAP2 PUSH1 0x20 ADD SWAP2 PUSH3 0x776 JUMP JUMPDEST DUP3 ADD SWAP2 SWAP1 PUSH1 0x0 MSTORE PUSH1 0x20 PUSH1 0x0 KECCAK256 SWAP1 JUMPDEST DUP2 SLOAD DUP2 MSTORE SWAP1 PUSH1 0x1 ADD SWAP1 PUSH1 0x20 ADD DUP1 DUP4 GT PUSH3 0x758 JUMPI DUP3 SWAP1 SUB PUSH1 0x1F AND DUP3 ADD SWAP2 JUMPDEST POP POP POP POP POP SWAP1 DUP1 PUSH1 0x3 ADD DUP1 SLOAD PUSH3 0x78D SWAP1 PUSH3 0x119B JUMP JUMPDEST DUP1 PUSH1 0x1F ADD PUSH1 0x20 DUP1 SWAP2 DIV MUL PUSH1 0x20 ADD PUSH1 0x40 MLOAD SWAP1 DUP2 ADD PUSH1 0x40 MSTORE DUP1 SWAP3 SWAP2 SWAP1 DUP2 DUP2 MSTORE PUSH1 0x20 ADD DUP3 DUP1 SLOAD PUSH3 0x7BB SWAP1 PUSH3 0x119B JUMP JUMPDEST DUP1 ISZERO PUSH3 0x80C JUMPI DUP1 PUSH1 0x1F LT PUSH3 0x7E0 JUMPI PUSH2 0x100 DUP1 DUP4 SLOAD DIV MUL DUP4 MSTORE SWAP2 PUSH1 0x20 ADD SWAP2 PUSH3 0x80C JUMP JUMPDEST DUP3 ADD SWAP2 SWAP1 PUSH1 0x0 MSTORE PUSH1 0x20 PUSH1 0x0 KECCAK256 SWAP1 JUMPDEST DUP2 SLOAD DUP2 MSTORE SWAP1 PUSH1 0x1 ADD SWAP1 PUSH1 0x20 ADD DUP1 DUP4 GT PUSH3 0x7EE JUMPI DUP3 SWAP1 SUB PUSH1 0x1F AND DUP3 ADD SWAP2 JUMPDEST POP POP POP POP POP SWAP1 DUP1 PUSH1 0x4 ADD SLOAD SWAP1 DUP1 PUSH1 0x5 ADD SLOAD SWAP1 DUP1 PUSH1 0x6 ADD SLOAD SWAP1 POP DUP8 JUMP JUMPDEST PUSH1 0x2 SLOAD PUSH1 0x40 MLOAD PUSH4 0x40C10F19 PUSH1 0xE0 SHL DUP2 MSTORE CALLER PUSH1 0x4 DUP3 ADD MSTORE PUSH1 0x24 DUP2 ADD DUP6 SWAP1 MSTORE PUSH1 0x1 PUSH1 0x1 PUSH1 0xA0 SHL SUB SWAP1 SWAP2 AND SWAP1 PUSH4 0x40C10F19 SWAP1 PUSH1 0x44 ADD PUSH1 0x20 PUSH1 0x40 MLOAD DUP1 DUP4 SUB DUP2 PUSH1 0x0 DUP8 GAS CALL ISZERO DUP1 ISZERO PUSH3 0x87A JUMPI RETURNDATASIZE PUSH1 0x0 DUP1 RETURNDATACOPY RETURNDATASIZE PUSH1 0x0 REVERT JUMPDEST POP POP POP POP PUSH1 0x40 MLOAD RETURNDATASIZE PUSH1 0x1F NOT PUSH1 0x1F DUP3 ADD AND DUP3 ADD DUP1 PUSH1 0x40 MSTORE POP DUP2 ADD SWAP1 PUSH3 0x8A0 SWAP2 SWAP1 PUSH3 0x12F7 JUMP JUMPDEST POP PUSH1 0x3 SLOAD PUSH1 0x40 MLOAD PUSH4 0x40C10F19 PUSH1 0xE0 SHL DUP2 MSTORE CALLER PUSH1 0x4 DUP3 ADD MSTORE PUSH1 0x24 DUP2 ADD DUP5 SWAP1 MSTORE PUSH1 0x1 PUSH1 0x1 PUSH1 0xA0 SHL SUB SWAP1 SWAP2 AND SWAP1 PUSH4 0x40C10F19 SWAP1 PUSH1 0x44 ADD PUSH1 0x20 PUSH1 0x40 MLOAD DUP1 DUP4 SUB DUP2 PUSH1 0x0 DUP8 GAS CALL ISZERO DUP1 ISZERO PUSH3 0x8F3 JUMPI RETURNDATASIZE PUSH1 0x0 DUP1 RETURNDATACOPY RETURNDATASIZE PUSH1 0x0 REVERT JUMPDEST POP POP POP POP PUSH1 0x40 MLOAD RETURNDATASIZE PUSH1 0x1F NOT PUSH1 0x1F DUP3 ADD AND DUP3 ADD DUP1 PUSH1 0x40 MSTORE POP DUP2 ADD SWAP1 PUSH3 0x919 SWAP2 SWAP1 PUSH3 0x12F7 JUMP JUMPDEST POP PUSH1 0x0 DUP4 GT DUP1 ISZERO PUSH3 0x92B JUMPI POP PUSH1 0x0 DUP3 GT JUMPDEST PUSH3 0x98D JUMPI PUSH1 0x40 MLOAD PUSH3 0x461BCD PUSH1 0xE5 SHL DUP2 MSTORE PUSH1 0x20 PUSH1 0x4 DUP3 ADD MSTORE PUSH1 0x2B PUSH1 0x24 DUP3 ADD MSTORE PUSH32 0x4465706F736974656420616D6F756E7473206D75737420626520677265617465 PUSH1 0x44 DUP3 ADD MSTORE PUSH11 0x72207468616E207A65726F PUSH1 0xA8 SHL PUSH1 0x64 DUP3 ADD MSTORE PUSH1 0x84 ADD PUSH3 0x1CE JUMP JUMPDEST PUSH1 0x2 SLOAD PUSH1 0x40 MLOAD PUSH4 0x70A08231 PUSH1 0xE0 SHL DUP2 MSTORE CALLER PUSH1 0x4 DUP3 ADD MSTORE PUSH1 0x0 SWAP2 PUSH1 0x1 PUSH1 0x1 PUSH1 0xA0 SHL SUB AND SWAP1 PUSH4 0x70A08231 SWAP1 PUSH1 0x24 ADD PUSH1 0x20 PUSH1 0x40 MLOAD DUP1 DUP4 SUB DUP2 DUP7 GAS STATICCALL ISZERO DUP1 ISZERO PUSH3 0x9D7 JUMPI RETURNDATASIZE PUSH1 0x0 DUP1 RETURNDATACOPY RETURNDATASIZE PUSH1 0x0 REVERT JUMPDEST POP POP POP POP PUSH1 0x40 MLOAD RETURNDATASIZE PUSH1 0x1F NOT PUSH1 0x1F DUP3 ADD AND DUP3 ADD DUP1 PUSH1 0x40 MSTORE POP DUP2 ADD SWAP1 PUSH3 0x9FD SWAP2 SWAP1 PUSH3 0x12F7 JUMP JUMPDEST GT PUSH3 0xA4C JUMPI PUSH1 0x40 MLOAD PUSH3 0x461BCD PUSH1 0xE5 SHL DUP2 MSTORE PUSH1 0x20 PUSH1 0x4 DUP3 ADD DUP2 SWAP1 MSTORE PUSH1 0x24 DUP3 ADD MSTORE PUSH32 0x42616C616E63652073686F756C642062652067726561746572207468616E2030 PUSH1 0x44 DUP3 ADD MSTORE PUSH1 0x64 ADD PUSH3 0x1CE JUMP JUMPDEST PUSH1 0x2 SLOAD PUSH1 0x40 MLOAD PUSH4 0xE1F21C67 PUSH1 0xE0 SHL DUP2 MSTORE PUSH1 0x1 PUSH1 0x1 PUSH1 0xA0 SHL SUB SWAP1 SWAP2 AND SWAP1 PUSH4 0xE1F21C67 SWAP1 PUSH3 0xA82 SWAP1 CALLER SWAP1 ADDRESS SWAP1 DUP9 SWAP1 PUSH1 0x4 ADD PUSH3 0x10C4 JUMP JUMPDEST PUSH1 0x20 PUSH1 0x40 MLOAD DUP1 DUP4 SUB DUP2 PUSH1 0x0 DUP8 GAS CALL ISZERO DUP1 ISZERO PUSH3 0xAA2 JUMPI RETURNDATASIZE PUSH1 0x0 DUP1 RETURNDATACOPY RETURNDATASIZE PUSH1 0x0 REVERT JUMPDEST POP POP POP POP PUSH1 0x40 MLOAD RETURNDATASIZE PUSH1 0x1F NOT PUSH1 0x1F DUP3 ADD AND DUP3 ADD DUP1 PUSH1 0x40 MSTORE POP DUP2 ADD SWAP1 PUSH3 0xAC8 SWAP2 SWAP1 PUSH3 0x10E8 JUMP JUMPDEST POP PUSH1 0x2 SLOAD PUSH1 0x40 MLOAD PUSH4 0x23B872DD PUSH1 0xE0 SHL DUP2 MSTORE PUSH1 0x1 PUSH1 0x1 PUSH1 0xA0 SHL SUB SWAP1 SWAP2 AND SWAP1 PUSH4 0x23B872DD SWAP1 PUSH3 0xAFF SWAP1 CALLER SWAP1 ADDRESS SWAP1 DUP9 SWAP1 PUSH1 0x4 ADD PUSH3 0x10C4 JUMP JUMPDEST PUSH1 0x20 PUSH1 0x40 MLOAD DUP1 DUP4 SUB DUP2 PUSH1 0x0 DUP8 GAS CALL ISZERO DUP1 ISZERO PUSH3 0xB1F JUMPI RETURNDATASIZE PUSH1 0x0 DUP1 RETURNDATACOPY RETURNDATASIZE PUSH1 0x0 REVERT JUMPDEST POP POP POP POP PUSH1 0x40 MLOAD RETURNDATASIZE PUSH1 0x1F NOT PUSH1 0x1F DUP3 ADD AND DUP3 ADD DUP1 PUSH1 0x40 MSTORE POP DUP2 ADD SWAP1 PUSH3 0xB45 SWAP2 SWAP1 PUSH3 0x10E8 JUMP JUMPDEST POP CALLER PUSH1 0x0 SWAP1 DUP2 MSTORE PUSH1 0x5 PUSH1 0x20 SWAP1 DUP2 MSTORE PUSH1 0x40 DUP1 DUP4 KECCAK256 DUP5 DUP5 MSTORE DUP3 MSTORE DUP1 DUP4 KECCAK256 DUP7 SWAP1 SSTORE PUSH1 0x1 SLOAD DUP4 MSTORE PUSH1 0x4 SWAP2 DUP3 SWAP1 MSTORE DUP3 KECCAK256 ADD DUP1 SLOAD DUP6 SWAP3 SWAP1 PUSH3 0xB83 SWAP1 DUP5 SWAP1 PUSH3 0x1311 JUMP JUMPDEST SWAP1 SWAP2 SSTORE POP POP PUSH1 0x3 SLOAD PUSH1 0x40 MLOAD PUSH4 0xE1F21C67 PUSH1 0xE0 SHL DUP2 MSTORE PUSH1 0x1 PUSH1 0x1 PUSH1 0xA0 SHL SUB SWAP1 SWAP2 AND SWAP1 PUSH4 0xE1F21C67 SWAP1 PUSH3 0xBBE SWAP1 CALLER SWAP1 ADDRESS SWAP1 DUP8 SWAP1 PUSH1 0x4 ADD PUSH3 0x10C4 JUMP JUMPDEST PUSH1 0x20 PUSH1 0x40 MLOAD DUP1 DUP4 SUB DUP2 PUSH1 0x0 DUP8 GAS CALL ISZERO DUP1 ISZERO PUSH3 0xBDE JUMPI RETURNDATASIZE PUSH1 0x0 DUP1 RETURNDATACOPY RETURNDATASIZE PUSH1 0x0 REVERT JUMPDEST POP POP POP POP PUSH1 0x40 MLOAD RETURNDATASIZE PUSH1 0x1F NOT PUSH1 0x1F DUP3 ADD AND DUP3 ADD DUP1 PUSH1 0x40 MSTORE POP DUP2 ADD SWAP1 PUSH3 0xC04 SWAP2 SWAP1 PUSH3 0x10E8 JUMP JUMPDEST POP PUSH1 0x3 SLOAD PUSH1 0x40 MLOAD PUSH4 0x23B872DD PUSH1 0xE0 SHL DUP2 MSTORE PUSH1 0x1 PUSH1 0x1 PUSH1 0xA0 SHL SUB SWAP1 SWAP2 AND SWAP1 PUSH4 0x23B872DD SWAP1 PUSH3 0xC3B SWAP1 CALLER SWAP1 ADDRESS SWAP1 DUP8 SWAP1 PUSH1 0x4 ADD PUSH3 0x10C4 JUMP JUMPDEST PUSH1 0x20 PUSH1 0x40 MLOAD DUP1 DUP4 SUB DUP2 PUSH1 0x0 DUP8 GAS CALL ISZERO DUP1 ISZERO PUSH3 0xC5B JUMPI RETURNDATASIZE PUSH1 0x0 DUP1 RETURNDATACOPY RETURNDATASIZE PUSH1 0x0 REVERT JUMPDEST POP POP POP POP PUSH1 0x40 MLOAD RETURNDATASIZE PUSH1 0x1F NOT PUSH1 0x1F DUP3 ADD AND DUP3 ADD DUP1 PUSH1 0x40 MSTORE POP DUP2 ADD SWAP1 PUSH3 0xC81 SWAP2 SWAP1 PUSH3 0x10E8 JUMP JUMPDEST POP CALLER PUSH1 0x0 SWAP1 DUP2 MSTORE PUSH1 0x5 PUSH1 0x20 DUP2 DUP2 MSTORE PUSH1 0x40 DUP1 DUP5 KECCAK256 DUP6 DUP6 MSTORE DUP3 MSTORE DUP1 DUP5 KECCAK256 PUSH1 0x1 SWAP1 DUP2 ADD DUP8 SWAP1 SSTORE SLOAD DUP5 MSTORE PUSH1 0x4 SWAP1 SWAP2 MSTORE DUP3 KECCAK256 ADD DUP1 SLOAD DUP5 SWAP3 SWAP1 PUSH3 0xCC1 SWAP1 DUP5 SWAP1 PUSH3 0x1311 JUMP JUMPDEST SWAP1 SWAP2 SSTORE POP POP CALLER PUSH1 0x0 DUP2 DUP2 MSTORE PUSH1 0x5 PUSH1 0x20 SWAP1 DUP2 MSTORE PUSH1 0x40 DUP1 DUP4 KECCAK256 SWAP5 DUP4 MSTORE SWAP4 SWAP1 MSTORE SWAP2 SWAP1 SWAP2 KECCAK256 PUSH1 0x2 ADD DUP1 SLOAD PUSH1 0x1 PUSH1 0x1 PUSH1 0xA0 SHL SUB NOT AND SWAP1 SWAP2 OR SWAP1 SSTORE POP POP JUMP JUMPDEST PUSH2 0xB17 DUP1 PUSH3 0x1328 DUP4 CODECOPY ADD SWAP1 JUMP JUMPDEST PUSH1 0x0 PUSH1 0x20 DUP3 DUP5 SUB SLT ISZERO PUSH3 0xD1B JUMPI PUSH1 0x0 DUP1 REVERT JUMPDEST POP CALLDATALOAD SWAP2 SWAP1 POP JUMP JUMPDEST PUSH4 0x4E487B71 PUSH1 0xE0 SHL PUSH1 0x0 MSTORE PUSH1 0x41 PUSH1 0x4 MSTORE PUSH1 0x24 PUSH1 0x0 REVERT JUMPDEST PUSH1 0x0 DUP3 PUSH1 0x1F DUP4 ADD SLT PUSH3 0xD4A JUMPI PUSH1 0x0 DUP1 REVERT JUMPDEST DUP2 CALLDATALOAD PUSH8 0xFFFFFFFFFFFFFFFF DUP1 DUP3 GT ISZERO PUSH3 0xD68 JUMPI PUSH3 0xD68 PUSH3 0xD22 JUMP JUMPDEST PUSH1 0x40 MLOAD PUSH1 0x1F DUP4 ADD PUSH1 0x1F NOT SWAP1 DUP2 AND PUSH1 0x3F ADD AND DUP2 ADD SWAP1 DUP3 DUP3 GT DUP2 DUP4 LT OR ISZERO PUSH3 0xD93 JUMPI PUSH3 0xD93 PUSH3 0xD22 JUMP JUMPDEST DUP2 PUSH1 0x40 MSTORE DUP4 DUP2 MSTORE DUP7 PUSH1 0x20 DUP6 DUP9 ADD ADD GT ISZERO PUSH3 0xDAD JUMPI PUSH1 0x0 DUP1 REVERT JUMPDEST DUP4 PUSH1 0x20 DUP8 ADD PUSH1 0x20 DUP4 ADD CALLDATACOPY PUSH1 0x0 PUSH1 0x20 DUP6 DUP4 ADD ADD MSTORE DUP1 SWAP5 POP POP POP POP POP SWAP3 SWAP2 POP POP JUMP JUMPDEST PUSH1 0x0 DUP1 PUSH1 0x0 DUP1 PUSH1 0x0 DUP1 PUSH1 0xC0 DUP8 DUP10 SUB SLT ISZERO PUSH3 0xDE7 JUMPI PUSH1 0x0 DUP1 REVERT JUMPDEST DUP7 CALLDATALOAD PUSH8 0xFFFFFFFFFFFFFFFF DUP1 DUP3 GT ISZERO PUSH3 0xE00 JUMPI PUSH1 0x0 DUP1 REVERT JUMPDEST PUSH3 0xE0E DUP11 DUP4 DUP12 ADD PUSH3 0xD38 JUMP JUMPDEST SWAP8 POP PUSH1 0x20 DUP10 ADD CALLDATALOAD SWAP2 POP DUP1 DUP3 GT ISZERO PUSH3 0xE25 JUMPI PUSH1 0x0 DUP1 REVERT JUMPDEST PUSH3 0xE33 DUP11 DUP4 DUP12 ADD PUSH3 0xD38 JUMP JUMPDEST SWAP7 POP PUSH1 0x40 DUP10 ADD CALLDATALOAD SWAP6 POP PUSH1 0x60 DUP10 ADD CALLDATALOAD SWAP2 POP DUP1 DUP3 GT ISZERO PUSH3 0xE51 JUMPI PUSH1 0x0 DUP1 REVERT JUMPDEST PUSH3 0xE5F DUP11 DUP4 DUP12 ADD PUSH3 0xD38 JUMP JUMPDEST SWAP5 POP PUSH1 0x80 DUP10 ADD CALLDATALOAD SWAP2 POP DUP1 DUP3 GT ISZERO PUSH3 0xE76 JUMPI PUSH1 0x0 DUP1 REVERT JUMPDEST POP PUSH3 0xE85 DUP10 DUP3 DUP11 ADD PUSH3 0xD38 JUMP JUMPDEST SWAP3 POP POP PUSH1 0xA0 DUP8 ADD CALLDATALOAD SWAP1 POP SWAP3 SWAP6 POP SWAP3 SWAP6 POP SWAP3 SWAP6 JUMP JUMPDEST PUSH1 0x0 DUP2 MLOAD DUP1 DUP5 MSTORE PUSH1 0x0 JUMPDEST DUP2 DUP2 LT ISZERO PUSH3 0xEC1 JUMPI PUSH1 0x20 DUP2 DUP6 ADD DUP2 ADD MLOAD DUP7 DUP4 ADD DUP3 ADD MSTORE ADD PUSH3 0xEA3 JUMP JUMPDEST POP PUSH1 0x0 PUSH1 0x20 DUP3 DUP7 ADD ADD MSTORE PUSH1 0x20 PUSH1 0x1F NOT PUSH1 0x1F DUP4 ADD AND DUP6 ADD ADD SWAP2 POP POP SWAP3 SWAP2 POP POP JUMP JUMPDEST PUSH1 0x0 DUP2 MLOAD DUP1 DUP5 MSTORE PUSH1 0x20 DUP1 DUP6 ADD SWAP5 POP DUP1 DUP5 ADD PUSH1 0x0 JUMPDEST DUP4 DUP2 LT ISZERO PUSH3 0xF32 JUMPI DUP2 MLOAD DUP1 MLOAD DUP9 MSTORE DUP4 DUP2 ADD MLOAD DUP5 DUP10 ADD MSTORE PUSH1 0x40 SWAP1 DUP2 ADD MLOAD PUSH1 0x1 PUSH1 0x1 PUSH1 0xA0 SHL SUB AND SWAP1 DUP9 ADD MSTORE PUSH1 0x60 SWAP1 SWAP7 ADD SWAP6 SWAP1 DUP3 ADD SWAP1 PUSH1 0x1 ADD PUSH3 0xEF5 JUMP JUMPDEST POP SWAP5 SWAP6 SWAP5 POP POP POP POP POP JUMP JUMPDEST PUSH1 0x20 DUP2 MSTORE PUSH3 0xF58 PUSH1 0x20 DUP3 ADD DUP4 MLOAD PUSH1 0x1 PUSH1 0x1 PUSH1 0xA0 SHL SUB AND SWAP1 MSTORE JUMP JUMPDEST PUSH1 0x0 PUSH1 0x20 DUP4 ADD MLOAD PUSH3 0xF75 PUSH1 0x40 DUP5 ADD DUP3 PUSH1 0x1 PUSH1 0x1 PUSH1 0xA0 SHL SUB AND SWAP1 MSTORE JUMP JUMPDEST POP PUSH1 0x40 DUP4 ADD MLOAD PUSH2 0x100 DUP1 PUSH1 0x60 DUP6 ADD MSTORE PUSH3 0xF94 PUSH2 0x120 DUP6 ADD DUP4 PUSH3 0xE99 JUMP JUMPDEST SWAP2 POP PUSH1 0x60 DUP6 ADD MLOAD PUSH1 0x1F NOT DUP1 DUP7 DUP6 SUB ADD PUSH1 0x80 DUP8 ADD MSTORE PUSH3 0xFB4 DUP5 DUP4 PUSH3 0xE99 JUMP JUMPDEST SWAP4 POP PUSH1 0x80 DUP8 ADD MLOAD PUSH1 0xA0 DUP8 ADD MSTORE PUSH1 0xA0 DUP8 ADD MLOAD PUSH1 0xC0 DUP8 ADD MSTORE PUSH1 0xC0 DUP8 ADD MLOAD PUSH1 0xE0 DUP8 ADD MSTORE PUSH1 0xE0 DUP8 ADD MLOAD SWAP2 POP DUP1 DUP7 DUP6 SUB ADD DUP4 DUP8 ADD MSTORE POP PUSH3 0xFF1 DUP4 DUP3 PUSH3 0xEE1 JUMP JUMPDEST SWAP7 SWAP6 POP POP POP POP POP POP JUMP JUMPDEST PUSH1 0x1 PUSH1 0x1 PUSH1 0xA0 SHL SUB DUP9 DUP2 AND DUP3 MSTORE DUP8 AND PUSH1 0x20 DUP3 ADD MSTORE PUSH1 0xE0 PUSH1 0x40 DUP3 ADD DUP2 SWAP1 MSTORE PUSH1 0x0 SWAP1 PUSH3 0x1029 SWAP1 DUP4 ADD DUP9 PUSH3 0xE99 JUMP JUMPDEST DUP3 DUP2 SUB PUSH1 0x60 DUP5 ADD MSTORE PUSH3 0x103D DUP2 DUP9 PUSH3 0xE99 JUMP JUMPDEST PUSH1 0x80 DUP5 ADD SWAP7 SWAP1 SWAP7 MSTORE POP POP PUSH1 0xA0 DUP2 ADD SWAP3 SWAP1 SWAP3 MSTORE PUSH1 0xC0 SWAP1 SWAP2 ADD MSTORE SWAP5 SWAP4 POP POP POP POP JUMP JUMPDEST PUSH1 0x0 DUP1 PUSH1 0x40 DUP4 DUP6 SUB SLT ISZERO PUSH3 0x1071 JUMPI PUSH1 0x0 DUP1 REVERT JUMPDEST DUP3 CALLDATALOAD PUSH1 0x1 PUSH1 0x1 PUSH1 0xA0 SHL SUB DUP2 AND DUP2 EQ PUSH3 0x1089 JUMPI PUSH1 0x0 DUP1 REVERT JUMPDEST SWAP5 PUSH1 0x20 SWAP4 SWAP1 SWAP4 ADD CALLDATALOAD SWAP4 POP POP POP JUMP JUMPDEST PUSH1 0x0 DUP1 PUSH1 0x0 PUSH1 0x60 DUP5 DUP7 SUB SLT ISZERO PUSH3 0x10AD JUMPI PUSH1 0x0 DUP1 REVERT JUMPDEST POP POP DUP2 CALLDATALOAD SWAP4 PUSH1 0x20 DUP4 ADD CALLDATALOAD SWAP4 POP PUSH1 0x40 SWAP1 SWAP3 ADD CALLDATALOAD SWAP2 SWAP1 POP JUMP JUMPDEST PUSH1 0x1 PUSH1 0x1 PUSH1 0xA0 SHL SUB SWAP4 DUP5 AND DUP2 MSTORE SWAP2 SWAP1 SWAP3 AND PUSH1 0x20 DUP3 ADD MSTORE PUSH1 0x40 DUP2 ADD SWAP2 SWAP1 SWAP2 MSTORE PUSH1 0x60 ADD SWAP1 JUMP JUMPDEST PUSH1 0x0 PUSH1 0x20 DUP3 DUP5 SUB SLT ISZERO PUSH3 0x10FB JUMPI PUSH1 0x0 DUP1 REVERT JUMPDEST DUP2 MLOAD DUP1 ISZERO ISZERO DUP2 EQ PUSH3 0x110C JUMPI PUSH1 0x0 DUP1 REVERT JUMPDEST SWAP4 SWAP3 POP POP POP JUMP JUMPDEST PUSH4 0x4E487B71 PUSH1 0xE0 SHL PUSH1 0x0 MSTORE PUSH1 0x11 PUSH1 0x4 MSTORE PUSH1 0x24 PUSH1 0x0 REVERT JUMPDEST DUP2 DUP2 SUB DUP2 DUP2 GT ISZERO PUSH3 0x113F JUMPI PUSH3 0x113F PUSH3 0x1113 JUMP JUMPDEST SWAP3 SWAP2 POP POP JUMP JUMPDEST PUSH1 0x60 DUP2 MSTORE PUSH1 0x0 PUSH3 0x115A PUSH1 0x60 DUP4 ADD DUP7 PUSH3 0xE99 JUMP JUMPDEST DUP3 DUP2 SUB PUSH1 0x20 DUP5 ADD MSTORE PUSH3 0x116E DUP2 DUP7 PUSH3 0xE99 JUMP JUMPDEST SWAP2 POP POP DUP3 PUSH1 0x40 DUP4 ADD MSTORE SWAP5 SWAP4 POP POP POP POP JUMP JUMPDEST PUSH1 0x0 PUSH1 0x1 DUP3 ADD PUSH3 0x1194 JUMPI PUSH3 0x1194 PUSH3 0x1113 JUMP JUMPDEST POP PUSH1 0x1 ADD SWAP1 JUMP JUMPDEST PUSH1 0x1 DUP2 DUP2 SHR SWAP1 DUP3 AND DUP1 PUSH3 0x11B0 JUMPI PUSH1 0x7F DUP3 AND SWAP2 POP JUMPDEST PUSH1 0x20 DUP3 LT DUP2 SUB PUSH3 0x11D1 JUMPI PUSH4 0x4E487B71 PUSH1 0xE0 SHL PUSH1 0x0 MSTORE PUSH1 0x22 PUSH1 0x4 MSTORE PUSH1 0x24 PUSH1 0x0 REVERT JUMPDEST POP SWAP2 SWAP1 POP JUMP JUMPDEST PUSH1 0x1F DUP3 GT ISZERO PUSH3 0x1225 JUMPI PUSH1 0x0 DUP2 DUP2 MSTORE PUSH1 0x20 DUP2 KECCAK256 PUSH1 0x1F DUP6 ADD PUSH1 0x5 SHR DUP2 ADD PUSH1 0x20 DUP7 LT ISZERO PUSH3 0x1200 JUMPI POP DUP1 JUMPDEST PUSH1 0x1F DUP6 ADD PUSH1 0x5 SHR DUP3 ADD SWAP2 POP JUMPDEST DUP2 DUP2 LT ISZERO PUSH3 0x1221 JUMPI DUP3 DUP2 SSTORE PUSH1 0x1 ADD PUSH3 0x120C JUMP JUMPDEST POP POP POP JUMPDEST POP POP POP JUMP JUMPDEST DUP2 MLOAD PUSH8 0xFFFFFFFFFFFFFFFF DUP2 GT ISZERO PUSH3 0x1247 JUMPI PUSH3 0x1247 PUSH3 0xD22 JUMP JUMPDEST PUSH3 0x125F DUP2 PUSH3 0x1258 DUP5 SLOAD PUSH3 0x119B JUMP JUMPDEST DUP5 PUSH3 0x11D7 JUMP JUMPDEST PUSH1 0x20 DUP1 PUSH1 0x1F DUP4 GT PUSH1 0x1 DUP2 EQ PUSH3 0x1297 JUMPI PUSH1 0x0 DUP5 ISZERO PUSH3 0x127E JUMPI POP DUP6 DUP4 ADD MLOAD JUMPDEST PUSH1 0x0 NOT PUSH1 0x3 DUP7 SWAP1 SHL SHR NOT AND PUSH1 0x1 DUP6 SWAP1 SHL OR DUP6 SSTORE PUSH3 0x1221 JUMP JUMPDEST PUSH1 0x0 DUP6 DUP2 MSTORE PUSH1 0x20 DUP2 KECCAK256 PUSH1 0x1F NOT DUP7 AND SWAP2 JUMPDEST DUP3 DUP2 LT ISZERO PUSH3 0x12C8 JUMPI DUP9 DUP7 ADD MLOAD DUP3 SSTORE SWAP5 DUP5 ADD SWAP5 PUSH1 0x1 SWAP1 SWAP2 ADD SWAP1 DUP5 ADD PUSH3 0x12A7 JUMP JUMPDEST POP DUP6 DUP3 LT ISZERO PUSH3 0x12E7 JUMPI DUP8 DUP6 ADD MLOAD PUSH1 0x0 NOT PUSH1 0x3 DUP9 SWAP1 SHL PUSH1 0xF8 AND SHR NOT AND DUP2 SSTORE JUMPDEST POP POP POP POP POP PUSH1 0x1 SWAP1 DUP2 SHL ADD SWAP1 SSTORE POP JUMP JUMPDEST PUSH1 0x0 PUSH1 0x20 DUP3 DUP5 SUB SLT ISZERO PUSH3 0x130A JUMPI PUSH1 0x0 DUP1 REVERT JUMPDEST POP MLOAD SWAP2 SWAP1 POP JUMP JUMPDEST DUP1 DUP3 ADD DUP1 DUP3 GT ISZERO PUSH3 0x113F JUMPI PUSH3 0x113F PUSH3 0x1113 JUMP INVALID PUSH1 0x80 PUSH1 0x40 MSTORE PUSH1 0x12 PUSH1 0x2 SSTORE CALLVALUE DUP1 ISZERO PUSH3 0x16 JUMPI PUSH1 0x0 DUP1 REVERT JUMPDEST POP PUSH1 0x40 MLOAD PUSH3 0xB17 CODESIZE SUB DUP1 PUSH3 0xB17 DUP4 CODECOPY DUP2 ADD PUSH1 0x40 DUP2 SWAP1 MSTORE PUSH3 0x39 SWAP2 PUSH3 0x150 JUMP JUMPDEST PUSH1 0x0 PUSH3 0x47 DUP5 DUP3 PUSH3 0x252 JUMP JUMPDEST POP PUSH1 0x1 PUSH3 0x56 DUP4 DUP3 PUSH3 0x252 JUMP JUMPDEST POP PUSH1 0x3 DUP2 SWAP1 SSTORE CALLER PUSH1 0x0 DUP2 DUP2 MSTORE PUSH1 0x5 PUSH1 0x20 MSTORE PUSH1 0x40 SWAP1 KECCAK256 SWAP2 SWAP1 SWAP2 SSTORE PUSH1 0x4 DUP1 SLOAD PUSH1 0x1 PUSH1 0x1 PUSH1 0xA0 SHL SUB NOT AND SWAP1 SWAP2 OR SWAP1 SSTORE POP PUSH3 0x31E SWAP1 POP JUMP JUMPDEST PUSH4 0x4E487B71 PUSH1 0xE0 SHL PUSH1 0x0 MSTORE PUSH1 0x41 PUSH1 0x4 MSTORE PUSH1 0x24 PUSH1 0x0 REVERT JUMPDEST PUSH1 0x0 DUP3 PUSH1 0x1F DUP4 ADD SLT PUSH3 0xB3 JUMPI PUSH1 0x0 DUP1 REVERT JUMPDEST DUP2 MLOAD PUSH1 0x1 PUSH1 0x1 PUSH1 0x40 SHL SUB DUP1 DUP3 GT ISZERO PUSH3 0xD0 JUMPI PUSH3 0xD0 PUSH3 0x8B JUMP JUMPDEST PUSH1 0x40 MLOAD PUSH1 0x1F DUP4 ADD PUSH1 0x1F NOT SWAP1 DUP2 AND PUSH1 0x3F ADD AND DUP2 ADD SWAP1 DUP3 DUP3 GT DUP2 DUP4 LT OR ISZERO PUSH3 0xFB JUMPI PUSH3 0xFB PUSH3 0x8B JUMP JUMPDEST DUP2 PUSH1 0x40 MSTORE DUP4 DUP2 MSTORE PUSH1 0x20 SWAP3 POP DUP7 DUP4 DUP6 DUP9 ADD ADD GT ISZERO PUSH3 0x118 JUMPI PUSH1 0x0 DUP1 REVERT JUMPDEST PUSH1 0x0 SWAP2 POP JUMPDEST DUP4 DUP3 LT ISZERO PUSH3 0x13C JUMPI DUP6 DUP3 ADD DUP4 ADD MLOAD DUP2 DUP4 ADD DUP5 ADD MSTORE SWAP1 DUP3 ADD SWAP1 PUSH3 0x11D JUMP JUMPDEST PUSH1 0x0 SWAP4 DUP2 ADD SWAP1 SWAP3 ADD SWAP3 SWAP1 SWAP3 MSTORE SWAP5 SWAP4 POP POP POP POP JUMP JUMPDEST PUSH1 0x0 DUP1 PUSH1 0x0 PUSH1 0x60 DUP5 DUP7 SUB SLT ISZERO PUSH3 0x166 JUMPI PUSH1 0x0 DUP1 REVERT JUMPDEST DUP4 MLOAD PUSH1 0x1 PUSH1 0x1 PUSH1 0x40 SHL SUB DUP1 DUP3 GT ISZERO PUSH3 0x17E JUMPI PUSH1 0x0 DUP1 REVERT JUMPDEST PUSH3 0x18C DUP8 DUP4 DUP9 ADD PUSH3 0xA1 JUMP JUMPDEST SWAP5 POP PUSH1 0x20 DUP7 ADD MLOAD SWAP2 POP DUP1 DUP3 GT ISZERO PUSH3 0x1A3 JUMPI PUSH1 0x0 DUP1 REVERT JUMPDEST POP PUSH3 0x1B2 DUP7 DUP3 DUP8 ADD PUSH3 0xA1 JUMP JUMPDEST SWAP3 POP POP PUSH1 0x40 DUP5 ADD MLOAD SWAP1 POP SWAP3 POP SWAP3 POP SWAP3 JUMP JUMPDEST PUSH1 0x1 DUP2 DUP2 SHR SWAP1 DUP3 AND DUP1 PUSH3 0x1D8 JUMPI PUSH1 0x7F DUP3 AND SWAP2 POP JUMPDEST PUSH1 0x20 DUP3 LT DUP2 SUB PUSH3 0x1F9 JUMPI PUSH4 0x4E487B71 PUSH1 0xE0 SHL PUSH1 0x0 MSTORE PUSH1 0x22 PUSH1 0x4 MSTORE PUSH1 0x24 PUSH1 0x0 REVERT JUMPDEST POP SWAP2 SWAP1 POP JUMP JUMPDEST PUSH1 0x1F DUP3 GT ISZERO PUSH3 0x24D JUMPI PUSH1 0x0 DUP2 DUP2 MSTORE PUSH1 0x20 DUP2 KECCAK256 PUSH1 0x1F DUP6 ADD PUSH1 0x5 SHR DUP2 ADD PUSH1 0x20 DUP7 LT ISZERO PUSH3 0x228 JUMPI POP DUP1 JUMPDEST PUSH1 0x1F DUP6 ADD PUSH1 0x5 SHR DUP3 ADD SWAP2 POP JUMPDEST DUP2 DUP2 LT ISZERO PUSH3 0x249 JUMPI DUP3 DUP2 SSTORE PUSH1 0x1 ADD PUSH3 0x234 JUMP JUMPDEST POP POP POP JUMPDEST POP POP POP JUMP JUMPDEST DUP2 MLOAD PUSH1 0x1 PUSH1 0x1 PUSH1 0x40 SHL SUB DUP2 GT ISZERO PUSH3 0x26E JUMPI PUSH3 0x26E PUSH3 0x8B JUMP JUMPDEST PUSH3 0x286 DUP2 PUSH3 0x27F DUP5 SLOAD PUSH3 0x1C3 JUMP JUMPDEST DUP5 PUSH3 0x1FF JUMP JUMPDEST PUSH1 0x20 DUP1 PUSH1 0x1F DUP4 GT PUSH1 0x1 DUP2 EQ PUSH3 0x2BE JUMPI PUSH1 0x0 DUP5 ISZERO PUSH3 0x2A5 JUMPI POP DUP6 DUP4 ADD MLOAD JUMPDEST PUSH1 0x0 NOT PUSH1 0x3 DUP7 SWAP1 SHL SHR NOT AND PUSH1 0x1 DUP6 SWAP1 SHL OR DUP6 SSTORE PUSH3 0x249 JUMP JUMPDEST PUSH1 0x0 DUP6 DUP2 MSTORE PUSH1 0x20 DUP2 KECCAK256 PUSH1 0x1F NOT DUP7 AND SWAP2 JUMPDEST DUP3 DUP2 LT ISZERO PUSH3 0x2EF JUMPI DUP9 DUP7 ADD MLOAD DUP3 SSTORE SWAP5 DUP5 ADD SWAP5 PUSH1 0x1 SWAP1 SWAP2 ADD SWAP1 DUP5 ADD PUSH3 0x2CE JUMP JUMPDEST POP DUP6 DUP3 LT ISZERO PUSH3 0x30E JUMPI DUP8 DUP6 ADD MLOAD PUSH1 0x0 NOT PUSH1 0x3 DUP9 SWAP1 SHL PUSH1 0xF8 AND SHR NOT AND DUP2 SSTORE JUMPDEST POP POP POP POP POP PUSH1 0x1 SWAP1 DUP2 SHL ADD SWAP1 SSTORE POP JUMP JUMPDEST PUSH2 0x7E9 DUP1 PUSH3 0x32E PUSH1 0x0 CODECOPY PUSH1 0x0 RETURN INVALID PUSH1 0x80 PUSH1 0x40 MSTORE CALLVALUE DUP1 ISZERO PUSH2 0x10 JUMPI PUSH1 0x0 DUP1 REVERT JUMPDEST POP PUSH1 0x4 CALLDATASIZE LT PUSH2 0xA9 JUMPI PUSH1 0x0 CALLDATALOAD PUSH1 0xE0 SHR DUP1 PUSH4 0x42966C68 GT PUSH2 0x71 JUMPI DUP1 PUSH4 0x42966C68 EQ PUSH2 0x11D JUMPI DUP1 PUSH4 0x70A08231 EQ PUSH2 0x130 JUMPI DUP1 PUSH4 0x95D89B41 EQ PUSH2 0x159 JUMPI DUP1 PUSH4 0xA9059CBB EQ PUSH2 0x161 JUMPI DUP1 PUSH4 0xDD62ED3E EQ PUSH2 0x174 JUMPI DUP1 PUSH4 0xE1F21C67 EQ PUSH2 0x1AD JUMPI PUSH1 0x0 DUP1 REVERT JUMPDEST DUP1 PUSH4 0x6FDDE03 EQ PUSH2 0xAE JUMPI DUP1 PUSH4 0x18160DDD EQ PUSH2 0xCC JUMPI DUP1 PUSH4 0x23B872DD EQ PUSH2 0xDE JUMPI DUP1 PUSH4 0x313CE567 EQ PUSH2 0x101 JUMPI DUP1 PUSH4 0x40C10F19 EQ PUSH2 0x10A JUMPI JUMPDEST PUSH1 0x0 DUP1 REVERT JUMPDEST PUSH2 0xB6 PUSH2 0x1C0 JUMP JUMPDEST PUSH1 0x40 MLOAD PUSH2 0xC3 SWAP2 SWAP1 PUSH2 0x604 JUMP JUMPDEST PUSH1 0x40 MLOAD DUP1 SWAP2 SUB SWAP1 RETURN JUMPDEST PUSH1 0x3 SLOAD JUMPDEST PUSH1 0x40 MLOAD SWAP1 DUP2 MSTORE PUSH1 0x20 ADD PUSH2 0xC3 JUMP JUMPDEST PUSH2 0xF1 PUSH2 0xEC CALLDATASIZE PUSH1 0x4 PUSH2 0x669 JUMP JUMPDEST PUSH2 0x24E JUMP JUMPDEST PUSH1 0x40 MLOAD SWAP1 ISZERO ISZERO DUP2 MSTORE PUSH1 0x20 ADD PUSH2 0xC3 JUMP JUMPDEST PUSH2 0xD0 PUSH1 0x2 SLOAD DUP2 JUMP JUMPDEST PUSH2 0xD0 PUSH2 0x118 CALLDATASIZE PUSH1 0x4 PUSH2 0x6A5 JUMP JUMPDEST PUSH2 0x384 JUMP JUMPDEST PUSH2 0xD0 PUSH2 0x12B CALLDATASIZE PUSH1 0x4 PUSH2 0x6CF JUMP JUMPDEST PUSH2 0x436 JUMP JUMPDEST PUSH2 0xD0 PUSH2 0x13E CALLDATASIZE PUSH1 0x4 PUSH2 0x6E8 JUMP JUMPDEST PUSH1 0x1 PUSH1 0x1 PUSH1 0xA0 SHL SUB AND PUSH1 0x0 SWAP1 DUP2 MSTORE PUSH1 0x5 PUSH1 0x20 MSTORE PUSH1 0x40 SWAP1 KECCAK256 SLOAD SWAP1 JUMP JUMPDEST PUSH2 0xB6 PUSH2 0x4D9 JUMP JUMPDEST PUSH2 0xF1 PUSH2 0x16F CALLDATASIZE PUSH1 0x4 PUSH2 0x6A5 JUMP JUMPDEST PUSH2 0x4E6 JUMP JUMPDEST PUSH2 0xD0 PUSH2 0x182 CALLDATASIZE PUSH1 0x4 PUSH2 0x70A JUMP JUMPDEST PUSH1 0x1 PUSH1 0x1 PUSH1 0xA0 SHL SUB SWAP2 DUP3 AND PUSH1 0x0 SWAP1 DUP2 MSTORE PUSH1 0x6 PUSH1 0x20 SWAP1 DUP2 MSTORE PUSH1 0x40 DUP1 DUP4 KECCAK256 SWAP4 SWAP1 SWAP5 AND DUP3 MSTORE SWAP2 SWAP1 SWAP2 MSTORE KECCAK256 SLOAD SWAP1 JUMP JUMPDEST PUSH2 0xF1 PUSH2 0x1BB CALLDATASIZE PUSH1 0x4 PUSH2 0x669 JUMP JUMPDEST PUSH2 0x59C JUMP JUMPDEST PUSH1 0x0 DUP1 SLOAD PUSH2 0x1CD SWAP1 PUSH2 0x73D JUMP JUMPDEST DUP1 PUSH1 0x1F ADD PUSH1 0x20 DUP1 SWAP2 DIV MUL PUSH1 0x20 ADD PUSH1 0x40 MLOAD SWAP1 DUP2 ADD PUSH1 0x40 MSTORE DUP1 SWAP3 SWAP2 SWAP1 DUP2 DUP2 MSTORE PUSH1 0x20 ADD DUP3 DUP1 SLOAD PUSH2 0x1F9 SWAP1 PUSH2 0x73D JUMP JUMPDEST DUP1 ISZERO PUSH2 0x246 JUMPI DUP1 PUSH1 0x1F LT PUSH2 0x21B JUMPI PUSH2 0x100 DUP1 DUP4 SLOAD DIV MUL DUP4 MSTORE SWAP2 PUSH1 0x20 ADD SWAP2 PUSH2 0x246 JUMP JUMPDEST DUP3 ADD SWAP2 SWAP1 PUSH1 0x0 MSTORE PUSH1 0x20 PUSH1 0x0 KECCAK256 SWAP1 JUMPDEST DUP2 SLOAD DUP2 MSTORE SWAP1 PUSH1 0x1 ADD SWAP1 PUSH1 0x20 ADD DUP1 DUP4 GT PUSH2 0x229 JUMPI DUP3 SWAP1 SUB PUSH1 0x1F AND DUP3 ADD SWAP2 JUMPDEST POP POP POP POP POP DUP2 JUMP JUMPDEST PUSH1 0x1 PUSH1 0x1 PUSH1 0xA0 SHL SUB DUP4 AND PUSH1 0x0 DUP2 DUP2 MSTORE PUSH1 0x6 PUSH1 0x20 SWAP1 DUP2 MSTORE PUSH1 0x40 DUP1 DUP4 KECCAK256 CALLER DUP5 MSTORE DUP3 MSTORE DUP1 DUP4 KECCAK256 SLOAD SWAP4 DUP4 MSTORE PUSH1 0x5 SWAP1 SWAP2 MSTORE DUP2 KECCAK256 SLOAD SWAP1 SWAP2 SWAP1 DUP4 GT DUP1 ISZERO SWAP1 PUSH2 0x28F JUMPI POP DUP3 DUP2 LT ISZERO JUMPDEST PUSH2 0x298 JUMPI PUSH1 0x0 DUP1 REVERT JUMPDEST PUSH1 0x1 PUSH1 0x1 PUSH1 0xA0 SHL SUB DUP5 AND PUSH1 0x0 SWAP1 DUP2 MSTORE PUSH1 0x5 PUSH1 0x20 MSTORE PUSH1 0x40 DUP2 KECCAK256 DUP1 SLOAD DUP6 SWAP3 SWAP1 PUSH2 0x2C0 SWAP1 DUP5 SWAP1 PUSH2 0x78D JUMP JUMPDEST SWAP1 SWAP2 SSTORE POP POP PUSH1 0x1 PUSH1 0x1 PUSH1 0xA0 SHL SUB DUP6 AND PUSH1 0x0 SWAP1 DUP2 MSTORE PUSH1 0x5 PUSH1 0x20 MSTORE PUSH1 0x40 DUP2 KECCAK256 DUP1 SLOAD DUP6 SWAP3 SWAP1 PUSH2 0x2ED SWAP1 DUP5 SWAP1 PUSH2 0x7A0 JUMP JUMPDEST SWAP1 SWAP2 SSTORE POP POP PUSH1 0x1 PUSH1 0x1 PUSH1 0xA0 SHL SUB DUP6 AND PUSH1 0x0 SWAP1 DUP2 MSTORE PUSH1 0x6 PUSH1 0x20 SWAP1 DUP2 MSTORE PUSH1 0x40 DUP1 DUP4 KECCAK256 CALLER DUP5 MSTORE SWAP1 SWAP2 MSTORE DUP2 KECCAK256 DUP1 SLOAD DUP6 SWAP3 SWAP1 PUSH2 0x325 SWAP1 DUP5 SWAP1 PUSH2 0x7A0 JUMP JUMPDEST SWAP3 POP POP DUP2 SWAP1 SSTORE POP DUP4 PUSH1 0x1 PUSH1 0x1 PUSH1 0xA0 SHL SUB AND DUP6 PUSH1 0x1 PUSH1 0x1 PUSH1 0xA0 SHL SUB AND PUSH32 0xDDF252AD1BE2C89B69C2B068FC378DAA952BA7F163C4A11628F55A4DF523B3EF DUP6 PUSH1 0x40 MLOAD PUSH2 0x371 SWAP2 DUP2 MSTORE PUSH1 0x20 ADD SWAP1 JUMP JUMPDEST PUSH1 0x40 MLOAD DUP1 SWAP2 SUB SWAP1 LOG3 POP PUSH1 0x1 SWAP5 SWAP4 POP POP POP POP JUMP JUMPDEST PUSH1 0x4 SLOAD PUSH1 0x0 SWAP1 PUSH1 0x1 PUSH1 0x1 PUSH1 0xA0 SHL SUB AND CALLER EQ PUSH2 0x3E6 JUMPI PUSH1 0x40 MLOAD PUSH3 0x461BCD PUSH1 0xE5 SHL DUP2 MSTORE PUSH1 0x20 PUSH1 0x4 DUP3 ADD DUP2 SWAP1 MSTORE PUSH1 0x24 DUP3 ADD MSTORE PUSH32 0x6F6E6C792061646D696E2063616E2072756E20746869732066756E6374696F6E PUSH1 0x44 DUP3 ADD MSTORE PUSH1 0x64 ADD JUMPDEST PUSH1 0x40 MLOAD DUP1 SWAP2 SUB SWAP1 REVERT JUMPDEST DUP2 PUSH1 0x3 PUSH1 0x0 DUP3 DUP3 SLOAD PUSH2 0x3F8 SWAP2 SWAP1 PUSH2 0x78D JUMP JUMPDEST SWAP1 SWAP2 SSTORE POP POP PUSH1 0x1 PUSH1 0x1 PUSH1 0xA0 SHL SUB DUP4 AND PUSH1 0x0 SWAP1 DUP2 MSTORE PUSH1 0x5 PUSH1 0x20 MSTORE PUSH1 0x40 DUP2 KECCAK256 DUP1 SLOAD DUP5 SWAP3 SWAP1 PUSH2 0x425 SWAP1 DUP5 SWAP1 PUSH2 0x78D JUMP JUMPDEST SWAP1 SWAP2 SSTORE POP POP PUSH1 0x3 SLOAD SWAP1 POP JUMPDEST SWAP3 SWAP2 POP POP JUMP JUMPDEST PUSH1 0x4 SLOAD PUSH1 0x0 SWAP1 PUSH1 0x1 PUSH1 0x1 PUSH1 0xA0 SHL SUB AND CALLER EQ PUSH2 0x493 JUMPI PUSH1 0x40 MLOAD PUSH3 0x461BCD PUSH1 0xE5 SHL DUP2 MSTORE PUSH1 0x20 PUSH1 0x4 DUP3 ADD DUP2 SWAP1 MSTORE PUSH1 0x24 DUP3 ADD MSTORE PUSH32 0x6F6E6C792061646D696E2063616E2072756E20746869732066756E6374696F6E PUSH1 0x44 DUP3 ADD MSTORE PUSH1 0x64 ADD PUSH2 0x3DD JUMP JUMPDEST DUP2 PUSH1 0x3 PUSH1 0x0 DUP3 DUP3 SLOAD PUSH2 0x4A5 SWAP2 SWAP1 PUSH2 0x7A0 JUMP JUMPDEST SWAP1 SWAP2 SSTORE POP POP CALLER PUSH1 0x0 SWAP1 DUP2 MSTORE PUSH1 0x5 PUSH1 0x20 MSTORE PUSH1 0x40 DUP2 KECCAK256 DUP1 SLOAD DUP5 SWAP3 SWAP1 PUSH2 0x4C9 SWAP1 DUP5 SWAP1 PUSH2 0x7A0 JUMP JUMPDEST SWAP1 SWAP2 SSTORE POP POP PUSH1 0x3 SLOAD SWAP1 POP JUMPDEST SWAP2 SWAP1 POP JUMP JUMPDEST PUSH1 0x1 DUP1 SLOAD PUSH2 0x1CD SWAP1 PUSH2 0x73D JUMP JUMPDEST CALLER PUSH1 0x0 SWAP1 DUP2 MSTORE PUSH1 0x5 PUSH1 0x20 MSTORE PUSH1 0x40 DUP2 KECCAK256 SLOAD DUP3 GT ISZERO PUSH2 0x502 JUMPI PUSH1 0x0 DUP1 REVERT JUMPDEST CALLER PUSH1 0x0 SWAP1 DUP2 MSTORE PUSH1 0x5 PUSH1 0x20 MSTORE PUSH1 0x40 DUP2 KECCAK256 DUP1 SLOAD DUP5 SWAP3 SWAP1 PUSH2 0x521 SWAP1 DUP5 SWAP1 PUSH2 0x7A0 JUMP JUMPDEST SWAP1 SWAP2 SSTORE POP POP PUSH1 0x1 PUSH1 0x1 PUSH1 0xA0 SHL SUB DUP4 AND PUSH1 0x0 SWAP1 DUP2 MSTORE PUSH1 0x5 PUSH1 0x20 MSTORE PUSH1 0x40 DUP2 KECCAK256 DUP1 SLOAD DUP5 SWAP3 SWAP1 PUSH2 0x54E SWAP1 DUP5 SWAP1 PUSH2 0x78D JUMP JUMPDEST SWAP1 SWAP2 SSTORE POP POP PUSH1 0x40 MLOAD DUP3 DUP2 MSTORE PUSH1 0x1 PUSH1 0x1 PUSH1 0xA0 SHL SUB DUP5 AND SWAP1 CALLER SWAP1 PUSH32 0xDDF252AD1BE2C89B69C2B068FC378DAA952BA7F163C4A11628F55A4DF523B3EF SWAP1 PUSH1 0x20 ADD PUSH1 0x40 MLOAD DUP1 SWAP2 SUB SWAP1 LOG3 POP PUSH1 0x1 SWAP3 SWAP2 POP POP JUMP JUMPDEST PUSH1 0x1 PUSH1 0x1 PUSH1 0xA0 SHL SUB DUP4 DUP2 AND PUSH1 0x0 DUP2 DUP2 MSTORE PUSH1 0x6 PUSH1 0x20 SWAP1 DUP2 MSTORE PUSH1 0x40 DUP1 DUP4 KECCAK256 SWAP5 DUP8 AND DUP1 DUP5 MSTORE SWAP5 DUP3 MSTORE DUP1 DUP4 KECCAK256 DUP7 SWAP1 SSTORE MLOAD DUP6 DUP2 MSTORE SWAP2 SWAP4 SWAP3 SWAP2 PUSH32 0x8C5BE1E5EBEC7D5BD14F71427D1E84F3DD0314C0F7B2291E5B200AC8C7C3B925 SWAP2 ADD PUSH1 0x40 MLOAD DUP1 SWAP2 SUB SWAP1 LOG3 POP PUSH1 0x1 SWAP4 SWAP3 POP POP POP JUMP JUMPDEST PUSH1 0x0 PUSH1 0x20 DUP1 DUP4 MSTORE DUP4 MLOAD DUP1 DUP3 DUP6 ADD MSTORE PUSH1 0x0 JUMPDEST DUP2 DUP2 LT ISZERO PUSH2 0x631 JUMPI DUP6 DUP2 ADD DUP4 ADD MLOAD DUP6 DUP3 ADD PUSH1 0x40 ADD MSTORE DUP3 ADD PUSH2 0x615 JUMP JUMPDEST POP PUSH1 0x0 PUSH1 0x40 DUP3 DUP7 ADD ADD MSTORE PUSH1 0x40 PUSH1 0x1F NOT PUSH1 0x1F DUP4 ADD AND DUP6 ADD ADD SWAP3 POP POP POP SWAP3 SWAP2 POP POP JUMP JUMPDEST DUP1 CALLDATALOAD PUSH1 0x1 PUSH1 0x1 PUSH1 0xA0 SHL SUB DUP2 AND DUP2 EQ PUSH2 0x4D4 JUMPI PUSH1 0x0 DUP1 REVERT JUMPDEST PUSH1 0x0 DUP1 PUSH1 0x0 PUSH1 0x60 DUP5 DUP7 SUB SLT ISZERO PUSH2 0x67E JUMPI PUSH1 0x0 DUP1 REVERT JUMPDEST PUSH2 0x687 DUP5 PUSH2 0x652 JUMP JUMPDEST SWAP3 POP PUSH2 0x695 PUSH1 0x20 DUP6 ADD PUSH2 0x652 JUMP JUMPDEST SWAP2 POP PUSH1 0x40 DUP5 ADD CALLDATALOAD SWAP1 POP SWAP3 POP SWAP3 POP SWAP3 JUMP JUMPDEST PUSH1 0x0 DUP1 PUSH1 0x40 DUP4 DUP6 SUB SLT ISZERO PUSH2 0x6B8 JUMPI PUSH1 0x0 DUP1 REVERT JUMPDEST PUSH2 0x6C1 DUP4 PUSH2 0x652 JUMP JUMPDEST SWAP5 PUSH1 0x20 SWAP4 SWAP1 SWAP4 ADD CALLDATALOAD SWAP4 POP POP POP JUMP JUMPDEST PUSH1 0x0 PUSH1 0x20 DUP3 DUP5 SUB SLT ISZERO PUSH2 0x6E1 JUMPI PUSH1 0x0 DUP1 REVERT JUMPDEST POP CALLDATALOAD SWAP2 SWAP1 POP JUMP JUMPDEST PUSH1 0x0 PUSH1 0x20 DUP3 DUP5 SUB SLT ISZERO PUSH2 0x6FA JUMPI PUSH1 0x0 DUP1 REVERT JUMPDEST PUSH2 0x703 DUP3 PUSH2 0x652 JUMP JUMPDEST SWAP4 SWAP3 POP POP POP JUMP JUMPDEST PUSH1 0x0 DUP1 PUSH1 0x40 DUP4 DUP6 SUB SLT ISZERO PUSH2 0x71D JUMPI PUSH1 0x0 DUP1 REVERT JUMPDEST PUSH2 0x726 DUP4 PUSH2 0x652 JUMP JUMPDEST SWAP2 POP PUSH2 0x734 PUSH1 0x20 DUP5 ADD PUSH2 0x652 JUMP JUMPDEST SWAP1 POP SWAP3 POP SWAP3 SWAP1 POP JUMP JUMPDEST PUSH1 0x1 DUP2 DUP2 SHR SWAP1 DUP3 AND DUP1 PUSH2 0x751 JUMPI PUSH1 0x7F DUP3 AND SWAP2 POP JUMPDEST PUSH1 0x20 DUP3 LT DUP2 SUB PUSH2 0x771 JUMPI PUSH4 0x4E487B71 PUSH1 0xE0 SHL PUSH1 0x0 MSTORE PUSH1 0x22 PUSH1 0x4 MSTORE PUSH1 0x24 PUSH1 0x0 REVERT JUMPDEST POP SWAP2 SWAP1 POP JUMP JUMPDEST PUSH4 0x4E487B71 PUSH1 0xE0 SHL PUSH1 0x0 MSTORE PUSH1 0x11 PUSH1 0x4 MSTORE PUSH1 0x24 PUSH1 0x0 REVERT JUMPDEST DUP1 DUP3 ADD DUP1 DUP3 GT ISZERO PUSH2 0x430 JUMPI PUSH2 0x430 PUSH2 0x777 JUMP JUMPDEST DUP2 DUP2 SUB DUP2 DUP2 GT ISZERO PUSH2 0x430 JUMPI PUSH2 0x430 PUSH2 0x777 JUMP INVALID LOG2 PUSH5 0x6970667358 0x22 SLT KECCAK256 0xD8 SWAP3 SELFDESTRUCT PUSH3 0xA294B 0xF8 0x4B PUSH21 0xC31550C451861F06F0BCFEE98BF2CF13AA0D4DD6F1 0xFC PUSH5 0x736F6C6343 STOP ADDMOD EQ STOP CALLER LOG2 PUSH5 0x6970667358 0x22 SLT KECCAK256 LOG4 LOG1 SLOAD MLOAD CALLVALUE 0xD4 LOG0 0xC4 EQ 0xF6 0xDB ADD SLOAD PUSH26 0xB90BE8E8B88B9F5C5601836AACA9D8E341CC64736F6C63430008 EQ STOP CALLER "
		},
		"gasEstimates": {
			"creation": {
				"codeDepositCost": "1559200",
				"executionCost": "1631",
				"totalCost": "1560831"
			},
			"external": {
				"createPair(string,string,uint256,string,string,uint256)": "infinite",
				"depositLiquidity(uint256,uint256,uint256)": "infinite",
				"liquidityProviders(address,uint256)": "6932",
				"pairDetails(uint256)": "infinite",
				"withdrawLiquidity(uint256)": "infinite"
			}
		},
		"methodIdentifiers": {
			"createPair(string,string,uint256,string,string,uint256)": "4fba4607",
			"depositLiquidity(uint256,uint256,uint256)": "f9c8b956",
			"liquidityProviders(address,uint256)": "c5cb3604",
			"pairDetails(uint256)": "5b3a7232",
			"withdrawLiquidity(uint256)": "0a861f2a"
		}
	},
	"abi": [
		{
			"inputs": [
				{
					"internalType": "string",
					"name": "_token0Name",
					"type": "string"
				},
				{
					"internalType": "string",
					"name": "_token0symbol",
					"type": "string"
				},
				{
					"internalType": "uint256",
					"name": "_token0totalSupply",
					"type": "uint256"
				},
				{
					"internalType": "string",
					"name": "_token1Name",
					"type": "string"
				},
				{
					"internalType": "string",
					"name": "_token1symbol",
					"type": "string"
				},
				{
					"internalType": "uint256",
					"name": "_token1totalSupply",
					"type": "uint256"
				}
			],
			"name": "createPair",
			"outputs": [
				{
					"components": [
						{
							"internalType": "contract erc20",
							"name": "token0",
							"type": "address"
						},
						{
							"internalType": "contract erc20",
							"name": "token1",
							"type": "address"
						},
						{
							"internalType": "string",
							"name": "token0Name",
							"type": "string"
						},
						{
							"internalType": "string",
							"name": "token1Name",
							"type": "string"
						},
						{
							"internalType": "uint256",
							"name": "reserve0",
							"type": "uint256"
						},
						{
							"internalType": "uint256",
							"name": "reserve1",
							"type": "uint256"
						},
						{
							"internalType": "uint256",
							"name": "Timestamp",
							"type": "uint256"
						},
						{
							"components": [
								{
									"internalType": "uint256",
									"name": "token0Amount",
									"type": "uint256"
								},
								{
									"internalType": "uint256",
									"name": "token1Amount",
									"type": "uint256"
								},
								{
									"internalType": "address",
									"name": "liquidityProviderAddress",
									"type": "address"
								}
							],
							"internalType": "struct Pair.Liquidity[]",
							"name": "liquidity",
							"type": "tuple[]"
						}
					],
					"internalType": "struct Pair.pairdata",
					"name": "",
					"type": "tuple"
				}
			],
			"stateMutability": "nonpayable",
			"type": "function"
		},
		{
			"inputs": [
				{
					"internalType": "uint256",
					"name": "_token0Amount",
					"type": "uint256"
				},
				{
					"internalType": "uint256",
					"name": "_token1Amount",
					"type": "uint256"
				},
				{
					"internalType": "uint256",
					"name": "_pairId",
					"type": "uint256"
				}
			],
			"name": "depositLiquidity",
			"outputs": [],
			"stateMutability": "nonpayable",
			"type": "function"
		},
		{
			"inputs": [
				{
					"internalType": "address",
					"name": "",
					"type": "address"
				},
				{
					"internalType": "uint256",
					"name": "",
					"type": "uint256"
				}
			],
			"name": "liquidityProviders",
			"outputs": [
				{
					"internalType": "uint256",
					"name": "token0Amount",
					"type": "uint256"
				},
				{
					"internalType": "uint256",
					"name": "token1Amount",
					"type": "uint256"
				},
				{
					"internalType": "address",
					"name": "liquidityProviderAddress",
					"type": "address"
				}
			],
			"stateMutability": "view",
			"type": "function"
		},
		{
			"inputs": [
				{
					"internalType": "uint256",
					"name": "",
					"type": "uint256"
				}
			],
			"name": "pairDetails",
			"outputs": [
				{
					"internalType": "contract erc20",
					"name": "token0",
					"type": "address"
				},
				{
					"internalType": "contract erc20",
					"name": "token1",
					"type": "address"
				},
				{
					"internalType": "string",
					"name": "token0Name",
					"type": "string"
				},
				{
					"internalType": "string",
					"name": "token1Name",
					"type": "string"
				},
				{
					"internalType": "uint256",
					"name": "reserve0",
					"type": "uint256"
				},
				{
					"internalType": "uint256",
					"name": "reserve1",
					"type": "uint256"
				},
				{
					"internalType": "uint256",
					"name": "Timestamp",
					"type": "uint256"
				}
			],
			"stateMutability": "view",
			"type": "function"
		},
		{
			"inputs": [
				{
					"internalType": "uint256",
					"name": "_pairId",
					"type": "uint256"
				}
			],
			"name": "withdrawLiquidity",
			"outputs": [],
			"stateMutability": "nonpayable",
			"type": "function"
		}
	]
}