{
	"data": {
		"bytecode": {
			"linkReferences": {},
			"object": "608060405234801561001057600080fd5b506101a3806100206000396000f3fe608060405234801561001057600080fd5b50600436106100415760003560e01c806395e17d841461004657806399462d851461005b578063fc314e3114610085575b600080fd5b61005961005436600461010f565b505050565b005b61007261006936600461010f565b60009392505050565b6040519081526020015b60405180910390f35b6100d7610093366004610154565b60016020819052600091825260409091208054918101546002820154600383015460048401546005909401546001600160a01b039586169590931693919290919086565b604080516001600160a01b039788168152969095166020870152938501929092526060840152608083015260a082015260c00161007c565b60008060006060848603121561012457600080fd5b833592506020840135915060408401356001600160a01b038116811461014957600080fd5b809150509250925092565b60006020828403121561016657600080fd5b503591905056fea264697066735822122089edf554ef6813c42fad11e1acccdd7efc0831798caefe91dff4e9fe3541206c64736f6c63430008140033",
			"opcodes": "PUSH1 0x80 PUSH1 0x40 MSTORE CALLVALUE DUP1 ISZERO PUSH2 0x10 JUMPI PUSH1 0x0 DUP1 REVERT JUMPDEST POP PUSH2 0x1A3 DUP1 PUSH2 0x20 PUSH1 0x0 CODECOPY PUSH1 0x0 RETURN INVALID PUSH1 0x80 PUSH1 0x40 MSTORE CALLVALUE DUP1 ISZERO PUSH2 0x10 JUMPI PUSH1 0x0 DUP1 REVERT JUMPDEST POP PUSH1 0x4 CALLDATASIZE LT PUSH2 0x41 JUMPI PUSH1 0x0 CALLDATALOAD PUSH1 0xE0 SHR DUP1 PUSH4 0x95E17D84 EQ PUSH2 0x46 JUMPI DUP1 PUSH4 0x99462D85 EQ PUSH2 0x5B JUMPI DUP1 PUSH4 0xFC314E31 EQ PUSH2 0x85 JUMPI JUMPDEST PUSH1 0x0 DUP1 REVERT JUMPDEST PUSH2 0x59 PUSH2 0x54 CALLDATASIZE PUSH1 0x4 PUSH2 0x10F JUMP JUMPDEST POP POP POP JUMP JUMPDEST STOP JUMPDEST PUSH2 0x72 PUSH2 0x69 CALLDATASIZE PUSH1 0x4 PUSH2 0x10F JUMP JUMPDEST PUSH1 0x0 SWAP4 SWAP3 POP POP POP JUMP JUMPDEST PUSH1 0x40 MLOAD SWAP1 DUP2 MSTORE PUSH1 0x20 ADD JUMPDEST PUSH1 0x40 MLOAD DUP1 SWAP2 SUB SWAP1 RETURN JUMPDEST PUSH2 0xD7 PUSH2 0x93 CALLDATASIZE PUSH1 0x4 PUSH2 0x154 JUMP JUMPDEST PUSH1 0x1 PUSH1 0x20 DUP2 SWAP1 MSTORE PUSH1 0x0 SWAP2 DUP3 MSTORE PUSH1 0x40 SWAP1 SWAP2 KECCAK256 DUP1 SLOAD SWAP2 DUP2 ADD SLOAD PUSH1 0x2 DUP3 ADD SLOAD PUSH1 0x3 DUP4 ADD SLOAD PUSH1 0x4 DUP5 ADD SLOAD PUSH1 0x5 SWAP1 SWAP5 ADD SLOAD PUSH1 0x1 PUSH1 0x1 PUSH1 0xA0 SHL SUB SWAP6 DUP7 AND SWAP6 SWAP1 SWAP4 AND SWAP4 SWAP2 SWAP3 SWAP1 SWAP2 SWAP1 DUP7 JUMP JUMPDEST PUSH1 0x40 DUP1 MLOAD PUSH1 0x1 PUSH1 0x1 PUSH1 0xA0 SHL SUB SWAP8 DUP9 AND DUP2 MSTORE SWAP7 SWAP1 SWAP6 AND PUSH1 0x20 DUP8 ADD MSTORE SWAP4 DUP6 ADD SWAP3 SWAP1 SWAP3 MSTORE PUSH1 0x60 DUP5 ADD MSTORE PUSH1 0x80 DUP4 ADD MSTORE PUSH1 0xA0 DUP3 ADD MSTORE PUSH1 0xC0 ADD PUSH2 0x7C JUMP JUMPDEST PUSH1 0x0 DUP1 PUSH1 0x0 PUSH1 0x60 DUP5 DUP7 SUB SLT ISZERO PUSH2 0x124 JUMPI PUSH1 0x0 DUP1 REVERT JUMPDEST DUP4 CALLDATALOAD SWAP3 POP PUSH1 0x20 DUP5 ADD CALLDATALOAD SWAP2 POP PUSH1 0x40 DUP5 ADD CALLDATALOAD PUSH1 0x1 PUSH1 0x1 PUSH1 0xA0 SHL SUB DUP2 AND DUP2 EQ PUSH2 0x149 JUMPI PUSH1 0x0 DUP1 REVERT JUMPDEST DUP1 SWAP2 POP POP SWAP3 POP SWAP3 POP SWAP3 JUMP JUMPDEST PUSH1 0x0 PUSH1 0x20 DUP3 DUP5 SUB SLT ISZERO PUSH2 0x166 JUMPI PUSH1 0x0 DUP1 REVERT JUMPDEST POP CALLDATALOAD SWAP2 SWAP1 POP JUMP INVALID LOG2 PUSH5 0x6970667358 0x22 SLT KECCAK256 DUP10 0xED CREATE2 SLOAD 0xEF PUSH9 0x13C42FAD11E1ACCCDD PUSH31 0xFC0831798CAEFE91DFF4E9FE3541206C64736F6C6343000814003300000000 "
		},
		"gasEstimates": {
			"creation": {
				"codeDepositCost": "83800",
				"executionCost": "135",
				"totalCost": "83935"
			},
			"external": {
				"depositLiquidity(uint256,uint256,address)": "367",
				"tokenDetails(uint256)": "13194",
				"withdrawLiquidity(uint256,uint256,address)": "290"
			}
		},
		"methodIdentifiers": {
			"depositLiquidity(uint256,uint256,address)": "99462d85",
			"tokenDetails(uint256)": "fc314e31",
			"withdrawLiquidity(uint256,uint256,address)": "95e17d84"
		}
	},
	"abi": [
		{
			"inputs": [
				{
					"internalType": "uint256",
					"name": "_token0",
					"type": "uint256"
				},
				{
					"internalType": "uint256",
					"name": "_token1",
					"type": "uint256"
				},
				{
					"internalType": "address",
					"name": "_to",
					"type": "address"
				}
			],
			"name": "depositLiquidity",
			"outputs": [
				{
					"internalType": "uint256",
					"name": "",
					"type": "uint256"
				}
			],
			"stateMutability": "nonpayable",
			"type": "function"
		},
		{
			"inputs": [
				{
					"internalType": "uint256",
					"name": "",
					"type": "uint256"
				}
			],
			"name": "tokenDetails",
			"outputs": [
				{
					"internalType": "address",
					"name": "token0",
					"type": "address"
				},
				{
					"internalType": "address",
					"name": "token1",
					"type": "address"
				},
				{
					"internalType": "uint256",
					"name": "reserve0",
					"type": "uint256"
				},
				{
					"internalType": "uint256",
					"name": "reserve1",
					"type": "uint256"
				},
				{
					"internalType": "uint256",
					"name": "Timestamp",
					"type": "uint256"
				},
				{
					"internalType": "uint256",
					"name": "id",
					"type": "uint256"
				}
			],
			"stateMutability": "view",
			"type": "function"
		},
		{
			"inputs": [
				{
					"internalType": "uint256",
					"name": "_token0",
					"type": "uint256"
				},
				{
					"internalType": "uint256",
					"name": "_token1",
					"type": "uint256"
				},
				{
					"internalType": "address",
					"name": "_to",
					"type": "address"
				}
			],
			"name": "withdrawLiquidity",
			"outputs": [],
			"stateMutability": "nonpayable",
			"type": "function"
		}
	]
}