{
	"RVA/UpgradableToken.sol": {
		"ERC20Token": {
			"abi": [
				{
					"inputs": [],
					"stateMutability": "nonpayable",
					"type": "constructor"
				},
				{
					"inputs": [
						{
							"internalType": "address",
							"name": "target",
							"type": "address"
						}
					],
					"name": "AddressEmptyCode",
					"type": "error"
				},
				{
					"inputs": [
						{
							"internalType": "address",
							"name": "implementation",
							"type": "address"
						}
					],
					"name": "ERC1967InvalidImplementation",
					"type": "error"
				},
				{
					"inputs": [],
					"name": "ERC1967NonPayable",
					"type": "error"
				},
				{
					"inputs": [
						{
							"internalType": "address",
							"name": "spender",
							"type": "address"
						},
						{
							"internalType": "uint256",
							"name": "allowance",
							"type": "uint256"
						},
						{
							"internalType": "uint256",
							"name": "needed",
							"type": "uint256"
						}
					],
					"name": "ERC20InsufficientAllowance",
					"type": "error"
				},
				{
					"inputs": [
						{
							"internalType": "address",
							"name": "sender",
							"type": "address"
						},
						{
							"internalType": "uint256",
							"name": "balance",
							"type": "uint256"
						},
						{
							"internalType": "uint256",
							"name": "needed",
							"type": "uint256"
						}
					],
					"name": "ERC20InsufficientBalance",
					"type": "error"
				},
				{
					"inputs": [
						{
							"internalType": "address",
							"name": "approver",
							"type": "address"
						}
					],
					"name": "ERC20InvalidApprover",
					"type": "error"
				},
				{
					"inputs": [
						{
							"internalType": "address",
							"name": "receiver",
							"type": "address"
						}
					],
					"name": "ERC20InvalidReceiver",
					"type": "error"
				},
				{
					"inputs": [
						{
							"internalType": "address",
							"name": "sender",
							"type": "address"
						}
					],
					"name": "ERC20InvalidSender",
					"type": "error"
				},
				{
					"inputs": [
						{
							"internalType": "address",
							"name": "spender",
							"type": "address"
						}
					],
					"name": "ERC20InvalidSpender",
					"type": "error"
				},
				{
					"inputs": [],
					"name": "EnforcedPause",
					"type": "error"
				},
				{
					"inputs": [],
					"name": "ExpectedPause",
					"type": "error"
				},
				{
					"inputs": [],
					"name": "FailedCall",
					"type": "error"
				},
				{
					"inputs": [],
					"name": "InvalidInitialization",
					"type": "error"
				},
				{
					"inputs": [],
					"name": "NotInitializing",
					"type": "error"
				},
				{
					"inputs": [
						{
							"internalType": "address",
							"name": "owner",
							"type": "address"
						}
					],
					"name": "OwnableInvalidOwner",
					"type": "error"
				},
				{
					"inputs": [
						{
							"internalType": "address",
							"name": "account",
							"type": "address"
						}
					],
					"name": "OwnableUnauthorizedAccount",
					"type": "error"
				},
				{
					"inputs": [],
					"name": "ReentrancyGuardReentrantCall",
					"type": "error"
				},
				{
					"inputs": [],
					"name": "UUPSUnauthorizedCallContext",
					"type": "error"
				},
				{
					"inputs": [
						{
							"internalType": "bytes32",
							"name": "slot",
							"type": "bytes32"
						}
					],
					"name": "UUPSUnsupportedProxiableUUID",
					"type": "error"
				},
				{
					"anonymous": false,
					"inputs": [
						{
							"indexed": true,
							"internalType": "address",
							"name": "owner",
							"type": "address"
						},
						{
							"indexed": true,
							"internalType": "address",
							"name": "spender",
							"type": "address"
						},
						{
							"indexed": false,
							"internalType": "uint256",
							"name": "value",
							"type": "uint256"
						}
					],
					"name": "Approval",
					"type": "event"
				},
				{
					"anonymous": false,
					"inputs": [
						{
							"indexed": true,
							"internalType": "address",
							"name": "account",
							"type": "address"
						},
						{
							"indexed": false,
							"internalType": "bool",
							"name": "isBlacklisted",
							"type": "bool"
						}
					],
					"name": "Blacklisted",
					"type": "event"
				},
				{
					"anonymous": false,
					"inputs": [
						{
							"indexed": true,
							"internalType": "address",
							"name": "token",
							"type": "address"
						},
						{
							"indexed": false,
							"internalType": "uint256",
							"name": "amount",
							"type": "uint256"
						}
					],
					"name": "EmergencyTokenRecovered",
					"type": "event"
				},
				{
					"anonymous": false,
					"inputs": [
						{
							"indexed": true,
							"internalType": "address",
							"name": "icoContract",
							"type": "address"
						}
					],
					"name": "ICOContractSet",
					"type": "event"
				},
				{
					"anonymous": false,
					"inputs": [
						{
							"indexed": false,
							"internalType": "uint64",
							"name": "version",
							"type": "uint64"
						}
					],
					"name": "Initialized",
					"type": "event"
				},
				{
					"anonymous": false,
					"inputs": [
						{
							"indexed": true,
							"internalType": "address",
							"name": "account",
							"type": "address"
						},
						{
							"indexed": false,
							"internalType": "uint256",
							"name": "lockedUntilTimestamp",
							"type": "uint256"
						},
						{
							"indexed": false,
							"internalType": "uint256",
							"name": "lockedAmount",
							"type": "uint256"
						}
					],
					"name": "LockupSet",
					"type": "event"
				},
				{
					"anonymous": false,
					"inputs": [
						{
							"indexed": true,
							"internalType": "address",
							"name": "previousOwner",
							"type": "address"
						},
						{
							"indexed": true,
							"internalType": "address",
							"name": "newOwner",
							"type": "address"
						}
					],
					"name": "OwnershipTransferred",
					"type": "event"
				},
				{
					"anonymous": false,
					"inputs": [
						{
							"indexed": false,
							"internalType": "address",
							"name": "account",
							"type": "address"
						}
					],
					"name": "Paused",
					"type": "event"
				},
				{
					"anonymous": false,
					"inputs": [
						{
							"indexed": true,
							"internalType": "address",
							"name": "from",
							"type": "address"
						},
						{
							"indexed": true,
							"internalType": "address",
							"name": "to",
							"type": "address"
						},
						{
							"indexed": false,
							"internalType": "uint256",
							"name": "value",
							"type": "uint256"
						}
					],
					"name": "Transfer",
					"type": "event"
				},
				{
					"anonymous": false,
					"inputs": [
						{
							"indexed": false,
							"internalType": "address",
							"name": "account",
							"type": "address"
						}
					],
					"name": "Unpaused",
					"type": "event"
				},
				{
					"anonymous": false,
					"inputs": [
						{
							"indexed": true,
							"internalType": "address",
							"name": "implementation",
							"type": "address"
						}
					],
					"name": "Upgraded",
					"type": "event"
				},
				{
					"inputs": [],
					"name": "UPGRADE_INTERFACE_VERSION",
					"outputs": [
						{
							"internalType": "string",
							"name": "",
							"type": "string"
						}
					],
					"stateMutability": "view",
					"type": "function"
				},
				{
					"inputs": [
						{
							"internalType": "address",
							"name": "owner",
							"type": "address"
						},
						{
							"internalType": "address",
							"name": "spender",
							"type": "address"
						}
					],
					"name": "allowance",
					"outputs": [
						{
							"internalType": "uint256",
							"name": "",
							"type": "uint256"
						}
					],
					"stateMutability": "view",
					"type": "function"
				},
				{
					"inputs": [
						{
							"internalType": "address",
							"name": "spender",
							"type": "address"
						},
						{
							"internalType": "uint256",
							"name": "value",
							"type": "uint256"
						}
					],
					"name": "approve",
					"outputs": [
						{
							"internalType": "bool",
							"name": "",
							"type": "bool"
						}
					],
					"stateMutability": "nonpayable",
					"type": "function"
				},
				{
					"inputs": [
						{
							"internalType": "address",
							"name": "account",
							"type": "address"
						}
					],
					"name": "balanceOf",
					"outputs": [
						{
							"internalType": "uint256",
							"name": "",
							"type": "uint256"
						}
					],
					"stateMutability": "view",
					"type": "function"
				},
				{
					"inputs": [
						{
							"internalType": "address[]",
							"name": "recipients",
							"type": "address[]"
						},
						{
							"internalType": "uint256[]",
							"name": "amounts",
							"type": "uint256[]"
						}
					],
					"name": "batchTransfer",
					"outputs": [],
					"stateMutability": "nonpayable",
					"type": "function"
				},
				{
					"inputs": [
						{
							"internalType": "address",
							"name": "",
							"type": "address"
						}
					],
					"name": "blacklisted",
					"outputs": [
						{
							"internalType": "bool",
							"name": "",
							"type": "bool"
						}
					],
					"stateMutability": "view",
					"type": "function"
				},
				{
					"inputs": [],
					"name": "decimals",
					"outputs": [
						{
							"internalType": "uint8",
							"name": "",
							"type": "uint8"
						}
					],
					"stateMutability": "view",
					"type": "function"
				},
				{
					"inputs": [],
					"name": "icoContract",
					"outputs": [
						{
							"internalType": "address",
							"name": "",
							"type": "address"
						}
					],
					"stateMutability": "view",
					"type": "function"
				},
				{
					"inputs": [
						{
							"internalType": "string",
							"name": "name",
							"type": "string"
						},
						{
							"internalType": "string",
							"name": "symbol",
							"type": "string"
						},
						{
							"internalType": "uint256",
							"name": "totalSupply_",
							"type": "uint256"
						}
					],
					"name": "initialize",
					"outputs": [],
					"stateMutability": "nonpayable",
					"type": "function"
				},
				{
					"inputs": [
						{
							"internalType": "address",
							"name": "account",
							"type": "address"
						}
					],
					"name": "isBlacklisted",
					"outputs": [
						{
							"internalType": "bool",
							"name": "",
							"type": "bool"
						}
					],
					"stateMutability": "view",
					"type": "function"
				},
				{
					"inputs": [
						{
							"internalType": "address",
							"name": "",
							"type": "address"
						}
					],
					"name": "lockedAmount",
					"outputs": [
						{
							"internalType": "uint256",
							"name": "",
							"type": "uint256"
						}
					],
					"stateMutability": "view",
					"type": "function"
				},
				{
					"inputs": [
						{
							"internalType": "address",
							"name": "",
							"type": "address"
						}
					],
					"name": "lockedUntil",
					"outputs": [
						{
							"internalType": "uint256",
							"name": "",
							"type": "uint256"
						}
					],
					"stateMutability": "view",
					"type": "function"
				},
				{
					"inputs": [],
					"name": "name",
					"outputs": [
						{
							"internalType": "string",
							"name": "",
							"type": "string"
						}
					],
					"stateMutability": "view",
					"type": "function"
				},
				{
					"inputs": [],
					"name": "owner",
					"outputs": [
						{
							"internalType": "address",
							"name": "",
							"type": "address"
						}
					],
					"stateMutability": "view",
					"type": "function"
				},
				{
					"inputs": [],
					"name": "pause",
					"outputs": [],
					"stateMutability": "nonpayable",
					"type": "function"
				},
				{
					"inputs": [],
					"name": "paused",
					"outputs": [
						{
							"internalType": "bool",
							"name": "",
							"type": "bool"
						}
					],
					"stateMutability": "view",
					"type": "function"
				},
				{
					"inputs": [],
					"name": "proxiableUUID",
					"outputs": [
						{
							"internalType": "bytes32",
							"name": "",
							"type": "bytes32"
						}
					],
					"stateMutability": "view",
					"type": "function"
				},
				{
					"inputs": [],
					"name": "renounceOwnership",
					"outputs": [],
					"stateMutability": "nonpayable",
					"type": "function"
				},
				{
					"inputs": [
						{
							"internalType": "address",
							"name": "account",
							"type": "address"
						},
						{
							"internalType": "bool",
							"name": "status",
							"type": "bool"
						}
					],
					"name": "setBlacklist",
					"outputs": [],
					"stateMutability": "nonpayable",
					"type": "function"
				},
				{
					"inputs": [
						{
							"internalType": "address",
							"name": "_icoContract",
							"type": "address"
						}
					],
					"name": "setICOContract",
					"outputs": [],
					"stateMutability": "nonpayable",
					"type": "function"
				},
				{
					"inputs": [
						{
							"internalType": "address",
							"name": "account",
							"type": "address"
						},
						{
							"internalType": "uint256",
							"name": "timestamp",
							"type": "uint256"
						},
						{
							"internalType": "uint256",
							"name": "amount",
							"type": "uint256"
						}
					],
					"name": "setLockup",
					"outputs": [],
					"stateMutability": "nonpayable",
					"type": "function"
				},
				{
					"inputs": [],
					"name": "symbol",
					"outputs": [
						{
							"internalType": "string",
							"name": "",
							"type": "string"
						}
					],
					"stateMutability": "view",
					"type": "function"
				},
				{
					"inputs": [],
					"name": "totalSupply",
					"outputs": [
						{
							"internalType": "uint256",
							"name": "",
							"type": "uint256"
						}
					],
					"stateMutability": "view",
					"type": "function"
				},
				{
					"inputs": [
						{
							"internalType": "address",
							"name": "recipient",
							"type": "address"
						},
						{
							"internalType": "uint256",
							"name": "amount",
							"type": "uint256"
						}
					],
					"name": "transfer",
					"outputs": [
						{
							"internalType": "bool",
							"name": "",
							"type": "bool"
						}
					],
					"stateMutability": "nonpayable",
					"type": "function"
				},
				{
					"inputs": [
						{
							"internalType": "address",
							"name": "sender",
							"type": "address"
						},
						{
							"internalType": "address",
							"name": "recipient",
							"type": "address"
						},
						{
							"internalType": "uint256",
							"name": "amount",
							"type": "uint256"
						}
					],
					"name": "transferFrom",
					"outputs": [
						{
							"internalType": "bool",
							"name": "",
							"type": "bool"
						}
					],
					"stateMutability": "nonpayable",
					"type": "function"
				},
				{
					"inputs": [
						{
							"internalType": "address",
							"name": "newOwner",
							"type": "address"
						}
					],
					"name": "transferOwnership",
					"outputs": [],
					"stateMutability": "nonpayable",
					"type": "function"
				},
				{
					"inputs": [],
					"name": "unpause",
					"outputs": [],
					"stateMutability": "nonpayable",
					"type": "function"
				},
				{
					"inputs": [
						{
							"internalType": "address",
							"name": "newImplementation",
							"type": "address"
						},
						{
							"internalType": "bytes",
							"name": "data",
							"type": "bytes"
						}
					],
					"name": "upgradeToAndCall",
					"outputs": [],
					"stateMutability": "payable",
					"type": "function"
				}
			],
			"devdoc": {
				"errors": {
					"AddressEmptyCode(address)": [
						{
							"details": "There's no code at `target` (it is not a contract)."
						}
					],
					"ERC1967InvalidImplementation(address)": [
						{
							"details": "The `implementation` of the proxy is invalid."
						}
					],
					"ERC1967NonPayable()": [
						{
							"details": "An upgrade function sees `msg.value > 0` that may be lost."
						}
					],
					"ERC20InsufficientAllowance(address,uint256,uint256)": [
						{
							"details": "Indicates a failure with the `spender`s `allowance`. Used in transfers.",
							"params": {
								"allowance": "Amount of tokens a `spender` is allowed to operate with.",
								"needed": "Minimum amount required to perform a transfer.",
								"spender": "Address that may be allowed to operate on tokens without being their owner."
							}
						}
					],
					"ERC20InsufficientBalance(address,uint256,uint256)": [
						{
							"details": "Indicates an error related to the current `balance` of a `sender`. Used in transfers.",
							"params": {
								"balance": "Current balance for the interacting account.",
								"needed": "Minimum amount required to perform a transfer.",
								"sender": "Address whose tokens are being transferred."
							}
						}
					],
					"ERC20InvalidApprover(address)": [
						{
							"details": "Indicates a failure with the `approver` of a token to be approved. Used in approvals.",
							"params": {
								"approver": "Address initiating an approval operation."
							}
						}
					],
					"ERC20InvalidReceiver(address)": [
						{
							"details": "Indicates a failure with the token `receiver`. Used in transfers.",
							"params": {
								"receiver": "Address to which tokens are being transferred."
							}
						}
					],
					"ERC20InvalidSender(address)": [
						{
							"details": "Indicates a failure with the token `sender`. Used in transfers.",
							"params": {
								"sender": "Address whose tokens are being transferred."
							}
						}
					],
					"ERC20InvalidSpender(address)": [
						{
							"details": "Indicates a failure with the `spender` to be approved. Used in approvals.",
							"params": {
								"spender": "Address that may be allowed to operate on tokens without being their owner."
							}
						}
					],
					"EnforcedPause()": [
						{
							"details": "The operation failed because the contract is paused."
						}
					],
					"ExpectedPause()": [
						{
							"details": "The operation failed because the contract is not paused."
						}
					],
					"FailedCall()": [
						{
							"details": "A call to an address target failed. The target may have reverted."
						}
					],
					"InvalidInitialization()": [
						{
							"details": "The contract is already initialized."
						}
					],
					"NotInitializing()": [
						{
							"details": "The contract is not initializing."
						}
					],
					"OwnableInvalidOwner(address)": [
						{
							"details": "The owner is not a valid owner account. (eg. `address(0)`)"
						}
					],
					"OwnableUnauthorizedAccount(address)": [
						{
							"details": "The caller account is not authorized to perform an operation."
						}
					],
					"ReentrancyGuardReentrantCall()": [
						{
							"details": "Unauthorized reentrant call."
						}
					],
					"UUPSUnauthorizedCallContext()": [
						{
							"details": "The call is from an unauthorized context."
						}
					],
					"UUPSUnsupportedProxiableUUID(bytes32)": [
						{
							"details": "The storage `slot` is unsupported as a UUID."
						}
					]
				},
				"events": {
					"Approval(address,address,uint256)": {
						"details": "Emitted when the allowance of a `spender` for an `owner` is set by a call to {approve}. `value` is the new allowance."
					},
					"Initialized(uint64)": {
						"details": "Triggered when the contract has been initialized or reinitialized."
					},
					"Paused(address)": {
						"details": "Emitted when the pause is triggered by `account`."
					},
					"Transfer(address,address,uint256)": {
						"details": "Emitted when `value` tokens are moved from one account (`from`) to another (`to`). Note that `value` may be zero."
					},
					"Unpaused(address)": {
						"details": "Emitted when the pause is lifted by `account`."
					},
					"Upgraded(address)": {
						"details": "Emitted when the implementation is upgraded."
					}
				},
				"kind": "dev",
				"methods": {
					"allowance(address,address)": {
						"details": "See {IERC20-allowance}."
					},
					"approve(address,uint256)": {
						"details": "See {IERC20-approve}. NOTE: If `value` is the maximum `uint256`, the allowance is not updated on `transferFrom`. This is semantically equivalent to an infinite approval. Requirements: - `spender` cannot be the zero address."
					},
					"balanceOf(address)": {
						"details": "See {IERC20-balanceOf}."
					},
					"constructor": {
						"custom:oz-upgrades-unsafe-allow": "constructor"
					},
					"decimals()": {
						"details": "Returns the number of decimals used to get its user representation. For example, if `decimals` equals `2`, a balance of `505` tokens should be displayed to a user as `5.05` (`505 / 10 ** 2`). Tokens usually opt for a value of 18, imitating the relationship between Ether and Wei. This is the default value returned by this function, unless it's overridden. NOTE: This information is only used for _display_ purposes: it in no way affects any of the arithmetic of the contract, including {IERC20-balanceOf} and {IERC20-transfer}."
					},
					"name()": {
						"details": "Returns the name of the token."
					},
					"owner()": {
						"details": "Returns the address of the current owner."
					},
					"paused()": {
						"details": "Returns true if the contract is paused, and false otherwise."
					},
					"proxiableUUID()": {
						"details": "Implementation of the ERC-1822 {proxiableUUID} function. This returns the storage slot used by the implementation. It is used to validate the implementation's compatibility when performing an upgrade. IMPORTANT: A proxy pointing at a proxiable contract should not be considered proxiable itself, because this risks bricking a proxy that upgrades to it, by delegating to itself until out of gas. Thus it is critical that this function revert if invoked through a proxy. This is guaranteed by the `notDelegated` modifier."
					},
					"renounceOwnership()": {
						"details": "Leaves the contract without owner. It will not be possible to call `onlyOwner` functions. Can only be called by the current owner. NOTE: Renouncing ownership will leave the contract without an owner, thereby disabling any functionality that is only available to the owner."
					},
					"symbol()": {
						"details": "Returns the symbol of the token, usually a shorter version of the name."
					},
					"totalSupply()": {
						"details": "See {IERC20-totalSupply}."
					},
					"transferOwnership(address)": {
						"details": "Transfers ownership of the contract to a new account (`newOwner`). Can only be called by the current owner."
					},
					"upgradeToAndCall(address,bytes)": {
						"custom:oz-upgrades-unsafe-allow-reachable": "delegatecall",
						"details": "Upgrade the implementation of the proxy to `newImplementation`, and subsequently execute the function call encoded in `data`. Calls {_authorizeUpgrade}. Emits an {Upgraded} event."
					}
				},
				"version": 1
			},
			"evm": {
				"assembly": "    /* \"RVA/UpgradableToken.sol\":525:4920  contract ERC20Token is ERC20Upgradeable,ReentrancyGuardUpgradeable, OwnableUpgradeable, PausableUpgradeable, UUPSUpgradeable {... */\n  mstore(0x40, 0xa0)\n    /* \"@openzeppelin/contracts-upgradeable/proxy/utils/UUPSUpgradeable.sol\":1171:1175  this */\n  address\n    /* \"@openzeppelin/contracts-upgradeable/proxy/utils/UUPSUpgradeable.sol\":1128:1176  address private immutable __self = address(this) */\n  0x80\n  mstore\n    /* \"RVA/UpgradableToken.sol\":1269:1374  constructor() {... */\n  callvalue\n  dup1\n  iszero\n  tag_1\n  jumpi\n  0x00\n  dup1\n  revert\ntag_1:\n  pop\n    /* \"RVA/UpgradableToken.sol\":1293:1315  _disableInitializers() */\n  tag_4\n    /* \"RVA/UpgradableToken.sol\":1293:1313  _disableInitializers */\n  tag_5\n    /* \"RVA/UpgradableToken.sol\":1293:1315  _disableInitializers() */\n  jump\t// in\ntag_4:\n    /* \"RVA/UpgradableToken.sol\":525:4920  contract ERC20Token is ERC20Upgradeable,ReentrancyGuardUpgradeable, OwnableUpgradeable, PausableUpgradeable, UUPSUpgradeable {... */\n  jump(tag_15)\n    /* \"@openzeppelin/contracts-upgradeable/proxy/utils/Initializable.sol\":7711:8133  function _disableInitializers() internal virtual {... */\ntag_5:\n    /* \"@openzeppelin/contracts-upgradeable/proxy/utils/Initializable.sol\":8870:8891  INITIALIZABLE_STORAGE */\n  0xf0c57e16840df040f15088dc2f81fe391c3923bec73e23a9662efc9c229c6a00\n    /* \"@openzeppelin/contracts-upgradeable/proxy/utils/Initializable.sol\":7900:7915  $._initializing */\n  dup1\n  sload\n  0x010000000000000000\n  swap1\n  div\n  0xff\n  and\n    /* \"@openzeppelin/contracts-upgradeable/proxy/utils/Initializable.sol\":7896:7972  if ($._initializing) {... */\n  iszero\n  tag_10\n  jumpi\n    /* \"@openzeppelin/contracts-upgradeable/proxy/utils/Initializable.sol\":7938:7961  InvalidInitialization() */\n  mload(0x40)\n  shl(0xe0, 0xf92ee8a9)\n  dup2\n  mstore\n  0x04\n  add\n  mload(0x40)\n  dup1\n  swap2\n  sub\n  swap1\n  revert\n    /* \"@openzeppelin/contracts-upgradeable/proxy/utils/Initializable.sol\":7896:7972  if ($._initializing) {... */\ntag_10:\n    /* \"@openzeppelin/contracts-upgradeable/proxy/utils/Initializable.sol\":7985:7999  $._initialized */\n  dup1\n  sload\n  sub(shl(0x40, 0x01), 0x01)\n  swap1\n  dup2\n  and\n    /* \"@openzeppelin/contracts-upgradeable/proxy/utils/Initializable.sol\":7985:8019  $._initialized != type(uint64).max */\n  eq\n    /* \"@openzeppelin/contracts-upgradeable/proxy/utils/Initializable.sol\":7981:8127  if ($._initialized != type(uint64).max) {... */\n  tag_11\n  jumpi\n    /* \"@openzeppelin/contracts-upgradeable/proxy/utils/Initializable.sol\":8035:8068  $._initialized = type(uint64).max */\n  dup1\n  sload\n  not(sub(shl(0x40, 0x01), 0x01))\n  and\n  sub(shl(0x40, 0x01), 0x01)\n  swap1\n  dup2\n  or\n  dup3\n  sstore\n    /* \"@openzeppelin/contracts-upgradeable/proxy/utils/Initializable.sol\":8087:8116  Initialized(type(uint64).max) */\n  mload(0x40)\n    /* \"#utility.yul\":158:208   */\n  swap1\n  dup2\n  mstore\n    /* \"@openzeppelin/contracts-upgradeable/proxy/utils/Initializable.sol\":8087:8116  Initialized(type(uint64).max) */\n  0xc7f505b2f371ae2175ee4913f4499e1f2633a7b5936321eed1cdaeb6115181d2\n  swap1\n    /* \"#utility.yul\":146:148   */\n  0x20\n    /* \"#utility.yul\":131:149   */\n  add\n    /* \"@openzeppelin/contracts-upgradeable/proxy/utils/Initializable.sol\":8087:8116  Initialized(type(uint64).max) */\n  mload(0x40)\n  dup1\n  swap2\n  sub\n  swap1\n  log1\n    /* \"@openzeppelin/contracts-upgradeable/proxy/utils/Initializable.sol\":7981:8127  if ($._initialized != type(uint64).max) {... */\ntag_11:\n    /* \"@openzeppelin/contracts-upgradeable/proxy/utils/Initializable.sol\":7760:8133  {... */\n  pop\n    /* \"@openzeppelin/contracts-upgradeable/proxy/utils/Initializable.sol\":7711:8133  function _disableInitializers() internal virtual {... */\n  jump\t// out\n    /* \"#utility.yul\":14:214   */\ntag_15:\n    /* \"RVA/UpgradableToken.sol\":525:4920  contract ERC20Token is ERC20Upgradeable,ReentrancyGuardUpgradeable, OwnableUpgradeable, PausableUpgradeable, UUPSUpgradeable {... */\n  mload(0x80)\n  codecopy(0x00, dataOffset(sub_0), dataSize(sub_0))\n  0x00\n  assignImmutable(\"0x0b83f23a4eeb8c3f5f7d5934a2289bcf0186d09a12e1b7f20adf54e4b179db15\")\n  return(0x00, dataSize(sub_0))\nstop\n\nsub_0: assembly {\n        /* \"RVA/UpgradableToken.sol\":525:4920  contract ERC20Token is ERC20Upgradeable,ReentrancyGuardUpgradeable, OwnableUpgradeable, PausableUpgradeable, UUPSUpgradeable {... */\n      mstore(0x40, 0x80)\n      jumpi(tag_1, lt(calldatasize, 0x04))\n      shr(0xe0, calldataload(0x00))\n      dup1\n      0x88d695b2\n      gt\n      tag_30\n      jumpi\n      dup1\n      0xb119490e\n      gt\n      tag_31\n      jumpi\n      dup1\n      0xdd62ed3e\n      gt\n      tag_32\n      jumpi\n      dup1\n      0xdd62ed3e\n      eq\n      tag_26\n      jumpi\n      dup1\n      0xf2fde38b\n      eq\n      tag_27\n      jumpi\n      dup1\n      0xf326f0d7\n      eq\n      tag_28\n      jumpi\n      dup1\n      0xfe575a87\n      eq\n      tag_29\n      jumpi\n      0x00\n      dup1\n      revert\n    tag_32:\n      dup1\n      0xb119490e\n      eq\n      tag_23\n      jumpi\n      dup1\n      0xc66e4095\n      eq\n      tag_24\n      jumpi\n      dup1\n      0xdbac26e9\n      eq\n      tag_25\n      jumpi\n      0x00\n      dup1\n      revert\n    tag_31:\n      dup1\n      0x9bc289f1\n      gt\n      tag_33\n      jumpi\n      dup1\n      0x9bc289f1\n      eq\n      tag_19\n      jumpi\n      dup1\n      0xa153e708\n      eq\n      tag_20\n      jumpi\n      dup1\n      0xa9059cbb\n      eq\n      tag_21\n      jumpi\n      dup1\n      0xad3cb1cc\n      eq\n      tag_22\n      jumpi\n      0x00\n      dup1\n      revert\n    tag_33:\n      dup1\n      0x88d695b2\n      eq\n      tag_16\n      jumpi\n      dup1\n      0x8da5cb5b\n      eq\n      tag_17\n      jumpi\n      dup1\n      0x95d89b41\n      eq\n      tag_18\n      jumpi\n      0x00\n      dup1\n      revert\n    tag_30:\n      dup1\n      0x3f4ba83a\n      gt\n      tag_34\n      jumpi\n      dup1\n      0x5c975abb\n      gt\n      tag_35\n      jumpi\n      dup1\n      0x5c975abb\n      eq\n      tag_12\n      jumpi\n      dup1\n      0x70a08231\n      eq\n      tag_13\n      jumpi\n      dup1\n      0x715018a6\n      eq\n      tag_14\n      jumpi\n      dup1\n      0x8456cb59\n      eq\n      tag_15\n      jumpi\n      0x00\n      dup1\n      revert\n    tag_35:\n      dup1\n      0x3f4ba83a\n      eq\n      tag_9\n      jumpi\n      dup1\n      0x4f1ef286\n      eq\n      tag_10\n      jumpi\n      dup1\n      0x52d1902d\n      eq\n      tag_11\n      jumpi\n      0x00\n      dup1\n      revert\n    tag_34:\n      dup1\n      0x18160ddd\n      gt\n      tag_36\n      jumpi\n      dup1\n      0x18160ddd\n      eq\n      tag_5\n      jumpi\n      dup1\n      0x23b872dd\n      eq\n      tag_6\n      jumpi\n      dup1\n      0x2e0d2a00\n      eq\n      tag_7\n      jumpi\n      dup1\n      0x313ce567\n      eq\n      tag_8\n      jumpi\n      0x00\n      dup1\n      revert\n    tag_36:\n      dup1\n      0x06fdde03\n      eq\n      tag_2\n      jumpi\n      dup1\n      0x095ea7b3\n      eq\n      tag_3\n      jumpi\n      dup1\n      0x153b0d1e\n      eq\n      tag_4\n      jumpi\n    tag_1:\n      0x00\n      dup1\n      revert\n        /* \"@openzeppelin/contracts-upgradeable/token/ERC20/ERC20Upgradeable.sol\":2716:2860  function name() public view virtual returns (string memory) {... */\n    tag_2:\n      callvalue\n      dup1\n      iszero\n      tag_37\n      jumpi\n      0x00\n      dup1\n      revert\n    tag_37:\n      pop\n      tag_38\n      tag_39\n      jump\t// in\n    tag_38:\n      mload(0x40)\n      tag_40\n      swap2\n      swap1\n      tag_41\n      jump\t// in\n    tag_40:\n      mload(0x40)\n      dup1\n      swap2\n      sub\n      swap1\n      return\n        /* \"@openzeppelin/contracts-upgradeable/token/ERC20/ERC20Upgradeable.sol\":5210:5396  function approve(address spender, uint256 value) public virtual returns (bool) {... */\n    tag_3:\n      callvalue\n      dup1\n      iszero\n      tag_42\n      jumpi\n      0x00\n      dup1\n      revert\n    tag_42:\n      pop\n      tag_43\n      tag_44\n      calldatasize\n      0x04\n      tag_45\n      jump\t// in\n    tag_44:\n      tag_46\n      jump\t// in\n    tag_43:\n      mload(0x40)\n        /* \"#utility.yul\":1085:1099   */\n      swap1\n      iszero\n        /* \"#utility.yul\":1078:1100   */\n      iszero\n        /* \"#utility.yul\":1060:1101   */\n      dup2\n      mstore\n        /* \"#utility.yul\":1048:1050   */\n      0x20\n        /* \"#utility.yul\":1033:1051   */\n      add\n        /* \"@openzeppelin/contracts-upgradeable/token/ERC20/ERC20Upgradeable.sol\":5210:5396  function approve(address spender, uint256 value) public virtual returns (bool) {... */\n      tag_40\n        /* \"#utility.yul\":920:1107   */\n      jump\n        /* \"RVA/UpgradableToken.sol\":2473:2687  function setBlacklist(address account, bool status) external onlyOwner {... */\n    tag_4:\n      callvalue\n      dup1\n      iszero\n      tag_49\n      jumpi\n      0x00\n      dup1\n      revert\n    tag_49:\n      pop\n      tag_50\n      tag_51\n      calldatasize\n      0x04\n      tag_52\n      jump\t// in\n    tag_51:\n      tag_53\n      jump\t// in\n    tag_50:\n      stop\n        /* \"@openzeppelin/contracts-upgradeable/token/ERC20/ERC20Upgradeable.sol\":3896:4048  function totalSupply() public view virtual returns (uint256) {... */\n    tag_5:\n      callvalue\n      dup1\n      iszero\n      tag_54\n      jumpi\n      0x00\n      dup1\n      revert\n    tag_54:\n      pop\n        /* \"@openzeppelin/contracts-upgradeable/token/ERC20/ERC20Upgradeable.sol\":4027:4041  $._totalSupply */\n      sload(0x52c63247e1f47db19d5ce0460030c497f067ca4cebf71ba98eeadabe20bace02)\n        /* \"@openzeppelin/contracts-upgradeable/token/ERC20/ERC20Upgradeable.sol\":3896:4048  function totalSupply() public view virtual returns (uint256) {... */\n    tag_55:\n      mload(0x40)\n        /* \"#utility.yul\":1610:1635   */\n      swap1\n      dup2\n      mstore\n        /* \"#utility.yul\":1598:1600   */\n      0x20\n        /* \"#utility.yul\":1583:1601   */\n      add\n        /* \"@openzeppelin/contracts-upgradeable/token/ERC20/ERC20Upgradeable.sol\":3896:4048  function totalSupply() public view virtual returns (uint256) {... */\n      tag_40\n        /* \"#utility.yul\":1464:1641   */\n      jump\n        /* \"RVA/UpgradableToken.sol\":3343:3890  function transferFrom(address sender, address recipient, uint256 amount) public override nonReentrant whenNotPaused returns (bool) {... */\n    tag_6:\n      callvalue\n      dup1\n      iszero\n      tag_59\n      jumpi\n      0x00\n      dup1\n      revert\n    tag_59:\n      pop\n      tag_43\n      tag_61\n      calldatasize\n      0x04\n      tag_62\n      jump\t// in\n    tag_61:\n      tag_63\n      jump\t// in\n        /* \"RVA/UpgradableToken.sol\":3896:4209  function setICOContract(address _icoContract) external nonReentrant whenNotPaused onlyOwner  {... */\n    tag_7:\n      callvalue\n      dup1\n      iszero\n      tag_65\n      jumpi\n      0x00\n      dup1\n      revert\n    tag_65:\n      pop\n      tag_50\n      tag_67\n      calldatasize\n      0x04\n      tag_68\n      jump\t// in\n    tag_67:\n      tag_69\n      jump\t// in\n        /* \"@openzeppelin/contracts-upgradeable/token/ERC20/ERC20Upgradeable.sol\":3754:3836  function decimals() public view virtual returns (uint8) {... */\n    tag_8:\n      callvalue\n      dup1\n      iszero\n      tag_70\n      jumpi\n      0x00\n      dup1\n      revert\n    tag_70:\n      pop\n      mload(0x40)\n        /* \"@openzeppelin/contracts-upgradeable/token/ERC20/ERC20Upgradeable.sol\":3827:3829  18 */\n      0x12\n        /* \"#utility.yul\":2358:2394   */\n      dup2\n      mstore\n        /* \"#utility.yul\":2346:2348   */\n      0x20\n        /* \"#utility.yul\":2331:2349   */\n      add\n        /* \"@openzeppelin/contracts-upgradeable/token/ERC20/ERC20Upgradeable.sol\":3754:3836  function decimals() public view virtual returns (uint8) {... */\n      tag_40\n        /* \"#utility.yul\":2216:2400   */\n      jump\n        /* \"RVA/UpgradableToken.sol\":1929:1994  function unpause() external onlyOwner {... */\n    tag_9:\n      callvalue\n      dup1\n      iszero\n      tag_75\n      jumpi\n      0x00\n      dup1\n      revert\n    tag_75:\n      pop\n      tag_50\n      tag_77\n      jump\t// in\n        /* \"@openzeppelin/contracts-upgradeable/proxy/utils/UUPSUpgradeable.sol\":4161:4375  function upgradeToAndCall(address newImplementation, bytes memory data) public payable virtual onlyProxy {... */\n    tag_10:\n      tag_50\n      tag_79\n      calldatasize\n      0x04\n      tag_80\n      jump\t// in\n    tag_79:\n      tag_81\n      jump\t// in\n        /* \"@openzeppelin/contracts-upgradeable/proxy/utils/UUPSUpgradeable.sol\":3708:3842  function proxiableUUID() external view virtual notDelegated returns (bytes32) {... */\n    tag_11:\n      callvalue\n      dup1\n      iszero\n      tag_82\n      jumpi\n      0x00\n      dup1\n      revert\n    tag_82:\n      pop\n      tag_55\n      tag_84\n      jump\t// in\n        /* \"@openzeppelin/contracts-upgradeable/utils/PausableUpgradeable.sol\":2692:2837  function paused() public view virtual returns (bool) {... */\n    tag_12:\n      callvalue\n      dup1\n      iszero\n      tag_87\n      jumpi\n      0x00\n      dup1\n      revert\n    tag_87:\n      pop\n      0x00\n      dup1\n      mload\n      0x20\n      data_c0c65a3718f3702d917c44106b91645b509d2e2d0979b70495c3babce192339f\n      dup4\n      codecopy\n      dup2\n      mload\n      swap2\n      mstore\n        /* \"@openzeppelin/contracts-upgradeable/utils/PausableUpgradeable.sol\":2821:2830  $._paused */\n      sload\n      0xff\n      and\n        /* \"@openzeppelin/contracts-upgradeable/utils/PausableUpgradeable.sol\":2692:2837  function paused() public view virtual returns (bool) {... */\n      jump(tag_43)\n        /* \"@openzeppelin/contracts-upgradeable/token/ERC20/ERC20Upgradeable.sol\":4106:4277  function balanceOf(address account) public view virtual returns (uint256) {... */\n    tag_13:\n      callvalue\n      dup1\n      iszero\n      tag_91\n      jumpi\n      0x00\n      dup1\n      revert\n    tag_91:\n      pop\n      tag_55\n      tag_93\n      calldatasize\n      0x04\n      tag_68\n      jump\t// in\n    tag_93:\n      sub(shl(0xa0, 0x01), 0x01)\n        /* \"@openzeppelin/contracts-upgradeable/token/ERC20/ERC20Upgradeable.sol\":4250:4270  $._balances[account] */\n      and\n        /* \"@openzeppelin/contracts-upgradeable/token/ERC20/ERC20Upgradeable.sol\":4171:4178  uint256 */\n      0x00\n        /* \"@openzeppelin/contracts-upgradeable/token/ERC20/ERC20Upgradeable.sol\":4250:4270  $._balances[account] */\n      swap1\n      dup2\n      mstore\n      0x00\n      dup1\n      mload\n      0x20\n      data_3874827173e8df9f34323b12b251d1d3c53926ce129e30a0d69f1d47c277041b\n      dup4\n      codecopy\n      dup2\n      mload\n      swap2\n      mstore\n      0x20\n      mstore\n      0x40\n      swap1\n      keccak256\n      sload\n      swap1\n        /* \"@openzeppelin/contracts-upgradeable/token/ERC20/ERC20Upgradeable.sol\":4106:4277  function balanceOf(address account) public view virtual returns (uint256) {... */\n      jump\n        /* \"@openzeppelin/contracts-upgradeable/access/OwnableUpgradeable.sol\":3155:3256  function renounceOwnership() public virtual onlyOwner {... */\n    tag_14:\n      callvalue\n      dup1\n      iszero\n      tag_96\n      jumpi\n      0x00\n      dup1\n      revert\n    tag_96:\n      pop\n      tag_50\n      tag_98\n      jump\t// in\n        /* \"RVA/UpgradableToken.sol\":1862:1923  function pause() external onlyOwner {... */\n    tag_15:\n      callvalue\n      dup1\n      iszero\n      tag_99\n      jumpi\n      0x00\n      dup1\n      revert\n    tag_99:\n      pop\n      tag_50\n      tag_101\n      jump\t// in\n        /* \"RVA/UpgradableToken.sol\":4215:4801  function batchTransfer(address[] calldata recipients, uint256[] calldata amounts) external nonReentrant whenNotPaused {... */\n    tag_16:\n      callvalue\n      dup1\n      iszero\n      tag_102\n      jumpi\n      0x00\n      dup1\n      revert\n    tag_102:\n      pop\n      tag_50\n      tag_104\n      calldatasize\n      0x04\n      tag_105\n      jump\t// in\n    tag_104:\n      tag_106\n      jump\t// in\n        /* \"@openzeppelin/contracts-upgradeable/access/OwnableUpgradeable.sol\":2441:2585  function owner() public view virtual returns (address) {... */\n    tag_17:\n      callvalue\n      dup1\n      iszero\n      tag_107\n      jumpi\n      0x00\n      dup1\n      revert\n    tag_107:\n      pop\n        /* \"@openzeppelin/contracts-upgradeable/access/OwnableUpgradeable.sol\":1313:1335  OwnableStorageLocation */\n      0x9016d09d72d40fdae2fd8ceac6b6234c7706214fd39c1cd1e609a0528c199300\n        /* \"@openzeppelin/contracts-upgradeable/access/OwnableUpgradeable.sol\":2570:2578  $._owner */\n      sload\n      sub(shl(0xa0, 0x01), 0x01)\n      and\n        /* \"@openzeppelin/contracts-upgradeable/access/OwnableUpgradeable.sol\":2441:2585  function owner() public view virtual returns (address) {... */\n    tag_108:\n      mload(0x40)\n      sub(shl(0xa0, 0x01), 0x01)\n        /* \"#utility.yul\":5276:5308   */\n      swap1\n      swap2\n      and\n        /* \"#utility.yul\":5258:5309   */\n      dup2\n      mstore\n        /* \"#utility.yul\":5246:5248   */\n      0x20\n        /* \"#utility.yul\":5231:5249   */\n      add\n        /* \"@openzeppelin/contracts-upgradeable/access/OwnableUpgradeable.sol\":2441:2585  function owner() public view virtual returns (address) {... */\n      tag_40\n        /* \"#utility.yul\":5112:5315   */\n      jump\n        /* \"@openzeppelin/contracts-upgradeable/token/ERC20/ERC20Upgradeable.sol\":2973:3121  function symbol() public view virtual returns (string memory) {... */\n    tag_18:\n      callvalue\n      dup1\n      iszero\n      tag_112\n      jumpi\n      0x00\n      dup1\n      revert\n    tag_112:\n      pop\n      tag_38\n      tag_114\n      jump\t// in\n        /* \"RVA/UpgradableToken.sol\":814:860  mapping(address => uint256) public lockedUntil */\n    tag_19:\n      callvalue\n      dup1\n      iszero\n      tag_116\n      jumpi\n      0x00\n      dup1\n      revert\n    tag_116:\n      pop\n      tag_55\n      tag_118\n      calldatasize\n      0x04\n      tag_68\n      jump\t// in\n    tag_118:\n      mstore(0x20, 0x03)\n      0x00\n      swap1\n      dup2\n      mstore\n      0x40\n      swap1\n      keccak256\n      sload\n      dup2\n      jump\n        /* \"RVA/UpgradableToken.sol\":866:913  mapping(address => uint256) public lockedAmount */\n    tag_20:\n      callvalue\n      dup1\n      iszero\n      tag_121\n      jumpi\n      0x00\n      dup1\n      revert\n    tag_121:\n      pop\n      tag_55\n      tag_123\n      calldatasize\n      0x04\n      tag_68\n      jump\t// in\n    tag_123:\n      mstore(0x20, 0x04)\n      0x00\n      swap1\n      dup2\n      mstore\n      0x40\n      swap1\n      keccak256\n      sload\n      dup2\n      jump\n        /* \"RVA/UpgradableToken.sol\":2810:3337  function transfer(address recipient, uint256 amount) public override nonReentrant whenNotPaused returns (bool) {... */\n    tag_21:\n      callvalue\n      dup1\n      iszero\n      tag_126\n      jumpi\n      0x00\n      dup1\n      revert\n    tag_126:\n      pop\n      tag_43\n      tag_128\n      calldatasize\n      0x04\n      tag_45\n      jump\t// in\n    tag_128:\n      tag_129\n      jump\t// in\n        /* \"@openzeppelin/contracts-upgradeable/proxy/utils/UUPSUpgradeable.sol\":1819:1877  string public constant UPGRADE_INTERFACE_VERSION = \"5.0.0\" */\n    tag_22:\n      callvalue\n      dup1\n      iszero\n      tag_131\n      jumpi\n      0x00\n      dup1\n      revert\n    tag_131:\n      pop\n      tag_38\n      mload(0x40)\n      dup1\n      0x40\n      add\n      0x40\n      mstore\n      dup1\n      0x05\n      dup2\n      mstore\n      0x20\n      add\n      shl(0xdc, 0x0352e302e3)\n      dup2\n      mstore\n      pop\n      dup2\n      jump\n        /* \"RVA/UpgradableToken.sol\":1380:1743  function initialize(string memory name, string memory symbol, uint256 totalSupply_) external initializer {... */\n    tag_23:\n      callvalue\n      dup1\n      iszero\n      tag_135\n      jumpi\n      0x00\n      dup1\n      revert\n    tag_135:\n      pop\n      tag_50\n      tag_137\n      calldatasize\n      0x04\n      tag_138\n      jump\t// in\n    tag_137:\n      tag_139\n      jump\t// in\n        /* \"RVA/UpgradableToken.sol\":656:682  address public icoContract */\n    tag_24:\n      callvalue\n      dup1\n      iszero\n      tag_140\n      jumpi\n      0x00\n      dup1\n      revert\n    tag_140:\n      pop\n      sload(0x00)\n      tag_108\n      swap1\n      sub(shl(0xa0, 0x01), 0x01)\n      and\n      dup2\n      jump\n        /* \"RVA/UpgradableToken.sol\":765:808  mapping(address => bool) public blacklisted */\n    tag_25:\n      callvalue\n      dup1\n      iszero\n      tag_144\n      jumpi\n      0x00\n      dup1\n      revert\n    tag_144:\n      pop\n      tag_43\n      tag_146\n      calldatasize\n      0x04\n      tag_68\n      jump\t// in\n    tag_146:\n      mstore(0x20, 0x02)\n      0x00\n      swap1\n      dup2\n      mstore\n      0x40\n      swap1\n      keccak256\n      sload\n      0xff\n      and\n      dup2\n      jump\n        /* \"@openzeppelin/contracts-upgradeable/token/ERC20/ERC20Upgradeable.sol\":4708:4903  function allowance(address owner, address spender) public view virtual returns (uint256) {... */\n    tag_26:\n      callvalue\n      dup1\n      iszero\n      tag_149\n      jumpi\n      0x00\n      dup1\n      revert\n    tag_149:\n      pop\n      tag_55\n      tag_151\n      calldatasize\n      0x04\n      tag_152\n      jump\t// in\n    tag_151:\n      tag_153\n      jump\t// in\n        /* \"@openzeppelin/contracts-upgradeable/access/OwnableUpgradeable.sol\":3405:3620  function transferOwnership(address newOwner) public virtual onlyOwner {... */\n    tag_27:\n      callvalue\n      dup1\n      iszero\n      tag_155\n      jumpi\n      0x00\n      dup1\n      revert\n    tag_155:\n      pop\n      tag_50\n      tag_157\n      calldatasize\n      0x04\n      tag_68\n      jump\t// in\n    tag_157:\n      tag_158\n      jump\t// in\n        /* \"RVA/UpgradableToken.sol\":2000:2467  function setLockup(address account, uint256 timestamp, uint256 amount) external nonReentrant whenNotPaused onlyICOContract  {... */\n    tag_28:\n      callvalue\n      dup1\n      iszero\n      tag_159\n      jumpi\n      0x00\n      dup1\n      revert\n    tag_159:\n      pop\n      tag_50\n      tag_161\n      calldatasize\n      0x04\n      tag_162\n      jump\t// in\n    tag_161:\n      tag_163\n      jump\t// in\n        /* \"RVA/UpgradableToken.sol\":2693:2804  function isBlacklisted(address account) public view returns (bool) {... */\n    tag_29:\n      callvalue\n      dup1\n      iszero\n      tag_164\n      jumpi\n      0x00\n      dup1\n      revert\n    tag_164:\n      pop\n      tag_43\n      tag_166\n      calldatasize\n      0x04\n      tag_68\n      jump\t// in\n    tag_166:\n      sub(shl(0xa0, 0x01), 0x01)\n        /* \"RVA/UpgradableToken.sol\":2777:2797  blacklisted[account] */\n      and\n        /* \"RVA/UpgradableToken.sol\":2754:2758  bool */\n      0x00\n        /* \"RVA/UpgradableToken.sol\":2777:2797  blacklisted[account] */\n      swap1\n      dup2\n      mstore\n        /* \"RVA/UpgradableToken.sol\":2777:2788  blacklisted */\n      0x02\n        /* \"RVA/UpgradableToken.sol\":2777:2797  blacklisted[account] */\n      0x20\n      mstore\n      0x40\n      swap1\n      keccak256\n      sload\n      0xff\n      and\n      swap1\n        /* \"RVA/UpgradableToken.sol\":2693:2804  function isBlacklisted(address account) public view returns (bool) {... */\n      jump\n        /* \"@openzeppelin/contracts-upgradeable/token/ERC20/ERC20Upgradeable.sol\":2716:2860  function name() public view virtual returns (string memory) {... */\n    tag_39:\n        /* \"@openzeppelin/contracts-upgradeable/token/ERC20/ERC20Upgradeable.sol\":2846:2853  $._name */\n      0x52c63247e1f47db19d5ce0460030c497f067ca4cebf71ba98eeadabe20bace03\n        /* \"@openzeppelin/contracts-upgradeable/token/ERC20/ERC20Upgradeable.sol\":2839:2853  return $._name */\n      dup1\n      sload\n        /* \"@openzeppelin/contracts-upgradeable/token/ERC20/ERC20Upgradeable.sol\":2761:2774  string memory */\n      0x60\n      swap2\n      0x00\n      dup1\n      mload\n      0x20\n      data_3874827173e8df9f34323b12b251d1d3c53926ce129e30a0d69f1d47c277041b\n      dup4\n      codecopy\n      dup2\n      mload\n      swap2\n      mstore\n        /* \"@openzeppelin/contracts-upgradeable/token/ERC20/ERC20Upgradeable.sol\":2064:2084  ERC20StorageLocation */\n      swap2\n        /* \"@openzeppelin/contracts-upgradeable/token/ERC20/ERC20Upgradeable.sol\":2839:2853  return $._name */\n      tag_172\n      swap1\n      tag_173\n      jump\t// in\n    tag_172:\n      dup1\n      0x1f\n      add\n      0x20\n      dup1\n      swap2\n      div\n      mul\n      0x20\n      add\n      mload(0x40)\n      swap1\n      dup2\n      add\n      0x40\n      mstore\n      dup1\n      swap3\n      swap2\n      swap1\n      dup2\n      dup2\n      mstore\n      0x20\n      add\n      dup3\n      dup1\n      sload\n      tag_174\n      swap1\n      tag_173\n      jump\t// in\n    tag_174:\n      dup1\n      iszero\n      tag_175\n      jumpi\n      dup1\n      0x1f\n      lt\n      tag_176\n      jumpi\n      0x0100\n      dup1\n      dup4\n      sload\n      div\n      mul\n      dup4\n      mstore\n      swap2\n      0x20\n      add\n      swap2\n      jump(tag_175)\n    tag_176:\n      dup3\n      add\n      swap2\n      swap1\n      0x00\n      mstore\n      keccak256(0x00, 0x20)\n      swap1\n    tag_177:\n      dup2\n      sload\n      dup2\n      mstore\n      swap1\n      0x01\n      add\n      swap1\n      0x20\n      add\n      dup1\n      dup4\n      gt\n      tag_177\n      jumpi\n      dup3\n      swap1\n      sub\n      0x1f\n      and\n      dup3\n      add\n      swap2\n    tag_175:\n      pop\n      pop\n      pop\n      pop\n      pop\n      swap2\n      pop\n      pop\n        /* \"@openzeppelin/contracts-upgradeable/token/ERC20/ERC20Upgradeable.sol\":2716:2860  function name() public view virtual returns (string memory) {... */\n      swap1\n      jump\t// out\n        /* \"@openzeppelin/contracts-upgradeable/token/ERC20/ERC20Upgradeable.sol\":5210:5396  function approve(address spender, uint256 value) public virtual returns (bool) {... */\n    tag_46:\n        /* \"@openzeppelin/contracts-upgradeable/token/ERC20/ERC20Upgradeable.sol\":5283:5287  bool */\n      0x00\n        /* \"@openzeppelin/contracts-upgradeable/utils/ContextUpgradeable.sol\":966:976  msg.sender */\n      caller\n        /* \"@openzeppelin/contracts-upgradeable/token/ERC20/ERC20Upgradeable.sol\":5337:5368  _approve(owner, spender, value) */\n      tag_181\n        /* \"@openzeppelin/contracts-upgradeable/utils/ContextUpgradeable.sol\":966:976  msg.sender */\n      dup2\n        /* \"@openzeppelin/contracts-upgradeable/token/ERC20/ERC20Upgradeable.sol\":5353:5360  spender */\n      dup6\n        /* \"@openzeppelin/contracts-upgradeable/token/ERC20/ERC20Upgradeable.sol\":5362:5367  value */\n      dup6\n        /* \"@openzeppelin/contracts-upgradeable/token/ERC20/ERC20Upgradeable.sol\":5337:5345  _approve */\n      tag_182\n        /* \"@openzeppelin/contracts-upgradeable/token/ERC20/ERC20Upgradeable.sol\":5337:5368  _approve(owner, spender, value) */\n      jump\t// in\n    tag_181:\n        /* \"@openzeppelin/contracts-upgradeable/token/ERC20/ERC20Upgradeable.sol\":5385:5389  true */\n      0x01\n        /* \"@openzeppelin/contracts-upgradeable/token/ERC20/ERC20Upgradeable.sol\":5378:5389  return true */\n      swap2\n      pop\n      pop\n        /* \"@openzeppelin/contracts-upgradeable/token/ERC20/ERC20Upgradeable.sol\":5210:5396  function approve(address spender, uint256 value) public virtual returns (bool) {... */\n    tag_178:\n      swap3\n      swap2\n      pop\n      pop\n      jump\t// out\n        /* \"RVA/UpgradableToken.sol\":2473:2687  function setBlacklist(address account, bool status) external onlyOwner {... */\n    tag_53:\n        /* \"@openzeppelin/contracts-upgradeable/access/OwnableUpgradeable.sol\":2334:2347  _checkOwner() */\n      tag_184\n        /* \"@openzeppelin/contracts-upgradeable/access/OwnableUpgradeable.sol\":2334:2345  _checkOwner */\n      tag_185\n        /* \"@openzeppelin/contracts-upgradeable/access/OwnableUpgradeable.sol\":2334:2347  _checkOwner() */\n      jump\t// in\n    tag_184:\n      sub(shl(0xa0, 0x01), 0x01)\n        /* \"RVA/UpgradableToken.sol\":2562:2582  account !=address(0) */\n      dup3\n      and\n        /* \"RVA/UpgradableToken.sol\":2554:2598  require(account !=address(0),\"Null Address\") */\n      tag_187\n      jumpi\n      mload(0x40)\n      shl(0xe5, 0x461bcd)\n      dup2\n      mstore\n      0x04\n      add\n      tag_188\n      swap1\n      tag_189\n      jump\t// in\n    tag_188:\n      mload(0x40)\n      dup1\n      swap2\n      sub\n      swap1\n      revert\n    tag_187:\n      sub(shl(0xa0, 0x01), 0x01)\n        /* \"RVA/UpgradableToken.sol\":2608:2628  blacklisted[account] */\n      dup3\n      and\n      0x00\n      dup2\n      dup2\n      mstore\n        /* \"RVA/UpgradableToken.sol\":2608:2619  blacklisted */\n      0x02\n        /* \"RVA/UpgradableToken.sol\":2608:2628  blacklisted[account] */\n      0x20\n      swap1\n      dup2\n      mstore\n      0x40\n      swap2\n      dup3\n      swap1\n      keccak256\n        /* \"RVA/UpgradableToken.sol\":2608:2637  blacklisted[account] = status */\n      dup1\n      sload\n      not(0xff)\n      and\n      dup6\n      iszero\n      iszero\n      swap1\n      dup2\n      or\n      swap1\n      swap2\n      sstore\n        /* \"RVA/UpgradableToken.sol\":2652:2680  Blacklisted(account, status) */\n      swap2\n      mload\n        /* \"#utility.yul\":1060:1101   */\n      swap2\n      dup3\n      mstore\n        /* \"RVA/UpgradableToken.sol\":2652:2680  Blacklisted(account, status) */\n      0xcf3473b85df1594d47b6958f29a32bea0abff9dd68296f7bf33443646793cfd8\n      swap2\n        /* \"#utility.yul\":1033:1051   */\n      add\n        /* \"RVA/UpgradableToken.sol\":2652:2680  Blacklisted(account, status) */\n      mload(0x40)\n      dup1\n      swap2\n      sub\n      swap1\n      log2\n        /* \"RVA/UpgradableToken.sol\":2473:2687  function setBlacklist(address account, bool status) external onlyOwner {... */\n      pop\n      pop\n      jump\t// out\n        /* \"RVA/UpgradableToken.sol\":3343:3890  function transferFrom(address sender, address recipient, uint256 amount) public override nonReentrant whenNotPaused returns (bool) {... */\n    tag_63:\n        /* \"RVA/UpgradableToken.sol\":3468:3472  bool */\n      0x00\n        /* \"@openzeppelin/contracts-upgradeable/utils/ReentrancyGuardUpgradeable.sol\":3395:3416  _nonReentrantBefore() */\n      tag_194\n        /* \"@openzeppelin/contracts-upgradeable/utils/ReentrancyGuardUpgradeable.sol\":3395:3414  _nonReentrantBefore */\n      tag_195\n        /* \"@openzeppelin/contracts-upgradeable/utils/ReentrancyGuardUpgradeable.sol\":3395:3416  _nonReentrantBefore() */\n      jump\t// in\n    tag_194:\n        /* \"@openzeppelin/contracts-upgradeable/utils/PausableUpgradeable.sol\":2316:2335  _requireNotPaused() */\n      tag_197\n        /* \"@openzeppelin/contracts-upgradeable/utils/PausableUpgradeable.sol\":2316:2333  _requireNotPaused */\n      tag_198\n        /* \"@openzeppelin/contracts-upgradeable/utils/PausableUpgradeable.sol\":2316:2335  _requireNotPaused() */\n      jump\t// in\n    tag_197:\n      sub(shl(0xa0, 0x01), 0x01)\n        /* \"RVA/UpgradableToken.sol\":3493:3512  blacklisted[sender] */\n      dup5\n      and\n      0x00\n      swap1\n      dup2\n      mstore\n        /* \"RVA/UpgradableToken.sol\":3493:3504  blacklisted */\n      0x02\n        /* \"RVA/UpgradableToken.sol\":3493:3512  blacklisted[sender] */\n      0x20\n      mstore\n      0x40\n      swap1\n      keccak256\n      sload\n      0xff\n      and\n        /* \"RVA/UpgradableToken.sol\":3492:3512  !blacklisted[sender] */\n      iszero\n        /* \"RVA/UpgradableToken.sol\":3484:3555  require(!blacklisted[sender], \"Transfer failed: Sender is blacklisted\") */\n      tag_200\n      jumpi\n      mload(0x40)\n      shl(0xe5, 0x461bcd)\n      dup2\n      mstore\n      0x04\n      add\n      tag_188\n      swap1\n      tag_202\n      jump\t// in\n    tag_200:\n      sub(shl(0xa0, 0x01), 0x01)\n        /* \"RVA/UpgradableToken.sol\":3574:3596  blacklisted[recipient] */\n      dup4\n      and\n      0x00\n      swap1\n      dup2\n      mstore\n        /* \"RVA/UpgradableToken.sol\":3574:3585  blacklisted */\n      0x02\n        /* \"RVA/UpgradableToken.sol\":3574:3596  blacklisted[recipient] */\n      0x20\n      mstore\n      0x40\n      swap1\n      keccak256\n      sload\n      0xff\n      and\n        /* \"RVA/UpgradableToken.sol\":3573:3596  !blacklisted[recipient] */\n      iszero\n        /* \"RVA/UpgradableToken.sol\":3565:3642  require(!blacklisted[recipient], \"Transfer failed: Recipient is blacklisted\") */\n      tag_203\n      jumpi\n      mload(0x40)\n      shl(0xe5, 0x461bcd)\n      dup2\n      mstore\n      0x04\n      add\n      tag_188\n      swap1\n      tag_205\n      jump\t// in\n    tag_203:\n        /* \"RVA/UpgradableToken.sol\":3660:3666  amount */\n      dup2\n        /* \"RVA/UpgradableToken.sol\":3669:3670  0 */\n      0x00\n        /* \"RVA/UpgradableToken.sol\":3660:3670  amount !=0 */\n      sub\n        /* \"RVA/UpgradableToken.sol\":3652:3698  require(amount !=0,\"Amount shouldn't be zero\") */\n      tag_206\n      jumpi\n      mload(0x40)\n      shl(0xe5, 0x461bcd)\n      dup2\n      mstore\n        /* \"#utility.yul\":8638:8640   */\n      0x20\n        /* \"RVA/UpgradableToken.sol\":3652:3698  require(amount !=0,\"Amount shouldn't be zero\") */\n      0x04\n      dup3\n      add\n        /* \"#utility.yul\":8620:8641   */\n      mstore\n        /* \"#utility.yul\":8677:8679   */\n      0x18\n        /* \"#utility.yul\":8657:8675   */\n      0x24\n      dup3\n      add\n        /* \"#utility.yul\":8650:8680   */\n      mstore\n      shl(0x40, 0x416d6f756e742073686f756c646e2774206265207a65726f)\n        /* \"#utility.yul\":8696:8714   */\n      0x44\n      dup3\n      add\n        /* \"#utility.yul\":8689:8743   */\n      mstore\n        /* \"#utility.yul\":8760:8778   */\n      0x64\n      add\n        /* \"RVA/UpgradableToken.sol\":3652:3698  require(amount !=0,\"Amount shouldn't be zero\") */\n      tag_188\n        /* \"#utility.yul\":8436:8784   */\n      jump\n        /* \"RVA/UpgradableToken.sol\":3652:3698  require(amount !=0,\"Amount shouldn't be zero\") */\n    tag_206:\n      sub(shl(0xa0, 0x01), 0x01)\n        /* \"RVA/UpgradableToken.sol\":3735:3754  lockedUntil[sender] */\n      dup5\n      and\n      0x00\n      swap1\n      dup2\n      mstore\n        /* \"RVA/UpgradableToken.sol\":3735:3746  lockedUntil */\n      0x03\n        /* \"RVA/UpgradableToken.sol\":3735:3754  lockedUntil[sender] */\n      0x20\n      mstore\n      0x40\n      swap1\n      keccak256\n      sload\n        /* \"RVA/UpgradableToken.sol\":3716:3731  block.timestamp */\n      timestamp\n        /* \"RVA/UpgradableToken.sol\":3716:3754  block.timestamp >= lockedUntil[sender] */\n      lt\n      iszero\n      dup1\n        /* \"RVA/UpgradableToken.sol\":3716:3782  block.timestamp >= lockedUntil[sender] || lockedUntil[sender] == 0 */\n      tag_209\n      jumpi\n      pop\n      sub(shl(0xa0, 0x01), 0x01)\n        /* \"RVA/UpgradableToken.sol\":3758:3777  lockedUntil[sender] */\n      dup5\n      and\n      0x00\n      swap1\n      dup2\n      mstore\n        /* \"RVA/UpgradableToken.sol\":3758:3769  lockedUntil */\n      0x03\n        /* \"RVA/UpgradableToken.sol\":3758:3777  lockedUntil[sender] */\n      0x20\n      mstore\n      0x40\n      swap1\n      keccak256\n      sload\n        /* \"RVA/UpgradableToken.sol\":3758:3782  lockedUntil[sender] == 0 */\n      iszero\n        /* \"RVA/UpgradableToken.sol\":3716:3782  block.timestamp >= lockedUntil[sender] || lockedUntil[sender] == 0 */\n    tag_209:\n        /* \"RVA/UpgradableToken.sol\":3708:3821  require(block.timestamp >= lockedUntil[sender] || lockedUntil[sender] == 0, \"Transfer failed: Tokens are locked\") */\n      tag_210\n      jumpi\n      mload(0x40)\n      shl(0xe5, 0x461bcd)\n      dup2\n      mstore\n      0x04\n      add\n      tag_188\n      swap1\n      tag_212\n      jump\t// in\n    tag_210:\n        /* \"RVA/UpgradableToken.sol\":3838:3883  super.transferFrom(sender, recipient, amount) */\n      tag_213\n        /* \"RVA/UpgradableToken.sol\":3857:3863  sender */\n      dup5\n        /* \"RVA/UpgradableToken.sol\":3865:3874  recipient */\n      dup5\n        /* \"RVA/UpgradableToken.sol\":3876:3882  amount */\n      dup5\n        /* \"RVA/UpgradableToken.sol\":3838:3856  super.transferFrom */\n      tag_214\n        /* \"RVA/UpgradableToken.sol\":3838:3883  super.transferFrom(sender, recipient, amount) */\n      jump\t// in\n    tag_213:\n        /* \"RVA/UpgradableToken.sol\":3831:3883  return super.transferFrom(sender, recipient, amount) */\n      swap1\n      pop\n        /* \"@openzeppelin/contracts-upgradeable/utils/ReentrancyGuardUpgradeable.sol\":3437:3457  _nonReentrantAfter() */\n      tag_215\n        /* \"@openzeppelin/contracts-upgradeable/utils/ReentrancyGuardUpgradeable.sol\":1949:1950  1 */\n      0x01\n      0x00\n      dup1\n      mload\n      0x20\n      data_c8669cf8eaf883002b9f48e28846a8d408c9b58ea6613bace374265e43c9bc43\n      dup4\n      codecopy\n      dup2\n      mload\n      swap2\n      mstore\n        /* \"@openzeppelin/contracts-upgradeable/utils/ReentrancyGuardUpgradeable.sol\":4113:4136  $._status = NOT_ENTERED */\n      sstore\n        /* \"@openzeppelin/contracts-upgradeable/utils/ReentrancyGuardUpgradeable.sol\":3860:4143  function _nonReentrantAfter() private {... */\n      jump\n        /* \"@openzeppelin/contracts-upgradeable/utils/ReentrancyGuardUpgradeable.sol\":3437:3457  _nonReentrantAfter() */\n    tag_215:\n        /* \"RVA/UpgradableToken.sol\":3343:3890  function transferFrom(address sender, address recipient, uint256 amount) public override nonReentrant whenNotPaused returns (bool) {... */\n      swap4\n      swap3\n      pop\n      pop\n      pop\n      jump\t// out\n        /* \"RVA/UpgradableToken.sol\":3896:4209  function setICOContract(address _icoContract) external nonReentrant whenNotPaused onlyOwner  {... */\n    tag_69:\n        /* \"@openzeppelin/contracts-upgradeable/utils/ReentrancyGuardUpgradeable.sol\":3395:3416  _nonReentrantBefore() */\n      tag_218\n        /* \"@openzeppelin/contracts-upgradeable/utils/ReentrancyGuardUpgradeable.sol\":3395:3414  _nonReentrantBefore */\n      tag_195\n        /* \"@openzeppelin/contracts-upgradeable/utils/ReentrancyGuardUpgradeable.sol\":3395:3416  _nonReentrantBefore() */\n      jump\t// in\n    tag_218:\n        /* \"@openzeppelin/contracts-upgradeable/utils/PausableUpgradeable.sol\":2316:2335  _requireNotPaused() */\n      tag_220\n        /* \"@openzeppelin/contracts-upgradeable/utils/PausableUpgradeable.sol\":2316:2333  _requireNotPaused */\n      tag_198\n        /* \"@openzeppelin/contracts-upgradeable/utils/PausableUpgradeable.sol\":2316:2335  _requireNotPaused() */\n      jump\t// in\n    tag_220:\n        /* \"@openzeppelin/contracts-upgradeable/access/OwnableUpgradeable.sol\":2334:2347  _checkOwner() */\n      tag_222\n        /* \"@openzeppelin/contracts-upgradeable/access/OwnableUpgradeable.sol\":2334:2345  _checkOwner */\n      tag_185\n        /* \"@openzeppelin/contracts-upgradeable/access/OwnableUpgradeable.sol\":2334:2347  _checkOwner() */\n      jump\t// in\n    tag_222:\n      sub(shl(0xa0, 0x01), 0x01)\n        /* \"RVA/UpgradableToken.sol\":4007:4033  _icoContract != address(0) */\n      dup2\n      and\n        /* \"RVA/UpgradableToken.sol\":3999:4050  require(_icoContract != address(0), \"Null Address\") */\n      tag_224\n      jumpi\n      mload(0x40)\n      shl(0xe5, 0x461bcd)\n      dup2\n      mstore\n      0x04\n      add\n      tag_188\n      swap1\n      tag_189\n      jump\t// in\n    tag_224:\n      sub(shl(0xa0, 0x01), 0x01)\n        /* \"RVA/UpgradableToken.sol\":4068:4091  _icoContract.isContract */\n      dup2\n      and\n        /* \"@openzeppelin/contracts-upgradeable/utils/AddressUpgradeable.sol\":1713:1732  account.code.length */\n      extcodesize\n        /* \"RVA/UpgradableToken.sol\":4060:4123  require(_icoContract.isContract(), \"Address is not a contract\") */\n      tag_228\n      jumpi\n      mload(0x40)\n      shl(0xe5, 0x461bcd)\n      dup2\n      mstore\n        /* \"#utility.yul\":9394:9396   */\n      0x20\n        /* \"RVA/UpgradableToken.sol\":4060:4123  require(_icoContract.isContract(), \"Address is not a contract\") */\n      0x04\n      dup3\n      add\n        /* \"#utility.yul\":9376:9397   */\n      mstore\n        /* \"#utility.yul\":9433:9435   */\n      0x19\n        /* \"#utility.yul\":9413:9431   */\n      0x24\n      dup3\n      add\n        /* \"#utility.yul\":9406:9436   */\n      mstore\n        /* \"#utility.yul\":9472:9499   */\n      0x41646472657373206973206e6f74206120636f6e747261637400000000000000\n        /* \"#utility.yul\":9452:9470   */\n      0x44\n      dup3\n      add\n        /* \"#utility.yul\":9445:9500   */\n      mstore\n        /* \"#utility.yul\":9517:9535   */\n      0x64\n      add\n        /* \"RVA/UpgradableToken.sol\":4060:4123  require(_icoContract.isContract(), \"Address is not a contract\") */\n      tag_188\n        /* \"#utility.yul\":9192:9541   */\n      jump\n        /* \"RVA/UpgradableToken.sol\":4060:4123  require(_icoContract.isContract(), \"Address is not a contract\") */\n    tag_228:\n        /* \"RVA/UpgradableToken.sol\":4133:4144  icoContract */\n      0x00\n        /* \"RVA/UpgradableToken.sol\":4133:4159  icoContract = _icoContract */\n      dup1\n      sload\n      not(sub(shl(0xa0, 0x01), 0x01))\n      and\n      sub(shl(0xa0, 0x01), 0x01)\n      dup4\n      and\n      swap1\n      dup2\n      or\n      dup3\n      sstore\n        /* \"RVA/UpgradableToken.sol\":4174:4202  ICOContractSet(_icoContract) */\n      mload(0x40)\n        /* \"RVA/UpgradableToken.sol\":4133:4159  icoContract = _icoContract */\n      swap1\n      swap2\n        /* \"RVA/UpgradableToken.sol\":4174:4202  ICOContractSet(_icoContract) */\n      0xe7bbfbbf7e7948988eb7f8904da938aff02a23b8b28fcee206be4d4b3edd9ad8\n      swap2\n      log2\n        /* \"@openzeppelin/contracts-upgradeable/utils/ReentrancyGuardUpgradeable.sol\":3437:3457  _nonReentrantAfter() */\n      tag_231\n        /* \"@openzeppelin/contracts-upgradeable/utils/ReentrancyGuardUpgradeable.sol\":1949:1950  1 */\n      0x01\n      0x00\n      dup1\n      mload\n      0x20\n      data_c8669cf8eaf883002b9f48e28846a8d408c9b58ea6613bace374265e43c9bc43\n      dup4\n      codecopy\n      dup2\n      mload\n      swap2\n      mstore\n        /* \"@openzeppelin/contracts-upgradeable/utils/ReentrancyGuardUpgradeable.sol\":4113:4136  $._status = NOT_ENTERED */\n      sstore\n        /* \"@openzeppelin/contracts-upgradeable/utils/ReentrancyGuardUpgradeable.sol\":3860:4143  function _nonReentrantAfter() private {... */\n      jump\n        /* \"@openzeppelin/contracts-upgradeable/utils/ReentrancyGuardUpgradeable.sol\":3437:3457  _nonReentrantAfter() */\n    tag_231:\n        /* \"RVA/UpgradableToken.sol\":3896:4209  function setICOContract(address _icoContract) external nonReentrant whenNotPaused onlyOwner  {... */\n      pop\n      jump\t// out\n        /* \"RVA/UpgradableToken.sol\":1929:1994  function unpause() external onlyOwner {... */\n    tag_77:\n        /* \"@openzeppelin/contracts-upgradeable/access/OwnableUpgradeable.sol\":2334:2347  _checkOwner() */\n      tag_234\n        /* \"@openzeppelin/contracts-upgradeable/access/OwnableUpgradeable.sol\":2334:2345  _checkOwner */\n      tag_185\n        /* \"@openzeppelin/contracts-upgradeable/access/OwnableUpgradeable.sol\":2334:2347  _checkOwner() */\n      jump\t// in\n    tag_234:\n        /* \"RVA/UpgradableToken.sol\":1977:1987  _unpause() */\n      tag_236\n        /* \"RVA/UpgradableToken.sol\":1977:1985  _unpause */\n      tag_237\n        /* \"RVA/UpgradableToken.sol\":1977:1987  _unpause() */\n      jump\t// in\n    tag_236:\n        /* \"RVA/UpgradableToken.sol\":1929:1994  function unpause() external onlyOwner {... */\n      jump\t// out\n        /* \"@openzeppelin/contracts-upgradeable/proxy/utils/UUPSUpgradeable.sol\":4161:4375  function upgradeToAndCall(address newImplementation, bytes memory data) public payable virtual onlyProxy {... */\n    tag_81:\n        /* \"@openzeppelin/contracts-upgradeable/proxy/utils/UUPSUpgradeable.sol\":2655:2668  _checkProxy() */\n      tag_239\n        /* \"@openzeppelin/contracts-upgradeable/proxy/utils/UUPSUpgradeable.sol\":2655:2666  _checkProxy */\n      tag_240\n        /* \"@openzeppelin/contracts-upgradeable/proxy/utils/UUPSUpgradeable.sol\":2655:2668  _checkProxy() */\n      jump\t// in\n    tag_239:\n        /* \"@openzeppelin/contracts-upgradeable/proxy/utils/UUPSUpgradeable.sol\":4276:4312  _authorizeUpgrade(newImplementation) */\n      tag_242\n        /* \"@openzeppelin/contracts-upgradeable/proxy/utils/UUPSUpgradeable.sol\":4294:4311  newImplementation */\n      dup3\n        /* \"@openzeppelin/contracts-upgradeable/proxy/utils/UUPSUpgradeable.sol\":4276:4293  _authorizeUpgrade */\n      tag_243\n        /* \"@openzeppelin/contracts-upgradeable/proxy/utils/UUPSUpgradeable.sol\":4276:4312  _authorizeUpgrade(newImplementation) */\n      jump\t// in\n    tag_242:\n        /* \"@openzeppelin/contracts-upgradeable/proxy/utils/UUPSUpgradeable.sol\":4322:4368  _upgradeToAndCallUUPS(newImplementation, data) */\n      tag_244\n        /* \"@openzeppelin/contracts-upgradeable/proxy/utils/UUPSUpgradeable.sol\":4344:4361  newImplementation */\n      dup3\n        /* \"@openzeppelin/contracts-upgradeable/proxy/utils/UUPSUpgradeable.sol\":4363:4367  data */\n      dup3\n        /* \"@openzeppelin/contracts-upgradeable/proxy/utils/UUPSUpgradeable.sol\":4322:4343  _upgradeToAndCallUUPS */\n      tag_245\n        /* \"@openzeppelin/contracts-upgradeable/proxy/utils/UUPSUpgradeable.sol\":4322:4368  _upgradeToAndCallUUPS(newImplementation, data) */\n      jump\t// in\n    tag_244:\n        /* \"@openzeppelin/contracts-upgradeable/proxy/utils/UUPSUpgradeable.sol\":4161:4375  function upgradeToAndCall(address newImplementation, bytes memory data) public payable virtual onlyProxy {... */\n      pop\n      pop\n      jump\t// out\n        /* \"@openzeppelin/contracts-upgradeable/proxy/utils/UUPSUpgradeable.sol\":3708:3842  function proxiableUUID() external view virtual notDelegated returns (bytes32) {... */\n    tag_84:\n        /* \"@openzeppelin/contracts-upgradeable/proxy/utils/UUPSUpgradeable.sol\":3777:3784  bytes32 */\n      0x00\n        /* \"@openzeppelin/contracts-upgradeable/proxy/utils/UUPSUpgradeable.sol\":2926:2946  _checkNotDelegated() */\n      tag_247\n        /* \"@openzeppelin/contracts-upgradeable/proxy/utils/UUPSUpgradeable.sol\":2926:2944  _checkNotDelegated */\n      tag_248\n        /* \"@openzeppelin/contracts-upgradeable/proxy/utils/UUPSUpgradeable.sol\":2926:2946  _checkNotDelegated() */\n      jump\t// in\n    tag_247:\n      pop\n      0x00\n      dup1\n      mload\n      0x20\n      data_75b20eef8615de99c108b05f0dbda081c91897128caa336d75dffb97c4132b4d\n      dup4\n      codecopy\n      dup2\n      mload\n      swap2\n      mstore\n        /* \"@openzeppelin/contracts-upgradeable/proxy/utils/UUPSUpgradeable.sol\":3708:3842  function proxiableUUID() external view virtual notDelegated returns (bytes32) {... */\n      swap1\n      jump\t// out\n        /* \"@openzeppelin/contracts-upgradeable/access/OwnableUpgradeable.sol\":3155:3256  function renounceOwnership() public virtual onlyOwner {... */\n    tag_98:\n        /* \"@openzeppelin/contracts-upgradeable/access/OwnableUpgradeable.sol\":2334:2347  _checkOwner() */\n      tag_256\n        /* \"@openzeppelin/contracts-upgradeable/access/OwnableUpgradeable.sol\":2334:2345  _checkOwner */\n      tag_185\n        /* \"@openzeppelin/contracts-upgradeable/access/OwnableUpgradeable.sol\":2334:2347  _checkOwner() */\n      jump\t// in\n    tag_256:\n        /* \"@openzeppelin/contracts-upgradeable/access/OwnableUpgradeable.sol\":3219:3249  _transferOwnership(address(0)) */\n      tag_236\n        /* \"@openzeppelin/contracts-upgradeable/access/OwnableUpgradeable.sol\":3246:3247  0 */\n      0x00\n        /* \"@openzeppelin/contracts-upgradeable/access/OwnableUpgradeable.sol\":3219:3237  _transferOwnership */\n      tag_259\n        /* \"@openzeppelin/contracts-upgradeable/access/OwnableUpgradeable.sol\":3219:3249  _transferOwnership(address(0)) */\n      jump\t// in\n        /* \"RVA/UpgradableToken.sol\":1862:1923  function pause() external onlyOwner {... */\n    tag_101:\n        /* \"@openzeppelin/contracts-upgradeable/access/OwnableUpgradeable.sol\":2334:2347  _checkOwner() */\n      tag_261\n        /* \"@openzeppelin/contracts-upgradeable/access/OwnableUpgradeable.sol\":2334:2345  _checkOwner */\n      tag_185\n        /* \"@openzeppelin/contracts-upgradeable/access/OwnableUpgradeable.sol\":2334:2347  _checkOwner() */\n      jump\t// in\n    tag_261:\n        /* \"RVA/UpgradableToken.sol\":1908:1916  _pause() */\n      tag_236\n        /* \"RVA/UpgradableToken.sol\":1908:1914  _pause */\n      tag_264\n        /* \"RVA/UpgradableToken.sol\":1908:1916  _pause() */\n      jump\t// in\n        /* \"RVA/UpgradableToken.sol\":4215:4801  function batchTransfer(address[] calldata recipients, uint256[] calldata amounts) external nonReentrant whenNotPaused {... */\n    tag_106:\n        /* \"@openzeppelin/contracts-upgradeable/utils/ReentrancyGuardUpgradeable.sol\":3395:3416  _nonReentrantBefore() */\n      tag_266\n        /* \"@openzeppelin/contracts-upgradeable/utils/ReentrancyGuardUpgradeable.sol\":3395:3414  _nonReentrantBefore */\n      tag_195\n        /* \"@openzeppelin/contracts-upgradeable/utils/ReentrancyGuardUpgradeable.sol\":3395:3416  _nonReentrantBefore() */\n      jump\t// in\n    tag_266:\n        /* \"@openzeppelin/contracts-upgradeable/utils/PausableUpgradeable.sol\":2316:2335  _requireNotPaused() */\n      tag_268\n        /* \"@openzeppelin/contracts-upgradeable/utils/PausableUpgradeable.sol\":2316:2333  _requireNotPaused */\n      tag_198\n        /* \"@openzeppelin/contracts-upgradeable/utils/PausableUpgradeable.sol\":2316:2335  _requireNotPaused() */\n      jump\t// in\n    tag_268:\n        /* \"RVA/UpgradableToken.sol\":4351:4386  recipients.length == amounts.length */\n      dup3\n      dup2\n      eq\n        /* \"RVA/UpgradableToken.sol\":4343:4430  require(recipients.length == amounts.length, \"BatchTransfer failed: Mismatched arrays\") */\n      tag_270\n      jumpi\n      mload(0x40)\n      shl(0xe5, 0x461bcd)\n      dup2\n      mstore\n        /* \"#utility.yul\":9748:9750   */\n      0x20\n        /* \"RVA/UpgradableToken.sol\":4343:4430  require(recipients.length == amounts.length, \"BatchTransfer failed: Mismatched arrays\") */\n      0x04\n      dup3\n      add\n        /* \"#utility.yul\":9730:9751   */\n      mstore\n        /* \"#utility.yul\":9787:9789   */\n      0x27\n        /* \"#utility.yul\":9767:9785   */\n      0x24\n      dup3\n      add\n        /* \"#utility.yul\":9760:9790   */\n      mstore\n        /* \"#utility.yul\":9826:9860   */\n      0x42617463685472616e73666572206661696c65643a204d69736d617463686564\n        /* \"#utility.yul\":9806:9824   */\n      0x44\n      dup3\n      add\n        /* \"#utility.yul\":9799:9861   */\n      mstore\n      shl(0xc8, 0x20617272617973)\n        /* \"#utility.yul\":9877:9895   */\n      0x64\n      dup3\n      add\n        /* \"#utility.yul\":9870:9907   */\n      mstore\n        /* \"#utility.yul\":9924:9943   */\n      0x84\n      add\n        /* \"RVA/UpgradableToken.sol\":4343:4430  require(recipients.length == amounts.length, \"BatchTransfer failed: Mismatched arrays\") */\n      tag_188\n        /* \"#utility.yul\":9546:9949   */\n      jump\n        /* \"RVA/UpgradableToken.sol\":4343:4430  require(recipients.length == amounts.length, \"BatchTransfer failed: Mismatched arrays\") */\n    tag_270:\n        /* \"RVA/UpgradableToken.sol\":4466:4476  recipients */\n      dup3\n        /* \"RVA/UpgradableToken.sol\":4440:4463  uint256 recipientLength */\n      0x00\n        /* \"RVA/UpgradableToken.sol\":4493:4795  for (uint256 i = 0; i < recipientLength; i++) {... */\n    tag_273:\n        /* \"RVA/UpgradableToken.sol\":4517:4532  recipientLength */\n      dup2\n        /* \"RVA/UpgradableToken.sol\":4513:4514  i */\n      dup2\n        /* \"RVA/UpgradableToken.sol\":4513:4532  i < recipientLength */\n      lt\n        /* \"RVA/UpgradableToken.sol\":4493:4795  for (uint256 i = 0; i < recipientLength; i++) {... */\n      iszero\n      tag_274\n      jumpi\n        /* \"RVA/UpgradableToken.sol\":4584:4595  blacklisted */\n      0x02\n        /* \"RVA/UpgradableToken.sol\":4584:4610  blacklisted[recipients[i]] */\n      0x00\n        /* \"RVA/UpgradableToken.sol\":4596:4606  recipients */\n      dup8\n      dup8\n        /* \"RVA/UpgradableToken.sol\":4607:4608  i */\n      dup5\n        /* \"RVA/UpgradableToken.sol\":4596:4609  recipients[i] */\n      dup2\n      dup2\n      lt\n      tag_277\n      jumpi\n      tag_277\n      tag_278\n      jump\t// in\n    tag_277:\n      swap1\n      pop\n      0x20\n      mul\n      add\n      0x20\n      dup2\n      add\n      swap1\n      tag_279\n      swap2\n      swap1\n      tag_68\n      jump\t// in\n    tag_279:\n      sub(shl(0xa0, 0x01), 0x01)\n        /* \"RVA/UpgradableToken.sol\":4584:4610  blacklisted[recipients[i]] */\n      and\n      dup2\n      mstore\n      0x20\n      dup2\n      add\n      swap2\n      swap1\n      swap2\n      mstore\n      0x40\n      add\n      0x00\n      keccak256\n      sload\n      0xff\n      and\n        /* \"RVA/UpgradableToken.sol\":4580:4709  if (blacklisted[recipients[i]]) {... */\n      iszero\n      tag_280\n      jumpi\n        /* \"RVA/UpgradableToken.sol\":4634:4690  revert(\"BatchTransfer failed: Recipient is blacklisted\") */\n      mload(0x40)\n      shl(0xe5, 0x461bcd)\n      dup2\n      mstore\n        /* \"#utility.yul\":10288:10290   */\n      0x20\n        /* \"RVA/UpgradableToken.sol\":4634:4690  revert(\"BatchTransfer failed: Recipient is blacklisted\") */\n      0x04\n      dup3\n      add\n        /* \"#utility.yul\":10270:10291   */\n      mstore\n        /* \"#utility.yul\":10327:10329   */\n      0x2e\n        /* \"#utility.yul\":10307:10325   */\n      0x24\n      dup3\n      add\n        /* \"#utility.yul\":10300:10330   */\n      mstore\n        /* \"#utility.yul\":10366:10400   */\n      0x42617463685472616e73666572206661696c65643a20526563697069656e7420\n        /* \"#utility.yul\":10346:10364   */\n      0x44\n      dup3\n      add\n        /* \"#utility.yul\":10339:10401   */\n      mstore\n      shl(0x92, 0x1a5cc8189b1858dadb1a5cdd1959)\n        /* \"#utility.yul\":10417:10435   */\n      0x64\n      dup3\n      add\n        /* \"#utility.yul\":10410:10454   */\n      mstore\n        /* \"#utility.yul\":10471:10490   */\n      0x84\n      add\n        /* \"RVA/UpgradableToken.sol\":4634:4690  revert(\"BatchTransfer failed: Recipient is blacklisted\") */\n      tag_188\n        /* \"#utility.yul\":10086:10496   */\n      jump\n        /* \"RVA/UpgradableToken.sol\":4580:4709  if (blacklisted[recipients[i]]) {... */\n    tag_280:\n        /* \"RVA/UpgradableToken.sol\":4722:4770  _transfer(msg.sender, recipients[i], amounts[i]) */\n      tag_283\n        /* \"RVA/UpgradableToken.sol\":4732:4742  msg.sender */\n      caller\n        /* \"RVA/UpgradableToken.sol\":4744:4754  recipients */\n      dup8\n      dup8\n        /* \"RVA/UpgradableToken.sol\":4755:4756  i */\n      dup5\n        /* \"RVA/UpgradableToken.sol\":4744:4757  recipients[i] */\n      dup2\n      dup2\n      lt\n      tag_285\n      jumpi\n      tag_285\n      tag_278\n      jump\t// in\n    tag_285:\n      swap1\n      pop\n      0x20\n      mul\n      add\n      0x20\n      dup2\n      add\n      swap1\n      tag_286\n      swap2\n      swap1\n      tag_68\n      jump\t// in\n    tag_286:\n        /* \"RVA/UpgradableToken.sol\":4759:4766  amounts */\n      dup7\n      dup7\n        /* \"RVA/UpgradableToken.sol\":4767:4768  i */\n      dup6\n        /* \"RVA/UpgradableToken.sol\":4759:4769  amounts[i] */\n      dup2\n      dup2\n      lt\n      tag_288\n      jumpi\n      tag_288\n      tag_278\n      jump\t// in\n    tag_288:\n      swap1\n      pop\n      0x20\n      mul\n      add\n      calldataload\n        /* \"RVA/UpgradableToken.sol\":4722:4731  _transfer */\n      tag_289\n        /* \"RVA/UpgradableToken.sol\":4722:4770  _transfer(msg.sender, recipients[i], amounts[i]) */\n      jump\t// in\n    tag_283:\n        /* \"RVA/UpgradableToken.sol\":4534:4537  i++ */\n      0x01\n      add\n        /* \"RVA/UpgradableToken.sol\":4493:4795  for (uint256 i = 0; i < recipientLength; i++) {... */\n      jump(tag_273)\n    tag_274:\n      pop\n        /* \"RVA/UpgradableToken.sol\":4333:4801  {... */\n      pop\n        /* \"@openzeppelin/contracts-upgradeable/utils/ReentrancyGuardUpgradeable.sol\":3437:3457  _nonReentrantAfter() */\n      tag_290\n        /* \"@openzeppelin/contracts-upgradeable/utils/ReentrancyGuardUpgradeable.sol\":1949:1950  1 */\n      0x01\n      0x00\n      dup1\n      mload\n      0x20\n      data_c8669cf8eaf883002b9f48e28846a8d408c9b58ea6613bace374265e43c9bc43\n      dup4\n      codecopy\n      dup2\n      mload\n      swap2\n      mstore\n        /* \"@openzeppelin/contracts-upgradeable/utils/ReentrancyGuardUpgradeable.sol\":4113:4136  $._status = NOT_ENTERED */\n      sstore\n        /* \"@openzeppelin/contracts-upgradeable/utils/ReentrancyGuardUpgradeable.sol\":3860:4143  function _nonReentrantAfter() private {... */\n      jump\n        /* \"@openzeppelin/contracts-upgradeable/utils/ReentrancyGuardUpgradeable.sol\":3437:3457  _nonReentrantAfter() */\n    tag_290:\n        /* \"RVA/UpgradableToken.sol\":4215:4801  function batchTransfer(address[] calldata recipients, uint256[] calldata amounts) external nonReentrant whenNotPaused {... */\n      pop\n      pop\n      pop\n      pop\n      jump\t// out\n        /* \"@openzeppelin/contracts-upgradeable/token/ERC20/ERC20Upgradeable.sol\":2973:3121  function symbol() public view virtual returns (string memory) {... */\n    tag_114:\n        /* \"@openzeppelin/contracts-upgradeable/token/ERC20/ERC20Upgradeable.sol\":3105:3114  $._symbol */\n      0x52c63247e1f47db19d5ce0460030c497f067ca4cebf71ba98eeadabe20bace04\n        /* \"@openzeppelin/contracts-upgradeable/token/ERC20/ERC20Upgradeable.sol\":3098:3114  return $._symbol */\n      dup1\n      sload\n        /* \"@openzeppelin/contracts-upgradeable/token/ERC20/ERC20Upgradeable.sol\":3020:3033  string memory */\n      0x60\n      swap2\n      0x00\n      dup1\n      mload\n      0x20\n      data_3874827173e8df9f34323b12b251d1d3c53926ce129e30a0d69f1d47c277041b\n      dup4\n      codecopy\n      dup2\n      mload\n      swap2\n      mstore\n        /* \"@openzeppelin/contracts-upgradeable/token/ERC20/ERC20Upgradeable.sol\":2064:2084  ERC20StorageLocation */\n      swap2\n        /* \"@openzeppelin/contracts-upgradeable/token/ERC20/ERC20Upgradeable.sol\":3098:3114  return $._symbol */\n      tag_172\n      swap1\n      tag_173\n      jump\t// in\n        /* \"RVA/UpgradableToken.sol\":2810:3337  function transfer(address recipient, uint256 amount) public override nonReentrant whenNotPaused returns (bool) {... */\n    tag_129:\n        /* \"RVA/UpgradableToken.sol\":2915:2919  bool */\n      0x00\n        /* \"@openzeppelin/contracts-upgradeable/utils/ReentrancyGuardUpgradeable.sol\":3395:3416  _nonReentrantBefore() */\n      tag_302\n        /* \"@openzeppelin/contracts-upgradeable/utils/ReentrancyGuardUpgradeable.sol\":3395:3414  _nonReentrantBefore */\n      tag_195\n        /* \"@openzeppelin/contracts-upgradeable/utils/ReentrancyGuardUpgradeable.sol\":3395:3416  _nonReentrantBefore() */\n      jump\t// in\n    tag_302:\n        /* \"@openzeppelin/contracts-upgradeable/utils/PausableUpgradeable.sol\":2316:2335  _requireNotPaused() */\n      tag_304\n        /* \"@openzeppelin/contracts-upgradeable/utils/PausableUpgradeable.sol\":2316:2333  _requireNotPaused */\n      tag_198\n        /* \"@openzeppelin/contracts-upgradeable/utils/PausableUpgradeable.sol\":2316:2335  _requireNotPaused() */\n      jump\t// in\n    tag_304:\n        /* \"RVA/UpgradableToken.sol\":2952:2962  msg.sender */\n      caller\n        /* \"RVA/UpgradableToken.sol\":2940:2963  blacklisted[msg.sender] */\n      0x00\n      swap1\n      dup2\n      mstore\n        /* \"RVA/UpgradableToken.sol\":2940:2951  blacklisted */\n      0x02\n        /* \"RVA/UpgradableToken.sol\":2940:2963  blacklisted[msg.sender] */\n      0x20\n      mstore\n      0x40\n      swap1\n      keccak256\n      sload\n      0xff\n      and\n        /* \"RVA/UpgradableToken.sol\":2939:2963  !blacklisted[msg.sender] */\n      iszero\n        /* \"RVA/UpgradableToken.sol\":2931:3006  require(!blacklisted[msg.sender], \"Transfer failed: Sender is blacklisted\") */\n      tag_306\n      jumpi\n      mload(0x40)\n      shl(0xe5, 0x461bcd)\n      dup2\n      mstore\n      0x04\n      add\n      tag_188\n      swap1\n      tag_202\n      jump\t// in\n    tag_306:\n      sub(shl(0xa0, 0x01), 0x01)\n        /* \"RVA/UpgradableToken.sol\":3025:3047  blacklisted[recipient] */\n      dup4\n      and\n      0x00\n      swap1\n      dup2\n      mstore\n        /* \"RVA/UpgradableToken.sol\":3025:3036  blacklisted */\n      0x02\n        /* \"RVA/UpgradableToken.sol\":3025:3047  blacklisted[recipient] */\n      0x20\n      mstore\n      0x40\n      swap1\n      keccak256\n      sload\n      0xff\n      and\n        /* \"RVA/UpgradableToken.sol\":3024:3047  !blacklisted[recipient] */\n      iszero\n        /* \"RVA/UpgradableToken.sol\":3016:3093  require(!blacklisted[recipient], \"Transfer failed: Recipient is blacklisted\") */\n      tag_308\n      jumpi\n      mload(0x40)\n      shl(0xe5, 0x461bcd)\n      dup2\n      mstore\n      0x04\n      add\n      tag_188\n      swap1\n      tag_205\n      jump\t// in\n    tag_308:\n        /* \"RVA/UpgradableToken.sol\":3111:3117  amount */\n      dup2\n        /* \"RVA/UpgradableToken.sol\":3120:3121  0 */\n      0x00\n        /* \"RVA/UpgradableToken.sol\":3111:3121  amount !=0 */\n      sub\n        /* \"RVA/UpgradableToken.sol\":3103:3149  require(amount !=0,\"Amount shouldn't be zero\") */\n      tag_310\n      jumpi\n      mload(0x40)\n      shl(0xe5, 0x461bcd)\n      dup2\n      mstore\n        /* \"#utility.yul\":8638:8640   */\n      0x20\n        /* \"RVA/UpgradableToken.sol\":3103:3149  require(amount !=0,\"Amount shouldn't be zero\") */\n      0x04\n      dup3\n      add\n        /* \"#utility.yul\":8620:8641   */\n      mstore\n        /* \"#utility.yul\":8677:8679   */\n      0x18\n        /* \"#utility.yul\":8657:8675   */\n      0x24\n      dup3\n      add\n        /* \"#utility.yul\":8650:8680   */\n      mstore\n      shl(0x40, 0x416d6f756e742073686f756c646e2774206265207a65726f)\n        /* \"#utility.yul\":8696:8714   */\n      0x44\n      dup3\n      add\n        /* \"#utility.yul\":8689:8743   */\n      mstore\n        /* \"#utility.yul\":8760:8778   */\n      0x64\n      add\n        /* \"RVA/UpgradableToken.sol\":3103:3149  require(amount !=0,\"Amount shouldn't be zero\") */\n      tag_188\n        /* \"#utility.yul\":8436:8784   */\n      jump\n        /* \"RVA/UpgradableToken.sol\":3103:3149  require(amount !=0,\"Amount shouldn't be zero\") */\n    tag_310:\n        /* \"RVA/UpgradableToken.sol\":3198:3208  msg.sender */\n      caller\n        /* \"RVA/UpgradableToken.sol\":3186:3209  lockedUntil[msg.sender] */\n      0x00\n      swap1\n      dup2\n      mstore\n        /* \"RVA/UpgradableToken.sol\":3186:3197  lockedUntil */\n      0x03\n        /* \"RVA/UpgradableToken.sol\":3186:3209  lockedUntil[msg.sender] */\n      0x20\n      mstore\n      0x40\n      swap1\n      keccak256\n      sload\n        /* \"RVA/UpgradableToken.sol\":3167:3182  block.timestamp */\n      timestamp\n        /* \"RVA/UpgradableToken.sol\":3167:3209  block.timestamp >= lockedUntil[msg.sender] */\n      lt\n      iszero\n      dup1\n        /* \"RVA/UpgradableToken.sol\":3167:3241  block.timestamp >= lockedUntil[msg.sender] || lockedUntil[msg.sender] == 0 */\n      tag_312\n      jumpi\n      pop\n        /* \"RVA/UpgradableToken.sol\":3225:3235  msg.sender */\n      caller\n        /* \"RVA/UpgradableToken.sol\":3213:3236  lockedUntil[msg.sender] */\n      0x00\n      swap1\n      dup2\n      mstore\n        /* \"RVA/UpgradableToken.sol\":3213:3224  lockedUntil */\n      0x03\n        /* \"RVA/UpgradableToken.sol\":3213:3236  lockedUntil[msg.sender] */\n      0x20\n      mstore\n      0x40\n      swap1\n      keccak256\n      sload\n        /* \"RVA/UpgradableToken.sol\":3213:3241  lockedUntil[msg.sender] == 0 */\n      iszero\n        /* \"RVA/UpgradableToken.sol\":3167:3241  block.timestamp >= lockedUntil[msg.sender] || lockedUntil[msg.sender] == 0 */\n    tag_312:\n        /* \"RVA/UpgradableToken.sol\":3159:3280  require(block.timestamp >= lockedUntil[msg.sender] || lockedUntil[msg.sender] == 0, \"Transfer failed: Tokens are locked\") */\n      tag_313\n      jumpi\n      mload(0x40)\n      shl(0xe5, 0x461bcd)\n      dup2\n      mstore\n      0x04\n      add\n      tag_188\n      swap1\n      tag_212\n      jump\t// in\n    tag_313:\n        /* \"RVA/UpgradableToken.sol\":3297:3330  super.transfer(recipient, amount) */\n      tag_315\n        /* \"RVA/UpgradableToken.sol\":3312:3321  recipient */\n      dup4\n        /* \"RVA/UpgradableToken.sol\":3323:3329  amount */\n      dup4\n        /* \"RVA/UpgradableToken.sol\":3297:3311  super.transfer */\n      tag_316\n        /* \"RVA/UpgradableToken.sol\":3297:3330  super.transfer(recipient, amount) */\n      jump\t// in\n    tag_315:\n        /* \"RVA/UpgradableToken.sol\":3290:3330  return super.transfer(recipient, amount) */\n      swap1\n      pop\n        /* \"@openzeppelin/contracts-upgradeable/utils/ReentrancyGuardUpgradeable.sol\":3437:3457  _nonReentrantAfter() */\n      tag_178\n        /* \"@openzeppelin/contracts-upgradeable/utils/ReentrancyGuardUpgradeable.sol\":1949:1950  1 */\n      0x01\n      0x00\n      dup1\n      mload\n      0x20\n      data_c8669cf8eaf883002b9f48e28846a8d408c9b58ea6613bace374265e43c9bc43\n      dup4\n      codecopy\n      dup2\n      mload\n      swap2\n      mstore\n        /* \"@openzeppelin/contracts-upgradeable/utils/ReentrancyGuardUpgradeable.sol\":4113:4136  $._status = NOT_ENTERED */\n      sstore\n        /* \"@openzeppelin/contracts-upgradeable/utils/ReentrancyGuardUpgradeable.sol\":3860:4143  function _nonReentrantAfter() private {... */\n      jump\n        /* \"RVA/UpgradableToken.sol\":1380:1743  function initialize(string memory name, string memory symbol, uint256 totalSupply_) external initializer {... */\n    tag_139:\n        /* \"@openzeppelin/contracts-upgradeable/proxy/utils/Initializable.sol\":8870:8891  INITIALIZABLE_STORAGE */\n      0xf0c57e16840df040f15088dc2f81fe391c3923bec73e23a9662efc9c229c6a00\n        /* \"@openzeppelin/contracts-upgradeable/proxy/utils/Initializable.sol\":4302:4317  $._initializing */\n      dup1\n      sload\n      shl(0x40, 0x01)\n      dup2\n      div\n      0xff\n      and\n        /* \"@openzeppelin/contracts-upgradeable/proxy/utils/Initializable.sol\":4301:4317  !$._initializing */\n      iszero\n      swap1\n        /* \"@openzeppelin/contracts-upgradeable/proxy/utils/Initializable.sol\":4348:4362  $._initialized */\n      0xffffffffffffffff\n      and\n        /* \"@openzeppelin/contracts-upgradeable/proxy/utils/Initializable.sol\":4158:4188  InitializableStorage storage $ */\n      0x00\n        /* \"@openzeppelin/contracts-upgradeable/proxy/utils/Initializable.sol\":4726:4742  initialized == 0 */\n      dup2\n      iszero\n        /* \"@openzeppelin/contracts-upgradeable/proxy/utils/Initializable.sol\":4726:4760  initialized == 0 && isTopLevelCall */\n      dup1\n      iszero\n      tag_321\n      jumpi\n      pop\n        /* \"@openzeppelin/contracts-upgradeable/proxy/utils/Initializable.sol\":4746:4760  isTopLevelCall */\n      dup3\n        /* \"@openzeppelin/contracts-upgradeable/proxy/utils/Initializable.sol\":4726:4760  initialized == 0 && isTopLevelCall */\n    tag_321:\n        /* \"@openzeppelin/contracts-upgradeable/proxy/utils/Initializable.sol\":4706:4760  bool initialSetup = initialized == 0 && isTopLevelCall */\n      swap1\n      pop\n        /* \"@openzeppelin/contracts-upgradeable/proxy/utils/Initializable.sol\":4770:4787  bool construction */\n      0x00\n        /* \"@openzeppelin/contracts-upgradeable/proxy/utils/Initializable.sol\":4790:4801  initialized */\n      dup3\n        /* \"@openzeppelin/contracts-upgradeable/proxy/utils/Initializable.sol\":4790:4806  initialized == 1 */\n      0xffffffffffffffff\n      and\n        /* \"@openzeppelin/contracts-upgradeable/proxy/utils/Initializable.sol\":4805:4806  1 */\n      0x01\n        /* \"@openzeppelin/contracts-upgradeable/proxy/utils/Initializable.sol\":4790:4806  initialized == 1 */\n      eq\n        /* \"@openzeppelin/contracts-upgradeable/proxy/utils/Initializable.sol\":4790:4840  initialized == 1 && address(this).code.length == 0 */\n      dup1\n      iszero\n      tag_322\n      jumpi\n      pop\n        /* \"@openzeppelin/contracts-upgradeable/proxy/utils/Initializable.sol\":4818:4822  this */\n      address\n        /* \"@openzeppelin/contracts-upgradeable/proxy/utils/Initializable.sol\":4810:4835  address(this).code.length */\n      extcodesize\n        /* \"@openzeppelin/contracts-upgradeable/proxy/utils/Initializable.sol\":4810:4840  address(this).code.length == 0 */\n      iszero\n        /* \"@openzeppelin/contracts-upgradeable/proxy/utils/Initializable.sol\":4790:4840  initialized == 1 && address(this).code.length == 0 */\n    tag_322:\n        /* \"@openzeppelin/contracts-upgradeable/proxy/utils/Initializable.sol\":4770:4840  bool construction = initialized == 1 && address(this).code.length == 0 */\n      swap1\n      pop\n        /* \"@openzeppelin/contracts-upgradeable/proxy/utils/Initializable.sol\":4856:4868  initialSetup */\n      dup2\n        /* \"@openzeppelin/contracts-upgradeable/proxy/utils/Initializable.sol\":4855:4868  !initialSetup */\n      iszero\n        /* \"@openzeppelin/contracts-upgradeable/proxy/utils/Initializable.sol\":4855:4885  !initialSetup && !construction */\n      dup1\n      iszero\n      tag_323\n      jumpi\n      pop\n        /* \"@openzeppelin/contracts-upgradeable/proxy/utils/Initializable.sol\":4873:4885  construction */\n      dup1\n        /* \"@openzeppelin/contracts-upgradeable/proxy/utils/Initializable.sol\":4872:4885  !construction */\n      iszero\n        /* \"@openzeppelin/contracts-upgradeable/proxy/utils/Initializable.sol\":4855:4885  !initialSetup && !construction */\n    tag_323:\n        /* \"@openzeppelin/contracts-upgradeable/proxy/utils/Initializable.sol\":4851:4942  if (!initialSetup && !construction) {... */\n      iszero\n      tag_324\n      jumpi\n        /* \"@openzeppelin/contracts-upgradeable/proxy/utils/Initializable.sol\":4908:4931  InvalidInitialization() */\n      mload(0x40)\n      shl(0xe0, 0xf92ee8a9)\n      dup2\n      mstore\n      0x04\n      add\n      mload(0x40)\n      dup1\n      swap2\n      sub\n      swap1\n      revert\n        /* \"@openzeppelin/contracts-upgradeable/proxy/utils/Initializable.sol\":4851:4942  if (!initialSetup && !construction) {... */\n    tag_324:\n        /* \"@openzeppelin/contracts-upgradeable/proxy/utils/Initializable.sol\":4951:4969  $._initialized = 1 */\n      dup5\n      sload\n      not(0xffffffffffffffff)\n      and\n        /* \"@openzeppelin/contracts-upgradeable/proxy/utils/Initializable.sol\":4968:4969  1 */\n      0x01\n        /* \"@openzeppelin/contracts-upgradeable/proxy/utils/Initializable.sol\":4951:4969  $._initialized = 1 */\n      or\n      dup6\n      sstore\n        /* \"@openzeppelin/contracts-upgradeable/proxy/utils/Initializable.sol\":4979:5046  if (isTopLevelCall) {... */\n      dup4\n      iszero\n      tag_325\n      jumpi\n        /* \"@openzeppelin/contracts-upgradeable/proxy/utils/Initializable.sol\":5013:5035  $._initializing = true */\n      dup5\n      sload\n      not(shl(0x40, 0xff))\n      and\n      shl(0x40, 0x01)\n      or\n      dup6\n      sstore\n        /* \"@openzeppelin/contracts-upgradeable/proxy/utils/Initializable.sol\":4979:5046  if (isTopLevelCall) {... */\n    tag_325:\n        /* \"RVA/UpgradableToken.sol\":1495:1521  __ERC20_init(name, symbol) */\n      tag_327\n        /* \"RVA/UpgradableToken.sol\":1508:1512  name */\n      dup9\n        /* \"RVA/UpgradableToken.sol\":1514:1520  symbol */\n      dup9\n        /* \"RVA/UpgradableToken.sol\":1495:1507  __ERC20_init */\n      tag_328\n        /* \"RVA/UpgradableToken.sol\":1495:1521  __ERC20_init(name, symbol) */\n      jump\t// in\n    tag_327:\n        /* \"RVA/UpgradableToken.sol\":1531:1557  __Ownable_init(msg.sender) */\n      tag_329\n        /* \"RVA/UpgradableToken.sol\":1546:1556  msg.sender */\n      caller\n        /* \"RVA/UpgradableToken.sol\":1531:1545  __Ownable_init */\n      tag_330\n        /* \"RVA/UpgradableToken.sol\":1531:1557  __Ownable_init(msg.sender) */\n      jump\t// in\n    tag_329:\n        /* \"RVA/UpgradableToken.sol\":1567:1584  __Pausable_init() */\n      tag_331\n        /* \"RVA/UpgradableToken.sol\":1567:1582  __Pausable_init */\n      tag_332\n        /* \"RVA/UpgradableToken.sol\":1567:1584  __Pausable_init() */\n      jump\t// in\n    tag_331:\n        /* \"RVA/UpgradableToken.sol\":1594:1618  __UUPSUpgradeable_init() */\n      tag_333\n        /* \"RVA/UpgradableToken.sol\":1594:1616  __UUPSUpgradeable_init */\n      tag_334\n        /* \"RVA/UpgradableToken.sol\":1594:1618  __UUPSUpgradeable_init() */\n      jump\t// in\n    tag_333:\n        /* \"RVA/UpgradableToken.sol\":1629:1641  _totalSupply */\n      0x01\n        /* \"RVA/UpgradableToken.sol\":1629:1656  _totalSupply = totalSupply_ */\n      dup7\n      swap1\n      sstore\n        /* \"RVA/UpgradableToken.sol\":1666:1697  _mint(msg.sender, _totalSupply) */\n      tag_335\n        /* \"RVA/UpgradableToken.sol\":1672:1682  msg.sender */\n      caller\n        /* \"RVA/UpgradableToken.sol\":1644:1656  totalSupply_ */\n      dup8\n        /* \"RVA/UpgradableToken.sol\":1666:1671  _mint */\n      tag_336\n        /* \"RVA/UpgradableToken.sol\":1666:1697  _mint(msg.sender, _totalSupply) */\n      jump\t// in\n    tag_335:\n        /* \"@openzeppelin/contracts-upgradeable/proxy/utils/Initializable.sol\":5070:5084  isTopLevelCall */\n      dup4\n        /* \"@openzeppelin/contracts-upgradeable/proxy/utils/Initializable.sol\":5066:5167  if (isTopLevelCall) {... */\n      iszero\n      tag_337\n      jumpi\n        /* \"@openzeppelin/contracts-upgradeable/proxy/utils/Initializable.sol\":5100:5123  $._initializing = false */\n      dup5\n      sload\n      not(shl(0x40, 0xff))\n      and\n      dup6\n      sstore\n        /* \"@openzeppelin/contracts-upgradeable/proxy/utils/Initializable.sol\":5142:5156  Initialized(1) */\n      mload(0x40)\n      0x01\n        /* \"#utility.yul\":10654:10704   */\n      dup2\n      mstore\n        /* \"@openzeppelin/contracts-upgradeable/proxy/utils/Initializable.sol\":5142:5156  Initialized(1) */\n      0xc7f505b2f371ae2175ee4913f4499e1f2633a7b5936321eed1cdaeb6115181d2\n      swap1\n        /* \"#utility.yul\":10642:10644   */\n      0x20\n        /* \"#utility.yul\":10627:10645   */\n      add\n        /* \"@openzeppelin/contracts-upgradeable/proxy/utils/Initializable.sol\":5142:5156  Initialized(1) */\n      mload(0x40)\n      dup1\n      swap2\n      sub\n      swap1\n      log1\n        /* \"@openzeppelin/contracts-upgradeable/proxy/utils/Initializable.sol\":5066:5167  if (isTopLevelCall) {... */\n    tag_337:\n        /* \"@openzeppelin/contracts-upgradeable/proxy/utils/Initializable.sol\":4092:5173  {... */\n      pop\n      pop\n      pop\n      pop\n      pop\n        /* \"RVA/UpgradableToken.sol\":1380:1743  function initialize(string memory name, string memory symbol, uint256 totalSupply_) external initializer {... */\n      pop\n      pop\n      pop\n      jump\t// out\n        /* \"@openzeppelin/contracts-upgradeable/token/ERC20/ERC20Upgradeable.sol\":4708:4903  function allowance(address owner, address spender) public view virtual returns (uint256) {... */\n    tag_153:\n      sub(shl(0xa0, 0x01), 0x01)\n        /* \"@openzeppelin/contracts-upgradeable/token/ERC20/ERC20Upgradeable.sol\":4867:4887  $._allowances[owner] */\n      swap2\n      dup3\n      and\n        /* \"@openzeppelin/contracts-upgradeable/token/ERC20/ERC20Upgradeable.sol\":4788:4795  uint256 */\n      0x00\n        /* \"@openzeppelin/contracts-upgradeable/token/ERC20/ERC20Upgradeable.sol\":4867:4887  $._allowances[owner] */\n      swap1\n      dup2\n      mstore\n        /* \"@openzeppelin/contracts-upgradeable/token/ERC20/ERC20Upgradeable.sol\":4867:4880  $._allowances */\n      0x52c63247e1f47db19d5ce0460030c497f067ca4cebf71ba98eeadabe20bace01\n        /* \"@openzeppelin/contracts-upgradeable/token/ERC20/ERC20Upgradeable.sol\":4867:4887  $._allowances[owner] */\n      0x20\n      swap1\n      dup2\n      mstore\n      0x40\n      dup1\n      dup4\n      keccak256\n        /* \"@openzeppelin/contracts-upgradeable/token/ERC20/ERC20Upgradeable.sol\":4867:4896  $._allowances[owner][spender] */\n      swap4\n      swap1\n      swap5\n      and\n      dup3\n      mstore\n      swap2\n      swap1\n      swap2\n      mstore\n      keccak256\n      sload\n      swap1\n        /* \"@openzeppelin/contracts-upgradeable/token/ERC20/ERC20Upgradeable.sol\":4708:4903  function allowance(address owner, address spender) public view virtual returns (uint256) {... */\n      jump\t// out\n        /* \"@openzeppelin/contracts-upgradeable/access/OwnableUpgradeable.sol\":3405:3620  function transferOwnership(address newOwner) public virtual onlyOwner {... */\n    tag_158:\n        /* \"@openzeppelin/contracts-upgradeable/access/OwnableUpgradeable.sol\":2334:2347  _checkOwner() */\n      tag_343\n        /* \"@openzeppelin/contracts-upgradeable/access/OwnableUpgradeable.sol\":2334:2345  _checkOwner */\n      tag_185\n        /* \"@openzeppelin/contracts-upgradeable/access/OwnableUpgradeable.sol\":2334:2347  _checkOwner() */\n      jump\t// in\n    tag_343:\n      sub(shl(0xa0, 0x01), 0x01)\n        /* \"@openzeppelin/contracts-upgradeable/access/OwnableUpgradeable.sol\":3489:3511  newOwner == address(0) */\n      dup2\n      and\n        /* \"@openzeppelin/contracts-upgradeable/access/OwnableUpgradeable.sol\":3485:3576  if (newOwner == address(0)) {... */\n      tag_345\n      jumpi\n        /* \"@openzeppelin/contracts-upgradeable/access/OwnableUpgradeable.sol\":3534:3565  OwnableInvalidOwner(address(0)) */\n      mload(0x40)\n      shl(0xe0, 0x1e4fbdf7)\n      dup2\n      mstore\n        /* \"@openzeppelin/contracts-upgradeable/access/OwnableUpgradeable.sol\":3562:3563  0 */\n      0x00\n        /* \"@openzeppelin/contracts-upgradeable/access/OwnableUpgradeable.sol\":3534:3565  OwnableInvalidOwner(address(0)) */\n      0x04\n      dup3\n      add\n        /* \"#utility.yul\":5258:5309   */\n      mstore\n        /* \"#utility.yul\":5231:5249   */\n      0x24\n      add\n        /* \"@openzeppelin/contracts-upgradeable/access/OwnableUpgradeable.sol\":3534:3565  OwnableInvalidOwner(address(0)) */\n      tag_188\n        /* \"#utility.yul\":5112:5315   */\n      jump\n        /* \"@openzeppelin/contracts-upgradeable/access/OwnableUpgradeable.sol\":3485:3576  if (newOwner == address(0)) {... */\n    tag_345:\n        /* \"@openzeppelin/contracts-upgradeable/access/OwnableUpgradeable.sol\":3585:3613  _transferOwnership(newOwner) */\n      tag_231\n        /* \"@openzeppelin/contracts-upgradeable/access/OwnableUpgradeable.sol\":3604:3612  newOwner */\n      dup2\n        /* \"@openzeppelin/contracts-upgradeable/access/OwnableUpgradeable.sol\":3585:3603  _transferOwnership */\n      tag_259\n        /* \"@openzeppelin/contracts-upgradeable/access/OwnableUpgradeable.sol\":3585:3613  _transferOwnership(newOwner) */\n      jump\t// in\n        /* \"RVA/UpgradableToken.sol\":2000:2467  function setLockup(address account, uint256 timestamp, uint256 amount) external nonReentrant whenNotPaused onlyICOContract  {... */\n    tag_163:\n        /* \"@openzeppelin/contracts-upgradeable/utils/ReentrancyGuardUpgradeable.sol\":3395:3416  _nonReentrantBefore() */\n      tag_349\n        /* \"@openzeppelin/contracts-upgradeable/utils/ReentrancyGuardUpgradeable.sol\":3395:3414  _nonReentrantBefore */\n      tag_195\n        /* \"@openzeppelin/contracts-upgradeable/utils/ReentrancyGuardUpgradeable.sol\":3395:3416  _nonReentrantBefore() */\n      jump\t// in\n    tag_349:\n        /* \"@openzeppelin/contracts-upgradeable/utils/PausableUpgradeable.sol\":2316:2335  _requireNotPaused() */\n      tag_351\n        /* \"@openzeppelin/contracts-upgradeable/utils/PausableUpgradeable.sol\":2316:2333  _requireNotPaused */\n      tag_198\n        /* \"@openzeppelin/contracts-upgradeable/utils/PausableUpgradeable.sol\":2316:2335  _requireNotPaused() */\n      jump\t// in\n    tag_351:\n        /* \"RVA/UpgradableToken.sol\":1808:1819  icoContract */\n      and(sub(shl(0xa0, 0x01), 0x01), sload(0x00))\n        /* \"RVA/UpgradableToken.sol\":1794:1804  msg.sender */\n      caller\n        /* \"RVA/UpgradableToken.sol\":1794:1819  msg.sender == icoContract */\n      eq\n        /* \"RVA/UpgradableToken.sol\":1786:1838  require(msg.sender == icoContract, \"Not authorized\") */\n      tag_353\n      jumpi\n      mload(0x40)\n      shl(0xe5, 0x461bcd)\n      dup2\n      mstore\n        /* \"#utility.yul\":10917:10919   */\n      0x20\n        /* \"RVA/UpgradableToken.sol\":1786:1838  require(msg.sender == icoContract, \"Not authorized\") */\n      0x04\n      dup3\n      add\n        /* \"#utility.yul\":10899:10920   */\n      mstore\n        /* \"#utility.yul\":10956:10958   */\n      0x0e\n        /* \"#utility.yul\":10936:10954   */\n      0x24\n      dup3\n      add\n        /* \"#utility.yul\":10929:10959   */\n      mstore\n      shl(0x92, 0x139bdd08185d5d1a1bdc9a5e9959)\n        /* \"#utility.yul\":10975:10993   */\n      0x44\n      dup3\n      add\n        /* \"#utility.yul\":10968:11012   */\n      mstore\n        /* \"#utility.yul\":11029:11047   */\n      0x64\n      add\n        /* \"RVA/UpgradableToken.sol\":1786:1838  require(msg.sender == icoContract, \"Not authorized\") */\n      tag_188\n        /* \"#utility.yul\":10715:11053   */\n      jump\n        /* \"RVA/UpgradableToken.sol\":1786:1838  require(msg.sender == icoContract, \"Not authorized\") */\n    tag_353:\n      sub(shl(0xa0, 0x01), 0x01)\n        /* \"RVA/UpgradableToken.sol\":2138:2159  account != address(0) */\n      dup4\n      and\n        /* \"RVA/UpgradableToken.sol\":2130:2176  require(account != address(0), \"Null Address\") */\n      tag_357\n      jumpi\n      mload(0x40)\n      shl(0xe5, 0x461bcd)\n      dup2\n      mstore\n      0x04\n      add\n      tag_188\n      swap1\n      tag_189\n      jump\t// in\n    tag_357:\n        /* \"RVA/UpgradableToken.sol\":2190:2196  amount */\n      dup1\n        /* \"RVA/UpgradableToken.sol\":2200:2201  0 */\n      0x00\n        /* \"RVA/UpgradableToken.sol\":2190:2201  amount != 0 */\n      sub\n        /* \"RVA/UpgradableToken.sol\":2182:2238  require(amount != 0, \"Amount must be greater than zero\") */\n      tag_359\n      jumpi\n      mload(0x40)\n      shl(0xe5, 0x461bcd)\n      dup2\n      mstore\n        /* \"#utility.yul\":11260:11262   */\n      0x20\n        /* \"RVA/UpgradableToken.sol\":2182:2238  require(amount != 0, \"Amount must be greater than zero\") */\n      0x04\n      dup3\n      add\n        /* \"#utility.yul\":11242:11263   */\n      dup2\n      swap1\n      mstore\n        /* \"#utility.yul\":11279:11297   */\n      0x24\n      dup3\n      add\n        /* \"#utility.yul\":11272:11302   */\n      mstore\n        /* \"#utility.yul\":11338:11372   */\n      0x416d6f756e74206d7573742062652067726561746572207468616e207a65726f\n        /* \"#utility.yul\":11318:11336   */\n      0x44\n      dup3\n      add\n        /* \"#utility.yul\":11311:11373   */\n      mstore\n        /* \"#utility.yul\":11390:11408   */\n      0x64\n      add\n        /* \"RVA/UpgradableToken.sol\":2182:2238  require(amount != 0, \"Amount must be greater than zero\") */\n      tag_188\n        /* \"#utility.yul\":11058:11414   */\n      jump\n        /* \"RVA/UpgradableToken.sol\":2182:2238  require(amount != 0, \"Amount must be greater than zero\") */\n    tag_359:\n      sub(shl(0xa0, 0x01), 0x01)\n        /* \"RVA/UpgradableToken.sol\":2252:2272  lockedUntil[account] */\n      dup4\n      and\n      0x00\n      swap1\n      dup2\n      mstore\n        /* \"RVA/UpgradableToken.sol\":2252:2263  lockedUntil */\n      0x03\n        /* \"RVA/UpgradableToken.sol\":2252:2272  lockedUntil[account] */\n      0x20\n      mstore\n      0x40\n      swap1\n      keccak256\n      sload\n        /* \"RVA/UpgradableToken.sol\":2252:2285  lockedUntil[account] != timestamp */\n      dup3\n      eq\n      iszero\n      dup1\n        /* \"RVA/UpgradableToken.sol\":2252:2320  lockedUntil[account] != timestamp || lockedAmount[account] != amount */\n      tag_362\n      jumpi\n      pop\n      sub(shl(0xa0, 0x01), 0x01)\n        /* \"RVA/UpgradableToken.sol\":2289:2310  lockedAmount[account] */\n      dup4\n      and\n      0x00\n      swap1\n      dup2\n      mstore\n        /* \"RVA/UpgradableToken.sol\":2289:2301  lockedAmount */\n      0x04\n        /* \"RVA/UpgradableToken.sol\":2289:2310  lockedAmount[account] */\n      0x20\n      mstore\n      0x40\n      swap1\n      keccak256\n      sload\n        /* \"RVA/UpgradableToken.sol\":2289:2320  lockedAmount[account] != amount */\n      dup2\n      eq\n      iszero\n        /* \"RVA/UpgradableToken.sol\":2252:2320  lockedUntil[account] != timestamp || lockedAmount[account] != amount */\n    tag_362:\n        /* \"RVA/UpgradableToken.sol\":2248:2465  if (lockedUntil[account] != timestamp || lockedAmount[account] != amount) {... */\n      iszero\n      tag_363\n      jumpi\n      sub(shl(0xa0, 0x01), 0x01)\n        /* \"RVA/UpgradableToken.sol\":2332:2352  lockedUntil[account] */\n      dup4\n      and\n      0x00\n      dup2\n      dup2\n      mstore\n        /* \"RVA/UpgradableToken.sol\":2332:2343  lockedUntil */\n      0x03\n        /* \"RVA/UpgradableToken.sol\":2332:2352  lockedUntil[account] */\n      0x20\n      swap1\n      dup2\n      mstore\n      0x40\n      dup1\n      dup4\n      keccak256\n        /* \"RVA/UpgradableToken.sol\":2332:2364  lockedUntil[account] = timestamp */\n      dup7\n      swap1\n      sstore\n        /* \"RVA/UpgradableToken.sol\":2374:2386  lockedAmount */\n      0x04\n        /* \"RVA/UpgradableToken.sol\":2374:2395  lockedAmount[account] */\n      dup3\n      mstore\n      swap2\n      dup3\n      swap1\n      keccak256\n        /* \"RVA/UpgradableToken.sol\":2374:2404  lockedAmount[account] = amount */\n      dup5\n      swap1\n      sstore\n        /* \"RVA/UpgradableToken.sol\":2421:2458  LockupSet(account, timestamp, amount) */\n      dup2\n      mload\n        /* \"#utility.yul\":11593:11618   */\n      dup6\n      dup2\n      mstore\n        /* \"#utility.yul\":11634:11652   */\n      swap1\n      dup2\n      add\n        /* \"#utility.yul\":11627:11661   */\n      dup5\n      swap1\n      mstore\n        /* \"RVA/UpgradableToken.sol\":2421:2458  LockupSet(account, timestamp, amount) */\n      0x86f2e10d5622d896b3f56e66c1a60639ca21a4674480f054bec2cb9ba62f40cb\n      swap2\n        /* \"#utility.yul\":11566:11584   */\n      add\n        /* \"RVA/UpgradableToken.sol\":2421:2458  LockupSet(account, timestamp, amount) */\n      mload(0x40)\n      dup1\n      swap2\n      sub\n      swap1\n      log2\n        /* \"RVA/UpgradableToken.sol\":2248:2465  if (lockedUntil[account] != timestamp || lockedAmount[account] != amount) {... */\n    tag_363:\n        /* \"@openzeppelin/contracts-upgradeable/utils/ReentrancyGuardUpgradeable.sol\":3437:3457  _nonReentrantAfter() */\n      tag_366\n        /* \"@openzeppelin/contracts-upgradeable/utils/ReentrancyGuardUpgradeable.sol\":1949:1950  1 */\n      0x01\n      0x00\n      dup1\n      mload\n      0x20\n      data_c8669cf8eaf883002b9f48e28846a8d408c9b58ea6613bace374265e43c9bc43\n      dup4\n      codecopy\n      dup2\n      mload\n      swap2\n      mstore\n        /* \"@openzeppelin/contracts-upgradeable/utils/ReentrancyGuardUpgradeable.sol\":4113:4136  $._status = NOT_ENTERED */\n      sstore\n        /* \"@openzeppelin/contracts-upgradeable/utils/ReentrancyGuardUpgradeable.sol\":3860:4143  function _nonReentrantAfter() private {... */\n      jump\n        /* \"@openzeppelin/contracts-upgradeable/utils/ReentrancyGuardUpgradeable.sol\":3437:3457  _nonReentrantAfter() */\n    tag_366:\n        /* \"RVA/UpgradableToken.sol\":2000:2467  function setLockup(address account, uint256 timestamp, uint256 amount) external nonReentrant whenNotPaused onlyICOContract  {... */\n      pop\n      pop\n      pop\n      jump\t// out\n        /* \"@openzeppelin/contracts-upgradeable/token/ERC20/ERC20Upgradeable.sol\":10001:10129  function _approve(address owner, address spender, uint256 value) internal {... */\n    tag_182:\n        /* \"@openzeppelin/contracts-upgradeable/token/ERC20/ERC20Upgradeable.sol\":10085:10122  _approve(owner, spender, value, true) */\n      tag_366\n        /* \"@openzeppelin/contracts-upgradeable/token/ERC20/ERC20Upgradeable.sol\":10094:10099  owner */\n      dup4\n        /* \"@openzeppelin/contracts-upgradeable/token/ERC20/ERC20Upgradeable.sol\":10101:10108  spender */\n      dup4\n        /* \"@openzeppelin/contracts-upgradeable/token/ERC20/ERC20Upgradeable.sol\":10110:10115  value */\n      dup4\n        /* \"@openzeppelin/contracts-upgradeable/token/ERC20/ERC20Upgradeable.sol\":10117:10121  true */\n      0x01\n        /* \"@openzeppelin/contracts-upgradeable/token/ERC20/ERC20Upgradeable.sol\":10085:10093  _approve */\n      tag_372\n        /* \"@openzeppelin/contracts-upgradeable/token/ERC20/ERC20Upgradeable.sol\":10085:10122  _approve(owner, spender, value, true) */\n      jump\t// in\n        /* \"@openzeppelin/contracts-upgradeable/access/OwnableUpgradeable.sol\":2658:2820  function _checkOwner() internal view virtual {... */\n    tag_185:\n        /* \"@openzeppelin/contracts-upgradeable/utils/ContextUpgradeable.sol\":966:976  msg.sender */\n      caller\n        /* \"@openzeppelin/contracts-upgradeable/access/OwnableUpgradeable.sol\":2717:2724  owner() */\n      tag_375\n        /* \"@openzeppelin/contracts-upgradeable/access/OwnableUpgradeable.sol\":1313:1335  OwnableStorageLocation */\n      0x9016d09d72d40fdae2fd8ceac6b6234c7706214fd39c1cd1e609a0528c199300\n        /* \"@openzeppelin/contracts-upgradeable/access/OwnableUpgradeable.sol\":2570:2578  $._owner */\n      sload\n      sub(shl(0xa0, 0x01), 0x01)\n      and\n      swap1\n        /* \"@openzeppelin/contracts-upgradeable/access/OwnableUpgradeable.sol\":2441:2585  function owner() public view virtual returns (address) {... */\n      jump\n        /* \"@openzeppelin/contracts-upgradeable/access/OwnableUpgradeable.sol\":2717:2724  owner() */\n    tag_375:\n      sub(shl(0xa0, 0x01), 0x01)\n        /* \"@openzeppelin/contracts-upgradeable/access/OwnableUpgradeable.sol\":2717:2740  owner() != _msgSender() */\n      and\n      eq\n        /* \"@openzeppelin/contracts-upgradeable/access/OwnableUpgradeable.sol\":2713:2814  if (owner() != _msgSender()) {... */\n      tag_236\n      jumpi\n        /* \"@openzeppelin/contracts-upgradeable/access/OwnableUpgradeable.sol\":2763:2803  OwnableUnauthorizedAccount(_msgSender()) */\n      mload(0x40)\n      shl(0xe0, 0x118cdaa7)\n      dup2\n      mstore\n        /* \"@openzeppelin/contracts-upgradeable/utils/ContextUpgradeable.sol\":966:976  msg.sender */\n      caller\n        /* \"@openzeppelin/contracts-upgradeable/access/OwnableUpgradeable.sol\":2763:2803  OwnableUnauthorizedAccount(_msgSender()) */\n      0x04\n      dup3\n      add\n        /* \"#utility.yul\":5258:5309   */\n      mstore\n        /* \"#utility.yul\":5231:5249   */\n      0x24\n      add\n        /* \"@openzeppelin/contracts-upgradeable/access/OwnableUpgradeable.sol\":2763:2803  OwnableUnauthorizedAccount(_msgSender()) */\n      tag_188\n        /* \"#utility.yul\":5112:5315   */\n      jump\n        /* \"@openzeppelin/contracts-upgradeable/utils/ReentrancyGuardUpgradeable.sol\":3470:3854  function _nonReentrantBefore() private {... */\n    tag_195:\n      0x00\n      dup1\n      mload\n      0x20\n      data_c8669cf8eaf883002b9f48e28846a8d408c9b58ea6613bace374265e43c9bc43\n      dup4\n      codecopy\n      dup2\n      mload\n      swap2\n      mstore\n        /* \"@openzeppelin/contracts-upgradeable/utils/ReentrancyGuardUpgradeable.sol\":3670:3679  $._status */\n      dup1\n      sload\n      not(0x01)\n        /* \"@openzeppelin/contracts-upgradeable/utils/ReentrancyGuardUpgradeable.sol\":3670:3690  $._status == ENTERED */\n      add\n        /* \"@openzeppelin/contracts-upgradeable/utils/ReentrancyGuardUpgradeable.sol\":3666:3754  if ($._status == ENTERED) {... */\n      tag_382\n      jumpi\n        /* \"@openzeppelin/contracts-upgradeable/utils/ReentrancyGuardUpgradeable.sol\":3713:3743  ReentrancyGuardReentrantCall() */\n      mload(0x40)\n      shl(0xe0, 0x3ee5aeb5)\n      dup2\n      mstore\n      0x04\n      add\n      mload(0x40)\n      dup1\n      swap2\n      sub\n      swap1\n      revert\n        /* \"@openzeppelin/contracts-upgradeable/utils/ReentrancyGuardUpgradeable.sol\":3666:3754  if ($._status == ENTERED) {... */\n    tag_382:\n        /* \"@openzeppelin/contracts-upgradeable/utils/ReentrancyGuardUpgradeable.sol\":1991:1992  2 */\n      0x02\n        /* \"@openzeppelin/contracts-upgradeable/utils/ReentrancyGuardUpgradeable.sol\":3828:3847  $._status = ENTERED */\n      swap1\n      sstore\n        /* \"@openzeppelin/contracts-upgradeable/utils/ReentrancyGuardUpgradeable.sol\":3470:3854  function _nonReentrantBefore() private {... */\n      jump\t// out\n        /* \"@openzeppelin/contracts-upgradeable/utils/PausableUpgradeable.sol\":2905:3033  function _requireNotPaused() internal view virtual {... */\n    tag_198:\n      0x00\n      dup1\n      mload\n      0x20\n      data_c0c65a3718f3702d917c44106b91645b509d2e2d0979b70495c3babce192339f\n      dup4\n      codecopy\n      dup2\n      mload\n      swap2\n      mstore\n        /* \"@openzeppelin/contracts-upgradeable/utils/PausableUpgradeable.sol\":2821:2830  $._paused */\n      sload\n      0xff\n      and\n        /* \"@openzeppelin/contracts-upgradeable/utils/PausableUpgradeable.sol\":2966:3027  if (paused()) {... */\n      iszero\n      tag_236\n      jumpi\n        /* \"@openzeppelin/contracts-upgradeable/utils/PausableUpgradeable.sol\":3001:3016  EnforcedPause() */\n      mload(0x40)\n      shl(0xe0, 0xd93c0665)\n      dup2\n      mstore\n      0x04\n      add\n      mload(0x40)\n      dup1\n      swap2\n      sub\n      swap1\n      revert\n        /* \"@openzeppelin/contracts-upgradeable/token/ERC20/ERC20Upgradeable.sol\":5988:6232  function transferFrom(address from, address to, uint256 value) public virtual returns (bool) {... */\n    tag_214:\n        /* \"@openzeppelin/contracts-upgradeable/token/ERC20/ERC20Upgradeable.sol\":6075:6079  bool */\n      0x00\n        /* \"@openzeppelin/contracts-upgradeable/utils/ContextUpgradeable.sol\":966:976  msg.sender */\n      caller\n        /* \"@openzeppelin/contracts-upgradeable/token/ERC20/ERC20Upgradeable.sol\":6131:6168  _spendAllowance(from, spender, value) */\n      tag_388\n        /* \"@openzeppelin/contracts-upgradeable/token/ERC20/ERC20Upgradeable.sol\":6147:6151  from */\n      dup6\n        /* \"@openzeppelin/contracts-upgradeable/utils/ContextUpgradeable.sol\":966:976  msg.sender */\n      dup3\n        /* \"@openzeppelin/contracts-upgradeable/token/ERC20/ERC20Upgradeable.sol\":6162:6167  value */\n      dup6\n        /* \"@openzeppelin/contracts-upgradeable/token/ERC20/ERC20Upgradeable.sol\":6131:6146  _spendAllowance */\n      tag_389\n        /* \"@openzeppelin/contracts-upgradeable/token/ERC20/ERC20Upgradeable.sol\":6131:6168  _spendAllowance(from, spender, value) */\n      jump\t// in\n    tag_388:\n        /* \"@openzeppelin/contracts-upgradeable/token/ERC20/ERC20Upgradeable.sol\":6178:6204  _transfer(from, to, value) */\n      tag_390\n        /* \"@openzeppelin/contracts-upgradeable/token/ERC20/ERC20Upgradeable.sol\":6188:6192  from */\n      dup6\n        /* \"@openzeppelin/contracts-upgradeable/token/ERC20/ERC20Upgradeable.sol\":6194:6196  to */\n      dup6\n        /* \"@openzeppelin/contracts-upgradeable/token/ERC20/ERC20Upgradeable.sol\":6198:6203  value */\n      dup6\n        /* \"@openzeppelin/contracts-upgradeable/token/ERC20/ERC20Upgradeable.sol\":6178:6187  _transfer */\n      tag_289\n        /* \"@openzeppelin/contracts-upgradeable/token/ERC20/ERC20Upgradeable.sol\":6178:6204  _transfer(from, to, value) */\n      jump\t// in\n    tag_390:\n      pop\n        /* \"@openzeppelin/contracts-upgradeable/token/ERC20/ERC20Upgradeable.sol\":6221:6225  true */\n      0x01\n      swap5\n        /* \"@openzeppelin/contracts-upgradeable/token/ERC20/ERC20Upgradeable.sol\":5988:6232  function transferFrom(address from, address to, uint256 value) public virtual returns (bool) {... */\n      swap4\n      pop\n      pop\n      pop\n      pop\n      jump\t// out\n        /* \"@openzeppelin/contracts-upgradeable/utils/PausableUpgradeable.sol\":3674:3852  function _unpause() internal virtual whenPaused {... */\n    tag_237:\n        /* \"@openzeppelin/contracts-upgradeable/utils/PausableUpgradeable.sol\":2563:2579  _requirePaused() */\n      tag_395\n        /* \"@openzeppelin/contracts-upgradeable/utils/PausableUpgradeable.sol\":2563:2577  _requirePaused */\n      tag_396\n        /* \"@openzeppelin/contracts-upgradeable/utils/PausableUpgradeable.sol\":2563:2579  _requirePaused() */\n      jump\t// in\n    tag_395:\n      0x00\n      dup1\n      mload\n      0x20\n      data_c0c65a3718f3702d917c44106b91645b509d2e2d0979b70495c3babce192339f\n      dup4\n      codecopy\n      dup2\n      mload\n      swap2\n      mstore\n        /* \"@openzeppelin/contracts-upgradeable/utils/PausableUpgradeable.sol\":3791:3808  $._paused = false */\n      dup1\n      sload\n      not(0xff)\n      and\n      dup2\n      sstore\n        /* \"@openzeppelin/contracts-upgradeable/utils/PausableUpgradeable.sol\":3823:3845  Unpaused(_msgSender()) */\n      0x5db9ee0a495bf2e6ff9c91a7834c1ba4fdd244a5e8aa4e537bd38aeae4b073aa\n        /* \"@openzeppelin/contracts-upgradeable/utils/ContextUpgradeable.sol\":966:976  msg.sender */\n      caller\n        /* \"@openzeppelin/contracts-upgradeable/utils/PausableUpgradeable.sol\":3832:3844  _msgSender() */\n    tag_399:\n        /* \"@openzeppelin/contracts-upgradeable/utils/PausableUpgradeable.sol\":3823:3845  Unpaused(_msgSender()) */\n      mload(0x40)\n      sub(shl(0xa0, 0x01), 0x01)\n        /* \"#utility.yul\":5276:5308   */\n      swap1\n      swap2\n      and\n        /* \"#utility.yul\":5258:5309   */\n      dup2\n      mstore\n        /* \"#utility.yul\":5246:5248   */\n      0x20\n        /* \"#utility.yul\":5231:5249   */\n      add\n        /* \"@openzeppelin/contracts-upgradeable/utils/PausableUpgradeable.sol\":3823:3845  Unpaused(_msgSender()) */\n      mload(0x40)\n      dup1\n      swap2\n      sub\n      swap1\n      log1\n        /* \"@openzeppelin/contracts-upgradeable/utils/PausableUpgradeable.sol\":3722:3852  {... */\n      pop\n        /* \"@openzeppelin/contracts-upgradeable/utils/PausableUpgradeable.sol\":3674:3852  function _unpause() internal virtual whenPaused {... */\n      jump\t// out\n        /* \"@openzeppelin/contracts-upgradeable/proxy/utils/UUPSUpgradeable.sol\":4603:4915  function _checkProxy() internal view virtual {... */\n    tag_240:\n        /* \"@openzeppelin/contracts-upgradeable/proxy/utils/UUPSUpgradeable.sol\":4683:4687  this */\n      address\n      sub(shl(0xa0, 0x01), 0x01)\n        /* \"@openzeppelin/contracts-upgradeable/proxy/utils/UUPSUpgradeable.sol\":4692:4698  __self */\n      immutable(\"0x0b83f23a4eeb8c3f5f7d5934a2289bcf0186d09a12e1b7f20adf54e4b179db15\")\n        /* \"@openzeppelin/contracts-upgradeable/proxy/utils/UUPSUpgradeable.sol\":4675:4698  address(this) == __self */\n      and\n      eq\n      dup1\n        /* \"@openzeppelin/contracts-upgradeable/proxy/utils/UUPSUpgradeable.sol\":4675:4795  address(this) == __self || // Must be called through delegatecall... */\n      tag_402\n      jumpi\n      pop\n        /* \"@openzeppelin/contracts-upgradeable/proxy/utils/UUPSUpgradeable.sol\":4789:4795  __self */\n      immutable(\"0x0b83f23a4eeb8c3f5f7d5934a2289bcf0186d09a12e1b7f20adf54e4b179db15\")\n      sub(shl(0xa0, 0x01), 0x01)\n        /* \"@openzeppelin/contracts-upgradeable/proxy/utils/UUPSUpgradeable.sol\":4753:4795  ERC1967Utils.getImplementation() != __self */\n      and\n        /* \"@openzeppelin/contracts-upgradeable/proxy/utils/UUPSUpgradeable.sol\":4753:4785  ERC1967Utils.getImplementation() */\n      tag_403\n      0x00\n      dup1\n      mload\n      0x20\n      data_75b20eef8615de99c108b05f0dbda081c91897128caa336d75dffb97c4132b4d\n      dup4\n      codecopy\n      dup2\n      mload\n      swap2\n      mstore\n        /* \"@openzeppelin/contracts/proxy/ERC1967/ERC1967Utils.sol\":1519:1572  StorageSlot.getAddressSlot(IMPLEMENTATION_SLOT).value */\n      sload\n      sub(shl(0xa0, 0x01), 0x01)\n      and\n      swap1\n        /* \"@openzeppelin/contracts/proxy/ERC1967/ERC1967Utils.sol\":1441:1579  function getImplementation() internal view returns (address) {... */\n      jump\n        /* \"@openzeppelin/contracts-upgradeable/proxy/utils/UUPSUpgradeable.sol\":4753:4785  ERC1967Utils.getImplementation() */\n    tag_403:\n      sub(shl(0xa0, 0x01), 0x01)\n        /* \"@openzeppelin/contracts-upgradeable/proxy/utils/UUPSUpgradeable.sol\":4753:4795  ERC1967Utils.getImplementation() != __self */\n      and\n      eq\n      iszero\n        /* \"@openzeppelin/contracts-upgradeable/proxy/utils/UUPSUpgradeable.sol\":4675:4795  address(this) == __self || // Must be called through delegatecall... */\n    tag_402:\n        /* \"@openzeppelin/contracts-upgradeable/proxy/utils/UUPSUpgradeable.sol\":4658:4909  if (... */\n      iszero\n      tag_236\n      jumpi\n        /* \"@openzeppelin/contracts-upgradeable/proxy/utils/UUPSUpgradeable.sol\":4869:4898  UUPSUnauthorizedCallContext() */\n      mload(0x40)\n      shl(0xe1, 0x703e46dd)\n      dup2\n      mstore\n      0x04\n      add\n      mload(0x40)\n      dup1\n      swap2\n      sub\n      swap1\n      revert\n        /* \"RVA/UpgradableToken.sol\":4807:4918  function _authorizeUpgrade(address newImplementation) internal override nonReentrant whenNotPaused onlyOwner {} */\n    tag_243:\n        /* \"@openzeppelin/contracts-upgradeable/utils/ReentrancyGuardUpgradeable.sol\":3395:3416  _nonReentrantBefore() */\n      tag_407\n        /* \"@openzeppelin/contracts-upgradeable/utils/ReentrancyGuardUpgradeable.sol\":3395:3414  _nonReentrantBefore */\n      tag_195\n        /* \"@openzeppelin/contracts-upgradeable/utils/ReentrancyGuardUpgradeable.sol\":3395:3416  _nonReentrantBefore() */\n      jump\t// in\n    tag_407:\n        /* \"@openzeppelin/contracts-upgradeable/utils/PausableUpgradeable.sol\":2316:2335  _requireNotPaused() */\n      tag_409\n        /* \"@openzeppelin/contracts-upgradeable/utils/PausableUpgradeable.sol\":2316:2333  _requireNotPaused */\n      tag_198\n        /* \"@openzeppelin/contracts-upgradeable/utils/PausableUpgradeable.sol\":2316:2335  _requireNotPaused() */\n      jump\t// in\n    tag_409:\n        /* \"@openzeppelin/contracts-upgradeable/access/OwnableUpgradeable.sol\":2334:2347  _checkOwner() */\n      tag_411\n        /* \"@openzeppelin/contracts-upgradeable/access/OwnableUpgradeable.sol\":2334:2345  _checkOwner */\n      tag_185\n        /* \"@openzeppelin/contracts-upgradeable/access/OwnableUpgradeable.sol\":2334:2347  _checkOwner() */\n      jump\t// in\n    tag_411:\n        /* \"@openzeppelin/contracts-upgradeable/utils/ReentrancyGuardUpgradeable.sol\":3437:3457  _nonReentrantAfter() */\n      tag_231\n        /* \"@openzeppelin/contracts-upgradeable/utils/ReentrancyGuardUpgradeable.sol\":1949:1950  1 */\n      0x01\n      0x00\n      dup1\n      mload\n      0x20\n      data_c8669cf8eaf883002b9f48e28846a8d408c9b58ea6613bace374265e43c9bc43\n      dup4\n      codecopy\n      dup2\n      mload\n      swap2\n      mstore\n        /* \"@openzeppelin/contracts-upgradeable/utils/ReentrancyGuardUpgradeable.sol\":4113:4136  $._status = NOT_ENTERED */\n      sstore\n        /* \"@openzeppelin/contracts-upgradeable/utils/ReentrancyGuardUpgradeable.sol\":3860:4143  function _nonReentrantAfter() private {... */\n      jump\n        /* \"@openzeppelin/contracts-upgradeable/proxy/utils/UUPSUpgradeable.sol\":6057:6595  function _upgradeToAndCallUUPS(address newImplementation, bytes memory data) private {... */\n    tag_245:\n        /* \"@openzeppelin/contracts-upgradeable/proxy/utils/UUPSUpgradeable.sol\":6174:6191  newImplementation */\n      dup2\n      sub(shl(0xa0, 0x01), 0x01)\n        /* \"@openzeppelin/contracts-upgradeable/proxy/utils/UUPSUpgradeable.sol\":6156:6206  IERC1822Proxiable(newImplementation).proxiableUUID */\n      and\n      0x52d1902d\n        /* \"@openzeppelin/contracts-upgradeable/proxy/utils/UUPSUpgradeable.sol\":6156:6208  IERC1822Proxiable(newImplementation).proxiableUUID() */\n      mload(0x40)\n      dup2\n      0xffffffff\n      and\n      0xe0\n      shl\n      dup2\n      mstore\n      0x04\n      add\n      0x20\n      mload(0x40)\n      dup1\n      dup4\n      sub\n      dup2\n      dup7\n      gas\n      staticcall\n      swap3\n      pop\n      pop\n      pop\n      dup1\n      iszero\n      tag_415\n      jumpi\n      pop\n      0x40\n      dup1\n      mload\n      0x1f\n      returndatasize\n      swap1\n      dup2\n      add\n      not(0x1f)\n      and\n      dup3\n      add\n      swap1\n      swap3\n      mstore\n      tag_416\n      swap2\n      dup2\n      add\n      swap1\n      tag_417\n      jump\t// in\n    tag_416:\n      0x01\n    tag_415:\n        /* \"@openzeppelin/contracts-upgradeable/proxy/utils/UUPSUpgradeable.sol\":6152:6589  try IERC1822Proxiable(newImplementation).proxiableUUID() returns (bytes32 slot) {... */\n      tag_418\n      jumpi\n        /* \"@openzeppelin/contracts-upgradeable/proxy/utils/UUPSUpgradeable.sol\":6518:6578  ERC1967Utils.ERC1967InvalidImplementation(newImplementation) */\n      mload(0x40)\n      shl(0xe0, 0x4c9c8ce3)\n      dup2\n      mstore\n      sub(shl(0xa0, 0x01), 0x01)\n        /* \"#utility.yul\":5276:5308   */\n      dup4\n      and\n        /* \"@openzeppelin/contracts-upgradeable/proxy/utils/UUPSUpgradeable.sol\":6518:6578  ERC1967Utils.ERC1967InvalidImplementation(newImplementation) */\n      0x04\n      dup3\n      add\n        /* \"#utility.yul\":5258:5309   */\n      mstore\n        /* \"#utility.yul\":5231:5249   */\n      0x24\n      add\n        /* \"@openzeppelin/contracts-upgradeable/proxy/utils/UUPSUpgradeable.sol\":6518:6578  ERC1967Utils.ERC1967InvalidImplementation(newImplementation) */\n      tag_188\n        /* \"#utility.yul\":5112:5315   */\n      jump\n        /* \"@openzeppelin/contracts-upgradeable/proxy/utils/UUPSUpgradeable.sol\":6152:6589  try IERC1822Proxiable(newImplementation).proxiableUUID() returns (bytes32 slot) {... */\n    tag_418:\n      0x00\n      dup1\n      mload\n      0x20\n      data_75b20eef8615de99c108b05f0dbda081c91897128caa336d75dffb97c4132b4d\n      dup4\n      codecopy\n      dup2\n      mload\n      swap2\n      mstore\n        /* \"@openzeppelin/contracts-upgradeable/proxy/utils/UUPSUpgradeable.sol\":6250:6290  slot != ERC1967Utils.IMPLEMENTATION_SLOT */\n      dup2\n      eq\n        /* \"@openzeppelin/contracts-upgradeable/proxy/utils/UUPSUpgradeable.sol\":6246:6366  if (slot != ERC1967Utils.IMPLEMENTATION_SLOT) {... */\n      tag_424\n      jumpi\n        /* \"@openzeppelin/contracts-upgradeable/proxy/utils/UUPSUpgradeable.sol\":6317:6351  UUPSUnsupportedProxiableUUID(slot) */\n      mload(0x40)\n      shl(0xe2, 0x2a875269)\n      dup2\n      mstore\n      0x04\n      dup2\n      add\n        /* \"#utility.yul\":1610:1635   */\n      dup3\n      swap1\n      mstore\n        /* \"#utility.yul\":1583:1601   */\n      0x24\n      add\n        /* \"@openzeppelin/contracts-upgradeable/proxy/utils/UUPSUpgradeable.sol\":6317:6351  UUPSUnsupportedProxiableUUID(slot) */\n      tag_188\n        /* \"#utility.yul\":1464:1641   */\n      jump\n        /* \"@openzeppelin/contracts-upgradeable/proxy/utils/UUPSUpgradeable.sol\":6246:6366  if (slot != ERC1967Utils.IMPLEMENTATION_SLOT) {... */\n    tag_424:\n        /* \"@openzeppelin/contracts-upgradeable/proxy/utils/UUPSUpgradeable.sol\":6379:6433  ERC1967Utils.upgradeToAndCall(newImplementation, data) */\n      tag_366\n        /* \"@openzeppelin/contracts-upgradeable/proxy/utils/UUPSUpgradeable.sol\":6409:6426  newImplementation */\n      dup4\n        /* \"@openzeppelin/contracts-upgradeable/proxy/utils/UUPSUpgradeable.sol\":6428:6432  data */\n      dup4\n        /* \"@openzeppelin/contracts-upgradeable/proxy/utils/UUPSUpgradeable.sol\":6379:6408  ERC1967Utils.upgradeToAndCall */\n      tag_427\n        /* \"@openzeppelin/contracts-upgradeable/proxy/utils/UUPSUpgradeable.sol\":6379:6433  ERC1967Utils.upgradeToAndCall(newImplementation, data) */\n      jump\t// in\n        /* \"@openzeppelin/contracts-upgradeable/proxy/utils/UUPSUpgradeable.sol\":5032:5245  function _checkNotDelegated() internal view virtual {... */\n    tag_248:\n        /* \"@openzeppelin/contracts-upgradeable/proxy/utils/UUPSUpgradeable.sol\":5106:5110  this */\n      address\n      sub(shl(0xa0, 0x01), 0x01)\n        /* \"@openzeppelin/contracts-upgradeable/proxy/utils/UUPSUpgradeable.sol\":5115:5121  __self */\n      immutable(\"0x0b83f23a4eeb8c3f5f7d5934a2289bcf0186d09a12e1b7f20adf54e4b179db15\")\n        /* \"@openzeppelin/contracts-upgradeable/proxy/utils/UUPSUpgradeable.sol\":5098:5121  address(this) != __self */\n      and\n      eq\n        /* \"@openzeppelin/contracts-upgradeable/proxy/utils/UUPSUpgradeable.sol\":5094:5239  if (address(this) != __self) {... */\n      tag_236\n      jumpi\n        /* \"@openzeppelin/contracts-upgradeable/proxy/utils/UUPSUpgradeable.sol\":5199:5228  UUPSUnauthorizedCallContext() */\n      mload(0x40)\n      shl(0xe1, 0x703e46dd)\n      dup2\n      mstore\n      0x04\n      add\n      mload(0x40)\n      dup1\n      swap2\n      sub\n      swap1\n      revert\n        /* \"@openzeppelin/contracts-upgradeable/access/OwnableUpgradeable.sol\":3774:4022  function _transferOwnership(address newOwner) internal virtual {... */\n    tag_259:\n        /* \"@openzeppelin/contracts-upgradeable/access/OwnableUpgradeable.sol\":1313:1335  OwnableStorageLocation */\n      0x9016d09d72d40fdae2fd8ceac6b6234c7706214fd39c1cd1e609a0528c199300\n        /* \"@openzeppelin/contracts-upgradeable/access/OwnableUpgradeable.sol\":3923:3931  $._owner */\n      dup1\n      sload\n      not(sub(shl(0xa0, 0x01), 0x01))\n        /* \"@openzeppelin/contracts-upgradeable/access/OwnableUpgradeable.sol\":3941:3960  $._owner = newOwner */\n      dup2\n      and\n      sub(shl(0xa0, 0x01), 0x01)\n      dup5\n      dup2\n      and\n      swap2\n      dup3\n      or\n      dup5\n      sstore\n        /* \"@openzeppelin/contracts-upgradeable/access/OwnableUpgradeable.sol\":3975:4015  OwnershipTransferred(oldOwner, newOwner) */\n      mload(0x40)\n        /* \"@openzeppelin/contracts-upgradeable/access/OwnableUpgradeable.sol\":3923:3931  $._owner */\n      swap3\n      and\n      swap2\n      dup3\n      swap1\n        /* \"@openzeppelin/contracts-upgradeable/access/OwnableUpgradeable.sol\":3975:4015  OwnershipTransferred(oldOwner, newOwner) */\n      0x8be0079c531659141344cd1fd0a4f28419497f9722a3daafe3b4186f6b6457e0\n      swap1\n        /* \"@openzeppelin/contracts-upgradeable/access/OwnableUpgradeable.sol\":3847:3871  OwnableStorage storage $ */\n      0x00\n      swap1\n        /* \"@openzeppelin/contracts-upgradeable/access/OwnableUpgradeable.sol\":3975:4015  OwnershipTransferred(oldOwner, newOwner) */\n      log3\n        /* \"@openzeppelin/contracts-upgradeable/access/OwnableUpgradeable.sol\":3837:4022  {... */\n      pop\n      pop\n        /* \"@openzeppelin/contracts-upgradeable/access/OwnableUpgradeable.sol\":3774:4022  function _transferOwnership(address newOwner) internal virtual {... */\n      pop\n      jump\t// out\n        /* \"@openzeppelin/contracts-upgradeable/utils/PausableUpgradeable.sol\":3366:3542  function _pause() internal virtual whenNotPaused {... */\n    tag_264:\n        /* \"@openzeppelin/contracts-upgradeable/utils/PausableUpgradeable.sol\":2316:2335  _requireNotPaused() */\n      tag_434\n        /* \"@openzeppelin/contracts-upgradeable/utils/PausableUpgradeable.sol\":2316:2333  _requireNotPaused */\n      tag_198\n        /* \"@openzeppelin/contracts-upgradeable/utils/PausableUpgradeable.sol\":2316:2335  _requireNotPaused() */\n      jump\t// in\n    tag_434:\n      0x00\n      dup1\n      mload\n      0x20\n      data_c0c65a3718f3702d917c44106b91645b509d2e2d0979b70495c3babce192339f\n      dup4\n      codecopy\n      dup2\n      mload\n      swap2\n      mstore\n        /* \"@openzeppelin/contracts-upgradeable/utils/PausableUpgradeable.sol\":3484:3500  $._paused = true */\n      dup1\n      sload\n      not(0xff)\n      and\n        /* \"@openzeppelin/contracts-upgradeable/utils/PausableUpgradeable.sol\":3496:3500  true */\n      0x01\n        /* \"@openzeppelin/contracts-upgradeable/utils/PausableUpgradeable.sol\":3484:3500  $._paused = true */\n      or\n      dup2\n      sstore\n        /* \"@openzeppelin/contracts-upgradeable/utils/PausableUpgradeable.sol\":3515:3535  Paused(_msgSender()) */\n      0x62e78cea01bee320cd4e420270b5ea74000d11b0c9f74754ebdbfc544b05a258\n        /* \"@openzeppelin/contracts-upgradeable/utils/ContextUpgradeable.sol\":966:976  msg.sender */\n      caller\n        /* \"@openzeppelin/contracts-upgradeable/utils/PausableUpgradeable.sol\":3522:3534  _msgSender() */\n      tag_399\n        /* \"@openzeppelin/contracts-upgradeable/utils/ContextUpgradeable.sol\":887:983  function _msgSender() internal view virtual returns (address) {... */\n      jump\n        /* \"@openzeppelin/contracts-upgradeable/token/ERC20/ERC20Upgradeable.sol\":6605:6905  function _transfer(address from, address to, uint256 value) internal {... */\n    tag_289:\n      sub(shl(0xa0, 0x01), 0x01)\n        /* \"@openzeppelin/contracts-upgradeable/token/ERC20/ERC20Upgradeable.sol\":6688:6706  from == address(0) */\n      dup4\n      and\n        /* \"@openzeppelin/contracts-upgradeable/token/ERC20/ERC20Upgradeable.sol\":6684:6770  if (from == address(0)) {... */\n      tag_440\n      jumpi\n        /* \"@openzeppelin/contracts-upgradeable/token/ERC20/ERC20Upgradeable.sol\":6729:6759  ERC20InvalidSender(address(0)) */\n      mload(0x40)\n      shl(0xe1, 0x4b637e8f)\n      dup2\n      mstore\n        /* \"@openzeppelin/contracts-upgradeable/token/ERC20/ERC20Upgradeable.sol\":6756:6757  0 */\n      0x00\n        /* \"@openzeppelin/contracts-upgradeable/token/ERC20/ERC20Upgradeable.sol\":6729:6759  ERC20InvalidSender(address(0)) */\n      0x04\n      dup3\n      add\n        /* \"#utility.yul\":5258:5309   */\n      mstore\n        /* \"#utility.yul\":5231:5249   */\n      0x24\n      add\n        /* \"@openzeppelin/contracts-upgradeable/token/ERC20/ERC20Upgradeable.sol\":6729:6759  ERC20InvalidSender(address(0)) */\n      tag_188\n        /* \"#utility.yul\":5112:5315   */\n      jump\n        /* \"@openzeppelin/contracts-upgradeable/token/ERC20/ERC20Upgradeable.sol\":6684:6770  if (from == address(0)) {... */\n    tag_440:\n      sub(shl(0xa0, 0x01), 0x01)\n        /* \"@openzeppelin/contracts-upgradeable/token/ERC20/ERC20Upgradeable.sol\":6783:6799  to == address(0) */\n      dup3\n      and\n        /* \"@openzeppelin/contracts-upgradeable/token/ERC20/ERC20Upgradeable.sol\":6779:6865  if (to == address(0)) {... */\n      tag_442\n      jumpi\n        /* \"@openzeppelin/contracts-upgradeable/token/ERC20/ERC20Upgradeable.sol\":6822:6854  ERC20InvalidReceiver(address(0)) */\n      mload(0x40)\n      shl(0xe0, 0xec442f05)\n      dup2\n      mstore\n        /* \"@openzeppelin/contracts-upgradeable/token/ERC20/ERC20Upgradeable.sol\":6851:6852  0 */\n      0x00\n        /* \"@openzeppelin/contracts-upgradeable/token/ERC20/ERC20Upgradeable.sol\":6822:6854  ERC20InvalidReceiver(address(0)) */\n      0x04\n      dup3\n      add\n        /* \"#utility.yul\":5258:5309   */\n      mstore\n        /* \"#utility.yul\":5231:5249   */\n      0x24\n      add\n        /* \"@openzeppelin/contracts-upgradeable/token/ERC20/ERC20Upgradeable.sol\":6822:6854  ERC20InvalidReceiver(address(0)) */\n      tag_188\n        /* \"#utility.yul\":5112:5315   */\n      jump\n        /* \"@openzeppelin/contracts-upgradeable/token/ERC20/ERC20Upgradeable.sol\":6779:6865  if (to == address(0)) {... */\n    tag_442:\n        /* \"@openzeppelin/contracts-upgradeable/token/ERC20/ERC20Upgradeable.sol\":6874:6898  _update(from, to, value) */\n      tag_366\n        /* \"@openzeppelin/contracts-upgradeable/token/ERC20/ERC20Upgradeable.sol\":6882:6886  from */\n      dup4\n        /* \"@openzeppelin/contracts-upgradeable/token/ERC20/ERC20Upgradeable.sol\":6888:6890  to */\n      dup4\n        /* \"@openzeppelin/contracts-upgradeable/token/ERC20/ERC20Upgradeable.sol\":6892:6897  value */\n      dup4\n        /* \"@openzeppelin/contracts-upgradeable/token/ERC20/ERC20Upgradeable.sol\":6874:6881  _update */\n      tag_445\n        /* \"@openzeppelin/contracts-upgradeable/token/ERC20/ERC20Upgradeable.sol\":6874:6898  _update(from, to, value) */\n      jump\t// in\n        /* \"@openzeppelin/contracts-upgradeable/token/ERC20/ERC20Upgradeable.sol\":4472:4650  function transfer(address to, uint256 value) public virtual returns (bool) {... */\n    tag_316:\n        /* \"@openzeppelin/contracts-upgradeable/token/ERC20/ERC20Upgradeable.sol\":4541:4545  bool */\n      0x00\n        /* \"@openzeppelin/contracts-upgradeable/utils/ContextUpgradeable.sol\":966:976  msg.sender */\n      caller\n        /* \"@openzeppelin/contracts-upgradeable/token/ERC20/ERC20Upgradeable.sol\":4595:4622  _transfer(owner, to, value) */\n      tag_181\n        /* \"@openzeppelin/contracts-upgradeable/utils/ContextUpgradeable.sol\":966:976  msg.sender */\n      dup2\n        /* \"@openzeppelin/contracts-upgradeable/token/ERC20/ERC20Upgradeable.sol\":4612:4614  to */\n      dup6\n        /* \"@openzeppelin/contracts-upgradeable/token/ERC20/ERC20Upgradeable.sol\":4616:4621  value */\n      dup6\n        /* \"@openzeppelin/contracts-upgradeable/token/ERC20/ERC20Upgradeable.sol\":4595:4604  _transfer */\n      tag_289\n        /* \"@openzeppelin/contracts-upgradeable/token/ERC20/ERC20Upgradeable.sol\":4595:4622  _transfer(owner, to, value) */\n      jump\t// in\n        /* \"@openzeppelin/contracts-upgradeable/token/ERC20/ERC20Upgradeable.sol\":2282:2429  function __ERC20_init(string memory name_, string memory symbol_) internal onlyInitializing {... */\n    tag_328:\n        /* \"@openzeppelin/contracts-upgradeable/proxy/utils/Initializable.sol\":6931:6951  _checkInitializing() */\n      tag_452\n        /* \"@openzeppelin/contracts-upgradeable/proxy/utils/Initializable.sol\":6931:6949  _checkInitializing */\n      tag_453\n        /* \"@openzeppelin/contracts-upgradeable/proxy/utils/Initializable.sol\":6931:6951  _checkInitializing() */\n      jump\t// in\n    tag_452:\n        /* \"@openzeppelin/contracts-upgradeable/token/ERC20/ERC20Upgradeable.sol\":2384:2422  __ERC20_init_unchained(name_, symbol_) */\n      tag_244\n        /* \"@openzeppelin/contracts-upgradeable/token/ERC20/ERC20Upgradeable.sol\":2407:2412  name_ */\n      dup3\n        /* \"@openzeppelin/contracts-upgradeable/token/ERC20/ERC20Upgradeable.sol\":2414:2421  symbol_ */\n      dup3\n        /* \"@openzeppelin/contracts-upgradeable/token/ERC20/ERC20Upgradeable.sol\":2384:2406  __ERC20_init_unchained */\n      tag_456\n        /* \"@openzeppelin/contracts-upgradeable/token/ERC20/ERC20Upgradeable.sol\":2384:2422  __ERC20_init_unchained(name_, symbol_) */\n      jump\t// in\n        /* \"@openzeppelin/contracts-upgradeable/access/OwnableUpgradeable.sol\":1847:1974  function __Ownable_init(address initialOwner) internal onlyInitializing {... */\n    tag_330:\n        /* \"@openzeppelin/contracts-upgradeable/proxy/utils/Initializable.sol\":6931:6951  _checkInitializing() */\n      tag_458\n        /* \"@openzeppelin/contracts-upgradeable/proxy/utils/Initializable.sol\":6931:6949  _checkInitializing */\n      tag_453\n        /* \"@openzeppelin/contracts-upgradeable/proxy/utils/Initializable.sol\":6931:6951  _checkInitializing() */\n      jump\t// in\n    tag_458:\n        /* \"@openzeppelin/contracts-upgradeable/access/OwnableUpgradeable.sol\":1929:1967  __Ownable_init_unchained(initialOwner) */\n      tag_231\n        /* \"@openzeppelin/contracts-upgradeable/access/OwnableUpgradeable.sol\":1954:1966  initialOwner */\n      dup2\n        /* \"@openzeppelin/contracts-upgradeable/access/OwnableUpgradeable.sol\":1929:1953  __Ownable_init_unchained */\n      tag_461\n        /* \"@openzeppelin/contracts-upgradeable/access/OwnableUpgradeable.sol\":1929:1967  __Ownable_init_unchained(initialOwner) */\n      jump\t// in\n        /* \"@openzeppelin/contracts-upgradeable/utils/PausableUpgradeable.sol\":1836:1933  function __Pausable_init() internal onlyInitializing {... */\n    tag_332:\n        /* \"@openzeppelin/contracts-upgradeable/proxy/utils/Initializable.sol\":6931:6951  _checkInitializing() */\n      tag_463\n        /* \"@openzeppelin/contracts-upgradeable/proxy/utils/Initializable.sol\":6931:6949  _checkInitializing */\n      tag_453\n        /* \"@openzeppelin/contracts-upgradeable/proxy/utils/Initializable.sol\":6931:6951  _checkInitializing() */\n      jump\t// in\n    tag_463:\n        /* \"@openzeppelin/contracts-upgradeable/utils/PausableUpgradeable.sol\":1899:1926  __Pausable_init_unchained() */\n      tag_236\n        /* \"@openzeppelin/contracts-upgradeable/utils/PausableUpgradeable.sol\":1899:1924  __Pausable_init_unchained */\n      tag_466\n        /* \"@openzeppelin/contracts-upgradeable/utils/PausableUpgradeable.sol\":1899:1926  __Pausable_init_unchained() */\n      jump\t// in\n        /* \"@openzeppelin/contracts-upgradeable/proxy/utils/UUPSUpgradeable.sol\":2970:3037  function __UUPSUpgradeable_init() internal onlyInitializing {... */\n    tag_334:\n        /* \"@openzeppelin/contracts-upgradeable/proxy/utils/Initializable.sol\":6931:6951  _checkInitializing() */\n      tag_236\n        /* \"@openzeppelin/contracts-upgradeable/proxy/utils/Initializable.sol\":6931:6949  _checkInitializing */\n      tag_453\n        /* \"@openzeppelin/contracts-upgradeable/proxy/utils/Initializable.sol\":6931:6951  _checkInitializing() */\n      jump\t// in\n        /* \"@openzeppelin/contracts-upgradeable/token/ERC20/ERC20Upgradeable.sol\":8733:8941  function _mint(address account, uint256 value) internal {... */\n    tag_336:\n      sub(shl(0xa0, 0x01), 0x01)\n        /* \"@openzeppelin/contracts-upgradeable/token/ERC20/ERC20Upgradeable.sol\":8803:8824  account == address(0) */\n      dup3\n      and\n        /* \"@openzeppelin/contracts-upgradeable/token/ERC20/ERC20Upgradeable.sol\":8799:8890  if (account == address(0)) {... */\n      tag_471\n      jumpi\n        /* \"@openzeppelin/contracts-upgradeable/token/ERC20/ERC20Upgradeable.sol\":8847:8879  ERC20InvalidReceiver(address(0)) */\n      mload(0x40)\n      shl(0xe0, 0xec442f05)\n      dup2\n      mstore\n        /* \"@openzeppelin/contracts-upgradeable/token/ERC20/ERC20Upgradeable.sol\":8876:8877  0 */\n      0x00\n        /* \"@openzeppelin/contracts-upgradeable/token/ERC20/ERC20Upgradeable.sol\":8847:8879  ERC20InvalidReceiver(address(0)) */\n      0x04\n      dup3\n      add\n        /* \"#utility.yul\":5258:5309   */\n      mstore\n        /* \"#utility.yul\":5231:5249   */\n      0x24\n      add\n        /* \"@openzeppelin/contracts-upgradeable/token/ERC20/ERC20Upgradeable.sol\":8847:8879  ERC20InvalidReceiver(address(0)) */\n      tag_188\n        /* \"#utility.yul\":5112:5315   */\n      jump\n        /* \"@openzeppelin/contracts-upgradeable/token/ERC20/ERC20Upgradeable.sol\":8799:8890  if (account == address(0)) {... */\n    tag_471:\n        /* \"@openzeppelin/contracts-upgradeable/token/ERC20/ERC20Upgradeable.sol\":8899:8934  _update(address(0), account, value) */\n      tag_244\n        /* \"@openzeppelin/contracts-upgradeable/token/ERC20/ERC20Upgradeable.sol\":8915:8916  0 */\n      0x00\n        /* \"@openzeppelin/contracts-upgradeable/token/ERC20/ERC20Upgradeable.sol\":8919:8926  account */\n      dup4\n        /* \"@openzeppelin/contracts-upgradeable/token/ERC20/ERC20Upgradeable.sol\":8928:8933  value */\n      dup4\n        /* \"@openzeppelin/contracts-upgradeable/token/ERC20/ERC20Upgradeable.sol\":8899:8906  _update */\n      tag_445\n        /* \"@openzeppelin/contracts-upgradeable/token/ERC20/ERC20Upgradeable.sol\":8899:8934  _update(address(0), account, value) */\n      jump\t// in\n        /* \"@openzeppelin/contracts-upgradeable/token/ERC20/ERC20Upgradeable.sol\":10976:11463  function _approve(address owner, address spender, uint256 value, bool emitEvent) internal virtual {... */\n    tag_372:\n      0x00\n      dup1\n      mload\n      0x20\n      data_3874827173e8df9f34323b12b251d1d3c53926ce129e30a0d69f1d47c277041b\n      dup4\n      codecopy\n      dup2\n      mload\n      swap2\n      mstore\n      sub(shl(0xa0, 0x01), 0x01)\n        /* \"@openzeppelin/contracts-upgradeable/token/ERC20/ERC20Upgradeable.sol\":11141:11160  owner == address(0) */\n      dup6\n      and\n        /* \"@openzeppelin/contracts-upgradeable/token/ERC20/ERC20Upgradeable.sol\":11137:11226  if (owner == address(0)) {... */\n      tag_476\n      jumpi\n        /* \"@openzeppelin/contracts-upgradeable/token/ERC20/ERC20Upgradeable.sol\":11183:11215  ERC20InvalidApprover(address(0)) */\n      mload(0x40)\n      shl(0xe0, 0xe602df05)\n      dup2\n      mstore\n        /* \"@openzeppelin/contracts-upgradeable/token/ERC20/ERC20Upgradeable.sol\":11212:11213  0 */\n      0x00\n        /* \"@openzeppelin/contracts-upgradeable/token/ERC20/ERC20Upgradeable.sol\":11183:11215  ERC20InvalidApprover(address(0)) */\n      0x04\n      dup3\n      add\n        /* \"#utility.yul\":5258:5309   */\n      mstore\n        /* \"#utility.yul\":5231:5249   */\n      0x24\n      add\n        /* \"@openzeppelin/contracts-upgradeable/token/ERC20/ERC20Upgradeable.sol\":11183:11215  ERC20InvalidApprover(address(0)) */\n      tag_188\n        /* \"#utility.yul\":5112:5315   */\n      jump\n        /* \"@openzeppelin/contracts-upgradeable/token/ERC20/ERC20Upgradeable.sol\":11137:11226  if (owner == address(0)) {... */\n    tag_476:\n      sub(shl(0xa0, 0x01), 0x01)\n        /* \"@openzeppelin/contracts-upgradeable/token/ERC20/ERC20Upgradeable.sol\":11239:11260  spender == address(0) */\n      dup5\n      and\n        /* \"@openzeppelin/contracts-upgradeable/token/ERC20/ERC20Upgradeable.sol\":11235:11325  if (spender == address(0)) {... */\n      tag_478\n      jumpi\n        /* \"@openzeppelin/contracts-upgradeable/token/ERC20/ERC20Upgradeable.sol\":11283:11314  ERC20InvalidSpender(address(0)) */\n      mload(0x40)\n      shl(0xe1, 0x4a1406b1)\n      dup2\n      mstore\n        /* \"@openzeppelin/contracts-upgradeable/token/ERC20/ERC20Upgradeable.sol\":11311:11312  0 */\n      0x00\n        /* \"@openzeppelin/contracts-upgradeable/token/ERC20/ERC20Upgradeable.sol\":11283:11314  ERC20InvalidSpender(address(0)) */\n      0x04\n      dup3\n      add\n        /* \"#utility.yul\":5258:5309   */\n      mstore\n        /* \"#utility.yul\":5231:5249   */\n      0x24\n      add\n        /* \"@openzeppelin/contracts-upgradeable/token/ERC20/ERC20Upgradeable.sol\":11283:11314  ERC20InvalidSpender(address(0)) */\n      tag_188\n        /* \"#utility.yul\":5112:5315   */\n      jump\n        /* \"@openzeppelin/contracts-upgradeable/token/ERC20/ERC20Upgradeable.sol\":11235:11325  if (spender == address(0)) {... */\n    tag_478:\n      sub(shl(0xa0, 0x01), 0x01)\n        /* \"@openzeppelin/contracts-upgradeable/token/ERC20/ERC20Upgradeable.sol\":11334:11354  $._allowances[owner] */\n      dup1\n      dup7\n      and\n      0x00\n      swap1\n      dup2\n      mstore\n        /* \"@openzeppelin/contracts-upgradeable/token/ERC20/ERC20Upgradeable.sol\":11334:11347  $._allowances */\n      0x01\n      dup4\n      add\n        /* \"@openzeppelin/contracts-upgradeable/token/ERC20/ERC20Upgradeable.sol\":11334:11354  $._allowances[owner] */\n      0x20\n      swap1\n      dup2\n      mstore\n      0x40\n      dup1\n      dup4\n      keccak256\n        /* \"@openzeppelin/contracts-upgradeable/token/ERC20/ERC20Upgradeable.sol\":11334:11363  $._allowances[owner][spender] */\n      swap4\n      dup9\n      and\n      dup4\n      mstore\n      swap3\n      swap1\n      mstore\n      keccak256\n        /* \"@openzeppelin/contracts-upgradeable/token/ERC20/ERC20Upgradeable.sol\":11334:11371  $._allowances[owner][spender] = value */\n      dup4\n      swap1\n      sstore\n        /* \"@openzeppelin/contracts-upgradeable/token/ERC20/ERC20Upgradeable.sol\":11381:11457  if (emitEvent) {... */\n      dup2\n      iszero\n      tag_480\n      jumpi\n        /* \"@openzeppelin/contracts-upgradeable/token/ERC20/ERC20Upgradeable.sol\":11431:11438  spender */\n      dup4\n      sub(shl(0xa0, 0x01), 0x01)\n        /* \"@openzeppelin/contracts-upgradeable/token/ERC20/ERC20Upgradeable.sol\":11415:11446  Approval(owner, spender, value) */\n      and\n        /* \"@openzeppelin/contracts-upgradeable/token/ERC20/ERC20Upgradeable.sol\":11424:11429  owner */\n      dup6\n      sub(shl(0xa0, 0x01), 0x01)\n        /* \"@openzeppelin/contracts-upgradeable/token/ERC20/ERC20Upgradeable.sol\":11415:11446  Approval(owner, spender, value) */\n      and\n      0x8c5be1e5ebec7d5bd14f71427d1e84f3dd0314c0f7b2291e5b200ac8c7c3b925\n        /* \"@openzeppelin/contracts-upgradeable/token/ERC20/ERC20Upgradeable.sol\":11440:11445  value */\n      dup6\n        /* \"@openzeppelin/contracts-upgradeable/token/ERC20/ERC20Upgradeable.sol\":11415:11446  Approval(owner, spender, value) */\n      mload(0x40)\n      tag_481\n      swap2\n        /* \"#utility.yul\":1610:1635   */\n      dup2\n      mstore\n        /* \"#utility.yul\":1598:1600   */\n      0x20\n        /* \"#utility.yul\":1583:1601   */\n      add\n      swap1\n        /* \"#utility.yul\":1464:1641   */\n      jump\n        /* \"@openzeppelin/contracts-upgradeable/token/ERC20/ERC20Upgradeable.sol\":11415:11446  Approval(owner, spender, value) */\n    tag_481:\n      mload(0x40)\n      dup1\n      swap2\n      sub\n      swap1\n      log3\n        /* \"@openzeppelin/contracts-upgradeable/token/ERC20/ERC20Upgradeable.sol\":11381:11457  if (emitEvent) {... */\n    tag_480:\n        /* \"@openzeppelin/contracts-upgradeable/token/ERC20/ERC20Upgradeable.sol\":11074:11463  {... */\n      pop\n        /* \"@openzeppelin/contracts-upgradeable/token/ERC20/ERC20Upgradeable.sol\":10976:11463  function _approve(address owner, address spender, uint256 value, bool emitEvent) internal virtual {... */\n      pop\n      pop\n      pop\n      pop\n      jump\t// out\n        /* \"@openzeppelin/contracts-upgradeable/token/ERC20/ERC20Upgradeable.sol\":11745:12222  function _spendAllowance(address owner, address spender, uint256 value) internal virtual {... */\n    tag_389:\n        /* \"@openzeppelin/contracts-upgradeable/token/ERC20/ERC20Upgradeable.sol\":11844:11868  uint256 currentAllowance */\n      0x00\n        /* \"@openzeppelin/contracts-upgradeable/token/ERC20/ERC20Upgradeable.sol\":11871:11896  allowance(owner, spender) */\n      tag_484\n        /* \"@openzeppelin/contracts-upgradeable/token/ERC20/ERC20Upgradeable.sol\":11881:11886  owner */\n      dup5\n        /* \"@openzeppelin/contracts-upgradeable/token/ERC20/ERC20Upgradeable.sol\":11888:11895  spender */\n      dup5\n        /* \"@openzeppelin/contracts-upgradeable/token/ERC20/ERC20Upgradeable.sol\":11871:11880  allowance */\n      tag_153\n        /* \"@openzeppelin/contracts-upgradeable/token/ERC20/ERC20Upgradeable.sol\":11871:11896  allowance(owner, spender) */\n      jump\t// in\n    tag_484:\n        /* \"@openzeppelin/contracts-upgradeable/token/ERC20/ERC20Upgradeable.sol\":11844:11896  uint256 currentAllowance = allowance(owner, spender) */\n      swap1\n      pop\n      not(0x00)\n        /* \"@openzeppelin/contracts-upgradeable/token/ERC20/ERC20Upgradeable.sol\":11910:11926  currentAllowance */\n      dup2\n        /* \"@openzeppelin/contracts-upgradeable/token/ERC20/ERC20Upgradeable.sol\":11910:11947  currentAllowance != type(uint256).max */\n      eq\n        /* \"@openzeppelin/contracts-upgradeable/token/ERC20/ERC20Upgradeable.sol\":11906:12216  if (currentAllowance != type(uint256).max) {... */\n      tag_290\n      jumpi\n        /* \"@openzeppelin/contracts-upgradeable/token/ERC20/ERC20Upgradeable.sol\":11986:11991  value */\n      dup2\n        /* \"@openzeppelin/contracts-upgradeable/token/ERC20/ERC20Upgradeable.sol\":11967:11983  currentAllowance */\n      dup2\n        /* \"@openzeppelin/contracts-upgradeable/token/ERC20/ERC20Upgradeable.sol\":11967:11991  currentAllowance < value */\n      lt\n        /* \"@openzeppelin/contracts-upgradeable/token/ERC20/ERC20Upgradeable.sol\":11963:12093  if (currentAllowance < value) {... */\n      iszero\n      tag_486\n      jumpi\n        /* \"@openzeppelin/contracts-upgradeable/token/ERC20/ERC20Upgradeable.sol\":12018:12078  ERC20InsufficientAllowance(spender, currentAllowance, value) */\n      mload(0x40)\n      shl(0xe1, 0x7dc7a0d9)\n      dup2\n      mstore\n      sub(shl(0xa0, 0x01), 0x01)\n        /* \"#utility.yul\":12081:12113   */\n      dup5\n      and\n        /* \"@openzeppelin/contracts-upgradeable/token/ERC20/ERC20Upgradeable.sol\":12018:12078  ERC20InsufficientAllowance(spender, currentAllowance, value) */\n      0x04\n      dup3\n      add\n        /* \"#utility.yul\":12063:12114   */\n      mstore\n        /* \"#utility.yul\":12130:12148   */\n      0x24\n      dup2\n      add\n        /* \"#utility.yul\":12123:12157   */\n      dup3\n      swap1\n      mstore\n        /* \"#utility.yul\":12173:12191   */\n      0x44\n      dup2\n      add\n        /* \"#utility.yul\":12166:12200   */\n      dup4\n      swap1\n      mstore\n        /* \"#utility.yul\":12036:12054   */\n      0x64\n      add\n        /* \"@openzeppelin/contracts-upgradeable/token/ERC20/ERC20Upgradeable.sol\":12018:12078  ERC20InsufficientAllowance(spender, currentAllowance, value) */\n      tag_188\n        /* \"#utility.yul\":11861:12206   */\n      jump\n        /* \"@openzeppelin/contracts-upgradeable/token/ERC20/ERC20Upgradeable.sol\":11963:12093  if (currentAllowance < value) {... */\n    tag_486:\n        /* \"@openzeppelin/contracts-upgradeable/token/ERC20/ERC20Upgradeable.sol\":12134:12191  _approve(owner, spender, currentAllowance - value, false) */\n      tag_290\n        /* \"@openzeppelin/contracts-upgradeable/token/ERC20/ERC20Upgradeable.sol\":12143:12148  owner */\n      dup5\n        /* \"@openzeppelin/contracts-upgradeable/token/ERC20/ERC20Upgradeable.sol\":12150:12157  spender */\n      dup5\n        /* \"@openzeppelin/contracts-upgradeable/token/ERC20/ERC20Upgradeable.sol\":12178:12183  value */\n      dup5\n        /* \"@openzeppelin/contracts-upgradeable/token/ERC20/ERC20Upgradeable.sol\":12159:12175  currentAllowance */\n      dup5\n        /* \"@openzeppelin/contracts-upgradeable/token/ERC20/ERC20Upgradeable.sol\":12159:12183  currentAllowance - value */\n      sub\n        /* \"@openzeppelin/contracts-upgradeable/token/ERC20/ERC20Upgradeable.sol\":12185:12190  false */\n      0x00\n        /* \"@openzeppelin/contracts-upgradeable/token/ERC20/ERC20Upgradeable.sol\":12134:12142  _approve */\n      tag_372\n        /* \"@openzeppelin/contracts-upgradeable/token/ERC20/ERC20Upgradeable.sol\":12134:12191  _approve(owner, spender, currentAllowance - value, false) */\n      jump\t// in\n        /* \"@openzeppelin/contracts-upgradeable/utils/PausableUpgradeable.sol\":3105:3231  function _requirePaused() internal view virtual {... */\n    tag_396:\n      0x00\n      dup1\n      mload\n      0x20\n      data_c0c65a3718f3702d917c44106b91645b509d2e2d0979b70495c3babce192339f\n      dup4\n      codecopy\n      dup2\n      mload\n      swap2\n      mstore\n        /* \"@openzeppelin/contracts-upgradeable/utils/PausableUpgradeable.sol\":2821:2830  $._paused */\n      sload\n      0xff\n      and\n        /* \"@openzeppelin/contracts-upgradeable/utils/PausableUpgradeable.sol\":3163:3225  if (!paused()) {... */\n      tag_236\n      jumpi\n        /* \"@openzeppelin/contracts-upgradeable/utils/PausableUpgradeable.sol\":3199:3214  ExpectedPause() */\n      mload(0x40)\n      shl(0xe0, 0x8dfc202b)\n      dup2\n      mstore\n      0x04\n      add\n      mload(0x40)\n      dup1\n      swap2\n      sub\n      swap1\n      revert\n        /* \"@openzeppelin/contracts/proxy/ERC1967/ERC1967Utils.sol\":2264:2608  function upgradeToAndCall(address newImplementation, bytes memory data) internal {... */\n    tag_427:\n        /* \"@openzeppelin/contracts/proxy/ERC1967/ERC1967Utils.sol\":2355:2392  _setImplementation(newImplementation) */\n      tag_497\n        /* \"@openzeppelin/contracts/proxy/ERC1967/ERC1967Utils.sol\":2374:2391  newImplementation */\n      dup3\n        /* \"@openzeppelin/contracts/proxy/ERC1967/ERC1967Utils.sol\":2355:2373  _setImplementation */\n      tag_498\n        /* \"@openzeppelin/contracts/proxy/ERC1967/ERC1967Utils.sol\":2355:2392  _setImplementation(newImplementation) */\n      jump\t// in\n    tag_497:\n        /* \"@openzeppelin/contracts/proxy/ERC1967/ERC1967Utils.sol\":2407:2443  IERC1967.Upgraded(newImplementation) */\n      mload(0x40)\n      sub(shl(0xa0, 0x01), 0x01)\n      dup4\n      and\n      swap1\n      0xbc7cd75a20ee27fd9adebab32041f755214dbc6bffa90cc0225b39da2e5c2d3b\n      swap1\n      0x00\n      swap1\n      log2\n        /* \"@openzeppelin/contracts/proxy/ERC1967/ERC1967Utils.sol\":2458:2469  data.length */\n      dup1\n      mload\n        /* \"@openzeppelin/contracts/proxy/ERC1967/ERC1967Utils.sol\":2458:2473  data.length > 0 */\n      iszero\n        /* \"@openzeppelin/contracts/proxy/ERC1967/ERC1967Utils.sol\":2454:2602  if (data.length > 0) {... */\n      tag_499\n      jumpi\n        /* \"@openzeppelin/contracts/proxy/ERC1967/ERC1967Utils.sol\":2489:2542  Address.functionDelegateCall(newImplementation, data) */\n      tag_366\n        /* \"@openzeppelin/contracts/proxy/ERC1967/ERC1967Utils.sol\":2518:2535  newImplementation */\n      dup3\n        /* \"@openzeppelin/contracts/proxy/ERC1967/ERC1967Utils.sol\":2537:2541  data */\n      dup3\n        /* \"@openzeppelin/contracts/proxy/ERC1967/ERC1967Utils.sol\":2489:2517  Address.functionDelegateCall */\n      tag_501\n        /* \"@openzeppelin/contracts/proxy/ERC1967/ERC1967Utils.sol\":2489:2542  Address.functionDelegateCall(newImplementation, data) */\n      jump\t// in\n        /* \"@openzeppelin/contracts/proxy/ERC1967/ERC1967Utils.sol\":2454:2602  if (data.length > 0) {... */\n    tag_499:\n        /* \"@openzeppelin/contracts/proxy/ERC1967/ERC1967Utils.sol\":2573:2591  _checkNonPayable() */\n      tag_244\n        /* \"@openzeppelin/contracts/proxy/ERC1967/ERC1967Utils.sol\":2573:2589  _checkNonPayable */\n      tag_504\n        /* \"@openzeppelin/contracts/proxy/ERC1967/ERC1967Utils.sol\":2573:2591  _checkNonPayable() */\n      jump\t// in\n        /* \"@openzeppelin/contracts-upgradeable/token/ERC20/ERC20Upgradeable.sol\":7220:8390  function _update(address from, address to, uint256 value) internal virtual {... */\n    tag_445:\n      0x00\n      dup1\n      mload\n      0x20\n      data_3874827173e8df9f34323b12b251d1d3c53926ce129e30a0d69f1d47c277041b\n      dup4\n      codecopy\n      dup2\n      mload\n      swap2\n      mstore\n      sub(shl(0xa0, 0x01), 0x01)\n        /* \"@openzeppelin/contracts-upgradeable/token/ERC20/ERC20Upgradeable.sol\":7362:7380  from == address(0) */\n      dup5\n      and\n        /* \"@openzeppelin/contracts-upgradeable/token/ERC20/ERC20Upgradeable.sol\":7358:7904  if (from == address(0)) {... */\n      tag_507\n      jumpi\n        /* \"@openzeppelin/contracts-upgradeable/token/ERC20/ERC20Upgradeable.sol\":7516:7521  value */\n      dup2\n        /* \"@openzeppelin/contracts-upgradeable/token/ERC20/ERC20Upgradeable.sol\":7498:7499  $ */\n      dup2\n        /* \"@openzeppelin/contracts-upgradeable/token/ERC20/ERC20Upgradeable.sol\":7498:7512  $._totalSupply */\n      0x02\n      add\n      0x00\n        /* \"@openzeppelin/contracts-upgradeable/token/ERC20/ERC20Upgradeable.sol\":7498:7521  $._totalSupply += value */\n      dup3\n      dup3\n      sload\n      tag_508\n      swap2\n      swap1\n      tag_509\n      jump\t// in\n    tag_508:\n      swap1\n      swap2\n      sstore\n      pop\n        /* \"@openzeppelin/contracts-upgradeable/token/ERC20/ERC20Upgradeable.sol\":7358:7904  if (from == address(0)) {... */\n      tag_510\n      swap1\n      pop\n      jump\n    tag_507:\n      sub(shl(0xa0, 0x01), 0x01)\n        /* \"@openzeppelin/contracts-upgradeable/token/ERC20/ERC20Upgradeable.sol\":7574:7591  $._balances[from] */\n      dup5\n      and\n        /* \"@openzeppelin/contracts-upgradeable/token/ERC20/ERC20Upgradeable.sol\":7552:7571  uint256 fromBalance */\n      0x00\n        /* \"@openzeppelin/contracts-upgradeable/token/ERC20/ERC20Upgradeable.sol\":7574:7591  $._balances[from] */\n      swap1\n      dup2\n      mstore\n      0x20\n      dup3\n      swap1\n      mstore\n      0x40\n      swap1\n      keccak256\n      sload\n        /* \"@openzeppelin/contracts-upgradeable/token/ERC20/ERC20Upgradeable.sol\":7609:7628  fromBalance < value */\n      dup3\n      dup2\n      lt\n        /* \"@openzeppelin/contracts-upgradeable/token/ERC20/ERC20Upgradeable.sol\":7605:7720  if (fromBalance < value) {... */\n      iszero\n      tag_511\n      jumpi\n        /* \"@openzeppelin/contracts-upgradeable/token/ERC20/ERC20Upgradeable.sol\":7655:7705  ERC20InsufficientBalance(from, fromBalance, value) */\n      mload(0x40)\n      shl(0xe2, 0x391434e3)\n      dup2\n      mstore\n      sub(shl(0xa0, 0x01), 0x01)\n        /* \"#utility.yul\":12081:12113   */\n      dup7\n      and\n        /* \"@openzeppelin/contracts-upgradeable/token/ERC20/ERC20Upgradeable.sol\":7655:7705  ERC20InsufficientBalance(from, fromBalance, value) */\n      0x04\n      dup3\n      add\n        /* \"#utility.yul\":12063:12114   */\n      mstore\n        /* \"#utility.yul\":12130:12148   */\n      0x24\n      dup2\n      add\n        /* \"#utility.yul\":12123:12157   */\n      dup3\n      swap1\n      mstore\n        /* \"#utility.yul\":12173:12191   */\n      0x44\n      dup2\n      add\n        /* \"#utility.yul\":12166:12200   */\n      dup5\n      swap1\n      mstore\n        /* \"#utility.yul\":12036:12054   */\n      0x64\n      add\n        /* \"@openzeppelin/contracts-upgradeable/token/ERC20/ERC20Upgradeable.sol\":7655:7705  ERC20InsufficientBalance(from, fromBalance, value) */\n      tag_188\n        /* \"#utility.yul\":11861:12206   */\n      jump\n        /* \"@openzeppelin/contracts-upgradeable/token/ERC20/ERC20Upgradeable.sol\":7605:7720  if (fromBalance < value) {... */\n    tag_511:\n      sub(shl(0xa0, 0x01), 0x01)\n        /* \"@openzeppelin/contracts-upgradeable/token/ERC20/ERC20Upgradeable.sol\":7840:7857  $._balances[from] */\n      dup6\n      and\n        /* \"@openzeppelin/contracts-upgradeable/token/ERC20/ERC20Upgradeable.sol\":7840:7851  $._balances */\n      0x00\n        /* \"@openzeppelin/contracts-upgradeable/token/ERC20/ERC20Upgradeable.sol\":7840:7857  $._balances[from] */\n      swap1\n      dup2\n      mstore\n      0x20\n      dup4\n      swap1\n      mstore\n      0x40\n      swap1\n      keccak256\n        /* \"@openzeppelin/contracts-upgradeable/token/ERC20/ERC20Upgradeable.sol\":7860:7879  fromBalance - value */\n      swap1\n      dup4\n      swap1\n      sub\n        /* \"@openzeppelin/contracts-upgradeable/token/ERC20/ERC20Upgradeable.sol\":7840:7879  $._balances[from] = fromBalance - value */\n      swap1\n      sstore\n        /* \"@openzeppelin/contracts-upgradeable/token/ERC20/ERC20Upgradeable.sol\":7358:7904  if (from == address(0)) {... */\n    tag_510:\n      sub(shl(0xa0, 0x01), 0x01)\n        /* \"@openzeppelin/contracts-upgradeable/token/ERC20/ERC20Upgradeable.sol\":7918:7934  to == address(0) */\n      dup4\n      and\n        /* \"@openzeppelin/contracts-upgradeable/token/ERC20/ERC20Upgradeable.sol\":7914:8343  if (to == address(0)) {... */\n      tag_513\n      jumpi\n        /* \"@openzeppelin/contracts-upgradeable/token/ERC20/ERC20Upgradeable.sol\":8081:8095  $._totalSupply */\n      0x02\n      dup2\n      add\n        /* \"@openzeppelin/contracts-upgradeable/token/ERC20/ERC20Upgradeable.sol\":8081:8104  $._totalSupply -= value */\n      dup1\n      sload\n      dup4\n      swap1\n      sub\n      swap1\n      sstore\n        /* \"@openzeppelin/contracts-upgradeable/token/ERC20/ERC20Upgradeable.sol\":7914:8343  if (to == address(0)) {... */\n      jump(tag_514)\n    tag_513:\n      sub(shl(0xa0, 0x01), 0x01)\n        /* \"@openzeppelin/contracts-upgradeable/token/ERC20/ERC20Upgradeable.sol\":8294:8309  $._balances[to] */\n      dup4\n      and\n        /* \"@openzeppelin/contracts-upgradeable/token/ERC20/ERC20Upgradeable.sol\":8294:8305  $._balances */\n      0x00\n        /* \"@openzeppelin/contracts-upgradeable/token/ERC20/ERC20Upgradeable.sol\":8294:8309  $._balances[to] */\n      swap1\n      dup2\n      mstore\n      0x20\n      dup3\n      swap1\n      mstore\n      0x40\n      swap1\n      keccak256\n        /* \"@openzeppelin/contracts-upgradeable/token/ERC20/ERC20Upgradeable.sol\":8294:8318  $._balances[to] += value */\n      dup1\n      sload\n      dup4\n      add\n      swap1\n      sstore\n        /* \"@openzeppelin/contracts-upgradeable/token/ERC20/ERC20Upgradeable.sol\":7914:8343  if (to == address(0)) {... */\n    tag_514:\n        /* \"@openzeppelin/contracts-upgradeable/token/ERC20/ERC20Upgradeable.sol\":8373:8375  to */\n      dup3\n      sub(shl(0xa0, 0x01), 0x01)\n        /* \"@openzeppelin/contracts-upgradeable/token/ERC20/ERC20Upgradeable.sol\":8358:8383  Transfer(from, to, value) */\n      and\n        /* \"@openzeppelin/contracts-upgradeable/token/ERC20/ERC20Upgradeable.sol\":8367:8371  from */\n      dup5\n      sub(shl(0xa0, 0x01), 0x01)\n        /* \"@openzeppelin/contracts-upgradeable/token/ERC20/ERC20Upgradeable.sol\":8358:8383  Transfer(from, to, value) */\n      and\n      0xddf252ad1be2c89b69c2b068fc378daa952ba7f163c4a11628f55a4df523b3ef\n        /* \"@openzeppelin/contracts-upgradeable/token/ERC20/ERC20Upgradeable.sol\":8377:8382  value */\n      dup5\n        /* \"@openzeppelin/contracts-upgradeable/token/ERC20/ERC20Upgradeable.sol\":8358:8383  Transfer(from, to, value) */\n      mload(0x40)\n      tag_515\n      swap2\n        /* \"#utility.yul\":1610:1635   */\n      dup2\n      mstore\n        /* \"#utility.yul\":1598:1600   */\n      0x20\n        /* \"#utility.yul\":1583:1601   */\n      add\n      swap1\n        /* \"#utility.yul\":1464:1641   */\n      jump\n        /* \"@openzeppelin/contracts-upgradeable/token/ERC20/ERC20Upgradeable.sol\":8358:8383  Transfer(from, to, value) */\n    tag_515:\n      mload(0x40)\n      dup1\n      swap2\n      sub\n      swap1\n      log3\n        /* \"@openzeppelin/contracts-upgradeable/token/ERC20/ERC20Upgradeable.sol\":7295:8390  {... */\n      pop\n        /* \"@openzeppelin/contracts-upgradeable/token/ERC20/ERC20Upgradeable.sol\":7220:8390  function _update(address from, address to, uint256 value) internal virtual {... */\n      pop\n      pop\n      pop\n      jump\t// out\n        /* \"@openzeppelin/contracts-upgradeable/proxy/utils/Initializable.sol\":7084:7225  function _checkInitializing() internal view virtual {... */\n    tag_453:\n        /* \"@openzeppelin/contracts-upgradeable/proxy/utils/Initializable.sol\":8870:8891  INITIALIZABLE_STORAGE */\n      0xf0c57e16840df040f15088dc2f81fe391c3923bec73e23a9662efc9c229c6a00\n        /* \"@openzeppelin/contracts-upgradeable/proxy/utils/Initializable.sol\":8560:8600  _getInitializableStorage()._initializing */\n      sload\n      shl(0x40, 0x01)\n      swap1\n      div\n      0xff\n      and\n        /* \"@openzeppelin/contracts-upgradeable/proxy/utils/Initializable.sol\":7146:7219  if (!_isInitializing()) {... */\n      tag_236\n      jumpi\n        /* \"@openzeppelin/contracts-upgradeable/proxy/utils/Initializable.sol\":7191:7208  NotInitializing() */\n      mload(0x40)\n      shl(0xe3, 0x1afcd79f)\n      dup2\n      mstore\n      0x04\n      add\n      mload(0x40)\n      dup1\n      swap2\n      sub\n      swap1\n      revert\n        /* \"@openzeppelin/contracts-upgradeable/token/ERC20/ERC20Upgradeable.sol\":2435:2651  function __ERC20_init_unchained(string memory name_, string memory symbol_) internal onlyInitializing {... */\n    tag_456:\n        /* \"@openzeppelin/contracts-upgradeable/proxy/utils/Initializable.sol\":6931:6951  _checkInitializing() */\n      tag_521\n        /* \"@openzeppelin/contracts-upgradeable/proxy/utils/Initializable.sol\":6931:6949  _checkInitializing */\n      tag_453\n        /* \"@openzeppelin/contracts-upgradeable/proxy/utils/Initializable.sol\":6931:6951  _checkInitializing() */\n      jump\t// in\n    tag_521:\n      0x00\n      dup1\n      mload\n      0x20\n      data_3874827173e8df9f34323b12b251d1d3c53926ce129e30a0d69f1d47c277041b\n      dup4\n      codecopy\n      dup2\n      mload\n      swap2\n      mstore\n        /* \"@openzeppelin/contracts-upgradeable/token/ERC20/ERC20Upgradeable.sol\":2600:2607  $._name */\n      0x52c63247e1f47db19d5ce0460030c497f067ca4cebf71ba98eeadabe20bace03\n        /* \"@openzeppelin/contracts-upgradeable/token/ERC20/ERC20Upgradeable.sol\":2600:2615  $._name = name_ */\n      tag_524\n        /* \"@openzeppelin/contracts-upgradeable/token/ERC20/ERC20Upgradeable.sol\":2610:2615  name_ */\n      dup5\n        /* \"@openzeppelin/contracts-upgradeable/token/ERC20/ERC20Upgradeable.sol\":2600:2607  $._name */\n      dup3\n        /* \"@openzeppelin/contracts-upgradeable/token/ERC20/ERC20Upgradeable.sol\":2600:2615  $._name = name_ */\n      tag_525\n      jump\t// in\n    tag_524:\n      pop\n        /* \"@openzeppelin/contracts-upgradeable/token/ERC20/ERC20Upgradeable.sol\":2625:2634  $._symbol */\n      0x04\n      dup2\n      add\n        /* \"@openzeppelin/contracts-upgradeable/token/ERC20/ERC20Upgradeable.sol\":2625:2644  $._symbol = symbol_ */\n      tag_290\n        /* \"@openzeppelin/contracts-upgradeable/token/ERC20/ERC20Upgradeable.sol\":2637:2644  symbol_ */\n      dup4\n        /* \"@openzeppelin/contracts-upgradeable/token/ERC20/ERC20Upgradeable.sol\":2625:2634  $._symbol */\n      dup3\n        /* \"@openzeppelin/contracts-upgradeable/token/ERC20/ERC20Upgradeable.sol\":2625:2644  $._symbol = symbol_ */\n      tag_525\n      jump\t// in\n        /* \"@openzeppelin/contracts-upgradeable/access/OwnableUpgradeable.sol\":1980:2215  function __Ownable_init_unchained(address initialOwner) internal onlyInitializing {... */\n    tag_461:\n        /* \"@openzeppelin/contracts-upgradeable/proxy/utils/Initializable.sol\":6931:6951  _checkInitializing() */\n      tag_343\n        /* \"@openzeppelin/contracts-upgradeable/proxy/utils/Initializable.sol\":6931:6949  _checkInitializing */\n      tag_453\n        /* \"@openzeppelin/contracts-upgradeable/proxy/utils/Initializable.sol\":6931:6951  _checkInitializing() */\n      jump\t// in\n        /* \"@openzeppelin/contracts-upgradeable/utils/PausableUpgradeable.sol\":1939:2095  function __Pausable_init_unchained() internal onlyInitializing {... */\n    tag_466:\n        /* \"@openzeppelin/contracts-upgradeable/proxy/utils/Initializable.sol\":6931:6951  _checkInitializing() */\n      tag_534\n        /* \"@openzeppelin/contracts-upgradeable/proxy/utils/Initializable.sol\":6931:6949  _checkInitializing */\n      tag_453\n        /* \"@openzeppelin/contracts-upgradeable/proxy/utils/Initializable.sol\":6931:6951  _checkInitializing() */\n      jump\t// in\n    tag_534:\n      0x00\n      dup1\n      mload\n      0x20\n      data_c0c65a3718f3702d917c44106b91645b509d2e2d0979b70495c3babce192339f\n      dup4\n      codecopy\n      dup2\n      mload\n      swap2\n      mstore\n        /* \"@openzeppelin/contracts-upgradeable/utils/PausableUpgradeable.sol\":2071:2088  $._paused = false */\n      dup1\n      sload\n      not(0xff)\n      and\n      swap1\n      sstore\n        /* \"@openzeppelin/contracts-upgradeable/utils/PausableUpgradeable.sol\":1939:2095  function __Pausable_init_unchained() internal onlyInitializing {... */\n      jump\t// out\n        /* \"@openzeppelin/contracts/proxy/ERC1967/ERC1967Utils.sol\":1671:1952  function _setImplementation(address newImplementation) private {... */\n    tag_498:\n        /* \"@openzeppelin/contracts/proxy/ERC1967/ERC1967Utils.sol\":1748:1765  newImplementation */\n      dup1\n      sub(shl(0xa0, 0x01), 0x01)\n        /* \"@openzeppelin/contracts/proxy/ERC1967/ERC1967Utils.sol\":1748:1777  newImplementation.code.length */\n      and\n      extcodesize\n        /* \"@openzeppelin/contracts/proxy/ERC1967/ERC1967Utils.sol\":1781:1782  0 */\n      0x00\n        /* \"@openzeppelin/contracts/proxy/ERC1967/ERC1967Utils.sol\":1748:1782  newImplementation.code.length == 0 */\n      sub\n        /* \"@openzeppelin/contracts/proxy/ERC1967/ERC1967Utils.sol\":1744:1863  if (newImplementation.code.length == 0) {... */\n      tag_539\n      jumpi\n        /* \"@openzeppelin/contracts/proxy/ERC1967/ERC1967Utils.sol\":1805:1852  ERC1967InvalidImplementation(newImplementation) */\n      mload(0x40)\n      shl(0xe0, 0x4c9c8ce3)\n      dup2\n      mstore\n      sub(shl(0xa0, 0x01), 0x01)\n        /* \"#utility.yul\":5276:5308   */\n      dup3\n      and\n        /* \"@openzeppelin/contracts/proxy/ERC1967/ERC1967Utils.sol\":1805:1852  ERC1967InvalidImplementation(newImplementation) */\n      0x04\n      dup3\n      add\n        /* \"#utility.yul\":5258:5309   */\n      mstore\n        /* \"#utility.yul\":5231:5249   */\n      0x24\n      add\n        /* \"@openzeppelin/contracts/proxy/ERC1967/ERC1967Utils.sol\":1805:1852  ERC1967InvalidImplementation(newImplementation) */\n      tag_188\n        /* \"#utility.yul\":5112:5315   */\n      jump\n        /* \"@openzeppelin/contracts/proxy/ERC1967/ERC1967Utils.sol\":1744:1863  if (newImplementation.code.length == 0) {... */\n    tag_539:\n      0x00\n      dup1\n      mload\n      0x20\n      data_75b20eef8615de99c108b05f0dbda081c91897128caa336d75dffb97c4132b4d\n      dup4\n      codecopy\n      dup2\n      mload\n      swap2\n      mstore\n        /* \"@openzeppelin/contracts/proxy/ERC1967/ERC1967Utils.sol\":1872:1945  StorageSlot.getAddressSlot(IMPLEMENTATION_SLOT).value = newImplementation */\n      dup1\n      sload\n      not(sub(shl(0xa0, 0x01), 0x01))\n      and\n      sub(shl(0xa0, 0x01), 0x01)\n      swap3\n      swap1\n      swap3\n      and\n      swap2\n      swap1\n      swap2\n      or\n      swap1\n      sstore\n        /* \"@openzeppelin/contracts/proxy/ERC1967/ERC1967Utils.sol\":1671:1952  function _setImplementation(address newImplementation) private {... */\n      jump\t// out\n        /* \"@openzeppelin/contracts/utils/Address.sol\":3900:4153  function functionDelegateCall(address target, bytes memory data) internal returns (bytes memory) {... */\n    tag_501:\n        /* \"@openzeppelin/contracts/utils/Address.sol\":3983:3995  bytes memory */\n      0x60\n        /* \"@openzeppelin/contracts/utils/Address.sol\":4008:4020  bool success */\n      0x00\n        /* \"@openzeppelin/contracts/utils/Address.sol\":4022:4045  bytes memory returndata */\n      dup1\n        /* \"@openzeppelin/contracts/utils/Address.sol\":4049:4055  target */\n      dup5\n      sub(shl(0xa0, 0x01), 0x01)\n        /* \"@openzeppelin/contracts/utils/Address.sol\":4049:4068  target.delegatecall */\n      and\n        /* \"@openzeppelin/contracts/utils/Address.sol\":4069:4073  data */\n      dup5\n        /* \"@openzeppelin/contracts/utils/Address.sol\":4049:4074  target.delegatecall(data) */\n      mload(0x40)\n      tag_543\n      swap2\n      swap1\n      tag_544\n      jump\t// in\n    tag_543:\n      0x00\n      mload(0x40)\n      dup1\n      dup4\n      sub\n      dup2\n      dup6\n      gas\n      delegatecall\n      swap2\n      pop\n      pop\n      returndatasize\n      dup1\n      0x00\n      dup2\n      eq\n      tag_547\n      jumpi\n      mload(0x40)\n      swap2\n      pop\n      and(add(returndatasize, 0x3f), not(0x1f))\n      dup3\n      add\n      0x40\n      mstore\n      returndatasize\n      dup3\n      mstore\n      returndatasize\n      0x00\n      0x20\n      dup5\n      add\n      returndatacopy\n      jump(tag_546)\n    tag_547:\n      0x60\n      swap2\n      pop\n    tag_546:\n      pop\n        /* \"@openzeppelin/contracts/utils/Address.sol\":4007:4074  (bool success, bytes memory returndata) = target.delegatecall(data) */\n      swap2\n      pop\n      swap2\n      pop\n        /* \"@openzeppelin/contracts/utils/Address.sol\":4091:4146  verifyCallResultFromTarget(target, success, returndata) */\n      tag_548\n        /* \"@openzeppelin/contracts/utils/Address.sol\":4118:4124  target */\n      dup6\n        /* \"@openzeppelin/contracts/utils/Address.sol\":4126:4133  success */\n      dup4\n        /* \"@openzeppelin/contracts/utils/Address.sol\":4135:4145  returndata */\n      dup4\n        /* \"@openzeppelin/contracts/utils/Address.sol\":4091:4117  verifyCallResultFromTarget */\n      tag_549\n        /* \"@openzeppelin/contracts/utils/Address.sol\":4091:4146  verifyCallResultFromTarget(target, success, returndata) */\n      jump\t// in\n    tag_548:\n        /* \"@openzeppelin/contracts/utils/Address.sol\":4084:4146  return verifyCallResultFromTarget(target, success, returndata) */\n      swap6\n        /* \"@openzeppelin/contracts/utils/Address.sol\":3900:4153  function functionDelegateCall(address target, bytes memory data) internal returns (bytes memory) {... */\n      swap5\n      pop\n      pop\n      pop\n      pop\n      pop\n      jump\t// out\n        /* \"@openzeppelin/contracts/proxy/ERC1967/ERC1967Utils.sol\":6113:6235  function _checkNonPayable() private {... */\n    tag_504:\n        /* \"@openzeppelin/contracts/proxy/ERC1967/ERC1967Utils.sol\":6163:6172  msg.value */\n      callvalue\n        /* \"@openzeppelin/contracts/proxy/ERC1967/ERC1967Utils.sol\":6163:6176  msg.value > 0 */\n      iszero\n        /* \"@openzeppelin/contracts/proxy/ERC1967/ERC1967Utils.sol\":6159:6229  if (msg.value > 0) {... */\n      tag_236\n      jumpi\n        /* \"@openzeppelin/contracts/proxy/ERC1967/ERC1967Utils.sol\":6199:6218  ERC1967NonPayable() */\n      mload(0x40)\n      shl(0xe0, 0xb398979f)\n      dup2\n      mstore\n      0x04\n      add\n      mload(0x40)\n      dup1\n      swap2\n      sub\n      swap1\n      revert\n        /* \"@openzeppelin/contracts/utils/Address.sol\":4421:5003  function verifyCallResultFromTarget(... */\n    tag_549:\n        /* \"@openzeppelin/contracts/utils/Address.sol\":4565:4577  bytes memory */\n      0x60\n        /* \"@openzeppelin/contracts/utils/Address.sol\":4594:4601  success */\n      dup3\n        /* \"@openzeppelin/contracts/utils/Address.sol\":4589:4997  if (!success) {... */\n      tag_555\n      jumpi\n        /* \"@openzeppelin/contracts/utils/Address.sol\":4617:4636  _revert(returndata) */\n      tag_556\n        /* \"@openzeppelin/contracts/utils/Address.sol\":4625:4635  returndata */\n      dup3\n        /* \"@openzeppelin/contracts/utils/Address.sol\":4617:4624  _revert */\n      tag_557\n        /* \"@openzeppelin/contracts/utils/Address.sol\":4617:4636  _revert(returndata) */\n      jump\t// in\n    tag_556:\n        /* \"@openzeppelin/contracts/utils/Address.sol\":4589:4997  if (!success) {... */\n      jump(tag_215)\n    tag_555:\n        /* \"@openzeppelin/contracts/utils/Address.sol\":4841:4858  returndata.length */\n      dup2\n      mload\n        /* \"@openzeppelin/contracts/utils/Address.sol\":4841:4863  returndata.length == 0 */\n      iszero\n        /* \"@openzeppelin/contracts/utils/Address.sol\":4841:4890  returndata.length == 0 && target.code.length == 0 */\n      dup1\n      iszero\n      tag_559\n      jumpi\n      pop\n      sub(shl(0xa0, 0x01), 0x01)\n        /* \"@openzeppelin/contracts/utils/Address.sol\":4867:4885  target.code.length */\n      dup5\n      and\n      extcodesize\n        /* \"@openzeppelin/contracts/utils/Address.sol\":4867:4890  target.code.length == 0 */\n      iszero\n        /* \"@openzeppelin/contracts/utils/Address.sol\":4841:4890  returndata.length == 0 && target.code.length == 0 */\n    tag_559:\n        /* \"@openzeppelin/contracts/utils/Address.sol\":4837:4956  if (returndata.length == 0 && target.code.length == 0) {... */\n      iszero\n      tag_560\n      jumpi\n        /* \"@openzeppelin/contracts/utils/Address.sol\":4917:4941  AddressEmptyCode(target) */\n      mload(0x40)\n      shl(0xe0, 0x9996b315)\n      dup2\n      mstore\n      sub(shl(0xa0, 0x01), 0x01)\n        /* \"#utility.yul\":5276:5308   */\n      dup6\n      and\n        /* \"@openzeppelin/contracts/utils/Address.sol\":4917:4941  AddressEmptyCode(target) */\n      0x04\n      dup3\n      add\n        /* \"#utility.yul\":5258:5309   */\n      mstore\n        /* \"#utility.yul\":5231:5249   */\n      0x24\n      add\n        /* \"@openzeppelin/contracts/utils/Address.sol\":4917:4941  AddressEmptyCode(target) */\n      tag_188\n        /* \"#utility.yul\":5112:5315   */\n      jump\n        /* \"@openzeppelin/contracts/utils/Address.sol\":4837:4956  if (returndata.length == 0 && target.code.length == 0) {... */\n    tag_560:\n      pop\n        /* \"@openzeppelin/contracts/utils/Address.sol\":4976:4986  returndata */\n      dup1\n        /* \"@openzeppelin/contracts/utils/Address.sol\":4969:4986  return returndata */\n      jump(tag_215)\n        /* \"@openzeppelin/contracts/utils/Address.sol\":5543:6030  function _revert(bytes memory returndata) private pure {... */\n    tag_557:\n        /* \"@openzeppelin/contracts/utils/Address.sol\":5674:5691  returndata.length */\n      dup1\n      mload\n        /* \"@openzeppelin/contracts/utils/Address.sol\":5674:5695  returndata.length > 0 */\n      iszero\n        /* \"@openzeppelin/contracts/utils/Address.sol\":5670:6024  if (returndata.length > 0) {... */\n      tag_563\n      jumpi\n        /* \"@openzeppelin/contracts/utils/Address.sol\":5871:5881  returndata */\n      dup1\n        /* \"@openzeppelin/contracts/utils/Address.sol\":5865:5882  mload(returndata) */\n      mload\n        /* \"@openzeppelin/contracts/utils/Address.sol\":5927:5942  returndata_size */\n      dup1\n        /* \"@openzeppelin/contracts/utils/Address.sol\":5914:5924  returndata */\n      dup3\n        /* \"@openzeppelin/contracts/utils/Address.sol\":5910:5912  32 */\n      0x20\n        /* \"@openzeppelin/contracts/utils/Address.sol\":5906:5925  add(32, returndata) */\n      add\n        /* \"@openzeppelin/contracts/utils/Address.sol\":5899:5943  revert(add(32, returndata), returndata_size) */\n      revert\n        /* \"@openzeppelin/contracts/utils/Address.sol\":5670:6024  if (returndata.length > 0) {... */\n    tag_563:\n        /* \"@openzeppelin/contracts/utils/Address.sol\":5994:6013  Errors.FailedCall() */\n      mload(0x40)\n      shl(0xe0, 0xd6bda275)\n      dup2\n      mstore\n      0x04\n      add\n      mload(0x40)\n      dup1\n      swap2\n      sub\n      swap1\n      revert\n        /* \"#utility.yul\":14:432   */\n    tag_41:\n        /* \"#utility.yul\":163:165   */\n      0x20\n        /* \"#utility.yul\":152:161   */\n      dup2\n        /* \"#utility.yul\":145:166   */\n      mstore\n        /* \"#utility.yul\":126:130   */\n      0x00\n        /* \"#utility.yul\":195:201   */\n      dup3\n        /* \"#utility.yul\":189:202   */\n      mload\n        /* \"#utility.yul\":238:244   */\n      dup1\n        /* \"#utility.yul\":233:235   */\n      0x20\n        /* \"#utility.yul\":222:231   */\n      dup5\n        /* \"#utility.yul\":218:236   */\n      add\n        /* \"#utility.yul\":211:245   */\n      mstore\n        /* \"#utility.yul\":297:303   */\n      dup1\n        /* \"#utility.yul\":292:294   */\n      0x20\n        /* \"#utility.yul\":284:290   */\n      dup6\n        /* \"#utility.yul\":280:295   */\n      add\n        /* \"#utility.yul\":275:277   */\n      0x40\n        /* \"#utility.yul\":264:273   */\n      dup6\n        /* \"#utility.yul\":260:278   */\n      add\n        /* \"#utility.yul\":254:304   */\n      mcopy\n        /* \"#utility.yul\":353:354   */\n      0x00\n        /* \"#utility.yul\":348:350   */\n      0x40\n        /* \"#utility.yul\":339:345   */\n      dup3\n        /* \"#utility.yul\":328:337   */\n      dup6\n        /* \"#utility.yul\":324:346   */\n      add\n        /* \"#utility.yul\":320:351   */\n      add\n        /* \"#utility.yul\":313:355   */\n      mstore\n        /* \"#utility.yul\":423:425   */\n      0x40\n        /* \"#utility.yul\":416:418   */\n      0x1f\n        /* \"#utility.yul\":412:419   */\n      not\n        /* \"#utility.yul\":407:409   */\n      0x1f\n        /* \"#utility.yul\":399:405   */\n      dup4\n        /* \"#utility.yul\":395:410   */\n      add\n        /* \"#utility.yul\":391:420   */\n      and\n        /* \"#utility.yul\":380:389   */\n      dup5\n        /* \"#utility.yul\":376:421   */\n      add\n        /* \"#utility.yul\":372:426   */\n      add\n        /* \"#utility.yul\":364:426   */\n      swap2\n      pop\n      pop\n        /* \"#utility.yul\":14:432   */\n      swap3\n      swap2\n      pop\n      pop\n      jump\t// out\n        /* \"#utility.yul\":437:610   */\n    tag_565:\n        /* \"#utility.yul\":505:525   */\n      dup1\n      calldataload\n      sub(shl(0xa0, 0x01), 0x01)\n        /* \"#utility.yul\":554:585   */\n      dup2\n      and\n        /* \"#utility.yul\":544:586   */\n      dup2\n      eq\n        /* \"#utility.yul\":534:604   */\n      tag_576\n      jumpi\n        /* \"#utility.yul\":600:601   */\n      0x00\n        /* \"#utility.yul\":597:598   */\n      dup1\n        /* \"#utility.yul\":590:602   */\n      revert\n        /* \"#utility.yul\":534:604   */\n    tag_576:\n        /* \"#utility.yul\":437:610   */\n      swap2\n      swap1\n      pop\n      jump\t// out\n        /* \"#utility.yul\":615:915   */\n    tag_45:\n        /* \"#utility.yul\":683:689   */\n      0x00\n        /* \"#utility.yul\":691:697   */\n      dup1\n        /* \"#utility.yul\":744:746   */\n      0x40\n        /* \"#utility.yul\":732:741   */\n      dup4\n        /* \"#utility.yul\":723:730   */\n      dup6\n        /* \"#utility.yul\":719:742   */\n      sub\n        /* \"#utility.yul\":715:747   */\n      slt\n        /* \"#utility.yul\":712:764   */\n      iszero\n      tag_578\n      jumpi\n        /* \"#utility.yul\":760:761   */\n      0x00\n        /* \"#utility.yul\":757:758   */\n      dup1\n        /* \"#utility.yul\":750:762   */\n      revert\n        /* \"#utility.yul\":712:764   */\n    tag_578:\n        /* \"#utility.yul\":783:812   */\n      tag_579\n        /* \"#utility.yul\":802:811   */\n      dup4\n        /* \"#utility.yul\":783:812   */\n      tag_565\n      jump\t// in\n    tag_579:\n        /* \"#utility.yul\":773:812   */\n      swap5\n        /* \"#utility.yul\":881:883   */\n      0x20\n        /* \"#utility.yul\":866:884   */\n      swap4\n      swap1\n      swap4\n      add\n        /* \"#utility.yul\":853:885   */\n      calldataload\n      swap4\n      pop\n      pop\n      pop\n        /* \"#utility.yul\":615:915   */\n      jump\t// out\n        /* \"#utility.yul\":1112:1459   */\n    tag_52:\n        /* \"#utility.yul\":1177:1183   */\n      0x00\n        /* \"#utility.yul\":1185:1191   */\n      dup1\n        /* \"#utility.yul\":1238:1240   */\n      0x40\n        /* \"#utility.yul\":1226:1235   */\n      dup4\n        /* \"#utility.yul\":1217:1224   */\n      dup6\n        /* \"#utility.yul\":1213:1236   */\n      sub\n        /* \"#utility.yul\":1209:1241   */\n      slt\n        /* \"#utility.yul\":1206:1258   */\n      iszero\n      tag_582\n      jumpi\n        /* \"#utility.yul\":1254:1255   */\n      0x00\n        /* \"#utility.yul\":1251:1252   */\n      dup1\n        /* \"#utility.yul\":1244:1256   */\n      revert\n        /* \"#utility.yul\":1206:1258   */\n    tag_582:\n        /* \"#utility.yul\":1277:1306   */\n      tag_583\n        /* \"#utility.yul\":1296:1305   */\n      dup4\n        /* \"#utility.yul\":1277:1306   */\n      tag_565\n      jump\t// in\n    tag_583:\n        /* \"#utility.yul\":1267:1306   */\n      swap2\n      pop\n        /* \"#utility.yul\":1356:1358   */\n      0x20\n        /* \"#utility.yul\":1345:1354   */\n      dup4\n        /* \"#utility.yul\":1341:1359   */\n      add\n        /* \"#utility.yul\":1328:1360   */\n      calldataload\n        /* \"#utility.yul\":1403:1408   */\n      dup1\n        /* \"#utility.yul\":1396:1409   */\n      iszero\n        /* \"#utility.yul\":1389:1410   */\n      iszero\n        /* \"#utility.yul\":1382:1387   */\n      dup2\n        /* \"#utility.yul\":1379:1411   */\n      eq\n        /* \"#utility.yul\":1369:1429   */\n      tag_584\n      jumpi\n        /* \"#utility.yul\":1425:1426   */\n      0x00\n        /* \"#utility.yul\":1422:1423   */\n      dup1\n        /* \"#utility.yul\":1415:1427   */\n      revert\n        /* \"#utility.yul\":1369:1429   */\n    tag_584:\n        /* \"#utility.yul\":1448:1453   */\n      dup1\n        /* \"#utility.yul\":1438:1453   */\n      swap2\n      pop\n      pop\n        /* \"#utility.yul\":1112:1459   */\n      swap3\n      pop\n      swap3\n      swap1\n      pop\n      jump\t// out\n        /* \"#utility.yul\":1646:2020   */\n    tag_62:\n        /* \"#utility.yul\":1723:1729   */\n      0x00\n        /* \"#utility.yul\":1731:1737   */\n      dup1\n        /* \"#utility.yul\":1739:1745   */\n      0x00\n        /* \"#utility.yul\":1792:1794   */\n      0x60\n        /* \"#utility.yul\":1780:1789   */\n      dup5\n        /* \"#utility.yul\":1771:1778   */\n      dup7\n        /* \"#utility.yul\":1767:1790   */\n      sub\n        /* \"#utility.yul\":1763:1795   */\n      slt\n        /* \"#utility.yul\":1760:1812   */\n      iszero\n      tag_587\n      jumpi\n        /* \"#utility.yul\":1808:1809   */\n      0x00\n        /* \"#utility.yul\":1805:1806   */\n      dup1\n        /* \"#utility.yul\":1798:1810   */\n      revert\n        /* \"#utility.yul\":1760:1812   */\n    tag_587:\n        /* \"#utility.yul\":1831:1860   */\n      tag_588\n        /* \"#utility.yul\":1850:1859   */\n      dup5\n        /* \"#utility.yul\":1831:1860   */\n      tag_565\n      jump\t// in\n    tag_588:\n        /* \"#utility.yul\":1821:1860   */\n      swap3\n      pop\n        /* \"#utility.yul\":1879:1917   */\n      tag_589\n        /* \"#utility.yul\":1913:1915   */\n      0x20\n        /* \"#utility.yul\":1902:1911   */\n      dup6\n        /* \"#utility.yul\":1898:1916   */\n      add\n        /* \"#utility.yul\":1879:1917   */\n      tag_565\n      jump\t// in\n    tag_589:\n        /* \"#utility.yul\":1646:2020   */\n      swap3\n      swap6\n        /* \"#utility.yul\":1869:1917   */\n      swap3\n      swap5\n      pop\n      pop\n      pop\n        /* \"#utility.yul\":1986:1988   */\n      0x40\n        /* \"#utility.yul\":1971:1989   */\n      swap2\n      swap1\n      swap2\n      add\n        /* \"#utility.yul\":1958:1990   */\n      calldataload\n      swap1\n        /* \"#utility.yul\":1646:2020   */\n      jump\t// out\n        /* \"#utility.yul\":2025:2211   */\n    tag_68:\n        /* \"#utility.yul\":2084:2090   */\n      0x00\n        /* \"#utility.yul\":2137:2139   */\n      0x20\n        /* \"#utility.yul\":2125:2134   */\n      dup3\n        /* \"#utility.yul\":2116:2123   */\n      dup5\n        /* \"#utility.yul\":2112:2135   */\n      sub\n        /* \"#utility.yul\":2108:2140   */\n      slt\n        /* \"#utility.yul\":2105:2157   */\n      iszero\n      tag_591\n      jumpi\n        /* \"#utility.yul\":2153:2154   */\n      0x00\n        /* \"#utility.yul\":2150:2151   */\n      dup1\n        /* \"#utility.yul\":2143:2155   */\n      revert\n        /* \"#utility.yul\":2105:2157   */\n    tag_591:\n        /* \"#utility.yul\":2176:2205   */\n      tag_215\n        /* \"#utility.yul\":2195:2204   */\n      dup3\n        /* \"#utility.yul\":2176:2205   */\n      tag_565\n      jump\t// in\n        /* \"#utility.yul\":2405:2532   */\n    tag_566:\n        /* \"#utility.yul\":2466:2476   */\n      0x4e487b71\n        /* \"#utility.yul\":2461:2464   */\n      0xe0\n        /* \"#utility.yul\":2457:2477   */\n      shl\n        /* \"#utility.yul\":2454:2455   */\n      0x00\n        /* \"#utility.yul\":2447:2478   */\n      mstore\n        /* \"#utility.yul\":2497:2501   */\n      0x41\n        /* \"#utility.yul\":2494:2495   */\n      0x04\n        /* \"#utility.yul\":2487:2502   */\n      mstore\n        /* \"#utility.yul\":2521:2525   */\n      0x24\n        /* \"#utility.yul\":2518:2519   */\n      0x00\n        /* \"#utility.yul\":2511:2526   */\n      revert\n        /* \"#utility.yul\":2537:3252   */\n    tag_567:\n        /* \"#utility.yul\":2601:2606   */\n      0x00\n        /* \"#utility.yul\":2633:2634   */\n      dup1\n        /* \"#utility.yul\":2657:2675   */\n      0xffffffffffffffff\n        /* \"#utility.yul\":2649:2655   */\n      dup5\n        /* \"#utility.yul\":2646:2676   */\n      gt\n        /* \"#utility.yul\":2643:2699   */\n      iszero\n      tag_597\n      jumpi\n        /* \"#utility.yul\":2679:2697   */\n      tag_597\n      tag_566\n      jump\t// in\n    tag_597:\n      pop\n        /* \"#utility.yul\":2834:2836   */\n      0x40\n        /* \"#utility.yul\":2828:2837   */\n      mload\n      not(0x1f)\n        /* \"#utility.yul\":2747:2749   */\n      0x1f\n        /* \"#utility.yul\":2726:2741   */\n      dup6\n      add\n        /* \"#utility.yul\":2722:2751   */\n      dup2\n      and\n        /* \"#utility.yul\":2892:2894   */\n      0x3f\n        /* \"#utility.yul\":2880:2895   */\n      add\n        /* \"#utility.yul\":2876:2905   */\n      and\n        /* \"#utility.yul\":2864:2906   */\n      dup2\n      add\n        /* \"#utility.yul\":2957:2979   */\n      dup2\n      dup2\n      lt\n        /* \"#utility.yul\":2936:2954   */\n      0xffffffffffffffff\n        /* \"#utility.yul\":2921:2955   */\n      dup3\n      gt\n        /* \"#utility.yul\":2918:2980   */\n      or\n        /* \"#utility.yul\":2915:3003   */\n      iszero\n      tag_599\n      jumpi\n        /* \"#utility.yul\":2983:3001   */\n      tag_599\n      tag_566\n      jump\t// in\n    tag_599:\n        /* \"#utility.yul\":3019:3021   */\n      0x40\n        /* \"#utility.yul\":3012:3034   */\n      mstore\n        /* \"#utility.yul\":3067:3089   */\n      dup4\n      dup2\n      mstore\n        /* \"#utility.yul\":3052:3058   */\n      swap1\n      pop\n      dup1\n        /* \"#utility.yul\":3104:3120   */\n      dup3\n      dup5\n      add\n        /* \"#utility.yul\":3101:3126   */\n      dup6\n      lt\n        /* \"#utility.yul\":3098:3143   */\n      iszero\n      tag_600\n      jumpi\n        /* \"#utility.yul\":3139:3140   */\n      0x00\n        /* \"#utility.yul\":3136:3137   */\n      dup1\n        /* \"#utility.yul\":3129:3141   */\n      revert\n        /* \"#utility.yul\":3098:3143   */\n    tag_600:\n        /* \"#utility.yul\":3189:3195   */\n      dup4\n        /* \"#utility.yul\":3184:3187   */\n      dup4\n        /* \"#utility.yul\":3177:3181   */\n      0x20\n        /* \"#utility.yul\":3169:3175   */\n      dup4\n        /* \"#utility.yul\":3165:3182   */\n      add\n        /* \"#utility.yul\":3152:3196   */\n      calldatacopy\n        /* \"#utility.yul\":3244:3245   */\n      0x00\n        /* \"#utility.yul\":3237:3241   */\n      0x20\n        /* \"#utility.yul\":3228:3234   */\n      dup6\n        /* \"#utility.yul\":3220:3226   */\n      dup4\n        /* \"#utility.yul\":3216:3235   */\n      add\n        /* \"#utility.yul\":3212:3242   */\n      add\n        /* \"#utility.yul\":3205:3246   */\n      mstore\n      pop\n        /* \"#utility.yul\":2537:3252   */\n      swap4\n      swap3\n      pop\n      pop\n      pop\n      jump\t// out\n        /* \"#utility.yul\":3257:3780   */\n    tag_80:\n        /* \"#utility.yul\":3334:3340   */\n      0x00\n        /* \"#utility.yul\":3342:3348   */\n      dup1\n        /* \"#utility.yul\":3395:3397   */\n      0x40\n        /* \"#utility.yul\":3383:3392   */\n      dup4\n        /* \"#utility.yul\":3374:3381   */\n      dup6\n        /* \"#utility.yul\":3370:3393   */\n      sub\n        /* \"#utility.yul\":3366:3398   */\n      slt\n        /* \"#utility.yul\":3363:3415   */\n      iszero\n      tag_602\n      jumpi\n        /* \"#utility.yul\":3411:3412   */\n      0x00\n        /* \"#utility.yul\":3408:3409   */\n      dup1\n        /* \"#utility.yul\":3401:3413   */\n      revert\n        /* \"#utility.yul\":3363:3415   */\n    tag_602:\n        /* \"#utility.yul\":3434:3463   */\n      tag_603\n        /* \"#utility.yul\":3453:3462   */\n      dup4\n        /* \"#utility.yul\":3434:3463   */\n      tag_565\n      jump\t// in\n    tag_603:\n        /* \"#utility.yul\":3424:3463   */\n      swap2\n      pop\n        /* \"#utility.yul\":3514:3516   */\n      0x20\n        /* \"#utility.yul\":3503:3512   */\n      dup4\n        /* \"#utility.yul\":3499:3517   */\n      add\n        /* \"#utility.yul\":3486:3518   */\n      calldataload\n        /* \"#utility.yul\":3541:3559   */\n      0xffffffffffffffff\n        /* \"#utility.yul\":3533:3539   */\n      dup2\n        /* \"#utility.yul\":3530:3560   */\n      gt\n        /* \"#utility.yul\":3527:3577   */\n      iszero\n      tag_604\n      jumpi\n        /* \"#utility.yul\":3573:3574   */\n      0x00\n        /* \"#utility.yul\":3570:3571   */\n      dup1\n        /* \"#utility.yul\":3563:3575   */\n      revert\n        /* \"#utility.yul\":3527:3577   */\n    tag_604:\n        /* \"#utility.yul\":3596:3618   */\n      dup4\n      add\n        /* \"#utility.yul\":3649:3653   */\n      0x1f\n        /* \"#utility.yul\":3641:3654   */\n      dup2\n      add\n        /* \"#utility.yul\":3637:3664   */\n      dup6\n      sgt\n        /* \"#utility.yul\":3627:3682   */\n      tag_605\n      jumpi\n        /* \"#utility.yul\":3678:3679   */\n      0x00\n        /* \"#utility.yul\":3675:3676   */\n      dup1\n        /* \"#utility.yul\":3668:3680   */\n      revert\n        /* \"#utility.yul\":3627:3682   */\n    tag_605:\n        /* \"#utility.yul\":3701:3774   */\n      tag_606\n        /* \"#utility.yul\":3766:3773   */\n      dup6\n        /* \"#utility.yul\":3761:3763   */\n      dup3\n        /* \"#utility.yul\":3748:3764   */\n      calldataload\n        /* \"#utility.yul\":3743:3745   */\n      0x20\n        /* \"#utility.yul\":3739:3741   */\n      dup5\n        /* \"#utility.yul\":3735:3746   */\n      add\n        /* \"#utility.yul\":3701:3774   */\n      tag_567\n      jump\t// in\n    tag_606:\n        /* \"#utility.yul\":3691:3774   */\n      swap2\n      pop\n      pop\n        /* \"#utility.yul\":3257:3780   */\n      swap3\n      pop\n      swap3\n      swap1\n      pop\n      jump\t// out\n        /* \"#utility.yul\":3967:4334   */\n    tag_568:\n        /* \"#utility.yul\":4030:4038   */\n      0x00\n        /* \"#utility.yul\":4040:4046   */\n      dup1\n        /* \"#utility.yul\":4094:4097   */\n      dup4\n        /* \"#utility.yul\":4087:4091   */\n      0x1f\n        /* \"#utility.yul\":4079:4085   */\n      dup5\n        /* \"#utility.yul\":4075:4092   */\n      add\n        /* \"#utility.yul\":4071:4098   */\n      slt\n        /* \"#utility.yul\":4061:4116   */\n      tag_609\n      jumpi\n        /* \"#utility.yul\":4112:4113   */\n      0x00\n        /* \"#utility.yul\":4109:4110   */\n      dup1\n        /* \"#utility.yul\":4102:4114   */\n      revert\n        /* \"#utility.yul\":4061:4116   */\n    tag_609:\n      pop\n        /* \"#utility.yul\":4135:4155   */\n      dup2\n      calldataload\n        /* \"#utility.yul\":4178:4196   */\n      0xffffffffffffffff\n        /* \"#utility.yul\":4167:4197   */\n      dup2\n      gt\n        /* \"#utility.yul\":4164:4214   */\n      iszero\n      tag_610\n      jumpi\n        /* \"#utility.yul\":4210:4211   */\n      0x00\n        /* \"#utility.yul\":4207:4208   */\n      dup1\n        /* \"#utility.yul\":4200:4212   */\n      revert\n        /* \"#utility.yul\":4164:4214   */\n    tag_610:\n        /* \"#utility.yul\":4247:4251   */\n      0x20\n        /* \"#utility.yul\":4239:4245   */\n      dup4\n        /* \"#utility.yul\":4235:4252   */\n      add\n        /* \"#utility.yul\":4223:4252   */\n      swap2\n      pop\n        /* \"#utility.yul\":4307:4310   */\n      dup4\n        /* \"#utility.yul\":4300:4304   */\n      0x20\n        /* \"#utility.yul\":4290:4296   */\n      dup3\n        /* \"#utility.yul\":4287:4288   */\n      0x05\n        /* \"#utility.yul\":4283:4297   */\n      shl\n        /* \"#utility.yul\":4275:4281   */\n      dup6\n        /* \"#utility.yul\":4271:4298   */\n      add\n        /* \"#utility.yul\":4267:4305   */\n      add\n        /* \"#utility.yul\":4264:4311   */\n      gt\n        /* \"#utility.yul\":4261:4328   */\n      iszero\n      tag_611\n      jumpi\n        /* \"#utility.yul\":4324:4325   */\n      0x00\n        /* \"#utility.yul\":4321:4322   */\n      dup1\n        /* \"#utility.yul\":4314:4326   */\n      revert\n        /* \"#utility.yul\":4261:4328   */\n    tag_611:\n        /* \"#utility.yul\":3967:4334   */\n      swap3\n      pop\n      swap3\n      swap1\n      pop\n      jump\t// out\n        /* \"#utility.yul\":4339:5107   */\n    tag_105:\n        /* \"#utility.yul\":4461:4467   */\n      0x00\n        /* \"#utility.yul\":4469:4475   */\n      dup1\n        /* \"#utility.yul\":4477:4483   */\n      0x00\n        /* \"#utility.yul\":4485:4491   */\n      dup1\n        /* \"#utility.yul\":4538:4540   */\n      0x40\n        /* \"#utility.yul\":4526:4535   */\n      dup6\n        /* \"#utility.yul\":4517:4524   */\n      dup8\n        /* \"#utility.yul\":4513:4536   */\n      sub\n        /* \"#utility.yul\":4509:4541   */\n      slt\n        /* \"#utility.yul\":4506:4558   */\n      iszero\n      tag_613\n      jumpi\n        /* \"#utility.yul\":4554:4555   */\n      0x00\n        /* \"#utility.yul\":4551:4552   */\n      dup1\n        /* \"#utility.yul\":4544:4556   */\n      revert\n        /* \"#utility.yul\":4506:4558   */\n    tag_613:\n        /* \"#utility.yul\":4594:4603   */\n      dup5\n        /* \"#utility.yul\":4581:4604   */\n      calldataload\n        /* \"#utility.yul\":4627:4645   */\n      0xffffffffffffffff\n        /* \"#utility.yul\":4619:4625   */\n      dup2\n        /* \"#utility.yul\":4616:4646   */\n      gt\n        /* \"#utility.yul\":4613:4663   */\n      iszero\n      tag_614\n      jumpi\n        /* \"#utility.yul\":4659:4660   */\n      0x00\n        /* \"#utility.yul\":4656:4657   */\n      dup1\n        /* \"#utility.yul\":4649:4661   */\n      revert\n        /* \"#utility.yul\":4613:4663   */\n    tag_614:\n        /* \"#utility.yul\":4698:4768   */\n      tag_615\n        /* \"#utility.yul\":4760:4767   */\n      dup8\n        /* \"#utility.yul\":4751:4757   */\n      dup3\n        /* \"#utility.yul\":4740:4749   */\n      dup9\n        /* \"#utility.yul\":4736:4758   */\n      add\n        /* \"#utility.yul\":4698:4768   */\n      tag_568\n      jump\t// in\n    tag_615:\n        /* \"#utility.yul\":4787:4795   */\n      swap1\n      swap6\n      pop\n        /* \"#utility.yul\":4672:4768   */\n      swap4\n      pop\n      pop\n        /* \"#utility.yul\":4875:4877   */\n      0x20\n        /* \"#utility.yul\":4860:4878   */\n      dup6\n      add\n        /* \"#utility.yul\":4847:4879   */\n      calldataload\n        /* \"#utility.yul\":4904:4922   */\n      0xffffffffffffffff\n        /* \"#utility.yul\":4891:4923   */\n      dup2\n      gt\n        /* \"#utility.yul\":4888:4940   */\n      iszero\n      tag_616\n      jumpi\n        /* \"#utility.yul\":4936:4937   */\n      0x00\n        /* \"#utility.yul\":4933:4934   */\n      dup1\n        /* \"#utility.yul\":4926:4938   */\n      revert\n        /* \"#utility.yul\":4888:4940   */\n    tag_616:\n        /* \"#utility.yul\":4975:5047   */\n      tag_617\n        /* \"#utility.yul\":5039:5046   */\n      dup8\n        /* \"#utility.yul\":5028:5036   */\n      dup3\n        /* \"#utility.yul\":5017:5026   */\n      dup9\n        /* \"#utility.yul\":5013:5037   */\n      add\n        /* \"#utility.yul\":4975:5047   */\n      tag_568\n      jump\t// in\n    tag_617:\n        /* \"#utility.yul\":4339:5107   */\n      swap6\n      swap9\n      swap5\n      swap8\n      pop\n        /* \"#utility.yul\":5066:5074   */\n      swap6\n      pop\n      pop\n      pop\n      pop\n        /* \"#utility.yul\":4339:5107   */\n      jump\t// out\n        /* \"#utility.yul\":5320:5541   */\n    tag_569:\n        /* \"#utility.yul\":5363:5368   */\n      0x00\n        /* \"#utility.yul\":5416:5419   */\n      dup3\n        /* \"#utility.yul\":5409:5413   */\n      0x1f\n        /* \"#utility.yul\":5401:5407   */\n      dup4\n        /* \"#utility.yul\":5397:5414   */\n      add\n        /* \"#utility.yul\":5393:5420   */\n      slt\n        /* \"#utility.yul\":5383:5438   */\n      tag_620\n      jumpi\n        /* \"#utility.yul\":5434:5435   */\n      0x00\n        /* \"#utility.yul\":5431:5432   */\n      dup1\n        /* \"#utility.yul\":5424:5436   */\n      revert\n        /* \"#utility.yul\":5383:5438   */\n    tag_620:\n        /* \"#utility.yul\":5456:5535   */\n      tag_215\n        /* \"#utility.yul\":5531:5534   */\n      dup4\n        /* \"#utility.yul\":5522:5528   */\n      dup4\n        /* \"#utility.yul\":5509:5529   */\n      calldataload\n        /* \"#utility.yul\":5502:5506   */\n      0x20\n        /* \"#utility.yul\":5494:5500   */\n      dup6\n        /* \"#utility.yul\":5490:5507   */\n      add\n        /* \"#utility.yul\":5456:5535   */\n      tag_567\n      jump\t// in\n        /* \"#utility.yul\":5546:6198   */\n    tag_138:\n        /* \"#utility.yul\":5643:5649   */\n      0x00\n        /* \"#utility.yul\":5651:5657   */\n      dup1\n        /* \"#utility.yul\":5659:5665   */\n      0x00\n        /* \"#utility.yul\":5712:5714   */\n      0x60\n        /* \"#utility.yul\":5700:5709   */\n      dup5\n        /* \"#utility.yul\":5691:5698   */\n      dup7\n        /* \"#utility.yul\":5687:5710   */\n      sub\n        /* \"#utility.yul\":5683:5715   */\n      slt\n        /* \"#utility.yul\":5680:5732   */\n      iszero\n      tag_623\n      jumpi\n        /* \"#utility.yul\":5728:5729   */\n      0x00\n        /* \"#utility.yul\":5725:5726   */\n      dup1\n        /* \"#utility.yul\":5718:5730   */\n      revert\n        /* \"#utility.yul\":5680:5732   */\n    tag_623:\n        /* \"#utility.yul\":5768:5777   */\n      dup4\n        /* \"#utility.yul\":5755:5778   */\n      calldataload\n        /* \"#utility.yul\":5801:5819   */\n      0xffffffffffffffff\n        /* \"#utility.yul\":5793:5799   */\n      dup2\n        /* \"#utility.yul\":5790:5820   */\n      gt\n        /* \"#utility.yul\":5787:5837   */\n      iszero\n      tag_624\n      jumpi\n        /* \"#utility.yul\":5833:5834   */\n      0x00\n        /* \"#utility.yul\":5830:5831   */\n      dup1\n        /* \"#utility.yul\":5823:5835   */\n      revert\n        /* \"#utility.yul\":5787:5837   */\n    tag_624:\n        /* \"#utility.yul\":5856:5906   */\n      tag_625\n        /* \"#utility.yul\":5898:5905   */\n      dup7\n        /* \"#utility.yul\":5889:5895   */\n      dup3\n        /* \"#utility.yul\":5878:5887   */\n      dup8\n        /* \"#utility.yul\":5874:5896   */\n      add\n        /* \"#utility.yul\":5856:5906   */\n      tag_569\n      jump\t// in\n    tag_625:\n        /* \"#utility.yul\":5846:5906   */\n      swap4\n      pop\n      pop\n        /* \"#utility.yul\":5959:5961   */\n      0x20\n        /* \"#utility.yul\":5948:5957   */\n      dup5\n        /* \"#utility.yul\":5944:5962   */\n      add\n        /* \"#utility.yul\":5931:5963   */\n      calldataload\n        /* \"#utility.yul\":5988:6006   */\n      0xffffffffffffffff\n        /* \"#utility.yul\":5978:5986   */\n      dup2\n        /* \"#utility.yul\":5975:6007   */\n      gt\n        /* \"#utility.yul\":5972:6024   */\n      iszero\n      tag_626\n      jumpi\n        /* \"#utility.yul\":6020:6021   */\n      0x00\n        /* \"#utility.yul\":6017:6018   */\n      dup1\n        /* \"#utility.yul\":6010:6022   */\n      revert\n        /* \"#utility.yul\":5972:6024   */\n    tag_626:\n        /* \"#utility.yul\":6043:6095   */\n      tag_627\n        /* \"#utility.yul\":6087:6094   */\n      dup7\n        /* \"#utility.yul\":6076:6084   */\n      dup3\n        /* \"#utility.yul\":6065:6074   */\n      dup8\n        /* \"#utility.yul\":6061:6085   */\n      add\n        /* \"#utility.yul\":6043:6095   */\n      tag_569\n      jump\t// in\n    tag_627:\n        /* \"#utility.yul\":5546:6198   */\n      swap4\n      swap7\n        /* \"#utility.yul\":6033:6095   */\n      swap4\n      swap6\n      pop\n      pop\n      pop\n      pop\n        /* \"#utility.yul\":6164:6166   */\n      0x40\n        /* \"#utility.yul\":6149:6167   */\n      swap2\n      swap1\n      swap2\n      add\n        /* \"#utility.yul\":6136:6168   */\n      calldataload\n      swap1\n        /* \"#utility.yul\":5546:6198   */\n      jump\t// out\n        /* \"#utility.yul\":6203:6463   */\n    tag_152:\n        /* \"#utility.yul\":6271:6277   */\n      0x00\n        /* \"#utility.yul\":6279:6285   */\n      dup1\n        /* \"#utility.yul\":6332:6334   */\n      0x40\n        /* \"#utility.yul\":6320:6329   */\n      dup4\n        /* \"#utility.yul\":6311:6318   */\n      dup6\n        /* \"#utility.yul\":6307:6330   */\n      sub\n        /* \"#utility.yul\":6303:6335   */\n      slt\n        /* \"#utility.yul\":6300:6352   */\n      iszero\n      tag_629\n      jumpi\n        /* \"#utility.yul\":6348:6349   */\n      0x00\n        /* \"#utility.yul\":6345:6346   */\n      dup1\n        /* \"#utility.yul\":6338:6350   */\n      revert\n        /* \"#utility.yul\":6300:6352   */\n    tag_629:\n        /* \"#utility.yul\":6371:6400   */\n      tag_630\n        /* \"#utility.yul\":6390:6399   */\n      dup4\n        /* \"#utility.yul\":6371:6400   */\n      tag_565\n      jump\t// in\n    tag_630:\n        /* \"#utility.yul\":6361:6400   */\n      swap2\n      pop\n        /* \"#utility.yul\":6419:6457   */\n      tag_631\n        /* \"#utility.yul\":6453:6455   */\n      0x20\n        /* \"#utility.yul\":6442:6451   */\n      dup5\n        /* \"#utility.yul\":6438:6456   */\n      add\n        /* \"#utility.yul\":6419:6457   */\n      tag_565\n      jump\t// in\n    tag_631:\n        /* \"#utility.yul\":6409:6457   */\n      swap1\n      pop\n        /* \"#utility.yul\":6203:6463   */\n      swap3\n      pop\n      swap3\n      swap1\n      pop\n      jump\t// out\n        /* \"#utility.yul\":6468:6888   */\n    tag_162:\n        /* \"#utility.yul\":6545:6551   */\n      0x00\n        /* \"#utility.yul\":6553:6559   */\n      dup1\n        /* \"#utility.yul\":6561:6567   */\n      0x00\n        /* \"#utility.yul\":6614:6616   */\n      0x60\n        /* \"#utility.yul\":6602:6611   */\n      dup5\n        /* \"#utility.yul\":6593:6600   */\n      dup7\n        /* \"#utility.yul\":6589:6612   */\n      sub\n        /* \"#utility.yul\":6585:6617   */\n      slt\n        /* \"#utility.yul\":6582:6634   */\n      iszero\n      tag_633\n      jumpi\n        /* \"#utility.yul\":6630:6631   */\n      0x00\n        /* \"#utility.yul\":6627:6628   */\n      dup1\n        /* \"#utility.yul\":6620:6632   */\n      revert\n        /* \"#utility.yul\":6582:6634   */\n    tag_633:\n        /* \"#utility.yul\":6653:6682   */\n      tag_634\n        /* \"#utility.yul\":6672:6681   */\n      dup5\n        /* \"#utility.yul\":6653:6682   */\n      tag_565\n      jump\t// in\n    tag_634:\n        /* \"#utility.yul\":6643:6682   */\n      swap6\n        /* \"#utility.yul\":6751:6753   */\n      0x20\n        /* \"#utility.yul\":6736:6754   */\n      dup6\n      add\n        /* \"#utility.yul\":6723:6755   */\n      calldataload\n      swap6\n      pop\n        /* \"#utility.yul\":6852:6854   */\n      0x40\n        /* \"#utility.yul\":6837:6855   */\n      swap1\n      swap5\n      add\n        /* \"#utility.yul\":6824:6856   */\n      calldataload\n      swap4\n        /* \"#utility.yul\":6468:6888   */\n      swap3\n      pop\n      pop\n      pop\n      jump\t// out\n        /* \"#utility.yul\":6893:7273   */\n    tag_173:\n        /* \"#utility.yul\":6972:6973   */\n      0x01\n        /* \"#utility.yul\":6968:6980   */\n      dup2\n      dup2\n      shr\n      swap1\n        /* \"#utility.yul\":7015:7027   */\n      dup3\n      and\n      dup1\n        /* \"#utility.yul\":7036:7097   */\n      tag_636\n      jumpi\n        /* \"#utility.yul\":7090:7094   */\n      0x7f\n        /* \"#utility.yul\":7082:7088   */\n      dup3\n        /* \"#utility.yul\":7078:7095   */\n      and\n        /* \"#utility.yul\":7068:7095   */\n      swap2\n      pop\n        /* \"#utility.yul\":7036:7097   */\n    tag_636:\n        /* \"#utility.yul\":7143:7145   */\n      0x20\n        /* \"#utility.yul\":7135:7141   */\n      dup3\n        /* \"#utility.yul\":7132:7146   */\n      lt\n        /* \"#utility.yul\":7112:7130   */\n      dup2\n        /* \"#utility.yul\":7109:7147   */\n      sub\n        /* \"#utility.yul\":7106:7267   */\n      tag_637\n      jumpi\n        /* \"#utility.yul\":7189:7199   */\n      0x4e487b71\n        /* \"#utility.yul\":7184:7187   */\n      0xe0\n        /* \"#utility.yul\":7180:7200   */\n      shl\n        /* \"#utility.yul\":7177:7178   */\n      0x00\n        /* \"#utility.yul\":7170:7201   */\n      mstore\n        /* \"#utility.yul\":7224:7228   */\n      0x22\n        /* \"#utility.yul\":7221:7222   */\n      0x04\n        /* \"#utility.yul\":7214:7229   */\n      mstore\n        /* \"#utility.yul\":7252:7256   */\n      0x24\n        /* \"#utility.yul\":7249:7250   */\n      0x00\n        /* \"#utility.yul\":7242:7257   */\n      revert\n        /* \"#utility.yul\":7106:7267   */\n    tag_637:\n      pop\n        /* \"#utility.yul\":6893:7273   */\n      swap2\n      swap1\n      pop\n      jump\t// out\n        /* \"#utility.yul\":7278:7614   */\n    tag_189:\n        /* \"#utility.yul\":7480:7482   */\n      0x20\n        /* \"#utility.yul\":7462:7483   */\n      dup1\n      dup3\n      mstore\n        /* \"#utility.yul\":7519:7521   */\n      0x0c\n        /* \"#utility.yul\":7499:7517   */\n      swap1\n      dup3\n      add\n        /* \"#utility.yul\":7492:7522   */\n      mstore\n      shl(0xa0, 0x4e756c6c2041646472657373)\n        /* \"#utility.yul\":7553:7555   */\n      0x40\n        /* \"#utility.yul\":7538:7556   */\n      dup3\n      add\n        /* \"#utility.yul\":7531:7573   */\n      mstore\n        /* \"#utility.yul\":7605:7607   */\n      0x60\n        /* \"#utility.yul\":7590:7608   */\n      add\n      swap1\n        /* \"#utility.yul\":7278:7614   */\n      jump\t// out\n        /* \"#utility.yul\":7619:8021   */\n    tag_202:\n        /* \"#utility.yul\":7821:7823   */\n      0x20\n        /* \"#utility.yul\":7803:7824   */\n      dup1\n      dup3\n      mstore\n        /* \"#utility.yul\":7860:7862   */\n      0x26\n        /* \"#utility.yul\":7840:7858   */\n      swap1\n      dup3\n      add\n        /* \"#utility.yul\":7833:7863   */\n      mstore\n        /* \"#utility.yul\":7899:7933   */\n      0x5472616e73666572206661696c65643a2053656e64657220697320626c61636b\n        /* \"#utility.yul\":7894:7896   */\n      0x40\n        /* \"#utility.yul\":7879:7897   */\n      dup3\n      add\n        /* \"#utility.yul\":7872:7934   */\n      mstore\n      shl(0xd2, 0x1b1a5cdd1959)\n        /* \"#utility.yul\":7965:7967   */\n      0x60\n        /* \"#utility.yul\":7950:7968   */\n      dup3\n      add\n        /* \"#utility.yul\":7943:7979   */\n      mstore\n        /* \"#utility.yul\":8011:8014   */\n      0x80\n        /* \"#utility.yul\":7996:8015   */\n      add\n      swap1\n        /* \"#utility.yul\":7619:8021   */\n      jump\t// out\n        /* \"#utility.yul\":8026:8431   */\n    tag_205:\n        /* \"#utility.yul\":8228:8230   */\n      0x20\n        /* \"#utility.yul\":8210:8231   */\n      dup1\n      dup3\n      mstore\n        /* \"#utility.yul\":8267:8269   */\n      0x29\n        /* \"#utility.yul\":8247:8265   */\n      swap1\n      dup3\n      add\n        /* \"#utility.yul\":8240:8270   */\n      mstore\n        /* \"#utility.yul\":8306:8340   */\n      0x5472616e73666572206661696c65643a20526563697069656e7420697320626c\n        /* \"#utility.yul\":8301:8303   */\n      0x40\n        /* \"#utility.yul\":8286:8304   */\n      dup3\n      add\n        /* \"#utility.yul\":8279:8341   */\n      mstore\n      shl(0xba, 0x1858dadb1a5cdd1959)\n        /* \"#utility.yul\":8372:8374   */\n      0x60\n        /* \"#utility.yul\":8357:8375   */\n      dup3\n      add\n        /* \"#utility.yul\":8350:8389   */\n      mstore\n        /* \"#utility.yul\":8421:8424   */\n      0x80\n        /* \"#utility.yul\":8406:8425   */\n      add\n      swap1\n        /* \"#utility.yul\":8026:8431   */\n      jump\t// out\n        /* \"#utility.yul\":8789:9187   */\n    tag_212:\n        /* \"#utility.yul\":8991:8993   */\n      0x20\n        /* \"#utility.yul\":8973:8994   */\n      dup1\n      dup3\n      mstore\n        /* \"#utility.yul\":9030:9032   */\n      0x22\n        /* \"#utility.yul\":9010:9028   */\n      swap1\n      dup3\n      add\n        /* \"#utility.yul\":9003:9033   */\n      mstore\n        /* \"#utility.yul\":9069:9103   */\n      0x5472616e73666572206661696c65643a20546f6b656e7320617265206c6f636b\n        /* \"#utility.yul\":9064:9066   */\n      0x40\n        /* \"#utility.yul\":9049:9067   */\n      dup3\n      add\n        /* \"#utility.yul\":9042:9104   */\n      mstore\n      shl(0xf2, 0x1959)\n        /* \"#utility.yul\":9135:9137   */\n      0x60\n        /* \"#utility.yul\":9120:9138   */\n      dup3\n      add\n        /* \"#utility.yul\":9113:9145   */\n      mstore\n        /* \"#utility.yul\":9177:9180   */\n      0x80\n        /* \"#utility.yul\":9162:9181   */\n      add\n      swap1\n        /* \"#utility.yul\":8789:9187   */\n      jump\t// out\n        /* \"#utility.yul\":9954:10081   */\n    tag_278:\n        /* \"#utility.yul\":10015:10025   */\n      0x4e487b71\n        /* \"#utility.yul\":10010:10013   */\n      0xe0\n        /* \"#utility.yul\":10006:10026   */\n      shl\n        /* \"#utility.yul\":10003:10004   */\n      0x00\n        /* \"#utility.yul\":9996:10027   */\n      mstore\n        /* \"#utility.yul\":10046:10050   */\n      0x32\n        /* \"#utility.yul\":10043:10044   */\n      0x04\n        /* \"#utility.yul\":10036:10051   */\n      mstore\n        /* \"#utility.yul\":10070:10074   */\n      0x24\n        /* \"#utility.yul\":10067:10068   */\n      0x00\n        /* \"#utility.yul\":10060:10075   */\n      revert\n        /* \"#utility.yul\":11672:11856   */\n    tag_417:\n        /* \"#utility.yul\":11742:11748   */\n      0x00\n        /* \"#utility.yul\":11795:11797   */\n      0x20\n        /* \"#utility.yul\":11783:11792   */\n      dup3\n        /* \"#utility.yul\":11774:11781   */\n      dup5\n        /* \"#utility.yul\":11770:11793   */\n      sub\n        /* \"#utility.yul\":11766:11798   */\n      slt\n        /* \"#utility.yul\":11763:11815   */\n      iszero\n      tag_652\n      jumpi\n        /* \"#utility.yul\":11811:11812   */\n      0x00\n        /* \"#utility.yul\":11808:11809   */\n      dup1\n        /* \"#utility.yul\":11801:11813   */\n      revert\n        /* \"#utility.yul\":11763:11815   */\n    tag_652:\n      pop\n        /* \"#utility.yul\":11834:11850   */\n      mload\n      swap2\n        /* \"#utility.yul\":11672:11856   */\n      swap1\n      pop\n      jump\t// out\n        /* \"#utility.yul\":12211:12433   */\n    tag_509:\n        /* \"#utility.yul\":12276:12285   */\n      dup1\n      dup3\n      add\n        /* \"#utility.yul\":12297:12307   */\n      dup1\n      dup3\n      gt\n        /* \"#utility.yul\":12294:12427   */\n      iszero\n      tag_178\n      jumpi\n        /* \"#utility.yul\":12349:12359   */\n      0x4e487b71\n        /* \"#utility.yul\":12344:12347   */\n      0xe0\n        /* \"#utility.yul\":12340:12360   */\n      shl\n        /* \"#utility.yul\":12337:12338   */\n      0x00\n        /* \"#utility.yul\":12330:12361   */\n      mstore\n        /* \"#utility.yul\":12384:12388   */\n      0x11\n        /* \"#utility.yul\":12381:12382   */\n      0x04\n        /* \"#utility.yul\":12374:12389   */\n      mstore\n        /* \"#utility.yul\":12412:12416   */\n      0x24\n        /* \"#utility.yul\":12409:12410   */\n      0x00\n        /* \"#utility.yul\":12402:12417   */\n      revert\n        /* \"#utility.yul\":12564:13082   */\n    tag_571:\n        /* \"#utility.yul\":12666:12668   */\n      0x1f\n        /* \"#utility.yul\":12661:12664   */\n      dup3\n        /* \"#utility.yul\":12658:12669   */\n      gt\n        /* \"#utility.yul\":12655:13076   */\n      iszero\n      tag_366\n      jumpi\n        /* \"#utility.yul\":12702:12707   */\n      dup1\n        /* \"#utility.yul\":12699:12700   */\n      0x00\n        /* \"#utility.yul\":12692:12708   */\n      mstore\n        /* \"#utility.yul\":12746:12750   */\n      0x20\n        /* \"#utility.yul\":12743:12744   */\n      0x00\n        /* \"#utility.yul\":12733:12751   */\n      keccak256\n        /* \"#utility.yul\":12816:12818   */\n      0x1f\n        /* \"#utility.yul\":12804:12814   */\n      dup5\n        /* \"#utility.yul\":12800:12819   */\n      add\n        /* \"#utility.yul\":12797:12798   */\n      0x05\n        /* \"#utility.yul\":12793:12820   */\n      shr\n        /* \"#utility.yul\":12787:12791   */\n      dup2\n        /* \"#utility.yul\":12783:12821   */\n      add\n        /* \"#utility.yul\":12852:12856   */\n      0x20\n        /* \"#utility.yul\":12840:12850   */\n      dup6\n        /* \"#utility.yul\":12837:12857   */\n      lt\n        /* \"#utility.yul\":12834:12881   */\n      iszero\n      tag_659\n      jumpi\n      pop\n        /* \"#utility.yul\":12875:12879   */\n      dup1\n        /* \"#utility.yul\":12834:12881   */\n    tag_659:\n        /* \"#utility.yul\":12930:12932   */\n      0x1f\n        /* \"#utility.yul\":12925:12928   */\n      dup5\n        /* \"#utility.yul\":12921:12933   */\n      add\n        /* \"#utility.yul\":12918:12919   */\n      0x05\n        /* \"#utility.yul\":12914:12934   */\n      shr\n        /* \"#utility.yul\":12908:12912   */\n      dup3\n        /* \"#utility.yul\":12904:12935   */\n      add\n        /* \"#utility.yul\":12894:12935   */\n      swap2\n      pop\n        /* \"#utility.yul\":12985:13066   */\n    tag_660:\n        /* \"#utility.yul\":13003:13005   */\n      dup2\n        /* \"#utility.yul\":12996:13001   */\n      dup2\n        /* \"#utility.yul\":12993:13006   */\n      lt\n        /* \"#utility.yul\":12985:13066   */\n      iszero\n      tag_480\n      jumpi\n        /* \"#utility.yul\":13062:13063   */\n      0x00\n        /* \"#utility.yul\":13048:13064   */\n      dup2\n      sstore\n        /* \"#utility.yul\":13029:13030   */\n      0x01\n        /* \"#utility.yul\":13018:13031   */\n      add\n        /* \"#utility.yul\":12985:13066   */\n      jump(tag_660)\n        /* \"#utility.yul\":13258:14557   */\n    tag_525:\n        /* \"#utility.yul\":13384:13387   */\n      dup2\n        /* \"#utility.yul\":13378:13388   */\n      mload\n        /* \"#utility.yul\":13411:13429   */\n      0xffffffffffffffff\n        /* \"#utility.yul\":13403:13409   */\n      dup2\n        /* \"#utility.yul\":13400:13430   */\n      gt\n        /* \"#utility.yul\":13397:13453   */\n      iszero\n      tag_666\n      jumpi\n        /* \"#utility.yul\":13433:13451   */\n      tag_666\n      tag_566\n      jump\t// in\n    tag_666:\n        /* \"#utility.yul\":13462:13559   */\n      tag_667\n        /* \"#utility.yul\":13552:13558   */\n      dup2\n        /* \"#utility.yul\":13512:13550   */\n      tag_668\n        /* \"#utility.yul\":13544:13548   */\n      dup5\n        /* \"#utility.yul\":13538:13549   */\n      sload\n        /* \"#utility.yul\":13512:13550   */\n      tag_173\n      jump\t// in\n    tag_668:\n        /* \"#utility.yul\":13506:13510   */\n      dup5\n        /* \"#utility.yul\":13462:13559   */\n      tag_571\n      jump\t// in\n    tag_667:\n        /* \"#utility.yul\":13608:13612   */\n      0x20\n        /* \"#utility.yul\":13639:13641   */\n      0x1f\n        /* \"#utility.yul\":13628:13642   */\n      dup3\n      gt\n        /* \"#utility.yul\":13656:13657   */\n      0x01\n        /* \"#utility.yul\":13651:14300   */\n      dup2\n      eq\n      tag_670\n      jumpi\n        /* \"#utility.yul\":14344:14345   */\n      0x00\n        /* \"#utility.yul\":14361:14367   */\n      dup4\n        /* \"#utility.yul\":14358:14447   */\n      iszero\n      tag_671\n      jumpi\n      pop\n        /* \"#utility.yul\":14413:14432   */\n      dup5\n      dup3\n      add\n        /* \"#utility.yul\":14407:14433   */\n      mload\n        /* \"#utility.yul\":14358:14447   */\n    tag_671:\n      not(0x00)\n        /* \"#utility.yul\":13215:13216   */\n      0x03\n        /* \"#utility.yul\":13211:13222   */\n      dup6\n      swap1\n      shl\n        /* \"#utility.yul\":13207:13231   */\n      shr\n        /* \"#utility.yul\":13203:13232   */\n      not\n        /* \"#utility.yul\":13193:13233   */\n      and\n        /* \"#utility.yul\":13239:13240   */\n      0x01\n        /* \"#utility.yul\":13235:13246   */\n      dup5\n      swap1\n      shl\n        /* \"#utility.yul\":13190:13247   */\n      or\n        /* \"#utility.yul\":14460:14541   */\n      dup5\n      sstore\n        /* \"#utility.yul\":13621:14551   */\n      jump(tag_480)\n        /* \"#utility.yul\":13651:14300   */\n    tag_670:\n        /* \"#utility.yul\":12511:12512   */\n      0x00\n        /* \"#utility.yul\":12504:12518   */\n      dup5\n      dup2\n      mstore\n        /* \"#utility.yul\":12548:12552   */\n      0x20\n        /* \"#utility.yul\":12535:12553   */\n      dup2\n      keccak256\n      not(0x1f)\n        /* \"#utility.yul\":13687:13707   */\n      dup6\n      and\n      swap2\n        /* \"#utility.yul\":13805:14027   */\n    tag_674:\n        /* \"#utility.yul\":13819:13826   */\n      dup3\n        /* \"#utility.yul\":13816:13817   */\n      dup2\n        /* \"#utility.yul\":13813:13827   */\n      lt\n        /* \"#utility.yul\":13805:14027   */\n      iszero\n      tag_676\n      jumpi\n        /* \"#utility.yul\":13901:13920   */\n      dup8\n      dup6\n      add\n        /* \"#utility.yul\":13895:13921   */\n      mload\n        /* \"#utility.yul\":13880:13922   */\n      dup3\n      sstore\n        /* \"#utility.yul\":14008:14012   */\n      0x20\n        /* \"#utility.yul\":13993:14013   */\n      swap5\n      dup6\n      add\n      swap5\n        /* \"#utility.yul\":13961:13962   */\n      0x01\n        /* \"#utility.yul\":13949:13963   */\n      swap1\n      swap3\n      add\n      swap2\n        /* \"#utility.yul\":13835:13847   */\n      add\n        /* \"#utility.yul\":13805:14027   */\n      jump(tag_674)\n    tag_676:\n        /* \"#utility.yul\":13809:13812   */\n      pop\n        /* \"#utility.yul\":14055:14061   */\n      dup5\n        /* \"#utility.yul\":14046:14053   */\n      dup3\n        /* \"#utility.yul\":14043:14062   */\n      lt\n        /* \"#utility.yul\":14040:14241   */\n      iszero\n      tag_677\n      jumpi\n        /* \"#utility.yul\":14116:14135   */\n      dup7\n      dup5\n      add\n        /* \"#utility.yul\":14110:14136   */\n      mload\n      not(0x00)\n        /* \"#utility.yul\":14199:14200   */\n      0x03\n        /* \"#utility.yul\":14195:14209   */\n      dup8\n      swap1\n      shl\n        /* \"#utility.yul\":14211:14214   */\n      0xf8\n        /* \"#utility.yul\":14191:14215   */\n      and\n        /* \"#utility.yul\":14187:14224   */\n      shr\n        /* \"#utility.yul\":14183:14225   */\n      not\n        /* \"#utility.yul\":14168:14226   */\n      and\n        /* \"#utility.yul\":14153:14227   */\n      dup2\n      sstore\n        /* \"#utility.yul\":14040:14241   */\n    tag_677:\n      pop\n      pop\n      pop\n      pop\n        /* \"#utility.yul\":14287:14288   */\n      0x01\n        /* \"#utility.yul\":14271:14285   */\n      swap1\n      dup2\n      shl\n        /* \"#utility.yul\":14267:14289   */\n      add\n        /* \"#utility.yul\":14254:14290   */\n      swap1\n      sstore\n      pop\n        /* \"#utility.yul\":13258:14557   */\n      jump\t// out\n        /* \"#utility.yul\":14562:14863   */\n    tag_544:\n        /* \"#utility.yul\":14691:14694   */\n      0x00\n        /* \"#utility.yul\":14729:14735   */\n      dup3\n        /* \"#utility.yul\":14723:14736   */\n      mload\n        /* \"#utility.yul\":14775:14781   */\n      dup1\n        /* \"#utility.yul\":14768:14772   */\n      0x20\n        /* \"#utility.yul\":14760:14766   */\n      dup6\n        /* \"#utility.yul\":14756:14773   */\n      add\n        /* \"#utility.yul\":14751:14754   */\n      dup5\n        /* \"#utility.yul\":14745:14782   */\n      mcopy\n        /* \"#utility.yul\":14837:14838   */\n      0x00\n        /* \"#utility.yul\":14801:14817   */\n      swap3\n      add\n        /* \"#utility.yul\":14826:14839   */\n      swap2\n      dup3\n      mstore\n      pop\n        /* \"#utility.yul\":14801:14817   */\n      swap2\n        /* \"#utility.yul\":14562:14863   */\n      swap1\n      pop\n      jump\t// out\n    stop\n    data_3874827173e8df9f34323b12b251d1d3c53926ce129e30a0d69f1d47c277041b 52c63247e1f47db19d5ce0460030c497f067ca4cebf71ba98eeadabe20bace00\n    data_75b20eef8615de99c108b05f0dbda081c91897128caa336d75dffb97c4132b4d 360894a13ba1a3210667c828492db98dca3e2076cc3735a920a3ca505d382bbc\n    data_c0c65a3718f3702d917c44106b91645b509d2e2d0979b70495c3babce192339f cd5ed15c6e187e77e9aee88184c21f4f2182ab5827cb3b7e07fbedcd63f03300\n    data_c8669cf8eaf883002b9f48e28846a8d408c9b58ea6613bace374265e43c9bc43 9b779b17422d0df92223018b32b4d1fa46e071723d6817e2486d003becc55f00\n\n    auxdata: 0xa264697066735822122043603465f259d3e87eba2371d0b0c56d8f1f7391166860492ba6cb00a95536f564736f6c634300081a0033\n}\n",
				"bytecode": {
					"linkReferences": {},
					"object": "60a060405230608052348015610013575f80fd5b5061001c610021565b6100d3565b7ff0c57e16840df040f15088dc2f81fe391c3923bec73e23a9662efc9c229c6a00805468010000000000000000900460ff16156100715760405163f92ee8a960e01b815260040160405180910390fd5b80546001600160401b03908116146100d05780546001600160401b0319166001600160401b0390811782556040519081527fc7f505b2f371ae2175ee4913f4499e1f2633a7b5936321eed1cdaeb6115181d29060200160405180910390a15b50565b6080516120cd6100f95f395f81816111660152818161118f01526112f401526120cd5ff3fe6080604052600436106101af575f3560e01c806388d695b2116100e7578063b119490e11610087578063dd62ed3e11610062578063dd62ed3e1461051c578063f2fde38b1461053b578063f326f0d71461055a578063fe575a8714610579575f80fd5b8063b119490e146104b1578063c66e4095146104d0578063dbac26e9146104ee575f80fd5b80639bc289f1116100c25780639bc289f11461040c578063a153e70814610437578063a9059cbb14610462578063ad3cb1cc14610481575f80fd5b806388d695b2146103895780638da5cb5b146103a857806395d89b41146103f8575f80fd5b80633f4ba83a116101525780635c975abb1161012d5780635c975abb146102fe57806370a0823114610321578063715018a6146103615780638456cb5914610375575f80fd5b80633f4ba83a146102c35780634f1ef286146102d757806352d1902d146102ea575f80fd5b806318160ddd1161018d57806318160ddd1461022d57806323b872dd1461026a5780632e0d2a0014610289578063313ce567146102a8575f80fd5b806306fdde03146101b3578063095ea7b3146101dd578063153b0d1e1461020c575b5f80fd5b3480156101be575f80fd5b506101c76105b0565b6040516101d491906119fb565b60405180910390f35b3480156101e8575f80fd5b506101fc6101f7366004611a4b565b610670565b60405190151581526020016101d4565b348015610217575f80fd5b5061022b610226366004611a73565b610689565b005b348015610238575f80fd5b507f52c63247e1f47db19d5ce0460030c497f067ca4cebf71ba98eeadabe20bace02545b6040519081526020016101d4565b348015610275575f80fd5b506101fc610284366004611aac565b61071e565b348015610294575f80fd5b5061022b6102a3366004611ae6565b61086a565b3480156102b3575f80fd5b50604051601281526020016101d4565b3480156102ce575f80fd5b5061022b61095c565b61022b6102e5366004611b8a565b61096e565b3480156102f5575f80fd5b5061025c61098d565b348015610309575f80fd5b505f805160206120588339815191525460ff166101fc565b34801561032c575f80fd5b5061025c61033b366004611ae6565b6001600160a01b03165f9081525f80516020612018833981519152602052604090205490565b34801561036c575f80fd5b5061022b6109a8565b348015610380575f80fd5b5061022b6109b9565b348015610394575f80fd5b5061022b6103a3366004611c30565b6109c9565b3480156103b3575f80fd5b507f9016d09d72d40fdae2fd8ceac6b6234c7706214fd39c1cd1e609a0528c199300546001600160a01b03165b6040516001600160a01b0390911681526020016101d4565b348015610403575f80fd5b506101c7610b5c565b348015610417575f80fd5b5061025c610426366004611ae6565b60036020525f908152604090205481565b348015610442575f80fd5b5061025c610451366004611ae6565b60046020525f908152604090205481565b34801561046d575f80fd5b506101fc61047c366004611a4b565b610b9a565b34801561048c575f80fd5b506101c7604051806040016040528060058152602001640352e302e360dc1b81525081565b3480156104bc575f80fd5b5061022b6104cb366004611cba565b610cc3565b3480156104db575f80fd5b505f546103e0906001600160a01b031681565b3480156104f9575f80fd5b506101fc610508366004611ae6565b60026020525f908152604090205460ff1681565b348015610527575f80fd5b5061025c610536366004611d28565b610dfc565b348015610546575f80fd5b5061022b610555366004611ae6565b610e45565b348015610565575f80fd5b5061022b610574366004611d59565b610e7f565b348015610584575f80fd5b506101fc610593366004611ae6565b6001600160a01b03165f9081526002602052604090205460ff1690565b7f52c63247e1f47db19d5ce0460030c497f067ca4cebf71ba98eeadabe20bace0380546060915f80516020612018833981519152916105ee90611d89565b80601f016020809104026020016040519081016040528092919081815260200182805461061a90611d89565b80156106655780601f1061063c57610100808354040283529160200191610665565b820191905f5260205f20905b81548152906001019060200180831161064857829003601f168201915b505050505091505090565b5f3361067d81858561100a565b60019150505b92915050565b610691611017565b6001600160a01b0382166106c05760405162461bcd60e51b81526004016106b790611dc1565b60405180910390fd5b6001600160a01b0382165f81815260026020908152604091829020805460ff191685151590811790915591519182527fcf3473b85df1594d47b6958f29a32bea0abff9dd68296f7bf33443646793cfd8910160405180910390a25050565b5f610727611072565b61072f6110a9565b6001600160a01b0384165f9081526002602052604090205460ff16156107675760405162461bcd60e51b81526004016106b790611de7565b6001600160a01b0383165f9081526002602052604090205460ff161561079f5760405162461bcd60e51b81526004016106b790611e2d565b815f036107e95760405162461bcd60e51b8152602060048201526018602482015277416d6f756e742073686f756c646e2774206265207a65726f60401b60448201526064016106b7565b6001600160a01b0384165f908152600360205260409020544210158061082457506001600160a01b0384165f90815260036020526040902054155b6108405760405162461bcd60e51b81526004016106b790611e76565b61084b8484846110d9565b905061086360015f8051602061207883398151915255565b9392505050565b610872611072565b61087a6110a9565b610882611017565b6001600160a01b0381166108a85760405162461bcd60e51b81526004016106b790611dc1565b6001600160a01b0381163b6108ff5760405162461bcd60e51b815260206004820152601960248201527f41646472657373206973206e6f74206120636f6e74726163740000000000000060448201526064016106b7565b5f80546001600160a01b0319166001600160a01b038316908117825560405190917fe7bbfbbf7e7948988eb7f8904da938aff02a23b8b28fcee206be4d4b3edd9ad891a261095960015f8051602061207883398151915255565b50565b610964611017565b61096c6110fc565b565b61097661115b565b61097f826111ff565b610989828261122d565b5050565b5f6109966112e9565b505f8051602061203883398151915290565b6109b0611017565b61096c5f611332565b6109c1611017565b61096c6113a2565b6109d1611072565b6109d96110a9565b828114610a385760405162461bcd60e51b815260206004820152602760248201527f42617463685472616e73666572206661696c65643a204d69736d6174636865646044820152662061727261797360c81b60648201526084016106b7565b825f5b81811015610b3e5760025f878784818110610a5857610a58611eb8565b9050602002016020810190610a6d9190611ae6565b6001600160a01b0316815260208101919091526040015f205460ff1615610aed5760405162461bcd60e51b815260206004820152602e60248201527f42617463685472616e73666572206661696c65643a20526563697069656e742060448201526d1a5cc8189b1858dadb1a5cdd195960921b60648201526084016106b7565b610b3633878784818110610b0357610b03611eb8565b9050602002016020810190610b189190611ae6565b868685818110610b2a57610b2a611eb8565b905060200201356113ea565b600101610a3b565b5050610b5660015f8051602061207883398151915255565b50505050565b7f52c63247e1f47db19d5ce0460030c497f067ca4cebf71ba98eeadabe20bace0480546060915f80516020612018833981519152916105ee90611d89565b5f610ba3611072565b610bab6110a9565b335f9081526002602052604090205460ff1615610bda5760405162461bcd60e51b81526004016106b790611de7565b6001600160a01b0383165f9081526002602052604090205460ff1615610c125760405162461bcd60e51b81526004016106b790611e2d565b815f03610c5c5760405162461bcd60e51b8152602060048201526018602482015277416d6f756e742073686f756c646e2774206265207a65726f60401b60448201526064016106b7565b335f9081526003602052604090205442101580610c855750335f90815260036020526040902054155b610ca15760405162461bcd60e51b81526004016106b790611e76565b610cab8383611447565b905061068360015f8051602061207883398151915255565b7ff0c57e16840df040f15088dc2f81fe391c3923bec73e23a9662efc9c229c6a008054600160401b810460ff16159067ffffffffffffffff165f81158015610d085750825b90505f8267ffffffffffffffff166001148015610d245750303b155b905081158015610d32575080155b15610d505760405163f92ee8a960e01b815260040160405180910390fd5b845467ffffffffffffffff191660011785558315610d7a57845460ff60401b1916600160401b1785555b610d848888611454565b610d8d33611466565b610d95611477565b610d9d611487565b6001869055610dac338761148f565b8315610df257845460ff60401b19168555604051600181527fc7f505b2f371ae2175ee4913f4499e1f2633a7b5936321eed1cdaeb6115181d29060200160405180910390a15b5050505050505050565b6001600160a01b039182165f9081527f52c63247e1f47db19d5ce0460030c497f067ca4cebf71ba98eeadabe20bace016020908152604080832093909416825291909152205490565b610e4d611017565b6001600160a01b038116610e7657604051631e4fbdf760e01b81525f60048201526024016106b7565b61095981611332565b610e87611072565b610e8f6110a9565b5f546001600160a01b03163314610ed95760405162461bcd60e51b815260206004820152600e60248201526d139bdd08185d5d1a1bdc9a5e995960921b60448201526064016106b7565b6001600160a01b038316610eff5760405162461bcd60e51b81526004016106b790611dc1565b805f03610f4e5760405162461bcd60e51b815260206004820181905260248201527f416d6f756e74206d7573742062652067726561746572207468616e207a65726f60448201526064016106b7565b6001600160a01b0383165f9081526003602052604090205482141580610f8b57506001600160a01b0383165f908152600460205260409020548114155b15610fef576001600160a01b0383165f818152600360209081526040808320869055600482529182902084905581518581529081018490527f86f2e10d5622d896b3f56e66c1a60639ca21a4674480f054bec2cb9ba62f40cb910160405180910390a25b61100560015f8051602061207883398151915255565b505050565b61100583838360016114c3565b336110497f9016d09d72d40fdae2fd8ceac6b6234c7706214fd39c1cd1e609a0528c199300546001600160a01b031690565b6001600160a01b03161461096c5760405163118cdaa760e01b81523360048201526024016106b7565b5f805160206120788339815191528054600119016110a357604051633ee5aeb560e01b815260040160405180910390fd5b60029055565b5f805160206120588339815191525460ff161561096c5760405163d93c066560e01b815260040160405180910390fd5b5f336110e68582856115a7565b6110f18585856113ea565b506001949350505050565b611104611604565b5f80516020612058833981519152805460ff191681557f5db9ee0a495bf2e6ff9c91a7834c1ba4fdd244a5e8aa4e537bd38aeae4b073aa335b6040516001600160a01b03909116815260200160405180910390a150565b306001600160a01b037f00000000000000000000000000000000000000000000000000000000000000001614806111e157507f00000000000000000000000000000000000000000000000000000000000000006001600160a01b03166111d55f80516020612038833981519152546001600160a01b031690565b6001600160a01b031614155b1561096c5760405163703e46dd60e11b815260040160405180910390fd5b611207611072565b61120f6110a9565b611217611017565b61095960015f8051602061207883398151915255565b816001600160a01b03166352d1902d6040518163ffffffff1660e01b8152600401602060405180830381865afa925050508015611287575060408051601f3d908101601f1916820190925261128491810190611ecc565b60015b6112af57604051634c9c8ce360e01b81526001600160a01b03831660048201526024016106b7565b5f8051602061203883398151915281146112df57604051632a87526960e21b8152600481018290526024016106b7565b6110058383611633565b306001600160a01b037f0000000000000000000000000000000000000000000000000000000000000000161461096c5760405163703e46dd60e11b815260040160405180910390fd5b7f9016d09d72d40fdae2fd8ceac6b6234c7706214fd39c1cd1e609a0528c19930080546001600160a01b031981166001600160a01b03848116918217845560405192169182907f8be0079c531659141344cd1fd0a4f28419497f9722a3daafe3b4186f6b6457e0905f90a3505050565b6113aa6110a9565b5f80516020612058833981519152805460ff191660011781557f62e78cea01bee320cd4e420270b5ea74000d11b0c9f74754ebdbfc544b05a2583361113d565b6001600160a01b03831661141357604051634b637e8f60e11b81525f60048201526024016106b7565b6001600160a01b03821661143c5760405163ec442f0560e01b81525f60048201526024016106b7565b611005838383611688565b5f3361067d8185856113ea565b61145c6117c1565b610989828261180a565b61146e6117c1565b6109598161185a565b61147f6117c1565b61096c611862565b61096c6117c1565b6001600160a01b0382166114b85760405163ec442f0560e01b81525f60048201526024016106b7565b6109895f8383611688565b5f805160206120188339815191526001600160a01b0385166114fa5760405163e602df0560e01b81525f60048201526024016106b7565b6001600160a01b03841661152357604051634a1406b160e11b81525f60048201526024016106b7565b6001600160a01b038086165f908152600183016020908152604080832093881683529290522083905581156115a057836001600160a01b0316856001600160a01b03167f8c5be1e5ebec7d5bd14f71427d1e84f3dd0314c0f7b2291e5b200ac8c7c3b9258560405161159791815260200190565b60405180910390a35b5050505050565b5f6115b28484610dfc565b90505f198114610b5657818110156115f657604051637dc7a0d960e11b81526001600160a01b038416600482015260248101829052604481018390526064016106b7565b610b5684848484035f6114c3565b5f805160206120588339815191525460ff1661096c57604051638dfc202b60e01b815260040160405180910390fd5b61163c82611882565b6040516001600160a01b038316907fbc7cd75a20ee27fd9adebab32041f755214dbc6bffa90cc0225b39da2e5c2d3b905f90a28051156116805761100582826118e5565b610989611957565b5f805160206120188339815191526001600160a01b0384166116c25781816002015f8282546116b79190611ee3565b909155506117329050565b6001600160a01b0384165f90815260208290526040902054828110156117145760405163391434e360e21b81526001600160a01b038616600482015260248101829052604481018490526064016106b7565b6001600160a01b0385165f9081526020839052604090209083900390555b6001600160a01b03831661175057600281018054839003905561176e565b6001600160a01b0383165f9081526020829052604090208054830190555b826001600160a01b0316846001600160a01b03167fddf252ad1be2c89b69c2b068fc378daa952ba7f163c4a11628f55a4df523b3ef846040516117b391815260200190565b60405180910390a350505050565b7ff0c57e16840df040f15088dc2f81fe391c3923bec73e23a9662efc9c229c6a0054600160401b900460ff1661096c57604051631afcd79f60e31b815260040160405180910390fd5b6118126117c1565b5f805160206120188339815191527f52c63247e1f47db19d5ce0460030c497f067ca4cebf71ba98eeadabe20bace0361184b8482611f46565b5060048101610b568382611f46565b610e4d6117c1565b61186a6117c1565b5f80516020612058833981519152805460ff19169055565b806001600160a01b03163b5f036118b757604051634c9c8ce360e01b81526001600160a01b03821660048201526024016106b7565b5f8051602061203883398151915280546001600160a01b0319166001600160a01b0392909216919091179055565b60605f80846001600160a01b0316846040516119019190612001565b5f60405180830381855af49150503d805f8114611939576040519150601f19603f3d011682016040523d82523d5f602084013e61193e565b606091505b509150915061194e858383611976565b95945050505050565b341561096c5760405163b398979f60e01b815260040160405180910390fd5b60608261198b57611986826119d2565b610863565b81511580156119a257506001600160a01b0384163b155b156119cb57604051639996b31560e01b81526001600160a01b03851660048201526024016106b7565b5080610863565b8051156119e25780518082602001fd5b60405163d6bda27560e01b815260040160405180910390fd5b602081525f82518060208401528060208501604085015e5f604082850101526040601f19601f83011684010191505092915050565b80356001600160a01b0381168114611a46575f80fd5b919050565b5f8060408385031215611a5c575f80fd5b611a6583611a30565b946020939093013593505050565b5f8060408385031215611a84575f80fd5b611a8d83611a30565b915060208301358015158114611aa1575f80fd5b809150509250929050565b5f805f60608486031215611abe575f80fd5b611ac784611a30565b9250611ad560208501611a30565b929592945050506040919091013590565b5f60208284031215611af6575f80fd5b61086382611a30565b634e487b7160e01b5f52604160045260245ffd5b5f8067ffffffffffffffff841115611b2d57611b2d611aff565b50604051601f19601f85018116603f0116810181811067ffffffffffffffff82111715611b5c57611b5c611aff565b604052838152905080828401851015611b73575f80fd5b838360208301375f60208583010152509392505050565b5f8060408385031215611b9b575f80fd5b611ba483611a30565b9150602083013567ffffffffffffffff811115611bbf575f80fd5b8301601f81018513611bcf575f80fd5b611bde85823560208401611b13565b9150509250929050565b5f8083601f840112611bf8575f80fd5b50813567ffffffffffffffff811115611c0f575f80fd5b6020830191508360208260051b8501011115611c29575f80fd5b9250929050565b5f805f8060408587031215611c43575f80fd5b843567ffffffffffffffff811115611c59575f80fd5b611c6587828801611be8565b909550935050602085013567ffffffffffffffff811115611c84575f80fd5b611c9087828801611be8565b95989497509550505050565b5f82601f830112611cab575f80fd5b61086383833560208501611b13565b5f805f60608486031215611ccc575f80fd5b833567ffffffffffffffff811115611ce2575f80fd5b611cee86828701611c9c565b935050602084013567ffffffffffffffff811115611d0a575f80fd5b611d1686828701611c9c565b93969395505050506040919091013590565b5f8060408385031215611d39575f80fd5b611d4283611a30565b9150611d5060208401611a30565b90509250929050565b5f805f60608486031215611d6b575f80fd5b611d7484611a30565b95602085013595506040909401359392505050565b600181811c90821680611d9d57607f821691505b602082108103611dbb57634e487b7160e01b5f52602260045260245ffd5b50919050565b6020808252600c908201526b4e756c6c204164647265737360a01b604082015260600190565b60208082526026908201527f5472616e73666572206661696c65643a2053656e64657220697320626c61636b6040820152651b1a5cdd195960d21b606082015260800190565b60208082526029908201527f5472616e73666572206661696c65643a20526563697069656e7420697320626c6040820152681858dadb1a5cdd195960ba1b606082015260800190565b60208082526022908201527f5472616e73666572206661696c65643a20546f6b656e7320617265206c6f636b604082015261195960f21b606082015260800190565b634e487b7160e01b5f52603260045260245ffd5b5f60208284031215611edc575f80fd5b5051919050565b8082018082111561068357634e487b7160e01b5f52601160045260245ffd5b601f82111561100557805f5260205f20601f840160051c81016020851015611f275750805b601f840160051c820191505b818110156115a0575f8155600101611f33565b815167ffffffffffffffff811115611f6057611f60611aff565b611f7481611f6e8454611d89565b84611f02565b6020601f821160018114611fa6575f8315611f8f5750848201515b5f19600385901b1c1916600184901b1784556115a0565b5f84815260208120601f198516915b82811015611fd55787850151825560209485019460019092019101611fb5565b5084821015611ff257868401515f19600387901b60f8161c191681555b50505050600190811b01905550565b5f82518060208501845e5f92019182525091905056fe52c63247e1f47db19d5ce0460030c497f067ca4cebf71ba98eeadabe20bace00360894a13ba1a3210667c828492db98dca3e2076cc3735a920a3ca505d382bbccd5ed15c6e187e77e9aee88184c21f4f2182ab5827cb3b7e07fbedcd63f033009b779b17422d0df92223018b32b4d1fa46e071723d6817e2486d003becc55f00a264697066735822122043603465f259d3e87eba2371d0b0c56d8f1f7391166860492ba6cb00a95536f564736f6c634300081a0033",
					"opcodes": "PUSH1 0xA0 PUSH1 0x40 MSTORE ADDRESS PUSH1 0x80 MSTORE CALLVALUE DUP1 ISZERO PUSH2 0x13 JUMPI PUSH0 DUP1 REVERT JUMPDEST POP PUSH2 0x1C PUSH2 0x21 JUMP JUMPDEST PUSH2 0xD3 JUMP JUMPDEST PUSH32 0xF0C57E16840DF040F15088DC2F81FE391C3923BEC73E23A9662EFC9C229C6A00 DUP1 SLOAD PUSH9 0x10000000000000000 SWAP1 DIV PUSH1 0xFF AND ISZERO PUSH2 0x71 JUMPI PUSH1 0x40 MLOAD PUSH4 0xF92EE8A9 PUSH1 0xE0 SHL DUP2 MSTORE PUSH1 0x4 ADD PUSH1 0x40 MLOAD DUP1 SWAP2 SUB SWAP1 REVERT JUMPDEST DUP1 SLOAD PUSH1 0x1 PUSH1 0x1 PUSH1 0x40 SHL SUB SWAP1 DUP2 AND EQ PUSH2 0xD0 JUMPI DUP1 SLOAD PUSH1 0x1 PUSH1 0x1 PUSH1 0x40 SHL SUB NOT AND PUSH1 0x1 PUSH1 0x1 PUSH1 0x40 SHL SUB SWAP1 DUP2 OR DUP3 SSTORE PUSH1 0x40 MLOAD SWAP1 DUP2 MSTORE PUSH32 0xC7F505B2F371AE2175EE4913F4499E1F2633A7B5936321EED1CDAEB6115181D2 SWAP1 PUSH1 0x20 ADD PUSH1 0x40 MLOAD DUP1 SWAP2 SUB SWAP1 LOG1 JUMPDEST POP JUMP JUMPDEST PUSH1 0x80 MLOAD PUSH2 0x20CD PUSH2 0xF9 PUSH0 CODECOPY PUSH0 DUP2 DUP2 PUSH2 0x1166 ADD MSTORE DUP2 DUP2 PUSH2 0x118F ADD MSTORE PUSH2 0x12F4 ADD MSTORE PUSH2 0x20CD PUSH0 RETURN INVALID PUSH1 0x80 PUSH1 0x40 MSTORE PUSH1 0x4 CALLDATASIZE LT PUSH2 0x1AF JUMPI PUSH0 CALLDATALOAD PUSH1 0xE0 SHR DUP1 PUSH4 0x88D695B2 GT PUSH2 0xE7 JUMPI DUP1 PUSH4 0xB119490E GT PUSH2 0x87 JUMPI DUP1 PUSH4 0xDD62ED3E GT PUSH2 0x62 JUMPI DUP1 PUSH4 0xDD62ED3E EQ PUSH2 0x51C JUMPI DUP1 PUSH4 0xF2FDE38B EQ PUSH2 0x53B JUMPI DUP1 PUSH4 0xF326F0D7 EQ PUSH2 0x55A JUMPI DUP1 PUSH4 0xFE575A87 EQ PUSH2 0x579 JUMPI PUSH0 DUP1 REVERT JUMPDEST DUP1 PUSH4 0xB119490E EQ PUSH2 0x4B1 JUMPI DUP1 PUSH4 0xC66E4095 EQ PUSH2 0x4D0 JUMPI DUP1 PUSH4 0xDBAC26E9 EQ PUSH2 0x4EE JUMPI PUSH0 DUP1 REVERT JUMPDEST DUP1 PUSH4 0x9BC289F1 GT PUSH2 0xC2 JUMPI DUP1 PUSH4 0x9BC289F1 EQ PUSH2 0x40C JUMPI DUP1 PUSH4 0xA153E708 EQ PUSH2 0x437 JUMPI DUP1 PUSH4 0xA9059CBB EQ PUSH2 0x462 JUMPI DUP1 PUSH4 0xAD3CB1CC EQ PUSH2 0x481 JUMPI PUSH0 DUP1 REVERT JUMPDEST DUP1 PUSH4 0x88D695B2 EQ PUSH2 0x389 JUMPI DUP1 PUSH4 0x8DA5CB5B EQ PUSH2 0x3A8 JUMPI DUP1 PUSH4 0x95D89B41 EQ PUSH2 0x3F8 JUMPI PUSH0 DUP1 REVERT JUMPDEST DUP1 PUSH4 0x3F4BA83A GT PUSH2 0x152 JUMPI DUP1 PUSH4 0x5C975ABB GT PUSH2 0x12D JUMPI DUP1 PUSH4 0x5C975ABB EQ PUSH2 0x2FE JUMPI DUP1 PUSH4 0x70A08231 EQ PUSH2 0x321 JUMPI DUP1 PUSH4 0x715018A6 EQ PUSH2 0x361 JUMPI DUP1 PUSH4 0x8456CB59 EQ PUSH2 0x375 JUMPI PUSH0 DUP1 REVERT JUMPDEST DUP1 PUSH4 0x3F4BA83A EQ PUSH2 0x2C3 JUMPI DUP1 PUSH4 0x4F1EF286 EQ PUSH2 0x2D7 JUMPI DUP1 PUSH4 0x52D1902D EQ PUSH2 0x2EA JUMPI PUSH0 DUP1 REVERT JUMPDEST DUP1 PUSH4 0x18160DDD GT PUSH2 0x18D JUMPI DUP1 PUSH4 0x18160DDD EQ PUSH2 0x22D JUMPI DUP1 PUSH4 0x23B872DD EQ PUSH2 0x26A JUMPI DUP1 PUSH4 0x2E0D2A00 EQ PUSH2 0x289 JUMPI DUP1 PUSH4 0x313CE567 EQ PUSH2 0x2A8 JUMPI PUSH0 DUP1 REVERT JUMPDEST DUP1 PUSH4 0x6FDDE03 EQ PUSH2 0x1B3 JUMPI DUP1 PUSH4 0x95EA7B3 EQ PUSH2 0x1DD JUMPI DUP1 PUSH4 0x153B0D1E EQ PUSH2 0x20C JUMPI JUMPDEST PUSH0 DUP1 REVERT JUMPDEST CALLVALUE DUP1 ISZERO PUSH2 0x1BE JUMPI PUSH0 DUP1 REVERT JUMPDEST POP PUSH2 0x1C7 PUSH2 0x5B0 JUMP JUMPDEST PUSH1 0x40 MLOAD PUSH2 0x1D4 SWAP2 SWAP1 PUSH2 0x19FB JUMP JUMPDEST PUSH1 0x40 MLOAD DUP1 SWAP2 SUB SWAP1 RETURN JUMPDEST CALLVALUE DUP1 ISZERO PUSH2 0x1E8 JUMPI PUSH0 DUP1 REVERT JUMPDEST POP PUSH2 0x1FC PUSH2 0x1F7 CALLDATASIZE PUSH1 0x4 PUSH2 0x1A4B JUMP JUMPDEST PUSH2 0x670 JUMP JUMPDEST PUSH1 0x40 MLOAD SWAP1 ISZERO ISZERO DUP2 MSTORE PUSH1 0x20 ADD PUSH2 0x1D4 JUMP JUMPDEST CALLVALUE DUP1 ISZERO PUSH2 0x217 JUMPI PUSH0 DUP1 REVERT JUMPDEST POP PUSH2 0x22B PUSH2 0x226 CALLDATASIZE PUSH1 0x4 PUSH2 0x1A73 JUMP JUMPDEST PUSH2 0x689 JUMP JUMPDEST STOP JUMPDEST CALLVALUE DUP1 ISZERO PUSH2 0x238 JUMPI PUSH0 DUP1 REVERT JUMPDEST POP PUSH32 0x52C63247E1F47DB19D5CE0460030C497F067CA4CEBF71BA98EEADABE20BACE02 SLOAD JUMPDEST PUSH1 0x40 MLOAD SWAP1 DUP2 MSTORE PUSH1 0x20 ADD PUSH2 0x1D4 JUMP JUMPDEST CALLVALUE DUP1 ISZERO PUSH2 0x275 JUMPI PUSH0 DUP1 REVERT JUMPDEST POP PUSH2 0x1FC PUSH2 0x284 CALLDATASIZE PUSH1 0x4 PUSH2 0x1AAC JUMP JUMPDEST PUSH2 0x71E JUMP JUMPDEST CALLVALUE DUP1 ISZERO PUSH2 0x294 JUMPI PUSH0 DUP1 REVERT JUMPDEST POP PUSH2 0x22B PUSH2 0x2A3 CALLDATASIZE PUSH1 0x4 PUSH2 0x1AE6 JUMP JUMPDEST PUSH2 0x86A JUMP JUMPDEST CALLVALUE DUP1 ISZERO PUSH2 0x2B3 JUMPI PUSH0 DUP1 REVERT JUMPDEST POP PUSH1 0x40 MLOAD PUSH1 0x12 DUP2 MSTORE PUSH1 0x20 ADD PUSH2 0x1D4 JUMP JUMPDEST CALLVALUE DUP1 ISZERO PUSH2 0x2CE JUMPI PUSH0 DUP1 REVERT JUMPDEST POP PUSH2 0x22B PUSH2 0x95C JUMP JUMPDEST PUSH2 0x22B PUSH2 0x2E5 CALLDATASIZE PUSH1 0x4 PUSH2 0x1B8A JUMP JUMPDEST PUSH2 0x96E JUMP JUMPDEST CALLVALUE DUP1 ISZERO PUSH2 0x2F5 JUMPI PUSH0 DUP1 REVERT JUMPDEST POP PUSH2 0x25C PUSH2 0x98D JUMP JUMPDEST CALLVALUE DUP1 ISZERO PUSH2 0x309 JUMPI PUSH0 DUP1 REVERT JUMPDEST POP PUSH0 DUP1 MLOAD PUSH1 0x20 PUSH2 0x2058 DUP4 CODECOPY DUP2 MLOAD SWAP2 MSTORE SLOAD PUSH1 0xFF AND PUSH2 0x1FC JUMP JUMPDEST CALLVALUE DUP1 ISZERO PUSH2 0x32C JUMPI PUSH0 DUP1 REVERT JUMPDEST POP PUSH2 0x25C PUSH2 0x33B CALLDATASIZE PUSH1 0x4 PUSH2 0x1AE6 JUMP JUMPDEST PUSH1 0x1 PUSH1 0x1 PUSH1 0xA0 SHL SUB AND PUSH0 SWAP1 DUP2 MSTORE PUSH0 DUP1 MLOAD PUSH1 0x20 PUSH2 0x2018 DUP4 CODECOPY DUP2 MLOAD SWAP2 MSTORE PUSH1 0x20 MSTORE PUSH1 0x40 SWAP1 KECCAK256 SLOAD SWAP1 JUMP JUMPDEST CALLVALUE DUP1 ISZERO PUSH2 0x36C JUMPI PUSH0 DUP1 REVERT JUMPDEST POP PUSH2 0x22B PUSH2 0x9A8 JUMP JUMPDEST CALLVALUE DUP1 ISZERO PUSH2 0x380 JUMPI PUSH0 DUP1 REVERT JUMPDEST POP PUSH2 0x22B PUSH2 0x9B9 JUMP JUMPDEST CALLVALUE DUP1 ISZERO PUSH2 0x394 JUMPI PUSH0 DUP1 REVERT JUMPDEST POP PUSH2 0x22B PUSH2 0x3A3 CALLDATASIZE PUSH1 0x4 PUSH2 0x1C30 JUMP JUMPDEST PUSH2 0x9C9 JUMP JUMPDEST CALLVALUE DUP1 ISZERO PUSH2 0x3B3 JUMPI PUSH0 DUP1 REVERT JUMPDEST POP PUSH32 0x9016D09D72D40FDAE2FD8CEAC6B6234C7706214FD39C1CD1E609A0528C199300 SLOAD PUSH1 0x1 PUSH1 0x1 PUSH1 0xA0 SHL SUB AND JUMPDEST PUSH1 0x40 MLOAD PUSH1 0x1 PUSH1 0x1 PUSH1 0xA0 SHL SUB SWAP1 SWAP2 AND DUP2 MSTORE PUSH1 0x20 ADD PUSH2 0x1D4 JUMP JUMPDEST CALLVALUE DUP1 ISZERO PUSH2 0x403 JUMPI PUSH0 DUP1 REVERT JUMPDEST POP PUSH2 0x1C7 PUSH2 0xB5C JUMP JUMPDEST CALLVALUE DUP1 ISZERO PUSH2 0x417 JUMPI PUSH0 DUP1 REVERT JUMPDEST POP PUSH2 0x25C PUSH2 0x426 CALLDATASIZE PUSH1 0x4 PUSH2 0x1AE6 JUMP JUMPDEST PUSH1 0x3 PUSH1 0x20 MSTORE PUSH0 SWAP1 DUP2 MSTORE PUSH1 0x40 SWAP1 KECCAK256 SLOAD DUP2 JUMP JUMPDEST CALLVALUE DUP1 ISZERO PUSH2 0x442 JUMPI PUSH0 DUP1 REVERT JUMPDEST POP PUSH2 0x25C PUSH2 0x451 CALLDATASIZE PUSH1 0x4 PUSH2 0x1AE6 JUMP JUMPDEST PUSH1 0x4 PUSH1 0x20 MSTORE PUSH0 SWAP1 DUP2 MSTORE PUSH1 0x40 SWAP1 KECCAK256 SLOAD DUP2 JUMP JUMPDEST CALLVALUE DUP1 ISZERO PUSH2 0x46D JUMPI PUSH0 DUP1 REVERT JUMPDEST POP PUSH2 0x1FC PUSH2 0x47C CALLDATASIZE PUSH1 0x4 PUSH2 0x1A4B JUMP JUMPDEST PUSH2 0xB9A JUMP JUMPDEST CALLVALUE DUP1 ISZERO PUSH2 0x48C JUMPI PUSH0 DUP1 REVERT JUMPDEST POP PUSH2 0x1C7 PUSH1 0x40 MLOAD DUP1 PUSH1 0x40 ADD PUSH1 0x40 MSTORE DUP1 PUSH1 0x5 DUP2 MSTORE PUSH1 0x20 ADD PUSH5 0x352E302E3 PUSH1 0xDC SHL DUP2 MSTORE POP DUP2 JUMP JUMPDEST CALLVALUE DUP1 ISZERO PUSH2 0x4BC JUMPI PUSH0 DUP1 REVERT JUMPDEST POP PUSH2 0x22B PUSH2 0x4CB CALLDATASIZE PUSH1 0x4 PUSH2 0x1CBA JUMP JUMPDEST PUSH2 0xCC3 JUMP JUMPDEST CALLVALUE DUP1 ISZERO PUSH2 0x4DB JUMPI PUSH0 DUP1 REVERT JUMPDEST POP PUSH0 SLOAD PUSH2 0x3E0 SWAP1 PUSH1 0x1 PUSH1 0x1 PUSH1 0xA0 SHL SUB AND DUP2 JUMP JUMPDEST CALLVALUE DUP1 ISZERO PUSH2 0x4F9 JUMPI PUSH0 DUP1 REVERT JUMPDEST POP PUSH2 0x1FC PUSH2 0x508 CALLDATASIZE PUSH1 0x4 PUSH2 0x1AE6 JUMP JUMPDEST PUSH1 0x2 PUSH1 0x20 MSTORE PUSH0 SWAP1 DUP2 MSTORE PUSH1 0x40 SWAP1 KECCAK256 SLOAD PUSH1 0xFF AND DUP2 JUMP JUMPDEST CALLVALUE DUP1 ISZERO PUSH2 0x527 JUMPI PUSH0 DUP1 REVERT JUMPDEST POP PUSH2 0x25C PUSH2 0x536 CALLDATASIZE PUSH1 0x4 PUSH2 0x1D28 JUMP JUMPDEST PUSH2 0xDFC JUMP JUMPDEST CALLVALUE DUP1 ISZERO PUSH2 0x546 JUMPI PUSH0 DUP1 REVERT JUMPDEST POP PUSH2 0x22B PUSH2 0x555 CALLDATASIZE PUSH1 0x4 PUSH2 0x1AE6 JUMP JUMPDEST PUSH2 0xE45 JUMP JUMPDEST CALLVALUE DUP1 ISZERO PUSH2 0x565 JUMPI PUSH0 DUP1 REVERT JUMPDEST POP PUSH2 0x22B PUSH2 0x574 CALLDATASIZE PUSH1 0x4 PUSH2 0x1D59 JUMP JUMPDEST PUSH2 0xE7F JUMP JUMPDEST CALLVALUE DUP1 ISZERO PUSH2 0x584 JUMPI PUSH0 DUP1 REVERT JUMPDEST POP PUSH2 0x1FC PUSH2 0x593 CALLDATASIZE PUSH1 0x4 PUSH2 0x1AE6 JUMP JUMPDEST PUSH1 0x1 PUSH1 0x1 PUSH1 0xA0 SHL SUB AND PUSH0 SWAP1 DUP2 MSTORE PUSH1 0x2 PUSH1 0x20 MSTORE PUSH1 0x40 SWAP1 KECCAK256 SLOAD PUSH1 0xFF AND SWAP1 JUMP JUMPDEST PUSH32 0x52C63247E1F47DB19D5CE0460030C497F067CA4CEBF71BA98EEADABE20BACE03 DUP1 SLOAD PUSH1 0x60 SWAP2 PUSH0 DUP1 MLOAD PUSH1 0x20 PUSH2 0x2018 DUP4 CODECOPY DUP2 MLOAD SWAP2 MSTORE SWAP2 PUSH2 0x5EE SWAP1 PUSH2 0x1D89 JUMP JUMPDEST DUP1 PUSH1 0x1F ADD PUSH1 0x20 DUP1 SWAP2 DIV MUL PUSH1 0x20 ADD PUSH1 0x40 MLOAD SWAP1 DUP2 ADD PUSH1 0x40 MSTORE DUP1 SWAP3 SWAP2 SWAP1 DUP2 DUP2 MSTORE PUSH1 0x20 ADD DUP3 DUP1 SLOAD PUSH2 0x61A SWAP1 PUSH2 0x1D89 JUMP JUMPDEST DUP1 ISZERO PUSH2 0x665 JUMPI DUP1 PUSH1 0x1F LT PUSH2 0x63C JUMPI PUSH2 0x100 DUP1 DUP4 SLOAD DIV MUL DUP4 MSTORE SWAP2 PUSH1 0x20 ADD SWAP2 PUSH2 0x665 JUMP JUMPDEST DUP3 ADD SWAP2 SWAP1 PUSH0 MSTORE PUSH1 0x20 PUSH0 KECCAK256 SWAP1 JUMPDEST DUP2 SLOAD DUP2 MSTORE SWAP1 PUSH1 0x1 ADD SWAP1 PUSH1 0x20 ADD DUP1 DUP4 GT PUSH2 0x648 JUMPI DUP3 SWAP1 SUB PUSH1 0x1F AND DUP3 ADD SWAP2 JUMPDEST POP POP POP POP POP SWAP2 POP POP SWAP1 JUMP JUMPDEST PUSH0 CALLER PUSH2 0x67D DUP2 DUP6 DUP6 PUSH2 0x100A JUMP JUMPDEST PUSH1 0x1 SWAP2 POP POP JUMPDEST SWAP3 SWAP2 POP POP JUMP JUMPDEST PUSH2 0x691 PUSH2 0x1017 JUMP JUMPDEST PUSH1 0x1 PUSH1 0x1 PUSH1 0xA0 SHL SUB DUP3 AND PUSH2 0x6C0 JUMPI PUSH1 0x40 MLOAD PUSH3 0x461BCD PUSH1 0xE5 SHL DUP2 MSTORE PUSH1 0x4 ADD PUSH2 0x6B7 SWAP1 PUSH2 0x1DC1 JUMP JUMPDEST PUSH1 0x40 MLOAD DUP1 SWAP2 SUB SWAP1 REVERT JUMPDEST PUSH1 0x1 PUSH1 0x1 PUSH1 0xA0 SHL SUB DUP3 AND PUSH0 DUP2 DUP2 MSTORE PUSH1 0x2 PUSH1 0x20 SWAP1 DUP2 MSTORE PUSH1 0x40 SWAP2 DUP3 SWAP1 KECCAK256 DUP1 SLOAD PUSH1 0xFF NOT AND DUP6 ISZERO ISZERO SWAP1 DUP2 OR SWAP1 SWAP2 SSTORE SWAP2 MLOAD SWAP2 DUP3 MSTORE PUSH32 0xCF3473B85DF1594D47B6958F29A32BEA0ABFF9DD68296F7BF33443646793CFD8 SWAP2 ADD PUSH1 0x40 MLOAD DUP1 SWAP2 SUB SWAP1 LOG2 POP POP JUMP JUMPDEST PUSH0 PUSH2 0x727 PUSH2 0x1072 JUMP JUMPDEST PUSH2 0x72F PUSH2 0x10A9 JUMP JUMPDEST PUSH1 0x1 PUSH1 0x1 PUSH1 0xA0 SHL SUB DUP5 AND PUSH0 SWAP1 DUP2 MSTORE PUSH1 0x2 PUSH1 0x20 MSTORE PUSH1 0x40 SWAP1 KECCAK256 SLOAD PUSH1 0xFF AND ISZERO PUSH2 0x767 JUMPI PUSH1 0x40 MLOAD PUSH3 0x461BCD PUSH1 0xE5 SHL DUP2 MSTORE PUSH1 0x4 ADD PUSH2 0x6B7 SWAP1 PUSH2 0x1DE7 JUMP JUMPDEST PUSH1 0x1 PUSH1 0x1 PUSH1 0xA0 SHL SUB DUP4 AND PUSH0 SWAP1 DUP2 MSTORE PUSH1 0x2 PUSH1 0x20 MSTORE PUSH1 0x40 SWAP1 KECCAK256 SLOAD PUSH1 0xFF AND ISZERO PUSH2 0x79F JUMPI PUSH1 0x40 MLOAD PUSH3 0x461BCD PUSH1 0xE5 SHL DUP2 MSTORE PUSH1 0x4 ADD PUSH2 0x6B7 SWAP1 PUSH2 0x1E2D JUMP JUMPDEST DUP2 PUSH0 SUB PUSH2 0x7E9 JUMPI PUSH1 0x40 MLOAD PUSH3 0x461BCD PUSH1 0xE5 SHL DUP2 MSTORE PUSH1 0x20 PUSH1 0x4 DUP3 ADD MSTORE PUSH1 0x18 PUSH1 0x24 DUP3 ADD MSTORE PUSH24 0x416D6F756E742073686F756C646E2774206265207A65726F PUSH1 0x40 SHL PUSH1 0x44 DUP3 ADD MSTORE PUSH1 0x64 ADD PUSH2 0x6B7 JUMP JUMPDEST PUSH1 0x1 PUSH1 0x1 PUSH1 0xA0 SHL SUB DUP5 AND PUSH0 SWAP1 DUP2 MSTORE PUSH1 0x3 PUSH1 0x20 MSTORE PUSH1 0x40 SWAP1 KECCAK256 SLOAD TIMESTAMP LT ISZERO DUP1 PUSH2 0x824 JUMPI POP PUSH1 0x1 PUSH1 0x1 PUSH1 0xA0 SHL SUB DUP5 AND PUSH0 SWAP1 DUP2 MSTORE PUSH1 0x3 PUSH1 0x20 MSTORE PUSH1 0x40 SWAP1 KECCAK256 SLOAD ISZERO JUMPDEST PUSH2 0x840 JUMPI PUSH1 0x40 MLOAD PUSH3 0x461BCD PUSH1 0xE5 SHL DUP2 MSTORE PUSH1 0x4 ADD PUSH2 0x6B7 SWAP1 PUSH2 0x1E76 JUMP JUMPDEST PUSH2 0x84B DUP5 DUP5 DUP5 PUSH2 0x10D9 JUMP JUMPDEST SWAP1 POP PUSH2 0x863 PUSH1 0x1 PUSH0 DUP1 MLOAD PUSH1 0x20 PUSH2 0x2078 DUP4 CODECOPY DUP2 MLOAD SWAP2 MSTORE SSTORE JUMP JUMPDEST SWAP4 SWAP3 POP POP POP JUMP JUMPDEST PUSH2 0x872 PUSH2 0x1072 JUMP JUMPDEST PUSH2 0x87A PUSH2 0x10A9 JUMP JUMPDEST PUSH2 0x882 PUSH2 0x1017 JUMP JUMPDEST PUSH1 0x1 PUSH1 0x1 PUSH1 0xA0 SHL SUB DUP2 AND PUSH2 0x8A8 JUMPI PUSH1 0x40 MLOAD PUSH3 0x461BCD PUSH1 0xE5 SHL DUP2 MSTORE PUSH1 0x4 ADD PUSH2 0x6B7 SWAP1 PUSH2 0x1DC1 JUMP JUMPDEST PUSH1 0x1 PUSH1 0x1 PUSH1 0xA0 SHL SUB DUP2 AND EXTCODESIZE PUSH2 0x8FF JUMPI PUSH1 0x40 MLOAD PUSH3 0x461BCD PUSH1 0xE5 SHL DUP2 MSTORE PUSH1 0x20 PUSH1 0x4 DUP3 ADD MSTORE PUSH1 0x19 PUSH1 0x24 DUP3 ADD MSTORE PUSH32 0x41646472657373206973206E6F74206120636F6E747261637400000000000000 PUSH1 0x44 DUP3 ADD MSTORE PUSH1 0x64 ADD PUSH2 0x6B7 JUMP JUMPDEST PUSH0 DUP1 SLOAD PUSH1 0x1 PUSH1 0x1 PUSH1 0xA0 SHL SUB NOT AND PUSH1 0x1 PUSH1 0x1 PUSH1 0xA0 SHL SUB DUP4 AND SWAP1 DUP2 OR DUP3 SSTORE PUSH1 0x40 MLOAD SWAP1 SWAP2 PUSH32 0xE7BBFBBF7E7948988EB7F8904DA938AFF02A23B8B28FCEE206BE4D4B3EDD9AD8 SWAP2 LOG2 PUSH2 0x959 PUSH1 0x1 PUSH0 DUP1 MLOAD PUSH1 0x20 PUSH2 0x2078 DUP4 CODECOPY DUP2 MLOAD SWAP2 MSTORE SSTORE JUMP JUMPDEST POP JUMP JUMPDEST PUSH2 0x964 PUSH2 0x1017 JUMP JUMPDEST PUSH2 0x96C PUSH2 0x10FC JUMP JUMPDEST JUMP JUMPDEST PUSH2 0x976 PUSH2 0x115B JUMP JUMPDEST PUSH2 0x97F DUP3 PUSH2 0x11FF JUMP JUMPDEST PUSH2 0x989 DUP3 DUP3 PUSH2 0x122D JUMP JUMPDEST POP POP JUMP JUMPDEST PUSH0 PUSH2 0x996 PUSH2 0x12E9 JUMP JUMPDEST POP PUSH0 DUP1 MLOAD PUSH1 0x20 PUSH2 0x2038 DUP4 CODECOPY DUP2 MLOAD SWAP2 MSTORE SWAP1 JUMP JUMPDEST PUSH2 0x9B0 PUSH2 0x1017 JUMP JUMPDEST PUSH2 0x96C PUSH0 PUSH2 0x1332 JUMP JUMPDEST PUSH2 0x9C1 PUSH2 0x1017 JUMP JUMPDEST PUSH2 0x96C PUSH2 0x13A2 JUMP JUMPDEST PUSH2 0x9D1 PUSH2 0x1072 JUMP JUMPDEST PUSH2 0x9D9 PUSH2 0x10A9 JUMP JUMPDEST DUP3 DUP2 EQ PUSH2 0xA38 JUMPI PUSH1 0x40 MLOAD PUSH3 0x461BCD PUSH1 0xE5 SHL DUP2 MSTORE PUSH1 0x20 PUSH1 0x4 DUP3 ADD MSTORE PUSH1 0x27 PUSH1 0x24 DUP3 ADD MSTORE PUSH32 0x42617463685472616E73666572206661696C65643A204D69736D617463686564 PUSH1 0x44 DUP3 ADD MSTORE PUSH7 0x20617272617973 PUSH1 0xC8 SHL PUSH1 0x64 DUP3 ADD MSTORE PUSH1 0x84 ADD PUSH2 0x6B7 JUMP JUMPDEST DUP3 PUSH0 JUMPDEST DUP2 DUP2 LT ISZERO PUSH2 0xB3E JUMPI PUSH1 0x2 PUSH0 DUP8 DUP8 DUP5 DUP2 DUP2 LT PUSH2 0xA58 JUMPI PUSH2 0xA58 PUSH2 0x1EB8 JUMP JUMPDEST SWAP1 POP PUSH1 0x20 MUL ADD PUSH1 0x20 DUP2 ADD SWAP1 PUSH2 0xA6D SWAP2 SWAP1 PUSH2 0x1AE6 JUMP JUMPDEST PUSH1 0x1 PUSH1 0x1 PUSH1 0xA0 SHL SUB AND DUP2 MSTORE PUSH1 0x20 DUP2 ADD SWAP2 SWAP1 SWAP2 MSTORE PUSH1 0x40 ADD PUSH0 KECCAK256 SLOAD PUSH1 0xFF AND ISZERO PUSH2 0xAED JUMPI PUSH1 0x40 MLOAD PUSH3 0x461BCD PUSH1 0xE5 SHL DUP2 MSTORE PUSH1 0x20 PUSH1 0x4 DUP3 ADD MSTORE PUSH1 0x2E PUSH1 0x24 DUP3 ADD MSTORE PUSH32 0x42617463685472616E73666572206661696C65643A20526563697069656E7420 PUSH1 0x44 DUP3 ADD MSTORE PUSH14 0x1A5CC8189B1858DADB1A5CDD1959 PUSH1 0x92 SHL PUSH1 0x64 DUP3 ADD MSTORE PUSH1 0x84 ADD PUSH2 0x6B7 JUMP JUMPDEST PUSH2 0xB36 CALLER DUP8 DUP8 DUP5 DUP2 DUP2 LT PUSH2 0xB03 JUMPI PUSH2 0xB03 PUSH2 0x1EB8 JUMP JUMPDEST SWAP1 POP PUSH1 0x20 MUL ADD PUSH1 0x20 DUP2 ADD SWAP1 PUSH2 0xB18 SWAP2 SWAP1 PUSH2 0x1AE6 JUMP JUMPDEST DUP7 DUP7 DUP6 DUP2 DUP2 LT PUSH2 0xB2A JUMPI PUSH2 0xB2A PUSH2 0x1EB8 JUMP JUMPDEST SWAP1 POP PUSH1 0x20 MUL ADD CALLDATALOAD PUSH2 0x13EA JUMP JUMPDEST PUSH1 0x1 ADD PUSH2 0xA3B JUMP JUMPDEST POP POP PUSH2 0xB56 PUSH1 0x1 PUSH0 DUP1 MLOAD PUSH1 0x20 PUSH2 0x2078 DUP4 CODECOPY DUP2 MLOAD SWAP2 MSTORE SSTORE JUMP JUMPDEST POP POP POP POP JUMP JUMPDEST PUSH32 0x52C63247E1F47DB19D5CE0460030C497F067CA4CEBF71BA98EEADABE20BACE04 DUP1 SLOAD PUSH1 0x60 SWAP2 PUSH0 DUP1 MLOAD PUSH1 0x20 PUSH2 0x2018 DUP4 CODECOPY DUP2 MLOAD SWAP2 MSTORE SWAP2 PUSH2 0x5EE SWAP1 PUSH2 0x1D89 JUMP JUMPDEST PUSH0 PUSH2 0xBA3 PUSH2 0x1072 JUMP JUMPDEST PUSH2 0xBAB PUSH2 0x10A9 JUMP JUMPDEST CALLER PUSH0 SWAP1 DUP2 MSTORE PUSH1 0x2 PUSH1 0x20 MSTORE PUSH1 0x40 SWAP1 KECCAK256 SLOAD PUSH1 0xFF AND ISZERO PUSH2 0xBDA JUMPI PUSH1 0x40 MLOAD PUSH3 0x461BCD PUSH1 0xE5 SHL DUP2 MSTORE PUSH1 0x4 ADD PUSH2 0x6B7 SWAP1 PUSH2 0x1DE7 JUMP JUMPDEST PUSH1 0x1 PUSH1 0x1 PUSH1 0xA0 SHL SUB DUP4 AND PUSH0 SWAP1 DUP2 MSTORE PUSH1 0x2 PUSH1 0x20 MSTORE PUSH1 0x40 SWAP1 KECCAK256 SLOAD PUSH1 0xFF AND ISZERO PUSH2 0xC12 JUMPI PUSH1 0x40 MLOAD PUSH3 0x461BCD PUSH1 0xE5 SHL DUP2 MSTORE PUSH1 0x4 ADD PUSH2 0x6B7 SWAP1 PUSH2 0x1E2D JUMP JUMPDEST DUP2 PUSH0 SUB PUSH2 0xC5C JUMPI PUSH1 0x40 MLOAD PUSH3 0x461BCD PUSH1 0xE5 SHL DUP2 MSTORE PUSH1 0x20 PUSH1 0x4 DUP3 ADD MSTORE PUSH1 0x18 PUSH1 0x24 DUP3 ADD MSTORE PUSH24 0x416D6F756E742073686F756C646E2774206265207A65726F PUSH1 0x40 SHL PUSH1 0x44 DUP3 ADD MSTORE PUSH1 0x64 ADD PUSH2 0x6B7 JUMP JUMPDEST CALLER PUSH0 SWAP1 DUP2 MSTORE PUSH1 0x3 PUSH1 0x20 MSTORE PUSH1 0x40 SWAP1 KECCAK256 SLOAD TIMESTAMP LT ISZERO DUP1 PUSH2 0xC85 JUMPI POP CALLER PUSH0 SWAP1 DUP2 MSTORE PUSH1 0x3 PUSH1 0x20 MSTORE PUSH1 0x40 SWAP1 KECCAK256 SLOAD ISZERO JUMPDEST PUSH2 0xCA1 JUMPI PUSH1 0x40 MLOAD PUSH3 0x461BCD PUSH1 0xE5 SHL DUP2 MSTORE PUSH1 0x4 ADD PUSH2 0x6B7 SWAP1 PUSH2 0x1E76 JUMP JUMPDEST PUSH2 0xCAB DUP4 DUP4 PUSH2 0x1447 JUMP JUMPDEST SWAP1 POP PUSH2 0x683 PUSH1 0x1 PUSH0 DUP1 MLOAD PUSH1 0x20 PUSH2 0x2078 DUP4 CODECOPY DUP2 MLOAD SWAP2 MSTORE SSTORE JUMP JUMPDEST PUSH32 0xF0C57E16840DF040F15088DC2F81FE391C3923BEC73E23A9662EFC9C229C6A00 DUP1 SLOAD PUSH1 0x1 PUSH1 0x40 SHL DUP2 DIV PUSH1 0xFF AND ISZERO SWAP1 PUSH8 0xFFFFFFFFFFFFFFFF AND PUSH0 DUP2 ISZERO DUP1 ISZERO PUSH2 0xD08 JUMPI POP DUP3 JUMPDEST SWAP1 POP PUSH0 DUP3 PUSH8 0xFFFFFFFFFFFFFFFF AND PUSH1 0x1 EQ DUP1 ISZERO PUSH2 0xD24 JUMPI POP ADDRESS EXTCODESIZE ISZERO JUMPDEST SWAP1 POP DUP2 ISZERO DUP1 ISZERO PUSH2 0xD32 JUMPI POP DUP1 ISZERO JUMPDEST ISZERO PUSH2 0xD50 JUMPI PUSH1 0x40 MLOAD PUSH4 0xF92EE8A9 PUSH1 0xE0 SHL DUP2 MSTORE PUSH1 0x4 ADD PUSH1 0x40 MLOAD DUP1 SWAP2 SUB SWAP1 REVERT JUMPDEST DUP5 SLOAD PUSH8 0xFFFFFFFFFFFFFFFF NOT AND PUSH1 0x1 OR DUP6 SSTORE DUP4 ISZERO PUSH2 0xD7A JUMPI DUP5 SLOAD PUSH1 0xFF PUSH1 0x40 SHL NOT AND PUSH1 0x1 PUSH1 0x40 SHL OR DUP6 SSTORE JUMPDEST PUSH2 0xD84 DUP9 DUP9 PUSH2 0x1454 JUMP JUMPDEST PUSH2 0xD8D CALLER PUSH2 0x1466 JUMP JUMPDEST PUSH2 0xD95 PUSH2 0x1477 JUMP JUMPDEST PUSH2 0xD9D PUSH2 0x1487 JUMP JUMPDEST PUSH1 0x1 DUP7 SWAP1 SSTORE PUSH2 0xDAC CALLER DUP8 PUSH2 0x148F JUMP JUMPDEST DUP4 ISZERO PUSH2 0xDF2 JUMPI DUP5 SLOAD PUSH1 0xFF PUSH1 0x40 SHL NOT AND DUP6 SSTORE PUSH1 0x40 MLOAD PUSH1 0x1 DUP2 MSTORE PUSH32 0xC7F505B2F371AE2175EE4913F4499E1F2633A7B5936321EED1CDAEB6115181D2 SWAP1 PUSH1 0x20 ADD PUSH1 0x40 MLOAD DUP1 SWAP2 SUB SWAP1 LOG1 JUMPDEST POP POP POP POP POP POP POP POP JUMP JUMPDEST PUSH1 0x1 PUSH1 0x1 PUSH1 0xA0 SHL SUB SWAP2 DUP3 AND PUSH0 SWAP1 DUP2 MSTORE PUSH32 0x52C63247E1F47DB19D5CE0460030C497F067CA4CEBF71BA98EEADABE20BACE01 PUSH1 0x20 SWAP1 DUP2 MSTORE PUSH1 0x40 DUP1 DUP4 KECCAK256 SWAP4 SWAP1 SWAP5 AND DUP3 MSTORE SWAP2 SWAP1 SWAP2 MSTORE KECCAK256 SLOAD SWAP1 JUMP JUMPDEST PUSH2 0xE4D PUSH2 0x1017 JUMP JUMPDEST PUSH1 0x1 PUSH1 0x1 PUSH1 0xA0 SHL SUB DUP2 AND PUSH2 0xE76 JUMPI PUSH1 0x40 MLOAD PUSH4 0x1E4FBDF7 PUSH1 0xE0 SHL DUP2 MSTORE PUSH0 PUSH1 0x4 DUP3 ADD MSTORE PUSH1 0x24 ADD PUSH2 0x6B7 JUMP JUMPDEST PUSH2 0x959 DUP2 PUSH2 0x1332 JUMP JUMPDEST PUSH2 0xE87 PUSH2 0x1072 JUMP JUMPDEST PUSH2 0xE8F PUSH2 0x10A9 JUMP JUMPDEST PUSH0 SLOAD PUSH1 0x1 PUSH1 0x1 PUSH1 0xA0 SHL SUB AND CALLER EQ PUSH2 0xED9 JUMPI PUSH1 0x40 MLOAD PUSH3 0x461BCD PUSH1 0xE5 SHL DUP2 MSTORE PUSH1 0x20 PUSH1 0x4 DUP3 ADD MSTORE PUSH1 0xE PUSH1 0x24 DUP3 ADD MSTORE PUSH14 0x139BDD08185D5D1A1BDC9A5E9959 PUSH1 0x92 SHL PUSH1 0x44 DUP3 ADD MSTORE PUSH1 0x64 ADD PUSH2 0x6B7 JUMP JUMPDEST PUSH1 0x1 PUSH1 0x1 PUSH1 0xA0 SHL SUB DUP4 AND PUSH2 0xEFF JUMPI PUSH1 0x40 MLOAD PUSH3 0x461BCD PUSH1 0xE5 SHL DUP2 MSTORE PUSH1 0x4 ADD PUSH2 0x6B7 SWAP1 PUSH2 0x1DC1 JUMP JUMPDEST DUP1 PUSH0 SUB PUSH2 0xF4E JUMPI PUSH1 0x40 MLOAD PUSH3 0x461BCD PUSH1 0xE5 SHL DUP2 MSTORE PUSH1 0x20 PUSH1 0x4 DUP3 ADD DUP2 SWAP1 MSTORE PUSH1 0x24 DUP3 ADD MSTORE PUSH32 0x416D6F756E74206D7573742062652067726561746572207468616E207A65726F PUSH1 0x44 DUP3 ADD MSTORE PUSH1 0x64 ADD PUSH2 0x6B7 JUMP JUMPDEST PUSH1 0x1 PUSH1 0x1 PUSH1 0xA0 SHL SUB DUP4 AND PUSH0 SWAP1 DUP2 MSTORE PUSH1 0x3 PUSH1 0x20 MSTORE PUSH1 0x40 SWAP1 KECCAK256 SLOAD DUP3 EQ ISZERO DUP1 PUSH2 0xF8B JUMPI POP PUSH1 0x1 PUSH1 0x1 PUSH1 0xA0 SHL SUB DUP4 AND PUSH0 SWAP1 DUP2 MSTORE PUSH1 0x4 PUSH1 0x20 MSTORE PUSH1 0x40 SWAP1 KECCAK256 SLOAD DUP2 EQ ISZERO JUMPDEST ISZERO PUSH2 0xFEF JUMPI PUSH1 0x1 PUSH1 0x1 PUSH1 0xA0 SHL SUB DUP4 AND PUSH0 DUP2 DUP2 MSTORE PUSH1 0x3 PUSH1 0x20 SWAP1 DUP2 MSTORE PUSH1 0x40 DUP1 DUP4 KECCAK256 DUP7 SWAP1 SSTORE PUSH1 0x4 DUP3 MSTORE SWAP2 DUP3 SWAP1 KECCAK256 DUP5 SWAP1 SSTORE DUP2 MLOAD DUP6 DUP2 MSTORE SWAP1 DUP2 ADD DUP5 SWAP1 MSTORE PUSH32 0x86F2E10D5622D896B3F56E66C1A60639CA21A4674480F054BEC2CB9BA62F40CB SWAP2 ADD PUSH1 0x40 MLOAD DUP1 SWAP2 SUB SWAP1 LOG2 JUMPDEST PUSH2 0x1005 PUSH1 0x1 PUSH0 DUP1 MLOAD PUSH1 0x20 PUSH2 0x2078 DUP4 CODECOPY DUP2 MLOAD SWAP2 MSTORE SSTORE JUMP JUMPDEST POP POP POP JUMP JUMPDEST PUSH2 0x1005 DUP4 DUP4 DUP4 PUSH1 0x1 PUSH2 0x14C3 JUMP JUMPDEST CALLER PUSH2 0x1049 PUSH32 0x9016D09D72D40FDAE2FD8CEAC6B6234C7706214FD39C1CD1E609A0528C199300 SLOAD PUSH1 0x1 PUSH1 0x1 PUSH1 0xA0 SHL SUB AND SWAP1 JUMP JUMPDEST PUSH1 0x1 PUSH1 0x1 PUSH1 0xA0 SHL SUB AND EQ PUSH2 0x96C JUMPI PUSH1 0x40 MLOAD PUSH4 0x118CDAA7 PUSH1 0xE0 SHL DUP2 MSTORE CALLER PUSH1 0x4 DUP3 ADD MSTORE PUSH1 0x24 ADD PUSH2 0x6B7 JUMP JUMPDEST PUSH0 DUP1 MLOAD PUSH1 0x20 PUSH2 0x2078 DUP4 CODECOPY DUP2 MLOAD SWAP2 MSTORE DUP1 SLOAD PUSH1 0x1 NOT ADD PUSH2 0x10A3 JUMPI PUSH1 0x40 MLOAD PUSH4 0x3EE5AEB5 PUSH1 0xE0 SHL DUP2 MSTORE PUSH1 0x4 ADD PUSH1 0x40 MLOAD DUP1 SWAP2 SUB SWAP1 REVERT JUMPDEST PUSH1 0x2 SWAP1 SSTORE JUMP JUMPDEST PUSH0 DUP1 MLOAD PUSH1 0x20 PUSH2 0x2058 DUP4 CODECOPY DUP2 MLOAD SWAP2 MSTORE SLOAD PUSH1 0xFF AND ISZERO PUSH2 0x96C JUMPI PUSH1 0x40 MLOAD PUSH4 0xD93C0665 PUSH1 0xE0 SHL DUP2 MSTORE PUSH1 0x4 ADD PUSH1 0x40 MLOAD DUP1 SWAP2 SUB SWAP1 REVERT JUMPDEST PUSH0 CALLER PUSH2 0x10E6 DUP6 DUP3 DUP6 PUSH2 0x15A7 JUMP JUMPDEST PUSH2 0x10F1 DUP6 DUP6 DUP6 PUSH2 0x13EA JUMP JUMPDEST POP PUSH1 0x1 SWAP5 SWAP4 POP POP POP POP JUMP JUMPDEST PUSH2 0x1104 PUSH2 0x1604 JUMP JUMPDEST PUSH0 DUP1 MLOAD PUSH1 0x20 PUSH2 0x2058 DUP4 CODECOPY DUP2 MLOAD SWAP2 MSTORE DUP1 SLOAD PUSH1 0xFF NOT AND DUP2 SSTORE PUSH32 0x5DB9EE0A495BF2E6FF9C91A7834C1BA4FDD244A5E8AA4E537BD38AEAE4B073AA CALLER JUMPDEST PUSH1 0x40 MLOAD PUSH1 0x1 PUSH1 0x1 PUSH1 0xA0 SHL SUB SWAP1 SWAP2 AND DUP2 MSTORE PUSH1 0x20 ADD PUSH1 0x40 MLOAD DUP1 SWAP2 SUB SWAP1 LOG1 POP JUMP JUMPDEST ADDRESS PUSH1 0x1 PUSH1 0x1 PUSH1 0xA0 SHL SUB PUSH32 0x0 AND EQ DUP1 PUSH2 0x11E1 JUMPI POP PUSH32 0x0 PUSH1 0x1 PUSH1 0x1 PUSH1 0xA0 SHL SUB AND PUSH2 0x11D5 PUSH0 DUP1 MLOAD PUSH1 0x20 PUSH2 0x2038 DUP4 CODECOPY DUP2 MLOAD SWAP2 MSTORE SLOAD PUSH1 0x1 PUSH1 0x1 PUSH1 0xA0 SHL SUB AND SWAP1 JUMP JUMPDEST PUSH1 0x1 PUSH1 0x1 PUSH1 0xA0 SHL SUB AND EQ ISZERO JUMPDEST ISZERO PUSH2 0x96C JUMPI PUSH1 0x40 MLOAD PUSH4 0x703E46DD PUSH1 0xE1 SHL DUP2 MSTORE PUSH1 0x4 ADD PUSH1 0x40 MLOAD DUP1 SWAP2 SUB SWAP1 REVERT JUMPDEST PUSH2 0x1207 PUSH2 0x1072 JUMP JUMPDEST PUSH2 0x120F PUSH2 0x10A9 JUMP JUMPDEST PUSH2 0x1217 PUSH2 0x1017 JUMP JUMPDEST PUSH2 0x959 PUSH1 0x1 PUSH0 DUP1 MLOAD PUSH1 0x20 PUSH2 0x2078 DUP4 CODECOPY DUP2 MLOAD SWAP2 MSTORE SSTORE JUMP JUMPDEST DUP2 PUSH1 0x1 PUSH1 0x1 PUSH1 0xA0 SHL SUB AND PUSH4 0x52D1902D PUSH1 0x40 MLOAD DUP2 PUSH4 0xFFFFFFFF AND PUSH1 0xE0 SHL DUP2 MSTORE PUSH1 0x4 ADD PUSH1 0x20 PUSH1 0x40 MLOAD DUP1 DUP4 SUB DUP2 DUP7 GAS STATICCALL SWAP3 POP POP POP DUP1 ISZERO PUSH2 0x1287 JUMPI POP PUSH1 0x40 DUP1 MLOAD PUSH1 0x1F RETURNDATASIZE SWAP1 DUP2 ADD PUSH1 0x1F NOT AND DUP3 ADD SWAP1 SWAP3 MSTORE PUSH2 0x1284 SWAP2 DUP2 ADD SWAP1 PUSH2 0x1ECC JUMP JUMPDEST PUSH1 0x1 JUMPDEST PUSH2 0x12AF JUMPI PUSH1 0x40 MLOAD PUSH4 0x4C9C8CE3 PUSH1 0xE0 SHL DUP2 MSTORE PUSH1 0x1 PUSH1 0x1 PUSH1 0xA0 SHL SUB DUP4 AND PUSH1 0x4 DUP3 ADD MSTORE PUSH1 0x24 ADD PUSH2 0x6B7 JUMP JUMPDEST PUSH0 DUP1 MLOAD PUSH1 0x20 PUSH2 0x2038 DUP4 CODECOPY DUP2 MLOAD SWAP2 MSTORE DUP2 EQ PUSH2 0x12DF JUMPI PUSH1 0x40 MLOAD PUSH4 0x2A875269 PUSH1 0xE2 SHL DUP2 MSTORE PUSH1 0x4 DUP2 ADD DUP3 SWAP1 MSTORE PUSH1 0x24 ADD PUSH2 0x6B7 JUMP JUMPDEST PUSH2 0x1005 DUP4 DUP4 PUSH2 0x1633 JUMP JUMPDEST ADDRESS PUSH1 0x1 PUSH1 0x1 PUSH1 0xA0 SHL SUB PUSH32 0x0 AND EQ PUSH2 0x96C JUMPI PUSH1 0x40 MLOAD PUSH4 0x703E46DD PUSH1 0xE1 SHL DUP2 MSTORE PUSH1 0x4 ADD PUSH1 0x40 MLOAD DUP1 SWAP2 SUB SWAP1 REVERT JUMPDEST PUSH32 0x9016D09D72D40FDAE2FD8CEAC6B6234C7706214FD39C1CD1E609A0528C199300 DUP1 SLOAD PUSH1 0x1 PUSH1 0x1 PUSH1 0xA0 SHL SUB NOT DUP2 AND PUSH1 0x1 PUSH1 0x1 PUSH1 0xA0 SHL SUB DUP5 DUP2 AND SWAP2 DUP3 OR DUP5 SSTORE PUSH1 0x40 MLOAD SWAP3 AND SWAP2 DUP3 SWAP1 PUSH32 0x8BE0079C531659141344CD1FD0A4F28419497F9722A3DAAFE3B4186F6B6457E0 SWAP1 PUSH0 SWAP1 LOG3 POP POP POP JUMP JUMPDEST PUSH2 0x13AA PUSH2 0x10A9 JUMP JUMPDEST PUSH0 DUP1 MLOAD PUSH1 0x20 PUSH2 0x2058 DUP4 CODECOPY DUP2 MLOAD SWAP2 MSTORE DUP1 SLOAD PUSH1 0xFF NOT AND PUSH1 0x1 OR DUP2 SSTORE PUSH32 0x62E78CEA01BEE320CD4E420270B5EA74000D11B0C9F74754EBDBFC544B05A258 CALLER PUSH2 0x113D JUMP JUMPDEST PUSH1 0x1 PUSH1 0x1 PUSH1 0xA0 SHL SUB DUP4 AND PUSH2 0x1413 JUMPI PUSH1 0x40 MLOAD PUSH4 0x4B637E8F PUSH1 0xE1 SHL DUP2 MSTORE PUSH0 PUSH1 0x4 DUP3 ADD MSTORE PUSH1 0x24 ADD PUSH2 0x6B7 JUMP JUMPDEST PUSH1 0x1 PUSH1 0x1 PUSH1 0xA0 SHL SUB DUP3 AND PUSH2 0x143C JUMPI PUSH1 0x40 MLOAD PUSH4 0xEC442F05 PUSH1 0xE0 SHL DUP2 MSTORE PUSH0 PUSH1 0x4 DUP3 ADD MSTORE PUSH1 0x24 ADD PUSH2 0x6B7 JUMP JUMPDEST PUSH2 0x1005 DUP4 DUP4 DUP4 PUSH2 0x1688 JUMP JUMPDEST PUSH0 CALLER PUSH2 0x67D DUP2 DUP6 DUP6 PUSH2 0x13EA JUMP JUMPDEST PUSH2 0x145C PUSH2 0x17C1 JUMP JUMPDEST PUSH2 0x989 DUP3 DUP3 PUSH2 0x180A JUMP JUMPDEST PUSH2 0x146E PUSH2 0x17C1 JUMP JUMPDEST PUSH2 0x959 DUP2 PUSH2 0x185A JUMP JUMPDEST PUSH2 0x147F PUSH2 0x17C1 JUMP JUMPDEST PUSH2 0x96C PUSH2 0x1862 JUMP JUMPDEST PUSH2 0x96C PUSH2 0x17C1 JUMP JUMPDEST PUSH1 0x1 PUSH1 0x1 PUSH1 0xA0 SHL SUB DUP3 AND PUSH2 0x14B8 JUMPI PUSH1 0x40 MLOAD PUSH4 0xEC442F05 PUSH1 0xE0 SHL DUP2 MSTORE PUSH0 PUSH1 0x4 DUP3 ADD MSTORE PUSH1 0x24 ADD PUSH2 0x6B7 JUMP JUMPDEST PUSH2 0x989 PUSH0 DUP4 DUP4 PUSH2 0x1688 JUMP JUMPDEST PUSH0 DUP1 MLOAD PUSH1 0x20 PUSH2 0x2018 DUP4 CODECOPY DUP2 MLOAD SWAP2 MSTORE PUSH1 0x1 PUSH1 0x1 PUSH1 0xA0 SHL SUB DUP6 AND PUSH2 0x14FA JUMPI PUSH1 0x40 MLOAD PUSH4 0xE602DF05 PUSH1 0xE0 SHL DUP2 MSTORE PUSH0 PUSH1 0x4 DUP3 ADD MSTORE PUSH1 0x24 ADD PUSH2 0x6B7 JUMP JUMPDEST PUSH1 0x1 PUSH1 0x1 PUSH1 0xA0 SHL SUB DUP5 AND PUSH2 0x1523 JUMPI PUSH1 0x40 MLOAD PUSH4 0x4A1406B1 PUSH1 0xE1 SHL DUP2 MSTORE PUSH0 PUSH1 0x4 DUP3 ADD MSTORE PUSH1 0x24 ADD PUSH2 0x6B7 JUMP JUMPDEST PUSH1 0x1 PUSH1 0x1 PUSH1 0xA0 SHL SUB DUP1 DUP7 AND PUSH0 SWAP1 DUP2 MSTORE PUSH1 0x1 DUP4 ADD PUSH1 0x20 SWAP1 DUP2 MSTORE PUSH1 0x40 DUP1 DUP4 KECCAK256 SWAP4 DUP9 AND DUP4 MSTORE SWAP3 SWAP1 MSTORE KECCAK256 DUP4 SWAP1 SSTORE DUP2 ISZERO PUSH2 0x15A0 JUMPI DUP4 PUSH1 0x1 PUSH1 0x1 PUSH1 0xA0 SHL SUB AND DUP6 PUSH1 0x1 PUSH1 0x1 PUSH1 0xA0 SHL SUB AND PUSH32 0x8C5BE1E5EBEC7D5BD14F71427D1E84F3DD0314C0F7B2291E5B200AC8C7C3B925 DUP6 PUSH1 0x40 MLOAD PUSH2 0x1597 SWAP2 DUP2 MSTORE PUSH1 0x20 ADD SWAP1 JUMP JUMPDEST PUSH1 0x40 MLOAD DUP1 SWAP2 SUB SWAP1 LOG3 JUMPDEST POP POP POP POP POP JUMP JUMPDEST PUSH0 PUSH2 0x15B2 DUP5 DUP5 PUSH2 0xDFC JUMP JUMPDEST SWAP1 POP PUSH0 NOT DUP2 EQ PUSH2 0xB56 JUMPI DUP2 DUP2 LT ISZERO PUSH2 0x15F6 JUMPI PUSH1 0x40 MLOAD PUSH4 0x7DC7A0D9 PUSH1 0xE1 SHL DUP2 MSTORE PUSH1 0x1 PUSH1 0x1 PUSH1 0xA0 SHL SUB DUP5 AND PUSH1 0x4 DUP3 ADD MSTORE PUSH1 0x24 DUP2 ADD DUP3 SWAP1 MSTORE PUSH1 0x44 DUP2 ADD DUP4 SWAP1 MSTORE PUSH1 0x64 ADD PUSH2 0x6B7 JUMP JUMPDEST PUSH2 0xB56 DUP5 DUP5 DUP5 DUP5 SUB PUSH0 PUSH2 0x14C3 JUMP JUMPDEST PUSH0 DUP1 MLOAD PUSH1 0x20 PUSH2 0x2058 DUP4 CODECOPY DUP2 MLOAD SWAP2 MSTORE SLOAD PUSH1 0xFF AND PUSH2 0x96C JUMPI PUSH1 0x40 MLOAD PUSH4 0x8DFC202B PUSH1 0xE0 SHL DUP2 MSTORE PUSH1 0x4 ADD PUSH1 0x40 MLOAD DUP1 SWAP2 SUB SWAP1 REVERT JUMPDEST PUSH2 0x163C DUP3 PUSH2 0x1882 JUMP JUMPDEST PUSH1 0x40 MLOAD PUSH1 0x1 PUSH1 0x1 PUSH1 0xA0 SHL SUB DUP4 AND SWAP1 PUSH32 0xBC7CD75A20EE27FD9ADEBAB32041F755214DBC6BFFA90CC0225B39DA2E5C2D3B SWAP1 PUSH0 SWAP1 LOG2 DUP1 MLOAD ISZERO PUSH2 0x1680 JUMPI PUSH2 0x1005 DUP3 DUP3 PUSH2 0x18E5 JUMP JUMPDEST PUSH2 0x989 PUSH2 0x1957 JUMP JUMPDEST PUSH0 DUP1 MLOAD PUSH1 0x20 PUSH2 0x2018 DUP4 CODECOPY DUP2 MLOAD SWAP2 MSTORE PUSH1 0x1 PUSH1 0x1 PUSH1 0xA0 SHL SUB DUP5 AND PUSH2 0x16C2 JUMPI DUP2 DUP2 PUSH1 0x2 ADD PUSH0 DUP3 DUP3 SLOAD PUSH2 0x16B7 SWAP2 SWAP1 PUSH2 0x1EE3 JUMP JUMPDEST SWAP1 SWAP2 SSTORE POP PUSH2 0x1732 SWAP1 POP JUMP JUMPDEST PUSH1 0x1 PUSH1 0x1 PUSH1 0xA0 SHL SUB DUP5 AND PUSH0 SWAP1 DUP2 MSTORE PUSH1 0x20 DUP3 SWAP1 MSTORE PUSH1 0x40 SWAP1 KECCAK256 SLOAD DUP3 DUP2 LT ISZERO PUSH2 0x1714 JUMPI PUSH1 0x40 MLOAD PUSH4 0x391434E3 PUSH1 0xE2 SHL DUP2 MSTORE PUSH1 0x1 PUSH1 0x1 PUSH1 0xA0 SHL SUB DUP7 AND PUSH1 0x4 DUP3 ADD MSTORE PUSH1 0x24 DUP2 ADD DUP3 SWAP1 MSTORE PUSH1 0x44 DUP2 ADD DUP5 SWAP1 MSTORE PUSH1 0x64 ADD PUSH2 0x6B7 JUMP JUMPDEST PUSH1 0x1 PUSH1 0x1 PUSH1 0xA0 SHL SUB DUP6 AND PUSH0 SWAP1 DUP2 MSTORE PUSH1 0x20 DUP4 SWAP1 MSTORE PUSH1 0x40 SWAP1 KECCAK256 SWAP1 DUP4 SWAP1 SUB SWAP1 SSTORE JUMPDEST PUSH1 0x1 PUSH1 0x1 PUSH1 0xA0 SHL SUB DUP4 AND PUSH2 0x1750 JUMPI PUSH1 0x2 DUP2 ADD DUP1 SLOAD DUP4 SWAP1 SUB SWAP1 SSTORE PUSH2 0x176E JUMP JUMPDEST PUSH1 0x1 PUSH1 0x1 PUSH1 0xA0 SHL SUB DUP4 AND PUSH0 SWAP1 DUP2 MSTORE PUSH1 0x20 DUP3 SWAP1 MSTORE PUSH1 0x40 SWAP1 KECCAK256 DUP1 SLOAD DUP4 ADD SWAP1 SSTORE JUMPDEST DUP3 PUSH1 0x1 PUSH1 0x1 PUSH1 0xA0 SHL SUB AND DUP5 PUSH1 0x1 PUSH1 0x1 PUSH1 0xA0 SHL SUB AND PUSH32 0xDDF252AD1BE2C89B69C2B068FC378DAA952BA7F163C4A11628F55A4DF523B3EF DUP5 PUSH1 0x40 MLOAD PUSH2 0x17B3 SWAP2 DUP2 MSTORE PUSH1 0x20 ADD SWAP1 JUMP JUMPDEST PUSH1 0x40 MLOAD DUP1 SWAP2 SUB SWAP1 LOG3 POP POP POP POP JUMP JUMPDEST PUSH32 0xF0C57E16840DF040F15088DC2F81FE391C3923BEC73E23A9662EFC9C229C6A00 SLOAD PUSH1 0x1 PUSH1 0x40 SHL SWAP1 DIV PUSH1 0xFF AND PUSH2 0x96C JUMPI PUSH1 0x40 MLOAD PUSH4 0x1AFCD79F PUSH1 0xE3 SHL DUP2 MSTORE PUSH1 0x4 ADD PUSH1 0x40 MLOAD DUP1 SWAP2 SUB SWAP1 REVERT JUMPDEST PUSH2 0x1812 PUSH2 0x17C1 JUMP JUMPDEST PUSH0 DUP1 MLOAD PUSH1 0x20 PUSH2 0x2018 DUP4 CODECOPY DUP2 MLOAD SWAP2 MSTORE PUSH32 0x52C63247E1F47DB19D5CE0460030C497F067CA4CEBF71BA98EEADABE20BACE03 PUSH2 0x184B DUP5 DUP3 PUSH2 0x1F46 JUMP JUMPDEST POP PUSH1 0x4 DUP2 ADD PUSH2 0xB56 DUP4 DUP3 PUSH2 0x1F46 JUMP JUMPDEST PUSH2 0xE4D PUSH2 0x17C1 JUMP JUMPDEST PUSH2 0x186A PUSH2 0x17C1 JUMP JUMPDEST PUSH0 DUP1 MLOAD PUSH1 0x20 PUSH2 0x2058 DUP4 CODECOPY DUP2 MLOAD SWAP2 MSTORE DUP1 SLOAD PUSH1 0xFF NOT AND SWAP1 SSTORE JUMP JUMPDEST DUP1 PUSH1 0x1 PUSH1 0x1 PUSH1 0xA0 SHL SUB AND EXTCODESIZE PUSH0 SUB PUSH2 0x18B7 JUMPI PUSH1 0x40 MLOAD PUSH4 0x4C9C8CE3 PUSH1 0xE0 SHL DUP2 MSTORE PUSH1 0x1 PUSH1 0x1 PUSH1 0xA0 SHL SUB DUP3 AND PUSH1 0x4 DUP3 ADD MSTORE PUSH1 0x24 ADD PUSH2 0x6B7 JUMP JUMPDEST PUSH0 DUP1 MLOAD PUSH1 0x20 PUSH2 0x2038 DUP4 CODECOPY DUP2 MLOAD SWAP2 MSTORE DUP1 SLOAD PUSH1 0x1 PUSH1 0x1 PUSH1 0xA0 SHL SUB NOT AND PUSH1 0x1 PUSH1 0x1 PUSH1 0xA0 SHL SUB SWAP3 SWAP1 SWAP3 AND SWAP2 SWAP1 SWAP2 OR SWAP1 SSTORE JUMP JUMPDEST PUSH1 0x60 PUSH0 DUP1 DUP5 PUSH1 0x1 PUSH1 0x1 PUSH1 0xA0 SHL SUB AND DUP5 PUSH1 0x40 MLOAD PUSH2 0x1901 SWAP2 SWAP1 PUSH2 0x2001 JUMP JUMPDEST PUSH0 PUSH1 0x40 MLOAD DUP1 DUP4 SUB DUP2 DUP6 GAS DELEGATECALL SWAP2 POP POP RETURNDATASIZE DUP1 PUSH0 DUP2 EQ PUSH2 0x1939 JUMPI PUSH1 0x40 MLOAD SWAP2 POP PUSH1 0x1F NOT PUSH1 0x3F RETURNDATASIZE ADD AND DUP3 ADD PUSH1 0x40 MSTORE RETURNDATASIZE DUP3 MSTORE RETURNDATASIZE PUSH0 PUSH1 0x20 DUP5 ADD RETURNDATACOPY PUSH2 0x193E JUMP JUMPDEST PUSH1 0x60 SWAP2 POP JUMPDEST POP SWAP2 POP SWAP2 POP PUSH2 0x194E DUP6 DUP4 DUP4 PUSH2 0x1976 JUMP JUMPDEST SWAP6 SWAP5 POP POP POP POP POP JUMP JUMPDEST CALLVALUE ISZERO PUSH2 0x96C JUMPI PUSH1 0x40 MLOAD PUSH4 0xB398979F PUSH1 0xE0 SHL DUP2 MSTORE PUSH1 0x4 ADD PUSH1 0x40 MLOAD DUP1 SWAP2 SUB SWAP1 REVERT JUMPDEST PUSH1 0x60 DUP3 PUSH2 0x198B JUMPI PUSH2 0x1986 DUP3 PUSH2 0x19D2 JUMP JUMPDEST PUSH2 0x863 JUMP JUMPDEST DUP2 MLOAD ISZERO DUP1 ISZERO PUSH2 0x19A2 JUMPI POP PUSH1 0x1 PUSH1 0x1 PUSH1 0xA0 SHL SUB DUP5 AND EXTCODESIZE ISZERO JUMPDEST ISZERO PUSH2 0x19CB JUMPI PUSH1 0x40 MLOAD PUSH4 0x9996B315 PUSH1 0xE0 SHL DUP2 MSTORE PUSH1 0x1 PUSH1 0x1 PUSH1 0xA0 SHL SUB DUP6 AND PUSH1 0x4 DUP3 ADD MSTORE PUSH1 0x24 ADD PUSH2 0x6B7 JUMP JUMPDEST POP DUP1 PUSH2 0x863 JUMP JUMPDEST DUP1 MLOAD ISZERO PUSH2 0x19E2 JUMPI DUP1 MLOAD DUP1 DUP3 PUSH1 0x20 ADD REVERT JUMPDEST PUSH1 0x40 MLOAD PUSH4 0xD6BDA275 PUSH1 0xE0 SHL DUP2 MSTORE PUSH1 0x4 ADD PUSH1 0x40 MLOAD DUP1 SWAP2 SUB SWAP1 REVERT JUMPDEST PUSH1 0x20 DUP2 MSTORE PUSH0 DUP3 MLOAD DUP1 PUSH1 0x20 DUP5 ADD MSTORE DUP1 PUSH1 0x20 DUP6 ADD PUSH1 0x40 DUP6 ADD MCOPY PUSH0 PUSH1 0x40 DUP3 DUP6 ADD ADD MSTORE PUSH1 0x40 PUSH1 0x1F NOT PUSH1 0x1F DUP4 ADD AND DUP5 ADD ADD SWAP2 POP POP SWAP3 SWAP2 POP POP JUMP JUMPDEST DUP1 CALLDATALOAD PUSH1 0x1 PUSH1 0x1 PUSH1 0xA0 SHL SUB DUP2 AND DUP2 EQ PUSH2 0x1A46 JUMPI PUSH0 DUP1 REVERT JUMPDEST SWAP2 SWAP1 POP JUMP JUMPDEST PUSH0 DUP1 PUSH1 0x40 DUP4 DUP6 SUB SLT ISZERO PUSH2 0x1A5C JUMPI PUSH0 DUP1 REVERT JUMPDEST PUSH2 0x1A65 DUP4 PUSH2 0x1A30 JUMP JUMPDEST SWAP5 PUSH1 0x20 SWAP4 SWAP1 SWAP4 ADD CALLDATALOAD SWAP4 POP POP POP JUMP JUMPDEST PUSH0 DUP1 PUSH1 0x40 DUP4 DUP6 SUB SLT ISZERO PUSH2 0x1A84 JUMPI PUSH0 DUP1 REVERT JUMPDEST PUSH2 0x1A8D DUP4 PUSH2 0x1A30 JUMP JUMPDEST SWAP2 POP PUSH1 0x20 DUP4 ADD CALLDATALOAD DUP1 ISZERO ISZERO DUP2 EQ PUSH2 0x1AA1 JUMPI PUSH0 DUP1 REVERT JUMPDEST DUP1 SWAP2 POP POP SWAP3 POP SWAP3 SWAP1 POP JUMP JUMPDEST PUSH0 DUP1 PUSH0 PUSH1 0x60 DUP5 DUP7 SUB SLT ISZERO PUSH2 0x1ABE JUMPI PUSH0 DUP1 REVERT JUMPDEST PUSH2 0x1AC7 DUP5 PUSH2 0x1A30 JUMP JUMPDEST SWAP3 POP PUSH2 0x1AD5 PUSH1 0x20 DUP6 ADD PUSH2 0x1A30 JUMP JUMPDEST SWAP3 SWAP6 SWAP3 SWAP5 POP POP POP PUSH1 0x40 SWAP2 SWAP1 SWAP2 ADD CALLDATALOAD SWAP1 JUMP JUMPDEST PUSH0 PUSH1 0x20 DUP3 DUP5 SUB SLT ISZERO PUSH2 0x1AF6 JUMPI PUSH0 DUP1 REVERT JUMPDEST PUSH2 0x863 DUP3 PUSH2 0x1A30 JUMP JUMPDEST PUSH4 0x4E487B71 PUSH1 0xE0 SHL PUSH0 MSTORE PUSH1 0x41 PUSH1 0x4 MSTORE PUSH1 0x24 PUSH0 REVERT JUMPDEST PUSH0 DUP1 PUSH8 0xFFFFFFFFFFFFFFFF DUP5 GT ISZERO PUSH2 0x1B2D JUMPI PUSH2 0x1B2D PUSH2 0x1AFF JUMP JUMPDEST POP PUSH1 0x40 MLOAD PUSH1 0x1F NOT PUSH1 0x1F DUP6 ADD DUP2 AND PUSH1 0x3F ADD AND DUP2 ADD DUP2 DUP2 LT PUSH8 0xFFFFFFFFFFFFFFFF DUP3 GT OR ISZERO PUSH2 0x1B5C JUMPI PUSH2 0x1B5C PUSH2 0x1AFF JUMP JUMPDEST PUSH1 0x40 MSTORE DUP4 DUP2 MSTORE SWAP1 POP DUP1 DUP3 DUP5 ADD DUP6 LT ISZERO PUSH2 0x1B73 JUMPI PUSH0 DUP1 REVERT JUMPDEST DUP4 DUP4 PUSH1 0x20 DUP4 ADD CALLDATACOPY PUSH0 PUSH1 0x20 DUP6 DUP4 ADD ADD MSTORE POP SWAP4 SWAP3 POP POP POP JUMP JUMPDEST PUSH0 DUP1 PUSH1 0x40 DUP4 DUP6 SUB SLT ISZERO PUSH2 0x1B9B JUMPI PUSH0 DUP1 REVERT JUMPDEST PUSH2 0x1BA4 DUP4 PUSH2 0x1A30 JUMP JUMPDEST SWAP2 POP PUSH1 0x20 DUP4 ADD CALLDATALOAD PUSH8 0xFFFFFFFFFFFFFFFF DUP2 GT ISZERO PUSH2 0x1BBF JUMPI PUSH0 DUP1 REVERT JUMPDEST DUP4 ADD PUSH1 0x1F DUP2 ADD DUP6 SGT PUSH2 0x1BCF JUMPI PUSH0 DUP1 REVERT JUMPDEST PUSH2 0x1BDE DUP6 DUP3 CALLDATALOAD PUSH1 0x20 DUP5 ADD PUSH2 0x1B13 JUMP JUMPDEST SWAP2 POP POP SWAP3 POP SWAP3 SWAP1 POP JUMP JUMPDEST PUSH0 DUP1 DUP4 PUSH1 0x1F DUP5 ADD SLT PUSH2 0x1BF8 JUMPI PUSH0 DUP1 REVERT JUMPDEST POP DUP2 CALLDATALOAD PUSH8 0xFFFFFFFFFFFFFFFF DUP2 GT ISZERO PUSH2 0x1C0F JUMPI PUSH0 DUP1 REVERT JUMPDEST PUSH1 0x20 DUP4 ADD SWAP2 POP DUP4 PUSH1 0x20 DUP3 PUSH1 0x5 SHL DUP6 ADD ADD GT ISZERO PUSH2 0x1C29 JUMPI PUSH0 DUP1 REVERT JUMPDEST SWAP3 POP SWAP3 SWAP1 POP JUMP JUMPDEST PUSH0 DUP1 PUSH0 DUP1 PUSH1 0x40 DUP6 DUP8 SUB SLT ISZERO PUSH2 0x1C43 JUMPI PUSH0 DUP1 REVERT JUMPDEST DUP5 CALLDATALOAD PUSH8 0xFFFFFFFFFFFFFFFF DUP2 GT ISZERO PUSH2 0x1C59 JUMPI PUSH0 DUP1 REVERT JUMPDEST PUSH2 0x1C65 DUP8 DUP3 DUP9 ADD PUSH2 0x1BE8 JUMP JUMPDEST SWAP1 SWAP6 POP SWAP4 POP POP PUSH1 0x20 DUP6 ADD CALLDATALOAD PUSH8 0xFFFFFFFFFFFFFFFF DUP2 GT ISZERO PUSH2 0x1C84 JUMPI PUSH0 DUP1 REVERT JUMPDEST PUSH2 0x1C90 DUP8 DUP3 DUP9 ADD PUSH2 0x1BE8 JUMP JUMPDEST SWAP6 SWAP9 SWAP5 SWAP8 POP SWAP6 POP POP POP POP JUMP JUMPDEST PUSH0 DUP3 PUSH1 0x1F DUP4 ADD SLT PUSH2 0x1CAB JUMPI PUSH0 DUP1 REVERT JUMPDEST PUSH2 0x863 DUP4 DUP4 CALLDATALOAD PUSH1 0x20 DUP6 ADD PUSH2 0x1B13 JUMP JUMPDEST PUSH0 DUP1 PUSH0 PUSH1 0x60 DUP5 DUP7 SUB SLT ISZERO PUSH2 0x1CCC JUMPI PUSH0 DUP1 REVERT JUMPDEST DUP4 CALLDATALOAD PUSH8 0xFFFFFFFFFFFFFFFF DUP2 GT ISZERO PUSH2 0x1CE2 JUMPI PUSH0 DUP1 REVERT JUMPDEST PUSH2 0x1CEE DUP7 DUP3 DUP8 ADD PUSH2 0x1C9C JUMP JUMPDEST SWAP4 POP POP PUSH1 0x20 DUP5 ADD CALLDATALOAD PUSH8 0xFFFFFFFFFFFFFFFF DUP2 GT ISZERO PUSH2 0x1D0A JUMPI PUSH0 DUP1 REVERT JUMPDEST PUSH2 0x1D16 DUP7 DUP3 DUP8 ADD PUSH2 0x1C9C JUMP JUMPDEST SWAP4 SWAP7 SWAP4 SWAP6 POP POP POP POP PUSH1 0x40 SWAP2 SWAP1 SWAP2 ADD CALLDATALOAD SWAP1 JUMP JUMPDEST PUSH0 DUP1 PUSH1 0x40 DUP4 DUP6 SUB SLT ISZERO PUSH2 0x1D39 JUMPI PUSH0 DUP1 REVERT JUMPDEST PUSH2 0x1D42 DUP4 PUSH2 0x1A30 JUMP JUMPDEST SWAP2 POP PUSH2 0x1D50 PUSH1 0x20 DUP5 ADD PUSH2 0x1A30 JUMP JUMPDEST SWAP1 POP SWAP3 POP SWAP3 SWAP1 POP JUMP JUMPDEST PUSH0 DUP1 PUSH0 PUSH1 0x60 DUP5 DUP7 SUB SLT ISZERO PUSH2 0x1D6B JUMPI PUSH0 DUP1 REVERT JUMPDEST PUSH2 0x1D74 DUP5 PUSH2 0x1A30 JUMP JUMPDEST SWAP6 PUSH1 0x20 DUP6 ADD CALLDATALOAD SWAP6 POP PUSH1 0x40 SWAP1 SWAP5 ADD CALLDATALOAD SWAP4 SWAP3 POP POP POP JUMP JUMPDEST PUSH1 0x1 DUP2 DUP2 SHR SWAP1 DUP3 AND DUP1 PUSH2 0x1D9D JUMPI PUSH1 0x7F DUP3 AND SWAP2 POP JUMPDEST PUSH1 0x20 DUP3 LT DUP2 SUB PUSH2 0x1DBB JUMPI PUSH4 0x4E487B71 PUSH1 0xE0 SHL PUSH0 MSTORE PUSH1 0x22 PUSH1 0x4 MSTORE PUSH1 0x24 PUSH0 REVERT JUMPDEST POP SWAP2 SWAP1 POP JUMP JUMPDEST PUSH1 0x20 DUP1 DUP3 MSTORE PUSH1 0xC SWAP1 DUP3 ADD MSTORE PUSH12 0x4E756C6C2041646472657373 PUSH1 0xA0 SHL PUSH1 0x40 DUP3 ADD MSTORE PUSH1 0x60 ADD SWAP1 JUMP JUMPDEST PUSH1 0x20 DUP1 DUP3 MSTORE PUSH1 0x26 SWAP1 DUP3 ADD MSTORE PUSH32 0x5472616E73666572206661696C65643A2053656E64657220697320626C61636B PUSH1 0x40 DUP3 ADD MSTORE PUSH6 0x1B1A5CDD1959 PUSH1 0xD2 SHL PUSH1 0x60 DUP3 ADD MSTORE PUSH1 0x80 ADD SWAP1 JUMP JUMPDEST PUSH1 0x20 DUP1 DUP3 MSTORE PUSH1 0x29 SWAP1 DUP3 ADD MSTORE PUSH32 0x5472616E73666572206661696C65643A20526563697069656E7420697320626C PUSH1 0x40 DUP3 ADD MSTORE PUSH9 0x1858DADB1A5CDD1959 PUSH1 0xBA SHL PUSH1 0x60 DUP3 ADD MSTORE PUSH1 0x80 ADD SWAP1 JUMP JUMPDEST PUSH1 0x20 DUP1 DUP3 MSTORE PUSH1 0x22 SWAP1 DUP3 ADD MSTORE PUSH32 0x5472616E73666572206661696C65643A20546F6B656E7320617265206C6F636B PUSH1 0x40 DUP3 ADD MSTORE PUSH2 0x1959 PUSH1 0xF2 SHL PUSH1 0x60 DUP3 ADD MSTORE PUSH1 0x80 ADD SWAP1 JUMP JUMPDEST PUSH4 0x4E487B71 PUSH1 0xE0 SHL PUSH0 MSTORE PUSH1 0x32 PUSH1 0x4 MSTORE PUSH1 0x24 PUSH0 REVERT JUMPDEST PUSH0 PUSH1 0x20 DUP3 DUP5 SUB SLT ISZERO PUSH2 0x1EDC JUMPI PUSH0 DUP1 REVERT JUMPDEST POP MLOAD SWAP2 SWAP1 POP JUMP JUMPDEST DUP1 DUP3 ADD DUP1 DUP3 GT ISZERO PUSH2 0x683 JUMPI PUSH4 0x4E487B71 PUSH1 0xE0 SHL PUSH0 MSTORE PUSH1 0x11 PUSH1 0x4 MSTORE PUSH1 0x24 PUSH0 REVERT JUMPDEST PUSH1 0x1F DUP3 GT ISZERO PUSH2 0x1005 JUMPI DUP1 PUSH0 MSTORE PUSH1 0x20 PUSH0 KECCAK256 PUSH1 0x1F DUP5 ADD PUSH1 0x5 SHR DUP2 ADD PUSH1 0x20 DUP6 LT ISZERO PUSH2 0x1F27 JUMPI POP DUP1 JUMPDEST PUSH1 0x1F DUP5 ADD PUSH1 0x5 SHR DUP3 ADD SWAP2 POP JUMPDEST DUP2 DUP2 LT ISZERO PUSH2 0x15A0 JUMPI PUSH0 DUP2 SSTORE PUSH1 0x1 ADD PUSH2 0x1F33 JUMP JUMPDEST DUP2 MLOAD PUSH8 0xFFFFFFFFFFFFFFFF DUP2 GT ISZERO PUSH2 0x1F60 JUMPI PUSH2 0x1F60 PUSH2 0x1AFF JUMP JUMPDEST PUSH2 0x1F74 DUP2 PUSH2 0x1F6E DUP5 SLOAD PUSH2 0x1D89 JUMP JUMPDEST DUP5 PUSH2 0x1F02 JUMP JUMPDEST PUSH1 0x20 PUSH1 0x1F DUP3 GT PUSH1 0x1 DUP2 EQ PUSH2 0x1FA6 JUMPI PUSH0 DUP4 ISZERO PUSH2 0x1F8F JUMPI POP DUP5 DUP3 ADD MLOAD JUMPDEST PUSH0 NOT PUSH1 0x3 DUP6 SWAP1 SHL SHR NOT AND PUSH1 0x1 DUP5 SWAP1 SHL OR DUP5 SSTORE PUSH2 0x15A0 JUMP JUMPDEST PUSH0 DUP5 DUP2 MSTORE PUSH1 0x20 DUP2 KECCAK256 PUSH1 0x1F NOT DUP6 AND SWAP2 JUMPDEST DUP3 DUP2 LT ISZERO PUSH2 0x1FD5 JUMPI DUP8 DUP6 ADD MLOAD DUP3 SSTORE PUSH1 0x20 SWAP5 DUP6 ADD SWAP5 PUSH1 0x1 SWAP1 SWAP3 ADD SWAP2 ADD PUSH2 0x1FB5 JUMP JUMPDEST POP DUP5 DUP3 LT ISZERO PUSH2 0x1FF2 JUMPI DUP7 DUP5 ADD MLOAD PUSH0 NOT PUSH1 0x3 DUP8 SWAP1 SHL PUSH1 0xF8 AND SHR NOT AND DUP2 SSTORE JUMPDEST POP POP POP POP PUSH1 0x1 SWAP1 DUP2 SHL ADD SWAP1 SSTORE POP JUMP JUMPDEST PUSH0 DUP3 MLOAD DUP1 PUSH1 0x20 DUP6 ADD DUP5 MCOPY PUSH0 SWAP3 ADD SWAP2 DUP3 MSTORE POP SWAP2 SWAP1 POP JUMP INVALID MSTORE 0xC6 ORIGIN SELFBALANCE 0xE1 DELEGATECALL PUSH30 0xB19D5CE0460030C497F067CA4CEBF71BA98EEADABE20BACE00360894A13B LOG1 LOG3 0x21 MOD PUSH8 0xC828492DB98DCA3E KECCAK256 PUSH23 0xCC3735A920A3CA505D382BBCCD5ED15C6E187E77E9AEE8 DUP2 DUP5 0xC2 0x1F 0x4F 0x21 DUP3 0xAB PC 0x27 0xCB EXTCODESIZE PUSH31 0x7FBEDCD63F033009B779B17422D0DF92223018B32B4D1FA46E071723D6817 0xE2 BASEFEE PUSH14 0x3BECC55F00A264697066735822 SLT KECCAK256 NUMBER PUSH1 0x34 PUSH6 0xF259D3E87EBA 0x23 PUSH18 0xD0B0C56D8F1F7391166860492BA6CB00A955 CALLDATASIZE CREATE2 PUSH5 0x736F6C6343 STOP ADDMOD BYTE STOP CALLER "
				},
				"gasEstimates": {
					"creation": {
						"codeDepositCost": "1679400",
						"executionCost": "infinite",
						"totalCost": "infinite"
					},
					"external": {
						"UPGRADE_INTERFACE_VERSION()": "infinite",
						"allowance(address,address)": "infinite",
						"approve(address,uint256)": "infinite",
						"balanceOf(address)": "infinite",
						"batchTransfer(address[],uint256[])": "infinite",
						"blacklisted(address)": "2617",
						"decimals()": "288",
						"icoContract()": "2402",
						"initialize(string,string,uint256)": "infinite",
						"isBlacklisted(address)": "2656",
						"lockedAmount(address)": "2583",
						"lockedUntil(address)": "2561",
						"name()": "infinite",
						"owner()": "2387",
						"pause()": "infinite",
						"paused()": "infinite",
						"proxiableUUID()": "infinite",
						"renounceOwnership()": "infinite",
						"setBlacklist(address,bool)": "28453",
						"setICOContract(address)": "infinite",
						"setLockup(address,uint256,uint256)": "infinite",
						"symbol()": "infinite",
						"totalSupply()": "2326",
						"transfer(address,uint256)": "infinite",
						"transferFrom(address,address,uint256)": "infinite",
						"transferOwnership(address)": "28431",
						"unpause()": "infinite",
						"upgradeToAndCall(address,bytes)": "infinite"
					},
					"internal": {
						"_authorizeUpgrade(address)": "infinite"
					}
				},
				"methodIdentifiers": {
					"UPGRADE_INTERFACE_VERSION()": "ad3cb1cc",
					"allowance(address,address)": "dd62ed3e",
					"approve(address,uint256)": "095ea7b3",
					"balanceOf(address)": "70a08231",
					"batchTransfer(address[],uint256[])": "88d695b2",
					"blacklisted(address)": "dbac26e9",
					"decimals()": "313ce567",
					"icoContract()": "c66e4095",
					"initialize(string,string,uint256)": "b119490e",
					"isBlacklisted(address)": "fe575a87",
					"lockedAmount(address)": "a153e708",
					"lockedUntil(address)": "9bc289f1",
					"name()": "06fdde03",
					"owner()": "8da5cb5b",
					"pause()": "8456cb59",
					"paused()": "5c975abb",
					"proxiableUUID()": "52d1902d",
					"renounceOwnership()": "715018a6",
					"setBlacklist(address,bool)": "153b0d1e",
					"setICOContract(address)": "2e0d2a00",
					"setLockup(address,uint256,uint256)": "f326f0d7",
					"symbol()": "95d89b41",
					"totalSupply()": "18160ddd",
					"transfer(address,uint256)": "a9059cbb",
					"transferFrom(address,address,uint256)": "23b872dd",
					"transferOwnership(address)": "f2fde38b",
					"unpause()": "3f4ba83a",
					"upgradeToAndCall(address,bytes)": "4f1ef286"
				}
			},
			"storageLayout": {
				"storage": [
					{
						"astId": 2929,
						"contract": "RVA/UpgradableToken.sol:ERC20Token",
						"label": "icoContract",
						"offset": 0,
						"slot": "0",
						"type": "t_address"
					},
					{
						"astId": 2931,
						"contract": "RVA/UpgradableToken.sol:ERC20Token",
						"label": "_totalSupply",
						"offset": 0,
						"slot": "1",
						"type": "t_uint256"
					},
					{
						"astId": 2938,
						"contract": "RVA/UpgradableToken.sol:ERC20Token",
						"label": "blacklisted",
						"offset": 0,
						"slot": "2",
						"type": "t_mapping(t_address,t_bool)"
					},
					{
						"astId": 2942,
						"contract": "RVA/UpgradableToken.sol:ERC20Token",
						"label": "lockedUntil",
						"offset": 0,
						"slot": "3",
						"type": "t_mapping(t_address,t_uint256)"
					},
					{
						"astId": 2946,
						"contract": "RVA/UpgradableToken.sol:ERC20Token",
						"label": "lockedAmount",
						"offset": 0,
						"slot": "4",
						"type": "t_mapping(t_address,t_uint256)"
					}
				],
				"types": {
					"t_address": {
						"encoding": "inplace",
						"label": "address",
						"numberOfBytes": "20"
					},
					"t_bool": {
						"encoding": "inplace",
						"label": "bool",
						"numberOfBytes": "1"
					},
					"t_mapping(t_address,t_bool)": {
						"encoding": "mapping",
						"key": "t_address",
						"label": "mapping(address => bool)",
						"numberOfBytes": "32",
						"value": "t_bool"
					},
					"t_mapping(t_address,t_uint256)": {
						"encoding": "mapping",
						"key": "t_address",
						"label": "mapping(address => uint256)",
						"numberOfBytes": "32",
						"value": "t_uint256"
					},
					"t_uint256": {
						"encoding": "inplace",
						"label": "uint256",
						"numberOfBytes": "32"
					}
				}
			},
			"userdoc": {
				"kind": "user",
				"methods": {},
				"version": 1
			}
		}
	}
}