{
	"RVA/UpgradableToken.sol": {
		"ERC20Token": {
			"abi": [
				{
					"inputs": [],
					"stateMutability": "nonpayable",
					"type": "constructor"
				},
				{
					"inputs": [
						{
							"internalType": "address",
							"name": "target",
							"type": "address"
						}
					],
					"name": "AddressEmptyCode",
					"type": "error"
				},
				{
					"inputs": [
						{
							"internalType": "address",
							"name": "implementation",
							"type": "address"
						}
					],
					"name": "ERC1967InvalidImplementation",
					"type": "error"
				},
				{
					"inputs": [],
					"name": "ERC1967NonPayable",
					"type": "error"
				},
				{
					"inputs": [
						{
							"internalType": "address",
							"name": "spender",
							"type": "address"
						},
						{
							"internalType": "uint256",
							"name": "allowance",
							"type": "uint256"
						},
						{
							"internalType": "uint256",
							"name": "needed",
							"type": "uint256"
						}
					],
					"name": "ERC20InsufficientAllowance",
					"type": "error"
				},
				{
					"inputs": [
						{
							"internalType": "address",
							"name": "sender",
							"type": "address"
						},
						{
							"internalType": "uint256",
							"name": "balance",
							"type": "uint256"
						},
						{
							"internalType": "uint256",
							"name": "needed",
							"type": "uint256"
						}
					],
					"name": "ERC20InsufficientBalance",
					"type": "error"
				},
				{
					"inputs": [
						{
							"internalType": "address",
							"name": "approver",
							"type": "address"
						}
					],
					"name": "ERC20InvalidApprover",
					"type": "error"
				},
				{
					"inputs": [
						{
							"internalType": "address",
							"name": "receiver",
							"type": "address"
						}
					],
					"name": "ERC20InvalidReceiver",
					"type": "error"
				},
				{
					"inputs": [
						{
							"internalType": "address",
							"name": "sender",
							"type": "address"
						}
					],
					"name": "ERC20InvalidSender",
					"type": "error"
				},
				{
					"inputs": [
						{
							"internalType": "address",
							"name": "spender",
							"type": "address"
						}
					],
					"name": "ERC20InvalidSpender",
					"type": "error"
				},
				{
					"inputs": [],
					"name": "FailedCall",
					"type": "error"
				},
				{
					"inputs": [],
					"name": "InvalidInitialization",
					"type": "error"
				},
				{
					"inputs": [],
					"name": "NotInitializing",
					"type": "error"
				},
				{
					"inputs": [
						{
							"internalType": "address",
							"name": "owner",
							"type": "address"
						}
					],
					"name": "OwnableInvalidOwner",
					"type": "error"
				},
				{
					"inputs": [
						{
							"internalType": "address",
							"name": "account",
							"type": "address"
						}
					],
					"name": "OwnableUnauthorizedAccount",
					"type": "error"
				},
				{
					"inputs": [],
					"name": "UUPSUnauthorizedCallContext",
					"type": "error"
				},
				{
					"inputs": [
						{
							"internalType": "bytes32",
							"name": "slot",
							"type": "bytes32"
						}
					],
					"name": "UUPSUnsupportedProxiableUUID",
					"type": "error"
				},
				{
					"anonymous": false,
					"inputs": [
						{
							"indexed": true,
							"internalType": "address",
							"name": "owner",
							"type": "address"
						},
						{
							"indexed": true,
							"internalType": "address",
							"name": "spender",
							"type": "address"
						},
						{
							"indexed": false,
							"internalType": "uint256",
							"name": "value",
							"type": "uint256"
						}
					],
					"name": "Approval",
					"type": "event"
				},
				{
					"anonymous": false,
					"inputs": [
						{
							"indexed": true,
							"internalType": "address",
							"name": "account",
							"type": "address"
						},
						{
							"indexed": false,
							"internalType": "bool",
							"name": "isBlacklisted",
							"type": "bool"
						}
					],
					"name": "Blacklisted",
					"type": "event"
				},
				{
					"anonymous": false,
					"inputs": [
						{
							"indexed": true,
							"internalType": "address",
							"name": "token",
							"type": "address"
						},
						{
							"indexed": false,
							"internalType": "uint256",
							"name": "amount",
							"type": "uint256"
						}
					],
					"name": "EmergencyTokenRecovered",
					"type": "event"
				},
				{
					"anonymous": false,
					"inputs": [
						{
							"indexed": true,
							"internalType": "address",
							"name": "icoContract",
							"type": "address"
						}
					],
					"name": "ICOContractSet",
					"type": "event"
				},
				{
					"anonymous": false,
					"inputs": [
						{
							"indexed": false,
							"internalType": "uint64",
							"name": "version",
							"type": "uint64"
						}
					],
					"name": "Initialized",
					"type": "event"
				},
				{
					"anonymous": false,
					"inputs": [
						{
							"indexed": true,
							"internalType": "address",
							"name": "account",
							"type": "address"
						},
						{
							"indexed": false,
							"internalType": "uint256",
							"name": "lockedUntilTimestamp",
							"type": "uint256"
						}
					],
					"name": "LockupSet",
					"type": "event"
				},
				{
					"anonymous": false,
					"inputs": [
						{
							"indexed": true,
							"internalType": "address",
							"name": "previousOwner",
							"type": "address"
						},
						{
							"indexed": true,
							"internalType": "address",
							"name": "newOwner",
							"type": "address"
						}
					],
					"name": "OwnershipTransferred",
					"type": "event"
				},
				{
					"anonymous": false,
					"inputs": [
						{
							"indexed": false,
							"internalType": "address",
							"name": "account",
							"type": "address"
						}
					],
					"name": "Paused",
					"type": "event"
				},
				{
					"anonymous": false,
					"inputs": [
						{
							"indexed": true,
							"internalType": "address",
							"name": "from",
							"type": "address"
						},
						{
							"indexed": true,
							"internalType": "address",
							"name": "to",
							"type": "address"
						},
						{
							"indexed": false,
							"internalType": "uint256",
							"name": "value",
							"type": "uint256"
						}
					],
					"name": "Transfer",
					"type": "event"
				},
				{
					"anonymous": false,
					"inputs": [
						{
							"indexed": false,
							"internalType": "address",
							"name": "account",
							"type": "address"
						}
					],
					"name": "Unpaused",
					"type": "event"
				},
				{
					"anonymous": false,
					"inputs": [
						{
							"indexed": true,
							"internalType": "address",
							"name": "implementation",
							"type": "address"
						}
					],
					"name": "Upgraded",
					"type": "event"
				},
				{
					"inputs": [],
					"name": "UPGRADE_INTERFACE_VERSION",
					"outputs": [
						{
							"internalType": "string",
							"name": "",
							"type": "string"
						}
					],
					"stateMutability": "view",
					"type": "function"
				},
				{
					"inputs": [
						{
							"internalType": "address",
							"name": "owner",
							"type": "address"
						},
						{
							"internalType": "address",
							"name": "spender",
							"type": "address"
						}
					],
					"name": "allowance",
					"outputs": [
						{
							"internalType": "uint256",
							"name": "",
							"type": "uint256"
						}
					],
					"stateMutability": "view",
					"type": "function"
				},
				{
					"inputs": [
						{
							"internalType": "address",
							"name": "spender",
							"type": "address"
						},
						{
							"internalType": "uint256",
							"name": "value",
							"type": "uint256"
						}
					],
					"name": "approve",
					"outputs": [
						{
							"internalType": "bool",
							"name": "",
							"type": "bool"
						}
					],
					"stateMutability": "nonpayable",
					"type": "function"
				},
				{
					"inputs": [
						{
							"internalType": "address",
							"name": "account",
							"type": "address"
						}
					],
					"name": "balanceOf",
					"outputs": [
						{
							"internalType": "uint256",
							"name": "",
							"type": "uint256"
						}
					],
					"stateMutability": "view",
					"type": "function"
				},
				{
					"inputs": [
						{
							"internalType": "address[]",
							"name": "recipients",
							"type": "address[]"
						},
						{
							"internalType": "uint256[]",
							"name": "amounts",
							"type": "uint256[]"
						}
					],
					"name": "batchTransfer",
					"outputs": [],
					"stateMutability": "nonpayable",
					"type": "function"
				},
				{
					"inputs": [
						{
							"internalType": "address",
							"name": "",
							"type": "address"
						}
					],
					"name": "blacklisted",
					"outputs": [
						{
							"internalType": "bool",
							"name": "",
							"type": "bool"
						}
					],
					"stateMutability": "view",
					"type": "function"
				},
				{
					"inputs": [],
					"name": "decimals",
					"outputs": [
						{
							"internalType": "uint8",
							"name": "",
							"type": "uint8"
						}
					],
					"stateMutability": "view",
					"type": "function"
				},
				{
					"inputs": [],
					"name": "icoContract",
					"outputs": [
						{
							"internalType": "address",
							"name": "",
							"type": "address"
						}
					],
					"stateMutability": "view",
					"type": "function"
				},
				{
					"inputs": [
						{
							"internalType": "string",
							"name": "name",
							"type": "string"
						},
						{
							"internalType": "string",
							"name": "symbol",
							"type": "string"
						},
						{
							"internalType": "uint256",
							"name": "totalSupply_",
							"type": "uint256"
						}
					],
					"name": "initialize",
					"outputs": [],
					"stateMutability": "nonpayable",
					"type": "function"
				},
				{
					"inputs": [
						{
							"internalType": "address",
							"name": "account",
							"type": "address"
						}
					],
					"name": "isBlacklisted",
					"outputs": [
						{
							"internalType": "bool",
							"name": "",
							"type": "bool"
						}
					],
					"stateMutability": "view",
					"type": "function"
				},
				{
					"inputs": [
						{
							"internalType": "address",
							"name": "",
							"type": "address"
						}
					],
					"name": "lockedUntil",
					"outputs": [
						{
							"internalType": "uint256",
							"name": "",
							"type": "uint256"
						}
					],
					"stateMutability": "view",
					"type": "function"
				},
				{
					"inputs": [],
					"name": "name",
					"outputs": [
						{
							"internalType": "string",
							"name": "",
							"type": "string"
						}
					],
					"stateMutability": "view",
					"type": "function"
				},
				{
					"inputs": [],
					"name": "owner",
					"outputs": [
						{
							"internalType": "address",
							"name": "",
							"type": "address"
						}
					],
					"stateMutability": "view",
					"type": "function"
				},
				{
					"inputs": [],
					"name": "pause",
					"outputs": [],
					"stateMutability": "nonpayable",
					"type": "function"
				},
				{
					"inputs": [],
					"name": "paused",
					"outputs": [
						{
							"internalType": "bool",
							"name": "",
							"type": "bool"
						}
					],
					"stateMutability": "view",
					"type": "function"
				},
				{
					"inputs": [],
					"name": "proxiableUUID",
					"outputs": [
						{
							"internalType": "bytes32",
							"name": "",
							"type": "bytes32"
						}
					],
					"stateMutability": "view",
					"type": "function"
				},
				{
					"inputs": [],
					"name": "renounceOwnership",
					"outputs": [],
					"stateMutability": "nonpayable",
					"type": "function"
				},
				{
					"inputs": [
						{
							"internalType": "address",
							"name": "account",
							"type": "address"
						},
						{
							"internalType": "bool",
							"name": "status",
							"type": "bool"
						}
					],
					"name": "setBlacklist",
					"outputs": [],
					"stateMutability": "nonpayable",
					"type": "function"
				},
				{
					"inputs": [
						{
							"internalType": "address",
							"name": "_icoContract",
							"type": "address"
						}
					],
					"name": "setICOContract",
					"outputs": [],
					"stateMutability": "nonpayable",
					"type": "function"
				},
				{
					"inputs": [
						{
							"internalType": "address",
							"name": "account",
							"type": "address"
						},
						{
							"internalType": "uint256",
							"name": "timestamp",
							"type": "uint256"
						}
					],
					"name": "setLockup",
					"outputs": [],
					"stateMutability": "nonpayable",
					"type": "function"
				},
				{
					"inputs": [],
					"name": "symbol",
					"outputs": [
						{
							"internalType": "string",
							"name": "",
							"type": "string"
						}
					],
					"stateMutability": "view",
					"type": "function"
				},
				{
					"inputs": [],
					"name": "totalSupply",
					"outputs": [
						{
							"internalType": "uint256",
							"name": "",
							"type": "uint256"
						}
					],
					"stateMutability": "view",
					"type": "function"
				},
				{
					"inputs": [
						{
							"internalType": "address",
							"name": "recipient",
							"type": "address"
						},
						{
							"internalType": "uint256",
							"name": "amount",
							"type": "uint256"
						}
					],
					"name": "transfer",
					"outputs": [
						{
							"internalType": "bool",
							"name": "",
							"type": "bool"
						}
					],
					"stateMutability": "nonpayable",
					"type": "function"
				},
				{
					"inputs": [
						{
							"internalType": "address",
							"name": "sender",
							"type": "address"
						},
						{
							"internalType": "address",
							"name": "recipient",
							"type": "address"
						},
						{
							"internalType": "uint256",
							"name": "amount",
							"type": "uint256"
						}
					],
					"name": "transferFrom",
					"outputs": [
						{
							"internalType": "bool",
							"name": "",
							"type": "bool"
						}
					],
					"stateMutability": "nonpayable",
					"type": "function"
				},
				{
					"inputs": [
						{
							"internalType": "address",
							"name": "newOwner",
							"type": "address"
						}
					],
					"name": "transferOwnership",
					"outputs": [],
					"stateMutability": "nonpayable",
					"type": "function"
				},
				{
					"inputs": [],
					"name": "unpause",
					"outputs": [],
					"stateMutability": "nonpayable",
					"type": "function"
				},
				{
					"inputs": [
						{
							"internalType": "address",
							"name": "newImplementation",
							"type": "address"
						},
						{
							"internalType": "bytes",
							"name": "data",
							"type": "bytes"
						}
					],
					"name": "upgradeToAndCall",
					"outputs": [],
					"stateMutability": "payable",
					"type": "function"
				}
			],
			"devdoc": {
				"errors": {
					"AddressEmptyCode(address)": [
						{
							"details": "There's no code at `target` (it is not a contract)."
						}
					],
					"ERC1967InvalidImplementation(address)": [
						{
							"details": "The `implementation` of the proxy is invalid."
						}
					],
					"ERC1967NonPayable()": [
						{
							"details": "An upgrade function sees `msg.value > 0` that may be lost."
						}
					],
					"ERC20InsufficientAllowance(address,uint256,uint256)": [
						{
							"details": "Indicates a failure with the `spender`’s `allowance`. Used in transfers.",
							"params": {
								"allowance": "Amount of tokens a `spender` is allowed to operate with.",
								"needed": "Minimum amount required to perform a transfer.",
								"spender": "Address that may be allowed to operate on tokens without being their owner."
							}
						}
					],
					"ERC20InsufficientBalance(address,uint256,uint256)": [
						{
							"details": "Indicates an error related to the current `balance` of a `sender`. Used in transfers.",
							"params": {
								"balance": "Current balance for the interacting account.",
								"needed": "Minimum amount required to perform a transfer.",
								"sender": "Address whose tokens are being transferred."
							}
						}
					],
					"ERC20InvalidApprover(address)": [
						{
							"details": "Indicates a failure with the `approver` of a token to be approved. Used in approvals.",
							"params": {
								"approver": "Address initiating an approval operation."
							}
						}
					],
					"ERC20InvalidReceiver(address)": [
						{
							"details": "Indicates a failure with the token `receiver`. Used in transfers.",
							"params": {
								"receiver": "Address to which tokens are being transferred."
							}
						}
					],
					"ERC20InvalidSender(address)": [
						{
							"details": "Indicates a failure with the token `sender`. Used in transfers.",
							"params": {
								"sender": "Address whose tokens are being transferred."
							}
						}
					],
					"ERC20InvalidSpender(address)": [
						{
							"details": "Indicates a failure with the `spender` to be approved. Used in approvals.",
							"params": {
								"spender": "Address that may be allowed to operate on tokens without being their owner."
							}
						}
					],
					"FailedCall()": [
						{
							"details": "A call to an address target failed. The target may have reverted."
						}
					],
					"InvalidInitialization()": [
						{
							"details": "The contract is already initialized."
						}
					],
					"NotInitializing()": [
						{
							"details": "The contract is not initializing."
						}
					],
					"OwnableInvalidOwner(address)": [
						{
							"details": "The owner is not a valid owner account. (eg. `address(0)`)"
						}
					],
					"OwnableUnauthorizedAccount(address)": [
						{
							"details": "The caller account is not authorized to perform an operation."
						}
					],
					"UUPSUnauthorizedCallContext()": [
						{
							"details": "The call is from an unauthorized context."
						}
					],
					"UUPSUnsupportedProxiableUUID(bytes32)": [
						{
							"details": "The storage `slot` is unsupported as a UUID."
						}
					]
				},
				"events": {
					"Approval(address,address,uint256)": {
						"details": "Emitted when the allowance of a `spender` for an `owner` is set by a call to {approve}. `value` is the new allowance."
					},
					"Initialized(uint64)": {
						"details": "Triggered when the contract has been initialized or reinitialized."
					},
					"Paused(address)": {
						"details": "Emitted when the pause is triggered by `account`."
					},
					"Transfer(address,address,uint256)": {
						"details": "Emitted when `value` tokens are moved from one account (`from`) to another (`to`). Note that `value` may be zero."
					},
					"Unpaused(address)": {
						"details": "Emitted when the pause is lifted by `account`."
					},
					"Upgraded(address)": {
						"details": "Emitted when the implementation is upgraded."
					}
				},
				"kind": "dev",
				"methods": {
					"allowance(address,address)": {
						"details": "See {IERC20-allowance}."
					},
					"approve(address,uint256)": {
						"details": "See {IERC20-approve}. NOTE: If `value` is the maximum `uint256`, the allowance is not updated on `transferFrom`. This is semantically equivalent to an infinite approval. Requirements: - `spender` cannot be the zero address."
					},
					"balanceOf(address)": {
						"details": "See {IERC20-balanceOf}."
					},
					"constructor": {
						"custom:oz-upgrades-unsafe-allow": "constructor"
					},
					"decimals()": {
						"details": "Returns the number of decimals used to get its user representation. For example, if `decimals` equals `2`, a balance of `505` tokens should be displayed to a user as `5.05` (`505 / 10 ** 2`). Tokens usually opt for a value of 18, imitating the relationship between Ether and Wei. This is the default value returned by this function, unless it's overridden. NOTE: This information is only used for _display_ purposes: it in no way affects any of the arithmetic of the contract, including {IERC20-balanceOf} and {IERC20-transfer}."
					},
					"name()": {
						"details": "Returns the name of the token."
					},
					"owner()": {
						"details": "Returns the address of the current owner."
					},
					"paused()": {
						"details": "Returns true if the contract is paused, and false otherwise."
					},
					"proxiableUUID()": {
						"details": "Implementation of the ERC-1822 {proxiableUUID} function. This returns the storage slot used by the implementation. It is used to validate the implementation's compatibility when performing an upgrade. IMPORTANT: A proxy pointing at a proxiable contract should not be considered proxiable itself, because this risks bricking a proxy that upgrades to it, by delegating to itself until out of gas. Thus it is critical that this function revert if invoked through a proxy. This is guaranteed by the `notDelegated` modifier."
					},
					"renounceOwnership()": {
						"details": "Leaves the contract without owner. It will not be possible to call `onlyOwner` functions. Can only be called by the current owner. NOTE: Renouncing ownership will leave the contract without an owner, thereby disabling any functionality that is only available to the owner."
					},
					"symbol()": {
						"details": "Returns the symbol of the token, usually a shorter version of the name."
					},
					"totalSupply()": {
						"details": "See {IERC20-totalSupply}."
					},
					"transferOwnership(address)": {
						"details": "Transfers ownership of the contract to a new account (`newOwner`). Can only be called by the current owner."
					},
					"upgradeToAndCall(address,bytes)": {
						"custom:oz-upgrades-unsafe-allow-reachable": "delegatecall",
						"details": "Upgrade the implementation of the proxy to `newImplementation`, and subsequently execute the function call encoded in `data`. Calls {_authorizeUpgrade}. Emits an {Upgraded} event."
					}
				},
				"version": 1
			},
			"evm": {
				"assembly": "    /* \"RVA/UpgradableToken.sol\":371:4001  contract ERC20Token is ERC20Upgradeable, OwnableUpgradeable, PausableUpgradeable, UUPSUpgradeable {... */\n  mstore(0x40, 0xa0)\n    /* \"@openzeppelin/contracts-upgradeable/proxy/utils/UUPSUpgradeable.sol\":1171:1175  this */\n  address\n    /* \"@openzeppelin/contracts-upgradeable/proxy/utils/UUPSUpgradeable.sol\":1128:1176  address private immutable __self = address(this) */\n  0xffffffffffffffffffffffffffffffffffffffff\n  and\n  0x80\n  swap1\n  0xffffffffffffffffffffffffffffffffffffffff\n  and\n  dup2\n  mstore\n  pop\n    /* \"RVA/UpgradableToken.sol\":971:1076  constructor() {... */\n  callvalue\n  dup1\n  iszero\n  tag_1\n  jumpi\n  0x00\n  dup1\n  revert\ntag_1:\n  pop\n    /* \"RVA/UpgradableToken.sol\":995:1017  _disableInitializers() */\n  tag_4\n    /* \"RVA/UpgradableToken.sol\":995:1015  _disableInitializers */\n  shl(0x20, tag_5)\n    /* \"RVA/UpgradableToken.sol\":995:1017  _disableInitializers() */\n  0x20\n  shr\n  jump\t// in\ntag_4:\n    /* \"RVA/UpgradableToken.sol\":371:4001  contract ERC20Token is ERC20Upgradeable, OwnableUpgradeable, PausableUpgradeable, UUPSUpgradeable {... */\n  jump(tag_6)\n    /* \"@openzeppelin/contracts-upgradeable/proxy/utils/Initializable.sol\":7711:8133  function _disableInitializers() internal virtual {... */\ntag_5:\n    /* \"@openzeppelin/contracts-upgradeable/proxy/utils/Initializable.sol\":7826:7856  InitializableStorage storage $ */\n  0x00\n    /* \"@openzeppelin/contracts-upgradeable/proxy/utils/Initializable.sol\":7859:7885  _getInitializableStorage() */\n  tag_8\n    /* \"@openzeppelin/contracts-upgradeable/proxy/utils/Initializable.sol\":7859:7883  _getInitializableStorage */\n  shl(0x20, tag_9)\n    /* \"@openzeppelin/contracts-upgradeable/proxy/utils/Initializable.sol\":7859:7885  _getInitializableStorage() */\n  0x20\n  shr\n  jump\t// in\ntag_8:\n    /* \"@openzeppelin/contracts-upgradeable/proxy/utils/Initializable.sol\":7826:7885  InitializableStorage storage $ = _getInitializableStorage() */\n  swap1\n  pop\n    /* \"@openzeppelin/contracts-upgradeable/proxy/utils/Initializable.sol\":7900:7901  $ */\n  dup1\n    /* \"@openzeppelin/contracts-upgradeable/proxy/utils/Initializable.sol\":7900:7915  $._initializing */\n  0x00\n  add\n  0x08\n  swap1\n  sload\n  swap1\n  0x0100\n  exp\n  swap1\n  div\n  0xff\n  and\n    /* \"@openzeppelin/contracts-upgradeable/proxy/utils/Initializable.sol\":7896:7972  if ($._initializing) {... */\n  iszero\n  tag_10\n  jumpi\n    /* \"@openzeppelin/contracts-upgradeable/proxy/utils/Initializable.sol\":7938:7961  InvalidInitialization() */\n  mload(0x40)\n  0xf92ee8a900000000000000000000000000000000000000000000000000000000\n  dup2\n  mstore\n  0x04\n  add\n  mload(0x40)\n  dup1\n  swap2\n  sub\n  swap1\n  revert\n    /* \"@openzeppelin/contracts-upgradeable/proxy/utils/Initializable.sol\":7896:7972  if ($._initializing) {... */\ntag_10:\n    /* \"@openzeppelin/contracts-upgradeable/proxy/utils/Initializable.sol\":8003:8019  type(uint64).max */\n  0xffffffffffffffff\n    /* \"@openzeppelin/contracts-upgradeable/proxy/utils/Initializable.sol\":7985:8019  $._initialized != type(uint64).max */\n  dup1\n  and\n    /* \"@openzeppelin/contracts-upgradeable/proxy/utils/Initializable.sol\":7985:7986  $ */\n  dup2\n    /* \"@openzeppelin/contracts-upgradeable/proxy/utils/Initializable.sol\":7985:7999  $._initialized */\n  0x00\n  add\n  0x00\n  swap1\n  sload\n  swap1\n  0x0100\n  exp\n  swap1\n  div\n  0xffffffffffffffff\n  and\n    /* \"@openzeppelin/contracts-upgradeable/proxy/utils/Initializable.sol\":7985:8019  $._initialized != type(uint64).max */\n  0xffffffffffffffff\n  and\n  eq\n    /* \"@openzeppelin/contracts-upgradeable/proxy/utils/Initializable.sol\":7981:8127  if ($._initialized != type(uint64).max) {... */\n  tag_11\n  jumpi\n    /* \"@openzeppelin/contracts-upgradeable/proxy/utils/Initializable.sol\":8052:8068  type(uint64).max */\n  0xffffffffffffffff\n    /* \"@openzeppelin/contracts-upgradeable/proxy/utils/Initializable.sol\":8035:8036  $ */\n  dup2\n    /* \"@openzeppelin/contracts-upgradeable/proxy/utils/Initializable.sol\":8035:8049  $._initialized */\n  0x00\n  add\n  0x00\n    /* \"@openzeppelin/contracts-upgradeable/proxy/utils/Initializable.sol\":8035:8068  $._initialized = type(uint64).max */\n  0x0100\n  exp\n  dup2\n  sload\n  dup2\n  0xffffffffffffffff\n  mul\n  not\n  and\n  swap1\n  dup4\n  0xffffffffffffffff\n  and\n  mul\n  or\n  swap1\n  sstore\n  pop\n    /* \"@openzeppelin/contracts-upgradeable/proxy/utils/Initializable.sol\":8087:8116  Initialized(type(uint64).max) */\n  0xc7f505b2f371ae2175ee4913f4499e1f2633a7b5936321eed1cdaeb6115181d2\n    /* \"@openzeppelin/contracts-upgradeable/proxy/utils/Initializable.sol\":8099:8115  type(uint64).max */\n  0xffffffffffffffff\n    /* \"@openzeppelin/contracts-upgradeable/proxy/utils/Initializable.sol\":8087:8116  Initialized(type(uint64).max) */\n  mload(0x40)\n  tag_12\n  swap2\n  swap1\n  tag_13\n  jump\t// in\ntag_12:\n  mload(0x40)\n  dup1\n  swap2\n  sub\n  swap1\n  log1\n    /* \"@openzeppelin/contracts-upgradeable/proxy/utils/Initializable.sol\":7981:8127  if ($._initialized != type(uint64).max) {... */\ntag_11:\n    /* \"@openzeppelin/contracts-upgradeable/proxy/utils/Initializable.sol\":7760:8133  {... */\n  pop\n    /* \"@openzeppelin/contracts-upgradeable/proxy/utils/Initializable.sol\":7711:8133  function _disableInitializers() internal virtual {... */\n  jump\t// out\n    /* \"@openzeppelin/contracts-upgradeable/proxy/utils/Initializable.sol\":8737:8907  function _getInitializableStorage() private pure returns (InitializableStorage storage $) {... */\ntag_9:\n    /* \"@openzeppelin/contracts-upgradeable/proxy/utils/Initializable.sol\":8795:8825  InitializableStorage storage $ */\n  0x00\n    /* \"@openzeppelin/contracts-upgradeable/proxy/utils/Initializable.sol\":8870:8891  INITIALIZABLE_STORAGE */\n  0xf0c57e16840df040f15088dc2f81fe391c3923bec73e23a9662efc9c229c6a00\n    /* \"@openzeppelin/contracts-upgradeable/proxy/utils/Initializable.sol\":8860:8891  $.slot := INITIALIZABLE_STORAGE */\n  swap1\n  pop\n    /* \"@openzeppelin/contracts-upgradeable/proxy/utils/Initializable.sol\":8737:8907  function _getInitializableStorage() private pure returns (InitializableStorage storage $) {... */\n  swap1\n  jump\t// out\n    /* \"#utility.yul\":7:108   */\ntag_15:\n    /* \"#utility.yul\":43:50   */\n  0x00\n    /* \"#utility.yul\":83:101   */\n  0xffffffffffffffff\n    /* \"#utility.yul\":76:81   */\n  dup3\n    /* \"#utility.yul\":72:102   */\n  and\n    /* \"#utility.yul\":61:102   */\n  swap1\n  pop\n    /* \"#utility.yul\":7:108   */\n  swap2\n  swap1\n  pop\n  jump\t// out\n    /* \"#utility.yul\":114:229   */\ntag_16:\n    /* \"#utility.yul\":199:222   */\n  tag_20\n    /* \"#utility.yul\":216:221   */\n  dup2\n    /* \"#utility.yul\":199:222   */\n  tag_15\n  jump\t// in\ntag_20:\n    /* \"#utility.yul\":194:197   */\n  dup3\n    /* \"#utility.yul\":187:223   */\n  mstore\n    /* \"#utility.yul\":114:229   */\n  pop\n  pop\n  jump\t// out\n    /* \"#utility.yul\":235:453   */\ntag_13:\n    /* \"#utility.yul\":326:330   */\n  0x00\n    /* \"#utility.yul\":364:366   */\n  0x20\n    /* \"#utility.yul\":353:362   */\n  dup3\n    /* \"#utility.yul\":349:367   */\n  add\n    /* \"#utility.yul\":341:367   */\n  swap1\n  pop\n    /* \"#utility.yul\":377:446   */\n  tag_22\n    /* \"#utility.yul\":443:444   */\n  0x00\n    /* \"#utility.yul\":432:441   */\n  dup4\n    /* \"#utility.yul\":428:445   */\n  add\n    /* \"#utility.yul\":419:425   */\n  dup5\n    /* \"#utility.yul\":377:446   */\n  tag_16\n  jump\t// in\ntag_22:\n    /* \"#utility.yul\":235:453   */\n  swap3\n  swap2\n  pop\n  pop\n  jump\t// out\n    /* \"RVA/UpgradableToken.sol\":371:4001  contract ERC20Token is ERC20Upgradeable, OwnableUpgradeable, PausableUpgradeable, UUPSUpgradeable {... */\ntag_6:\n  mload(0x80)\n  codecopy(0x00, dataOffset(sub_0), dataSize(sub_0))\n  0x00\n  assignImmutable(\"0x0b83f23a4eeb8c3f5f7d5934a2289bcf0186d09a12e1b7f20adf54e4b179db15\")\n  return(0x00, dataSize(sub_0))\nstop\n\nsub_0: assembly {\n        /* \"RVA/UpgradableToken.sol\":371:4001  contract ERC20Token is ERC20Upgradeable, OwnableUpgradeable, PausableUpgradeable, UUPSUpgradeable {... */\n      mstore(0x40, 0x80)\n      jumpi(tag_1, lt(calldatasize, 0x04))\n      shr(0xe0, calldataload(0x00))\n      dup1\n      0x715018a6\n      gt\n      tag_29\n      jumpi\n      dup1\n      0xad3cb1cc\n      gt\n      tag_30\n      jumpi\n      dup1\n      0xdbac26e9\n      gt\n      tag_31\n      jumpi\n      dup1\n      0xdbac26e9\n      eq\n      tag_25\n      jumpi\n      dup1\n      0xdd62ed3e\n      eq\n      tag_26\n      jumpi\n      dup1\n      0xf2fde38b\n      eq\n      tag_27\n      jumpi\n      dup1\n      0xfe575a87\n      eq\n      tag_28\n      jumpi\n      jump(tag_1)\n    tag_31:\n      dup1\n      0xad3cb1cc\n      eq\n      tag_22\n      jumpi\n      dup1\n      0xb119490e\n      eq\n      tag_23\n      jumpi\n      dup1\n      0xc66e4095\n      eq\n      tag_24\n      jumpi\n      jump(tag_1)\n    tag_30:\n      dup1\n      0x8da5cb5b\n      gt\n      tag_32\n      jumpi\n      dup1\n      0x8da5cb5b\n      eq\n      tag_18\n      jumpi\n      dup1\n      0x95d89b41\n      eq\n      tag_19\n      jumpi\n      dup1\n      0x9bc289f1\n      eq\n      tag_20\n      jumpi\n      dup1\n      0xa9059cbb\n      eq\n      tag_21\n      jumpi\n      jump(tag_1)\n    tag_32:\n      dup1\n      0x715018a6\n      eq\n      tag_15\n      jumpi\n      dup1\n      0x8456cb59\n      eq\n      tag_16\n      jumpi\n      dup1\n      0x88d695b2\n      eq\n      tag_17\n      jumpi\n      jump(tag_1)\n    tag_29:\n      dup1\n      0x313ce567\n      gt\n      tag_33\n      jumpi\n      dup1\n      0x4f1ef286\n      gt\n      tag_34\n      jumpi\n      dup1\n      0x4f1ef286\n      eq\n      tag_11\n      jumpi\n      dup1\n      0x52d1902d\n      eq\n      tag_12\n      jumpi\n      dup1\n      0x5c975abb\n      eq\n      tag_13\n      jumpi\n      dup1\n      0x70a08231\n      eq\n      tag_14\n      jumpi\n      jump(tag_1)\n    tag_34:\n      dup1\n      0x313ce567\n      eq\n      tag_8\n      jumpi\n      dup1\n      0x3e579307\n      eq\n      tag_9\n      jumpi\n      dup1\n      0x3f4ba83a\n      eq\n      tag_10\n      jumpi\n      jump(tag_1)\n    tag_33:\n      dup1\n      0x06fdde03\n      eq\n      tag_2\n      jumpi\n      dup1\n      0x095ea7b3\n      eq\n      tag_3\n      jumpi\n      dup1\n      0x153b0d1e\n      eq\n      tag_4\n      jumpi\n      dup1\n      0x18160ddd\n      eq\n      tag_5\n      jumpi\n      dup1\n      0x23b872dd\n      eq\n      tag_6\n      jumpi\n      dup1\n      0x2e0d2a00\n      eq\n      tag_7\n      jumpi\n    tag_1:\n      0x00\n      dup1\n      revert\n        /* \"@openzeppelin/contracts-upgradeable/token/ERC20/ERC20Upgradeable.sol\":2716:2860  function name() public view virtual returns (string memory) {... */\n    tag_2:\n      callvalue\n      dup1\n      iszero\n      tag_35\n      jumpi\n      0x00\n      dup1\n      revert\n    tag_35:\n      pop\n      tag_36\n      tag_37\n      jump\t// in\n    tag_36:\n      mload(0x40)\n      tag_38\n      swap2\n      swap1\n      tag_39\n      jump\t// in\n    tag_38:\n      mload(0x40)\n      dup1\n      swap2\n      sub\n      swap1\n      return\n        /* \"@openzeppelin/contracts-upgradeable/token/ERC20/ERC20Upgradeable.sol\":5210:5396  function approve(address spender, uint256 value) public virtual returns (bool) {... */\n    tag_3:\n      callvalue\n      dup1\n      iszero\n      tag_40\n      jumpi\n      0x00\n      dup1\n      revert\n    tag_40:\n      pop\n      tag_41\n      0x04\n      dup1\n      calldatasize\n      sub\n      dup2\n      add\n      swap1\n      tag_42\n      swap2\n      swap1\n      tag_43\n      jump\t// in\n    tag_42:\n      tag_44\n      jump\t// in\n    tag_41:\n      mload(0x40)\n      tag_45\n      swap2\n      swap1\n      tag_46\n      jump\t// in\n    tag_45:\n      mload(0x40)\n      dup1\n      swap2\n      sub\n      swap1\n      return\n        /* \"RVA/UpgradableToken.sol\":1948:2108  function setBlacklist(address account, bool status) external onlyOwner {... */\n    tag_4:\n      callvalue\n      dup1\n      iszero\n      tag_47\n      jumpi\n      0x00\n      dup1\n      revert\n    tag_47:\n      pop\n      tag_48\n      0x04\n      dup1\n      calldatasize\n      sub\n      dup2\n      add\n      swap1\n      tag_49\n      swap2\n      swap1\n      tag_50\n      jump\t// in\n    tag_49:\n      tag_51\n      jump\t// in\n    tag_48:\n      stop\n        /* \"@openzeppelin/contracts-upgradeable/token/ERC20/ERC20Upgradeable.sol\":3896:4048  function totalSupply() public view virtual returns (uint256) {... */\n    tag_5:\n      callvalue\n      dup1\n      iszero\n      tag_52\n      jumpi\n      0x00\n      dup1\n      revert\n    tag_52:\n      pop\n      tag_53\n      tag_54\n      jump\t// in\n    tag_53:\n      mload(0x40)\n      tag_55\n      swap2\n      swap1\n      tag_56\n      jump\t// in\n    tag_55:\n      mload(0x40)\n      dup1\n      swap2\n      sub\n      swap1\n      return\n        /* \"RVA/UpgradableToken.sol\":2695:3173  function transferFrom(address sender, address recipient, uint256 amount) public override whenNotPaused returns (bool) {... */\n    tag_6:\n      callvalue\n      dup1\n      iszero\n      tag_57\n      jumpi\n      0x00\n      dup1\n      revert\n    tag_57:\n      pop\n      tag_58\n      0x04\n      dup1\n      calldatasize\n      sub\n      dup2\n      add\n      swap1\n      tag_59\n      swap2\n      swap1\n      tag_60\n      jump\t// in\n    tag_59:\n      tag_61\n      jump\t// in\n    tag_58:\n      mload(0x40)\n      tag_62\n      swap2\n      swap1\n      tag_46\n      jump\t// in\n    tag_62:\n      mload(0x40)\n      dup1\n      swap2\n      sub\n      swap1\n      return\n        /* \"RVA/UpgradableToken.sol\":3179:3330  function setICOContract(address _icoContract) external onlyOwner {... */\n    tag_7:\n      callvalue\n      dup1\n      iszero\n      tag_63\n      jumpi\n      0x00\n      dup1\n      revert\n    tag_63:\n      pop\n      tag_64\n      0x04\n      dup1\n      calldatasize\n      sub\n      dup2\n      add\n      swap1\n      tag_65\n      swap2\n      swap1\n      tag_66\n      jump\t// in\n    tag_65:\n      tag_67\n      jump\t// in\n    tag_64:\n      stop\n        /* \"@openzeppelin/contracts-upgradeable/token/ERC20/ERC20Upgradeable.sol\":3754:3836  function decimals() public view virtual returns (uint8) {... */\n    tag_8:\n      callvalue\n      dup1\n      iszero\n      tag_68\n      jumpi\n      0x00\n      dup1\n      revert\n    tag_68:\n      pop\n      tag_69\n      tag_70\n      jump\t// in\n    tag_69:\n      mload(0x40)\n      tag_71\n      swap2\n      swap1\n      tag_72\n      jump\t// in\n    tag_71:\n      mload(0x40)\n      dup1\n      swap2\n      sub\n      swap1\n      return\n        /* \"RVA/UpgradableToken.sol\":1702:1942  function setLockup(address account, uint256 timestamp) external onlyICOContract {... */\n    tag_9:\n      callvalue\n      dup1\n      iszero\n      tag_73\n      jumpi\n      0x00\n      dup1\n      revert\n    tag_73:\n      pop\n      tag_74\n      0x04\n      dup1\n      calldatasize\n      sub\n      dup2\n      add\n      swap1\n      tag_75\n      swap2\n      swap1\n      tag_43\n      jump\t// in\n    tag_75:\n      tag_76\n      jump\t// in\n    tag_74:\n      stop\n        /* \"RVA/UpgradableToken.sol\":1631:1696  function unpause() external onlyOwner {... */\n    tag_10:\n      callvalue\n      dup1\n      iszero\n      tag_77\n      jumpi\n      0x00\n      dup1\n      revert\n    tag_77:\n      pop\n      tag_78\n      tag_79\n      jump\t// in\n    tag_78:\n      stop\n        /* \"@openzeppelin/contracts-upgradeable/proxy/utils/UUPSUpgradeable.sol\":4161:4375  function upgradeToAndCall(address newImplementation, bytes memory data) public payable virtual onlyProxy {... */\n    tag_11:\n      tag_80\n      0x04\n      dup1\n      calldatasize\n      sub\n      dup2\n      add\n      swap1\n      tag_81\n      swap2\n      swap1\n      tag_82\n      jump\t// in\n    tag_81:\n      tag_83\n      jump\t// in\n    tag_80:\n      stop\n        /* \"@openzeppelin/contracts-upgradeable/proxy/utils/UUPSUpgradeable.sol\":3708:3842  function proxiableUUID() external view virtual notDelegated returns (bytes32) {... */\n    tag_12:\n      callvalue\n      dup1\n      iszero\n      tag_84\n      jumpi\n      0x00\n      dup1\n      revert\n    tag_84:\n      pop\n      tag_85\n      tag_86\n      jump\t// in\n    tag_85:\n      mload(0x40)\n      tag_87\n      swap2\n      swap1\n      tag_88\n      jump\t// in\n    tag_87:\n      mload(0x40)\n      dup1\n      swap2\n      sub\n      swap1\n      return\n        /* \"@openzeppelin/contracts-upgradeable/security/PausableUpgradeable.sol\":1879:1963  function paused() public view virtual returns (bool) {... */\n    tag_13:\n      callvalue\n      dup1\n      iszero\n      tag_89\n      jumpi\n      0x00\n      dup1\n      revert\n    tag_89:\n      pop\n      tag_90\n      tag_91\n      jump\t// in\n    tag_90:\n      mload(0x40)\n      tag_92\n      swap2\n      swap1\n      tag_46\n      jump\t// in\n    tag_92:\n      mload(0x40)\n      dup1\n      swap2\n      sub\n      swap1\n      return\n        /* \"@openzeppelin/contracts-upgradeable/token/ERC20/ERC20Upgradeable.sol\":4106:4277  function balanceOf(address account) public view virtual returns (uint256) {... */\n    tag_14:\n      callvalue\n      dup1\n      iszero\n      tag_93\n      jumpi\n      0x00\n      dup1\n      revert\n    tag_93:\n      pop\n      tag_94\n      0x04\n      dup1\n      calldatasize\n      sub\n      dup2\n      add\n      swap1\n      tag_95\n      swap2\n      swap1\n      tag_66\n      jump\t// in\n    tag_95:\n      tag_96\n      jump\t// in\n    tag_94:\n      mload(0x40)\n      tag_97\n      swap2\n      swap1\n      tag_56\n      jump\t// in\n    tag_97:\n      mload(0x40)\n      dup1\n      swap2\n      sub\n      swap1\n      return\n        /* \"@openzeppelin/contracts-upgradeable/access/OwnableUpgradeable.sol\":3155:3256  function renounceOwnership() public virtual onlyOwner {... */\n    tag_15:\n      callvalue\n      dup1\n      iszero\n      tag_98\n      jumpi\n      0x00\n      dup1\n      revert\n    tag_98:\n      pop\n      tag_99\n      tag_100\n      jump\t// in\n    tag_99:\n      stop\n        /* \"RVA/UpgradableToken.sol\":1564:1625  function pause() external onlyOwner {... */\n    tag_16:\n      callvalue\n      dup1\n      iszero\n      tag_101\n      jumpi\n      0x00\n      dup1\n      revert\n    tag_101:\n      pop\n      tag_102\n      tag_103\n      jump\t// in\n    tag_102:\n      stop\n        /* \"RVA/UpgradableToken.sol\":3336:3909  function batchTransfer(address[] calldata recipients, uint256[] calldata amounts) external whenNotPaused {... */\n    tag_17:\n      callvalue\n      dup1\n      iszero\n      tag_104\n      jumpi\n      0x00\n      dup1\n      revert\n    tag_104:\n      pop\n      tag_105\n      0x04\n      dup1\n      calldatasize\n      sub\n      dup2\n      add\n      swap1\n      tag_106\n      swap2\n      swap1\n      tag_107\n      jump\t// in\n    tag_106:\n      tag_108\n      jump\t// in\n    tag_105:\n      stop\n        /* \"@openzeppelin/contracts-upgradeable/access/OwnableUpgradeable.sol\":2441:2585  function owner() public view virtual returns (address) {... */\n    tag_18:\n      callvalue\n      dup1\n      iszero\n      tag_109\n      jumpi\n      0x00\n      dup1\n      revert\n    tag_109:\n      pop\n      tag_110\n      tag_111\n      jump\t// in\n    tag_110:\n      mload(0x40)\n      tag_112\n      swap2\n      swap1\n      tag_113\n      jump\t// in\n    tag_112:\n      mload(0x40)\n      dup1\n      swap2\n      sub\n      swap1\n      return\n        /* \"@openzeppelin/contracts-upgradeable/token/ERC20/ERC20Upgradeable.sol\":2973:3121  function symbol() public view virtual returns (string memory) {... */\n    tag_19:\n      callvalue\n      dup1\n      iszero\n      tag_114\n      jumpi\n      0x00\n      dup1\n      revert\n    tag_114:\n      pop\n      tag_115\n      tag_116\n      jump\t// in\n    tag_115:\n      mload(0x40)\n      tag_117\n      swap2\n      swap1\n      tag_39\n      jump\t// in\n    tag_117:\n      mload(0x40)\n      dup1\n      swap2\n      sub\n      swap1\n      return\n        /* \"RVA/UpgradableToken.sol\":542:588  mapping(address => uint256) public lockedUntil */\n    tag_20:\n      callvalue\n      dup1\n      iszero\n      tag_118\n      jumpi\n      0x00\n      dup1\n      revert\n    tag_118:\n      pop\n      tag_119\n      0x04\n      dup1\n      calldatasize\n      sub\n      dup2\n      add\n      swap1\n      tag_120\n      swap2\n      swap1\n      tag_66\n      jump\t// in\n    tag_120:\n      tag_121\n      jump\t// in\n    tag_119:\n      mload(0x40)\n      tag_122\n      swap2\n      swap1\n      tag_56\n      jump\t// in\n    tag_122:\n      mload(0x40)\n      dup1\n      swap2\n      sub\n      swap1\n      return\n        /* \"RVA/UpgradableToken.sol\":2231:2689  function transfer(address recipient, uint256 amount) public override whenNotPaused returns (bool) {... */\n    tag_21:\n      callvalue\n      dup1\n      iszero\n      tag_123\n      jumpi\n      0x00\n      dup1\n      revert\n    tag_123:\n      pop\n      tag_124\n      0x04\n      dup1\n      calldatasize\n      sub\n      dup2\n      add\n      swap1\n      tag_125\n      swap2\n      swap1\n      tag_43\n      jump\t// in\n    tag_125:\n      tag_126\n      jump\t// in\n    tag_124:\n      mload(0x40)\n      tag_127\n      swap2\n      swap1\n      tag_46\n      jump\t// in\n    tag_127:\n      mload(0x40)\n      dup1\n      swap2\n      sub\n      swap1\n      return\n        /* \"@openzeppelin/contracts-upgradeable/proxy/utils/UUPSUpgradeable.sol\":1819:1877  string public constant UPGRADE_INTERFACE_VERSION = \"5.0.0\" */\n    tag_22:\n      callvalue\n      dup1\n      iszero\n      tag_128\n      jumpi\n      0x00\n      dup1\n      revert\n    tag_128:\n      pop\n      tag_129\n      tag_130\n      jump\t// in\n    tag_129:\n      mload(0x40)\n      tag_131\n      swap2\n      swap1\n      tag_39\n      jump\t// in\n    tag_131:\n      mload(0x40)\n      dup1\n      swap2\n      sub\n      swap1\n      return\n        /* \"RVA/UpgradableToken.sol\":1082:1445  function initialize(string memory name, string memory symbol, uint256 totalSupply_) external initializer {... */\n    tag_23:\n      callvalue\n      dup1\n      iszero\n      tag_132\n      jumpi\n      0x00\n      dup1\n      revert\n    tag_132:\n      pop\n      tag_133\n      0x04\n      dup1\n      calldatasize\n      sub\n      dup2\n      add\n      swap1\n      tag_134\n      swap2\n      swap1\n      tag_135\n      jump\t// in\n    tag_134:\n      tag_136\n      jump\t// in\n    tag_133:\n      stop\n        /* \"RVA/UpgradableToken.sol\":475:501  address public icoContract */\n    tag_24:\n      callvalue\n      dup1\n      iszero\n      tag_137\n      jumpi\n      0x00\n      dup1\n      revert\n    tag_137:\n      pop\n      tag_138\n      tag_139\n      jump\t// in\n    tag_138:\n      mload(0x40)\n      tag_140\n      swap2\n      swap1\n      tag_113\n      jump\t// in\n    tag_140:\n      mload(0x40)\n      dup1\n      swap2\n      sub\n      swap1\n      return\n        /* \"RVA/UpgradableToken.sol\":594:637  mapping(address => bool) public blacklisted */\n    tag_25:\n      callvalue\n      dup1\n      iszero\n      tag_141\n      jumpi\n      0x00\n      dup1\n      revert\n    tag_141:\n      pop\n      tag_142\n      0x04\n      dup1\n      calldatasize\n      sub\n      dup2\n      add\n      swap1\n      tag_143\n      swap2\n      swap1\n      tag_66\n      jump\t// in\n    tag_143:\n      tag_144\n      jump\t// in\n    tag_142:\n      mload(0x40)\n      tag_145\n      swap2\n      swap1\n      tag_46\n      jump\t// in\n    tag_145:\n      mload(0x40)\n      dup1\n      swap2\n      sub\n      swap1\n      return\n        /* \"@openzeppelin/contracts-upgradeable/token/ERC20/ERC20Upgradeable.sol\":4708:4903  function allowance(address owner, address spender) public view virtual returns (uint256) {... */\n    tag_26:\n      callvalue\n      dup1\n      iszero\n      tag_146\n      jumpi\n      0x00\n      dup1\n      revert\n    tag_146:\n      pop\n      tag_147\n      0x04\n      dup1\n      calldatasize\n      sub\n      dup2\n      add\n      swap1\n      tag_148\n      swap2\n      swap1\n      tag_149\n      jump\t// in\n    tag_148:\n      tag_150\n      jump\t// in\n    tag_147:\n      mload(0x40)\n      tag_151\n      swap2\n      swap1\n      tag_56\n      jump\t// in\n    tag_151:\n      mload(0x40)\n      dup1\n      swap2\n      sub\n      swap1\n      return\n        /* \"@openzeppelin/contracts-upgradeable/access/OwnableUpgradeable.sol\":3405:3620  function transferOwnership(address newOwner) public virtual onlyOwner {... */\n    tag_27:\n      callvalue\n      dup1\n      iszero\n      tag_152\n      jumpi\n      0x00\n      dup1\n      revert\n    tag_152:\n      pop\n      tag_153\n      0x04\n      dup1\n      calldatasize\n      sub\n      dup2\n      add\n      swap1\n      tag_154\n      swap2\n      swap1\n      tag_66\n      jump\t// in\n    tag_154:\n      tag_155\n      jump\t// in\n    tag_153:\n      stop\n        /* \"RVA/UpgradableToken.sol\":2114:2225  function isBlacklisted(address account) public view returns (bool) {... */\n    tag_28:\n      callvalue\n      dup1\n      iszero\n      tag_156\n      jumpi\n      0x00\n      dup1\n      revert\n    tag_156:\n      pop\n      tag_157\n      0x04\n      dup1\n      calldatasize\n      sub\n      dup2\n      add\n      swap1\n      tag_158\n      swap2\n      swap1\n      tag_66\n      jump\t// in\n    tag_158:\n      tag_159\n      jump\t// in\n    tag_157:\n      mload(0x40)\n      tag_160\n      swap2\n      swap1\n      tag_46\n      jump\t// in\n    tag_160:\n      mload(0x40)\n      dup1\n      swap2\n      sub\n      swap1\n      return\n        /* \"@openzeppelin/contracts-upgradeable/token/ERC20/ERC20Upgradeable.sol\":2716:2860  function name() public view virtual returns (string memory) {... */\n    tag_37:\n        /* \"@openzeppelin/contracts-upgradeable/token/ERC20/ERC20Upgradeable.sol\":2761:2774  string memory */\n      0x60\n        /* \"@openzeppelin/contracts-upgradeable/token/ERC20/ERC20Upgradeable.sol\":2786:2808  ERC20Storage storage $ */\n      0x00\n        /* \"@openzeppelin/contracts-upgradeable/token/ERC20/ERC20Upgradeable.sol\":2811:2829  _getERC20Storage() */\n      tag_162\n        /* \"@openzeppelin/contracts-upgradeable/token/ERC20/ERC20Upgradeable.sol\":2811:2827  _getERC20Storage */\n      tag_163\n        /* \"@openzeppelin/contracts-upgradeable/token/ERC20/ERC20Upgradeable.sol\":2811:2829  _getERC20Storage() */\n      jump\t// in\n    tag_162:\n        /* \"@openzeppelin/contracts-upgradeable/token/ERC20/ERC20Upgradeable.sol\":2786:2829  ERC20Storage storage $ = _getERC20Storage() */\n      swap1\n      pop\n        /* \"@openzeppelin/contracts-upgradeable/token/ERC20/ERC20Upgradeable.sol\":2846:2847  $ */\n      dup1\n        /* \"@openzeppelin/contracts-upgradeable/token/ERC20/ERC20Upgradeable.sol\":2846:2853  $._name */\n      0x03\n      add\n        /* \"@openzeppelin/contracts-upgradeable/token/ERC20/ERC20Upgradeable.sol\":2839:2853  return $._name */\n      dup1\n      sload\n      tag_164\n      swap1\n      tag_165\n      jump\t// in\n    tag_164:\n      dup1\n      0x1f\n      add\n      0x20\n      dup1\n      swap2\n      div\n      mul\n      0x20\n      add\n      mload(0x40)\n      swap1\n      dup2\n      add\n      0x40\n      mstore\n      dup1\n      swap3\n      swap2\n      swap1\n      dup2\n      dup2\n      mstore\n      0x20\n      add\n      dup3\n      dup1\n      sload\n      tag_166\n      swap1\n      tag_165\n      jump\t// in\n    tag_166:\n      dup1\n      iszero\n      tag_167\n      jumpi\n      dup1\n      0x1f\n      lt\n      tag_168\n      jumpi\n      0x0100\n      dup1\n      dup4\n      sload\n      div\n      mul\n      dup4\n      mstore\n      swap2\n      0x20\n      add\n      swap2\n      jump(tag_167)\n    tag_168:\n      dup3\n      add\n      swap2\n      swap1\n      0x00\n      mstore\n      keccak256(0x00, 0x20)\n      swap1\n    tag_169:\n      dup2\n      sload\n      dup2\n      mstore\n      swap1\n      0x01\n      add\n      swap1\n      0x20\n      add\n      dup1\n      dup4\n      gt\n      tag_169\n      jumpi\n      dup3\n      swap1\n      sub\n      0x1f\n      and\n      dup3\n      add\n      swap2\n    tag_167:\n      pop\n      pop\n      pop\n      pop\n      pop\n      swap2\n      pop\n      pop\n        /* \"@openzeppelin/contracts-upgradeable/token/ERC20/ERC20Upgradeable.sol\":2716:2860  function name() public view virtual returns (string memory) {... */\n      swap1\n      jump\t// out\n        /* \"@openzeppelin/contracts-upgradeable/token/ERC20/ERC20Upgradeable.sol\":5210:5396  function approve(address spender, uint256 value) public virtual returns (bool) {... */\n    tag_44:\n        /* \"@openzeppelin/contracts-upgradeable/token/ERC20/ERC20Upgradeable.sol\":5283:5287  bool */\n      0x00\n        /* \"@openzeppelin/contracts-upgradeable/token/ERC20/ERC20Upgradeable.sol\":5299:5312  address owner */\n      dup1\n        /* \"@openzeppelin/contracts-upgradeable/token/ERC20/ERC20Upgradeable.sol\":5315:5327  _msgSender() */\n      tag_171\n        /* \"@openzeppelin/contracts-upgradeable/token/ERC20/ERC20Upgradeable.sol\":5315:5325  _msgSender */\n      tag_172\n        /* \"@openzeppelin/contracts-upgradeable/token/ERC20/ERC20Upgradeable.sol\":5315:5327  _msgSender() */\n      jump\t// in\n    tag_171:\n        /* \"@openzeppelin/contracts-upgradeable/token/ERC20/ERC20Upgradeable.sol\":5299:5327  address owner = _msgSender() */\n      swap1\n      pop\n        /* \"@openzeppelin/contracts-upgradeable/token/ERC20/ERC20Upgradeable.sol\":5337:5368  _approve(owner, spender, value) */\n      tag_173\n        /* \"@openzeppelin/contracts-upgradeable/token/ERC20/ERC20Upgradeable.sol\":5346:5351  owner */\n      dup2\n        /* \"@openzeppelin/contracts-upgradeable/token/ERC20/ERC20Upgradeable.sol\":5353:5360  spender */\n      dup6\n        /* \"@openzeppelin/contracts-upgradeable/token/ERC20/ERC20Upgradeable.sol\":5362:5367  value */\n      dup6\n        /* \"@openzeppelin/contracts-upgradeable/token/ERC20/ERC20Upgradeable.sol\":5337:5345  _approve */\n      tag_174\n        /* \"@openzeppelin/contracts-upgradeable/token/ERC20/ERC20Upgradeable.sol\":5337:5368  _approve(owner, spender, value) */\n      jump\t// in\n    tag_173:\n        /* \"@openzeppelin/contracts-upgradeable/token/ERC20/ERC20Upgradeable.sol\":5385:5389  true */\n      0x01\n        /* \"@openzeppelin/contracts-upgradeable/token/ERC20/ERC20Upgradeable.sol\":5378:5389  return true */\n      swap2\n      pop\n      pop\n        /* \"@openzeppelin/contracts-upgradeable/token/ERC20/ERC20Upgradeable.sol\":5210:5396  function approve(address spender, uint256 value) public virtual returns (bool) {... */\n      swap3\n      swap2\n      pop\n      pop\n      jump\t// out\n        /* \"RVA/UpgradableToken.sol\":1948:2108  function setBlacklist(address account, bool status) external onlyOwner {... */\n    tag_51:\n        /* \"@openzeppelin/contracts-upgradeable/access/OwnableUpgradeable.sol\":2334:2347  _checkOwner() */\n      tag_176\n        /* \"@openzeppelin/contracts-upgradeable/access/OwnableUpgradeable.sol\":2334:2345  _checkOwner */\n      tag_177\n        /* \"@openzeppelin/contracts-upgradeable/access/OwnableUpgradeable.sol\":2334:2347  _checkOwner() */\n      jump\t// in\n    tag_176:\n        /* \"RVA/UpgradableToken.sol\":2052:2058  status */\n      dup1\n        /* \"RVA/UpgradableToken.sol\":2029:2040  blacklisted */\n      0x35\n        /* \"RVA/UpgradableToken.sol\":2029:2049  blacklisted[account] */\n      0x00\n        /* \"RVA/UpgradableToken.sol\":2041:2048  account */\n      dup5\n        /* \"RVA/UpgradableToken.sol\":2029:2049  blacklisted[account] */\n      0xffffffffffffffffffffffffffffffffffffffff\n      and\n      0xffffffffffffffffffffffffffffffffffffffff\n      and\n      dup2\n      mstore\n      0x20\n      add\n      swap1\n      dup2\n      mstore\n      0x20\n      add\n      0x00\n      keccak256\n      0x00\n        /* \"RVA/UpgradableToken.sol\":2029:2058  blacklisted[account] = status */\n      0x0100\n      exp\n      dup2\n      sload\n      dup2\n      0xff\n      mul\n      not\n      and\n      swap1\n      dup4\n      iszero\n      iszero\n      mul\n      or\n      swap1\n      sstore\n      pop\n        /* \"RVA/UpgradableToken.sol\":2085:2092  account */\n      dup2\n        /* \"RVA/UpgradableToken.sol\":2073:2101  Blacklisted(account, status) */\n      0xffffffffffffffffffffffffffffffffffffffff\n      and\n      0xcf3473b85df1594d47b6958f29a32bea0abff9dd68296f7bf33443646793cfd8\n        /* \"RVA/UpgradableToken.sol\":2094:2100  status */\n      dup3\n        /* \"RVA/UpgradableToken.sol\":2073:2101  Blacklisted(account, status) */\n      mload(0x40)\n      tag_179\n      swap2\n      swap1\n      tag_46\n      jump\t// in\n    tag_179:\n      mload(0x40)\n      dup1\n      swap2\n      sub\n      swap1\n      log2\n        /* \"RVA/UpgradableToken.sol\":1948:2108  function setBlacklist(address account, bool status) external onlyOwner {... */\n      pop\n      pop\n      jump\t// out\n        /* \"@openzeppelin/contracts-upgradeable/token/ERC20/ERC20Upgradeable.sol\":3896:4048  function totalSupply() public view virtual returns (uint256) {... */\n    tag_54:\n        /* \"@openzeppelin/contracts-upgradeable/token/ERC20/ERC20Upgradeable.sol\":3948:3955  uint256 */\n      0x00\n        /* \"@openzeppelin/contracts-upgradeable/token/ERC20/ERC20Upgradeable.sol\":3967:3989  ERC20Storage storage $ */\n      dup1\n        /* \"@openzeppelin/contracts-upgradeable/token/ERC20/ERC20Upgradeable.sol\":3992:4010  _getERC20Storage() */\n      tag_181\n        /* \"@openzeppelin/contracts-upgradeable/token/ERC20/ERC20Upgradeable.sol\":3992:4008  _getERC20Storage */\n      tag_163\n        /* \"@openzeppelin/contracts-upgradeable/token/ERC20/ERC20Upgradeable.sol\":3992:4010  _getERC20Storage() */\n      jump\t// in\n    tag_181:\n        /* \"@openzeppelin/contracts-upgradeable/token/ERC20/ERC20Upgradeable.sol\":3967:4010  ERC20Storage storage $ = _getERC20Storage() */\n      swap1\n      pop\n        /* \"@openzeppelin/contracts-upgradeable/token/ERC20/ERC20Upgradeable.sol\":4027:4028  $ */\n      dup1\n        /* \"@openzeppelin/contracts-upgradeable/token/ERC20/ERC20Upgradeable.sol\":4027:4041  $._totalSupply */\n      0x02\n      add\n      sload\n        /* \"@openzeppelin/contracts-upgradeable/token/ERC20/ERC20Upgradeable.sol\":4020:4041  return $._totalSupply */\n      swap2\n      pop\n      pop\n        /* \"@openzeppelin/contracts-upgradeable/token/ERC20/ERC20Upgradeable.sol\":3896:4048  function totalSupply() public view virtual returns (uint256) {... */\n      swap1\n      jump\t// out\n        /* \"RVA/UpgradableToken.sol\":2695:3173  function transferFrom(address sender, address recipient, uint256 amount) public override whenNotPaused returns (bool) {... */\n    tag_61:\n        /* \"RVA/UpgradableToken.sol\":2807:2811  bool */\n      0x00\n        /* \"@openzeppelin/contracts-upgradeable/security/PausableUpgradeable.sol\":1503:1522  _requireNotPaused() */\n      tag_183\n        /* \"@openzeppelin/contracts-upgradeable/security/PausableUpgradeable.sol\":1503:1520  _requireNotPaused */\n      tag_184\n        /* \"@openzeppelin/contracts-upgradeable/security/PausableUpgradeable.sol\":1503:1522  _requireNotPaused() */\n      jump\t// in\n    tag_183:\n        /* \"RVA/UpgradableToken.sol\":2832:2843  blacklisted */\n      0x35\n        /* \"RVA/UpgradableToken.sol\":2832:2851  blacklisted[sender] */\n      0x00\n        /* \"RVA/UpgradableToken.sol\":2844:2850  sender */\n      dup6\n        /* \"RVA/UpgradableToken.sol\":2832:2851  blacklisted[sender] */\n      0xffffffffffffffffffffffffffffffffffffffff\n      and\n      0xffffffffffffffffffffffffffffffffffffffff\n      and\n      dup2\n      mstore\n      0x20\n      add\n      swap1\n      dup2\n      mstore\n      0x20\n      add\n      0x00\n      keccak256\n      0x00\n      swap1\n      sload\n      swap1\n      0x0100\n      exp\n      swap1\n      div\n      0xff\n      and\n        /* \"RVA/UpgradableToken.sol\":2831:2851  !blacklisted[sender] */\n      iszero\n        /* \"RVA/UpgradableToken.sol\":2823:2894  require(!blacklisted[sender], \"Transfer failed: Sender is blacklisted\") */\n      tag_186\n      jumpi\n      mload(0x40)\n      0x08c379a000000000000000000000000000000000000000000000000000000000\n      dup2\n      mstore\n      0x04\n      add\n      tag_187\n      swap1\n      tag_188\n      jump\t// in\n    tag_187:\n      mload(0x40)\n      dup1\n      swap2\n      sub\n      swap1\n      revert\n    tag_186:\n        /* \"RVA/UpgradableToken.sol\":2913:2924  blacklisted */\n      0x35\n        /* \"RVA/UpgradableToken.sol\":2913:2935  blacklisted[recipient] */\n      0x00\n        /* \"RVA/UpgradableToken.sol\":2925:2934  recipient */\n      dup5\n        /* \"RVA/UpgradableToken.sol\":2913:2935  blacklisted[recipient] */\n      0xffffffffffffffffffffffffffffffffffffffff\n      and\n      0xffffffffffffffffffffffffffffffffffffffff\n      and\n      dup2\n      mstore\n      0x20\n      add\n      swap1\n      dup2\n      mstore\n      0x20\n      add\n      0x00\n      keccak256\n      0x00\n      swap1\n      sload\n      swap1\n      0x0100\n      exp\n      swap1\n      div\n      0xff\n      and\n        /* \"RVA/UpgradableToken.sol\":2912:2935  !blacklisted[recipient] */\n      iszero\n        /* \"RVA/UpgradableToken.sol\":2904:2981  require(!blacklisted[recipient], \"Transfer failed: Recipient is blacklisted\") */\n      tag_189\n      jumpi\n      mload(0x40)\n      0x08c379a000000000000000000000000000000000000000000000000000000000\n      dup2\n      mstore\n      0x04\n      add\n      tag_190\n      swap1\n      tag_191\n      jump\t// in\n    tag_190:\n      mload(0x40)\n      dup1\n      swap2\n      sub\n      swap1\n      revert\n    tag_189:\n        /* \"RVA/UpgradableToken.sol\":3018:3029  lockedUntil */\n      0x34\n        /* \"RVA/UpgradableToken.sol\":3018:3037  lockedUntil[sender] */\n      0x00\n        /* \"RVA/UpgradableToken.sol\":3030:3036  sender */\n      dup6\n        /* \"RVA/UpgradableToken.sol\":3018:3037  lockedUntil[sender] */\n      0xffffffffffffffffffffffffffffffffffffffff\n      and\n      0xffffffffffffffffffffffffffffffffffffffff\n      and\n      dup2\n      mstore\n      0x20\n      add\n      swap1\n      dup2\n      mstore\n      0x20\n      add\n      0x00\n      keccak256\n      sload\n        /* \"RVA/UpgradableToken.sol\":2999:3014  block.timestamp */\n      timestamp\n        /* \"RVA/UpgradableToken.sol\":2999:3037  block.timestamp >= lockedUntil[sender] */\n      lt\n      iszero\n        /* \"RVA/UpgradableToken.sol\":2999:3065  block.timestamp >= lockedUntil[sender] || lockedUntil[sender] == 0 */\n      dup1\n      tag_192\n      jumpi\n      pop\n        /* \"RVA/UpgradableToken.sol\":3064:3065  0 */\n      0x00\n        /* \"RVA/UpgradableToken.sol\":3041:3052  lockedUntil */\n      0x34\n        /* \"RVA/UpgradableToken.sol\":3041:3060  lockedUntil[sender] */\n      0x00\n        /* \"RVA/UpgradableToken.sol\":3053:3059  sender */\n      dup7\n        /* \"RVA/UpgradableToken.sol\":3041:3060  lockedUntil[sender] */\n      0xffffffffffffffffffffffffffffffffffffffff\n      and\n      0xffffffffffffffffffffffffffffffffffffffff\n      and\n      dup2\n      mstore\n      0x20\n      add\n      swap1\n      dup2\n      mstore\n      0x20\n      add\n      0x00\n      keccak256\n      sload\n        /* \"RVA/UpgradableToken.sol\":3041:3065  lockedUntil[sender] == 0 */\n      eq\n        /* \"RVA/UpgradableToken.sol\":2999:3065  block.timestamp >= lockedUntil[sender] || lockedUntil[sender] == 0 */\n    tag_192:\n        /* \"RVA/UpgradableToken.sol\":2991:3104  require(block.timestamp >= lockedUntil[sender] || lockedUntil[sender] == 0, \"Transfer failed: Tokens are locked\") */\n      tag_193\n      jumpi\n      mload(0x40)\n      0x08c379a000000000000000000000000000000000000000000000000000000000\n      dup2\n      mstore\n      0x04\n      add\n      tag_194\n      swap1\n      tag_195\n      jump\t// in\n    tag_194:\n      mload(0x40)\n      dup1\n      swap2\n      sub\n      swap1\n      revert\n    tag_193:\n        /* \"RVA/UpgradableToken.sol\":3121:3166  super.transferFrom(sender, recipient, amount) */\n      tag_196\n        /* \"RVA/UpgradableToken.sol\":3140:3146  sender */\n      dup5\n        /* \"RVA/UpgradableToken.sol\":3148:3157  recipient */\n      dup5\n        /* \"RVA/UpgradableToken.sol\":3159:3165  amount */\n      dup5\n        /* \"RVA/UpgradableToken.sol\":3121:3139  super.transferFrom */\n      tag_197\n        /* \"RVA/UpgradableToken.sol\":3121:3166  super.transferFrom(sender, recipient, amount) */\n      jump\t// in\n    tag_196:\n        /* \"RVA/UpgradableToken.sol\":3114:3166  return super.transferFrom(sender, recipient, amount) */\n      swap1\n      pop\n        /* \"RVA/UpgradableToken.sol\":2695:3173  function transferFrom(address sender, address recipient, uint256 amount) public override whenNotPaused returns (bool) {... */\n      swap4\n      swap3\n      pop\n      pop\n      pop\n      jump\t// out\n        /* \"RVA/UpgradableToken.sol\":3179:3330  function setICOContract(address _icoContract) external onlyOwner {... */\n    tag_67:\n        /* \"@openzeppelin/contracts-upgradeable/access/OwnableUpgradeable.sol\":2334:2347  _checkOwner() */\n      tag_199\n        /* \"@openzeppelin/contracts-upgradeable/access/OwnableUpgradeable.sol\":2334:2345  _checkOwner */\n      tag_177\n        /* \"@openzeppelin/contracts-upgradeable/access/OwnableUpgradeable.sol\":2334:2347  _checkOwner() */\n      jump\t// in\n    tag_199:\n        /* \"RVA/UpgradableToken.sol\":3268:3280  _icoContract */\n      dup1\n        /* \"RVA/UpgradableToken.sol\":3254:3265  icoContract */\n      0x32\n      0x00\n        /* \"RVA/UpgradableToken.sol\":3254:3280  icoContract = _icoContract */\n      0x0100\n      exp\n      dup2\n      sload\n      dup2\n      0xffffffffffffffffffffffffffffffffffffffff\n      mul\n      not\n      and\n      swap1\n      dup4\n      0xffffffffffffffffffffffffffffffffffffffff\n      and\n      mul\n      or\n      swap1\n      sstore\n      pop\n        /* \"RVA/UpgradableToken.sol\":3310:3322  _icoContract */\n      dup1\n        /* \"RVA/UpgradableToken.sol\":3295:3323  ICOContractSet(_icoContract) */\n      0xffffffffffffffffffffffffffffffffffffffff\n      and\n      0xe7bbfbbf7e7948988eb7f8904da938aff02a23b8b28fcee206be4d4b3edd9ad8\n      mload(0x40)\n      mload(0x40)\n      dup1\n      swap2\n      sub\n      swap1\n      log2\n        /* \"RVA/UpgradableToken.sol\":3179:3330  function setICOContract(address _icoContract) external onlyOwner {... */\n      pop\n      jump\t// out\n        /* \"@openzeppelin/contracts-upgradeable/token/ERC20/ERC20Upgradeable.sol\":3754:3836  function decimals() public view virtual returns (uint8) {... */\n    tag_70:\n        /* \"@openzeppelin/contracts-upgradeable/token/ERC20/ERC20Upgradeable.sol\":3803:3808  uint8 */\n      0x00\n        /* \"@openzeppelin/contracts-upgradeable/token/ERC20/ERC20Upgradeable.sol\":3827:3829  18 */\n      0x12\n        /* \"@openzeppelin/contracts-upgradeable/token/ERC20/ERC20Upgradeable.sol\":3820:3829  return 18 */\n      swap1\n      pop\n        /* \"@openzeppelin/contracts-upgradeable/token/ERC20/ERC20Upgradeable.sol\":3754:3836  function decimals() public view virtual returns (uint8) {... */\n      swap1\n      jump\t// out\n        /* \"RVA/UpgradableToken.sol\":1702:1942  function setLockup(address account, uint256 timestamp) external onlyICOContract {... */\n    tag_76:\n        /* \"RVA/UpgradableToken.sol\":1510:1521  icoContract */\n      0x32\n      0x00\n      swap1\n      sload\n      swap1\n      0x0100\n      exp\n      swap1\n      div\n      0xffffffffffffffffffffffffffffffffffffffff\n      and\n        /* \"RVA/UpgradableToken.sol\":1496:1521  msg.sender == icoContract */\n      0xffffffffffffffffffffffffffffffffffffffff\n      and\n        /* \"RVA/UpgradableToken.sol\":1496:1506  msg.sender */\n      caller\n        /* \"RVA/UpgradableToken.sol\":1496:1521  msg.sender == icoContract */\n      0xffffffffffffffffffffffffffffffffffffffff\n      and\n      eq\n        /* \"RVA/UpgradableToken.sol\":1488:1540  require(msg.sender == icoContract, \"Not authorized\") */\n      tag_203\n      jumpi\n      mload(0x40)\n      0x08c379a000000000000000000000000000000000000000000000000000000000\n      dup2\n      mstore\n      0x04\n      add\n      tag_204\n      swap1\n      tag_205\n      jump\t// in\n    tag_204:\n      mload(0x40)\n      dup1\n      swap2\n      sub\n      swap1\n      revert\n    tag_203:\n        /* \"RVA/UpgradableToken.sol\":1820:1829  timestamp */\n      dup1\n        /* \"RVA/UpgradableToken.sol\":1796:1807  lockedUntil */\n      0x34\n        /* \"RVA/UpgradableToken.sol\":1796:1816  lockedUntil[account] */\n      0x00\n        /* \"RVA/UpgradableToken.sol\":1808:1815  account */\n      dup5\n        /* \"RVA/UpgradableToken.sol\":1796:1816  lockedUntil[account] */\n      0xffffffffffffffffffffffffffffffffffffffff\n      and\n      0xffffffffffffffffffffffffffffffffffffffff\n      and\n      dup2\n      mstore\n      0x20\n      add\n      swap1\n      dup2\n      mstore\n      0x20\n      add\n      0x00\n      keccak256\n      sload\n        /* \"RVA/UpgradableToken.sol\":1796:1829  lockedUntil[account] != timestamp */\n      eq\n        /* \"RVA/UpgradableToken.sol\":1792:1936  if (lockedUntil[account] != timestamp) {... */\n      tag_207\n      jumpi\n        /* \"RVA/UpgradableToken.sol\":1868:1877  timestamp */\n      dup1\n        /* \"RVA/UpgradableToken.sol\":1845:1856  lockedUntil */\n      0x34\n        /* \"RVA/UpgradableToken.sol\":1845:1865  lockedUntil[account] */\n      0x00\n        /* \"RVA/UpgradableToken.sol\":1857:1864  account */\n      dup5\n        /* \"RVA/UpgradableToken.sol\":1845:1865  lockedUntil[account] */\n      0xffffffffffffffffffffffffffffffffffffffff\n      and\n      0xffffffffffffffffffffffffffffffffffffffff\n      and\n      dup2\n      mstore\n      0x20\n      add\n      swap1\n      dup2\n      mstore\n      0x20\n      add\n      0x00\n      keccak256\n        /* \"RVA/UpgradableToken.sol\":1845:1877  lockedUntil[account] = timestamp */\n      dup2\n      swap1\n      sstore\n      pop\n        /* \"RVA/UpgradableToken.sol\":1906:1913  account */\n      dup2\n        /* \"RVA/UpgradableToken.sol\":1896:1925  LockupSet(account, timestamp) */\n      0xffffffffffffffffffffffffffffffffffffffff\n      and\n      0x611cdbea265cb87ef40e17c595bad009182b4db741622f7848e344c15451de2f\n        /* \"RVA/UpgradableToken.sol\":1915:1924  timestamp */\n      dup3\n        /* \"RVA/UpgradableToken.sol\":1896:1925  LockupSet(account, timestamp) */\n      mload(0x40)\n      tag_208\n      swap2\n      swap1\n      tag_56\n      jump\t// in\n    tag_208:\n      mload(0x40)\n      dup1\n      swap2\n      sub\n      swap1\n      log2\n        /* \"RVA/UpgradableToken.sol\":1792:1936  if (lockedUntil[account] != timestamp) {... */\n    tag_207:\n        /* \"RVA/UpgradableToken.sol\":1702:1942  function setLockup(address account, uint256 timestamp) external onlyICOContract {... */\n      pop\n      pop\n      jump\t// out\n        /* \"RVA/UpgradableToken.sol\":1631:1696  function unpause() external onlyOwner {... */\n    tag_79:\n        /* \"@openzeppelin/contracts-upgradeable/access/OwnableUpgradeable.sol\":2334:2347  _checkOwner() */\n      tag_210\n        /* \"@openzeppelin/contracts-upgradeable/access/OwnableUpgradeable.sol\":2334:2345  _checkOwner */\n      tag_177\n        /* \"@openzeppelin/contracts-upgradeable/access/OwnableUpgradeable.sol\":2334:2347  _checkOwner() */\n      jump\t// in\n    tag_210:\n        /* \"RVA/UpgradableToken.sol\":1679:1689  _unpause() */\n      tag_212\n        /* \"RVA/UpgradableToken.sol\":1679:1687  _unpause */\n      tag_213\n        /* \"RVA/UpgradableToken.sol\":1679:1689  _unpause() */\n      jump\t// in\n    tag_212:\n        /* \"RVA/UpgradableToken.sol\":1631:1696  function unpause() external onlyOwner {... */\n      jump\t// out\n        /* \"@openzeppelin/contracts-upgradeable/proxy/utils/UUPSUpgradeable.sol\":4161:4375  function upgradeToAndCall(address newImplementation, bytes memory data) public payable virtual onlyProxy {... */\n    tag_83:\n        /* \"@openzeppelin/contracts-upgradeable/proxy/utils/UUPSUpgradeable.sol\":2655:2668  _checkProxy() */\n      tag_215\n        /* \"@openzeppelin/contracts-upgradeable/proxy/utils/UUPSUpgradeable.sol\":2655:2666  _checkProxy */\n      tag_216\n        /* \"@openzeppelin/contracts-upgradeable/proxy/utils/UUPSUpgradeable.sol\":2655:2668  _checkProxy() */\n      jump\t// in\n    tag_215:\n        /* \"@openzeppelin/contracts-upgradeable/proxy/utils/UUPSUpgradeable.sol\":4276:4312  _authorizeUpgrade(newImplementation) */\n      tag_218\n        /* \"@openzeppelin/contracts-upgradeable/proxy/utils/UUPSUpgradeable.sol\":4294:4311  newImplementation */\n      dup3\n        /* \"@openzeppelin/contracts-upgradeable/proxy/utils/UUPSUpgradeable.sol\":4276:4293  _authorizeUpgrade */\n      tag_219\n        /* \"@openzeppelin/contracts-upgradeable/proxy/utils/UUPSUpgradeable.sol\":4276:4312  _authorizeUpgrade(newImplementation) */\n      jump\t// in\n    tag_218:\n        /* \"@openzeppelin/contracts-upgradeable/proxy/utils/UUPSUpgradeable.sol\":4322:4368  _upgradeToAndCallUUPS(newImplementation, data) */\n      tag_220\n        /* \"@openzeppelin/contracts-upgradeable/proxy/utils/UUPSUpgradeable.sol\":4344:4361  newImplementation */\n      dup3\n        /* \"@openzeppelin/contracts-upgradeable/proxy/utils/UUPSUpgradeable.sol\":4363:4367  data */\n      dup3\n        /* \"@openzeppelin/contracts-upgradeable/proxy/utils/UUPSUpgradeable.sol\":4322:4343  _upgradeToAndCallUUPS */\n      tag_221\n        /* \"@openzeppelin/contracts-upgradeable/proxy/utils/UUPSUpgradeable.sol\":4322:4368  _upgradeToAndCallUUPS(newImplementation, data) */\n      jump\t// in\n    tag_220:\n        /* \"@openzeppelin/contracts-upgradeable/proxy/utils/UUPSUpgradeable.sol\":4161:4375  function upgradeToAndCall(address newImplementation, bytes memory data) public payable virtual onlyProxy {... */\n      pop\n      pop\n      jump\t// out\n        /* \"@openzeppelin/contracts-upgradeable/proxy/utils/UUPSUpgradeable.sol\":3708:3842  function proxiableUUID() external view virtual notDelegated returns (bytes32) {... */\n    tag_86:\n        /* \"@openzeppelin/contracts-upgradeable/proxy/utils/UUPSUpgradeable.sol\":3777:3784  bytes32 */\n      0x00\n        /* \"@openzeppelin/contracts-upgradeable/proxy/utils/UUPSUpgradeable.sol\":2926:2946  _checkNotDelegated() */\n      tag_223\n        /* \"@openzeppelin/contracts-upgradeable/proxy/utils/UUPSUpgradeable.sol\":2926:2944  _checkNotDelegated */\n      tag_224\n        /* \"@openzeppelin/contracts-upgradeable/proxy/utils/UUPSUpgradeable.sol\":2926:2946  _checkNotDelegated() */\n      jump\t// in\n    tag_223:\n        /* \"@openzeppelin/contracts/proxy/ERC1967/ERC1967Utils.sol\":811:877  0x360894a13ba1a3210667c828492db98dca3e2076cc3735a920a3ca505d382bbc */\n      0x360894a13ba1a3210667c828492db98dca3e2076cc3735a920a3ca505d382bbc\n        /* \"@openzeppelin/contracts-upgradeable/proxy/utils/UUPSUpgradeable.sol\":3803:3835  ERC1967Utils.IMPLEMENTATION_SLOT */\n      0x00\n      shl\n        /* \"@openzeppelin/contracts-upgradeable/proxy/utils/UUPSUpgradeable.sol\":3796:3835  return ERC1967Utils.IMPLEMENTATION_SLOT */\n      swap1\n      pop\n        /* \"@openzeppelin/contracts-upgradeable/proxy/utils/UUPSUpgradeable.sol\":3708:3842  function proxiableUUID() external view virtual notDelegated returns (bytes32) {... */\n      swap1\n      jump\t// out\n        /* \"@openzeppelin/contracts-upgradeable/security/PausableUpgradeable.sol\":1879:1963  function paused() public view virtual returns (bool) {... */\n    tag_91:\n        /* \"@openzeppelin/contracts-upgradeable/security/PausableUpgradeable.sol\":1926:1930  bool */\n      0x00\n        /* \"@openzeppelin/contracts-upgradeable/security/PausableUpgradeable.sol\":1949:1956  _paused */\n      dup1\n      0x00\n      swap1\n      sload\n      swap1\n      0x0100\n      exp\n      swap1\n      div\n      0xff\n      and\n        /* \"@openzeppelin/contracts-upgradeable/security/PausableUpgradeable.sol\":1942:1956  return _paused */\n      swap1\n      pop\n        /* \"@openzeppelin/contracts-upgradeable/security/PausableUpgradeable.sol\":1879:1963  function paused() public view virtual returns (bool) {... */\n      swap1\n      jump\t// out\n        /* \"@openzeppelin/contracts-upgradeable/token/ERC20/ERC20Upgradeable.sol\":4106:4277  function balanceOf(address account) public view virtual returns (uint256) {... */\n    tag_96:\n        /* \"@openzeppelin/contracts-upgradeable/token/ERC20/ERC20Upgradeable.sol\":4171:4178  uint256 */\n      0x00\n        /* \"@openzeppelin/contracts-upgradeable/token/ERC20/ERC20Upgradeable.sol\":4190:4212  ERC20Storage storage $ */\n      dup1\n        /* \"@openzeppelin/contracts-upgradeable/token/ERC20/ERC20Upgradeable.sol\":4215:4233  _getERC20Storage() */\n      tag_228\n        /* \"@openzeppelin/contracts-upgradeable/token/ERC20/ERC20Upgradeable.sol\":4215:4231  _getERC20Storage */\n      tag_163\n        /* \"@openzeppelin/contracts-upgradeable/token/ERC20/ERC20Upgradeable.sol\":4215:4233  _getERC20Storage() */\n      jump\t// in\n    tag_228:\n        /* \"@openzeppelin/contracts-upgradeable/token/ERC20/ERC20Upgradeable.sol\":4190:4233  ERC20Storage storage $ = _getERC20Storage() */\n      swap1\n      pop\n        /* \"@openzeppelin/contracts-upgradeable/token/ERC20/ERC20Upgradeable.sol\":4250:4251  $ */\n      dup1\n        /* \"@openzeppelin/contracts-upgradeable/token/ERC20/ERC20Upgradeable.sol\":4250:4261  $._balances */\n      0x00\n      add\n        /* \"@openzeppelin/contracts-upgradeable/token/ERC20/ERC20Upgradeable.sol\":4250:4270  $._balances[account] */\n      0x00\n        /* \"@openzeppelin/contracts-upgradeable/token/ERC20/ERC20Upgradeable.sol\":4262:4269  account */\n      dup5\n        /* \"@openzeppelin/contracts-upgradeable/token/ERC20/ERC20Upgradeable.sol\":4250:4270  $._balances[account] */\n      0xffffffffffffffffffffffffffffffffffffffff\n      and\n      0xffffffffffffffffffffffffffffffffffffffff\n      and\n      dup2\n      mstore\n      0x20\n      add\n      swap1\n      dup2\n      mstore\n      0x20\n      add\n      0x00\n      keccak256\n      sload\n        /* \"@openzeppelin/contracts-upgradeable/token/ERC20/ERC20Upgradeable.sol\":4243:4270  return $._balances[account] */\n      swap2\n      pop\n      pop\n        /* \"@openzeppelin/contracts-upgradeable/token/ERC20/ERC20Upgradeable.sol\":4106:4277  function balanceOf(address account) public view virtual returns (uint256) {... */\n      swap2\n      swap1\n      pop\n      jump\t// out\n        /* \"@openzeppelin/contracts-upgradeable/access/OwnableUpgradeable.sol\":3155:3256  function renounceOwnership() public virtual onlyOwner {... */\n    tag_100:\n        /* \"@openzeppelin/contracts-upgradeable/access/OwnableUpgradeable.sol\":2334:2347  _checkOwner() */\n      tag_230\n        /* \"@openzeppelin/contracts-upgradeable/access/OwnableUpgradeable.sol\":2334:2345  _checkOwner */\n      tag_177\n        /* \"@openzeppelin/contracts-upgradeable/access/OwnableUpgradeable.sol\":2334:2347  _checkOwner() */\n      jump\t// in\n    tag_230:\n        /* \"@openzeppelin/contracts-upgradeable/access/OwnableUpgradeable.sol\":3219:3249  _transferOwnership(address(0)) */\n      tag_232\n        /* \"@openzeppelin/contracts-upgradeable/access/OwnableUpgradeable.sol\":3246:3247  0 */\n      0x00\n        /* \"@openzeppelin/contracts-upgradeable/access/OwnableUpgradeable.sol\":3219:3237  _transferOwnership */\n      tag_233\n        /* \"@openzeppelin/contracts-upgradeable/access/OwnableUpgradeable.sol\":3219:3249  _transferOwnership(address(0)) */\n      jump\t// in\n    tag_232:\n        /* \"@openzeppelin/contracts-upgradeable/access/OwnableUpgradeable.sol\":3155:3256  function renounceOwnership() public virtual onlyOwner {... */\n      jump\t// out\n        /* \"RVA/UpgradableToken.sol\":1564:1625  function pause() external onlyOwner {... */\n    tag_103:\n        /* \"@openzeppelin/contracts-upgradeable/access/OwnableUpgradeable.sol\":2334:2347  _checkOwner() */\n      tag_235\n        /* \"@openzeppelin/contracts-upgradeable/access/OwnableUpgradeable.sol\":2334:2345  _checkOwner */\n      tag_177\n        /* \"@openzeppelin/contracts-upgradeable/access/OwnableUpgradeable.sol\":2334:2347  _checkOwner() */\n      jump\t// in\n    tag_235:\n        /* \"RVA/UpgradableToken.sol\":1610:1618  _pause() */\n      tag_237\n        /* \"RVA/UpgradableToken.sol\":1610:1616  _pause */\n      tag_238\n        /* \"RVA/UpgradableToken.sol\":1610:1618  _pause() */\n      jump\t// in\n    tag_237:\n        /* \"RVA/UpgradableToken.sol\":1564:1625  function pause() external onlyOwner {... */\n      jump\t// out\n        /* \"RVA/UpgradableToken.sol\":3336:3909  function batchTransfer(address[] calldata recipients, uint256[] calldata amounts) external whenNotPaused {... */\n    tag_108:\n        /* \"@openzeppelin/contracts-upgradeable/security/PausableUpgradeable.sol\":1503:1522  _requireNotPaused() */\n      tag_240\n        /* \"@openzeppelin/contracts-upgradeable/security/PausableUpgradeable.sol\":1503:1520  _requireNotPaused */\n      tag_184\n        /* \"@openzeppelin/contracts-upgradeable/security/PausableUpgradeable.sol\":1503:1522  _requireNotPaused() */\n      jump\t// in\n    tag_240:\n        /* \"RVA/UpgradableToken.sol\":3480:3487  amounts */\n      dup2\n      dup2\n        /* \"RVA/UpgradableToken.sol\":3480:3494  amounts.length */\n      swap1\n      pop\n        /* \"RVA/UpgradableToken.sol\":3459:3469  recipients */\n      dup5\n      dup5\n        /* \"RVA/UpgradableToken.sol\":3459:3476  recipients.length */\n      swap1\n      pop\n        /* \"RVA/UpgradableToken.sol\":3459:3494  recipients.length == amounts.length */\n      eq\n        /* \"RVA/UpgradableToken.sol\":3451:3538  require(recipients.length == amounts.length, \"BatchTransfer failed: Mismatched arrays\") */\n      tag_242\n      jumpi\n      mload(0x40)\n      0x08c379a000000000000000000000000000000000000000000000000000000000\n      dup2\n      mstore\n      0x04\n      add\n      tag_243\n      swap1\n      tag_244\n      jump\t// in\n    tag_243:\n      mload(0x40)\n      dup1\n      swap2\n      sub\n      swap1\n      revert\n    tag_242:\n        /* \"RVA/UpgradableToken.sol\":3548:3571  uint256 recipientLength */\n      0x00\n        /* \"RVA/UpgradableToken.sol\":3574:3584  recipients */\n      dup5\n      dup5\n        /* \"RVA/UpgradableToken.sol\":3574:3591  recipients.length */\n      swap1\n      pop\n        /* \"RVA/UpgradableToken.sol\":3548:3591  uint256 recipientLength = recipients.length */\n      swap1\n      pop\n        /* \"RVA/UpgradableToken.sol\":3606:3615  uint256 i */\n      0x00\n        /* \"RVA/UpgradableToken.sol\":3601:3903  for (uint256 i = 0; i < recipientLength; i++) {... */\n    tag_245:\n        /* \"RVA/UpgradableToken.sol\":3625:3640  recipientLength */\n      dup2\n        /* \"RVA/UpgradableToken.sol\":3621:3622  i */\n      dup2\n        /* \"RVA/UpgradableToken.sol\":3621:3640  i < recipientLength */\n      lt\n        /* \"RVA/UpgradableToken.sol\":3601:3903  for (uint256 i = 0; i < recipientLength; i++) {... */\n      iszero\n      tag_246\n      jumpi\n        /* \"RVA/UpgradableToken.sol\":3692:3703  blacklisted */\n      0x35\n        /* \"RVA/UpgradableToken.sol\":3692:3718  blacklisted[recipients[i]] */\n      0x00\n        /* \"RVA/UpgradableToken.sol\":3704:3714  recipients */\n      dup8\n      dup8\n        /* \"RVA/UpgradableToken.sol\":3715:3716  i */\n      dup5\n        /* \"RVA/UpgradableToken.sol\":3704:3717  recipients[i] */\n      dup2\n      dup2\n      lt\n      tag_248\n      jumpi\n      tag_249\n      tag_250\n      jump\t// in\n    tag_249:\n    tag_248:\n      swap1\n      pop\n      0x20\n      mul\n      add\n      0x20\n      dup2\n      add\n      swap1\n      tag_251\n      swap2\n      swap1\n      tag_66\n      jump\t// in\n    tag_251:\n        /* \"RVA/UpgradableToken.sol\":3692:3718  blacklisted[recipients[i]] */\n      0xffffffffffffffffffffffffffffffffffffffff\n      and\n      0xffffffffffffffffffffffffffffffffffffffff\n      and\n      dup2\n      mstore\n      0x20\n      add\n      swap1\n      dup2\n      mstore\n      0x20\n      add\n      0x00\n      keccak256\n      0x00\n      swap1\n      sload\n      swap1\n      0x0100\n      exp\n      swap1\n      div\n      0xff\n      and\n        /* \"RVA/UpgradableToken.sol\":3688:3817  if (blacklisted[recipients[i]]) {... */\n      iszero\n      tag_252\n      jumpi\n        /* \"RVA/UpgradableToken.sol\":3742:3798  revert(\"BatchTransfer failed: Recipient is blacklisted\") */\n      mload(0x40)\n      0x08c379a000000000000000000000000000000000000000000000000000000000\n      dup2\n      mstore\n      0x04\n      add\n      tag_253\n      swap1\n      tag_254\n      jump\t// in\n    tag_253:\n      mload(0x40)\n      dup1\n      swap2\n      sub\n      swap1\n      revert\n        /* \"RVA/UpgradableToken.sol\":3688:3817  if (blacklisted[recipients[i]]) {... */\n    tag_252:\n        /* \"RVA/UpgradableToken.sol\":3830:3878  _transfer(msg.sender, recipients[i], amounts[i]) */\n      tag_255\n        /* \"RVA/UpgradableToken.sol\":3840:3850  msg.sender */\n      caller\n        /* \"RVA/UpgradableToken.sol\":3852:3862  recipients */\n      dup8\n      dup8\n        /* \"RVA/UpgradableToken.sol\":3863:3864  i */\n      dup5\n        /* \"RVA/UpgradableToken.sol\":3852:3865  recipients[i] */\n      dup2\n      dup2\n      lt\n      tag_256\n      jumpi\n      tag_257\n      tag_250\n      jump\t// in\n    tag_257:\n    tag_256:\n      swap1\n      pop\n      0x20\n      mul\n      add\n      0x20\n      dup2\n      add\n      swap1\n      tag_258\n      swap2\n      swap1\n      tag_66\n      jump\t// in\n    tag_258:\n        /* \"RVA/UpgradableToken.sol\":3867:3874  amounts */\n      dup7\n      dup7\n        /* \"RVA/UpgradableToken.sol\":3875:3876  i */\n      dup6\n        /* \"RVA/UpgradableToken.sol\":3867:3877  amounts[i] */\n      dup2\n      dup2\n      lt\n      tag_259\n      jumpi\n      tag_260\n      tag_250\n      jump\t// in\n    tag_260:\n    tag_259:\n      swap1\n      pop\n      0x20\n      mul\n      add\n      calldataload\n        /* \"RVA/UpgradableToken.sol\":3830:3839  _transfer */\n      tag_261\n        /* \"RVA/UpgradableToken.sol\":3830:3878  _transfer(msg.sender, recipients[i], amounts[i]) */\n      jump\t// in\n    tag_255:\n        /* \"RVA/UpgradableToken.sol\":3642:3645  i++ */\n      dup1\n      dup1\n      0x01\n      add\n      swap2\n      pop\n      pop\n        /* \"RVA/UpgradableToken.sol\":3601:3903  for (uint256 i = 0; i < recipientLength; i++) {... */\n      jump(tag_245)\n    tag_246:\n      pop\n        /* \"RVA/UpgradableToken.sol\":3441:3909  {... */\n      pop\n        /* \"RVA/UpgradableToken.sol\":3336:3909  function batchTransfer(address[] calldata recipients, uint256[] calldata amounts) external whenNotPaused {... */\n      pop\n      pop\n      pop\n      pop\n      jump\t// out\n        /* \"@openzeppelin/contracts-upgradeable/access/OwnableUpgradeable.sol\":2441:2585  function owner() public view virtual returns (address) {... */\n    tag_111:\n        /* \"@openzeppelin/contracts-upgradeable/access/OwnableUpgradeable.sol\":2487:2494  address */\n      0x00\n        /* \"@openzeppelin/contracts-upgradeable/access/OwnableUpgradeable.sol\":2506:2530  OwnableStorage storage $ */\n      dup1\n        /* \"@openzeppelin/contracts-upgradeable/access/OwnableUpgradeable.sol\":2533:2553  _getOwnableStorage() */\n      tag_263\n        /* \"@openzeppelin/contracts-upgradeable/access/OwnableUpgradeable.sol\":2533:2551  _getOwnableStorage */\n      tag_264\n        /* \"@openzeppelin/contracts-upgradeable/access/OwnableUpgradeable.sol\":2533:2553  _getOwnableStorage() */\n      jump\t// in\n    tag_263:\n        /* \"@openzeppelin/contracts-upgradeable/access/OwnableUpgradeable.sol\":2506:2553  OwnableStorage storage $ = _getOwnableStorage() */\n      swap1\n      pop\n        /* \"@openzeppelin/contracts-upgradeable/access/OwnableUpgradeable.sol\":2570:2571  $ */\n      dup1\n        /* \"@openzeppelin/contracts-upgradeable/access/OwnableUpgradeable.sol\":2570:2578  $._owner */\n      0x00\n      add\n      0x00\n      swap1\n      sload\n      swap1\n      0x0100\n      exp\n      swap1\n      div\n      0xffffffffffffffffffffffffffffffffffffffff\n      and\n        /* \"@openzeppelin/contracts-upgradeable/access/OwnableUpgradeable.sol\":2563:2578  return $._owner */\n      swap2\n      pop\n      pop\n        /* \"@openzeppelin/contracts-upgradeable/access/OwnableUpgradeable.sol\":2441:2585  function owner() public view virtual returns (address) {... */\n      swap1\n      jump\t// out\n        /* \"@openzeppelin/contracts-upgradeable/token/ERC20/ERC20Upgradeable.sol\":2973:3121  function symbol() public view virtual returns (string memory) {... */\n    tag_116:\n        /* \"@openzeppelin/contracts-upgradeable/token/ERC20/ERC20Upgradeable.sol\":3020:3033  string memory */\n      0x60\n        /* \"@openzeppelin/contracts-upgradeable/token/ERC20/ERC20Upgradeable.sol\":3045:3067  ERC20Storage storage $ */\n      0x00\n        /* \"@openzeppelin/contracts-upgradeable/token/ERC20/ERC20Upgradeable.sol\":3070:3088  _getERC20Storage() */\n      tag_266\n        /* \"@openzeppelin/contracts-upgradeable/token/ERC20/ERC20Upgradeable.sol\":3070:3086  _getERC20Storage */\n      tag_163\n        /* \"@openzeppelin/contracts-upgradeable/token/ERC20/ERC20Upgradeable.sol\":3070:3088  _getERC20Storage() */\n      jump\t// in\n    tag_266:\n        /* \"@openzeppelin/contracts-upgradeable/token/ERC20/ERC20Upgradeable.sol\":3045:3088  ERC20Storage storage $ = _getERC20Storage() */\n      swap1\n      pop\n        /* \"@openzeppelin/contracts-upgradeable/token/ERC20/ERC20Upgradeable.sol\":3105:3106  $ */\n      dup1\n        /* \"@openzeppelin/contracts-upgradeable/token/ERC20/ERC20Upgradeable.sol\":3105:3114  $._symbol */\n      0x04\n      add\n        /* \"@openzeppelin/contracts-upgradeable/token/ERC20/ERC20Upgradeable.sol\":3098:3114  return $._symbol */\n      dup1\n      sload\n      tag_267\n      swap1\n      tag_165\n      jump\t// in\n    tag_267:\n      dup1\n      0x1f\n      add\n      0x20\n      dup1\n      swap2\n      div\n      mul\n      0x20\n      add\n      mload(0x40)\n      swap1\n      dup2\n      add\n      0x40\n      mstore\n      dup1\n      swap3\n      swap2\n      swap1\n      dup2\n      dup2\n      mstore\n      0x20\n      add\n      dup3\n      dup1\n      sload\n      tag_268\n      swap1\n      tag_165\n      jump\t// in\n    tag_268:\n      dup1\n      iszero\n      tag_269\n      jumpi\n      dup1\n      0x1f\n      lt\n      tag_270\n      jumpi\n      0x0100\n      dup1\n      dup4\n      sload\n      div\n      mul\n      dup4\n      mstore\n      swap2\n      0x20\n      add\n      swap2\n      jump(tag_269)\n    tag_270:\n      dup3\n      add\n      swap2\n      swap1\n      0x00\n      mstore\n      keccak256(0x00, 0x20)\n      swap1\n    tag_271:\n      dup2\n      sload\n      dup2\n      mstore\n      swap1\n      0x01\n      add\n      swap1\n      0x20\n      add\n      dup1\n      dup4\n      gt\n      tag_271\n      jumpi\n      dup3\n      swap1\n      sub\n      0x1f\n      and\n      dup3\n      add\n      swap2\n    tag_269:\n      pop\n      pop\n      pop\n      pop\n      pop\n      swap2\n      pop\n      pop\n        /* \"@openzeppelin/contracts-upgradeable/token/ERC20/ERC20Upgradeable.sol\":2973:3121  function symbol() public view virtual returns (string memory) {... */\n      swap1\n      jump\t// out\n        /* \"RVA/UpgradableToken.sol\":542:588  mapping(address => uint256) public lockedUntil */\n    tag_121:\n      mstore(0x20, 0x34)\n      dup1\n      0x00\n      mstore\n      keccak256(0x00, 0x40)\n      0x00\n      swap2\n      pop\n      swap1\n      pop\n      sload\n      dup2\n      jump\t// out\n        /* \"RVA/UpgradableToken.sol\":2231:2689  function transfer(address recipient, uint256 amount) public override whenNotPaused returns (bool) {... */\n    tag_126:\n        /* \"RVA/UpgradableToken.sol\":2323:2327  bool */\n      0x00\n        /* \"@openzeppelin/contracts-upgradeable/security/PausableUpgradeable.sol\":1503:1522  _requireNotPaused() */\n      tag_273\n        /* \"@openzeppelin/contracts-upgradeable/security/PausableUpgradeable.sol\":1503:1520  _requireNotPaused */\n      tag_184\n        /* \"@openzeppelin/contracts-upgradeable/security/PausableUpgradeable.sol\":1503:1522  _requireNotPaused() */\n      jump\t// in\n    tag_273:\n        /* \"RVA/UpgradableToken.sol\":2348:2359  blacklisted */\n      0x35\n        /* \"RVA/UpgradableToken.sol\":2348:2371  blacklisted[msg.sender] */\n      0x00\n        /* \"RVA/UpgradableToken.sol\":2360:2370  msg.sender */\n      caller\n        /* \"RVA/UpgradableToken.sol\":2348:2371  blacklisted[msg.sender] */\n      0xffffffffffffffffffffffffffffffffffffffff\n      and\n      0xffffffffffffffffffffffffffffffffffffffff\n      and\n      dup2\n      mstore\n      0x20\n      add\n      swap1\n      dup2\n      mstore\n      0x20\n      add\n      0x00\n      keccak256\n      0x00\n      swap1\n      sload\n      swap1\n      0x0100\n      exp\n      swap1\n      div\n      0xff\n      and\n        /* \"RVA/UpgradableToken.sol\":2347:2371  !blacklisted[msg.sender] */\n      iszero\n        /* \"RVA/UpgradableToken.sol\":2339:2414  require(!blacklisted[msg.sender], \"Transfer failed: Sender is blacklisted\") */\n      tag_275\n      jumpi\n      mload(0x40)\n      0x08c379a000000000000000000000000000000000000000000000000000000000\n      dup2\n      mstore\n      0x04\n      add\n      tag_276\n      swap1\n      tag_188\n      jump\t// in\n    tag_276:\n      mload(0x40)\n      dup1\n      swap2\n      sub\n      swap1\n      revert\n    tag_275:\n        /* \"RVA/UpgradableToken.sol\":2433:2444  blacklisted */\n      0x35\n        /* \"RVA/UpgradableToken.sol\":2433:2455  blacklisted[recipient] */\n      0x00\n        /* \"RVA/UpgradableToken.sol\":2445:2454  recipient */\n      dup5\n        /* \"RVA/UpgradableToken.sol\":2433:2455  blacklisted[recipient] */\n      0xffffffffffffffffffffffffffffffffffffffff\n      and\n      0xffffffffffffffffffffffffffffffffffffffff\n      and\n      dup2\n      mstore\n      0x20\n      add\n      swap1\n      dup2\n      mstore\n      0x20\n      add\n      0x00\n      keccak256\n      0x00\n      swap1\n      sload\n      swap1\n      0x0100\n      exp\n      swap1\n      div\n      0xff\n      and\n        /* \"RVA/UpgradableToken.sol\":2432:2455  !blacklisted[recipient] */\n      iszero\n        /* \"RVA/UpgradableToken.sol\":2424:2501  require(!blacklisted[recipient], \"Transfer failed: Recipient is blacklisted\") */\n      tag_277\n      jumpi\n      mload(0x40)\n      0x08c379a000000000000000000000000000000000000000000000000000000000\n      dup2\n      mstore\n      0x04\n      add\n      tag_278\n      swap1\n      tag_191\n      jump\t// in\n    tag_278:\n      mload(0x40)\n      dup1\n      swap2\n      sub\n      swap1\n      revert\n    tag_277:\n        /* \"RVA/UpgradableToken.sol\":2538:2549  lockedUntil */\n      0x34\n        /* \"RVA/UpgradableToken.sol\":2538:2561  lockedUntil[msg.sender] */\n      0x00\n        /* \"RVA/UpgradableToken.sol\":2550:2560  msg.sender */\n      caller\n        /* \"RVA/UpgradableToken.sol\":2538:2561  lockedUntil[msg.sender] */\n      0xffffffffffffffffffffffffffffffffffffffff\n      and\n      0xffffffffffffffffffffffffffffffffffffffff\n      and\n      dup2\n      mstore\n      0x20\n      add\n      swap1\n      dup2\n      mstore\n      0x20\n      add\n      0x00\n      keccak256\n      sload\n        /* \"RVA/UpgradableToken.sol\":2519:2534  block.timestamp */\n      timestamp\n        /* \"RVA/UpgradableToken.sol\":2519:2561  block.timestamp >= lockedUntil[msg.sender] */\n      lt\n      iszero\n        /* \"RVA/UpgradableToken.sol\":2519:2593  block.timestamp >= lockedUntil[msg.sender] || lockedUntil[msg.sender] == 0 */\n      dup1\n      tag_279\n      jumpi\n      pop\n        /* \"RVA/UpgradableToken.sol\":2592:2593  0 */\n      0x00\n        /* \"RVA/UpgradableToken.sol\":2565:2576  lockedUntil */\n      0x34\n        /* \"RVA/UpgradableToken.sol\":2565:2588  lockedUntil[msg.sender] */\n      0x00\n        /* \"RVA/UpgradableToken.sol\":2577:2587  msg.sender */\n      caller\n        /* \"RVA/UpgradableToken.sol\":2565:2588  lockedUntil[msg.sender] */\n      0xffffffffffffffffffffffffffffffffffffffff\n      and\n      0xffffffffffffffffffffffffffffffffffffffff\n      and\n      dup2\n      mstore\n      0x20\n      add\n      swap1\n      dup2\n      mstore\n      0x20\n      add\n      0x00\n      keccak256\n      sload\n        /* \"RVA/UpgradableToken.sol\":2565:2593  lockedUntil[msg.sender] == 0 */\n      eq\n        /* \"RVA/UpgradableToken.sol\":2519:2593  block.timestamp >= lockedUntil[msg.sender] || lockedUntil[msg.sender] == 0 */\n    tag_279:\n        /* \"RVA/UpgradableToken.sol\":2511:2632  require(block.timestamp >= lockedUntil[msg.sender] || lockedUntil[msg.sender] == 0, \"Transfer failed: Tokens are locked\") */\n      tag_280\n      jumpi\n      mload(0x40)\n      0x08c379a000000000000000000000000000000000000000000000000000000000\n      dup2\n      mstore\n      0x04\n      add\n      tag_281\n      swap1\n      tag_195\n      jump\t// in\n    tag_281:\n      mload(0x40)\n      dup1\n      swap2\n      sub\n      swap1\n      revert\n    tag_280:\n        /* \"RVA/UpgradableToken.sol\":2649:2682  super.transfer(recipient, amount) */\n      tag_282\n        /* \"RVA/UpgradableToken.sol\":2664:2673  recipient */\n      dup4\n        /* \"RVA/UpgradableToken.sol\":2675:2681  amount */\n      dup4\n        /* \"RVA/UpgradableToken.sol\":2649:2663  super.transfer */\n      tag_283\n        /* \"RVA/UpgradableToken.sol\":2649:2682  super.transfer(recipient, amount) */\n      jump\t// in\n    tag_282:\n        /* \"RVA/UpgradableToken.sol\":2642:2682  return super.transfer(recipient, amount) */\n      swap1\n      pop\n        /* \"RVA/UpgradableToken.sol\":2231:2689  function transfer(address recipient, uint256 amount) public override whenNotPaused returns (bool) {... */\n      swap3\n      swap2\n      pop\n      pop\n      jump\t// out\n        /* \"@openzeppelin/contracts-upgradeable/proxy/utils/UUPSUpgradeable.sol\":1819:1877  string public constant UPGRADE_INTERFACE_VERSION = \"5.0.0\" */\n    tag_130:\n      mload(0x40)\n      dup1\n      0x40\n      add\n      0x40\n      mstore\n      dup1\n      0x05\n      dup2\n      mstore\n      0x20\n      add\n      0x352e302e30000000000000000000000000000000000000000000000000000000\n      dup2\n      mstore\n      pop\n      dup2\n      jump\t// out\n        /* \"RVA/UpgradableToken.sol\":1082:1445  function initialize(string memory name, string memory symbol, uint256 totalSupply_) external initializer {... */\n    tag_136:\n        /* \"@openzeppelin/contracts-upgradeable/proxy/utils/Initializable.sol\":4158:4188  InitializableStorage storage $ */\n      0x00\n        /* \"@openzeppelin/contracts-upgradeable/proxy/utils/Initializable.sol\":4191:4217  _getInitializableStorage() */\n      tag_285\n        /* \"@openzeppelin/contracts-upgradeable/proxy/utils/Initializable.sol\":4191:4215  _getInitializableStorage */\n      tag_286\n        /* \"@openzeppelin/contracts-upgradeable/proxy/utils/Initializable.sol\":4191:4217  _getInitializableStorage() */\n      jump\t// in\n    tag_285:\n        /* \"@openzeppelin/contracts-upgradeable/proxy/utils/Initializable.sol\":4158:4217  InitializableStorage storage $ = _getInitializableStorage() */\n      swap1\n      pop\n        /* \"@openzeppelin/contracts-upgradeable/proxy/utils/Initializable.sol\":4279:4298  bool isTopLevelCall */\n      0x00\n        /* \"@openzeppelin/contracts-upgradeable/proxy/utils/Initializable.sol\":4302:4303  $ */\n      dup2\n        /* \"@openzeppelin/contracts-upgradeable/proxy/utils/Initializable.sol\":4302:4317  $._initializing */\n      0x00\n      add\n      0x08\n      swap1\n      sload\n      swap1\n      0x0100\n      exp\n      swap1\n      div\n      0xff\n      and\n        /* \"@openzeppelin/contracts-upgradeable/proxy/utils/Initializable.sol\":4301:4317  !$._initializing */\n      iszero\n        /* \"@openzeppelin/contracts-upgradeable/proxy/utils/Initializable.sol\":4279:4317  bool isTopLevelCall = !$._initializing */\n      swap1\n      pop\n        /* \"@openzeppelin/contracts-upgradeable/proxy/utils/Initializable.sol\":4327:4345  uint64 initialized */\n      0x00\n        /* \"@openzeppelin/contracts-upgradeable/proxy/utils/Initializable.sol\":4348:4349  $ */\n      dup3\n        /* \"@openzeppelin/contracts-upgradeable/proxy/utils/Initializable.sol\":4348:4362  $._initialized */\n      0x00\n      add\n      0x00\n      swap1\n      sload\n      swap1\n      0x0100\n      exp\n      swap1\n      div\n      0xffffffffffffffff\n      and\n        /* \"@openzeppelin/contracts-upgradeable/proxy/utils/Initializable.sol\":4327:4362  uint64 initialized = $._initialized */\n      swap1\n      pop\n        /* \"@openzeppelin/contracts-upgradeable/proxy/utils/Initializable.sol\":4706:4723  bool initialSetup */\n      0x00\n        /* \"@openzeppelin/contracts-upgradeable/proxy/utils/Initializable.sol\":4741:4742  0 */\n      dup1\n        /* \"@openzeppelin/contracts-upgradeable/proxy/utils/Initializable.sol\":4726:4737  initialized */\n      dup3\n        /* \"@openzeppelin/contracts-upgradeable/proxy/utils/Initializable.sol\":4726:4742  initialized == 0 */\n      0xffffffffffffffff\n      and\n      eq\n        /* \"@openzeppelin/contracts-upgradeable/proxy/utils/Initializable.sol\":4726:4760  initialized == 0 && isTopLevelCall */\n      dup1\n      iszero\n      tag_287\n      jumpi\n      pop\n        /* \"@openzeppelin/contracts-upgradeable/proxy/utils/Initializable.sol\":4746:4760  isTopLevelCall */\n      dup3\n        /* \"@openzeppelin/contracts-upgradeable/proxy/utils/Initializable.sol\":4726:4760  initialized == 0 && isTopLevelCall */\n    tag_287:\n        /* \"@openzeppelin/contracts-upgradeable/proxy/utils/Initializable.sol\":4706:4760  bool initialSetup = initialized == 0 && isTopLevelCall */\n      swap1\n      pop\n        /* \"@openzeppelin/contracts-upgradeable/proxy/utils/Initializable.sol\":4770:4787  bool construction */\n      0x00\n        /* \"@openzeppelin/contracts-upgradeable/proxy/utils/Initializable.sol\":4805:4806  1 */\n      0x01\n        /* \"@openzeppelin/contracts-upgradeable/proxy/utils/Initializable.sol\":4790:4801  initialized */\n      dup4\n        /* \"@openzeppelin/contracts-upgradeable/proxy/utils/Initializable.sol\":4790:4806  initialized == 1 */\n      0xffffffffffffffff\n      and\n      eq\n        /* \"@openzeppelin/contracts-upgradeable/proxy/utils/Initializable.sol\":4790:4840  initialized == 1 && address(this).code.length == 0 */\n      dup1\n      iszero\n      tag_288\n      jumpi\n      pop\n        /* \"@openzeppelin/contracts-upgradeable/proxy/utils/Initializable.sol\":4839:4840  0 */\n      0x00\n        /* \"@openzeppelin/contracts-upgradeable/proxy/utils/Initializable.sol\":4818:4822  this */\n      address\n        /* \"@openzeppelin/contracts-upgradeable/proxy/utils/Initializable.sol\":4810:4835  address(this).code.length */\n      0xffffffffffffffffffffffffffffffffffffffff\n      and\n      extcodesize\n        /* \"@openzeppelin/contracts-upgradeable/proxy/utils/Initializable.sol\":4810:4840  address(this).code.length == 0 */\n      eq\n        /* \"@openzeppelin/contracts-upgradeable/proxy/utils/Initializable.sol\":4790:4840  initialized == 1 && address(this).code.length == 0 */\n    tag_288:\n        /* \"@openzeppelin/contracts-upgradeable/proxy/utils/Initializable.sol\":4770:4840  bool construction = initialized == 1 && address(this).code.length == 0 */\n      swap1\n      pop\n        /* \"@openzeppelin/contracts-upgradeable/proxy/utils/Initializable.sol\":4856:4868  initialSetup */\n      dup2\n        /* \"@openzeppelin/contracts-upgradeable/proxy/utils/Initializable.sol\":4855:4868  !initialSetup */\n      iszero\n        /* \"@openzeppelin/contracts-upgradeable/proxy/utils/Initializable.sol\":4855:4885  !initialSetup && !construction */\n      dup1\n      iszero\n      tag_289\n      jumpi\n      pop\n        /* \"@openzeppelin/contracts-upgradeable/proxy/utils/Initializable.sol\":4873:4885  construction */\n      dup1\n        /* \"@openzeppelin/contracts-upgradeable/proxy/utils/Initializable.sol\":4872:4885  !construction */\n      iszero\n        /* \"@openzeppelin/contracts-upgradeable/proxy/utils/Initializable.sol\":4855:4885  !initialSetup && !construction */\n    tag_289:\n        /* \"@openzeppelin/contracts-upgradeable/proxy/utils/Initializable.sol\":4851:4942  if (!initialSetup && !construction) {... */\n      iszero\n      tag_290\n      jumpi\n        /* \"@openzeppelin/contracts-upgradeable/proxy/utils/Initializable.sol\":4908:4931  InvalidInitialization() */\n      mload(0x40)\n      0xf92ee8a900000000000000000000000000000000000000000000000000000000\n      dup2\n      mstore\n      0x04\n      add\n      mload(0x40)\n      dup1\n      swap2\n      sub\n      swap1\n      revert\n        /* \"@openzeppelin/contracts-upgradeable/proxy/utils/Initializable.sol\":4851:4942  if (!initialSetup && !construction) {... */\n    tag_290:\n        /* \"@openzeppelin/contracts-upgradeable/proxy/utils/Initializable.sol\":4968:4969  1 */\n      0x01\n        /* \"@openzeppelin/contracts-upgradeable/proxy/utils/Initializable.sol\":4951:4952  $ */\n      dup6\n        /* \"@openzeppelin/contracts-upgradeable/proxy/utils/Initializable.sol\":4951:4965  $._initialized */\n      0x00\n      add\n      0x00\n        /* \"@openzeppelin/contracts-upgradeable/proxy/utils/Initializable.sol\":4951:4969  $._initialized = 1 */\n      0x0100\n      exp\n      dup2\n      sload\n      dup2\n      0xffffffffffffffff\n      mul\n      not\n      and\n      swap1\n      dup4\n      0xffffffffffffffff\n      and\n      mul\n      or\n      swap1\n      sstore\n      pop\n        /* \"@openzeppelin/contracts-upgradeable/proxy/utils/Initializable.sol\":4983:4997  isTopLevelCall */\n      dup4\n        /* \"@openzeppelin/contracts-upgradeable/proxy/utils/Initializable.sol\":4979:5046  if (isTopLevelCall) {... */\n      iszero\n      tag_291\n      jumpi\n        /* \"@openzeppelin/contracts-upgradeable/proxy/utils/Initializable.sol\":5031:5035  true */\n      0x01\n        /* \"@openzeppelin/contracts-upgradeable/proxy/utils/Initializable.sol\":5013:5014  $ */\n      dup6\n        /* \"@openzeppelin/contracts-upgradeable/proxy/utils/Initializable.sol\":5013:5028  $._initializing */\n      0x00\n      add\n      0x08\n        /* \"@openzeppelin/contracts-upgradeable/proxy/utils/Initializable.sol\":5013:5035  $._initializing = true */\n      0x0100\n      exp\n      dup2\n      sload\n      dup2\n      0xff\n      mul\n      not\n      and\n      swap1\n      dup4\n      iszero\n      iszero\n      mul\n      or\n      swap1\n      sstore\n      pop\n        /* \"@openzeppelin/contracts-upgradeable/proxy/utils/Initializable.sol\":4979:5046  if (isTopLevelCall) {... */\n    tag_291:\n        /* \"RVA/UpgradableToken.sol\":1197:1223  __ERC20_init(name, symbol) */\n      tag_293\n        /* \"RVA/UpgradableToken.sol\":1210:1214  name */\n      dup9\n        /* \"RVA/UpgradableToken.sol\":1216:1222  symbol */\n      dup9\n        /* \"RVA/UpgradableToken.sol\":1197:1209  __ERC20_init */\n      tag_294\n        /* \"RVA/UpgradableToken.sol\":1197:1223  __ERC20_init(name, symbol) */\n      jump\t// in\n    tag_293:\n        /* \"RVA/UpgradableToken.sol\":1233:1259  __Ownable_init(msg.sender) */\n      tag_295\n        /* \"RVA/UpgradableToken.sol\":1248:1258  msg.sender */\n      caller\n        /* \"RVA/UpgradableToken.sol\":1233:1247  __Ownable_init */\n      tag_296\n        /* \"RVA/UpgradableToken.sol\":1233:1259  __Ownable_init(msg.sender) */\n      jump\t// in\n    tag_295:\n        /* \"RVA/UpgradableToken.sol\":1269:1286  __Pausable_init() */\n      tag_297\n        /* \"RVA/UpgradableToken.sol\":1269:1284  __Pausable_init */\n      tag_298\n        /* \"RVA/UpgradableToken.sol\":1269:1286  __Pausable_init() */\n      jump\t// in\n    tag_297:\n        /* \"RVA/UpgradableToken.sol\":1296:1320  __UUPSUpgradeable_init() */\n      tag_299\n        /* \"RVA/UpgradableToken.sol\":1296:1318  __UUPSUpgradeable_init */\n      tag_300\n        /* \"RVA/UpgradableToken.sol\":1296:1320  __UUPSUpgradeable_init() */\n      jump\t// in\n    tag_299:\n        /* \"RVA/UpgradableToken.sol\":1346:1358  totalSupply_ */\n      dup6\n        /* \"RVA/UpgradableToken.sol\":1331:1343  _totalSupply */\n      0x33\n        /* \"RVA/UpgradableToken.sol\":1331:1358  _totalSupply = totalSupply_ */\n      dup2\n      swap1\n      sstore\n      pop\n        /* \"RVA/UpgradableToken.sol\":1368:1399  _mint(msg.sender, _totalSupply) */\n      tag_301\n        /* \"RVA/UpgradableToken.sol\":1374:1384  msg.sender */\n      caller\n        /* \"RVA/UpgradableToken.sol\":1386:1398  _totalSupply */\n      sload(0x33)\n        /* \"RVA/UpgradableToken.sol\":1368:1373  _mint */\n      tag_302\n        /* \"RVA/UpgradableToken.sol\":1368:1399  _mint(msg.sender, _totalSupply) */\n      jump\t// in\n    tag_301:\n        /* \"@openzeppelin/contracts-upgradeable/proxy/utils/Initializable.sol\":5070:5084  isTopLevelCall */\n      dup4\n        /* \"@openzeppelin/contracts-upgradeable/proxy/utils/Initializable.sol\":5066:5167  if (isTopLevelCall) {... */\n      iszero\n      tag_303\n      jumpi\n        /* \"@openzeppelin/contracts-upgradeable/proxy/utils/Initializable.sol\":5118:5123  false */\n      0x00\n        /* \"@openzeppelin/contracts-upgradeable/proxy/utils/Initializable.sol\":5100:5101  $ */\n      dup6\n        /* \"@openzeppelin/contracts-upgradeable/proxy/utils/Initializable.sol\":5100:5115  $._initializing */\n      0x00\n      add\n      0x08\n        /* \"@openzeppelin/contracts-upgradeable/proxy/utils/Initializable.sol\":5100:5123  $._initializing = false */\n      0x0100\n      exp\n      dup2\n      sload\n      dup2\n      0xff\n      mul\n      not\n      and\n      swap1\n      dup4\n      iszero\n      iszero\n      mul\n      or\n      swap1\n      sstore\n      pop\n        /* \"@openzeppelin/contracts-upgradeable/proxy/utils/Initializable.sol\":5142:5156  Initialized(1) */\n      0xc7f505b2f371ae2175ee4913f4499e1f2633a7b5936321eed1cdaeb6115181d2\n        /* \"@openzeppelin/contracts-upgradeable/proxy/utils/Initializable.sol\":5154:5155  1 */\n      0x01\n        /* \"@openzeppelin/contracts-upgradeable/proxy/utils/Initializable.sol\":5142:5156  Initialized(1) */\n      mload(0x40)\n      tag_304\n      swap2\n      swap1\n      tag_305\n      jump\t// in\n    tag_304:\n      mload(0x40)\n      dup1\n      swap2\n      sub\n      swap1\n      log1\n        /* \"@openzeppelin/contracts-upgradeable/proxy/utils/Initializable.sol\":5066:5167  if (isTopLevelCall) {... */\n    tag_303:\n        /* \"@openzeppelin/contracts-upgradeable/proxy/utils/Initializable.sol\":4092:5173  {... */\n      pop\n      pop\n      pop\n      pop\n      pop\n        /* \"RVA/UpgradableToken.sol\":1082:1445  function initialize(string memory name, string memory symbol, uint256 totalSupply_) external initializer {... */\n      pop\n      pop\n      pop\n      jump\t// out\n        /* \"RVA/UpgradableToken.sol\":475:501  address public icoContract */\n    tag_139:\n      0x32\n      0x00\n      swap1\n      sload\n      swap1\n      0x0100\n      exp\n      swap1\n      div\n      0xffffffffffffffffffffffffffffffffffffffff\n      and\n      dup2\n      jump\t// out\n        /* \"RVA/UpgradableToken.sol\":594:637  mapping(address => bool) public blacklisted */\n    tag_144:\n      mstore(0x20, 0x35)\n      dup1\n      0x00\n      mstore\n      keccak256(0x00, 0x40)\n      0x00\n      swap2\n      pop\n      sload\n      swap1\n      0x0100\n      exp\n      swap1\n      div\n      0xff\n      and\n      dup2\n      jump\t// out\n        /* \"@openzeppelin/contracts-upgradeable/token/ERC20/ERC20Upgradeable.sol\":4708:4903  function allowance(address owner, address spender) public view virtual returns (uint256) {... */\n    tag_150:\n        /* \"@openzeppelin/contracts-upgradeable/token/ERC20/ERC20Upgradeable.sol\":4788:4795  uint256 */\n      0x00\n        /* \"@openzeppelin/contracts-upgradeable/token/ERC20/ERC20Upgradeable.sol\":4807:4829  ERC20Storage storage $ */\n      dup1\n        /* \"@openzeppelin/contracts-upgradeable/token/ERC20/ERC20Upgradeable.sol\":4832:4850  _getERC20Storage() */\n      tag_307\n        /* \"@openzeppelin/contracts-upgradeable/token/ERC20/ERC20Upgradeable.sol\":4832:4848  _getERC20Storage */\n      tag_163\n        /* \"@openzeppelin/contracts-upgradeable/token/ERC20/ERC20Upgradeable.sol\":4832:4850  _getERC20Storage() */\n      jump\t// in\n    tag_307:\n        /* \"@openzeppelin/contracts-upgradeable/token/ERC20/ERC20Upgradeable.sol\":4807:4850  ERC20Storage storage $ = _getERC20Storage() */\n      swap1\n      pop\n        /* \"@openzeppelin/contracts-upgradeable/token/ERC20/ERC20Upgradeable.sol\":4867:4868  $ */\n      dup1\n        /* \"@openzeppelin/contracts-upgradeable/token/ERC20/ERC20Upgradeable.sol\":4867:4880  $._allowances */\n      0x01\n      add\n        /* \"@openzeppelin/contracts-upgradeable/token/ERC20/ERC20Upgradeable.sol\":4867:4887  $._allowances[owner] */\n      0x00\n        /* \"@openzeppelin/contracts-upgradeable/token/ERC20/ERC20Upgradeable.sol\":4881:4886  owner */\n      dup6\n        /* \"@openzeppelin/contracts-upgradeable/token/ERC20/ERC20Upgradeable.sol\":4867:4887  $._allowances[owner] */\n      0xffffffffffffffffffffffffffffffffffffffff\n      and\n      0xffffffffffffffffffffffffffffffffffffffff\n      and\n      dup2\n      mstore\n      0x20\n      add\n      swap1\n      dup2\n      mstore\n      0x20\n      add\n      0x00\n      keccak256\n        /* \"@openzeppelin/contracts-upgradeable/token/ERC20/ERC20Upgradeable.sol\":4867:4896  $._allowances[owner][spender] */\n      0x00\n        /* \"@openzeppelin/contracts-upgradeable/token/ERC20/ERC20Upgradeable.sol\":4888:4895  spender */\n      dup5\n        /* \"@openzeppelin/contracts-upgradeable/token/ERC20/ERC20Upgradeable.sol\":4867:4896  $._allowances[owner][spender] */\n      0xffffffffffffffffffffffffffffffffffffffff\n      and\n      0xffffffffffffffffffffffffffffffffffffffff\n      and\n      dup2\n      mstore\n      0x20\n      add\n      swap1\n      dup2\n      mstore\n      0x20\n      add\n      0x00\n      keccak256\n      sload\n        /* \"@openzeppelin/contracts-upgradeable/token/ERC20/ERC20Upgradeable.sol\":4860:4896  return $._allowances[owner][spender] */\n      swap2\n      pop\n      pop\n        /* \"@openzeppelin/contracts-upgradeable/token/ERC20/ERC20Upgradeable.sol\":4708:4903  function allowance(address owner, address spender) public view virtual returns (uint256) {... */\n      swap3\n      swap2\n      pop\n      pop\n      jump\t// out\n        /* \"@openzeppelin/contracts-upgradeable/access/OwnableUpgradeable.sol\":3405:3620  function transferOwnership(address newOwner) public virtual onlyOwner {... */\n    tag_155:\n        /* \"@openzeppelin/contracts-upgradeable/access/OwnableUpgradeable.sol\":2334:2347  _checkOwner() */\n      tag_309\n        /* \"@openzeppelin/contracts-upgradeable/access/OwnableUpgradeable.sol\":2334:2345  _checkOwner */\n      tag_177\n        /* \"@openzeppelin/contracts-upgradeable/access/OwnableUpgradeable.sol\":2334:2347  _checkOwner() */\n      jump\t// in\n    tag_309:\n        /* \"@openzeppelin/contracts-upgradeable/access/OwnableUpgradeable.sol\":3509:3510  0 */\n      0x00\n        /* \"@openzeppelin/contracts-upgradeable/access/OwnableUpgradeable.sol\":3489:3511  newOwner == address(0) */\n      0xffffffffffffffffffffffffffffffffffffffff\n      and\n        /* \"@openzeppelin/contracts-upgradeable/access/OwnableUpgradeable.sol\":3489:3497  newOwner */\n      dup2\n        /* \"@openzeppelin/contracts-upgradeable/access/OwnableUpgradeable.sol\":3489:3511  newOwner == address(0) */\n      0xffffffffffffffffffffffffffffffffffffffff\n      and\n      sub\n        /* \"@openzeppelin/contracts-upgradeable/access/OwnableUpgradeable.sol\":3485:3576  if (newOwner == address(0)) {... */\n      tag_311\n      jumpi\n        /* \"@openzeppelin/contracts-upgradeable/access/OwnableUpgradeable.sol\":3562:3563  0 */\n      0x00\n        /* \"@openzeppelin/contracts-upgradeable/access/OwnableUpgradeable.sol\":3534:3565  OwnableInvalidOwner(address(0)) */\n      mload(0x40)\n      0x1e4fbdf700000000000000000000000000000000000000000000000000000000\n      dup2\n      mstore\n      0x04\n      add\n      tag_312\n      swap2\n      swap1\n      tag_113\n      jump\t// in\n    tag_312:\n      mload(0x40)\n      dup1\n      swap2\n      sub\n      swap1\n      revert\n        /* \"@openzeppelin/contracts-upgradeable/access/OwnableUpgradeable.sol\":3485:3576  if (newOwner == address(0)) {... */\n    tag_311:\n        /* \"@openzeppelin/contracts-upgradeable/access/OwnableUpgradeable.sol\":3585:3613  _transferOwnership(newOwner) */\n      tag_313\n        /* \"@openzeppelin/contracts-upgradeable/access/OwnableUpgradeable.sol\":3604:3612  newOwner */\n      dup2\n        /* \"@openzeppelin/contracts-upgradeable/access/OwnableUpgradeable.sol\":3585:3603  _transferOwnership */\n      tag_233\n        /* \"@openzeppelin/contracts-upgradeable/access/OwnableUpgradeable.sol\":3585:3613  _transferOwnership(newOwner) */\n      jump\t// in\n    tag_313:\n        /* \"@openzeppelin/contracts-upgradeable/access/OwnableUpgradeable.sol\":3405:3620  function transferOwnership(address newOwner) public virtual onlyOwner {... */\n      pop\n      jump\t// out\n        /* \"RVA/UpgradableToken.sol\":2114:2225  function isBlacklisted(address account) public view returns (bool) {... */\n    tag_159:\n        /* \"RVA/UpgradableToken.sol\":2175:2179  bool */\n      0x00\n        /* \"RVA/UpgradableToken.sol\":2198:2209  blacklisted */\n      0x35\n        /* \"RVA/UpgradableToken.sol\":2198:2218  blacklisted[account] */\n      0x00\n        /* \"RVA/UpgradableToken.sol\":2210:2217  account */\n      dup4\n        /* \"RVA/UpgradableToken.sol\":2198:2218  blacklisted[account] */\n      0xffffffffffffffffffffffffffffffffffffffff\n      and\n      0xffffffffffffffffffffffffffffffffffffffff\n      and\n      dup2\n      mstore\n      0x20\n      add\n      swap1\n      dup2\n      mstore\n      0x20\n      add\n      0x00\n      keccak256\n      0x00\n      swap1\n      sload\n      swap1\n      0x0100\n      exp\n      swap1\n      div\n      0xff\n      and\n        /* \"RVA/UpgradableToken.sol\":2191:2218  return blacklisted[account] */\n      swap1\n      pop\n        /* \"RVA/UpgradableToken.sol\":2114:2225  function isBlacklisted(address account) public view returns (bool) {... */\n      swap2\n      swap1\n      pop\n      jump\t// out\n        /* \"@openzeppelin/contracts-upgradeable/token/ERC20/ERC20Upgradeable.sol\":1947:2100  function _getERC20Storage() private pure returns (ERC20Storage storage $) {... */\n    tag_163:\n        /* \"@openzeppelin/contracts-upgradeable/token/ERC20/ERC20Upgradeable.sol\":1997:2019  ERC20Storage storage $ */\n      0x00\n        /* \"@openzeppelin/contracts-upgradeable/token/ERC20/ERC20Upgradeable.sol\":2064:2084  ERC20StorageLocation */\n      0x52c63247e1f47db19d5ce0460030c497f067ca4cebf71ba98eeadabe20bace00\n        /* \"@openzeppelin/contracts-upgradeable/token/ERC20/ERC20Upgradeable.sol\":2054:2084  $.slot := ERC20StorageLocation */\n      swap1\n      pop\n        /* \"@openzeppelin/contracts-upgradeable/token/ERC20/ERC20Upgradeable.sol\":1947:2100  function _getERC20Storage() private pure returns (ERC20Storage storage $) {... */\n      swap1\n      jump\t// out\n        /* \"@openzeppelin/contracts-upgradeable/utils/ContextUpgradeable.sol\":887:983  function _msgSender() internal view virtual returns (address) {... */\n    tag_172:\n        /* \"@openzeppelin/contracts-upgradeable/utils/ContextUpgradeable.sol\":940:947  address */\n      0x00\n        /* \"@openzeppelin/contracts-upgradeable/utils/ContextUpgradeable.sol\":966:976  msg.sender */\n      caller\n        /* \"@openzeppelin/contracts-upgradeable/utils/ContextUpgradeable.sol\":959:976  return msg.sender */\n      swap1\n      pop\n        /* \"@openzeppelin/contracts-upgradeable/utils/ContextUpgradeable.sol\":887:983  function _msgSender() internal view virtual returns (address) {... */\n      swap1\n      jump\t// out\n        /* \"@openzeppelin/contracts-upgradeable/token/ERC20/ERC20Upgradeable.sol\":10001:10129  function _approve(address owner, address spender, uint256 value) internal {... */\n    tag_174:\n        /* \"@openzeppelin/contracts-upgradeable/token/ERC20/ERC20Upgradeable.sol\":10085:10122  _approve(owner, spender, value, true) */\n      tag_318\n        /* \"@openzeppelin/contracts-upgradeable/token/ERC20/ERC20Upgradeable.sol\":10094:10099  owner */\n      dup4\n        /* \"@openzeppelin/contracts-upgradeable/token/ERC20/ERC20Upgradeable.sol\":10101:10108  spender */\n      dup4\n        /* \"@openzeppelin/contracts-upgradeable/token/ERC20/ERC20Upgradeable.sol\":10110:10115  value */\n      dup4\n        /* \"@openzeppelin/contracts-upgradeable/token/ERC20/ERC20Upgradeable.sol\":10117:10121  true */\n      0x01\n        /* \"@openzeppelin/contracts-upgradeable/token/ERC20/ERC20Upgradeable.sol\":10085:10093  _approve */\n      tag_319\n        /* \"@openzeppelin/contracts-upgradeable/token/ERC20/ERC20Upgradeable.sol\":10085:10122  _approve(owner, spender, value, true) */\n      jump\t// in\n    tag_318:\n        /* \"@openzeppelin/contracts-upgradeable/token/ERC20/ERC20Upgradeable.sol\":10001:10129  function _approve(address owner, address spender, uint256 value) internal {... */\n      pop\n      pop\n      pop\n      jump\t// out\n        /* \"@openzeppelin/contracts-upgradeable/access/OwnableUpgradeable.sol\":2658:2820  function _checkOwner() internal view virtual {... */\n    tag_177:\n        /* \"@openzeppelin/contracts-upgradeable/access/OwnableUpgradeable.sol\":2728:2740  _msgSender() */\n      tag_321\n        /* \"@openzeppelin/contracts-upgradeable/access/OwnableUpgradeable.sol\":2728:2738  _msgSender */\n      tag_172\n        /* \"@openzeppelin/contracts-upgradeable/access/OwnableUpgradeable.sol\":2728:2740  _msgSender() */\n      jump\t// in\n    tag_321:\n        /* \"@openzeppelin/contracts-upgradeable/access/OwnableUpgradeable.sol\":2717:2740  owner() != _msgSender() */\n      0xffffffffffffffffffffffffffffffffffffffff\n      and\n        /* \"@openzeppelin/contracts-upgradeable/access/OwnableUpgradeable.sol\":2717:2724  owner() */\n      tag_322\n        /* \"@openzeppelin/contracts-upgradeable/access/OwnableUpgradeable.sol\":2717:2722  owner */\n      tag_111\n        /* \"@openzeppelin/contracts-upgradeable/access/OwnableUpgradeable.sol\":2717:2724  owner() */\n      jump\t// in\n    tag_322:\n        /* \"@openzeppelin/contracts-upgradeable/access/OwnableUpgradeable.sol\":2717:2740  owner() != _msgSender() */\n      0xffffffffffffffffffffffffffffffffffffffff\n      and\n      eq\n        /* \"@openzeppelin/contracts-upgradeable/access/OwnableUpgradeable.sol\":2713:2814  if (owner() != _msgSender()) {... */\n      tag_323\n      jumpi\n        /* \"@openzeppelin/contracts-upgradeable/access/OwnableUpgradeable.sol\":2790:2802  _msgSender() */\n      tag_324\n        /* \"@openzeppelin/contracts-upgradeable/access/OwnableUpgradeable.sol\":2790:2800  _msgSender */\n      tag_172\n        /* \"@openzeppelin/contracts-upgradeable/access/OwnableUpgradeable.sol\":2790:2802  _msgSender() */\n      jump\t// in\n    tag_324:\n        /* \"@openzeppelin/contracts-upgradeable/access/OwnableUpgradeable.sol\":2763:2803  OwnableUnauthorizedAccount(_msgSender()) */\n      mload(0x40)\n      0x118cdaa700000000000000000000000000000000000000000000000000000000\n      dup2\n      mstore\n      0x04\n      add\n      tag_325\n      swap2\n      swap1\n      tag_113\n      jump\t// in\n    tag_325:\n      mload(0x40)\n      dup1\n      swap2\n      sub\n      swap1\n      revert\n        /* \"@openzeppelin/contracts-upgradeable/access/OwnableUpgradeable.sol\":2713:2814  if (owner() != _msgSender()) {... */\n    tag_323:\n        /* \"@openzeppelin/contracts-upgradeable/access/OwnableUpgradeable.sol\":2658:2820  function _checkOwner() internal view virtual {... */\n      jump\t// out\n        /* \"@openzeppelin/contracts-upgradeable/security/PausableUpgradeable.sol\":2031:2137  function _requireNotPaused() internal view virtual {... */\n    tag_184:\n        /* \"@openzeppelin/contracts-upgradeable/security/PausableUpgradeable.sol\":2101:2109  paused() */\n      tag_327\n        /* \"@openzeppelin/contracts-upgradeable/security/PausableUpgradeable.sol\":2101:2107  paused */\n      tag_91\n        /* \"@openzeppelin/contracts-upgradeable/security/PausableUpgradeable.sol\":2101:2109  paused() */\n      jump\t// in\n    tag_327:\n        /* \"@openzeppelin/contracts-upgradeable/security/PausableUpgradeable.sol\":2100:2109  !paused() */\n      iszero\n        /* \"@openzeppelin/contracts-upgradeable/security/PausableUpgradeable.sol\":2092:2130  require(!paused(), \"Pausable: paused\") */\n      tag_328\n      jumpi\n      mload(0x40)\n      0x08c379a000000000000000000000000000000000000000000000000000000000\n      dup2\n      mstore\n      0x04\n      add\n      tag_329\n      swap1\n      tag_330\n      jump\t// in\n    tag_329:\n      mload(0x40)\n      dup1\n      swap2\n      sub\n      swap1\n      revert\n    tag_328:\n        /* \"@openzeppelin/contracts-upgradeable/security/PausableUpgradeable.sol\":2031:2137  function _requireNotPaused() internal view virtual {... */\n      jump\t// out\n        /* \"@openzeppelin/contracts-upgradeable/token/ERC20/ERC20Upgradeable.sol\":5988:6232  function transferFrom(address from, address to, uint256 value) public virtual returns (bool) {... */\n    tag_197:\n        /* \"@openzeppelin/contracts-upgradeable/token/ERC20/ERC20Upgradeable.sol\":6075:6079  bool */\n      0x00\n        /* \"@openzeppelin/contracts-upgradeable/token/ERC20/ERC20Upgradeable.sol\":6091:6106  address spender */\n      dup1\n        /* \"@openzeppelin/contracts-upgradeable/token/ERC20/ERC20Upgradeable.sol\":6109:6121  _msgSender() */\n      tag_332\n        /* \"@openzeppelin/contracts-upgradeable/token/ERC20/ERC20Upgradeable.sol\":6109:6119  _msgSender */\n      tag_172\n        /* \"@openzeppelin/contracts-upgradeable/token/ERC20/ERC20Upgradeable.sol\":6109:6121  _msgSender() */\n      jump\t// in\n    tag_332:\n        /* \"@openzeppelin/contracts-upgradeable/token/ERC20/ERC20Upgradeable.sol\":6091:6121  address spender = _msgSender() */\n      swap1\n      pop\n        /* \"@openzeppelin/contracts-upgradeable/token/ERC20/ERC20Upgradeable.sol\":6131:6168  _spendAllowance(from, spender, value) */\n      tag_333\n        /* \"@openzeppelin/contracts-upgradeable/token/ERC20/ERC20Upgradeable.sol\":6147:6151  from */\n      dup6\n        /* \"@openzeppelin/contracts-upgradeable/token/ERC20/ERC20Upgradeable.sol\":6153:6160  spender */\n      dup3\n        /* \"@openzeppelin/contracts-upgradeable/token/ERC20/ERC20Upgradeable.sol\":6162:6167  value */\n      dup6\n        /* \"@openzeppelin/contracts-upgradeable/token/ERC20/ERC20Upgradeable.sol\":6131:6146  _spendAllowance */\n      tag_334\n        /* \"@openzeppelin/contracts-upgradeable/token/ERC20/ERC20Upgradeable.sol\":6131:6168  _spendAllowance(from, spender, value) */\n      jump\t// in\n    tag_333:\n        /* \"@openzeppelin/contracts-upgradeable/token/ERC20/ERC20Upgradeable.sol\":6178:6204  _transfer(from, to, value) */\n      tag_335\n        /* \"@openzeppelin/contracts-upgradeable/token/ERC20/ERC20Upgradeable.sol\":6188:6192  from */\n      dup6\n        /* \"@openzeppelin/contracts-upgradeable/token/ERC20/ERC20Upgradeable.sol\":6194:6196  to */\n      dup6\n        /* \"@openzeppelin/contracts-upgradeable/token/ERC20/ERC20Upgradeable.sol\":6198:6203  value */\n      dup6\n        /* \"@openzeppelin/contracts-upgradeable/token/ERC20/ERC20Upgradeable.sol\":6178:6187  _transfer */\n      tag_261\n        /* \"@openzeppelin/contracts-upgradeable/token/ERC20/ERC20Upgradeable.sol\":6178:6204  _transfer(from, to, value) */\n      jump\t// in\n    tag_335:\n        /* \"@openzeppelin/contracts-upgradeable/token/ERC20/ERC20Upgradeable.sol\":6221:6225  true */\n      0x01\n        /* \"@openzeppelin/contracts-upgradeable/token/ERC20/ERC20Upgradeable.sol\":6214:6225  return true */\n      swap2\n      pop\n      pop\n        /* \"@openzeppelin/contracts-upgradeable/token/ERC20/ERC20Upgradeable.sol\":5988:6232  function transferFrom(address from, address to, uint256 value) public virtual returns (bool) {... */\n      swap4\n      swap3\n      pop\n      pop\n      pop\n      jump\t// out\n        /* \"@openzeppelin/contracts-upgradeable/security/PausableUpgradeable.sol\":2697:2814  function _unpause() internal virtual whenPaused {... */\n    tag_213:\n        /* \"@openzeppelin/contracts-upgradeable/security/PausableUpgradeable.sol\":1750:1766  _requirePaused() */\n      tag_337\n        /* \"@openzeppelin/contracts-upgradeable/security/PausableUpgradeable.sol\":1750:1764  _requirePaused */\n      tag_338\n        /* \"@openzeppelin/contracts-upgradeable/security/PausableUpgradeable.sol\":1750:1766  _requirePaused() */\n      jump\t// in\n    tag_337:\n        /* \"@openzeppelin/contracts-upgradeable/security/PausableUpgradeable.sol\":2765:2770  false */\n      0x00\n        /* \"@openzeppelin/contracts-upgradeable/security/PausableUpgradeable.sol\":2755:2762  _paused */\n      dup1\n      0x00\n        /* \"@openzeppelin/contracts-upgradeable/security/PausableUpgradeable.sol\":2755:2770  _paused = false */\n      0x0100\n      exp\n      dup2\n      sload\n      dup2\n      0xff\n      mul\n      not\n      and\n      swap1\n      dup4\n      iszero\n      iszero\n      mul\n      or\n      swap1\n      sstore\n      pop\n        /* \"@openzeppelin/contracts-upgradeable/security/PausableUpgradeable.sol\":2785:2807  Unpaused(_msgSender()) */\n      0x5db9ee0a495bf2e6ff9c91a7834c1ba4fdd244a5e8aa4e537bd38aeae4b073aa\n        /* \"@openzeppelin/contracts-upgradeable/security/PausableUpgradeable.sol\":2794:2806  _msgSender() */\n      tag_340\n        /* \"@openzeppelin/contracts-upgradeable/security/PausableUpgradeable.sol\":2794:2804  _msgSender */\n      tag_172\n        /* \"@openzeppelin/contracts-upgradeable/security/PausableUpgradeable.sol\":2794:2806  _msgSender() */\n      jump\t// in\n    tag_340:\n        /* \"@openzeppelin/contracts-upgradeable/security/PausableUpgradeable.sol\":2785:2807  Unpaused(_msgSender()) */\n      mload(0x40)\n      tag_341\n      swap2\n      swap1\n      tag_113\n      jump\t// in\n    tag_341:\n      mload(0x40)\n      dup1\n      swap2\n      sub\n      swap1\n      log1\n        /* \"@openzeppelin/contracts-upgradeable/security/PausableUpgradeable.sol\":2697:2814  function _unpause() internal virtual whenPaused {... */\n      jump\t// out\n        /* \"@openzeppelin/contracts-upgradeable/proxy/utils/UUPSUpgradeable.sol\":4603:4915  function _checkProxy() internal view virtual {... */\n    tag_216:\n        /* \"@openzeppelin/contracts-upgradeable/proxy/utils/UUPSUpgradeable.sol\":4692:4698  __self */\n      immutable(\"0x0b83f23a4eeb8c3f5f7d5934a2289bcf0186d09a12e1b7f20adf54e4b179db15\")\n        /* \"@openzeppelin/contracts-upgradeable/proxy/utils/UUPSUpgradeable.sol\":4675:4698  address(this) == __self */\n      0xffffffffffffffffffffffffffffffffffffffff\n      and\n        /* \"@openzeppelin/contracts-upgradeable/proxy/utils/UUPSUpgradeable.sol\":4683:4687  this */\n      address\n        /* \"@openzeppelin/contracts-upgradeable/proxy/utils/UUPSUpgradeable.sol\":4675:4698  address(this) == __self */\n      0xffffffffffffffffffffffffffffffffffffffff\n      and\n      eq\n        /* \"@openzeppelin/contracts-upgradeable/proxy/utils/UUPSUpgradeable.sol\":4675:4795  address(this) == __self || // Must be called through delegatecall... */\n      dup1\n      tag_343\n      jumpi\n      pop\n        /* \"@openzeppelin/contracts-upgradeable/proxy/utils/UUPSUpgradeable.sol\":4789:4795  __self */\n      immutable(\"0x0b83f23a4eeb8c3f5f7d5934a2289bcf0186d09a12e1b7f20adf54e4b179db15\")\n        /* \"@openzeppelin/contracts-upgradeable/proxy/utils/UUPSUpgradeable.sol\":4753:4795  ERC1967Utils.getImplementation() != __self */\n      0xffffffffffffffffffffffffffffffffffffffff\n      and\n        /* \"@openzeppelin/contracts-upgradeable/proxy/utils/UUPSUpgradeable.sol\":4753:4785  ERC1967Utils.getImplementation() */\n      tag_344\n        /* \"@openzeppelin/contracts-upgradeable/proxy/utils/UUPSUpgradeable.sol\":4753:4783  ERC1967Utils.getImplementation */\n      tag_345\n        /* \"@openzeppelin/contracts-upgradeable/proxy/utils/UUPSUpgradeable.sol\":4753:4785  ERC1967Utils.getImplementation() */\n      jump\t// in\n    tag_344:\n        /* \"@openzeppelin/contracts-upgradeable/proxy/utils/UUPSUpgradeable.sol\":4753:4795  ERC1967Utils.getImplementation() != __self */\n      0xffffffffffffffffffffffffffffffffffffffff\n      and\n      eq\n      iszero\n        /* \"@openzeppelin/contracts-upgradeable/proxy/utils/UUPSUpgradeable.sol\":4675:4795  address(this) == __self || // Must be called through delegatecall... */\n    tag_343:\n        /* \"@openzeppelin/contracts-upgradeable/proxy/utils/UUPSUpgradeable.sol\":4658:4909  if (... */\n      iszero\n      tag_346\n      jumpi\n        /* \"@openzeppelin/contracts-upgradeable/proxy/utils/UUPSUpgradeable.sol\":4869:4898  UUPSUnauthorizedCallContext() */\n      mload(0x40)\n      0xe07c8dba00000000000000000000000000000000000000000000000000000000\n      dup2\n      mstore\n      0x04\n      add\n      mload(0x40)\n      dup1\n      swap2\n      sub\n      swap1\n      revert\n        /* \"@openzeppelin/contracts-upgradeable/proxy/utils/UUPSUpgradeable.sol\":4658:4909  if (... */\n    tag_346:\n        /* \"@openzeppelin/contracts-upgradeable/proxy/utils/UUPSUpgradeable.sol\":4603:4915  function _checkProxy() internal view virtual {... */\n      jump\t// out\n        /* \"RVA/UpgradableToken.sol\":3915:3999  function _authorizeUpgrade(address newImplementation) internal override onlyOwner {} */\n    tag_219:\n        /* \"@openzeppelin/contracts-upgradeable/access/OwnableUpgradeable.sol\":2334:2347  _checkOwner() */\n      tag_348\n        /* \"@openzeppelin/contracts-upgradeable/access/OwnableUpgradeable.sol\":2334:2345  _checkOwner */\n      tag_177\n        /* \"@openzeppelin/contracts-upgradeable/access/OwnableUpgradeable.sol\":2334:2347  _checkOwner() */\n      jump\t// in\n    tag_348:\n        /* \"RVA/UpgradableToken.sol\":3915:3999  function _authorizeUpgrade(address newImplementation) internal override onlyOwner {} */\n      pop\n      jump\t// out\n        /* \"@openzeppelin/contracts-upgradeable/proxy/utils/UUPSUpgradeable.sol\":6057:6595  function _upgradeToAndCallUUPS(address newImplementation, bytes memory data) private {... */\n    tag_221:\n        /* \"@openzeppelin/contracts-upgradeable/proxy/utils/UUPSUpgradeable.sol\":6174:6191  newImplementation */\n      dup2\n        /* \"@openzeppelin/contracts-upgradeable/proxy/utils/UUPSUpgradeable.sol\":6156:6206  IERC1822Proxiable(newImplementation).proxiableUUID */\n      0xffffffffffffffffffffffffffffffffffffffff\n      and\n      0x52d1902d\n        /* \"@openzeppelin/contracts-upgradeable/proxy/utils/UUPSUpgradeable.sol\":6156:6208  IERC1822Proxiable(newImplementation).proxiableUUID() */\n      mload(0x40)\n      dup2\n      0xffffffff\n      and\n      0xe0\n      shl\n      dup2\n      mstore\n      0x04\n      add\n      0x20\n      mload(0x40)\n      dup1\n      dup4\n      sub\n      dup2\n      dup7\n      gas\n      staticcall\n      swap3\n      pop\n      pop\n      pop\n      dup1\n      iszero\n      tag_351\n      jumpi\n      pop\n      mload(0x40)\n      returndatasize\n      not(0x1f)\n      0x1f\n      dup3\n      add\n      and\n      dup3\n      add\n      dup1\n      0x40\n      mstore\n      pop\n      dup2\n      add\n      swap1\n      tag_352\n      swap2\n      swap1\n      tag_353\n      jump\t// in\n    tag_352:\n      0x01\n    tag_351:\n        /* \"@openzeppelin/contracts-upgradeable/proxy/utils/UUPSUpgradeable.sol\":6152:6589  try IERC1822Proxiable(newImplementation).proxiableUUID() returns (bytes32 slot) {... */\n      tag_354\n      jumpi\n        /* \"@openzeppelin/contracts-upgradeable/proxy/utils/UUPSUpgradeable.sol\":6560:6577  newImplementation */\n      dup2\n        /* \"@openzeppelin/contracts-upgradeable/proxy/utils/UUPSUpgradeable.sol\":6518:6578  ERC1967Utils.ERC1967InvalidImplementation(newImplementation) */\n      mload(0x40)\n      0x4c9c8ce300000000000000000000000000000000000000000000000000000000\n      dup2\n      mstore\n      0x04\n      add\n      tag_358\n      swap2\n      swap1\n      tag_113\n      jump\t// in\n    tag_358:\n      mload(0x40)\n      dup1\n      swap2\n      sub\n      swap1\n      revert\n        /* \"@openzeppelin/contracts-upgradeable/proxy/utils/UUPSUpgradeable.sol\":6152:6589  try IERC1822Proxiable(newImplementation).proxiableUUID() returns (bytes32 slot) {... */\n    tag_354:\n        /* \"@openzeppelin/contracts/proxy/ERC1967/ERC1967Utils.sol\":811:877  0x360894a13ba1a3210667c828492db98dca3e2076cc3735a920a3ca505d382bbc */\n      0x360894a13ba1a3210667c828492db98dca3e2076cc3735a920a3ca505d382bbc\n        /* \"@openzeppelin/contracts-upgradeable/proxy/utils/UUPSUpgradeable.sol\":6258:6290  ERC1967Utils.IMPLEMENTATION_SLOT */\n      0x00\n      shl\n        /* \"@openzeppelin/contracts-upgradeable/proxy/utils/UUPSUpgradeable.sol\":6250:6254  slot */\n      dup2\n        /* \"@openzeppelin/contracts-upgradeable/proxy/utils/UUPSUpgradeable.sol\":6250:6290  slot != ERC1967Utils.IMPLEMENTATION_SLOT */\n      eq\n        /* \"@openzeppelin/contracts-upgradeable/proxy/utils/UUPSUpgradeable.sol\":6246:6366  if (slot != ERC1967Utils.IMPLEMENTATION_SLOT) {... */\n      tag_360\n      jumpi\n        /* \"@openzeppelin/contracts-upgradeable/proxy/utils/UUPSUpgradeable.sol\":6346:6350  slot */\n      dup1\n        /* \"@openzeppelin/contracts-upgradeable/proxy/utils/UUPSUpgradeable.sol\":6317:6351  UUPSUnsupportedProxiableUUID(slot) */\n      mload(0x40)\n      0xaa1d49a400000000000000000000000000000000000000000000000000000000\n      dup2\n      mstore\n      0x04\n      add\n      tag_361\n      swap2\n      swap1\n      tag_88\n      jump\t// in\n    tag_361:\n      mload(0x40)\n      dup1\n      swap2\n      sub\n      swap1\n      revert\n        /* \"@openzeppelin/contracts-upgradeable/proxy/utils/UUPSUpgradeable.sol\":6246:6366  if (slot != ERC1967Utils.IMPLEMENTATION_SLOT) {... */\n    tag_360:\n        /* \"@openzeppelin/contracts-upgradeable/proxy/utils/UUPSUpgradeable.sol\":6379:6433  ERC1967Utils.upgradeToAndCall(newImplementation, data) */\n      tag_362\n        /* \"@openzeppelin/contracts-upgradeable/proxy/utils/UUPSUpgradeable.sol\":6409:6426  newImplementation */\n      dup4\n        /* \"@openzeppelin/contracts-upgradeable/proxy/utils/UUPSUpgradeable.sol\":6428:6432  data */\n      dup4\n        /* \"@openzeppelin/contracts-upgradeable/proxy/utils/UUPSUpgradeable.sol\":6379:6408  ERC1967Utils.upgradeToAndCall */\n      tag_363\n        /* \"@openzeppelin/contracts-upgradeable/proxy/utils/UUPSUpgradeable.sol\":6379:6433  ERC1967Utils.upgradeToAndCall(newImplementation, data) */\n      jump\t// in\n    tag_362:\n        /* \"@openzeppelin/contracts-upgradeable/proxy/utils/UUPSUpgradeable.sol\":6209:6444  returns (bytes32 slot) {... */\n      pop\n        /* \"@openzeppelin/contracts-upgradeable/proxy/utils/UUPSUpgradeable.sol\":6057:6595  function _upgradeToAndCallUUPS(address newImplementation, bytes memory data) private {... */\n      pop\n      pop\n      jump\t// out\n        /* \"@openzeppelin/contracts-upgradeable/proxy/utils/UUPSUpgradeable.sol\":5032:5245  function _checkNotDelegated() internal view virtual {... */\n    tag_224:\n        /* \"@openzeppelin/contracts-upgradeable/proxy/utils/UUPSUpgradeable.sol\":5115:5121  __self */\n      immutable(\"0x0b83f23a4eeb8c3f5f7d5934a2289bcf0186d09a12e1b7f20adf54e4b179db15\")\n        /* \"@openzeppelin/contracts-upgradeable/proxy/utils/UUPSUpgradeable.sol\":5098:5121  address(this) != __self */\n      0xffffffffffffffffffffffffffffffffffffffff\n      and\n        /* \"@openzeppelin/contracts-upgradeable/proxy/utils/UUPSUpgradeable.sol\":5106:5110  this */\n      address\n        /* \"@openzeppelin/contracts-upgradeable/proxy/utils/UUPSUpgradeable.sol\":5098:5121  address(this) != __self */\n      0xffffffffffffffffffffffffffffffffffffffff\n      and\n      eq\n        /* \"@openzeppelin/contracts-upgradeable/proxy/utils/UUPSUpgradeable.sol\":5094:5239  if (address(this) != __self) {... */\n      tag_365\n      jumpi\n        /* \"@openzeppelin/contracts-upgradeable/proxy/utils/UUPSUpgradeable.sol\":5199:5228  UUPSUnauthorizedCallContext() */\n      mload(0x40)\n      0xe07c8dba00000000000000000000000000000000000000000000000000000000\n      dup2\n      mstore\n      0x04\n      add\n      mload(0x40)\n      dup1\n      swap2\n      sub\n      swap1\n      revert\n        /* \"@openzeppelin/contracts-upgradeable/proxy/utils/UUPSUpgradeable.sol\":5094:5239  if (address(this) != __self) {... */\n    tag_365:\n        /* \"@openzeppelin/contracts-upgradeable/proxy/utils/UUPSUpgradeable.sol\":5032:5245  function _checkNotDelegated() internal view virtual {... */\n      jump\t// out\n        /* \"@openzeppelin/contracts-upgradeable/access/OwnableUpgradeable.sol\":3774:4022  function _transferOwnership(address newOwner) internal virtual {... */\n    tag_233:\n        /* \"@openzeppelin/contracts-upgradeable/access/OwnableUpgradeable.sol\":3847:3871  OwnableStorage storage $ */\n      0x00\n        /* \"@openzeppelin/contracts-upgradeable/access/OwnableUpgradeable.sol\":3874:3894  _getOwnableStorage() */\n      tag_367\n        /* \"@openzeppelin/contracts-upgradeable/access/OwnableUpgradeable.sol\":3874:3892  _getOwnableStorage */\n      tag_264\n        /* \"@openzeppelin/contracts-upgradeable/access/OwnableUpgradeable.sol\":3874:3894  _getOwnableStorage() */\n      jump\t// in\n    tag_367:\n        /* \"@openzeppelin/contracts-upgradeable/access/OwnableUpgradeable.sol\":3847:3894  OwnableStorage storage $ = _getOwnableStorage() */\n      swap1\n      pop\n        /* \"@openzeppelin/contracts-upgradeable/access/OwnableUpgradeable.sol\":3904:3920  address oldOwner */\n      0x00\n        /* \"@openzeppelin/contracts-upgradeable/access/OwnableUpgradeable.sol\":3923:3924  $ */\n      dup2\n        /* \"@openzeppelin/contracts-upgradeable/access/OwnableUpgradeable.sol\":3923:3931  $._owner */\n      0x00\n      add\n      0x00\n      swap1\n      sload\n      swap1\n      0x0100\n      exp\n      swap1\n      div\n      0xffffffffffffffffffffffffffffffffffffffff\n      and\n        /* \"@openzeppelin/contracts-upgradeable/access/OwnableUpgradeable.sol\":3904:3931  address oldOwner = $._owner */\n      swap1\n      pop\n        /* \"@openzeppelin/contracts-upgradeable/access/OwnableUpgradeable.sol\":3952:3960  newOwner */\n      dup3\n        /* \"@openzeppelin/contracts-upgradeable/access/OwnableUpgradeable.sol\":3941:3942  $ */\n      dup3\n        /* \"@openzeppelin/contracts-upgradeable/access/OwnableUpgradeable.sol\":3941:3949  $._owner */\n      0x00\n      add\n      0x00\n        /* \"@openzeppelin/contracts-upgradeable/access/OwnableUpgradeable.sol\":3941:3960  $._owner = newOwner */\n      0x0100\n      exp\n      dup2\n      sload\n      dup2\n      0xffffffffffffffffffffffffffffffffffffffff\n      mul\n      not\n      and\n      swap1\n      dup4\n      0xffffffffffffffffffffffffffffffffffffffff\n      and\n      mul\n      or\n      swap1\n      sstore\n      pop\n        /* \"@openzeppelin/contracts-upgradeable/access/OwnableUpgradeable.sol\":4006:4014  newOwner */\n      dup3\n        /* \"@openzeppelin/contracts-upgradeable/access/OwnableUpgradeable.sol\":3975:4015  OwnershipTransferred(oldOwner, newOwner) */\n      0xffffffffffffffffffffffffffffffffffffffff\n      and\n        /* \"@openzeppelin/contracts-upgradeable/access/OwnableUpgradeable.sol\":3996:4004  oldOwner */\n      dup2\n        /* \"@openzeppelin/contracts-upgradeable/access/OwnableUpgradeable.sol\":3975:4015  OwnershipTransferred(oldOwner, newOwner) */\n      0xffffffffffffffffffffffffffffffffffffffff\n      and\n      0x8be0079c531659141344cd1fd0a4f28419497f9722a3daafe3b4186f6b6457e0\n      mload(0x40)\n      mload(0x40)\n      dup1\n      swap2\n      sub\n      swap1\n      log3\n        /* \"@openzeppelin/contracts-upgradeable/access/OwnableUpgradeable.sol\":3837:4022  {... */\n      pop\n      pop\n        /* \"@openzeppelin/contracts-upgradeable/access/OwnableUpgradeable.sol\":3774:4022  function _transferOwnership(address newOwner) internal virtual {... */\n      pop\n      jump\t// out\n        /* \"@openzeppelin/contracts-upgradeable/security/PausableUpgradeable.sol\":2450:2565  function _pause() internal virtual whenNotPaused {... */\n    tag_238:\n        /* \"@openzeppelin/contracts-upgradeable/security/PausableUpgradeable.sol\":1503:1522  _requireNotPaused() */\n      tag_369\n        /* \"@openzeppelin/contracts-upgradeable/security/PausableUpgradeable.sol\":1503:1520  _requireNotPaused */\n      tag_184\n        /* \"@openzeppelin/contracts-upgradeable/security/PausableUpgradeable.sol\":1503:1522  _requireNotPaused() */\n      jump\t// in\n    tag_369:\n        /* \"@openzeppelin/contracts-upgradeable/security/PausableUpgradeable.sol\":2519:2523  true */\n      0x01\n        /* \"@openzeppelin/contracts-upgradeable/security/PausableUpgradeable.sol\":2509:2516  _paused */\n      0x00\n      dup1\n        /* \"@openzeppelin/contracts-upgradeable/security/PausableUpgradeable.sol\":2509:2523  _paused = true */\n      0x0100\n      exp\n      dup2\n      sload\n      dup2\n      0xff\n      mul\n      not\n      and\n      swap1\n      dup4\n      iszero\n      iszero\n      mul\n      or\n      swap1\n      sstore\n      pop\n        /* \"@openzeppelin/contracts-upgradeable/security/PausableUpgradeable.sol\":2538:2558  Paused(_msgSender()) */\n      0x62e78cea01bee320cd4e420270b5ea74000d11b0c9f74754ebdbfc544b05a258\n        /* \"@openzeppelin/contracts-upgradeable/security/PausableUpgradeable.sol\":2545:2557  _msgSender() */\n      tag_371\n        /* \"@openzeppelin/contracts-upgradeable/security/PausableUpgradeable.sol\":2545:2555  _msgSender */\n      tag_172\n        /* \"@openzeppelin/contracts-upgradeable/security/PausableUpgradeable.sol\":2545:2557  _msgSender() */\n      jump\t// in\n    tag_371:\n        /* \"@openzeppelin/contracts-upgradeable/security/PausableUpgradeable.sol\":2538:2558  Paused(_msgSender()) */\n      mload(0x40)\n      tag_372\n      swap2\n      swap1\n      tag_113\n      jump\t// in\n    tag_372:\n      mload(0x40)\n      dup1\n      swap2\n      sub\n      swap1\n      log1\n        /* \"@openzeppelin/contracts-upgradeable/security/PausableUpgradeable.sol\":2450:2565  function _pause() internal virtual whenNotPaused {... */\n      jump\t// out\n        /* \"@openzeppelin/contracts-upgradeable/token/ERC20/ERC20Upgradeable.sol\":6605:6905  function _transfer(address from, address to, uint256 value) internal {... */\n    tag_261:\n        /* \"@openzeppelin/contracts-upgradeable/token/ERC20/ERC20Upgradeable.sol\":6704:6705  0 */\n      0x00\n        /* \"@openzeppelin/contracts-upgradeable/token/ERC20/ERC20Upgradeable.sol\":6688:6706  from == address(0) */\n      0xffffffffffffffffffffffffffffffffffffffff\n      and\n        /* \"@openzeppelin/contracts-upgradeable/token/ERC20/ERC20Upgradeable.sol\":6688:6692  from */\n      dup4\n        /* \"@openzeppelin/contracts-upgradeable/token/ERC20/ERC20Upgradeable.sol\":6688:6706  from == address(0) */\n      0xffffffffffffffffffffffffffffffffffffffff\n      and\n      sub\n        /* \"@openzeppelin/contracts-upgradeable/token/ERC20/ERC20Upgradeable.sol\":6684:6770  if (from == address(0)) {... */\n      tag_374\n      jumpi\n        /* \"@openzeppelin/contracts-upgradeable/token/ERC20/ERC20Upgradeable.sol\":6756:6757  0 */\n      0x00\n        /* \"@openzeppelin/contracts-upgradeable/token/ERC20/ERC20Upgradeable.sol\":6729:6759  ERC20InvalidSender(address(0)) */\n      mload(0x40)\n      0x96c6fd1e00000000000000000000000000000000000000000000000000000000\n      dup2\n      mstore\n      0x04\n      add\n      tag_375\n      swap2\n      swap1\n      tag_113\n      jump\t// in\n    tag_375:\n      mload(0x40)\n      dup1\n      swap2\n      sub\n      swap1\n      revert\n        /* \"@openzeppelin/contracts-upgradeable/token/ERC20/ERC20Upgradeable.sol\":6684:6770  if (from == address(0)) {... */\n    tag_374:\n        /* \"@openzeppelin/contracts-upgradeable/token/ERC20/ERC20Upgradeable.sol\":6797:6798  0 */\n      0x00\n        /* \"@openzeppelin/contracts-upgradeable/token/ERC20/ERC20Upgradeable.sol\":6783:6799  to == address(0) */\n      0xffffffffffffffffffffffffffffffffffffffff\n      and\n        /* \"@openzeppelin/contracts-upgradeable/token/ERC20/ERC20Upgradeable.sol\":6783:6785  to */\n      dup3\n        /* \"@openzeppelin/contracts-upgradeable/token/ERC20/ERC20Upgradeable.sol\":6783:6799  to == address(0) */\n      0xffffffffffffffffffffffffffffffffffffffff\n      and\n      sub\n        /* \"@openzeppelin/contracts-upgradeable/token/ERC20/ERC20Upgradeable.sol\":6779:6865  if (to == address(0)) {... */\n      tag_376\n      jumpi\n        /* \"@openzeppelin/contracts-upgradeable/token/ERC20/ERC20Upgradeable.sol\":6851:6852  0 */\n      0x00\n        /* \"@openzeppelin/contracts-upgradeable/token/ERC20/ERC20Upgradeable.sol\":6822:6854  ERC20InvalidReceiver(address(0)) */\n      mload(0x40)\n      0xec442f0500000000000000000000000000000000000000000000000000000000\n      dup2\n      mstore\n      0x04\n      add\n      tag_377\n      swap2\n      swap1\n      tag_113\n      jump\t// in\n    tag_377:\n      mload(0x40)\n      dup1\n      swap2\n      sub\n      swap1\n      revert\n        /* \"@openzeppelin/contracts-upgradeable/token/ERC20/ERC20Upgradeable.sol\":6779:6865  if (to == address(0)) {... */\n    tag_376:\n        /* \"@openzeppelin/contracts-upgradeable/token/ERC20/ERC20Upgradeable.sol\":6874:6898  _update(from, to, value) */\n      tag_378\n        /* \"@openzeppelin/contracts-upgradeable/token/ERC20/ERC20Upgradeable.sol\":6882:6886  from */\n      dup4\n        /* \"@openzeppelin/contracts-upgradeable/token/ERC20/ERC20Upgradeable.sol\":6888:6890  to */\n      dup4\n        /* \"@openzeppelin/contracts-upgradeable/token/ERC20/ERC20Upgradeable.sol\":6892:6897  value */\n      dup4\n        /* \"@openzeppelin/contracts-upgradeable/token/ERC20/ERC20Upgradeable.sol\":6874:6881  _update */\n      tag_379\n        /* \"@openzeppelin/contracts-upgradeable/token/ERC20/ERC20Upgradeable.sol\":6874:6898  _update(from, to, value) */\n      jump\t// in\n    tag_378:\n        /* \"@openzeppelin/contracts-upgradeable/token/ERC20/ERC20Upgradeable.sol\":6605:6905  function _transfer(address from, address to, uint256 value) internal {... */\n      pop\n      pop\n      pop\n      jump\t// out\n        /* \"@openzeppelin/contracts-upgradeable/access/OwnableUpgradeable.sol\":1192:1351  function _getOwnableStorage() private pure returns (OwnableStorage storage $) {... */\n    tag_264:\n        /* \"@openzeppelin/contracts-upgradeable/access/OwnableUpgradeable.sol\":1244:1268  OwnableStorage storage $ */\n      0x00\n        /* \"@openzeppelin/contracts-upgradeable/access/OwnableUpgradeable.sol\":1313:1335  OwnableStorageLocation */\n      0x9016d09d72d40fdae2fd8ceac6b6234c7706214fd39c1cd1e609a0528c199300\n        /* \"@openzeppelin/contracts-upgradeable/access/OwnableUpgradeable.sol\":1303:1335  $.slot := OwnableStorageLocation */\n      swap1\n      pop\n        /* \"@openzeppelin/contracts-upgradeable/access/OwnableUpgradeable.sol\":1192:1351  function _getOwnableStorage() private pure returns (OwnableStorage storage $) {... */\n      swap1\n      jump\t// out\n        /* \"@openzeppelin/contracts-upgradeable/token/ERC20/ERC20Upgradeable.sol\":4472:4650  function transfer(address to, uint256 value) public virtual returns (bool) {... */\n    tag_283:\n        /* \"@openzeppelin/contracts-upgradeable/token/ERC20/ERC20Upgradeable.sol\":4541:4545  bool */\n      0x00\n        /* \"@openzeppelin/contracts-upgradeable/token/ERC20/ERC20Upgradeable.sol\":4557:4570  address owner */\n      dup1\n        /* \"@openzeppelin/contracts-upgradeable/token/ERC20/ERC20Upgradeable.sol\":4573:4585  _msgSender() */\n      tag_382\n        /* \"@openzeppelin/contracts-upgradeable/token/ERC20/ERC20Upgradeable.sol\":4573:4583  _msgSender */\n      tag_172\n        /* \"@openzeppelin/contracts-upgradeable/token/ERC20/ERC20Upgradeable.sol\":4573:4585  _msgSender() */\n      jump\t// in\n    tag_382:\n        /* \"@openzeppelin/contracts-upgradeable/token/ERC20/ERC20Upgradeable.sol\":4557:4585  address owner = _msgSender() */\n      swap1\n      pop\n        /* \"@openzeppelin/contracts-upgradeable/token/ERC20/ERC20Upgradeable.sol\":4595:4622  _transfer(owner, to, value) */\n      tag_383\n        /* \"@openzeppelin/contracts-upgradeable/token/ERC20/ERC20Upgradeable.sol\":4605:4610  owner */\n      dup2\n        /* \"@openzeppelin/contracts-upgradeable/token/ERC20/ERC20Upgradeable.sol\":4612:4614  to */\n      dup6\n        /* \"@openzeppelin/contracts-upgradeable/token/ERC20/ERC20Upgradeable.sol\":4616:4621  value */\n      dup6\n        /* \"@openzeppelin/contracts-upgradeable/token/ERC20/ERC20Upgradeable.sol\":4595:4604  _transfer */\n      tag_261\n        /* \"@openzeppelin/contracts-upgradeable/token/ERC20/ERC20Upgradeable.sol\":4595:4622  _transfer(owner, to, value) */\n      jump\t// in\n    tag_383:\n        /* \"@openzeppelin/contracts-upgradeable/token/ERC20/ERC20Upgradeable.sol\":4639:4643  true */\n      0x01\n        /* \"@openzeppelin/contracts-upgradeable/token/ERC20/ERC20Upgradeable.sol\":4632:4643  return true */\n      swap2\n      pop\n      pop\n        /* \"@openzeppelin/contracts-upgradeable/token/ERC20/ERC20Upgradeable.sol\":4472:4650  function transfer(address to, uint256 value) public virtual returns (bool) {... */\n      swap3\n      swap2\n      pop\n      pop\n      jump\t// out\n        /* \"@openzeppelin/contracts-upgradeable/proxy/utils/Initializable.sol\":8737:8907  function _getInitializableStorage() private pure returns (InitializableStorage storage $) {... */\n    tag_286:\n        /* \"@openzeppelin/contracts-upgradeable/proxy/utils/Initializable.sol\":8795:8825  InitializableStorage storage $ */\n      0x00\n        /* \"@openzeppelin/contracts-upgradeable/proxy/utils/Initializable.sol\":8870:8891  INITIALIZABLE_STORAGE */\n      0xf0c57e16840df040f15088dc2f81fe391c3923bec73e23a9662efc9c229c6a00\n        /* \"@openzeppelin/contracts-upgradeable/proxy/utils/Initializable.sol\":8860:8891  $.slot := INITIALIZABLE_STORAGE */\n      swap1\n      pop\n        /* \"@openzeppelin/contracts-upgradeable/proxy/utils/Initializable.sol\":8737:8907  function _getInitializableStorage() private pure returns (InitializableStorage storage $) {... */\n      swap1\n      jump\t// out\n        /* \"@openzeppelin/contracts-upgradeable/token/ERC20/ERC20Upgradeable.sol\":2282:2429  function __ERC20_init(string memory name_, string memory symbol_) internal onlyInitializing {... */\n    tag_294:\n        /* \"@openzeppelin/contracts-upgradeable/proxy/utils/Initializable.sol\":6931:6951  _checkInitializing() */\n      tag_386\n        /* \"@openzeppelin/contracts-upgradeable/proxy/utils/Initializable.sol\":6931:6949  _checkInitializing */\n      tag_387\n        /* \"@openzeppelin/contracts-upgradeable/proxy/utils/Initializable.sol\":6931:6951  _checkInitializing() */\n      jump\t// in\n    tag_386:\n        /* \"@openzeppelin/contracts-upgradeable/token/ERC20/ERC20Upgradeable.sol\":2384:2422  __ERC20_init_unchained(name_, symbol_) */\n      tag_389\n        /* \"@openzeppelin/contracts-upgradeable/token/ERC20/ERC20Upgradeable.sol\":2407:2412  name_ */\n      dup3\n        /* \"@openzeppelin/contracts-upgradeable/token/ERC20/ERC20Upgradeable.sol\":2414:2421  symbol_ */\n      dup3\n        /* \"@openzeppelin/contracts-upgradeable/token/ERC20/ERC20Upgradeable.sol\":2384:2406  __ERC20_init_unchained */\n      tag_390\n        /* \"@openzeppelin/contracts-upgradeable/token/ERC20/ERC20Upgradeable.sol\":2384:2422  __ERC20_init_unchained(name_, symbol_) */\n      jump\t// in\n    tag_389:\n        /* \"@openzeppelin/contracts-upgradeable/token/ERC20/ERC20Upgradeable.sol\":2282:2429  function __ERC20_init(string memory name_, string memory symbol_) internal onlyInitializing {... */\n      pop\n      pop\n      jump\t// out\n        /* \"@openzeppelin/contracts-upgradeable/access/OwnableUpgradeable.sol\":1847:1974  function __Ownable_init(address initialOwner) internal onlyInitializing {... */\n    tag_296:\n        /* \"@openzeppelin/contracts-upgradeable/proxy/utils/Initializable.sol\":6931:6951  _checkInitializing() */\n      tag_392\n        /* \"@openzeppelin/contracts-upgradeable/proxy/utils/Initializable.sol\":6931:6949  _checkInitializing */\n      tag_387\n        /* \"@openzeppelin/contracts-upgradeable/proxy/utils/Initializable.sol\":6931:6951  _checkInitializing() */\n      jump\t// in\n    tag_392:\n        /* \"@openzeppelin/contracts-upgradeable/access/OwnableUpgradeable.sol\":1929:1967  __Ownable_init_unchained(initialOwner) */\n      tag_394\n        /* \"@openzeppelin/contracts-upgradeable/access/OwnableUpgradeable.sol\":1954:1966  initialOwner */\n      dup2\n        /* \"@openzeppelin/contracts-upgradeable/access/OwnableUpgradeable.sol\":1929:1953  __Ownable_init_unchained */\n      tag_395\n        /* \"@openzeppelin/contracts-upgradeable/access/OwnableUpgradeable.sol\":1929:1967  __Ownable_init_unchained(initialOwner) */\n      jump\t// in\n    tag_394:\n        /* \"@openzeppelin/contracts-upgradeable/access/OwnableUpgradeable.sol\":1847:1974  function __Ownable_init(address initialOwner) internal onlyInitializing {... */\n      pop\n      jump\t// out\n        /* \"@openzeppelin/contracts-upgradeable/security/PausableUpgradeable.sol\":1084:1181  function __Pausable_init() internal onlyInitializing {... */\n    tag_298:\n        /* \"@openzeppelin/contracts-upgradeable/proxy/utils/Initializable.sol\":6931:6951  _checkInitializing() */\n      tag_397\n        /* \"@openzeppelin/contracts-upgradeable/proxy/utils/Initializable.sol\":6931:6949  _checkInitializing */\n      tag_387\n        /* \"@openzeppelin/contracts-upgradeable/proxy/utils/Initializable.sol\":6931:6951  _checkInitializing() */\n      jump\t// in\n    tag_397:\n        /* \"@openzeppelin/contracts-upgradeable/security/PausableUpgradeable.sol\":1147:1174  __Pausable_init_unchained() */\n      tag_399\n        /* \"@openzeppelin/contracts-upgradeable/security/PausableUpgradeable.sol\":1147:1172  __Pausable_init_unchained */\n      tag_400\n        /* \"@openzeppelin/contracts-upgradeable/security/PausableUpgradeable.sol\":1147:1174  __Pausable_init_unchained() */\n      jump\t// in\n    tag_399:\n        /* \"@openzeppelin/contracts-upgradeable/security/PausableUpgradeable.sol\":1084:1181  function __Pausable_init() internal onlyInitializing {... */\n      jump\t// out\n        /* \"@openzeppelin/contracts-upgradeable/proxy/utils/UUPSUpgradeable.sol\":2970:3037  function __UUPSUpgradeable_init() internal onlyInitializing {... */\n    tag_300:\n        /* \"@openzeppelin/contracts-upgradeable/proxy/utils/Initializable.sol\":6931:6951  _checkInitializing() */\n      tag_402\n        /* \"@openzeppelin/contracts-upgradeable/proxy/utils/Initializable.sol\":6931:6949  _checkInitializing */\n      tag_387\n        /* \"@openzeppelin/contracts-upgradeable/proxy/utils/Initializable.sol\":6931:6951  _checkInitializing() */\n      jump\t// in\n    tag_402:\n        /* \"@openzeppelin/contracts-upgradeable/proxy/utils/UUPSUpgradeable.sol\":2970:3037  function __UUPSUpgradeable_init() internal onlyInitializing {... */\n      jump\t// out\n        /* \"@openzeppelin/contracts-upgradeable/token/ERC20/ERC20Upgradeable.sol\":8733:8941  function _mint(address account, uint256 value) internal {... */\n    tag_302:\n        /* \"@openzeppelin/contracts-upgradeable/token/ERC20/ERC20Upgradeable.sol\":8822:8823  0 */\n      0x00\n        /* \"@openzeppelin/contracts-upgradeable/token/ERC20/ERC20Upgradeable.sol\":8803:8824  account == address(0) */\n      0xffffffffffffffffffffffffffffffffffffffff\n      and\n        /* \"@openzeppelin/contracts-upgradeable/token/ERC20/ERC20Upgradeable.sol\":8803:8810  account */\n      dup3\n        /* \"@openzeppelin/contracts-upgradeable/token/ERC20/ERC20Upgradeable.sol\":8803:8824  account == address(0) */\n      0xffffffffffffffffffffffffffffffffffffffff\n      and\n      sub\n        /* \"@openzeppelin/contracts-upgradeable/token/ERC20/ERC20Upgradeable.sol\":8799:8890  if (account == address(0)) {... */\n      tag_405\n      jumpi\n        /* \"@openzeppelin/contracts-upgradeable/token/ERC20/ERC20Upgradeable.sol\":8876:8877  0 */\n      0x00\n        /* \"@openzeppelin/contracts-upgradeable/token/ERC20/ERC20Upgradeable.sol\":8847:8879  ERC20InvalidReceiver(address(0)) */\n      mload(0x40)\n      0xec442f0500000000000000000000000000000000000000000000000000000000\n      dup2\n      mstore\n      0x04\n      add\n      tag_406\n      swap2\n      swap1\n      tag_113\n      jump\t// in\n    tag_406:\n      mload(0x40)\n      dup1\n      swap2\n      sub\n      swap1\n      revert\n        /* \"@openzeppelin/contracts-upgradeable/token/ERC20/ERC20Upgradeable.sol\":8799:8890  if (account == address(0)) {... */\n    tag_405:\n        /* \"@openzeppelin/contracts-upgradeable/token/ERC20/ERC20Upgradeable.sol\":8899:8934  _update(address(0), account, value) */\n      tag_407\n        /* \"@openzeppelin/contracts-upgradeable/token/ERC20/ERC20Upgradeable.sol\":8915:8916  0 */\n      0x00\n        /* \"@openzeppelin/contracts-upgradeable/token/ERC20/ERC20Upgradeable.sol\":8919:8926  account */\n      dup4\n        /* \"@openzeppelin/contracts-upgradeable/token/ERC20/ERC20Upgradeable.sol\":8928:8933  value */\n      dup4\n        /* \"@openzeppelin/contracts-upgradeable/token/ERC20/ERC20Upgradeable.sol\":8899:8906  _update */\n      tag_379\n        /* \"@openzeppelin/contracts-upgradeable/token/ERC20/ERC20Upgradeable.sol\":8899:8934  _update(address(0), account, value) */\n      jump\t// in\n    tag_407:\n        /* \"@openzeppelin/contracts-upgradeable/token/ERC20/ERC20Upgradeable.sol\":8733:8941  function _mint(address account, uint256 value) internal {... */\n      pop\n      pop\n      jump\t// out\n        /* \"@openzeppelin/contracts-upgradeable/token/ERC20/ERC20Upgradeable.sol\":10976:11463  function _approve(address owner, address spender, uint256 value, bool emitEvent) internal virtual {... */\n    tag_319:\n        /* \"@openzeppelin/contracts-upgradeable/token/ERC20/ERC20Upgradeable.sol\":11084:11106  ERC20Storage storage $ */\n      0x00\n        /* \"@openzeppelin/contracts-upgradeable/token/ERC20/ERC20Upgradeable.sol\":11109:11127  _getERC20Storage() */\n      tag_409\n        /* \"@openzeppelin/contracts-upgradeable/token/ERC20/ERC20Upgradeable.sol\":11109:11125  _getERC20Storage */\n      tag_163\n        /* \"@openzeppelin/contracts-upgradeable/token/ERC20/ERC20Upgradeable.sol\":11109:11127  _getERC20Storage() */\n      jump\t// in\n    tag_409:\n        /* \"@openzeppelin/contracts-upgradeable/token/ERC20/ERC20Upgradeable.sol\":11084:11127  ERC20Storage storage $ = _getERC20Storage() */\n      swap1\n      pop\n        /* \"@openzeppelin/contracts-upgradeable/token/ERC20/ERC20Upgradeable.sol\":11158:11159  0 */\n      0x00\n        /* \"@openzeppelin/contracts-upgradeable/token/ERC20/ERC20Upgradeable.sol\":11141:11160  owner == address(0) */\n      0xffffffffffffffffffffffffffffffffffffffff\n      and\n        /* \"@openzeppelin/contracts-upgradeable/token/ERC20/ERC20Upgradeable.sol\":11141:11146  owner */\n      dup6\n        /* \"@openzeppelin/contracts-upgradeable/token/ERC20/ERC20Upgradeable.sol\":11141:11160  owner == address(0) */\n      0xffffffffffffffffffffffffffffffffffffffff\n      and\n      sub\n        /* \"@openzeppelin/contracts-upgradeable/token/ERC20/ERC20Upgradeable.sol\":11137:11226  if (owner == address(0)) {... */\n      tag_410\n      jumpi\n        /* \"@openzeppelin/contracts-upgradeable/token/ERC20/ERC20Upgradeable.sol\":11212:11213  0 */\n      0x00\n        /* \"@openzeppelin/contracts-upgradeable/token/ERC20/ERC20Upgradeable.sol\":11183:11215  ERC20InvalidApprover(address(0)) */\n      mload(0x40)\n      0xe602df0500000000000000000000000000000000000000000000000000000000\n      dup2\n      mstore\n      0x04\n      add\n      tag_411\n      swap2\n      swap1\n      tag_113\n      jump\t// in\n    tag_411:\n      mload(0x40)\n      dup1\n      swap2\n      sub\n      swap1\n      revert\n        /* \"@openzeppelin/contracts-upgradeable/token/ERC20/ERC20Upgradeable.sol\":11137:11226  if (owner == address(0)) {... */\n    tag_410:\n        /* \"@openzeppelin/contracts-upgradeable/token/ERC20/ERC20Upgradeable.sol\":11258:11259  0 */\n      0x00\n        /* \"@openzeppelin/contracts-upgradeable/token/ERC20/ERC20Upgradeable.sol\":11239:11260  spender == address(0) */\n      0xffffffffffffffffffffffffffffffffffffffff\n      and\n        /* \"@openzeppelin/contracts-upgradeable/token/ERC20/ERC20Upgradeable.sol\":11239:11246  spender */\n      dup5\n        /* \"@openzeppelin/contracts-upgradeable/token/ERC20/ERC20Upgradeable.sol\":11239:11260  spender == address(0) */\n      0xffffffffffffffffffffffffffffffffffffffff\n      and\n      sub\n        /* \"@openzeppelin/contracts-upgradeable/token/ERC20/ERC20Upgradeable.sol\":11235:11325  if (spender == address(0)) {... */\n      tag_412\n      jumpi\n        /* \"@openzeppelin/contracts-upgradeable/token/ERC20/ERC20Upgradeable.sol\":11311:11312  0 */\n      0x00\n        /* \"@openzeppelin/contracts-upgradeable/token/ERC20/ERC20Upgradeable.sol\":11283:11314  ERC20InvalidSpender(address(0)) */\n      mload(0x40)\n      0x94280d6200000000000000000000000000000000000000000000000000000000\n      dup2\n      mstore\n      0x04\n      add\n      tag_413\n      swap2\n      swap1\n      tag_113\n      jump\t// in\n    tag_413:\n      mload(0x40)\n      dup1\n      swap2\n      sub\n      swap1\n      revert\n        /* \"@openzeppelin/contracts-upgradeable/token/ERC20/ERC20Upgradeable.sol\":11235:11325  if (spender == address(0)) {... */\n    tag_412:\n        /* \"@openzeppelin/contracts-upgradeable/token/ERC20/ERC20Upgradeable.sol\":11366:11371  value */\n      dup3\n        /* \"@openzeppelin/contracts-upgradeable/token/ERC20/ERC20Upgradeable.sol\":11334:11335  $ */\n      dup2\n        /* \"@openzeppelin/contracts-upgradeable/token/ERC20/ERC20Upgradeable.sol\":11334:11347  $._allowances */\n      0x01\n      add\n        /* \"@openzeppelin/contracts-upgradeable/token/ERC20/ERC20Upgradeable.sol\":11334:11354  $._allowances[owner] */\n      0x00\n        /* \"@openzeppelin/contracts-upgradeable/token/ERC20/ERC20Upgradeable.sol\":11348:11353  owner */\n      dup8\n        /* \"@openzeppelin/contracts-upgradeable/token/ERC20/ERC20Upgradeable.sol\":11334:11354  $._allowances[owner] */\n      0xffffffffffffffffffffffffffffffffffffffff\n      and\n      0xffffffffffffffffffffffffffffffffffffffff\n      and\n      dup2\n      mstore\n      0x20\n      add\n      swap1\n      dup2\n      mstore\n      0x20\n      add\n      0x00\n      keccak256\n        /* \"@openzeppelin/contracts-upgradeable/token/ERC20/ERC20Upgradeable.sol\":11334:11363  $._allowances[owner][spender] */\n      0x00\n        /* \"@openzeppelin/contracts-upgradeable/token/ERC20/ERC20Upgradeable.sol\":11355:11362  spender */\n      dup7\n        /* \"@openzeppelin/contracts-upgradeable/token/ERC20/ERC20Upgradeable.sol\":11334:11363  $._allowances[owner][spender] */\n      0xffffffffffffffffffffffffffffffffffffffff\n      and\n      0xffffffffffffffffffffffffffffffffffffffff\n      and\n      dup2\n      mstore\n      0x20\n      add\n      swap1\n      dup2\n      mstore\n      0x20\n      add\n      0x00\n      keccak256\n        /* \"@openzeppelin/contracts-upgradeable/token/ERC20/ERC20Upgradeable.sol\":11334:11371  $._allowances[owner][spender] = value */\n      dup2\n      swap1\n      sstore\n      pop\n        /* \"@openzeppelin/contracts-upgradeable/token/ERC20/ERC20Upgradeable.sol\":11385:11394  emitEvent */\n      dup2\n        /* \"@openzeppelin/contracts-upgradeable/token/ERC20/ERC20Upgradeable.sol\":11381:11457  if (emitEvent) {... */\n      iszero\n      tag_414\n      jumpi\n        /* \"@openzeppelin/contracts-upgradeable/token/ERC20/ERC20Upgradeable.sol\":11431:11438  spender */\n      dup4\n        /* \"@openzeppelin/contracts-upgradeable/token/ERC20/ERC20Upgradeable.sol\":11415:11446  Approval(owner, spender, value) */\n      0xffffffffffffffffffffffffffffffffffffffff\n      and\n        /* \"@openzeppelin/contracts-upgradeable/token/ERC20/ERC20Upgradeable.sol\":11424:11429  owner */\n      dup6\n        /* \"@openzeppelin/contracts-upgradeable/token/ERC20/ERC20Upgradeable.sol\":11415:11446  Approval(owner, spender, value) */\n      0xffffffffffffffffffffffffffffffffffffffff\n      and\n      0x8c5be1e5ebec7d5bd14f71427d1e84f3dd0314c0f7b2291e5b200ac8c7c3b925\n        /* \"@openzeppelin/contracts-upgradeable/token/ERC20/ERC20Upgradeable.sol\":11440:11445  value */\n      dup6\n        /* \"@openzeppelin/contracts-upgradeable/token/ERC20/ERC20Upgradeable.sol\":11415:11446  Approval(owner, spender, value) */\n      mload(0x40)\n      tag_415\n      swap2\n      swap1\n      tag_56\n      jump\t// in\n    tag_415:\n      mload(0x40)\n      dup1\n      swap2\n      sub\n      swap1\n      log3\n        /* \"@openzeppelin/contracts-upgradeable/token/ERC20/ERC20Upgradeable.sol\":11381:11457  if (emitEvent) {... */\n    tag_414:\n        /* \"@openzeppelin/contracts-upgradeable/token/ERC20/ERC20Upgradeable.sol\":11074:11463  {... */\n      pop\n        /* \"@openzeppelin/contracts-upgradeable/token/ERC20/ERC20Upgradeable.sol\":10976:11463  function _approve(address owner, address spender, uint256 value, bool emitEvent) internal virtual {... */\n      pop\n      pop\n      pop\n      pop\n      jump\t// out\n        /* \"@openzeppelin/contracts-upgradeable/token/ERC20/ERC20Upgradeable.sol\":11745:12222  function _spendAllowance(address owner, address spender, uint256 value) internal virtual {... */\n    tag_334:\n        /* \"@openzeppelin/contracts-upgradeable/token/ERC20/ERC20Upgradeable.sol\":11844:11868  uint256 currentAllowance */\n      0x00\n        /* \"@openzeppelin/contracts-upgradeable/token/ERC20/ERC20Upgradeable.sol\":11871:11896  allowance(owner, spender) */\n      tag_417\n        /* \"@openzeppelin/contracts-upgradeable/token/ERC20/ERC20Upgradeable.sol\":11881:11886  owner */\n      dup5\n        /* \"@openzeppelin/contracts-upgradeable/token/ERC20/ERC20Upgradeable.sol\":11888:11895  spender */\n      dup5\n        /* \"@openzeppelin/contracts-upgradeable/token/ERC20/ERC20Upgradeable.sol\":11871:11880  allowance */\n      tag_150\n        /* \"@openzeppelin/contracts-upgradeable/token/ERC20/ERC20Upgradeable.sol\":11871:11896  allowance(owner, spender) */\n      jump\t// in\n    tag_417:\n        /* \"@openzeppelin/contracts-upgradeable/token/ERC20/ERC20Upgradeable.sol\":11844:11896  uint256 currentAllowance = allowance(owner, spender) */\n      swap1\n      pop\n        /* \"@openzeppelin/contracts-upgradeable/token/ERC20/ERC20Upgradeable.sol\":11930:11947  type(uint256).max */\n      0xffffffffffffffffffffffffffffffffffffffffffffffffffffffffffffffff\n        /* \"@openzeppelin/contracts-upgradeable/token/ERC20/ERC20Upgradeable.sol\":11910:11926  currentAllowance */\n      dup2\n        /* \"@openzeppelin/contracts-upgradeable/token/ERC20/ERC20Upgradeable.sol\":11910:11947  currentAllowance != type(uint256).max */\n      eq\n        /* \"@openzeppelin/contracts-upgradeable/token/ERC20/ERC20Upgradeable.sol\":11906:12216  if (currentAllowance != type(uint256).max) {... */\n      tag_418\n      jumpi\n        /* \"@openzeppelin/contracts-upgradeable/token/ERC20/ERC20Upgradeable.sol\":11986:11991  value */\n      dup2\n        /* \"@openzeppelin/contracts-upgradeable/token/ERC20/ERC20Upgradeable.sol\":11967:11983  currentAllowance */\n      dup2\n        /* \"@openzeppelin/contracts-upgradeable/token/ERC20/ERC20Upgradeable.sol\":11967:11991  currentAllowance < value */\n      lt\n        /* \"@openzeppelin/contracts-upgradeable/token/ERC20/ERC20Upgradeable.sol\":11963:12093  if (currentAllowance < value) {... */\n      iszero\n      tag_419\n      jumpi\n        /* \"@openzeppelin/contracts-upgradeable/token/ERC20/ERC20Upgradeable.sol\":12045:12052  spender */\n      dup3\n        /* \"@openzeppelin/contracts-upgradeable/token/ERC20/ERC20Upgradeable.sol\":12054:12070  currentAllowance */\n      dup2\n        /* \"@openzeppelin/contracts-upgradeable/token/ERC20/ERC20Upgradeable.sol\":12072:12077  value */\n      dup4\n        /* \"@openzeppelin/contracts-upgradeable/token/ERC20/ERC20Upgradeable.sol\":12018:12078  ERC20InsufficientAllowance(spender, currentAllowance, value) */\n      mload(0x40)\n      0xfb8f41b200000000000000000000000000000000000000000000000000000000\n      dup2\n      mstore\n      0x04\n      add\n      tag_420\n      swap4\n      swap3\n      swap2\n      swap1\n      tag_421\n      jump\t// in\n    tag_420:\n      mload(0x40)\n      dup1\n      swap2\n      sub\n      swap1\n      revert\n        /* \"@openzeppelin/contracts-upgradeable/token/ERC20/ERC20Upgradeable.sol\":11963:12093  if (currentAllowance < value) {... */\n    tag_419:\n        /* \"@openzeppelin/contracts-upgradeable/token/ERC20/ERC20Upgradeable.sol\":12134:12191  _approve(owner, spender, currentAllowance - value, false) */\n      tag_422\n        /* \"@openzeppelin/contracts-upgradeable/token/ERC20/ERC20Upgradeable.sol\":12143:12148  owner */\n      dup5\n        /* \"@openzeppelin/contracts-upgradeable/token/ERC20/ERC20Upgradeable.sol\":12150:12157  spender */\n      dup5\n        /* \"@openzeppelin/contracts-upgradeable/token/ERC20/ERC20Upgradeable.sol\":12178:12183  value */\n      dup5\n        /* \"@openzeppelin/contracts-upgradeable/token/ERC20/ERC20Upgradeable.sol\":12159:12175  currentAllowance */\n      dup5\n        /* \"@openzeppelin/contracts-upgradeable/token/ERC20/ERC20Upgradeable.sol\":12159:12183  currentAllowance - value */\n      sub\n        /* \"@openzeppelin/contracts-upgradeable/token/ERC20/ERC20Upgradeable.sol\":12185:12190  false */\n      0x00\n        /* \"@openzeppelin/contracts-upgradeable/token/ERC20/ERC20Upgradeable.sol\":12134:12142  _approve */\n      tag_319\n        /* \"@openzeppelin/contracts-upgradeable/token/ERC20/ERC20Upgradeable.sol\":12134:12191  _approve(owner, spender, currentAllowance - value, false) */\n      jump\t// in\n    tag_422:\n        /* \"@openzeppelin/contracts-upgradeable/token/ERC20/ERC20Upgradeable.sol\":11906:12216  if (currentAllowance != type(uint256).max) {... */\n    tag_418:\n        /* \"@openzeppelin/contracts-upgradeable/token/ERC20/ERC20Upgradeable.sol\":11834:12222  {... */\n      pop\n        /* \"@openzeppelin/contracts-upgradeable/token/ERC20/ERC20Upgradeable.sol\":11745:12222  function _spendAllowance(address owner, address spender, uint256 value) internal virtual {... */\n      pop\n      pop\n      pop\n      jump\t// out\n        /* \"@openzeppelin/contracts-upgradeable/security/PausableUpgradeable.sol\":2209:2315  function _requirePaused() internal view virtual {... */\n    tag_338:\n        /* \"@openzeppelin/contracts-upgradeable/security/PausableUpgradeable.sol\":2275:2283  paused() */\n      tag_424\n        /* \"@openzeppelin/contracts-upgradeable/security/PausableUpgradeable.sol\":2275:2281  paused */\n      tag_91\n        /* \"@openzeppelin/contracts-upgradeable/security/PausableUpgradeable.sol\":2275:2283  paused() */\n      jump\t// in\n    tag_424:\n        /* \"@openzeppelin/contracts-upgradeable/security/PausableUpgradeable.sol\":2267:2308  require(paused(), \"Pausable: not paused\") */\n      tag_425\n      jumpi\n      mload(0x40)\n      0x08c379a000000000000000000000000000000000000000000000000000000000\n      dup2\n      mstore\n      0x04\n      add\n      tag_426\n      swap1\n      tag_427\n      jump\t// in\n    tag_426:\n      mload(0x40)\n      dup1\n      swap2\n      sub\n      swap1\n      revert\n    tag_425:\n        /* \"@openzeppelin/contracts-upgradeable/security/PausableUpgradeable.sol\":2209:2315  function _requirePaused() internal view virtual {... */\n      jump\t// out\n        /* \"@openzeppelin/contracts/proxy/ERC1967/ERC1967Utils.sol\":1441:1579  function getImplementation() internal view returns (address) {... */\n    tag_345:\n        /* \"@openzeppelin/contracts/proxy/ERC1967/ERC1967Utils.sol\":1493:1500  address */\n      0x00\n        /* \"@openzeppelin/contracts/proxy/ERC1967/ERC1967Utils.sol\":1519:1566  StorageSlot.getAddressSlot(IMPLEMENTATION_SLOT) */\n      tag_429\n        /* \"@openzeppelin/contracts/proxy/ERC1967/ERC1967Utils.sol\":811:877  0x360894a13ba1a3210667c828492db98dca3e2076cc3735a920a3ca505d382bbc */\n      0x360894a13ba1a3210667c828492db98dca3e2076cc3735a920a3ca505d382bbc\n        /* \"@openzeppelin/contracts/proxy/ERC1967/ERC1967Utils.sol\":1546:1565  IMPLEMENTATION_SLOT */\n      0x00\n      shl\n        /* \"@openzeppelin/contracts/proxy/ERC1967/ERC1967Utils.sol\":1519:1545  StorageSlot.getAddressSlot */\n      tag_430\n        /* \"@openzeppelin/contracts/proxy/ERC1967/ERC1967Utils.sol\":1519:1566  StorageSlot.getAddressSlot(IMPLEMENTATION_SLOT) */\n      jump\t// in\n    tag_429:\n        /* \"@openzeppelin/contracts/proxy/ERC1967/ERC1967Utils.sol\":1519:1572  StorageSlot.getAddressSlot(IMPLEMENTATION_SLOT).value */\n      0x00\n      add\n      0x00\n      swap1\n      sload\n      swap1\n      0x0100\n      exp\n      swap1\n      div\n      0xffffffffffffffffffffffffffffffffffffffff\n      and\n        /* \"@openzeppelin/contracts/proxy/ERC1967/ERC1967Utils.sol\":1512:1572  return StorageSlot.getAddressSlot(IMPLEMENTATION_SLOT).value */\n      swap1\n      pop\n        /* \"@openzeppelin/contracts/proxy/ERC1967/ERC1967Utils.sol\":1441:1579  function getImplementation() internal view returns (address) {... */\n      swap1\n      jump\t// out\n        /* \"@openzeppelin/contracts/proxy/ERC1967/ERC1967Utils.sol\":2264:2608  function upgradeToAndCall(address newImplementation, bytes memory data) internal {... */\n    tag_363:\n        /* \"@openzeppelin/contracts/proxy/ERC1967/ERC1967Utils.sol\":2355:2392  _setImplementation(newImplementation) */\n      tag_432\n        /* \"@openzeppelin/contracts/proxy/ERC1967/ERC1967Utils.sol\":2374:2391  newImplementation */\n      dup3\n        /* \"@openzeppelin/contracts/proxy/ERC1967/ERC1967Utils.sol\":2355:2373  _setImplementation */\n      tag_433\n        /* \"@openzeppelin/contracts/proxy/ERC1967/ERC1967Utils.sol\":2355:2392  _setImplementation(newImplementation) */\n      jump\t// in\n    tag_432:\n        /* \"@openzeppelin/contracts/proxy/ERC1967/ERC1967Utils.sol\":2425:2442  newImplementation */\n      dup2\n        /* \"@openzeppelin/contracts/proxy/ERC1967/ERC1967Utils.sol\":2407:2443  IERC1967.Upgraded(newImplementation) */\n      0xffffffffffffffffffffffffffffffffffffffff\n      and\n      0xbc7cd75a20ee27fd9adebab32041f755214dbc6bffa90cc0225b39da2e5c2d3b\n      mload(0x40)\n      mload(0x40)\n      dup1\n      swap2\n      sub\n      swap1\n      log2\n        /* \"@openzeppelin/contracts/proxy/ERC1967/ERC1967Utils.sol\":2472:2473  0 */\n      0x00\n        /* \"@openzeppelin/contracts/proxy/ERC1967/ERC1967Utils.sol\":2458:2462  data */\n      dup2\n        /* \"@openzeppelin/contracts/proxy/ERC1967/ERC1967Utils.sol\":2458:2469  data.length */\n      mload\n        /* \"@openzeppelin/contracts/proxy/ERC1967/ERC1967Utils.sol\":2458:2473  data.length > 0 */\n      gt\n        /* \"@openzeppelin/contracts/proxy/ERC1967/ERC1967Utils.sol\":2454:2602  if (data.length > 0) {... */\n      iszero\n      tag_434\n      jumpi\n        /* \"@openzeppelin/contracts/proxy/ERC1967/ERC1967Utils.sol\":2489:2542  Address.functionDelegateCall(newImplementation, data) */\n      tag_435\n        /* \"@openzeppelin/contracts/proxy/ERC1967/ERC1967Utils.sol\":2518:2535  newImplementation */\n      dup3\n        /* \"@openzeppelin/contracts/proxy/ERC1967/ERC1967Utils.sol\":2537:2541  data */\n      dup3\n        /* \"@openzeppelin/contracts/proxy/ERC1967/ERC1967Utils.sol\":2489:2517  Address.functionDelegateCall */\n      tag_436\n        /* \"@openzeppelin/contracts/proxy/ERC1967/ERC1967Utils.sol\":2489:2542  Address.functionDelegateCall(newImplementation, data) */\n      jump\t// in\n    tag_435:\n      pop\n        /* \"@openzeppelin/contracts/proxy/ERC1967/ERC1967Utils.sol\":2454:2602  if (data.length > 0) {... */\n      jump(tag_437)\n    tag_434:\n        /* \"@openzeppelin/contracts/proxy/ERC1967/ERC1967Utils.sol\":2573:2591  _checkNonPayable() */\n      tag_438\n        /* \"@openzeppelin/contracts/proxy/ERC1967/ERC1967Utils.sol\":2573:2589  _checkNonPayable */\n      tag_439\n        /* \"@openzeppelin/contracts/proxy/ERC1967/ERC1967Utils.sol\":2573:2591  _checkNonPayable() */\n      jump\t// in\n    tag_438:\n        /* \"@openzeppelin/contracts/proxy/ERC1967/ERC1967Utils.sol\":2454:2602  if (data.length > 0) {... */\n    tag_437:\n        /* \"@openzeppelin/contracts/proxy/ERC1967/ERC1967Utils.sol\":2264:2608  function upgradeToAndCall(address newImplementation, bytes memory data) internal {... */\n      pop\n      pop\n      jump\t// out\n        /* \"@openzeppelin/contracts-upgradeable/token/ERC20/ERC20Upgradeable.sol\":7220:8390  function _update(address from, address to, uint256 value) internal virtual {... */\n    tag_379:\n        /* \"@openzeppelin/contracts-upgradeable/token/ERC20/ERC20Upgradeable.sol\":7305:7327  ERC20Storage storage $ */\n      0x00\n        /* \"@openzeppelin/contracts-upgradeable/token/ERC20/ERC20Upgradeable.sol\":7330:7348  _getERC20Storage() */\n      tag_441\n        /* \"@openzeppelin/contracts-upgradeable/token/ERC20/ERC20Upgradeable.sol\":7330:7346  _getERC20Storage */\n      tag_163\n        /* \"@openzeppelin/contracts-upgradeable/token/ERC20/ERC20Upgradeable.sol\":7330:7348  _getERC20Storage() */\n      jump\t// in\n    tag_441:\n        /* \"@openzeppelin/contracts-upgradeable/token/ERC20/ERC20Upgradeable.sol\":7305:7348  ERC20Storage storage $ = _getERC20Storage() */\n      swap1\n      pop\n        /* \"@openzeppelin/contracts-upgradeable/token/ERC20/ERC20Upgradeable.sol\":7378:7379  0 */\n      0x00\n        /* \"@openzeppelin/contracts-upgradeable/token/ERC20/ERC20Upgradeable.sol\":7362:7380  from == address(0) */\n      0xffffffffffffffffffffffffffffffffffffffff\n      and\n        /* \"@openzeppelin/contracts-upgradeable/token/ERC20/ERC20Upgradeable.sol\":7362:7366  from */\n      dup5\n        /* \"@openzeppelin/contracts-upgradeable/token/ERC20/ERC20Upgradeable.sol\":7362:7380  from == address(0) */\n      0xffffffffffffffffffffffffffffffffffffffff\n      and\n      sub\n        /* \"@openzeppelin/contracts-upgradeable/token/ERC20/ERC20Upgradeable.sol\":7358:7904  if (from == address(0)) {... */\n      tag_442\n      jumpi\n        /* \"@openzeppelin/contracts-upgradeable/token/ERC20/ERC20Upgradeable.sol\":7516:7521  value */\n      dup2\n        /* \"@openzeppelin/contracts-upgradeable/token/ERC20/ERC20Upgradeable.sol\":7498:7499  $ */\n      dup2\n        /* \"@openzeppelin/contracts-upgradeable/token/ERC20/ERC20Upgradeable.sol\":7498:7512  $._totalSupply */\n      0x02\n      add\n      0x00\n        /* \"@openzeppelin/contracts-upgradeable/token/ERC20/ERC20Upgradeable.sol\":7498:7521  $._totalSupply += value */\n      dup3\n      dup3\n      sload\n      tag_443\n      swap2\n      swap1\n      tag_444\n      jump\t// in\n    tag_443:\n      swap3\n      pop\n      pop\n      dup2\n      swap1\n      sstore\n      pop\n        /* \"@openzeppelin/contracts-upgradeable/token/ERC20/ERC20Upgradeable.sol\":7358:7904  if (from == address(0)) {... */\n      jump(tag_445)\n    tag_442:\n        /* \"@openzeppelin/contracts-upgradeable/token/ERC20/ERC20Upgradeable.sol\":7552:7571  uint256 fromBalance */\n      0x00\n        /* \"@openzeppelin/contracts-upgradeable/token/ERC20/ERC20Upgradeable.sol\":7574:7575  $ */\n      dup2\n        /* \"@openzeppelin/contracts-upgradeable/token/ERC20/ERC20Upgradeable.sol\":7574:7585  $._balances */\n      0x00\n      add\n        /* \"@openzeppelin/contracts-upgradeable/token/ERC20/ERC20Upgradeable.sol\":7574:7591  $._balances[from] */\n      0x00\n        /* \"@openzeppelin/contracts-upgradeable/token/ERC20/ERC20Upgradeable.sol\":7586:7590  from */\n      dup7\n        /* \"@openzeppelin/contracts-upgradeable/token/ERC20/ERC20Upgradeable.sol\":7574:7591  $._balances[from] */\n      0xffffffffffffffffffffffffffffffffffffffff\n      and\n      0xffffffffffffffffffffffffffffffffffffffff\n      and\n      dup2\n      mstore\n      0x20\n      add\n      swap1\n      dup2\n      mstore\n      0x20\n      add\n      0x00\n      keccak256\n      sload\n        /* \"@openzeppelin/contracts-upgradeable/token/ERC20/ERC20Upgradeable.sol\":7552:7591  uint256 fromBalance = $._balances[from] */\n      swap1\n      pop\n        /* \"@openzeppelin/contracts-upgradeable/token/ERC20/ERC20Upgradeable.sol\":7623:7628  value */\n      dup3\n        /* \"@openzeppelin/contracts-upgradeable/token/ERC20/ERC20Upgradeable.sol\":7609:7620  fromBalance */\n      dup2\n        /* \"@openzeppelin/contracts-upgradeable/token/ERC20/ERC20Upgradeable.sol\":7609:7628  fromBalance < value */\n      lt\n        /* \"@openzeppelin/contracts-upgradeable/token/ERC20/ERC20Upgradeable.sol\":7605:7720  if (fromBalance < value) {... */\n      iszero\n      tag_446\n      jumpi\n        /* \"@openzeppelin/contracts-upgradeable/token/ERC20/ERC20Upgradeable.sol\":7680:7684  from */\n      dup5\n        /* \"@openzeppelin/contracts-upgradeable/token/ERC20/ERC20Upgradeable.sol\":7686:7697  fromBalance */\n      dup2\n        /* \"@openzeppelin/contracts-upgradeable/token/ERC20/ERC20Upgradeable.sol\":7699:7704  value */\n      dup5\n        /* \"@openzeppelin/contracts-upgradeable/token/ERC20/ERC20Upgradeable.sol\":7655:7705  ERC20InsufficientBalance(from, fromBalance, value) */\n      mload(0x40)\n      0xe450d38c00000000000000000000000000000000000000000000000000000000\n      dup2\n      mstore\n      0x04\n      add\n      tag_447\n      swap4\n      swap3\n      swap2\n      swap1\n      tag_421\n      jump\t// in\n    tag_447:\n      mload(0x40)\n      dup1\n      swap2\n      sub\n      swap1\n      revert\n        /* \"@openzeppelin/contracts-upgradeable/token/ERC20/ERC20Upgradeable.sol\":7605:7720  if (fromBalance < value) {... */\n    tag_446:\n        /* \"@openzeppelin/contracts-upgradeable/token/ERC20/ERC20Upgradeable.sol\":7874:7879  value */\n      dup3\n        /* \"@openzeppelin/contracts-upgradeable/token/ERC20/ERC20Upgradeable.sol\":7860:7871  fromBalance */\n      dup2\n        /* \"@openzeppelin/contracts-upgradeable/token/ERC20/ERC20Upgradeable.sol\":7860:7879  fromBalance - value */\n      sub\n        /* \"@openzeppelin/contracts-upgradeable/token/ERC20/ERC20Upgradeable.sol\":7840:7841  $ */\n      dup3\n        /* \"@openzeppelin/contracts-upgradeable/token/ERC20/ERC20Upgradeable.sol\":7840:7851  $._balances */\n      0x00\n      add\n        /* \"@openzeppelin/contracts-upgradeable/token/ERC20/ERC20Upgradeable.sol\":7840:7857  $._balances[from] */\n      0x00\n        /* \"@openzeppelin/contracts-upgradeable/token/ERC20/ERC20Upgradeable.sol\":7852:7856  from */\n      dup8\n        /* \"@openzeppelin/contracts-upgradeable/token/ERC20/ERC20Upgradeable.sol\":7840:7857  $._balances[from] */\n      0xffffffffffffffffffffffffffffffffffffffff\n      and\n      0xffffffffffffffffffffffffffffffffffffffff\n      and\n      dup2\n      mstore\n      0x20\n      add\n      swap1\n      dup2\n      mstore\n      0x20\n      add\n      0x00\n      keccak256\n        /* \"@openzeppelin/contracts-upgradeable/token/ERC20/ERC20Upgradeable.sol\":7840:7879  $._balances[from] = fromBalance - value */\n      dup2\n      swap1\n      sstore\n      pop\n        /* \"@openzeppelin/contracts-upgradeable/token/ERC20/ERC20Upgradeable.sol\":7538:7904  {... */\n      pop\n        /* \"@openzeppelin/contracts-upgradeable/token/ERC20/ERC20Upgradeable.sol\":7358:7904  if (from == address(0)) {... */\n    tag_445:\n        /* \"@openzeppelin/contracts-upgradeable/token/ERC20/ERC20Upgradeable.sol\":7932:7933  0 */\n      0x00\n        /* \"@openzeppelin/contracts-upgradeable/token/ERC20/ERC20Upgradeable.sol\":7918:7934  to == address(0) */\n      0xffffffffffffffffffffffffffffffffffffffff\n      and\n        /* \"@openzeppelin/contracts-upgradeable/token/ERC20/ERC20Upgradeable.sol\":7918:7920  to */\n      dup4\n        /* \"@openzeppelin/contracts-upgradeable/token/ERC20/ERC20Upgradeable.sol\":7918:7934  to == address(0) */\n      0xffffffffffffffffffffffffffffffffffffffff\n      and\n      sub\n        /* \"@openzeppelin/contracts-upgradeable/token/ERC20/ERC20Upgradeable.sol\":7914:8343  if (to == address(0)) {... */\n      tag_448\n      jumpi\n        /* \"@openzeppelin/contracts-upgradeable/token/ERC20/ERC20Upgradeable.sol\":8099:8104  value */\n      dup2\n        /* \"@openzeppelin/contracts-upgradeable/token/ERC20/ERC20Upgradeable.sol\":8081:8082  $ */\n      dup2\n        /* \"@openzeppelin/contracts-upgradeable/token/ERC20/ERC20Upgradeable.sol\":8081:8095  $._totalSupply */\n      0x02\n      add\n      0x00\n        /* \"@openzeppelin/contracts-upgradeable/token/ERC20/ERC20Upgradeable.sol\":8081:8104  $._totalSupply -= value */\n      dup3\n      dup3\n      sload\n      sub\n      swap3\n      pop\n      pop\n      dup2\n      swap1\n      sstore\n      pop\n        /* \"@openzeppelin/contracts-upgradeable/token/ERC20/ERC20Upgradeable.sol\":7914:8343  if (to == address(0)) {... */\n      jump(tag_449)\n    tag_448:\n        /* \"@openzeppelin/contracts-upgradeable/token/ERC20/ERC20Upgradeable.sol\":8313:8318  value */\n      dup2\n        /* \"@openzeppelin/contracts-upgradeable/token/ERC20/ERC20Upgradeable.sol\":8294:8295  $ */\n      dup2\n        /* \"@openzeppelin/contracts-upgradeable/token/ERC20/ERC20Upgradeable.sol\":8294:8305  $._balances */\n      0x00\n      add\n        /* \"@openzeppelin/contracts-upgradeable/token/ERC20/ERC20Upgradeable.sol\":8294:8309  $._balances[to] */\n      0x00\n        /* \"@openzeppelin/contracts-upgradeable/token/ERC20/ERC20Upgradeable.sol\":8306:8308  to */\n      dup6\n        /* \"@openzeppelin/contracts-upgradeable/token/ERC20/ERC20Upgradeable.sol\":8294:8309  $._balances[to] */\n      0xffffffffffffffffffffffffffffffffffffffff\n      and\n      0xffffffffffffffffffffffffffffffffffffffff\n      and\n      dup2\n      mstore\n      0x20\n      add\n      swap1\n      dup2\n      mstore\n      0x20\n      add\n      0x00\n      keccak256\n      0x00\n        /* \"@openzeppelin/contracts-upgradeable/token/ERC20/ERC20Upgradeable.sol\":8294:8318  $._balances[to] += value */\n      dup3\n      dup3\n      sload\n      add\n      swap3\n      pop\n      pop\n      dup2\n      swap1\n      sstore\n      pop\n        /* \"@openzeppelin/contracts-upgradeable/token/ERC20/ERC20Upgradeable.sol\":7914:8343  if (to == address(0)) {... */\n    tag_449:\n        /* \"@openzeppelin/contracts-upgradeable/token/ERC20/ERC20Upgradeable.sol\":8373:8375  to */\n      dup3\n        /* \"@openzeppelin/contracts-upgradeable/token/ERC20/ERC20Upgradeable.sol\":8358:8383  Transfer(from, to, value) */\n      0xffffffffffffffffffffffffffffffffffffffff\n      and\n        /* \"@openzeppelin/contracts-upgradeable/token/ERC20/ERC20Upgradeable.sol\":8367:8371  from */\n      dup5\n        /* \"@openzeppelin/contracts-upgradeable/token/ERC20/ERC20Upgradeable.sol\":8358:8383  Transfer(from, to, value) */\n      0xffffffffffffffffffffffffffffffffffffffff\n      and\n      0xddf252ad1be2c89b69c2b068fc378daa952ba7f163c4a11628f55a4df523b3ef\n        /* \"@openzeppelin/contracts-upgradeable/token/ERC20/ERC20Upgradeable.sol\":8377:8382  value */\n      dup5\n        /* \"@openzeppelin/contracts-upgradeable/token/ERC20/ERC20Upgradeable.sol\":8358:8383  Transfer(from, to, value) */\n      mload(0x40)\n      tag_450\n      swap2\n      swap1\n      tag_56\n      jump\t// in\n    tag_450:\n      mload(0x40)\n      dup1\n      swap2\n      sub\n      swap1\n      log3\n        /* \"@openzeppelin/contracts-upgradeable/token/ERC20/ERC20Upgradeable.sol\":7295:8390  {... */\n      pop\n        /* \"@openzeppelin/contracts-upgradeable/token/ERC20/ERC20Upgradeable.sol\":7220:8390  function _update(address from, address to, uint256 value) internal virtual {... */\n      pop\n      pop\n      pop\n      jump\t// out\n        /* \"@openzeppelin/contracts-upgradeable/proxy/utils/Initializable.sol\":7084:7225  function _checkInitializing() internal view virtual {... */\n    tag_387:\n        /* \"@openzeppelin/contracts-upgradeable/proxy/utils/Initializable.sol\":7151:7168  _isInitializing() */\n      tag_452\n        /* \"@openzeppelin/contracts-upgradeable/proxy/utils/Initializable.sol\":7151:7166  _isInitializing */\n      tag_453\n        /* \"@openzeppelin/contracts-upgradeable/proxy/utils/Initializable.sol\":7151:7168  _isInitializing() */\n      jump\t// in\n    tag_452:\n        /* \"@openzeppelin/contracts-upgradeable/proxy/utils/Initializable.sol\":7146:7219  if (!_isInitializing()) {... */\n      tag_454\n      jumpi\n        /* \"@openzeppelin/contracts-upgradeable/proxy/utils/Initializable.sol\":7191:7208  NotInitializing() */\n      mload(0x40)\n      0xd7e6bcf800000000000000000000000000000000000000000000000000000000\n      dup2\n      mstore\n      0x04\n      add\n      mload(0x40)\n      dup1\n      swap2\n      sub\n      swap1\n      revert\n        /* \"@openzeppelin/contracts-upgradeable/proxy/utils/Initializable.sol\":7146:7219  if (!_isInitializing()) {... */\n    tag_454:\n        /* \"@openzeppelin/contracts-upgradeable/proxy/utils/Initializable.sol\":7084:7225  function _checkInitializing() internal view virtual {... */\n      jump\t// out\n        /* \"@openzeppelin/contracts-upgradeable/token/ERC20/ERC20Upgradeable.sol\":2435:2651  function __ERC20_init_unchained(string memory name_, string memory symbol_) internal onlyInitializing {... */\n    tag_390:\n        /* \"@openzeppelin/contracts-upgradeable/proxy/utils/Initializable.sol\":6931:6951  _checkInitializing() */\n      tag_456\n        /* \"@openzeppelin/contracts-upgradeable/proxy/utils/Initializable.sol\":6931:6949  _checkInitializing */\n      tag_387\n        /* \"@openzeppelin/contracts-upgradeable/proxy/utils/Initializable.sol\":6931:6951  _checkInitializing() */\n      jump\t// in\n    tag_456:\n        /* \"@openzeppelin/contracts-upgradeable/token/ERC20/ERC20Upgradeable.sol\":2547:2569  ERC20Storage storage $ */\n      0x00\n        /* \"@openzeppelin/contracts-upgradeable/token/ERC20/ERC20Upgradeable.sol\":2572:2590  _getERC20Storage() */\n      tag_458\n        /* \"@openzeppelin/contracts-upgradeable/token/ERC20/ERC20Upgradeable.sol\":2572:2588  _getERC20Storage */\n      tag_163\n        /* \"@openzeppelin/contracts-upgradeable/token/ERC20/ERC20Upgradeable.sol\":2572:2590  _getERC20Storage() */\n      jump\t// in\n    tag_458:\n        /* \"@openzeppelin/contracts-upgradeable/token/ERC20/ERC20Upgradeable.sol\":2547:2590  ERC20Storage storage $ = _getERC20Storage() */\n      swap1\n      pop\n        /* \"@openzeppelin/contracts-upgradeable/token/ERC20/ERC20Upgradeable.sol\":2610:2615  name_ */\n      dup3\n        /* \"@openzeppelin/contracts-upgradeable/token/ERC20/ERC20Upgradeable.sol\":2600:2601  $ */\n      dup2\n        /* \"@openzeppelin/contracts-upgradeable/token/ERC20/ERC20Upgradeable.sol\":2600:2607  $._name */\n      0x03\n      add\n        /* \"@openzeppelin/contracts-upgradeable/token/ERC20/ERC20Upgradeable.sol\":2600:2615  $._name = name_ */\n      swap1\n      dup2\n      tag_459\n      swap2\n      swap1\n      tag_460\n      jump\t// in\n    tag_459:\n      pop\n        /* \"@openzeppelin/contracts-upgradeable/token/ERC20/ERC20Upgradeable.sol\":2637:2644  symbol_ */\n      dup2\n        /* \"@openzeppelin/contracts-upgradeable/token/ERC20/ERC20Upgradeable.sol\":2625:2626  $ */\n      dup2\n        /* \"@openzeppelin/contracts-upgradeable/token/ERC20/ERC20Upgradeable.sol\":2625:2634  $._symbol */\n      0x04\n      add\n        /* \"@openzeppelin/contracts-upgradeable/token/ERC20/ERC20Upgradeable.sol\":2625:2644  $._symbol = symbol_ */\n      swap1\n      dup2\n      tag_461\n      swap2\n      swap1\n      tag_460\n      jump\t// in\n    tag_461:\n      pop\n        /* \"@openzeppelin/contracts-upgradeable/token/ERC20/ERC20Upgradeable.sol\":2537:2651  {... */\n      pop\n        /* \"@openzeppelin/contracts-upgradeable/token/ERC20/ERC20Upgradeable.sol\":2435:2651  function __ERC20_init_unchained(string memory name_, string memory symbol_) internal onlyInitializing {... */\n      pop\n      pop\n      jump\t// out\n        /* \"@openzeppelin/contracts-upgradeable/access/OwnableUpgradeable.sol\":1980:2215  function __Ownable_init_unchained(address initialOwner) internal onlyInitializing {... */\n    tag_395:\n        /* \"@openzeppelin/contracts-upgradeable/proxy/utils/Initializable.sol\":6931:6951  _checkInitializing() */\n      tag_463\n        /* \"@openzeppelin/contracts-upgradeable/proxy/utils/Initializable.sol\":6931:6949  _checkInitializing */\n      tag_387\n        /* \"@openzeppelin/contracts-upgradeable/proxy/utils/Initializable.sol\":6931:6951  _checkInitializing() */\n      jump\t// in\n    tag_463:\n        /* \"@openzeppelin/contracts-upgradeable/access/OwnableUpgradeable.sol\":2100:2101  0 */\n      0x00\n        /* \"@openzeppelin/contracts-upgradeable/access/OwnableUpgradeable.sol\":2076:2102  initialOwner == address(0) */\n      0xffffffffffffffffffffffffffffffffffffffff\n      and\n        /* \"@openzeppelin/contracts-upgradeable/access/OwnableUpgradeable.sol\":2076:2088  initialOwner */\n      dup2\n        /* \"@openzeppelin/contracts-upgradeable/access/OwnableUpgradeable.sol\":2076:2102  initialOwner == address(0) */\n      0xffffffffffffffffffffffffffffffffffffffff\n      and\n      sub\n        /* \"@openzeppelin/contracts-upgradeable/access/OwnableUpgradeable.sol\":2072:2167  if (initialOwner == address(0)) {... */\n      tag_465\n      jumpi\n        /* \"@openzeppelin/contracts-upgradeable/access/OwnableUpgradeable.sol\":2153:2154  0 */\n      0x00\n        /* \"@openzeppelin/contracts-upgradeable/access/OwnableUpgradeable.sol\":2125:2156  OwnableInvalidOwner(address(0)) */\n      mload(0x40)\n      0x1e4fbdf700000000000000000000000000000000000000000000000000000000\n      dup2\n      mstore\n      0x04\n      add\n      tag_466\n      swap2\n      swap1\n      tag_113\n      jump\t// in\n    tag_466:\n      mload(0x40)\n      dup1\n      swap2\n      sub\n      swap1\n      revert\n        /* \"@openzeppelin/contracts-upgradeable/access/OwnableUpgradeable.sol\":2072:2167  if (initialOwner == address(0)) {... */\n    tag_465:\n        /* \"@openzeppelin/contracts-upgradeable/access/OwnableUpgradeable.sol\":2176:2208  _transferOwnership(initialOwner) */\n      tag_467\n        /* \"@openzeppelin/contracts-upgradeable/access/OwnableUpgradeable.sol\":2195:2207  initialOwner */\n      dup2\n        /* \"@openzeppelin/contracts-upgradeable/access/OwnableUpgradeable.sol\":2176:2194  _transferOwnership */\n      tag_233\n        /* \"@openzeppelin/contracts-upgradeable/access/OwnableUpgradeable.sol\":2176:2208  _transferOwnership(initialOwner) */\n      jump\t// in\n    tag_467:\n        /* \"@openzeppelin/contracts-upgradeable/access/OwnableUpgradeable.sol\":1980:2215  function __Ownable_init_unchained(address initialOwner) internal onlyInitializing {... */\n      pop\n      jump\t// out\n        /* \"@openzeppelin/contracts-upgradeable/security/PausableUpgradeable.sol\":1187:1282  function __Pausable_init_unchained() internal onlyInitializing {... */\n    tag_400:\n        /* \"@openzeppelin/contracts-upgradeable/proxy/utils/Initializable.sol\":6931:6951  _checkInitializing() */\n      tag_469\n        /* \"@openzeppelin/contracts-upgradeable/proxy/utils/Initializable.sol\":6931:6949  _checkInitializing */\n      tag_387\n        /* \"@openzeppelin/contracts-upgradeable/proxy/utils/Initializable.sol\":6931:6951  _checkInitializing() */\n      jump\t// in\n    tag_469:\n        /* \"@openzeppelin/contracts-upgradeable/security/PausableUpgradeable.sol\":1270:1275  false */\n      0x00\n        /* \"@openzeppelin/contracts-upgradeable/security/PausableUpgradeable.sol\":1260:1267  _paused */\n      dup1\n      0x00\n        /* \"@openzeppelin/contracts-upgradeable/security/PausableUpgradeable.sol\":1260:1275  _paused = false */\n      0x0100\n      exp\n      dup2\n      sload\n      dup2\n      0xff\n      mul\n      not\n      and\n      swap1\n      dup4\n      iszero\n      iszero\n      mul\n      or\n      swap1\n      sstore\n      pop\n        /* \"@openzeppelin/contracts-upgradeable/security/PausableUpgradeable.sol\":1187:1282  function __Pausable_init_unchained() internal onlyInitializing {... */\n      jump\t// out\n        /* \"@openzeppelin/contracts/utils/StorageSlot.sol\":1899:2062  function getAddressSlot(bytes32 slot) internal pure returns (AddressSlot storage r) {... */\n    tag_430:\n        /* \"@openzeppelin/contracts/utils/StorageSlot.sol\":1960:1981  AddressSlot storage r */\n      0x00\n        /* \"@openzeppelin/contracts/utils/StorageSlot.sol\":2042:2046  slot */\n      dup2\n        /* \"@openzeppelin/contracts/utils/StorageSlot.sol\":2032:2046  r.slot := slot */\n      swap1\n      pop\n        /* \"@openzeppelin/contracts/utils/StorageSlot.sol\":1899:2062  function getAddressSlot(bytes32 slot) internal pure returns (AddressSlot storage r) {... */\n      swap2\n      swap1\n      pop\n      jump\t// out\n        /* \"@openzeppelin/contracts/proxy/ERC1967/ERC1967Utils.sol\":1671:1952  function _setImplementation(address newImplementation) private {... */\n    tag_433:\n        /* \"@openzeppelin/contracts/proxy/ERC1967/ERC1967Utils.sol\":1781:1782  0 */\n      0x00\n        /* \"@openzeppelin/contracts/proxy/ERC1967/ERC1967Utils.sol\":1748:1765  newImplementation */\n      dup2\n        /* \"@openzeppelin/contracts/proxy/ERC1967/ERC1967Utils.sol\":1748:1777  newImplementation.code.length */\n      0xffffffffffffffffffffffffffffffffffffffff\n      and\n      extcodesize\n        /* \"@openzeppelin/contracts/proxy/ERC1967/ERC1967Utils.sol\":1748:1782  newImplementation.code.length == 0 */\n      sub\n        /* \"@openzeppelin/contracts/proxy/ERC1967/ERC1967Utils.sol\":1744:1863  if (newImplementation.code.length == 0) {... */\n      tag_473\n      jumpi\n        /* \"@openzeppelin/contracts/proxy/ERC1967/ERC1967Utils.sol\":1834:1851  newImplementation */\n      dup1\n        /* \"@openzeppelin/contracts/proxy/ERC1967/ERC1967Utils.sol\":1805:1852  ERC1967InvalidImplementation(newImplementation) */\n      mload(0x40)\n      0x4c9c8ce300000000000000000000000000000000000000000000000000000000\n      dup2\n      mstore\n      0x04\n      add\n      tag_474\n      swap2\n      swap1\n      tag_113\n      jump\t// in\n    tag_474:\n      mload(0x40)\n      dup1\n      swap2\n      sub\n      swap1\n      revert\n        /* \"@openzeppelin/contracts/proxy/ERC1967/ERC1967Utils.sol\":1744:1863  if (newImplementation.code.length == 0) {... */\n    tag_473:\n        /* \"@openzeppelin/contracts/proxy/ERC1967/ERC1967Utils.sol\":1928:1945  newImplementation */\n      dup1\n        /* \"@openzeppelin/contracts/proxy/ERC1967/ERC1967Utils.sol\":1872:1919  StorageSlot.getAddressSlot(IMPLEMENTATION_SLOT) */\n      tag_475\n        /* \"@openzeppelin/contracts/proxy/ERC1967/ERC1967Utils.sol\":811:877  0x360894a13ba1a3210667c828492db98dca3e2076cc3735a920a3ca505d382bbc */\n      0x360894a13ba1a3210667c828492db98dca3e2076cc3735a920a3ca505d382bbc\n        /* \"@openzeppelin/contracts/proxy/ERC1967/ERC1967Utils.sol\":1899:1918  IMPLEMENTATION_SLOT */\n      0x00\n      shl\n        /* \"@openzeppelin/contracts/proxy/ERC1967/ERC1967Utils.sol\":1872:1898  StorageSlot.getAddressSlot */\n      tag_430\n        /* \"@openzeppelin/contracts/proxy/ERC1967/ERC1967Utils.sol\":1872:1919  StorageSlot.getAddressSlot(IMPLEMENTATION_SLOT) */\n      jump\t// in\n    tag_475:\n        /* \"@openzeppelin/contracts/proxy/ERC1967/ERC1967Utils.sol\":1872:1925  StorageSlot.getAddressSlot(IMPLEMENTATION_SLOT).value */\n      0x00\n      add\n      0x00\n        /* \"@openzeppelin/contracts/proxy/ERC1967/ERC1967Utils.sol\":1872:1945  StorageSlot.getAddressSlot(IMPLEMENTATION_SLOT).value = newImplementation */\n      0x0100\n      exp\n      dup2\n      sload\n      dup2\n      0xffffffffffffffffffffffffffffffffffffffff\n      mul\n      not\n      and\n      swap1\n      dup4\n      0xffffffffffffffffffffffffffffffffffffffff\n      and\n      mul\n      or\n      swap1\n      sstore\n      pop\n        /* \"@openzeppelin/contracts/proxy/ERC1967/ERC1967Utils.sol\":1671:1952  function _setImplementation(address newImplementation) private {... */\n      pop\n      jump\t// out\n        /* \"@openzeppelin/contracts/utils/Address.sol\":3900:4153  function functionDelegateCall(address target, bytes memory data) internal returns (bytes memory) {... */\n    tag_436:\n        /* \"@openzeppelin/contracts/utils/Address.sol\":3983:3995  bytes memory */\n      0x60\n        /* \"@openzeppelin/contracts/utils/Address.sol\":4008:4020  bool success */\n      0x00\n        /* \"@openzeppelin/contracts/utils/Address.sol\":4022:4045  bytes memory returndata */\n      dup1\n        /* \"@openzeppelin/contracts/utils/Address.sol\":4049:4055  target */\n      dup5\n        /* \"@openzeppelin/contracts/utils/Address.sol\":4049:4068  target.delegatecall */\n      0xffffffffffffffffffffffffffffffffffffffff\n      and\n        /* \"@openzeppelin/contracts/utils/Address.sol\":4069:4073  data */\n      dup5\n        /* \"@openzeppelin/contracts/utils/Address.sol\":4049:4074  target.delegatecall(data) */\n      mload(0x40)\n      tag_477\n      swap2\n      swap1\n      tag_478\n      jump\t// in\n    tag_477:\n      0x00\n      mload(0x40)\n      dup1\n      dup4\n      sub\n      dup2\n      dup6\n      gas\n      delegatecall\n      swap2\n      pop\n      pop\n      returndatasize\n      dup1\n      0x00\n      dup2\n      eq\n      tag_481\n      jumpi\n      mload(0x40)\n      swap2\n      pop\n      and(add(returndatasize, 0x3f), not(0x1f))\n      dup3\n      add\n      0x40\n      mstore\n      returndatasize\n      dup3\n      mstore\n      returndatasize\n      0x00\n      0x20\n      dup5\n      add\n      returndatacopy\n      jump(tag_480)\n    tag_481:\n      0x60\n      swap2\n      pop\n    tag_480:\n      pop\n        /* \"@openzeppelin/contracts/utils/Address.sol\":4007:4074  (bool success, bytes memory returndata) = target.delegatecall(data) */\n      swap2\n      pop\n      swap2\n      pop\n        /* \"@openzeppelin/contracts/utils/Address.sol\":4091:4146  verifyCallResultFromTarget(target, success, returndata) */\n      tag_482\n        /* \"@openzeppelin/contracts/utils/Address.sol\":4118:4124  target */\n      dup6\n        /* \"@openzeppelin/contracts/utils/Address.sol\":4126:4133  success */\n      dup4\n        /* \"@openzeppelin/contracts/utils/Address.sol\":4135:4145  returndata */\n      dup4\n        /* \"@openzeppelin/contracts/utils/Address.sol\":4091:4117  verifyCallResultFromTarget */\n      tag_483\n        /* \"@openzeppelin/contracts/utils/Address.sol\":4091:4146  verifyCallResultFromTarget(target, success, returndata) */\n      jump\t// in\n    tag_482:\n        /* \"@openzeppelin/contracts/utils/Address.sol\":4084:4146  return verifyCallResultFromTarget(target, success, returndata) */\n      swap3\n      pop\n      pop\n      pop\n        /* \"@openzeppelin/contracts/utils/Address.sol\":3900:4153  function functionDelegateCall(address target, bytes memory data) internal returns (bytes memory) {... */\n      swap3\n      swap2\n      pop\n      pop\n      jump\t// out\n        /* \"@openzeppelin/contracts/proxy/ERC1967/ERC1967Utils.sol\":6113:6235  function _checkNonPayable() private {... */\n    tag_439:\n        /* \"@openzeppelin/contracts/proxy/ERC1967/ERC1967Utils.sol\":6175:6176  0 */\n      0x00\n        /* \"@openzeppelin/contracts/proxy/ERC1967/ERC1967Utils.sol\":6163:6172  msg.value */\n      callvalue\n        /* \"@openzeppelin/contracts/proxy/ERC1967/ERC1967Utils.sol\":6163:6176  msg.value > 0 */\n      gt\n        /* \"@openzeppelin/contracts/proxy/ERC1967/ERC1967Utils.sol\":6159:6229  if (msg.value > 0) {... */\n      iszero\n      tag_485\n      jumpi\n        /* \"@openzeppelin/contracts/proxy/ERC1967/ERC1967Utils.sol\":6199:6218  ERC1967NonPayable() */\n      mload(0x40)\n      0xb398979f00000000000000000000000000000000000000000000000000000000\n      dup2\n      mstore\n      0x04\n      add\n      mload(0x40)\n      dup1\n      swap2\n      sub\n      swap1\n      revert\n        /* \"@openzeppelin/contracts/proxy/ERC1967/ERC1967Utils.sol\":6159:6229  if (msg.value > 0) {... */\n    tag_485:\n        /* \"@openzeppelin/contracts/proxy/ERC1967/ERC1967Utils.sol\":6113:6235  function _checkNonPayable() private {... */\n      jump\t// out\n        /* \"@openzeppelin/contracts-upgradeable/proxy/utils/Initializable.sol\":8487:8607  function _isInitializing() internal view returns (bool) {... */\n    tag_453:\n        /* \"@openzeppelin/contracts-upgradeable/proxy/utils/Initializable.sol\":8537:8541  bool */\n      0x00\n        /* \"@openzeppelin/contracts-upgradeable/proxy/utils/Initializable.sol\":8560:8586  _getInitializableStorage() */\n      tag_487\n        /* \"@openzeppelin/contracts-upgradeable/proxy/utils/Initializable.sol\":8560:8584  _getInitializableStorage */\n      tag_286\n        /* \"@openzeppelin/contracts-upgradeable/proxy/utils/Initializable.sol\":8560:8586  _getInitializableStorage() */\n      jump\t// in\n    tag_487:\n        /* \"@openzeppelin/contracts-upgradeable/proxy/utils/Initializable.sol\":8560:8600  _getInitializableStorage()._initializing */\n      0x00\n      add\n      0x08\n      swap1\n      sload\n      swap1\n      0x0100\n      exp\n      swap1\n      div\n      0xff\n      and\n        /* \"@openzeppelin/contracts-upgradeable/proxy/utils/Initializable.sol\":8553:8600  return _getInitializableStorage()._initializing */\n      swap1\n      pop\n        /* \"@openzeppelin/contracts-upgradeable/proxy/utils/Initializable.sol\":8487:8607  function _isInitializing() internal view returns (bool) {... */\n      swap1\n      jump\t// out\n        /* \"@openzeppelin/contracts/utils/Address.sol\":4421:5003  function verifyCallResultFromTarget(... */\n    tag_483:\n        /* \"@openzeppelin/contracts/utils/Address.sol\":4565:4577  bytes memory */\n      0x60\n        /* \"@openzeppelin/contracts/utils/Address.sol\":4594:4601  success */\n      dup3\n        /* \"@openzeppelin/contracts/utils/Address.sol\":4589:4997  if (!success) {... */\n      tag_489\n      jumpi\n        /* \"@openzeppelin/contracts/utils/Address.sol\":4617:4636  _revert(returndata) */\n      tag_490\n        /* \"@openzeppelin/contracts/utils/Address.sol\":4625:4635  returndata */\n      dup3\n        /* \"@openzeppelin/contracts/utils/Address.sol\":4617:4624  _revert */\n      tag_491\n        /* \"@openzeppelin/contracts/utils/Address.sol\":4617:4636  _revert(returndata) */\n      jump\t// in\n    tag_490:\n        /* \"@openzeppelin/contracts/utils/Address.sol\":4589:4997  if (!success) {... */\n      jump(tag_492)\n    tag_489:\n        /* \"@openzeppelin/contracts/utils/Address.sol\":4862:4863  0 */\n      0x00\n        /* \"@openzeppelin/contracts/utils/Address.sol\":4841:4851  returndata */\n      dup3\n        /* \"@openzeppelin/contracts/utils/Address.sol\":4841:4858  returndata.length */\n      mload\n        /* \"@openzeppelin/contracts/utils/Address.sol\":4841:4863  returndata.length == 0 */\n      eq\n        /* \"@openzeppelin/contracts/utils/Address.sol\":4841:4890  returndata.length == 0 && target.code.length == 0 */\n      dup1\n      iszero\n      tag_493\n      jumpi\n      pop\n        /* \"@openzeppelin/contracts/utils/Address.sol\":4889:4890  0 */\n      0x00\n        /* \"@openzeppelin/contracts/utils/Address.sol\":4867:4873  target */\n      dup5\n        /* \"@openzeppelin/contracts/utils/Address.sol\":4867:4885  target.code.length */\n      0xffffffffffffffffffffffffffffffffffffffff\n      and\n      extcodesize\n        /* \"@openzeppelin/contracts/utils/Address.sol\":4867:4890  target.code.length == 0 */\n      eq\n        /* \"@openzeppelin/contracts/utils/Address.sol\":4841:4890  returndata.length == 0 && target.code.length == 0 */\n    tag_493:\n        /* \"@openzeppelin/contracts/utils/Address.sol\":4837:4956  if (returndata.length == 0 && target.code.length == 0) {... */\n      iszero\n      tag_494\n      jumpi\n        /* \"@openzeppelin/contracts/utils/Address.sol\":4934:4940  target */\n      dup4\n        /* \"@openzeppelin/contracts/utils/Address.sol\":4917:4941  AddressEmptyCode(target) */\n      mload(0x40)\n      0x9996b31500000000000000000000000000000000000000000000000000000000\n      dup2\n      mstore\n      0x04\n      add\n      tag_495\n      swap2\n      swap1\n      tag_113\n      jump\t// in\n    tag_495:\n      mload(0x40)\n      dup1\n      swap2\n      sub\n      swap1\n      revert\n        /* \"@openzeppelin/contracts/utils/Address.sol\":4837:4956  if (returndata.length == 0 && target.code.length == 0) {... */\n    tag_494:\n        /* \"@openzeppelin/contracts/utils/Address.sol\":4976:4986  returndata */\n      dup2\n        /* \"@openzeppelin/contracts/utils/Address.sol\":4969:4986  return returndata */\n      swap1\n      pop\n      jump(tag_488)\n        /* \"@openzeppelin/contracts/utils/Address.sol\":4589:4997  if (!success) {... */\n    tag_492:\n        /* \"@openzeppelin/contracts/utils/Address.sol\":4421:5003  function verifyCallResultFromTarget(... */\n    tag_488:\n      swap4\n      swap3\n      pop\n      pop\n      pop\n      jump\t// out\n        /* \"@openzeppelin/contracts/utils/Address.sol\":5543:6030  function _revert(bytes memory returndata) private pure {... */\n    tag_491:\n        /* \"@openzeppelin/contracts/utils/Address.sol\":5694:5695  0 */\n      0x00\n        /* \"@openzeppelin/contracts/utils/Address.sol\":5674:5684  returndata */\n      dup2\n        /* \"@openzeppelin/contracts/utils/Address.sol\":5674:5691  returndata.length */\n      mload\n        /* \"@openzeppelin/contracts/utils/Address.sol\":5674:5695  returndata.length > 0 */\n      gt\n        /* \"@openzeppelin/contracts/utils/Address.sol\":5670:6024  if (returndata.length > 0) {... */\n      iszero\n      tag_497\n      jumpi\n        /* \"@openzeppelin/contracts/utils/Address.sol\":5871:5881  returndata */\n      dup1\n        /* \"@openzeppelin/contracts/utils/Address.sol\":5865:5882  mload(returndata) */\n      mload\n        /* \"@openzeppelin/contracts/utils/Address.sol\":5927:5942  returndata_size */\n      dup1\n        /* \"@openzeppelin/contracts/utils/Address.sol\":5914:5924  returndata */\n      dup3\n        /* \"@openzeppelin/contracts/utils/Address.sol\":5910:5912  32 */\n      0x20\n        /* \"@openzeppelin/contracts/utils/Address.sol\":5906:5925  add(32, returndata) */\n      add\n        /* \"@openzeppelin/contracts/utils/Address.sol\":5899:5943  revert(add(32, returndata), returndata_size) */\n      revert\n        /* \"@openzeppelin/contracts/utils/Address.sol\":5670:6024  if (returndata.length > 0) {... */\n    tag_497:\n        /* \"@openzeppelin/contracts/utils/Address.sol\":5994:6013  Errors.FailedCall() */\n      mload(0x40)\n      0xd6bda27500000000000000000000000000000000000000000000000000000000\n      dup2\n      mstore\n      0x04\n      add\n      mload(0x40)\n      dup1\n      swap2\n      sub\n      swap1\n      revert\n        /* \"#utility.yul\":7:106   */\n    tag_499:\n        /* \"#utility.yul\":59:65   */\n      0x00\n        /* \"#utility.yul\":93:98   */\n      dup2\n        /* \"#utility.yul\":87:99   */\n      mload\n        /* \"#utility.yul\":77:99   */\n      swap1\n      pop\n        /* \"#utility.yul\":7:106   */\n      swap2\n      swap1\n      pop\n      jump\t// out\n        /* \"#utility.yul\":112:281   */\n    tag_500:\n        /* \"#utility.yul\":196:207   */\n      0x00\n        /* \"#utility.yul\":230:236   */\n      dup3\n        /* \"#utility.yul\":225:228   */\n      dup3\n        /* \"#utility.yul\":218:237   */\n      mstore\n        /* \"#utility.yul\":270:274   */\n      0x20\n        /* \"#utility.yul\":265:268   */\n      dup3\n        /* \"#utility.yul\":261:275   */\n      add\n        /* \"#utility.yul\":246:275   */\n      swap1\n      pop\n        /* \"#utility.yul\":112:281   */\n      swap3\n      swap2\n      pop\n      pop\n      jump\t// out\n        /* \"#utility.yul\":287:535   */\n    tag_501:\n        /* \"#utility.yul\":369:370   */\n      0x00\n        /* \"#utility.yul\":379:492   */\n    tag_586:\n        /* \"#utility.yul\":393:399   */\n      dup4\n        /* \"#utility.yul\":390:391   */\n      dup2\n        /* \"#utility.yul\":387:400   */\n      lt\n        /* \"#utility.yul\":379:492   */\n      iszero\n      tag_588\n      jumpi\n        /* \"#utility.yul\":478:479   */\n      dup1\n        /* \"#utility.yul\":473:476   */\n      dup3\n        /* \"#utility.yul\":469:480   */\n      add\n        /* \"#utility.yul\":463:481   */\n      mload\n        /* \"#utility.yul\":459:460   */\n      dup2\n        /* \"#utility.yul\":454:457   */\n      dup5\n        /* \"#utility.yul\":450:461   */\n      add\n        /* \"#utility.yul\":443:482   */\n      mstore\n        /* \"#utility.yul\":415:417   */\n      0x20\n        /* \"#utility.yul\":412:413   */\n      dup2\n        /* \"#utility.yul\":408:418   */\n      add\n        /* \"#utility.yul\":403:418   */\n      swap1\n      pop\n        /* \"#utility.yul\":379:492   */\n      jump(tag_586)\n    tag_588:\n        /* \"#utility.yul\":526:527   */\n      0x00\n        /* \"#utility.yul\":517:523   */\n      dup5\n        /* \"#utility.yul\":512:515   */\n      dup5\n        /* \"#utility.yul\":508:524   */\n      add\n        /* \"#utility.yul\":501:528   */\n      mstore\n        /* \"#utility.yul\":349:535   */\n      pop\n        /* \"#utility.yul\":287:535   */\n      pop\n      pop\n      pop\n      jump\t// out\n        /* \"#utility.yul\":541:643   */\n    tag_502:\n        /* \"#utility.yul\":582:588   */\n      0x00\n        /* \"#utility.yul\":633:635   */\n      0x1f\n        /* \"#utility.yul\":629:636   */\n      not\n        /* \"#utility.yul\":624:626   */\n      0x1f\n        /* \"#utility.yul\":617:622   */\n      dup4\n        /* \"#utility.yul\":613:627   */\n      add\n        /* \"#utility.yul\":609:637   */\n      and\n        /* \"#utility.yul\":599:637   */\n      swap1\n      pop\n        /* \"#utility.yul\":541:643   */\n      swap2\n      swap1\n      pop\n      jump\t// out\n        /* \"#utility.yul\":649:1026   */\n    tag_503:\n        /* \"#utility.yul\":737:740   */\n      0x00\n        /* \"#utility.yul\":765:804   */\n      tag_591\n        /* \"#utility.yul\":798:803   */\n      dup3\n        /* \"#utility.yul\":765:804   */\n      tag_499\n      jump\t// in\n    tag_591:\n        /* \"#utility.yul\":820:891   */\n      tag_592\n        /* \"#utility.yul\":884:890   */\n      dup2\n        /* \"#utility.yul\":879:882   */\n      dup6\n        /* \"#utility.yul\":820:891   */\n      tag_500\n      jump\t// in\n    tag_592:\n        /* \"#utility.yul\":813:891   */\n      swap4\n      pop\n        /* \"#utility.yul\":900:965   */\n      tag_593\n        /* \"#utility.yul\":958:964   */\n      dup2\n        /* \"#utility.yul\":953:956   */\n      dup6\n        /* \"#utility.yul\":946:950   */\n      0x20\n        /* \"#utility.yul\":939:944   */\n      dup7\n        /* \"#utility.yul\":935:951   */\n      add\n        /* \"#utility.yul\":900:965   */\n      tag_501\n      jump\t// in\n    tag_593:\n        /* \"#utility.yul\":990:1019   */\n      tag_594\n        /* \"#utility.yul\":1012:1018   */\n      dup2\n        /* \"#utility.yul\":990:1019   */\n      tag_502\n      jump\t// in\n    tag_594:\n        /* \"#utility.yul\":985:988   */\n      dup5\n        /* \"#utility.yul\":981:1020   */\n      add\n        /* \"#utility.yul\":974:1020   */\n      swap2\n      pop\n        /* \"#utility.yul\":741:1026   */\n      pop\n        /* \"#utility.yul\":649:1026   */\n      swap3\n      swap2\n      pop\n      pop\n      jump\t// out\n        /* \"#utility.yul\":1032:1345   */\n    tag_39:\n        /* \"#utility.yul\":1145:1149   */\n      0x00\n        /* \"#utility.yul\":1183:1185   */\n      0x20\n        /* \"#utility.yul\":1172:1181   */\n      dup3\n        /* \"#utility.yul\":1168:1186   */\n      add\n        /* \"#utility.yul\":1160:1186   */\n      swap1\n      pop\n        /* \"#utility.yul\":1232:1241   */\n      dup2\n        /* \"#utility.yul\":1226:1230   */\n      dup2\n        /* \"#utility.yul\":1222:1242   */\n      sub\n        /* \"#utility.yul\":1218:1219   */\n      0x00\n        /* \"#utility.yul\":1207:1216   */\n      dup4\n        /* \"#utility.yul\":1203:1220   */\n      add\n        /* \"#utility.yul\":1196:1243   */\n      mstore\n        /* \"#utility.yul\":1260:1338   */\n      tag_596\n        /* \"#utility.yul\":1333:1337   */\n      dup2\n        /* \"#utility.yul\":1324:1330   */\n      dup5\n        /* \"#utility.yul\":1260:1338   */\n      tag_503\n      jump\t// in\n    tag_596:\n        /* \"#utility.yul\":1252:1338   */\n      swap1\n      pop\n        /* \"#utility.yul\":1032:1345   */\n      swap3\n      swap2\n      pop\n      pop\n      jump\t// out\n        /* \"#utility.yul\":1351:1426   */\n    tag_504:\n        /* \"#utility.yul\":1384:1390   */\n      0x00\n        /* \"#utility.yul\":1417:1419   */\n      0x40\n        /* \"#utility.yul\":1411:1420   */\n      mload\n        /* \"#utility.yul\":1401:1420   */\n      swap1\n      pop\n        /* \"#utility.yul\":1351:1426   */\n      swap1\n      jump\t// out\n        /* \"#utility.yul\":1432:1549   */\n    tag_505:\n        /* \"#utility.yul\":1541:1542   */\n      0x00\n        /* \"#utility.yul\":1538:1539   */\n      dup1\n        /* \"#utility.yul\":1531:1543   */\n      revert\n        /* \"#utility.yul\":1555:1672   */\n    tag_506:\n        /* \"#utility.yul\":1664:1665   */\n      0x00\n        /* \"#utility.yul\":1661:1662   */\n      dup1\n        /* \"#utility.yul\":1654:1666   */\n      revert\n        /* \"#utility.yul\":1678:1804   */\n    tag_507:\n        /* \"#utility.yul\":1715:1722   */\n      0x00\n        /* \"#utility.yul\":1755:1797   */\n      0xffffffffffffffffffffffffffffffffffffffff\n        /* \"#utility.yul\":1748:1753   */\n      dup3\n        /* \"#utility.yul\":1744:1798   */\n      and\n        /* \"#utility.yul\":1733:1798   */\n      swap1\n      pop\n        /* \"#utility.yul\":1678:1804   */\n      swap2\n      swap1\n      pop\n      jump\t// out\n        /* \"#utility.yul\":1810:1906   */\n    tag_508:\n        /* \"#utility.yul\":1847:1854   */\n      0x00\n        /* \"#utility.yul\":1876:1900   */\n      tag_602\n        /* \"#utility.yul\":1894:1899   */\n      dup3\n        /* \"#utility.yul\":1876:1900   */\n      tag_507\n      jump\t// in\n    tag_602:\n        /* \"#utility.yul\":1865:1900   */\n      swap1\n      pop\n        /* \"#utility.yul\":1810:1906   */\n      swap2\n      swap1\n      pop\n      jump\t// out\n        /* \"#utility.yul\":1912:2034   */\n    tag_509:\n        /* \"#utility.yul\":1985:2009   */\n      tag_604\n        /* \"#utility.yul\":2003:2008   */\n      dup2\n        /* \"#utility.yul\":1985:2009   */\n      tag_508\n      jump\t// in\n    tag_604:\n        /* \"#utility.yul\":1978:1983   */\n      dup2\n        /* \"#utility.yul\":1975:2010   */\n      eq\n        /* \"#utility.yul\":1965:2028   */\n      tag_605\n      jumpi\n        /* \"#utility.yul\":2024:2025   */\n      0x00\n        /* \"#utility.yul\":2021:2022   */\n      dup1\n        /* \"#utility.yul\":2014:2026   */\n      revert\n        /* \"#utility.yul\":1965:2028   */\n    tag_605:\n        /* \"#utility.yul\":1912:2034   */\n      pop\n      jump\t// out\n        /* \"#utility.yul\":2040:2179   */\n    tag_510:\n        /* \"#utility.yul\":2086:2091   */\n      0x00\n        /* \"#utility.yul\":2124:2130   */\n      dup2\n        /* \"#utility.yul\":2111:2131   */\n      calldataload\n        /* \"#utility.yul\":2102:2131   */\n      swap1\n      pop\n        /* \"#utility.yul\":2140:2173   */\n      tag_607\n        /* \"#utility.yul\":2167:2172   */\n      dup2\n        /* \"#utility.yul\":2140:2173   */\n      tag_509\n      jump\t// in\n    tag_607:\n        /* \"#utility.yul\":2040:2179   */\n      swap3\n      swap2\n      pop\n      pop\n      jump\t// out\n        /* \"#utility.yul\":2185:2262   */\n    tag_511:\n        /* \"#utility.yul\":2222:2229   */\n      0x00\n        /* \"#utility.yul\":2251:2256   */\n      dup2\n        /* \"#utility.yul\":2240:2256   */\n      swap1\n      pop\n        /* \"#utility.yul\":2185:2262   */\n      swap2\n      swap1\n      pop\n      jump\t// out\n        /* \"#utility.yul\":2268:2390   */\n    tag_512:\n        /* \"#utility.yul\":2341:2365   */\n      tag_610\n        /* \"#utility.yul\":2359:2364   */\n      dup2\n        /* \"#utility.yul\":2341:2365   */\n      tag_511\n      jump\t// in\n    tag_610:\n        /* \"#utility.yul\":2334:2339   */\n      dup2\n        /* \"#utility.yul\":2331:2366   */\n      eq\n        /* \"#utility.yul\":2321:2384   */\n      tag_611\n      jumpi\n        /* \"#utility.yul\":2380:2381   */\n      0x00\n        /* \"#utility.yul\":2377:2378   */\n      dup1\n        /* \"#utility.yul\":2370:2382   */\n      revert\n        /* \"#utility.yul\":2321:2384   */\n    tag_611:\n        /* \"#utility.yul\":2268:2390   */\n      pop\n      jump\t// out\n        /* \"#utility.yul\":2396:2535   */\n    tag_513:\n        /* \"#utility.yul\":2442:2447   */\n      0x00\n        /* \"#utility.yul\":2480:2486   */\n      dup2\n        /* \"#utility.yul\":2467:2487   */\n      calldataload\n        /* \"#utility.yul\":2458:2487   */\n      swap1\n      pop\n        /* \"#utility.yul\":2496:2529   */\n      tag_613\n        /* \"#utility.yul\":2523:2528   */\n      dup2\n        /* \"#utility.yul\":2496:2529   */\n      tag_512\n      jump\t// in\n    tag_613:\n        /* \"#utility.yul\":2396:2535   */\n      swap3\n      swap2\n      pop\n      pop\n      jump\t// out\n        /* \"#utility.yul\":2541:3015   */\n    tag_43:\n        /* \"#utility.yul\":2609:2615   */\n      0x00\n        /* \"#utility.yul\":2617:2623   */\n      dup1\n        /* \"#utility.yul\":2666:2668   */\n      0x40\n        /* \"#utility.yul\":2654:2663   */\n      dup4\n        /* \"#utility.yul\":2645:2652   */\n      dup6\n        /* \"#utility.yul\":2641:2664   */\n      sub\n        /* \"#utility.yul\":2637:2669   */\n      slt\n        /* \"#utility.yul\":2634:2753   */\n      iszero\n      tag_615\n      jumpi\n        /* \"#utility.yul\":2672:2751   */\n      tag_616\n      tag_505\n      jump\t// in\n    tag_616:\n        /* \"#utility.yul\":2634:2753   */\n    tag_615:\n        /* \"#utility.yul\":2792:2793   */\n      0x00\n        /* \"#utility.yul\":2817:2870   */\n      tag_617\n        /* \"#utility.yul\":2862:2869   */\n      dup6\n        /* \"#utility.yul\":2853:2859   */\n      dup3\n        /* \"#utility.yul\":2842:2851   */\n      dup7\n        /* \"#utility.yul\":2838:2860   */\n      add\n        /* \"#utility.yul\":2817:2870   */\n      tag_510\n      jump\t// in\n    tag_617:\n        /* \"#utility.yul\":2807:2870   */\n      swap3\n      pop\n        /* \"#utility.yul\":2763:2880   */\n      pop\n        /* \"#utility.yul\":2919:2921   */\n      0x20\n        /* \"#utility.yul\":2945:2998   */\n      tag_618\n        /* \"#utility.yul\":2990:2997   */\n      dup6\n        /* \"#utility.yul\":2981:2987   */\n      dup3\n        /* \"#utility.yul\":2970:2979   */\n      dup7\n        /* \"#utility.yul\":2966:2988   */\n      add\n        /* \"#utility.yul\":2945:2998   */\n      tag_513\n      jump\t// in\n    tag_618:\n        /* \"#utility.yul\":2935:2998   */\n      swap2\n      pop\n        /* \"#utility.yul\":2890:3008   */\n      pop\n        /* \"#utility.yul\":2541:3015   */\n      swap3\n      pop\n      swap3\n      swap1\n      pop\n      jump\t// out\n        /* \"#utility.yul\":3021:3111   */\n    tag_514:\n        /* \"#utility.yul\":3055:3062   */\n      0x00\n        /* \"#utility.yul\":3098:3103   */\n      dup2\n        /* \"#utility.yul\":3091:3104   */\n      iszero\n        /* \"#utility.yul\":3084:3105   */\n      iszero\n        /* \"#utility.yul\":3073:3105   */\n      swap1\n      pop\n        /* \"#utility.yul\":3021:3111   */\n      swap2\n      swap1\n      pop\n      jump\t// out\n        /* \"#utility.yul\":3117:3226   */\n    tag_515:\n        /* \"#utility.yul\":3198:3219   */\n      tag_621\n        /* \"#utility.yul\":3213:3218   */\n      dup2\n        /* \"#utility.yul\":3198:3219   */\n      tag_514\n      jump\t// in\n    tag_621:\n        /* \"#utility.yul\":3193:3196   */\n      dup3\n        /* \"#utility.yul\":3186:3220   */\n      mstore\n        /* \"#utility.yul\":3117:3226   */\n      pop\n      pop\n      jump\t// out\n        /* \"#utility.yul\":3232:3442   */\n    tag_46:\n        /* \"#utility.yul\":3319:3323   */\n      0x00\n        /* \"#utility.yul\":3357:3359   */\n      0x20\n        /* \"#utility.yul\":3346:3355   */\n      dup3\n        /* \"#utility.yul\":3342:3360   */\n      add\n        /* \"#utility.yul\":3334:3360   */\n      swap1\n      pop\n        /* \"#utility.yul\":3370:3435   */\n      tag_623\n        /* \"#utility.yul\":3432:3433   */\n      0x00\n        /* \"#utility.yul\":3421:3430   */\n      dup4\n        /* \"#utility.yul\":3417:3434   */\n      add\n        /* \"#utility.yul\":3408:3414   */\n      dup5\n        /* \"#utility.yul\":3370:3435   */\n      tag_515\n      jump\t// in\n    tag_623:\n        /* \"#utility.yul\":3232:3442   */\n      swap3\n      swap2\n      pop\n      pop\n      jump\t// out\n        /* \"#utility.yul\":3448:3564   */\n    tag_516:\n        /* \"#utility.yul\":3518:3539   */\n      tag_625\n        /* \"#utility.yul\":3533:3538   */\n      dup2\n        /* \"#utility.yul\":3518:3539   */\n      tag_514\n      jump\t// in\n    tag_625:\n        /* \"#utility.yul\":3511:3516   */\n      dup2\n        /* \"#utility.yul\":3508:3540   */\n      eq\n        /* \"#utility.yul\":3498:3558   */\n      tag_626\n      jumpi\n        /* \"#utility.yul\":3554:3555   */\n      0x00\n        /* \"#utility.yul\":3551:3552   */\n      dup1\n        /* \"#utility.yul\":3544:3556   */\n      revert\n        /* \"#utility.yul\":3498:3558   */\n    tag_626:\n        /* \"#utility.yul\":3448:3564   */\n      pop\n      jump\t// out\n        /* \"#utility.yul\":3570:3703   */\n    tag_517:\n        /* \"#utility.yul\":3613:3618   */\n      0x00\n        /* \"#utility.yul\":3651:3657   */\n      dup2\n        /* \"#utility.yul\":3638:3658   */\n      calldataload\n        /* \"#utility.yul\":3629:3658   */\n      swap1\n      pop\n        /* \"#utility.yul\":3667:3697   */\n      tag_628\n        /* \"#utility.yul\":3691:3696   */\n      dup2\n        /* \"#utility.yul\":3667:3697   */\n      tag_516\n      jump\t// in\n    tag_628:\n        /* \"#utility.yul\":3570:3703   */\n      swap3\n      swap2\n      pop\n      pop\n      jump\t// out\n        /* \"#utility.yul\":3709:4177   */\n    tag_50:\n        /* \"#utility.yul\":3774:3780   */\n      0x00\n        /* \"#utility.yul\":3782:3788   */\n      dup1\n        /* \"#utility.yul\":3831:3833   */\n      0x40\n        /* \"#utility.yul\":3819:3828   */\n      dup4\n        /* \"#utility.yul\":3810:3817   */\n      dup6\n        /* \"#utility.yul\":3806:3829   */\n      sub\n        /* \"#utility.yul\":3802:3834   */\n      slt\n        /* \"#utility.yul\":3799:3918   */\n      iszero\n      tag_630\n      jumpi\n        /* \"#utility.yul\":3837:3916   */\n      tag_631\n      tag_505\n      jump\t// in\n    tag_631:\n        /* \"#utility.yul\":3799:3918   */\n    tag_630:\n        /* \"#utility.yul\":3957:3958   */\n      0x00\n        /* \"#utility.yul\":3982:4035   */\n      tag_632\n        /* \"#utility.yul\":4027:4034   */\n      dup6\n        /* \"#utility.yul\":4018:4024   */\n      dup3\n        /* \"#utility.yul\":4007:4016   */\n      dup7\n        /* \"#utility.yul\":4003:4025   */\n      add\n        /* \"#utility.yul\":3982:4035   */\n      tag_510\n      jump\t// in\n    tag_632:\n        /* \"#utility.yul\":3972:4035   */\n      swap3\n      pop\n        /* \"#utility.yul\":3928:4045   */\n      pop\n        /* \"#utility.yul\":4084:4086   */\n      0x20\n        /* \"#utility.yul\":4110:4160   */\n      tag_633\n        /* \"#utility.yul\":4152:4159   */\n      dup6\n        /* \"#utility.yul\":4143:4149   */\n      dup3\n        /* \"#utility.yul\":4132:4141   */\n      dup7\n        /* \"#utility.yul\":4128:4150   */\n      add\n        /* \"#utility.yul\":4110:4160   */\n      tag_517\n      jump\t// in\n    tag_633:\n        /* \"#utility.yul\":4100:4160   */\n      swap2\n      pop\n        /* \"#utility.yul\":4055:4170   */\n      pop\n        /* \"#utility.yul\":3709:4177   */\n      swap3\n      pop\n      swap3\n      swap1\n      pop\n      jump\t// out\n        /* \"#utility.yul\":4183:4301   */\n    tag_518:\n        /* \"#utility.yul\":4270:4294   */\n      tag_635\n        /* \"#utility.yul\":4288:4293   */\n      dup2\n        /* \"#utility.yul\":4270:4294   */\n      tag_511\n      jump\t// in\n    tag_635:\n        /* \"#utility.yul\":4265:4268   */\n      dup3\n        /* \"#utility.yul\":4258:4295   */\n      mstore\n        /* \"#utility.yul\":4183:4301   */\n      pop\n      pop\n      jump\t// out\n        /* \"#utility.yul\":4307:4529   */\n    tag_56:\n        /* \"#utility.yul\":4400:4404   */\n      0x00\n        /* \"#utility.yul\":4438:4440   */\n      0x20\n        /* \"#utility.yul\":4427:4436   */\n      dup3\n        /* \"#utility.yul\":4423:4441   */\n      add\n        /* \"#utility.yul\":4415:4441   */\n      swap1\n      pop\n        /* \"#utility.yul\":4451:4522   */\n      tag_637\n        /* \"#utility.yul\":4519:4520   */\n      0x00\n        /* \"#utility.yul\":4508:4517   */\n      dup4\n        /* \"#utility.yul\":4504:4521   */\n      add\n        /* \"#utility.yul\":4495:4501   */\n      dup5\n        /* \"#utility.yul\":4451:4522   */\n      tag_518\n      jump\t// in\n    tag_637:\n        /* \"#utility.yul\":4307:4529   */\n      swap3\n      swap2\n      pop\n      pop\n      jump\t// out\n        /* \"#utility.yul\":4535:5154   */\n    tag_60:\n        /* \"#utility.yul\":4612:4618   */\n      0x00\n        /* \"#utility.yul\":4620:4626   */\n      dup1\n        /* \"#utility.yul\":4628:4634   */\n      0x00\n        /* \"#utility.yul\":4677:4679   */\n      0x60\n        /* \"#utility.yul\":4665:4674   */\n      dup5\n        /* \"#utility.yul\":4656:4663   */\n      dup7\n        /* \"#utility.yul\":4652:4675   */\n      sub\n        /* \"#utility.yul\":4648:4680   */\n      slt\n        /* \"#utility.yul\":4645:4764   */\n      iszero\n      tag_639\n      jumpi\n        /* \"#utility.yul\":4683:4762   */\n      tag_640\n      tag_505\n      jump\t// in\n    tag_640:\n        /* \"#utility.yul\":4645:4764   */\n    tag_639:\n        /* \"#utility.yul\":4803:4804   */\n      0x00\n        /* \"#utility.yul\":4828:4881   */\n      tag_641\n        /* \"#utility.yul\":4873:4880   */\n      dup7\n        /* \"#utility.yul\":4864:4870   */\n      dup3\n        /* \"#utility.yul\":4853:4862   */\n      dup8\n        /* \"#utility.yul\":4849:4871   */\n      add\n        /* \"#utility.yul\":4828:4881   */\n      tag_510\n      jump\t// in\n    tag_641:\n        /* \"#utility.yul\":4818:4881   */\n      swap4\n      pop\n        /* \"#utility.yul\":4774:4891   */\n      pop\n        /* \"#utility.yul\":4930:4932   */\n      0x20\n        /* \"#utility.yul\":4956:5009   */\n      tag_642\n        /* \"#utility.yul\":5001:5008   */\n      dup7\n        /* \"#utility.yul\":4992:4998   */\n      dup3\n        /* \"#utility.yul\":4981:4990   */\n      dup8\n        /* \"#utility.yul\":4977:4999   */\n      add\n        /* \"#utility.yul\":4956:5009   */\n      tag_510\n      jump\t// in\n    tag_642:\n        /* \"#utility.yul\":4946:5009   */\n      swap3\n      pop\n        /* \"#utility.yul\":4901:5019   */\n      pop\n        /* \"#utility.yul\":5058:5060   */\n      0x40\n        /* \"#utility.yul\":5084:5137   */\n      tag_643\n        /* \"#utility.yul\":5129:5136   */\n      dup7\n        /* \"#utility.yul\":5120:5126   */\n      dup3\n        /* \"#utility.yul\":5109:5118   */\n      dup8\n        /* \"#utility.yul\":5105:5127   */\n      add\n        /* \"#utility.yul\":5084:5137   */\n      tag_513\n      jump\t// in\n    tag_643:\n        /* \"#utility.yul\":5074:5137   */\n      swap2\n      pop\n        /* \"#utility.yul\":5029:5147   */\n      pop\n        /* \"#utility.yul\":4535:5154   */\n      swap3\n      pop\n      swap3\n      pop\n      swap3\n      jump\t// out\n        /* \"#utility.yul\":5160:5489   */\n    tag_66:\n        /* \"#utility.yul\":5219:5225   */\n      0x00\n        /* \"#utility.yul\":5268:5270   */\n      0x20\n        /* \"#utility.yul\":5256:5265   */\n      dup3\n        /* \"#utility.yul\":5247:5254   */\n      dup5\n        /* \"#utility.yul\":5243:5266   */\n      sub\n        /* \"#utility.yul\":5239:5271   */\n      slt\n        /* \"#utility.yul\":5236:5355   */\n      iszero\n      tag_645\n      jumpi\n        /* \"#utility.yul\":5274:5353   */\n      tag_646\n      tag_505\n      jump\t// in\n    tag_646:\n        /* \"#utility.yul\":5236:5355   */\n    tag_645:\n        /* \"#utility.yul\":5394:5395   */\n      0x00\n        /* \"#utility.yul\":5419:5472   */\n      tag_647\n        /* \"#utility.yul\":5464:5471   */\n      dup5\n        /* \"#utility.yul\":5455:5461   */\n      dup3\n        /* \"#utility.yul\":5444:5453   */\n      dup6\n        /* \"#utility.yul\":5440:5462   */\n      add\n        /* \"#utility.yul\":5419:5472   */\n      tag_510\n      jump\t// in\n    tag_647:\n        /* \"#utility.yul\":5409:5472   */\n      swap2\n      pop\n        /* \"#utility.yul\":5365:5482   */\n      pop\n        /* \"#utility.yul\":5160:5489   */\n      swap3\n      swap2\n      pop\n      pop\n      jump\t// out\n        /* \"#utility.yul\":5495:5581   */\n    tag_519:\n        /* \"#utility.yul\":5530:5537   */\n      0x00\n        /* \"#utility.yul\":5570:5574   */\n      0xff\n        /* \"#utility.yul\":5563:5568   */\n      dup3\n        /* \"#utility.yul\":5559:5575   */\n      and\n        /* \"#utility.yul\":5548:5575   */\n      swap1\n      pop\n        /* \"#utility.yul\":5495:5581   */\n      swap2\n      swap1\n      pop\n      jump\t// out\n        /* \"#utility.yul\":5587:5699   */\n    tag_520:\n        /* \"#utility.yul\":5670:5692   */\n      tag_650\n        /* \"#utility.yul\":5686:5691   */\n      dup2\n        /* \"#utility.yul\":5670:5692   */\n      tag_519\n      jump\t// in\n    tag_650:\n        /* \"#utility.yul\":5665:5668   */\n      dup3\n        /* \"#utility.yul\":5658:5693   */\n      mstore\n        /* \"#utility.yul\":5587:5699   */\n      pop\n      pop\n      jump\t// out\n        /* \"#utility.yul\":5705:5919   */\n    tag_72:\n        /* \"#utility.yul\":5794:5798   */\n      0x00\n        /* \"#utility.yul\":5832:5834   */\n      0x20\n        /* \"#utility.yul\":5821:5830   */\n      dup3\n        /* \"#utility.yul\":5817:5835   */\n      add\n        /* \"#utility.yul\":5809:5835   */\n      swap1\n      pop\n        /* \"#utility.yul\":5845:5912   */\n      tag_652\n        /* \"#utility.yul\":5909:5910   */\n      0x00\n        /* \"#utility.yul\":5898:5907   */\n      dup4\n        /* \"#utility.yul\":5894:5911   */\n      add\n        /* \"#utility.yul\":5885:5891   */\n      dup5\n        /* \"#utility.yul\":5845:5912   */\n      tag_520\n      jump\t// in\n    tag_652:\n        /* \"#utility.yul\":5705:5919   */\n      swap3\n      swap2\n      pop\n      pop\n      jump\t// out\n        /* \"#utility.yul\":5925:6042   */\n    tag_521:\n        /* \"#utility.yul\":6034:6035   */\n      0x00\n        /* \"#utility.yul\":6031:6032   */\n      dup1\n        /* \"#utility.yul\":6024:6036   */\n      revert\n        /* \"#utility.yul\":6048:6165   */\n    tag_522:\n        /* \"#utility.yul\":6157:6158   */\n      0x00\n        /* \"#utility.yul\":6154:6155   */\n      dup1\n        /* \"#utility.yul\":6147:6159   */\n      revert\n        /* \"#utility.yul\":6171:6351   */\n    tag_523:\n        /* \"#utility.yul\":6219:6296   */\n      0x4e487b7100000000000000000000000000000000000000000000000000000000\n        /* \"#utility.yul\":6216:6217   */\n      0x00\n        /* \"#utility.yul\":6209:6297   */\n      mstore\n        /* \"#utility.yul\":6316:6320   */\n      0x41\n        /* \"#utility.yul\":6313:6314   */\n      0x04\n        /* \"#utility.yul\":6306:6321   */\n      mstore\n        /* \"#utility.yul\":6340:6344   */\n      0x24\n        /* \"#utility.yul\":6337:6338   */\n      0x00\n        /* \"#utility.yul\":6330:6345   */\n      revert\n        /* \"#utility.yul\":6357:6638   */\n    tag_524:\n        /* \"#utility.yul\":6440:6467   */\n      tag_657\n        /* \"#utility.yul\":6462:6466   */\n      dup3\n        /* \"#utility.yul\":6440:6467   */\n      tag_502\n      jump\t// in\n    tag_657:\n        /* \"#utility.yul\":6432:6438   */\n      dup2\n        /* \"#utility.yul\":6428:6468   */\n      add\n        /* \"#utility.yul\":6570:6576   */\n      dup2\n        /* \"#utility.yul\":6558:6568   */\n      dup2\n        /* \"#utility.yul\":6555:6577   */\n      lt\n        /* \"#utility.yul\":6534:6552   */\n      0xffffffffffffffff\n        /* \"#utility.yul\":6522:6532   */\n      dup3\n        /* \"#utility.yul\":6519:6553   */\n      gt\n        /* \"#utility.yul\":6516:6578   */\n      or\n        /* \"#utility.yul\":6513:6601   */\n      iszero\n      tag_658\n      jumpi\n        /* \"#utility.yul\":6581:6599   */\n      tag_659\n      tag_523\n      jump\t// in\n    tag_659:\n        /* \"#utility.yul\":6513:6601   */\n    tag_658:\n        /* \"#utility.yul\":6621:6631   */\n      dup1\n        /* \"#utility.yul\":6617:6619   */\n      0x40\n        /* \"#utility.yul\":6610:6632   */\n      mstore\n        /* \"#utility.yul\":6400:6638   */\n      pop\n        /* \"#utility.yul\":6357:6638   */\n      pop\n      pop\n      jump\t// out\n        /* \"#utility.yul\":6644:6773   */\n    tag_525:\n        /* \"#utility.yul\":6678:6684   */\n      0x00\n        /* \"#utility.yul\":6705:6725   */\n      tag_661\n      tag_504\n      jump\t// in\n    tag_661:\n        /* \"#utility.yul\":6695:6725   */\n      swap1\n      pop\n        /* \"#utility.yul\":6734:6767   */\n      tag_662\n        /* \"#utility.yul\":6762:6766   */\n      dup3\n        /* \"#utility.yul\":6754:6760   */\n      dup3\n        /* \"#utility.yul\":6734:6767   */\n      tag_524\n      jump\t// in\n    tag_662:\n        /* \"#utility.yul\":6644:6773   */\n      swap2\n      swap1\n      pop\n      jump\t// out\n        /* \"#utility.yul\":6779:7086   */\n    tag_526:\n        /* \"#utility.yul\":6840:6844   */\n      0x00\n        /* \"#utility.yul\":6930:6948   */\n      0xffffffffffffffff\n        /* \"#utility.yul\":6922:6928   */\n      dup3\n        /* \"#utility.yul\":6919:6949   */\n      gt\n        /* \"#utility.yul\":6916:6972   */\n      iszero\n      tag_664\n      jumpi\n        /* \"#utility.yul\":6952:6970   */\n      tag_665\n      tag_523\n      jump\t// in\n    tag_665:\n        /* \"#utility.yul\":6916:6972   */\n    tag_664:\n        /* \"#utility.yul\":6990:7019   */\n      tag_666\n        /* \"#utility.yul\":7012:7018   */\n      dup3\n        /* \"#utility.yul\":6990:7019   */\n      tag_502\n      jump\t// in\n    tag_666:\n        /* \"#utility.yul\":6982:7019   */\n      swap1\n      pop\n        /* \"#utility.yul\":7074:7078   */\n      0x20\n        /* \"#utility.yul\":7068:7072   */\n      dup2\n        /* \"#utility.yul\":7064:7079   */\n      add\n        /* \"#utility.yul\":7056:7079   */\n      swap1\n      pop\n        /* \"#utility.yul\":6779:7086   */\n      swap2\n      swap1\n      pop\n      jump\t// out\n        /* \"#utility.yul\":7092:7240   */\n    tag_527:\n        /* \"#utility.yul\":7190:7196   */\n      dup3\n        /* \"#utility.yul\":7185:7188   */\n      dup2\n        /* \"#utility.yul\":7180:7183   */\n      dup4\n        /* \"#utility.yul\":7167:7197   */\n      calldatacopy\n        /* \"#utility.yul\":7231:7232   */\n      0x00\n        /* \"#utility.yul\":7222:7228   */\n      dup4\n        /* \"#utility.yul\":7217:7220   */\n      dup4\n        /* \"#utility.yul\":7213:7229   */\n      add\n        /* \"#utility.yul\":7206:7233   */\n      mstore\n        /* \"#utility.yul\":7092:7240   */\n      pop\n      pop\n      pop\n      jump\t// out\n        /* \"#utility.yul\":7246:7669   */\n    tag_528:\n        /* \"#utility.yul\":7323:7328   */\n      0x00\n        /* \"#utility.yul\":7348:7413   */\n      tag_669\n        /* \"#utility.yul\":7364:7412   */\n      tag_670\n        /* \"#utility.yul\":7405:7411   */\n      dup5\n        /* \"#utility.yul\":7364:7412   */\n      tag_526\n      jump\t// in\n    tag_670:\n        /* \"#utility.yul\":7348:7413   */\n      tag_525\n      jump\t// in\n    tag_669:\n        /* \"#utility.yul\":7339:7413   */\n      swap1\n      pop\n        /* \"#utility.yul\":7436:7442   */\n      dup3\n        /* \"#utility.yul\":7429:7434   */\n      dup2\n        /* \"#utility.yul\":7422:7443   */\n      mstore\n        /* \"#utility.yul\":7474:7478   */\n      0x20\n        /* \"#utility.yul\":7467:7472   */\n      dup2\n        /* \"#utility.yul\":7463:7479   */\n      add\n        /* \"#utility.yul\":7512:7515   */\n      dup5\n        /* \"#utility.yul\":7503:7509   */\n      dup5\n        /* \"#utility.yul\":7498:7501   */\n      dup5\n        /* \"#utility.yul\":7494:7510   */\n      add\n        /* \"#utility.yul\":7491:7516   */\n      gt\n        /* \"#utility.yul\":7488:7600   */\n      iszero\n      tag_671\n      jumpi\n        /* \"#utility.yul\":7519:7598   */\n      tag_672\n      tag_522\n      jump\t// in\n    tag_672:\n        /* \"#utility.yul\":7488:7600   */\n    tag_671:\n        /* \"#utility.yul\":7609:7663   */\n      tag_673\n        /* \"#utility.yul\":7656:7662   */\n      dup5\n        /* \"#utility.yul\":7651:7654   */\n      dup3\n        /* \"#utility.yul\":7646:7649   */\n      dup6\n        /* \"#utility.yul\":7609:7663   */\n      tag_527\n      jump\t// in\n    tag_673:\n        /* \"#utility.yul\":7329:7669   */\n      pop\n        /* \"#utility.yul\":7246:7669   */\n      swap4\n      swap3\n      pop\n      pop\n      pop\n      jump\t// out\n        /* \"#utility.yul\":7688:8026   */\n    tag_529:\n        /* \"#utility.yul\":7743:7748   */\n      0x00\n        /* \"#utility.yul\":7792:7795   */\n      dup3\n        /* \"#utility.yul\":7785:7789   */\n      0x1f\n        /* \"#utility.yul\":7777:7783   */\n      dup4\n        /* \"#utility.yul\":7773:7790   */\n      add\n        /* \"#utility.yul\":7769:7796   */\n      slt\n        /* \"#utility.yul\":7759:7881   */\n      tag_675\n      jumpi\n        /* \"#utility.yul\":7800:7879   */\n      tag_676\n      tag_521\n      jump\t// in\n    tag_676:\n        /* \"#utility.yul\":7759:7881   */\n    tag_675:\n        /* \"#utility.yul\":7917:7923   */\n      dup2\n        /* \"#utility.yul\":7904:7924   */\n      calldataload\n        /* \"#utility.yul\":7942:8020   */\n      tag_677\n        /* \"#utility.yul\":8016:8019   */\n      dup5\n        /* \"#utility.yul\":8008:8014   */\n      dup3\n        /* \"#utility.yul\":8001:8005   */\n      0x20\n        /* \"#utility.yul\":7993:7999   */\n      dup7\n        /* \"#utility.yul\":7989:8006   */\n      add\n        /* \"#utility.yul\":7942:8020   */\n      tag_528\n      jump\t// in\n    tag_677:\n        /* \"#utility.yul\":7933:8020   */\n      swap2\n      pop\n        /* \"#utility.yul\":7749:8026   */\n      pop\n        /* \"#utility.yul\":7688:8026   */\n      swap3\n      swap2\n      pop\n      pop\n      jump\t// out\n        /* \"#utility.yul\":8032:8684   */\n    tag_82:\n        /* \"#utility.yul\":8109:8115   */\n      0x00\n        /* \"#utility.yul\":8117:8123   */\n      dup1\n        /* \"#utility.yul\":8166:8168   */\n      0x40\n        /* \"#utility.yul\":8154:8163   */\n      dup4\n        /* \"#utility.yul\":8145:8152   */\n      dup6\n        /* \"#utility.yul\":8141:8164   */\n      sub\n        /* \"#utility.yul\":8137:8169   */\n      slt\n        /* \"#utility.yul\":8134:8253   */\n      iszero\n      tag_679\n      jumpi\n        /* \"#utility.yul\":8172:8251   */\n      tag_680\n      tag_505\n      jump\t// in\n    tag_680:\n        /* \"#utility.yul\":8134:8253   */\n    tag_679:\n        /* \"#utility.yul\":8292:8293   */\n      0x00\n        /* \"#utility.yul\":8317:8370   */\n      tag_681\n        /* \"#utility.yul\":8362:8369   */\n      dup6\n        /* \"#utility.yul\":8353:8359   */\n      dup3\n        /* \"#utility.yul\":8342:8351   */\n      dup7\n        /* \"#utility.yul\":8338:8360   */\n      add\n        /* \"#utility.yul\":8317:8370   */\n      tag_510\n      jump\t// in\n    tag_681:\n        /* \"#utility.yul\":8307:8370   */\n      swap3\n      pop\n        /* \"#utility.yul\":8263:8380   */\n      pop\n        /* \"#utility.yul\":8447:8449   */\n      0x20\n        /* \"#utility.yul\":8436:8445   */\n      dup4\n        /* \"#utility.yul\":8432:8450   */\n      add\n        /* \"#utility.yul\":8419:8451   */\n      calldataload\n        /* \"#utility.yul\":8478:8496   */\n      0xffffffffffffffff\n        /* \"#utility.yul\":8470:8476   */\n      dup2\n        /* \"#utility.yul\":8467:8497   */\n      gt\n        /* \"#utility.yul\":8464:8581   */\n      iszero\n      tag_682\n      jumpi\n        /* \"#utility.yul\":8500:8579   */\n      tag_683\n      tag_506\n      jump\t// in\n    tag_683:\n        /* \"#utility.yul\":8464:8581   */\n    tag_682:\n        /* \"#utility.yul\":8605:8667   */\n      tag_684\n        /* \"#utility.yul\":8659:8666   */\n      dup6\n        /* \"#utility.yul\":8650:8656   */\n      dup3\n        /* \"#utility.yul\":8639:8648   */\n      dup7\n        /* \"#utility.yul\":8635:8657   */\n      add\n        /* \"#utility.yul\":8605:8667   */\n      tag_529\n      jump\t// in\n    tag_684:\n        /* \"#utility.yul\":8595:8667   */\n      swap2\n      pop\n        /* \"#utility.yul\":8390:8677   */\n      pop\n        /* \"#utility.yul\":8032:8684   */\n      swap3\n      pop\n      swap3\n      swap1\n      pop\n      jump\t// out\n        /* \"#utility.yul\":8690:8767   */\n    tag_530:\n        /* \"#utility.yul\":8727:8734   */\n      0x00\n        /* \"#utility.yul\":8756:8761   */\n      dup2\n        /* \"#utility.yul\":8745:8761   */\n      swap1\n      pop\n        /* \"#utility.yul\":8690:8767   */\n      swap2\n      swap1\n      pop\n      jump\t// out\n        /* \"#utility.yul\":8773:8891   */\n    tag_531:\n        /* \"#utility.yul\":8860:8884   */\n      tag_687\n        /* \"#utility.yul\":8878:8883   */\n      dup2\n        /* \"#utility.yul\":8860:8884   */\n      tag_530\n      jump\t// in\n    tag_687:\n        /* \"#utility.yul\":8855:8858   */\n      dup3\n        /* \"#utility.yul\":8848:8885   */\n      mstore\n        /* \"#utility.yul\":8773:8891   */\n      pop\n      pop\n      jump\t// out\n        /* \"#utility.yul\":8897:9119   */\n    tag_88:\n        /* \"#utility.yul\":8990:8994   */\n      0x00\n        /* \"#utility.yul\":9028:9030   */\n      0x20\n        /* \"#utility.yul\":9017:9026   */\n      dup3\n        /* \"#utility.yul\":9013:9031   */\n      add\n        /* \"#utility.yul\":9005:9031   */\n      swap1\n      pop\n        /* \"#utility.yul\":9041:9112   */\n      tag_689\n        /* \"#utility.yul\":9109:9110   */\n      0x00\n        /* \"#utility.yul\":9098:9107   */\n      dup4\n        /* \"#utility.yul\":9094:9111   */\n      add\n        /* \"#utility.yul\":9085:9091   */\n      dup5\n        /* \"#utility.yul\":9041:9112   */\n      tag_531\n      jump\t// in\n    tag_689:\n        /* \"#utility.yul\":8897:9119   */\n      swap3\n      swap2\n      pop\n      pop\n      jump\t// out\n        /* \"#utility.yul\":9125:9242   */\n    tag_532:\n        /* \"#utility.yul\":9234:9235   */\n      0x00\n        /* \"#utility.yul\":9231:9232   */\n      dup1\n        /* \"#utility.yul\":9224:9236   */\n      revert\n        /* \"#utility.yul\":9248:9365   */\n    tag_533:\n        /* \"#utility.yul\":9357:9358   */\n      0x00\n        /* \"#utility.yul\":9354:9355   */\n      dup1\n        /* \"#utility.yul\":9347:9359   */\n      revert\n        /* \"#utility.yul\":9388:9956   */\n    tag_534:\n        /* \"#utility.yul\":9461:9469   */\n      0x00\n        /* \"#utility.yul\":9471:9477   */\n      dup1\n        /* \"#utility.yul\":9521:9524   */\n      dup4\n        /* \"#utility.yul\":9514:9518   */\n      0x1f\n        /* \"#utility.yul\":9506:9512   */\n      dup5\n        /* \"#utility.yul\":9502:9519   */\n      add\n        /* \"#utility.yul\":9498:9525   */\n      slt\n        /* \"#utility.yul\":9488:9610   */\n      tag_693\n      jumpi\n        /* \"#utility.yul\":9529:9608   */\n      tag_694\n      tag_521\n      jump\t// in\n    tag_694:\n        /* \"#utility.yul\":9488:9610   */\n    tag_693:\n        /* \"#utility.yul\":9642:9648   */\n      dup3\n        /* \"#utility.yul\":9629:9649   */\n      calldataload\n        /* \"#utility.yul\":9619:9649   */\n      swap1\n      pop\n        /* \"#utility.yul\":9672:9690   */\n      0xffffffffffffffff\n        /* \"#utility.yul\":9664:9670   */\n      dup2\n        /* \"#utility.yul\":9661:9691   */\n      gt\n        /* \"#utility.yul\":9658:9775   */\n      iszero\n      tag_695\n      jumpi\n        /* \"#utility.yul\":9694:9773   */\n      tag_696\n      tag_532\n      jump\t// in\n    tag_696:\n        /* \"#utility.yul\":9658:9775   */\n    tag_695:\n        /* \"#utility.yul\":9808:9812   */\n      0x20\n        /* \"#utility.yul\":9800:9806   */\n      dup4\n        /* \"#utility.yul\":9796:9813   */\n      add\n        /* \"#utility.yul\":9784:9813   */\n      swap2\n      pop\n        /* \"#utility.yul\":9862:9865   */\n      dup4\n        /* \"#utility.yul\":9854:9858   */\n      0x20\n        /* \"#utility.yul\":9846:9852   */\n      dup3\n        /* \"#utility.yul\":9842:9859   */\n      mul\n        /* \"#utility.yul\":9832:9840   */\n      dup4\n        /* \"#utility.yul\":9828:9860   */\n      add\n        /* \"#utility.yul\":9825:9866   */\n      gt\n        /* \"#utility.yul\":9822:9950   */\n      iszero\n      tag_697\n      jumpi\n        /* \"#utility.yul\":9869:9948   */\n      tag_698\n      tag_533\n      jump\t// in\n    tag_698:\n        /* \"#utility.yul\":9822:9950   */\n    tag_697:\n        /* \"#utility.yul\":9388:9956   */\n      swap3\n      pop\n      swap3\n      swap1\n      pop\n      jump\t// out\n        /* \"#utility.yul\":9979:10547   */\n    tag_535:\n        /* \"#utility.yul\":10052:10060   */\n      0x00\n        /* \"#utility.yul\":10062:10068   */\n      dup1\n        /* \"#utility.yul\":10112:10115   */\n      dup4\n        /* \"#utility.yul\":10105:10109   */\n      0x1f\n        /* \"#utility.yul\":10097:10103   */\n      dup5\n        /* \"#utility.yul\":10093:10110   */\n      add\n        /* \"#utility.yul\":10089:10116   */\n      slt\n        /* \"#utility.yul\":10079:10201   */\n      tag_700\n      jumpi\n        /* \"#utility.yul\":10120:10199   */\n      tag_701\n      tag_521\n      jump\t// in\n    tag_701:\n        /* \"#utility.yul\":10079:10201   */\n    tag_700:\n        /* \"#utility.yul\":10233:10239   */\n      dup3\n        /* \"#utility.yul\":10220:10240   */\n      calldataload\n        /* \"#utility.yul\":10210:10240   */\n      swap1\n      pop\n        /* \"#utility.yul\":10263:10281   */\n      0xffffffffffffffff\n        /* \"#utility.yul\":10255:10261   */\n      dup2\n        /* \"#utility.yul\":10252:10282   */\n      gt\n        /* \"#utility.yul\":10249:10366   */\n      iszero\n      tag_702\n      jumpi\n        /* \"#utility.yul\":10285:10364   */\n      tag_703\n      tag_532\n      jump\t// in\n    tag_703:\n        /* \"#utility.yul\":10249:10366   */\n    tag_702:\n        /* \"#utility.yul\":10399:10403   */\n      0x20\n        /* \"#utility.yul\":10391:10397   */\n      dup4\n        /* \"#utility.yul\":10387:10404   */\n      add\n        /* \"#utility.yul\":10375:10404   */\n      swap2\n      pop\n        /* \"#utility.yul\":10453:10456   */\n      dup4\n        /* \"#utility.yul\":10445:10449   */\n      0x20\n        /* \"#utility.yul\":10437:10443   */\n      dup3\n        /* \"#utility.yul\":10433:10450   */\n      mul\n        /* \"#utility.yul\":10423:10431   */\n      dup4\n        /* \"#utility.yul\":10419:10451   */\n      add\n        /* \"#utility.yul\":10416:10457   */\n      gt\n        /* \"#utility.yul\":10413:10541   */\n      iszero\n      tag_704\n      jumpi\n        /* \"#utility.yul\":10460:10539   */\n      tag_705\n      tag_533\n      jump\t// in\n    tag_705:\n        /* \"#utility.yul\":10413:10541   */\n    tag_704:\n        /* \"#utility.yul\":9979:10547   */\n      swap3\n      pop\n      swap3\n      swap1\n      pop\n      jump\t// out\n        /* \"#utility.yul\":10553:11487   */\n    tag_107:\n        /* \"#utility.yul\":10675:10681   */\n      0x00\n        /* \"#utility.yul\":10683:10689   */\n      dup1\n        /* \"#utility.yul\":10691:10697   */\n      0x00\n        /* \"#utility.yul\":10699:10705   */\n      dup1\n        /* \"#utility.yul\":10748:10750   */\n      0x40\n        /* \"#utility.yul\":10736:10745   */\n      dup6\n        /* \"#utility.yul\":10727:10734   */\n      dup8\n        /* \"#utility.yul\":10723:10746   */\n      sub\n        /* \"#utility.yul\":10719:10751   */\n      slt\n        /* \"#utility.yul\":10716:10835   */\n      iszero\n      tag_707\n      jumpi\n        /* \"#utility.yul\":10754:10833   */\n      tag_708\n      tag_505\n      jump\t// in\n    tag_708:\n        /* \"#utility.yul\":10716:10835   */\n    tag_707:\n        /* \"#utility.yul\":10902:10903   */\n      0x00\n        /* \"#utility.yul\":10891:10900   */\n      dup6\n        /* \"#utility.yul\":10887:10904   */\n      add\n        /* \"#utility.yul\":10874:10905   */\n      calldataload\n        /* \"#utility.yul\":10932:10950   */\n      0xffffffffffffffff\n        /* \"#utility.yul\":10924:10930   */\n      dup2\n        /* \"#utility.yul\":10921:10951   */\n      gt\n        /* \"#utility.yul\":10918:11035   */\n      iszero\n      tag_709\n      jumpi\n        /* \"#utility.yul\":10954:11033   */\n      tag_710\n      tag_506\n      jump\t// in\n    tag_710:\n        /* \"#utility.yul\":10918:11035   */\n    tag_709:\n        /* \"#utility.yul\":11067:11147   */\n      tag_711\n        /* \"#utility.yul\":11139:11146   */\n      dup8\n        /* \"#utility.yul\":11130:11136   */\n      dup3\n        /* \"#utility.yul\":11119:11128   */\n      dup9\n        /* \"#utility.yul\":11115:11137   */\n      add\n        /* \"#utility.yul\":11067:11147   */\n      tag_534\n      jump\t// in\n    tag_711:\n        /* \"#utility.yul\":11049:11147   */\n      swap5\n      pop\n      swap5\n      pop\n        /* \"#utility.yul\":10845:11157   */\n      pop\n        /* \"#utility.yul\":11224:11226   */\n      0x20\n        /* \"#utility.yul\":11213:11222   */\n      dup6\n        /* \"#utility.yul\":11209:11227   */\n      add\n        /* \"#utility.yul\":11196:11228   */\n      calldataload\n        /* \"#utility.yul\":11255:11273   */\n      0xffffffffffffffff\n        /* \"#utility.yul\":11247:11253   */\n      dup2\n        /* \"#utility.yul\":11244:11274   */\n      gt\n        /* \"#utility.yul\":11241:11358   */\n      iszero\n      tag_712\n      jumpi\n        /* \"#utility.yul\":11277:11356   */\n      tag_713\n      tag_506\n      jump\t// in\n    tag_713:\n        /* \"#utility.yul\":11241:11358   */\n    tag_712:\n        /* \"#utility.yul\":11390:11470   */\n      tag_714\n        /* \"#utility.yul\":11462:11469   */\n      dup8\n        /* \"#utility.yul\":11453:11459   */\n      dup3\n        /* \"#utility.yul\":11442:11451   */\n      dup9\n        /* \"#utility.yul\":11438:11460   */\n      add\n        /* \"#utility.yul\":11390:11470   */\n      tag_535\n      jump\t// in\n    tag_714:\n        /* \"#utility.yul\":11372:11470   */\n      swap3\n      pop\n      swap3\n      pop\n        /* \"#utility.yul\":11167:11480   */\n      pop\n        /* \"#utility.yul\":10553:11487   */\n      swap3\n      swap6\n      swap2\n      swap5\n      pop\n      swap3\n      pop\n      jump\t// out\n        /* \"#utility.yul\":11493:11611   */\n    tag_536:\n        /* \"#utility.yul\":11580:11604   */\n      tag_716\n        /* \"#utility.yul\":11598:11603   */\n      dup2\n        /* \"#utility.yul\":11580:11604   */\n      tag_508\n      jump\t// in\n    tag_716:\n        /* \"#utility.yul\":11575:11578   */\n      dup3\n        /* \"#utility.yul\":11568:11605   */\n      mstore\n        /* \"#utility.yul\":11493:11611   */\n      pop\n      pop\n      jump\t// out\n        /* \"#utility.yul\":11617:11839   */\n    tag_113:\n        /* \"#utility.yul\":11710:11714   */\n      0x00\n        /* \"#utility.yul\":11748:11750   */\n      0x20\n        /* \"#utility.yul\":11737:11746   */\n      dup3\n        /* \"#utility.yul\":11733:11751   */\n      add\n        /* \"#utility.yul\":11725:11751   */\n      swap1\n      pop\n        /* \"#utility.yul\":11761:11832   */\n      tag_718\n        /* \"#utility.yul\":11829:11830   */\n      0x00\n        /* \"#utility.yul\":11818:11827   */\n      dup4\n        /* \"#utility.yul\":11814:11831   */\n      add\n        /* \"#utility.yul\":11805:11811   */\n      dup5\n        /* \"#utility.yul\":11761:11832   */\n      tag_536\n      jump\t// in\n    tag_718:\n        /* \"#utility.yul\":11617:11839   */\n      swap3\n      swap2\n      pop\n      pop\n      jump\t// out\n        /* \"#utility.yul\":11845:12153   */\n    tag_537:\n        /* \"#utility.yul\":11907:11911   */\n      0x00\n        /* \"#utility.yul\":11997:12015   */\n      0xffffffffffffffff\n        /* \"#utility.yul\":11989:11995   */\n      dup3\n        /* \"#utility.yul\":11986:12016   */\n      gt\n        /* \"#utility.yul\":11983:12039   */\n      iszero\n      tag_720\n      jumpi\n        /* \"#utility.yul\":12019:12037   */\n      tag_721\n      tag_523\n      jump\t// in\n    tag_721:\n        /* \"#utility.yul\":11983:12039   */\n    tag_720:\n        /* \"#utility.yul\":12057:12086   */\n      tag_722\n        /* \"#utility.yul\":12079:12085   */\n      dup3\n        /* \"#utility.yul\":12057:12086   */\n      tag_502\n      jump\t// in\n    tag_722:\n        /* \"#utility.yul\":12049:12086   */\n      swap1\n      pop\n        /* \"#utility.yul\":12141:12145   */\n      0x20\n        /* \"#utility.yul\":12135:12139   */\n      dup2\n        /* \"#utility.yul\":12131:12146   */\n      add\n        /* \"#utility.yul\":12123:12146   */\n      swap1\n      pop\n        /* \"#utility.yul\":11845:12153   */\n      swap2\n      swap1\n      pop\n      jump\t// out\n        /* \"#utility.yul\":12159:12584   */\n    tag_538:\n        /* \"#utility.yul\":12237:12242   */\n      0x00\n        /* \"#utility.yul\":12262:12328   */\n      tag_724\n        /* \"#utility.yul\":12278:12327   */\n      tag_725\n        /* \"#utility.yul\":12320:12326   */\n      dup5\n        /* \"#utility.yul\":12278:12327   */\n      tag_537\n      jump\t// in\n    tag_725:\n        /* \"#utility.yul\":12262:12328   */\n      tag_525\n      jump\t// in\n    tag_724:\n        /* \"#utility.yul\":12253:12328   */\n      swap1\n      pop\n        /* \"#utility.yul\":12351:12357   */\n      dup3\n        /* \"#utility.yul\":12344:12349   */\n      dup2\n        /* \"#utility.yul\":12337:12358   */\n      mstore\n        /* \"#utility.yul\":12389:12393   */\n      0x20\n        /* \"#utility.yul\":12382:12387   */\n      dup2\n        /* \"#utility.yul\":12378:12394   */\n      add\n        /* \"#utility.yul\":12427:12430   */\n      dup5\n        /* \"#utility.yul\":12418:12424   */\n      dup5\n        /* \"#utility.yul\":12413:12416   */\n      dup5\n        /* \"#utility.yul\":12409:12425   */\n      add\n        /* \"#utility.yul\":12406:12431   */\n      gt\n        /* \"#utility.yul\":12403:12515   */\n      iszero\n      tag_726\n      jumpi\n        /* \"#utility.yul\":12434:12513   */\n      tag_727\n      tag_522\n      jump\t// in\n    tag_727:\n        /* \"#utility.yul\":12403:12515   */\n    tag_726:\n        /* \"#utility.yul\":12524:12578   */\n      tag_728\n        /* \"#utility.yul\":12571:12577   */\n      dup5\n        /* \"#utility.yul\":12566:12569   */\n      dup3\n        /* \"#utility.yul\":12561:12564   */\n      dup6\n        /* \"#utility.yul\":12524:12578   */\n      tag_527\n      jump\t// in\n    tag_728:\n        /* \"#utility.yul\":12243:12584   */\n      pop\n        /* \"#utility.yul\":12159:12584   */\n      swap4\n      swap3\n      pop\n      pop\n      pop\n      jump\t// out\n        /* \"#utility.yul\":12604:12944   */\n    tag_539:\n        /* \"#utility.yul\":12660:12665   */\n      0x00\n        /* \"#utility.yul\":12709:12712   */\n      dup3\n        /* \"#utility.yul\":12702:12706   */\n      0x1f\n        /* \"#utility.yul\":12694:12700   */\n      dup4\n        /* \"#utility.yul\":12690:12707   */\n      add\n        /* \"#utility.yul\":12686:12713   */\n      slt\n        /* \"#utility.yul\":12676:12798   */\n      tag_730\n      jumpi\n        /* \"#utility.yul\":12717:12796   */\n      tag_731\n      tag_521\n      jump\t// in\n    tag_731:\n        /* \"#utility.yul\":12676:12798   */\n    tag_730:\n        /* \"#utility.yul\":12834:12840   */\n      dup2\n        /* \"#utility.yul\":12821:12841   */\n      calldataload\n        /* \"#utility.yul\":12859:12938   */\n      tag_732\n        /* \"#utility.yul\":12934:12937   */\n      dup5\n        /* \"#utility.yul\":12926:12932   */\n      dup3\n        /* \"#utility.yul\":12919:12923   */\n      0x20\n        /* \"#utility.yul\":12911:12917   */\n      dup7\n        /* \"#utility.yul\":12907:12924   */\n      add\n        /* \"#utility.yul\":12859:12938   */\n      tag_538\n      jump\t// in\n    tag_732:\n        /* \"#utility.yul\":12850:12938   */\n      swap2\n      pop\n        /* \"#utility.yul\":12666:12944   */\n      pop\n        /* \"#utility.yul\":12604:12944   */\n      swap3\n      swap2\n      pop\n      pop\n      jump\t// out\n        /* \"#utility.yul\":12950:13929   */\n    tag_135:\n        /* \"#utility.yul\":13047:13053   */\n      0x00\n        /* \"#utility.yul\":13055:13061   */\n      dup1\n        /* \"#utility.yul\":13063:13069   */\n      0x00\n        /* \"#utility.yul\":13112:13114   */\n      0x60\n        /* \"#utility.yul\":13100:13109   */\n      dup5\n        /* \"#utility.yul\":13091:13098   */\n      dup7\n        /* \"#utility.yul\":13087:13110   */\n      sub\n        /* \"#utility.yul\":13083:13115   */\n      slt\n        /* \"#utility.yul\":13080:13199   */\n      iszero\n      tag_734\n      jumpi\n        /* \"#utility.yul\":13118:13197   */\n      tag_735\n      tag_505\n      jump\t// in\n    tag_735:\n        /* \"#utility.yul\":13080:13199   */\n    tag_734:\n        /* \"#utility.yul\":13266:13267   */\n      0x00\n        /* \"#utility.yul\":13255:13264   */\n      dup5\n        /* \"#utility.yul\":13251:13268   */\n      add\n        /* \"#utility.yul\":13238:13269   */\n      calldataload\n        /* \"#utility.yul\":13296:13314   */\n      0xffffffffffffffff\n        /* \"#utility.yul\":13288:13294   */\n      dup2\n        /* \"#utility.yul\":13285:13315   */\n      gt\n        /* \"#utility.yul\":13282:13399   */\n      iszero\n      tag_736\n      jumpi\n        /* \"#utility.yul\":13318:13397   */\n      tag_737\n      tag_506\n      jump\t// in\n    tag_737:\n        /* \"#utility.yul\":13282:13399   */\n    tag_736:\n        /* \"#utility.yul\":13423:13486   */\n      tag_738\n        /* \"#utility.yul\":13478:13485   */\n      dup7\n        /* \"#utility.yul\":13469:13475   */\n      dup3\n        /* \"#utility.yul\":13458:13467   */\n      dup8\n        /* \"#utility.yul\":13454:13476   */\n      add\n        /* \"#utility.yul\":13423:13486   */\n      tag_539\n      jump\t// in\n    tag_738:\n        /* \"#utility.yul\":13413:13486   */\n      swap4\n      pop\n        /* \"#utility.yul\":13209:13496   */\n      pop\n        /* \"#utility.yul\":13563:13565   */\n      0x20\n        /* \"#utility.yul\":13552:13561   */\n      dup5\n        /* \"#utility.yul\":13548:13566   */\n      add\n        /* \"#utility.yul\":13535:13567   */\n      calldataload\n        /* \"#utility.yul\":13594:13612   */\n      0xffffffffffffffff\n        /* \"#utility.yul\":13586:13592   */\n      dup2\n        /* \"#utility.yul\":13583:13613   */\n      gt\n        /* \"#utility.yul\":13580:13697   */\n      iszero\n      tag_739\n      jumpi\n        /* \"#utility.yul\":13616:13695   */\n      tag_740\n      tag_506\n      jump\t// in\n    tag_740:\n        /* \"#utility.yul\":13580:13697   */\n    tag_739:\n        /* \"#utility.yul\":13721:13784   */\n      tag_741\n        /* \"#utility.yul\":13776:13783   */\n      dup7\n        /* \"#utility.yul\":13767:13773   */\n      dup3\n        /* \"#utility.yul\":13756:13765   */\n      dup8\n        /* \"#utility.yul\":13752:13774   */\n      add\n        /* \"#utility.yul\":13721:13784   */\n      tag_539\n      jump\t// in\n    tag_741:\n        /* \"#utility.yul\":13711:13784   */\n      swap3\n      pop\n        /* \"#utility.yul\":13506:13794   */\n      pop\n        /* \"#utility.yul\":13833:13835   */\n      0x40\n        /* \"#utility.yul\":13859:13912   */\n      tag_742\n        /* \"#utility.yul\":13904:13911   */\n      dup7\n        /* \"#utility.yul\":13895:13901   */\n      dup3\n        /* \"#utility.yul\":13884:13893   */\n      dup8\n        /* \"#utility.yul\":13880:13902   */\n      add\n        /* \"#utility.yul\":13859:13912   */\n      tag_513\n      jump\t// in\n    tag_742:\n        /* \"#utility.yul\":13849:13912   */\n      swap2\n      pop\n        /* \"#utility.yul\":13804:13922   */\n      pop\n        /* \"#utility.yul\":12950:13929   */\n      swap3\n      pop\n      swap3\n      pop\n      swap3\n      jump\t// out\n        /* \"#utility.yul\":13935:14409   */\n    tag_149:\n        /* \"#utility.yul\":14003:14009   */\n      0x00\n        /* \"#utility.yul\":14011:14017   */\n      dup1\n        /* \"#utility.yul\":14060:14062   */\n      0x40\n        /* \"#utility.yul\":14048:14057   */\n      dup4\n        /* \"#utility.yul\":14039:14046   */\n      dup6\n        /* \"#utility.yul\":14035:14058   */\n      sub\n        /* \"#utility.yul\":14031:14063   */\n      slt\n        /* \"#utility.yul\":14028:14147   */\n      iszero\n      tag_744\n      jumpi\n        /* \"#utility.yul\":14066:14145   */\n      tag_745\n      tag_505\n      jump\t// in\n    tag_745:\n        /* \"#utility.yul\":14028:14147   */\n    tag_744:\n        /* \"#utility.yul\":14186:14187   */\n      0x00\n        /* \"#utility.yul\":14211:14264   */\n      tag_746\n        /* \"#utility.yul\":14256:14263   */\n      dup6\n        /* \"#utility.yul\":14247:14253   */\n      dup3\n        /* \"#utility.yul\":14236:14245   */\n      dup7\n        /* \"#utility.yul\":14232:14254   */\n      add\n        /* \"#utility.yul\":14211:14264   */\n      tag_510\n      jump\t// in\n    tag_746:\n        /* \"#utility.yul\":14201:14264   */\n      swap3\n      pop\n        /* \"#utility.yul\":14157:14274   */\n      pop\n        /* \"#utility.yul\":14313:14315   */\n      0x20\n        /* \"#utility.yul\":14339:14392   */\n      tag_747\n        /* \"#utility.yul\":14384:14391   */\n      dup6\n        /* \"#utility.yul\":14375:14381   */\n      dup3\n        /* \"#utility.yul\":14364:14373   */\n      dup7\n        /* \"#utility.yul\":14360:14382   */\n      add\n        /* \"#utility.yul\":14339:14392   */\n      tag_510\n      jump\t// in\n    tag_747:\n        /* \"#utility.yul\":14329:14392   */\n      swap2\n      pop\n        /* \"#utility.yul\":14284:14402   */\n      pop\n        /* \"#utility.yul\":13935:14409   */\n      swap3\n      pop\n      swap3\n      swap1\n      pop\n      jump\t// out\n        /* \"#utility.yul\":14415:14595   */\n    tag_540:\n        /* \"#utility.yul\":14463:14540   */\n      0x4e487b7100000000000000000000000000000000000000000000000000000000\n        /* \"#utility.yul\":14460:14461   */\n      0x00\n        /* \"#utility.yul\":14453:14541   */\n      mstore\n        /* \"#utility.yul\":14560:14564   */\n      0x22\n        /* \"#utility.yul\":14557:14558   */\n      0x04\n        /* \"#utility.yul\":14550:14565   */\n      mstore\n        /* \"#utility.yul\":14584:14588   */\n      0x24\n        /* \"#utility.yul\":14581:14582   */\n      0x00\n        /* \"#utility.yul\":14574:14589   */\n      revert\n        /* \"#utility.yul\":14601:14921   */\n    tag_165:\n        /* \"#utility.yul\":14645:14651   */\n      0x00\n        /* \"#utility.yul\":14682:14683   */\n      0x02\n        /* \"#utility.yul\":14676:14680   */\n      dup3\n        /* \"#utility.yul\":14672:14684   */\n      div\n        /* \"#utility.yul\":14662:14684   */\n      swap1\n      pop\n        /* \"#utility.yul\":14729:14730   */\n      0x01\n        /* \"#utility.yul\":14723:14727   */\n      dup3\n        /* \"#utility.yul\":14719:14731   */\n      and\n        /* \"#utility.yul\":14750:14768   */\n      dup1\n        /* \"#utility.yul\":14740:14821   */\n      tag_750\n      jumpi\n        /* \"#utility.yul\":14806:14810   */\n      0x7f\n        /* \"#utility.yul\":14798:14804   */\n      dup3\n        /* \"#utility.yul\":14794:14811   */\n      and\n        /* \"#utility.yul\":14784:14811   */\n      swap2\n      pop\n        /* \"#utility.yul\":14740:14821   */\n    tag_750:\n        /* \"#utility.yul\":14868:14870   */\n      0x20\n        /* \"#utility.yul\":14860:14866   */\n      dup3\n        /* \"#utility.yul\":14857:14871   */\n      lt\n        /* \"#utility.yul\":14837:14855   */\n      dup2\n        /* \"#utility.yul\":14834:14872   */\n      sub\n        /* \"#utility.yul\":14831:14915   */\n      tag_751\n      jumpi\n        /* \"#utility.yul\":14887:14905   */\n      tag_752\n      tag_540\n      jump\t// in\n    tag_752:\n        /* \"#utility.yul\":14831:14915   */\n    tag_751:\n        /* \"#utility.yul\":14652:14921   */\n      pop\n        /* \"#utility.yul\":14601:14921   */\n      swap2\n      swap1\n      pop\n      jump\t// out\n        /* \"#utility.yul\":14927:15152   */\n    tag_541:\n        /* \"#utility.yul\":15067:15101   */\n      0x5472616e73666572206661696c65643a2053656e64657220697320626c61636b\n        /* \"#utility.yul\":15063:15064   */\n      0x00\n        /* \"#utility.yul\":15055:15061   */\n      dup3\n        /* \"#utility.yul\":15051:15065   */\n      add\n        /* \"#utility.yul\":15044:15102   */\n      mstore\n        /* \"#utility.yul\":15136:15144   */\n      0x6c69737465640000000000000000000000000000000000000000000000000000\n        /* \"#utility.yul\":15131:15133   */\n      0x20\n        /* \"#utility.yul\":15123:15129   */\n      dup3\n        /* \"#utility.yul\":15119:15134   */\n      add\n        /* \"#utility.yul\":15112:15145   */\n      mstore\n        /* \"#utility.yul\":14927:15152   */\n      pop\n      jump\t// out\n        /* \"#utility.yul\":15158:15524   */\n    tag_542:\n        /* \"#utility.yul\":15300:15303   */\n      0x00\n        /* \"#utility.yul\":15321:15388   */\n      tag_755\n        /* \"#utility.yul\":15385:15387   */\n      0x26\n        /* \"#utility.yul\":15380:15383   */\n      dup4\n        /* \"#utility.yul\":15321:15388   */\n      tag_500\n      jump\t// in\n    tag_755:\n        /* \"#utility.yul\":15314:15388   */\n      swap2\n      pop\n        /* \"#utility.yul\":15397:15490   */\n      tag_756\n        /* \"#utility.yul\":15486:15489   */\n      dup3\n        /* \"#utility.yul\":15397:15490   */\n      tag_541\n      jump\t// in\n    tag_756:\n        /* \"#utility.yul\":15515:15517   */\n      0x40\n        /* \"#utility.yul\":15510:15513   */\n      dup3\n        /* \"#utility.yul\":15506:15518   */\n      add\n        /* \"#utility.yul\":15499:15518   */\n      swap1\n      pop\n        /* \"#utility.yul\":15158:15524   */\n      swap2\n      swap1\n      pop\n      jump\t// out\n        /* \"#utility.yul\":15530:15949   */\n    tag_188:\n        /* \"#utility.yul\":15696:15700   */\n      0x00\n        /* \"#utility.yul\":15734:15736   */\n      0x20\n        /* \"#utility.yul\":15723:15732   */\n      dup3\n        /* \"#utility.yul\":15719:15737   */\n      add\n        /* \"#utility.yul\":15711:15737   */\n      swap1\n      pop\n        /* \"#utility.yul\":15783:15792   */\n      dup2\n        /* \"#utility.yul\":15777:15781   */\n      dup2\n        /* \"#utility.yul\":15773:15793   */\n      sub\n        /* \"#utility.yul\":15769:15770   */\n      0x00\n        /* \"#utility.yul\":15758:15767   */\n      dup4\n        /* \"#utility.yul\":15754:15771   */\n      add\n        /* \"#utility.yul\":15747:15794   */\n      mstore\n        /* \"#utility.yul\":15811:15942   */\n      tag_758\n        /* \"#utility.yul\":15937:15941   */\n      dup2\n        /* \"#utility.yul\":15811:15942   */\n      tag_542\n      jump\t// in\n    tag_758:\n        /* \"#utility.yul\":15803:15942   */\n      swap1\n      pop\n        /* \"#utility.yul\":15530:15949   */\n      swap2\n      swap1\n      pop\n      jump\t// out\n        /* \"#utility.yul\":15955:16183   */\n    tag_543:\n        /* \"#utility.yul\":16095:16129   */\n      0x5472616e73666572206661696c65643a20526563697069656e7420697320626c\n        /* \"#utility.yul\":16091:16092   */\n      0x00\n        /* \"#utility.yul\":16083:16089   */\n      dup3\n        /* \"#utility.yul\":16079:16093   */\n      add\n        /* \"#utility.yul\":16072:16130   */\n      mstore\n        /* \"#utility.yul\":16164:16175   */\n      0x61636b6c69737465640000000000000000000000000000000000000000000000\n        /* \"#utility.yul\":16159:16161   */\n      0x20\n        /* \"#utility.yul\":16151:16157   */\n      dup3\n        /* \"#utility.yul\":16147:16162   */\n      add\n        /* \"#utility.yul\":16140:16176   */\n      mstore\n        /* \"#utility.yul\":15955:16183   */\n      pop\n      jump\t// out\n        /* \"#utility.yul\":16189:16555   */\n    tag_544:\n        /* \"#utility.yul\":16331:16334   */\n      0x00\n        /* \"#utility.yul\":16352:16419   */\n      tag_761\n        /* \"#utility.yul\":16416:16418   */\n      0x29\n        /* \"#utility.yul\":16411:16414   */\n      dup4\n        /* \"#utility.yul\":16352:16419   */\n      tag_500\n      jump\t// in\n    tag_761:\n        /* \"#utility.yul\":16345:16419   */\n      swap2\n      pop\n        /* \"#utility.yul\":16428:16521   */\n      tag_762\n        /* \"#utility.yul\":16517:16520   */\n      dup3\n        /* \"#utility.yul\":16428:16521   */\n      tag_543\n      jump\t// in\n    tag_762:\n        /* \"#utility.yul\":16546:16548   */\n      0x40\n        /* \"#utility.yul\":16541:16544   */\n      dup3\n        /* \"#utility.yul\":16537:16549   */\n      add\n        /* \"#utility.yul\":16530:16549   */\n      swap1\n      pop\n        /* \"#utility.yul\":16189:16555   */\n      swap2\n      swap1\n      pop\n      jump\t// out\n        /* \"#utility.yul\":16561:16980   */\n    tag_191:\n        /* \"#utility.yul\":16727:16731   */\n      0x00\n        /* \"#utility.yul\":16765:16767   */\n      0x20\n        /* \"#utility.yul\":16754:16763   */\n      dup3\n        /* \"#utility.yul\":16750:16768   */\n      add\n        /* \"#utility.yul\":16742:16768   */\n      swap1\n      pop\n        /* \"#utility.yul\":16814:16823   */\n      dup2\n        /* \"#utility.yul\":16808:16812   */\n      dup2\n        /* \"#utility.yul\":16804:16824   */\n      sub\n        /* \"#utility.yul\":16800:16801   */\n      0x00\n        /* \"#utility.yul\":16789:16798   */\n      dup4\n        /* \"#utility.yul\":16785:16802   */\n      add\n        /* \"#utility.yul\":16778:16825   */\n      mstore\n        /* \"#utility.yul\":16842:16973   */\n      tag_764\n        /* \"#utility.yul\":16968:16972   */\n      dup2\n        /* \"#utility.yul\":16842:16973   */\n      tag_544\n      jump\t// in\n    tag_764:\n        /* \"#utility.yul\":16834:16973   */\n      swap1\n      pop\n        /* \"#utility.yul\":16561:16980   */\n      swap2\n      swap1\n      pop\n      jump\t// out\n        /* \"#utility.yul\":16986:17207   */\n    tag_545:\n        /* \"#utility.yul\":17126:17160   */\n      0x5472616e73666572206661696c65643a20546f6b656e7320617265206c6f636b\n        /* \"#utility.yul\":17122:17123   */\n      0x00\n        /* \"#utility.yul\":17114:17120   */\n      dup3\n        /* \"#utility.yul\":17110:17124   */\n      add\n        /* \"#utility.yul\":17103:17161   */\n      mstore\n        /* \"#utility.yul\":17195:17199   */\n      0x6564000000000000000000000000000000000000000000000000000000000000\n        /* \"#utility.yul\":17190:17192   */\n      0x20\n        /* \"#utility.yul\":17182:17188   */\n      dup3\n        /* \"#utility.yul\":17178:17193   */\n      add\n        /* \"#utility.yul\":17171:17200   */\n      mstore\n        /* \"#utility.yul\":16986:17207   */\n      pop\n      jump\t// out\n        /* \"#utility.yul\":17213:17579   */\n    tag_546:\n        /* \"#utility.yul\":17355:17358   */\n      0x00\n        /* \"#utility.yul\":17376:17443   */\n      tag_767\n        /* \"#utility.yul\":17440:17442   */\n      0x22\n        /* \"#utility.yul\":17435:17438   */\n      dup4\n        /* \"#utility.yul\":17376:17443   */\n      tag_500\n      jump\t// in\n    tag_767:\n        /* \"#utility.yul\":17369:17443   */\n      swap2\n      pop\n        /* \"#utility.yul\":17452:17545   */\n      tag_768\n        /* \"#utility.yul\":17541:17544   */\n      dup3\n        /* \"#utility.yul\":17452:17545   */\n      tag_545\n      jump\t// in\n    tag_768:\n        /* \"#utility.yul\":17570:17572   */\n      0x40\n        /* \"#utility.yul\":17565:17568   */\n      dup3\n        /* \"#utility.yul\":17561:17573   */\n      add\n        /* \"#utility.yul\":17554:17573   */\n      swap1\n      pop\n        /* \"#utility.yul\":17213:17579   */\n      swap2\n      swap1\n      pop\n      jump\t// out\n        /* \"#utility.yul\":17585:18004   */\n    tag_195:\n        /* \"#utility.yul\":17751:17755   */\n      0x00\n        /* \"#utility.yul\":17789:17791   */\n      0x20\n        /* \"#utility.yul\":17778:17787   */\n      dup3\n        /* \"#utility.yul\":17774:17792   */\n      add\n        /* \"#utility.yul\":17766:17792   */\n      swap1\n      pop\n        /* \"#utility.yul\":17838:17847   */\n      dup2\n        /* \"#utility.yul\":17832:17836   */\n      dup2\n        /* \"#utility.yul\":17828:17848   */\n      sub\n        /* \"#utility.yul\":17824:17825   */\n      0x00\n        /* \"#utility.yul\":17813:17822   */\n      dup4\n        /* \"#utility.yul\":17809:17826   */\n      add\n        /* \"#utility.yul\":17802:17849   */\n      mstore\n        /* \"#utility.yul\":17866:17997   */\n      tag_770\n        /* \"#utility.yul\":17992:17996   */\n      dup2\n        /* \"#utility.yul\":17866:17997   */\n      tag_546\n      jump\t// in\n    tag_770:\n        /* \"#utility.yul\":17858:17997   */\n      swap1\n      pop\n        /* \"#utility.yul\":17585:18004   */\n      swap2\n      swap1\n      pop\n      jump\t// out\n        /* \"#utility.yul\":18010:18174   */\n    tag_547:\n        /* \"#utility.yul\":18150:18166   */\n      0x4e6f7420617574686f72697a6564000000000000000000000000000000000000\n        /* \"#utility.yul\":18146:18147   */\n      0x00\n        /* \"#utility.yul\":18138:18144   */\n      dup3\n        /* \"#utility.yul\":18134:18148   */\n      add\n        /* \"#utility.yul\":18127:18167   */\n      mstore\n        /* \"#utility.yul\":18010:18174   */\n      pop\n      jump\t// out\n        /* \"#utility.yul\":18180:18546   */\n    tag_548:\n        /* \"#utility.yul\":18322:18325   */\n      0x00\n        /* \"#utility.yul\":18343:18410   */\n      tag_773\n        /* \"#utility.yul\":18407:18409   */\n      0x0e\n        /* \"#utility.yul\":18402:18405   */\n      dup4\n        /* \"#utility.yul\":18343:18410   */\n      tag_500\n      jump\t// in\n    tag_773:\n        /* \"#utility.yul\":18336:18410   */\n      swap2\n      pop\n        /* \"#utility.yul\":18419:18512   */\n      tag_774\n        /* \"#utility.yul\":18508:18511   */\n      dup3\n        /* \"#utility.yul\":18419:18512   */\n      tag_547\n      jump\t// in\n    tag_774:\n        /* \"#utility.yul\":18537:18539   */\n      0x20\n        /* \"#utility.yul\":18532:18535   */\n      dup3\n        /* \"#utility.yul\":18528:18540   */\n      add\n        /* \"#utility.yul\":18521:18540   */\n      swap1\n      pop\n        /* \"#utility.yul\":18180:18546   */\n      swap2\n      swap1\n      pop\n      jump\t// out\n        /* \"#utility.yul\":18552:18971   */\n    tag_205:\n        /* \"#utility.yul\":18718:18722   */\n      0x00\n        /* \"#utility.yul\":18756:18758   */\n      0x20\n        /* \"#utility.yul\":18745:18754   */\n      dup3\n        /* \"#utility.yul\":18741:18759   */\n      add\n        /* \"#utility.yul\":18733:18759   */\n      swap1\n      pop\n        /* \"#utility.yul\":18805:18814   */\n      dup2\n        /* \"#utility.yul\":18799:18803   */\n      dup2\n        /* \"#utility.yul\":18795:18815   */\n      sub\n        /* \"#utility.yul\":18791:18792   */\n      0x00\n        /* \"#utility.yul\":18780:18789   */\n      dup4\n        /* \"#utility.yul\":18776:18793   */\n      add\n        /* \"#utility.yul\":18769:18816   */\n      mstore\n        /* \"#utility.yul\":18833:18964   */\n      tag_776\n        /* \"#utility.yul\":18959:18963   */\n      dup2\n        /* \"#utility.yul\":18833:18964   */\n      tag_548\n      jump\t// in\n    tag_776:\n        /* \"#utility.yul\":18825:18964   */\n      swap1\n      pop\n        /* \"#utility.yul\":18552:18971   */\n      swap2\n      swap1\n      pop\n      jump\t// out\n        /* \"#utility.yul\":18977:19203   */\n    tag_549:\n        /* \"#utility.yul\":19117:19151   */\n      0x42617463685472616e73666572206661696c65643a204d69736d617463686564\n        /* \"#utility.yul\":19113:19114   */\n      0x00\n        /* \"#utility.yul\":19105:19111   */\n      dup3\n        /* \"#utility.yul\":19101:19115   */\n      add\n        /* \"#utility.yul\":19094:19152   */\n      mstore\n        /* \"#utility.yul\":19186:19195   */\n      0x2061727261797300000000000000000000000000000000000000000000000000\n        /* \"#utility.yul\":19181:19183   */\n      0x20\n        /* \"#utility.yul\":19173:19179   */\n      dup3\n        /* \"#utility.yul\":19169:19184   */\n      add\n        /* \"#utility.yul\":19162:19196   */\n      mstore\n        /* \"#utility.yul\":18977:19203   */\n      pop\n      jump\t// out\n        /* \"#utility.yul\":19209:19575   */\n    tag_550:\n        /* \"#utility.yul\":19351:19354   */\n      0x00\n        /* \"#utility.yul\":19372:19439   */\n      tag_779\n        /* \"#utility.yul\":19436:19438   */\n      0x27\n        /* \"#utility.yul\":19431:19434   */\n      dup4\n        /* \"#utility.yul\":19372:19439   */\n      tag_500\n      jump\t// in\n    tag_779:\n        /* \"#utility.yul\":19365:19439   */\n      swap2\n      pop\n        /* \"#utility.yul\":19448:19541   */\n      tag_780\n        /* \"#utility.yul\":19537:19540   */\n      dup3\n        /* \"#utility.yul\":19448:19541   */\n      tag_549\n      jump\t// in\n    tag_780:\n        /* \"#utility.yul\":19566:19568   */\n      0x40\n        /* \"#utility.yul\":19561:19564   */\n      dup3\n        /* \"#utility.yul\":19557:19569   */\n      add\n        /* \"#utility.yul\":19550:19569   */\n      swap1\n      pop\n        /* \"#utility.yul\":19209:19575   */\n      swap2\n      swap1\n      pop\n      jump\t// out\n        /* \"#utility.yul\":19581:20000   */\n    tag_244:\n        /* \"#utility.yul\":19747:19751   */\n      0x00\n        /* \"#utility.yul\":19785:19787   */\n      0x20\n        /* \"#utility.yul\":19774:19783   */\n      dup3\n        /* \"#utility.yul\":19770:19788   */\n      add\n        /* \"#utility.yul\":19762:19788   */\n      swap1\n      pop\n        /* \"#utility.yul\":19834:19843   */\n      dup2\n        /* \"#utility.yul\":19828:19832   */\n      dup2\n        /* \"#utility.yul\":19824:19844   */\n      sub\n        /* \"#utility.yul\":19820:19821   */\n      0x00\n        /* \"#utility.yul\":19809:19818   */\n      dup4\n        /* \"#utility.yul\":19805:19822   */\n      add\n        /* \"#utility.yul\":19798:19845   */\n      mstore\n        /* \"#utility.yul\":19862:19993   */\n      tag_782\n        /* \"#utility.yul\":19988:19992   */\n      dup2\n        /* \"#utility.yul\":19862:19993   */\n      tag_550\n      jump\t// in\n    tag_782:\n        /* \"#utility.yul\":19854:19993   */\n      swap1\n      pop\n        /* \"#utility.yul\":19581:20000   */\n      swap2\n      swap1\n      pop\n      jump\t// out\n        /* \"#utility.yul\":20006:20186   */\n    tag_250:\n        /* \"#utility.yul\":20054:20131   */\n      0x4e487b7100000000000000000000000000000000000000000000000000000000\n        /* \"#utility.yul\":20051:20052   */\n      0x00\n        /* \"#utility.yul\":20044:20132   */\n      mstore\n        /* \"#utility.yul\":20151:20155   */\n      0x32\n        /* \"#utility.yul\":20148:20149   */\n      0x04\n        /* \"#utility.yul\":20141:20156   */\n      mstore\n        /* \"#utility.yul\":20175:20179   */\n      0x24\n        /* \"#utility.yul\":20172:20173   */\n      0x00\n        /* \"#utility.yul\":20165:20180   */\n      revert\n        /* \"#utility.yul\":20192:20425   */\n    tag_551:\n        /* \"#utility.yul\":20332:20366   */\n      0x42617463685472616e73666572206661696c65643a20526563697069656e7420\n        /* \"#utility.yul\":20328:20329   */\n      0x00\n        /* \"#utility.yul\":20320:20326   */\n      dup3\n        /* \"#utility.yul\":20316:20330   */\n      add\n        /* \"#utility.yul\":20309:20367   */\n      mstore\n        /* \"#utility.yul\":20401:20417   */\n      0x697320626c61636b6c6973746564000000000000000000000000000000000000\n        /* \"#utility.yul\":20396:20398   */\n      0x20\n        /* \"#utility.yul\":20388:20394   */\n      dup3\n        /* \"#utility.yul\":20384:20399   */\n      add\n        /* \"#utility.yul\":20377:20418   */\n      mstore\n        /* \"#utility.yul\":20192:20425   */\n      pop\n      jump\t// out\n        /* \"#utility.yul\":20431:20797   */\n    tag_552:\n        /* \"#utility.yul\":20573:20576   */\n      0x00\n        /* \"#utility.yul\":20594:20661   */\n      tag_786\n        /* \"#utility.yul\":20658:20660   */\n      0x2e\n        /* \"#utility.yul\":20653:20656   */\n      dup4\n        /* \"#utility.yul\":20594:20661   */\n      tag_500\n      jump\t// in\n    tag_786:\n        /* \"#utility.yul\":20587:20661   */\n      swap2\n      pop\n        /* \"#utility.yul\":20670:20763   */\n      tag_787\n        /* \"#utility.yul\":20759:20762   */\n      dup3\n        /* \"#utility.yul\":20670:20763   */\n      tag_551\n      jump\t// in\n    tag_787:\n        /* \"#utility.yul\":20788:20790   */\n      0x40\n        /* \"#utility.yul\":20783:20786   */\n      dup3\n        /* \"#utility.yul\":20779:20791   */\n      add\n        /* \"#utility.yul\":20772:20791   */\n      swap1\n      pop\n        /* \"#utility.yul\":20431:20797   */\n      swap2\n      swap1\n      pop\n      jump\t// out\n        /* \"#utility.yul\":20803:21222   */\n    tag_254:\n        /* \"#utility.yul\":20969:20973   */\n      0x00\n        /* \"#utility.yul\":21007:21009   */\n      0x20\n        /* \"#utility.yul\":20996:21005   */\n      dup3\n        /* \"#utility.yul\":20992:21010   */\n      add\n        /* \"#utility.yul\":20984:21010   */\n      swap1\n      pop\n        /* \"#utility.yul\":21056:21065   */\n      dup2\n        /* \"#utility.yul\":21050:21054   */\n      dup2\n        /* \"#utility.yul\":21046:21066   */\n      sub\n        /* \"#utility.yul\":21042:21043   */\n      0x00\n        /* \"#utility.yul\":21031:21040   */\n      dup4\n        /* \"#utility.yul\":21027:21044   */\n      add\n        /* \"#utility.yul\":21020:21067   */\n      mstore\n        /* \"#utility.yul\":21084:21215   */\n      tag_789\n        /* \"#utility.yul\":21210:21214   */\n      dup2\n        /* \"#utility.yul\":21084:21215   */\n      tag_552\n      jump\t// in\n    tag_789:\n        /* \"#utility.yul\":21076:21215   */\n      swap1\n      pop\n        /* \"#utility.yul\":20803:21222   */\n      swap2\n      swap1\n      pop\n      jump\t// out\n        /* \"#utility.yul\":21228:21313   */\n    tag_553:\n        /* \"#utility.yul\":21273:21280   */\n      0x00\n        /* \"#utility.yul\":21302:21307   */\n      dup2\n        /* \"#utility.yul\":21291:21307   */\n      swap1\n      pop\n        /* \"#utility.yul\":21228:21313   */\n      swap2\n      swap1\n      pop\n      jump\t// out\n        /* \"#utility.yul\":21319:21420   */\n    tag_554:\n        /* \"#utility.yul\":21355:21362   */\n      0x00\n        /* \"#utility.yul\":21395:21413   */\n      0xffffffffffffffff\n        /* \"#utility.yul\":21388:21393   */\n      dup3\n        /* \"#utility.yul\":21384:21414   */\n      and\n        /* \"#utility.yul\":21373:21414   */\n      swap1\n      pop\n        /* \"#utility.yul\":21319:21420   */\n      swap2\n      swap1\n      pop\n      jump\t// out\n        /* \"#utility.yul\":21426:21486   */\n    tag_555:\n        /* \"#utility.yul\":21454:21457   */\n      0x00\n        /* \"#utility.yul\":21475:21480   */\n      dup2\n        /* \"#utility.yul\":21468:21480   */\n      swap1\n      pop\n        /* \"#utility.yul\":21426:21486   */\n      swap2\n      swap1\n      pop\n      jump\t// out\n        /* \"#utility.yul\":21492:21648   */\n    tag_556:\n        /* \"#utility.yul\":21549:21558   */\n      0x00\n        /* \"#utility.yul\":21582:21642   */\n      tag_794\n        /* \"#utility.yul\":21599:21641   */\n      tag_795\n        /* \"#utility.yul\":21608:21640   */\n      tag_796\n        /* \"#utility.yul\":21634:21639   */\n      dup5\n        /* \"#utility.yul\":21608:21640   */\n      tag_553\n      jump\t// in\n    tag_796:\n        /* \"#utility.yul\":21599:21641   */\n      tag_555\n      jump\t// in\n    tag_795:\n        /* \"#utility.yul\":21582:21642   */\n      tag_554\n      jump\t// in\n    tag_794:\n        /* \"#utility.yul\":21569:21642   */\n      swap1\n      pop\n        /* \"#utility.yul\":21492:21648   */\n      swap2\n      swap1\n      pop\n      jump\t// out\n        /* \"#utility.yul\":21654:21799   */\n    tag_557:\n        /* \"#utility.yul\":21748:21792   */\n      tag_798\n        /* \"#utility.yul\":21786:21791   */\n      dup2\n        /* \"#utility.yul\":21748:21792   */\n      tag_556\n      jump\t// in\n    tag_798:\n        /* \"#utility.yul\":21743:21746   */\n      dup3\n        /* \"#utility.yul\":21736:21793   */\n      mstore\n        /* \"#utility.yul\":21654:21799   */\n      pop\n      pop\n      jump\t// out\n        /* \"#utility.yul\":21805:22041   */\n    tag_305:\n        /* \"#utility.yul\":21905:21909   */\n      0x00\n        /* \"#utility.yul\":21943:21945   */\n      0x20\n        /* \"#utility.yul\":21932:21941   */\n      dup3\n        /* \"#utility.yul\":21928:21946   */\n      add\n        /* \"#utility.yul\":21920:21946   */\n      swap1\n      pop\n        /* \"#utility.yul\":21956:22034   */\n      tag_800\n        /* \"#utility.yul\":22031:22032   */\n      0x00\n        /* \"#utility.yul\":22020:22029   */\n      dup4\n        /* \"#utility.yul\":22016:22033   */\n      add\n        /* \"#utility.yul\":22007:22013   */\n      dup5\n        /* \"#utility.yul\":21956:22034   */\n      tag_557\n      jump\t// in\n    tag_800:\n        /* \"#utility.yul\":21805:22041   */\n      swap3\n      swap2\n      pop\n      pop\n      jump\t// out\n        /* \"#utility.yul\":22047:22213   */\n    tag_558:\n        /* \"#utility.yul\":22187:22205   */\n      0x5061757361626c653a2070617573656400000000000000000000000000000000\n        /* \"#utility.yul\":22183:22184   */\n      0x00\n        /* \"#utility.yul\":22175:22181   */\n      dup3\n        /* \"#utility.yul\":22171:22185   */\n      add\n        /* \"#utility.yul\":22164:22206   */\n      mstore\n        /* \"#utility.yul\":22047:22213   */\n      pop\n      jump\t// out\n        /* \"#utility.yul\":22219:22585   */\n    tag_559:\n        /* \"#utility.yul\":22361:22364   */\n      0x00\n        /* \"#utility.yul\":22382:22449   */\n      tag_803\n        /* \"#utility.yul\":22446:22448   */\n      0x10\n        /* \"#utility.yul\":22441:22444   */\n      dup4\n        /* \"#utility.yul\":22382:22449   */\n      tag_500\n      jump\t// in\n    tag_803:\n        /* \"#utility.yul\":22375:22449   */\n      swap2\n      pop\n        /* \"#utility.yul\":22458:22551   */\n      tag_804\n        /* \"#utility.yul\":22547:22550   */\n      dup3\n        /* \"#utility.yul\":22458:22551   */\n      tag_558\n      jump\t// in\n    tag_804:\n        /* \"#utility.yul\":22576:22578   */\n      0x20\n        /* \"#utility.yul\":22571:22574   */\n      dup3\n        /* \"#utility.yul\":22567:22579   */\n      add\n        /* \"#utility.yul\":22560:22579   */\n      swap1\n      pop\n        /* \"#utility.yul\":22219:22585   */\n      swap2\n      swap1\n      pop\n      jump\t// out\n        /* \"#utility.yul\":22591:23010   */\n    tag_330:\n        /* \"#utility.yul\":22757:22761   */\n      0x00\n        /* \"#utility.yul\":22795:22797   */\n      0x20\n        /* \"#utility.yul\":22784:22793   */\n      dup3\n        /* \"#utility.yul\":22780:22798   */\n      add\n        /* \"#utility.yul\":22772:22798   */\n      swap1\n      pop\n        /* \"#utility.yul\":22844:22853   */\n      dup2\n        /* \"#utility.yul\":22838:22842   */\n      dup2\n        /* \"#utility.yul\":22834:22854   */\n      sub\n        /* \"#utility.yul\":22830:22831   */\n      0x00\n        /* \"#utility.yul\":22819:22828   */\n      dup4\n        /* \"#utility.yul\":22815:22832   */\n      add\n        /* \"#utility.yul\":22808:22855   */\n      mstore\n        /* \"#utility.yul\":22872:23003   */\n      tag_806\n        /* \"#utility.yul\":22998:23002   */\n      dup2\n        /* \"#utility.yul\":22872:23003   */\n      tag_559\n      jump\t// in\n    tag_806:\n        /* \"#utility.yul\":22864:23003   */\n      swap1\n      pop\n        /* \"#utility.yul\":22591:23010   */\n      swap2\n      swap1\n      pop\n      jump\t// out\n        /* \"#utility.yul\":23016:23138   */\n    tag_560:\n        /* \"#utility.yul\":23089:23113   */\n      tag_808\n        /* \"#utility.yul\":23107:23112   */\n      dup2\n        /* \"#utility.yul\":23089:23113   */\n      tag_530\n      jump\t// in\n    tag_808:\n        /* \"#utility.yul\":23082:23087   */\n      dup2\n        /* \"#utility.yul\":23079:23114   */\n      eq\n        /* \"#utility.yul\":23069:23132   */\n      tag_809\n      jumpi\n        /* \"#utility.yul\":23128:23129   */\n      0x00\n        /* \"#utility.yul\":23125:23126   */\n      dup1\n        /* \"#utility.yul\":23118:23130   */\n      revert\n        /* \"#utility.yul\":23069:23132   */\n    tag_809:\n        /* \"#utility.yul\":23016:23138   */\n      pop\n      jump\t// out\n        /* \"#utility.yul\":23144:23287   */\n    tag_561:\n        /* \"#utility.yul\":23201:23206   */\n      0x00\n        /* \"#utility.yul\":23232:23238   */\n      dup2\n        /* \"#utility.yul\":23226:23239   */\n      mload\n        /* \"#utility.yul\":23217:23239   */\n      swap1\n      pop\n        /* \"#utility.yul\":23248:23281   */\n      tag_811\n        /* \"#utility.yul\":23275:23280   */\n      dup2\n        /* \"#utility.yul\":23248:23281   */\n      tag_560\n      jump\t// in\n    tag_811:\n        /* \"#utility.yul\":23144:23287   */\n      swap3\n      swap2\n      pop\n      pop\n      jump\t// out\n        /* \"#utility.yul\":23293:23644   */\n    tag_353:\n        /* \"#utility.yul\":23363:23369   */\n      0x00\n        /* \"#utility.yul\":23412:23414   */\n      0x20\n        /* \"#utility.yul\":23400:23409   */\n      dup3\n        /* \"#utility.yul\":23391:23398   */\n      dup5\n        /* \"#utility.yul\":23387:23410   */\n      sub\n        /* \"#utility.yul\":23383:23415   */\n      slt\n        /* \"#utility.yul\":23380:23499   */\n      iszero\n      tag_813\n      jumpi\n        /* \"#utility.yul\":23418:23497   */\n      tag_814\n      tag_505\n      jump\t// in\n    tag_814:\n        /* \"#utility.yul\":23380:23499   */\n    tag_813:\n        /* \"#utility.yul\":23538:23539   */\n      0x00\n        /* \"#utility.yul\":23563:23627   */\n      tag_815\n        /* \"#utility.yul\":23619:23626   */\n      dup5\n        /* \"#utility.yul\":23610:23616   */\n      dup3\n        /* \"#utility.yul\":23599:23608   */\n      dup6\n        /* \"#utility.yul\":23595:23617   */\n      add\n        /* \"#utility.yul\":23563:23627   */\n      tag_561\n      jump\t// in\n    tag_815:\n        /* \"#utility.yul\":23553:23627   */\n      swap2\n      pop\n        /* \"#utility.yul\":23509:23637   */\n      pop\n        /* \"#utility.yul\":23293:23644   */\n      swap3\n      swap2\n      pop\n      pop\n      jump\t// out\n        /* \"#utility.yul\":23650:24092   */\n    tag_421:\n        /* \"#utility.yul\":23799:23803   */\n      0x00\n        /* \"#utility.yul\":23837:23839   */\n      0x60\n        /* \"#utility.yul\":23826:23835   */\n      dup3\n        /* \"#utility.yul\":23822:23840   */\n      add\n        /* \"#utility.yul\":23814:23840   */\n      swap1\n      pop\n        /* \"#utility.yul\":23850:23921   */\n      tag_817\n        /* \"#utility.yul\":23918:23919   */\n      0x00\n        /* \"#utility.yul\":23907:23916   */\n      dup4\n        /* \"#utility.yul\":23903:23920   */\n      add\n        /* \"#utility.yul\":23894:23900   */\n      dup7\n        /* \"#utility.yul\":23850:23921   */\n      tag_536\n      jump\t// in\n    tag_817:\n        /* \"#utility.yul\":23931:24003   */\n      tag_818\n        /* \"#utility.yul\":23999:24001   */\n      0x20\n        /* \"#utility.yul\":23988:23997   */\n      dup4\n        /* \"#utility.yul\":23984:24002   */\n      add\n        /* \"#utility.yul\":23975:23981   */\n      dup6\n        /* \"#utility.yul\":23931:24003   */\n      tag_518\n      jump\t// in\n    tag_818:\n        /* \"#utility.yul\":24013:24085   */\n      tag_819\n        /* \"#utility.yul\":24081:24083   */\n      0x40\n        /* \"#utility.yul\":24070:24079   */\n      dup4\n        /* \"#utility.yul\":24066:24084   */\n      add\n        /* \"#utility.yul\":24057:24063   */\n      dup5\n        /* \"#utility.yul\":24013:24085   */\n      tag_518\n      jump\t// in\n    tag_819:\n        /* \"#utility.yul\":23650:24092   */\n      swap5\n      swap4\n      pop\n      pop\n      pop\n      pop\n      jump\t// out\n        /* \"#utility.yul\":24098:24268   */\n    tag_562:\n        /* \"#utility.yul\":24238:24260   */\n      0x5061757361626c653a206e6f7420706175736564000000000000000000000000\n        /* \"#utility.yul\":24234:24235   */\n      0x00\n        /* \"#utility.yul\":24226:24232   */\n      dup3\n        /* \"#utility.yul\":24222:24236   */\n      add\n        /* \"#utility.yul\":24215:24261   */\n      mstore\n        /* \"#utility.yul\":24098:24268   */\n      pop\n      jump\t// out\n        /* \"#utility.yul\":24274:24640   */\n    tag_563:\n        /* \"#utility.yul\":24416:24419   */\n      0x00\n        /* \"#utility.yul\":24437:24504   */\n      tag_822\n        /* \"#utility.yul\":24501:24503   */\n      0x14\n        /* \"#utility.yul\":24496:24499   */\n      dup4\n        /* \"#utility.yul\":24437:24504   */\n      tag_500\n      jump\t// in\n    tag_822:\n        /* \"#utility.yul\":24430:24504   */\n      swap2\n      pop\n        /* \"#utility.yul\":24513:24606   */\n      tag_823\n        /* \"#utility.yul\":24602:24605   */\n      dup3\n        /* \"#utility.yul\":24513:24606   */\n      tag_562\n      jump\t// in\n    tag_823:\n        /* \"#utility.yul\":24631:24633   */\n      0x20\n        /* \"#utility.yul\":24626:24629   */\n      dup3\n        /* \"#utility.yul\":24622:24634   */\n      add\n        /* \"#utility.yul\":24615:24634   */\n      swap1\n      pop\n        /* \"#utility.yul\":24274:24640   */\n      swap2\n      swap1\n      pop\n      jump\t// out\n        /* \"#utility.yul\":24646:25065   */\n    tag_427:\n        /* \"#utility.yul\":24812:24816   */\n      0x00\n        /* \"#utility.yul\":24850:24852   */\n      0x20\n        /* \"#utility.yul\":24839:24848   */\n      dup3\n        /* \"#utility.yul\":24835:24853   */\n      add\n        /* \"#utility.yul\":24827:24853   */\n      swap1\n      pop\n        /* \"#utility.yul\":24899:24908   */\n      dup2\n        /* \"#utility.yul\":24893:24897   */\n      dup2\n        /* \"#utility.yul\":24889:24909   */\n      sub\n        /* \"#utility.yul\":24885:24886   */\n      0x00\n        /* \"#utility.yul\":24874:24883   */\n      dup4\n        /* \"#utility.yul\":24870:24887   */\n      add\n        /* \"#utility.yul\":24863:24910   */\n      mstore\n        /* \"#utility.yul\":24927:25058   */\n      tag_825\n        /* \"#utility.yul\":25053:25057   */\n      dup2\n        /* \"#utility.yul\":24927:25058   */\n      tag_563\n      jump\t// in\n    tag_825:\n        /* \"#utility.yul\":24919:25058   */\n      swap1\n      pop\n        /* \"#utility.yul\":24646:25065   */\n      swap2\n      swap1\n      pop\n      jump\t// out\n        /* \"#utility.yul\":25071:25251   */\n    tag_564:\n        /* \"#utility.yul\":25119:25196   */\n      0x4e487b7100000000000000000000000000000000000000000000000000000000\n        /* \"#utility.yul\":25116:25117   */\n      0x00\n        /* \"#utility.yul\":25109:25197   */\n      mstore\n        /* \"#utility.yul\":25216:25220   */\n      0x11\n        /* \"#utility.yul\":25213:25214   */\n      0x04\n        /* \"#utility.yul\":25206:25221   */\n      mstore\n        /* \"#utility.yul\":25240:25244   */\n      0x24\n        /* \"#utility.yul\":25237:25238   */\n      0x00\n        /* \"#utility.yul\":25230:25245   */\n      revert\n        /* \"#utility.yul\":25257:25448   */\n    tag_444:\n        /* \"#utility.yul\":25297:25300   */\n      0x00\n        /* \"#utility.yul\":25316:25336   */\n      tag_828\n        /* \"#utility.yul\":25334:25335   */\n      dup3\n        /* \"#utility.yul\":25316:25336   */\n      tag_511\n      jump\t// in\n    tag_828:\n        /* \"#utility.yul\":25311:25336   */\n      swap2\n      pop\n        /* \"#utility.yul\":25350:25370   */\n      tag_829\n        /* \"#utility.yul\":25368:25369   */\n      dup4\n        /* \"#utility.yul\":25350:25370   */\n      tag_511\n      jump\t// in\n    tag_829:\n        /* \"#utility.yul\":25345:25370   */\n      swap3\n      pop\n        /* \"#utility.yul\":25393:25394   */\n      dup3\n        /* \"#utility.yul\":25390:25391   */\n      dup3\n        /* \"#utility.yul\":25386:25395   */\n      add\n        /* \"#utility.yul\":25379:25395   */\n      swap1\n      pop\n        /* \"#utility.yul\":25414:25417   */\n      dup1\n        /* \"#utility.yul\":25411:25412   */\n      dup3\n        /* \"#utility.yul\":25408:25418   */\n      gt\n        /* \"#utility.yul\":25405:25441   */\n      iszero\n      tag_830\n      jumpi\n        /* \"#utility.yul\":25421:25439   */\n      tag_831\n      tag_564\n      jump\t// in\n    tag_831:\n        /* \"#utility.yul\":25405:25441   */\n    tag_830:\n        /* \"#utility.yul\":25257:25448   */\n      swap3\n      swap2\n      pop\n      pop\n      jump\t// out\n        /* \"#utility.yul\":25454:25595   */\n    tag_565:\n        /* \"#utility.yul\":25503:25507   */\n      0x00\n        /* \"#utility.yul\":25526:25529   */\n      dup2\n        /* \"#utility.yul\":25518:25529   */\n      swap1\n      pop\n        /* \"#utility.yul\":25549:25552   */\n      dup2\n        /* \"#utility.yul\":25546:25547   */\n      0x00\n        /* \"#utility.yul\":25539:25553   */\n      mstore\n        /* \"#utility.yul\":25583:25587   */\n      0x20\n        /* \"#utility.yul\":25580:25581   */\n      0x00\n        /* \"#utility.yul\":25570:25588   */\n      keccak256\n        /* \"#utility.yul\":25562:25588   */\n      swap1\n      pop\n        /* \"#utility.yul\":25454:25595   */\n      swap2\n      swap1\n      pop\n      jump\t// out\n        /* \"#utility.yul\":25601:25694   */\n    tag_566:\n        /* \"#utility.yul\":25638:25644   */\n      0x00\n        /* \"#utility.yul\":25685:25687   */\n      0x20\n        /* \"#utility.yul\":25680:25682   */\n      0x1f\n        /* \"#utility.yul\":25673:25678   */\n      dup4\n        /* \"#utility.yul\":25669:25683   */\n      add\n        /* \"#utility.yul\":25665:25688   */\n      div\n        /* \"#utility.yul\":25655:25688   */\n      swap1\n      pop\n        /* \"#utility.yul\":25601:25694   */\n      swap2\n      swap1\n      pop\n      jump\t// out\n        /* \"#utility.yul\":25700:25807   */\n    tag_567:\n        /* \"#utility.yul\":25744:25752   */\n      0x00\n        /* \"#utility.yul\":25794:25799   */\n      dup3\n        /* \"#utility.yul\":25788:25792   */\n      dup3\n        /* \"#utility.yul\":25784:25800   */\n      shl\n        /* \"#utility.yul\":25763:25800   */\n      swap1\n      pop\n        /* \"#utility.yul\":25700:25807   */\n      swap3\n      swap2\n      pop\n      pop\n      jump\t// out\n        /* \"#utility.yul\":25813:26206   */\n    tag_568:\n        /* \"#utility.yul\":25882:25888   */\n      0x00\n        /* \"#utility.yul\":25932:25933   */\n      0x08\n        /* \"#utility.yul\":25920:25930   */\n      dup4\n        /* \"#utility.yul\":25916:25934   */\n      mul\n        /* \"#utility.yul\":25955:26052   */\n      tag_836\n        /* \"#utility.yul\":25985:26051   */\n      0xffffffffffffffffffffffffffffffffffffffffffffffffffffffffffffffff\n        /* \"#utility.yul\":25974:25983   */\n      dup3\n        /* \"#utility.yul\":25955:26052   */\n      tag_567\n      jump\t// in\n    tag_836:\n        /* \"#utility.yul\":26073:26112   */\n      tag_837\n        /* \"#utility.yul\":26103:26111   */\n      dup7\n        /* \"#utility.yul\":26092:26101   */\n      dup4\n        /* \"#utility.yul\":26073:26112   */\n      tag_567\n      jump\t// in\n    tag_837:\n        /* \"#utility.yul\":26061:26112   */\n      swap6\n      pop\n        /* \"#utility.yul\":26145:26149   */\n      dup1\n        /* \"#utility.yul\":26141:26150   */\n      not\n        /* \"#utility.yul\":26134:26139   */\n      dup5\n        /* \"#utility.yul\":26130:26151   */\n      and\n        /* \"#utility.yul\":26121:26151   */\n      swap4\n      pop\n        /* \"#utility.yul\":26194:26198   */\n      dup1\n        /* \"#utility.yul\":26184:26192   */\n      dup7\n        /* \"#utility.yul\":26180:26199   */\n      and\n        /* \"#utility.yul\":26173:26178   */\n      dup5\n        /* \"#utility.yul\":26170:26200   */\n      or\n        /* \"#utility.yul\":26160:26200   */\n      swap3\n      pop\n        /* \"#utility.yul\":25889:26206   */\n      pop\n      pop\n        /* \"#utility.yul\":25813:26206   */\n      swap4\n      swap3\n      pop\n      pop\n      pop\n      jump\t// out\n        /* \"#utility.yul\":26212:26354   */\n    tag_569:\n        /* \"#utility.yul\":26262:26271   */\n      0x00\n        /* \"#utility.yul\":26295:26348   */\n      tag_839\n        /* \"#utility.yul\":26313:26347   */\n      tag_840\n        /* \"#utility.yul\":26322:26346   */\n      tag_841\n        /* \"#utility.yul\":26340:26345   */\n      dup5\n        /* \"#utility.yul\":26322:26346   */\n      tag_511\n      jump\t// in\n    tag_841:\n        /* \"#utility.yul\":26313:26347   */\n      tag_555\n      jump\t// in\n    tag_840:\n        /* \"#utility.yul\":26295:26348   */\n      tag_511\n      jump\t// in\n    tag_839:\n        /* \"#utility.yul\":26282:26348   */\n      swap1\n      pop\n        /* \"#utility.yul\":26212:26354   */\n      swap2\n      swap1\n      pop\n      jump\t// out\n        /* \"#utility.yul\":26360:26435   */\n    tag_570:\n        /* \"#utility.yul\":26403:26406   */\n      0x00\n        /* \"#utility.yul\":26424:26429   */\n      dup2\n        /* \"#utility.yul\":26417:26429   */\n      swap1\n      pop\n        /* \"#utility.yul\":26360:26435   */\n      swap2\n      swap1\n      pop\n      jump\t// out\n        /* \"#utility.yul\":26441:26710   */\n    tag_571:\n        /* \"#utility.yul\":26551:26590   */\n      tag_844\n        /* \"#utility.yul\":26582:26589   */\n      dup4\n        /* \"#utility.yul\":26551:26590   */\n      tag_569\n      jump\t// in\n    tag_844:\n        /* \"#utility.yul\":26612:26703   */\n      tag_845\n        /* \"#utility.yul\":26661:26702   */\n      tag_846\n        /* \"#utility.yul\":26685:26701   */\n      dup3\n        /* \"#utility.yul\":26661:26702   */\n      tag_570\n      jump\t// in\n    tag_846:\n        /* \"#utility.yul\":26653:26659   */\n      dup5\n        /* \"#utility.yul\":26646:26650   */\n      dup5\n        /* \"#utility.yul\":26640:26651   */\n      sload\n        /* \"#utility.yul\":26612:26703   */\n      tag_568\n      jump\t// in\n    tag_845:\n        /* \"#utility.yul\":26606:26610   */\n      dup3\n        /* \"#utility.yul\":26599:26704   */\n      sstore\n        /* \"#utility.yul\":26517:26710   */\n      pop\n        /* \"#utility.yul\":26441:26710   */\n      pop\n      pop\n      pop\n      jump\t// out\n        /* \"#utility.yul\":26716:26789   */\n    tag_572:\n        /* \"#utility.yul\":26761:26764   */\n      0x00\n        /* \"#utility.yul\":26716:26789   */\n      swap1\n      jump\t// out\n        /* \"#utility.yul\":26795:26984   */\n    tag_573:\n        /* \"#utility.yul\":26872:26904   */\n      tag_849\n      tag_572\n      jump\t// in\n    tag_849:\n        /* \"#utility.yul\":26913:26978   */\n      tag_850\n        /* \"#utility.yul\":26971:26977   */\n      dup2\n        /* \"#utility.yul\":26963:26969   */\n      dup5\n        /* \"#utility.yul\":26957:26961   */\n      dup5\n        /* \"#utility.yul\":26913:26978   */\n      tag_571\n      jump\t// in\n    tag_850:\n        /* \"#utility.yul\":26848:26984   */\n      pop\n        /* \"#utility.yul\":26795:26984   */\n      pop\n      pop\n      jump\t// out\n        /* \"#utility.yul\":26990:27176   */\n    tag_574:\n        /* \"#utility.yul\":27050:27170   */\n    tag_852:\n        /* \"#utility.yul\":27067:27070   */\n      dup2\n        /* \"#utility.yul\":27060:27065   */\n      dup2\n        /* \"#utility.yul\":27057:27071   */\n      lt\n        /* \"#utility.yul\":27050:27170   */\n      iszero\n      tag_854\n      jumpi\n        /* \"#utility.yul\":27121:27160   */\n      tag_855\n        /* \"#utility.yul\":27158:27159   */\n      0x00\n        /* \"#utility.yul\":27151:27156   */\n      dup3\n        /* \"#utility.yul\":27121:27160   */\n      tag_573\n      jump\t// in\n    tag_855:\n        /* \"#utility.yul\":27094:27095   */\n      0x01\n        /* \"#utility.yul\":27087:27092   */\n      dup2\n        /* \"#utility.yul\":27083:27096   */\n      add\n        /* \"#utility.yul\":27074:27096   */\n      swap1\n      pop\n        /* \"#utility.yul\":27050:27170   */\n      jump(tag_852)\n    tag_854:\n        /* \"#utility.yul\":26990:27176   */\n      pop\n      pop\n      jump\t// out\n        /* \"#utility.yul\":27182:27725   */\n    tag_575:\n        /* \"#utility.yul\":27283:27285   */\n      0x1f\n        /* \"#utility.yul\":27278:27281   */\n      dup3\n        /* \"#utility.yul\":27275:27286   */\n      gt\n        /* \"#utility.yul\":27272:27718   */\n      iszero\n      tag_857\n      jumpi\n        /* \"#utility.yul\":27317:27355   */\n      tag_858\n        /* \"#utility.yul\":27349:27354   */\n      dup2\n        /* \"#utility.yul\":27317:27355   */\n      tag_565\n      jump\t// in\n    tag_858:\n        /* \"#utility.yul\":27401:27430   */\n      tag_859\n        /* \"#utility.yul\":27419:27429   */\n      dup5\n        /* \"#utility.yul\":27401:27430   */\n      tag_566\n      jump\t// in\n    tag_859:\n        /* \"#utility.yul\":27391:27399   */\n      dup2\n        /* \"#utility.yul\":27387:27431   */\n      add\n        /* \"#utility.yul\":27584:27586   */\n      0x20\n        /* \"#utility.yul\":27572:27582   */\n      dup6\n        /* \"#utility.yul\":27569:27587   */\n      lt\n        /* \"#utility.yul\":27566:27615   */\n      iszero\n      tag_860\n      jumpi\n        /* \"#utility.yul\":27605:27613   */\n      dup2\n        /* \"#utility.yul\":27590:27613   */\n      swap1\n      pop\n        /* \"#utility.yul\":27566:27615   */\n    tag_860:\n        /* \"#utility.yul\":27628:27708   */\n      tag_861\n        /* \"#utility.yul\":27684:27706   */\n      tag_862\n        /* \"#utility.yul\":27702:27705   */\n      dup6\n        /* \"#utility.yul\":27684:27706   */\n      tag_566\n      jump\t// in\n    tag_862:\n        /* \"#utility.yul\":27674:27682   */\n      dup4\n        /* \"#utility.yul\":27670:27707   */\n      add\n        /* \"#utility.yul\":27657:27668   */\n      dup3\n        /* \"#utility.yul\":27628:27708   */\n      tag_574\n      jump\t// in\n    tag_861:\n        /* \"#utility.yul\":27287:27718   */\n      pop\n      pop\n        /* \"#utility.yul\":27272:27718   */\n    tag_857:\n        /* \"#utility.yul\":27182:27725   */\n      pop\n      pop\n      pop\n      jump\t// out\n        /* \"#utility.yul\":27731:27848   */\n    tag_576:\n        /* \"#utility.yul\":27785:27793   */\n      0x00\n        /* \"#utility.yul\":27835:27840   */\n      dup3\n        /* \"#utility.yul\":27829:27833   */\n      dup3\n        /* \"#utility.yul\":27825:27841   */\n      shr\n        /* \"#utility.yul\":27804:27841   */\n      swap1\n      pop\n        /* \"#utility.yul\":27731:27848   */\n      swap3\n      swap2\n      pop\n      pop\n      jump\t// out\n        /* \"#utility.yul\":27854:28023   */\n    tag_577:\n        /* \"#utility.yul\":27898:27904   */\n      0x00\n        /* \"#utility.yul\":27931:27982   */\n      tag_865\n        /* \"#utility.yul\":27979:27980   */\n      0x00\n        /* \"#utility.yul\":27975:27981   */\n      not\n        /* \"#utility.yul\":27967:27972   */\n      dup5\n        /* \"#utility.yul\":27964:27965   */\n      0x08\n        /* \"#utility.yul\":27960:27973   */\n      mul\n        /* \"#utility.yul\":27931:27982   */\n      tag_576\n      jump\t// in\n    tag_865:\n        /* \"#utility.yul\":27927:27983   */\n      not\n        /* \"#utility.yul\":28012:28016   */\n      dup1\n        /* \"#utility.yul\":28006:28010   */\n      dup4\n        /* \"#utility.yul\":28002:28017   */\n      and\n        /* \"#utility.yul\":27992:28017   */\n      swap2\n      pop\n        /* \"#utility.yul\":27905:28023   */\n      pop\n        /* \"#utility.yul\":27854:28023   */\n      swap3\n      swap2\n      pop\n      pop\n      jump\t// out\n        /* \"#utility.yul\":28028:28323   */\n    tag_578:\n        /* \"#utility.yul\":28104:28108   */\n      0x00\n        /* \"#utility.yul\":28250:28279   */\n      tag_867\n        /* \"#utility.yul\":28275:28278   */\n      dup4\n        /* \"#utility.yul\":28269:28273   */\n      dup4\n        /* \"#utility.yul\":28250:28279   */\n      tag_577\n      jump\t// in\n    tag_867:\n        /* \"#utility.yul\":28242:28279   */\n      swap2\n      pop\n        /* \"#utility.yul\":28312:28315   */\n      dup3\n        /* \"#utility.yul\":28309:28310   */\n      0x02\n        /* \"#utility.yul\":28305:28316   */\n      mul\n        /* \"#utility.yul\":28299:28303   */\n      dup3\n        /* \"#utility.yul\":28296:28317   */\n      or\n        /* \"#utility.yul\":28288:28317   */\n      swap1\n      pop\n        /* \"#utility.yul\":28028:28323   */\n      swap3\n      swap2\n      pop\n      pop\n      jump\t// out\n        /* \"#utility.yul\":28328:29723   */\n    tag_460:\n        /* \"#utility.yul\":28445:28482   */\n      tag_869\n        /* \"#utility.yul\":28478:28481   */\n      dup3\n        /* \"#utility.yul\":28445:28482   */\n      tag_499\n      jump\t// in\n    tag_869:\n        /* \"#utility.yul\":28547:28565   */\n      0xffffffffffffffff\n        /* \"#utility.yul\":28539:28545   */\n      dup2\n        /* \"#utility.yul\":28536:28566   */\n      gt\n        /* \"#utility.yul\":28533:28589   */\n      iszero\n      tag_870\n      jumpi\n        /* \"#utility.yul\":28569:28587   */\n      tag_871\n      tag_523\n      jump\t// in\n    tag_871:\n        /* \"#utility.yul\":28533:28589   */\n    tag_870:\n        /* \"#utility.yul\":28613:28651   */\n      tag_872\n        /* \"#utility.yul\":28645:28649   */\n      dup3\n        /* \"#utility.yul\":28639:28650   */\n      sload\n        /* \"#utility.yul\":28613:28651   */\n      tag_165\n      jump\t// in\n    tag_872:\n        /* \"#utility.yul\":28698:28765   */\n      tag_873\n        /* \"#utility.yul\":28758:28764   */\n      dup3\n        /* \"#utility.yul\":28750:28756   */\n      dup3\n        /* \"#utility.yul\":28744:28748   */\n      dup6\n        /* \"#utility.yul\":28698:28765   */\n      tag_575\n      jump\t// in\n    tag_873:\n        /* \"#utility.yul\":28792:28793   */\n      0x00\n        /* \"#utility.yul\":28816:28820   */\n      0x20\n        /* \"#utility.yul\":28803:28820   */\n      swap1\n      pop\n        /* \"#utility.yul\":28848:28850   */\n      0x1f\n        /* \"#utility.yul\":28840:28846   */\n      dup4\n        /* \"#utility.yul\":28837:28851   */\n      gt\n        /* \"#utility.yul\":28865:28866   */\n      0x01\n        /* \"#utility.yul\":28860:29478   */\n      dup2\n      eq\n      tag_875\n      jumpi\n        /* \"#utility.yul\":29522:29523   */\n      0x00\n        /* \"#utility.yul\":29539:29545   */\n      dup5\n        /* \"#utility.yul\":29536:29613   */\n      iszero\n      tag_876\n      jumpi\n        /* \"#utility.yul\":29588:29597   */\n      dup3\n        /* \"#utility.yul\":29583:29586   */\n      dup8\n        /* \"#utility.yul\":29579:29598   */\n      add\n        /* \"#utility.yul\":29573:29599   */\n      mload\n        /* \"#utility.yul\":29564:29599   */\n      swap1\n      pop\n        /* \"#utility.yul\":29536:29613   */\n    tag_876:\n        /* \"#utility.yul\":29639:29706   */\n      tag_877\n        /* \"#utility.yul\":29699:29705   */\n      dup6\n        /* \"#utility.yul\":29692:29697   */\n      dup3\n        /* \"#utility.yul\":29639:29706   */\n      tag_578\n      jump\t// in\n    tag_877:\n        /* \"#utility.yul\":29633:29637   */\n      dup7\n        /* \"#utility.yul\":29626:29707   */\n      sstore\n        /* \"#utility.yul\":29495:29717   */\n      pop\n        /* \"#utility.yul\":28830:29717   */\n      jump(tag_874)\n        /* \"#utility.yul\":28860:29478   */\n    tag_875:\n        /* \"#utility.yul\":28912:28916   */\n      0x1f\n        /* \"#utility.yul\":28908:28917   */\n      not\n        /* \"#utility.yul\":28900:28906   */\n      dup5\n        /* \"#utility.yul\":28896:28918   */\n      and\n        /* \"#utility.yul\":28946:28983   */\n      tag_878\n        /* \"#utility.yul\":28978:28982   */\n      dup7\n        /* \"#utility.yul\":28946:28983   */\n      tag_565\n      jump\t// in\n    tag_878:\n        /* \"#utility.yul\":29005:29006   */\n      0x00\n        /* \"#utility.yul\":29019:29227   */\n    tag_879:\n        /* \"#utility.yul\":29033:29040   */\n      dup3\n        /* \"#utility.yul\":29030:29031   */\n      dup2\n        /* \"#utility.yul\":29027:29041   */\n      lt\n        /* \"#utility.yul\":29019:29227   */\n      iszero\n      tag_881\n      jumpi\n        /* \"#utility.yul\":29112:29121   */\n      dup5\n        /* \"#utility.yul\":29107:29110   */\n      dup10\n        /* \"#utility.yul\":29103:29122   */\n      add\n        /* \"#utility.yul\":29097:29123   */\n      mload\n        /* \"#utility.yul\":29089:29095   */\n      dup3\n        /* \"#utility.yul\":29082:29124   */\n      sstore\n        /* \"#utility.yul\":29163:29164   */\n      0x01\n        /* \"#utility.yul\":29155:29161   */\n      dup3\n        /* \"#utility.yul\":29151:29165   */\n      add\n        /* \"#utility.yul\":29141:29165   */\n      swap2\n      pop\n        /* \"#utility.yul\":29210:29212   */\n      0x20\n        /* \"#utility.yul\":29199:29208   */\n      dup6\n        /* \"#utility.yul\":29195:29213   */\n      add\n        /* \"#utility.yul\":29182:29213   */\n      swap5\n      pop\n        /* \"#utility.yul\":29056:29060   */\n      0x20\n        /* \"#utility.yul\":29053:29054   */\n      dup2\n        /* \"#utility.yul\":29049:29061   */\n      add\n        /* \"#utility.yul\":29044:29061   */\n      swap1\n      pop\n        /* \"#utility.yul\":29019:29227   */\n      jump(tag_879)\n    tag_881:\n        /* \"#utility.yul\":29255:29261   */\n      dup7\n        /* \"#utility.yul\":29246:29253   */\n      dup4\n        /* \"#utility.yul\":29243:29262   */\n      lt\n        /* \"#utility.yul\":29240:29419   */\n      iszero\n      tag_882\n      jumpi\n        /* \"#utility.yul\":29313:29322   */\n      dup5\n        /* \"#utility.yul\":29308:29311   */\n      dup10\n        /* \"#utility.yul\":29304:29323   */\n      add\n        /* \"#utility.yul\":29298:29324   */\n      mload\n        /* \"#utility.yul\":29356:29404   */\n      tag_883\n        /* \"#utility.yul\":29398:29402   */\n      0x1f\n        /* \"#utility.yul\":29390:29396   */\n      dup10\n        /* \"#utility.yul\":29386:29403   */\n      and\n        /* \"#utility.yul\":29375:29384   */\n      dup3\n        /* \"#utility.yul\":29356:29404   */\n      tag_577\n      jump\t// in\n    tag_883:\n        /* \"#utility.yul\":29348:29354   */\n      dup4\n        /* \"#utility.yul\":29341:29405   */\n      sstore\n        /* \"#utility.yul\":29263:29419   */\n      pop\n        /* \"#utility.yul\":29240:29419   */\n    tag_882:\n        /* \"#utility.yul\":29465:29466   */\n      0x01\n        /* \"#utility.yul\":29461:29462   */\n      0x02\n        /* \"#utility.yul\":29453:29459   */\n      dup9\n        /* \"#utility.yul\":29449:29463   */\n      mul\n        /* \"#utility.yul\":29445:29467   */\n      add\n        /* \"#utility.yul\":29439:29443   */\n      dup9\n        /* \"#utility.yul\":29432:29468   */\n      sstore\n        /* \"#utility.yul\":28867:29478   */\n      pop\n      pop\n      pop\n        /* \"#utility.yul\":28830:29717   */\n    tag_874:\n      pop\n        /* \"#utility.yul\":28420:29723   */\n      pop\n      pop\n      pop\n        /* \"#utility.yul\":28328:29723   */\n      pop\n      pop\n      jump\t// out\n        /* \"#utility.yul\":29729:29827   */\n    tag_579:\n        /* \"#utility.yul\":29780:29786   */\n      0x00\n        /* \"#utility.yul\":29814:29819   */\n      dup2\n        /* \"#utility.yul\":29808:29820   */\n      mload\n        /* \"#utility.yul\":29798:29820   */\n      swap1\n      pop\n        /* \"#utility.yul\":29729:29827   */\n      swap2\n      swap1\n      pop\n      jump\t// out\n        /* \"#utility.yul\":29833:29980   */\n    tag_580:\n        /* \"#utility.yul\":29934:29945   */\n      0x00\n        /* \"#utility.yul\":29971:29974   */\n      dup2\n        /* \"#utility.yul\":29956:29974   */\n      swap1\n      pop\n        /* \"#utility.yul\":29833:29980   */\n      swap3\n      swap2\n      pop\n      pop\n      jump\t// out\n        /* \"#utility.yul\":29986:30372   */\n    tag_581:\n        /* \"#utility.yul\":30090:30093   */\n      0x00\n        /* \"#utility.yul\":30118:30156   */\n      tag_887\n        /* \"#utility.yul\":30150:30155   */\n      dup3\n        /* \"#utility.yul\":30118:30156   */\n      tag_579\n      jump\t// in\n    tag_887:\n        /* \"#utility.yul\":30172:30260   */\n      tag_888\n        /* \"#utility.yul\":30253:30259   */\n      dup2\n        /* \"#utility.yul\":30248:30251   */\n      dup6\n        /* \"#utility.yul\":30172:30260   */\n      tag_580\n      jump\t// in\n    tag_888:\n        /* \"#utility.yul\":30165:30260   */\n      swap4\n      pop\n        /* \"#utility.yul\":30269:30334   */\n      tag_889\n        /* \"#utility.yul\":30327:30333   */\n      dup2\n        /* \"#utility.yul\":30322:30325   */\n      dup6\n        /* \"#utility.yul\":30315:30319   */\n      0x20\n        /* \"#utility.yul\":30308:30313   */\n      dup7\n        /* \"#utility.yul\":30304:30320   */\n      add\n        /* \"#utility.yul\":30269:30334   */\n      tag_501\n      jump\t// in\n    tag_889:\n        /* \"#utility.yul\":30359:30365   */\n      dup1\n        /* \"#utility.yul\":30354:30357   */\n      dup5\n        /* \"#utility.yul\":30350:30366   */\n      add\n        /* \"#utility.yul\":30343:30366   */\n      swap2\n      pop\n        /* \"#utility.yul\":30094:30372   */\n      pop\n        /* \"#utility.yul\":29986:30372   */\n      swap3\n      swap2\n      pop\n      pop\n      jump\t// out\n        /* \"#utility.yul\":30378:30649   */\n    tag_478:\n        /* \"#utility.yul\":30508:30511   */\n      0x00\n        /* \"#utility.yul\":30530:30623   */\n      tag_891\n        /* \"#utility.yul\":30619:30622   */\n      dup3\n        /* \"#utility.yul\":30610:30616   */\n      dup5\n        /* \"#utility.yul\":30530:30623   */\n      tag_581\n      jump\t// in\n    tag_891:\n        /* \"#utility.yul\":30523:30623   */\n      swap2\n      pop\n        /* \"#utility.yul\":30640:30643   */\n      dup2\n        /* \"#utility.yul\":30633:30643   */\n      swap1\n      pop\n        /* \"#utility.yul\":30378:30649   */\n      swap3\n      swap2\n      pop\n      pop\n      jump\t// out\n\n    auxdata: 0xa26469706673582212205f4a8e6fe10034a2f72b5c859bb633800554e8b74b243b7c79f5310d643d2c2164736f6c634300081a0033\n}\n",
				"bytecode": {
					"linkReferences": {},
					"object": "60a06040523073ffffffffffffffffffffffffffffffffffffffff1660809073ffffffffffffffffffffffffffffffffffffffff1681525034801561004357600080fd5b5061005261005760201b60201c565b6101c1565b600061006761015b60201b60201c565b90508060000160089054906101000a900460ff16156100b2576040517ff92ee8a900000000000000000000000000000000000000000000000000000000815260040160405180910390fd5b67ffffffffffffffff80168160000160009054906101000a900467ffffffffffffffff1667ffffffffffffffff16146101585767ffffffffffffffff8160000160006101000a81548167ffffffffffffffff021916908367ffffffffffffffff1602179055507fc7f505b2f371ae2175ee4913f4499e1f2633a7b5936321eed1cdaeb6115181d267ffffffffffffffff60405161014f91906101a6565b60405180910390a15b50565b60007ff0c57e16840df040f15088dc2f81fe391c3923bec73e23a9662efc9c229c6a00905090565b600067ffffffffffffffff82169050919050565b6101a081610183565b82525050565b60006020820190506101bb6000830184610197565b92915050565b6080516136f56101ea600039600081816116ae0152818161170301526118be01526136f56000f3fe60806040526004361061019c5760003560e01c8063715018a6116100ec578063ad3cb1cc1161008a578063dbac26e911610064578063dbac26e914610583578063dd62ed3e146105c0578063f2fde38b146105fd578063fe575a87146106265761019c565b8063ad3cb1cc14610504578063b119490e1461052f578063c66e4095146105585761019c565b80638da5cb5b116100c65780638da5cb5b1461043457806395d89b411461045f5780639bc289f11461048a578063a9059cbb146104c75761019c565b8063715018a6146103dd5780638456cb59146103f457806388d695b21461040b5761019c565b8063313ce567116101595780634f1ef286116101335780634f1ef2861461032e57806352d1902d1461034a5780635c975abb1461037557806370a08231146103a05761019c565b8063313ce567146102c35780633e579307146102ee5780633f4ba83a146103175761019c565b806306fdde03146101a1578063095ea7b3146101cc578063153b0d1e1461020957806318160ddd1461023257806323b872dd1461025d5780632e0d2a001461029a575b600080fd5b3480156101ad57600080fd5b506101b6610663565b6040516101c391906126ba565b60405180910390f35b3480156101d857600080fd5b506101f360048036038101906101ee9190612784565b610704565b60405161020091906127df565b60405180910390f35b34801561021557600080fd5b50610230600480360381019061022b9190612826565b610727565b005b34801561023e57600080fd5b506102476107d8565b6040516102549190612875565b60405180910390f35b34801561026957600080fd5b50610284600480360381019061027f9190612890565b6107f0565b60405161029191906127df565b60405180910390f35b3480156102a657600080fd5b506102c160048036038101906102bc91906128e3565b6109f4565b005b3480156102cf57600080fd5b506102d8610a83565b6040516102e5919061292c565b60405180910390f35b3480156102fa57600080fd5b5061031560048036038101906103109190612784565b610a8c565b005b34801561032357600080fd5b5061032c610bf9565b005b61034860048036038101906103439190612a7c565b610c0b565b005b34801561035657600080fd5b5061035f610c2a565b60405161036c9190612af1565b60405180910390f35b34801561038157600080fd5b5061038a610c5d565b60405161039791906127df565b60405180910390f35b3480156103ac57600080fd5b506103c760048036038101906103c291906128e3565b610c73565b6040516103d49190612875565b60405180910390f35b3480156103e957600080fd5b506103f2610cca565b005b34801561040057600080fd5b50610409610cde565b005b34801561041757600080fd5b50610432600480360381019061042d9190612bc2565b610cf0565b005b34801561044057600080fd5b50610449610e67565b6040516104569190612c52565b60405180910390f35b34801561046b57600080fd5b50610474610e9f565b60405161048191906126ba565b60405180910390f35b34801561049657600080fd5b506104b160048036038101906104ac91906128e3565b610f40565b6040516104be9190612875565b60405180910390f35b3480156104d357600080fd5b506104ee60048036038101906104e99190612784565b610f58565b6040516104fb91906127df565b60405180910390f35b34801561051057600080fd5b5061051961115a565b60405161052691906126ba565b60405180910390f35b34801561053b57600080fd5b5061055660048036038101906105519190612d0e565b611193565b005b34801561056457600080fd5b5061056d611351565b60405161057a9190612c52565b60405180910390f35b34801561058f57600080fd5b506105aa60048036038101906105a591906128e3565b611377565b6040516105b791906127df565b60405180910390f35b3480156105cc57600080fd5b506105e760048036038101906105e29190612d99565b611397565b6040516105f49190612875565b60405180910390f35b34801561060957600080fd5b50610624600480360381019061061f91906128e3565b61142c565b005b34801561063257600080fd5b5061064d600480360381019061064891906128e3565b6114b2565b60405161065a91906127df565b60405180910390f35b6060600061066f611508565b905080600301805461068090612e08565b80601f01602080910402602001604051908101604052809291908181526020018280546106ac90612e08565b80156106f95780601f106106ce576101008083540402835291602001916106f9565b820191906000526020600020905b8154815290600101906020018083116106dc57829003601f168201915b505050505091505090565b60008061070f611530565b905061071c818585611538565b600191505092915050565b61072f61154a565b80603560008473ffffffffffffffffffffffffffffffffffffffff1673ffffffffffffffffffffffffffffffffffffffff16815260200190815260200160002060006101000a81548160ff0219169083151502179055508173ffffffffffffffffffffffffffffffffffffffff167fcf3473b85df1594d47b6958f29a32bea0abff9dd68296f7bf33443646793cfd8826040516107cc91906127df565b60405180910390a25050565b6000806107e3611508565b9050806002015491505090565b60006107fa6115d1565b603560008573ffffffffffffffffffffffffffffffffffffffff1673ffffffffffffffffffffffffffffffffffffffff16815260200190815260200160002060009054906101000a900460ff1615610887576040517f08c379a000000000000000000000000000000000000000000000000000000000815260040161087e90612eab565b60405180910390fd5b603560008473ffffffffffffffffffffffffffffffffffffffff1673ffffffffffffffffffffffffffffffffffffffff16815260200190815260200160002060009054906101000a900460ff1615610914576040517f08c379a000000000000000000000000000000000000000000000000000000000815260040161090b90612f3d565b60405180910390fd5b603460008573ffffffffffffffffffffffffffffffffffffffff1673ffffffffffffffffffffffffffffffffffffffff16815260200190815260200160002054421015806109a157506000603460008673ffffffffffffffffffffffffffffffffffffffff1673ffffffffffffffffffffffffffffffffffffffff16815260200190815260200160002054145b6109e0576040517f08c379a00000000000000000000000000000000000000000000000000000000081526004016109d790612fcf565b60405180910390fd5b6109eb84848461161b565b90509392505050565b6109fc61154a565b80603260006101000a81548173ffffffffffffffffffffffffffffffffffffffff021916908373ffffffffffffffffffffffffffffffffffffffff1602179055508073ffffffffffffffffffffffffffffffffffffffff167fe7bbfbbf7e7948988eb7f8904da938aff02a23b8b28fcee206be4d4b3edd9ad860405160405180910390a250565b60006012905090565b603260009054906101000a900473ffffffffffffffffffffffffffffffffffffffff1673ffffffffffffffffffffffffffffffffffffffff163373ffffffffffffffffffffffffffffffffffffffff1614610b1c576040517f08c379a0000000000000000000000000000000000000000000000000000000008152600401610b139061303b565b60405180910390fd5b80603460008473ffffffffffffffffffffffffffffffffffffffff1673ffffffffffffffffffffffffffffffffffffffff1681526020019081526020016000205414610bf55780603460008473ffffffffffffffffffffffffffffffffffffffff1673ffffffffffffffffffffffffffffffffffffffff168152602001908152602001600020819055508173ffffffffffffffffffffffffffffffffffffffff167f611cdbea265cb87ef40e17c595bad009182b4db741622f7848e344c15451de2f82604051610bec9190612875565b60405180910390a25b5050565b610c0161154a565b610c0961164a565b565b610c136116ac565b610c1c82611792565b610c26828261179d565b5050565b6000610c346118bc565b7f360894a13ba1a3210667c828492db98dca3e2076cc3735a920a3ca505d382bbc60001b905090565b60008060009054906101000a900460ff16905090565b600080610c7e611508565b90508060000160008473ffffffffffffffffffffffffffffffffffffffff1673ffffffffffffffffffffffffffffffffffffffff16815260200190815260200160002054915050919050565b610cd261154a565b610cdc6000611943565b565b610ce661154a565b610cee611a1a565b565b610cf86115d1565b818190508484905014610d40576040517f08c379a0000000000000000000000000000000000000000000000000000000008152600401610d37906130cd565b60405180910390fd5b600084849050905060005b81811015610e5f5760356000878784818110610d6a57610d696130ed565b5b9050602002016020810190610d7f91906128e3565b73ffffffffffffffffffffffffffffffffffffffff1673ffffffffffffffffffffffffffffffffffffffff16815260200190815260200160002060009054906101000a900460ff1615610e07576040517f08c379a0000000000000000000000000000000000000000000000000000000008152600401610dfe9061318e565b60405180910390fd5b610e5233878784818110610e1e57610e1d6130ed565b5b9050602002016020810190610e3391906128e3565b868685818110610e4657610e456130ed565b5b90506020020135611a7c565b8080600101915050610d4b565b505050505050565b600080610e72611b70565b90508060000160009054906101000a900473ffffffffffffffffffffffffffffffffffffffff1691505090565b60606000610eab611508565b9050806004018054610ebc90612e08565b80601f0160208091040260200160405190810160405280929190818152602001828054610ee890612e08565b8015610f355780601f10610f0a57610100808354040283529160200191610f35565b820191906000526020600020905b815481529060010190602001808311610f1857829003601f168201915b505050505091505090565b60346020528060005260406000206000915090505481565b6000610f626115d1565b603560003373ffffffffffffffffffffffffffffffffffffffff1673ffffffffffffffffffffffffffffffffffffffff16815260200190815260200160002060009054906101000a900460ff1615610fef576040517f08c379a0000000000000000000000000000000000000000000000000000000008152600401610fe690612eab565b60405180910390fd5b603560008473ffffffffffffffffffffffffffffffffffffffff1673ffffffffffffffffffffffffffffffffffffffff16815260200190815260200160002060009054906101000a900460ff161561107c576040517f08c379a000000000000000000000000000000000000000000000000000000000815260040161107390612f3d565b60405180910390fd5b603460003373ffffffffffffffffffffffffffffffffffffffff1673ffffffffffffffffffffffffffffffffffffffff168152602001908152602001600020544210158061110957506000603460003373ffffffffffffffffffffffffffffffffffffffff1673ffffffffffffffffffffffffffffffffffffffff16815260200190815260200160002054145b611148576040517f08c379a000000000000000000000000000000000000000000000000000000000815260040161113f90612fcf565b60405180910390fd5b6111528383611b98565b905092915050565b6040518060400160405280600581526020017f352e302e3000000000000000000000000000000000000000000000000000000081525081565b600061119d611bbb565b905060008160000160089054906101000a900460ff1615905060008260000160009054906101000a900467ffffffffffffffff1690506000808267ffffffffffffffff161480156111eb5750825b9050600060018367ffffffffffffffff16148015611220575060003073ffffffffffffffffffffffffffffffffffffffff163b145b90508115801561122e575080155b15611265576040517ff92ee8a900000000000000000000000000000000000000000000000000000000815260040160405180910390fd5b60018560000160006101000a81548167ffffffffffffffff021916908367ffffffffffffffff16021790555083156112b55760018560000160086101000a81548160ff0219169083151502179055505b6112bf8888611be3565b6112c833611bf9565b6112d0611c0d565b6112d8611c1f565b856033819055506112eb33603354611c29565b83156113475760008560000160086101000a81548160ff0219169083151502179055507fc7f505b2f371ae2175ee4913f4499e1f2633a7b5936321eed1cdaeb6115181d2600160405161133e9190613207565b60405180910390a15b5050505050505050565b603260009054906101000a900473ffffffffffffffffffffffffffffffffffffffff1681565b60356020528060005260406000206000915054906101000a900460ff1681565b6000806113a2611508565b90508060010160008573ffffffffffffffffffffffffffffffffffffffff1673ffffffffffffffffffffffffffffffffffffffff16815260200190815260200160002060008473ffffffffffffffffffffffffffffffffffffffff1673ffffffffffffffffffffffffffffffffffffffff1681526020019081526020016000205491505092915050565b61143461154a565b600073ffffffffffffffffffffffffffffffffffffffff168173ffffffffffffffffffffffffffffffffffffffff16036114a65760006040517f1e4fbdf700000000000000000000000000000000000000000000000000000000815260040161149d9190612c52565b60405180910390fd5b6114af81611943565b50565b6000603560008373ffffffffffffffffffffffffffffffffffffffff1673ffffffffffffffffffffffffffffffffffffffff16815260200190815260200160002060009054906101000a900460ff169050919050565b60007f52c63247e1f47db19d5ce0460030c497f067ca4cebf71ba98eeadabe20bace00905090565b600033905090565b6115458383836001611cab565b505050565b611552611530565b73ffffffffffffffffffffffffffffffffffffffff16611570610e67565b73ffffffffffffffffffffffffffffffffffffffff16146115cf57611593611530565b6040517f118cdaa70000000000000000000000000000000000000000000000000000000081526004016115c69190612c52565b60405180910390fd5b565b6115d9610c5d565b15611619576040517f08c379a00000000000000000000000000000000000000000000000000000000081526004016116109061326e565b60405180910390fd5b565b600080611626611530565b9050611633858285611e91565b61163e858585611a7c565b60019150509392505050565b611652611f25565b60008060006101000a81548160ff0219169083151502179055507f5db9ee0a495bf2e6ff9c91a7834c1ba4fdd244a5e8aa4e537bd38aeae4b073aa611695611530565b6040516116a29190612c52565b60405180910390a1565b7f000000000000000000000000000000000000000000000000000000000000000073ffffffffffffffffffffffffffffffffffffffff163073ffffffffffffffffffffffffffffffffffffffff16148061175957507f000000000000000000000000000000000000000000000000000000000000000073ffffffffffffffffffffffffffffffffffffffff16611740611f6e565b73ffffffffffffffffffffffffffffffffffffffff1614155b15611790576040517fe07c8dba00000000000000000000000000000000000000000000000000000000815260040160405180910390fd5b565b61179a61154a565b50565b8173ffffffffffffffffffffffffffffffffffffffff166352d1902d6040518163ffffffff1660e01b8152600401602060405180830381865afa92505050801561180557506040513d601f19601f8201168201806040525081019061180291906132ba565b60015b61184657816040517f4c9c8ce300000000000000000000000000000000000000000000000000000000815260040161183d9190612c52565b60405180910390fd5b7f360894a13ba1a3210667c828492db98dca3e2076cc3735a920a3ca505d382bbc60001b81146118ad57806040517faa1d49a40000000000000000000000000000000000000000000000000000000081526004016118a49190612af1565b60405180910390fd5b6118b78383611fc5565b505050565b7f000000000000000000000000000000000000000000000000000000000000000073ffffffffffffffffffffffffffffffffffffffff163073ffffffffffffffffffffffffffffffffffffffff1614611941576040517fe07c8dba00000000000000000000000000000000000000000000000000000000815260040160405180910390fd5b565b600061194d611b70565b905060008160000160009054906101000a900473ffffffffffffffffffffffffffffffffffffffff169050828260000160006101000a81548173ffffffffffffffffffffffffffffffffffffffff021916908373ffffffffffffffffffffffffffffffffffffffff1602179055508273ffffffffffffffffffffffffffffffffffffffff168173ffffffffffffffffffffffffffffffffffffffff167f8be0079c531659141344cd1fd0a4f28419497f9722a3daafe3b4186f6b6457e060405160405180910390a3505050565b611a226115d1565b60016000806101000a81548160ff0219169083151502179055507f62e78cea01bee320cd4e420270b5ea74000d11b0c9f74754ebdbfc544b05a258611a65611530565b604051611a729190612c52565b60405180910390a1565b600073ffffffffffffffffffffffffffffffffffffffff168373ffffffffffffffffffffffffffffffffffffffff1603611aee5760006040517f96c6fd1e000000000000000000000000000000000000000000000000000000008152600401611ae59190612c52565b60405180910390fd5b600073ffffffffffffffffffffffffffffffffffffffff168273ffffffffffffffffffffffffffffffffffffffff1603611b605760006040517fec442f05000000000000000000000000000000000000000000000000000000008152600401611b579190612c52565b60405180910390fd5b611b6b838383612038565b505050565b60007f9016d09d72d40fdae2fd8ceac6b6234c7706214fd39c1cd1e609a0528c199300905090565b600080611ba3611530565b9050611bb0818585611a7c565b600191505092915050565b60007ff0c57e16840df040f15088dc2f81fe391c3923bec73e23a9662efc9c229c6a00905090565b611beb612277565b611bf582826122b7565b5050565b611c01612277565b611c0a816122f4565b50565b611c15612277565b611c1d61237a565b565b611c27612277565b565b600073ffffffffffffffffffffffffffffffffffffffff168273ffffffffffffffffffffffffffffffffffffffff1603611c9b5760006040517fec442f05000000000000000000000000000000000000000000000000000000008152600401611c929190612c52565b60405180910390fd5b611ca760008383612038565b5050565b6000611cb5611508565b9050600073ffffffffffffffffffffffffffffffffffffffff168573ffffffffffffffffffffffffffffffffffffffff1603611d295760006040517fe602df05000000000000000000000000000000000000000000000000000000008152600401611d209190612c52565b60405180910390fd5b600073ffffffffffffffffffffffffffffffffffffffff168473ffffffffffffffffffffffffffffffffffffffff1603611d9b5760006040517f94280d62000000000000000000000000000000000000000000000000000000008152600401611d929190612c52565b60405180910390fd5b828160010160008773ffffffffffffffffffffffffffffffffffffffff1673ffffffffffffffffffffffffffffffffffffffff16815260200190815260200160002060008673ffffffffffffffffffffffffffffffffffffffff1673ffffffffffffffffffffffffffffffffffffffff168152602001908152602001600020819055508115611e8a578373ffffffffffffffffffffffffffffffffffffffff168573ffffffffffffffffffffffffffffffffffffffff167f8c5be1e5ebec7d5bd14f71427d1e84f3dd0314c0f7b2291e5b200ac8c7c3b92585604051611e819190612875565b60405180910390a35b5050505050565b6000611e9d8484611397565b90507fffffffffffffffffffffffffffffffffffffffffffffffffffffffffffffffff8114611f1f5781811015611f0f578281836040517ffb8f41b2000000000000000000000000000000000000000000000000000000008152600401611f06939291906132e7565b60405180910390fd5b611f1e84848484036000611cab565b5b50505050565b611f2d610c5d565b611f6c576040517f08c379a0000000000000000000000000000000000000000000000000000000008152600401611f639061336a565b60405180910390fd5b565b6000611f9c7f360894a13ba1a3210667c828492db98dca3e2076cc3735a920a3ca505d382bbc60001b61239e565b60000160009054906101000a900473ffffffffffffffffffffffffffffffffffffffff16905090565b611fce826123a8565b8173ffffffffffffffffffffffffffffffffffffffff167fbc7cd75a20ee27fd9adebab32041f755214dbc6bffa90cc0225b39da2e5c2d3b60405160405180910390a260008151111561202b576120258282612475565b50612034565b6120336124f9565b5b5050565b6000612042611508565b9050600073ffffffffffffffffffffffffffffffffffffffff168473ffffffffffffffffffffffffffffffffffffffff1603612098578181600201600082825461208c91906133b9565b92505081905550612171565b60008160000160008673ffffffffffffffffffffffffffffffffffffffff1673ffffffffffffffffffffffffffffffffffffffff16815260200190815260200160002054905082811015612127578481846040517fe450d38c00000000000000000000000000000000000000000000000000000000815260040161211e939291906132e7565b60405180910390fd5b8281038260000160008773ffffffffffffffffffffffffffffffffffffffff1673ffffffffffffffffffffffffffffffffffffffff16815260200190815260200160002081905550505b600073ffffffffffffffffffffffffffffffffffffffff168373ffffffffffffffffffffffffffffffffffffffff16036121bc5781816002016000828254039250508190555061220c565b818160000160008573ffffffffffffffffffffffffffffffffffffffff1673ffffffffffffffffffffffffffffffffffffffff168152602001908152602001600020600082825401925050819055505b8273ffffffffffffffffffffffffffffffffffffffff168473ffffffffffffffffffffffffffffffffffffffff167fddf252ad1be2c89b69c2b068fc378daa952ba7f163c4a11628f55a4df523b3ef846040516122699190612875565b60405180910390a350505050565b61227f612536565b6122b5576040517fd7e6bcf800000000000000000000000000000000000000000000000000000000815260040160405180910390fd5b565b6122bf612277565b60006122c9611508565b9050828160030190816122dc919061358f565b50818160040190816122ee919061358f565b50505050565b6122fc612277565b600073ffffffffffffffffffffffffffffffffffffffff168173ffffffffffffffffffffffffffffffffffffffff160361236e5760006040517f1e4fbdf70000000000000000000000000000000000000000000000000000000081526004016123659190612c52565b60405180910390fd5b61237781611943565b50565b612382612277565b60008060006101000a81548160ff021916908315150217905550565b6000819050919050565b60008173ffffffffffffffffffffffffffffffffffffffff163b0361240457806040517f4c9c8ce30000000000000000000000000000000000000000000000000000000081526004016123fb9190612c52565b60405180910390fd5b806124317f360894a13ba1a3210667c828492db98dca3e2076cc3735a920a3ca505d382bbc60001b61239e565b60000160006101000a81548173ffffffffffffffffffffffffffffffffffffffff021916908373ffffffffffffffffffffffffffffffffffffffff16021790555050565b60606000808473ffffffffffffffffffffffffffffffffffffffff168460405161249f91906136a8565b600060405180830381855af49150503d80600081146124da576040519150601f19603f3d011682016040523d82523d6000602084013e6124df565b606091505b50915091506124ef858383612556565b9250505092915050565b6000341115612534576040517fb398979f00000000000000000000000000000000000000000000000000000000815260040160405180910390fd5b565b6000612540611bbb565b60000160089054906101000a900460ff16905090565b60608261256b57612566826125e5565b6125dd565b60008251148015612593575060008473ffffffffffffffffffffffffffffffffffffffff163b145b156125d557836040517f9996b3150000000000000000000000000000000000000000000000000000000081526004016125cc9190612c52565b60405180910390fd5b8190506125de565b5b9392505050565b6000815111156125f85780518082602001fd5b6040517fd6bda27500000000000000000000000000000000000000000000000000000000815260040160405180910390fd5b600081519050919050565b600082825260208201905092915050565b60005b83811015612664578082015181840152602081019050612649565b60008484015250505050565b6000601f19601f8301169050919050565b600061268c8261262a565b6126968185612635565b93506126a6818560208601612646565b6126af81612670565b840191505092915050565b600060208201905081810360008301526126d48184612681565b905092915050565b6000604051905090565b600080fd5b600080fd5b600073ffffffffffffffffffffffffffffffffffffffff82169050919050565b600061271b826126f0565b9050919050565b61272b81612710565b811461273657600080fd5b50565b60008135905061274881612722565b92915050565b6000819050919050565b6127618161274e565b811461276c57600080fd5b50565b60008135905061277e81612758565b92915050565b6000806040838503121561279b5761279a6126e6565b5b60006127a985828601612739565b92505060206127ba8582860161276f565b9150509250929050565b60008115159050919050565b6127d9816127c4565b82525050565b60006020820190506127f460008301846127d0565b92915050565b612803816127c4565b811461280e57600080fd5b50565b600081359050612820816127fa565b92915050565b6000806040838503121561283d5761283c6126e6565b5b600061284b85828601612739565b925050602061285c85828601612811565b9150509250929050565b61286f8161274e565b82525050565b600060208201905061288a6000830184612866565b92915050565b6000806000606084860312156128a9576128a86126e6565b5b60006128b786828701612739565b93505060206128c886828701612739565b92505060406128d98682870161276f565b9150509250925092565b6000602082840312156128f9576128f86126e6565b5b600061290784828501612739565b91505092915050565b600060ff82169050919050565b61292681612910565b82525050565b6000602082019050612941600083018461291d565b92915050565b600080fd5b600080fd5b7f4e487b7100000000000000000000000000000000000000000000000000000000600052604160045260246000fd5b61298982612670565b810181811067ffffffffffffffff821117156129a8576129a7612951565b5b80604052505050565b60006129bb6126dc565b90506129c78282612980565b919050565b600067ffffffffffffffff8211156129e7576129e6612951565b5b6129f082612670565b9050602081019050919050565b82818337600083830152505050565b6000612a1f612a1a846129cc565b6129b1565b905082815260208101848484011115612a3b57612a3a61294c565b5b612a468482856129fd565b509392505050565b600082601f830112612a6357612a62612947565b5b8135612a73848260208601612a0c565b91505092915050565b60008060408385031215612a9357612a926126e6565b5b6000612aa185828601612739565b925050602083013567ffffffffffffffff811115612ac257612ac16126eb565b5b612ace85828601612a4e565b9150509250929050565b6000819050919050565b612aeb81612ad8565b82525050565b6000602082019050612b066000830184612ae2565b92915050565b600080fd5b600080fd5b60008083601f840112612b2c57612b2b612947565b5b8235905067ffffffffffffffff811115612b4957612b48612b0c565b5b602083019150836020820283011115612b6557612b64612b11565b5b9250929050565b60008083601f840112612b8257612b81612947565b5b8235905067ffffffffffffffff811115612b9f57612b9e612b0c565b5b602083019150836020820283011115612bbb57612bba612b11565b5b9250929050565b60008060008060408587031215612bdc57612bdb6126e6565b5b600085013567ffffffffffffffff811115612bfa57612bf96126eb565b5b612c0687828801612b16565b9450945050602085013567ffffffffffffffff811115612c2957612c286126eb565b5b612c3587828801612b6c565b925092505092959194509250565b612c4c81612710565b82525050565b6000602082019050612c676000830184612c43565b92915050565b600067ffffffffffffffff821115612c8857612c87612951565b5b612c9182612670565b9050602081019050919050565b6000612cb1612cac84612c6d565b6129b1565b905082815260208101848484011115612ccd57612ccc61294c565b5b612cd88482856129fd565b509392505050565b600082601f830112612cf557612cf4612947565b5b8135612d05848260208601612c9e565b91505092915050565b600080600060608486031215612d2757612d266126e6565b5b600084013567ffffffffffffffff811115612d4557612d446126eb565b5b612d5186828701612ce0565b935050602084013567ffffffffffffffff811115612d7257612d716126eb565b5b612d7e86828701612ce0565b9250506040612d8f8682870161276f565b9150509250925092565b60008060408385031215612db057612daf6126e6565b5b6000612dbe85828601612739565b9250506020612dcf85828601612739565b9150509250929050565b7f4e487b7100000000000000000000000000000000000000000000000000000000600052602260045260246000fd5b60006002820490506001821680612e2057607f821691505b602082108103612e3357612e32612dd9565b5b50919050565b7f5472616e73666572206661696c65643a2053656e64657220697320626c61636b60008201527f6c69737465640000000000000000000000000000000000000000000000000000602082015250565b6000612e95602683612635565b9150612ea082612e39565b604082019050919050565b60006020820190508181036000830152612ec481612e88565b9050919050565b7f5472616e73666572206661696c65643a20526563697069656e7420697320626c60008201527f61636b6c69737465640000000000000000000000000000000000000000000000602082015250565b6000612f27602983612635565b9150612f3282612ecb565b604082019050919050565b60006020820190508181036000830152612f5681612f1a565b9050919050565b7f5472616e73666572206661696c65643a20546f6b656e7320617265206c6f636b60008201527f6564000000000000000000000000000000000000000000000000000000000000602082015250565b6000612fb9602283612635565b9150612fc482612f5d565b604082019050919050565b60006020820190508181036000830152612fe881612fac565b9050919050565b7f4e6f7420617574686f72697a6564000000000000000000000000000000000000600082015250565b6000613025600e83612635565b915061303082612fef565b602082019050919050565b6000602082019050818103600083015261305481613018565b9050919050565b7f42617463685472616e73666572206661696c65643a204d69736d61746368656460008201527f2061727261797300000000000000000000000000000000000000000000000000602082015250565b60006130b7602783612635565b91506130c28261305b565b604082019050919050565b600060208201905081810360008301526130e6816130aa565b9050919050565b7f4e487b7100000000000000000000000000000000000000000000000000000000600052603260045260246000fd5b7f42617463685472616e73666572206661696c65643a20526563697069656e742060008201527f697320626c61636b6c6973746564000000000000000000000000000000000000602082015250565b6000613178602e83612635565b91506131838261311c565b604082019050919050565b600060208201905081810360008301526131a78161316b565b9050919050565b6000819050919050565b600067ffffffffffffffff82169050919050565b6000819050919050565b60006131f16131ec6131e7846131ae565b6131cc565b6131b8565b9050919050565b613201816131d6565b82525050565b600060208201905061321c60008301846131f8565b92915050565b7f5061757361626c653a2070617573656400000000000000000000000000000000600082015250565b6000613258601083612635565b915061326382613222565b602082019050919050565b600060208201905081810360008301526132878161324b565b9050919050565b61329781612ad8565b81146132a257600080fd5b50565b6000815190506132b48161328e565b92915050565b6000602082840312156132d0576132cf6126e6565b5b60006132de848285016132a5565b91505092915050565b60006060820190506132fc6000830186612c43565b6133096020830185612866565b6133166040830184612866565b949350505050565b7f5061757361626c653a206e6f7420706175736564000000000000000000000000600082015250565b6000613354601483612635565b915061335f8261331e565b602082019050919050565b6000602082019050818103600083015261338381613347565b9050919050565b7f4e487b7100000000000000000000000000000000000000000000000000000000600052601160045260246000fd5b60006133c48261274e565b91506133cf8361274e565b92508282019050808211156133e7576133e661338a565b5b92915050565b60008190508160005260206000209050919050565b60006020601f8301049050919050565b600082821b905092915050565b60006008830261344f7fffffffffffffffffffffffffffffffffffffffffffffffffffffffffffffffff82613412565b6134598683613412565b95508019841693508086168417925050509392505050565b600061348c6134876134828461274e565b6131cc565b61274e565b9050919050565b6000819050919050565b6134a683613471565b6134ba6134b282613493565b84845461341f565b825550505050565b600090565b6134cf6134c2565b6134da81848461349d565b505050565b5b818110156134fe576134f36000826134c7565b6001810190506134e0565b5050565b601f82111561354357613514816133ed565b61351d84613402565b8101602085101561352c578190505b61354061353885613402565b8301826134df565b50505b505050565b600082821c905092915050565b600061356660001984600802613548565b1980831691505092915050565b600061357f8383613555565b9150826002028217905092915050565b6135988261262a565b67ffffffffffffffff8111156135b1576135b0612951565b5b6135bb8254612e08565b6135c6828285613502565b600060209050601f8311600181146135f957600084156135e7578287015190505b6135f18582613573565b865550613659565b601f198416613607866133ed565b60005b8281101561362f5784890151825560018201915060208501945060208101905061360a565b8683101561364c5784890151613648601f891682613555565b8355505b6001600288020188555050505b505050505050565b600081519050919050565b600081905092915050565b600061368282613661565b61368c818561366c565b935061369c818560208601612646565b80840191505092915050565b60006136b48284613677565b91508190509291505056fea26469706673582212205f4a8e6fe10034a2f72b5c859bb633800554e8b74b243b7c79f5310d643d2c2164736f6c634300081a0033",
					"opcodes": "PUSH1 0xA0 PUSH1 0x40 MSTORE ADDRESS PUSH20 0xFFFFFFFFFFFFFFFFFFFFFFFFFFFFFFFFFFFFFFFF AND PUSH1 0x80 SWAP1 PUSH20 0xFFFFFFFFFFFFFFFFFFFFFFFFFFFFFFFFFFFFFFFF AND DUP2 MSTORE POP CALLVALUE DUP1 ISZERO PUSH2 0x43 JUMPI PUSH1 0x0 DUP1 REVERT JUMPDEST POP PUSH2 0x52 PUSH2 0x57 PUSH1 0x20 SHL PUSH1 0x20 SHR JUMP JUMPDEST PUSH2 0x1C1 JUMP JUMPDEST PUSH1 0x0 PUSH2 0x67 PUSH2 0x15B PUSH1 0x20 SHL PUSH1 0x20 SHR JUMP JUMPDEST SWAP1 POP DUP1 PUSH1 0x0 ADD PUSH1 0x8 SWAP1 SLOAD SWAP1 PUSH2 0x100 EXP SWAP1 DIV PUSH1 0xFF AND ISZERO PUSH2 0xB2 JUMPI PUSH1 0x40 MLOAD PUSH32 0xF92EE8A900000000000000000000000000000000000000000000000000000000 DUP2 MSTORE PUSH1 0x4 ADD PUSH1 0x40 MLOAD DUP1 SWAP2 SUB SWAP1 REVERT JUMPDEST PUSH8 0xFFFFFFFFFFFFFFFF DUP1 AND DUP2 PUSH1 0x0 ADD PUSH1 0x0 SWAP1 SLOAD SWAP1 PUSH2 0x100 EXP SWAP1 DIV PUSH8 0xFFFFFFFFFFFFFFFF AND PUSH8 0xFFFFFFFFFFFFFFFF AND EQ PUSH2 0x158 JUMPI PUSH8 0xFFFFFFFFFFFFFFFF DUP2 PUSH1 0x0 ADD PUSH1 0x0 PUSH2 0x100 EXP DUP2 SLOAD DUP2 PUSH8 0xFFFFFFFFFFFFFFFF MUL NOT AND SWAP1 DUP4 PUSH8 0xFFFFFFFFFFFFFFFF AND MUL OR SWAP1 SSTORE POP PUSH32 0xC7F505B2F371AE2175EE4913F4499E1F2633A7B5936321EED1CDAEB6115181D2 PUSH8 0xFFFFFFFFFFFFFFFF PUSH1 0x40 MLOAD PUSH2 0x14F SWAP2 SWAP1 PUSH2 0x1A6 JUMP JUMPDEST PUSH1 0x40 MLOAD DUP1 SWAP2 SUB SWAP1 LOG1 JUMPDEST POP JUMP JUMPDEST PUSH1 0x0 PUSH32 0xF0C57E16840DF040F15088DC2F81FE391C3923BEC73E23A9662EFC9C229C6A00 SWAP1 POP SWAP1 JUMP JUMPDEST PUSH1 0x0 PUSH8 0xFFFFFFFFFFFFFFFF DUP3 AND SWAP1 POP SWAP2 SWAP1 POP JUMP JUMPDEST PUSH2 0x1A0 DUP2 PUSH2 0x183 JUMP JUMPDEST DUP3 MSTORE POP POP JUMP JUMPDEST PUSH1 0x0 PUSH1 0x20 DUP3 ADD SWAP1 POP PUSH2 0x1BB PUSH1 0x0 DUP4 ADD DUP5 PUSH2 0x197 JUMP JUMPDEST SWAP3 SWAP2 POP POP JUMP JUMPDEST PUSH1 0x80 MLOAD PUSH2 0x36F5 PUSH2 0x1EA PUSH1 0x0 CODECOPY PUSH1 0x0 DUP2 DUP2 PUSH2 0x16AE ADD MSTORE DUP2 DUP2 PUSH2 0x1703 ADD MSTORE PUSH2 0x18BE ADD MSTORE PUSH2 0x36F5 PUSH1 0x0 RETURN INVALID PUSH1 0x80 PUSH1 0x40 MSTORE PUSH1 0x4 CALLDATASIZE LT PUSH2 0x19C JUMPI PUSH1 0x0 CALLDATALOAD PUSH1 0xE0 SHR DUP1 PUSH4 0x715018A6 GT PUSH2 0xEC JUMPI DUP1 PUSH4 0xAD3CB1CC GT PUSH2 0x8A JUMPI DUP1 PUSH4 0xDBAC26E9 GT PUSH2 0x64 JUMPI DUP1 PUSH4 0xDBAC26E9 EQ PUSH2 0x583 JUMPI DUP1 PUSH4 0xDD62ED3E EQ PUSH2 0x5C0 JUMPI DUP1 PUSH4 0xF2FDE38B EQ PUSH2 0x5FD JUMPI DUP1 PUSH4 0xFE575A87 EQ PUSH2 0x626 JUMPI PUSH2 0x19C JUMP JUMPDEST DUP1 PUSH4 0xAD3CB1CC EQ PUSH2 0x504 JUMPI DUP1 PUSH4 0xB119490E EQ PUSH2 0x52F JUMPI DUP1 PUSH4 0xC66E4095 EQ PUSH2 0x558 JUMPI PUSH2 0x19C JUMP JUMPDEST DUP1 PUSH4 0x8DA5CB5B GT PUSH2 0xC6 JUMPI DUP1 PUSH4 0x8DA5CB5B EQ PUSH2 0x434 JUMPI DUP1 PUSH4 0x95D89B41 EQ PUSH2 0x45F JUMPI DUP1 PUSH4 0x9BC289F1 EQ PUSH2 0x48A JUMPI DUP1 PUSH4 0xA9059CBB EQ PUSH2 0x4C7 JUMPI PUSH2 0x19C JUMP JUMPDEST DUP1 PUSH4 0x715018A6 EQ PUSH2 0x3DD JUMPI DUP1 PUSH4 0x8456CB59 EQ PUSH2 0x3F4 JUMPI DUP1 PUSH4 0x88D695B2 EQ PUSH2 0x40B JUMPI PUSH2 0x19C JUMP JUMPDEST DUP1 PUSH4 0x313CE567 GT PUSH2 0x159 JUMPI DUP1 PUSH4 0x4F1EF286 GT PUSH2 0x133 JUMPI DUP1 PUSH4 0x4F1EF286 EQ PUSH2 0x32E JUMPI DUP1 PUSH4 0x52D1902D EQ PUSH2 0x34A JUMPI DUP1 PUSH4 0x5C975ABB EQ PUSH2 0x375 JUMPI DUP1 PUSH4 0x70A08231 EQ PUSH2 0x3A0 JUMPI PUSH2 0x19C JUMP JUMPDEST DUP1 PUSH4 0x313CE567 EQ PUSH2 0x2C3 JUMPI DUP1 PUSH4 0x3E579307 EQ PUSH2 0x2EE JUMPI DUP1 PUSH4 0x3F4BA83A EQ PUSH2 0x317 JUMPI PUSH2 0x19C JUMP JUMPDEST DUP1 PUSH4 0x6FDDE03 EQ PUSH2 0x1A1 JUMPI DUP1 PUSH4 0x95EA7B3 EQ PUSH2 0x1CC JUMPI DUP1 PUSH4 0x153B0D1E EQ PUSH2 0x209 JUMPI DUP1 PUSH4 0x18160DDD EQ PUSH2 0x232 JUMPI DUP1 PUSH4 0x23B872DD EQ PUSH2 0x25D JUMPI DUP1 PUSH4 0x2E0D2A00 EQ PUSH2 0x29A JUMPI JUMPDEST PUSH1 0x0 DUP1 REVERT JUMPDEST CALLVALUE DUP1 ISZERO PUSH2 0x1AD JUMPI PUSH1 0x0 DUP1 REVERT JUMPDEST POP PUSH2 0x1B6 PUSH2 0x663 JUMP JUMPDEST PUSH1 0x40 MLOAD PUSH2 0x1C3 SWAP2 SWAP1 PUSH2 0x26BA JUMP JUMPDEST PUSH1 0x40 MLOAD DUP1 SWAP2 SUB SWAP1 RETURN JUMPDEST CALLVALUE DUP1 ISZERO PUSH2 0x1D8 JUMPI PUSH1 0x0 DUP1 REVERT JUMPDEST POP PUSH2 0x1F3 PUSH1 0x4 DUP1 CALLDATASIZE SUB DUP2 ADD SWAP1 PUSH2 0x1EE SWAP2 SWAP1 PUSH2 0x2784 JUMP JUMPDEST PUSH2 0x704 JUMP JUMPDEST PUSH1 0x40 MLOAD PUSH2 0x200 SWAP2 SWAP1 PUSH2 0x27DF JUMP JUMPDEST PUSH1 0x40 MLOAD DUP1 SWAP2 SUB SWAP1 RETURN JUMPDEST CALLVALUE DUP1 ISZERO PUSH2 0x215 JUMPI PUSH1 0x0 DUP1 REVERT JUMPDEST POP PUSH2 0x230 PUSH1 0x4 DUP1 CALLDATASIZE SUB DUP2 ADD SWAP1 PUSH2 0x22B SWAP2 SWAP1 PUSH2 0x2826 JUMP JUMPDEST PUSH2 0x727 JUMP JUMPDEST STOP JUMPDEST CALLVALUE DUP1 ISZERO PUSH2 0x23E JUMPI PUSH1 0x0 DUP1 REVERT JUMPDEST POP PUSH2 0x247 PUSH2 0x7D8 JUMP JUMPDEST PUSH1 0x40 MLOAD PUSH2 0x254 SWAP2 SWAP1 PUSH2 0x2875 JUMP JUMPDEST PUSH1 0x40 MLOAD DUP1 SWAP2 SUB SWAP1 RETURN JUMPDEST CALLVALUE DUP1 ISZERO PUSH2 0x269 JUMPI PUSH1 0x0 DUP1 REVERT JUMPDEST POP PUSH2 0x284 PUSH1 0x4 DUP1 CALLDATASIZE SUB DUP2 ADD SWAP1 PUSH2 0x27F SWAP2 SWAP1 PUSH2 0x2890 JUMP JUMPDEST PUSH2 0x7F0 JUMP JUMPDEST PUSH1 0x40 MLOAD PUSH2 0x291 SWAP2 SWAP1 PUSH2 0x27DF JUMP JUMPDEST PUSH1 0x40 MLOAD DUP1 SWAP2 SUB SWAP1 RETURN JUMPDEST CALLVALUE DUP1 ISZERO PUSH2 0x2A6 JUMPI PUSH1 0x0 DUP1 REVERT JUMPDEST POP PUSH2 0x2C1 PUSH1 0x4 DUP1 CALLDATASIZE SUB DUP2 ADD SWAP1 PUSH2 0x2BC SWAP2 SWAP1 PUSH2 0x28E3 JUMP JUMPDEST PUSH2 0x9F4 JUMP JUMPDEST STOP JUMPDEST CALLVALUE DUP1 ISZERO PUSH2 0x2CF JUMPI PUSH1 0x0 DUP1 REVERT JUMPDEST POP PUSH2 0x2D8 PUSH2 0xA83 JUMP JUMPDEST PUSH1 0x40 MLOAD PUSH2 0x2E5 SWAP2 SWAP1 PUSH2 0x292C JUMP JUMPDEST PUSH1 0x40 MLOAD DUP1 SWAP2 SUB SWAP1 RETURN JUMPDEST CALLVALUE DUP1 ISZERO PUSH2 0x2FA JUMPI PUSH1 0x0 DUP1 REVERT JUMPDEST POP PUSH2 0x315 PUSH1 0x4 DUP1 CALLDATASIZE SUB DUP2 ADD SWAP1 PUSH2 0x310 SWAP2 SWAP1 PUSH2 0x2784 JUMP JUMPDEST PUSH2 0xA8C JUMP JUMPDEST STOP JUMPDEST CALLVALUE DUP1 ISZERO PUSH2 0x323 JUMPI PUSH1 0x0 DUP1 REVERT JUMPDEST POP PUSH2 0x32C PUSH2 0xBF9 JUMP JUMPDEST STOP JUMPDEST PUSH2 0x348 PUSH1 0x4 DUP1 CALLDATASIZE SUB DUP2 ADD SWAP1 PUSH2 0x343 SWAP2 SWAP1 PUSH2 0x2A7C JUMP JUMPDEST PUSH2 0xC0B JUMP JUMPDEST STOP JUMPDEST CALLVALUE DUP1 ISZERO PUSH2 0x356 JUMPI PUSH1 0x0 DUP1 REVERT JUMPDEST POP PUSH2 0x35F PUSH2 0xC2A JUMP JUMPDEST PUSH1 0x40 MLOAD PUSH2 0x36C SWAP2 SWAP1 PUSH2 0x2AF1 JUMP JUMPDEST PUSH1 0x40 MLOAD DUP1 SWAP2 SUB SWAP1 RETURN JUMPDEST CALLVALUE DUP1 ISZERO PUSH2 0x381 JUMPI PUSH1 0x0 DUP1 REVERT JUMPDEST POP PUSH2 0x38A PUSH2 0xC5D JUMP JUMPDEST PUSH1 0x40 MLOAD PUSH2 0x397 SWAP2 SWAP1 PUSH2 0x27DF JUMP JUMPDEST PUSH1 0x40 MLOAD DUP1 SWAP2 SUB SWAP1 RETURN JUMPDEST CALLVALUE DUP1 ISZERO PUSH2 0x3AC JUMPI PUSH1 0x0 DUP1 REVERT JUMPDEST POP PUSH2 0x3C7 PUSH1 0x4 DUP1 CALLDATASIZE SUB DUP2 ADD SWAP1 PUSH2 0x3C2 SWAP2 SWAP1 PUSH2 0x28E3 JUMP JUMPDEST PUSH2 0xC73 JUMP JUMPDEST PUSH1 0x40 MLOAD PUSH2 0x3D4 SWAP2 SWAP1 PUSH2 0x2875 JUMP JUMPDEST PUSH1 0x40 MLOAD DUP1 SWAP2 SUB SWAP1 RETURN JUMPDEST CALLVALUE DUP1 ISZERO PUSH2 0x3E9 JUMPI PUSH1 0x0 DUP1 REVERT JUMPDEST POP PUSH2 0x3F2 PUSH2 0xCCA JUMP JUMPDEST STOP JUMPDEST CALLVALUE DUP1 ISZERO PUSH2 0x400 JUMPI PUSH1 0x0 DUP1 REVERT JUMPDEST POP PUSH2 0x409 PUSH2 0xCDE JUMP JUMPDEST STOP JUMPDEST CALLVALUE DUP1 ISZERO PUSH2 0x417 JUMPI PUSH1 0x0 DUP1 REVERT JUMPDEST POP PUSH2 0x432 PUSH1 0x4 DUP1 CALLDATASIZE SUB DUP2 ADD SWAP1 PUSH2 0x42D SWAP2 SWAP1 PUSH2 0x2BC2 JUMP JUMPDEST PUSH2 0xCF0 JUMP JUMPDEST STOP JUMPDEST CALLVALUE DUP1 ISZERO PUSH2 0x440 JUMPI PUSH1 0x0 DUP1 REVERT JUMPDEST POP PUSH2 0x449 PUSH2 0xE67 JUMP JUMPDEST PUSH1 0x40 MLOAD PUSH2 0x456 SWAP2 SWAP1 PUSH2 0x2C52 JUMP JUMPDEST PUSH1 0x40 MLOAD DUP1 SWAP2 SUB SWAP1 RETURN JUMPDEST CALLVALUE DUP1 ISZERO PUSH2 0x46B JUMPI PUSH1 0x0 DUP1 REVERT JUMPDEST POP PUSH2 0x474 PUSH2 0xE9F JUMP JUMPDEST PUSH1 0x40 MLOAD PUSH2 0x481 SWAP2 SWAP1 PUSH2 0x26BA JUMP JUMPDEST PUSH1 0x40 MLOAD DUP1 SWAP2 SUB SWAP1 RETURN JUMPDEST CALLVALUE DUP1 ISZERO PUSH2 0x496 JUMPI PUSH1 0x0 DUP1 REVERT JUMPDEST POP PUSH2 0x4B1 PUSH1 0x4 DUP1 CALLDATASIZE SUB DUP2 ADD SWAP1 PUSH2 0x4AC SWAP2 SWAP1 PUSH2 0x28E3 JUMP JUMPDEST PUSH2 0xF40 JUMP JUMPDEST PUSH1 0x40 MLOAD PUSH2 0x4BE SWAP2 SWAP1 PUSH2 0x2875 JUMP JUMPDEST PUSH1 0x40 MLOAD DUP1 SWAP2 SUB SWAP1 RETURN JUMPDEST CALLVALUE DUP1 ISZERO PUSH2 0x4D3 JUMPI PUSH1 0x0 DUP1 REVERT JUMPDEST POP PUSH2 0x4EE PUSH1 0x4 DUP1 CALLDATASIZE SUB DUP2 ADD SWAP1 PUSH2 0x4E9 SWAP2 SWAP1 PUSH2 0x2784 JUMP JUMPDEST PUSH2 0xF58 JUMP JUMPDEST PUSH1 0x40 MLOAD PUSH2 0x4FB SWAP2 SWAP1 PUSH2 0x27DF JUMP JUMPDEST PUSH1 0x40 MLOAD DUP1 SWAP2 SUB SWAP1 RETURN JUMPDEST CALLVALUE DUP1 ISZERO PUSH2 0x510 JUMPI PUSH1 0x0 DUP1 REVERT JUMPDEST POP PUSH2 0x519 PUSH2 0x115A JUMP JUMPDEST PUSH1 0x40 MLOAD PUSH2 0x526 SWAP2 SWAP1 PUSH2 0x26BA JUMP JUMPDEST PUSH1 0x40 MLOAD DUP1 SWAP2 SUB SWAP1 RETURN JUMPDEST CALLVALUE DUP1 ISZERO PUSH2 0x53B JUMPI PUSH1 0x0 DUP1 REVERT JUMPDEST POP PUSH2 0x556 PUSH1 0x4 DUP1 CALLDATASIZE SUB DUP2 ADD SWAP1 PUSH2 0x551 SWAP2 SWAP1 PUSH2 0x2D0E JUMP JUMPDEST PUSH2 0x1193 JUMP JUMPDEST STOP JUMPDEST CALLVALUE DUP1 ISZERO PUSH2 0x564 JUMPI PUSH1 0x0 DUP1 REVERT JUMPDEST POP PUSH2 0x56D PUSH2 0x1351 JUMP JUMPDEST PUSH1 0x40 MLOAD PUSH2 0x57A SWAP2 SWAP1 PUSH2 0x2C52 JUMP JUMPDEST PUSH1 0x40 MLOAD DUP1 SWAP2 SUB SWAP1 RETURN JUMPDEST CALLVALUE DUP1 ISZERO PUSH2 0x58F JUMPI PUSH1 0x0 DUP1 REVERT JUMPDEST POP PUSH2 0x5AA PUSH1 0x4 DUP1 CALLDATASIZE SUB DUP2 ADD SWAP1 PUSH2 0x5A5 SWAP2 SWAP1 PUSH2 0x28E3 JUMP JUMPDEST PUSH2 0x1377 JUMP JUMPDEST PUSH1 0x40 MLOAD PUSH2 0x5B7 SWAP2 SWAP1 PUSH2 0x27DF JUMP JUMPDEST PUSH1 0x40 MLOAD DUP1 SWAP2 SUB SWAP1 RETURN JUMPDEST CALLVALUE DUP1 ISZERO PUSH2 0x5CC JUMPI PUSH1 0x0 DUP1 REVERT JUMPDEST POP PUSH2 0x5E7 PUSH1 0x4 DUP1 CALLDATASIZE SUB DUP2 ADD SWAP1 PUSH2 0x5E2 SWAP2 SWAP1 PUSH2 0x2D99 JUMP JUMPDEST PUSH2 0x1397 JUMP JUMPDEST PUSH1 0x40 MLOAD PUSH2 0x5F4 SWAP2 SWAP1 PUSH2 0x2875 JUMP JUMPDEST PUSH1 0x40 MLOAD DUP1 SWAP2 SUB SWAP1 RETURN JUMPDEST CALLVALUE DUP1 ISZERO PUSH2 0x609 JUMPI PUSH1 0x0 DUP1 REVERT JUMPDEST POP PUSH2 0x624 PUSH1 0x4 DUP1 CALLDATASIZE SUB DUP2 ADD SWAP1 PUSH2 0x61F SWAP2 SWAP1 PUSH2 0x28E3 JUMP JUMPDEST PUSH2 0x142C JUMP JUMPDEST STOP JUMPDEST CALLVALUE DUP1 ISZERO PUSH2 0x632 JUMPI PUSH1 0x0 DUP1 REVERT JUMPDEST POP PUSH2 0x64D PUSH1 0x4 DUP1 CALLDATASIZE SUB DUP2 ADD SWAP1 PUSH2 0x648 SWAP2 SWAP1 PUSH2 0x28E3 JUMP JUMPDEST PUSH2 0x14B2 JUMP JUMPDEST PUSH1 0x40 MLOAD PUSH2 0x65A SWAP2 SWAP1 PUSH2 0x27DF JUMP JUMPDEST PUSH1 0x40 MLOAD DUP1 SWAP2 SUB SWAP1 RETURN JUMPDEST PUSH1 0x60 PUSH1 0x0 PUSH2 0x66F PUSH2 0x1508 JUMP JUMPDEST SWAP1 POP DUP1 PUSH1 0x3 ADD DUP1 SLOAD PUSH2 0x680 SWAP1 PUSH2 0x2E08 JUMP JUMPDEST DUP1 PUSH1 0x1F ADD PUSH1 0x20 DUP1 SWAP2 DIV MUL PUSH1 0x20 ADD PUSH1 0x40 MLOAD SWAP1 DUP2 ADD PUSH1 0x40 MSTORE DUP1 SWAP3 SWAP2 SWAP1 DUP2 DUP2 MSTORE PUSH1 0x20 ADD DUP3 DUP1 SLOAD PUSH2 0x6AC SWAP1 PUSH2 0x2E08 JUMP JUMPDEST DUP1 ISZERO PUSH2 0x6F9 JUMPI DUP1 PUSH1 0x1F LT PUSH2 0x6CE JUMPI PUSH2 0x100 DUP1 DUP4 SLOAD DIV MUL DUP4 MSTORE SWAP2 PUSH1 0x20 ADD SWAP2 PUSH2 0x6F9 JUMP JUMPDEST DUP3 ADD SWAP2 SWAP1 PUSH1 0x0 MSTORE PUSH1 0x20 PUSH1 0x0 KECCAK256 SWAP1 JUMPDEST DUP2 SLOAD DUP2 MSTORE SWAP1 PUSH1 0x1 ADD SWAP1 PUSH1 0x20 ADD DUP1 DUP4 GT PUSH2 0x6DC JUMPI DUP3 SWAP1 SUB PUSH1 0x1F AND DUP3 ADD SWAP2 JUMPDEST POP POP POP POP POP SWAP2 POP POP SWAP1 JUMP JUMPDEST PUSH1 0x0 DUP1 PUSH2 0x70F PUSH2 0x1530 JUMP JUMPDEST SWAP1 POP PUSH2 0x71C DUP2 DUP6 DUP6 PUSH2 0x1538 JUMP JUMPDEST PUSH1 0x1 SWAP2 POP POP SWAP3 SWAP2 POP POP JUMP JUMPDEST PUSH2 0x72F PUSH2 0x154A JUMP JUMPDEST DUP1 PUSH1 0x35 PUSH1 0x0 DUP5 PUSH20 0xFFFFFFFFFFFFFFFFFFFFFFFFFFFFFFFFFFFFFFFF AND PUSH20 0xFFFFFFFFFFFFFFFFFFFFFFFFFFFFFFFFFFFFFFFF AND DUP2 MSTORE PUSH1 0x20 ADD SWAP1 DUP2 MSTORE PUSH1 0x20 ADD PUSH1 0x0 KECCAK256 PUSH1 0x0 PUSH2 0x100 EXP DUP2 SLOAD DUP2 PUSH1 0xFF MUL NOT AND SWAP1 DUP4 ISZERO ISZERO MUL OR SWAP1 SSTORE POP DUP2 PUSH20 0xFFFFFFFFFFFFFFFFFFFFFFFFFFFFFFFFFFFFFFFF AND PUSH32 0xCF3473B85DF1594D47B6958F29A32BEA0ABFF9DD68296F7BF33443646793CFD8 DUP3 PUSH1 0x40 MLOAD PUSH2 0x7CC SWAP2 SWAP1 PUSH2 0x27DF JUMP JUMPDEST PUSH1 0x40 MLOAD DUP1 SWAP2 SUB SWAP1 LOG2 POP POP JUMP JUMPDEST PUSH1 0x0 DUP1 PUSH2 0x7E3 PUSH2 0x1508 JUMP JUMPDEST SWAP1 POP DUP1 PUSH1 0x2 ADD SLOAD SWAP2 POP POP SWAP1 JUMP JUMPDEST PUSH1 0x0 PUSH2 0x7FA PUSH2 0x15D1 JUMP JUMPDEST PUSH1 0x35 PUSH1 0x0 DUP6 PUSH20 0xFFFFFFFFFFFFFFFFFFFFFFFFFFFFFFFFFFFFFFFF AND PUSH20 0xFFFFFFFFFFFFFFFFFFFFFFFFFFFFFFFFFFFFFFFF AND DUP2 MSTORE PUSH1 0x20 ADD SWAP1 DUP2 MSTORE PUSH1 0x20 ADD PUSH1 0x0 KECCAK256 PUSH1 0x0 SWAP1 SLOAD SWAP1 PUSH2 0x100 EXP SWAP1 DIV PUSH1 0xFF AND ISZERO PUSH2 0x887 JUMPI PUSH1 0x40 MLOAD PUSH32 0x8C379A000000000000000000000000000000000000000000000000000000000 DUP2 MSTORE PUSH1 0x4 ADD PUSH2 0x87E SWAP1 PUSH2 0x2EAB JUMP JUMPDEST PUSH1 0x40 MLOAD DUP1 SWAP2 SUB SWAP1 REVERT JUMPDEST PUSH1 0x35 PUSH1 0x0 DUP5 PUSH20 0xFFFFFFFFFFFFFFFFFFFFFFFFFFFFFFFFFFFFFFFF AND PUSH20 0xFFFFFFFFFFFFFFFFFFFFFFFFFFFFFFFFFFFFFFFF AND DUP2 MSTORE PUSH1 0x20 ADD SWAP1 DUP2 MSTORE PUSH1 0x20 ADD PUSH1 0x0 KECCAK256 PUSH1 0x0 SWAP1 SLOAD SWAP1 PUSH2 0x100 EXP SWAP1 DIV PUSH1 0xFF AND ISZERO PUSH2 0x914 JUMPI PUSH1 0x40 MLOAD PUSH32 0x8C379A000000000000000000000000000000000000000000000000000000000 DUP2 MSTORE PUSH1 0x4 ADD PUSH2 0x90B SWAP1 PUSH2 0x2F3D JUMP JUMPDEST PUSH1 0x40 MLOAD DUP1 SWAP2 SUB SWAP1 REVERT JUMPDEST PUSH1 0x34 PUSH1 0x0 DUP6 PUSH20 0xFFFFFFFFFFFFFFFFFFFFFFFFFFFFFFFFFFFFFFFF AND PUSH20 0xFFFFFFFFFFFFFFFFFFFFFFFFFFFFFFFFFFFFFFFF AND DUP2 MSTORE PUSH1 0x20 ADD SWAP1 DUP2 MSTORE PUSH1 0x20 ADD PUSH1 0x0 KECCAK256 SLOAD TIMESTAMP LT ISZERO DUP1 PUSH2 0x9A1 JUMPI POP PUSH1 0x0 PUSH1 0x34 PUSH1 0x0 DUP7 PUSH20 0xFFFFFFFFFFFFFFFFFFFFFFFFFFFFFFFFFFFFFFFF AND PUSH20 0xFFFFFFFFFFFFFFFFFFFFFFFFFFFFFFFFFFFFFFFF AND DUP2 MSTORE PUSH1 0x20 ADD SWAP1 DUP2 MSTORE PUSH1 0x20 ADD PUSH1 0x0 KECCAK256 SLOAD EQ JUMPDEST PUSH2 0x9E0 JUMPI PUSH1 0x40 MLOAD PUSH32 0x8C379A000000000000000000000000000000000000000000000000000000000 DUP2 MSTORE PUSH1 0x4 ADD PUSH2 0x9D7 SWAP1 PUSH2 0x2FCF JUMP JUMPDEST PUSH1 0x40 MLOAD DUP1 SWAP2 SUB SWAP1 REVERT JUMPDEST PUSH2 0x9EB DUP5 DUP5 DUP5 PUSH2 0x161B JUMP JUMPDEST SWAP1 POP SWAP4 SWAP3 POP POP POP JUMP JUMPDEST PUSH2 0x9FC PUSH2 0x154A JUMP JUMPDEST DUP1 PUSH1 0x32 PUSH1 0x0 PUSH2 0x100 EXP DUP2 SLOAD DUP2 PUSH20 0xFFFFFFFFFFFFFFFFFFFFFFFFFFFFFFFFFFFFFFFF MUL NOT AND SWAP1 DUP4 PUSH20 0xFFFFFFFFFFFFFFFFFFFFFFFFFFFFFFFFFFFFFFFF AND MUL OR SWAP1 SSTORE POP DUP1 PUSH20 0xFFFFFFFFFFFFFFFFFFFFFFFFFFFFFFFFFFFFFFFF AND PUSH32 0xE7BBFBBF7E7948988EB7F8904DA938AFF02A23B8B28FCEE206BE4D4B3EDD9AD8 PUSH1 0x40 MLOAD PUSH1 0x40 MLOAD DUP1 SWAP2 SUB SWAP1 LOG2 POP JUMP JUMPDEST PUSH1 0x0 PUSH1 0x12 SWAP1 POP SWAP1 JUMP JUMPDEST PUSH1 0x32 PUSH1 0x0 SWAP1 SLOAD SWAP1 PUSH2 0x100 EXP SWAP1 DIV PUSH20 0xFFFFFFFFFFFFFFFFFFFFFFFFFFFFFFFFFFFFFFFF AND PUSH20 0xFFFFFFFFFFFFFFFFFFFFFFFFFFFFFFFFFFFFFFFF AND CALLER PUSH20 0xFFFFFFFFFFFFFFFFFFFFFFFFFFFFFFFFFFFFFFFF AND EQ PUSH2 0xB1C JUMPI PUSH1 0x40 MLOAD PUSH32 0x8C379A000000000000000000000000000000000000000000000000000000000 DUP2 MSTORE PUSH1 0x4 ADD PUSH2 0xB13 SWAP1 PUSH2 0x303B JUMP JUMPDEST PUSH1 0x40 MLOAD DUP1 SWAP2 SUB SWAP1 REVERT JUMPDEST DUP1 PUSH1 0x34 PUSH1 0x0 DUP5 PUSH20 0xFFFFFFFFFFFFFFFFFFFFFFFFFFFFFFFFFFFFFFFF AND PUSH20 0xFFFFFFFFFFFFFFFFFFFFFFFFFFFFFFFFFFFFFFFF AND DUP2 MSTORE PUSH1 0x20 ADD SWAP1 DUP2 MSTORE PUSH1 0x20 ADD PUSH1 0x0 KECCAK256 SLOAD EQ PUSH2 0xBF5 JUMPI DUP1 PUSH1 0x34 PUSH1 0x0 DUP5 PUSH20 0xFFFFFFFFFFFFFFFFFFFFFFFFFFFFFFFFFFFFFFFF AND PUSH20 0xFFFFFFFFFFFFFFFFFFFFFFFFFFFFFFFFFFFFFFFF AND DUP2 MSTORE PUSH1 0x20 ADD SWAP1 DUP2 MSTORE PUSH1 0x20 ADD PUSH1 0x0 KECCAK256 DUP2 SWAP1 SSTORE POP DUP2 PUSH20 0xFFFFFFFFFFFFFFFFFFFFFFFFFFFFFFFFFFFFFFFF AND PUSH32 0x611CDBEA265CB87EF40E17C595BAD009182B4DB741622F7848E344C15451DE2F DUP3 PUSH1 0x40 MLOAD PUSH2 0xBEC SWAP2 SWAP1 PUSH2 0x2875 JUMP JUMPDEST PUSH1 0x40 MLOAD DUP1 SWAP2 SUB SWAP1 LOG2 JUMPDEST POP POP JUMP JUMPDEST PUSH2 0xC01 PUSH2 0x154A JUMP JUMPDEST PUSH2 0xC09 PUSH2 0x164A JUMP JUMPDEST JUMP JUMPDEST PUSH2 0xC13 PUSH2 0x16AC JUMP JUMPDEST PUSH2 0xC1C DUP3 PUSH2 0x1792 JUMP JUMPDEST PUSH2 0xC26 DUP3 DUP3 PUSH2 0x179D JUMP JUMPDEST POP POP JUMP JUMPDEST PUSH1 0x0 PUSH2 0xC34 PUSH2 0x18BC JUMP JUMPDEST PUSH32 0x360894A13BA1A3210667C828492DB98DCA3E2076CC3735A920A3CA505D382BBC PUSH1 0x0 SHL SWAP1 POP SWAP1 JUMP JUMPDEST PUSH1 0x0 DUP1 PUSH1 0x0 SWAP1 SLOAD SWAP1 PUSH2 0x100 EXP SWAP1 DIV PUSH1 0xFF AND SWAP1 POP SWAP1 JUMP JUMPDEST PUSH1 0x0 DUP1 PUSH2 0xC7E PUSH2 0x1508 JUMP JUMPDEST SWAP1 POP DUP1 PUSH1 0x0 ADD PUSH1 0x0 DUP5 PUSH20 0xFFFFFFFFFFFFFFFFFFFFFFFFFFFFFFFFFFFFFFFF AND PUSH20 0xFFFFFFFFFFFFFFFFFFFFFFFFFFFFFFFFFFFFFFFF AND DUP2 MSTORE PUSH1 0x20 ADD SWAP1 DUP2 MSTORE PUSH1 0x20 ADD PUSH1 0x0 KECCAK256 SLOAD SWAP2 POP POP SWAP2 SWAP1 POP JUMP JUMPDEST PUSH2 0xCD2 PUSH2 0x154A JUMP JUMPDEST PUSH2 0xCDC PUSH1 0x0 PUSH2 0x1943 JUMP JUMPDEST JUMP JUMPDEST PUSH2 0xCE6 PUSH2 0x154A JUMP JUMPDEST PUSH2 0xCEE PUSH2 0x1A1A JUMP JUMPDEST JUMP JUMPDEST PUSH2 0xCF8 PUSH2 0x15D1 JUMP JUMPDEST DUP2 DUP2 SWAP1 POP DUP5 DUP5 SWAP1 POP EQ PUSH2 0xD40 JUMPI PUSH1 0x40 MLOAD PUSH32 0x8C379A000000000000000000000000000000000000000000000000000000000 DUP2 MSTORE PUSH1 0x4 ADD PUSH2 0xD37 SWAP1 PUSH2 0x30CD JUMP JUMPDEST PUSH1 0x40 MLOAD DUP1 SWAP2 SUB SWAP1 REVERT JUMPDEST PUSH1 0x0 DUP5 DUP5 SWAP1 POP SWAP1 POP PUSH1 0x0 JUMPDEST DUP2 DUP2 LT ISZERO PUSH2 0xE5F JUMPI PUSH1 0x35 PUSH1 0x0 DUP8 DUP8 DUP5 DUP2 DUP2 LT PUSH2 0xD6A JUMPI PUSH2 0xD69 PUSH2 0x30ED JUMP JUMPDEST JUMPDEST SWAP1 POP PUSH1 0x20 MUL ADD PUSH1 0x20 DUP2 ADD SWAP1 PUSH2 0xD7F SWAP2 SWAP1 PUSH2 0x28E3 JUMP JUMPDEST PUSH20 0xFFFFFFFFFFFFFFFFFFFFFFFFFFFFFFFFFFFFFFFF AND PUSH20 0xFFFFFFFFFFFFFFFFFFFFFFFFFFFFFFFFFFFFFFFF AND DUP2 MSTORE PUSH1 0x20 ADD SWAP1 DUP2 MSTORE PUSH1 0x20 ADD PUSH1 0x0 KECCAK256 PUSH1 0x0 SWAP1 SLOAD SWAP1 PUSH2 0x100 EXP SWAP1 DIV PUSH1 0xFF AND ISZERO PUSH2 0xE07 JUMPI PUSH1 0x40 MLOAD PUSH32 0x8C379A000000000000000000000000000000000000000000000000000000000 DUP2 MSTORE PUSH1 0x4 ADD PUSH2 0xDFE SWAP1 PUSH2 0x318E JUMP JUMPDEST PUSH1 0x40 MLOAD DUP1 SWAP2 SUB SWAP1 REVERT JUMPDEST PUSH2 0xE52 CALLER DUP8 DUP8 DUP5 DUP2 DUP2 LT PUSH2 0xE1E JUMPI PUSH2 0xE1D PUSH2 0x30ED JUMP JUMPDEST JUMPDEST SWAP1 POP PUSH1 0x20 MUL ADD PUSH1 0x20 DUP2 ADD SWAP1 PUSH2 0xE33 SWAP2 SWAP1 PUSH2 0x28E3 JUMP JUMPDEST DUP7 DUP7 DUP6 DUP2 DUP2 LT PUSH2 0xE46 JUMPI PUSH2 0xE45 PUSH2 0x30ED JUMP JUMPDEST JUMPDEST SWAP1 POP PUSH1 0x20 MUL ADD CALLDATALOAD PUSH2 0x1A7C JUMP JUMPDEST DUP1 DUP1 PUSH1 0x1 ADD SWAP2 POP POP PUSH2 0xD4B JUMP JUMPDEST POP POP POP POP POP POP JUMP JUMPDEST PUSH1 0x0 DUP1 PUSH2 0xE72 PUSH2 0x1B70 JUMP JUMPDEST SWAP1 POP DUP1 PUSH1 0x0 ADD PUSH1 0x0 SWAP1 SLOAD SWAP1 PUSH2 0x100 EXP SWAP1 DIV PUSH20 0xFFFFFFFFFFFFFFFFFFFFFFFFFFFFFFFFFFFFFFFF AND SWAP2 POP POP SWAP1 JUMP JUMPDEST PUSH1 0x60 PUSH1 0x0 PUSH2 0xEAB PUSH2 0x1508 JUMP JUMPDEST SWAP1 POP DUP1 PUSH1 0x4 ADD DUP1 SLOAD PUSH2 0xEBC SWAP1 PUSH2 0x2E08 JUMP JUMPDEST DUP1 PUSH1 0x1F ADD PUSH1 0x20 DUP1 SWAP2 DIV MUL PUSH1 0x20 ADD PUSH1 0x40 MLOAD SWAP1 DUP2 ADD PUSH1 0x40 MSTORE DUP1 SWAP3 SWAP2 SWAP1 DUP2 DUP2 MSTORE PUSH1 0x20 ADD DUP3 DUP1 SLOAD PUSH2 0xEE8 SWAP1 PUSH2 0x2E08 JUMP JUMPDEST DUP1 ISZERO PUSH2 0xF35 JUMPI DUP1 PUSH1 0x1F LT PUSH2 0xF0A JUMPI PUSH2 0x100 DUP1 DUP4 SLOAD DIV MUL DUP4 MSTORE SWAP2 PUSH1 0x20 ADD SWAP2 PUSH2 0xF35 JUMP JUMPDEST DUP3 ADD SWAP2 SWAP1 PUSH1 0x0 MSTORE PUSH1 0x20 PUSH1 0x0 KECCAK256 SWAP1 JUMPDEST DUP2 SLOAD DUP2 MSTORE SWAP1 PUSH1 0x1 ADD SWAP1 PUSH1 0x20 ADD DUP1 DUP4 GT PUSH2 0xF18 JUMPI DUP3 SWAP1 SUB PUSH1 0x1F AND DUP3 ADD SWAP2 JUMPDEST POP POP POP POP POP SWAP2 POP POP SWAP1 JUMP JUMPDEST PUSH1 0x34 PUSH1 0x20 MSTORE DUP1 PUSH1 0x0 MSTORE PUSH1 0x40 PUSH1 0x0 KECCAK256 PUSH1 0x0 SWAP2 POP SWAP1 POP SLOAD DUP2 JUMP JUMPDEST PUSH1 0x0 PUSH2 0xF62 PUSH2 0x15D1 JUMP JUMPDEST PUSH1 0x35 PUSH1 0x0 CALLER PUSH20 0xFFFFFFFFFFFFFFFFFFFFFFFFFFFFFFFFFFFFFFFF AND PUSH20 0xFFFFFFFFFFFFFFFFFFFFFFFFFFFFFFFFFFFFFFFF AND DUP2 MSTORE PUSH1 0x20 ADD SWAP1 DUP2 MSTORE PUSH1 0x20 ADD PUSH1 0x0 KECCAK256 PUSH1 0x0 SWAP1 SLOAD SWAP1 PUSH2 0x100 EXP SWAP1 DIV PUSH1 0xFF AND ISZERO PUSH2 0xFEF JUMPI PUSH1 0x40 MLOAD PUSH32 0x8C379A000000000000000000000000000000000000000000000000000000000 DUP2 MSTORE PUSH1 0x4 ADD PUSH2 0xFE6 SWAP1 PUSH2 0x2EAB JUMP JUMPDEST PUSH1 0x40 MLOAD DUP1 SWAP2 SUB SWAP1 REVERT JUMPDEST PUSH1 0x35 PUSH1 0x0 DUP5 PUSH20 0xFFFFFFFFFFFFFFFFFFFFFFFFFFFFFFFFFFFFFFFF AND PUSH20 0xFFFFFFFFFFFFFFFFFFFFFFFFFFFFFFFFFFFFFFFF AND DUP2 MSTORE PUSH1 0x20 ADD SWAP1 DUP2 MSTORE PUSH1 0x20 ADD PUSH1 0x0 KECCAK256 PUSH1 0x0 SWAP1 SLOAD SWAP1 PUSH2 0x100 EXP SWAP1 DIV PUSH1 0xFF AND ISZERO PUSH2 0x107C JUMPI PUSH1 0x40 MLOAD PUSH32 0x8C379A000000000000000000000000000000000000000000000000000000000 DUP2 MSTORE PUSH1 0x4 ADD PUSH2 0x1073 SWAP1 PUSH2 0x2F3D JUMP JUMPDEST PUSH1 0x40 MLOAD DUP1 SWAP2 SUB SWAP1 REVERT JUMPDEST PUSH1 0x34 PUSH1 0x0 CALLER PUSH20 0xFFFFFFFFFFFFFFFFFFFFFFFFFFFFFFFFFFFFFFFF AND PUSH20 0xFFFFFFFFFFFFFFFFFFFFFFFFFFFFFFFFFFFFFFFF AND DUP2 MSTORE PUSH1 0x20 ADD SWAP1 DUP2 MSTORE PUSH1 0x20 ADD PUSH1 0x0 KECCAK256 SLOAD TIMESTAMP LT ISZERO DUP1 PUSH2 0x1109 JUMPI POP PUSH1 0x0 PUSH1 0x34 PUSH1 0x0 CALLER PUSH20 0xFFFFFFFFFFFFFFFFFFFFFFFFFFFFFFFFFFFFFFFF AND PUSH20 0xFFFFFFFFFFFFFFFFFFFFFFFFFFFFFFFFFFFFFFFF AND DUP2 MSTORE PUSH1 0x20 ADD SWAP1 DUP2 MSTORE PUSH1 0x20 ADD PUSH1 0x0 KECCAK256 SLOAD EQ JUMPDEST PUSH2 0x1148 JUMPI PUSH1 0x40 MLOAD PUSH32 0x8C379A000000000000000000000000000000000000000000000000000000000 DUP2 MSTORE PUSH1 0x4 ADD PUSH2 0x113F SWAP1 PUSH2 0x2FCF JUMP JUMPDEST PUSH1 0x40 MLOAD DUP1 SWAP2 SUB SWAP1 REVERT JUMPDEST PUSH2 0x1152 DUP4 DUP4 PUSH2 0x1B98 JUMP JUMPDEST SWAP1 POP SWAP3 SWAP2 POP POP JUMP JUMPDEST PUSH1 0x40 MLOAD DUP1 PUSH1 0x40 ADD PUSH1 0x40 MSTORE DUP1 PUSH1 0x5 DUP2 MSTORE PUSH1 0x20 ADD PUSH32 0x352E302E30000000000000000000000000000000000000000000000000000000 DUP2 MSTORE POP DUP2 JUMP JUMPDEST PUSH1 0x0 PUSH2 0x119D PUSH2 0x1BBB JUMP JUMPDEST SWAP1 POP PUSH1 0x0 DUP2 PUSH1 0x0 ADD PUSH1 0x8 SWAP1 SLOAD SWAP1 PUSH2 0x100 EXP SWAP1 DIV PUSH1 0xFF AND ISZERO SWAP1 POP PUSH1 0x0 DUP3 PUSH1 0x0 ADD PUSH1 0x0 SWAP1 SLOAD SWAP1 PUSH2 0x100 EXP SWAP1 DIV PUSH8 0xFFFFFFFFFFFFFFFF AND SWAP1 POP PUSH1 0x0 DUP1 DUP3 PUSH8 0xFFFFFFFFFFFFFFFF AND EQ DUP1 ISZERO PUSH2 0x11EB JUMPI POP DUP3 JUMPDEST SWAP1 POP PUSH1 0x0 PUSH1 0x1 DUP4 PUSH8 0xFFFFFFFFFFFFFFFF AND EQ DUP1 ISZERO PUSH2 0x1220 JUMPI POP PUSH1 0x0 ADDRESS PUSH20 0xFFFFFFFFFFFFFFFFFFFFFFFFFFFFFFFFFFFFFFFF AND EXTCODESIZE EQ JUMPDEST SWAP1 POP DUP2 ISZERO DUP1 ISZERO PUSH2 0x122E JUMPI POP DUP1 ISZERO JUMPDEST ISZERO PUSH2 0x1265 JUMPI PUSH1 0x40 MLOAD PUSH32 0xF92EE8A900000000000000000000000000000000000000000000000000000000 DUP2 MSTORE PUSH1 0x4 ADD PUSH1 0x40 MLOAD DUP1 SWAP2 SUB SWAP1 REVERT JUMPDEST PUSH1 0x1 DUP6 PUSH1 0x0 ADD PUSH1 0x0 PUSH2 0x100 EXP DUP2 SLOAD DUP2 PUSH8 0xFFFFFFFFFFFFFFFF MUL NOT AND SWAP1 DUP4 PUSH8 0xFFFFFFFFFFFFFFFF AND MUL OR SWAP1 SSTORE POP DUP4 ISZERO PUSH2 0x12B5 JUMPI PUSH1 0x1 DUP6 PUSH1 0x0 ADD PUSH1 0x8 PUSH2 0x100 EXP DUP2 SLOAD DUP2 PUSH1 0xFF MUL NOT AND SWAP1 DUP4 ISZERO ISZERO MUL OR SWAP1 SSTORE POP JUMPDEST PUSH2 0x12BF DUP9 DUP9 PUSH2 0x1BE3 JUMP JUMPDEST PUSH2 0x12C8 CALLER PUSH2 0x1BF9 JUMP JUMPDEST PUSH2 0x12D0 PUSH2 0x1C0D JUMP JUMPDEST PUSH2 0x12D8 PUSH2 0x1C1F JUMP JUMPDEST DUP6 PUSH1 0x33 DUP2 SWAP1 SSTORE POP PUSH2 0x12EB CALLER PUSH1 0x33 SLOAD PUSH2 0x1C29 JUMP JUMPDEST DUP4 ISZERO PUSH2 0x1347 JUMPI PUSH1 0x0 DUP6 PUSH1 0x0 ADD PUSH1 0x8 PUSH2 0x100 EXP DUP2 SLOAD DUP2 PUSH1 0xFF MUL NOT AND SWAP1 DUP4 ISZERO ISZERO MUL OR SWAP1 SSTORE POP PUSH32 0xC7F505B2F371AE2175EE4913F4499E1F2633A7B5936321EED1CDAEB6115181D2 PUSH1 0x1 PUSH1 0x40 MLOAD PUSH2 0x133E SWAP2 SWAP1 PUSH2 0x3207 JUMP JUMPDEST PUSH1 0x40 MLOAD DUP1 SWAP2 SUB SWAP1 LOG1 JUMPDEST POP POP POP POP POP POP POP POP JUMP JUMPDEST PUSH1 0x32 PUSH1 0x0 SWAP1 SLOAD SWAP1 PUSH2 0x100 EXP SWAP1 DIV PUSH20 0xFFFFFFFFFFFFFFFFFFFFFFFFFFFFFFFFFFFFFFFF AND DUP2 JUMP JUMPDEST PUSH1 0x35 PUSH1 0x20 MSTORE DUP1 PUSH1 0x0 MSTORE PUSH1 0x40 PUSH1 0x0 KECCAK256 PUSH1 0x0 SWAP2 POP SLOAD SWAP1 PUSH2 0x100 EXP SWAP1 DIV PUSH1 0xFF AND DUP2 JUMP JUMPDEST PUSH1 0x0 DUP1 PUSH2 0x13A2 PUSH2 0x1508 JUMP JUMPDEST SWAP1 POP DUP1 PUSH1 0x1 ADD PUSH1 0x0 DUP6 PUSH20 0xFFFFFFFFFFFFFFFFFFFFFFFFFFFFFFFFFFFFFFFF AND PUSH20 0xFFFFFFFFFFFFFFFFFFFFFFFFFFFFFFFFFFFFFFFF AND DUP2 MSTORE PUSH1 0x20 ADD SWAP1 DUP2 MSTORE PUSH1 0x20 ADD PUSH1 0x0 KECCAK256 PUSH1 0x0 DUP5 PUSH20 0xFFFFFFFFFFFFFFFFFFFFFFFFFFFFFFFFFFFFFFFF AND PUSH20 0xFFFFFFFFFFFFFFFFFFFFFFFFFFFFFFFFFFFFFFFF AND DUP2 MSTORE PUSH1 0x20 ADD SWAP1 DUP2 MSTORE PUSH1 0x20 ADD PUSH1 0x0 KECCAK256 SLOAD SWAP2 POP POP SWAP3 SWAP2 POP POP JUMP JUMPDEST PUSH2 0x1434 PUSH2 0x154A JUMP JUMPDEST PUSH1 0x0 PUSH20 0xFFFFFFFFFFFFFFFFFFFFFFFFFFFFFFFFFFFFFFFF AND DUP2 PUSH20 0xFFFFFFFFFFFFFFFFFFFFFFFFFFFFFFFFFFFFFFFF AND SUB PUSH2 0x14A6 JUMPI PUSH1 0x0 PUSH1 0x40 MLOAD PUSH32 0x1E4FBDF700000000000000000000000000000000000000000000000000000000 DUP2 MSTORE PUSH1 0x4 ADD PUSH2 0x149D SWAP2 SWAP1 PUSH2 0x2C52 JUMP JUMPDEST PUSH1 0x40 MLOAD DUP1 SWAP2 SUB SWAP1 REVERT JUMPDEST PUSH2 0x14AF DUP2 PUSH2 0x1943 JUMP JUMPDEST POP JUMP JUMPDEST PUSH1 0x0 PUSH1 0x35 PUSH1 0x0 DUP4 PUSH20 0xFFFFFFFFFFFFFFFFFFFFFFFFFFFFFFFFFFFFFFFF AND PUSH20 0xFFFFFFFFFFFFFFFFFFFFFFFFFFFFFFFFFFFFFFFF AND DUP2 MSTORE PUSH1 0x20 ADD SWAP1 DUP2 MSTORE PUSH1 0x20 ADD PUSH1 0x0 KECCAK256 PUSH1 0x0 SWAP1 SLOAD SWAP1 PUSH2 0x100 EXP SWAP1 DIV PUSH1 0xFF AND SWAP1 POP SWAP2 SWAP1 POP JUMP JUMPDEST PUSH1 0x0 PUSH32 0x52C63247E1F47DB19D5CE0460030C497F067CA4CEBF71BA98EEADABE20BACE00 SWAP1 POP SWAP1 JUMP JUMPDEST PUSH1 0x0 CALLER SWAP1 POP SWAP1 JUMP JUMPDEST PUSH2 0x1545 DUP4 DUP4 DUP4 PUSH1 0x1 PUSH2 0x1CAB JUMP JUMPDEST POP POP POP JUMP JUMPDEST PUSH2 0x1552 PUSH2 0x1530 JUMP JUMPDEST PUSH20 0xFFFFFFFFFFFFFFFFFFFFFFFFFFFFFFFFFFFFFFFF AND PUSH2 0x1570 PUSH2 0xE67 JUMP JUMPDEST PUSH20 0xFFFFFFFFFFFFFFFFFFFFFFFFFFFFFFFFFFFFFFFF AND EQ PUSH2 0x15CF JUMPI PUSH2 0x1593 PUSH2 0x1530 JUMP JUMPDEST PUSH1 0x40 MLOAD PUSH32 0x118CDAA700000000000000000000000000000000000000000000000000000000 DUP2 MSTORE PUSH1 0x4 ADD PUSH2 0x15C6 SWAP2 SWAP1 PUSH2 0x2C52 JUMP JUMPDEST PUSH1 0x40 MLOAD DUP1 SWAP2 SUB SWAP1 REVERT JUMPDEST JUMP JUMPDEST PUSH2 0x15D9 PUSH2 0xC5D JUMP JUMPDEST ISZERO PUSH2 0x1619 JUMPI PUSH1 0x40 MLOAD PUSH32 0x8C379A000000000000000000000000000000000000000000000000000000000 DUP2 MSTORE PUSH1 0x4 ADD PUSH2 0x1610 SWAP1 PUSH2 0x326E JUMP JUMPDEST PUSH1 0x40 MLOAD DUP1 SWAP2 SUB SWAP1 REVERT JUMPDEST JUMP JUMPDEST PUSH1 0x0 DUP1 PUSH2 0x1626 PUSH2 0x1530 JUMP JUMPDEST SWAP1 POP PUSH2 0x1633 DUP6 DUP3 DUP6 PUSH2 0x1E91 JUMP JUMPDEST PUSH2 0x163E DUP6 DUP6 DUP6 PUSH2 0x1A7C JUMP JUMPDEST PUSH1 0x1 SWAP2 POP POP SWAP4 SWAP3 POP POP POP JUMP JUMPDEST PUSH2 0x1652 PUSH2 0x1F25 JUMP JUMPDEST PUSH1 0x0 DUP1 PUSH1 0x0 PUSH2 0x100 EXP DUP2 SLOAD DUP2 PUSH1 0xFF MUL NOT AND SWAP1 DUP4 ISZERO ISZERO MUL OR SWAP1 SSTORE POP PUSH32 0x5DB9EE0A495BF2E6FF9C91A7834C1BA4FDD244A5E8AA4E537BD38AEAE4B073AA PUSH2 0x1695 PUSH2 0x1530 JUMP JUMPDEST PUSH1 0x40 MLOAD PUSH2 0x16A2 SWAP2 SWAP1 PUSH2 0x2C52 JUMP JUMPDEST PUSH1 0x40 MLOAD DUP1 SWAP2 SUB SWAP1 LOG1 JUMP JUMPDEST PUSH32 0x0 PUSH20 0xFFFFFFFFFFFFFFFFFFFFFFFFFFFFFFFFFFFFFFFF AND ADDRESS PUSH20 0xFFFFFFFFFFFFFFFFFFFFFFFFFFFFFFFFFFFFFFFF AND EQ DUP1 PUSH2 0x1759 JUMPI POP PUSH32 0x0 PUSH20 0xFFFFFFFFFFFFFFFFFFFFFFFFFFFFFFFFFFFFFFFF AND PUSH2 0x1740 PUSH2 0x1F6E JUMP JUMPDEST PUSH20 0xFFFFFFFFFFFFFFFFFFFFFFFFFFFFFFFFFFFFFFFF AND EQ ISZERO JUMPDEST ISZERO PUSH2 0x1790 JUMPI PUSH1 0x40 MLOAD PUSH32 0xE07C8DBA00000000000000000000000000000000000000000000000000000000 DUP2 MSTORE PUSH1 0x4 ADD PUSH1 0x40 MLOAD DUP1 SWAP2 SUB SWAP1 REVERT JUMPDEST JUMP JUMPDEST PUSH2 0x179A PUSH2 0x154A JUMP JUMPDEST POP JUMP JUMPDEST DUP2 PUSH20 0xFFFFFFFFFFFFFFFFFFFFFFFFFFFFFFFFFFFFFFFF AND PUSH4 0x52D1902D PUSH1 0x40 MLOAD DUP2 PUSH4 0xFFFFFFFF AND PUSH1 0xE0 SHL DUP2 MSTORE PUSH1 0x4 ADD PUSH1 0x20 PUSH1 0x40 MLOAD DUP1 DUP4 SUB DUP2 DUP7 GAS STATICCALL SWAP3 POP POP POP DUP1 ISZERO PUSH2 0x1805 JUMPI POP PUSH1 0x40 MLOAD RETURNDATASIZE PUSH1 0x1F NOT PUSH1 0x1F DUP3 ADD AND DUP3 ADD DUP1 PUSH1 0x40 MSTORE POP DUP2 ADD SWAP1 PUSH2 0x1802 SWAP2 SWAP1 PUSH2 0x32BA JUMP JUMPDEST PUSH1 0x1 JUMPDEST PUSH2 0x1846 JUMPI DUP2 PUSH1 0x40 MLOAD PUSH32 0x4C9C8CE300000000000000000000000000000000000000000000000000000000 DUP2 MSTORE PUSH1 0x4 ADD PUSH2 0x183D SWAP2 SWAP1 PUSH2 0x2C52 JUMP JUMPDEST PUSH1 0x40 MLOAD DUP1 SWAP2 SUB SWAP1 REVERT JUMPDEST PUSH32 0x360894A13BA1A3210667C828492DB98DCA3E2076CC3735A920A3CA505D382BBC PUSH1 0x0 SHL DUP2 EQ PUSH2 0x18AD JUMPI DUP1 PUSH1 0x40 MLOAD PUSH32 0xAA1D49A400000000000000000000000000000000000000000000000000000000 DUP2 MSTORE PUSH1 0x4 ADD PUSH2 0x18A4 SWAP2 SWAP1 PUSH2 0x2AF1 JUMP JUMPDEST PUSH1 0x40 MLOAD DUP1 SWAP2 SUB SWAP1 REVERT JUMPDEST PUSH2 0x18B7 DUP4 DUP4 PUSH2 0x1FC5 JUMP JUMPDEST POP POP POP JUMP JUMPDEST PUSH32 0x0 PUSH20 0xFFFFFFFFFFFFFFFFFFFFFFFFFFFFFFFFFFFFFFFF AND ADDRESS PUSH20 0xFFFFFFFFFFFFFFFFFFFFFFFFFFFFFFFFFFFFFFFF AND EQ PUSH2 0x1941 JUMPI PUSH1 0x40 MLOAD PUSH32 0xE07C8DBA00000000000000000000000000000000000000000000000000000000 DUP2 MSTORE PUSH1 0x4 ADD PUSH1 0x40 MLOAD DUP1 SWAP2 SUB SWAP1 REVERT JUMPDEST JUMP JUMPDEST PUSH1 0x0 PUSH2 0x194D PUSH2 0x1B70 JUMP JUMPDEST SWAP1 POP PUSH1 0x0 DUP2 PUSH1 0x0 ADD PUSH1 0x0 SWAP1 SLOAD SWAP1 PUSH2 0x100 EXP SWAP1 DIV PUSH20 0xFFFFFFFFFFFFFFFFFFFFFFFFFFFFFFFFFFFFFFFF AND SWAP1 POP DUP3 DUP3 PUSH1 0x0 ADD PUSH1 0x0 PUSH2 0x100 EXP DUP2 SLOAD DUP2 PUSH20 0xFFFFFFFFFFFFFFFFFFFFFFFFFFFFFFFFFFFFFFFF MUL NOT AND SWAP1 DUP4 PUSH20 0xFFFFFFFFFFFFFFFFFFFFFFFFFFFFFFFFFFFFFFFF AND MUL OR SWAP1 SSTORE POP DUP3 PUSH20 0xFFFFFFFFFFFFFFFFFFFFFFFFFFFFFFFFFFFFFFFF AND DUP2 PUSH20 0xFFFFFFFFFFFFFFFFFFFFFFFFFFFFFFFFFFFFFFFF AND PUSH32 0x8BE0079C531659141344CD1FD0A4F28419497F9722A3DAAFE3B4186F6B6457E0 PUSH1 0x40 MLOAD PUSH1 0x40 MLOAD DUP1 SWAP2 SUB SWAP1 LOG3 POP POP POP JUMP JUMPDEST PUSH2 0x1A22 PUSH2 0x15D1 JUMP JUMPDEST PUSH1 0x1 PUSH1 0x0 DUP1 PUSH2 0x100 EXP DUP2 SLOAD DUP2 PUSH1 0xFF MUL NOT AND SWAP1 DUP4 ISZERO ISZERO MUL OR SWAP1 SSTORE POP PUSH32 0x62E78CEA01BEE320CD4E420270B5EA74000D11B0C9F74754EBDBFC544B05A258 PUSH2 0x1A65 PUSH2 0x1530 JUMP JUMPDEST PUSH1 0x40 MLOAD PUSH2 0x1A72 SWAP2 SWAP1 PUSH2 0x2C52 JUMP JUMPDEST PUSH1 0x40 MLOAD DUP1 SWAP2 SUB SWAP1 LOG1 JUMP JUMPDEST PUSH1 0x0 PUSH20 0xFFFFFFFFFFFFFFFFFFFFFFFFFFFFFFFFFFFFFFFF AND DUP4 PUSH20 0xFFFFFFFFFFFFFFFFFFFFFFFFFFFFFFFFFFFFFFFF AND SUB PUSH2 0x1AEE JUMPI PUSH1 0x0 PUSH1 0x40 MLOAD PUSH32 0x96C6FD1E00000000000000000000000000000000000000000000000000000000 DUP2 MSTORE PUSH1 0x4 ADD PUSH2 0x1AE5 SWAP2 SWAP1 PUSH2 0x2C52 JUMP JUMPDEST PUSH1 0x40 MLOAD DUP1 SWAP2 SUB SWAP1 REVERT JUMPDEST PUSH1 0x0 PUSH20 0xFFFFFFFFFFFFFFFFFFFFFFFFFFFFFFFFFFFFFFFF AND DUP3 PUSH20 0xFFFFFFFFFFFFFFFFFFFFFFFFFFFFFFFFFFFFFFFF AND SUB PUSH2 0x1B60 JUMPI PUSH1 0x0 PUSH1 0x40 MLOAD PUSH32 0xEC442F0500000000000000000000000000000000000000000000000000000000 DUP2 MSTORE PUSH1 0x4 ADD PUSH2 0x1B57 SWAP2 SWAP1 PUSH2 0x2C52 JUMP JUMPDEST PUSH1 0x40 MLOAD DUP1 SWAP2 SUB SWAP1 REVERT JUMPDEST PUSH2 0x1B6B DUP4 DUP4 DUP4 PUSH2 0x2038 JUMP JUMPDEST POP POP POP JUMP JUMPDEST PUSH1 0x0 PUSH32 0x9016D09D72D40FDAE2FD8CEAC6B6234C7706214FD39C1CD1E609A0528C199300 SWAP1 POP SWAP1 JUMP JUMPDEST PUSH1 0x0 DUP1 PUSH2 0x1BA3 PUSH2 0x1530 JUMP JUMPDEST SWAP1 POP PUSH2 0x1BB0 DUP2 DUP6 DUP6 PUSH2 0x1A7C JUMP JUMPDEST PUSH1 0x1 SWAP2 POP POP SWAP3 SWAP2 POP POP JUMP JUMPDEST PUSH1 0x0 PUSH32 0xF0C57E16840DF040F15088DC2F81FE391C3923BEC73E23A9662EFC9C229C6A00 SWAP1 POP SWAP1 JUMP JUMPDEST PUSH2 0x1BEB PUSH2 0x2277 JUMP JUMPDEST PUSH2 0x1BF5 DUP3 DUP3 PUSH2 0x22B7 JUMP JUMPDEST POP POP JUMP JUMPDEST PUSH2 0x1C01 PUSH2 0x2277 JUMP JUMPDEST PUSH2 0x1C0A DUP2 PUSH2 0x22F4 JUMP JUMPDEST POP JUMP JUMPDEST PUSH2 0x1C15 PUSH2 0x2277 JUMP JUMPDEST PUSH2 0x1C1D PUSH2 0x237A JUMP JUMPDEST JUMP JUMPDEST PUSH2 0x1C27 PUSH2 0x2277 JUMP JUMPDEST JUMP JUMPDEST PUSH1 0x0 PUSH20 0xFFFFFFFFFFFFFFFFFFFFFFFFFFFFFFFFFFFFFFFF AND DUP3 PUSH20 0xFFFFFFFFFFFFFFFFFFFFFFFFFFFFFFFFFFFFFFFF AND SUB PUSH2 0x1C9B JUMPI PUSH1 0x0 PUSH1 0x40 MLOAD PUSH32 0xEC442F0500000000000000000000000000000000000000000000000000000000 DUP2 MSTORE PUSH1 0x4 ADD PUSH2 0x1C92 SWAP2 SWAP1 PUSH2 0x2C52 JUMP JUMPDEST PUSH1 0x40 MLOAD DUP1 SWAP2 SUB SWAP1 REVERT JUMPDEST PUSH2 0x1CA7 PUSH1 0x0 DUP4 DUP4 PUSH2 0x2038 JUMP JUMPDEST POP POP JUMP JUMPDEST PUSH1 0x0 PUSH2 0x1CB5 PUSH2 0x1508 JUMP JUMPDEST SWAP1 POP PUSH1 0x0 PUSH20 0xFFFFFFFFFFFFFFFFFFFFFFFFFFFFFFFFFFFFFFFF AND DUP6 PUSH20 0xFFFFFFFFFFFFFFFFFFFFFFFFFFFFFFFFFFFFFFFF AND SUB PUSH2 0x1D29 JUMPI PUSH1 0x0 PUSH1 0x40 MLOAD PUSH32 0xE602DF0500000000000000000000000000000000000000000000000000000000 DUP2 MSTORE PUSH1 0x4 ADD PUSH2 0x1D20 SWAP2 SWAP1 PUSH2 0x2C52 JUMP JUMPDEST PUSH1 0x40 MLOAD DUP1 SWAP2 SUB SWAP1 REVERT JUMPDEST PUSH1 0x0 PUSH20 0xFFFFFFFFFFFFFFFFFFFFFFFFFFFFFFFFFFFFFFFF AND DUP5 PUSH20 0xFFFFFFFFFFFFFFFFFFFFFFFFFFFFFFFFFFFFFFFF AND SUB PUSH2 0x1D9B JUMPI PUSH1 0x0 PUSH1 0x40 MLOAD PUSH32 0x94280D6200000000000000000000000000000000000000000000000000000000 DUP2 MSTORE PUSH1 0x4 ADD PUSH2 0x1D92 SWAP2 SWAP1 PUSH2 0x2C52 JUMP JUMPDEST PUSH1 0x40 MLOAD DUP1 SWAP2 SUB SWAP1 REVERT JUMPDEST DUP3 DUP2 PUSH1 0x1 ADD PUSH1 0x0 DUP8 PUSH20 0xFFFFFFFFFFFFFFFFFFFFFFFFFFFFFFFFFFFFFFFF AND PUSH20 0xFFFFFFFFFFFFFFFFFFFFFFFFFFFFFFFFFFFFFFFF AND DUP2 MSTORE PUSH1 0x20 ADD SWAP1 DUP2 MSTORE PUSH1 0x20 ADD PUSH1 0x0 KECCAK256 PUSH1 0x0 DUP7 PUSH20 0xFFFFFFFFFFFFFFFFFFFFFFFFFFFFFFFFFFFFFFFF AND PUSH20 0xFFFFFFFFFFFFFFFFFFFFFFFFFFFFFFFFFFFFFFFF AND DUP2 MSTORE PUSH1 0x20 ADD SWAP1 DUP2 MSTORE PUSH1 0x20 ADD PUSH1 0x0 KECCAK256 DUP2 SWAP1 SSTORE POP DUP2 ISZERO PUSH2 0x1E8A JUMPI DUP4 PUSH20 0xFFFFFFFFFFFFFFFFFFFFFFFFFFFFFFFFFFFFFFFF AND DUP6 PUSH20 0xFFFFFFFFFFFFFFFFFFFFFFFFFFFFFFFFFFFFFFFF AND PUSH32 0x8C5BE1E5EBEC7D5BD14F71427D1E84F3DD0314C0F7B2291E5B200AC8C7C3B925 DUP6 PUSH1 0x40 MLOAD PUSH2 0x1E81 SWAP2 SWAP1 PUSH2 0x2875 JUMP JUMPDEST PUSH1 0x40 MLOAD DUP1 SWAP2 SUB SWAP1 LOG3 JUMPDEST POP POP POP POP POP JUMP JUMPDEST PUSH1 0x0 PUSH2 0x1E9D DUP5 DUP5 PUSH2 0x1397 JUMP JUMPDEST SWAP1 POP PUSH32 0xFFFFFFFFFFFFFFFFFFFFFFFFFFFFFFFFFFFFFFFFFFFFFFFFFFFFFFFFFFFFFFFF DUP2 EQ PUSH2 0x1F1F JUMPI DUP2 DUP2 LT ISZERO PUSH2 0x1F0F JUMPI DUP3 DUP2 DUP4 PUSH1 0x40 MLOAD PUSH32 0xFB8F41B200000000000000000000000000000000000000000000000000000000 DUP2 MSTORE PUSH1 0x4 ADD PUSH2 0x1F06 SWAP4 SWAP3 SWAP2 SWAP1 PUSH2 0x32E7 JUMP JUMPDEST PUSH1 0x40 MLOAD DUP1 SWAP2 SUB SWAP1 REVERT JUMPDEST PUSH2 0x1F1E DUP5 DUP5 DUP5 DUP5 SUB PUSH1 0x0 PUSH2 0x1CAB JUMP JUMPDEST JUMPDEST POP POP POP POP JUMP JUMPDEST PUSH2 0x1F2D PUSH2 0xC5D JUMP JUMPDEST PUSH2 0x1F6C JUMPI PUSH1 0x40 MLOAD PUSH32 0x8C379A000000000000000000000000000000000000000000000000000000000 DUP2 MSTORE PUSH1 0x4 ADD PUSH2 0x1F63 SWAP1 PUSH2 0x336A JUMP JUMPDEST PUSH1 0x40 MLOAD DUP1 SWAP2 SUB SWAP1 REVERT JUMPDEST JUMP JUMPDEST PUSH1 0x0 PUSH2 0x1F9C PUSH32 0x360894A13BA1A3210667C828492DB98DCA3E2076CC3735A920A3CA505D382BBC PUSH1 0x0 SHL PUSH2 0x239E JUMP JUMPDEST PUSH1 0x0 ADD PUSH1 0x0 SWAP1 SLOAD SWAP1 PUSH2 0x100 EXP SWAP1 DIV PUSH20 0xFFFFFFFFFFFFFFFFFFFFFFFFFFFFFFFFFFFFFFFF AND SWAP1 POP SWAP1 JUMP JUMPDEST PUSH2 0x1FCE DUP3 PUSH2 0x23A8 JUMP JUMPDEST DUP2 PUSH20 0xFFFFFFFFFFFFFFFFFFFFFFFFFFFFFFFFFFFFFFFF AND PUSH32 0xBC7CD75A20EE27FD9ADEBAB32041F755214DBC6BFFA90CC0225B39DA2E5C2D3B PUSH1 0x40 MLOAD PUSH1 0x40 MLOAD DUP1 SWAP2 SUB SWAP1 LOG2 PUSH1 0x0 DUP2 MLOAD GT ISZERO PUSH2 0x202B JUMPI PUSH2 0x2025 DUP3 DUP3 PUSH2 0x2475 JUMP JUMPDEST POP PUSH2 0x2034 JUMP JUMPDEST PUSH2 0x2033 PUSH2 0x24F9 JUMP JUMPDEST JUMPDEST POP POP JUMP JUMPDEST PUSH1 0x0 PUSH2 0x2042 PUSH2 0x1508 JUMP JUMPDEST SWAP1 POP PUSH1 0x0 PUSH20 0xFFFFFFFFFFFFFFFFFFFFFFFFFFFFFFFFFFFFFFFF AND DUP5 PUSH20 0xFFFFFFFFFFFFFFFFFFFFFFFFFFFFFFFFFFFFFFFF AND SUB PUSH2 0x2098 JUMPI DUP2 DUP2 PUSH1 0x2 ADD PUSH1 0x0 DUP3 DUP3 SLOAD PUSH2 0x208C SWAP2 SWAP1 PUSH2 0x33B9 JUMP JUMPDEST SWAP3 POP POP DUP2 SWAP1 SSTORE POP PUSH2 0x2171 JUMP JUMPDEST PUSH1 0x0 DUP2 PUSH1 0x0 ADD PUSH1 0x0 DUP7 PUSH20 0xFFFFFFFFFFFFFFFFFFFFFFFFFFFFFFFFFFFFFFFF AND PUSH20 0xFFFFFFFFFFFFFFFFFFFFFFFFFFFFFFFFFFFFFFFF AND DUP2 MSTORE PUSH1 0x20 ADD SWAP1 DUP2 MSTORE PUSH1 0x20 ADD PUSH1 0x0 KECCAK256 SLOAD SWAP1 POP DUP3 DUP2 LT ISZERO PUSH2 0x2127 JUMPI DUP5 DUP2 DUP5 PUSH1 0x40 MLOAD PUSH32 0xE450D38C00000000000000000000000000000000000000000000000000000000 DUP2 MSTORE PUSH1 0x4 ADD PUSH2 0x211E SWAP4 SWAP3 SWAP2 SWAP1 PUSH2 0x32E7 JUMP JUMPDEST PUSH1 0x40 MLOAD DUP1 SWAP2 SUB SWAP1 REVERT JUMPDEST DUP3 DUP2 SUB DUP3 PUSH1 0x0 ADD PUSH1 0x0 DUP8 PUSH20 0xFFFFFFFFFFFFFFFFFFFFFFFFFFFFFFFFFFFFFFFF AND PUSH20 0xFFFFFFFFFFFFFFFFFFFFFFFFFFFFFFFFFFFFFFFF AND DUP2 MSTORE PUSH1 0x20 ADD SWAP1 DUP2 MSTORE PUSH1 0x20 ADD PUSH1 0x0 KECCAK256 DUP2 SWAP1 SSTORE POP POP JUMPDEST PUSH1 0x0 PUSH20 0xFFFFFFFFFFFFFFFFFFFFFFFFFFFFFFFFFFFFFFFF AND DUP4 PUSH20 0xFFFFFFFFFFFFFFFFFFFFFFFFFFFFFFFFFFFFFFFF AND SUB PUSH2 0x21BC JUMPI DUP2 DUP2 PUSH1 0x2 ADD PUSH1 0x0 DUP3 DUP3 SLOAD SUB SWAP3 POP POP DUP2 SWAP1 SSTORE POP PUSH2 0x220C JUMP JUMPDEST DUP2 DUP2 PUSH1 0x0 ADD PUSH1 0x0 DUP6 PUSH20 0xFFFFFFFFFFFFFFFFFFFFFFFFFFFFFFFFFFFFFFFF AND PUSH20 0xFFFFFFFFFFFFFFFFFFFFFFFFFFFFFFFFFFFFFFFF AND DUP2 MSTORE PUSH1 0x20 ADD SWAP1 DUP2 MSTORE PUSH1 0x20 ADD PUSH1 0x0 KECCAK256 PUSH1 0x0 DUP3 DUP3 SLOAD ADD SWAP3 POP POP DUP2 SWAP1 SSTORE POP JUMPDEST DUP3 PUSH20 0xFFFFFFFFFFFFFFFFFFFFFFFFFFFFFFFFFFFFFFFF AND DUP5 PUSH20 0xFFFFFFFFFFFFFFFFFFFFFFFFFFFFFFFFFFFFFFFF AND PUSH32 0xDDF252AD1BE2C89B69C2B068FC378DAA952BA7F163C4A11628F55A4DF523B3EF DUP5 PUSH1 0x40 MLOAD PUSH2 0x2269 SWAP2 SWAP1 PUSH2 0x2875 JUMP JUMPDEST PUSH1 0x40 MLOAD DUP1 SWAP2 SUB SWAP1 LOG3 POP POP POP POP JUMP JUMPDEST PUSH2 0x227F PUSH2 0x2536 JUMP JUMPDEST PUSH2 0x22B5 JUMPI PUSH1 0x40 MLOAD PUSH32 0xD7E6BCF800000000000000000000000000000000000000000000000000000000 DUP2 MSTORE PUSH1 0x4 ADD PUSH1 0x40 MLOAD DUP1 SWAP2 SUB SWAP1 REVERT JUMPDEST JUMP JUMPDEST PUSH2 0x22BF PUSH2 0x2277 JUMP JUMPDEST PUSH1 0x0 PUSH2 0x22C9 PUSH2 0x1508 JUMP JUMPDEST SWAP1 POP DUP3 DUP2 PUSH1 0x3 ADD SWAP1 DUP2 PUSH2 0x22DC SWAP2 SWAP1 PUSH2 0x358F JUMP JUMPDEST POP DUP2 DUP2 PUSH1 0x4 ADD SWAP1 DUP2 PUSH2 0x22EE SWAP2 SWAP1 PUSH2 0x358F JUMP JUMPDEST POP POP POP POP JUMP JUMPDEST PUSH2 0x22FC PUSH2 0x2277 JUMP JUMPDEST PUSH1 0x0 PUSH20 0xFFFFFFFFFFFFFFFFFFFFFFFFFFFFFFFFFFFFFFFF AND DUP2 PUSH20 0xFFFFFFFFFFFFFFFFFFFFFFFFFFFFFFFFFFFFFFFF AND SUB PUSH2 0x236E JUMPI PUSH1 0x0 PUSH1 0x40 MLOAD PUSH32 0x1E4FBDF700000000000000000000000000000000000000000000000000000000 DUP2 MSTORE PUSH1 0x4 ADD PUSH2 0x2365 SWAP2 SWAP1 PUSH2 0x2C52 JUMP JUMPDEST PUSH1 0x40 MLOAD DUP1 SWAP2 SUB SWAP1 REVERT JUMPDEST PUSH2 0x2377 DUP2 PUSH2 0x1943 JUMP JUMPDEST POP JUMP JUMPDEST PUSH2 0x2382 PUSH2 0x2277 JUMP JUMPDEST PUSH1 0x0 DUP1 PUSH1 0x0 PUSH2 0x100 EXP DUP2 SLOAD DUP2 PUSH1 0xFF MUL NOT AND SWAP1 DUP4 ISZERO ISZERO MUL OR SWAP1 SSTORE POP JUMP JUMPDEST PUSH1 0x0 DUP2 SWAP1 POP SWAP2 SWAP1 POP JUMP JUMPDEST PUSH1 0x0 DUP2 PUSH20 0xFFFFFFFFFFFFFFFFFFFFFFFFFFFFFFFFFFFFFFFF AND EXTCODESIZE SUB PUSH2 0x2404 JUMPI DUP1 PUSH1 0x40 MLOAD PUSH32 0x4C9C8CE300000000000000000000000000000000000000000000000000000000 DUP2 MSTORE PUSH1 0x4 ADD PUSH2 0x23FB SWAP2 SWAP1 PUSH2 0x2C52 JUMP JUMPDEST PUSH1 0x40 MLOAD DUP1 SWAP2 SUB SWAP1 REVERT JUMPDEST DUP1 PUSH2 0x2431 PUSH32 0x360894A13BA1A3210667C828492DB98DCA3E2076CC3735A920A3CA505D382BBC PUSH1 0x0 SHL PUSH2 0x239E JUMP JUMPDEST PUSH1 0x0 ADD PUSH1 0x0 PUSH2 0x100 EXP DUP2 SLOAD DUP2 PUSH20 0xFFFFFFFFFFFFFFFFFFFFFFFFFFFFFFFFFFFFFFFF MUL NOT AND SWAP1 DUP4 PUSH20 0xFFFFFFFFFFFFFFFFFFFFFFFFFFFFFFFFFFFFFFFF AND MUL OR SWAP1 SSTORE POP POP JUMP JUMPDEST PUSH1 0x60 PUSH1 0x0 DUP1 DUP5 PUSH20 0xFFFFFFFFFFFFFFFFFFFFFFFFFFFFFFFFFFFFFFFF AND DUP5 PUSH1 0x40 MLOAD PUSH2 0x249F SWAP2 SWAP1 PUSH2 0x36A8 JUMP JUMPDEST PUSH1 0x0 PUSH1 0x40 MLOAD DUP1 DUP4 SUB DUP2 DUP6 GAS DELEGATECALL SWAP2 POP POP RETURNDATASIZE DUP1 PUSH1 0x0 DUP2 EQ PUSH2 0x24DA JUMPI PUSH1 0x40 MLOAD SWAP2 POP PUSH1 0x1F NOT PUSH1 0x3F RETURNDATASIZE ADD AND DUP3 ADD PUSH1 0x40 MSTORE RETURNDATASIZE DUP3 MSTORE RETURNDATASIZE PUSH1 0x0 PUSH1 0x20 DUP5 ADD RETURNDATACOPY PUSH2 0x24DF JUMP JUMPDEST PUSH1 0x60 SWAP2 POP JUMPDEST POP SWAP2 POP SWAP2 POP PUSH2 0x24EF DUP6 DUP4 DUP4 PUSH2 0x2556 JUMP JUMPDEST SWAP3 POP POP POP SWAP3 SWAP2 POP POP JUMP JUMPDEST PUSH1 0x0 CALLVALUE GT ISZERO PUSH2 0x2534 JUMPI PUSH1 0x40 MLOAD PUSH32 0xB398979F00000000000000000000000000000000000000000000000000000000 DUP2 MSTORE PUSH1 0x4 ADD PUSH1 0x40 MLOAD DUP1 SWAP2 SUB SWAP1 REVERT JUMPDEST JUMP JUMPDEST PUSH1 0x0 PUSH2 0x2540 PUSH2 0x1BBB JUMP JUMPDEST PUSH1 0x0 ADD PUSH1 0x8 SWAP1 SLOAD SWAP1 PUSH2 0x100 EXP SWAP1 DIV PUSH1 0xFF AND SWAP1 POP SWAP1 JUMP JUMPDEST PUSH1 0x60 DUP3 PUSH2 0x256B JUMPI PUSH2 0x2566 DUP3 PUSH2 0x25E5 JUMP JUMPDEST PUSH2 0x25DD JUMP JUMPDEST PUSH1 0x0 DUP3 MLOAD EQ DUP1 ISZERO PUSH2 0x2593 JUMPI POP PUSH1 0x0 DUP5 PUSH20 0xFFFFFFFFFFFFFFFFFFFFFFFFFFFFFFFFFFFFFFFF AND EXTCODESIZE EQ JUMPDEST ISZERO PUSH2 0x25D5 JUMPI DUP4 PUSH1 0x40 MLOAD PUSH32 0x9996B31500000000000000000000000000000000000000000000000000000000 DUP2 MSTORE PUSH1 0x4 ADD PUSH2 0x25CC SWAP2 SWAP1 PUSH2 0x2C52 JUMP JUMPDEST PUSH1 0x40 MLOAD DUP1 SWAP2 SUB SWAP1 REVERT JUMPDEST DUP2 SWAP1 POP PUSH2 0x25DE JUMP JUMPDEST JUMPDEST SWAP4 SWAP3 POP POP POP JUMP JUMPDEST PUSH1 0x0 DUP2 MLOAD GT ISZERO PUSH2 0x25F8 JUMPI DUP1 MLOAD DUP1 DUP3 PUSH1 0x20 ADD REVERT JUMPDEST PUSH1 0x40 MLOAD PUSH32 0xD6BDA27500000000000000000000000000000000000000000000000000000000 DUP2 MSTORE PUSH1 0x4 ADD PUSH1 0x40 MLOAD DUP1 SWAP2 SUB SWAP1 REVERT JUMPDEST PUSH1 0x0 DUP2 MLOAD SWAP1 POP SWAP2 SWAP1 POP JUMP JUMPDEST PUSH1 0x0 DUP3 DUP3 MSTORE PUSH1 0x20 DUP3 ADD SWAP1 POP SWAP3 SWAP2 POP POP JUMP JUMPDEST PUSH1 0x0 JUMPDEST DUP4 DUP2 LT ISZERO PUSH2 0x2664 JUMPI DUP1 DUP3 ADD MLOAD DUP2 DUP5 ADD MSTORE PUSH1 0x20 DUP2 ADD SWAP1 POP PUSH2 0x2649 JUMP JUMPDEST PUSH1 0x0 DUP5 DUP5 ADD MSTORE POP POP POP POP JUMP JUMPDEST PUSH1 0x0 PUSH1 0x1F NOT PUSH1 0x1F DUP4 ADD AND SWAP1 POP SWAP2 SWAP1 POP JUMP JUMPDEST PUSH1 0x0 PUSH2 0x268C DUP3 PUSH2 0x262A JUMP JUMPDEST PUSH2 0x2696 DUP2 DUP6 PUSH2 0x2635 JUMP JUMPDEST SWAP4 POP PUSH2 0x26A6 DUP2 DUP6 PUSH1 0x20 DUP7 ADD PUSH2 0x2646 JUMP JUMPDEST PUSH2 0x26AF DUP2 PUSH2 0x2670 JUMP JUMPDEST DUP5 ADD SWAP2 POP POP SWAP3 SWAP2 POP POP JUMP JUMPDEST PUSH1 0x0 PUSH1 0x20 DUP3 ADD SWAP1 POP DUP2 DUP2 SUB PUSH1 0x0 DUP4 ADD MSTORE PUSH2 0x26D4 DUP2 DUP5 PUSH2 0x2681 JUMP JUMPDEST SWAP1 POP SWAP3 SWAP2 POP POP JUMP JUMPDEST PUSH1 0x0 PUSH1 0x40 MLOAD SWAP1 POP SWAP1 JUMP JUMPDEST PUSH1 0x0 DUP1 REVERT JUMPDEST PUSH1 0x0 DUP1 REVERT JUMPDEST PUSH1 0x0 PUSH20 0xFFFFFFFFFFFFFFFFFFFFFFFFFFFFFFFFFFFFFFFF DUP3 AND SWAP1 POP SWAP2 SWAP1 POP JUMP JUMPDEST PUSH1 0x0 PUSH2 0x271B DUP3 PUSH2 0x26F0 JUMP JUMPDEST SWAP1 POP SWAP2 SWAP1 POP JUMP JUMPDEST PUSH2 0x272B DUP2 PUSH2 0x2710 JUMP JUMPDEST DUP2 EQ PUSH2 0x2736 JUMPI PUSH1 0x0 DUP1 REVERT JUMPDEST POP JUMP JUMPDEST PUSH1 0x0 DUP2 CALLDATALOAD SWAP1 POP PUSH2 0x2748 DUP2 PUSH2 0x2722 JUMP JUMPDEST SWAP3 SWAP2 POP POP JUMP JUMPDEST PUSH1 0x0 DUP2 SWAP1 POP SWAP2 SWAP1 POP JUMP JUMPDEST PUSH2 0x2761 DUP2 PUSH2 0x274E JUMP JUMPDEST DUP2 EQ PUSH2 0x276C JUMPI PUSH1 0x0 DUP1 REVERT JUMPDEST POP JUMP JUMPDEST PUSH1 0x0 DUP2 CALLDATALOAD SWAP1 POP PUSH2 0x277E DUP2 PUSH2 0x2758 JUMP JUMPDEST SWAP3 SWAP2 POP POP JUMP JUMPDEST PUSH1 0x0 DUP1 PUSH1 0x40 DUP4 DUP6 SUB SLT ISZERO PUSH2 0x279B JUMPI PUSH2 0x279A PUSH2 0x26E6 JUMP JUMPDEST JUMPDEST PUSH1 0x0 PUSH2 0x27A9 DUP6 DUP3 DUP7 ADD PUSH2 0x2739 JUMP JUMPDEST SWAP3 POP POP PUSH1 0x20 PUSH2 0x27BA DUP6 DUP3 DUP7 ADD PUSH2 0x276F JUMP JUMPDEST SWAP2 POP POP SWAP3 POP SWAP3 SWAP1 POP JUMP JUMPDEST PUSH1 0x0 DUP2 ISZERO ISZERO SWAP1 POP SWAP2 SWAP1 POP JUMP JUMPDEST PUSH2 0x27D9 DUP2 PUSH2 0x27C4 JUMP JUMPDEST DUP3 MSTORE POP POP JUMP JUMPDEST PUSH1 0x0 PUSH1 0x20 DUP3 ADD SWAP1 POP PUSH2 0x27F4 PUSH1 0x0 DUP4 ADD DUP5 PUSH2 0x27D0 JUMP JUMPDEST SWAP3 SWAP2 POP POP JUMP JUMPDEST PUSH2 0x2803 DUP2 PUSH2 0x27C4 JUMP JUMPDEST DUP2 EQ PUSH2 0x280E JUMPI PUSH1 0x0 DUP1 REVERT JUMPDEST POP JUMP JUMPDEST PUSH1 0x0 DUP2 CALLDATALOAD SWAP1 POP PUSH2 0x2820 DUP2 PUSH2 0x27FA JUMP JUMPDEST SWAP3 SWAP2 POP POP JUMP JUMPDEST PUSH1 0x0 DUP1 PUSH1 0x40 DUP4 DUP6 SUB SLT ISZERO PUSH2 0x283D JUMPI PUSH2 0x283C PUSH2 0x26E6 JUMP JUMPDEST JUMPDEST PUSH1 0x0 PUSH2 0x284B DUP6 DUP3 DUP7 ADD PUSH2 0x2739 JUMP JUMPDEST SWAP3 POP POP PUSH1 0x20 PUSH2 0x285C DUP6 DUP3 DUP7 ADD PUSH2 0x2811 JUMP JUMPDEST SWAP2 POP POP SWAP3 POP SWAP3 SWAP1 POP JUMP JUMPDEST PUSH2 0x286F DUP2 PUSH2 0x274E JUMP JUMPDEST DUP3 MSTORE POP POP JUMP JUMPDEST PUSH1 0x0 PUSH1 0x20 DUP3 ADD SWAP1 POP PUSH2 0x288A PUSH1 0x0 DUP4 ADD DUP5 PUSH2 0x2866 JUMP JUMPDEST SWAP3 SWAP2 POP POP JUMP JUMPDEST PUSH1 0x0 DUP1 PUSH1 0x0 PUSH1 0x60 DUP5 DUP7 SUB SLT ISZERO PUSH2 0x28A9 JUMPI PUSH2 0x28A8 PUSH2 0x26E6 JUMP JUMPDEST JUMPDEST PUSH1 0x0 PUSH2 0x28B7 DUP7 DUP3 DUP8 ADD PUSH2 0x2739 JUMP JUMPDEST SWAP4 POP POP PUSH1 0x20 PUSH2 0x28C8 DUP7 DUP3 DUP8 ADD PUSH2 0x2739 JUMP JUMPDEST SWAP3 POP POP PUSH1 0x40 PUSH2 0x28D9 DUP7 DUP3 DUP8 ADD PUSH2 0x276F JUMP JUMPDEST SWAP2 POP POP SWAP3 POP SWAP3 POP SWAP3 JUMP JUMPDEST PUSH1 0x0 PUSH1 0x20 DUP3 DUP5 SUB SLT ISZERO PUSH2 0x28F9 JUMPI PUSH2 0x28F8 PUSH2 0x26E6 JUMP JUMPDEST JUMPDEST PUSH1 0x0 PUSH2 0x2907 DUP5 DUP3 DUP6 ADD PUSH2 0x2739 JUMP JUMPDEST SWAP2 POP POP SWAP3 SWAP2 POP POP JUMP JUMPDEST PUSH1 0x0 PUSH1 0xFF DUP3 AND SWAP1 POP SWAP2 SWAP1 POP JUMP JUMPDEST PUSH2 0x2926 DUP2 PUSH2 0x2910 JUMP JUMPDEST DUP3 MSTORE POP POP JUMP JUMPDEST PUSH1 0x0 PUSH1 0x20 DUP3 ADD SWAP1 POP PUSH2 0x2941 PUSH1 0x0 DUP4 ADD DUP5 PUSH2 0x291D JUMP JUMPDEST SWAP3 SWAP2 POP POP JUMP JUMPDEST PUSH1 0x0 DUP1 REVERT JUMPDEST PUSH1 0x0 DUP1 REVERT JUMPDEST PUSH32 0x4E487B7100000000000000000000000000000000000000000000000000000000 PUSH1 0x0 MSTORE PUSH1 0x41 PUSH1 0x4 MSTORE PUSH1 0x24 PUSH1 0x0 REVERT JUMPDEST PUSH2 0x2989 DUP3 PUSH2 0x2670 JUMP JUMPDEST DUP2 ADD DUP2 DUP2 LT PUSH8 0xFFFFFFFFFFFFFFFF DUP3 GT OR ISZERO PUSH2 0x29A8 JUMPI PUSH2 0x29A7 PUSH2 0x2951 JUMP JUMPDEST JUMPDEST DUP1 PUSH1 0x40 MSTORE POP POP POP JUMP JUMPDEST PUSH1 0x0 PUSH2 0x29BB PUSH2 0x26DC JUMP JUMPDEST SWAP1 POP PUSH2 0x29C7 DUP3 DUP3 PUSH2 0x2980 JUMP JUMPDEST SWAP2 SWAP1 POP JUMP JUMPDEST PUSH1 0x0 PUSH8 0xFFFFFFFFFFFFFFFF DUP3 GT ISZERO PUSH2 0x29E7 JUMPI PUSH2 0x29E6 PUSH2 0x2951 JUMP JUMPDEST JUMPDEST PUSH2 0x29F0 DUP3 PUSH2 0x2670 JUMP JUMPDEST SWAP1 POP PUSH1 0x20 DUP2 ADD SWAP1 POP SWAP2 SWAP1 POP JUMP JUMPDEST DUP3 DUP2 DUP4 CALLDATACOPY PUSH1 0x0 DUP4 DUP4 ADD MSTORE POP POP POP JUMP JUMPDEST PUSH1 0x0 PUSH2 0x2A1F PUSH2 0x2A1A DUP5 PUSH2 0x29CC JUMP JUMPDEST PUSH2 0x29B1 JUMP JUMPDEST SWAP1 POP DUP3 DUP2 MSTORE PUSH1 0x20 DUP2 ADD DUP5 DUP5 DUP5 ADD GT ISZERO PUSH2 0x2A3B JUMPI PUSH2 0x2A3A PUSH2 0x294C JUMP JUMPDEST JUMPDEST PUSH2 0x2A46 DUP5 DUP3 DUP6 PUSH2 0x29FD JUMP JUMPDEST POP SWAP4 SWAP3 POP POP POP JUMP JUMPDEST PUSH1 0x0 DUP3 PUSH1 0x1F DUP4 ADD SLT PUSH2 0x2A63 JUMPI PUSH2 0x2A62 PUSH2 0x2947 JUMP JUMPDEST JUMPDEST DUP2 CALLDATALOAD PUSH2 0x2A73 DUP5 DUP3 PUSH1 0x20 DUP7 ADD PUSH2 0x2A0C JUMP JUMPDEST SWAP2 POP POP SWAP3 SWAP2 POP POP JUMP JUMPDEST PUSH1 0x0 DUP1 PUSH1 0x40 DUP4 DUP6 SUB SLT ISZERO PUSH2 0x2A93 JUMPI PUSH2 0x2A92 PUSH2 0x26E6 JUMP JUMPDEST JUMPDEST PUSH1 0x0 PUSH2 0x2AA1 DUP6 DUP3 DUP7 ADD PUSH2 0x2739 JUMP JUMPDEST SWAP3 POP POP PUSH1 0x20 DUP4 ADD CALLDATALOAD PUSH8 0xFFFFFFFFFFFFFFFF DUP2 GT ISZERO PUSH2 0x2AC2 JUMPI PUSH2 0x2AC1 PUSH2 0x26EB JUMP JUMPDEST JUMPDEST PUSH2 0x2ACE DUP6 DUP3 DUP7 ADD PUSH2 0x2A4E JUMP JUMPDEST SWAP2 POP POP SWAP3 POP SWAP3 SWAP1 POP JUMP JUMPDEST PUSH1 0x0 DUP2 SWAP1 POP SWAP2 SWAP1 POP JUMP JUMPDEST PUSH2 0x2AEB DUP2 PUSH2 0x2AD8 JUMP JUMPDEST DUP3 MSTORE POP POP JUMP JUMPDEST PUSH1 0x0 PUSH1 0x20 DUP3 ADD SWAP1 POP PUSH2 0x2B06 PUSH1 0x0 DUP4 ADD DUP5 PUSH2 0x2AE2 JUMP JUMPDEST SWAP3 SWAP2 POP POP JUMP JUMPDEST PUSH1 0x0 DUP1 REVERT JUMPDEST PUSH1 0x0 DUP1 REVERT JUMPDEST PUSH1 0x0 DUP1 DUP4 PUSH1 0x1F DUP5 ADD SLT PUSH2 0x2B2C JUMPI PUSH2 0x2B2B PUSH2 0x2947 JUMP JUMPDEST JUMPDEST DUP3 CALLDATALOAD SWAP1 POP PUSH8 0xFFFFFFFFFFFFFFFF DUP2 GT ISZERO PUSH2 0x2B49 JUMPI PUSH2 0x2B48 PUSH2 0x2B0C JUMP JUMPDEST JUMPDEST PUSH1 0x20 DUP4 ADD SWAP2 POP DUP4 PUSH1 0x20 DUP3 MUL DUP4 ADD GT ISZERO PUSH2 0x2B65 JUMPI PUSH2 0x2B64 PUSH2 0x2B11 JUMP JUMPDEST JUMPDEST SWAP3 POP SWAP3 SWAP1 POP JUMP JUMPDEST PUSH1 0x0 DUP1 DUP4 PUSH1 0x1F DUP5 ADD SLT PUSH2 0x2B82 JUMPI PUSH2 0x2B81 PUSH2 0x2947 JUMP JUMPDEST JUMPDEST DUP3 CALLDATALOAD SWAP1 POP PUSH8 0xFFFFFFFFFFFFFFFF DUP2 GT ISZERO PUSH2 0x2B9F JUMPI PUSH2 0x2B9E PUSH2 0x2B0C JUMP JUMPDEST JUMPDEST PUSH1 0x20 DUP4 ADD SWAP2 POP DUP4 PUSH1 0x20 DUP3 MUL DUP4 ADD GT ISZERO PUSH2 0x2BBB JUMPI PUSH2 0x2BBA PUSH2 0x2B11 JUMP JUMPDEST JUMPDEST SWAP3 POP SWAP3 SWAP1 POP JUMP JUMPDEST PUSH1 0x0 DUP1 PUSH1 0x0 DUP1 PUSH1 0x40 DUP6 DUP8 SUB SLT ISZERO PUSH2 0x2BDC JUMPI PUSH2 0x2BDB PUSH2 0x26E6 JUMP JUMPDEST JUMPDEST PUSH1 0x0 DUP6 ADD CALLDATALOAD PUSH8 0xFFFFFFFFFFFFFFFF DUP2 GT ISZERO PUSH2 0x2BFA JUMPI PUSH2 0x2BF9 PUSH2 0x26EB JUMP JUMPDEST JUMPDEST PUSH2 0x2C06 DUP8 DUP3 DUP9 ADD PUSH2 0x2B16 JUMP JUMPDEST SWAP5 POP SWAP5 POP POP PUSH1 0x20 DUP6 ADD CALLDATALOAD PUSH8 0xFFFFFFFFFFFFFFFF DUP2 GT ISZERO PUSH2 0x2C29 JUMPI PUSH2 0x2C28 PUSH2 0x26EB JUMP JUMPDEST JUMPDEST PUSH2 0x2C35 DUP8 DUP3 DUP9 ADD PUSH2 0x2B6C JUMP JUMPDEST SWAP3 POP SWAP3 POP POP SWAP3 SWAP6 SWAP2 SWAP5 POP SWAP3 POP JUMP JUMPDEST PUSH2 0x2C4C DUP2 PUSH2 0x2710 JUMP JUMPDEST DUP3 MSTORE POP POP JUMP JUMPDEST PUSH1 0x0 PUSH1 0x20 DUP3 ADD SWAP1 POP PUSH2 0x2C67 PUSH1 0x0 DUP4 ADD DUP5 PUSH2 0x2C43 JUMP JUMPDEST SWAP3 SWAP2 POP POP JUMP JUMPDEST PUSH1 0x0 PUSH8 0xFFFFFFFFFFFFFFFF DUP3 GT ISZERO PUSH2 0x2C88 JUMPI PUSH2 0x2C87 PUSH2 0x2951 JUMP JUMPDEST JUMPDEST PUSH2 0x2C91 DUP3 PUSH2 0x2670 JUMP JUMPDEST SWAP1 POP PUSH1 0x20 DUP2 ADD SWAP1 POP SWAP2 SWAP1 POP JUMP JUMPDEST PUSH1 0x0 PUSH2 0x2CB1 PUSH2 0x2CAC DUP5 PUSH2 0x2C6D JUMP JUMPDEST PUSH2 0x29B1 JUMP JUMPDEST SWAP1 POP DUP3 DUP2 MSTORE PUSH1 0x20 DUP2 ADD DUP5 DUP5 DUP5 ADD GT ISZERO PUSH2 0x2CCD JUMPI PUSH2 0x2CCC PUSH2 0x294C JUMP JUMPDEST JUMPDEST PUSH2 0x2CD8 DUP5 DUP3 DUP6 PUSH2 0x29FD JUMP JUMPDEST POP SWAP4 SWAP3 POP POP POP JUMP JUMPDEST PUSH1 0x0 DUP3 PUSH1 0x1F DUP4 ADD SLT PUSH2 0x2CF5 JUMPI PUSH2 0x2CF4 PUSH2 0x2947 JUMP JUMPDEST JUMPDEST DUP2 CALLDATALOAD PUSH2 0x2D05 DUP5 DUP3 PUSH1 0x20 DUP7 ADD PUSH2 0x2C9E JUMP JUMPDEST SWAP2 POP POP SWAP3 SWAP2 POP POP JUMP JUMPDEST PUSH1 0x0 DUP1 PUSH1 0x0 PUSH1 0x60 DUP5 DUP7 SUB SLT ISZERO PUSH2 0x2D27 JUMPI PUSH2 0x2D26 PUSH2 0x26E6 JUMP JUMPDEST JUMPDEST PUSH1 0x0 DUP5 ADD CALLDATALOAD PUSH8 0xFFFFFFFFFFFFFFFF DUP2 GT ISZERO PUSH2 0x2D45 JUMPI PUSH2 0x2D44 PUSH2 0x26EB JUMP JUMPDEST JUMPDEST PUSH2 0x2D51 DUP7 DUP3 DUP8 ADD PUSH2 0x2CE0 JUMP JUMPDEST SWAP4 POP POP PUSH1 0x20 DUP5 ADD CALLDATALOAD PUSH8 0xFFFFFFFFFFFFFFFF DUP2 GT ISZERO PUSH2 0x2D72 JUMPI PUSH2 0x2D71 PUSH2 0x26EB JUMP JUMPDEST JUMPDEST PUSH2 0x2D7E DUP7 DUP3 DUP8 ADD PUSH2 0x2CE0 JUMP JUMPDEST SWAP3 POP POP PUSH1 0x40 PUSH2 0x2D8F DUP7 DUP3 DUP8 ADD PUSH2 0x276F JUMP JUMPDEST SWAP2 POP POP SWAP3 POP SWAP3 POP SWAP3 JUMP JUMPDEST PUSH1 0x0 DUP1 PUSH1 0x40 DUP4 DUP6 SUB SLT ISZERO PUSH2 0x2DB0 JUMPI PUSH2 0x2DAF PUSH2 0x26E6 JUMP JUMPDEST JUMPDEST PUSH1 0x0 PUSH2 0x2DBE DUP6 DUP3 DUP7 ADD PUSH2 0x2739 JUMP JUMPDEST SWAP3 POP POP PUSH1 0x20 PUSH2 0x2DCF DUP6 DUP3 DUP7 ADD PUSH2 0x2739 JUMP JUMPDEST SWAP2 POP POP SWAP3 POP SWAP3 SWAP1 POP JUMP JUMPDEST PUSH32 0x4E487B7100000000000000000000000000000000000000000000000000000000 PUSH1 0x0 MSTORE PUSH1 0x22 PUSH1 0x4 MSTORE PUSH1 0x24 PUSH1 0x0 REVERT JUMPDEST PUSH1 0x0 PUSH1 0x2 DUP3 DIV SWAP1 POP PUSH1 0x1 DUP3 AND DUP1 PUSH2 0x2E20 JUMPI PUSH1 0x7F DUP3 AND SWAP2 POP JUMPDEST PUSH1 0x20 DUP3 LT DUP2 SUB PUSH2 0x2E33 JUMPI PUSH2 0x2E32 PUSH2 0x2DD9 JUMP JUMPDEST JUMPDEST POP SWAP2 SWAP1 POP JUMP JUMPDEST PUSH32 0x5472616E73666572206661696C65643A2053656E64657220697320626C61636B PUSH1 0x0 DUP3 ADD MSTORE PUSH32 0x6C69737465640000000000000000000000000000000000000000000000000000 PUSH1 0x20 DUP3 ADD MSTORE POP JUMP JUMPDEST PUSH1 0x0 PUSH2 0x2E95 PUSH1 0x26 DUP4 PUSH2 0x2635 JUMP JUMPDEST SWAP2 POP PUSH2 0x2EA0 DUP3 PUSH2 0x2E39 JUMP JUMPDEST PUSH1 0x40 DUP3 ADD SWAP1 POP SWAP2 SWAP1 POP JUMP JUMPDEST PUSH1 0x0 PUSH1 0x20 DUP3 ADD SWAP1 POP DUP2 DUP2 SUB PUSH1 0x0 DUP4 ADD MSTORE PUSH2 0x2EC4 DUP2 PUSH2 0x2E88 JUMP JUMPDEST SWAP1 POP SWAP2 SWAP1 POP JUMP JUMPDEST PUSH32 0x5472616E73666572206661696C65643A20526563697069656E7420697320626C PUSH1 0x0 DUP3 ADD MSTORE PUSH32 0x61636B6C69737465640000000000000000000000000000000000000000000000 PUSH1 0x20 DUP3 ADD MSTORE POP JUMP JUMPDEST PUSH1 0x0 PUSH2 0x2F27 PUSH1 0x29 DUP4 PUSH2 0x2635 JUMP JUMPDEST SWAP2 POP PUSH2 0x2F32 DUP3 PUSH2 0x2ECB JUMP JUMPDEST PUSH1 0x40 DUP3 ADD SWAP1 POP SWAP2 SWAP1 POP JUMP JUMPDEST PUSH1 0x0 PUSH1 0x20 DUP3 ADD SWAP1 POP DUP2 DUP2 SUB PUSH1 0x0 DUP4 ADD MSTORE PUSH2 0x2F56 DUP2 PUSH2 0x2F1A JUMP JUMPDEST SWAP1 POP SWAP2 SWAP1 POP JUMP JUMPDEST PUSH32 0x5472616E73666572206661696C65643A20546F6B656E7320617265206C6F636B PUSH1 0x0 DUP3 ADD MSTORE PUSH32 0x6564000000000000000000000000000000000000000000000000000000000000 PUSH1 0x20 DUP3 ADD MSTORE POP JUMP JUMPDEST PUSH1 0x0 PUSH2 0x2FB9 PUSH1 0x22 DUP4 PUSH2 0x2635 JUMP JUMPDEST SWAP2 POP PUSH2 0x2FC4 DUP3 PUSH2 0x2F5D JUMP JUMPDEST PUSH1 0x40 DUP3 ADD SWAP1 POP SWAP2 SWAP1 POP JUMP JUMPDEST PUSH1 0x0 PUSH1 0x20 DUP3 ADD SWAP1 POP DUP2 DUP2 SUB PUSH1 0x0 DUP4 ADD MSTORE PUSH2 0x2FE8 DUP2 PUSH2 0x2FAC JUMP JUMPDEST SWAP1 POP SWAP2 SWAP1 POP JUMP JUMPDEST PUSH32 0x4E6F7420617574686F72697A6564000000000000000000000000000000000000 PUSH1 0x0 DUP3 ADD MSTORE POP JUMP JUMPDEST PUSH1 0x0 PUSH2 0x3025 PUSH1 0xE DUP4 PUSH2 0x2635 JUMP JUMPDEST SWAP2 POP PUSH2 0x3030 DUP3 PUSH2 0x2FEF JUMP JUMPDEST PUSH1 0x20 DUP3 ADD SWAP1 POP SWAP2 SWAP1 POP JUMP JUMPDEST PUSH1 0x0 PUSH1 0x20 DUP3 ADD SWAP1 POP DUP2 DUP2 SUB PUSH1 0x0 DUP4 ADD MSTORE PUSH2 0x3054 DUP2 PUSH2 0x3018 JUMP JUMPDEST SWAP1 POP SWAP2 SWAP1 POP JUMP JUMPDEST PUSH32 0x42617463685472616E73666572206661696C65643A204D69736D617463686564 PUSH1 0x0 DUP3 ADD MSTORE PUSH32 0x2061727261797300000000000000000000000000000000000000000000000000 PUSH1 0x20 DUP3 ADD MSTORE POP JUMP JUMPDEST PUSH1 0x0 PUSH2 0x30B7 PUSH1 0x27 DUP4 PUSH2 0x2635 JUMP JUMPDEST SWAP2 POP PUSH2 0x30C2 DUP3 PUSH2 0x305B JUMP JUMPDEST PUSH1 0x40 DUP3 ADD SWAP1 POP SWAP2 SWAP1 POP JUMP JUMPDEST PUSH1 0x0 PUSH1 0x20 DUP3 ADD SWAP1 POP DUP2 DUP2 SUB PUSH1 0x0 DUP4 ADD MSTORE PUSH2 0x30E6 DUP2 PUSH2 0x30AA JUMP JUMPDEST SWAP1 POP SWAP2 SWAP1 POP JUMP JUMPDEST PUSH32 0x4E487B7100000000000000000000000000000000000000000000000000000000 PUSH1 0x0 MSTORE PUSH1 0x32 PUSH1 0x4 MSTORE PUSH1 0x24 PUSH1 0x0 REVERT JUMPDEST PUSH32 0x42617463685472616E73666572206661696C65643A20526563697069656E7420 PUSH1 0x0 DUP3 ADD MSTORE PUSH32 0x697320626C61636B6C6973746564000000000000000000000000000000000000 PUSH1 0x20 DUP3 ADD MSTORE POP JUMP JUMPDEST PUSH1 0x0 PUSH2 0x3178 PUSH1 0x2E DUP4 PUSH2 0x2635 JUMP JUMPDEST SWAP2 POP PUSH2 0x3183 DUP3 PUSH2 0x311C JUMP JUMPDEST PUSH1 0x40 DUP3 ADD SWAP1 POP SWAP2 SWAP1 POP JUMP JUMPDEST PUSH1 0x0 PUSH1 0x20 DUP3 ADD SWAP1 POP DUP2 DUP2 SUB PUSH1 0x0 DUP4 ADD MSTORE PUSH2 0x31A7 DUP2 PUSH2 0x316B JUMP JUMPDEST SWAP1 POP SWAP2 SWAP1 POP JUMP JUMPDEST PUSH1 0x0 DUP2 SWAP1 POP SWAP2 SWAP1 POP JUMP JUMPDEST PUSH1 0x0 PUSH8 0xFFFFFFFFFFFFFFFF DUP3 AND SWAP1 POP SWAP2 SWAP1 POP JUMP JUMPDEST PUSH1 0x0 DUP2 SWAP1 POP SWAP2 SWAP1 POP JUMP JUMPDEST PUSH1 0x0 PUSH2 0x31F1 PUSH2 0x31EC PUSH2 0x31E7 DUP5 PUSH2 0x31AE JUMP JUMPDEST PUSH2 0x31CC JUMP JUMPDEST PUSH2 0x31B8 JUMP JUMPDEST SWAP1 POP SWAP2 SWAP1 POP JUMP JUMPDEST PUSH2 0x3201 DUP2 PUSH2 0x31D6 JUMP JUMPDEST DUP3 MSTORE POP POP JUMP JUMPDEST PUSH1 0x0 PUSH1 0x20 DUP3 ADD SWAP1 POP PUSH2 0x321C PUSH1 0x0 DUP4 ADD DUP5 PUSH2 0x31F8 JUMP JUMPDEST SWAP3 SWAP2 POP POP JUMP JUMPDEST PUSH32 0x5061757361626C653A2070617573656400000000000000000000000000000000 PUSH1 0x0 DUP3 ADD MSTORE POP JUMP JUMPDEST PUSH1 0x0 PUSH2 0x3258 PUSH1 0x10 DUP4 PUSH2 0x2635 JUMP JUMPDEST SWAP2 POP PUSH2 0x3263 DUP3 PUSH2 0x3222 JUMP JUMPDEST PUSH1 0x20 DUP3 ADD SWAP1 POP SWAP2 SWAP1 POP JUMP JUMPDEST PUSH1 0x0 PUSH1 0x20 DUP3 ADD SWAP1 POP DUP2 DUP2 SUB PUSH1 0x0 DUP4 ADD MSTORE PUSH2 0x3287 DUP2 PUSH2 0x324B JUMP JUMPDEST SWAP1 POP SWAP2 SWAP1 POP JUMP JUMPDEST PUSH2 0x3297 DUP2 PUSH2 0x2AD8 JUMP JUMPDEST DUP2 EQ PUSH2 0x32A2 JUMPI PUSH1 0x0 DUP1 REVERT JUMPDEST POP JUMP JUMPDEST PUSH1 0x0 DUP2 MLOAD SWAP1 POP PUSH2 0x32B4 DUP2 PUSH2 0x328E JUMP JUMPDEST SWAP3 SWAP2 POP POP JUMP JUMPDEST PUSH1 0x0 PUSH1 0x20 DUP3 DUP5 SUB SLT ISZERO PUSH2 0x32D0 JUMPI PUSH2 0x32CF PUSH2 0x26E6 JUMP JUMPDEST JUMPDEST PUSH1 0x0 PUSH2 0x32DE DUP5 DUP3 DUP6 ADD PUSH2 0x32A5 JUMP JUMPDEST SWAP2 POP POP SWAP3 SWAP2 POP POP JUMP JUMPDEST PUSH1 0x0 PUSH1 0x60 DUP3 ADD SWAP1 POP PUSH2 0x32FC PUSH1 0x0 DUP4 ADD DUP7 PUSH2 0x2C43 JUMP JUMPDEST PUSH2 0x3309 PUSH1 0x20 DUP4 ADD DUP6 PUSH2 0x2866 JUMP JUMPDEST PUSH2 0x3316 PUSH1 0x40 DUP4 ADD DUP5 PUSH2 0x2866 JUMP JUMPDEST SWAP5 SWAP4 POP POP POP POP JUMP JUMPDEST PUSH32 0x5061757361626C653A206E6F7420706175736564000000000000000000000000 PUSH1 0x0 DUP3 ADD MSTORE POP JUMP JUMPDEST PUSH1 0x0 PUSH2 0x3354 PUSH1 0x14 DUP4 PUSH2 0x2635 JUMP JUMPDEST SWAP2 POP PUSH2 0x335F DUP3 PUSH2 0x331E JUMP JUMPDEST PUSH1 0x20 DUP3 ADD SWAP1 POP SWAP2 SWAP1 POP JUMP JUMPDEST PUSH1 0x0 PUSH1 0x20 DUP3 ADD SWAP1 POP DUP2 DUP2 SUB PUSH1 0x0 DUP4 ADD MSTORE PUSH2 0x3383 DUP2 PUSH2 0x3347 JUMP JUMPDEST SWAP1 POP SWAP2 SWAP1 POP JUMP JUMPDEST PUSH32 0x4E487B7100000000000000000000000000000000000000000000000000000000 PUSH1 0x0 MSTORE PUSH1 0x11 PUSH1 0x4 MSTORE PUSH1 0x24 PUSH1 0x0 REVERT JUMPDEST PUSH1 0x0 PUSH2 0x33C4 DUP3 PUSH2 0x274E JUMP JUMPDEST SWAP2 POP PUSH2 0x33CF DUP4 PUSH2 0x274E JUMP JUMPDEST SWAP3 POP DUP3 DUP3 ADD SWAP1 POP DUP1 DUP3 GT ISZERO PUSH2 0x33E7 JUMPI PUSH2 0x33E6 PUSH2 0x338A JUMP JUMPDEST JUMPDEST SWAP3 SWAP2 POP POP JUMP JUMPDEST PUSH1 0x0 DUP2 SWAP1 POP DUP2 PUSH1 0x0 MSTORE PUSH1 0x20 PUSH1 0x0 KECCAK256 SWAP1 POP SWAP2 SWAP1 POP JUMP JUMPDEST PUSH1 0x0 PUSH1 0x20 PUSH1 0x1F DUP4 ADD DIV SWAP1 POP SWAP2 SWAP1 POP JUMP JUMPDEST PUSH1 0x0 DUP3 DUP3 SHL SWAP1 POP SWAP3 SWAP2 POP POP JUMP JUMPDEST PUSH1 0x0 PUSH1 0x8 DUP4 MUL PUSH2 0x344F PUSH32 0xFFFFFFFFFFFFFFFFFFFFFFFFFFFFFFFFFFFFFFFFFFFFFFFFFFFFFFFFFFFFFFFF DUP3 PUSH2 0x3412 JUMP JUMPDEST PUSH2 0x3459 DUP7 DUP4 PUSH2 0x3412 JUMP JUMPDEST SWAP6 POP DUP1 NOT DUP5 AND SWAP4 POP DUP1 DUP7 AND DUP5 OR SWAP3 POP POP POP SWAP4 SWAP3 POP POP POP JUMP JUMPDEST PUSH1 0x0 PUSH2 0x348C PUSH2 0x3487 PUSH2 0x3482 DUP5 PUSH2 0x274E JUMP JUMPDEST PUSH2 0x31CC JUMP JUMPDEST PUSH2 0x274E JUMP JUMPDEST SWAP1 POP SWAP2 SWAP1 POP JUMP JUMPDEST PUSH1 0x0 DUP2 SWAP1 POP SWAP2 SWAP1 POP JUMP JUMPDEST PUSH2 0x34A6 DUP4 PUSH2 0x3471 JUMP JUMPDEST PUSH2 0x34BA PUSH2 0x34B2 DUP3 PUSH2 0x3493 JUMP JUMPDEST DUP5 DUP5 SLOAD PUSH2 0x341F JUMP JUMPDEST DUP3 SSTORE POP POP POP POP JUMP JUMPDEST PUSH1 0x0 SWAP1 JUMP JUMPDEST PUSH2 0x34CF PUSH2 0x34C2 JUMP JUMPDEST PUSH2 0x34DA DUP2 DUP5 DUP5 PUSH2 0x349D JUMP JUMPDEST POP POP POP JUMP JUMPDEST JUMPDEST DUP2 DUP2 LT ISZERO PUSH2 0x34FE JUMPI PUSH2 0x34F3 PUSH1 0x0 DUP3 PUSH2 0x34C7 JUMP JUMPDEST PUSH1 0x1 DUP2 ADD SWAP1 POP PUSH2 0x34E0 JUMP JUMPDEST POP POP JUMP JUMPDEST PUSH1 0x1F DUP3 GT ISZERO PUSH2 0x3543 JUMPI PUSH2 0x3514 DUP2 PUSH2 0x33ED JUMP JUMPDEST PUSH2 0x351D DUP5 PUSH2 0x3402 JUMP JUMPDEST DUP2 ADD PUSH1 0x20 DUP6 LT ISZERO PUSH2 0x352C JUMPI DUP2 SWAP1 POP JUMPDEST PUSH2 0x3540 PUSH2 0x3538 DUP6 PUSH2 0x3402 JUMP JUMPDEST DUP4 ADD DUP3 PUSH2 0x34DF JUMP JUMPDEST POP POP JUMPDEST POP POP POP JUMP JUMPDEST PUSH1 0x0 DUP3 DUP3 SHR SWAP1 POP SWAP3 SWAP2 POP POP JUMP JUMPDEST PUSH1 0x0 PUSH2 0x3566 PUSH1 0x0 NOT DUP5 PUSH1 0x8 MUL PUSH2 0x3548 JUMP JUMPDEST NOT DUP1 DUP4 AND SWAP2 POP POP SWAP3 SWAP2 POP POP JUMP JUMPDEST PUSH1 0x0 PUSH2 0x357F DUP4 DUP4 PUSH2 0x3555 JUMP JUMPDEST SWAP2 POP DUP3 PUSH1 0x2 MUL DUP3 OR SWAP1 POP SWAP3 SWAP2 POP POP JUMP JUMPDEST PUSH2 0x3598 DUP3 PUSH2 0x262A JUMP JUMPDEST PUSH8 0xFFFFFFFFFFFFFFFF DUP2 GT ISZERO PUSH2 0x35B1 JUMPI PUSH2 0x35B0 PUSH2 0x2951 JUMP JUMPDEST JUMPDEST PUSH2 0x35BB DUP3 SLOAD PUSH2 0x2E08 JUMP JUMPDEST PUSH2 0x35C6 DUP3 DUP3 DUP6 PUSH2 0x3502 JUMP JUMPDEST PUSH1 0x0 PUSH1 0x20 SWAP1 POP PUSH1 0x1F DUP4 GT PUSH1 0x1 DUP2 EQ PUSH2 0x35F9 JUMPI PUSH1 0x0 DUP5 ISZERO PUSH2 0x35E7 JUMPI DUP3 DUP8 ADD MLOAD SWAP1 POP JUMPDEST PUSH2 0x35F1 DUP6 DUP3 PUSH2 0x3573 JUMP JUMPDEST DUP7 SSTORE POP PUSH2 0x3659 JUMP JUMPDEST PUSH1 0x1F NOT DUP5 AND PUSH2 0x3607 DUP7 PUSH2 0x33ED JUMP JUMPDEST PUSH1 0x0 JUMPDEST DUP3 DUP2 LT ISZERO PUSH2 0x362F JUMPI DUP5 DUP10 ADD MLOAD DUP3 SSTORE PUSH1 0x1 DUP3 ADD SWAP2 POP PUSH1 0x20 DUP6 ADD SWAP5 POP PUSH1 0x20 DUP2 ADD SWAP1 POP PUSH2 0x360A JUMP JUMPDEST DUP7 DUP4 LT ISZERO PUSH2 0x364C JUMPI DUP5 DUP10 ADD MLOAD PUSH2 0x3648 PUSH1 0x1F DUP10 AND DUP3 PUSH2 0x3555 JUMP JUMPDEST DUP4 SSTORE POP JUMPDEST PUSH1 0x1 PUSH1 0x2 DUP9 MUL ADD DUP9 SSTORE POP POP POP JUMPDEST POP POP POP POP POP POP JUMP JUMPDEST PUSH1 0x0 DUP2 MLOAD SWAP1 POP SWAP2 SWAP1 POP JUMP JUMPDEST PUSH1 0x0 DUP2 SWAP1 POP SWAP3 SWAP2 POP POP JUMP JUMPDEST PUSH1 0x0 PUSH2 0x3682 DUP3 PUSH2 0x3661 JUMP JUMPDEST PUSH2 0x368C DUP2 DUP6 PUSH2 0x366C JUMP JUMPDEST SWAP4 POP PUSH2 0x369C DUP2 DUP6 PUSH1 0x20 DUP7 ADD PUSH2 0x2646 JUMP JUMPDEST DUP1 DUP5 ADD SWAP2 POP POP SWAP3 SWAP2 POP POP JUMP JUMPDEST PUSH1 0x0 PUSH2 0x36B4 DUP3 DUP5 PUSH2 0x3677 JUMP JUMPDEST SWAP2 POP DUP2 SWAP1 POP SWAP3 SWAP2 POP POP JUMP INVALID LOG2 PUSH5 0x6970667358 0x22 SLT KECCAK256 PUSH0 BLOBBASEFEE DUP15 PUSH16 0xE10034A2F72B5C859BB633800554E8B7 0x4B 0x24 EXTCODESIZE PUSH29 0x79F5310D643D2C2164736F6C634300081A003300000000000000000000 "
				},
				"gasEstimates": {
					"creation": {
						"codeDepositCost": "2813800",
						"executionCost": "infinite",
						"totalCost": "infinite"
					},
					"external": {
						"UPGRADE_INTERFACE_VERSION()": "infinite",
						"allowance(address,address)": "infinite",
						"approve(address,uint256)": "infinite",
						"balanceOf(address)": "3006",
						"batchTransfer(address[],uint256[])": "infinite",
						"blacklisted(address)": "2889",
						"decimals()": "389",
						"icoContract()": "2603",
						"initialize(string,string,uint256)": "infinite",
						"isBlacklisted(address)": "2993",
						"lockedUntil(address)": "2903",
						"name()": "infinite",
						"owner()": "2621",
						"pause()": "infinite",
						"paused()": "2568",
						"proxiableUUID()": "infinite",
						"renounceOwnership()": "infinite",
						"setBlacklist(address,bool)": "infinite",
						"setICOContract(address)": "infinite",
						"setLockup(address,uint256)": "infinite",
						"symbol()": "infinite",
						"totalSupply()": "2581",
						"transfer(address,uint256)": "infinite",
						"transferFrom(address,address,uint256)": "infinite",
						"transferOwnership(address)": "infinite",
						"unpause()": "infinite",
						"upgradeToAndCall(address,bytes)": "infinite"
					},
					"internal": {
						"_authorizeUpgrade(address)": "infinite"
					}
				},
				"methodIdentifiers": {
					"UPGRADE_INTERFACE_VERSION()": "ad3cb1cc",
					"allowance(address,address)": "dd62ed3e",
					"approve(address,uint256)": "095ea7b3",
					"balanceOf(address)": "70a08231",
					"batchTransfer(address[],uint256[])": "88d695b2",
					"blacklisted(address)": "dbac26e9",
					"decimals()": "313ce567",
					"icoContract()": "c66e4095",
					"initialize(string,string,uint256)": "b119490e",
					"isBlacklisted(address)": "fe575a87",
					"lockedUntil(address)": "9bc289f1",
					"name()": "06fdde03",
					"owner()": "8da5cb5b",
					"pause()": "8456cb59",
					"paused()": "5c975abb",
					"proxiableUUID()": "52d1902d",
					"renounceOwnership()": "715018a6",
					"setBlacklist(address,bool)": "153b0d1e",
					"setICOContract(address)": "2e0d2a00",
					"setLockup(address,uint256)": "3e579307",
					"symbol()": "95d89b41",
					"totalSupply()": "18160ddd",
					"transfer(address,uint256)": "a9059cbb",
					"transferFrom(address,address,uint256)": "23b872dd",
					"transferOwnership(address)": "f2fde38b",
					"unpause()": "3f4ba83a",
					"upgradeToAndCall(address,bytes)": "4f1ef286"
				}
			},
			"storageLayout": {
				"storage": [
					{
						"astId": 652,
						"contract": "RVA/UpgradableToken.sol:ERC20Token",
						"label": "_paused",
						"offset": 0,
						"slot": "0",
						"type": "t_bool"
					},
					{
						"astId": 757,
						"contract": "RVA/UpgradableToken.sol:ERC20Token",
						"label": "__gap",
						"offset": 0,
						"slot": "1",
						"type": "t_array(t_uint256)49_storage"
					},
					{
						"astId": 2418,
						"contract": "RVA/UpgradableToken.sol:ERC20Token",
						"label": "icoContract",
						"offset": 0,
						"slot": "50",
						"type": "t_address"
					},
					{
						"astId": 2420,
						"contract": "RVA/UpgradableToken.sol:ERC20Token",
						"label": "_totalSupply",
						"offset": 0,
						"slot": "51",
						"type": "t_uint256"
					},
					{
						"astId": 2424,
						"contract": "RVA/UpgradableToken.sol:ERC20Token",
						"label": "lockedUntil",
						"offset": 0,
						"slot": "52",
						"type": "t_mapping(t_address,t_uint256)"
					},
					{
						"astId": 2428,
						"contract": "RVA/UpgradableToken.sol:ERC20Token",
						"label": "blacklisted",
						"offset": 0,
						"slot": "53",
						"type": "t_mapping(t_address,t_bool)"
					}
				],
				"types": {
					"t_address": {
						"encoding": "inplace",
						"label": "address",
						"numberOfBytes": "20"
					},
					"t_array(t_uint256)49_storage": {
						"base": "t_uint256",
						"encoding": "inplace",
						"label": "uint256[49]",
						"numberOfBytes": "1568"
					},
					"t_bool": {
						"encoding": "inplace",
						"label": "bool",
						"numberOfBytes": "1"
					},
					"t_mapping(t_address,t_bool)": {
						"encoding": "mapping",
						"key": "t_address",
						"label": "mapping(address => bool)",
						"numberOfBytes": "32",
						"value": "t_bool"
					},
					"t_mapping(t_address,t_uint256)": {
						"encoding": "mapping",
						"key": "t_address",
						"label": "mapping(address => uint256)",
						"numberOfBytes": "32",
						"value": "t_uint256"
					},
					"t_uint256": {
						"encoding": "inplace",
						"label": "uint256",
						"numberOfBytes": "32"
					}
				}
			},
			"userdoc": {
				"kind": "user",
				"methods": {},
				"version": 1
			}
		}
	}
}