{
	"RVA/Vesting.sol": {
		"TokenVesting": {
			"abi": [
				{
					"inputs": [
						{
							"internalType": "address",
							"name": "_tokenAddress",
							"type": "address"
						}
					],
					"stateMutability": "nonpayable",
					"type": "constructor"
				},
				{
					"inputs": [
						{
							"internalType": "address",
							"name": "owner",
							"type": "address"
						}
					],
					"name": "OwnableInvalidOwner",
					"type": "error"
				},
				{
					"inputs": [
						{
							"internalType": "address",
							"name": "account",
							"type": "address"
						}
					],
					"name": "OwnableUnauthorizedAccount",
					"type": "error"
				},
				{
					"anonymous": false,
					"inputs": [
						{
							"indexed": true,
							"internalType": "address",
							"name": "previousOwner",
							"type": "address"
						},
						{
							"indexed": true,
							"internalType": "address",
							"name": "newOwner",
							"type": "address"
						}
					],
					"name": "OwnershipTransferred",
					"type": "event"
				},
				{
					"anonymous": false,
					"inputs": [
						{
							"indexed": true,
							"internalType": "address",
							"name": "beneficiary",
							"type": "address"
						},
						{
							"indexed": false,
							"internalType": "uint256",
							"name": "saleId",
							"type": "uint256"
						},
						{
							"indexed": false,
							"internalType": "uint256",
							"name": "amount",
							"type": "uint256"
						}
					],
					"name": "TokensClaimed",
					"type": "event"
				},
				{
					"anonymous": false,
					"inputs": [
						{
							"indexed": true,
							"internalType": "address",
							"name": "beneficiary",
							"type": "address"
						},
						{
							"indexed": false,
							"internalType": "uint256",
							"name": "totalAmount",
							"type": "uint256"
						},
						{
							"indexed": false,
							"internalType": "uint256",
							"name": "lockUpEndTime",
							"type": "uint256"
						},
						{
							"indexed": false,
							"internalType": "uint256",
							"name": "vestingEndTime",
							"type": "uint256"
						},
						{
							"indexed": false,
							"internalType": "uint256",
							"name": "vestingInterval",
							"type": "uint256"
						}
					],
					"name": "VestingAllocated",
					"type": "event"
				},
				{
					"inputs": [
						{
							"internalType": "uint256",
							"name": "saleId",
							"type": "uint256"
						}
					],
					"name": "claim",
					"outputs": [],
					"stateMutability": "nonpayable",
					"type": "function"
				},
				{
					"inputs": [],
					"name": "icoContract",
					"outputs": [
						{
							"internalType": "address",
							"name": "",
							"type": "address"
						}
					],
					"stateMutability": "view",
					"type": "function"
				},
				{
					"inputs": [],
					"name": "icoToken",
					"outputs": [
						{
							"internalType": "contract ERC20Token",
							"name": "",
							"type": "address"
						}
					],
					"stateMutability": "view",
					"type": "function"
				},
				{
					"inputs": [],
					"name": "owner",
					"outputs": [
						{
							"internalType": "address",
							"name": "",
							"type": "address"
						}
					],
					"stateMutability": "view",
					"type": "function"
				},
				{
					"inputs": [
						{
							"internalType": "address",
							"name": "_investor",
							"type": "address"
						},
						{
							"internalType": "uint256",
							"name": "_saleId",
							"type": "uint256"
						},
						{
							"internalType": "uint256",
							"name": "_tokenAmount",
							"type": "uint256"
						},
						{
							"internalType": "uint256",
							"name": "_claimedTokens",
							"type": "uint256"
						},
						{
							"internalType": "uint256",
							"name": "_lockedTokens",
							"type": "uint256"
						},
						{
							"internalType": "uint256",
							"name": "_startTime",
							"type": "uint256"
						},
						{
							"internalType": "uint256",
							"name": "_lockUpPeriod",
							"type": "uint256"
						},
						{
							"internalType": "uint256",
							"name": "_vestingPeriod",
							"type": "uint256"
						},
						{
							"internalType": "uint256",
							"name": "_vestingInterval",
							"type": "uint256"
						}
					],
					"name": "registerVesting",
					"outputs": [],
					"stateMutability": "nonpayable",
					"type": "function"
				},
				{
					"inputs": [],
					"name": "renounceOwnership",
					"outputs": [],
					"stateMutability": "nonpayable",
					"type": "function"
				},
				{
					"inputs": [
						{
							"internalType": "address",
							"name": "_icoContract",
							"type": "address"
						}
					],
					"name": "setIcoContract",
					"outputs": [],
					"stateMutability": "nonpayable",
					"type": "function"
				},
				{
					"inputs": [
						{
							"internalType": "address",
							"name": "newOwner",
							"type": "address"
						}
					],
					"name": "transferOwnership",
					"outputs": [],
					"stateMutability": "nonpayable",
					"type": "function"
				},
				{
					"inputs": [
						{
							"internalType": "uint256",
							"name": "",
							"type": "uint256"
						},
						{
							"internalType": "address",
							"name": "",
							"type": "address"
						}
					],
					"name": "vestingSchedules",
					"outputs": [
						{
							"internalType": "uint256",
							"name": "saleId",
							"type": "uint256"
						},
						{
							"internalType": "uint256",
							"name": "totalTokens",
							"type": "uint256"
						},
						{
							"internalType": "uint256",
							"name": "claimedTokens",
							"type": "uint256"
						},
						{
							"internalType": "uint256",
							"name": "lockedTokens",
							"type": "uint256"
						},
						{
							"internalType": "uint256",
							"name": "startTime",
							"type": "uint256"
						},
						{
							"internalType": "uint256",
							"name": "lockUpEndTime",
							"type": "uint256"
						},
						{
							"internalType": "uint256",
							"name": "vestingEndTime",
							"type": "uint256"
						},
						{
							"internalType": "uint256",
							"name": "vestingInterval",
							"type": "uint256"
						}
					],
					"stateMutability": "view",
					"type": "function"
				}
			],
			"devdoc": {
				"errors": {
					"OwnableInvalidOwner(address)": [
						{
							"details": "The owner is not a valid owner account. (eg. `address(0)`)"
						}
					],
					"OwnableUnauthorizedAccount(address)": [
						{
							"details": "The caller account is not authorized to perform an operation."
						}
					]
				},
				"kind": "dev",
				"methods": {
					"owner()": {
						"details": "Returns the address of the current owner."
					},
					"renounceOwnership()": {
						"details": "Leaves the contract without owner. It will not be possible to call `onlyOwner` functions. Can only be called by the current owner. NOTE: Renouncing ownership will leave the contract without an owner, thereby disabling any functionality that is only available to the owner."
					},
					"transferOwnership(address)": {
						"details": "Transfers ownership of the contract to a new account (`newOwner`). Can only be called by the current owner."
					}
				},
				"version": 1
			},
			"evm": {
				"assembly": "    /* \"RVA/Vesting.sol\":201:5208  contract TokenVesting is Ownable {... */\n  mstore(0x40, 0x80)\n    /* \"RVA/Vesting.sol\":1074:1182  constructor(address _tokenAddress) Ownable(msg.sender) {... */\n  callvalue\n  dup1\n  iszero\n  tag_1\n  jumpi\n  0x00\n  dup1\n  revert\ntag_1:\n  pop\n  mload(0x40)\n  sub(codesize, bytecodeSize)\n  dup1\n  bytecodeSize\n  dup4\n  codecopy\n  dup2\n  add\n  0x40\n  dup2\n  swap1\n  mstore\n  tag_2\n  swap2\n  tag_3\n  jump\t// in\ntag_2:\n    /* \"RVA/Vesting.sol\":1117:1127  msg.sender */\n  caller\n  dup1\n    /* \"@openzeppelin/contracts/access/Ownable.sol\":1269:1364  if (initialOwner == address(0)) {... */\n  tag_7\n  jumpi\n    /* \"@openzeppelin/contracts/access/Ownable.sol\":1322:1353  OwnableInvalidOwner(address(0)) */\n  mload(0x40)\n  shl(0xe0, 0x1e4fbdf7)\n  dup2\n  mstore\n    /* \"@openzeppelin/contracts/access/Ownable.sol\":1350:1351  0 */\n  0x00\n    /* \"@openzeppelin/contracts/access/Ownable.sol\":1322:1353  OwnableInvalidOwner(address(0)) */\n  0x04\n  dup3\n  add\n    /* \"#utility.yul\":455:506   */\n  mstore\n    /* \"#utility.yul\":428:446   */\n  0x24\n  add\n    /* \"@openzeppelin/contracts/access/Ownable.sol\":1322:1353  OwnableInvalidOwner(address(0)) */\n  mload(0x40)\n  dup1\n  swap2\n  sub\n  swap1\n  revert\n    /* \"@openzeppelin/contracts/access/Ownable.sol\":1269:1364  if (initialOwner == address(0)) {... */\ntag_7:\n    /* \"@openzeppelin/contracts/access/Ownable.sol\":1373:1405  _transferOwnership(initialOwner) */\n  tag_10\n    /* \"@openzeppelin/contracts/access/Ownable.sol\":1392:1404  initialOwner */\n  dup2\n    /* \"@openzeppelin/contracts/access/Ownable.sol\":1373:1391  _transferOwnership */\n  tag_11\n    /* \"@openzeppelin/contracts/access/Ownable.sol\":1373:1405  _transferOwnership(initialOwner) */\n  jump\t// in\ntag_10:\n  pop\n    /* \"RVA/Vesting.sol\":1139:1147  icoToken */\n  0x01\n    /* \"RVA/Vesting.sol\":1139:1175  icoToken = ERC20Token(_tokenAddress) */\n  dup1\n  sload\n  not(sub(shl(0xa0, 0x01), 0x01))\n  and\n  sub(shl(0xa0, 0x01), 0x01)\n  swap3\n  swap1\n  swap3\n  and\n  swap2\n  swap1\n  swap2\n  or\n  swap1\n  sstore\n    /* \"RVA/Vesting.sol\":201:5208  contract TokenVesting is Ownable {... */\n  jump(tag_15)\n    /* \"@openzeppelin/contracts/access/Ownable.sol\":2912:3099  function _transferOwnership(address newOwner) internal virtual {... */\ntag_11:\n    /* \"@openzeppelin/contracts/access/Ownable.sol\":2985:3001  address oldOwner */\n  0x00\n    /* \"@openzeppelin/contracts/access/Ownable.sol\":3004:3010  _owner */\n  dup1\n  sload\n  sub(shl(0xa0, 0x01), 0x01)\n    /* \"@openzeppelin/contracts/access/Ownable.sol\":3020:3037  _owner = newOwner */\n  dup4\n  dup2\n  and\n  not(sub(shl(0xa0, 0x01), 0x01))\n  dup4\n  and\n  dup2\n  or\n  dup5\n  sstore\n    /* \"@openzeppelin/contracts/access/Ownable.sol\":3052:3092  OwnershipTransferred(oldOwner, newOwner) */\n  mload(0x40)\n    /* \"@openzeppelin/contracts/access/Ownable.sol\":3004:3010  _owner */\n  swap2\n  swap1\n  swap3\n  and\n  swap3\n  dup4\n  swap2\n    /* \"@openzeppelin/contracts/access/Ownable.sol\":3052:3092  OwnershipTransferred(oldOwner, newOwner) */\n  0x8be0079c531659141344cd1fd0a4f28419497f9722a3daafe3b4186f6b6457e0\n  swap2\n    /* \"@openzeppelin/contracts/access/Ownable.sol\":2985:3001  address oldOwner */\n  swap1\n    /* \"@openzeppelin/contracts/access/Ownable.sol\":3052:3092  OwnershipTransferred(oldOwner, newOwner) */\n  log3\n    /* \"@openzeppelin/contracts/access/Ownable.sol\":2975:3099  {... */\n  pop\n    /* \"@openzeppelin/contracts/access/Ownable.sol\":2912:3099  function _transferOwnership(address newOwner) internal virtual {... */\n  pop\n  jump\t// out\n    /* \"#utility.yul\":14:304   */\ntag_3:\n    /* \"#utility.yul\":84:90   */\n  0x00\n    /* \"#utility.yul\":137:139   */\n  0x20\n    /* \"#utility.yul\":125:134   */\n  dup3\n    /* \"#utility.yul\":116:123   */\n  dup5\n    /* \"#utility.yul\":112:135   */\n  sub\n    /* \"#utility.yul\":108:140   */\n  slt\n    /* \"#utility.yul\":105:157   */\n  iszero\n  tag_17\n  jumpi\n    /* \"#utility.yul\":153:154   */\n  0x00\n    /* \"#utility.yul\":150:151   */\n  dup1\n    /* \"#utility.yul\":143:155   */\n  revert\n    /* \"#utility.yul\":105:157   */\ntag_17:\n    /* \"#utility.yul\":179:195   */\n  dup2\n  mload\n  sub(shl(0xa0, 0x01), 0x01)\n    /* \"#utility.yul\":224:255   */\n  dup2\n  and\n    /* \"#utility.yul\":214:256   */\n  dup2\n  eq\n    /* \"#utility.yul\":204:274   */\n  tag_18\n  jumpi\n    /* \"#utility.yul\":270:271   */\n  0x00\n    /* \"#utility.yul\":267:268   */\n  dup1\n    /* \"#utility.yul\":260:272   */\n  revert\n    /* \"#utility.yul\":204:274   */\ntag_18:\n    /* \"#utility.yul\":293:298   */\n  swap4\n    /* \"#utility.yul\":14:304   */\n  swap3\n  pop\n  pop\n  pop\n  jump\t// out\n    /* \"#utility.yul\":309:512   */\ntag_15:\n    /* \"RVA/Vesting.sol\":201:5208  contract TokenVesting is Ownable {... */\n  dataSize(sub_0)\n  dup1\n  dataOffset(sub_0)\n  0x00\n  codecopy\n  0x00\n  return\nstop\n\nsub_0: assembly {\n        /* \"RVA/Vesting.sol\":201:5208  contract TokenVesting is Ownable {... */\n      mstore(0x40, 0x80)\n      callvalue\n      dup1\n      iszero\n      tag_1\n      jumpi\n      0x00\n      dup1\n      revert\n    tag_1:\n      pop\n      jumpi(tag_2, lt(calldatasize, 0x04))\n      shr(0xe0, calldataload(0x00))\n      dup1\n      0x87a0683c\n      gt\n      tag_12\n      jumpi\n      dup1\n      0x87a0683c\n      eq\n      tag_7\n      jumpi\n      dup1\n      0x8da5cb5b\n      eq\n      tag_8\n      jumpi\n      dup1\n      0xc66e4095\n      eq\n      tag_9\n      jumpi\n      dup1\n      0xe09678fd\n      eq\n      tag_10\n      jumpi\n      dup1\n      0xf2fde38b\n      eq\n      tag_11\n      jumpi\n      0x00\n      dup1\n      revert\n    tag_12:\n      dup1\n      0x260c2cec\n      eq\n      tag_3\n      jumpi\n      dup1\n      0x374048fc\n      eq\n      tag_4\n      jumpi\n      dup1\n      0x379607f5\n      eq\n      tag_5\n      jumpi\n      dup1\n      0x715018a6\n      eq\n      tag_6\n      jumpi\n    tag_2:\n      0x00\n      dup1\n      revert\n        /* \"RVA/Vesting.sol\":273:299  ERC20Token public icoToken */\n    tag_3:\n      sload(0x01)\n      tag_13\n      swap1\n      sub(shl(0xa0, 0x01), 0x01)\n      and\n      dup2\n      jump\n    tag_13:\n      mload(0x40)\n      sub(shl(0xa0, 0x01), 0x01)\n        /* \"#utility.yul\":197:229   */\n      swap1\n      swap2\n      and\n        /* \"#utility.yul\":179:230   */\n      dup2\n      mstore\n        /* \"#utility.yul\":167:169   */\n      0x20\n        /* \"#utility.yul\":152:170   */\n      add\n        /* \"RVA/Vesting.sol\":273:299  ERC20Token public icoToken */\n    tag_15:\n      mload(0x40)\n      dup1\n      swap2\n      sub\n      swap1\n      return\n        /* \"RVA/Vesting.sol\":1222:2568  function registerVesting(... */\n    tag_4:\n      tag_17\n      tag_18\n      calldatasize\n      0x04\n      tag_19\n      jump\t// in\n    tag_18:\n      tag_20\n      jump\t// in\n    tag_17:\n      stop\n        /* \"RVA/Vesting.sol\":3755:5030  function claim(uint256 saleId) external {... */\n    tag_5:\n      tag_17\n      tag_22\n      calldatasize\n      0x04\n      tag_23\n      jump\t// in\n    tag_22:\n      tag_24\n      jump\t// in\n        /* \"@openzeppelin/contracts/access/Ownable.sol\":2293:2394  function renounceOwnership() public virtual onlyOwner {... */\n    tag_6:\n      tag_17\n      tag_26\n      jump\t// in\n        /* \"RVA/Vesting.sol\":667:754  mapping(uint256 => mapping(address => VestingSchedule))... */\n    tag_7:\n      tag_27\n      tag_28\n      calldatasize\n      0x04\n      tag_29\n      jump\t// in\n    tag_28:\n      mstore(0x20, 0x03)\n      dup2\n      0x00\n      mstore\n      mstore(0x20, keccak256(0x00, 0x40))\n      dup1\n      0x00\n      mstore\n      keccak256(0x00, 0x40)\n      0x00\n      swap2\n      pop\n      swap2\n      pop\n      pop\n      dup1\n      0x00\n      add\n      sload\n      swap1\n      dup1\n      0x01\n      add\n      sload\n      swap1\n      dup1\n      0x02\n      add\n      sload\n      swap1\n      dup1\n      0x03\n      add\n      sload\n      swap1\n      dup1\n      0x04\n      add\n      sload\n      swap1\n      dup1\n      0x05\n      add\n      sload\n      swap1\n      dup1\n      0x06\n      add\n      sload\n      swap1\n      dup1\n      0x07\n      add\n      sload\n      swap1\n      pop\n      dup9\n      jump\n    tag_27:\n      0x40\n      dup1\n      mload\n        /* \"#utility.yul\":2449:2474   */\n      swap9\n      dup10\n      mstore\n        /* \"#utility.yul\":2505:2507   */\n      0x20\n        /* \"#utility.yul\":2490:2508   */\n      dup10\n      add\n        /* \"#utility.yul\":2483:2517   */\n      swap8\n      swap1\n      swap8\n      mstore\n        /* \"#utility.yul\":2533:2551   */\n      swap6\n      dup8\n      add\n        /* \"#utility.yul\":2526:2560   */\n      swap5\n      swap1\n      swap5\n      mstore\n        /* \"#utility.yul\":2591:2593   */\n      0x60\n        /* \"#utility.yul\":2576:2594   */\n      dup7\n      add\n        /* \"#utility.yul\":2569:2603   */\n      swap3\n      swap1\n      swap3\n      mstore\n        /* \"#utility.yul\":2634:2637   */\n      0x80\n        /* \"#utility.yul\":2619:2638   */\n      dup6\n      add\n        /* \"#utility.yul\":2612:2647   */\n      mstore\n        /* \"#utility.yul\":2678:2681   */\n      0xa0\n        /* \"#utility.yul\":2663:2682   */\n      dup5\n      add\n        /* \"#utility.yul\":2656:2691   */\n      mstore\n        /* \"#utility.yul\":2722:2725   */\n      0xc0\n        /* \"#utility.yul\":2707:2726   */\n      dup4\n      add\n        /* \"#utility.yul\":2700:2735   */\n      mstore\n        /* \"#utility.yul\":2766:2769   */\n      0xe0\n        /* \"#utility.yul\":2751:2770   */\n      dup3\n      add\n        /* \"#utility.yul\":2744:2779   */\n      mstore\n        /* \"#utility.yul\":2436:2439   */\n      0x0100\n        /* \"#utility.yul\":2421:2440   */\n      add\n        /* \"RVA/Vesting.sol\":667:754  mapping(uint256 => mapping(address => VestingSchedule))... */\n      tag_15\n        /* \"#utility.yul\":2106:2785   */\n      jump\n        /* \"@openzeppelin/contracts/access/Ownable.sol\":1638:1723  function owner() public view virtual returns (address) {... */\n    tag_8:\n        /* \"@openzeppelin/contracts/access/Ownable.sol\":1684:1691  address */\n      0x00\n        /* \"@openzeppelin/contracts/access/Ownable.sol\":1710:1716  _owner */\n      sload\n      sub(shl(0xa0, 0x01), 0x01)\n      and\n        /* \"@openzeppelin/contracts/access/Ownable.sol\":1638:1723  function owner() public view virtual returns (address) {... */\n      jump(tag_13)\n        /* \"RVA/Vesting.sol\":305:331  address public icoContract */\n    tag_9:\n      sload(0x02)\n      tag_13\n      swap1\n      sub(shl(0xa0, 0x01), 0x01)\n      and\n      dup2\n      jump\n        /* \"RVA/Vesting.sol\":5037:5206  function setIcoContract(address _icoContract) external onlyOwner {... */\n    tag_10:\n      tag_17\n      tag_41\n      calldatasize\n      0x04\n      tag_42\n      jump\t// in\n    tag_41:\n      tag_43\n      jump\t// in\n        /* \"@openzeppelin/contracts/access/Ownable.sol\":2543:2758  function transferOwnership(address newOwner) public virtual onlyOwner {... */\n    tag_11:\n      tag_17\n      tag_45\n      calldatasize\n      0x04\n      tag_42\n      jump\t// in\n    tag_45:\n      tag_46\n      jump\t// in\n        /* \"RVA/Vesting.sol\":1222:2568  function registerVesting(... */\n    tag_20:\n        /* \"RVA/Vesting.sol\":1577:1588  icoContract */\n      and(sub(shl(0xa0, 0x01), 0x01), sload(0x02))\n        /* \"RVA/Vesting.sol\":1563:1573  msg.sender */\n      caller\n        /* \"RVA/Vesting.sol\":1563:1588  msg.sender == icoContract */\n      eq\n        /* \"RVA/Vesting.sol\":1542:1652  require(... */\n      tag_48\n      jumpi\n      mload(0x40)\n      shl(0xe5, 0x461bcd)\n      dup2\n      mstore\n        /* \"#utility.yul\":3391:3393   */\n      0x20\n        /* \"RVA/Vesting.sol\":1542:1652  require(... */\n      0x04\n      dup3\n      add\n        /* \"#utility.yul\":3373:3394   */\n      mstore\n        /* \"#utility.yul\":3430:3432   */\n      0x26\n        /* \"#utility.yul\":3410:3428   */\n      0x24\n      dup3\n      add\n        /* \"#utility.yul\":3403:3433   */\n      mstore\n        /* \"#utility.yul\":3469:3503   */\n      0x4f6e6c792049434f20636f6e74726163742063616e2072656769737465722076\n        /* \"#utility.yul\":3449:3467   */\n      0x44\n      dup3\n      add\n        /* \"#utility.yul\":3442:3504   */\n      mstore\n      shl(0xd0, 0x657374696e67)\n        /* \"#utility.yul\":3520:3538   */\n      0x64\n      dup3\n      add\n        /* \"#utility.yul\":3513:3549   */\n      mstore\n        /* \"#utility.yul\":3566:3585   */\n      0x84\n      add\n        /* \"RVA/Vesting.sol\":1542:1652  require(... */\n    tag_49:\n      mload(0x40)\n      dup1\n      swap2\n      sub\n      swap1\n      revert\n    tag_48:\n      sub(shl(0xa0, 0x01), 0x01)\n        /* \"RVA/Vesting.sol\":1670:1693  _investor != address(0) */\n      dup10\n      and\n        /* \"RVA/Vesting.sol\":1662:1719  require(_investor != address(0), \"Null Investor address\") */\n      tag_51\n      jumpi\n      mload(0x40)\n      shl(0xe5, 0x461bcd)\n      dup2\n      mstore\n        /* \"#utility.yul\":3798:3800   */\n      0x20\n        /* \"RVA/Vesting.sol\":1662:1719  require(_investor != address(0), \"Null Investor address\") */\n      0x04\n      dup3\n      add\n        /* \"#utility.yul\":3780:3801   */\n      mstore\n        /* \"#utility.yul\":3837:3839   */\n      0x15\n        /* \"#utility.yul\":3817:3835   */\n      0x24\n      dup3\n      add\n        /* \"#utility.yul\":3810:3840   */\n      mstore\n      shl(0x58, 0x4e756c6c20496e766573746f722061646472657373)\n        /* \"#utility.yul\":3856:3874   */\n      0x44\n      dup3\n      add\n        /* \"#utility.yul\":3849:3900   */\n      mstore\n        /* \"#utility.yul\":3917:3935   */\n      0x64\n      add\n        /* \"RVA/Vesting.sol\":1662:1719  require(_investor != address(0), \"Null Investor address\") */\n      tag_49\n        /* \"#utility.yul\":3596:3941   */\n      jump\n        /* \"RVA/Vesting.sol\":1662:1719  require(_investor != address(0), \"Null Investor address\") */\n    tag_51:\n        /* \"RVA/Vesting.sol\":1766:1767  0 */\n      0x00\n        /* \"RVA/Vesting.sol\":1750:1763  _lockUpPeriod */\n      dup4\n        /* \"RVA/Vesting.sol\":1750:1767  _lockUpPeriod > 0 */\n      gt\n        /* \"RVA/Vesting.sol\":1750:1789  _lockUpPeriod > 0 && _vestingPeriod > 0 */\n      dup1\n      iszero\n      tag_54\n      jumpi\n      pop\n        /* \"RVA/Vesting.sol\":1788:1789  0 */\n      0x00\n        /* \"RVA/Vesting.sol\":1771:1785  _vestingPeriod */\n      dup3\n        /* \"RVA/Vesting.sol\":1771:1789  _vestingPeriod > 0 */\n      gt\n        /* \"RVA/Vesting.sol\":1750:1789  _lockUpPeriod > 0 && _vestingPeriod > 0 */\n    tag_54:\n        /* \"RVA/Vesting.sol\":1750:1813  _lockUpPeriod > 0 && _vestingPeriod > 0 && _vestingInterval > 0 */\n      dup1\n      iszero\n      tag_55\n      jumpi\n      pop\n        /* \"RVA/Vesting.sol\":1812:1813  0 */\n      0x00\n        /* \"RVA/Vesting.sol\":1793:1809  _vestingInterval */\n      dup2\n        /* \"RVA/Vesting.sol\":1793:1813  _vestingInterval > 0 */\n      gt\n        /* \"RVA/Vesting.sol\":1750:1813  _lockUpPeriod > 0 && _vestingPeriod > 0 && _vestingInterval > 0 */\n    tag_55:\n        /* \"RVA/Vesting.sol\":1750:1832  _lockUpPeriod > 0 && _vestingPeriod > 0 && _vestingInterval > 0 &&_tokenAmount > 0 */\n      dup1\n      iszero\n      tag_56\n      jumpi\n      pop\n        /* \"RVA/Vesting.sol\":1831:1832  0 */\n      0x00\n        /* \"RVA/Vesting.sol\":1816:1828  _tokenAmount */\n      dup8\n        /* \"RVA/Vesting.sol\":1816:1832  _tokenAmount > 0 */\n      gt\n        /* \"RVA/Vesting.sol\":1750:1832  _lockUpPeriod > 0 && _vestingPeriod > 0 && _vestingInterval > 0 &&_tokenAmount > 0 */\n    tag_56:\n        /* \"RVA/Vesting.sol\":1729:1877  require(... */\n      tag_57\n      jumpi\n      mload(0x40)\n      shl(0xe5, 0x461bcd)\n      dup2\n      mstore\n        /* \"#utility.yul\":4148:4150   */\n      0x20\n        /* \"RVA/Vesting.sol\":1729:1877  require(... */\n      0x04\n      dup3\n      add\n        /* \"#utility.yul\":4130:4151   */\n      mstore\n        /* \"#utility.yul\":4187:4189   */\n      0x13\n        /* \"#utility.yul\":4167:4185   */\n      0x24\n      dup3\n      add\n        /* \"#utility.yul\":4160:4190   */\n      mstore\n      shl(0x6a, 0x125b9d985b1a590819185d18481c185cdcd959)\n        /* \"#utility.yul\":4206:4224   */\n      0x44\n      dup3\n      add\n        /* \"#utility.yul\":4199:4248   */\n      mstore\n        /* \"#utility.yul\":4265:4283   */\n      0x64\n      add\n        /* \"RVA/Vesting.sol\":1729:1877  require(... */\n      tag_49\n        /* \"#utility.yul\":3946:4289   */\n      jump\n        /* \"RVA/Vesting.sol\":1729:1877  require(... */\n    tag_57:\n        /* \"RVA/Vesting.sol\":1926:2344  VestingSchedule({... */\n      mload(0x40)\n      dup1\n      0x0100\n      add\n      0x40\n      mstore\n      dup1\n        /* \"RVA/Vesting.sol\":1964:1971  _saleId */\n      dup10\n        /* \"RVA/Vesting.sol\":1926:2344  VestingSchedule({... */\n      dup2\n      mstore\n      0x20\n      add\n        /* \"RVA/Vesting.sol\":1998:2010  _tokenAmount */\n      dup9\n        /* \"RVA/Vesting.sol\":1926:2344  VestingSchedule({... */\n      dup2\n      mstore\n      0x20\n      add\n        /* \"RVA/Vesting.sol\":2039:2053  _claimedTokens */\n      dup8\n        /* \"RVA/Vesting.sol\":1926:2344  VestingSchedule({... */\n      dup2\n      mstore\n      0x20\n      add\n        /* \"RVA/Vesting.sol\":2081:2094  _lockedTokens */\n      dup7\n        /* \"RVA/Vesting.sol\":1926:2344  VestingSchedule({... */\n      dup2\n      mstore\n      0x20\n      add\n        /* \"RVA/Vesting.sol\":2119:2129  _startTime */\n      dup6\n        /* \"RVA/Vesting.sol\":1926:2344  VestingSchedule({... */\n      dup2\n      mstore\n      0x20\n      add\n        /* \"RVA/Vesting.sol\":2171:2184  _lockUpPeriod */\n      dup5\n        /* \"RVA/Vesting.sol\":2158:2168  _startTime */\n      dup7\n        /* \"RVA/Vesting.sol\":2158:2184  _startTime + _lockUpPeriod */\n      tag_60\n      swap2\n      swap1\n      tag_61\n      jump\t// in\n    tag_60:\n        /* \"RVA/Vesting.sol\":1926:2344  VestingSchedule({... */\n      dup2\n      mstore\n      0x20\n      add\n        /* \"RVA/Vesting.sol\":2243:2257  _vestingPeriod */\n      dup4\n        /* \"RVA/Vesting.sol\":2214:2240  _startTime + _lockUpPeriod */\n      tag_62\n        /* \"RVA/Vesting.sol\":2227:2240  _lockUpPeriod */\n      dup7\n        /* \"RVA/Vesting.sol\":2214:2224  _startTime */\n      dup9\n        /* \"RVA/Vesting.sol\":2214:2240  _startTime + _lockUpPeriod */\n      tag_61\n      jump\t// in\n    tag_62:\n        /* \"RVA/Vesting.sol\":2214:2257  _startTime + _lockUpPeriod + _vestingPeriod */\n      tag_63\n      swap2\n      swap1\n      tag_61\n      jump\t// in\n    tag_63:\n        /* \"RVA/Vesting.sol\":1926:2344  VestingSchedule({... */\n      dup2\n      mstore\n      0x20\n      add\n        /* \"RVA/Vesting.sol\":2317:2333  _vestingInterval */\n      dup3\n        /* \"RVA/Vesting.sol\":2288:2314  _startTime + _lockUpPeriod */\n      tag_64\n        /* \"RVA/Vesting.sol\":2301:2314  _lockUpPeriod */\n      dup7\n        /* \"RVA/Vesting.sol\":2288:2298  _startTime */\n      dup9\n        /* \"RVA/Vesting.sol\":2288:2314  _startTime + _lockUpPeriod */\n      tag_61\n      jump\t// in\n    tag_64:\n        /* \"RVA/Vesting.sol\":2288:2333  _startTime + _lockUpPeriod + _vestingInterval */\n      tag_65\n      swap2\n      swap1\n      tag_61\n      jump\t// in\n    tag_65:\n        /* \"RVA/Vesting.sol\":1926:2344  VestingSchedule({... */\n      swap1\n      mstore\n        /* \"RVA/Vesting.sol\":1887:1912  vestingSchedules[_saleId] */\n      0x00\n      dup10\n      dup2\n      mstore\n        /* \"RVA/Vesting.sol\":1887:1903  vestingSchedules */\n      0x03\n        /* \"RVA/Vesting.sol\":1887:1912  vestingSchedules[_saleId] */\n      0x20\n      dup2\n      dup2\n      mstore\n      0x40\n      dup1\n      dup5\n      keccak256\n      sub(shl(0xa0, 0x01), 0x01)\n        /* \"RVA/Vesting.sol\":1887:1923  vestingSchedules[_saleId][_investor] */\n      dup16\n      and\n      dup1\n      dup7\n      mstore\n      swap1\n      dup4\n      mstore\n      swap4\n      dup2\n      swap1\n      keccak256\n        /* \"RVA/Vesting.sol\":1887:2344  vestingSchedules[_saleId][_investor] = VestingSchedule({... */\n      dup6\n      mload\n      dup2\n      sstore\n      swap2\n      dup6\n      add\n      mload\n      0x01\n      dup4\n      add\n      sstore\n      dup5\n      add\n      mload\n      0x02\n      dup3\n      add\n      sstore\n      0x60\n      dup5\n      add\n      mload\n      swap2\n      dup2\n      add\n      swap2\n      swap1\n      swap2\n      sstore\n      0x80\n      dup4\n      add\n      mload\n      0x04\n      dup3\n      add\n      sstore\n      0xa0\n      dup4\n      add\n      mload\n      0x05\n      dup3\n      add\n      sstore\n      0xc0\n      dup4\n      add\n      mload\n      0x06\n      dup3\n      add\n      sstore\n      0xe0\n      swap1\n      swap3\n      add\n      mload\n      0x07\n      swap1\n      swap3\n      add\n      swap2\n      swap1\n      swap2\n      sstore\n        /* \"RVA/Vesting.sol\":2359:2561  VestingAllocated(... */\n      0xc29e1b2ff8ecfe1d0d33530f78ee6bd83616ee585b0dfb881b69e357fbfd749a\n        /* \"RVA/Vesting.sol\":2412:2424  _tokenAmount */\n      dup9\n        /* \"RVA/Vesting.sol\":2438:2464  _startTime + _lockUpPeriod */\n      tag_66\n        /* \"RVA/Vesting.sol\":2451:2464  _lockUpPeriod */\n      dup7\n        /* \"RVA/Vesting.sol\":2438:2448  _startTime */\n      dup9\n        /* \"RVA/Vesting.sol\":2438:2464  _startTime + _lockUpPeriod */\n      tag_61\n      jump\t// in\n    tag_66:\n        /* \"RVA/Vesting.sol\":2507:2521  _vestingPeriod */\n      dup6\n        /* \"RVA/Vesting.sol\":2478:2504  _startTime + _lockUpPeriod */\n      tag_67\n        /* \"RVA/Vesting.sol\":2491:2504  _lockUpPeriod */\n      dup9\n        /* \"RVA/Vesting.sol\":2478:2488  _startTime */\n      dup11\n        /* \"RVA/Vesting.sol\":2478:2504  _startTime + _lockUpPeriod */\n      tag_61\n      jump\t// in\n    tag_67:\n        /* \"RVA/Vesting.sol\":2478:2521  _startTime + _lockUpPeriod + _vestingPeriod */\n      tag_68\n      swap2\n      swap1\n      tag_61\n      jump\t// in\n    tag_68:\n        /* \"RVA/Vesting.sol\":2359:2561  VestingAllocated(... */\n      0x40\n      dup1\n      mload\n        /* \"#utility.yul\":4787:4812   */\n      swap4\n      dup5\n      mstore\n        /* \"#utility.yul\":4843:4845   */\n      0x20\n        /* \"#utility.yul\":4828:4846   */\n      dup5\n      add\n        /* \"#utility.yul\":4821:4855   */\n      swap3\n      swap1\n      swap3\n      mstore\n        /* \"#utility.yul\":4871:4889   */\n      swap1\n      dup3\n      add\n        /* \"#utility.yul\":4864:4898   */\n      mstore\n        /* \"#utility.yul\":4929:4931   */\n      0x60\n        /* \"#utility.yul\":4914:4932   */\n      dup2\n      add\n        /* \"#utility.yul\":4907:4941   */\n      dup5\n      swap1\n      mstore\n        /* \"#utility.yul\":4774:4777   */\n      0x80\n        /* \"#utility.yul\":4759:4778   */\n      add\n        /* \"RVA/Vesting.sol\":2359:2561  VestingAllocated(... */\n    tag_69:\n      mload(0x40)\n      dup1\n      swap2\n      sub\n      swap1\n      log2\n        /* \"RVA/Vesting.sol\":1222:2568  function registerVesting(... */\n      pop\n      pop\n      pop\n      pop\n      pop\n      pop\n      pop\n      pop\n      pop\n      jump\t// out\n        /* \"RVA/Vesting.sol\":3755:5030  function claim(uint256 saleId) external {... */\n    tag_24:\n        /* \"RVA/Vesting.sol\":3805:3837  VestingSchedule storage schedule */\n      0x00\n        /* \"RVA/Vesting.sol\":3840:3864  vestingSchedules[saleId] */\n      dup2\n      dup2\n      mstore\n        /* \"RVA/Vesting.sol\":3840:3856  vestingSchedules */\n      0x03\n        /* \"RVA/Vesting.sol\":3840:3864  vestingSchedules[saleId] */\n      0x20\n      swap1\n      dup2\n      mstore\n      0x40\n      dup1\n      dup4\n      keccak256\n        /* \"RVA/Vesting.sol\":3865:3875  msg.sender */\n      caller\n        /* \"RVA/Vesting.sol\":3840:3876  vestingSchedules[saleId][msg.sender] */\n      dup5\n      mstore\n      swap1\n      swap2\n      mstore\n      swap1\n      keccak256\n        /* \"RVA/Vesting.sol\":3894:3916  schedule.lockUpEndTime */\n      0x05\n      dup2\n      add\n      sload\n        /* \"RVA/Vesting.sol\":3886:3950  require(schedule.lockUpEndTime > 0, \"No vesting schedule found\") */\n      tag_72\n      jumpi\n      mload(0x40)\n      shl(0xe5, 0x461bcd)\n      dup2\n      mstore\n        /* \"#utility.yul\":5154:5156   */\n      0x20\n        /* \"RVA/Vesting.sol\":3886:3950  require(schedule.lockUpEndTime > 0, \"No vesting schedule found\") */\n      0x04\n      dup3\n      add\n        /* \"#utility.yul\":5136:5157   */\n      mstore\n        /* \"#utility.yul\":5193:5195   */\n      0x19\n        /* \"#utility.yul\":5173:5191   */\n      0x24\n      dup3\n      add\n        /* \"#utility.yul\":5166:5196   */\n      mstore\n        /* \"#utility.yul\":5232:5259   */\n      0x4e6f2076657374696e67207363686564756c6520666f756e6400000000000000\n        /* \"#utility.yul\":5212:5230   */\n      0x44\n      dup3\n      add\n        /* \"#utility.yul\":5205:5260   */\n      mstore\n        /* \"#utility.yul\":5277:5295   */\n      0x64\n      add\n        /* \"RVA/Vesting.sol\":3886:3950  require(schedule.lockUpEndTime > 0, \"No vesting schedule found\") */\n      tag_49\n        /* \"#utility.yul\":4952:5301   */\n      jump\n        /* \"RVA/Vesting.sol\":3886:3950  require(schedule.lockUpEndTime > 0, \"No vesting schedule found\") */\n    tag_72:\n        /* \"RVA/Vesting.sol\":4044:4066  schedule.lockUpEndTime */\n      0x05\n      dup2\n      add\n      sload\n        /* \"RVA/Vesting.sol\":3983:3998  block.timestamp */\n      timestamp\n      swap1\n        /* \"RVA/Vesting.sol\":4029:4066  currentTime >= schedule.lockUpEndTime */\n      dup2\n      lt\n      iszero\n        /* \"RVA/Vesting.sol\":4008:4115  require(... */\n      tag_75\n      jumpi\n      mload(0x40)\n      shl(0xe5, 0x461bcd)\n      dup2\n      mstore\n        /* \"#utility.yul\":5508:5510   */\n      0x20\n        /* \"RVA/Vesting.sol\":4008:4115  require(... */\n      0x04\n      dup3\n      add\n        /* \"#utility.yul\":5490:5511   */\n      mstore\n        /* \"#utility.yul\":5547:5549   */\n      0x17\n        /* \"#utility.yul\":5527:5545   */\n      0x24\n      dup3\n      add\n        /* \"#utility.yul\":5520:5550   */\n      mstore\n        /* \"#utility.yul\":5586:5611   */\n      0x4c6f636b757020706572696f64206e6f7420656e646564000000000000000000\n        /* \"#utility.yul\":5566:5584   */\n      0x44\n      dup3\n      add\n        /* \"#utility.yul\":5559:5612   */\n      mstore\n        /* \"#utility.yul\":5629:5647   */\n      0x64\n      add\n        /* \"RVA/Vesting.sol\":4008:4115  require(... */\n      tag_49\n        /* \"#utility.yul\":5306:5653   */\n      jump\n        /* \"RVA/Vesting.sol\":4008:4115  require(... */\n    tag_75:\n        /* \"RVA/Vesting.sol\":4201:4220  uint256 elapsedTime */\n      0x00\n        /* \"RVA/Vesting.sol\":4237:4245  schedule */\n      dup3\n        /* \"RVA/Vesting.sol\":4237:4259  schedule.lockUpEndTime */\n      0x05\n      add\n      sload\n        /* \"RVA/Vesting.sol\":4223:4234  currentTime */\n      dup3\n        /* \"RVA/Vesting.sol\":4223:4259  currentTime - schedule.lockUpEndTime */\n      tag_78\n      swap2\n      swap1\n      tag_79\n      jump\t// in\n    tag_78:\n        /* \"RVA/Vesting.sol\":4201:4259  uint256 elapsedTime = currentTime - schedule.lockUpEndTime */\n      swap1\n      pop\n        /* \"RVA/Vesting.sol\":4269:4291  uint256 totalIntervals */\n      0x00\n        /* \"RVA/Vesting.sol\":4346:4354  schedule */\n      dup4\n        /* \"RVA/Vesting.sol\":4346:4370  schedule.vestingInterval */\n      0x07\n      add\n      sload\n        /* \"RVA/Vesting.sol\":4320:4328  schedule */\n      dup5\n        /* \"RVA/Vesting.sol\":4320:4342  schedule.lockUpEndTime */\n      0x05\n      add\n      sload\n        /* \"RVA/Vesting.sol\":4295:4303  schedule */\n      dup6\n        /* \"RVA/Vesting.sol\":4295:4318  schedule.vestingEndTime */\n      0x06\n      add\n      sload\n        /* \"RVA/Vesting.sol\":4295:4342  schedule.vestingEndTime -schedule.lockUpEndTime */\n      tag_80\n      swap2\n      swap1\n      tag_79\n      jump\t// in\n    tag_80:\n        /* \"RVA/Vesting.sol\":4294:4370  (schedule.vestingEndTime -schedule.lockUpEndTime) / schedule.vestingInterval */\n      tag_81\n      swap2\n      swap1\n      tag_82\n      jump\t// in\n    tag_81:\n        /* \"RVA/Vesting.sol\":4269:4370  uint256 totalIntervals = (schedule.vestingEndTime -schedule.lockUpEndTime) / schedule.vestingInterval */\n      swap1\n      pop\n        /* \"RVA/Vesting.sol\":4380:4405  uint256 tokensPerInterval */\n      0x00\n        /* \"RVA/Vesting.sol\":4432:4446  totalIntervals */\n      dup2\n        /* \"RVA/Vesting.sol\":4408:4416  schedule */\n      dup6\n        /* \"RVA/Vesting.sol\":4408:4429  schedule.lockedTokens */\n      0x03\n      add\n      sload\n        /* \"RVA/Vesting.sol\":4408:4446  schedule.lockedTokens / totalIntervals */\n      tag_83\n      swap2\n      swap1\n      tag_82\n      jump\t// in\n    tag_83:\n        /* \"RVA/Vesting.sol\":4380:4446  uint256 tokensPerInterval = schedule.lockedTokens / totalIntervals */\n      swap1\n      pop\n        /* \"RVA/Vesting.sol\":4456:4480  uint256 intervalsElapsed */\n      0x00\n        /* \"RVA/Vesting.sol\":4497:4505  schedule */\n      dup6\n        /* \"RVA/Vesting.sol\":4497:4521  schedule.vestingInterval */\n      0x07\n      add\n      sload\n        /* \"RVA/Vesting.sol\":4483:4494  elapsedTime */\n      dup5\n        /* \"RVA/Vesting.sol\":4483:4521  elapsedTime / schedule.vestingInterval */\n      tag_84\n      swap2\n      swap1\n      tag_82\n      jump\t// in\n    tag_84:\n        /* \"RVA/Vesting.sol\":4456:4521  uint256 intervalsElapsed = elapsedTime / schedule.vestingInterval */\n      swap1\n      pop\n        /* \"RVA/Vesting.sol\":4531:4553  uint256 totalClaimable */\n      0x00\n        /* \"RVA/Vesting.sol\":4556:4592  intervalsElapsed * tokensPerInterval */\n      tag_85\n        /* \"RVA/Vesting.sol\":4575:4592  tokensPerInterval */\n      dup4\n        /* \"RVA/Vesting.sol\":4456:4521  uint256 intervalsElapsed = elapsedTime / schedule.vestingInterval */\n      dup4\n        /* \"RVA/Vesting.sol\":4556:4592  intervalsElapsed * tokensPerInterval */\n      tag_86\n      jump\t// in\n    tag_85:\n        /* \"RVA/Vesting.sol\":4531:4592  uint256 totalClaimable = intervalsElapsed * tokensPerInterval */\n      swap1\n      pop\n        /* \"RVA/Vesting.sol\":4640:4648  schedule */\n      dup7\n        /* \"RVA/Vesting.sol\":4640:4662  schedule.claimedTokens */\n      0x02\n      add\n      sload\n        /* \"RVA/Vesting.sol\":4623:4637  totalClaimable */\n      dup2\n        /* \"RVA/Vesting.sol\":4623:4662  totalClaimable > schedule.claimedTokens */\n      gt\n        /* \"RVA/Vesting.sol\":4602:4716  require(... */\n      tag_87\n      jumpi\n      mload(0x40)\n      shl(0xe5, 0x461bcd)\n      dup2\n      mstore\n        /* \"#utility.yul\":6388:6390   */\n      0x20\n        /* \"RVA/Vesting.sol\":4602:4716  require(... */\n      0x04\n      dup3\n      add\n        /* \"#utility.yul\":6370:6391   */\n      mstore\n        /* \"#utility.yul\":6427:6429   */\n      0x1c\n        /* \"#utility.yul\":6407:6425   */\n      0x24\n      dup3\n      add\n        /* \"#utility.yul\":6400:6430   */\n      mstore\n        /* \"#utility.yul\":6466:6496   */\n      0x4e6f20746f6b656e7320617661696c61626c6520746f20636c61696d00000000\n        /* \"#utility.yul\":6446:6464   */\n      0x44\n      dup3\n      add\n        /* \"#utility.yul\":6439:6497   */\n      mstore\n        /* \"#utility.yul\":6514:6532   */\n      0x64\n      add\n        /* \"RVA/Vesting.sol\":4602:4716  require(... */\n      tag_49\n        /* \"#utility.yul\":6186:6538   */\n      jump\n        /* \"RVA/Vesting.sol\":4602:4716  require(... */\n    tag_87:\n        /* \"RVA/Vesting.sol\":4726:4747  uint256 tokensToClaim */\n      0x00\n        /* \"RVA/Vesting.sol\":4767:4775  schedule */\n      dup8\n        /* \"RVA/Vesting.sol\":4767:4789  schedule.claimedTokens */\n      0x02\n      add\n      sload\n        /* \"RVA/Vesting.sol\":4750:4764  totalClaimable */\n      dup3\n        /* \"RVA/Vesting.sol\":4750:4789  totalClaimable - schedule.claimedTokens */\n      tag_90\n      swap2\n      swap1\n      tag_79\n      jump\t// in\n    tag_90:\n        /* \"RVA/Vesting.sol\":4726:4789  uint256 tokensToClaim = totalClaimable - schedule.claimedTokens */\n      swap1\n      pop\n        /* \"RVA/Vesting.sol\":4825:4838  tokensToClaim */\n      dup1\n        /* \"RVA/Vesting.sol\":4799:4807  schedule */\n      dup9\n        /* \"RVA/Vesting.sol\":4799:4821  schedule.claimedTokens */\n      0x02\n      add\n      0x00\n        /* \"RVA/Vesting.sol\":4799:4838  schedule.claimedTokens += tokensToClaim */\n      dup3\n      dup3\n      sload\n      tag_91\n      swap2\n      swap1\n      tag_61\n      jump\t// in\n    tag_91:\n      swap1\n      swap2\n      sstore\n      pop\n      pop\n        /* \"RVA/Vesting.sol\":4869:4877  icoToken */\n      sload(0x01)\n        /* \"RVA/Vesting.sol\":4869:4913  icoToken.transfer(msg.sender, tokensToClaim) */\n      mload(0x40)\n      shl(0xe0, 0xa9059cbb)\n      dup2\n      mstore\n        /* \"RVA/Vesting.sol\":4887:4897  msg.sender */\n      caller\n        /* \"RVA/Vesting.sol\":4869:4913  icoToken.transfer(msg.sender, tokensToClaim) */\n      0x04\n      dup3\n      add\n        /* \"#utility.yul\":6717:6768   */\n      mstore\n        /* \"#utility.yul\":6784:6802   */\n      0x24\n      dup2\n      add\n        /* \"#utility.yul\":6777:6811   */\n      dup4\n      swap1\n      mstore\n      sub(shl(0xa0, 0x01), 0x01)\n        /* \"RVA/Vesting.sol\":4869:4877  icoToken */\n      swap1\n      swap2\n      and\n      swap1\n        /* \"RVA/Vesting.sol\":4869:4886  icoToken.transfer */\n      0xa9059cbb\n      swap1\n        /* \"#utility.yul\":6690:6708   */\n      0x44\n      add\n        /* \"RVA/Vesting.sol\":4869:4913  icoToken.transfer(msg.sender, tokensToClaim) */\n      0x20\n      mload(0x40)\n      dup1\n      dup4\n      sub\n      dup2\n      0x00\n      dup8\n      gas\n      call\n      iszero\n      dup1\n      iszero\n      tag_95\n      jumpi\n      returndatasize\n      0x00\n      dup1\n      returndatacopy\n      revert(0x00, returndatasize)\n    tag_95:\n      pop\n      pop\n      pop\n      pop\n      mload(0x40)\n      returndatasize\n      not(0x1f)\n      0x1f\n      dup3\n      add\n      and\n      dup3\n      add\n      dup1\n      0x40\n      mstore\n      pop\n      dup2\n      add\n      swap1\n      tag_96\n      swap2\n      swap1\n      tag_97\n      jump\t// in\n    tag_96:\n        /* \"RVA/Vesting.sol\":4848:4960  require(... */\n      tag_98\n      jumpi\n      mload(0x40)\n      shl(0xe5, 0x461bcd)\n      dup2\n      mstore\n        /* \"#utility.yul\":7306:7308   */\n      0x20\n        /* \"RVA/Vesting.sol\":4848:4960  require(... */\n      0x04\n      dup3\n      add\n        /* \"#utility.yul\":7288:7309   */\n      mstore\n        /* \"#utility.yul\":7345:7347   */\n      0x15\n        /* \"#utility.yul\":7325:7343   */\n      0x24\n      dup3\n      add\n        /* \"#utility.yul\":7318:7348   */\n      mstore\n      shl(0x5a, 0x151bdad95b881d1c985b9cd9995c8819985a5b1959)\n        /* \"#utility.yul\":7364:7382   */\n      0x44\n      dup3\n      add\n        /* \"#utility.yul\":7357:7408   */\n      mstore\n        /* \"#utility.yul\":7425:7443   */\n      0x64\n      add\n        /* \"RVA/Vesting.sol\":4848:4960  require(... */\n      tag_49\n        /* \"#utility.yul\":7104:7449   */\n      jump\n        /* \"RVA/Vesting.sol\":4848:4960  require(... */\n    tag_98:\n        /* \"RVA/Vesting.sol\":4975:5023  TokensClaimed(msg.sender, saleId, tokensToClaim) */\n      0x40\n      dup1\n      mload\n        /* \"#utility.yul\":7628:7653   */\n      dup11\n      dup2\n      mstore\n        /* \"#utility.yul\":7684:7686   */\n      0x20\n        /* \"#utility.yul\":7669:7687   */\n      dup2\n      add\n        /* \"#utility.yul\":7662:7696   */\n      dup4\n      swap1\n      mstore\n        /* \"RVA/Vesting.sol\":4989:4999  msg.sender */\n      caller\n      swap2\n        /* \"RVA/Vesting.sol\":4975:5023  TokensClaimed(msg.sender, saleId, tokensToClaim) */\n      0x9923b4306c6c030f2bdfbf156517d5983b87e15b96176da122cd4f2effa4ba7b\n      swap2\n        /* \"#utility.yul\":7601:7619   */\n      add\n        /* \"RVA/Vesting.sol\":4975:5023  TokensClaimed(msg.sender, saleId, tokensToClaim) */\n      tag_69\n        /* \"#utility.yul\":7454:7702   */\n      jump\n        /* \"@openzeppelin/contracts/access/Ownable.sol\":2293:2394  function renounceOwnership() public virtual onlyOwner {... */\n    tag_26:\n        /* \"@openzeppelin/contracts/access/Ownable.sol\":1531:1544  _checkOwner() */\n      tag_104\n        /* \"@openzeppelin/contracts/access/Ownable.sol\":1531:1542  _checkOwner */\n      tag_105\n        /* \"@openzeppelin/contracts/access/Ownable.sol\":1531:1544  _checkOwner() */\n      jump\t// in\n    tag_104:\n        /* \"@openzeppelin/contracts/access/Ownable.sol\":2357:2387  _transferOwnership(address(0)) */\n      tag_107\n        /* \"@openzeppelin/contracts/access/Ownable.sol\":2384:2385  0 */\n      0x00\n        /* \"@openzeppelin/contracts/access/Ownable.sol\":2357:2375  _transferOwnership */\n      tag_108\n        /* \"@openzeppelin/contracts/access/Ownable.sol\":2357:2387  _transferOwnership(address(0)) */\n      jump\t// in\n    tag_107:\n        /* \"@openzeppelin/contracts/access/Ownable.sol\":2293:2394  function renounceOwnership() public virtual onlyOwner {... */\n      jump\t// out\n        /* \"RVA/Vesting.sol\":5037:5206  function setIcoContract(address _icoContract) external onlyOwner {... */\n    tag_43:\n        /* \"@openzeppelin/contracts/access/Ownable.sol\":1531:1544  _checkOwner() */\n      tag_111\n        /* \"@openzeppelin/contracts/access/Ownable.sol\":1531:1542  _checkOwner */\n      tag_105\n        /* \"@openzeppelin/contracts/access/Ownable.sol\":1531:1544  _checkOwner() */\n      jump\t// in\n    tag_111:\n      sub(shl(0xa0, 0x01), 0x01)\n        /* \"RVA/Vesting.sol\":5120:5146  _icoContract != address(0) */\n      dup2\n      and\n        /* \"RVA/Vesting.sol\":5112:5163  require(_icoContract != address(0), \"Null Address\") */\n      tag_113\n      jumpi\n      mload(0x40)\n      shl(0xe5, 0x461bcd)\n      dup2\n      mstore\n        /* \"#utility.yul\":7909:7911   */\n      0x20\n        /* \"RVA/Vesting.sol\":5112:5163  require(_icoContract != address(0), \"Null Address\") */\n      0x04\n      dup3\n      add\n        /* \"#utility.yul\":7891:7912   */\n      mstore\n        /* \"#utility.yul\":7948:7950   */\n      0x0c\n        /* \"#utility.yul\":7928:7946   */\n      0x24\n      dup3\n      add\n        /* \"#utility.yul\":7921:7951   */\n      mstore\n      shl(0xa0, 0x4e756c6c2041646472657373)\n        /* \"#utility.yul\":7967:7985   */\n      0x44\n      dup3\n      add\n        /* \"#utility.yul\":7960:8002   */\n      mstore\n        /* \"#utility.yul\":8019:8037   */\n      0x64\n      add\n        /* \"RVA/Vesting.sol\":5112:5163  require(_icoContract != address(0), \"Null Address\") */\n      tag_49\n        /* \"#utility.yul\":7707:8043   */\n      jump\n        /* \"RVA/Vesting.sol\":5112:5163  require(_icoContract != address(0), \"Null Address\") */\n    tag_113:\n        /* \"RVA/Vesting.sol\":5173:5184  icoContract */\n      0x02\n        /* \"RVA/Vesting.sol\":5173:5199  icoContract = _icoContract */\n      dup1\n      sload\n      not(sub(shl(0xa0, 0x01), 0x01))\n      and\n      sub(shl(0xa0, 0x01), 0x01)\n      swap3\n      swap1\n      swap3\n      and\n      swap2\n      swap1\n      swap2\n      or\n      swap1\n      sstore\n        /* \"RVA/Vesting.sol\":5037:5206  function setIcoContract(address _icoContract) external onlyOwner {... */\n      jump\t// out\n        /* \"@openzeppelin/contracts/access/Ownable.sol\":2543:2758  function transferOwnership(address newOwner) public virtual onlyOwner {... */\n    tag_46:\n        /* \"@openzeppelin/contracts/access/Ownable.sol\":1531:1544  _checkOwner() */\n      tag_117\n        /* \"@openzeppelin/contracts/access/Ownable.sol\":1531:1542  _checkOwner */\n      tag_105\n        /* \"@openzeppelin/contracts/access/Ownable.sol\":1531:1544  _checkOwner() */\n      jump\t// in\n    tag_117:\n      sub(shl(0xa0, 0x01), 0x01)\n        /* \"@openzeppelin/contracts/access/Ownable.sol\":2627:2649  newOwner == address(0) */\n      dup2\n      and\n        /* \"@openzeppelin/contracts/access/Ownable.sol\":2623:2714  if (newOwner == address(0)) {... */\n      tag_119\n      jumpi\n        /* \"@openzeppelin/contracts/access/Ownable.sol\":2672:2703  OwnableInvalidOwner(address(0)) */\n      mload(0x40)\n      shl(0xe0, 0x1e4fbdf7)\n      dup2\n      mstore\n        /* \"@openzeppelin/contracts/access/Ownable.sol\":2700:2701  0 */\n      0x00\n        /* \"@openzeppelin/contracts/access/Ownable.sol\":2672:2703  OwnableInvalidOwner(address(0)) */\n      0x04\n      dup3\n      add\n        /* \"#utility.yul\":179:230   */\n      mstore\n        /* \"#utility.yul\":152:170   */\n      0x24\n      add\n        /* \"@openzeppelin/contracts/access/Ownable.sol\":2672:2703  OwnableInvalidOwner(address(0)) */\n      tag_49\n        /* \"#utility.yul\":14:236   */\n      jump\n        /* \"@openzeppelin/contracts/access/Ownable.sol\":2623:2714  if (newOwner == address(0)) {... */\n    tag_119:\n        /* \"@openzeppelin/contracts/access/Ownable.sol\":2723:2751  _transferOwnership(newOwner) */\n      tag_121\n        /* \"@openzeppelin/contracts/access/Ownable.sol\":2742:2750  newOwner */\n      dup2\n        /* \"@openzeppelin/contracts/access/Ownable.sol\":2723:2741  _transferOwnership */\n      tag_108\n        /* \"@openzeppelin/contracts/access/Ownable.sol\":2723:2751  _transferOwnership(newOwner) */\n      jump\t// in\n    tag_121:\n        /* \"@openzeppelin/contracts/access/Ownable.sol\":2543:2758  function transferOwnership(address newOwner) public virtual onlyOwner {... */\n      pop\n      jump\t// out\n        /* \"@openzeppelin/contracts/access/Ownable.sol\":1796:1958  function _checkOwner() internal view virtual {... */\n    tag_105:\n        /* \"@openzeppelin/contracts/access/Ownable.sol\":1684:1691  address */\n      0x00\n        /* \"@openzeppelin/contracts/access/Ownable.sol\":1710:1716  _owner */\n      sload\n      sub(shl(0xa0, 0x01), 0x01)\n      and\n        /* \"@openzeppelin/contracts/utils/Context.sol\":735:745  msg.sender */\n      caller\n        /* \"@openzeppelin/contracts/access/Ownable.sol\":1855:1878  owner() != _msgSender() */\n      eq\n        /* \"@openzeppelin/contracts/access/Ownable.sol\":1851:1952  if (owner() != _msgSender()) {... */\n      tag_107\n      jumpi\n        /* \"@openzeppelin/contracts/access/Ownable.sol\":1901:1941  OwnableUnauthorizedAccount(_msgSender()) */\n      mload(0x40)\n      shl(0xe0, 0x118cdaa7)\n      dup2\n      mstore\n        /* \"@openzeppelin/contracts/utils/Context.sol\":735:745  msg.sender */\n      caller\n        /* \"@openzeppelin/contracts/access/Ownable.sol\":1901:1941  OwnableUnauthorizedAccount(_msgSender()) */\n      0x04\n      dup3\n      add\n        /* \"#utility.yul\":179:230   */\n      mstore\n        /* \"#utility.yul\":152:170   */\n      0x24\n      add\n        /* \"@openzeppelin/contracts/access/Ownable.sol\":1901:1941  OwnableUnauthorizedAccount(_msgSender()) */\n      tag_49\n        /* \"#utility.yul\":14:236   */\n      jump\n        /* \"@openzeppelin/contracts/access/Ownable.sol\":2912:3099  function _transferOwnership(address newOwner) internal virtual {... */\n    tag_108:\n        /* \"@openzeppelin/contracts/access/Ownable.sol\":2985:3001  address oldOwner */\n      0x00\n        /* \"@openzeppelin/contracts/access/Ownable.sol\":3004:3010  _owner */\n      dup1\n      sload\n      sub(shl(0xa0, 0x01), 0x01)\n        /* \"@openzeppelin/contracts/access/Ownable.sol\":3020:3037  _owner = newOwner */\n      dup4\n      dup2\n      and\n      not(sub(shl(0xa0, 0x01), 0x01))\n      dup4\n      and\n      dup2\n      or\n      dup5\n      sstore\n        /* \"@openzeppelin/contracts/access/Ownable.sol\":3052:3092  OwnershipTransferred(oldOwner, newOwner) */\n      mload(0x40)\n        /* \"@openzeppelin/contracts/access/Ownable.sol\":3004:3010  _owner */\n      swap2\n      swap1\n      swap3\n      and\n      swap3\n      dup4\n      swap2\n        /* \"@openzeppelin/contracts/access/Ownable.sol\":3052:3092  OwnershipTransferred(oldOwner, newOwner) */\n      0x8be0079c531659141344cd1fd0a4f28419497f9722a3daafe3b4186f6b6457e0\n      swap2\n        /* \"@openzeppelin/contracts/access/Ownable.sol\":2985:3001  address oldOwner */\n      swap1\n        /* \"@openzeppelin/contracts/access/Ownable.sol\":3052:3092  OwnershipTransferred(oldOwner, newOwner) */\n      log3\n        /* \"@openzeppelin/contracts/access/Ownable.sol\":2975:3099  {... */\n      pop\n        /* \"@openzeppelin/contracts/access/Ownable.sol\":2912:3099  function _transferOwnership(address newOwner) internal virtual {... */\n      pop\n      jump\t// out\n        /* \"#utility.yul\":241:414   */\n    tag_131:\n        /* \"#utility.yul\":309:329   */\n      dup1\n      calldataload\n      sub(shl(0xa0, 0x01), 0x01)\n        /* \"#utility.yul\":358:389   */\n      dup2\n      and\n        /* \"#utility.yul\":348:390   */\n      dup2\n      eq\n        /* \"#utility.yul\":338:408   */\n      tag_136\n      jumpi\n        /* \"#utility.yul\":404:405   */\n      0x00\n        /* \"#utility.yul\":401:402   */\n      dup1\n        /* \"#utility.yul\":394:406   */\n      revert\n        /* \"#utility.yul\":338:408   */\n    tag_136:\n        /* \"#utility.yul\":241:414   */\n      swap2\n      swap1\n      pop\n      jump\t// out\n        /* \"#utility.yul\":419:1565   */\n    tag_19:\n        /* \"#utility.yul\":550:556   */\n      0x00\n        /* \"#utility.yul\":558:564   */\n      dup1\n        /* \"#utility.yul\":566:572   */\n      0x00\n        /* \"#utility.yul\":574:580   */\n      dup1\n        /* \"#utility.yul\":582:588   */\n      0x00\n        /* \"#utility.yul\":590:596   */\n      dup1\n        /* \"#utility.yul\":598:604   */\n      0x00\n        /* \"#utility.yul\":606:612   */\n      dup1\n        /* \"#utility.yul\":614:620   */\n      0x00\n        /* \"#utility.yul\":667:670   */\n      0x0120\n        /* \"#utility.yul\":655:664   */\n      dup11\n        /* \"#utility.yul\":646:653   */\n      dup13\n        /* \"#utility.yul\":642:665   */\n      sub\n        /* \"#utility.yul\":638:671   */\n      slt\n        /* \"#utility.yul\":635:688   */\n      iszero\n      tag_138\n      jumpi\n        /* \"#utility.yul\":684:685   */\n      0x00\n        /* \"#utility.yul\":681:682   */\n      dup1\n        /* \"#utility.yul\":674:686   */\n      revert\n        /* \"#utility.yul\":635:688   */\n    tag_138:\n        /* \"#utility.yul\":707:736   */\n      tag_139\n        /* \"#utility.yul\":726:735   */\n      dup11\n        /* \"#utility.yul\":707:736   */\n      tag_131\n      jump\t// in\n    tag_139:\n        /* \"#utility.yul\":697:736   */\n      swap12\n        /* \"#utility.yul\":805:807   */\n      0x20\n        /* \"#utility.yul\":790:808   */\n      dup12\n      add\n        /* \"#utility.yul\":777:809   */\n      calldataload\n      swap12\n      pop\n        /* \"#utility.yul\":906:908   */\n      0x40\n        /* \"#utility.yul\":891:909   */\n      dup12\n      add\n        /* \"#utility.yul\":878:910   */\n      calldataload\n      swap11\n        /* \"#utility.yul\":1009:1011   */\n      0x60\n        /* \"#utility.yul\":994:1012   */\n      dup2\n      add\n        /* \"#utility.yul\":981:1013   */\n      calldataload\n      swap11\n      pop\n        /* \"#utility.yul\":1112:1115   */\n      0x80\n        /* \"#utility.yul\":1097:1116   */\n      dup2\n      add\n        /* \"#utility.yul\":1084:1117   */\n      calldataload\n      swap10\n      pop\n        /* \"#utility.yul\":1216:1219   */\n      0xa0\n        /* \"#utility.yul\":1201:1220   */\n      dup2\n      add\n        /* \"#utility.yul\":1188:1221   */\n      calldataload\n      swap9\n      pop\n        /* \"#utility.yul\":1320:1323   */\n      0xc0\n        /* \"#utility.yul\":1305:1324   */\n      dup2\n      add\n        /* \"#utility.yul\":1292:1325   */\n      calldataload\n      swap8\n      pop\n        /* \"#utility.yul\":1424:1427   */\n      0xe0\n        /* \"#utility.yul\":1409:1428   */\n      dup2\n      add\n        /* \"#utility.yul\":1396:1429   */\n      calldataload\n      swap7\n      pop\n        /* \"#utility.yul\":1528:1531   */\n      0x0100\n        /* \"#utility.yul\":1513:1532   */\n      add\n        /* \"#utility.yul\":1500:1533   */\n      calldataload\n      swap5\n      pop\n        /* \"#utility.yul\":419:1565   */\n      swap3\n      pop\n      pop\n      pop\n      jump\t// out\n        /* \"#utility.yul\":1570:1796   */\n    tag_23:\n        /* \"#utility.yul\":1629:1635   */\n      0x00\n        /* \"#utility.yul\":1682:1684   */\n      0x20\n        /* \"#utility.yul\":1670:1679   */\n      dup3\n        /* \"#utility.yul\":1661:1668   */\n      dup5\n        /* \"#utility.yul\":1657:1680   */\n      sub\n        /* \"#utility.yul\":1653:1685   */\n      slt\n        /* \"#utility.yul\":1650:1702   */\n      iszero\n      tag_141\n      jumpi\n        /* \"#utility.yul\":1698:1699   */\n      0x00\n        /* \"#utility.yul\":1695:1696   */\n      dup1\n        /* \"#utility.yul\":1688:1700   */\n      revert\n        /* \"#utility.yul\":1650:1702   */\n    tag_141:\n      pop\n        /* \"#utility.yul\":1743:1766   */\n      calldataload\n      swap2\n        /* \"#utility.yul\":1570:1796   */\n      swap1\n      pop\n      jump\t// out\n        /* \"#utility.yul\":1801:2101   */\n    tag_29:\n        /* \"#utility.yul\":1869:1875   */\n      0x00\n        /* \"#utility.yul\":1877:1883   */\n      dup1\n        /* \"#utility.yul\":1930:1932   */\n      0x40\n        /* \"#utility.yul\":1918:1927   */\n      dup4\n        /* \"#utility.yul\":1909:1916   */\n      dup6\n        /* \"#utility.yul\":1905:1928   */\n      sub\n        /* \"#utility.yul\":1901:1933   */\n      slt\n        /* \"#utility.yul\":1898:1950   */\n      iszero\n      tag_143\n      jumpi\n        /* \"#utility.yul\":1946:1947   */\n      0x00\n        /* \"#utility.yul\":1943:1944   */\n      dup1\n        /* \"#utility.yul\":1936:1948   */\n      revert\n        /* \"#utility.yul\":1898:1950   */\n    tag_143:\n        /* \"#utility.yul\":1991:2014   */\n      dup3\n      calldataload\n      swap2\n      pop\n        /* \"#utility.yul\":2057:2095   */\n      tag_144\n        /* \"#utility.yul\":2091:2093   */\n      0x20\n        /* \"#utility.yul\":2076:2094   */\n      dup5\n      add\n        /* \"#utility.yul\":2057:2095   */\n      tag_131\n      jump\t// in\n    tag_144:\n        /* \"#utility.yul\":2047:2095   */\n      swap1\n      pop\n        /* \"#utility.yul\":1801:2101   */\n      swap3\n      pop\n      swap3\n      swap1\n      pop\n      jump\t// out\n        /* \"#utility.yul\":2998:3184   */\n    tag_42:\n        /* \"#utility.yul\":3057:3063   */\n      0x00\n        /* \"#utility.yul\":3110:3112   */\n      0x20\n        /* \"#utility.yul\":3098:3107   */\n      dup3\n        /* \"#utility.yul\":3089:3096   */\n      dup5\n        /* \"#utility.yul\":3085:3108   */\n      sub\n        /* \"#utility.yul\":3081:3113   */\n      slt\n        /* \"#utility.yul\":3078:3130   */\n      iszero\n      tag_148\n      jumpi\n        /* \"#utility.yul\":3126:3127   */\n      0x00\n        /* \"#utility.yul\":3123:3124   */\n      dup1\n        /* \"#utility.yul\":3116:3128   */\n      revert\n        /* \"#utility.yul\":3078:3130   */\n    tag_148:\n        /* \"#utility.yul\":3149:3178   */\n      tag_149\n        /* \"#utility.yul\":3168:3177   */\n      dup3\n        /* \"#utility.yul\":3149:3178   */\n      tag_131\n      jump\t// in\n    tag_149:\n        /* \"#utility.yul\":3139:3178   */\n      swap4\n        /* \"#utility.yul\":2998:3184   */\n      swap3\n      pop\n      pop\n      pop\n      jump\t// out\n        /* \"#utility.yul\":4294:4421   */\n    tag_132:\n        /* \"#utility.yul\":4355:4365   */\n      0x4e487b71\n        /* \"#utility.yul\":4350:4353   */\n      0xe0\n        /* \"#utility.yul\":4346:4366   */\n      shl\n        /* \"#utility.yul\":4343:4344   */\n      0x00\n        /* \"#utility.yul\":4336:4367   */\n      mstore\n        /* \"#utility.yul\":4386:4390   */\n      0x11\n        /* \"#utility.yul\":4383:4384   */\n      0x04\n        /* \"#utility.yul\":4376:4391   */\n      mstore\n        /* \"#utility.yul\":4410:4414   */\n      0x24\n        /* \"#utility.yul\":4407:4408   */\n      0x00\n        /* \"#utility.yul\":4400:4415   */\n      revert\n        /* \"#utility.yul\":4426:4551   */\n    tag_61:\n        /* \"#utility.yul\":4491:4500   */\n      dup1\n      dup3\n      add\n        /* \"#utility.yul\":4512:4522   */\n      dup1\n      dup3\n      gt\n        /* \"#utility.yul\":4509:4545   */\n      iszero\n      tag_156\n      jumpi\n        /* \"#utility.yul\":4525:4543   */\n      tag_156\n      tag_132\n      jump\t// in\n    tag_156:\n        /* \"#utility.yul\":4426:4551   */\n      swap3\n      swap2\n      pop\n      pop\n      jump\t// out\n        /* \"#utility.yul\":5658:5786   */\n    tag_79:\n        /* \"#utility.yul\":5725:5734   */\n      dup2\n      dup2\n      sub\n        /* \"#utility.yul\":5746:5757   */\n      dup2\n      dup2\n      gt\n        /* \"#utility.yul\":5743:5780   */\n      iszero\n      tag_156\n      jumpi\n        /* \"#utility.yul\":5760:5778   */\n      tag_156\n      tag_132\n      jump\t// in\n        /* \"#utility.yul\":5791:6008   */\n    tag_82:\n        /* \"#utility.yul\":5831:5832   */\n      0x00\n        /* \"#utility.yul\":5857:5858   */\n      dup3\n        /* \"#utility.yul\":5847:5979   */\n      tag_164\n      jumpi\n        /* \"#utility.yul\":5901:5911   */\n      0x4e487b71\n        /* \"#utility.yul\":5896:5899   */\n      0xe0\n        /* \"#utility.yul\":5892:5912   */\n      shl\n        /* \"#utility.yul\":5889:5890   */\n      0x00\n        /* \"#utility.yul\":5882:5913   */\n      mstore\n        /* \"#utility.yul\":5936:5940   */\n      0x12\n        /* \"#utility.yul\":5933:5934   */\n      0x04\n        /* \"#utility.yul\":5926:5941   */\n      mstore\n        /* \"#utility.yul\":5964:5968   */\n      0x24\n        /* \"#utility.yul\":5961:5962   */\n      0x00\n        /* \"#utility.yul\":5954:5969   */\n      revert\n        /* \"#utility.yul\":5847:5979   */\n    tag_164:\n      pop\n        /* \"#utility.yul\":5993:6002   */\n      div\n      swap1\n        /* \"#utility.yul\":5791:6008   */\n      jump\t// out\n        /* \"#utility.yul\":6013:6181   */\n    tag_86:\n        /* \"#utility.yul\":6086:6095   */\n      dup1\n      dup3\n      mul\n        /* \"#utility.yul\":6117:6126   */\n      dup2\n      iszero\n        /* \"#utility.yul\":6134:6149   */\n      dup3\n      dup3\n      div\n        /* \"#utility.yul\":6128:6150   */\n      dup5\n      eq\n        /* \"#utility.yul\":6114:6151   */\n      or\n        /* \"#utility.yul\":6104:6175   */\n      tag_156\n      jumpi\n        /* \"#utility.yul\":6155:6173   */\n      tag_156\n      tag_132\n      jump\t// in\n        /* \"#utility.yul\":6822:7099   */\n    tag_97:\n        /* \"#utility.yul\":6889:6895   */\n      0x00\n        /* \"#utility.yul\":6942:6944   */\n      0x20\n        /* \"#utility.yul\":6930:6939   */\n      dup3\n        /* \"#utility.yul\":6921:6928   */\n      dup5\n        /* \"#utility.yul\":6917:6940   */\n      sub\n        /* \"#utility.yul\":6913:6945   */\n      slt\n        /* \"#utility.yul\":6910:6962   */\n      iszero\n      tag_171\n      jumpi\n        /* \"#utility.yul\":6958:6959   */\n      0x00\n        /* \"#utility.yul\":6955:6956   */\n      dup1\n        /* \"#utility.yul\":6948:6960   */\n      revert\n        /* \"#utility.yul\":6910:6962   */\n    tag_171:\n        /* \"#utility.yul\":6990:6999   */\n      dup2\n        /* \"#utility.yul\":6984:7000   */\n      mload\n        /* \"#utility.yul\":7043:7048   */\n      dup1\n        /* \"#utility.yul\":7036:7049   */\n      iszero\n        /* \"#utility.yul\":7029:7050   */\n      iszero\n        /* \"#utility.yul\":7022:7027   */\n      dup2\n        /* \"#utility.yul\":7019:7051   */\n      eq\n        /* \"#utility.yul\":7009:7069   */\n      tag_149\n      jumpi\n        /* \"#utility.yul\":7065:7066   */\n      0x00\n        /* \"#utility.yul\":7062:7063   */\n      dup1\n        /* \"#utility.yul\":7055:7067   */\n      revert\n\n    auxdata: 0xa2646970667358221220f4bb135215e5a56b60722d7927e43385c71e573866ed85dbd2e5898a4c45810264736f6c634300081a0033\n}\n",
				"bytecode": {
					"linkReferences": {},
					"object": "608060405234801561000f575f80fd5b50604051610aca380380610aca83398101604081905261002e916100d1565b338061005357604051631e4fbdf760e01b81525f600482015260240160405180910390fd5b61005c81610082565b50600180546001600160a01b0319166001600160a01b03929092169190911790556100fe565b5f80546001600160a01b038381166001600160a01b0319831681178455604051919092169283917f8be0079c531659141344cd1fd0a4f28419497f9722a3daafe3b4186f6b6457e09190a35050565b5f602082840312156100e1575f80fd5b81516001600160a01b03811681146100f7575f80fd5b9392505050565b6109bf8061010b5f395ff3fe608060405234801561000f575f80fd5b5060043610610090575f3560e01c806387a0683c1161006357806387a0683c146100f45780638da5cb5b1461018c578063c66e40951461019c578063e09678fd146101af578063f2fde38b146101c2575f80fd5b8063260c2cec14610094578063374048fc146100c4578063379607f5146100d9578063715018a6146100ec575b5f80fd5b6001546100a7906001600160a01b031681565b6040516001600160a01b0390911681526020015b60405180910390f35b6100d76100d2366004610833565b6101d5565b005b6100d76100e7366004610893565b610447565b6100d76106de565b6101516101023660046108aa565b6003602052815f5260405f20602052805f5260405f205f9150915050805f0154908060010154908060020154908060030154908060040154908060050154908060060154908060070154905088565b604080519889526020890197909752958701949094526060860192909252608085015260a084015260c083015260e0820152610100016100bb565b5f546001600160a01b03166100a7565b6002546100a7906001600160a01b031681565b6100d76101bd3660046108d4565b6106f1565b6100d76101d03660046108d4565b610760565b6002546001600160a01b031633146102435760405162461bcd60e51b815260206004820152602660248201527f4f6e6c792049434f20636f6e74726163742063616e2072656769737465722076604482015265657374696e6760d01b60648201526084015b60405180910390fd5b6001600160a01b0389166102915760405162461bcd60e51b81526020600482015260156024820152744e756c6c20496e766573746f72206164647265737360581b604482015260640161023a565b5f8311801561029f57505f82115b80156102aa57505f81115b80156102b557505f87115b6102f75760405162461bcd60e51b8152602060048201526013602482015272125b9d985b1a590819185d18481c185cdcd959606a1b604482015260640161023a565b604051806101000160405280898152602001888152602001878152602001868152602001858152602001848661032d9190610908565b81526020018361033d8688610908565b6103479190610908565b8152602001826103578688610908565b6103619190610908565b90525f8981526003602081815260408084206001600160a01b038f16808652908352938190208551815591850151600183015584015160028201556060840151918101919091556080830151600482015560a0830151600582015560c0830151600682015560e0909201516007909201919091557fc29e1b2ff8ecfe1d0d33530f78ee6bd83616ee585b0dfb881b69e357fbfd749a886104018688610908565b8561040c888a610908565b6104169190610908565b60408051938452602084019290925290820152606081018490526080015b60405180910390a2505050505050505050565b5f818152600360209081526040808320338452909152902060058101546104b05760405162461bcd60e51b815260206004820152601960248201527f4e6f2076657374696e67207363686564756c6520666f756e6400000000000000604482015260640161023a565b600581015442908110156105065760405162461bcd60e51b815260206004820152601760248201527f4c6f636b757020706572696f64206e6f7420656e646564000000000000000000604482015260640161023a565b5f8260050154826105179190610921565b90505f8360070154846005015485600601546105339190610921565b61053d9190610934565b90505f8185600301546105509190610934565b90505f8560070154846105639190610934565b90505f6105708383610953565b9050866002015481116105c55760405162461bcd60e51b815260206004820152601c60248201527f4e6f20746f6b656e7320617661696c61626c6520746f20636c61696d00000000604482015260640161023a565b5f8760020154826105d69190610921565b905080886002015f8282546105eb9190610908565b909155505060015460405163a9059cbb60e01b8152336004820152602481018390526001600160a01b039091169063a9059cbb906044016020604051808303815f875af115801561063e573d5f803e3d5ffd5b505050506040513d601f19601f82011682018060405250810190610662919061096a565b6106a65760405162461bcd60e51b8152602060048201526015602482015274151bdad95b881d1c985b9cd9995c8819985a5b1959605a1b604482015260640161023a565b604080518a81526020810183905233917f9923b4306c6c030f2bdfbf156517d5983b87e15b96176da122cd4f2effa4ba7b9101610434565b6106e661079d565b6106ef5f6107c9565b565b6106f961079d565b6001600160a01b03811661073e5760405162461bcd60e51b815260206004820152600c60248201526b4e756c6c204164647265737360a01b604482015260640161023a565b600280546001600160a01b0319166001600160a01b0392909216919091179055565b61076861079d565b6001600160a01b03811661079157604051631e4fbdf760e01b81525f600482015260240161023a565b61079a816107c9565b50565b5f546001600160a01b031633146106ef5760405163118cdaa760e01b815233600482015260240161023a565b5f80546001600160a01b038381166001600160a01b0319831681178455604051919092169283917f8be0079c531659141344cd1fd0a4f28419497f9722a3daafe3b4186f6b6457e09190a35050565b80356001600160a01b038116811461082e575f80fd5b919050565b5f805f805f805f805f6101208a8c03121561084c575f80fd5b6108558a610818565b9b60208b01359b5060408b01359a60608101359a506080810135995060a0810135985060c0810135975060e081013596506101000135945092505050565b5f602082840312156108a3575f80fd5b5035919050565b5f80604083850312156108bb575f80fd5b823591506108cb60208401610818565b90509250929050565b5f602082840312156108e4575f80fd5b6108ed82610818565b9392505050565b634e487b7160e01b5f52601160045260245ffd5b8082018082111561091b5761091b6108f4565b92915050565b8181038181111561091b5761091b6108f4565b5f8261094e57634e487b7160e01b5f52601260045260245ffd5b500490565b808202811582820484141761091b5761091b6108f4565b5f6020828403121561097a575f80fd5b815180151581146108ed575f80fdfea2646970667358221220f4bb135215e5a56b60722d7927e43385c71e573866ed85dbd2e5898a4c45810264736f6c634300081a0033",
					"opcodes": "PUSH1 0x80 PUSH1 0x40 MSTORE CALLVALUE DUP1 ISZERO PUSH2 0xF JUMPI PUSH0 DUP1 REVERT JUMPDEST POP PUSH1 0x40 MLOAD PUSH2 0xACA CODESIZE SUB DUP1 PUSH2 0xACA DUP4 CODECOPY DUP2 ADD PUSH1 0x40 DUP2 SWAP1 MSTORE PUSH2 0x2E SWAP2 PUSH2 0xD1 JUMP JUMPDEST CALLER DUP1 PUSH2 0x53 JUMPI PUSH1 0x40 MLOAD PUSH4 0x1E4FBDF7 PUSH1 0xE0 SHL DUP2 MSTORE PUSH0 PUSH1 0x4 DUP3 ADD MSTORE PUSH1 0x24 ADD PUSH1 0x40 MLOAD DUP1 SWAP2 SUB SWAP1 REVERT JUMPDEST PUSH2 0x5C DUP2 PUSH2 0x82 JUMP JUMPDEST POP PUSH1 0x1 DUP1 SLOAD PUSH1 0x1 PUSH1 0x1 PUSH1 0xA0 SHL SUB NOT AND PUSH1 0x1 PUSH1 0x1 PUSH1 0xA0 SHL SUB SWAP3 SWAP1 SWAP3 AND SWAP2 SWAP1 SWAP2 OR SWAP1 SSTORE PUSH2 0xFE JUMP JUMPDEST PUSH0 DUP1 SLOAD PUSH1 0x1 PUSH1 0x1 PUSH1 0xA0 SHL SUB DUP4 DUP2 AND PUSH1 0x1 PUSH1 0x1 PUSH1 0xA0 SHL SUB NOT DUP4 AND DUP2 OR DUP5 SSTORE PUSH1 0x40 MLOAD SWAP2 SWAP1 SWAP3 AND SWAP3 DUP4 SWAP2 PUSH32 0x8BE0079C531659141344CD1FD0A4F28419497F9722A3DAAFE3B4186F6B6457E0 SWAP2 SWAP1 LOG3 POP POP JUMP JUMPDEST PUSH0 PUSH1 0x20 DUP3 DUP5 SUB SLT ISZERO PUSH2 0xE1 JUMPI PUSH0 DUP1 REVERT JUMPDEST DUP2 MLOAD PUSH1 0x1 PUSH1 0x1 PUSH1 0xA0 SHL SUB DUP2 AND DUP2 EQ PUSH2 0xF7 JUMPI PUSH0 DUP1 REVERT JUMPDEST SWAP4 SWAP3 POP POP POP JUMP JUMPDEST PUSH2 0x9BF DUP1 PUSH2 0x10B PUSH0 CODECOPY PUSH0 RETURN INVALID PUSH1 0x80 PUSH1 0x40 MSTORE CALLVALUE DUP1 ISZERO PUSH2 0xF JUMPI PUSH0 DUP1 REVERT JUMPDEST POP PUSH1 0x4 CALLDATASIZE LT PUSH2 0x90 JUMPI PUSH0 CALLDATALOAD PUSH1 0xE0 SHR DUP1 PUSH4 0x87A0683C GT PUSH2 0x63 JUMPI DUP1 PUSH4 0x87A0683C EQ PUSH2 0xF4 JUMPI DUP1 PUSH4 0x8DA5CB5B EQ PUSH2 0x18C JUMPI DUP1 PUSH4 0xC66E4095 EQ PUSH2 0x19C JUMPI DUP1 PUSH4 0xE09678FD EQ PUSH2 0x1AF JUMPI DUP1 PUSH4 0xF2FDE38B EQ PUSH2 0x1C2 JUMPI PUSH0 DUP1 REVERT JUMPDEST DUP1 PUSH4 0x260C2CEC EQ PUSH2 0x94 JUMPI DUP1 PUSH4 0x374048FC EQ PUSH2 0xC4 JUMPI DUP1 PUSH4 0x379607F5 EQ PUSH2 0xD9 JUMPI DUP1 PUSH4 0x715018A6 EQ PUSH2 0xEC JUMPI JUMPDEST PUSH0 DUP1 REVERT JUMPDEST PUSH1 0x1 SLOAD PUSH2 0xA7 SWAP1 PUSH1 0x1 PUSH1 0x1 PUSH1 0xA0 SHL SUB AND DUP2 JUMP JUMPDEST PUSH1 0x40 MLOAD PUSH1 0x1 PUSH1 0x1 PUSH1 0xA0 SHL SUB SWAP1 SWAP2 AND DUP2 MSTORE PUSH1 0x20 ADD JUMPDEST PUSH1 0x40 MLOAD DUP1 SWAP2 SUB SWAP1 RETURN JUMPDEST PUSH2 0xD7 PUSH2 0xD2 CALLDATASIZE PUSH1 0x4 PUSH2 0x833 JUMP JUMPDEST PUSH2 0x1D5 JUMP JUMPDEST STOP JUMPDEST PUSH2 0xD7 PUSH2 0xE7 CALLDATASIZE PUSH1 0x4 PUSH2 0x893 JUMP JUMPDEST PUSH2 0x447 JUMP JUMPDEST PUSH2 0xD7 PUSH2 0x6DE JUMP JUMPDEST PUSH2 0x151 PUSH2 0x102 CALLDATASIZE PUSH1 0x4 PUSH2 0x8AA JUMP JUMPDEST PUSH1 0x3 PUSH1 0x20 MSTORE DUP2 PUSH0 MSTORE PUSH1 0x40 PUSH0 KECCAK256 PUSH1 0x20 MSTORE DUP1 PUSH0 MSTORE PUSH1 0x40 PUSH0 KECCAK256 PUSH0 SWAP2 POP SWAP2 POP POP DUP1 PUSH0 ADD SLOAD SWAP1 DUP1 PUSH1 0x1 ADD SLOAD SWAP1 DUP1 PUSH1 0x2 ADD SLOAD SWAP1 DUP1 PUSH1 0x3 ADD SLOAD SWAP1 DUP1 PUSH1 0x4 ADD SLOAD SWAP1 DUP1 PUSH1 0x5 ADD SLOAD SWAP1 DUP1 PUSH1 0x6 ADD SLOAD SWAP1 DUP1 PUSH1 0x7 ADD SLOAD SWAP1 POP DUP9 JUMP JUMPDEST PUSH1 0x40 DUP1 MLOAD SWAP9 DUP10 MSTORE PUSH1 0x20 DUP10 ADD SWAP8 SWAP1 SWAP8 MSTORE SWAP6 DUP8 ADD SWAP5 SWAP1 SWAP5 MSTORE PUSH1 0x60 DUP7 ADD SWAP3 SWAP1 SWAP3 MSTORE PUSH1 0x80 DUP6 ADD MSTORE PUSH1 0xA0 DUP5 ADD MSTORE PUSH1 0xC0 DUP4 ADD MSTORE PUSH1 0xE0 DUP3 ADD MSTORE PUSH2 0x100 ADD PUSH2 0xBB JUMP JUMPDEST PUSH0 SLOAD PUSH1 0x1 PUSH1 0x1 PUSH1 0xA0 SHL SUB AND PUSH2 0xA7 JUMP JUMPDEST PUSH1 0x2 SLOAD PUSH2 0xA7 SWAP1 PUSH1 0x1 PUSH1 0x1 PUSH1 0xA0 SHL SUB AND DUP2 JUMP JUMPDEST PUSH2 0xD7 PUSH2 0x1BD CALLDATASIZE PUSH1 0x4 PUSH2 0x8D4 JUMP JUMPDEST PUSH2 0x6F1 JUMP JUMPDEST PUSH2 0xD7 PUSH2 0x1D0 CALLDATASIZE PUSH1 0x4 PUSH2 0x8D4 JUMP JUMPDEST PUSH2 0x760 JUMP JUMPDEST PUSH1 0x2 SLOAD PUSH1 0x1 PUSH1 0x1 PUSH1 0xA0 SHL SUB AND CALLER EQ PUSH2 0x243 JUMPI PUSH1 0x40 MLOAD PUSH3 0x461BCD PUSH1 0xE5 SHL DUP2 MSTORE PUSH1 0x20 PUSH1 0x4 DUP3 ADD MSTORE PUSH1 0x26 PUSH1 0x24 DUP3 ADD MSTORE PUSH32 0x4F6E6C792049434F20636F6E74726163742063616E2072656769737465722076 PUSH1 0x44 DUP3 ADD MSTORE PUSH6 0x657374696E67 PUSH1 0xD0 SHL PUSH1 0x64 DUP3 ADD MSTORE PUSH1 0x84 ADD JUMPDEST PUSH1 0x40 MLOAD DUP1 SWAP2 SUB SWAP1 REVERT JUMPDEST PUSH1 0x1 PUSH1 0x1 PUSH1 0xA0 SHL SUB DUP10 AND PUSH2 0x291 JUMPI PUSH1 0x40 MLOAD PUSH3 0x461BCD PUSH1 0xE5 SHL DUP2 MSTORE PUSH1 0x20 PUSH1 0x4 DUP3 ADD MSTORE PUSH1 0x15 PUSH1 0x24 DUP3 ADD MSTORE PUSH21 0x4E756C6C20496E766573746F722061646472657373 PUSH1 0x58 SHL PUSH1 0x44 DUP3 ADD MSTORE PUSH1 0x64 ADD PUSH2 0x23A JUMP JUMPDEST PUSH0 DUP4 GT DUP1 ISZERO PUSH2 0x29F JUMPI POP PUSH0 DUP3 GT JUMPDEST DUP1 ISZERO PUSH2 0x2AA JUMPI POP PUSH0 DUP2 GT JUMPDEST DUP1 ISZERO PUSH2 0x2B5 JUMPI POP PUSH0 DUP8 GT JUMPDEST PUSH2 0x2F7 JUMPI PUSH1 0x40 MLOAD PUSH3 0x461BCD PUSH1 0xE5 SHL DUP2 MSTORE PUSH1 0x20 PUSH1 0x4 DUP3 ADD MSTORE PUSH1 0x13 PUSH1 0x24 DUP3 ADD MSTORE PUSH19 0x125B9D985B1A590819185D18481C185CDCD959 PUSH1 0x6A SHL PUSH1 0x44 DUP3 ADD MSTORE PUSH1 0x64 ADD PUSH2 0x23A JUMP JUMPDEST PUSH1 0x40 MLOAD DUP1 PUSH2 0x100 ADD PUSH1 0x40 MSTORE DUP1 DUP10 DUP2 MSTORE PUSH1 0x20 ADD DUP9 DUP2 MSTORE PUSH1 0x20 ADD DUP8 DUP2 MSTORE PUSH1 0x20 ADD DUP7 DUP2 MSTORE PUSH1 0x20 ADD DUP6 DUP2 MSTORE PUSH1 0x20 ADD DUP5 DUP7 PUSH2 0x32D SWAP2 SWAP1 PUSH2 0x908 JUMP JUMPDEST DUP2 MSTORE PUSH1 0x20 ADD DUP4 PUSH2 0x33D DUP7 DUP9 PUSH2 0x908 JUMP JUMPDEST PUSH2 0x347 SWAP2 SWAP1 PUSH2 0x908 JUMP JUMPDEST DUP2 MSTORE PUSH1 0x20 ADD DUP3 PUSH2 0x357 DUP7 DUP9 PUSH2 0x908 JUMP JUMPDEST PUSH2 0x361 SWAP2 SWAP1 PUSH2 0x908 JUMP JUMPDEST SWAP1 MSTORE PUSH0 DUP10 DUP2 MSTORE PUSH1 0x3 PUSH1 0x20 DUP2 DUP2 MSTORE PUSH1 0x40 DUP1 DUP5 KECCAK256 PUSH1 0x1 PUSH1 0x1 PUSH1 0xA0 SHL SUB DUP16 AND DUP1 DUP7 MSTORE SWAP1 DUP4 MSTORE SWAP4 DUP2 SWAP1 KECCAK256 DUP6 MLOAD DUP2 SSTORE SWAP2 DUP6 ADD MLOAD PUSH1 0x1 DUP4 ADD SSTORE DUP5 ADD MLOAD PUSH1 0x2 DUP3 ADD SSTORE PUSH1 0x60 DUP5 ADD MLOAD SWAP2 DUP2 ADD SWAP2 SWAP1 SWAP2 SSTORE PUSH1 0x80 DUP4 ADD MLOAD PUSH1 0x4 DUP3 ADD SSTORE PUSH1 0xA0 DUP4 ADD MLOAD PUSH1 0x5 DUP3 ADD SSTORE PUSH1 0xC0 DUP4 ADD MLOAD PUSH1 0x6 DUP3 ADD SSTORE PUSH1 0xE0 SWAP1 SWAP3 ADD MLOAD PUSH1 0x7 SWAP1 SWAP3 ADD SWAP2 SWAP1 SWAP2 SSTORE PUSH32 0xC29E1B2FF8ECFE1D0D33530F78EE6BD83616EE585B0DFB881B69E357FBFD749A DUP9 PUSH2 0x401 DUP7 DUP9 PUSH2 0x908 JUMP JUMPDEST DUP6 PUSH2 0x40C DUP9 DUP11 PUSH2 0x908 JUMP JUMPDEST PUSH2 0x416 SWAP2 SWAP1 PUSH2 0x908 JUMP JUMPDEST PUSH1 0x40 DUP1 MLOAD SWAP4 DUP5 MSTORE PUSH1 0x20 DUP5 ADD SWAP3 SWAP1 SWAP3 MSTORE SWAP1 DUP3 ADD MSTORE PUSH1 0x60 DUP2 ADD DUP5 SWAP1 MSTORE PUSH1 0x80 ADD JUMPDEST PUSH1 0x40 MLOAD DUP1 SWAP2 SUB SWAP1 LOG2 POP POP POP POP POP POP POP POP POP JUMP JUMPDEST PUSH0 DUP2 DUP2 MSTORE PUSH1 0x3 PUSH1 0x20 SWAP1 DUP2 MSTORE PUSH1 0x40 DUP1 DUP4 KECCAK256 CALLER DUP5 MSTORE SWAP1 SWAP2 MSTORE SWAP1 KECCAK256 PUSH1 0x5 DUP2 ADD SLOAD PUSH2 0x4B0 JUMPI PUSH1 0x40 MLOAD PUSH3 0x461BCD PUSH1 0xE5 SHL DUP2 MSTORE PUSH1 0x20 PUSH1 0x4 DUP3 ADD MSTORE PUSH1 0x19 PUSH1 0x24 DUP3 ADD MSTORE PUSH32 0x4E6F2076657374696E67207363686564756C6520666F756E6400000000000000 PUSH1 0x44 DUP3 ADD MSTORE PUSH1 0x64 ADD PUSH2 0x23A JUMP JUMPDEST PUSH1 0x5 DUP2 ADD SLOAD TIMESTAMP SWAP1 DUP2 LT ISZERO PUSH2 0x506 JUMPI PUSH1 0x40 MLOAD PUSH3 0x461BCD PUSH1 0xE5 SHL DUP2 MSTORE PUSH1 0x20 PUSH1 0x4 DUP3 ADD MSTORE PUSH1 0x17 PUSH1 0x24 DUP3 ADD MSTORE PUSH32 0x4C6F636B757020706572696F64206E6F7420656E646564000000000000000000 PUSH1 0x44 DUP3 ADD MSTORE PUSH1 0x64 ADD PUSH2 0x23A JUMP JUMPDEST PUSH0 DUP3 PUSH1 0x5 ADD SLOAD DUP3 PUSH2 0x517 SWAP2 SWAP1 PUSH2 0x921 JUMP JUMPDEST SWAP1 POP PUSH0 DUP4 PUSH1 0x7 ADD SLOAD DUP5 PUSH1 0x5 ADD SLOAD DUP6 PUSH1 0x6 ADD SLOAD PUSH2 0x533 SWAP2 SWAP1 PUSH2 0x921 JUMP JUMPDEST PUSH2 0x53D SWAP2 SWAP1 PUSH2 0x934 JUMP JUMPDEST SWAP1 POP PUSH0 DUP2 DUP6 PUSH1 0x3 ADD SLOAD PUSH2 0x550 SWAP2 SWAP1 PUSH2 0x934 JUMP JUMPDEST SWAP1 POP PUSH0 DUP6 PUSH1 0x7 ADD SLOAD DUP5 PUSH2 0x563 SWAP2 SWAP1 PUSH2 0x934 JUMP JUMPDEST SWAP1 POP PUSH0 PUSH2 0x570 DUP4 DUP4 PUSH2 0x953 JUMP JUMPDEST SWAP1 POP DUP7 PUSH1 0x2 ADD SLOAD DUP2 GT PUSH2 0x5C5 JUMPI PUSH1 0x40 MLOAD PUSH3 0x461BCD PUSH1 0xE5 SHL DUP2 MSTORE PUSH1 0x20 PUSH1 0x4 DUP3 ADD MSTORE PUSH1 0x1C PUSH1 0x24 DUP3 ADD MSTORE PUSH32 0x4E6F20746F6B656E7320617661696C61626C6520746F20636C61696D00000000 PUSH1 0x44 DUP3 ADD MSTORE PUSH1 0x64 ADD PUSH2 0x23A JUMP JUMPDEST PUSH0 DUP8 PUSH1 0x2 ADD SLOAD DUP3 PUSH2 0x5D6 SWAP2 SWAP1 PUSH2 0x921 JUMP JUMPDEST SWAP1 POP DUP1 DUP9 PUSH1 0x2 ADD PUSH0 DUP3 DUP3 SLOAD PUSH2 0x5EB SWAP2 SWAP1 PUSH2 0x908 JUMP JUMPDEST SWAP1 SWAP2 SSTORE POP POP PUSH1 0x1 SLOAD PUSH1 0x40 MLOAD PUSH4 0xA9059CBB PUSH1 0xE0 SHL DUP2 MSTORE CALLER PUSH1 0x4 DUP3 ADD MSTORE PUSH1 0x24 DUP2 ADD DUP4 SWAP1 MSTORE PUSH1 0x1 PUSH1 0x1 PUSH1 0xA0 SHL SUB SWAP1 SWAP2 AND SWAP1 PUSH4 0xA9059CBB SWAP1 PUSH1 0x44 ADD PUSH1 0x20 PUSH1 0x40 MLOAD DUP1 DUP4 SUB DUP2 PUSH0 DUP8 GAS CALL ISZERO DUP1 ISZERO PUSH2 0x63E JUMPI RETURNDATASIZE PUSH0 DUP1 RETURNDATACOPY RETURNDATASIZE PUSH0 REVERT JUMPDEST POP POP POP POP PUSH1 0x40 MLOAD RETURNDATASIZE PUSH1 0x1F NOT PUSH1 0x1F DUP3 ADD AND DUP3 ADD DUP1 PUSH1 0x40 MSTORE POP DUP2 ADD SWAP1 PUSH2 0x662 SWAP2 SWAP1 PUSH2 0x96A JUMP JUMPDEST PUSH2 0x6A6 JUMPI PUSH1 0x40 MLOAD PUSH3 0x461BCD PUSH1 0xE5 SHL DUP2 MSTORE PUSH1 0x20 PUSH1 0x4 DUP3 ADD MSTORE PUSH1 0x15 PUSH1 0x24 DUP3 ADD MSTORE PUSH21 0x151BDAD95B881D1C985B9CD9995C8819985A5B1959 PUSH1 0x5A SHL PUSH1 0x44 DUP3 ADD MSTORE PUSH1 0x64 ADD PUSH2 0x23A JUMP JUMPDEST PUSH1 0x40 DUP1 MLOAD DUP11 DUP2 MSTORE PUSH1 0x20 DUP2 ADD DUP4 SWAP1 MSTORE CALLER SWAP2 PUSH32 0x9923B4306C6C030F2BDFBF156517D5983B87E15B96176DA122CD4F2EFFA4BA7B SWAP2 ADD PUSH2 0x434 JUMP JUMPDEST PUSH2 0x6E6 PUSH2 0x79D JUMP JUMPDEST PUSH2 0x6EF PUSH0 PUSH2 0x7C9 JUMP JUMPDEST JUMP JUMPDEST PUSH2 0x6F9 PUSH2 0x79D JUMP JUMPDEST PUSH1 0x1 PUSH1 0x1 PUSH1 0xA0 SHL SUB DUP2 AND PUSH2 0x73E JUMPI PUSH1 0x40 MLOAD PUSH3 0x461BCD PUSH1 0xE5 SHL DUP2 MSTORE PUSH1 0x20 PUSH1 0x4 DUP3 ADD MSTORE PUSH1 0xC PUSH1 0x24 DUP3 ADD MSTORE PUSH12 0x4E756C6C2041646472657373 PUSH1 0xA0 SHL PUSH1 0x44 DUP3 ADD MSTORE PUSH1 0x64 ADD PUSH2 0x23A JUMP JUMPDEST PUSH1 0x2 DUP1 SLOAD PUSH1 0x1 PUSH1 0x1 PUSH1 0xA0 SHL SUB NOT AND PUSH1 0x1 PUSH1 0x1 PUSH1 0xA0 SHL SUB SWAP3 SWAP1 SWAP3 AND SWAP2 SWAP1 SWAP2 OR SWAP1 SSTORE JUMP JUMPDEST PUSH2 0x768 PUSH2 0x79D JUMP JUMPDEST PUSH1 0x1 PUSH1 0x1 PUSH1 0xA0 SHL SUB DUP2 AND PUSH2 0x791 JUMPI PUSH1 0x40 MLOAD PUSH4 0x1E4FBDF7 PUSH1 0xE0 SHL DUP2 MSTORE PUSH0 PUSH1 0x4 DUP3 ADD MSTORE PUSH1 0x24 ADD PUSH2 0x23A JUMP JUMPDEST PUSH2 0x79A DUP2 PUSH2 0x7C9 JUMP JUMPDEST POP JUMP JUMPDEST PUSH0 SLOAD PUSH1 0x1 PUSH1 0x1 PUSH1 0xA0 SHL SUB AND CALLER EQ PUSH2 0x6EF JUMPI PUSH1 0x40 MLOAD PUSH4 0x118CDAA7 PUSH1 0xE0 SHL DUP2 MSTORE CALLER PUSH1 0x4 DUP3 ADD MSTORE PUSH1 0x24 ADD PUSH2 0x23A JUMP JUMPDEST PUSH0 DUP1 SLOAD PUSH1 0x1 PUSH1 0x1 PUSH1 0xA0 SHL SUB DUP4 DUP2 AND PUSH1 0x1 PUSH1 0x1 PUSH1 0xA0 SHL SUB NOT DUP4 AND DUP2 OR DUP5 SSTORE PUSH1 0x40 MLOAD SWAP2 SWAP1 SWAP3 AND SWAP3 DUP4 SWAP2 PUSH32 0x8BE0079C531659141344CD1FD0A4F28419497F9722A3DAAFE3B4186F6B6457E0 SWAP2 SWAP1 LOG3 POP POP JUMP JUMPDEST DUP1 CALLDATALOAD PUSH1 0x1 PUSH1 0x1 PUSH1 0xA0 SHL SUB DUP2 AND DUP2 EQ PUSH2 0x82E JUMPI PUSH0 DUP1 REVERT JUMPDEST SWAP2 SWAP1 POP JUMP JUMPDEST PUSH0 DUP1 PUSH0 DUP1 PUSH0 DUP1 PUSH0 DUP1 PUSH0 PUSH2 0x120 DUP11 DUP13 SUB SLT ISZERO PUSH2 0x84C JUMPI PUSH0 DUP1 REVERT JUMPDEST PUSH2 0x855 DUP11 PUSH2 0x818 JUMP JUMPDEST SWAP12 PUSH1 0x20 DUP12 ADD CALLDATALOAD SWAP12 POP PUSH1 0x40 DUP12 ADD CALLDATALOAD SWAP11 PUSH1 0x60 DUP2 ADD CALLDATALOAD SWAP11 POP PUSH1 0x80 DUP2 ADD CALLDATALOAD SWAP10 POP PUSH1 0xA0 DUP2 ADD CALLDATALOAD SWAP9 POP PUSH1 0xC0 DUP2 ADD CALLDATALOAD SWAP8 POP PUSH1 0xE0 DUP2 ADD CALLDATALOAD SWAP7 POP PUSH2 0x100 ADD CALLDATALOAD SWAP5 POP SWAP3 POP POP POP JUMP JUMPDEST PUSH0 PUSH1 0x20 DUP3 DUP5 SUB SLT ISZERO PUSH2 0x8A3 JUMPI PUSH0 DUP1 REVERT JUMPDEST POP CALLDATALOAD SWAP2 SWAP1 POP JUMP JUMPDEST PUSH0 DUP1 PUSH1 0x40 DUP4 DUP6 SUB SLT ISZERO PUSH2 0x8BB JUMPI PUSH0 DUP1 REVERT JUMPDEST DUP3 CALLDATALOAD SWAP2 POP PUSH2 0x8CB PUSH1 0x20 DUP5 ADD PUSH2 0x818 JUMP JUMPDEST SWAP1 POP SWAP3 POP SWAP3 SWAP1 POP JUMP JUMPDEST PUSH0 PUSH1 0x20 DUP3 DUP5 SUB SLT ISZERO PUSH2 0x8E4 JUMPI PUSH0 DUP1 REVERT JUMPDEST PUSH2 0x8ED DUP3 PUSH2 0x818 JUMP JUMPDEST SWAP4 SWAP3 POP POP POP JUMP JUMPDEST PUSH4 0x4E487B71 PUSH1 0xE0 SHL PUSH0 MSTORE PUSH1 0x11 PUSH1 0x4 MSTORE PUSH1 0x24 PUSH0 REVERT JUMPDEST DUP1 DUP3 ADD DUP1 DUP3 GT ISZERO PUSH2 0x91B JUMPI PUSH2 0x91B PUSH2 0x8F4 JUMP JUMPDEST SWAP3 SWAP2 POP POP JUMP JUMPDEST DUP2 DUP2 SUB DUP2 DUP2 GT ISZERO PUSH2 0x91B JUMPI PUSH2 0x91B PUSH2 0x8F4 JUMP JUMPDEST PUSH0 DUP3 PUSH2 0x94E JUMPI PUSH4 0x4E487B71 PUSH1 0xE0 SHL PUSH0 MSTORE PUSH1 0x12 PUSH1 0x4 MSTORE PUSH1 0x24 PUSH0 REVERT JUMPDEST POP DIV SWAP1 JUMP JUMPDEST DUP1 DUP3 MUL DUP2 ISZERO DUP3 DUP3 DIV DUP5 EQ OR PUSH2 0x91B JUMPI PUSH2 0x91B PUSH2 0x8F4 JUMP JUMPDEST PUSH0 PUSH1 0x20 DUP3 DUP5 SUB SLT ISZERO PUSH2 0x97A JUMPI PUSH0 DUP1 REVERT JUMPDEST DUP2 MLOAD DUP1 ISZERO ISZERO DUP2 EQ PUSH2 0x8ED JUMPI PUSH0 DUP1 REVERT INVALID LOG2 PUSH5 0x6970667358 0x22 SLT KECCAK256 DELEGATECALL 0xBB SGT MSTORE ISZERO 0xE5 0xA5 PUSH12 0x60722D7927E43385C71E5738 PUSH7 0xED85DBD2E5898A 0x4C GASLIMIT DUP2 MUL PUSH5 0x736F6C6343 STOP ADDMOD BYTE STOP CALLER "
				},
				"gasEstimates": {
					"creation": {
						"codeDepositCost": "499000",
						"executionCost": "infinite",
						"totalCost": "infinite"
					},
					"external": {
						"claim(uint256)": "infinite",
						"icoContract()": "2369",
						"icoToken()": "2326",
						"owner()": "2340",
						"registerVesting(address,uint256,uint256,uint256,uint256,uint256,uint256,uint256,uint256)": "infinite",
						"renounceOwnership()": "infinite",
						"setIcoContract(address)": "26833",
						"transferOwnership(address)": "28417",
						"vestingSchedules(uint256,address)": "17545"
					}
				},
				"methodIdentifiers": {
					"claim(uint256)": "379607f5",
					"icoContract()": "c66e4095",
					"icoToken()": "260c2cec",
					"owner()": "8da5cb5b",
					"registerVesting(address,uint256,uint256,uint256,uint256,uint256,uint256,uint256,uint256)": "374048fc",
					"renounceOwnership()": "715018a6",
					"setIcoContract(address)": "e09678fd",
					"transferOwnership(address)": "f2fde38b",
					"vestingSchedules(uint256,address)": "87a0683c"
				}
			},
			"storageLayout": {
				"storage": [
					{
						"astId": 1760,
						"contract": "RVA/Vesting.sol:TokenVesting",
						"label": "_owner",
						"offset": 0,
						"slot": "0",
						"type": "t_address"
					},
					{
						"astId": 3692,
						"contract": "RVA/Vesting.sol:TokenVesting",
						"label": "icoToken",
						"offset": 0,
						"slot": "1",
						"type": "t_contract(ERC20Token)3679"
					},
					{
						"astId": 3694,
						"contract": "RVA/Vesting.sol:TokenVesting",
						"label": "icoContract",
						"offset": 0,
						"slot": "2",
						"type": "t_address"
					},
					{
						"astId": 3718,
						"contract": "RVA/Vesting.sol:TokenVesting",
						"label": "vestingSchedules",
						"offset": 0,
						"slot": "3",
						"type": "t_mapping(t_uint256,t_mapping(t_address,t_struct(VestingSchedule)3711_storage))"
					}
				],
				"types": {
					"t_address": {
						"encoding": "inplace",
						"label": "address",
						"numberOfBytes": "20"
					},
					"t_contract(ERC20Token)3679": {
						"encoding": "inplace",
						"label": "contract ERC20Token",
						"numberOfBytes": "20"
					},
					"t_mapping(t_address,t_struct(VestingSchedule)3711_storage)": {
						"encoding": "mapping",
						"key": "t_address",
						"label": "mapping(address => struct TokenVesting.VestingSchedule)",
						"numberOfBytes": "32",
						"value": "t_struct(VestingSchedule)3711_storage"
					},
					"t_mapping(t_uint256,t_mapping(t_address,t_struct(VestingSchedule)3711_storage))": {
						"encoding": "mapping",
						"key": "t_uint256",
						"label": "mapping(uint256 => mapping(address => struct TokenVesting.VestingSchedule))",
						"numberOfBytes": "32",
						"value": "t_mapping(t_address,t_struct(VestingSchedule)3711_storage)"
					},
					"t_struct(VestingSchedule)3711_storage": {
						"encoding": "inplace",
						"label": "struct TokenVesting.VestingSchedule",
						"members": [
							{
								"astId": 3696,
								"contract": "RVA/Vesting.sol:TokenVesting",
								"label": "saleId",
								"offset": 0,
								"slot": "0",
								"type": "t_uint256"
							},
							{
								"astId": 3698,
								"contract": "RVA/Vesting.sol:TokenVesting",
								"label": "totalTokens",
								"offset": 0,
								"slot": "1",
								"type": "t_uint256"
							},
							{
								"astId": 3700,
								"contract": "RVA/Vesting.sol:TokenVesting",
								"label": "claimedTokens",
								"offset": 0,
								"slot": "2",
								"type": "t_uint256"
							},
							{
								"astId": 3702,
								"contract": "RVA/Vesting.sol:TokenVesting",
								"label": "lockedTokens",
								"offset": 0,
								"slot": "3",
								"type": "t_uint256"
							},
							{
								"astId": 3704,
								"contract": "RVA/Vesting.sol:TokenVesting",
								"label": "startTime",
								"offset": 0,
								"slot": "4",
								"type": "t_uint256"
							},
							{
								"astId": 3706,
								"contract": "RVA/Vesting.sol:TokenVesting",
								"label": "lockUpEndTime",
								"offset": 0,
								"slot": "5",
								"type": "t_uint256"
							},
							{
								"astId": 3708,
								"contract": "RVA/Vesting.sol:TokenVesting",
								"label": "vestingEndTime",
								"offset": 0,
								"slot": "6",
								"type": "t_uint256"
							},
							{
								"astId": 3710,
								"contract": "RVA/Vesting.sol:TokenVesting",
								"label": "vestingInterval",
								"offset": 0,
								"slot": "7",
								"type": "t_uint256"
							}
						],
						"numberOfBytes": "256"
					},
					"t_uint256": {
						"encoding": "inplace",
						"label": "uint256",
						"numberOfBytes": "32"
					}
				}
			},
			"userdoc": {
				"kind": "user",
				"methods": {},
				"version": 1
			}
		}
	}
}