{
	"RVA/Token.sol": {
		"erc20Token": {
			"abi": [
				{
					"inputs": [
						{
							"internalType": "string",
							"name": "name",
							"type": "string"
						},
						{
							"internalType": "string",
							"name": "symbol",
							"type": "string"
						}
					],
					"stateMutability": "nonpayable",
					"type": "constructor"
				},
				{
					"inputs": [
						{
							"internalType": "address",
							"name": "spender",
							"type": "address"
						},
						{
							"internalType": "uint256",
							"name": "allowance",
							"type": "uint256"
						},
						{
							"internalType": "uint256",
							"name": "needed",
							"type": "uint256"
						}
					],
					"name": "ERC20InsufficientAllowance",
					"type": "error"
				},
				{
					"inputs": [
						{
							"internalType": "address",
							"name": "sender",
							"type": "address"
						},
						{
							"internalType": "uint256",
							"name": "balance",
							"type": "uint256"
						},
						{
							"internalType": "uint256",
							"name": "needed",
							"type": "uint256"
						}
					],
					"name": "ERC20InsufficientBalance",
					"type": "error"
				},
				{
					"inputs": [
						{
							"internalType": "address",
							"name": "approver",
							"type": "address"
						}
					],
					"name": "ERC20InvalidApprover",
					"type": "error"
				},
				{
					"inputs": [
						{
							"internalType": "address",
							"name": "receiver",
							"type": "address"
						}
					],
					"name": "ERC20InvalidReceiver",
					"type": "error"
				},
				{
					"inputs": [
						{
							"internalType": "address",
							"name": "sender",
							"type": "address"
						}
					],
					"name": "ERC20InvalidSender",
					"type": "error"
				},
				{
					"inputs": [
						{
							"internalType": "address",
							"name": "spender",
							"type": "address"
						}
					],
					"name": "ERC20InvalidSpender",
					"type": "error"
				},
				{
					"inputs": [
						{
							"internalType": "address",
							"name": "owner",
							"type": "address"
						}
					],
					"name": "OwnableInvalidOwner",
					"type": "error"
				},
				{
					"inputs": [
						{
							"internalType": "address",
							"name": "account",
							"type": "address"
						}
					],
					"name": "OwnableUnauthorizedAccount",
					"type": "error"
				},
				{
					"anonymous": false,
					"inputs": [
						{
							"indexed": true,
							"internalType": "address",
							"name": "owner",
							"type": "address"
						},
						{
							"indexed": true,
							"internalType": "address",
							"name": "spender",
							"type": "address"
						},
						{
							"indexed": false,
							"internalType": "uint256",
							"name": "value",
							"type": "uint256"
						}
					],
					"name": "Approval",
					"type": "event"
				},
				{
					"anonymous": false,
					"inputs": [
						{
							"indexed": true,
							"internalType": "address",
							"name": "account",
							"type": "address"
						},
						{
							"indexed": false,
							"internalType": "bool",
							"name": "isBlacklisted",
							"type": "bool"
						}
					],
					"name": "Blacklisted",
					"type": "event"
				},
				{
					"anonymous": false,
					"inputs": [
						{
							"indexed": true,
							"internalType": "address",
							"name": "token",
							"type": "address"
						},
						{
							"indexed": false,
							"internalType": "uint256",
							"name": "amount",
							"type": "uint256"
						}
					],
					"name": "EmergencyTokenRecovered",
					"type": "event"
				},
				{
					"anonymous": false,
					"inputs": [
						{
							"indexed": true,
							"internalType": "address",
							"name": "icoContract",
							"type": "address"
						}
					],
					"name": "ICOContractSet",
					"type": "event"
				},
				{
					"anonymous": false,
					"inputs": [
						{
							"indexed": true,
							"internalType": "address",
							"name": "account",
							"type": "address"
						},
						{
							"indexed": false,
							"internalType": "uint256",
							"name": "lockedUntilTimestamp",
							"type": "uint256"
						}
					],
					"name": "LockupSet",
					"type": "event"
				},
				{
					"anonymous": false,
					"inputs": [
						{
							"indexed": true,
							"internalType": "address",
							"name": "previousOwner",
							"type": "address"
						},
						{
							"indexed": true,
							"internalType": "address",
							"name": "newOwner",
							"type": "address"
						}
					],
					"name": "OwnershipTransferred",
					"type": "event"
				},
				{
					"anonymous": false,
					"inputs": [
						{
							"indexed": false,
							"internalType": "address",
							"name": "account",
							"type": "address"
						}
					],
					"name": "Paused",
					"type": "event"
				},
				{
					"anonymous": false,
					"inputs": [
						{
							"indexed": true,
							"internalType": "address",
							"name": "from",
							"type": "address"
						},
						{
							"indexed": true,
							"internalType": "address",
							"name": "to",
							"type": "address"
						},
						{
							"indexed": false,
							"internalType": "uint256",
							"name": "value",
							"type": "uint256"
						}
					],
					"name": "Transfer",
					"type": "event"
				},
				{
					"anonymous": false,
					"inputs": [
						{
							"indexed": false,
							"internalType": "address",
							"name": "account",
							"type": "address"
						}
					],
					"name": "Unpaused",
					"type": "event"
				},
				{
					"inputs": [
						{
							"internalType": "address",
							"name": "owner",
							"type": "address"
						},
						{
							"internalType": "address",
							"name": "spender",
							"type": "address"
						}
					],
					"name": "allowance",
					"outputs": [
						{
							"internalType": "uint256",
							"name": "",
							"type": "uint256"
						}
					],
					"stateMutability": "view",
					"type": "function"
				},
				{
					"inputs": [
						{
							"internalType": "address",
							"name": "spender",
							"type": "address"
						},
						{
							"internalType": "uint256",
							"name": "value",
							"type": "uint256"
						}
					],
					"name": "approve",
					"outputs": [
						{
							"internalType": "bool",
							"name": "",
							"type": "bool"
						}
					],
					"stateMutability": "nonpayable",
					"type": "function"
				},
				{
					"inputs": [
						{
							"internalType": "address",
							"name": "account",
							"type": "address"
						}
					],
					"name": "balanceOf",
					"outputs": [
						{
							"internalType": "uint256",
							"name": "",
							"type": "uint256"
						}
					],
					"stateMutability": "view",
					"type": "function"
				},
				{
					"inputs": [
						{
							"internalType": "address[]",
							"name": "recipients",
							"type": "address[]"
						},
						{
							"internalType": "uint256[]",
							"name": "amounts",
							"type": "uint256[]"
						}
					],
					"name": "batchTransfer",
					"outputs": [],
					"stateMutability": "nonpayable",
					"type": "function"
				},
				{
					"inputs": [
						{
							"internalType": "address",
							"name": "",
							"type": "address"
						}
					],
					"name": "blacklisted",
					"outputs": [
						{
							"internalType": "bool",
							"name": "",
							"type": "bool"
						}
					],
					"stateMutability": "view",
					"type": "function"
				},
				{
					"inputs": [],
					"name": "decimals",
					"outputs": [
						{
							"internalType": "uint8",
							"name": "",
							"type": "uint8"
						}
					],
					"stateMutability": "pure",
					"type": "function"
				},
				{
					"inputs": [],
					"name": "icoContract",
					"outputs": [
						{
							"internalType": "address",
							"name": "",
							"type": "address"
						}
					],
					"stateMutability": "view",
					"type": "function"
				},
				{
					"inputs": [
						{
							"internalType": "address",
							"name": "account",
							"type": "address"
						}
					],
					"name": "isBlacklisted",
					"outputs": [
						{
							"internalType": "bool",
							"name": "",
							"type": "bool"
						}
					],
					"stateMutability": "view",
					"type": "function"
				},
				{
					"inputs": [
						{
							"internalType": "address",
							"name": "",
							"type": "address"
						}
					],
					"name": "lockedUntil",
					"outputs": [
						{
							"internalType": "uint256",
							"name": "",
							"type": "uint256"
						}
					],
					"stateMutability": "view",
					"type": "function"
				},
				{
					"inputs": [],
					"name": "name",
					"outputs": [
						{
							"internalType": "string",
							"name": "",
							"type": "string"
						}
					],
					"stateMutability": "view",
					"type": "function"
				},
				{
					"inputs": [],
					"name": "owner",
					"outputs": [
						{
							"internalType": "address",
							"name": "",
							"type": "address"
						}
					],
					"stateMutability": "view",
					"type": "function"
				},
				{
					"inputs": [],
					"name": "pause",
					"outputs": [],
					"stateMutability": "nonpayable",
					"type": "function"
				},
				{
					"inputs": [],
					"name": "paused",
					"outputs": [
						{
							"internalType": "bool",
							"name": "",
							"type": "bool"
						}
					],
					"stateMutability": "view",
					"type": "function"
				},
				{
					"inputs": [],
					"name": "renounceOwnership",
					"outputs": [],
					"stateMutability": "nonpayable",
					"type": "function"
				},
				{
					"inputs": [
						{
							"internalType": "address",
							"name": "account",
							"type": "address"
						},
						{
							"internalType": "bool",
							"name": "status",
							"type": "bool"
						}
					],
					"name": "setBlacklist",
					"outputs": [],
					"stateMutability": "nonpayable",
					"type": "function"
				},
				{
					"inputs": [
						{
							"internalType": "address",
							"name": "_icoContract",
							"type": "address"
						}
					],
					"name": "setICOContract",
					"outputs": [],
					"stateMutability": "nonpayable",
					"type": "function"
				},
				{
					"inputs": [
						{
							"internalType": "address",
							"name": "account",
							"type": "address"
						},
						{
							"internalType": "uint256",
							"name": "timestamp",
							"type": "uint256"
						}
					],
					"name": "setLockup",
					"outputs": [],
					"stateMutability": "nonpayable",
					"type": "function"
				},
				{
					"inputs": [],
					"name": "symbol",
					"outputs": [
						{
							"internalType": "string",
							"name": "",
							"type": "string"
						}
					],
					"stateMutability": "view",
					"type": "function"
				},
				{
					"inputs": [],
					"name": "totalSupply",
					"outputs": [
						{
							"internalType": "uint256",
							"name": "",
							"type": "uint256"
						}
					],
					"stateMutability": "view",
					"type": "function"
				},
				{
					"inputs": [
						{
							"internalType": "address",
							"name": "recipient",
							"type": "address"
						},
						{
							"internalType": "uint256",
							"name": "amount",
							"type": "uint256"
						}
					],
					"name": "transfer",
					"outputs": [
						{
							"internalType": "bool",
							"name": "",
							"type": "bool"
						}
					],
					"stateMutability": "nonpayable",
					"type": "function"
				},
				{
					"inputs": [
						{
							"internalType": "address",
							"name": "sender",
							"type": "address"
						},
						{
							"internalType": "address",
							"name": "recipient",
							"type": "address"
						},
						{
							"internalType": "uint256",
							"name": "amount",
							"type": "uint256"
						}
					],
					"name": "transferFrom",
					"outputs": [
						{
							"internalType": "bool",
							"name": "",
							"type": "bool"
						}
					],
					"stateMutability": "nonpayable",
					"type": "function"
				},
				{
					"inputs": [
						{
							"internalType": "address",
							"name": "newOwner",
							"type": "address"
						}
					],
					"name": "transferOwnership",
					"outputs": [],
					"stateMutability": "nonpayable",
					"type": "function"
				},
				{
					"inputs": [],
					"name": "unpause",
					"outputs": [],
					"stateMutability": "nonpayable",
					"type": "function"
				}
			],
			"devdoc": {
				"errors": {
					"ERC20InsufficientAllowance(address,uint256,uint256)": [
						{
							"details": "Indicates a failure with the `spender`’s `allowance`. Used in transfers.",
							"params": {
								"allowance": "Amount of tokens a `spender` is allowed to operate with.",
								"needed": "Minimum amount required to perform a transfer.",
								"spender": "Address that may be allowed to operate on tokens without being their owner."
							}
						}
					],
					"ERC20InsufficientBalance(address,uint256,uint256)": [
						{
							"details": "Indicates an error related to the current `balance` of a `sender`. Used in transfers.",
							"params": {
								"balance": "Current balance for the interacting account.",
								"needed": "Minimum amount required to perform a transfer.",
								"sender": "Address whose tokens are being transferred."
							}
						}
					],
					"ERC20InvalidApprover(address)": [
						{
							"details": "Indicates a failure with the `approver` of a token to be approved. Used in approvals.",
							"params": {
								"approver": "Address initiating an approval operation."
							}
						}
					],
					"ERC20InvalidReceiver(address)": [
						{
							"details": "Indicates a failure with the token `receiver`. Used in transfers.",
							"params": {
								"receiver": "Address to which tokens are being transferred."
							}
						}
					],
					"ERC20InvalidSender(address)": [
						{
							"details": "Indicates a failure with the token `sender`. Used in transfers.",
							"params": {
								"sender": "Address whose tokens are being transferred."
							}
						}
					],
					"ERC20InvalidSpender(address)": [
						{
							"details": "Indicates a failure with the `spender` to be approved. Used in approvals.",
							"params": {
								"spender": "Address that may be allowed to operate on tokens without being their owner."
							}
						}
					],
					"OwnableInvalidOwner(address)": [
						{
							"details": "The owner is not a valid owner account. (eg. `address(0)`)"
						}
					],
					"OwnableUnauthorizedAccount(address)": [
						{
							"details": "The caller account is not authorized to perform an operation."
						}
					]
				},
				"events": {
					"Approval(address,address,uint256)": {
						"details": "Emitted when the allowance of a `spender` for an `owner` is set by a call to {approve}. `value` is the new allowance."
					},
					"Paused(address)": {
						"details": "Emitted when the pause is triggered by `account`."
					},
					"Transfer(address,address,uint256)": {
						"details": "Emitted when `value` tokens are moved from one account (`from`) to another (`to`). Note that `value` may be zero."
					},
					"Unpaused(address)": {
						"details": "Emitted when the pause is lifted by `account`."
					}
				},
				"kind": "dev",
				"methods": {
					"allowance(address,address)": {
						"details": "See {IERC20-allowance}."
					},
					"approve(address,uint256)": {
						"details": "See {IERC20-approve}. NOTE: If `value` is the maximum `uint256`, the allowance is not updated on `transferFrom`. This is semantically equivalent to an infinite approval. Requirements: - `spender` cannot be the zero address."
					},
					"balanceOf(address)": {
						"details": "See {IERC20-balanceOf}."
					},
					"decimals()": {
						"details": "Returns the number of decimals used to get its user representation. For example, if `decimals` equals `2`, a balance of `505` tokens should be displayed to a user as `5.05` (`505 / 10 ** 2`). Tokens usually opt for a value of 18, imitating the relationship between Ether and Wei. This is the default value returned by this function, unless it's overridden. NOTE: This information is only used for _display_ purposes: it in no way affects any of the arithmetic of the contract, including {IERC20-balanceOf} and {IERC20-transfer}."
					},
					"name()": {
						"details": "Returns the name of the token."
					},
					"owner()": {
						"details": "Returns the address of the current owner."
					},
					"paused()": {
						"details": "Returns true if the contract is paused, and false otherwise."
					},
					"renounceOwnership()": {
						"details": "Leaves the contract without owner. It will not be possible to call `onlyOwner` functions. Can only be called by the current owner. NOTE: Renouncing ownership will leave the contract without an owner, thereby disabling any functionality that is only available to the owner."
					},
					"symbol()": {
						"details": "Returns the symbol of the token, usually a shorter version of the name."
					},
					"totalSupply()": {
						"details": "See {IERC20-totalSupply}."
					},
					"transferOwnership(address)": {
						"details": "Transfers ownership of the contract to a new account (`newOwner`). Can only be called by the current owner."
					}
				},
				"version": 1
			},
			"evm": {
				"assembly": "    /* \"RVA/Token.sol\":225:3303  contract erc20Token is ERC20, Ownable, Pausable {... */\n  mstore(0x40, 0x80)\n    /* \"RVA/Token.sol\":343:361  1000000 * 10 ** 18 */\n  0xd3c21bcecceda1000000\n    /* \"RVA/Token.sol\":312:361  uint256 private _totalSupply = 1000000 * 10 ** 18 */\n  0x07\n  sstore\n    /* \"RVA/Token.sol\":749:892  constructor(string memory name, string memory symbol) ERC20(name, symbol) Ownable(msg.sender) {... */\n  callvalue\n  dup1\n  iszero\n  tag_1\n  jumpi\n  0x00\n  dup1\n  revert\ntag_1:\n  pop\n  mload(0x40)\n  sub(codesize, bytecodeSize)\n  dup1\n  bytecodeSize\n  dup4\n  codecopy\n  dup2\n  add\n  0x40\n  dup2\n  swap1\n  mstore\n  tag_2\n  swap2\n  tag_3\n  jump\t// in\ntag_2:\n    /* \"RVA/Token.sol\":831:841  msg.sender */\n  caller\n    /* \"RVA/Token.sol\":809:813  name */\n  dup3\n    /* \"RVA/Token.sol\":815:821  symbol */\n  dup3\n    /* \"@openzeppelin/contracts/token/ERC20/ERC20.sol\":1667:1672  _name */\n  0x03\n    /* \"@openzeppelin/contracts/token/ERC20/ERC20.sol\":1667:1680  _name = name_ */\n  tag_9\n    /* \"RVA/Token.sol\":809:813  name */\n  dup4\n    /* \"@openzeppelin/contracts/token/ERC20/ERC20.sol\":1667:1672  _name */\n  dup3\n    /* \"@openzeppelin/contracts/token/ERC20/ERC20.sol\":1667:1680  _name = name_ */\n  tag_10\n  jump\t// in\ntag_9:\n  pop\n    /* \"@openzeppelin/contracts/token/ERC20/ERC20.sol\":1690:1697  _symbol */\n  0x04\n    /* \"@openzeppelin/contracts/token/ERC20/ERC20.sol\":1690:1707  _symbol = symbol_ */\n  tag_11\n    /* \"@openzeppelin/contracts/token/ERC20/ERC20.sol\":1700:1707  symbol_ */\n  dup3\n    /* \"@openzeppelin/contracts/token/ERC20/ERC20.sol\":1690:1697  _symbol */\n  dup3\n    /* \"@openzeppelin/contracts/token/ERC20/ERC20.sol\":1690:1707  _symbol = symbol_ */\n  tag_10\n  jump\t// in\ntag_11:\n  pop\n  pop\n  pop\n  sub(shl(0xa0, 0x01), 0x01)\n    /* \"@openzeppelin/contracts/access/Ownable.sol\":1273:1299  initialOwner == address(0) */\n  dup2\n  and\n    /* \"@openzeppelin/contracts/access/Ownable.sol\":1269:1364  if (initialOwner == address(0)) {... */\n  tag_13\n  jumpi\n    /* \"@openzeppelin/contracts/access/Ownable.sol\":1322:1353  OwnableInvalidOwner(address(0)) */\n  mload(0x40)\n  shl(0xe0, 0x1e4fbdf7)\n  dup2\n  mstore\n    /* \"@openzeppelin/contracts/access/Ownable.sol\":1350:1351  0 */\n  0x00\n    /* \"@openzeppelin/contracts/access/Ownable.sol\":1322:1353  OwnableInvalidOwner(address(0)) */\n  0x04\n  dup3\n  add\n    /* \"#utility.yul\":4202:4253   */\n  mstore\n    /* \"#utility.yul\":4175:4193   */\n  0x24\n  add\n    /* \"@openzeppelin/contracts/access/Ownable.sol\":1322:1353  OwnableInvalidOwner(address(0)) */\ntag_14:\n  mload(0x40)\n  dup1\n  swap2\n  sub\n  swap1\n  revert\n    /* \"@openzeppelin/contracts/access/Ownable.sol\":1269:1364  if (initialOwner == address(0)) {... */\ntag_13:\n    /* \"@openzeppelin/contracts/access/Ownable.sol\":1373:1405  _transferOwnership(initialOwner) */\n  tag_16\n    /* \"@openzeppelin/contracts/access/Ownable.sol\":1392:1404  initialOwner */\n  dup2\n    /* \"@openzeppelin/contracts/access/Ownable.sol\":1373:1391  _transferOwnership */\n  tag_17\n    /* \"@openzeppelin/contracts/access/Ownable.sol\":1373:1405  _transferOwnership(initialOwner) */\n  jump\t// in\ntag_16:\n  pop\n    /* \"@openzeppelin/contracts/security/Pausable.sol\":996:1003  _paused */\n  0x05\n    /* \"@openzeppelin/contracts/security/Pausable.sol\":996:1011  _paused = false */\n  dup1\n  sload\n  not(shl(0xa0, 0xff))\n  and\n  swap1\n  sstore\n    /* \"RVA/Token.sol\":871:883  _totalSupply */\n  sload(0x07)\n    /* \"RVA/Token.sol\":853:884  _mint(msg.sender, _totalSupply) */\n  tag_20\n  swap1\n    /* \"RVA/Token.sol\":859:869  msg.sender */\n  caller\n  swap1\n    /* \"RVA/Token.sol\":853:858  _mint */\n  tag_21\n    /* \"RVA/Token.sol\":853:884  _mint(msg.sender, _totalSupply) */\n  jump\t// in\ntag_20:\n    /* \"RVA/Token.sol\":749:892  constructor(string memory name, string memory symbol) ERC20(name, symbol) Ownable(msg.sender) {... */\n  pop\n  pop\n    /* \"RVA/Token.sol\":225:3303  contract erc20Token is ERC20, Ownable, Pausable {... */\n  jump(tag_47)\n    /* \"@openzeppelin/contracts/access/Ownable.sol\":2912:3099  function _transferOwnership(address newOwner) internal virtual {... */\ntag_17:\n    /* \"@openzeppelin/contracts/access/Ownable.sol\":3004:3010  _owner */\n  0x05\n  dup1\n  sload\n  sub(shl(0xa0, 0x01), 0x01)\n    /* \"@openzeppelin/contracts/access/Ownable.sol\":3020:3037  _owner = newOwner */\n  dup4\n  dup2\n  and\n  not(sub(shl(0xa0, 0x01), 0x01))\n  dup4\n  and\n  dup2\n  or\n  swap1\n  swap4\n  sstore\n    /* \"@openzeppelin/contracts/access/Ownable.sol\":3052:3092  OwnershipTransferred(oldOwner, newOwner) */\n  mload(0x40)\n    /* \"@openzeppelin/contracts/access/Ownable.sol\":3004:3010  _owner */\n  swap2\n  and\n  swap2\n    /* \"@openzeppelin/contracts/access/Ownable.sol\":3020:3037  _owner = newOwner */\n  swap1\n    /* \"@openzeppelin/contracts/access/Ownable.sol\":3004:3010  _owner */\n  dup3\n  swap1\n    /* \"@openzeppelin/contracts/access/Ownable.sol\":3052:3092  OwnershipTransferred(oldOwner, newOwner) */\n  0x8be0079c531659141344cd1fd0a4f28419497f9722a3daafe3b4186f6b6457e0\n  swap1\n    /* \"@openzeppelin/contracts/access/Ownable.sol\":2985:3001  address oldOwner */\n  0x00\n  swap1\n    /* \"@openzeppelin/contracts/access/Ownable.sol\":3052:3092  OwnershipTransferred(oldOwner, newOwner) */\n  log3\n    /* \"@openzeppelin/contracts/access/Ownable.sol\":2975:3099  {... */\n  pop\n    /* \"@openzeppelin/contracts/access/Ownable.sol\":2912:3099  function _transferOwnership(address newOwner) internal virtual {... */\n  pop\n  jump\t// out\n    /* \"@openzeppelin/contracts/token/ERC20/ERC20.sol\":7458:7666  function _mint(address account, uint256 value) internal {... */\ntag_21:\n  sub(shl(0xa0, 0x01), 0x01)\n    /* \"@openzeppelin/contracts/token/ERC20/ERC20.sol\":7528:7549  account == address(0) */\n  dup3\n  and\n    /* \"@openzeppelin/contracts/token/ERC20/ERC20.sol\":7524:7615  if (account == address(0)) {... */\n  tag_25\n  jumpi\n    /* \"@openzeppelin/contracts/token/ERC20/ERC20.sol\":7572:7604  ERC20InvalidReceiver(address(0)) */\n  mload(0x40)\n  shl(0xe0, 0xec442f05)\n  dup2\n  mstore\n    /* \"@openzeppelin/contracts/token/ERC20/ERC20.sol\":7601:7602  0 */\n  0x00\n    /* \"@openzeppelin/contracts/token/ERC20/ERC20.sol\":7572:7604  ERC20InvalidReceiver(address(0)) */\n  0x04\n  dup3\n  add\n    /* \"#utility.yul\":4202:4253   */\n  mstore\n    /* \"#utility.yul\":4175:4193   */\n  0x24\n  add\n    /* \"@openzeppelin/contracts/token/ERC20/ERC20.sol\":7572:7604  ERC20InvalidReceiver(address(0)) */\n  tag_14\n    /* \"#utility.yul\":4056:4259   */\n  jump\n    /* \"@openzeppelin/contracts/token/ERC20/ERC20.sol\":7524:7615  if (account == address(0)) {... */\ntag_25:\n    /* \"@openzeppelin/contracts/token/ERC20/ERC20.sol\":7624:7659  _update(address(0), account, value) */\n  tag_27\n    /* \"@openzeppelin/contracts/token/ERC20/ERC20.sol\":7640:7641  0 */\n  0x00\n    /* \"@openzeppelin/contracts/token/ERC20/ERC20.sol\":7644:7651  account */\n  dup4\n    /* \"@openzeppelin/contracts/token/ERC20/ERC20.sol\":7653:7658  value */\n  dup4\n    /* \"@openzeppelin/contracts/token/ERC20/ERC20.sol\":7624:7631  _update */\n  tag_28\n    /* \"@openzeppelin/contracts/token/ERC20/ERC20.sol\":7624:7659  _update(address(0), account, value) */\n  jump\t// in\ntag_27:\n    /* \"@openzeppelin/contracts/token/ERC20/ERC20.sol\":7458:7666  function _mint(address account, uint256 value) internal {... */\n  pop\n  pop\n  jump\t// out\n    /* \"@openzeppelin/contracts/token/ERC20/ERC20.sol\":6008:7115  function _update(address from, address to, uint256 value) internal virtual {... */\ntag_28:\n  sub(shl(0xa0, 0x01), 0x01)\n    /* \"@openzeppelin/contracts/token/ERC20/ERC20.sol\":6097:6115  from == address(0) */\n  dup4\n  and\n    /* \"@openzeppelin/contracts/token/ERC20/ERC20.sol\":6093:6633  if (from == address(0)) {... */\n  tag_30\n  jumpi\n    /* \"@openzeppelin/contracts/token/ERC20/ERC20.sol\":6249:6254  value */\n  dup1\n    /* \"@openzeppelin/contracts/token/ERC20/ERC20.sol\":6233:6245  _totalSupply */\n  0x02\n  0x00\n    /* \"@openzeppelin/contracts/token/ERC20/ERC20.sol\":6233:6254  _totalSupply += value */\n  dup3\n  dup3\n  sload\n  tag_31\n  swap2\n  swap1\n  tag_32\n  jump\t// in\ntag_31:\n  swap1\n  swap2\n  sstore\n  pop\n    /* \"@openzeppelin/contracts/token/ERC20/ERC20.sol\":6093:6633  if (from == address(0)) {... */\n  tag_33\n  swap1\n  pop\n  jump\ntag_30:\n  sub(shl(0xa0, 0x01), 0x01)\n    /* \"@openzeppelin/contracts/token/ERC20/ERC20.sol\":6307:6322  _balances[from] */\n  dup4\n  and\n    /* \"@openzeppelin/contracts/token/ERC20/ERC20.sol\":6285:6304  uint256 fromBalance */\n  0x00\n    /* \"@openzeppelin/contracts/token/ERC20/ERC20.sol\":6307:6322  _balances[from] */\n  swap1\n  dup2\n  mstore\n  0x20\n  dup2\n  swap1\n  mstore\n  0x40\n  swap1\n  keccak256\n  sload\n    /* \"@openzeppelin/contracts/token/ERC20/ERC20.sol\":6340:6359  fromBalance < value */\n  dup2\n  dup2\n  lt\n    /* \"@openzeppelin/contracts/token/ERC20/ERC20.sol\":6336:6451  if (fromBalance < value) {... */\n  iszero\n  tag_34\n  jumpi\n    /* \"@openzeppelin/contracts/token/ERC20/ERC20.sol\":6386:6436  ERC20InsufficientBalance(from, fromBalance, value) */\n  mload(0x40)\n  shl(0xe2, 0x391434e3)\n  dup2\n  mstore\n  sub(shl(0xa0, 0x01), 0x01)\n    /* \"#utility.yul\":4711:4743   */\n  dup6\n  and\n    /* \"@openzeppelin/contracts/token/ERC20/ERC20.sol\":6386:6436  ERC20InsufficientBalance(from, fromBalance, value) */\n  0x04\n  dup3\n  add\n    /* \"#utility.yul\":4693:4744   */\n  mstore\n    /* \"#utility.yul\":4760:4778   */\n  0x24\n  dup2\n  add\n    /* \"#utility.yul\":4753:4787   */\n  dup3\n  swap1\n  mstore\n    /* \"#utility.yul\":4803:4821   */\n  0x44\n  dup2\n  add\n    /* \"#utility.yul\":4796:4830   */\n  dup4\n  swap1\n  mstore\n    /* \"#utility.yul\":4666:4684   */\n  0x64\n  add\n    /* \"@openzeppelin/contracts/token/ERC20/ERC20.sol\":6386:6436  ERC20InsufficientBalance(from, fromBalance, value) */\n  tag_14\n    /* \"#utility.yul\":4491:4836   */\n  jump\n    /* \"@openzeppelin/contracts/token/ERC20/ERC20.sol\":6336:6451  if (fromBalance < value) {... */\ntag_34:\n  sub(shl(0xa0, 0x01), 0x01)\n    /* \"@openzeppelin/contracts/token/ERC20/ERC20.sol\":6571:6586  _balances[from] */\n  dup5\n  and\n    /* \"@openzeppelin/contracts/token/ERC20/ERC20.sol\":6571:6580  _balances */\n  0x00\n    /* \"@openzeppelin/contracts/token/ERC20/ERC20.sol\":6571:6586  _balances[from] */\n  swap1\n  dup2\n  mstore\n  0x20\n  dup2\n  swap1\n  mstore\n  0x40\n  swap1\n  keccak256\n    /* \"@openzeppelin/contracts/token/ERC20/ERC20.sol\":6589:6608  fromBalance - value */\n  swap1\n  dup3\n  swap1\n  sub\n    /* \"@openzeppelin/contracts/token/ERC20/ERC20.sol\":6571:6608  _balances[from] = fromBalance - value */\n  swap1\n  sstore\n    /* \"@openzeppelin/contracts/token/ERC20/ERC20.sol\":6093:6633  if (from == address(0)) {... */\ntag_33:\n  sub(shl(0xa0, 0x01), 0x01)\n    /* \"@openzeppelin/contracts/token/ERC20/ERC20.sol\":6647:6663  to == address(0) */\n  dup3\n  and\n    /* \"@openzeppelin/contracts/token/ERC20/ERC20.sol\":6643:7068  if (to == address(0)) {... */\n  tag_37\n  jumpi\n    /* \"@openzeppelin/contracts/token/ERC20/ERC20.sol\":6810:6822  _totalSupply */\n  0x02\n    /* \"@openzeppelin/contracts/token/ERC20/ERC20.sol\":6810:6831  _totalSupply -= value */\n  dup1\n  sload\n  dup3\n  swap1\n  sub\n  swap1\n  sstore\n    /* \"@openzeppelin/contracts/token/ERC20/ERC20.sol\":6643:7068  if (to == address(0)) {... */\n  jump(tag_38)\ntag_37:\n  sub(shl(0xa0, 0x01), 0x01)\n    /* \"@openzeppelin/contracts/token/ERC20/ERC20.sol\":7021:7034  _balances[to] */\n  dup3\n  and\n    /* \"@openzeppelin/contracts/token/ERC20/ERC20.sol\":7021:7030  _balances */\n  0x00\n    /* \"@openzeppelin/contracts/token/ERC20/ERC20.sol\":7021:7034  _balances[to] */\n  swap1\n  dup2\n  mstore\n  0x20\n  dup2\n  swap1\n  mstore\n  0x40\n  swap1\n  keccak256\n    /* \"@openzeppelin/contracts/token/ERC20/ERC20.sol\":7021:7043  _balances[to] += value */\n  dup1\n  sload\n  dup3\n  add\n  swap1\n  sstore\n    /* \"@openzeppelin/contracts/token/ERC20/ERC20.sol\":6643:7068  if (to == address(0)) {... */\ntag_38:\n    /* \"@openzeppelin/contracts/token/ERC20/ERC20.sol\":7098:7100  to */\n  dup2\n  sub(shl(0xa0, 0x01), 0x01)\n    /* \"@openzeppelin/contracts/token/ERC20/ERC20.sol\":7083:7108  Transfer(from, to, value) */\n  and\n    /* \"@openzeppelin/contracts/token/ERC20/ERC20.sol\":7092:7096  from */\n  dup4\n  sub(shl(0xa0, 0x01), 0x01)\n    /* \"@openzeppelin/contracts/token/ERC20/ERC20.sol\":7083:7108  Transfer(from, to, value) */\n  and\n  0xddf252ad1be2c89b69c2b068fc378daa952ba7f163c4a11628f55a4df523b3ef\n    /* \"@openzeppelin/contracts/token/ERC20/ERC20.sol\":7102:7107  value */\n  dup4\n    /* \"@openzeppelin/contracts/token/ERC20/ERC20.sol\":7083:7108  Transfer(from, to, value) */\n  mload(0x40)\n  tag_39\n  swap2\n    /* \"#utility.yul\":4987:5012   */\n  dup2\n  mstore\n    /* \"#utility.yul\":4975:4977   */\n  0x20\n    /* \"#utility.yul\":4960:4978   */\n  add\n  swap1\n    /* \"#utility.yul\":4841:5018   */\n  jump\n    /* \"@openzeppelin/contracts/token/ERC20/ERC20.sol\":7083:7108  Transfer(from, to, value) */\ntag_39:\n  mload(0x40)\n  dup1\n  swap2\n  sub\n  swap1\n  log3\n    /* \"@openzeppelin/contracts/token/ERC20/ERC20.sol\":6008:7115  function _update(address from, address to, uint256 value) internal virtual {... */\n  pop\n  pop\n  pop\n  jump\t// out\n    /* \"#utility.yul\":14:141   */\ntag_41:\n    /* \"#utility.yul\":75:85   */\n  0x4e487b71\n    /* \"#utility.yul\":70:73   */\n  0xe0\n    /* \"#utility.yul\":66:86   */\n  shl\n    /* \"#utility.yul\":63:64   */\n  0x00\n    /* \"#utility.yul\":56:87   */\n  mstore\n    /* \"#utility.yul\":106:110   */\n  0x41\n    /* \"#utility.yul\":103:104   */\n  0x04\n    /* \"#utility.yul\":96:111   */\n  mstore\n    /* \"#utility.yul\":130:134   */\n  0x24\n    /* \"#utility.yul\":127:128   */\n  0x00\n    /* \"#utility.yul\":120:135   */\n  revert\n    /* \"#utility.yul\":146:980   */\ntag_42:\n    /* \"#utility.yul\":200:205   */\n  0x00\n    /* \"#utility.yul\":253:256   */\n  dup3\n    /* \"#utility.yul\":246:250   */\n  0x1f\n    /* \"#utility.yul\":238:244   */\n  dup4\n    /* \"#utility.yul\":234:251   */\n  add\n    /* \"#utility.yul\":230:257   */\n  slt\n    /* \"#utility.yul\":220:275   */\n  tag_50\n  jumpi\n    /* \"#utility.yul\":271:272   */\n  0x00\n    /* \"#utility.yul\":268:269   */\n  dup1\n    /* \"#utility.yul\":261:273   */\n  revert\n    /* \"#utility.yul\":220:275   */\ntag_50:\n    /* \"#utility.yul\":298:311   */\n  dup2\n  mload\n  sub(shl(0x40, 0x01), 0x01)\n    /* \"#utility.yul\":323:353   */\n  dup2\n  gt\n    /* \"#utility.yul\":320:376   */\n  iszero\n  tag_52\n  jumpi\n    /* \"#utility.yul\":356:374   */\n  tag_52\n  tag_41\n  jump\t// in\ntag_52:\n    /* \"#utility.yul\":405:407   */\n  0x40\n    /* \"#utility.yul\":399:408   */\n  mload\n    /* \"#utility.yul\":497:499   */\n  0x1f\n    /* \"#utility.yul\":459:476   */\n  dup3\n  add\n  not(0x1f)\n    /* \"#utility.yul\":455:486   */\n  swap1\n  dup2\n  and\n    /* \"#utility.yul\":488:490   */\n  0x3f\n    /* \"#utility.yul\":451:491   */\n  add\n    /* \"#utility.yul\":447:501   */\n  and\n    /* \"#utility.yul\":435:502   */\n  dup2\n  add\n  sub(shl(0x40, 0x01), 0x01)\n    /* \"#utility.yul\":517:551   */\n  dup2\n  gt\n    /* \"#utility.yul\":553:575   */\n  dup3\n  dup3\n  lt\n    /* \"#utility.yul\":514:576   */\n  or\n    /* \"#utility.yul\":511:599   */\n  iszero\n  tag_54\n  jumpi\n    /* \"#utility.yul\":579:597   */\n  tag_54\n  tag_41\n  jump\t// in\ntag_54:\n    /* \"#utility.yul\":615:617   */\n  0x40\n    /* \"#utility.yul\":608:630   */\n  mstore\n    /* \"#utility.yul\":639:661   */\n  dup2\n  dup2\n  mstore\n    /* \"#utility.yul\":680:699   */\n  dup4\n  dup3\n  add\n    /* \"#utility.yul\":701:705   */\n  0x20\n    /* \"#utility.yul\":676:706   */\n  add\n    /* \"#utility.yul\":673:712   */\n  dup6\n  lt\n    /* \"#utility.yul\":670:729   */\n  iszero\n  tag_55\n  jumpi\n    /* \"#utility.yul\":725:726   */\n  0x00\n    /* \"#utility.yul\":722:723   */\n  dup1\n    /* \"#utility.yul\":715:727   */\n  revert\n    /* \"#utility.yul\":670:729   */\ntag_55:\n    /* \"#utility.yul\":747:748   */\n  0x00\n    /* \"#utility.yul\":757:900   */\ntag_56:\n    /* \"#utility.yul\":771:777   */\n  dup3\n    /* \"#utility.yul\":768:769   */\n  dup2\n    /* \"#utility.yul\":765:778   */\n  lt\n    /* \"#utility.yul\":757:900   */\n  iszero\n  tag_58\n  jumpi\n    /* \"#utility.yul\":883:887   */\n  0x20\n    /* \"#utility.yul\":867:881   */\n  dup2\n  dup7\n  add\n    /* \"#utility.yul\":863:888   */\n  dup2\n  add\n    /* \"#utility.yul\":857:889   */\n  mload\n    /* \"#utility.yul\":834:848   */\n  dup4\n  dup4\n  add\n    /* \"#utility.yul\":830:855   */\n  dup3\n  add\n    /* \"#utility.yul\":823:890   */\n  mstore\n    /* \"#utility.yul\":786:798   */\n  add\n    /* \"#utility.yul\":757:900   */\n  jump(tag_56)\ntag_58:\n  pop\n    /* \"#utility.yul\":948:949   */\n  0x00\n    /* \"#utility.yul\":920:939   */\n  swap2\n  dup2\n  add\n    /* \"#utility.yul\":941:945   */\n  0x20\n    /* \"#utility.yul\":916:946   */\n  add\n    /* \"#utility.yul\":909:950   */\n  swap2\n  swap1\n  swap2\n  mstore\n    /* \"#utility.yul\":924:930   */\n  swap4\n    /* \"#utility.yul\":146:980   */\n  swap3\n  pop\n  pop\n  pop\n  jump\t// out\n    /* \"#utility.yul\":985:1542   */\ntag_3:\n    /* \"#utility.yul\":1084:1090   */\n  0x00\n    /* \"#utility.yul\":1092:1098   */\n  dup1\n    /* \"#utility.yul\":1145:1147   */\n  0x40\n    /* \"#utility.yul\":1133:1142   */\n  dup4\n    /* \"#utility.yul\":1124:1131   */\n  dup6\n    /* \"#utility.yul\":1120:1143   */\n  sub\n    /* \"#utility.yul\":1116:1148   */\n  slt\n    /* \"#utility.yul\":1113:1165   */\n  iszero\n  tag_60\n  jumpi\n    /* \"#utility.yul\":1161:1162   */\n  0x00\n    /* \"#utility.yul\":1158:1159   */\n  dup1\n    /* \"#utility.yul\":1151:1163   */\n  revert\n    /* \"#utility.yul\":1113:1165   */\ntag_60:\n    /* \"#utility.yul\":1188:1204   */\n  dup3\n  mload\n  sub(shl(0x40, 0x01), 0x01)\n    /* \"#utility.yul\":1216:1246   */\n  dup2\n  gt\n    /* \"#utility.yul\":1213:1263   */\n  iszero\n  tag_61\n  jumpi\n    /* \"#utility.yul\":1259:1260   */\n  0x00\n    /* \"#utility.yul\":1256:1257   */\n  dup1\n    /* \"#utility.yul\":1249:1261   */\n  revert\n    /* \"#utility.yul\":1213:1263   */\ntag_61:\n    /* \"#utility.yul\":1282:1343   */\n  tag_62\n    /* \"#utility.yul\":1335:1342   */\n  dup6\n    /* \"#utility.yul\":1326:1332   */\n  dup3\n    /* \"#utility.yul\":1315:1324   */\n  dup7\n    /* \"#utility.yul\":1311:1333   */\n  add\n    /* \"#utility.yul\":1282:1343   */\n  tag_42\n  jump\t// in\ntag_62:\n    /* \"#utility.yul\":1389:1391   */\n  0x20\n    /* \"#utility.yul\":1374:1392   */\n  dup6\n  add\n    /* \"#utility.yul\":1368:1393   */\n  mload\n    /* \"#utility.yul\":1272:1343   */\n  swap1\n  swap4\n  pop\n    /* \"#utility.yul\":1368:1393   */\n  swap1\n  pop\n  sub(shl(0x40, 0x01), 0x01)\n    /* \"#utility.yul\":1405:1437   */\n  dup2\n  gt\n    /* \"#utility.yul\":1402:1454   */\n  iszero\n  tag_63\n  jumpi\n    /* \"#utility.yul\":1450:1451   */\n  0x00\n    /* \"#utility.yul\":1447:1448   */\n  dup1\n    /* \"#utility.yul\":1440:1452   */\n  revert\n    /* \"#utility.yul\":1402:1454   */\ntag_63:\n    /* \"#utility.yul\":1473:1536   */\n  tag_64\n    /* \"#utility.yul\":1528:1535   */\n  dup6\n    /* \"#utility.yul\":1517:1525   */\n  dup3\n    /* \"#utility.yul\":1506:1515   */\n  dup7\n    /* \"#utility.yul\":1502:1526   */\n  add\n    /* \"#utility.yul\":1473:1536   */\n  tag_42\n  jump\t// in\ntag_64:\n    /* \"#utility.yul\":1463:1536   */\n  swap2\n  pop\n  pop\n    /* \"#utility.yul\":985:1542   */\n  swap3\n  pop\n  swap3\n  swap1\n  pop\n  jump\t// out\n    /* \"#utility.yul\":1547:1927   */\ntag_43:\n    /* \"#utility.yul\":1626:1627   */\n  0x01\n    /* \"#utility.yul\":1622:1634   */\n  dup2\n  dup2\n  shr\n  swap1\n    /* \"#utility.yul\":1669:1681   */\n  dup3\n  and\n  dup1\n    /* \"#utility.yul\":1690:1751   */\n  tag_66\n  jumpi\n    /* \"#utility.yul\":1744:1748   */\n  0x7f\n    /* \"#utility.yul\":1736:1742   */\n  dup3\n    /* \"#utility.yul\":1732:1749   */\n  and\n    /* \"#utility.yul\":1722:1749   */\n  swap2\n  pop\n    /* \"#utility.yul\":1690:1751   */\ntag_66:\n    /* \"#utility.yul\":1797:1799   */\n  0x20\n    /* \"#utility.yul\":1789:1795   */\n  dup3\n    /* \"#utility.yul\":1786:1800   */\n  lt\n    /* \"#utility.yul\":1766:1784   */\n  dup2\n    /* \"#utility.yul\":1763:1801   */\n  sub\n    /* \"#utility.yul\":1760:1921   */\n  tag_67\n  jumpi\n    /* \"#utility.yul\":1843:1853   */\n  0x4e487b71\n    /* \"#utility.yul\":1838:1841   */\n  0xe0\n    /* \"#utility.yul\":1834:1854   */\n  shl\n    /* \"#utility.yul\":1831:1832   */\n  0x00\n    /* \"#utility.yul\":1824:1855   */\n  mstore\n    /* \"#utility.yul\":1878:1882   */\n  0x22\n    /* \"#utility.yul\":1875:1876   */\n  0x04\n    /* \"#utility.yul\":1868:1883   */\n  mstore\n    /* \"#utility.yul\":1906:1910   */\n  0x24\n    /* \"#utility.yul\":1903:1904   */\n  0x00\n    /* \"#utility.yul\":1896:1911   */\n  revert\n    /* \"#utility.yul\":1760:1921   */\ntag_67:\n  pop\n    /* \"#utility.yul\":1547:1927   */\n  swap2\n  swap1\n  pop\n  jump\t// out\n    /* \"#utility.yul\":2058:2576   */\ntag_45:\n    /* \"#utility.yul\":2160:2162   */\n  0x1f\n    /* \"#utility.yul\":2155:2158   */\n  dup3\n    /* \"#utility.yul\":2152:2163   */\n  gt\n    /* \"#utility.yul\":2149:2570   */\n  iszero\n  tag_70\n  jumpi\n    /* \"#utility.yul\":2196:2201   */\n  dup1\n    /* \"#utility.yul\":2193:2194   */\n  0x00\n    /* \"#utility.yul\":2186:2202   */\n  mstore\n    /* \"#utility.yul\":2240:2244   */\n  0x20\n    /* \"#utility.yul\":2237:2238   */\n  0x00\n    /* \"#utility.yul\":2227:2245   */\n  keccak256\n    /* \"#utility.yul\":2310:2312   */\n  0x1f\n    /* \"#utility.yul\":2298:2308   */\n  dup5\n    /* \"#utility.yul\":2294:2313   */\n  add\n    /* \"#utility.yul\":2291:2292   */\n  0x05\n    /* \"#utility.yul\":2287:2314   */\n  shr\n    /* \"#utility.yul\":2281:2285   */\n  dup2\n    /* \"#utility.yul\":2277:2315   */\n  add\n    /* \"#utility.yul\":2346:2350   */\n  0x20\n    /* \"#utility.yul\":2334:2344   */\n  dup6\n    /* \"#utility.yul\":2331:2351   */\n  lt\n    /* \"#utility.yul\":2328:2375   */\n  iszero\n  tag_71\n  jumpi\n  pop\n    /* \"#utility.yul\":2369:2373   */\n  dup1\n    /* \"#utility.yul\":2328:2375   */\ntag_71:\n    /* \"#utility.yul\":2424:2426   */\n  0x1f\n    /* \"#utility.yul\":2419:2422   */\n  dup5\n    /* \"#utility.yul\":2415:2427   */\n  add\n    /* \"#utility.yul\":2412:2413   */\n  0x05\n    /* \"#utility.yul\":2408:2428   */\n  shr\n    /* \"#utility.yul\":2402:2406   */\n  dup3\n    /* \"#utility.yul\":2398:2429   */\n  add\n    /* \"#utility.yul\":2388:2429   */\n  swap2\n  pop\n    /* \"#utility.yul\":2479:2560   */\ntag_72:\n    /* \"#utility.yul\":2497:2499   */\n  dup2\n    /* \"#utility.yul\":2490:2495   */\n  dup2\n    /* \"#utility.yul\":2487:2500   */\n  lt\n    /* \"#utility.yul\":2479:2560   */\n  iszero\n  tag_74\n  jumpi\n    /* \"#utility.yul\":2556:2557   */\n  0x00\n    /* \"#utility.yul\":2542:2558   */\n  dup2\n  sstore\n    /* \"#utility.yul\":2523:2524   */\n  0x01\n    /* \"#utility.yul\":2512:2525   */\n  add\n    /* \"#utility.yul\":2479:2560   */\n  jump(tag_72)\ntag_74:\n    /* \"#utility.yul\":2483:2486   */\n  pop\n  pop\n    /* \"#utility.yul\":2149:2570   */\ntag_70:\n    /* \"#utility.yul\":2058:2576   */\n  pop\n  pop\n  pop\n  jump\t// out\n    /* \"#utility.yul\":2752:4051   */\ntag_10:\n    /* \"#utility.yul\":2872:2882   */\n  dup2\n  mload\n  sub(shl(0x40, 0x01), 0x01)\n    /* \"#utility.yul\":2894:2924   */\n  dup2\n  gt\n    /* \"#utility.yul\":2891:2947   */\n  iszero\n  tag_78\n  jumpi\n    /* \"#utility.yul\":2927:2945   */\n  tag_78\n  tag_41\n  jump\t// in\ntag_78:\n    /* \"#utility.yul\":2956:3053   */\n  tag_79\n    /* \"#utility.yul\":3046:3052   */\n  dup2\n    /* \"#utility.yul\":3006:3044   */\n  tag_80\n    /* \"#utility.yul\":3038:3042   */\n  dup5\n    /* \"#utility.yul\":3032:3043   */\n  sload\n    /* \"#utility.yul\":3006:3044   */\n  tag_43\n  jump\t// in\ntag_80:\n    /* \"#utility.yul\":3000:3004   */\n  dup5\n    /* \"#utility.yul\":2956:3053   */\n  tag_45\n  jump\t// in\ntag_79:\n    /* \"#utility.yul\":3102:3106   */\n  0x20\n    /* \"#utility.yul\":3133:3135   */\n  0x1f\n    /* \"#utility.yul\":3122:3136   */\n  dup3\n  gt\n    /* \"#utility.yul\":3150:3151   */\n  0x01\n    /* \"#utility.yul\":3145:3794   */\n  dup2\n  eq\n  tag_82\n  jumpi\n    /* \"#utility.yul\":3838:3839   */\n  0x00\n    /* \"#utility.yul\":3855:3861   */\n  dup4\n    /* \"#utility.yul\":3852:3941   */\n  iszero\n  tag_83\n  jumpi\n  pop\n    /* \"#utility.yul\":3907:3926   */\n  dup5\n  dup3\n  add\n    /* \"#utility.yul\":3901:3927   */\n  mload\n    /* \"#utility.yul\":3852:3941   */\ntag_83:\n  not(0x00)\n    /* \"#utility.yul\":2709:2710   */\n  0x03\n    /* \"#utility.yul\":2705:2716   */\n  dup6\n  swap1\n  shl\n    /* \"#utility.yul\":2701:2725   */\n  shr\n    /* \"#utility.yul\":2697:2726   */\n  not\n    /* \"#utility.yul\":2687:2727   */\n  and\n    /* \"#utility.yul\":2733:2734   */\n  0x01\n    /* \"#utility.yul\":2729:2740   */\n  dup5\n  swap1\n  shl\n    /* \"#utility.yul\":2684:2741   */\n  or\n    /* \"#utility.yul\":3954:4035   */\n  dup5\n  sstore\n    /* \"#utility.yul\":3115:4045   */\n  jump(tag_74)\n    /* \"#utility.yul\":3145:3794   */\ntag_82:\n    /* \"#utility.yul\":2005:2006   */\n  0x00\n    /* \"#utility.yul\":1998:2012   */\n  dup5\n  dup2\n  mstore\n    /* \"#utility.yul\":2042:2046   */\n  0x20\n    /* \"#utility.yul\":2029:2047   */\n  dup2\n  keccak256\n  not(0x1f)\n    /* \"#utility.yul\":3181:3201   */\n  dup6\n  and\n  swap2\n    /* \"#utility.yul\":3299:3521   */\ntag_86:\n    /* \"#utility.yul\":3313:3320   */\n  dup3\n    /* \"#utility.yul\":3310:3311   */\n  dup2\n    /* \"#utility.yul\":3307:3321   */\n  lt\n    /* \"#utility.yul\":3299:3521   */\n  iszero\n  tag_88\n  jumpi\n    /* \"#utility.yul\":3395:3414   */\n  dup8\n  dup6\n  add\n    /* \"#utility.yul\":3389:3415   */\n  mload\n    /* \"#utility.yul\":3374:3416   */\n  dup3\n  sstore\n    /* \"#utility.yul\":3502:3506   */\n  0x20\n    /* \"#utility.yul\":3487:3507   */\n  swap5\n  dup6\n  add\n  swap5\n    /* \"#utility.yul\":3455:3456   */\n  0x01\n    /* \"#utility.yul\":3443:3457   */\n  swap1\n  swap3\n  add\n  swap2\n    /* \"#utility.yul\":3329:3341   */\n  add\n    /* \"#utility.yul\":3299:3521   */\n  jump(tag_86)\ntag_88:\n    /* \"#utility.yul\":3303:3306   */\n  pop\n    /* \"#utility.yul\":3549:3555   */\n  dup5\n    /* \"#utility.yul\":3540:3547   */\n  dup3\n    /* \"#utility.yul\":3537:3556   */\n  lt\n    /* \"#utility.yul\":3534:3735   */\n  iszero\n  tag_89\n  jumpi\n    /* \"#utility.yul\":3610:3629   */\n  dup7\n  dup5\n  add\n    /* \"#utility.yul\":3604:3630   */\n  mload\n  not(0x00)\n    /* \"#utility.yul\":3693:3694   */\n  0x03\n    /* \"#utility.yul\":3689:3703   */\n  dup8\n  swap1\n  shl\n    /* \"#utility.yul\":3705:3708   */\n  0xf8\n    /* \"#utility.yul\":3685:3709   */\n  and\n    /* \"#utility.yul\":3681:3718   */\n  shr\n    /* \"#utility.yul\":3677:3719   */\n  not\n    /* \"#utility.yul\":3662:3720   */\n  and\n    /* \"#utility.yul\":3647:3721   */\n  dup2\n  sstore\n    /* \"#utility.yul\":3534:3735   */\ntag_89:\n  pop\n  pop\n  pop\n  pop\n    /* \"#utility.yul\":3781:3782   */\n  0x01\n    /* \"#utility.yul\":3765:3779   */\n  swap1\n  dup2\n  shl\n    /* \"#utility.yul\":3761:3783   */\n  add\n    /* \"#utility.yul\":3748:3784   */\n  swap1\n  sstore\n  pop\n    /* \"#utility.yul\":2752:4051   */\n  jump\t// out\n    /* \"#utility.yul\":4264:4486   */\ntag_32:\n    /* \"#utility.yul\":4329:4338   */\n  dup1\n  dup3\n  add\n    /* \"#utility.yul\":4350:4360   */\n  dup1\n  dup3\n  gt\n    /* \"#utility.yul\":4347:4480   */\n  iszero\n  tag_92\n  jumpi\n    /* \"#utility.yul\":4402:4412   */\n  0x4e487b71\n    /* \"#utility.yul\":4397:4400   */\n  0xe0\n    /* \"#utility.yul\":4393:4413   */\n  shl\n    /* \"#utility.yul\":4390:4391   */\n  0x00\n    /* \"#utility.yul\":4383:4414   */\n  mstore\n    /* \"#utility.yul\":4437:4441   */\n  0x11\n    /* \"#utility.yul\":4434:4435   */\n  0x04\n    /* \"#utility.yul\":4427:4442   */\n  mstore\n    /* \"#utility.yul\":4465:4469   */\n  0x24\n    /* \"#utility.yul\":4462:4463   */\n  0x00\n    /* \"#utility.yul\":4455:4470   */\n  revert\n    /* \"#utility.yul\":4347:4480   */\ntag_92:\n    /* \"#utility.yul\":4264:4486   */\n  swap3\n  swap2\n  pop\n  pop\n  jump\t// out\n    /* \"#utility.yul\":4841:5018   */\ntag_47:\n    /* \"RVA/Token.sol\":225:3303  contract erc20Token is ERC20, Ownable, Pausable {... */\n  dataSize(sub_0)\n  dup1\n  dataOffset(sub_0)\n  0x00\n  codecopy\n  0x00\n  return\nstop\n\nsub_0: assembly {\n        /* \"RVA/Token.sol\":225:3303  contract erc20Token is ERC20, Ownable, Pausable {... */\n      mstore(0x40, 0x80)\n      callvalue\n      dup1\n      iszero\n      tag_1\n      jumpi\n      0x00\n      dup1\n      revert\n    tag_1:\n      pop\n      jumpi(tag_2, lt(calldatasize, 0x04))\n      shr(0xe0, calldataload(0x00))\n      dup1\n      0x715018a6\n      gt\n      tag_26\n      jumpi\n      dup1\n      0xa9059cbb\n      gt\n      tag_27\n      jumpi\n      dup1\n      0xa9059cbb\n      eq\n      tag_20\n      jumpi\n      dup1\n      0xc66e4095\n      eq\n      tag_21\n      jumpi\n      dup1\n      0xdbac26e9\n      eq\n      tag_22\n      jumpi\n      dup1\n      0xdd62ed3e\n      eq\n      tag_23\n      jumpi\n      dup1\n      0xf2fde38b\n      eq\n      tag_24\n      jumpi\n      dup1\n      0xfe575a87\n      eq\n      tag_25\n      jumpi\n      0x00\n      dup1\n      revert\n    tag_27:\n      dup1\n      0x715018a6\n      eq\n      tag_14\n      jumpi\n      dup1\n      0x8456cb59\n      eq\n      tag_15\n      jumpi\n      dup1\n      0x88d695b2\n      eq\n      tag_16\n      jumpi\n      dup1\n      0x8da5cb5b\n      eq\n      tag_17\n      jumpi\n      dup1\n      0x95d89b41\n      eq\n      tag_18\n      jumpi\n      dup1\n      0x9bc289f1\n      eq\n      tag_19\n      jumpi\n      0x00\n      dup1\n      revert\n    tag_26:\n      dup1\n      0x2e0d2a00\n      gt\n      tag_28\n      jumpi\n      dup1\n      0x2e0d2a00\n      eq\n      tag_8\n      jumpi\n      dup1\n      0x313ce567\n      eq\n      tag_9\n      jumpi\n      dup1\n      0x3e579307\n      eq\n      tag_10\n      jumpi\n      dup1\n      0x3f4ba83a\n      eq\n      tag_11\n      jumpi\n      dup1\n      0x5c975abb\n      eq\n      tag_12\n      jumpi\n      dup1\n      0x70a08231\n      eq\n      tag_13\n      jumpi\n      0x00\n      dup1\n      revert\n    tag_28:\n      dup1\n      0x06fdde03\n      eq\n      tag_3\n      jumpi\n      dup1\n      0x095ea7b3\n      eq\n      tag_4\n      jumpi\n      dup1\n      0x153b0d1e\n      eq\n      tag_5\n      jumpi\n      dup1\n      0x18160ddd\n      eq\n      tag_6\n      jumpi\n      dup1\n      0x23b872dd\n      eq\n      tag_7\n      jumpi\n    tag_2:\n      0x00\n      dup1\n      revert\n        /* \"@openzeppelin/contracts/token/ERC20/ERC20.sol\":1779:1868  function name() public view virtual returns (string memory) {... */\n    tag_3:\n      tag_29\n      tag_30\n      jump\t// in\n    tag_29:\n      mload(0x40)\n      tag_31\n      swap2\n      swap1\n      tag_32\n      jump\t// in\n    tag_31:\n      mload(0x40)\n      dup1\n      swap2\n      sub\n      swap1\n      return\n        /* \"@openzeppelin/contracts/token/ERC20/ERC20.sol\":3998:4184  function approve(address spender, uint256 value) public virtual returns (bool) {... */\n    tag_4:\n      tag_33\n      tag_34\n      calldatasize\n      0x04\n      tag_35\n      jump\t// in\n    tag_34:\n      tag_36\n      jump\t// in\n    tag_33:\n      mload(0x40)\n        /* \"#utility.yul\":1194:1208   */\n      swap1\n      iszero\n        /* \"#utility.yul\":1187:1209   */\n      iszero\n        /* \"#utility.yul\":1169:1210   */\n      dup2\n      mstore\n        /* \"#utility.yul\":1157:1159   */\n      0x20\n        /* \"#utility.yul\":1142:1160   */\n      add\n        /* \"@openzeppelin/contracts/token/ERC20/ERC20.sol\":3998:4184  function approve(address spender, uint256 value) public virtual returns (bool) {... */\n      tag_31\n        /* \"#utility.yul\":1029:1216   */\n      jump\n        /* \"RVA/Token.sol\":1422:1582  function setBlacklist(address account, bool status) external onlyOwner {... */\n    tag_5:\n      tag_39\n      tag_40\n      calldatasize\n      0x04\n      tag_41\n      jump\t// in\n    tag_40:\n      tag_42\n      jump\t// in\n    tag_39:\n      stop\n        /* \"@openzeppelin/contracts/token/ERC20/ERC20.sol\":2849:2946  function totalSupply() public view virtual returns (uint256) {... */\n    tag_6:\n        /* \"@openzeppelin/contracts/token/ERC20/ERC20.sol\":2927:2939  _totalSupply */\n      sload(0x02)\n        /* \"@openzeppelin/contracts/token/ERC20/ERC20.sol\":2849:2946  function totalSupply() public view virtual returns (uint256) {... */\n    tag_43:\n      mload(0x40)\n        /* \"#utility.yul\":1719:1744   */\n      swap1\n      dup2\n      mstore\n        /* \"#utility.yul\":1707:1709   */\n      0x20\n        /* \"#utility.yul\":1692:1710   */\n      add\n        /* \"@openzeppelin/contracts/token/ERC20/ERC20.sol\":2849:2946  function totalSupply() public view virtual returns (uint256) {... */\n      tag_31\n        /* \"#utility.yul\":1573:1750   */\n      jump\n        /* \"RVA/Token.sol\":2169:2647  function transferFrom(address sender, address recipient, uint256 amount) public override whenNotPaused returns (bool) {... */\n    tag_7:\n      tag_33\n      tag_48\n      calldatasize\n      0x04\n      tag_49\n      jump\t// in\n    tag_48:\n      tag_50\n      jump\t// in\n        /* \"RVA/Token.sol\":2653:2804  function setICOContract(address _icoContract) external onlyOwner {... */\n    tag_8:\n      tag_39\n      tag_53\n      calldatasize\n      0x04\n      tag_54\n      jump\t// in\n    tag_53:\n      tag_55\n      jump\t// in\n        /* \"RVA/Token.sol\":1149:1232  function decimals() public pure override returns (uint8) {... */\n    tag_9:\n      mload(0x40)\n        /* \"RVA/Token.sol\":1223:1225  18 */\n      0x12\n        /* \"#utility.yul\":2467:2503   */\n      dup2\n      mstore\n        /* \"#utility.yul\":2455:2457   */\n      0x20\n        /* \"#utility.yul\":2440:2458   */\n      add\n        /* \"RVA/Token.sol\":1149:1232  function decimals() public pure override returns (uint8) {... */\n      tag_31\n        /* \"#utility.yul\":2325:2509   */\n      jump\n        /* \"RVA/Token.sol\":1238:1411  function setLockup(address account, uint256 timestamp) external onlyICOContract {... */\n    tag_10:\n      tag_39\n      tag_61\n      calldatasize\n      0x04\n      tag_35\n      jump\t// in\n    tag_61:\n      tag_62\n      jump\t// in\n        /* \"RVA/Token.sol\":1078:1143  function unpause() external onlyOwner {... */\n    tag_11:\n      tag_39\n      tag_64\n      jump\t// in\n        /* \"@openzeppelin/contracts/security/Pausable.sol\":1615:1699  function paused() public view virtual returns (bool) {... */\n    tag_12:\n        /* \"@openzeppelin/contracts/security/Pausable.sol\":1685:1692  _paused */\n      sload(0x05)\n      shl(0xa0, 0x01)\n      swap1\n      div\n      0xff\n      and\n        /* \"@openzeppelin/contracts/security/Pausable.sol\":1615:1699  function paused() public view virtual returns (bool) {... */\n      jump(tag_33)\n        /* \"@openzeppelin/contracts/token/ERC20/ERC20.sol\":3004:3120  function balanceOf(address account) public view virtual returns (uint256) {... */\n    tag_13:\n      tag_43\n      tag_69\n      calldatasize\n      0x04\n      tag_54\n      jump\t// in\n    tag_69:\n      sub(shl(0xa0, 0x01), 0x01)\n        /* \"@openzeppelin/contracts/token/ERC20/ERC20.sol\":3095:3113  _balances[account] */\n      and\n        /* \"@openzeppelin/contracts/token/ERC20/ERC20.sol\":3069:3076  uint256 */\n      0x00\n        /* \"@openzeppelin/contracts/token/ERC20/ERC20.sol\":3095:3113  _balances[account] */\n      swap1\n      dup2\n      mstore\n      0x20\n      dup2\n      swap1\n      mstore\n      0x40\n      swap1\n      keccak256\n      sload\n      swap1\n        /* \"@openzeppelin/contracts/token/ERC20/ERC20.sol\":3004:3120  function balanceOf(address account) public view virtual returns (uint256) {... */\n      jump\n        /* \"@openzeppelin/contracts/access/Ownable.sol\":2293:2394  function renounceOwnership() public virtual onlyOwner {... */\n    tag_14:\n      tag_39\n      tag_73\n      jump\t// in\n        /* \"RVA/Token.sol\":1011:1072  function pause() external onlyOwner {... */\n    tag_15:\n      tag_39\n      tag_75\n      jump\t// in\n        /* \"RVA/Token.sol\":2810:3300  function batchTransfer(address[] calldata recipients, uint256[] calldata amounts) external whenNotPaused {... */\n    tag_16:\n      tag_39\n      tag_77\n      calldatasize\n      0x04\n      tag_78\n      jump\t// in\n    tag_77:\n      tag_79\n      jump\t// in\n        /* \"@openzeppelin/contracts/access/Ownable.sol\":1638:1723  function owner() public view virtual returns (address) {... */\n    tag_17:\n        /* \"@openzeppelin/contracts/access/Ownable.sol\":1710:1716  _owner */\n      and(sub(shl(0xa0, 0x01), 0x01), sload(0x05))\n        /* \"@openzeppelin/contracts/access/Ownable.sol\":1638:1723  function owner() public view virtual returns (address) {... */\n    tag_80:\n      mload(0x40)\n      sub(shl(0xa0, 0x01), 0x01)\n        /* \"#utility.yul\":3823:3855   */\n      swap1\n      swap2\n      and\n        /* \"#utility.yul\":3805:3856   */\n      dup2\n      mstore\n        /* \"#utility.yul\":3793:3795   */\n      0x20\n        /* \"#utility.yul\":3778:3796   */\n      add\n        /* \"@openzeppelin/contracts/access/Ownable.sol\":1638:1723  function owner() public view virtual returns (address) {... */\n      tag_31\n        /* \"#utility.yul\":3659:3862   */\n      jump\n        /* \"@openzeppelin/contracts/token/ERC20/ERC20.sol\":1981:2074  function symbol() public view virtual returns (string memory) {... */\n    tag_18:\n      tag_29\n      tag_85\n      jump\t// in\n        /* \"RVA/Token.sol\":369:415  mapping(address => uint256) public lockedUntil */\n    tag_19:\n      tag_43\n      tag_88\n      calldatasize\n      0x04\n      tag_54\n      jump\t// in\n    tag_88:\n      mstore(0x20, 0x08)\n      0x00\n      swap1\n      dup2\n      mstore\n      0x40\n      swap1\n      keccak256\n      sload\n      dup2\n      jump\n        /* \"RVA/Token.sol\":1705:2163  function transfer(address recipient, uint256 amount) public override whenNotPaused returns (bool) {... */\n    tag_20:\n      tag_33\n      tag_92\n      calldatasize\n      0x04\n      tag_35\n      jump\t// in\n    tag_92:\n      tag_93\n      jump\t// in\n        /* \"RVA/Token.sol\":280:306  address public icoContract */\n    tag_21:\n      sload(0x06)\n      tag_80\n      swap1\n      sub(shl(0xa0, 0x01), 0x01)\n      and\n      dup2\n      jump\n        /* \"RVA/Token.sol\":422:465  mapping(address => bool) public blacklisted */\n    tag_22:\n      tag_33\n      tag_99\n      calldatasize\n      0x04\n      tag_54\n      jump\t// in\n    tag_99:\n      mstore(0x20, 0x09)\n      0x00\n      swap1\n      dup2\n      mstore\n      0x40\n      swap1\n      keccak256\n      sload\n      0xff\n      and\n      dup2\n      jump\n        /* \"@openzeppelin/contracts/token/ERC20/ERC20.sol\":3551:3691  function allowance(address owner, address spender) public view virtual returns (uint256) {... */\n    tag_23:\n      tag_43\n      tag_103\n      calldatasize\n      0x04\n      tag_104\n      jump\t// in\n    tag_103:\n      sub(shl(0xa0, 0x01), 0x01)\n        /* \"@openzeppelin/contracts/token/ERC20/ERC20.sol\":3657:3675  _allowances[owner] */\n      swap2\n      dup3\n      and\n        /* \"@openzeppelin/contracts/token/ERC20/ERC20.sol\":3631:3638  uint256 */\n      0x00\n        /* \"@openzeppelin/contracts/token/ERC20/ERC20.sol\":3657:3675  _allowances[owner] */\n      swap1\n      dup2\n      mstore\n        /* \"@openzeppelin/contracts/token/ERC20/ERC20.sol\":3657:3668  _allowances */\n      0x01\n        /* \"@openzeppelin/contracts/token/ERC20/ERC20.sol\":3657:3675  _allowances[owner] */\n      0x20\n      swap1\n      dup2\n      mstore\n      0x40\n      dup1\n      dup4\n      keccak256\n        /* \"@openzeppelin/contracts/token/ERC20/ERC20.sol\":3657:3684  _allowances[owner][spender] */\n      swap4\n      swap1\n      swap5\n      and\n      dup3\n      mstore\n      swap2\n      swap1\n      swap2\n      mstore\n      keccak256\n      sload\n      swap1\n        /* \"@openzeppelin/contracts/token/ERC20/ERC20.sol\":3551:3691  function allowance(address owner, address spender) public view virtual returns (uint256) {... */\n      jump\n        /* \"@openzeppelin/contracts/access/Ownable.sol\":2543:2758  function transferOwnership(address newOwner) public virtual onlyOwner {... */\n    tag_24:\n      tag_39\n      tag_108\n      calldatasize\n      0x04\n      tag_54\n      jump\t// in\n    tag_108:\n      tag_109\n      jump\t// in\n        /* \"RVA/Token.sol\":1588:1699  function isBlacklisted(address account) public view returns (bool) {... */\n    tag_25:\n      tag_33\n      tag_111\n      calldatasize\n      0x04\n      tag_54\n      jump\t// in\n    tag_111:\n      sub(shl(0xa0, 0x01), 0x01)\n        /* \"RVA/Token.sol\":1672:1692  blacklisted[account] */\n      and\n        /* \"RVA/Token.sol\":1649:1653  bool */\n      0x00\n        /* \"RVA/Token.sol\":1672:1692  blacklisted[account] */\n      swap1\n      dup2\n      mstore\n        /* \"RVA/Token.sol\":1672:1683  blacklisted */\n      0x09\n        /* \"RVA/Token.sol\":1672:1692  blacklisted[account] */\n      0x20\n      mstore\n      0x40\n      swap1\n      keccak256\n      sload\n      0xff\n      and\n      swap1\n        /* \"RVA/Token.sol\":1588:1699  function isBlacklisted(address account) public view returns (bool) {... */\n      jump\n        /* \"@openzeppelin/contracts/token/ERC20/ERC20.sol\":1779:1868  function name() public view virtual returns (string memory) {... */\n    tag_30:\n        /* \"@openzeppelin/contracts/token/ERC20/ERC20.sol\":1824:1837  string memory */\n      0x60\n        /* \"@openzeppelin/contracts/token/ERC20/ERC20.sol\":1856:1861  _name */\n      0x03\n        /* \"@openzeppelin/contracts/token/ERC20/ERC20.sol\":1849:1861  return _name */\n      dup1\n      sload\n      tag_115\n      swap1\n      tag_116\n      jump\t// in\n    tag_115:\n      dup1\n      0x1f\n      add\n      0x20\n      dup1\n      swap2\n      div\n      mul\n      0x20\n      add\n      mload(0x40)\n      swap1\n      dup2\n      add\n      0x40\n      mstore\n      dup1\n      swap3\n      swap2\n      swap1\n      dup2\n      dup2\n      mstore\n      0x20\n      add\n      dup3\n      dup1\n      sload\n      tag_117\n      swap1\n      tag_116\n      jump\t// in\n    tag_117:\n      dup1\n      iszero\n      tag_118\n      jumpi\n      dup1\n      0x1f\n      lt\n      tag_119\n      jumpi\n      0x0100\n      dup1\n      dup4\n      sload\n      div\n      mul\n      dup4\n      mstore\n      swap2\n      0x20\n      add\n      swap2\n      jump(tag_118)\n    tag_119:\n      dup3\n      add\n      swap2\n      swap1\n      0x00\n      mstore\n      keccak256(0x00, 0x20)\n      swap1\n    tag_120:\n      dup2\n      sload\n      dup2\n      mstore\n      swap1\n      0x01\n      add\n      swap1\n      0x20\n      add\n      dup1\n      dup4\n      gt\n      tag_120\n      jumpi\n      dup3\n      swap1\n      sub\n      0x1f\n      and\n      dup3\n      add\n      swap2\n    tag_118:\n      pop\n      pop\n      pop\n      pop\n      pop\n      swap1\n      pop\n        /* \"@openzeppelin/contracts/token/ERC20/ERC20.sol\":1779:1868  function name() public view virtual returns (string memory) {... */\n      swap1\n      jump\t// out\n        /* \"@openzeppelin/contracts/token/ERC20/ERC20.sol\":3998:4184  function approve(address spender, uint256 value) public virtual returns (bool) {... */\n    tag_36:\n        /* \"@openzeppelin/contracts/token/ERC20/ERC20.sol\":4071:4075  bool */\n      0x00\n        /* \"@openzeppelin/contracts/utils/Context.sol\":735:745  msg.sender */\n      caller\n        /* \"@openzeppelin/contracts/token/ERC20/ERC20.sol\":4125:4156  _approve(owner, spender, value) */\n      tag_124\n        /* \"@openzeppelin/contracts/utils/Context.sol\":735:745  msg.sender */\n      dup2\n        /* \"@openzeppelin/contracts/token/ERC20/ERC20.sol\":4141:4148  spender */\n      dup6\n        /* \"@openzeppelin/contracts/token/ERC20/ERC20.sol\":4150:4155  value */\n      dup6\n        /* \"@openzeppelin/contracts/token/ERC20/ERC20.sol\":4125:4133  _approve */\n      tag_125\n        /* \"@openzeppelin/contracts/token/ERC20/ERC20.sol\":4125:4156  _approve(owner, spender, value) */\n      jump\t// in\n    tag_124:\n        /* \"@openzeppelin/contracts/token/ERC20/ERC20.sol\":4173:4177  true */\n      0x01\n        /* \"@openzeppelin/contracts/token/ERC20/ERC20.sol\":4166:4177  return true */\n      swap2\n      pop\n      pop\n        /* \"@openzeppelin/contracts/token/ERC20/ERC20.sol\":3998:4184  function approve(address spender, uint256 value) public virtual returns (bool) {... */\n    tag_121:\n      swap3\n      swap2\n      pop\n      pop\n      jump\t// out\n        /* \"RVA/Token.sol\":1422:1582  function setBlacklist(address account, bool status) external onlyOwner {... */\n    tag_42:\n        /* \"@openzeppelin/contracts/access/Ownable.sol\":1531:1544  _checkOwner() */\n      tag_127\n        /* \"@openzeppelin/contracts/access/Ownable.sol\":1531:1542  _checkOwner */\n      tag_128\n        /* \"@openzeppelin/contracts/access/Ownable.sol\":1531:1544  _checkOwner() */\n      jump\t// in\n    tag_127:\n      sub(shl(0xa0, 0x01), 0x01)\n        /* \"RVA/Token.sol\":1503:1523  blacklisted[account] */\n      dup3\n      and\n      0x00\n      dup2\n      dup2\n      mstore\n        /* \"RVA/Token.sol\":1503:1514  blacklisted */\n      0x09\n        /* \"RVA/Token.sol\":1503:1523  blacklisted[account] */\n      0x20\n      swap1\n      dup2\n      mstore\n      0x40\n      swap2\n      dup3\n      swap1\n      keccak256\n        /* \"RVA/Token.sol\":1503:1532  blacklisted[account] = status */\n      dup1\n      sload\n      not(0xff)\n      and\n      dup6\n      iszero\n      iszero\n      swap1\n      dup2\n      or\n      swap1\n      swap2\n      sstore\n        /* \"RVA/Token.sol\":1547:1575  Blacklisted(account, status) */\n      swap2\n      mload\n        /* \"#utility.yul\":1169:1210   */\n      swap2\n      dup3\n      mstore\n        /* \"RVA/Token.sol\":1547:1575  Blacklisted(account, status) */\n      0xcf3473b85df1594d47b6958f29a32bea0abff9dd68296f7bf33443646793cfd8\n      swap2\n        /* \"#utility.yul\":1142:1160   */\n      add\n        /* \"RVA/Token.sol\":1547:1575  Blacklisted(account, status) */\n    tag_130:\n      mload(0x40)\n      dup1\n      swap2\n      sub\n      swap1\n      log2\n        /* \"RVA/Token.sol\":1422:1582  function setBlacklist(address account, bool status) external onlyOwner {... */\n      pop\n      pop\n      jump\t// out\n        /* \"RVA/Token.sol\":2169:2647  function transferFrom(address sender, address recipient, uint256 amount) public override whenNotPaused returns (bool) {... */\n    tag_50:\n        /* \"RVA/Token.sol\":2281:2285  bool */\n      0x00\n        /* \"@openzeppelin/contracts/security/Pausable.sol\":1239:1258  _requireNotPaused() */\n      tag_133\n        /* \"@openzeppelin/contracts/security/Pausable.sol\":1239:1256  _requireNotPaused */\n      tag_134\n        /* \"@openzeppelin/contracts/security/Pausable.sol\":1239:1258  _requireNotPaused() */\n      jump\t// in\n    tag_133:\n      sub(shl(0xa0, 0x01), 0x01)\n        /* \"RVA/Token.sol\":2306:2325  blacklisted[sender] */\n      dup5\n      and\n      0x00\n      swap1\n      dup2\n      mstore\n        /* \"RVA/Token.sol\":2306:2317  blacklisted */\n      0x09\n        /* \"RVA/Token.sol\":2306:2325  blacklisted[sender] */\n      0x20\n      mstore\n      0x40\n      swap1\n      keccak256\n      sload\n      0xff\n      and\n        /* \"RVA/Token.sol\":2305:2325  !blacklisted[sender] */\n      iszero\n        /* \"RVA/Token.sol\":2297:2368  require(!blacklisted[sender], \"Transfer failed: Sender is blacklisted\") */\n      tag_136\n      jumpi\n      mload(0x40)\n      shl(0xe5, 0x461bcd)\n      dup2\n      mstore\n      0x04\n      add\n      tag_137\n      swap1\n      tag_138\n      jump\t// in\n    tag_137:\n      mload(0x40)\n      dup1\n      swap2\n      sub\n      swap1\n      revert\n    tag_136:\n      sub(shl(0xa0, 0x01), 0x01)\n        /* \"RVA/Token.sol\":2387:2409  blacklisted[recipient] */\n      dup4\n      and\n      0x00\n      swap1\n      dup2\n      mstore\n        /* \"RVA/Token.sol\":2387:2398  blacklisted */\n      0x09\n        /* \"RVA/Token.sol\":2387:2409  blacklisted[recipient] */\n      0x20\n      mstore\n      0x40\n      swap1\n      keccak256\n      sload\n      0xff\n      and\n        /* \"RVA/Token.sol\":2386:2409  !blacklisted[recipient] */\n      iszero\n        /* \"RVA/Token.sol\":2378:2455  require(!blacklisted[recipient], \"Transfer failed: Recipient is blacklisted\") */\n      tag_139\n      jumpi\n      mload(0x40)\n      shl(0xe5, 0x461bcd)\n      dup2\n      mstore\n      0x04\n      add\n      tag_137\n      swap1\n      tag_141\n      jump\t// in\n    tag_139:\n      sub(shl(0xa0, 0x01), 0x01)\n        /* \"RVA/Token.sol\":2492:2511  lockedUntil[sender] */\n      dup5\n      and\n      0x00\n      swap1\n      dup2\n      mstore\n        /* \"RVA/Token.sol\":2492:2503  lockedUntil */\n      0x08\n        /* \"RVA/Token.sol\":2492:2511  lockedUntil[sender] */\n      0x20\n      mstore\n      0x40\n      swap1\n      keccak256\n      sload\n        /* \"RVA/Token.sol\":2473:2488  block.timestamp */\n      timestamp\n        /* \"RVA/Token.sol\":2473:2511  block.timestamp >= lockedUntil[sender] */\n      lt\n      iszero\n      dup1\n        /* \"RVA/Token.sol\":2473:2539  block.timestamp >= lockedUntil[sender] || lockedUntil[sender] == 0 */\n      tag_142\n      jumpi\n      pop\n      sub(shl(0xa0, 0x01), 0x01)\n        /* \"RVA/Token.sol\":2515:2534  lockedUntil[sender] */\n      dup5\n      and\n      0x00\n      swap1\n      dup2\n      mstore\n        /* \"RVA/Token.sol\":2515:2526  lockedUntil */\n      0x08\n        /* \"RVA/Token.sol\":2515:2534  lockedUntil[sender] */\n      0x20\n      mstore\n      0x40\n      swap1\n      keccak256\n      sload\n        /* \"RVA/Token.sol\":2515:2539  lockedUntil[sender] == 0 */\n      iszero\n        /* \"RVA/Token.sol\":2473:2539  block.timestamp >= lockedUntil[sender] || lockedUntil[sender] == 0 */\n    tag_142:\n        /* \"RVA/Token.sol\":2465:2578  require(block.timestamp >= lockedUntil[sender] || lockedUntil[sender] == 0, \"Transfer failed: Tokens are locked\") */\n      tag_143\n      jumpi\n      mload(0x40)\n      shl(0xe5, 0x461bcd)\n      dup2\n      mstore\n      0x04\n      add\n      tag_137\n      swap1\n      tag_145\n      jump\t// in\n    tag_143:\n        /* \"RVA/Token.sol\":2595:2640  super.transferFrom(sender, recipient, amount) */\n      tag_146\n        /* \"RVA/Token.sol\":2614:2620  sender */\n      dup5\n        /* \"RVA/Token.sol\":2622:2631  recipient */\n      dup5\n        /* \"RVA/Token.sol\":2633:2639  amount */\n      dup5\n        /* \"RVA/Token.sol\":2595:2613  super.transferFrom */\n      tag_147\n        /* \"RVA/Token.sol\":2595:2640  super.transferFrom(sender, recipient, amount) */\n      jump\t// in\n    tag_146:\n        /* \"RVA/Token.sol\":2588:2640  return super.transferFrom(sender, recipient, amount) */\n      swap5\n        /* \"RVA/Token.sol\":2169:2647  function transferFrom(address sender, address recipient, uint256 amount) public override whenNotPaused returns (bool) {... */\n      swap4\n      pop\n      pop\n      pop\n      pop\n      jump\t// out\n        /* \"RVA/Token.sol\":2653:2804  function setICOContract(address _icoContract) external onlyOwner {... */\n    tag_55:\n        /* \"@openzeppelin/contracts/access/Ownable.sol\":1531:1544  _checkOwner() */\n      tag_149\n        /* \"@openzeppelin/contracts/access/Ownable.sol\":1531:1542  _checkOwner */\n      tag_128\n        /* \"@openzeppelin/contracts/access/Ownable.sol\":1531:1544  _checkOwner() */\n      jump\t// in\n    tag_149:\n        /* \"RVA/Token.sol\":2728:2739  icoContract */\n      0x06\n        /* \"RVA/Token.sol\":2728:2754  icoContract = _icoContract */\n      dup1\n      sload\n      not(sub(shl(0xa0, 0x01), 0x01))\n      and\n      sub(shl(0xa0, 0x01), 0x01)\n      dup4\n      and\n      swap1\n      dup2\n      or\n      swap1\n      swap2\n      sstore\n        /* \"RVA/Token.sol\":2769:2797  ICOContractSet(_icoContract) */\n      mload(0x40)\n      0xe7bbfbbf7e7948988eb7f8904da938aff02a23b8b28fcee206be4d4b3edd9ad8\n      swap1\n      0x00\n      swap1\n      log2\n        /* \"RVA/Token.sol\":2653:2804  function setICOContract(address _icoContract) external onlyOwner {... */\n      pop\n      jump\t// out\n        /* \"RVA/Token.sol\":1238:1411  function setLockup(address account, uint256 timestamp) external onlyICOContract {... */\n    tag_62:\n        /* \"RVA/Token.sol\":957:968  icoContract */\n      and(sub(shl(0xa0, 0x01), 0x01), sload(0x06))\n        /* \"RVA/Token.sol\":943:953  msg.sender */\n      caller\n        /* \"RVA/Token.sol\":943:968  msg.sender == icoContract */\n      eq\n        /* \"RVA/Token.sol\":935:987  require(msg.sender == icoContract, \"Not authorized\") */\n      tag_153\n      jumpi\n      mload(0x40)\n      shl(0xe5, 0x461bcd)\n      dup2\n      mstore\n        /* \"#utility.yul\":5939:5941   */\n      0x20\n        /* \"RVA/Token.sol\":935:987  require(msg.sender == icoContract, \"Not authorized\") */\n      0x04\n      dup3\n      add\n        /* \"#utility.yul\":5921:5942   */\n      mstore\n        /* \"#utility.yul\":5978:5980   */\n      0x0e\n        /* \"#utility.yul\":5958:5976   */\n      0x24\n      dup3\n      add\n        /* \"#utility.yul\":5951:5981   */\n      mstore\n      shl(0x92, 0x139bdd08185d5d1a1bdc9a5e9959)\n        /* \"#utility.yul\":5997:6015   */\n      0x44\n      dup3\n      add\n        /* \"#utility.yul\":5990:6034   */\n      mstore\n        /* \"#utility.yul\":6051:6069   */\n      0x64\n      add\n        /* \"RVA/Token.sol\":935:987  require(msg.sender == icoContract, \"Not authorized\") */\n      tag_137\n        /* \"#utility.yul\":5737:6075   */\n      jump\n        /* \"RVA/Token.sol\":935:987  require(msg.sender == icoContract, \"Not authorized\") */\n    tag_153:\n      sub(shl(0xa0, 0x01), 0x01)\n        /* \"RVA/Token.sol\":1328:1348  lockedUntil[account] */\n      dup3\n      and\n      0x00\n      dup2\n      dup2\n      mstore\n        /* \"RVA/Token.sol\":1328:1339  lockedUntil */\n      0x08\n        /* \"RVA/Token.sol\":1328:1348  lockedUntil[account] */\n      0x20\n      mstore\n      0x40\n      swap1\n      dup2\n      swap1\n      keccak256\n        /* \"RVA/Token.sol\":1328:1360  lockedUntil[account] = timestamp */\n      dup4\n      swap1\n      sstore\n        /* \"RVA/Token.sol\":1375:1404  LockupSet(account, timestamp) */\n      mload\n      0x611cdbea265cb87ef40e17c595bad009182b4db741622f7848e344c15451de2f\n      swap1\n      tag_130\n      swap1\n        /* \"RVA/Token.sol\":1351:1360  timestamp */\n      dup5\n        /* \"#utility.yul\":1719:1744   */\n      dup2\n      mstore\n        /* \"#utility.yul\":1707:1709   */\n      0x20\n        /* \"#utility.yul\":1692:1710   */\n      add\n      swap1\n        /* \"#utility.yul\":1573:1750   */\n      jump\n        /* \"RVA/Token.sol\":1078:1143  function unpause() external onlyOwner {... */\n    tag_64:\n        /* \"@openzeppelin/contracts/access/Ownable.sol\":1531:1544  _checkOwner() */\n      tag_159\n        /* \"@openzeppelin/contracts/access/Ownable.sol\":1531:1542  _checkOwner */\n      tag_128\n        /* \"@openzeppelin/contracts/access/Ownable.sol\":1531:1544  _checkOwner() */\n      jump\t// in\n    tag_159:\n        /* \"RVA/Token.sol\":1126:1136  _unpause() */\n      tag_161\n        /* \"RVA/Token.sol\":1126:1134  _unpause */\n      tag_162\n        /* \"RVA/Token.sol\":1126:1136  _unpause() */\n      jump\t// in\n    tag_161:\n        /* \"RVA/Token.sol\":1078:1143  function unpause() external onlyOwner {... */\n      jump\t// out\n        /* \"@openzeppelin/contracts/access/Ownable.sol\":2293:2394  function renounceOwnership() public virtual onlyOwner {... */\n    tag_73:\n        /* \"@openzeppelin/contracts/access/Ownable.sol\":1531:1544  _checkOwner() */\n      tag_166\n        /* \"@openzeppelin/contracts/access/Ownable.sol\":1531:1542  _checkOwner */\n      tag_128\n        /* \"@openzeppelin/contracts/access/Ownable.sol\":1531:1544  _checkOwner() */\n      jump\t// in\n    tag_166:\n        /* \"@openzeppelin/contracts/access/Ownable.sol\":2357:2387  _transferOwnership(address(0)) */\n      tag_161\n        /* \"@openzeppelin/contracts/access/Ownable.sol\":2384:2385  0 */\n      0x00\n        /* \"@openzeppelin/contracts/access/Ownable.sol\":2357:2375  _transferOwnership */\n      tag_169\n        /* \"@openzeppelin/contracts/access/Ownable.sol\":2357:2387  _transferOwnership(address(0)) */\n      jump\t// in\n        /* \"RVA/Token.sol\":1011:1072  function pause() external onlyOwner {... */\n    tag_75:\n        /* \"@openzeppelin/contracts/access/Ownable.sol\":1531:1544  _checkOwner() */\n      tag_171\n        /* \"@openzeppelin/contracts/access/Ownable.sol\":1531:1542  _checkOwner */\n      tag_128\n        /* \"@openzeppelin/contracts/access/Ownable.sol\":1531:1544  _checkOwner() */\n      jump\t// in\n    tag_171:\n        /* \"RVA/Token.sol\":1057:1065  _pause() */\n      tag_161\n        /* \"RVA/Token.sol\":1057:1063  _pause */\n      tag_174\n        /* \"RVA/Token.sol\":1057:1065  _pause() */\n      jump\t// in\n        /* \"RVA/Token.sol\":2810:3300  function batchTransfer(address[] calldata recipients, uint256[] calldata amounts) external whenNotPaused {... */\n    tag_79:\n        /* \"@openzeppelin/contracts/security/Pausable.sol\":1239:1258  _requireNotPaused() */\n      tag_176\n        /* \"@openzeppelin/contracts/security/Pausable.sol\":1239:1256  _requireNotPaused */\n      tag_134\n        /* \"@openzeppelin/contracts/security/Pausable.sol\":1239:1258  _requireNotPaused() */\n      jump\t// in\n    tag_176:\n        /* \"RVA/Token.sol\":2933:2968  recipients.length == amounts.length */\n      dup3\n      dup2\n      eq\n        /* \"RVA/Token.sol\":2925:3012  require(recipients.length == amounts.length, \"BatchTransfer failed: Mismatched arrays\") */\n      tag_178\n      jumpi\n      mload(0x40)\n      shl(0xe5, 0x461bcd)\n      dup2\n      mstore\n        /* \"#utility.yul\":6282:6284   */\n      0x20\n        /* \"RVA/Token.sol\":2925:3012  require(recipients.length == amounts.length, \"BatchTransfer failed: Mismatched arrays\") */\n      0x04\n      dup3\n      add\n        /* \"#utility.yul\":6264:6285   */\n      mstore\n        /* \"#utility.yul\":6321:6323   */\n      0x27\n        /* \"#utility.yul\":6301:6319   */\n      0x24\n      dup3\n      add\n        /* \"#utility.yul\":6294:6324   */\n      mstore\n        /* \"#utility.yul\":6360:6394   */\n      0x42617463685472616e73666572206661696c65643a204d69736d617463686564\n        /* \"#utility.yul\":6340:6358   */\n      0x44\n      dup3\n      add\n        /* \"#utility.yul\":6333:6395   */\n      mstore\n      shl(0xc8, 0x20617272617973)\n        /* \"#utility.yul\":6411:6429   */\n      0x64\n      dup3\n      add\n        /* \"#utility.yul\":6404:6441   */\n      mstore\n        /* \"#utility.yul\":6458:6477   */\n      0x84\n      add\n        /* \"RVA/Token.sol\":2925:3012  require(recipients.length == amounts.length, \"BatchTransfer failed: Mismatched arrays\") */\n      tag_137\n        /* \"#utility.yul\":6080:6483   */\n      jump\n        /* \"RVA/Token.sol\":2925:3012  require(recipients.length == amounts.length, \"BatchTransfer failed: Mismatched arrays\") */\n    tag_178:\n        /* \"RVA/Token.sol\":3048:3058  recipients */\n      dup3\n        /* \"RVA/Token.sol\":3022:3045  uint256 recipientLength */\n      0x00\n        /* \"RVA/Token.sol\":3075:3294  for (uint256 i = 0; i < recipientLength; i++) {... */\n    tag_181:\n        /* \"RVA/Token.sol\":3099:3114  recipientLength */\n      dup2\n        /* \"RVA/Token.sol\":3095:3096  i */\n      dup2\n        /* \"RVA/Token.sol\":3095:3114  i < recipientLength */\n      lt\n        /* \"RVA/Token.sol\":3075:3294  for (uint256 i = 0; i < recipientLength; i++) {... */\n      iszero\n      tag_182\n      jumpi\n        /* \"RVA/Token.sol\":3144:3155  blacklisted */\n      0x09\n        /* \"RVA/Token.sol\":3144:3170  blacklisted[recipients[i]] */\n      0x00\n        /* \"RVA/Token.sol\":3156:3166  recipients */\n      dup8\n      dup8\n        /* \"RVA/Token.sol\":3167:3168  i */\n      dup5\n        /* \"RVA/Token.sol\":3156:3169  recipients[i] */\n      dup2\n      dup2\n      lt\n      tag_185\n      jumpi\n      tag_185\n      tag_186\n      jump\t// in\n    tag_185:\n      swap1\n      pop\n      0x20\n      mul\n      add\n      0x20\n      dup2\n      add\n      swap1\n      tag_187\n      swap2\n      swap1\n      tag_54\n      jump\t// in\n    tag_187:\n      sub(shl(0xa0, 0x01), 0x01)\n        /* \"RVA/Token.sol\":3144:3170  blacklisted[recipients[i]] */\n      and\n      dup2\n      mstore\n      0x20\n      dup2\n      add\n      swap2\n      swap1\n      swap2\n      mstore\n      0x40\n      add\n      0x00\n      keccak256\n      sload\n      0xff\n      and\n        /* \"RVA/Token.sol\":3143:3170  !blacklisted[recipients[i]] */\n      iszero\n        /* \"RVA/Token.sol\":3135:3221  require(!blacklisted[recipients[i]], \"BatchTransfer failed: Recipient is blacklisted\") */\n      tag_188\n      jumpi\n      mload(0x40)\n      shl(0xe5, 0x461bcd)\n      dup2\n      mstore\n        /* \"#utility.yul\":6822:6824   */\n      0x20\n        /* \"RVA/Token.sol\":3135:3221  require(!blacklisted[recipients[i]], \"BatchTransfer failed: Recipient is blacklisted\") */\n      0x04\n      dup3\n      add\n        /* \"#utility.yul\":6804:6825   */\n      mstore\n        /* \"#utility.yul\":6861:6863   */\n      0x2e\n        /* \"#utility.yul\":6841:6859   */\n      0x24\n      dup3\n      add\n        /* \"#utility.yul\":6834:6864   */\n      mstore\n        /* \"#utility.yul\":6900:6934   */\n      0x42617463685472616e73666572206661696c65643a20526563697069656e7420\n        /* \"#utility.yul\":6880:6898   */\n      0x44\n      dup3\n      add\n        /* \"#utility.yul\":6873:6935   */\n      mstore\n      shl(0x92, 0x1a5cc8189b1858dadb1a5cdd1959)\n        /* \"#utility.yul\":6951:6969   */\n      0x64\n      dup3\n      add\n        /* \"#utility.yul\":6944:6988   */\n      mstore\n        /* \"#utility.yul\":7005:7024   */\n      0x84\n      add\n        /* \"RVA/Token.sol\":3135:3221  require(!blacklisted[recipients[i]], \"BatchTransfer failed: Recipient is blacklisted\") */\n      tag_137\n        /* \"#utility.yul\":6620:7030   */\n      jump\n        /* \"RVA/Token.sol\":3135:3221  require(!blacklisted[recipients[i]], \"BatchTransfer failed: Recipient is blacklisted\") */\n    tag_188:\n        /* \"RVA/Token.sol\":3235:3283  _transfer(msg.sender, recipients[i], amounts[i]) */\n      tag_191\n        /* \"RVA/Token.sol\":3245:3255  msg.sender */\n      caller\n        /* \"RVA/Token.sol\":3257:3267  recipients */\n      dup8\n      dup8\n        /* \"RVA/Token.sol\":3268:3269  i */\n      dup5\n        /* \"RVA/Token.sol\":3257:3270  recipients[i] */\n      dup2\n      dup2\n      lt\n      tag_193\n      jumpi\n      tag_193\n      tag_186\n      jump\t// in\n    tag_193:\n      swap1\n      pop\n      0x20\n      mul\n      add\n      0x20\n      dup2\n      add\n      swap1\n      tag_194\n      swap2\n      swap1\n      tag_54\n      jump\t// in\n    tag_194:\n        /* \"RVA/Token.sol\":3272:3279  amounts */\n      dup7\n      dup7\n        /* \"RVA/Token.sol\":3280:3281  i */\n      dup6\n        /* \"RVA/Token.sol\":3272:3282  amounts[i] */\n      dup2\n      dup2\n      lt\n      tag_196\n      jumpi\n      tag_196\n      tag_186\n      jump\t// in\n    tag_196:\n      swap1\n      pop\n      0x20\n      mul\n      add\n      calldataload\n        /* \"RVA/Token.sol\":3235:3244  _transfer */\n      tag_197\n        /* \"RVA/Token.sol\":3235:3283  _transfer(msg.sender, recipients[i], amounts[i]) */\n      jump\t// in\n    tag_191:\n        /* \"RVA/Token.sol\":3116:3119  i++ */\n      0x01\n      add\n        /* \"RVA/Token.sol\":3075:3294  for (uint256 i = 0; i < recipientLength; i++) {... */\n      jump(tag_181)\n    tag_182:\n      pop\n        /* \"RVA/Token.sol\":2915:3300  {... */\n      pop\n        /* \"RVA/Token.sol\":2810:3300  function batchTransfer(address[] calldata recipients, uint256[] calldata amounts) external whenNotPaused {... */\n      pop\n      pop\n      pop\n      pop\n      jump\t// out\n        /* \"@openzeppelin/contracts/token/ERC20/ERC20.sol\":1981:2074  function symbol() public view virtual returns (string memory) {... */\n    tag_85:\n        /* \"@openzeppelin/contracts/token/ERC20/ERC20.sol\":2028:2041  string memory */\n      0x60\n        /* \"@openzeppelin/contracts/token/ERC20/ERC20.sol\":2060:2067  _symbol */\n      0x04\n        /* \"@openzeppelin/contracts/token/ERC20/ERC20.sol\":2053:2067  return _symbol */\n      dup1\n      sload\n      tag_115\n      swap1\n      tag_116\n      jump\t// in\n        /* \"RVA/Token.sol\":1705:2163  function transfer(address recipient, uint256 amount) public override whenNotPaused returns (bool) {... */\n    tag_93:\n        /* \"RVA/Token.sol\":1797:1801  bool */\n      0x00\n        /* \"@openzeppelin/contracts/security/Pausable.sol\":1239:1258  _requireNotPaused() */\n      tag_206\n        /* \"@openzeppelin/contracts/security/Pausable.sol\":1239:1256  _requireNotPaused */\n      tag_134\n        /* \"@openzeppelin/contracts/security/Pausable.sol\":1239:1258  _requireNotPaused() */\n      jump\t// in\n    tag_206:\n        /* \"RVA/Token.sol\":1834:1844  msg.sender */\n      caller\n        /* \"RVA/Token.sol\":1822:1845  blacklisted[msg.sender] */\n      0x00\n      swap1\n      dup2\n      mstore\n        /* \"RVA/Token.sol\":1822:1833  blacklisted */\n      0x09\n        /* \"RVA/Token.sol\":1822:1845  blacklisted[msg.sender] */\n      0x20\n      mstore\n      0x40\n      swap1\n      keccak256\n      sload\n      0xff\n      and\n        /* \"RVA/Token.sol\":1821:1845  !blacklisted[msg.sender] */\n      iszero\n        /* \"RVA/Token.sol\":1813:1888  require(!blacklisted[msg.sender], \"Transfer failed: Sender is blacklisted\") */\n      tag_208\n      jumpi\n      mload(0x40)\n      shl(0xe5, 0x461bcd)\n      dup2\n      mstore\n      0x04\n      add\n      tag_137\n      swap1\n      tag_138\n      jump\t// in\n    tag_208:\n      sub(shl(0xa0, 0x01), 0x01)\n        /* \"RVA/Token.sol\":1907:1929  blacklisted[recipient] */\n      dup4\n      and\n      0x00\n      swap1\n      dup2\n      mstore\n        /* \"RVA/Token.sol\":1907:1918  blacklisted */\n      0x09\n        /* \"RVA/Token.sol\":1907:1929  blacklisted[recipient] */\n      0x20\n      mstore\n      0x40\n      swap1\n      keccak256\n      sload\n      0xff\n      and\n        /* \"RVA/Token.sol\":1906:1929  !blacklisted[recipient] */\n      iszero\n        /* \"RVA/Token.sol\":1898:1975  require(!blacklisted[recipient], \"Transfer failed: Recipient is blacklisted\") */\n      tag_210\n      jumpi\n      mload(0x40)\n      shl(0xe5, 0x461bcd)\n      dup2\n      mstore\n      0x04\n      add\n      tag_137\n      swap1\n      tag_141\n      jump\t// in\n    tag_210:\n        /* \"RVA/Token.sol\":2024:2034  msg.sender */\n      caller\n        /* \"RVA/Token.sol\":2012:2035  lockedUntil[msg.sender] */\n      0x00\n      swap1\n      dup2\n      mstore\n        /* \"RVA/Token.sol\":2012:2023  lockedUntil */\n      0x08\n        /* \"RVA/Token.sol\":2012:2035  lockedUntil[msg.sender] */\n      0x20\n      mstore\n      0x40\n      swap1\n      keccak256\n      sload\n        /* \"RVA/Token.sol\":1993:2008  block.timestamp */\n      timestamp\n        /* \"RVA/Token.sol\":1993:2035  block.timestamp >= lockedUntil[msg.sender] */\n      lt\n      iszero\n      dup1\n        /* \"RVA/Token.sol\":1993:2067  block.timestamp >= lockedUntil[msg.sender] || lockedUntil[msg.sender] == 0 */\n      tag_212\n      jumpi\n      pop\n        /* \"RVA/Token.sol\":2051:2061  msg.sender */\n      caller\n        /* \"RVA/Token.sol\":2039:2062  lockedUntil[msg.sender] */\n      0x00\n      swap1\n      dup2\n      mstore\n        /* \"RVA/Token.sol\":2039:2050  lockedUntil */\n      0x08\n        /* \"RVA/Token.sol\":2039:2062  lockedUntil[msg.sender] */\n      0x20\n      mstore\n      0x40\n      swap1\n      keccak256\n      sload\n        /* \"RVA/Token.sol\":2039:2067  lockedUntil[msg.sender] == 0 */\n      iszero\n        /* \"RVA/Token.sol\":1993:2067  block.timestamp >= lockedUntil[msg.sender] || lockedUntil[msg.sender] == 0 */\n    tag_212:\n        /* \"RVA/Token.sol\":1985:2106  require(block.timestamp >= lockedUntil[msg.sender] || lockedUntil[msg.sender] == 0, \"Transfer failed: Tokens are locked\") */\n      tag_213\n      jumpi\n      mload(0x40)\n      shl(0xe5, 0x461bcd)\n      dup2\n      mstore\n      0x04\n      add\n      tag_137\n      swap1\n      tag_145\n      jump\t// in\n    tag_213:\n        /* \"RVA/Token.sol\":2123:2156  super.transfer(recipient, amount) */\n      tag_215\n        /* \"RVA/Token.sol\":2138:2147  recipient */\n      dup4\n        /* \"RVA/Token.sol\":2149:2155  amount */\n      dup4\n        /* \"RVA/Token.sol\":2123:2137  super.transfer */\n      tag_216\n        /* \"RVA/Token.sol\":2123:2156  super.transfer(recipient, amount) */\n      jump\t// in\n    tag_215:\n        /* \"RVA/Token.sol\":2116:2156  return super.transfer(recipient, amount) */\n      swap4\n        /* \"RVA/Token.sol\":1705:2163  function transfer(address recipient, uint256 amount) public override whenNotPaused returns (bool) {... */\n      swap3\n      pop\n      pop\n      pop\n      jump\t// out\n        /* \"@openzeppelin/contracts/access/Ownable.sol\":2543:2758  function transferOwnership(address newOwner) public virtual onlyOwner {... */\n    tag_109:\n        /* \"@openzeppelin/contracts/access/Ownable.sol\":1531:1544  _checkOwner() */\n      tag_219\n        /* \"@openzeppelin/contracts/access/Ownable.sol\":1531:1542  _checkOwner */\n      tag_128\n        /* \"@openzeppelin/contracts/access/Ownable.sol\":1531:1544  _checkOwner() */\n      jump\t// in\n    tag_219:\n      sub(shl(0xa0, 0x01), 0x01)\n        /* \"@openzeppelin/contracts/access/Ownable.sol\":2627:2649  newOwner == address(0) */\n      dup2\n      and\n        /* \"@openzeppelin/contracts/access/Ownable.sol\":2623:2714  if (newOwner == address(0)) {... */\n      tag_221\n      jumpi\n        /* \"@openzeppelin/contracts/access/Ownable.sol\":2672:2703  OwnableInvalidOwner(address(0)) */\n      mload(0x40)\n      shl(0xe0, 0x1e4fbdf7)\n      dup2\n      mstore\n        /* \"@openzeppelin/contracts/access/Ownable.sol\":2700:2701  0 */\n      0x00\n        /* \"@openzeppelin/contracts/access/Ownable.sol\":2672:2703  OwnableInvalidOwner(address(0)) */\n      0x04\n      dup3\n      add\n        /* \"#utility.yul\":3805:3856   */\n      mstore\n        /* \"#utility.yul\":3778:3796   */\n      0x24\n      add\n        /* \"@openzeppelin/contracts/access/Ownable.sol\":2672:2703  OwnableInvalidOwner(address(0)) */\n      tag_137\n        /* \"#utility.yul\":3659:3862   */\n      jump\n        /* \"@openzeppelin/contracts/access/Ownable.sol\":2623:2714  if (newOwner == address(0)) {... */\n    tag_221:\n        /* \"@openzeppelin/contracts/access/Ownable.sol\":2723:2751  _transferOwnership(newOwner) */\n      tag_223\n        /* \"@openzeppelin/contracts/access/Ownable.sol\":2742:2750  newOwner */\n      dup2\n        /* \"@openzeppelin/contracts/access/Ownable.sol\":2723:2741  _transferOwnership */\n      tag_169\n        /* \"@openzeppelin/contracts/access/Ownable.sol\":2723:2751  _transferOwnership(newOwner) */\n      jump\t// in\n    tag_223:\n        /* \"@openzeppelin/contracts/access/Ownable.sol\":2543:2758  function transferOwnership(address newOwner) public virtual onlyOwner {... */\n      pop\n      jump\t// out\n        /* \"@openzeppelin/contracts/token/ERC20/ERC20.sol\":8726:8854  function _approve(address owner, address spender, uint256 value) internal {... */\n    tag_125:\n        /* \"@openzeppelin/contracts/token/ERC20/ERC20.sol\":8810:8847  _approve(owner, spender, value, true) */\n      tag_227\n        /* \"@openzeppelin/contracts/token/ERC20/ERC20.sol\":8819:8824  owner */\n      dup4\n        /* \"@openzeppelin/contracts/token/ERC20/ERC20.sol\":8826:8833  spender */\n      dup4\n        /* \"@openzeppelin/contracts/token/ERC20/ERC20.sol\":8835:8840  value */\n      dup4\n        /* \"@openzeppelin/contracts/token/ERC20/ERC20.sol\":8842:8846  true */\n      0x01\n        /* \"@openzeppelin/contracts/token/ERC20/ERC20.sol\":8810:8818  _approve */\n      tag_228\n        /* \"@openzeppelin/contracts/token/ERC20/ERC20.sol\":8810:8847  _approve(owner, spender, value, true) */\n      jump\t// in\n    tag_227:\n        /* \"@openzeppelin/contracts/token/ERC20/ERC20.sol\":8726:8854  function _approve(address owner, address spender, uint256 value) internal {... */\n      pop\n      pop\n      pop\n      jump\t// out\n        /* \"@openzeppelin/contracts/access/Ownable.sol\":1796:1958  function _checkOwner() internal view virtual {... */\n    tag_128:\n        /* \"@openzeppelin/contracts/access/Ownable.sol\":1710:1716  _owner */\n      and(sub(shl(0xa0, 0x01), 0x01), sload(0x05))\n        /* \"@openzeppelin/contracts/utils/Context.sol\":735:745  msg.sender */\n      caller\n        /* \"@openzeppelin/contracts/access/Ownable.sol\":1855:1878  owner() != _msgSender() */\n      eq\n        /* \"@openzeppelin/contracts/access/Ownable.sol\":1851:1952  if (owner() != _msgSender()) {... */\n      tag_161\n      jumpi\n        /* \"@openzeppelin/contracts/access/Ownable.sol\":1901:1941  OwnableUnauthorizedAccount(_msgSender()) */\n      mload(0x40)\n      shl(0xe0, 0x118cdaa7)\n      dup2\n      mstore\n        /* \"@openzeppelin/contracts/utils/Context.sol\":735:745  msg.sender */\n      caller\n        /* \"@openzeppelin/contracts/access/Ownable.sol\":1901:1941  OwnableUnauthorizedAccount(_msgSender()) */\n      0x04\n      dup3\n      add\n        /* \"#utility.yul\":3805:3856   */\n      mstore\n        /* \"#utility.yul\":3778:3796   */\n      0x24\n      add\n        /* \"@openzeppelin/contracts/access/Ownable.sol\":1901:1941  OwnableUnauthorizedAccount(_msgSender()) */\n      tag_137\n        /* \"#utility.yul\":3659:3862   */\n      jump\n        /* \"@openzeppelin/contracts/security/Pausable.sol\":1767:1873  function _requireNotPaused() internal view virtual {... */\n    tag_134:\n        /* \"@openzeppelin/contracts/security/Pausable.sol\":1685:1692  _paused */\n      sload(0x05)\n      shl(0xa0, 0x01)\n      swap1\n      div\n      0xff\n      and\n        /* \"@openzeppelin/contracts/security/Pausable.sol\":1836:1845  !paused() */\n      iszero\n        /* \"@openzeppelin/contracts/security/Pausable.sol\":1828:1866  require(!paused(), \"Pausable: paused\") */\n      tag_161\n      jumpi\n      mload(0x40)\n      shl(0xe5, 0x461bcd)\n      dup2\n      mstore\n        /* \"#utility.yul\":7237:7239   */\n      0x20\n        /* \"@openzeppelin/contracts/security/Pausable.sol\":1828:1866  require(!paused(), \"Pausable: paused\") */\n      0x04\n      dup3\n      add\n        /* \"#utility.yul\":7219:7240   */\n      mstore\n        /* \"#utility.yul\":7276:7278   */\n      0x10\n        /* \"#utility.yul\":7256:7274   */\n      0x24\n      dup3\n      add\n        /* \"#utility.yul\":7249:7279   */\n      mstore\n      shl(0x82, 0x14185d5cd8589b194e881c185d5cd959)\n        /* \"#utility.yul\":7295:7313   */\n      0x44\n      dup3\n      add\n        /* \"#utility.yul\":7288:7334   */\n      mstore\n        /* \"#utility.yul\":7351:7369   */\n      0x64\n      add\n        /* \"@openzeppelin/contracts/security/Pausable.sol\":1828:1866  require(!paused(), \"Pausable: paused\") */\n      tag_137\n        /* \"#utility.yul\":7035:7375   */\n      jump\n        /* \"@openzeppelin/contracts/token/ERC20/ERC20.sol\":4776:5020  function transferFrom(address from, address to, uint256 value) public virtual returns (bool) {... */\n    tag_147:\n        /* \"@openzeppelin/contracts/token/ERC20/ERC20.sol\":4863:4867  bool */\n      0x00\n        /* \"@openzeppelin/contracts/utils/Context.sol\":735:745  msg.sender */\n      caller\n        /* \"@openzeppelin/contracts/token/ERC20/ERC20.sol\":4919:4956  _spendAllowance(from, spender, value) */\n      tag_242\n        /* \"@openzeppelin/contracts/token/ERC20/ERC20.sol\":4935:4939  from */\n      dup6\n        /* \"@openzeppelin/contracts/utils/Context.sol\":735:745  msg.sender */\n      dup3\n        /* \"@openzeppelin/contracts/token/ERC20/ERC20.sol\":4950:4955  value */\n      dup6\n        /* \"@openzeppelin/contracts/token/ERC20/ERC20.sol\":4919:4934  _spendAllowance */\n      tag_243\n        /* \"@openzeppelin/contracts/token/ERC20/ERC20.sol\":4919:4956  _spendAllowance(from, spender, value) */\n      jump\t// in\n    tag_242:\n        /* \"@openzeppelin/contracts/token/ERC20/ERC20.sol\":4966:4992  _transfer(from, to, value) */\n      tag_244\n        /* \"@openzeppelin/contracts/token/ERC20/ERC20.sol\":4976:4980  from */\n      dup6\n        /* \"@openzeppelin/contracts/token/ERC20/ERC20.sol\":4982:4984  to */\n      dup6\n        /* \"@openzeppelin/contracts/token/ERC20/ERC20.sol\":4986:4991  value */\n      dup6\n        /* \"@openzeppelin/contracts/token/ERC20/ERC20.sol\":4966:4975  _transfer */\n      tag_197\n        /* \"@openzeppelin/contracts/token/ERC20/ERC20.sol\":4966:4992  _transfer(from, to, value) */\n      jump\t// in\n    tag_244:\n      pop\n        /* \"@openzeppelin/contracts/token/ERC20/ERC20.sol\":5009:5013  true */\n      0x01\n      swap5\n        /* \"@openzeppelin/contracts/token/ERC20/ERC20.sol\":4776:5020  function transferFrom(address from, address to, uint256 value) public virtual returns (bool) {... */\n      swap4\n      pop\n      pop\n      pop\n      pop\n      jump\t// out\n        /* \"@openzeppelin/contracts/security/Pausable.sol\":2433:2550  function _unpause() internal virtual whenPaused {... */\n    tag_162:\n        /* \"@openzeppelin/contracts/security/Pausable.sol\":1486:1502  _requirePaused() */\n      tag_246\n        /* \"@openzeppelin/contracts/security/Pausable.sol\":1486:1500  _requirePaused */\n      tag_247\n        /* \"@openzeppelin/contracts/security/Pausable.sol\":1486:1502  _requirePaused() */\n      jump\t// in\n    tag_246:\n        /* \"@openzeppelin/contracts/security/Pausable.sol\":2491:2498  _paused */\n      0x05\n        /* \"@openzeppelin/contracts/security/Pausable.sol\":2491:2506  _paused = false */\n      dup1\n      sload\n      not(shl(0xa0, 0xff))\n      and\n      swap1\n      sstore\n        /* \"@openzeppelin/contracts/security/Pausable.sol\":2521:2543  Unpaused(_msgSender()) */\n      0x5db9ee0a495bf2e6ff9c91a7834c1ba4fdd244a5e8aa4e537bd38aeae4b073aa\n        /* \"@openzeppelin/contracts/utils/Context.sol\":735:745  msg.sender */\n      caller\n        /* \"@openzeppelin/contracts/security/Pausable.sol\":2530:2542  _msgSender() */\n    tag_249:\n        /* \"@openzeppelin/contracts/security/Pausable.sol\":2521:2543  Unpaused(_msgSender()) */\n      mload(0x40)\n      sub(shl(0xa0, 0x01), 0x01)\n        /* \"#utility.yul\":3823:3855   */\n      swap1\n      swap2\n      and\n        /* \"#utility.yul\":3805:3856   */\n      dup2\n      mstore\n        /* \"#utility.yul\":3793:3795   */\n      0x20\n        /* \"#utility.yul\":3778:3796   */\n      add\n        /* \"@openzeppelin/contracts/security/Pausable.sol\":2521:2543  Unpaused(_msgSender()) */\n      mload(0x40)\n      dup1\n      swap2\n      sub\n      swap1\n      log1\n        /* \"@openzeppelin/contracts/security/Pausable.sol\":2433:2550  function _unpause() internal virtual whenPaused {... */\n      jump\t// out\n        /* \"@openzeppelin/contracts/access/Ownable.sol\":2912:3099  function _transferOwnership(address newOwner) internal virtual {... */\n    tag_169:\n        /* \"@openzeppelin/contracts/access/Ownable.sol\":3004:3010  _owner */\n      0x05\n      dup1\n      sload\n      sub(shl(0xa0, 0x01), 0x01)\n        /* \"@openzeppelin/contracts/access/Ownable.sol\":3020:3037  _owner = newOwner */\n      dup4\n      dup2\n      and\n      not(sub(shl(0xa0, 0x01), 0x01))\n      dup4\n      and\n      dup2\n      or\n      swap1\n      swap4\n      sstore\n        /* \"@openzeppelin/contracts/access/Ownable.sol\":3052:3092  OwnershipTransferred(oldOwner, newOwner) */\n      mload(0x40)\n        /* \"@openzeppelin/contracts/access/Ownable.sol\":3004:3010  _owner */\n      swap2\n      and\n      swap2\n        /* \"@openzeppelin/contracts/access/Ownable.sol\":3020:3037  _owner = newOwner */\n      swap1\n        /* \"@openzeppelin/contracts/access/Ownable.sol\":3004:3010  _owner */\n      dup3\n      swap1\n        /* \"@openzeppelin/contracts/access/Ownable.sol\":3052:3092  OwnershipTransferred(oldOwner, newOwner) */\n      0x8be0079c531659141344cd1fd0a4f28419497f9722a3daafe3b4186f6b6457e0\n      swap1\n        /* \"@openzeppelin/contracts/access/Ownable.sol\":2985:3001  address oldOwner */\n      0x00\n      swap1\n        /* \"@openzeppelin/contracts/access/Ownable.sol\":3052:3092  OwnershipTransferred(oldOwner, newOwner) */\n      log3\n        /* \"@openzeppelin/contracts/access/Ownable.sol\":2975:3099  {... */\n      pop\n        /* \"@openzeppelin/contracts/access/Ownable.sol\":2912:3099  function _transferOwnership(address newOwner) internal virtual {... */\n      pop\n      jump\t// out\n        /* \"@openzeppelin/contracts/security/Pausable.sol\":2186:2301  function _pause() internal virtual whenNotPaused {... */\n    tag_174:\n        /* \"@openzeppelin/contracts/security/Pausable.sol\":1239:1258  _requireNotPaused() */\n      tag_253\n        /* \"@openzeppelin/contracts/security/Pausable.sol\":1239:1256  _requireNotPaused */\n      tag_134\n        /* \"@openzeppelin/contracts/security/Pausable.sol\":1239:1258  _requireNotPaused() */\n      jump\t// in\n    tag_253:\n        /* \"@openzeppelin/contracts/security/Pausable.sol\":2245:2252  _paused */\n      0x05\n        /* \"@openzeppelin/contracts/security/Pausable.sol\":2245:2259  _paused = true */\n      dup1\n      sload\n      not(shl(0xa0, 0xff))\n      and\n      shl(0xa0, 0x01)\n      or\n      swap1\n      sstore\n        /* \"@openzeppelin/contracts/security/Pausable.sol\":2274:2294  Paused(_msgSender()) */\n      0x62e78cea01bee320cd4e420270b5ea74000d11b0c9f74754ebdbfc544b05a258\n        /* \"@openzeppelin/contracts/security/Pausable.sol\":2281:2293  _msgSender() */\n      tag_249\n        /* \"@openzeppelin/contracts/utils/Context.sol\":735:745  msg.sender */\n      caller\n      swap1\n        /* \"@openzeppelin/contracts/utils/Context.sol\":656:752  function _msgSender() internal view virtual returns (address) {... */\n      jump\n        /* \"@openzeppelin/contracts/token/ERC20/ERC20.sol\":5393:5693  function _transfer(address from, address to, uint256 value) internal {... */\n    tag_197:\n      sub(shl(0xa0, 0x01), 0x01)\n        /* \"@openzeppelin/contracts/token/ERC20/ERC20.sol\":5476:5494  from == address(0) */\n      dup4\n      and\n        /* \"@openzeppelin/contracts/token/ERC20/ERC20.sol\":5472:5558  if (from == address(0)) {... */\n      tag_258\n      jumpi\n        /* \"@openzeppelin/contracts/token/ERC20/ERC20.sol\":5517:5547  ERC20InvalidSender(address(0)) */\n      mload(0x40)\n      shl(0xe1, 0x4b637e8f)\n      dup2\n      mstore\n        /* \"@openzeppelin/contracts/token/ERC20/ERC20.sol\":5544:5545  0 */\n      0x00\n        /* \"@openzeppelin/contracts/token/ERC20/ERC20.sol\":5517:5547  ERC20InvalidSender(address(0)) */\n      0x04\n      dup3\n      add\n        /* \"#utility.yul\":3805:3856   */\n      mstore\n        /* \"#utility.yul\":3778:3796   */\n      0x24\n      add\n        /* \"@openzeppelin/contracts/token/ERC20/ERC20.sol\":5517:5547  ERC20InvalidSender(address(0)) */\n      tag_137\n        /* \"#utility.yul\":3659:3862   */\n      jump\n        /* \"@openzeppelin/contracts/token/ERC20/ERC20.sol\":5472:5558  if (from == address(0)) {... */\n    tag_258:\n      sub(shl(0xa0, 0x01), 0x01)\n        /* \"@openzeppelin/contracts/token/ERC20/ERC20.sol\":5571:5587  to == address(0) */\n      dup3\n      and\n        /* \"@openzeppelin/contracts/token/ERC20/ERC20.sol\":5567:5653  if (to == address(0)) {... */\n      tag_260\n      jumpi\n        /* \"@openzeppelin/contracts/token/ERC20/ERC20.sol\":5610:5642  ERC20InvalidReceiver(address(0)) */\n      mload(0x40)\n      shl(0xe0, 0xec442f05)\n      dup2\n      mstore\n        /* \"@openzeppelin/contracts/token/ERC20/ERC20.sol\":5639:5640  0 */\n      0x00\n        /* \"@openzeppelin/contracts/token/ERC20/ERC20.sol\":5610:5642  ERC20InvalidReceiver(address(0)) */\n      0x04\n      dup3\n      add\n        /* \"#utility.yul\":3805:3856   */\n      mstore\n        /* \"#utility.yul\":3778:3796   */\n      0x24\n      add\n        /* \"@openzeppelin/contracts/token/ERC20/ERC20.sol\":5610:5642  ERC20InvalidReceiver(address(0)) */\n      tag_137\n        /* \"#utility.yul\":3659:3862   */\n      jump\n        /* \"@openzeppelin/contracts/token/ERC20/ERC20.sol\":5567:5653  if (to == address(0)) {... */\n    tag_260:\n        /* \"@openzeppelin/contracts/token/ERC20/ERC20.sol\":5662:5686  _update(from, to, value) */\n      tag_227\n        /* \"@openzeppelin/contracts/token/ERC20/ERC20.sol\":5670:5674  from */\n      dup4\n        /* \"@openzeppelin/contracts/token/ERC20/ERC20.sol\":5676:5678  to */\n      dup4\n        /* \"@openzeppelin/contracts/token/ERC20/ERC20.sol\":5680:5685  value */\n      dup4\n        /* \"@openzeppelin/contracts/token/ERC20/ERC20.sol\":5662:5669  _update */\n      tag_263\n        /* \"@openzeppelin/contracts/token/ERC20/ERC20.sol\":5662:5686  _update(from, to, value) */\n      jump\t// in\n        /* \"@openzeppelin/contracts/token/ERC20/ERC20.sol\":3315:3493  function transfer(address to, uint256 value) public virtual returns (bool) {... */\n    tag_216:\n        /* \"@openzeppelin/contracts/token/ERC20/ERC20.sol\":3384:3388  bool */\n      0x00\n        /* \"@openzeppelin/contracts/utils/Context.sol\":735:745  msg.sender */\n      caller\n        /* \"@openzeppelin/contracts/token/ERC20/ERC20.sol\":3438:3465  _transfer(owner, to, value) */\n      tag_124\n        /* \"@openzeppelin/contracts/utils/Context.sol\":735:745  msg.sender */\n      dup2\n        /* \"@openzeppelin/contracts/token/ERC20/ERC20.sol\":3455:3457  to */\n      dup6\n        /* \"@openzeppelin/contracts/token/ERC20/ERC20.sol\":3459:3464  value */\n      dup6\n        /* \"@openzeppelin/contracts/token/ERC20/ERC20.sol\":3438:3447  _transfer */\n      tag_197\n        /* \"@openzeppelin/contracts/token/ERC20/ERC20.sol\":3438:3465  _transfer(owner, to, value) */\n      jump\t// in\n        /* \"@openzeppelin/contracts/token/ERC20/ERC20.sol\":9701:10133  function _approve(address owner, address spender, uint256 value, bool emitEvent) internal virtual {... */\n    tag_228:\n      sub(shl(0xa0, 0x01), 0x01)\n        /* \"@openzeppelin/contracts/token/ERC20/ERC20.sol\":9813:9832  owner == address(0) */\n      dup5\n      and\n        /* \"@openzeppelin/contracts/token/ERC20/ERC20.sol\":9809:9898  if (owner == address(0)) {... */\n      tag_268\n      jumpi\n        /* \"@openzeppelin/contracts/token/ERC20/ERC20.sol\":9855:9887  ERC20InvalidApprover(address(0)) */\n      mload(0x40)\n      shl(0xe0, 0xe602df05)\n      dup2\n      mstore\n        /* \"@openzeppelin/contracts/token/ERC20/ERC20.sol\":9884:9885  0 */\n      0x00\n        /* \"@openzeppelin/contracts/token/ERC20/ERC20.sol\":9855:9887  ERC20InvalidApprover(address(0)) */\n      0x04\n      dup3\n      add\n        /* \"#utility.yul\":3805:3856   */\n      mstore\n        /* \"#utility.yul\":3778:3796   */\n      0x24\n      add\n        /* \"@openzeppelin/contracts/token/ERC20/ERC20.sol\":9855:9887  ERC20InvalidApprover(address(0)) */\n      tag_137\n        /* \"#utility.yul\":3659:3862   */\n      jump\n        /* \"@openzeppelin/contracts/token/ERC20/ERC20.sol\":9809:9898  if (owner == address(0)) {... */\n    tag_268:\n      sub(shl(0xa0, 0x01), 0x01)\n        /* \"@openzeppelin/contracts/token/ERC20/ERC20.sol\":9911:9932  spender == address(0) */\n      dup4\n      and\n        /* \"@openzeppelin/contracts/token/ERC20/ERC20.sol\":9907:9997  if (spender == address(0)) {... */\n      tag_270\n      jumpi\n        /* \"@openzeppelin/contracts/token/ERC20/ERC20.sol\":9955:9986  ERC20InvalidSpender(address(0)) */\n      mload(0x40)\n      shl(0xe1, 0x4a1406b1)\n      dup2\n      mstore\n        /* \"@openzeppelin/contracts/token/ERC20/ERC20.sol\":9983:9984  0 */\n      0x00\n        /* \"@openzeppelin/contracts/token/ERC20/ERC20.sol\":9955:9986  ERC20InvalidSpender(address(0)) */\n      0x04\n      dup3\n      add\n        /* \"#utility.yul\":3805:3856   */\n      mstore\n        /* \"#utility.yul\":3778:3796   */\n      0x24\n      add\n        /* \"@openzeppelin/contracts/token/ERC20/ERC20.sol\":9955:9986  ERC20InvalidSpender(address(0)) */\n      tag_137\n        /* \"#utility.yul\":3659:3862   */\n      jump\n        /* \"@openzeppelin/contracts/token/ERC20/ERC20.sol\":9907:9997  if (spender == address(0)) {... */\n    tag_270:\n      sub(shl(0xa0, 0x01), 0x01)\n        /* \"@openzeppelin/contracts/token/ERC20/ERC20.sol\":10006:10024  _allowances[owner] */\n      dup1\n      dup6\n      and\n      0x00\n      swap1\n      dup2\n      mstore\n        /* \"@openzeppelin/contracts/token/ERC20/ERC20.sol\":10006:10017  _allowances */\n      0x01\n        /* \"@openzeppelin/contracts/token/ERC20/ERC20.sol\":10006:10024  _allowances[owner] */\n      0x20\n      swap1\n      dup2\n      mstore\n      0x40\n      dup1\n      dup4\n      keccak256\n        /* \"@openzeppelin/contracts/token/ERC20/ERC20.sol\":10006:10033  _allowances[owner][spender] */\n      swap4\n      dup8\n      and\n      dup4\n      mstore\n      swap3\n      swap1\n      mstore\n      keccak256\n        /* \"@openzeppelin/contracts/token/ERC20/ERC20.sol\":10006:10041  _allowances[owner][spender] = value */\n      dup3\n      swap1\n      sstore\n        /* \"@openzeppelin/contracts/token/ERC20/ERC20.sol\":10051:10127  if (emitEvent) {... */\n      dup1\n      iszero\n      tag_272\n      jumpi\n        /* \"@openzeppelin/contracts/token/ERC20/ERC20.sol\":10101:10108  spender */\n      dup3\n      sub(shl(0xa0, 0x01), 0x01)\n        /* \"@openzeppelin/contracts/token/ERC20/ERC20.sol\":10085:10116  Approval(owner, spender, value) */\n      and\n        /* \"@openzeppelin/contracts/token/ERC20/ERC20.sol\":10094:10099  owner */\n      dup5\n      sub(shl(0xa0, 0x01), 0x01)\n        /* \"@openzeppelin/contracts/token/ERC20/ERC20.sol\":10085:10116  Approval(owner, spender, value) */\n      and\n      0x8c5be1e5ebec7d5bd14f71427d1e84f3dd0314c0f7b2291e5b200ac8c7c3b925\n        /* \"@openzeppelin/contracts/token/ERC20/ERC20.sol\":10110:10115  value */\n      dup5\n        /* \"@openzeppelin/contracts/token/ERC20/ERC20.sol\":10085:10116  Approval(owner, spender, value) */\n      mload(0x40)\n      tag_273\n      swap2\n        /* \"#utility.yul\":1719:1744   */\n      dup2\n      mstore\n        /* \"#utility.yul\":1707:1709   */\n      0x20\n        /* \"#utility.yul\":1692:1710   */\n      add\n      swap1\n        /* \"#utility.yul\":1573:1750   */\n      jump\n        /* \"@openzeppelin/contracts/token/ERC20/ERC20.sol\":10085:10116  Approval(owner, spender, value) */\n    tag_273:\n      mload(0x40)\n      dup1\n      swap2\n      sub\n      swap1\n      log3\n        /* \"@openzeppelin/contracts/token/ERC20/ERC20.sol\":10051:10127  if (emitEvent) {... */\n    tag_272:\n        /* \"@openzeppelin/contracts/token/ERC20/ERC20.sol\":9701:10133  function _approve(address owner, address spender, uint256 value, bool emitEvent) internal virtual {... */\n      pop\n      pop\n      pop\n      pop\n      jump\t// out\n        /* \"@openzeppelin/contracts/token/ERC20/ERC20.sol\":10415:10892  function _spendAllowance(address owner, address spender, uint256 value) internal virtual {... */\n    tag_243:\n      sub(shl(0xa0, 0x01), 0x01)\n        /* \"@openzeppelin/contracts/token/ERC20/ERC20.sol\":3657:3675  _allowances[owner] */\n      dup4\n      dup2\n      and\n        /* \"@openzeppelin/contracts/token/ERC20/ERC20.sol\":10514:10538  uint256 currentAllowance */\n      0x00\n        /* \"@openzeppelin/contracts/token/ERC20/ERC20.sol\":3657:3675  _allowances[owner] */\n      swap1\n      dup2\n      mstore\n        /* \"@openzeppelin/contracts/token/ERC20/ERC20.sol\":3657:3668  _allowances */\n      0x01\n        /* \"@openzeppelin/contracts/token/ERC20/ERC20.sol\":3657:3675  _allowances[owner] */\n      0x20\n      swap1\n      dup2\n      mstore\n      0x40\n      dup1\n      dup4\n      keccak256\n        /* \"@openzeppelin/contracts/token/ERC20/ERC20.sol\":3657:3684  _allowances[owner][spender] */\n      swap4\n      dup7\n      and\n      dup4\n      mstore\n      swap3\n      swap1\n      mstore\n      keccak256\n      sload\n      not(0x00)\n        /* \"@openzeppelin/contracts/token/ERC20/ERC20.sol\":10580:10617  currentAllowance != type(uint256).max */\n      dup2\n      eq\n        /* \"@openzeppelin/contracts/token/ERC20/ERC20.sol\":10576:10886  if (currentAllowance != type(uint256).max) {... */\n      tag_272\n      jumpi\n        /* \"@openzeppelin/contracts/token/ERC20/ERC20.sol\":10656:10661  value */\n      dup2\n        /* \"@openzeppelin/contracts/token/ERC20/ERC20.sol\":10637:10653  currentAllowance */\n      dup2\n        /* \"@openzeppelin/contracts/token/ERC20/ERC20.sol\":10637:10661  currentAllowance < value */\n      lt\n        /* \"@openzeppelin/contracts/token/ERC20/ERC20.sol\":10633:10763  if (currentAllowance < value) {... */\n      iszero\n      tag_277\n      jumpi\n        /* \"@openzeppelin/contracts/token/ERC20/ERC20.sol\":10688:10748  ERC20InsufficientAllowance(spender, currentAllowance, value) */\n      mload(0x40)\n      shl(0xe1, 0x7dc7a0d9)\n      dup2\n      mstore\n      sub(shl(0xa0, 0x01), 0x01)\n        /* \"#utility.yul\":7600:7632   */\n      dup5\n      and\n        /* \"@openzeppelin/contracts/token/ERC20/ERC20.sol\":10688:10748  ERC20InsufficientAllowance(spender, currentAllowance, value) */\n      0x04\n      dup3\n      add\n        /* \"#utility.yul\":7582:7633   */\n      mstore\n        /* \"#utility.yul\":7649:7667   */\n      0x24\n      dup2\n      add\n        /* \"#utility.yul\":7642:7676   */\n      dup3\n      swap1\n      mstore\n        /* \"#utility.yul\":7692:7710   */\n      0x44\n      dup2\n      add\n        /* \"#utility.yul\":7685:7719   */\n      dup4\n      swap1\n      mstore\n        /* \"#utility.yul\":7555:7573   */\n      0x64\n      add\n        /* \"@openzeppelin/contracts/token/ERC20/ERC20.sol\":10688:10748  ERC20InsufficientAllowance(spender, currentAllowance, value) */\n      tag_137\n        /* \"#utility.yul\":7380:7725   */\n      jump\n        /* \"@openzeppelin/contracts/token/ERC20/ERC20.sol\":10633:10763  if (currentAllowance < value) {... */\n    tag_277:\n        /* \"@openzeppelin/contracts/token/ERC20/ERC20.sol\":10804:10861  _approve(owner, spender, currentAllowance - value, false) */\n      tag_272\n        /* \"@openzeppelin/contracts/token/ERC20/ERC20.sol\":10813:10818  owner */\n      dup5\n        /* \"@openzeppelin/contracts/token/ERC20/ERC20.sol\":10820:10827  spender */\n      dup5\n        /* \"@openzeppelin/contracts/token/ERC20/ERC20.sol\":10848:10853  value */\n      dup5\n        /* \"@openzeppelin/contracts/token/ERC20/ERC20.sol\":10829:10845  currentAllowance */\n      dup5\n        /* \"@openzeppelin/contracts/token/ERC20/ERC20.sol\":10829:10853  currentAllowance - value */\n      sub\n        /* \"@openzeppelin/contracts/token/ERC20/ERC20.sol\":10855:10860  false */\n      0x00\n        /* \"@openzeppelin/contracts/token/ERC20/ERC20.sol\":10804:10812  _approve */\n      tag_228\n        /* \"@openzeppelin/contracts/token/ERC20/ERC20.sol\":10804:10861  _approve(owner, spender, currentAllowance - value, false) */\n      jump\t// in\n        /* \"@openzeppelin/contracts/security/Pausable.sol\":1945:2051  function _requirePaused() internal view virtual {... */\n    tag_247:\n        /* \"@openzeppelin/contracts/security/Pausable.sol\":1685:1692  _paused */\n      sload(0x05)\n      shl(0xa0, 0x01)\n      swap1\n      div\n      0xff\n      and\n        /* \"@openzeppelin/contracts/security/Pausable.sol\":2003:2044  require(paused(), \"Pausable: not paused\") */\n      tag_161\n      jumpi\n      mload(0x40)\n      shl(0xe5, 0x461bcd)\n      dup2\n      mstore\n        /* \"#utility.yul\":7932:7934   */\n      0x20\n        /* \"@openzeppelin/contracts/security/Pausable.sol\":2003:2044  require(paused(), \"Pausable: not paused\") */\n      0x04\n      dup3\n      add\n        /* \"#utility.yul\":7914:7935   */\n      mstore\n        /* \"#utility.yul\":7971:7973   */\n      0x14\n        /* \"#utility.yul\":7951:7969   */\n      0x24\n      dup3\n      add\n        /* \"#utility.yul\":7944:7974   */\n      mstore\n      shl(0x62, 0x14185d5cd8589b194e881b9bdd081c185d5cd959)\n        /* \"#utility.yul\":7990:8008   */\n      0x44\n      dup3\n      add\n        /* \"#utility.yul\":7983:8033   */\n      mstore\n        /* \"#utility.yul\":8050:8068   */\n      0x64\n      add\n        /* \"@openzeppelin/contracts/security/Pausable.sol\":2003:2044  require(paused(), \"Pausable: not paused\") */\n      tag_137\n        /* \"#utility.yul\":7730:8074   */\n      jump\n        /* \"@openzeppelin/contracts/token/ERC20/ERC20.sol\":6008:7115  function _update(address from, address to, uint256 value) internal virtual {... */\n    tag_263:\n      sub(shl(0xa0, 0x01), 0x01)\n        /* \"@openzeppelin/contracts/token/ERC20/ERC20.sol\":6097:6115  from == address(0) */\n      dup4\n      and\n        /* \"@openzeppelin/contracts/token/ERC20/ERC20.sol\":6093:6633  if (from == address(0)) {... */\n      tag_287\n      jumpi\n        /* \"@openzeppelin/contracts/token/ERC20/ERC20.sol\":6249:6254  value */\n      dup1\n        /* \"@openzeppelin/contracts/token/ERC20/ERC20.sol\":6233:6245  _totalSupply */\n      0x02\n      0x00\n        /* \"@openzeppelin/contracts/token/ERC20/ERC20.sol\":6233:6254  _totalSupply += value */\n      dup3\n      dup3\n      sload\n      tag_288\n      swap2\n      swap1\n      tag_289\n      jump\t// in\n    tag_288:\n      swap1\n      swap2\n      sstore\n      pop\n        /* \"@openzeppelin/contracts/token/ERC20/ERC20.sol\":6093:6633  if (from == address(0)) {... */\n      tag_290\n      swap1\n      pop\n      jump\n    tag_287:\n      sub(shl(0xa0, 0x01), 0x01)\n        /* \"@openzeppelin/contracts/token/ERC20/ERC20.sol\":6307:6322  _balances[from] */\n      dup4\n      and\n        /* \"@openzeppelin/contracts/token/ERC20/ERC20.sol\":6285:6304  uint256 fromBalance */\n      0x00\n        /* \"@openzeppelin/contracts/token/ERC20/ERC20.sol\":6307:6322  _balances[from] */\n      swap1\n      dup2\n      mstore\n      0x20\n      dup2\n      swap1\n      mstore\n      0x40\n      swap1\n      keccak256\n      sload\n        /* \"@openzeppelin/contracts/token/ERC20/ERC20.sol\":6340:6359  fromBalance < value */\n      dup2\n      dup2\n      lt\n        /* \"@openzeppelin/contracts/token/ERC20/ERC20.sol\":6336:6451  if (fromBalance < value) {... */\n      iszero\n      tag_291\n      jumpi\n        /* \"@openzeppelin/contracts/token/ERC20/ERC20.sol\":6386:6436  ERC20InsufficientBalance(from, fromBalance, value) */\n      mload(0x40)\n      shl(0xe2, 0x391434e3)\n      dup2\n      mstore\n      sub(shl(0xa0, 0x01), 0x01)\n        /* \"#utility.yul\":7600:7632   */\n      dup6\n      and\n        /* \"@openzeppelin/contracts/token/ERC20/ERC20.sol\":6386:6436  ERC20InsufficientBalance(from, fromBalance, value) */\n      0x04\n      dup3\n      add\n        /* \"#utility.yul\":7582:7633   */\n      mstore\n        /* \"#utility.yul\":7649:7667   */\n      0x24\n      dup2\n      add\n        /* \"#utility.yul\":7642:7676   */\n      dup3\n      swap1\n      mstore\n        /* \"#utility.yul\":7692:7710   */\n      0x44\n      dup2\n      add\n        /* \"#utility.yul\":7685:7719   */\n      dup4\n      swap1\n      mstore\n        /* \"#utility.yul\":7555:7573   */\n      0x64\n      add\n        /* \"@openzeppelin/contracts/token/ERC20/ERC20.sol\":6386:6436  ERC20InsufficientBalance(from, fromBalance, value) */\n      tag_137\n        /* \"#utility.yul\":7380:7725   */\n      jump\n        /* \"@openzeppelin/contracts/token/ERC20/ERC20.sol\":6336:6451  if (fromBalance < value) {... */\n    tag_291:\n      sub(shl(0xa0, 0x01), 0x01)\n        /* \"@openzeppelin/contracts/token/ERC20/ERC20.sol\":6571:6586  _balances[from] */\n      dup5\n      and\n        /* \"@openzeppelin/contracts/token/ERC20/ERC20.sol\":6571:6580  _balances */\n      0x00\n        /* \"@openzeppelin/contracts/token/ERC20/ERC20.sol\":6571:6586  _balances[from] */\n      swap1\n      dup2\n      mstore\n      0x20\n      dup2\n      swap1\n      mstore\n      0x40\n      swap1\n      keccak256\n        /* \"@openzeppelin/contracts/token/ERC20/ERC20.sol\":6589:6608  fromBalance - value */\n      swap1\n      dup3\n      swap1\n      sub\n        /* \"@openzeppelin/contracts/token/ERC20/ERC20.sol\":6571:6608  _balances[from] = fromBalance - value */\n      swap1\n      sstore\n        /* \"@openzeppelin/contracts/token/ERC20/ERC20.sol\":6093:6633  if (from == address(0)) {... */\n    tag_290:\n      sub(shl(0xa0, 0x01), 0x01)\n        /* \"@openzeppelin/contracts/token/ERC20/ERC20.sol\":6647:6663  to == address(0) */\n      dup3\n      and\n        /* \"@openzeppelin/contracts/token/ERC20/ERC20.sol\":6643:7068  if (to == address(0)) {... */\n      tag_293\n      jumpi\n        /* \"@openzeppelin/contracts/token/ERC20/ERC20.sol\":6810:6822  _totalSupply */\n      0x02\n        /* \"@openzeppelin/contracts/token/ERC20/ERC20.sol\":6810:6831  _totalSupply -= value */\n      dup1\n      sload\n      dup3\n      swap1\n      sub\n      swap1\n      sstore\n        /* \"@openzeppelin/contracts/token/ERC20/ERC20.sol\":6643:7068  if (to == address(0)) {... */\n      jump(tag_294)\n    tag_293:\n      sub(shl(0xa0, 0x01), 0x01)\n        /* \"@openzeppelin/contracts/token/ERC20/ERC20.sol\":7021:7034  _balances[to] */\n      dup3\n      and\n        /* \"@openzeppelin/contracts/token/ERC20/ERC20.sol\":7021:7030  _balances */\n      0x00\n        /* \"@openzeppelin/contracts/token/ERC20/ERC20.sol\":7021:7034  _balances[to] */\n      swap1\n      dup2\n      mstore\n      0x20\n      dup2\n      swap1\n      mstore\n      0x40\n      swap1\n      keccak256\n        /* \"@openzeppelin/contracts/token/ERC20/ERC20.sol\":7021:7043  _balances[to] += value */\n      dup1\n      sload\n      dup3\n      add\n      swap1\n      sstore\n        /* \"@openzeppelin/contracts/token/ERC20/ERC20.sol\":6643:7068  if (to == address(0)) {... */\n    tag_294:\n        /* \"@openzeppelin/contracts/token/ERC20/ERC20.sol\":7098:7100  to */\n      dup2\n      sub(shl(0xa0, 0x01), 0x01)\n        /* \"@openzeppelin/contracts/token/ERC20/ERC20.sol\":7083:7108  Transfer(from, to, value) */\n      and\n        /* \"@openzeppelin/contracts/token/ERC20/ERC20.sol\":7092:7096  from */\n      dup4\n      sub(shl(0xa0, 0x01), 0x01)\n        /* \"@openzeppelin/contracts/token/ERC20/ERC20.sol\":7083:7108  Transfer(from, to, value) */\n      and\n      0xddf252ad1be2c89b69c2b068fc378daa952ba7f163c4a11628f55a4df523b3ef\n        /* \"@openzeppelin/contracts/token/ERC20/ERC20.sol\":7102:7107  value */\n      dup4\n        /* \"@openzeppelin/contracts/token/ERC20/ERC20.sol\":7083:7108  Transfer(from, to, value) */\n      mload(0x40)\n      tag_295\n      swap2\n        /* \"#utility.yul\":1719:1744   */\n      dup2\n      mstore\n        /* \"#utility.yul\":1707:1709   */\n      0x20\n        /* \"#utility.yul\":1692:1710   */\n      add\n      swap1\n        /* \"#utility.yul\":1573:1750   */\n      jump\n        /* \"@openzeppelin/contracts/token/ERC20/ERC20.sol\":7083:7108  Transfer(from, to, value) */\n    tag_295:\n      mload(0x40)\n      dup1\n      swap2\n      sub\n      swap1\n      log3\n        /* \"@openzeppelin/contracts/token/ERC20/ERC20.sol\":6008:7115  function _update(address from, address to, uint256 value) internal virtual {... */\n      pop\n      pop\n      pop\n      jump\t// out\n        /* \"#utility.yul\":14:541   */\n    tag_32:\n        /* \"#utility.yul\":163:165   */\n      0x20\n        /* \"#utility.yul\":152:161   */\n      dup2\n        /* \"#utility.yul\":145:166   */\n      mstore\n        /* \"#utility.yul\":126:130   */\n      0x00\n        /* \"#utility.yul\":195:201   */\n      dup3\n        /* \"#utility.yul\":189:202   */\n      mload\n        /* \"#utility.yul\":238:244   */\n      dup1\n        /* \"#utility.yul\":233:235   */\n      0x20\n        /* \"#utility.yul\":222:231   */\n      dup5\n        /* \"#utility.yul\":218:236   */\n      add\n        /* \"#utility.yul\":211:245   */\n      mstore\n        /* \"#utility.yul\":263:264   */\n      0x00\n        /* \"#utility.yul\":273:413   */\n    tag_300:\n        /* \"#utility.yul\":287:293   */\n      dup2\n        /* \"#utility.yul\":284:285   */\n      dup2\n        /* \"#utility.yul\":281:294   */\n      lt\n        /* \"#utility.yul\":273:413   */\n      iszero\n      tag_302\n      jumpi\n        /* \"#utility.yul\":398:400   */\n      0x20\n        /* \"#utility.yul\":382:396   */\n      dup2\n      dup7\n      add\n        /* \"#utility.yul\":378:401   */\n      dup2\n      add\n        /* \"#utility.yul\":372:402   */\n      mload\n        /* \"#utility.yul\":367:369   */\n      0x40\n        /* \"#utility.yul\":348:365   */\n      dup7\n      dup5\n      add\n        /* \"#utility.yul\":344:370   */\n      add\n        /* \"#utility.yul\":337:403   */\n      mstore\n        /* \"#utility.yul\":302:312   */\n      add\n        /* \"#utility.yul\":273:413   */\n      jump(tag_300)\n    tag_302:\n        /* \"#utility.yul\":277:280   */\n      pop\n        /* \"#utility.yul\":462:463   */\n      0x00\n        /* \"#utility.yul\":457:459   */\n      0x40\n        /* \"#utility.yul\":448:454   */\n      dup3\n        /* \"#utility.yul\":437:446   */\n      dup6\n        /* \"#utility.yul\":433:455   */\n      add\n        /* \"#utility.yul\":429:460   */\n      add\n        /* \"#utility.yul\":422:464   */\n      mstore\n        /* \"#utility.yul\":532:534   */\n      0x40\n        /* \"#utility.yul\":525:527   */\n      0x1f\n        /* \"#utility.yul\":521:528   */\n      not\n        /* \"#utility.yul\":516:518   */\n      0x1f\n        /* \"#utility.yul\":508:514   */\n      dup4\n        /* \"#utility.yul\":504:519   */\n      add\n        /* \"#utility.yul\":500:529   */\n      and\n        /* \"#utility.yul\":489:498   */\n      dup5\n        /* \"#utility.yul\":485:530   */\n      add\n        /* \"#utility.yul\":481:535   */\n      add\n        /* \"#utility.yul\":473:535   */\n      swap2\n      pop\n      pop\n        /* \"#utility.yul\":14:541   */\n      swap3\n      swap2\n      pop\n      pop\n      jump\t// out\n        /* \"#utility.yul\":546:719   */\n    tag_296:\n        /* \"#utility.yul\":614:634   */\n      dup1\n      calldataload\n      sub(shl(0xa0, 0x01), 0x01)\n        /* \"#utility.yul\":663:694   */\n      dup2\n      and\n        /* \"#utility.yul\":653:695   */\n      dup2\n      eq\n        /* \"#utility.yul\":643:713   */\n      tag_304\n      jumpi\n        /* \"#utility.yul\":709:710   */\n      0x00\n        /* \"#utility.yul\":706:707   */\n      dup1\n        /* \"#utility.yul\":699:711   */\n      revert\n        /* \"#utility.yul\":643:713   */\n    tag_304:\n        /* \"#utility.yul\":546:719   */\n      swap2\n      swap1\n      pop\n      jump\t// out\n        /* \"#utility.yul\":724:1024   */\n    tag_35:\n        /* \"#utility.yul\":792:798   */\n      0x00\n        /* \"#utility.yul\":800:806   */\n      dup1\n        /* \"#utility.yul\":853:855   */\n      0x40\n        /* \"#utility.yul\":841:850   */\n      dup4\n        /* \"#utility.yul\":832:839   */\n      dup6\n        /* \"#utility.yul\":828:851   */\n      sub\n        /* \"#utility.yul\":824:856   */\n      slt\n        /* \"#utility.yul\":821:873   */\n      iszero\n      tag_306\n      jumpi\n        /* \"#utility.yul\":869:870   */\n      0x00\n        /* \"#utility.yul\":866:867   */\n      dup1\n        /* \"#utility.yul\":859:871   */\n      revert\n        /* \"#utility.yul\":821:873   */\n    tag_306:\n        /* \"#utility.yul\":892:921   */\n      tag_307\n        /* \"#utility.yul\":911:920   */\n      dup4\n        /* \"#utility.yul\":892:921   */\n      tag_296\n      jump\t// in\n    tag_307:\n        /* \"#utility.yul\":882:921   */\n      swap5\n        /* \"#utility.yul\":990:992   */\n      0x20\n        /* \"#utility.yul\":975:993   */\n      swap4\n      swap1\n      swap4\n      add\n        /* \"#utility.yul\":962:994   */\n      calldataload\n      swap4\n      pop\n      pop\n      pop\n        /* \"#utility.yul\":724:1024   */\n      jump\t// out\n        /* \"#utility.yul\":1221:1568   */\n    tag_41:\n        /* \"#utility.yul\":1286:1292   */\n      0x00\n        /* \"#utility.yul\":1294:1300   */\n      dup1\n        /* \"#utility.yul\":1347:1349   */\n      0x40\n        /* \"#utility.yul\":1335:1344   */\n      dup4\n        /* \"#utility.yul\":1326:1333   */\n      dup6\n        /* \"#utility.yul\":1322:1345   */\n      sub\n        /* \"#utility.yul\":1318:1350   */\n      slt\n        /* \"#utility.yul\":1315:1367   */\n      iszero\n      tag_310\n      jumpi\n        /* \"#utility.yul\":1363:1364   */\n      0x00\n        /* \"#utility.yul\":1360:1361   */\n      dup1\n        /* \"#utility.yul\":1353:1365   */\n      revert\n        /* \"#utility.yul\":1315:1367   */\n    tag_310:\n        /* \"#utility.yul\":1386:1415   */\n      tag_311\n        /* \"#utility.yul\":1405:1414   */\n      dup4\n        /* \"#utility.yul\":1386:1415   */\n      tag_296\n      jump\t// in\n    tag_311:\n        /* \"#utility.yul\":1376:1415   */\n      swap2\n      pop\n        /* \"#utility.yul\":1465:1467   */\n      0x20\n        /* \"#utility.yul\":1454:1463   */\n      dup4\n        /* \"#utility.yul\":1450:1468   */\n      add\n        /* \"#utility.yul\":1437:1469   */\n      calldataload\n        /* \"#utility.yul\":1512:1517   */\n      dup1\n        /* \"#utility.yul\":1505:1518   */\n      iszero\n        /* \"#utility.yul\":1498:1519   */\n      iszero\n        /* \"#utility.yul\":1491:1496   */\n      dup2\n        /* \"#utility.yul\":1488:1520   */\n      eq\n        /* \"#utility.yul\":1478:1538   */\n      tag_312\n      jumpi\n        /* \"#utility.yul\":1534:1535   */\n      0x00\n        /* \"#utility.yul\":1531:1532   */\n      dup1\n        /* \"#utility.yul\":1524:1536   */\n      revert\n        /* \"#utility.yul\":1478:1538   */\n    tag_312:\n        /* \"#utility.yul\":1557:1562   */\n      dup1\n        /* \"#utility.yul\":1547:1562   */\n      swap2\n      pop\n      pop\n        /* \"#utility.yul\":1221:1568   */\n      swap3\n      pop\n      swap3\n      swap1\n      pop\n      jump\t// out\n        /* \"#utility.yul\":1755:2129   */\n    tag_49:\n        /* \"#utility.yul\":1832:1838   */\n      0x00\n        /* \"#utility.yul\":1840:1846   */\n      dup1\n        /* \"#utility.yul\":1848:1854   */\n      0x00\n        /* \"#utility.yul\":1901:1903   */\n      0x60\n        /* \"#utility.yul\":1889:1898   */\n      dup5\n        /* \"#utility.yul\":1880:1887   */\n      dup7\n        /* \"#utility.yul\":1876:1899   */\n      sub\n        /* \"#utility.yul\":1872:1904   */\n      slt\n        /* \"#utility.yul\":1869:1921   */\n      iszero\n      tag_315\n      jumpi\n        /* \"#utility.yul\":1917:1918   */\n      0x00\n        /* \"#utility.yul\":1914:1915   */\n      dup1\n        /* \"#utility.yul\":1907:1919   */\n      revert\n        /* \"#utility.yul\":1869:1921   */\n    tag_315:\n        /* \"#utility.yul\":1940:1969   */\n      tag_316\n        /* \"#utility.yul\":1959:1968   */\n      dup5\n        /* \"#utility.yul\":1940:1969   */\n      tag_296\n      jump\t// in\n    tag_316:\n        /* \"#utility.yul\":1930:1969   */\n      swap3\n      pop\n        /* \"#utility.yul\":1988:2026   */\n      tag_317\n        /* \"#utility.yul\":2022:2024   */\n      0x20\n        /* \"#utility.yul\":2011:2020   */\n      dup6\n        /* \"#utility.yul\":2007:2025   */\n      add\n        /* \"#utility.yul\":1988:2026   */\n      tag_296\n      jump\t// in\n    tag_317:\n        /* \"#utility.yul\":1755:2129   */\n      swap3\n      swap6\n        /* \"#utility.yul\":1978:2026   */\n      swap3\n      swap5\n      pop\n      pop\n      pop\n        /* \"#utility.yul\":2095:2097   */\n      0x40\n        /* \"#utility.yul\":2080:2098   */\n      swap2\n      swap1\n      swap2\n      add\n        /* \"#utility.yul\":2067:2099   */\n      calldataload\n      swap1\n        /* \"#utility.yul\":1755:2129   */\n      jump\t// out\n        /* \"#utility.yul\":2134:2320   */\n    tag_54:\n        /* \"#utility.yul\":2193:2199   */\n      0x00\n        /* \"#utility.yul\":2246:2248   */\n      0x20\n        /* \"#utility.yul\":2234:2243   */\n      dup3\n        /* \"#utility.yul\":2225:2232   */\n      dup5\n        /* \"#utility.yul\":2221:2244   */\n      sub\n        /* \"#utility.yul\":2217:2249   */\n      slt\n        /* \"#utility.yul\":2214:2266   */\n      iszero\n      tag_319\n      jumpi\n        /* \"#utility.yul\":2262:2263   */\n      0x00\n        /* \"#utility.yul\":2259:2260   */\n      dup1\n        /* \"#utility.yul\":2252:2264   */\n      revert\n        /* \"#utility.yul\":2214:2266   */\n    tag_319:\n        /* \"#utility.yul\":2285:2314   */\n      tag_215\n        /* \"#utility.yul\":2304:2313   */\n      dup3\n        /* \"#utility.yul\":2285:2314   */\n      tag_296\n      jump\t// in\n        /* \"#utility.yul\":2514:2881   */\n    tag_297:\n        /* \"#utility.yul\":2577:2585   */\n      0x00\n        /* \"#utility.yul\":2587:2593   */\n      dup1\n        /* \"#utility.yul\":2641:2644   */\n      dup4\n        /* \"#utility.yul\":2634:2638   */\n      0x1f\n        /* \"#utility.yul\":2626:2632   */\n      dup5\n        /* \"#utility.yul\":2622:2639   */\n      add\n        /* \"#utility.yul\":2618:2645   */\n      slt\n        /* \"#utility.yul\":2608:2663   */\n      tag_323\n      jumpi\n        /* \"#utility.yul\":2659:2660   */\n      0x00\n        /* \"#utility.yul\":2656:2657   */\n      dup1\n        /* \"#utility.yul\":2649:2661   */\n      revert\n        /* \"#utility.yul\":2608:2663   */\n    tag_323:\n      pop\n        /* \"#utility.yul\":2682:2702   */\n      dup2\n      calldataload\n        /* \"#utility.yul\":2725:2743   */\n      0xffffffffffffffff\n        /* \"#utility.yul\":2714:2744   */\n      dup2\n      gt\n        /* \"#utility.yul\":2711:2761   */\n      iszero\n      tag_324\n      jumpi\n        /* \"#utility.yul\":2757:2758   */\n      0x00\n        /* \"#utility.yul\":2754:2755   */\n      dup1\n        /* \"#utility.yul\":2747:2759   */\n      revert\n        /* \"#utility.yul\":2711:2761   */\n    tag_324:\n        /* \"#utility.yul\":2794:2798   */\n      0x20\n        /* \"#utility.yul\":2786:2792   */\n      dup4\n        /* \"#utility.yul\":2782:2799   */\n      add\n        /* \"#utility.yul\":2770:2799   */\n      swap2\n      pop\n        /* \"#utility.yul\":2854:2857   */\n      dup4\n        /* \"#utility.yul\":2847:2851   */\n      0x20\n        /* \"#utility.yul\":2837:2843   */\n      dup3\n        /* \"#utility.yul\":2834:2835   */\n      0x05\n        /* \"#utility.yul\":2830:2844   */\n      shl\n        /* \"#utility.yul\":2822:2828   */\n      dup6\n        /* \"#utility.yul\":2818:2845   */\n      add\n        /* \"#utility.yul\":2814:2852   */\n      add\n        /* \"#utility.yul\":2811:2858   */\n      gt\n        /* \"#utility.yul\":2808:2875   */\n      iszero\n      tag_325\n      jumpi\n        /* \"#utility.yul\":2871:2872   */\n      0x00\n        /* \"#utility.yul\":2868:2869   */\n      dup1\n        /* \"#utility.yul\":2861:2873   */\n      revert\n        /* \"#utility.yul\":2808:2875   */\n    tag_325:\n        /* \"#utility.yul\":2514:2881   */\n      swap3\n      pop\n      swap3\n      swap1\n      pop\n      jump\t// out\n        /* \"#utility.yul\":2886:3654   */\n    tag_78:\n        /* \"#utility.yul\":3008:3014   */\n      0x00\n        /* \"#utility.yul\":3016:3022   */\n      dup1\n        /* \"#utility.yul\":3024:3030   */\n      0x00\n        /* \"#utility.yul\":3032:3038   */\n      dup1\n        /* \"#utility.yul\":3085:3087   */\n      0x40\n        /* \"#utility.yul\":3073:3082   */\n      dup6\n        /* \"#utility.yul\":3064:3071   */\n      dup8\n        /* \"#utility.yul\":3060:3083   */\n      sub\n        /* \"#utility.yul\":3056:3088   */\n      slt\n        /* \"#utility.yul\":3053:3105   */\n      iszero\n      tag_327\n      jumpi\n        /* \"#utility.yul\":3101:3102   */\n      0x00\n        /* \"#utility.yul\":3098:3099   */\n      dup1\n        /* \"#utility.yul\":3091:3103   */\n      revert\n        /* \"#utility.yul\":3053:3105   */\n    tag_327:\n        /* \"#utility.yul\":3141:3150   */\n      dup5\n        /* \"#utility.yul\":3128:3151   */\n      calldataload\n        /* \"#utility.yul\":3174:3192   */\n      0xffffffffffffffff\n        /* \"#utility.yul\":3166:3172   */\n      dup2\n        /* \"#utility.yul\":3163:3193   */\n      gt\n        /* \"#utility.yul\":3160:3210   */\n      iszero\n      tag_328\n      jumpi\n        /* \"#utility.yul\":3206:3207   */\n      0x00\n        /* \"#utility.yul\":3203:3204   */\n      dup1\n        /* \"#utility.yul\":3196:3208   */\n      revert\n        /* \"#utility.yul\":3160:3210   */\n    tag_328:\n        /* \"#utility.yul\":3245:3315   */\n      tag_329\n        /* \"#utility.yul\":3307:3314   */\n      dup8\n        /* \"#utility.yul\":3298:3304   */\n      dup3\n        /* \"#utility.yul\":3287:3296   */\n      dup9\n        /* \"#utility.yul\":3283:3305   */\n      add\n        /* \"#utility.yul\":3245:3315   */\n      tag_297\n      jump\t// in\n    tag_329:\n        /* \"#utility.yul\":3334:3342   */\n      swap1\n      swap6\n      pop\n        /* \"#utility.yul\":3219:3315   */\n      swap4\n      pop\n      pop\n        /* \"#utility.yul\":3422:3424   */\n      0x20\n        /* \"#utility.yul\":3407:3425   */\n      dup6\n      add\n        /* \"#utility.yul\":3394:3426   */\n      calldataload\n        /* \"#utility.yul\":3451:3469   */\n      0xffffffffffffffff\n        /* \"#utility.yul\":3438:3470   */\n      dup2\n      gt\n        /* \"#utility.yul\":3435:3487   */\n      iszero\n      tag_330\n      jumpi\n        /* \"#utility.yul\":3483:3484   */\n      0x00\n        /* \"#utility.yul\":3480:3481   */\n      dup1\n        /* \"#utility.yul\":3473:3485   */\n      revert\n        /* \"#utility.yul\":3435:3487   */\n    tag_330:\n        /* \"#utility.yul\":3522:3594   */\n      tag_331\n        /* \"#utility.yul\":3586:3593   */\n      dup8\n        /* \"#utility.yul\":3575:3583   */\n      dup3\n        /* \"#utility.yul\":3564:3573   */\n      dup9\n        /* \"#utility.yul\":3560:3584   */\n      add\n        /* \"#utility.yul\":3522:3594   */\n      tag_297\n      jump\t// in\n    tag_331:\n        /* \"#utility.yul\":2886:3654   */\n      swap6\n      swap9\n      swap5\n      swap8\n      pop\n        /* \"#utility.yul\":3613:3621   */\n      swap6\n      pop\n      pop\n      pop\n      pop\n        /* \"#utility.yul\":2886:3654   */\n      jump\t// out\n        /* \"#utility.yul\":3867:4127   */\n    tag_104:\n        /* \"#utility.yul\":3935:3941   */\n      0x00\n        /* \"#utility.yul\":3943:3949   */\n      dup1\n        /* \"#utility.yul\":3996:3998   */\n      0x40\n        /* \"#utility.yul\":3984:3993   */\n      dup4\n        /* \"#utility.yul\":3975:3982   */\n      dup6\n        /* \"#utility.yul\":3971:3994   */\n      sub\n        /* \"#utility.yul\":3967:3999   */\n      slt\n        /* \"#utility.yul\":3964:4016   */\n      iszero\n      tag_334\n      jumpi\n        /* \"#utility.yul\":4012:4013   */\n      0x00\n        /* \"#utility.yul\":4009:4010   */\n      dup1\n        /* \"#utility.yul\":4002:4014   */\n      revert\n        /* \"#utility.yul\":3964:4016   */\n    tag_334:\n        /* \"#utility.yul\":4035:4064   */\n      tag_335\n        /* \"#utility.yul\":4054:4063   */\n      dup4\n        /* \"#utility.yul\":4035:4064   */\n      tag_296\n      jump\t// in\n    tag_335:\n        /* \"#utility.yul\":4025:4064   */\n      swap2\n      pop\n        /* \"#utility.yul\":4083:4121   */\n      tag_336\n        /* \"#utility.yul\":4117:4119   */\n      0x20\n        /* \"#utility.yul\":4106:4115   */\n      dup5\n        /* \"#utility.yul\":4102:4120   */\n      add\n        /* \"#utility.yul\":4083:4121   */\n      tag_296\n      jump\t// in\n    tag_336:\n        /* \"#utility.yul\":4073:4121   */\n      swap1\n      pop\n        /* \"#utility.yul\":3867:4127   */\n      swap3\n      pop\n      swap3\n      swap1\n      pop\n      jump\t// out\n        /* \"#utility.yul\":4132:4512   */\n    tag_116:\n        /* \"#utility.yul\":4211:4212   */\n      0x01\n        /* \"#utility.yul\":4207:4219   */\n      dup2\n      dup2\n      shr\n      swap1\n        /* \"#utility.yul\":4254:4266   */\n      dup3\n      and\n      dup1\n        /* \"#utility.yul\":4275:4336   */\n      tag_338\n      jumpi\n        /* \"#utility.yul\":4329:4333   */\n      0x7f\n        /* \"#utility.yul\":4321:4327   */\n      dup3\n        /* \"#utility.yul\":4317:4334   */\n      and\n        /* \"#utility.yul\":4307:4334   */\n      swap2\n      pop\n        /* \"#utility.yul\":4275:4336   */\n    tag_338:\n        /* \"#utility.yul\":4382:4384   */\n      0x20\n        /* \"#utility.yul\":4374:4380   */\n      dup3\n        /* \"#utility.yul\":4371:4385   */\n      lt\n        /* \"#utility.yul\":4351:4369   */\n      dup2\n        /* \"#utility.yul\":4348:4386   */\n      sub\n        /* \"#utility.yul\":4345:4506   */\n      tag_339\n      jumpi\n        /* \"#utility.yul\":4428:4438   */\n      0x4e487b71\n        /* \"#utility.yul\":4423:4426   */\n      0xe0\n        /* \"#utility.yul\":4419:4439   */\n      shl\n        /* \"#utility.yul\":4416:4417   */\n      0x00\n        /* \"#utility.yul\":4409:4440   */\n      mstore\n        /* \"#utility.yul\":4463:4467   */\n      0x22\n        /* \"#utility.yul\":4460:4461   */\n      0x04\n        /* \"#utility.yul\":4453:4468   */\n      mstore\n        /* \"#utility.yul\":4491:4495   */\n      0x24\n        /* \"#utility.yul\":4488:4489   */\n      0x00\n        /* \"#utility.yul\":4481:4496   */\n      revert\n        /* \"#utility.yul\":4345:4506   */\n    tag_339:\n      pop\n        /* \"#utility.yul\":4132:4512   */\n      swap2\n      swap1\n      pop\n      jump\t// out\n        /* \"#utility.yul\":4517:4919   */\n    tag_138:\n        /* \"#utility.yul\":4719:4721   */\n      0x20\n        /* \"#utility.yul\":4701:4722   */\n      dup1\n      dup3\n      mstore\n        /* \"#utility.yul\":4758:4760   */\n      0x26\n        /* \"#utility.yul\":4738:4756   */\n      swap1\n      dup3\n      add\n        /* \"#utility.yul\":4731:4761   */\n      mstore\n        /* \"#utility.yul\":4797:4831   */\n      0x5472616e73666572206661696c65643a2053656e64657220697320626c61636b\n        /* \"#utility.yul\":4792:4794   */\n      0x40\n        /* \"#utility.yul\":4777:4795   */\n      dup3\n      add\n        /* \"#utility.yul\":4770:4832   */\n      mstore\n      shl(0xd2, 0x1b1a5cdd1959)\n        /* \"#utility.yul\":4863:4865   */\n      0x60\n        /* \"#utility.yul\":4848:4866   */\n      dup3\n      add\n        /* \"#utility.yul\":4841:4877   */\n      mstore\n        /* \"#utility.yul\":4909:4912   */\n      0x80\n        /* \"#utility.yul\":4894:4913   */\n      add\n      swap1\n        /* \"#utility.yul\":4517:4919   */\n      jump\t// out\n        /* \"#utility.yul\":4924:5329   */\n    tag_141:\n        /* \"#utility.yul\":5126:5128   */\n      0x20\n        /* \"#utility.yul\":5108:5129   */\n      dup1\n      dup3\n      mstore\n        /* \"#utility.yul\":5165:5167   */\n      0x29\n        /* \"#utility.yul\":5145:5163   */\n      swap1\n      dup3\n      add\n        /* \"#utility.yul\":5138:5168   */\n      mstore\n        /* \"#utility.yul\":5204:5238   */\n      0x5472616e73666572206661696c65643a20526563697069656e7420697320626c\n        /* \"#utility.yul\":5199:5201   */\n      0x40\n        /* \"#utility.yul\":5184:5202   */\n      dup3\n      add\n        /* \"#utility.yul\":5177:5239   */\n      mstore\n      shl(0xba, 0x1858dadb1a5cdd1959)\n        /* \"#utility.yul\":5270:5272   */\n      0x60\n        /* \"#utility.yul\":5255:5273   */\n      dup3\n      add\n        /* \"#utility.yul\":5248:5287   */\n      mstore\n        /* \"#utility.yul\":5319:5322   */\n      0x80\n        /* \"#utility.yul\":5304:5323   */\n      add\n      swap1\n        /* \"#utility.yul\":4924:5329   */\n      jump\t// out\n        /* \"#utility.yul\":5334:5732   */\n    tag_145:\n        /* \"#utility.yul\":5536:5538   */\n      0x20\n        /* \"#utility.yul\":5518:5539   */\n      dup1\n      dup3\n      mstore\n        /* \"#utility.yul\":5575:5577   */\n      0x22\n        /* \"#utility.yul\":5555:5573   */\n      swap1\n      dup3\n      add\n        /* \"#utility.yul\":5548:5578   */\n      mstore\n        /* \"#utility.yul\":5614:5648   */\n      0x5472616e73666572206661696c65643a20546f6b656e7320617265206c6f636b\n        /* \"#utility.yul\":5609:5611   */\n      0x40\n        /* \"#utility.yul\":5594:5612   */\n      dup3\n      add\n        /* \"#utility.yul\":5587:5649   */\n      mstore\n      shl(0xf2, 0x1959)\n        /* \"#utility.yul\":5680:5682   */\n      0x60\n        /* \"#utility.yul\":5665:5683   */\n      dup3\n      add\n        /* \"#utility.yul\":5658:5690   */\n      mstore\n        /* \"#utility.yul\":5722:5725   */\n      0x80\n        /* \"#utility.yul\":5707:5726   */\n      add\n      swap1\n        /* \"#utility.yul\":5334:5732   */\n      jump\t// out\n        /* \"#utility.yul\":6488:6615   */\n    tag_186:\n        /* \"#utility.yul\":6549:6559   */\n      0x4e487b71\n        /* \"#utility.yul\":6544:6547   */\n      0xe0\n        /* \"#utility.yul\":6540:6560   */\n      shl\n        /* \"#utility.yul\":6537:6538   */\n      0x00\n        /* \"#utility.yul\":6530:6561   */\n      mstore\n        /* \"#utility.yul\":6580:6584   */\n      0x32\n        /* \"#utility.yul\":6577:6578   */\n      0x04\n        /* \"#utility.yul\":6570:6585   */\n      mstore\n        /* \"#utility.yul\":6604:6608   */\n      0x24\n        /* \"#utility.yul\":6601:6602   */\n      0x00\n        /* \"#utility.yul\":6594:6609   */\n      revert\n        /* \"#utility.yul\":8079:8301   */\n    tag_289:\n        /* \"#utility.yul\":8144:8153   */\n      dup1\n      dup3\n      add\n        /* \"#utility.yul\":8165:8175   */\n      dup1\n      dup3\n      gt\n        /* \"#utility.yul\":8162:8295   */\n      iszero\n      tag_121\n      jumpi\n        /* \"#utility.yul\":8217:8227   */\n      0x4e487b71\n        /* \"#utility.yul\":8212:8215   */\n      0xe0\n        /* \"#utility.yul\":8208:8228   */\n      shl\n        /* \"#utility.yul\":8205:8206   */\n      0x00\n        /* \"#utility.yul\":8198:8229   */\n      mstore\n        /* \"#utility.yul\":8252:8256   */\n      0x11\n        /* \"#utility.yul\":8249:8250   */\n      0x04\n        /* \"#utility.yul\":8242:8257   */\n      mstore\n        /* \"#utility.yul\":8280:8284   */\n      0x24\n        /* \"#utility.yul\":8277:8278   */\n      0x00\n        /* \"#utility.yul\":8270:8285   */\n      revert\n\n    auxdata: 0xa264697066735822122001e9bab1fe0f0f85bafdc7f831deecb1b7fd44ad383d29d145823f95136a8be964736f6c634300081c0033\n}\n",
				"bytecode": {
					"linkReferences": {},
					"object": "608060405269d3c21bcecceda100000060075534801561001e57600080fd5b5060405161169438038061169483398101604081905261003d91610326565b338282600361004c8382610418565b5060046100598282610418565b5050506001600160a01b03811661008b57604051631e4fbdf760e01b8152600060048201526024015b60405180910390fd5b610094816100b7565b506005805460ff60a01b191690556007546100b0903390610109565b50506104fd565b600580546001600160a01b038381166001600160a01b0319831681179093556040519116919082907f8be0079c531659141344cd1fd0a4f28419497f9722a3daafe3b4186f6b6457e090600090a35050565b6001600160a01b0382166101335760405163ec442f0560e01b815260006004820152602401610082565b61013f60008383610143565b5050565b6001600160a01b03831661016e57806002600082825461016391906104d6565b909155506101e09050565b6001600160a01b038316600090815260208190526040902054818110156101c15760405163391434e360e21b81526001600160a01b03851660048201526024810182905260448101839052606401610082565b6001600160a01b03841660009081526020819052604090209082900390555b6001600160a01b0382166101fc5760028054829003905561021b565b6001600160a01b03821660009081526020819052604090208054820190555b816001600160a01b0316836001600160a01b03167fddf252ad1be2c89b69c2b068fc378daa952ba7f163c4a11628f55a4df523b3ef8360405161026091815260200190565b60405180910390a3505050565b634e487b7160e01b600052604160045260246000fd5b600082601f83011261029457600080fd5b81516001600160401b038111156102ad576102ad61026d565b604051601f8201601f19908116603f011681016001600160401b03811182821017156102db576102db61026d565b6040528181528382016020018510156102f357600080fd5b60005b82811015610312576020818601810151838301820152016102f6565b506000918101602001919091529392505050565b6000806040838503121561033957600080fd5b82516001600160401b0381111561034f57600080fd5b61035b85828601610283565b602085015190935090506001600160401b0381111561037957600080fd5b61038585828601610283565b9150509250929050565b600181811c908216806103a357607f821691505b6020821081036103c357634e487b7160e01b600052602260045260246000fd5b50919050565b601f82111561041357806000526020600020601f840160051c810160208510156103f05750805b601f840160051c820191505b8181101561041057600081556001016103fc565b50505b505050565b81516001600160401b038111156104315761043161026d565b6104458161043f845461038f565b846103c9565b6020601f82116001811461047957600083156104615750848201515b600019600385901b1c1916600184901b178455610410565b600084815260208120601f198516915b828110156104a95787850151825560209485019460019092019101610489565b50848210156104c75786840151600019600387901b60f8161c191681555b50505050600190811b01905550565b808201808211156104f757634e487b7160e01b600052601160045260246000fd5b92915050565b6111888061050c6000396000f3fe608060405234801561001057600080fd5b506004361061014d5760003560e01c8063715018a6116100c3578063a9059cbb1161007c578063a9059cbb146102b5578063c66e4095146102c8578063dbac26e9146102db578063dd62ed3e146102fe578063f2fde38b14610337578063fe575a871461034a57600080fd5b8063715018a6146102455780638456cb591461024d57806388d695b2146102555780638da5cb5b1461026857806395d89b411461028d5780639bc289f11461029557600080fd5b80632e0d2a00116101155780632e0d2a00146101cd578063313ce567146101e05780633e579307146101ef5780633f4ba83a146102025780635c975abb1461020a57806370a082311461021c57600080fd5b806306fdde0314610152578063095ea7b314610170578063153b0d1e1461019357806318160ddd146101a857806323b872dd146101ba575b600080fd5b61015a610376565b6040516101679190610df8565b60405180910390f35b61018361017e366004610e62565b610408565b6040519015158152602001610167565b6101a66101a1366004610e8c565b610422565b005b6002545b604051908152602001610167565b6101836101c8366004610ec8565b61048a565b6101a66101db366004610f05565b61057b565b60405160128152602001610167565b6101a66101fd366004610e62565b6105cd565b6101a6610665565b600554600160a01b900460ff16610183565b6101ac61022a366004610f05565b6001600160a01b031660009081526020819052604090205490565b6101a6610677565b6101a6610689565b6101a6610263366004610f6c565b610699565b6005546001600160a01b03165b6040516001600160a01b039091168152602001610167565b61015a610811565b6101ac6102a3366004610f05565b60086020526000908152604090205481565b6101836102c3366004610e62565b610820565b600654610275906001600160a01b031681565b6101836102e9366004610f05565b60096020526000908152604090205460ff1681565b6101ac61030c366004610fdd565b6001600160a01b03918216600090815260016020908152604080832093909416825291909152205490565b6101a6610345366004610f05565b6108eb565b610183610358366004610f05565b6001600160a01b031660009081526009602052604090205460ff1690565b60606003805461038590611010565b80601f01602080910402602001604051908101604052809291908181526020018280546103b190611010565b80156103fe5780601f106103d3576101008083540402835291602001916103fe565b820191906000526020600020905b8154815290600101906020018083116103e157829003601f168201915b5050505050905090565b600033610416818585610929565b60019150505b92915050565b61042a61093b565b6001600160a01b038216600081815260096020908152604091829020805460ff191685151590811790915591519182527fcf3473b85df1594d47b6958f29a32bea0abff9dd68296f7bf33443646793cfd891015b60405180910390a25050565b6000610494610968565b6001600160a01b03841660009081526009602052604090205460ff16156104d65760405162461bcd60e51b81526004016104cd9061104a565b60405180910390fd5b6001600160a01b03831660009081526009602052604090205460ff161561050f5760405162461bcd60e51b81526004016104cd90611090565b6001600160a01b0384166000908152600860205260409020544210158061054c57506001600160a01b038416600090815260086020526040902054155b6105685760405162461bcd60e51b81526004016104cd906110d9565b6105738484846109b5565b949350505050565b61058361093b565b600680546001600160a01b0319166001600160a01b0383169081179091556040517fe7bbfbbf7e7948988eb7f8904da938aff02a23b8b28fcee206be4d4b3edd9ad890600090a250565b6006546001600160a01b031633146106185760405162461bcd60e51b815260206004820152600e60248201526d139bdd08185d5d1a1bdc9a5e995960921b60448201526064016104cd565b6001600160a01b03821660008181526008602052604090819020839055517f611cdbea265cb87ef40e17c595bad009182b4db741622f7848e344c15451de2f9061047e9084815260200190565b61066d61093b565b6106756109d9565b565b61067f61093b565b6106756000610a2e565b61069161093b565b610675610a80565b6106a1610968565b8281146107005760405162461bcd60e51b815260206004820152602760248201527f42617463685472616e73666572206661696c65643a204d69736d6174636865646044820152662061727261797360c81b60648201526084016104cd565b8260005b8181101561080957600960008787848181106107225761072261111b565b90506020020160208101906107379190610f05565b6001600160a01b0316815260208101919091526040016000205460ff16156107b85760405162461bcd60e51b815260206004820152602e60248201527f42617463685472616e73666572206661696c65643a20526563697069656e742060448201526d1a5cc8189b1858dadb1a5cdd195960921b60648201526084016104cd565b610801338787848181106107ce576107ce61111b565b90506020020160208101906107e39190610f05565b8686858181106107f5576107f561111b565b90506020020135610ac3565b600101610704565b505050505050565b60606004805461038590611010565b600061082a610968565b3360009081526009602052604090205460ff161561085a5760405162461bcd60e51b81526004016104cd9061104a565b6001600160a01b03831660009081526009602052604090205460ff16156108935760405162461bcd60e51b81526004016104cd90611090565b33600090815260086020526040902054421015806108be575033600090815260086020526040902054155b6108da5760405162461bcd60e51b81526004016104cd906110d9565b6108e48383610b22565b9392505050565b6108f361093b565b6001600160a01b03811661091d57604051631e4fbdf760e01b8152600060048201526024016104cd565b61092681610a2e565b50565b6109368383836001610b30565b505050565b6005546001600160a01b031633146106755760405163118cdaa760e01b81523360048201526024016104cd565b600554600160a01b900460ff16156106755760405162461bcd60e51b815260206004820152601060248201526f14185d5cd8589b194e881c185d5cd95960821b60448201526064016104cd565b6000336109c3858285610c06565b6109ce858585610ac3565b506001949350505050565b6109e1610c7e565b6005805460ff60a01b191690557f5db9ee0a495bf2e6ff9c91a7834c1ba4fdd244a5e8aa4e537bd38aeae4b073aa335b6040516001600160a01b03909116815260200160405180910390a1565b600580546001600160a01b038381166001600160a01b0319831681179093556040519116919082907f8be0079c531659141344cd1fd0a4f28419497f9722a3daafe3b4186f6b6457e090600090a35050565b610a88610968565b6005805460ff60a01b1916600160a01b1790557f62e78cea01bee320cd4e420270b5ea74000d11b0c9f74754ebdbfc544b05a258610a113390565b6001600160a01b038316610aed57604051634b637e8f60e11b8152600060048201526024016104cd565b6001600160a01b038216610b175760405163ec442f0560e01b8152600060048201526024016104cd565b610936838383610cce565b600033610416818585610ac3565b6001600160a01b038416610b5a5760405163e602df0560e01b8152600060048201526024016104cd565b6001600160a01b038316610b8457604051634a1406b160e11b8152600060048201526024016104cd565b6001600160a01b0380851660009081526001602090815260408083209387168352929052208290558015610c0057826001600160a01b0316846001600160a01b03167f8c5be1e5ebec7d5bd14f71427d1e84f3dd0314c0f7b2291e5b200ac8c7c3b92584604051610bf791815260200190565b60405180910390a35b50505050565b6001600160a01b038381166000908152600160209081526040808320938616835292905220546000198114610c005781811015610c6f57604051637dc7a0d960e11b81526001600160a01b038416600482015260248101829052604481018390526064016104cd565b610c0084848484036000610b30565b600554600160a01b900460ff166106755760405162461bcd60e51b815260206004820152601460248201527314185d5cd8589b194e881b9bdd081c185d5cd95960621b60448201526064016104cd565b6001600160a01b038316610cf9578060026000828254610cee9190611131565b90915550610d6b9050565b6001600160a01b03831660009081526020819052604090205481811015610d4c5760405163391434e360e21b81526001600160a01b038516600482015260248101829052604481018390526064016104cd565b6001600160a01b03841660009081526020819052604090209082900390555b6001600160a01b038216610d8757600280548290039055610da6565b6001600160a01b03821660009081526020819052604090208054820190555b816001600160a01b0316836001600160a01b03167fddf252ad1be2c89b69c2b068fc378daa952ba7f163c4a11628f55a4df523b3ef83604051610deb91815260200190565b60405180910390a3505050565b602081526000825180602084015260005b81811015610e265760208186018101516040868401015201610e09565b506000604082850101526040601f19601f83011684010191505092915050565b80356001600160a01b0381168114610e5d57600080fd5b919050565b60008060408385031215610e7557600080fd5b610e7e83610e46565b946020939093013593505050565b60008060408385031215610e9f57600080fd5b610ea883610e46565b915060208301358015158114610ebd57600080fd5b809150509250929050565b600080600060608486031215610edd57600080fd5b610ee684610e46565b9250610ef460208501610e46565b929592945050506040919091013590565b600060208284031215610f1757600080fd5b6108e482610e46565b60008083601f840112610f3257600080fd5b50813567ffffffffffffffff811115610f4a57600080fd5b6020830191508360208260051b8501011115610f6557600080fd5b9250929050565b60008060008060408587031215610f8257600080fd5b843567ffffffffffffffff811115610f9957600080fd5b610fa587828801610f20565b909550935050602085013567ffffffffffffffff811115610fc557600080fd5b610fd187828801610f20565b95989497509550505050565b60008060408385031215610ff057600080fd5b610ff983610e46565b915061100760208401610e46565b90509250929050565b600181811c9082168061102457607f821691505b60208210810361104457634e487b7160e01b600052602260045260246000fd5b50919050565b60208082526026908201527f5472616e73666572206661696c65643a2053656e64657220697320626c61636b6040820152651b1a5cdd195960d21b606082015260800190565b60208082526029908201527f5472616e73666572206661696c65643a20526563697069656e7420697320626c6040820152681858dadb1a5cdd195960ba1b606082015260800190565b60208082526022908201527f5472616e73666572206661696c65643a20546f6b656e7320617265206c6f636b604082015261195960f21b606082015260800190565b634e487b7160e01b600052603260045260246000fd5b8082018082111561041c57634e487b7160e01b600052601160045260246000fdfea264697066735822122001e9bab1fe0f0f85bafdc7f831deecb1b7fd44ad383d29d145823f95136a8be964736f6c634300081c0033",
					"opcodes": "PUSH1 0x80 PUSH1 0x40 MSTORE PUSH10 0xD3C21BCECCEDA1000000 PUSH1 0x7 SSTORE CALLVALUE DUP1 ISZERO PUSH2 0x1E JUMPI PUSH1 0x0 DUP1 REVERT JUMPDEST POP PUSH1 0x40 MLOAD PUSH2 0x1694 CODESIZE SUB DUP1 PUSH2 0x1694 DUP4 CODECOPY DUP2 ADD PUSH1 0x40 DUP2 SWAP1 MSTORE PUSH2 0x3D SWAP2 PUSH2 0x326 JUMP JUMPDEST CALLER DUP3 DUP3 PUSH1 0x3 PUSH2 0x4C DUP4 DUP3 PUSH2 0x418 JUMP JUMPDEST POP PUSH1 0x4 PUSH2 0x59 DUP3 DUP3 PUSH2 0x418 JUMP JUMPDEST POP POP POP PUSH1 0x1 PUSH1 0x1 PUSH1 0xA0 SHL SUB DUP2 AND PUSH2 0x8B JUMPI PUSH1 0x40 MLOAD PUSH4 0x1E4FBDF7 PUSH1 0xE0 SHL DUP2 MSTORE PUSH1 0x0 PUSH1 0x4 DUP3 ADD MSTORE PUSH1 0x24 ADD JUMPDEST PUSH1 0x40 MLOAD DUP1 SWAP2 SUB SWAP1 REVERT JUMPDEST PUSH2 0x94 DUP2 PUSH2 0xB7 JUMP JUMPDEST POP PUSH1 0x5 DUP1 SLOAD PUSH1 0xFF PUSH1 0xA0 SHL NOT AND SWAP1 SSTORE PUSH1 0x7 SLOAD PUSH2 0xB0 SWAP1 CALLER SWAP1 PUSH2 0x109 JUMP JUMPDEST POP POP PUSH2 0x4FD JUMP JUMPDEST PUSH1 0x5 DUP1 SLOAD PUSH1 0x1 PUSH1 0x1 PUSH1 0xA0 SHL SUB DUP4 DUP2 AND PUSH1 0x1 PUSH1 0x1 PUSH1 0xA0 SHL SUB NOT DUP4 AND DUP2 OR SWAP1 SWAP4 SSTORE PUSH1 0x40 MLOAD SWAP2 AND SWAP2 SWAP1 DUP3 SWAP1 PUSH32 0x8BE0079C531659141344CD1FD0A4F28419497F9722A3DAAFE3B4186F6B6457E0 SWAP1 PUSH1 0x0 SWAP1 LOG3 POP POP JUMP JUMPDEST PUSH1 0x1 PUSH1 0x1 PUSH1 0xA0 SHL SUB DUP3 AND PUSH2 0x133 JUMPI PUSH1 0x40 MLOAD PUSH4 0xEC442F05 PUSH1 0xE0 SHL DUP2 MSTORE PUSH1 0x0 PUSH1 0x4 DUP3 ADD MSTORE PUSH1 0x24 ADD PUSH2 0x82 JUMP JUMPDEST PUSH2 0x13F PUSH1 0x0 DUP4 DUP4 PUSH2 0x143 JUMP JUMPDEST POP POP JUMP JUMPDEST PUSH1 0x1 PUSH1 0x1 PUSH1 0xA0 SHL SUB DUP4 AND PUSH2 0x16E JUMPI DUP1 PUSH1 0x2 PUSH1 0x0 DUP3 DUP3 SLOAD PUSH2 0x163 SWAP2 SWAP1 PUSH2 0x4D6 JUMP JUMPDEST SWAP1 SWAP2 SSTORE POP PUSH2 0x1E0 SWAP1 POP JUMP JUMPDEST PUSH1 0x1 PUSH1 0x1 PUSH1 0xA0 SHL SUB DUP4 AND PUSH1 0x0 SWAP1 DUP2 MSTORE PUSH1 0x20 DUP2 SWAP1 MSTORE PUSH1 0x40 SWAP1 KECCAK256 SLOAD DUP2 DUP2 LT ISZERO PUSH2 0x1C1 JUMPI PUSH1 0x40 MLOAD PUSH4 0x391434E3 PUSH1 0xE2 SHL DUP2 MSTORE PUSH1 0x1 PUSH1 0x1 PUSH1 0xA0 SHL SUB DUP6 AND PUSH1 0x4 DUP3 ADD MSTORE PUSH1 0x24 DUP2 ADD DUP3 SWAP1 MSTORE PUSH1 0x44 DUP2 ADD DUP4 SWAP1 MSTORE PUSH1 0x64 ADD PUSH2 0x82 JUMP JUMPDEST PUSH1 0x1 PUSH1 0x1 PUSH1 0xA0 SHL SUB DUP5 AND PUSH1 0x0 SWAP1 DUP2 MSTORE PUSH1 0x20 DUP2 SWAP1 MSTORE PUSH1 0x40 SWAP1 KECCAK256 SWAP1 DUP3 SWAP1 SUB SWAP1 SSTORE JUMPDEST PUSH1 0x1 PUSH1 0x1 PUSH1 0xA0 SHL SUB DUP3 AND PUSH2 0x1FC JUMPI PUSH1 0x2 DUP1 SLOAD DUP3 SWAP1 SUB SWAP1 SSTORE PUSH2 0x21B JUMP JUMPDEST PUSH1 0x1 PUSH1 0x1 PUSH1 0xA0 SHL SUB DUP3 AND PUSH1 0x0 SWAP1 DUP2 MSTORE PUSH1 0x20 DUP2 SWAP1 MSTORE PUSH1 0x40 SWAP1 KECCAK256 DUP1 SLOAD DUP3 ADD SWAP1 SSTORE JUMPDEST DUP2 PUSH1 0x1 PUSH1 0x1 PUSH1 0xA0 SHL SUB AND DUP4 PUSH1 0x1 PUSH1 0x1 PUSH1 0xA0 SHL SUB AND PUSH32 0xDDF252AD1BE2C89B69C2B068FC378DAA952BA7F163C4A11628F55A4DF523B3EF DUP4 PUSH1 0x40 MLOAD PUSH2 0x260 SWAP2 DUP2 MSTORE PUSH1 0x20 ADD SWAP1 JUMP JUMPDEST PUSH1 0x40 MLOAD DUP1 SWAP2 SUB SWAP1 LOG3 POP POP POP JUMP JUMPDEST PUSH4 0x4E487B71 PUSH1 0xE0 SHL PUSH1 0x0 MSTORE PUSH1 0x41 PUSH1 0x4 MSTORE PUSH1 0x24 PUSH1 0x0 REVERT JUMPDEST PUSH1 0x0 DUP3 PUSH1 0x1F DUP4 ADD SLT PUSH2 0x294 JUMPI PUSH1 0x0 DUP1 REVERT JUMPDEST DUP2 MLOAD PUSH1 0x1 PUSH1 0x1 PUSH1 0x40 SHL SUB DUP2 GT ISZERO PUSH2 0x2AD JUMPI PUSH2 0x2AD PUSH2 0x26D JUMP JUMPDEST PUSH1 0x40 MLOAD PUSH1 0x1F DUP3 ADD PUSH1 0x1F NOT SWAP1 DUP2 AND PUSH1 0x3F ADD AND DUP2 ADD PUSH1 0x1 PUSH1 0x1 PUSH1 0x40 SHL SUB DUP2 GT DUP3 DUP3 LT OR ISZERO PUSH2 0x2DB JUMPI PUSH2 0x2DB PUSH2 0x26D JUMP JUMPDEST PUSH1 0x40 MSTORE DUP2 DUP2 MSTORE DUP4 DUP3 ADD PUSH1 0x20 ADD DUP6 LT ISZERO PUSH2 0x2F3 JUMPI PUSH1 0x0 DUP1 REVERT JUMPDEST PUSH1 0x0 JUMPDEST DUP3 DUP2 LT ISZERO PUSH2 0x312 JUMPI PUSH1 0x20 DUP2 DUP7 ADD DUP2 ADD MLOAD DUP4 DUP4 ADD DUP3 ADD MSTORE ADD PUSH2 0x2F6 JUMP JUMPDEST POP PUSH1 0x0 SWAP2 DUP2 ADD PUSH1 0x20 ADD SWAP2 SWAP1 SWAP2 MSTORE SWAP4 SWAP3 POP POP POP JUMP JUMPDEST PUSH1 0x0 DUP1 PUSH1 0x40 DUP4 DUP6 SUB SLT ISZERO PUSH2 0x339 JUMPI PUSH1 0x0 DUP1 REVERT JUMPDEST DUP3 MLOAD PUSH1 0x1 PUSH1 0x1 PUSH1 0x40 SHL SUB DUP2 GT ISZERO PUSH2 0x34F JUMPI PUSH1 0x0 DUP1 REVERT JUMPDEST PUSH2 0x35B DUP6 DUP3 DUP7 ADD PUSH2 0x283 JUMP JUMPDEST PUSH1 0x20 DUP6 ADD MLOAD SWAP1 SWAP4 POP SWAP1 POP PUSH1 0x1 PUSH1 0x1 PUSH1 0x40 SHL SUB DUP2 GT ISZERO PUSH2 0x379 JUMPI PUSH1 0x0 DUP1 REVERT JUMPDEST PUSH2 0x385 DUP6 DUP3 DUP7 ADD PUSH2 0x283 JUMP JUMPDEST SWAP2 POP POP SWAP3 POP SWAP3 SWAP1 POP JUMP JUMPDEST PUSH1 0x1 DUP2 DUP2 SHR SWAP1 DUP3 AND DUP1 PUSH2 0x3A3 JUMPI PUSH1 0x7F DUP3 AND SWAP2 POP JUMPDEST PUSH1 0x20 DUP3 LT DUP2 SUB PUSH2 0x3C3 JUMPI PUSH4 0x4E487B71 PUSH1 0xE0 SHL PUSH1 0x0 MSTORE PUSH1 0x22 PUSH1 0x4 MSTORE PUSH1 0x24 PUSH1 0x0 REVERT JUMPDEST POP SWAP2 SWAP1 POP JUMP JUMPDEST PUSH1 0x1F DUP3 GT ISZERO PUSH2 0x413 JUMPI DUP1 PUSH1 0x0 MSTORE PUSH1 0x20 PUSH1 0x0 KECCAK256 PUSH1 0x1F DUP5 ADD PUSH1 0x5 SHR DUP2 ADD PUSH1 0x20 DUP6 LT ISZERO PUSH2 0x3F0 JUMPI POP DUP1 JUMPDEST PUSH1 0x1F DUP5 ADD PUSH1 0x5 SHR DUP3 ADD SWAP2 POP JUMPDEST DUP2 DUP2 LT ISZERO PUSH2 0x410 JUMPI PUSH1 0x0 DUP2 SSTORE PUSH1 0x1 ADD PUSH2 0x3FC JUMP JUMPDEST POP POP JUMPDEST POP POP POP JUMP JUMPDEST DUP2 MLOAD PUSH1 0x1 PUSH1 0x1 PUSH1 0x40 SHL SUB DUP2 GT ISZERO PUSH2 0x431 JUMPI PUSH2 0x431 PUSH2 0x26D JUMP JUMPDEST PUSH2 0x445 DUP2 PUSH2 0x43F DUP5 SLOAD PUSH2 0x38F JUMP JUMPDEST DUP5 PUSH2 0x3C9 JUMP JUMPDEST PUSH1 0x20 PUSH1 0x1F DUP3 GT PUSH1 0x1 DUP2 EQ PUSH2 0x479 JUMPI PUSH1 0x0 DUP4 ISZERO PUSH2 0x461 JUMPI POP DUP5 DUP3 ADD MLOAD JUMPDEST PUSH1 0x0 NOT PUSH1 0x3 DUP6 SWAP1 SHL SHR NOT AND PUSH1 0x1 DUP5 SWAP1 SHL OR DUP5 SSTORE PUSH2 0x410 JUMP JUMPDEST PUSH1 0x0 DUP5 DUP2 MSTORE PUSH1 0x20 DUP2 KECCAK256 PUSH1 0x1F NOT DUP6 AND SWAP2 JUMPDEST DUP3 DUP2 LT ISZERO PUSH2 0x4A9 JUMPI DUP8 DUP6 ADD MLOAD DUP3 SSTORE PUSH1 0x20 SWAP5 DUP6 ADD SWAP5 PUSH1 0x1 SWAP1 SWAP3 ADD SWAP2 ADD PUSH2 0x489 JUMP JUMPDEST POP DUP5 DUP3 LT ISZERO PUSH2 0x4C7 JUMPI DUP7 DUP5 ADD MLOAD PUSH1 0x0 NOT PUSH1 0x3 DUP8 SWAP1 SHL PUSH1 0xF8 AND SHR NOT AND DUP2 SSTORE JUMPDEST POP POP POP POP PUSH1 0x1 SWAP1 DUP2 SHL ADD SWAP1 SSTORE POP JUMP JUMPDEST DUP1 DUP3 ADD DUP1 DUP3 GT ISZERO PUSH2 0x4F7 JUMPI PUSH4 0x4E487B71 PUSH1 0xE0 SHL PUSH1 0x0 MSTORE PUSH1 0x11 PUSH1 0x4 MSTORE PUSH1 0x24 PUSH1 0x0 REVERT JUMPDEST SWAP3 SWAP2 POP POP JUMP JUMPDEST PUSH2 0x1188 DUP1 PUSH2 0x50C PUSH1 0x0 CODECOPY PUSH1 0x0 RETURN INVALID PUSH1 0x80 PUSH1 0x40 MSTORE CALLVALUE DUP1 ISZERO PUSH2 0x10 JUMPI PUSH1 0x0 DUP1 REVERT JUMPDEST POP PUSH1 0x4 CALLDATASIZE LT PUSH2 0x14D JUMPI PUSH1 0x0 CALLDATALOAD PUSH1 0xE0 SHR DUP1 PUSH4 0x715018A6 GT PUSH2 0xC3 JUMPI DUP1 PUSH4 0xA9059CBB GT PUSH2 0x7C JUMPI DUP1 PUSH4 0xA9059CBB EQ PUSH2 0x2B5 JUMPI DUP1 PUSH4 0xC66E4095 EQ PUSH2 0x2C8 JUMPI DUP1 PUSH4 0xDBAC26E9 EQ PUSH2 0x2DB JUMPI DUP1 PUSH4 0xDD62ED3E EQ PUSH2 0x2FE JUMPI DUP1 PUSH4 0xF2FDE38B EQ PUSH2 0x337 JUMPI DUP1 PUSH4 0xFE575A87 EQ PUSH2 0x34A JUMPI PUSH1 0x0 DUP1 REVERT JUMPDEST DUP1 PUSH4 0x715018A6 EQ PUSH2 0x245 JUMPI DUP1 PUSH4 0x8456CB59 EQ PUSH2 0x24D JUMPI DUP1 PUSH4 0x88D695B2 EQ PUSH2 0x255 JUMPI DUP1 PUSH4 0x8DA5CB5B EQ PUSH2 0x268 JUMPI DUP1 PUSH4 0x95D89B41 EQ PUSH2 0x28D JUMPI DUP1 PUSH4 0x9BC289F1 EQ PUSH2 0x295 JUMPI PUSH1 0x0 DUP1 REVERT JUMPDEST DUP1 PUSH4 0x2E0D2A00 GT PUSH2 0x115 JUMPI DUP1 PUSH4 0x2E0D2A00 EQ PUSH2 0x1CD JUMPI DUP1 PUSH4 0x313CE567 EQ PUSH2 0x1E0 JUMPI DUP1 PUSH4 0x3E579307 EQ PUSH2 0x1EF JUMPI DUP1 PUSH4 0x3F4BA83A EQ PUSH2 0x202 JUMPI DUP1 PUSH4 0x5C975ABB EQ PUSH2 0x20A JUMPI DUP1 PUSH4 0x70A08231 EQ PUSH2 0x21C JUMPI PUSH1 0x0 DUP1 REVERT JUMPDEST DUP1 PUSH4 0x6FDDE03 EQ PUSH2 0x152 JUMPI DUP1 PUSH4 0x95EA7B3 EQ PUSH2 0x170 JUMPI DUP1 PUSH4 0x153B0D1E EQ PUSH2 0x193 JUMPI DUP1 PUSH4 0x18160DDD EQ PUSH2 0x1A8 JUMPI DUP1 PUSH4 0x23B872DD EQ PUSH2 0x1BA JUMPI JUMPDEST PUSH1 0x0 DUP1 REVERT JUMPDEST PUSH2 0x15A PUSH2 0x376 JUMP JUMPDEST PUSH1 0x40 MLOAD PUSH2 0x167 SWAP2 SWAP1 PUSH2 0xDF8 JUMP JUMPDEST PUSH1 0x40 MLOAD DUP1 SWAP2 SUB SWAP1 RETURN JUMPDEST PUSH2 0x183 PUSH2 0x17E CALLDATASIZE PUSH1 0x4 PUSH2 0xE62 JUMP JUMPDEST PUSH2 0x408 JUMP JUMPDEST PUSH1 0x40 MLOAD SWAP1 ISZERO ISZERO DUP2 MSTORE PUSH1 0x20 ADD PUSH2 0x167 JUMP JUMPDEST PUSH2 0x1A6 PUSH2 0x1A1 CALLDATASIZE PUSH1 0x4 PUSH2 0xE8C JUMP JUMPDEST PUSH2 0x422 JUMP JUMPDEST STOP JUMPDEST PUSH1 0x2 SLOAD JUMPDEST PUSH1 0x40 MLOAD SWAP1 DUP2 MSTORE PUSH1 0x20 ADD PUSH2 0x167 JUMP JUMPDEST PUSH2 0x183 PUSH2 0x1C8 CALLDATASIZE PUSH1 0x4 PUSH2 0xEC8 JUMP JUMPDEST PUSH2 0x48A JUMP JUMPDEST PUSH2 0x1A6 PUSH2 0x1DB CALLDATASIZE PUSH1 0x4 PUSH2 0xF05 JUMP JUMPDEST PUSH2 0x57B JUMP JUMPDEST PUSH1 0x40 MLOAD PUSH1 0x12 DUP2 MSTORE PUSH1 0x20 ADD PUSH2 0x167 JUMP JUMPDEST PUSH2 0x1A6 PUSH2 0x1FD CALLDATASIZE PUSH1 0x4 PUSH2 0xE62 JUMP JUMPDEST PUSH2 0x5CD JUMP JUMPDEST PUSH2 0x1A6 PUSH2 0x665 JUMP JUMPDEST PUSH1 0x5 SLOAD PUSH1 0x1 PUSH1 0xA0 SHL SWAP1 DIV PUSH1 0xFF AND PUSH2 0x183 JUMP JUMPDEST PUSH2 0x1AC PUSH2 0x22A CALLDATASIZE PUSH1 0x4 PUSH2 0xF05 JUMP JUMPDEST PUSH1 0x1 PUSH1 0x1 PUSH1 0xA0 SHL SUB AND PUSH1 0x0 SWAP1 DUP2 MSTORE PUSH1 0x20 DUP2 SWAP1 MSTORE PUSH1 0x40 SWAP1 KECCAK256 SLOAD SWAP1 JUMP JUMPDEST PUSH2 0x1A6 PUSH2 0x677 JUMP JUMPDEST PUSH2 0x1A6 PUSH2 0x689 JUMP JUMPDEST PUSH2 0x1A6 PUSH2 0x263 CALLDATASIZE PUSH1 0x4 PUSH2 0xF6C JUMP JUMPDEST PUSH2 0x699 JUMP JUMPDEST PUSH1 0x5 SLOAD PUSH1 0x1 PUSH1 0x1 PUSH1 0xA0 SHL SUB AND JUMPDEST PUSH1 0x40 MLOAD PUSH1 0x1 PUSH1 0x1 PUSH1 0xA0 SHL SUB SWAP1 SWAP2 AND DUP2 MSTORE PUSH1 0x20 ADD PUSH2 0x167 JUMP JUMPDEST PUSH2 0x15A PUSH2 0x811 JUMP JUMPDEST PUSH2 0x1AC PUSH2 0x2A3 CALLDATASIZE PUSH1 0x4 PUSH2 0xF05 JUMP JUMPDEST PUSH1 0x8 PUSH1 0x20 MSTORE PUSH1 0x0 SWAP1 DUP2 MSTORE PUSH1 0x40 SWAP1 KECCAK256 SLOAD DUP2 JUMP JUMPDEST PUSH2 0x183 PUSH2 0x2C3 CALLDATASIZE PUSH1 0x4 PUSH2 0xE62 JUMP JUMPDEST PUSH2 0x820 JUMP JUMPDEST PUSH1 0x6 SLOAD PUSH2 0x275 SWAP1 PUSH1 0x1 PUSH1 0x1 PUSH1 0xA0 SHL SUB AND DUP2 JUMP JUMPDEST PUSH2 0x183 PUSH2 0x2E9 CALLDATASIZE PUSH1 0x4 PUSH2 0xF05 JUMP JUMPDEST PUSH1 0x9 PUSH1 0x20 MSTORE PUSH1 0x0 SWAP1 DUP2 MSTORE PUSH1 0x40 SWAP1 KECCAK256 SLOAD PUSH1 0xFF AND DUP2 JUMP JUMPDEST PUSH2 0x1AC PUSH2 0x30C CALLDATASIZE PUSH1 0x4 PUSH2 0xFDD JUMP JUMPDEST PUSH1 0x1 PUSH1 0x1 PUSH1 0xA0 SHL SUB SWAP2 DUP3 AND PUSH1 0x0 SWAP1 DUP2 MSTORE PUSH1 0x1 PUSH1 0x20 SWAP1 DUP2 MSTORE PUSH1 0x40 DUP1 DUP4 KECCAK256 SWAP4 SWAP1 SWAP5 AND DUP3 MSTORE SWAP2 SWAP1 SWAP2 MSTORE KECCAK256 SLOAD SWAP1 JUMP JUMPDEST PUSH2 0x1A6 PUSH2 0x345 CALLDATASIZE PUSH1 0x4 PUSH2 0xF05 JUMP JUMPDEST PUSH2 0x8EB JUMP JUMPDEST PUSH2 0x183 PUSH2 0x358 CALLDATASIZE PUSH1 0x4 PUSH2 0xF05 JUMP JUMPDEST PUSH1 0x1 PUSH1 0x1 PUSH1 0xA0 SHL SUB AND PUSH1 0x0 SWAP1 DUP2 MSTORE PUSH1 0x9 PUSH1 0x20 MSTORE PUSH1 0x40 SWAP1 KECCAK256 SLOAD PUSH1 0xFF AND SWAP1 JUMP JUMPDEST PUSH1 0x60 PUSH1 0x3 DUP1 SLOAD PUSH2 0x385 SWAP1 PUSH2 0x1010 JUMP JUMPDEST DUP1 PUSH1 0x1F ADD PUSH1 0x20 DUP1 SWAP2 DIV MUL PUSH1 0x20 ADD PUSH1 0x40 MLOAD SWAP1 DUP2 ADD PUSH1 0x40 MSTORE DUP1 SWAP3 SWAP2 SWAP1 DUP2 DUP2 MSTORE PUSH1 0x20 ADD DUP3 DUP1 SLOAD PUSH2 0x3B1 SWAP1 PUSH2 0x1010 JUMP JUMPDEST DUP1 ISZERO PUSH2 0x3FE JUMPI DUP1 PUSH1 0x1F LT PUSH2 0x3D3 JUMPI PUSH2 0x100 DUP1 DUP4 SLOAD DIV MUL DUP4 MSTORE SWAP2 PUSH1 0x20 ADD SWAP2 PUSH2 0x3FE JUMP JUMPDEST DUP3 ADD SWAP2 SWAP1 PUSH1 0x0 MSTORE PUSH1 0x20 PUSH1 0x0 KECCAK256 SWAP1 JUMPDEST DUP2 SLOAD DUP2 MSTORE SWAP1 PUSH1 0x1 ADD SWAP1 PUSH1 0x20 ADD DUP1 DUP4 GT PUSH2 0x3E1 JUMPI DUP3 SWAP1 SUB PUSH1 0x1F AND DUP3 ADD SWAP2 JUMPDEST POP POP POP POP POP SWAP1 POP SWAP1 JUMP JUMPDEST PUSH1 0x0 CALLER PUSH2 0x416 DUP2 DUP6 DUP6 PUSH2 0x929 JUMP JUMPDEST PUSH1 0x1 SWAP2 POP POP JUMPDEST SWAP3 SWAP2 POP POP JUMP JUMPDEST PUSH2 0x42A PUSH2 0x93B JUMP JUMPDEST PUSH1 0x1 PUSH1 0x1 PUSH1 0xA0 SHL SUB DUP3 AND PUSH1 0x0 DUP2 DUP2 MSTORE PUSH1 0x9 PUSH1 0x20 SWAP1 DUP2 MSTORE PUSH1 0x40 SWAP2 DUP3 SWAP1 KECCAK256 DUP1 SLOAD PUSH1 0xFF NOT AND DUP6 ISZERO ISZERO SWAP1 DUP2 OR SWAP1 SWAP2 SSTORE SWAP2 MLOAD SWAP2 DUP3 MSTORE PUSH32 0xCF3473B85DF1594D47B6958F29A32BEA0ABFF9DD68296F7BF33443646793CFD8 SWAP2 ADD JUMPDEST PUSH1 0x40 MLOAD DUP1 SWAP2 SUB SWAP1 LOG2 POP POP JUMP JUMPDEST PUSH1 0x0 PUSH2 0x494 PUSH2 0x968 JUMP JUMPDEST PUSH1 0x1 PUSH1 0x1 PUSH1 0xA0 SHL SUB DUP5 AND PUSH1 0x0 SWAP1 DUP2 MSTORE PUSH1 0x9 PUSH1 0x20 MSTORE PUSH1 0x40 SWAP1 KECCAK256 SLOAD PUSH1 0xFF AND ISZERO PUSH2 0x4D6 JUMPI PUSH1 0x40 MLOAD PUSH3 0x461BCD PUSH1 0xE5 SHL DUP2 MSTORE PUSH1 0x4 ADD PUSH2 0x4CD SWAP1 PUSH2 0x104A JUMP JUMPDEST PUSH1 0x40 MLOAD DUP1 SWAP2 SUB SWAP1 REVERT JUMPDEST PUSH1 0x1 PUSH1 0x1 PUSH1 0xA0 SHL SUB DUP4 AND PUSH1 0x0 SWAP1 DUP2 MSTORE PUSH1 0x9 PUSH1 0x20 MSTORE PUSH1 0x40 SWAP1 KECCAK256 SLOAD PUSH1 0xFF AND ISZERO PUSH2 0x50F JUMPI PUSH1 0x40 MLOAD PUSH3 0x461BCD PUSH1 0xE5 SHL DUP2 MSTORE PUSH1 0x4 ADD PUSH2 0x4CD SWAP1 PUSH2 0x1090 JUMP JUMPDEST PUSH1 0x1 PUSH1 0x1 PUSH1 0xA0 SHL SUB DUP5 AND PUSH1 0x0 SWAP1 DUP2 MSTORE PUSH1 0x8 PUSH1 0x20 MSTORE PUSH1 0x40 SWAP1 KECCAK256 SLOAD TIMESTAMP LT ISZERO DUP1 PUSH2 0x54C JUMPI POP PUSH1 0x1 PUSH1 0x1 PUSH1 0xA0 SHL SUB DUP5 AND PUSH1 0x0 SWAP1 DUP2 MSTORE PUSH1 0x8 PUSH1 0x20 MSTORE PUSH1 0x40 SWAP1 KECCAK256 SLOAD ISZERO JUMPDEST PUSH2 0x568 JUMPI PUSH1 0x40 MLOAD PUSH3 0x461BCD PUSH1 0xE5 SHL DUP2 MSTORE PUSH1 0x4 ADD PUSH2 0x4CD SWAP1 PUSH2 0x10D9 JUMP JUMPDEST PUSH2 0x573 DUP5 DUP5 DUP5 PUSH2 0x9B5 JUMP JUMPDEST SWAP5 SWAP4 POP POP POP POP JUMP JUMPDEST PUSH2 0x583 PUSH2 0x93B JUMP JUMPDEST PUSH1 0x6 DUP1 SLOAD PUSH1 0x1 PUSH1 0x1 PUSH1 0xA0 SHL SUB NOT AND PUSH1 0x1 PUSH1 0x1 PUSH1 0xA0 SHL SUB DUP4 AND SWAP1 DUP2 OR SWAP1 SWAP2 SSTORE PUSH1 0x40 MLOAD PUSH32 0xE7BBFBBF7E7948988EB7F8904DA938AFF02A23B8B28FCEE206BE4D4B3EDD9AD8 SWAP1 PUSH1 0x0 SWAP1 LOG2 POP JUMP JUMPDEST PUSH1 0x6 SLOAD PUSH1 0x1 PUSH1 0x1 PUSH1 0xA0 SHL SUB AND CALLER EQ PUSH2 0x618 JUMPI PUSH1 0x40 MLOAD PUSH3 0x461BCD PUSH1 0xE5 SHL DUP2 MSTORE PUSH1 0x20 PUSH1 0x4 DUP3 ADD MSTORE PUSH1 0xE PUSH1 0x24 DUP3 ADD MSTORE PUSH14 0x139BDD08185D5D1A1BDC9A5E9959 PUSH1 0x92 SHL PUSH1 0x44 DUP3 ADD MSTORE PUSH1 0x64 ADD PUSH2 0x4CD JUMP JUMPDEST PUSH1 0x1 PUSH1 0x1 PUSH1 0xA0 SHL SUB DUP3 AND PUSH1 0x0 DUP2 DUP2 MSTORE PUSH1 0x8 PUSH1 0x20 MSTORE PUSH1 0x40 SWAP1 DUP2 SWAP1 KECCAK256 DUP4 SWAP1 SSTORE MLOAD PUSH32 0x611CDBEA265CB87EF40E17C595BAD009182B4DB741622F7848E344C15451DE2F SWAP1 PUSH2 0x47E SWAP1 DUP5 DUP2 MSTORE PUSH1 0x20 ADD SWAP1 JUMP JUMPDEST PUSH2 0x66D PUSH2 0x93B JUMP JUMPDEST PUSH2 0x675 PUSH2 0x9D9 JUMP JUMPDEST JUMP JUMPDEST PUSH2 0x67F PUSH2 0x93B JUMP JUMPDEST PUSH2 0x675 PUSH1 0x0 PUSH2 0xA2E JUMP JUMPDEST PUSH2 0x691 PUSH2 0x93B JUMP JUMPDEST PUSH2 0x675 PUSH2 0xA80 JUMP JUMPDEST PUSH2 0x6A1 PUSH2 0x968 JUMP JUMPDEST DUP3 DUP2 EQ PUSH2 0x700 JUMPI PUSH1 0x40 MLOAD PUSH3 0x461BCD PUSH1 0xE5 SHL DUP2 MSTORE PUSH1 0x20 PUSH1 0x4 DUP3 ADD MSTORE PUSH1 0x27 PUSH1 0x24 DUP3 ADD MSTORE PUSH32 0x42617463685472616E73666572206661696C65643A204D69736D617463686564 PUSH1 0x44 DUP3 ADD MSTORE PUSH7 0x20617272617973 PUSH1 0xC8 SHL PUSH1 0x64 DUP3 ADD MSTORE PUSH1 0x84 ADD PUSH2 0x4CD JUMP JUMPDEST DUP3 PUSH1 0x0 JUMPDEST DUP2 DUP2 LT ISZERO PUSH2 0x809 JUMPI PUSH1 0x9 PUSH1 0x0 DUP8 DUP8 DUP5 DUP2 DUP2 LT PUSH2 0x722 JUMPI PUSH2 0x722 PUSH2 0x111B JUMP JUMPDEST SWAP1 POP PUSH1 0x20 MUL ADD PUSH1 0x20 DUP2 ADD SWAP1 PUSH2 0x737 SWAP2 SWAP1 PUSH2 0xF05 JUMP JUMPDEST PUSH1 0x1 PUSH1 0x1 PUSH1 0xA0 SHL SUB AND DUP2 MSTORE PUSH1 0x20 DUP2 ADD SWAP2 SWAP1 SWAP2 MSTORE PUSH1 0x40 ADD PUSH1 0x0 KECCAK256 SLOAD PUSH1 0xFF AND ISZERO PUSH2 0x7B8 JUMPI PUSH1 0x40 MLOAD PUSH3 0x461BCD PUSH1 0xE5 SHL DUP2 MSTORE PUSH1 0x20 PUSH1 0x4 DUP3 ADD MSTORE PUSH1 0x2E PUSH1 0x24 DUP3 ADD MSTORE PUSH32 0x42617463685472616E73666572206661696C65643A20526563697069656E7420 PUSH1 0x44 DUP3 ADD MSTORE PUSH14 0x1A5CC8189B1858DADB1A5CDD1959 PUSH1 0x92 SHL PUSH1 0x64 DUP3 ADD MSTORE PUSH1 0x84 ADD PUSH2 0x4CD JUMP JUMPDEST PUSH2 0x801 CALLER DUP8 DUP8 DUP5 DUP2 DUP2 LT PUSH2 0x7CE JUMPI PUSH2 0x7CE PUSH2 0x111B JUMP JUMPDEST SWAP1 POP PUSH1 0x20 MUL ADD PUSH1 0x20 DUP2 ADD SWAP1 PUSH2 0x7E3 SWAP2 SWAP1 PUSH2 0xF05 JUMP JUMPDEST DUP7 DUP7 DUP6 DUP2 DUP2 LT PUSH2 0x7F5 JUMPI PUSH2 0x7F5 PUSH2 0x111B JUMP JUMPDEST SWAP1 POP PUSH1 0x20 MUL ADD CALLDATALOAD PUSH2 0xAC3 JUMP JUMPDEST PUSH1 0x1 ADD PUSH2 0x704 JUMP JUMPDEST POP POP POP POP POP POP JUMP JUMPDEST PUSH1 0x60 PUSH1 0x4 DUP1 SLOAD PUSH2 0x385 SWAP1 PUSH2 0x1010 JUMP JUMPDEST PUSH1 0x0 PUSH2 0x82A PUSH2 0x968 JUMP JUMPDEST CALLER PUSH1 0x0 SWAP1 DUP2 MSTORE PUSH1 0x9 PUSH1 0x20 MSTORE PUSH1 0x40 SWAP1 KECCAK256 SLOAD PUSH1 0xFF AND ISZERO PUSH2 0x85A JUMPI PUSH1 0x40 MLOAD PUSH3 0x461BCD PUSH1 0xE5 SHL DUP2 MSTORE PUSH1 0x4 ADD PUSH2 0x4CD SWAP1 PUSH2 0x104A JUMP JUMPDEST PUSH1 0x1 PUSH1 0x1 PUSH1 0xA0 SHL SUB DUP4 AND PUSH1 0x0 SWAP1 DUP2 MSTORE PUSH1 0x9 PUSH1 0x20 MSTORE PUSH1 0x40 SWAP1 KECCAK256 SLOAD PUSH1 0xFF AND ISZERO PUSH2 0x893 JUMPI PUSH1 0x40 MLOAD PUSH3 0x461BCD PUSH1 0xE5 SHL DUP2 MSTORE PUSH1 0x4 ADD PUSH2 0x4CD SWAP1 PUSH2 0x1090 JUMP JUMPDEST CALLER PUSH1 0x0 SWAP1 DUP2 MSTORE PUSH1 0x8 PUSH1 0x20 MSTORE PUSH1 0x40 SWAP1 KECCAK256 SLOAD TIMESTAMP LT ISZERO DUP1 PUSH2 0x8BE JUMPI POP CALLER PUSH1 0x0 SWAP1 DUP2 MSTORE PUSH1 0x8 PUSH1 0x20 MSTORE PUSH1 0x40 SWAP1 KECCAK256 SLOAD ISZERO JUMPDEST PUSH2 0x8DA JUMPI PUSH1 0x40 MLOAD PUSH3 0x461BCD PUSH1 0xE5 SHL DUP2 MSTORE PUSH1 0x4 ADD PUSH2 0x4CD SWAP1 PUSH2 0x10D9 JUMP JUMPDEST PUSH2 0x8E4 DUP4 DUP4 PUSH2 0xB22 JUMP JUMPDEST SWAP4 SWAP3 POP POP POP JUMP JUMPDEST PUSH2 0x8F3 PUSH2 0x93B JUMP JUMPDEST PUSH1 0x1 PUSH1 0x1 PUSH1 0xA0 SHL SUB DUP2 AND PUSH2 0x91D JUMPI PUSH1 0x40 MLOAD PUSH4 0x1E4FBDF7 PUSH1 0xE0 SHL DUP2 MSTORE PUSH1 0x0 PUSH1 0x4 DUP3 ADD MSTORE PUSH1 0x24 ADD PUSH2 0x4CD JUMP JUMPDEST PUSH2 0x926 DUP2 PUSH2 0xA2E JUMP JUMPDEST POP JUMP JUMPDEST PUSH2 0x936 DUP4 DUP4 DUP4 PUSH1 0x1 PUSH2 0xB30 JUMP JUMPDEST POP POP POP JUMP JUMPDEST PUSH1 0x5 SLOAD PUSH1 0x1 PUSH1 0x1 PUSH1 0xA0 SHL SUB AND CALLER EQ PUSH2 0x675 JUMPI PUSH1 0x40 MLOAD PUSH4 0x118CDAA7 PUSH1 0xE0 SHL DUP2 MSTORE CALLER PUSH1 0x4 DUP3 ADD MSTORE PUSH1 0x24 ADD PUSH2 0x4CD JUMP JUMPDEST PUSH1 0x5 SLOAD PUSH1 0x1 PUSH1 0xA0 SHL SWAP1 DIV PUSH1 0xFF AND ISZERO PUSH2 0x675 JUMPI PUSH1 0x40 MLOAD PUSH3 0x461BCD PUSH1 0xE5 SHL DUP2 MSTORE PUSH1 0x20 PUSH1 0x4 DUP3 ADD MSTORE PUSH1 0x10 PUSH1 0x24 DUP3 ADD MSTORE PUSH16 0x14185D5CD8589B194E881C185D5CD959 PUSH1 0x82 SHL PUSH1 0x44 DUP3 ADD MSTORE PUSH1 0x64 ADD PUSH2 0x4CD JUMP JUMPDEST PUSH1 0x0 CALLER PUSH2 0x9C3 DUP6 DUP3 DUP6 PUSH2 0xC06 JUMP JUMPDEST PUSH2 0x9CE DUP6 DUP6 DUP6 PUSH2 0xAC3 JUMP JUMPDEST POP PUSH1 0x1 SWAP5 SWAP4 POP POP POP POP JUMP JUMPDEST PUSH2 0x9E1 PUSH2 0xC7E JUMP JUMPDEST PUSH1 0x5 DUP1 SLOAD PUSH1 0xFF PUSH1 0xA0 SHL NOT AND SWAP1 SSTORE PUSH32 0x5DB9EE0A495BF2E6FF9C91A7834C1BA4FDD244A5E8AA4E537BD38AEAE4B073AA CALLER JUMPDEST PUSH1 0x40 MLOAD PUSH1 0x1 PUSH1 0x1 PUSH1 0xA0 SHL SUB SWAP1 SWAP2 AND DUP2 MSTORE PUSH1 0x20 ADD PUSH1 0x40 MLOAD DUP1 SWAP2 SUB SWAP1 LOG1 JUMP JUMPDEST PUSH1 0x5 DUP1 SLOAD PUSH1 0x1 PUSH1 0x1 PUSH1 0xA0 SHL SUB DUP4 DUP2 AND PUSH1 0x1 PUSH1 0x1 PUSH1 0xA0 SHL SUB NOT DUP4 AND DUP2 OR SWAP1 SWAP4 SSTORE PUSH1 0x40 MLOAD SWAP2 AND SWAP2 SWAP1 DUP3 SWAP1 PUSH32 0x8BE0079C531659141344CD1FD0A4F28419497F9722A3DAAFE3B4186F6B6457E0 SWAP1 PUSH1 0x0 SWAP1 LOG3 POP POP JUMP JUMPDEST PUSH2 0xA88 PUSH2 0x968 JUMP JUMPDEST PUSH1 0x5 DUP1 SLOAD PUSH1 0xFF PUSH1 0xA0 SHL NOT AND PUSH1 0x1 PUSH1 0xA0 SHL OR SWAP1 SSTORE PUSH32 0x62E78CEA01BEE320CD4E420270B5EA74000D11B0C9F74754EBDBFC544B05A258 PUSH2 0xA11 CALLER SWAP1 JUMP JUMPDEST PUSH1 0x1 PUSH1 0x1 PUSH1 0xA0 SHL SUB DUP4 AND PUSH2 0xAED JUMPI PUSH1 0x40 MLOAD PUSH4 0x4B637E8F PUSH1 0xE1 SHL DUP2 MSTORE PUSH1 0x0 PUSH1 0x4 DUP3 ADD MSTORE PUSH1 0x24 ADD PUSH2 0x4CD JUMP JUMPDEST PUSH1 0x1 PUSH1 0x1 PUSH1 0xA0 SHL SUB DUP3 AND PUSH2 0xB17 JUMPI PUSH1 0x40 MLOAD PUSH4 0xEC442F05 PUSH1 0xE0 SHL DUP2 MSTORE PUSH1 0x0 PUSH1 0x4 DUP3 ADD MSTORE PUSH1 0x24 ADD PUSH2 0x4CD JUMP JUMPDEST PUSH2 0x936 DUP4 DUP4 DUP4 PUSH2 0xCCE JUMP JUMPDEST PUSH1 0x0 CALLER PUSH2 0x416 DUP2 DUP6 DUP6 PUSH2 0xAC3 JUMP JUMPDEST PUSH1 0x1 PUSH1 0x1 PUSH1 0xA0 SHL SUB DUP5 AND PUSH2 0xB5A JUMPI PUSH1 0x40 MLOAD PUSH4 0xE602DF05 PUSH1 0xE0 SHL DUP2 MSTORE PUSH1 0x0 PUSH1 0x4 DUP3 ADD MSTORE PUSH1 0x24 ADD PUSH2 0x4CD JUMP JUMPDEST PUSH1 0x1 PUSH1 0x1 PUSH1 0xA0 SHL SUB DUP4 AND PUSH2 0xB84 JUMPI PUSH1 0x40 MLOAD PUSH4 0x4A1406B1 PUSH1 0xE1 SHL DUP2 MSTORE PUSH1 0x0 PUSH1 0x4 DUP3 ADD MSTORE PUSH1 0x24 ADD PUSH2 0x4CD JUMP JUMPDEST PUSH1 0x1 PUSH1 0x1 PUSH1 0xA0 SHL SUB DUP1 DUP6 AND PUSH1 0x0 SWAP1 DUP2 MSTORE PUSH1 0x1 PUSH1 0x20 SWAP1 DUP2 MSTORE PUSH1 0x40 DUP1 DUP4 KECCAK256 SWAP4 DUP8 AND DUP4 MSTORE SWAP3 SWAP1 MSTORE KECCAK256 DUP3 SWAP1 SSTORE DUP1 ISZERO PUSH2 0xC00 JUMPI DUP3 PUSH1 0x1 PUSH1 0x1 PUSH1 0xA0 SHL SUB AND DUP5 PUSH1 0x1 PUSH1 0x1 PUSH1 0xA0 SHL SUB AND PUSH32 0x8C5BE1E5EBEC7D5BD14F71427D1E84F3DD0314C0F7B2291E5B200AC8C7C3B925 DUP5 PUSH1 0x40 MLOAD PUSH2 0xBF7 SWAP2 DUP2 MSTORE PUSH1 0x20 ADD SWAP1 JUMP JUMPDEST PUSH1 0x40 MLOAD DUP1 SWAP2 SUB SWAP1 LOG3 JUMPDEST POP POP POP POP JUMP JUMPDEST PUSH1 0x1 PUSH1 0x1 PUSH1 0xA0 SHL SUB DUP4 DUP2 AND PUSH1 0x0 SWAP1 DUP2 MSTORE PUSH1 0x1 PUSH1 0x20 SWAP1 DUP2 MSTORE PUSH1 0x40 DUP1 DUP4 KECCAK256 SWAP4 DUP7 AND DUP4 MSTORE SWAP3 SWAP1 MSTORE KECCAK256 SLOAD PUSH1 0x0 NOT DUP2 EQ PUSH2 0xC00 JUMPI DUP2 DUP2 LT ISZERO PUSH2 0xC6F JUMPI PUSH1 0x40 MLOAD PUSH4 0x7DC7A0D9 PUSH1 0xE1 SHL DUP2 MSTORE PUSH1 0x1 PUSH1 0x1 PUSH1 0xA0 SHL SUB DUP5 AND PUSH1 0x4 DUP3 ADD MSTORE PUSH1 0x24 DUP2 ADD DUP3 SWAP1 MSTORE PUSH1 0x44 DUP2 ADD DUP4 SWAP1 MSTORE PUSH1 0x64 ADD PUSH2 0x4CD JUMP JUMPDEST PUSH2 0xC00 DUP5 DUP5 DUP5 DUP5 SUB PUSH1 0x0 PUSH2 0xB30 JUMP JUMPDEST PUSH1 0x5 SLOAD PUSH1 0x1 PUSH1 0xA0 SHL SWAP1 DIV PUSH1 0xFF AND PUSH2 0x675 JUMPI PUSH1 0x40 MLOAD PUSH3 0x461BCD PUSH1 0xE5 SHL DUP2 MSTORE PUSH1 0x20 PUSH1 0x4 DUP3 ADD MSTORE PUSH1 0x14 PUSH1 0x24 DUP3 ADD MSTORE PUSH20 0x14185D5CD8589B194E881B9BDD081C185D5CD959 PUSH1 0x62 SHL PUSH1 0x44 DUP3 ADD MSTORE PUSH1 0x64 ADD PUSH2 0x4CD JUMP JUMPDEST PUSH1 0x1 PUSH1 0x1 PUSH1 0xA0 SHL SUB DUP4 AND PUSH2 0xCF9 JUMPI DUP1 PUSH1 0x2 PUSH1 0x0 DUP3 DUP3 SLOAD PUSH2 0xCEE SWAP2 SWAP1 PUSH2 0x1131 JUMP JUMPDEST SWAP1 SWAP2 SSTORE POP PUSH2 0xD6B SWAP1 POP JUMP JUMPDEST PUSH1 0x1 PUSH1 0x1 PUSH1 0xA0 SHL SUB DUP4 AND PUSH1 0x0 SWAP1 DUP2 MSTORE PUSH1 0x20 DUP2 SWAP1 MSTORE PUSH1 0x40 SWAP1 KECCAK256 SLOAD DUP2 DUP2 LT ISZERO PUSH2 0xD4C JUMPI PUSH1 0x40 MLOAD PUSH4 0x391434E3 PUSH1 0xE2 SHL DUP2 MSTORE PUSH1 0x1 PUSH1 0x1 PUSH1 0xA0 SHL SUB DUP6 AND PUSH1 0x4 DUP3 ADD MSTORE PUSH1 0x24 DUP2 ADD DUP3 SWAP1 MSTORE PUSH1 0x44 DUP2 ADD DUP4 SWAP1 MSTORE PUSH1 0x64 ADD PUSH2 0x4CD JUMP JUMPDEST PUSH1 0x1 PUSH1 0x1 PUSH1 0xA0 SHL SUB DUP5 AND PUSH1 0x0 SWAP1 DUP2 MSTORE PUSH1 0x20 DUP2 SWAP1 MSTORE PUSH1 0x40 SWAP1 KECCAK256 SWAP1 DUP3 SWAP1 SUB SWAP1 SSTORE JUMPDEST PUSH1 0x1 PUSH1 0x1 PUSH1 0xA0 SHL SUB DUP3 AND PUSH2 0xD87 JUMPI PUSH1 0x2 DUP1 SLOAD DUP3 SWAP1 SUB SWAP1 SSTORE PUSH2 0xDA6 JUMP JUMPDEST PUSH1 0x1 PUSH1 0x1 PUSH1 0xA0 SHL SUB DUP3 AND PUSH1 0x0 SWAP1 DUP2 MSTORE PUSH1 0x20 DUP2 SWAP1 MSTORE PUSH1 0x40 SWAP1 KECCAK256 DUP1 SLOAD DUP3 ADD SWAP1 SSTORE JUMPDEST DUP2 PUSH1 0x1 PUSH1 0x1 PUSH1 0xA0 SHL SUB AND DUP4 PUSH1 0x1 PUSH1 0x1 PUSH1 0xA0 SHL SUB AND PUSH32 0xDDF252AD1BE2C89B69C2B068FC378DAA952BA7F163C4A11628F55A4DF523B3EF DUP4 PUSH1 0x40 MLOAD PUSH2 0xDEB SWAP2 DUP2 MSTORE PUSH1 0x20 ADD SWAP1 JUMP JUMPDEST PUSH1 0x40 MLOAD DUP1 SWAP2 SUB SWAP1 LOG3 POP POP POP JUMP JUMPDEST PUSH1 0x20 DUP2 MSTORE PUSH1 0x0 DUP3 MLOAD DUP1 PUSH1 0x20 DUP5 ADD MSTORE PUSH1 0x0 JUMPDEST DUP2 DUP2 LT ISZERO PUSH2 0xE26 JUMPI PUSH1 0x20 DUP2 DUP7 ADD DUP2 ADD MLOAD PUSH1 0x40 DUP7 DUP5 ADD ADD MSTORE ADD PUSH2 0xE09 JUMP JUMPDEST POP PUSH1 0x0 PUSH1 0x40 DUP3 DUP6 ADD ADD MSTORE PUSH1 0x40 PUSH1 0x1F NOT PUSH1 0x1F DUP4 ADD AND DUP5 ADD ADD SWAP2 POP POP SWAP3 SWAP2 POP POP JUMP JUMPDEST DUP1 CALLDATALOAD PUSH1 0x1 PUSH1 0x1 PUSH1 0xA0 SHL SUB DUP2 AND DUP2 EQ PUSH2 0xE5D JUMPI PUSH1 0x0 DUP1 REVERT JUMPDEST SWAP2 SWAP1 POP JUMP JUMPDEST PUSH1 0x0 DUP1 PUSH1 0x40 DUP4 DUP6 SUB SLT ISZERO PUSH2 0xE75 JUMPI PUSH1 0x0 DUP1 REVERT JUMPDEST PUSH2 0xE7E DUP4 PUSH2 0xE46 JUMP JUMPDEST SWAP5 PUSH1 0x20 SWAP4 SWAP1 SWAP4 ADD CALLDATALOAD SWAP4 POP POP POP JUMP JUMPDEST PUSH1 0x0 DUP1 PUSH1 0x40 DUP4 DUP6 SUB SLT ISZERO PUSH2 0xE9F JUMPI PUSH1 0x0 DUP1 REVERT JUMPDEST PUSH2 0xEA8 DUP4 PUSH2 0xE46 JUMP JUMPDEST SWAP2 POP PUSH1 0x20 DUP4 ADD CALLDATALOAD DUP1 ISZERO ISZERO DUP2 EQ PUSH2 0xEBD JUMPI PUSH1 0x0 DUP1 REVERT JUMPDEST DUP1 SWAP2 POP POP SWAP3 POP SWAP3 SWAP1 POP JUMP JUMPDEST PUSH1 0x0 DUP1 PUSH1 0x0 PUSH1 0x60 DUP5 DUP7 SUB SLT ISZERO PUSH2 0xEDD JUMPI PUSH1 0x0 DUP1 REVERT JUMPDEST PUSH2 0xEE6 DUP5 PUSH2 0xE46 JUMP JUMPDEST SWAP3 POP PUSH2 0xEF4 PUSH1 0x20 DUP6 ADD PUSH2 0xE46 JUMP JUMPDEST SWAP3 SWAP6 SWAP3 SWAP5 POP POP POP PUSH1 0x40 SWAP2 SWAP1 SWAP2 ADD CALLDATALOAD SWAP1 JUMP JUMPDEST PUSH1 0x0 PUSH1 0x20 DUP3 DUP5 SUB SLT ISZERO PUSH2 0xF17 JUMPI PUSH1 0x0 DUP1 REVERT JUMPDEST PUSH2 0x8E4 DUP3 PUSH2 0xE46 JUMP JUMPDEST PUSH1 0x0 DUP1 DUP4 PUSH1 0x1F DUP5 ADD SLT PUSH2 0xF32 JUMPI PUSH1 0x0 DUP1 REVERT JUMPDEST POP DUP2 CALLDATALOAD PUSH8 0xFFFFFFFFFFFFFFFF DUP2 GT ISZERO PUSH2 0xF4A JUMPI PUSH1 0x0 DUP1 REVERT JUMPDEST PUSH1 0x20 DUP4 ADD SWAP2 POP DUP4 PUSH1 0x20 DUP3 PUSH1 0x5 SHL DUP6 ADD ADD GT ISZERO PUSH2 0xF65 JUMPI PUSH1 0x0 DUP1 REVERT JUMPDEST SWAP3 POP SWAP3 SWAP1 POP JUMP JUMPDEST PUSH1 0x0 DUP1 PUSH1 0x0 DUP1 PUSH1 0x40 DUP6 DUP8 SUB SLT ISZERO PUSH2 0xF82 JUMPI PUSH1 0x0 DUP1 REVERT JUMPDEST DUP5 CALLDATALOAD PUSH8 0xFFFFFFFFFFFFFFFF DUP2 GT ISZERO PUSH2 0xF99 JUMPI PUSH1 0x0 DUP1 REVERT JUMPDEST PUSH2 0xFA5 DUP8 DUP3 DUP9 ADD PUSH2 0xF20 JUMP JUMPDEST SWAP1 SWAP6 POP SWAP4 POP POP PUSH1 0x20 DUP6 ADD CALLDATALOAD PUSH8 0xFFFFFFFFFFFFFFFF DUP2 GT ISZERO PUSH2 0xFC5 JUMPI PUSH1 0x0 DUP1 REVERT JUMPDEST PUSH2 0xFD1 DUP8 DUP3 DUP9 ADD PUSH2 0xF20 JUMP JUMPDEST SWAP6 SWAP9 SWAP5 SWAP8 POP SWAP6 POP POP POP POP JUMP JUMPDEST PUSH1 0x0 DUP1 PUSH1 0x40 DUP4 DUP6 SUB SLT ISZERO PUSH2 0xFF0 JUMPI PUSH1 0x0 DUP1 REVERT JUMPDEST PUSH2 0xFF9 DUP4 PUSH2 0xE46 JUMP JUMPDEST SWAP2 POP PUSH2 0x1007 PUSH1 0x20 DUP5 ADD PUSH2 0xE46 JUMP JUMPDEST SWAP1 POP SWAP3 POP SWAP3 SWAP1 POP JUMP JUMPDEST PUSH1 0x1 DUP2 DUP2 SHR SWAP1 DUP3 AND DUP1 PUSH2 0x1024 JUMPI PUSH1 0x7F DUP3 AND SWAP2 POP JUMPDEST PUSH1 0x20 DUP3 LT DUP2 SUB PUSH2 0x1044 JUMPI PUSH4 0x4E487B71 PUSH1 0xE0 SHL PUSH1 0x0 MSTORE PUSH1 0x22 PUSH1 0x4 MSTORE PUSH1 0x24 PUSH1 0x0 REVERT JUMPDEST POP SWAP2 SWAP1 POP JUMP JUMPDEST PUSH1 0x20 DUP1 DUP3 MSTORE PUSH1 0x26 SWAP1 DUP3 ADD MSTORE PUSH32 0x5472616E73666572206661696C65643A2053656E64657220697320626C61636B PUSH1 0x40 DUP3 ADD MSTORE PUSH6 0x1B1A5CDD1959 PUSH1 0xD2 SHL PUSH1 0x60 DUP3 ADD MSTORE PUSH1 0x80 ADD SWAP1 JUMP JUMPDEST PUSH1 0x20 DUP1 DUP3 MSTORE PUSH1 0x29 SWAP1 DUP3 ADD MSTORE PUSH32 0x5472616E73666572206661696C65643A20526563697069656E7420697320626C PUSH1 0x40 DUP3 ADD MSTORE PUSH9 0x1858DADB1A5CDD1959 PUSH1 0xBA SHL PUSH1 0x60 DUP3 ADD MSTORE PUSH1 0x80 ADD SWAP1 JUMP JUMPDEST PUSH1 0x20 DUP1 DUP3 MSTORE PUSH1 0x22 SWAP1 DUP3 ADD MSTORE PUSH32 0x5472616E73666572206661696C65643A20546F6B656E7320617265206C6F636B PUSH1 0x40 DUP3 ADD MSTORE PUSH2 0x1959 PUSH1 0xF2 SHL PUSH1 0x60 DUP3 ADD MSTORE PUSH1 0x80 ADD SWAP1 JUMP JUMPDEST PUSH4 0x4E487B71 PUSH1 0xE0 SHL PUSH1 0x0 MSTORE PUSH1 0x32 PUSH1 0x4 MSTORE PUSH1 0x24 PUSH1 0x0 REVERT JUMPDEST DUP1 DUP3 ADD DUP1 DUP3 GT ISZERO PUSH2 0x41C JUMPI PUSH4 0x4E487B71 PUSH1 0xE0 SHL PUSH1 0x0 MSTORE PUSH1 0x11 PUSH1 0x4 MSTORE PUSH1 0x24 PUSH1 0x0 REVERT INVALID LOG2 PUSH5 0x6970667358 0x22 SLT KECCAK256 ADD 0xE9 0xBA 0xB1 INVALID 0xF 0xF DUP6 0xBA REVERT 0xC7 0xF8 BALANCE 0xDE 0xEC 0xB1 0xB7 REVERT DIFFICULTY 0xAD CODESIZE RETURNDATASIZE 0x29 0xD1 GASLIMIT DUP3 EXTCODEHASH SWAP6 SGT PUSH11 0x8BE964736F6C634300081C STOP CALLER "
				},
				"gasEstimates": {
					"creation": {
						"codeDepositCost": "897600",
						"executionCost": "infinite",
						"totalCost": "infinite"
					},
					"external": {
						"allowance(address,address)": "infinite",
						"approve(address,uint256)": "24763",
						"balanceOf(address)": "2673",
						"batchTransfer(address[],uint256[])": "infinite",
						"blacklisted(address)": "2597",
						"decimals()": "222",
						"icoContract()": "2381",
						"isBlacklisted(address)": "2681",
						"lockedUntil(address)": "2652",
						"name()": "infinite",
						"owner()": "2409",
						"pause()": "infinite",
						"paused()": "2432",
						"renounceOwnership()": "infinite",
						"setBlacklist(address,bool)": "28366",
						"setICOContract(address)": "27897",
						"setLockup(address,uint256)": "26183",
						"symbol()": "infinite",
						"totalSupply()": "2371",
						"transfer(address,uint256)": "62249",
						"transferFrom(address,address,uint256)": "infinite",
						"transferOwnership(address)": "28446",
						"unpause()": "infinite"
					}
				},
				"methodIdentifiers": {
					"allowance(address,address)": "dd62ed3e",
					"approve(address,uint256)": "095ea7b3",
					"balanceOf(address)": "70a08231",
					"batchTransfer(address[],uint256[])": "88d695b2",
					"blacklisted(address)": "dbac26e9",
					"decimals()": "313ce567",
					"icoContract()": "c66e4095",
					"isBlacklisted(address)": "fe575a87",
					"lockedUntil(address)": "9bc289f1",
					"name()": "06fdde03",
					"owner()": "8da5cb5b",
					"pause()": "8456cb59",
					"paused()": "5c975abb",
					"renounceOwnership()": "715018a6",
					"setBlacklist(address,bool)": "153b0d1e",
					"setICOContract(address)": "2e0d2a00",
					"setLockup(address,uint256)": "3e579307",
					"symbol()": "95d89b41",
					"totalSupply()": "18160ddd",
					"transfer(address,uint256)": "a9059cbb",
					"transferFrom(address,address,uint256)": "23b872dd",
					"transferOwnership(address)": "f2fde38b",
					"unpause()": "3f4ba83a"
				}
			},
			"storageLayout": {
				"storage": [
					{
						"astId": 415,
						"contract": "RVA/Token.sol:erc20Token",
						"label": "_balances",
						"offset": 0,
						"slot": "0",
						"type": "t_mapping(t_address,t_uint256)"
					},
					{
						"astId": 421,
						"contract": "RVA/Token.sol:erc20Token",
						"label": "_allowances",
						"offset": 0,
						"slot": "1",
						"type": "t_mapping(t_address,t_mapping(t_address,t_uint256))"
					},
					{
						"astId": 423,
						"contract": "RVA/Token.sol:erc20Token",
						"label": "_totalSupply",
						"offset": 0,
						"slot": "2",
						"type": "t_uint256"
					},
					{
						"astId": 425,
						"contract": "RVA/Token.sol:erc20Token",
						"label": "_name",
						"offset": 0,
						"slot": "3",
						"type": "t_string_storage"
					},
					{
						"astId": 427,
						"contract": "RVA/Token.sol:erc20Token",
						"label": "_symbol",
						"offset": 0,
						"slot": "4",
						"type": "t_string_storage"
					},
					{
						"astId": 8,
						"contract": "RVA/Token.sol:erc20Token",
						"label": "_owner",
						"offset": 0,
						"slot": "5",
						"type": "t_address"
					},
					{
						"astId": 302,
						"contract": "RVA/Token.sol:erc20Token",
						"label": "_paused",
						"offset": 20,
						"slot": "5",
						"type": "t_bool"
					},
					{
						"astId": 1054,
						"contract": "RVA/Token.sol:erc20Token",
						"label": "icoContract",
						"offset": 0,
						"slot": "6",
						"type": "t_address"
					},
					{
						"astId": 1061,
						"contract": "RVA/Token.sol:erc20Token",
						"label": "_totalSupply",
						"offset": 0,
						"slot": "7",
						"type": "t_uint256"
					},
					{
						"astId": 1065,
						"contract": "RVA/Token.sol:erc20Token",
						"label": "lockedUntil",
						"offset": 0,
						"slot": "8",
						"type": "t_mapping(t_address,t_uint256)"
					},
					{
						"astId": 1069,
						"contract": "RVA/Token.sol:erc20Token",
						"label": "blacklisted",
						"offset": 0,
						"slot": "9",
						"type": "t_mapping(t_address,t_bool)"
					}
				],
				"types": {
					"t_address": {
						"encoding": "inplace",
						"label": "address",
						"numberOfBytes": "20"
					},
					"t_bool": {
						"encoding": "inplace",
						"label": "bool",
						"numberOfBytes": "1"
					},
					"t_mapping(t_address,t_bool)": {
						"encoding": "mapping",
						"key": "t_address",
						"label": "mapping(address => bool)",
						"numberOfBytes": "32",
						"value": "t_bool"
					},
					"t_mapping(t_address,t_mapping(t_address,t_uint256))": {
						"encoding": "mapping",
						"key": "t_address",
						"label": "mapping(address => mapping(address => uint256))",
						"numberOfBytes": "32",
						"value": "t_mapping(t_address,t_uint256)"
					},
					"t_mapping(t_address,t_uint256)": {
						"encoding": "mapping",
						"key": "t_address",
						"label": "mapping(address => uint256)",
						"numberOfBytes": "32",
						"value": "t_uint256"
					},
					"t_string_storage": {
						"encoding": "bytes",
						"label": "string",
						"numberOfBytes": "32"
					},
					"t_uint256": {
						"encoding": "inplace",
						"label": "uint256",
						"numberOfBytes": "32"
					}
				}
			},
			"userdoc": {
				"kind": "user",
				"methods": {},
				"version": 1
			}
		}
	}
}