{
	"erc3643/erc3643/Compliance/modular/Modules/CountryRestrictModule.sol": {
		"CountryRestrictModule": {
			"abi": [
				{
					"anonymous": false,
					"inputs": [
						{
							"indexed": true,
							"internalType": "address",
							"name": "_compliance",
							"type": "address"
						},
						{
							"indexed": false,
							"internalType": "uint16",
							"name": "_country",
							"type": "uint16"
						}
					],
					"name": "AddedRestrictedCountry",
					"type": "event"
				},
				{
					"anonymous": false,
					"inputs": [
						{
							"indexed": true,
							"internalType": "address",
							"name": "_compliance",
							"type": "address"
						}
					],
					"name": "ComplianceBound",
					"type": "event"
				},
				{
					"anonymous": false,
					"inputs": [
						{
							"indexed": true,
							"internalType": "address",
							"name": "_compliance",
							"type": "address"
						}
					],
					"name": "ComplianceUnbound",
					"type": "event"
				},
				{
					"anonymous": false,
					"inputs": [
						{
							"indexed": true,
							"internalType": "address",
							"name": "_compliance",
							"type": "address"
						},
						{
							"indexed": false,
							"internalType": "uint16",
							"name": "_country",
							"type": "uint16"
						}
					],
					"name": "RemovedRestrictedCountry",
					"type": "event"
				},
				{
					"inputs": [
						{
							"internalType": "uint16",
							"name": "_country",
							"type": "uint16"
						}
					],
					"name": "addCountryRestriction",
					"outputs": [],
					"stateMutability": "nonpayable",
					"type": "function"
				},
				{
					"inputs": [
						{
							"internalType": "uint16[]",
							"name": "_countries",
							"type": "uint16[]"
						}
					],
					"name": "batchRestrictCountries",
					"outputs": [],
					"stateMutability": "nonpayable",
					"type": "function"
				},
				{
					"inputs": [
						{
							"internalType": "uint16[]",
							"name": "_countries",
							"type": "uint16[]"
						}
					],
					"name": "batchUnrestrictCountries",
					"outputs": [],
					"stateMutability": "nonpayable",
					"type": "function"
				},
				{
					"inputs": [
						{
							"internalType": "address",
							"name": "_compliance",
							"type": "address"
						}
					],
					"name": "bindCompliance",
					"outputs": [],
					"stateMutability": "nonpayable",
					"type": "function"
				},
				{
					"inputs": [
						{
							"internalType": "address",
							"name": "_compliance",
							"type": "address"
						}
					],
					"name": "isComplianceBound",
					"outputs": [
						{
							"internalType": "bool",
							"name": "",
							"type": "bool"
						}
					],
					"stateMutability": "view",
					"type": "function"
				},
				{
					"inputs": [
						{
							"internalType": "address",
							"name": "_compliance",
							"type": "address"
						},
						{
							"internalType": "uint16",
							"name": "_country",
							"type": "uint16"
						}
					],
					"name": "isCountryRestricted",
					"outputs": [
						{
							"internalType": "bool",
							"name": "",
							"type": "bool"
						}
					],
					"stateMutability": "view",
					"type": "function"
				},
				{
					"inputs": [
						{
							"internalType": "address",
							"name": "_from",
							"type": "address"
						},
						{
							"internalType": "uint256",
							"name": "_value",
							"type": "uint256"
						}
					],
					"name": "moduleBurnAction",
					"outputs": [],
					"stateMutability": "nonpayable",
					"type": "function"
				},
				{
					"inputs": [
						{
							"internalType": "address",
							"name": "",
							"type": "address"
						},
						{
							"internalType": "address",
							"name": "_to",
							"type": "address"
						},
						{
							"internalType": "uint256",
							"name": "",
							"type": "uint256"
						},
						{
							"internalType": "address",
							"name": "_compliance",
							"type": "address"
						}
					],
					"name": "moduleCheck",
					"outputs": [
						{
							"internalType": "bool",
							"name": "",
							"type": "bool"
						}
					],
					"stateMutability": "view",
					"type": "function"
				},
				{
					"inputs": [
						{
							"internalType": "address",
							"name": "_to",
							"type": "address"
						},
						{
							"internalType": "uint256",
							"name": "_value",
							"type": "uint256"
						}
					],
					"name": "moduleMintAction",
					"outputs": [],
					"stateMutability": "nonpayable",
					"type": "function"
				},
				{
					"inputs": [
						{
							"internalType": "address",
							"name": "_from",
							"type": "address"
						},
						{
							"internalType": "address",
							"name": "_to",
							"type": "address"
						},
						{
							"internalType": "uint256",
							"name": "_value",
							"type": "uint256"
						}
					],
					"name": "moduleTransferAction",
					"outputs": [],
					"stateMutability": "nonpayable",
					"type": "function"
				},
				{
					"inputs": [
						{
							"internalType": "uint16",
							"name": "_country",
							"type": "uint16"
						}
					],
					"name": "removeCountryRestriction",
					"outputs": [],
					"stateMutability": "nonpayable",
					"type": "function"
				},
				{
					"inputs": [
						{
							"internalType": "address",
							"name": "_compliance",
							"type": "address"
						}
					],
					"name": "unbindCompliance",
					"outputs": [],
					"stateMutability": "nonpayable",
					"type": "function"
				}
			],
			"devdoc": {
				"kind": "dev",
				"methods": {},
				"version": 1
			},
			"evm": {
				"assembly": "    /* \"erc3643/erc3643/Compliance/modular/Modules/CountryRestrictModule.sol\":131:3307  contract CountryRestrictModule is AbstractModule {... */\n  mstore(0x40, 0x80)\n  callvalue\n  dup1\n  iszero\n  tag_1\n  jumpi\n  0x00\n  dup1\n  revert\ntag_1:\n  pop\n  dataSize(sub_0)\n  dup1\n  dataOffset(sub_0)\n  0x00\n  codecopy\n  0x00\n  return\nstop\n\nsub_0: assembly {\n        /* \"erc3643/erc3643/Compliance/modular/Modules/CountryRestrictModule.sol\":131:3307  contract CountryRestrictModule is AbstractModule {... */\n      mstore(0x40, 0x80)\n      callvalue\n      dup1\n      iszero\n      tag_1\n      jumpi\n      0x00\n      dup1\n      revert\n    tag_1:\n      pop\n      jumpi(tag_2, lt(calldatasize, 0x04))\n      shr(0xe0, calldataload(0x00))\n      dup1\n      0x372491a2\n      gt\n      tag_15\n      jumpi\n      dup1\n      0x372491a2\n      eq\n      tag_9\n      jumpi\n      dup1\n      0x4a932544\n      eq\n      tag_10\n      jumpi\n      dup1\n      0x4cf4d295\n      eq\n      tag_11\n      jumpi\n      dup1\n      0x6aae7b26\n      eq\n      tag_12\n      jumpi\n      dup1\n      0xbdf9a07e\n      eq\n      tag_13\n      jumpi\n      dup1\n      0xf104a8c9\n      eq\n      tag_14\n      jumpi\n      jump(tag_2)\n    tag_15:\n      dup1\n      0x013b7ce4\n      eq\n      tag_3\n      jumpi\n      dup1\n      0x0333ce24\n      eq\n      tag_4\n      jumpi\n      dup1\n      0x0694a5fb\n      eq\n      tag_5\n      jumpi\n      dup1\n      0x249c981d\n      eq\n      tag_6\n      jumpi\n      dup1\n      0x2cb7e1ec\n      eq\n      tag_7\n      jumpi\n      dup1\n      0x30236f4a\n      eq\n      tag_8\n      jumpi\n    tag_2:\n      0x00\n      dup1\n      revert\n        /* \"erc3643/erc3643/Compliance/modular/Modules/CountryRestrictModule.sol\":2517:2891  function moduleCheck(... */\n    tag_3:\n      tag_16\n      0x04\n      dup1\n      calldatasize\n      sub\n      dup2\n      add\n      swap1\n      tag_17\n      swap2\n      swap1\n      tag_18\n      jump\t// in\n    tag_17:\n      tag_19\n      jump\t// in\n    tag_16:\n      mload(0x40)\n      tag_20\n      swap2\n      swap1\n      tag_21\n      jump\t// in\n    tag_20:\n      mload(0x40)\n      dup1\n      swap2\n      sub\n      swap1\n      return\n        /* \"erc3643/erc3643/Compliance/modular/Modules/CountryRestrictModule.sol\":519:828  function addCountryRestriction(uint16 _country) external onlyComplianceCall {... */\n    tag_4:\n      tag_22\n      0x04\n      dup1\n      calldatasize\n      sub\n      dup2\n      add\n      swap1\n      tag_23\n      swap2\n      swap1\n      tag_24\n      jump\t// in\n    tag_23:\n      tag_25\n      jump\t// in\n    tag_22:\n      stop\n        /* \"erc3643/erc3643/Compliance/modular/Modules/AbstractModule.sol\":975:1323  function unbindCompliance(address _compliance) external onlyComplianceCall override {... */\n    tag_5:\n      tag_26\n      0x04\n      dup1\n      calldatasize\n      sub\n      dup2\n      add\n      swap1\n      tag_27\n      swap2\n      swap1\n      tag_28\n      jump\t// in\n    tag_27:\n      tag_29\n      jump\t// in\n    tag_26:\n      stop\n        /* \"erc3643/erc3643/Compliance/modular/Modules/CountryRestrictModule.sol\":1671:2182  function batchUnrestrictCountries(uint16[] calldata _countries) external onlyComplianceCall {... */\n    tag_6:\n      tag_30\n      0x04\n      dup1\n      calldatasize\n      sub\n      dup2\n      add\n      swap1\n      tag_31\n      swap2\n      swap1\n      tag_32\n      jump\t// in\n    tag_31:\n      tag_33\n      jump\t// in\n    tag_30:\n      stop\n        /* \"erc3643/erc3643/Compliance/modular/Modules/CountryRestrictModule.sol\":2190:2303  function moduleTransferAction(address _from, address _to, uint256 _value) external override onlyComplianceCall {} */\n    tag_7:\n      tag_34\n      0x04\n      dup1\n      calldatasize\n      sub\n      dup2\n      add\n      swap1\n      tag_35\n      swap2\n      swap1\n      tag_36\n      jump\t// in\n    tag_35:\n      tag_37\n      jump\t// in\n    tag_34:\n      stop\n        /* \"erc3643/erc3643/Compliance/modular/Modules/CountryRestrictModule.sol\":2899:3071  function isCountryRestricted(address _compliance, uint16 _country) public view... */\n    tag_8:\n      tag_38\n      0x04\n      dup1\n      calldatasize\n      sub\n      dup2\n      add\n      swap1\n      tag_39\n      swap2\n      swap1\n      tag_40\n      jump\t// in\n    tag_39:\n      tag_41\n      jump\t// in\n    tag_38:\n      mload(0x40)\n      tag_42\n      swap2\n      swap1\n      tag_21\n      jump\t// in\n    tag_42:\n      mload(0x40)\n      dup1\n      swap2\n      sub\n      swap1\n      return\n        /* \"erc3643/erc3643/Compliance/modular/Modules/CountryRestrictModule.sol\":2413:2509  function moduleBurnAction(address _from, uint256 _value) external override onlyComplianceCall {} */\n    tag_9:\n      tag_43\n      0x04\n      dup1\n      calldatasize\n      sub\n      dup2\n      add\n      swap1\n      tag_44\n      swap2\n      swap1\n      tag_45\n      jump\t// in\n    tag_44:\n      tag_46\n      jump\t// in\n    tag_43:\n      stop\n        /* \"erc3643/erc3643/Compliance/modular/Modules/AbstractModule.sol\":565:967  function bindCompliance(address _compliance) external override {... */\n    tag_10:\n      tag_47\n      0x04\n      dup1\n      calldatasize\n      sub\n      dup2\n      add\n      swap1\n      tag_48\n      swap2\n      swap1\n      tag_28\n      jump\t// in\n    tag_48:\n      tag_49\n      jump\t// in\n    tag_47:\n      stop\n        /* \"erc3643/erc3643/Compliance/modular/Modules/AbstractModule.sol\":1331:1472  function isComplianceBound(address _compliance) external view override returns (bool) {... */\n    tag_11:\n      tag_50\n      0x04\n      dup1\n      calldatasize\n      sub\n      dup2\n      add\n      swap1\n      tag_51\n      swap2\n      swap1\n      tag_28\n      jump\t// in\n    tag_51:\n      tag_52\n      jump\t// in\n    tag_50:\n      mload(0x40)\n      tag_53\n      swap2\n      swap1\n      tag_21\n      jump\t// in\n    tag_53:\n      mload(0x40)\n      dup1\n      swap2\n      sub\n      swap1\n      return\n        /* \"erc3643/erc3643/Compliance/modular/Modules/CountryRestrictModule.sol\":836:1146  function removeCountryRestriction(uint16 _country) external onlyComplianceCall {... */\n    tag_12:\n      tag_54\n      0x04\n      dup1\n      calldatasize\n      sub\n      dup2\n      add\n      swap1\n      tag_55\n      swap2\n      swap1\n      tag_24\n      jump\t// in\n    tag_55:\n      tag_56\n      jump\t// in\n    tag_54:\n      stop\n        /* \"erc3643/erc3643/Compliance/modular/Modules/CountryRestrictModule.sol\":1154:1663  function batchRestrictCountries(uint16[] calldata _countries) external onlyComplianceCall {... */\n    tag_13:\n      tag_57\n      0x04\n      dup1\n      calldatasize\n      sub\n      dup2\n      add\n      swap1\n      tag_58\n      swap2\n      swap1\n      tag_32\n      jump\t// in\n    tag_58:\n      tag_59\n      jump\t// in\n    tag_57:\n      stop\n        /* \"erc3643/erc3643/Compliance/modular/Modules/CountryRestrictModule.sol\":2311:2405  function moduleMintAction(address _to, uint256 _value) external override onlyComplianceCall {} */\n    tag_14:\n      tag_60\n      0x04\n      dup1\n      calldatasize\n      sub\n      dup2\n      add\n      swap1\n      tag_61\n      swap2\n      swap1\n      tag_45\n      jump\t// in\n    tag_61:\n      tag_62\n      jump\t// in\n    tag_60:\n      stop\n        /* \"erc3643/erc3643/Compliance/modular/Modules/CountryRestrictModule.sol\":2517:2891  function moduleCheck(... */\n    tag_19:\n        /* \"erc3643/erc3643/Compliance/modular/Modules/CountryRestrictModule.sol\":2686:2690  bool */\n      0x00\n        /* \"erc3643/erc3643/Compliance/modular/Modules/CountryRestrictModule.sol\":2703:2725  uint16 receiverCountry */\n      dup1\n        /* \"erc3643/erc3643/Compliance/modular/Modules/CountryRestrictModule.sol\":2728:2757  _getCountry(_compliance, _to) */\n      tag_64\n        /* \"erc3643/erc3643/Compliance/modular/Modules/CountryRestrictModule.sol\":2740:2751  _compliance */\n      dup4\n        /* \"erc3643/erc3643/Compliance/modular/Modules/CountryRestrictModule.sol\":2753:2756  _to */\n      dup7\n        /* \"erc3643/erc3643/Compliance/modular/Modules/CountryRestrictModule.sol\":2728:2739  _getCountry */\n      tag_65\n        /* \"erc3643/erc3643/Compliance/modular/Modules/CountryRestrictModule.sol\":2728:2757  _getCountry(_compliance, _to) */\n      jump\t// in\n    tag_64:\n        /* \"erc3643/erc3643/Compliance/modular/Modules/CountryRestrictModule.sol\":2703:2757  uint16 receiverCountry = _getCountry(_compliance, _to) */\n      swap1\n      pop\n        /* \"erc3643/erc3643/Compliance/modular/Modules/CountryRestrictModule.sol\":2772:2821  isCountryRestricted(_compliance, receiverCountry) */\n      tag_66\n        /* \"erc3643/erc3643/Compliance/modular/Modules/CountryRestrictModule.sol\":2792:2803  _compliance */\n      dup4\n        /* \"erc3643/erc3643/Compliance/modular/Modules/CountryRestrictModule.sol\":2805:2820  receiverCountry */\n      dup3\n        /* \"erc3643/erc3643/Compliance/modular/Modules/CountryRestrictModule.sol\":2772:2791  isCountryRestricted */\n      tag_41\n        /* \"erc3643/erc3643/Compliance/modular/Modules/CountryRestrictModule.sol\":2772:2821  isCountryRestricted(_compliance, receiverCountry) */\n      jump\t// in\n    tag_66:\n        /* \"erc3643/erc3643/Compliance/modular/Modules/CountryRestrictModule.sol\":2768:2862  if (isCountryRestricted(_compliance, receiverCountry)) {... */\n      iszero\n      tag_67\n      jumpi\n        /* \"erc3643/erc3643/Compliance/modular/Modules/CountryRestrictModule.sol\":2845:2850  false */\n      0x00\n        /* \"erc3643/erc3643/Compliance/modular/Modules/CountryRestrictModule.sol\":2838:2850  return false */\n      swap2\n      pop\n      pop\n      jump(tag_63)\n        /* \"erc3643/erc3643/Compliance/modular/Modules/CountryRestrictModule.sol\":2768:2862  if (isCountryRestricted(_compliance, receiverCountry)) {... */\n    tag_67:\n        /* \"erc3643/erc3643/Compliance/modular/Modules/CountryRestrictModule.sol\":2879:2883  true */\n      0x01\n        /* \"erc3643/erc3643/Compliance/modular/Modules/CountryRestrictModule.sol\":2872:2883  return true */\n      swap2\n      pop\n      pop\n        /* \"erc3643/erc3643/Compliance/modular/Modules/CountryRestrictModule.sol\":2517:2891  function moduleCheck(... */\n    tag_63:\n      swap5\n      swap4\n      pop\n      pop\n      pop\n      pop\n      jump\t// out\n        /* \"erc3643/erc3643/Compliance/modular/Modules/CountryRestrictModule.sol\":519:828  function addCountryRestriction(uint16 _country) external onlyComplianceCall {... */\n    tag_25:\n        /* \"erc3643/erc3643/Compliance/modular/Modules/AbstractModule.sol\":474:490  _complianceBound */\n      0x00\n        /* \"erc3643/erc3643/Compliance/modular/Modules/AbstractModule.sol\":474:502  _complianceBound[msg.sender] */\n      dup1\n        /* \"erc3643/erc3643/Compliance/modular/Modules/AbstractModule.sol\":491:501  msg.sender */\n      caller\n        /* \"erc3643/erc3643/Compliance/modular/Modules/AbstractModule.sol\":474:502  _complianceBound[msg.sender] */\n      0xffffffffffffffffffffffffffffffffffffffff\n      and\n      0xffffffffffffffffffffffffffffffffffffffff\n      and\n      dup2\n      mstore\n      0x20\n      add\n      swap1\n      dup2\n      mstore\n      0x20\n      add\n      0x00\n      keccak256\n      0x00\n      swap1\n      sload\n      swap1\n      0x0100\n      exp\n      swap1\n      div\n      0xff\n      and\n        /* \"erc3643/erc3643/Compliance/modular/Modules/AbstractModule.sol\":466:537  require(_complianceBound[msg.sender], \"only bound compliance can call\") */\n      tag_69\n      jumpi\n      mload(0x40)\n      0x08c379a000000000000000000000000000000000000000000000000000000000\n      dup2\n      mstore\n      0x04\n      add\n      tag_70\n      swap1\n      tag_71\n      jump\t// in\n    tag_70:\n      mload(0x40)\n      dup1\n      swap2\n      sub\n      swap1\n      revert\n    tag_69:\n        /* \"erc3643/erc3643/Compliance/modular/Modules/CountryRestrictModule.sol\":662:667  false */\n      0x00\n        /* \"erc3643/erc3643/Compliance/modular/Modules/CountryRestrictModule.sol\":614:667  (_restrictedCountries[msg.sender])[_country] == false */\n      iszero\n      iszero\n        /* \"erc3643/erc3643/Compliance/modular/Modules/CountryRestrictModule.sol\":615:635  _restrictedCountries */\n      0x01\n        /* \"erc3643/erc3643/Compliance/modular/Modules/CountryRestrictModule.sol\":615:647  _restrictedCountries[msg.sender] */\n      0x00\n        /* \"erc3643/erc3643/Compliance/modular/Modules/CountryRestrictModule.sol\":636:646  msg.sender */\n      caller\n        /* \"erc3643/erc3643/Compliance/modular/Modules/CountryRestrictModule.sol\":615:647  _restrictedCountries[msg.sender] */\n      0xffffffffffffffffffffffffffffffffffffffff\n      and\n      0xffffffffffffffffffffffffffffffffffffffff\n      and\n      dup2\n      mstore\n      0x20\n      add\n      swap1\n      dup2\n      mstore\n      0x20\n      add\n      0x00\n      keccak256\n        /* \"erc3643/erc3643/Compliance/modular/Modules/CountryRestrictModule.sol\":614:658  (_restrictedCountries[msg.sender])[_country] */\n      0x00\n        /* \"erc3643/erc3643/Compliance/modular/Modules/CountryRestrictModule.sol\":649:657  _country */\n      dup4\n        /* \"erc3643/erc3643/Compliance/modular/Modules/CountryRestrictModule.sol\":614:658  (_restrictedCountries[msg.sender])[_country] */\n      0xffff\n      and\n      0xffff\n      and\n      dup2\n      mstore\n      0x20\n      add\n      swap1\n      dup2\n      mstore\n      0x20\n      add\n      0x00\n      keccak256\n      0x00\n      swap1\n      sload\n      swap1\n      0x0100\n      exp\n      swap1\n      div\n      0xff\n      and\n        /* \"erc3643/erc3643/Compliance/modular/Modules/CountryRestrictModule.sol\":614:667  (_restrictedCountries[msg.sender])[_country] == false */\n      iszero\n      iszero\n      eq\n        /* \"erc3643/erc3643/Compliance/modular/Modules/CountryRestrictModule.sol\":606:698  require((_restrictedCountries[msg.sender])[_country] == false, \"country already restricted\") */\n      tag_73\n      jumpi\n      mload(0x40)\n      0x08c379a000000000000000000000000000000000000000000000000000000000\n      dup2\n      mstore\n      0x04\n      add\n      tag_74\n      swap1\n      tag_75\n      jump\t// in\n    tag_74:\n      mload(0x40)\n      dup1\n      swap2\n      sub\n      swap1\n      revert\n    tag_73:\n        /* \"erc3643/erc3643/Compliance/modular/Modules/CountryRestrictModule.sol\":756:760  true */\n      0x01\n        /* \"erc3643/erc3643/Compliance/modular/Modules/CountryRestrictModule.sol\":710:730  _restrictedCountries */\n      dup1\n        /* \"erc3643/erc3643/Compliance/modular/Modules/CountryRestrictModule.sol\":710:742  _restrictedCountries[msg.sender] */\n      0x00\n        /* \"erc3643/erc3643/Compliance/modular/Modules/CountryRestrictModule.sol\":731:741  msg.sender */\n      caller\n        /* \"erc3643/erc3643/Compliance/modular/Modules/CountryRestrictModule.sol\":710:742  _restrictedCountries[msg.sender] */\n      0xffffffffffffffffffffffffffffffffffffffff\n      and\n      0xffffffffffffffffffffffffffffffffffffffff\n      and\n      dup2\n      mstore\n      0x20\n      add\n      swap1\n      dup2\n      mstore\n      0x20\n      add\n      0x00\n      keccak256\n        /* \"erc3643/erc3643/Compliance/modular/Modules/CountryRestrictModule.sol\":709:753  (_restrictedCountries[msg.sender])[_country] */\n      0x00\n        /* \"erc3643/erc3643/Compliance/modular/Modules/CountryRestrictModule.sol\":744:752  _country */\n      dup4\n        /* \"erc3643/erc3643/Compliance/modular/Modules/CountryRestrictModule.sol\":709:753  (_restrictedCountries[msg.sender])[_country] */\n      0xffff\n      and\n      0xffff\n      and\n      dup2\n      mstore\n      0x20\n      add\n      swap1\n      dup2\n      mstore\n      0x20\n      add\n      0x00\n      keccak256\n      0x00\n        /* \"erc3643/erc3643/Compliance/modular/Modules/CountryRestrictModule.sol\":709:760  (_restrictedCountries[msg.sender])[_country] = true */\n      0x0100\n      exp\n      dup2\n      sload\n      dup2\n      0xff\n      mul\n      not\n      and\n      swap1\n      dup4\n      iszero\n      iszero\n      mul\n      or\n      swap1\n      sstore\n      pop\n        /* \"erc3643/erc3643/Compliance/modular/Modules/CountryRestrictModule.sol\":799:809  msg.sender */\n      caller\n        /* \"erc3643/erc3643/Compliance/modular/Modules/CountryRestrictModule.sol\":776:820  AddedRestrictedCountry(msg.sender, _country) */\n      0xffffffffffffffffffffffffffffffffffffffff\n      and\n      0x5e0addf626d7d7091ab7aebf34682c3203384648734760b24921e31ddcec0bb5\n        /* \"erc3643/erc3643/Compliance/modular/Modules/CountryRestrictModule.sol\":811:819  _country */\n      dup3\n        /* \"erc3643/erc3643/Compliance/modular/Modules/CountryRestrictModule.sol\":776:820  AddedRestrictedCountry(msg.sender, _country) */\n      mload(0x40)\n      tag_76\n      swap2\n      swap1\n      tag_77\n      jump\t// in\n    tag_76:\n      mload(0x40)\n      dup1\n      swap2\n      sub\n      swap1\n      log2\n        /* \"erc3643/erc3643/Compliance/modular/Modules/CountryRestrictModule.sol\":519:828  function addCountryRestriction(uint16 _country) external onlyComplianceCall {... */\n      pop\n      jump\t// out\n        /* \"erc3643/erc3643/Compliance/modular/Modules/AbstractModule.sol\":975:1323  function unbindCompliance(address _compliance) external onlyComplianceCall override {... */\n    tag_29:\n        /* \"erc3643/erc3643/Compliance/modular/Modules/AbstractModule.sol\":474:490  _complianceBound */\n      0x00\n        /* \"erc3643/erc3643/Compliance/modular/Modules/AbstractModule.sol\":474:502  _complianceBound[msg.sender] */\n      dup1\n        /* \"erc3643/erc3643/Compliance/modular/Modules/AbstractModule.sol\":491:501  msg.sender */\n      caller\n        /* \"erc3643/erc3643/Compliance/modular/Modules/AbstractModule.sol\":474:502  _complianceBound[msg.sender] */\n      0xffffffffffffffffffffffffffffffffffffffff\n      and\n      0xffffffffffffffffffffffffffffffffffffffff\n      and\n      dup2\n      mstore\n      0x20\n      add\n      swap1\n      dup2\n      mstore\n      0x20\n      add\n      0x00\n      keccak256\n      0x00\n      swap1\n      sload\n      swap1\n      0x0100\n      exp\n      swap1\n      div\n      0xff\n      and\n        /* \"erc3643/erc3643/Compliance/modular/Modules/AbstractModule.sol\":466:537  require(_complianceBound[msg.sender], \"only bound compliance can call\") */\n      tag_79\n      jumpi\n      mload(0x40)\n      0x08c379a000000000000000000000000000000000000000000000000000000000\n      dup2\n      mstore\n      0x04\n      add\n      tag_80\n      swap1\n      tag_71\n      jump\t// in\n    tag_80:\n      mload(0x40)\n      dup1\n      swap2\n      sub\n      swap1\n      revert\n    tag_79:\n        /* \"erc3643/erc3643/Compliance/modular/Modules/AbstractModule.sol\":1101:1102  0 */\n      0x00\n        /* \"erc3643/erc3643/Compliance/modular/Modules/AbstractModule.sol\":1078:1103  _compliance != address(0) */\n      0xffffffffffffffffffffffffffffffffffffffff\n      and\n        /* \"erc3643/erc3643/Compliance/modular/Modules/AbstractModule.sol\":1078:1089  _compliance */\n      dup2\n        /* \"erc3643/erc3643/Compliance/modular/Modules/AbstractModule.sol\":1078:1103  _compliance != address(0) */\n      0xffffffffffffffffffffffffffffffffffffffff\n      and\n      sub\n        /* \"erc3643/erc3643/Compliance/modular/Modules/AbstractModule.sol\":1070:1139  require(_compliance != address(0), \"invalid argument - zero address\") */\n      tag_82\n      jumpi\n      mload(0x40)\n      0x08c379a000000000000000000000000000000000000000000000000000000000\n      dup2\n      mstore\n      0x04\n      add\n      tag_83\n      swap1\n      tag_84\n      jump\t// in\n    tag_83:\n      mload(0x40)\n      dup1\n      swap2\n      sub\n      swap1\n      revert\n    tag_82:\n        /* \"erc3643/erc3643/Compliance/modular/Modules/AbstractModule.sol\":1172:1183  _compliance */\n      dup1\n        /* \"erc3643/erc3643/Compliance/modular/Modules/AbstractModule.sol\":1158:1183  msg.sender == _compliance */\n      0xffffffffffffffffffffffffffffffffffffffff\n      and\n        /* \"erc3643/erc3643/Compliance/modular/Modules/AbstractModule.sol\":1158:1168  msg.sender */\n      caller\n        /* \"erc3643/erc3643/Compliance/modular/Modules/AbstractModule.sol\":1158:1183  msg.sender == _compliance */\n      0xffffffffffffffffffffffffffffffffffffffff\n      and\n      eq\n        /* \"erc3643/erc3643/Compliance/modular/Modules/AbstractModule.sol\":1150:1221  require(msg.sender == _compliance, \"only compliance contract can call\") */\n      tag_85\n      jumpi\n      mload(0x40)\n      0x08c379a000000000000000000000000000000000000000000000000000000000\n      dup2\n      mstore\n      0x04\n      add\n      tag_86\n      swap1\n      tag_87\n      jump\t// in\n    tag_86:\n      mload(0x40)\n      dup1\n      swap2\n      sub\n      swap1\n      revert\n    tag_85:\n        /* \"erc3643/erc3643/Compliance/modular/Modules/AbstractModule.sol\":1264:1269  false */\n      0x00\n        /* \"erc3643/erc3643/Compliance/modular/Modules/AbstractModule.sol\":1232:1248  _complianceBound */\n      dup1\n        /* \"erc3643/erc3643/Compliance/modular/Modules/AbstractModule.sol\":1232:1261  _complianceBound[_compliance] */\n      0x00\n        /* \"erc3643/erc3643/Compliance/modular/Modules/AbstractModule.sol\":1249:1260  _compliance */\n      dup4\n        /* \"erc3643/erc3643/Compliance/modular/Modules/AbstractModule.sol\":1232:1261  _complianceBound[_compliance] */\n      0xffffffffffffffffffffffffffffffffffffffff\n      and\n      0xffffffffffffffffffffffffffffffffffffffff\n      and\n      dup2\n      mstore\n      0x20\n      add\n      swap1\n      dup2\n      mstore\n      0x20\n      add\n      0x00\n      keccak256\n      0x00\n        /* \"erc3643/erc3643/Compliance/modular/Modules/AbstractModule.sol\":1232:1269  _complianceBound[_compliance] = false */\n      0x0100\n      exp\n      dup2\n      sload\n      dup2\n      0xff\n      mul\n      not\n      and\n      swap1\n      dup4\n      iszero\n      iszero\n      mul\n      or\n      swap1\n      sstore\n      pop\n        /* \"erc3643/erc3643/Compliance/modular/Modules/AbstractModule.sol\":1303:1314  _compliance */\n      dup1\n        /* \"erc3643/erc3643/Compliance/modular/Modules/AbstractModule.sol\":1285:1315  ComplianceUnbound(_compliance) */\n      0xffffffffffffffffffffffffffffffffffffffff\n      and\n      0x408b49d9be1c914c52a0227e18a077e5a892dddf32a26cfa94a5d9708fad7718\n      mload(0x40)\n      mload(0x40)\n      dup1\n      swap2\n      sub\n      swap1\n      log2\n        /* \"erc3643/erc3643/Compliance/modular/Modules/AbstractModule.sol\":975:1323  function unbindCompliance(address _compliance) external onlyComplianceCall override {... */\n      pop\n      jump\t// out\n        /* \"erc3643/erc3643/Compliance/modular/Modules/CountryRestrictModule.sol\":1671:2182  function batchUnrestrictCountries(uint16[] calldata _countries) external onlyComplianceCall {... */\n    tag_33:\n        /* \"erc3643/erc3643/Compliance/modular/Modules/AbstractModule.sol\":474:490  _complianceBound */\n      0x00\n        /* \"erc3643/erc3643/Compliance/modular/Modules/AbstractModule.sol\":474:502  _complianceBound[msg.sender] */\n      dup1\n        /* \"erc3643/erc3643/Compliance/modular/Modules/AbstractModule.sol\":491:501  msg.sender */\n      caller\n        /* \"erc3643/erc3643/Compliance/modular/Modules/AbstractModule.sol\":474:502  _complianceBound[msg.sender] */\n      0xffffffffffffffffffffffffffffffffffffffff\n      and\n      0xffffffffffffffffffffffffffffffffffffffff\n      and\n      dup2\n      mstore\n      0x20\n      add\n      swap1\n      dup2\n      mstore\n      0x20\n      add\n      0x00\n      keccak256\n      0x00\n      swap1\n      sload\n      swap1\n      0x0100\n      exp\n      swap1\n      div\n      0xff\n      and\n        /* \"erc3643/erc3643/Compliance/modular/Modules/AbstractModule.sol\":466:537  require(_complianceBound[msg.sender], \"only bound compliance can call\") */\n      tag_89\n      jumpi\n      mload(0x40)\n      0x08c379a000000000000000000000000000000000000000000000000000000000\n      dup2\n      mstore\n      0x04\n      add\n      tag_90\n      swap1\n      tag_71\n      jump\t// in\n    tag_90:\n      mload(0x40)\n      dup1\n      swap2\n      sub\n      swap1\n      revert\n    tag_89:\n        /* \"erc3643/erc3643/Compliance/modular/Modules/CountryRestrictModule.sol\":1802:1805  195 */\n      0xc3\n        /* \"erc3643/erc3643/Compliance/modular/Modules/CountryRestrictModule.sol\":1782:1792  _countries */\n      dup3\n      dup3\n        /* \"erc3643/erc3643/Compliance/modular/Modules/CountryRestrictModule.sol\":1782:1799  _countries.length */\n      swap1\n      pop\n        /* \"erc3643/erc3643/Compliance/modular/Modules/CountryRestrictModule.sol\":1782:1805  _countries.length < 195 */\n      lt\n        /* \"erc3643/erc3643/Compliance/modular/Modules/CountryRestrictModule.sol\":1774:1854  require(_countries.length < 195, \"maximum 195 can be unrestricted in one batch\") */\n      tag_92\n      jumpi\n      mload(0x40)\n      0x08c379a000000000000000000000000000000000000000000000000000000000\n      dup2\n      mstore\n      0x04\n      add\n      tag_93\n      swap1\n      tag_94\n      jump\t// in\n    tag_93:\n      mload(0x40)\n      dup1\n      swap2\n      sub\n      swap1\n      revert\n    tag_92:\n        /* \"erc3643/erc3643/Compliance/modular/Modules/CountryRestrictModule.sol\":1870:1879  uint256 i */\n      0x00\n        /* \"erc3643/erc3643/Compliance/modular/Modules/CountryRestrictModule.sol\":1865:2175  for (uint256 i = 0; i < _countries.length; i++) {... */\n    tag_95:\n        /* \"erc3643/erc3643/Compliance/modular/Modules/CountryRestrictModule.sol\":1889:1899  _countries */\n      dup3\n      dup3\n        /* \"erc3643/erc3643/Compliance/modular/Modules/CountryRestrictModule.sol\":1889:1906  _countries.length */\n      swap1\n      pop\n        /* \"erc3643/erc3643/Compliance/modular/Modules/CountryRestrictModule.sol\":1885:1886  i */\n      dup2\n        /* \"erc3643/erc3643/Compliance/modular/Modules/CountryRestrictModule.sol\":1885:1906  i < _countries.length */\n      lt\n        /* \"erc3643/erc3643/Compliance/modular/Modules/CountryRestrictModule.sol\":1865:2175  for (uint256 i = 0; i < _countries.length; i++) {... */\n      iszero\n      tag_96\n      jumpi\n        /* \"erc3643/erc3643/Compliance/modular/Modules/CountryRestrictModule.sol\":1989:1993  true */\n      0x01\n        /* \"erc3643/erc3643/Compliance/modular/Modules/CountryRestrictModule.sol\":1936:1993  (_restrictedCountries[msg.sender])[_countries[i]] == true */\n      iszero\n      iszero\n        /* \"erc3643/erc3643/Compliance/modular/Modules/CountryRestrictModule.sol\":1937:1957  _restrictedCountries */\n      0x01\n        /* \"erc3643/erc3643/Compliance/modular/Modules/CountryRestrictModule.sol\":1937:1969  _restrictedCountries[msg.sender] */\n      0x00\n        /* \"erc3643/erc3643/Compliance/modular/Modules/CountryRestrictModule.sol\":1958:1968  msg.sender */\n      caller\n        /* \"erc3643/erc3643/Compliance/modular/Modules/CountryRestrictModule.sol\":1937:1969  _restrictedCountries[msg.sender] */\n      0xffffffffffffffffffffffffffffffffffffffff\n      and\n      0xffffffffffffffffffffffffffffffffffffffff\n      and\n      dup2\n      mstore\n      0x20\n      add\n      swap1\n      dup2\n      mstore\n      0x20\n      add\n      0x00\n      keccak256\n        /* \"erc3643/erc3643/Compliance/modular/Modules/CountryRestrictModule.sol\":1936:1985  (_restrictedCountries[msg.sender])[_countries[i]] */\n      0x00\n        /* \"erc3643/erc3643/Compliance/modular/Modules/CountryRestrictModule.sol\":1971:1981  _countries */\n      dup6\n      dup6\n        /* \"erc3643/erc3643/Compliance/modular/Modules/CountryRestrictModule.sol\":1982:1983  i */\n      dup6\n        /* \"erc3643/erc3643/Compliance/modular/Modules/CountryRestrictModule.sol\":1971:1984  _countries[i] */\n      dup2\n      dup2\n      lt\n      tag_98\n      jumpi\n      tag_99\n      tag_100\n      jump\t// in\n    tag_99:\n    tag_98:\n      swap1\n      pop\n      0x20\n      mul\n      add\n      0x20\n      dup2\n      add\n      swap1\n      tag_101\n      swap2\n      swap1\n      tag_24\n      jump\t// in\n    tag_101:\n        /* \"erc3643/erc3643/Compliance/modular/Modules/CountryRestrictModule.sol\":1936:1985  (_restrictedCountries[msg.sender])[_countries[i]] */\n      0xffff\n      and\n      0xffff\n      and\n      dup2\n      mstore\n      0x20\n      add\n      swap1\n      dup2\n      mstore\n      0x20\n      add\n      0x00\n      keccak256\n      0x00\n      swap1\n      sload\n      swap1\n      0x0100\n      exp\n      swap1\n      div\n      0xff\n      and\n        /* \"erc3643/erc3643/Compliance/modular/Modules/CountryRestrictModule.sol\":1936:1993  (_restrictedCountries[msg.sender])[_countries[i]] == true */\n      iszero\n      iszero\n      eq\n        /* \"erc3643/erc3643/Compliance/modular/Modules/CountryRestrictModule.sol\":1928:2020  require((_restrictedCountries[msg.sender])[_countries[i]] == true, \"country not restricted\") */\n      tag_102\n      jumpi\n      mload(0x40)\n      0x08c379a000000000000000000000000000000000000000000000000000000000\n      dup2\n      mstore\n      0x04\n      add\n      tag_103\n      swap1\n      tag_104\n      jump\t// in\n    tag_103:\n      mload(0x40)\n      dup1\n      swap2\n      sub\n      swap1\n      revert\n    tag_102:\n        /* \"erc3643/erc3643/Compliance/modular/Modules/CountryRestrictModule.sol\":2087:2092  false */\n      0x00\n        /* \"erc3643/erc3643/Compliance/modular/Modules/CountryRestrictModule.sol\":2036:2056  _restrictedCountries */\n      0x01\n        /* \"erc3643/erc3643/Compliance/modular/Modules/CountryRestrictModule.sol\":2036:2068  _restrictedCountries[msg.sender] */\n      0x00\n        /* \"erc3643/erc3643/Compliance/modular/Modules/CountryRestrictModule.sol\":2057:2067  msg.sender */\n      caller\n        /* \"erc3643/erc3643/Compliance/modular/Modules/CountryRestrictModule.sol\":2036:2068  _restrictedCountries[msg.sender] */\n      0xffffffffffffffffffffffffffffffffffffffff\n      and\n      0xffffffffffffffffffffffffffffffffffffffff\n      and\n      dup2\n      mstore\n      0x20\n      add\n      swap1\n      dup2\n      mstore\n      0x20\n      add\n      0x00\n      keccak256\n        /* \"erc3643/erc3643/Compliance/modular/Modules/CountryRestrictModule.sol\":2035:2084  (_restrictedCountries[msg.sender])[_countries[i]] */\n      0x00\n        /* \"erc3643/erc3643/Compliance/modular/Modules/CountryRestrictModule.sol\":2070:2080  _countries */\n      dup6\n      dup6\n        /* \"erc3643/erc3643/Compliance/modular/Modules/CountryRestrictModule.sol\":2081:2082  i */\n      dup6\n        /* \"erc3643/erc3643/Compliance/modular/Modules/CountryRestrictModule.sol\":2070:2083  _countries[i] */\n      dup2\n      dup2\n      lt\n      tag_105\n      jumpi\n      tag_106\n      tag_100\n      jump\t// in\n    tag_106:\n    tag_105:\n      swap1\n      pop\n      0x20\n      mul\n      add\n      0x20\n      dup2\n      add\n      swap1\n      tag_107\n      swap2\n      swap1\n      tag_24\n      jump\t// in\n    tag_107:\n        /* \"erc3643/erc3643/Compliance/modular/Modules/CountryRestrictModule.sol\":2035:2084  (_restrictedCountries[msg.sender])[_countries[i]] */\n      0xffff\n      and\n      0xffff\n      and\n      dup2\n      mstore\n      0x20\n      add\n      swap1\n      dup2\n      mstore\n      0x20\n      add\n      0x00\n      keccak256\n      0x00\n        /* \"erc3643/erc3643/Compliance/modular/Modules/CountryRestrictModule.sol\":2035:2092  (_restrictedCountries[msg.sender])[_countries[i]] = false */\n      0x0100\n      exp\n      dup2\n      sload\n      dup2\n      0xff\n      mul\n      not\n      and\n      swap1\n      dup4\n      iszero\n      iszero\n      mul\n      or\n      swap1\n      sstore\n      pop\n        /* \"erc3643/erc3643/Compliance/modular/Modules/CountryRestrictModule.sol\":2137:2147  msg.sender */\n      caller\n        /* \"erc3643/erc3643/Compliance/modular/Modules/CountryRestrictModule.sol\":2112:2163  RemovedRestrictedCountry(msg.sender, _countries[i]) */\n      0xffffffffffffffffffffffffffffffffffffffff\n      and\n      0xfb8bb575200aa114265a31c7d8ebeb4e395bd3cd9d0914c4bfa2a511d2011a7a\n        /* \"erc3643/erc3643/Compliance/modular/Modules/CountryRestrictModule.sol\":2149:2159  _countries */\n      dup5\n      dup5\n        /* \"erc3643/erc3643/Compliance/modular/Modules/CountryRestrictModule.sol\":2160:2161  i */\n      dup5\n        /* \"erc3643/erc3643/Compliance/modular/Modules/CountryRestrictModule.sol\":2149:2162  _countries[i] */\n      dup2\n      dup2\n      lt\n      tag_108\n      jumpi\n      tag_109\n      tag_100\n      jump\t// in\n    tag_109:\n    tag_108:\n      swap1\n      pop\n      0x20\n      mul\n      add\n      0x20\n      dup2\n      add\n      swap1\n      tag_110\n      swap2\n      swap1\n      tag_24\n      jump\t// in\n    tag_110:\n        /* \"erc3643/erc3643/Compliance/modular/Modules/CountryRestrictModule.sol\":2112:2163  RemovedRestrictedCountry(msg.sender, _countries[i]) */\n      mload(0x40)\n      tag_111\n      swap2\n      swap1\n      tag_77\n      jump\t// in\n    tag_111:\n      mload(0x40)\n      dup1\n      swap2\n      sub\n      swap1\n      log2\n        /* \"erc3643/erc3643/Compliance/modular/Modules/CountryRestrictModule.sol\":1908:1911  i++ */\n      dup1\n      dup1\n      tag_112\n      swap1\n      tag_113\n      jump\t// in\n    tag_112:\n      swap2\n      pop\n      pop\n        /* \"erc3643/erc3643/Compliance/modular/Modules/CountryRestrictModule.sol\":1865:2175  for (uint256 i = 0; i < _countries.length; i++) {... */\n      jump(tag_95)\n    tag_96:\n      pop\n        /* \"erc3643/erc3643/Compliance/modular/Modules/CountryRestrictModule.sol\":1671:2182  function batchUnrestrictCountries(uint16[] calldata _countries) external onlyComplianceCall {... */\n      pop\n      pop\n      jump\t// out\n        /* \"erc3643/erc3643/Compliance/modular/Modules/CountryRestrictModule.sol\":2190:2303  function moduleTransferAction(address _from, address _to, uint256 _value) external override onlyComplianceCall {} */\n    tag_37:\n        /* \"erc3643/erc3643/Compliance/modular/Modules/AbstractModule.sol\":474:490  _complianceBound */\n      0x00\n        /* \"erc3643/erc3643/Compliance/modular/Modules/AbstractModule.sol\":474:502  _complianceBound[msg.sender] */\n      dup1\n        /* \"erc3643/erc3643/Compliance/modular/Modules/AbstractModule.sol\":491:501  msg.sender */\n      caller\n        /* \"erc3643/erc3643/Compliance/modular/Modules/AbstractModule.sol\":474:502  _complianceBound[msg.sender] */\n      0xffffffffffffffffffffffffffffffffffffffff\n      and\n      0xffffffffffffffffffffffffffffffffffffffff\n      and\n      dup2\n      mstore\n      0x20\n      add\n      swap1\n      dup2\n      mstore\n      0x20\n      add\n      0x00\n      keccak256\n      0x00\n      swap1\n      sload\n      swap1\n      0x0100\n      exp\n      swap1\n      div\n      0xff\n      and\n        /* \"erc3643/erc3643/Compliance/modular/Modules/AbstractModule.sol\":466:537  require(_complianceBound[msg.sender], \"only bound compliance can call\") */\n      tag_115\n      jumpi\n      mload(0x40)\n      0x08c379a000000000000000000000000000000000000000000000000000000000\n      dup2\n      mstore\n      0x04\n      add\n      tag_116\n      swap1\n      tag_71\n      jump\t// in\n    tag_116:\n      mload(0x40)\n      dup1\n      swap2\n      sub\n      swap1\n      revert\n    tag_115:\n        /* \"erc3643/erc3643/Compliance/modular/Modules/CountryRestrictModule.sol\":2190:2303  function moduleTransferAction(address _from, address _to, uint256 _value) external override onlyComplianceCall {} */\n      pop\n      pop\n      pop\n      jump\t// out\n        /* \"erc3643/erc3643/Compliance/modular/Modules/CountryRestrictModule.sol\":2899:3071  function isCountryRestricted(address _compliance, uint16 _country) public view... */\n    tag_41:\n        /* \"erc3643/erc3643/Compliance/modular/Modules/CountryRestrictModule.sol\":2992:2996  bool */\n      0x00\n        /* \"erc3643/erc3643/Compliance/modular/Modules/CountryRestrictModule.sol\":3018:3038  _restrictedCountries */\n      0x01\n        /* \"erc3643/erc3643/Compliance/modular/Modules/CountryRestrictModule.sol\":3018:3051  _restrictedCountries[_compliance] */\n      0x00\n        /* \"erc3643/erc3643/Compliance/modular/Modules/CountryRestrictModule.sol\":3039:3050  _compliance */\n      dup5\n        /* \"erc3643/erc3643/Compliance/modular/Modules/CountryRestrictModule.sol\":3018:3051  _restrictedCountries[_compliance] */\n      0xffffffffffffffffffffffffffffffffffffffff\n      and\n      0xffffffffffffffffffffffffffffffffffffffff\n      and\n      dup2\n      mstore\n      0x20\n      add\n      swap1\n      dup2\n      mstore\n      0x20\n      add\n      0x00\n      keccak256\n        /* \"erc3643/erc3643/Compliance/modular/Modules/CountryRestrictModule.sol\":3017:3062  (_restrictedCountries[_compliance])[_country] */\n      0x00\n        /* \"erc3643/erc3643/Compliance/modular/Modules/CountryRestrictModule.sol\":3053:3061  _country */\n      dup4\n        /* \"erc3643/erc3643/Compliance/modular/Modules/CountryRestrictModule.sol\":3017:3062  (_restrictedCountries[_compliance])[_country] */\n      0xffff\n      and\n      0xffff\n      and\n      dup2\n      mstore\n      0x20\n      add\n      swap1\n      dup2\n      mstore\n      0x20\n      add\n      0x00\n      keccak256\n      0x00\n      swap1\n      sload\n      swap1\n      0x0100\n      exp\n      swap1\n      div\n      0xff\n      and\n        /* \"erc3643/erc3643/Compliance/modular/Modules/CountryRestrictModule.sol\":3009:3063  return ((_restrictedCountries[_compliance])[_country]) */\n      swap1\n      pop\n        /* \"erc3643/erc3643/Compliance/modular/Modules/CountryRestrictModule.sol\":2899:3071  function isCountryRestricted(address _compliance, uint16 _country) public view... */\n      swap3\n      swap2\n      pop\n      pop\n      jump\t// out\n        /* \"erc3643/erc3643/Compliance/modular/Modules/CountryRestrictModule.sol\":2413:2509  function moduleBurnAction(address _from, uint256 _value) external override onlyComplianceCall {} */\n    tag_46:\n        /* \"erc3643/erc3643/Compliance/modular/Modules/AbstractModule.sol\":474:490  _complianceBound */\n      0x00\n        /* \"erc3643/erc3643/Compliance/modular/Modules/AbstractModule.sol\":474:502  _complianceBound[msg.sender] */\n      dup1\n        /* \"erc3643/erc3643/Compliance/modular/Modules/AbstractModule.sol\":491:501  msg.sender */\n      caller\n        /* \"erc3643/erc3643/Compliance/modular/Modules/AbstractModule.sol\":474:502  _complianceBound[msg.sender] */\n      0xffffffffffffffffffffffffffffffffffffffff\n      and\n      0xffffffffffffffffffffffffffffffffffffffff\n      and\n      dup2\n      mstore\n      0x20\n      add\n      swap1\n      dup2\n      mstore\n      0x20\n      add\n      0x00\n      keccak256\n      0x00\n      swap1\n      sload\n      swap1\n      0x0100\n      exp\n      swap1\n      div\n      0xff\n      and\n        /* \"erc3643/erc3643/Compliance/modular/Modules/AbstractModule.sol\":466:537  require(_complianceBound[msg.sender], \"only bound compliance can call\") */\n      tag_120\n      jumpi\n      mload(0x40)\n      0x08c379a000000000000000000000000000000000000000000000000000000000\n      dup2\n      mstore\n      0x04\n      add\n      tag_121\n      swap1\n      tag_71\n      jump\t// in\n    tag_121:\n      mload(0x40)\n      dup1\n      swap2\n      sub\n      swap1\n      revert\n    tag_120:\n        /* \"erc3643/erc3643/Compliance/modular/Modules/CountryRestrictModule.sol\":2413:2509  function moduleBurnAction(address _from, uint256 _value) external override onlyComplianceCall {} */\n      pop\n      pop\n      jump\t// out\n        /* \"erc3643/erc3643/Compliance/modular/Modules/AbstractModule.sol\":565:967  function bindCompliance(address _compliance) external override {... */\n    tag_49:\n        /* \"erc3643/erc3643/Compliance/modular/Modules/AbstractModule.sol\":670:671  0 */\n      0x00\n        /* \"erc3643/erc3643/Compliance/modular/Modules/AbstractModule.sol\":647:672  _compliance != address(0) */\n      0xffffffffffffffffffffffffffffffffffffffff\n      and\n        /* \"erc3643/erc3643/Compliance/modular/Modules/AbstractModule.sol\":647:658  _compliance */\n      dup2\n        /* \"erc3643/erc3643/Compliance/modular/Modules/AbstractModule.sol\":647:672  _compliance != address(0) */\n      0xffffffffffffffffffffffffffffffffffffffff\n      and\n      sub\n        /* \"erc3643/erc3643/Compliance/modular/Modules/AbstractModule.sol\":639:708  require(_compliance != address(0), \"invalid argument - zero address\") */\n      tag_124\n      jumpi\n      mload(0x40)\n      0x08c379a000000000000000000000000000000000000000000000000000000000\n      dup2\n      mstore\n      0x04\n      add\n      tag_125\n      swap1\n      tag_84\n      jump\t// in\n    tag_125:\n      mload(0x40)\n      dup1\n      swap2\n      sub\n      swap1\n      revert\n    tag_124:\n        /* \"erc3643/erc3643/Compliance/modular/Modules/AbstractModule.sol\":728:744  _complianceBound */\n      0x00\n        /* \"erc3643/erc3643/Compliance/modular/Modules/AbstractModule.sol\":728:757  _complianceBound[_compliance] */\n      dup1\n        /* \"erc3643/erc3643/Compliance/modular/Modules/AbstractModule.sol\":745:756  _compliance */\n      dup3\n        /* \"erc3643/erc3643/Compliance/modular/Modules/AbstractModule.sol\":728:757  _complianceBound[_compliance] */\n      0xffffffffffffffffffffffffffffffffffffffff\n      and\n      0xffffffffffffffffffffffffffffffffffffffff\n      and\n      dup2\n      mstore\n      0x20\n      add\n      swap1\n      dup2\n      mstore\n      0x20\n      add\n      0x00\n      keccak256\n      0x00\n      swap1\n      sload\n      swap1\n      0x0100\n      exp\n      swap1\n      div\n      0xff\n      and\n        /* \"erc3643/erc3643/Compliance/modular/Modules/AbstractModule.sol\":727:757  !_complianceBound[_compliance] */\n      iszero\n        /* \"erc3643/erc3643/Compliance/modular/Modules/AbstractModule.sol\":719:786  require(!_complianceBound[_compliance], \"compliance already bound\") */\n      tag_126\n      jumpi\n      mload(0x40)\n      0x08c379a000000000000000000000000000000000000000000000000000000000\n      dup2\n      mstore\n      0x04\n      add\n      tag_127\n      swap1\n      tag_128\n      jump\t// in\n    tag_127:\n      mload(0x40)\n      dup1\n      swap2\n      sub\n      swap1\n      revert\n    tag_126:\n        /* \"erc3643/erc3643/Compliance/modular/Modules/AbstractModule.sol\":819:830  _compliance */\n      dup1\n        /* \"erc3643/erc3643/Compliance/modular/Modules/AbstractModule.sol\":805:830  msg.sender == _compliance */\n      0xffffffffffffffffffffffffffffffffffffffff\n      and\n        /* \"erc3643/erc3643/Compliance/modular/Modules/AbstractModule.sol\":805:815  msg.sender */\n      caller\n        /* \"erc3643/erc3643/Compliance/modular/Modules/AbstractModule.sol\":805:830  msg.sender == _compliance */\n      0xffffffffffffffffffffffffffffffffffffffff\n      and\n      eq\n        /* \"erc3643/erc3643/Compliance/modular/Modules/AbstractModule.sol\":797:868  require(msg.sender == _compliance, \"only compliance contract can call\") */\n      tag_129\n      jumpi\n      mload(0x40)\n      0x08c379a000000000000000000000000000000000000000000000000000000000\n      dup2\n      mstore\n      0x04\n      add\n      tag_130\n      swap1\n      tag_87\n      jump\t// in\n    tag_130:\n      mload(0x40)\n      dup1\n      swap2\n      sub\n      swap1\n      revert\n    tag_129:\n        /* \"erc3643/erc3643/Compliance/modular/Modules/AbstractModule.sol\":911:915  true */\n      0x01\n        /* \"erc3643/erc3643/Compliance/modular/Modules/AbstractModule.sol\":879:895  _complianceBound */\n      0x00\n        /* \"erc3643/erc3643/Compliance/modular/Modules/AbstractModule.sol\":879:908  _complianceBound[_compliance] */\n      dup1\n        /* \"erc3643/erc3643/Compliance/modular/Modules/AbstractModule.sol\":896:907  _compliance */\n      dup4\n        /* \"erc3643/erc3643/Compliance/modular/Modules/AbstractModule.sol\":879:908  _complianceBound[_compliance] */\n      0xffffffffffffffffffffffffffffffffffffffff\n      and\n      0xffffffffffffffffffffffffffffffffffffffff\n      and\n      dup2\n      mstore\n      0x20\n      add\n      swap1\n      dup2\n      mstore\n      0x20\n      add\n      0x00\n      keccak256\n      0x00\n        /* \"erc3643/erc3643/Compliance/modular/Modules/AbstractModule.sol\":879:915  _complianceBound[_compliance] = true */\n      0x0100\n      exp\n      dup2\n      sload\n      dup2\n      0xff\n      mul\n      not\n      and\n      swap1\n      dup4\n      iszero\n      iszero\n      mul\n      or\n      swap1\n      sstore\n      pop\n        /* \"erc3643/erc3643/Compliance/modular/Modules/AbstractModule.sol\":947:958  _compliance */\n      dup1\n        /* \"erc3643/erc3643/Compliance/modular/Modules/AbstractModule.sol\":931:959  ComplianceBound(_compliance) */\n      0xffffffffffffffffffffffffffffffffffffffff\n      and\n      0x1f7b76c58fb697eb53c6c7c1becb96911516a136e24d7ced386b2355358b75a3\n      mload(0x40)\n      mload(0x40)\n      dup1\n      swap2\n      sub\n      swap1\n      log2\n        /* \"erc3643/erc3643/Compliance/modular/Modules/AbstractModule.sol\":565:967  function bindCompliance(address _compliance) external override {... */\n      pop\n      jump\t// out\n        /* \"erc3643/erc3643/Compliance/modular/Modules/AbstractModule.sol\":1331:1472  function isComplianceBound(address _compliance) external view override returns (bool) {... */\n    tag_52:\n        /* \"erc3643/erc3643/Compliance/modular/Modules/AbstractModule.sol\":1411:1415  bool */\n      0x00\n        /* \"erc3643/erc3643/Compliance/modular/Modules/AbstractModule.sol\":1435:1451  _complianceBound */\n      dup1\n        /* \"erc3643/erc3643/Compliance/modular/Modules/AbstractModule.sol\":1435:1464  _complianceBound[_compliance] */\n      0x00\n        /* \"erc3643/erc3643/Compliance/modular/Modules/AbstractModule.sol\":1452:1463  _compliance */\n      dup4\n        /* \"erc3643/erc3643/Compliance/modular/Modules/AbstractModule.sol\":1435:1464  _complianceBound[_compliance] */\n      0xffffffffffffffffffffffffffffffffffffffff\n      and\n      0xffffffffffffffffffffffffffffffffffffffff\n      and\n      dup2\n      mstore\n      0x20\n      add\n      swap1\n      dup2\n      mstore\n      0x20\n      add\n      0x00\n      keccak256\n      0x00\n      swap1\n      sload\n      swap1\n      0x0100\n      exp\n      swap1\n      div\n      0xff\n      and\n        /* \"erc3643/erc3643/Compliance/modular/Modules/AbstractModule.sol\":1428:1464  return _complianceBound[_compliance] */\n      swap1\n      pop\n        /* \"erc3643/erc3643/Compliance/modular/Modules/AbstractModule.sol\":1331:1472  function isComplianceBound(address _compliance) external view override returns (bool) {... */\n      swap2\n      swap1\n      pop\n      jump\t// out\n        /* \"erc3643/erc3643/Compliance/modular/Modules/CountryRestrictModule.sol\":836:1146  function removeCountryRestriction(uint16 _country) external onlyComplianceCall {... */\n    tag_56:\n        /* \"erc3643/erc3643/Compliance/modular/Modules/AbstractModule.sol\":474:490  _complianceBound */\n      0x00\n        /* \"erc3643/erc3643/Compliance/modular/Modules/AbstractModule.sol\":474:502  _complianceBound[msg.sender] */\n      dup1\n        /* \"erc3643/erc3643/Compliance/modular/Modules/AbstractModule.sol\":491:501  msg.sender */\n      caller\n        /* \"erc3643/erc3643/Compliance/modular/Modules/AbstractModule.sol\":474:502  _complianceBound[msg.sender] */\n      0xffffffffffffffffffffffffffffffffffffffff\n      and\n      0xffffffffffffffffffffffffffffffffffffffff\n      and\n      dup2\n      mstore\n      0x20\n      add\n      swap1\n      dup2\n      mstore\n      0x20\n      add\n      0x00\n      keccak256\n      0x00\n      swap1\n      sload\n      swap1\n      0x0100\n      exp\n      swap1\n      div\n      0xff\n      and\n        /* \"erc3643/erc3643/Compliance/modular/Modules/AbstractModule.sol\":466:537  require(_complianceBound[msg.sender], \"only bound compliance can call\") */\n      tag_133\n      jumpi\n      mload(0x40)\n      0x08c379a000000000000000000000000000000000000000000000000000000000\n      dup2\n      mstore\n      0x04\n      add\n      tag_134\n      swap1\n      tag_71\n      jump\t// in\n    tag_134:\n      mload(0x40)\n      dup1\n      swap2\n      sub\n      swap1\n      revert\n    tag_133:\n        /* \"erc3643/erc3643/Compliance/modular/Modules/CountryRestrictModule.sol\":982:986  true */\n      0x01\n        /* \"erc3643/erc3643/Compliance/modular/Modules/CountryRestrictModule.sol\":934:986  (_restrictedCountries[msg.sender])[_country] == true */\n      iszero\n      iszero\n        /* \"erc3643/erc3643/Compliance/modular/Modules/CountryRestrictModule.sol\":935:955  _restrictedCountries */\n      0x01\n        /* \"erc3643/erc3643/Compliance/modular/Modules/CountryRestrictModule.sol\":935:967  _restrictedCountries[msg.sender] */\n      0x00\n        /* \"erc3643/erc3643/Compliance/modular/Modules/CountryRestrictModule.sol\":956:966  msg.sender */\n      caller\n        /* \"erc3643/erc3643/Compliance/modular/Modules/CountryRestrictModule.sol\":935:967  _restrictedCountries[msg.sender] */\n      0xffffffffffffffffffffffffffffffffffffffff\n      and\n      0xffffffffffffffffffffffffffffffffffffffff\n      and\n      dup2\n      mstore\n      0x20\n      add\n      swap1\n      dup2\n      mstore\n      0x20\n      add\n      0x00\n      keccak256\n        /* \"erc3643/erc3643/Compliance/modular/Modules/CountryRestrictModule.sol\":934:978  (_restrictedCountries[msg.sender])[_country] */\n      0x00\n        /* \"erc3643/erc3643/Compliance/modular/Modules/CountryRestrictModule.sol\":969:977  _country */\n      dup4\n        /* \"erc3643/erc3643/Compliance/modular/Modules/CountryRestrictModule.sol\":934:978  (_restrictedCountries[msg.sender])[_country] */\n      0xffff\n      and\n      0xffff\n      and\n      dup2\n      mstore\n      0x20\n      add\n      swap1\n      dup2\n      mstore\n      0x20\n      add\n      0x00\n      keccak256\n      0x00\n      swap1\n      sload\n      swap1\n      0x0100\n      exp\n      swap1\n      div\n      0xff\n      and\n        /* \"erc3643/erc3643/Compliance/modular/Modules/CountryRestrictModule.sol\":934:986  (_restrictedCountries[msg.sender])[_country] == true */\n      iszero\n      iszero\n      eq\n        /* \"erc3643/erc3643/Compliance/modular/Modules/CountryRestrictModule.sol\":926:1013  require((_restrictedCountries[msg.sender])[_country] == true, \"country not restricted\") */\n      tag_136\n      jumpi\n      mload(0x40)\n      0x08c379a000000000000000000000000000000000000000000000000000000000\n      dup2\n      mstore\n      0x04\n      add\n      tag_137\n      swap1\n      tag_104\n      jump\t// in\n    tag_137:\n      mload(0x40)\n      dup1\n      swap2\n      sub\n      swap1\n      revert\n    tag_136:\n        /* \"erc3643/erc3643/Compliance/modular/Modules/CountryRestrictModule.sol\":1071:1076  false */\n      0x00\n        /* \"erc3643/erc3643/Compliance/modular/Modules/CountryRestrictModule.sol\":1025:1045  _restrictedCountries */\n      0x01\n        /* \"erc3643/erc3643/Compliance/modular/Modules/CountryRestrictModule.sol\":1025:1057  _restrictedCountries[msg.sender] */\n      0x00\n        /* \"erc3643/erc3643/Compliance/modular/Modules/CountryRestrictModule.sol\":1046:1056  msg.sender */\n      caller\n        /* \"erc3643/erc3643/Compliance/modular/Modules/CountryRestrictModule.sol\":1025:1057  _restrictedCountries[msg.sender] */\n      0xffffffffffffffffffffffffffffffffffffffff\n      and\n      0xffffffffffffffffffffffffffffffffffffffff\n      and\n      dup2\n      mstore\n      0x20\n      add\n      swap1\n      dup2\n      mstore\n      0x20\n      add\n      0x00\n      keccak256\n        /* \"erc3643/erc3643/Compliance/modular/Modules/CountryRestrictModule.sol\":1024:1068  (_restrictedCountries[msg.sender])[_country] */\n      0x00\n        /* \"erc3643/erc3643/Compliance/modular/Modules/CountryRestrictModule.sol\":1059:1067  _country */\n      dup4\n        /* \"erc3643/erc3643/Compliance/modular/Modules/CountryRestrictModule.sol\":1024:1068  (_restrictedCountries[msg.sender])[_country] */\n      0xffff\n      and\n      0xffff\n      and\n      dup2\n      mstore\n      0x20\n      add\n      swap1\n      dup2\n      mstore\n      0x20\n      add\n      0x00\n      keccak256\n      0x00\n        /* \"erc3643/erc3643/Compliance/modular/Modules/CountryRestrictModule.sol\":1024:1076  (_restrictedCountries[msg.sender])[_country] = false */\n      0x0100\n      exp\n      dup2\n      sload\n      dup2\n      0xff\n      mul\n      not\n      and\n      swap1\n      dup4\n      iszero\n      iszero\n      mul\n      or\n      swap1\n      sstore\n      pop\n        /* \"erc3643/erc3643/Compliance/modular/Modules/CountryRestrictModule.sol\":1117:1127  msg.sender */\n      caller\n        /* \"erc3643/erc3643/Compliance/modular/Modules/CountryRestrictModule.sol\":1092:1138  RemovedRestrictedCountry(msg.sender, _country) */\n      0xffffffffffffffffffffffffffffffffffffffff\n      and\n      0xfb8bb575200aa114265a31c7d8ebeb4e395bd3cd9d0914c4bfa2a511d2011a7a\n        /* \"erc3643/erc3643/Compliance/modular/Modules/CountryRestrictModule.sol\":1129:1137  _country */\n      dup3\n        /* \"erc3643/erc3643/Compliance/modular/Modules/CountryRestrictModule.sol\":1092:1138  RemovedRestrictedCountry(msg.sender, _country) */\n      mload(0x40)\n      tag_138\n      swap2\n      swap1\n      tag_77\n      jump\t// in\n    tag_138:\n      mload(0x40)\n      dup1\n      swap2\n      sub\n      swap1\n      log2\n        /* \"erc3643/erc3643/Compliance/modular/Modules/CountryRestrictModule.sol\":836:1146  function removeCountryRestriction(uint16 _country) external onlyComplianceCall {... */\n      pop\n      jump\t// out\n        /* \"erc3643/erc3643/Compliance/modular/Modules/CountryRestrictModule.sol\":1154:1663  function batchRestrictCountries(uint16[] calldata _countries) external onlyComplianceCall {... */\n    tag_59:\n        /* \"erc3643/erc3643/Compliance/modular/Modules/AbstractModule.sol\":474:490  _complianceBound */\n      0x00\n        /* \"erc3643/erc3643/Compliance/modular/Modules/AbstractModule.sol\":474:502  _complianceBound[msg.sender] */\n      dup1\n        /* \"erc3643/erc3643/Compliance/modular/Modules/AbstractModule.sol\":491:501  msg.sender */\n      caller\n        /* \"erc3643/erc3643/Compliance/modular/Modules/AbstractModule.sol\":474:502  _complianceBound[msg.sender] */\n      0xffffffffffffffffffffffffffffffffffffffff\n      and\n      0xffffffffffffffffffffffffffffffffffffffff\n      and\n      dup2\n      mstore\n      0x20\n      add\n      swap1\n      dup2\n      mstore\n      0x20\n      add\n      0x00\n      keccak256\n      0x00\n      swap1\n      sload\n      swap1\n      0x0100\n      exp\n      swap1\n      div\n      0xff\n      and\n        /* \"erc3643/erc3643/Compliance/modular/Modules/AbstractModule.sol\":466:537  require(_complianceBound[msg.sender], \"only bound compliance can call\") */\n      tag_140\n      jumpi\n      mload(0x40)\n      0x08c379a000000000000000000000000000000000000000000000000000000000\n      dup2\n      mstore\n      0x04\n      add\n      tag_141\n      swap1\n      tag_71\n      jump\t// in\n    tag_141:\n      mload(0x40)\n      dup1\n      swap2\n      sub\n      swap1\n      revert\n    tag_140:\n        /* \"erc3643/erc3643/Compliance/modular/Modules/CountryRestrictModule.sol\":1283:1286  195 */\n      0xc3\n        /* \"erc3643/erc3643/Compliance/modular/Modules/CountryRestrictModule.sol\":1263:1273  _countries */\n      dup3\n      dup3\n        /* \"erc3643/erc3643/Compliance/modular/Modules/CountryRestrictModule.sol\":1263:1280  _countries.length */\n      swap1\n      pop\n        /* \"erc3643/erc3643/Compliance/modular/Modules/CountryRestrictModule.sol\":1263:1286  _countries.length < 195 */\n      lt\n        /* \"erc3643/erc3643/Compliance/modular/Modules/CountryRestrictModule.sol\":1255:1333  require(_countries.length < 195, \"maximum 195 can be restricted in one batch\") */\n      tag_143\n      jumpi\n      mload(0x40)\n      0x08c379a000000000000000000000000000000000000000000000000000000000\n      dup2\n      mstore\n      0x04\n      add\n      tag_144\n      swap1\n      tag_145\n      jump\t// in\n    tag_144:\n      mload(0x40)\n      dup1\n      swap2\n      sub\n      swap1\n      revert\n    tag_143:\n        /* \"erc3643/erc3643/Compliance/modular/Modules/CountryRestrictModule.sol\":1349:1358  uint256 i */\n      0x00\n        /* \"erc3643/erc3643/Compliance/modular/Modules/CountryRestrictModule.sol\":1344:1656  for (uint256 i = 0; i < _countries.length; i++) {... */\n    tag_146:\n        /* \"erc3643/erc3643/Compliance/modular/Modules/CountryRestrictModule.sol\":1368:1378  _countries */\n      dup3\n      dup3\n        /* \"erc3643/erc3643/Compliance/modular/Modules/CountryRestrictModule.sol\":1368:1385  _countries.length */\n      swap1\n      pop\n        /* \"erc3643/erc3643/Compliance/modular/Modules/CountryRestrictModule.sol\":1364:1365  i */\n      dup2\n        /* \"erc3643/erc3643/Compliance/modular/Modules/CountryRestrictModule.sol\":1364:1385  i < _countries.length */\n      lt\n        /* \"erc3643/erc3643/Compliance/modular/Modules/CountryRestrictModule.sol\":1344:1656  for (uint256 i = 0; i < _countries.length; i++) {... */\n      iszero\n      tag_147\n      jumpi\n        /* \"erc3643/erc3643/Compliance/modular/Modules/CountryRestrictModule.sol\":1468:1473  false */\n      0x00\n        /* \"erc3643/erc3643/Compliance/modular/Modules/CountryRestrictModule.sol\":1415:1473  (_restrictedCountries[msg.sender])[_countries[i]] == false */\n      iszero\n      iszero\n        /* \"erc3643/erc3643/Compliance/modular/Modules/CountryRestrictModule.sol\":1416:1436  _restrictedCountries */\n      0x01\n        /* \"erc3643/erc3643/Compliance/modular/Modules/CountryRestrictModule.sol\":1416:1448  _restrictedCountries[msg.sender] */\n      0x00\n        /* \"erc3643/erc3643/Compliance/modular/Modules/CountryRestrictModule.sol\":1437:1447  msg.sender */\n      caller\n        /* \"erc3643/erc3643/Compliance/modular/Modules/CountryRestrictModule.sol\":1416:1448  _restrictedCountries[msg.sender] */\n      0xffffffffffffffffffffffffffffffffffffffff\n      and\n      0xffffffffffffffffffffffffffffffffffffffff\n      and\n      dup2\n      mstore\n      0x20\n      add\n      swap1\n      dup2\n      mstore\n      0x20\n      add\n      0x00\n      keccak256\n        /* \"erc3643/erc3643/Compliance/modular/Modules/CountryRestrictModule.sol\":1415:1464  (_restrictedCountries[msg.sender])[_countries[i]] */\n      0x00\n        /* \"erc3643/erc3643/Compliance/modular/Modules/CountryRestrictModule.sol\":1450:1460  _countries */\n      dup6\n      dup6\n        /* \"erc3643/erc3643/Compliance/modular/Modules/CountryRestrictModule.sol\":1461:1462  i */\n      dup6\n        /* \"erc3643/erc3643/Compliance/modular/Modules/CountryRestrictModule.sol\":1450:1463  _countries[i] */\n      dup2\n      dup2\n      lt\n      tag_149\n      jumpi\n      tag_150\n      tag_100\n      jump\t// in\n    tag_150:\n    tag_149:\n      swap1\n      pop\n      0x20\n      mul\n      add\n      0x20\n      dup2\n      add\n      swap1\n      tag_151\n      swap2\n      swap1\n      tag_24\n      jump\t// in\n    tag_151:\n        /* \"erc3643/erc3643/Compliance/modular/Modules/CountryRestrictModule.sol\":1415:1464  (_restrictedCountries[msg.sender])[_countries[i]] */\n      0xffff\n      and\n      0xffff\n      and\n      dup2\n      mstore\n      0x20\n      add\n      swap1\n      dup2\n      mstore\n      0x20\n      add\n      0x00\n      keccak256\n      0x00\n      swap1\n      sload\n      swap1\n      0x0100\n      exp\n      swap1\n      div\n      0xff\n      and\n        /* \"erc3643/erc3643/Compliance/modular/Modules/CountryRestrictModule.sol\":1415:1473  (_restrictedCountries[msg.sender])[_countries[i]] == false */\n      iszero\n      iszero\n      eq\n        /* \"erc3643/erc3643/Compliance/modular/Modules/CountryRestrictModule.sol\":1407:1504  require((_restrictedCountries[msg.sender])[_countries[i]] == false, \"country already restricted\") */\n      tag_152\n      jumpi\n      mload(0x40)\n      0x08c379a000000000000000000000000000000000000000000000000000000000\n      dup2\n      mstore\n      0x04\n      add\n      tag_153\n      swap1\n      tag_75\n      jump\t// in\n    tag_153:\n      mload(0x40)\n      dup1\n      swap2\n      sub\n      swap1\n      revert\n    tag_152:\n        /* \"erc3643/erc3643/Compliance/modular/Modules/CountryRestrictModule.sol\":1571:1575  true */\n      0x01\n        /* \"erc3643/erc3643/Compliance/modular/Modules/CountryRestrictModule.sol\":1520:1540  _restrictedCountries */\n      dup1\n        /* \"erc3643/erc3643/Compliance/modular/Modules/CountryRestrictModule.sol\":1520:1552  _restrictedCountries[msg.sender] */\n      0x00\n        /* \"erc3643/erc3643/Compliance/modular/Modules/CountryRestrictModule.sol\":1541:1551  msg.sender */\n      caller\n        /* \"erc3643/erc3643/Compliance/modular/Modules/CountryRestrictModule.sol\":1520:1552  _restrictedCountries[msg.sender] */\n      0xffffffffffffffffffffffffffffffffffffffff\n      and\n      0xffffffffffffffffffffffffffffffffffffffff\n      and\n      dup2\n      mstore\n      0x20\n      add\n      swap1\n      dup2\n      mstore\n      0x20\n      add\n      0x00\n      keccak256\n        /* \"erc3643/erc3643/Compliance/modular/Modules/CountryRestrictModule.sol\":1519:1568  (_restrictedCountries[msg.sender])[_countries[i]] */\n      0x00\n        /* \"erc3643/erc3643/Compliance/modular/Modules/CountryRestrictModule.sol\":1554:1564  _countries */\n      dup6\n      dup6\n        /* \"erc3643/erc3643/Compliance/modular/Modules/CountryRestrictModule.sol\":1565:1566  i */\n      dup6\n        /* \"erc3643/erc3643/Compliance/modular/Modules/CountryRestrictModule.sol\":1554:1567  _countries[i] */\n      dup2\n      dup2\n      lt\n      tag_154\n      jumpi\n      tag_155\n      tag_100\n      jump\t// in\n    tag_155:\n    tag_154:\n      swap1\n      pop\n      0x20\n      mul\n      add\n      0x20\n      dup2\n      add\n      swap1\n      tag_156\n      swap2\n      swap1\n      tag_24\n      jump\t// in\n    tag_156:\n        /* \"erc3643/erc3643/Compliance/modular/Modules/CountryRestrictModule.sol\":1519:1568  (_restrictedCountries[msg.sender])[_countries[i]] */\n      0xffff\n      and\n      0xffff\n      and\n      dup2\n      mstore\n      0x20\n      add\n      swap1\n      dup2\n      mstore\n      0x20\n      add\n      0x00\n      keccak256\n      0x00\n        /* \"erc3643/erc3643/Compliance/modular/Modules/CountryRestrictModule.sol\":1519:1575  (_restrictedCountries[msg.sender])[_countries[i]] = true */\n      0x0100\n      exp\n      dup2\n      sload\n      dup2\n      0xff\n      mul\n      not\n      and\n      swap1\n      dup4\n      iszero\n      iszero\n      mul\n      or\n      swap1\n      sstore\n      pop\n        /* \"erc3643/erc3643/Compliance/modular/Modules/CountryRestrictModule.sol\":1618:1628  msg.sender */\n      caller\n        /* \"erc3643/erc3643/Compliance/modular/Modules/CountryRestrictModule.sol\":1595:1644  AddedRestrictedCountry(msg.sender, _countries[i]) */\n      0xffffffffffffffffffffffffffffffffffffffff\n      and\n      0x5e0addf626d7d7091ab7aebf34682c3203384648734760b24921e31ddcec0bb5\n        /* \"erc3643/erc3643/Compliance/modular/Modules/CountryRestrictModule.sol\":1630:1640  _countries */\n      dup5\n      dup5\n        /* \"erc3643/erc3643/Compliance/modular/Modules/CountryRestrictModule.sol\":1641:1642  i */\n      dup5\n        /* \"erc3643/erc3643/Compliance/modular/Modules/CountryRestrictModule.sol\":1630:1643  _countries[i] */\n      dup2\n      dup2\n      lt\n      tag_157\n      jumpi\n      tag_158\n      tag_100\n      jump\t// in\n    tag_158:\n    tag_157:\n      swap1\n      pop\n      0x20\n      mul\n      add\n      0x20\n      dup2\n      add\n      swap1\n      tag_159\n      swap2\n      swap1\n      tag_24\n      jump\t// in\n    tag_159:\n        /* \"erc3643/erc3643/Compliance/modular/Modules/CountryRestrictModule.sol\":1595:1644  AddedRestrictedCountry(msg.sender, _countries[i]) */\n      mload(0x40)\n      tag_160\n      swap2\n      swap1\n      tag_77\n      jump\t// in\n    tag_160:\n      mload(0x40)\n      dup1\n      swap2\n      sub\n      swap1\n      log2\n        /* \"erc3643/erc3643/Compliance/modular/Modules/CountryRestrictModule.sol\":1387:1390  i++ */\n      dup1\n      dup1\n      tag_161\n      swap1\n      tag_113\n      jump\t// in\n    tag_161:\n      swap2\n      pop\n      pop\n        /* \"erc3643/erc3643/Compliance/modular/Modules/CountryRestrictModule.sol\":1344:1656  for (uint256 i = 0; i < _countries.length; i++) {... */\n      jump(tag_146)\n    tag_147:\n      pop\n        /* \"erc3643/erc3643/Compliance/modular/Modules/CountryRestrictModule.sol\":1154:1663  function batchRestrictCountries(uint16[] calldata _countries) external onlyComplianceCall {... */\n      pop\n      pop\n      jump\t// out\n        /* \"erc3643/erc3643/Compliance/modular/Modules/CountryRestrictModule.sol\":2311:2405  function moduleMintAction(address _to, uint256 _value) external override onlyComplianceCall {} */\n    tag_62:\n        /* \"erc3643/erc3643/Compliance/modular/Modules/AbstractModule.sol\":474:490  _complianceBound */\n      0x00\n        /* \"erc3643/erc3643/Compliance/modular/Modules/AbstractModule.sol\":474:502  _complianceBound[msg.sender] */\n      dup1\n        /* \"erc3643/erc3643/Compliance/modular/Modules/AbstractModule.sol\":491:501  msg.sender */\n      caller\n        /* \"erc3643/erc3643/Compliance/modular/Modules/AbstractModule.sol\":474:502  _complianceBound[msg.sender] */\n      0xffffffffffffffffffffffffffffffffffffffff\n      and\n      0xffffffffffffffffffffffffffffffffffffffff\n      and\n      dup2\n      mstore\n      0x20\n      add\n      swap1\n      dup2\n      mstore\n      0x20\n      add\n      0x00\n      keccak256\n      0x00\n      swap1\n      sload\n      swap1\n      0x0100\n      exp\n      swap1\n      div\n      0xff\n      and\n        /* \"erc3643/erc3643/Compliance/modular/Modules/AbstractModule.sol\":466:537  require(_complianceBound[msg.sender], \"only bound compliance can call\") */\n      tag_163\n      jumpi\n      mload(0x40)\n      0x08c379a000000000000000000000000000000000000000000000000000000000\n      dup2\n      mstore\n      0x04\n      add\n      tag_164\n      swap1\n      tag_71\n      jump\t// in\n    tag_164:\n      mload(0x40)\n      dup1\n      swap2\n      sub\n      swap1\n      revert\n    tag_163:\n        /* \"erc3643/erc3643/Compliance/modular/Modules/CountryRestrictModule.sol\":2311:2405  function moduleMintAction(address _to, uint256 _value) external override onlyComplianceCall {} */\n      pop\n      pop\n      jump\t// out\n        /* \"erc3643/erc3643/Compliance/modular/Modules/CountryRestrictModule.sol\":3079:3304  function _getCountry(address _compliance, address _userAddress) internal view returns (uint16) {... */\n    tag_65:\n        /* \"erc3643/erc3643/Compliance/modular/Modules/CountryRestrictModule.sol\":3166:3172  uint16 */\n      0x00\n        /* \"erc3643/erc3643/Compliance/modular/Modules/CountryRestrictModule.sol\":3218:3229  _compliance */\n      dup3\n        /* \"erc3643/erc3643/Compliance/modular/Modules/CountryRestrictModule.sol\":3199:3244  IModularCompliance(_compliance).getTokenBound */\n      0xffffffffffffffffffffffffffffffffffffffff\n      and\n      0x6a3edf28\n        /* \"erc3643/erc3643/Compliance/modular/Modules/CountryRestrictModule.sol\":3199:3246  IModularCompliance(_compliance).getTokenBound() */\n      mload(0x40)\n      dup2\n      0xffffffff\n      and\n      0xe0\n      shl\n      dup2\n      mstore\n      0x04\n      add\n      0x20\n      mload(0x40)\n      dup1\n      dup4\n      sub\n      dup2\n      dup7\n      gas\n      staticcall\n      iszero\n      dup1\n      iszero\n      tag_168\n      jumpi\n      returndatasize\n      0x00\n      dup1\n      returndatacopy\n      revert(0x00, returndatasize)\n    tag_168:\n      pop\n      pop\n      pop\n      pop\n      mload(0x40)\n      returndatasize\n      not(0x1f)\n      0x1f\n      dup3\n      add\n      and\n      dup3\n      add\n      dup1\n      0x40\n      mstore\n      pop\n      dup2\n      add\n      swap1\n      tag_169\n      swap2\n      swap1\n      tag_170\n      jump\t// in\n    tag_169:\n        /* \"erc3643/erc3643/Compliance/modular/Modules/CountryRestrictModule.sol\":3192:3264  IToken(IModularCompliance(_compliance).getTokenBound()).identityRegistry */\n      0xffffffffffffffffffffffffffffffffffffffff\n      and\n      0x134e18f4\n        /* \"erc3643/erc3643/Compliance/modular/Modules/CountryRestrictModule.sol\":3192:3266  IToken(IModularCompliance(_compliance).getTokenBound()).identityRegistry() */\n      mload(0x40)\n      dup2\n      0xffffffff\n      and\n      0xe0\n      shl\n      dup2\n      mstore\n      0x04\n      add\n      0x20\n      mload(0x40)\n      dup1\n      dup4\n      sub\n      dup2\n      dup7\n      gas\n      staticcall\n      iszero\n      dup1\n      iszero\n      tag_172\n      jumpi\n      returndatasize\n      0x00\n      dup1\n      returndatacopy\n      revert(0x00, returndatasize)\n    tag_172:\n      pop\n      pop\n      pop\n      pop\n      mload(0x40)\n      returndatasize\n      not(0x1f)\n      0x1f\n      dup3\n      add\n      and\n      dup3\n      add\n      dup1\n      0x40\n      mstore\n      pop\n      dup2\n      add\n      swap1\n      tag_173\n      swap2\n      swap1\n      tag_174\n      jump\t// in\n    tag_173:\n        /* \"erc3643/erc3643/Compliance/modular/Modules/CountryRestrictModule.sol\":3192:3282  IToken(IModularCompliance(_compliance).getTokenBound()).identityRegistry().investorCountry */\n      0xffffffffffffffffffffffffffffffffffffffff\n      and\n      0x7e42683b\n        /* \"erc3643/erc3643/Compliance/modular/Modules/CountryRestrictModule.sol\":3283:3295  _userAddress */\n      dup4\n        /* \"erc3643/erc3643/Compliance/modular/Modules/CountryRestrictModule.sol\":3192:3296  IToken(IModularCompliance(_compliance).getTokenBound()).identityRegistry().investorCountry(_userAddress) */\n      mload(0x40)\n      dup3\n      0xffffffff\n      and\n      0xe0\n      shl\n      dup2\n      mstore\n      0x04\n      add\n      tag_175\n      swap2\n      swap1\n      tag_176\n      jump\t// in\n    tag_175:\n      0x20\n      mload(0x40)\n      dup1\n      dup4\n      sub\n      dup2\n      dup7\n      gas\n      staticcall\n      iszero\n      dup1\n      iszero\n      tag_178\n      jumpi\n      returndatasize\n      0x00\n      dup1\n      returndatacopy\n      revert(0x00, returndatasize)\n    tag_178:\n      pop\n      pop\n      pop\n      pop\n      mload(0x40)\n      returndatasize\n      not(0x1f)\n      0x1f\n      dup3\n      add\n      and\n      dup3\n      add\n      dup1\n      0x40\n      mstore\n      pop\n      dup2\n      add\n      swap1\n      tag_179\n      swap2\n      swap1\n      tag_180\n      jump\t// in\n    tag_179:\n        /* \"erc3643/erc3643/Compliance/modular/Modules/CountryRestrictModule.sol\":3185:3296  return IToken(IModularCompliance(_compliance).getTokenBound()).identityRegistry().investorCountry(_userAddress) */\n      swap1\n      pop\n        /* \"erc3643/erc3643/Compliance/modular/Modules/CountryRestrictModule.sol\":3079:3304  function _getCountry(address _compliance, address _userAddress) internal view returns (uint16) {... */\n      swap3\n      swap2\n      pop\n      pop\n      jump\t// out\n        /* \"#utility.yul\":88:205   */\n    tag_182:\n        /* \"#utility.yul\":197:198   */\n      0x00\n        /* \"#utility.yul\":194:195   */\n      dup1\n        /* \"#utility.yul\":187:199   */\n      revert\n        /* \"#utility.yul\":211:328   */\n    tag_183:\n        /* \"#utility.yul\":320:321   */\n      0x00\n        /* \"#utility.yul\":317:318   */\n      dup1\n        /* \"#utility.yul\":310:322   */\n      revert\n        /* \"#utility.yul\":334:460   */\n    tag_184:\n        /* \"#utility.yul\":371:378   */\n      0x00\n        /* \"#utility.yul\":411:453   */\n      0xffffffffffffffffffffffffffffffffffffffff\n        /* \"#utility.yul\":404:409   */\n      dup3\n        /* \"#utility.yul\":400:454   */\n      and\n        /* \"#utility.yul\":389:454   */\n      swap1\n      pop\n        /* \"#utility.yul\":334:460   */\n      swap2\n      swap1\n      pop\n      jump\t// out\n        /* \"#utility.yul\":466:562   */\n    tag_185:\n        /* \"#utility.yul\":503:510   */\n      0x00\n        /* \"#utility.yul\":532:556   */\n      tag_231\n        /* \"#utility.yul\":550:555   */\n      dup3\n        /* \"#utility.yul\":532:556   */\n      tag_184\n      jump\t// in\n    tag_231:\n        /* \"#utility.yul\":521:556   */\n      swap1\n      pop\n        /* \"#utility.yul\":466:562   */\n      swap2\n      swap1\n      pop\n      jump\t// out\n        /* \"#utility.yul\":568:690   */\n    tag_186:\n        /* \"#utility.yul\":641:665   */\n      tag_233\n        /* \"#utility.yul\":659:664   */\n      dup2\n        /* \"#utility.yul\":641:665   */\n      tag_185\n      jump\t// in\n    tag_233:\n        /* \"#utility.yul\":634:639   */\n      dup2\n        /* \"#utility.yul\":631:666   */\n      eq\n        /* \"#utility.yul\":621:684   */\n      tag_234\n      jumpi\n        /* \"#utility.yul\":680:681   */\n      0x00\n        /* \"#utility.yul\":677:678   */\n      dup1\n        /* \"#utility.yul\":670:682   */\n      revert\n        /* \"#utility.yul\":621:684   */\n    tag_234:\n        /* \"#utility.yul\":568:690   */\n      pop\n      jump\t// out\n        /* \"#utility.yul\":696:835   */\n    tag_187:\n        /* \"#utility.yul\":742:747   */\n      0x00\n        /* \"#utility.yul\":780:786   */\n      dup2\n        /* \"#utility.yul\":767:787   */\n      calldataload\n        /* \"#utility.yul\":758:787   */\n      swap1\n      pop\n        /* \"#utility.yul\":796:829   */\n      tag_236\n        /* \"#utility.yul\":823:828   */\n      dup2\n        /* \"#utility.yul\":796:829   */\n      tag_186\n      jump\t// in\n    tag_236:\n        /* \"#utility.yul\":696:835   */\n      swap3\n      swap2\n      pop\n      pop\n      jump\t// out\n        /* \"#utility.yul\":841:918   */\n    tag_188:\n        /* \"#utility.yul\":878:885   */\n      0x00\n        /* \"#utility.yul\":907:912   */\n      dup2\n        /* \"#utility.yul\":896:912   */\n      swap1\n      pop\n        /* \"#utility.yul\":841:918   */\n      swap2\n      swap1\n      pop\n      jump\t// out\n        /* \"#utility.yul\":924:1046   */\n    tag_189:\n        /* \"#utility.yul\":997:1021   */\n      tag_239\n        /* \"#utility.yul\":1015:1020   */\n      dup2\n        /* \"#utility.yul\":997:1021   */\n      tag_188\n      jump\t// in\n    tag_239:\n        /* \"#utility.yul\":990:995   */\n      dup2\n        /* \"#utility.yul\":987:1022   */\n      eq\n        /* \"#utility.yul\":977:1040   */\n      tag_240\n      jumpi\n        /* \"#utility.yul\":1036:1037   */\n      0x00\n        /* \"#utility.yul\":1033:1034   */\n      dup1\n        /* \"#utility.yul\":1026:1038   */\n      revert\n        /* \"#utility.yul\":977:1040   */\n    tag_240:\n        /* \"#utility.yul\":924:1046   */\n      pop\n      jump\t// out\n        /* \"#utility.yul\":1052:1191   */\n    tag_190:\n        /* \"#utility.yul\":1098:1103   */\n      0x00\n        /* \"#utility.yul\":1136:1142   */\n      dup2\n        /* \"#utility.yul\":1123:1143   */\n      calldataload\n        /* \"#utility.yul\":1114:1143   */\n      swap1\n      pop\n        /* \"#utility.yul\":1152:1185   */\n      tag_242\n        /* \"#utility.yul\":1179:1184   */\n      dup2\n        /* \"#utility.yul\":1152:1185   */\n      tag_189\n      jump\t// in\n    tag_242:\n        /* \"#utility.yul\":1052:1191   */\n      swap3\n      swap2\n      pop\n      pop\n      jump\t// out\n        /* \"#utility.yul\":1197:1962   */\n    tag_18:\n        /* \"#utility.yul\":1283:1289   */\n      0x00\n        /* \"#utility.yul\":1291:1297   */\n      dup1\n        /* \"#utility.yul\":1299:1305   */\n      0x00\n        /* \"#utility.yul\":1307:1313   */\n      dup1\n        /* \"#utility.yul\":1356:1359   */\n      0x80\n        /* \"#utility.yul\":1344:1353   */\n      dup6\n        /* \"#utility.yul\":1335:1342   */\n      dup8\n        /* \"#utility.yul\":1331:1354   */\n      sub\n        /* \"#utility.yul\":1327:1360   */\n      slt\n        /* \"#utility.yul\":1324:1444   */\n      iszero\n      tag_244\n      jumpi\n        /* \"#utility.yul\":1363:1442   */\n      tag_245\n      tag_182\n      jump\t// in\n    tag_245:\n        /* \"#utility.yul\":1324:1444   */\n    tag_244:\n        /* \"#utility.yul\":1483:1484   */\n      0x00\n        /* \"#utility.yul\":1508:1561   */\n      tag_246\n        /* \"#utility.yul\":1553:1560   */\n      dup8\n        /* \"#utility.yul\":1544:1550   */\n      dup3\n        /* \"#utility.yul\":1533:1542   */\n      dup9\n        /* \"#utility.yul\":1529:1551   */\n      add\n        /* \"#utility.yul\":1508:1561   */\n      tag_187\n      jump\t// in\n    tag_246:\n        /* \"#utility.yul\":1498:1561   */\n      swap5\n      pop\n        /* \"#utility.yul\":1454:1571   */\n      pop\n        /* \"#utility.yul\":1610:1612   */\n      0x20\n        /* \"#utility.yul\":1636:1689   */\n      tag_247\n        /* \"#utility.yul\":1681:1688   */\n      dup8\n        /* \"#utility.yul\":1672:1678   */\n      dup3\n        /* \"#utility.yul\":1661:1670   */\n      dup9\n        /* \"#utility.yul\":1657:1679   */\n      add\n        /* \"#utility.yul\":1636:1689   */\n      tag_187\n      jump\t// in\n    tag_247:\n        /* \"#utility.yul\":1626:1689   */\n      swap4\n      pop\n        /* \"#utility.yul\":1581:1699   */\n      pop\n        /* \"#utility.yul\":1738:1740   */\n      0x40\n        /* \"#utility.yul\":1764:1817   */\n      tag_248\n        /* \"#utility.yul\":1809:1816   */\n      dup8\n        /* \"#utility.yul\":1800:1806   */\n      dup3\n        /* \"#utility.yul\":1789:1798   */\n      dup9\n        /* \"#utility.yul\":1785:1807   */\n      add\n        /* \"#utility.yul\":1764:1817   */\n      tag_190\n      jump\t// in\n    tag_248:\n        /* \"#utility.yul\":1754:1817   */\n      swap3\n      pop\n        /* \"#utility.yul\":1709:1827   */\n      pop\n        /* \"#utility.yul\":1866:1868   */\n      0x60\n        /* \"#utility.yul\":1892:1945   */\n      tag_249\n        /* \"#utility.yul\":1937:1944   */\n      dup8\n        /* \"#utility.yul\":1928:1934   */\n      dup3\n        /* \"#utility.yul\":1917:1926   */\n      dup9\n        /* \"#utility.yul\":1913:1935   */\n      add\n        /* \"#utility.yul\":1892:1945   */\n      tag_187\n      jump\t// in\n    tag_249:\n        /* \"#utility.yul\":1882:1945   */\n      swap2\n      pop\n        /* \"#utility.yul\":1837:1955   */\n      pop\n        /* \"#utility.yul\":1197:1962   */\n      swap3\n      swap6\n      swap2\n      swap5\n      pop\n      swap3\n      pop\n      jump\t// out\n        /* \"#utility.yul\":1968:2058   */\n    tag_191:\n        /* \"#utility.yul\":2002:2009   */\n      0x00\n        /* \"#utility.yul\":2045:2050   */\n      dup2\n        /* \"#utility.yul\":2038:2051   */\n      iszero\n        /* \"#utility.yul\":2031:2052   */\n      iszero\n        /* \"#utility.yul\":2020:2052   */\n      swap1\n      pop\n        /* \"#utility.yul\":1968:2058   */\n      swap2\n      swap1\n      pop\n      jump\t// out\n        /* \"#utility.yul\":2064:2173   */\n    tag_192:\n        /* \"#utility.yul\":2145:2166   */\n      tag_252\n        /* \"#utility.yul\":2160:2165   */\n      dup2\n        /* \"#utility.yul\":2145:2166   */\n      tag_191\n      jump\t// in\n    tag_252:\n        /* \"#utility.yul\":2140:2143   */\n      dup3\n        /* \"#utility.yul\":2133:2167   */\n      mstore\n        /* \"#utility.yul\":2064:2173   */\n      pop\n      pop\n      jump\t// out\n        /* \"#utility.yul\":2179:2389   */\n    tag_21:\n        /* \"#utility.yul\":2266:2270   */\n      0x00\n        /* \"#utility.yul\":2304:2306   */\n      0x20\n        /* \"#utility.yul\":2293:2302   */\n      dup3\n        /* \"#utility.yul\":2289:2307   */\n      add\n        /* \"#utility.yul\":2281:2307   */\n      swap1\n      pop\n        /* \"#utility.yul\":2317:2382   */\n      tag_254\n        /* \"#utility.yul\":2379:2380   */\n      0x00\n        /* \"#utility.yul\":2368:2377   */\n      dup4\n        /* \"#utility.yul\":2364:2381   */\n      add\n        /* \"#utility.yul\":2355:2361   */\n      dup5\n        /* \"#utility.yul\":2317:2382   */\n      tag_192\n      jump\t// in\n    tag_254:\n        /* \"#utility.yul\":2179:2389   */\n      swap3\n      swap2\n      pop\n      pop\n      jump\t// out\n        /* \"#utility.yul\":2395:2484   */\n    tag_193:\n        /* \"#utility.yul\":2431:2438   */\n      0x00\n        /* \"#utility.yul\":2471:2477   */\n      0xffff\n        /* \"#utility.yul\":2464:2469   */\n      dup3\n        /* \"#utility.yul\":2460:2478   */\n      and\n        /* \"#utility.yul\":2449:2478   */\n      swap1\n      pop\n        /* \"#utility.yul\":2395:2484   */\n      swap2\n      swap1\n      pop\n      jump\t// out\n        /* \"#utility.yul\":2490:2610   */\n    tag_194:\n        /* \"#utility.yul\":2562:2585   */\n      tag_257\n        /* \"#utility.yul\":2579:2584   */\n      dup2\n        /* \"#utility.yul\":2562:2585   */\n      tag_193\n      jump\t// in\n    tag_257:\n        /* \"#utility.yul\":2555:2560   */\n      dup2\n        /* \"#utility.yul\":2552:2586   */\n      eq\n        /* \"#utility.yul\":2542:2604   */\n      tag_258\n      jumpi\n        /* \"#utility.yul\":2600:2601   */\n      0x00\n        /* \"#utility.yul\":2597:2598   */\n      dup1\n        /* \"#utility.yul\":2590:2602   */\n      revert\n        /* \"#utility.yul\":2542:2604   */\n    tag_258:\n        /* \"#utility.yul\":2490:2610   */\n      pop\n      jump\t// out\n        /* \"#utility.yul\":2616:2753   */\n    tag_195:\n        /* \"#utility.yul\":2661:2666   */\n      0x00\n        /* \"#utility.yul\":2699:2705   */\n      dup2\n        /* \"#utility.yul\":2686:2706   */\n      calldataload\n        /* \"#utility.yul\":2677:2706   */\n      swap1\n      pop\n        /* \"#utility.yul\":2715:2747   */\n      tag_260\n        /* \"#utility.yul\":2741:2746   */\n      dup2\n        /* \"#utility.yul\":2715:2747   */\n      tag_194\n      jump\t// in\n    tag_260:\n        /* \"#utility.yul\":2616:2753   */\n      swap3\n      swap2\n      pop\n      pop\n      jump\t// out\n        /* \"#utility.yul\":2759:3086   */\n    tag_24:\n        /* \"#utility.yul\":2817:2823   */\n      0x00\n        /* \"#utility.yul\":2866:2868   */\n      0x20\n        /* \"#utility.yul\":2854:2863   */\n      dup3\n        /* \"#utility.yul\":2845:2852   */\n      dup5\n        /* \"#utility.yul\":2841:2864   */\n      sub\n        /* \"#utility.yul\":2837:2869   */\n      slt\n        /* \"#utility.yul\":2834:2953   */\n      iszero\n      tag_262\n      jumpi\n        /* \"#utility.yul\":2872:2951   */\n      tag_263\n      tag_182\n      jump\t// in\n    tag_263:\n        /* \"#utility.yul\":2834:2953   */\n    tag_262:\n        /* \"#utility.yul\":2992:2993   */\n      0x00\n        /* \"#utility.yul\":3017:3069   */\n      tag_264\n        /* \"#utility.yul\":3061:3068   */\n      dup5\n        /* \"#utility.yul\":3052:3058   */\n      dup3\n        /* \"#utility.yul\":3041:3050   */\n      dup6\n        /* \"#utility.yul\":3037:3059   */\n      add\n        /* \"#utility.yul\":3017:3069   */\n      tag_195\n      jump\t// in\n    tag_264:\n        /* \"#utility.yul\":3007:3069   */\n      swap2\n      pop\n        /* \"#utility.yul\":2963:3079   */\n      pop\n        /* \"#utility.yul\":2759:3086   */\n      swap3\n      swap2\n      pop\n      pop\n      jump\t// out\n        /* \"#utility.yul\":3092:3421   */\n    tag_28:\n        /* \"#utility.yul\":3151:3157   */\n      0x00\n        /* \"#utility.yul\":3200:3202   */\n      0x20\n        /* \"#utility.yul\":3188:3197   */\n      dup3\n        /* \"#utility.yul\":3179:3186   */\n      dup5\n        /* \"#utility.yul\":3175:3198   */\n      sub\n        /* \"#utility.yul\":3171:3203   */\n      slt\n        /* \"#utility.yul\":3168:3287   */\n      iszero\n      tag_266\n      jumpi\n        /* \"#utility.yul\":3206:3285   */\n      tag_267\n      tag_182\n      jump\t// in\n    tag_267:\n        /* \"#utility.yul\":3168:3287   */\n    tag_266:\n        /* \"#utility.yul\":3326:3327   */\n      0x00\n        /* \"#utility.yul\":3351:3404   */\n      tag_268\n        /* \"#utility.yul\":3396:3403   */\n      dup5\n        /* \"#utility.yul\":3387:3393   */\n      dup3\n        /* \"#utility.yul\":3376:3385   */\n      dup6\n        /* \"#utility.yul\":3372:3394   */\n      add\n        /* \"#utility.yul\":3351:3404   */\n      tag_187\n      jump\t// in\n    tag_268:\n        /* \"#utility.yul\":3341:3404   */\n      swap2\n      pop\n        /* \"#utility.yul\":3297:3414   */\n      pop\n        /* \"#utility.yul\":3092:3421   */\n      swap3\n      swap2\n      pop\n      pop\n      jump\t// out\n        /* \"#utility.yul\":3427:3544   */\n    tag_196:\n        /* \"#utility.yul\":3536:3537   */\n      0x00\n        /* \"#utility.yul\":3533:3534   */\n      dup1\n        /* \"#utility.yul\":3526:3538   */\n      revert\n        /* \"#utility.yul\":3550:3667   */\n    tag_197:\n        /* \"#utility.yul\":3659:3660   */\n      0x00\n        /* \"#utility.yul\":3656:3657   */\n      dup1\n        /* \"#utility.yul\":3649:3661   */\n      revert\n        /* \"#utility.yul\":3673:3790   */\n    tag_198:\n        /* \"#utility.yul\":3782:3783   */\n      0x00\n        /* \"#utility.yul\":3779:3780   */\n      dup1\n        /* \"#utility.yul\":3772:3784   */\n      revert\n        /* \"#utility.yul\":3812:4379   */\n    tag_199:\n        /* \"#utility.yul\":3884:3892   */\n      0x00\n        /* \"#utility.yul\":3894:3900   */\n      dup1\n        /* \"#utility.yul\":3944:3947   */\n      dup4\n        /* \"#utility.yul\":3937:3941   */\n      0x1f\n        /* \"#utility.yul\":3929:3935   */\n      dup5\n        /* \"#utility.yul\":3925:3942   */\n      add\n        /* \"#utility.yul\":3921:3948   */\n      slt\n        /* \"#utility.yul\":3911:4033   */\n      tag_273\n      jumpi\n        /* \"#utility.yul\":3952:4031   */\n      tag_274\n      tag_196\n      jump\t// in\n    tag_274:\n        /* \"#utility.yul\":3911:4033   */\n    tag_273:\n        /* \"#utility.yul\":4065:4071   */\n      dup3\n        /* \"#utility.yul\":4052:4072   */\n      calldataload\n        /* \"#utility.yul\":4042:4072   */\n      swap1\n      pop\n        /* \"#utility.yul\":4095:4113   */\n      0xffffffffffffffff\n        /* \"#utility.yul\":4087:4093   */\n      dup2\n        /* \"#utility.yul\":4084:4114   */\n      gt\n        /* \"#utility.yul\":4081:4198   */\n      iszero\n      tag_275\n      jumpi\n        /* \"#utility.yul\":4117:4196   */\n      tag_276\n      tag_197\n      jump\t// in\n    tag_276:\n        /* \"#utility.yul\":4081:4198   */\n    tag_275:\n        /* \"#utility.yul\":4231:4235   */\n      0x20\n        /* \"#utility.yul\":4223:4229   */\n      dup4\n        /* \"#utility.yul\":4219:4236   */\n      add\n        /* \"#utility.yul\":4207:4236   */\n      swap2\n      pop\n        /* \"#utility.yul\":4285:4288   */\n      dup4\n        /* \"#utility.yul\":4277:4281   */\n      0x20\n        /* \"#utility.yul\":4269:4275   */\n      dup3\n        /* \"#utility.yul\":4265:4282   */\n      mul\n        /* \"#utility.yul\":4255:4263   */\n      dup4\n        /* \"#utility.yul\":4251:4283   */\n      add\n        /* \"#utility.yul\":4248:4289   */\n      gt\n        /* \"#utility.yul\":4245:4373   */\n      iszero\n      tag_277\n      jumpi\n        /* \"#utility.yul\":4292:4371   */\n      tag_278\n      tag_198\n      jump\t// in\n    tag_278:\n        /* \"#utility.yul\":4245:4373   */\n    tag_277:\n        /* \"#utility.yul\":3812:4379   */\n      swap3\n      pop\n      swap3\n      swap1\n      pop\n      jump\t// out\n        /* \"#utility.yul\":4385:4942   */\n    tag_32:\n        /* \"#utility.yul\":4470:4476   */\n      0x00\n        /* \"#utility.yul\":4478:4484   */\n      dup1\n        /* \"#utility.yul\":4527:4529   */\n      0x20\n        /* \"#utility.yul\":4515:4524   */\n      dup4\n        /* \"#utility.yul\":4506:4513   */\n      dup6\n        /* \"#utility.yul\":4502:4525   */\n      sub\n        /* \"#utility.yul\":4498:4530   */\n      slt\n        /* \"#utility.yul\":4495:4614   */\n      iszero\n      tag_280\n      jumpi\n        /* \"#utility.yul\":4533:4612   */\n      tag_281\n      tag_182\n      jump\t// in\n    tag_281:\n        /* \"#utility.yul\":4495:4614   */\n    tag_280:\n        /* \"#utility.yul\":4681:4682   */\n      0x00\n        /* \"#utility.yul\":4670:4679   */\n      dup4\n        /* \"#utility.yul\":4666:4683   */\n      add\n        /* \"#utility.yul\":4653:4684   */\n      calldataload\n        /* \"#utility.yul\":4711:4729   */\n      0xffffffffffffffff\n        /* \"#utility.yul\":4703:4709   */\n      dup2\n        /* \"#utility.yul\":4700:4730   */\n      gt\n        /* \"#utility.yul\":4697:4814   */\n      iszero\n      tag_282\n      jumpi\n        /* \"#utility.yul\":4733:4812   */\n      tag_283\n      tag_183\n      jump\t// in\n    tag_283:\n        /* \"#utility.yul\":4697:4814   */\n    tag_282:\n        /* \"#utility.yul\":4846:4925   */\n      tag_284\n        /* \"#utility.yul\":4917:4924   */\n      dup6\n        /* \"#utility.yul\":4908:4914   */\n      dup3\n        /* \"#utility.yul\":4897:4906   */\n      dup7\n        /* \"#utility.yul\":4893:4915   */\n      add\n        /* \"#utility.yul\":4846:4925   */\n      tag_199\n      jump\t// in\n    tag_284:\n        /* \"#utility.yul\":4828:4925   */\n      swap3\n      pop\n      swap3\n      pop\n        /* \"#utility.yul\":4624:4935   */\n      pop\n        /* \"#utility.yul\":4385:4942   */\n      swap3\n      pop\n      swap3\n      swap1\n      pop\n      jump\t// out\n        /* \"#utility.yul\":4948:5567   */\n    tag_36:\n        /* \"#utility.yul\":5025:5031   */\n      0x00\n        /* \"#utility.yul\":5033:5039   */\n      dup1\n        /* \"#utility.yul\":5041:5047   */\n      0x00\n        /* \"#utility.yul\":5090:5092   */\n      0x60\n        /* \"#utility.yul\":5078:5087   */\n      dup5\n        /* \"#utility.yul\":5069:5076   */\n      dup7\n        /* \"#utility.yul\":5065:5088   */\n      sub\n        /* \"#utility.yul\":5061:5093   */\n      slt\n        /* \"#utility.yul\":5058:5177   */\n      iszero\n      tag_286\n      jumpi\n        /* \"#utility.yul\":5096:5175   */\n      tag_287\n      tag_182\n      jump\t// in\n    tag_287:\n        /* \"#utility.yul\":5058:5177   */\n    tag_286:\n        /* \"#utility.yul\":5216:5217   */\n      0x00\n        /* \"#utility.yul\":5241:5294   */\n      tag_288\n        /* \"#utility.yul\":5286:5293   */\n      dup7\n        /* \"#utility.yul\":5277:5283   */\n      dup3\n        /* \"#utility.yul\":5266:5275   */\n      dup8\n        /* \"#utility.yul\":5262:5284   */\n      add\n        /* \"#utility.yul\":5241:5294   */\n      tag_187\n      jump\t// in\n    tag_288:\n        /* \"#utility.yul\":5231:5294   */\n      swap4\n      pop\n        /* \"#utility.yul\":5187:5304   */\n      pop\n        /* \"#utility.yul\":5343:5345   */\n      0x20\n        /* \"#utility.yul\":5369:5422   */\n      tag_289\n        /* \"#utility.yul\":5414:5421   */\n      dup7\n        /* \"#utility.yul\":5405:5411   */\n      dup3\n        /* \"#utility.yul\":5394:5403   */\n      dup8\n        /* \"#utility.yul\":5390:5412   */\n      add\n        /* \"#utility.yul\":5369:5422   */\n      tag_187\n      jump\t// in\n    tag_289:\n        /* \"#utility.yul\":5359:5422   */\n      swap3\n      pop\n        /* \"#utility.yul\":5314:5432   */\n      pop\n        /* \"#utility.yul\":5471:5473   */\n      0x40\n        /* \"#utility.yul\":5497:5550   */\n      tag_290\n        /* \"#utility.yul\":5542:5549   */\n      dup7\n        /* \"#utility.yul\":5533:5539   */\n      dup3\n        /* \"#utility.yul\":5522:5531   */\n      dup8\n        /* \"#utility.yul\":5518:5540   */\n      add\n        /* \"#utility.yul\":5497:5550   */\n      tag_190\n      jump\t// in\n    tag_290:\n        /* \"#utility.yul\":5487:5550   */\n      swap2\n      pop\n        /* \"#utility.yul\":5442:5560   */\n      pop\n        /* \"#utility.yul\":4948:5567   */\n      swap3\n      pop\n      swap3\n      pop\n      swap3\n      jump\t// out\n        /* \"#utility.yul\":5573:6045   */\n    tag_40:\n        /* \"#utility.yul\":5640:5646   */\n      0x00\n        /* \"#utility.yul\":5648:5654   */\n      dup1\n        /* \"#utility.yul\":5697:5699   */\n      0x40\n        /* \"#utility.yul\":5685:5694   */\n      dup4\n        /* \"#utility.yul\":5676:5683   */\n      dup6\n        /* \"#utility.yul\":5672:5695   */\n      sub\n        /* \"#utility.yul\":5668:5700   */\n      slt\n        /* \"#utility.yul\":5665:5784   */\n      iszero\n      tag_292\n      jumpi\n        /* \"#utility.yul\":5703:5782   */\n      tag_293\n      tag_182\n      jump\t// in\n    tag_293:\n        /* \"#utility.yul\":5665:5784   */\n    tag_292:\n        /* \"#utility.yul\":5823:5824   */\n      0x00\n        /* \"#utility.yul\":5848:5901   */\n      tag_294\n        /* \"#utility.yul\":5893:5900   */\n      dup6\n        /* \"#utility.yul\":5884:5890   */\n      dup3\n        /* \"#utility.yul\":5873:5882   */\n      dup7\n        /* \"#utility.yul\":5869:5891   */\n      add\n        /* \"#utility.yul\":5848:5901   */\n      tag_187\n      jump\t// in\n    tag_294:\n        /* \"#utility.yul\":5838:5901   */\n      swap3\n      pop\n        /* \"#utility.yul\":5794:5911   */\n      pop\n        /* \"#utility.yul\":5950:5952   */\n      0x20\n        /* \"#utility.yul\":5976:6028   */\n      tag_295\n        /* \"#utility.yul\":6020:6027   */\n      dup6\n        /* \"#utility.yul\":6011:6017   */\n      dup3\n        /* \"#utility.yul\":6000:6009   */\n      dup7\n        /* \"#utility.yul\":5996:6018   */\n      add\n        /* \"#utility.yul\":5976:6028   */\n      tag_195\n      jump\t// in\n    tag_295:\n        /* \"#utility.yul\":5966:6028   */\n      swap2\n      pop\n        /* \"#utility.yul\":5921:6038   */\n      pop\n        /* \"#utility.yul\":5573:6045   */\n      swap3\n      pop\n      swap3\n      swap1\n      pop\n      jump\t// out\n        /* \"#utility.yul\":6051:6525   */\n    tag_45:\n        /* \"#utility.yul\":6119:6125   */\n      0x00\n        /* \"#utility.yul\":6127:6133   */\n      dup1\n        /* \"#utility.yul\":6176:6178   */\n      0x40\n        /* \"#utility.yul\":6164:6173   */\n      dup4\n        /* \"#utility.yul\":6155:6162   */\n      dup6\n        /* \"#utility.yul\":6151:6174   */\n      sub\n        /* \"#utility.yul\":6147:6179   */\n      slt\n        /* \"#utility.yul\":6144:6263   */\n      iszero\n      tag_297\n      jumpi\n        /* \"#utility.yul\":6182:6261   */\n      tag_298\n      tag_182\n      jump\t// in\n    tag_298:\n        /* \"#utility.yul\":6144:6263   */\n    tag_297:\n        /* \"#utility.yul\":6302:6303   */\n      0x00\n        /* \"#utility.yul\":6327:6380   */\n      tag_299\n        /* \"#utility.yul\":6372:6379   */\n      dup6\n        /* \"#utility.yul\":6363:6369   */\n      dup3\n        /* \"#utility.yul\":6352:6361   */\n      dup7\n        /* \"#utility.yul\":6348:6370   */\n      add\n        /* \"#utility.yul\":6327:6380   */\n      tag_187\n      jump\t// in\n    tag_299:\n        /* \"#utility.yul\":6317:6380   */\n      swap3\n      pop\n        /* \"#utility.yul\":6273:6390   */\n      pop\n        /* \"#utility.yul\":6429:6431   */\n      0x20\n        /* \"#utility.yul\":6455:6508   */\n      tag_300\n        /* \"#utility.yul\":6500:6507   */\n      dup6\n        /* \"#utility.yul\":6491:6497   */\n      dup3\n        /* \"#utility.yul\":6480:6489   */\n      dup7\n        /* \"#utility.yul\":6476:6498   */\n      add\n        /* \"#utility.yul\":6455:6508   */\n      tag_190\n      jump\t// in\n    tag_300:\n        /* \"#utility.yul\":6445:6508   */\n      swap2\n      pop\n        /* \"#utility.yul\":6400:6518   */\n      pop\n        /* \"#utility.yul\":6051:6525   */\n      swap3\n      pop\n      swap3\n      swap1\n      pop\n      jump\t// out\n        /* \"#utility.yul\":6531:6700   */\n    tag_200:\n        /* \"#utility.yul\":6615:6626   */\n      0x00\n        /* \"#utility.yul\":6649:6655   */\n      dup3\n        /* \"#utility.yul\":6644:6647   */\n      dup3\n        /* \"#utility.yul\":6637:6656   */\n      mstore\n        /* \"#utility.yul\":6689:6693   */\n      0x20\n        /* \"#utility.yul\":6684:6687   */\n      dup3\n        /* \"#utility.yul\":6680:6694   */\n      add\n        /* \"#utility.yul\":6665:6694   */\n      swap1\n      pop\n        /* \"#utility.yul\":6531:6700   */\n      swap3\n      swap2\n      pop\n      pop\n      jump\t// out\n        /* \"#utility.yul\":6706:6886   */\n    tag_201:\n        /* \"#utility.yul\":6846:6878   */\n      0x6f6e6c7920626f756e6420636f6d706c69616e63652063616e2063616c6c0000\n        /* \"#utility.yul\":6842:6843   */\n      0x00\n        /* \"#utility.yul\":6834:6840   */\n      dup3\n        /* \"#utility.yul\":6830:6844   */\n      add\n        /* \"#utility.yul\":6823:6879   */\n      mstore\n        /* \"#utility.yul\":6706:6886   */\n      pop\n      jump\t// out\n        /* \"#utility.yul\":6892:7258   */\n    tag_202:\n        /* \"#utility.yul\":7034:7037   */\n      0x00\n        /* \"#utility.yul\":7055:7122   */\n      tag_304\n        /* \"#utility.yul\":7119:7121   */\n      0x1e\n        /* \"#utility.yul\":7114:7117   */\n      dup4\n        /* \"#utility.yul\":7055:7122   */\n      tag_200\n      jump\t// in\n    tag_304:\n        /* \"#utility.yul\":7048:7122   */\n      swap2\n      pop\n        /* \"#utility.yul\":7131:7224   */\n      tag_305\n        /* \"#utility.yul\":7220:7223   */\n      dup3\n        /* \"#utility.yul\":7131:7224   */\n      tag_201\n      jump\t// in\n    tag_305:\n        /* \"#utility.yul\":7249:7251   */\n      0x20\n        /* \"#utility.yul\":7244:7247   */\n      dup3\n        /* \"#utility.yul\":7240:7252   */\n      add\n        /* \"#utility.yul\":7233:7252   */\n      swap1\n      pop\n        /* \"#utility.yul\":6892:7258   */\n      swap2\n      swap1\n      pop\n      jump\t// out\n        /* \"#utility.yul\":7264:7683   */\n    tag_71:\n        /* \"#utility.yul\":7430:7434   */\n      0x00\n        /* \"#utility.yul\":7468:7470   */\n      0x20\n        /* \"#utility.yul\":7457:7466   */\n      dup3\n        /* \"#utility.yul\":7453:7471   */\n      add\n        /* \"#utility.yul\":7445:7471   */\n      swap1\n      pop\n        /* \"#utility.yul\":7517:7526   */\n      dup2\n        /* \"#utility.yul\":7511:7515   */\n      dup2\n        /* \"#utility.yul\":7507:7527   */\n      sub\n        /* \"#utility.yul\":7503:7504   */\n      0x00\n        /* \"#utility.yul\":7492:7501   */\n      dup4\n        /* \"#utility.yul\":7488:7505   */\n      add\n        /* \"#utility.yul\":7481:7528   */\n      mstore\n        /* \"#utility.yul\":7545:7676   */\n      tag_307\n        /* \"#utility.yul\":7671:7675   */\n      dup2\n        /* \"#utility.yul\":7545:7676   */\n      tag_202\n      jump\t// in\n    tag_307:\n        /* \"#utility.yul\":7537:7676   */\n      swap1\n      pop\n        /* \"#utility.yul\":7264:7683   */\n      swap2\n      swap1\n      pop\n      jump\t// out\n        /* \"#utility.yul\":7689:7865   */\n    tag_203:\n        /* \"#utility.yul\":7829:7857   */\n      0x636f756e74727920616c72656164792072657374726963746564000000000000\n        /* \"#utility.yul\":7825:7826   */\n      0x00\n        /* \"#utility.yul\":7817:7823   */\n      dup3\n        /* \"#utility.yul\":7813:7827   */\n      add\n        /* \"#utility.yul\":7806:7858   */\n      mstore\n        /* \"#utility.yul\":7689:7865   */\n      pop\n      jump\t// out\n        /* \"#utility.yul\":7871:8237   */\n    tag_204:\n        /* \"#utility.yul\":8013:8016   */\n      0x00\n        /* \"#utility.yul\":8034:8101   */\n      tag_310\n        /* \"#utility.yul\":8098:8100   */\n      0x1a\n        /* \"#utility.yul\":8093:8096   */\n      dup4\n        /* \"#utility.yul\":8034:8101   */\n      tag_200\n      jump\t// in\n    tag_310:\n        /* \"#utility.yul\":8027:8101   */\n      swap2\n      pop\n        /* \"#utility.yul\":8110:8203   */\n      tag_311\n        /* \"#utility.yul\":8199:8202   */\n      dup3\n        /* \"#utility.yul\":8110:8203   */\n      tag_203\n      jump\t// in\n    tag_311:\n        /* \"#utility.yul\":8228:8230   */\n      0x20\n        /* \"#utility.yul\":8223:8226   */\n      dup3\n        /* \"#utility.yul\":8219:8231   */\n      add\n        /* \"#utility.yul\":8212:8231   */\n      swap1\n      pop\n        /* \"#utility.yul\":7871:8237   */\n      swap2\n      swap1\n      pop\n      jump\t// out\n        /* \"#utility.yul\":8243:8662   */\n    tag_75:\n        /* \"#utility.yul\":8409:8413   */\n      0x00\n        /* \"#utility.yul\":8447:8449   */\n      0x20\n        /* \"#utility.yul\":8436:8445   */\n      dup3\n        /* \"#utility.yul\":8432:8450   */\n      add\n        /* \"#utility.yul\":8424:8450   */\n      swap1\n      pop\n        /* \"#utility.yul\":8496:8505   */\n      dup2\n        /* \"#utility.yul\":8490:8494   */\n      dup2\n        /* \"#utility.yul\":8486:8506   */\n      sub\n        /* \"#utility.yul\":8482:8483   */\n      0x00\n        /* \"#utility.yul\":8471:8480   */\n      dup4\n        /* \"#utility.yul\":8467:8484   */\n      add\n        /* \"#utility.yul\":8460:8507   */\n      mstore\n        /* \"#utility.yul\":8524:8655   */\n      tag_313\n        /* \"#utility.yul\":8650:8654   */\n      dup2\n        /* \"#utility.yul\":8524:8655   */\n      tag_204\n      jump\t// in\n    tag_313:\n        /* \"#utility.yul\":8516:8655   */\n      swap1\n      pop\n        /* \"#utility.yul\":8243:8662   */\n      swap2\n      swap1\n      pop\n      jump\t// out\n        /* \"#utility.yul\":8668:8783   */\n    tag_205:\n        /* \"#utility.yul\":8753:8776   */\n      tag_315\n        /* \"#utility.yul\":8770:8775   */\n      dup2\n        /* \"#utility.yul\":8753:8776   */\n      tag_193\n      jump\t// in\n    tag_315:\n        /* \"#utility.yul\":8748:8751   */\n      dup3\n        /* \"#utility.yul\":8741:8777   */\n      mstore\n        /* \"#utility.yul\":8668:8783   */\n      pop\n      pop\n      jump\t// out\n        /* \"#utility.yul\":8789:9007   */\n    tag_77:\n        /* \"#utility.yul\":8880:8884   */\n      0x00\n        /* \"#utility.yul\":8918:8920   */\n      0x20\n        /* \"#utility.yul\":8907:8916   */\n      dup3\n        /* \"#utility.yul\":8903:8921   */\n      add\n        /* \"#utility.yul\":8895:8921   */\n      swap1\n      pop\n        /* \"#utility.yul\":8931:9000   */\n      tag_317\n        /* \"#utility.yul\":8997:8998   */\n      0x00\n        /* \"#utility.yul\":8986:8995   */\n      dup4\n        /* \"#utility.yul\":8982:8999   */\n      add\n        /* \"#utility.yul\":8973:8979   */\n      dup5\n        /* \"#utility.yul\":8931:9000   */\n      tag_205\n      jump\t// in\n    tag_317:\n        /* \"#utility.yul\":8789:9007   */\n      swap3\n      swap2\n      pop\n      pop\n      jump\t// out\n        /* \"#utility.yul\":9013:9194   */\n    tag_206:\n        /* \"#utility.yul\":9153:9186   */\n      0x696e76616c696420617267756d656e74202d207a65726f206164647265737300\n        /* \"#utility.yul\":9149:9150   */\n      0x00\n        /* \"#utility.yul\":9141:9147   */\n      dup3\n        /* \"#utility.yul\":9137:9151   */\n      add\n        /* \"#utility.yul\":9130:9187   */\n      mstore\n        /* \"#utility.yul\":9013:9194   */\n      pop\n      jump\t// out\n        /* \"#utility.yul\":9200:9566   */\n    tag_207:\n        /* \"#utility.yul\":9342:9345   */\n      0x00\n        /* \"#utility.yul\":9363:9430   */\n      tag_320\n        /* \"#utility.yul\":9427:9429   */\n      0x1f\n        /* \"#utility.yul\":9422:9425   */\n      dup4\n        /* \"#utility.yul\":9363:9430   */\n      tag_200\n      jump\t// in\n    tag_320:\n        /* \"#utility.yul\":9356:9430   */\n      swap2\n      pop\n        /* \"#utility.yul\":9439:9532   */\n      tag_321\n        /* \"#utility.yul\":9528:9531   */\n      dup3\n        /* \"#utility.yul\":9439:9532   */\n      tag_206\n      jump\t// in\n    tag_321:\n        /* \"#utility.yul\":9557:9559   */\n      0x20\n        /* \"#utility.yul\":9552:9555   */\n      dup3\n        /* \"#utility.yul\":9548:9560   */\n      add\n        /* \"#utility.yul\":9541:9560   */\n      swap1\n      pop\n        /* \"#utility.yul\":9200:9566   */\n      swap2\n      swap1\n      pop\n      jump\t// out\n        /* \"#utility.yul\":9572:9991   */\n    tag_84:\n        /* \"#utility.yul\":9738:9742   */\n      0x00\n        /* \"#utility.yul\":9776:9778   */\n      0x20\n        /* \"#utility.yul\":9765:9774   */\n      dup3\n        /* \"#utility.yul\":9761:9779   */\n      add\n        /* \"#utility.yul\":9753:9779   */\n      swap1\n      pop\n        /* \"#utility.yul\":9825:9834   */\n      dup2\n        /* \"#utility.yul\":9819:9823   */\n      dup2\n        /* \"#utility.yul\":9815:9835   */\n      sub\n        /* \"#utility.yul\":9811:9812   */\n      0x00\n        /* \"#utility.yul\":9800:9809   */\n      dup4\n        /* \"#utility.yul\":9796:9813   */\n      add\n        /* \"#utility.yul\":9789:9836   */\n      mstore\n        /* \"#utility.yul\":9853:9984   */\n      tag_323\n        /* \"#utility.yul\":9979:9983   */\n      dup2\n        /* \"#utility.yul\":9853:9984   */\n      tag_207\n      jump\t// in\n    tag_323:\n        /* \"#utility.yul\":9845:9984   */\n      swap1\n      pop\n        /* \"#utility.yul\":9572:9991   */\n      swap2\n      swap1\n      pop\n      jump\t// out\n        /* \"#utility.yul\":9997:10217   */\n    tag_208:\n        /* \"#utility.yul\":10137:10171   */\n      0x6f6e6c7920636f6d706c69616e636520636f6e74726163742063616e2063616c\n        /* \"#utility.yul\":10133:10134   */\n      0x00\n        /* \"#utility.yul\":10125:10131   */\n      dup3\n        /* \"#utility.yul\":10121:10135   */\n      add\n        /* \"#utility.yul\":10114:10172   */\n      mstore\n        /* \"#utility.yul\":10206:10209   */\n      0x6c00000000000000000000000000000000000000000000000000000000000000\n        /* \"#utility.yul\":10201:10203   */\n      0x20\n        /* \"#utility.yul\":10193:10199   */\n      dup3\n        /* \"#utility.yul\":10189:10204   */\n      add\n        /* \"#utility.yul\":10182:10210   */\n      mstore\n        /* \"#utility.yul\":9997:10217   */\n      pop\n      jump\t// out\n        /* \"#utility.yul\":10223:10589   */\n    tag_209:\n        /* \"#utility.yul\":10365:10368   */\n      0x00\n        /* \"#utility.yul\":10386:10453   */\n      tag_326\n        /* \"#utility.yul\":10450:10452   */\n      0x21\n        /* \"#utility.yul\":10445:10448   */\n      dup4\n        /* \"#utility.yul\":10386:10453   */\n      tag_200\n      jump\t// in\n    tag_326:\n        /* \"#utility.yul\":10379:10453   */\n      swap2\n      pop\n        /* \"#utility.yul\":10462:10555   */\n      tag_327\n        /* \"#utility.yul\":10551:10554   */\n      dup3\n        /* \"#utility.yul\":10462:10555   */\n      tag_208\n      jump\t// in\n    tag_327:\n        /* \"#utility.yul\":10580:10582   */\n      0x40\n        /* \"#utility.yul\":10575:10578   */\n      dup3\n        /* \"#utility.yul\":10571:10583   */\n      add\n        /* \"#utility.yul\":10564:10583   */\n      swap1\n      pop\n        /* \"#utility.yul\":10223:10589   */\n      swap2\n      swap1\n      pop\n      jump\t// out\n        /* \"#utility.yul\":10595:11014   */\n    tag_87:\n        /* \"#utility.yul\":10761:10765   */\n      0x00\n        /* \"#utility.yul\":10799:10801   */\n      0x20\n        /* \"#utility.yul\":10788:10797   */\n      dup3\n        /* \"#utility.yul\":10784:10802   */\n      add\n        /* \"#utility.yul\":10776:10802   */\n      swap1\n      pop\n        /* \"#utility.yul\":10848:10857   */\n      dup2\n        /* \"#utility.yul\":10842:10846   */\n      dup2\n        /* \"#utility.yul\":10838:10858   */\n      sub\n        /* \"#utility.yul\":10834:10835   */\n      0x00\n        /* \"#utility.yul\":10823:10832   */\n      dup4\n        /* \"#utility.yul\":10819:10836   */\n      add\n        /* \"#utility.yul\":10812:10859   */\n      mstore\n        /* \"#utility.yul\":10876:11007   */\n      tag_329\n        /* \"#utility.yul\":11002:11006   */\n      dup2\n        /* \"#utility.yul\":10876:11007   */\n      tag_209\n      jump\t// in\n    tag_329:\n        /* \"#utility.yul\":10868:11007   */\n      swap1\n      pop\n        /* \"#utility.yul\":10595:11014   */\n      swap2\n      swap1\n      pop\n      jump\t// out\n        /* \"#utility.yul\":11020:11251   */\n    tag_210:\n        /* \"#utility.yul\":11160:11194   */\n      0x6d6178696d756d203139352063616e20626520756e7265737472696374656420\n        /* \"#utility.yul\":11156:11157   */\n      0x00\n        /* \"#utility.yul\":11148:11154   */\n      dup3\n        /* \"#utility.yul\":11144:11158   */\n      add\n        /* \"#utility.yul\":11137:11195   */\n      mstore\n        /* \"#utility.yul\":11229:11243   */\n      0x696e206f6e652062617463680000000000000000000000000000000000000000\n        /* \"#utility.yul\":11224:11226   */\n      0x20\n        /* \"#utility.yul\":11216:11222   */\n      dup3\n        /* \"#utility.yul\":11212:11227   */\n      add\n        /* \"#utility.yul\":11205:11244   */\n      mstore\n        /* \"#utility.yul\":11020:11251   */\n      pop\n      jump\t// out\n        /* \"#utility.yul\":11257:11623   */\n    tag_211:\n        /* \"#utility.yul\":11399:11402   */\n      0x00\n        /* \"#utility.yul\":11420:11487   */\n      tag_332\n        /* \"#utility.yul\":11484:11486   */\n      0x2c\n        /* \"#utility.yul\":11479:11482   */\n      dup4\n        /* \"#utility.yul\":11420:11487   */\n      tag_200\n      jump\t// in\n    tag_332:\n        /* \"#utility.yul\":11413:11487   */\n      swap2\n      pop\n        /* \"#utility.yul\":11496:11589   */\n      tag_333\n        /* \"#utility.yul\":11585:11588   */\n      dup3\n        /* \"#utility.yul\":11496:11589   */\n      tag_210\n      jump\t// in\n    tag_333:\n        /* \"#utility.yul\":11614:11616   */\n      0x40\n        /* \"#utility.yul\":11609:11612   */\n      dup3\n        /* \"#utility.yul\":11605:11617   */\n      add\n        /* \"#utility.yul\":11598:11617   */\n      swap1\n      pop\n        /* \"#utility.yul\":11257:11623   */\n      swap2\n      swap1\n      pop\n      jump\t// out\n        /* \"#utility.yul\":11629:12048   */\n    tag_94:\n        /* \"#utility.yul\":11795:11799   */\n      0x00\n        /* \"#utility.yul\":11833:11835   */\n      0x20\n        /* \"#utility.yul\":11822:11831   */\n      dup3\n        /* \"#utility.yul\":11818:11836   */\n      add\n        /* \"#utility.yul\":11810:11836   */\n      swap1\n      pop\n        /* \"#utility.yul\":11882:11891   */\n      dup2\n        /* \"#utility.yul\":11876:11880   */\n      dup2\n        /* \"#utility.yul\":11872:11892   */\n      sub\n        /* \"#utility.yul\":11868:11869   */\n      0x00\n        /* \"#utility.yul\":11857:11866   */\n      dup4\n        /* \"#utility.yul\":11853:11870   */\n      add\n        /* \"#utility.yul\":11846:11893   */\n      mstore\n        /* \"#utility.yul\":11910:12041   */\n      tag_335\n        /* \"#utility.yul\":12036:12040   */\n      dup2\n        /* \"#utility.yul\":11910:12041   */\n      tag_211\n      jump\t// in\n    tag_335:\n        /* \"#utility.yul\":11902:12041   */\n      swap1\n      pop\n        /* \"#utility.yul\":11629:12048   */\n      swap2\n      swap1\n      pop\n      jump\t// out\n        /* \"#utility.yul\":12054:12234   */\n    tag_100:\n        /* \"#utility.yul\":12102:12179   */\n      0x4e487b7100000000000000000000000000000000000000000000000000000000\n        /* \"#utility.yul\":12099:12100   */\n      0x00\n        /* \"#utility.yul\":12092:12180   */\n      mstore\n        /* \"#utility.yul\":12199:12203   */\n      0x32\n        /* \"#utility.yul\":12196:12197   */\n      0x04\n        /* \"#utility.yul\":12189:12204   */\n      mstore\n        /* \"#utility.yul\":12223:12227   */\n      0x24\n        /* \"#utility.yul\":12220:12221   */\n      0x00\n        /* \"#utility.yul\":12213:12228   */\n      revert\n        /* \"#utility.yul\":12240:12412   */\n    tag_212:\n        /* \"#utility.yul\":12380:12404   */\n      0x636f756e747279206e6f74207265737472696374656400000000000000000000\n        /* \"#utility.yul\":12376:12377   */\n      0x00\n        /* \"#utility.yul\":12368:12374   */\n      dup3\n        /* \"#utility.yul\":12364:12378   */\n      add\n        /* \"#utility.yul\":12357:12405   */\n      mstore\n        /* \"#utility.yul\":12240:12412   */\n      pop\n      jump\t// out\n        /* \"#utility.yul\":12418:12784   */\n    tag_213:\n        /* \"#utility.yul\":12560:12563   */\n      0x00\n        /* \"#utility.yul\":12581:12648   */\n      tag_339\n        /* \"#utility.yul\":12645:12647   */\n      0x16\n        /* \"#utility.yul\":12640:12643   */\n      dup4\n        /* \"#utility.yul\":12581:12648   */\n      tag_200\n      jump\t// in\n    tag_339:\n        /* \"#utility.yul\":12574:12648   */\n      swap2\n      pop\n        /* \"#utility.yul\":12657:12750   */\n      tag_340\n        /* \"#utility.yul\":12746:12749   */\n      dup3\n        /* \"#utility.yul\":12657:12750   */\n      tag_212\n      jump\t// in\n    tag_340:\n        /* \"#utility.yul\":12775:12777   */\n      0x20\n        /* \"#utility.yul\":12770:12773   */\n      dup3\n        /* \"#utility.yul\":12766:12778   */\n      add\n        /* \"#utility.yul\":12759:12778   */\n      swap1\n      pop\n        /* \"#utility.yul\":12418:12784   */\n      swap2\n      swap1\n      pop\n      jump\t// out\n        /* \"#utility.yul\":12790:13209   */\n    tag_104:\n        /* \"#utility.yul\":12956:12960   */\n      0x00\n        /* \"#utility.yul\":12994:12996   */\n      0x20\n        /* \"#utility.yul\":12983:12992   */\n      dup3\n        /* \"#utility.yul\":12979:12997   */\n      add\n        /* \"#utility.yul\":12971:12997   */\n      swap1\n      pop\n        /* \"#utility.yul\":13043:13052   */\n      dup2\n        /* \"#utility.yul\":13037:13041   */\n      dup2\n        /* \"#utility.yul\":13033:13053   */\n      sub\n        /* \"#utility.yul\":13029:13030   */\n      0x00\n        /* \"#utility.yul\":13018:13027   */\n      dup4\n        /* \"#utility.yul\":13014:13031   */\n      add\n        /* \"#utility.yul\":13007:13054   */\n      mstore\n        /* \"#utility.yul\":13071:13202   */\n      tag_342\n        /* \"#utility.yul\":13197:13201   */\n      dup2\n        /* \"#utility.yul\":13071:13202   */\n      tag_213\n      jump\t// in\n    tag_342:\n        /* \"#utility.yul\":13063:13202   */\n      swap1\n      pop\n        /* \"#utility.yul\":12790:13209   */\n      swap2\n      swap1\n      pop\n      jump\t// out\n        /* \"#utility.yul\":13215:13395   */\n    tag_214:\n        /* \"#utility.yul\":13263:13340   */\n      0x4e487b7100000000000000000000000000000000000000000000000000000000\n        /* \"#utility.yul\":13260:13261   */\n      0x00\n        /* \"#utility.yul\":13253:13341   */\n      mstore\n        /* \"#utility.yul\":13360:13364   */\n      0x11\n        /* \"#utility.yul\":13357:13358   */\n      0x04\n        /* \"#utility.yul\":13350:13365   */\n      mstore\n        /* \"#utility.yul\":13384:13388   */\n      0x24\n        /* \"#utility.yul\":13381:13382   */\n      0x00\n        /* \"#utility.yul\":13374:13389   */\n      revert\n        /* \"#utility.yul\":13401:13634   */\n    tag_113:\n        /* \"#utility.yul\":13440:13443   */\n      0x00\n        /* \"#utility.yul\":13463:13487   */\n      tag_345\n        /* \"#utility.yul\":13481:13486   */\n      dup3\n        /* \"#utility.yul\":13463:13487   */\n      tag_188\n      jump\t// in\n    tag_345:\n        /* \"#utility.yul\":13454:13487   */\n      swap2\n      pop\n        /* \"#utility.yul\":13509:13575   */\n      0xffffffffffffffffffffffffffffffffffffffffffffffffffffffffffffffff\n        /* \"#utility.yul\":13502:13507   */\n      dup3\n        /* \"#utility.yul\":13499:13576   */\n      sub\n        /* \"#utility.yul\":13496:13599   */\n      tag_346\n      jumpi\n        /* \"#utility.yul\":13579:13597   */\n      tag_347\n      tag_214\n      jump\t// in\n    tag_347:\n        /* \"#utility.yul\":13496:13599   */\n    tag_346:\n        /* \"#utility.yul\":13626:13627   */\n      0x01\n        /* \"#utility.yul\":13619:13624   */\n      dup3\n        /* \"#utility.yul\":13615:13628   */\n      add\n        /* \"#utility.yul\":13608:13628   */\n      swap1\n      pop\n        /* \"#utility.yul\":13401:13634   */\n      swap2\n      swap1\n      pop\n      jump\t// out\n        /* \"#utility.yul\":13640:13814   */\n    tag_215:\n        /* \"#utility.yul\":13780:13806   */\n      0x636f6d706c69616e636520616c726561647920626f756e640000000000000000\n        /* \"#utility.yul\":13776:13777   */\n      0x00\n        /* \"#utility.yul\":13768:13774   */\n      dup3\n        /* \"#utility.yul\":13764:13778   */\n      add\n        /* \"#utility.yul\":13757:13807   */\n      mstore\n        /* \"#utility.yul\":13640:13814   */\n      pop\n      jump\t// out\n        /* \"#utility.yul\":13820:14186   */\n    tag_216:\n        /* \"#utility.yul\":13962:13965   */\n      0x00\n        /* \"#utility.yul\":13983:14050   */\n      tag_350\n        /* \"#utility.yul\":14047:14049   */\n      0x18\n        /* \"#utility.yul\":14042:14045   */\n      dup4\n        /* \"#utility.yul\":13983:14050   */\n      tag_200\n      jump\t// in\n    tag_350:\n        /* \"#utility.yul\":13976:14050   */\n      swap2\n      pop\n        /* \"#utility.yul\":14059:14152   */\n      tag_351\n        /* \"#utility.yul\":14148:14151   */\n      dup3\n        /* \"#utility.yul\":14059:14152   */\n      tag_215\n      jump\t// in\n    tag_351:\n        /* \"#utility.yul\":14177:14179   */\n      0x20\n        /* \"#utility.yul\":14172:14175   */\n      dup3\n        /* \"#utility.yul\":14168:14180   */\n      add\n        /* \"#utility.yul\":14161:14180   */\n      swap1\n      pop\n        /* \"#utility.yul\":13820:14186   */\n      swap2\n      swap1\n      pop\n      jump\t// out\n        /* \"#utility.yul\":14192:14611   */\n    tag_128:\n        /* \"#utility.yul\":14358:14362   */\n      0x00\n        /* \"#utility.yul\":14396:14398   */\n      0x20\n        /* \"#utility.yul\":14385:14394   */\n      dup3\n        /* \"#utility.yul\":14381:14399   */\n      add\n        /* \"#utility.yul\":14373:14399   */\n      swap1\n      pop\n        /* \"#utility.yul\":14445:14454   */\n      dup2\n        /* \"#utility.yul\":14439:14443   */\n      dup2\n        /* \"#utility.yul\":14435:14455   */\n      sub\n        /* \"#utility.yul\":14431:14432   */\n      0x00\n        /* \"#utility.yul\":14420:14429   */\n      dup4\n        /* \"#utility.yul\":14416:14433   */\n      add\n        /* \"#utility.yul\":14409:14456   */\n      mstore\n        /* \"#utility.yul\":14473:14604   */\n      tag_353\n        /* \"#utility.yul\":14599:14603   */\n      dup2\n        /* \"#utility.yul\":14473:14604   */\n      tag_216\n      jump\t// in\n    tag_353:\n        /* \"#utility.yul\":14465:14604   */\n      swap1\n      pop\n        /* \"#utility.yul\":14192:14611   */\n      swap2\n      swap1\n      pop\n      jump\t// out\n        /* \"#utility.yul\":14617:14846   */\n    tag_217:\n        /* \"#utility.yul\":14757:14791   */\n      0x6d6178696d756d203139352063616e206265207265737472696374656420696e\n        /* \"#utility.yul\":14753:14754   */\n      0x00\n        /* \"#utility.yul\":14745:14751   */\n      dup3\n        /* \"#utility.yul\":14741:14755   */\n      add\n        /* \"#utility.yul\":14734:14792   */\n      mstore\n        /* \"#utility.yul\":14826:14838   */\n      0x206f6e6520626174636800000000000000000000000000000000000000000000\n        /* \"#utility.yul\":14821:14823   */\n      0x20\n        /* \"#utility.yul\":14813:14819   */\n      dup3\n        /* \"#utility.yul\":14809:14824   */\n      add\n        /* \"#utility.yul\":14802:14839   */\n      mstore\n        /* \"#utility.yul\":14617:14846   */\n      pop\n      jump\t// out\n        /* \"#utility.yul\":14852:15218   */\n    tag_218:\n        /* \"#utility.yul\":14994:14997   */\n      0x00\n        /* \"#utility.yul\":15015:15082   */\n      tag_356\n        /* \"#utility.yul\":15079:15081   */\n      0x2a\n        /* \"#utility.yul\":15074:15077   */\n      dup4\n        /* \"#utility.yul\":15015:15082   */\n      tag_200\n      jump\t// in\n    tag_356:\n        /* \"#utility.yul\":15008:15082   */\n      swap2\n      pop\n        /* \"#utility.yul\":15091:15184   */\n      tag_357\n        /* \"#utility.yul\":15180:15183   */\n      dup3\n        /* \"#utility.yul\":15091:15184   */\n      tag_217\n      jump\t// in\n    tag_357:\n        /* \"#utility.yul\":15209:15211   */\n      0x40\n        /* \"#utility.yul\":15204:15207   */\n      dup3\n        /* \"#utility.yul\":15200:15212   */\n      add\n        /* \"#utility.yul\":15193:15212   */\n      swap1\n      pop\n        /* \"#utility.yul\":14852:15218   */\n      swap2\n      swap1\n      pop\n      jump\t// out\n        /* \"#utility.yul\":15224:15643   */\n    tag_145:\n        /* \"#utility.yul\":15390:15394   */\n      0x00\n        /* \"#utility.yul\":15428:15430   */\n      0x20\n        /* \"#utility.yul\":15417:15426   */\n      dup3\n        /* \"#utility.yul\":15413:15431   */\n      add\n        /* \"#utility.yul\":15405:15431   */\n      swap1\n      pop\n        /* \"#utility.yul\":15477:15486   */\n      dup2\n        /* \"#utility.yul\":15471:15475   */\n      dup2\n        /* \"#utility.yul\":15467:15487   */\n      sub\n        /* \"#utility.yul\":15463:15464   */\n      0x00\n        /* \"#utility.yul\":15452:15461   */\n      dup4\n        /* \"#utility.yul\":15448:15465   */\n      add\n        /* \"#utility.yul\":15441:15488   */\n      mstore\n        /* \"#utility.yul\":15505:15636   */\n      tag_359\n        /* \"#utility.yul\":15631:15635   */\n      dup2\n        /* \"#utility.yul\":15505:15636   */\n      tag_218\n      jump\t// in\n    tag_359:\n        /* \"#utility.yul\":15497:15636   */\n      swap1\n      pop\n        /* \"#utility.yul\":15224:15643   */\n      swap2\n      swap1\n      pop\n      jump\t// out\n        /* \"#utility.yul\":15649:15792   */\n    tag_219:\n        /* \"#utility.yul\":15706:15711   */\n      0x00\n        /* \"#utility.yul\":15737:15743   */\n      dup2\n        /* \"#utility.yul\":15731:15744   */\n      mload\n        /* \"#utility.yul\":15722:15744   */\n      swap1\n      pop\n        /* \"#utility.yul\":15753:15786   */\n      tag_361\n        /* \"#utility.yul\":15780:15785   */\n      dup2\n        /* \"#utility.yul\":15753:15786   */\n      tag_186\n      jump\t// in\n    tag_361:\n        /* \"#utility.yul\":15649:15792   */\n      swap3\n      swap2\n      pop\n      pop\n      jump\t// out\n        /* \"#utility.yul\":15798:16149   */\n    tag_170:\n        /* \"#utility.yul\":15868:15874   */\n      0x00\n        /* \"#utility.yul\":15917:15919   */\n      0x20\n        /* \"#utility.yul\":15905:15914   */\n      dup3\n        /* \"#utility.yul\":15896:15903   */\n      dup5\n        /* \"#utility.yul\":15892:15915   */\n      sub\n        /* \"#utility.yul\":15888:15920   */\n      slt\n        /* \"#utility.yul\":15885:16004   */\n      iszero\n      tag_363\n      jumpi\n        /* \"#utility.yul\":15923:16002   */\n      tag_364\n      tag_182\n      jump\t// in\n    tag_364:\n        /* \"#utility.yul\":15885:16004   */\n    tag_363:\n        /* \"#utility.yul\":16043:16044   */\n      0x00\n        /* \"#utility.yul\":16068:16132   */\n      tag_365\n        /* \"#utility.yul\":16124:16131   */\n      dup5\n        /* \"#utility.yul\":16115:16121   */\n      dup3\n        /* \"#utility.yul\":16104:16113   */\n      dup6\n        /* \"#utility.yul\":16100:16122   */\n      add\n        /* \"#utility.yul\":16068:16132   */\n      tag_219\n      jump\t// in\n    tag_365:\n        /* \"#utility.yul\":16058:16132   */\n      swap2\n      pop\n        /* \"#utility.yul\":16014:16142   */\n      pop\n        /* \"#utility.yul\":15798:16149   */\n      swap3\n      swap2\n      pop\n      pop\n      jump\t// out\n        /* \"#utility.yul\":16155:16277   */\n    tag_220:\n        /* \"#utility.yul\":16218:16225   */\n      0x00\n        /* \"#utility.yul\":16247:16271   */\n      tag_367\n        /* \"#utility.yul\":16265:16270   */\n      dup3\n        /* \"#utility.yul\":16247:16271   */\n      tag_185\n      jump\t// in\n    tag_367:\n        /* \"#utility.yul\":16236:16271   */\n      swap1\n      pop\n        /* \"#utility.yul\":16155:16277   */\n      swap2\n      swap1\n      pop\n      jump\t// out\n        /* \"#utility.yul\":16283:16457   */\n    tag_221:\n        /* \"#utility.yul\":16382:16432   */\n      tag_369\n        /* \"#utility.yul\":16426:16431   */\n      dup2\n        /* \"#utility.yul\":16382:16432   */\n      tag_220\n      jump\t// in\n    tag_369:\n        /* \"#utility.yul\":16375:16380   */\n      dup2\n        /* \"#utility.yul\":16372:16433   */\n      eq\n        /* \"#utility.yul\":16362:16451   */\n      tag_370\n      jumpi\n        /* \"#utility.yul\":16447:16448   */\n      0x00\n        /* \"#utility.yul\":16444:16445   */\n      dup1\n        /* \"#utility.yul\":16437:16449   */\n      revert\n        /* \"#utility.yul\":16362:16451   */\n    tag_370:\n        /* \"#utility.yul\":16283:16457   */\n      pop\n      jump\t// out\n        /* \"#utility.yul\":16463:16658   */\n    tag_222:\n        /* \"#utility.yul\":16546:16551   */\n      0x00\n        /* \"#utility.yul\":16577:16583   */\n      dup2\n        /* \"#utility.yul\":16571:16584   */\n      mload\n        /* \"#utility.yul\":16562:16584   */\n      swap1\n      pop\n        /* \"#utility.yul\":16593:16652   */\n      tag_372\n        /* \"#utility.yul\":16646:16651   */\n      dup2\n        /* \"#utility.yul\":16593:16652   */\n      tag_221\n      jump\t// in\n    tag_372:\n        /* \"#utility.yul\":16463:16658   */\n      swap3\n      swap2\n      pop\n      pop\n      jump\t// out\n        /* \"#utility.yul\":16664:17067   */\n    tag_174:\n        /* \"#utility.yul\":16760:16766   */\n      0x00\n        /* \"#utility.yul\":16809:16811   */\n      0x20\n        /* \"#utility.yul\":16797:16806   */\n      dup3\n        /* \"#utility.yul\":16788:16795   */\n      dup5\n        /* \"#utility.yul\":16784:16807   */\n      sub\n        /* \"#utility.yul\":16780:16812   */\n      slt\n        /* \"#utility.yul\":16777:16896   */\n      iszero\n      tag_374\n      jumpi\n        /* \"#utility.yul\":16815:16894   */\n      tag_375\n      tag_182\n      jump\t// in\n    tag_375:\n        /* \"#utility.yul\":16777:16896   */\n    tag_374:\n        /* \"#utility.yul\":16935:16936   */\n      0x00\n        /* \"#utility.yul\":16960:17050   */\n      tag_376\n        /* \"#utility.yul\":17042:17049   */\n      dup5\n        /* \"#utility.yul\":17033:17039   */\n      dup3\n        /* \"#utility.yul\":17022:17031   */\n      dup6\n        /* \"#utility.yul\":17018:17040   */\n      add\n        /* \"#utility.yul\":16960:17050   */\n      tag_222\n      jump\t// in\n    tag_376:\n        /* \"#utility.yul\":16950:17050   */\n      swap2\n      pop\n        /* \"#utility.yul\":16906:17060   */\n      pop\n        /* \"#utility.yul\":16664:17067   */\n      swap3\n      swap2\n      pop\n      pop\n      jump\t// out\n        /* \"#utility.yul\":17073:17191   */\n    tag_223:\n        /* \"#utility.yul\":17160:17184   */\n      tag_378\n        /* \"#utility.yul\":17178:17183   */\n      dup2\n        /* \"#utility.yul\":17160:17184   */\n      tag_185\n      jump\t// in\n    tag_378:\n        /* \"#utility.yul\":17155:17158   */\n      dup3\n        /* \"#utility.yul\":17148:17185   */\n      mstore\n        /* \"#utility.yul\":17073:17191   */\n      pop\n      pop\n      jump\t// out\n        /* \"#utility.yul\":17197:17419   */\n    tag_176:\n        /* \"#utility.yul\":17290:17294   */\n      0x00\n        /* \"#utility.yul\":17328:17330   */\n      0x20\n        /* \"#utility.yul\":17317:17326   */\n      dup3\n        /* \"#utility.yul\":17313:17331   */\n      add\n        /* \"#utility.yul\":17305:17331   */\n      swap1\n      pop\n        /* \"#utility.yul\":17341:17412   */\n      tag_380\n        /* \"#utility.yul\":17409:17410   */\n      0x00\n        /* \"#utility.yul\":17398:17407   */\n      dup4\n        /* \"#utility.yul\":17394:17411   */\n      add\n        /* \"#utility.yul\":17385:17391   */\n      dup5\n        /* \"#utility.yul\":17341:17412   */\n      tag_223\n      jump\t// in\n    tag_380:\n        /* \"#utility.yul\":17197:17419   */\n      swap3\n      swap2\n      pop\n      pop\n      jump\t// out\n        /* \"#utility.yul\":17425:17566   */\n    tag_224:\n        /* \"#utility.yul\":17481:17486   */\n      0x00\n        /* \"#utility.yul\":17512:17518   */\n      dup2\n        /* \"#utility.yul\":17506:17519   */\n      mload\n        /* \"#utility.yul\":17497:17519   */\n      swap1\n      pop\n        /* \"#utility.yul\":17528:17560   */\n      tag_382\n        /* \"#utility.yul\":17554:17559   */\n      dup2\n        /* \"#utility.yul\":17528:17560   */\n      tag_194\n      jump\t// in\n    tag_382:\n        /* \"#utility.yul\":17425:17566   */\n      swap3\n      swap2\n      pop\n      pop\n      jump\t// out\n        /* \"#utility.yul\":17572:17921   */\n    tag_180:\n        /* \"#utility.yul\":17641:17647   */\n      0x00\n        /* \"#utility.yul\":17690:17692   */\n      0x20\n        /* \"#utility.yul\":17678:17687   */\n      dup3\n        /* \"#utility.yul\":17669:17676   */\n      dup5\n        /* \"#utility.yul\":17665:17688   */\n      sub\n        /* \"#utility.yul\":17661:17693   */\n      slt\n        /* \"#utility.yul\":17658:17777   */\n      iszero\n      tag_384\n      jumpi\n        /* \"#utility.yul\":17696:17775   */\n      tag_385\n      tag_182\n      jump\t// in\n    tag_385:\n        /* \"#utility.yul\":17658:17777   */\n    tag_384:\n        /* \"#utility.yul\":17816:17817   */\n      0x00\n        /* \"#utility.yul\":17841:17904   */\n      tag_386\n        /* \"#utility.yul\":17896:17903   */\n      dup5\n        /* \"#utility.yul\":17887:17893   */\n      dup3\n        /* \"#utility.yul\":17876:17885   */\n      dup6\n        /* \"#utility.yul\":17872:17894   */\n      add\n        /* \"#utility.yul\":17841:17904   */\n      tag_224\n      jump\t// in\n    tag_386:\n        /* \"#utility.yul\":17831:17904   */\n      swap2\n      pop\n        /* \"#utility.yul\":17787:17914   */\n      pop\n        /* \"#utility.yul\":17572:17921   */\n      swap3\n      swap2\n      pop\n      pop\n      jump\t// out\n\n    auxdata: 0xa2646970667358221220d407bf447a207b264a10b6f19004344700c994e5a74975bd55054712541134b964736f6c63430008110033\n}\n",
				"bytecode": {
					"linkReferences": {},
					"object": "608060405234801561001057600080fd5b50611d4d806100206000396000f3fe608060405234801561001057600080fd5b50600436106100b45760003560e01c8063372491a211610071578063372491a2146101895780634a932544146101a55780634cf4d295146101c15780636aae7b26146101f1578063bdf9a07e1461020d578063f104a8c914610229576100b4565b8063013b7ce4146100b95780630333ce24146100e95780630694a5fb14610105578063249c981d146101215780632cb7e1ec1461013d57806330236f4a14610159575b600080fd5b6100d360048036038101906100ce9190611495565b610245565b6040516100e09190611517565b60405180910390f35b61010360048036038101906100fe919061156c565b61027b565b005b61011f600480360381019061011a9190611599565b610473565b005b61013b6004803603810190610136919061162b565b610678565b005b61015760048036038101906101529190611678565b61094f565b005b610173600480360381019061016e91906116cb565b6109df565b6040516101809190611517565b60405180910390f35b6101a3600480360381019061019e919061170b565b610a4f565b005b6101bf60048036038101906101ba9190611599565b610ade565b005b6101db60048036038101906101d69190611599565b610ce4565b6040516101e89190611517565b60405180910390f35b61020b6004803603810190610206919061156c565b610d39565b005b6102276004803603810190610222919061162b565b610f32565b005b610243600480360381019061023e919061170b565b611208565b005b6000806102528386611297565b905061025e83826109df565b1561026d576000915050610273565b60019150505b949350505050565b6000803373ffffffffffffffffffffffffffffffffffffffff1673ffffffffffffffffffffffffffffffffffffffff16815260200190815260200160002060009054906101000a900460ff16610306576040517f08c379a00000000000000000000000000000000000000000000000000000000081526004016102fd906117a8565b60405180910390fd5b60001515600160003373ffffffffffffffffffffffffffffffffffffffff1673ffffffffffffffffffffffffffffffffffffffff16815260200190815260200160002060008361ffff1661ffff16815260200190815260200160002060009054906101000a900460ff161515146103b2576040517f08c379a00000000000000000000000000000000000000000000000000000000081526004016103a990611814565b60405180910390fd5b60018060003373ffffffffffffffffffffffffffffffffffffffff1673ffffffffffffffffffffffffffffffffffffffff16815260200190815260200160002060008361ffff1661ffff16815260200190815260200160002060006101000a81548160ff0219169083151502179055503373ffffffffffffffffffffffffffffffffffffffff167f5e0addf626d7d7091ab7aebf34682c3203384648734760b24921e31ddcec0bb5826040516104689190611843565b60405180910390a250565b6000803373ffffffffffffffffffffffffffffffffffffffff1673ffffffffffffffffffffffffffffffffffffffff16815260200190815260200160002060009054906101000a900460ff166104fe576040517f08c379a00000000000000000000000000000000000000000000000000000000081526004016104f5906117a8565b60405180910390fd5b600073ffffffffffffffffffffffffffffffffffffffff168173ffffffffffffffffffffffffffffffffffffffff160361056d576040517f08c379a0000000000000000000000000000000000000000000000000000000008152600401610564906118aa565b60405180910390fd5b8073ffffffffffffffffffffffffffffffffffffffff163373ffffffffffffffffffffffffffffffffffffffff16146105db576040517f08c379a00000000000000000000000000000000000000000000000000000000081526004016105d29061193c565b60405180910390fd5b60008060008373ffffffffffffffffffffffffffffffffffffffff1673ffffffffffffffffffffffffffffffffffffffff16815260200190815260200160002060006101000a81548160ff0219169083151502179055508073ffffffffffffffffffffffffffffffffffffffff167f408b49d9be1c914c52a0227e18a077e5a892dddf32a26cfa94a5d9708fad771860405160405180910390a250565b6000803373ffffffffffffffffffffffffffffffffffffffff1673ffffffffffffffffffffffffffffffffffffffff16815260200190815260200160002060009054906101000a900460ff16610703576040517f08c379a00000000000000000000000000000000000000000000000000000000081526004016106fa906117a8565b60405180910390fd5b60c38282905010610749576040517f08c379a0000000000000000000000000000000000000000000000000000000008152600401610740906119ce565b60405180910390fd5b60005b8282905081101561094a5760011515600160003373ffffffffffffffffffffffffffffffffffffffff1673ffffffffffffffffffffffffffffffffffffffff16815260200190815260200160002060008585858181106107af576107ae6119ee565b5b90506020020160208101906107c4919061156c565b61ffff1661ffff16815260200190815260200160002060009054906101000a900460ff1615151461082a576040517f08c379a000000000000000000000000000000000000000000000000000000000815260040161082190611a69565b60405180910390fd5b6000600160003373ffffffffffffffffffffffffffffffffffffffff1673ffffffffffffffffffffffffffffffffffffffff16815260200190815260200160002060008585858181106108805761087f6119ee565b5b9050602002016020810190610895919061156c565b61ffff1661ffff16815260200190815260200160002060006101000a81548160ff0219169083151502179055503373ffffffffffffffffffffffffffffffffffffffff167ffb8bb575200aa114265a31c7d8ebeb4e395bd3cd9d0914c4bfa2a511d2011a7a84848481811061090d5761090c6119ee565b5b9050602002016020810190610922919061156c565b60405161092f9190611843565b60405180910390a2808061094290611ab8565b91505061074c565b505050565b6000803373ffffffffffffffffffffffffffffffffffffffff1673ffffffffffffffffffffffffffffffffffffffff16815260200190815260200160002060009054906101000a900460ff166109da576040517f08c379a00000000000000000000000000000000000000000000000000000000081526004016109d1906117a8565b60405180910390fd5b505050565b6000600160008473ffffffffffffffffffffffffffffffffffffffff1673ffffffffffffffffffffffffffffffffffffffff16815260200190815260200160002060008361ffff1661ffff16815260200190815260200160002060009054906101000a900460ff16905092915050565b6000803373ffffffffffffffffffffffffffffffffffffffff1673ffffffffffffffffffffffffffffffffffffffff16815260200190815260200160002060009054906101000a900460ff16610ada576040517f08c379a0000000000000000000000000000000000000000000000000000000008152600401610ad1906117a8565b60405180910390fd5b5050565b600073ffffffffffffffffffffffffffffffffffffffff168173ffffffffffffffffffffffffffffffffffffffff1603610b4d576040517f08c379a0000000000000000000000000000000000000000000000000000000008152600401610b44906118aa565b60405180910390fd5b6000808273ffffffffffffffffffffffffffffffffffffffff1673ffffffffffffffffffffffffffffffffffffffff16815260200190815260200160002060009054906101000a900460ff1615610bd9576040517f08c379a0000000000000000000000000000000000000000000000000000000008152600401610bd090611b4c565b60405180910390fd5b8073ffffffffffffffffffffffffffffffffffffffff163373ffffffffffffffffffffffffffffffffffffffff1614610c47576040517f08c379a0000000000000000000000000000000000000000000000000000000008152600401610c3e9061193c565b60405180910390fd5b60016000808373ffffffffffffffffffffffffffffffffffffffff1673ffffffffffffffffffffffffffffffffffffffff16815260200190815260200160002060006101000a81548160ff0219169083151502179055508073ffffffffffffffffffffffffffffffffffffffff167f1f7b76c58fb697eb53c6c7c1becb96911516a136e24d7ced386b2355358b75a360405160405180910390a250565b60008060008373ffffffffffffffffffffffffffffffffffffffff1673ffffffffffffffffffffffffffffffffffffffff16815260200190815260200160002060009054906101000a900460ff169050919050565b6000803373ffffffffffffffffffffffffffffffffffffffff1673ffffffffffffffffffffffffffffffffffffffff16815260200190815260200160002060009054906101000a900460ff16610dc4576040517f08c379a0000000000000000000000000000000000000000000000000000000008152600401610dbb906117a8565b60405180910390fd5b60011515600160003373ffffffffffffffffffffffffffffffffffffffff1673ffffffffffffffffffffffffffffffffffffffff16815260200190815260200160002060008361ffff1661ffff16815260200190815260200160002060009054906101000a900460ff16151514610e70576040517f08c379a0000000000000000000000000000000000000000000000000000000008152600401610e6790611a69565b60405180910390fd5b6000600160003373ffffffffffffffffffffffffffffffffffffffff1673ffffffffffffffffffffffffffffffffffffffff16815260200190815260200160002060008361ffff1661ffff16815260200190815260200160002060006101000a81548160ff0219169083151502179055503373ffffffffffffffffffffffffffffffffffffffff167ffb8bb575200aa114265a31c7d8ebeb4e395bd3cd9d0914c4bfa2a511d2011a7a82604051610f279190611843565b60405180910390a250565b6000803373ffffffffffffffffffffffffffffffffffffffff1673ffffffffffffffffffffffffffffffffffffffff16815260200190815260200160002060009054906101000a900460ff16610fbd576040517f08c379a0000000000000000000000000000000000000000000000000000000008152600401610fb4906117a8565b60405180910390fd5b60c38282905010611003576040517f08c379a0000000000000000000000000000000000000000000000000000000008152600401610ffa90611bde565b60405180910390fd5b60005b828290508110156112035760001515600160003373ffffffffffffffffffffffffffffffffffffffff1673ffffffffffffffffffffffffffffffffffffffff1681526020019081526020016000206000858585818110611069576110686119ee565b5b905060200201602081019061107e919061156c565b61ffff1661ffff16815260200190815260200160002060009054906101000a900460ff161515146110e4576040517f08c379a00000000000000000000000000000000000000000000000000000000081526004016110db90611814565b60405180910390fd5b60018060003373ffffffffffffffffffffffffffffffffffffffff1673ffffffffffffffffffffffffffffffffffffffff1681526020019081526020016000206000858585818110611139576111386119ee565b5b905060200201602081019061114e919061156c565b61ffff1661ffff16815260200190815260200160002060006101000a81548160ff0219169083151502179055503373ffffffffffffffffffffffffffffffffffffffff167f5e0addf626d7d7091ab7aebf34682c3203384648734760b24921e31ddcec0bb58484848181106111c6576111c56119ee565b5b90506020020160208101906111db919061156c565b6040516111e89190611843565b60405180910390a280806111fb90611ab8565b915050611006565b505050565b6000803373ffffffffffffffffffffffffffffffffffffffff1673ffffffffffffffffffffffffffffffffffffffff16815260200190815260200160002060009054906101000a900460ff16611293576040517f08c379a000000000000000000000000000000000000000000000000000000000815260040161128a906117a8565b60405180910390fd5b5050565b60008273ffffffffffffffffffffffffffffffffffffffff16636a3edf286040518163ffffffff1660e01b8152600401602060405180830381865afa1580156112e4573d6000803e3d6000fd5b505050506040513d601f19601f820116820180604052508101906113089190611c13565b73ffffffffffffffffffffffffffffffffffffffff1663134e18f46040518163ffffffff1660e01b8152600401602060405180830381865afa158015611352573d6000803e3d6000fd5b505050506040513d601f19601f820116820180604052508101906113769190611c7e565b73ffffffffffffffffffffffffffffffffffffffff16637e42683b836040518263ffffffff1660e01b81526004016113ae9190611cba565b602060405180830381865afa1580156113cb573d6000803e3d6000fd5b505050506040513d601f19601f820116820180604052508101906113ef9190611cea565b905092915050565b600080fd5b600080fd5b600073ffffffffffffffffffffffffffffffffffffffff82169050919050565b600061142c82611401565b9050919050565b61143c81611421565b811461144757600080fd5b50565b60008135905061145981611433565b92915050565b6000819050919050565b6114728161145f565b811461147d57600080fd5b50565b60008135905061148f81611469565b92915050565b600080600080608085870312156114af576114ae6113f7565b5b60006114bd8782880161144a565b94505060206114ce8782880161144a565b93505060406114df87828801611480565b92505060606114f08782880161144a565b91505092959194509250565b60008115159050919050565b611511816114fc565b82525050565b600060208201905061152c6000830184611508565b92915050565b600061ffff82169050919050565b61154981611532565b811461155457600080fd5b50565b60008135905061156681611540565b92915050565b600060208284031215611582576115816113f7565b5b600061159084828501611557565b91505092915050565b6000602082840312156115af576115ae6113f7565b5b60006115bd8482850161144a565b91505092915050565b600080fd5b600080fd5b600080fd5b60008083601f8401126115eb576115ea6115c6565b5b8235905067ffffffffffffffff811115611608576116076115cb565b5b602083019150836020820283011115611624576116236115d0565b5b9250929050565b60008060208385031215611642576116416113f7565b5b600083013567ffffffffffffffff8111156116605761165f6113fc565b5b61166c858286016115d5565b92509250509250929050565b600080600060608486031215611691576116906113f7565b5b600061169f8682870161144a565b93505060206116b08682870161144a565b92505060406116c186828701611480565b9150509250925092565b600080604083850312156116e2576116e16113f7565b5b60006116f08582860161144a565b925050602061170185828601611557565b9150509250929050565b60008060408385031215611722576117216113f7565b5b60006117308582860161144a565b925050602061174185828601611480565b9150509250929050565b600082825260208201905092915050565b7f6f6e6c7920626f756e6420636f6d706c69616e63652063616e2063616c6c0000600082015250565b6000611792601e8361174b565b915061179d8261175c565b602082019050919050565b600060208201905081810360008301526117c181611785565b9050919050565b7f636f756e74727920616c72656164792072657374726963746564000000000000600082015250565b60006117fe601a8361174b565b9150611809826117c8565b602082019050919050565b6000602082019050818103600083015261182d816117f1565b9050919050565b61183d81611532565b82525050565b60006020820190506118586000830184611834565b92915050565b7f696e76616c696420617267756d656e74202d207a65726f206164647265737300600082015250565b6000611894601f8361174b565b915061189f8261185e565b602082019050919050565b600060208201905081810360008301526118c381611887565b9050919050565b7f6f6e6c7920636f6d706c69616e636520636f6e74726163742063616e2063616c60008201527f6c00000000000000000000000000000000000000000000000000000000000000602082015250565b600061192660218361174b565b9150611931826118ca565b604082019050919050565b6000602082019050818103600083015261195581611919565b9050919050565b7f6d6178696d756d203139352063616e20626520756e726573747269637465642060008201527f696e206f6e652062617463680000000000000000000000000000000000000000602082015250565b60006119b8602c8361174b565b91506119c38261195c565b604082019050919050565b600060208201905081810360008301526119e7816119ab565b9050919050565b7f4e487b7100000000000000000000000000000000000000000000000000000000600052603260045260246000fd5b7f636f756e747279206e6f74207265737472696374656400000000000000000000600082015250565b6000611a5360168361174b565b9150611a5e82611a1d565b602082019050919050565b60006020820190508181036000830152611a8281611a46565b9050919050565b7f4e487b7100000000000000000000000000000000000000000000000000000000600052601160045260246000fd5b6000611ac38261145f565b91507fffffffffffffffffffffffffffffffffffffffffffffffffffffffffffffffff8203611af557611af4611a89565b5b600182019050919050565b7f636f6d706c69616e636520616c726561647920626f756e640000000000000000600082015250565b6000611b3660188361174b565b9150611b4182611b00565b602082019050919050565b60006020820190508181036000830152611b6581611b29565b9050919050565b7f6d6178696d756d203139352063616e206265207265737472696374656420696e60008201527f206f6e6520626174636800000000000000000000000000000000000000000000602082015250565b6000611bc8602a8361174b565b9150611bd382611b6c565b604082019050919050565b60006020820190508181036000830152611bf781611bbb565b9050919050565b600081519050611c0d81611433565b92915050565b600060208284031215611c2957611c286113f7565b5b6000611c3784828501611bfe565b91505092915050565b6000611c4b82611421565b9050919050565b611c5b81611c40565b8114611c6657600080fd5b50565b600081519050611c7881611c52565b92915050565b600060208284031215611c9457611c936113f7565b5b6000611ca284828501611c69565b91505092915050565b611cb481611421565b82525050565b6000602082019050611ccf6000830184611cab565b92915050565b600081519050611ce481611540565b92915050565b600060208284031215611d0057611cff6113f7565b5b6000611d0e84828501611cd5565b9150509291505056fea2646970667358221220d407bf447a207b264a10b6f19004344700c994e5a74975bd55054712541134b964736f6c63430008110033",
					"opcodes": "PUSH1 0x80 PUSH1 0x40 MSTORE CALLVALUE DUP1 ISZERO PUSH2 0x10 JUMPI PUSH1 0x0 DUP1 REVERT JUMPDEST POP PUSH2 0x1D4D DUP1 PUSH2 0x20 PUSH1 0x0 CODECOPY PUSH1 0x0 RETURN INVALID PUSH1 0x80 PUSH1 0x40 MSTORE CALLVALUE DUP1 ISZERO PUSH2 0x10 JUMPI PUSH1 0x0 DUP1 REVERT JUMPDEST POP PUSH1 0x4 CALLDATASIZE LT PUSH2 0xB4 JUMPI PUSH1 0x0 CALLDATALOAD PUSH1 0xE0 SHR DUP1 PUSH4 0x372491A2 GT PUSH2 0x71 JUMPI DUP1 PUSH4 0x372491A2 EQ PUSH2 0x189 JUMPI DUP1 PUSH4 0x4A932544 EQ PUSH2 0x1A5 JUMPI DUP1 PUSH4 0x4CF4D295 EQ PUSH2 0x1C1 JUMPI DUP1 PUSH4 0x6AAE7B26 EQ PUSH2 0x1F1 JUMPI DUP1 PUSH4 0xBDF9A07E EQ PUSH2 0x20D JUMPI DUP1 PUSH4 0xF104A8C9 EQ PUSH2 0x229 JUMPI PUSH2 0xB4 JUMP JUMPDEST DUP1 PUSH4 0x13B7CE4 EQ PUSH2 0xB9 JUMPI DUP1 PUSH4 0x333CE24 EQ PUSH2 0xE9 JUMPI DUP1 PUSH4 0x694A5FB EQ PUSH2 0x105 JUMPI DUP1 PUSH4 0x249C981D EQ PUSH2 0x121 JUMPI DUP1 PUSH4 0x2CB7E1EC EQ PUSH2 0x13D JUMPI DUP1 PUSH4 0x30236F4A EQ PUSH2 0x159 JUMPI JUMPDEST PUSH1 0x0 DUP1 REVERT JUMPDEST PUSH2 0xD3 PUSH1 0x4 DUP1 CALLDATASIZE SUB DUP2 ADD SWAP1 PUSH2 0xCE SWAP2 SWAP1 PUSH2 0x1495 JUMP JUMPDEST PUSH2 0x245 JUMP JUMPDEST PUSH1 0x40 MLOAD PUSH2 0xE0 SWAP2 SWAP1 PUSH2 0x1517 JUMP JUMPDEST PUSH1 0x40 MLOAD DUP1 SWAP2 SUB SWAP1 RETURN JUMPDEST PUSH2 0x103 PUSH1 0x4 DUP1 CALLDATASIZE SUB DUP2 ADD SWAP1 PUSH2 0xFE SWAP2 SWAP1 PUSH2 0x156C JUMP JUMPDEST PUSH2 0x27B JUMP JUMPDEST STOP JUMPDEST PUSH2 0x11F PUSH1 0x4 DUP1 CALLDATASIZE SUB DUP2 ADD SWAP1 PUSH2 0x11A SWAP2 SWAP1 PUSH2 0x1599 JUMP JUMPDEST PUSH2 0x473 JUMP JUMPDEST STOP JUMPDEST PUSH2 0x13B PUSH1 0x4 DUP1 CALLDATASIZE SUB DUP2 ADD SWAP1 PUSH2 0x136 SWAP2 SWAP1 PUSH2 0x162B JUMP JUMPDEST PUSH2 0x678 JUMP JUMPDEST STOP JUMPDEST PUSH2 0x157 PUSH1 0x4 DUP1 CALLDATASIZE SUB DUP2 ADD SWAP1 PUSH2 0x152 SWAP2 SWAP1 PUSH2 0x1678 JUMP JUMPDEST PUSH2 0x94F JUMP JUMPDEST STOP JUMPDEST PUSH2 0x173 PUSH1 0x4 DUP1 CALLDATASIZE SUB DUP2 ADD SWAP1 PUSH2 0x16E SWAP2 SWAP1 PUSH2 0x16CB JUMP JUMPDEST PUSH2 0x9DF JUMP JUMPDEST PUSH1 0x40 MLOAD PUSH2 0x180 SWAP2 SWAP1 PUSH2 0x1517 JUMP JUMPDEST PUSH1 0x40 MLOAD DUP1 SWAP2 SUB SWAP1 RETURN JUMPDEST PUSH2 0x1A3 PUSH1 0x4 DUP1 CALLDATASIZE SUB DUP2 ADD SWAP1 PUSH2 0x19E SWAP2 SWAP1 PUSH2 0x170B JUMP JUMPDEST PUSH2 0xA4F JUMP JUMPDEST STOP JUMPDEST PUSH2 0x1BF PUSH1 0x4 DUP1 CALLDATASIZE SUB DUP2 ADD SWAP1 PUSH2 0x1BA SWAP2 SWAP1 PUSH2 0x1599 JUMP JUMPDEST PUSH2 0xADE JUMP JUMPDEST STOP JUMPDEST PUSH2 0x1DB PUSH1 0x4 DUP1 CALLDATASIZE SUB DUP2 ADD SWAP1 PUSH2 0x1D6 SWAP2 SWAP1 PUSH2 0x1599 JUMP JUMPDEST PUSH2 0xCE4 JUMP JUMPDEST PUSH1 0x40 MLOAD PUSH2 0x1E8 SWAP2 SWAP1 PUSH2 0x1517 JUMP JUMPDEST PUSH1 0x40 MLOAD DUP1 SWAP2 SUB SWAP1 RETURN JUMPDEST PUSH2 0x20B PUSH1 0x4 DUP1 CALLDATASIZE SUB DUP2 ADD SWAP1 PUSH2 0x206 SWAP2 SWAP1 PUSH2 0x156C JUMP JUMPDEST PUSH2 0xD39 JUMP JUMPDEST STOP JUMPDEST PUSH2 0x227 PUSH1 0x4 DUP1 CALLDATASIZE SUB DUP2 ADD SWAP1 PUSH2 0x222 SWAP2 SWAP1 PUSH2 0x162B JUMP JUMPDEST PUSH2 0xF32 JUMP JUMPDEST STOP JUMPDEST PUSH2 0x243 PUSH1 0x4 DUP1 CALLDATASIZE SUB DUP2 ADD SWAP1 PUSH2 0x23E SWAP2 SWAP1 PUSH2 0x170B JUMP JUMPDEST PUSH2 0x1208 JUMP JUMPDEST STOP JUMPDEST PUSH1 0x0 DUP1 PUSH2 0x252 DUP4 DUP7 PUSH2 0x1297 JUMP JUMPDEST SWAP1 POP PUSH2 0x25E DUP4 DUP3 PUSH2 0x9DF JUMP JUMPDEST ISZERO PUSH2 0x26D JUMPI PUSH1 0x0 SWAP2 POP POP PUSH2 0x273 JUMP JUMPDEST PUSH1 0x1 SWAP2 POP POP JUMPDEST SWAP5 SWAP4 POP POP POP POP JUMP JUMPDEST PUSH1 0x0 DUP1 CALLER PUSH20 0xFFFFFFFFFFFFFFFFFFFFFFFFFFFFFFFFFFFFFFFF AND PUSH20 0xFFFFFFFFFFFFFFFFFFFFFFFFFFFFFFFFFFFFFFFF AND DUP2 MSTORE PUSH1 0x20 ADD SWAP1 DUP2 MSTORE PUSH1 0x20 ADD PUSH1 0x0 KECCAK256 PUSH1 0x0 SWAP1 SLOAD SWAP1 PUSH2 0x100 EXP SWAP1 DIV PUSH1 0xFF AND PUSH2 0x306 JUMPI PUSH1 0x40 MLOAD PUSH32 0x8C379A000000000000000000000000000000000000000000000000000000000 DUP2 MSTORE PUSH1 0x4 ADD PUSH2 0x2FD SWAP1 PUSH2 0x17A8 JUMP JUMPDEST PUSH1 0x40 MLOAD DUP1 SWAP2 SUB SWAP1 REVERT JUMPDEST PUSH1 0x0 ISZERO ISZERO PUSH1 0x1 PUSH1 0x0 CALLER PUSH20 0xFFFFFFFFFFFFFFFFFFFFFFFFFFFFFFFFFFFFFFFF AND PUSH20 0xFFFFFFFFFFFFFFFFFFFFFFFFFFFFFFFFFFFFFFFF AND DUP2 MSTORE PUSH1 0x20 ADD SWAP1 DUP2 MSTORE PUSH1 0x20 ADD PUSH1 0x0 KECCAK256 PUSH1 0x0 DUP4 PUSH2 0xFFFF AND PUSH2 0xFFFF AND DUP2 MSTORE PUSH1 0x20 ADD SWAP1 DUP2 MSTORE PUSH1 0x20 ADD PUSH1 0x0 KECCAK256 PUSH1 0x0 SWAP1 SLOAD SWAP1 PUSH2 0x100 EXP SWAP1 DIV PUSH1 0xFF AND ISZERO ISZERO EQ PUSH2 0x3B2 JUMPI PUSH1 0x40 MLOAD PUSH32 0x8C379A000000000000000000000000000000000000000000000000000000000 DUP2 MSTORE PUSH1 0x4 ADD PUSH2 0x3A9 SWAP1 PUSH2 0x1814 JUMP JUMPDEST PUSH1 0x40 MLOAD DUP1 SWAP2 SUB SWAP1 REVERT JUMPDEST PUSH1 0x1 DUP1 PUSH1 0x0 CALLER PUSH20 0xFFFFFFFFFFFFFFFFFFFFFFFFFFFFFFFFFFFFFFFF AND PUSH20 0xFFFFFFFFFFFFFFFFFFFFFFFFFFFFFFFFFFFFFFFF AND DUP2 MSTORE PUSH1 0x20 ADD SWAP1 DUP2 MSTORE PUSH1 0x20 ADD PUSH1 0x0 KECCAK256 PUSH1 0x0 DUP4 PUSH2 0xFFFF AND PUSH2 0xFFFF AND DUP2 MSTORE PUSH1 0x20 ADD SWAP1 DUP2 MSTORE PUSH1 0x20 ADD PUSH1 0x0 KECCAK256 PUSH1 0x0 PUSH2 0x100 EXP DUP2 SLOAD DUP2 PUSH1 0xFF MUL NOT AND SWAP1 DUP4 ISZERO ISZERO MUL OR SWAP1 SSTORE POP CALLER PUSH20 0xFFFFFFFFFFFFFFFFFFFFFFFFFFFFFFFFFFFFFFFF AND PUSH32 0x5E0ADDF626D7D7091AB7AEBF34682C3203384648734760B24921E31DDCEC0BB5 DUP3 PUSH1 0x40 MLOAD PUSH2 0x468 SWAP2 SWAP1 PUSH2 0x1843 JUMP JUMPDEST PUSH1 0x40 MLOAD DUP1 SWAP2 SUB SWAP1 LOG2 POP JUMP JUMPDEST PUSH1 0x0 DUP1 CALLER PUSH20 0xFFFFFFFFFFFFFFFFFFFFFFFFFFFFFFFFFFFFFFFF AND PUSH20 0xFFFFFFFFFFFFFFFFFFFFFFFFFFFFFFFFFFFFFFFF AND DUP2 MSTORE PUSH1 0x20 ADD SWAP1 DUP2 MSTORE PUSH1 0x20 ADD PUSH1 0x0 KECCAK256 PUSH1 0x0 SWAP1 SLOAD SWAP1 PUSH2 0x100 EXP SWAP1 DIV PUSH1 0xFF AND PUSH2 0x4FE JUMPI PUSH1 0x40 MLOAD PUSH32 0x8C379A000000000000000000000000000000000000000000000000000000000 DUP2 MSTORE PUSH1 0x4 ADD PUSH2 0x4F5 SWAP1 PUSH2 0x17A8 JUMP JUMPDEST PUSH1 0x40 MLOAD DUP1 SWAP2 SUB SWAP1 REVERT JUMPDEST PUSH1 0x0 PUSH20 0xFFFFFFFFFFFFFFFFFFFFFFFFFFFFFFFFFFFFFFFF AND DUP2 PUSH20 0xFFFFFFFFFFFFFFFFFFFFFFFFFFFFFFFFFFFFFFFF AND SUB PUSH2 0x56D JUMPI PUSH1 0x40 MLOAD PUSH32 0x8C379A000000000000000000000000000000000000000000000000000000000 DUP2 MSTORE PUSH1 0x4 ADD PUSH2 0x564 SWAP1 PUSH2 0x18AA JUMP JUMPDEST PUSH1 0x40 MLOAD DUP1 SWAP2 SUB SWAP1 REVERT JUMPDEST DUP1 PUSH20 0xFFFFFFFFFFFFFFFFFFFFFFFFFFFFFFFFFFFFFFFF AND CALLER PUSH20 0xFFFFFFFFFFFFFFFFFFFFFFFFFFFFFFFFFFFFFFFF AND EQ PUSH2 0x5DB JUMPI PUSH1 0x40 MLOAD PUSH32 0x8C379A000000000000000000000000000000000000000000000000000000000 DUP2 MSTORE PUSH1 0x4 ADD PUSH2 0x5D2 SWAP1 PUSH2 0x193C JUMP JUMPDEST PUSH1 0x40 MLOAD DUP1 SWAP2 SUB SWAP1 REVERT JUMPDEST PUSH1 0x0 DUP1 PUSH1 0x0 DUP4 PUSH20 0xFFFFFFFFFFFFFFFFFFFFFFFFFFFFFFFFFFFFFFFF AND PUSH20 0xFFFFFFFFFFFFFFFFFFFFFFFFFFFFFFFFFFFFFFFF AND DUP2 MSTORE PUSH1 0x20 ADD SWAP1 DUP2 MSTORE PUSH1 0x20 ADD PUSH1 0x0 KECCAK256 PUSH1 0x0 PUSH2 0x100 EXP DUP2 SLOAD DUP2 PUSH1 0xFF MUL NOT AND SWAP1 DUP4 ISZERO ISZERO MUL OR SWAP1 SSTORE POP DUP1 PUSH20 0xFFFFFFFFFFFFFFFFFFFFFFFFFFFFFFFFFFFFFFFF AND PUSH32 0x408B49D9BE1C914C52A0227E18A077E5A892DDDF32A26CFA94A5D9708FAD7718 PUSH1 0x40 MLOAD PUSH1 0x40 MLOAD DUP1 SWAP2 SUB SWAP1 LOG2 POP JUMP JUMPDEST PUSH1 0x0 DUP1 CALLER PUSH20 0xFFFFFFFFFFFFFFFFFFFFFFFFFFFFFFFFFFFFFFFF AND PUSH20 0xFFFFFFFFFFFFFFFFFFFFFFFFFFFFFFFFFFFFFFFF AND DUP2 MSTORE PUSH1 0x20 ADD SWAP1 DUP2 MSTORE PUSH1 0x20 ADD PUSH1 0x0 KECCAK256 PUSH1 0x0 SWAP1 SLOAD SWAP1 PUSH2 0x100 EXP SWAP1 DIV PUSH1 0xFF AND PUSH2 0x703 JUMPI PUSH1 0x40 MLOAD PUSH32 0x8C379A000000000000000000000000000000000000000000000000000000000 DUP2 MSTORE PUSH1 0x4 ADD PUSH2 0x6FA SWAP1 PUSH2 0x17A8 JUMP JUMPDEST PUSH1 0x40 MLOAD DUP1 SWAP2 SUB SWAP1 REVERT JUMPDEST PUSH1 0xC3 DUP3 DUP3 SWAP1 POP LT PUSH2 0x749 JUMPI PUSH1 0x40 MLOAD PUSH32 0x8C379A000000000000000000000000000000000000000000000000000000000 DUP2 MSTORE PUSH1 0x4 ADD PUSH2 0x740 SWAP1 PUSH2 0x19CE JUMP JUMPDEST PUSH1 0x40 MLOAD DUP1 SWAP2 SUB SWAP1 REVERT JUMPDEST PUSH1 0x0 JUMPDEST DUP3 DUP3 SWAP1 POP DUP2 LT ISZERO PUSH2 0x94A JUMPI PUSH1 0x1 ISZERO ISZERO PUSH1 0x1 PUSH1 0x0 CALLER PUSH20 0xFFFFFFFFFFFFFFFFFFFFFFFFFFFFFFFFFFFFFFFF AND PUSH20 0xFFFFFFFFFFFFFFFFFFFFFFFFFFFFFFFFFFFFFFFF AND DUP2 MSTORE PUSH1 0x20 ADD SWAP1 DUP2 MSTORE PUSH1 0x20 ADD PUSH1 0x0 KECCAK256 PUSH1 0x0 DUP6 DUP6 DUP6 DUP2 DUP2 LT PUSH2 0x7AF JUMPI PUSH2 0x7AE PUSH2 0x19EE JUMP JUMPDEST JUMPDEST SWAP1 POP PUSH1 0x20 MUL ADD PUSH1 0x20 DUP2 ADD SWAP1 PUSH2 0x7C4 SWAP2 SWAP1 PUSH2 0x156C JUMP JUMPDEST PUSH2 0xFFFF AND PUSH2 0xFFFF AND DUP2 MSTORE PUSH1 0x20 ADD SWAP1 DUP2 MSTORE PUSH1 0x20 ADD PUSH1 0x0 KECCAK256 PUSH1 0x0 SWAP1 SLOAD SWAP1 PUSH2 0x100 EXP SWAP1 DIV PUSH1 0xFF AND ISZERO ISZERO EQ PUSH2 0x82A JUMPI PUSH1 0x40 MLOAD PUSH32 0x8C379A000000000000000000000000000000000000000000000000000000000 DUP2 MSTORE PUSH1 0x4 ADD PUSH2 0x821 SWAP1 PUSH2 0x1A69 JUMP JUMPDEST PUSH1 0x40 MLOAD DUP1 SWAP2 SUB SWAP1 REVERT JUMPDEST PUSH1 0x0 PUSH1 0x1 PUSH1 0x0 CALLER PUSH20 0xFFFFFFFFFFFFFFFFFFFFFFFFFFFFFFFFFFFFFFFF AND PUSH20 0xFFFFFFFFFFFFFFFFFFFFFFFFFFFFFFFFFFFFFFFF AND DUP2 MSTORE PUSH1 0x20 ADD SWAP1 DUP2 MSTORE PUSH1 0x20 ADD PUSH1 0x0 KECCAK256 PUSH1 0x0 DUP6 DUP6 DUP6 DUP2 DUP2 LT PUSH2 0x880 JUMPI PUSH2 0x87F PUSH2 0x19EE JUMP JUMPDEST JUMPDEST SWAP1 POP PUSH1 0x20 MUL ADD PUSH1 0x20 DUP2 ADD SWAP1 PUSH2 0x895 SWAP2 SWAP1 PUSH2 0x156C JUMP JUMPDEST PUSH2 0xFFFF AND PUSH2 0xFFFF AND DUP2 MSTORE PUSH1 0x20 ADD SWAP1 DUP2 MSTORE PUSH1 0x20 ADD PUSH1 0x0 KECCAK256 PUSH1 0x0 PUSH2 0x100 EXP DUP2 SLOAD DUP2 PUSH1 0xFF MUL NOT AND SWAP1 DUP4 ISZERO ISZERO MUL OR SWAP1 SSTORE POP CALLER PUSH20 0xFFFFFFFFFFFFFFFFFFFFFFFFFFFFFFFFFFFFFFFF AND PUSH32 0xFB8BB575200AA114265A31C7D8EBEB4E395BD3CD9D0914C4BFA2A511D2011A7A DUP5 DUP5 DUP5 DUP2 DUP2 LT PUSH2 0x90D JUMPI PUSH2 0x90C PUSH2 0x19EE JUMP JUMPDEST JUMPDEST SWAP1 POP PUSH1 0x20 MUL ADD PUSH1 0x20 DUP2 ADD SWAP1 PUSH2 0x922 SWAP2 SWAP1 PUSH2 0x156C JUMP JUMPDEST PUSH1 0x40 MLOAD PUSH2 0x92F SWAP2 SWAP1 PUSH2 0x1843 JUMP JUMPDEST PUSH1 0x40 MLOAD DUP1 SWAP2 SUB SWAP1 LOG2 DUP1 DUP1 PUSH2 0x942 SWAP1 PUSH2 0x1AB8 JUMP JUMPDEST SWAP2 POP POP PUSH2 0x74C JUMP JUMPDEST POP POP POP JUMP JUMPDEST PUSH1 0x0 DUP1 CALLER PUSH20 0xFFFFFFFFFFFFFFFFFFFFFFFFFFFFFFFFFFFFFFFF AND PUSH20 0xFFFFFFFFFFFFFFFFFFFFFFFFFFFFFFFFFFFFFFFF AND DUP2 MSTORE PUSH1 0x20 ADD SWAP1 DUP2 MSTORE PUSH1 0x20 ADD PUSH1 0x0 KECCAK256 PUSH1 0x0 SWAP1 SLOAD SWAP1 PUSH2 0x100 EXP SWAP1 DIV PUSH1 0xFF AND PUSH2 0x9DA JUMPI PUSH1 0x40 MLOAD PUSH32 0x8C379A000000000000000000000000000000000000000000000000000000000 DUP2 MSTORE PUSH1 0x4 ADD PUSH2 0x9D1 SWAP1 PUSH2 0x17A8 JUMP JUMPDEST PUSH1 0x40 MLOAD DUP1 SWAP2 SUB SWAP1 REVERT JUMPDEST POP POP POP JUMP JUMPDEST PUSH1 0x0 PUSH1 0x1 PUSH1 0x0 DUP5 PUSH20 0xFFFFFFFFFFFFFFFFFFFFFFFFFFFFFFFFFFFFFFFF AND PUSH20 0xFFFFFFFFFFFFFFFFFFFFFFFFFFFFFFFFFFFFFFFF AND DUP2 MSTORE PUSH1 0x20 ADD SWAP1 DUP2 MSTORE PUSH1 0x20 ADD PUSH1 0x0 KECCAK256 PUSH1 0x0 DUP4 PUSH2 0xFFFF AND PUSH2 0xFFFF AND DUP2 MSTORE PUSH1 0x20 ADD SWAP1 DUP2 MSTORE PUSH1 0x20 ADD PUSH1 0x0 KECCAK256 PUSH1 0x0 SWAP1 SLOAD SWAP1 PUSH2 0x100 EXP SWAP1 DIV PUSH1 0xFF AND SWAP1 POP SWAP3 SWAP2 POP POP JUMP JUMPDEST PUSH1 0x0 DUP1 CALLER PUSH20 0xFFFFFFFFFFFFFFFFFFFFFFFFFFFFFFFFFFFFFFFF AND PUSH20 0xFFFFFFFFFFFFFFFFFFFFFFFFFFFFFFFFFFFFFFFF AND DUP2 MSTORE PUSH1 0x20 ADD SWAP1 DUP2 MSTORE PUSH1 0x20 ADD PUSH1 0x0 KECCAK256 PUSH1 0x0 SWAP1 SLOAD SWAP1 PUSH2 0x100 EXP SWAP1 DIV PUSH1 0xFF AND PUSH2 0xADA JUMPI PUSH1 0x40 MLOAD PUSH32 0x8C379A000000000000000000000000000000000000000000000000000000000 DUP2 MSTORE PUSH1 0x4 ADD PUSH2 0xAD1 SWAP1 PUSH2 0x17A8 JUMP JUMPDEST PUSH1 0x40 MLOAD DUP1 SWAP2 SUB SWAP1 REVERT JUMPDEST POP POP JUMP JUMPDEST PUSH1 0x0 PUSH20 0xFFFFFFFFFFFFFFFFFFFFFFFFFFFFFFFFFFFFFFFF AND DUP2 PUSH20 0xFFFFFFFFFFFFFFFFFFFFFFFFFFFFFFFFFFFFFFFF AND SUB PUSH2 0xB4D JUMPI PUSH1 0x40 MLOAD PUSH32 0x8C379A000000000000000000000000000000000000000000000000000000000 DUP2 MSTORE PUSH1 0x4 ADD PUSH2 0xB44 SWAP1 PUSH2 0x18AA JUMP JUMPDEST PUSH1 0x40 MLOAD DUP1 SWAP2 SUB SWAP1 REVERT JUMPDEST PUSH1 0x0 DUP1 DUP3 PUSH20 0xFFFFFFFFFFFFFFFFFFFFFFFFFFFFFFFFFFFFFFFF AND PUSH20 0xFFFFFFFFFFFFFFFFFFFFFFFFFFFFFFFFFFFFFFFF AND DUP2 MSTORE PUSH1 0x20 ADD SWAP1 DUP2 MSTORE PUSH1 0x20 ADD PUSH1 0x0 KECCAK256 PUSH1 0x0 SWAP1 SLOAD SWAP1 PUSH2 0x100 EXP SWAP1 DIV PUSH1 0xFF AND ISZERO PUSH2 0xBD9 JUMPI PUSH1 0x40 MLOAD PUSH32 0x8C379A000000000000000000000000000000000000000000000000000000000 DUP2 MSTORE PUSH1 0x4 ADD PUSH2 0xBD0 SWAP1 PUSH2 0x1B4C JUMP JUMPDEST PUSH1 0x40 MLOAD DUP1 SWAP2 SUB SWAP1 REVERT JUMPDEST DUP1 PUSH20 0xFFFFFFFFFFFFFFFFFFFFFFFFFFFFFFFFFFFFFFFF AND CALLER PUSH20 0xFFFFFFFFFFFFFFFFFFFFFFFFFFFFFFFFFFFFFFFF AND EQ PUSH2 0xC47 JUMPI PUSH1 0x40 MLOAD PUSH32 0x8C379A000000000000000000000000000000000000000000000000000000000 DUP2 MSTORE PUSH1 0x4 ADD PUSH2 0xC3E SWAP1 PUSH2 0x193C JUMP JUMPDEST PUSH1 0x40 MLOAD DUP1 SWAP2 SUB SWAP1 REVERT JUMPDEST PUSH1 0x1 PUSH1 0x0 DUP1 DUP4 PUSH20 0xFFFFFFFFFFFFFFFFFFFFFFFFFFFFFFFFFFFFFFFF AND PUSH20 0xFFFFFFFFFFFFFFFFFFFFFFFFFFFFFFFFFFFFFFFF AND DUP2 MSTORE PUSH1 0x20 ADD SWAP1 DUP2 MSTORE PUSH1 0x20 ADD PUSH1 0x0 KECCAK256 PUSH1 0x0 PUSH2 0x100 EXP DUP2 SLOAD DUP2 PUSH1 0xFF MUL NOT AND SWAP1 DUP4 ISZERO ISZERO MUL OR SWAP1 SSTORE POP DUP1 PUSH20 0xFFFFFFFFFFFFFFFFFFFFFFFFFFFFFFFFFFFFFFFF AND PUSH32 0x1F7B76C58FB697EB53C6C7C1BECB96911516A136E24D7CED386B2355358B75A3 PUSH1 0x40 MLOAD PUSH1 0x40 MLOAD DUP1 SWAP2 SUB SWAP1 LOG2 POP JUMP JUMPDEST PUSH1 0x0 DUP1 PUSH1 0x0 DUP4 PUSH20 0xFFFFFFFFFFFFFFFFFFFFFFFFFFFFFFFFFFFFFFFF AND PUSH20 0xFFFFFFFFFFFFFFFFFFFFFFFFFFFFFFFFFFFFFFFF AND DUP2 MSTORE PUSH1 0x20 ADD SWAP1 DUP2 MSTORE PUSH1 0x20 ADD PUSH1 0x0 KECCAK256 PUSH1 0x0 SWAP1 SLOAD SWAP1 PUSH2 0x100 EXP SWAP1 DIV PUSH1 0xFF AND SWAP1 POP SWAP2 SWAP1 POP JUMP JUMPDEST PUSH1 0x0 DUP1 CALLER PUSH20 0xFFFFFFFFFFFFFFFFFFFFFFFFFFFFFFFFFFFFFFFF AND PUSH20 0xFFFFFFFFFFFFFFFFFFFFFFFFFFFFFFFFFFFFFFFF AND DUP2 MSTORE PUSH1 0x20 ADD SWAP1 DUP2 MSTORE PUSH1 0x20 ADD PUSH1 0x0 KECCAK256 PUSH1 0x0 SWAP1 SLOAD SWAP1 PUSH2 0x100 EXP SWAP1 DIV PUSH1 0xFF AND PUSH2 0xDC4 JUMPI PUSH1 0x40 MLOAD PUSH32 0x8C379A000000000000000000000000000000000000000000000000000000000 DUP2 MSTORE PUSH1 0x4 ADD PUSH2 0xDBB SWAP1 PUSH2 0x17A8 JUMP JUMPDEST PUSH1 0x40 MLOAD DUP1 SWAP2 SUB SWAP1 REVERT JUMPDEST PUSH1 0x1 ISZERO ISZERO PUSH1 0x1 PUSH1 0x0 CALLER PUSH20 0xFFFFFFFFFFFFFFFFFFFFFFFFFFFFFFFFFFFFFFFF AND PUSH20 0xFFFFFFFFFFFFFFFFFFFFFFFFFFFFFFFFFFFFFFFF AND DUP2 MSTORE PUSH1 0x20 ADD SWAP1 DUP2 MSTORE PUSH1 0x20 ADD PUSH1 0x0 KECCAK256 PUSH1 0x0 DUP4 PUSH2 0xFFFF AND PUSH2 0xFFFF AND DUP2 MSTORE PUSH1 0x20 ADD SWAP1 DUP2 MSTORE PUSH1 0x20 ADD PUSH1 0x0 KECCAK256 PUSH1 0x0 SWAP1 SLOAD SWAP1 PUSH2 0x100 EXP SWAP1 DIV PUSH1 0xFF AND ISZERO ISZERO EQ PUSH2 0xE70 JUMPI PUSH1 0x40 MLOAD PUSH32 0x8C379A000000000000000000000000000000000000000000000000000000000 DUP2 MSTORE PUSH1 0x4 ADD PUSH2 0xE67 SWAP1 PUSH2 0x1A69 JUMP JUMPDEST PUSH1 0x40 MLOAD DUP1 SWAP2 SUB SWAP1 REVERT JUMPDEST PUSH1 0x0 PUSH1 0x1 PUSH1 0x0 CALLER PUSH20 0xFFFFFFFFFFFFFFFFFFFFFFFFFFFFFFFFFFFFFFFF AND PUSH20 0xFFFFFFFFFFFFFFFFFFFFFFFFFFFFFFFFFFFFFFFF AND DUP2 MSTORE PUSH1 0x20 ADD SWAP1 DUP2 MSTORE PUSH1 0x20 ADD PUSH1 0x0 KECCAK256 PUSH1 0x0 DUP4 PUSH2 0xFFFF AND PUSH2 0xFFFF AND DUP2 MSTORE PUSH1 0x20 ADD SWAP1 DUP2 MSTORE PUSH1 0x20 ADD PUSH1 0x0 KECCAK256 PUSH1 0x0 PUSH2 0x100 EXP DUP2 SLOAD DUP2 PUSH1 0xFF MUL NOT AND SWAP1 DUP4 ISZERO ISZERO MUL OR SWAP1 SSTORE POP CALLER PUSH20 0xFFFFFFFFFFFFFFFFFFFFFFFFFFFFFFFFFFFFFFFF AND PUSH32 0xFB8BB575200AA114265A31C7D8EBEB4E395BD3CD9D0914C4BFA2A511D2011A7A DUP3 PUSH1 0x40 MLOAD PUSH2 0xF27 SWAP2 SWAP1 PUSH2 0x1843 JUMP JUMPDEST PUSH1 0x40 MLOAD DUP1 SWAP2 SUB SWAP1 LOG2 POP JUMP JUMPDEST PUSH1 0x0 DUP1 CALLER PUSH20 0xFFFFFFFFFFFFFFFFFFFFFFFFFFFFFFFFFFFFFFFF AND PUSH20 0xFFFFFFFFFFFFFFFFFFFFFFFFFFFFFFFFFFFFFFFF AND DUP2 MSTORE PUSH1 0x20 ADD SWAP1 DUP2 MSTORE PUSH1 0x20 ADD PUSH1 0x0 KECCAK256 PUSH1 0x0 SWAP1 SLOAD SWAP1 PUSH2 0x100 EXP SWAP1 DIV PUSH1 0xFF AND PUSH2 0xFBD JUMPI PUSH1 0x40 MLOAD PUSH32 0x8C379A000000000000000000000000000000000000000000000000000000000 DUP2 MSTORE PUSH1 0x4 ADD PUSH2 0xFB4 SWAP1 PUSH2 0x17A8 JUMP JUMPDEST PUSH1 0x40 MLOAD DUP1 SWAP2 SUB SWAP1 REVERT JUMPDEST PUSH1 0xC3 DUP3 DUP3 SWAP1 POP LT PUSH2 0x1003 JUMPI PUSH1 0x40 MLOAD PUSH32 0x8C379A000000000000000000000000000000000000000000000000000000000 DUP2 MSTORE PUSH1 0x4 ADD PUSH2 0xFFA SWAP1 PUSH2 0x1BDE JUMP JUMPDEST PUSH1 0x40 MLOAD DUP1 SWAP2 SUB SWAP1 REVERT JUMPDEST PUSH1 0x0 JUMPDEST DUP3 DUP3 SWAP1 POP DUP2 LT ISZERO PUSH2 0x1203 JUMPI PUSH1 0x0 ISZERO ISZERO PUSH1 0x1 PUSH1 0x0 CALLER PUSH20 0xFFFFFFFFFFFFFFFFFFFFFFFFFFFFFFFFFFFFFFFF AND PUSH20 0xFFFFFFFFFFFFFFFFFFFFFFFFFFFFFFFFFFFFFFFF AND DUP2 MSTORE PUSH1 0x20 ADD SWAP1 DUP2 MSTORE PUSH1 0x20 ADD PUSH1 0x0 KECCAK256 PUSH1 0x0 DUP6 DUP6 DUP6 DUP2 DUP2 LT PUSH2 0x1069 JUMPI PUSH2 0x1068 PUSH2 0x19EE JUMP JUMPDEST JUMPDEST SWAP1 POP PUSH1 0x20 MUL ADD PUSH1 0x20 DUP2 ADD SWAP1 PUSH2 0x107E SWAP2 SWAP1 PUSH2 0x156C JUMP JUMPDEST PUSH2 0xFFFF AND PUSH2 0xFFFF AND DUP2 MSTORE PUSH1 0x20 ADD SWAP1 DUP2 MSTORE PUSH1 0x20 ADD PUSH1 0x0 KECCAK256 PUSH1 0x0 SWAP1 SLOAD SWAP1 PUSH2 0x100 EXP SWAP1 DIV PUSH1 0xFF AND ISZERO ISZERO EQ PUSH2 0x10E4 JUMPI PUSH1 0x40 MLOAD PUSH32 0x8C379A000000000000000000000000000000000000000000000000000000000 DUP2 MSTORE PUSH1 0x4 ADD PUSH2 0x10DB SWAP1 PUSH2 0x1814 JUMP JUMPDEST PUSH1 0x40 MLOAD DUP1 SWAP2 SUB SWAP1 REVERT JUMPDEST PUSH1 0x1 DUP1 PUSH1 0x0 CALLER PUSH20 0xFFFFFFFFFFFFFFFFFFFFFFFFFFFFFFFFFFFFFFFF AND PUSH20 0xFFFFFFFFFFFFFFFFFFFFFFFFFFFFFFFFFFFFFFFF AND DUP2 MSTORE PUSH1 0x20 ADD SWAP1 DUP2 MSTORE PUSH1 0x20 ADD PUSH1 0x0 KECCAK256 PUSH1 0x0 DUP6 DUP6 DUP6 DUP2 DUP2 LT PUSH2 0x1139 JUMPI PUSH2 0x1138 PUSH2 0x19EE JUMP JUMPDEST JUMPDEST SWAP1 POP PUSH1 0x20 MUL ADD PUSH1 0x20 DUP2 ADD SWAP1 PUSH2 0x114E SWAP2 SWAP1 PUSH2 0x156C JUMP JUMPDEST PUSH2 0xFFFF AND PUSH2 0xFFFF AND DUP2 MSTORE PUSH1 0x20 ADD SWAP1 DUP2 MSTORE PUSH1 0x20 ADD PUSH1 0x0 KECCAK256 PUSH1 0x0 PUSH2 0x100 EXP DUP2 SLOAD DUP2 PUSH1 0xFF MUL NOT AND SWAP1 DUP4 ISZERO ISZERO MUL OR SWAP1 SSTORE POP CALLER PUSH20 0xFFFFFFFFFFFFFFFFFFFFFFFFFFFFFFFFFFFFFFFF AND PUSH32 0x5E0ADDF626D7D7091AB7AEBF34682C3203384648734760B24921E31DDCEC0BB5 DUP5 DUP5 DUP5 DUP2 DUP2 LT PUSH2 0x11C6 JUMPI PUSH2 0x11C5 PUSH2 0x19EE JUMP JUMPDEST JUMPDEST SWAP1 POP PUSH1 0x20 MUL ADD PUSH1 0x20 DUP2 ADD SWAP1 PUSH2 0x11DB SWAP2 SWAP1 PUSH2 0x156C JUMP JUMPDEST PUSH1 0x40 MLOAD PUSH2 0x11E8 SWAP2 SWAP1 PUSH2 0x1843 JUMP JUMPDEST PUSH1 0x40 MLOAD DUP1 SWAP2 SUB SWAP1 LOG2 DUP1 DUP1 PUSH2 0x11FB SWAP1 PUSH2 0x1AB8 JUMP JUMPDEST SWAP2 POP POP PUSH2 0x1006 JUMP JUMPDEST POP POP POP JUMP JUMPDEST PUSH1 0x0 DUP1 CALLER PUSH20 0xFFFFFFFFFFFFFFFFFFFFFFFFFFFFFFFFFFFFFFFF AND PUSH20 0xFFFFFFFFFFFFFFFFFFFFFFFFFFFFFFFFFFFFFFFF AND DUP2 MSTORE PUSH1 0x20 ADD SWAP1 DUP2 MSTORE PUSH1 0x20 ADD PUSH1 0x0 KECCAK256 PUSH1 0x0 SWAP1 SLOAD SWAP1 PUSH2 0x100 EXP SWAP1 DIV PUSH1 0xFF AND PUSH2 0x1293 JUMPI PUSH1 0x40 MLOAD PUSH32 0x8C379A000000000000000000000000000000000000000000000000000000000 DUP2 MSTORE PUSH1 0x4 ADD PUSH2 0x128A SWAP1 PUSH2 0x17A8 JUMP JUMPDEST PUSH1 0x40 MLOAD DUP1 SWAP2 SUB SWAP1 REVERT JUMPDEST POP POP JUMP JUMPDEST PUSH1 0x0 DUP3 PUSH20 0xFFFFFFFFFFFFFFFFFFFFFFFFFFFFFFFFFFFFFFFF AND PUSH4 0x6A3EDF28 PUSH1 0x40 MLOAD DUP2 PUSH4 0xFFFFFFFF AND PUSH1 0xE0 SHL DUP2 MSTORE PUSH1 0x4 ADD PUSH1 0x20 PUSH1 0x40 MLOAD DUP1 DUP4 SUB DUP2 DUP7 GAS STATICCALL ISZERO DUP1 ISZERO PUSH2 0x12E4 JUMPI RETURNDATASIZE PUSH1 0x0 DUP1 RETURNDATACOPY RETURNDATASIZE PUSH1 0x0 REVERT JUMPDEST POP POP POP POP PUSH1 0x40 MLOAD RETURNDATASIZE PUSH1 0x1F NOT PUSH1 0x1F DUP3 ADD AND DUP3 ADD DUP1 PUSH1 0x40 MSTORE POP DUP2 ADD SWAP1 PUSH2 0x1308 SWAP2 SWAP1 PUSH2 0x1C13 JUMP JUMPDEST PUSH20 0xFFFFFFFFFFFFFFFFFFFFFFFFFFFFFFFFFFFFFFFF AND PUSH4 0x134E18F4 PUSH1 0x40 MLOAD DUP2 PUSH4 0xFFFFFFFF AND PUSH1 0xE0 SHL DUP2 MSTORE PUSH1 0x4 ADD PUSH1 0x20 PUSH1 0x40 MLOAD DUP1 DUP4 SUB DUP2 DUP7 GAS STATICCALL ISZERO DUP1 ISZERO PUSH2 0x1352 JUMPI RETURNDATASIZE PUSH1 0x0 DUP1 RETURNDATACOPY RETURNDATASIZE PUSH1 0x0 REVERT JUMPDEST POP POP POP POP PUSH1 0x40 MLOAD RETURNDATASIZE PUSH1 0x1F NOT PUSH1 0x1F DUP3 ADD AND DUP3 ADD DUP1 PUSH1 0x40 MSTORE POP DUP2 ADD SWAP1 PUSH2 0x1376 SWAP2 SWAP1 PUSH2 0x1C7E JUMP JUMPDEST PUSH20 0xFFFFFFFFFFFFFFFFFFFFFFFFFFFFFFFFFFFFFFFF AND PUSH4 0x7E42683B DUP4 PUSH1 0x40 MLOAD DUP3 PUSH4 0xFFFFFFFF AND PUSH1 0xE0 SHL DUP2 MSTORE PUSH1 0x4 ADD PUSH2 0x13AE SWAP2 SWAP1 PUSH2 0x1CBA JUMP JUMPDEST PUSH1 0x20 PUSH1 0x40 MLOAD DUP1 DUP4 SUB DUP2 DUP7 GAS STATICCALL ISZERO DUP1 ISZERO PUSH2 0x13CB JUMPI RETURNDATASIZE PUSH1 0x0 DUP1 RETURNDATACOPY RETURNDATASIZE PUSH1 0x0 REVERT JUMPDEST POP POP POP POP PUSH1 0x40 MLOAD RETURNDATASIZE PUSH1 0x1F NOT PUSH1 0x1F DUP3 ADD AND DUP3 ADD DUP1 PUSH1 0x40 MSTORE POP DUP2 ADD SWAP1 PUSH2 0x13EF SWAP2 SWAP1 PUSH2 0x1CEA JUMP JUMPDEST SWAP1 POP SWAP3 SWAP2 POP POP JUMP JUMPDEST PUSH1 0x0 DUP1 REVERT JUMPDEST PUSH1 0x0 DUP1 REVERT JUMPDEST PUSH1 0x0 PUSH20 0xFFFFFFFFFFFFFFFFFFFFFFFFFFFFFFFFFFFFFFFF DUP3 AND SWAP1 POP SWAP2 SWAP1 POP JUMP JUMPDEST PUSH1 0x0 PUSH2 0x142C DUP3 PUSH2 0x1401 JUMP JUMPDEST SWAP1 POP SWAP2 SWAP1 POP JUMP JUMPDEST PUSH2 0x143C DUP2 PUSH2 0x1421 JUMP JUMPDEST DUP2 EQ PUSH2 0x1447 JUMPI PUSH1 0x0 DUP1 REVERT JUMPDEST POP JUMP JUMPDEST PUSH1 0x0 DUP2 CALLDATALOAD SWAP1 POP PUSH2 0x1459 DUP2 PUSH2 0x1433 JUMP JUMPDEST SWAP3 SWAP2 POP POP JUMP JUMPDEST PUSH1 0x0 DUP2 SWAP1 POP SWAP2 SWAP1 POP JUMP JUMPDEST PUSH2 0x1472 DUP2 PUSH2 0x145F JUMP JUMPDEST DUP2 EQ PUSH2 0x147D JUMPI PUSH1 0x0 DUP1 REVERT JUMPDEST POP JUMP JUMPDEST PUSH1 0x0 DUP2 CALLDATALOAD SWAP1 POP PUSH2 0x148F DUP2 PUSH2 0x1469 JUMP JUMPDEST SWAP3 SWAP2 POP POP JUMP JUMPDEST PUSH1 0x0 DUP1 PUSH1 0x0 DUP1 PUSH1 0x80 DUP6 DUP8 SUB SLT ISZERO PUSH2 0x14AF JUMPI PUSH2 0x14AE PUSH2 0x13F7 JUMP JUMPDEST JUMPDEST PUSH1 0x0 PUSH2 0x14BD DUP8 DUP3 DUP9 ADD PUSH2 0x144A JUMP JUMPDEST SWAP5 POP POP PUSH1 0x20 PUSH2 0x14CE DUP8 DUP3 DUP9 ADD PUSH2 0x144A JUMP JUMPDEST SWAP4 POP POP PUSH1 0x40 PUSH2 0x14DF DUP8 DUP3 DUP9 ADD PUSH2 0x1480 JUMP JUMPDEST SWAP3 POP POP PUSH1 0x60 PUSH2 0x14F0 DUP8 DUP3 DUP9 ADD PUSH2 0x144A JUMP JUMPDEST SWAP2 POP POP SWAP3 SWAP6 SWAP2 SWAP5 POP SWAP3 POP JUMP JUMPDEST PUSH1 0x0 DUP2 ISZERO ISZERO SWAP1 POP SWAP2 SWAP1 POP JUMP JUMPDEST PUSH2 0x1511 DUP2 PUSH2 0x14FC JUMP JUMPDEST DUP3 MSTORE POP POP JUMP JUMPDEST PUSH1 0x0 PUSH1 0x20 DUP3 ADD SWAP1 POP PUSH2 0x152C PUSH1 0x0 DUP4 ADD DUP5 PUSH2 0x1508 JUMP JUMPDEST SWAP3 SWAP2 POP POP JUMP JUMPDEST PUSH1 0x0 PUSH2 0xFFFF DUP3 AND SWAP1 POP SWAP2 SWAP1 POP JUMP JUMPDEST PUSH2 0x1549 DUP2 PUSH2 0x1532 JUMP JUMPDEST DUP2 EQ PUSH2 0x1554 JUMPI PUSH1 0x0 DUP1 REVERT JUMPDEST POP JUMP JUMPDEST PUSH1 0x0 DUP2 CALLDATALOAD SWAP1 POP PUSH2 0x1566 DUP2 PUSH2 0x1540 JUMP JUMPDEST SWAP3 SWAP2 POP POP JUMP JUMPDEST PUSH1 0x0 PUSH1 0x20 DUP3 DUP5 SUB SLT ISZERO PUSH2 0x1582 JUMPI PUSH2 0x1581 PUSH2 0x13F7 JUMP JUMPDEST JUMPDEST PUSH1 0x0 PUSH2 0x1590 DUP5 DUP3 DUP6 ADD PUSH2 0x1557 JUMP JUMPDEST SWAP2 POP POP SWAP3 SWAP2 POP POP JUMP JUMPDEST PUSH1 0x0 PUSH1 0x20 DUP3 DUP5 SUB SLT ISZERO PUSH2 0x15AF JUMPI PUSH2 0x15AE PUSH2 0x13F7 JUMP JUMPDEST JUMPDEST PUSH1 0x0 PUSH2 0x15BD DUP5 DUP3 DUP6 ADD PUSH2 0x144A JUMP JUMPDEST SWAP2 POP POP SWAP3 SWAP2 POP POP JUMP JUMPDEST PUSH1 0x0 DUP1 REVERT JUMPDEST PUSH1 0x0 DUP1 REVERT JUMPDEST PUSH1 0x0 DUP1 REVERT JUMPDEST PUSH1 0x0 DUP1 DUP4 PUSH1 0x1F DUP5 ADD SLT PUSH2 0x15EB JUMPI PUSH2 0x15EA PUSH2 0x15C6 JUMP JUMPDEST JUMPDEST DUP3 CALLDATALOAD SWAP1 POP PUSH8 0xFFFFFFFFFFFFFFFF DUP2 GT ISZERO PUSH2 0x1608 JUMPI PUSH2 0x1607 PUSH2 0x15CB JUMP JUMPDEST JUMPDEST PUSH1 0x20 DUP4 ADD SWAP2 POP DUP4 PUSH1 0x20 DUP3 MUL DUP4 ADD GT ISZERO PUSH2 0x1624 JUMPI PUSH2 0x1623 PUSH2 0x15D0 JUMP JUMPDEST JUMPDEST SWAP3 POP SWAP3 SWAP1 POP JUMP JUMPDEST PUSH1 0x0 DUP1 PUSH1 0x20 DUP4 DUP6 SUB SLT ISZERO PUSH2 0x1642 JUMPI PUSH2 0x1641 PUSH2 0x13F7 JUMP JUMPDEST JUMPDEST PUSH1 0x0 DUP4 ADD CALLDATALOAD PUSH8 0xFFFFFFFFFFFFFFFF DUP2 GT ISZERO PUSH2 0x1660 JUMPI PUSH2 0x165F PUSH2 0x13FC JUMP JUMPDEST JUMPDEST PUSH2 0x166C DUP6 DUP3 DUP7 ADD PUSH2 0x15D5 JUMP JUMPDEST SWAP3 POP SWAP3 POP POP SWAP3 POP SWAP3 SWAP1 POP JUMP JUMPDEST PUSH1 0x0 DUP1 PUSH1 0x0 PUSH1 0x60 DUP5 DUP7 SUB SLT ISZERO PUSH2 0x1691 JUMPI PUSH2 0x1690 PUSH2 0x13F7 JUMP JUMPDEST JUMPDEST PUSH1 0x0 PUSH2 0x169F DUP7 DUP3 DUP8 ADD PUSH2 0x144A JUMP JUMPDEST SWAP4 POP POP PUSH1 0x20 PUSH2 0x16B0 DUP7 DUP3 DUP8 ADD PUSH2 0x144A JUMP JUMPDEST SWAP3 POP POP PUSH1 0x40 PUSH2 0x16C1 DUP7 DUP3 DUP8 ADD PUSH2 0x1480 JUMP JUMPDEST SWAP2 POP POP SWAP3 POP SWAP3 POP SWAP3 JUMP JUMPDEST PUSH1 0x0 DUP1 PUSH1 0x40 DUP4 DUP6 SUB SLT ISZERO PUSH2 0x16E2 JUMPI PUSH2 0x16E1 PUSH2 0x13F7 JUMP JUMPDEST JUMPDEST PUSH1 0x0 PUSH2 0x16F0 DUP6 DUP3 DUP7 ADD PUSH2 0x144A JUMP JUMPDEST SWAP3 POP POP PUSH1 0x20 PUSH2 0x1701 DUP6 DUP3 DUP7 ADD PUSH2 0x1557 JUMP JUMPDEST SWAP2 POP POP SWAP3 POP SWAP3 SWAP1 POP JUMP JUMPDEST PUSH1 0x0 DUP1 PUSH1 0x40 DUP4 DUP6 SUB SLT ISZERO PUSH2 0x1722 JUMPI PUSH2 0x1721 PUSH2 0x13F7 JUMP JUMPDEST JUMPDEST PUSH1 0x0 PUSH2 0x1730 DUP6 DUP3 DUP7 ADD PUSH2 0x144A JUMP JUMPDEST SWAP3 POP POP PUSH1 0x20 PUSH2 0x1741 DUP6 DUP3 DUP7 ADD PUSH2 0x1480 JUMP JUMPDEST SWAP2 POP POP SWAP3 POP SWAP3 SWAP1 POP JUMP JUMPDEST PUSH1 0x0 DUP3 DUP3 MSTORE PUSH1 0x20 DUP3 ADD SWAP1 POP SWAP3 SWAP2 POP POP JUMP JUMPDEST PUSH32 0x6F6E6C7920626F756E6420636F6D706C69616E63652063616E2063616C6C0000 PUSH1 0x0 DUP3 ADD MSTORE POP JUMP JUMPDEST PUSH1 0x0 PUSH2 0x1792 PUSH1 0x1E DUP4 PUSH2 0x174B JUMP JUMPDEST SWAP2 POP PUSH2 0x179D DUP3 PUSH2 0x175C JUMP JUMPDEST PUSH1 0x20 DUP3 ADD SWAP1 POP SWAP2 SWAP1 POP JUMP JUMPDEST PUSH1 0x0 PUSH1 0x20 DUP3 ADD SWAP1 POP DUP2 DUP2 SUB PUSH1 0x0 DUP4 ADD MSTORE PUSH2 0x17C1 DUP2 PUSH2 0x1785 JUMP JUMPDEST SWAP1 POP SWAP2 SWAP1 POP JUMP JUMPDEST PUSH32 0x636F756E74727920616C72656164792072657374726963746564000000000000 PUSH1 0x0 DUP3 ADD MSTORE POP JUMP JUMPDEST PUSH1 0x0 PUSH2 0x17FE PUSH1 0x1A DUP4 PUSH2 0x174B JUMP JUMPDEST SWAP2 POP PUSH2 0x1809 DUP3 PUSH2 0x17C8 JUMP JUMPDEST PUSH1 0x20 DUP3 ADD SWAP1 POP SWAP2 SWAP1 POP JUMP JUMPDEST PUSH1 0x0 PUSH1 0x20 DUP3 ADD SWAP1 POP DUP2 DUP2 SUB PUSH1 0x0 DUP4 ADD MSTORE PUSH2 0x182D DUP2 PUSH2 0x17F1 JUMP JUMPDEST SWAP1 POP SWAP2 SWAP1 POP JUMP JUMPDEST PUSH2 0x183D DUP2 PUSH2 0x1532 JUMP JUMPDEST DUP3 MSTORE POP POP JUMP JUMPDEST PUSH1 0x0 PUSH1 0x20 DUP3 ADD SWAP1 POP PUSH2 0x1858 PUSH1 0x0 DUP4 ADD DUP5 PUSH2 0x1834 JUMP JUMPDEST SWAP3 SWAP2 POP POP JUMP JUMPDEST PUSH32 0x696E76616C696420617267756D656E74202D207A65726F206164647265737300 PUSH1 0x0 DUP3 ADD MSTORE POP JUMP JUMPDEST PUSH1 0x0 PUSH2 0x1894 PUSH1 0x1F DUP4 PUSH2 0x174B JUMP JUMPDEST SWAP2 POP PUSH2 0x189F DUP3 PUSH2 0x185E JUMP JUMPDEST PUSH1 0x20 DUP3 ADD SWAP1 POP SWAP2 SWAP1 POP JUMP JUMPDEST PUSH1 0x0 PUSH1 0x20 DUP3 ADD SWAP1 POP DUP2 DUP2 SUB PUSH1 0x0 DUP4 ADD MSTORE PUSH2 0x18C3 DUP2 PUSH2 0x1887 JUMP JUMPDEST SWAP1 POP SWAP2 SWAP1 POP JUMP JUMPDEST PUSH32 0x6F6E6C7920636F6D706C69616E636520636F6E74726163742063616E2063616C PUSH1 0x0 DUP3 ADD MSTORE PUSH32 0x6C00000000000000000000000000000000000000000000000000000000000000 PUSH1 0x20 DUP3 ADD MSTORE POP JUMP JUMPDEST PUSH1 0x0 PUSH2 0x1926 PUSH1 0x21 DUP4 PUSH2 0x174B JUMP JUMPDEST SWAP2 POP PUSH2 0x1931 DUP3 PUSH2 0x18CA JUMP JUMPDEST PUSH1 0x40 DUP3 ADD SWAP1 POP SWAP2 SWAP1 POP JUMP JUMPDEST PUSH1 0x0 PUSH1 0x20 DUP3 ADD SWAP1 POP DUP2 DUP2 SUB PUSH1 0x0 DUP4 ADD MSTORE PUSH2 0x1955 DUP2 PUSH2 0x1919 JUMP JUMPDEST SWAP1 POP SWAP2 SWAP1 POP JUMP JUMPDEST PUSH32 0x6D6178696D756D203139352063616E20626520756E7265737472696374656420 PUSH1 0x0 DUP3 ADD MSTORE PUSH32 0x696E206F6E652062617463680000000000000000000000000000000000000000 PUSH1 0x20 DUP3 ADD MSTORE POP JUMP JUMPDEST PUSH1 0x0 PUSH2 0x19B8 PUSH1 0x2C DUP4 PUSH2 0x174B JUMP JUMPDEST SWAP2 POP PUSH2 0x19C3 DUP3 PUSH2 0x195C JUMP JUMPDEST PUSH1 0x40 DUP3 ADD SWAP1 POP SWAP2 SWAP1 POP JUMP JUMPDEST PUSH1 0x0 PUSH1 0x20 DUP3 ADD SWAP1 POP DUP2 DUP2 SUB PUSH1 0x0 DUP4 ADD MSTORE PUSH2 0x19E7 DUP2 PUSH2 0x19AB JUMP JUMPDEST SWAP1 POP SWAP2 SWAP1 POP JUMP JUMPDEST PUSH32 0x4E487B7100000000000000000000000000000000000000000000000000000000 PUSH1 0x0 MSTORE PUSH1 0x32 PUSH1 0x4 MSTORE PUSH1 0x24 PUSH1 0x0 REVERT JUMPDEST PUSH32 0x636F756E747279206E6F74207265737472696374656400000000000000000000 PUSH1 0x0 DUP3 ADD MSTORE POP JUMP JUMPDEST PUSH1 0x0 PUSH2 0x1A53 PUSH1 0x16 DUP4 PUSH2 0x174B JUMP JUMPDEST SWAP2 POP PUSH2 0x1A5E DUP3 PUSH2 0x1A1D JUMP JUMPDEST PUSH1 0x20 DUP3 ADD SWAP1 POP SWAP2 SWAP1 POP JUMP JUMPDEST PUSH1 0x0 PUSH1 0x20 DUP3 ADD SWAP1 POP DUP2 DUP2 SUB PUSH1 0x0 DUP4 ADD MSTORE PUSH2 0x1A82 DUP2 PUSH2 0x1A46 JUMP JUMPDEST SWAP1 POP SWAP2 SWAP1 POP JUMP JUMPDEST PUSH32 0x4E487B7100000000000000000000000000000000000000000000000000000000 PUSH1 0x0 MSTORE PUSH1 0x11 PUSH1 0x4 MSTORE PUSH1 0x24 PUSH1 0x0 REVERT JUMPDEST PUSH1 0x0 PUSH2 0x1AC3 DUP3 PUSH2 0x145F JUMP JUMPDEST SWAP2 POP PUSH32 0xFFFFFFFFFFFFFFFFFFFFFFFFFFFFFFFFFFFFFFFFFFFFFFFFFFFFFFFFFFFFFFFF DUP3 SUB PUSH2 0x1AF5 JUMPI PUSH2 0x1AF4 PUSH2 0x1A89 JUMP JUMPDEST JUMPDEST PUSH1 0x1 DUP3 ADD SWAP1 POP SWAP2 SWAP1 POP JUMP JUMPDEST PUSH32 0x636F6D706C69616E636520616C726561647920626F756E640000000000000000 PUSH1 0x0 DUP3 ADD MSTORE POP JUMP JUMPDEST PUSH1 0x0 PUSH2 0x1B36 PUSH1 0x18 DUP4 PUSH2 0x174B JUMP JUMPDEST SWAP2 POP PUSH2 0x1B41 DUP3 PUSH2 0x1B00 JUMP JUMPDEST PUSH1 0x20 DUP3 ADD SWAP1 POP SWAP2 SWAP1 POP JUMP JUMPDEST PUSH1 0x0 PUSH1 0x20 DUP3 ADD SWAP1 POP DUP2 DUP2 SUB PUSH1 0x0 DUP4 ADD MSTORE PUSH2 0x1B65 DUP2 PUSH2 0x1B29 JUMP JUMPDEST SWAP1 POP SWAP2 SWAP1 POP JUMP JUMPDEST PUSH32 0x6D6178696D756D203139352063616E206265207265737472696374656420696E PUSH1 0x0 DUP3 ADD MSTORE PUSH32 0x206F6E6520626174636800000000000000000000000000000000000000000000 PUSH1 0x20 DUP3 ADD MSTORE POP JUMP JUMPDEST PUSH1 0x0 PUSH2 0x1BC8 PUSH1 0x2A DUP4 PUSH2 0x174B JUMP JUMPDEST SWAP2 POP PUSH2 0x1BD3 DUP3 PUSH2 0x1B6C JUMP JUMPDEST PUSH1 0x40 DUP3 ADD SWAP1 POP SWAP2 SWAP1 POP JUMP JUMPDEST PUSH1 0x0 PUSH1 0x20 DUP3 ADD SWAP1 POP DUP2 DUP2 SUB PUSH1 0x0 DUP4 ADD MSTORE PUSH2 0x1BF7 DUP2 PUSH2 0x1BBB JUMP JUMPDEST SWAP1 POP SWAP2 SWAP1 POP JUMP JUMPDEST PUSH1 0x0 DUP2 MLOAD SWAP1 POP PUSH2 0x1C0D DUP2 PUSH2 0x1433 JUMP JUMPDEST SWAP3 SWAP2 POP POP JUMP JUMPDEST PUSH1 0x0 PUSH1 0x20 DUP3 DUP5 SUB SLT ISZERO PUSH2 0x1C29 JUMPI PUSH2 0x1C28 PUSH2 0x13F7 JUMP JUMPDEST JUMPDEST PUSH1 0x0 PUSH2 0x1C37 DUP5 DUP3 DUP6 ADD PUSH2 0x1BFE JUMP JUMPDEST SWAP2 POP POP SWAP3 SWAP2 POP POP JUMP JUMPDEST PUSH1 0x0 PUSH2 0x1C4B DUP3 PUSH2 0x1421 JUMP JUMPDEST SWAP1 POP SWAP2 SWAP1 POP JUMP JUMPDEST PUSH2 0x1C5B DUP2 PUSH2 0x1C40 JUMP JUMPDEST DUP2 EQ PUSH2 0x1C66 JUMPI PUSH1 0x0 DUP1 REVERT JUMPDEST POP JUMP JUMPDEST PUSH1 0x0 DUP2 MLOAD SWAP1 POP PUSH2 0x1C78 DUP2 PUSH2 0x1C52 JUMP JUMPDEST SWAP3 SWAP2 POP POP JUMP JUMPDEST PUSH1 0x0 PUSH1 0x20 DUP3 DUP5 SUB SLT ISZERO PUSH2 0x1C94 JUMPI PUSH2 0x1C93 PUSH2 0x13F7 JUMP JUMPDEST JUMPDEST PUSH1 0x0 PUSH2 0x1CA2 DUP5 DUP3 DUP6 ADD PUSH2 0x1C69 JUMP JUMPDEST SWAP2 POP POP SWAP3 SWAP2 POP POP JUMP JUMPDEST PUSH2 0x1CB4 DUP2 PUSH2 0x1421 JUMP JUMPDEST DUP3 MSTORE POP POP JUMP JUMPDEST PUSH1 0x0 PUSH1 0x20 DUP3 ADD SWAP1 POP PUSH2 0x1CCF PUSH1 0x0 DUP4 ADD DUP5 PUSH2 0x1CAB JUMP JUMPDEST SWAP3 SWAP2 POP POP JUMP JUMPDEST PUSH1 0x0 DUP2 MLOAD SWAP1 POP PUSH2 0x1CE4 DUP2 PUSH2 0x1540 JUMP JUMPDEST SWAP3 SWAP2 POP POP JUMP JUMPDEST PUSH1 0x0 PUSH1 0x20 DUP3 DUP5 SUB SLT ISZERO PUSH2 0x1D00 JUMPI PUSH2 0x1CFF PUSH2 0x13F7 JUMP JUMPDEST JUMPDEST PUSH1 0x0 PUSH2 0x1D0E DUP5 DUP3 DUP6 ADD PUSH2 0x1CD5 JUMP JUMPDEST SWAP2 POP POP SWAP3 SWAP2 POP POP JUMP INVALID LOG2 PUSH5 0x6970667358 0x22 SLT KECCAK256 0xD4 SMOD 0xBF DIFFICULTY PUSH27 0x207B264A10B6F19004344700C994E5A74975BD55054712541134B9 PUSH5 0x736F6C6343 STOP ADDMOD GT STOP CALLER "
				},
				"gasEstimates": {
					"creation": {
						"codeDepositCost": "1500200",
						"executionCost": "1568",
						"totalCost": "1501768"
					},
					"external": {
						"addCountryRestriction(uint16)": "infinite",
						"batchRestrictCountries(uint16[])": "infinite",
						"batchUnrestrictCountries(uint16[])": "infinite",
						"bindCompliance(address)": "28310",
						"isComplianceBound(address)": "2927",
						"isCountryRestricted(address,uint16)": "3263",
						"moduleBurnAction(address,uint256)": "3155",
						"moduleCheck(address,address,uint256,address)": "infinite",
						"moduleMintAction(address,uint256)": "3265",
						"moduleTransferAction(address,address,uint256)": "infinite",
						"removeCountryRestriction(uint16)": "infinite",
						"unbindCompliance(address)": "28329"
					},
					"internal": {
						"_getCountry(address,address)": "infinite"
					}
				},
				"methodIdentifiers": {
					"addCountryRestriction(uint16)": "0333ce24",
					"batchRestrictCountries(uint16[])": "bdf9a07e",
					"batchUnrestrictCountries(uint16[])": "249c981d",
					"bindCompliance(address)": "4a932544",
					"isComplianceBound(address)": "4cf4d295",
					"isCountryRestricted(address,uint16)": "30236f4a",
					"moduleBurnAction(address,uint256)": "372491a2",
					"moduleCheck(address,address,uint256,address)": "013b7ce4",
					"moduleMintAction(address,uint256)": "f104a8c9",
					"moduleTransferAction(address,address,uint256)": "2cb7e1ec",
					"removeCountryRestriction(uint16)": "6aae7b26",
					"unbindCompliance(address)": "0694a5fb"
				}
			},
			"storageLayout": {
				"storage": [
					{
						"astId": 515,
						"contract": "erc3643/erc3643/Compliance/modular/Modules/CountryRestrictModule.sol:CountryRestrictModule",
						"label": "_complianceBound",
						"offset": 0,
						"slot": "0",
						"type": "t_mapping(t_address,t_bool)"
					},
					{
						"astId": 646,
						"contract": "erc3643/erc3643/Compliance/modular/Modules/CountryRestrictModule.sol:CountryRestrictModule",
						"label": "_restrictedCountries",
						"offset": 0,
						"slot": "1",
						"type": "t_mapping(t_address,t_mapping(t_uint16,t_bool))"
					}
				],
				"types": {
					"t_address": {
						"encoding": "inplace",
						"label": "address",
						"numberOfBytes": "20"
					},
					"t_bool": {
						"encoding": "inplace",
						"label": "bool",
						"numberOfBytes": "1"
					},
					"t_mapping(t_address,t_bool)": {
						"encoding": "mapping",
						"key": "t_address",
						"label": "mapping(address => bool)",
						"numberOfBytes": "32",
						"value": "t_bool"
					},
					"t_mapping(t_address,t_mapping(t_uint16,t_bool))": {
						"encoding": "mapping",
						"key": "t_address",
						"label": "mapping(address => mapping(uint16 => bool))",
						"numberOfBytes": "32",
						"value": "t_mapping(t_uint16,t_bool)"
					},
					"t_mapping(t_uint16,t_bool)": {
						"encoding": "mapping",
						"key": "t_uint16",
						"label": "mapping(uint16 => bool)",
						"numberOfBytes": "32",
						"value": "t_bool"
					},
					"t_uint16": {
						"encoding": "inplace",
						"label": "uint16",
						"numberOfBytes": "2"
					}
				}
			},
			"userdoc": {
				"kind": "user",
				"methods": {},
				"version": 1
			}
		}
	}
}