{
	"data": {
		"bytecode": {
			"linkReferences": {},
			"object": "60806040526006805461ffff191690553480156200001c57600080fd5b5060405162002958380380620029588339810160408190526200003f91620002a3565b8060006001600160a01b0382166200009e5760405162461bcd60e51b815260206004820152601f60248201527f696e76616c696420617267756d656e74202d207a65726f20616464726573730060448201526064015b60405180910390fd5b80620000b557620000af82620000cc565b620000c3565b6006805460ff191660011790555b505050620002d5565b60065460ff161580620000de5750303b155b6200012c5760405162461bcd60e51b815260206004820152601e60248201527f496e697469616c206b65792077617320616c72656164792073657475702e0000604482015260640162000095565b6006805461ffff1916610101179055604080516001600160a01b03831660208201526000910160408051601f1981840301815282825280516020918201206000818152600180845284822060028101849055868501909552808652908290529182905293506200019d929062000237565b506000818152600160208181526040808420830183905560029091527fe90b7bceb6e7df5418fb78d8ee546e97c83a08bbccc01a0644d599ccd2a7c2e0805480840182559084527f7fef4bf8f63cf9dd467136c679c02b5c17fcf6322d9562512bf5eb952cf7cc5301849055519091829184917f480000bb1edad8ca1470381cc334b1917fbd51c6531f3a623ea8e0ec7e38a6e991a45050565b8280548282559060005260206000209081019282156200027a579160200282015b828111156200027a578251829060ff1690559160200191906001019062000258565b50620002889291506200028c565b5090565b5b808211156200028857600081556001016200028d565b600060208284031215620002b657600080fd5b81516001600160a01b0381168114620002ce57600080fd5b9392505050565b61267380620002e56000396000f3fe6080604052600436106101095760003560e01c80639010f72611610095578063c4d66de811610064578063c4d66de814610351578063c9100bcb14610373578063cf3c6feb146103a5578063d202158d146103c5578063fb307b34146103e557600080fd5b80639010f726146102af578063a192b909146102cf578063b1a34e0d1461031e578063b61d27f61461033e57600080fd5b80634eee424a116100dc5780634eee424a146101eb57806353d413c51461020b57806354fd4d501461022b578063747442d31461026257806380e9e9e11461028257600080fd5b806312aaac701461010e5780631d38124014610146578063360b429a146101765780634226d55a146101bd575b600080fd5b34801561011a57600080fd5b5061012e610129366004611cc0565b610412565b60405161013d93929190611d14565b60405180910390f35b34801561015257600080fd5b50610166610161366004611d39565b61048b565b604051901515815260200161013d565b34801561018257600080fd5b50604080518082018252601181527062797465736461746128737472696e672960781b602091820152905163cf3c6feb60e01b81520161013d565b3480156101c957600080fd5b506101dd6101d8366004611d7c565b6106ee565b60405190815260200161013d565b3480156101f757600080fd5b50610166610206366004611cc0565b610727565b34801561021757600080fd5b50610166610226366004611e03565b6109e8565b34801561023757600080fd5b50604080518082019091526005815264322e302e3160d81b60208201525b60405161013d9190611e6b565b34801561026e57600080fd5b5061016661027d366004611e93565b610dd8565b34801561028e57600080fd5b506102a261029d366004611cc0565b6111b5565b60405161013d9190611ec3565b3480156102bb57600080fd5b506102a26102ca366004611cc0565b611217565b3480156102db57600080fd5b506101dd6102ea366004611f07565b604080516001600160a01b038316602082015260009101604051602081830303815290604052805190602001209050919050565b34801561032a57600080fd5b506101dd610339366004611fc5565b611277565b6101dd61034c366004612070565b611543565b34801561035d57600080fd5b5061037161036c366004611f07565b611675565b005b34801561037f57600080fd5b5061039361038e366004611cc0565b6116d7565b60405161013d969594939291906120c7565b3480156103b157600080fd5b506102556103c0366004612127565b6118d8565b3480156103d157600080fd5b506101666103e0366004611e03565b611901565b3480156103f157600080fd5b50610405610400366004611cc0565b611a02565b60405161013d919061215c565b60008181526001602081815260408084209283015460028401548454835181860281018601909452808452606096958695909491859183018282801561047757602002820191906000526020600020905b815481526020019060010190808311610463575b505050505092509250925092509193909250565b60065460009060ff6101009091041615156001146104c45760405162461bcd60e51b81526004016104bb9061216f565b60405180910390fd5b333014806104fa5750604080513360208201526104fa91015b604051602081830303815290604052805190602001206001611901565b6105165760405162461bcd60e51b81526004016104bb906121c2565b6000848152600160205260409020600201548490036106495760008481526001602090815260408083208054825181850281018501909352808352919290919083018282801561058557602002820191906000526020600020905b815481526020019060010190808311610571575b5050505050905060005b81518110156106225760008282815181106105ac576105ac612212565b6020026020010151905085810361060f5760405162461bcd60e51b815260206004820152602160248201527f436f6e666c6963743a204b657920616c72656164792068617320707572706f736044820152606560f81b60648201526084016104bb565b508061061a8161223e565b91505061058f565b50506000848152600160208181526040832080549283018155835290912001839055610695565b6000848152600160208181526040808420600281018990558151808401909252878252938890529082905261067e9291611bc8565b506000848152600160208190526040909120018290555b60008381526002602090815260408083208054600181018255908452918320909101869055518391859187917f480000bb1edad8ca1470381cc334b1917fbd51c6531f3a623ea8e0ec7e38a6e991a45060019392505050565b6000848484846040516020016107079493929190612257565b604051602081830303815290604052805190602001209050949350505050565b60065460009060ff6101009091041615156001146107575760405162461bcd60e51b81526004016104bb9061216f565b3330148061078d57506040805133602082015261078d91015b604051602081830303815290604052805190602001206003611901565b6107a95760405162461bcd60e51b81526004016104bb9061229f565b6000828152600460205260408120549081900361081c5760405162461bcd60e51b815260206004820152602b60248201527f4e6f6e4578697374696e673a205468657265206973206e6f20636c61696d207760448201526a1a5d1a081d1a1a5cc8125160aa1b60648201526084016104bb565b6000818152600560205260408120545b600083815260056020526040902080548691908490811061084f5761084f612212565b90600052602060002001541461087457816108698161223e565b92505080821061082c575b600083815260056020526040902061088d6001836122f1565b8154811061089d5761089d612212565b90600052602060002001546005600085815260200190815260200160002083815481106108cc576108cc612212565b9060005260206000200181905550600560008481526020019081526020016000208054806108fc576108fc612304565b6000828152602080822083016000199081018390559092019092558682526004908190526040918290206002810154600182015493516001600160a01b039091169387938a937f3cf57863a89432c61c4a27073c6ee39e8a764bff5a05aebfbcdcdc80b2e6130a9361097d93926003830192908101916005909101906123d1565b60405180910390a46000858152600460205260408120818155600181018290556002810180546001600160a01b0319169055906109bd6003830182611c13565b6109cb600483016000611c13565b6109d9600583016000611c13565b5050600193505050505b919050565b60065460009060ff610100909104161515600114610a185760405162461bcd60e51b81526004016104bb9061216f565b33301480610a35575060408051336020820152610a3591016104dd565b610a515760405162461bcd60e51b81526004016104bb906121c2565b6000838152600160205260409020600201548314610abb5760405162461bcd60e51b815260206004820152602160248201527f4e6f6e4578697374696e673a204b65792069736e2774207265676973746572656044820152601960fa1b60648201526084016104bb565b600083815260016020908152604080832080548251818502810185019093528083529192909190830182828015610b1157602002820191906000526020600020905b815481526020019060010190808311610afd575b5050505050905060005b83828281518110610b2e57610b2e612212565b602002602001015114610bb05780610b458161223e565b91505081518103610bab5760405162461bcd60e51b815260206004820152602a60248201527f4e6f6e4578697374696e673a204b657920646f65736e27742068617665207375604482015269636820707572706f736560b01b60648201526084016104bb565b610b1b565b8160018351610bbf91906122f1565b81518110610bcf57610bcf612212565b6020026020010151828281518110610be957610be9612212565b602090810291909101810191909152600086815260018252604090208351610c1392850190611bc8565b506000858152600160205260409020805480610c3157610c31612304565b6000828152602080822083016000199081018390559092019092558582526002905260408120545b6000868152600260205260409020805488919084908110610c7c57610c7c612212565b906000526020600020015414610ca15781610c968161223e565b925050808210610c59575b6000868152600260205260409020610cba6001836122f1565b81548110610cca57610cca612212565b9060005260206000200154600260008881526020019081526020016000208381548110610cf957610cf9612212565b906000526020600020018190555060026000878152602001908152602001600020805480610d2957610d29612304565b6001900381819060005260206000200160009055905560006001600089815260200190815260200160002060010154905060018551610d6891906122f1565b600003610d9957600088815260016020526040812090610d888282611c4d565b506000600182018190556002909101555b8087897f585a4aef50f8267a92b32412b331b20f7f8b96f2245b253b9cc50dcc621d339760405160405180910390a46001955050505050505b92915050565b60065460009060ff610100909104161515600114610e085760405162461bcd60e51b81526004016104bb9061216f565b6000548310610e695760405162461bcd60e51b815260206004820152602760248201527f43616e6e6f7420617070726f76652061206e6f6e2d6578697374696e6720657860448201526632b1baba34b7b760c91b60648201526084016104bb565b60008381526003602081905260409091200154610100900460ff1615610ed15760405162461bcd60e51b815260206004820152601860248201527f5265717565737420616c7265616479206578656375746564000000000000000060448201526064016104bb565b600083815260036020526040902054306001600160a01b0390911603610f625760408051336020820152610f0591016104dd565b610f5d5760405162461bcd60e51b815260206004820152602360248201527f53656e64657220646f6573206e6f742068617665206d616e6167656d656e74206044820152626b657960e81b60648201526084016104bb565b610fdb565b60408051336020820152610f8f91015b604051602081830303815290604052805190602001206002611901565b610fdb5760405162461bcd60e51b815260206004820152601f60248201527f53656e64657220646f6573206e6f74206861766520616374696f6e206b65790060448201526064016104bb565b827fb3932da477fe5d6c8ff2eafef050c0f3a1af18fc07121001482600f36f3715d88360405161100f911515815260200190565b60405180910390a281151560010361119757600083815260036020819052604091829020908101805460ff1916600190811790915581549082015492516001600160a01b03909116929161106891600290910190612410565b60006040518083038185875af1925050503d80600081146110a5576040519150601f19603f3d011682016040523d82523d6000602084013e6110aa565b606091505b5090915050801561112f57600083815260036020819052604091829020908101805461ff00191661010017905560018101548154925190926001600160a01b03169186917f1f920dbda597d7bf95035464170fa58d0a4b57f13a1c315ace6793b9f63688b89161111f91600290910190612486565b60405180910390a4506001610dd2565b6000838152600360205260409081902060018101548154925190926001600160a01b03169186917fe10c49d9f7c71da23262367013434763cfdb2332267641728d25cd712c5c6a689161118791600290910190612486565b60405180910390a4506000610dd2565b50506000908152600360208190526040822001805460ff1916905590565b60008181526005602090815260409182902080548351818402810184019094528084526060939283018282801561120b57602002820191906000526020600020905b8154815260200190600101908083116111f7575b50505050509050919050565b60008181526002602090815260409182902080548351818402810184019094528084526060939283018282801561120b57602002820191906000526020600020908154815260200190600101908083116111f75750505050509050919050565b60065460009060ff6101009091041615156001146112a75760405162461bcd60e51b81526004016104bb9061216f565b333014806112c45750604080513360208201526112c49101610770565b6112e05760405162461bcd60e51b81526004016104bb9061229f565b6001600160a01b038516301461139f5760405163604b4d3760e11b81526001600160a01b0386169063c0969a6e906113229030908b9089908990600401612499565b602060405180830381865afa15801561133f573d6000803e3d6000fd5b505050506040513d601f19601f8201168201806040525081019061136391906124d2565b61139f5760405162461bcd60e51b815260206004820152600d60248201526c696e76616c696420636c61696d60981b60448201526064016104bb565b604080516001600160a01b038716602082015290810188905260009060600160408051601f198184030181529181528151602092830120600081815260049093529120898155600181018990559091506003016113fc868261253e565b50600081815260046020819052604090912001611419858261253e565b506000818152600460205260409020600501611435848261253e565b506000818152600460205260409020600201546001600160a01b038781169116146114ee57600088815260056020908152604080832080546001810182559084528284200184905583835260049091529081902060020180546001600160a01b0319166001600160a01b0389169081179091559051899083907f46149b18aa084502c3f12bc75e19eda8bda8d102b82cce8474677a6d0d5f43c5906114e1908c908b908b908b906125fe565b60405180910390a4611538565b856001600160a01b031688827f3bab293fc00db832d7619a9299914251b8747c036867ec056cbd506f60135b138a89898960405161152f94939291906125fe565b60405180910390a45b979650505050505050565b60065460009060ff6101009091041615156001146115735760405162461bcd60e51b81526004016104bb9061216f565b600080548082526003602052604090912080546001600160a01b0319166001600160a01b038716178155600181018590556002016115b1848261253e565b506000805490806115c18361223e565b919050555083856001600160a01b0316827f8afcfabcb00e47a53a8fc3e9f23ff47ee1926194bb1350dd007c50b412a6cee8866040516116019190611e6b565b60405180910390a46040805133602082015261161d91016104dd565b156116335761162d816001610dd8565b5061166d565b6001600160a01b038516301480159061165b57506040805133602082015261165b9101610f72565b1561166d5761166b816001610dd8565b505b949350505050565b6001600160a01b0381166116cb5760405162461bcd60e51b815260206004820152601f60248201527f696e76616c696420617267756d656e74202d207a65726f20616464726573730060448201526064016104bb565b6116d481611a62565b50565b600081815260046020819052604082208054600182015460028301546003840180548796879660609687968796919590946001600160a01b0390921693909290810191600590910190839061172b9061231a565b80601f01602080910402602001604051908101604052809291908181526020018280546117579061231a565b80156117a45780601f10611779576101008083540402835291602001916117a4565b820191906000526020600020905b81548152906001019060200180831161178757829003601f168201915b505050505092508180546117b79061231a565b80601f01602080910402602001604051908101604052809291908181526020018280546117e39061231a565b80156118305780601f1061180557610100808354040283529160200191611830565b820191906000526020600020905b81548152906001019060200180831161181357829003601f168201915b505050505091508080546118439061231a565b80601f016020809104026020016040519081016040528092919081815260200182805461186f9061231a565b80156118bc5780601f10611891576101008083540402835291602001916118bc565b820191906000526020600020905b81548152906001019060200180831161189f57829003601f168201915b5050505050905095509550955095509550955091939550919395565b6060816040516020016118eb9190611e6b565b6040516020818303038152906040529050919050565b6000828152600160209081526040808320815181546080948102820185019093526060810183815285949193849284919084018282801561196157602002820191906000526020600020905b81548152602001906001019080831161194d575b505050918352505060018201546020820152600290910154604091820152810151909150600003611996576000915050610dd2565b60005b8151518110156119f7576000826000015182815181106119bb576119bb612212565b6020026020010151905080600114806119d357508481145b156119e45760019350505050610dd2565b50806119ef8161223e565b915050611999565b506000949350505050565b60008181526001602090815260409182902080548351818402810184019094528084526060939283018282801561120b57602002820191906000526020600020908154815260200190600101908083116111f75750505050509050919050565b60065460ff161580611a735750303b155b611abf5760405162461bcd60e51b815260206004820152601e60248201527f496e697469616c206b65792077617320616c72656164792073657475702e000060448201526064016104bb565b6006805461ffff1916610101179055604080516001600160a01b03831660208201526000910160408051601f198184030181528282528051602091820120600081815260018084528482206002810184905586850190955280865290829052918290529350611b2e9290611c6b565b506000818152600160208181526040808420830183905560029091527fe90b7bceb6e7df5418fb78d8ee546e97c83a08bbccc01a0644d599ccd2a7c2e0805480840182559084527f7fef4bf8f63cf9dd467136c679c02b5c17fcf6322d9562512bf5eb952cf7cc5301849055519091829184917f480000bb1edad8ca1470381cc334b1917fbd51c6531f3a623ea8e0ec7e38a6e991a45050565b828054828255906000526020600020908101928215611c03579160200282015b82811115611c03578251825591602001919060010190611be8565b50611c0f929150611cab565b5090565b508054611c1f9061231a565b6000825580601f10611c2f575050565b601f0160209004906000526020600020908101906116d49190611cab565b50805460008255906000526020600020908101906116d49190611cab565b828054828255906000526020600020908101928215611c03579160200282015b82811115611c03578251829060ff16905591602001919060010190611c8b565b5b80821115611c0f5760008155600101611cac565b600060208284031215611cd257600080fd5b5035919050565b600081518084526020808501945080840160005b83811015611d0957815187529582019590820190600101611ced565b509495945050505050565b606081526000611d276060830186611cd9565b60208301949094525060400152919050565b600080600060608486031215611d4e57600080fd5b505081359360208301359350604090920135919050565b80356001600160a01b03811681146109e357600080fd5b60008060008060608587031215611d9257600080fd5b611d9b85611d65565b935060208501359250604085013567ffffffffffffffff80821115611dbf57600080fd5b818701915087601f830112611dd357600080fd5b813581811115611de257600080fd5b886020828501011115611df457600080fd5b95989497505060200194505050565b60008060408385031215611e1657600080fd5b50508035926020909101359150565b6000815180845260005b81811015611e4b57602081850181015186830182015201611e2f565b506000602082860101526020601f19601f83011685010191505092915050565b602081526000611e7e6020830184611e25565b9392505050565b80151581146116d457600080fd5b60008060408385031215611ea657600080fd5b823591506020830135611eb881611e85565b809150509250929050565b6020808252825182820181905260009190848201906040850190845b81811015611efb57835183529284019291840191600101611edf565b50909695505050505050565b600060208284031215611f1957600080fd5b611e7e82611d65565b634e487b7160e01b600052604160045260246000fd5b600082601f830112611f4957600080fd5b813567ffffffffffffffff80821115611f6457611f64611f22565b604051601f8301601f19908116603f01168101908282118183101715611f8c57611f8c611f22565b81604052838152866020858801011115611fa557600080fd5b836020870160208301376000602085830101528094505050505092915050565b60008060008060008060c08789031215611fde57600080fd5b8635955060208701359450611ff560408801611d65565b9350606087013567ffffffffffffffff8082111561201257600080fd5b61201e8a838b01611f38565b9450608089013591508082111561203457600080fd5b6120408a838b01611f38565b935060a089013591508082111561205657600080fd5b5061206389828a01611f38565b9150509295509295509295565b60008060006060848603121561208557600080fd5b61208e84611d65565b925060208401359150604084013567ffffffffffffffff8111156120b157600080fd5b6120bd86828701611f38565b9150509250925092565b86815285602082015260018060a01b038516604082015260c0606082015260006120f460c0830186611e25565b82810360808401526121068186611e25565b905082810360a084015261211a8185611e25565b9998505050505050505050565b60006020828403121561213957600080fd5b813567ffffffffffffffff81111561215057600080fd5b61166d84828501611f38565b602081526000611e7e6020830184611cd9565b60208082526033908201527f496e746572616374696e67207769746820746865206c69627261727920636f6e6040820152723a3930b1ba1034b9903337b93134b23232b71760691b606082015260800190565b60208082526030908201527f5065726d697373696f6e733a2053656e64657220646f6573206e6f742068617660408201526f65206d616e6167656d656e74206b657960801b606082015260800190565b634e487b7160e01b600052603260045260246000fd5b634e487b7160e01b600052601160045260246000fd5b60006001820161225057612250612228565b5060010190565b6001600160a01b0385168152602081018490526060604082018190528101829052818360808301376000818301608090810191909152601f909201601f191601019392505050565b60208082526032908201527f5065726d697373696f6e733a2053656e64657220646f6573206e6f74206861766040820152716520636c61696d207369676e6572206b657960701b606082015260800190565b81810381811115610dd257610dd2612228565b634e487b7160e01b600052603160045260246000fd5b600181811c9082168061232e57607f821691505b60208210810361234e57634e487b7160e01b600052602260045260246000fd5b50919050565b600081546123618161231a565b80855260206001838116801561237e5760018114612398576123c6565b60ff1985168884015283151560051b8801830195506123c6565b866000528260002060005b858110156123be5781548a82018601529083019084016123a3565b890184019650505b505050505092915050565b8481526080602082015260006123ea6080830186612354565b82810360408401526123fc8186612354565b905082810360608401526115388185612354565b600080835461241e8161231a565b60018281168015612436576001811461244b5761247a565b60ff198416875282151583028701945061247a565b8760005260208060002060005b858110156124715781548a820152908401908201612458565b50505082870194505b50929695505050505050565b602081526000611e7e6020830184612354565b60018060a01b03851681528360208201526080604082015260006124c06080830185611e25565b82810360608401526115388185611e25565b6000602082840312156124e457600080fd5b8151611e7e81611e85565b601f82111561253957600081815260208120601f850160051c810160208610156125165750805b601f850160051c820191505b8181101561253557828155600101612522565b5050505b505050565b815167ffffffffffffffff81111561255857612558611f22565b61256c81612566845461231a565b846124ef565b602080601f8311600181146125a157600084156125895750858301515b600019600386901b1c1916600185901b178555612535565b600085815260208120601f198616915b828110156125d0578886015182559484019460019091019084016125b1565b50858210156125ee5787850151600019600388901b60f8161c191681555b5050505050600190811b01905550565b8481526080602082015260006126176080830186611e25565b82810360408401526126298186611e25565b905082810360608401526115388185611e2556fea2646970667358221220f261f2b3d500c0b99b11d73c62e18e8f69ab51032db5b46cfd0001a403403d3a64736f6c63430008110033",
			"opcodes": "PUSH1 0x80 PUSH1 0x40 MSTORE PUSH1 0x6 DUP1 SLOAD PUSH2 0xFFFF NOT AND SWAP1 SSTORE CALLVALUE DUP1 ISZERO PUSH3 0x1C JUMPI PUSH1 0x0 DUP1 REVERT JUMPDEST POP PUSH1 0x40 MLOAD PUSH3 0x2958 CODESIZE SUB DUP1 PUSH3 0x2958 DUP4 CODECOPY DUP2 ADD PUSH1 0x40 DUP2 SWAP1 MSTORE PUSH3 0x3F SWAP2 PUSH3 0x2A3 JUMP JUMPDEST DUP1 PUSH1 0x0 PUSH1 0x1 PUSH1 0x1 PUSH1 0xA0 SHL SUB DUP3 AND PUSH3 0x9E JUMPI PUSH1 0x40 MLOAD PUSH3 0x461BCD PUSH1 0xE5 SHL DUP2 MSTORE PUSH1 0x20 PUSH1 0x4 DUP3 ADD MSTORE PUSH1 0x1F PUSH1 0x24 DUP3 ADD MSTORE PUSH32 0x696E76616C696420617267756D656E74202D207A65726F206164647265737300 PUSH1 0x44 DUP3 ADD MSTORE PUSH1 0x64 ADD JUMPDEST PUSH1 0x40 MLOAD DUP1 SWAP2 SUB SWAP1 REVERT JUMPDEST DUP1 PUSH3 0xB5 JUMPI PUSH3 0xAF DUP3 PUSH3 0xCC JUMP JUMPDEST PUSH3 0xC3 JUMP JUMPDEST PUSH1 0x6 DUP1 SLOAD PUSH1 0xFF NOT AND PUSH1 0x1 OR SWAP1 SSTORE JUMPDEST POP POP POP PUSH3 0x2D5 JUMP JUMPDEST PUSH1 0x6 SLOAD PUSH1 0xFF AND ISZERO DUP1 PUSH3 0xDE JUMPI POP ADDRESS EXTCODESIZE ISZERO JUMPDEST PUSH3 0x12C JUMPI PUSH1 0x40 MLOAD PUSH3 0x461BCD PUSH1 0xE5 SHL DUP2 MSTORE PUSH1 0x20 PUSH1 0x4 DUP3 ADD MSTORE PUSH1 0x1E PUSH1 0x24 DUP3 ADD MSTORE PUSH32 0x496E697469616C206B65792077617320616C72656164792073657475702E0000 PUSH1 0x44 DUP3 ADD MSTORE PUSH1 0x64 ADD PUSH3 0x95 JUMP JUMPDEST PUSH1 0x6 DUP1 SLOAD PUSH2 0xFFFF NOT AND PUSH2 0x101 OR SWAP1 SSTORE PUSH1 0x40 DUP1 MLOAD PUSH1 0x1 PUSH1 0x1 PUSH1 0xA0 SHL SUB DUP4 AND PUSH1 0x20 DUP3 ADD MSTORE PUSH1 0x0 SWAP2 ADD PUSH1 0x40 DUP1 MLOAD PUSH1 0x1F NOT DUP2 DUP5 SUB ADD DUP2 MSTORE DUP3 DUP3 MSTORE DUP1 MLOAD PUSH1 0x20 SWAP2 DUP3 ADD KECCAK256 PUSH1 0x0 DUP2 DUP2 MSTORE PUSH1 0x1 DUP1 DUP5 MSTORE DUP5 DUP3 KECCAK256 PUSH1 0x2 DUP2 ADD DUP5 SWAP1 SSTORE DUP7 DUP6 ADD SWAP1 SWAP6 MSTORE DUP1 DUP7 MSTORE SWAP1 DUP3 SWAP1 MSTORE SWAP2 DUP3 SWAP1 MSTORE SWAP4 POP PUSH3 0x19D SWAP3 SWAP1 PUSH3 0x237 JUMP JUMPDEST POP PUSH1 0x0 DUP2 DUP2 MSTORE PUSH1 0x1 PUSH1 0x20 DUP2 DUP2 MSTORE PUSH1 0x40 DUP1 DUP5 KECCAK256 DUP4 ADD DUP4 SWAP1 SSTORE PUSH1 0x2 SWAP1 SWAP2 MSTORE PUSH32 0xE90B7BCEB6E7DF5418FB78D8EE546E97C83A08BBCCC01A0644D599CCD2A7C2E0 DUP1 SLOAD DUP1 DUP5 ADD DUP3 SSTORE SWAP1 DUP5 MSTORE PUSH32 0x7FEF4BF8F63CF9DD467136C679C02B5C17FCF6322D9562512BF5EB952CF7CC53 ADD DUP5 SWAP1 SSTORE MLOAD SWAP1 SWAP2 DUP3 SWAP2 DUP5 SWAP2 PUSH32 0x480000BB1EDAD8CA1470381CC334B1917FBD51C6531F3A623EA8E0EC7E38A6E9 SWAP2 LOG4 POP POP JUMP JUMPDEST DUP3 DUP1 SLOAD DUP3 DUP3 SSTORE SWAP1 PUSH1 0x0 MSTORE PUSH1 0x20 PUSH1 0x0 KECCAK256 SWAP1 DUP2 ADD SWAP3 DUP3 ISZERO PUSH3 0x27A JUMPI SWAP2 PUSH1 0x20 MUL DUP3 ADD JUMPDEST DUP3 DUP2 GT ISZERO PUSH3 0x27A JUMPI DUP3 MLOAD DUP3 SWAP1 PUSH1 0xFF AND SWAP1 SSTORE SWAP2 PUSH1 0x20 ADD SWAP2 SWAP1 PUSH1 0x1 ADD SWAP1 PUSH3 0x258 JUMP JUMPDEST POP PUSH3 0x288 SWAP3 SWAP2 POP PUSH3 0x28C JUMP JUMPDEST POP SWAP1 JUMP JUMPDEST JUMPDEST DUP1 DUP3 GT ISZERO PUSH3 0x288 JUMPI PUSH1 0x0 DUP2 SSTORE PUSH1 0x1 ADD PUSH3 0x28D JUMP JUMPDEST PUSH1 0x0 PUSH1 0x20 DUP3 DUP5 SUB SLT ISZERO PUSH3 0x2B6 JUMPI PUSH1 0x0 DUP1 REVERT JUMPDEST DUP2 MLOAD PUSH1 0x1 PUSH1 0x1 PUSH1 0xA0 SHL SUB DUP2 AND DUP2 EQ PUSH3 0x2CE JUMPI PUSH1 0x0 DUP1 REVERT JUMPDEST SWAP4 SWAP3 POP POP POP JUMP JUMPDEST PUSH2 0x2673 DUP1 PUSH3 0x2E5 PUSH1 0x0 CODECOPY PUSH1 0x0 RETURN INVALID PUSH1 0x80 PUSH1 0x40 MSTORE PUSH1 0x4 CALLDATASIZE LT PUSH2 0x109 JUMPI PUSH1 0x0 CALLDATALOAD PUSH1 0xE0 SHR DUP1 PUSH4 0x9010F726 GT PUSH2 0x95 JUMPI DUP1 PUSH4 0xC4D66DE8 GT PUSH2 0x64 JUMPI DUP1 PUSH4 0xC4D66DE8 EQ PUSH2 0x351 JUMPI DUP1 PUSH4 0xC9100BCB EQ PUSH2 0x373 JUMPI DUP1 PUSH4 0xCF3C6FEB EQ PUSH2 0x3A5 JUMPI DUP1 PUSH4 0xD202158D EQ PUSH2 0x3C5 JUMPI DUP1 PUSH4 0xFB307B34 EQ PUSH2 0x3E5 JUMPI PUSH1 0x0 DUP1 REVERT JUMPDEST DUP1 PUSH4 0x9010F726 EQ PUSH2 0x2AF JUMPI DUP1 PUSH4 0xA192B909 EQ PUSH2 0x2CF JUMPI DUP1 PUSH4 0xB1A34E0D EQ PUSH2 0x31E JUMPI DUP1 PUSH4 0xB61D27F6 EQ PUSH2 0x33E JUMPI PUSH1 0x0 DUP1 REVERT JUMPDEST DUP1 PUSH4 0x4EEE424A GT PUSH2 0xDC JUMPI DUP1 PUSH4 0x4EEE424A EQ PUSH2 0x1EB JUMPI DUP1 PUSH4 0x53D413C5 EQ PUSH2 0x20B JUMPI DUP1 PUSH4 0x54FD4D50 EQ PUSH2 0x22B JUMPI DUP1 PUSH4 0x747442D3 EQ PUSH2 0x262 JUMPI DUP1 PUSH4 0x80E9E9E1 EQ PUSH2 0x282 JUMPI PUSH1 0x0 DUP1 REVERT JUMPDEST DUP1 PUSH4 0x12AAAC70 EQ PUSH2 0x10E JUMPI DUP1 PUSH4 0x1D381240 EQ PUSH2 0x146 JUMPI DUP1 PUSH4 0x360B429A EQ PUSH2 0x176 JUMPI DUP1 PUSH4 0x4226D55A EQ PUSH2 0x1BD JUMPI JUMPDEST PUSH1 0x0 DUP1 REVERT JUMPDEST CALLVALUE DUP1 ISZERO PUSH2 0x11A JUMPI PUSH1 0x0 DUP1 REVERT JUMPDEST POP PUSH2 0x12E PUSH2 0x129 CALLDATASIZE PUSH1 0x4 PUSH2 0x1CC0 JUMP JUMPDEST PUSH2 0x412 JUMP JUMPDEST PUSH1 0x40 MLOAD PUSH2 0x13D SWAP4 SWAP3 SWAP2 SWAP1 PUSH2 0x1D14 JUMP JUMPDEST PUSH1 0x40 MLOAD DUP1 SWAP2 SUB SWAP1 RETURN JUMPDEST CALLVALUE DUP1 ISZERO PUSH2 0x152 JUMPI PUSH1 0x0 DUP1 REVERT JUMPDEST POP PUSH2 0x166 PUSH2 0x161 CALLDATASIZE PUSH1 0x4 PUSH2 0x1D39 JUMP JUMPDEST PUSH2 0x48B JUMP JUMPDEST PUSH1 0x40 MLOAD SWAP1 ISZERO ISZERO DUP2 MSTORE PUSH1 0x20 ADD PUSH2 0x13D JUMP JUMPDEST CALLVALUE DUP1 ISZERO PUSH2 0x182 JUMPI PUSH1 0x0 DUP1 REVERT JUMPDEST POP PUSH1 0x40 DUP1 MLOAD DUP1 DUP3 ADD DUP3 MSTORE PUSH1 0x11 DUP2 MSTORE PUSH17 0x62797465736461746128737472696E6729 PUSH1 0x78 SHL PUSH1 0x20 SWAP2 DUP3 ADD MSTORE SWAP1 MLOAD PUSH4 0xCF3C6FEB PUSH1 0xE0 SHL DUP2 MSTORE ADD PUSH2 0x13D JUMP JUMPDEST CALLVALUE DUP1 ISZERO PUSH2 0x1C9 JUMPI PUSH1 0x0 DUP1 REVERT JUMPDEST POP PUSH2 0x1DD PUSH2 0x1D8 CALLDATASIZE PUSH1 0x4 PUSH2 0x1D7C JUMP JUMPDEST PUSH2 0x6EE JUMP JUMPDEST PUSH1 0x40 MLOAD SWAP1 DUP2 MSTORE PUSH1 0x20 ADD PUSH2 0x13D JUMP JUMPDEST CALLVALUE DUP1 ISZERO PUSH2 0x1F7 JUMPI PUSH1 0x0 DUP1 REVERT JUMPDEST POP PUSH2 0x166 PUSH2 0x206 CALLDATASIZE PUSH1 0x4 PUSH2 0x1CC0 JUMP JUMPDEST PUSH2 0x727 JUMP JUMPDEST CALLVALUE DUP1 ISZERO PUSH2 0x217 JUMPI PUSH1 0x0 DUP1 REVERT JUMPDEST POP PUSH2 0x166 PUSH2 0x226 CALLDATASIZE PUSH1 0x4 PUSH2 0x1E03 JUMP JUMPDEST PUSH2 0x9E8 JUMP JUMPDEST CALLVALUE DUP1 ISZERO PUSH2 0x237 JUMPI PUSH1 0x0 DUP1 REVERT JUMPDEST POP PUSH1 0x40 DUP1 MLOAD DUP1 DUP3 ADD SWAP1 SWAP2 MSTORE PUSH1 0x5 DUP2 MSTORE PUSH5 0x322E302E31 PUSH1 0xD8 SHL PUSH1 0x20 DUP3 ADD MSTORE JUMPDEST PUSH1 0x40 MLOAD PUSH2 0x13D SWAP2 SWAP1 PUSH2 0x1E6B JUMP JUMPDEST CALLVALUE DUP1 ISZERO PUSH2 0x26E JUMPI PUSH1 0x0 DUP1 REVERT JUMPDEST POP PUSH2 0x166 PUSH2 0x27D CALLDATASIZE PUSH1 0x4 PUSH2 0x1E93 JUMP JUMPDEST PUSH2 0xDD8 JUMP JUMPDEST CALLVALUE DUP1 ISZERO PUSH2 0x28E JUMPI PUSH1 0x0 DUP1 REVERT JUMPDEST POP PUSH2 0x2A2 PUSH2 0x29D CALLDATASIZE PUSH1 0x4 PUSH2 0x1CC0 JUMP JUMPDEST PUSH2 0x11B5 JUMP JUMPDEST PUSH1 0x40 MLOAD PUSH2 0x13D SWAP2 SWAP1 PUSH2 0x1EC3 JUMP JUMPDEST CALLVALUE DUP1 ISZERO PUSH2 0x2BB JUMPI PUSH1 0x0 DUP1 REVERT JUMPDEST POP PUSH2 0x2A2 PUSH2 0x2CA CALLDATASIZE PUSH1 0x4 PUSH2 0x1CC0 JUMP JUMPDEST PUSH2 0x1217 JUMP JUMPDEST CALLVALUE DUP1 ISZERO PUSH2 0x2DB JUMPI PUSH1 0x0 DUP1 REVERT JUMPDEST POP PUSH2 0x1DD PUSH2 0x2EA CALLDATASIZE PUSH1 0x4 PUSH2 0x1F07 JUMP JUMPDEST PUSH1 0x40 DUP1 MLOAD PUSH1 0x1 PUSH1 0x1 PUSH1 0xA0 SHL SUB DUP4 AND PUSH1 0x20 DUP3 ADD MSTORE PUSH1 0x0 SWAP2 ADD PUSH1 0x40 MLOAD PUSH1 0x20 DUP2 DUP4 SUB SUB DUP2 MSTORE SWAP1 PUSH1 0x40 MSTORE DUP1 MLOAD SWAP1 PUSH1 0x20 ADD KECCAK256 SWAP1 POP SWAP2 SWAP1 POP JUMP JUMPDEST CALLVALUE DUP1 ISZERO PUSH2 0x32A JUMPI PUSH1 0x0 DUP1 REVERT JUMPDEST POP PUSH2 0x1DD PUSH2 0x339 CALLDATASIZE PUSH1 0x4 PUSH2 0x1FC5 JUMP JUMPDEST PUSH2 0x1277 JUMP JUMPDEST PUSH2 0x1DD PUSH2 0x34C CALLDATASIZE PUSH1 0x4 PUSH2 0x2070 JUMP JUMPDEST PUSH2 0x1543 JUMP JUMPDEST CALLVALUE DUP1 ISZERO PUSH2 0x35D JUMPI PUSH1 0x0 DUP1 REVERT JUMPDEST POP PUSH2 0x371 PUSH2 0x36C CALLDATASIZE PUSH1 0x4 PUSH2 0x1F07 JUMP JUMPDEST PUSH2 0x1675 JUMP JUMPDEST STOP JUMPDEST CALLVALUE DUP1 ISZERO PUSH2 0x37F JUMPI PUSH1 0x0 DUP1 REVERT JUMPDEST POP PUSH2 0x393 PUSH2 0x38E CALLDATASIZE PUSH1 0x4 PUSH2 0x1CC0 JUMP JUMPDEST PUSH2 0x16D7 JUMP JUMPDEST PUSH1 0x40 MLOAD PUSH2 0x13D SWAP7 SWAP6 SWAP5 SWAP4 SWAP3 SWAP2 SWAP1 PUSH2 0x20C7 JUMP JUMPDEST CALLVALUE DUP1 ISZERO PUSH2 0x3B1 JUMPI PUSH1 0x0 DUP1 REVERT JUMPDEST POP PUSH2 0x255 PUSH2 0x3C0 CALLDATASIZE PUSH1 0x4 PUSH2 0x2127 JUMP JUMPDEST PUSH2 0x18D8 JUMP JUMPDEST CALLVALUE DUP1 ISZERO PUSH2 0x3D1 JUMPI PUSH1 0x0 DUP1 REVERT JUMPDEST POP PUSH2 0x166 PUSH2 0x3E0 CALLDATASIZE PUSH1 0x4 PUSH2 0x1E03 JUMP JUMPDEST PUSH2 0x1901 JUMP JUMPDEST CALLVALUE DUP1 ISZERO PUSH2 0x3F1 JUMPI PUSH1 0x0 DUP1 REVERT JUMPDEST POP PUSH2 0x405 PUSH2 0x400 CALLDATASIZE PUSH1 0x4 PUSH2 0x1CC0 JUMP JUMPDEST PUSH2 0x1A02 JUMP JUMPDEST PUSH1 0x40 MLOAD PUSH2 0x13D SWAP2 SWAP1 PUSH2 0x215C JUMP JUMPDEST PUSH1 0x0 DUP2 DUP2 MSTORE PUSH1 0x1 PUSH1 0x20 DUP2 DUP2 MSTORE PUSH1 0x40 DUP1 DUP5 KECCAK256 SWAP3 DUP4 ADD SLOAD PUSH1 0x2 DUP5 ADD SLOAD DUP5 SLOAD DUP4 MLOAD DUP2 DUP7 MUL DUP2 ADD DUP7 ADD SWAP1 SWAP5 MSTORE DUP1 DUP5 MSTORE PUSH1 0x60 SWAP7 SWAP6 DUP7 SWAP6 SWAP1 SWAP5 SWAP2 DUP6 SWAP2 DUP4 ADD DUP3 DUP3 DUP1 ISZERO PUSH2 0x477 JUMPI PUSH1 0x20 MUL DUP3 ADD SWAP2 SWAP1 PUSH1 0x0 MSTORE PUSH1 0x20 PUSH1 0x0 KECCAK256 SWAP1 JUMPDEST DUP2 SLOAD DUP2 MSTORE PUSH1 0x20 ADD SWAP1 PUSH1 0x1 ADD SWAP1 DUP1 DUP4 GT PUSH2 0x463 JUMPI JUMPDEST POP POP POP POP POP SWAP3 POP SWAP3 POP SWAP3 POP SWAP3 POP SWAP2 SWAP4 SWAP1 SWAP3 POP JUMP JUMPDEST PUSH1 0x6 SLOAD PUSH1 0x0 SWAP1 PUSH1 0xFF PUSH2 0x100 SWAP1 SWAP2 DIV AND ISZERO ISZERO PUSH1 0x1 EQ PUSH2 0x4C4 JUMPI PUSH1 0x40 MLOAD PUSH3 0x461BCD PUSH1 0xE5 SHL DUP2 MSTORE PUSH1 0x4 ADD PUSH2 0x4BB SWAP1 PUSH2 0x216F JUMP JUMPDEST PUSH1 0x40 MLOAD DUP1 SWAP2 SUB SWAP1 REVERT JUMPDEST CALLER ADDRESS EQ DUP1 PUSH2 0x4FA JUMPI POP PUSH1 0x40 DUP1 MLOAD CALLER PUSH1 0x20 DUP3 ADD MSTORE PUSH2 0x4FA SWAP2 ADD JUMPDEST PUSH1 0x40 MLOAD PUSH1 0x20 DUP2 DUP4 SUB SUB DUP2 MSTORE SWAP1 PUSH1 0x40 MSTORE DUP1 MLOAD SWAP1 PUSH1 0x20 ADD KECCAK256 PUSH1 0x1 PUSH2 0x1901 JUMP JUMPDEST PUSH2 0x516 JUMPI PUSH1 0x40 MLOAD PUSH3 0x461BCD PUSH1 0xE5 SHL DUP2 MSTORE PUSH1 0x4 ADD PUSH2 0x4BB SWAP1 PUSH2 0x21C2 JUMP JUMPDEST PUSH1 0x0 DUP5 DUP2 MSTORE PUSH1 0x1 PUSH1 0x20 MSTORE PUSH1 0x40 SWAP1 KECCAK256 PUSH1 0x2 ADD SLOAD DUP5 SWAP1 SUB PUSH2 0x649 JUMPI PUSH1 0x0 DUP5 DUP2 MSTORE PUSH1 0x1 PUSH1 0x20 SWAP1 DUP2 MSTORE PUSH1 0x40 DUP1 DUP4 KECCAK256 DUP1 SLOAD DUP3 MLOAD DUP2 DUP6 MUL DUP2 ADD DUP6 ADD SWAP1 SWAP4 MSTORE DUP1 DUP4 MSTORE SWAP2 SWAP3 SWAP1 SWAP2 SWAP1 DUP4 ADD DUP3 DUP3 DUP1 ISZERO PUSH2 0x585 JUMPI PUSH1 0x20 MUL DUP3 ADD SWAP2 SWAP1 PUSH1 0x0 MSTORE PUSH1 0x20 PUSH1 0x0 KECCAK256 SWAP1 JUMPDEST DUP2 SLOAD DUP2 MSTORE PUSH1 0x20 ADD SWAP1 PUSH1 0x1 ADD SWAP1 DUP1 DUP4 GT PUSH2 0x571 JUMPI JUMPDEST POP POP POP POP POP SWAP1 POP PUSH1 0x0 JUMPDEST DUP2 MLOAD DUP2 LT ISZERO PUSH2 0x622 JUMPI PUSH1 0x0 DUP3 DUP3 DUP2 MLOAD DUP2 LT PUSH2 0x5AC JUMPI PUSH2 0x5AC PUSH2 0x2212 JUMP JUMPDEST PUSH1 0x20 MUL PUSH1 0x20 ADD ADD MLOAD SWAP1 POP DUP6 DUP2 SUB PUSH2 0x60F JUMPI PUSH1 0x40 MLOAD PUSH3 0x461BCD PUSH1 0xE5 SHL DUP2 MSTORE PUSH1 0x20 PUSH1 0x4 DUP3 ADD MSTORE PUSH1 0x21 PUSH1 0x24 DUP3 ADD MSTORE PUSH32 0x436F6E666C6963743A204B657920616C72656164792068617320707572706F73 PUSH1 0x44 DUP3 ADD MSTORE PUSH1 0x65 PUSH1 0xF8 SHL PUSH1 0x64 DUP3 ADD MSTORE PUSH1 0x84 ADD PUSH2 0x4BB JUMP JUMPDEST POP DUP1 PUSH2 0x61A DUP2 PUSH2 0x223E JUMP JUMPDEST SWAP2 POP POP PUSH2 0x58F JUMP JUMPDEST POP POP PUSH1 0x0 DUP5 DUP2 MSTORE PUSH1 0x1 PUSH1 0x20 DUP2 DUP2 MSTORE PUSH1 0x40 DUP4 KECCAK256 DUP1 SLOAD SWAP3 DUP4 ADD DUP2 SSTORE DUP4 MSTORE SWAP1 SWAP2 KECCAK256 ADD DUP4 SWAP1 SSTORE PUSH2 0x695 JUMP JUMPDEST PUSH1 0x0 DUP5 DUP2 MSTORE PUSH1 0x1 PUSH1 0x20 DUP2 DUP2 MSTORE PUSH1 0x40 DUP1 DUP5 KECCAK256 PUSH1 0x2 DUP2 ADD DUP10 SWAP1 SSTORE DUP2 MLOAD DUP1 DUP5 ADD SWAP1 SWAP3 MSTORE DUP8 DUP3 MSTORE SWAP4 DUP9 SWAP1 MSTORE SWAP1 DUP3 SWAP1 MSTORE PUSH2 0x67E SWAP3 SWAP2 PUSH2 0x1BC8 JUMP JUMPDEST POP PUSH1 0x0 DUP5 DUP2 MSTORE PUSH1 0x1 PUSH1 0x20 DUP2 SWAP1 MSTORE PUSH1 0x40 SWAP1 SWAP2 KECCAK256 ADD DUP3 SWAP1 SSTORE JUMPDEST PUSH1 0x0 DUP4 DUP2 MSTORE PUSH1 0x2 PUSH1 0x20 SWAP1 DUP2 MSTORE PUSH1 0x40 DUP1 DUP4 KECCAK256 DUP1 SLOAD PUSH1 0x1 DUP2 ADD DUP3 SSTORE SWAP1 DUP5 MSTORE SWAP2 DUP4 KECCAK256 SWAP1 SWAP2 ADD DUP7 SWAP1 SSTORE MLOAD DUP4 SWAP2 DUP6 SWAP2 DUP8 SWAP2 PUSH32 0x480000BB1EDAD8CA1470381CC334B1917FBD51C6531F3A623EA8E0EC7E38A6E9 SWAP2 LOG4 POP PUSH1 0x1 SWAP4 SWAP3 POP POP POP JUMP JUMPDEST PUSH1 0x0 DUP5 DUP5 DUP5 DUP5 PUSH1 0x40 MLOAD PUSH1 0x20 ADD PUSH2 0x707 SWAP5 SWAP4 SWAP3 SWAP2 SWAP1 PUSH2 0x2257 JUMP JUMPDEST PUSH1 0x40 MLOAD PUSH1 0x20 DUP2 DUP4 SUB SUB DUP2 MSTORE SWAP1 PUSH1 0x40 MSTORE DUP1 MLOAD SWAP1 PUSH1 0x20 ADD KECCAK256 SWAP1 POP SWAP5 SWAP4 POP POP POP POP JUMP JUMPDEST PUSH1 0x6 SLOAD PUSH1 0x0 SWAP1 PUSH1 0xFF PUSH2 0x100 SWAP1 SWAP2 DIV AND ISZERO ISZERO PUSH1 0x1 EQ PUSH2 0x757 JUMPI PUSH1 0x40 MLOAD PUSH3 0x461BCD PUSH1 0xE5 SHL DUP2 MSTORE PUSH1 0x4 ADD PUSH2 0x4BB SWAP1 PUSH2 0x216F JUMP JUMPDEST CALLER ADDRESS EQ DUP1 PUSH2 0x78D JUMPI POP PUSH1 0x40 DUP1 MLOAD CALLER PUSH1 0x20 DUP3 ADD MSTORE PUSH2 0x78D SWAP2 ADD JUMPDEST PUSH1 0x40 MLOAD PUSH1 0x20 DUP2 DUP4 SUB SUB DUP2 MSTORE SWAP1 PUSH1 0x40 MSTORE DUP1 MLOAD SWAP1 PUSH1 0x20 ADD KECCAK256 PUSH1 0x3 PUSH2 0x1901 JUMP JUMPDEST PUSH2 0x7A9 JUMPI PUSH1 0x40 MLOAD PUSH3 0x461BCD PUSH1 0xE5 SHL DUP2 MSTORE PUSH1 0x4 ADD PUSH2 0x4BB SWAP1 PUSH2 0x229F JUMP JUMPDEST PUSH1 0x0 DUP3 DUP2 MSTORE PUSH1 0x4 PUSH1 0x20 MSTORE PUSH1 0x40 DUP2 KECCAK256 SLOAD SWAP1 DUP2 SWAP1 SUB PUSH2 0x81C JUMPI PUSH1 0x40 MLOAD PUSH3 0x461BCD PUSH1 0xE5 SHL DUP2 MSTORE PUSH1 0x20 PUSH1 0x4 DUP3 ADD MSTORE PUSH1 0x2B PUSH1 0x24 DUP3 ADD MSTORE PUSH32 0x4E6F6E4578697374696E673A205468657265206973206E6F20636C61696D2077 PUSH1 0x44 DUP3 ADD MSTORE PUSH11 0x1A5D1A081D1A1A5CC81251 PUSH1 0xAA SHL PUSH1 0x64 DUP3 ADD MSTORE PUSH1 0x84 ADD PUSH2 0x4BB JUMP JUMPDEST PUSH1 0x0 DUP2 DUP2 MSTORE PUSH1 0x5 PUSH1 0x20 MSTORE PUSH1 0x40 DUP2 KECCAK256 SLOAD JUMPDEST PUSH1 0x0 DUP4 DUP2 MSTORE PUSH1 0x5 PUSH1 0x20 MSTORE PUSH1 0x40 SWAP1 KECCAK256 DUP1 SLOAD DUP7 SWAP2 SWAP1 DUP5 SWAP1 DUP2 LT PUSH2 0x84F JUMPI PUSH2 0x84F PUSH2 0x2212 JUMP JUMPDEST SWAP1 PUSH1 0x0 MSTORE PUSH1 0x20 PUSH1 0x0 KECCAK256 ADD SLOAD EQ PUSH2 0x874 JUMPI DUP2 PUSH2 0x869 DUP2 PUSH2 0x223E JUMP JUMPDEST SWAP3 POP POP DUP1 DUP3 LT PUSH2 0x82C JUMPI JUMPDEST PUSH1 0x0 DUP4 DUP2 MSTORE PUSH1 0x5 PUSH1 0x20 MSTORE PUSH1 0x40 SWAP1 KECCAK256 PUSH2 0x88D PUSH1 0x1 DUP4 PUSH2 0x22F1 JUMP JUMPDEST DUP2 SLOAD DUP2 LT PUSH2 0x89D JUMPI PUSH2 0x89D PUSH2 0x2212 JUMP JUMPDEST SWAP1 PUSH1 0x0 MSTORE PUSH1 0x20 PUSH1 0x0 KECCAK256 ADD SLOAD PUSH1 0x5 PUSH1 0x0 DUP6 DUP2 MSTORE PUSH1 0x20 ADD SWAP1 DUP2 MSTORE PUSH1 0x20 ADD PUSH1 0x0 KECCAK256 DUP4 DUP2 SLOAD DUP2 LT PUSH2 0x8CC JUMPI PUSH2 0x8CC PUSH2 0x2212 JUMP JUMPDEST SWAP1 PUSH1 0x0 MSTORE PUSH1 0x20 PUSH1 0x0 KECCAK256 ADD DUP2 SWAP1 SSTORE POP PUSH1 0x5 PUSH1 0x0 DUP5 DUP2 MSTORE PUSH1 0x20 ADD SWAP1 DUP2 MSTORE PUSH1 0x20 ADD PUSH1 0x0 KECCAK256 DUP1 SLOAD DUP1 PUSH2 0x8FC JUMPI PUSH2 0x8FC PUSH2 0x2304 JUMP JUMPDEST PUSH1 0x0 DUP3 DUP2 MSTORE PUSH1 0x20 DUP1 DUP3 KECCAK256 DUP4 ADD PUSH1 0x0 NOT SWAP1 DUP2 ADD DUP4 SWAP1 SSTORE SWAP1 SWAP3 ADD SWAP1 SWAP3 SSTORE DUP7 DUP3 MSTORE PUSH1 0x4 SWAP1 DUP2 SWAP1 MSTORE PUSH1 0x40 SWAP2 DUP3 SWAP1 KECCAK256 PUSH1 0x2 DUP2 ADD SLOAD PUSH1 0x1 DUP3 ADD SLOAD SWAP4 MLOAD PUSH1 0x1 PUSH1 0x1 PUSH1 0xA0 SHL SUB SWAP1 SWAP2 AND SWAP4 DUP8 SWAP4 DUP11 SWAP4 PUSH32 0x3CF57863A89432C61C4A27073C6EE39E8A764BFF5A05AEBFBCDCDC80B2E6130A SWAP4 PUSH2 0x97D SWAP4 SWAP3 PUSH1 0x3 DUP4 ADD SWAP3 SWAP1 DUP2 ADD SWAP2 PUSH1 0x5 SWAP1 SWAP2 ADD SWAP1 PUSH2 0x23D1 JUMP JUMPDEST PUSH1 0x40 MLOAD DUP1 SWAP2 SUB SWAP1 LOG4 PUSH1 0x0 DUP6 DUP2 MSTORE PUSH1 0x4 PUSH1 0x20 MSTORE PUSH1 0x40 DUP2 KECCAK256 DUP2 DUP2 SSTORE PUSH1 0x1 DUP2 ADD DUP3 SWAP1 SSTORE PUSH1 0x2 DUP2 ADD DUP1 SLOAD PUSH1 0x1 PUSH1 0x1 PUSH1 0xA0 SHL SUB NOT AND SWAP1 SSTORE SWAP1 PUSH2 0x9BD PUSH1 0x3 DUP4 ADD DUP3 PUSH2 0x1C13 JUMP JUMPDEST PUSH2 0x9CB PUSH1 0x4 DUP4 ADD PUSH1 0x0 PUSH2 0x1C13 JUMP JUMPDEST PUSH2 0x9D9 PUSH1 0x5 DUP4 ADD PUSH1 0x0 PUSH2 0x1C13 JUMP JUMPDEST POP POP PUSH1 0x1 SWAP4 POP POP POP POP JUMPDEST SWAP2 SWAP1 POP JUMP JUMPDEST PUSH1 0x6 SLOAD PUSH1 0x0 SWAP1 PUSH1 0xFF PUSH2 0x100 SWAP1 SWAP2 DIV AND ISZERO ISZERO PUSH1 0x1 EQ PUSH2 0xA18 JUMPI PUSH1 0x40 MLOAD PUSH3 0x461BCD PUSH1 0xE5 SHL DUP2 MSTORE PUSH1 0x4 ADD PUSH2 0x4BB SWAP1 PUSH2 0x216F JUMP JUMPDEST CALLER ADDRESS EQ DUP1 PUSH2 0xA35 JUMPI POP PUSH1 0x40 DUP1 MLOAD CALLER PUSH1 0x20 DUP3 ADD MSTORE PUSH2 0xA35 SWAP2 ADD PUSH2 0x4DD JUMP JUMPDEST PUSH2 0xA51 JUMPI PUSH1 0x40 MLOAD PUSH3 0x461BCD PUSH1 0xE5 SHL DUP2 MSTORE PUSH1 0x4 ADD PUSH2 0x4BB SWAP1 PUSH2 0x21C2 JUMP JUMPDEST PUSH1 0x0 DUP4 DUP2 MSTORE PUSH1 0x1 PUSH1 0x20 MSTORE PUSH1 0x40 SWAP1 KECCAK256 PUSH1 0x2 ADD SLOAD DUP4 EQ PUSH2 0xABB JUMPI PUSH1 0x40 MLOAD PUSH3 0x461BCD PUSH1 0xE5 SHL DUP2 MSTORE PUSH1 0x20 PUSH1 0x4 DUP3 ADD MSTORE PUSH1 0x21 PUSH1 0x24 DUP3 ADD MSTORE PUSH32 0x4E6F6E4578697374696E673A204B65792069736E277420726567697374657265 PUSH1 0x44 DUP3 ADD MSTORE PUSH1 0x19 PUSH1 0xFA SHL PUSH1 0x64 DUP3 ADD MSTORE PUSH1 0x84 ADD PUSH2 0x4BB JUMP JUMPDEST PUSH1 0x0 DUP4 DUP2 MSTORE PUSH1 0x1 PUSH1 0x20 SWAP1 DUP2 MSTORE PUSH1 0x40 DUP1 DUP4 KECCAK256 DUP1 SLOAD DUP3 MLOAD DUP2 DUP6 MUL DUP2 ADD DUP6 ADD SWAP1 SWAP4 MSTORE DUP1 DUP4 MSTORE SWAP2 SWAP3 SWAP1 SWAP2 SWAP1 DUP4 ADD DUP3 DUP3 DUP1 ISZERO PUSH2 0xB11 JUMPI PUSH1 0x20 MUL DUP3 ADD SWAP2 SWAP1 PUSH1 0x0 MSTORE PUSH1 0x20 PUSH1 0x0 KECCAK256 SWAP1 JUMPDEST DUP2 SLOAD DUP2 MSTORE PUSH1 0x20 ADD SWAP1 PUSH1 0x1 ADD SWAP1 DUP1 DUP4 GT PUSH2 0xAFD JUMPI JUMPDEST POP POP POP POP POP SWAP1 POP PUSH1 0x0 JUMPDEST DUP4 DUP3 DUP3 DUP2 MLOAD DUP2 LT PUSH2 0xB2E JUMPI PUSH2 0xB2E PUSH2 0x2212 JUMP JUMPDEST PUSH1 0x20 MUL PUSH1 0x20 ADD ADD MLOAD EQ PUSH2 0xBB0 JUMPI DUP1 PUSH2 0xB45 DUP2 PUSH2 0x223E JUMP JUMPDEST SWAP2 POP POP DUP2 MLOAD DUP2 SUB PUSH2 0xBAB JUMPI PUSH1 0x40 MLOAD PUSH3 0x461BCD PUSH1 0xE5 SHL DUP2 MSTORE PUSH1 0x20 PUSH1 0x4 DUP3 ADD MSTORE PUSH1 0x2A PUSH1 0x24 DUP3 ADD MSTORE PUSH32 0x4E6F6E4578697374696E673A204B657920646F65736E27742068617665207375 PUSH1 0x44 DUP3 ADD MSTORE PUSH10 0x636820707572706F7365 PUSH1 0xB0 SHL PUSH1 0x64 DUP3 ADD MSTORE PUSH1 0x84 ADD PUSH2 0x4BB JUMP JUMPDEST PUSH2 0xB1B JUMP JUMPDEST DUP2 PUSH1 0x1 DUP4 MLOAD PUSH2 0xBBF SWAP2 SWAP1 PUSH2 0x22F1 JUMP JUMPDEST DUP2 MLOAD DUP2 LT PUSH2 0xBCF JUMPI PUSH2 0xBCF PUSH2 0x2212 JUMP JUMPDEST PUSH1 0x20 MUL PUSH1 0x20 ADD ADD MLOAD DUP3 DUP3 DUP2 MLOAD DUP2 LT PUSH2 0xBE9 JUMPI PUSH2 0xBE9 PUSH2 0x2212 JUMP JUMPDEST PUSH1 0x20 SWAP1 DUP2 MUL SWAP2 SWAP1 SWAP2 ADD DUP2 ADD SWAP2 SWAP1 SWAP2 MSTORE PUSH1 0x0 DUP7 DUP2 MSTORE PUSH1 0x1 DUP3 MSTORE PUSH1 0x40 SWAP1 KECCAK256 DUP4 MLOAD PUSH2 0xC13 SWAP3 DUP6 ADD SWAP1 PUSH2 0x1BC8 JUMP JUMPDEST POP PUSH1 0x0 DUP6 DUP2 MSTORE PUSH1 0x1 PUSH1 0x20 MSTORE PUSH1 0x40 SWAP1 KECCAK256 DUP1 SLOAD DUP1 PUSH2 0xC31 JUMPI PUSH2 0xC31 PUSH2 0x2304 JUMP JUMPDEST PUSH1 0x0 DUP3 DUP2 MSTORE PUSH1 0x20 DUP1 DUP3 KECCAK256 DUP4 ADD PUSH1 0x0 NOT SWAP1 DUP2 ADD DUP4 SWAP1 SSTORE SWAP1 SWAP3 ADD SWAP1 SWAP3 SSTORE DUP6 DUP3 MSTORE PUSH1 0x2 SWAP1 MSTORE PUSH1 0x40 DUP2 KECCAK256 SLOAD JUMPDEST PUSH1 0x0 DUP7 DUP2 MSTORE PUSH1 0x2 PUSH1 0x20 MSTORE PUSH1 0x40 SWAP1 KECCAK256 DUP1 SLOAD DUP9 SWAP2 SWAP1 DUP5 SWAP1 DUP2 LT PUSH2 0xC7C JUMPI PUSH2 0xC7C PUSH2 0x2212 JUMP JUMPDEST SWAP1 PUSH1 0x0 MSTORE PUSH1 0x20 PUSH1 0x0 KECCAK256 ADD SLOAD EQ PUSH2 0xCA1 JUMPI DUP2 PUSH2 0xC96 DUP2 PUSH2 0x223E JUMP JUMPDEST SWAP3 POP POP DUP1 DUP3 LT PUSH2 0xC59 JUMPI JUMPDEST PUSH1 0x0 DUP7 DUP2 MSTORE PUSH1 0x2 PUSH1 0x20 MSTORE PUSH1 0x40 SWAP1 KECCAK256 PUSH2 0xCBA PUSH1 0x1 DUP4 PUSH2 0x22F1 JUMP JUMPDEST DUP2 SLOAD DUP2 LT PUSH2 0xCCA JUMPI PUSH2 0xCCA PUSH2 0x2212 JUMP JUMPDEST SWAP1 PUSH1 0x0 MSTORE PUSH1 0x20 PUSH1 0x0 KECCAK256 ADD SLOAD PUSH1 0x2 PUSH1 0x0 DUP9 DUP2 MSTORE PUSH1 0x20 ADD SWAP1 DUP2 MSTORE PUSH1 0x20 ADD PUSH1 0x0 KECCAK256 DUP4 DUP2 SLOAD DUP2 LT PUSH2 0xCF9 JUMPI PUSH2 0xCF9 PUSH2 0x2212 JUMP JUMPDEST SWAP1 PUSH1 0x0 MSTORE PUSH1 0x20 PUSH1 0x0 KECCAK256 ADD DUP2 SWAP1 SSTORE POP PUSH1 0x2 PUSH1 0x0 DUP8 DUP2 MSTORE PUSH1 0x20 ADD SWAP1 DUP2 MSTORE PUSH1 0x20 ADD PUSH1 0x0 KECCAK256 DUP1 SLOAD DUP1 PUSH2 0xD29 JUMPI PUSH2 0xD29 PUSH2 0x2304 JUMP JUMPDEST PUSH1 0x1 SWAP1 SUB DUP2 DUP2 SWAP1 PUSH1 0x0 MSTORE PUSH1 0x20 PUSH1 0x0 KECCAK256 ADD PUSH1 0x0 SWAP1 SSTORE SWAP1 SSTORE PUSH1 0x0 PUSH1 0x1 PUSH1 0x0 DUP10 DUP2 MSTORE PUSH1 0x20 ADD SWAP1 DUP2 MSTORE PUSH1 0x20 ADD PUSH1 0x0 KECCAK256 PUSH1 0x1 ADD SLOAD SWAP1 POP PUSH1 0x1 DUP6 MLOAD PUSH2 0xD68 SWAP2 SWAP1 PUSH2 0x22F1 JUMP JUMPDEST PUSH1 0x0 SUB PUSH2 0xD99 JUMPI PUSH1 0x0 DUP9 DUP2 MSTORE PUSH1 0x1 PUSH1 0x20 MSTORE PUSH1 0x40 DUP2 KECCAK256 SWAP1 PUSH2 0xD88 DUP3 DUP3 PUSH2 0x1C4D JUMP JUMPDEST POP PUSH1 0x0 PUSH1 0x1 DUP3 ADD DUP2 SWAP1 SSTORE PUSH1 0x2 SWAP1 SWAP2 ADD SSTORE JUMPDEST DUP1 DUP8 DUP10 PUSH32 0x585A4AEF50F8267A92B32412B331B20F7F8B96F2245B253B9CC50DCC621D3397 PUSH1 0x40 MLOAD PUSH1 0x40 MLOAD DUP1 SWAP2 SUB SWAP1 LOG4 PUSH1 0x1 SWAP6 POP POP POP POP POP POP JUMPDEST SWAP3 SWAP2 POP POP JUMP JUMPDEST PUSH1 0x6 SLOAD PUSH1 0x0 SWAP1 PUSH1 0xFF PUSH2 0x100 SWAP1 SWAP2 DIV AND ISZERO ISZERO PUSH1 0x1 EQ PUSH2 0xE08 JUMPI PUSH1 0x40 MLOAD PUSH3 0x461BCD PUSH1 0xE5 SHL DUP2 MSTORE PUSH1 0x4 ADD PUSH2 0x4BB SWAP1 PUSH2 0x216F JUMP JUMPDEST PUSH1 0x0 SLOAD DUP4 LT PUSH2 0xE69 JUMPI PUSH1 0x40 MLOAD PUSH3 0x461BCD PUSH1 0xE5 SHL DUP2 MSTORE PUSH1 0x20 PUSH1 0x4 DUP3 ADD MSTORE PUSH1 0x27 PUSH1 0x24 DUP3 ADD MSTORE PUSH32 0x43616E6E6F7420617070726F76652061206E6F6E2D6578697374696E67206578 PUSH1 0x44 DUP3 ADD MSTORE PUSH7 0x32B1BABA34B7B7 PUSH1 0xC9 SHL PUSH1 0x64 DUP3 ADD MSTORE PUSH1 0x84 ADD PUSH2 0x4BB JUMP JUMPDEST PUSH1 0x0 DUP4 DUP2 MSTORE PUSH1 0x3 PUSH1 0x20 DUP2 SWAP1 MSTORE PUSH1 0x40 SWAP1 SWAP2 KECCAK256 ADD SLOAD PUSH2 0x100 SWAP1 DIV PUSH1 0xFF AND ISZERO PUSH2 0xED1 JUMPI PUSH1 0x40 MLOAD PUSH3 0x461BCD PUSH1 0xE5 SHL DUP2 MSTORE PUSH1 0x20 PUSH1 0x4 DUP3 ADD MSTORE PUSH1 0x18 PUSH1 0x24 DUP3 ADD MSTORE PUSH32 0x5265717565737420616C72656164792065786563757465640000000000000000 PUSH1 0x44 DUP3 ADD MSTORE PUSH1 0x64 ADD PUSH2 0x4BB JUMP JUMPDEST PUSH1 0x0 DUP4 DUP2 MSTORE PUSH1 0x3 PUSH1 0x20 MSTORE PUSH1 0x40 SWAP1 KECCAK256 SLOAD ADDRESS PUSH1 0x1 PUSH1 0x1 PUSH1 0xA0 SHL SUB SWAP1 SWAP2 AND SUB PUSH2 0xF62 JUMPI PUSH1 0x40 DUP1 MLOAD CALLER PUSH1 0x20 DUP3 ADD MSTORE PUSH2 0xF05 SWAP2 ADD PUSH2 0x4DD JUMP JUMPDEST PUSH2 0xF5D JUMPI PUSH1 0x40 MLOAD PUSH3 0x461BCD PUSH1 0xE5 SHL DUP2 MSTORE PUSH1 0x20 PUSH1 0x4 DUP3 ADD MSTORE PUSH1 0x23 PUSH1 0x24 DUP3 ADD MSTORE PUSH32 0x53656E64657220646F6573206E6F742068617665206D616E6167656D656E7420 PUSH1 0x44 DUP3 ADD MSTORE PUSH3 0x6B6579 PUSH1 0xE8 SHL PUSH1 0x64 DUP3 ADD MSTORE PUSH1 0x84 ADD PUSH2 0x4BB JUMP JUMPDEST PUSH2 0xFDB JUMP JUMPDEST PUSH1 0x40 DUP1 MLOAD CALLER PUSH1 0x20 DUP3 ADD MSTORE PUSH2 0xF8F SWAP2 ADD JUMPDEST PUSH1 0x40 MLOAD PUSH1 0x20 DUP2 DUP4 SUB SUB DUP2 MSTORE SWAP1 PUSH1 0x40 MSTORE DUP1 MLOAD SWAP1 PUSH1 0x20 ADD KECCAK256 PUSH1 0x2 PUSH2 0x1901 JUMP JUMPDEST PUSH2 0xFDB JUMPI PUSH1 0x40 MLOAD PUSH3 0x461BCD PUSH1 0xE5 SHL DUP2 MSTORE PUSH1 0x20 PUSH1 0x4 DUP3 ADD MSTORE PUSH1 0x1F PUSH1 0x24 DUP3 ADD MSTORE PUSH32 0x53656E64657220646F6573206E6F74206861766520616374696F6E206B657900 PUSH1 0x44 DUP3 ADD MSTORE PUSH1 0x64 ADD PUSH2 0x4BB JUMP JUMPDEST DUP3 PUSH32 0xB3932DA477FE5D6C8FF2EAFEF050C0F3A1AF18FC07121001482600F36F3715D8 DUP4 PUSH1 0x40 MLOAD PUSH2 0x100F SWAP2 ISZERO ISZERO DUP2 MSTORE PUSH1 0x20 ADD SWAP1 JUMP JUMPDEST PUSH1 0x40 MLOAD DUP1 SWAP2 SUB SWAP1 LOG2 DUP2 ISZERO ISZERO PUSH1 0x1 SUB PUSH2 0x1197 JUMPI PUSH1 0x0 DUP4 DUP2 MSTORE PUSH1 0x3 PUSH1 0x20 DUP2 SWAP1 MSTORE PUSH1 0x40 SWAP2 DUP3 SWAP1 KECCAK256 SWAP1 DUP2 ADD DUP1 SLOAD PUSH1 0xFF NOT AND PUSH1 0x1 SWAP1 DUP2 OR SWAP1 SWAP2 SSTORE DUP2 SLOAD SWAP1 DUP3 ADD SLOAD SWAP3 MLOAD PUSH1 0x1 PUSH1 0x1 PUSH1 0xA0 SHL SUB SWAP1 SWAP2 AND SWAP3 SWAP2 PUSH2 0x1068 SWAP2 PUSH1 0x2 SWAP1 SWAP2 ADD SWAP1 PUSH2 0x2410 JUMP JUMPDEST PUSH1 0x0 PUSH1 0x40 MLOAD DUP1 DUP4 SUB DUP2 DUP6 DUP8 GAS CALL SWAP3 POP POP POP RETURNDATASIZE DUP1 PUSH1 0x0 DUP2 EQ PUSH2 0x10A5 JUMPI PUSH1 0x40 MLOAD SWAP2 POP PUSH1 0x1F NOT PUSH1 0x3F RETURNDATASIZE ADD AND DUP3 ADD PUSH1 0x40 MSTORE RETURNDATASIZE DUP3 MSTORE RETURNDATASIZE PUSH1 0x0 PUSH1 0x20 DUP5 ADD RETURNDATACOPY PUSH2 0x10AA JUMP JUMPDEST PUSH1 0x60 SWAP2 POP JUMPDEST POP SWAP1 SWAP2 POP POP DUP1 ISZERO PUSH2 0x112F JUMPI PUSH1 0x0 DUP4 DUP2 MSTORE PUSH1 0x3 PUSH1 0x20 DUP2 SWAP1 MSTORE PUSH1 0x40 SWAP2 DUP3 SWAP1 KECCAK256 SWAP1 DUP2 ADD DUP1 SLOAD PUSH2 0xFF00 NOT AND PUSH2 0x100 OR SWAP1 SSTORE PUSH1 0x1 DUP2 ADD SLOAD DUP2 SLOAD SWAP3 MLOAD SWAP1 SWAP3 PUSH1 0x1 PUSH1 0x1 PUSH1 0xA0 SHL SUB AND SWAP2 DUP7 SWAP2 PUSH32 0x1F920DBDA597D7BF95035464170FA58D0A4B57F13A1C315ACE6793B9F63688B8 SWAP2 PUSH2 0x111F SWAP2 PUSH1 0x2 SWAP1 SWAP2 ADD SWAP1 PUSH2 0x2486 JUMP JUMPDEST PUSH1 0x40 MLOAD DUP1 SWAP2 SUB SWAP1 LOG4 POP PUSH1 0x1 PUSH2 0xDD2 JUMP JUMPDEST PUSH1 0x0 DUP4 DUP2 MSTORE PUSH1 0x3 PUSH1 0x20 MSTORE PUSH1 0x40 SWAP1 DUP2 SWAP1 KECCAK256 PUSH1 0x1 DUP2 ADD SLOAD DUP2 SLOAD SWAP3 MLOAD SWAP1 SWAP3 PUSH1 0x1 PUSH1 0x1 PUSH1 0xA0 SHL SUB AND SWAP2 DUP7 SWAP2 PUSH32 0xE10C49D9F7C71DA23262367013434763CFDB2332267641728D25CD712C5C6A68 SWAP2 PUSH2 0x1187 SWAP2 PUSH1 0x2 SWAP1 SWAP2 ADD SWAP1 PUSH2 0x2486 JUMP JUMPDEST PUSH1 0x40 MLOAD DUP1 SWAP2 SUB SWAP1 LOG4 POP PUSH1 0x0 PUSH2 0xDD2 JUMP JUMPDEST POP POP PUSH1 0x0 SWAP1 DUP2 MSTORE PUSH1 0x3 PUSH1 0x20 DUP2 SWAP1 MSTORE PUSH1 0x40 DUP3 KECCAK256 ADD DUP1 SLOAD PUSH1 0xFF NOT AND SWAP1 SSTORE SWAP1 JUMP JUMPDEST PUSH1 0x0 DUP2 DUP2 MSTORE PUSH1 0x5 PUSH1 0x20 SWAP1 DUP2 MSTORE PUSH1 0x40 SWAP2 DUP3 SWAP1 KECCAK256 DUP1 SLOAD DUP4 MLOAD DUP2 DUP5 MUL DUP2 ADD DUP5 ADD SWAP1 SWAP5 MSTORE DUP1 DUP5 MSTORE PUSH1 0x60 SWAP4 SWAP3 DUP4 ADD DUP3 DUP3 DUP1 ISZERO PUSH2 0x120B JUMPI PUSH1 0x20 MUL DUP3 ADD SWAP2 SWAP1 PUSH1 0x0 MSTORE PUSH1 0x20 PUSH1 0x0 KECCAK256 SWAP1 JUMPDEST DUP2 SLOAD DUP2 MSTORE PUSH1 0x20 ADD SWAP1 PUSH1 0x1 ADD SWAP1 DUP1 DUP4 GT PUSH2 0x11F7 JUMPI JUMPDEST POP POP POP POP POP SWAP1 POP SWAP2 SWAP1 POP JUMP JUMPDEST PUSH1 0x0 DUP2 DUP2 MSTORE PUSH1 0x2 PUSH1 0x20 SWAP1 DUP2 MSTORE PUSH1 0x40 SWAP2 DUP3 SWAP1 KECCAK256 DUP1 SLOAD DUP4 MLOAD DUP2 DUP5 MUL DUP2 ADD DUP5 ADD SWAP1 SWAP5 MSTORE DUP1 DUP5 MSTORE PUSH1 0x60 SWAP4 SWAP3 DUP4 ADD DUP3 DUP3 DUP1 ISZERO PUSH2 0x120B JUMPI PUSH1 0x20 MUL DUP3 ADD SWAP2 SWAP1 PUSH1 0x0 MSTORE PUSH1 0x20 PUSH1 0x0 KECCAK256 SWAP1 DUP2 SLOAD DUP2 MSTORE PUSH1 0x20 ADD SWAP1 PUSH1 0x1 ADD SWAP1 DUP1 DUP4 GT PUSH2 0x11F7 JUMPI POP POP POP POP POP SWAP1 POP SWAP2 SWAP1 POP JUMP JUMPDEST PUSH1 0x6 SLOAD PUSH1 0x0 SWAP1 PUSH1 0xFF PUSH2 0x100 SWAP1 SWAP2 DIV AND ISZERO ISZERO PUSH1 0x1 EQ PUSH2 0x12A7 JUMPI PUSH1 0x40 MLOAD PUSH3 0x461BCD PUSH1 0xE5 SHL DUP2 MSTORE PUSH1 0x4 ADD PUSH2 0x4BB SWAP1 PUSH2 0x216F JUMP JUMPDEST CALLER ADDRESS EQ DUP1 PUSH2 0x12C4 JUMPI POP PUSH1 0x40 DUP1 MLOAD CALLER PUSH1 0x20 DUP3 ADD MSTORE PUSH2 0x12C4 SWAP2 ADD PUSH2 0x770 JUMP JUMPDEST PUSH2 0x12E0 JUMPI PUSH1 0x40 MLOAD PUSH3 0x461BCD PUSH1 0xE5 SHL DUP2 MSTORE PUSH1 0x4 ADD PUSH2 0x4BB SWAP1 PUSH2 0x229F JUMP JUMPDEST PUSH1 0x1 PUSH1 0x1 PUSH1 0xA0 SHL SUB DUP6 AND ADDRESS EQ PUSH2 0x139F JUMPI PUSH1 0x40 MLOAD PUSH4 0x604B4D37 PUSH1 0xE1 SHL DUP2 MSTORE PUSH1 0x1 PUSH1 0x1 PUSH1 0xA0 SHL SUB DUP7 AND SWAP1 PUSH4 0xC0969A6E SWAP1 PUSH2 0x1322 SWAP1 ADDRESS SWAP1 DUP12 SWAP1 DUP10 SWAP1 DUP10 SWAP1 PUSH1 0x4 ADD PUSH2 0x2499 JUMP JUMPDEST PUSH1 0x20 PUSH1 0x40 MLOAD DUP1 DUP4 SUB DUP2 DUP7 GAS STATICCALL ISZERO DUP1 ISZERO PUSH2 0x133F JUMPI RETURNDATASIZE PUSH1 0x0 DUP1 RETURNDATACOPY RETURNDATASIZE PUSH1 0x0 REVERT JUMPDEST POP POP POP POP PUSH1 0x40 MLOAD RETURNDATASIZE PUSH1 0x1F NOT PUSH1 0x1F DUP3 ADD AND DUP3 ADD DUP1 PUSH1 0x40 MSTORE POP DUP2 ADD SWAP1 PUSH2 0x1363 SWAP2 SWAP1 PUSH2 0x24D2 JUMP JUMPDEST PUSH2 0x139F JUMPI PUSH1 0x40 MLOAD PUSH3 0x461BCD PUSH1 0xE5 SHL DUP2 MSTORE PUSH1 0x20 PUSH1 0x4 DUP3 ADD MSTORE PUSH1 0xD PUSH1 0x24 DUP3 ADD MSTORE PUSH13 0x696E76616C696420636C61696D PUSH1 0x98 SHL PUSH1 0x44 DUP3 ADD MSTORE PUSH1 0x64 ADD PUSH2 0x4BB JUMP JUMPDEST PUSH1 0x40 DUP1 MLOAD PUSH1 0x1 PUSH1 0x1 PUSH1 0xA0 SHL SUB DUP8 AND PUSH1 0x20 DUP3 ADD MSTORE SWAP1 DUP2 ADD DUP9 SWAP1 MSTORE PUSH1 0x0 SWAP1 PUSH1 0x60 ADD PUSH1 0x40 DUP1 MLOAD PUSH1 0x1F NOT DUP2 DUP5 SUB ADD DUP2 MSTORE SWAP2 DUP2 MSTORE DUP2 MLOAD PUSH1 0x20 SWAP3 DUP4 ADD KECCAK256 PUSH1 0x0 DUP2 DUP2 MSTORE PUSH1 0x4 SWAP1 SWAP4 MSTORE SWAP2 KECCAK256 DUP10 DUP2 SSTORE PUSH1 0x1 DUP2 ADD DUP10 SWAP1 SSTORE SWAP1 SWAP2 POP PUSH1 0x3 ADD PUSH2 0x13FC DUP7 DUP3 PUSH2 0x253E JUMP JUMPDEST POP PUSH1 0x0 DUP2 DUP2 MSTORE PUSH1 0x4 PUSH1 0x20 DUP2 SWAP1 MSTORE PUSH1 0x40 SWAP1 SWAP2 KECCAK256 ADD PUSH2 0x1419 DUP6 DUP3 PUSH2 0x253E JUMP JUMPDEST POP PUSH1 0x0 DUP2 DUP2 MSTORE PUSH1 0x4 PUSH1 0x20 MSTORE PUSH1 0x40 SWAP1 KECCAK256 PUSH1 0x5 ADD PUSH2 0x1435 DUP5 DUP3 PUSH2 0x253E JUMP JUMPDEST POP PUSH1 0x0 DUP2 DUP2 MSTORE PUSH1 0x4 PUSH1 0x20 MSTORE PUSH1 0x40 SWAP1 KECCAK256 PUSH1 0x2 ADD SLOAD PUSH1 0x1 PUSH1 0x1 PUSH1 0xA0 SHL SUB DUP8 DUP2 AND SWAP2 AND EQ PUSH2 0x14EE JUMPI PUSH1 0x0 DUP9 DUP2 MSTORE PUSH1 0x5 PUSH1 0x20 SWAP1 DUP2 MSTORE PUSH1 0x40 DUP1 DUP4 KECCAK256 DUP1 SLOAD PUSH1 0x1 DUP2 ADD DUP3 SSTORE SWAP1 DUP5 MSTORE DUP3 DUP5 KECCAK256 ADD DUP5 SWAP1 SSTORE DUP4 DUP4 MSTORE PUSH1 0x4 SWAP1 SWAP2 MSTORE SWAP1 DUP2 SWAP1 KECCAK256 PUSH1 0x2 ADD DUP1 SLOAD PUSH1 0x1 PUSH1 0x1 PUSH1 0xA0 SHL SUB NOT AND PUSH1 0x1 PUSH1 0x1 PUSH1 0xA0 SHL SUB DUP10 AND SWAP1 DUP2 OR SWAP1 SWAP2 SSTORE SWAP1 MLOAD DUP10 SWAP1 DUP4 SWAP1 PUSH32 0x46149B18AA084502C3F12BC75E19EDA8BDA8D102B82CCE8474677A6D0D5F43C5 SWAP1 PUSH2 0x14E1 SWAP1 DUP13 SWAP1 DUP12 SWAP1 DUP12 SWAP1 DUP12 SWAP1 PUSH2 0x25FE JUMP JUMPDEST PUSH1 0x40 MLOAD DUP1 SWAP2 SUB SWAP1 LOG4 PUSH2 0x1538 JUMP JUMPDEST DUP6 PUSH1 0x1 PUSH1 0x1 PUSH1 0xA0 SHL SUB AND DUP9 DUP3 PUSH32 0x3BAB293FC00DB832D7619A9299914251B8747C036867EC056CBD506F60135B13 DUP11 DUP10 DUP10 DUP10 PUSH1 0x40 MLOAD PUSH2 0x152F SWAP5 SWAP4 SWAP3 SWAP2 SWAP1 PUSH2 0x25FE JUMP JUMPDEST PUSH1 0x40 MLOAD DUP1 SWAP2 SUB SWAP1 LOG4 JUMPDEST SWAP8 SWAP7 POP POP POP POP POP POP POP JUMP JUMPDEST PUSH1 0x6 SLOAD PUSH1 0x0 SWAP1 PUSH1 0xFF PUSH2 0x100 SWAP1 SWAP2 DIV AND ISZERO ISZERO PUSH1 0x1 EQ PUSH2 0x1573 JUMPI PUSH1 0x40 MLOAD PUSH3 0x461BCD PUSH1 0xE5 SHL DUP2 MSTORE PUSH1 0x4 ADD PUSH2 0x4BB SWAP1 PUSH2 0x216F JUMP JUMPDEST PUSH1 0x0 DUP1 SLOAD DUP1 DUP3 MSTORE PUSH1 0x3 PUSH1 0x20 MSTORE PUSH1 0x40 SWAP1 SWAP2 KECCAK256 DUP1 SLOAD PUSH1 0x1 PUSH1 0x1 PUSH1 0xA0 SHL SUB NOT AND PUSH1 0x1 PUSH1 0x1 PUSH1 0xA0 SHL SUB DUP8 AND OR DUP2 SSTORE PUSH1 0x1 DUP2 ADD DUP6 SWAP1 SSTORE PUSH1 0x2 ADD PUSH2 0x15B1 DUP5 DUP3 PUSH2 0x253E JUMP JUMPDEST POP PUSH1 0x0 DUP1 SLOAD SWAP1 DUP1 PUSH2 0x15C1 DUP4 PUSH2 0x223E JUMP JUMPDEST SWAP2 SWAP1 POP SSTORE POP DUP4 DUP6 PUSH1 0x1 PUSH1 0x1 PUSH1 0xA0 SHL SUB AND DUP3 PUSH32 0x8AFCFABCB00E47A53A8FC3E9F23FF47EE1926194BB1350DD007C50B412A6CEE8 DUP7 PUSH1 0x40 MLOAD PUSH2 0x1601 SWAP2 SWAP1 PUSH2 0x1E6B JUMP JUMPDEST PUSH1 0x40 MLOAD DUP1 SWAP2 SUB SWAP1 LOG4 PUSH1 0x40 DUP1 MLOAD CALLER PUSH1 0x20 DUP3 ADD MSTORE PUSH2 0x161D SWAP2 ADD PUSH2 0x4DD JUMP JUMPDEST ISZERO PUSH2 0x1633 JUMPI PUSH2 0x162D DUP2 PUSH1 0x1 PUSH2 0xDD8 JUMP JUMPDEST POP PUSH2 0x166D JUMP JUMPDEST PUSH1 0x1 PUSH1 0x1 PUSH1 0xA0 SHL SUB DUP6 AND ADDRESS EQ DUP1 ISZERO SWAP1 PUSH2 0x165B JUMPI POP PUSH1 0x40 DUP1 MLOAD CALLER PUSH1 0x20 DUP3 ADD MSTORE PUSH2 0x165B SWAP2 ADD PUSH2 0xF72 JUMP JUMPDEST ISZERO PUSH2 0x166D JUMPI PUSH2 0x166B DUP2 PUSH1 0x1 PUSH2 0xDD8 JUMP JUMPDEST POP JUMPDEST SWAP5 SWAP4 POP POP POP POP JUMP JUMPDEST PUSH1 0x1 PUSH1 0x1 PUSH1 0xA0 SHL SUB DUP2 AND PUSH2 0x16CB JUMPI PUSH1 0x40 MLOAD PUSH3 0x461BCD PUSH1 0xE5 SHL DUP2 MSTORE PUSH1 0x20 PUSH1 0x4 DUP3 ADD MSTORE PUSH1 0x1F PUSH1 0x24 DUP3 ADD MSTORE PUSH32 0x696E76616C696420617267756D656E74202D207A65726F206164647265737300 PUSH1 0x44 DUP3 ADD MSTORE PUSH1 0x64 ADD PUSH2 0x4BB JUMP JUMPDEST PUSH2 0x16D4 DUP2 PUSH2 0x1A62 JUMP JUMPDEST POP JUMP JUMPDEST PUSH1 0x0 DUP2 DUP2 MSTORE PUSH1 0x4 PUSH1 0x20 DUP2 SWAP1 MSTORE PUSH1 0x40 DUP3 KECCAK256 DUP1 SLOAD PUSH1 0x1 DUP3 ADD SLOAD PUSH1 0x2 DUP4 ADD SLOAD PUSH1 0x3 DUP5 ADD DUP1 SLOAD DUP8 SWAP7 DUP8 SWAP7 PUSH1 0x60 SWAP7 DUP8 SWAP7 DUP8 SWAP7 SWAP2 SWAP6 SWAP1 SWAP5 PUSH1 0x1 PUSH1 0x1 PUSH1 0xA0 SHL SUB SWAP1 SWAP3 AND SWAP4 SWAP1 SWAP3 SWAP1 DUP2 ADD SWAP2 PUSH1 0x5 SWAP1 SWAP2 ADD SWAP1 DUP4 SWAP1 PUSH2 0x172B SWAP1 PUSH2 0x231A JUMP JUMPDEST DUP1 PUSH1 0x1F ADD PUSH1 0x20 DUP1 SWAP2 DIV MUL PUSH1 0x20 ADD PUSH1 0x40 MLOAD SWAP1 DUP2 ADD PUSH1 0x40 MSTORE DUP1 SWAP3 SWAP2 SWAP1 DUP2 DUP2 MSTORE PUSH1 0x20 ADD DUP3 DUP1 SLOAD PUSH2 0x1757 SWAP1 PUSH2 0x231A JUMP JUMPDEST DUP1 ISZERO PUSH2 0x17A4 JUMPI DUP1 PUSH1 0x1F LT PUSH2 0x1779 JUMPI PUSH2 0x100 DUP1 DUP4 SLOAD DIV MUL DUP4 MSTORE SWAP2 PUSH1 0x20 ADD SWAP2 PUSH2 0x17A4 JUMP JUMPDEST DUP3 ADD SWAP2 SWAP1 PUSH1 0x0 MSTORE PUSH1 0x20 PUSH1 0x0 KECCAK256 SWAP1 JUMPDEST DUP2 SLOAD DUP2 MSTORE SWAP1 PUSH1 0x1 ADD SWAP1 PUSH1 0x20 ADD DUP1 DUP4 GT PUSH2 0x1787 JUMPI DUP3 SWAP1 SUB PUSH1 0x1F AND DUP3 ADD SWAP2 JUMPDEST POP POP POP POP POP SWAP3 POP DUP2 DUP1 SLOAD PUSH2 0x17B7 SWAP1 PUSH2 0x231A JUMP JUMPDEST DUP1 PUSH1 0x1F ADD PUSH1 0x20 DUP1 SWAP2 DIV MUL PUSH1 0x20 ADD PUSH1 0x40 MLOAD SWAP1 DUP2 ADD PUSH1 0x40 MSTORE DUP1 SWAP3 SWAP2 SWAP1 DUP2 DUP2 MSTORE PUSH1 0x20 ADD DUP3 DUP1 SLOAD PUSH2 0x17E3 SWAP1 PUSH2 0x231A JUMP JUMPDEST DUP1 ISZERO PUSH2 0x1830 JUMPI DUP1 PUSH1 0x1F LT PUSH2 0x1805 JUMPI PUSH2 0x100 DUP1 DUP4 SLOAD DIV MUL DUP4 MSTORE SWAP2 PUSH1 0x20 ADD SWAP2 PUSH2 0x1830 JUMP JUMPDEST DUP3 ADD SWAP2 SWAP1 PUSH1 0x0 MSTORE PUSH1 0x20 PUSH1 0x0 KECCAK256 SWAP1 JUMPDEST DUP2 SLOAD DUP2 MSTORE SWAP1 PUSH1 0x1 ADD SWAP1 PUSH1 0x20 ADD DUP1 DUP4 GT PUSH2 0x1813 JUMPI DUP3 SWAP1 SUB PUSH1 0x1F AND DUP3 ADD SWAP2 JUMPDEST POP POP POP POP POP SWAP2 POP DUP1 DUP1 SLOAD PUSH2 0x1843 SWAP1 PUSH2 0x231A JUMP JUMPDEST DUP1 PUSH1 0x1F ADD PUSH1 0x20 DUP1 SWAP2 DIV MUL PUSH1 0x20 ADD PUSH1 0x40 MLOAD SWAP1 DUP2 ADD PUSH1 0x40 MSTORE DUP1 SWAP3 SWAP2 SWAP1 DUP2 DUP2 MSTORE PUSH1 0x20 ADD DUP3 DUP1 SLOAD PUSH2 0x186F SWAP1 PUSH2 0x231A JUMP JUMPDEST DUP1 ISZERO PUSH2 0x18BC JUMPI DUP1 PUSH1 0x1F LT PUSH2 0x1891 JUMPI PUSH2 0x100 DUP1 DUP4 SLOAD DIV MUL DUP4 MSTORE SWAP2 PUSH1 0x20 ADD SWAP2 PUSH2 0x18BC JUMP JUMPDEST DUP3 ADD SWAP2 SWAP1 PUSH1 0x0 MSTORE PUSH1 0x20 PUSH1 0x0 KECCAK256 SWAP1 JUMPDEST DUP2 SLOAD DUP2 MSTORE SWAP1 PUSH1 0x1 ADD SWAP1 PUSH1 0x20 ADD DUP1 DUP4 GT PUSH2 0x189F JUMPI DUP3 SWAP1 SUB PUSH1 0x1F AND DUP3 ADD SWAP2 JUMPDEST POP POP POP POP POP SWAP1 POP SWAP6 POP SWAP6 POP SWAP6 POP SWAP6 POP SWAP6 POP SWAP6 POP SWAP2 SWAP4 SWAP6 POP SWAP2 SWAP4 SWAP6 JUMP JUMPDEST PUSH1 0x60 DUP2 PUSH1 0x40 MLOAD PUSH1 0x20 ADD PUSH2 0x18EB SWAP2 SWAP1 PUSH2 0x1E6B JUMP JUMPDEST PUSH1 0x40 MLOAD PUSH1 0x20 DUP2 DUP4 SUB SUB DUP2 MSTORE SWAP1 PUSH1 0x40 MSTORE SWAP1 POP SWAP2 SWAP1 POP JUMP JUMPDEST PUSH1 0x0 DUP3 DUP2 MSTORE PUSH1 0x1 PUSH1 0x20 SWAP1 DUP2 MSTORE PUSH1 0x40 DUP1 DUP4 KECCAK256 DUP2 MLOAD DUP2 SLOAD PUSH1 0x80 SWAP5 DUP2 MUL DUP3 ADD DUP6 ADD SWAP1 SWAP4 MSTORE PUSH1 0x60 DUP2 ADD DUP4 DUP2 MSTORE DUP6 SWAP5 SWAP2 SWAP4 DUP5 SWAP3 DUP5 SWAP2 SWAP1 DUP5 ADD DUP3 DUP3 DUP1 ISZERO PUSH2 0x1961 JUMPI PUSH1 0x20 MUL DUP3 ADD SWAP2 SWAP1 PUSH1 0x0 MSTORE PUSH1 0x20 PUSH1 0x0 KECCAK256 SWAP1 JUMPDEST DUP2 SLOAD DUP2 MSTORE PUSH1 0x20 ADD SWAP1 PUSH1 0x1 ADD SWAP1 DUP1 DUP4 GT PUSH2 0x194D JUMPI JUMPDEST POP POP POP SWAP2 DUP4 MSTORE POP POP PUSH1 0x1 DUP3 ADD SLOAD PUSH1 0x20 DUP3 ADD MSTORE PUSH1 0x2 SWAP1 SWAP2 ADD SLOAD PUSH1 0x40 SWAP2 DUP3 ADD MSTORE DUP2 ADD MLOAD SWAP1 SWAP2 POP PUSH1 0x0 SUB PUSH2 0x1996 JUMPI PUSH1 0x0 SWAP2 POP POP PUSH2 0xDD2 JUMP JUMPDEST PUSH1 0x0 JUMPDEST DUP2 MLOAD MLOAD DUP2 LT ISZERO PUSH2 0x19F7 JUMPI PUSH1 0x0 DUP3 PUSH1 0x0 ADD MLOAD DUP3 DUP2 MLOAD DUP2 LT PUSH2 0x19BB JUMPI PUSH2 0x19BB PUSH2 0x2212 JUMP JUMPDEST PUSH1 0x20 MUL PUSH1 0x20 ADD ADD MLOAD SWAP1 POP DUP1 PUSH1 0x1 EQ DUP1 PUSH2 0x19D3 JUMPI POP DUP5 DUP2 EQ JUMPDEST ISZERO PUSH2 0x19E4 JUMPI PUSH1 0x1 SWAP4 POP POP POP POP PUSH2 0xDD2 JUMP JUMPDEST POP DUP1 PUSH2 0x19EF DUP2 PUSH2 0x223E JUMP JUMPDEST SWAP2 POP POP PUSH2 0x1999 JUMP JUMPDEST POP PUSH1 0x0 SWAP5 SWAP4 POP POP POP POP JUMP JUMPDEST PUSH1 0x0 DUP2 DUP2 MSTORE PUSH1 0x1 PUSH1 0x20 SWAP1 DUP2 MSTORE PUSH1 0x40 SWAP2 DUP3 SWAP1 KECCAK256 DUP1 SLOAD DUP4 MLOAD DUP2 DUP5 MUL DUP2 ADD DUP5 ADD SWAP1 SWAP5 MSTORE DUP1 DUP5 MSTORE PUSH1 0x60 SWAP4 SWAP3 DUP4 ADD DUP3 DUP3 DUP1 ISZERO PUSH2 0x120B JUMPI PUSH1 0x20 MUL DUP3 ADD SWAP2 SWAP1 PUSH1 0x0 MSTORE PUSH1 0x20 PUSH1 0x0 KECCAK256 SWAP1 DUP2 SLOAD DUP2 MSTORE PUSH1 0x20 ADD SWAP1 PUSH1 0x1 ADD SWAP1 DUP1 DUP4 GT PUSH2 0x11F7 JUMPI POP POP POP POP POP SWAP1 POP SWAP2 SWAP1 POP JUMP JUMPDEST PUSH1 0x6 SLOAD PUSH1 0xFF AND ISZERO DUP1 PUSH2 0x1A73 JUMPI POP ADDRESS EXTCODESIZE ISZERO JUMPDEST PUSH2 0x1ABF JUMPI PUSH1 0x40 MLOAD PUSH3 0x461BCD PUSH1 0xE5 SHL DUP2 MSTORE PUSH1 0x20 PUSH1 0x4 DUP3 ADD MSTORE PUSH1 0x1E PUSH1 0x24 DUP3 ADD MSTORE PUSH32 0x496E697469616C206B65792077617320616C72656164792073657475702E0000 PUSH1 0x44 DUP3 ADD MSTORE PUSH1 0x64 ADD PUSH2 0x4BB JUMP JUMPDEST PUSH1 0x6 DUP1 SLOAD PUSH2 0xFFFF NOT AND PUSH2 0x101 OR SWAP1 SSTORE PUSH1 0x40 DUP1 MLOAD PUSH1 0x1 PUSH1 0x1 PUSH1 0xA0 SHL SUB DUP4 AND PUSH1 0x20 DUP3 ADD MSTORE PUSH1 0x0 SWAP2 ADD PUSH1 0x40 DUP1 MLOAD PUSH1 0x1F NOT DUP2 DUP5 SUB ADD DUP2 MSTORE DUP3 DUP3 MSTORE DUP1 MLOAD PUSH1 0x20 SWAP2 DUP3 ADD KECCAK256 PUSH1 0x0 DUP2 DUP2 MSTORE PUSH1 0x1 DUP1 DUP5 MSTORE DUP5 DUP3 KECCAK256 PUSH1 0x2 DUP2 ADD DUP5 SWAP1 SSTORE DUP7 DUP6 ADD SWAP1 SWAP6 MSTORE DUP1 DUP7 MSTORE SWAP1 DUP3 SWAP1 MSTORE SWAP2 DUP3 SWAP1 MSTORE SWAP4 POP PUSH2 0x1B2E SWAP3 SWAP1 PUSH2 0x1C6B JUMP JUMPDEST POP PUSH1 0x0 DUP2 DUP2 MSTORE PUSH1 0x1 PUSH1 0x20 DUP2 DUP2 MSTORE PUSH1 0x40 DUP1 DUP5 KECCAK256 DUP4 ADD DUP4 SWAP1 SSTORE PUSH1 0x2 SWAP1 SWAP2 MSTORE PUSH32 0xE90B7BCEB6E7DF5418FB78D8EE546E97C83A08BBCCC01A0644D599CCD2A7C2E0 DUP1 SLOAD DUP1 DUP5 ADD DUP3 SSTORE SWAP1 DUP5 MSTORE PUSH32 0x7FEF4BF8F63CF9DD467136C679C02B5C17FCF6322D9562512BF5EB952CF7CC53 ADD DUP5 SWAP1 SSTORE MLOAD SWAP1 SWAP2 DUP3 SWAP2 DUP5 SWAP2 PUSH32 0x480000BB1EDAD8CA1470381CC334B1917FBD51C6531F3A623EA8E0EC7E38A6E9 SWAP2 LOG4 POP POP JUMP JUMPDEST DUP3 DUP1 SLOAD DUP3 DUP3 SSTORE SWAP1 PUSH1 0x0 MSTORE PUSH1 0x20 PUSH1 0x0 KECCAK256 SWAP1 DUP2 ADD SWAP3 DUP3 ISZERO PUSH2 0x1C03 JUMPI SWAP2 PUSH1 0x20 MUL DUP3 ADD JUMPDEST DUP3 DUP2 GT ISZERO PUSH2 0x1C03 JUMPI DUP3 MLOAD DUP3 SSTORE SWAP2 PUSH1 0x20 ADD SWAP2 SWAP1 PUSH1 0x1 ADD SWAP1 PUSH2 0x1BE8 JUMP JUMPDEST POP PUSH2 0x1C0F SWAP3 SWAP2 POP PUSH2 0x1CAB JUMP JUMPDEST POP SWAP1 JUMP JUMPDEST POP DUP1 SLOAD PUSH2 0x1C1F SWAP1 PUSH2 0x231A JUMP JUMPDEST PUSH1 0x0 DUP3 SSTORE DUP1 PUSH1 0x1F LT PUSH2 0x1C2F JUMPI POP POP JUMP JUMPDEST PUSH1 0x1F ADD PUSH1 0x20 SWAP1 DIV SWAP1 PUSH1 0x0 MSTORE PUSH1 0x20 PUSH1 0x0 KECCAK256 SWAP1 DUP2 ADD SWAP1 PUSH2 0x16D4 SWAP2 SWAP1 PUSH2 0x1CAB JUMP JUMPDEST POP DUP1 SLOAD PUSH1 0x0 DUP3 SSTORE SWAP1 PUSH1 0x0 MSTORE PUSH1 0x20 PUSH1 0x0 KECCAK256 SWAP1 DUP2 ADD SWAP1 PUSH2 0x16D4 SWAP2 SWAP1 PUSH2 0x1CAB JUMP JUMPDEST DUP3 DUP1 SLOAD DUP3 DUP3 SSTORE SWAP1 PUSH1 0x0 MSTORE PUSH1 0x20 PUSH1 0x0 KECCAK256 SWAP1 DUP2 ADD SWAP3 DUP3 ISZERO PUSH2 0x1C03 JUMPI SWAP2 PUSH1 0x20 MUL DUP3 ADD JUMPDEST DUP3 DUP2 GT ISZERO PUSH2 0x1C03 JUMPI DUP3 MLOAD DUP3 SWAP1 PUSH1 0xFF AND SWAP1 SSTORE SWAP2 PUSH1 0x20 ADD SWAP2 SWAP1 PUSH1 0x1 ADD SWAP1 PUSH2 0x1C8B JUMP JUMPDEST JUMPDEST DUP1 DUP3 GT ISZERO PUSH2 0x1C0F JUMPI PUSH1 0x0 DUP2 SSTORE PUSH1 0x1 ADD PUSH2 0x1CAC JUMP JUMPDEST PUSH1 0x0 PUSH1 0x20 DUP3 DUP5 SUB SLT ISZERO PUSH2 0x1CD2 JUMPI PUSH1 0x0 DUP1 REVERT JUMPDEST POP CALLDATALOAD SWAP2 SWAP1 POP JUMP JUMPDEST PUSH1 0x0 DUP2 MLOAD DUP1 DUP5 MSTORE PUSH1 0x20 DUP1 DUP6 ADD SWAP5 POP DUP1 DUP5 ADD PUSH1 0x0 JUMPDEST DUP4 DUP2 LT ISZERO PUSH2 0x1D09 JUMPI DUP2 MLOAD DUP8 MSTORE SWAP6 DUP3 ADD SWAP6 SWAP1 DUP3 ADD SWAP1 PUSH1 0x1 ADD PUSH2 0x1CED JUMP JUMPDEST POP SWAP5 SWAP6 SWAP5 POP POP POP POP POP JUMP JUMPDEST PUSH1 0x60 DUP2 MSTORE PUSH1 0x0 PUSH2 0x1D27 PUSH1 0x60 DUP4 ADD DUP7 PUSH2 0x1CD9 JUMP JUMPDEST PUSH1 0x20 DUP4 ADD SWAP5 SWAP1 SWAP5 MSTORE POP PUSH1 0x40 ADD MSTORE SWAP2 SWAP1 POP JUMP JUMPDEST PUSH1 0x0 DUP1 PUSH1 0x0 PUSH1 0x60 DUP5 DUP7 SUB SLT ISZERO PUSH2 0x1D4E JUMPI PUSH1 0x0 DUP1 REVERT JUMPDEST POP POP DUP2 CALLDATALOAD SWAP4 PUSH1 0x20 DUP4 ADD CALLDATALOAD SWAP4 POP PUSH1 0x40 SWAP1 SWAP3 ADD CALLDATALOAD SWAP2 SWAP1 POP JUMP JUMPDEST DUP1 CALLDATALOAD PUSH1 0x1 PUSH1 0x1 PUSH1 0xA0 SHL SUB DUP2 AND DUP2 EQ PUSH2 0x9E3 JUMPI PUSH1 0x0 DUP1 REVERT JUMPDEST PUSH1 0x0 DUP1 PUSH1 0x0 DUP1 PUSH1 0x60 DUP6 DUP8 SUB SLT ISZERO PUSH2 0x1D92 JUMPI PUSH1 0x0 DUP1 REVERT JUMPDEST PUSH2 0x1D9B DUP6 PUSH2 0x1D65 JUMP JUMPDEST SWAP4 POP PUSH1 0x20 DUP6 ADD CALLDATALOAD SWAP3 POP PUSH1 0x40 DUP6 ADD CALLDATALOAD PUSH8 0xFFFFFFFFFFFFFFFF DUP1 DUP3 GT ISZERO PUSH2 0x1DBF JUMPI PUSH1 0x0 DUP1 REVERT JUMPDEST DUP2 DUP8 ADD SWAP2 POP DUP8 PUSH1 0x1F DUP4 ADD SLT PUSH2 0x1DD3 JUMPI PUSH1 0x0 DUP1 REVERT JUMPDEST DUP2 CALLDATALOAD DUP2 DUP2 GT ISZERO PUSH2 0x1DE2 JUMPI PUSH1 0x0 DUP1 REVERT JUMPDEST DUP9 PUSH1 0x20 DUP3 DUP6 ADD ADD GT ISZERO PUSH2 0x1DF4 JUMPI PUSH1 0x0 DUP1 REVERT JUMPDEST SWAP6 SWAP9 SWAP5 SWAP8 POP POP PUSH1 0x20 ADD SWAP5 POP POP POP JUMP JUMPDEST PUSH1 0x0 DUP1 PUSH1 0x40 DUP4 DUP6 SUB SLT ISZERO PUSH2 0x1E16 JUMPI PUSH1 0x0 DUP1 REVERT JUMPDEST POP POP DUP1 CALLDATALOAD SWAP3 PUSH1 0x20 SWAP1 SWAP2 ADD CALLDATALOAD SWAP2 POP JUMP JUMPDEST PUSH1 0x0 DUP2 MLOAD DUP1 DUP5 MSTORE PUSH1 0x0 JUMPDEST DUP2 DUP2 LT ISZERO PUSH2 0x1E4B JUMPI PUSH1 0x20 DUP2 DUP6 ADD DUP2 ADD MLOAD DUP7 DUP4 ADD DUP3 ADD MSTORE ADD PUSH2 0x1E2F JUMP JUMPDEST POP PUSH1 0x0 PUSH1 0x20 DUP3 DUP7 ADD ADD MSTORE PUSH1 0x20 PUSH1 0x1F NOT PUSH1 0x1F DUP4 ADD AND DUP6 ADD ADD SWAP2 POP POP SWAP3 SWAP2 POP POP JUMP JUMPDEST PUSH1 0x20 DUP2 MSTORE PUSH1 0x0 PUSH2 0x1E7E PUSH1 0x20 DUP4 ADD DUP5 PUSH2 0x1E25 JUMP JUMPDEST SWAP4 SWAP3 POP POP POP JUMP JUMPDEST DUP1 ISZERO ISZERO DUP2 EQ PUSH2 0x16D4 JUMPI PUSH1 0x0 DUP1 REVERT JUMPDEST PUSH1 0x0 DUP1 PUSH1 0x40 DUP4 DUP6 SUB SLT ISZERO PUSH2 0x1EA6 JUMPI PUSH1 0x0 DUP1 REVERT JUMPDEST DUP3 CALLDATALOAD SWAP2 POP PUSH1 0x20 DUP4 ADD CALLDATALOAD PUSH2 0x1EB8 DUP2 PUSH2 0x1E85 JUMP JUMPDEST DUP1 SWAP2 POP POP SWAP3 POP SWAP3 SWAP1 POP JUMP JUMPDEST PUSH1 0x20 DUP1 DUP3 MSTORE DUP3 MLOAD DUP3 DUP3 ADD DUP2 SWAP1 MSTORE PUSH1 0x0 SWAP2 SWAP1 DUP5 DUP3 ADD SWAP1 PUSH1 0x40 DUP6 ADD SWAP1 DUP5 JUMPDEST DUP2 DUP2 LT ISZERO PUSH2 0x1EFB JUMPI DUP4 MLOAD DUP4 MSTORE SWAP3 DUP5 ADD SWAP3 SWAP2 DUP5 ADD SWAP2 PUSH1 0x1 ADD PUSH2 0x1EDF JUMP JUMPDEST POP SWAP1 SWAP7 SWAP6 POP POP POP POP POP POP JUMP JUMPDEST PUSH1 0x0 PUSH1 0x20 DUP3 DUP5 SUB SLT ISZERO PUSH2 0x1F19 JUMPI PUSH1 0x0 DUP1 REVERT JUMPDEST PUSH2 0x1E7E DUP3 PUSH2 0x1D65 JUMP JUMPDEST PUSH4 0x4E487B71 PUSH1 0xE0 SHL PUSH1 0x0 MSTORE PUSH1 0x41 PUSH1 0x4 MSTORE PUSH1 0x24 PUSH1 0x0 REVERT JUMPDEST PUSH1 0x0 DUP3 PUSH1 0x1F DUP4 ADD SLT PUSH2 0x1F49 JUMPI PUSH1 0x0 DUP1 REVERT JUMPDEST DUP2 CALLDATALOAD PUSH8 0xFFFFFFFFFFFFFFFF DUP1 DUP3 GT ISZERO PUSH2 0x1F64 JUMPI PUSH2 0x1F64 PUSH2 0x1F22 JUMP JUMPDEST PUSH1 0x40 MLOAD PUSH1 0x1F DUP4 ADD PUSH1 0x1F NOT SWAP1 DUP2 AND PUSH1 0x3F ADD AND DUP2 ADD SWAP1 DUP3 DUP3 GT DUP2 DUP4 LT OR ISZERO PUSH2 0x1F8C JUMPI PUSH2 0x1F8C PUSH2 0x1F22 JUMP JUMPDEST DUP2 PUSH1 0x40 MSTORE DUP4 DUP2 MSTORE DUP7 PUSH1 0x20 DUP6 DUP9 ADD ADD GT ISZERO PUSH2 0x1FA5 JUMPI PUSH1 0x0 DUP1 REVERT JUMPDEST DUP4 PUSH1 0x20 DUP8 ADD PUSH1 0x20 DUP4 ADD CALLDATACOPY PUSH1 0x0 PUSH1 0x20 DUP6 DUP4 ADD ADD MSTORE DUP1 SWAP5 POP POP POP POP POP SWAP3 SWAP2 POP POP JUMP JUMPDEST PUSH1 0x0 DUP1 PUSH1 0x0 DUP1 PUSH1 0x0 DUP1 PUSH1 0xC0 DUP8 DUP10 SUB SLT ISZERO PUSH2 0x1FDE JUMPI PUSH1 0x0 DUP1 REVERT JUMPDEST DUP7 CALLDATALOAD SWAP6 POP PUSH1 0x20 DUP8 ADD CALLDATALOAD SWAP5 POP PUSH2 0x1FF5 PUSH1 0x40 DUP9 ADD PUSH2 0x1D65 JUMP JUMPDEST SWAP4 POP PUSH1 0x60 DUP8 ADD CALLDATALOAD PUSH8 0xFFFFFFFFFFFFFFFF DUP1 DUP3 GT ISZERO PUSH2 0x2012 JUMPI PUSH1 0x0 DUP1 REVERT JUMPDEST PUSH2 0x201E DUP11 DUP4 DUP12 ADD PUSH2 0x1F38 JUMP JUMPDEST SWAP5 POP PUSH1 0x80 DUP10 ADD CALLDATALOAD SWAP2 POP DUP1 DUP3 GT ISZERO PUSH2 0x2034 JUMPI PUSH1 0x0 DUP1 REVERT JUMPDEST PUSH2 0x2040 DUP11 DUP4 DUP12 ADD PUSH2 0x1F38 JUMP JUMPDEST SWAP4 POP PUSH1 0xA0 DUP10 ADD CALLDATALOAD SWAP2 POP DUP1 DUP3 GT ISZERO PUSH2 0x2056 JUMPI PUSH1 0x0 DUP1 REVERT JUMPDEST POP PUSH2 0x2063 DUP10 DUP3 DUP11 ADD PUSH2 0x1F38 JUMP JUMPDEST SWAP2 POP POP SWAP3 SWAP6 POP SWAP3 SWAP6 POP SWAP3 SWAP6 JUMP JUMPDEST PUSH1 0x0 DUP1 PUSH1 0x0 PUSH1 0x60 DUP5 DUP7 SUB SLT ISZERO PUSH2 0x2085 JUMPI PUSH1 0x0 DUP1 REVERT JUMPDEST PUSH2 0x208E DUP5 PUSH2 0x1D65 JUMP JUMPDEST SWAP3 POP PUSH1 0x20 DUP5 ADD CALLDATALOAD SWAP2 POP PUSH1 0x40 DUP5 ADD CALLDATALOAD PUSH8 0xFFFFFFFFFFFFFFFF DUP2 GT ISZERO PUSH2 0x20B1 JUMPI PUSH1 0x0 DUP1 REVERT JUMPDEST PUSH2 0x20BD DUP7 DUP3 DUP8 ADD PUSH2 0x1F38 JUMP JUMPDEST SWAP2 POP POP SWAP3 POP SWAP3 POP SWAP3 JUMP JUMPDEST DUP7 DUP2 MSTORE DUP6 PUSH1 0x20 DUP3 ADD MSTORE PUSH1 0x1 DUP1 PUSH1 0xA0 SHL SUB DUP6 AND PUSH1 0x40 DUP3 ADD MSTORE PUSH1 0xC0 PUSH1 0x60 DUP3 ADD MSTORE PUSH1 0x0 PUSH2 0x20F4 PUSH1 0xC0 DUP4 ADD DUP7 PUSH2 0x1E25 JUMP JUMPDEST DUP3 DUP2 SUB PUSH1 0x80 DUP5 ADD MSTORE PUSH2 0x2106 DUP2 DUP7 PUSH2 0x1E25 JUMP JUMPDEST SWAP1 POP DUP3 DUP2 SUB PUSH1 0xA0 DUP5 ADD MSTORE PUSH2 0x211A DUP2 DUP6 PUSH2 0x1E25 JUMP JUMPDEST SWAP10 SWAP9 POP POP POP POP POP POP POP POP POP JUMP JUMPDEST PUSH1 0x0 PUSH1 0x20 DUP3 DUP5 SUB SLT ISZERO PUSH2 0x2139 JUMPI PUSH1 0x0 DUP1 REVERT JUMPDEST DUP2 CALLDATALOAD PUSH8 0xFFFFFFFFFFFFFFFF DUP2 GT ISZERO PUSH2 0x2150 JUMPI PUSH1 0x0 DUP1 REVERT JUMPDEST PUSH2 0x166D DUP5 DUP3 DUP6 ADD PUSH2 0x1F38 JUMP JUMPDEST PUSH1 0x20 DUP2 MSTORE PUSH1 0x0 PUSH2 0x1E7E PUSH1 0x20 DUP4 ADD DUP5 PUSH2 0x1CD9 JUMP JUMPDEST PUSH1 0x20 DUP1 DUP3 MSTORE PUSH1 0x33 SWAP1 DUP3 ADD MSTORE PUSH32 0x496E746572616374696E67207769746820746865206C69627261727920636F6E PUSH1 0x40 DUP3 ADD MSTORE PUSH19 0x3A3930B1BA1034B9903337B93134B23232B717 PUSH1 0x69 SHL PUSH1 0x60 DUP3 ADD MSTORE PUSH1 0x80 ADD SWAP1 JUMP JUMPDEST PUSH1 0x20 DUP1 DUP3 MSTORE PUSH1 0x30 SWAP1 DUP3 ADD MSTORE PUSH32 0x5065726D697373696F6E733A2053656E64657220646F6573206E6F7420686176 PUSH1 0x40 DUP3 ADD MSTORE PUSH16 0x65206D616E6167656D656E74206B6579 PUSH1 0x80 SHL PUSH1 0x60 DUP3 ADD MSTORE PUSH1 0x80 ADD SWAP1 JUMP JUMPDEST PUSH4 0x4E487B71 PUSH1 0xE0 SHL PUSH1 0x0 MSTORE PUSH1 0x32 PUSH1 0x4 MSTORE PUSH1 0x24 PUSH1 0x0 REVERT JUMPDEST PUSH4 0x4E487B71 PUSH1 0xE0 SHL PUSH1 0x0 MSTORE PUSH1 0x11 PUSH1 0x4 MSTORE PUSH1 0x24 PUSH1 0x0 REVERT JUMPDEST PUSH1 0x0 PUSH1 0x1 DUP3 ADD PUSH2 0x2250 JUMPI PUSH2 0x2250 PUSH2 0x2228 JUMP JUMPDEST POP PUSH1 0x1 ADD SWAP1 JUMP JUMPDEST PUSH1 0x1 PUSH1 0x1 PUSH1 0xA0 SHL SUB DUP6 AND DUP2 MSTORE PUSH1 0x20 DUP2 ADD DUP5 SWAP1 MSTORE PUSH1 0x60 PUSH1 0x40 DUP3 ADD DUP2 SWAP1 MSTORE DUP2 ADD DUP3 SWAP1 MSTORE DUP2 DUP4 PUSH1 0x80 DUP4 ADD CALLDATACOPY PUSH1 0x0 DUP2 DUP4 ADD PUSH1 0x80 SWAP1 DUP2 ADD SWAP2 SWAP1 SWAP2 MSTORE PUSH1 0x1F SWAP1 SWAP3 ADD PUSH1 0x1F NOT AND ADD ADD SWAP4 SWAP3 POP POP POP JUMP JUMPDEST PUSH1 0x20 DUP1 DUP3 MSTORE PUSH1 0x32 SWAP1 DUP3 ADD MSTORE PUSH32 0x5065726D697373696F6E733A2053656E64657220646F6573206E6F7420686176 PUSH1 0x40 DUP3 ADD MSTORE PUSH18 0x6520636C61696D207369676E6572206B6579 PUSH1 0x70 SHL PUSH1 0x60 DUP3 ADD MSTORE PUSH1 0x80 ADD SWAP1 JUMP JUMPDEST DUP2 DUP2 SUB DUP2 DUP2 GT ISZERO PUSH2 0xDD2 JUMPI PUSH2 0xDD2 PUSH2 0x2228 JUMP JUMPDEST PUSH4 0x4E487B71 PUSH1 0xE0 SHL PUSH1 0x0 MSTORE PUSH1 0x31 PUSH1 0x4 MSTORE PUSH1 0x24 PUSH1 0x0 REVERT JUMPDEST PUSH1 0x1 DUP2 DUP2 SHR SWAP1 DUP3 AND DUP1 PUSH2 0x232E JUMPI PUSH1 0x7F DUP3 AND SWAP2 POP JUMPDEST PUSH1 0x20 DUP3 LT DUP2 SUB PUSH2 0x234E JUMPI PUSH4 0x4E487B71 PUSH1 0xE0 SHL PUSH1 0x0 MSTORE PUSH1 0x22 PUSH1 0x4 MSTORE PUSH1 0x24 PUSH1 0x0 REVERT JUMPDEST POP SWAP2 SWAP1 POP JUMP JUMPDEST PUSH1 0x0 DUP2 SLOAD PUSH2 0x2361 DUP2 PUSH2 0x231A JUMP JUMPDEST DUP1 DUP6 MSTORE PUSH1 0x20 PUSH1 0x1 DUP4 DUP2 AND DUP1 ISZERO PUSH2 0x237E JUMPI PUSH1 0x1 DUP2 EQ PUSH2 0x2398 JUMPI PUSH2 0x23C6 JUMP JUMPDEST PUSH1 0xFF NOT DUP6 AND DUP9 DUP5 ADD MSTORE DUP4 ISZERO ISZERO PUSH1 0x5 SHL DUP9 ADD DUP4 ADD SWAP6 POP PUSH2 0x23C6 JUMP JUMPDEST DUP7 PUSH1 0x0 MSTORE DUP3 PUSH1 0x0 KECCAK256 PUSH1 0x0 JUMPDEST DUP6 DUP2 LT ISZERO PUSH2 0x23BE JUMPI DUP2 SLOAD DUP11 DUP3 ADD DUP7 ADD MSTORE SWAP1 DUP4 ADD SWAP1 DUP5 ADD PUSH2 0x23A3 JUMP JUMPDEST DUP10 ADD DUP5 ADD SWAP7 POP POP JUMPDEST POP POP POP POP POP SWAP3 SWAP2 POP POP JUMP JUMPDEST DUP5 DUP2 MSTORE PUSH1 0x80 PUSH1 0x20 DUP3 ADD MSTORE PUSH1 0x0 PUSH2 0x23EA PUSH1 0x80 DUP4 ADD DUP7 PUSH2 0x2354 JUMP JUMPDEST DUP3 DUP2 SUB PUSH1 0x40 DUP5 ADD MSTORE PUSH2 0x23FC DUP2 DUP7 PUSH2 0x2354 JUMP JUMPDEST SWAP1 POP DUP3 DUP2 SUB PUSH1 0x60 DUP5 ADD MSTORE PUSH2 0x1538 DUP2 DUP6 PUSH2 0x2354 JUMP JUMPDEST PUSH1 0x0 DUP1 DUP4 SLOAD PUSH2 0x241E DUP2 PUSH2 0x231A JUMP JUMPDEST PUSH1 0x1 DUP3 DUP2 AND DUP1 ISZERO PUSH2 0x2436 JUMPI PUSH1 0x1 DUP2 EQ PUSH2 0x244B JUMPI PUSH2 0x247A JUMP JUMPDEST PUSH1 0xFF NOT DUP5 AND DUP8 MSTORE DUP3 ISZERO ISZERO DUP4 MUL DUP8 ADD SWAP5 POP PUSH2 0x247A JUMP JUMPDEST DUP8 PUSH1 0x0 MSTORE PUSH1 0x20 DUP1 PUSH1 0x0 KECCAK256 PUSH1 0x0 JUMPDEST DUP6 DUP2 LT ISZERO PUSH2 0x2471 JUMPI DUP2 SLOAD DUP11 DUP3 ADD MSTORE SWAP1 DUP5 ADD SWAP1 DUP3 ADD PUSH2 0x2458 JUMP JUMPDEST POP POP POP DUP3 DUP8 ADD SWAP5 POP JUMPDEST POP SWAP3 SWAP7 SWAP6 POP POP POP POP POP POP JUMP JUMPDEST PUSH1 0x20 DUP2 MSTORE PUSH1 0x0 PUSH2 0x1E7E PUSH1 0x20 DUP4 ADD DUP5 PUSH2 0x2354 JUMP JUMPDEST PUSH1 0x1 DUP1 PUSH1 0xA0 SHL SUB DUP6 AND DUP2 MSTORE DUP4 PUSH1 0x20 DUP3 ADD MSTORE PUSH1 0x80 PUSH1 0x40 DUP3 ADD MSTORE PUSH1 0x0 PUSH2 0x24C0 PUSH1 0x80 DUP4 ADD DUP6 PUSH2 0x1E25 JUMP JUMPDEST DUP3 DUP2 SUB PUSH1 0x60 DUP5 ADD MSTORE PUSH2 0x1538 DUP2 DUP6 PUSH2 0x1E25 JUMP JUMPDEST PUSH1 0x0 PUSH1 0x20 DUP3 DUP5 SUB SLT ISZERO PUSH2 0x24E4 JUMPI PUSH1 0x0 DUP1 REVERT JUMPDEST DUP2 MLOAD PUSH2 0x1E7E DUP2 PUSH2 0x1E85 JUMP JUMPDEST PUSH1 0x1F DUP3 GT ISZERO PUSH2 0x2539 JUMPI PUSH1 0x0 DUP2 DUP2 MSTORE PUSH1 0x20 DUP2 KECCAK256 PUSH1 0x1F DUP6 ADD PUSH1 0x5 SHR DUP2 ADD PUSH1 0x20 DUP7 LT ISZERO PUSH2 0x2516 JUMPI POP DUP1 JUMPDEST PUSH1 0x1F DUP6 ADD PUSH1 0x5 SHR DUP3 ADD SWAP2 POP JUMPDEST DUP2 DUP2 LT ISZERO PUSH2 0x2535 JUMPI DUP3 DUP2 SSTORE PUSH1 0x1 ADD PUSH2 0x2522 JUMP JUMPDEST POP POP POP JUMPDEST POP POP POP JUMP JUMPDEST DUP2 MLOAD PUSH8 0xFFFFFFFFFFFFFFFF DUP2 GT ISZERO PUSH2 0x2558 JUMPI PUSH2 0x2558 PUSH2 0x1F22 JUMP JUMPDEST PUSH2 0x256C DUP2 PUSH2 0x2566 DUP5 SLOAD PUSH2 0x231A JUMP JUMPDEST DUP5 PUSH2 0x24EF JUMP JUMPDEST PUSH1 0x20 DUP1 PUSH1 0x1F DUP4 GT PUSH1 0x1 DUP2 EQ PUSH2 0x25A1 JUMPI PUSH1 0x0 DUP5 ISZERO PUSH2 0x2589 JUMPI POP DUP6 DUP4 ADD MLOAD JUMPDEST PUSH1 0x0 NOT PUSH1 0x3 DUP7 SWAP1 SHL SHR NOT AND PUSH1 0x1 DUP6 SWAP1 SHL OR DUP6 SSTORE PUSH2 0x2535 JUMP JUMPDEST PUSH1 0x0 DUP6 DUP2 MSTORE PUSH1 0x20 DUP2 KECCAK256 PUSH1 0x1F NOT DUP7 AND SWAP2 JUMPDEST DUP3 DUP2 LT ISZERO PUSH2 0x25D0 JUMPI DUP9 DUP7 ADD MLOAD DUP3 SSTORE SWAP5 DUP5 ADD SWAP5 PUSH1 0x1 SWAP1 SWAP2 ADD SWAP1 DUP5 ADD PUSH2 0x25B1 JUMP JUMPDEST POP DUP6 DUP3 LT ISZERO PUSH2 0x25EE JUMPI DUP8 DUP6 ADD MLOAD PUSH1 0x0 NOT PUSH1 0x3 DUP9 SWAP1 SHL PUSH1 0xF8 AND SHR NOT AND DUP2 SSTORE JUMPDEST POP POP POP POP POP PUSH1 0x1 SWAP1 DUP2 SHL ADD SWAP1 SSTORE POP JUMP JUMPDEST DUP5 DUP2 MSTORE PUSH1 0x80 PUSH1 0x20 DUP3 ADD MSTORE PUSH1 0x0 PUSH2 0x2617 PUSH1 0x80 DUP4 ADD DUP7 PUSH2 0x1E25 JUMP JUMPDEST DUP3 DUP2 SUB PUSH1 0x40 DUP5 ADD MSTORE PUSH2 0x2629 DUP2 DUP7 PUSH2 0x1E25 JUMP JUMPDEST SWAP1 POP DUP3 DUP2 SUB PUSH1 0x60 DUP5 ADD MSTORE PUSH2 0x1538 DUP2 DUP6 PUSH2 0x1E25 JUMP INVALID LOG2 PUSH5 0x6970667358 0x22 SLT KECCAK256 CALLCODE PUSH2 0xF2B3 0xD5 STOP 0xC0 0xB9 SWAP12 GT 0xD7 EXTCODECOPY PUSH3 0xE18E8F PUSH10 0xAB51032DB5B46CFD0001 LOG4 SUB BLOCKHASH RETURNDATASIZE GASPRICE PUSH5 0x736F6C6343 STOP ADDMOD GT STOP CALLER "
		},
		"gasEstimates": {
			"creation": {
				"codeDepositCost": "1968600",
				"executionCost": "infinite",
				"totalCost": "infinite"
			},
			"external": {
				"addClaim(uint256,uint256,address,bytes,bytes,string)": "infinite",
				"addKey(bytes32,uint256,uint256)": "infinite",
				"approve(uint256,bool)": "infinite",
				"bytekey(address)": "549",
				"bytesdata(string)": "infinite",
				"datahash(address,uint256,bytes)": "infinite",
				"execute(address,uint256,bytes)": "infinite",
				"function_selector()": "311",
				"getClaim(bytes32)": "infinite",
				"getClaimIdsByTopic(uint256)": "infinite",
				"getKey(bytes32)": "infinite",
				"getKeyPurposes(bytes32)": "infinite",
				"getKeysByPurpose(uint256)": "infinite",
				"initialize(address)": "infinite",
				"keyHasPurpose(bytes32,uint256)": "infinite",
				"removeClaim(bytes32)": "infinite",
				"removeKey(bytes32,uint256)": "infinite",
				"version()": "infinite"
			}
		},
		"methodIdentifiers": {
			"addClaim(uint256,uint256,address,bytes,bytes,string)": "b1a34e0d",
			"addKey(bytes32,uint256,uint256)": "1d381240",
			"approve(uint256,bool)": "747442d3",
			"bytekey(address)": "a192b909",
			"bytesdata(string)": "cf3c6feb",
			"datahash(address,uint256,bytes)": "4226d55a",
			"execute(address,uint256,bytes)": "b61d27f6",
			"function_selector()": "360b429a",
			"getClaim(bytes32)": "c9100bcb",
			"getClaimIdsByTopic(uint256)": "80e9e9e1",
			"getKey(bytes32)": "12aaac70",
			"getKeyPurposes(bytes32)": "fb307b34",
			"getKeysByPurpose(uint256)": "9010f726",
			"initialize(address)": "c4d66de8",
			"keyHasPurpose(bytes32,uint256)": "d202158d",
			"removeClaim(bytes32)": "4eee424a",
			"removeKey(bytes32,uint256)": "53d413c5",
			"version()": "54fd4d50"
		}
	},
	"abi": [
		{
			"inputs": [
				{
					"internalType": "address",
					"name": "initialManagementKey",
					"type": "address"
				}
			],
			"stateMutability": "nonpayable",
			"type": "constructor"
		},
		{
			"anonymous": false,
			"inputs": [
				{
					"indexed": true,
					"internalType": "uint256",
					"name": "executionId",
					"type": "uint256"
				},
				{
					"indexed": false,
					"internalType": "bool",
					"name": "approved",
					"type": "bool"
				}
			],
			"name": "Approved",
			"type": "event"
		},
		{
			"anonymous": false,
			"inputs": [
				{
					"indexed": true,
					"internalType": "bytes32",
					"name": "claimId",
					"type": "bytes32"
				},
				{
					"indexed": true,
					"internalType": "uint256",
					"name": "topic",
					"type": "uint256"
				},
				{
					"indexed": false,
					"internalType": "uint256",
					"name": "scheme",
					"type": "uint256"
				},
				{
					"indexed": true,
					"internalType": "address",
					"name": "issuer",
					"type": "address"
				},
				{
					"indexed": false,
					"internalType": "bytes",
					"name": "signature",
					"type": "bytes"
				},
				{
					"indexed": false,
					"internalType": "bytes",
					"name": "data",
					"type": "bytes"
				},
				{
					"indexed": false,
					"internalType": "string",
					"name": "uri",
					"type": "string"
				}
			],
			"name": "ClaimAdded",
			"type": "event"
		},
		{
			"anonymous": false,
			"inputs": [
				{
					"indexed": true,
					"internalType": "bytes32",
					"name": "claimId",
					"type": "bytes32"
				},
				{
					"indexed": true,
					"internalType": "uint256",
					"name": "topic",
					"type": "uint256"
				},
				{
					"indexed": false,
					"internalType": "uint256",
					"name": "scheme",
					"type": "uint256"
				},
				{
					"indexed": true,
					"internalType": "address",
					"name": "issuer",
					"type": "address"
				},
				{
					"indexed": false,
					"internalType": "bytes",
					"name": "signature",
					"type": "bytes"
				},
				{
					"indexed": false,
					"internalType": "bytes",
					"name": "data",
					"type": "bytes"
				},
				{
					"indexed": false,
					"internalType": "string",
					"name": "uri",
					"type": "string"
				}
			],
			"name": "ClaimChanged",
			"type": "event"
		},
		{
			"anonymous": false,
			"inputs": [
				{
					"indexed": true,
					"internalType": "bytes32",
					"name": "claimId",
					"type": "bytes32"
				},
				{
					"indexed": true,
					"internalType": "uint256",
					"name": "topic",
					"type": "uint256"
				},
				{
					"indexed": false,
					"internalType": "uint256",
					"name": "scheme",
					"type": "uint256"
				},
				{
					"indexed": true,
					"internalType": "address",
					"name": "issuer",
					"type": "address"
				},
				{
					"indexed": false,
					"internalType": "bytes",
					"name": "signature",
					"type": "bytes"
				},
				{
					"indexed": false,
					"internalType": "bytes",
					"name": "data",
					"type": "bytes"
				},
				{
					"indexed": false,
					"internalType": "string",
					"name": "uri",
					"type": "string"
				}
			],
			"name": "ClaimRemoved",
			"type": "event"
		},
		{
			"anonymous": false,
			"inputs": [
				{
					"indexed": true,
					"internalType": "uint256",
					"name": "executionId",
					"type": "uint256"
				},
				{
					"indexed": true,
					"internalType": "address",
					"name": "to",
					"type": "address"
				},
				{
					"indexed": true,
					"internalType": "uint256",
					"name": "value",
					"type": "uint256"
				},
				{
					"indexed": false,
					"internalType": "bytes",
					"name": "data",
					"type": "bytes"
				}
			],
			"name": "Executed",
			"type": "event"
		},
		{
			"anonymous": false,
			"inputs": [
				{
					"indexed": true,
					"internalType": "uint256",
					"name": "executionId",
					"type": "uint256"
				},
				{
					"indexed": true,
					"internalType": "address",
					"name": "to",
					"type": "address"
				},
				{
					"indexed": true,
					"internalType": "uint256",
					"name": "value",
					"type": "uint256"
				},
				{
					"indexed": false,
					"internalType": "bytes",
					"name": "data",
					"type": "bytes"
				}
			],
			"name": "ExecutionFailed",
			"type": "event"
		},
		{
			"anonymous": false,
			"inputs": [
				{
					"indexed": true,
					"internalType": "uint256",
					"name": "executionId",
					"type": "uint256"
				},
				{
					"indexed": true,
					"internalType": "address",
					"name": "to",
					"type": "address"
				},
				{
					"indexed": true,
					"internalType": "uint256",
					"name": "value",
					"type": "uint256"
				},
				{
					"indexed": false,
					"internalType": "bytes",
					"name": "data",
					"type": "bytes"
				}
			],
			"name": "ExecutionRequested",
			"type": "event"
		},
		{
			"anonymous": false,
			"inputs": [
				{
					"indexed": true,
					"internalType": "bytes32",
					"name": "key",
					"type": "bytes32"
				},
				{
					"indexed": true,
					"internalType": "uint256",
					"name": "purpose",
					"type": "uint256"
				},
				{
					"indexed": true,
					"internalType": "uint256",
					"name": "keyType",
					"type": "uint256"
				}
			],
			"name": "KeyAdded",
			"type": "event"
		},
		{
			"anonymous": false,
			"inputs": [
				{
					"indexed": true,
					"internalType": "bytes32",
					"name": "key",
					"type": "bytes32"
				},
				{
					"indexed": true,
					"internalType": "uint256",
					"name": "purpose",
					"type": "uint256"
				},
				{
					"indexed": true,
					"internalType": "uint256",
					"name": "keyType",
					"type": "uint256"
				}
			],
			"name": "KeyRemoved",
			"type": "event"
		},
		{
			"inputs": [
				{
					"internalType": "uint256",
					"name": "_topic",
					"type": "uint256"
				},
				{
					"internalType": "uint256",
					"name": "_scheme",
					"type": "uint256"
				},
				{
					"internalType": "address",
					"name": "_issuer",
					"type": "address"
				},
				{
					"internalType": "bytes",
					"name": "_signature",
					"type": "bytes"
				},
				{
					"internalType": "bytes",
					"name": "_data",
					"type": "bytes"
				},
				{
					"internalType": "string",
					"name": "_uri",
					"type": "string"
				}
			],
			"name": "addClaim",
			"outputs": [
				{
					"internalType": "bytes32",
					"name": "claimRequestId",
					"type": "bytes32"
				}
			],
			"stateMutability": "nonpayable",
			"type": "function"
		},
		{
			"inputs": [
				{
					"internalType": "bytes32",
					"name": "_key",
					"type": "bytes32"
				},
				{
					"internalType": "uint256",
					"name": "_purpose",
					"type": "uint256"
				},
				{
					"internalType": "uint256",
					"name": "_type",
					"type": "uint256"
				}
			],
			"name": "addKey",
			"outputs": [
				{
					"internalType": "bool",
					"name": "success",
					"type": "bool"
				}
			],
			"stateMutability": "nonpayable",
			"type": "function"
		},
		{
			"inputs": [
				{
					"internalType": "uint256",
					"name": "_id",
					"type": "uint256"
				},
				{
					"internalType": "bool",
					"name": "_approve",
					"type": "bool"
				}
			],
			"name": "approve",
			"outputs": [
				{
					"internalType": "bool",
					"name": "success",
					"type": "bool"
				}
			],
			"stateMutability": "nonpayable",
			"type": "function"
		},
		{
			"inputs": [
				{
					"internalType": "address",
					"name": "_address",
					"type": "address"
				}
			],
			"name": "bytekey",
			"outputs": [
				{
					"internalType": "bytes32",
					"name": "",
					"type": "bytes32"
				}
			],
			"stateMutability": "pure",
			"type": "function"
		},
		{
			"inputs": [
				{
					"internalType": "string",
					"name": "data",
					"type": "string"
				}
			],
			"name": "bytesdata",
			"outputs": [
				{
					"internalType": "bytes",
					"name": "",
					"type": "bytes"
				}
			],
			"stateMutability": "pure",
			"type": "function"
		},
		{
			"inputs": [
				{
					"internalType": "address",
					"name": "identityHolder_address",
					"type": "address"
				},
				{
					"internalType": "uint256",
					"name": "_topic",
					"type": "uint256"
				},
				{
					"internalType": "bytes",
					"name": "data",
					"type": "bytes"
				}
			],
			"name": "datahash",
			"outputs": [
				{
					"internalType": "bytes32",
					"name": "",
					"type": "bytes32"
				}
			],
			"stateMutability": "pure",
			"type": "function"
		},
		{
			"inputs": [
				{
					"internalType": "address",
					"name": "_to",
					"type": "address"
				},
				{
					"internalType": "uint256",
					"name": "_value",
					"type": "uint256"
				},
				{
					"internalType": "bytes",
					"name": "_data",
					"type": "bytes"
				}
			],
			"name": "execute",
			"outputs": [
				{
					"internalType": "uint256",
					"name": "executionId",
					"type": "uint256"
				}
			],
			"stateMutability": "payable",
			"type": "function"
		},
		{
			"inputs": [],
			"name": "function_selector",
			"outputs": [
				{
					"internalType": "bytes4",
					"name": "",
					"type": "bytes4"
				}
			],
			"stateMutability": "pure",
			"type": "function"
		},
		{
			"inputs": [
				{
					"internalType": "bytes32",
					"name": "_claimId",
					"type": "bytes32"
				}
			],
			"name": "getClaim",
			"outputs": [
				{
					"internalType": "uint256",
					"name": "topic",
					"type": "uint256"
				},
				{
					"internalType": "uint256",
					"name": "scheme",
					"type": "uint256"
				},
				{
					"internalType": "address",
					"name": "issuer",
					"type": "address"
				},
				{
					"internalType": "bytes",
					"name": "signature",
					"type": "bytes"
				},
				{
					"internalType": "bytes",
					"name": "data",
					"type": "bytes"
				},
				{
					"internalType": "string",
					"name": "uri",
					"type": "string"
				}
			],
			"stateMutability": "view",
			"type": "function"
		},
		{
			"inputs": [
				{
					"internalType": "uint256",
					"name": "_topic",
					"type": "uint256"
				}
			],
			"name": "getClaimIdsByTopic",
			"outputs": [
				{
					"internalType": "bytes32[]",
					"name": "claimIds",
					"type": "bytes32[]"
				}
			],
			"stateMutability": "view",
			"type": "function"
		},
		{
			"inputs": [
				{
					"internalType": "bytes32",
					"name": "_key",
					"type": "bytes32"
				}
			],
			"name": "getKey",
			"outputs": [
				{
					"internalType": "uint256[]",
					"name": "purposes",
					"type": "uint256[]"
				},
				{
					"internalType": "uint256",
					"name": "keyType",
					"type": "uint256"
				},
				{
					"internalType": "bytes32",
					"name": "key",
					"type": "bytes32"
				}
			],
			"stateMutability": "view",
			"type": "function"
		},
		{
			"inputs": [
				{
					"internalType": "bytes32",
					"name": "_key",
					"type": "bytes32"
				}
			],
			"name": "getKeyPurposes",
			"outputs": [
				{
					"internalType": "uint256[]",
					"name": "_purposes",
					"type": "uint256[]"
				}
			],
			"stateMutability": "view",
			"type": "function"
		},
		{
			"inputs": [
				{
					"internalType": "uint256",
					"name": "_purpose",
					"type": "uint256"
				}
			],
			"name": "getKeysByPurpose",
			"outputs": [
				{
					"internalType": "bytes32[]",
					"name": "keys",
					"type": "bytes32[]"
				}
			],
			"stateMutability": "view",
			"type": "function"
		},
		{
			"inputs": [
				{
					"internalType": "address",
					"name": "initialManagementKey",
					"type": "address"
				}
			],
			"name": "initialize",
			"outputs": [],
			"stateMutability": "nonpayable",
			"type": "function"
		},
		{
			"inputs": [
				{
					"internalType": "bytes32",
					"name": "_key",
					"type": "bytes32"
				},
				{
					"internalType": "uint256",
					"name": "_purpose",
					"type": "uint256"
				}
			],
			"name": "keyHasPurpose",
			"outputs": [
				{
					"internalType": "bool",
					"name": "result",
					"type": "bool"
				}
			],
			"stateMutability": "view",
			"type": "function"
		},
		{
			"inputs": [
				{
					"internalType": "bytes32",
					"name": "_claimId",
					"type": "bytes32"
				}
			],
			"name": "removeClaim",
			"outputs": [
				{
					"internalType": "bool",
					"name": "success",
					"type": "bool"
				}
			],
			"stateMutability": "nonpayable",
			"type": "function"
		},
		{
			"inputs": [
				{
					"internalType": "bytes32",
					"name": "_key",
					"type": "bytes32"
				},
				{
					"internalType": "uint256",
					"name": "_purpose",
					"type": "uint256"
				}
			],
			"name": "removeKey",
			"outputs": [
				{
					"internalType": "bool",
					"name": "success",
					"type": "bool"
				}
			],
			"stateMutability": "nonpayable",
			"type": "function"
		},
		{
			"inputs": [],
			"name": "version",
			"outputs": [
				{
					"internalType": "string",
					"name": "",
					"type": "string"
				}
			],
			"stateMutability": "pure",
			"type": "function"
		}
	]
}