{
	"data": {
		"bytecode": {
			"linkReferences": {},
			"object": "608060405234801561000f575f80fd5b50604051612c36380380612c3683398181016040528101906100319190610334565b8181816003908161004291906105f0565b50806004908161005291906105f0565b5050508273ffffffffffffffffffffffffffffffffffffffff163373ffffffffffffffffffffffffffffffffffffffff16146100c3576040517f08c379a00000000000000000000000000000000000000000000000000000000081526004016100ba90610719565b60405180910390fd5b8460065f6101000a81548173ffffffffffffffffffffffffffffffffffffffff021916908373ffffffffffffffffffffffffffffffffffffffff1602179055508360075f6101000a81548173ffffffffffffffffffffffffffffffffffffffff021916908373ffffffffffffffffffffffffffffffffffffffff1602179055508260055f6101000a81548173ffffffffffffffffffffffffffffffffffffffff021916908373ffffffffffffffffffffffffffffffffffffffff1602179055505050505050610737565b5f604051905090565b5f80fd5b5f80fd5b5f73ffffffffffffffffffffffffffffffffffffffff82169050919050565b5f6101c78261019e565b9050919050565b6101d7816101bd565b81146101e1575f80fd5b50565b5f815190506101f2816101ce565b92915050565b5f80fd5b5f80fd5b5f601f19601f8301169050919050565b7f4e487b71000000000000000000000000000000000000000000000000000000005f52604160045260245ffd5b61024682610200565b810181811067ffffffffffffffff8211171561026557610264610210565b5b80604052505050565b5f61027761018d565b9050610283828261023d565b919050565b5f67ffffffffffffffff8211156102a2576102a1610210565b5b6102ab82610200565b9050602081019050919050565b8281835e5f83830152505050565b5f6102d86102d384610288565b61026e565b9050828152602081018484840111156102f4576102f36101fc565b5b6102ff8482856102b8565b509392505050565b5f82601f83011261031b5761031a6101f8565b5b815161032b8482602086016102c6565b91505092915050565b5f805f805f60a0868803121561034d5761034c610196565b5b5f61035a888289016101e4565b955050602061036b888289016101e4565b945050604061037c888289016101e4565b935050606086015167ffffffffffffffff81111561039d5761039c61019a565b5b6103a988828901610307565b925050608086015167ffffffffffffffff8111156103ca576103c961019a565b5b6103d688828901610307565b9150509295509295909350565b5f81519050919050565b7f4e487b71000000000000000000000000000000000000000000000000000000005f52602260045260245ffd5b5f600282049050600182168061043157607f821691505b602082108103610444576104436103ed565b5b50919050565b5f819050815f5260205f209050919050565b5f6020601f8301049050919050565b5f82821b905092915050565b5f600883026104a67fffffffffffffffffffffffffffffffffffffffffffffffffffffffffffffffff8261046b565b6104b0868361046b565b95508019841693508086168417925050509392505050565b5f819050919050565b5f819050919050565b5f6104f46104ef6104ea846104c8565b6104d1565b6104c8565b9050919050565b5f819050919050565b61050d836104da565b610521610519826104fb565b848454610477565b825550505050565b5f90565b610535610529565b610540818484610504565b505050565b5b81811015610563576105585f8261052d565b600181019050610546565b5050565b601f8211156105a8576105798161044a565b6105828461045c565b81016020851015610591578190505b6105a561059d8561045c565b830182610545565b50505b505050565b5f82821c905092915050565b5f6105c85f19846008026105ad565b1980831691505092915050565b5f6105e083836105b9565b9150826002028217905092915050565b6105f9826103e3565b67ffffffffffffffff81111561061257610611610210565b5b61061c825461041a565b610627828285610567565b5f60209050601f831160018114610658575f8415610646578287015190505b61065085826105d5565b8655506106b7565b601f1984166106668661044a565b5f5b8281101561068d57848901518255600182019150602085019450602081019050610668565b868310156106aa57848901516106a6601f8916826105b9565b8355505b6001600288020188555050505b505050505050565b5f82825260208201905092915050565b7f464f5242494444454e00000000000000000000000000000000000000000000005f82015250565b5f6107036009836106bf565b915061070e826106cf565b602082019050919050565b5f6020820190508181035f830152610730816106f7565b9050919050565b6124f2806107445f395ff3fe608060405234801561000f575f80fd5b506004361061013f575f3560e01c80633827ebaa116100b657806395d89b411161007a57806395d89b4114610364578063a7533d0414610382578063a9059cbb1461039e578063c5cc6b6a146103ce578063d21220a7146103ec578063dd62ed3e1461040a5761013f565b80633827ebaa146102c257806353dabf40146102e057806369865deb146102fc57806370a08231146103185780638dbdbe6d146103485761013f565b80630d293d3b116101085780630d293d3b146101fe5780630dfe16811461021c57806318160ddd1461023a578063228177691461025857806323b872dd14610274578063313ce567146102a45761013f565b8062f714ce1461014357806306fdde031461017457806307aa9486146101925780630902f1ac146101ae578063095ea7b3146101ce575b5f80fd5b61015d60048036038101906101589190611b25565b61043a565b60405161016b929190611b72565b60405180910390f35b61017c6105b0565b6040516101899190611c09565b60405180910390f35b6101ac60048036038101906101a79190611c29565b610640565b005b6101b6610813565b6040516101c593929190611c79565b60405180910390f35b6101e860048036038101906101e39190611cae565b61082a565b6040516101f59190611d06565b60405180910390f35b61020661084c565b6040516102139190611d1f565b60405180910390f35b610224610852565b6040516102319190611d47565b60405180910390f35b610242610877565b60405161024f9190611d1f565b60405180910390f35b610272600480360381019061026d9190611d60565b610880565b005b61028e60048036038101906102899190611d9e565b610a8f565b60405161029b9190611d06565b60405180910390f35b6102ac610abd565b6040516102b99190611e09565b60405180910390f35b6102ca610ac5565b6040516102d79190611d1f565b60405180910390f35b6102fa60048036038101906102f59190611c29565b610acb565b005b61031660048036038101906103119190611cae565b610cb9565b005b610332600480360381019061032d9190611e22565b610de9565b60405161033f9190611d1f565b60405180910390f35b610362600480360381019061035d9190611e4d565b610e2e565b005b61036c610f99565b6040516103799190611c09565b60405180910390f35b61039c60048036038101906103979190611c29565b611029565b005b6103b860048036038101906103b39190611cae565b611217565b6040516103c59190611d06565b60405180910390f35b6103d6611239565b6040516103e39190611d47565b60405180910390f35b6103f461125e565b6040516104019190611d47565b60405180910390f35b610424600480360381019061041f9190611e9d565b611283565b6040516104319190611d1f565b60405180910390f35b5f805f841161047e576040517f08c379a000000000000000000000000000000000000000000000000000000000815260040161047590611f25565b60405180910390fd5b60055f9054906101000a900473ffffffffffffffffffffffffffffffffffffffff1673ffffffffffffffffffffffffffffffffffffffff163373ffffffffffffffffffffffffffffffffffffffff161461050d576040517f08c379a000000000000000000000000000000000000000000000000000000000815260040161050490611f8d565b60405180910390fd5b5f610516610877565b90505f816a084595161401484a000000876105319190611fd8565b61053b9190612046565b90505f60085490505f60095490505f6a084595161401484a00000084846105629190611fd8565b61056c9190612046565b90505f6a084595161401484a00000085846105879190611fd8565b6105919190612046565b905061059d898b611305565b8181975097505050505050509250929050565b6060600380546105bf906120a3565b80601f01602080910402602001604051908101604052809291908181526020018280546105eb906120a3565b80156106365780601f1061060d57610100808354040283529160200191610636565b820191905f5260205f20905b81548152906001019060200180831161061957829003601f168201915b5050505050905090565b60055f9054906101000a900473ffffffffffffffffffffffffffffffffffffffff1673ffffffffffffffffffffffffffffffffffffffff163373ffffffffffffffffffffffffffffffffffffffff16146106cf576040517f08c379a00000000000000000000000000000000000000000000000000000000081526004016106c690611f8d565b60405180910390fd5b60065f9054906101000a900473ffffffffffffffffffffffffffffffffffffffff1673ffffffffffffffffffffffffffffffffffffffff168373ffffffffffffffffffffffffffffffffffffffff1603610797578160085f82825461073491906120d3565b925050819055508060095f82825461074c91906120d3565b925050819055507f47a0f291b7d5c7d992b467d24bb7350c2fde51fafc5e867df69d34a7ff2208f43060085460095460405161078a93929190612106565b60405180910390a16107c8565b8060085f8282546107a891906120d3565b925050819055508160095f8282546107c091906120d3565b925050819055505b42600a819055507f47a0f291b7d5c7d992b467d24bb7350c2fde51fafc5e867df69d34a7ff2208f43060085460095460405161080693929190612106565b60405180910390a1505050565b5f805f60085492506009549150600a549050909192565b5f80610834611384565b905061084181858561138b565b600191505092915050565b60085481565b60065f9054906101000a900473ffffffffffffffffffffffffffffffffffffffff1681565b5f600254905090565b60055f9054906101000a900473ffffffffffffffffffffffffffffffffffffffff1673ffffffffffffffffffffffffffffffffffffffff163373ffffffffffffffffffffffffffffffffffffffff161461090f576040517f08c379a000000000000000000000000000000000000000000000000000000000815260040161090690611f8d565b60405180910390fd5b60065f9054906101000a900473ffffffffffffffffffffffffffffffffffffffff1673ffffffffffffffffffffffffffffffffffffffff1663095ea7b360055f9054906101000a900473ffffffffffffffffffffffffffffffffffffffff16846040518363ffffffff1660e01b815260040161098c92919061213b565b6020604051808303815f875af11580156109a8573d5f803e3d5ffd5b505050506040513d601f19601f820116820180604052508101906109cc919061218c565b5060075f9054906101000a900473ffffffffffffffffffffffffffffffffffffffff1673ffffffffffffffffffffffffffffffffffffffff1663095ea7b360055f9054906101000a900473ffffffffffffffffffffffffffffffffffffffff16836040518363ffffffff1660e01b8152600401610a4a92919061213b565b6020604051808303815f875af1158015610a66573d5f803e3d5ffd5b505050506040513d601f19601f82011682018060405250810190610a8a919061218c565b505050565b5f80610a99611384565b9050610aa685828561139d565b610ab185858561142f565b60019150509392505050565b5f6012905090565b60095481565b60055f9054906101000a900473ffffffffffffffffffffffffffffffffffffffff1673ffffffffffffffffffffffffffffffffffffffff163373ffffffffffffffffffffffffffffffffffffffff1614610b5a576040517f08c379a0000000000000000000000000000000000000000000000000000000008152600401610b5190611f8d565b60405180910390fd5b60065f9054906101000a900473ffffffffffffffffffffffffffffffffffffffff1673ffffffffffffffffffffffffffffffffffffffff168373ffffffffffffffffffffffffffffffffffffffff1603610bea578160085f828254610bbf91906121b7565b925050819055508060095f828254610bd791906121b7565b9250508190555042600a81905550610c22565b8060085f828254610bfb91906121b7565b925050819055508160095f828254610c1391906121b7565b9250508190555042600a819055505b6001600854118015610c3657506001600954115b610c75576040517f08c379a0000000000000000000000000000000000000000000000000000000008152600401610c6c90612234565b60405180910390fd5b7f47a0f291b7d5c7d992b467d24bb7350c2fde51fafc5e867df69d34a7ff2208f430600854600954604051610cac93929190612106565b60405180910390a1505050565b60055f9054906101000a900473ffffffffffffffffffffffffffffffffffffffff1673ffffffffffffffffffffffffffffffffffffffff163373ffffffffffffffffffffffffffffffffffffffff1614610d48576040517f08c379a0000000000000000000000000000000000000000000000000000000008152600401610d3f90611f8d565b60405180910390fd5b8173ffffffffffffffffffffffffffffffffffffffff1663095ea7b360055f9054906101000a900473ffffffffffffffffffffffffffffffffffffffff16836040518363ffffffff1660e01b8152600401610da492919061213b565b6020604051808303815f875af1158015610dc0573d5f803e3d5ffd5b505050506040513d601f19601f82011682018060405250810190610de4919061218c565b505050565b5f805f8373ffffffffffffffffffffffffffffffffffffffff1673ffffffffffffffffffffffffffffffffffffffff1681526020019081526020015f20549050919050565b60055f9054906101000a900473ffffffffffffffffffffffffffffffffffffffff1673ffffffffffffffffffffffffffffffffffffffff163373ffffffffffffffffffffffffffffffffffffffff1614610ebd576040517f08c379a0000000000000000000000000000000000000000000000000000000008152600401610eb490611f8d565b60405180910390fd5b5f83118015610ecb57505f82115b610f0a576040517f08c379a0000000000000000000000000000000000000000000000000000000008152600401610f019061229c565b60405180910390fd5b5f610f87610f3860075f9054906101000a900473ffffffffffffffffffffffffffffffffffffffff1661151f565b610f6260065f9054906101000a900473ffffffffffffffffffffffffffffffffffffffff1661151f565b8587610f6e9190611fd8565b610f789190611fd8565b610f829190611fd8565b6115b6565b9050610f93828261162d565b50505050565b606060048054610fa8906120a3565b80601f0160208091040260200160405190810160405280929190818152602001828054610fd4906120a3565b801561101f5780601f10610ff65761010080835404028352916020019161101f565b820191905f5260205f20905b81548152906001019060200180831161100257829003601f168201915b5050505050905090565b60055f9054906101000a900473ffffffffffffffffffffffffffffffffffffffff1673ffffffffffffffffffffffffffffffffffffffff163373ffffffffffffffffffffffffffffffffffffffff16146110b8576040517f08c379a00000000000000000000000000000000000000000000000000000000081526004016110af90611f8d565b60405180910390fd5b60065f9054906101000a900473ffffffffffffffffffffffffffffffffffffffff1673ffffffffffffffffffffffffffffffffffffffff168373ffffffffffffffffffffffffffffffffffffffff1603611148578160085f82825461111d91906120d3565b925050819055508060095f82825461113591906121b7565b9250508190555042600a81905550611180565b8160085f82825461115991906121b7565b925050819055508060095f82825461117191906120d3565b9250508190555042600a819055505b600160085411801561119457506001600954115b6111d3576040517f08c379a00000000000000000000000000000000000000000000000000000000081526004016111ca90612234565b60405180910390fd5b7f47a0f291b7d5c7d992b467d24bb7350c2fde51fafc5e867df69d34a7ff2208f43060085460095460405161120a93929190612106565b60405180910390a1505050565b5f80611221611384565b905061122e81858561142f565b600191505092915050565b60055f9054906101000a900473ffffffffffffffffffffffffffffffffffffffff1681565b60075f9054906101000a900473ffffffffffffffffffffffffffffffffffffffff1681565b5f60015f8473ffffffffffffffffffffffffffffffffffffffff1673ffffffffffffffffffffffffffffffffffffffff1681526020019081526020015f205f8373ffffffffffffffffffffffffffffffffffffffff1673ffffffffffffffffffffffffffffffffffffffff1681526020019081526020015f2054905092915050565b5f73ffffffffffffffffffffffffffffffffffffffff168273ffffffffffffffffffffffffffffffffffffffff1603611375575f6040517f96c6fd1e00000000000000000000000000000000000000000000000000000000815260040161136c9190611d47565b60405180910390fd5b611380825f836116ac565b5050565b5f33905090565b61139883838360016118c5565b505050565b5f6113a88484611283565b90507fffffffffffffffffffffffffffffffffffffffffffffffffffffffffffffffff8114611429578181101561141a578281836040517ffb8f41b200000000000000000000000000000000000000000000000000000000815260040161141193929190612106565b60405180910390fd5b61142884848484035f6118c5565b5b50505050565b5f73ffffffffffffffffffffffffffffffffffffffff168373ffffffffffffffffffffffffffffffffffffffff160361149f575f6040517f96c6fd1e0000000000000000000000000000000000000000000000000000000081526004016114969190611d47565b60405180910390fd5b5f73ffffffffffffffffffffffffffffffffffffffff168273ffffffffffffffffffffffffffffffffffffffff160361150f575f6040517fec442f050000000000000000000000000000000000000000000000000000000081526004016115069190611d47565b60405180910390fd5b61151a8383836116ac565b505050565b5f808273ffffffffffffffffffffffffffffffffffffffff1663313ce5676040518163ffffffff1660e01b8152600401602060405180830381865afa15801561156a573d5f803e3d5ffd5b505050506040513d601f19601f8201168201806040525081019061158e91906122e4565b90505f81601261159e919061230f565b905080600a6115ad9190612472565b92505050919050565b5f600382111561161b578190505f60016002846115d39190612046565b6115dd91906120d3565b90505b818110156116155780915060028182856115fa9190612046565b61160491906120d3565b61160e9190612046565b90506115e0565b50611628565b5f821461162757600190505b5b919050565b5f73ffffffffffffffffffffffffffffffffffffffff168273ffffffffffffffffffffffffffffffffffffffff160361169d575f6040517fec442f050000000000000000000000000000000000000000000000000000000081526004016116949190611d47565b60405180910390fd5b6116a85f83836116ac565b5050565b5f73ffffffffffffffffffffffffffffffffffffffff168373ffffffffffffffffffffffffffffffffffffffff16036116fc578060025f8282546116f091906120d3565b925050819055506117ca565b5f805f8573ffffffffffffffffffffffffffffffffffffffff1673ffffffffffffffffffffffffffffffffffffffff1681526020019081526020015f2054905081811015611785578381836040517fe450d38c00000000000000000000000000000000000000000000000000000000815260040161177c93929190612106565b60405180910390fd5b8181035f808673ffffffffffffffffffffffffffffffffffffffff1673ffffffffffffffffffffffffffffffffffffffff1681526020019081526020015f2081905550505b5f73ffffffffffffffffffffffffffffffffffffffff168273ffffffffffffffffffffffffffffffffffffffff1603611811578060025f828254039250508190555061185b565b805f808473ffffffffffffffffffffffffffffffffffffffff1673ffffffffffffffffffffffffffffffffffffffff1681526020019081526020015f205f82825401925050819055505b8173ffffffffffffffffffffffffffffffffffffffff168373ffffffffffffffffffffffffffffffffffffffff167fddf252ad1be2c89b69c2b068fc378daa952ba7f163c4a11628f55a4df523b3ef836040516118b89190611d1f565b60405180910390a3505050565b5f73ffffffffffffffffffffffffffffffffffffffff168473ffffffffffffffffffffffffffffffffffffffff1603611935575f6040517fe602df0500000000000000000000000000000000000000000000000000000000815260040161192c9190611d47565b60405180910390fd5b5f73ffffffffffffffffffffffffffffffffffffffff168373ffffffffffffffffffffffffffffffffffffffff16036119a5575f6040517f94280d6200000000000000000000000000000000000000000000000000000000815260040161199c9190611d47565b60405180910390fd5b8160015f8673ffffffffffffffffffffffffffffffffffffffff1673ffffffffffffffffffffffffffffffffffffffff1681526020019081526020015f205f8573ffffffffffffffffffffffffffffffffffffffff1673ffffffffffffffffffffffffffffffffffffffff1681526020019081526020015f20819055508015611a8e578273ffffffffffffffffffffffffffffffffffffffff168473ffffffffffffffffffffffffffffffffffffffff167f8c5be1e5ebec7d5bd14f71427d1e84f3dd0314c0f7b2291e5b200ac8c7c3b92584604051611a859190611d1f565b60405180910390a35b50505050565b5f80fd5b5f819050919050565b611aaa81611a98565b8114611ab4575f80fd5b50565b5f81359050611ac581611aa1565b92915050565b5f73ffffffffffffffffffffffffffffffffffffffff82169050919050565b5f611af482611acb565b9050919050565b611b0481611aea565b8114611b0e575f80fd5b50565b5f81359050611b1f81611afb565b92915050565b5f8060408385031215611b3b57611b3a611a94565b5b5f611b4885828601611ab7565b9250506020611b5985828601611b11565b9150509250929050565b611b6c81611a98565b82525050565b5f604082019050611b855f830185611b63565b611b926020830184611b63565b9392505050565b5f81519050919050565b5f82825260208201905092915050565b8281835e5f83830152505050565b5f601f19601f8301169050919050565b5f611bdb82611b99565b611be58185611ba3565b9350611bf5818560208601611bb3565b611bfe81611bc1565b840191505092915050565b5f6020820190508181035f830152611c218184611bd1565b905092915050565b5f805f60608486031215611c4057611c3f611a94565b5b5f611c4d86828701611b11565b9350506020611c5e86828701611ab7565b9250506040611c6f86828701611ab7565b9150509250925092565b5f606082019050611c8c5f830186611b63565b611c996020830185611b63565b611ca66040830184611b63565b949350505050565b5f8060408385031215611cc457611cc3611a94565b5b5f611cd185828601611b11565b9250506020611ce285828601611ab7565b9150509250929050565b5f8115159050919050565b611d0081611cec565b82525050565b5f602082019050611d195f830184611cf7565b92915050565b5f602082019050611d325f830184611b63565b92915050565b611d4181611aea565b82525050565b5f602082019050611d5a5f830184611d38565b92915050565b5f8060408385031215611d7657611d75611a94565b5b5f611d8385828601611ab7565b9250506020611d9485828601611ab7565b9150509250929050565b5f805f60608486031215611db557611db4611a94565b5b5f611dc286828701611b11565b9350506020611dd386828701611b11565b9250506040611de486828701611ab7565b9150509250925092565b5f60ff82169050919050565b611e0381611dee565b82525050565b5f602082019050611e1c5f830184611dfa565b92915050565b5f60208284031215611e3757611e36611a94565b5b5f611e4484828501611b11565b91505092915050565b5f805f60608486031215611e6457611e63611a94565b5b5f611e7186828701611ab7565b9350506020611e8286828701611ab7565b9250506040611e9386828701611b11565b9150509250925092565b5f8060408385031215611eb357611eb2611a94565b5b5f611ec085828601611b11565b9250506020611ed185828601611b11565b9150509250929050565b7f616d6f756e742067726561746572207468616e207a65726f00000000000000005f82015250565b5f611f0f601883611ba3565b9150611f1a82611edb565b602082019050919050565b5f6020820190508181035f830152611f3c81611f03565b9050919050565b7f666f7262696464656e00000000000000000000000000000000000000000000005f82015250565b5f611f77600983611ba3565b9150611f8282611f43565b602082019050919050565b5f6020820190508181035f830152611fa481611f6b565b9050919050565b7f4e487b71000000000000000000000000000000000000000000000000000000005f52601160045260245ffd5b5f611fe282611a98565b9150611fed83611a98565b9250828202611ffb81611a98565b9150828204841483151761201257612011611fab565b5b5092915050565b7f4e487b71000000000000000000000000000000000000000000000000000000005f52601260045260245ffd5b5f61205082611a98565b915061205b83611a98565b92508261206b5761206a612019565b5b828204905092915050565b7f4e487b71000000000000000000000000000000000000000000000000000000005f52602260045260245ffd5b5f60028204905060018216806120ba57607f821691505b6020821081036120cd576120cc612076565b5b50919050565b5f6120dd82611a98565b91506120e883611a98565b9250828201905080821115612100576120ff611fab565b5b92915050565b5f6060820190506121195f830186611d38565b6121266020830185611b63565b6121336040830184611b63565b949350505050565b5f60408201905061214e5f830185611d38565b61215b6020830184611b63565b9392505050565b61216b81611cec565b8114612175575f80fd5b50565b5f8151905061218681612162565b92915050565b5f602082840312156121a1576121a0611a94565b5b5f6121ae84828501612178565b91505092915050565b5f6121c182611a98565b91506121cc83611a98565b92508282039050818111156121e4576121e3611fab565b5b92915050565b7f6e6f7420656e6f756768206173736574000000000000000000000000000000005f82015250565b5f61221e601083611ba3565b9150612229826121ea565b602082019050919050565b5f6020820190508181035f83015261224b81612212565b9050919050565b7f6e65646420746f20616464206c697100000000000000000000000000000000005f82015250565b5f612286600f83611ba3565b915061229182612252565b602082019050919050565b5f6020820190508181035f8301526122b38161227a565b9050919050565b6122c381611dee565b81146122cd575f80fd5b50565b5f815190506122de816122ba565b92915050565b5f602082840312156122f9576122f8611a94565b5b5f612306848285016122d0565b91505092915050565b5f61231982611dee565b915061232483611dee565b9250828203905060ff81111561233d5761233c611fab565b5b92915050565b5f8160011c9050919050565b5f808291508390505b60018511156123985780860481111561237457612373611fab565b5b60018516156123835780820291505b808102905061239185612343565b9450612358565b94509492505050565b5f826123b0576001905061246b565b816123bd575f905061246b565b81600181146123d357600281146123dd5761240c565b600191505061246b565b60ff8411156123ef576123ee611fab565b5b8360020a91508482111561240657612405611fab565b5b5061246b565b5060208310610133831016604e8410600b84101617156124415782820a90508381111561243c5761243b611fab565b5b61246b565b61244e848484600161234f565b9250905081840481111561246557612464611fab565b5b81810290505b9392505050565b5f61247c82611a98565b915061248783611dee565b92506124b47fffffffffffffffffffffffffffffffffffffffffffffffffffffffffffffffff84846123a1565b90509291505056fea26469706673582212203064cc84699e54d24661ab38272025397258fcc90c6862c888100a09eda5801e64736f6c63430008190033",
			"opcodes": "PUSH1 0x80 PUSH1 0x40 MSTORE CALLVALUE DUP1 ISZERO PUSH2 0xF JUMPI PUSH0 DUP1 REVERT JUMPDEST POP PUSH1 0x40 MLOAD PUSH2 0x2C36 CODESIZE SUB DUP1 PUSH2 0x2C36 DUP4 CODECOPY DUP2 DUP2 ADD PUSH1 0x40 MSTORE DUP2 ADD SWAP1 PUSH2 0x31 SWAP2 SWAP1 PUSH2 0x334 JUMP JUMPDEST DUP2 DUP2 DUP2 PUSH1 0x3 SWAP1 DUP2 PUSH2 0x42 SWAP2 SWAP1 PUSH2 0x5F0 JUMP JUMPDEST POP DUP1 PUSH1 0x4 SWAP1 DUP2 PUSH2 0x52 SWAP2 SWAP1 PUSH2 0x5F0 JUMP JUMPDEST POP POP POP DUP3 PUSH20 0xFFFFFFFFFFFFFFFFFFFFFFFFFFFFFFFFFFFFFFFF AND CALLER PUSH20 0xFFFFFFFFFFFFFFFFFFFFFFFFFFFFFFFFFFFFFFFF AND EQ PUSH2 0xC3 JUMPI PUSH1 0x40 MLOAD PUSH32 0x8C379A000000000000000000000000000000000000000000000000000000000 DUP2 MSTORE PUSH1 0x4 ADD PUSH2 0xBA SWAP1 PUSH2 0x719 JUMP JUMPDEST PUSH1 0x40 MLOAD DUP1 SWAP2 SUB SWAP1 REVERT JUMPDEST DUP5 PUSH1 0x6 PUSH0 PUSH2 0x100 EXP DUP2 SLOAD DUP2 PUSH20 0xFFFFFFFFFFFFFFFFFFFFFFFFFFFFFFFFFFFFFFFF MUL NOT AND SWAP1 DUP4 PUSH20 0xFFFFFFFFFFFFFFFFFFFFFFFFFFFFFFFFFFFFFFFF AND MUL OR SWAP1 SSTORE POP DUP4 PUSH1 0x7 PUSH0 PUSH2 0x100 EXP DUP2 SLOAD DUP2 PUSH20 0xFFFFFFFFFFFFFFFFFFFFFFFFFFFFFFFFFFFFFFFF MUL NOT AND SWAP1 DUP4 PUSH20 0xFFFFFFFFFFFFFFFFFFFFFFFFFFFFFFFFFFFFFFFF AND MUL OR SWAP1 SSTORE POP DUP3 PUSH1 0x5 PUSH0 PUSH2 0x100 EXP DUP2 SLOAD DUP2 PUSH20 0xFFFFFFFFFFFFFFFFFFFFFFFFFFFFFFFFFFFFFFFF MUL NOT AND SWAP1 DUP4 PUSH20 0xFFFFFFFFFFFFFFFFFFFFFFFFFFFFFFFFFFFFFFFF AND MUL OR SWAP1 SSTORE POP POP POP POP POP POP PUSH2 0x737 JUMP JUMPDEST PUSH0 PUSH1 0x40 MLOAD SWAP1 POP SWAP1 JUMP JUMPDEST PUSH0 DUP1 REVERT JUMPDEST PUSH0 DUP1 REVERT JUMPDEST PUSH0 PUSH20 0xFFFFFFFFFFFFFFFFFFFFFFFFFFFFFFFFFFFFFFFF DUP3 AND SWAP1 POP SWAP2 SWAP1 POP JUMP JUMPDEST PUSH0 PUSH2 0x1C7 DUP3 PUSH2 0x19E JUMP JUMPDEST SWAP1 POP SWAP2 SWAP1 POP JUMP JUMPDEST PUSH2 0x1D7 DUP2 PUSH2 0x1BD JUMP JUMPDEST DUP2 EQ PUSH2 0x1E1 JUMPI PUSH0 DUP1 REVERT JUMPDEST POP JUMP JUMPDEST PUSH0 DUP2 MLOAD SWAP1 POP PUSH2 0x1F2 DUP2 PUSH2 0x1CE JUMP JUMPDEST SWAP3 SWAP2 POP POP JUMP JUMPDEST PUSH0 DUP1 REVERT JUMPDEST PUSH0 DUP1 REVERT JUMPDEST PUSH0 PUSH1 0x1F NOT PUSH1 0x1F DUP4 ADD AND SWAP1 POP SWAP2 SWAP1 POP JUMP JUMPDEST PUSH32 0x4E487B7100000000000000000000000000000000000000000000000000000000 PUSH0 MSTORE PUSH1 0x41 PUSH1 0x4 MSTORE PUSH1 0x24 PUSH0 REVERT JUMPDEST PUSH2 0x246 DUP3 PUSH2 0x200 JUMP JUMPDEST DUP2 ADD DUP2 DUP2 LT PUSH8 0xFFFFFFFFFFFFFFFF DUP3 GT OR ISZERO PUSH2 0x265 JUMPI PUSH2 0x264 PUSH2 0x210 JUMP JUMPDEST JUMPDEST DUP1 PUSH1 0x40 MSTORE POP POP POP JUMP JUMPDEST PUSH0 PUSH2 0x277 PUSH2 0x18D JUMP JUMPDEST SWAP1 POP PUSH2 0x283 DUP3 DUP3 PUSH2 0x23D JUMP JUMPDEST SWAP2 SWAP1 POP JUMP JUMPDEST PUSH0 PUSH8 0xFFFFFFFFFFFFFFFF DUP3 GT ISZERO PUSH2 0x2A2 JUMPI PUSH2 0x2A1 PUSH2 0x210 JUMP JUMPDEST JUMPDEST PUSH2 0x2AB DUP3 PUSH2 0x200 JUMP JUMPDEST SWAP1 POP PUSH1 0x20 DUP2 ADD SWAP1 POP SWAP2 SWAP1 POP JUMP JUMPDEST DUP3 DUP2 DUP4 MCOPY PUSH0 DUP4 DUP4 ADD MSTORE POP POP POP JUMP JUMPDEST PUSH0 PUSH2 0x2D8 PUSH2 0x2D3 DUP5 PUSH2 0x288 JUMP JUMPDEST PUSH2 0x26E JUMP JUMPDEST SWAP1 POP DUP3 DUP2 MSTORE PUSH1 0x20 DUP2 ADD DUP5 DUP5 DUP5 ADD GT ISZERO PUSH2 0x2F4 JUMPI PUSH2 0x2F3 PUSH2 0x1FC JUMP JUMPDEST JUMPDEST PUSH2 0x2FF DUP5 DUP3 DUP6 PUSH2 0x2B8 JUMP JUMPDEST POP SWAP4 SWAP3 POP POP POP JUMP JUMPDEST PUSH0 DUP3 PUSH1 0x1F DUP4 ADD SLT PUSH2 0x31B JUMPI PUSH2 0x31A PUSH2 0x1F8 JUMP JUMPDEST JUMPDEST DUP2 MLOAD PUSH2 0x32B DUP5 DUP3 PUSH1 0x20 DUP7 ADD PUSH2 0x2C6 JUMP JUMPDEST SWAP2 POP POP SWAP3 SWAP2 POP POP JUMP JUMPDEST PUSH0 DUP1 PUSH0 DUP1 PUSH0 PUSH1 0xA0 DUP7 DUP9 SUB SLT ISZERO PUSH2 0x34D JUMPI PUSH2 0x34C PUSH2 0x196 JUMP JUMPDEST JUMPDEST PUSH0 PUSH2 0x35A DUP9 DUP3 DUP10 ADD PUSH2 0x1E4 JUMP JUMPDEST SWAP6 POP POP PUSH1 0x20 PUSH2 0x36B DUP9 DUP3 DUP10 ADD PUSH2 0x1E4 JUMP JUMPDEST SWAP5 POP POP PUSH1 0x40 PUSH2 0x37C DUP9 DUP3 DUP10 ADD PUSH2 0x1E4 JUMP JUMPDEST SWAP4 POP POP PUSH1 0x60 DUP7 ADD MLOAD PUSH8 0xFFFFFFFFFFFFFFFF DUP2 GT ISZERO PUSH2 0x39D JUMPI PUSH2 0x39C PUSH2 0x19A JUMP JUMPDEST JUMPDEST PUSH2 0x3A9 DUP9 DUP3 DUP10 ADD PUSH2 0x307 JUMP JUMPDEST SWAP3 POP POP PUSH1 0x80 DUP7 ADD MLOAD PUSH8 0xFFFFFFFFFFFFFFFF DUP2 GT ISZERO PUSH2 0x3CA JUMPI PUSH2 0x3C9 PUSH2 0x19A JUMP JUMPDEST JUMPDEST PUSH2 0x3D6 DUP9 DUP3 DUP10 ADD PUSH2 0x307 JUMP JUMPDEST SWAP2 POP POP SWAP3 SWAP6 POP SWAP3 SWAP6 SWAP1 SWAP4 POP JUMP JUMPDEST PUSH0 DUP2 MLOAD SWAP1 POP SWAP2 SWAP1 POP JUMP JUMPDEST PUSH32 0x4E487B7100000000000000000000000000000000000000000000000000000000 PUSH0 MSTORE PUSH1 0x22 PUSH1 0x4 MSTORE PUSH1 0x24 PUSH0 REVERT JUMPDEST PUSH0 PUSH1 0x2 DUP3 DIV SWAP1 POP PUSH1 0x1 DUP3 AND DUP1 PUSH2 0x431 JUMPI PUSH1 0x7F DUP3 AND SWAP2 POP JUMPDEST PUSH1 0x20 DUP3 LT DUP2 SUB PUSH2 0x444 JUMPI PUSH2 0x443 PUSH2 0x3ED JUMP JUMPDEST JUMPDEST POP SWAP2 SWAP1 POP JUMP JUMPDEST PUSH0 DUP2 SWAP1 POP DUP2 PUSH0 MSTORE PUSH1 0x20 PUSH0 KECCAK256 SWAP1 POP SWAP2 SWAP1 POP JUMP JUMPDEST PUSH0 PUSH1 0x20 PUSH1 0x1F DUP4 ADD DIV SWAP1 POP SWAP2 SWAP1 POP JUMP JUMPDEST PUSH0 DUP3 DUP3 SHL SWAP1 POP SWAP3 SWAP2 POP POP JUMP JUMPDEST PUSH0 PUSH1 0x8 DUP4 MUL PUSH2 0x4A6 PUSH32 0xFFFFFFFFFFFFFFFFFFFFFFFFFFFFFFFFFFFFFFFFFFFFFFFFFFFFFFFFFFFFFFFF DUP3 PUSH2 0x46B JUMP JUMPDEST PUSH2 0x4B0 DUP7 DUP4 PUSH2 0x46B JUMP JUMPDEST SWAP6 POP DUP1 NOT DUP5 AND SWAP4 POP DUP1 DUP7 AND DUP5 OR SWAP3 POP POP POP SWAP4 SWAP3 POP POP POP JUMP JUMPDEST PUSH0 DUP2 SWAP1 POP SWAP2 SWAP1 POP JUMP JUMPDEST PUSH0 DUP2 SWAP1 POP SWAP2 SWAP1 POP JUMP JUMPDEST PUSH0 PUSH2 0x4F4 PUSH2 0x4EF PUSH2 0x4EA DUP5 PUSH2 0x4C8 JUMP JUMPDEST PUSH2 0x4D1 JUMP JUMPDEST PUSH2 0x4C8 JUMP JUMPDEST SWAP1 POP SWAP2 SWAP1 POP JUMP JUMPDEST PUSH0 DUP2 SWAP1 POP SWAP2 SWAP1 POP JUMP JUMPDEST PUSH2 0x50D DUP4 PUSH2 0x4DA JUMP JUMPDEST PUSH2 0x521 PUSH2 0x519 DUP3 PUSH2 0x4FB JUMP JUMPDEST DUP5 DUP5 SLOAD PUSH2 0x477 JUMP JUMPDEST DUP3 SSTORE POP POP POP POP JUMP JUMPDEST PUSH0 SWAP1 JUMP JUMPDEST PUSH2 0x535 PUSH2 0x529 JUMP JUMPDEST PUSH2 0x540 DUP2 DUP5 DUP5 PUSH2 0x504 JUMP JUMPDEST POP POP POP JUMP JUMPDEST JUMPDEST DUP2 DUP2 LT ISZERO PUSH2 0x563 JUMPI PUSH2 0x558 PUSH0 DUP3 PUSH2 0x52D JUMP JUMPDEST PUSH1 0x1 DUP2 ADD SWAP1 POP PUSH2 0x546 JUMP JUMPDEST POP POP JUMP JUMPDEST PUSH1 0x1F DUP3 GT ISZERO PUSH2 0x5A8 JUMPI PUSH2 0x579 DUP2 PUSH2 0x44A JUMP JUMPDEST PUSH2 0x582 DUP5 PUSH2 0x45C JUMP JUMPDEST DUP2 ADD PUSH1 0x20 DUP6 LT ISZERO PUSH2 0x591 JUMPI DUP2 SWAP1 POP JUMPDEST PUSH2 0x5A5 PUSH2 0x59D DUP6 PUSH2 0x45C JUMP JUMPDEST DUP4 ADD DUP3 PUSH2 0x545 JUMP JUMPDEST POP POP JUMPDEST POP POP POP JUMP JUMPDEST PUSH0 DUP3 DUP3 SHR SWAP1 POP SWAP3 SWAP2 POP POP JUMP JUMPDEST PUSH0 PUSH2 0x5C8 PUSH0 NOT DUP5 PUSH1 0x8 MUL PUSH2 0x5AD JUMP JUMPDEST NOT DUP1 DUP4 AND SWAP2 POP POP SWAP3 SWAP2 POP POP JUMP JUMPDEST PUSH0 PUSH2 0x5E0 DUP4 DUP4 PUSH2 0x5B9 JUMP JUMPDEST SWAP2 POP DUP3 PUSH1 0x2 MUL DUP3 OR SWAP1 POP SWAP3 SWAP2 POP POP JUMP JUMPDEST PUSH2 0x5F9 DUP3 PUSH2 0x3E3 JUMP JUMPDEST PUSH8 0xFFFFFFFFFFFFFFFF DUP2 GT ISZERO PUSH2 0x612 JUMPI PUSH2 0x611 PUSH2 0x210 JUMP JUMPDEST JUMPDEST PUSH2 0x61C DUP3 SLOAD PUSH2 0x41A JUMP JUMPDEST PUSH2 0x627 DUP3 DUP3 DUP6 PUSH2 0x567 JUMP JUMPDEST PUSH0 PUSH1 0x20 SWAP1 POP PUSH1 0x1F DUP4 GT PUSH1 0x1 DUP2 EQ PUSH2 0x658 JUMPI PUSH0 DUP5 ISZERO PUSH2 0x646 JUMPI DUP3 DUP8 ADD MLOAD SWAP1 POP JUMPDEST PUSH2 0x650 DUP6 DUP3 PUSH2 0x5D5 JUMP JUMPDEST DUP7 SSTORE POP PUSH2 0x6B7 JUMP JUMPDEST PUSH1 0x1F NOT DUP5 AND PUSH2 0x666 DUP7 PUSH2 0x44A JUMP JUMPDEST PUSH0 JUMPDEST DUP3 DUP2 LT ISZERO PUSH2 0x68D JUMPI DUP5 DUP10 ADD MLOAD DUP3 SSTORE PUSH1 0x1 DUP3 ADD SWAP2 POP PUSH1 0x20 DUP6 ADD SWAP5 POP PUSH1 0x20 DUP2 ADD SWAP1 POP PUSH2 0x668 JUMP JUMPDEST DUP7 DUP4 LT ISZERO PUSH2 0x6AA JUMPI DUP5 DUP10 ADD MLOAD PUSH2 0x6A6 PUSH1 0x1F DUP10 AND DUP3 PUSH2 0x5B9 JUMP JUMPDEST DUP4 SSTORE POP JUMPDEST PUSH1 0x1 PUSH1 0x2 DUP9 MUL ADD DUP9 SSTORE POP POP POP JUMPDEST POP POP POP POP POP POP JUMP JUMPDEST PUSH0 DUP3 DUP3 MSTORE PUSH1 0x20 DUP3 ADD SWAP1 POP SWAP3 SWAP2 POP POP JUMP JUMPDEST PUSH32 0x464F5242494444454E0000000000000000000000000000000000000000000000 PUSH0 DUP3 ADD MSTORE POP JUMP JUMPDEST PUSH0 PUSH2 0x703 PUSH1 0x9 DUP4 PUSH2 0x6BF JUMP JUMPDEST SWAP2 POP PUSH2 0x70E DUP3 PUSH2 0x6CF JUMP JUMPDEST PUSH1 0x20 DUP3 ADD SWAP1 POP SWAP2 SWAP1 POP JUMP JUMPDEST PUSH0 PUSH1 0x20 DUP3 ADD SWAP1 POP DUP2 DUP2 SUB PUSH0 DUP4 ADD MSTORE PUSH2 0x730 DUP2 PUSH2 0x6F7 JUMP JUMPDEST SWAP1 POP SWAP2 SWAP1 POP JUMP JUMPDEST PUSH2 0x24F2 DUP1 PUSH2 0x744 PUSH0 CODECOPY PUSH0 RETURN INVALID PUSH1 0x80 PUSH1 0x40 MSTORE CALLVALUE DUP1 ISZERO PUSH2 0xF JUMPI PUSH0 DUP1 REVERT JUMPDEST POP PUSH1 0x4 CALLDATASIZE LT PUSH2 0x13F JUMPI PUSH0 CALLDATALOAD PUSH1 0xE0 SHR DUP1 PUSH4 0x3827EBAA GT PUSH2 0xB6 JUMPI DUP1 PUSH4 0x95D89B41 GT PUSH2 0x7A JUMPI DUP1 PUSH4 0x95D89B41 EQ PUSH2 0x364 JUMPI DUP1 PUSH4 0xA7533D04 EQ PUSH2 0x382 JUMPI DUP1 PUSH4 0xA9059CBB EQ PUSH2 0x39E JUMPI DUP1 PUSH4 0xC5CC6B6A EQ PUSH2 0x3CE JUMPI DUP1 PUSH4 0xD21220A7 EQ PUSH2 0x3EC JUMPI DUP1 PUSH4 0xDD62ED3E EQ PUSH2 0x40A JUMPI PUSH2 0x13F JUMP JUMPDEST DUP1 PUSH4 0x3827EBAA EQ PUSH2 0x2C2 JUMPI DUP1 PUSH4 0x53DABF40 EQ PUSH2 0x2E0 JUMPI DUP1 PUSH4 0x69865DEB EQ PUSH2 0x2FC JUMPI DUP1 PUSH4 0x70A08231 EQ PUSH2 0x318 JUMPI DUP1 PUSH4 0x8DBDBE6D EQ PUSH2 0x348 JUMPI PUSH2 0x13F JUMP JUMPDEST DUP1 PUSH4 0xD293D3B GT PUSH2 0x108 JUMPI DUP1 PUSH4 0xD293D3B EQ PUSH2 0x1FE JUMPI DUP1 PUSH4 0xDFE1681 EQ PUSH2 0x21C JUMPI DUP1 PUSH4 0x18160DDD EQ PUSH2 0x23A JUMPI DUP1 PUSH4 0x22817769 EQ PUSH2 0x258 JUMPI DUP1 PUSH4 0x23B872DD EQ PUSH2 0x274 JUMPI DUP1 PUSH4 0x313CE567 EQ PUSH2 0x2A4 JUMPI PUSH2 0x13F JUMP JUMPDEST DUP1 PUSH3 0xF714CE EQ PUSH2 0x143 JUMPI DUP1 PUSH4 0x6FDDE03 EQ PUSH2 0x174 JUMPI DUP1 PUSH4 0x7AA9486 EQ PUSH2 0x192 JUMPI DUP1 PUSH4 0x902F1AC EQ PUSH2 0x1AE JUMPI DUP1 PUSH4 0x95EA7B3 EQ PUSH2 0x1CE JUMPI JUMPDEST PUSH0 DUP1 REVERT JUMPDEST PUSH2 0x15D PUSH1 0x4 DUP1 CALLDATASIZE SUB DUP2 ADD SWAP1 PUSH2 0x158 SWAP2 SWAP1 PUSH2 0x1B25 JUMP JUMPDEST PUSH2 0x43A JUMP JUMPDEST PUSH1 0x40 MLOAD PUSH2 0x16B SWAP3 SWAP2 SWAP1 PUSH2 0x1B72 JUMP JUMPDEST PUSH1 0x40 MLOAD DUP1 SWAP2 SUB SWAP1 RETURN JUMPDEST PUSH2 0x17C PUSH2 0x5B0 JUMP JUMPDEST PUSH1 0x40 MLOAD PUSH2 0x189 SWAP2 SWAP1 PUSH2 0x1C09 JUMP JUMPDEST PUSH1 0x40 MLOAD DUP1 SWAP2 SUB SWAP1 RETURN JUMPDEST PUSH2 0x1AC PUSH1 0x4 DUP1 CALLDATASIZE SUB DUP2 ADD SWAP1 PUSH2 0x1A7 SWAP2 SWAP1 PUSH2 0x1C29 JUMP JUMPDEST PUSH2 0x640 JUMP JUMPDEST STOP JUMPDEST PUSH2 0x1B6 PUSH2 0x813 JUMP JUMPDEST PUSH1 0x40 MLOAD PUSH2 0x1C5 SWAP4 SWAP3 SWAP2 SWAP1 PUSH2 0x1C79 JUMP JUMPDEST PUSH1 0x40 MLOAD DUP1 SWAP2 SUB SWAP1 RETURN JUMPDEST PUSH2 0x1E8 PUSH1 0x4 DUP1 CALLDATASIZE SUB DUP2 ADD SWAP1 PUSH2 0x1E3 SWAP2 SWAP1 PUSH2 0x1CAE JUMP JUMPDEST PUSH2 0x82A JUMP JUMPDEST PUSH1 0x40 MLOAD PUSH2 0x1F5 SWAP2 SWAP1 PUSH2 0x1D06 JUMP JUMPDEST PUSH1 0x40 MLOAD DUP1 SWAP2 SUB SWAP1 RETURN JUMPDEST PUSH2 0x206 PUSH2 0x84C JUMP JUMPDEST PUSH1 0x40 MLOAD PUSH2 0x213 SWAP2 SWAP1 PUSH2 0x1D1F JUMP JUMPDEST PUSH1 0x40 MLOAD DUP1 SWAP2 SUB SWAP1 RETURN JUMPDEST PUSH2 0x224 PUSH2 0x852 JUMP JUMPDEST PUSH1 0x40 MLOAD PUSH2 0x231 SWAP2 SWAP1 PUSH2 0x1D47 JUMP JUMPDEST PUSH1 0x40 MLOAD DUP1 SWAP2 SUB SWAP1 RETURN JUMPDEST PUSH2 0x242 PUSH2 0x877 JUMP JUMPDEST PUSH1 0x40 MLOAD PUSH2 0x24F SWAP2 SWAP1 PUSH2 0x1D1F JUMP JUMPDEST PUSH1 0x40 MLOAD DUP1 SWAP2 SUB SWAP1 RETURN JUMPDEST PUSH2 0x272 PUSH1 0x4 DUP1 CALLDATASIZE SUB DUP2 ADD SWAP1 PUSH2 0x26D SWAP2 SWAP1 PUSH2 0x1D60 JUMP JUMPDEST PUSH2 0x880 JUMP JUMPDEST STOP JUMPDEST PUSH2 0x28E PUSH1 0x4 DUP1 CALLDATASIZE SUB DUP2 ADD SWAP1 PUSH2 0x289 SWAP2 SWAP1 PUSH2 0x1D9E JUMP JUMPDEST PUSH2 0xA8F JUMP JUMPDEST PUSH1 0x40 MLOAD PUSH2 0x29B SWAP2 SWAP1 PUSH2 0x1D06 JUMP JUMPDEST PUSH1 0x40 MLOAD DUP1 SWAP2 SUB SWAP1 RETURN JUMPDEST PUSH2 0x2AC PUSH2 0xABD JUMP JUMPDEST PUSH1 0x40 MLOAD PUSH2 0x2B9 SWAP2 SWAP1 PUSH2 0x1E09 JUMP JUMPDEST PUSH1 0x40 MLOAD DUP1 SWAP2 SUB SWAP1 RETURN JUMPDEST PUSH2 0x2CA PUSH2 0xAC5 JUMP JUMPDEST PUSH1 0x40 MLOAD PUSH2 0x2D7 SWAP2 SWAP1 PUSH2 0x1D1F JUMP JUMPDEST PUSH1 0x40 MLOAD DUP1 SWAP2 SUB SWAP1 RETURN JUMPDEST PUSH2 0x2FA PUSH1 0x4 DUP1 CALLDATASIZE SUB DUP2 ADD SWAP1 PUSH2 0x2F5 SWAP2 SWAP1 PUSH2 0x1C29 JUMP JUMPDEST PUSH2 0xACB JUMP JUMPDEST STOP JUMPDEST PUSH2 0x316 PUSH1 0x4 DUP1 CALLDATASIZE SUB DUP2 ADD SWAP1 PUSH2 0x311 SWAP2 SWAP1 PUSH2 0x1CAE JUMP JUMPDEST PUSH2 0xCB9 JUMP JUMPDEST STOP JUMPDEST PUSH2 0x332 PUSH1 0x4 DUP1 CALLDATASIZE SUB DUP2 ADD SWAP1 PUSH2 0x32D SWAP2 SWAP1 PUSH2 0x1E22 JUMP JUMPDEST PUSH2 0xDE9 JUMP JUMPDEST PUSH1 0x40 MLOAD PUSH2 0x33F SWAP2 SWAP1 PUSH2 0x1D1F JUMP JUMPDEST PUSH1 0x40 MLOAD DUP1 SWAP2 SUB SWAP1 RETURN JUMPDEST PUSH2 0x362 PUSH1 0x4 DUP1 CALLDATASIZE SUB DUP2 ADD SWAP1 PUSH2 0x35D SWAP2 SWAP1 PUSH2 0x1E4D JUMP JUMPDEST PUSH2 0xE2E JUMP JUMPDEST STOP JUMPDEST PUSH2 0x36C PUSH2 0xF99 JUMP JUMPDEST PUSH1 0x40 MLOAD PUSH2 0x379 SWAP2 SWAP1 PUSH2 0x1C09 JUMP JUMPDEST PUSH1 0x40 MLOAD DUP1 SWAP2 SUB SWAP1 RETURN JUMPDEST PUSH2 0x39C PUSH1 0x4 DUP1 CALLDATASIZE SUB DUP2 ADD SWAP1 PUSH2 0x397 SWAP2 SWAP1 PUSH2 0x1C29 JUMP JUMPDEST PUSH2 0x1029 JUMP JUMPDEST STOP JUMPDEST PUSH2 0x3B8 PUSH1 0x4 DUP1 CALLDATASIZE SUB DUP2 ADD SWAP1 PUSH2 0x3B3 SWAP2 SWAP1 PUSH2 0x1CAE JUMP JUMPDEST PUSH2 0x1217 JUMP JUMPDEST PUSH1 0x40 MLOAD PUSH2 0x3C5 SWAP2 SWAP1 PUSH2 0x1D06 JUMP JUMPDEST PUSH1 0x40 MLOAD DUP1 SWAP2 SUB SWAP1 RETURN JUMPDEST PUSH2 0x3D6 PUSH2 0x1239 JUMP JUMPDEST PUSH1 0x40 MLOAD PUSH2 0x3E3 SWAP2 SWAP1 PUSH2 0x1D47 JUMP JUMPDEST PUSH1 0x40 MLOAD DUP1 SWAP2 SUB SWAP1 RETURN JUMPDEST PUSH2 0x3F4 PUSH2 0x125E JUMP JUMPDEST PUSH1 0x40 MLOAD PUSH2 0x401 SWAP2 SWAP1 PUSH2 0x1D47 JUMP JUMPDEST PUSH1 0x40 MLOAD DUP1 SWAP2 SUB SWAP1 RETURN JUMPDEST PUSH2 0x424 PUSH1 0x4 DUP1 CALLDATASIZE SUB DUP2 ADD SWAP1 PUSH2 0x41F SWAP2 SWAP1 PUSH2 0x1E9D JUMP JUMPDEST PUSH2 0x1283 JUMP JUMPDEST PUSH1 0x40 MLOAD PUSH2 0x431 SWAP2 SWAP1 PUSH2 0x1D1F JUMP JUMPDEST PUSH1 0x40 MLOAD DUP1 SWAP2 SUB SWAP1 RETURN JUMPDEST PUSH0 DUP1 PUSH0 DUP5 GT PUSH2 0x47E JUMPI PUSH1 0x40 MLOAD PUSH32 0x8C379A000000000000000000000000000000000000000000000000000000000 DUP2 MSTORE PUSH1 0x4 ADD PUSH2 0x475 SWAP1 PUSH2 0x1F25 JUMP JUMPDEST PUSH1 0x40 MLOAD DUP1 SWAP2 SUB SWAP1 REVERT JUMPDEST PUSH1 0x5 PUSH0 SWAP1 SLOAD SWAP1 PUSH2 0x100 EXP SWAP1 DIV PUSH20 0xFFFFFFFFFFFFFFFFFFFFFFFFFFFFFFFFFFFFFFFF AND PUSH20 0xFFFFFFFFFFFFFFFFFFFFFFFFFFFFFFFFFFFFFFFF AND CALLER PUSH20 0xFFFFFFFFFFFFFFFFFFFFFFFFFFFFFFFFFFFFFFFF AND EQ PUSH2 0x50D JUMPI PUSH1 0x40 MLOAD PUSH32 0x8C379A000000000000000000000000000000000000000000000000000000000 DUP2 MSTORE PUSH1 0x4 ADD PUSH2 0x504 SWAP1 PUSH2 0x1F8D JUMP JUMPDEST PUSH1 0x40 MLOAD DUP1 SWAP2 SUB SWAP1 REVERT JUMPDEST PUSH0 PUSH2 0x516 PUSH2 0x877 JUMP JUMPDEST SWAP1 POP PUSH0 DUP2 PUSH11 0x84595161401484A000000 DUP8 PUSH2 0x531 SWAP2 SWAP1 PUSH2 0x1FD8 JUMP JUMPDEST PUSH2 0x53B SWAP2 SWAP1 PUSH2 0x2046 JUMP JUMPDEST SWAP1 POP PUSH0 PUSH1 0x8 SLOAD SWAP1 POP PUSH0 PUSH1 0x9 SLOAD SWAP1 POP PUSH0 PUSH11 0x84595161401484A000000 DUP5 DUP5 PUSH2 0x562 SWAP2 SWAP1 PUSH2 0x1FD8 JUMP JUMPDEST PUSH2 0x56C SWAP2 SWAP1 PUSH2 0x2046 JUMP JUMPDEST SWAP1 POP PUSH0 PUSH11 0x84595161401484A000000 DUP6 DUP5 PUSH2 0x587 SWAP2 SWAP1 PUSH2 0x1FD8 JUMP JUMPDEST PUSH2 0x591 SWAP2 SWAP1 PUSH2 0x2046 JUMP JUMPDEST SWAP1 POP PUSH2 0x59D DUP10 DUP12 PUSH2 0x1305 JUMP JUMPDEST DUP2 DUP2 SWAP8 POP SWAP8 POP POP POP POP POP POP POP SWAP3 POP SWAP3 SWAP1 POP JUMP JUMPDEST PUSH1 0x60 PUSH1 0x3 DUP1 SLOAD PUSH2 0x5BF SWAP1 PUSH2 0x20A3 JUMP JUMPDEST DUP1 PUSH1 0x1F ADD PUSH1 0x20 DUP1 SWAP2 DIV MUL PUSH1 0x20 ADD PUSH1 0x40 MLOAD SWAP1 DUP2 ADD PUSH1 0x40 MSTORE DUP1 SWAP3 SWAP2 SWAP1 DUP2 DUP2 MSTORE PUSH1 0x20 ADD DUP3 DUP1 SLOAD PUSH2 0x5EB SWAP1 PUSH2 0x20A3 JUMP JUMPDEST DUP1 ISZERO PUSH2 0x636 JUMPI DUP1 PUSH1 0x1F LT PUSH2 0x60D JUMPI PUSH2 0x100 DUP1 DUP4 SLOAD DIV MUL DUP4 MSTORE SWAP2 PUSH1 0x20 ADD SWAP2 PUSH2 0x636 JUMP JUMPDEST DUP3 ADD SWAP2 SWAP1 PUSH0 MSTORE PUSH1 0x20 PUSH0 KECCAK256 SWAP1 JUMPDEST DUP2 SLOAD DUP2 MSTORE SWAP1 PUSH1 0x1 ADD SWAP1 PUSH1 0x20 ADD DUP1 DUP4 GT PUSH2 0x619 JUMPI DUP3 SWAP1 SUB PUSH1 0x1F AND DUP3 ADD SWAP2 JUMPDEST POP POP POP POP POP SWAP1 POP SWAP1 JUMP JUMPDEST PUSH1 0x5 PUSH0 SWAP1 SLOAD SWAP1 PUSH2 0x100 EXP SWAP1 DIV PUSH20 0xFFFFFFFFFFFFFFFFFFFFFFFFFFFFFFFFFFFFFFFF AND PUSH20 0xFFFFFFFFFFFFFFFFFFFFFFFFFFFFFFFFFFFFFFFF AND CALLER PUSH20 0xFFFFFFFFFFFFFFFFFFFFFFFFFFFFFFFFFFFFFFFF AND EQ PUSH2 0x6CF JUMPI PUSH1 0x40 MLOAD PUSH32 0x8C379A000000000000000000000000000000000000000000000000000000000 DUP2 MSTORE PUSH1 0x4 ADD PUSH2 0x6C6 SWAP1 PUSH2 0x1F8D JUMP JUMPDEST PUSH1 0x40 MLOAD DUP1 SWAP2 SUB SWAP1 REVERT JUMPDEST PUSH1 0x6 PUSH0 SWAP1 SLOAD SWAP1 PUSH2 0x100 EXP SWAP1 DIV PUSH20 0xFFFFFFFFFFFFFFFFFFFFFFFFFFFFFFFFFFFFFFFF AND PUSH20 0xFFFFFFFFFFFFFFFFFFFFFFFFFFFFFFFFFFFFFFFF AND DUP4 PUSH20 0xFFFFFFFFFFFFFFFFFFFFFFFFFFFFFFFFFFFFFFFF AND SUB PUSH2 0x797 JUMPI DUP2 PUSH1 0x8 PUSH0 DUP3 DUP3 SLOAD PUSH2 0x734 SWAP2 SWAP1 PUSH2 0x20D3 JUMP JUMPDEST SWAP3 POP POP DUP2 SWAP1 SSTORE POP DUP1 PUSH1 0x9 PUSH0 DUP3 DUP3 SLOAD PUSH2 0x74C SWAP2 SWAP1 PUSH2 0x20D3 JUMP JUMPDEST SWAP3 POP POP DUP2 SWAP1 SSTORE POP PUSH32 0x47A0F291B7D5C7D992B467D24BB7350C2FDE51FAFC5E867DF69D34A7FF2208F4 ADDRESS PUSH1 0x8 SLOAD PUSH1 0x9 SLOAD PUSH1 0x40 MLOAD PUSH2 0x78A SWAP4 SWAP3 SWAP2 SWAP1 PUSH2 0x2106 JUMP JUMPDEST PUSH1 0x40 MLOAD DUP1 SWAP2 SUB SWAP1 LOG1 PUSH2 0x7C8 JUMP JUMPDEST DUP1 PUSH1 0x8 PUSH0 DUP3 DUP3 SLOAD PUSH2 0x7A8 SWAP2 SWAP1 PUSH2 0x20D3 JUMP JUMPDEST SWAP3 POP POP DUP2 SWAP1 SSTORE POP DUP2 PUSH1 0x9 PUSH0 DUP3 DUP3 SLOAD PUSH2 0x7C0 SWAP2 SWAP1 PUSH2 0x20D3 JUMP JUMPDEST SWAP3 POP POP DUP2 SWAP1 SSTORE POP JUMPDEST TIMESTAMP PUSH1 0xA DUP2 SWAP1 SSTORE POP PUSH32 0x47A0F291B7D5C7D992B467D24BB7350C2FDE51FAFC5E867DF69D34A7FF2208F4 ADDRESS PUSH1 0x8 SLOAD PUSH1 0x9 SLOAD PUSH1 0x40 MLOAD PUSH2 0x806 SWAP4 SWAP3 SWAP2 SWAP1 PUSH2 0x2106 JUMP JUMPDEST PUSH1 0x40 MLOAD DUP1 SWAP2 SUB SWAP1 LOG1 POP POP POP JUMP JUMPDEST PUSH0 DUP1 PUSH0 PUSH1 0x8 SLOAD SWAP3 POP PUSH1 0x9 SLOAD SWAP2 POP PUSH1 0xA SLOAD SWAP1 POP SWAP1 SWAP2 SWAP3 JUMP JUMPDEST PUSH0 DUP1 PUSH2 0x834 PUSH2 0x1384 JUMP JUMPDEST SWAP1 POP PUSH2 0x841 DUP2 DUP6 DUP6 PUSH2 0x138B JUMP JUMPDEST PUSH1 0x1 SWAP2 POP POP SWAP3 SWAP2 POP POP JUMP JUMPDEST PUSH1 0x8 SLOAD DUP2 JUMP JUMPDEST PUSH1 0x6 PUSH0 SWAP1 SLOAD SWAP1 PUSH2 0x100 EXP SWAP1 DIV PUSH20 0xFFFFFFFFFFFFFFFFFFFFFFFFFFFFFFFFFFFFFFFF AND DUP2 JUMP JUMPDEST PUSH0 PUSH1 0x2 SLOAD SWAP1 POP SWAP1 JUMP JUMPDEST PUSH1 0x5 PUSH0 SWAP1 SLOAD SWAP1 PUSH2 0x100 EXP SWAP1 DIV PUSH20 0xFFFFFFFFFFFFFFFFFFFFFFFFFFFFFFFFFFFFFFFF AND PUSH20 0xFFFFFFFFFFFFFFFFFFFFFFFFFFFFFFFFFFFFFFFF AND CALLER PUSH20 0xFFFFFFFFFFFFFFFFFFFFFFFFFFFFFFFFFFFFFFFF AND EQ PUSH2 0x90F JUMPI PUSH1 0x40 MLOAD PUSH32 0x8C379A000000000000000000000000000000000000000000000000000000000 DUP2 MSTORE PUSH1 0x4 ADD PUSH2 0x906 SWAP1 PUSH2 0x1F8D JUMP JUMPDEST PUSH1 0x40 MLOAD DUP1 SWAP2 SUB SWAP1 REVERT JUMPDEST PUSH1 0x6 PUSH0 SWAP1 SLOAD SWAP1 PUSH2 0x100 EXP SWAP1 DIV PUSH20 0xFFFFFFFFFFFFFFFFFFFFFFFFFFFFFFFFFFFFFFFF AND PUSH20 0xFFFFFFFFFFFFFFFFFFFFFFFFFFFFFFFFFFFFFFFF AND PUSH4 0x95EA7B3 PUSH1 0x5 PUSH0 SWAP1 SLOAD SWAP1 PUSH2 0x100 EXP SWAP1 DIV PUSH20 0xFFFFFFFFFFFFFFFFFFFFFFFFFFFFFFFFFFFFFFFF AND DUP5 PUSH1 0x40 MLOAD DUP4 PUSH4 0xFFFFFFFF AND PUSH1 0xE0 SHL DUP2 MSTORE PUSH1 0x4 ADD PUSH2 0x98C SWAP3 SWAP2 SWAP1 PUSH2 0x213B JUMP JUMPDEST PUSH1 0x20 PUSH1 0x40 MLOAD DUP1 DUP4 SUB DUP2 PUSH0 DUP8 GAS CALL ISZERO DUP1 ISZERO PUSH2 0x9A8 JUMPI RETURNDATASIZE PUSH0 DUP1 RETURNDATACOPY RETURNDATASIZE PUSH0 REVERT JUMPDEST POP POP POP POP PUSH1 0x40 MLOAD RETURNDATASIZE PUSH1 0x1F NOT PUSH1 0x1F DUP3 ADD AND DUP3 ADD DUP1 PUSH1 0x40 MSTORE POP DUP2 ADD SWAP1 PUSH2 0x9CC SWAP2 SWAP1 PUSH2 0x218C JUMP JUMPDEST POP PUSH1 0x7 PUSH0 SWAP1 SLOAD SWAP1 PUSH2 0x100 EXP SWAP1 DIV PUSH20 0xFFFFFFFFFFFFFFFFFFFFFFFFFFFFFFFFFFFFFFFF AND PUSH20 0xFFFFFFFFFFFFFFFFFFFFFFFFFFFFFFFFFFFFFFFF AND PUSH4 0x95EA7B3 PUSH1 0x5 PUSH0 SWAP1 SLOAD SWAP1 PUSH2 0x100 EXP SWAP1 DIV PUSH20 0xFFFFFFFFFFFFFFFFFFFFFFFFFFFFFFFFFFFFFFFF AND DUP4 PUSH1 0x40 MLOAD DUP4 PUSH4 0xFFFFFFFF AND PUSH1 0xE0 SHL DUP2 MSTORE PUSH1 0x4 ADD PUSH2 0xA4A SWAP3 SWAP2 SWAP1 PUSH2 0x213B JUMP JUMPDEST PUSH1 0x20 PUSH1 0x40 MLOAD DUP1 DUP4 SUB DUP2 PUSH0 DUP8 GAS CALL ISZERO DUP1 ISZERO PUSH2 0xA66 JUMPI RETURNDATASIZE PUSH0 DUP1 RETURNDATACOPY RETURNDATASIZE PUSH0 REVERT JUMPDEST POP POP POP POP PUSH1 0x40 MLOAD RETURNDATASIZE PUSH1 0x1F NOT PUSH1 0x1F DUP3 ADD AND DUP3 ADD DUP1 PUSH1 0x40 MSTORE POP DUP2 ADD SWAP1 PUSH2 0xA8A SWAP2 SWAP1 PUSH2 0x218C JUMP JUMPDEST POP POP POP JUMP JUMPDEST PUSH0 DUP1 PUSH2 0xA99 PUSH2 0x1384 JUMP JUMPDEST SWAP1 POP PUSH2 0xAA6 DUP6 DUP3 DUP6 PUSH2 0x139D JUMP JUMPDEST PUSH2 0xAB1 DUP6 DUP6 DUP6 PUSH2 0x142F JUMP JUMPDEST PUSH1 0x1 SWAP2 POP POP SWAP4 SWAP3 POP POP POP JUMP JUMPDEST PUSH0 PUSH1 0x12 SWAP1 POP SWAP1 JUMP JUMPDEST PUSH1 0x9 SLOAD DUP2 JUMP JUMPDEST PUSH1 0x5 PUSH0 SWAP1 SLOAD SWAP1 PUSH2 0x100 EXP SWAP1 DIV PUSH20 0xFFFFFFFFFFFFFFFFFFFFFFFFFFFFFFFFFFFFFFFF AND PUSH20 0xFFFFFFFFFFFFFFFFFFFFFFFFFFFFFFFFFFFFFFFF AND CALLER PUSH20 0xFFFFFFFFFFFFFFFFFFFFFFFFFFFFFFFFFFFFFFFF AND EQ PUSH2 0xB5A JUMPI PUSH1 0x40 MLOAD PUSH32 0x8C379A000000000000000000000000000000000000000000000000000000000 DUP2 MSTORE PUSH1 0x4 ADD PUSH2 0xB51 SWAP1 PUSH2 0x1F8D JUMP JUMPDEST PUSH1 0x40 MLOAD DUP1 SWAP2 SUB SWAP1 REVERT JUMPDEST PUSH1 0x6 PUSH0 SWAP1 SLOAD SWAP1 PUSH2 0x100 EXP SWAP1 DIV PUSH20 0xFFFFFFFFFFFFFFFFFFFFFFFFFFFFFFFFFFFFFFFF AND PUSH20 0xFFFFFFFFFFFFFFFFFFFFFFFFFFFFFFFFFFFFFFFF AND DUP4 PUSH20 0xFFFFFFFFFFFFFFFFFFFFFFFFFFFFFFFFFFFFFFFF AND SUB PUSH2 0xBEA JUMPI DUP2 PUSH1 0x8 PUSH0 DUP3 DUP3 SLOAD PUSH2 0xBBF SWAP2 SWAP1 PUSH2 0x21B7 JUMP JUMPDEST SWAP3 POP POP DUP2 SWAP1 SSTORE POP DUP1 PUSH1 0x9 PUSH0 DUP3 DUP3 SLOAD PUSH2 0xBD7 SWAP2 SWAP1 PUSH2 0x21B7 JUMP JUMPDEST SWAP3 POP POP DUP2 SWAP1 SSTORE POP TIMESTAMP PUSH1 0xA DUP2 SWAP1 SSTORE POP PUSH2 0xC22 JUMP JUMPDEST DUP1 PUSH1 0x8 PUSH0 DUP3 DUP3 SLOAD PUSH2 0xBFB SWAP2 SWAP1 PUSH2 0x21B7 JUMP JUMPDEST SWAP3 POP POP DUP2 SWAP1 SSTORE POP DUP2 PUSH1 0x9 PUSH0 DUP3 DUP3 SLOAD PUSH2 0xC13 SWAP2 SWAP1 PUSH2 0x21B7 JUMP JUMPDEST SWAP3 POP POP DUP2 SWAP1 SSTORE POP TIMESTAMP PUSH1 0xA DUP2 SWAP1 SSTORE POP JUMPDEST PUSH1 0x1 PUSH1 0x8 SLOAD GT DUP1 ISZERO PUSH2 0xC36 JUMPI POP PUSH1 0x1 PUSH1 0x9 SLOAD GT JUMPDEST PUSH2 0xC75 JUMPI PUSH1 0x40 MLOAD PUSH32 0x8C379A000000000000000000000000000000000000000000000000000000000 DUP2 MSTORE PUSH1 0x4 ADD PUSH2 0xC6C SWAP1 PUSH2 0x2234 JUMP JUMPDEST PUSH1 0x40 MLOAD DUP1 SWAP2 SUB SWAP1 REVERT JUMPDEST PUSH32 0x47A0F291B7D5C7D992B467D24BB7350C2FDE51FAFC5E867DF69D34A7FF2208F4 ADDRESS PUSH1 0x8 SLOAD PUSH1 0x9 SLOAD PUSH1 0x40 MLOAD PUSH2 0xCAC SWAP4 SWAP3 SWAP2 SWAP1 PUSH2 0x2106 JUMP JUMPDEST PUSH1 0x40 MLOAD DUP1 SWAP2 SUB SWAP1 LOG1 POP POP POP JUMP JUMPDEST PUSH1 0x5 PUSH0 SWAP1 SLOAD SWAP1 PUSH2 0x100 EXP SWAP1 DIV PUSH20 0xFFFFFFFFFFFFFFFFFFFFFFFFFFFFFFFFFFFFFFFF AND PUSH20 0xFFFFFFFFFFFFFFFFFFFFFFFFFFFFFFFFFFFFFFFF AND CALLER PUSH20 0xFFFFFFFFFFFFFFFFFFFFFFFFFFFFFFFFFFFFFFFF AND EQ PUSH2 0xD48 JUMPI PUSH1 0x40 MLOAD PUSH32 0x8C379A000000000000000000000000000000000000000000000000000000000 DUP2 MSTORE PUSH1 0x4 ADD PUSH2 0xD3F SWAP1 PUSH2 0x1F8D JUMP JUMPDEST PUSH1 0x40 MLOAD DUP1 SWAP2 SUB SWAP1 REVERT JUMPDEST DUP2 PUSH20 0xFFFFFFFFFFFFFFFFFFFFFFFFFFFFFFFFFFFFFFFF AND PUSH4 0x95EA7B3 PUSH1 0x5 PUSH0 SWAP1 SLOAD SWAP1 PUSH2 0x100 EXP SWAP1 DIV PUSH20 0xFFFFFFFFFFFFFFFFFFFFFFFFFFFFFFFFFFFFFFFF AND DUP4 PUSH1 0x40 MLOAD DUP4 PUSH4 0xFFFFFFFF AND PUSH1 0xE0 SHL DUP2 MSTORE PUSH1 0x4 ADD PUSH2 0xDA4 SWAP3 SWAP2 SWAP1 PUSH2 0x213B JUMP JUMPDEST PUSH1 0x20 PUSH1 0x40 MLOAD DUP1 DUP4 SUB DUP2 PUSH0 DUP8 GAS CALL ISZERO DUP1 ISZERO PUSH2 0xDC0 JUMPI RETURNDATASIZE PUSH0 DUP1 RETURNDATACOPY RETURNDATASIZE PUSH0 REVERT JUMPDEST POP POP POP POP PUSH1 0x40 MLOAD RETURNDATASIZE PUSH1 0x1F NOT PUSH1 0x1F DUP3 ADD AND DUP3 ADD DUP1 PUSH1 0x40 MSTORE POP DUP2 ADD SWAP1 PUSH2 0xDE4 SWAP2 SWAP1 PUSH2 0x218C JUMP JUMPDEST POP POP POP JUMP JUMPDEST PUSH0 DUP1 PUSH0 DUP4 PUSH20 0xFFFFFFFFFFFFFFFFFFFFFFFFFFFFFFFFFFFFFFFF AND PUSH20 0xFFFFFFFFFFFFFFFFFFFFFFFFFFFFFFFFFFFFFFFF AND DUP2 MSTORE PUSH1 0x20 ADD SWAP1 DUP2 MSTORE PUSH1 0x20 ADD PUSH0 KECCAK256 SLOAD SWAP1 POP SWAP2 SWAP1 POP JUMP JUMPDEST PUSH1 0x5 PUSH0 SWAP1 SLOAD SWAP1 PUSH2 0x100 EXP SWAP1 DIV PUSH20 0xFFFFFFFFFFFFFFFFFFFFFFFFFFFFFFFFFFFFFFFF AND PUSH20 0xFFFFFFFFFFFFFFFFFFFFFFFFFFFFFFFFFFFFFFFF AND CALLER PUSH20 0xFFFFFFFFFFFFFFFFFFFFFFFFFFFFFFFFFFFFFFFF AND EQ PUSH2 0xEBD JUMPI PUSH1 0x40 MLOAD PUSH32 0x8C379A000000000000000000000000000000000000000000000000000000000 DUP2 MSTORE PUSH1 0x4 ADD PUSH2 0xEB4 SWAP1 PUSH2 0x1F8D JUMP JUMPDEST PUSH1 0x40 MLOAD DUP1 SWAP2 SUB SWAP1 REVERT JUMPDEST PUSH0 DUP4 GT DUP1 ISZERO PUSH2 0xECB JUMPI POP PUSH0 DUP3 GT JUMPDEST PUSH2 0xF0A JUMPI PUSH1 0x40 MLOAD PUSH32 0x8C379A000000000000000000000000000000000000000000000000000000000 DUP2 MSTORE PUSH1 0x4 ADD PUSH2 0xF01 SWAP1 PUSH2 0x229C JUMP JUMPDEST PUSH1 0x40 MLOAD DUP1 SWAP2 SUB SWAP1 REVERT JUMPDEST PUSH0 PUSH2 0xF87 PUSH2 0xF38 PUSH1 0x7 PUSH0 SWAP1 SLOAD SWAP1 PUSH2 0x100 EXP SWAP1 DIV PUSH20 0xFFFFFFFFFFFFFFFFFFFFFFFFFFFFFFFFFFFFFFFF AND PUSH2 0x151F JUMP JUMPDEST PUSH2 0xF62 PUSH1 0x6 PUSH0 SWAP1 SLOAD SWAP1 PUSH2 0x100 EXP SWAP1 DIV PUSH20 0xFFFFFFFFFFFFFFFFFFFFFFFFFFFFFFFFFFFFFFFF AND PUSH2 0x151F JUMP JUMPDEST DUP6 DUP8 PUSH2 0xF6E SWAP2 SWAP1 PUSH2 0x1FD8 JUMP JUMPDEST PUSH2 0xF78 SWAP2 SWAP1 PUSH2 0x1FD8 JUMP JUMPDEST PUSH2 0xF82 SWAP2 SWAP1 PUSH2 0x1FD8 JUMP JUMPDEST PUSH2 0x15B6 JUMP JUMPDEST SWAP1 POP PUSH2 0xF93 DUP3 DUP3 PUSH2 0x162D JUMP JUMPDEST POP POP POP POP JUMP JUMPDEST PUSH1 0x60 PUSH1 0x4 DUP1 SLOAD PUSH2 0xFA8 SWAP1 PUSH2 0x20A3 JUMP JUMPDEST DUP1 PUSH1 0x1F ADD PUSH1 0x20 DUP1 SWAP2 DIV MUL PUSH1 0x20 ADD PUSH1 0x40 MLOAD SWAP1 DUP2 ADD PUSH1 0x40 MSTORE DUP1 SWAP3 SWAP2 SWAP1 DUP2 DUP2 MSTORE PUSH1 0x20 ADD DUP3 DUP1 SLOAD PUSH2 0xFD4 SWAP1 PUSH2 0x20A3 JUMP JUMPDEST DUP1 ISZERO PUSH2 0x101F JUMPI DUP1 PUSH1 0x1F LT PUSH2 0xFF6 JUMPI PUSH2 0x100 DUP1 DUP4 SLOAD DIV MUL DUP4 MSTORE SWAP2 PUSH1 0x20 ADD SWAP2 PUSH2 0x101F JUMP JUMPDEST DUP3 ADD SWAP2 SWAP1 PUSH0 MSTORE PUSH1 0x20 PUSH0 KECCAK256 SWAP1 JUMPDEST DUP2 SLOAD DUP2 MSTORE SWAP1 PUSH1 0x1 ADD SWAP1 PUSH1 0x20 ADD DUP1 DUP4 GT PUSH2 0x1002 JUMPI DUP3 SWAP1 SUB PUSH1 0x1F AND DUP3 ADD SWAP2 JUMPDEST POP POP POP POP POP SWAP1 POP SWAP1 JUMP JUMPDEST PUSH1 0x5 PUSH0 SWAP1 SLOAD SWAP1 PUSH2 0x100 EXP SWAP1 DIV PUSH20 0xFFFFFFFFFFFFFFFFFFFFFFFFFFFFFFFFFFFFFFFF AND PUSH20 0xFFFFFFFFFFFFFFFFFFFFFFFFFFFFFFFFFFFFFFFF AND CALLER PUSH20 0xFFFFFFFFFFFFFFFFFFFFFFFFFFFFFFFFFFFFFFFF AND EQ PUSH2 0x10B8 JUMPI PUSH1 0x40 MLOAD PUSH32 0x8C379A000000000000000000000000000000000000000000000000000000000 DUP2 MSTORE PUSH1 0x4 ADD PUSH2 0x10AF SWAP1 PUSH2 0x1F8D JUMP JUMPDEST PUSH1 0x40 MLOAD DUP1 SWAP2 SUB SWAP1 REVERT JUMPDEST PUSH1 0x6 PUSH0 SWAP1 SLOAD SWAP1 PUSH2 0x100 EXP SWAP1 DIV PUSH20 0xFFFFFFFFFFFFFFFFFFFFFFFFFFFFFFFFFFFFFFFF AND PUSH20 0xFFFFFFFFFFFFFFFFFFFFFFFFFFFFFFFFFFFFFFFF AND DUP4 PUSH20 0xFFFFFFFFFFFFFFFFFFFFFFFFFFFFFFFFFFFFFFFF AND SUB PUSH2 0x1148 JUMPI DUP2 PUSH1 0x8 PUSH0 DUP3 DUP3 SLOAD PUSH2 0x111D SWAP2 SWAP1 PUSH2 0x20D3 JUMP JUMPDEST SWAP3 POP POP DUP2 SWAP1 SSTORE POP DUP1 PUSH1 0x9 PUSH0 DUP3 DUP3 SLOAD PUSH2 0x1135 SWAP2 SWAP1 PUSH2 0x21B7 JUMP JUMPDEST SWAP3 POP POP DUP2 SWAP1 SSTORE POP TIMESTAMP PUSH1 0xA DUP2 SWAP1 SSTORE POP PUSH2 0x1180 JUMP JUMPDEST DUP2 PUSH1 0x8 PUSH0 DUP3 DUP3 SLOAD PUSH2 0x1159 SWAP2 SWAP1 PUSH2 0x21B7 JUMP JUMPDEST SWAP3 POP POP DUP2 SWAP1 SSTORE POP DUP1 PUSH1 0x9 PUSH0 DUP3 DUP3 SLOAD PUSH2 0x1171 SWAP2 SWAP1 PUSH2 0x20D3 JUMP JUMPDEST SWAP3 POP POP DUP2 SWAP1 SSTORE POP TIMESTAMP PUSH1 0xA DUP2 SWAP1 SSTORE POP JUMPDEST PUSH1 0x1 PUSH1 0x8 SLOAD GT DUP1 ISZERO PUSH2 0x1194 JUMPI POP PUSH1 0x1 PUSH1 0x9 SLOAD GT JUMPDEST PUSH2 0x11D3 JUMPI PUSH1 0x40 MLOAD PUSH32 0x8C379A000000000000000000000000000000000000000000000000000000000 DUP2 MSTORE PUSH1 0x4 ADD PUSH2 0x11CA SWAP1 PUSH2 0x2234 JUMP JUMPDEST PUSH1 0x40 MLOAD DUP1 SWAP2 SUB SWAP1 REVERT JUMPDEST PUSH32 0x47A0F291B7D5C7D992B467D24BB7350C2FDE51FAFC5E867DF69D34A7FF2208F4 ADDRESS PUSH1 0x8 SLOAD PUSH1 0x9 SLOAD PUSH1 0x40 MLOAD PUSH2 0x120A SWAP4 SWAP3 SWAP2 SWAP1 PUSH2 0x2106 JUMP JUMPDEST PUSH1 0x40 MLOAD DUP1 SWAP2 SUB SWAP1 LOG1 POP POP POP JUMP JUMPDEST PUSH0 DUP1 PUSH2 0x1221 PUSH2 0x1384 JUMP JUMPDEST SWAP1 POP PUSH2 0x122E DUP2 DUP6 DUP6 PUSH2 0x142F JUMP JUMPDEST PUSH1 0x1 SWAP2 POP POP SWAP3 SWAP2 POP POP JUMP JUMPDEST PUSH1 0x5 PUSH0 SWAP1 SLOAD SWAP1 PUSH2 0x100 EXP SWAP1 DIV PUSH20 0xFFFFFFFFFFFFFFFFFFFFFFFFFFFFFFFFFFFFFFFF AND DUP2 JUMP JUMPDEST PUSH1 0x7 PUSH0 SWAP1 SLOAD SWAP1 PUSH2 0x100 EXP SWAP1 DIV PUSH20 0xFFFFFFFFFFFFFFFFFFFFFFFFFFFFFFFFFFFFFFFF AND DUP2 JUMP JUMPDEST PUSH0 PUSH1 0x1 PUSH0 DUP5 PUSH20 0xFFFFFFFFFFFFFFFFFFFFFFFFFFFFFFFFFFFFFFFF AND PUSH20 0xFFFFFFFFFFFFFFFFFFFFFFFFFFFFFFFFFFFFFFFF AND DUP2 MSTORE PUSH1 0x20 ADD SWAP1 DUP2 MSTORE PUSH1 0x20 ADD PUSH0 KECCAK256 PUSH0 DUP4 PUSH20 0xFFFFFFFFFFFFFFFFFFFFFFFFFFFFFFFFFFFFFFFF AND PUSH20 0xFFFFFFFFFFFFFFFFFFFFFFFFFFFFFFFFFFFFFFFF AND DUP2 MSTORE PUSH1 0x20 ADD SWAP1 DUP2 MSTORE PUSH1 0x20 ADD PUSH0 KECCAK256 SLOAD SWAP1 POP SWAP3 SWAP2 POP POP JUMP JUMPDEST PUSH0 PUSH20 0xFFFFFFFFFFFFFFFFFFFFFFFFFFFFFFFFFFFFFFFF AND DUP3 PUSH20 0xFFFFFFFFFFFFFFFFFFFFFFFFFFFFFFFFFFFFFFFF AND SUB PUSH2 0x1375 JUMPI PUSH0 PUSH1 0x40 MLOAD PUSH32 0x96C6FD1E00000000000000000000000000000000000000000000000000000000 DUP2 MSTORE PUSH1 0x4 ADD PUSH2 0x136C SWAP2 SWAP1 PUSH2 0x1D47 JUMP JUMPDEST PUSH1 0x40 MLOAD DUP1 SWAP2 SUB SWAP1 REVERT JUMPDEST PUSH2 0x1380 DUP3 PUSH0 DUP4 PUSH2 0x16AC JUMP JUMPDEST POP POP JUMP JUMPDEST PUSH0 CALLER SWAP1 POP SWAP1 JUMP JUMPDEST PUSH2 0x1398 DUP4 DUP4 DUP4 PUSH1 0x1 PUSH2 0x18C5 JUMP JUMPDEST POP POP POP JUMP JUMPDEST PUSH0 PUSH2 0x13A8 DUP5 DUP5 PUSH2 0x1283 JUMP JUMPDEST SWAP1 POP PUSH32 0xFFFFFFFFFFFFFFFFFFFFFFFFFFFFFFFFFFFFFFFFFFFFFFFFFFFFFFFFFFFFFFFF DUP2 EQ PUSH2 0x1429 JUMPI DUP2 DUP2 LT ISZERO PUSH2 0x141A JUMPI DUP3 DUP2 DUP4 PUSH1 0x40 MLOAD PUSH32 0xFB8F41B200000000000000000000000000000000000000000000000000000000 DUP2 MSTORE PUSH1 0x4 ADD PUSH2 0x1411 SWAP4 SWAP3 SWAP2 SWAP1 PUSH2 0x2106 JUMP JUMPDEST PUSH1 0x40 MLOAD DUP1 SWAP2 SUB SWAP1 REVERT JUMPDEST PUSH2 0x1428 DUP5 DUP5 DUP5 DUP5 SUB PUSH0 PUSH2 0x18C5 JUMP JUMPDEST JUMPDEST POP POP POP POP JUMP JUMPDEST PUSH0 PUSH20 0xFFFFFFFFFFFFFFFFFFFFFFFFFFFFFFFFFFFFFFFF AND DUP4 PUSH20 0xFFFFFFFFFFFFFFFFFFFFFFFFFFFFFFFFFFFFFFFF AND SUB PUSH2 0x149F JUMPI PUSH0 PUSH1 0x40 MLOAD PUSH32 0x96C6FD1E00000000000000000000000000000000000000000000000000000000 DUP2 MSTORE PUSH1 0x4 ADD PUSH2 0x1496 SWAP2 SWAP1 PUSH2 0x1D47 JUMP JUMPDEST PUSH1 0x40 MLOAD DUP1 SWAP2 SUB SWAP1 REVERT JUMPDEST PUSH0 PUSH20 0xFFFFFFFFFFFFFFFFFFFFFFFFFFFFFFFFFFFFFFFF AND DUP3 PUSH20 0xFFFFFFFFFFFFFFFFFFFFFFFFFFFFFFFFFFFFFFFF AND SUB PUSH2 0x150F JUMPI PUSH0 PUSH1 0x40 MLOAD PUSH32 0xEC442F0500000000000000000000000000000000000000000000000000000000 DUP2 MSTORE PUSH1 0x4 ADD PUSH2 0x1506 SWAP2 SWAP1 PUSH2 0x1D47 JUMP JUMPDEST PUSH1 0x40 MLOAD DUP1 SWAP2 SUB SWAP1 REVERT JUMPDEST PUSH2 0x151A DUP4 DUP4 DUP4 PUSH2 0x16AC JUMP JUMPDEST POP POP POP JUMP JUMPDEST PUSH0 DUP1 DUP3 PUSH20 0xFFFFFFFFFFFFFFFFFFFFFFFFFFFFFFFFFFFFFFFF AND PUSH4 0x313CE567 PUSH1 0x40 MLOAD DUP2 PUSH4 0xFFFFFFFF AND PUSH1 0xE0 SHL DUP2 MSTORE PUSH1 0x4 ADD PUSH1 0x20 PUSH1 0x40 MLOAD DUP1 DUP4 SUB DUP2 DUP7 GAS STATICCALL ISZERO DUP1 ISZERO PUSH2 0x156A JUMPI RETURNDATASIZE PUSH0 DUP1 RETURNDATACOPY RETURNDATASIZE PUSH0 REVERT JUMPDEST POP POP POP POP PUSH1 0x40 MLOAD RETURNDATASIZE PUSH1 0x1F NOT PUSH1 0x1F DUP3 ADD AND DUP3 ADD DUP1 PUSH1 0x40 MSTORE POP DUP2 ADD SWAP1 PUSH2 0x158E SWAP2 SWAP1 PUSH2 0x22E4 JUMP JUMPDEST SWAP1 POP PUSH0 DUP2 PUSH1 0x12 PUSH2 0x159E SWAP2 SWAP1 PUSH2 0x230F JUMP JUMPDEST SWAP1 POP DUP1 PUSH1 0xA PUSH2 0x15AD SWAP2 SWAP1 PUSH2 0x2472 JUMP JUMPDEST SWAP3 POP POP POP SWAP2 SWAP1 POP JUMP JUMPDEST PUSH0 PUSH1 0x3 DUP3 GT ISZERO PUSH2 0x161B JUMPI DUP2 SWAP1 POP PUSH0 PUSH1 0x1 PUSH1 0x2 DUP5 PUSH2 0x15D3 SWAP2 SWAP1 PUSH2 0x2046 JUMP JUMPDEST PUSH2 0x15DD SWAP2 SWAP1 PUSH2 0x20D3 JUMP JUMPDEST SWAP1 POP JUMPDEST DUP2 DUP2 LT ISZERO PUSH2 0x1615 JUMPI DUP1 SWAP2 POP PUSH1 0x2 DUP2 DUP3 DUP6 PUSH2 0x15FA SWAP2 SWAP1 PUSH2 0x2046 JUMP JUMPDEST PUSH2 0x1604 SWAP2 SWAP1 PUSH2 0x20D3 JUMP JUMPDEST PUSH2 0x160E SWAP2 SWAP1 PUSH2 0x2046 JUMP JUMPDEST SWAP1 POP PUSH2 0x15E0 JUMP JUMPDEST POP PUSH2 0x1628 JUMP JUMPDEST PUSH0 DUP3 EQ PUSH2 0x1627 JUMPI PUSH1 0x1 SWAP1 POP JUMPDEST JUMPDEST SWAP2 SWAP1 POP JUMP JUMPDEST PUSH0 PUSH20 0xFFFFFFFFFFFFFFFFFFFFFFFFFFFFFFFFFFFFFFFF AND DUP3 PUSH20 0xFFFFFFFFFFFFFFFFFFFFFFFFFFFFFFFFFFFFFFFF AND SUB PUSH2 0x169D JUMPI PUSH0 PUSH1 0x40 MLOAD PUSH32 0xEC442F0500000000000000000000000000000000000000000000000000000000 DUP2 MSTORE PUSH1 0x4 ADD PUSH2 0x1694 SWAP2 SWAP1 PUSH2 0x1D47 JUMP JUMPDEST PUSH1 0x40 MLOAD DUP1 SWAP2 SUB SWAP1 REVERT JUMPDEST PUSH2 0x16A8 PUSH0 DUP4 DUP4 PUSH2 0x16AC JUMP JUMPDEST POP POP JUMP JUMPDEST PUSH0 PUSH20 0xFFFFFFFFFFFFFFFFFFFFFFFFFFFFFFFFFFFFFFFF AND DUP4 PUSH20 0xFFFFFFFFFFFFFFFFFFFFFFFFFFFFFFFFFFFFFFFF AND SUB PUSH2 0x16FC JUMPI DUP1 PUSH1 0x2 PUSH0 DUP3 DUP3 SLOAD PUSH2 0x16F0 SWAP2 SWAP1 PUSH2 0x20D3 JUMP JUMPDEST SWAP3 POP POP DUP2 SWAP1 SSTORE POP PUSH2 0x17CA JUMP JUMPDEST PUSH0 DUP1 PUSH0 DUP6 PUSH20 0xFFFFFFFFFFFFFFFFFFFFFFFFFFFFFFFFFFFFFFFF AND PUSH20 0xFFFFFFFFFFFFFFFFFFFFFFFFFFFFFFFFFFFFFFFF AND DUP2 MSTORE PUSH1 0x20 ADD SWAP1 DUP2 MSTORE PUSH1 0x20 ADD PUSH0 KECCAK256 SLOAD SWAP1 POP DUP2 DUP2 LT ISZERO PUSH2 0x1785 JUMPI DUP4 DUP2 DUP4 PUSH1 0x40 MLOAD PUSH32 0xE450D38C00000000000000000000000000000000000000000000000000000000 DUP2 MSTORE PUSH1 0x4 ADD PUSH2 0x177C SWAP4 SWAP3 SWAP2 SWAP1 PUSH2 0x2106 JUMP JUMPDEST PUSH1 0x40 MLOAD DUP1 SWAP2 SUB SWAP1 REVERT JUMPDEST DUP2 DUP2 SUB PUSH0 DUP1 DUP7 PUSH20 0xFFFFFFFFFFFFFFFFFFFFFFFFFFFFFFFFFFFFFFFF AND PUSH20 0xFFFFFFFFFFFFFFFFFFFFFFFFFFFFFFFFFFFFFFFF AND DUP2 MSTORE PUSH1 0x20 ADD SWAP1 DUP2 MSTORE PUSH1 0x20 ADD PUSH0 KECCAK256 DUP2 SWAP1 SSTORE POP POP JUMPDEST PUSH0 PUSH20 0xFFFFFFFFFFFFFFFFFFFFFFFFFFFFFFFFFFFFFFFF AND DUP3 PUSH20 0xFFFFFFFFFFFFFFFFFFFFFFFFFFFFFFFFFFFFFFFF AND SUB PUSH2 0x1811 JUMPI DUP1 PUSH1 0x2 PUSH0 DUP3 DUP3 SLOAD SUB SWAP3 POP POP DUP2 SWAP1 SSTORE POP PUSH2 0x185B JUMP JUMPDEST DUP1 PUSH0 DUP1 DUP5 PUSH20 0xFFFFFFFFFFFFFFFFFFFFFFFFFFFFFFFFFFFFFFFF AND PUSH20 0xFFFFFFFFFFFFFFFFFFFFFFFFFFFFFFFFFFFFFFFF AND DUP2 MSTORE PUSH1 0x20 ADD SWAP1 DUP2 MSTORE PUSH1 0x20 ADD PUSH0 KECCAK256 PUSH0 DUP3 DUP3 SLOAD ADD SWAP3 POP POP DUP2 SWAP1 SSTORE POP JUMPDEST DUP2 PUSH20 0xFFFFFFFFFFFFFFFFFFFFFFFFFFFFFFFFFFFFFFFF AND DUP4 PUSH20 0xFFFFFFFFFFFFFFFFFFFFFFFFFFFFFFFFFFFFFFFF AND PUSH32 0xDDF252AD1BE2C89B69C2B068FC378DAA952BA7F163C4A11628F55A4DF523B3EF DUP4 PUSH1 0x40 MLOAD PUSH2 0x18B8 SWAP2 SWAP1 PUSH2 0x1D1F JUMP JUMPDEST PUSH1 0x40 MLOAD DUP1 SWAP2 SUB SWAP1 LOG3 POP POP POP JUMP JUMPDEST PUSH0 PUSH20 0xFFFFFFFFFFFFFFFFFFFFFFFFFFFFFFFFFFFFFFFF AND DUP5 PUSH20 0xFFFFFFFFFFFFFFFFFFFFFFFFFFFFFFFFFFFFFFFF AND SUB PUSH2 0x1935 JUMPI PUSH0 PUSH1 0x40 MLOAD PUSH32 0xE602DF0500000000000000000000000000000000000000000000000000000000 DUP2 MSTORE PUSH1 0x4 ADD PUSH2 0x192C SWAP2 SWAP1 PUSH2 0x1D47 JUMP JUMPDEST PUSH1 0x40 MLOAD DUP1 SWAP2 SUB SWAP1 REVERT JUMPDEST PUSH0 PUSH20 0xFFFFFFFFFFFFFFFFFFFFFFFFFFFFFFFFFFFFFFFF AND DUP4 PUSH20 0xFFFFFFFFFFFFFFFFFFFFFFFFFFFFFFFFFFFFFFFF AND SUB PUSH2 0x19A5 JUMPI PUSH0 PUSH1 0x40 MLOAD PUSH32 0x94280D6200000000000000000000000000000000000000000000000000000000 DUP2 MSTORE PUSH1 0x4 ADD PUSH2 0x199C SWAP2 SWAP1 PUSH2 0x1D47 JUMP JUMPDEST PUSH1 0x40 MLOAD DUP1 SWAP2 SUB SWAP1 REVERT JUMPDEST DUP2 PUSH1 0x1 PUSH0 DUP7 PUSH20 0xFFFFFFFFFFFFFFFFFFFFFFFFFFFFFFFFFFFFFFFF AND PUSH20 0xFFFFFFFFFFFFFFFFFFFFFFFFFFFFFFFFFFFFFFFF AND DUP2 MSTORE PUSH1 0x20 ADD SWAP1 DUP2 MSTORE PUSH1 0x20 ADD PUSH0 KECCAK256 PUSH0 DUP6 PUSH20 0xFFFFFFFFFFFFFFFFFFFFFFFFFFFFFFFFFFFFFFFF AND PUSH20 0xFFFFFFFFFFFFFFFFFFFFFFFFFFFFFFFFFFFFFFFF AND DUP2 MSTORE PUSH1 0x20 ADD SWAP1 DUP2 MSTORE PUSH1 0x20 ADD PUSH0 KECCAK256 DUP2 SWAP1 SSTORE POP DUP1 ISZERO PUSH2 0x1A8E JUMPI DUP3 PUSH20 0xFFFFFFFFFFFFFFFFFFFFFFFFFFFFFFFFFFFFFFFF AND DUP5 PUSH20 0xFFFFFFFFFFFFFFFFFFFFFFFFFFFFFFFFFFFFFFFF AND PUSH32 0x8C5BE1E5EBEC7D5BD14F71427D1E84F3DD0314C0F7B2291E5B200AC8C7C3B925 DUP5 PUSH1 0x40 MLOAD PUSH2 0x1A85 SWAP2 SWAP1 PUSH2 0x1D1F JUMP JUMPDEST PUSH1 0x40 MLOAD DUP1 SWAP2 SUB SWAP1 LOG3 JUMPDEST POP POP POP POP JUMP JUMPDEST PUSH0 DUP1 REVERT JUMPDEST PUSH0 DUP2 SWAP1 POP SWAP2 SWAP1 POP JUMP JUMPDEST PUSH2 0x1AAA DUP2 PUSH2 0x1A98 JUMP JUMPDEST DUP2 EQ PUSH2 0x1AB4 JUMPI PUSH0 DUP1 REVERT JUMPDEST POP JUMP JUMPDEST PUSH0 DUP2 CALLDATALOAD SWAP1 POP PUSH2 0x1AC5 DUP2 PUSH2 0x1AA1 JUMP JUMPDEST SWAP3 SWAP2 POP POP JUMP JUMPDEST PUSH0 PUSH20 0xFFFFFFFFFFFFFFFFFFFFFFFFFFFFFFFFFFFFFFFF DUP3 AND SWAP1 POP SWAP2 SWAP1 POP JUMP JUMPDEST PUSH0 PUSH2 0x1AF4 DUP3 PUSH2 0x1ACB JUMP JUMPDEST SWAP1 POP SWAP2 SWAP1 POP JUMP JUMPDEST PUSH2 0x1B04 DUP2 PUSH2 0x1AEA JUMP JUMPDEST DUP2 EQ PUSH2 0x1B0E JUMPI PUSH0 DUP1 REVERT JUMPDEST POP JUMP JUMPDEST PUSH0 DUP2 CALLDATALOAD SWAP1 POP PUSH2 0x1B1F DUP2 PUSH2 0x1AFB JUMP JUMPDEST SWAP3 SWAP2 POP POP JUMP JUMPDEST PUSH0 DUP1 PUSH1 0x40 DUP4 DUP6 SUB SLT ISZERO PUSH2 0x1B3B JUMPI PUSH2 0x1B3A PUSH2 0x1A94 JUMP JUMPDEST JUMPDEST PUSH0 PUSH2 0x1B48 DUP6 DUP3 DUP7 ADD PUSH2 0x1AB7 JUMP JUMPDEST SWAP3 POP POP PUSH1 0x20 PUSH2 0x1B59 DUP6 DUP3 DUP7 ADD PUSH2 0x1B11 JUMP JUMPDEST SWAP2 POP POP SWAP3 POP SWAP3 SWAP1 POP JUMP JUMPDEST PUSH2 0x1B6C DUP2 PUSH2 0x1A98 JUMP JUMPDEST DUP3 MSTORE POP POP JUMP JUMPDEST PUSH0 PUSH1 0x40 DUP3 ADD SWAP1 POP PUSH2 0x1B85 PUSH0 DUP4 ADD DUP6 PUSH2 0x1B63 JUMP JUMPDEST PUSH2 0x1B92 PUSH1 0x20 DUP4 ADD DUP5 PUSH2 0x1B63 JUMP JUMPDEST SWAP4 SWAP3 POP POP POP JUMP JUMPDEST PUSH0 DUP2 MLOAD SWAP1 POP SWAP2 SWAP1 POP JUMP JUMPDEST PUSH0 DUP3 DUP3 MSTORE PUSH1 0x20 DUP3 ADD SWAP1 POP SWAP3 SWAP2 POP POP JUMP JUMPDEST DUP3 DUP2 DUP4 MCOPY PUSH0 DUP4 DUP4 ADD MSTORE POP POP POP JUMP JUMPDEST PUSH0 PUSH1 0x1F NOT PUSH1 0x1F DUP4 ADD AND SWAP1 POP SWAP2 SWAP1 POP JUMP JUMPDEST PUSH0 PUSH2 0x1BDB DUP3 PUSH2 0x1B99 JUMP JUMPDEST PUSH2 0x1BE5 DUP2 DUP6 PUSH2 0x1BA3 JUMP JUMPDEST SWAP4 POP PUSH2 0x1BF5 DUP2 DUP6 PUSH1 0x20 DUP7 ADD PUSH2 0x1BB3 JUMP JUMPDEST PUSH2 0x1BFE DUP2 PUSH2 0x1BC1 JUMP JUMPDEST DUP5 ADD SWAP2 POP POP SWAP3 SWAP2 POP POP JUMP JUMPDEST PUSH0 PUSH1 0x20 DUP3 ADD SWAP1 POP DUP2 DUP2 SUB PUSH0 DUP4 ADD MSTORE PUSH2 0x1C21 DUP2 DUP5 PUSH2 0x1BD1 JUMP JUMPDEST SWAP1 POP SWAP3 SWAP2 POP POP JUMP JUMPDEST PUSH0 DUP1 PUSH0 PUSH1 0x60 DUP5 DUP7 SUB SLT ISZERO PUSH2 0x1C40 JUMPI PUSH2 0x1C3F PUSH2 0x1A94 JUMP JUMPDEST JUMPDEST PUSH0 PUSH2 0x1C4D DUP7 DUP3 DUP8 ADD PUSH2 0x1B11 JUMP JUMPDEST SWAP4 POP POP PUSH1 0x20 PUSH2 0x1C5E DUP7 DUP3 DUP8 ADD PUSH2 0x1AB7 JUMP JUMPDEST SWAP3 POP POP PUSH1 0x40 PUSH2 0x1C6F DUP7 DUP3 DUP8 ADD PUSH2 0x1AB7 JUMP JUMPDEST SWAP2 POP POP SWAP3 POP SWAP3 POP SWAP3 JUMP JUMPDEST PUSH0 PUSH1 0x60 DUP3 ADD SWAP1 POP PUSH2 0x1C8C PUSH0 DUP4 ADD DUP7 PUSH2 0x1B63 JUMP JUMPDEST PUSH2 0x1C99 PUSH1 0x20 DUP4 ADD DUP6 PUSH2 0x1B63 JUMP JUMPDEST PUSH2 0x1CA6 PUSH1 0x40 DUP4 ADD DUP5 PUSH2 0x1B63 JUMP JUMPDEST SWAP5 SWAP4 POP POP POP POP JUMP JUMPDEST PUSH0 DUP1 PUSH1 0x40 DUP4 DUP6 SUB SLT ISZERO PUSH2 0x1CC4 JUMPI PUSH2 0x1CC3 PUSH2 0x1A94 JUMP JUMPDEST JUMPDEST PUSH0 PUSH2 0x1CD1 DUP6 DUP3 DUP7 ADD PUSH2 0x1B11 JUMP JUMPDEST SWAP3 POP POP PUSH1 0x20 PUSH2 0x1CE2 DUP6 DUP3 DUP7 ADD PUSH2 0x1AB7 JUMP JUMPDEST SWAP2 POP POP SWAP3 POP SWAP3 SWAP1 POP JUMP JUMPDEST PUSH0 DUP2 ISZERO ISZERO SWAP1 POP SWAP2 SWAP1 POP JUMP JUMPDEST PUSH2 0x1D00 DUP2 PUSH2 0x1CEC JUMP JUMPDEST DUP3 MSTORE POP POP JUMP JUMPDEST PUSH0 PUSH1 0x20 DUP3 ADD SWAP1 POP PUSH2 0x1D19 PUSH0 DUP4 ADD DUP5 PUSH2 0x1CF7 JUMP JUMPDEST SWAP3 SWAP2 POP POP JUMP JUMPDEST PUSH0 PUSH1 0x20 DUP3 ADD SWAP1 POP PUSH2 0x1D32 PUSH0 DUP4 ADD DUP5 PUSH2 0x1B63 JUMP JUMPDEST SWAP3 SWAP2 POP POP JUMP JUMPDEST PUSH2 0x1D41 DUP2 PUSH2 0x1AEA JUMP JUMPDEST DUP3 MSTORE POP POP JUMP JUMPDEST PUSH0 PUSH1 0x20 DUP3 ADD SWAP1 POP PUSH2 0x1D5A PUSH0 DUP4 ADD DUP5 PUSH2 0x1D38 JUMP JUMPDEST SWAP3 SWAP2 POP POP JUMP JUMPDEST PUSH0 DUP1 PUSH1 0x40 DUP4 DUP6 SUB SLT ISZERO PUSH2 0x1D76 JUMPI PUSH2 0x1D75 PUSH2 0x1A94 JUMP JUMPDEST JUMPDEST PUSH0 PUSH2 0x1D83 DUP6 DUP3 DUP7 ADD PUSH2 0x1AB7 JUMP JUMPDEST SWAP3 POP POP PUSH1 0x20 PUSH2 0x1D94 DUP6 DUP3 DUP7 ADD PUSH2 0x1AB7 JUMP JUMPDEST SWAP2 POP POP SWAP3 POP SWAP3 SWAP1 POP JUMP JUMPDEST PUSH0 DUP1 PUSH0 PUSH1 0x60 DUP5 DUP7 SUB SLT ISZERO PUSH2 0x1DB5 JUMPI PUSH2 0x1DB4 PUSH2 0x1A94 JUMP JUMPDEST JUMPDEST PUSH0 PUSH2 0x1DC2 DUP7 DUP3 DUP8 ADD PUSH2 0x1B11 JUMP JUMPDEST SWAP4 POP POP PUSH1 0x20 PUSH2 0x1DD3 DUP7 DUP3 DUP8 ADD PUSH2 0x1B11 JUMP JUMPDEST SWAP3 POP POP PUSH1 0x40 PUSH2 0x1DE4 DUP7 DUP3 DUP8 ADD PUSH2 0x1AB7 JUMP JUMPDEST SWAP2 POP POP SWAP3 POP SWAP3 POP SWAP3 JUMP JUMPDEST PUSH0 PUSH1 0xFF DUP3 AND SWAP1 POP SWAP2 SWAP1 POP JUMP JUMPDEST PUSH2 0x1E03 DUP2 PUSH2 0x1DEE JUMP JUMPDEST DUP3 MSTORE POP POP JUMP JUMPDEST PUSH0 PUSH1 0x20 DUP3 ADD SWAP1 POP PUSH2 0x1E1C PUSH0 DUP4 ADD DUP5 PUSH2 0x1DFA JUMP JUMPDEST SWAP3 SWAP2 POP POP JUMP JUMPDEST PUSH0 PUSH1 0x20 DUP3 DUP5 SUB SLT ISZERO PUSH2 0x1E37 JUMPI PUSH2 0x1E36 PUSH2 0x1A94 JUMP JUMPDEST JUMPDEST PUSH0 PUSH2 0x1E44 DUP5 DUP3 DUP6 ADD PUSH2 0x1B11 JUMP JUMPDEST SWAP2 POP POP SWAP3 SWAP2 POP POP JUMP JUMPDEST PUSH0 DUP1 PUSH0 PUSH1 0x60 DUP5 DUP7 SUB SLT ISZERO PUSH2 0x1E64 JUMPI PUSH2 0x1E63 PUSH2 0x1A94 JUMP JUMPDEST JUMPDEST PUSH0 PUSH2 0x1E71 DUP7 DUP3 DUP8 ADD PUSH2 0x1AB7 JUMP JUMPDEST SWAP4 POP POP PUSH1 0x20 PUSH2 0x1E82 DUP7 DUP3 DUP8 ADD PUSH2 0x1AB7 JUMP JUMPDEST SWAP3 POP POP PUSH1 0x40 PUSH2 0x1E93 DUP7 DUP3 DUP8 ADD PUSH2 0x1B11 JUMP JUMPDEST SWAP2 POP POP SWAP3 POP SWAP3 POP SWAP3 JUMP JUMPDEST PUSH0 DUP1 PUSH1 0x40 DUP4 DUP6 SUB SLT ISZERO PUSH2 0x1EB3 JUMPI PUSH2 0x1EB2 PUSH2 0x1A94 JUMP JUMPDEST JUMPDEST PUSH0 PUSH2 0x1EC0 DUP6 DUP3 DUP7 ADD PUSH2 0x1B11 JUMP JUMPDEST SWAP3 POP POP PUSH1 0x20 PUSH2 0x1ED1 DUP6 DUP3 DUP7 ADD PUSH2 0x1B11 JUMP JUMPDEST SWAP2 POP POP SWAP3 POP SWAP3 SWAP1 POP JUMP JUMPDEST PUSH32 0x616D6F756E742067726561746572207468616E207A65726F0000000000000000 PUSH0 DUP3 ADD MSTORE POP JUMP JUMPDEST PUSH0 PUSH2 0x1F0F PUSH1 0x18 DUP4 PUSH2 0x1BA3 JUMP JUMPDEST SWAP2 POP PUSH2 0x1F1A DUP3 PUSH2 0x1EDB JUMP JUMPDEST PUSH1 0x20 DUP3 ADD SWAP1 POP SWAP2 SWAP1 POP JUMP JUMPDEST PUSH0 PUSH1 0x20 DUP3 ADD SWAP1 POP DUP2 DUP2 SUB PUSH0 DUP4 ADD MSTORE PUSH2 0x1F3C DUP2 PUSH2 0x1F03 JUMP JUMPDEST SWAP1 POP SWAP2 SWAP1 POP JUMP JUMPDEST PUSH32 0x666F7262696464656E0000000000000000000000000000000000000000000000 PUSH0 DUP3 ADD MSTORE POP JUMP JUMPDEST PUSH0 PUSH2 0x1F77 PUSH1 0x9 DUP4 PUSH2 0x1BA3 JUMP JUMPDEST SWAP2 POP PUSH2 0x1F82 DUP3 PUSH2 0x1F43 JUMP JUMPDEST PUSH1 0x20 DUP3 ADD SWAP1 POP SWAP2 SWAP1 POP JUMP JUMPDEST PUSH0 PUSH1 0x20 DUP3 ADD SWAP1 POP DUP2 DUP2 SUB PUSH0 DUP4 ADD MSTORE PUSH2 0x1FA4 DUP2 PUSH2 0x1F6B JUMP JUMPDEST SWAP1 POP SWAP2 SWAP1 POP JUMP JUMPDEST PUSH32 0x4E487B7100000000000000000000000000000000000000000000000000000000 PUSH0 MSTORE PUSH1 0x11 PUSH1 0x4 MSTORE PUSH1 0x24 PUSH0 REVERT JUMPDEST PUSH0 PUSH2 0x1FE2 DUP3 PUSH2 0x1A98 JUMP JUMPDEST SWAP2 POP PUSH2 0x1FED DUP4 PUSH2 0x1A98 JUMP JUMPDEST SWAP3 POP DUP3 DUP3 MUL PUSH2 0x1FFB DUP2 PUSH2 0x1A98 JUMP JUMPDEST SWAP2 POP DUP3 DUP3 DIV DUP5 EQ DUP4 ISZERO OR PUSH2 0x2012 JUMPI PUSH2 0x2011 PUSH2 0x1FAB JUMP JUMPDEST JUMPDEST POP SWAP3 SWAP2 POP POP JUMP JUMPDEST PUSH32 0x4E487B7100000000000000000000000000000000000000000000000000000000 PUSH0 MSTORE PUSH1 0x12 PUSH1 0x4 MSTORE PUSH1 0x24 PUSH0 REVERT JUMPDEST PUSH0 PUSH2 0x2050 DUP3 PUSH2 0x1A98 JUMP JUMPDEST SWAP2 POP PUSH2 0x205B DUP4 PUSH2 0x1A98 JUMP JUMPDEST SWAP3 POP DUP3 PUSH2 0x206B JUMPI PUSH2 0x206A PUSH2 0x2019 JUMP JUMPDEST JUMPDEST DUP3 DUP3 DIV SWAP1 POP SWAP3 SWAP2 POP POP JUMP JUMPDEST PUSH32 0x4E487B7100000000000000000000000000000000000000000000000000000000 PUSH0 MSTORE PUSH1 0x22 PUSH1 0x4 MSTORE PUSH1 0x24 PUSH0 REVERT JUMPDEST PUSH0 PUSH1 0x2 DUP3 DIV SWAP1 POP PUSH1 0x1 DUP3 AND DUP1 PUSH2 0x20BA JUMPI PUSH1 0x7F DUP3 AND SWAP2 POP JUMPDEST PUSH1 0x20 DUP3 LT DUP2 SUB PUSH2 0x20CD JUMPI PUSH2 0x20CC PUSH2 0x2076 JUMP JUMPDEST JUMPDEST POP SWAP2 SWAP1 POP JUMP JUMPDEST PUSH0 PUSH2 0x20DD DUP3 PUSH2 0x1A98 JUMP JUMPDEST SWAP2 POP PUSH2 0x20E8 DUP4 PUSH2 0x1A98 JUMP JUMPDEST SWAP3 POP DUP3 DUP3 ADD SWAP1 POP DUP1 DUP3 GT ISZERO PUSH2 0x2100 JUMPI PUSH2 0x20FF PUSH2 0x1FAB JUMP JUMPDEST JUMPDEST SWAP3 SWAP2 POP POP JUMP JUMPDEST PUSH0 PUSH1 0x60 DUP3 ADD SWAP1 POP PUSH2 0x2119 PUSH0 DUP4 ADD DUP7 PUSH2 0x1D38 JUMP JUMPDEST PUSH2 0x2126 PUSH1 0x20 DUP4 ADD DUP6 PUSH2 0x1B63 JUMP JUMPDEST PUSH2 0x2133 PUSH1 0x40 DUP4 ADD DUP5 PUSH2 0x1B63 JUMP JUMPDEST SWAP5 SWAP4 POP POP POP POP JUMP JUMPDEST PUSH0 PUSH1 0x40 DUP3 ADD SWAP1 POP PUSH2 0x214E PUSH0 DUP4 ADD DUP6 PUSH2 0x1D38 JUMP JUMPDEST PUSH2 0x215B PUSH1 0x20 DUP4 ADD DUP5 PUSH2 0x1B63 JUMP JUMPDEST SWAP4 SWAP3 POP POP POP JUMP JUMPDEST PUSH2 0x216B DUP2 PUSH2 0x1CEC JUMP JUMPDEST DUP2 EQ PUSH2 0x2175 JUMPI PUSH0 DUP1 REVERT JUMPDEST POP JUMP JUMPDEST PUSH0 DUP2 MLOAD SWAP1 POP PUSH2 0x2186 DUP2 PUSH2 0x2162 JUMP JUMPDEST SWAP3 SWAP2 POP POP JUMP JUMPDEST PUSH0 PUSH1 0x20 DUP3 DUP5 SUB SLT ISZERO PUSH2 0x21A1 JUMPI PUSH2 0x21A0 PUSH2 0x1A94 JUMP JUMPDEST JUMPDEST PUSH0 PUSH2 0x21AE DUP5 DUP3 DUP6 ADD PUSH2 0x2178 JUMP JUMPDEST SWAP2 POP POP SWAP3 SWAP2 POP POP JUMP JUMPDEST PUSH0 PUSH2 0x21C1 DUP3 PUSH2 0x1A98 JUMP JUMPDEST SWAP2 POP PUSH2 0x21CC DUP4 PUSH2 0x1A98 JUMP JUMPDEST SWAP3 POP DUP3 DUP3 SUB SWAP1 POP DUP2 DUP2 GT ISZERO PUSH2 0x21E4 JUMPI PUSH2 0x21E3 PUSH2 0x1FAB JUMP JUMPDEST JUMPDEST SWAP3 SWAP2 POP POP JUMP JUMPDEST PUSH32 0x6E6F7420656E6F75676820617373657400000000000000000000000000000000 PUSH0 DUP3 ADD MSTORE POP JUMP JUMPDEST PUSH0 PUSH2 0x221E PUSH1 0x10 DUP4 PUSH2 0x1BA3 JUMP JUMPDEST SWAP2 POP PUSH2 0x2229 DUP3 PUSH2 0x21EA JUMP JUMPDEST PUSH1 0x20 DUP3 ADD SWAP1 POP SWAP2 SWAP1 POP JUMP JUMPDEST PUSH0 PUSH1 0x20 DUP3 ADD SWAP1 POP DUP2 DUP2 SUB PUSH0 DUP4 ADD MSTORE PUSH2 0x224B DUP2 PUSH2 0x2212 JUMP JUMPDEST SWAP1 POP SWAP2 SWAP1 POP JUMP JUMPDEST PUSH32 0x6E65646420746F20616464206C69710000000000000000000000000000000000 PUSH0 DUP3 ADD MSTORE POP JUMP JUMPDEST PUSH0 PUSH2 0x2286 PUSH1 0xF DUP4 PUSH2 0x1BA3 JUMP JUMPDEST SWAP2 POP PUSH2 0x2291 DUP3 PUSH2 0x2252 JUMP JUMPDEST PUSH1 0x20 DUP3 ADD SWAP1 POP SWAP2 SWAP1 POP JUMP JUMPDEST PUSH0 PUSH1 0x20 DUP3 ADD SWAP1 POP DUP2 DUP2 SUB PUSH0 DUP4 ADD MSTORE PUSH2 0x22B3 DUP2 PUSH2 0x227A JUMP JUMPDEST SWAP1 POP SWAP2 SWAP1 POP JUMP JUMPDEST PUSH2 0x22C3 DUP2 PUSH2 0x1DEE JUMP JUMPDEST DUP2 EQ PUSH2 0x22CD JUMPI PUSH0 DUP1 REVERT JUMPDEST POP JUMP JUMPDEST PUSH0 DUP2 MLOAD SWAP1 POP PUSH2 0x22DE DUP2 PUSH2 0x22BA JUMP JUMPDEST SWAP3 SWAP2 POP POP JUMP JUMPDEST PUSH0 PUSH1 0x20 DUP3 DUP5 SUB SLT ISZERO PUSH2 0x22F9 JUMPI PUSH2 0x22F8 PUSH2 0x1A94 JUMP JUMPDEST JUMPDEST PUSH0 PUSH2 0x2306 DUP5 DUP3 DUP6 ADD PUSH2 0x22D0 JUMP JUMPDEST SWAP2 POP POP SWAP3 SWAP2 POP POP JUMP JUMPDEST PUSH0 PUSH2 0x2319 DUP3 PUSH2 0x1DEE JUMP JUMPDEST SWAP2 POP PUSH2 0x2324 DUP4 PUSH2 0x1DEE JUMP JUMPDEST SWAP3 POP DUP3 DUP3 SUB SWAP1 POP PUSH1 0xFF DUP2 GT ISZERO PUSH2 0x233D JUMPI PUSH2 0x233C PUSH2 0x1FAB JUMP JUMPDEST JUMPDEST SWAP3 SWAP2 POP POP JUMP JUMPDEST PUSH0 DUP2 PUSH1 0x1 SHR SWAP1 POP SWAP2 SWAP1 POP JUMP JUMPDEST PUSH0 DUP1 DUP3 SWAP2 POP DUP4 SWAP1 POP JUMPDEST PUSH1 0x1 DUP6 GT ISZERO PUSH2 0x2398 JUMPI DUP1 DUP7 DIV DUP2 GT ISZERO PUSH2 0x2374 JUMPI PUSH2 0x2373 PUSH2 0x1FAB JUMP JUMPDEST JUMPDEST PUSH1 0x1 DUP6 AND ISZERO PUSH2 0x2383 JUMPI DUP1 DUP3 MUL SWAP2 POP JUMPDEST DUP1 DUP2 MUL SWAP1 POP PUSH2 0x2391 DUP6 PUSH2 0x2343 JUMP JUMPDEST SWAP5 POP PUSH2 0x2358 JUMP JUMPDEST SWAP5 POP SWAP5 SWAP3 POP POP POP JUMP JUMPDEST PUSH0 DUP3 PUSH2 0x23B0 JUMPI PUSH1 0x1 SWAP1 POP PUSH2 0x246B JUMP JUMPDEST DUP2 PUSH2 0x23BD JUMPI PUSH0 SWAP1 POP PUSH2 0x246B JUMP JUMPDEST DUP2 PUSH1 0x1 DUP2 EQ PUSH2 0x23D3 JUMPI PUSH1 0x2 DUP2 EQ PUSH2 0x23DD JUMPI PUSH2 0x240C JUMP JUMPDEST PUSH1 0x1 SWAP2 POP POP PUSH2 0x246B JUMP JUMPDEST PUSH1 0xFF DUP5 GT ISZERO PUSH2 0x23EF JUMPI PUSH2 0x23EE PUSH2 0x1FAB JUMP JUMPDEST JUMPDEST DUP4 PUSH1 0x2 EXP SWAP2 POP DUP5 DUP3 GT ISZERO PUSH2 0x2406 JUMPI PUSH2 0x2405 PUSH2 0x1FAB JUMP JUMPDEST JUMPDEST POP PUSH2 0x246B JUMP JUMPDEST POP PUSH1 0x20 DUP4 LT PUSH2 0x133 DUP4 LT AND PUSH1 0x4E DUP5 LT PUSH1 0xB DUP5 LT AND OR ISZERO PUSH2 0x2441 JUMPI DUP3 DUP3 EXP SWAP1 POP DUP4 DUP2 GT ISZERO PUSH2 0x243C JUMPI PUSH2 0x243B PUSH2 0x1FAB JUMP JUMPDEST JUMPDEST PUSH2 0x246B JUMP JUMPDEST PUSH2 0x244E DUP5 DUP5 DUP5 PUSH1 0x1 PUSH2 0x234F JUMP JUMPDEST SWAP3 POP SWAP1 POP DUP2 DUP5 DIV DUP2 GT ISZERO PUSH2 0x2465 JUMPI PUSH2 0x2464 PUSH2 0x1FAB JUMP JUMPDEST JUMPDEST DUP2 DUP2 MUL SWAP1 POP JUMPDEST SWAP4 SWAP3 POP POP POP JUMP JUMPDEST PUSH0 PUSH2 0x247C DUP3 PUSH2 0x1A98 JUMP JUMPDEST SWAP2 POP PUSH2 0x2487 DUP4 PUSH2 0x1DEE JUMP JUMPDEST SWAP3 POP PUSH2 0x24B4 PUSH32 0xFFFFFFFFFFFFFFFFFFFFFFFFFFFFFFFFFFFFFFFFFFFFFFFFFFFFFFFFFFFFFFFF DUP5 DUP5 PUSH2 0x23A1 JUMP JUMPDEST SWAP1 POP SWAP3 SWAP2 POP POP JUMP INVALID LOG2 PUSH5 0x6970667358 0x22 SLT KECCAK256 ADDRESS PUSH5 0xCC84699E54 0xD2 CHAINID PUSH2 0xAB38 0x27 KECCAK256 0x25 CODECOPY PUSH19 0x58FCC90C6862C888100A09EDA5801E64736F6C PUSH4 0x43000819 STOP CALLER "
		},
		"gasEstimates": {
			"creation": {
				"codeDepositCost": "1891600",
				"executionCost": "infinite",
				"totalCost": "infinite"
			},
			"external": {
				"_factory()": "2596",
				"allowance(address,address)": "infinite",
				"approve(address,uint256)": "infinite",
				"approveforliquidity(uint256,uint256)": "infinite",
				"approveforswap(address,uint256)": "infinite",
				"balanceOf(address)": "2918",
				"decimals()": "471",
				"deposit(uint256,uint256,address)": "infinite",
				"getReserves()": "infinite",
				"name()": "infinite",
				"reserveToken0()": "2448",
				"reserveToken1()": "2448",
				"symbol()": "infinite",
				"token0()": "2553",
				"token1()": "2618",
				"totalSupply()": "2499",
				"transfer(address,uint256)": "infinite",
				"transferFrom(address,address,uint256)": "infinite",
				"updateAfterLiquidity(address,uint256,uint256)": "infinite",
				"updateAfterRemoveLiquidity(address,uint256,uint256)": "infinite",
				"updateAfterSwap(address,uint256,uint256)": "infinite",
				"withdraw(uint256,address)": "infinite"
			},
			"internal": {
				"convertToTargetedPrecison(address)": "infinite"
			}
		},
		"methodIdentifiers": {
			"_factory()": "c5cc6b6a",
			"allowance(address,address)": "dd62ed3e",
			"approve(address,uint256)": "095ea7b3",
			"approveforliquidity(uint256,uint256)": "22817769",
			"approveforswap(address,uint256)": "69865deb",
			"balanceOf(address)": "70a08231",
			"decimals()": "313ce567",
			"deposit(uint256,uint256,address)": "8dbdbe6d",
			"getReserves()": "0902f1ac",
			"name()": "06fdde03",
			"reserveToken0()": "0d293d3b",
			"reserveToken1()": "3827ebaa",
			"symbol()": "95d89b41",
			"token0()": "0dfe1681",
			"token1()": "d21220a7",
			"totalSupply()": "18160ddd",
			"transfer(address,uint256)": "a9059cbb",
			"transferFrom(address,address,uint256)": "23b872dd",
			"updateAfterLiquidity(address,uint256,uint256)": "07aa9486",
			"updateAfterRemoveLiquidity(address,uint256,uint256)": "53dabf40",
			"updateAfterSwap(address,uint256,uint256)": "a7533d04",
			"withdraw(uint256,address)": "00f714ce"
		}
	},
	"abi": [
		{
			"inputs": [
				{
					"internalType": "address",
					"name": "_token0",
					"type": "address"
				},
				{
					"internalType": "address",
					"name": "_token1",
					"type": "address"
				},
				{
					"internalType": "address",
					"name": "_fac",
					"type": "address"
				},
				{
					"internalType": "string",
					"name": "name",
					"type": "string"
				},
				{
					"internalType": "string",
					"name": "symbol",
					"type": "string"
				}
			],
			"stateMutability": "nonpayable",
			"type": "constructor"
		},
		{
			"inputs": [
				{
					"internalType": "address",
					"name": "spender",
					"type": "address"
				},
				{
					"internalType": "uint256",
					"name": "allowance",
					"type": "uint256"
				},
				{
					"internalType": "uint256",
					"name": "needed",
					"type": "uint256"
				}
			],
			"name": "ERC20InsufficientAllowance",
			"type": "error"
		},
		{
			"inputs": [
				{
					"internalType": "address",
					"name": "sender",
					"type": "address"
				},
				{
					"internalType": "uint256",
					"name": "balance",
					"type": "uint256"
				},
				{
					"internalType": "uint256",
					"name": "needed",
					"type": "uint256"
				}
			],
			"name": "ERC20InsufficientBalance",
			"type": "error"
		},
		{
			"inputs": [
				{
					"internalType": "address",
					"name": "approver",
					"type": "address"
				}
			],
			"name": "ERC20InvalidApprover",
			"type": "error"
		},
		{
			"inputs": [
				{
					"internalType": "address",
					"name": "receiver",
					"type": "address"
				}
			],
			"name": "ERC20InvalidReceiver",
			"type": "error"
		},
		{
			"inputs": [
				{
					"internalType": "address",
					"name": "sender",
					"type": "address"
				}
			],
			"name": "ERC20InvalidSender",
			"type": "error"
		},
		{
			"inputs": [
				{
					"internalType": "address",
					"name": "spender",
					"type": "address"
				}
			],
			"name": "ERC20InvalidSpender",
			"type": "error"
		},
		{
			"anonymous": false,
			"inputs": [
				{
					"indexed": true,
					"internalType": "address",
					"name": "owner",
					"type": "address"
				},
				{
					"indexed": true,
					"internalType": "address",
					"name": "spender",
					"type": "address"
				},
				{
					"indexed": false,
					"internalType": "uint256",
					"name": "value",
					"type": "uint256"
				}
			],
			"name": "Approval",
			"type": "event"
		},
		{
			"anonymous": false,
			"inputs": [
				{
					"indexed": true,
					"internalType": "address",
					"name": "from",
					"type": "address"
				},
				{
					"indexed": true,
					"internalType": "address",
					"name": "to",
					"type": "address"
				},
				{
					"indexed": false,
					"internalType": "uint256",
					"name": "value",
					"type": "uint256"
				}
			],
			"name": "Transfer",
			"type": "event"
		},
		{
			"anonymous": false,
			"inputs": [
				{
					"indexed": false,
					"internalType": "address",
					"name": "pool",
					"type": "address"
				},
				{
					"indexed": false,
					"internalType": "uint256",
					"name": "reserve0",
					"type": "uint256"
				},
				{
					"indexed": false,
					"internalType": "uint256",
					"name": "reserve1",
					"type": "uint256"
				}
			],
			"name": "syncReserve",
			"type": "event"
		},
		{
			"inputs": [],
			"name": "_factory",
			"outputs": [
				{
					"internalType": "address",
					"name": "",
					"type": "address"
				}
			],
			"stateMutability": "view",
			"type": "function"
		},
		{
			"inputs": [
				{
					"internalType": "address",
					"name": "owner",
					"type": "address"
				},
				{
					"internalType": "address",
					"name": "spender",
					"type": "address"
				}
			],
			"name": "allowance",
			"outputs": [
				{
					"internalType": "uint256",
					"name": "",
					"type": "uint256"
				}
			],
			"stateMutability": "view",
			"type": "function"
		},
		{
			"inputs": [
				{
					"internalType": "address",
					"name": "spender",
					"type": "address"
				},
				{
					"internalType": "uint256",
					"name": "value",
					"type": "uint256"
				}
			],
			"name": "approve",
			"outputs": [
				{
					"internalType": "bool",
					"name": "",
					"type": "bool"
				}
			],
			"stateMutability": "nonpayable",
			"type": "function"
		},
		{
			"inputs": [
				{
					"internalType": "uint256",
					"name": "amount0",
					"type": "uint256"
				},
				{
					"internalType": "uint256",
					"name": "amount1",
					"type": "uint256"
				}
			],
			"name": "approveforliquidity",
			"outputs": [],
			"stateMutability": "nonpayable",
			"type": "function"
		},
		{
			"inputs": [
				{
					"internalType": "address",
					"name": "tokenOUT",
					"type": "address"
				},
				{
					"internalType": "uint256",
					"name": "amount",
					"type": "uint256"
				}
			],
			"name": "approveforswap",
			"outputs": [],
			"stateMutability": "nonpayable",
			"type": "function"
		},
		{
			"inputs": [
				{
					"internalType": "address",
					"name": "account",
					"type": "address"
				}
			],
			"name": "balanceOf",
			"outputs": [
				{
					"internalType": "uint256",
					"name": "",
					"type": "uint256"
				}
			],
			"stateMutability": "view",
			"type": "function"
		},
		{
			"inputs": [],
			"name": "decimals",
			"outputs": [
				{
					"internalType": "uint8",
					"name": "",
					"type": "uint8"
				}
			],
			"stateMutability": "view",
			"type": "function"
		},
		{
			"inputs": [
				{
					"internalType": "uint256",
					"name": "amount0",
					"type": "uint256"
				},
				{
					"internalType": "uint256",
					"name": "amount1",
					"type": "uint256"
				},
				{
					"internalType": "address",
					"name": "sender",
					"type": "address"
				}
			],
			"name": "deposit",
			"outputs": [],
			"stateMutability": "nonpayable",
			"type": "function"
		},
		{
			"inputs": [],
			"name": "getReserves",
			"outputs": [
				{
					"internalType": "uint256",
					"name": "_reserve0",
					"type": "uint256"
				},
				{
					"internalType": "uint256",
					"name": "_reserve1",
					"type": "uint256"
				},
				{
					"internalType": "uint256",
					"name": "_blockTimestampLast",
					"type": "uint256"
				}
			],
			"stateMutability": "view",
			"type": "function"
		},
		{
			"inputs": [],
			"name": "name",
			"outputs": [
				{
					"internalType": "string",
					"name": "",
					"type": "string"
				}
			],
			"stateMutability": "view",
			"type": "function"
		},
		{
			"inputs": [],
			"name": "reserveToken0",
			"outputs": [
				{
					"internalType": "uint256",
					"name": "",
					"type": "uint256"
				}
			],
			"stateMutability": "view",
			"type": "function"
		},
		{
			"inputs": [],
			"name": "reserveToken1",
			"outputs": [
				{
					"internalType": "uint256",
					"name": "",
					"type": "uint256"
				}
			],
			"stateMutability": "view",
			"type": "function"
		},
		{
			"inputs": [],
			"name": "symbol",
			"outputs": [
				{
					"internalType": "string",
					"name": "",
					"type": "string"
				}
			],
			"stateMutability": "view",
			"type": "function"
		},
		{
			"inputs": [],
			"name": "token0",
			"outputs": [
				{
					"internalType": "address",
					"name": "",
					"type": "address"
				}
			],
			"stateMutability": "view",
			"type": "function"
		},
		{
			"inputs": [],
			"name": "token1",
			"outputs": [
				{
					"internalType": "address",
					"name": "",
					"type": "address"
				}
			],
			"stateMutability": "view",
			"type": "function"
		},
		{
			"inputs": [],
			"name": "totalSupply",
			"outputs": [
				{
					"internalType": "uint256",
					"name": "",
					"type": "uint256"
				}
			],
			"stateMutability": "view",
			"type": "function"
		},
		{
			"inputs": [
				{
					"internalType": "address",
					"name": "to",
					"type": "address"
				},
				{
					"internalType": "uint256",
					"name": "value",
					"type": "uint256"
				}
			],
			"name": "transfer",
			"outputs": [
				{
					"internalType": "bool",
					"name": "",
					"type": "bool"
				}
			],
			"stateMutability": "nonpayable",
			"type": "function"
		},
		{
			"inputs": [
				{
					"internalType": "address",
					"name": "from",
					"type": "address"
				},
				{
					"internalType": "address",
					"name": "to",
					"type": "address"
				},
				{
					"internalType": "uint256",
					"name": "value",
					"type": "uint256"
				}
			],
			"name": "transferFrom",
			"outputs": [
				{
					"internalType": "bool",
					"name": "",
					"type": "bool"
				}
			],
			"stateMutability": "nonpayable",
			"type": "function"
		},
		{
			"inputs": [
				{
					"internalType": "address",
					"name": "tokenA",
					"type": "address"
				},
				{
					"internalType": "uint256",
					"name": "amount0",
					"type": "uint256"
				},
				{
					"internalType": "uint256",
					"name": "amount1",
					"type": "uint256"
				}
			],
			"name": "updateAfterLiquidity",
			"outputs": [],
			"stateMutability": "nonpayable",
			"type": "function"
		},
		{
			"inputs": [
				{
					"internalType": "address",
					"name": "tokenA",
					"type": "address"
				},
				{
					"internalType": "uint256",
					"name": "amount0",
					"type": "uint256"
				},
				{
					"internalType": "uint256",
					"name": "amount1",
					"type": "uint256"
				}
			],
			"name": "updateAfterRemoveLiquidity",
			"outputs": [],
			"stateMutability": "nonpayable",
			"type": "function"
		},
		{
			"inputs": [
				{
					"internalType": "address",
					"name": "tokenIn",
					"type": "address"
				},
				{
					"internalType": "uint256",
					"name": "amountIN",
					"type": "uint256"
				},
				{
					"internalType": "uint256",
					"name": "amountOUT",
					"type": "uint256"
				}
			],
			"name": "updateAfterSwap",
			"outputs": [],
			"stateMutability": "nonpayable",
			"type": "function"
		},
		{
			"inputs": [
				{
					"internalType": "uint256",
					"name": "amount",
					"type": "uint256"
				},
				{
					"internalType": "address",
					"name": "sender",
					"type": "address"
				}
			],
			"name": "withdraw",
			"outputs": [
				{
					"internalType": "uint256",
					"name": "",
					"type": "uint256"
				},
				{
					"internalType": "uint256",
					"name": "",
					"type": "uint256"
				}
			],
			"stateMutability": "nonpayable",
			"type": "function"
		}
	]
}