{
	"data": {
		"bytecode": {
			"linkReferences": {},
			"object": "608060405273f6c849bc9636e022223b4a4bdda509c1e26d80115f806101000a81548173ffffffffffffffffffffffffffffffffffffffff021916908373ffffffffffffffffffffffffffffffffffffffff160217905550348015610062575f80fd5b50610292806100705f395ff3fe608060405234801561000f575f80fd5b5060043610610029575f3560e01c8063ce1f57831461002d575b5f80fd5b61004760048036038101906100429190610179565b610049565b005b5f8054906101000a900473ffffffffffffffffffffffffffffffffffffffff1673ffffffffffffffffffffffffffffffffffffffff1663a9059cbb83836040518363ffffffff1660e01b81526004016100a39291906101d5565b6020604051808303815f875af11580156100bf573d5f803e3d5ffd5b505050506040513d601f19601f820116820180604052508101906100e39190610231565b505050565b5f80fd5b5f73ffffffffffffffffffffffffffffffffffffffff82169050919050565b5f610115826100ec565b9050919050565b6101258161010b565b811461012f575f80fd5b50565b5f813590506101408161011c565b92915050565b5f819050919050565b61015881610146565b8114610162575f80fd5b50565b5f813590506101738161014f565b92915050565b5f806040838503121561018f5761018e6100e8565b5b5f61019c85828601610132565b92505060206101ad85828601610165565b9150509250929050565b6101c08161010b565b82525050565b6101cf81610146565b82525050565b5f6040820190506101e85f8301856101b7565b6101f560208301846101c6565b9392505050565b5f8115159050919050565b610210816101fc565b811461021a575f80fd5b50565b5f8151905061022b81610207565b92915050565b5f60208284031215610246576102456100e8565b5b5f6102538482850161021d565b9150509291505056fea264697066735822122002d0451912dd243a865b70b5f9343a7081200deca95c5048c4f8ecfb535a262764736f6c63430008160033",
			"opcodes": "PUSH1 0x80 PUSH1 0x40 MSTORE PUSH20 0xF6C849BC9636E022223B4A4BDDA509C1E26D8011 PUSH0 DUP1 PUSH2 0x100 EXP DUP2 SLOAD DUP2 PUSH20 0xFFFFFFFFFFFFFFFFFFFFFFFFFFFFFFFFFFFFFFFF MUL NOT AND SWAP1 DUP4 PUSH20 0xFFFFFFFFFFFFFFFFFFFFFFFFFFFFFFFFFFFFFFFF AND MUL OR SWAP1 SSTORE POP CALLVALUE DUP1 ISZERO PUSH2 0x62 JUMPI PUSH0 DUP1 REVERT JUMPDEST POP PUSH2 0x292 DUP1 PUSH2 0x70 PUSH0 CODECOPY PUSH0 RETURN INVALID PUSH1 0x80 PUSH1 0x40 MSTORE CALLVALUE DUP1 ISZERO PUSH2 0xF JUMPI PUSH0 DUP1 REVERT JUMPDEST POP PUSH1 0x4 CALLDATASIZE LT PUSH2 0x29 JUMPI PUSH0 CALLDATALOAD PUSH1 0xE0 SHR DUP1 PUSH4 0xCE1F5783 EQ PUSH2 0x2D JUMPI JUMPDEST PUSH0 DUP1 REVERT JUMPDEST PUSH2 0x47 PUSH1 0x4 DUP1 CALLDATASIZE SUB DUP2 ADD SWAP1 PUSH2 0x42 SWAP2 SWAP1 PUSH2 0x179 JUMP JUMPDEST PUSH2 0x49 JUMP JUMPDEST STOP JUMPDEST PUSH0 DUP1 SLOAD SWAP1 PUSH2 0x100 EXP SWAP1 DIV PUSH20 0xFFFFFFFFFFFFFFFFFFFFFFFFFFFFFFFFFFFFFFFF AND PUSH20 0xFFFFFFFFFFFFFFFFFFFFFFFFFFFFFFFFFFFFFFFF AND PUSH4 0xA9059CBB DUP4 DUP4 PUSH1 0x40 MLOAD DUP4 PUSH4 0xFFFFFFFF AND PUSH1 0xE0 SHL DUP2 MSTORE PUSH1 0x4 ADD PUSH2 0xA3 SWAP3 SWAP2 SWAP1 PUSH2 0x1D5 JUMP JUMPDEST PUSH1 0x20 PUSH1 0x40 MLOAD DUP1 DUP4 SUB DUP2 PUSH0 DUP8 GAS CALL ISZERO DUP1 ISZERO PUSH2 0xBF JUMPI RETURNDATASIZE PUSH0 DUP1 RETURNDATACOPY RETURNDATASIZE PUSH0 REVERT JUMPDEST POP POP POP POP PUSH1 0x40 MLOAD RETURNDATASIZE PUSH1 0x1F NOT PUSH1 0x1F DUP3 ADD AND DUP3 ADD DUP1 PUSH1 0x40 MSTORE POP DUP2 ADD SWAP1 PUSH2 0xE3 SWAP2 SWAP1 PUSH2 0x231 JUMP JUMPDEST POP POP POP JUMP JUMPDEST PUSH0 DUP1 REVERT JUMPDEST PUSH0 PUSH20 0xFFFFFFFFFFFFFFFFFFFFFFFFFFFFFFFFFFFFFFFF DUP3 AND SWAP1 POP SWAP2 SWAP1 POP JUMP JUMPDEST PUSH0 PUSH2 0x115 DUP3 PUSH2 0xEC JUMP JUMPDEST SWAP1 POP SWAP2 SWAP1 POP JUMP JUMPDEST PUSH2 0x125 DUP2 PUSH2 0x10B JUMP JUMPDEST DUP2 EQ PUSH2 0x12F JUMPI PUSH0 DUP1 REVERT JUMPDEST POP JUMP JUMPDEST PUSH0 DUP2 CALLDATALOAD SWAP1 POP PUSH2 0x140 DUP2 PUSH2 0x11C JUMP JUMPDEST SWAP3 SWAP2 POP POP JUMP JUMPDEST PUSH0 DUP2 SWAP1 POP SWAP2 SWAP1 POP JUMP JUMPDEST PUSH2 0x158 DUP2 PUSH2 0x146 JUMP JUMPDEST DUP2 EQ PUSH2 0x162 JUMPI PUSH0 DUP1 REVERT JUMPDEST POP JUMP JUMPDEST PUSH0 DUP2 CALLDATALOAD SWAP1 POP PUSH2 0x173 DUP2 PUSH2 0x14F JUMP JUMPDEST SWAP3 SWAP2 POP POP JUMP JUMPDEST PUSH0 DUP1 PUSH1 0x40 DUP4 DUP6 SUB SLT ISZERO PUSH2 0x18F JUMPI PUSH2 0x18E PUSH2 0xE8 JUMP JUMPDEST JUMPDEST PUSH0 PUSH2 0x19C DUP6 DUP3 DUP7 ADD PUSH2 0x132 JUMP JUMPDEST SWAP3 POP POP PUSH1 0x20 PUSH2 0x1AD DUP6 DUP3 DUP7 ADD PUSH2 0x165 JUMP JUMPDEST SWAP2 POP POP SWAP3 POP SWAP3 SWAP1 POP JUMP JUMPDEST PUSH2 0x1C0 DUP2 PUSH2 0x10B JUMP JUMPDEST DUP3 MSTORE POP POP JUMP JUMPDEST PUSH2 0x1CF DUP2 PUSH2 0x146 JUMP JUMPDEST DUP3 MSTORE POP POP JUMP JUMPDEST PUSH0 PUSH1 0x40 DUP3 ADD SWAP1 POP PUSH2 0x1E8 PUSH0 DUP4 ADD DUP6 PUSH2 0x1B7 JUMP JUMPDEST PUSH2 0x1F5 PUSH1 0x20 DUP4 ADD DUP5 PUSH2 0x1C6 JUMP JUMPDEST SWAP4 SWAP3 POP POP POP JUMP JUMPDEST PUSH0 DUP2 ISZERO ISZERO SWAP1 POP SWAP2 SWAP1 POP JUMP JUMPDEST PUSH2 0x210 DUP2 PUSH2 0x1FC JUMP JUMPDEST DUP2 EQ PUSH2 0x21A JUMPI PUSH0 DUP1 REVERT JUMPDEST POP JUMP JUMPDEST PUSH0 DUP2 MLOAD SWAP1 POP PUSH2 0x22B DUP2 PUSH2 0x207 JUMP JUMPDEST SWAP3 SWAP2 POP POP JUMP JUMPDEST PUSH0 PUSH1 0x20 DUP3 DUP5 SUB SLT ISZERO PUSH2 0x246 JUMPI PUSH2 0x245 PUSH2 0xE8 JUMP JUMPDEST JUMPDEST PUSH0 PUSH2 0x253 DUP5 DUP3 DUP6 ADD PUSH2 0x21D JUMP JUMPDEST SWAP2 POP POP SWAP3 SWAP2 POP POP JUMP INVALID LOG2 PUSH5 0x6970667358 0x22 SLT KECCAK256 MUL 0xD0 GASLIMIT NOT SLT 0xDD 0x24 GASPRICE DUP7 JUMPDEST PUSH17 0xB5F9343A7081200DECA95C5048C4F8ECFB MSTORE8 GAS 0x26 0x27 PUSH5 0x736F6C6343 STOP ADDMOD AND STOP CALLER "
		},
		"gasEstimates": {
			"creation": {
				"codeDepositCost": "131600",
				"executionCost": "24441",
				"totalCost": "156041"
			},
			"external": {
				"target(address,uint256)": "infinite"
			}
		},
		"methodIdentifiers": {
			"target(address,uint256)": "ce1f5783"
		}
	},
	"abi": [
		{
			"inputs": [
				{
					"internalType": "address",
					"name": "_address",
					"type": "address"
				},
				{
					"internalType": "uint256",
					"name": "_val",
					"type": "uint256"
				}
			],
			"name": "target",
			"outputs": [],
			"stateMutability": "nonpayable",
			"type": "function"
		}
	]
}